{
	"data": {
		"bytecode": {
			"linkReferences": {},
			"object": "60c060405234801561000f575f80fd5b506040516110ae3803806110ae83398101604081905261002e916100fb565b8383826001600160a01b03811661005e57604051631e4fbdf760e01b81525f600482015260240160405180910390fd5b61006781610091565b506001600160a01b0391821660a0521660805250600555505067016345785d8a0000600655610145565b5f80546001600160a01b038381166001600160a01b0319831681178455604051919092169283917f8be0079c531659141344cd1fd0a4f28419497f9722a3daafe3b4186f6b6457e09190a35050565b80516001600160a01b03811681146100f6575f80fd5b919050565b5f805f806080858703121561010e575f80fd5b610117856100e0565b9350610125602086016100e0565b92506040850151915061013a606086016100e0565b905092959194509250565b60805160a051610f4b6101635f395f61088e01525f5050610f4b5ff3fe60806040526004361061017b575f3560e01c80638c551742116100cd578063b08f9aaf11610087578063d88edee911610062578063d88edee9146104a0578063ebf30c79146104d9578063f2fde38b146104f3578063f85d940d14610512575f80fd5b8063b08f9aaf1461040a578063b5daa41314610445578063bd557e7714610472575f80fd5b80638c551742146103385780638da5cb5b146103575780639076dc1b1461038757806394985ddd146103b75780639526665d146103d6578063a4229101146103f0575f80fd5b80632c87d91611610138578063528be0a911610113578063528be0a9146101d9578063589c96481461017f578063715018a6146102bc5780637804288c146102d0575f80fd5b80632c87d916146101d95780632fb172ac14610280578063429b62e51461028e575f80fd5b8063096a8ab71461017f5780630b791430146101a0578063139f399a146101d957806314d0f1ba146101f6578063200886431461023457806320610c7814610262575b5f80fd5b34801561018a575f80fd5b5061019e610199366004610b4c565b610531565b005b3480156101ab575f80fd5b506101bf6101ba366004610b4c565b610539565b6040516101d0959493929190610b91565b60405180910390f35b3480156101e4575f80fd5b5061019e6101f3366004610b4c565b50565b348015610201575f80fd5b50610224610210366004610beb565b60026020525f908152604090205460ff1681565b60405190151581526020016101d0565b34801561023f575f80fd5b5061025361024e366004610b4c565b610673565b6040516101d093929190610c0b565b34801561026d575f80fd5b5061019e61027c366004610c3b565b5050565b61019e6101f3366004610b4c565b348015610299575f80fd5b506102246102a8366004610beb565b60036020525f908152604090205460ff1681565b3480156102c7575f80fd5b5061019e610724565b3480156102db575f80fd5b506103196102ea366004610c63565b600960209081525f9283526040808420909152908252902080546001909101546001600160a01b039091169082565b604080516001600160a01b0390931683526020830191909152016101d0565b348015610343575f80fd5b5061019e610352366004610d20565b610737565b348015610362575f80fd5b505f546001600160a01b03165b6040516001600160a01b0390911681526020016101d0565b348015610392575f80fd5b506103a66103a1366004610b4c565b61073f565b6040516101d0959493929190610d62565b3480156103c2575f80fd5b5061019e6103d1366004610c63565b610883565b3480156103e1575f80fd5b5061019e610352366004610daa565b3480156103fb575f80fd5b5061019e61027c366004610e0a565b348015610415575f80fd5b50610438610424366004610b4c565b60046020525f908152604090205460ff1681565b6040516101d09190610e34565b348015610450575f80fd5b5061046461045f366004610c63565b610911565b6040516101d0929190610e5a565b34801561047d575f80fd5b5061049161048c366004610c63565b6109d1565b6040516101d093929190610e7b565b3480156104ab575f80fd5b506104cb6104ba366004610b4c565b60076020525f908152604090205481565b6040519081526020016101d0565b3480156104e4575f80fd5b5061019e6101f3366004610ea3565b3480156104fe575f80fd5b5061019e61050d366004610beb565b610a97565b34801561051d575f80fd5b50600a5461036f906001600160a01b031681565b6101f3610ad1565b600c6020525f90815260409020805460018201805491929161055a90610edd565b80601f016020809104026020016040519081016040528092919081815260200182805461058690610edd565b80156105d15780601f106105a8576101008083540402835291602001916105d1565b820191905f5260205f20905b8154815290600101906020018083116105b457829003601f168201915b5050505050908060020180546105e690610edd565b80601f016020809104026020016040519081016040528092919081815260200182805461061290610edd565b801561065d5780601f106106345761010080835404028352916020019161065d565b820191905f5260205f20905b81548152906001019060200180831161064057829003601f168201915b5050505050908060030154908060040154905085565b600e6020525f90815260409020805460018201805491929161069490610edd565b80601f01602080910402602001604051908101604052809291908181526020018280546106c090610edd565b801561070b5780601f106106e25761010080835404028352916020019161070b565b820191905f5260205f20905b8154815290600101906020018083116106ee57829003601f168201915b505050600290930154919250506001600160a01b031683565b61072c610ad1565b6107355f610afd565b565b61027c610ad1565b600d6020525f90815260409020805460018201805491929161076090610edd565b80601f016020809104026020016040519081016040528092919081815260200182805461078c90610edd565b80156107d75780601f106107ae576101008083540402835291602001916107d7565b820191905f5260205f20905b8154815290600101906020018083116107ba57829003601f168201915b5050505050908060020180546107ec90610edd565b80601f016020809104026020016040519081016040528092919081815260200182805461081890610edd565b80156108635780601f1061083a57610100808354040283529160200191610863565b820191905f5260205f20905b81548152906001019060200180831161084657829003601f168201915b50505050600383015460049093015491926001600160a01b031691905085565b336001600160a01b037f000000000000000000000000000000000000000000000000000000000000000016146109005760405162461bcd60e51b815260206004820152601f60248201527f4f6e6c7920565246436f6f7264696e61746f722063616e2066756c66696c6c0060448201526064015b60405180910390fd5b5f9182526007602052604090912055565b600b602052815f5260405f20818154811061092a575f80fd5b905f5260205f2090600202015f9150915050805f01805461094a90610edd565b80601f016020809104026020016040519081016040528092919081815260200182805461097690610edd565b80156109c15780601f10610998576101008083540402835291602001916109c1565b820191905f5260205f20905b8154815290600101906020018083116109a457829003601f168201915b5050505050908060010154905082565b6008602052815f5260405f2081815481106109ea575f80fd5b905f5260205f2090600302015f9150915050805f015490806001018054610a1090610edd565b80601f0160208091040260200160405190810160405280929190818152602001828054610a3c90610edd565b8015610a875780601f10610a5e57610100808354040283529160200191610a87565b820191905f5260205f20905b815481529060010190602001808311610a6a57829003601f168201915b5050505050908060020154905083565b610a9f610ad1565b6001600160a01b038116610ac857604051631e4fbdf760e01b81525f60048201526024016108f7565b6101f381610afd565b5f546001600160a01b031633146107355760405163118cdaa760e01b81523360048201526024016108f7565b5f80546001600160a01b038381166001600160a01b0319831681178455604051919092169283917f8be0079c531659141344cd1fd0a4f28419497f9722a3daafe3b4186f6b6457e09190a35050565b5f60208284031215610b5c575f80fd5b5035919050565b5f81518084528060208401602086015e5f602082860101526020601f19601f83011685010191505092915050565b85815260a060208201525f610ba960a0830187610b63565b8281036040840152610bbb8187610b63565b60608401959095525050608001529392505050565b80356001600160a01b0381168114610be6575f80fd5b919050565b5f60208284031215610bfb575f80fd5b610c0482610bd0565b9392505050565b838152606060208201525f610c236060830185610b63565b905060018060a01b0383166040830152949350505050565b5f8060408385031215610c4c575f80fd5b610c5583610bd0565b946020939093013593505050565b5f8060408385031215610c74575f80fd5b50508035926020909101359150565b634e487b7160e01b5f52604160045260245ffd5b5f82601f830112610ca6575f80fd5b813567ffffffffffffffff80821115610cc157610cc1610c83565b604051601f8301601f19908116603f01168101908282118183101715610ce957610ce9610c83565b81604052838152866020858801011115610d01575f80fd5b836020870160208301375f602085830101528094505050505092915050565b5f8060408385031215610d31575f80fd5b823567ffffffffffffffff811115610d47575f80fd5b610d5385828601610c97565b95602094909401359450505050565b85815260a060208201525f610d7a60a0830187610b63565b8281036040840152610d8c8187610b63565b6001600160a01b039590951660608401525050608001529392505050565b5f8060408385031215610dbb575f80fd5b823567ffffffffffffffff80821115610dd2575f80fd5b610dde86838701610c97565b93506020850135915080821115610df3575f80fd5b50610e0085828601610c97565b9150509250929050565b5f8060408385031215610e1b575f80fd5b82359150610e2b60208401610bd0565b90509250929050565b6020810160038310610e5457634e487b7160e01b5f52602160045260245ffd5b91905290565b604081525f610e6c6040830185610b63565b90508260208301529392505050565b838152606060208201525f610e936060830185610b63565b9050826040830152949350505050565b5f60208284031215610eb3575f80fd5b813567ffffffffffffffff811115610ec9575f80fd5b610ed584828501610c97565b949350505050565b600181811c90821680610ef157607f821691505b602082108103610f0f57634e487b7160e01b5f52602260045260245ffd5b5091905056fea2646970667358221220950715da45db5771ae27c8fdd61675d056dc77f7318cb2560e30298b231d243e64736f6c63430008190033",
			"opcodes": "PUSH1 0xC0 PUSH1 0x40 MSTORE CALLVALUE DUP1 ISZERO PUSH2 0xF JUMPI PUSH0 DUP1 REVERT JUMPDEST POP PUSH1 0x40 MLOAD PUSH2 0x10AE CODESIZE SUB DUP1 PUSH2 0x10AE DUP4 CODECOPY DUP2 ADD PUSH1 0x40 DUP2 SWAP1 MSTORE PUSH2 0x2E SWAP2 PUSH2 0xFB JUMP JUMPDEST DUP4 DUP4 DUP3 PUSH1 0x1 PUSH1 0x1 PUSH1 0xA0 SHL SUB DUP2 AND PUSH2 0x5E JUMPI PUSH1 0x40 MLOAD PUSH4 0x1E4FBDF7 PUSH1 0xE0 SHL DUP2 MSTORE PUSH0 PUSH1 0x4 DUP3 ADD MSTORE PUSH1 0x24 ADD PUSH1 0x40 MLOAD DUP1 SWAP2 SUB SWAP1 REVERT JUMPDEST PUSH2 0x67 DUP2 PUSH2 0x91 JUMP JUMPDEST POP PUSH1 0x1 PUSH1 0x1 PUSH1 0xA0 SHL SUB SWAP2 DUP3 AND PUSH1 0xA0 MSTORE AND PUSH1 0x80 MSTORE POP PUSH1 0x5 SSTORE POP POP PUSH8 0x16345785D8A0000 PUSH1 0x6 SSTORE PUSH2 0x145 JUMP JUMPDEST PUSH0 DUP1 SLOAD PUSH1 0x1 PUSH1 0x1 PUSH1 0xA0 SHL SUB DUP4 DUP2 AND PUSH1 0x1 PUSH1 0x1 PUSH1 0xA0 SHL SUB NOT DUP4 AND DUP2 OR DUP5 SSTORE PUSH1 0x40 MLOAD SWAP2 SWAP1 SWAP3 AND SWAP3 DUP4 SWAP2 PUSH32 0x8BE0079C531659141344CD1FD0A4F28419497F9722A3DAAFE3B4186F6B6457E0 SWAP2 SWAP1 LOG3 POP POP JUMP JUMPDEST DUP1 MLOAD PUSH1 0x1 PUSH1 0x1 PUSH1 0xA0 SHL SUB DUP2 AND DUP2 EQ PUSH2 0xF6 JUMPI PUSH0 DUP1 REVERT JUMPDEST SWAP2 SWAP1 POP JUMP JUMPDEST PUSH0 DUP1 PUSH0 DUP1 PUSH1 0x80 DUP6 DUP8 SUB SLT ISZERO PUSH2 0x10E JUMPI PUSH0 DUP1 REVERT JUMPDEST PUSH2 0x117 DUP6 PUSH2 0xE0 JUMP JUMPDEST SWAP4 POP PUSH2 0x125 PUSH1 0x20 DUP7 ADD PUSH2 0xE0 JUMP JUMPDEST SWAP3 POP PUSH1 0x40 DUP6 ADD MLOAD SWAP2 POP PUSH2 0x13A PUSH1 0x60 DUP7 ADD PUSH2 0xE0 JUMP JUMPDEST SWAP1 POP SWAP3 SWAP6 SWAP2 SWAP5 POP SWAP3 POP JUMP JUMPDEST PUSH1 0x80 MLOAD PUSH1 0xA0 MLOAD PUSH2 0xF4B PUSH2 0x163 PUSH0 CODECOPY PUSH0 PUSH2 0x88E ADD MSTORE PUSH0 POP POP PUSH2 0xF4B PUSH0 RETURN INVALID PUSH1 0x80 PUSH1 0x40 MSTORE PUSH1 0x4 CALLDATASIZE LT PUSH2 0x17B JUMPI PUSH0 CALLDATALOAD PUSH1 0xE0 SHR DUP1 PUSH4 0x8C551742 GT PUSH2 0xCD JUMPI DUP1 PUSH4 0xB08F9AAF GT PUSH2 0x87 JUMPI DUP1 PUSH4 0xD88EDEE9 GT PUSH2 0x62 JUMPI DUP1 PUSH4 0xD88EDEE9 EQ PUSH2 0x4A0 JUMPI DUP1 PUSH4 0xEBF30C79 EQ PUSH2 0x4D9 JUMPI DUP1 PUSH4 0xF2FDE38B EQ PUSH2 0x4F3 JUMPI DUP1 PUSH4 0xF85D940D EQ PUSH2 0x512 JUMPI PUSH0 DUP1 REVERT JUMPDEST DUP1 PUSH4 0xB08F9AAF EQ PUSH2 0x40A JUMPI DUP1 PUSH4 0xB5DAA413 EQ PUSH2 0x445 JUMPI DUP1 PUSH4 0xBD557E77 EQ PUSH2 0x472 JUMPI PUSH0 DUP1 REVERT JUMPDEST DUP1 PUSH4 0x8C551742 EQ PUSH2 0x338 JUMPI DUP1 PUSH4 0x8DA5CB5B EQ PUSH2 0x357 JUMPI DUP1 PUSH4 0x9076DC1B EQ PUSH2 0x387 JUMPI DUP1 PUSH4 0x94985DDD EQ PUSH2 0x3B7 JUMPI DUP1 PUSH4 0x9526665D EQ PUSH2 0x3D6 JUMPI DUP1 PUSH4 0xA4229101 EQ PUSH2 0x3F0 JUMPI PUSH0 DUP1 REVERT JUMPDEST DUP1 PUSH4 0x2C87D916 GT PUSH2 0x138 JUMPI DUP1 PUSH4 0x528BE0A9 GT PUSH2 0x113 JUMPI DUP1 PUSH4 0x528BE0A9 EQ PUSH2 0x1D9 JUMPI DUP1 PUSH4 0x589C9648 EQ PUSH2 0x17F JUMPI DUP1 PUSH4 0x715018A6 EQ PUSH2 0x2BC JUMPI DUP1 PUSH4 0x7804288C EQ PUSH2 0x2D0 JUMPI PUSH0 DUP1 REVERT JUMPDEST DUP1 PUSH4 0x2C87D916 EQ PUSH2 0x1D9 JUMPI DUP1 PUSH4 0x2FB172AC EQ PUSH2 0x280 JUMPI DUP1 PUSH4 0x429B62E5 EQ PUSH2 0x28E JUMPI PUSH0 DUP1 REVERT JUMPDEST DUP1 PUSH4 0x96A8AB7 EQ PUSH2 0x17F JUMPI DUP1 PUSH4 0xB791430 EQ PUSH2 0x1A0 JUMPI DUP1 PUSH4 0x139F399A EQ PUSH2 0x1D9 JUMPI DUP1 PUSH4 0x14D0F1BA EQ PUSH2 0x1F6 JUMPI DUP1 PUSH4 0x20088643 EQ PUSH2 0x234 JUMPI DUP1 PUSH4 0x20610C78 EQ PUSH2 0x262 JUMPI JUMPDEST PUSH0 DUP1 REVERT JUMPDEST CALLVALUE DUP1 ISZERO PUSH2 0x18A JUMPI PUSH0 DUP1 REVERT JUMPDEST POP PUSH2 0x19E PUSH2 0x199 CALLDATASIZE PUSH1 0x4 PUSH2 0xB4C JUMP JUMPDEST PUSH2 0x531 JUMP JUMPDEST STOP JUMPDEST CALLVALUE DUP1 ISZERO PUSH2 0x1AB JUMPI PUSH0 DUP1 REVERT JUMPDEST POP PUSH2 0x1BF PUSH2 0x1BA CALLDATASIZE PUSH1 0x4 PUSH2 0xB4C JUMP JUMPDEST PUSH2 0x539 JUMP JUMPDEST PUSH1 0x40 MLOAD PUSH2 0x1D0 SWAP6 SWAP5 SWAP4 SWAP3 SWAP2 SWAP1 PUSH2 0xB91 JUMP JUMPDEST PUSH1 0x40 MLOAD DUP1 SWAP2 SUB SWAP1 RETURN JUMPDEST CALLVALUE DUP1 ISZERO PUSH2 0x1E4 JUMPI PUSH0 DUP1 REVERT JUMPDEST POP PUSH2 0x19E PUSH2 0x1F3 CALLDATASIZE PUSH1 0x4 PUSH2 0xB4C JUMP JUMPDEST POP JUMP JUMPDEST CALLVALUE DUP1 ISZERO PUSH2 0x201 JUMPI PUSH0 DUP1 REVERT JUMPDEST POP PUSH2 0x224 PUSH2 0x210 CALLDATASIZE PUSH1 0x4 PUSH2 0xBEB JUMP JUMPDEST PUSH1 0x2 PUSH1 0x20 MSTORE PUSH0 SWAP1 DUP2 MSTORE PUSH1 0x40 SWAP1 KECCAK256 SLOAD PUSH1 0xFF AND DUP2 JUMP JUMPDEST PUSH1 0x40 MLOAD SWAP1 ISZERO ISZERO DUP2 MSTORE PUSH1 0x20 ADD PUSH2 0x1D0 JUMP JUMPDEST CALLVALUE DUP1 ISZERO PUSH2 0x23F JUMPI PUSH0 DUP1 REVERT JUMPDEST POP PUSH2 0x253 PUSH2 0x24E CALLDATASIZE PUSH1 0x4 PUSH2 0xB4C JUMP JUMPDEST PUSH2 0x673 JUMP JUMPDEST PUSH1 0x40 MLOAD PUSH2 0x1D0 SWAP4 SWAP3 SWAP2 SWAP1 PUSH2 0xC0B JUMP JUMPDEST CALLVALUE DUP1 ISZERO PUSH2 0x26D JUMPI PUSH0 DUP1 REVERT JUMPDEST POP PUSH2 0x19E PUSH2 0x27C CALLDATASIZE PUSH1 0x4 PUSH2 0xC3B JUMP JUMPDEST POP POP JUMP JUMPDEST PUSH2 0x19E PUSH2 0x1F3 CALLDATASIZE PUSH1 0x4 PUSH2 0xB4C JUMP JUMPDEST CALLVALUE DUP1 ISZERO PUSH2 0x299 JUMPI PUSH0 DUP1 REVERT JUMPDEST POP PUSH2 0x224 PUSH2 0x2A8 CALLDATASIZE PUSH1 0x4 PUSH2 0xBEB JUMP JUMPDEST PUSH1 0x3 PUSH1 0x20 MSTORE PUSH0 SWAP1 DUP2 MSTORE PUSH1 0x40 SWAP1 KECCAK256 SLOAD PUSH1 0xFF AND DUP2 JUMP JUMPDEST CALLVALUE DUP1 ISZERO PUSH2 0x2C7 JUMPI PUSH0 DUP1 REVERT JUMPDEST POP PUSH2 0x19E PUSH2 0x724 JUMP JUMPDEST CALLVALUE DUP1 ISZERO PUSH2 0x2DB JUMPI PUSH0 DUP1 REVERT JUMPDEST POP PUSH2 0x319 PUSH2 0x2EA CALLDATASIZE PUSH1 0x4 PUSH2 0xC63 JUMP JUMPDEST PUSH1 0x9 PUSH1 0x20 SWAP1 DUP2 MSTORE PUSH0 SWAP3 DUP4 MSTORE PUSH1 0x40 DUP1 DUP5 KECCAK256 SWAP1 SWAP2 MSTORE SWAP1 DUP3 MSTORE SWAP1 KECCAK256 DUP1 SLOAD PUSH1 0x1 SWAP1 SWAP2 ADD SLOAD PUSH1 0x1 PUSH1 0x1 PUSH1 0xA0 SHL SUB SWAP1 SWAP2 AND SWAP1 DUP3 JUMP JUMPDEST PUSH1 0x40 DUP1 MLOAD PUSH1 0x1 PUSH1 0x1 PUSH1 0xA0 SHL SUB SWAP1 SWAP4 AND DUP4 MSTORE PUSH1 0x20 DUP4 ADD SWAP2 SWAP1 SWAP2 MSTORE ADD PUSH2 0x1D0 JUMP JUMPDEST CALLVALUE DUP1 ISZERO PUSH2 0x343 JUMPI PUSH0 DUP1 REVERT JUMPDEST POP PUSH2 0x19E PUSH2 0x352 CALLDATASIZE PUSH1 0x4 PUSH2 0xD20 JUMP JUMPDEST PUSH2 0x737 JUMP JUMPDEST CALLVALUE DUP1 ISZERO PUSH2 0x362 JUMPI PUSH0 DUP1 REVERT JUMPDEST POP PUSH0 SLOAD PUSH1 0x1 PUSH1 0x1 PUSH1 0xA0 SHL SUB AND JUMPDEST PUSH1 0x40 MLOAD PUSH1 0x1 PUSH1 0x1 PUSH1 0xA0 SHL SUB SWAP1 SWAP2 AND DUP2 MSTORE PUSH1 0x20 ADD PUSH2 0x1D0 JUMP JUMPDEST CALLVALUE DUP1 ISZERO PUSH2 0x392 JUMPI PUSH0 DUP1 REVERT JUMPDEST POP PUSH2 0x3A6 PUSH2 0x3A1 CALLDATASIZE PUSH1 0x4 PUSH2 0xB4C JUMP JUMPDEST PUSH2 0x73F JUMP JUMPDEST PUSH1 0x40 MLOAD PUSH2 0x1D0 SWAP6 SWAP5 SWAP4 SWAP3 SWAP2 SWAP1 PUSH2 0xD62 JUMP JUMPDEST CALLVALUE DUP1 ISZERO PUSH2 0x3C2 JUMPI PUSH0 DUP1 REVERT JUMPDEST POP PUSH2 0x19E PUSH2 0x3D1 CALLDATASIZE PUSH1 0x4 PUSH2 0xC63 JUMP JUMPDEST PUSH2 0x883 JUMP JUMPDEST CALLVALUE DUP1 ISZERO PUSH2 0x3E1 JUMPI PUSH0 DUP1 REVERT JUMPDEST POP PUSH2 0x19E PUSH2 0x352 CALLDATASIZE PUSH1 0x4 PUSH2 0xDAA JUMP JUMPDEST CALLVALUE DUP1 ISZERO PUSH2 0x3FB JUMPI PUSH0 DUP1 REVERT JUMPDEST POP PUSH2 0x19E PUSH2 0x27C CALLDATASIZE PUSH1 0x4 PUSH2 0xE0A JUMP JUMPDEST CALLVALUE DUP1 ISZERO PUSH2 0x415 JUMPI PUSH0 DUP1 REVERT JUMPDEST POP PUSH2 0x438 PUSH2 0x424 CALLDATASIZE PUSH1 0x4 PUSH2 0xB4C JUMP JUMPDEST PUSH1 0x4 PUSH1 0x20 MSTORE PUSH0 SWAP1 DUP2 MSTORE PUSH1 0x40 SWAP1 KECCAK256 SLOAD PUSH1 0xFF AND DUP2 JUMP JUMPDEST PUSH1 0x40 MLOAD PUSH2 0x1D0 SWAP2 SWAP1 PUSH2 0xE34 JUMP JUMPDEST CALLVALUE DUP1 ISZERO PUSH2 0x450 JUMPI PUSH0 DUP1 REVERT JUMPDEST POP PUSH2 0x464 PUSH2 0x45F CALLDATASIZE PUSH1 0x4 PUSH2 0xC63 JUMP JUMPDEST PUSH2 0x911 JUMP JUMPDEST PUSH1 0x40 MLOAD PUSH2 0x1D0 SWAP3 SWAP2 SWAP1 PUSH2 0xE5A JUMP JUMPDEST CALLVALUE DUP1 ISZERO PUSH2 0x47D JUMPI PUSH0 DUP1 REVERT JUMPDEST POP PUSH2 0x491 PUSH2 0x48C CALLDATASIZE PUSH1 0x4 PUSH2 0xC63 JUMP JUMPDEST PUSH2 0x9D1 JUMP JUMPDEST PUSH1 0x40 MLOAD PUSH2 0x1D0 SWAP4 SWAP3 SWAP2 SWAP1 PUSH2 0xE7B JUMP JUMPDEST CALLVALUE DUP1 ISZERO PUSH2 0x4AB JUMPI PUSH0 DUP1 REVERT JUMPDEST POP PUSH2 0x4CB PUSH2 0x4BA CALLDATASIZE PUSH1 0x4 PUSH2 0xB4C JUMP JUMPDEST PUSH1 0x7 PUSH1 0x20 MSTORE PUSH0 SWAP1 DUP2 MSTORE PUSH1 0x40 SWAP1 KECCAK256 SLOAD DUP2 JUMP JUMPDEST PUSH1 0x40 MLOAD SWAP1 DUP2 MSTORE PUSH1 0x20 ADD PUSH2 0x1D0 JUMP JUMPDEST CALLVALUE DUP1 ISZERO PUSH2 0x4E4 JUMPI PUSH0 DUP1 REVERT JUMPDEST POP PUSH2 0x19E PUSH2 0x1F3 CALLDATASIZE PUSH1 0x4 PUSH2 0xEA3 JUMP JUMPDEST CALLVALUE DUP1 ISZERO PUSH2 0x4FE JUMPI PUSH0 DUP1 REVERT JUMPDEST POP PUSH2 0x19E PUSH2 0x50D CALLDATASIZE PUSH1 0x4 PUSH2 0xBEB JUMP JUMPDEST PUSH2 0xA97 JUMP JUMPDEST CALLVALUE DUP1 ISZERO PUSH2 0x51D JUMPI PUSH0 DUP1 REVERT JUMPDEST POP PUSH1 0xA SLOAD PUSH2 0x36F SWAP1 PUSH1 0x1 PUSH1 0x1 PUSH1 0xA0 SHL SUB AND DUP2 JUMP JUMPDEST PUSH2 0x1F3 PUSH2 0xAD1 JUMP JUMPDEST PUSH1 0xC PUSH1 0x20 MSTORE PUSH0 SWAP1 DUP2 MSTORE PUSH1 0x40 SWAP1 KECCAK256 DUP1 SLOAD PUSH1 0x1 DUP3 ADD DUP1 SLOAD SWAP2 SWAP3 SWAP2 PUSH2 0x55A SWAP1 PUSH2 0xEDD JUMP JUMPDEST DUP1 PUSH1 0x1F ADD PUSH1 0x20 DUP1 SWAP2 DIV MUL PUSH1 0x20 ADD PUSH1 0x40 MLOAD SWAP1 DUP2 ADD PUSH1 0x40 MSTORE DUP1 SWAP3 SWAP2 SWAP1 DUP2 DUP2 MSTORE PUSH1 0x20 ADD DUP3 DUP1 SLOAD PUSH2 0x586 SWAP1 PUSH2 0xEDD JUMP JUMPDEST DUP1 ISZERO PUSH2 0x5D1 JUMPI DUP1 PUSH1 0x1F LT PUSH2 0x5A8 JUMPI PUSH2 0x100 DUP1 DUP4 SLOAD DIV MUL DUP4 MSTORE SWAP2 PUSH1 0x20 ADD SWAP2 PUSH2 0x5D1 JUMP JUMPDEST DUP3 ADD SWAP2 SWAP1 PUSH0 MSTORE PUSH1 0x20 PUSH0 KECCAK256 SWAP1 JUMPDEST DUP2 SLOAD DUP2 MSTORE SWAP1 PUSH1 0x1 ADD SWAP1 PUSH1 0x20 ADD DUP1 DUP4 GT PUSH2 0x5B4 JUMPI DUP3 SWAP1 SUB PUSH1 0x1F AND DUP3 ADD SWAP2 JUMPDEST POP POP POP POP POP SWAP1 DUP1 PUSH1 0x2 ADD DUP1 SLOAD PUSH2 0x5E6 SWAP1 PUSH2 0xEDD JUMP JUMPDEST DUP1 PUSH1 0x1F ADD PUSH1 0x20 DUP1 SWAP2 DIV MUL PUSH1 0x20 ADD PUSH1 0x40 MLOAD SWAP1 DUP2 ADD PUSH1 0x40 MSTORE DUP1 SWAP3 SWAP2 SWAP1 DUP2 DUP2 MSTORE PUSH1 0x20 ADD DUP3 DUP1 SLOAD PUSH2 0x612 SWAP1 PUSH2 0xEDD JUMP JUMPDEST DUP1 ISZERO PUSH2 0x65D JUMPI DUP1 PUSH1 0x1F LT PUSH2 0x634 JUMPI PUSH2 0x100 DUP1 DUP4 SLOAD DIV MUL DUP4 MSTORE SWAP2 PUSH1 0x20 ADD SWAP2 PUSH2 0x65D JUMP JUMPDEST DUP3 ADD SWAP2 SWAP1 PUSH0 MSTORE PUSH1 0x20 PUSH0 KECCAK256 SWAP1 JUMPDEST DUP2 SLOAD DUP2 MSTORE SWAP1 PUSH1 0x1 ADD SWAP1 PUSH1 0x20 ADD DUP1 DUP4 GT PUSH2 0x640 JUMPI DUP3 SWAP1 SUB PUSH1 0x1F AND DUP3 ADD SWAP2 JUMPDEST POP POP POP POP POP SWAP1 DUP1 PUSH1 0x3 ADD SLOAD SWAP1 DUP1 PUSH1 0x4 ADD SLOAD SWAP1 POP DUP6 JUMP JUMPDEST PUSH1 0xE PUSH1 0x20 MSTORE PUSH0 SWAP1 DUP2 MSTORE PUSH1 0x40 SWAP1 KECCAK256 DUP1 SLOAD PUSH1 0x1 DUP3 ADD DUP1 SLOAD SWAP2 SWAP3 SWAP2 PUSH2 0x694 SWAP1 PUSH2 0xEDD JUMP JUMPDEST DUP1 PUSH1 0x1F ADD PUSH1 0x20 DUP1 SWAP2 DIV MUL PUSH1 0x20 ADD PUSH1 0x40 MLOAD SWAP1 DUP2 ADD PUSH1 0x40 MSTORE DUP1 SWAP3 SWAP2 SWAP1 DUP2 DUP2 MSTORE PUSH1 0x20 ADD DUP3 DUP1 SLOAD PUSH2 0x6C0 SWAP1 PUSH2 0xEDD JUMP JUMPDEST DUP1 ISZERO PUSH2 0x70B JUMPI DUP1 PUSH1 0x1F LT PUSH2 0x6E2 JUMPI PUSH2 0x100 DUP1 DUP4 SLOAD DIV MUL DUP4 MSTORE SWAP2 PUSH1 0x20 ADD SWAP2 PUSH2 0x70B JUMP JUMPDEST DUP3 ADD SWAP2 SWAP1 PUSH0 MSTORE PUSH1 0x20 PUSH0 KECCAK256 SWAP1 JUMPDEST DUP2 SLOAD DUP2 MSTORE SWAP1 PUSH1 0x1 ADD SWAP1 PUSH1 0x20 ADD DUP1 DUP4 GT PUSH2 0x6EE JUMPI DUP3 SWAP1 SUB PUSH1 0x1F AND DUP3 ADD SWAP2 JUMPDEST POP POP POP PUSH1 0x2 SWAP1 SWAP4 ADD SLOAD SWAP2 SWAP3 POP POP PUSH1 0x1 PUSH1 0x1 PUSH1 0xA0 SHL SUB AND DUP4 JUMP JUMPDEST PUSH2 0x72C PUSH2 0xAD1 JUMP JUMPDEST PUSH2 0x735 PUSH0 PUSH2 0xAFD JUMP JUMPDEST JUMP JUMPDEST PUSH2 0x27C PUSH2 0xAD1 JUMP JUMPDEST PUSH1 0xD PUSH1 0x20 MSTORE PUSH0 SWAP1 DUP2 MSTORE PUSH1 0x40 SWAP1 KECCAK256 DUP1 SLOAD PUSH1 0x1 DUP3 ADD DUP1 SLOAD SWAP2 SWAP3 SWAP2 PUSH2 0x760 SWAP1 PUSH2 0xEDD JUMP JUMPDEST DUP1 PUSH1 0x1F ADD PUSH1 0x20 DUP1 SWAP2 DIV MUL PUSH1 0x20 ADD PUSH1 0x40 MLOAD SWAP1 DUP2 ADD PUSH1 0x40 MSTORE DUP1 SWAP3 SWAP2 SWAP1 DUP2 DUP2 MSTORE PUSH1 0x20 ADD DUP3 DUP1 SLOAD PUSH2 0x78C SWAP1 PUSH2 0xEDD JUMP JUMPDEST DUP1 ISZERO PUSH2 0x7D7 JUMPI DUP1 PUSH1 0x1F LT PUSH2 0x7AE JUMPI PUSH2 0x100 DUP1 DUP4 SLOAD DIV MUL DUP4 MSTORE SWAP2 PUSH1 0x20 ADD SWAP2 PUSH2 0x7D7 JUMP JUMPDEST DUP3 ADD SWAP2 SWAP1 PUSH0 MSTORE PUSH1 0x20 PUSH0 KECCAK256 SWAP1 JUMPDEST DUP2 SLOAD DUP2 MSTORE SWAP1 PUSH1 0x1 ADD SWAP1 PUSH1 0x20 ADD DUP1 DUP4 GT PUSH2 0x7BA JUMPI DUP3 SWAP1 SUB PUSH1 0x1F AND DUP3 ADD SWAP2 JUMPDEST POP POP POP POP POP SWAP1 DUP1 PUSH1 0x2 ADD DUP1 SLOAD PUSH2 0x7EC SWAP1 PUSH2 0xEDD JUMP JUMPDEST DUP1 PUSH1 0x1F ADD PUSH1 0x20 DUP1 SWAP2 DIV MUL PUSH1 0x20 ADD PUSH1 0x40 MLOAD SWAP1 DUP2 ADD PUSH1 0x40 MSTORE DUP1 SWAP3 SWAP2 SWAP1 DUP2 DUP2 MSTORE PUSH1 0x20 ADD DUP3 DUP1 SLOAD PUSH2 0x818 SWAP1 PUSH2 0xEDD JUMP JUMPDEST DUP1 ISZERO PUSH2 0x863 JUMPI DUP1 PUSH1 0x1F LT PUSH2 0x83A JUMPI PUSH2 0x100 DUP1 DUP4 SLOAD DIV MUL DUP4 MSTORE SWAP2 PUSH1 0x20 ADD SWAP2 PUSH2 0x863 JUMP JUMPDEST DUP3 ADD SWAP2 SWAP1 PUSH0 MSTORE PUSH1 0x20 PUSH0 KECCAK256 SWAP1 JUMPDEST DUP2 SLOAD DUP2 MSTORE SWAP1 PUSH1 0x1 ADD SWAP1 PUSH1 0x20 ADD DUP1 DUP4 GT PUSH2 0x846 JUMPI DUP3 SWAP1 SUB PUSH1 0x1F AND DUP3 ADD SWAP2 JUMPDEST POP POP POP POP PUSH1 0x3 DUP4 ADD SLOAD PUSH1 0x4 SWAP1 SWAP4 ADD SLOAD SWAP2 SWAP3 PUSH1 0x1 PUSH1 0x1 PUSH1 0xA0 SHL SUB AND SWAP2 SWAP1 POP DUP6 JUMP JUMPDEST CALLER PUSH1 0x1 PUSH1 0x1 PUSH1 0xA0 SHL SUB PUSH32 0x0 AND EQ PUSH2 0x900 JUMPI PUSH1 0x40 MLOAD PUSH3 0x461BCD PUSH1 0xE5 SHL DUP2 MSTORE PUSH1 0x20 PUSH1 0x4 DUP3 ADD MSTORE PUSH1 0x1F PUSH1 0x24 DUP3 ADD MSTORE PUSH32 0x4F6E6C7920565246436F6F7264696E61746F722063616E2066756C66696C6C00 PUSH1 0x44 DUP3 ADD MSTORE PUSH1 0x64 ADD JUMPDEST PUSH1 0x40 MLOAD DUP1 SWAP2 SUB SWAP1 REVERT JUMPDEST PUSH0 SWAP2 DUP3 MSTORE PUSH1 0x7 PUSH1 0x20 MSTORE PUSH1 0x40 SWAP1 SWAP2 KECCAK256 SSTORE JUMP JUMPDEST PUSH1 0xB PUSH1 0x20 MSTORE DUP2 PUSH0 MSTORE PUSH1 0x40 PUSH0 KECCAK256 DUP2 DUP2 SLOAD DUP2 LT PUSH2 0x92A JUMPI PUSH0 DUP1 REVERT JUMPDEST SWAP1 PUSH0 MSTORE PUSH1 0x20 PUSH0 KECCAK256 SWAP1 PUSH1 0x2 MUL ADD PUSH0 SWAP2 POP SWAP2 POP POP DUP1 PUSH0 ADD DUP1 SLOAD PUSH2 0x94A SWAP1 PUSH2 0xEDD JUMP JUMPDEST DUP1 PUSH1 0x1F ADD PUSH1 0x20 DUP1 SWAP2 DIV MUL PUSH1 0x20 ADD PUSH1 0x40 MLOAD SWAP1 DUP2 ADD PUSH1 0x40 MSTORE DUP1 SWAP3 SWAP2 SWAP1 DUP2 DUP2 MSTORE PUSH1 0x20 ADD DUP3 DUP1 SLOAD PUSH2 0x976 SWAP1 PUSH2 0xEDD JUMP JUMPDEST DUP1 ISZERO PUSH2 0x9C1 JUMPI DUP1 PUSH1 0x1F LT PUSH2 0x998 JUMPI PUSH2 0x100 DUP1 DUP4 SLOAD DIV MUL DUP4 MSTORE SWAP2 PUSH1 0x20 ADD SWAP2 PUSH2 0x9C1 JUMP JUMPDEST DUP3 ADD SWAP2 SWAP1 PUSH0 MSTORE PUSH1 0x20 PUSH0 KECCAK256 SWAP1 JUMPDEST DUP2 SLOAD DUP2 MSTORE SWAP1 PUSH1 0x1 ADD SWAP1 PUSH1 0x20 ADD DUP1 DUP4 GT PUSH2 0x9A4 JUMPI DUP3 SWAP1 SUB PUSH1 0x1F AND DUP3 ADD SWAP2 JUMPDEST POP POP POP POP POP SWAP1 DUP1 PUSH1 0x1 ADD SLOAD SWAP1 POP DUP3 JUMP JUMPDEST PUSH1 0x8 PUSH1 0x20 MSTORE DUP2 PUSH0 MSTORE PUSH1 0x40 PUSH0 KECCAK256 DUP2 DUP2 SLOAD DUP2 LT PUSH2 0x9EA JUMPI PUSH0 DUP1 REVERT JUMPDEST SWAP1 PUSH0 MSTORE PUSH1 0x20 PUSH0 KECCAK256 SWAP1 PUSH1 0x3 MUL ADD PUSH0 SWAP2 POP SWAP2 POP POP DUP1 PUSH0 ADD SLOAD SWAP1 DUP1 PUSH1 0x1 ADD DUP1 SLOAD PUSH2 0xA10 SWAP1 PUSH2 0xEDD JUMP JUMPDEST DUP1 PUSH1 0x1F ADD PUSH1 0x20 DUP1 SWAP2 DIV MUL PUSH1 0x20 ADD PUSH1 0x40 MLOAD SWAP1 DUP2 ADD PUSH1 0x40 MSTORE DUP1 SWAP3 SWAP2 SWAP1 DUP2 DUP2 MSTORE PUSH1 0x20 ADD DUP3 DUP1 SLOAD PUSH2 0xA3C SWAP1 PUSH2 0xEDD JUMP JUMPDEST DUP1 ISZERO PUSH2 0xA87 JUMPI DUP1 PUSH1 0x1F LT PUSH2 0xA5E JUMPI PUSH2 0x100 DUP1 DUP4 SLOAD DIV MUL DUP4 MSTORE SWAP2 PUSH1 0x20 ADD SWAP2 PUSH2 0xA87 JUMP JUMPDEST DUP3 ADD SWAP2 SWAP1 PUSH0 MSTORE PUSH1 0x20 PUSH0 KECCAK256 SWAP1 JUMPDEST DUP2 SLOAD DUP2 MSTORE SWAP1 PUSH1 0x1 ADD SWAP1 PUSH1 0x20 ADD DUP1 DUP4 GT PUSH2 0xA6A JUMPI DUP3 SWAP1 SUB PUSH1 0x1F AND DUP3 ADD SWAP2 JUMPDEST POP POP POP POP POP SWAP1 DUP1 PUSH1 0x2 ADD SLOAD SWAP1 POP DUP4 JUMP JUMPDEST PUSH2 0xA9F PUSH2 0xAD1 JUMP JUMPDEST PUSH1 0x1 PUSH1 0x1 PUSH1 0xA0 SHL SUB DUP2 AND PUSH2 0xAC8 JUMPI PUSH1 0x40 MLOAD PUSH4 0x1E4FBDF7 PUSH1 0xE0 SHL DUP2 MSTORE PUSH0 PUSH1 0x4 DUP3 ADD MSTORE PUSH1 0x24 ADD PUSH2 0x8F7 JUMP JUMPDEST PUSH2 0x1F3 DUP2 PUSH2 0xAFD JUMP JUMPDEST PUSH0 SLOAD PUSH1 0x1 PUSH1 0x1 PUSH1 0xA0 SHL SUB AND CALLER EQ PUSH2 0x735 JUMPI PUSH1 0x40 MLOAD PUSH4 0x118CDAA7 PUSH1 0xE0 SHL DUP2 MSTORE CALLER PUSH1 0x4 DUP3 ADD MSTORE PUSH1 0x24 ADD PUSH2 0x8F7 JUMP JUMPDEST PUSH0 DUP1 SLOAD PUSH1 0x1 PUSH1 0x1 PUSH1 0xA0 SHL SUB DUP4 DUP2 AND PUSH1 0x1 PUSH1 0x1 PUSH1 0xA0 SHL SUB NOT DUP4 AND DUP2 OR DUP5 SSTORE PUSH1 0x40 MLOAD SWAP2 SWAP1 SWAP3 AND SWAP3 DUP4 SWAP2 PUSH32 0x8BE0079C531659141344CD1FD0A4F28419497F9722A3DAAFE3B4186F6B6457E0 SWAP2 SWAP1 LOG3 POP POP JUMP JUMPDEST PUSH0 PUSH1 0x20 DUP3 DUP5 SUB SLT ISZERO PUSH2 0xB5C JUMPI PUSH0 DUP1 REVERT JUMPDEST POP CALLDATALOAD SWAP2 SWAP1 POP JUMP JUMPDEST PUSH0 DUP2 MLOAD DUP1 DUP5 MSTORE DUP1 PUSH1 0x20 DUP5 ADD PUSH1 0x20 DUP7 ADD MCOPY PUSH0 PUSH1 0x20 DUP3 DUP7 ADD ADD MSTORE PUSH1 0x20 PUSH1 0x1F NOT PUSH1 0x1F DUP4 ADD AND DUP6 ADD ADD SWAP2 POP POP SWAP3 SWAP2 POP POP JUMP JUMPDEST DUP6 DUP2 MSTORE PUSH1 0xA0 PUSH1 0x20 DUP3 ADD MSTORE PUSH0 PUSH2 0xBA9 PUSH1 0xA0 DUP4 ADD DUP8 PUSH2 0xB63 JUMP JUMPDEST DUP3 DUP2 SUB PUSH1 0x40 DUP5 ADD MSTORE PUSH2 0xBBB DUP2 DUP8 PUSH2 0xB63 JUMP JUMPDEST PUSH1 0x60 DUP5 ADD SWAP6 SWAP1 SWAP6 MSTORE POP POP PUSH1 0x80 ADD MSTORE SWAP4 SWAP3 POP POP POP JUMP JUMPDEST DUP1 CALLDATALOAD PUSH1 0x1 PUSH1 0x1 PUSH1 0xA0 SHL SUB DUP2 AND DUP2 EQ PUSH2 0xBE6 JUMPI PUSH0 DUP1 REVERT JUMPDEST SWAP2 SWAP1 POP JUMP JUMPDEST PUSH0 PUSH1 0x20 DUP3 DUP5 SUB SLT ISZERO PUSH2 0xBFB JUMPI PUSH0 DUP1 REVERT JUMPDEST PUSH2 0xC04 DUP3 PUSH2 0xBD0 JUMP JUMPDEST SWAP4 SWAP3 POP POP POP JUMP JUMPDEST DUP4 DUP2 MSTORE PUSH1 0x60 PUSH1 0x20 DUP3 ADD MSTORE PUSH0 PUSH2 0xC23 PUSH1 0x60 DUP4 ADD DUP6 PUSH2 0xB63 JUMP JUMPDEST SWAP1 POP PUSH1 0x1 DUP1 PUSH1 0xA0 SHL SUB DUP4 AND PUSH1 0x40 DUP4 ADD MSTORE SWAP5 SWAP4 POP POP POP POP JUMP JUMPDEST PUSH0 DUP1 PUSH1 0x40 DUP4 DUP6 SUB SLT ISZERO PUSH2 0xC4C JUMPI PUSH0 DUP1 REVERT JUMPDEST PUSH2 0xC55 DUP4 PUSH2 0xBD0 JUMP JUMPDEST SWAP5 PUSH1 0x20 SWAP4 SWAP1 SWAP4 ADD CALLDATALOAD SWAP4 POP POP POP JUMP JUMPDEST PUSH0 DUP1 PUSH1 0x40 DUP4 DUP6 SUB SLT ISZERO PUSH2 0xC74 JUMPI PUSH0 DUP1 REVERT JUMPDEST POP POP DUP1 CALLDATALOAD SWAP3 PUSH1 0x20 SWAP1 SWAP2 ADD CALLDATALOAD SWAP2 POP JUMP JUMPDEST PUSH4 0x4E487B71 PUSH1 0xE0 SHL PUSH0 MSTORE PUSH1 0x41 PUSH1 0x4 MSTORE PUSH1 0x24 PUSH0 REVERT JUMPDEST PUSH0 DUP3 PUSH1 0x1F DUP4 ADD SLT PUSH2 0xCA6 JUMPI PUSH0 DUP1 REVERT JUMPDEST DUP2 CALLDATALOAD PUSH8 0xFFFFFFFFFFFFFFFF DUP1 DUP3 GT ISZERO PUSH2 0xCC1 JUMPI PUSH2 0xCC1 PUSH2 0xC83 JUMP JUMPDEST PUSH1 0x40 MLOAD PUSH1 0x1F DUP4 ADD PUSH1 0x1F NOT SWAP1 DUP2 AND PUSH1 0x3F ADD AND DUP2 ADD SWAP1 DUP3 DUP3 GT DUP2 DUP4 LT OR ISZERO PUSH2 0xCE9 JUMPI PUSH2 0xCE9 PUSH2 0xC83 JUMP JUMPDEST DUP2 PUSH1 0x40 MSTORE DUP4 DUP2 MSTORE DUP7 PUSH1 0x20 DUP6 DUP9 ADD ADD GT ISZERO PUSH2 0xD01 JUMPI PUSH0 DUP1 REVERT JUMPDEST DUP4 PUSH1 0x20 DUP8 ADD PUSH1 0x20 DUP4 ADD CALLDATACOPY PUSH0 PUSH1 0x20 DUP6 DUP4 ADD ADD MSTORE DUP1 SWAP5 POP POP POP POP POP SWAP3 SWAP2 POP POP JUMP JUMPDEST PUSH0 DUP1 PUSH1 0x40 DUP4 DUP6 SUB SLT ISZERO PUSH2 0xD31 JUMPI PUSH0 DUP1 REVERT JUMPDEST DUP3 CALLDATALOAD PUSH8 0xFFFFFFFFFFFFFFFF DUP2 GT ISZERO PUSH2 0xD47 JUMPI PUSH0 DUP1 REVERT JUMPDEST PUSH2 0xD53 DUP6 DUP3 DUP7 ADD PUSH2 0xC97 JUMP JUMPDEST SWAP6 PUSH1 0x20 SWAP5 SWAP1 SWAP5 ADD CALLDATALOAD SWAP5 POP POP POP POP JUMP JUMPDEST DUP6 DUP2 MSTORE PUSH1 0xA0 PUSH1 0x20 DUP3 ADD MSTORE PUSH0 PUSH2 0xD7A PUSH1 0xA0 DUP4 ADD DUP8 PUSH2 0xB63 JUMP JUMPDEST DUP3 DUP2 SUB PUSH1 0x40 DUP5 ADD MSTORE PUSH2 0xD8C DUP2 DUP8 PUSH2 0xB63 JUMP JUMPDEST PUSH1 0x1 PUSH1 0x1 PUSH1 0xA0 SHL SUB SWAP6 SWAP1 SWAP6 AND PUSH1 0x60 DUP5 ADD MSTORE POP POP PUSH1 0x80 ADD MSTORE SWAP4 SWAP3 POP POP POP JUMP JUMPDEST PUSH0 DUP1 PUSH1 0x40 DUP4 DUP6 SUB SLT ISZERO PUSH2 0xDBB JUMPI PUSH0 DUP1 REVERT JUMPDEST DUP3 CALLDATALOAD PUSH8 0xFFFFFFFFFFFFFFFF DUP1 DUP3 GT ISZERO PUSH2 0xDD2 JUMPI PUSH0 DUP1 REVERT JUMPDEST PUSH2 0xDDE DUP7 DUP4 DUP8 ADD PUSH2 0xC97 JUMP JUMPDEST SWAP4 POP PUSH1 0x20 DUP6 ADD CALLDATALOAD SWAP2 POP DUP1 DUP3 GT ISZERO PUSH2 0xDF3 JUMPI PUSH0 DUP1 REVERT JUMPDEST POP PUSH2 0xE00 DUP6 DUP3 DUP7 ADD PUSH2 0xC97 JUMP JUMPDEST SWAP2 POP POP SWAP3 POP SWAP3 SWAP1 POP JUMP JUMPDEST PUSH0 DUP1 PUSH1 0x40 DUP4 DUP6 SUB SLT ISZERO PUSH2 0xE1B JUMPI PUSH0 DUP1 REVERT JUMPDEST DUP3 CALLDATALOAD SWAP2 POP PUSH2 0xE2B PUSH1 0x20 DUP5 ADD PUSH2 0xBD0 JUMP JUMPDEST SWAP1 POP SWAP3 POP SWAP3 SWAP1 POP JUMP JUMPDEST PUSH1 0x20 DUP2 ADD PUSH1 0x3 DUP4 LT PUSH2 0xE54 JUMPI PUSH4 0x4E487B71 PUSH1 0xE0 SHL PUSH0 MSTORE PUSH1 0x21 PUSH1 0x4 MSTORE PUSH1 0x24 PUSH0 REVERT JUMPDEST SWAP2 SWAP1 MSTORE SWAP1 JUMP JUMPDEST PUSH1 0x40 DUP2 MSTORE PUSH0 PUSH2 0xE6C PUSH1 0x40 DUP4 ADD DUP6 PUSH2 0xB63 JUMP JUMPDEST SWAP1 POP DUP3 PUSH1 0x20 DUP4 ADD MSTORE SWAP4 SWAP3 POP POP POP JUMP JUMPDEST DUP4 DUP2 MSTORE PUSH1 0x60 PUSH1 0x20 DUP3 ADD MSTORE PUSH0 PUSH2 0xE93 PUSH1 0x60 DUP4 ADD DUP6 PUSH2 0xB63 JUMP JUMPDEST SWAP1 POP DUP3 PUSH1 0x40 DUP4 ADD MSTORE SWAP5 SWAP4 POP POP POP POP JUMP JUMPDEST PUSH0 PUSH1 0x20 DUP3 DUP5 SUB SLT ISZERO PUSH2 0xEB3 JUMPI PUSH0 DUP1 REVERT JUMPDEST DUP2 CALLDATALOAD PUSH8 0xFFFFFFFFFFFFFFFF DUP2 GT ISZERO PUSH2 0xEC9 JUMPI PUSH0 DUP1 REVERT JUMPDEST PUSH2 0xED5 DUP5 DUP3 DUP6 ADD PUSH2 0xC97 JUMP JUMPDEST SWAP5 SWAP4 POP POP POP POP JUMP JUMPDEST PUSH1 0x1 DUP2 DUP2 SHR SWAP1 DUP3 AND DUP1 PUSH2 0xEF1 JUMPI PUSH1 0x7F DUP3 AND SWAP2 POP JUMPDEST PUSH1 0x20 DUP3 LT DUP2 SUB PUSH2 0xF0F JUMPI PUSH4 0x4E487B71 PUSH1 0xE0 SHL PUSH0 MSTORE PUSH1 0x22 PUSH1 0x4 MSTORE PUSH1 0x24 PUSH0 REVERT JUMPDEST POP SWAP2 SWAP1 POP JUMP INVALID LOG2 PUSH5 0x6970667358 0x22 SLT KECCAK256 SWAP6 SMOD ISZERO 0xDA GASLIMIT 0xDB JUMPI PUSH18 0xAE27C8FDD61675D056DC77F7318CB2560E30 0x29 DUP12 0x23 SAR 0x24 RETURNDATACOPY PUSH5 0x736F6C6343 STOP ADDMOD NOT STOP CALLER "
		},
		"gasEstimates": {
			"creation": {
				"codeDepositCost": "783000",
				"executionCost": "infinite",
				"totalCost": "infinite"
			},
			"external": {
				"acceptQuest(uint256)": "277",
				"admins(address)": "2618",
				"approveContent(uint256)": "2510",
				"changeReputation(address,uint256)": "447",
				"completeQuest(uint256)": "254",
				"contentStatuses(uint256)": "2533",
				"cqToken()": "2446",
				"createItem(string,uint256)": "infinite",
				"createQuest(string,string)": "infinite",
				"events(uint256)": "infinite",
				"factions(uint256)": "infinite",
				"itemUpgrades(uint256,uint256)": "infinite",
				"joinFaction(uint256)": "255",
				"landsForSale(uint256,uint256)": "4828",
				"moderators(address)": "2618",
				"owner()": "2363",
				"purchasePremiumContent(uint256)": "253",
				"questIdeas(uint256)": "infinite",
				"randomResults(bytes32)": "2479",
				"rawFulfillRandomness(bytes32,uint256)": "infinite",
				"renounceOwnership()": "infinite",
				"setTransactionFee(uint256)": "2467",
				"sponsoredQuestConditions(uint256,uint256)": "infinite",
				"submitPlayerContent(string)": "infinite",
				"transferItem(uint256,address)": "451",
				"transferOwnership(address)": "28417"
			},
			"internal": {
				"fulfillRandomness(bytes32,uint256)": "infinite",
				"getRandomNumber()": "infinite",
				"min(uint256,uint256)": "infinite",
				"validateQuestCompletion(uint256,address)": "infinite"
			}
		},
		"methodIdentifiers": {
			"acceptQuest(uint256)": "139f399a",
			"admins(address)": "429b62e5",
			"approveContent(uint256)": "589c9648",
			"changeReputation(address,uint256)": "20610c78",
			"completeQuest(uint256)": "528be0a9",
			"contentStatuses(uint256)": "b08f9aaf",
			"cqToken()": "f85d940d",
			"createItem(string,uint256)": "8c551742",
			"createQuest(string,string)": "9526665d",
			"events(uint256)": "0b791430",
			"factions(uint256)": "20088643",
			"itemUpgrades(uint256,uint256)": "bd557e77",
			"joinFaction(uint256)": "2c87d916",
			"landsForSale(uint256,uint256)": "7804288c",
			"moderators(address)": "14d0f1ba",
			"owner()": "8da5cb5b",
			"purchasePremiumContent(uint256)": "2fb172ac",
			"questIdeas(uint256)": "9076dc1b",
			"randomResults(bytes32)": "d88edee9",
			"rawFulfillRandomness(bytes32,uint256)": "94985ddd",
			"renounceOwnership()": "715018a6",
			"setTransactionFee(uint256)": "096a8ab7",
			"sponsoredQuestConditions(uint256,uint256)": "b5daa413",
			"submitPlayerContent(string)": "ebf30c79",
			"transferItem(uint256,address)": "a4229101",
			"transferOwnership(address)": "f2fde38b"
		}
	},
	"abi": [
		{
			"inputs": [
				{
					"internalType": "address",
					"name": "_vrfCoordinator",
					"type": "address"
				},
				{
					"internalType": "address",
					"name": "_linkToken",
					"type": "address"
				},
				{
					"internalType": "bytes32",
					"name": "_keyHash",
					"type": "bytes32"
				},
				{
					"internalType": "address",
					"name": "_initialOwner",
					"type": "address"
				}
			],
			"stateMutability": "nonpayable",
			"type": "constructor"
		},
		{
			"inputs": [
				{
					"internalType": "address",
					"name": "owner",
					"type": "address"
				}
			],
			"name": "OwnableInvalidOwner",
			"type": "error"
		},
		{
			"inputs": [
				{
					"internalType": "address",
					"name": "account",
					"type": "address"
				}
			],
			"name": "OwnableUnauthorizedAccount",
			"type": "error"
		},
		{
			"anonymous": false,
			"inputs": [
				{
					"indexed": true,
					"internalType": "address",
					"name": "previousOwner",
					"type": "address"
				},
				{
					"indexed": true,
					"internalType": "address",
					"name": "newOwner",
					"type": "address"
				}
			],
			"name": "OwnershipTransferred",
			"type": "event"
		},
		{
			"inputs": [
				{
					"internalType": "uint256",
					"name": "_questId",
					"type": "uint256"
				}
			],
			"name": "acceptQuest",
			"outputs": [],
			"stateMutability": "nonpayable",
			"type": "function"
		},
		{
			"inputs": [
				{
					"internalType": "address",
					"name": "",
					"type": "address"
				}
			],
			"name": "admins",
			"outputs": [
				{
					"internalType": "bool",
					"name": "",
					"type": "bool"
				}
			],
			"stateMutability": "view",
			"type": "function"
		},
		{
			"inputs": [
				{
					"internalType": "uint256",
					"name": "_contentId",
					"type": "uint256"
				}
			],
			"name": "approveContent",
			"outputs": [],
			"stateMutability": "nonpayable",
			"type": "function"
		},
		{
			"inputs": [
				{
					"internalType": "address",
					"name": "_playerAddress",
					"type": "address"
				},
				{
					"internalType": "uint256",
					"name": "_newReputation",
					"type": "uint256"
				}
			],
			"name": "changeReputation",
			"outputs": [],
			"stateMutability": "nonpayable",
			"type": "function"
		},
		{
			"inputs": [
				{
					"internalType": "uint256",
					"name": "_questId",
					"type": "uint256"
				}
			],
			"name": "completeQuest",
			"outputs": [],
			"stateMutability": "nonpayable",
			"type": "function"
		},
		{
			"inputs": [
				{
					"internalType": "uint256",
					"name": "",
					"type": "uint256"
				}
			],
			"name": "contentStatuses",
			"outputs": [
				{
					"internalType": "enum CryptoQuest.ContentStatus",
					"name": "",
					"type": "uint8"
				}
			],
			"stateMutability": "view",
			"type": "function"
		},
		{
			"inputs": [],
			"name": "cqToken",
			"outputs": [
				{
					"internalType": "contract ERC20",
					"name": "",
					"type": "address"
				}
			],
			"stateMutability": "view",
			"type": "function"
		},
		{
			"inputs": [
				{
					"internalType": "string",
					"name": "_itemName",
					"type": "string"
				},
				{
					"internalType": "uint256",
					"name": "_rarity",
					"type": "uint256"
				}
			],
			"name": "createItem",
			"outputs": [],
			"stateMutability": "nonpayable",
			"type": "function"
		},
		{
			"inputs": [
				{
					"internalType": "string",
					"name": "_questName",
					"type": "string"
				},
				{
					"internalType": "string",
					"name": "_description",
					"type": "string"
				}
			],
			"name": "createQuest",
			"outputs": [],
			"stateMutability": "nonpayable",
			"type": "function"
		},
		{
			"inputs": [
				{
					"internalType": "uint256",
					"name": "",
					"type": "uint256"
				}
			],
			"name": "events",
			"outputs": [
				{
					"internalType": "uint256",
					"name": "eventId",
					"type": "uint256"
				},
				{
					"internalType": "string",
					"name": "eventName",
					"type": "string"
				},
				{
					"internalType": "string",
					"name": "theme",
					"type": "string"
				},
				{
					"internalType": "uint256",
					"name": "startTime",
					"type": "uint256"
				},
				{
					"internalType": "uint256",
					"name": "endTime",
					"type": "uint256"
				}
			],
			"stateMutability": "view",
			"type": "function"
		},
		{
			"inputs": [
				{
					"internalType": "uint256",
					"name": "",
					"type": "uint256"
				}
			],
			"name": "factions",
			"outputs": [
				{
					"internalType": "uint256",
					"name": "factionId",
					"type": "uint256"
				},
				{
					"internalType": "string",
					"name": "factionName",
					"type": "string"
				},
				{
					"internalType": "address",
					"name": "leader",
					"type": "address"
				}
			],
			"stateMutability": "view",
			"type": "function"
		},
		{
			"inputs": [
				{
					"internalType": "uint256",
					"name": "",
					"type": "uint256"
				},
				{
					"internalType": "uint256",
					"name": "",
					"type": "uint256"
				}
			],
			"name": "itemUpgrades",
			"outputs": [
				{
					"internalType": "uint256",
					"name": "upgradeId",
					"type": "uint256"
				},
				{
					"internalType": "string",
					"name": "upgradeName",
					"type": "string"
				},
				{
					"internalType": "uint256",
					"name": "upgradeLevel",
					"type": "uint256"
				}
			],
			"stateMutability": "view",
			"type": "function"
		},
		{
			"inputs": [
				{
					"internalType": "uint256",
					"name": "_allianceId",
					"type": "uint256"
				}
			],
			"name": "joinFaction",
			"outputs": [],
			"stateMutability": "nonpayable",
			"type": "function"
		},
		{
			"inputs": [
				{
					"internalType": "uint256",
					"name": "",
					"type": "uint256"
				},
				{
					"internalType": "uint256",
					"name": "",
					"type": "uint256"
				}
			],
			"name": "landsForSale",
			"outputs": [
				{
					"internalType": "address",
					"name": "owner",
					"type": "address"
				},
				{
					"internalType": "uint256",
					"name": "price",
					"type": "uint256"
				}
			],
			"stateMutability": "view",
			"type": "function"
		},
		{
			"inputs": [
				{
					"internalType": "address",
					"name": "",
					"type": "address"
				}
			],
			"name": "moderators",
			"outputs": [
				{
					"internalType": "bool",
					"name": "",
					"type": "bool"
				}
			],
			"stateMutability": "view",
			"type": "function"
		},
		{
			"inputs": [],
			"name": "owner",
			"outputs": [
				{
					"internalType": "address",
					"name": "",
					"type": "address"
				}
			],
			"stateMutability": "view",
			"type": "function"
		},
		{
			"inputs": [
				{
					"internalType": "uint256",
					"name": "_contentId",
					"type": "uint256"
				}
			],
			"name": "purchasePremiumContent",
			"outputs": [],
			"stateMutability": "payable",
			"type": "function"
		},
		{
			"inputs": [
				{
					"internalType": "uint256",
					"name": "",
					"type": "uint256"
				}
			],
			"name": "questIdeas",
			"outputs": [
				{
					"internalType": "uint256",
					"name": "ideaId",
					"type": "uint256"
				},
				{
					"internalType": "string",
					"name": "questName",
					"type": "string"
				},
				{
					"internalType": "string",
					"name": "description",
					"type": "string"
				},
				{
					"internalType": "address",
					"name": "submitter",
					"type": "address"
				},
				{
					"internalType": "uint256",
					"name": "votes",
					"type": "uint256"
				}
			],
			"stateMutability": "view",
			"type": "function"
		},
		{
			"inputs": [
				{
					"internalType": "bytes32",
					"name": "",
					"type": "bytes32"
				}
			],
			"name": "randomResults",
			"outputs": [
				{
					"internalType": "uint256",
					"name": "",
					"type": "uint256"
				}
			],
			"stateMutability": "view",
			"type": "function"
		},
		{
			"inputs": [
				{
					"internalType": "bytes32",
					"name": "requestId",
					"type": "bytes32"
				},
				{
					"internalType": "uint256",
					"name": "randomness",
					"type": "uint256"
				}
			],
			"name": "rawFulfillRandomness",
			"outputs": [],
			"stateMutability": "nonpayable",
			"type": "function"
		},
		{
			"inputs": [],
			"name": "renounceOwnership",
			"outputs": [],
			"stateMutability": "nonpayable",
			"type": "function"
		},
		{
			"inputs": [
				{
					"internalType": "uint256",
					"name": "_fee",
					"type": "uint256"
				}
			],
			"name": "setTransactionFee",
			"outputs": [],
			"stateMutability": "nonpayable",
			"type": "function"
		},
		{
			"inputs": [
				{
					"internalType": "uint256",
					"name": "",
					"type": "uint256"
				},
				{
					"internalType": "uint256",
					"name": "",
					"type": "uint256"
				}
			],
			"name": "sponsoredQuestConditions",
			"outputs": [
				{
					"internalType": "string",
					"name": "conditionType",
					"type": "string"
				},
				{
					"internalType": "uint256",
					"name": "value",
					"type": "uint256"
				}
			],
			"stateMutability": "view",
			"type": "function"
		},
		{
			"inputs": [
				{
					"internalType": "string",
					"name": "_description",
					"type": "string"
				}
			],
			"name": "submitPlayerContent",
			"outputs": [],
			"stateMutability": "nonpayable",
			"type": "function"
		},
		{
			"inputs": [
				{
					"internalType": "uint256",
					"name": "_itemId",
					"type": "uint256"
				},
				{
					"internalType": "address",
					"name": "_to",
					"type": "address"
				}
			],
			"name": "transferItem",
			"outputs": [],
			"stateMutability": "nonpayable",
			"type": "function"
		},
		{
			"inputs": [
				{
					"internalType": "address",
					"name": "newOwner",
					"type": "address"
				}
			],
			"name": "transferOwnership",
			"outputs": [],
			"stateMutability": "nonpayable",
			"type": "function"
		}
	]
}