{
	"data": {
		"bytecode": {
			"linkReferences": {},
			"object": "60a06040523073ffffffffffffffffffffffffffffffffffffffff1660809073ffffffffffffffffffffffffffffffffffffffff16815250348015610042575f80fd5b5061005161005660201b60201c565b6101b6565b5f61006561015460201b60201c565b9050805f0160089054906101000a900460ff16156100af576040517ff92ee8a900000000000000000000000000000000000000000000000000000000815260040160405180910390fd5b67ffffffffffffffff8016815f015f9054906101000a900467ffffffffffffffff1667ffffffffffffffff16146101515767ffffffffffffffff815f015f6101000a81548167ffffffffffffffff021916908367ffffffffffffffff1602179055507fc7f505b2f371ae2175ee4913f4499e1f2633a7b5936321eed1cdaeb6115181d267ffffffffffffffff604051610148919061019d565b60405180910390a15b50565b5f7ff0c57e16840df040f15088dc2f81fe391c3923bec73e23a9662efc9c229c6a00905090565b5f67ffffffffffffffff82169050919050565b6101978161017b565b82525050565b5f6020820190506101b05f83018461018e565b92915050565b6080516133c76101dc5f395f8181611e6001528181611eb5015261209201526133c75ff3fe608060405260043610610239575f3560e01c80634f1ef2861161012d578063a96f8668116100aa578063e1884b0f1161006e578063e1884b0f146107e7578063e63ab1e91461080f578063e641bde114610839578063f72c0d8b14610861578063fc0c546a1461088b57610239565b8063a96f86681461072b578063ad3cb1cc14610741578063b91d40011461076b578063d29cb7ad14610795578063d547741f146107bf57610239565b80637b9417c8116100f15780637b9417c81461065d5780637de69d5f146106855780638456cb59146106af57806391d14854146106c5578063a217fddf1461070157610239565b80634f1ef2861461059b57806352d1902d146105b75780635c627358146105e15780635c975abb1461060957806376082a5e1461063357610239565b80632f2ff15d116101bb5780633f4ba83a1161017f5780633f4ba83a146104cf57806342714978146104e557806344c4dcc11461050d57806346e73271146105495780634d853ee51461057157610239565b80632f2ff15d146104115780633610724e1461043957806336568abe14610455578063384711cc1461047d5780633ccfd60b146104b957610239565b80631645009211610202578063164500921461033157806323f5c02d1461035b578063248a9ca314610385578063286dd3f5146103c15780632dbf645a146103e957610239565b8062dce23f1461023d57806301ffc9a71461026757806306c933d8146102a3578063096f072b146102df5780630b10d5f214610307575b5f80fd5b348015610248575f80fd5b506102516108b5565b60405161025e9190612608565b60405180910390f35b348015610272575f80fd5b5061028d60048036038101906102889190612687565b6108d9565b60405161029a91906126cc565b60405180910390f35b3480156102ae575f80fd5b506102c960048036038101906102c4919061273f565b610952565b6040516102d691906126cc565b60405180910390f35b3480156102ea575f80fd5b50610305600480360381019061030091906127fe565b61096f565b005b348015610312575f80fd5b5061031b610b16565b604051610328919061286a565b60405180910390f35b34801561033c575f80fd5b50610345610b1c565b604051610352919061286a565b60405180910390f35b348015610366575f80fd5b5061036f610b22565b60405161037c9190612892565b60405180910390f35b348015610390575f80fd5b506103ab60048036038101906103a691906128d5565b610b47565b6040516103b89190612608565b60405180910390f35b3480156103cc575f80fd5b506103e760048036038101906103e2919061273f565b610b71565b005b3480156103f4575f80fd5b5061040f600480360381019061040a919061273f565b610c18565b005b34801561041c575f80fd5b5061043760048036038101906104329190612900565b610c8a565b005b610453600480360381019061044e919061293e565b610cac565b005b348015610460575f80fd5b5061047b60048036038101906104769190612900565b610f9f565b005b348015610488575f80fd5b506104a3600480360381019061049e919061273f565b61101a565b6040516104b0919061286a565b60405180910390f35b3480156104c4575f80fd5b506104cd61102f565b005b3480156104da575f80fd5b506104e36110fe565b005b3480156104f0575f80fd5b5061050b6004803603810190610506919061273f565b611133565b005b348015610518575f80fd5b50610533600480360381019061052e919061273f565b6111a5565b604051610540919061286a565b60405180910390f35b348015610554575f80fd5b5061056f600480360381019061056a9190612969565b6111ba565b005b34801561057c575f80fd5b50610585611440565b6040516105929190612892565b60405180910390f35b6105b560048036038101906105b09190612b7a565b611463565b005b3480156105c2575f80fd5b506105cb611482565b6040516105d89190612608565b60405180910390f35b3480156105ec575f80fd5b506106076004803603810190610602919061273f565b6114b3565b005b348015610614575f80fd5b5061061d611525565b60405161062a91906126cc565b60405180910390f35b34801561063e575f80fd5b50610647611547565b6040516106549190612608565b60405180910390f35b348015610668575f80fd5b50610683600480360381019061067e919061273f565b61156b565b005b348015610690575f80fd5b50610699611613565b6040516106a6919061286a565b60405180910390f35b3480156106ba575f80fd5b506106c3611619565b005b3480156106d0575f80fd5b506106eb60048036038101906106e69190612900565b61164e565b6040516106f891906126cc565b60405180910390f35b34801561070c575f80fd5b506107156116bf565b6040516107229190612608565b60405180910390f35b348015610736575f80fd5b5061073f6116c5565b005b34801561074c575f80fd5b506107556118cb565b6040516107629190612c34565b60405180910390f35b348015610776575f80fd5b5061077f611904565b60405161078c919061286a565b60405180910390f35b3480156107a0575f80fd5b506107a961190a565b6040516107b6919061286a565b60405180910390f35b3480156107ca575f80fd5b506107e560048036038101906107e09190612900565b611910565b005b3480156107f2575f80fd5b5061080d6004803603810190610808919061293e565b611932565b005b34801561081a575f80fd5b50610823611980565b6040516108309190612608565b60405180910390f35b348015610844575f80fd5b5061085f600480360381019061085a919061273f565b6119a4565b005b34801561086c575f80fd5b50610875611a16565b6040516108829190612608565b60405180910390f35b348015610896575f80fd5b5061089f611a3a565b6040516108ac9190612caf565b60405180910390f35b7f60c5cfba52c4b504f7c252e725c10aea67bfd5e3972bd12ea427f6a9742e6dbe81565b5f7f7965db0b000000000000000000000000000000000000000000000000000000007bffffffffffffffffffffffffffffffffffffffffffffffffffffffff1916827bffffffffffffffffffffffffffffffffffffffffffffffffffffffff1916148061094b575061094a82611a5f565b5b9050919050565b6008602052805f5260405f205f915054906101000a900460ff1681565b5f801b61097b81611ac8565b60405160200161098a90612d1c565b6040516020818303038152906040528051906020012083836040516020016109b3929190612d54565b60405160208183030381529060405280519060200120036109da5783600181905550610ad5565b6040516020016109e990612db6565b604051602081830303815290604052805190602001208383604051602001610a12929190612d54565b6040516020818303038152906040528051906020012003610a395783600281905550610ad4565b604051602001610a4890612e14565b604051602081830303815290604052805190602001208383604051602001610a71929190612d54565b6040516020818303038152906040528051906020012003610a985783600381905550610ad3565b6040517f08c379a0000000000000000000000000000000000000000000000000000000008152600401610aca90612e72565b60405180910390fd5b5b5b7feb965a01dcf45c018906efc8417ee684fc308fe125c2c16698e677fd058bfe48848484604051610b0893929190612ebc565b60405180910390a150505050565b60025481565b60045481565b600a5f9054906101000a900473ffffffffffffffffffffffffffffffffffffffff1681565b5f80610b51611adc565b9050805f015f8481526020019081526020015f2060010154915050919050565b5f801b610b7d81611ac8565b5f60085f8473ffffffffffffffffffffffffffffffffffffffff1673ffffffffffffffffffffffffffffffffffffffff1681526020019081526020015f205f6101000a81548160ff0219169083151502179055508173ffffffffffffffffffffffffffffffffffffffff167f535611fb62fa2a833988f283b779e417e996813e44046f521d76c17b5943b08c60405160405180910390a25050565b5f801b610c2481611ac8565b610c4e7f60c5cfba52c4b504f7c252e725c10aea67bfd5e3972bd12ea427f6a9742e6dbe83611b03565b507fa22f826cfa669b4680f0ca673f9e9021392cfe223ef797faf4005f9c8dc4d14b82604051610c7e9190612892565b60405180910390a15050565b610c9382610b47565b610c9c81611ac8565b610ca68383611bfb565b50505050565b610cb4611cf3565b60085f3373ffffffffffffffffffffffffffffffffffffffff1673ffffffffffffffffffffffffffffffffffffffff1681526020019081526020015f205f9054906101000a900460ff16610d3d576040517f08c379a0000000000000000000000000000000000000000000000000000000008152600401610d3490612f36565b60405180910390fd5b5f610d687fb165298935924f540e4181c03493a5d686c54a0aaeb3f6216de85b7ffbba77383361164e565b15610d825760015482610d7b9190612f81565b9050610dd8565b610dac7f60c5cfba52c4b504f7c252e725c10aea67bfd5e3972bd12ea427f6a9742e6dbe3361164e565b15610dc65760025482610dbf9190612f81565b9050610dd7565b60035482610dd49190612f81565b90505b5b803414610e1a576040517f08c379a0000000000000000000000000000000000000000000000000000000008152600401610e119061300c565b60405180910390fd5b6004548260065f3373ffffffffffffffffffffffffffffffffffffffff1673ffffffffffffffffffffffffffffffffffffffff1681526020019081526020015f2054610e66919061302a565b1115610ea7576040517f08c379a0000000000000000000000000000000000000000000000000000000008152600401610e9e906130a7565b60405180910390fd5b8160065f3373ffffffffffffffffffffffffffffffffffffffff1673ffffffffffffffffffffffffffffffffffffffff1681526020019081526020015f205f828254610ef3919061302a565b925050819055508160075f3373ffffffffffffffffffffffffffffffffffffffff1673ffffffffffffffffffffffffffffffffffffffff1681526020019081526020015f205f828254610f46919061302a565b925050819055503373ffffffffffffffffffffffffffffffffffffffff167f8f28852646c20cc973d3a8218f7eefed58c25c909f78f0265af4818c3d4dc27183604051610f93919061286a565b60405180910390a25050565b610fa7611d34565b73ffffffffffffffffffffffffffffffffffffffff168173ffffffffffffffffffffffffffffffffffffffff161461100b576040517f6697b23200000000000000000000000000000000000000000000000000000000815260040160405180910390fd5b6110158282611b03565b505050565b6007602052805f5260405f205f915090505481565b5f801b61103b81611ac8565b5f4790505f8054906101000a900473ffffffffffffffffffffffffffffffffffffffff1673ffffffffffffffffffffffffffffffffffffffff166108fc8290811502906040515f60405180830381858888f193505050501580156110a1573d5f803e3d5ffd5b507feaff4b37086828766ad3268786972c0cd24259d4c87a80f9d3963a3c3d999b0d5f8054906101000a900473ffffffffffffffffffffffffffffffffffffffff16826040516110f29291906130c5565b60405180910390a15050565b7f65d7a28e3265b37a6474929f336521b332c1681b933f6cb9f3376673440d862a61112881611ac8565b611130611d3b565b50565b5f801b61113f81611ac8565b6111697fb165298935924f540e4181c03493a5d686c54a0aaeb3f6216de85b7ffbba773883611b03565b507fba0013628ccb89af5bb18edf764d3a7b35c07b894848b8e6fd3434719de39c7d826040516111999190612892565b60405180910390a15050565b6006602052805f5260405f205f915090505481565b5f6111c3611da9565b90505f815f0160089054906101000a900460ff161590505f825f015f9054906101000a900467ffffffffffffffff1690505f808267ffffffffffffffff1614801561120b5750825b90505f60018367ffffffffffffffff1614801561123e57505f3073ffffffffffffffffffffffffffffffffffffffff163b145b90508115801561124c575080155b15611283576040517ff92ee8a900000000000000000000000000000000000000000000000000000000815260040160405180910390fd5b6001855f015f6101000a81548167ffffffffffffffff021916908367ffffffffffffffff16021790555083156112d0576001855f0160086101000a81548160ff0219169083151502179055505b6112d8611dd0565b6112e0611de2565b6112e8611dec565b6112f38f8f8f611df6565b335f806101000a81548173ffffffffffffffffffffffffffffffffffffffff021916908373ffffffffffffffffffffffffffffffffffffffff1602179055508b60095f6101000a81548173ffffffffffffffffffffffffffffffffffffffff021916908373ffffffffffffffffffffffffffffffffffffffff1602179055508a600a5f6101000a81548173ffffffffffffffffffffffffffffffffffffffff021916908373ffffffffffffffffffffffffffffffffffffffff1602179055508960018190555088600281905550876003819055508660048190555085600581905550831561142f575f855f0160086101000a81548160ff0219169083151502179055507fc7f505b2f371ae2175ee4913f4499e1f2633a7b5936321eed1cdaeb6115181d260016040516114269190613138565b60405180910390a15b505050505050505050505050505050565b5f8054906101000a900473ffffffffffffffffffffffffffffffffffffffff1681565b61146b611e5e565b61147482611f44565b61147e8282611f72565b5050565b5f61148b612090565b7f360894a13ba1a3210667c828492db98dca3e2076cc3735a920a3ca505d382bbc5f1b905090565b5f801b6114bf81611ac8565b6114e97f60c5cfba52c4b504f7c252e725c10aea67bfd5e3972bd12ea427f6a9742e6dbe83611bfb565b507fa41a5ddbf02b01025c5ac32c2038f209eabe5ddb2a83444f2acbfe9f91dc8827826040516115199190612892565b60405180910390a15050565b5f8061152f612117565b9050805f015f9054906101000a900460ff1691505090565b7fb165298935924f540e4181c03493a5d686c54a0aaeb3f6216de85b7ffbba773881565b5f801b61157781611ac8565b600160085f8473ffffffffffffffffffffffffffffffffffffffff1673ffffffffffffffffffffffffffffffffffffffff1681526020019081526020015f205f6101000a81548160ff0219169083151502179055508173ffffffffffffffffffffffffffffffffffffffff167f4f783c179409b4127238bc9c990bc99b9a651666a0d20b51d6c42849eb88466d60405160405180910390a25050565b60035481565b7f65d7a28e3265b37a6474929f336521b332c1681b933f6cb9f3376673440d862a61164381611ac8565b61164b61213e565b50565b5f80611658611adc565b9050805f015f8581526020019081526020015f205f015f8473ffffffffffffffffffffffffffffffffffffffff1673ffffffffffffffffffffffffffffffffffffffff1681526020019081526020015f205f9054906101000a900460ff1691505092915050565b5f801b81565b60055442101561170a576040517f08c379a0000000000000000000000000000000000000000000000000000000008152600401611701906131c1565b60405180910390fd5b5f60075f3373ffffffffffffffffffffffffffffffffffffffff1673ffffffffffffffffffffffffffffffffffffffff1681526020019081526020015f205490505f811161178d576040517f08c379a000000000000000000000000000000000000000000000000000000000815260040161178490613229565b60405180910390fd5b5f60075f3373ffffffffffffffffffffffffffffffffffffffff1673ffffffffffffffffffffffffffffffffffffffff1681526020019081526020015f208190555060095f9054906101000a900473ffffffffffffffffffffffffffffffffffffffff1673ffffffffffffffffffffffffffffffffffffffff166323b872dd600a5f9054906101000a900473ffffffffffffffffffffffffffffffffffffffff1633846040518463ffffffff1660e01b815260040161184e93929190613247565b6020604051808303815f875af115801561186a573d5f803e3d5ffd5b505050506040513d601f19601f8201168201806040525081019061188e91906132a6565b507fc7798891864187665ac6dd119286e44ec13f014527aeeb2b8eb3fd413df9317933826040516118c09291906130c5565b60405180910390a150565b6040518060400160405280600581526020017f352e302e3000000000000000000000000000000000000000000000000000000081525081565b60055481565b60015481565b61191982610b47565b61192281611ac8565b61192c8383611b03565b50505050565b5f801b61193e81611ac8565b816004819055507ff20cfd7e6ce3a0eb317cf0b06dcbc6ba40fb5bdd5ac92227bd1baa0d85c52f9282604051611974919061286a565b60405180910390a15050565b7f65d7a28e3265b37a6474929f336521b332c1681b933f6cb9f3376673440d862a81565b5f801b6119b081611ac8565b6119da7fb165298935924f540e4181c03493a5d686c54a0aaeb3f6216de85b7ffbba773883611bfb565b507f62e6a5118be03f9bfedb79b0ed7ed75ee4a9e15fc4c69d2c4976acde26fa2d5f82604051611a0a9190612892565b60405180910390a15050565b7f189ab7a9244df0848122154315af71fe140f3db0fe014031783b0946b8c9d2e381565b60095f9054906101000a900473ffffffffffffffffffffffffffffffffffffffff1681565b5f7f01ffc9a7000000000000000000000000000000000000000000000000000000007bffffffffffffffffffffffffffffffffffffffffffffffffffffffff1916827bffffffffffffffffffffffffffffffffffffffffffffffffffffffff1916149050919050565b611ad981611ad4611d34565b6121ad565b50565b5f7f02dd7bc7dec4dceedda775e58dd541e08a116c6c53815c0bd028192f7b626800905090565b5f80611b0d611adc565b9050611b19848461164e565b15611bf0575f815f015f8681526020019081526020015f205f015f8573ffffffffffffffffffffffffffffffffffffffff1673ffffffffffffffffffffffffffffffffffffffff1681526020019081526020015f205f6101000a81548160ff021916908315150217905550611b8c611d34565b73ffffffffffffffffffffffffffffffffffffffff168373ffffffffffffffffffffffffffffffffffffffff16857ff6391f5c32d9c69d2a47ea670b442974b53935d1edc7fd64eb21e047a839171b60405160405180910390a46001915050611bf5565b5f9150505b92915050565b5f80611c05611adc565b9050611c11848461164e565b611ce8576001815f015f8681526020019081526020015f205f015f8573ffffffffffffffffffffffffffffffffffffffff1673ffffffffffffffffffffffffffffffffffffffff1681526020019081526020015f205f6101000a81548160ff021916908315150217905550611c84611d34565b73ffffffffffffffffffffffffffffffffffffffff168373ffffffffffffffffffffffffffffffffffffffff16857f2f8788117e7eff1d82e926ec794901d17c78024a50270940304540a733656f0d60405160405180910390a46001915050611ced565b5f9150505b92915050565b611cfb611525565b15611d32576040517fd93c066500000000000000000000000000000000000000000000000000000000815260040160405180910390fd5b565b5f33905090565b611d436121fe565b5f611d4c612117565b90505f815f015f6101000a81548160ff0219169083151502179055507f5db9ee0a495bf2e6ff9c91a7834c1ba4fdd244a5e8aa4e537bd38aeae4b073aa611d91611d34565b604051611d9e9190612892565b60405180910390a150565b5f7ff0c57e16840df040f15088dc2f81fe391c3923bec73e23a9662efc9c229c6a00905090565b611dd861223e565b611de061227e565b565b611dea61223e565b565b611df461223e565b565b611e025f801b84611bfb565b50611e2d7f65d7a28e3265b37a6474929f336521b332c1681b933f6cb9f3376673440d862a83611bfb565b50611e587f189ab7a9244df0848122154315af71fe140f3db0fe014031783b0946b8c9d2e382611bfb565b50505050565b7f000000000000000000000000000000000000000000000000000000000000000073ffffffffffffffffffffffffffffffffffffffff163073ffffffffffffffffffffffffffffffffffffffff161480611f0b57507f000000000000000000000000000000000000000000000000000000000000000073ffffffffffffffffffffffffffffffffffffffff16611ef26122ae565b73ffffffffffffffffffffffffffffffffffffffff1614155b15611f42576040517fe07c8dba00000000000000000000000000000000000000000000000000000000815260040160405180910390fd5b565b7f189ab7a9244df0848122154315af71fe140f3db0fe014031783b0946b8c9d2e3611f6e81611ac8565b5050565b8173ffffffffffffffffffffffffffffffffffffffff166352d1902d6040518163ffffffff1660e01b8152600401602060405180830381865afa925050508015611fda57506040513d601f19601f82011682018060405250810190611fd791906132e5565b60015b61201b57816040517f4c9c8ce30000000000000000000000000000000000000000000000000000000081526004016120129190612892565b60405180910390fd5b7f360894a13ba1a3210667c828492db98dca3e2076cc3735a920a3ca505d382bbc5f1b811461208157806040517faa1d49a40000000000000000000000000000000000000000000000000000000081526004016120789190612608565b60405180910390fd5b61208b8383612301565b505050565b7f000000000000000000000000000000000000000000000000000000000000000073ffffffffffffffffffffffffffffffffffffffff163073ffffffffffffffffffffffffffffffffffffffff1614612115576040517fe07c8dba00000000000000000000000000000000000000000000000000000000815260040160405180910390fd5b565b5f7fcd5ed15c6e187e77e9aee88184c21f4f2182ab5827cb3b7e07fbedcd63f03300905090565b612146611cf3565b5f61214f612117565b90506001815f015f6101000a81548160ff0219169083151502179055507f62e78cea01bee320cd4e420270b5ea74000d11b0c9f74754ebdbfc544b05a258612195611d34565b6040516121a29190612892565b60405180910390a150565b6121b7828261164e565b6121fa5780826040517fe2517d3f0000000000000000000000000000000000000000000000000000000081526004016121f1929190613310565b60405180910390fd5b5050565b612206611525565b61223c576040517f8dfc202b00000000000000000000000000000000000000000000000000000000815260040160405180910390fd5b565b612246612373565b61227c576040517fd7e6bcf800000000000000000000000000000000000000000000000000000000815260040160405180910390fd5b565b61228661223e565b5f61228f612117565b90505f815f015f6101000a81548160ff02191690831515021790555050565b5f6122da7f360894a13ba1a3210667c828492db98dca3e2076cc3735a920a3ca505d382bbc5f1b612391565b5f015f9054906101000a900473ffffffffffffffffffffffffffffffffffffffff16905090565b61230a8261239a565b8173ffffffffffffffffffffffffffffffffffffffff167fbc7cd75a20ee27fd9adebab32041f755214dbc6bffa90cc0225b39da2e5c2d3b60405160405180910390a25f81511115612366576123608282612463565b5061236f565b61236e6124e3565b5b5050565b5f61237c611da9565b5f0160089054906101000a900460ff16905090565b5f819050919050565b5f8173ffffffffffffffffffffffffffffffffffffffff163b036123f557806040517f4c9c8ce30000000000000000000000000000000000000000000000000000000081526004016123ec9190612892565b60405180910390fd5b806124217f360894a13ba1a3210667c828492db98dca3e2076cc3735a920a3ca505d382bbc5f1b612391565b5f015f6101000a81548173ffffffffffffffffffffffffffffffffffffffff021916908373ffffffffffffffffffffffffffffffffffffffff16021790555050565b60605f808473ffffffffffffffffffffffffffffffffffffffff168460405161248c919061337b565b5f60405180830381855af49150503d805f81146124c4576040519150601f19603f3d011682016040523d82523d5f602084013e6124c9565b606091505b50915091506124d985838361251f565b9250505092915050565b5f34111561251d576040517fb398979f00000000000000000000000000000000000000000000000000000000815260040160405180910390fd5b565b6060826125345761252f826125ac565b6125a4565b5f825114801561255a57505f8473ffffffffffffffffffffffffffffffffffffffff163b145b1561259c57836040517f9996b3150000000000000000000000000000000000000000000000000000000081526004016125939190612892565b60405180910390fd5b8190506125a5565b5b9392505050565b5f815111156125be5780518082602001fd5b6040517f1425ea4200000000000000000000000000000000000000000000000000000000815260040160405180910390fd5b5f819050919050565b612602816125f0565b82525050565b5f60208201905061261b5f8301846125f9565b92915050565b5f604051905090565b5f80fd5b5f80fd5b5f7fffffffff0000000000000000000000000000000000000000000000000000000082169050919050565b61266681612632565b8114612670575f80fd5b50565b5f813590506126818161265d565b92915050565b5f6020828403121561269c5761269b61262a565b5b5f6126a984828501612673565b91505092915050565b5f8115159050919050565b6126c6816126b2565b82525050565b5f6020820190506126df5f8301846126bd565b92915050565b5f73ffffffffffffffffffffffffffffffffffffffff82169050919050565b5f61270e826126e5565b9050919050565b61271e81612704565b8114612728575f80fd5b50565b5f8135905061273981612715565b92915050565b5f602082840312156127545761275361262a565b5b5f6127618482850161272b565b91505092915050565b5f819050919050565b61277c8161276a565b8114612786575f80fd5b50565b5f8135905061279781612773565b92915050565b5f80fd5b5f80fd5b5f80fd5b5f8083601f8401126127be576127bd61279d565b5b8235905067ffffffffffffffff8111156127db576127da6127a1565b5b6020830191508360018202830111156127f7576127f66127a5565b5b9250929050565b5f805f604084860312156128155761281461262a565b5b5f61282286828701612789565b935050602084013567ffffffffffffffff8111156128435761284261262e565b5b61284f868287016127a9565b92509250509250925092565b6128648161276a565b82525050565b5f60208201905061287d5f83018461285b565b92915050565b61288c81612704565b82525050565b5f6020820190506128a55f830184612883565b92915050565b6128b4816125f0565b81146128be575f80fd5b50565b5f813590506128cf816128ab565b92915050565b5f602082840312156128ea576128e961262a565b5b5f6128f7848285016128c1565b91505092915050565b5f80604083850312156129165761291561262a565b5b5f612923858286016128c1565b92505060206129348582860161272b565b9150509250929050565b5f602082840312156129535761295261262a565b5b5f61296084828501612789565b91505092915050565b5f805f805f805f805f806101408b8d0312156129885761298761262a565b5b5f6129958d828e0161272b565b9a505060206129a68d828e0161272b565b99505060406129b78d828e0161272b565b98505060606129c88d828e0161272b565b97505060806129d98d828e0161272b565b96505060a06129ea8d828e01612789565b95505060c06129fb8d828e01612789565b94505060e0612a0c8d828e01612789565b935050610100612a1e8d828e01612789565b925050610120612a308d828e01612789565b9150509295989b9194979a5092959850565b5f80fd5b5f601f19601f8301169050919050565b7f4e487b71000000000000000000000000000000000000000000000000000000005f52604160045260245ffd5b612a8c82612a46565b810181811067ffffffffffffffff82111715612aab57612aaa612a56565b5b80604052505050565b5f612abd612621565b9050612ac98282612a83565b919050565b5f67ffffffffffffffff821115612ae857612ae7612a56565b5b612af182612a46565b9050602081019050919050565b828183375f83830152505050565b5f612b1e612b1984612ace565b612ab4565b905082815260208101848484011115612b3a57612b39612a42565b5b612b45848285612afe565b509392505050565b5f82601f830112612b6157612b6061279d565b5b8135612b71848260208601612b0c565b91505092915050565b5f8060408385031215612b9057612b8f61262a565b5b5f612b9d8582860161272b565b925050602083013567ffffffffffffffff811115612bbe57612bbd61262e565b5b612bca85828601612b4d565b9150509250929050565b5f81519050919050565b5f82825260208201905092915050565b8281835e5f83830152505050565b5f612c0682612bd4565b612c108185612bde565b9350612c20818560208601612bee565b612c2981612a46565b840191505092915050565b5f6020820190508181035f830152612c4c8184612bfc565b905092915050565b5f819050919050565b5f612c77612c72612c6d846126e5565b612c54565b6126e5565b9050919050565b5f612c8882612c5d565b9050919050565b5f612c9982612c7e565b9050919050565b612ca981612c8f565b82525050565b5f602082019050612cc25f830184612ca0565b92915050565b5f81905092915050565b7f494e564553544f520000000000000000000000000000000000000000000000005f82015250565b5f612d06600883612cc8565b9150612d1182612cd2565b600882019050919050565b5f612d2682612cfa565b9150819050919050565b5f612d3b8385612cc8565b9350612d48838584612afe565b82840190509392505050565b5f612d60828486612d30565b91508190509392505050565b7f434f4d4d554e49545900000000000000000000000000000000000000000000005f82015250565b5f612da0600983612cc8565b9150612dab82612d6c565b600982019050919050565b5f612dc082612d94565b9150819050919050565b7f5055424c494300000000000000000000000000000000000000000000000000005f82015250565b5f612dfe600683612cc8565b9150612e0982612dca565b600682019050919050565b5f612e1e82612df2565b9150819050919050565b7f496e76616c696420726f6c6500000000000000000000000000000000000000005f82015250565b5f612e5c600c83612bde565b9150612e6782612e28565b602082019050919050565b5f6020820190508181035f830152612e8981612e50565b9050919050565b5f612e9b8385612bde565b9350612ea8838584612afe565b612eb183612a46565b840190509392505050565b5f604082019050612ecf5f83018661285b565b8181036020830152612ee2818486612e90565b9050949350505050565b7f41646472657373206e6f742077686974656c69737465640000000000000000005f82015250565b5f612f20601783612bde565b9150612f2b82612eec565b602082019050919050565b5f6020820190508181035f830152612f4d81612f14565b9050919050565b7f4e487b71000000000000000000000000000000000000000000000000000000005f52601160045260245ffd5b5f612f8b8261276a565b9150612f968361276a565b9250828202612fa48161276a565b91508282048414831517612fbb57612fba612f54565b5b5092915050565b7f496e636f72726563742076616c75652073656e740000000000000000000000005f82015250565b5f612ff6601483612bde565b915061300182612fc2565b602082019050919050565b5f6020820190508181035f83015261302381612fea565b9050919050565b5f6130348261276a565b915061303f8361276a565b925082820190508082111561305757613056612f54565b5b92915050565b7f50757263686173652065786365656473206361700000000000000000000000005f82015250565b5f613091601483612bde565b915061309c8261305d565b602082019050919050565b5f6020820190508181035f8301526130be81613085565b9050919050565b5f6040820190506130d85f830185612883565b6130e5602083018461285b565b9392505050565b5f819050919050565b5f67ffffffffffffffff82169050919050565b5f61312261311d613118846130ec565b612c54565b6130f5565b9050919050565b61313281613108565b82525050565b5f60208201905061314b5f830184613129565b92915050565b7f43757272656e742074696d65206973206265666f72652072656c6561736520745f8201527f696d650000000000000000000000000000000000000000000000000000000000602082015250565b5f6131ab602383612bde565b91506131b682613151565b604082019050919050565b5f6020820190508181035f8301526131d88161319f565b9050919050565b7f4e6f20746f6b656e7320617265206475650000000000000000000000000000005f82015250565b5f613213601183612bde565b915061321e826131df565b602082019050919050565b5f6020820190508181035f83015261324081613207565b9050919050565b5f60608201905061325a5f830186612883565b6132676020830185612883565b613274604083018461285b565b949350505050565b613285816126b2565b811461328f575f80fd5b50565b5f815190506132a08161327c565b92915050565b5f602082840312156132bb576132ba61262a565b5b5f6132c884828501613292565b91505092915050565b5f815190506132df816128ab565b92915050565b5f602082840312156132fa576132f961262a565b5b5f613307848285016132d1565b91505092915050565b5f6040820190506133235f830185612883565b61333060208301846125f9565b9392505050565b5f81519050919050565b5f81905092915050565b5f61335582613337565b61335f8185613341565b935061336f818560208601612bee565b80840191505092915050565b5f613386828461334b565b91508190509291505056fea2646970667358221220298be3b80f32a6908c351ca61fa8f9cee8c62ecb0909507d09dde31809c5a2f464736f6c634300081a0033",
			"opcodes": "PUSH1 0xA0 PUSH1 0x40 MSTORE ADDRESS PUSH20 0xFFFFFFFFFFFFFFFFFFFFFFFFFFFFFFFFFFFFFFFF AND PUSH1 0x80 SWAP1 PUSH20 0xFFFFFFFFFFFFFFFFFFFFFFFFFFFFFFFFFFFFFFFF AND DUP2 MSTORE POP CALLVALUE DUP1 ISZERO PUSH2 0x42 JUMPI PUSH0 DUP1 REVERT JUMPDEST POP PUSH2 0x51 PUSH2 0x56 PUSH1 0x20 SHL PUSH1 0x20 SHR JUMP JUMPDEST PUSH2 0x1B6 JUMP JUMPDEST PUSH0 PUSH2 0x65 PUSH2 0x154 PUSH1 0x20 SHL PUSH1 0x20 SHR JUMP JUMPDEST SWAP1 POP DUP1 PUSH0 ADD PUSH1 0x8 SWAP1 SLOAD SWAP1 PUSH2 0x100 EXP SWAP1 DIV PUSH1 0xFF AND ISZERO PUSH2 0xAF JUMPI PUSH1 0x40 MLOAD PUSH32 0xF92EE8A900000000000000000000000000000000000000000000000000000000 DUP2 MSTORE PUSH1 0x4 ADD PUSH1 0x40 MLOAD DUP1 SWAP2 SUB SWAP1 REVERT JUMPDEST PUSH8 0xFFFFFFFFFFFFFFFF DUP1 AND DUP2 PUSH0 ADD PUSH0 SWAP1 SLOAD SWAP1 PUSH2 0x100 EXP SWAP1 DIV PUSH8 0xFFFFFFFFFFFFFFFF AND PUSH8 0xFFFFFFFFFFFFFFFF AND EQ PUSH2 0x151 JUMPI PUSH8 0xFFFFFFFFFFFFFFFF DUP2 PUSH0 ADD PUSH0 PUSH2 0x100 EXP DUP2 SLOAD DUP2 PUSH8 0xFFFFFFFFFFFFFFFF MUL NOT AND SWAP1 DUP4 PUSH8 0xFFFFFFFFFFFFFFFF AND MUL OR SWAP1 SSTORE POP PUSH32 0xC7F505B2F371AE2175EE4913F4499E1F2633A7B5936321EED1CDAEB6115181D2 PUSH8 0xFFFFFFFFFFFFFFFF PUSH1 0x40 MLOAD PUSH2 0x148 SWAP2 SWAP1 PUSH2 0x19D JUMP JUMPDEST PUSH1 0x40 MLOAD DUP1 SWAP2 SUB SWAP1 LOG1 JUMPDEST POP JUMP JUMPDEST PUSH0 PUSH32 0xF0C57E16840DF040F15088DC2F81FE391C3923BEC73E23A9662EFC9C229C6A00 SWAP1 POP SWAP1 JUMP JUMPDEST PUSH0 PUSH8 0xFFFFFFFFFFFFFFFF DUP3 AND SWAP1 POP SWAP2 SWAP1 POP JUMP JUMPDEST PUSH2 0x197 DUP2 PUSH2 0x17B JUMP JUMPDEST DUP3 MSTORE POP POP JUMP JUMPDEST PUSH0 PUSH1 0x20 DUP3 ADD SWAP1 POP PUSH2 0x1B0 PUSH0 DUP4 ADD DUP5 PUSH2 0x18E JUMP JUMPDEST SWAP3 SWAP2 POP POP JUMP JUMPDEST PUSH1 0x80 MLOAD PUSH2 0x33C7 PUSH2 0x1DC PUSH0 CODECOPY PUSH0 DUP2 DUP2 PUSH2 0x1E60 ADD MSTORE DUP2 DUP2 PUSH2 0x1EB5 ADD MSTORE PUSH2 0x2092 ADD MSTORE PUSH2 0x33C7 PUSH0 RETURN INVALID PUSH1 0x80 PUSH1 0x40 MSTORE PUSH1 0x4 CALLDATASIZE LT PUSH2 0x239 JUMPI PUSH0 CALLDATALOAD PUSH1 0xE0 SHR DUP1 PUSH4 0x4F1EF286 GT PUSH2 0x12D JUMPI DUP1 PUSH4 0xA96F8668 GT PUSH2 0xAA JUMPI DUP1 PUSH4 0xE1884B0F GT PUSH2 0x6E JUMPI DUP1 PUSH4 0xE1884B0F EQ PUSH2 0x7E7 JUMPI DUP1 PUSH4 0xE63AB1E9 EQ PUSH2 0x80F JUMPI DUP1 PUSH4 0xE641BDE1 EQ PUSH2 0x839 JUMPI DUP1 PUSH4 0xF72C0D8B EQ PUSH2 0x861 JUMPI DUP1 PUSH4 0xFC0C546A EQ PUSH2 0x88B JUMPI PUSH2 0x239 JUMP JUMPDEST DUP1 PUSH4 0xA96F8668 EQ PUSH2 0x72B JUMPI DUP1 PUSH4 0xAD3CB1CC EQ PUSH2 0x741 JUMPI DUP1 PUSH4 0xB91D4001 EQ PUSH2 0x76B JUMPI DUP1 PUSH4 0xD29CB7AD EQ PUSH2 0x795 JUMPI DUP1 PUSH4 0xD547741F EQ PUSH2 0x7BF JUMPI PUSH2 0x239 JUMP JUMPDEST DUP1 PUSH4 0x7B9417C8 GT PUSH2 0xF1 JUMPI DUP1 PUSH4 0x7B9417C8 EQ PUSH2 0x65D JUMPI DUP1 PUSH4 0x7DE69D5F EQ PUSH2 0x685 JUMPI DUP1 PUSH4 0x8456CB59 EQ PUSH2 0x6AF JUMPI DUP1 PUSH4 0x91D14854 EQ PUSH2 0x6C5 JUMPI DUP1 PUSH4 0xA217FDDF EQ PUSH2 0x701 JUMPI PUSH2 0x239 JUMP JUMPDEST DUP1 PUSH4 0x4F1EF286 EQ PUSH2 0x59B JUMPI DUP1 PUSH4 0x52D1902D EQ PUSH2 0x5B7 JUMPI DUP1 PUSH4 0x5C627358 EQ PUSH2 0x5E1 JUMPI DUP1 PUSH4 0x5C975ABB EQ PUSH2 0x609 JUMPI DUP1 PUSH4 0x76082A5E EQ PUSH2 0x633 JUMPI PUSH2 0x239 JUMP JUMPDEST DUP1 PUSH4 0x2F2FF15D GT PUSH2 0x1BB JUMPI DUP1 PUSH4 0x3F4BA83A GT PUSH2 0x17F JUMPI DUP1 PUSH4 0x3F4BA83A EQ PUSH2 0x4CF JUMPI DUP1 PUSH4 0x42714978 EQ PUSH2 0x4E5 JUMPI DUP1 PUSH4 0x44C4DCC1 EQ PUSH2 0x50D JUMPI DUP1 PUSH4 0x46E73271 EQ PUSH2 0x549 JUMPI DUP1 PUSH4 0x4D853EE5 EQ PUSH2 0x571 JUMPI PUSH2 0x239 JUMP JUMPDEST DUP1 PUSH4 0x2F2FF15D EQ PUSH2 0x411 JUMPI DUP1 PUSH4 0x3610724E EQ PUSH2 0x439 JUMPI DUP1 PUSH4 0x36568ABE EQ PUSH2 0x455 JUMPI DUP1 PUSH4 0x384711CC EQ PUSH2 0x47D JUMPI DUP1 PUSH4 0x3CCFD60B EQ PUSH2 0x4B9 JUMPI PUSH2 0x239 JUMP JUMPDEST DUP1 PUSH4 0x16450092 GT PUSH2 0x202 JUMPI DUP1 PUSH4 0x16450092 EQ PUSH2 0x331 JUMPI DUP1 PUSH4 0x23F5C02D EQ PUSH2 0x35B JUMPI DUP1 PUSH4 0x248A9CA3 EQ PUSH2 0x385 JUMPI DUP1 PUSH4 0x286DD3F5 EQ PUSH2 0x3C1 JUMPI DUP1 PUSH4 0x2DBF645A EQ PUSH2 0x3E9 JUMPI PUSH2 0x239 JUMP JUMPDEST DUP1 PUSH3 0xDCE23F EQ PUSH2 0x23D JUMPI DUP1 PUSH4 0x1FFC9A7 EQ PUSH2 0x267 JUMPI DUP1 PUSH4 0x6C933D8 EQ PUSH2 0x2A3 JUMPI DUP1 PUSH4 0x96F072B EQ PUSH2 0x2DF JUMPI DUP1 PUSH4 0xB10D5F2 EQ PUSH2 0x307 JUMPI JUMPDEST PUSH0 DUP1 REVERT JUMPDEST CALLVALUE DUP1 ISZERO PUSH2 0x248 JUMPI PUSH0 DUP1 REVERT JUMPDEST POP PUSH2 0x251 PUSH2 0x8B5 JUMP JUMPDEST PUSH1 0x40 MLOAD PUSH2 0x25E SWAP2 SWAP1 PUSH2 0x2608 JUMP JUMPDEST PUSH1 0x40 MLOAD DUP1 SWAP2 SUB SWAP1 RETURN JUMPDEST CALLVALUE DUP1 ISZERO PUSH2 0x272 JUMPI PUSH0 DUP1 REVERT JUMPDEST POP PUSH2 0x28D PUSH1 0x4 DUP1 CALLDATASIZE SUB DUP2 ADD SWAP1 PUSH2 0x288 SWAP2 SWAP1 PUSH2 0x2687 JUMP JUMPDEST PUSH2 0x8D9 JUMP JUMPDEST PUSH1 0x40 MLOAD PUSH2 0x29A SWAP2 SWAP1 PUSH2 0x26CC JUMP JUMPDEST PUSH1 0x40 MLOAD DUP1 SWAP2 SUB SWAP1 RETURN JUMPDEST CALLVALUE DUP1 ISZERO PUSH2 0x2AE JUMPI PUSH0 DUP1 REVERT JUMPDEST POP PUSH2 0x2C9 PUSH1 0x4 DUP1 CALLDATASIZE SUB DUP2 ADD SWAP1 PUSH2 0x2C4 SWAP2 SWAP1 PUSH2 0x273F JUMP JUMPDEST PUSH2 0x952 JUMP JUMPDEST PUSH1 0x40 MLOAD PUSH2 0x2D6 SWAP2 SWAP1 PUSH2 0x26CC JUMP JUMPDEST PUSH1 0x40 MLOAD DUP1 SWAP2 SUB SWAP1 RETURN JUMPDEST CALLVALUE DUP1 ISZERO PUSH2 0x2EA JUMPI PUSH0 DUP1 REVERT JUMPDEST POP PUSH2 0x305 PUSH1 0x4 DUP1 CALLDATASIZE SUB DUP2 ADD SWAP1 PUSH2 0x300 SWAP2 SWAP1 PUSH2 0x27FE JUMP JUMPDEST PUSH2 0x96F JUMP JUMPDEST STOP JUMPDEST CALLVALUE DUP1 ISZERO PUSH2 0x312 JUMPI PUSH0 DUP1 REVERT JUMPDEST POP PUSH2 0x31B PUSH2 0xB16 JUMP JUMPDEST PUSH1 0x40 MLOAD PUSH2 0x328 SWAP2 SWAP1 PUSH2 0x286A JUMP JUMPDEST PUSH1 0x40 MLOAD DUP1 SWAP2 SUB SWAP1 RETURN JUMPDEST CALLVALUE DUP1 ISZERO PUSH2 0x33C JUMPI PUSH0 DUP1 REVERT JUMPDEST POP PUSH2 0x345 PUSH2 0xB1C JUMP JUMPDEST PUSH1 0x40 MLOAD PUSH2 0x352 SWAP2 SWAP1 PUSH2 0x286A JUMP JUMPDEST PUSH1 0x40 MLOAD DUP1 SWAP2 SUB SWAP1 RETURN JUMPDEST CALLVALUE DUP1 ISZERO PUSH2 0x366 JUMPI PUSH0 DUP1 REVERT JUMPDEST POP PUSH2 0x36F PUSH2 0xB22 JUMP JUMPDEST PUSH1 0x40 MLOAD PUSH2 0x37C SWAP2 SWAP1 PUSH2 0x2892 JUMP JUMPDEST PUSH1 0x40 MLOAD DUP1 SWAP2 SUB SWAP1 RETURN JUMPDEST CALLVALUE DUP1 ISZERO PUSH2 0x390 JUMPI PUSH0 DUP1 REVERT JUMPDEST POP PUSH2 0x3AB PUSH1 0x4 DUP1 CALLDATASIZE SUB DUP2 ADD SWAP1 PUSH2 0x3A6 SWAP2 SWAP1 PUSH2 0x28D5 JUMP JUMPDEST PUSH2 0xB47 JUMP JUMPDEST PUSH1 0x40 MLOAD PUSH2 0x3B8 SWAP2 SWAP1 PUSH2 0x2608 JUMP JUMPDEST PUSH1 0x40 MLOAD DUP1 SWAP2 SUB SWAP1 RETURN JUMPDEST CALLVALUE DUP1 ISZERO PUSH2 0x3CC JUMPI PUSH0 DUP1 REVERT JUMPDEST POP PUSH2 0x3E7 PUSH1 0x4 DUP1 CALLDATASIZE SUB DUP2 ADD SWAP1 PUSH2 0x3E2 SWAP2 SWAP1 PUSH2 0x273F JUMP JUMPDEST PUSH2 0xB71 JUMP JUMPDEST STOP JUMPDEST CALLVALUE DUP1 ISZERO PUSH2 0x3F4 JUMPI PUSH0 DUP1 REVERT JUMPDEST POP PUSH2 0x40F PUSH1 0x4 DUP1 CALLDATASIZE SUB DUP2 ADD SWAP1 PUSH2 0x40A SWAP2 SWAP1 PUSH2 0x273F JUMP JUMPDEST PUSH2 0xC18 JUMP JUMPDEST STOP JUMPDEST CALLVALUE DUP1 ISZERO PUSH2 0x41C JUMPI PUSH0 DUP1 REVERT JUMPDEST POP PUSH2 0x437 PUSH1 0x4 DUP1 CALLDATASIZE SUB DUP2 ADD SWAP1 PUSH2 0x432 SWAP2 SWAP1 PUSH2 0x2900 JUMP JUMPDEST PUSH2 0xC8A JUMP JUMPDEST STOP JUMPDEST PUSH2 0x453 PUSH1 0x4 DUP1 CALLDATASIZE SUB DUP2 ADD SWAP1 PUSH2 0x44E SWAP2 SWAP1 PUSH2 0x293E JUMP JUMPDEST PUSH2 0xCAC JUMP JUMPDEST STOP JUMPDEST CALLVALUE DUP1 ISZERO PUSH2 0x460 JUMPI PUSH0 DUP1 REVERT JUMPDEST POP PUSH2 0x47B PUSH1 0x4 DUP1 CALLDATASIZE SUB DUP2 ADD SWAP1 PUSH2 0x476 SWAP2 SWAP1 PUSH2 0x2900 JUMP JUMPDEST PUSH2 0xF9F JUMP JUMPDEST STOP JUMPDEST CALLVALUE DUP1 ISZERO PUSH2 0x488 JUMPI PUSH0 DUP1 REVERT JUMPDEST POP PUSH2 0x4A3 PUSH1 0x4 DUP1 CALLDATASIZE SUB DUP2 ADD SWAP1 PUSH2 0x49E SWAP2 SWAP1 PUSH2 0x273F JUMP JUMPDEST PUSH2 0x101A JUMP JUMPDEST PUSH1 0x40 MLOAD PUSH2 0x4B0 SWAP2 SWAP1 PUSH2 0x286A JUMP JUMPDEST PUSH1 0x40 MLOAD DUP1 SWAP2 SUB SWAP1 RETURN JUMPDEST CALLVALUE DUP1 ISZERO PUSH2 0x4C4 JUMPI PUSH0 DUP1 REVERT JUMPDEST POP PUSH2 0x4CD PUSH2 0x102F JUMP JUMPDEST STOP JUMPDEST CALLVALUE DUP1 ISZERO PUSH2 0x4DA JUMPI PUSH0 DUP1 REVERT JUMPDEST POP PUSH2 0x4E3 PUSH2 0x10FE JUMP JUMPDEST STOP JUMPDEST CALLVALUE DUP1 ISZERO PUSH2 0x4F0 JUMPI PUSH0 DUP1 REVERT JUMPDEST POP PUSH2 0x50B PUSH1 0x4 DUP1 CALLDATASIZE SUB DUP2 ADD SWAP1 PUSH2 0x506 SWAP2 SWAP1 PUSH2 0x273F JUMP JUMPDEST PUSH2 0x1133 JUMP JUMPDEST STOP JUMPDEST CALLVALUE DUP1 ISZERO PUSH2 0x518 JUMPI PUSH0 DUP1 REVERT JUMPDEST POP PUSH2 0x533 PUSH1 0x4 DUP1 CALLDATASIZE SUB DUP2 ADD SWAP1 PUSH2 0x52E SWAP2 SWAP1 PUSH2 0x273F JUMP JUMPDEST PUSH2 0x11A5 JUMP JUMPDEST PUSH1 0x40 MLOAD PUSH2 0x540 SWAP2 SWAP1 PUSH2 0x286A JUMP JUMPDEST PUSH1 0x40 MLOAD DUP1 SWAP2 SUB SWAP1 RETURN JUMPDEST CALLVALUE DUP1 ISZERO PUSH2 0x554 JUMPI PUSH0 DUP1 REVERT JUMPDEST POP PUSH2 0x56F PUSH1 0x4 DUP1 CALLDATASIZE SUB DUP2 ADD SWAP1 PUSH2 0x56A SWAP2 SWAP1 PUSH2 0x2969 JUMP JUMPDEST PUSH2 0x11BA JUMP JUMPDEST STOP JUMPDEST CALLVALUE DUP1 ISZERO PUSH2 0x57C JUMPI PUSH0 DUP1 REVERT JUMPDEST POP PUSH2 0x585 PUSH2 0x1440 JUMP JUMPDEST PUSH1 0x40 MLOAD PUSH2 0x592 SWAP2 SWAP1 PUSH2 0x2892 JUMP JUMPDEST PUSH1 0x40 MLOAD DUP1 SWAP2 SUB SWAP1 RETURN JUMPDEST PUSH2 0x5B5 PUSH1 0x4 DUP1 CALLDATASIZE SUB DUP2 ADD SWAP1 PUSH2 0x5B0 SWAP2 SWAP1 PUSH2 0x2B7A JUMP JUMPDEST PUSH2 0x1463 JUMP JUMPDEST STOP JUMPDEST CALLVALUE DUP1 ISZERO PUSH2 0x5C2 JUMPI PUSH0 DUP1 REVERT JUMPDEST POP PUSH2 0x5CB PUSH2 0x1482 JUMP JUMPDEST PUSH1 0x40 MLOAD PUSH2 0x5D8 SWAP2 SWAP1 PUSH2 0x2608 JUMP JUMPDEST PUSH1 0x40 MLOAD DUP1 SWAP2 SUB SWAP1 RETURN JUMPDEST CALLVALUE DUP1 ISZERO PUSH2 0x5EC JUMPI PUSH0 DUP1 REVERT JUMPDEST POP PUSH2 0x607 PUSH1 0x4 DUP1 CALLDATASIZE SUB DUP2 ADD SWAP1 PUSH2 0x602 SWAP2 SWAP1 PUSH2 0x273F JUMP JUMPDEST PUSH2 0x14B3 JUMP JUMPDEST STOP JUMPDEST CALLVALUE DUP1 ISZERO PUSH2 0x614 JUMPI PUSH0 DUP1 REVERT JUMPDEST POP PUSH2 0x61D PUSH2 0x1525 JUMP JUMPDEST PUSH1 0x40 MLOAD PUSH2 0x62A SWAP2 SWAP1 PUSH2 0x26CC JUMP JUMPDEST PUSH1 0x40 MLOAD DUP1 SWAP2 SUB SWAP1 RETURN JUMPDEST CALLVALUE DUP1 ISZERO PUSH2 0x63E JUMPI PUSH0 DUP1 REVERT JUMPDEST POP PUSH2 0x647 PUSH2 0x1547 JUMP JUMPDEST PUSH1 0x40 MLOAD PUSH2 0x654 SWAP2 SWAP1 PUSH2 0x2608 JUMP JUMPDEST PUSH1 0x40 MLOAD DUP1 SWAP2 SUB SWAP1 RETURN JUMPDEST CALLVALUE DUP1 ISZERO PUSH2 0x668 JUMPI PUSH0 DUP1 REVERT JUMPDEST POP PUSH2 0x683 PUSH1 0x4 DUP1 CALLDATASIZE SUB DUP2 ADD SWAP1 PUSH2 0x67E SWAP2 SWAP1 PUSH2 0x273F JUMP JUMPDEST PUSH2 0x156B JUMP JUMPDEST STOP JUMPDEST CALLVALUE DUP1 ISZERO PUSH2 0x690 JUMPI PUSH0 DUP1 REVERT JUMPDEST POP PUSH2 0x699 PUSH2 0x1613 JUMP JUMPDEST PUSH1 0x40 MLOAD PUSH2 0x6A6 SWAP2 SWAP1 PUSH2 0x286A JUMP JUMPDEST PUSH1 0x40 MLOAD DUP1 SWAP2 SUB SWAP1 RETURN JUMPDEST CALLVALUE DUP1 ISZERO PUSH2 0x6BA JUMPI PUSH0 DUP1 REVERT JUMPDEST POP PUSH2 0x6C3 PUSH2 0x1619 JUMP JUMPDEST STOP JUMPDEST CALLVALUE DUP1 ISZERO PUSH2 0x6D0 JUMPI PUSH0 DUP1 REVERT JUMPDEST POP PUSH2 0x6EB PUSH1 0x4 DUP1 CALLDATASIZE SUB DUP2 ADD SWAP1 PUSH2 0x6E6 SWAP2 SWAP1 PUSH2 0x2900 JUMP JUMPDEST PUSH2 0x164E JUMP JUMPDEST PUSH1 0x40 MLOAD PUSH2 0x6F8 SWAP2 SWAP1 PUSH2 0x26CC JUMP JUMPDEST PUSH1 0x40 MLOAD DUP1 SWAP2 SUB SWAP1 RETURN JUMPDEST CALLVALUE DUP1 ISZERO PUSH2 0x70C JUMPI PUSH0 DUP1 REVERT JUMPDEST POP PUSH2 0x715 PUSH2 0x16BF JUMP JUMPDEST PUSH1 0x40 MLOAD PUSH2 0x722 SWAP2 SWAP1 PUSH2 0x2608 JUMP JUMPDEST PUSH1 0x40 MLOAD DUP1 SWAP2 SUB SWAP1 RETURN JUMPDEST CALLVALUE DUP1 ISZERO PUSH2 0x736 JUMPI PUSH0 DUP1 REVERT JUMPDEST POP PUSH2 0x73F PUSH2 0x16C5 JUMP JUMPDEST STOP JUMPDEST CALLVALUE DUP1 ISZERO PUSH2 0x74C JUMPI PUSH0 DUP1 REVERT JUMPDEST POP PUSH2 0x755 PUSH2 0x18CB JUMP JUMPDEST PUSH1 0x40 MLOAD PUSH2 0x762 SWAP2 SWAP1 PUSH2 0x2C34 JUMP JUMPDEST PUSH1 0x40 MLOAD DUP1 SWAP2 SUB SWAP1 RETURN JUMPDEST CALLVALUE DUP1 ISZERO PUSH2 0x776 JUMPI PUSH0 DUP1 REVERT JUMPDEST POP PUSH2 0x77F PUSH2 0x1904 JUMP JUMPDEST PUSH1 0x40 MLOAD PUSH2 0x78C SWAP2 SWAP1 PUSH2 0x286A JUMP JUMPDEST PUSH1 0x40 MLOAD DUP1 SWAP2 SUB SWAP1 RETURN JUMPDEST CALLVALUE DUP1 ISZERO PUSH2 0x7A0 JUMPI PUSH0 DUP1 REVERT JUMPDEST POP PUSH2 0x7A9 PUSH2 0x190A JUMP JUMPDEST PUSH1 0x40 MLOAD PUSH2 0x7B6 SWAP2 SWAP1 PUSH2 0x286A JUMP JUMPDEST PUSH1 0x40 MLOAD DUP1 SWAP2 SUB SWAP1 RETURN JUMPDEST CALLVALUE DUP1 ISZERO PUSH2 0x7CA JUMPI PUSH0 DUP1 REVERT JUMPDEST POP PUSH2 0x7E5 PUSH1 0x4 DUP1 CALLDATASIZE SUB DUP2 ADD SWAP1 PUSH2 0x7E0 SWAP2 SWAP1 PUSH2 0x2900 JUMP JUMPDEST PUSH2 0x1910 JUMP JUMPDEST STOP JUMPDEST CALLVALUE DUP1 ISZERO PUSH2 0x7F2 JUMPI PUSH0 DUP1 REVERT JUMPDEST POP PUSH2 0x80D PUSH1 0x4 DUP1 CALLDATASIZE SUB DUP2 ADD SWAP1 PUSH2 0x808 SWAP2 SWAP1 PUSH2 0x293E JUMP JUMPDEST PUSH2 0x1932 JUMP JUMPDEST STOP JUMPDEST CALLVALUE DUP1 ISZERO PUSH2 0x81A JUMPI PUSH0 DUP1 REVERT JUMPDEST POP PUSH2 0x823 PUSH2 0x1980 JUMP JUMPDEST PUSH1 0x40 MLOAD PUSH2 0x830 SWAP2 SWAP1 PUSH2 0x2608 JUMP JUMPDEST PUSH1 0x40 MLOAD DUP1 SWAP2 SUB SWAP1 RETURN JUMPDEST CALLVALUE DUP1 ISZERO PUSH2 0x844 JUMPI PUSH0 DUP1 REVERT JUMPDEST POP PUSH2 0x85F PUSH1 0x4 DUP1 CALLDATASIZE SUB DUP2 ADD SWAP1 PUSH2 0x85A SWAP2 SWAP1 PUSH2 0x273F JUMP JUMPDEST PUSH2 0x19A4 JUMP JUMPDEST STOP JUMPDEST CALLVALUE DUP1 ISZERO PUSH2 0x86C JUMPI PUSH0 DUP1 REVERT JUMPDEST POP PUSH2 0x875 PUSH2 0x1A16 JUMP JUMPDEST PUSH1 0x40 MLOAD PUSH2 0x882 SWAP2 SWAP1 PUSH2 0x2608 JUMP JUMPDEST PUSH1 0x40 MLOAD DUP1 SWAP2 SUB SWAP1 RETURN JUMPDEST CALLVALUE DUP1 ISZERO PUSH2 0x896 JUMPI PUSH0 DUP1 REVERT JUMPDEST POP PUSH2 0x89F PUSH2 0x1A3A JUMP JUMPDEST PUSH1 0x40 MLOAD PUSH2 0x8AC SWAP2 SWAP1 PUSH2 0x2CAF JUMP JUMPDEST PUSH1 0x40 MLOAD DUP1 SWAP2 SUB SWAP1 RETURN JUMPDEST PUSH32 0x60C5CFBA52C4B504F7C252E725C10AEA67BFD5E3972BD12EA427F6A9742E6DBE DUP2 JUMP JUMPDEST PUSH0 PUSH32 0x7965DB0B00000000000000000000000000000000000000000000000000000000 PUSH28 0xFFFFFFFFFFFFFFFFFFFFFFFFFFFFFFFFFFFFFFFFFFFFFFFFFFFFFFFF NOT AND DUP3 PUSH28 0xFFFFFFFFFFFFFFFFFFFFFFFFFFFFFFFFFFFFFFFFFFFFFFFFFFFFFFFF NOT AND EQ DUP1 PUSH2 0x94B JUMPI POP PUSH2 0x94A DUP3 PUSH2 0x1A5F JUMP JUMPDEST JUMPDEST SWAP1 POP SWAP2 SWAP1 POP JUMP JUMPDEST PUSH1 0x8 PUSH1 0x20 MSTORE DUP1 PUSH0 MSTORE PUSH1 0x40 PUSH0 KECCAK256 PUSH0 SWAP2 POP SLOAD SWAP1 PUSH2 0x100 EXP SWAP1 DIV PUSH1 0xFF AND DUP2 JUMP JUMPDEST PUSH0 DUP1 SHL PUSH2 0x97B DUP2 PUSH2 0x1AC8 JUMP JUMPDEST PUSH1 0x40 MLOAD PUSH1 0x20 ADD PUSH2 0x98A SWAP1 PUSH2 0x2D1C JUMP JUMPDEST PUSH1 0x40 MLOAD PUSH1 0x20 DUP2 DUP4 SUB SUB DUP2 MSTORE SWAP1 PUSH1 0x40 MSTORE DUP1 MLOAD SWAP1 PUSH1 0x20 ADD KECCAK256 DUP4 DUP4 PUSH1 0x40 MLOAD PUSH1 0x20 ADD PUSH2 0x9B3 SWAP3 SWAP2 SWAP1 PUSH2 0x2D54 JUMP JUMPDEST PUSH1 0x40 MLOAD PUSH1 0x20 DUP2 DUP4 SUB SUB DUP2 MSTORE SWAP1 PUSH1 0x40 MSTORE DUP1 MLOAD SWAP1 PUSH1 0x20 ADD KECCAK256 SUB PUSH2 0x9DA JUMPI DUP4 PUSH1 0x1 DUP2 SWAP1 SSTORE POP PUSH2 0xAD5 JUMP JUMPDEST PUSH1 0x40 MLOAD PUSH1 0x20 ADD PUSH2 0x9E9 SWAP1 PUSH2 0x2DB6 JUMP JUMPDEST PUSH1 0x40 MLOAD PUSH1 0x20 DUP2 DUP4 SUB SUB DUP2 MSTORE SWAP1 PUSH1 0x40 MSTORE DUP1 MLOAD SWAP1 PUSH1 0x20 ADD KECCAK256 DUP4 DUP4 PUSH1 0x40 MLOAD PUSH1 0x20 ADD PUSH2 0xA12 SWAP3 SWAP2 SWAP1 PUSH2 0x2D54 JUMP JUMPDEST PUSH1 0x40 MLOAD PUSH1 0x20 DUP2 DUP4 SUB SUB DUP2 MSTORE SWAP1 PUSH1 0x40 MSTORE DUP1 MLOAD SWAP1 PUSH1 0x20 ADD KECCAK256 SUB PUSH2 0xA39 JUMPI DUP4 PUSH1 0x2 DUP2 SWAP1 SSTORE POP PUSH2 0xAD4 JUMP JUMPDEST PUSH1 0x40 MLOAD PUSH1 0x20 ADD PUSH2 0xA48 SWAP1 PUSH2 0x2E14 JUMP JUMPDEST PUSH1 0x40 MLOAD PUSH1 0x20 DUP2 DUP4 SUB SUB DUP2 MSTORE SWAP1 PUSH1 0x40 MSTORE DUP1 MLOAD SWAP1 PUSH1 0x20 ADD KECCAK256 DUP4 DUP4 PUSH1 0x40 MLOAD PUSH1 0x20 ADD PUSH2 0xA71 SWAP3 SWAP2 SWAP1 PUSH2 0x2D54 JUMP JUMPDEST PUSH1 0x40 MLOAD PUSH1 0x20 DUP2 DUP4 SUB SUB DUP2 MSTORE SWAP1 PUSH1 0x40 MSTORE DUP1 MLOAD SWAP1 PUSH1 0x20 ADD KECCAK256 SUB PUSH2 0xA98 JUMPI DUP4 PUSH1 0x3 DUP2 SWAP1 SSTORE POP PUSH2 0xAD3 JUMP JUMPDEST PUSH1 0x40 MLOAD PUSH32 0x8C379A000000000000000000000000000000000000000000000000000000000 DUP2 MSTORE PUSH1 0x4 ADD PUSH2 0xACA SWAP1 PUSH2 0x2E72 JUMP JUMPDEST PUSH1 0x40 MLOAD DUP1 SWAP2 SUB SWAP1 REVERT JUMPDEST JUMPDEST JUMPDEST PUSH32 0xEB965A01DCF45C018906EFC8417EE684FC308FE125C2C16698E677FD058BFE48 DUP5 DUP5 DUP5 PUSH1 0x40 MLOAD PUSH2 0xB08 SWAP4 SWAP3 SWAP2 SWAP1 PUSH2 0x2EBC JUMP JUMPDEST PUSH1 0x40 MLOAD DUP1 SWAP2 SUB SWAP1 LOG1 POP POP POP POP JUMP JUMPDEST PUSH1 0x2 SLOAD DUP2 JUMP JUMPDEST PUSH1 0x4 SLOAD DUP2 JUMP JUMPDEST PUSH1 0xA PUSH0 SWAP1 SLOAD SWAP1 PUSH2 0x100 EXP SWAP1 DIV PUSH20 0xFFFFFFFFFFFFFFFFFFFFFFFFFFFFFFFFFFFFFFFF AND DUP2 JUMP JUMPDEST PUSH0 DUP1 PUSH2 0xB51 PUSH2 0x1ADC JUMP JUMPDEST SWAP1 POP DUP1 PUSH0 ADD PUSH0 DUP5 DUP2 MSTORE PUSH1 0x20 ADD SWAP1 DUP2 MSTORE PUSH1 0x20 ADD PUSH0 KECCAK256 PUSH1 0x1 ADD SLOAD SWAP2 POP POP SWAP2 SWAP1 POP JUMP JUMPDEST PUSH0 DUP1 SHL PUSH2 0xB7D DUP2 PUSH2 0x1AC8 JUMP JUMPDEST PUSH0 PUSH1 0x8 PUSH0 DUP5 PUSH20 0xFFFFFFFFFFFFFFFFFFFFFFFFFFFFFFFFFFFFFFFF AND PUSH20 0xFFFFFFFFFFFFFFFFFFFFFFFFFFFFFFFFFFFFFFFF AND DUP2 MSTORE PUSH1 0x20 ADD SWAP1 DUP2 MSTORE PUSH1 0x20 ADD PUSH0 KECCAK256 PUSH0 PUSH2 0x100 EXP DUP2 SLOAD DUP2 PUSH1 0xFF MUL NOT AND SWAP1 DUP4 ISZERO ISZERO MUL OR SWAP1 SSTORE POP DUP2 PUSH20 0xFFFFFFFFFFFFFFFFFFFFFFFFFFFFFFFFFFFFFFFF AND PUSH32 0x535611FB62FA2A833988F283B779E417E996813E44046F521D76C17B5943B08C PUSH1 0x40 MLOAD PUSH1 0x40 MLOAD DUP1 SWAP2 SUB SWAP1 LOG2 POP POP JUMP JUMPDEST PUSH0 DUP1 SHL PUSH2 0xC24 DUP2 PUSH2 0x1AC8 JUMP JUMPDEST PUSH2 0xC4E PUSH32 0x60C5CFBA52C4B504F7C252E725C10AEA67BFD5E3972BD12EA427F6A9742E6DBE DUP4 PUSH2 0x1B03 JUMP JUMPDEST POP PUSH32 0xA22F826CFA669B4680F0CA673F9E9021392CFE223EF797FAF4005F9C8DC4D14B DUP3 PUSH1 0x40 MLOAD PUSH2 0xC7E SWAP2 SWAP1 PUSH2 0x2892 JUMP JUMPDEST PUSH1 0x40 MLOAD DUP1 SWAP2 SUB SWAP1 LOG1 POP POP JUMP JUMPDEST PUSH2 0xC93 DUP3 PUSH2 0xB47 JUMP JUMPDEST PUSH2 0xC9C DUP2 PUSH2 0x1AC8 JUMP JUMPDEST PUSH2 0xCA6 DUP4 DUP4 PUSH2 0x1BFB JUMP JUMPDEST POP POP POP POP JUMP JUMPDEST PUSH2 0xCB4 PUSH2 0x1CF3 JUMP JUMPDEST PUSH1 0x8 PUSH0 CALLER PUSH20 0xFFFFFFFFFFFFFFFFFFFFFFFFFFFFFFFFFFFFFFFF AND PUSH20 0xFFFFFFFFFFFFFFFFFFFFFFFFFFFFFFFFFFFFFFFF AND DUP2 MSTORE PUSH1 0x20 ADD SWAP1 DUP2 MSTORE PUSH1 0x20 ADD PUSH0 KECCAK256 PUSH0 SWAP1 SLOAD SWAP1 PUSH2 0x100 EXP SWAP1 DIV PUSH1 0xFF AND PUSH2 0xD3D JUMPI PUSH1 0x40 MLOAD PUSH32 0x8C379A000000000000000000000000000000000000000000000000000000000 DUP2 MSTORE PUSH1 0x4 ADD PUSH2 0xD34 SWAP1 PUSH2 0x2F36 JUMP JUMPDEST PUSH1 0x40 MLOAD DUP1 SWAP2 SUB SWAP1 REVERT JUMPDEST PUSH0 PUSH2 0xD68 PUSH32 0xB165298935924F540E4181C03493A5D686C54A0AAEB3F6216DE85B7FFBBA7738 CALLER PUSH2 0x164E JUMP JUMPDEST ISZERO PUSH2 0xD82 JUMPI PUSH1 0x1 SLOAD DUP3 PUSH2 0xD7B SWAP2 SWAP1 PUSH2 0x2F81 JUMP JUMPDEST SWAP1 POP PUSH2 0xDD8 JUMP JUMPDEST PUSH2 0xDAC PUSH32 0x60C5CFBA52C4B504F7C252E725C10AEA67BFD5E3972BD12EA427F6A9742E6DBE CALLER PUSH2 0x164E JUMP JUMPDEST ISZERO PUSH2 0xDC6 JUMPI PUSH1 0x2 SLOAD DUP3 PUSH2 0xDBF SWAP2 SWAP1 PUSH2 0x2F81 JUMP JUMPDEST SWAP1 POP PUSH2 0xDD7 JUMP JUMPDEST PUSH1 0x3 SLOAD DUP3 PUSH2 0xDD4 SWAP2 SWAP1 PUSH2 0x2F81 JUMP JUMPDEST SWAP1 POP JUMPDEST JUMPDEST DUP1 CALLVALUE EQ PUSH2 0xE1A JUMPI PUSH1 0x40 MLOAD PUSH32 0x8C379A000000000000000000000000000000000000000000000000000000000 DUP2 MSTORE PUSH1 0x4 ADD PUSH2 0xE11 SWAP1 PUSH2 0x300C JUMP JUMPDEST PUSH1 0x40 MLOAD DUP1 SWAP2 SUB SWAP1 REVERT JUMPDEST PUSH1 0x4 SLOAD DUP3 PUSH1 0x6 PUSH0 CALLER PUSH20 0xFFFFFFFFFFFFFFFFFFFFFFFFFFFFFFFFFFFFFFFF AND PUSH20 0xFFFFFFFFFFFFFFFFFFFFFFFFFFFFFFFFFFFFFFFF AND DUP2 MSTORE PUSH1 0x20 ADD SWAP1 DUP2 MSTORE PUSH1 0x20 ADD PUSH0 KECCAK256 SLOAD PUSH2 0xE66 SWAP2 SWAP1 PUSH2 0x302A JUMP JUMPDEST GT ISZERO PUSH2 0xEA7 JUMPI PUSH1 0x40 MLOAD PUSH32 0x8C379A000000000000000000000000000000000000000000000000000000000 DUP2 MSTORE PUSH1 0x4 ADD PUSH2 0xE9E SWAP1 PUSH2 0x30A7 JUMP JUMPDEST PUSH1 0x40 MLOAD DUP1 SWAP2 SUB SWAP1 REVERT JUMPDEST DUP2 PUSH1 0x6 PUSH0 CALLER PUSH20 0xFFFFFFFFFFFFFFFFFFFFFFFFFFFFFFFFFFFFFFFF AND PUSH20 0xFFFFFFFFFFFFFFFFFFFFFFFFFFFFFFFFFFFFFFFF AND DUP2 MSTORE PUSH1 0x20 ADD SWAP1 DUP2 MSTORE PUSH1 0x20 ADD PUSH0 KECCAK256 PUSH0 DUP3 DUP3 SLOAD PUSH2 0xEF3 SWAP2 SWAP1 PUSH2 0x302A JUMP JUMPDEST SWAP3 POP POP DUP2 SWAP1 SSTORE POP DUP2 PUSH1 0x7 PUSH0 CALLER PUSH20 0xFFFFFFFFFFFFFFFFFFFFFFFFFFFFFFFFFFFFFFFF AND PUSH20 0xFFFFFFFFFFFFFFFFFFFFFFFFFFFFFFFFFFFFFFFF AND DUP2 MSTORE PUSH1 0x20 ADD SWAP1 DUP2 MSTORE PUSH1 0x20 ADD PUSH0 KECCAK256 PUSH0 DUP3 DUP3 SLOAD PUSH2 0xF46 SWAP2 SWAP1 PUSH2 0x302A JUMP JUMPDEST SWAP3 POP POP DUP2 SWAP1 SSTORE POP CALLER PUSH20 0xFFFFFFFFFFFFFFFFFFFFFFFFFFFFFFFFFFFFFFFF AND PUSH32 0x8F28852646C20CC973D3A8218F7EEFED58C25C909F78F0265AF4818C3D4DC271 DUP4 PUSH1 0x40 MLOAD PUSH2 0xF93 SWAP2 SWAP1 PUSH2 0x286A JUMP JUMPDEST PUSH1 0x40 MLOAD DUP1 SWAP2 SUB SWAP1 LOG2 POP POP JUMP JUMPDEST PUSH2 0xFA7 PUSH2 0x1D34 JUMP JUMPDEST PUSH20 0xFFFFFFFFFFFFFFFFFFFFFFFFFFFFFFFFFFFFFFFF AND DUP2 PUSH20 0xFFFFFFFFFFFFFFFFFFFFFFFFFFFFFFFFFFFFFFFF AND EQ PUSH2 0x100B JUMPI PUSH1 0x40 MLOAD PUSH32 0x6697B23200000000000000000000000000000000000000000000000000000000 DUP2 MSTORE PUSH1 0x4 ADD PUSH1 0x40 MLOAD DUP1 SWAP2 SUB SWAP1 REVERT JUMPDEST PUSH2 0x1015 DUP3 DUP3 PUSH2 0x1B03 JUMP JUMPDEST POP POP POP JUMP JUMPDEST PUSH1 0x7 PUSH1 0x20 MSTORE DUP1 PUSH0 MSTORE PUSH1 0x40 PUSH0 KECCAK256 PUSH0 SWAP2 POP SWAP1 POP SLOAD DUP2 JUMP JUMPDEST PUSH0 DUP1 SHL PUSH2 0x103B DUP2 PUSH2 0x1AC8 JUMP JUMPDEST PUSH0 SELFBALANCE SWAP1 POP PUSH0 DUP1 SLOAD SWAP1 PUSH2 0x100 EXP SWAP1 DIV PUSH20 0xFFFFFFFFFFFFFFFFFFFFFFFFFFFFFFFFFFFFFFFF AND PUSH20 0xFFFFFFFFFFFFFFFFFFFFFFFFFFFFFFFFFFFFFFFF AND PUSH2 0x8FC DUP3 SWAP1 DUP2 ISZERO MUL SWAP1 PUSH1 0x40 MLOAD PUSH0 PUSH1 0x40 MLOAD DUP1 DUP4 SUB DUP2 DUP6 DUP9 DUP9 CALL SWAP4 POP POP POP POP ISZERO DUP1 ISZERO PUSH2 0x10A1 JUMPI RETURNDATASIZE PUSH0 DUP1 RETURNDATACOPY RETURNDATASIZE PUSH0 REVERT JUMPDEST POP PUSH32 0xEAFF4B37086828766AD3268786972C0CD24259D4C87A80F9D3963A3C3D999B0D PUSH0 DUP1 SLOAD SWAP1 PUSH2 0x100 EXP SWAP1 DIV PUSH20 0xFFFFFFFFFFFFFFFFFFFFFFFFFFFFFFFFFFFFFFFF AND DUP3 PUSH1 0x40 MLOAD PUSH2 0x10F2 SWAP3 SWAP2 SWAP1 PUSH2 0x30C5 JUMP JUMPDEST PUSH1 0x40 MLOAD DUP1 SWAP2 SUB SWAP1 LOG1 POP POP JUMP JUMPDEST PUSH32 0x65D7A28E3265B37A6474929F336521B332C1681B933F6CB9F3376673440D862A PUSH2 0x1128 DUP2 PUSH2 0x1AC8 JUMP JUMPDEST PUSH2 0x1130 PUSH2 0x1D3B JUMP JUMPDEST POP JUMP JUMPDEST PUSH0 DUP1 SHL PUSH2 0x113F DUP2 PUSH2 0x1AC8 JUMP JUMPDEST PUSH2 0x1169 PUSH32 0xB165298935924F540E4181C03493A5D686C54A0AAEB3F6216DE85B7FFBBA7738 DUP4 PUSH2 0x1B03 JUMP JUMPDEST POP PUSH32 0xBA0013628CCB89AF5BB18EDF764D3A7B35C07B894848B8E6FD3434719DE39C7D DUP3 PUSH1 0x40 MLOAD PUSH2 0x1199 SWAP2 SWAP1 PUSH2 0x2892 JUMP JUMPDEST PUSH1 0x40 MLOAD DUP1 SWAP2 SUB SWAP1 LOG1 POP POP JUMP JUMPDEST PUSH1 0x6 PUSH1 0x20 MSTORE DUP1 PUSH0 MSTORE PUSH1 0x40 PUSH0 KECCAK256 PUSH0 SWAP2 POP SWAP1 POP SLOAD DUP2 JUMP JUMPDEST PUSH0 PUSH2 0x11C3 PUSH2 0x1DA9 JUMP JUMPDEST SWAP1 POP PUSH0 DUP2 PUSH0 ADD PUSH1 0x8 SWAP1 SLOAD SWAP1 PUSH2 0x100 EXP SWAP1 DIV PUSH1 0xFF AND ISZERO SWAP1 POP PUSH0 DUP3 PUSH0 ADD PUSH0 SWAP1 SLOAD SWAP1 PUSH2 0x100 EXP SWAP1 DIV PUSH8 0xFFFFFFFFFFFFFFFF AND SWAP1 POP PUSH0 DUP1 DUP3 PUSH8 0xFFFFFFFFFFFFFFFF AND EQ DUP1 ISZERO PUSH2 0x120B JUMPI POP DUP3 JUMPDEST SWAP1 POP PUSH0 PUSH1 0x1 DUP4 PUSH8 0xFFFFFFFFFFFFFFFF AND EQ DUP1 ISZERO PUSH2 0x123E JUMPI POP PUSH0 ADDRESS PUSH20 0xFFFFFFFFFFFFFFFFFFFFFFFFFFFFFFFFFFFFFFFF AND EXTCODESIZE EQ JUMPDEST SWAP1 POP DUP2 ISZERO DUP1 ISZERO PUSH2 0x124C JUMPI POP DUP1 ISZERO JUMPDEST ISZERO PUSH2 0x1283 JUMPI PUSH1 0x40 MLOAD PUSH32 0xF92EE8A900000000000000000000000000000000000000000000000000000000 DUP2 MSTORE PUSH1 0x4 ADD PUSH1 0x40 MLOAD DUP1 SWAP2 SUB SWAP1 REVERT JUMPDEST PUSH1 0x1 DUP6 PUSH0 ADD PUSH0 PUSH2 0x100 EXP DUP2 SLOAD DUP2 PUSH8 0xFFFFFFFFFFFFFFFF MUL NOT AND SWAP1 DUP4 PUSH8 0xFFFFFFFFFFFFFFFF AND MUL OR SWAP1 SSTORE POP DUP4 ISZERO PUSH2 0x12D0 JUMPI PUSH1 0x1 DUP6 PUSH0 ADD PUSH1 0x8 PUSH2 0x100 EXP DUP2 SLOAD DUP2 PUSH1 0xFF MUL NOT AND SWAP1 DUP4 ISZERO ISZERO MUL OR SWAP1 SSTORE POP JUMPDEST PUSH2 0x12D8 PUSH2 0x1DD0 JUMP JUMPDEST PUSH2 0x12E0 PUSH2 0x1DE2 JUMP JUMPDEST PUSH2 0x12E8 PUSH2 0x1DEC JUMP JUMPDEST PUSH2 0x12F3 DUP16 DUP16 DUP16 PUSH2 0x1DF6 JUMP JUMPDEST CALLER PUSH0 DUP1 PUSH2 0x100 EXP DUP2 SLOAD DUP2 PUSH20 0xFFFFFFFFFFFFFFFFFFFFFFFFFFFFFFFFFFFFFFFF MUL NOT AND SWAP1 DUP4 PUSH20 0xFFFFFFFFFFFFFFFFFFFFFFFFFFFFFFFFFFFFFFFF AND MUL OR SWAP1 SSTORE POP DUP12 PUSH1 0x9 PUSH0 PUSH2 0x100 EXP DUP2 SLOAD DUP2 PUSH20 0xFFFFFFFFFFFFFFFFFFFFFFFFFFFFFFFFFFFFFFFF MUL NOT AND SWAP1 DUP4 PUSH20 0xFFFFFFFFFFFFFFFFFFFFFFFFFFFFFFFFFFFFFFFF AND MUL OR SWAP1 SSTORE POP DUP11 PUSH1 0xA PUSH0 PUSH2 0x100 EXP DUP2 SLOAD DUP2 PUSH20 0xFFFFFFFFFFFFFFFFFFFFFFFFFFFFFFFFFFFFFFFF MUL NOT AND SWAP1 DUP4 PUSH20 0xFFFFFFFFFFFFFFFFFFFFFFFFFFFFFFFFFFFFFFFF AND MUL OR SWAP1 SSTORE POP DUP10 PUSH1 0x1 DUP2 SWAP1 SSTORE POP DUP9 PUSH1 0x2 DUP2 SWAP1 SSTORE POP DUP8 PUSH1 0x3 DUP2 SWAP1 SSTORE POP DUP7 PUSH1 0x4 DUP2 SWAP1 SSTORE POP DUP6 PUSH1 0x5 DUP2 SWAP1 SSTORE POP DUP4 ISZERO PUSH2 0x142F JUMPI PUSH0 DUP6 PUSH0 ADD PUSH1 0x8 PUSH2 0x100 EXP DUP2 SLOAD DUP2 PUSH1 0xFF MUL NOT AND SWAP1 DUP4 ISZERO ISZERO MUL OR SWAP1 SSTORE POP PUSH32 0xC7F505B2F371AE2175EE4913F4499E1F2633A7B5936321EED1CDAEB6115181D2 PUSH1 0x1 PUSH1 0x40 MLOAD PUSH2 0x1426 SWAP2 SWAP1 PUSH2 0x3138 JUMP JUMPDEST PUSH1 0x40 MLOAD DUP1 SWAP2 SUB SWAP1 LOG1 JUMPDEST POP POP POP POP POP POP POP POP POP POP POP POP POP POP POP JUMP JUMPDEST PUSH0 DUP1 SLOAD SWAP1 PUSH2 0x100 EXP SWAP1 DIV PUSH20 0xFFFFFFFFFFFFFFFFFFFFFFFFFFFFFFFFFFFFFFFF AND DUP2 JUMP JUMPDEST PUSH2 0x146B PUSH2 0x1E5E JUMP JUMPDEST PUSH2 0x1474 DUP3 PUSH2 0x1F44 JUMP JUMPDEST PUSH2 0x147E DUP3 DUP3 PUSH2 0x1F72 JUMP JUMPDEST POP POP JUMP JUMPDEST PUSH0 PUSH2 0x148B PUSH2 0x2090 JUMP JUMPDEST PUSH32 0x360894A13BA1A3210667C828492DB98DCA3E2076CC3735A920A3CA505D382BBC PUSH0 SHL SWAP1 POP SWAP1 JUMP JUMPDEST PUSH0 DUP1 SHL PUSH2 0x14BF DUP2 PUSH2 0x1AC8 JUMP JUMPDEST PUSH2 0x14E9 PUSH32 0x60C5CFBA52C4B504F7C252E725C10AEA67BFD5E3972BD12EA427F6A9742E6DBE DUP4 PUSH2 0x1BFB JUMP JUMPDEST POP PUSH32 0xA41A5DDBF02B01025C5AC32C2038F209EABE5DDB2A83444F2ACBFE9F91DC8827 DUP3 PUSH1 0x40 MLOAD PUSH2 0x1519 SWAP2 SWAP1 PUSH2 0x2892 JUMP JUMPDEST PUSH1 0x40 MLOAD DUP1 SWAP2 SUB SWAP1 LOG1 POP POP JUMP JUMPDEST PUSH0 DUP1 PUSH2 0x152F PUSH2 0x2117 JUMP JUMPDEST SWAP1 POP DUP1 PUSH0 ADD PUSH0 SWAP1 SLOAD SWAP1 PUSH2 0x100 EXP SWAP1 DIV PUSH1 0xFF AND SWAP2 POP POP SWAP1 JUMP JUMPDEST PUSH32 0xB165298935924F540E4181C03493A5D686C54A0AAEB3F6216DE85B7FFBBA7738 DUP2 JUMP JUMPDEST PUSH0 DUP1 SHL PUSH2 0x1577 DUP2 PUSH2 0x1AC8 JUMP JUMPDEST PUSH1 0x1 PUSH1 0x8 PUSH0 DUP5 PUSH20 0xFFFFFFFFFFFFFFFFFFFFFFFFFFFFFFFFFFFFFFFF AND PUSH20 0xFFFFFFFFFFFFFFFFFFFFFFFFFFFFFFFFFFFFFFFF AND DUP2 MSTORE PUSH1 0x20 ADD SWAP1 DUP2 MSTORE PUSH1 0x20 ADD PUSH0 KECCAK256 PUSH0 PUSH2 0x100 EXP DUP2 SLOAD DUP2 PUSH1 0xFF MUL NOT AND SWAP1 DUP4 ISZERO ISZERO MUL OR SWAP1 SSTORE POP DUP2 PUSH20 0xFFFFFFFFFFFFFFFFFFFFFFFFFFFFFFFFFFFFFFFF AND PUSH32 0x4F783C179409B4127238BC9C990BC99B9A651666A0D20B51D6C42849EB88466D PUSH1 0x40 MLOAD PUSH1 0x40 MLOAD DUP1 SWAP2 SUB SWAP1 LOG2 POP POP JUMP JUMPDEST PUSH1 0x3 SLOAD DUP2 JUMP JUMPDEST PUSH32 0x65D7A28E3265B37A6474929F336521B332C1681B933F6CB9F3376673440D862A PUSH2 0x1643 DUP2 PUSH2 0x1AC8 JUMP JUMPDEST PUSH2 0x164B PUSH2 0x213E JUMP JUMPDEST POP JUMP JUMPDEST PUSH0 DUP1 PUSH2 0x1658 PUSH2 0x1ADC JUMP JUMPDEST SWAP1 POP DUP1 PUSH0 ADD PUSH0 DUP6 DUP2 MSTORE PUSH1 0x20 ADD SWAP1 DUP2 MSTORE PUSH1 0x20 ADD PUSH0 KECCAK256 PUSH0 ADD PUSH0 DUP5 PUSH20 0xFFFFFFFFFFFFFFFFFFFFFFFFFFFFFFFFFFFFFFFF AND PUSH20 0xFFFFFFFFFFFFFFFFFFFFFFFFFFFFFFFFFFFFFFFF AND DUP2 MSTORE PUSH1 0x20 ADD SWAP1 DUP2 MSTORE PUSH1 0x20 ADD PUSH0 KECCAK256 PUSH0 SWAP1 SLOAD SWAP1 PUSH2 0x100 EXP SWAP1 DIV PUSH1 0xFF AND SWAP2 POP POP SWAP3 SWAP2 POP POP JUMP JUMPDEST PUSH0 DUP1 SHL DUP2 JUMP JUMPDEST PUSH1 0x5 SLOAD TIMESTAMP LT ISZERO PUSH2 0x170A JUMPI PUSH1 0x40 MLOAD PUSH32 0x8C379A000000000000000000000000000000000000000000000000000000000 DUP2 MSTORE PUSH1 0x4 ADD PUSH2 0x1701 SWAP1 PUSH2 0x31C1 JUMP JUMPDEST PUSH1 0x40 MLOAD DUP1 SWAP2 SUB SWAP1 REVERT JUMPDEST PUSH0 PUSH1 0x7 PUSH0 CALLER PUSH20 0xFFFFFFFFFFFFFFFFFFFFFFFFFFFFFFFFFFFFFFFF AND PUSH20 0xFFFFFFFFFFFFFFFFFFFFFFFFFFFFFFFFFFFFFFFF AND DUP2 MSTORE PUSH1 0x20 ADD SWAP1 DUP2 MSTORE PUSH1 0x20 ADD PUSH0 KECCAK256 SLOAD SWAP1 POP PUSH0 DUP2 GT PUSH2 0x178D JUMPI PUSH1 0x40 MLOAD PUSH32 0x8C379A000000000000000000000000000000000000000000000000000000000 DUP2 MSTORE PUSH1 0x4 ADD PUSH2 0x1784 SWAP1 PUSH2 0x3229 JUMP JUMPDEST PUSH1 0x40 MLOAD DUP1 SWAP2 SUB SWAP1 REVERT JUMPDEST PUSH0 PUSH1 0x7 PUSH0 CALLER PUSH20 0xFFFFFFFFFFFFFFFFFFFFFFFFFFFFFFFFFFFFFFFF AND PUSH20 0xFFFFFFFFFFFFFFFFFFFFFFFFFFFFFFFFFFFFFFFF AND DUP2 MSTORE PUSH1 0x20 ADD SWAP1 DUP2 MSTORE PUSH1 0x20 ADD PUSH0 KECCAK256 DUP2 SWAP1 SSTORE POP PUSH1 0x9 PUSH0 SWAP1 SLOAD SWAP1 PUSH2 0x100 EXP SWAP1 DIV PUSH20 0xFFFFFFFFFFFFFFFFFFFFFFFFFFFFFFFFFFFFFFFF AND PUSH20 0xFFFFFFFFFFFFFFFFFFFFFFFFFFFFFFFFFFFFFFFF AND PUSH4 0x23B872DD PUSH1 0xA PUSH0 SWAP1 SLOAD SWAP1 PUSH2 0x100 EXP SWAP1 DIV PUSH20 0xFFFFFFFFFFFFFFFFFFFFFFFFFFFFFFFFFFFFFFFF AND CALLER DUP5 PUSH1 0x40 MLOAD DUP5 PUSH4 0xFFFFFFFF AND PUSH1 0xE0 SHL DUP2 MSTORE PUSH1 0x4 ADD PUSH2 0x184E SWAP4 SWAP3 SWAP2 SWAP1 PUSH2 0x3247 JUMP JUMPDEST PUSH1 0x20 PUSH1 0x40 MLOAD DUP1 DUP4 SUB DUP2 PUSH0 DUP8 GAS CALL ISZERO DUP1 ISZERO PUSH2 0x186A JUMPI RETURNDATASIZE PUSH0 DUP1 RETURNDATACOPY RETURNDATASIZE PUSH0 REVERT JUMPDEST POP POP POP POP PUSH1 0x40 MLOAD RETURNDATASIZE PUSH1 0x1F NOT PUSH1 0x1F DUP3 ADD AND DUP3 ADD DUP1 PUSH1 0x40 MSTORE POP DUP2 ADD SWAP1 PUSH2 0x188E SWAP2 SWAP1 PUSH2 0x32A6 JUMP JUMPDEST POP PUSH32 0xC7798891864187665AC6DD119286E44EC13F014527AEEB2B8EB3FD413DF93179 CALLER DUP3 PUSH1 0x40 MLOAD PUSH2 0x18C0 SWAP3 SWAP2 SWAP1 PUSH2 0x30C5 JUMP JUMPDEST PUSH1 0x40 MLOAD DUP1 SWAP2 SUB SWAP1 LOG1 POP JUMP JUMPDEST PUSH1 0x40 MLOAD DUP1 PUSH1 0x40 ADD PUSH1 0x40 MSTORE DUP1 PUSH1 0x5 DUP2 MSTORE PUSH1 0x20 ADD PUSH32 0x352E302E30000000000000000000000000000000000000000000000000000000 DUP2 MSTORE POP DUP2 JUMP JUMPDEST PUSH1 0x5 SLOAD DUP2 JUMP JUMPDEST PUSH1 0x1 SLOAD DUP2 JUMP JUMPDEST PUSH2 0x1919 DUP3 PUSH2 0xB47 JUMP JUMPDEST PUSH2 0x1922 DUP2 PUSH2 0x1AC8 JUMP JUMPDEST PUSH2 0x192C DUP4 DUP4 PUSH2 0x1B03 JUMP JUMPDEST POP POP POP POP JUMP JUMPDEST PUSH0 DUP1 SHL PUSH2 0x193E DUP2 PUSH2 0x1AC8 JUMP JUMPDEST DUP2 PUSH1 0x4 DUP2 SWAP1 SSTORE POP PUSH32 0xF20CFD7E6CE3A0EB317CF0B06DCBC6BA40FB5BDD5AC92227BD1BAA0D85C52F92 DUP3 PUSH1 0x40 MLOAD PUSH2 0x1974 SWAP2 SWAP1 PUSH2 0x286A JUMP JUMPDEST PUSH1 0x40 MLOAD DUP1 SWAP2 SUB SWAP1 LOG1 POP POP JUMP JUMPDEST PUSH32 0x65D7A28E3265B37A6474929F336521B332C1681B933F6CB9F3376673440D862A DUP2 JUMP JUMPDEST PUSH0 DUP1 SHL PUSH2 0x19B0 DUP2 PUSH2 0x1AC8 JUMP JUMPDEST PUSH2 0x19DA PUSH32 0xB165298935924F540E4181C03493A5D686C54A0AAEB3F6216DE85B7FFBBA7738 DUP4 PUSH2 0x1BFB JUMP JUMPDEST POP PUSH32 0x62E6A5118BE03F9BFEDB79B0ED7ED75EE4A9E15FC4C69D2C4976ACDE26FA2D5F DUP3 PUSH1 0x40 MLOAD PUSH2 0x1A0A SWAP2 SWAP1 PUSH2 0x2892 JUMP JUMPDEST PUSH1 0x40 MLOAD DUP1 SWAP2 SUB SWAP1 LOG1 POP POP JUMP JUMPDEST PUSH32 0x189AB7A9244DF0848122154315AF71FE140F3DB0FE014031783B0946B8C9D2E3 DUP2 JUMP JUMPDEST PUSH1 0x9 PUSH0 SWAP1 SLOAD SWAP1 PUSH2 0x100 EXP SWAP1 DIV PUSH20 0xFFFFFFFFFFFFFFFFFFFFFFFFFFFFFFFFFFFFFFFF AND DUP2 JUMP JUMPDEST PUSH0 PUSH32 0x1FFC9A700000000000000000000000000000000000000000000000000000000 PUSH28 0xFFFFFFFFFFFFFFFFFFFFFFFFFFFFFFFFFFFFFFFFFFFFFFFFFFFFFFFF NOT AND DUP3 PUSH28 0xFFFFFFFFFFFFFFFFFFFFFFFFFFFFFFFFFFFFFFFFFFFFFFFFFFFFFFFF NOT AND EQ SWAP1 POP SWAP2 SWAP1 POP JUMP JUMPDEST PUSH2 0x1AD9 DUP2 PUSH2 0x1AD4 PUSH2 0x1D34 JUMP JUMPDEST PUSH2 0x21AD JUMP JUMPDEST POP JUMP JUMPDEST PUSH0 PUSH32 0x2DD7BC7DEC4DCEEDDA775E58DD541E08A116C6C53815C0BD028192F7B626800 SWAP1 POP SWAP1 JUMP JUMPDEST PUSH0 DUP1 PUSH2 0x1B0D PUSH2 0x1ADC JUMP JUMPDEST SWAP1 POP PUSH2 0x1B19 DUP5 DUP5 PUSH2 0x164E JUMP JUMPDEST ISZERO PUSH2 0x1BF0 JUMPI PUSH0 DUP2 PUSH0 ADD PUSH0 DUP7 DUP2 MSTORE PUSH1 0x20 ADD SWAP1 DUP2 MSTORE PUSH1 0x20 ADD PUSH0 KECCAK256 PUSH0 ADD PUSH0 DUP6 PUSH20 0xFFFFFFFFFFFFFFFFFFFFFFFFFFFFFFFFFFFFFFFF AND PUSH20 0xFFFFFFFFFFFFFFFFFFFFFFFFFFFFFFFFFFFFFFFF AND DUP2 MSTORE PUSH1 0x20 ADD SWAP1 DUP2 MSTORE PUSH1 0x20 ADD PUSH0 KECCAK256 PUSH0 PUSH2 0x100 EXP DUP2 SLOAD DUP2 PUSH1 0xFF MUL NOT AND SWAP1 DUP4 ISZERO ISZERO MUL OR SWAP1 SSTORE POP PUSH2 0x1B8C PUSH2 0x1D34 JUMP JUMPDEST PUSH20 0xFFFFFFFFFFFFFFFFFFFFFFFFFFFFFFFFFFFFFFFF AND DUP4 PUSH20 0xFFFFFFFFFFFFFFFFFFFFFFFFFFFFFFFFFFFFFFFF AND DUP6 PUSH32 0xF6391F5C32D9C69D2A47EA670B442974B53935D1EDC7FD64EB21E047A839171B PUSH1 0x40 MLOAD PUSH1 0x40 MLOAD DUP1 SWAP2 SUB SWAP1 LOG4 PUSH1 0x1 SWAP2 POP POP PUSH2 0x1BF5 JUMP JUMPDEST PUSH0 SWAP2 POP POP JUMPDEST SWAP3 SWAP2 POP POP JUMP JUMPDEST PUSH0 DUP1 PUSH2 0x1C05 PUSH2 0x1ADC JUMP JUMPDEST SWAP1 POP PUSH2 0x1C11 DUP5 DUP5 PUSH2 0x164E JUMP JUMPDEST PUSH2 0x1CE8 JUMPI PUSH1 0x1 DUP2 PUSH0 ADD PUSH0 DUP7 DUP2 MSTORE PUSH1 0x20 ADD SWAP1 DUP2 MSTORE PUSH1 0x20 ADD PUSH0 KECCAK256 PUSH0 ADD PUSH0 DUP6 PUSH20 0xFFFFFFFFFFFFFFFFFFFFFFFFFFFFFFFFFFFFFFFF AND PUSH20 0xFFFFFFFFFFFFFFFFFFFFFFFFFFFFFFFFFFFFFFFF AND DUP2 MSTORE PUSH1 0x20 ADD SWAP1 DUP2 MSTORE PUSH1 0x20 ADD PUSH0 KECCAK256 PUSH0 PUSH2 0x100 EXP DUP2 SLOAD DUP2 PUSH1 0xFF MUL NOT AND SWAP1 DUP4 ISZERO ISZERO MUL OR SWAP1 SSTORE POP PUSH2 0x1C84 PUSH2 0x1D34 JUMP JUMPDEST PUSH20 0xFFFFFFFFFFFFFFFFFFFFFFFFFFFFFFFFFFFFFFFF AND DUP4 PUSH20 0xFFFFFFFFFFFFFFFFFFFFFFFFFFFFFFFFFFFFFFFF AND DUP6 PUSH32 0x2F8788117E7EFF1D82E926EC794901D17C78024A50270940304540A733656F0D PUSH1 0x40 MLOAD PUSH1 0x40 MLOAD DUP1 SWAP2 SUB SWAP1 LOG4 PUSH1 0x1 SWAP2 POP POP PUSH2 0x1CED JUMP JUMPDEST PUSH0 SWAP2 POP POP JUMPDEST SWAP3 SWAP2 POP POP JUMP JUMPDEST PUSH2 0x1CFB PUSH2 0x1525 JUMP JUMPDEST ISZERO PUSH2 0x1D32 JUMPI PUSH1 0x40 MLOAD PUSH32 0xD93C066500000000000000000000000000000000000000000000000000000000 DUP2 MSTORE PUSH1 0x4 ADD PUSH1 0x40 MLOAD DUP1 SWAP2 SUB SWAP1 REVERT JUMPDEST JUMP JUMPDEST PUSH0 CALLER SWAP1 POP SWAP1 JUMP JUMPDEST PUSH2 0x1D43 PUSH2 0x21FE JUMP JUMPDEST PUSH0 PUSH2 0x1D4C PUSH2 0x2117 JUMP JUMPDEST SWAP1 POP PUSH0 DUP2 PUSH0 ADD PUSH0 PUSH2 0x100 EXP DUP2 SLOAD DUP2 PUSH1 0xFF MUL NOT AND SWAP1 DUP4 ISZERO ISZERO MUL OR SWAP1 SSTORE POP PUSH32 0x5DB9EE0A495BF2E6FF9C91A7834C1BA4FDD244A5E8AA4E537BD38AEAE4B073AA PUSH2 0x1D91 PUSH2 0x1D34 JUMP JUMPDEST PUSH1 0x40 MLOAD PUSH2 0x1D9E SWAP2 SWAP1 PUSH2 0x2892 JUMP JUMPDEST PUSH1 0x40 MLOAD DUP1 SWAP2 SUB SWAP1 LOG1 POP JUMP JUMPDEST PUSH0 PUSH32 0xF0C57E16840DF040F15088DC2F81FE391C3923BEC73E23A9662EFC9C229C6A00 SWAP1 POP SWAP1 JUMP JUMPDEST PUSH2 0x1DD8 PUSH2 0x223E JUMP JUMPDEST PUSH2 0x1DE0 PUSH2 0x227E JUMP JUMPDEST JUMP JUMPDEST PUSH2 0x1DEA PUSH2 0x223E JUMP JUMPDEST JUMP JUMPDEST PUSH2 0x1DF4 PUSH2 0x223E JUMP JUMPDEST JUMP JUMPDEST PUSH2 0x1E02 PUSH0 DUP1 SHL DUP5 PUSH2 0x1BFB JUMP JUMPDEST POP PUSH2 0x1E2D PUSH32 0x65D7A28E3265B37A6474929F336521B332C1681B933F6CB9F3376673440D862A DUP4 PUSH2 0x1BFB JUMP JUMPDEST POP PUSH2 0x1E58 PUSH32 0x189AB7A9244DF0848122154315AF71FE140F3DB0FE014031783B0946B8C9D2E3 DUP3 PUSH2 0x1BFB JUMP JUMPDEST POP POP POP POP JUMP JUMPDEST PUSH32 0x0 PUSH20 0xFFFFFFFFFFFFFFFFFFFFFFFFFFFFFFFFFFFFFFFF AND ADDRESS PUSH20 0xFFFFFFFFFFFFFFFFFFFFFFFFFFFFFFFFFFFFFFFF AND EQ DUP1 PUSH2 0x1F0B JUMPI POP PUSH32 0x0 PUSH20 0xFFFFFFFFFFFFFFFFFFFFFFFFFFFFFFFFFFFFFFFF AND PUSH2 0x1EF2 PUSH2 0x22AE JUMP JUMPDEST PUSH20 0xFFFFFFFFFFFFFFFFFFFFFFFFFFFFFFFFFFFFFFFF AND EQ ISZERO JUMPDEST ISZERO PUSH2 0x1F42 JUMPI PUSH1 0x40 MLOAD PUSH32 0xE07C8DBA00000000000000000000000000000000000000000000000000000000 DUP2 MSTORE PUSH1 0x4 ADD PUSH1 0x40 MLOAD DUP1 SWAP2 SUB SWAP1 REVERT JUMPDEST JUMP JUMPDEST PUSH32 0x189AB7A9244DF0848122154315AF71FE140F3DB0FE014031783B0946B8C9D2E3 PUSH2 0x1F6E DUP2 PUSH2 0x1AC8 JUMP JUMPDEST POP POP JUMP JUMPDEST DUP2 PUSH20 0xFFFFFFFFFFFFFFFFFFFFFFFFFFFFFFFFFFFFFFFF AND PUSH4 0x52D1902D PUSH1 0x40 MLOAD DUP2 PUSH4 0xFFFFFFFF AND PUSH1 0xE0 SHL DUP2 MSTORE PUSH1 0x4 ADD PUSH1 0x20 PUSH1 0x40 MLOAD DUP1 DUP4 SUB DUP2 DUP7 GAS STATICCALL SWAP3 POP POP POP DUP1 ISZERO PUSH2 0x1FDA JUMPI POP PUSH1 0x40 MLOAD RETURNDATASIZE PUSH1 0x1F NOT PUSH1 0x1F DUP3 ADD AND DUP3 ADD DUP1 PUSH1 0x40 MSTORE POP DUP2 ADD SWAP1 PUSH2 0x1FD7 SWAP2 SWAP1 PUSH2 0x32E5 JUMP JUMPDEST PUSH1 0x1 JUMPDEST PUSH2 0x201B JUMPI DUP2 PUSH1 0x40 MLOAD PUSH32 0x4C9C8CE300000000000000000000000000000000000000000000000000000000 DUP2 MSTORE PUSH1 0x4 ADD PUSH2 0x2012 SWAP2 SWAP1 PUSH2 0x2892 JUMP JUMPDEST PUSH1 0x40 MLOAD DUP1 SWAP2 SUB SWAP1 REVERT JUMPDEST PUSH32 0x360894A13BA1A3210667C828492DB98DCA3E2076CC3735A920A3CA505D382BBC PUSH0 SHL DUP2 EQ PUSH2 0x2081 JUMPI DUP1 PUSH1 0x40 MLOAD PUSH32 0xAA1D49A400000000000000000000000000000000000000000000000000000000 DUP2 MSTORE PUSH1 0x4 ADD PUSH2 0x2078 SWAP2 SWAP1 PUSH2 0x2608 JUMP JUMPDEST PUSH1 0x40 MLOAD DUP1 SWAP2 SUB SWAP1 REVERT JUMPDEST PUSH2 0x208B DUP4 DUP4 PUSH2 0x2301 JUMP JUMPDEST POP POP POP JUMP JUMPDEST PUSH32 0x0 PUSH20 0xFFFFFFFFFFFFFFFFFFFFFFFFFFFFFFFFFFFFFFFF AND ADDRESS PUSH20 0xFFFFFFFFFFFFFFFFFFFFFFFFFFFFFFFFFFFFFFFF AND EQ PUSH2 0x2115 JUMPI PUSH1 0x40 MLOAD PUSH32 0xE07C8DBA00000000000000000000000000000000000000000000000000000000 DUP2 MSTORE PUSH1 0x4 ADD PUSH1 0x40 MLOAD DUP1 SWAP2 SUB SWAP1 REVERT JUMPDEST JUMP JUMPDEST PUSH0 PUSH32 0xCD5ED15C6E187E77E9AEE88184C21F4F2182AB5827CB3B7E07FBEDCD63F03300 SWAP1 POP SWAP1 JUMP JUMPDEST PUSH2 0x2146 PUSH2 0x1CF3 JUMP JUMPDEST PUSH0 PUSH2 0x214F PUSH2 0x2117 JUMP JUMPDEST SWAP1 POP PUSH1 0x1 DUP2 PUSH0 ADD PUSH0 PUSH2 0x100 EXP DUP2 SLOAD DUP2 PUSH1 0xFF MUL NOT AND SWAP1 DUP4 ISZERO ISZERO MUL OR SWAP1 SSTORE POP PUSH32 0x62E78CEA01BEE320CD4E420270B5EA74000D11B0C9F74754EBDBFC544B05A258 PUSH2 0x2195 PUSH2 0x1D34 JUMP JUMPDEST PUSH1 0x40 MLOAD PUSH2 0x21A2 SWAP2 SWAP1 PUSH2 0x2892 JUMP JUMPDEST PUSH1 0x40 MLOAD DUP1 SWAP2 SUB SWAP1 LOG1 POP JUMP JUMPDEST PUSH2 0x21B7 DUP3 DUP3 PUSH2 0x164E JUMP JUMPDEST PUSH2 0x21FA JUMPI DUP1 DUP3 PUSH1 0x40 MLOAD PUSH32 0xE2517D3F00000000000000000000000000000000000000000000000000000000 DUP2 MSTORE PUSH1 0x4 ADD PUSH2 0x21F1 SWAP3 SWAP2 SWAP1 PUSH2 0x3310 JUMP JUMPDEST PUSH1 0x40 MLOAD DUP1 SWAP2 SUB SWAP1 REVERT JUMPDEST POP POP JUMP JUMPDEST PUSH2 0x2206 PUSH2 0x1525 JUMP JUMPDEST PUSH2 0x223C JUMPI PUSH1 0x40 MLOAD PUSH32 0x8DFC202B00000000000000000000000000000000000000000000000000000000 DUP2 MSTORE PUSH1 0x4 ADD PUSH1 0x40 MLOAD DUP1 SWAP2 SUB SWAP1 REVERT JUMPDEST JUMP JUMPDEST PUSH2 0x2246 PUSH2 0x2373 JUMP JUMPDEST PUSH2 0x227C JUMPI PUSH1 0x40 MLOAD PUSH32 0xD7E6BCF800000000000000000000000000000000000000000000000000000000 DUP2 MSTORE PUSH1 0x4 ADD PUSH1 0x40 MLOAD DUP1 SWAP2 SUB SWAP1 REVERT JUMPDEST JUMP JUMPDEST PUSH2 0x2286 PUSH2 0x223E JUMP JUMPDEST PUSH0 PUSH2 0x228F PUSH2 0x2117 JUMP JUMPDEST SWAP1 POP PUSH0 DUP2 PUSH0 ADD PUSH0 PUSH2 0x100 EXP DUP2 SLOAD DUP2 PUSH1 0xFF MUL NOT AND SWAP1 DUP4 ISZERO ISZERO MUL OR SWAP1 SSTORE POP POP JUMP JUMPDEST PUSH0 PUSH2 0x22DA PUSH32 0x360894A13BA1A3210667C828492DB98DCA3E2076CC3735A920A3CA505D382BBC PUSH0 SHL PUSH2 0x2391 JUMP JUMPDEST PUSH0 ADD PUSH0 SWAP1 SLOAD SWAP1 PUSH2 0x100 EXP SWAP1 DIV PUSH20 0xFFFFFFFFFFFFFFFFFFFFFFFFFFFFFFFFFFFFFFFF AND SWAP1 POP SWAP1 JUMP JUMPDEST PUSH2 0x230A DUP3 PUSH2 0x239A JUMP JUMPDEST DUP2 PUSH20 0xFFFFFFFFFFFFFFFFFFFFFFFFFFFFFFFFFFFFFFFF AND PUSH32 0xBC7CD75A20EE27FD9ADEBAB32041F755214DBC6BFFA90CC0225B39DA2E5C2D3B PUSH1 0x40 MLOAD PUSH1 0x40 MLOAD DUP1 SWAP2 SUB SWAP1 LOG2 PUSH0 DUP2 MLOAD GT ISZERO PUSH2 0x2366 JUMPI PUSH2 0x2360 DUP3 DUP3 PUSH2 0x2463 JUMP JUMPDEST POP PUSH2 0x236F JUMP JUMPDEST PUSH2 0x236E PUSH2 0x24E3 JUMP JUMPDEST JUMPDEST POP POP JUMP JUMPDEST PUSH0 PUSH2 0x237C PUSH2 0x1DA9 JUMP JUMPDEST PUSH0 ADD PUSH1 0x8 SWAP1 SLOAD SWAP1 PUSH2 0x100 EXP SWAP1 DIV PUSH1 0xFF AND SWAP1 POP SWAP1 JUMP JUMPDEST PUSH0 DUP2 SWAP1 POP SWAP2 SWAP1 POP JUMP JUMPDEST PUSH0 DUP2 PUSH20 0xFFFFFFFFFFFFFFFFFFFFFFFFFFFFFFFFFFFFFFFF AND EXTCODESIZE SUB PUSH2 0x23F5 JUMPI DUP1 PUSH1 0x40 MLOAD PUSH32 0x4C9C8CE300000000000000000000000000000000000000000000000000000000 DUP2 MSTORE PUSH1 0x4 ADD PUSH2 0x23EC SWAP2 SWAP1 PUSH2 0x2892 JUMP JUMPDEST PUSH1 0x40 MLOAD DUP1 SWAP2 SUB SWAP1 REVERT JUMPDEST DUP1 PUSH2 0x2421 PUSH32 0x360894A13BA1A3210667C828492DB98DCA3E2076CC3735A920A3CA505D382BBC PUSH0 SHL PUSH2 0x2391 JUMP JUMPDEST PUSH0 ADD PUSH0 PUSH2 0x100 EXP DUP2 SLOAD DUP2 PUSH20 0xFFFFFFFFFFFFFFFFFFFFFFFFFFFFFFFFFFFFFFFF MUL NOT AND SWAP1 DUP4 PUSH20 0xFFFFFFFFFFFFFFFFFFFFFFFFFFFFFFFFFFFFFFFF AND MUL OR SWAP1 SSTORE POP POP JUMP JUMPDEST PUSH1 0x60 PUSH0 DUP1 DUP5 PUSH20 0xFFFFFFFFFFFFFFFFFFFFFFFFFFFFFFFFFFFFFFFF AND DUP5 PUSH1 0x40 MLOAD PUSH2 0x248C SWAP2 SWAP1 PUSH2 0x337B JUMP JUMPDEST PUSH0 PUSH1 0x40 MLOAD DUP1 DUP4 SUB DUP2 DUP6 GAS DELEGATECALL SWAP2 POP POP RETURNDATASIZE DUP1 PUSH0 DUP2 EQ PUSH2 0x24C4 JUMPI PUSH1 0x40 MLOAD SWAP2 POP PUSH1 0x1F NOT PUSH1 0x3F RETURNDATASIZE ADD AND DUP3 ADD PUSH1 0x40 MSTORE RETURNDATASIZE DUP3 MSTORE RETURNDATASIZE PUSH0 PUSH1 0x20 DUP5 ADD RETURNDATACOPY PUSH2 0x24C9 JUMP JUMPDEST PUSH1 0x60 SWAP2 POP JUMPDEST POP SWAP2 POP SWAP2 POP PUSH2 0x24D9 DUP6 DUP4 DUP4 PUSH2 0x251F JUMP JUMPDEST SWAP3 POP POP POP SWAP3 SWAP2 POP POP JUMP JUMPDEST PUSH0 CALLVALUE GT ISZERO PUSH2 0x251D JUMPI PUSH1 0x40 MLOAD PUSH32 0xB398979F00000000000000000000000000000000000000000000000000000000 DUP2 MSTORE PUSH1 0x4 ADD PUSH1 0x40 MLOAD DUP1 SWAP2 SUB SWAP1 REVERT JUMPDEST JUMP JUMPDEST PUSH1 0x60 DUP3 PUSH2 0x2534 JUMPI PUSH2 0x252F DUP3 PUSH2 0x25AC JUMP JUMPDEST PUSH2 0x25A4 JUMP JUMPDEST PUSH0 DUP3 MLOAD EQ DUP1 ISZERO PUSH2 0x255A JUMPI POP PUSH0 DUP5 PUSH20 0xFFFFFFFFFFFFFFFFFFFFFFFFFFFFFFFFFFFFFFFF AND EXTCODESIZE EQ JUMPDEST ISZERO PUSH2 0x259C JUMPI DUP4 PUSH1 0x40 MLOAD PUSH32 0x9996B31500000000000000000000000000000000000000000000000000000000 DUP2 MSTORE PUSH1 0x4 ADD PUSH2 0x2593 SWAP2 SWAP1 PUSH2 0x2892 JUMP JUMPDEST PUSH1 0x40 MLOAD DUP1 SWAP2 SUB SWAP1 REVERT JUMPDEST DUP2 SWAP1 POP PUSH2 0x25A5 JUMP JUMPDEST JUMPDEST SWAP4 SWAP3 POP POP POP JUMP JUMPDEST PUSH0 DUP2 MLOAD GT ISZERO PUSH2 0x25BE JUMPI DUP1 MLOAD DUP1 DUP3 PUSH1 0x20 ADD REVERT JUMPDEST PUSH1 0x40 MLOAD PUSH32 0x1425EA4200000000000000000000000000000000000000000000000000000000 DUP2 MSTORE PUSH1 0x4 ADD PUSH1 0x40 MLOAD DUP1 SWAP2 SUB SWAP1 REVERT JUMPDEST PUSH0 DUP2 SWAP1 POP SWAP2 SWAP1 POP JUMP JUMPDEST PUSH2 0x2602 DUP2 PUSH2 0x25F0 JUMP JUMPDEST DUP3 MSTORE POP POP JUMP JUMPDEST PUSH0 PUSH1 0x20 DUP3 ADD SWAP1 POP PUSH2 0x261B PUSH0 DUP4 ADD DUP5 PUSH2 0x25F9 JUMP JUMPDEST SWAP3 SWAP2 POP POP JUMP JUMPDEST PUSH0 PUSH1 0x40 MLOAD SWAP1 POP SWAP1 JUMP JUMPDEST PUSH0 DUP1 REVERT JUMPDEST PUSH0 DUP1 REVERT JUMPDEST PUSH0 PUSH32 0xFFFFFFFF00000000000000000000000000000000000000000000000000000000 DUP3 AND SWAP1 POP SWAP2 SWAP1 POP JUMP JUMPDEST PUSH2 0x2666 DUP2 PUSH2 0x2632 JUMP JUMPDEST DUP2 EQ PUSH2 0x2670 JUMPI PUSH0 DUP1 REVERT JUMPDEST POP JUMP JUMPDEST PUSH0 DUP2 CALLDATALOAD SWAP1 POP PUSH2 0x2681 DUP2 PUSH2 0x265D JUMP JUMPDEST SWAP3 SWAP2 POP POP JUMP JUMPDEST PUSH0 PUSH1 0x20 DUP3 DUP5 SUB SLT ISZERO PUSH2 0x269C JUMPI PUSH2 0x269B PUSH2 0x262A JUMP JUMPDEST JUMPDEST PUSH0 PUSH2 0x26A9 DUP5 DUP3 DUP6 ADD PUSH2 0x2673 JUMP JUMPDEST SWAP2 POP POP SWAP3 SWAP2 POP POP JUMP JUMPDEST PUSH0 DUP2 ISZERO ISZERO SWAP1 POP SWAP2 SWAP1 POP JUMP JUMPDEST PUSH2 0x26C6 DUP2 PUSH2 0x26B2 JUMP JUMPDEST DUP3 MSTORE POP POP JUMP JUMPDEST PUSH0 PUSH1 0x20 DUP3 ADD SWAP1 POP PUSH2 0x26DF PUSH0 DUP4 ADD DUP5 PUSH2 0x26BD JUMP JUMPDEST SWAP3 SWAP2 POP POP JUMP JUMPDEST PUSH0 PUSH20 0xFFFFFFFFFFFFFFFFFFFFFFFFFFFFFFFFFFFFFFFF DUP3 AND SWAP1 POP SWAP2 SWAP1 POP JUMP JUMPDEST PUSH0 PUSH2 0x270E DUP3 PUSH2 0x26E5 JUMP JUMPDEST SWAP1 POP SWAP2 SWAP1 POP JUMP JUMPDEST PUSH2 0x271E DUP2 PUSH2 0x2704 JUMP JUMPDEST DUP2 EQ PUSH2 0x2728 JUMPI PUSH0 DUP1 REVERT JUMPDEST POP JUMP JUMPDEST PUSH0 DUP2 CALLDATALOAD SWAP1 POP PUSH2 0x2739 DUP2 PUSH2 0x2715 JUMP JUMPDEST SWAP3 SWAP2 POP POP JUMP JUMPDEST PUSH0 PUSH1 0x20 DUP3 DUP5 SUB SLT ISZERO PUSH2 0x2754 JUMPI PUSH2 0x2753 PUSH2 0x262A JUMP JUMPDEST JUMPDEST PUSH0 PUSH2 0x2761 DUP5 DUP3 DUP6 ADD PUSH2 0x272B JUMP JUMPDEST SWAP2 POP POP SWAP3 SWAP2 POP POP JUMP JUMPDEST PUSH0 DUP2 SWAP1 POP SWAP2 SWAP1 POP JUMP JUMPDEST PUSH2 0x277C DUP2 PUSH2 0x276A JUMP JUMPDEST DUP2 EQ PUSH2 0x2786 JUMPI PUSH0 DUP1 REVERT JUMPDEST POP JUMP JUMPDEST PUSH0 DUP2 CALLDATALOAD SWAP1 POP PUSH2 0x2797 DUP2 PUSH2 0x2773 JUMP JUMPDEST SWAP3 SWAP2 POP POP JUMP JUMPDEST PUSH0 DUP1 REVERT JUMPDEST PUSH0 DUP1 REVERT JUMPDEST PUSH0 DUP1 REVERT JUMPDEST PUSH0 DUP1 DUP4 PUSH1 0x1F DUP5 ADD SLT PUSH2 0x27BE JUMPI PUSH2 0x27BD PUSH2 0x279D JUMP JUMPDEST JUMPDEST DUP3 CALLDATALOAD SWAP1 POP PUSH8 0xFFFFFFFFFFFFFFFF DUP2 GT ISZERO PUSH2 0x27DB JUMPI PUSH2 0x27DA PUSH2 0x27A1 JUMP JUMPDEST JUMPDEST PUSH1 0x20 DUP4 ADD SWAP2 POP DUP4 PUSH1 0x1 DUP3 MUL DUP4 ADD GT ISZERO PUSH2 0x27F7 JUMPI PUSH2 0x27F6 PUSH2 0x27A5 JUMP JUMPDEST JUMPDEST SWAP3 POP SWAP3 SWAP1 POP JUMP JUMPDEST PUSH0 DUP1 PUSH0 PUSH1 0x40 DUP5 DUP7 SUB SLT ISZERO PUSH2 0x2815 JUMPI PUSH2 0x2814 PUSH2 0x262A JUMP JUMPDEST JUMPDEST PUSH0 PUSH2 0x2822 DUP7 DUP3 DUP8 ADD PUSH2 0x2789 JUMP JUMPDEST SWAP4 POP POP PUSH1 0x20 DUP5 ADD CALLDATALOAD PUSH8 0xFFFFFFFFFFFFFFFF DUP2 GT ISZERO PUSH2 0x2843 JUMPI PUSH2 0x2842 PUSH2 0x262E JUMP JUMPDEST JUMPDEST PUSH2 0x284F DUP7 DUP3 DUP8 ADD PUSH2 0x27A9 JUMP JUMPDEST SWAP3 POP SWAP3 POP POP SWAP3 POP SWAP3 POP SWAP3 JUMP JUMPDEST PUSH2 0x2864 DUP2 PUSH2 0x276A JUMP JUMPDEST DUP3 MSTORE POP POP JUMP JUMPDEST PUSH0 PUSH1 0x20 DUP3 ADD SWAP1 POP PUSH2 0x287D PUSH0 DUP4 ADD DUP5 PUSH2 0x285B JUMP JUMPDEST SWAP3 SWAP2 POP POP JUMP JUMPDEST PUSH2 0x288C DUP2 PUSH2 0x2704 JUMP JUMPDEST DUP3 MSTORE POP POP JUMP JUMPDEST PUSH0 PUSH1 0x20 DUP3 ADD SWAP1 POP PUSH2 0x28A5 PUSH0 DUP4 ADD DUP5 PUSH2 0x2883 JUMP JUMPDEST SWAP3 SWAP2 POP POP JUMP JUMPDEST PUSH2 0x28B4 DUP2 PUSH2 0x25F0 JUMP JUMPDEST DUP2 EQ PUSH2 0x28BE JUMPI PUSH0 DUP1 REVERT JUMPDEST POP JUMP JUMPDEST PUSH0 DUP2 CALLDATALOAD SWAP1 POP PUSH2 0x28CF DUP2 PUSH2 0x28AB JUMP JUMPDEST SWAP3 SWAP2 POP POP JUMP JUMPDEST PUSH0 PUSH1 0x20 DUP3 DUP5 SUB SLT ISZERO PUSH2 0x28EA JUMPI PUSH2 0x28E9 PUSH2 0x262A JUMP JUMPDEST JUMPDEST PUSH0 PUSH2 0x28F7 DUP5 DUP3 DUP6 ADD PUSH2 0x28C1 JUMP JUMPDEST SWAP2 POP POP SWAP3 SWAP2 POP POP JUMP JUMPDEST PUSH0 DUP1 PUSH1 0x40 DUP4 DUP6 SUB SLT ISZERO PUSH2 0x2916 JUMPI PUSH2 0x2915 PUSH2 0x262A JUMP JUMPDEST JUMPDEST PUSH0 PUSH2 0x2923 DUP6 DUP3 DUP7 ADD PUSH2 0x28C1 JUMP JUMPDEST SWAP3 POP POP PUSH1 0x20 PUSH2 0x2934 DUP6 DUP3 DUP7 ADD PUSH2 0x272B JUMP JUMPDEST SWAP2 POP POP SWAP3 POP SWAP3 SWAP1 POP JUMP JUMPDEST PUSH0 PUSH1 0x20 DUP3 DUP5 SUB SLT ISZERO PUSH2 0x2953 JUMPI PUSH2 0x2952 PUSH2 0x262A JUMP JUMPDEST JUMPDEST PUSH0 PUSH2 0x2960 DUP5 DUP3 DUP6 ADD PUSH2 0x2789 JUMP JUMPDEST SWAP2 POP POP SWAP3 SWAP2 POP POP JUMP JUMPDEST PUSH0 DUP1 PUSH0 DUP1 PUSH0 DUP1 PUSH0 DUP1 PUSH0 DUP1 PUSH2 0x140 DUP12 DUP14 SUB SLT ISZERO PUSH2 0x2988 JUMPI PUSH2 0x2987 PUSH2 0x262A JUMP JUMPDEST JUMPDEST PUSH0 PUSH2 0x2995 DUP14 DUP3 DUP15 ADD PUSH2 0x272B JUMP JUMPDEST SWAP11 POP POP PUSH1 0x20 PUSH2 0x29A6 DUP14 DUP3 DUP15 ADD PUSH2 0x272B JUMP JUMPDEST SWAP10 POP POP PUSH1 0x40 PUSH2 0x29B7 DUP14 DUP3 DUP15 ADD PUSH2 0x272B JUMP JUMPDEST SWAP9 POP POP PUSH1 0x60 PUSH2 0x29C8 DUP14 DUP3 DUP15 ADD PUSH2 0x272B JUMP JUMPDEST SWAP8 POP POP PUSH1 0x80 PUSH2 0x29D9 DUP14 DUP3 DUP15 ADD PUSH2 0x272B JUMP JUMPDEST SWAP7 POP POP PUSH1 0xA0 PUSH2 0x29EA DUP14 DUP3 DUP15 ADD PUSH2 0x2789 JUMP JUMPDEST SWAP6 POP POP PUSH1 0xC0 PUSH2 0x29FB DUP14 DUP3 DUP15 ADD PUSH2 0x2789 JUMP JUMPDEST SWAP5 POP POP PUSH1 0xE0 PUSH2 0x2A0C DUP14 DUP3 DUP15 ADD PUSH2 0x2789 JUMP JUMPDEST SWAP4 POP POP PUSH2 0x100 PUSH2 0x2A1E DUP14 DUP3 DUP15 ADD PUSH2 0x2789 JUMP JUMPDEST SWAP3 POP POP PUSH2 0x120 PUSH2 0x2A30 DUP14 DUP3 DUP15 ADD PUSH2 0x2789 JUMP JUMPDEST SWAP2 POP POP SWAP3 SWAP6 SWAP9 SWAP12 SWAP2 SWAP5 SWAP8 SWAP11 POP SWAP3 SWAP6 SWAP9 POP JUMP JUMPDEST PUSH0 DUP1 REVERT JUMPDEST PUSH0 PUSH1 0x1F NOT PUSH1 0x1F DUP4 ADD AND SWAP1 POP SWAP2 SWAP1 POP JUMP JUMPDEST PUSH32 0x4E487B7100000000000000000000000000000000000000000000000000000000 PUSH0 MSTORE PUSH1 0x41 PUSH1 0x4 MSTORE PUSH1 0x24 PUSH0 REVERT JUMPDEST PUSH2 0x2A8C DUP3 PUSH2 0x2A46 JUMP JUMPDEST DUP2 ADD DUP2 DUP2 LT PUSH8 0xFFFFFFFFFFFFFFFF DUP3 GT OR ISZERO PUSH2 0x2AAB JUMPI PUSH2 0x2AAA PUSH2 0x2A56 JUMP JUMPDEST JUMPDEST DUP1 PUSH1 0x40 MSTORE POP POP POP JUMP JUMPDEST PUSH0 PUSH2 0x2ABD PUSH2 0x2621 JUMP JUMPDEST SWAP1 POP PUSH2 0x2AC9 DUP3 DUP3 PUSH2 0x2A83 JUMP JUMPDEST SWAP2 SWAP1 POP JUMP JUMPDEST PUSH0 PUSH8 0xFFFFFFFFFFFFFFFF DUP3 GT ISZERO PUSH2 0x2AE8 JUMPI PUSH2 0x2AE7 PUSH2 0x2A56 JUMP JUMPDEST JUMPDEST PUSH2 0x2AF1 DUP3 PUSH2 0x2A46 JUMP JUMPDEST SWAP1 POP PUSH1 0x20 DUP2 ADD SWAP1 POP SWAP2 SWAP1 POP JUMP JUMPDEST DUP3 DUP2 DUP4 CALLDATACOPY PUSH0 DUP4 DUP4 ADD MSTORE POP POP POP JUMP JUMPDEST PUSH0 PUSH2 0x2B1E PUSH2 0x2B19 DUP5 PUSH2 0x2ACE JUMP JUMPDEST PUSH2 0x2AB4 JUMP JUMPDEST SWAP1 POP DUP3 DUP2 MSTORE PUSH1 0x20 DUP2 ADD DUP5 DUP5 DUP5 ADD GT ISZERO PUSH2 0x2B3A JUMPI PUSH2 0x2B39 PUSH2 0x2A42 JUMP JUMPDEST JUMPDEST PUSH2 0x2B45 DUP5 DUP3 DUP6 PUSH2 0x2AFE JUMP JUMPDEST POP SWAP4 SWAP3 POP POP POP JUMP JUMPDEST PUSH0 DUP3 PUSH1 0x1F DUP4 ADD SLT PUSH2 0x2B61 JUMPI PUSH2 0x2B60 PUSH2 0x279D JUMP JUMPDEST JUMPDEST DUP2 CALLDATALOAD PUSH2 0x2B71 DUP5 DUP3 PUSH1 0x20 DUP7 ADD PUSH2 0x2B0C JUMP JUMPDEST SWAP2 POP POP SWAP3 SWAP2 POP POP JUMP JUMPDEST PUSH0 DUP1 PUSH1 0x40 DUP4 DUP6 SUB SLT ISZERO PUSH2 0x2B90 JUMPI PUSH2 0x2B8F PUSH2 0x262A JUMP JUMPDEST JUMPDEST PUSH0 PUSH2 0x2B9D DUP6 DUP3 DUP7 ADD PUSH2 0x272B JUMP JUMPDEST SWAP3 POP POP PUSH1 0x20 DUP4 ADD CALLDATALOAD PUSH8 0xFFFFFFFFFFFFFFFF DUP2 GT ISZERO PUSH2 0x2BBE JUMPI PUSH2 0x2BBD PUSH2 0x262E JUMP JUMPDEST JUMPDEST PUSH2 0x2BCA DUP6 DUP3 DUP7 ADD PUSH2 0x2B4D JUMP JUMPDEST SWAP2 POP POP SWAP3 POP SWAP3 SWAP1 POP JUMP JUMPDEST PUSH0 DUP2 MLOAD SWAP1 POP SWAP2 SWAP1 POP JUMP JUMPDEST PUSH0 DUP3 DUP3 MSTORE PUSH1 0x20 DUP3 ADD SWAP1 POP SWAP3 SWAP2 POP POP JUMP JUMPDEST DUP3 DUP2 DUP4 MCOPY PUSH0 DUP4 DUP4 ADD MSTORE POP POP POP JUMP JUMPDEST PUSH0 PUSH2 0x2C06 DUP3 PUSH2 0x2BD4 JUMP JUMPDEST PUSH2 0x2C10 DUP2 DUP6 PUSH2 0x2BDE JUMP JUMPDEST SWAP4 POP PUSH2 0x2C20 DUP2 DUP6 PUSH1 0x20 DUP7 ADD PUSH2 0x2BEE JUMP JUMPDEST PUSH2 0x2C29 DUP2 PUSH2 0x2A46 JUMP JUMPDEST DUP5 ADD SWAP2 POP POP SWAP3 SWAP2 POP POP JUMP JUMPDEST PUSH0 PUSH1 0x20 DUP3 ADD SWAP1 POP DUP2 DUP2 SUB PUSH0 DUP4 ADD MSTORE PUSH2 0x2C4C DUP2 DUP5 PUSH2 0x2BFC JUMP JUMPDEST SWAP1 POP SWAP3 SWAP2 POP POP JUMP JUMPDEST PUSH0 DUP2 SWAP1 POP SWAP2 SWAP1 POP JUMP JUMPDEST PUSH0 PUSH2 0x2C77 PUSH2 0x2C72 PUSH2 0x2C6D DUP5 PUSH2 0x26E5 JUMP JUMPDEST PUSH2 0x2C54 JUMP JUMPDEST PUSH2 0x26E5 JUMP JUMPDEST SWAP1 POP SWAP2 SWAP1 POP JUMP JUMPDEST PUSH0 PUSH2 0x2C88 DUP3 PUSH2 0x2C5D JUMP JUMPDEST SWAP1 POP SWAP2 SWAP1 POP JUMP JUMPDEST PUSH0 PUSH2 0x2C99 DUP3 PUSH2 0x2C7E JUMP JUMPDEST SWAP1 POP SWAP2 SWAP1 POP JUMP JUMPDEST PUSH2 0x2CA9 DUP2 PUSH2 0x2C8F JUMP JUMPDEST DUP3 MSTORE POP POP JUMP JUMPDEST PUSH0 PUSH1 0x20 DUP3 ADD SWAP1 POP PUSH2 0x2CC2 PUSH0 DUP4 ADD DUP5 PUSH2 0x2CA0 JUMP JUMPDEST SWAP3 SWAP2 POP POP JUMP JUMPDEST PUSH0 DUP2 SWAP1 POP SWAP3 SWAP2 POP POP JUMP JUMPDEST PUSH32 0x494E564553544F52000000000000000000000000000000000000000000000000 PUSH0 DUP3 ADD MSTORE POP JUMP JUMPDEST PUSH0 PUSH2 0x2D06 PUSH1 0x8 DUP4 PUSH2 0x2CC8 JUMP JUMPDEST SWAP2 POP PUSH2 0x2D11 DUP3 PUSH2 0x2CD2 JUMP JUMPDEST PUSH1 0x8 DUP3 ADD SWAP1 POP SWAP2 SWAP1 POP JUMP JUMPDEST PUSH0 PUSH2 0x2D26 DUP3 PUSH2 0x2CFA JUMP JUMPDEST SWAP2 POP DUP2 SWAP1 POP SWAP2 SWAP1 POP JUMP JUMPDEST PUSH0 PUSH2 0x2D3B DUP4 DUP6 PUSH2 0x2CC8 JUMP JUMPDEST SWAP4 POP PUSH2 0x2D48 DUP4 DUP6 DUP5 PUSH2 0x2AFE JUMP JUMPDEST DUP3 DUP5 ADD SWAP1 POP SWAP4 SWAP3 POP POP POP JUMP JUMPDEST PUSH0 PUSH2 0x2D60 DUP3 DUP5 DUP7 PUSH2 0x2D30 JUMP JUMPDEST SWAP2 POP DUP2 SWAP1 POP SWAP4 SWAP3 POP POP POP JUMP JUMPDEST PUSH32 0x434F4D4D554E4954590000000000000000000000000000000000000000000000 PUSH0 DUP3 ADD MSTORE POP JUMP JUMPDEST PUSH0 PUSH2 0x2DA0 PUSH1 0x9 DUP4 PUSH2 0x2CC8 JUMP JUMPDEST SWAP2 POP PUSH2 0x2DAB DUP3 PUSH2 0x2D6C JUMP JUMPDEST PUSH1 0x9 DUP3 ADD SWAP1 POP SWAP2 SWAP1 POP JUMP JUMPDEST PUSH0 PUSH2 0x2DC0 DUP3 PUSH2 0x2D94 JUMP JUMPDEST SWAP2 POP DUP2 SWAP1 POP SWAP2 SWAP1 POP JUMP JUMPDEST PUSH32 0x5055424C49430000000000000000000000000000000000000000000000000000 PUSH0 DUP3 ADD MSTORE POP JUMP JUMPDEST PUSH0 PUSH2 0x2DFE PUSH1 0x6 DUP4 PUSH2 0x2CC8 JUMP JUMPDEST SWAP2 POP PUSH2 0x2E09 DUP3 PUSH2 0x2DCA JUMP JUMPDEST PUSH1 0x6 DUP3 ADD SWAP1 POP SWAP2 SWAP1 POP JUMP JUMPDEST PUSH0 PUSH2 0x2E1E DUP3 PUSH2 0x2DF2 JUMP JUMPDEST SWAP2 POP DUP2 SWAP1 POP SWAP2 SWAP1 POP JUMP JUMPDEST PUSH32 0x496E76616C696420726F6C650000000000000000000000000000000000000000 PUSH0 DUP3 ADD MSTORE POP JUMP JUMPDEST PUSH0 PUSH2 0x2E5C PUSH1 0xC DUP4 PUSH2 0x2BDE JUMP JUMPDEST SWAP2 POP PUSH2 0x2E67 DUP3 PUSH2 0x2E28 JUMP JUMPDEST PUSH1 0x20 DUP3 ADD SWAP1 POP SWAP2 SWAP1 POP JUMP JUMPDEST PUSH0 PUSH1 0x20 DUP3 ADD SWAP1 POP DUP2 DUP2 SUB PUSH0 DUP4 ADD MSTORE PUSH2 0x2E89 DUP2 PUSH2 0x2E50 JUMP JUMPDEST SWAP1 POP SWAP2 SWAP1 POP JUMP JUMPDEST PUSH0 PUSH2 0x2E9B DUP4 DUP6 PUSH2 0x2BDE JUMP JUMPDEST SWAP4 POP PUSH2 0x2EA8 DUP4 DUP6 DUP5 PUSH2 0x2AFE JUMP JUMPDEST PUSH2 0x2EB1 DUP4 PUSH2 0x2A46 JUMP JUMPDEST DUP5 ADD SWAP1 POP SWAP4 SWAP3 POP POP POP JUMP JUMPDEST PUSH0 PUSH1 0x40 DUP3 ADD SWAP1 POP PUSH2 0x2ECF PUSH0 DUP4 ADD DUP7 PUSH2 0x285B JUMP JUMPDEST DUP2 DUP2 SUB PUSH1 0x20 DUP4 ADD MSTORE PUSH2 0x2EE2 DUP2 DUP5 DUP7 PUSH2 0x2E90 JUMP JUMPDEST SWAP1 POP SWAP5 SWAP4 POP POP POP POP JUMP JUMPDEST PUSH32 0x41646472657373206E6F742077686974656C6973746564000000000000000000 PUSH0 DUP3 ADD MSTORE POP JUMP JUMPDEST PUSH0 PUSH2 0x2F20 PUSH1 0x17 DUP4 PUSH2 0x2BDE JUMP JUMPDEST SWAP2 POP PUSH2 0x2F2B DUP3 PUSH2 0x2EEC JUMP JUMPDEST PUSH1 0x20 DUP3 ADD SWAP1 POP SWAP2 SWAP1 POP JUMP JUMPDEST PUSH0 PUSH1 0x20 DUP3 ADD SWAP1 POP DUP2 DUP2 SUB PUSH0 DUP4 ADD MSTORE PUSH2 0x2F4D DUP2 PUSH2 0x2F14 JUMP JUMPDEST SWAP1 POP SWAP2 SWAP1 POP JUMP JUMPDEST PUSH32 0x4E487B7100000000000000000000000000000000000000000000000000000000 PUSH0 MSTORE PUSH1 0x11 PUSH1 0x4 MSTORE PUSH1 0x24 PUSH0 REVERT JUMPDEST PUSH0 PUSH2 0x2F8B DUP3 PUSH2 0x276A JUMP JUMPDEST SWAP2 POP PUSH2 0x2F96 DUP4 PUSH2 0x276A JUMP JUMPDEST SWAP3 POP DUP3 DUP3 MUL PUSH2 0x2FA4 DUP2 PUSH2 0x276A JUMP JUMPDEST SWAP2 POP DUP3 DUP3 DIV DUP5 EQ DUP4 ISZERO OR PUSH2 0x2FBB JUMPI PUSH2 0x2FBA PUSH2 0x2F54 JUMP JUMPDEST JUMPDEST POP SWAP3 SWAP2 POP POP JUMP JUMPDEST PUSH32 0x496E636F72726563742076616C75652073656E74000000000000000000000000 PUSH0 DUP3 ADD MSTORE POP JUMP JUMPDEST PUSH0 PUSH2 0x2FF6 PUSH1 0x14 DUP4 PUSH2 0x2BDE JUMP JUMPDEST SWAP2 POP PUSH2 0x3001 DUP3 PUSH2 0x2FC2 JUMP JUMPDEST PUSH1 0x20 DUP3 ADD SWAP1 POP SWAP2 SWAP1 POP JUMP JUMPDEST PUSH0 PUSH1 0x20 DUP3 ADD SWAP1 POP DUP2 DUP2 SUB PUSH0 DUP4 ADD MSTORE PUSH2 0x3023 DUP2 PUSH2 0x2FEA JUMP JUMPDEST SWAP1 POP SWAP2 SWAP1 POP JUMP JUMPDEST PUSH0 PUSH2 0x3034 DUP3 PUSH2 0x276A JUMP JUMPDEST SWAP2 POP PUSH2 0x303F DUP4 PUSH2 0x276A JUMP JUMPDEST SWAP3 POP DUP3 DUP3 ADD SWAP1 POP DUP1 DUP3 GT ISZERO PUSH2 0x3057 JUMPI PUSH2 0x3056 PUSH2 0x2F54 JUMP JUMPDEST JUMPDEST SWAP3 SWAP2 POP POP JUMP JUMPDEST PUSH32 0x5075726368617365206578636565647320636170000000000000000000000000 PUSH0 DUP3 ADD MSTORE POP JUMP JUMPDEST PUSH0 PUSH2 0x3091 PUSH1 0x14 DUP4 PUSH2 0x2BDE JUMP JUMPDEST SWAP2 POP PUSH2 0x309C DUP3 PUSH2 0x305D JUMP JUMPDEST PUSH1 0x20 DUP3 ADD SWAP1 POP SWAP2 SWAP1 POP JUMP JUMPDEST PUSH0 PUSH1 0x20 DUP3 ADD SWAP1 POP DUP2 DUP2 SUB PUSH0 DUP4 ADD MSTORE PUSH2 0x30BE DUP2 PUSH2 0x3085 JUMP JUMPDEST SWAP1 POP SWAP2 SWAP1 POP JUMP JUMPDEST PUSH0 PUSH1 0x40 DUP3 ADD SWAP1 POP PUSH2 0x30D8 PUSH0 DUP4 ADD DUP6 PUSH2 0x2883 JUMP JUMPDEST PUSH2 0x30E5 PUSH1 0x20 DUP4 ADD DUP5 PUSH2 0x285B JUMP JUMPDEST SWAP4 SWAP3 POP POP POP JUMP JUMPDEST PUSH0 DUP2 SWAP1 POP SWAP2 SWAP1 POP JUMP JUMPDEST PUSH0 PUSH8 0xFFFFFFFFFFFFFFFF DUP3 AND SWAP1 POP SWAP2 SWAP1 POP JUMP JUMPDEST PUSH0 PUSH2 0x3122 PUSH2 0x311D PUSH2 0x3118 DUP5 PUSH2 0x30EC JUMP JUMPDEST PUSH2 0x2C54 JUMP JUMPDEST PUSH2 0x30F5 JUMP JUMPDEST SWAP1 POP SWAP2 SWAP1 POP JUMP JUMPDEST PUSH2 0x3132 DUP2 PUSH2 0x3108 JUMP JUMPDEST DUP3 MSTORE POP POP JUMP JUMPDEST PUSH0 PUSH1 0x20 DUP3 ADD SWAP1 POP PUSH2 0x314B PUSH0 DUP4 ADD DUP5 PUSH2 0x3129 JUMP JUMPDEST SWAP3 SWAP2 POP POP JUMP JUMPDEST PUSH32 0x43757272656E742074696D65206973206265666F72652072656C656173652074 PUSH0 DUP3 ADD MSTORE PUSH32 0x696D650000000000000000000000000000000000000000000000000000000000 PUSH1 0x20 DUP3 ADD MSTORE POP JUMP JUMPDEST PUSH0 PUSH2 0x31AB PUSH1 0x23 DUP4 PUSH2 0x2BDE JUMP JUMPDEST SWAP2 POP PUSH2 0x31B6 DUP3 PUSH2 0x3151 JUMP JUMPDEST PUSH1 0x40 DUP3 ADD SWAP1 POP SWAP2 SWAP1 POP JUMP JUMPDEST PUSH0 PUSH1 0x20 DUP3 ADD SWAP1 POP DUP2 DUP2 SUB PUSH0 DUP4 ADD MSTORE PUSH2 0x31D8 DUP2 PUSH2 0x319F JUMP JUMPDEST SWAP1 POP SWAP2 SWAP1 POP JUMP JUMPDEST PUSH32 0x4E6F20746F6B656E732061726520647565000000000000000000000000000000 PUSH0 DUP3 ADD MSTORE POP JUMP JUMPDEST PUSH0 PUSH2 0x3213 PUSH1 0x11 DUP4 PUSH2 0x2BDE JUMP JUMPDEST SWAP2 POP PUSH2 0x321E DUP3 PUSH2 0x31DF JUMP JUMPDEST PUSH1 0x20 DUP3 ADD SWAP1 POP SWAP2 SWAP1 POP JUMP JUMPDEST PUSH0 PUSH1 0x20 DUP3 ADD SWAP1 POP DUP2 DUP2 SUB PUSH0 DUP4 ADD MSTORE PUSH2 0x3240 DUP2 PUSH2 0x3207 JUMP JUMPDEST SWAP1 POP SWAP2 SWAP1 POP JUMP JUMPDEST PUSH0 PUSH1 0x60 DUP3 ADD SWAP1 POP PUSH2 0x325A PUSH0 DUP4 ADD DUP7 PUSH2 0x2883 JUMP JUMPDEST PUSH2 0x3267 PUSH1 0x20 DUP4 ADD DUP6 PUSH2 0x2883 JUMP JUMPDEST PUSH2 0x3274 PUSH1 0x40 DUP4 ADD DUP5 PUSH2 0x285B JUMP JUMPDEST SWAP5 SWAP4 POP POP POP POP JUMP JUMPDEST PUSH2 0x3285 DUP2 PUSH2 0x26B2 JUMP JUMPDEST DUP2 EQ PUSH2 0x328F JUMPI PUSH0 DUP1 REVERT JUMPDEST POP JUMP JUMPDEST PUSH0 DUP2 MLOAD SWAP1 POP PUSH2 0x32A0 DUP2 PUSH2 0x327C JUMP JUMPDEST SWAP3 SWAP2 POP POP JUMP JUMPDEST PUSH0 PUSH1 0x20 DUP3 DUP5 SUB SLT ISZERO PUSH2 0x32BB JUMPI PUSH2 0x32BA PUSH2 0x262A JUMP JUMPDEST JUMPDEST PUSH0 PUSH2 0x32C8 DUP5 DUP3 DUP6 ADD PUSH2 0x3292 JUMP JUMPDEST SWAP2 POP POP SWAP3 SWAP2 POP POP JUMP JUMPDEST PUSH0 DUP2 MLOAD SWAP1 POP PUSH2 0x32DF DUP2 PUSH2 0x28AB JUMP JUMPDEST SWAP3 SWAP2 POP POP JUMP JUMPDEST PUSH0 PUSH1 0x20 DUP3 DUP5 SUB SLT ISZERO PUSH2 0x32FA JUMPI PUSH2 0x32F9 PUSH2 0x262A JUMP JUMPDEST JUMPDEST PUSH0 PUSH2 0x3307 DUP5 DUP3 DUP6 ADD PUSH2 0x32D1 JUMP JUMPDEST SWAP2 POP POP SWAP3 SWAP2 POP POP JUMP JUMPDEST PUSH0 PUSH1 0x40 DUP3 ADD SWAP1 POP PUSH2 0x3323 PUSH0 DUP4 ADD DUP6 PUSH2 0x2883 JUMP JUMPDEST PUSH2 0x3330 PUSH1 0x20 DUP4 ADD DUP5 PUSH2 0x25F9 JUMP JUMPDEST SWAP4 SWAP3 POP POP POP JUMP JUMPDEST PUSH0 DUP2 MLOAD SWAP1 POP SWAP2 SWAP1 POP JUMP JUMPDEST PUSH0 DUP2 SWAP1 POP SWAP3 SWAP2 POP POP JUMP JUMPDEST PUSH0 PUSH2 0x3355 DUP3 PUSH2 0x3337 JUMP JUMPDEST PUSH2 0x335F DUP2 DUP6 PUSH2 0x3341 JUMP JUMPDEST SWAP4 POP PUSH2 0x336F DUP2 DUP6 PUSH1 0x20 DUP7 ADD PUSH2 0x2BEE JUMP JUMPDEST DUP1 DUP5 ADD SWAP2 POP POP SWAP3 SWAP2 POP POP JUMP JUMPDEST PUSH0 PUSH2 0x3386 DUP3 DUP5 PUSH2 0x334B JUMP JUMPDEST SWAP2 POP DUP2 SWAP1 POP SWAP3 SWAP2 POP POP JUMP INVALID LOG2 PUSH5 0x6970667358 0x22 SLT KECCAK256 0x29 DUP12 0xE3 0xB8 0xF ORIGIN 0xA6 SWAP1 DUP13 CALLDATALOAD SHR 0xA6 0x1F 0xA8 0xF9 0xCE 0xE8 0xC6 0x2E 0xCB MULMOD MULMOD POP PUSH30 0x9DDE31809C5A2F464736F6C634300081A00330000000000000000000000 "
		},
		"gasEstimates": {
			"creation": {
				"codeDepositCost": "2651000",
				"executionCost": "infinite",
				"totalCost": "infinite"
			},
			"external": {
				"COMMUNITY_MEMBER_ROLE()": "372",
				"DEFAULT_ADMIN_ROLE()": "463",
				"INVESTOR_ROLE()": "459",
				"PAUSER_ROLE()": "391",
				"UPGRADER_ROLE()": "435",
				"UPGRADE_INTERFACE_VERSION()": "infinite",
				"addAddressToWhitelist(address)": "infinite",
				"addCommunityMember(address)": "infinite",
				"addInvestor(address)": "infinite",
				"buyTokens(uint256)": "infinite",
				"founder()": "2638",
				"getRoleAdmin(bytes32)": "infinite",
				"grantRole(bytes32,address)": "infinite",
				"hasRole(bytes32,address)": "3285",
				"initialize(address,address,address,address,address,uint256,uint256,uint256,uint256,uint256)": "infinite",
				"pause()": "infinite",
				"paused()": "2637",
				"proxiableUUID()": "infinite",
				"proxyAddress()": "2576",
				"purchasedAmount(address)": "2891",
				"releaseTime()": "2514",
				"releaseTokens()": "infinite",
				"removeAddressFromWhitelist(address)": "infinite",
				"removeCommunityMember(address)": "infinite",
				"removeInvestor(address)": "infinite",
				"renounceRole(bytes32,address)": "infinite",
				"revokeRole(bytes32,address)": "infinite",
				"setTokenPrice(uint256,string)": "infinite",
				"setTotalCap(uint256)": "infinite",
				"supportsInterface(bytes4)": "786",
				"token()": "infinite",
				"tokenPriceCommunity()": "2560",
				"tokenPriceInvestor()": "2536",
				"tokenPricePublic()": "2492",
				"totalCap()": "2471",
				"unpause()": "infinite",
				"upgradeToAndCall(address,bytes)": "infinite",
				"vestedAmount(address)": "2914",
				"whitelistedAddresses(address)": "2924",
				"withdraw()": "infinite"
			},
			"internal": {
				"_authorizeUpgrade(address)": "infinite",
				"_initializeRoles(address,address,address)": "infinite"
			}
		},
		"methodIdentifiers": {
			"COMMUNITY_MEMBER_ROLE()": "00dce23f",
			"DEFAULT_ADMIN_ROLE()": "a217fddf",
			"INVESTOR_ROLE()": "76082a5e",
			"PAUSER_ROLE()": "e63ab1e9",
			"UPGRADER_ROLE()": "f72c0d8b",
			"UPGRADE_INTERFACE_VERSION()": "ad3cb1cc",
			"addAddressToWhitelist(address)": "7b9417c8",
			"addCommunityMember(address)": "5c627358",
			"addInvestor(address)": "e641bde1",
			"buyTokens(uint256)": "3610724e",
			"founder()": "4d853ee5",
			"getRoleAdmin(bytes32)": "248a9ca3",
			"grantRole(bytes32,address)": "2f2ff15d",
			"hasRole(bytes32,address)": "91d14854",
			"initialize(address,address,address,address,address,uint256,uint256,uint256,uint256,uint256)": "46e73271",
			"pause()": "8456cb59",
			"paused()": "5c975abb",
			"proxiableUUID()": "52d1902d",
			"proxyAddress()": "23f5c02d",
			"purchasedAmount(address)": "44c4dcc1",
			"releaseTime()": "b91d4001",
			"releaseTokens()": "a96f8668",
			"removeAddressFromWhitelist(address)": "286dd3f5",
			"removeCommunityMember(address)": "2dbf645a",
			"removeInvestor(address)": "42714978",
			"renounceRole(bytes32,address)": "36568abe",
			"revokeRole(bytes32,address)": "d547741f",
			"setTokenPrice(uint256,string)": "096f072b",
			"setTotalCap(uint256)": "e1884b0f",
			"supportsInterface(bytes4)": "01ffc9a7",
			"token()": "fc0c546a",
			"tokenPriceCommunity()": "0b10d5f2",
			"tokenPriceInvestor()": "d29cb7ad",
			"tokenPricePublic()": "7de69d5f",
			"totalCap()": "16450092",
			"unpause()": "3f4ba83a",
			"upgradeToAndCall(address,bytes)": "4f1ef286",
			"vestedAmount(address)": "384711cc",
			"whitelistedAddresses(address)": "06c933d8",
			"withdraw()": "3ccfd60b"
		}
	},
	"abi": [
		{
			"inputs": [],
			"stateMutability": "nonpayable",
			"type": "constructor"
		},
		{
			"inputs": [],
			"name": "AccessControlBadConfirmation",
			"type": "error"
		},
		{
			"inputs": [
				{
					"internalType": "address",
					"name": "account",
					"type": "address"
				},
				{
					"internalType": "bytes32",
					"name": "neededRole",
					"type": "bytes32"
				}
			],
			"name": "AccessControlUnauthorizedAccount",
			"type": "error"
		},
		{
			"inputs": [
				{
					"internalType": "address",
					"name": "target",
					"type": "address"
				}
			],
			"name": "AddressEmptyCode",
			"type": "error"
		},
		{
			"inputs": [
				{
					"internalType": "address",
					"name": "implementation",
					"type": "address"
				}
			],
			"name": "ERC1967InvalidImplementation",
			"type": "error"
		},
		{
			"inputs": [],
			"name": "ERC1967NonPayable",
			"type": "error"
		},
		{
			"inputs": [],
			"name": "EnforcedPause",
			"type": "error"
		},
		{
			"inputs": [],
			"name": "ExpectedPause",
			"type": "error"
		},
		{
			"inputs": [],
			"name": "FailedInnerCall",
			"type": "error"
		},
		{
			"inputs": [],
			"name": "InvalidInitialization",
			"type": "error"
		},
		{
			"inputs": [],
			"name": "NotInitializing",
			"type": "error"
		},
		{
			"inputs": [],
			"name": "UUPSUnauthorizedCallContext",
			"type": "error"
		},
		{
			"inputs": [
				{
					"internalType": "bytes32",
					"name": "slot",
					"type": "bytes32"
				}
			],
			"name": "UUPSUnsupportedProxiableUUID",
			"type": "error"
		},
		{
			"anonymous": false,
			"inputs": [
				{
					"indexed": true,
					"internalType": "address",
					"name": "addr",
					"type": "address"
				}
			],
			"name": "AddressRemovedFromWhitelist",
			"type": "event"
		},
		{
			"anonymous": false,
			"inputs": [
				{
					"indexed": true,
					"internalType": "address",
					"name": "addr",
					"type": "address"
				}
			],
			"name": "AddressWhitelisted",
			"type": "event"
		},
		{
			"anonymous": false,
			"inputs": [
				{
					"indexed": false,
					"internalType": "address",
					"name": "account",
					"type": "address"
				}
			],
			"name": "CommunityMemberAdded",
			"type": "event"
		},
		{
			"anonymous": false,
			"inputs": [
				{
					"indexed": false,
					"internalType": "address",
					"name": "account",
					"type": "address"
				}
			],
			"name": "CommunityMemberRemoved",
			"type": "event"
		},
		{
			"anonymous": false,
			"inputs": [
				{
					"indexed": false,
					"internalType": "address",
					"name": "recipient",
					"type": "address"
				},
				{
					"indexed": false,
					"internalType": "uint256",
					"name": "amount",
					"type": "uint256"
				}
			],
			"name": "FundsWithdrawn",
			"type": "event"
		},
		{
			"anonymous": false,
			"inputs": [
				{
					"indexed": false,
					"internalType": "uint64",
					"name": "version",
					"type": "uint64"
				}
			],
			"name": "Initialized",
			"type": "event"
		},
		{
			"anonymous": false,
			"inputs": [
				{
					"indexed": false,
					"internalType": "address",
					"name": "account",
					"type": "address"
				}
			],
			"name": "InvestorAdded",
			"type": "event"
		},
		{
			"anonymous": false,
			"inputs": [
				{
					"indexed": false,
					"internalType": "address",
					"name": "account",
					"type": "address"
				}
			],
			"name": "InvestorRemoved",
			"type": "event"
		},
		{
			"anonymous": false,
			"inputs": [
				{
					"indexed": false,
					"internalType": "address",
					"name": "account",
					"type": "address"
				}
			],
			"name": "Paused",
			"type": "event"
		},
		{
			"anonymous": false,
			"inputs": [
				{
					"indexed": true,
					"internalType": "bytes32",
					"name": "role",
					"type": "bytes32"
				},
				{
					"indexed": true,
					"internalType": "bytes32",
					"name": "previousAdminRole",
					"type": "bytes32"
				},
				{
					"indexed": true,
					"internalType": "bytes32",
					"name": "newAdminRole",
					"type": "bytes32"
				}
			],
			"name": "RoleAdminChanged",
			"type": "event"
		},
		{
			"anonymous": false,
			"inputs": [
				{
					"indexed": true,
					"internalType": "bytes32",
					"name": "role",
					"type": "bytes32"
				},
				{
					"indexed": true,
					"internalType": "address",
					"name": "account",
					"type": "address"
				},
				{
					"indexed": true,
					"internalType": "address",
					"name": "sender",
					"type": "address"
				}
			],
			"name": "RoleGranted",
			"type": "event"
		},
		{
			"anonymous": false,
			"inputs": [
				{
					"indexed": true,
					"internalType": "bytes32",
					"name": "role",
					"type": "bytes32"
				},
				{
					"indexed": true,
					"internalType": "address",
					"name": "account",
					"type": "address"
				},
				{
					"indexed": true,
					"internalType": "address",
					"name": "sender",
					"type": "address"
				}
			],
			"name": "RoleRevoked",
			"type": "event"
		},
		{
			"anonymous": false,
			"inputs": [
				{
					"indexed": false,
					"internalType": "uint256",
					"name": "newPrice",
					"type": "uint256"
				},
				{
					"indexed": false,
					"internalType": "string",
					"name": "role",
					"type": "string"
				}
			],
			"name": "TokenPriceUpdated",
			"type": "event"
		},
		{
			"anonymous": false,
			"inputs": [
				{
					"indexed": true,
					"internalType": "address",
					"name": "purchaser",
					"type": "address"
				},
				{
					"indexed": false,
					"internalType": "uint256",
					"name": "amount",
					"type": "uint256"
				}
			],
			"name": "TokensPurchased",
			"type": "event"
		},
		{
			"anonymous": false,
			"inputs": [
				{
					"indexed": false,
					"internalType": "address",
					"name": "beneficiary",
					"type": "address"
				},
				{
					"indexed": false,
					"internalType": "uint256",
					"name": "amount",
					"type": "uint256"
				}
			],
			"name": "TokensReleased",
			"type": "event"
		},
		{
			"anonymous": false,
			"inputs": [
				{
					"indexed": false,
					"internalType": "uint256",
					"name": "newCap",
					"type": "uint256"
				}
			],
			"name": "TotalCapUpdated",
			"type": "event"
		},
		{
			"anonymous": false,
			"inputs": [
				{
					"indexed": false,
					"internalType": "address",
					"name": "account",
					"type": "address"
				}
			],
			"name": "Unpaused",
			"type": "event"
		},
		{
			"anonymous": false,
			"inputs": [
				{
					"indexed": true,
					"internalType": "address",
					"name": "implementation",
					"type": "address"
				}
			],
			"name": "Upgraded",
			"type": "event"
		},
		{
			"inputs": [],
			"name": "COMMUNITY_MEMBER_ROLE",
			"outputs": [
				{
					"internalType": "bytes32",
					"name": "",
					"type": "bytes32"
				}
			],
			"stateMutability": "view",
			"type": "function"
		},
		{
			"inputs": [],
			"name": "DEFAULT_ADMIN_ROLE",
			"outputs": [
				{
					"internalType": "bytes32",
					"name": "",
					"type": "bytes32"
				}
			],
			"stateMutability": "view",
			"type": "function"
		},
		{
			"inputs": [],
			"name": "INVESTOR_ROLE",
			"outputs": [
				{
					"internalType": "bytes32",
					"name": "",
					"type": "bytes32"
				}
			],
			"stateMutability": "view",
			"type": "function"
		},
		{
			"inputs": [],
			"name": "PAUSER_ROLE",
			"outputs": [
				{
					"internalType": "bytes32",
					"name": "",
					"type": "bytes32"
				}
			],
			"stateMutability": "view",
			"type": "function"
		},
		{
			"inputs": [],
			"name": "UPGRADER_ROLE",
			"outputs": [
				{
					"internalType": "bytes32",
					"name": "",
					"type": "bytes32"
				}
			],
			"stateMutability": "view",
			"type": "function"
		},
		{
			"inputs": [],
			"name": "UPGRADE_INTERFACE_VERSION",
			"outputs": [
				{
					"internalType": "string",
					"name": "",
					"type": "string"
				}
			],
			"stateMutability": "view",
			"type": "function"
		},
		{
			"inputs": [
				{
					"internalType": "address",
					"name": "addr",
					"type": "address"
				}
			],
			"name": "addAddressToWhitelist",
			"outputs": [],
			"stateMutability": "nonpayable",
			"type": "function"
		},
		{
			"inputs": [
				{
					"internalType": "address",
					"name": "account",
					"type": "address"
				}
			],
			"name": "addCommunityMember",
			"outputs": [],
			"stateMutability": "nonpayable",
			"type": "function"
		},
		{
			"inputs": [
				{
					"internalType": "address",
					"name": "account",
					"type": "address"
				}
			],
			"name": "addInvestor",
			"outputs": [],
			"stateMutability": "nonpayable",
			"type": "function"
		},
		{
			"inputs": [
				{
					"internalType": "uint256",
					"name": "_amount",
					"type": "uint256"
				}
			],
			"name": "buyTokens",
			"outputs": [],
			"stateMutability": "payable",
			"type": "function"
		},
		{
			"inputs": [],
			"name": "founder",
			"outputs": [
				{
					"internalType": "address",
					"name": "",
					"type": "address"
				}
			],
			"stateMutability": "view",
			"type": "function"
		},
		{
			"inputs": [
				{
					"internalType": "bytes32",
					"name": "role",
					"type": "bytes32"
				}
			],
			"name": "getRoleAdmin",
			"outputs": [
				{
					"internalType": "bytes32",
					"name": "",
					"type": "bytes32"
				}
			],
			"stateMutability": "view",
			"type": "function"
		},
		{
			"inputs": [
				{
					"internalType": "bytes32",
					"name": "role",
					"type": "bytes32"
				},
				{
					"internalType": "address",
					"name": "account",
					"type": "address"
				}
			],
			"name": "grantRole",
			"outputs": [],
			"stateMutability": "nonpayable",
			"type": "function"
		},
		{
			"inputs": [
				{
					"internalType": "bytes32",
					"name": "role",
					"type": "bytes32"
				},
				{
					"internalType": "address",
					"name": "account",
					"type": "address"
				}
			],
			"name": "hasRole",
			"outputs": [
				{
					"internalType": "bool",
					"name": "",
					"type": "bool"
				}
			],
			"stateMutability": "view",
			"type": "function"
		},
		{
			"inputs": [
				{
					"internalType": "address",
					"name": "defaultAdmin",
					"type": "address"
				},
				{
					"internalType": "address",
					"name": "pauser",
					"type": "address"
				},
				{
					"internalType": "address",
					"name": "upgrader",
					"type": "address"
				},
				{
					"internalType": "address",
					"name": "_tokenAddress",
					"type": "address"
				},
				{
					"internalType": "address",
					"name": "_proxyAddress",
					"type": "address"
				},
				{
					"internalType": "uint256",
					"name": "_tokenPriceInvestor",
					"type": "uint256"
				},
				{
					"internalType": "uint256",
					"name": "_tokenPriceCommunity",
					"type": "uint256"
				},
				{
					"internalType": "uint256",
					"name": "_tokenPricePublic",
					"type": "uint256"
				},
				{
					"internalType": "uint256",
					"name": "_totalCap",
					"type": "uint256"
				},
				{
					"internalType": "uint256",
					"name": "_releaseTime",
					"type": "uint256"
				}
			],
			"name": "initialize",
			"outputs": [],
			"stateMutability": "nonpayable",
			"type": "function"
		},
		{
			"inputs": [],
			"name": "pause",
			"outputs": [],
			"stateMutability": "nonpayable",
			"type": "function"
		},
		{
			"inputs": [],
			"name": "paused",
			"outputs": [
				{
					"internalType": "bool",
					"name": "",
					"type": "bool"
				}
			],
			"stateMutability": "view",
			"type": "function"
		},
		{
			"inputs": [],
			"name": "proxiableUUID",
			"outputs": [
				{
					"internalType": "bytes32",
					"name": "",
					"type": "bytes32"
				}
			],
			"stateMutability": "view",
			"type": "function"
		},
		{
			"inputs": [],
			"name": "proxyAddress",
			"outputs": [
				{
					"internalType": "address",
					"name": "",
					"type": "address"
				}
			],
			"stateMutability": "view",
			"type": "function"
		},
		{
			"inputs": [
				{
					"internalType": "address",
					"name": "",
					"type": "address"
				}
			],
			"name": "purchasedAmount",
			"outputs": [
				{
					"internalType": "uint256",
					"name": "",
					"type": "uint256"
				}
			],
			"stateMutability": "view",
			"type": "function"
		},
		{
			"inputs": [],
			"name": "releaseTime",
			"outputs": [
				{
					"internalType": "uint256",
					"name": "",
					"type": "uint256"
				}
			],
			"stateMutability": "view",
			"type": "function"
		},
		{
			"inputs": [],
			"name": "releaseTokens",
			"outputs": [],
			"stateMutability": "nonpayable",
			"type": "function"
		},
		{
			"inputs": [
				{
					"internalType": "address",
					"name": "addr",
					"type": "address"
				}
			],
			"name": "removeAddressFromWhitelist",
			"outputs": [],
			"stateMutability": "nonpayable",
			"type": "function"
		},
		{
			"inputs": [
				{
					"internalType": "address",
					"name": "account",
					"type": "address"
				}
			],
			"name": "removeCommunityMember",
			"outputs": [],
			"stateMutability": "nonpayable",
			"type": "function"
		},
		{
			"inputs": [
				{
					"internalType": "address",
					"name": "account",
					"type": "address"
				}
			],
			"name": "removeInvestor",
			"outputs": [],
			"stateMutability": "nonpayable",
			"type": "function"
		},
		{
			"inputs": [
				{
					"internalType": "bytes32",
					"name": "role",
					"type": "bytes32"
				},
				{
					"internalType": "address",
					"name": "callerConfirmation",
					"type": "address"
				}
			],
			"name": "renounceRole",
			"outputs": [],
			"stateMutability": "nonpayable",
			"type": "function"
		},
		{
			"inputs": [
				{
					"internalType": "bytes32",
					"name": "role",
					"type": "bytes32"
				},
				{
					"internalType": "address",
					"name": "account",
					"type": "address"
				}
			],
			"name": "revokeRole",
			"outputs": [],
			"stateMutability": "nonpayable",
			"type": "function"
		},
		{
			"inputs": [
				{
					"internalType": "uint256",
					"name": "_newPrice",
					"type": "uint256"
				},
				{
					"internalType": "string",
					"name": "role",
					"type": "string"
				}
			],
			"name": "setTokenPrice",
			"outputs": [],
			"stateMutability": "nonpayable",
			"type": "function"
		},
		{
			"inputs": [
				{
					"internalType": "uint256",
					"name": "_newCap",
					"type": "uint256"
				}
			],
			"name": "setTotalCap",
			"outputs": [],
			"stateMutability": "nonpayable",
			"type": "function"
		},
		{
			"inputs": [
				{
					"internalType": "bytes4",
					"name": "interfaceId",
					"type": "bytes4"
				}
			],
			"name": "supportsInterface",
			"outputs": [
				{
					"internalType": "bool",
					"name": "",
					"type": "bool"
				}
			],
			"stateMutability": "view",
			"type": "function"
		},
		{
			"inputs": [],
			"name": "token",
			"outputs": [
				{
					"internalType": "contract IERC20",
					"name": "",
					"type": "address"
				}
			],
			"stateMutability": "view",
			"type": "function"
		},
		{
			"inputs": [],
			"name": "tokenPriceCommunity",
			"outputs": [
				{
					"internalType": "uint256",
					"name": "",
					"type": "uint256"
				}
			],
			"stateMutability": "view",
			"type": "function"
		},
		{
			"inputs": [],
			"name": "tokenPriceInvestor",
			"outputs": [
				{
					"internalType": "uint256",
					"name": "",
					"type": "uint256"
				}
			],
			"stateMutability": "view",
			"type": "function"
		},
		{
			"inputs": [],
			"name": "tokenPricePublic",
			"outputs": [
				{
					"internalType": "uint256",
					"name": "",
					"type": "uint256"
				}
			],
			"stateMutability": "view",
			"type": "function"
		},
		{
			"inputs": [],
			"name": "totalCap",
			"outputs": [
				{
					"internalType": "uint256",
					"name": "",
					"type": "uint256"
				}
			],
			"stateMutability": "view",
			"type": "function"
		},
		{
			"inputs": [],
			"name": "unpause",
			"outputs": [],
			"stateMutability": "nonpayable",
			"type": "function"
		},
		{
			"inputs": [
				{
					"internalType": "address",
					"name": "newImplementation",
					"type": "address"
				},
				{
					"internalType": "bytes",
					"name": "data",
					"type": "bytes"
				}
			],
			"name": "upgradeToAndCall",
			"outputs": [],
			"stateMutability": "payable",
			"type": "function"
		},
		{
			"inputs": [
				{
					"internalType": "address",
					"name": "",
					"type": "address"
				}
			],
			"name": "vestedAmount",
			"outputs": [
				{
					"internalType": "uint256",
					"name": "",
					"type": "uint256"
				}
			],
			"stateMutability": "view",
			"type": "function"
		},
		{
			"inputs": [
				{
					"internalType": "address",
					"name": "",
					"type": "address"
				}
			],
			"name": "whitelistedAddresses",
			"outputs": [
				{
					"internalType": "bool",
					"name": "",
					"type": "bool"
				}
			],
			"stateMutability": "view",
			"type": "function"
		},
		{
			"inputs": [],
			"name": "withdraw",
			"outputs": [],
			"stateMutability": "nonpayable",
			"type": "function"
		}
	]
}