{
	"data": {
		"bytecode": {
			"linkReferences": {},
			"object": "60a06040523060805260016006819055600755348015601c575f80fd5b50608051612b636100435f395f8181611d1901528181611d420152611ea50152612b635ff3fe608060405260043610610249575f3560e01c80638a13eea711610134578063bfb231d2116100b3578063e551ba4b11610078578063e551ba4b1461077b578063e63ab1e91461079a578063ee99205c146107ba578063f4e0d9ac146107d9578063f5e95acb146107f8578063f72c0d8b14610817575f80fd5b8063bfb231d214610646578063d3dcff7c14610677578063d547741f146106a6578063d836fc6f146106c5578063e2eb41ff146106e4575f80fd5b8063a75859e1116100f9578063a75859e11461057e578063a9834b67146105ab578063ad3cb1cc146105ca578063b001f61814610607578063be22d27d14610626575f80fd5b80638a13eea7146104f057806391d148541461050e578063965afa891461052d5780639a03d9a31461054c578063a217fddf1461056b575f80fd5b806341bec0d2116101cb57806352d1902d1161019057806352d1902d146104485780635c975abb1461045c5780635f2d6bcd1461047f5780636f347a781461049e5780637309cbbd146104bd5780638456cb59146104dc575f80fd5b806341bec0d2146103aa578063443c227c146103c95780634a7ffcbc146103f75780634f1ef286146104165780634fa4a1bb14610429575f80fd5b80632f2ff15d116102115780632f2ff15d1461032557806331fee8be1461034457806336568abe146103635780633f4ba83a146103825780633fa9fcf814610396575f80fd5b806301ffc9a71461024d57806302eec5681461028157806317435e1a146102b857806321f42268146102d9578063248a9ca3146102f8575b5f80fd5b348015610258575f80fd5b5061026c6102673660046122c5565b61084a565b60405190151581526020015b60405180910390f35b34801561028c575f80fd5b506005546102a0906001600160a01b031681565b6040516001600160a01b039091168152602001610278565b3480156102c3575f80fd5b506102d76102d23660046123a6565b610880565b005b3480156102e4575f80fd5b506002546102a0906001600160a01b031681565b348015610303575f80fd5b506103176103123660046123df565b6109b4565b604051908152602001610278565b348015610330575f80fd5b506102d761033f366004612411565b6109d4565b34801561034f575f80fd5b506102d761035e36600461243b565b6109f6565b34801561036e575f80fd5b506102d761037d366004612411565b610ae7565b34801561038d575f80fd5b506102d7610b1f565b3480156103a1575f80fd5b506102d7610b41565b3480156103b5575f80fd5b506102d76103c4366004612492565b610d0f565b3480156103d4575f80fd5b506103176103e33660046123df565b600d6020525f908152604090206001015481565b348015610402575f80fd5b506003546102a0906001600160a01b031681565b6102d76104243660046124ab565b610d48565b348015610434575f80fd5b506102d7610443366004612508565b610d63565b348015610453575f80fd5b50610317610f69565b348015610467575f80fd5b505f80516020612b0e8339815191525460ff1661026c565b34801561048a575f80fd5b506001546102a0906001600160a01b031681565b3480156104a9575f80fd5b506102d76104b8366004612549565b610f84565b3480156104c8575f80fd5b506102d76104d73660046123df565b61102e565b3480156104e7575f80fd5b506102d761134d565b3480156104fb575f80fd5b505f546102a0906001600160a01b031681565b348015610519575f80fd5b5061026c610528366004612411565b61136c565b348015610538575f80fd5b506102d7610547366004612492565b6113a2565b348015610557575f80fd5b506102d7610566366004612492565b6113dc565b348015610576575f80fd5b506103175f81565b348015610589575f80fd5b5061059d610598366004612492565b611416565b6040516102789291906125e3565b3480156105b6575f80fd5b506102d76105c536600461260c565b6114c0565b3480156105d5575f80fd5b506105fa604051806040016040528060058152602001640352e302e360dc1b81525081565b60405161027891906126be565b348015610612575f80fd5b506102d7610621366004612492565b611570565b348015610631575f80fd5b506103175f80516020612a8e83398151915281565b348015610651575f80fd5b506106656106603660046123df565b6115aa565b604051610278969594939291906126d0565b348015610682575f80fd5b5061069661069136600461270d565b611664565b6040516102789493929190612735565b3480156106b1575f80fd5b506102d76106c0366004612411565b6117ba565b3480156106d0575f80fd5b506102d76106df366004612492565b6117d6565b3480156106ef575f80fd5b506107406106fe366004612492565b60096020525f90815260409020805460018201546002830154600384015460048501546005860154600687015460079097015495969495939492939192909188565b604080519889526020890197909752958701949094526060860192909252608085015260a084015260c083015260e082015261010001610278565b348015610786575f80fd5b506102d76107953660046123a6565b611810565b3480156107a5575f80fd5b506103175f80516020612ace83398151915281565b3480156107c5575f80fd5b506004546102a0906001600160a01b031681565b3480156107e4575f80fd5b506102d76107f3366004612492565b611967565b348015610803575f80fd5b506102d7610812366004612772565b6119a1565b348015610822575f80fd5b506103177f189ab7a9244df0848122154315af71fe140f3db0fe014031783b0946b8c9d2e381565b5f6001600160e01b03198216637965db0b60e01b148061087a57506301ffc9a760e01b6001600160e01b03198316145b92915050565b5f5b335f908152600a60205260409020548110156109b057335f908152600a602052604081208054839081106108b8576108b8612814565b905f5260205f2090600402019050826040516020016108d7919061283f565b60408051601f19818403018152908290528051602091820120916108fd91849101612882565b604051602081830303815290604052805190602001201480156109255750600381015460ff16155b156109a75760038101805460ff191660019081179091556002820154335f908152600960205260408120909201805491929091610963908490612907565b909155505060405133907fbe21664565742a9f42cbb6d005f92db59c7bcad35b12ef5b57b79e75676b247a9061099a9086906126be565b60405180910390a2505050565b50600101610882565b5050565b5f9081525f80516020612aee833981519152602052604090206001015490565b6109dd826109b4565b6109e681611b8b565b6109f08383611b95565b50505050565b5f80516020612a8e833981519152610a0d81611b8b565b6040805160c08101825260065480825260208083018a81528385018a9052606084018990526080840188905260a084018790525f92835260089091529290208151815591519091906001820190610a649082612965565b5060408201518160020155606082015181600301556080820151816004015560a082015181600501559050507f78d68ba0e8c23b92e7c700d99efed2719520cbd4af845b2c03ae251f9cdf3d5260065487604051610ac3929190612a1f565b60405180910390a160068054905f610ada83612a37565b9190505550505050505050565b6001600160a01b0381163314610b105760405163334bd91960e11b815260040160405180910390fd5b610b1a8282611c36565b505050565b5f80516020612ace833981519152610b3681611b8b565b610b3e611caf565b50565b335f9081526009602052604090205415610b9a5760405162461bcd60e51b8152602060048201526015602482015274506c6179657220616c72656164792065786973747360581b60448201526064015b60405180910390fd5b604051806101400160405280600181526020015f81526020016064815260200160328152602001600a81526020016005815260200160038152602001600281526020015f6001600160401b03811115610bf557610bf56122ec565b604051908082528060200260200182016040528015610c1e578160200160208202803683370190505b5081526020015f604051908082528060200260200182016040528015610c4e578160200160208202803683370190505b509052335f9081526009602090815260409182902083518155838201516001820155918301516002830155606083015160038301556080830151600483015560a0830151600583015560c0830151600683015560e083015160078301556101008301518051610cc39260088501920190612215565b506101208201518051610ce0916009840191602090910190612215565b50506040513391507fb4cca19a27ce42915c3cee0cee28fc5d90969ee49f09ec71659546a63b5f7bc0905f90a2565b5f80516020612a8e833981519152610d2681611b8b565b505f80546001600160a01b0319166001600160a01b0392909216919091179055565b610d50611d0e565b610d5982611db4565b6109b08282611dde565b5f80516020612a8e833981519152610d7a81611b8b565b5f6001600160a01b0316600c84604051610d94919061283f565b908152604051908190036020019020546001600160a01b031614610df15760405162461bcd60e51b81526020600482015260146024820152734775696c6420616c72656164792065786973747360601b6044820152606401610b91565b604080516060810182528481526001600160a01b0384166020820152815160018082528184018452919283019181602001602082028036833750505090526001600160a01b0383165f908152600b6020526040902081518190610e549082612965565b506020828101516001830180546001600160a01b0319166001600160a01b0390921691909117905560408301518051610e93926002850192019061225e565b5050506001600160a01b0382165f908152600b602052604081206002018054849290610ec157610ec1612814565b905f5260205f20015f6101000a8154816001600160a01b0302191690836001600160a01b0316021790555081600c84604051610efd919061283f565b90815260405190819003602001812080546001600160a01b03939093166001600160a01b0319909316929092179091557f072208535a97b2e307167838c66aacd47f8de3a2cb92bc2ddb2b2b52009c9fd590610f5c90859085906125e3565b60405180910390a1505050565b5f610f72611e9a565b505f80516020612aae83398151915290565b5f80516020612a8e833981519152610f9b81611b8b565b335f908152600a602090815260408083208151608081018352888152808401889052918201869052606082018490528054600181018255908452919092208251600490920201908190610fee9082612965565b50602082015160018201906110039082612965565b50604082015160028201556060909101516003909101805460ff191691151591909117905550505050565b5f818152600d6020908152604080832081518154606094810282018501845292810183815290939192849284919084018282801561108957602002820191905f5260205f20905b815481526020019060010190808311611075575b5050505050815260200160018201548152505090505f815f015151116110e25760405162461bcd60e51b815260206004820152600e60248201526d496e76616c69642072656369706560901b6044820152606401610b91565b5f5b8151518110156111e3575f805b335f9081526009602052604090206008015481101561117c57835180518490811061111e5761111e612814565b602002602001015160095f336001600160a01b03166001600160a01b031681526020019081526020015f20600801828154811061115d5761115d612814565b905f5260205f20015403611174576001915061117c565b6001016110f1565b50806111da5760405162461bcd60e51b815260206004820152602760248201527f506c6179657220646f6573206e6f74206861766520616c6c207265717569726560448201526664206974656d7360c81b6064820152608401610b91565b506001016110e4565b505f5b815151811015611321575f5b335f9081526009602052604090206008015481101561131857825180518390811061121f5761121f612814565b602002602001015160095f336001600160a01b03166001600160a01b031681526020019081526020015f20600801828154811061125e5761125e612814565b905f5260205f2001540361131057335f908152600960205260409020600801805461128b90600190612a4f565b8154811061129b5761129b612814565b5f918252602080832090910154338352600990915260409091206008018054839081106112ca576112ca612814565b5f9182526020808320909101929092553381526009909152604090206008018054806112f8576112f8612a62565b600190038181905f5260205f20015f90559055611318565b6001016111f2565b506001016111e6565b50335f908152600960209081526040822092810151600890930180546001810182559083529120015550565b5f80516020612ace83398151915261136481611b8b565b610b3e611ee3565b5f9182525f80516020612aee833981519152602090815260408084206001600160a01b0393909316845291905290205460ff1690565b5f80516020612a8e8339815191526113b981611b8b565b50600380546001600160a01b0319166001600160a01b0392909216919091179055565b5f80516020612a8e8339815191526113f381611b8b565b50600180546001600160a01b0319166001600160a01b0392909216919091179055565b600b6020525f90815260409020805481906114309061284a565b80601f016020809104026020016040519081016040528092919081815260200182805461145c9061284a565b80156114a75780601f1061147e576101008083540402835291602001916114a7565b820191905f5260205f20905b81548152906001019060200180831161148a57829003601f168201915b505050600190930154919250506001600160a01b031682565b5f80516020612a8e8339815191526114d781611b8b565b60408051808201825284815260208082018590526007545f908152600d825292909220815180519293919261150f9284920190612215565b50602091820151600190910155600754604080519182529181018490527f9becfd2b1fc8127387c5b0002a6cbc8382e6c8fb9f76dfd6cfd92cbe94383d0e910160405180910390a160078054905f61156683612a37565b9190505550505050565b5f80516020612a8e83398151915261158781611b8b565b50600580546001600160a01b0319166001600160a01b0392909216919091179055565b60086020525f9081526040902080546001820180549192916115cb9061284a565b80601f01602080910402602001604051908101604052809291908181526020018280546115f79061284a565b80156116425780601f1061161957610100808354040283529160200191611642565b820191905f5260205f20905b81548152906001019060200180831161162557829003601f168201915b5050505050908060020154908060030154908060040154908060050154905086565b600a602052815f5260405f20818154811061167d575f80fd5b905f5260205f2090600402015f9150915050805f01805461169d9061284a565b80601f01602080910402602001604051908101604052809291908181526020018280546116c99061284a565b80156117145780601f106116eb57610100808354040283529160200191611714565b820191905f5260205f20905b8154815290600101906020018083116116f757829003601f168201915b5050505050908060010180546117299061284a565b80601f01602080910402602001604051908101604052809291908181526020018280546117559061284a565b80156117a05780601f10611777576101008083540402835291602001916117a0565b820191905f5260205f20905b81548152906001019060200180831161178357829003601f168201915b50505050600283015460039093015491929160ff16905084565b6117c3826109b4565b6117cc81611b8b565b6109f08383611c36565b5f80516020612a8e8339815191526117ed81611b8b565b50600280546001600160a01b0319166001600160a01b0392909216919091179055565b5f600c82604051611821919061283f565b908152604051908190036020019020546001600160a01b03169050806118805760405162461bcd60e51b815260206004820152601460248201527311dd5a5b1908191bd95cc81b9bdd08195e1a5cdd60621b6044820152606401610b91565b6001600160a01b0381165f908152600b60205260408120905b600282015481101561193d57336001600160a01b03168260020182815481106118c4576118c4612814565b5f918252602090912001546001600160a01b0316036119355760405162461bcd60e51b815260206004820152602760248201527f53656e64657220697320616c72656164792061206d656d626572206f66207468604482015266194819dd5a5b1960ca1b6064820152608401610b91565b600101611899565b5060020180546001810182555f91825260209091200180546001600160a01b031916331790555050565b5f80516020612a8e83398151915261197e81611b8b565b50600480546001600160a01b0319166001600160a01b0392909216919091179055565b7ff0c57e16840df040f15088dc2f81fe391c3923bec73e23a9662efc9c229c6a008054600160401b810460ff1615906001600160401b03165f811580156119e55750825b90505f826001600160401b03166001148015611a005750303b155b905081158015611a0e575080155b15611a2c5760405163f92ee8a960e01b815260040160405180910390fd5b845467ffffffffffffffff191660011785558315611a5657845460ff60401b1916600160401b1785555b611a5e611f2b565b611a66611f3b565b611a6e611f3b565b611a785f8f611b95565b50611a905f80516020612ace8339815191528e611b95565b50611abb7f189ab7a9244df0848122154315af71fe140f3db0fe014031783b0946b8c9d2e38d611b95565b50611ad35f80516020612a8e8339815191528f611b95565b505f80546001600160a01b03199081166001600160a01b038e8116919091179092556001805482168d84161790556002805482168c84161790556003805482168b84161790556004805482168a8416179055600580549091169188169190911790558315611b7b57845460ff60401b19168555604051600181527fc7f505b2f371ae2175ee4913f4499e1f2633a7b5936321eed1cdaeb6115181d29060200160405180910390a15b5050505050505050505050505050565b610b3e8133611f43565b5f5f80516020612aee833981519152611bae848461136c565b611c2d575f848152602082815260408083206001600160a01b03871684529091529020805460ff19166001179055611be33390565b6001600160a01b0316836001600160a01b0316857f2f8788117e7eff1d82e926ec794901d17c78024a50270940304540a733656f0d60405160405180910390a4600191505061087a565b5f91505061087a565b5f5f80516020612aee833981519152611c4f848461136c565b15611c2d575f848152602082815260408083206001600160a01b0387168085529252808320805460ff1916905551339287917ff6391f5c32d9c69d2a47ea670b442974b53935d1edc7fd64eb21e047a839171b9190a4600191505061087a565b611cb7611f7c565b5f80516020612b0e833981519152805460ff191681557f5db9ee0a495bf2e6ff9c91a7834c1ba4fdd244a5e8aa4e537bd38aeae4b073aa335b6040516001600160a01b03909116815260200160405180910390a150565b306001600160a01b037f0000000000000000000000000000000000000000000000000000000000000000161480611d9457507f00000000000000000000000000000000000000000000000000000000000000006001600160a01b0316611d885f80516020612aae833981519152546001600160a01b031690565b6001600160a01b031614155b15611db25760405163703e46dd60e11b815260040160405180910390fd5b565b7f189ab7a9244df0848122154315af71fe140f3db0fe014031783b0946b8c9d2e36109b081611b8b565b816001600160a01b03166352d1902d6040518163ffffffff1660e01b8152600401602060405180830381865afa925050508015611e38575060408051601f3d908101601f19168201909252611e3591810190612a76565b60015b611e6057604051634c9c8ce360e01b81526001600160a01b0383166004820152602401610b91565b5f80516020612aae8339815191528114611e9057604051632a87526960e21b815260048101829052602401610b91565b610b1a8383611fab565b306001600160a01b037f00000000000000000000000000000000000000000000000000000000000000001614611db25760405163703e46dd60e11b815260040160405180910390fd5b611eeb612000565b5f80516020612b0e833981519152805460ff191660011781557f62e78cea01bee320cd4e420270b5ea74000d11b0c9f74754ebdbfc544b05a25833611cf0565b611f33612030565b611db2612079565b611db2612030565b611f4d828261136c565b6109b05760405163e2517d3f60e01b81526001600160a01b038216600482015260248101839052604401610b91565b5f80516020612b0e8339815191525460ff16611db257604051638dfc202b60e01b815260040160405180910390fd5b611fb482612099565b6040516001600160a01b038316907fbc7cd75a20ee27fd9adebab32041f755214dbc6bffa90cc0225b39da2e5c2d3b905f90a2805115611ff857610b1a82826120fc565b6109b061216e565b5f80516020612b0e8339815191525460ff1615611db25760405163d93c066560e01b815260040160405180910390fd5b7ff0c57e16840df040f15088dc2f81fe391c3923bec73e23a9662efc9c229c6a0054600160401b900460ff16611db257604051631afcd79f60e31b815260040160405180910390fd5b612081612030565b5f80516020612b0e833981519152805460ff19169055565b806001600160a01b03163b5f036120ce57604051634c9c8ce360e01b81526001600160a01b0382166004820152602401610b91565b5f80516020612aae83398151915280546001600160a01b0319166001600160a01b0392909216919091179055565b60605f80846001600160a01b031684604051612118919061283f565b5f60405180830381855af49150503d805f8114612150576040519150601f19603f3d011682016040523d82523d5f602084013e612155565b606091505b509150915061216585838361218d565b95945050505050565b3415611db25760405163b398979f60e01b815260040160405180910390fd5b6060826121a25761219d826121ec565b6121e5565b81511580156121b957506001600160a01b0384163b155b156121e257604051639996b31560e01b81526001600160a01b0385166004820152602401610b91565b50805b9392505050565b8051156121fc5780518082602001fd5b604051630a12f52160e11b815260040160405180910390fd5b828054828255905f5260205f2090810192821561224e579160200282015b8281111561224e578251825591602001919060010190612233565b5061225a9291506122b1565b5090565b828054828255905f5260205f2090810192821561224e579160200282015b8281111561224e57825182546001600160a01b0319166001600160a01b0390911617825560209092019160019091019061227c565b5b8082111561225a575f81556001016122b2565b5f602082840312156122d5575f80fd5b81356001600160e01b0319811681146121e5575f80fd5b634e487b7160e01b5f52604160045260245ffd5b604051601f8201601f191681016001600160401b0381118282101715612328576123286122ec565b604052919050565b5f806001600160401b03841115612349576123496122ec565b50601f8301601f191660200161235e81612300565b915050828152838383011115612372575f80fd5b828260208301375f602084830101529392505050565b5f82601f830112612397575f80fd5b6121e583833560208501612330565b5f602082840312156123b6575f80fd5b81356001600160401b038111156123cb575f80fd5b6123d784828501612388565b949350505050565b5f602082840312156123ef575f80fd5b5035919050565b80356001600160a01b038116811461240c575f80fd5b919050565b5f8060408385031215612422575f80fd5b82359150612432602084016123f6565b90509250929050565b5f805f805f60a0868803121561244f575f80fd5b85356001600160401b03811115612464575f80fd5b61247088828901612388565b9860208801359850604088013597606081013597506080013595509350505050565b5f602082840312156124a2575f80fd5b6121e5826123f6565b5f80604083850312156124bc575f80fd5b6124c5836123f6565b915060208301356001600160401b038111156124df575f80fd5b8301601f810185136124ef575f80fd5b6124fe85823560208401612330565b9150509250929050565b5f8060408385031215612519575f80fd5b82356001600160401b0381111561252e575f80fd5b61253a85828601612388565b925050612432602084016123f6565b5f805f6060848603121561255b575f80fd5b83356001600160401b03811115612570575f80fd5b61257c86828701612388565b93505060208401356001600160401b03811115612597575f80fd5b6125a386828701612388565b93969395505050506040919091013590565b5f81518084528060208401602086015e5f602082860101526020601f19601f83011685010191505092915050565b604081525f6125f560408301856125b5565b905060018060a01b03831660208301529392505050565b5f806040838503121561261d575f80fd5b82356001600160401b03811115612632575f80fd5b8301601f81018513612642575f80fd5b80356001600160401b0381111561265b5761265b6122ec565b8060051b61266b60208201612300565b91825260208184018101929081019088841115612686575f80fd5b6020850194505b838510156126ac5784358083526020958601959093509091019061268d565b98602097909701359750505050505050565b602081525f6121e560208301846125b5565b86815260c060208201525f6126e860c08301886125b5565b90508560408301528460608301528360808301528260a0830152979650505050505050565b5f806040838503121561271e575f80fd5b612727836123f6565b946020939093013593505050565b608081525f61274760808301876125b5565b828103602084015261275981876125b5565b6040840195909552505090151560609091015292915050565b5f805f805f805f805f6101208a8c03121561278b575f80fd5b6127948a6123f6565b98506127a260208b016123f6565b97506127b060408b016123f6565b96506127be60608b016123f6565b95506127cc60808b016123f6565b94506127da60a08b016123f6565b93506127e860c08b016123f6565b92506127f660e08b016123f6565b91506128056101008b016123f6565b90509295985092959850929598565b634e487b7160e01b5f52603260045260245ffd5b5f81518060208401855e5f93019283525090919050565b5f6121e58284612828565b600181811c9082168061285e57607f821691505b60208210810361287c57634e487b7160e01b5f52602260045260245ffd5b50919050565b5f80835461288f8161284a565b6001821680156128a657600181146128bb576128e8565b60ff19831686528115158202860193506128e8565b865f5260205f205f5b838110156128e0578154888201526001909101906020016128c4565b505081860193505b509195945050505050565b634e487b7160e01b5f52601160045260245ffd5b8082018082111561087a5761087a6128f3565b601f821115610b1a57805f5260205f20601f840160051c8101602085101561293f5750805b601f840160051c820191505b8181101561295e575f815560010161294b565b5050505050565b81516001600160401b0381111561297e5761297e6122ec565b6129928161298c845461284a565b8461291a565b6020601f8211600181146129c4575f83156129ad5750848201515b5f19600385901b1c1916600184901b17845561295e565b5f84815260208120601f198516915b828110156129f357878501518255602094850194600190920191016129d3565b5084821015612a1057868401515f19600387901b60f8161c191681555b50505050600190811b01905550565b828152604060208201525f6123d760408301846125b5565b5f60018201612a4857612a486128f3565b5060010190565b8181038181111561087a5761087a6128f3565b634e487b7160e01b5f52603160045260245ffd5b5f60208284031215612a86575f80fd5b505191905056fe9b7946abd96dccbe6cfc6cc2c13300ab429d93e16fa72dc459eeccda73817f08360894a13ba1a3210667c828492db98dca3e2076cc3735a920a3ca505d382bbc65d7a28e3265b37a6474929f336521b332c1681b933f6cb9f3376673440d862a02dd7bc7dec4dceedda775e58dd541e08a116c6c53815c0bd028192f7b626800cd5ed15c6e187e77e9aee88184c21f4f2182ab5827cb3b7e07fbedcd63f03300a264697066735822122017e50992d8e441c501e255dd0dd94ae0246f27bf1d9831d9196c551577a7a43e64736f6c634300081a0033",
			"opcodes": "PUSH1 0xA0 PUSH1 0x40 MSTORE ADDRESS PUSH1 0x80 MSTORE PUSH1 0x1 PUSH1 0x6 DUP2 SWAP1 SSTORE PUSH1 0x7 SSTORE CALLVALUE DUP1 ISZERO PUSH1 0x1C JUMPI PUSH0 DUP1 REVERT JUMPDEST POP PUSH1 0x80 MLOAD PUSH2 0x2B63 PUSH2 0x43 PUSH0 CODECOPY PUSH0 DUP2 DUP2 PUSH2 0x1D19 ADD MSTORE DUP2 DUP2 PUSH2 0x1D42 ADD MSTORE PUSH2 0x1EA5 ADD MSTORE PUSH2 0x2B63 PUSH0 RETURN INVALID PUSH1 0x80 PUSH1 0x40 MSTORE PUSH1 0x4 CALLDATASIZE LT PUSH2 0x249 JUMPI PUSH0 CALLDATALOAD PUSH1 0xE0 SHR DUP1 PUSH4 0x8A13EEA7 GT PUSH2 0x134 JUMPI DUP1 PUSH4 0xBFB231D2 GT PUSH2 0xB3 JUMPI DUP1 PUSH4 0xE551BA4B GT PUSH2 0x78 JUMPI DUP1 PUSH4 0xE551BA4B EQ PUSH2 0x77B JUMPI DUP1 PUSH4 0xE63AB1E9 EQ PUSH2 0x79A JUMPI DUP1 PUSH4 0xEE99205C EQ PUSH2 0x7BA JUMPI DUP1 PUSH4 0xF4E0D9AC EQ PUSH2 0x7D9 JUMPI DUP1 PUSH4 0xF5E95ACB EQ PUSH2 0x7F8 JUMPI DUP1 PUSH4 0xF72C0D8B EQ PUSH2 0x817 JUMPI PUSH0 DUP1 REVERT JUMPDEST DUP1 PUSH4 0xBFB231D2 EQ PUSH2 0x646 JUMPI DUP1 PUSH4 0xD3DCFF7C EQ PUSH2 0x677 JUMPI DUP1 PUSH4 0xD547741F EQ PUSH2 0x6A6 JUMPI DUP1 PUSH4 0xD836FC6F EQ PUSH2 0x6C5 JUMPI DUP1 PUSH4 0xE2EB41FF EQ PUSH2 0x6E4 JUMPI PUSH0 DUP1 REVERT JUMPDEST DUP1 PUSH4 0xA75859E1 GT PUSH2 0xF9 JUMPI DUP1 PUSH4 0xA75859E1 EQ PUSH2 0x57E JUMPI DUP1 PUSH4 0xA9834B67 EQ PUSH2 0x5AB JUMPI DUP1 PUSH4 0xAD3CB1CC EQ PUSH2 0x5CA JUMPI DUP1 PUSH4 0xB001F618 EQ PUSH2 0x607 JUMPI DUP1 PUSH4 0xBE22D27D EQ PUSH2 0x626 JUMPI PUSH0 DUP1 REVERT JUMPDEST DUP1 PUSH4 0x8A13EEA7 EQ PUSH2 0x4F0 JUMPI DUP1 PUSH4 0x91D14854 EQ PUSH2 0x50E JUMPI DUP1 PUSH4 0x965AFA89 EQ PUSH2 0x52D JUMPI DUP1 PUSH4 0x9A03D9A3 EQ PUSH2 0x54C JUMPI DUP1 PUSH4 0xA217FDDF EQ PUSH2 0x56B JUMPI PUSH0 DUP1 REVERT JUMPDEST DUP1 PUSH4 0x41BEC0D2 GT PUSH2 0x1CB JUMPI DUP1 PUSH4 0x52D1902D GT PUSH2 0x190 JUMPI DUP1 PUSH4 0x52D1902D EQ PUSH2 0x448 JUMPI DUP1 PUSH4 0x5C975ABB EQ PUSH2 0x45C JUMPI DUP1 PUSH4 0x5F2D6BCD EQ PUSH2 0x47F JUMPI DUP1 PUSH4 0x6F347A78 EQ PUSH2 0x49E JUMPI DUP1 PUSH4 0x7309CBBD EQ PUSH2 0x4BD JUMPI DUP1 PUSH4 0x8456CB59 EQ PUSH2 0x4DC JUMPI PUSH0 DUP1 REVERT JUMPDEST DUP1 PUSH4 0x41BEC0D2 EQ PUSH2 0x3AA JUMPI DUP1 PUSH4 0x443C227C EQ PUSH2 0x3C9 JUMPI DUP1 PUSH4 0x4A7FFCBC EQ PUSH2 0x3F7 JUMPI DUP1 PUSH4 0x4F1EF286 EQ PUSH2 0x416 JUMPI DUP1 PUSH4 0x4FA4A1BB EQ PUSH2 0x429 JUMPI PUSH0 DUP1 REVERT JUMPDEST DUP1 PUSH4 0x2F2FF15D GT PUSH2 0x211 JUMPI DUP1 PUSH4 0x2F2FF15D EQ PUSH2 0x325 JUMPI DUP1 PUSH4 0x31FEE8BE EQ PUSH2 0x344 JUMPI DUP1 PUSH4 0x36568ABE EQ PUSH2 0x363 JUMPI DUP1 PUSH4 0x3F4BA83A EQ PUSH2 0x382 JUMPI DUP1 PUSH4 0x3FA9FCF8 EQ PUSH2 0x396 JUMPI PUSH0 DUP1 REVERT JUMPDEST DUP1 PUSH4 0x1FFC9A7 EQ PUSH2 0x24D JUMPI DUP1 PUSH4 0x2EEC568 EQ PUSH2 0x281 JUMPI DUP1 PUSH4 0x17435E1A EQ PUSH2 0x2B8 JUMPI DUP1 PUSH4 0x21F42268 EQ PUSH2 0x2D9 JUMPI DUP1 PUSH4 0x248A9CA3 EQ PUSH2 0x2F8 JUMPI JUMPDEST PUSH0 DUP1 REVERT JUMPDEST CALLVALUE DUP1 ISZERO PUSH2 0x258 JUMPI PUSH0 DUP1 REVERT JUMPDEST POP PUSH2 0x26C PUSH2 0x267 CALLDATASIZE PUSH1 0x4 PUSH2 0x22C5 JUMP JUMPDEST PUSH2 0x84A JUMP JUMPDEST PUSH1 0x40 MLOAD SWAP1 ISZERO ISZERO DUP2 MSTORE PUSH1 0x20 ADD JUMPDEST PUSH1 0x40 MLOAD DUP1 SWAP2 SUB SWAP1 RETURN JUMPDEST CALLVALUE DUP1 ISZERO PUSH2 0x28C JUMPI PUSH0 DUP1 REVERT JUMPDEST POP PUSH1 0x5 SLOAD PUSH2 0x2A0 SWAP1 PUSH1 0x1 PUSH1 0x1 PUSH1 0xA0 SHL SUB AND DUP2 JUMP JUMPDEST PUSH1 0x40 MLOAD PUSH1 0x1 PUSH1 0x1 PUSH1 0xA0 SHL SUB SWAP1 SWAP2 AND DUP2 MSTORE PUSH1 0x20 ADD PUSH2 0x278 JUMP JUMPDEST CALLVALUE DUP1 ISZERO PUSH2 0x2C3 JUMPI PUSH0 DUP1 REVERT JUMPDEST POP PUSH2 0x2D7 PUSH2 0x2D2 CALLDATASIZE PUSH1 0x4 PUSH2 0x23A6 JUMP JUMPDEST PUSH2 0x880 JUMP JUMPDEST STOP JUMPDEST CALLVALUE DUP1 ISZERO PUSH2 0x2E4 JUMPI PUSH0 DUP1 REVERT JUMPDEST POP PUSH1 0x2 SLOAD PUSH2 0x2A0 SWAP1 PUSH1 0x1 PUSH1 0x1 PUSH1 0xA0 SHL SUB AND DUP2 JUMP JUMPDEST CALLVALUE DUP1 ISZERO PUSH2 0x303 JUMPI PUSH0 DUP1 REVERT JUMPDEST POP PUSH2 0x317 PUSH2 0x312 CALLDATASIZE PUSH1 0x4 PUSH2 0x23DF JUMP JUMPDEST PUSH2 0x9B4 JUMP JUMPDEST PUSH1 0x40 MLOAD SWAP1 DUP2 MSTORE PUSH1 0x20 ADD PUSH2 0x278 JUMP JUMPDEST CALLVALUE DUP1 ISZERO PUSH2 0x330 JUMPI PUSH0 DUP1 REVERT JUMPDEST POP PUSH2 0x2D7 PUSH2 0x33F CALLDATASIZE PUSH1 0x4 PUSH2 0x2411 JUMP JUMPDEST PUSH2 0x9D4 JUMP JUMPDEST CALLVALUE DUP1 ISZERO PUSH2 0x34F JUMPI PUSH0 DUP1 REVERT JUMPDEST POP PUSH2 0x2D7 PUSH2 0x35E CALLDATASIZE PUSH1 0x4 PUSH2 0x243B JUMP JUMPDEST PUSH2 0x9F6 JUMP JUMPDEST CALLVALUE DUP1 ISZERO PUSH2 0x36E JUMPI PUSH0 DUP1 REVERT JUMPDEST POP PUSH2 0x2D7 PUSH2 0x37D CALLDATASIZE PUSH1 0x4 PUSH2 0x2411 JUMP JUMPDEST PUSH2 0xAE7 JUMP JUMPDEST CALLVALUE DUP1 ISZERO PUSH2 0x38D JUMPI PUSH0 DUP1 REVERT JUMPDEST POP PUSH2 0x2D7 PUSH2 0xB1F JUMP JUMPDEST CALLVALUE DUP1 ISZERO PUSH2 0x3A1 JUMPI PUSH0 DUP1 REVERT JUMPDEST POP PUSH2 0x2D7 PUSH2 0xB41 JUMP JUMPDEST CALLVALUE DUP1 ISZERO PUSH2 0x3B5 JUMPI PUSH0 DUP1 REVERT JUMPDEST POP PUSH2 0x2D7 PUSH2 0x3C4 CALLDATASIZE PUSH1 0x4 PUSH2 0x2492 JUMP JUMPDEST PUSH2 0xD0F JUMP JUMPDEST CALLVALUE DUP1 ISZERO PUSH2 0x3D4 JUMPI PUSH0 DUP1 REVERT JUMPDEST POP PUSH2 0x317 PUSH2 0x3E3 CALLDATASIZE PUSH1 0x4 PUSH2 0x23DF JUMP JUMPDEST PUSH1 0xD PUSH1 0x20 MSTORE PUSH0 SWAP1 DUP2 MSTORE PUSH1 0x40 SWAP1 KECCAK256 PUSH1 0x1 ADD SLOAD DUP2 JUMP JUMPDEST CALLVALUE DUP1 ISZERO PUSH2 0x402 JUMPI PUSH0 DUP1 REVERT JUMPDEST POP PUSH1 0x3 SLOAD PUSH2 0x2A0 SWAP1 PUSH1 0x1 PUSH1 0x1 PUSH1 0xA0 SHL SUB AND DUP2 JUMP JUMPDEST PUSH2 0x2D7 PUSH2 0x424 CALLDATASIZE PUSH1 0x4 PUSH2 0x24AB JUMP JUMPDEST PUSH2 0xD48 JUMP JUMPDEST CALLVALUE DUP1 ISZERO PUSH2 0x434 JUMPI PUSH0 DUP1 REVERT JUMPDEST POP PUSH2 0x2D7 PUSH2 0x443 CALLDATASIZE PUSH1 0x4 PUSH2 0x2508 JUMP JUMPDEST PUSH2 0xD63 JUMP JUMPDEST CALLVALUE DUP1 ISZERO PUSH2 0x453 JUMPI PUSH0 DUP1 REVERT JUMPDEST POP PUSH2 0x317 PUSH2 0xF69 JUMP JUMPDEST CALLVALUE DUP1 ISZERO PUSH2 0x467 JUMPI PUSH0 DUP1 REVERT JUMPDEST POP PUSH0 DUP1 MLOAD PUSH1 0x20 PUSH2 0x2B0E DUP4 CODECOPY DUP2 MLOAD SWAP2 MSTORE SLOAD PUSH1 0xFF AND PUSH2 0x26C JUMP JUMPDEST CALLVALUE DUP1 ISZERO PUSH2 0x48A JUMPI PUSH0 DUP1 REVERT JUMPDEST POP PUSH1 0x1 SLOAD PUSH2 0x2A0 SWAP1 PUSH1 0x1 PUSH1 0x1 PUSH1 0xA0 SHL SUB AND DUP2 JUMP JUMPDEST CALLVALUE DUP1 ISZERO PUSH2 0x4A9 JUMPI PUSH0 DUP1 REVERT JUMPDEST POP PUSH2 0x2D7 PUSH2 0x4B8 CALLDATASIZE PUSH1 0x4 PUSH2 0x2549 JUMP JUMPDEST PUSH2 0xF84 JUMP JUMPDEST CALLVALUE DUP1 ISZERO PUSH2 0x4C8 JUMPI PUSH0 DUP1 REVERT JUMPDEST POP PUSH2 0x2D7 PUSH2 0x4D7 CALLDATASIZE PUSH1 0x4 PUSH2 0x23DF JUMP JUMPDEST PUSH2 0x102E JUMP JUMPDEST CALLVALUE DUP1 ISZERO PUSH2 0x4E7 JUMPI PUSH0 DUP1 REVERT JUMPDEST POP PUSH2 0x2D7 PUSH2 0x134D JUMP JUMPDEST CALLVALUE DUP1 ISZERO PUSH2 0x4FB JUMPI PUSH0 DUP1 REVERT JUMPDEST POP PUSH0 SLOAD PUSH2 0x2A0 SWAP1 PUSH1 0x1 PUSH1 0x1 PUSH1 0xA0 SHL SUB AND DUP2 JUMP JUMPDEST CALLVALUE DUP1 ISZERO PUSH2 0x519 JUMPI PUSH0 DUP1 REVERT JUMPDEST POP PUSH2 0x26C PUSH2 0x528 CALLDATASIZE PUSH1 0x4 PUSH2 0x2411 JUMP JUMPDEST PUSH2 0x136C JUMP JUMPDEST CALLVALUE DUP1 ISZERO PUSH2 0x538 JUMPI PUSH0 DUP1 REVERT JUMPDEST POP PUSH2 0x2D7 PUSH2 0x547 CALLDATASIZE PUSH1 0x4 PUSH2 0x2492 JUMP JUMPDEST PUSH2 0x13A2 JUMP JUMPDEST CALLVALUE DUP1 ISZERO PUSH2 0x557 JUMPI PUSH0 DUP1 REVERT JUMPDEST POP PUSH2 0x2D7 PUSH2 0x566 CALLDATASIZE PUSH1 0x4 PUSH2 0x2492 JUMP JUMPDEST PUSH2 0x13DC JUMP JUMPDEST CALLVALUE DUP1 ISZERO PUSH2 0x576 JUMPI PUSH0 DUP1 REVERT JUMPDEST POP PUSH2 0x317 PUSH0 DUP2 JUMP JUMPDEST CALLVALUE DUP1 ISZERO PUSH2 0x589 JUMPI PUSH0 DUP1 REVERT JUMPDEST POP PUSH2 0x59D PUSH2 0x598 CALLDATASIZE PUSH1 0x4 PUSH2 0x2492 JUMP JUMPDEST PUSH2 0x1416 JUMP JUMPDEST PUSH1 0x40 MLOAD PUSH2 0x278 SWAP3 SWAP2 SWAP1 PUSH2 0x25E3 JUMP JUMPDEST CALLVALUE DUP1 ISZERO PUSH2 0x5B6 JUMPI PUSH0 DUP1 REVERT JUMPDEST POP PUSH2 0x2D7 PUSH2 0x5C5 CALLDATASIZE PUSH1 0x4 PUSH2 0x260C JUMP JUMPDEST PUSH2 0x14C0 JUMP JUMPDEST CALLVALUE DUP1 ISZERO PUSH2 0x5D5 JUMPI PUSH0 DUP1 REVERT JUMPDEST POP PUSH2 0x5FA PUSH1 0x40 MLOAD DUP1 PUSH1 0x40 ADD PUSH1 0x40 MSTORE DUP1 PUSH1 0x5 DUP2 MSTORE PUSH1 0x20 ADD PUSH5 0x352E302E3 PUSH1 0xDC SHL DUP2 MSTORE POP DUP2 JUMP JUMPDEST PUSH1 0x40 MLOAD PUSH2 0x278 SWAP2 SWAP1 PUSH2 0x26BE JUMP JUMPDEST CALLVALUE DUP1 ISZERO PUSH2 0x612 JUMPI PUSH0 DUP1 REVERT JUMPDEST POP PUSH2 0x2D7 PUSH2 0x621 CALLDATASIZE PUSH1 0x4 PUSH2 0x2492 JUMP JUMPDEST PUSH2 0x1570 JUMP JUMPDEST CALLVALUE DUP1 ISZERO PUSH2 0x631 JUMPI PUSH0 DUP1 REVERT JUMPDEST POP PUSH2 0x317 PUSH0 DUP1 MLOAD PUSH1 0x20 PUSH2 0x2A8E DUP4 CODECOPY DUP2 MLOAD SWAP2 MSTORE DUP2 JUMP JUMPDEST CALLVALUE DUP1 ISZERO PUSH2 0x651 JUMPI PUSH0 DUP1 REVERT JUMPDEST POP PUSH2 0x665 PUSH2 0x660 CALLDATASIZE PUSH1 0x4 PUSH2 0x23DF JUMP JUMPDEST PUSH2 0x15AA JUMP JUMPDEST PUSH1 0x40 MLOAD PUSH2 0x278 SWAP7 SWAP6 SWAP5 SWAP4 SWAP3 SWAP2 SWAP1 PUSH2 0x26D0 JUMP JUMPDEST CALLVALUE DUP1 ISZERO PUSH2 0x682 JUMPI PUSH0 DUP1 REVERT JUMPDEST POP PUSH2 0x696 PUSH2 0x691 CALLDATASIZE PUSH1 0x4 PUSH2 0x270D JUMP JUMPDEST PUSH2 0x1664 JUMP JUMPDEST PUSH1 0x40 MLOAD PUSH2 0x278 SWAP5 SWAP4 SWAP3 SWAP2 SWAP1 PUSH2 0x2735 JUMP JUMPDEST CALLVALUE DUP1 ISZERO PUSH2 0x6B1 JUMPI PUSH0 DUP1 REVERT JUMPDEST POP PUSH2 0x2D7 PUSH2 0x6C0 CALLDATASIZE PUSH1 0x4 PUSH2 0x2411 JUMP JUMPDEST PUSH2 0x17BA JUMP JUMPDEST CALLVALUE DUP1 ISZERO PUSH2 0x6D0 JUMPI PUSH0 DUP1 REVERT JUMPDEST POP PUSH2 0x2D7 PUSH2 0x6DF CALLDATASIZE PUSH1 0x4 PUSH2 0x2492 JUMP JUMPDEST PUSH2 0x17D6 JUMP JUMPDEST CALLVALUE DUP1 ISZERO PUSH2 0x6EF JUMPI PUSH0 DUP1 REVERT JUMPDEST POP PUSH2 0x740 PUSH2 0x6FE CALLDATASIZE PUSH1 0x4 PUSH2 0x2492 JUMP JUMPDEST PUSH1 0x9 PUSH1 0x20 MSTORE PUSH0 SWAP1 DUP2 MSTORE PUSH1 0x40 SWAP1 KECCAK256 DUP1 SLOAD PUSH1 0x1 DUP3 ADD SLOAD PUSH1 0x2 DUP4 ADD SLOAD PUSH1 0x3 DUP5 ADD SLOAD PUSH1 0x4 DUP6 ADD SLOAD PUSH1 0x5 DUP7 ADD SLOAD PUSH1 0x6 DUP8 ADD SLOAD PUSH1 0x7 SWAP1 SWAP8 ADD SLOAD SWAP6 SWAP7 SWAP5 SWAP6 SWAP4 SWAP5 SWAP3 SWAP4 SWAP2 SWAP3 SWAP1 SWAP2 DUP9 JUMP JUMPDEST PUSH1 0x40 DUP1 MLOAD SWAP9 DUP10 MSTORE PUSH1 0x20 DUP10 ADD SWAP8 SWAP1 SWAP8 MSTORE SWAP6 DUP8 ADD SWAP5 SWAP1 SWAP5 MSTORE PUSH1 0x60 DUP7 ADD SWAP3 SWAP1 SWAP3 MSTORE PUSH1 0x80 DUP6 ADD MSTORE PUSH1 0xA0 DUP5 ADD MSTORE PUSH1 0xC0 DUP4 ADD MSTORE PUSH1 0xE0 DUP3 ADD MSTORE PUSH2 0x100 ADD PUSH2 0x278 JUMP JUMPDEST CALLVALUE DUP1 ISZERO PUSH2 0x786 JUMPI PUSH0 DUP1 REVERT JUMPDEST POP PUSH2 0x2D7 PUSH2 0x795 CALLDATASIZE PUSH1 0x4 PUSH2 0x23A6 JUMP JUMPDEST PUSH2 0x1810 JUMP JUMPDEST CALLVALUE DUP1 ISZERO PUSH2 0x7A5 JUMPI PUSH0 DUP1 REVERT JUMPDEST POP PUSH2 0x317 PUSH0 DUP1 MLOAD PUSH1 0x20 PUSH2 0x2ACE DUP4 CODECOPY DUP2 MLOAD SWAP2 MSTORE DUP2 JUMP JUMPDEST CALLVALUE DUP1 ISZERO PUSH2 0x7C5 JUMPI PUSH0 DUP1 REVERT JUMPDEST POP PUSH1 0x4 SLOAD PUSH2 0x2A0 SWAP1 PUSH1 0x1 PUSH1 0x1 PUSH1 0xA0 SHL SUB AND DUP2 JUMP JUMPDEST CALLVALUE DUP1 ISZERO PUSH2 0x7E4 JUMPI PUSH0 DUP1 REVERT JUMPDEST POP PUSH2 0x2D7 PUSH2 0x7F3 CALLDATASIZE PUSH1 0x4 PUSH2 0x2492 JUMP JUMPDEST PUSH2 0x1967 JUMP JUMPDEST CALLVALUE DUP1 ISZERO PUSH2 0x803 JUMPI PUSH0 DUP1 REVERT JUMPDEST POP PUSH2 0x2D7 PUSH2 0x812 CALLDATASIZE PUSH1 0x4 PUSH2 0x2772 JUMP JUMPDEST PUSH2 0x19A1 JUMP JUMPDEST CALLVALUE DUP1 ISZERO PUSH2 0x822 JUMPI PUSH0 DUP1 REVERT JUMPDEST POP PUSH2 0x317 PUSH32 0x189AB7A9244DF0848122154315AF71FE140F3DB0FE014031783B0946B8C9D2E3 DUP2 JUMP JUMPDEST PUSH0 PUSH1 0x1 PUSH1 0x1 PUSH1 0xE0 SHL SUB NOT DUP3 AND PUSH4 0x7965DB0B PUSH1 0xE0 SHL EQ DUP1 PUSH2 0x87A JUMPI POP PUSH4 0x1FFC9A7 PUSH1 0xE0 SHL PUSH1 0x1 PUSH1 0x1 PUSH1 0xE0 SHL SUB NOT DUP4 AND EQ JUMPDEST SWAP3 SWAP2 POP POP JUMP JUMPDEST PUSH0 JUMPDEST CALLER PUSH0 SWAP1 DUP2 MSTORE PUSH1 0xA PUSH1 0x20 MSTORE PUSH1 0x40 SWAP1 KECCAK256 SLOAD DUP2 LT ISZERO PUSH2 0x9B0 JUMPI CALLER PUSH0 SWAP1 DUP2 MSTORE PUSH1 0xA PUSH1 0x20 MSTORE PUSH1 0x40 DUP2 KECCAK256 DUP1 SLOAD DUP4 SWAP1 DUP2 LT PUSH2 0x8B8 JUMPI PUSH2 0x8B8 PUSH2 0x2814 JUMP JUMPDEST SWAP1 PUSH0 MSTORE PUSH1 0x20 PUSH0 KECCAK256 SWAP1 PUSH1 0x4 MUL ADD SWAP1 POP DUP3 PUSH1 0x40 MLOAD PUSH1 0x20 ADD PUSH2 0x8D7 SWAP2 SWAP1 PUSH2 0x283F JUMP JUMPDEST PUSH1 0x40 DUP1 MLOAD PUSH1 0x1F NOT DUP2 DUP5 SUB ADD DUP2 MSTORE SWAP1 DUP3 SWAP1 MSTORE DUP1 MLOAD PUSH1 0x20 SWAP2 DUP3 ADD KECCAK256 SWAP2 PUSH2 0x8FD SWAP2 DUP5 SWAP2 ADD PUSH2 0x2882 JUMP JUMPDEST PUSH1 0x40 MLOAD PUSH1 0x20 DUP2 DUP4 SUB SUB DUP2 MSTORE SWAP1 PUSH1 0x40 MSTORE DUP1 MLOAD SWAP1 PUSH1 0x20 ADD KECCAK256 EQ DUP1 ISZERO PUSH2 0x925 JUMPI POP PUSH1 0x3 DUP2 ADD SLOAD PUSH1 0xFF AND ISZERO JUMPDEST ISZERO PUSH2 0x9A7 JUMPI PUSH1 0x3 DUP2 ADD DUP1 SLOAD PUSH1 0xFF NOT AND PUSH1 0x1 SWAP1 DUP2 OR SWAP1 SWAP2 SSTORE PUSH1 0x2 DUP3 ADD SLOAD CALLER PUSH0 SWAP1 DUP2 MSTORE PUSH1 0x9 PUSH1 0x20 MSTORE PUSH1 0x40 DUP2 KECCAK256 SWAP1 SWAP3 ADD DUP1 SLOAD SWAP2 SWAP3 SWAP1 SWAP2 PUSH2 0x963 SWAP1 DUP5 SWAP1 PUSH2 0x2907 JUMP JUMPDEST SWAP1 SWAP2 SSTORE POP POP PUSH1 0x40 MLOAD CALLER SWAP1 PUSH32 0xBE21664565742A9F42CBB6D005F92DB59C7BCAD35B12EF5B57B79E75676B247A SWAP1 PUSH2 0x99A SWAP1 DUP7 SWAP1 PUSH2 0x26BE JUMP JUMPDEST PUSH1 0x40 MLOAD DUP1 SWAP2 SUB SWAP1 LOG2 POP POP POP JUMP JUMPDEST POP PUSH1 0x1 ADD PUSH2 0x882 JUMP JUMPDEST POP POP JUMP JUMPDEST PUSH0 SWAP1 DUP2 MSTORE PUSH0 DUP1 MLOAD PUSH1 0x20 PUSH2 0x2AEE DUP4 CODECOPY DUP2 MLOAD SWAP2 MSTORE PUSH1 0x20 MSTORE PUSH1 0x40 SWAP1 KECCAK256 PUSH1 0x1 ADD SLOAD SWAP1 JUMP JUMPDEST PUSH2 0x9DD DUP3 PUSH2 0x9B4 JUMP JUMPDEST PUSH2 0x9E6 DUP2 PUSH2 0x1B8B JUMP JUMPDEST PUSH2 0x9F0 DUP4 DUP4 PUSH2 0x1B95 JUMP JUMPDEST POP POP POP POP JUMP JUMPDEST PUSH0 DUP1 MLOAD PUSH1 0x20 PUSH2 0x2A8E DUP4 CODECOPY DUP2 MLOAD SWAP2 MSTORE PUSH2 0xA0D DUP2 PUSH2 0x1B8B JUMP JUMPDEST PUSH1 0x40 DUP1 MLOAD PUSH1 0xC0 DUP2 ADD DUP3 MSTORE PUSH1 0x6 SLOAD DUP1 DUP3 MSTORE PUSH1 0x20 DUP1 DUP4 ADD DUP11 DUP2 MSTORE DUP4 DUP6 ADD DUP11 SWAP1 MSTORE PUSH1 0x60 DUP5 ADD DUP10 SWAP1 MSTORE PUSH1 0x80 DUP5 ADD DUP9 SWAP1 MSTORE PUSH1 0xA0 DUP5 ADD DUP8 SWAP1 MSTORE PUSH0 SWAP3 DUP4 MSTORE PUSH1 0x8 SWAP1 SWAP2 MSTORE SWAP3 SWAP1 KECCAK256 DUP2 MLOAD DUP2 SSTORE SWAP2 MLOAD SWAP1 SWAP2 SWAP1 PUSH1 0x1 DUP3 ADD SWAP1 PUSH2 0xA64 SWAP1 DUP3 PUSH2 0x2965 JUMP JUMPDEST POP PUSH1 0x40 DUP3 ADD MLOAD DUP2 PUSH1 0x2 ADD SSTORE PUSH1 0x60 DUP3 ADD MLOAD DUP2 PUSH1 0x3 ADD SSTORE PUSH1 0x80 DUP3 ADD MLOAD DUP2 PUSH1 0x4 ADD SSTORE PUSH1 0xA0 DUP3 ADD MLOAD DUP2 PUSH1 0x5 ADD SSTORE SWAP1 POP POP PUSH32 0x78D68BA0E8C23B92E7C700D99EFED2719520CBD4AF845B2C03AE251F9CDF3D52 PUSH1 0x6 SLOAD DUP8 PUSH1 0x40 MLOAD PUSH2 0xAC3 SWAP3 SWAP2 SWAP1 PUSH2 0x2A1F JUMP JUMPDEST PUSH1 0x40 MLOAD DUP1 SWAP2 SUB SWAP1 LOG1 PUSH1 0x6 DUP1 SLOAD SWAP1 PUSH0 PUSH2 0xADA DUP4 PUSH2 0x2A37 JUMP JUMPDEST SWAP2 SWAP1 POP SSTORE POP POP POP POP POP POP POP JUMP JUMPDEST PUSH1 0x1 PUSH1 0x1 PUSH1 0xA0 SHL SUB DUP2 AND CALLER EQ PUSH2 0xB10 JUMPI PUSH1 0x40 MLOAD PUSH4 0x334BD919 PUSH1 0xE1 SHL DUP2 MSTORE PUSH1 0x4 ADD PUSH1 0x40 MLOAD DUP1 SWAP2 SUB SWAP1 REVERT JUMPDEST PUSH2 0xB1A DUP3 DUP3 PUSH2 0x1C36 JUMP JUMPDEST POP POP POP JUMP JUMPDEST PUSH0 DUP1 MLOAD PUSH1 0x20 PUSH2 0x2ACE DUP4 CODECOPY DUP2 MLOAD SWAP2 MSTORE PUSH2 0xB36 DUP2 PUSH2 0x1B8B JUMP JUMPDEST PUSH2 0xB3E PUSH2 0x1CAF JUMP JUMPDEST POP JUMP JUMPDEST CALLER PUSH0 SWAP1 DUP2 MSTORE PUSH1 0x9 PUSH1 0x20 MSTORE PUSH1 0x40 SWAP1 KECCAK256 SLOAD ISZERO PUSH2 0xB9A JUMPI PUSH1 0x40 MLOAD PUSH3 0x461BCD PUSH1 0xE5 SHL DUP2 MSTORE PUSH1 0x20 PUSH1 0x4 DUP3 ADD MSTORE PUSH1 0x15 PUSH1 0x24 DUP3 ADD MSTORE PUSH21 0x506C6179657220616C726561647920657869737473 PUSH1 0x58 SHL PUSH1 0x44 DUP3 ADD MSTORE PUSH1 0x64 ADD JUMPDEST PUSH1 0x40 MLOAD DUP1 SWAP2 SUB SWAP1 REVERT JUMPDEST PUSH1 0x40 MLOAD DUP1 PUSH2 0x140 ADD PUSH1 0x40 MSTORE DUP1 PUSH1 0x1 DUP2 MSTORE PUSH1 0x20 ADD PUSH0 DUP2 MSTORE PUSH1 0x20 ADD PUSH1 0x64 DUP2 MSTORE PUSH1 0x20 ADD PUSH1 0x32 DUP2 MSTORE PUSH1 0x20 ADD PUSH1 0xA DUP2 MSTORE PUSH1 0x20 ADD PUSH1 0x5 DUP2 MSTORE PUSH1 0x20 ADD PUSH1 0x3 DUP2 MSTORE PUSH1 0x20 ADD PUSH1 0x2 DUP2 MSTORE PUSH1 0x20 ADD PUSH0 PUSH1 0x1 PUSH1 0x1 PUSH1 0x40 SHL SUB DUP2 GT ISZERO PUSH2 0xBF5 JUMPI PUSH2 0xBF5 PUSH2 0x22EC JUMP JUMPDEST PUSH1 0x40 MLOAD SWAP1 DUP1 DUP3 MSTORE DUP1 PUSH1 0x20 MUL PUSH1 0x20 ADD DUP3 ADD PUSH1 0x40 MSTORE DUP1 ISZERO PUSH2 0xC1E JUMPI DUP2 PUSH1 0x20 ADD PUSH1 0x20 DUP3 MUL DUP1 CALLDATASIZE DUP4 CALLDATACOPY ADD SWAP1 POP JUMPDEST POP DUP2 MSTORE PUSH1 0x20 ADD PUSH0 PUSH1 0x40 MLOAD SWAP1 DUP1 DUP3 MSTORE DUP1 PUSH1 0x20 MUL PUSH1 0x20 ADD DUP3 ADD PUSH1 0x40 MSTORE DUP1 ISZERO PUSH2 0xC4E JUMPI DUP2 PUSH1 0x20 ADD PUSH1 0x20 DUP3 MUL DUP1 CALLDATASIZE DUP4 CALLDATACOPY ADD SWAP1 POP JUMPDEST POP SWAP1 MSTORE CALLER PUSH0 SWAP1 DUP2 MSTORE PUSH1 0x9 PUSH1 0x20 SWAP1 DUP2 MSTORE PUSH1 0x40 SWAP2 DUP3 SWAP1 KECCAK256 DUP4 MLOAD DUP2 SSTORE DUP4 DUP3 ADD MLOAD PUSH1 0x1 DUP3 ADD SSTORE SWAP2 DUP4 ADD MLOAD PUSH1 0x2 DUP4 ADD SSTORE PUSH1 0x60 DUP4 ADD MLOAD PUSH1 0x3 DUP4 ADD SSTORE PUSH1 0x80 DUP4 ADD MLOAD PUSH1 0x4 DUP4 ADD SSTORE PUSH1 0xA0 DUP4 ADD MLOAD PUSH1 0x5 DUP4 ADD SSTORE PUSH1 0xC0 DUP4 ADD MLOAD PUSH1 0x6 DUP4 ADD SSTORE PUSH1 0xE0 DUP4 ADD MLOAD PUSH1 0x7 DUP4 ADD SSTORE PUSH2 0x100 DUP4 ADD MLOAD DUP1 MLOAD PUSH2 0xCC3 SWAP3 PUSH1 0x8 DUP6 ADD SWAP3 ADD SWAP1 PUSH2 0x2215 JUMP JUMPDEST POP PUSH2 0x120 DUP3 ADD MLOAD DUP1 MLOAD PUSH2 0xCE0 SWAP2 PUSH1 0x9 DUP5 ADD SWAP2 PUSH1 0x20 SWAP1 SWAP2 ADD SWAP1 PUSH2 0x2215 JUMP JUMPDEST POP POP PUSH1 0x40 MLOAD CALLER SWAP2 POP PUSH32 0xB4CCA19A27CE42915C3CEE0CEE28FC5D90969EE49F09EC71659546A63B5F7BC0 SWAP1 PUSH0 SWAP1 LOG2 JUMP JUMPDEST PUSH0 DUP1 MLOAD PUSH1 0x20 PUSH2 0x2A8E DUP4 CODECOPY DUP2 MLOAD SWAP2 MSTORE PUSH2 0xD26 DUP2 PUSH2 0x1B8B JUMP JUMPDEST POP PUSH0 DUP1 SLOAD PUSH1 0x1 PUSH1 0x1 PUSH1 0xA0 SHL SUB NOT AND PUSH1 0x1 PUSH1 0x1 PUSH1 0xA0 SHL SUB SWAP3 SWAP1 SWAP3 AND SWAP2 SWAP1 SWAP2 OR SWAP1 SSTORE JUMP JUMPDEST PUSH2 0xD50 PUSH2 0x1D0E JUMP JUMPDEST PUSH2 0xD59 DUP3 PUSH2 0x1DB4 JUMP JUMPDEST PUSH2 0x9B0 DUP3 DUP3 PUSH2 0x1DDE JUMP JUMPDEST PUSH0 DUP1 MLOAD PUSH1 0x20 PUSH2 0x2A8E DUP4 CODECOPY DUP2 MLOAD SWAP2 MSTORE PUSH2 0xD7A DUP2 PUSH2 0x1B8B JUMP JUMPDEST PUSH0 PUSH1 0x1 PUSH1 0x1 PUSH1 0xA0 SHL SUB AND PUSH1 0xC DUP5 PUSH1 0x40 MLOAD PUSH2 0xD94 SWAP2 SWAP1 PUSH2 0x283F JUMP JUMPDEST SWAP1 DUP2 MSTORE PUSH1 0x40 MLOAD SWAP1 DUP2 SWAP1 SUB PUSH1 0x20 ADD SWAP1 KECCAK256 SLOAD PUSH1 0x1 PUSH1 0x1 PUSH1 0xA0 SHL SUB AND EQ PUSH2 0xDF1 JUMPI PUSH1 0x40 MLOAD PUSH3 0x461BCD PUSH1 0xE5 SHL DUP2 MSTORE PUSH1 0x20 PUSH1 0x4 DUP3 ADD MSTORE PUSH1 0x14 PUSH1 0x24 DUP3 ADD MSTORE PUSH20 0x4775696C6420616C726561647920657869737473 PUSH1 0x60 SHL PUSH1 0x44 DUP3 ADD MSTORE PUSH1 0x64 ADD PUSH2 0xB91 JUMP JUMPDEST PUSH1 0x40 DUP1 MLOAD PUSH1 0x60 DUP2 ADD DUP3 MSTORE DUP5 DUP2 MSTORE PUSH1 0x1 PUSH1 0x1 PUSH1 0xA0 SHL SUB DUP5 AND PUSH1 0x20 DUP3 ADD MSTORE DUP2 MLOAD PUSH1 0x1 DUP1 DUP3 MSTORE DUP2 DUP5 ADD DUP5 MSTORE SWAP2 SWAP3 DUP4 ADD SWAP2 DUP2 PUSH1 0x20 ADD PUSH1 0x20 DUP3 MUL DUP1 CALLDATASIZE DUP4 CALLDATACOPY POP POP POP SWAP1 MSTORE PUSH1 0x1 PUSH1 0x1 PUSH1 0xA0 SHL SUB DUP4 AND PUSH0 SWAP1 DUP2 MSTORE PUSH1 0xB PUSH1 0x20 MSTORE PUSH1 0x40 SWAP1 KECCAK256 DUP2 MLOAD DUP2 SWAP1 PUSH2 0xE54 SWAP1 DUP3 PUSH2 0x2965 JUMP JUMPDEST POP PUSH1 0x20 DUP3 DUP2 ADD MLOAD PUSH1 0x1 DUP4 ADD DUP1 SLOAD PUSH1 0x1 PUSH1 0x1 PUSH1 0xA0 SHL SUB NOT AND PUSH1 0x1 PUSH1 0x1 PUSH1 0xA0 SHL SUB SWAP1 SWAP3 AND SWAP2 SWAP1 SWAP2 OR SWAP1 SSTORE PUSH1 0x40 DUP4 ADD MLOAD DUP1 MLOAD PUSH2 0xE93 SWAP3 PUSH1 0x2 DUP6 ADD SWAP3 ADD SWAP1 PUSH2 0x225E JUMP JUMPDEST POP POP POP PUSH1 0x1 PUSH1 0x1 PUSH1 0xA0 SHL SUB DUP3 AND PUSH0 SWAP1 DUP2 MSTORE PUSH1 0xB PUSH1 0x20 MSTORE PUSH1 0x40 DUP2 KECCAK256 PUSH1 0x2 ADD DUP1 SLOAD DUP5 SWAP3 SWAP1 PUSH2 0xEC1 JUMPI PUSH2 0xEC1 PUSH2 0x2814 JUMP JUMPDEST SWAP1 PUSH0 MSTORE PUSH1 0x20 PUSH0 KECCAK256 ADD PUSH0 PUSH2 0x100 EXP DUP2 SLOAD DUP2 PUSH1 0x1 PUSH1 0x1 PUSH1 0xA0 SHL SUB MUL NOT AND SWAP1 DUP4 PUSH1 0x1 PUSH1 0x1 PUSH1 0xA0 SHL SUB AND MUL OR SWAP1 SSTORE POP DUP2 PUSH1 0xC DUP5 PUSH1 0x40 MLOAD PUSH2 0xEFD SWAP2 SWAP1 PUSH2 0x283F JUMP JUMPDEST SWAP1 DUP2 MSTORE PUSH1 0x40 MLOAD SWAP1 DUP2 SWAP1 SUB PUSH1 0x20 ADD DUP2 KECCAK256 DUP1 SLOAD PUSH1 0x1 PUSH1 0x1 PUSH1 0xA0 SHL SUB SWAP4 SWAP1 SWAP4 AND PUSH1 0x1 PUSH1 0x1 PUSH1 0xA0 SHL SUB NOT SWAP1 SWAP4 AND SWAP3 SWAP1 SWAP3 OR SWAP1 SWAP2 SSTORE PUSH32 0x72208535A97B2E307167838C66AACD47F8DE3A2CB92BC2DDB2B2B52009C9FD5 SWAP1 PUSH2 0xF5C SWAP1 DUP6 SWAP1 DUP6 SWAP1 PUSH2 0x25E3 JUMP JUMPDEST PUSH1 0x40 MLOAD DUP1 SWAP2 SUB SWAP1 LOG1 POP POP POP JUMP JUMPDEST PUSH0 PUSH2 0xF72 PUSH2 0x1E9A JUMP JUMPDEST POP PUSH0 DUP1 MLOAD PUSH1 0x20 PUSH2 0x2AAE DUP4 CODECOPY DUP2 MLOAD SWAP2 MSTORE SWAP1 JUMP JUMPDEST PUSH0 DUP1 MLOAD PUSH1 0x20 PUSH2 0x2A8E DUP4 CODECOPY DUP2 MLOAD SWAP2 MSTORE PUSH2 0xF9B DUP2 PUSH2 0x1B8B JUMP JUMPDEST CALLER PUSH0 SWAP1 DUP2 MSTORE PUSH1 0xA PUSH1 0x20 SWAP1 DUP2 MSTORE PUSH1 0x40 DUP1 DUP4 KECCAK256 DUP2 MLOAD PUSH1 0x80 DUP2 ADD DUP4 MSTORE DUP9 DUP2 MSTORE DUP1 DUP5 ADD DUP9 SWAP1 MSTORE SWAP2 DUP3 ADD DUP7 SWAP1 MSTORE PUSH1 0x60 DUP3 ADD DUP5 SWAP1 MSTORE DUP1 SLOAD PUSH1 0x1 DUP2 ADD DUP3 SSTORE SWAP1 DUP5 MSTORE SWAP2 SWAP1 SWAP3 KECCAK256 DUP3 MLOAD PUSH1 0x4 SWAP1 SWAP3 MUL ADD SWAP1 DUP2 SWAP1 PUSH2 0xFEE SWAP1 DUP3 PUSH2 0x2965 JUMP JUMPDEST POP PUSH1 0x20 DUP3 ADD MLOAD PUSH1 0x1 DUP3 ADD SWAP1 PUSH2 0x1003 SWAP1 DUP3 PUSH2 0x2965 JUMP JUMPDEST POP PUSH1 0x40 DUP3 ADD MLOAD PUSH1 0x2 DUP3 ADD SSTORE PUSH1 0x60 SWAP1 SWAP2 ADD MLOAD PUSH1 0x3 SWAP1 SWAP2 ADD DUP1 SLOAD PUSH1 0xFF NOT AND SWAP2 ISZERO ISZERO SWAP2 SWAP1 SWAP2 OR SWAP1 SSTORE POP POP POP POP JUMP JUMPDEST PUSH0 DUP2 DUP2 MSTORE PUSH1 0xD PUSH1 0x20 SWAP1 DUP2 MSTORE PUSH1 0x40 DUP1 DUP4 KECCAK256 DUP2 MLOAD DUP2 SLOAD PUSH1 0x60 SWAP5 DUP2 MUL DUP3 ADD DUP6 ADD DUP5 MSTORE SWAP3 DUP2 ADD DUP4 DUP2 MSTORE SWAP1 SWAP4 SWAP2 SWAP3 DUP5 SWAP3 DUP5 SWAP2 SWAP1 DUP5 ADD DUP3 DUP3 DUP1 ISZERO PUSH2 0x1089 JUMPI PUSH1 0x20 MUL DUP3 ADD SWAP2 SWAP1 PUSH0 MSTORE PUSH1 0x20 PUSH0 KECCAK256 SWAP1 JUMPDEST DUP2 SLOAD DUP2 MSTORE PUSH1 0x20 ADD SWAP1 PUSH1 0x1 ADD SWAP1 DUP1 DUP4 GT PUSH2 0x1075 JUMPI JUMPDEST POP POP POP POP POP DUP2 MSTORE PUSH1 0x20 ADD PUSH1 0x1 DUP3 ADD SLOAD DUP2 MSTORE POP POP SWAP1 POP PUSH0 DUP2 PUSH0 ADD MLOAD MLOAD GT PUSH2 0x10E2 JUMPI PUSH1 0x40 MLOAD PUSH3 0x461BCD PUSH1 0xE5 SHL DUP2 MSTORE PUSH1 0x20 PUSH1 0x4 DUP3 ADD MSTORE PUSH1 0xE PUSH1 0x24 DUP3 ADD MSTORE PUSH14 0x496E76616C696420726563697065 PUSH1 0x90 SHL PUSH1 0x44 DUP3 ADD MSTORE PUSH1 0x64 ADD PUSH2 0xB91 JUMP JUMPDEST PUSH0 JUMPDEST DUP2 MLOAD MLOAD DUP2 LT ISZERO PUSH2 0x11E3 JUMPI PUSH0 DUP1 JUMPDEST CALLER PUSH0 SWAP1 DUP2 MSTORE PUSH1 0x9 PUSH1 0x20 MSTORE PUSH1 0x40 SWAP1 KECCAK256 PUSH1 0x8 ADD SLOAD DUP2 LT ISZERO PUSH2 0x117C JUMPI DUP4 MLOAD DUP1 MLOAD DUP5 SWAP1 DUP2 LT PUSH2 0x111E JUMPI PUSH2 0x111E PUSH2 0x2814 JUMP JUMPDEST PUSH1 0x20 MUL PUSH1 0x20 ADD ADD MLOAD PUSH1 0x9 PUSH0 CALLER PUSH1 0x1 PUSH1 0x1 PUSH1 0xA0 SHL SUB AND PUSH1 0x1 PUSH1 0x1 PUSH1 0xA0 SHL SUB AND DUP2 MSTORE PUSH1 0x20 ADD SWAP1 DUP2 MSTORE PUSH1 0x20 ADD PUSH0 KECCAK256 PUSH1 0x8 ADD DUP3 DUP2 SLOAD DUP2 LT PUSH2 0x115D JUMPI PUSH2 0x115D PUSH2 0x2814 JUMP JUMPDEST SWAP1 PUSH0 MSTORE PUSH1 0x20 PUSH0 KECCAK256 ADD SLOAD SUB PUSH2 0x1174 JUMPI PUSH1 0x1 SWAP2 POP PUSH2 0x117C JUMP JUMPDEST PUSH1 0x1 ADD PUSH2 0x10F1 JUMP JUMPDEST POP DUP1 PUSH2 0x11DA JUMPI PUSH1 0x40 MLOAD PUSH3 0x461BCD PUSH1 0xE5 SHL DUP2 MSTORE PUSH1 0x20 PUSH1 0x4 DUP3 ADD MSTORE PUSH1 0x27 PUSH1 0x24 DUP3 ADD MSTORE PUSH32 0x506C6179657220646F6573206E6F74206861766520616C6C2072657175697265 PUSH1 0x44 DUP3 ADD MSTORE PUSH7 0x64206974656D73 PUSH1 0xC8 SHL PUSH1 0x64 DUP3 ADD MSTORE PUSH1 0x84 ADD PUSH2 0xB91 JUMP JUMPDEST POP PUSH1 0x1 ADD PUSH2 0x10E4 JUMP JUMPDEST POP PUSH0 JUMPDEST DUP2 MLOAD MLOAD DUP2 LT ISZERO PUSH2 0x1321 JUMPI PUSH0 JUMPDEST CALLER PUSH0 SWAP1 DUP2 MSTORE PUSH1 0x9 PUSH1 0x20 MSTORE PUSH1 0x40 SWAP1 KECCAK256 PUSH1 0x8 ADD SLOAD DUP2 LT ISZERO PUSH2 0x1318 JUMPI DUP3 MLOAD DUP1 MLOAD DUP4 SWAP1 DUP2 LT PUSH2 0x121F JUMPI PUSH2 0x121F PUSH2 0x2814 JUMP JUMPDEST PUSH1 0x20 MUL PUSH1 0x20 ADD ADD MLOAD PUSH1 0x9 PUSH0 CALLER PUSH1 0x1 PUSH1 0x1 PUSH1 0xA0 SHL SUB AND PUSH1 0x1 PUSH1 0x1 PUSH1 0xA0 SHL SUB AND DUP2 MSTORE PUSH1 0x20 ADD SWAP1 DUP2 MSTORE PUSH1 0x20 ADD PUSH0 KECCAK256 PUSH1 0x8 ADD DUP3 DUP2 SLOAD DUP2 LT PUSH2 0x125E JUMPI PUSH2 0x125E PUSH2 0x2814 JUMP JUMPDEST SWAP1 PUSH0 MSTORE PUSH1 0x20 PUSH0 KECCAK256 ADD SLOAD SUB PUSH2 0x1310 JUMPI CALLER PUSH0 SWAP1 DUP2 MSTORE PUSH1 0x9 PUSH1 0x20 MSTORE PUSH1 0x40 SWAP1 KECCAK256 PUSH1 0x8 ADD DUP1 SLOAD PUSH2 0x128B SWAP1 PUSH1 0x1 SWAP1 PUSH2 0x2A4F JUMP JUMPDEST DUP2 SLOAD DUP2 LT PUSH2 0x129B JUMPI PUSH2 0x129B PUSH2 0x2814 JUMP JUMPDEST PUSH0 SWAP2 DUP3 MSTORE PUSH1 0x20 DUP1 DUP4 KECCAK256 SWAP1 SWAP2 ADD SLOAD CALLER DUP4 MSTORE PUSH1 0x9 SWAP1 SWAP2 MSTORE PUSH1 0x40 SWAP1 SWAP2 KECCAK256 PUSH1 0x8 ADD DUP1 SLOAD DUP4 SWAP1 DUP2 LT PUSH2 0x12CA JUMPI PUSH2 0x12CA PUSH2 0x2814 JUMP JUMPDEST PUSH0 SWAP2 DUP3 MSTORE PUSH1 0x20 DUP1 DUP4 KECCAK256 SWAP1 SWAP2 ADD SWAP3 SWAP1 SWAP3 SSTORE CALLER DUP2 MSTORE PUSH1 0x9 SWAP1 SWAP2 MSTORE PUSH1 0x40 SWAP1 KECCAK256 PUSH1 0x8 ADD DUP1 SLOAD DUP1 PUSH2 0x12F8 JUMPI PUSH2 0x12F8 PUSH2 0x2A62 JUMP JUMPDEST PUSH1 0x1 SWAP1 SUB DUP2 DUP2 SWAP1 PUSH0 MSTORE PUSH1 0x20 PUSH0 KECCAK256 ADD PUSH0 SWAP1 SSTORE SWAP1 SSTORE PUSH2 0x1318 JUMP JUMPDEST PUSH1 0x1 ADD PUSH2 0x11F2 JUMP JUMPDEST POP PUSH1 0x1 ADD PUSH2 0x11E6 JUMP JUMPDEST POP CALLER PUSH0 SWAP1 DUP2 MSTORE PUSH1 0x9 PUSH1 0x20 SWAP1 DUP2 MSTORE PUSH1 0x40 DUP3 KECCAK256 SWAP3 DUP2 ADD MLOAD PUSH1 0x8 SWAP1 SWAP4 ADD DUP1 SLOAD PUSH1 0x1 DUP2 ADD DUP3 SSTORE SWAP1 DUP4 MSTORE SWAP2 KECCAK256 ADD SSTORE POP JUMP JUMPDEST PUSH0 DUP1 MLOAD PUSH1 0x20 PUSH2 0x2ACE DUP4 CODECOPY DUP2 MLOAD SWAP2 MSTORE PUSH2 0x1364 DUP2 PUSH2 0x1B8B JUMP JUMPDEST PUSH2 0xB3E PUSH2 0x1EE3 JUMP JUMPDEST PUSH0 SWAP2 DUP3 MSTORE PUSH0 DUP1 MLOAD PUSH1 0x20 PUSH2 0x2AEE DUP4 CODECOPY DUP2 MLOAD SWAP2 MSTORE PUSH1 0x20 SWAP1 DUP2 MSTORE PUSH1 0x40 DUP1 DUP5 KECCAK256 PUSH1 0x1 PUSH1 0x1 PUSH1 0xA0 SHL SUB SWAP4 SWAP1 SWAP4 AND DUP5 MSTORE SWAP2 SWAP1 MSTORE SWAP1 KECCAK256 SLOAD PUSH1 0xFF AND SWAP1 JUMP JUMPDEST PUSH0 DUP1 MLOAD PUSH1 0x20 PUSH2 0x2A8E DUP4 CODECOPY DUP2 MLOAD SWAP2 MSTORE PUSH2 0x13B9 DUP2 PUSH2 0x1B8B JUMP JUMPDEST POP PUSH1 0x3 DUP1 SLOAD PUSH1 0x1 PUSH1 0x1 PUSH1 0xA0 SHL SUB NOT AND PUSH1 0x1 PUSH1 0x1 PUSH1 0xA0 SHL SUB SWAP3 SWAP1 SWAP3 AND SWAP2 SWAP1 SWAP2 OR SWAP1 SSTORE JUMP JUMPDEST PUSH0 DUP1 MLOAD PUSH1 0x20 PUSH2 0x2A8E DUP4 CODECOPY DUP2 MLOAD SWAP2 MSTORE PUSH2 0x13F3 DUP2 PUSH2 0x1B8B JUMP JUMPDEST POP PUSH1 0x1 DUP1 SLOAD PUSH1 0x1 PUSH1 0x1 PUSH1 0xA0 SHL SUB NOT AND PUSH1 0x1 PUSH1 0x1 PUSH1 0xA0 SHL SUB SWAP3 SWAP1 SWAP3 AND SWAP2 SWAP1 SWAP2 OR SWAP1 SSTORE JUMP JUMPDEST PUSH1 0xB PUSH1 0x20 MSTORE PUSH0 SWAP1 DUP2 MSTORE PUSH1 0x40 SWAP1 KECCAK256 DUP1 SLOAD DUP2 SWAP1 PUSH2 0x1430 SWAP1 PUSH2 0x284A JUMP JUMPDEST DUP1 PUSH1 0x1F ADD PUSH1 0x20 DUP1 SWAP2 DIV MUL PUSH1 0x20 ADD PUSH1 0x40 MLOAD SWAP1 DUP2 ADD PUSH1 0x40 MSTORE DUP1 SWAP3 SWAP2 SWAP1 DUP2 DUP2 MSTORE PUSH1 0x20 ADD DUP3 DUP1 SLOAD PUSH2 0x145C SWAP1 PUSH2 0x284A JUMP JUMPDEST DUP1 ISZERO PUSH2 0x14A7 JUMPI DUP1 PUSH1 0x1F LT PUSH2 0x147E JUMPI PUSH2 0x100 DUP1 DUP4 SLOAD DIV MUL DUP4 MSTORE SWAP2 PUSH1 0x20 ADD SWAP2 PUSH2 0x14A7 JUMP JUMPDEST DUP3 ADD SWAP2 SWAP1 PUSH0 MSTORE PUSH1 0x20 PUSH0 KECCAK256 SWAP1 JUMPDEST DUP2 SLOAD DUP2 MSTORE SWAP1 PUSH1 0x1 ADD SWAP1 PUSH1 0x20 ADD DUP1 DUP4 GT PUSH2 0x148A JUMPI DUP3 SWAP1 SUB PUSH1 0x1F AND DUP3 ADD SWAP2 JUMPDEST POP POP POP PUSH1 0x1 SWAP1 SWAP4 ADD SLOAD SWAP2 SWAP3 POP POP PUSH1 0x1 PUSH1 0x1 PUSH1 0xA0 SHL SUB AND DUP3 JUMP JUMPDEST PUSH0 DUP1 MLOAD PUSH1 0x20 PUSH2 0x2A8E DUP4 CODECOPY DUP2 MLOAD SWAP2 MSTORE PUSH2 0x14D7 DUP2 PUSH2 0x1B8B JUMP JUMPDEST PUSH1 0x40 DUP1 MLOAD DUP1 DUP3 ADD DUP3 MSTORE DUP5 DUP2 MSTORE PUSH1 0x20 DUP1 DUP3 ADD DUP6 SWAP1 MSTORE PUSH1 0x7 SLOAD PUSH0 SWAP1 DUP2 MSTORE PUSH1 0xD DUP3 MSTORE SWAP3 SWAP1 SWAP3 KECCAK256 DUP2 MLOAD DUP1 MLOAD SWAP3 SWAP4 SWAP2 SWAP3 PUSH2 0x150F SWAP3 DUP5 SWAP3 ADD SWAP1 PUSH2 0x2215 JUMP JUMPDEST POP PUSH1 0x20 SWAP2 DUP3 ADD MLOAD PUSH1 0x1 SWAP1 SWAP2 ADD SSTORE PUSH1 0x7 SLOAD PUSH1 0x40 DUP1 MLOAD SWAP2 DUP3 MSTORE SWAP2 DUP2 ADD DUP5 SWAP1 MSTORE PUSH32 0x9BECFD2B1FC8127387C5B0002A6CBC8382E6C8FB9F76DFD6CFD92CBE94383D0E SWAP2 ADD PUSH1 0x40 MLOAD DUP1 SWAP2 SUB SWAP1 LOG1 PUSH1 0x7 DUP1 SLOAD SWAP1 PUSH0 PUSH2 0x1566 DUP4 PUSH2 0x2A37 JUMP JUMPDEST SWAP2 SWAP1 POP SSTORE POP POP POP POP JUMP JUMPDEST PUSH0 DUP1 MLOAD PUSH1 0x20 PUSH2 0x2A8E DUP4 CODECOPY DUP2 MLOAD SWAP2 MSTORE PUSH2 0x1587 DUP2 PUSH2 0x1B8B JUMP JUMPDEST POP PUSH1 0x5 DUP1 SLOAD PUSH1 0x1 PUSH1 0x1 PUSH1 0xA0 SHL SUB NOT AND PUSH1 0x1 PUSH1 0x1 PUSH1 0xA0 SHL SUB SWAP3 SWAP1 SWAP3 AND SWAP2 SWAP1 SWAP2 OR SWAP1 SSTORE JUMP JUMPDEST PUSH1 0x8 PUSH1 0x20 MSTORE PUSH0 SWAP1 DUP2 MSTORE PUSH1 0x40 SWAP1 KECCAK256 DUP1 SLOAD PUSH1 0x1 DUP3 ADD DUP1 SLOAD SWAP2 SWAP3 SWAP2 PUSH2 0x15CB SWAP1 PUSH2 0x284A JUMP JUMPDEST DUP1 PUSH1 0x1F ADD PUSH1 0x20 DUP1 SWAP2 DIV MUL PUSH1 0x20 ADD PUSH1 0x40 MLOAD SWAP1 DUP2 ADD PUSH1 0x40 MSTORE DUP1 SWAP3 SWAP2 SWAP1 DUP2 DUP2 MSTORE PUSH1 0x20 ADD DUP3 DUP1 SLOAD PUSH2 0x15F7 SWAP1 PUSH2 0x284A JUMP JUMPDEST DUP1 ISZERO PUSH2 0x1642 JUMPI DUP1 PUSH1 0x1F LT PUSH2 0x1619 JUMPI PUSH2 0x100 DUP1 DUP4 SLOAD DIV MUL DUP4 MSTORE SWAP2 PUSH1 0x20 ADD SWAP2 PUSH2 0x1642 JUMP JUMPDEST DUP3 ADD SWAP2 SWAP1 PUSH0 MSTORE PUSH1 0x20 PUSH0 KECCAK256 SWAP1 JUMPDEST DUP2 SLOAD DUP2 MSTORE SWAP1 PUSH1 0x1 ADD SWAP1 PUSH1 0x20 ADD DUP1 DUP4 GT PUSH2 0x1625 JUMPI DUP3 SWAP1 SUB PUSH1 0x1F AND DUP3 ADD SWAP2 JUMPDEST POP POP POP POP POP SWAP1 DUP1 PUSH1 0x2 ADD SLOAD SWAP1 DUP1 PUSH1 0x3 ADD SLOAD SWAP1 DUP1 PUSH1 0x4 ADD SLOAD SWAP1 DUP1 PUSH1 0x5 ADD SLOAD SWAP1 POP DUP7 JUMP JUMPDEST PUSH1 0xA PUSH1 0x20 MSTORE DUP2 PUSH0 MSTORE PUSH1 0x40 PUSH0 KECCAK256 DUP2 DUP2 SLOAD DUP2 LT PUSH2 0x167D JUMPI PUSH0 DUP1 REVERT JUMPDEST SWAP1 PUSH0 MSTORE PUSH1 0x20 PUSH0 KECCAK256 SWAP1 PUSH1 0x4 MUL ADD PUSH0 SWAP2 POP SWAP2 POP POP DUP1 PUSH0 ADD DUP1 SLOAD PUSH2 0x169D SWAP1 PUSH2 0x284A JUMP JUMPDEST DUP1 PUSH1 0x1F ADD PUSH1 0x20 DUP1 SWAP2 DIV MUL PUSH1 0x20 ADD PUSH1 0x40 MLOAD SWAP1 DUP2 ADD PUSH1 0x40 MSTORE DUP1 SWAP3 SWAP2 SWAP1 DUP2 DUP2 MSTORE PUSH1 0x20 ADD DUP3 DUP1 SLOAD PUSH2 0x16C9 SWAP1 PUSH2 0x284A JUMP JUMPDEST DUP1 ISZERO PUSH2 0x1714 JUMPI DUP1 PUSH1 0x1F LT PUSH2 0x16EB JUMPI PUSH2 0x100 DUP1 DUP4 SLOAD DIV MUL DUP4 MSTORE SWAP2 PUSH1 0x20 ADD SWAP2 PUSH2 0x1714 JUMP JUMPDEST DUP3 ADD SWAP2 SWAP1 PUSH0 MSTORE PUSH1 0x20 PUSH0 KECCAK256 SWAP1 JUMPDEST DUP2 SLOAD DUP2 MSTORE SWAP1 PUSH1 0x1 ADD SWAP1 PUSH1 0x20 ADD DUP1 DUP4 GT PUSH2 0x16F7 JUMPI DUP3 SWAP1 SUB PUSH1 0x1F AND DUP3 ADD SWAP2 JUMPDEST POP POP POP POP POP SWAP1 DUP1 PUSH1 0x1 ADD DUP1 SLOAD PUSH2 0x1729 SWAP1 PUSH2 0x284A JUMP JUMPDEST DUP1 PUSH1 0x1F ADD PUSH1 0x20 DUP1 SWAP2 DIV MUL PUSH1 0x20 ADD PUSH1 0x40 MLOAD SWAP1 DUP2 ADD PUSH1 0x40 MSTORE DUP1 SWAP3 SWAP2 SWAP1 DUP2 DUP2 MSTORE PUSH1 0x20 ADD DUP3 DUP1 SLOAD PUSH2 0x1755 SWAP1 PUSH2 0x284A JUMP JUMPDEST DUP1 ISZERO PUSH2 0x17A0 JUMPI DUP1 PUSH1 0x1F LT PUSH2 0x1777 JUMPI PUSH2 0x100 DUP1 DUP4 SLOAD DIV MUL DUP4 MSTORE SWAP2 PUSH1 0x20 ADD SWAP2 PUSH2 0x17A0 JUMP JUMPDEST DUP3 ADD SWAP2 SWAP1 PUSH0 MSTORE PUSH1 0x20 PUSH0 KECCAK256 SWAP1 JUMPDEST DUP2 SLOAD DUP2 MSTORE SWAP1 PUSH1 0x1 ADD SWAP1 PUSH1 0x20 ADD DUP1 DUP4 GT PUSH2 0x1783 JUMPI DUP3 SWAP1 SUB PUSH1 0x1F AND DUP3 ADD SWAP2 JUMPDEST POP POP POP POP PUSH1 0x2 DUP4 ADD SLOAD PUSH1 0x3 SWAP1 SWAP4 ADD SLOAD SWAP2 SWAP3 SWAP2 PUSH1 0xFF AND SWAP1 POP DUP5 JUMP JUMPDEST PUSH2 0x17C3 DUP3 PUSH2 0x9B4 JUMP JUMPDEST PUSH2 0x17CC DUP2 PUSH2 0x1B8B JUMP JUMPDEST PUSH2 0x9F0 DUP4 DUP4 PUSH2 0x1C36 JUMP JUMPDEST PUSH0 DUP1 MLOAD PUSH1 0x20 PUSH2 0x2A8E DUP4 CODECOPY DUP2 MLOAD SWAP2 MSTORE PUSH2 0x17ED DUP2 PUSH2 0x1B8B JUMP JUMPDEST POP PUSH1 0x2 DUP1 SLOAD PUSH1 0x1 PUSH1 0x1 PUSH1 0xA0 SHL SUB NOT AND PUSH1 0x1 PUSH1 0x1 PUSH1 0xA0 SHL SUB SWAP3 SWAP1 SWAP3 AND SWAP2 SWAP1 SWAP2 OR SWAP1 SSTORE JUMP JUMPDEST PUSH0 PUSH1 0xC DUP3 PUSH1 0x40 MLOAD PUSH2 0x1821 SWAP2 SWAP1 PUSH2 0x283F JUMP JUMPDEST SWAP1 DUP2 MSTORE PUSH1 0x40 MLOAD SWAP1 DUP2 SWAP1 SUB PUSH1 0x20 ADD SWAP1 KECCAK256 SLOAD PUSH1 0x1 PUSH1 0x1 PUSH1 0xA0 SHL SUB AND SWAP1 POP DUP1 PUSH2 0x1880 JUMPI PUSH1 0x40 MLOAD PUSH3 0x461BCD PUSH1 0xE5 SHL DUP2 MSTORE PUSH1 0x20 PUSH1 0x4 DUP3 ADD MSTORE PUSH1 0x14 PUSH1 0x24 DUP3 ADD MSTORE PUSH20 0x11DD5A5B1908191BD95CC81B9BDD08195E1A5CDD PUSH1 0x62 SHL PUSH1 0x44 DUP3 ADD MSTORE PUSH1 0x64 ADD PUSH2 0xB91 JUMP JUMPDEST PUSH1 0x1 PUSH1 0x1 PUSH1 0xA0 SHL SUB DUP2 AND PUSH0 SWAP1 DUP2 MSTORE PUSH1 0xB PUSH1 0x20 MSTORE PUSH1 0x40 DUP2 KECCAK256 SWAP1 JUMPDEST PUSH1 0x2 DUP3 ADD SLOAD DUP2 LT ISZERO PUSH2 0x193D JUMPI CALLER PUSH1 0x1 PUSH1 0x1 PUSH1 0xA0 SHL SUB AND DUP3 PUSH1 0x2 ADD DUP3 DUP2 SLOAD DUP2 LT PUSH2 0x18C4 JUMPI PUSH2 0x18C4 PUSH2 0x2814 JUMP JUMPDEST PUSH0 SWAP2 DUP3 MSTORE PUSH1 0x20 SWAP1 SWAP2 KECCAK256 ADD SLOAD PUSH1 0x1 PUSH1 0x1 PUSH1 0xA0 SHL SUB AND SUB PUSH2 0x1935 JUMPI PUSH1 0x40 MLOAD PUSH3 0x461BCD PUSH1 0xE5 SHL DUP2 MSTORE PUSH1 0x20 PUSH1 0x4 DUP3 ADD MSTORE PUSH1 0x27 PUSH1 0x24 DUP3 ADD MSTORE PUSH32 0x53656E64657220697320616C72656164792061206D656D626572206F66207468 PUSH1 0x44 DUP3 ADD MSTORE PUSH7 0x194819DD5A5B19 PUSH1 0xCA SHL PUSH1 0x64 DUP3 ADD MSTORE PUSH1 0x84 ADD PUSH2 0xB91 JUMP JUMPDEST PUSH1 0x1 ADD PUSH2 0x1899 JUMP JUMPDEST POP PUSH1 0x2 ADD DUP1 SLOAD PUSH1 0x1 DUP2 ADD DUP3 SSTORE PUSH0 SWAP2 DUP3 MSTORE PUSH1 0x20 SWAP1 SWAP2 KECCAK256 ADD DUP1 SLOAD PUSH1 0x1 PUSH1 0x1 PUSH1 0xA0 SHL SUB NOT AND CALLER OR SWAP1 SSTORE POP POP JUMP JUMPDEST PUSH0 DUP1 MLOAD PUSH1 0x20 PUSH2 0x2A8E DUP4 CODECOPY DUP2 MLOAD SWAP2 MSTORE PUSH2 0x197E DUP2 PUSH2 0x1B8B JUMP JUMPDEST POP PUSH1 0x4 DUP1 SLOAD PUSH1 0x1 PUSH1 0x1 PUSH1 0xA0 SHL SUB NOT AND PUSH1 0x1 PUSH1 0x1 PUSH1 0xA0 SHL SUB SWAP3 SWAP1 SWAP3 AND SWAP2 SWAP1 SWAP2 OR SWAP1 SSTORE JUMP JUMPDEST PUSH32 0xF0C57E16840DF040F15088DC2F81FE391C3923BEC73E23A9662EFC9C229C6A00 DUP1 SLOAD PUSH1 0x1 PUSH1 0x40 SHL DUP2 DIV PUSH1 0xFF AND ISZERO SWAP1 PUSH1 0x1 PUSH1 0x1 PUSH1 0x40 SHL SUB AND PUSH0 DUP2 ISZERO DUP1 ISZERO PUSH2 0x19E5 JUMPI POP DUP3 JUMPDEST SWAP1 POP PUSH0 DUP3 PUSH1 0x1 PUSH1 0x1 PUSH1 0x40 SHL SUB AND PUSH1 0x1 EQ DUP1 ISZERO PUSH2 0x1A00 JUMPI POP ADDRESS EXTCODESIZE ISZERO JUMPDEST SWAP1 POP DUP2 ISZERO DUP1 ISZERO PUSH2 0x1A0E JUMPI POP DUP1 ISZERO JUMPDEST ISZERO PUSH2 0x1A2C JUMPI PUSH1 0x40 MLOAD PUSH4 0xF92EE8A9 PUSH1 0xE0 SHL DUP2 MSTORE PUSH1 0x4 ADD PUSH1 0x40 MLOAD DUP1 SWAP2 SUB SWAP1 REVERT JUMPDEST DUP5 SLOAD PUSH8 0xFFFFFFFFFFFFFFFF NOT AND PUSH1 0x1 OR DUP6 SSTORE DUP4 ISZERO PUSH2 0x1A56 JUMPI DUP5 SLOAD PUSH1 0xFF PUSH1 0x40 SHL NOT AND PUSH1 0x1 PUSH1 0x40 SHL OR DUP6 SSTORE JUMPDEST PUSH2 0x1A5E PUSH2 0x1F2B JUMP JUMPDEST PUSH2 0x1A66 PUSH2 0x1F3B JUMP JUMPDEST PUSH2 0x1A6E PUSH2 0x1F3B JUMP JUMPDEST PUSH2 0x1A78 PUSH0 DUP16 PUSH2 0x1B95 JUMP JUMPDEST POP PUSH2 0x1A90 PUSH0 DUP1 MLOAD PUSH1 0x20 PUSH2 0x2ACE DUP4 CODECOPY DUP2 MLOAD SWAP2 MSTORE DUP15 PUSH2 0x1B95 JUMP JUMPDEST POP PUSH2 0x1ABB PUSH32 0x189AB7A9244DF0848122154315AF71FE140F3DB0FE014031783B0946B8C9D2E3 DUP14 PUSH2 0x1B95 JUMP JUMPDEST POP PUSH2 0x1AD3 PUSH0 DUP1 MLOAD PUSH1 0x20 PUSH2 0x2A8E DUP4 CODECOPY DUP2 MLOAD SWAP2 MSTORE DUP16 PUSH2 0x1B95 JUMP JUMPDEST POP PUSH0 DUP1 SLOAD PUSH1 0x1 PUSH1 0x1 PUSH1 0xA0 SHL SUB NOT SWAP1 DUP2 AND PUSH1 0x1 PUSH1 0x1 PUSH1 0xA0 SHL SUB DUP15 DUP2 AND SWAP2 SWAP1 SWAP2 OR SWAP1 SWAP3 SSTORE PUSH1 0x1 DUP1 SLOAD DUP3 AND DUP14 DUP5 AND OR SWAP1 SSTORE PUSH1 0x2 DUP1 SLOAD DUP3 AND DUP13 DUP5 AND OR SWAP1 SSTORE PUSH1 0x3 DUP1 SLOAD DUP3 AND DUP12 DUP5 AND OR SWAP1 SSTORE PUSH1 0x4 DUP1 SLOAD DUP3 AND DUP11 DUP5 AND OR SWAP1 SSTORE PUSH1 0x5 DUP1 SLOAD SWAP1 SWAP2 AND SWAP2 DUP9 AND SWAP2 SWAP1 SWAP2 OR SWAP1 SSTORE DUP4 ISZERO PUSH2 0x1B7B JUMPI DUP5 SLOAD PUSH1 0xFF PUSH1 0x40 SHL NOT AND DUP6 SSTORE PUSH1 0x40 MLOAD PUSH1 0x1 DUP2 MSTORE PUSH32 0xC7F505B2F371AE2175EE4913F4499E1F2633A7B5936321EED1CDAEB6115181D2 SWAP1 PUSH1 0x20 ADD PUSH1 0x40 MLOAD DUP1 SWAP2 SUB SWAP1 LOG1 JUMPDEST POP POP POP POP POP POP POP POP POP POP POP POP POP POP JUMP JUMPDEST PUSH2 0xB3E DUP2 CALLER PUSH2 0x1F43 JUMP JUMPDEST PUSH0 PUSH0 DUP1 MLOAD PUSH1 0x20 PUSH2 0x2AEE DUP4 CODECOPY DUP2 MLOAD SWAP2 MSTORE PUSH2 0x1BAE DUP5 DUP5 PUSH2 0x136C JUMP JUMPDEST PUSH2 0x1C2D JUMPI PUSH0 DUP5 DUP2 MSTORE PUSH1 0x20 DUP3 DUP2 MSTORE PUSH1 0x40 DUP1 DUP4 KECCAK256 PUSH1 0x1 PUSH1 0x1 PUSH1 0xA0 SHL SUB DUP8 AND DUP5 MSTORE SWAP1 SWAP2 MSTORE SWAP1 KECCAK256 DUP1 SLOAD PUSH1 0xFF NOT AND PUSH1 0x1 OR SWAP1 SSTORE PUSH2 0x1BE3 CALLER SWAP1 JUMP JUMPDEST PUSH1 0x1 PUSH1 0x1 PUSH1 0xA0 SHL SUB AND DUP4 PUSH1 0x1 PUSH1 0x1 PUSH1 0xA0 SHL SUB AND DUP6 PUSH32 0x2F8788117E7EFF1D82E926EC794901D17C78024A50270940304540A733656F0D PUSH1 0x40 MLOAD PUSH1 0x40 MLOAD DUP1 SWAP2 SUB SWAP1 LOG4 PUSH1 0x1 SWAP2 POP POP PUSH2 0x87A JUMP JUMPDEST PUSH0 SWAP2 POP POP PUSH2 0x87A JUMP JUMPDEST PUSH0 PUSH0 DUP1 MLOAD PUSH1 0x20 PUSH2 0x2AEE DUP4 CODECOPY DUP2 MLOAD SWAP2 MSTORE PUSH2 0x1C4F DUP5 DUP5 PUSH2 0x136C JUMP JUMPDEST ISZERO PUSH2 0x1C2D JUMPI PUSH0 DUP5 DUP2 MSTORE PUSH1 0x20 DUP3 DUP2 MSTORE PUSH1 0x40 DUP1 DUP4 KECCAK256 PUSH1 0x1 PUSH1 0x1 PUSH1 0xA0 SHL SUB DUP8 AND DUP1 DUP6 MSTORE SWAP3 MSTORE DUP1 DUP4 KECCAK256 DUP1 SLOAD PUSH1 0xFF NOT AND SWAP1 SSTORE MLOAD CALLER SWAP3 DUP8 SWAP2 PUSH32 0xF6391F5C32D9C69D2A47EA670B442974B53935D1EDC7FD64EB21E047A839171B SWAP2 SWAP1 LOG4 PUSH1 0x1 SWAP2 POP POP PUSH2 0x87A JUMP JUMPDEST PUSH2 0x1CB7 PUSH2 0x1F7C JUMP JUMPDEST PUSH0 DUP1 MLOAD PUSH1 0x20 PUSH2 0x2B0E DUP4 CODECOPY DUP2 MLOAD SWAP2 MSTORE DUP1 SLOAD PUSH1 0xFF NOT AND DUP2 SSTORE PUSH32 0x5DB9EE0A495BF2E6FF9C91A7834C1BA4FDD244A5E8AA4E537BD38AEAE4B073AA CALLER JUMPDEST PUSH1 0x40 MLOAD PUSH1 0x1 PUSH1 0x1 PUSH1 0xA0 SHL SUB SWAP1 SWAP2 AND DUP2 MSTORE PUSH1 0x20 ADD PUSH1 0x40 MLOAD DUP1 SWAP2 SUB SWAP1 LOG1 POP JUMP JUMPDEST ADDRESS PUSH1 0x1 PUSH1 0x1 PUSH1 0xA0 SHL SUB PUSH32 0x0 AND EQ DUP1 PUSH2 0x1D94 JUMPI POP PUSH32 0x0 PUSH1 0x1 PUSH1 0x1 PUSH1 0xA0 SHL SUB AND PUSH2 0x1D88 PUSH0 DUP1 MLOAD PUSH1 0x20 PUSH2 0x2AAE DUP4 CODECOPY DUP2 MLOAD SWAP2 MSTORE SLOAD PUSH1 0x1 PUSH1 0x1 PUSH1 0xA0 SHL SUB AND SWAP1 JUMP JUMPDEST PUSH1 0x1 PUSH1 0x1 PUSH1 0xA0 SHL SUB AND EQ ISZERO JUMPDEST ISZERO PUSH2 0x1DB2 JUMPI PUSH1 0x40 MLOAD PUSH4 0x703E46DD PUSH1 0xE1 SHL DUP2 MSTORE PUSH1 0x4 ADD PUSH1 0x40 MLOAD DUP1 SWAP2 SUB SWAP1 REVERT JUMPDEST JUMP JUMPDEST PUSH32 0x189AB7A9244DF0848122154315AF71FE140F3DB0FE014031783B0946B8C9D2E3 PUSH2 0x9B0 DUP2 PUSH2 0x1B8B JUMP JUMPDEST DUP2 PUSH1 0x1 PUSH1 0x1 PUSH1 0xA0 SHL SUB AND PUSH4 0x52D1902D PUSH1 0x40 MLOAD DUP2 PUSH4 0xFFFFFFFF AND PUSH1 0xE0 SHL DUP2 MSTORE PUSH1 0x4 ADD PUSH1 0x20 PUSH1 0x40 MLOAD DUP1 DUP4 SUB DUP2 DUP7 GAS STATICCALL SWAP3 POP POP POP DUP1 ISZERO PUSH2 0x1E38 JUMPI POP PUSH1 0x40 DUP1 MLOAD PUSH1 0x1F RETURNDATASIZE SWAP1 DUP2 ADD PUSH1 0x1F NOT AND DUP3 ADD SWAP1 SWAP3 MSTORE PUSH2 0x1E35 SWAP2 DUP2 ADD SWAP1 PUSH2 0x2A76 JUMP JUMPDEST PUSH1 0x1 JUMPDEST PUSH2 0x1E60 JUMPI PUSH1 0x40 MLOAD PUSH4 0x4C9C8CE3 PUSH1 0xE0 SHL DUP2 MSTORE PUSH1 0x1 PUSH1 0x1 PUSH1 0xA0 SHL SUB DUP4 AND PUSH1 0x4 DUP3 ADD MSTORE PUSH1 0x24 ADD PUSH2 0xB91 JUMP JUMPDEST PUSH0 DUP1 MLOAD PUSH1 0x20 PUSH2 0x2AAE DUP4 CODECOPY DUP2 MLOAD SWAP2 MSTORE DUP2 EQ PUSH2 0x1E90 JUMPI PUSH1 0x40 MLOAD PUSH4 0x2A875269 PUSH1 0xE2 SHL DUP2 MSTORE PUSH1 0x4 DUP2 ADD DUP3 SWAP1 MSTORE PUSH1 0x24 ADD PUSH2 0xB91 JUMP JUMPDEST PUSH2 0xB1A DUP4 DUP4 PUSH2 0x1FAB JUMP JUMPDEST ADDRESS PUSH1 0x1 PUSH1 0x1 PUSH1 0xA0 SHL SUB PUSH32 0x0 AND EQ PUSH2 0x1DB2 JUMPI PUSH1 0x40 MLOAD PUSH4 0x703E46DD PUSH1 0xE1 SHL DUP2 MSTORE PUSH1 0x4 ADD PUSH1 0x40 MLOAD DUP1 SWAP2 SUB SWAP1 REVERT JUMPDEST PUSH2 0x1EEB PUSH2 0x2000 JUMP JUMPDEST PUSH0 DUP1 MLOAD PUSH1 0x20 PUSH2 0x2B0E DUP4 CODECOPY DUP2 MLOAD SWAP2 MSTORE DUP1 SLOAD PUSH1 0xFF NOT AND PUSH1 0x1 OR DUP2 SSTORE PUSH32 0x62E78CEA01BEE320CD4E420270B5EA74000D11B0C9F74754EBDBFC544B05A258 CALLER PUSH2 0x1CF0 JUMP JUMPDEST PUSH2 0x1F33 PUSH2 0x2030 JUMP JUMPDEST PUSH2 0x1DB2 PUSH2 0x2079 JUMP JUMPDEST PUSH2 0x1DB2 PUSH2 0x2030 JUMP JUMPDEST PUSH2 0x1F4D DUP3 DUP3 PUSH2 0x136C JUMP JUMPDEST PUSH2 0x9B0 JUMPI PUSH1 0x40 MLOAD PUSH4 0xE2517D3F PUSH1 0xE0 SHL DUP2 MSTORE PUSH1 0x1 PUSH1 0x1 PUSH1 0xA0 SHL SUB DUP3 AND PUSH1 0x4 DUP3 ADD MSTORE PUSH1 0x24 DUP2 ADD DUP4 SWAP1 MSTORE PUSH1 0x44 ADD PUSH2 0xB91 JUMP JUMPDEST PUSH0 DUP1 MLOAD PUSH1 0x20 PUSH2 0x2B0E DUP4 CODECOPY DUP2 MLOAD SWAP2 MSTORE SLOAD PUSH1 0xFF AND PUSH2 0x1DB2 JUMPI PUSH1 0x40 MLOAD PUSH4 0x8DFC202B PUSH1 0xE0 SHL DUP2 MSTORE PUSH1 0x4 ADD PUSH1 0x40 MLOAD DUP1 SWAP2 SUB SWAP1 REVERT JUMPDEST PUSH2 0x1FB4 DUP3 PUSH2 0x2099 JUMP JUMPDEST PUSH1 0x40 MLOAD PUSH1 0x1 PUSH1 0x1 PUSH1 0xA0 SHL SUB DUP4 AND SWAP1 PUSH32 0xBC7CD75A20EE27FD9ADEBAB32041F755214DBC6BFFA90CC0225B39DA2E5C2D3B SWAP1 PUSH0 SWAP1 LOG2 DUP1 MLOAD ISZERO PUSH2 0x1FF8 JUMPI PUSH2 0xB1A DUP3 DUP3 PUSH2 0x20FC JUMP JUMPDEST PUSH2 0x9B0 PUSH2 0x216E JUMP JUMPDEST PUSH0 DUP1 MLOAD PUSH1 0x20 PUSH2 0x2B0E DUP4 CODECOPY DUP2 MLOAD SWAP2 MSTORE SLOAD PUSH1 0xFF AND ISZERO PUSH2 0x1DB2 JUMPI PUSH1 0x40 MLOAD PUSH4 0xD93C0665 PUSH1 0xE0 SHL DUP2 MSTORE PUSH1 0x4 ADD PUSH1 0x40 MLOAD DUP1 SWAP2 SUB SWAP1 REVERT JUMPDEST PUSH32 0xF0C57E16840DF040F15088DC2F81FE391C3923BEC73E23A9662EFC9C229C6A00 SLOAD PUSH1 0x1 PUSH1 0x40 SHL SWAP1 DIV PUSH1 0xFF AND PUSH2 0x1DB2 JUMPI PUSH1 0x40 MLOAD PUSH4 0x1AFCD79F PUSH1 0xE3 SHL DUP2 MSTORE PUSH1 0x4 ADD PUSH1 0x40 MLOAD DUP1 SWAP2 SUB SWAP1 REVERT JUMPDEST PUSH2 0x2081 PUSH2 0x2030 JUMP JUMPDEST PUSH0 DUP1 MLOAD PUSH1 0x20 PUSH2 0x2B0E DUP4 CODECOPY DUP2 MLOAD SWAP2 MSTORE DUP1 SLOAD PUSH1 0xFF NOT AND SWAP1 SSTORE JUMP JUMPDEST DUP1 PUSH1 0x1 PUSH1 0x1 PUSH1 0xA0 SHL SUB AND EXTCODESIZE PUSH0 SUB PUSH2 0x20CE JUMPI PUSH1 0x40 MLOAD PUSH4 0x4C9C8CE3 PUSH1 0xE0 SHL DUP2 MSTORE PUSH1 0x1 PUSH1 0x1 PUSH1 0xA0 SHL SUB DUP3 AND PUSH1 0x4 DUP3 ADD MSTORE PUSH1 0x24 ADD PUSH2 0xB91 JUMP JUMPDEST PUSH0 DUP1 MLOAD PUSH1 0x20 PUSH2 0x2AAE DUP4 CODECOPY DUP2 MLOAD SWAP2 MSTORE DUP1 SLOAD PUSH1 0x1 PUSH1 0x1 PUSH1 0xA0 SHL SUB NOT AND PUSH1 0x1 PUSH1 0x1 PUSH1 0xA0 SHL SUB SWAP3 SWAP1 SWAP3 AND SWAP2 SWAP1 SWAP2 OR SWAP1 SSTORE JUMP JUMPDEST PUSH1 0x60 PUSH0 DUP1 DUP5 PUSH1 0x1 PUSH1 0x1 PUSH1 0xA0 SHL SUB AND DUP5 PUSH1 0x40 MLOAD PUSH2 0x2118 SWAP2 SWAP1 PUSH2 0x283F JUMP JUMPDEST PUSH0 PUSH1 0x40 MLOAD DUP1 DUP4 SUB DUP2 DUP6 GAS DELEGATECALL SWAP2 POP POP RETURNDATASIZE DUP1 PUSH0 DUP2 EQ PUSH2 0x2150 JUMPI PUSH1 0x40 MLOAD SWAP2 POP PUSH1 0x1F NOT PUSH1 0x3F RETURNDATASIZE ADD AND DUP3 ADD PUSH1 0x40 MSTORE RETURNDATASIZE DUP3 MSTORE RETURNDATASIZE PUSH0 PUSH1 0x20 DUP5 ADD RETURNDATACOPY PUSH2 0x2155 JUMP JUMPDEST PUSH1 0x60 SWAP2 POP JUMPDEST POP SWAP2 POP SWAP2 POP PUSH2 0x2165 DUP6 DUP4 DUP4 PUSH2 0x218D JUMP JUMPDEST SWAP6 SWAP5 POP POP POP POP POP JUMP JUMPDEST CALLVALUE ISZERO PUSH2 0x1DB2 JUMPI PUSH1 0x40 MLOAD PUSH4 0xB398979F PUSH1 0xE0 SHL DUP2 MSTORE PUSH1 0x4 ADD PUSH1 0x40 MLOAD DUP1 SWAP2 SUB SWAP1 REVERT JUMPDEST PUSH1 0x60 DUP3 PUSH2 0x21A2 JUMPI PUSH2 0x219D DUP3 PUSH2 0x21EC JUMP JUMPDEST PUSH2 0x21E5 JUMP JUMPDEST DUP2 MLOAD ISZERO DUP1 ISZERO PUSH2 0x21B9 JUMPI POP PUSH1 0x1 PUSH1 0x1 PUSH1 0xA0 SHL SUB DUP5 AND EXTCODESIZE ISZERO JUMPDEST ISZERO PUSH2 0x21E2 JUMPI PUSH1 0x40 MLOAD PUSH4 0x9996B315 PUSH1 0xE0 SHL DUP2 MSTORE PUSH1 0x1 PUSH1 0x1 PUSH1 0xA0 SHL SUB DUP6 AND PUSH1 0x4 DUP3 ADD MSTORE PUSH1 0x24 ADD PUSH2 0xB91 JUMP JUMPDEST POP DUP1 JUMPDEST SWAP4 SWAP3 POP POP POP JUMP JUMPDEST DUP1 MLOAD ISZERO PUSH2 0x21FC JUMPI DUP1 MLOAD DUP1 DUP3 PUSH1 0x20 ADD REVERT JUMPDEST PUSH1 0x40 MLOAD PUSH4 0xA12F521 PUSH1 0xE1 SHL DUP2 MSTORE PUSH1 0x4 ADD PUSH1 0x40 MLOAD DUP1 SWAP2 SUB SWAP1 REVERT JUMPDEST DUP3 DUP1 SLOAD DUP3 DUP3 SSTORE SWAP1 PUSH0 MSTORE PUSH1 0x20 PUSH0 KECCAK256 SWAP1 DUP2 ADD SWAP3 DUP3 ISZERO PUSH2 0x224E JUMPI SWAP2 PUSH1 0x20 MUL DUP3 ADD JUMPDEST DUP3 DUP2 GT ISZERO PUSH2 0x224E JUMPI DUP3 MLOAD DUP3 SSTORE SWAP2 PUSH1 0x20 ADD SWAP2 SWAP1 PUSH1 0x1 ADD SWAP1 PUSH2 0x2233 JUMP JUMPDEST POP PUSH2 0x225A SWAP3 SWAP2 POP PUSH2 0x22B1 JUMP JUMPDEST POP SWAP1 JUMP JUMPDEST DUP3 DUP1 SLOAD DUP3 DUP3 SSTORE SWAP1 PUSH0 MSTORE PUSH1 0x20 PUSH0 KECCAK256 SWAP1 DUP2 ADD SWAP3 DUP3 ISZERO PUSH2 0x224E JUMPI SWAP2 PUSH1 0x20 MUL DUP3 ADD JUMPDEST DUP3 DUP2 GT ISZERO PUSH2 0x224E JUMPI DUP3 MLOAD DUP3 SLOAD PUSH1 0x1 PUSH1 0x1 PUSH1 0xA0 SHL SUB NOT AND PUSH1 0x1 PUSH1 0x1 PUSH1 0xA0 SHL SUB SWAP1 SWAP2 AND OR DUP3 SSTORE PUSH1 0x20 SWAP1 SWAP3 ADD SWAP2 PUSH1 0x1 SWAP1 SWAP2 ADD SWAP1 PUSH2 0x227C JUMP JUMPDEST JUMPDEST DUP1 DUP3 GT ISZERO PUSH2 0x225A JUMPI PUSH0 DUP2 SSTORE PUSH1 0x1 ADD PUSH2 0x22B2 JUMP JUMPDEST PUSH0 PUSH1 0x20 DUP3 DUP5 SUB SLT ISZERO PUSH2 0x22D5 JUMPI PUSH0 DUP1 REVERT JUMPDEST DUP2 CALLDATALOAD PUSH1 0x1 PUSH1 0x1 PUSH1 0xE0 SHL SUB NOT DUP2 AND DUP2 EQ PUSH2 0x21E5 JUMPI PUSH0 DUP1 REVERT JUMPDEST PUSH4 0x4E487B71 PUSH1 0xE0 SHL PUSH0 MSTORE PUSH1 0x41 PUSH1 0x4 MSTORE PUSH1 0x24 PUSH0 REVERT JUMPDEST PUSH1 0x40 MLOAD PUSH1 0x1F DUP3 ADD PUSH1 0x1F NOT AND DUP2 ADD PUSH1 0x1 PUSH1 0x1 PUSH1 0x40 SHL SUB DUP2 GT DUP3 DUP3 LT OR ISZERO PUSH2 0x2328 JUMPI PUSH2 0x2328 PUSH2 0x22EC JUMP JUMPDEST PUSH1 0x40 MSTORE SWAP2 SWAP1 POP JUMP JUMPDEST PUSH0 DUP1 PUSH1 0x1 PUSH1 0x1 PUSH1 0x40 SHL SUB DUP5 GT ISZERO PUSH2 0x2349 JUMPI PUSH2 0x2349 PUSH2 0x22EC JUMP JUMPDEST POP PUSH1 0x1F DUP4 ADD PUSH1 0x1F NOT AND PUSH1 0x20 ADD PUSH2 0x235E DUP2 PUSH2 0x2300 JUMP JUMPDEST SWAP2 POP POP DUP3 DUP2 MSTORE DUP4 DUP4 DUP4 ADD GT ISZERO PUSH2 0x2372 JUMPI PUSH0 DUP1 REVERT JUMPDEST DUP3 DUP3 PUSH1 0x20 DUP4 ADD CALLDATACOPY PUSH0 PUSH1 0x20 DUP5 DUP4 ADD ADD MSTORE SWAP4 SWAP3 POP POP POP JUMP JUMPDEST PUSH0 DUP3 PUSH1 0x1F DUP4 ADD SLT PUSH2 0x2397 JUMPI PUSH0 DUP1 REVERT JUMPDEST PUSH2 0x21E5 DUP4 DUP4 CALLDATALOAD PUSH1 0x20 DUP6 ADD PUSH2 0x2330 JUMP JUMPDEST PUSH0 PUSH1 0x20 DUP3 DUP5 SUB SLT ISZERO PUSH2 0x23B6 JUMPI PUSH0 DUP1 REVERT JUMPDEST DUP2 CALLDATALOAD PUSH1 0x1 PUSH1 0x1 PUSH1 0x40 SHL SUB DUP2 GT ISZERO PUSH2 0x23CB JUMPI PUSH0 DUP1 REVERT JUMPDEST PUSH2 0x23D7 DUP5 DUP3 DUP6 ADD PUSH2 0x2388 JUMP JUMPDEST SWAP5 SWAP4 POP POP POP POP JUMP JUMPDEST PUSH0 PUSH1 0x20 DUP3 DUP5 SUB SLT ISZERO PUSH2 0x23EF JUMPI PUSH0 DUP1 REVERT JUMPDEST POP CALLDATALOAD SWAP2 SWAP1 POP JUMP JUMPDEST DUP1 CALLDATALOAD PUSH1 0x1 PUSH1 0x1 PUSH1 0xA0 SHL SUB DUP2 AND DUP2 EQ PUSH2 0x240C JUMPI PUSH0 DUP1 REVERT JUMPDEST SWAP2 SWAP1 POP JUMP JUMPDEST PUSH0 DUP1 PUSH1 0x40 DUP4 DUP6 SUB SLT ISZERO PUSH2 0x2422 JUMPI PUSH0 DUP1 REVERT JUMPDEST DUP3 CALLDATALOAD SWAP2 POP PUSH2 0x2432 PUSH1 0x20 DUP5 ADD PUSH2 0x23F6 JUMP JUMPDEST SWAP1 POP SWAP3 POP SWAP3 SWAP1 POP JUMP JUMPDEST PUSH0 DUP1 PUSH0 DUP1 PUSH0 PUSH1 0xA0 DUP7 DUP9 SUB SLT ISZERO PUSH2 0x244F JUMPI PUSH0 DUP1 REVERT JUMPDEST DUP6 CALLDATALOAD PUSH1 0x1 PUSH1 0x1 PUSH1 0x40 SHL SUB DUP2 GT ISZERO PUSH2 0x2464 JUMPI PUSH0 DUP1 REVERT JUMPDEST PUSH2 0x2470 DUP9 DUP3 DUP10 ADD PUSH2 0x2388 JUMP JUMPDEST SWAP9 PUSH1 0x20 DUP9 ADD CALLDATALOAD SWAP9 POP PUSH1 0x40 DUP9 ADD CALLDATALOAD SWAP8 PUSH1 0x60 DUP2 ADD CALLDATALOAD SWAP8 POP PUSH1 0x80 ADD CALLDATALOAD SWAP6 POP SWAP4 POP POP POP POP JUMP JUMPDEST PUSH0 PUSH1 0x20 DUP3 DUP5 SUB SLT ISZERO PUSH2 0x24A2 JUMPI PUSH0 DUP1 REVERT JUMPDEST PUSH2 0x21E5 DUP3 PUSH2 0x23F6 JUMP JUMPDEST PUSH0 DUP1 PUSH1 0x40 DUP4 DUP6 SUB SLT ISZERO PUSH2 0x24BC JUMPI PUSH0 DUP1 REVERT JUMPDEST PUSH2 0x24C5 DUP4 PUSH2 0x23F6 JUMP JUMPDEST SWAP2 POP PUSH1 0x20 DUP4 ADD CALLDATALOAD PUSH1 0x1 PUSH1 0x1 PUSH1 0x40 SHL SUB DUP2 GT ISZERO PUSH2 0x24DF JUMPI PUSH0 DUP1 REVERT JUMPDEST DUP4 ADD PUSH1 0x1F DUP2 ADD DUP6 SGT PUSH2 0x24EF JUMPI PUSH0 DUP1 REVERT JUMPDEST PUSH2 0x24FE DUP6 DUP3 CALLDATALOAD PUSH1 0x20 DUP5 ADD PUSH2 0x2330 JUMP JUMPDEST SWAP2 POP POP SWAP3 POP SWAP3 SWAP1 POP JUMP JUMPDEST PUSH0 DUP1 PUSH1 0x40 DUP4 DUP6 SUB SLT ISZERO PUSH2 0x2519 JUMPI PUSH0 DUP1 REVERT JUMPDEST DUP3 CALLDATALOAD PUSH1 0x1 PUSH1 0x1 PUSH1 0x40 SHL SUB DUP2 GT ISZERO PUSH2 0x252E JUMPI PUSH0 DUP1 REVERT JUMPDEST PUSH2 0x253A DUP6 DUP3 DUP7 ADD PUSH2 0x2388 JUMP JUMPDEST SWAP3 POP POP PUSH2 0x2432 PUSH1 0x20 DUP5 ADD PUSH2 0x23F6 JUMP JUMPDEST PUSH0 DUP1 PUSH0 PUSH1 0x60 DUP5 DUP7 SUB SLT ISZERO PUSH2 0x255B JUMPI PUSH0 DUP1 REVERT JUMPDEST DUP4 CALLDATALOAD PUSH1 0x1 PUSH1 0x1 PUSH1 0x40 SHL SUB DUP2 GT ISZERO PUSH2 0x2570 JUMPI PUSH0 DUP1 REVERT JUMPDEST PUSH2 0x257C DUP7 DUP3 DUP8 ADD PUSH2 0x2388 JUMP JUMPDEST SWAP4 POP POP PUSH1 0x20 DUP5 ADD CALLDATALOAD PUSH1 0x1 PUSH1 0x1 PUSH1 0x40 SHL SUB DUP2 GT ISZERO PUSH2 0x2597 JUMPI PUSH0 DUP1 REVERT JUMPDEST PUSH2 0x25A3 DUP7 DUP3 DUP8 ADD PUSH2 0x2388 JUMP JUMPDEST SWAP4 SWAP7 SWAP4 SWAP6 POP POP POP POP PUSH1 0x40 SWAP2 SWAP1 SWAP2 ADD CALLDATALOAD SWAP1 JUMP JUMPDEST PUSH0 DUP2 MLOAD DUP1 DUP5 MSTORE DUP1 PUSH1 0x20 DUP5 ADD PUSH1 0x20 DUP7 ADD MCOPY PUSH0 PUSH1 0x20 DUP3 DUP7 ADD ADD MSTORE PUSH1 0x20 PUSH1 0x1F NOT PUSH1 0x1F DUP4 ADD AND DUP6 ADD ADD SWAP2 POP POP SWAP3 SWAP2 POP POP JUMP JUMPDEST PUSH1 0x40 DUP2 MSTORE PUSH0 PUSH2 0x25F5 PUSH1 0x40 DUP4 ADD DUP6 PUSH2 0x25B5 JUMP JUMPDEST SWAP1 POP PUSH1 0x1 DUP1 PUSH1 0xA0 SHL SUB DUP4 AND PUSH1 0x20 DUP4 ADD MSTORE SWAP4 SWAP3 POP POP POP JUMP JUMPDEST PUSH0 DUP1 PUSH1 0x40 DUP4 DUP6 SUB SLT ISZERO PUSH2 0x261D JUMPI PUSH0 DUP1 REVERT JUMPDEST DUP3 CALLDATALOAD PUSH1 0x1 PUSH1 0x1 PUSH1 0x40 SHL SUB DUP2 GT ISZERO PUSH2 0x2632 JUMPI PUSH0 DUP1 REVERT JUMPDEST DUP4 ADD PUSH1 0x1F DUP2 ADD DUP6 SGT PUSH2 0x2642 JUMPI PUSH0 DUP1 REVERT JUMPDEST DUP1 CALLDATALOAD PUSH1 0x1 PUSH1 0x1 PUSH1 0x40 SHL SUB DUP2 GT ISZERO PUSH2 0x265B JUMPI PUSH2 0x265B PUSH2 0x22EC JUMP JUMPDEST DUP1 PUSH1 0x5 SHL PUSH2 0x266B PUSH1 0x20 DUP3 ADD PUSH2 0x2300 JUMP JUMPDEST SWAP2 DUP3 MSTORE PUSH1 0x20 DUP2 DUP5 ADD DUP2 ADD SWAP3 SWAP1 DUP2 ADD SWAP1 DUP9 DUP5 GT ISZERO PUSH2 0x2686 JUMPI PUSH0 DUP1 REVERT JUMPDEST PUSH1 0x20 DUP6 ADD SWAP5 POP JUMPDEST DUP4 DUP6 LT ISZERO PUSH2 0x26AC JUMPI DUP5 CALLDATALOAD DUP1 DUP4 MSTORE PUSH1 0x20 SWAP6 DUP7 ADD SWAP6 SWAP1 SWAP4 POP SWAP1 SWAP2 ADD SWAP1 PUSH2 0x268D JUMP JUMPDEST SWAP9 PUSH1 0x20 SWAP8 SWAP1 SWAP8 ADD CALLDATALOAD SWAP8 POP POP POP POP POP POP POP JUMP JUMPDEST PUSH1 0x20 DUP2 MSTORE PUSH0 PUSH2 0x21E5 PUSH1 0x20 DUP4 ADD DUP5 PUSH2 0x25B5 JUMP JUMPDEST DUP7 DUP2 MSTORE PUSH1 0xC0 PUSH1 0x20 DUP3 ADD MSTORE PUSH0 PUSH2 0x26E8 PUSH1 0xC0 DUP4 ADD DUP9 PUSH2 0x25B5 JUMP JUMPDEST SWAP1 POP DUP6 PUSH1 0x40 DUP4 ADD MSTORE DUP5 PUSH1 0x60 DUP4 ADD MSTORE DUP4 PUSH1 0x80 DUP4 ADD MSTORE DUP3 PUSH1 0xA0 DUP4 ADD MSTORE SWAP8 SWAP7 POP POP POP POP POP POP POP JUMP JUMPDEST PUSH0 DUP1 PUSH1 0x40 DUP4 DUP6 SUB SLT ISZERO PUSH2 0x271E JUMPI PUSH0 DUP1 REVERT JUMPDEST PUSH2 0x2727 DUP4 PUSH2 0x23F6 JUMP JUMPDEST SWAP5 PUSH1 0x20 SWAP4 SWAP1 SWAP4 ADD CALLDATALOAD SWAP4 POP POP POP JUMP JUMPDEST PUSH1 0x80 DUP2 MSTORE PUSH0 PUSH2 0x2747 PUSH1 0x80 DUP4 ADD DUP8 PUSH2 0x25B5 JUMP JUMPDEST DUP3 DUP2 SUB PUSH1 0x20 DUP5 ADD MSTORE PUSH2 0x2759 DUP2 DUP8 PUSH2 0x25B5 JUMP JUMPDEST PUSH1 0x40 DUP5 ADD SWAP6 SWAP1 SWAP6 MSTORE POP POP SWAP1 ISZERO ISZERO PUSH1 0x60 SWAP1 SWAP2 ADD MSTORE SWAP3 SWAP2 POP POP JUMP JUMPDEST PUSH0 DUP1 PUSH0 DUP1 PUSH0 DUP1 PUSH0 DUP1 PUSH0 PUSH2 0x120 DUP11 DUP13 SUB SLT ISZERO PUSH2 0x278B JUMPI PUSH0 DUP1 REVERT JUMPDEST PUSH2 0x2794 DUP11 PUSH2 0x23F6 JUMP JUMPDEST SWAP9 POP PUSH2 0x27A2 PUSH1 0x20 DUP12 ADD PUSH2 0x23F6 JUMP JUMPDEST SWAP8 POP PUSH2 0x27B0 PUSH1 0x40 DUP12 ADD PUSH2 0x23F6 JUMP JUMPDEST SWAP7 POP PUSH2 0x27BE PUSH1 0x60 DUP12 ADD PUSH2 0x23F6 JUMP JUMPDEST SWAP6 POP PUSH2 0x27CC PUSH1 0x80 DUP12 ADD PUSH2 0x23F6 JUMP JUMPDEST SWAP5 POP PUSH2 0x27DA PUSH1 0xA0 DUP12 ADD PUSH2 0x23F6 JUMP JUMPDEST SWAP4 POP PUSH2 0x27E8 PUSH1 0xC0 DUP12 ADD PUSH2 0x23F6 JUMP JUMPDEST SWAP3 POP PUSH2 0x27F6 PUSH1 0xE0 DUP12 ADD PUSH2 0x23F6 JUMP JUMPDEST SWAP2 POP PUSH2 0x2805 PUSH2 0x100 DUP12 ADD PUSH2 0x23F6 JUMP JUMPDEST SWAP1 POP SWAP3 SWAP6 SWAP9 POP SWAP3 SWAP6 SWAP9 POP SWAP3 SWAP6 SWAP9 JUMP JUMPDEST PUSH4 0x4E487B71 PUSH1 0xE0 SHL PUSH0 MSTORE PUSH1 0x32 PUSH1 0x4 MSTORE PUSH1 0x24 PUSH0 REVERT JUMPDEST PUSH0 DUP2 MLOAD DUP1 PUSH1 0x20 DUP5 ADD DUP6 MCOPY PUSH0 SWAP4 ADD SWAP3 DUP4 MSTORE POP SWAP1 SWAP2 SWAP1 POP JUMP JUMPDEST PUSH0 PUSH2 0x21E5 DUP3 DUP5 PUSH2 0x2828 JUMP JUMPDEST PUSH1 0x1 DUP2 DUP2 SHR SWAP1 DUP3 AND DUP1 PUSH2 0x285E JUMPI PUSH1 0x7F DUP3 AND SWAP2 POP JUMPDEST PUSH1 0x20 DUP3 LT DUP2 SUB PUSH2 0x287C JUMPI PUSH4 0x4E487B71 PUSH1 0xE0 SHL PUSH0 MSTORE PUSH1 0x22 PUSH1 0x4 MSTORE PUSH1 0x24 PUSH0 REVERT JUMPDEST POP SWAP2 SWAP1 POP JUMP JUMPDEST PUSH0 DUP1 DUP4 SLOAD PUSH2 0x288F DUP2 PUSH2 0x284A JUMP JUMPDEST PUSH1 0x1 DUP3 AND DUP1 ISZERO PUSH2 0x28A6 JUMPI PUSH1 0x1 DUP2 EQ PUSH2 0x28BB JUMPI PUSH2 0x28E8 JUMP JUMPDEST PUSH1 0xFF NOT DUP4 AND DUP7 MSTORE DUP2 ISZERO ISZERO DUP3 MUL DUP7 ADD SWAP4 POP PUSH2 0x28E8 JUMP JUMPDEST DUP7 PUSH0 MSTORE PUSH1 0x20 PUSH0 KECCAK256 PUSH0 JUMPDEST DUP4 DUP2 LT ISZERO PUSH2 0x28E0 JUMPI DUP2 SLOAD DUP9 DUP3 ADD MSTORE PUSH1 0x1 SWAP1 SWAP2 ADD SWAP1 PUSH1 0x20 ADD PUSH2 0x28C4 JUMP JUMPDEST POP POP DUP2 DUP7 ADD SWAP4 POP JUMPDEST POP SWAP2 SWAP6 SWAP5 POP POP POP POP POP JUMP JUMPDEST PUSH4 0x4E487B71 PUSH1 0xE0 SHL PUSH0 MSTORE PUSH1 0x11 PUSH1 0x4 MSTORE PUSH1 0x24 PUSH0 REVERT JUMPDEST DUP1 DUP3 ADD DUP1 DUP3 GT ISZERO PUSH2 0x87A JUMPI PUSH2 0x87A PUSH2 0x28F3 JUMP JUMPDEST PUSH1 0x1F DUP3 GT ISZERO PUSH2 0xB1A JUMPI DUP1 PUSH0 MSTORE PUSH1 0x20 PUSH0 KECCAK256 PUSH1 0x1F DUP5 ADD PUSH1 0x5 SHR DUP2 ADD PUSH1 0x20 DUP6 LT ISZERO PUSH2 0x293F JUMPI POP DUP1 JUMPDEST PUSH1 0x1F DUP5 ADD PUSH1 0x5 SHR DUP3 ADD SWAP2 POP JUMPDEST DUP2 DUP2 LT ISZERO PUSH2 0x295E JUMPI PUSH0 DUP2 SSTORE PUSH1 0x1 ADD PUSH2 0x294B JUMP JUMPDEST POP POP POP POP POP JUMP JUMPDEST DUP2 MLOAD PUSH1 0x1 PUSH1 0x1 PUSH1 0x40 SHL SUB DUP2 GT ISZERO PUSH2 0x297E JUMPI PUSH2 0x297E PUSH2 0x22EC JUMP JUMPDEST PUSH2 0x2992 DUP2 PUSH2 0x298C DUP5 SLOAD PUSH2 0x284A JUMP JUMPDEST DUP5 PUSH2 0x291A JUMP JUMPDEST PUSH1 0x20 PUSH1 0x1F DUP3 GT PUSH1 0x1 DUP2 EQ PUSH2 0x29C4 JUMPI PUSH0 DUP4 ISZERO PUSH2 0x29AD JUMPI POP DUP5 DUP3 ADD MLOAD JUMPDEST PUSH0 NOT PUSH1 0x3 DUP6 SWAP1 SHL SHR NOT AND PUSH1 0x1 DUP5 SWAP1 SHL OR DUP5 SSTORE PUSH2 0x295E JUMP JUMPDEST PUSH0 DUP5 DUP2 MSTORE PUSH1 0x20 DUP2 KECCAK256 PUSH1 0x1F NOT DUP6 AND SWAP2 JUMPDEST DUP3 DUP2 LT ISZERO PUSH2 0x29F3 JUMPI DUP8 DUP6 ADD MLOAD DUP3 SSTORE PUSH1 0x20 SWAP5 DUP6 ADD SWAP5 PUSH1 0x1 SWAP1 SWAP3 ADD SWAP2 ADD PUSH2 0x29D3 JUMP JUMPDEST POP DUP5 DUP3 LT ISZERO PUSH2 0x2A10 JUMPI DUP7 DUP5 ADD MLOAD PUSH0 NOT PUSH1 0x3 DUP8 SWAP1 SHL PUSH1 0xF8 AND SHR NOT AND DUP2 SSTORE JUMPDEST POP POP POP POP PUSH1 0x1 SWAP1 DUP2 SHL ADD SWAP1 SSTORE POP JUMP JUMPDEST DUP3 DUP2 MSTORE PUSH1 0x40 PUSH1 0x20 DUP3 ADD MSTORE PUSH0 PUSH2 0x23D7 PUSH1 0x40 DUP4 ADD DUP5 PUSH2 0x25B5 JUMP JUMPDEST PUSH0 PUSH1 0x1 DUP3 ADD PUSH2 0x2A48 JUMPI PUSH2 0x2A48 PUSH2 0x28F3 JUMP JUMPDEST POP PUSH1 0x1 ADD SWAP1 JUMP JUMPDEST DUP2 DUP2 SUB DUP2 DUP2 GT ISZERO PUSH2 0x87A JUMPI PUSH2 0x87A PUSH2 0x28F3 JUMP JUMPDEST PUSH4 0x4E487B71 PUSH1 0xE0 SHL PUSH0 MSTORE PUSH1 0x31 PUSH1 0x4 MSTORE PUSH1 0x24 PUSH0 REVERT JUMPDEST PUSH0 PUSH1 0x20 DUP3 DUP5 SUB SLT ISZERO PUSH2 0x2A86 JUMPI PUSH0 DUP1 REVERT JUMPDEST POP MLOAD SWAP2 SWAP1 POP JUMP INVALID SWAP12 PUSH26 0x46ABD96DCCBE6CFC6CC2C13300AB429D93E16FA72DC459EECCDA PUSH20 0x817F08360894A13BA1A3210667C828492DB98DCA RETURNDATACOPY KECCAK256 PUSH23 0xCC3735A920A3CA505D382BBC65D7A28E3265B37A647492 SWAP16 CALLER PUSH6 0x21B332C1681B SWAP4 EXTCODEHASH PUSH13 0xB9F3376673440D862A02DD7BC7 0xDE 0xC4 0xDC 0xEE 0xDD 0xA7 PUSH22 0xE58DD541E08A116C6C53815C0BD028192F7B626800CD MCOPY 0xD1 TLOAD PUSH15 0x187E77E9AEE88184C21F4F2182AB58 0x27 0xCB EXTCODESIZE PUSH31 0x7FBEDCD63F03300A264697066735822122017E50992D8E441C501E255DD0D 0xD9 BLOBBASEFEE 0xE0 0x24 PUSH16 0x27BF1D9831D9196C551577A7A43E6473 PUSH16 0x6C634300081A00330000000000000000 "
		},
		"gasEstimates": {
			"creation": {
				"codeDepositCost": "2221400",
				"executionCost": "infinite",
				"totalCost": "infinite"
			},
			"external": {
				"DEFAULT_ADMIN_ROLE()": "327",
				"GAME_ADMIN_ROLE()": "infinite",
				"PAUSER_ROLE()": "infinite",
				"UPGRADER_ROLE()": "348",
				"UPGRADE_INTERFACE_VERSION()": "infinite",
				"addItem(string,uint256,uint256,uint256,uint256)": "infinite",
				"addRecipe(uint256[],uint256)": "infinite",
				"completeQuest(string)": "infinite",
				"craftItem(uint256)": "infinite",
				"createGuild(string,address)": "infinite",
				"createPlayer()": "infinite",
				"daoContract()": "2426",
				"erc1155Token()": "2449",
				"erc20Token()": "2381",
				"erc721Token()": "2425",
				"farmingContract()": "2405",
				"getRoleAdmin(bytes32)": "infinite",
				"grantRole(bytes32,address)": "infinite",
				"guilds(address)": "infinite",
				"hasRole(bytes32,address)": "infinite",
				"initialize(address,address,address,address,address,address,address,address,address)": "infinite",
				"items(uint256)": "infinite",
				"joinGuild(string)": "infinite",
				"pause()": "infinite",
				"paused()": "infinite",
				"playerQuests(address,uint256)": "infinite",
				"players(address)": "17589",
				"proxiableUUID()": "infinite",
				"recipes(uint256)": "2509",
				"renounceRole(bytes32,address)": "29183",
				"revokeRole(bytes32,address)": "infinite",
				"setDAOAddress(address)": "infinite",
				"setERC1155Address(address)": "infinite",
				"setERC20Address(address)": "infinite",
				"setERC721Address(address)": "infinite",
				"setFarmingAddress(address)": "infinite",
				"setStakingAddress(address)": "infinite",
				"stakingContract()": "2424",
				"startQuest(string,string,uint256)": "infinite",
				"supportsInterface(bytes4)": "470",
				"unpause()": "infinite",
				"upgradeToAndCall(address,bytes)": "infinite"
			},
			"internal": {
				"_authorizeUpgrade(address)": "infinite"
			}
		},
		"methodIdentifiers": {
			"DEFAULT_ADMIN_ROLE()": "a217fddf",
			"GAME_ADMIN_ROLE()": "be22d27d",
			"PAUSER_ROLE()": "e63ab1e9",
			"UPGRADER_ROLE()": "f72c0d8b",
			"UPGRADE_INTERFACE_VERSION()": "ad3cb1cc",
			"addItem(string,uint256,uint256,uint256,uint256)": "31fee8be",
			"addRecipe(uint256[],uint256)": "a9834b67",
			"completeQuest(string)": "17435e1a",
			"craftItem(uint256)": "7309cbbd",
			"createGuild(string,address)": "4fa4a1bb",
			"createPlayer()": "3fa9fcf8",
			"daoContract()": "4a7ffcbc",
			"erc1155Token()": "21f42268",
			"erc20Token()": "8a13eea7",
			"erc721Token()": "5f2d6bcd",
			"farmingContract()": "02eec568",
			"getRoleAdmin(bytes32)": "248a9ca3",
			"grantRole(bytes32,address)": "2f2ff15d",
			"guilds(address)": "a75859e1",
			"hasRole(bytes32,address)": "91d14854",
			"initialize(address,address,address,address,address,address,address,address,address)": "f5e95acb",
			"items(uint256)": "bfb231d2",
			"joinGuild(string)": "e551ba4b",
			"pause()": "8456cb59",
			"paused()": "5c975abb",
			"playerQuests(address,uint256)": "d3dcff7c",
			"players(address)": "e2eb41ff",
			"proxiableUUID()": "52d1902d",
			"recipes(uint256)": "443c227c",
			"renounceRole(bytes32,address)": "36568abe",
			"revokeRole(bytes32,address)": "d547741f",
			"setDAOAddress(address)": "965afa89",
			"setERC1155Address(address)": "d836fc6f",
			"setERC20Address(address)": "41bec0d2",
			"setERC721Address(address)": "9a03d9a3",
			"setFarmingAddress(address)": "b001f618",
			"setStakingAddress(address)": "f4e0d9ac",
			"stakingContract()": "ee99205c",
			"startQuest(string,string,uint256)": "6f347a78",
			"supportsInterface(bytes4)": "01ffc9a7",
			"unpause()": "3f4ba83a",
			"upgradeToAndCall(address,bytes)": "4f1ef286"
		}
	},
	"abi": [
		{
			"inputs": [],
			"name": "AccessControlBadConfirmation",
			"type": "error"
		},
		{
			"inputs": [
				{
					"internalType": "address",
					"name": "account",
					"type": "address"
				},
				{
					"internalType": "bytes32",
					"name": "neededRole",
					"type": "bytes32"
				}
			],
			"name": "AccessControlUnauthorizedAccount",
			"type": "error"
		},
		{
			"inputs": [
				{
					"internalType": "address",
					"name": "target",
					"type": "address"
				}
			],
			"name": "AddressEmptyCode",
			"type": "error"
		},
		{
			"inputs": [
				{
					"internalType": "address",
					"name": "implementation",
					"type": "address"
				}
			],
			"name": "ERC1967InvalidImplementation",
			"type": "error"
		},
		{
			"inputs": [],
			"name": "ERC1967NonPayable",
			"type": "error"
		},
		{
			"inputs": [],
			"name": "EnforcedPause",
			"type": "error"
		},
		{
			"inputs": [],
			"name": "ExpectedPause",
			"type": "error"
		},
		{
			"inputs": [],
			"name": "FailedInnerCall",
			"type": "error"
		},
		{
			"inputs": [],
			"name": "InvalidInitialization",
			"type": "error"
		},
		{
			"inputs": [],
			"name": "NotInitializing",
			"type": "error"
		},
		{
			"inputs": [],
			"name": "UUPSUnauthorizedCallContext",
			"type": "error"
		},
		{
			"inputs": [
				{
					"internalType": "bytes32",
					"name": "slot",
					"type": "bytes32"
				}
			],
			"name": "UUPSUnsupportedProxiableUUID",
			"type": "error"
		},
		{
			"anonymous": false,
			"inputs": [
				{
					"indexed": false,
					"internalType": "string",
					"name": "name",
					"type": "string"
				},
				{
					"indexed": false,
					"internalType": "address",
					"name": "leader",
					"type": "address"
				}
			],
			"name": "GuildCreated",
			"type": "event"
		},
		{
			"anonymous": false,
			"inputs": [
				{
					"indexed": false,
					"internalType": "uint64",
					"name": "version",
					"type": "uint64"
				}
			],
			"name": "Initialized",
			"type": "event"
		},
		{
			"anonymous": false,
			"inputs": [
				{
					"indexed": false,
					"internalType": "uint256",
					"name": "itemId",
					"type": "uint256"
				},
				{
					"indexed": false,
					"internalType": "string",
					"name": "itemName",
					"type": "string"
				}
			],
			"name": "ItemAdded",
			"type": "event"
		},
		{
			"anonymous": false,
			"inputs": [
				{
					"indexed": false,
					"internalType": "address",
					"name": "account",
					"type": "address"
				}
			],
			"name": "Paused",
			"type": "event"
		},
		{
			"anonymous": false,
			"inputs": [
				{
					"indexed": true,
					"internalType": "address",
					"name": "player",
					"type": "address"
				}
			],
			"name": "PlayerCreated",
			"type": "event"
		},
		{
			"anonymous": false,
			"inputs": [
				{
					"indexed": true,
					"internalType": "address",
					"name": "player",
					"type": "address"
				},
				{
					"indexed": false,
					"internalType": "string",
					"name": "questTitle",
					"type": "string"
				}
			],
			"name": "QuestCompleted",
			"type": "event"
		},
		{
			"anonymous": false,
			"inputs": [
				{
					"indexed": false,
					"internalType": "uint256",
					"name": "recipeId",
					"type": "uint256"
				},
				{
					"indexed": false,
					"internalType": "uint256",
					"name": "resultItemId",
					"type": "uint256"
				}
			],
			"name": "RecipeAdded",
			"type": "event"
		},
		{
			"anonymous": false,
			"inputs": [
				{
					"indexed": true,
					"internalType": "bytes32",
					"name": "role",
					"type": "bytes32"
				},
				{
					"indexed": true,
					"internalType": "bytes32",
					"name": "previousAdminRole",
					"type": "bytes32"
				},
				{
					"indexed": true,
					"internalType": "bytes32",
					"name": "newAdminRole",
					"type": "bytes32"
				}
			],
			"name": "RoleAdminChanged",
			"type": "event"
		},
		{
			"anonymous": false,
			"inputs": [
				{
					"indexed": true,
					"internalType": "bytes32",
					"name": "role",
					"type": "bytes32"
				},
				{
					"indexed": true,
					"internalType": "address",
					"name": "account",
					"type": "address"
				},
				{
					"indexed": true,
					"internalType": "address",
					"name": "sender",
					"type": "address"
				}
			],
			"name": "RoleGranted",
			"type": "event"
		},
		{
			"anonymous": false,
			"inputs": [
				{
					"indexed": true,
					"internalType": "bytes32",
					"name": "role",
					"type": "bytes32"
				},
				{
					"indexed": true,
					"internalType": "address",
					"name": "account",
					"type": "address"
				},
				{
					"indexed": true,
					"internalType": "address",
					"name": "sender",
					"type": "address"
				}
			],
			"name": "RoleRevoked",
			"type": "event"
		},
		{
			"anonymous": false,
			"inputs": [
				{
					"indexed": false,
					"internalType": "address",
					"name": "account",
					"type": "address"
				}
			],
			"name": "Unpaused",
			"type": "event"
		},
		{
			"anonymous": false,
			"inputs": [
				{
					"indexed": true,
					"internalType": "address",
					"name": "implementation",
					"type": "address"
				}
			],
			"name": "Upgraded",
			"type": "event"
		},
		{
			"inputs": [],
			"name": "DEFAULT_ADMIN_ROLE",
			"outputs": [
				{
					"internalType": "bytes32",
					"name": "",
					"type": "bytes32"
				}
			],
			"stateMutability": "view",
			"type": "function"
		},
		{
			"inputs": [],
			"name": "GAME_ADMIN_ROLE",
			"outputs": [
				{
					"internalType": "bytes32",
					"name": "",
					"type": "bytes32"
				}
			],
			"stateMutability": "view",
			"type": "function"
		},
		{
			"inputs": [],
			"name": "PAUSER_ROLE",
			"outputs": [
				{
					"internalType": "bytes32",
					"name": "",
					"type": "bytes32"
				}
			],
			"stateMutability": "view",
			"type": "function"
		},
		{
			"inputs": [],
			"name": "UPGRADER_ROLE",
			"outputs": [
				{
					"internalType": "bytes32",
					"name": "",
					"type": "bytes32"
				}
			],
			"stateMutability": "view",
			"type": "function"
		},
		{
			"inputs": [],
			"name": "UPGRADE_INTERFACE_VERSION",
			"outputs": [
				{
					"internalType": "string",
					"name": "",
					"type": "string"
				}
			],
			"stateMutability": "view",
			"type": "function"
		},
		{
			"inputs": [
				{
					"internalType": "string",
					"name": "name",
					"type": "string"
				},
				{
					"internalType": "uint256",
					"name": "attackBonus",
					"type": "uint256"
				},
				{
					"internalType": "uint256",
					"name": "defenseBonus",
					"type": "uint256"
				},
				{
					"internalType": "uint256",
					"name": "manaBonus",
					"type": "uint256"
				},
				{
					"internalType": "uint256",
					"name": "healthBonus",
					"type": "uint256"
				}
			],
			"name": "addItem",
			"outputs": [],
			"stateMutability": "nonpayable",
			"type": "function"
		},
		{
			"inputs": [
				{
					"internalType": "uint256[]",
					"name": "itemIds",
					"type": "uint256[]"
				},
				{
					"internalType": "uint256",
					"name": "resultItemId",
					"type": "uint256"
				}
			],
			"name": "addRecipe",
			"outputs": [],
			"stateMutability": "nonpayable",
			"type": "function"
		},
		{
			"inputs": [
				{
					"internalType": "string",
					"name": "questTitle",
					"type": "string"
				}
			],
			"name": "completeQuest",
			"outputs": [],
			"stateMutability": "nonpayable",
			"type": "function"
		},
		{
			"inputs": [
				{
					"internalType": "uint256",
					"name": "recipeId",
					"type": "uint256"
				}
			],
			"name": "craftItem",
			"outputs": [],
			"stateMutability": "nonpayable",
			"type": "function"
		},
		{
			"inputs": [
				{
					"internalType": "string",
					"name": "name",
					"type": "string"
				},
				{
					"internalType": "address",
					"name": "leader",
					"type": "address"
				}
			],
			"name": "createGuild",
			"outputs": [],
			"stateMutability": "nonpayable",
			"type": "function"
		},
		{
			"inputs": [],
			"name": "createPlayer",
			"outputs": [],
			"stateMutability": "nonpayable",
			"type": "function"
		},
		{
			"inputs": [],
			"name": "daoContract",
			"outputs": [
				{
					"internalType": "contract IDAO",
					"name": "",
					"type": "address"
				}
			],
			"stateMutability": "view",
			"type": "function"
		},
		{
			"inputs": [],
			"name": "erc1155Token",
			"outputs": [
				{
					"internalType": "contract IERC1155",
					"name": "",
					"type": "address"
				}
			],
			"stateMutability": "view",
			"type": "function"
		},
		{
			"inputs": [],
			"name": "erc20Token",
			"outputs": [
				{
					"internalType": "contract IERC20",
					"name": "",
					"type": "address"
				}
			],
			"stateMutability": "view",
			"type": "function"
		},
		{
			"inputs": [],
			"name": "erc721Token",
			"outputs": [
				{
					"internalType": "contract IERC721",
					"name": "",
					"type": "address"
				}
			],
			"stateMutability": "view",
			"type": "function"
		},
		{
			"inputs": [],
			"name": "farmingContract",
			"outputs": [
				{
					"internalType": "contract IFarming",
					"name": "",
					"type": "address"
				}
			],
			"stateMutability": "view",
			"type": "function"
		},
		{
			"inputs": [
				{
					"internalType": "bytes32",
					"name": "role",
					"type": "bytes32"
				}
			],
			"name": "getRoleAdmin",
			"outputs": [
				{
					"internalType": "bytes32",
					"name": "",
					"type": "bytes32"
				}
			],
			"stateMutability": "view",
			"type": "function"
		},
		{
			"inputs": [
				{
					"internalType": "bytes32",
					"name": "role",
					"type": "bytes32"
				},
				{
					"internalType": "address",
					"name": "account",
					"type": "address"
				}
			],
			"name": "grantRole",
			"outputs": [],
			"stateMutability": "nonpayable",
			"type": "function"
		},
		{
			"inputs": [
				{
					"internalType": "address",
					"name": "",
					"type": "address"
				}
			],
			"name": "guilds",
			"outputs": [
				{
					"internalType": "string",
					"name": "name",
					"type": "string"
				},
				{
					"internalType": "address",
					"name": "leader",
					"type": "address"
				}
			],
			"stateMutability": "view",
			"type": "function"
		},
		{
			"inputs": [
				{
					"internalType": "bytes32",
					"name": "role",
					"type": "bytes32"
				},
				{
					"internalType": "address",
					"name": "account",
					"type": "address"
				}
			],
			"name": "hasRole",
			"outputs": [
				{
					"internalType": "bool",
					"name": "",
					"type": "bool"
				}
			],
			"stateMutability": "view",
			"type": "function"
		},
		{
			"inputs": [
				{
					"internalType": "address",
					"name": "defaultAdmin",
					"type": "address"
				},
				{
					"internalType": "address",
					"name": "pauser",
					"type": "address"
				},
				{
					"internalType": "address",
					"name": "upgrader",
					"type": "address"
				},
				{
					"internalType": "address",
					"name": "_erc20Address",
					"type": "address"
				},
				{
					"internalType": "address",
					"name": "_erc721Address",
					"type": "address"
				},
				{
					"internalType": "address",
					"name": "_erc1155Address",
					"type": "address"
				},
				{
					"internalType": "address",
					"name": "_daoAddress",
					"type": "address"
				},
				{
					"internalType": "address",
					"name": "_stakingAddress",
					"type": "address"
				},
				{
					"internalType": "address",
					"name": "_farmingAddress",
					"type": "address"
				}
			],
			"name": "initialize",
			"outputs": [],
			"stateMutability": "nonpayable",
			"type": "function"
		},
		{
			"inputs": [
				{
					"internalType": "uint256",
					"name": "",
					"type": "uint256"
				}
			],
			"name": "items",
			"outputs": [
				{
					"internalType": "uint256",
					"name": "id",
					"type": "uint256"
				},
				{
					"internalType": "string",
					"name": "name",
					"type": "string"
				},
				{
					"internalType": "uint256",
					"name": "attackBonus",
					"type": "uint256"
				},
				{
					"internalType": "uint256",
					"name": "defenseBonus",
					"type": "uint256"
				},
				{
					"internalType": "uint256",
					"name": "manaBonus",
					"type": "uint256"
				},
				{
					"internalType": "uint256",
					"name": "healthBonus",
					"type": "uint256"
				}
			],
			"stateMutability": "view",
			"type": "function"
		},
		{
			"inputs": [
				{
					"internalType": "string",
					"name": "guildName",
					"type": "string"
				}
			],
			"name": "joinGuild",
			"outputs": [],
			"stateMutability": "nonpayable",
			"type": "function"
		},
		{
			"inputs": [],
			"name": "pause",
			"outputs": [],
			"stateMutability": "nonpayable",
			"type": "function"
		},
		{
			"inputs": [],
			"name": "paused",
			"outputs": [
				{
					"internalType": "bool",
					"name": "",
					"type": "bool"
				}
			],
			"stateMutability": "view",
			"type": "function"
		},
		{
			"inputs": [
				{
					"internalType": "address",
					"name": "",
					"type": "address"
				},
				{
					"internalType": "uint256",
					"name": "",
					"type": "uint256"
				}
			],
			"name": "playerQuests",
			"outputs": [
				{
					"internalType": "string",
					"name": "title",
					"type": "string"
				},
				{
					"internalType": "string",
					"name": "description",
					"type": "string"
				},
				{
					"internalType": "uint256",
					"name": "rewardXP",
					"type": "uint256"
				},
				{
					"internalType": "bool",
					"name": "completed",
					"type": "bool"
				}
			],
			"stateMutability": "view",
			"type": "function"
		},
		{
			"inputs": [
				{
					"internalType": "address",
					"name": "",
					"type": "address"
				}
			],
			"name": "players",
			"outputs": [
				{
					"internalType": "uint256",
					"name": "level",
					"type": "uint256"
				},
				{
					"internalType": "uint256",
					"name": "experience",
					"type": "uint256"
				},
				{
					"internalType": "uint256",
					"name": "health",
					"type": "uint256"
				},
				{
					"internalType": "uint256",
					"name": "mana",
					"type": "uint256"
				},
				{
					"internalType": "uint256",
					"name": "attackDamage",
					"type": "uint256"
				},
				{
					"internalType": "uint256",
					"name": "defense",
					"type": "uint256"
				},
				{
					"internalType": "uint256",
					"name": "agility",
					"type": "uint256"
				},
				{
					"internalType": "uint256",
					"name": "luck",
					"type": "uint256"
				}
			],
			"stateMutability": "view",
			"type": "function"
		},
		{
			"inputs": [],
			"name": "proxiableUUID",
			"outputs": [
				{
					"internalType": "bytes32",
					"name": "",
					"type": "bytes32"
				}
			],
			"stateMutability": "view",
			"type": "function"
		},
		{
			"inputs": [
				{
					"internalType": "uint256",
					"name": "",
					"type": "uint256"
				}
			],
			"name": "recipes",
			"outputs": [
				{
					"internalType": "uint256",
					"name": "resultItemId",
					"type": "uint256"
				}
			],
			"stateMutability": "view",
			"type": "function"
		},
		{
			"inputs": [
				{
					"internalType": "bytes32",
					"name": "role",
					"type": "bytes32"
				},
				{
					"internalType": "address",
					"name": "callerConfirmation",
					"type": "address"
				}
			],
			"name": "renounceRole",
			"outputs": [],
			"stateMutability": "nonpayable",
			"type": "function"
		},
		{
			"inputs": [
				{
					"internalType": "bytes32",
					"name": "role",
					"type": "bytes32"
				},
				{
					"internalType": "address",
					"name": "account",
					"type": "address"
				}
			],
			"name": "revokeRole",
			"outputs": [],
			"stateMutability": "nonpayable",
			"type": "function"
		},
		{
			"inputs": [
				{
					"internalType": "address",
					"name": "_daoAddress",
					"type": "address"
				}
			],
			"name": "setDAOAddress",
			"outputs": [],
			"stateMutability": "nonpayable",
			"type": "function"
		},
		{
			"inputs": [
				{
					"internalType": "address",
					"name": "_erc1155Address",
					"type": "address"
				}
			],
			"name": "setERC1155Address",
			"outputs": [],
			"stateMutability": "nonpayable",
			"type": "function"
		},
		{
			"inputs": [
				{
					"internalType": "address",
					"name": "_erc20Address",
					"type": "address"
				}
			],
			"name": "setERC20Address",
			"outputs": [],
			"stateMutability": "nonpayable",
			"type": "function"
		},
		{
			"inputs": [
				{
					"internalType": "address",
					"name": "_erc721Address",
					"type": "address"
				}
			],
			"name": "setERC721Address",
			"outputs": [],
			"stateMutability": "nonpayable",
			"type": "function"
		},
		{
			"inputs": [
				{
					"internalType": "address",
					"name": "_farmingAddress",
					"type": "address"
				}
			],
			"name": "setFarmingAddress",
			"outputs": [],
			"stateMutability": "nonpayable",
			"type": "function"
		},
		{
			"inputs": [
				{
					"internalType": "address",
					"name": "_stakingAddress",
					"type": "address"
				}
			],
			"name": "setStakingAddress",
			"outputs": [],
			"stateMutability": "nonpayable",
			"type": "function"
		},
		{
			"inputs": [],
			"name": "stakingContract",
			"outputs": [
				{
					"internalType": "contract IStaking",
					"name": "",
					"type": "address"
				}
			],
			"stateMutability": "view",
			"type": "function"
		},
		{
			"inputs": [
				{
					"internalType": "string",
					"name": "title",
					"type": "string"
				},
				{
					"internalType": "string",
					"name": "description",
					"type": "string"
				},
				{
					"internalType": "uint256",
					"name": "rewardXP",
					"type": "uint256"
				}
			],
			"name": "startQuest",
			"outputs": [],
			"stateMutability": "nonpayable",
			"type": "function"
		},
		{
			"inputs": [
				{
					"internalType": "bytes4",
					"name": "interfaceId",
					"type": "bytes4"
				}
			],
			"name": "supportsInterface",
			"outputs": [
				{
					"internalType": "bool",
					"name": "",
					"type": "bool"
				}
			],
			"stateMutability": "view",
			"type": "function"
		},
		{
			"inputs": [],
			"name": "unpause",
			"outputs": [],
			"stateMutability": "nonpayable",
			"type": "function"
		},
		{
			"inputs": [
				{
					"internalType": "address",
					"name": "newImplementation",
					"type": "address"
				},
				{
					"internalType": "bytes",
					"name": "data",
					"type": "bytes"
				}
			],
			"name": "upgradeToAndCall",
			"outputs": [],
			"stateMutability": "payable",
			"type": "function"
		}
	]
}