{
	"data": {
		"bytecode": {
			"linkReferences": {},
			"object": "60a060405230608052348015610013575f80fd5b5061001c610021565b6100d3565b7ff0c57e16840df040f15088dc2f81fe391c3923bec73e23a9662efc9c229c6a00805468010000000000000000900460ff16156100715760405163f92ee8a960e01b815260040160405180910390fd5b80546001600160401b03908116146100d05780546001600160401b0319166001600160401b0390811782556040519081527fc7f505b2f371ae2175ee4913f4499e1f2633a7b5936321eed1cdaeb6115181d29060200160405180910390a15b50565b6080516131cf6100f95f395f81816123650152818161238e01526124c501526131cf5ff3fe6080604052600436106101f1575f3560e01c80637e24feb411610108578063b0a58a9c1161009d578063d547741f1161006d578063d547741f146105de578063d56d229d146105fd578063e63ab1e914610633578063f72c0d8b14610653578063fc74904614610673575f80fd5b8063b0a58a9c1461052b578063b1435d031461054a578063b532e4cb14610582578063c1cdf723146105a1575f80fd5b806391d14854116100d857806391d148541461049d578063a217fddf146104bc578063a437cfdc146104cf578063ad3cb1cc146104ee575f80fd5b80637e24feb41461041f5780638456cb591461044b578063869d785f1461045f5780638c26bb091461047e575f80fd5b80633ac019961161018957806352d1902d1161015957806352d1902d1461036b5780635c975abb1461037f57806363474e6a146103a257806376b0c170146103cd578063797669c9146103ec575f80fd5b80633ac01996146103065780633f4ba83a146103255780634b35f96e146103395780634f1ef28614610358575f80fd5b8063248a9ca3116101c4578063248a9ca31461027c5780632f2ff15d146102a9578063305a67a8146102c857806336568abe146102e7575f80fd5b806301ffc9a7146101f55780631459457a1461022957806315499a2c1461024a5780631d85bf0314610269575b5f80fd5b348015610200575f80fd5b5061021461020f366004612845565b610692565b60405190151581526020015b60405180910390f35b348015610234575f80fd5b50610248610243366004612880565b6106a2565b005b348015610255575f80fd5b506102486102643660046128ed565b61082d565b610248610277366004612908565b610883565b348015610287575f80fd5b5061029b610296366004612928565b610b7a565b604051908152602001610220565b3480156102b4575f80fd5b506102486102c336600461293f565b610b9a565b3480156102d3575f80fd5b506102486102e2366004612928565b610bbc565b3480156102f2575f80fd5b5061024861030136600461293f565b610cca565b348015610311575f80fd5b50610248610320366004612a16565b610d02565b348015610330575f80fd5b50610248610ff3565b348015610344575f80fd5b50610248610353366004612aa5565b611015565b610248610366366004612b22565b611305565b348015610376575f80fd5b5061029b611324565b34801561038a575f80fd5b505f8051602061317a8339815191525460ff16610214565b3480156103ad575f80fd5b5061029b6103bc3660046128ed565b60056020525f908152604090205481565b3480156103d8575f80fd5b506102486103e73660046128ed565b61133f565b3480156103f7575f80fd5b5061029b7f71f3d55856e4058ed06ee057d79ada615f65cdf5f9ee88181b914225088f834f81565b34801561042a575f80fd5b5061043e610439366004612928565b611356565b6040516102209190612bb0565b348015610456575f80fd5b506102486115af565b34801561046a575f80fd5b506102486104793660046128ed565b6115ce565b348015610489575f80fd5b5061043e610498366004612c98565b611695565b3480156104a8575f80fd5b506102146104b736600461293f565b611975565b3480156104c7575f80fd5b5061029b5f81565b3480156104da575f80fd5b506102486104e9366004612cd2565b6119ab565b3480156104f9575f80fd5b5061051e604051806040016040528060058152602001640352e302e360dc1b81525081565b6040516102209190612d2c565b348015610536575f80fd5b50610248610545366004612d3e565b611cf6565b348015610555575f80fd5b506102146105643660046128ed565b6001600160a01b03165f90815260056020526040902054600a111590565b34801561058d575f80fd5b5061024861059c3660046128ed565b611e2d565b3480156105ac575f80fd5b506105b5611ef8565b604080519485526020850193909352918301526001600160a01b03166060820152608001610220565b3480156105e9575f80fd5b506102486105f836600461293f565b611fcc565b348015610608575f80fd5b505f5461061b906001600160a01b031681565b6040516001600160a01b039091168152602001610220565b34801561063e575f80fd5b5061029b5f8051602061313a83398151915281565b34801561065e575f80fd5b5061029b5f805160206130fa83398151915281565b34801561067e575f80fd5b5060015461061b906001600160a01b031681565b5f61069c82611fe8565b92915050565b7ff0c57e16840df040f15088dc2f81fe391c3923bec73e23a9662efc9c229c6a008054600160401b810460ff16159067ffffffffffffffff165f811580156106e75750825b90505f8267ffffffffffffffff1660011480156107035750303b155b905081158015610711575080155b1561072f5760405163f92ee8a960e01b815260040160405180910390fd5b845467ffffffffffffffff19166001178555831561075957845460ff60401b1916600160401b1785555b61076161201c565b61076961202e565b61077161202e565b61077b5f8b612036565b506107935f8051602061313a8339815191528a612036565b506107ab5f805160206130fa83398151915289612036565b505f80546001600160a01b03808a166001600160a01b0319928316179092556001805492891692909116919091179055831561082157845460ff60401b19168555604051600181527fc7f505b2f371ae2175ee4913f4499e1f2633a7b5936321eed1cdaeb6115181d29060200160405180910390a15b50505050505050505050565b7f71f3d55856e4058ed06ee057d79ada615f65cdf5f9ee88181b914225088f834f610857816120d7565b6001600160a01b0382165f90815260056020526040812080549161087a83612d8c565b91905055505050565b61088b6120e1565b5f8281526003602052604090206006015460ff166108e85760405162461bcd60e51b81526020600482015260156024820152744c697374696e67206973206e6f742061637469766560581b60448201526064015b60405180910390fd5b5f828152600360205260409020600201548111156109485760405162461bcd60e51b815260206004820152601d60248201527f4e6f7420656e6f756768207175616e7469747920617661696c61626c6500000060448201526064016108df565b5f82815260036020526040902060050154421061099d5760405162461bcd60e51b8152602060048201526013602482015272131a5cdd1a5b99c81a185cc8195e1c1a5c9959606a1b60448201526064016108df565b5f828152600360208190526040822001546109b9908390612da4565b905080341015610a005760405162461bcd60e51b8152602060048201526012602482015271496e73756666696369656e742066756e647360701b60448201526064016108df565b5f8381526003602052604081206002018054849290610a20908490612dbb565b90915550505f83815260036020526040902060010154610a41908333612111565b80341115610a7e57336108fc610a578334612dbb565b6040518115909202915f818181858888f19350505050158015610a7c573d5f803e3d5ffd5b505b5f838152600360208181526040928390206001810154928101546004909101548451878152928301919091526001600160a01b03168184015291519091339186917f156729fbf2f6be7c3c29eedfb2193a7cf5be15ef9ad075a2ea515257f542386e919081900360600190a45f838152600360205260408120600201549003610b41575f83815260036020526040808220600601805460ff191690555184917f4df8589699376359278c405066850ad888c3113f536eda09576016b27799441691a25b5f838152600360209081526040808320546001600160a01b0316835260069091528120805491610b7083612d8c565b9190505550505050565b5f9081525f8051602061315a833981519152602052604090206001015490565b610ba382610b7a565b610bac816120d7565b610bb68383612036565b50505050565b5f818152600360205260409020546001600160a01b03163314610c305760405162461bcd60e51b815260206004820152602660248201527f596f7520617265206e6f74207468652073656c6c6572206f662074686973206c604482015265697374696e6760d01b60648201526084016108df565b5f8181526003602052604090206006015460ff16610c885760405162461bcd60e51b81526020600482015260156024820152744c697374696e67206973206e6f742061637469766560581b60448201526064016108df565b5f81815260036020526040808220600601805460ff191690555182917f411aee90354c51b1b04cd563fcab2617142a9d50da19232d888547c8a1b7fd8a91a250565b6001600160a01b0381163314610cf35760405163334bd91960e11b815260040160405180910390fd5b610cfd8282612282565b505050565b610d0a6120e1565b5f8711610d295760405162461bcd60e51b81526004016108df90612dce565b5f8611610d785760405162461bcd60e51b815260206004820152601f60248201527f5072696365206d7573742062652067726561746572207468616e207a65726f0060448201526064016108df565b428411610d975760405162461bcd60e51b81526004016108df90612e10565b5f546040516331a9108f60e11b8152600481018a905233916001600160a01b031690636352211e90602401602060405180830381865afa158015610ddd573d5f803e3d5ffd5b505050506040513d601f19601f82011682018060405250810190610e019190612e47565b6001600160a01b03161480610e835750600154604051627eeac760e11b8152336004820152602481018a905288916001600160a01b03169062fdd58e90604401602060405180830381865afa158015610e5c573d5f803e3d5ffd5b505050506040513d601f19601f82011682018060405250810190610e809190612e62565b10155b610e9f5760405162461bcd60e51b81526004016108df90612e79565b610ead600280546001019055565b5f610eb760025490565b604080516101208101825233815260208082018d81528284018d8152606084018d81526001600160a01b038d81166080870190815260a087018e8152600160c0890181815260e08a018f81526101008b018f90525f8d815260039a8b90529b909b208a5181546001600160a01b0319908116918816919091178255985192810192909255955160028201559351968401969096555160048301805490951691161790925591516005820155905160068201805460ff19169115159190911790559151929350916007820190610f8c9082612f33565b50610100820151816008015590505088336001600160a01b0316827f8819d1124acc09ce5b5cf394c0b293efd960f2b029092396e244beea5acaa8498b8b8b8b8a8a604051610fe096959493929190612fee565b60405180910390a4505050505050505050565b5f8051602061313a83398151915261100a816120d7565b6110126122fb565b50565b61101d6120e1565b5f861161103c5760405162461bcd60e51b81526004016108df90612dce565b5f851161108b5760405162461bcd60e51b815260206004820152601f60248201527f5072696365206d7573742062652067726561746572207468616e207a65726f0060448201526064016108df565b4283116110aa5760405162461bcd60e51b81526004016108df90612e10565b5f546040516331a9108f60e11b81526004810189905233916001600160a01b031690636352211e90602401602060405180830381865afa1580156110f0573d5f803e3d5ffd5b505050506040513d601f19601f820116820180604052508101906111149190612e47565b6001600160a01b031614806111965750600154604051627eeac760e11b81523360048201526024810189905287916001600160a01b03169062fdd58e90604401602060405180830381865afa15801561116f573d5f803e3d5ffd5b505050506040513d601f19601f820116820180604052508101906111939190612e62565b10155b6111b25760405162461bcd60e51b81526004016108df90612e79565b6111c0600280546001019055565b5f6111ca60025490565b604080516101208101825233815260208082018c81528284018c8152606084018c81526001600160a01b038c81166080870190815260a087018d8152600160c0890181815260e08a018f81526101008b018f90525f8d815260039a8b90529b909b208a5181546001600160a01b0319908116918816919091178255985192810192909255955160028201559351968401969096555160048301805490951691161790925591516005820155905160068201805460ff1916911515919091179055915192935091600782019061129f9082612f33565b50610100820151816008015590505087336001600160a01b0316827f8819d1124acc09ce5b5cf394c0b293efd960f2b029092396e244beea5acaa8498a8a8a8a8a8a6040516112f396959493929190612fee565b60405180910390a45050505050505050565b61130d61235a565b6113168261133f565b61132082826123fe565b5050565b5f61132d6124ba565b505f8051602061311a83398151915290565b5f805160206130fa833981519152611320816120d7565b60605f61136260025490565b90505f60015b8281116113c3575f818152600360205260409020600801548514801561139e57505f8181526003602052604090206006015460ff165b156113b157816113ad81612d8c565b9250505b806113bb81612d8c565b915050611368565b505f8167ffffffffffffffff8111156113de576113de61296d565b60405190808252806020026020018201604052801561141757816020015b6114046127ed565b8152602001906001900390816113fc5790505b5090505f60015b8481116115a4575f818152600360205260409020600801548714801561145457505f8181526003602052604090206006015460ff165b15611592575f8181526003602081815260409283902083516101208101855281546001600160a01b0390811682526001830154938201939093526002820154948101949094529182015460608401526004820154166080830152600581015460a0830152600681015460ff16151560c083015260078101805460e0840191906114dc90612eb0565b80601f016020809104026020016040519081016040528092919081815260200182805461150890612eb0565b80156115535780601f1061152a57610100808354040283529160200191611553565b820191905f5260205f20905b81548152906001019060200180831161153657829003601f168201915b5050505050815260200160088201548152505083838151811061157857611578613033565b6020026020010181905250818061158e90612d8c565b9250505b8061159c81612d8c565b91505061141e565b509095945050505050565b5f8051602061313a8339815191526115c6816120d7565b611012612503565b5f805160206130fa8339815191526115e5816120d7565b6001600160a01b0382165f9081526004602052604090205460ff1661164c5760405162461bcd60e51b815260206004820152601860248201527f4d6f64657261746f7220646f6573206e6f74206578697374000000000000000060448201526064016108df565b6001600160a01b0382165f81815260046020526040808220805460ff19169055517f7a9f1e23d5426b34819d173153d59084cc3578d5a129b80bb27df683ac6b22789190a25050565b60605f6116a160025490565b90505f60015b82811161174b57846040516020016116bf919061305e565b60408051601f1981840301815282825280516020918201205f858152600383529290922091926116f3926007019101613069565b6040516020818303038152906040528051906020012014801561172657505f8181526003602052604090206006015460ff165b15611739578161173581612d8c565b9250505b8061174381612d8c565b9150506116a7565b505f8167ffffffffffffffff8111156117665761176661296d565b60405190808252806020026020018201604052801561179f57816020015b61178c6127ed565b8152602001906001900390816117845790505b5090505f60015b8481116115a457866040516020016117be919061305e565b60408051601f1981840301815282825280516020918201205f858152600383529290922091926117f2926007019101613069565b6040516020818303038152906040528051906020012014801561182557505f8181526003602052604090206006015460ff165b15611963575f8181526003602081815260409283902083516101208101855281546001600160a01b0390811682526001830154938201939093526002820154948101949094529182015460608401526004820154166080830152600581015460a0830152600681015460ff16151560c083015260078101805460e0840191906118ad90612eb0565b80601f01602080910402602001604051908101604052809291908181526020018280546118d990612eb0565b80156119245780601f106118fb57610100808354040283529160200191611924565b820191905f5260205f20905b81548152906001019060200180831161190757829003601f168201915b5050505050815260200160088201548152505083838151811061194957611949613033565b6020026020010181905250818061195f90612d8c565b9250505b8061196d81612d8c565b9150506117a6565b5f9182525f8051602061315a833981519152602090815260408084206001600160a01b0393909316845291905290205460ff1690565b6119b36120e1565b5f85116119d25760405162461bcd60e51b81526004016108df90612dce565b5f8411611a305760405162461bcd60e51b815260206004820152602660248201527f5374617274696e6720626964206d7573742062652067726561746572207468616044820152656e207a65726f60d01b60648201526084016108df565b428211611a4f5760405162461bcd60e51b81526004016108df90612e10565b5f546040516331a9108f60e11b81526004810188905233916001600160a01b031690636352211e90602401602060405180830381865afa158015611a95573d5f803e3d5ffd5b505050506040513d601f19601f82011682018060405250810190611ab99190612e47565b6001600160a01b03161480611b3b5750600154604051627eeac760e11b81523360048201526024810188905286916001600160a01b03169062fdd58e90604401602060405180830381865afa158015611b14573d5f803e3d5ffd5b505050506040513d601f19601f82011682018060405250810190611b389190612e62565b10155b611b575760405162461bcd60e51b81526004016108df90612e79565b611b65600280546001019055565b5f611b6f60025490565b604080516101208101825233815260208082018b81528284018b8152606084018b81526001600160a01b038b81166080870190815260a087018c8152600160c089018181528a51808c018c5260078082526630bab1ba34b7b760c91b828c015260e08c019182525f6101008d018190528e815260039b8c90529c909c208b5181549088166001600160a01b031991821617825599519381019390935596516002830155945197810197909755905160048701805491909316951694909417905591516005840155905160068301805491151560ff19929092169190911790555193945090929091820190611c639082612f33565b506101009182015160089091015560408051888152602081018890526001600160a01b038716918101919091526060810185905260c0608082018190526007908201526630bab1ba34b7b760c91b60e08201525f60a08201528891339184917f8819d1124acc09ce5b5cf394c0b293efd960f2b029092396e244beea5acaa849910160405180910390a450505050505050565b5f546040516331a9108f60e11b81526004810184905233916001600160a01b031690636352211e90602401602060405180830381865afa158015611d3c573d5f803e3d5ffd5b505050506040513d601f19601f82011682018060405250810190611d609190612e47565b6001600160a01b03161480611de15750600154604051627eeac760e11b8152336004820152602481018490525f916001600160a01b03169062fdd58e90604401602060405180830381865afa158015611dbb573d5f803e3d5ffd5b505050506040513d601f19601f82011682018060405250810190611ddf9190612e62565b115b6113205760405162461bcd60e51b815260206004820152601760248201527f596f7520646f206e6f74206f776e20746865206974656d00000000000000000060448201526064016108df565b5f805160206130fa833981519152611e44816120d7565b6001600160a01b0382165f9081526004602052604090205460ff1615611eac5760405162461bcd60e51b815260206004820152601860248201527f4d6f64657261746f7220616c726561647920657869737473000000000000000060448201526064016108df565b6001600160a01b0382165f81815260046020526040808220805460ff19166001179055517fd378ad41c1a753fd1ba9ec0fcd7970526c175b68545b4a02d6d15e7606fe35969190a25050565b5f805f80611f0560025490565b93505f80808060015b888111611fbd575f8181526003602052604090206006015460ff1615611f405784611f3881612d8c565b955050611fab565b83611f4a81612d8c565b5f838152600360209081526040808320546001600160a01b0316835260069091529020549095508310159050611fab575f818152600360208181526040808420546001600160a01b0316808552600683529084205493859052919052935091505b80611fb581612d8c565b915050611f0e565b50969792965090945092509050565b611fd582610b7a565b611fde816120d7565b610bb68383612282565b5f6001600160e01b03198216637965db0b60e01b148061069c57506301ffc9a760e01b6001600160e01b031983161461069c565b61202461254b565b61202c612594565b565b61202c61254b565b5f5f8051602061315a83398151915261204f8484611975565b6120ce575f848152602082815260408083206001600160a01b03871684529091529020805460ff191660011790556120843390565b6001600160a01b0316836001600160a01b0316857f2f8788117e7eff1d82e926ec794901d17c78024a50270940304540a733656f0d60405160405180910390a4600191505061069c565b5f91505061069c565b61101281336125b4565b5f8051602061317a8339815191525460ff161561202c5760405163d93c066560e01b815260040160405180910390fd5b5f546040516301ffc9a760e01b8152636cdb3d1360e11b60048201526001600160a01b03909116906301ffc9a790602401602060405180830381865afa15801561215d573d5f803e3d5ffd5b505050506040513d601f19601f8201168201806040525081019061218191906130da565b1561220657600154604051637921219560e11b81523360048201526001600160a01b038381166024830152604482018690526064820185905260a060848301525f60a48301529091169063f242432a9060c4015f604051808303815f87803b1580156121eb575f80fd5b505af11580156121fd573d5f803e3d5ffd5b50505050505050565b5f5b82811015610bb6575f54604051632142170760e11b81523360048201526001600160a01b03848116602483015260448201879052909116906342842e0e906064015f604051808303815f87803b158015612260575f80fd5b505af1158015612272573d5f803e3d5ffd5b5050600190920191506122089050565b5f5f8051602061315a83398151915261229b8484611975565b156120ce575f848152602082815260408083206001600160a01b0387168085529252808320805460ff1916905551339287917ff6391f5c32d9c69d2a47ea670b442974b53935d1edc7fd64eb21e047a839171b9190a4600191505061069c565b6123036125ed565b5f8051602061317a833981519152805460ff191681557f5db9ee0a495bf2e6ff9c91a7834c1ba4fdd244a5e8aa4e537bd38aeae4b073aa335b6040516001600160a01b03909116815260200160405180910390a150565b306001600160a01b037f00000000000000000000000000000000000000000000000000000000000000001614806123e057507f00000000000000000000000000000000000000000000000000000000000000006001600160a01b03166123d45f8051602061311a833981519152546001600160a01b031690565b6001600160a01b031614155b1561202c5760405163703e46dd60e11b815260040160405180910390fd5b816001600160a01b03166352d1902d6040518163ffffffff1660e01b8152600401602060405180830381865afa925050508015612458575060408051601f3d908101601f1916820190925261245591810190612e62565b60015b61248057604051634c9c8ce360e01b81526001600160a01b03831660048201526024016108df565b5f8051602061311a83398151915281146124b057604051632a87526960e21b8152600481018290526024016108df565b610cfd838361261c565b306001600160a01b037f0000000000000000000000000000000000000000000000000000000000000000161461202c5760405163703e46dd60e11b815260040160405180910390fd5b61250b6120e1565b5f8051602061317a833981519152805460ff191660011781557f62e78cea01bee320cd4e420270b5ea74000d11b0c9f74754ebdbfc544b05a2583361233c565b7ff0c57e16840df040f15088dc2f81fe391c3923bec73e23a9662efc9c229c6a0054600160401b900460ff1661202c57604051631afcd79f60e31b815260040160405180910390fd5b61259c61254b565b5f8051602061317a833981519152805460ff19169055565b6125be8282611975565b6113205760405163e2517d3f60e01b81526001600160a01b0382166004820152602481018390526044016108df565b5f8051602061317a8339815191525460ff1661202c57604051638dfc202b60e01b815260040160405180910390fd5b61262582612671565b6040516001600160a01b038316907fbc7cd75a20ee27fd9adebab32041f755214dbc6bffa90cc0225b39da2e5c2d3b905f90a280511561266957610cfd82826126d4565b611320612746565b806001600160a01b03163b5f036126a657604051634c9c8ce360e01b81526001600160a01b03821660048201526024016108df565b5f8051602061311a83398151915280546001600160a01b0319166001600160a01b0392909216919091179055565b60605f80846001600160a01b0316846040516126f0919061305e565b5f60405180830381855af49150503d805f8114612728576040519150601f19603f3d011682016040523d82523d5f602084013e61272d565b606091505b509150915061273d858383612765565b95945050505050565b341561202c5760405163b398979f60e01b815260040160405180910390fd5b60608261277a57612775826127c4565b6127bd565b815115801561279157506001600160a01b0384163b155b156127ba57604051639996b31560e01b81526001600160a01b03851660048201526024016108df565b50805b9392505050565b8051156127d45780518082602001fd5b604051630a12f52160e11b815260040160405180910390fd5b6040518061012001604052805f6001600160a01b031681526020015f81526020015f81526020015f81526020015f6001600160a01b031681526020015f81526020015f15158152602001606081526020015f81525090565b5f60208284031215612855575f80fd5b81356001600160e01b0319811681146127bd575f80fd5b6001600160a01b0381168114611012575f80fd5b5f805f805f60a08688031215612894575f80fd5b853561289f8161286c565b945060208601356128af8161286c565b935060408601356128bf8161286c565b925060608601356128cf8161286c565b915060808601356128df8161286c565b809150509295509295909350565b5f602082840312156128fd575f80fd5b81356127bd8161286c565b5f8060408385031215612919575f80fd5b50508035926020909101359150565b5f60208284031215612938575f80fd5b5035919050565b5f8060408385031215612950575f80fd5b8235915060208301356129628161286c565b809150509250929050565b634e487b7160e01b5f52604160045260245ffd5b5f8067ffffffffffffffff84111561299b5761299b61296d565b50604051601f19601f85018116603f0116810181811067ffffffffffffffff821117156129ca576129ca61296d565b6040528381529050808284018510156129e1575f80fd5b838360208301375f60208583010152509392505050565b5f82601f830112612a07575f80fd5b6127bd83833560208501612981565b5f805f805f805f80610100898b031215612a2e575f80fd5b8835975060208901359650604089013595506060890135612a4e8161286c565b94506080890135935060a0890135612a658161286c565b925060c089013567ffffffffffffffff811115612a80575f80fd5b612a8c8b828c016129f8565b989b979a50959894979396929550929360e00135925050565b5f805f805f805f60e0888a031215612abb575f80fd5b8735965060208801359550604088013594506060880135612adb8161286c565b93506080880135925060a088013567ffffffffffffffff811115612afd575f80fd5b612b098a828b016129f8565b979a969950949793969295929450505060c09091013590565b5f8060408385031215612b33575f80fd5b8235612b3e8161286c565b9150602083013567ffffffffffffffff811115612b59575f80fd5b8301601f81018513612b69575f80fd5b612b7885823560208401612981565b9150509250929050565b5f81518084528060208401602086015e5f602082860101526020601f19601f83011685010191505092915050565b5f602082016020835280845180835260408501915060408160051b8601019250602086015f5b82811015612c8c57868503603f19018452815180516001600160a01b031686526020810151602087015260408101516040870152606081015160608701526080810151612c2e60808801826001600160a01b03169052565b5060a081015160a087015260c0810151612c4c60c088018215159052565b5060e081015161012060e0880152612c68610120880182612b82565b61010092830151979092019690965294506020938401939190910190600101612bd6565b50929695505050505050565b5f60208284031215612ca8575f80fd5b813567ffffffffffffffff811115612cbe575f80fd5b612cca848285016129f8565b949350505050565b5f805f805f8060c08789031215612ce7575f80fd5b8635955060208701359450604087013593506060870135612d078161286c565b92506080870135915060a0870135612d1e8161286c565b809150509295509295509295565b602081525f6127bd6020830184612b82565b5f8060408385031215612d4f575f80fd5b82359150602083013567ffffffffffffffff811115612d6c575f80fd5b612b78858286016129f8565b634e487b7160e01b5f52601160045260245ffd5b5f60018201612d9d57612d9d612d78565b5060010190565b808202811582820484141761069c5761069c612d78565b8181038181111561069c5761069c612d78565b60208082526022908201527f5175616e74697479206d7573742062652067726561746572207468616e207a65604082015261726f60f01b606082015260800190565b6020808252601e908201527f456e642074696d65206d75737420626520696e20746865206675747572650000604082015260600190565b5f60208284031215612e57575f80fd5b81516127bd8161286c565b5f60208284031215612e72575f80fd5b5051919050565b60208082526017908201527f596f7520646f206e6f74206f776e20746865204e465473000000000000000000604082015260600190565b600181811c90821680612ec457607f821691505b602082108103612ee257634e487b7160e01b5f52602260045260245ffd5b50919050565b601f821115610cfd57805f5260205f20601f840160051c81016020851015612f0d5750805b601f840160051c820191505b81811015612f2c575f8155600101612f19565b5050505050565b815167ffffffffffffffff811115612f4d57612f4d61296d565b612f6181612f5b8454612eb0565b84612ee8565b6020601f821160018114612f93575f8315612f7c5750848201515b5f19600385901b1c1916600184901b178455612f2c565b5f84815260208120601f198516915b82811015612fc25787850151825560209485019460019092019101612fa2565b5084821015612fdf57868401515f19600387901b60f8161c191681555b50505050600190811b01905550565b86815285602082015260018060a01b038516604082015283606082015260c060808201525f61302060c0830185612b82565b90508260a0830152979650505050505050565b634e487b7160e01b5f52603260045260245ffd5b5f81518060208401855e5f93019283525090919050565b5f6127bd8284613047565b5f80835461307681612eb0565b60018216801561308d57600181146130a2576130cf565b60ff19831686528115158202860193506130cf565b865f5260205f205f5b838110156130c7578154888201526001909101906020016130ab565b505081860193505b509195945050505050565b5f602082840312156130ea575f80fd5b815180151581146127bd575f80fdfe189ab7a9244df0848122154315af71fe140f3db0fe014031783b0946b8c9d2e3360894a13ba1a3210667c828492db98dca3e2076cc3735a920a3ca505d382bbc65d7a28e3265b37a6474929f336521b332c1681b933f6cb9f3376673440d862a02dd7bc7dec4dceedda775e58dd541e08a116c6c53815c0bd028192f7b626800cd5ed15c6e187e77e9aee88184c21f4f2182ab5827cb3b7e07fbedcd63f03300a2646970667358221220a720c82d34e0b39439bb75229332f2db4bf39765042cf2eb831d084a9ab35f5c64736f6c634300081a0033",
			"opcodes": "PUSH1 0xA0 PUSH1 0x40 MSTORE ADDRESS PUSH1 0x80 MSTORE CALLVALUE DUP1 ISZERO PUSH2 0x13 JUMPI PUSH0 DUP1 REVERT JUMPDEST POP PUSH2 0x1C PUSH2 0x21 JUMP JUMPDEST PUSH2 0xD3 JUMP JUMPDEST PUSH32 0xF0C57E16840DF040F15088DC2F81FE391C3923BEC73E23A9662EFC9C229C6A00 DUP1 SLOAD PUSH9 0x10000000000000000 SWAP1 DIV PUSH1 0xFF AND ISZERO PUSH2 0x71 JUMPI PUSH1 0x40 MLOAD PUSH4 0xF92EE8A9 PUSH1 0xE0 SHL DUP2 MSTORE PUSH1 0x4 ADD PUSH1 0x40 MLOAD DUP1 SWAP2 SUB SWAP1 REVERT JUMPDEST DUP1 SLOAD PUSH1 0x1 PUSH1 0x1 PUSH1 0x40 SHL SUB SWAP1 DUP2 AND EQ PUSH2 0xD0 JUMPI DUP1 SLOAD PUSH1 0x1 PUSH1 0x1 PUSH1 0x40 SHL SUB NOT AND PUSH1 0x1 PUSH1 0x1 PUSH1 0x40 SHL SUB SWAP1 DUP2 OR DUP3 SSTORE PUSH1 0x40 MLOAD SWAP1 DUP2 MSTORE PUSH32 0xC7F505B2F371AE2175EE4913F4499E1F2633A7B5936321EED1CDAEB6115181D2 SWAP1 PUSH1 0x20 ADD PUSH1 0x40 MLOAD DUP1 SWAP2 SUB SWAP1 LOG1 JUMPDEST POP JUMP JUMPDEST PUSH1 0x80 MLOAD PUSH2 0x31CF PUSH2 0xF9 PUSH0 CODECOPY PUSH0 DUP2 DUP2 PUSH2 0x2365 ADD MSTORE DUP2 DUP2 PUSH2 0x238E ADD MSTORE PUSH2 0x24C5 ADD MSTORE PUSH2 0x31CF PUSH0 RETURN INVALID PUSH1 0x80 PUSH1 0x40 MSTORE PUSH1 0x4 CALLDATASIZE LT PUSH2 0x1F1 JUMPI PUSH0 CALLDATALOAD PUSH1 0xE0 SHR DUP1 PUSH4 0x7E24FEB4 GT PUSH2 0x108 JUMPI DUP1 PUSH4 0xB0A58A9C GT PUSH2 0x9D JUMPI DUP1 PUSH4 0xD547741F GT PUSH2 0x6D JUMPI DUP1 PUSH4 0xD547741F EQ PUSH2 0x5DE JUMPI DUP1 PUSH4 0xD56D229D EQ PUSH2 0x5FD JUMPI DUP1 PUSH4 0xE63AB1E9 EQ PUSH2 0x633 JUMPI DUP1 PUSH4 0xF72C0D8B EQ PUSH2 0x653 JUMPI DUP1 PUSH4 0xFC749046 EQ PUSH2 0x673 JUMPI PUSH0 DUP1 REVERT JUMPDEST DUP1 PUSH4 0xB0A58A9C EQ PUSH2 0x52B JUMPI DUP1 PUSH4 0xB1435D03 EQ PUSH2 0x54A JUMPI DUP1 PUSH4 0xB532E4CB EQ PUSH2 0x582 JUMPI DUP1 PUSH4 0xC1CDF723 EQ PUSH2 0x5A1 JUMPI PUSH0 DUP1 REVERT JUMPDEST DUP1 PUSH4 0x91D14854 GT PUSH2 0xD8 JUMPI DUP1 PUSH4 0x91D14854 EQ PUSH2 0x49D JUMPI DUP1 PUSH4 0xA217FDDF EQ PUSH2 0x4BC JUMPI DUP1 PUSH4 0xA437CFDC EQ PUSH2 0x4CF JUMPI DUP1 PUSH4 0xAD3CB1CC EQ PUSH2 0x4EE JUMPI PUSH0 DUP1 REVERT JUMPDEST DUP1 PUSH4 0x7E24FEB4 EQ PUSH2 0x41F JUMPI DUP1 PUSH4 0x8456CB59 EQ PUSH2 0x44B JUMPI DUP1 PUSH4 0x869D785F EQ PUSH2 0x45F JUMPI DUP1 PUSH4 0x8C26BB09 EQ PUSH2 0x47E JUMPI PUSH0 DUP1 REVERT JUMPDEST DUP1 PUSH4 0x3AC01996 GT PUSH2 0x189 JUMPI DUP1 PUSH4 0x52D1902D GT PUSH2 0x159 JUMPI DUP1 PUSH4 0x52D1902D EQ PUSH2 0x36B JUMPI DUP1 PUSH4 0x5C975ABB EQ PUSH2 0x37F JUMPI DUP1 PUSH4 0x63474E6A EQ PUSH2 0x3A2 JUMPI DUP1 PUSH4 0x76B0C170 EQ PUSH2 0x3CD JUMPI DUP1 PUSH4 0x797669C9 EQ PUSH2 0x3EC JUMPI PUSH0 DUP1 REVERT JUMPDEST DUP1 PUSH4 0x3AC01996 EQ PUSH2 0x306 JUMPI DUP1 PUSH4 0x3F4BA83A EQ PUSH2 0x325 JUMPI DUP1 PUSH4 0x4B35F96E EQ PUSH2 0x339 JUMPI DUP1 PUSH4 0x4F1EF286 EQ PUSH2 0x358 JUMPI PUSH0 DUP1 REVERT JUMPDEST DUP1 PUSH4 0x248A9CA3 GT PUSH2 0x1C4 JUMPI DUP1 PUSH4 0x248A9CA3 EQ PUSH2 0x27C JUMPI DUP1 PUSH4 0x2F2FF15D EQ PUSH2 0x2A9 JUMPI DUP1 PUSH4 0x305A67A8 EQ PUSH2 0x2C8 JUMPI DUP1 PUSH4 0x36568ABE EQ PUSH2 0x2E7 JUMPI PUSH0 DUP1 REVERT JUMPDEST DUP1 PUSH4 0x1FFC9A7 EQ PUSH2 0x1F5 JUMPI DUP1 PUSH4 0x1459457A EQ PUSH2 0x229 JUMPI DUP1 PUSH4 0x15499A2C EQ PUSH2 0x24A JUMPI DUP1 PUSH4 0x1D85BF03 EQ PUSH2 0x269 JUMPI JUMPDEST PUSH0 DUP1 REVERT JUMPDEST CALLVALUE DUP1 ISZERO PUSH2 0x200 JUMPI PUSH0 DUP1 REVERT JUMPDEST POP PUSH2 0x214 PUSH2 0x20F CALLDATASIZE PUSH1 0x4 PUSH2 0x2845 JUMP JUMPDEST PUSH2 0x692 JUMP JUMPDEST PUSH1 0x40 MLOAD SWAP1 ISZERO ISZERO DUP2 MSTORE PUSH1 0x20 ADD JUMPDEST PUSH1 0x40 MLOAD DUP1 SWAP2 SUB SWAP1 RETURN JUMPDEST CALLVALUE DUP1 ISZERO PUSH2 0x234 JUMPI PUSH0 DUP1 REVERT JUMPDEST POP PUSH2 0x248 PUSH2 0x243 CALLDATASIZE PUSH1 0x4 PUSH2 0x2880 JUMP JUMPDEST PUSH2 0x6A2 JUMP JUMPDEST STOP JUMPDEST CALLVALUE DUP1 ISZERO PUSH2 0x255 JUMPI PUSH0 DUP1 REVERT JUMPDEST POP PUSH2 0x248 PUSH2 0x264 CALLDATASIZE PUSH1 0x4 PUSH2 0x28ED JUMP JUMPDEST PUSH2 0x82D JUMP JUMPDEST PUSH2 0x248 PUSH2 0x277 CALLDATASIZE PUSH1 0x4 PUSH2 0x2908 JUMP JUMPDEST PUSH2 0x883 JUMP JUMPDEST CALLVALUE DUP1 ISZERO PUSH2 0x287 JUMPI PUSH0 DUP1 REVERT JUMPDEST POP PUSH2 0x29B PUSH2 0x296 CALLDATASIZE PUSH1 0x4 PUSH2 0x2928 JUMP JUMPDEST PUSH2 0xB7A JUMP JUMPDEST PUSH1 0x40 MLOAD SWAP1 DUP2 MSTORE PUSH1 0x20 ADD PUSH2 0x220 JUMP JUMPDEST CALLVALUE DUP1 ISZERO PUSH2 0x2B4 JUMPI PUSH0 DUP1 REVERT JUMPDEST POP PUSH2 0x248 PUSH2 0x2C3 CALLDATASIZE PUSH1 0x4 PUSH2 0x293F JUMP JUMPDEST PUSH2 0xB9A JUMP JUMPDEST CALLVALUE DUP1 ISZERO PUSH2 0x2D3 JUMPI PUSH0 DUP1 REVERT JUMPDEST POP PUSH2 0x248 PUSH2 0x2E2 CALLDATASIZE PUSH1 0x4 PUSH2 0x2928 JUMP JUMPDEST PUSH2 0xBBC JUMP JUMPDEST CALLVALUE DUP1 ISZERO PUSH2 0x2F2 JUMPI PUSH0 DUP1 REVERT JUMPDEST POP PUSH2 0x248 PUSH2 0x301 CALLDATASIZE PUSH1 0x4 PUSH2 0x293F JUMP JUMPDEST PUSH2 0xCCA JUMP JUMPDEST CALLVALUE DUP1 ISZERO PUSH2 0x311 JUMPI PUSH0 DUP1 REVERT JUMPDEST POP PUSH2 0x248 PUSH2 0x320 CALLDATASIZE PUSH1 0x4 PUSH2 0x2A16 JUMP JUMPDEST PUSH2 0xD02 JUMP JUMPDEST CALLVALUE DUP1 ISZERO PUSH2 0x330 JUMPI PUSH0 DUP1 REVERT JUMPDEST POP PUSH2 0x248 PUSH2 0xFF3 JUMP JUMPDEST CALLVALUE DUP1 ISZERO PUSH2 0x344 JUMPI PUSH0 DUP1 REVERT JUMPDEST POP PUSH2 0x248 PUSH2 0x353 CALLDATASIZE PUSH1 0x4 PUSH2 0x2AA5 JUMP JUMPDEST PUSH2 0x1015 JUMP JUMPDEST PUSH2 0x248 PUSH2 0x366 CALLDATASIZE PUSH1 0x4 PUSH2 0x2B22 JUMP JUMPDEST PUSH2 0x1305 JUMP JUMPDEST CALLVALUE DUP1 ISZERO PUSH2 0x376 JUMPI PUSH0 DUP1 REVERT JUMPDEST POP PUSH2 0x29B PUSH2 0x1324 JUMP JUMPDEST CALLVALUE DUP1 ISZERO PUSH2 0x38A JUMPI PUSH0 DUP1 REVERT JUMPDEST POP PUSH0 DUP1 MLOAD PUSH1 0x20 PUSH2 0x317A DUP4 CODECOPY DUP2 MLOAD SWAP2 MSTORE SLOAD PUSH1 0xFF AND PUSH2 0x214 JUMP JUMPDEST CALLVALUE DUP1 ISZERO PUSH2 0x3AD JUMPI PUSH0 DUP1 REVERT JUMPDEST POP PUSH2 0x29B PUSH2 0x3BC CALLDATASIZE PUSH1 0x4 PUSH2 0x28ED JUMP JUMPDEST PUSH1 0x5 PUSH1 0x20 MSTORE PUSH0 SWAP1 DUP2 MSTORE PUSH1 0x40 SWAP1 KECCAK256 SLOAD DUP2 JUMP JUMPDEST CALLVALUE DUP1 ISZERO PUSH2 0x3D8 JUMPI PUSH0 DUP1 REVERT JUMPDEST POP PUSH2 0x248 PUSH2 0x3E7 CALLDATASIZE PUSH1 0x4 PUSH2 0x28ED JUMP JUMPDEST PUSH2 0x133F JUMP JUMPDEST CALLVALUE DUP1 ISZERO PUSH2 0x3F7 JUMPI PUSH0 DUP1 REVERT JUMPDEST POP PUSH2 0x29B PUSH32 0x71F3D55856E4058ED06EE057D79ADA615F65CDF5F9EE88181B914225088F834F DUP2 JUMP JUMPDEST CALLVALUE DUP1 ISZERO PUSH2 0x42A JUMPI PUSH0 DUP1 REVERT JUMPDEST POP PUSH2 0x43E PUSH2 0x439 CALLDATASIZE PUSH1 0x4 PUSH2 0x2928 JUMP JUMPDEST PUSH2 0x1356 JUMP JUMPDEST PUSH1 0x40 MLOAD PUSH2 0x220 SWAP2 SWAP1 PUSH2 0x2BB0 JUMP JUMPDEST CALLVALUE DUP1 ISZERO PUSH2 0x456 JUMPI PUSH0 DUP1 REVERT JUMPDEST POP PUSH2 0x248 PUSH2 0x15AF JUMP JUMPDEST CALLVALUE DUP1 ISZERO PUSH2 0x46A JUMPI PUSH0 DUP1 REVERT JUMPDEST POP PUSH2 0x248 PUSH2 0x479 CALLDATASIZE PUSH1 0x4 PUSH2 0x28ED JUMP JUMPDEST PUSH2 0x15CE JUMP JUMPDEST CALLVALUE DUP1 ISZERO PUSH2 0x489 JUMPI PUSH0 DUP1 REVERT JUMPDEST POP PUSH2 0x43E PUSH2 0x498 CALLDATASIZE PUSH1 0x4 PUSH2 0x2C98 JUMP JUMPDEST PUSH2 0x1695 JUMP JUMPDEST CALLVALUE DUP1 ISZERO PUSH2 0x4A8 JUMPI PUSH0 DUP1 REVERT JUMPDEST POP PUSH2 0x214 PUSH2 0x4B7 CALLDATASIZE PUSH1 0x4 PUSH2 0x293F JUMP JUMPDEST PUSH2 0x1975 JUMP JUMPDEST CALLVALUE DUP1 ISZERO PUSH2 0x4C7 JUMPI PUSH0 DUP1 REVERT JUMPDEST POP PUSH2 0x29B PUSH0 DUP2 JUMP JUMPDEST CALLVALUE DUP1 ISZERO PUSH2 0x4DA JUMPI PUSH0 DUP1 REVERT JUMPDEST POP PUSH2 0x248 PUSH2 0x4E9 CALLDATASIZE PUSH1 0x4 PUSH2 0x2CD2 JUMP JUMPDEST PUSH2 0x19AB JUMP JUMPDEST CALLVALUE DUP1 ISZERO PUSH2 0x4F9 JUMPI PUSH0 DUP1 REVERT JUMPDEST POP PUSH2 0x51E PUSH1 0x40 MLOAD DUP1 PUSH1 0x40 ADD PUSH1 0x40 MSTORE DUP1 PUSH1 0x5 DUP2 MSTORE PUSH1 0x20 ADD PUSH5 0x352E302E3 PUSH1 0xDC SHL DUP2 MSTORE POP DUP2 JUMP JUMPDEST PUSH1 0x40 MLOAD PUSH2 0x220 SWAP2 SWAP1 PUSH2 0x2D2C JUMP JUMPDEST CALLVALUE DUP1 ISZERO PUSH2 0x536 JUMPI PUSH0 DUP1 REVERT JUMPDEST POP PUSH2 0x248 PUSH2 0x545 CALLDATASIZE PUSH1 0x4 PUSH2 0x2D3E JUMP JUMPDEST PUSH2 0x1CF6 JUMP JUMPDEST CALLVALUE DUP1 ISZERO PUSH2 0x555 JUMPI PUSH0 DUP1 REVERT JUMPDEST POP PUSH2 0x214 PUSH2 0x564 CALLDATASIZE PUSH1 0x4 PUSH2 0x28ED JUMP JUMPDEST PUSH1 0x1 PUSH1 0x1 PUSH1 0xA0 SHL SUB AND PUSH0 SWAP1 DUP2 MSTORE PUSH1 0x5 PUSH1 0x20 MSTORE PUSH1 0x40 SWAP1 KECCAK256 SLOAD PUSH1 0xA GT ISZERO SWAP1 JUMP JUMPDEST CALLVALUE DUP1 ISZERO PUSH2 0x58D JUMPI PUSH0 DUP1 REVERT JUMPDEST POP PUSH2 0x248 PUSH2 0x59C CALLDATASIZE PUSH1 0x4 PUSH2 0x28ED JUMP JUMPDEST PUSH2 0x1E2D JUMP JUMPDEST CALLVALUE DUP1 ISZERO PUSH2 0x5AC JUMPI PUSH0 DUP1 REVERT JUMPDEST POP PUSH2 0x5B5 PUSH2 0x1EF8 JUMP JUMPDEST PUSH1 0x40 DUP1 MLOAD SWAP5 DUP6 MSTORE PUSH1 0x20 DUP6 ADD SWAP4 SWAP1 SWAP4 MSTORE SWAP2 DUP4 ADD MSTORE PUSH1 0x1 PUSH1 0x1 PUSH1 0xA0 SHL SUB AND PUSH1 0x60 DUP3 ADD MSTORE PUSH1 0x80 ADD PUSH2 0x220 JUMP JUMPDEST CALLVALUE DUP1 ISZERO PUSH2 0x5E9 JUMPI PUSH0 DUP1 REVERT JUMPDEST POP PUSH2 0x248 PUSH2 0x5F8 CALLDATASIZE PUSH1 0x4 PUSH2 0x293F JUMP JUMPDEST PUSH2 0x1FCC JUMP JUMPDEST CALLVALUE DUP1 ISZERO PUSH2 0x608 JUMPI PUSH0 DUP1 REVERT JUMPDEST POP PUSH0 SLOAD PUSH2 0x61B SWAP1 PUSH1 0x1 PUSH1 0x1 PUSH1 0xA0 SHL SUB AND DUP2 JUMP JUMPDEST PUSH1 0x40 MLOAD PUSH1 0x1 PUSH1 0x1 PUSH1 0xA0 SHL SUB SWAP1 SWAP2 AND DUP2 MSTORE PUSH1 0x20 ADD PUSH2 0x220 JUMP JUMPDEST CALLVALUE DUP1 ISZERO PUSH2 0x63E JUMPI PUSH0 DUP1 REVERT JUMPDEST POP PUSH2 0x29B PUSH0 DUP1 MLOAD PUSH1 0x20 PUSH2 0x313A DUP4 CODECOPY DUP2 MLOAD SWAP2 MSTORE DUP2 JUMP JUMPDEST CALLVALUE DUP1 ISZERO PUSH2 0x65E JUMPI PUSH0 DUP1 REVERT JUMPDEST POP PUSH2 0x29B PUSH0 DUP1 MLOAD PUSH1 0x20 PUSH2 0x30FA DUP4 CODECOPY DUP2 MLOAD SWAP2 MSTORE DUP2 JUMP JUMPDEST CALLVALUE DUP1 ISZERO PUSH2 0x67E JUMPI PUSH0 DUP1 REVERT JUMPDEST POP PUSH1 0x1 SLOAD PUSH2 0x61B SWAP1 PUSH1 0x1 PUSH1 0x1 PUSH1 0xA0 SHL SUB AND DUP2 JUMP JUMPDEST PUSH0 PUSH2 0x69C DUP3 PUSH2 0x1FE8 JUMP JUMPDEST SWAP3 SWAP2 POP POP JUMP JUMPDEST PUSH32 0xF0C57E16840DF040F15088DC2F81FE391C3923BEC73E23A9662EFC9C229C6A00 DUP1 SLOAD PUSH1 0x1 PUSH1 0x40 SHL DUP2 DIV PUSH1 0xFF AND ISZERO SWAP1 PUSH8 0xFFFFFFFFFFFFFFFF AND PUSH0 DUP2 ISZERO DUP1 ISZERO PUSH2 0x6E7 JUMPI POP DUP3 JUMPDEST SWAP1 POP PUSH0 DUP3 PUSH8 0xFFFFFFFFFFFFFFFF AND PUSH1 0x1 EQ DUP1 ISZERO PUSH2 0x703 JUMPI POP ADDRESS EXTCODESIZE ISZERO JUMPDEST SWAP1 POP DUP2 ISZERO DUP1 ISZERO PUSH2 0x711 JUMPI POP DUP1 ISZERO JUMPDEST ISZERO PUSH2 0x72F JUMPI PUSH1 0x40 MLOAD PUSH4 0xF92EE8A9 PUSH1 0xE0 SHL DUP2 MSTORE PUSH1 0x4 ADD PUSH1 0x40 MLOAD DUP1 SWAP2 SUB SWAP1 REVERT JUMPDEST DUP5 SLOAD PUSH8 0xFFFFFFFFFFFFFFFF NOT AND PUSH1 0x1 OR DUP6 SSTORE DUP4 ISZERO PUSH2 0x759 JUMPI DUP5 SLOAD PUSH1 0xFF PUSH1 0x40 SHL NOT AND PUSH1 0x1 PUSH1 0x40 SHL OR DUP6 SSTORE JUMPDEST PUSH2 0x761 PUSH2 0x201C JUMP JUMPDEST PUSH2 0x769 PUSH2 0x202E JUMP JUMPDEST PUSH2 0x771 PUSH2 0x202E JUMP JUMPDEST PUSH2 0x77B PUSH0 DUP12 PUSH2 0x2036 JUMP JUMPDEST POP PUSH2 0x793 PUSH0 DUP1 MLOAD PUSH1 0x20 PUSH2 0x313A DUP4 CODECOPY DUP2 MLOAD SWAP2 MSTORE DUP11 PUSH2 0x2036 JUMP JUMPDEST POP PUSH2 0x7AB PUSH0 DUP1 MLOAD PUSH1 0x20 PUSH2 0x30FA DUP4 CODECOPY DUP2 MLOAD SWAP2 MSTORE DUP10 PUSH2 0x2036 JUMP JUMPDEST POP PUSH0 DUP1 SLOAD PUSH1 0x1 PUSH1 0x1 PUSH1 0xA0 SHL SUB DUP1 DUP11 AND PUSH1 0x1 PUSH1 0x1 PUSH1 0xA0 SHL SUB NOT SWAP3 DUP4 AND OR SWAP1 SWAP3 SSTORE PUSH1 0x1 DUP1 SLOAD SWAP3 DUP10 AND SWAP3 SWAP1 SWAP2 AND SWAP2 SWAP1 SWAP2 OR SWAP1 SSTORE DUP4 ISZERO PUSH2 0x821 JUMPI DUP5 SLOAD PUSH1 0xFF PUSH1 0x40 SHL NOT AND DUP6 SSTORE PUSH1 0x40 MLOAD PUSH1 0x1 DUP2 MSTORE PUSH32 0xC7F505B2F371AE2175EE4913F4499E1F2633A7B5936321EED1CDAEB6115181D2 SWAP1 PUSH1 0x20 ADD PUSH1 0x40 MLOAD DUP1 SWAP2 SUB SWAP1 LOG1 JUMPDEST POP POP POP POP POP POP POP POP POP POP JUMP JUMPDEST PUSH32 0x71F3D55856E4058ED06EE057D79ADA615F65CDF5F9EE88181B914225088F834F PUSH2 0x857 DUP2 PUSH2 0x20D7 JUMP JUMPDEST PUSH1 0x1 PUSH1 0x1 PUSH1 0xA0 SHL SUB DUP3 AND PUSH0 SWAP1 DUP2 MSTORE PUSH1 0x5 PUSH1 0x20 MSTORE PUSH1 0x40 DUP2 KECCAK256 DUP1 SLOAD SWAP2 PUSH2 0x87A DUP4 PUSH2 0x2D8C JUMP JUMPDEST SWAP2 SWAP1 POP SSTORE POP POP POP JUMP JUMPDEST PUSH2 0x88B PUSH2 0x20E1 JUMP JUMPDEST PUSH0 DUP3 DUP2 MSTORE PUSH1 0x3 PUSH1 0x20 MSTORE PUSH1 0x40 SWAP1 KECCAK256 PUSH1 0x6 ADD SLOAD PUSH1 0xFF AND PUSH2 0x8E8 JUMPI PUSH1 0x40 MLOAD PUSH3 0x461BCD PUSH1 0xE5 SHL DUP2 MSTORE PUSH1 0x20 PUSH1 0x4 DUP3 ADD MSTORE PUSH1 0x15 PUSH1 0x24 DUP3 ADD MSTORE PUSH21 0x4C697374696E67206973206E6F7420616374697665 PUSH1 0x58 SHL PUSH1 0x44 DUP3 ADD MSTORE PUSH1 0x64 ADD JUMPDEST PUSH1 0x40 MLOAD DUP1 SWAP2 SUB SWAP1 REVERT JUMPDEST PUSH0 DUP3 DUP2 MSTORE PUSH1 0x3 PUSH1 0x20 MSTORE PUSH1 0x40 SWAP1 KECCAK256 PUSH1 0x2 ADD SLOAD DUP2 GT ISZERO PUSH2 0x948 JUMPI PUSH1 0x40 MLOAD PUSH3 0x461BCD PUSH1 0xE5 SHL DUP2 MSTORE PUSH1 0x20 PUSH1 0x4 DUP3 ADD MSTORE PUSH1 0x1D PUSH1 0x24 DUP3 ADD MSTORE PUSH32 0x4E6F7420656E6F756768207175616E7469747920617661696C61626C65000000 PUSH1 0x44 DUP3 ADD MSTORE PUSH1 0x64 ADD PUSH2 0x8DF JUMP JUMPDEST PUSH0 DUP3 DUP2 MSTORE PUSH1 0x3 PUSH1 0x20 MSTORE PUSH1 0x40 SWAP1 KECCAK256 PUSH1 0x5 ADD SLOAD TIMESTAMP LT PUSH2 0x99D JUMPI PUSH1 0x40 MLOAD PUSH3 0x461BCD PUSH1 0xE5 SHL DUP2 MSTORE PUSH1 0x20 PUSH1 0x4 DUP3 ADD MSTORE PUSH1 0x13 PUSH1 0x24 DUP3 ADD MSTORE PUSH19 0x131A5CDD1A5B99C81A185CC8195E1C1A5C9959 PUSH1 0x6A SHL PUSH1 0x44 DUP3 ADD MSTORE PUSH1 0x64 ADD PUSH2 0x8DF JUMP JUMPDEST PUSH0 DUP3 DUP2 MSTORE PUSH1 0x3 PUSH1 0x20 DUP2 SWAP1 MSTORE PUSH1 0x40 DUP3 KECCAK256 ADD SLOAD PUSH2 0x9B9 SWAP1 DUP4 SWAP1 PUSH2 0x2DA4 JUMP JUMPDEST SWAP1 POP DUP1 CALLVALUE LT ISZERO PUSH2 0xA00 JUMPI PUSH1 0x40 MLOAD PUSH3 0x461BCD PUSH1 0xE5 SHL DUP2 MSTORE PUSH1 0x20 PUSH1 0x4 DUP3 ADD MSTORE PUSH1 0x12 PUSH1 0x24 DUP3 ADD MSTORE PUSH18 0x496E73756666696369656E742066756E6473 PUSH1 0x70 SHL PUSH1 0x44 DUP3 ADD MSTORE PUSH1 0x64 ADD PUSH2 0x8DF JUMP JUMPDEST PUSH0 DUP4 DUP2 MSTORE PUSH1 0x3 PUSH1 0x20 MSTORE PUSH1 0x40 DUP2 KECCAK256 PUSH1 0x2 ADD DUP1 SLOAD DUP5 SWAP3 SWAP1 PUSH2 0xA20 SWAP1 DUP5 SWAP1 PUSH2 0x2DBB JUMP JUMPDEST SWAP1 SWAP2 SSTORE POP POP PUSH0 DUP4 DUP2 MSTORE PUSH1 0x3 PUSH1 0x20 MSTORE PUSH1 0x40 SWAP1 KECCAK256 PUSH1 0x1 ADD SLOAD PUSH2 0xA41 SWAP1 DUP4 CALLER PUSH2 0x2111 JUMP JUMPDEST DUP1 CALLVALUE GT ISZERO PUSH2 0xA7E JUMPI CALLER PUSH2 0x8FC PUSH2 0xA57 DUP4 CALLVALUE PUSH2 0x2DBB JUMP JUMPDEST PUSH1 0x40 MLOAD DUP2 ISZERO SWAP1 SWAP3 MUL SWAP2 PUSH0 DUP2 DUP2 DUP2 DUP6 DUP9 DUP9 CALL SWAP4 POP POP POP POP ISZERO DUP1 ISZERO PUSH2 0xA7C JUMPI RETURNDATASIZE PUSH0 DUP1 RETURNDATACOPY RETURNDATASIZE PUSH0 REVERT JUMPDEST POP JUMPDEST PUSH0 DUP4 DUP2 MSTORE PUSH1 0x3 PUSH1 0x20 DUP2 DUP2 MSTORE PUSH1 0x40 SWAP3 DUP4 SWAP1 KECCAK256 PUSH1 0x1 DUP2 ADD SLOAD SWAP3 DUP2 ADD SLOAD PUSH1 0x4 SWAP1 SWAP2 ADD SLOAD DUP5 MLOAD DUP8 DUP2 MSTORE SWAP3 DUP4 ADD SWAP2 SWAP1 SWAP2 MSTORE PUSH1 0x1 PUSH1 0x1 PUSH1 0xA0 SHL SUB AND DUP2 DUP5 ADD MSTORE SWAP2 MLOAD SWAP1 SWAP2 CALLER SWAP2 DUP7 SWAP2 PUSH32 0x156729FBF2F6BE7C3C29EEDFB2193A7CF5BE15EF9AD075A2EA515257F542386E SWAP2 SWAP1 DUP2 SWAP1 SUB PUSH1 0x60 ADD SWAP1 LOG4 PUSH0 DUP4 DUP2 MSTORE PUSH1 0x3 PUSH1 0x20 MSTORE PUSH1 0x40 DUP2 KECCAK256 PUSH1 0x2 ADD SLOAD SWAP1 SUB PUSH2 0xB41 JUMPI PUSH0 DUP4 DUP2 MSTORE PUSH1 0x3 PUSH1 0x20 MSTORE PUSH1 0x40 DUP1 DUP3 KECCAK256 PUSH1 0x6 ADD DUP1 SLOAD PUSH1 0xFF NOT AND SWAP1 SSTORE MLOAD DUP5 SWAP2 PUSH32 0x4DF8589699376359278C405066850AD888C3113F536EDA09576016B277994416 SWAP2 LOG2 JUMPDEST PUSH0 DUP4 DUP2 MSTORE PUSH1 0x3 PUSH1 0x20 SWAP1 DUP2 MSTORE PUSH1 0x40 DUP1 DUP4 KECCAK256 SLOAD PUSH1 0x1 PUSH1 0x1 PUSH1 0xA0 SHL SUB AND DUP4 MSTORE PUSH1 0x6 SWAP1 SWAP2 MSTORE DUP2 KECCAK256 DUP1 SLOAD SWAP2 PUSH2 0xB70 DUP4 PUSH2 0x2D8C JUMP JUMPDEST SWAP2 SWAP1 POP SSTORE POP POP POP POP JUMP JUMPDEST PUSH0 SWAP1 DUP2 MSTORE PUSH0 DUP1 MLOAD PUSH1 0x20 PUSH2 0x315A DUP4 CODECOPY DUP2 MLOAD SWAP2 MSTORE PUSH1 0x20 MSTORE PUSH1 0x40 SWAP1 KECCAK256 PUSH1 0x1 ADD SLOAD SWAP1 JUMP JUMPDEST PUSH2 0xBA3 DUP3 PUSH2 0xB7A JUMP JUMPDEST PUSH2 0xBAC DUP2 PUSH2 0x20D7 JUMP JUMPDEST PUSH2 0xBB6 DUP4 DUP4 PUSH2 0x2036 JUMP JUMPDEST POP POP POP POP JUMP JUMPDEST PUSH0 DUP2 DUP2 MSTORE PUSH1 0x3 PUSH1 0x20 MSTORE PUSH1 0x40 SWAP1 KECCAK256 SLOAD PUSH1 0x1 PUSH1 0x1 PUSH1 0xA0 SHL SUB AND CALLER EQ PUSH2 0xC30 JUMPI PUSH1 0x40 MLOAD PUSH3 0x461BCD PUSH1 0xE5 SHL DUP2 MSTORE PUSH1 0x20 PUSH1 0x4 DUP3 ADD MSTORE PUSH1 0x26 PUSH1 0x24 DUP3 ADD MSTORE PUSH32 0x596F7520617265206E6F74207468652073656C6C6572206F662074686973206C PUSH1 0x44 DUP3 ADD MSTORE PUSH6 0x697374696E67 PUSH1 0xD0 SHL PUSH1 0x64 DUP3 ADD MSTORE PUSH1 0x84 ADD PUSH2 0x8DF JUMP JUMPDEST PUSH0 DUP2 DUP2 MSTORE PUSH1 0x3 PUSH1 0x20 MSTORE PUSH1 0x40 SWAP1 KECCAK256 PUSH1 0x6 ADD SLOAD PUSH1 0xFF AND PUSH2 0xC88 JUMPI PUSH1 0x40 MLOAD PUSH3 0x461BCD PUSH1 0xE5 SHL DUP2 MSTORE PUSH1 0x20 PUSH1 0x4 DUP3 ADD MSTORE PUSH1 0x15 PUSH1 0x24 DUP3 ADD MSTORE PUSH21 0x4C697374696E67206973206E6F7420616374697665 PUSH1 0x58 SHL PUSH1 0x44 DUP3 ADD MSTORE PUSH1 0x64 ADD PUSH2 0x8DF JUMP JUMPDEST PUSH0 DUP2 DUP2 MSTORE PUSH1 0x3 PUSH1 0x20 MSTORE PUSH1 0x40 DUP1 DUP3 KECCAK256 PUSH1 0x6 ADD DUP1 SLOAD PUSH1 0xFF NOT AND SWAP1 SSTORE MLOAD DUP3 SWAP2 PUSH32 0x411AEE90354C51B1B04CD563FCAB2617142A9D50DA19232D888547C8A1B7FD8A SWAP2 LOG2 POP JUMP JUMPDEST PUSH1 0x1 PUSH1 0x1 PUSH1 0xA0 SHL SUB DUP2 AND CALLER EQ PUSH2 0xCF3 JUMPI PUSH1 0x40 MLOAD PUSH4 0x334BD919 PUSH1 0xE1 SHL DUP2 MSTORE PUSH1 0x4 ADD PUSH1 0x40 MLOAD DUP1 SWAP2 SUB SWAP1 REVERT JUMPDEST PUSH2 0xCFD DUP3 DUP3 PUSH2 0x2282 JUMP JUMPDEST POP POP POP JUMP JUMPDEST PUSH2 0xD0A PUSH2 0x20E1 JUMP JUMPDEST PUSH0 DUP8 GT PUSH2 0xD29 JUMPI PUSH1 0x40 MLOAD PUSH3 0x461BCD PUSH1 0xE5 SHL DUP2 MSTORE PUSH1 0x4 ADD PUSH2 0x8DF SWAP1 PUSH2 0x2DCE JUMP JUMPDEST PUSH0 DUP7 GT PUSH2 0xD78 JUMPI PUSH1 0x40 MLOAD PUSH3 0x461BCD PUSH1 0xE5 SHL DUP2 MSTORE PUSH1 0x20 PUSH1 0x4 DUP3 ADD MSTORE PUSH1 0x1F PUSH1 0x24 DUP3 ADD MSTORE PUSH32 0x5072696365206D7573742062652067726561746572207468616E207A65726F00 PUSH1 0x44 DUP3 ADD MSTORE PUSH1 0x64 ADD PUSH2 0x8DF JUMP JUMPDEST TIMESTAMP DUP5 GT PUSH2 0xD97 JUMPI PUSH1 0x40 MLOAD PUSH3 0x461BCD PUSH1 0xE5 SHL DUP2 MSTORE PUSH1 0x4 ADD PUSH2 0x8DF SWAP1 PUSH2 0x2E10 JUMP JUMPDEST PUSH0 SLOAD PUSH1 0x40 MLOAD PUSH4 0x31A9108F PUSH1 0xE1 SHL DUP2 MSTORE PUSH1 0x4 DUP2 ADD DUP11 SWAP1 MSTORE CALLER SWAP2 PUSH1 0x1 PUSH1 0x1 PUSH1 0xA0 SHL SUB AND SWAP1 PUSH4 0x6352211E SWAP1 PUSH1 0x24 ADD PUSH1 0x20 PUSH1 0x40 MLOAD DUP1 DUP4 SUB DUP2 DUP7 GAS STATICCALL ISZERO DUP1 ISZERO PUSH2 0xDDD JUMPI RETURNDATASIZE PUSH0 DUP1 RETURNDATACOPY RETURNDATASIZE PUSH0 REVERT JUMPDEST POP POP POP POP PUSH1 0x40 MLOAD RETURNDATASIZE PUSH1 0x1F NOT PUSH1 0x1F DUP3 ADD AND DUP3 ADD DUP1 PUSH1 0x40 MSTORE POP DUP2 ADD SWAP1 PUSH2 0xE01 SWAP2 SWAP1 PUSH2 0x2E47 JUMP JUMPDEST PUSH1 0x1 PUSH1 0x1 PUSH1 0xA0 SHL SUB AND EQ DUP1 PUSH2 0xE83 JUMPI POP PUSH1 0x1 SLOAD PUSH1 0x40 MLOAD PUSH3 0x7EEAC7 PUSH1 0xE1 SHL DUP2 MSTORE CALLER PUSH1 0x4 DUP3 ADD MSTORE PUSH1 0x24 DUP2 ADD DUP11 SWAP1 MSTORE DUP9 SWAP2 PUSH1 0x1 PUSH1 0x1 PUSH1 0xA0 SHL SUB AND SWAP1 PUSH3 0xFDD58E SWAP1 PUSH1 0x44 ADD PUSH1 0x20 PUSH1 0x40 MLOAD DUP1 DUP4 SUB DUP2 DUP7 GAS STATICCALL ISZERO DUP1 ISZERO PUSH2 0xE5C JUMPI RETURNDATASIZE PUSH0 DUP1 RETURNDATACOPY RETURNDATASIZE PUSH0 REVERT JUMPDEST POP POP POP POP PUSH1 0x40 MLOAD RETURNDATASIZE PUSH1 0x1F NOT PUSH1 0x1F DUP3 ADD AND DUP3 ADD DUP1 PUSH1 0x40 MSTORE POP DUP2 ADD SWAP1 PUSH2 0xE80 SWAP2 SWAP1 PUSH2 0x2E62 JUMP JUMPDEST LT ISZERO JUMPDEST PUSH2 0xE9F JUMPI PUSH1 0x40 MLOAD PUSH3 0x461BCD PUSH1 0xE5 SHL DUP2 MSTORE PUSH1 0x4 ADD PUSH2 0x8DF SWAP1 PUSH2 0x2E79 JUMP JUMPDEST PUSH2 0xEAD PUSH1 0x2 DUP1 SLOAD PUSH1 0x1 ADD SWAP1 SSTORE JUMP JUMPDEST PUSH0 PUSH2 0xEB7 PUSH1 0x2 SLOAD SWAP1 JUMP JUMPDEST PUSH1 0x40 DUP1 MLOAD PUSH2 0x120 DUP2 ADD DUP3 MSTORE CALLER DUP2 MSTORE PUSH1 0x20 DUP1 DUP3 ADD DUP14 DUP2 MSTORE DUP3 DUP5 ADD DUP14 DUP2 MSTORE PUSH1 0x60 DUP5 ADD DUP14 DUP2 MSTORE PUSH1 0x1 PUSH1 0x1 PUSH1 0xA0 SHL SUB DUP14 DUP2 AND PUSH1 0x80 DUP8 ADD SWAP1 DUP2 MSTORE PUSH1 0xA0 DUP8 ADD DUP15 DUP2 MSTORE PUSH1 0x1 PUSH1 0xC0 DUP10 ADD DUP2 DUP2 MSTORE PUSH1 0xE0 DUP11 ADD DUP16 DUP2 MSTORE PUSH2 0x100 DUP12 ADD DUP16 SWAP1 MSTORE PUSH0 DUP14 DUP2 MSTORE PUSH1 0x3 SWAP11 DUP12 SWAP1 MSTORE SWAP12 SWAP1 SWAP12 KECCAK256 DUP11 MLOAD DUP2 SLOAD PUSH1 0x1 PUSH1 0x1 PUSH1 0xA0 SHL SUB NOT SWAP1 DUP2 AND SWAP2 DUP9 AND SWAP2 SWAP1 SWAP2 OR DUP3 SSTORE SWAP9 MLOAD SWAP3 DUP2 ADD SWAP3 SWAP1 SWAP3 SSTORE SWAP6 MLOAD PUSH1 0x2 DUP3 ADD SSTORE SWAP4 MLOAD SWAP7 DUP5 ADD SWAP7 SWAP1 SWAP7 SSTORE MLOAD PUSH1 0x4 DUP4 ADD DUP1 SLOAD SWAP1 SWAP6 AND SWAP2 AND OR SWAP1 SWAP3 SSTORE SWAP2 MLOAD PUSH1 0x5 DUP3 ADD SSTORE SWAP1 MLOAD PUSH1 0x6 DUP3 ADD DUP1 SLOAD PUSH1 0xFF NOT AND SWAP2 ISZERO ISZERO SWAP2 SWAP1 SWAP2 OR SWAP1 SSTORE SWAP2 MLOAD SWAP3 SWAP4 POP SWAP2 PUSH1 0x7 DUP3 ADD SWAP1 PUSH2 0xF8C SWAP1 DUP3 PUSH2 0x2F33 JUMP JUMPDEST POP PUSH2 0x100 DUP3 ADD MLOAD DUP2 PUSH1 0x8 ADD SSTORE SWAP1 POP POP DUP9 CALLER PUSH1 0x1 PUSH1 0x1 PUSH1 0xA0 SHL SUB AND DUP3 PUSH32 0x8819D1124ACC09CE5B5CF394C0B293EFD960F2B029092396E244BEEA5ACAA849 DUP12 DUP12 DUP12 DUP12 DUP11 DUP11 PUSH1 0x40 MLOAD PUSH2 0xFE0 SWAP7 SWAP6 SWAP5 SWAP4 SWAP3 SWAP2 SWAP1 PUSH2 0x2FEE JUMP JUMPDEST PUSH1 0x40 MLOAD DUP1 SWAP2 SUB SWAP1 LOG4 POP POP POP POP POP POP POP POP POP JUMP JUMPDEST PUSH0 DUP1 MLOAD PUSH1 0x20 PUSH2 0x313A DUP4 CODECOPY DUP2 MLOAD SWAP2 MSTORE PUSH2 0x100A DUP2 PUSH2 0x20D7 JUMP JUMPDEST PUSH2 0x1012 PUSH2 0x22FB JUMP JUMPDEST POP JUMP JUMPDEST PUSH2 0x101D PUSH2 0x20E1 JUMP JUMPDEST PUSH0 DUP7 GT PUSH2 0x103C JUMPI PUSH1 0x40 MLOAD PUSH3 0x461BCD PUSH1 0xE5 SHL DUP2 MSTORE PUSH1 0x4 ADD PUSH2 0x8DF SWAP1 PUSH2 0x2DCE JUMP JUMPDEST PUSH0 DUP6 GT PUSH2 0x108B JUMPI PUSH1 0x40 MLOAD PUSH3 0x461BCD PUSH1 0xE5 SHL DUP2 MSTORE PUSH1 0x20 PUSH1 0x4 DUP3 ADD MSTORE PUSH1 0x1F PUSH1 0x24 DUP3 ADD MSTORE PUSH32 0x5072696365206D7573742062652067726561746572207468616E207A65726F00 PUSH1 0x44 DUP3 ADD MSTORE PUSH1 0x64 ADD PUSH2 0x8DF JUMP JUMPDEST TIMESTAMP DUP4 GT PUSH2 0x10AA JUMPI PUSH1 0x40 MLOAD PUSH3 0x461BCD PUSH1 0xE5 SHL DUP2 MSTORE PUSH1 0x4 ADD PUSH2 0x8DF SWAP1 PUSH2 0x2E10 JUMP JUMPDEST PUSH0 SLOAD PUSH1 0x40 MLOAD PUSH4 0x31A9108F PUSH1 0xE1 SHL DUP2 MSTORE PUSH1 0x4 DUP2 ADD DUP10 SWAP1 MSTORE CALLER SWAP2 PUSH1 0x1 PUSH1 0x1 PUSH1 0xA0 SHL SUB AND SWAP1 PUSH4 0x6352211E SWAP1 PUSH1 0x24 ADD PUSH1 0x20 PUSH1 0x40 MLOAD DUP1 DUP4 SUB DUP2 DUP7 GAS STATICCALL ISZERO DUP1 ISZERO PUSH2 0x10F0 JUMPI RETURNDATASIZE PUSH0 DUP1 RETURNDATACOPY RETURNDATASIZE PUSH0 REVERT JUMPDEST POP POP POP POP PUSH1 0x40 MLOAD RETURNDATASIZE PUSH1 0x1F NOT PUSH1 0x1F DUP3 ADD AND DUP3 ADD DUP1 PUSH1 0x40 MSTORE POP DUP2 ADD SWAP1 PUSH2 0x1114 SWAP2 SWAP1 PUSH2 0x2E47 JUMP JUMPDEST PUSH1 0x1 PUSH1 0x1 PUSH1 0xA0 SHL SUB AND EQ DUP1 PUSH2 0x1196 JUMPI POP PUSH1 0x1 SLOAD PUSH1 0x40 MLOAD PUSH3 0x7EEAC7 PUSH1 0xE1 SHL DUP2 MSTORE CALLER PUSH1 0x4 DUP3 ADD MSTORE PUSH1 0x24 DUP2 ADD DUP10 SWAP1 MSTORE DUP8 SWAP2 PUSH1 0x1 PUSH1 0x1 PUSH1 0xA0 SHL SUB AND SWAP1 PUSH3 0xFDD58E SWAP1 PUSH1 0x44 ADD PUSH1 0x20 PUSH1 0x40 MLOAD DUP1 DUP4 SUB DUP2 DUP7 GAS STATICCALL ISZERO DUP1 ISZERO PUSH2 0x116F JUMPI RETURNDATASIZE PUSH0 DUP1 RETURNDATACOPY RETURNDATASIZE PUSH0 REVERT JUMPDEST POP POP POP POP PUSH1 0x40 MLOAD RETURNDATASIZE PUSH1 0x1F NOT PUSH1 0x1F DUP3 ADD AND DUP3 ADD DUP1 PUSH1 0x40 MSTORE POP DUP2 ADD SWAP1 PUSH2 0x1193 SWAP2 SWAP1 PUSH2 0x2E62 JUMP JUMPDEST LT ISZERO JUMPDEST PUSH2 0x11B2 JUMPI PUSH1 0x40 MLOAD PUSH3 0x461BCD PUSH1 0xE5 SHL DUP2 MSTORE PUSH1 0x4 ADD PUSH2 0x8DF SWAP1 PUSH2 0x2E79 JUMP JUMPDEST PUSH2 0x11C0 PUSH1 0x2 DUP1 SLOAD PUSH1 0x1 ADD SWAP1 SSTORE JUMP JUMPDEST PUSH0 PUSH2 0x11CA PUSH1 0x2 SLOAD SWAP1 JUMP JUMPDEST PUSH1 0x40 DUP1 MLOAD PUSH2 0x120 DUP2 ADD DUP3 MSTORE CALLER DUP2 MSTORE PUSH1 0x20 DUP1 DUP3 ADD DUP13 DUP2 MSTORE DUP3 DUP5 ADD DUP13 DUP2 MSTORE PUSH1 0x60 DUP5 ADD DUP13 DUP2 MSTORE PUSH1 0x1 PUSH1 0x1 PUSH1 0xA0 SHL SUB DUP13 DUP2 AND PUSH1 0x80 DUP8 ADD SWAP1 DUP2 MSTORE PUSH1 0xA0 DUP8 ADD DUP14 DUP2 MSTORE PUSH1 0x1 PUSH1 0xC0 DUP10 ADD DUP2 DUP2 MSTORE PUSH1 0xE0 DUP11 ADD DUP16 DUP2 MSTORE PUSH2 0x100 DUP12 ADD DUP16 SWAP1 MSTORE PUSH0 DUP14 DUP2 MSTORE PUSH1 0x3 SWAP11 DUP12 SWAP1 MSTORE SWAP12 SWAP1 SWAP12 KECCAK256 DUP11 MLOAD DUP2 SLOAD PUSH1 0x1 PUSH1 0x1 PUSH1 0xA0 SHL SUB NOT SWAP1 DUP2 AND SWAP2 DUP9 AND SWAP2 SWAP1 SWAP2 OR DUP3 SSTORE SWAP9 MLOAD SWAP3 DUP2 ADD SWAP3 SWAP1 SWAP3 SSTORE SWAP6 MLOAD PUSH1 0x2 DUP3 ADD SSTORE SWAP4 MLOAD SWAP7 DUP5 ADD SWAP7 SWAP1 SWAP7 SSTORE MLOAD PUSH1 0x4 DUP4 ADD DUP1 SLOAD SWAP1 SWAP6 AND SWAP2 AND OR SWAP1 SWAP3 SSTORE SWAP2 MLOAD PUSH1 0x5 DUP3 ADD SSTORE SWAP1 MLOAD PUSH1 0x6 DUP3 ADD DUP1 SLOAD PUSH1 0xFF NOT AND SWAP2 ISZERO ISZERO SWAP2 SWAP1 SWAP2 OR SWAP1 SSTORE SWAP2 MLOAD SWAP3 SWAP4 POP SWAP2 PUSH1 0x7 DUP3 ADD SWAP1 PUSH2 0x129F SWAP1 DUP3 PUSH2 0x2F33 JUMP JUMPDEST POP PUSH2 0x100 DUP3 ADD MLOAD DUP2 PUSH1 0x8 ADD SSTORE SWAP1 POP POP DUP8 CALLER PUSH1 0x1 PUSH1 0x1 PUSH1 0xA0 SHL SUB AND DUP3 PUSH32 0x8819D1124ACC09CE5B5CF394C0B293EFD960F2B029092396E244BEEA5ACAA849 DUP11 DUP11 DUP11 DUP11 DUP11 DUP11 PUSH1 0x40 MLOAD PUSH2 0x12F3 SWAP7 SWAP6 SWAP5 SWAP4 SWAP3 SWAP2 SWAP1 PUSH2 0x2FEE JUMP JUMPDEST PUSH1 0x40 MLOAD DUP1 SWAP2 SUB SWAP1 LOG4 POP POP POP POP POP POP POP POP JUMP JUMPDEST PUSH2 0x130D PUSH2 0x235A JUMP JUMPDEST PUSH2 0x1316 DUP3 PUSH2 0x133F JUMP JUMPDEST PUSH2 0x1320 DUP3 DUP3 PUSH2 0x23FE JUMP JUMPDEST POP POP JUMP JUMPDEST PUSH0 PUSH2 0x132D PUSH2 0x24BA JUMP JUMPDEST POP PUSH0 DUP1 MLOAD PUSH1 0x20 PUSH2 0x311A DUP4 CODECOPY DUP2 MLOAD SWAP2 MSTORE SWAP1 JUMP JUMPDEST PUSH0 DUP1 MLOAD PUSH1 0x20 PUSH2 0x30FA DUP4 CODECOPY DUP2 MLOAD SWAP2 MSTORE PUSH2 0x1320 DUP2 PUSH2 0x20D7 JUMP JUMPDEST PUSH1 0x60 PUSH0 PUSH2 0x1362 PUSH1 0x2 SLOAD SWAP1 JUMP JUMPDEST SWAP1 POP PUSH0 PUSH1 0x1 JUMPDEST DUP3 DUP2 GT PUSH2 0x13C3 JUMPI PUSH0 DUP2 DUP2 MSTORE PUSH1 0x3 PUSH1 0x20 MSTORE PUSH1 0x40 SWAP1 KECCAK256 PUSH1 0x8 ADD SLOAD DUP6 EQ DUP1 ISZERO PUSH2 0x139E JUMPI POP PUSH0 DUP2 DUP2 MSTORE PUSH1 0x3 PUSH1 0x20 MSTORE PUSH1 0x40 SWAP1 KECCAK256 PUSH1 0x6 ADD SLOAD PUSH1 0xFF AND JUMPDEST ISZERO PUSH2 0x13B1 JUMPI DUP2 PUSH2 0x13AD DUP2 PUSH2 0x2D8C JUMP JUMPDEST SWAP3 POP POP JUMPDEST DUP1 PUSH2 0x13BB DUP2 PUSH2 0x2D8C JUMP JUMPDEST SWAP2 POP POP PUSH2 0x1368 JUMP JUMPDEST POP PUSH0 DUP2 PUSH8 0xFFFFFFFFFFFFFFFF DUP2 GT ISZERO PUSH2 0x13DE JUMPI PUSH2 0x13DE PUSH2 0x296D JUMP JUMPDEST PUSH1 0x40 MLOAD SWAP1 DUP1 DUP3 MSTORE DUP1 PUSH1 0x20 MUL PUSH1 0x20 ADD DUP3 ADD PUSH1 0x40 MSTORE DUP1 ISZERO PUSH2 0x1417 JUMPI DUP2 PUSH1 0x20 ADD JUMPDEST PUSH2 0x1404 PUSH2 0x27ED JUMP JUMPDEST DUP2 MSTORE PUSH1 0x20 ADD SWAP1 PUSH1 0x1 SWAP1 SUB SWAP1 DUP2 PUSH2 0x13FC JUMPI SWAP1 POP JUMPDEST POP SWAP1 POP PUSH0 PUSH1 0x1 JUMPDEST DUP5 DUP2 GT PUSH2 0x15A4 JUMPI PUSH0 DUP2 DUP2 MSTORE PUSH1 0x3 PUSH1 0x20 MSTORE PUSH1 0x40 SWAP1 KECCAK256 PUSH1 0x8 ADD SLOAD DUP8 EQ DUP1 ISZERO PUSH2 0x1454 JUMPI POP PUSH0 DUP2 DUP2 MSTORE PUSH1 0x3 PUSH1 0x20 MSTORE PUSH1 0x40 SWAP1 KECCAK256 PUSH1 0x6 ADD SLOAD PUSH1 0xFF AND JUMPDEST ISZERO PUSH2 0x1592 JUMPI PUSH0 DUP2 DUP2 MSTORE PUSH1 0x3 PUSH1 0x20 DUP2 DUP2 MSTORE PUSH1 0x40 SWAP3 DUP4 SWAP1 KECCAK256 DUP4 MLOAD PUSH2 0x120 DUP2 ADD DUP6 MSTORE DUP2 SLOAD PUSH1 0x1 PUSH1 0x1 PUSH1 0xA0 SHL SUB SWAP1 DUP2 AND DUP3 MSTORE PUSH1 0x1 DUP4 ADD SLOAD SWAP4 DUP3 ADD SWAP4 SWAP1 SWAP4 MSTORE PUSH1 0x2 DUP3 ADD SLOAD SWAP5 DUP2 ADD SWAP5 SWAP1 SWAP5 MSTORE SWAP2 DUP3 ADD SLOAD PUSH1 0x60 DUP5 ADD MSTORE PUSH1 0x4 DUP3 ADD SLOAD AND PUSH1 0x80 DUP4 ADD MSTORE PUSH1 0x5 DUP2 ADD SLOAD PUSH1 0xA0 DUP4 ADD MSTORE PUSH1 0x6 DUP2 ADD SLOAD PUSH1 0xFF AND ISZERO ISZERO PUSH1 0xC0 DUP4 ADD MSTORE PUSH1 0x7 DUP2 ADD DUP1 SLOAD PUSH1 0xE0 DUP5 ADD SWAP2 SWAP1 PUSH2 0x14DC SWAP1 PUSH2 0x2EB0 JUMP JUMPDEST DUP1 PUSH1 0x1F ADD PUSH1 0x20 DUP1 SWAP2 DIV MUL PUSH1 0x20 ADD PUSH1 0x40 MLOAD SWAP1 DUP2 ADD PUSH1 0x40 MSTORE DUP1 SWAP3 SWAP2 SWAP1 DUP2 DUP2 MSTORE PUSH1 0x20 ADD DUP3 DUP1 SLOAD PUSH2 0x1508 SWAP1 PUSH2 0x2EB0 JUMP JUMPDEST DUP1 ISZERO PUSH2 0x1553 JUMPI DUP1 PUSH1 0x1F LT PUSH2 0x152A JUMPI PUSH2 0x100 DUP1 DUP4 SLOAD DIV MUL DUP4 MSTORE SWAP2 PUSH1 0x20 ADD SWAP2 PUSH2 0x1553 JUMP JUMPDEST DUP3 ADD SWAP2 SWAP1 PUSH0 MSTORE PUSH1 0x20 PUSH0 KECCAK256 SWAP1 JUMPDEST DUP2 SLOAD DUP2 MSTORE SWAP1 PUSH1 0x1 ADD SWAP1 PUSH1 0x20 ADD DUP1 DUP4 GT PUSH2 0x1536 JUMPI DUP3 SWAP1 SUB PUSH1 0x1F AND DUP3 ADD SWAP2 JUMPDEST POP POP POP POP POP DUP2 MSTORE PUSH1 0x20 ADD PUSH1 0x8 DUP3 ADD SLOAD DUP2 MSTORE POP POP DUP4 DUP4 DUP2 MLOAD DUP2 LT PUSH2 0x1578 JUMPI PUSH2 0x1578 PUSH2 0x3033 JUMP JUMPDEST PUSH1 0x20 MUL PUSH1 0x20 ADD ADD DUP2 SWAP1 MSTORE POP DUP2 DUP1 PUSH2 0x158E SWAP1 PUSH2 0x2D8C JUMP JUMPDEST SWAP3 POP POP JUMPDEST DUP1 PUSH2 0x159C DUP2 PUSH2 0x2D8C JUMP JUMPDEST SWAP2 POP POP PUSH2 0x141E JUMP JUMPDEST POP SWAP1 SWAP6 SWAP5 POP POP POP POP POP JUMP JUMPDEST PUSH0 DUP1 MLOAD PUSH1 0x20 PUSH2 0x313A DUP4 CODECOPY DUP2 MLOAD SWAP2 MSTORE PUSH2 0x15C6 DUP2 PUSH2 0x20D7 JUMP JUMPDEST PUSH2 0x1012 PUSH2 0x2503 JUMP JUMPDEST PUSH0 DUP1 MLOAD PUSH1 0x20 PUSH2 0x30FA DUP4 CODECOPY DUP2 MLOAD SWAP2 MSTORE PUSH2 0x15E5 DUP2 PUSH2 0x20D7 JUMP JUMPDEST PUSH1 0x1 PUSH1 0x1 PUSH1 0xA0 SHL SUB DUP3 AND PUSH0 SWAP1 DUP2 MSTORE PUSH1 0x4 PUSH1 0x20 MSTORE PUSH1 0x40 SWAP1 KECCAK256 SLOAD PUSH1 0xFF AND PUSH2 0x164C JUMPI PUSH1 0x40 MLOAD PUSH3 0x461BCD PUSH1 0xE5 SHL DUP2 MSTORE PUSH1 0x20 PUSH1 0x4 DUP3 ADD MSTORE PUSH1 0x18 PUSH1 0x24 DUP3 ADD MSTORE PUSH32 0x4D6F64657261746F7220646F6573206E6F742065786973740000000000000000 PUSH1 0x44 DUP3 ADD MSTORE PUSH1 0x64 ADD PUSH2 0x8DF JUMP JUMPDEST PUSH1 0x1 PUSH1 0x1 PUSH1 0xA0 SHL SUB DUP3 AND PUSH0 DUP2 DUP2 MSTORE PUSH1 0x4 PUSH1 0x20 MSTORE PUSH1 0x40 DUP1 DUP3 KECCAK256 DUP1 SLOAD PUSH1 0xFF NOT AND SWAP1 SSTORE MLOAD PUSH32 0x7A9F1E23D5426B34819D173153D59084CC3578D5A129B80BB27DF683AC6B2278 SWAP2 SWAP1 LOG2 POP POP JUMP JUMPDEST PUSH1 0x60 PUSH0 PUSH2 0x16A1 PUSH1 0x2 SLOAD SWAP1 JUMP JUMPDEST SWAP1 POP PUSH0 PUSH1 0x1 JUMPDEST DUP3 DUP2 GT PUSH2 0x174B JUMPI DUP5 PUSH1 0x40 MLOAD PUSH1 0x20 ADD PUSH2 0x16BF SWAP2 SWAP1 PUSH2 0x305E JUMP JUMPDEST PUSH1 0x40 DUP1 MLOAD PUSH1 0x1F NOT DUP2 DUP5 SUB ADD DUP2 MSTORE DUP3 DUP3 MSTORE DUP1 MLOAD PUSH1 0x20 SWAP2 DUP3 ADD KECCAK256 PUSH0 DUP6 DUP2 MSTORE PUSH1 0x3 DUP4 MSTORE SWAP3 SWAP1 SWAP3 KECCAK256 SWAP2 SWAP3 PUSH2 0x16F3 SWAP3 PUSH1 0x7 ADD SWAP2 ADD PUSH2 0x3069 JUMP JUMPDEST PUSH1 0x40 MLOAD PUSH1 0x20 DUP2 DUP4 SUB SUB DUP2 MSTORE SWAP1 PUSH1 0x40 MSTORE DUP1 MLOAD SWAP1 PUSH1 0x20 ADD KECCAK256 EQ DUP1 ISZERO PUSH2 0x1726 JUMPI POP PUSH0 DUP2 DUP2 MSTORE PUSH1 0x3 PUSH1 0x20 MSTORE PUSH1 0x40 SWAP1 KECCAK256 PUSH1 0x6 ADD SLOAD PUSH1 0xFF AND JUMPDEST ISZERO PUSH2 0x1739 JUMPI DUP2 PUSH2 0x1735 DUP2 PUSH2 0x2D8C JUMP JUMPDEST SWAP3 POP POP JUMPDEST DUP1 PUSH2 0x1743 DUP2 PUSH2 0x2D8C JUMP JUMPDEST SWAP2 POP POP PUSH2 0x16A7 JUMP JUMPDEST POP PUSH0 DUP2 PUSH8 0xFFFFFFFFFFFFFFFF DUP2 GT ISZERO PUSH2 0x1766 JUMPI PUSH2 0x1766 PUSH2 0x296D JUMP JUMPDEST PUSH1 0x40 MLOAD SWAP1 DUP1 DUP3 MSTORE DUP1 PUSH1 0x20 MUL PUSH1 0x20 ADD DUP3 ADD PUSH1 0x40 MSTORE DUP1 ISZERO PUSH2 0x179F JUMPI DUP2 PUSH1 0x20 ADD JUMPDEST PUSH2 0x178C PUSH2 0x27ED JUMP JUMPDEST DUP2 MSTORE PUSH1 0x20 ADD SWAP1 PUSH1 0x1 SWAP1 SUB SWAP1 DUP2 PUSH2 0x1784 JUMPI SWAP1 POP JUMPDEST POP SWAP1 POP PUSH0 PUSH1 0x1 JUMPDEST DUP5 DUP2 GT PUSH2 0x15A4 JUMPI DUP7 PUSH1 0x40 MLOAD PUSH1 0x20 ADD PUSH2 0x17BE SWAP2 SWAP1 PUSH2 0x305E JUMP JUMPDEST PUSH1 0x40 DUP1 MLOAD PUSH1 0x1F NOT DUP2 DUP5 SUB ADD DUP2 MSTORE DUP3 DUP3 MSTORE DUP1 MLOAD PUSH1 0x20 SWAP2 DUP3 ADD KECCAK256 PUSH0 DUP6 DUP2 MSTORE PUSH1 0x3 DUP4 MSTORE SWAP3 SWAP1 SWAP3 KECCAK256 SWAP2 SWAP3 PUSH2 0x17F2 SWAP3 PUSH1 0x7 ADD SWAP2 ADD PUSH2 0x3069 JUMP JUMPDEST PUSH1 0x40 MLOAD PUSH1 0x20 DUP2 DUP4 SUB SUB DUP2 MSTORE SWAP1 PUSH1 0x40 MSTORE DUP1 MLOAD SWAP1 PUSH1 0x20 ADD KECCAK256 EQ DUP1 ISZERO PUSH2 0x1825 JUMPI POP PUSH0 DUP2 DUP2 MSTORE PUSH1 0x3 PUSH1 0x20 MSTORE PUSH1 0x40 SWAP1 KECCAK256 PUSH1 0x6 ADD SLOAD PUSH1 0xFF AND JUMPDEST ISZERO PUSH2 0x1963 JUMPI PUSH0 DUP2 DUP2 MSTORE PUSH1 0x3 PUSH1 0x20 DUP2 DUP2 MSTORE PUSH1 0x40 SWAP3 DUP4 SWAP1 KECCAK256 DUP4 MLOAD PUSH2 0x120 DUP2 ADD DUP6 MSTORE DUP2 SLOAD PUSH1 0x1 PUSH1 0x1 PUSH1 0xA0 SHL SUB SWAP1 DUP2 AND DUP3 MSTORE PUSH1 0x1 DUP4 ADD SLOAD SWAP4 DUP3 ADD SWAP4 SWAP1 SWAP4 MSTORE PUSH1 0x2 DUP3 ADD SLOAD SWAP5 DUP2 ADD SWAP5 SWAP1 SWAP5 MSTORE SWAP2 DUP3 ADD SLOAD PUSH1 0x60 DUP5 ADD MSTORE PUSH1 0x4 DUP3 ADD SLOAD AND PUSH1 0x80 DUP4 ADD MSTORE PUSH1 0x5 DUP2 ADD SLOAD PUSH1 0xA0 DUP4 ADD MSTORE PUSH1 0x6 DUP2 ADD SLOAD PUSH1 0xFF AND ISZERO ISZERO PUSH1 0xC0 DUP4 ADD MSTORE PUSH1 0x7 DUP2 ADD DUP1 SLOAD PUSH1 0xE0 DUP5 ADD SWAP2 SWAP1 PUSH2 0x18AD SWAP1 PUSH2 0x2EB0 JUMP JUMPDEST DUP1 PUSH1 0x1F ADD PUSH1 0x20 DUP1 SWAP2 DIV MUL PUSH1 0x20 ADD PUSH1 0x40 MLOAD SWAP1 DUP2 ADD PUSH1 0x40 MSTORE DUP1 SWAP3 SWAP2 SWAP1 DUP2 DUP2 MSTORE PUSH1 0x20 ADD DUP3 DUP1 SLOAD PUSH2 0x18D9 SWAP1 PUSH2 0x2EB0 JUMP JUMPDEST DUP1 ISZERO PUSH2 0x1924 JUMPI DUP1 PUSH1 0x1F LT PUSH2 0x18FB JUMPI PUSH2 0x100 DUP1 DUP4 SLOAD DIV MUL DUP4 MSTORE SWAP2 PUSH1 0x20 ADD SWAP2 PUSH2 0x1924 JUMP JUMPDEST DUP3 ADD SWAP2 SWAP1 PUSH0 MSTORE PUSH1 0x20 PUSH0 KECCAK256 SWAP1 JUMPDEST DUP2 SLOAD DUP2 MSTORE SWAP1 PUSH1 0x1 ADD SWAP1 PUSH1 0x20 ADD DUP1 DUP4 GT PUSH2 0x1907 JUMPI DUP3 SWAP1 SUB PUSH1 0x1F AND DUP3 ADD SWAP2 JUMPDEST POP POP POP POP POP DUP2 MSTORE PUSH1 0x20 ADD PUSH1 0x8 DUP3 ADD SLOAD DUP2 MSTORE POP POP DUP4 DUP4 DUP2 MLOAD DUP2 LT PUSH2 0x1949 JUMPI PUSH2 0x1949 PUSH2 0x3033 JUMP JUMPDEST PUSH1 0x20 MUL PUSH1 0x20 ADD ADD DUP2 SWAP1 MSTORE POP DUP2 DUP1 PUSH2 0x195F SWAP1 PUSH2 0x2D8C JUMP JUMPDEST SWAP3 POP POP JUMPDEST DUP1 PUSH2 0x196D DUP2 PUSH2 0x2D8C JUMP JUMPDEST SWAP2 POP POP PUSH2 0x17A6 JUMP JUMPDEST PUSH0 SWAP2 DUP3 MSTORE PUSH0 DUP1 MLOAD PUSH1 0x20 PUSH2 0x315A DUP4 CODECOPY DUP2 MLOAD SWAP2 MSTORE PUSH1 0x20 SWAP1 DUP2 MSTORE PUSH1 0x40 DUP1 DUP5 KECCAK256 PUSH1 0x1 PUSH1 0x1 PUSH1 0xA0 SHL SUB SWAP4 SWAP1 SWAP4 AND DUP5 MSTORE SWAP2 SWAP1 MSTORE SWAP1 KECCAK256 SLOAD PUSH1 0xFF AND SWAP1 JUMP JUMPDEST PUSH2 0x19B3 PUSH2 0x20E1 JUMP JUMPDEST PUSH0 DUP6 GT PUSH2 0x19D2 JUMPI PUSH1 0x40 MLOAD PUSH3 0x461BCD PUSH1 0xE5 SHL DUP2 MSTORE PUSH1 0x4 ADD PUSH2 0x8DF SWAP1 PUSH2 0x2DCE JUMP JUMPDEST PUSH0 DUP5 GT PUSH2 0x1A30 JUMPI PUSH1 0x40 MLOAD PUSH3 0x461BCD PUSH1 0xE5 SHL DUP2 MSTORE PUSH1 0x20 PUSH1 0x4 DUP3 ADD MSTORE PUSH1 0x26 PUSH1 0x24 DUP3 ADD MSTORE PUSH32 0x5374617274696E6720626964206D757374206265206772656174657220746861 PUSH1 0x44 DUP3 ADD MSTORE PUSH6 0x6E207A65726F PUSH1 0xD0 SHL PUSH1 0x64 DUP3 ADD MSTORE PUSH1 0x84 ADD PUSH2 0x8DF JUMP JUMPDEST TIMESTAMP DUP3 GT PUSH2 0x1A4F JUMPI PUSH1 0x40 MLOAD PUSH3 0x461BCD PUSH1 0xE5 SHL DUP2 MSTORE PUSH1 0x4 ADD PUSH2 0x8DF SWAP1 PUSH2 0x2E10 JUMP JUMPDEST PUSH0 SLOAD PUSH1 0x40 MLOAD PUSH4 0x31A9108F PUSH1 0xE1 SHL DUP2 MSTORE PUSH1 0x4 DUP2 ADD DUP9 SWAP1 MSTORE CALLER SWAP2 PUSH1 0x1 PUSH1 0x1 PUSH1 0xA0 SHL SUB AND SWAP1 PUSH4 0x6352211E SWAP1 PUSH1 0x24 ADD PUSH1 0x20 PUSH1 0x40 MLOAD DUP1 DUP4 SUB DUP2 DUP7 GAS STATICCALL ISZERO DUP1 ISZERO PUSH2 0x1A95 JUMPI RETURNDATASIZE PUSH0 DUP1 RETURNDATACOPY RETURNDATASIZE PUSH0 REVERT JUMPDEST POP POP POP POP PUSH1 0x40 MLOAD RETURNDATASIZE PUSH1 0x1F NOT PUSH1 0x1F DUP3 ADD AND DUP3 ADD DUP1 PUSH1 0x40 MSTORE POP DUP2 ADD SWAP1 PUSH2 0x1AB9 SWAP2 SWAP1 PUSH2 0x2E47 JUMP JUMPDEST PUSH1 0x1 PUSH1 0x1 PUSH1 0xA0 SHL SUB AND EQ DUP1 PUSH2 0x1B3B JUMPI POP PUSH1 0x1 SLOAD PUSH1 0x40 MLOAD PUSH3 0x7EEAC7 PUSH1 0xE1 SHL DUP2 MSTORE CALLER PUSH1 0x4 DUP3 ADD MSTORE PUSH1 0x24 DUP2 ADD DUP9 SWAP1 MSTORE DUP7 SWAP2 PUSH1 0x1 PUSH1 0x1 PUSH1 0xA0 SHL SUB AND SWAP1 PUSH3 0xFDD58E SWAP1 PUSH1 0x44 ADD PUSH1 0x20 PUSH1 0x40 MLOAD DUP1 DUP4 SUB DUP2 DUP7 GAS STATICCALL ISZERO DUP1 ISZERO PUSH2 0x1B14 JUMPI RETURNDATASIZE PUSH0 DUP1 RETURNDATACOPY RETURNDATASIZE PUSH0 REVERT JUMPDEST POP POP POP POP PUSH1 0x40 MLOAD RETURNDATASIZE PUSH1 0x1F NOT PUSH1 0x1F DUP3 ADD AND DUP3 ADD DUP1 PUSH1 0x40 MSTORE POP DUP2 ADD SWAP1 PUSH2 0x1B38 SWAP2 SWAP1 PUSH2 0x2E62 JUMP JUMPDEST LT ISZERO JUMPDEST PUSH2 0x1B57 JUMPI PUSH1 0x40 MLOAD PUSH3 0x461BCD PUSH1 0xE5 SHL DUP2 MSTORE PUSH1 0x4 ADD PUSH2 0x8DF SWAP1 PUSH2 0x2E79 JUMP JUMPDEST PUSH2 0x1B65 PUSH1 0x2 DUP1 SLOAD PUSH1 0x1 ADD SWAP1 SSTORE JUMP JUMPDEST PUSH0 PUSH2 0x1B6F PUSH1 0x2 SLOAD SWAP1 JUMP JUMPDEST PUSH1 0x40 DUP1 MLOAD PUSH2 0x120 DUP2 ADD DUP3 MSTORE CALLER DUP2 MSTORE PUSH1 0x20 DUP1 DUP3 ADD DUP12 DUP2 MSTORE DUP3 DUP5 ADD DUP12 DUP2 MSTORE PUSH1 0x60 DUP5 ADD DUP12 DUP2 MSTORE PUSH1 0x1 PUSH1 0x1 PUSH1 0xA0 SHL SUB DUP12 DUP2 AND PUSH1 0x80 DUP8 ADD SWAP1 DUP2 MSTORE PUSH1 0xA0 DUP8 ADD DUP13 DUP2 MSTORE PUSH1 0x1 PUSH1 0xC0 DUP10 ADD DUP2 DUP2 MSTORE DUP11 MLOAD DUP1 DUP13 ADD DUP13 MSTORE PUSH1 0x7 DUP1 DUP3 MSTORE PUSH7 0x30BAB1BA34B7B7 PUSH1 0xC9 SHL DUP3 DUP13 ADD MSTORE PUSH1 0xE0 DUP13 ADD SWAP2 DUP3 MSTORE PUSH0 PUSH2 0x100 DUP14 ADD DUP2 SWAP1 MSTORE DUP15 DUP2 MSTORE PUSH1 0x3 SWAP12 DUP13 SWAP1 MSTORE SWAP13 SWAP1 SWAP13 KECCAK256 DUP12 MLOAD DUP2 SLOAD SWAP1 DUP9 AND PUSH1 0x1 PUSH1 0x1 PUSH1 0xA0 SHL SUB NOT SWAP2 DUP3 AND OR DUP3 SSTORE SWAP10 MLOAD SWAP4 DUP2 ADD SWAP4 SWAP1 SWAP4 SSTORE SWAP7 MLOAD PUSH1 0x2 DUP4 ADD SSTORE SWAP5 MLOAD SWAP8 DUP2 ADD SWAP8 SWAP1 SWAP8 SSTORE SWAP1 MLOAD PUSH1 0x4 DUP8 ADD DUP1 SLOAD SWAP2 SWAP1 SWAP4 AND SWAP6 AND SWAP5 SWAP1 SWAP5 OR SWAP1 SSTORE SWAP2 MLOAD PUSH1 0x5 DUP5 ADD SSTORE SWAP1 MLOAD PUSH1 0x6 DUP4 ADD DUP1 SLOAD SWAP2 ISZERO ISZERO PUSH1 0xFF NOT SWAP3 SWAP1 SWAP3 AND SWAP2 SWAP1 SWAP2 OR SWAP1 SSTORE MLOAD SWAP4 SWAP5 POP SWAP1 SWAP3 SWAP1 SWAP2 DUP3 ADD SWAP1 PUSH2 0x1C63 SWAP1 DUP3 PUSH2 0x2F33 JUMP JUMPDEST POP PUSH2 0x100 SWAP2 DUP3 ADD MLOAD PUSH1 0x8 SWAP1 SWAP2 ADD SSTORE PUSH1 0x40 DUP1 MLOAD DUP9 DUP2 MSTORE PUSH1 0x20 DUP2 ADD DUP9 SWAP1 MSTORE PUSH1 0x1 PUSH1 0x1 PUSH1 0xA0 SHL SUB DUP8 AND SWAP2 DUP2 ADD SWAP2 SWAP1 SWAP2 MSTORE PUSH1 0x60 DUP2 ADD DUP6 SWAP1 MSTORE PUSH1 0xC0 PUSH1 0x80 DUP3 ADD DUP2 SWAP1 MSTORE PUSH1 0x7 SWAP1 DUP3 ADD MSTORE PUSH7 0x30BAB1BA34B7B7 PUSH1 0xC9 SHL PUSH1 0xE0 DUP3 ADD MSTORE PUSH0 PUSH1 0xA0 DUP3 ADD MSTORE DUP9 SWAP2 CALLER SWAP2 DUP5 SWAP2 PUSH32 0x8819D1124ACC09CE5B5CF394C0B293EFD960F2B029092396E244BEEA5ACAA849 SWAP2 ADD PUSH1 0x40 MLOAD DUP1 SWAP2 SUB SWAP1 LOG4 POP POP POP POP POP POP POP JUMP JUMPDEST PUSH0 SLOAD PUSH1 0x40 MLOAD PUSH4 0x31A9108F PUSH1 0xE1 SHL DUP2 MSTORE PUSH1 0x4 DUP2 ADD DUP5 SWAP1 MSTORE CALLER SWAP2 PUSH1 0x1 PUSH1 0x1 PUSH1 0xA0 SHL SUB AND SWAP1 PUSH4 0x6352211E SWAP1 PUSH1 0x24 ADD PUSH1 0x20 PUSH1 0x40 MLOAD DUP1 DUP4 SUB DUP2 DUP7 GAS STATICCALL ISZERO DUP1 ISZERO PUSH2 0x1D3C JUMPI RETURNDATASIZE PUSH0 DUP1 RETURNDATACOPY RETURNDATASIZE PUSH0 REVERT JUMPDEST POP POP POP POP PUSH1 0x40 MLOAD RETURNDATASIZE PUSH1 0x1F NOT PUSH1 0x1F DUP3 ADD AND DUP3 ADD DUP1 PUSH1 0x40 MSTORE POP DUP2 ADD SWAP1 PUSH2 0x1D60 SWAP2 SWAP1 PUSH2 0x2E47 JUMP JUMPDEST PUSH1 0x1 PUSH1 0x1 PUSH1 0xA0 SHL SUB AND EQ DUP1 PUSH2 0x1DE1 JUMPI POP PUSH1 0x1 SLOAD PUSH1 0x40 MLOAD PUSH3 0x7EEAC7 PUSH1 0xE1 SHL DUP2 MSTORE CALLER PUSH1 0x4 DUP3 ADD MSTORE PUSH1 0x24 DUP2 ADD DUP5 SWAP1 MSTORE PUSH0 SWAP2 PUSH1 0x1 PUSH1 0x1 PUSH1 0xA0 SHL SUB AND SWAP1 PUSH3 0xFDD58E SWAP1 PUSH1 0x44 ADD PUSH1 0x20 PUSH1 0x40 MLOAD DUP1 DUP4 SUB DUP2 DUP7 GAS STATICCALL ISZERO DUP1 ISZERO PUSH2 0x1DBB JUMPI RETURNDATASIZE PUSH0 DUP1 RETURNDATACOPY RETURNDATASIZE PUSH0 REVERT JUMPDEST POP POP POP POP PUSH1 0x40 MLOAD RETURNDATASIZE PUSH1 0x1F NOT PUSH1 0x1F DUP3 ADD AND DUP3 ADD DUP1 PUSH1 0x40 MSTORE POP DUP2 ADD SWAP1 PUSH2 0x1DDF SWAP2 SWAP1 PUSH2 0x2E62 JUMP JUMPDEST GT JUMPDEST PUSH2 0x1320 JUMPI PUSH1 0x40 MLOAD PUSH3 0x461BCD PUSH1 0xE5 SHL DUP2 MSTORE PUSH1 0x20 PUSH1 0x4 DUP3 ADD MSTORE PUSH1 0x17 PUSH1 0x24 DUP3 ADD MSTORE PUSH32 0x596F7520646F206E6F74206F776E20746865206974656D000000000000000000 PUSH1 0x44 DUP3 ADD MSTORE PUSH1 0x64 ADD PUSH2 0x8DF JUMP JUMPDEST PUSH0 DUP1 MLOAD PUSH1 0x20 PUSH2 0x30FA DUP4 CODECOPY DUP2 MLOAD SWAP2 MSTORE PUSH2 0x1E44 DUP2 PUSH2 0x20D7 JUMP JUMPDEST PUSH1 0x1 PUSH1 0x1 PUSH1 0xA0 SHL SUB DUP3 AND PUSH0 SWAP1 DUP2 MSTORE PUSH1 0x4 PUSH1 0x20 MSTORE PUSH1 0x40 SWAP1 KECCAK256 SLOAD PUSH1 0xFF AND ISZERO PUSH2 0x1EAC JUMPI PUSH1 0x40 MLOAD PUSH3 0x461BCD PUSH1 0xE5 SHL DUP2 MSTORE PUSH1 0x20 PUSH1 0x4 DUP3 ADD MSTORE PUSH1 0x18 PUSH1 0x24 DUP3 ADD MSTORE PUSH32 0x4D6F64657261746F7220616C7265616479206578697374730000000000000000 PUSH1 0x44 DUP3 ADD MSTORE PUSH1 0x64 ADD PUSH2 0x8DF JUMP JUMPDEST PUSH1 0x1 PUSH1 0x1 PUSH1 0xA0 SHL SUB DUP3 AND PUSH0 DUP2 DUP2 MSTORE PUSH1 0x4 PUSH1 0x20 MSTORE PUSH1 0x40 DUP1 DUP3 KECCAK256 DUP1 SLOAD PUSH1 0xFF NOT AND PUSH1 0x1 OR SWAP1 SSTORE MLOAD PUSH32 0xD378AD41C1A753FD1BA9EC0FCD7970526C175B68545B4A02D6D15E7606FE3596 SWAP2 SWAP1 LOG2 POP POP JUMP JUMPDEST PUSH0 DUP1 PUSH0 DUP1 PUSH2 0x1F05 PUSH1 0x2 SLOAD SWAP1 JUMP JUMPDEST SWAP4 POP PUSH0 DUP1 DUP1 DUP1 PUSH1 0x1 JUMPDEST DUP9 DUP2 GT PUSH2 0x1FBD JUMPI PUSH0 DUP2 DUP2 MSTORE PUSH1 0x3 PUSH1 0x20 MSTORE PUSH1 0x40 SWAP1 KECCAK256 PUSH1 0x6 ADD SLOAD PUSH1 0xFF AND ISZERO PUSH2 0x1F40 JUMPI DUP5 PUSH2 0x1F38 DUP2 PUSH2 0x2D8C JUMP JUMPDEST SWAP6 POP POP PUSH2 0x1FAB JUMP JUMPDEST DUP4 PUSH2 0x1F4A DUP2 PUSH2 0x2D8C JUMP JUMPDEST PUSH0 DUP4 DUP2 MSTORE PUSH1 0x3 PUSH1 0x20 SWAP1 DUP2 MSTORE PUSH1 0x40 DUP1 DUP4 KECCAK256 SLOAD PUSH1 0x1 PUSH1 0x1 PUSH1 0xA0 SHL SUB AND DUP4 MSTORE PUSH1 0x6 SWAP1 SWAP2 MSTORE SWAP1 KECCAK256 SLOAD SWAP1 SWAP6 POP DUP4 LT ISZERO SWAP1 POP PUSH2 0x1FAB JUMPI PUSH0 DUP2 DUP2 MSTORE PUSH1 0x3 PUSH1 0x20 DUP2 DUP2 MSTORE PUSH1 0x40 DUP1 DUP5 KECCAK256 SLOAD PUSH1 0x1 PUSH1 0x1 PUSH1 0xA0 SHL SUB AND DUP1 DUP6 MSTORE PUSH1 0x6 DUP4 MSTORE SWAP1 DUP5 KECCAK256 SLOAD SWAP4 DUP6 SWAP1 MSTORE SWAP2 SWAP1 MSTORE SWAP4 POP SWAP2 POP JUMPDEST DUP1 PUSH2 0x1FB5 DUP2 PUSH2 0x2D8C JUMP JUMPDEST SWAP2 POP POP PUSH2 0x1F0E JUMP JUMPDEST POP SWAP7 SWAP8 SWAP3 SWAP7 POP SWAP1 SWAP5 POP SWAP3 POP SWAP1 POP JUMP JUMPDEST PUSH2 0x1FD5 DUP3 PUSH2 0xB7A JUMP JUMPDEST PUSH2 0x1FDE DUP2 PUSH2 0x20D7 JUMP JUMPDEST PUSH2 0xBB6 DUP4 DUP4 PUSH2 0x2282 JUMP JUMPDEST PUSH0 PUSH1 0x1 PUSH1 0x1 PUSH1 0xE0 SHL SUB NOT DUP3 AND PUSH4 0x7965DB0B PUSH1 0xE0 SHL EQ DUP1 PUSH2 0x69C JUMPI POP PUSH4 0x1FFC9A7 PUSH1 0xE0 SHL PUSH1 0x1 PUSH1 0x1 PUSH1 0xE0 SHL SUB NOT DUP4 AND EQ PUSH2 0x69C JUMP JUMPDEST PUSH2 0x2024 PUSH2 0x254B JUMP JUMPDEST PUSH2 0x202C PUSH2 0x2594 JUMP JUMPDEST JUMP JUMPDEST PUSH2 0x202C PUSH2 0x254B JUMP JUMPDEST PUSH0 PUSH0 DUP1 MLOAD PUSH1 0x20 PUSH2 0x315A DUP4 CODECOPY DUP2 MLOAD SWAP2 MSTORE PUSH2 0x204F DUP5 DUP5 PUSH2 0x1975 JUMP JUMPDEST PUSH2 0x20CE JUMPI PUSH0 DUP5 DUP2 MSTORE PUSH1 0x20 DUP3 DUP2 MSTORE PUSH1 0x40 DUP1 DUP4 KECCAK256 PUSH1 0x1 PUSH1 0x1 PUSH1 0xA0 SHL SUB DUP8 AND DUP5 MSTORE SWAP1 SWAP2 MSTORE SWAP1 KECCAK256 DUP1 SLOAD PUSH1 0xFF NOT AND PUSH1 0x1 OR SWAP1 SSTORE PUSH2 0x2084 CALLER SWAP1 JUMP JUMPDEST PUSH1 0x1 PUSH1 0x1 PUSH1 0xA0 SHL SUB AND DUP4 PUSH1 0x1 PUSH1 0x1 PUSH1 0xA0 SHL SUB AND DUP6 PUSH32 0x2F8788117E7EFF1D82E926EC794901D17C78024A50270940304540A733656F0D PUSH1 0x40 MLOAD PUSH1 0x40 MLOAD DUP1 SWAP2 SUB SWAP1 LOG4 PUSH1 0x1 SWAP2 POP POP PUSH2 0x69C JUMP JUMPDEST PUSH0 SWAP2 POP POP PUSH2 0x69C JUMP JUMPDEST PUSH2 0x1012 DUP2 CALLER PUSH2 0x25B4 JUMP JUMPDEST PUSH0 DUP1 MLOAD PUSH1 0x20 PUSH2 0x317A DUP4 CODECOPY DUP2 MLOAD SWAP2 MSTORE SLOAD PUSH1 0xFF AND ISZERO PUSH2 0x202C JUMPI PUSH1 0x40 MLOAD PUSH4 0xD93C0665 PUSH1 0xE0 SHL DUP2 MSTORE PUSH1 0x4 ADD PUSH1 0x40 MLOAD DUP1 SWAP2 SUB SWAP1 REVERT JUMPDEST PUSH0 SLOAD PUSH1 0x40 MLOAD PUSH4 0x1FFC9A7 PUSH1 0xE0 SHL DUP2 MSTORE PUSH4 0x6CDB3D13 PUSH1 0xE1 SHL PUSH1 0x4 DUP3 ADD MSTORE PUSH1 0x1 PUSH1 0x1 PUSH1 0xA0 SHL SUB SWAP1 SWAP2 AND SWAP1 PUSH4 0x1FFC9A7 SWAP1 PUSH1 0x24 ADD PUSH1 0x20 PUSH1 0x40 MLOAD DUP1 DUP4 SUB DUP2 DUP7 GAS STATICCALL ISZERO DUP1 ISZERO PUSH2 0x215D JUMPI RETURNDATASIZE PUSH0 DUP1 RETURNDATACOPY RETURNDATASIZE PUSH0 REVERT JUMPDEST POP POP POP POP PUSH1 0x40 MLOAD RETURNDATASIZE PUSH1 0x1F NOT PUSH1 0x1F DUP3 ADD AND DUP3 ADD DUP1 PUSH1 0x40 MSTORE POP DUP2 ADD SWAP1 PUSH2 0x2181 SWAP2 SWAP1 PUSH2 0x30DA JUMP JUMPDEST ISZERO PUSH2 0x2206 JUMPI PUSH1 0x1 SLOAD PUSH1 0x40 MLOAD PUSH4 0x79212195 PUSH1 0xE1 SHL DUP2 MSTORE CALLER PUSH1 0x4 DUP3 ADD MSTORE PUSH1 0x1 PUSH1 0x1 PUSH1 0xA0 SHL SUB DUP4 DUP2 AND PUSH1 0x24 DUP4 ADD MSTORE PUSH1 0x44 DUP3 ADD DUP7 SWAP1 MSTORE PUSH1 0x64 DUP3 ADD DUP6 SWAP1 MSTORE PUSH1 0xA0 PUSH1 0x84 DUP4 ADD MSTORE PUSH0 PUSH1 0xA4 DUP4 ADD MSTORE SWAP1 SWAP2 AND SWAP1 PUSH4 0xF242432A SWAP1 PUSH1 0xC4 ADD PUSH0 PUSH1 0x40 MLOAD DUP1 DUP4 SUB DUP2 PUSH0 DUP8 DUP1 EXTCODESIZE ISZERO DUP1 ISZERO PUSH2 0x21EB JUMPI PUSH0 DUP1 REVERT JUMPDEST POP GAS CALL ISZERO DUP1 ISZERO PUSH2 0x21FD JUMPI RETURNDATASIZE PUSH0 DUP1 RETURNDATACOPY RETURNDATASIZE PUSH0 REVERT JUMPDEST POP POP POP POP POP POP POP JUMP JUMPDEST PUSH0 JUMPDEST DUP3 DUP2 LT ISZERO PUSH2 0xBB6 JUMPI PUSH0 SLOAD PUSH1 0x40 MLOAD PUSH4 0x21421707 PUSH1 0xE1 SHL DUP2 MSTORE CALLER PUSH1 0x4 DUP3 ADD MSTORE PUSH1 0x1 PUSH1 0x1 PUSH1 0xA0 SHL SUB DUP5 DUP2 AND PUSH1 0x24 DUP4 ADD MSTORE PUSH1 0x44 DUP3 ADD DUP8 SWAP1 MSTORE SWAP1 SWAP2 AND SWAP1 PUSH4 0x42842E0E SWAP1 PUSH1 0x64 ADD PUSH0 PUSH1 0x40 MLOAD DUP1 DUP4 SUB DUP2 PUSH0 DUP8 DUP1 EXTCODESIZE ISZERO DUP1 ISZERO PUSH2 0x2260 JUMPI PUSH0 DUP1 REVERT JUMPDEST POP GAS CALL ISZERO DUP1 ISZERO PUSH2 0x2272 JUMPI RETURNDATASIZE PUSH0 DUP1 RETURNDATACOPY RETURNDATASIZE PUSH0 REVERT JUMPDEST POP POP PUSH1 0x1 SWAP1 SWAP3 ADD SWAP2 POP PUSH2 0x2208 SWAP1 POP JUMP JUMPDEST PUSH0 PUSH0 DUP1 MLOAD PUSH1 0x20 PUSH2 0x315A DUP4 CODECOPY DUP2 MLOAD SWAP2 MSTORE PUSH2 0x229B DUP5 DUP5 PUSH2 0x1975 JUMP JUMPDEST ISZERO PUSH2 0x20CE JUMPI PUSH0 DUP5 DUP2 MSTORE PUSH1 0x20 DUP3 DUP2 MSTORE PUSH1 0x40 DUP1 DUP4 KECCAK256 PUSH1 0x1 PUSH1 0x1 PUSH1 0xA0 SHL SUB DUP8 AND DUP1 DUP6 MSTORE SWAP3 MSTORE DUP1 DUP4 KECCAK256 DUP1 SLOAD PUSH1 0xFF NOT AND SWAP1 SSTORE MLOAD CALLER SWAP3 DUP8 SWAP2 PUSH32 0xF6391F5C32D9C69D2A47EA670B442974B53935D1EDC7FD64EB21E047A839171B SWAP2 SWAP1 LOG4 PUSH1 0x1 SWAP2 POP POP PUSH2 0x69C JUMP JUMPDEST PUSH2 0x2303 PUSH2 0x25ED JUMP JUMPDEST PUSH0 DUP1 MLOAD PUSH1 0x20 PUSH2 0x317A DUP4 CODECOPY DUP2 MLOAD SWAP2 MSTORE DUP1 SLOAD PUSH1 0xFF NOT AND DUP2 SSTORE PUSH32 0x5DB9EE0A495BF2E6FF9C91A7834C1BA4FDD244A5E8AA4E537BD38AEAE4B073AA CALLER JUMPDEST PUSH1 0x40 MLOAD PUSH1 0x1 PUSH1 0x1 PUSH1 0xA0 SHL SUB SWAP1 SWAP2 AND DUP2 MSTORE PUSH1 0x20 ADD PUSH1 0x40 MLOAD DUP1 SWAP2 SUB SWAP1 LOG1 POP JUMP JUMPDEST ADDRESS PUSH1 0x1 PUSH1 0x1 PUSH1 0xA0 SHL SUB PUSH32 0x0 AND EQ DUP1 PUSH2 0x23E0 JUMPI POP PUSH32 0x0 PUSH1 0x1 PUSH1 0x1 PUSH1 0xA0 SHL SUB AND PUSH2 0x23D4 PUSH0 DUP1 MLOAD PUSH1 0x20 PUSH2 0x311A DUP4 CODECOPY DUP2 MLOAD SWAP2 MSTORE SLOAD PUSH1 0x1 PUSH1 0x1 PUSH1 0xA0 SHL SUB AND SWAP1 JUMP JUMPDEST PUSH1 0x1 PUSH1 0x1 PUSH1 0xA0 SHL SUB AND EQ ISZERO JUMPDEST ISZERO PUSH2 0x202C JUMPI PUSH1 0x40 MLOAD PUSH4 0x703E46DD PUSH1 0xE1 SHL DUP2 MSTORE PUSH1 0x4 ADD PUSH1 0x40 MLOAD DUP1 SWAP2 SUB SWAP1 REVERT JUMPDEST DUP2 PUSH1 0x1 PUSH1 0x1 PUSH1 0xA0 SHL SUB AND PUSH4 0x52D1902D PUSH1 0x40 MLOAD DUP2 PUSH4 0xFFFFFFFF AND PUSH1 0xE0 SHL DUP2 MSTORE PUSH1 0x4 ADD PUSH1 0x20 PUSH1 0x40 MLOAD DUP1 DUP4 SUB DUP2 DUP7 GAS STATICCALL SWAP3 POP POP POP DUP1 ISZERO PUSH2 0x2458 JUMPI POP PUSH1 0x40 DUP1 MLOAD PUSH1 0x1F RETURNDATASIZE SWAP1 DUP2 ADD PUSH1 0x1F NOT AND DUP3 ADD SWAP1 SWAP3 MSTORE PUSH2 0x2455 SWAP2 DUP2 ADD SWAP1 PUSH2 0x2E62 JUMP JUMPDEST PUSH1 0x1 JUMPDEST PUSH2 0x2480 JUMPI PUSH1 0x40 MLOAD PUSH4 0x4C9C8CE3 PUSH1 0xE0 SHL DUP2 MSTORE PUSH1 0x1 PUSH1 0x1 PUSH1 0xA0 SHL SUB DUP4 AND PUSH1 0x4 DUP3 ADD MSTORE PUSH1 0x24 ADD PUSH2 0x8DF JUMP JUMPDEST PUSH0 DUP1 MLOAD PUSH1 0x20 PUSH2 0x311A DUP4 CODECOPY DUP2 MLOAD SWAP2 MSTORE DUP2 EQ PUSH2 0x24B0 JUMPI PUSH1 0x40 MLOAD PUSH4 0x2A875269 PUSH1 0xE2 SHL DUP2 MSTORE PUSH1 0x4 DUP2 ADD DUP3 SWAP1 MSTORE PUSH1 0x24 ADD PUSH2 0x8DF JUMP JUMPDEST PUSH2 0xCFD DUP4 DUP4 PUSH2 0x261C JUMP JUMPDEST ADDRESS PUSH1 0x1 PUSH1 0x1 PUSH1 0xA0 SHL SUB PUSH32 0x0 AND EQ PUSH2 0x202C JUMPI PUSH1 0x40 MLOAD PUSH4 0x703E46DD PUSH1 0xE1 SHL DUP2 MSTORE PUSH1 0x4 ADD PUSH1 0x40 MLOAD DUP1 SWAP2 SUB SWAP1 REVERT JUMPDEST PUSH2 0x250B PUSH2 0x20E1 JUMP JUMPDEST PUSH0 DUP1 MLOAD PUSH1 0x20 PUSH2 0x317A DUP4 CODECOPY DUP2 MLOAD SWAP2 MSTORE DUP1 SLOAD PUSH1 0xFF NOT AND PUSH1 0x1 OR DUP2 SSTORE PUSH32 0x62E78CEA01BEE320CD4E420270B5EA74000D11B0C9F74754EBDBFC544B05A258 CALLER PUSH2 0x233C JUMP JUMPDEST PUSH32 0xF0C57E16840DF040F15088DC2F81FE391C3923BEC73E23A9662EFC9C229C6A00 SLOAD PUSH1 0x1 PUSH1 0x40 SHL SWAP1 DIV PUSH1 0xFF AND PUSH2 0x202C JUMPI PUSH1 0x40 MLOAD PUSH4 0x1AFCD79F PUSH1 0xE3 SHL DUP2 MSTORE PUSH1 0x4 ADD PUSH1 0x40 MLOAD DUP1 SWAP2 SUB SWAP1 REVERT JUMPDEST PUSH2 0x259C PUSH2 0x254B JUMP JUMPDEST PUSH0 DUP1 MLOAD PUSH1 0x20 PUSH2 0x317A DUP4 CODECOPY DUP2 MLOAD SWAP2 MSTORE DUP1 SLOAD PUSH1 0xFF NOT AND SWAP1 SSTORE JUMP JUMPDEST PUSH2 0x25BE DUP3 DUP3 PUSH2 0x1975 JUMP JUMPDEST PUSH2 0x1320 JUMPI PUSH1 0x40 MLOAD PUSH4 0xE2517D3F PUSH1 0xE0 SHL DUP2 MSTORE PUSH1 0x1 PUSH1 0x1 PUSH1 0xA0 SHL SUB DUP3 AND PUSH1 0x4 DUP3 ADD MSTORE PUSH1 0x24 DUP2 ADD DUP4 SWAP1 MSTORE PUSH1 0x44 ADD PUSH2 0x8DF JUMP JUMPDEST PUSH0 DUP1 MLOAD PUSH1 0x20 PUSH2 0x317A DUP4 CODECOPY DUP2 MLOAD SWAP2 MSTORE SLOAD PUSH1 0xFF AND PUSH2 0x202C JUMPI PUSH1 0x40 MLOAD PUSH4 0x8DFC202B PUSH1 0xE0 SHL DUP2 MSTORE PUSH1 0x4 ADD PUSH1 0x40 MLOAD DUP1 SWAP2 SUB SWAP1 REVERT JUMPDEST PUSH2 0x2625 DUP3 PUSH2 0x2671 JUMP JUMPDEST PUSH1 0x40 MLOAD PUSH1 0x1 PUSH1 0x1 PUSH1 0xA0 SHL SUB DUP4 AND SWAP1 PUSH32 0xBC7CD75A20EE27FD9ADEBAB32041F755214DBC6BFFA90CC0225B39DA2E5C2D3B SWAP1 PUSH0 SWAP1 LOG2 DUP1 MLOAD ISZERO PUSH2 0x2669 JUMPI PUSH2 0xCFD DUP3 DUP3 PUSH2 0x26D4 JUMP JUMPDEST PUSH2 0x1320 PUSH2 0x2746 JUMP JUMPDEST DUP1 PUSH1 0x1 PUSH1 0x1 PUSH1 0xA0 SHL SUB AND EXTCODESIZE PUSH0 SUB PUSH2 0x26A6 JUMPI PUSH1 0x40 MLOAD PUSH4 0x4C9C8CE3 PUSH1 0xE0 SHL DUP2 MSTORE PUSH1 0x1 PUSH1 0x1 PUSH1 0xA0 SHL SUB DUP3 AND PUSH1 0x4 DUP3 ADD MSTORE PUSH1 0x24 ADD PUSH2 0x8DF JUMP JUMPDEST PUSH0 DUP1 MLOAD PUSH1 0x20 PUSH2 0x311A DUP4 CODECOPY DUP2 MLOAD SWAP2 MSTORE DUP1 SLOAD PUSH1 0x1 PUSH1 0x1 PUSH1 0xA0 SHL SUB NOT AND PUSH1 0x1 PUSH1 0x1 PUSH1 0xA0 SHL SUB SWAP3 SWAP1 SWAP3 AND SWAP2 SWAP1 SWAP2 OR SWAP1 SSTORE JUMP JUMPDEST PUSH1 0x60 PUSH0 DUP1 DUP5 PUSH1 0x1 PUSH1 0x1 PUSH1 0xA0 SHL SUB AND DUP5 PUSH1 0x40 MLOAD PUSH2 0x26F0 SWAP2 SWAP1 PUSH2 0x305E JUMP JUMPDEST PUSH0 PUSH1 0x40 MLOAD DUP1 DUP4 SUB DUP2 DUP6 GAS DELEGATECALL SWAP2 POP POP RETURNDATASIZE DUP1 PUSH0 DUP2 EQ PUSH2 0x2728 JUMPI PUSH1 0x40 MLOAD SWAP2 POP PUSH1 0x1F NOT PUSH1 0x3F RETURNDATASIZE ADD AND DUP3 ADD PUSH1 0x40 MSTORE RETURNDATASIZE DUP3 MSTORE RETURNDATASIZE PUSH0 PUSH1 0x20 DUP5 ADD RETURNDATACOPY PUSH2 0x272D JUMP JUMPDEST PUSH1 0x60 SWAP2 POP JUMPDEST POP SWAP2 POP SWAP2 POP PUSH2 0x273D DUP6 DUP4 DUP4 PUSH2 0x2765 JUMP JUMPDEST SWAP6 SWAP5 POP POP POP POP POP JUMP JUMPDEST CALLVALUE ISZERO PUSH2 0x202C JUMPI PUSH1 0x40 MLOAD PUSH4 0xB398979F PUSH1 0xE0 SHL DUP2 MSTORE PUSH1 0x4 ADD PUSH1 0x40 MLOAD DUP1 SWAP2 SUB SWAP1 REVERT JUMPDEST PUSH1 0x60 DUP3 PUSH2 0x277A JUMPI PUSH2 0x2775 DUP3 PUSH2 0x27C4 JUMP JUMPDEST PUSH2 0x27BD JUMP JUMPDEST DUP2 MLOAD ISZERO DUP1 ISZERO PUSH2 0x2791 JUMPI POP PUSH1 0x1 PUSH1 0x1 PUSH1 0xA0 SHL SUB DUP5 AND EXTCODESIZE ISZERO JUMPDEST ISZERO PUSH2 0x27BA JUMPI PUSH1 0x40 MLOAD PUSH4 0x9996B315 PUSH1 0xE0 SHL DUP2 MSTORE PUSH1 0x1 PUSH1 0x1 PUSH1 0xA0 SHL SUB DUP6 AND PUSH1 0x4 DUP3 ADD MSTORE PUSH1 0x24 ADD PUSH2 0x8DF JUMP JUMPDEST POP DUP1 JUMPDEST SWAP4 SWAP3 POP POP POP JUMP JUMPDEST DUP1 MLOAD ISZERO PUSH2 0x27D4 JUMPI DUP1 MLOAD DUP1 DUP3 PUSH1 0x20 ADD REVERT JUMPDEST PUSH1 0x40 MLOAD PUSH4 0xA12F521 PUSH1 0xE1 SHL DUP2 MSTORE PUSH1 0x4 ADD PUSH1 0x40 MLOAD DUP1 SWAP2 SUB SWAP1 REVERT JUMPDEST PUSH1 0x40 MLOAD DUP1 PUSH2 0x120 ADD PUSH1 0x40 MSTORE DUP1 PUSH0 PUSH1 0x1 PUSH1 0x1 PUSH1 0xA0 SHL SUB AND DUP2 MSTORE PUSH1 0x20 ADD PUSH0 DUP2 MSTORE PUSH1 0x20 ADD PUSH0 DUP2 MSTORE PUSH1 0x20 ADD PUSH0 DUP2 MSTORE PUSH1 0x20 ADD PUSH0 PUSH1 0x1 PUSH1 0x1 PUSH1 0xA0 SHL SUB AND DUP2 MSTORE PUSH1 0x20 ADD PUSH0 DUP2 MSTORE PUSH1 0x20 ADD PUSH0 ISZERO ISZERO DUP2 MSTORE PUSH1 0x20 ADD PUSH1 0x60 DUP2 MSTORE PUSH1 0x20 ADD PUSH0 DUP2 MSTORE POP SWAP1 JUMP JUMPDEST PUSH0 PUSH1 0x20 DUP3 DUP5 SUB SLT ISZERO PUSH2 0x2855 JUMPI PUSH0 DUP1 REVERT JUMPDEST DUP2 CALLDATALOAD PUSH1 0x1 PUSH1 0x1 PUSH1 0xE0 SHL SUB NOT DUP2 AND DUP2 EQ PUSH2 0x27BD JUMPI PUSH0 DUP1 REVERT JUMPDEST PUSH1 0x1 PUSH1 0x1 PUSH1 0xA0 SHL SUB DUP2 AND DUP2 EQ PUSH2 0x1012 JUMPI PUSH0 DUP1 REVERT JUMPDEST PUSH0 DUP1 PUSH0 DUP1 PUSH0 PUSH1 0xA0 DUP7 DUP9 SUB SLT ISZERO PUSH2 0x2894 JUMPI PUSH0 DUP1 REVERT JUMPDEST DUP6 CALLDATALOAD PUSH2 0x289F DUP2 PUSH2 0x286C JUMP JUMPDEST SWAP5 POP PUSH1 0x20 DUP7 ADD CALLDATALOAD PUSH2 0x28AF DUP2 PUSH2 0x286C JUMP JUMPDEST SWAP4 POP PUSH1 0x40 DUP7 ADD CALLDATALOAD PUSH2 0x28BF DUP2 PUSH2 0x286C JUMP JUMPDEST SWAP3 POP PUSH1 0x60 DUP7 ADD CALLDATALOAD PUSH2 0x28CF DUP2 PUSH2 0x286C JUMP JUMPDEST SWAP2 POP PUSH1 0x80 DUP7 ADD CALLDATALOAD PUSH2 0x28DF DUP2 PUSH2 0x286C JUMP JUMPDEST DUP1 SWAP2 POP POP SWAP3 SWAP6 POP SWAP3 SWAP6 SWAP1 SWAP4 POP JUMP JUMPDEST PUSH0 PUSH1 0x20 DUP3 DUP5 SUB SLT ISZERO PUSH2 0x28FD JUMPI PUSH0 DUP1 REVERT JUMPDEST DUP2 CALLDATALOAD PUSH2 0x27BD DUP2 PUSH2 0x286C JUMP JUMPDEST PUSH0 DUP1 PUSH1 0x40 DUP4 DUP6 SUB SLT ISZERO PUSH2 0x2919 JUMPI PUSH0 DUP1 REVERT JUMPDEST POP POP DUP1 CALLDATALOAD SWAP3 PUSH1 0x20 SWAP1 SWAP2 ADD CALLDATALOAD SWAP2 POP JUMP JUMPDEST PUSH0 PUSH1 0x20 DUP3 DUP5 SUB SLT ISZERO PUSH2 0x2938 JUMPI PUSH0 DUP1 REVERT JUMPDEST POP CALLDATALOAD SWAP2 SWAP1 POP JUMP JUMPDEST PUSH0 DUP1 PUSH1 0x40 DUP4 DUP6 SUB SLT ISZERO PUSH2 0x2950 JUMPI PUSH0 DUP1 REVERT JUMPDEST DUP3 CALLDATALOAD SWAP2 POP PUSH1 0x20 DUP4 ADD CALLDATALOAD PUSH2 0x2962 DUP2 PUSH2 0x286C JUMP JUMPDEST DUP1 SWAP2 POP POP SWAP3 POP SWAP3 SWAP1 POP JUMP JUMPDEST PUSH4 0x4E487B71 PUSH1 0xE0 SHL PUSH0 MSTORE PUSH1 0x41 PUSH1 0x4 MSTORE PUSH1 0x24 PUSH0 REVERT JUMPDEST PUSH0 DUP1 PUSH8 0xFFFFFFFFFFFFFFFF DUP5 GT ISZERO PUSH2 0x299B JUMPI PUSH2 0x299B PUSH2 0x296D JUMP JUMPDEST POP PUSH1 0x40 MLOAD PUSH1 0x1F NOT PUSH1 0x1F DUP6 ADD DUP2 AND PUSH1 0x3F ADD AND DUP2 ADD DUP2 DUP2 LT PUSH8 0xFFFFFFFFFFFFFFFF DUP3 GT OR ISZERO PUSH2 0x29CA JUMPI PUSH2 0x29CA PUSH2 0x296D JUMP JUMPDEST PUSH1 0x40 MSTORE DUP4 DUP2 MSTORE SWAP1 POP DUP1 DUP3 DUP5 ADD DUP6 LT ISZERO PUSH2 0x29E1 JUMPI PUSH0 DUP1 REVERT JUMPDEST DUP4 DUP4 PUSH1 0x20 DUP4 ADD CALLDATACOPY PUSH0 PUSH1 0x20 DUP6 DUP4 ADD ADD MSTORE POP SWAP4 SWAP3 POP POP POP JUMP JUMPDEST PUSH0 DUP3 PUSH1 0x1F DUP4 ADD SLT PUSH2 0x2A07 JUMPI PUSH0 DUP1 REVERT JUMPDEST PUSH2 0x27BD DUP4 DUP4 CALLDATALOAD PUSH1 0x20 DUP6 ADD PUSH2 0x2981 JUMP JUMPDEST PUSH0 DUP1 PUSH0 DUP1 PUSH0 DUP1 PUSH0 DUP1 PUSH2 0x100 DUP10 DUP12 SUB SLT ISZERO PUSH2 0x2A2E JUMPI PUSH0 DUP1 REVERT JUMPDEST DUP9 CALLDATALOAD SWAP8 POP PUSH1 0x20 DUP10 ADD CALLDATALOAD SWAP7 POP PUSH1 0x40 DUP10 ADD CALLDATALOAD SWAP6 POP PUSH1 0x60 DUP10 ADD CALLDATALOAD PUSH2 0x2A4E DUP2 PUSH2 0x286C JUMP JUMPDEST SWAP5 POP PUSH1 0x80 DUP10 ADD CALLDATALOAD SWAP4 POP PUSH1 0xA0 DUP10 ADD CALLDATALOAD PUSH2 0x2A65 DUP2 PUSH2 0x286C JUMP JUMPDEST SWAP3 POP PUSH1 0xC0 DUP10 ADD CALLDATALOAD PUSH8 0xFFFFFFFFFFFFFFFF DUP2 GT ISZERO PUSH2 0x2A80 JUMPI PUSH0 DUP1 REVERT JUMPDEST PUSH2 0x2A8C DUP12 DUP3 DUP13 ADD PUSH2 0x29F8 JUMP JUMPDEST SWAP9 SWAP12 SWAP8 SWAP11 POP SWAP6 SWAP9 SWAP5 SWAP8 SWAP4 SWAP7 SWAP3 SWAP6 POP SWAP3 SWAP4 PUSH1 0xE0 ADD CALLDATALOAD SWAP3 POP POP JUMP JUMPDEST PUSH0 DUP1 PUSH0 DUP1 PUSH0 DUP1 PUSH0 PUSH1 0xE0 DUP9 DUP11 SUB SLT ISZERO PUSH2 0x2ABB JUMPI PUSH0 DUP1 REVERT JUMPDEST DUP8 CALLDATALOAD SWAP7 POP PUSH1 0x20 DUP9 ADD CALLDATALOAD SWAP6 POP PUSH1 0x40 DUP9 ADD CALLDATALOAD SWAP5 POP PUSH1 0x60 DUP9 ADD CALLDATALOAD PUSH2 0x2ADB DUP2 PUSH2 0x286C JUMP JUMPDEST SWAP4 POP PUSH1 0x80 DUP9 ADD CALLDATALOAD SWAP3 POP PUSH1 0xA0 DUP9 ADD CALLDATALOAD PUSH8 0xFFFFFFFFFFFFFFFF DUP2 GT ISZERO PUSH2 0x2AFD JUMPI PUSH0 DUP1 REVERT JUMPDEST PUSH2 0x2B09 DUP11 DUP3 DUP12 ADD PUSH2 0x29F8 JUMP JUMPDEST SWAP8 SWAP11 SWAP7 SWAP10 POP SWAP5 SWAP8 SWAP4 SWAP7 SWAP3 SWAP6 SWAP3 SWAP5 POP POP POP PUSH1 0xC0 SWAP1 SWAP2 ADD CALLDATALOAD SWAP1 JUMP JUMPDEST PUSH0 DUP1 PUSH1 0x40 DUP4 DUP6 SUB SLT ISZERO PUSH2 0x2B33 JUMPI PUSH0 DUP1 REVERT JUMPDEST DUP3 CALLDATALOAD PUSH2 0x2B3E DUP2 PUSH2 0x286C JUMP JUMPDEST SWAP2 POP PUSH1 0x20 DUP4 ADD CALLDATALOAD PUSH8 0xFFFFFFFFFFFFFFFF DUP2 GT ISZERO PUSH2 0x2B59 JUMPI PUSH0 DUP1 REVERT JUMPDEST DUP4 ADD PUSH1 0x1F DUP2 ADD DUP6 SGT PUSH2 0x2B69 JUMPI PUSH0 DUP1 REVERT JUMPDEST PUSH2 0x2B78 DUP6 DUP3 CALLDATALOAD PUSH1 0x20 DUP5 ADD PUSH2 0x2981 JUMP JUMPDEST SWAP2 POP POP SWAP3 POP SWAP3 SWAP1 POP JUMP JUMPDEST PUSH0 DUP2 MLOAD DUP1 DUP5 MSTORE DUP1 PUSH1 0x20 DUP5 ADD PUSH1 0x20 DUP7 ADD MCOPY PUSH0 PUSH1 0x20 DUP3 DUP7 ADD ADD MSTORE PUSH1 0x20 PUSH1 0x1F NOT PUSH1 0x1F DUP4 ADD AND DUP6 ADD ADD SWAP2 POP POP SWAP3 SWAP2 POP POP JUMP JUMPDEST PUSH0 PUSH1 0x20 DUP3 ADD PUSH1 0x20 DUP4 MSTORE DUP1 DUP5 MLOAD DUP1 DUP4 MSTORE PUSH1 0x40 DUP6 ADD SWAP2 POP PUSH1 0x40 DUP2 PUSH1 0x5 SHL DUP7 ADD ADD SWAP3 POP PUSH1 0x20 DUP7 ADD PUSH0 JUMPDEST DUP3 DUP2 LT ISZERO PUSH2 0x2C8C JUMPI DUP7 DUP6 SUB PUSH1 0x3F NOT ADD DUP5 MSTORE DUP2 MLOAD DUP1 MLOAD PUSH1 0x1 PUSH1 0x1 PUSH1 0xA0 SHL SUB AND DUP7 MSTORE PUSH1 0x20 DUP2 ADD MLOAD PUSH1 0x20 DUP8 ADD MSTORE PUSH1 0x40 DUP2 ADD MLOAD PUSH1 0x40 DUP8 ADD MSTORE PUSH1 0x60 DUP2 ADD MLOAD PUSH1 0x60 DUP8 ADD MSTORE PUSH1 0x80 DUP2 ADD MLOAD PUSH2 0x2C2E PUSH1 0x80 DUP9 ADD DUP3 PUSH1 0x1 PUSH1 0x1 PUSH1 0xA0 SHL SUB AND SWAP1 MSTORE JUMP JUMPDEST POP PUSH1 0xA0 DUP2 ADD MLOAD PUSH1 0xA0 DUP8 ADD MSTORE PUSH1 0xC0 DUP2 ADD MLOAD PUSH2 0x2C4C PUSH1 0xC0 DUP9 ADD DUP3 ISZERO ISZERO SWAP1 MSTORE JUMP JUMPDEST POP PUSH1 0xE0 DUP2 ADD MLOAD PUSH2 0x120 PUSH1 0xE0 DUP9 ADD MSTORE PUSH2 0x2C68 PUSH2 0x120 DUP9 ADD DUP3 PUSH2 0x2B82 JUMP JUMPDEST PUSH2 0x100 SWAP3 DUP4 ADD MLOAD SWAP8 SWAP1 SWAP3 ADD SWAP7 SWAP1 SWAP7 MSTORE SWAP5 POP PUSH1 0x20 SWAP4 DUP5 ADD SWAP4 SWAP2 SWAP1 SWAP2 ADD SWAP1 PUSH1 0x1 ADD PUSH2 0x2BD6 JUMP JUMPDEST POP SWAP3 SWAP7 SWAP6 POP POP POP POP POP POP JUMP JUMPDEST PUSH0 PUSH1 0x20 DUP3 DUP5 SUB SLT ISZERO PUSH2 0x2CA8 JUMPI PUSH0 DUP1 REVERT JUMPDEST DUP2 CALLDATALOAD PUSH8 0xFFFFFFFFFFFFFFFF DUP2 GT ISZERO PUSH2 0x2CBE JUMPI PUSH0 DUP1 REVERT JUMPDEST PUSH2 0x2CCA DUP5 DUP3 DUP6 ADD PUSH2 0x29F8 JUMP JUMPDEST SWAP5 SWAP4 POP POP POP POP JUMP JUMPDEST PUSH0 DUP1 PUSH0 DUP1 PUSH0 DUP1 PUSH1 0xC0 DUP8 DUP10 SUB SLT ISZERO PUSH2 0x2CE7 JUMPI PUSH0 DUP1 REVERT JUMPDEST DUP7 CALLDATALOAD SWAP6 POP PUSH1 0x20 DUP8 ADD CALLDATALOAD SWAP5 POP PUSH1 0x40 DUP8 ADD CALLDATALOAD SWAP4 POP PUSH1 0x60 DUP8 ADD CALLDATALOAD PUSH2 0x2D07 DUP2 PUSH2 0x286C JUMP JUMPDEST SWAP3 POP PUSH1 0x80 DUP8 ADD CALLDATALOAD SWAP2 POP PUSH1 0xA0 DUP8 ADD CALLDATALOAD PUSH2 0x2D1E DUP2 PUSH2 0x286C JUMP JUMPDEST DUP1 SWAP2 POP POP SWAP3 SWAP6 POP SWAP3 SWAP6 POP SWAP3 SWAP6 JUMP JUMPDEST PUSH1 0x20 DUP2 MSTORE PUSH0 PUSH2 0x27BD PUSH1 0x20 DUP4 ADD DUP5 PUSH2 0x2B82 JUMP JUMPDEST PUSH0 DUP1 PUSH1 0x40 DUP4 DUP6 SUB SLT ISZERO PUSH2 0x2D4F JUMPI PUSH0 DUP1 REVERT JUMPDEST DUP3 CALLDATALOAD SWAP2 POP PUSH1 0x20 DUP4 ADD CALLDATALOAD PUSH8 0xFFFFFFFFFFFFFFFF DUP2 GT ISZERO PUSH2 0x2D6C JUMPI PUSH0 DUP1 REVERT JUMPDEST PUSH2 0x2B78 DUP6 DUP3 DUP7 ADD PUSH2 0x29F8 JUMP JUMPDEST PUSH4 0x4E487B71 PUSH1 0xE0 SHL PUSH0 MSTORE PUSH1 0x11 PUSH1 0x4 MSTORE PUSH1 0x24 PUSH0 REVERT JUMPDEST PUSH0 PUSH1 0x1 DUP3 ADD PUSH2 0x2D9D JUMPI PUSH2 0x2D9D PUSH2 0x2D78 JUMP JUMPDEST POP PUSH1 0x1 ADD SWAP1 JUMP JUMPDEST DUP1 DUP3 MUL DUP2 ISZERO DUP3 DUP3 DIV DUP5 EQ OR PUSH2 0x69C JUMPI PUSH2 0x69C PUSH2 0x2D78 JUMP JUMPDEST DUP2 DUP2 SUB DUP2 DUP2 GT ISZERO PUSH2 0x69C JUMPI PUSH2 0x69C PUSH2 0x2D78 JUMP JUMPDEST PUSH1 0x20 DUP1 DUP3 MSTORE PUSH1 0x22 SWAP1 DUP3 ADD MSTORE PUSH32 0x5175616E74697479206D7573742062652067726561746572207468616E207A65 PUSH1 0x40 DUP3 ADD MSTORE PUSH2 0x726F PUSH1 0xF0 SHL PUSH1 0x60 DUP3 ADD MSTORE PUSH1 0x80 ADD SWAP1 JUMP JUMPDEST PUSH1 0x20 DUP1 DUP3 MSTORE PUSH1 0x1E SWAP1 DUP3 ADD MSTORE PUSH32 0x456E642074696D65206D75737420626520696E20746865206675747572650000 PUSH1 0x40 DUP3 ADD MSTORE PUSH1 0x60 ADD SWAP1 JUMP JUMPDEST PUSH0 PUSH1 0x20 DUP3 DUP5 SUB SLT ISZERO PUSH2 0x2E57 JUMPI PUSH0 DUP1 REVERT JUMPDEST DUP2 MLOAD PUSH2 0x27BD DUP2 PUSH2 0x286C JUMP JUMPDEST PUSH0 PUSH1 0x20 DUP3 DUP5 SUB SLT ISZERO PUSH2 0x2E72 JUMPI PUSH0 DUP1 REVERT JUMPDEST POP MLOAD SWAP2 SWAP1 POP JUMP JUMPDEST PUSH1 0x20 DUP1 DUP3 MSTORE PUSH1 0x17 SWAP1 DUP3 ADD MSTORE PUSH32 0x596F7520646F206E6F74206F776E20746865204E465473000000000000000000 PUSH1 0x40 DUP3 ADD MSTORE PUSH1 0x60 ADD SWAP1 JUMP JUMPDEST PUSH1 0x1 DUP2 DUP2 SHR SWAP1 DUP3 AND DUP1 PUSH2 0x2EC4 JUMPI PUSH1 0x7F DUP3 AND SWAP2 POP JUMPDEST PUSH1 0x20 DUP3 LT DUP2 SUB PUSH2 0x2EE2 JUMPI PUSH4 0x4E487B71 PUSH1 0xE0 SHL PUSH0 MSTORE PUSH1 0x22 PUSH1 0x4 MSTORE PUSH1 0x24 PUSH0 REVERT JUMPDEST POP SWAP2 SWAP1 POP JUMP JUMPDEST PUSH1 0x1F DUP3 GT ISZERO PUSH2 0xCFD JUMPI DUP1 PUSH0 MSTORE PUSH1 0x20 PUSH0 KECCAK256 PUSH1 0x1F DUP5 ADD PUSH1 0x5 SHR DUP2 ADD PUSH1 0x20 DUP6 LT ISZERO PUSH2 0x2F0D JUMPI POP DUP1 JUMPDEST PUSH1 0x1F DUP5 ADD PUSH1 0x5 SHR DUP3 ADD SWAP2 POP JUMPDEST DUP2 DUP2 LT ISZERO PUSH2 0x2F2C JUMPI PUSH0 DUP2 SSTORE PUSH1 0x1 ADD PUSH2 0x2F19 JUMP JUMPDEST POP POP POP POP POP JUMP JUMPDEST DUP2 MLOAD PUSH8 0xFFFFFFFFFFFFFFFF DUP2 GT ISZERO PUSH2 0x2F4D JUMPI PUSH2 0x2F4D PUSH2 0x296D JUMP JUMPDEST PUSH2 0x2F61 DUP2 PUSH2 0x2F5B DUP5 SLOAD PUSH2 0x2EB0 JUMP JUMPDEST DUP5 PUSH2 0x2EE8 JUMP JUMPDEST PUSH1 0x20 PUSH1 0x1F DUP3 GT PUSH1 0x1 DUP2 EQ PUSH2 0x2F93 JUMPI PUSH0 DUP4 ISZERO PUSH2 0x2F7C JUMPI POP DUP5 DUP3 ADD MLOAD JUMPDEST PUSH0 NOT PUSH1 0x3 DUP6 SWAP1 SHL SHR NOT AND PUSH1 0x1 DUP5 SWAP1 SHL OR DUP5 SSTORE PUSH2 0x2F2C JUMP JUMPDEST PUSH0 DUP5 DUP2 MSTORE PUSH1 0x20 DUP2 KECCAK256 PUSH1 0x1F NOT DUP6 AND SWAP2 JUMPDEST DUP3 DUP2 LT ISZERO PUSH2 0x2FC2 JUMPI DUP8 DUP6 ADD MLOAD DUP3 SSTORE PUSH1 0x20 SWAP5 DUP6 ADD SWAP5 PUSH1 0x1 SWAP1 SWAP3 ADD SWAP2 ADD PUSH2 0x2FA2 JUMP JUMPDEST POP DUP5 DUP3 LT ISZERO PUSH2 0x2FDF JUMPI DUP7 DUP5 ADD MLOAD PUSH0 NOT PUSH1 0x3 DUP8 SWAP1 SHL PUSH1 0xF8 AND SHR NOT AND DUP2 SSTORE JUMPDEST POP POP POP POP PUSH1 0x1 SWAP1 DUP2 SHL ADD SWAP1 SSTORE POP JUMP JUMPDEST DUP7 DUP2 MSTORE DUP6 PUSH1 0x20 DUP3 ADD MSTORE PUSH1 0x1 DUP1 PUSH1 0xA0 SHL SUB DUP6 AND PUSH1 0x40 DUP3 ADD MSTORE DUP4 PUSH1 0x60 DUP3 ADD MSTORE PUSH1 0xC0 PUSH1 0x80 DUP3 ADD MSTORE PUSH0 PUSH2 0x3020 PUSH1 0xC0 DUP4 ADD DUP6 PUSH2 0x2B82 JUMP JUMPDEST SWAP1 POP DUP3 PUSH1 0xA0 DUP4 ADD MSTORE SWAP8 SWAP7 POP POP POP POP POP POP POP JUMP JUMPDEST PUSH4 0x4E487B71 PUSH1 0xE0 SHL PUSH0 MSTORE PUSH1 0x32 PUSH1 0x4 MSTORE PUSH1 0x24 PUSH0 REVERT JUMPDEST PUSH0 DUP2 MLOAD DUP1 PUSH1 0x20 DUP5 ADD DUP6 MCOPY PUSH0 SWAP4 ADD SWAP3 DUP4 MSTORE POP SWAP1 SWAP2 SWAP1 POP JUMP JUMPDEST PUSH0 PUSH2 0x27BD DUP3 DUP5 PUSH2 0x3047 JUMP JUMPDEST PUSH0 DUP1 DUP4 SLOAD PUSH2 0x3076 DUP2 PUSH2 0x2EB0 JUMP JUMPDEST PUSH1 0x1 DUP3 AND DUP1 ISZERO PUSH2 0x308D JUMPI PUSH1 0x1 DUP2 EQ PUSH2 0x30A2 JUMPI PUSH2 0x30CF JUMP JUMPDEST PUSH1 0xFF NOT DUP4 AND DUP7 MSTORE DUP2 ISZERO ISZERO DUP3 MUL DUP7 ADD SWAP4 POP PUSH2 0x30CF JUMP JUMPDEST DUP7 PUSH0 MSTORE PUSH1 0x20 PUSH0 KECCAK256 PUSH0 JUMPDEST DUP4 DUP2 LT ISZERO PUSH2 0x30C7 JUMPI DUP2 SLOAD DUP9 DUP3 ADD MSTORE PUSH1 0x1 SWAP1 SWAP2 ADD SWAP1 PUSH1 0x20 ADD PUSH2 0x30AB JUMP JUMPDEST POP POP DUP2 DUP7 ADD SWAP4 POP JUMPDEST POP SWAP2 SWAP6 SWAP5 POP POP POP POP POP JUMP JUMPDEST PUSH0 PUSH1 0x20 DUP3 DUP5 SUB SLT ISZERO PUSH2 0x30EA JUMPI PUSH0 DUP1 REVERT JUMPDEST DUP2 MLOAD DUP1 ISZERO ISZERO DUP2 EQ PUSH2 0x27BD JUMPI PUSH0 DUP1 REVERT INVALID XOR SWAP11 0xB7 0xA9 0x24 0x4D CREATE DUP5 DUP2 0x22 ISZERO NUMBER ISZERO 0xAF PUSH18 0xFE140F3DB0FE014031783B0946B8C9D2E336 ADDMOD SWAP5 LOG1 EXTCODESIZE LOG1 LOG3 0x21 MOD PUSH8 0xC828492DB98DCA3E KECCAK256 PUSH23 0xCC3735A920A3CA505D382BBC65D7A28E3265B37A647492 SWAP16 CALLER PUSH6 0x21B332C1681B SWAP4 EXTCODEHASH PUSH13 0xB9F3376673440D862A02DD7BC7 0xDE 0xC4 0xDC 0xEE 0xDD 0xA7 PUSH22 0xE58DD541E08A116C6C53815C0BD028192F7B626800CD MCOPY 0xD1 TLOAD PUSH15 0x187E77E9AEE88184C21F4F2182AB58 0x27 0xCB EXTCODESIZE PUSH31 0x7FBEDCD63F03300A2646970667358221220A720C82D34E0B39439BB752293 ORIGIN CALLCODE 0xDB 0x4B RETURN SWAP8 PUSH6 0x42CF2EB831D ADDMOD BLOBBASEFEE SWAP11 0xB3 PUSH0 TLOAD PUSH5 0x736F6C6343 STOP ADDMOD BYTE STOP CALLER "
		},
		"gasEstimates": {
			"creation": {
				"codeDepositCost": "2550200",
				"executionCost": "infinite",
				"totalCost": "infinite"
			},
			"external": {
				"DEFAULT_ADMIN_ROLE()": "260",
				"MODERATOR_ROLE()": "327",
				"PAUSER_ROLE()": "infinite",
				"UPGRADER_ROLE()": "infinite",
				"UPGRADE_INTERFACE_VERSION()": "infinite",
				"addEscrowService(address)": "infinite",
				"addModerator(address)": "infinite",
				"analyticsDashboard()": "infinite",
				"buyNFT(uint256,uint256)": "infinite",
				"cancelListing(uint256)": "30142",
				"communityAuction(uint256,uint256,uint256,address,uint256,address)": "infinite",
				"customizeStorefront(uint256,string)": "infinite",
				"endorseSeller(address)": "infinite",
				"filterListingsByCategory(string)": "infinite",
				"filterListingsByRarity(uint256)": "infinite",
				"getRoleAdmin(bytes32)": "infinite",
				"grantRole(bytes32,address)": "infinite",
				"hasRole(bytes32,address)": "infinite",
				"initialize(address,address,address,address,address)": "infinite",
				"listItemWithEscrow(uint256,uint256,uint256,address,uint256,address,string,uint256)": "infinite",
				"listNFT(uint256,uint256,uint256,address,uint256,string,uint256)": "infinite",
				"nftContract()": "2401",
				"nftContract1155()": "2468",
				"pause()": "infinite",
				"paused()": "infinite",
				"proxiableUUID()": "infinite",
				"removeModerator(address)": "infinite",
				"renounceRole(bytes32,address)": "29204",
				"revokeRole(bytes32,address)": "infinite",
				"sellerReputation(address)": "2599",
				"supportsInterface(bytes4)": "infinite",
				"unpause()": "infinite",
				"upgradeToAndCall(address,bytes)": "infinite",
				"validateSeller(address)": "2599"
			},
			"internal": {
				"_authorizeUpgrade(address)": "infinite",
				"_transferNFT(uint256,uint256,address)": "infinite"
			}
		},
		"methodIdentifiers": {
			"DEFAULT_ADMIN_ROLE()": "a217fddf",
			"MODERATOR_ROLE()": "797669c9",
			"PAUSER_ROLE()": "e63ab1e9",
			"UPGRADER_ROLE()": "f72c0d8b",
			"UPGRADE_INTERFACE_VERSION()": "ad3cb1cc",
			"addEscrowService(address)": "76b0c170",
			"addModerator(address)": "b532e4cb",
			"analyticsDashboard()": "c1cdf723",
			"buyNFT(uint256,uint256)": "1d85bf03",
			"cancelListing(uint256)": "305a67a8",
			"communityAuction(uint256,uint256,uint256,address,uint256,address)": "a437cfdc",
			"customizeStorefront(uint256,string)": "b0a58a9c",
			"endorseSeller(address)": "15499a2c",
			"filterListingsByCategory(string)": "8c26bb09",
			"filterListingsByRarity(uint256)": "7e24feb4",
			"getRoleAdmin(bytes32)": "248a9ca3",
			"grantRole(bytes32,address)": "2f2ff15d",
			"hasRole(bytes32,address)": "91d14854",
			"initialize(address,address,address,address,address)": "1459457a",
			"listItemWithEscrow(uint256,uint256,uint256,address,uint256,address,string,uint256)": "3ac01996",
			"listNFT(uint256,uint256,uint256,address,uint256,string,uint256)": "4b35f96e",
			"nftContract()": "d56d229d",
			"nftContract1155()": "fc749046",
			"pause()": "8456cb59",
			"paused()": "5c975abb",
			"proxiableUUID()": "52d1902d",
			"removeModerator(address)": "869d785f",
			"renounceRole(bytes32,address)": "36568abe",
			"revokeRole(bytes32,address)": "d547741f",
			"sellerReputation(address)": "63474e6a",
			"supportsInterface(bytes4)": "01ffc9a7",
			"unpause()": "3f4ba83a",
			"upgradeToAndCall(address,bytes)": "4f1ef286",
			"validateSeller(address)": "b1435d03"
		}
	},
	"abi": [
		{
			"inputs": [],
			"stateMutability": "nonpayable",
			"type": "constructor"
		},
		{
			"inputs": [],
			"name": "AccessControlBadConfirmation",
			"type": "error"
		},
		{
			"inputs": [
				{
					"internalType": "address",
					"name": "account",
					"type": "address"
				},
				{
					"internalType": "bytes32",
					"name": "neededRole",
					"type": "bytes32"
				}
			],
			"name": "AccessControlUnauthorizedAccount",
			"type": "error"
		},
		{
			"inputs": [
				{
					"internalType": "address",
					"name": "target",
					"type": "address"
				}
			],
			"name": "AddressEmptyCode",
			"type": "error"
		},
		{
			"inputs": [
				{
					"internalType": "address",
					"name": "implementation",
					"type": "address"
				}
			],
			"name": "ERC1967InvalidImplementation",
			"type": "error"
		},
		{
			"inputs": [],
			"name": "ERC1967NonPayable",
			"type": "error"
		},
		{
			"inputs": [],
			"name": "EnforcedPause",
			"type": "error"
		},
		{
			"inputs": [],
			"name": "ExpectedPause",
			"type": "error"
		},
		{
			"inputs": [],
			"name": "FailedInnerCall",
			"type": "error"
		},
		{
			"inputs": [],
			"name": "InvalidInitialization",
			"type": "error"
		},
		{
			"inputs": [],
			"name": "NotInitializing",
			"type": "error"
		},
		{
			"inputs": [],
			"name": "UUPSUnauthorizedCallContext",
			"type": "error"
		},
		{
			"inputs": [
				{
					"internalType": "bytes32",
					"name": "slot",
					"type": "bytes32"
				}
			],
			"name": "UUPSUnsupportedProxiableUUID",
			"type": "error"
		},
		{
			"anonymous": false,
			"inputs": [
				{
					"indexed": false,
					"internalType": "uint64",
					"name": "version",
					"type": "uint64"
				}
			],
			"name": "Initialized",
			"type": "event"
		},
		{
			"anonymous": false,
			"inputs": [
				{
					"indexed": true,
					"internalType": "uint256",
					"name": "listingId",
					"type": "uint256"
				},
				{
					"indexed": true,
					"internalType": "address",
					"name": "seller",
					"type": "address"
				},
				{
					"indexed": true,
					"internalType": "uint256",
					"name": "itemId",
					"type": "uint256"
				},
				{
					"indexed": false,
					"internalType": "uint256",
					"name": "quantity",
					"type": "uint256"
				},
				{
					"indexed": false,
					"internalType": "uint256",
					"name": "price",
					"type": "uint256"
				},
				{
					"indexed": false,
					"internalType": "address",
					"name": "currency",
					"type": "address"
				},
				{
					"indexed": false,
					"internalType": "uint256",
					"name": "endTime",
					"type": "uint256"
				},
				{
					"indexed": false,
					"internalType": "string",
					"name": "category",
					"type": "string"
				},
				{
					"indexed": false,
					"internalType": "uint256",
					"name": "rarity",
					"type": "uint256"
				}
			],
			"name": "ItemListed",
			"type": "event"
		},
		{
			"anonymous": false,
			"inputs": [
				{
					"indexed": true,
					"internalType": "uint256",
					"name": "listingId",
					"type": "uint256"
				},
				{
					"indexed": true,
					"internalType": "address",
					"name": "buyer",
					"type": "address"
				},
				{
					"indexed": true,
					"internalType": "uint256",
					"name": "itemId",
					"type": "uint256"
				},
				{
					"indexed": false,
					"internalType": "uint256",
					"name": "quantity",
					"type": "uint256"
				},
				{
					"indexed": false,
					"internalType": "uint256",
					"name": "price",
					"type": "uint256"
				},
				{
					"indexed": false,
					"internalType": "address",
					"name": "currency",
					"type": "address"
				}
			],
			"name": "ItemSold",
			"type": "event"
		},
		{
			"anonymous": false,
			"inputs": [
				{
					"indexed": true,
					"internalType": "uint256",
					"name": "listingId",
					"type": "uint256"
				}
			],
			"name": "ListingCancelled",
			"type": "event"
		},
		{
			"anonymous": false,
			"inputs": [
				{
					"indexed": true,
					"internalType": "uint256",
					"name": "listingId",
					"type": "uint256"
				}
			],
			"name": "ListingExpired",
			"type": "event"
		},
		{
			"anonymous": false,
			"inputs": [
				{
					"indexed": true,
					"internalType": "address",
					"name": "moderator",
					"type": "address"
				}
			],
			"name": "ModeratorAdded",
			"type": "event"
		},
		{
			"anonymous": false,
			"inputs": [
				{
					"indexed": true,
					"internalType": "address",
					"name": "moderator",
					"type": "address"
				}
			],
			"name": "ModeratorRemoved",
			"type": "event"
		},
		{
			"anonymous": false,
			"inputs": [
				{
					"indexed": false,
					"internalType": "address",
					"name": "account",
					"type": "address"
				}
			],
			"name": "Paused",
			"type": "event"
		},
		{
			"anonymous": false,
			"inputs": [
				{
					"indexed": true,
					"internalType": "bytes32",
					"name": "role",
					"type": "bytes32"
				},
				{
					"indexed": true,
					"internalType": "bytes32",
					"name": "previousAdminRole",
					"type": "bytes32"
				},
				{
					"indexed": true,
					"internalType": "bytes32",
					"name": "newAdminRole",
					"type": "bytes32"
				}
			],
			"name": "RoleAdminChanged",
			"type": "event"
		},
		{
			"anonymous": false,
			"inputs": [
				{
					"indexed": true,
					"internalType": "bytes32",
					"name": "role",
					"type": "bytes32"
				},
				{
					"indexed": true,
					"internalType": "address",
					"name": "account",
					"type": "address"
				},
				{
					"indexed": true,
					"internalType": "address",
					"name": "sender",
					"type": "address"
				}
			],
			"name": "RoleGranted",
			"type": "event"
		},
		{
			"anonymous": false,
			"inputs": [
				{
					"indexed": true,
					"internalType": "bytes32",
					"name": "role",
					"type": "bytes32"
				},
				{
					"indexed": true,
					"internalType": "address",
					"name": "account",
					"type": "address"
				},
				{
					"indexed": true,
					"internalType": "address",
					"name": "sender",
					"type": "address"
				}
			],
			"name": "RoleRevoked",
			"type": "event"
		},
		{
			"anonymous": false,
			"inputs": [
				{
					"indexed": false,
					"internalType": "address",
					"name": "account",
					"type": "address"
				}
			],
			"name": "Unpaused",
			"type": "event"
		},
		{
			"anonymous": false,
			"inputs": [
				{
					"indexed": true,
					"internalType": "address",
					"name": "implementation",
					"type": "address"
				}
			],
			"name": "Upgraded",
			"type": "event"
		},
		{
			"inputs": [],
			"name": "DEFAULT_ADMIN_ROLE",
			"outputs": [
				{
					"internalType": "bytes32",
					"name": "",
					"type": "bytes32"
				}
			],
			"stateMutability": "view",
			"type": "function"
		},
		{
			"inputs": [],
			"name": "MODERATOR_ROLE",
			"outputs": [
				{
					"internalType": "bytes32",
					"name": "",
					"type": "bytes32"
				}
			],
			"stateMutability": "view",
			"type": "function"
		},
		{
			"inputs": [],
			"name": "PAUSER_ROLE",
			"outputs": [
				{
					"internalType": "bytes32",
					"name": "",
					"type": "bytes32"
				}
			],
			"stateMutability": "view",
			"type": "function"
		},
		{
			"inputs": [],
			"name": "UPGRADER_ROLE",
			"outputs": [
				{
					"internalType": "bytes32",
					"name": "",
					"type": "bytes32"
				}
			],
			"stateMutability": "view",
			"type": "function"
		},
		{
			"inputs": [],
			"name": "UPGRADE_INTERFACE_VERSION",
			"outputs": [
				{
					"internalType": "string",
					"name": "",
					"type": "string"
				}
			],
			"stateMutability": "view",
			"type": "function"
		},
		{
			"inputs": [
				{
					"internalType": "address",
					"name": "escrowService",
					"type": "address"
				}
			],
			"name": "addEscrowService",
			"outputs": [],
			"stateMutability": "nonpayable",
			"type": "function"
		},
		{
			"inputs": [
				{
					"internalType": "address",
					"name": "moderator",
					"type": "address"
				}
			],
			"name": "addModerator",
			"outputs": [],
			"stateMutability": "nonpayable",
			"type": "function"
		},
		{
			"inputs": [],
			"name": "analyticsDashboard",
			"outputs": [
				{
					"internalType": "uint256",
					"name": "totalListings",
					"type": "uint256"
				},
				{
					"internalType": "uint256",
					"name": "activeListings",
					"type": "uint256"
				},
				{
					"internalType": "uint256",
					"name": "soldListings",
					"type": "uint256"
				},
				{
					"internalType": "address",
					"name": "topSeller",
					"type": "address"
				}
			],
			"stateMutability": "view",
			"type": "function"
		},
		{
			"inputs": [
				{
					"internalType": "uint256",
					"name": "listingId",
					"type": "uint256"
				},
				{
					"internalType": "uint256",
					"name": "quantity",
					"type": "uint256"
				}
			],
			"name": "buyNFT",
			"outputs": [],
			"stateMutability": "payable",
			"type": "function"
		},
		{
			"inputs": [
				{
					"internalType": "uint256",
					"name": "listingId",
					"type": "uint256"
				}
			],
			"name": "cancelListing",
			"outputs": [],
			"stateMutability": "nonpayable",
			"type": "function"
		},
		{
			"inputs": [
				{
					"internalType": "uint256",
					"name": "itemId",
					"type": "uint256"
				},
				{
					"internalType": "uint256",
					"name": "quantity",
					"type": "uint256"
				},
				{
					"internalType": "uint256",
					"name": "startingBid",
					"type": "uint256"
				},
				{
					"internalType": "address",
					"name": "currency",
					"type": "address"
				},
				{
					"internalType": "uint256",
					"name": "endTime",
					"type": "uint256"
				},
				{
					"internalType": "address",
					"name": "",
					"type": "address"
				}
			],
			"name": "communityAuction",
			"outputs": [],
			"stateMutability": "nonpayable",
			"type": "function"
		},
		{
			"inputs": [
				{
					"internalType": "uint256",
					"name": "itemId",
					"type": "uint256"
				},
				{
					"internalType": "string",
					"name": "",
					"type": "string"
				}
			],
			"name": "customizeStorefront",
			"outputs": [],
			"stateMutability": "view",
			"type": "function"
		},
		{
			"inputs": [
				{
					"internalType": "address",
					"name": "seller",
					"type": "address"
				}
			],
			"name": "endorseSeller",
			"outputs": [],
			"stateMutability": "nonpayable",
			"type": "function"
		},
		{
			"inputs": [
				{
					"internalType": "string",
					"name": "category",
					"type": "string"
				}
			],
			"name": "filterListingsByCategory",
			"outputs": [
				{
					"components": [
						{
							"internalType": "address",
							"name": "seller",
							"type": "address"
						},
						{
							"internalType": "uint256",
							"name": "itemId",
							"type": "uint256"
						},
						{
							"internalType": "uint256",
							"name": "quantity",
							"type": "uint256"
						},
						{
							"internalType": "uint256",
							"name": "price",
							"type": "uint256"
						},
						{
							"internalType": "address",
							"name": "currency",
							"type": "address"
						},
						{
							"internalType": "uint256",
							"name": "endTime",
							"type": "uint256"
						},
						{
							"internalType": "bool",
							"name": "active",
							"type": "bool"
						},
						{
							"internalType": "string",
							"name": "category",
							"type": "string"
						},
						{
							"internalType": "uint256",
							"name": "rarity",
							"type": "uint256"
						}
					],
					"internalType": "struct CryptoQuestTheShardsOfGenesisMarketplace.Listing[]",
					"name": "",
					"type": "tuple[]"
				}
			],
			"stateMutability": "view",
			"type": "function"
		},
		{
			"inputs": [
				{
					"internalType": "uint256",
					"name": "rarity",
					"type": "uint256"
				}
			],
			"name": "filterListingsByRarity",
			"outputs": [
				{
					"components": [
						{
							"internalType": "address",
							"name": "seller",
							"type": "address"
						},
						{
							"internalType": "uint256",
							"name": "itemId",
							"type": "uint256"
						},
						{
							"internalType": "uint256",
							"name": "quantity",
							"type": "uint256"
						},
						{
							"internalType": "uint256",
							"name": "price",
							"type": "uint256"
						},
						{
							"internalType": "address",
							"name": "currency",
							"type": "address"
						},
						{
							"internalType": "uint256",
							"name": "endTime",
							"type": "uint256"
						},
						{
							"internalType": "bool",
							"name": "active",
							"type": "bool"
						},
						{
							"internalType": "string",
							"name": "category",
							"type": "string"
						},
						{
							"internalType": "uint256",
							"name": "rarity",
							"type": "uint256"
						}
					],
					"internalType": "struct CryptoQuestTheShardsOfGenesisMarketplace.Listing[]",
					"name": "",
					"type": "tuple[]"
				}
			],
			"stateMutability": "view",
			"type": "function"
		},
		{
			"inputs": [
				{
					"internalType": "bytes32",
					"name": "role",
					"type": "bytes32"
				}
			],
			"name": "getRoleAdmin",
			"outputs": [
				{
					"internalType": "bytes32",
					"name": "",
					"type": "bytes32"
				}
			],
			"stateMutability": "view",
			"type": "function"
		},
		{
			"inputs": [
				{
					"internalType": "bytes32",
					"name": "role",
					"type": "bytes32"
				},
				{
					"internalType": "address",
					"name": "account",
					"type": "address"
				}
			],
			"name": "grantRole",
			"outputs": [],
			"stateMutability": "nonpayable",
			"type": "function"
		},
		{
			"inputs": [
				{
					"internalType": "bytes32",
					"name": "role",
					"type": "bytes32"
				},
				{
					"internalType": "address",
					"name": "account",
					"type": "address"
				}
			],
			"name": "hasRole",
			"outputs": [
				{
					"internalType": "bool",
					"name": "",
					"type": "bool"
				}
			],
			"stateMutability": "view",
			"type": "function"
		},
		{
			"inputs": [
				{
					"internalType": "address",
					"name": "defaultAdmin",
					"type": "address"
				},
				{
					"internalType": "address",
					"name": "pauser",
					"type": "address"
				},
				{
					"internalType": "address",
					"name": "upgrader",
					"type": "address"
				},
				{
					"internalType": "address",
					"name": "nftAddress",
					"type": "address"
				},
				{
					"internalType": "address",
					"name": "nftAddress1155",
					"type": "address"
				}
			],
			"name": "initialize",
			"outputs": [],
			"stateMutability": "nonpayable",
			"type": "function"
		},
		{
			"inputs": [
				{
					"internalType": "uint256",
					"name": "itemId",
					"type": "uint256"
				},
				{
					"internalType": "uint256",
					"name": "quantity",
					"type": "uint256"
				},
				{
					"internalType": "uint256",
					"name": "price",
					"type": "uint256"
				},
				{
					"internalType": "address",
					"name": "currency",
					"type": "address"
				},
				{
					"internalType": "uint256",
					"name": "endTime",
					"type": "uint256"
				},
				{
					"internalType": "address",
					"name": "",
					"type": "address"
				},
				{
					"internalType": "string",
					"name": "category",
					"type": "string"
				},
				{
					"internalType": "uint256",
					"name": "rarity",
					"type": "uint256"
				}
			],
			"name": "listItemWithEscrow",
			"outputs": [],
			"stateMutability": "nonpayable",
			"type": "function"
		},
		{
			"inputs": [
				{
					"internalType": "uint256",
					"name": "itemId",
					"type": "uint256"
				},
				{
					"internalType": "uint256",
					"name": "quantity",
					"type": "uint256"
				},
				{
					"internalType": "uint256",
					"name": "price",
					"type": "uint256"
				},
				{
					"internalType": "address",
					"name": "currency",
					"type": "address"
				},
				{
					"internalType": "uint256",
					"name": "endTime",
					"type": "uint256"
				},
				{
					"internalType": "string",
					"name": "category",
					"type": "string"
				},
				{
					"internalType": "uint256",
					"name": "rarity",
					"type": "uint256"
				}
			],
			"name": "listNFT",
			"outputs": [],
			"stateMutability": "nonpayable",
			"type": "function"
		},
		{
			"inputs": [],
			"name": "nftContract",
			"outputs": [
				{
					"internalType": "contract IERC721EnumerableUpgradeable",
					"name": "",
					"type": "address"
				}
			],
			"stateMutability": "view",
			"type": "function"
		},
		{
			"inputs": [],
			"name": "nftContract1155",
			"outputs": [
				{
					"internalType": "contract IERC1155Upgradeable",
					"name": "",
					"type": "address"
				}
			],
			"stateMutability": "view",
			"type": "function"
		},
		{
			"inputs": [],
			"name": "pause",
			"outputs": [],
			"stateMutability": "nonpayable",
			"type": "function"
		},
		{
			"inputs": [],
			"name": "paused",
			"outputs": [
				{
					"internalType": "bool",
					"name": "",
					"type": "bool"
				}
			],
			"stateMutability": "view",
			"type": "function"
		},
		{
			"inputs": [],
			"name": "proxiableUUID",
			"outputs": [
				{
					"internalType": "bytes32",
					"name": "",
					"type": "bytes32"
				}
			],
			"stateMutability": "view",
			"type": "function"
		},
		{
			"inputs": [
				{
					"internalType": "address",
					"name": "moderator",
					"type": "address"
				}
			],
			"name": "removeModerator",
			"outputs": [],
			"stateMutability": "nonpayable",
			"type": "function"
		},
		{
			"inputs": [
				{
					"internalType": "bytes32",
					"name": "role",
					"type": "bytes32"
				},
				{
					"internalType": "address",
					"name": "callerConfirmation",
					"type": "address"
				}
			],
			"name": "renounceRole",
			"outputs": [],
			"stateMutability": "nonpayable",
			"type": "function"
		},
		{
			"inputs": [
				{
					"internalType": "bytes32",
					"name": "role",
					"type": "bytes32"
				},
				{
					"internalType": "address",
					"name": "account",
					"type": "address"
				}
			],
			"name": "revokeRole",
			"outputs": [],
			"stateMutability": "nonpayable",
			"type": "function"
		},
		{
			"inputs": [
				{
					"internalType": "address",
					"name": "",
					"type": "address"
				}
			],
			"name": "sellerReputation",
			"outputs": [
				{
					"internalType": "uint256",
					"name": "",
					"type": "uint256"
				}
			],
			"stateMutability": "view",
			"type": "function"
		},
		{
			"inputs": [
				{
					"internalType": "bytes4",
					"name": "interfaceId",
					"type": "bytes4"
				}
			],
			"name": "supportsInterface",
			"outputs": [
				{
					"internalType": "bool",
					"name": "",
					"type": "bool"
				}
			],
			"stateMutability": "view",
			"type": "function"
		},
		{
			"inputs": [],
			"name": "unpause",
			"outputs": [],
			"stateMutability": "nonpayable",
			"type": "function"
		},
		{
			"inputs": [
				{
					"internalType": "address",
					"name": "newImplementation",
					"type": "address"
				},
				{
					"internalType": "bytes",
					"name": "data",
					"type": "bytes"
				}
			],
			"name": "upgradeToAndCall",
			"outputs": [],
			"stateMutability": "payable",
			"type": "function"
		},
		{
			"inputs": [
				{
					"internalType": "address",
					"name": "seller",
					"type": "address"
				}
			],
			"name": "validateSeller",
			"outputs": [
				{
					"internalType": "bool",
					"name": "",
					"type": "bool"
				}
			],
			"stateMutability": "view",
			"type": "function"
		}
	]
}