{
	"data": {
		"bytecode": {
			"linkReferences": {},
			"object": "60a060405230608052348015610013575f80fd5b5061001c610021565b6100d3565b7ff0c57e16840df040f15088dc2f81fe391c3923bec73e23a9662efc9c229c6a00805468010000000000000000900460ff16156100715760405163f92ee8a960e01b815260040160405180910390fd5b80546001600160401b03908116146100d05780546001600160401b0319166001600160401b0390811782556040519081527fc7f505b2f371ae2175ee4913f4499e1f2633a7b5936321eed1cdaeb6115181d29060200160405180910390a15b50565b60805161249d6100f95f395f81816118dc015281816119050152611a68015261249d5ff3fe608060405260043610610236575f3560e01c80638456cb5911610129578063c01a8c84116100a8578063d836fc6f1161006d578063d836fc6f146106cc578063e63ab1e9146106eb578063ee22610b1461070b578063f4e0d9ac1461072a578063f72c0d8b14610749575f80fd5b8063c01a8c841461063b578063c63a6ad21461065a578063c64274741461066f578063d547741f1461068e578063d7b4be24146106ad575f80fd5b80639ace38c2116100ee5780639ace38c214610588578063a217fddf146105b8578063a5ce413b146105cb578063ad3cb1cc146105df578063b001f6181461061c575f80fd5b80638456cb59146104f85780638a2ade581461050c57806391d148541461052b578063965afa891461054a5780639a03d9a314610569575f80fd5b80633f4ba83a116101b5578063634474711161017a578063634474711461044c5780637547c7a31461046b57806375b238fc1461048a57806380f59a65146104aa57806382e717f7146104e3575f80fd5b80633f4ba83a146103dc57806341bec0d2146103f05780634f1ef2861461040f57806352d1902d146104225780635c975abb14610436575f80fd5b80632352a864116101fb5780632352a86414610333578063248a9ca314610352578063276184ae1461037f5780632f2ff15d1461039e57806336568abe146103bd575f80fd5b806301ffc9a714610241578063051420021461027557806316934fc4146102ac57806320ea8d86146102f35780632131c68c14610314575f80fd5b3661023d57005b5f80fd5b34801561024c575f80fd5b5061026061025b366004611ded565b61077c565b60405190151581526020015b60405180910390f35b348015610280575f80fd5b50603454610294906001600160a01b031681565b6040516001600160a01b03909116815260200161026c565b3480156102b7575f80fd5b506102de6102c6366004611e2f565b603b6020525f90815260409020805460019091015482565b6040805192835260208301919091520161026c565b3480156102fe575f80fd5b5061031261030d366004611e48565b6107b2565b005b34801561031f575f80fd5b50603554610294906001600160a01b031681565b34801561033e575f80fd5b50603354610294906001600160a01b031681565b34801561035d575f80fd5b5061037161036c366004611e48565b610949565b60405190815260200161026c565b34801561038a575f80fd5b50603254610294906001600160a01b031681565b3480156103a9575f80fd5b506103126103b8366004611e5f565b610969565b3480156103c8575f80fd5b506103126103d7366004611e5f565b61098b565b3480156103e7575f80fd5b506103126109c3565b3480156103fb575f80fd5b5061031261040a366004611e2f565b6109e5565b61031261041d366004611f28565b610a3a565b34801561042d575f80fd5b50610371610a59565b348015610441575f80fd5b505f5460ff16610260565b348015610457575f80fd5b50610312610466366004611f73565b610a74565b348015610476575f80fd5b50610312610485366004611e48565b610c6b565b348015610495575f80fd5b506103715f8051602061244883398151915281565b3480156104b5575f80fd5b506102606104c4366004611e5f565b603860209081525f928352604080842090915290825290205460ff1681565b3480156104ee575f80fd5b50610371603a5481565b348015610503575f80fd5b50610312610d9e565b348015610517575f80fd5b50603754610294906001600160a01b031681565b348015610536575f80fd5b50610260610545366004611e5f565b610dbd565b348015610555575f80fd5b50610312610564366004611e2f565b610df3565b348015610574575f80fd5b50610312610583366004611e2f565b610e48565b348015610593575f80fd5b506105a76105a2366004611e48565b610e9d565b60405161026c959493929190612035565b3480156105c3575f80fd5b506103715f81565b3480156105d6575f80fd5b50610312610f72565b3480156105ea575f80fd5b5061060f604051806040016040528060058152602001640352e302e360dc1b81525081565b60405161026c919061206f565b348015610627575f80fd5b50610312610636366004611e2f565b611154565b348015610646575f80fd5b50610312610655366004611e48565b6111a9565b348015610665575f80fd5b50610371603c5481565b34801561067a575f80fd5b50610312610689366004612081565b61133d565b348015610699575f80fd5b506103126106a8366004611e5f565b6114a1565b3480156106b8575f80fd5b50603654610294906001600160a01b031681565b3480156106d7575f80fd5b506103126106e6366004611e2f565b6114bd565b3480156106f6575f80fd5b506103715f8051602061240883398151915281565b348015610716575f80fd5b50610312610725366004611e48565b611512565b348015610735575f80fd5b50610312610744366004611e2f565b611707565b348015610754575f80fd5b506103717f189ab7a9244df0848122154315af71fe140f3db0fe014031783b0946b8c9d2e381565b5f6001600160e01b03198216637965db0b60e01b14806107ac57506301ffc9a760e01b6001600160e01b03198316145b92915050565b6107c95f8051602061244883398151915233610dbd565b6107ee5760405162461bcd60e51b81526004016107e5906120d4565b60405180910390fd5b603954819081106108115760405162461bcd60e51b81526004016107e5906120fa565b816039818154811061082557610825612131565b5f91825260209091206003600590920201015460ff16156108585760405162461bcd60e51b81526004016107e590612145565b5f6039848154811061086c5761086c612131565b5f91825260208083208784526038825260408085203386529092529220546005909102909101915060ff166108e35760405162461bcd60e51b815260206004820152601960248201527f5472616e73616374696f6e206e6f7420636f6e6669726d65640000000000000060448201526064016107e5565b6001816004015f8282546108f79190612190565b90915550505f848152603860209081526040808320338085529252808320805460ff191690555186927fe5c8875c5e14471f806f15f740cd9fd54937d151e9dcf8ad3ba988d6a285e67e91a350505050565b5f9081525f80516020612428833981519152602052604090206001015490565b61097282610949565b61097b8161175c565b6109858383611766565b50505050565b6001600160a01b03811633146109b45760405163334bd91960e11b815260040160405180910390fd5b6109be8282611807565b505050565b5f805160206124088339815191526109da8161175c565b6109e2611880565b50565b6109fc5f8051602061244883398151915233610dbd565b610a185760405162461bcd60e51b81526004016107e5906120d4565b603280546001600160a01b0319166001600160a01b0392909216919091179055565b610a426118d1565b610a4b82611977565b610a5582826119a1565b5050565b5f610a62611a5d565b505f805160206123e883398151915290565b7ff0c57e16840df040f15088dc2f81fe391c3923bec73e23a9662efc9c229c6a008054600160401b810460ff16159067ffffffffffffffff165f81158015610ab95750825b90505f8267ffffffffffffffff166001148015610ad55750303b155b905081158015610ae3575080155b15610b015760405163f92ee8a960e01b815260040160405180910390fd5b845467ffffffffffffffff191660011785558315610b2b57845460ff60401b1916600160401b1785555b610b33611aa6565b610b3b611aae565b610b43611aa6565b610b4d5f8f611766565b50610b655f805160206124088339815191528f611766565b50610b7d5f805160206124488339815191528f611766565b50610ba87f189ab7a9244df0848122154315af71fe140f3db0fe014031783b0946b8c9d2e38f611766565b50603a8d9055603c8c9055603280546001600160a01b03199081166001600160a01b038e8116919091179092556033805482168d84161790556034805482168c84161790556035805482168b84161790556036805482168a8416179055603780549091169188169190911790558315610c5b57845460ff60401b19168555604051600181527fc7f505b2f371ae2175ee4913f4499e1f2633a7b5936321eed1cdaeb6115181d29060200160405180910390a15b5050505050505050505050505050565b610c73611abe565b6032546040516323b872dd60e01b8152336004820152306024820152604481018390526001600160a01b039091169081906323b872dd906064016020604051808303815f875af1158015610cc9573d5f803e3d5ffd5b505050506040513d601f19601f82011682018060405250810190610ced91906121a3565b610d315760405162461bcd60e51b8152602060048201526015602482015274151bdad95b881d1c985b9cd9995c8819985a5b1959605a1b60448201526064016107e5565b604080518082018252838152426020808301828152335f818152603b845286902094518555905160019094019390935583518681529081019190915290917fdd2a19c3bdd089cbe77c04f5655f83de0504d6140d12c8667646f55d0557c4dc910160405180910390a25050565b5f80516020612408833981519152610db58161175c565b6109e2611b03565b5f9182525f80516020612428833981519152602090815260408084206001600160a01b0393909316845291905290205460ff1690565b610e0a5f8051602061244883398151915233610dbd565b610e265760405162461bcd60e51b81526004016107e5906120d4565b603580546001600160a01b0319166001600160a01b0392909216919091179055565b610e5f5f8051602061244883398151915233610dbd565b610e7b5760405162461bcd60e51b81526004016107e5906120d4565b603380546001600160a01b0319166001600160a01b0392909216919091179055565b60398181548110610eac575f80fd5b5f9182526020909120600590910201805460018201546002830180546001600160a01b039093169450909291610ee1906121c2565b80601f0160208091040260200160405190810160405280929190818152602001828054610f0d906121c2565b8015610f585780601f10610f2f57610100808354040283529160200191610f58565b820191905f5260205f20905b815481529060010190602001808311610f3b57829003601f168201915b505050506003830154600490930154919260ff1691905085565b610f7a611abe565b335f908152603b60209081526040918290208251808401909352805480845260019091015491830191909152610fe55760405162461bcd60e51b815260206004820152601060248201526f139bc81d1bdad95b9cc81cdd185ad95960821b60448201526064016107e5565b5f816020015142610ff69190612190565b90505f6301e1338082603c54855f015161101091906121fa565b61101a91906121fa565b6110249190612211565b60325484519192506001600160a01b031690819063a9059cbb90339061104b908690612230565b6040516001600160e01b031960e085901b1681526001600160a01b03909216600483015260248201526044016020604051808303815f875af1158015611093573d5f803e3d5ffd5b505050506040513d601f19601f820116820180604052508101906110b791906121a3565b6110fb5760405162461bcd60e51b8152602060048201526015602482015274151bdad95b881d1c985b9cd9995c8819985a5b1959605a1b60448201526064016107e5565b335f818152603b6020908152604080832083815560010192909255865182519081529081018590527f6f2d3e000c89d37446b7c0374c0125068ff316d1e3ee302336478a8cd03c2336910160405180910390a250505050565b61116b5f8051602061244883398151915233610dbd565b6111875760405162461bcd60e51b81526004016107e5906120d4565b603780546001600160a01b0319166001600160a01b0392909216919091179055565b6111c05f8051602061244883398151915233610dbd565b6111dc5760405162461bcd60e51b81526004016107e5906120d4565b603954819081106111ff5760405162461bcd60e51b81526004016107e5906120fa565b816039818154811061121357611213612131565b5f91825260209091206003600590920201015460ff16156112465760405162461bcd60e51b81526004016107e590612145565b5f838152603860209081526040808320338452909152902054839060ff16156112b15760405162461bcd60e51b815260206004820152601d60248201527f5472616e73616374696f6e20616c726561647920636f6e6669726d656400000060448201526064016107e5565b5f603985815481106112c5576112c5612131565b905f5260205f20906005020190506001816004015f8282546112e79190612230565b90915550505f858152603860209081526040808320338085529252808320805460ff191660011790555187927ff8a17c9136a3ae33364fac05eb088a3cbafee10c1889c88593e20ee2d8e4eb8891a35050505050565b6113545f8051602061244883398151915233610dbd565b6113705760405162461bcd60e51b81526004016107e5906120d4565b603980546040805160a0810182526001600160a01b038781168252602082018781529282018681525f60608401819052608084018190526001860187559590955281517fdc16fef70f8d5ddbc01ee3d903d1e69c18a3c7be080eb86a81e0578814ee58d36005860290810180546001600160a01b0319169290931691909117825592517fdc16fef70f8d5ddbc01ee3d903d1e69c18a3c7be080eb86a81e0578814ee58d484015593519293909290917fdc16fef70f8d5ddbc01ee3d903d1e69c18a3c7be080eb86a81e0578814ee58d5019061144c908261228e565b50606082015160038201805460ff191691151591909117905560809091015160049091015560405181907fd0b5d9eac097410294ec9f2cee7cd185cf31ab46babf3dfdbeac8b222b03f2d1905f90a250505050565b6114aa82610949565b6114b38161175c565b6109858383611807565b6114d45f8051602061244883398151915233610dbd565b6114f05760405162461bcd60e51b81526004016107e5906120d4565b603480546001600160a01b0319166001600160a01b0392909216919091179055565b6115295f8051602061244883398151915233610dbd565b6115455760405162461bcd60e51b81526004016107e5906120d4565b603954819081106115685760405162461bcd60e51b81526004016107e5906120fa565b816039818154811061157c5761157c612131565b5f91825260209091206003600590920201015460ff16156115af5760405162461bcd60e51b81526004016107e590612145565b5f603984815481106115c3576115c3612131565b905f5260205f2090600502019050603a548160040154101561161b5760405162461bcd60e51b8152602060048201526011602482015270086c2dcdcdee840caf0cac6eae8ca40e8f607b1b60448201526064016107e5565b60038101805460ff191660019081179091558154908201546040515f926001600160a01b03169190611651906002860190612349565b5f6040518083038185875af1925050503d805f811461168b576040519150601f19603f3d011682016040523d82523d5f602084013e611690565b606091505b50509050806116d65760405162461bcd60e51b8152602060048201526012602482015271151c985b9cd858dd1a5bdb8819985a5b195960721b60448201526064016107e5565b60405185907f15ed165a284872ea7017f03df402a0cadfbfab588320ffaf83f160c2f82781c7905f90a25050505050565b61171e5f8051602061244883398151915233610dbd565b61173a5760405162461bcd60e51b81526004016107e5906120d4565b603680546001600160a01b0319166001600160a01b0392909216919091179055565b6109e28133611b3f565b5f5f8051602061242883398151915261177f8484610dbd565b6117fe575f848152602082815260408083206001600160a01b03871684529091529020805460ff191660011790556117b43390565b6001600160a01b0316836001600160a01b0316857f2f8788117e7eff1d82e926ec794901d17c78024a50270940304540a733656f0d60405160405180910390a460019150506107ac565b5f9150506107ac565b5f5f805160206124288339815191526118208484610dbd565b156117fe575f848152602082815260408083206001600160a01b0387168085529252808320805460ff1916905551339287917ff6391f5c32d9c69d2a47ea670b442974b53935d1edc7fd64eb21e047a839171b9190a460019150506107ac565b611888611b78565b5f805460ff191690557f5db9ee0a495bf2e6ff9c91a7834c1ba4fdd244a5e8aa4e537bd38aeae4b073aa335b6040516001600160a01b03909116815260200160405180910390a1565b306001600160a01b037f000000000000000000000000000000000000000000000000000000000000000016148061195757507f00000000000000000000000000000000000000000000000000000000000000006001600160a01b031661194b5f805160206123e8833981519152546001600160a01b031690565b6001600160a01b031614155b156119755760405163703e46dd60e11b815260040160405180910390fd5b565b7f189ab7a9244df0848122154315af71fe140f3db0fe014031783b0946b8c9d2e3610a558161175c565b816001600160a01b03166352d1902d6040518163ffffffff1660e01b8152600401602060405180830381865afa9250505080156119fb575060408051601f3d908101601f191682019092526119f8918101906123ba565b60015b611a2357604051634c9c8ce360e01b81526001600160a01b03831660048201526024016107e5565b5f805160206123e88339815191528114611a5357604051632a87526960e21b8152600481018290526024016107e5565b6109be8383611bc0565b306001600160a01b037f000000000000000000000000000000000000000000000000000000000000000016146119755760405163703e46dd60e11b815260040160405180910390fd5b611975611c15565b611ab6611c15565b611975611c5e565b5f5460ff16156119755760405162461bcd60e51b815260206004820152601060248201526f14185d5cd8589b194e881c185d5cd95960821b60448201526064016107e5565b611b0b611abe565b5f805460ff191660011790557f62e78cea01bee320cd4e420270b5ea74000d11b0c9f74754ebdbfc544b05a2586118b43390565b611b498282610dbd565b610a555760405163e2517d3f60e01b81526001600160a01b0382166004820152602481018390526044016107e5565b5f5460ff166119755760405162461bcd60e51b815260206004820152601460248201527314185d5cd8589b194e881b9bdd081c185d5cd95960621b60448201526064016107e5565b611bc982611c71565b6040516001600160a01b038316907fbc7cd75a20ee27fd9adebab32041f755214dbc6bffa90cc0225b39da2e5c2d3b905f90a2805115611c0d576109be8282611cd4565b610a55611d46565b7ff0c57e16840df040f15088dc2f81fe391c3923bec73e23a9662efc9c229c6a0054600160401b900460ff1661197557604051631afcd79f60e31b815260040160405180910390fd5b611c66611c15565b5f805460ff19169055565b806001600160a01b03163b5f03611ca657604051634c9c8ce360e01b81526001600160a01b03821660048201526024016107e5565b5f805160206123e883398151915280546001600160a01b0319166001600160a01b0392909216919091179055565b60605f80846001600160a01b031684604051611cf091906123d1565b5f60405180830381855af49150503d805f8114611d28576040519150601f19603f3d011682016040523d82523d5f602084013e611d2d565b606091505b5091509150611d3d858383611d65565b95945050505050565b34156119755760405163b398979f60e01b815260040160405180910390fd5b606082611d7a57611d7582611dc4565b611dbd565b8151158015611d9157506001600160a01b0384163b155b15611dba57604051639996b31560e01b81526001600160a01b03851660048201526024016107e5565b50805b9392505050565b805115611dd45780518082602001fd5b604051630a12f52160e11b815260040160405180910390fd5b5f60208284031215611dfd575f80fd5b81356001600160e01b031981168114611dbd575f80fd5b80356001600160a01b0381168114611e2a575f80fd5b919050565b5f60208284031215611e3f575f80fd5b611dbd82611e14565b5f60208284031215611e58575f80fd5b5035919050565b5f8060408385031215611e70575f80fd5b82359150611e8060208401611e14565b90509250929050565b634e487b7160e01b5f52604160045260245ffd5b5f82601f830112611eac575f80fd5b813567ffffffffffffffff811115611ec657611ec6611e89565b604051601f8201601f19908116603f0116810167ffffffffffffffff81118282101715611ef557611ef5611e89565b604052818152838201602001851015611f0c575f80fd5b816020850160208301375f918101602001919091529392505050565b5f8060408385031215611f39575f80fd5b611f4283611e14565b9150602083013567ffffffffffffffff811115611f5d575f80fd5b611f6985828601611e9d565b9150509250929050565b5f805f805f805f805f6101208a8c031215611f8c575f80fd5b611f958a611e14565b985060208a0135975060408a01359650611fb160608b01611e14565b9550611fbf60808b01611e14565b9450611fcd60a08b01611e14565b9350611fdb60c08b01611e14565b9250611fe960e08b01611e14565b9150611ff86101008b01611e14565b90509295985092959850929598565b5f81518084528060208401602086015e5f602082860101526020601f19601f83011685010191505092915050565b60018060a01b038616815284602082015260a060408201525f61205b60a0830186612007565b931515606083015250608001529392505050565b602081525f611dbd6020830184612007565b5f805f60608486031215612093575f80fd5b61209c84611e14565b925060208401359150604084013567ffffffffffffffff8111156120be575f80fd5b6120ca86828701611e9d565b9150509250925092565b6020808252600c908201526b2737ba1030b71030b236b4b760a11b604082015260600190565b6020808252601a908201527f5472616e73616374696f6e20646f6573206e6f74206578697374000000000000604082015260600190565b634e487b7160e01b5f52603260045260245ffd5b6020808252601c908201527f5472616e73616374696f6e20616c726561647920657865637574656400000000604082015260600190565b634e487b7160e01b5f52601160045260245ffd5b818103818111156107ac576107ac61217c565b5f602082840312156121b3575f80fd5b81518015158114611dbd575f80fd5b600181811c908216806121d657607f821691505b6020821081036121f457634e487b7160e01b5f52602260045260245ffd5b50919050565b80820281158282048414176107ac576107ac61217c565b5f8261222b57634e487b7160e01b5f52601260045260245ffd5b500490565b808201808211156107ac576107ac61217c565b601f8211156109be57805f5260205f20601f840160051c810160208510156122685750805b601f840160051c820191505b81811015612287575f8155600101612274565b5050505050565b815167ffffffffffffffff8111156122a8576122a8611e89565b6122bc816122b684546121c2565b84612243565b6020601f8211600181146122ee575f83156122d75750848201515b5f19600385901b1c1916600184901b178455612287565b5f84815260208120601f198516915b8281101561231d57878501518255602094850194600190920191016122fd565b508482101561233a57868401515f19600387901b60f8161c191681555b50505050600190811b01905550565b5f808354612356816121c2565b60018216801561236d5760018114612382576123af565b60ff19831686528115158202860193506123af565b865f5260205f205f5b838110156123a75781548882015260019091019060200161238b565b505081860193505b509195945050505050565b5f602082840312156123ca575f80fd5b5051919050565b5f82518060208501845e5f92019182525091905056fe360894a13ba1a3210667c828492db98dca3e2076cc3735a920a3ca505d382bbc65d7a28e3265b37a6474929f336521b332c1681b933f6cb9f3376673440d862a02dd7bc7dec4dceedda775e58dd541e08a116c6c53815c0bd028192f7b626800a49807205ce4d355092ef5a8a18f56e8913cf4a201fbe287825b095693c21775a26469706673582212209751a2fb8d2b5b4f84396109cfd73e27b269854c039cf2e77b4c219a045d7b3364736f6c634300081a0033",
			"opcodes": "PUSH1 0xA0 PUSH1 0x40 MSTORE ADDRESS PUSH1 0x80 MSTORE CALLVALUE DUP1 ISZERO PUSH2 0x13 JUMPI PUSH0 DUP1 REVERT JUMPDEST POP PUSH2 0x1C PUSH2 0x21 JUMP JUMPDEST PUSH2 0xD3 JUMP JUMPDEST PUSH32 0xF0C57E16840DF040F15088DC2F81FE391C3923BEC73E23A9662EFC9C229C6A00 DUP1 SLOAD PUSH9 0x10000000000000000 SWAP1 DIV PUSH1 0xFF AND ISZERO PUSH2 0x71 JUMPI PUSH1 0x40 MLOAD PUSH4 0xF92EE8A9 PUSH1 0xE0 SHL DUP2 MSTORE PUSH1 0x4 ADD PUSH1 0x40 MLOAD DUP1 SWAP2 SUB SWAP1 REVERT JUMPDEST DUP1 SLOAD PUSH1 0x1 PUSH1 0x1 PUSH1 0x40 SHL SUB SWAP1 DUP2 AND EQ PUSH2 0xD0 JUMPI DUP1 SLOAD PUSH1 0x1 PUSH1 0x1 PUSH1 0x40 SHL SUB NOT AND PUSH1 0x1 PUSH1 0x1 PUSH1 0x40 SHL SUB SWAP1 DUP2 OR DUP3 SSTORE PUSH1 0x40 MLOAD SWAP1 DUP2 MSTORE PUSH32 0xC7F505B2F371AE2175EE4913F4499E1F2633A7B5936321EED1CDAEB6115181D2 SWAP1 PUSH1 0x20 ADD PUSH1 0x40 MLOAD DUP1 SWAP2 SUB SWAP1 LOG1 JUMPDEST POP JUMP JUMPDEST PUSH1 0x80 MLOAD PUSH2 0x249D PUSH2 0xF9 PUSH0 CODECOPY PUSH0 DUP2 DUP2 PUSH2 0x18DC ADD MSTORE DUP2 DUP2 PUSH2 0x1905 ADD MSTORE PUSH2 0x1A68 ADD MSTORE PUSH2 0x249D PUSH0 RETURN INVALID PUSH1 0x80 PUSH1 0x40 MSTORE PUSH1 0x4 CALLDATASIZE LT PUSH2 0x236 JUMPI PUSH0 CALLDATALOAD PUSH1 0xE0 SHR DUP1 PUSH4 0x8456CB59 GT PUSH2 0x129 JUMPI DUP1 PUSH4 0xC01A8C84 GT PUSH2 0xA8 JUMPI DUP1 PUSH4 0xD836FC6F GT PUSH2 0x6D JUMPI DUP1 PUSH4 0xD836FC6F EQ PUSH2 0x6CC JUMPI DUP1 PUSH4 0xE63AB1E9 EQ PUSH2 0x6EB JUMPI DUP1 PUSH4 0xEE22610B EQ PUSH2 0x70B JUMPI DUP1 PUSH4 0xF4E0D9AC EQ PUSH2 0x72A JUMPI DUP1 PUSH4 0xF72C0D8B EQ PUSH2 0x749 JUMPI PUSH0 DUP1 REVERT JUMPDEST DUP1 PUSH4 0xC01A8C84 EQ PUSH2 0x63B JUMPI DUP1 PUSH4 0xC63A6AD2 EQ PUSH2 0x65A JUMPI DUP1 PUSH4 0xC6427474 EQ PUSH2 0x66F JUMPI DUP1 PUSH4 0xD547741F EQ PUSH2 0x68E JUMPI DUP1 PUSH4 0xD7B4BE24 EQ PUSH2 0x6AD JUMPI PUSH0 DUP1 REVERT JUMPDEST DUP1 PUSH4 0x9ACE38C2 GT PUSH2 0xEE JUMPI DUP1 PUSH4 0x9ACE38C2 EQ PUSH2 0x588 JUMPI DUP1 PUSH4 0xA217FDDF EQ PUSH2 0x5B8 JUMPI DUP1 PUSH4 0xA5CE413B EQ PUSH2 0x5CB JUMPI DUP1 PUSH4 0xAD3CB1CC EQ PUSH2 0x5DF JUMPI DUP1 PUSH4 0xB001F618 EQ PUSH2 0x61C JUMPI PUSH0 DUP1 REVERT JUMPDEST DUP1 PUSH4 0x8456CB59 EQ PUSH2 0x4F8 JUMPI DUP1 PUSH4 0x8A2ADE58 EQ PUSH2 0x50C JUMPI DUP1 PUSH4 0x91D14854 EQ PUSH2 0x52B JUMPI DUP1 PUSH4 0x965AFA89 EQ PUSH2 0x54A JUMPI DUP1 PUSH4 0x9A03D9A3 EQ PUSH2 0x569 JUMPI PUSH0 DUP1 REVERT JUMPDEST DUP1 PUSH4 0x3F4BA83A GT PUSH2 0x1B5 JUMPI DUP1 PUSH4 0x63447471 GT PUSH2 0x17A JUMPI DUP1 PUSH4 0x63447471 EQ PUSH2 0x44C JUMPI DUP1 PUSH4 0x7547C7A3 EQ PUSH2 0x46B JUMPI DUP1 PUSH4 0x75B238FC EQ PUSH2 0x48A JUMPI DUP1 PUSH4 0x80F59A65 EQ PUSH2 0x4AA JUMPI DUP1 PUSH4 0x82E717F7 EQ PUSH2 0x4E3 JUMPI PUSH0 DUP1 REVERT JUMPDEST DUP1 PUSH4 0x3F4BA83A EQ PUSH2 0x3DC JUMPI DUP1 PUSH4 0x41BEC0D2 EQ PUSH2 0x3F0 JUMPI DUP1 PUSH4 0x4F1EF286 EQ PUSH2 0x40F JUMPI DUP1 PUSH4 0x52D1902D EQ PUSH2 0x422 JUMPI DUP1 PUSH4 0x5C975ABB EQ PUSH2 0x436 JUMPI PUSH0 DUP1 REVERT JUMPDEST DUP1 PUSH4 0x2352A864 GT PUSH2 0x1FB JUMPI DUP1 PUSH4 0x2352A864 EQ PUSH2 0x333 JUMPI DUP1 PUSH4 0x248A9CA3 EQ PUSH2 0x352 JUMPI DUP1 PUSH4 0x276184AE EQ PUSH2 0x37F JUMPI DUP1 PUSH4 0x2F2FF15D EQ PUSH2 0x39E JUMPI DUP1 PUSH4 0x36568ABE EQ PUSH2 0x3BD JUMPI PUSH0 DUP1 REVERT JUMPDEST DUP1 PUSH4 0x1FFC9A7 EQ PUSH2 0x241 JUMPI DUP1 PUSH4 0x5142002 EQ PUSH2 0x275 JUMPI DUP1 PUSH4 0x16934FC4 EQ PUSH2 0x2AC JUMPI DUP1 PUSH4 0x20EA8D86 EQ PUSH2 0x2F3 JUMPI DUP1 PUSH4 0x2131C68C EQ PUSH2 0x314 JUMPI PUSH0 DUP1 REVERT JUMPDEST CALLDATASIZE PUSH2 0x23D JUMPI STOP JUMPDEST PUSH0 DUP1 REVERT JUMPDEST CALLVALUE DUP1 ISZERO PUSH2 0x24C JUMPI PUSH0 DUP1 REVERT JUMPDEST POP PUSH2 0x260 PUSH2 0x25B CALLDATASIZE PUSH1 0x4 PUSH2 0x1DED JUMP JUMPDEST PUSH2 0x77C JUMP JUMPDEST PUSH1 0x40 MLOAD SWAP1 ISZERO ISZERO DUP2 MSTORE PUSH1 0x20 ADD JUMPDEST PUSH1 0x40 MLOAD DUP1 SWAP2 SUB SWAP1 RETURN JUMPDEST CALLVALUE DUP1 ISZERO PUSH2 0x280 JUMPI PUSH0 DUP1 REVERT JUMPDEST POP PUSH1 0x34 SLOAD PUSH2 0x294 SWAP1 PUSH1 0x1 PUSH1 0x1 PUSH1 0xA0 SHL SUB AND DUP2 JUMP JUMPDEST PUSH1 0x40 MLOAD PUSH1 0x1 PUSH1 0x1 PUSH1 0xA0 SHL SUB SWAP1 SWAP2 AND DUP2 MSTORE PUSH1 0x20 ADD PUSH2 0x26C JUMP JUMPDEST CALLVALUE DUP1 ISZERO PUSH2 0x2B7 JUMPI PUSH0 DUP1 REVERT JUMPDEST POP PUSH2 0x2DE PUSH2 0x2C6 CALLDATASIZE PUSH1 0x4 PUSH2 0x1E2F JUMP JUMPDEST PUSH1 0x3B PUSH1 0x20 MSTORE PUSH0 SWAP1 DUP2 MSTORE PUSH1 0x40 SWAP1 KECCAK256 DUP1 SLOAD PUSH1 0x1 SWAP1 SWAP2 ADD SLOAD DUP3 JUMP JUMPDEST PUSH1 0x40 DUP1 MLOAD SWAP3 DUP4 MSTORE PUSH1 0x20 DUP4 ADD SWAP2 SWAP1 SWAP2 MSTORE ADD PUSH2 0x26C JUMP JUMPDEST CALLVALUE DUP1 ISZERO PUSH2 0x2FE JUMPI PUSH0 DUP1 REVERT JUMPDEST POP PUSH2 0x312 PUSH2 0x30D CALLDATASIZE PUSH1 0x4 PUSH2 0x1E48 JUMP JUMPDEST PUSH2 0x7B2 JUMP JUMPDEST STOP JUMPDEST CALLVALUE DUP1 ISZERO PUSH2 0x31F JUMPI PUSH0 DUP1 REVERT JUMPDEST POP PUSH1 0x35 SLOAD PUSH2 0x294 SWAP1 PUSH1 0x1 PUSH1 0x1 PUSH1 0xA0 SHL SUB AND DUP2 JUMP JUMPDEST CALLVALUE DUP1 ISZERO PUSH2 0x33E JUMPI PUSH0 DUP1 REVERT JUMPDEST POP PUSH1 0x33 SLOAD PUSH2 0x294 SWAP1 PUSH1 0x1 PUSH1 0x1 PUSH1 0xA0 SHL SUB AND DUP2 JUMP JUMPDEST CALLVALUE DUP1 ISZERO PUSH2 0x35D JUMPI PUSH0 DUP1 REVERT JUMPDEST POP PUSH2 0x371 PUSH2 0x36C CALLDATASIZE PUSH1 0x4 PUSH2 0x1E48 JUMP JUMPDEST PUSH2 0x949 JUMP JUMPDEST PUSH1 0x40 MLOAD SWAP1 DUP2 MSTORE PUSH1 0x20 ADD PUSH2 0x26C JUMP JUMPDEST CALLVALUE DUP1 ISZERO PUSH2 0x38A JUMPI PUSH0 DUP1 REVERT JUMPDEST POP PUSH1 0x32 SLOAD PUSH2 0x294 SWAP1 PUSH1 0x1 PUSH1 0x1 PUSH1 0xA0 SHL SUB AND DUP2 JUMP JUMPDEST CALLVALUE DUP1 ISZERO PUSH2 0x3A9 JUMPI PUSH0 DUP1 REVERT JUMPDEST POP PUSH2 0x312 PUSH2 0x3B8 CALLDATASIZE PUSH1 0x4 PUSH2 0x1E5F JUMP JUMPDEST PUSH2 0x969 JUMP JUMPDEST CALLVALUE DUP1 ISZERO PUSH2 0x3C8 JUMPI PUSH0 DUP1 REVERT JUMPDEST POP PUSH2 0x312 PUSH2 0x3D7 CALLDATASIZE PUSH1 0x4 PUSH2 0x1E5F JUMP JUMPDEST PUSH2 0x98B JUMP JUMPDEST CALLVALUE DUP1 ISZERO PUSH2 0x3E7 JUMPI PUSH0 DUP1 REVERT JUMPDEST POP PUSH2 0x312 PUSH2 0x9C3 JUMP JUMPDEST CALLVALUE DUP1 ISZERO PUSH2 0x3FB JUMPI PUSH0 DUP1 REVERT JUMPDEST POP PUSH2 0x312 PUSH2 0x40A CALLDATASIZE PUSH1 0x4 PUSH2 0x1E2F JUMP JUMPDEST PUSH2 0x9E5 JUMP JUMPDEST PUSH2 0x312 PUSH2 0x41D CALLDATASIZE PUSH1 0x4 PUSH2 0x1F28 JUMP JUMPDEST PUSH2 0xA3A JUMP JUMPDEST CALLVALUE DUP1 ISZERO PUSH2 0x42D JUMPI PUSH0 DUP1 REVERT JUMPDEST POP PUSH2 0x371 PUSH2 0xA59 JUMP JUMPDEST CALLVALUE DUP1 ISZERO PUSH2 0x441 JUMPI PUSH0 DUP1 REVERT JUMPDEST POP PUSH0 SLOAD PUSH1 0xFF AND PUSH2 0x260 JUMP JUMPDEST CALLVALUE DUP1 ISZERO PUSH2 0x457 JUMPI PUSH0 DUP1 REVERT JUMPDEST POP PUSH2 0x312 PUSH2 0x466 CALLDATASIZE PUSH1 0x4 PUSH2 0x1F73 JUMP JUMPDEST PUSH2 0xA74 JUMP JUMPDEST CALLVALUE DUP1 ISZERO PUSH2 0x476 JUMPI PUSH0 DUP1 REVERT JUMPDEST POP PUSH2 0x312 PUSH2 0x485 CALLDATASIZE PUSH1 0x4 PUSH2 0x1E48 JUMP JUMPDEST PUSH2 0xC6B JUMP JUMPDEST CALLVALUE DUP1 ISZERO PUSH2 0x495 JUMPI PUSH0 DUP1 REVERT JUMPDEST POP PUSH2 0x371 PUSH0 DUP1 MLOAD PUSH1 0x20 PUSH2 0x2448 DUP4 CODECOPY DUP2 MLOAD SWAP2 MSTORE DUP2 JUMP JUMPDEST CALLVALUE DUP1 ISZERO PUSH2 0x4B5 JUMPI PUSH0 DUP1 REVERT JUMPDEST POP PUSH2 0x260 PUSH2 0x4C4 CALLDATASIZE PUSH1 0x4 PUSH2 0x1E5F JUMP JUMPDEST PUSH1 0x38 PUSH1 0x20 SWAP1 DUP2 MSTORE PUSH0 SWAP3 DUP4 MSTORE PUSH1 0x40 DUP1 DUP5 KECCAK256 SWAP1 SWAP2 MSTORE SWAP1 DUP3 MSTORE SWAP1 KECCAK256 SLOAD PUSH1 0xFF AND DUP2 JUMP JUMPDEST CALLVALUE DUP1 ISZERO PUSH2 0x4EE JUMPI PUSH0 DUP1 REVERT JUMPDEST POP PUSH2 0x371 PUSH1 0x3A SLOAD DUP2 JUMP JUMPDEST CALLVALUE DUP1 ISZERO PUSH2 0x503 JUMPI PUSH0 DUP1 REVERT JUMPDEST POP PUSH2 0x312 PUSH2 0xD9E JUMP JUMPDEST CALLVALUE DUP1 ISZERO PUSH2 0x517 JUMPI PUSH0 DUP1 REVERT JUMPDEST POP PUSH1 0x37 SLOAD PUSH2 0x294 SWAP1 PUSH1 0x1 PUSH1 0x1 PUSH1 0xA0 SHL SUB AND DUP2 JUMP JUMPDEST CALLVALUE DUP1 ISZERO PUSH2 0x536 JUMPI PUSH0 DUP1 REVERT JUMPDEST POP PUSH2 0x260 PUSH2 0x545 CALLDATASIZE PUSH1 0x4 PUSH2 0x1E5F JUMP JUMPDEST PUSH2 0xDBD JUMP JUMPDEST CALLVALUE DUP1 ISZERO PUSH2 0x555 JUMPI PUSH0 DUP1 REVERT JUMPDEST POP PUSH2 0x312 PUSH2 0x564 CALLDATASIZE PUSH1 0x4 PUSH2 0x1E2F JUMP JUMPDEST PUSH2 0xDF3 JUMP JUMPDEST CALLVALUE DUP1 ISZERO PUSH2 0x574 JUMPI PUSH0 DUP1 REVERT JUMPDEST POP PUSH2 0x312 PUSH2 0x583 CALLDATASIZE PUSH1 0x4 PUSH2 0x1E2F JUMP JUMPDEST PUSH2 0xE48 JUMP JUMPDEST CALLVALUE DUP1 ISZERO PUSH2 0x593 JUMPI PUSH0 DUP1 REVERT JUMPDEST POP PUSH2 0x5A7 PUSH2 0x5A2 CALLDATASIZE PUSH1 0x4 PUSH2 0x1E48 JUMP JUMPDEST PUSH2 0xE9D JUMP JUMPDEST PUSH1 0x40 MLOAD PUSH2 0x26C SWAP6 SWAP5 SWAP4 SWAP3 SWAP2 SWAP1 PUSH2 0x2035 JUMP JUMPDEST CALLVALUE DUP1 ISZERO PUSH2 0x5C3 JUMPI PUSH0 DUP1 REVERT JUMPDEST POP PUSH2 0x371 PUSH0 DUP2 JUMP JUMPDEST CALLVALUE DUP1 ISZERO PUSH2 0x5D6 JUMPI PUSH0 DUP1 REVERT JUMPDEST POP PUSH2 0x312 PUSH2 0xF72 JUMP JUMPDEST CALLVALUE DUP1 ISZERO PUSH2 0x5EA JUMPI PUSH0 DUP1 REVERT JUMPDEST POP PUSH2 0x60F PUSH1 0x40 MLOAD DUP1 PUSH1 0x40 ADD PUSH1 0x40 MSTORE DUP1 PUSH1 0x5 DUP2 MSTORE PUSH1 0x20 ADD PUSH5 0x352E302E3 PUSH1 0xDC SHL DUP2 MSTORE POP DUP2 JUMP JUMPDEST PUSH1 0x40 MLOAD PUSH2 0x26C SWAP2 SWAP1 PUSH2 0x206F JUMP JUMPDEST CALLVALUE DUP1 ISZERO PUSH2 0x627 JUMPI PUSH0 DUP1 REVERT JUMPDEST POP PUSH2 0x312 PUSH2 0x636 CALLDATASIZE PUSH1 0x4 PUSH2 0x1E2F JUMP JUMPDEST PUSH2 0x1154 JUMP JUMPDEST CALLVALUE DUP1 ISZERO PUSH2 0x646 JUMPI PUSH0 DUP1 REVERT JUMPDEST POP PUSH2 0x312 PUSH2 0x655 CALLDATASIZE PUSH1 0x4 PUSH2 0x1E48 JUMP JUMPDEST PUSH2 0x11A9 JUMP JUMPDEST CALLVALUE DUP1 ISZERO PUSH2 0x665 JUMPI PUSH0 DUP1 REVERT JUMPDEST POP PUSH2 0x371 PUSH1 0x3C SLOAD DUP2 JUMP JUMPDEST CALLVALUE DUP1 ISZERO PUSH2 0x67A JUMPI PUSH0 DUP1 REVERT JUMPDEST POP PUSH2 0x312 PUSH2 0x689 CALLDATASIZE PUSH1 0x4 PUSH2 0x2081 JUMP JUMPDEST PUSH2 0x133D JUMP JUMPDEST CALLVALUE DUP1 ISZERO PUSH2 0x699 JUMPI PUSH0 DUP1 REVERT JUMPDEST POP PUSH2 0x312 PUSH2 0x6A8 CALLDATASIZE PUSH1 0x4 PUSH2 0x1E5F JUMP JUMPDEST PUSH2 0x14A1 JUMP JUMPDEST CALLVALUE DUP1 ISZERO PUSH2 0x6B8 JUMPI PUSH0 DUP1 REVERT JUMPDEST POP PUSH1 0x36 SLOAD PUSH2 0x294 SWAP1 PUSH1 0x1 PUSH1 0x1 PUSH1 0xA0 SHL SUB AND DUP2 JUMP JUMPDEST CALLVALUE DUP1 ISZERO PUSH2 0x6D7 JUMPI PUSH0 DUP1 REVERT JUMPDEST POP PUSH2 0x312 PUSH2 0x6E6 CALLDATASIZE PUSH1 0x4 PUSH2 0x1E2F JUMP JUMPDEST PUSH2 0x14BD JUMP JUMPDEST CALLVALUE DUP1 ISZERO PUSH2 0x6F6 JUMPI PUSH0 DUP1 REVERT JUMPDEST POP PUSH2 0x371 PUSH0 DUP1 MLOAD PUSH1 0x20 PUSH2 0x2408 DUP4 CODECOPY DUP2 MLOAD SWAP2 MSTORE DUP2 JUMP JUMPDEST CALLVALUE DUP1 ISZERO PUSH2 0x716 JUMPI PUSH0 DUP1 REVERT JUMPDEST POP PUSH2 0x312 PUSH2 0x725 CALLDATASIZE PUSH1 0x4 PUSH2 0x1E48 JUMP JUMPDEST PUSH2 0x1512 JUMP JUMPDEST CALLVALUE DUP1 ISZERO PUSH2 0x735 JUMPI PUSH0 DUP1 REVERT JUMPDEST POP PUSH2 0x312 PUSH2 0x744 CALLDATASIZE PUSH1 0x4 PUSH2 0x1E2F JUMP JUMPDEST PUSH2 0x1707 JUMP JUMPDEST CALLVALUE DUP1 ISZERO PUSH2 0x754 JUMPI PUSH0 DUP1 REVERT JUMPDEST POP PUSH2 0x371 PUSH32 0x189AB7A9244DF0848122154315AF71FE140F3DB0FE014031783B0946B8C9D2E3 DUP2 JUMP JUMPDEST PUSH0 PUSH1 0x1 PUSH1 0x1 PUSH1 0xE0 SHL SUB NOT DUP3 AND PUSH4 0x7965DB0B PUSH1 0xE0 SHL EQ DUP1 PUSH2 0x7AC JUMPI POP PUSH4 0x1FFC9A7 PUSH1 0xE0 SHL PUSH1 0x1 PUSH1 0x1 PUSH1 0xE0 SHL SUB NOT DUP4 AND EQ JUMPDEST SWAP3 SWAP2 POP POP JUMP JUMPDEST PUSH2 0x7C9 PUSH0 DUP1 MLOAD PUSH1 0x20 PUSH2 0x2448 DUP4 CODECOPY DUP2 MLOAD SWAP2 MSTORE CALLER PUSH2 0xDBD JUMP JUMPDEST PUSH2 0x7EE JUMPI PUSH1 0x40 MLOAD PUSH3 0x461BCD PUSH1 0xE5 SHL DUP2 MSTORE PUSH1 0x4 ADD PUSH2 0x7E5 SWAP1 PUSH2 0x20D4 JUMP JUMPDEST PUSH1 0x40 MLOAD DUP1 SWAP2 SUB SWAP1 REVERT JUMPDEST PUSH1 0x39 SLOAD DUP2 SWAP1 DUP2 LT PUSH2 0x811 JUMPI PUSH1 0x40 MLOAD PUSH3 0x461BCD PUSH1 0xE5 SHL DUP2 MSTORE PUSH1 0x4 ADD PUSH2 0x7E5 SWAP1 PUSH2 0x20FA JUMP JUMPDEST DUP2 PUSH1 0x39 DUP2 DUP2 SLOAD DUP2 LT PUSH2 0x825 JUMPI PUSH2 0x825 PUSH2 0x2131 JUMP JUMPDEST PUSH0 SWAP2 DUP3 MSTORE PUSH1 0x20 SWAP1 SWAP2 KECCAK256 PUSH1 0x3 PUSH1 0x5 SWAP1 SWAP3 MUL ADD ADD SLOAD PUSH1 0xFF AND ISZERO PUSH2 0x858 JUMPI PUSH1 0x40 MLOAD PUSH3 0x461BCD PUSH1 0xE5 SHL DUP2 MSTORE PUSH1 0x4 ADD PUSH2 0x7E5 SWAP1 PUSH2 0x2145 JUMP JUMPDEST PUSH0 PUSH1 0x39 DUP5 DUP2 SLOAD DUP2 LT PUSH2 0x86C JUMPI PUSH2 0x86C PUSH2 0x2131 JUMP JUMPDEST PUSH0 SWAP2 DUP3 MSTORE PUSH1 0x20 DUP1 DUP4 KECCAK256 DUP8 DUP5 MSTORE PUSH1 0x38 DUP3 MSTORE PUSH1 0x40 DUP1 DUP6 KECCAK256 CALLER DUP7 MSTORE SWAP1 SWAP3 MSTORE SWAP3 KECCAK256 SLOAD PUSH1 0x5 SWAP1 SWAP2 MUL SWAP1 SWAP2 ADD SWAP2 POP PUSH1 0xFF AND PUSH2 0x8E3 JUMPI PUSH1 0x40 MLOAD PUSH3 0x461BCD PUSH1 0xE5 SHL DUP2 MSTORE PUSH1 0x20 PUSH1 0x4 DUP3 ADD MSTORE PUSH1 0x19 PUSH1 0x24 DUP3 ADD MSTORE PUSH32 0x5472616E73616374696F6E206E6F7420636F6E6669726D656400000000000000 PUSH1 0x44 DUP3 ADD MSTORE PUSH1 0x64 ADD PUSH2 0x7E5 JUMP JUMPDEST PUSH1 0x1 DUP2 PUSH1 0x4 ADD PUSH0 DUP3 DUP3 SLOAD PUSH2 0x8F7 SWAP2 SWAP1 PUSH2 0x2190 JUMP JUMPDEST SWAP1 SWAP2 SSTORE POP POP PUSH0 DUP5 DUP2 MSTORE PUSH1 0x38 PUSH1 0x20 SWAP1 DUP2 MSTORE PUSH1 0x40 DUP1 DUP4 KECCAK256 CALLER DUP1 DUP6 MSTORE SWAP3 MSTORE DUP1 DUP4 KECCAK256 DUP1 SLOAD PUSH1 0xFF NOT AND SWAP1 SSTORE MLOAD DUP7 SWAP3 PUSH32 0xE5C8875C5E14471F806F15F740CD9FD54937D151E9DCF8AD3BA988D6A285E67E SWAP2 LOG3 POP POP POP POP JUMP JUMPDEST PUSH0 SWAP1 DUP2 MSTORE PUSH0 DUP1 MLOAD PUSH1 0x20 PUSH2 0x2428 DUP4 CODECOPY DUP2 MLOAD SWAP2 MSTORE PUSH1 0x20 MSTORE PUSH1 0x40 SWAP1 KECCAK256 PUSH1 0x1 ADD SLOAD SWAP1 JUMP JUMPDEST PUSH2 0x972 DUP3 PUSH2 0x949 JUMP JUMPDEST PUSH2 0x97B DUP2 PUSH2 0x175C JUMP JUMPDEST PUSH2 0x985 DUP4 DUP4 PUSH2 0x1766 JUMP JUMPDEST POP POP POP POP JUMP JUMPDEST PUSH1 0x1 PUSH1 0x1 PUSH1 0xA0 SHL SUB DUP2 AND CALLER EQ PUSH2 0x9B4 JUMPI PUSH1 0x40 MLOAD PUSH4 0x334BD919 PUSH1 0xE1 SHL DUP2 MSTORE PUSH1 0x4 ADD PUSH1 0x40 MLOAD DUP1 SWAP2 SUB SWAP1 REVERT JUMPDEST PUSH2 0x9BE DUP3 DUP3 PUSH2 0x1807 JUMP JUMPDEST POP POP POP JUMP JUMPDEST PUSH0 DUP1 MLOAD PUSH1 0x20 PUSH2 0x2408 DUP4 CODECOPY DUP2 MLOAD SWAP2 MSTORE PUSH2 0x9DA DUP2 PUSH2 0x175C JUMP JUMPDEST PUSH2 0x9E2 PUSH2 0x1880 JUMP JUMPDEST POP JUMP JUMPDEST PUSH2 0x9FC PUSH0 DUP1 MLOAD PUSH1 0x20 PUSH2 0x2448 DUP4 CODECOPY DUP2 MLOAD SWAP2 MSTORE CALLER PUSH2 0xDBD JUMP JUMPDEST PUSH2 0xA18 JUMPI PUSH1 0x40 MLOAD PUSH3 0x461BCD PUSH1 0xE5 SHL DUP2 MSTORE PUSH1 0x4 ADD PUSH2 0x7E5 SWAP1 PUSH2 0x20D4 JUMP JUMPDEST PUSH1 0x32 DUP1 SLOAD PUSH1 0x1 PUSH1 0x1 PUSH1 0xA0 SHL SUB NOT AND PUSH1 0x1 PUSH1 0x1 PUSH1 0xA0 SHL SUB SWAP3 SWAP1 SWAP3 AND SWAP2 SWAP1 SWAP2 OR SWAP1 SSTORE JUMP JUMPDEST PUSH2 0xA42 PUSH2 0x18D1 JUMP JUMPDEST PUSH2 0xA4B DUP3 PUSH2 0x1977 JUMP JUMPDEST PUSH2 0xA55 DUP3 DUP3 PUSH2 0x19A1 JUMP JUMPDEST POP POP JUMP JUMPDEST PUSH0 PUSH2 0xA62 PUSH2 0x1A5D JUMP JUMPDEST POP PUSH0 DUP1 MLOAD PUSH1 0x20 PUSH2 0x23E8 DUP4 CODECOPY DUP2 MLOAD SWAP2 MSTORE SWAP1 JUMP JUMPDEST PUSH32 0xF0C57E16840DF040F15088DC2F81FE391C3923BEC73E23A9662EFC9C229C6A00 DUP1 SLOAD PUSH1 0x1 PUSH1 0x40 SHL DUP2 DIV PUSH1 0xFF AND ISZERO SWAP1 PUSH8 0xFFFFFFFFFFFFFFFF AND PUSH0 DUP2 ISZERO DUP1 ISZERO PUSH2 0xAB9 JUMPI POP DUP3 JUMPDEST SWAP1 POP PUSH0 DUP3 PUSH8 0xFFFFFFFFFFFFFFFF AND PUSH1 0x1 EQ DUP1 ISZERO PUSH2 0xAD5 JUMPI POP ADDRESS EXTCODESIZE ISZERO JUMPDEST SWAP1 POP DUP2 ISZERO DUP1 ISZERO PUSH2 0xAE3 JUMPI POP DUP1 ISZERO JUMPDEST ISZERO PUSH2 0xB01 JUMPI PUSH1 0x40 MLOAD PUSH4 0xF92EE8A9 PUSH1 0xE0 SHL DUP2 MSTORE PUSH1 0x4 ADD PUSH1 0x40 MLOAD DUP1 SWAP2 SUB SWAP1 REVERT JUMPDEST DUP5 SLOAD PUSH8 0xFFFFFFFFFFFFFFFF NOT AND PUSH1 0x1 OR DUP6 SSTORE DUP4 ISZERO PUSH2 0xB2B JUMPI DUP5 SLOAD PUSH1 0xFF PUSH1 0x40 SHL NOT AND PUSH1 0x1 PUSH1 0x40 SHL OR DUP6 SSTORE JUMPDEST PUSH2 0xB33 PUSH2 0x1AA6 JUMP JUMPDEST PUSH2 0xB3B PUSH2 0x1AAE JUMP JUMPDEST PUSH2 0xB43 PUSH2 0x1AA6 JUMP JUMPDEST PUSH2 0xB4D PUSH0 DUP16 PUSH2 0x1766 JUMP JUMPDEST POP PUSH2 0xB65 PUSH0 DUP1 MLOAD PUSH1 0x20 PUSH2 0x2408 DUP4 CODECOPY DUP2 MLOAD SWAP2 MSTORE DUP16 PUSH2 0x1766 JUMP JUMPDEST POP PUSH2 0xB7D PUSH0 DUP1 MLOAD PUSH1 0x20 PUSH2 0x2448 DUP4 CODECOPY DUP2 MLOAD SWAP2 MSTORE DUP16 PUSH2 0x1766 JUMP JUMPDEST POP PUSH2 0xBA8 PUSH32 0x189AB7A9244DF0848122154315AF71FE140F3DB0FE014031783B0946B8C9D2E3 DUP16 PUSH2 0x1766 JUMP JUMPDEST POP PUSH1 0x3A DUP14 SWAP1 SSTORE PUSH1 0x3C DUP13 SWAP1 SSTORE PUSH1 0x32 DUP1 SLOAD PUSH1 0x1 PUSH1 0x1 PUSH1 0xA0 SHL SUB NOT SWAP1 DUP2 AND PUSH1 0x1 PUSH1 0x1 PUSH1 0xA0 SHL SUB DUP15 DUP2 AND SWAP2 SWAP1 SWAP2 OR SWAP1 SWAP3 SSTORE PUSH1 0x33 DUP1 SLOAD DUP3 AND DUP14 DUP5 AND OR SWAP1 SSTORE PUSH1 0x34 DUP1 SLOAD DUP3 AND DUP13 DUP5 AND OR SWAP1 SSTORE PUSH1 0x35 DUP1 SLOAD DUP3 AND DUP12 DUP5 AND OR SWAP1 SSTORE PUSH1 0x36 DUP1 SLOAD DUP3 AND DUP11 DUP5 AND OR SWAP1 SSTORE PUSH1 0x37 DUP1 SLOAD SWAP1 SWAP2 AND SWAP2 DUP9 AND SWAP2 SWAP1 SWAP2 OR SWAP1 SSTORE DUP4 ISZERO PUSH2 0xC5B JUMPI DUP5 SLOAD PUSH1 0xFF PUSH1 0x40 SHL NOT AND DUP6 SSTORE PUSH1 0x40 MLOAD PUSH1 0x1 DUP2 MSTORE PUSH32 0xC7F505B2F371AE2175EE4913F4499E1F2633A7B5936321EED1CDAEB6115181D2 SWAP1 PUSH1 0x20 ADD PUSH1 0x40 MLOAD DUP1 SWAP2 SUB SWAP1 LOG1 JUMPDEST POP POP POP POP POP POP POP POP POP POP POP POP POP POP JUMP JUMPDEST PUSH2 0xC73 PUSH2 0x1ABE JUMP JUMPDEST PUSH1 0x32 SLOAD PUSH1 0x40 MLOAD PUSH4 0x23B872DD PUSH1 0xE0 SHL DUP2 MSTORE CALLER PUSH1 0x4 DUP3 ADD MSTORE ADDRESS PUSH1 0x24 DUP3 ADD MSTORE PUSH1 0x44 DUP2 ADD DUP4 SWAP1 MSTORE PUSH1 0x1 PUSH1 0x1 PUSH1 0xA0 SHL SUB SWAP1 SWAP2 AND SWAP1 DUP2 SWAP1 PUSH4 0x23B872DD SWAP1 PUSH1 0x64 ADD PUSH1 0x20 PUSH1 0x40 MLOAD DUP1 DUP4 SUB DUP2 PUSH0 DUP8 GAS CALL ISZERO DUP1 ISZERO PUSH2 0xCC9 JUMPI RETURNDATASIZE PUSH0 DUP1 RETURNDATACOPY RETURNDATASIZE PUSH0 REVERT JUMPDEST POP POP POP POP PUSH1 0x40 MLOAD RETURNDATASIZE PUSH1 0x1F NOT PUSH1 0x1F DUP3 ADD AND DUP3 ADD DUP1 PUSH1 0x40 MSTORE POP DUP2 ADD SWAP1 PUSH2 0xCED SWAP2 SWAP1 PUSH2 0x21A3 JUMP JUMPDEST PUSH2 0xD31 JUMPI PUSH1 0x40 MLOAD PUSH3 0x461BCD PUSH1 0xE5 SHL DUP2 MSTORE PUSH1 0x20 PUSH1 0x4 DUP3 ADD MSTORE PUSH1 0x15 PUSH1 0x24 DUP3 ADD MSTORE PUSH21 0x151BDAD95B881D1C985B9CD9995C8819985A5B1959 PUSH1 0x5A SHL PUSH1 0x44 DUP3 ADD MSTORE PUSH1 0x64 ADD PUSH2 0x7E5 JUMP JUMPDEST PUSH1 0x40 DUP1 MLOAD DUP1 DUP3 ADD DUP3 MSTORE DUP4 DUP2 MSTORE TIMESTAMP PUSH1 0x20 DUP1 DUP4 ADD DUP3 DUP2 MSTORE CALLER PUSH0 DUP2 DUP2 MSTORE PUSH1 0x3B DUP5 MSTORE DUP7 SWAP1 KECCAK256 SWAP5 MLOAD DUP6 SSTORE SWAP1 MLOAD PUSH1 0x1 SWAP1 SWAP5 ADD SWAP4 SWAP1 SWAP4 SSTORE DUP4 MLOAD DUP7 DUP2 MSTORE SWAP1 DUP2 ADD SWAP2 SWAP1 SWAP2 MSTORE SWAP1 SWAP2 PUSH32 0xDD2A19C3BDD089CBE77C04F5655F83DE0504D6140D12C8667646F55D0557C4DC SWAP2 ADD PUSH1 0x40 MLOAD DUP1 SWAP2 SUB SWAP1 LOG2 POP POP JUMP JUMPDEST PUSH0 DUP1 MLOAD PUSH1 0x20 PUSH2 0x2408 DUP4 CODECOPY DUP2 MLOAD SWAP2 MSTORE PUSH2 0xDB5 DUP2 PUSH2 0x175C JUMP JUMPDEST PUSH2 0x9E2 PUSH2 0x1B03 JUMP JUMPDEST PUSH0 SWAP2 DUP3 MSTORE PUSH0 DUP1 MLOAD PUSH1 0x20 PUSH2 0x2428 DUP4 CODECOPY DUP2 MLOAD SWAP2 MSTORE PUSH1 0x20 SWAP1 DUP2 MSTORE PUSH1 0x40 DUP1 DUP5 KECCAK256 PUSH1 0x1 PUSH1 0x1 PUSH1 0xA0 SHL SUB SWAP4 SWAP1 SWAP4 AND DUP5 MSTORE SWAP2 SWAP1 MSTORE SWAP1 KECCAK256 SLOAD PUSH1 0xFF AND SWAP1 JUMP JUMPDEST PUSH2 0xE0A PUSH0 DUP1 MLOAD PUSH1 0x20 PUSH2 0x2448 DUP4 CODECOPY DUP2 MLOAD SWAP2 MSTORE CALLER PUSH2 0xDBD JUMP JUMPDEST PUSH2 0xE26 JUMPI PUSH1 0x40 MLOAD PUSH3 0x461BCD PUSH1 0xE5 SHL DUP2 MSTORE PUSH1 0x4 ADD PUSH2 0x7E5 SWAP1 PUSH2 0x20D4 JUMP JUMPDEST PUSH1 0x35 DUP1 SLOAD PUSH1 0x1 PUSH1 0x1 PUSH1 0xA0 SHL SUB NOT AND PUSH1 0x1 PUSH1 0x1 PUSH1 0xA0 SHL SUB SWAP3 SWAP1 SWAP3 AND SWAP2 SWAP1 SWAP2 OR SWAP1 SSTORE JUMP JUMPDEST PUSH2 0xE5F PUSH0 DUP1 MLOAD PUSH1 0x20 PUSH2 0x2448 DUP4 CODECOPY DUP2 MLOAD SWAP2 MSTORE CALLER PUSH2 0xDBD JUMP JUMPDEST PUSH2 0xE7B JUMPI PUSH1 0x40 MLOAD PUSH3 0x461BCD PUSH1 0xE5 SHL DUP2 MSTORE PUSH1 0x4 ADD PUSH2 0x7E5 SWAP1 PUSH2 0x20D4 JUMP JUMPDEST PUSH1 0x33 DUP1 SLOAD PUSH1 0x1 PUSH1 0x1 PUSH1 0xA0 SHL SUB NOT AND PUSH1 0x1 PUSH1 0x1 PUSH1 0xA0 SHL SUB SWAP3 SWAP1 SWAP3 AND SWAP2 SWAP1 SWAP2 OR SWAP1 SSTORE JUMP JUMPDEST PUSH1 0x39 DUP2 DUP2 SLOAD DUP2 LT PUSH2 0xEAC JUMPI PUSH0 DUP1 REVERT JUMPDEST PUSH0 SWAP2 DUP3 MSTORE PUSH1 0x20 SWAP1 SWAP2 KECCAK256 PUSH1 0x5 SWAP1 SWAP2 MUL ADD DUP1 SLOAD PUSH1 0x1 DUP3 ADD SLOAD PUSH1 0x2 DUP4 ADD DUP1 SLOAD PUSH1 0x1 PUSH1 0x1 PUSH1 0xA0 SHL SUB SWAP1 SWAP4 AND SWAP5 POP SWAP1 SWAP3 SWAP2 PUSH2 0xEE1 SWAP1 PUSH2 0x21C2 JUMP JUMPDEST DUP1 PUSH1 0x1F ADD PUSH1 0x20 DUP1 SWAP2 DIV MUL PUSH1 0x20 ADD PUSH1 0x40 MLOAD SWAP1 DUP2 ADD PUSH1 0x40 MSTORE DUP1 SWAP3 SWAP2 SWAP1 DUP2 DUP2 MSTORE PUSH1 0x20 ADD DUP3 DUP1 SLOAD PUSH2 0xF0D SWAP1 PUSH2 0x21C2 JUMP JUMPDEST DUP1 ISZERO PUSH2 0xF58 JUMPI DUP1 PUSH1 0x1F LT PUSH2 0xF2F JUMPI PUSH2 0x100 DUP1 DUP4 SLOAD DIV MUL DUP4 MSTORE SWAP2 PUSH1 0x20 ADD SWAP2 PUSH2 0xF58 JUMP JUMPDEST DUP3 ADD SWAP2 SWAP1 PUSH0 MSTORE PUSH1 0x20 PUSH0 KECCAK256 SWAP1 JUMPDEST DUP2 SLOAD DUP2 MSTORE SWAP1 PUSH1 0x1 ADD SWAP1 PUSH1 0x20 ADD DUP1 DUP4 GT PUSH2 0xF3B JUMPI DUP3 SWAP1 SUB PUSH1 0x1F AND DUP3 ADD SWAP2 JUMPDEST POP POP POP POP PUSH1 0x3 DUP4 ADD SLOAD PUSH1 0x4 SWAP1 SWAP4 ADD SLOAD SWAP2 SWAP3 PUSH1 0xFF AND SWAP2 SWAP1 POP DUP6 JUMP JUMPDEST PUSH2 0xF7A PUSH2 0x1ABE JUMP JUMPDEST CALLER PUSH0 SWAP1 DUP2 MSTORE PUSH1 0x3B PUSH1 0x20 SWAP1 DUP2 MSTORE PUSH1 0x40 SWAP2 DUP3 SWAP1 KECCAK256 DUP3 MLOAD DUP1 DUP5 ADD SWAP1 SWAP4 MSTORE DUP1 SLOAD DUP1 DUP5 MSTORE PUSH1 0x1 SWAP1 SWAP2 ADD SLOAD SWAP2 DUP4 ADD SWAP2 SWAP1 SWAP2 MSTORE PUSH2 0xFE5 JUMPI PUSH1 0x40 MLOAD PUSH3 0x461BCD PUSH1 0xE5 SHL DUP2 MSTORE PUSH1 0x20 PUSH1 0x4 DUP3 ADD MSTORE PUSH1 0x10 PUSH1 0x24 DUP3 ADD MSTORE PUSH16 0x139BC81D1BDAD95B9CC81CDD185AD959 PUSH1 0x82 SHL PUSH1 0x44 DUP3 ADD MSTORE PUSH1 0x64 ADD PUSH2 0x7E5 JUMP JUMPDEST PUSH0 DUP2 PUSH1 0x20 ADD MLOAD TIMESTAMP PUSH2 0xFF6 SWAP2 SWAP1 PUSH2 0x2190 JUMP JUMPDEST SWAP1 POP PUSH0 PUSH4 0x1E13380 DUP3 PUSH1 0x3C SLOAD DUP6 PUSH0 ADD MLOAD PUSH2 0x1010 SWAP2 SWAP1 PUSH2 0x21FA JUMP JUMPDEST PUSH2 0x101A SWAP2 SWAP1 PUSH2 0x21FA JUMP JUMPDEST PUSH2 0x1024 SWAP2 SWAP1 PUSH2 0x2211 JUMP JUMPDEST PUSH1 0x32 SLOAD DUP5 MLOAD SWAP2 SWAP3 POP PUSH1 0x1 PUSH1 0x1 PUSH1 0xA0 SHL SUB AND SWAP1 DUP2 SWAP1 PUSH4 0xA9059CBB SWAP1 CALLER SWAP1 PUSH2 0x104B SWAP1 DUP7 SWAP1 PUSH2 0x2230 JUMP JUMPDEST PUSH1 0x40 MLOAD PUSH1 0x1 PUSH1 0x1 PUSH1 0xE0 SHL SUB NOT PUSH1 0xE0 DUP6 SWAP1 SHL AND DUP2 MSTORE PUSH1 0x1 PUSH1 0x1 PUSH1 0xA0 SHL SUB SWAP1 SWAP3 AND PUSH1 0x4 DUP4 ADD MSTORE PUSH1 0x24 DUP3 ADD MSTORE PUSH1 0x44 ADD PUSH1 0x20 PUSH1 0x40 MLOAD DUP1 DUP4 SUB DUP2 PUSH0 DUP8 GAS CALL ISZERO DUP1 ISZERO PUSH2 0x1093 JUMPI RETURNDATASIZE PUSH0 DUP1 RETURNDATACOPY RETURNDATASIZE PUSH0 REVERT JUMPDEST POP POP POP POP PUSH1 0x40 MLOAD RETURNDATASIZE PUSH1 0x1F NOT PUSH1 0x1F DUP3 ADD AND DUP3 ADD DUP1 PUSH1 0x40 MSTORE POP DUP2 ADD SWAP1 PUSH2 0x10B7 SWAP2 SWAP1 PUSH2 0x21A3 JUMP JUMPDEST PUSH2 0x10FB JUMPI PUSH1 0x40 MLOAD PUSH3 0x461BCD PUSH1 0xE5 SHL DUP2 MSTORE PUSH1 0x20 PUSH1 0x4 DUP3 ADD MSTORE PUSH1 0x15 PUSH1 0x24 DUP3 ADD MSTORE PUSH21 0x151BDAD95B881D1C985B9CD9995C8819985A5B1959 PUSH1 0x5A SHL PUSH1 0x44 DUP3 ADD MSTORE PUSH1 0x64 ADD PUSH2 0x7E5 JUMP JUMPDEST CALLER PUSH0 DUP2 DUP2 MSTORE PUSH1 0x3B PUSH1 0x20 SWAP1 DUP2 MSTORE PUSH1 0x40 DUP1 DUP4 KECCAK256 DUP4 DUP2 SSTORE PUSH1 0x1 ADD SWAP3 SWAP1 SWAP3 SSTORE DUP7 MLOAD DUP3 MLOAD SWAP1 DUP2 MSTORE SWAP1 DUP2 ADD DUP6 SWAP1 MSTORE PUSH32 0x6F2D3E000C89D37446B7C0374C0125068FF316D1E3EE302336478A8CD03C2336 SWAP2 ADD PUSH1 0x40 MLOAD DUP1 SWAP2 SUB SWAP1 LOG2 POP POP POP POP JUMP JUMPDEST PUSH2 0x116B PUSH0 DUP1 MLOAD PUSH1 0x20 PUSH2 0x2448 DUP4 CODECOPY DUP2 MLOAD SWAP2 MSTORE CALLER PUSH2 0xDBD JUMP JUMPDEST PUSH2 0x1187 JUMPI PUSH1 0x40 MLOAD PUSH3 0x461BCD PUSH1 0xE5 SHL DUP2 MSTORE PUSH1 0x4 ADD PUSH2 0x7E5 SWAP1 PUSH2 0x20D4 JUMP JUMPDEST PUSH1 0x37 DUP1 SLOAD PUSH1 0x1 PUSH1 0x1 PUSH1 0xA0 SHL SUB NOT AND PUSH1 0x1 PUSH1 0x1 PUSH1 0xA0 SHL SUB SWAP3 SWAP1 SWAP3 AND SWAP2 SWAP1 SWAP2 OR SWAP1 SSTORE JUMP JUMPDEST PUSH2 0x11C0 PUSH0 DUP1 MLOAD PUSH1 0x20 PUSH2 0x2448 DUP4 CODECOPY DUP2 MLOAD SWAP2 MSTORE CALLER PUSH2 0xDBD JUMP JUMPDEST PUSH2 0x11DC JUMPI PUSH1 0x40 MLOAD PUSH3 0x461BCD PUSH1 0xE5 SHL DUP2 MSTORE PUSH1 0x4 ADD PUSH2 0x7E5 SWAP1 PUSH2 0x20D4 JUMP JUMPDEST PUSH1 0x39 SLOAD DUP2 SWAP1 DUP2 LT PUSH2 0x11FF JUMPI PUSH1 0x40 MLOAD PUSH3 0x461BCD PUSH1 0xE5 SHL DUP2 MSTORE PUSH1 0x4 ADD PUSH2 0x7E5 SWAP1 PUSH2 0x20FA JUMP JUMPDEST DUP2 PUSH1 0x39 DUP2 DUP2 SLOAD DUP2 LT PUSH2 0x1213 JUMPI PUSH2 0x1213 PUSH2 0x2131 JUMP JUMPDEST PUSH0 SWAP2 DUP3 MSTORE PUSH1 0x20 SWAP1 SWAP2 KECCAK256 PUSH1 0x3 PUSH1 0x5 SWAP1 SWAP3 MUL ADD ADD SLOAD PUSH1 0xFF AND ISZERO PUSH2 0x1246 JUMPI PUSH1 0x40 MLOAD PUSH3 0x461BCD PUSH1 0xE5 SHL DUP2 MSTORE PUSH1 0x4 ADD PUSH2 0x7E5 SWAP1 PUSH2 0x2145 JUMP JUMPDEST PUSH0 DUP4 DUP2 MSTORE PUSH1 0x38 PUSH1 0x20 SWAP1 DUP2 MSTORE PUSH1 0x40 DUP1 DUP4 KECCAK256 CALLER DUP5 MSTORE SWAP1 SWAP2 MSTORE SWAP1 KECCAK256 SLOAD DUP4 SWAP1 PUSH1 0xFF AND ISZERO PUSH2 0x12B1 JUMPI PUSH1 0x40 MLOAD PUSH3 0x461BCD PUSH1 0xE5 SHL DUP2 MSTORE PUSH1 0x20 PUSH1 0x4 DUP3 ADD MSTORE PUSH1 0x1D PUSH1 0x24 DUP3 ADD MSTORE PUSH32 0x5472616E73616374696F6E20616C726561647920636F6E6669726D6564000000 PUSH1 0x44 DUP3 ADD MSTORE PUSH1 0x64 ADD PUSH2 0x7E5 JUMP JUMPDEST PUSH0 PUSH1 0x39 DUP6 DUP2 SLOAD DUP2 LT PUSH2 0x12C5 JUMPI PUSH2 0x12C5 PUSH2 0x2131 JUMP JUMPDEST SWAP1 PUSH0 MSTORE PUSH1 0x20 PUSH0 KECCAK256 SWAP1 PUSH1 0x5 MUL ADD SWAP1 POP PUSH1 0x1 DUP2 PUSH1 0x4 ADD PUSH0 DUP3 DUP3 SLOAD PUSH2 0x12E7 SWAP2 SWAP1 PUSH2 0x2230 JUMP JUMPDEST SWAP1 SWAP2 SSTORE POP POP PUSH0 DUP6 DUP2 MSTORE PUSH1 0x38 PUSH1 0x20 SWAP1 DUP2 MSTORE PUSH1 0x40 DUP1 DUP4 KECCAK256 CALLER DUP1 DUP6 MSTORE SWAP3 MSTORE DUP1 DUP4 KECCAK256 DUP1 SLOAD PUSH1 0xFF NOT AND PUSH1 0x1 OR SWAP1 SSTORE MLOAD DUP8 SWAP3 PUSH32 0xF8A17C9136A3AE33364FAC05EB088A3CBAFEE10C1889C88593E20EE2D8E4EB88 SWAP2 LOG3 POP POP POP POP POP JUMP JUMPDEST PUSH2 0x1354 PUSH0 DUP1 MLOAD PUSH1 0x20 PUSH2 0x2448 DUP4 CODECOPY DUP2 MLOAD SWAP2 MSTORE CALLER PUSH2 0xDBD JUMP JUMPDEST PUSH2 0x1370 JUMPI PUSH1 0x40 MLOAD PUSH3 0x461BCD PUSH1 0xE5 SHL DUP2 MSTORE PUSH1 0x4 ADD PUSH2 0x7E5 SWAP1 PUSH2 0x20D4 JUMP JUMPDEST PUSH1 0x39 DUP1 SLOAD PUSH1 0x40 DUP1 MLOAD PUSH1 0xA0 DUP2 ADD DUP3 MSTORE PUSH1 0x1 PUSH1 0x1 PUSH1 0xA0 SHL SUB DUP8 DUP2 AND DUP3 MSTORE PUSH1 0x20 DUP3 ADD DUP8 DUP2 MSTORE SWAP3 DUP3 ADD DUP7 DUP2 MSTORE PUSH0 PUSH1 0x60 DUP5 ADD DUP2 SWAP1 MSTORE PUSH1 0x80 DUP5 ADD DUP2 SWAP1 MSTORE PUSH1 0x1 DUP7 ADD DUP8 SSTORE SWAP6 SWAP1 SWAP6 MSTORE DUP2 MLOAD PUSH32 0xDC16FEF70F8D5DDBC01EE3D903D1E69C18A3C7BE080EB86A81E0578814EE58D3 PUSH1 0x5 DUP7 MUL SWAP1 DUP2 ADD DUP1 SLOAD PUSH1 0x1 PUSH1 0x1 PUSH1 0xA0 SHL SUB NOT AND SWAP3 SWAP1 SWAP4 AND SWAP2 SWAP1 SWAP2 OR DUP3 SSTORE SWAP3 MLOAD PUSH32 0xDC16FEF70F8D5DDBC01EE3D903D1E69C18A3C7BE080EB86A81E0578814EE58D4 DUP5 ADD SSTORE SWAP4 MLOAD SWAP3 SWAP4 SWAP1 SWAP3 SWAP1 SWAP2 PUSH32 0xDC16FEF70F8D5DDBC01EE3D903D1E69C18A3C7BE080EB86A81E0578814EE58D5 ADD SWAP1 PUSH2 0x144C SWAP1 DUP3 PUSH2 0x228E JUMP JUMPDEST POP PUSH1 0x60 DUP3 ADD MLOAD PUSH1 0x3 DUP3 ADD DUP1 SLOAD PUSH1 0xFF NOT AND SWAP2 ISZERO ISZERO SWAP2 SWAP1 SWAP2 OR SWAP1 SSTORE PUSH1 0x80 SWAP1 SWAP2 ADD MLOAD PUSH1 0x4 SWAP1 SWAP2 ADD SSTORE PUSH1 0x40 MLOAD DUP2 SWAP1 PUSH32 0xD0B5D9EAC097410294EC9F2CEE7CD185CF31AB46BABF3DFDBEAC8B222B03F2D1 SWAP1 PUSH0 SWAP1 LOG2 POP POP POP POP JUMP JUMPDEST PUSH2 0x14AA DUP3 PUSH2 0x949 JUMP JUMPDEST PUSH2 0x14B3 DUP2 PUSH2 0x175C JUMP JUMPDEST PUSH2 0x985 DUP4 DUP4 PUSH2 0x1807 JUMP JUMPDEST PUSH2 0x14D4 PUSH0 DUP1 MLOAD PUSH1 0x20 PUSH2 0x2448 DUP4 CODECOPY DUP2 MLOAD SWAP2 MSTORE CALLER PUSH2 0xDBD JUMP JUMPDEST PUSH2 0x14F0 JUMPI PUSH1 0x40 MLOAD PUSH3 0x461BCD PUSH1 0xE5 SHL DUP2 MSTORE PUSH1 0x4 ADD PUSH2 0x7E5 SWAP1 PUSH2 0x20D4 JUMP JUMPDEST PUSH1 0x34 DUP1 SLOAD PUSH1 0x1 PUSH1 0x1 PUSH1 0xA0 SHL SUB NOT AND PUSH1 0x1 PUSH1 0x1 PUSH1 0xA0 SHL SUB SWAP3 SWAP1 SWAP3 AND SWAP2 SWAP1 SWAP2 OR SWAP1 SSTORE JUMP JUMPDEST PUSH2 0x1529 PUSH0 DUP1 MLOAD PUSH1 0x20 PUSH2 0x2448 DUP4 CODECOPY DUP2 MLOAD SWAP2 MSTORE CALLER PUSH2 0xDBD JUMP JUMPDEST PUSH2 0x1545 JUMPI PUSH1 0x40 MLOAD PUSH3 0x461BCD PUSH1 0xE5 SHL DUP2 MSTORE PUSH1 0x4 ADD PUSH2 0x7E5 SWAP1 PUSH2 0x20D4 JUMP JUMPDEST PUSH1 0x39 SLOAD DUP2 SWAP1 DUP2 LT PUSH2 0x1568 JUMPI PUSH1 0x40 MLOAD PUSH3 0x461BCD PUSH1 0xE5 SHL DUP2 MSTORE PUSH1 0x4 ADD PUSH2 0x7E5 SWAP1 PUSH2 0x20FA JUMP JUMPDEST DUP2 PUSH1 0x39 DUP2 DUP2 SLOAD DUP2 LT PUSH2 0x157C JUMPI PUSH2 0x157C PUSH2 0x2131 JUMP JUMPDEST PUSH0 SWAP2 DUP3 MSTORE PUSH1 0x20 SWAP1 SWAP2 KECCAK256 PUSH1 0x3 PUSH1 0x5 SWAP1 SWAP3 MUL ADD ADD SLOAD PUSH1 0xFF AND ISZERO PUSH2 0x15AF JUMPI PUSH1 0x40 MLOAD PUSH3 0x461BCD PUSH1 0xE5 SHL DUP2 MSTORE PUSH1 0x4 ADD PUSH2 0x7E5 SWAP1 PUSH2 0x2145 JUMP JUMPDEST PUSH0 PUSH1 0x39 DUP5 DUP2 SLOAD DUP2 LT PUSH2 0x15C3 JUMPI PUSH2 0x15C3 PUSH2 0x2131 JUMP JUMPDEST SWAP1 PUSH0 MSTORE PUSH1 0x20 PUSH0 KECCAK256 SWAP1 PUSH1 0x5 MUL ADD SWAP1 POP PUSH1 0x3A SLOAD DUP2 PUSH1 0x4 ADD SLOAD LT ISZERO PUSH2 0x161B JUMPI PUSH1 0x40 MLOAD PUSH3 0x461BCD PUSH1 0xE5 SHL DUP2 MSTORE PUSH1 0x20 PUSH1 0x4 DUP3 ADD MSTORE PUSH1 0x11 PUSH1 0x24 DUP3 ADD MSTORE PUSH17 0x86C2DCDCDEE840CAF0CAC6EAE8CA40E8F PUSH1 0x7B SHL PUSH1 0x44 DUP3 ADD MSTORE PUSH1 0x64 ADD PUSH2 0x7E5 JUMP JUMPDEST PUSH1 0x3 DUP2 ADD DUP1 SLOAD PUSH1 0xFF NOT AND PUSH1 0x1 SWAP1 DUP2 OR SWAP1 SWAP2 SSTORE DUP2 SLOAD SWAP1 DUP3 ADD SLOAD PUSH1 0x40 MLOAD PUSH0 SWAP3 PUSH1 0x1 PUSH1 0x1 PUSH1 0xA0 SHL SUB AND SWAP2 SWAP1 PUSH2 0x1651 SWAP1 PUSH1 0x2 DUP7 ADD SWAP1 PUSH2 0x2349 JUMP JUMPDEST PUSH0 PUSH1 0x40 MLOAD DUP1 DUP4 SUB DUP2 DUP6 DUP8 GAS CALL SWAP3 POP POP POP RETURNDATASIZE DUP1 PUSH0 DUP2 EQ PUSH2 0x168B JUMPI PUSH1 0x40 MLOAD SWAP2 POP PUSH1 0x1F NOT PUSH1 0x3F RETURNDATASIZE ADD AND DUP3 ADD PUSH1 0x40 MSTORE RETURNDATASIZE DUP3 MSTORE RETURNDATASIZE PUSH0 PUSH1 0x20 DUP5 ADD RETURNDATACOPY PUSH2 0x1690 JUMP JUMPDEST PUSH1 0x60 SWAP2 POP JUMPDEST POP POP SWAP1 POP DUP1 PUSH2 0x16D6 JUMPI PUSH1 0x40 MLOAD PUSH3 0x461BCD PUSH1 0xE5 SHL DUP2 MSTORE PUSH1 0x20 PUSH1 0x4 DUP3 ADD MSTORE PUSH1 0x12 PUSH1 0x24 DUP3 ADD MSTORE PUSH18 0x151C985B9CD858DD1A5BDB8819985A5B1959 PUSH1 0x72 SHL PUSH1 0x44 DUP3 ADD MSTORE PUSH1 0x64 ADD PUSH2 0x7E5 JUMP JUMPDEST PUSH1 0x40 MLOAD DUP6 SWAP1 PUSH32 0x15ED165A284872EA7017F03DF402A0CADFBFAB588320FFAF83F160C2F82781C7 SWAP1 PUSH0 SWAP1 LOG2 POP POP POP POP POP JUMP JUMPDEST PUSH2 0x171E PUSH0 DUP1 MLOAD PUSH1 0x20 PUSH2 0x2448 DUP4 CODECOPY DUP2 MLOAD SWAP2 MSTORE CALLER PUSH2 0xDBD JUMP JUMPDEST PUSH2 0x173A JUMPI PUSH1 0x40 MLOAD PUSH3 0x461BCD PUSH1 0xE5 SHL DUP2 MSTORE PUSH1 0x4 ADD PUSH2 0x7E5 SWAP1 PUSH2 0x20D4 JUMP JUMPDEST PUSH1 0x36 DUP1 SLOAD PUSH1 0x1 PUSH1 0x1 PUSH1 0xA0 SHL SUB NOT AND PUSH1 0x1 PUSH1 0x1 PUSH1 0xA0 SHL SUB SWAP3 SWAP1 SWAP3 AND SWAP2 SWAP1 SWAP2 OR SWAP1 SSTORE JUMP JUMPDEST PUSH2 0x9E2 DUP2 CALLER PUSH2 0x1B3F JUMP JUMPDEST PUSH0 PUSH0 DUP1 MLOAD PUSH1 0x20 PUSH2 0x2428 DUP4 CODECOPY DUP2 MLOAD SWAP2 MSTORE PUSH2 0x177F DUP5 DUP5 PUSH2 0xDBD JUMP JUMPDEST PUSH2 0x17FE JUMPI PUSH0 DUP5 DUP2 MSTORE PUSH1 0x20 DUP3 DUP2 MSTORE PUSH1 0x40 DUP1 DUP4 KECCAK256 PUSH1 0x1 PUSH1 0x1 PUSH1 0xA0 SHL SUB DUP8 AND DUP5 MSTORE SWAP1 SWAP2 MSTORE SWAP1 KECCAK256 DUP1 SLOAD PUSH1 0xFF NOT AND PUSH1 0x1 OR SWAP1 SSTORE PUSH2 0x17B4 CALLER SWAP1 JUMP JUMPDEST PUSH1 0x1 PUSH1 0x1 PUSH1 0xA0 SHL SUB AND DUP4 PUSH1 0x1 PUSH1 0x1 PUSH1 0xA0 SHL SUB AND DUP6 PUSH32 0x2F8788117E7EFF1D82E926EC794901D17C78024A50270940304540A733656F0D PUSH1 0x40 MLOAD PUSH1 0x40 MLOAD DUP1 SWAP2 SUB SWAP1 LOG4 PUSH1 0x1 SWAP2 POP POP PUSH2 0x7AC JUMP JUMPDEST PUSH0 SWAP2 POP POP PUSH2 0x7AC JUMP JUMPDEST PUSH0 PUSH0 DUP1 MLOAD PUSH1 0x20 PUSH2 0x2428 DUP4 CODECOPY DUP2 MLOAD SWAP2 MSTORE PUSH2 0x1820 DUP5 DUP5 PUSH2 0xDBD JUMP JUMPDEST ISZERO PUSH2 0x17FE JUMPI PUSH0 DUP5 DUP2 MSTORE PUSH1 0x20 DUP3 DUP2 MSTORE PUSH1 0x40 DUP1 DUP4 KECCAK256 PUSH1 0x1 PUSH1 0x1 PUSH1 0xA0 SHL SUB DUP8 AND DUP1 DUP6 MSTORE SWAP3 MSTORE DUP1 DUP4 KECCAK256 DUP1 SLOAD PUSH1 0xFF NOT AND SWAP1 SSTORE MLOAD CALLER SWAP3 DUP8 SWAP2 PUSH32 0xF6391F5C32D9C69D2A47EA670B442974B53935D1EDC7FD64EB21E047A839171B SWAP2 SWAP1 LOG4 PUSH1 0x1 SWAP2 POP POP PUSH2 0x7AC JUMP JUMPDEST PUSH2 0x1888 PUSH2 0x1B78 JUMP JUMPDEST PUSH0 DUP1 SLOAD PUSH1 0xFF NOT AND SWAP1 SSTORE PUSH32 0x5DB9EE0A495BF2E6FF9C91A7834C1BA4FDD244A5E8AA4E537BD38AEAE4B073AA CALLER JUMPDEST PUSH1 0x40 MLOAD PUSH1 0x1 PUSH1 0x1 PUSH1 0xA0 SHL SUB SWAP1 SWAP2 AND DUP2 MSTORE PUSH1 0x20 ADD PUSH1 0x40 MLOAD DUP1 SWAP2 SUB SWAP1 LOG1 JUMP JUMPDEST ADDRESS PUSH1 0x1 PUSH1 0x1 PUSH1 0xA0 SHL SUB PUSH32 0x0 AND EQ DUP1 PUSH2 0x1957 JUMPI POP PUSH32 0x0 PUSH1 0x1 PUSH1 0x1 PUSH1 0xA0 SHL SUB AND PUSH2 0x194B PUSH0 DUP1 MLOAD PUSH1 0x20 PUSH2 0x23E8 DUP4 CODECOPY DUP2 MLOAD SWAP2 MSTORE SLOAD PUSH1 0x1 PUSH1 0x1 PUSH1 0xA0 SHL SUB AND SWAP1 JUMP JUMPDEST PUSH1 0x1 PUSH1 0x1 PUSH1 0xA0 SHL SUB AND EQ ISZERO JUMPDEST ISZERO PUSH2 0x1975 JUMPI PUSH1 0x40 MLOAD PUSH4 0x703E46DD PUSH1 0xE1 SHL DUP2 MSTORE PUSH1 0x4 ADD PUSH1 0x40 MLOAD DUP1 SWAP2 SUB SWAP1 REVERT JUMPDEST JUMP JUMPDEST PUSH32 0x189AB7A9244DF0848122154315AF71FE140F3DB0FE014031783B0946B8C9D2E3 PUSH2 0xA55 DUP2 PUSH2 0x175C JUMP JUMPDEST DUP2 PUSH1 0x1 PUSH1 0x1 PUSH1 0xA0 SHL SUB AND PUSH4 0x52D1902D PUSH1 0x40 MLOAD DUP2 PUSH4 0xFFFFFFFF AND PUSH1 0xE0 SHL DUP2 MSTORE PUSH1 0x4 ADD PUSH1 0x20 PUSH1 0x40 MLOAD DUP1 DUP4 SUB DUP2 DUP7 GAS STATICCALL SWAP3 POP POP POP DUP1 ISZERO PUSH2 0x19FB JUMPI POP PUSH1 0x40 DUP1 MLOAD PUSH1 0x1F RETURNDATASIZE SWAP1 DUP2 ADD PUSH1 0x1F NOT AND DUP3 ADD SWAP1 SWAP3 MSTORE PUSH2 0x19F8 SWAP2 DUP2 ADD SWAP1 PUSH2 0x23BA JUMP JUMPDEST PUSH1 0x1 JUMPDEST PUSH2 0x1A23 JUMPI PUSH1 0x40 MLOAD PUSH4 0x4C9C8CE3 PUSH1 0xE0 SHL DUP2 MSTORE PUSH1 0x1 PUSH1 0x1 PUSH1 0xA0 SHL SUB DUP4 AND PUSH1 0x4 DUP3 ADD MSTORE PUSH1 0x24 ADD PUSH2 0x7E5 JUMP JUMPDEST PUSH0 DUP1 MLOAD PUSH1 0x20 PUSH2 0x23E8 DUP4 CODECOPY DUP2 MLOAD SWAP2 MSTORE DUP2 EQ PUSH2 0x1A53 JUMPI PUSH1 0x40 MLOAD PUSH4 0x2A875269 PUSH1 0xE2 SHL DUP2 MSTORE PUSH1 0x4 DUP2 ADD DUP3 SWAP1 MSTORE PUSH1 0x24 ADD PUSH2 0x7E5 JUMP JUMPDEST PUSH2 0x9BE DUP4 DUP4 PUSH2 0x1BC0 JUMP JUMPDEST ADDRESS PUSH1 0x1 PUSH1 0x1 PUSH1 0xA0 SHL SUB PUSH32 0x0 AND EQ PUSH2 0x1975 JUMPI PUSH1 0x40 MLOAD PUSH4 0x703E46DD PUSH1 0xE1 SHL DUP2 MSTORE PUSH1 0x4 ADD PUSH1 0x40 MLOAD DUP1 SWAP2 SUB SWAP1 REVERT JUMPDEST PUSH2 0x1975 PUSH2 0x1C15 JUMP JUMPDEST PUSH2 0x1AB6 PUSH2 0x1C15 JUMP JUMPDEST PUSH2 0x1975 PUSH2 0x1C5E JUMP JUMPDEST PUSH0 SLOAD PUSH1 0xFF AND ISZERO PUSH2 0x1975 JUMPI PUSH1 0x40 MLOAD PUSH3 0x461BCD PUSH1 0xE5 SHL DUP2 MSTORE PUSH1 0x20 PUSH1 0x4 DUP3 ADD MSTORE PUSH1 0x10 PUSH1 0x24 DUP3 ADD MSTORE PUSH16 0x14185D5CD8589B194E881C185D5CD959 PUSH1 0x82 SHL PUSH1 0x44 DUP3 ADD MSTORE PUSH1 0x64 ADD PUSH2 0x7E5 JUMP JUMPDEST PUSH2 0x1B0B PUSH2 0x1ABE JUMP JUMPDEST PUSH0 DUP1 SLOAD PUSH1 0xFF NOT AND PUSH1 0x1 OR SWAP1 SSTORE PUSH32 0x62E78CEA01BEE320CD4E420270B5EA74000D11B0C9F74754EBDBFC544B05A258 PUSH2 0x18B4 CALLER SWAP1 JUMP JUMPDEST PUSH2 0x1B49 DUP3 DUP3 PUSH2 0xDBD JUMP JUMPDEST PUSH2 0xA55 JUMPI PUSH1 0x40 MLOAD PUSH4 0xE2517D3F PUSH1 0xE0 SHL DUP2 MSTORE PUSH1 0x1 PUSH1 0x1 PUSH1 0xA0 SHL SUB DUP3 AND PUSH1 0x4 DUP3 ADD MSTORE PUSH1 0x24 DUP2 ADD DUP4 SWAP1 MSTORE PUSH1 0x44 ADD PUSH2 0x7E5 JUMP JUMPDEST PUSH0 SLOAD PUSH1 0xFF AND PUSH2 0x1975 JUMPI PUSH1 0x40 MLOAD PUSH3 0x461BCD PUSH1 0xE5 SHL DUP2 MSTORE PUSH1 0x20 PUSH1 0x4 DUP3 ADD MSTORE PUSH1 0x14 PUSH1 0x24 DUP3 ADD MSTORE PUSH20 0x14185D5CD8589B194E881B9BDD081C185D5CD959 PUSH1 0x62 SHL PUSH1 0x44 DUP3 ADD MSTORE PUSH1 0x64 ADD PUSH2 0x7E5 JUMP JUMPDEST PUSH2 0x1BC9 DUP3 PUSH2 0x1C71 JUMP JUMPDEST PUSH1 0x40 MLOAD PUSH1 0x1 PUSH1 0x1 PUSH1 0xA0 SHL SUB DUP4 AND SWAP1 PUSH32 0xBC7CD75A20EE27FD9ADEBAB32041F755214DBC6BFFA90CC0225B39DA2E5C2D3B SWAP1 PUSH0 SWAP1 LOG2 DUP1 MLOAD ISZERO PUSH2 0x1C0D JUMPI PUSH2 0x9BE DUP3 DUP3 PUSH2 0x1CD4 JUMP JUMPDEST PUSH2 0xA55 PUSH2 0x1D46 JUMP JUMPDEST PUSH32 0xF0C57E16840DF040F15088DC2F81FE391C3923BEC73E23A9662EFC9C229C6A00 SLOAD PUSH1 0x1 PUSH1 0x40 SHL SWAP1 DIV PUSH1 0xFF AND PUSH2 0x1975 JUMPI PUSH1 0x40 MLOAD PUSH4 0x1AFCD79F PUSH1 0xE3 SHL DUP2 MSTORE PUSH1 0x4 ADD PUSH1 0x40 MLOAD DUP1 SWAP2 SUB SWAP1 REVERT JUMPDEST PUSH2 0x1C66 PUSH2 0x1C15 JUMP JUMPDEST PUSH0 DUP1 SLOAD PUSH1 0xFF NOT AND SWAP1 SSTORE JUMP JUMPDEST DUP1 PUSH1 0x1 PUSH1 0x1 PUSH1 0xA0 SHL SUB AND EXTCODESIZE PUSH0 SUB PUSH2 0x1CA6 JUMPI PUSH1 0x40 MLOAD PUSH4 0x4C9C8CE3 PUSH1 0xE0 SHL DUP2 MSTORE PUSH1 0x1 PUSH1 0x1 PUSH1 0xA0 SHL SUB DUP3 AND PUSH1 0x4 DUP3 ADD MSTORE PUSH1 0x24 ADD PUSH2 0x7E5 JUMP JUMPDEST PUSH0 DUP1 MLOAD PUSH1 0x20 PUSH2 0x23E8 DUP4 CODECOPY DUP2 MLOAD SWAP2 MSTORE DUP1 SLOAD PUSH1 0x1 PUSH1 0x1 PUSH1 0xA0 SHL SUB NOT AND PUSH1 0x1 PUSH1 0x1 PUSH1 0xA0 SHL SUB SWAP3 SWAP1 SWAP3 AND SWAP2 SWAP1 SWAP2 OR SWAP1 SSTORE JUMP JUMPDEST PUSH1 0x60 PUSH0 DUP1 DUP5 PUSH1 0x1 PUSH1 0x1 PUSH1 0xA0 SHL SUB AND DUP5 PUSH1 0x40 MLOAD PUSH2 0x1CF0 SWAP2 SWAP1 PUSH2 0x23D1 JUMP JUMPDEST PUSH0 PUSH1 0x40 MLOAD DUP1 DUP4 SUB DUP2 DUP6 GAS DELEGATECALL SWAP2 POP POP RETURNDATASIZE DUP1 PUSH0 DUP2 EQ PUSH2 0x1D28 JUMPI PUSH1 0x40 MLOAD SWAP2 POP PUSH1 0x1F NOT PUSH1 0x3F RETURNDATASIZE ADD AND DUP3 ADD PUSH1 0x40 MSTORE RETURNDATASIZE DUP3 MSTORE RETURNDATASIZE PUSH0 PUSH1 0x20 DUP5 ADD RETURNDATACOPY PUSH2 0x1D2D JUMP JUMPDEST PUSH1 0x60 SWAP2 POP JUMPDEST POP SWAP2 POP SWAP2 POP PUSH2 0x1D3D DUP6 DUP4 DUP4 PUSH2 0x1D65 JUMP JUMPDEST SWAP6 SWAP5 POP POP POP POP POP JUMP JUMPDEST CALLVALUE ISZERO PUSH2 0x1975 JUMPI PUSH1 0x40 MLOAD PUSH4 0xB398979F PUSH1 0xE0 SHL DUP2 MSTORE PUSH1 0x4 ADD PUSH1 0x40 MLOAD DUP1 SWAP2 SUB SWAP1 REVERT JUMPDEST PUSH1 0x60 DUP3 PUSH2 0x1D7A JUMPI PUSH2 0x1D75 DUP3 PUSH2 0x1DC4 JUMP JUMPDEST PUSH2 0x1DBD JUMP JUMPDEST DUP2 MLOAD ISZERO DUP1 ISZERO PUSH2 0x1D91 JUMPI POP PUSH1 0x1 PUSH1 0x1 PUSH1 0xA0 SHL SUB DUP5 AND EXTCODESIZE ISZERO JUMPDEST ISZERO PUSH2 0x1DBA JUMPI PUSH1 0x40 MLOAD PUSH4 0x9996B315 PUSH1 0xE0 SHL DUP2 MSTORE PUSH1 0x1 PUSH1 0x1 PUSH1 0xA0 SHL SUB DUP6 AND PUSH1 0x4 DUP3 ADD MSTORE PUSH1 0x24 ADD PUSH2 0x7E5 JUMP JUMPDEST POP DUP1 JUMPDEST SWAP4 SWAP3 POP POP POP JUMP JUMPDEST DUP1 MLOAD ISZERO PUSH2 0x1DD4 JUMPI DUP1 MLOAD DUP1 DUP3 PUSH1 0x20 ADD REVERT JUMPDEST PUSH1 0x40 MLOAD PUSH4 0xA12F521 PUSH1 0xE1 SHL DUP2 MSTORE PUSH1 0x4 ADD PUSH1 0x40 MLOAD DUP1 SWAP2 SUB SWAP1 REVERT JUMPDEST PUSH0 PUSH1 0x20 DUP3 DUP5 SUB SLT ISZERO PUSH2 0x1DFD JUMPI PUSH0 DUP1 REVERT JUMPDEST DUP2 CALLDATALOAD PUSH1 0x1 PUSH1 0x1 PUSH1 0xE0 SHL SUB NOT DUP2 AND DUP2 EQ PUSH2 0x1DBD JUMPI PUSH0 DUP1 REVERT JUMPDEST DUP1 CALLDATALOAD PUSH1 0x1 PUSH1 0x1 PUSH1 0xA0 SHL SUB DUP2 AND DUP2 EQ PUSH2 0x1E2A JUMPI PUSH0 DUP1 REVERT JUMPDEST SWAP2 SWAP1 POP JUMP JUMPDEST PUSH0 PUSH1 0x20 DUP3 DUP5 SUB SLT ISZERO PUSH2 0x1E3F JUMPI PUSH0 DUP1 REVERT JUMPDEST PUSH2 0x1DBD DUP3 PUSH2 0x1E14 JUMP JUMPDEST PUSH0 PUSH1 0x20 DUP3 DUP5 SUB SLT ISZERO PUSH2 0x1E58 JUMPI PUSH0 DUP1 REVERT JUMPDEST POP CALLDATALOAD SWAP2 SWAP1 POP JUMP JUMPDEST PUSH0 DUP1 PUSH1 0x40 DUP4 DUP6 SUB SLT ISZERO PUSH2 0x1E70 JUMPI PUSH0 DUP1 REVERT JUMPDEST DUP3 CALLDATALOAD SWAP2 POP PUSH2 0x1E80 PUSH1 0x20 DUP5 ADD PUSH2 0x1E14 JUMP JUMPDEST SWAP1 POP SWAP3 POP SWAP3 SWAP1 POP JUMP JUMPDEST PUSH4 0x4E487B71 PUSH1 0xE0 SHL PUSH0 MSTORE PUSH1 0x41 PUSH1 0x4 MSTORE PUSH1 0x24 PUSH0 REVERT JUMPDEST PUSH0 DUP3 PUSH1 0x1F DUP4 ADD SLT PUSH2 0x1EAC JUMPI PUSH0 DUP1 REVERT JUMPDEST DUP2 CALLDATALOAD PUSH8 0xFFFFFFFFFFFFFFFF DUP2 GT ISZERO PUSH2 0x1EC6 JUMPI PUSH2 0x1EC6 PUSH2 0x1E89 JUMP JUMPDEST PUSH1 0x40 MLOAD PUSH1 0x1F DUP3 ADD PUSH1 0x1F NOT SWAP1 DUP2 AND PUSH1 0x3F ADD AND DUP2 ADD PUSH8 0xFFFFFFFFFFFFFFFF DUP2 GT DUP3 DUP3 LT OR ISZERO PUSH2 0x1EF5 JUMPI PUSH2 0x1EF5 PUSH2 0x1E89 JUMP JUMPDEST PUSH1 0x40 MSTORE DUP2 DUP2 MSTORE DUP4 DUP3 ADD PUSH1 0x20 ADD DUP6 LT ISZERO PUSH2 0x1F0C JUMPI PUSH0 DUP1 REVERT JUMPDEST DUP2 PUSH1 0x20 DUP6 ADD PUSH1 0x20 DUP4 ADD CALLDATACOPY PUSH0 SWAP2 DUP2 ADD PUSH1 0x20 ADD SWAP2 SWAP1 SWAP2 MSTORE SWAP4 SWAP3 POP POP POP JUMP JUMPDEST PUSH0 DUP1 PUSH1 0x40 DUP4 DUP6 SUB SLT ISZERO PUSH2 0x1F39 JUMPI PUSH0 DUP1 REVERT JUMPDEST PUSH2 0x1F42 DUP4 PUSH2 0x1E14 JUMP JUMPDEST SWAP2 POP PUSH1 0x20 DUP4 ADD CALLDATALOAD PUSH8 0xFFFFFFFFFFFFFFFF DUP2 GT ISZERO PUSH2 0x1F5D JUMPI PUSH0 DUP1 REVERT JUMPDEST PUSH2 0x1F69 DUP6 DUP3 DUP7 ADD PUSH2 0x1E9D JUMP JUMPDEST SWAP2 POP POP SWAP3 POP SWAP3 SWAP1 POP JUMP JUMPDEST PUSH0 DUP1 PUSH0 DUP1 PUSH0 DUP1 PUSH0 DUP1 PUSH0 PUSH2 0x120 DUP11 DUP13 SUB SLT ISZERO PUSH2 0x1F8C JUMPI PUSH0 DUP1 REVERT JUMPDEST PUSH2 0x1F95 DUP11 PUSH2 0x1E14 JUMP JUMPDEST SWAP9 POP PUSH1 0x20 DUP11 ADD CALLDATALOAD SWAP8 POP PUSH1 0x40 DUP11 ADD CALLDATALOAD SWAP7 POP PUSH2 0x1FB1 PUSH1 0x60 DUP12 ADD PUSH2 0x1E14 JUMP JUMPDEST SWAP6 POP PUSH2 0x1FBF PUSH1 0x80 DUP12 ADD PUSH2 0x1E14 JUMP JUMPDEST SWAP5 POP PUSH2 0x1FCD PUSH1 0xA0 DUP12 ADD PUSH2 0x1E14 JUMP JUMPDEST SWAP4 POP PUSH2 0x1FDB PUSH1 0xC0 DUP12 ADD PUSH2 0x1E14 JUMP JUMPDEST SWAP3 POP PUSH2 0x1FE9 PUSH1 0xE0 DUP12 ADD PUSH2 0x1E14 JUMP JUMPDEST SWAP2 POP PUSH2 0x1FF8 PUSH2 0x100 DUP12 ADD PUSH2 0x1E14 JUMP JUMPDEST SWAP1 POP SWAP3 SWAP6 SWAP9 POP SWAP3 SWAP6 SWAP9 POP SWAP3 SWAP6 SWAP9 JUMP JUMPDEST PUSH0 DUP2 MLOAD DUP1 DUP5 MSTORE DUP1 PUSH1 0x20 DUP5 ADD PUSH1 0x20 DUP7 ADD MCOPY PUSH0 PUSH1 0x20 DUP3 DUP7 ADD ADD MSTORE PUSH1 0x20 PUSH1 0x1F NOT PUSH1 0x1F DUP4 ADD AND DUP6 ADD ADD SWAP2 POP POP SWAP3 SWAP2 POP POP JUMP JUMPDEST PUSH1 0x1 DUP1 PUSH1 0xA0 SHL SUB DUP7 AND DUP2 MSTORE DUP5 PUSH1 0x20 DUP3 ADD MSTORE PUSH1 0xA0 PUSH1 0x40 DUP3 ADD MSTORE PUSH0 PUSH2 0x205B PUSH1 0xA0 DUP4 ADD DUP7 PUSH2 0x2007 JUMP JUMPDEST SWAP4 ISZERO ISZERO PUSH1 0x60 DUP4 ADD MSTORE POP PUSH1 0x80 ADD MSTORE SWAP4 SWAP3 POP POP POP JUMP JUMPDEST PUSH1 0x20 DUP2 MSTORE PUSH0 PUSH2 0x1DBD PUSH1 0x20 DUP4 ADD DUP5 PUSH2 0x2007 JUMP JUMPDEST PUSH0 DUP1 PUSH0 PUSH1 0x60 DUP5 DUP7 SUB SLT ISZERO PUSH2 0x2093 JUMPI PUSH0 DUP1 REVERT JUMPDEST PUSH2 0x209C DUP5 PUSH2 0x1E14 JUMP JUMPDEST SWAP3 POP PUSH1 0x20 DUP5 ADD CALLDATALOAD SWAP2 POP PUSH1 0x40 DUP5 ADD CALLDATALOAD PUSH8 0xFFFFFFFFFFFFFFFF DUP2 GT ISZERO PUSH2 0x20BE JUMPI PUSH0 DUP1 REVERT JUMPDEST PUSH2 0x20CA DUP7 DUP3 DUP8 ADD PUSH2 0x1E9D JUMP JUMPDEST SWAP2 POP POP SWAP3 POP SWAP3 POP SWAP3 JUMP JUMPDEST PUSH1 0x20 DUP1 DUP3 MSTORE PUSH1 0xC SWAP1 DUP3 ADD MSTORE PUSH12 0x2737BA1030B71030B236B4B7 PUSH1 0xA1 SHL PUSH1 0x40 DUP3 ADD MSTORE PUSH1 0x60 ADD SWAP1 JUMP JUMPDEST PUSH1 0x20 DUP1 DUP3 MSTORE PUSH1 0x1A SWAP1 DUP3 ADD MSTORE PUSH32 0x5472616E73616374696F6E20646F6573206E6F74206578697374000000000000 PUSH1 0x40 DUP3 ADD MSTORE PUSH1 0x60 ADD SWAP1 JUMP JUMPDEST PUSH4 0x4E487B71 PUSH1 0xE0 SHL PUSH0 MSTORE PUSH1 0x32 PUSH1 0x4 MSTORE PUSH1 0x24 PUSH0 REVERT JUMPDEST PUSH1 0x20 DUP1 DUP3 MSTORE PUSH1 0x1C SWAP1 DUP3 ADD MSTORE PUSH32 0x5472616E73616374696F6E20616C726561647920657865637574656400000000 PUSH1 0x40 DUP3 ADD MSTORE PUSH1 0x60 ADD SWAP1 JUMP JUMPDEST PUSH4 0x4E487B71 PUSH1 0xE0 SHL PUSH0 MSTORE PUSH1 0x11 PUSH1 0x4 MSTORE PUSH1 0x24 PUSH0 REVERT JUMPDEST DUP2 DUP2 SUB DUP2 DUP2 GT ISZERO PUSH2 0x7AC JUMPI PUSH2 0x7AC PUSH2 0x217C JUMP JUMPDEST PUSH0 PUSH1 0x20 DUP3 DUP5 SUB SLT ISZERO PUSH2 0x21B3 JUMPI PUSH0 DUP1 REVERT JUMPDEST DUP2 MLOAD DUP1 ISZERO ISZERO DUP2 EQ PUSH2 0x1DBD JUMPI PUSH0 DUP1 REVERT JUMPDEST PUSH1 0x1 DUP2 DUP2 SHR SWAP1 DUP3 AND DUP1 PUSH2 0x21D6 JUMPI PUSH1 0x7F DUP3 AND SWAP2 POP JUMPDEST PUSH1 0x20 DUP3 LT DUP2 SUB PUSH2 0x21F4 JUMPI PUSH4 0x4E487B71 PUSH1 0xE0 SHL PUSH0 MSTORE PUSH1 0x22 PUSH1 0x4 MSTORE PUSH1 0x24 PUSH0 REVERT JUMPDEST POP SWAP2 SWAP1 POP JUMP JUMPDEST DUP1 DUP3 MUL DUP2 ISZERO DUP3 DUP3 DIV DUP5 EQ OR PUSH2 0x7AC JUMPI PUSH2 0x7AC PUSH2 0x217C JUMP JUMPDEST PUSH0 DUP3 PUSH2 0x222B JUMPI PUSH4 0x4E487B71 PUSH1 0xE0 SHL PUSH0 MSTORE PUSH1 0x12 PUSH1 0x4 MSTORE PUSH1 0x24 PUSH0 REVERT JUMPDEST POP DIV SWAP1 JUMP JUMPDEST DUP1 DUP3 ADD DUP1 DUP3 GT ISZERO PUSH2 0x7AC JUMPI PUSH2 0x7AC PUSH2 0x217C JUMP JUMPDEST PUSH1 0x1F DUP3 GT ISZERO PUSH2 0x9BE JUMPI DUP1 PUSH0 MSTORE PUSH1 0x20 PUSH0 KECCAK256 PUSH1 0x1F DUP5 ADD PUSH1 0x5 SHR DUP2 ADD PUSH1 0x20 DUP6 LT ISZERO PUSH2 0x2268 JUMPI POP DUP1 JUMPDEST PUSH1 0x1F DUP5 ADD PUSH1 0x5 SHR DUP3 ADD SWAP2 POP JUMPDEST DUP2 DUP2 LT ISZERO PUSH2 0x2287 JUMPI PUSH0 DUP2 SSTORE PUSH1 0x1 ADD PUSH2 0x2274 JUMP JUMPDEST POP POP POP POP POP JUMP JUMPDEST DUP2 MLOAD PUSH8 0xFFFFFFFFFFFFFFFF DUP2 GT ISZERO PUSH2 0x22A8 JUMPI PUSH2 0x22A8 PUSH2 0x1E89 JUMP JUMPDEST PUSH2 0x22BC DUP2 PUSH2 0x22B6 DUP5 SLOAD PUSH2 0x21C2 JUMP JUMPDEST DUP5 PUSH2 0x2243 JUMP JUMPDEST PUSH1 0x20 PUSH1 0x1F DUP3 GT PUSH1 0x1 DUP2 EQ PUSH2 0x22EE JUMPI PUSH0 DUP4 ISZERO PUSH2 0x22D7 JUMPI POP DUP5 DUP3 ADD MLOAD JUMPDEST PUSH0 NOT PUSH1 0x3 DUP6 SWAP1 SHL SHR NOT AND PUSH1 0x1 DUP5 SWAP1 SHL OR DUP5 SSTORE PUSH2 0x2287 JUMP JUMPDEST PUSH0 DUP5 DUP2 MSTORE PUSH1 0x20 DUP2 KECCAK256 PUSH1 0x1F NOT DUP6 AND SWAP2 JUMPDEST DUP3 DUP2 LT ISZERO PUSH2 0x231D JUMPI DUP8 DUP6 ADD MLOAD DUP3 SSTORE PUSH1 0x20 SWAP5 DUP6 ADD SWAP5 PUSH1 0x1 SWAP1 SWAP3 ADD SWAP2 ADD PUSH2 0x22FD JUMP JUMPDEST POP DUP5 DUP3 LT ISZERO PUSH2 0x233A JUMPI DUP7 DUP5 ADD MLOAD PUSH0 NOT PUSH1 0x3 DUP8 SWAP1 SHL PUSH1 0xF8 AND SHR NOT AND DUP2 SSTORE JUMPDEST POP POP POP POP PUSH1 0x1 SWAP1 DUP2 SHL ADD SWAP1 SSTORE POP JUMP JUMPDEST PUSH0 DUP1 DUP4 SLOAD PUSH2 0x2356 DUP2 PUSH2 0x21C2 JUMP JUMPDEST PUSH1 0x1 DUP3 AND DUP1 ISZERO PUSH2 0x236D JUMPI PUSH1 0x1 DUP2 EQ PUSH2 0x2382 JUMPI PUSH2 0x23AF JUMP JUMPDEST PUSH1 0xFF NOT DUP4 AND DUP7 MSTORE DUP2 ISZERO ISZERO DUP3 MUL DUP7 ADD SWAP4 POP PUSH2 0x23AF JUMP JUMPDEST DUP7 PUSH0 MSTORE PUSH1 0x20 PUSH0 KECCAK256 PUSH0 JUMPDEST DUP4 DUP2 LT ISZERO PUSH2 0x23A7 JUMPI DUP2 SLOAD DUP9 DUP3 ADD MSTORE PUSH1 0x1 SWAP1 SWAP2 ADD SWAP1 PUSH1 0x20 ADD PUSH2 0x238B JUMP JUMPDEST POP POP DUP2 DUP7 ADD SWAP4 POP JUMPDEST POP SWAP2 SWAP6 SWAP5 POP POP POP POP POP JUMP JUMPDEST PUSH0 PUSH1 0x20 DUP3 DUP5 SUB SLT ISZERO PUSH2 0x23CA JUMPI PUSH0 DUP1 REVERT JUMPDEST POP MLOAD SWAP2 SWAP1 POP JUMP JUMPDEST PUSH0 DUP3 MLOAD DUP1 PUSH1 0x20 DUP6 ADD DUP5 MCOPY PUSH0 SWAP3 ADD SWAP2 DUP3 MSTORE POP SWAP2 SWAP1 POP JUMP INVALID CALLDATASIZE ADDMOD SWAP5 LOG1 EXTCODESIZE LOG1 LOG3 0x21 MOD PUSH8 0xC828492DB98DCA3E KECCAK256 PUSH23 0xCC3735A920A3CA505D382BBC65D7A28E3265B37A647492 SWAP16 CALLER PUSH6 0x21B332C1681B SWAP4 EXTCODEHASH PUSH13 0xB9F3376673440D862A02DD7BC7 0xDE 0xC4 0xDC 0xEE 0xDD 0xA7 PUSH22 0xE58DD541E08A116C6C53815C0BD028192F7B626800A4 SWAP9 SMOD KECCAK256 TLOAD 0xE4 0xD3 SSTORE MULMOD 0x2E CREATE2 0xA8 LOG1 DUP16 JUMP 0xE8 SWAP2 EXTCODECOPY DELEGATECALL LOG2 ADD 0xFB 0xE2 DUP8 DUP3 JUMPDEST MULMOD JUMP SWAP4 0xC2 OR PUSH22 0xA26469706673582212209751A2FB8D2B5B4F84396109 0xCF 0xD7 RETURNDATACOPY 0x27 0xB2 PUSH10 0x854C039CF2E77B4C219A DIV TSTORE PUSH28 0x3364736F6C634300081A003300000000000000000000000000000000 "
		},
		"gasEstimates": {
			"creation": {
				"codeDepositCost": "1874600",
				"executionCost": "infinite",
				"totalCost": "infinite"
			},
			"external": {
				"ADMIN_ROLE()": "infinite",
				"DEFAULT_ADMIN_ROLE()": "260",
				"PAUSER_ROLE()": "infinite",
				"UPGRADER_ROLE()": "326",
				"UPGRADE_INTERFACE_VERSION()": "infinite",
				"confirmTransaction(uint256)": "infinite",
				"daoAddress()": "2471",
				"erc1155Address()": "2405",
				"erc20Address()": "2426",
				"erc721Address()": "2382",
				"executeTransaction(uint256)": "infinite",
				"farmingAddress()": "2404",
				"getRoleAdmin(bytes32)": "infinite",
				"grantRole(bytes32,address)": "infinite",
				"hasRole(bytes32,address)": "infinite",
				"initialize(address,uint256,uint256,address,address,address,address,address,address)": "infinite",
				"isConfirmed(uint256,address)": "2726",
				"pause()": "infinite",
				"paused()": "2425",
				"proxiableUUID()": "infinite",
				"renounceRole(bytes32,address)": "29227",
				"requiredConfirmations()": "2427",
				"revokeConfirmation(uint256)": "infinite",
				"revokeRole(bytes32,address)": "infinite",
				"setDAOAddress(address)": "infinite",
				"setERC1155Address(address)": "infinite",
				"setERC20Address(address)": "infinite",
				"setERC721Address(address)": "infinite",
				"setFarmingAddress(address)": "infinite",
				"setStakingAddress(address)": "infinite",
				"stakeTokens(uint256)": "infinite",
				"stakes(address)": "4746",
				"stakingAddress()": "2469",
				"stakingRate()": "2361",
				"submitTransaction(address,uint256,bytes)": "infinite",
				"supportsInterface(bytes4)": "470",
				"transactions(uint256)": "infinite",
				"unpause()": "infinite",
				"unstakeTokens()": "infinite",
				"upgradeToAndCall(address,bytes)": "infinite"
			},
			"internal": {
				"_authorizeUpgrade(address)": "infinite"
			}
		},
		"methodIdentifiers": {
			"ADMIN_ROLE()": "75b238fc",
			"DEFAULT_ADMIN_ROLE()": "a217fddf",
			"PAUSER_ROLE()": "e63ab1e9",
			"UPGRADER_ROLE()": "f72c0d8b",
			"UPGRADE_INTERFACE_VERSION()": "ad3cb1cc",
			"confirmTransaction(uint256)": "c01a8c84",
			"daoAddress()": "2131c68c",
			"erc1155Address()": "05142002",
			"erc20Address()": "276184ae",
			"erc721Address()": "2352a864",
			"executeTransaction(uint256)": "ee22610b",
			"farmingAddress()": "8a2ade58",
			"getRoleAdmin(bytes32)": "248a9ca3",
			"grantRole(bytes32,address)": "2f2ff15d",
			"hasRole(bytes32,address)": "91d14854",
			"initialize(address,uint256,uint256,address,address,address,address,address,address)": "63447471",
			"isConfirmed(uint256,address)": "80f59a65",
			"pause()": "8456cb59",
			"paused()": "5c975abb",
			"proxiableUUID()": "52d1902d",
			"renounceRole(bytes32,address)": "36568abe",
			"requiredConfirmations()": "82e717f7",
			"revokeConfirmation(uint256)": "20ea8d86",
			"revokeRole(bytes32,address)": "d547741f",
			"setDAOAddress(address)": "965afa89",
			"setERC1155Address(address)": "d836fc6f",
			"setERC20Address(address)": "41bec0d2",
			"setERC721Address(address)": "9a03d9a3",
			"setFarmingAddress(address)": "b001f618",
			"setStakingAddress(address)": "f4e0d9ac",
			"stakeTokens(uint256)": "7547c7a3",
			"stakes(address)": "16934fc4",
			"stakingAddress()": "d7b4be24",
			"stakingRate()": "c63a6ad2",
			"submitTransaction(address,uint256,bytes)": "c6427474",
			"supportsInterface(bytes4)": "01ffc9a7",
			"transactions(uint256)": "9ace38c2",
			"unpause()": "3f4ba83a",
			"unstakeTokens()": "a5ce413b",
			"upgradeToAndCall(address,bytes)": "4f1ef286"
		}
	},
	"abi": [
		{
			"inputs": [],
			"stateMutability": "nonpayable",
			"type": "constructor"
		},
		{
			"inputs": [],
			"name": "AccessControlBadConfirmation",
			"type": "error"
		},
		{
			"inputs": [
				{
					"internalType": "address",
					"name": "account",
					"type": "address"
				},
				{
					"internalType": "bytes32",
					"name": "neededRole",
					"type": "bytes32"
				}
			],
			"name": "AccessControlUnauthorizedAccount",
			"type": "error"
		},
		{
			"inputs": [
				{
					"internalType": "address",
					"name": "target",
					"type": "address"
				}
			],
			"name": "AddressEmptyCode",
			"type": "error"
		},
		{
			"inputs": [
				{
					"internalType": "address",
					"name": "implementation",
					"type": "address"
				}
			],
			"name": "ERC1967InvalidImplementation",
			"type": "error"
		},
		{
			"inputs": [],
			"name": "ERC1967NonPayable",
			"type": "error"
		},
		{
			"inputs": [],
			"name": "FailedInnerCall",
			"type": "error"
		},
		{
			"inputs": [],
			"name": "InvalidInitialization",
			"type": "error"
		},
		{
			"inputs": [],
			"name": "NotInitializing",
			"type": "error"
		},
		{
			"inputs": [],
			"name": "UUPSUnauthorizedCallContext",
			"type": "error"
		},
		{
			"inputs": [
				{
					"internalType": "bytes32",
					"name": "slot",
					"type": "bytes32"
				}
			],
			"name": "UUPSUnsupportedProxiableUUID",
			"type": "error"
		},
		{
			"anonymous": false,
			"inputs": [
				{
					"indexed": false,
					"internalType": "uint64",
					"name": "version",
					"type": "uint64"
				}
			],
			"name": "Initialized",
			"type": "event"
		},
		{
			"anonymous": false,
			"inputs": [
				{
					"indexed": false,
					"internalType": "address",
					"name": "account",
					"type": "address"
				}
			],
			"name": "Paused",
			"type": "event"
		},
		{
			"anonymous": false,
			"inputs": [
				{
					"indexed": true,
					"internalType": "bytes32",
					"name": "role",
					"type": "bytes32"
				},
				{
					"indexed": true,
					"internalType": "bytes32",
					"name": "previousAdminRole",
					"type": "bytes32"
				},
				{
					"indexed": true,
					"internalType": "bytes32",
					"name": "newAdminRole",
					"type": "bytes32"
				}
			],
			"name": "RoleAdminChanged",
			"type": "event"
		},
		{
			"anonymous": false,
			"inputs": [
				{
					"indexed": true,
					"internalType": "bytes32",
					"name": "role",
					"type": "bytes32"
				},
				{
					"indexed": true,
					"internalType": "address",
					"name": "account",
					"type": "address"
				},
				{
					"indexed": true,
					"internalType": "address",
					"name": "sender",
					"type": "address"
				}
			],
			"name": "RoleGranted",
			"type": "event"
		},
		{
			"anonymous": false,
			"inputs": [
				{
					"indexed": true,
					"internalType": "bytes32",
					"name": "role",
					"type": "bytes32"
				},
				{
					"indexed": true,
					"internalType": "address",
					"name": "account",
					"type": "address"
				},
				{
					"indexed": true,
					"internalType": "address",
					"name": "sender",
					"type": "address"
				}
			],
			"name": "RoleRevoked",
			"type": "event"
		},
		{
			"anonymous": false,
			"inputs": [
				{
					"indexed": true,
					"internalType": "address",
					"name": "user",
					"type": "address"
				},
				{
					"indexed": false,
					"internalType": "uint256",
					"name": "amount",
					"type": "uint256"
				},
				{
					"indexed": false,
					"internalType": "uint256",
					"name": "startTime",
					"type": "uint256"
				}
			],
			"name": "TokensStaked",
			"type": "event"
		},
		{
			"anonymous": false,
			"inputs": [
				{
					"indexed": true,
					"internalType": "address",
					"name": "user",
					"type": "address"
				},
				{
					"indexed": false,
					"internalType": "uint256",
					"name": "amount",
					"type": "uint256"
				},
				{
					"indexed": false,
					"internalType": "uint256",
					"name": "reward",
					"type": "uint256"
				}
			],
			"name": "TokensUnstaked",
			"type": "event"
		},
		{
			"anonymous": false,
			"inputs": [
				{
					"indexed": true,
					"internalType": "address",
					"name": "owner",
					"type": "address"
				},
				{
					"indexed": true,
					"internalType": "uint256",
					"name": "txIndex",
					"type": "uint256"
				}
			],
			"name": "TransactionConfirmed",
			"type": "event"
		},
		{
			"anonymous": false,
			"inputs": [
				{
					"indexed": true,
					"internalType": "uint256",
					"name": "txIndex",
					"type": "uint256"
				}
			],
			"name": "TransactionExecuted",
			"type": "event"
		},
		{
			"anonymous": false,
			"inputs": [
				{
					"indexed": true,
					"internalType": "address",
					"name": "owner",
					"type": "address"
				},
				{
					"indexed": true,
					"internalType": "uint256",
					"name": "txIndex",
					"type": "uint256"
				}
			],
			"name": "TransactionRevoked",
			"type": "event"
		},
		{
			"anonymous": false,
			"inputs": [
				{
					"indexed": true,
					"internalType": "uint256",
					"name": "txIndex",
					"type": "uint256"
				}
			],
			"name": "TransactionSubmitted",
			"type": "event"
		},
		{
			"anonymous": false,
			"inputs": [
				{
					"indexed": false,
					"internalType": "address",
					"name": "account",
					"type": "address"
				}
			],
			"name": "Unpaused",
			"type": "event"
		},
		{
			"anonymous": false,
			"inputs": [
				{
					"indexed": true,
					"internalType": "address",
					"name": "implementation",
					"type": "address"
				}
			],
			"name": "Upgraded",
			"type": "event"
		},
		{
			"inputs": [],
			"name": "ADMIN_ROLE",
			"outputs": [
				{
					"internalType": "bytes32",
					"name": "",
					"type": "bytes32"
				}
			],
			"stateMutability": "view",
			"type": "function"
		},
		{
			"inputs": [],
			"name": "DEFAULT_ADMIN_ROLE",
			"outputs": [
				{
					"internalType": "bytes32",
					"name": "",
					"type": "bytes32"
				}
			],
			"stateMutability": "view",
			"type": "function"
		},
		{
			"inputs": [],
			"name": "PAUSER_ROLE",
			"outputs": [
				{
					"internalType": "bytes32",
					"name": "",
					"type": "bytes32"
				}
			],
			"stateMutability": "view",
			"type": "function"
		},
		{
			"inputs": [],
			"name": "UPGRADER_ROLE",
			"outputs": [
				{
					"internalType": "bytes32",
					"name": "",
					"type": "bytes32"
				}
			],
			"stateMutability": "view",
			"type": "function"
		},
		{
			"inputs": [],
			"name": "UPGRADE_INTERFACE_VERSION",
			"outputs": [
				{
					"internalType": "string",
					"name": "",
					"type": "string"
				}
			],
			"stateMutability": "view",
			"type": "function"
		},
		{
			"inputs": [
				{
					"internalType": "uint256",
					"name": "_txIndex",
					"type": "uint256"
				}
			],
			"name": "confirmTransaction",
			"outputs": [],
			"stateMutability": "nonpayable",
			"type": "function"
		},
		{
			"inputs": [],
			"name": "daoAddress",
			"outputs": [
				{
					"internalType": "address",
					"name": "",
					"type": "address"
				}
			],
			"stateMutability": "view",
			"type": "function"
		},
		{
			"inputs": [],
			"name": "erc1155Address",
			"outputs": [
				{
					"internalType": "address",
					"name": "",
					"type": "address"
				}
			],
			"stateMutability": "view",
			"type": "function"
		},
		{
			"inputs": [],
			"name": "erc20Address",
			"outputs": [
				{
					"internalType": "address",
					"name": "",
					"type": "address"
				}
			],
			"stateMutability": "view",
			"type": "function"
		},
		{
			"inputs": [],
			"name": "erc721Address",
			"outputs": [
				{
					"internalType": "address",
					"name": "",
					"type": "address"
				}
			],
			"stateMutability": "view",
			"type": "function"
		},
		{
			"inputs": [
				{
					"internalType": "uint256",
					"name": "_txIndex",
					"type": "uint256"
				}
			],
			"name": "executeTransaction",
			"outputs": [],
			"stateMutability": "nonpayable",
			"type": "function"
		},
		{
			"inputs": [],
			"name": "farmingAddress",
			"outputs": [
				{
					"internalType": "address",
					"name": "",
					"type": "address"
				}
			],
			"stateMutability": "view",
			"type": "function"
		},
		{
			"inputs": [
				{
					"internalType": "bytes32",
					"name": "role",
					"type": "bytes32"
				}
			],
			"name": "getRoleAdmin",
			"outputs": [
				{
					"internalType": "bytes32",
					"name": "",
					"type": "bytes32"
				}
			],
			"stateMutability": "view",
			"type": "function"
		},
		{
			"inputs": [
				{
					"internalType": "bytes32",
					"name": "role",
					"type": "bytes32"
				},
				{
					"internalType": "address",
					"name": "account",
					"type": "address"
				}
			],
			"name": "grantRole",
			"outputs": [],
			"stateMutability": "nonpayable",
			"type": "function"
		},
		{
			"inputs": [
				{
					"internalType": "bytes32",
					"name": "role",
					"type": "bytes32"
				},
				{
					"internalType": "address",
					"name": "account",
					"type": "address"
				}
			],
			"name": "hasRole",
			"outputs": [
				{
					"internalType": "bool",
					"name": "",
					"type": "bool"
				}
			],
			"stateMutability": "view",
			"type": "function"
		},
		{
			"inputs": [
				{
					"internalType": "address",
					"name": "admin",
					"type": "address"
				},
				{
					"internalType": "uint256",
					"name": "_requiredConfirmations",
					"type": "uint256"
				},
				{
					"internalType": "uint256",
					"name": "_stakingRate",
					"type": "uint256"
				},
				{
					"internalType": "address",
					"name": "_erc20Address",
					"type": "address"
				},
				{
					"internalType": "address",
					"name": "_erc721Address",
					"type": "address"
				},
				{
					"internalType": "address",
					"name": "_erc1155Address",
					"type": "address"
				},
				{
					"internalType": "address",
					"name": "_daoAddress",
					"type": "address"
				},
				{
					"internalType": "address",
					"name": "_stakingAddress",
					"type": "address"
				},
				{
					"internalType": "address",
					"name": "_farmingAddress",
					"type": "address"
				}
			],
			"name": "initialize",
			"outputs": [],
			"stateMutability": "nonpayable",
			"type": "function"
		},
		{
			"inputs": [
				{
					"internalType": "uint256",
					"name": "",
					"type": "uint256"
				},
				{
					"internalType": "address",
					"name": "",
					"type": "address"
				}
			],
			"name": "isConfirmed",
			"outputs": [
				{
					"internalType": "bool",
					"name": "",
					"type": "bool"
				}
			],
			"stateMutability": "view",
			"type": "function"
		},
		{
			"inputs": [],
			"name": "pause",
			"outputs": [],
			"stateMutability": "nonpayable",
			"type": "function"
		},
		{
			"inputs": [],
			"name": "paused",
			"outputs": [
				{
					"internalType": "bool",
					"name": "",
					"type": "bool"
				}
			],
			"stateMutability": "view",
			"type": "function"
		},
		{
			"inputs": [],
			"name": "proxiableUUID",
			"outputs": [
				{
					"internalType": "bytes32",
					"name": "",
					"type": "bytes32"
				}
			],
			"stateMutability": "view",
			"type": "function"
		},
		{
			"inputs": [
				{
					"internalType": "bytes32",
					"name": "role",
					"type": "bytes32"
				},
				{
					"internalType": "address",
					"name": "callerConfirmation",
					"type": "address"
				}
			],
			"name": "renounceRole",
			"outputs": [],
			"stateMutability": "nonpayable",
			"type": "function"
		},
		{
			"inputs": [],
			"name": "requiredConfirmations",
			"outputs": [
				{
					"internalType": "uint256",
					"name": "",
					"type": "uint256"
				}
			],
			"stateMutability": "view",
			"type": "function"
		},
		{
			"inputs": [
				{
					"internalType": "uint256",
					"name": "_txIndex",
					"type": "uint256"
				}
			],
			"name": "revokeConfirmation",
			"outputs": [],
			"stateMutability": "nonpayable",
			"type": "function"
		},
		{
			"inputs": [
				{
					"internalType": "bytes32",
					"name": "role",
					"type": "bytes32"
				},
				{
					"internalType": "address",
					"name": "account",
					"type": "address"
				}
			],
			"name": "revokeRole",
			"outputs": [],
			"stateMutability": "nonpayable",
			"type": "function"
		},
		{
			"inputs": [
				{
					"internalType": "address",
					"name": "_daoAddress",
					"type": "address"
				}
			],
			"name": "setDAOAddress",
			"outputs": [],
			"stateMutability": "nonpayable",
			"type": "function"
		},
		{
			"inputs": [
				{
					"internalType": "address",
					"name": "_erc1155Address",
					"type": "address"
				}
			],
			"name": "setERC1155Address",
			"outputs": [],
			"stateMutability": "nonpayable",
			"type": "function"
		},
		{
			"inputs": [
				{
					"internalType": "address",
					"name": "_erc20Address",
					"type": "address"
				}
			],
			"name": "setERC20Address",
			"outputs": [],
			"stateMutability": "nonpayable",
			"type": "function"
		},
		{
			"inputs": [
				{
					"internalType": "address",
					"name": "_erc721Address",
					"type": "address"
				}
			],
			"name": "setERC721Address",
			"outputs": [],
			"stateMutability": "nonpayable",
			"type": "function"
		},
		{
			"inputs": [
				{
					"internalType": "address",
					"name": "_farmingAddress",
					"type": "address"
				}
			],
			"name": "setFarmingAddress",
			"outputs": [],
			"stateMutability": "nonpayable",
			"type": "function"
		},
		{
			"inputs": [
				{
					"internalType": "address",
					"name": "_stakingAddress",
					"type": "address"
				}
			],
			"name": "setStakingAddress",
			"outputs": [],
			"stateMutability": "nonpayable",
			"type": "function"
		},
		{
			"inputs": [
				{
					"internalType": "uint256",
					"name": "_amount",
					"type": "uint256"
				}
			],
			"name": "stakeTokens",
			"outputs": [],
			"stateMutability": "nonpayable",
			"type": "function"
		},
		{
			"inputs": [
				{
					"internalType": "address",
					"name": "",
					"type": "address"
				}
			],
			"name": "stakes",
			"outputs": [
				{
					"internalType": "uint256",
					"name": "amount",
					"type": "uint256"
				},
				{
					"internalType": "uint256",
					"name": "startTime",
					"type": "uint256"
				}
			],
			"stateMutability": "view",
			"type": "function"
		},
		{
			"inputs": [],
			"name": "stakingAddress",
			"outputs": [
				{
					"internalType": "address",
					"name": "",
					"type": "address"
				}
			],
			"stateMutability": "view",
			"type": "function"
		},
		{
			"inputs": [],
			"name": "stakingRate",
			"outputs": [
				{
					"internalType": "uint256",
					"name": "",
					"type": "uint256"
				}
			],
			"stateMutability": "view",
			"type": "function"
		},
		{
			"inputs": [
				{
					"internalType": "address",
					"name": "_to",
					"type": "address"
				},
				{
					"internalType": "uint256",
					"name": "_value",
					"type": "uint256"
				},
				{
					"internalType": "bytes",
					"name": "_data",
					"type": "bytes"
				}
			],
			"name": "submitTransaction",
			"outputs": [],
			"stateMutability": "nonpayable",
			"type": "function"
		},
		{
			"inputs": [
				{
					"internalType": "bytes4",
					"name": "interfaceId",
					"type": "bytes4"
				}
			],
			"name": "supportsInterface",
			"outputs": [
				{
					"internalType": "bool",
					"name": "",
					"type": "bool"
				}
			],
			"stateMutability": "view",
			"type": "function"
		},
		{
			"inputs": [
				{
					"internalType": "uint256",
					"name": "",
					"type": "uint256"
				}
			],
			"name": "transactions",
			"outputs": [
				{
					"internalType": "address",
					"name": "to",
					"type": "address"
				},
				{
					"internalType": "uint256",
					"name": "value",
					"type": "uint256"
				},
				{
					"internalType": "bytes",
					"name": "data",
					"type": "bytes"
				},
				{
					"internalType": "bool",
					"name": "executed",
					"type": "bool"
				},
				{
					"internalType": "uint256",
					"name": "numConfirmations",
					"type": "uint256"
				}
			],
			"stateMutability": "view",
			"type": "function"
		},
		{
			"inputs": [],
			"name": "unpause",
			"outputs": [],
			"stateMutability": "nonpayable",
			"type": "function"
		},
		{
			"inputs": [],
			"name": "unstakeTokens",
			"outputs": [],
			"stateMutability": "nonpayable",
			"type": "function"
		},
		{
			"inputs": [
				{
					"internalType": "address",
					"name": "newImplementation",
					"type": "address"
				},
				{
					"internalType": "bytes",
					"name": "data",
					"type": "bytes"
				}
			],
			"name": "upgradeToAndCall",
			"outputs": [],
			"stateMutability": "payable",
			"type": "function"
		},
		{
			"stateMutability": "payable",
			"type": "receive"
		}
	]
}