{
	".deps/remix-tests/remix_accounts.sol": {
		"TestsAccounts": {
			"abi": [
				{
					"inputs": [
						{
							"internalType": "uint256",
							"name": "index",
							"type": "uint256"
						}
					],
					"name": "getAccount",
					"outputs": [
						{
							"internalType": "address",
							"name": "",
							"type": "address"
						}
					],
					"stateMutability": "pure",
					"type": "function"
				}
			],
			"devdoc": {
				"kind": "dev",
				"methods": {},
				"version": 1
			},
			"evm": {
				"assembly": "    /* \".deps/remix-tests/remix_accounts.sol\":71:197  library TestsAccounts {... */\n  dataSize(sub_0)\n  dataOffset(sub_0)\n  0x0b\n  dup3\n  dup3\n  dup3\n  codecopy\n  dup1\n  mload\n  0x00\n  byte\n  0x73\n  eq\n  tag_1\n  jumpi\n  mstore(0x00, shl(0xe0, 0x4e487b71))\n  mstore(0x04, 0x00)\n  revert(0x00, 0x24)\ntag_1:\n  mstore(0x00, address)\n  0x73\n  dup2\n  mstore8\n  dup3\n  dup2\n  return\nstop\n\nsub_0: assembly {\n        /* \".deps/remix-tests/remix_accounts.sol\":71:197  library TestsAccounts {... */\n      eq(address, deployTimeAddress())\n      mstore(0x40, 0x80)\n      jumpi(tag_1, lt(calldatasize, 0x04))\n      shr(0xe0, calldataload(0x00))\n      dup1\n      0xce88b145\n      eq\n      tag_2\n      jumpi\n    tag_1:\n      0x00\n      dup1\n      revert\n        /* \".deps/remix-tests/remix_accounts.sol\":99:195  function getAccount(uint index) pure public returns (address) {... */\n    tag_2:\n      tag_3\n      tag_4\n      calldatasize\n      0x04\n      tag_5\n      jump\t// in\n    tag_4:\n      pop\n        /* \".deps/remix-tests/remix_accounts.sol\":152:159  address */\n      0x00\n      swap1\n        /* \".deps/remix-tests/remix_accounts.sol\":99:195  function getAccount(uint index) pure public returns (address) {... */\n      jump\n    tag_3:\n      mload(0x40)\n      sub(shl(0xa0, 0x01), 0x01)\n        /* \"#utility.yul\":371:403   */\n      swap1\n      swap2\n      and\n        /* \"#utility.yul\":353:404   */\n      dup2\n      mstore\n        /* \"#utility.yul\":341:343   */\n      0x20\n        /* \"#utility.yul\":326:344   */\n      add\n        /* \".deps/remix-tests/remix_accounts.sol\":99:195  function getAccount(uint index) pure public returns (address) {... */\n      mload(0x40)\n      dup1\n      swap2\n      sub\n      swap1\n      return\n        /* \"#utility.yul\":14:194   */\n    tag_5:\n        /* \"#utility.yul\":73:79   */\n      0x00\n        /* \"#utility.yul\":126:128   */\n      0x20\n        /* \"#utility.yul\":114:123   */\n      dup3\n        /* \"#utility.yul\":105:112   */\n      dup5\n        /* \"#utility.yul\":101:124   */\n      sub\n        /* \"#utility.yul\":97:129   */\n      slt\n        /* \"#utility.yul\":94:146   */\n      iszero\n      tag_12\n      jumpi\n        /* \"#utility.yul\":142:143   */\n      0x00\n        /* \"#utility.yul\":139:140   */\n      dup1\n        /* \"#utility.yul\":132:144   */\n      revert\n        /* \"#utility.yul\":94:146   */\n    tag_12:\n      pop\n        /* \"#utility.yul\":165:188   */\n      calldataload\n      swap2\n        /* \"#utility.yul\":14:194   */\n      swap1\n      pop\n      jump\t// out\n\n    auxdata: 0xa2646970667358221220847bc88b412491edb00ae9ca92b5b431864e4cc92b0d182b06cca0cc1bdb652664736f6c63430008190033\n}\n",
				"bytecode": {
					"linkReferences": {},
					"object": "60ae6032600b8282823980515f1a607314602657634e487b7160e01b5f525f60045260245ffd5b305f52607381538281f3fe73000000000000000000000000000000000000000030146080604052600436106032575f3560e01c8063ce88b145146036575b5f80fd5b604660413660046062565b505f90565b6040516001600160a01b03909116815260200160405180910390f35b5f602082840312156071575f80fd5b503591905056fea2646970667358221220847bc88b412491edb00ae9ca92b5b431864e4cc92b0d182b06cca0cc1bdb652664736f6c63430008190033",
					"opcodes": "PUSH1 0xAE PUSH1 0x32 PUSH1 0xB DUP3 DUP3 DUP3 CODECOPY DUP1 MLOAD PUSH0 BYTE PUSH1 0x73 EQ PUSH1 0x26 JUMPI PUSH4 0x4E487B71 PUSH1 0xE0 SHL PUSH0 MSTORE PUSH0 PUSH1 0x4 MSTORE PUSH1 0x24 PUSH0 REVERT JUMPDEST ADDRESS PUSH0 MSTORE PUSH1 0x73 DUP2 MSTORE8 DUP3 DUP2 RETURN INVALID PUSH20 0x0 ADDRESS EQ PUSH1 0x80 PUSH1 0x40 MSTORE PUSH1 0x4 CALLDATASIZE LT PUSH1 0x32 JUMPI PUSH0 CALLDATALOAD PUSH1 0xE0 SHR DUP1 PUSH4 0xCE88B145 EQ PUSH1 0x36 JUMPI JUMPDEST PUSH0 DUP1 REVERT JUMPDEST PUSH1 0x46 PUSH1 0x41 CALLDATASIZE PUSH1 0x4 PUSH1 0x62 JUMP JUMPDEST POP PUSH0 SWAP1 JUMP JUMPDEST PUSH1 0x40 MLOAD PUSH1 0x1 PUSH1 0x1 PUSH1 0xA0 SHL SUB SWAP1 SWAP2 AND DUP2 MSTORE PUSH1 0x20 ADD PUSH1 0x40 MLOAD DUP1 SWAP2 SUB SWAP1 RETURN JUMPDEST PUSH0 PUSH1 0x20 DUP3 DUP5 SUB SLT ISZERO PUSH1 0x71 JUMPI PUSH0 DUP1 REVERT JUMPDEST POP CALLDATALOAD SWAP2 SWAP1 POP JUMP INVALID LOG2 PUSH5 0x6970667358 0x22 SLT KECCAK256 DUP5 PUSH28 0xC88B412491EDB00AE9CA92B5B431864E4CC92B0D182B06CCA0CC1BDB PUSH6 0x2664736F6C63 NUMBER STOP ADDMOD NOT STOP CALLER "
				},
				"gasEstimates": {
					"creation": {
						"codeDepositCost": "34800",
						"executionCost": "114",
						"totalCost": "34914"
					},
					"external": {
						"getAccount(uint256)": "242"
					}
				},
				"methodIdentifiers": {
					"getAccount(uint256)": "ce88b145"
				}
			},
			"storageLayout": {
				"storage": [],
				"types": null
			},
			"userdoc": {
				"kind": "user",
				"methods": {},
				"version": 1
			}
		}
	}
}