{
	"src/contract/CryptoQuestTheShardsOfGenesisMMORPG.sol": {
		"CryptoQuestTheShardsOfGenesisMMPORPG": {
			"abi": [
				{
					"inputs": [],
					"name": "AccessControlBadConfirmation",
					"type": "error"
				},
				{
					"inputs": [
						{
							"internalType": "address",
							"name": "account",
							"type": "address"
						},
						{
							"internalType": "bytes32",
							"name": "neededRole",
							"type": "bytes32"
						}
					],
					"name": "AccessControlUnauthorizedAccount",
					"type": "error"
				},
				{
					"inputs": [
						{
							"internalType": "address",
							"name": "target",
							"type": "address"
						}
					],
					"name": "AddressEmptyCode",
					"type": "error"
				},
				{
					"inputs": [
						{
							"internalType": "address",
							"name": "implementation",
							"type": "address"
						}
					],
					"name": "ERC1967InvalidImplementation",
					"type": "error"
				},
				{
					"inputs": [],
					"name": "ERC1967NonPayable",
					"type": "error"
				},
				{
					"inputs": [],
					"name": "EnforcedPause",
					"type": "error"
				},
				{
					"inputs": [],
					"name": "ExpectedPause",
					"type": "error"
				},
				{
					"inputs": [],
					"name": "FailedInnerCall",
					"type": "error"
				},
				{
					"inputs": [],
					"name": "InvalidInitialization",
					"type": "error"
				},
				{
					"inputs": [],
					"name": "NotInitializing",
					"type": "error"
				},
				{
					"inputs": [],
					"name": "UUPSUnauthorizedCallContext",
					"type": "error"
				},
				{
					"inputs": [
						{
							"internalType": "bytes32",
							"name": "slot",
							"type": "bytes32"
						}
					],
					"name": "UUPSUnsupportedProxiableUUID",
					"type": "error"
				},
				{
					"anonymous": false,
					"inputs": [
						{
							"indexed": false,
							"internalType": "string",
							"name": "name",
							"type": "string"
						},
						{
							"indexed": false,
							"internalType": "address",
							"name": "leader",
							"type": "address"
						}
					],
					"name": "GuildCreated",
					"type": "event"
				},
				{
					"anonymous": false,
					"inputs": [
						{
							"indexed": false,
							"internalType": "uint64",
							"name": "version",
							"type": "uint64"
						}
					],
					"name": "Initialized",
					"type": "event"
				},
				{
					"anonymous": false,
					"inputs": [
						{
							"indexed": false,
							"internalType": "uint256",
							"name": "itemId",
							"type": "uint256"
						},
						{
							"indexed": false,
							"internalType": "string",
							"name": "itemName",
							"type": "string"
						}
					],
					"name": "ItemAdded",
					"type": "event"
				},
				{
					"anonymous": false,
					"inputs": [
						{
							"indexed": false,
							"internalType": "address",
							"name": "account",
							"type": "address"
						}
					],
					"name": "Paused",
					"type": "event"
				},
				{
					"anonymous": false,
					"inputs": [
						{
							"indexed": true,
							"internalType": "address",
							"name": "player",
							"type": "address"
						}
					],
					"name": "PlayerCreated",
					"type": "event"
				},
				{
					"anonymous": false,
					"inputs": [
						{
							"indexed": true,
							"internalType": "address",
							"name": "player",
							"type": "address"
						},
						{
							"indexed": false,
							"internalType": "string",
							"name": "questTitle",
							"type": "string"
						}
					],
					"name": "QuestCompleted",
					"type": "event"
				},
				{
					"anonymous": false,
					"inputs": [
						{
							"indexed": false,
							"internalType": "uint256",
							"name": "recipeId",
							"type": "uint256"
						},
						{
							"indexed": false,
							"internalType": "uint256",
							"name": "resultItemId",
							"type": "uint256"
						}
					],
					"name": "RecipeAdded",
					"type": "event"
				},
				{
					"anonymous": false,
					"inputs": [
						{
							"indexed": true,
							"internalType": "bytes32",
							"name": "role",
							"type": "bytes32"
						},
						{
							"indexed": true,
							"internalType": "bytes32",
							"name": "previousAdminRole",
							"type": "bytes32"
						},
						{
							"indexed": true,
							"internalType": "bytes32",
							"name": "newAdminRole",
							"type": "bytes32"
						}
					],
					"name": "RoleAdminChanged",
					"type": "event"
				},
				{
					"anonymous": false,
					"inputs": [
						{
							"indexed": true,
							"internalType": "bytes32",
							"name": "role",
							"type": "bytes32"
						},
						{
							"indexed": true,
							"internalType": "address",
							"name": "account",
							"type": "address"
						},
						{
							"indexed": true,
							"internalType": "address",
							"name": "sender",
							"type": "address"
						}
					],
					"name": "RoleGranted",
					"type": "event"
				},
				{
					"anonymous": false,
					"inputs": [
						{
							"indexed": true,
							"internalType": "bytes32",
							"name": "role",
							"type": "bytes32"
						},
						{
							"indexed": true,
							"internalType": "address",
							"name": "account",
							"type": "address"
						},
						{
							"indexed": true,
							"internalType": "address",
							"name": "sender",
							"type": "address"
						}
					],
					"name": "RoleRevoked",
					"type": "event"
				},
				{
					"anonymous": false,
					"inputs": [
						{
							"indexed": false,
							"internalType": "address",
							"name": "account",
							"type": "address"
						}
					],
					"name": "Unpaused",
					"type": "event"
				},
				{
					"anonymous": false,
					"inputs": [
						{
							"indexed": true,
							"internalType": "address",
							"name": "implementation",
							"type": "address"
						}
					],
					"name": "Upgraded",
					"type": "event"
				},
				{
					"inputs": [],
					"name": "DEFAULT_ADMIN_ROLE",
					"outputs": [
						{
							"internalType": "bytes32",
							"name": "",
							"type": "bytes32"
						}
					],
					"stateMutability": "view",
					"type": "function"
				},
				{
					"inputs": [],
					"name": "GAME_ADMIN_ROLE",
					"outputs": [
						{
							"internalType": "bytes32",
							"name": "",
							"type": "bytes32"
						}
					],
					"stateMutability": "view",
					"type": "function"
				},
				{
					"inputs": [],
					"name": "PAUSER_ROLE",
					"outputs": [
						{
							"internalType": "bytes32",
							"name": "",
							"type": "bytes32"
						}
					],
					"stateMutability": "view",
					"type": "function"
				},
				{
					"inputs": [],
					"name": "UPGRADER_ROLE",
					"outputs": [
						{
							"internalType": "bytes32",
							"name": "",
							"type": "bytes32"
						}
					],
					"stateMutability": "view",
					"type": "function"
				},
				{
					"inputs": [],
					"name": "UPGRADE_INTERFACE_VERSION",
					"outputs": [
						{
							"internalType": "string",
							"name": "",
							"type": "string"
						}
					],
					"stateMutability": "view",
					"type": "function"
				},
				{
					"inputs": [
						{
							"internalType": "string",
							"name": "name",
							"type": "string"
						},
						{
							"internalType": "uint256",
							"name": "attackBonus",
							"type": "uint256"
						},
						{
							"internalType": "uint256",
							"name": "defenseBonus",
							"type": "uint256"
						},
						{
							"internalType": "uint256",
							"name": "manaBonus",
							"type": "uint256"
						},
						{
							"internalType": "uint256",
							"name": "healthBonus",
							"type": "uint256"
						}
					],
					"name": "addItem",
					"outputs": [],
					"stateMutability": "nonpayable",
					"type": "function"
				},
				{
					"inputs": [
						{
							"internalType": "uint256[]",
							"name": "itemIds",
							"type": "uint256[]"
						},
						{
							"internalType": "uint256",
							"name": "resultItemId",
							"type": "uint256"
						}
					],
					"name": "addRecipe",
					"outputs": [],
					"stateMutability": "nonpayable",
					"type": "function"
				},
				{
					"inputs": [
						{
							"internalType": "string",
							"name": "questTitle",
							"type": "string"
						}
					],
					"name": "completeQuest",
					"outputs": [],
					"stateMutability": "nonpayable",
					"type": "function"
				},
				{
					"inputs": [
						{
							"internalType": "uint256",
							"name": "recipeId",
							"type": "uint256"
						}
					],
					"name": "craftItem",
					"outputs": [],
					"stateMutability": "nonpayable",
					"type": "function"
				},
				{
					"inputs": [
						{
							"internalType": "string",
							"name": "name",
							"type": "string"
						},
						{
							"internalType": "address",
							"name": "leader",
							"type": "address"
						}
					],
					"name": "createGuild",
					"outputs": [],
					"stateMutability": "nonpayable",
					"type": "function"
				},
				{
					"inputs": [],
					"name": "createPlayer",
					"outputs": [],
					"stateMutability": "nonpayable",
					"type": "function"
				},
				{
					"inputs": [
						{
							"internalType": "bytes32",
							"name": "role",
							"type": "bytes32"
						}
					],
					"name": "getRoleAdmin",
					"outputs": [
						{
							"internalType": "bytes32",
							"name": "",
							"type": "bytes32"
						}
					],
					"stateMutability": "view",
					"type": "function"
				},
				{
					"inputs": [
						{
							"internalType": "bytes32",
							"name": "role",
							"type": "bytes32"
						},
						{
							"internalType": "address",
							"name": "account",
							"type": "address"
						}
					],
					"name": "grantRole",
					"outputs": [],
					"stateMutability": "nonpayable",
					"type": "function"
				},
				{
					"inputs": [
						{
							"internalType": "address",
							"name": "",
							"type": "address"
						}
					],
					"name": "guilds",
					"outputs": [
						{
							"internalType": "string",
							"name": "name",
							"type": "string"
						},
						{
							"internalType": "address",
							"name": "leader",
							"type": "address"
						}
					],
					"stateMutability": "view",
					"type": "function"
				},
				{
					"inputs": [
						{
							"internalType": "bytes32",
							"name": "role",
							"type": "bytes32"
						},
						{
							"internalType": "address",
							"name": "account",
							"type": "address"
						}
					],
					"name": "hasRole",
					"outputs": [
						{
							"internalType": "bool",
							"name": "",
							"type": "bool"
						}
					],
					"stateMutability": "view",
					"type": "function"
				},
				{
					"inputs": [
						{
							"internalType": "address",
							"name": "defaultAdmin",
							"type": "address"
						},
						{
							"internalType": "address",
							"name": "pauser",
							"type": "address"
						},
						{
							"internalType": "address",
							"name": "upgrader",
							"type": "address"
						}
					],
					"name": "initialize",
					"outputs": [],
					"stateMutability": "nonpayable",
					"type": "function"
				},
				{
					"inputs": [
						{
							"internalType": "uint256",
							"name": "",
							"type": "uint256"
						}
					],
					"name": "items",
					"outputs": [
						{
							"internalType": "uint256",
							"name": "id",
							"type": "uint256"
						},
						{
							"internalType": "string",
							"name": "name",
							"type": "string"
						},
						{
							"internalType": "uint256",
							"name": "attackBonus",
							"type": "uint256"
						},
						{
							"internalType": "uint256",
							"name": "defenseBonus",
							"type": "uint256"
						},
						{
							"internalType": "uint256",
							"name": "manaBonus",
							"type": "uint256"
						},
						{
							"internalType": "uint256",
							"name": "healthBonus",
							"type": "uint256"
						}
					],
					"stateMutability": "view",
					"type": "function"
				},
				{
					"inputs": [
						{
							"internalType": "string",
							"name": "guildName",
							"type": "string"
						}
					],
					"name": "joinGuild",
					"outputs": [],
					"stateMutability": "nonpayable",
					"type": "function"
				},
				{
					"inputs": [],
					"name": "pause",
					"outputs": [],
					"stateMutability": "nonpayable",
					"type": "function"
				},
				{
					"inputs": [],
					"name": "paused",
					"outputs": [
						{
							"internalType": "bool",
							"name": "",
							"type": "bool"
						}
					],
					"stateMutability": "view",
					"type": "function"
				},
				{
					"inputs": [
						{
							"internalType": "address",
							"name": "",
							"type": "address"
						},
						{
							"internalType": "uint256",
							"name": "",
							"type": "uint256"
						}
					],
					"name": "playerQuests",
					"outputs": [
						{
							"internalType": "string",
							"name": "title",
							"type": "string"
						},
						{
							"internalType": "string",
							"name": "description",
							"type": "string"
						},
						{
							"internalType": "uint256",
							"name": "rewardXP",
							"type": "uint256"
						},
						{
							"internalType": "bool",
							"name": "completed",
							"type": "bool"
						}
					],
					"stateMutability": "view",
					"type": "function"
				},
				{
					"inputs": [
						{
							"internalType": "address",
							"name": "",
							"type": "address"
						}
					],
					"name": "players",
					"outputs": [
						{
							"internalType": "uint256",
							"name": "level",
							"type": "uint256"
						},
						{
							"internalType": "uint256",
							"name": "experience",
							"type": "uint256"
						},
						{
							"internalType": "uint256",
							"name": "health",
							"type": "uint256"
						},
						{
							"internalType": "uint256",
							"name": "mana",
							"type": "uint256"
						},
						{
							"internalType": "uint256",
							"name": "attackDamage",
							"type": "uint256"
						},
						{
							"internalType": "uint256",
							"name": "defense",
							"type": "uint256"
						},
						{
							"internalType": "uint256",
							"name": "agility",
							"type": "uint256"
						},
						{
							"internalType": "uint256",
							"name": "luck",
							"type": "uint256"
						}
					],
					"stateMutability": "view",
					"type": "function"
				},
				{
					"inputs": [],
					"name": "proxiableUUID",
					"outputs": [
						{
							"internalType": "bytes32",
							"name": "",
							"type": "bytes32"
						}
					],
					"stateMutability": "view",
					"type": "function"
				},
				{
					"inputs": [
						{
							"internalType": "uint256",
							"name": "",
							"type": "uint256"
						}
					],
					"name": "recipes",
					"outputs": [
						{
							"internalType": "uint256",
							"name": "resultItemId",
							"type": "uint256"
						}
					],
					"stateMutability": "view",
					"type": "function"
				},
				{
					"inputs": [
						{
							"internalType": "bytes32",
							"name": "role",
							"type": "bytes32"
						},
						{
							"internalType": "address",
							"name": "callerConfirmation",
							"type": "address"
						}
					],
					"name": "renounceRole",
					"outputs": [],
					"stateMutability": "nonpayable",
					"type": "function"
				},
				{
					"inputs": [
						{
							"internalType": "bytes32",
							"name": "role",
							"type": "bytes32"
						},
						{
							"internalType": "address",
							"name": "account",
							"type": "address"
						}
					],
					"name": "revokeRole",
					"outputs": [],
					"stateMutability": "nonpayable",
					"type": "function"
				},
				{
					"inputs": [
						{
							"internalType": "string",
							"name": "title",
							"type": "string"
						},
						{
							"internalType": "string",
							"name": "description",
							"type": "string"
						},
						{
							"internalType": "uint256",
							"name": "rewardXP",
							"type": "uint256"
						}
					],
					"name": "startQuest",
					"outputs": [],
					"stateMutability": "nonpayable",
					"type": "function"
				},
				{
					"inputs": [
						{
							"internalType": "bytes4",
							"name": "interfaceId",
							"type": "bytes4"
						}
					],
					"name": "supportsInterface",
					"outputs": [
						{
							"internalType": "bool",
							"name": "",
							"type": "bool"
						}
					],
					"stateMutability": "view",
					"type": "function"
				},
				{
					"inputs": [],
					"name": "unpause",
					"outputs": [],
					"stateMutability": "nonpayable",
					"type": "function"
				},
				{
					"inputs": [
						{
							"internalType": "address",
							"name": "newImplementation",
							"type": "address"
						},
						{
							"internalType": "bytes",
							"name": "data",
							"type": "bytes"
						}
					],
					"name": "upgradeToAndCall",
					"outputs": [],
					"stateMutability": "payable",
					"type": "function"
				}
			],
			"devdoc": {
				"errors": {
					"AccessControlBadConfirmation()": [
						{
							"details": "The caller of a function is not the expected one. NOTE: Don't confuse with {AccessControlUnauthorizedAccount}."
						}
					],
					"AccessControlUnauthorizedAccount(address,bytes32)": [
						{
							"details": "The `account` is missing a role."
						}
					],
					"AddressEmptyCode(address)": [
						{
							"details": "There's no code at `target` (it is not a contract)."
						}
					],
					"ERC1967InvalidImplementation(address)": [
						{
							"details": "The `implementation` of the proxy is invalid."
						}
					],
					"ERC1967NonPayable()": [
						{
							"details": "An upgrade function sees `msg.value > 0` that may be lost."
						}
					],
					"EnforcedPause()": [
						{
							"details": "The operation failed because the contract is paused."
						}
					],
					"ExpectedPause()": [
						{
							"details": "The operation failed because the contract is not paused."
						}
					],
					"FailedInnerCall()": [
						{
							"details": "A call to an address target failed. The target may have reverted."
						}
					],
					"InvalidInitialization()": [
						{
							"details": "The contract is already initialized."
						}
					],
					"NotInitializing()": [
						{
							"details": "The contract is not initializing."
						}
					],
					"UUPSUnauthorizedCallContext()": [
						{
							"details": "The call is from an unauthorized context."
						}
					],
					"UUPSUnsupportedProxiableUUID(bytes32)": [
						{
							"details": "The storage `slot` is unsupported as a UUID."
						}
					]
				},
				"events": {
					"Initialized(uint64)": {
						"details": "Triggered when the contract has been initialized or reinitialized."
					},
					"Paused(address)": {
						"details": "Emitted when the pause is triggered by `account`."
					},
					"RoleAdminChanged(bytes32,bytes32,bytes32)": {
						"details": "Emitted when `newAdminRole` is set as ``role``'s admin role, replacing `previousAdminRole` `DEFAULT_ADMIN_ROLE` is the starting admin for all roles, despite {RoleAdminChanged} not being emitted signaling this."
					},
					"RoleGranted(bytes32,address,address)": {
						"details": "Emitted when `account` is granted `role`. `sender` is the account that originated the contract call, an admin role bearer except when using {AccessControl-_setupRole}."
					},
					"RoleRevoked(bytes32,address,address)": {
						"details": "Emitted when `account` is revoked `role`. `sender` is the account that originated the contract call:   - if using `revokeRole`, it is the admin role bearer   - if using `renounceRole`, it is the role bearer (i.e. `account`)"
					},
					"Unpaused(address)": {
						"details": "Emitted when the pause is lifted by `account`."
					},
					"Upgraded(address)": {
						"details": "Emitted when the implementation is upgraded."
					}
				},
				"kind": "dev",
				"methods": {
					"getRoleAdmin(bytes32)": {
						"details": "Returns the admin role that controls `role`. See {grantRole} and {revokeRole}. To change a role's admin, use {_setRoleAdmin}."
					},
					"grantRole(bytes32,address)": {
						"details": "Grants `role` to `account`. If `account` had not been already granted `role`, emits a {RoleGranted} event. Requirements: - the caller must have ``role``'s admin role. May emit a {RoleGranted} event."
					},
					"hasRole(bytes32,address)": {
						"details": "Returns `true` if `account` has been granted `role`."
					},
					"paused()": {
						"details": "Returns true if the contract is paused, and false otherwise."
					},
					"proxiableUUID()": {
						"details": "Implementation of the ERC1822 {proxiableUUID} function. This returns the storage slot used by the implementation. It is used to validate the implementation's compatibility when performing an upgrade. IMPORTANT: A proxy pointing at a proxiable contract should not be considered proxiable itself, because this risks bricking a proxy that upgrades to it, by delegating to itself until out of gas. Thus it is critical that this function revert if invoked through a proxy. This is guaranteed by the `notDelegated` modifier."
					},
					"renounceRole(bytes32,address)": {
						"details": "Revokes `role` from the calling account. Roles are often managed via {grantRole} and {revokeRole}: this function's purpose is to provide a mechanism for accounts to lose their privileges if they are compromised (such as when a trusted device is misplaced). If the calling account had been revoked `role`, emits a {RoleRevoked} event. Requirements: - the caller must be `callerConfirmation`. May emit a {RoleRevoked} event."
					},
					"revokeRole(bytes32,address)": {
						"details": "Revokes `role` from `account`. If `account` had been granted `role`, emits a {RoleRevoked} event. Requirements: - the caller must have ``role``'s admin role. May emit a {RoleRevoked} event."
					},
					"supportsInterface(bytes4)": {
						"details": "See {IERC165-supportsInterface}."
					},
					"upgradeToAndCall(address,bytes)": {
						"custom:oz-upgrades-unsafe-allow-reachable": "delegatecall",
						"details": "Upgrade the implementation of the proxy to `newImplementation`, and subsequently execute the function call encoded in `data`. Calls {_authorizeUpgrade}. Emits an {Upgraded} event."
					}
				},
				"version": 1
			},
			"evm": {
				"assembly": "    /* \"src/contract/CryptoQuestTheShardsOfGenesisMMORPG.sol\":420:6536  contract CryptoQuestTheShardsOfGenesisMMPORPG is Initializable, PausableUpgradeable, AccessControlUpgradeable, UUPSUpgradeable {... */\n  mstore(0x40, 0xa0)\n    /* \"@openzeppelin/contracts-upgradeable/proxy/utils/UUPSUpgradeable.sol\":1171:1175  this */\n  address\n    /* \"@openzeppelin/contracts-upgradeable/proxy/utils/UUPSUpgradeable.sol\":1128:1176  address private immutable __self = address(this) */\n  0x80\n  mstore\n    /* \"src/contract/CryptoQuestTheShardsOfGenesisMMORPG.sol\":1512:1513  1 */\n  0x01\n    /* \"src/contract/CryptoQuestTheShardsOfGenesisMMORPG.sol\":1486:1513  uint private nextItemId = 1 */\n  0x00\n  dup2\n  swap1\n  sstore\n    /* \"src/contract/CryptoQuestTheShardsOfGenesisMMORPG.sol\":1519:1548  uint private nextRecipeId = 1 */\n  dup1\n  sstore\n    /* \"src/contract/CryptoQuestTheShardsOfGenesisMMORPG.sol\":420:6536  contract CryptoQuestTheShardsOfGenesisMMPORPG is Initializable, PausableUpgradeable, AccessControlUpgradeable, UUPSUpgradeable {... */\n  callvalue\n  dup1\n  iszero\n  tag_1\n  jumpi\n  0x00\n  dup1\n  revert\ntag_1:\n  pop\n  mload(0x80)\n  codecopy(0x00, dataOffset(sub_0), dataSize(sub_0))\n  0x00\n  assignImmutable(\"0x3b04ad91523c4dcf551e081621e633b9099d51bf9c5461e58c3bc7354a578b27\")\n  return(0x00, dataSize(sub_0))\nstop\n\nsub_0: assembly {\n        /* \"src/contract/CryptoQuestTheShardsOfGenesisMMORPG.sol\":420:6536  contract CryptoQuestTheShardsOfGenesisMMPORPG is Initializable, PausableUpgradeable, AccessControlUpgradeable, UUPSUpgradeable {... */\n      mstore(0x40, 0x80)\n      jumpi(tag_1, lt(calldatasize, 0x04))\n      shr(0xe0, calldataload(0x00))\n      dup1\n      0x8456cb59\n      gt\n      tag_32\n      jumpi\n      dup1\n      0xbfb231d2\n      gt\n      tag_33\n      jumpi\n      dup1\n      0xe2eb41ff\n      gt\n      tag_34\n      jumpi\n      dup1\n      0xe2eb41ff\n      eq\n      tag_28\n      jumpi\n      dup1\n      0xe551ba4b\n      eq\n      tag_29\n      jumpi\n      dup1\n      0xe63ab1e9\n      eq\n      tag_30\n      jumpi\n      dup1\n      0xf72c0d8b\n      eq\n      tag_31\n      jumpi\n      0x00\n      dup1\n      revert\n    tag_34:\n      dup1\n      0xbfb231d2\n      eq\n      tag_24\n      jumpi\n      dup1\n      0xc0c53b8b\n      eq\n      tag_25\n      jumpi\n      dup1\n      0xd3dcff7c\n      eq\n      tag_26\n      jumpi\n      dup1\n      0xd547741f\n      eq\n      tag_27\n      jumpi\n      0x00\n      dup1\n      revert\n    tag_33:\n      dup1\n      0xa75859e1\n      gt\n      tag_35\n      jumpi\n      dup1\n      0xa75859e1\n      eq\n      tag_20\n      jumpi\n      dup1\n      0xa9834b67\n      eq\n      tag_21\n      jumpi\n      dup1\n      0xad3cb1cc\n      eq\n      tag_22\n      jumpi\n      dup1\n      0xbe22d27d\n      eq\n      tag_23\n      jumpi\n      0x00\n      dup1\n      revert\n    tag_35:\n      dup1\n      0x8456cb59\n      eq\n      tag_17\n      jumpi\n      dup1\n      0x91d14854\n      eq\n      tag_18\n      jumpi\n      dup1\n      0xa217fddf\n      eq\n      tag_19\n      jumpi\n      0x00\n      dup1\n      revert\n    tag_32:\n      dup1\n      0x3fa9fcf8\n      gt\n      tag_36\n      jumpi\n      dup1\n      0x52d1902d\n      gt\n      tag_37\n      jumpi\n      dup1\n      0x52d1902d\n      eq\n      tag_13\n      jumpi\n      dup1\n      0x5c975abb\n      eq\n      tag_14\n      jumpi\n      dup1\n      0x6f347a78\n      eq\n      tag_15\n      jumpi\n      dup1\n      0x7309cbbd\n      eq\n      tag_16\n      jumpi\n      0x00\n      dup1\n      revert\n    tag_37:\n      dup1\n      0x3fa9fcf8\n      eq\n      tag_9\n      jumpi\n      dup1\n      0x443c227c\n      eq\n      tag_10\n      jumpi\n      dup1\n      0x4f1ef286\n      eq\n      tag_11\n      jumpi\n      dup1\n      0x4fa4a1bb\n      eq\n      tag_12\n      jumpi\n      0x00\n      dup1\n      revert\n    tag_36:\n      dup1\n      0x2f2ff15d\n      gt\n      tag_38\n      jumpi\n      dup1\n      0x2f2ff15d\n      eq\n      tag_5\n      jumpi\n      dup1\n      0x31fee8be\n      eq\n      tag_6\n      jumpi\n      dup1\n      0x36568abe\n      eq\n      tag_7\n      jumpi\n      dup1\n      0x3f4ba83a\n      eq\n      tag_8\n      jumpi\n      0x00\n      dup1\n      revert\n    tag_38:\n      dup1\n      0x01ffc9a7\n      eq\n      tag_2\n      jumpi\n      dup1\n      0x17435e1a\n      eq\n      tag_3\n      jumpi\n      dup1\n      0x248a9ca3\n      eq\n      tag_4\n      jumpi\n    tag_1:\n      0x00\n      dup1\n      revert\n        /* \"@openzeppelin/contracts-upgradeable/access/AccessControlUpgradeable.sol\":3443:3645  function supportsInterface(bytes4 interfaceId) public view virtual override returns (bool) {... */\n    tag_2:\n      callvalue\n      dup1\n      iszero\n      tag_39\n      jumpi\n      0x00\n      dup1\n      revert\n    tag_39:\n      pop\n      tag_40\n      tag_41\n      calldatasize\n      0x04\n      tag_42\n      jump\t// in\n    tag_41:\n      tag_43\n      jump\t// in\n    tag_40:\n      mload(0x40)\n        /* \"#utility.yul\":470:484   */\n      swap1\n      iszero\n        /* \"#utility.yul\":463:485   */\n      iszero\n        /* \"#utility.yul\":445:486   */\n      dup2\n      mstore\n        /* \"#utility.yul\":433:435   */\n      0x20\n        /* \"#utility.yul\":418:436   */\n      add\n        /* \"@openzeppelin/contracts-upgradeable/access/AccessControlUpgradeable.sol\":3443:3645  function supportsInterface(bytes4 interfaceId) public view virtual override returns (bool) {... */\n    tag_44:\n      mload(0x40)\n      dup1\n      swap2\n      sub\n      swap1\n      return\n        /* \"src/contract/CryptoQuestTheShardsOfGenesisMMORPG.sol\":3557:4089  function completeQuest(string memory questTitle) public {... */\n    tag_3:\n      callvalue\n      dup1\n      iszero\n      tag_46\n      jumpi\n      0x00\n      dup1\n      revert\n    tag_46:\n      pop\n      tag_47\n      tag_48\n      calldatasize\n      0x04\n      tag_49\n      jump\t// in\n    tag_48:\n      tag_50\n      jump\t// in\n    tag_47:\n      stop\n        /* \"@openzeppelin/contracts-upgradeable/access/AccessControlUpgradeable.sol\":4759:4950  function getRoleAdmin(bytes32 role) public view virtual returns (bytes32) {... */\n    tag_4:\n      callvalue\n      dup1\n      iszero\n      tag_51\n      jumpi\n      0x00\n      dup1\n      revert\n    tag_51:\n      pop\n      tag_52\n      tag_53\n      calldatasize\n      0x04\n      tag_54\n      jump\t// in\n    tag_53:\n      tag_55\n      jump\t// in\n    tag_52:\n      mload(0x40)\n        /* \"#utility.yul\":2206:2231   */\n      swap1\n      dup2\n      mstore\n        /* \"#utility.yul\":2194:2196   */\n      0x20\n        /* \"#utility.yul\":2179:2197   */\n      add\n        /* \"@openzeppelin/contracts-upgradeable/access/AccessControlUpgradeable.sol\":4759:4950  function getRoleAdmin(bytes32 role) public view virtual returns (bytes32) {... */\n      tag_44\n        /* \"#utility.yul\":2060:2237   */\n      jump\n        /* \"@openzeppelin/contracts-upgradeable/access/AccessControlUpgradeable.sol\":5246:5382  function grantRole(bytes32 role, address account) public virtual onlyRole(getRoleAdmin(role)) {... */\n    tag_5:\n      callvalue\n      dup1\n      iszero\n      tag_58\n      jumpi\n      0x00\n      dup1\n      revert\n    tag_58:\n      pop\n      tag_47\n      tag_60\n      calldatasize\n      0x04\n      tag_61\n      jump\t// in\n    tag_60:\n      tag_62\n      jump\t// in\n        /* \"src/contract/CryptoQuestTheShardsOfGenesisMMORPG.sol\":3024:3339  function addItem(string memory name, uint attackBonus, uint defenseBonus, uint manaBonus, uint healthBonus) public onlyRole(GAME_ADMIN_ROLE) {... */\n    tag_6:\n      callvalue\n      dup1\n      iszero\n      tag_63\n      jumpi\n      0x00\n      dup1\n      revert\n    tag_63:\n      pop\n      tag_47\n      tag_65\n      calldatasize\n      0x04\n      tag_66\n      jump\t// in\n    tag_65:\n      tag_67\n      jump\t// in\n        /* \"@openzeppelin/contracts-upgradeable/access/AccessControlUpgradeable.sol\":6348:6593  function renounceRole(bytes32 role, address callerConfirmation) public virtual {... */\n    tag_7:\n      callvalue\n      dup1\n      iszero\n      tag_68\n      jumpi\n      0x00\n      dup1\n      revert\n    tag_68:\n      pop\n      tag_47\n      tag_70\n      calldatasize\n      0x04\n      tag_61\n      jump\t// in\n    tag_70:\n      tag_71\n      jump\t// in\n        /* \"src/contract/CryptoQuestTheShardsOfGenesisMMORPG.sol\":2585:2660  function unpause() public onlyRole(PAUSER_ROLE) {... */\n    tag_8:\n      callvalue\n      dup1\n      iszero\n      tag_72\n      jumpi\n      0x00\n      dup1\n      revert\n    tag_72:\n      pop\n      tag_47\n      tag_74\n      jump\t// in\n        /* \"src/contract/CryptoQuestTheShardsOfGenesisMMORPG.sol\":2770:3018  function createPlayer() public {... */\n    tag_9:\n      callvalue\n      dup1\n      iszero\n      tag_75\n      jumpi\n      0x00\n      dup1\n      revert\n    tag_75:\n      pop\n      tag_47\n      tag_77\n      jump\t// in\n        /* \"src/contract/CryptoQuestTheShardsOfGenesisMMORPG.sol\":1790:1828  mapping(uint => Recipe) public recipes */\n    tag_10:\n      callvalue\n      dup1\n      iszero\n      tag_78\n      jumpi\n      0x00\n      dup1\n      revert\n    tag_78:\n      pop\n      tag_52\n      tag_80\n      calldatasize\n      0x04\n      tag_54\n      jump\t// in\n    tag_80:\n      mstore(0x20, 0x07)\n      0x00\n      swap1\n      dup2\n      mstore\n      0x40\n      swap1\n      keccak256\n      0x01\n      add\n      sload\n      dup2\n      jump\n        /* \"@openzeppelin/contracts-upgradeable/proxy/utils/UUPSUpgradeable.sol\":4158:4372  function upgradeToAndCall(address newImplementation, bytes memory data) public payable virtual onlyProxy {... */\n    tag_11:\n      tag_47\n      tag_86\n      calldatasize\n      0x04\n      tag_87\n      jump\t// in\n    tag_86:\n      tag_88\n      jump\t// in\n        /* \"src/contract/CryptoQuestTheShardsOfGenesisMMORPG.sol\":4095:4463  function createGuild(string memory name, address leader) public onlyRole(GAME_ADMIN_ROLE) {... */\n    tag_12:\n      callvalue\n      dup1\n      iszero\n      tag_89\n      jumpi\n      0x00\n      dup1\n      revert\n    tag_89:\n      pop\n      tag_47\n      tag_91\n      calldatasize\n      0x04\n      tag_92\n      jump\t// in\n    tag_91:\n      tag_93\n      jump\t// in\n        /* \"@openzeppelin/contracts-upgradeable/proxy/utils/UUPSUpgradeable.sol\":3705:3839  function proxiableUUID() external view virtual notDelegated returns (bytes32) {... */\n    tag_13:\n      callvalue\n      dup1\n      iszero\n      tag_94\n      jumpi\n      0x00\n      dup1\n      revert\n    tag_94:\n      pop\n      tag_52\n      tag_96\n      jump\t// in\n        /* \"@openzeppelin/contracts-upgradeable/utils/PausableUpgradeable.sol\":2692:2837  function paused() public view virtual returns (bool) {... */\n    tag_14:\n      callvalue\n      dup1\n      iszero\n      tag_98\n      jumpi\n      0x00\n      dup1\n      revert\n    tag_98:\n      pop\n      0x00\n      dup1\n      mload\n      0x20\n      data_c0c65a3718f3702d917c44106b91645b509d2e2d0979b70495c3babce192339f\n      dup4\n      codecopy\n      dup2\n      mload\n      swap2\n      mstore\n        /* \"@openzeppelin/contracts-upgradeable/utils/PausableUpgradeable.sol\":2821:2830  $._paused */\n      sload\n      0xff\n      and\n        /* \"@openzeppelin/contracts-upgradeable/utils/PausableUpgradeable.sol\":2692:2837  function paused() public view virtual returns (bool) {... */\n      jump(tag_40)\n        /* \"src/contract/CryptoQuestTheShardsOfGenesisMMORPG.sol\":3345:3551  function startQuest(string memory title, string memory description, uint rewardXP) public onlyRole(GAME_ADMIN_ROLE) {... */\n    tag_15:\n      callvalue\n      dup1\n      iszero\n      tag_102\n      jumpi\n      0x00\n      dup1\n      revert\n    tag_102:\n      pop\n      tag_47\n      tag_104\n      calldatasize\n      0x04\n      tag_105\n      jump\t// in\n    tag_104:\n      tag_106\n      jump\t// in\n        /* \"src/contract/CryptoQuestTheShardsOfGenesisMMORPG.sol\":5235:6534  function craftItem(uint recipeId) public {... */\n    tag_16:\n      callvalue\n      dup1\n      iszero\n      tag_107\n      jumpi\n      0x00\n      dup1\n      revert\n    tag_107:\n      pop\n      tag_47\n      tag_109\n      calldatasize\n      0x04\n      tag_54\n      jump\t// in\n    tag_109:\n      tag_110\n      jump\t// in\n        /* \"src/contract/CryptoQuestTheShardsOfGenesisMMORPG.sol\":2508:2579  function pause() public onlyRole(PAUSER_ROLE) {... */\n    tag_17:\n      callvalue\n      dup1\n      iszero\n      tag_111\n      jumpi\n      0x00\n      dup1\n      revert\n    tag_111:\n      pop\n      tag_47\n      tag_113\n      jump\t// in\n        /* \"@openzeppelin/contracts-upgradeable/access/AccessControlUpgradeable.sol\":3732:3939  function hasRole(bytes32 role, address account) public view virtual returns (bool) {... */\n    tag_18:\n      callvalue\n      dup1\n      iszero\n      tag_114\n      jumpi\n      0x00\n      dup1\n      revert\n    tag_114:\n      pop\n      tag_40\n      tag_116\n      calldatasize\n      0x04\n      tag_61\n      jump\t// in\n    tag_116:\n      tag_117\n      jump\t// in\n        /* \"@openzeppelin/contracts-upgradeable/access/AccessControlUpgradeable.sol\":2317:2366  bytes32 public constant DEFAULT_ADMIN_ROLE = 0x00 */\n    tag_19:\n      callvalue\n      dup1\n      iszero\n      tag_119\n      jumpi\n      0x00\n      dup1\n      revert\n    tag_119:\n      pop\n      tag_52\n        /* \"@openzeppelin/contracts-upgradeable/access/AccessControlUpgradeable.sol\":2362:2366  0x00 */\n      0x00\n        /* \"@openzeppelin/contracts-upgradeable/access/AccessControlUpgradeable.sol\":2317:2366  bytes32 public constant DEFAULT_ADMIN_ROLE = 0x00 */\n      dup2\n      jump\n        /* \"src/contract/CryptoQuestTheShardsOfGenesisMMORPG.sol\":1695:1734  mapping(address => Guild) public guilds */\n    tag_20:\n      callvalue\n      dup1\n      iszero\n      tag_123\n      jumpi\n      0x00\n      dup1\n      revert\n    tag_123:\n      pop\n      tag_124\n      tag_125\n      calldatasize\n      0x04\n      tag_126\n      jump\t// in\n    tag_125:\n      tag_127\n      jump\t// in\n    tag_124:\n      mload(0x40)\n      tag_44\n      swap3\n      swap2\n      swap1\n      tag_129\n      jump\t// in\n        /* \"src/contract/CryptoQuestTheShardsOfGenesisMMORPG.sol\":4987:5229  function addRecipe(uint[] memory itemIds, uint resultItemId) public onlyRole(GAME_ADMIN_ROLE) {... */\n    tag_21:\n      callvalue\n      dup1\n      iszero\n      tag_130\n      jumpi\n      0x00\n      dup1\n      revert\n    tag_130:\n      pop\n      tag_47\n      tag_132\n      calldatasize\n      0x04\n      tag_133\n      jump\t// in\n    tag_132:\n      tag_134\n      jump\t// in\n        /* \"@openzeppelin/contracts-upgradeable/proxy/utils/UUPSUpgradeable.sol\":1819:1877  string public constant UPGRADE_INTERFACE_VERSION = \"5.0.0\" */\n    tag_22:\n      callvalue\n      dup1\n      iszero\n      tag_135\n      jumpi\n      0x00\n      dup1\n      revert\n    tag_135:\n      pop\n      tag_136\n      mload(0x40)\n      dup1\n      0x40\n      add\n      0x40\n      mstore\n      dup1\n      0x05\n      dup2\n      mstore\n      0x20\n      add\n      shl(0xdc, 0x0352e302e3)\n      dup2\n      mstore\n      pop\n      dup2\n      jump\n    tag_136:\n      mload(0x40)\n      tag_44\n      swap2\n      swap1\n      tag_139\n      jump\t// in\n        /* \"src/contract/CryptoQuestTheShardsOfGenesisMMORPG.sol\":693:763  bytes32 public constant GAME_ADMIN_ROLE = keccak256(\"GAME_ADMIN_ROLE\") */\n    tag_23:\n      callvalue\n      dup1\n      iszero\n      tag_140\n      jumpi\n      0x00\n      dup1\n      revert\n    tag_140:\n      pop\n      tag_52\n      0x00\n      dup1\n      mload\n      0x20\n      data_3059375685003c5c33343043cb51f6c6b03e849d5b2f19339e935f8b505d9fe3\n      dup4\n      codecopy\n      dup2\n      mload\n      swap2\n      mstore\n      dup2\n      jump\n        /* \"src/contract/CryptoQuestTheShardsOfGenesisMMORPG.sol\":1555:1589  mapping(uint => Item) public items */\n    tag_24:\n      callvalue\n      dup1\n      iszero\n      tag_144\n      jumpi\n      0x00\n      dup1\n      revert\n    tag_144:\n      pop\n      tag_145\n      tag_146\n      calldatasize\n      0x04\n      tag_54\n      jump\t// in\n    tag_146:\n      tag_147\n      jump\t// in\n    tag_145:\n      mload(0x40)\n      tag_44\n      swap7\n      swap6\n      swap5\n      swap4\n      swap3\n      swap2\n      swap1\n      tag_149\n      jump\t// in\n        /* \"src/contract/CryptoQuestTheShardsOfGenesisMMORPG.sol\":2115:2502  function initialize(address defaultAdmin, address pauser, address upgrader) initializer public {... */\n    tag_25:\n      callvalue\n      dup1\n      iszero\n      tag_150\n      jumpi\n      0x00\n      dup1\n      revert\n    tag_150:\n      pop\n      tag_47\n      tag_152\n      calldatasize\n      0x04\n      tag_153\n      jump\t// in\n    tag_152:\n      tag_154\n      jump\t// in\n        /* \"src/contract/CryptoQuestTheShardsOfGenesisMMORPG.sol\":1642:1689  mapping(address => Quest[]) public playerQuests */\n    tag_26:\n      callvalue\n      dup1\n      iszero\n      tag_155\n      jumpi\n      0x00\n      dup1\n      revert\n    tag_155:\n      pop\n      tag_156\n      tag_157\n      calldatasize\n      0x04\n      tag_158\n      jump\t// in\n    tag_157:\n      tag_159\n      jump\t// in\n    tag_156:\n      mload(0x40)\n      tag_44\n      swap5\n      swap4\n      swap3\n      swap2\n      swap1\n      tag_161\n      jump\t// in\n        /* \"@openzeppelin/contracts-upgradeable/access/AccessControlUpgradeable.sol\":5662:5800  function revokeRole(bytes32 role, address account) public virtual onlyRole(getRoleAdmin(role)) {... */\n    tag_27:\n      callvalue\n      dup1\n      iszero\n      tag_162\n      jumpi\n      0x00\n      dup1\n      revert\n    tag_162:\n      pop\n      tag_47\n      tag_164\n      calldatasize\n      0x04\n      tag_61\n      jump\t// in\n    tag_164:\n      tag_165\n      jump\t// in\n        /* \"src/contract/CryptoQuestTheShardsOfGenesisMMORPG.sol\":1595:1636  mapping(address => Player) public players */\n    tag_28:\n      callvalue\n      dup1\n      iszero\n      tag_166\n      jumpi\n      0x00\n      dup1\n      revert\n    tag_166:\n      pop\n      tag_167\n      tag_168\n      calldatasize\n      0x04\n      tag_126\n      jump\t// in\n    tag_168:\n      mstore(0x20, 0x03)\n      dup1\n      0x00\n      mstore\n      keccak256(0x00, 0x40)\n      0x00\n      swap2\n      pop\n      swap1\n      pop\n      dup1\n      0x00\n      add\n      sload\n      swap1\n      dup1\n      0x01\n      add\n      sload\n      swap1\n      dup1\n      0x02\n      add\n      sload\n      swap1\n      dup1\n      0x03\n      add\n      sload\n      swap1\n      dup1\n      0x04\n      add\n      sload\n      swap1\n      dup1\n      0x05\n      add\n      sload\n      swap1\n      dup1\n      0x06\n      add\n      sload\n      swap1\n      dup1\n      0x07\n      add\n      sload\n      swap1\n      pop\n      dup9\n      jump\n    tag_167:\n      0x40\n      dup1\n      mload\n        /* \"#utility.yul\":9379:9404   */\n      swap9\n      dup10\n      mstore\n        /* \"#utility.yul\":9435:9437   */\n      0x20\n        /* \"#utility.yul\":9420:9438   */\n      dup10\n      add\n        /* \"#utility.yul\":9413:9447   */\n      swap8\n      swap1\n      swap8\n      mstore\n        /* \"#utility.yul\":9463:9481   */\n      swap6\n      dup8\n      add\n        /* \"#utility.yul\":9456:9490   */\n      swap5\n      swap1\n      swap5\n      mstore\n        /* \"#utility.yul\":9521:9523   */\n      0x60\n        /* \"#utility.yul\":9506:9524   */\n      dup7\n      add\n        /* \"#utility.yul\":9499:9533   */\n      swap3\n      swap1\n      swap3\n      mstore\n        /* \"#utility.yul\":9564:9567   */\n      0x80\n        /* \"#utility.yul\":9549:9568   */\n      dup6\n      add\n        /* \"#utility.yul\":9542:9577   */\n      mstore\n        /* \"#utility.yul\":9608:9611   */\n      0xa0\n        /* \"#utility.yul\":9593:9612   */\n      dup5\n      add\n        /* \"#utility.yul\":9586:9621   */\n      mstore\n        /* \"#utility.yul\":9652:9655   */\n      0xc0\n        /* \"#utility.yul\":9637:9656   */\n      dup4\n      add\n        /* \"#utility.yul\":9630:9665   */\n      mstore\n        /* \"#utility.yul\":9696:9699   */\n      0xe0\n        /* \"#utility.yul\":9681:9700   */\n      dup3\n      add\n        /* \"#utility.yul\":9674:9709   */\n      mstore\n        /* \"#utility.yul\":9366:9369   */\n      0x0100\n        /* \"#utility.yul\":9351:9370   */\n      add\n        /* \"src/contract/CryptoQuestTheShardsOfGenesisMMORPG.sol\":1595:1636  mapping(address => Player) public players */\n      tag_44\n        /* \"#utility.yul\":9036:9715   */\n      jump\n        /* \"src/contract/CryptoQuestTheShardsOfGenesisMMORPG.sol\":4469:4981  function joinGuild(string memory guildName) public {... */\n    tag_29:\n      callvalue\n      dup1\n      iszero\n      tag_172\n      jumpi\n      0x00\n      dup1\n      revert\n    tag_172:\n      pop\n      tag_47\n      tag_174\n      calldatasize\n      0x04\n      tag_49\n      jump\t// in\n    tag_174:\n      tag_175\n      jump\t// in\n        /* \"src/contract/CryptoQuestTheShardsOfGenesisMMORPG.sol\":553:615  bytes32 public constant PAUSER_ROLE = keccak256(\"PAUSER_ROLE\") */\n    tag_30:\n      callvalue\n      dup1\n      iszero\n      tag_176\n      jumpi\n      0x00\n      dup1\n      revert\n    tag_176:\n      pop\n      tag_52\n      0x00\n      dup1\n      mload\n      0x20\n      data_9b87106a812d214d41ad9b68a21119e2948eaaf1040375c939ec808b8862455c\n      dup4\n      codecopy\n      dup2\n      mload\n      swap2\n      mstore\n      dup2\n      jump\n        /* \"src/contract/CryptoQuestTheShardsOfGenesisMMORPG.sol\":621:687  bytes32 public constant UPGRADER_ROLE = keccak256(\"UPGRADER_ROLE\") */\n    tag_31:\n      callvalue\n      dup1\n      iszero\n      tag_180\n      jumpi\n      0x00\n      dup1\n      revert\n    tag_180:\n      pop\n      tag_52\n        /* \"src/contract/CryptoQuestTheShardsOfGenesisMMORPG.sol\":661:687  keccak256(\"UPGRADER_ROLE\") */\n      0x189ab7a9244df0848122154315af71fe140f3db0fe014031783b0946b8c9d2e3\n        /* \"src/contract/CryptoQuestTheShardsOfGenesisMMORPG.sol\":621:687  bytes32 public constant UPGRADER_ROLE = keccak256(\"UPGRADER_ROLE\") */\n      dup2\n      jump\n        /* \"@openzeppelin/contracts-upgradeable/access/AccessControlUpgradeable.sol\":3443:3645  function supportsInterface(bytes4 interfaceId) public view virtual override returns (bool) {... */\n    tag_43:\n        /* \"@openzeppelin/contracts-upgradeable/access/AccessControlUpgradeable.sol\":3528:3532  bool */\n      0x00\n      not(sub(shl(0xe0, 0x01), 0x01))\n        /* \"@openzeppelin/contracts-upgradeable/access/AccessControlUpgradeable.sol\":3551:3598  interfaceId == type(IAccessControl).interfaceId */\n      dup3\n      and\n      shl(0xe0, 0x7965db0b)\n      eq\n      dup1\n        /* \"@openzeppelin/contracts-upgradeable/access/AccessControlUpgradeable.sol\":3551:3638  interfaceId == type(IAccessControl).interfaceId || super.supportsInterface(interfaceId) */\n      tag_186\n      jumpi\n      pop\n      shl(0xe0, 0x01ffc9a7)\n      not(sub(shl(0xe0, 0x01), 0x01))\n        /* \"@openzeppelin/contracts-upgradeable/utils/introspection/ERC165Upgradeable.sol\":1133:1173  interfaceId == type(IERC165).interfaceId */\n      dup4\n      and\n      eq\n        /* \"@openzeppelin/contracts-upgradeable/access/AccessControlUpgradeable.sol\":3602:3638  super.supportsInterface(interfaceId) */\n    tag_186:\n        /* \"@openzeppelin/contracts-upgradeable/access/AccessControlUpgradeable.sol\":3544:3638  return interfaceId == type(IAccessControl).interfaceId || super.supportsInterface(interfaceId) */\n      swap3\n        /* \"@openzeppelin/contracts-upgradeable/access/AccessControlUpgradeable.sol\":3443:3645  function supportsInterface(bytes4 interfaceId) public view virtual override returns (bool) {... */\n      swap2\n      pop\n      pop\n      jump\t// out\n        /* \"src/contract/CryptoQuestTheShardsOfGenesisMMORPG.sol\":3557:4089  function completeQuest(string memory questTitle) public {... */\n    tag_50:\n        /* \"src/contract/CryptoQuestTheShardsOfGenesisMMORPG.sol\":3628:3634  uint i */\n      0x00\n        /* \"src/contract/CryptoQuestTheShardsOfGenesisMMORPG.sol\":3623:4083  for (uint i = 0; i < playerQuests[msg.sender].length; i++) {... */\n    tag_189:\n        /* \"src/contract/CryptoQuestTheShardsOfGenesisMMORPG.sol\":3657:3667  msg.sender */\n      caller\n        /* \"src/contract/CryptoQuestTheShardsOfGenesisMMORPG.sol\":3644:3668  playerQuests[msg.sender] */\n      0x00\n      swap1\n      dup2\n      mstore\n        /* \"src/contract/CryptoQuestTheShardsOfGenesisMMORPG.sol\":3644:3656  playerQuests */\n      0x04\n        /* \"src/contract/CryptoQuestTheShardsOfGenesisMMORPG.sol\":3644:3668  playerQuests[msg.sender] */\n      0x20\n      mstore\n      0x40\n      swap1\n      keccak256\n        /* \"src/contract/CryptoQuestTheShardsOfGenesisMMORPG.sol\":3644:3675  playerQuests[msg.sender].length */\n      sload\n        /* \"src/contract/CryptoQuestTheShardsOfGenesisMMORPG.sol\":3640:3675  i < playerQuests[msg.sender].length */\n      dup2\n      lt\n        /* \"src/contract/CryptoQuestTheShardsOfGenesisMMORPG.sol\":3623:4083  for (uint i = 0; i < playerQuests[msg.sender].length; i++) {... */\n      iszero\n      tag_190\n      jumpi\n        /* \"src/contract/CryptoQuestTheShardsOfGenesisMMORPG.sol\":3731:3741  msg.sender */\n      caller\n        /* \"src/contract/CryptoQuestTheShardsOfGenesisMMORPG.sol\":3696:3715  Quest storage quest */\n      0x00\n        /* \"src/contract/CryptoQuestTheShardsOfGenesisMMORPG.sol\":3718:3742  playerQuests[msg.sender] */\n      swap1\n      dup2\n      mstore\n        /* \"src/contract/CryptoQuestTheShardsOfGenesisMMORPG.sol\":3718:3730  playerQuests */\n      0x04\n        /* \"src/contract/CryptoQuestTheShardsOfGenesisMMORPG.sol\":3718:3742  playerQuests[msg.sender] */\n      0x20\n      mstore\n      0x40\n      dup2\n      keccak256\n        /* \"src/contract/CryptoQuestTheShardsOfGenesisMMORPG.sol\":3718:3745  playerQuests[msg.sender][i] */\n      dup1\n      sload\n        /* \"src/contract/CryptoQuestTheShardsOfGenesisMMORPG.sol\":3743:3744  i */\n      dup4\n      swap1\n        /* \"src/contract/CryptoQuestTheShardsOfGenesisMMORPG.sol\":3718:3745  playerQuests[msg.sender][i] */\n      dup2\n      lt\n      tag_193\n      jumpi\n      tag_193\n      tag_194\n      jump\t// in\n    tag_193:\n      swap1\n      0x00\n      mstore\n      keccak256(0x00, 0x20)\n      swap1\n      0x04\n      mul\n      add\n        /* \"src/contract/CryptoQuestTheShardsOfGenesisMMORPG.sol\":3696:3745  Quest storage quest = playerQuests[msg.sender][i] */\n      swap1\n      pop\n        /* \"src/contract/CryptoQuestTheShardsOfGenesisMMORPG.sol\":3834:3844  questTitle */\n      dup3\n        /* \"src/contract/CryptoQuestTheShardsOfGenesisMMORPG.sol\":3817:3845  abi.encodePacked(questTitle) */\n      add(0x20, mload(0x40))\n      tag_196\n      swap2\n      swap1\n      tag_197\n      jump\t// in\n    tag_196:\n      0x40\n      dup1\n      mload\n      not(0x1f)\n      dup2\n      dup5\n      sub\n      add\n      dup2\n      mstore\n      swap1\n      dup3\n      swap1\n      mstore\n        /* \"src/contract/CryptoQuestTheShardsOfGenesisMMORPG.sol\":3807:3846  keccak256(abi.encodePacked(questTitle)) */\n      dup1\n      mload\n        /* \"src/contract/CryptoQuestTheShardsOfGenesisMMORPG.sol\":3817:3845  abi.encodePacked(questTitle) */\n      0x20\n        /* \"src/contract/CryptoQuestTheShardsOfGenesisMMORPG.sol\":3807:3846  keccak256(abi.encodePacked(questTitle)) */\n      swap2\n      dup3\n      add\n      keccak256\n      swap2\n        /* \"src/contract/CryptoQuestTheShardsOfGenesisMMORPG.sol\":3773:3802  abi.encodePacked(quest.title) */\n      tag_198\n      swap2\n        /* \"src/contract/CryptoQuestTheShardsOfGenesisMMORPG.sol\":3790:3795  quest */\n      dup5\n      swap2\n        /* \"src/contract/CryptoQuestTheShardsOfGenesisMMORPG.sol\":3773:3802  abi.encodePacked(quest.title) */\n      add\n      tag_199\n      jump\t// in\n    tag_198:\n      mload(0x40)\n      0x20\n      dup2\n      dup4\n      sub\n      sub\n      dup2\n      mstore\n      swap1\n      0x40\n      mstore\n        /* \"src/contract/CryptoQuestTheShardsOfGenesisMMORPG.sol\":3763:3803  keccak256(abi.encodePacked(quest.title)) */\n      dup1\n      mload\n      swap1\n      0x20\n      add\n      keccak256\n        /* \"src/contract/CryptoQuestTheShardsOfGenesisMMORPG.sol\":3763:3846  keccak256(abi.encodePacked(quest.title)) == keccak256(abi.encodePacked(questTitle)) */\n      eq\n        /* \"src/contract/CryptoQuestTheShardsOfGenesisMMORPG.sol\":3763:3866  keccak256(abi.encodePacked(quest.title)) == keccak256(abi.encodePacked(questTitle)) && !quest.completed */\n      dup1\n      iszero\n      tag_200\n      jumpi\n      pop\n        /* \"src/contract/CryptoQuestTheShardsOfGenesisMMORPG.sol\":3851:3866  quest.completed */\n      0x03\n      dup2\n      add\n      sload\n      0xff\n      and\n        /* \"src/contract/CryptoQuestTheShardsOfGenesisMMORPG.sol\":3850:3866  !quest.completed */\n      iszero\n        /* \"src/contract/CryptoQuestTheShardsOfGenesisMMORPG.sol\":3763:3866  keccak256(abi.encodePacked(quest.title)) == keccak256(abi.encodePacked(questTitle)) && !quest.completed */\n    tag_200:\n        /* \"src/contract/CryptoQuestTheShardsOfGenesisMMORPG.sol\":3759:4073  if (keccak256(abi.encodePacked(quest.title)) == keccak256(abi.encodePacked(questTitle)) && !quest.completed) {... */\n      iszero\n      tag_201\n      jumpi\n        /* \"src/contract/CryptoQuestTheShardsOfGenesisMMORPG.sol\":3886:3901  quest.completed */\n      0x03\n      dup1\n      dup3\n      add\n        /* \"src/contract/CryptoQuestTheShardsOfGenesisMMORPG.sol\":3886:3908  quest.completed = true */\n      dup1\n      sload\n      not(0xff)\n      and\n        /* \"src/contract/CryptoQuestTheShardsOfGenesisMMORPG.sol\":3904:3908  true */\n      0x01\n        /* \"src/contract/CryptoQuestTheShardsOfGenesisMMORPG.sol\":3886:3908  quest.completed = true */\n      swap1\n      dup2\n      or\n      swap1\n      swap2\n      sstore\n        /* \"src/contract/CryptoQuestTheShardsOfGenesisMMORPG.sol\":3960:3974  quest.rewardXP */\n      0x02\n      dup4\n      add\n      sload\n        /* \"src/contract/CryptoQuestTheShardsOfGenesisMMORPG.sol\":3934:3944  msg.sender */\n      caller\n        /* \"src/contract/CryptoQuestTheShardsOfGenesisMMORPG.sol\":3886:3901  quest.completed */\n      0x00\n        /* \"src/contract/CryptoQuestTheShardsOfGenesisMMORPG.sol\":3926:3945  players[msg.sender] */\n      swap1\n      dup2\n      mstore\n      0x20\n      swap4\n      swap1\n      swap4\n      mstore\n      0x40\n      dup4\n      keccak256\n        /* \"src/contract/CryptoQuestTheShardsOfGenesisMMORPG.sol\":3926:3956  players[msg.sender].experience */\n      swap1\n      swap2\n      add\n        /* \"src/contract/CryptoQuestTheShardsOfGenesisMMORPG.sol\":3926:3974  players[msg.sender].experience += quest.rewardXP */\n      dup1\n      sload\n        /* \"src/contract/CryptoQuestTheShardsOfGenesisMMORPG.sol\":3960:3974  quest.rewardXP */\n      swap2\n      swap3\n        /* \"src/contract/CryptoQuestTheShardsOfGenesisMMORPG.sol\":3926:3956  players[msg.sender].experience */\n      swap1\n      swap2\n        /* \"src/contract/CryptoQuestTheShardsOfGenesisMMORPG.sol\":3926:3974  players[msg.sender].experience += quest.rewardXP */\n      tag_202\n      swap1\n        /* \"src/contract/CryptoQuestTheShardsOfGenesisMMORPG.sol\":3960:3974  quest.rewardXP */\n      dup5\n      swap1\n        /* \"src/contract/CryptoQuestTheShardsOfGenesisMMORPG.sol\":3926:3974  players[msg.sender].experience += quest.rewardXP */\n      tag_203\n      jump\t// in\n    tag_202:\n      swap1\n      swap2\n      sstore\n      pop\n      pop\n        /* \"src/contract/CryptoQuestTheShardsOfGenesisMMORPG.sol\":3997:4035  QuestCompleted(msg.sender, questTitle) */\n      mload(0x40)\n        /* \"src/contract/CryptoQuestTheShardsOfGenesisMMORPG.sol\":4012:4022  msg.sender */\n      caller\n      swap1\n        /* \"src/contract/CryptoQuestTheShardsOfGenesisMMORPG.sol\":3997:4035  QuestCompleted(msg.sender, questTitle) */\n      0xbe21664565742a9f42cbb6d005f92db59c7bcad35b12ef5b57b79e75676b247a\n      swap1\n      tag_204\n      swap1\n        /* \"src/contract/CryptoQuestTheShardsOfGenesisMMORPG.sol\":4024:4034  questTitle */\n      dup7\n      swap1\n        /* \"src/contract/CryptoQuestTheShardsOfGenesisMMORPG.sol\":3997:4035  QuestCompleted(msg.sender, questTitle) */\n      tag_139\n      jump\t// in\n    tag_204:\n      mload(0x40)\n      dup1\n      swap2\n      sub\n      swap1\n      log2\n        /* \"src/contract/CryptoQuestTheShardsOfGenesisMMORPG.sol\":4053:4058  break */\n      pop\n        /* \"src/contract/CryptoQuestTheShardsOfGenesisMMORPG.sol\":3623:4083  for (uint i = 0; i < playerQuests[msg.sender].length; i++) {... */\n      pop\n        /* \"src/contract/CryptoQuestTheShardsOfGenesisMMORPG.sol\":3557:4089  function completeQuest(string memory questTitle) public {... */\n      pop\n      jump\t// out\n        /* \"src/contract/CryptoQuestTheShardsOfGenesisMMORPG.sol\":3759:4073  if (keccak256(abi.encodePacked(quest.title)) == keccak256(abi.encodePacked(questTitle)) && !quest.completed) {... */\n    tag_201:\n      pop\n        /* \"src/contract/CryptoQuestTheShardsOfGenesisMMORPG.sol\":3677:3680  i++ */\n      0x01\n      add\n        /* \"src/contract/CryptoQuestTheShardsOfGenesisMMORPG.sol\":3623:4083  for (uint i = 0; i < playerQuests[msg.sender].length; i++) {... */\n      jump(tag_189)\n    tag_190:\n      pop\n        /* \"src/contract/CryptoQuestTheShardsOfGenesisMMORPG.sol\":3557:4089  function completeQuest(string memory questTitle) public {... */\n      pop\n      jump\t// out\n        /* \"@openzeppelin/contracts-upgradeable/access/AccessControlUpgradeable.sol\":4759:4950  function getRoleAdmin(bytes32 role) public view virtual returns (bytes32) {... */\n    tag_55:\n        /* \"@openzeppelin/contracts-upgradeable/access/AccessControlUpgradeable.sol\":4824:4831  bytes32 */\n      0x00\n        /* \"@openzeppelin/contracts-upgradeable/access/AccessControlUpgradeable.sol\":4919:4933  $._roles[role] */\n      swap1\n      dup2\n      mstore\n      0x00\n      dup1\n      mload\n      0x20\n      data_b3da67d1b252aeab7c8063542d95e75f82a5307a82535949bc38f7cf7ba8897f\n      dup4\n      codecopy\n      dup2\n      mload\n      swap2\n      mstore\n      0x20\n      mstore\n      0x40\n      swap1\n      keccak256\n        /* \"@openzeppelin/contracts-upgradeable/access/AccessControlUpgradeable.sol\":4919:4943  $._roles[role].adminRole */\n      0x01\n      add\n      sload\n      swap1\n        /* \"@openzeppelin/contracts-upgradeable/access/AccessControlUpgradeable.sol\":4759:4950  function getRoleAdmin(bytes32 role) public view virtual returns (bytes32) {... */\n      jump\t// out\n        /* \"@openzeppelin/contracts-upgradeable/access/AccessControlUpgradeable.sol\":5246:5382  function grantRole(bytes32 role, address account) public virtual onlyRole(getRoleAdmin(role)) {... */\n    tag_62:\n        /* \"@openzeppelin/contracts-upgradeable/access/AccessControlUpgradeable.sol\":5320:5338  getRoleAdmin(role) */\n      tag_208\n        /* \"@openzeppelin/contracts-upgradeable/access/AccessControlUpgradeable.sol\":5333:5337  role */\n      dup3\n        /* \"@openzeppelin/contracts-upgradeable/access/AccessControlUpgradeable.sol\":5320:5332  getRoleAdmin */\n      tag_55\n        /* \"@openzeppelin/contracts-upgradeable/access/AccessControlUpgradeable.sol\":5320:5338  getRoleAdmin(role) */\n      jump\t// in\n    tag_208:\n        /* \"@openzeppelin/contracts-upgradeable/access/AccessControlUpgradeable.sol\":3191:3207  _checkRole(role) */\n      tag_210\n        /* \"@openzeppelin/contracts-upgradeable/access/AccessControlUpgradeable.sol\":3202:3206  role */\n      dup2\n        /* \"@openzeppelin/contracts-upgradeable/access/AccessControlUpgradeable.sol\":3191:3201  _checkRole */\n      tag_211\n        /* \"@openzeppelin/contracts-upgradeable/access/AccessControlUpgradeable.sol\":3191:3207  _checkRole(role) */\n      jump\t// in\n    tag_210:\n        /* \"@openzeppelin/contracts-upgradeable/access/AccessControlUpgradeable.sol\":5350:5375  _grantRole(role, account) */\n      tag_213\n        /* \"@openzeppelin/contracts-upgradeable/access/AccessControlUpgradeable.sol\":5361:5365  role */\n      dup4\n        /* \"@openzeppelin/contracts-upgradeable/access/AccessControlUpgradeable.sol\":5367:5374  account */\n      dup4\n        /* \"@openzeppelin/contracts-upgradeable/access/AccessControlUpgradeable.sol\":5350:5360  _grantRole */\n      tag_214\n        /* \"@openzeppelin/contracts-upgradeable/access/AccessControlUpgradeable.sol\":5350:5375  _grantRole(role, account) */\n      jump\t// in\n    tag_213:\n      pop\n        /* \"@openzeppelin/contracts-upgradeable/access/AccessControlUpgradeable.sol\":5246:5382  function grantRole(bytes32 role, address account) public virtual onlyRole(getRoleAdmin(role)) {... */\n      pop\n      pop\n      pop\n      jump\t// out\n        /* \"src/contract/CryptoQuestTheShardsOfGenesisMMORPG.sol\":3024:3339  function addItem(string memory name, uint attackBonus, uint defenseBonus, uint manaBonus, uint healthBonus) public onlyRole(GAME_ADMIN_ROLE) {... */\n    tag_67:\n      0x00\n      dup1\n      mload\n      0x20\n      data_3059375685003c5c33343043cb51f6c6b03e849d5b2f19339e935f8b505d9fe3\n      dup4\n      codecopy\n      dup2\n      mload\n      swap2\n      mstore\n        /* \"@openzeppelin/contracts-upgradeable/access/AccessControlUpgradeable.sol\":3191:3207  _checkRole(role) */\n      tag_216\n        /* \"@openzeppelin/contracts-upgradeable/access/AccessControlUpgradeable.sol\":3202:3206  role */\n      dup2\n        /* \"@openzeppelin/contracts-upgradeable/access/AccessControlUpgradeable.sol\":3191:3201  _checkRole */\n      tag_211\n        /* \"@openzeppelin/contracts-upgradeable/access/AccessControlUpgradeable.sol\":3191:3207  _checkRole(role) */\n      jump\t// in\n    tag_216:\n        /* \"src/contract/CryptoQuestTheShardsOfGenesisMMORPG.sol\":3195:3268  Item(nextItemId, name, attackBonus, defenseBonus, manaBonus, healthBonus) */\n      0x40\n      dup1\n      mload\n      0xc0\n      dup2\n      add\n      dup3\n      mstore\n      0x00\n        /* \"src/contract/CryptoQuestTheShardsOfGenesisMMORPG.sol\":3200:3210  nextItemId */\n      dup1\n      sload\n        /* \"src/contract/CryptoQuestTheShardsOfGenesisMMORPG.sol\":3195:3268  Item(nextItemId, name, attackBonus, defenseBonus, manaBonus, healthBonus) */\n      dup1\n      dup4\n      mstore\n      0x20\n      dup1\n      dup5\n      add\n      dup12\n      dup2\n      mstore\n      dup5\n      dup7\n      add\n      dup12\n      swap1\n      mstore\n      0x60\n      dup6\n      add\n      dup11\n      swap1\n      mstore\n      0x80\n      dup6\n      add\n      dup10\n      swap1\n      mstore\n      0xa0\n      dup6\n      add\n      dup9\n      swap1\n      mstore\n        /* \"src/contract/CryptoQuestTheShardsOfGenesisMMORPG.sol\":3175:3192  items[nextItemId] */\n      swap2\n      dup4\n      mstore\n        /* \"src/contract/CryptoQuestTheShardsOfGenesisMMORPG.sol\":3175:3180  items */\n      0x02\n        /* \"src/contract/CryptoQuestTheShardsOfGenesisMMORPG.sol\":3175:3192  items[nextItemId] */\n      swap1\n      mstore\n      swap3\n      swap1\n      keccak256\n        /* \"src/contract/CryptoQuestTheShardsOfGenesisMMORPG.sol\":3175:3268  items[nextItemId] = Item(nextItemId, name, attackBonus, defenseBonus, manaBonus, healthBonus) */\n      dup2\n      mload\n      dup2\n      sstore\n      swap2\n      mload\n        /* \"src/contract/CryptoQuestTheShardsOfGenesisMMORPG.sol\":3195:3268  Item(nextItemId, name, attackBonus, defenseBonus, manaBonus, healthBonus) */\n      swap1\n      swap2\n        /* \"src/contract/CryptoQuestTheShardsOfGenesisMMORPG.sol\":3175:3192  items[nextItemId] */\n      swap1\n        /* \"src/contract/CryptoQuestTheShardsOfGenesisMMORPG.sol\":3175:3268  items[nextItemId] = Item(nextItemId, name, attackBonus, defenseBonus, manaBonus, healthBonus) */\n      0x01\n      dup3\n      add\n      swap1\n      tag_218\n      swap1\n      dup3\n      tag_219\n      jump\t// in\n    tag_218:\n      pop\n      0x40\n      dup3\n      add\n      mload\n      dup2\n      0x02\n      add\n      sstore\n      0x60\n      dup3\n      add\n      mload\n      dup2\n      0x03\n      add\n      sstore\n      0x80\n      dup3\n      add\n      mload\n      dup2\n      0x04\n      add\n      sstore\n      0xa0\n      dup3\n      add\n      mload\n      dup2\n      0x05\n      add\n      sstore\n      swap1\n      pop\n      pop\n        /* \"src/contract/CryptoQuestTheShardsOfGenesisMMORPG.sol\":3283:3310  ItemAdded(nextItemId, name) */\n      0x78d68ba0e8c23b92e7c700d99efed2719520cbd4af845b2c03ae251f9cdf3d52\n        /* \"src/contract/CryptoQuestTheShardsOfGenesisMMORPG.sol\":3293:3303  nextItemId */\n      sload(0x00)\n        /* \"src/contract/CryptoQuestTheShardsOfGenesisMMORPG.sol\":3305:3309  name */\n      dup8\n        /* \"src/contract/CryptoQuestTheShardsOfGenesisMMORPG.sol\":3283:3310  ItemAdded(nextItemId, name) */\n      mload(0x40)\n      tag_220\n      swap3\n      swap2\n      swap1\n      tag_221\n      jump\t// in\n    tag_220:\n      mload(0x40)\n      dup1\n      swap2\n      sub\n      swap1\n      log1\n        /* \"src/contract/CryptoQuestTheShardsOfGenesisMMORPG.sol\":3320:3330  nextItemId */\n      0x00\n        /* \"src/contract/CryptoQuestTheShardsOfGenesisMMORPG.sol\":3320:3332  nextItemId++ */\n      dup1\n      sload\n      swap1\n        /* \"src/contract/CryptoQuestTheShardsOfGenesisMMORPG.sol\":3320:3330  nextItemId */\n      dup1\n        /* \"src/contract/CryptoQuestTheShardsOfGenesisMMORPG.sol\":3320:3332  nextItemId++ */\n      tag_222\n      dup4\n      tag_223\n      jump\t// in\n    tag_222:\n      swap2\n      swap1\n      pop\n      sstore\n      pop\n        /* \"src/contract/CryptoQuestTheShardsOfGenesisMMORPG.sol\":3024:3339  function addItem(string memory name, uint attackBonus, uint defenseBonus, uint manaBonus, uint healthBonus) public onlyRole(GAME_ADMIN_ROLE) {... */\n      pop\n      pop\n      pop\n      pop\n      pop\n      pop\n      jump\t// out\n        /* \"@openzeppelin/contracts-upgradeable/access/AccessControlUpgradeable.sol\":6348:6593  function renounceRole(bytes32 role, address callerConfirmation) public virtual {... */\n    tag_71:\n      sub(shl(0xa0, 0x01), 0x01)\n        /* \"@openzeppelin/contracts-upgradeable/access/AccessControlUpgradeable.sol\":6441:6475  callerConfirmation != _msgSender() */\n      dup2\n      and\n        /* \"@openzeppelin/contracts-upgradeable/utils/ContextUpgradeable.sol\":966:976  msg.sender */\n      caller\n        /* \"@openzeppelin/contracts-upgradeable/access/AccessControlUpgradeable.sol\":6441:6475  callerConfirmation != _msgSender() */\n      eq\n        /* \"@openzeppelin/contracts-upgradeable/access/AccessControlUpgradeable.sol\":6437:6539  if (callerConfirmation != _msgSender()) {... */\n      tag_227\n      jumpi\n        /* \"@openzeppelin/contracts-upgradeable/access/AccessControlUpgradeable.sol\":6498:6528  AccessControlBadConfirmation() */\n      mload(0x40)\n      shl(0xe1, 0x334bd919)\n      dup2\n      mstore\n      0x04\n      add\n      mload(0x40)\n      dup1\n      swap2\n      sub\n      swap1\n      revert\n        /* \"@openzeppelin/contracts-upgradeable/access/AccessControlUpgradeable.sol\":6437:6539  if (callerConfirmation != _msgSender()) {... */\n    tag_227:\n        /* \"@openzeppelin/contracts-upgradeable/access/AccessControlUpgradeable.sol\":6549:6586  _revokeRole(role, callerConfirmation) */\n      tag_228\n        /* \"@openzeppelin/contracts-upgradeable/access/AccessControlUpgradeable.sol\":6561:6565  role */\n      dup3\n        /* \"@openzeppelin/contracts-upgradeable/access/AccessControlUpgradeable.sol\":6567:6585  callerConfirmation */\n      dup3\n        /* \"@openzeppelin/contracts-upgradeable/access/AccessControlUpgradeable.sol\":6549:6560  _revokeRole */\n      tag_229\n        /* \"@openzeppelin/contracts-upgradeable/access/AccessControlUpgradeable.sol\":6549:6586  _revokeRole(role, callerConfirmation) */\n      jump\t// in\n    tag_228:\n      pop\n        /* \"@openzeppelin/contracts-upgradeable/access/AccessControlUpgradeable.sol\":6348:6593  function renounceRole(bytes32 role, address callerConfirmation) public virtual {... */\n      pop\n      pop\n      jump\t// out\n        /* \"src/contract/CryptoQuestTheShardsOfGenesisMMORPG.sol\":2585:2660  function unpause() public onlyRole(PAUSER_ROLE) {... */\n    tag_74:\n      0x00\n      dup1\n      mload\n      0x20\n      data_9b87106a812d214d41ad9b68a21119e2948eaaf1040375c939ec808b8862455c\n      dup4\n      codecopy\n      dup2\n      mload\n      swap2\n      mstore\n        /* \"@openzeppelin/contracts-upgradeable/access/AccessControlUpgradeable.sol\":3191:3207  _checkRole(role) */\n      tag_231\n        /* \"@openzeppelin/contracts-upgradeable/access/AccessControlUpgradeable.sol\":3202:3206  role */\n      dup2\n        /* \"@openzeppelin/contracts-upgradeable/access/AccessControlUpgradeable.sol\":3191:3201  _checkRole */\n      tag_211\n        /* \"@openzeppelin/contracts-upgradeable/access/AccessControlUpgradeable.sol\":3191:3207  _checkRole(role) */\n      jump\t// in\n    tag_231:\n        /* \"src/contract/CryptoQuestTheShardsOfGenesisMMORPG.sol\":2643:2653  _unpause() */\n      tag_233\n        /* \"src/contract/CryptoQuestTheShardsOfGenesisMMORPG.sol\":2643:2651  _unpause */\n      tag_234\n        /* \"src/contract/CryptoQuestTheShardsOfGenesisMMORPG.sol\":2643:2653  _unpause() */\n      jump\t// in\n    tag_233:\n        /* \"src/contract/CryptoQuestTheShardsOfGenesisMMORPG.sol\":2585:2660  function unpause() public onlyRole(PAUSER_ROLE) {... */\n      pop\n      jump\t// out\n        /* \"src/contract/CryptoQuestTheShardsOfGenesisMMORPG.sol\":2770:3018  function createPlayer() public {... */\n    tag_77:\n        /* \"src/contract/CryptoQuestTheShardsOfGenesisMMORPG.sol\":2827:2837  msg.sender */\n      caller\n        /* \"src/contract/CryptoQuestTheShardsOfGenesisMMORPG.sol\":2819:2838  players[msg.sender] */\n      0x00\n      swap1\n      dup2\n      mstore\n        /* \"src/contract/CryptoQuestTheShardsOfGenesisMMORPG.sol\":2819:2826  players */\n      0x03\n        /* \"src/contract/CryptoQuestTheShardsOfGenesisMMORPG.sol\":2819:2838  players[msg.sender] */\n      0x20\n      mstore\n      0x40\n      swap1\n      keccak256\n        /* \"src/contract/CryptoQuestTheShardsOfGenesisMMORPG.sol\":2819:2844  players[msg.sender].level */\n      sload\n        /* \"src/contract/CryptoQuestTheShardsOfGenesisMMORPG.sol\":2819:2849  players[msg.sender].level == 0 */\n      iszero\n        /* \"src/contract/CryptoQuestTheShardsOfGenesisMMORPG.sol\":2811:2875  require(players[msg.sender].level == 0, \"Player already exists\") */\n      tag_236\n      jumpi\n      mload(0x40)\n      shl(0xe5, 0x461bcd)\n      dup2\n      mstore\n        /* \"#utility.yul\":14580:14582   */\n      0x20\n        /* \"src/contract/CryptoQuestTheShardsOfGenesisMMORPG.sol\":2811:2875  require(players[msg.sender].level == 0, \"Player already exists\") */\n      0x04\n      dup3\n      add\n        /* \"#utility.yul\":14562:14583   */\n      mstore\n        /* \"#utility.yul\":14619:14621   */\n      0x15\n        /* \"#utility.yul\":14599:14617   */\n      0x24\n      dup3\n      add\n        /* \"#utility.yul\":14592:14622   */\n      mstore\n      shl(0x58, 0x506c6179657220616c726561647920657869737473)\n        /* \"#utility.yul\":14638:14656   */\n      0x44\n      dup3\n      add\n        /* \"#utility.yul\":14631:14682   */\n      mstore\n        /* \"#utility.yul\":14699:14717   */\n      0x64\n      add\n        /* \"src/contract/CryptoQuestTheShardsOfGenesisMMORPG.sol\":2811:2875  require(players[msg.sender].level == 0, \"Player already exists\") */\n    tag_237:\n      mload(0x40)\n      dup1\n      swap2\n      sub\n      swap1\n      revert\n    tag_236:\n        /* \"src/contract/CryptoQuestTheShardsOfGenesisMMORPG.sol\":2907:2971  Player(1, 0, 100, 50, 10, 5, 3, 2, new uint[](0), new uint[](0)) */\n      mload(0x40)\n      dup1\n      0x0140\n      add\n      0x40\n      mstore\n      dup1\n        /* \"src/contract/CryptoQuestTheShardsOfGenesisMMORPG.sol\":2914:2915  1 */\n      0x01\n        /* \"src/contract/CryptoQuestTheShardsOfGenesisMMORPG.sol\":2907:2971  Player(1, 0, 100, 50, 10, 5, 3, 2, new uint[](0), new uint[](0)) */\n      dup2\n      mstore\n      0x20\n      add\n        /* \"src/contract/CryptoQuestTheShardsOfGenesisMMORPG.sol\":2917:2918  0 */\n      0x00\n        /* \"src/contract/CryptoQuestTheShardsOfGenesisMMORPG.sol\":2907:2971  Player(1, 0, 100, 50, 10, 5, 3, 2, new uint[](0), new uint[](0)) */\n      dup2\n      mstore\n      0x20\n      add\n        /* \"src/contract/CryptoQuestTheShardsOfGenesisMMORPG.sol\":2920:2923  100 */\n      0x64\n        /* \"src/contract/CryptoQuestTheShardsOfGenesisMMORPG.sol\":2907:2971  Player(1, 0, 100, 50, 10, 5, 3, 2, new uint[](0), new uint[](0)) */\n      dup2\n      mstore\n      0x20\n      add\n        /* \"src/contract/CryptoQuestTheShardsOfGenesisMMORPG.sol\":2925:2927  50 */\n      0x32\n        /* \"src/contract/CryptoQuestTheShardsOfGenesisMMORPG.sol\":2907:2971  Player(1, 0, 100, 50, 10, 5, 3, 2, new uint[](0), new uint[](0)) */\n      dup2\n      mstore\n      0x20\n      add\n        /* \"src/contract/CryptoQuestTheShardsOfGenesisMMORPG.sol\":2929:2931  10 */\n      0x0a\n        /* \"src/contract/CryptoQuestTheShardsOfGenesisMMORPG.sol\":2907:2971  Player(1, 0, 100, 50, 10, 5, 3, 2, new uint[](0), new uint[](0)) */\n      dup2\n      mstore\n      0x20\n      add\n        /* \"src/contract/CryptoQuestTheShardsOfGenesisMMORPG.sol\":2933:2934  5 */\n      0x05\n        /* \"src/contract/CryptoQuestTheShardsOfGenesisMMORPG.sol\":2907:2971  Player(1, 0, 100, 50, 10, 5, 3, 2, new uint[](0), new uint[](0)) */\n      dup2\n      mstore\n      0x20\n      add\n        /* \"src/contract/CryptoQuestTheShardsOfGenesisMMORPG.sol\":2936:2937  3 */\n      0x03\n        /* \"src/contract/CryptoQuestTheShardsOfGenesisMMORPG.sol\":2907:2971  Player(1, 0, 100, 50, 10, 5, 3, 2, new uint[](0), new uint[](0)) */\n      dup2\n      mstore\n      0x20\n      add\n        /* \"src/contract/CryptoQuestTheShardsOfGenesisMMORPG.sol\":2939:2940  2 */\n      0x02\n        /* \"src/contract/CryptoQuestTheShardsOfGenesisMMORPG.sol\":2907:2971  Player(1, 0, 100, 50, 10, 5, 3, 2, new uint[](0), new uint[](0)) */\n      dup2\n      mstore\n      0x20\n      add\n        /* \"src/contract/CryptoQuestTheShardsOfGenesisMMORPG.sol\":2953:2954  0 */\n      0x00\n        /* \"src/contract/CryptoQuestTheShardsOfGenesisMMORPG.sol\":2942:2955  new uint[](0) */\n      0xffffffffffffffff\n      dup2\n      gt\n      iszero\n      tag_240\n      jumpi\n      tag_240\n      tag_241\n      jump\t// in\n    tag_240:\n      mload(0x40)\n      swap1\n      dup1\n      dup3\n      mstore\n      dup1\n      0x20\n      mul\n      0x20\n      add\n      dup3\n      add\n      0x40\n      mstore\n      dup1\n      iszero\n      tag_242\n      jumpi\n      dup2\n      0x20\n      add\n      0x20\n      dup3\n      mul\n      dup1\n      calldatasize\n      dup4\n      calldatacopy\n      add\n      swap1\n      pop\n    tag_242:\n      pop\n        /* \"src/contract/CryptoQuestTheShardsOfGenesisMMORPG.sol\":2907:2971  Player(1, 0, 100, 50, 10, 5, 3, 2, new uint[](0), new uint[](0)) */\n      dup2\n      mstore\n      0x20\n      add\n        /* \"src/contract/CryptoQuestTheShardsOfGenesisMMORPG.sol\":2968:2969  0 */\n      0x00\n        /* \"src/contract/CryptoQuestTheShardsOfGenesisMMORPG.sol\":2957:2970  new uint[](0) */\n      mload(0x40)\n      swap1\n      dup1\n      dup3\n      mstore\n      dup1\n      0x20\n      mul\n      0x20\n      add\n      dup3\n      add\n      0x40\n      mstore\n      dup1\n      iszero\n      tag_245\n      jumpi\n      dup2\n      0x20\n      add\n      0x20\n      dup3\n      mul\n      dup1\n      calldatasize\n      dup4\n      calldatacopy\n      add\n      swap1\n      pop\n    tag_245:\n      pop\n        /* \"src/contract/CryptoQuestTheShardsOfGenesisMMORPG.sol\":2907:2971  Player(1, 0, 100, 50, 10, 5, 3, 2, new uint[](0), new uint[](0)) */\n      swap1\n      mstore\n        /* \"src/contract/CryptoQuestTheShardsOfGenesisMMORPG.sol\":2893:2903  msg.sender */\n      caller\n        /* \"src/contract/CryptoQuestTheShardsOfGenesisMMORPG.sol\":2885:2904  players[msg.sender] */\n      0x00\n      swap1\n      dup2\n      mstore\n        /* \"src/contract/CryptoQuestTheShardsOfGenesisMMORPG.sol\":2885:2892  players */\n      0x03\n        /* \"src/contract/CryptoQuestTheShardsOfGenesisMMORPG.sol\":2885:2904  players[msg.sender] */\n      0x20\n      dup2\n      dup2\n      mstore\n      0x40\n      swap3\n      dup4\n      swap1\n      keccak256\n        /* \"src/contract/CryptoQuestTheShardsOfGenesisMMORPG.sol\":2885:2971  players[msg.sender] = Player(1, 0, 100, 50, 10, 5, 3, 2, new uint[](0), new uint[](0)) */\n      dup5\n      mload\n      dup2\n      sstore\n      dup5\n      dup3\n      add\n      mload\n      0x01\n      dup3\n      add\n      sstore\n      swap3\n      dup5\n      add\n      mload\n      0x02\n      dup5\n      add\n      sstore\n      0x60\n      dup5\n      add\n      mload\n      swap2\n      dup4\n      add\n      swap2\n      swap1\n      swap2\n      sstore\n      0x80\n      dup4\n      add\n      mload\n      0x04\n      dup4\n      add\n      sstore\n      0xa0\n      dup4\n      add\n      mload\n      0x05\n      dup4\n      add\n      sstore\n      0xc0\n      dup4\n      add\n      mload\n      0x06\n      dup4\n      add\n      sstore\n      0xe0\n      dup4\n      add\n      mload\n      0x07\n      dup4\n      add\n      sstore\n      0x0100\n      dup4\n      add\n      mload\n      dup1\n      mload\n      tag_246\n      swap3\n      0x08\n      dup6\n      add\n      swap3\n      add\n      swap1\n      tag_247\n      jump\t// in\n    tag_246:\n      pop\n      0x0120\n      dup3\n      add\n      mload\n      dup1\n      mload\n      tag_248\n      swap2\n      0x09\n      dup5\n      add\n      swap2\n      0x20\n      swap1\n      swap2\n      add\n      swap1\n      tag_247\n      jump\t// in\n    tag_248:\n      pop\n      pop\n        /* \"src/contract/CryptoQuestTheShardsOfGenesisMMORPG.sol\":2986:3011  PlayerCreated(msg.sender) */\n      mload(0x40)\n        /* \"src/contract/CryptoQuestTheShardsOfGenesisMMORPG.sol\":3000:3010  msg.sender */\n      caller\n      swap2\n      pop\n        /* \"src/contract/CryptoQuestTheShardsOfGenesisMMORPG.sol\":2986:3011  PlayerCreated(msg.sender) */\n      0xb4cca19a27ce42915c3cee0cee28fc5d90969ee49f09ec71659546a63b5f7bc0\n      swap1\n      0x00\n      swap1\n      log2\n        /* \"src/contract/CryptoQuestTheShardsOfGenesisMMORPG.sol\":2770:3018  function createPlayer() public {... */\n      jump\t// out\n        /* \"@openzeppelin/contracts-upgradeable/proxy/utils/UUPSUpgradeable.sol\":4158:4372  function upgradeToAndCall(address newImplementation, bytes memory data) public payable virtual onlyProxy {... */\n    tag_88:\n        /* \"@openzeppelin/contracts-upgradeable/proxy/utils/UUPSUpgradeable.sol\":2653:2666  _checkProxy() */\n      tag_250\n        /* \"@openzeppelin/contracts-upgradeable/proxy/utils/UUPSUpgradeable.sol\":2653:2664  _checkProxy */\n      tag_251\n        /* \"@openzeppelin/contracts-upgradeable/proxy/utils/UUPSUpgradeable.sol\":2653:2666  _checkProxy() */\n      jump\t// in\n    tag_250:\n        /* \"@openzeppelin/contracts-upgradeable/proxy/utils/UUPSUpgradeable.sol\":4273:4309  _authorizeUpgrade(newImplementation) */\n      tag_253\n        /* \"@openzeppelin/contracts-upgradeable/proxy/utils/UUPSUpgradeable.sol\":4291:4308  newImplementation */\n      dup3\n        /* \"@openzeppelin/contracts-upgradeable/proxy/utils/UUPSUpgradeable.sol\":4273:4290  _authorizeUpgrade */\n      tag_254\n        /* \"@openzeppelin/contracts-upgradeable/proxy/utils/UUPSUpgradeable.sol\":4273:4309  _authorizeUpgrade(newImplementation) */\n      jump\t// in\n    tag_253:\n        /* \"@openzeppelin/contracts-upgradeable/proxy/utils/UUPSUpgradeable.sol\":4319:4365  _upgradeToAndCallUUPS(newImplementation, data) */\n      tag_190\n        /* \"@openzeppelin/contracts-upgradeable/proxy/utils/UUPSUpgradeable.sol\":4341:4358  newImplementation */\n      dup3\n        /* \"@openzeppelin/contracts-upgradeable/proxy/utils/UUPSUpgradeable.sol\":4360:4364  data */\n      dup3\n        /* \"@openzeppelin/contracts-upgradeable/proxy/utils/UUPSUpgradeable.sol\":4319:4340  _upgradeToAndCallUUPS */\n      tag_256\n        /* \"@openzeppelin/contracts-upgradeable/proxy/utils/UUPSUpgradeable.sol\":4319:4365  _upgradeToAndCallUUPS(newImplementation, data) */\n      jump\t// in\n        /* \"src/contract/CryptoQuestTheShardsOfGenesisMMORPG.sol\":4095:4463  function createGuild(string memory name, address leader) public onlyRole(GAME_ADMIN_ROLE) {... */\n    tag_93:\n      0x00\n      dup1\n      mload\n      0x20\n      data_3059375685003c5c33343043cb51f6c6b03e849d5b2f19339e935f8b505d9fe3\n      dup4\n      codecopy\n      dup2\n      mload\n      swap2\n      mstore\n        /* \"@openzeppelin/contracts-upgradeable/access/AccessControlUpgradeable.sol\":3191:3207  _checkRole(role) */\n      tag_258\n        /* \"@openzeppelin/contracts-upgradeable/access/AccessControlUpgradeable.sol\":3202:3206  role */\n      dup2\n        /* \"@openzeppelin/contracts-upgradeable/access/AccessControlUpgradeable.sol\":3191:3201  _checkRole */\n      tag_211\n        /* \"@openzeppelin/contracts-upgradeable/access/AccessControlUpgradeable.sol\":3191:3207  _checkRole(role) */\n      jump\t// in\n    tag_258:\n        /* \"src/contract/CryptoQuestTheShardsOfGenesisMMORPG.sol\":4238:4239  0 */\n      0x00\n      sub(shl(0xa0, 0x01), 0x01)\n        /* \"src/contract/CryptoQuestTheShardsOfGenesisMMORPG.sol\":4203:4240  guildNameToLeader[name] == address(0) */\n      and\n        /* \"src/contract/CryptoQuestTheShardsOfGenesisMMORPG.sol\":4203:4220  guildNameToLeader */\n      0x06\n        /* \"src/contract/CryptoQuestTheShardsOfGenesisMMORPG.sol\":4221:4225  name */\n      dup5\n        /* \"src/contract/CryptoQuestTheShardsOfGenesisMMORPG.sol\":4203:4226  guildNameToLeader[name] */\n      mload(0x40)\n      tag_260\n      swap2\n      swap1\n      tag_197\n      jump\t// in\n    tag_260:\n      swap1\n      dup2\n      mstore\n      mload(0x40)\n      swap1\n      dup2\n      swap1\n      sub\n      0x20\n      add\n      swap1\n      keccak256\n      sload\n      sub(shl(0xa0, 0x01), 0x01)\n      and\n        /* \"src/contract/CryptoQuestTheShardsOfGenesisMMORPG.sol\":4203:4240  guildNameToLeader[name] == address(0) */\n      eq\n        /* \"src/contract/CryptoQuestTheShardsOfGenesisMMORPG.sol\":4195:4265  require(guildNameToLeader[name] == address(0), \"Guild already exists\") */\n      tag_261\n      jumpi\n      mload(0x40)\n      shl(0xe5, 0x461bcd)\n      dup2\n      mstore\n        /* \"#utility.yul\":14930:14932   */\n      0x20\n        /* \"src/contract/CryptoQuestTheShardsOfGenesisMMORPG.sol\":4195:4265  require(guildNameToLeader[name] == address(0), \"Guild already exists\") */\n      0x04\n      dup3\n      add\n        /* \"#utility.yul\":14912:14933   */\n      mstore\n        /* \"#utility.yul\":14969:14971   */\n      0x14\n        /* \"#utility.yul\":14949:14967   */\n      0x24\n      dup3\n      add\n        /* \"#utility.yul\":14942:14972   */\n      mstore\n      shl(0x60, 0x4775696c6420616c726561647920657869737473)\n        /* \"#utility.yul\":14988:15006   */\n      0x44\n      dup3\n      add\n        /* \"#utility.yul\":14981:15031   */\n      mstore\n        /* \"#utility.yul\":15048:15066   */\n      0x64\n      add\n        /* \"src/contract/CryptoQuestTheShardsOfGenesisMMORPG.sol\":4195:4265  require(guildNameToLeader[name] == address(0), \"Guild already exists\") */\n      tag_237\n        /* \"#utility.yul\":14728:15072   */\n      jump\n        /* \"src/contract/CryptoQuestTheShardsOfGenesisMMORPG.sol\":4195:4265  require(guildNameToLeader[name] == address(0), \"Guild already exists\") */\n    tag_261:\n        /* \"src/contract/CryptoQuestTheShardsOfGenesisMMORPG.sol\":4292:4329  Guild(name, leader, new address[](1)) */\n      0x40\n      dup1\n      mload\n      0x60\n      dup2\n      add\n      dup3\n      mstore\n      dup5\n      dup2\n      mstore\n      sub(shl(0xa0, 0x01), 0x01)\n      dup5\n      and\n      0x20\n      dup3\n      add\n      mstore\n        /* \"src/contract/CryptoQuestTheShardsOfGenesisMMORPG.sol\":4312:4328  new address[](1) */\n      dup2\n      mload\n        /* \"src/contract/CryptoQuestTheShardsOfGenesisMMORPG.sol\":4326:4327  1 */\n      0x01\n        /* \"src/contract/CryptoQuestTheShardsOfGenesisMMORPG.sol\":4312:4328  new address[](1) */\n      dup1\n      dup3\n      mstore\n      dup2\n      dup5\n      add\n      dup5\n      mstore\n        /* \"src/contract/CryptoQuestTheShardsOfGenesisMMORPG.sol\":4292:4329  Guild(name, leader, new address[](1)) */\n      swap2\n      swap3\n      dup4\n      add\n      swap2\n        /* \"src/contract/CryptoQuestTheShardsOfGenesisMMORPG.sol\":4312:4328  new address[](1) */\n      dup2\n      0x20\n      add\n      0x20\n      dup3\n      mul\n      dup1\n      calldatasize\n      dup4\n      calldatacopy\n      pop\n      pop\n      pop\n        /* \"src/contract/CryptoQuestTheShardsOfGenesisMMORPG.sol\":4292:4329  Guild(name, leader, new address[](1)) */\n      swap1\n      mstore\n      sub(shl(0xa0, 0x01), 0x01)\n        /* \"src/contract/CryptoQuestTheShardsOfGenesisMMORPG.sol\":4275:4289  guilds[leader] */\n      dup4\n      and\n      0x00\n      swap1\n      dup2\n      mstore\n        /* \"src/contract/CryptoQuestTheShardsOfGenesisMMORPG.sol\":4275:4281  guilds */\n      0x05\n        /* \"src/contract/CryptoQuestTheShardsOfGenesisMMORPG.sol\":4275:4289  guilds[leader] */\n      0x20\n      mstore\n      0x40\n      swap1\n      keccak256\n        /* \"src/contract/CryptoQuestTheShardsOfGenesisMMORPG.sol\":4275:4329  guilds[leader] = Guild(name, leader, new address[](1)) */\n      dup2\n      mload\n        /* \"src/contract/CryptoQuestTheShardsOfGenesisMMORPG.sol\":4275:4289  guilds[leader] */\n      dup2\n      swap1\n        /* \"src/contract/CryptoQuestTheShardsOfGenesisMMORPG.sol\":4275:4329  guilds[leader] = Guild(name, leader, new address[](1)) */\n      tag_267\n      swap1\n        /* \"src/contract/CryptoQuestTheShardsOfGenesisMMORPG.sol\":4275:4289  guilds[leader] */\n      dup3\n        /* \"src/contract/CryptoQuestTheShardsOfGenesisMMORPG.sol\":4275:4329  guilds[leader] = Guild(name, leader, new address[](1)) */\n      tag_219\n      jump\t// in\n    tag_267:\n      pop\n      0x20\n      dup3\n      dup2\n      add\n      mload\n      0x01\n      dup4\n      add\n      dup1\n      sload\n      not(sub(shl(0xa0, 0x01), 0x01))\n      and\n      sub(shl(0xa0, 0x01), 0x01)\n      swap1\n      swap3\n      and\n      swap2\n      swap1\n      swap2\n      or\n      swap1\n      sstore\n      0x40\n      dup4\n      add\n      mload\n      dup1\n      mload\n      tag_268\n      swap3\n      0x02\n      dup6\n      add\n      swap3\n      add\n      swap1\n      tag_269\n      jump\t// in\n    tag_268:\n      pop\n      pop\n      pop\n      sub(shl(0xa0, 0x01), 0x01)\n        /* \"src/contract/CryptoQuestTheShardsOfGenesisMMORPG.sol\":4339:4353  guilds[leader] */\n      dup3\n      and\n      0x00\n      swap1\n      dup2\n      mstore\n        /* \"src/contract/CryptoQuestTheShardsOfGenesisMMORPG.sol\":4339:4345  guilds */\n      0x05\n        /* \"src/contract/CryptoQuestTheShardsOfGenesisMMORPG.sol\":4339:4353  guilds[leader] */\n      0x20\n      mstore\n      0x40\n      dup2\n      keccak256\n        /* \"src/contract/CryptoQuestTheShardsOfGenesisMMORPG.sol\":4339:4361  guilds[leader].members */\n      0x02\n      add\n        /* \"src/contract/CryptoQuestTheShardsOfGenesisMMORPG.sol\":4339:4364  guilds[leader].members[0] */\n      dup1\n      sload\n        /* \"src/contract/CryptoQuestTheShardsOfGenesisMMORPG.sol\":4367:4373  leader */\n      dup5\n      swap3\n        /* \"src/contract/CryptoQuestTheShardsOfGenesisMMORPG.sol\":4339:4353  guilds[leader] */\n      swap1\n        /* \"src/contract/CryptoQuestTheShardsOfGenesisMMORPG.sol\":4339:4364  guilds[leader].members[0] */\n      tag_271\n      jumpi\n      tag_271\n      tag_194\n      jump\t// in\n    tag_271:\n      swap1\n      0x00\n      mstore\n      keccak256(0x00, 0x20)\n      add\n      0x00\n        /* \"src/contract/CryptoQuestTheShardsOfGenesisMMORPG.sol\":4339:4373  guilds[leader].members[0] = leader */\n      0x0100\n      exp\n      dup2\n      sload\n      dup2\n      sub(shl(0xa0, 0x01), 0x01)\n      mul\n      not\n      and\n      swap1\n      dup4\n      sub(shl(0xa0, 0x01), 0x01)\n      and\n      mul\n      or\n      swap1\n      sstore\n      pop\n        /* \"src/contract/CryptoQuestTheShardsOfGenesisMMORPG.sol\":4409:4415  leader */\n      dup2\n        /* \"src/contract/CryptoQuestTheShardsOfGenesisMMORPG.sol\":4383:4400  guildNameToLeader */\n      0x06\n        /* \"src/contract/CryptoQuestTheShardsOfGenesisMMORPG.sol\":4401:4405  name */\n      dup5\n        /* \"src/contract/CryptoQuestTheShardsOfGenesisMMORPG.sol\":4383:4406  guildNameToLeader[name] */\n      mload(0x40)\n      tag_273\n      swap2\n      swap1\n      tag_197\n      jump\t// in\n    tag_273:\n      swap1\n      dup2\n      mstore\n      mload(0x40)\n      swap1\n      dup2\n      swap1\n      sub\n      0x20\n      add\n      dup2\n      keccak256\n        /* \"src/contract/CryptoQuestTheShardsOfGenesisMMORPG.sol\":4383:4415  guildNameToLeader[name] = leader */\n      dup1\n      sload\n      sub(shl(0xa0, 0x01), 0x01)\n      swap4\n      swap1\n      swap4\n      and\n      not(sub(shl(0xa0, 0x01), 0x01))\n      swap1\n      swap4\n      and\n      swap3\n      swap1\n      swap3\n      or\n      swap1\n      swap2\n      sstore\n        /* \"src/contract/CryptoQuestTheShardsOfGenesisMMORPG.sol\":4430:4456  GuildCreated(name, leader) */\n      0x072208535a97b2e307167838c66aacd47f8de3a2cb92bc2ddb2b2b52009c9fd5\n      swap1\n      tag_274\n      swap1\n        /* \"src/contract/CryptoQuestTheShardsOfGenesisMMORPG.sol\":4443:4447  name */\n      dup6\n      swap1\n        /* \"src/contract/CryptoQuestTheShardsOfGenesisMMORPG.sol\":4449:4455  leader */\n      dup6\n      swap1\n        /* \"src/contract/CryptoQuestTheShardsOfGenesisMMORPG.sol\":4430:4456  GuildCreated(name, leader) */\n      tag_129\n      jump\t// in\n    tag_274:\n      mload(0x40)\n      dup1\n      swap2\n      sub\n      swap1\n      log1\n        /* \"src/contract/CryptoQuestTheShardsOfGenesisMMORPG.sol\":4095:4463  function createGuild(string memory name, address leader) public onlyRole(GAME_ADMIN_ROLE) {... */\n      pop\n      pop\n      pop\n      jump\t// out\n        /* \"@openzeppelin/contracts-upgradeable/proxy/utils/UUPSUpgradeable.sol\":3705:3839  function proxiableUUID() external view virtual notDelegated returns (bytes32) {... */\n    tag_96:\n        /* \"@openzeppelin/contracts-upgradeable/proxy/utils/UUPSUpgradeable.sol\":3774:3781  bytes32 */\n      0x00\n        /* \"@openzeppelin/contracts-upgradeable/proxy/utils/UUPSUpgradeable.sol\":2924:2944  _checkNotDelegated() */\n      tag_276\n        /* \"@openzeppelin/contracts-upgradeable/proxy/utils/UUPSUpgradeable.sol\":2924:2942  _checkNotDelegated */\n      tag_277\n        /* \"@openzeppelin/contracts-upgradeable/proxy/utils/UUPSUpgradeable.sol\":2924:2944  _checkNotDelegated() */\n      jump\t// in\n    tag_276:\n      pop\n      0x00\n      dup1\n      mload\n      0x20\n      data_75b20eef8615de99c108b05f0dbda081c91897128caa336d75dffb97c4132b4d\n      dup4\n      codecopy\n      dup2\n      mload\n      swap2\n      mstore\n        /* \"@openzeppelin/contracts-upgradeable/proxy/utils/UUPSUpgradeable.sol\":3705:3839  function proxiableUUID() external view virtual notDelegated returns (bytes32) {... */\n      swap1\n      jump\t// out\n        /* \"src/contract/CryptoQuestTheShardsOfGenesisMMORPG.sol\":3345:3551  function startQuest(string memory title, string memory description, uint rewardXP) public onlyRole(GAME_ADMIN_ROLE) {... */\n    tag_106:\n      0x00\n      dup1\n      mload\n      0x20\n      data_3059375685003c5c33343043cb51f6c6b03e849d5b2f19339e935f8b505d9fe3\n      dup4\n      codecopy\n      dup2\n      mload\n      swap2\n      mstore\n        /* \"@openzeppelin/contracts-upgradeable/access/AccessControlUpgradeable.sol\":3191:3207  _checkRole(role) */\n      tag_283\n        /* \"@openzeppelin/contracts-upgradeable/access/AccessControlUpgradeable.sol\":3202:3206  role */\n      dup2\n        /* \"@openzeppelin/contracts-upgradeable/access/AccessControlUpgradeable.sol\":3191:3201  _checkRole */\n      tag_211\n        /* \"@openzeppelin/contracts-upgradeable/access/AccessControlUpgradeable.sol\":3191:3207  _checkRole(role) */\n      jump\t// in\n    tag_283:\n        /* \"src/contract/CryptoQuestTheShardsOfGenesisMMORPG.sol\":3484:3494  msg.sender */\n      caller\n        /* \"src/contract/CryptoQuestTheShardsOfGenesisMMORPG.sol\":3471:3495  playerQuests[msg.sender] */\n      0x00\n      swap1\n      dup2\n      mstore\n        /* \"src/contract/CryptoQuestTheShardsOfGenesisMMORPG.sol\":3471:3483  playerQuests */\n      0x04\n        /* \"src/contract/CryptoQuestTheShardsOfGenesisMMORPG.sol\":3471:3495  playerQuests[msg.sender] */\n      0x20\n      dup2\n      dup2\n      mstore\n      0x40\n      dup1\n      dup5\n      keccak256\n        /* \"src/contract/CryptoQuestTheShardsOfGenesisMMORPG.sol\":3501:3543  Quest(title, description, rewardXP, false) */\n      dup2\n      mload\n      0x80\n      dup2\n      add\n      dup4\n      mstore\n      dup10\n      dup2\n      mstore\n      dup1\n      dup5\n      add\n      dup10\n      swap1\n      mstore\n      swap2\n      dup3\n      add\n      dup8\n      swap1\n      mstore\n      0x60\n      dup3\n      add\n      dup6\n      swap1\n      mstore\n        /* \"src/contract/CryptoQuestTheShardsOfGenesisMMORPG.sol\":3471:3544  playerQuests[msg.sender].push(Quest(title, description, rewardXP, false)) */\n      dup1\n      sload\n        /* \"src/contract/CryptoQuestTheShardsOfGenesisMMORPG.sol\":3501:3543  Quest(title, description, rewardXP, false) */\n      0x01\n        /* \"src/contract/CryptoQuestTheShardsOfGenesisMMORPG.sol\":3471:3544  playerQuests[msg.sender].push(Quest(title, description, rewardXP, false)) */\n      dup2\n      add\n      dup3\n      sstore\n      swap1\n      dup6\n      mstore\n      swap2\n      swap1\n      swap4\n      keccak256\n      dup4\n      mload\n      swap2\n      swap1\n      swap3\n      mul\n      swap1\n      swap2\n      add\n      swap1\n      dup2\n      swap1\n      tag_286\n      swap1\n      dup3\n      tag_219\n      jump\t// in\n    tag_286:\n      pop\n      0x20\n      dup3\n      add\n      mload\n      0x01\n      dup3\n      add\n      swap1\n      tag_287\n      swap1\n      dup3\n      tag_219\n      jump\t// in\n    tag_287:\n      pop\n      0x40\n      dup3\n      add\n      mload\n      0x02\n      dup3\n      add\n      sstore\n      0x60\n      swap1\n      swap2\n      add\n      mload\n      0x03\n      swap1\n      swap2\n      add\n      dup1\n      sload\n      not(0xff)\n      and\n      swap2\n      iszero\n      iszero\n      swap2\n      swap1\n      swap2\n      or\n      swap1\n      sstore\n      pop\n      pop\n      pop\n      pop\n        /* \"src/contract/CryptoQuestTheShardsOfGenesisMMORPG.sol\":3345:3551  function startQuest(string memory title, string memory description, uint rewardXP) public onlyRole(GAME_ADMIN_ROLE) {... */\n      jump\t// out\n        /* \"src/contract/CryptoQuestTheShardsOfGenesisMMORPG.sol\":5235:6534  function craftItem(uint recipeId) public {... */\n    tag_110:\n        /* \"src/contract/CryptoQuestTheShardsOfGenesisMMORPG.sol\":5286:5306  Recipe memory recipe */\n      0x00\n        /* \"src/contract/CryptoQuestTheShardsOfGenesisMMORPG.sol\":5309:5326  recipes[recipeId] */\n      dup2\n      dup2\n      mstore\n        /* \"src/contract/CryptoQuestTheShardsOfGenesisMMORPG.sol\":5309:5316  recipes */\n      0x07\n        /* \"src/contract/CryptoQuestTheShardsOfGenesisMMORPG.sol\":5309:5326  recipes[recipeId] */\n      0x20\n      swap1\n      dup2\n      mstore\n      0x40\n      dup1\n      dup4\n      keccak256\n        /* \"src/contract/CryptoQuestTheShardsOfGenesisMMORPG.sol\":5286:5326  Recipe memory recipe = recipes[recipeId] */\n      dup2\n      mload\n      dup2\n      sload\n      0x60\n      swap5\n      dup2\n      mul\n      dup3\n      add\n      dup6\n      add\n      dup5\n      mstore\n      swap3\n      dup2\n      add\n      dup4\n      dup2\n      mstore\n      swap1\n      swap4\n        /* \"src/contract/CryptoQuestTheShardsOfGenesisMMORPG.sol\":5309:5326  recipes[recipeId] */\n      swap2\n      swap3\n        /* \"src/contract/CryptoQuestTheShardsOfGenesisMMORPG.sol\":5286:5326  Recipe memory recipe = recipes[recipeId] */\n      dup5\n      swap3\n        /* \"src/contract/CryptoQuestTheShardsOfGenesisMMORPG.sol\":5309:5326  recipes[recipeId] */\n      dup5\n      swap2\n        /* \"src/contract/CryptoQuestTheShardsOfGenesisMMORPG.sol\":5286:5326  Recipe memory recipe = recipes[recipeId] */\n      swap1\n      dup5\n      add\n        /* \"src/contract/CryptoQuestTheShardsOfGenesisMMORPG.sol\":5309:5326  recipes[recipeId] */\n      dup3\n        /* \"src/contract/CryptoQuestTheShardsOfGenesisMMORPG.sol\":5286:5326  Recipe memory recipe = recipes[recipeId] */\n      dup3\n      dup1\n      iszero\n      tag_289\n      jumpi\n      0x20\n      mul\n      dup3\n      add\n      swap2\n      swap1\n      0x00\n      mstore\n      keccak256(0x00, 0x20)\n      swap1\n    tag_290:\n      dup2\n      sload\n      dup2\n      mstore\n      0x20\n      add\n      swap1\n      0x01\n      add\n      swap1\n      dup1\n      dup4\n      gt\n      tag_290\n      jumpi\n    tag_289:\n      pop\n      pop\n      pop\n      pop\n      pop\n      dup2\n      mstore\n      0x20\n      add\n      0x01\n      dup3\n      add\n      sload\n      dup2\n      mstore\n      pop\n      pop\n      swap1\n      pop\n        /* \"src/contract/CryptoQuestTheShardsOfGenesisMMORPG.sol\":5368:5369  0 */\n      0x00\n        /* \"src/contract/CryptoQuestTheShardsOfGenesisMMORPG.sol\":5344:5350  recipe */\n      dup2\n        /* \"src/contract/CryptoQuestTheShardsOfGenesisMMORPG.sol\":5344:5358  recipe.itemIds */\n      0x00\n      add\n      mload\n        /* \"src/contract/CryptoQuestTheShardsOfGenesisMMORPG.sol\":5344:5365  recipe.itemIds.length */\n      mload\n        /* \"src/contract/CryptoQuestTheShardsOfGenesisMMORPG.sol\":5344:5369  recipe.itemIds.length > 0 */\n      gt\n        /* \"src/contract/CryptoQuestTheShardsOfGenesisMMORPG.sol\":5336:5388  require(recipe.itemIds.length > 0, \"Invalid recipe\") */\n      tag_291\n      jumpi\n      mload(0x40)\n      shl(0xe5, 0x461bcd)\n      dup2\n      mstore\n        /* \"#utility.yul\":15279:15281   */\n      0x20\n        /* \"src/contract/CryptoQuestTheShardsOfGenesisMMORPG.sol\":5336:5388  require(recipe.itemIds.length > 0, \"Invalid recipe\") */\n      0x04\n      dup3\n      add\n        /* \"#utility.yul\":15261:15282   */\n      mstore\n        /* \"#utility.yul\":15318:15320   */\n      0x0e\n        /* \"#utility.yul\":15298:15316   */\n      0x24\n      dup3\n      add\n        /* \"#utility.yul\":15291:15321   */\n      mstore\n      shl(0x90, 0x496e76616c696420726563697065)\n        /* \"#utility.yul\":15337:15355   */\n      0x44\n      dup3\n      add\n        /* \"#utility.yul\":15330:15374   */\n      mstore\n        /* \"#utility.yul\":15391:15409   */\n      0x64\n      add\n        /* \"src/contract/CryptoQuestTheShardsOfGenesisMMORPG.sol\":5336:5388  require(recipe.itemIds.length > 0, \"Invalid recipe\") */\n      tag_237\n        /* \"#utility.yul\":15077:15415   */\n      jump\n        /* \"src/contract/CryptoQuestTheShardsOfGenesisMMORPG.sol\":5336:5388  require(recipe.itemIds.length > 0, \"Invalid recipe\") */\n    tag_291:\n        /* \"src/contract/CryptoQuestTheShardsOfGenesisMMORPG.sol\":5462:5468  uint i */\n      0x00\n        /* \"src/contract/CryptoQuestTheShardsOfGenesisMMORPG.sol\":5457:5874  for (uint i = 0; i < recipe.itemIds.length; i++) {... */\n    tag_294:\n        /* \"src/contract/CryptoQuestTheShardsOfGenesisMMORPG.sol\":5478:5492  recipe.itemIds */\n      dup2\n      mload\n        /* \"src/contract/CryptoQuestTheShardsOfGenesisMMORPG.sol\":5478:5499  recipe.itemIds.length */\n      mload\n        /* \"src/contract/CryptoQuestTheShardsOfGenesisMMORPG.sol\":5474:5499  i < recipe.itemIds.length */\n      dup2\n      lt\n        /* \"src/contract/CryptoQuestTheShardsOfGenesisMMORPG.sol\":5457:5874  for (uint i = 0; i < recipe.itemIds.length; i++) {... */\n      iszero\n      tag_295\n      jumpi\n        /* \"src/contract/CryptoQuestTheShardsOfGenesisMMORPG.sol\":5520:5532  bool hasItem */\n      0x00\n        /* \"src/contract/CryptoQuestTheShardsOfGenesisMMORPG.sol\":5559:5565  uint j */\n      dup1\n        /* \"src/contract/CryptoQuestTheShardsOfGenesisMMORPG.sol\":5554:5791  for (uint j = 0; j < players[msg.sender].inventory.length; j++) {... */\n    tag_297:\n        /* \"src/contract/CryptoQuestTheShardsOfGenesisMMORPG.sol\":5583:5593  msg.sender */\n      caller\n        /* \"src/contract/CryptoQuestTheShardsOfGenesisMMORPG.sol\":5575:5594  players[msg.sender] */\n      0x00\n      swap1\n      dup2\n      mstore\n        /* \"src/contract/CryptoQuestTheShardsOfGenesisMMORPG.sol\":5575:5582  players */\n      0x03\n        /* \"src/contract/CryptoQuestTheShardsOfGenesisMMORPG.sol\":5575:5594  players[msg.sender] */\n      0x20\n      mstore\n      0x40\n      swap1\n      keccak256\n        /* \"src/contract/CryptoQuestTheShardsOfGenesisMMORPG.sol\":5575:5604  players[msg.sender].inventory */\n      0x08\n      add\n        /* \"src/contract/CryptoQuestTheShardsOfGenesisMMORPG.sol\":5575:5611  players[msg.sender].inventory.length */\n      sload\n        /* \"src/contract/CryptoQuestTheShardsOfGenesisMMORPG.sol\":5571:5611  j < players[msg.sender].inventory.length */\n      dup2\n      lt\n        /* \"src/contract/CryptoQuestTheShardsOfGenesisMMORPG.sol\":5554:5791  for (uint j = 0; j < players[msg.sender].inventory.length; j++) {... */\n      iszero\n      tag_298\n      jumpi\n        /* \"src/contract/CryptoQuestTheShardsOfGenesisMMORPG.sol\":5676:5690  recipe.itemIds */\n      dup4\n      mload\n        /* \"src/contract/CryptoQuestTheShardsOfGenesisMMORPG.sol\":5676:5693  recipe.itemIds[i] */\n      dup1\n      mload\n        /* \"src/contract/CryptoQuestTheShardsOfGenesisMMORPG.sol\":5691:5692  i */\n      dup5\n      swap1\n        /* \"src/contract/CryptoQuestTheShardsOfGenesisMMORPG.sol\":5676:5693  recipe.itemIds[i] */\n      dup2\n      lt\n      tag_301\n      jumpi\n      tag_301\n      tag_194\n      jump\t// in\n    tag_301:\n      0x20\n      mul\n      0x20\n      add\n      add\n      mload\n        /* \"src/contract/CryptoQuestTheShardsOfGenesisMMORPG.sol\":5640:5647  players */\n      0x03\n        /* \"src/contract/CryptoQuestTheShardsOfGenesisMMORPG.sol\":5640:5659  players[msg.sender] */\n      0x00\n        /* \"src/contract/CryptoQuestTheShardsOfGenesisMMORPG.sol\":5648:5658  msg.sender */\n      caller\n      sub(shl(0xa0, 0x01), 0x01)\n        /* \"src/contract/CryptoQuestTheShardsOfGenesisMMORPG.sol\":5640:5659  players[msg.sender] */\n      and\n      sub(shl(0xa0, 0x01), 0x01)\n      and\n      dup2\n      mstore\n      0x20\n      add\n      swap1\n      dup2\n      mstore\n      0x20\n      add\n      0x00\n      keccak256\n        /* \"src/contract/CryptoQuestTheShardsOfGenesisMMORPG.sol\":5640:5669  players[msg.sender].inventory */\n      0x08\n      add\n        /* \"src/contract/CryptoQuestTheShardsOfGenesisMMORPG.sol\":5670:5671  j */\n      dup3\n        /* \"src/contract/CryptoQuestTheShardsOfGenesisMMORPG.sol\":5640:5672  players[msg.sender].inventory[j] */\n      dup2\n      sload\n      dup2\n      lt\n      tag_303\n      jumpi\n      tag_303\n      tag_194\n      jump\t// in\n    tag_303:\n      swap1\n      0x00\n      mstore\n      keccak256(0x00, 0x20)\n      add\n      sload\n        /* \"src/contract/CryptoQuestTheShardsOfGenesisMMORPG.sol\":5640:5693  players[msg.sender].inventory[j] == recipe.itemIds[i] */\n      sub\n        /* \"src/contract/CryptoQuestTheShardsOfGenesisMMORPG.sol\":5636:5777  if (players[msg.sender].inventory[j] == recipe.itemIds[i]) {... */\n      tag_305\n      jumpi\n        /* \"src/contract/CryptoQuestTheShardsOfGenesisMMORPG.sol\":5727:5731  true */\n      0x01\n        /* \"src/contract/CryptoQuestTheShardsOfGenesisMMORPG.sol\":5717:5731  hasItem = true */\n      swap2\n      pop\n        /* \"src/contract/CryptoQuestTheShardsOfGenesisMMORPG.sol\":5753:5758  break */\n      jump(tag_298)\n        /* \"src/contract/CryptoQuestTheShardsOfGenesisMMORPG.sol\":5636:5777  if (players[msg.sender].inventory[j] == recipe.itemIds[i]) {... */\n    tag_305:\n        /* \"src/contract/CryptoQuestTheShardsOfGenesisMMORPG.sol\":5613:5616  j++ */\n      0x01\n      add\n        /* \"src/contract/CryptoQuestTheShardsOfGenesisMMORPG.sol\":5554:5791  for (uint j = 0; j < players[msg.sender].inventory.length; j++) {... */\n      jump(tag_297)\n    tag_298:\n      pop\n        /* \"src/contract/CryptoQuestTheShardsOfGenesisMMORPG.sol\":5812:5819  hasItem */\n      dup1\n        /* \"src/contract/CryptoQuestTheShardsOfGenesisMMORPG.sol\":5804:5863  require(hasItem, \"Player does not have all required items\") */\n      tag_306\n      jumpi\n      mload(0x40)\n      shl(0xe5, 0x461bcd)\n      dup2\n      mstore\n        /* \"#utility.yul\":15622:15624   */\n      0x20\n        /* \"src/contract/CryptoQuestTheShardsOfGenesisMMORPG.sol\":5804:5863  require(hasItem, \"Player does not have all required items\") */\n      0x04\n      dup3\n      add\n        /* \"#utility.yul\":15604:15625   */\n      mstore\n        /* \"#utility.yul\":15661:15663   */\n      0x27\n        /* \"#utility.yul\":15641:15659   */\n      0x24\n      dup3\n      add\n        /* \"#utility.yul\":15634:15664   */\n      mstore\n        /* \"#utility.yul\":15700:15734   */\n      0x506c6179657220646f6573206e6f74206861766520616c6c2072657175697265\n        /* \"#utility.yul\":15680:15698   */\n      0x44\n      dup3\n      add\n        /* \"#utility.yul\":15673:15735   */\n      mstore\n      shl(0xc8, 0x64206974656d73)\n        /* \"#utility.yul\":15751:15769   */\n      0x64\n      dup3\n      add\n        /* \"#utility.yul\":15744:15781   */\n      mstore\n        /* \"#utility.yul\":15798:15817   */\n      0x84\n      add\n        /* \"src/contract/CryptoQuestTheShardsOfGenesisMMORPG.sol\":5804:5863  require(hasItem, \"Player does not have all required items\") */\n      tag_237\n        /* \"#utility.yul\":15420:15823   */\n      jump\n        /* \"src/contract/CryptoQuestTheShardsOfGenesisMMORPG.sol\":5804:5863  require(hasItem, \"Player does not have all required items\") */\n    tag_306:\n      pop\n        /* \"src/contract/CryptoQuestTheShardsOfGenesisMMORPG.sol\":5501:5504  i++ */\n      0x01\n      add\n        /* \"src/contract/CryptoQuestTheShardsOfGenesisMMORPG.sol\":5457:5874  for (uint i = 0; i < recipe.itemIds.length; i++) {... */\n      jump(tag_294)\n    tag_295:\n      pop\n        /* \"src/contract/CryptoQuestTheShardsOfGenesisMMORPG.sol\":5950:5956  uint i */\n      0x00\n        /* \"src/contract/CryptoQuestTheShardsOfGenesisMMORPG.sol\":5945:6404  for (uint i = 0; i < recipe.itemIds.length; i++) {... */\n    tag_309:\n        /* \"src/contract/CryptoQuestTheShardsOfGenesisMMORPG.sol\":5966:5980  recipe.itemIds */\n      dup2\n      mload\n        /* \"src/contract/CryptoQuestTheShardsOfGenesisMMORPG.sol\":5966:5987  recipe.itemIds.length */\n      mload\n        /* \"src/contract/CryptoQuestTheShardsOfGenesisMMORPG.sol\":5962:5987  i < recipe.itemIds.length */\n      dup2\n      lt\n        /* \"src/contract/CryptoQuestTheShardsOfGenesisMMORPG.sol\":5945:6404  for (uint i = 0; i < recipe.itemIds.length; i++) {... */\n      iszero\n      tag_310\n      jumpi\n        /* \"src/contract/CryptoQuestTheShardsOfGenesisMMORPG.sol\":6013:6019  uint j */\n      0x00\n        /* \"src/contract/CryptoQuestTheShardsOfGenesisMMORPG.sol\":6008:6394  for (uint j = 0; j < players[msg.sender].inventory.length; j++) {... */\n    tag_312:\n        /* \"src/contract/CryptoQuestTheShardsOfGenesisMMORPG.sol\":6037:6047  msg.sender */\n      caller\n        /* \"src/contract/CryptoQuestTheShardsOfGenesisMMORPG.sol\":6029:6048  players[msg.sender] */\n      0x00\n      swap1\n      dup2\n      mstore\n        /* \"src/contract/CryptoQuestTheShardsOfGenesisMMORPG.sol\":6029:6036  players */\n      0x03\n        /* \"src/contract/CryptoQuestTheShardsOfGenesisMMORPG.sol\":6029:6048  players[msg.sender] */\n      0x20\n      mstore\n      0x40\n      swap1\n      keccak256\n        /* \"src/contract/CryptoQuestTheShardsOfGenesisMMORPG.sol\":6029:6058  players[msg.sender].inventory */\n      0x08\n      add\n        /* \"src/contract/CryptoQuestTheShardsOfGenesisMMORPG.sol\":6029:6065  players[msg.sender].inventory.length */\n      sload\n        /* \"src/contract/CryptoQuestTheShardsOfGenesisMMORPG.sol\":6025:6065  j < players[msg.sender].inventory.length */\n      dup2\n      lt\n        /* \"src/contract/CryptoQuestTheShardsOfGenesisMMORPG.sol\":6008:6394  for (uint j = 0; j < players[msg.sender].inventory.length; j++) {... */\n      iszero\n      tag_313\n      jumpi\n        /* \"src/contract/CryptoQuestTheShardsOfGenesisMMORPG.sol\":6130:6144  recipe.itemIds */\n      dup3\n      mload\n        /* \"src/contract/CryptoQuestTheShardsOfGenesisMMORPG.sol\":6130:6147  recipe.itemIds[i] */\n      dup1\n      mload\n        /* \"src/contract/CryptoQuestTheShardsOfGenesisMMORPG.sol\":6145:6146  i */\n      dup4\n      swap1\n        /* \"src/contract/CryptoQuestTheShardsOfGenesisMMORPG.sol\":6130:6147  recipe.itemIds[i] */\n      dup2\n      lt\n      tag_316\n      jumpi\n      tag_316\n      tag_194\n      jump\t// in\n    tag_316:\n      0x20\n      mul\n      0x20\n      add\n      add\n      mload\n        /* \"src/contract/CryptoQuestTheShardsOfGenesisMMORPG.sol\":6094:6101  players */\n      0x03\n        /* \"src/contract/CryptoQuestTheShardsOfGenesisMMORPG.sol\":6094:6113  players[msg.sender] */\n      0x00\n        /* \"src/contract/CryptoQuestTheShardsOfGenesisMMORPG.sol\":6102:6112  msg.sender */\n      caller\n      sub(shl(0xa0, 0x01), 0x01)\n        /* \"src/contract/CryptoQuestTheShardsOfGenesisMMORPG.sol\":6094:6113  players[msg.sender] */\n      and\n      sub(shl(0xa0, 0x01), 0x01)\n      and\n      dup2\n      mstore\n      0x20\n      add\n      swap1\n      dup2\n      mstore\n      0x20\n      add\n      0x00\n      keccak256\n        /* \"src/contract/CryptoQuestTheShardsOfGenesisMMORPG.sol\":6094:6123  players[msg.sender].inventory */\n      0x08\n      add\n        /* \"src/contract/CryptoQuestTheShardsOfGenesisMMORPG.sol\":6124:6125  j */\n      dup3\n        /* \"src/contract/CryptoQuestTheShardsOfGenesisMMORPG.sol\":6094:6126  players[msg.sender].inventory[j] */\n      dup2\n      sload\n      dup2\n      lt\n      tag_318\n      jumpi\n      tag_318\n      tag_194\n      jump\t// in\n    tag_318:\n      swap1\n      0x00\n      mstore\n      keccak256(0x00, 0x20)\n      add\n      sload\n        /* \"src/contract/CryptoQuestTheShardsOfGenesisMMORPG.sol\":6094:6147  players[msg.sender].inventory[j] == recipe.itemIds[i] */\n      sub\n        /* \"src/contract/CryptoQuestTheShardsOfGenesisMMORPG.sol\":6090:6380  if (players[msg.sender].inventory[j] == recipe.itemIds[i]) {... */\n      tag_320\n      jumpi\n        /* \"src/contract/CryptoQuestTheShardsOfGenesisMMORPG.sol\":6214:6224  msg.sender */\n      caller\n        /* \"src/contract/CryptoQuestTheShardsOfGenesisMMORPG.sol\":6206:6225  players[msg.sender] */\n      0x00\n      swap1\n      dup2\n      mstore\n        /* \"src/contract/CryptoQuestTheShardsOfGenesisMMORPG.sol\":6206:6213  players */\n      0x03\n        /* \"src/contract/CryptoQuestTheShardsOfGenesisMMORPG.sol\":6206:6225  players[msg.sender] */\n      0x20\n      mstore\n      0x40\n      swap1\n      keccak256\n        /* \"src/contract/CryptoQuestTheShardsOfGenesisMMORPG.sol\":6206:6235  players[msg.sender].inventory */\n      0x08\n      add\n        /* \"src/contract/CryptoQuestTheShardsOfGenesisMMORPG.sol\":6236:6272  players[msg.sender].inventory.length */\n      dup1\n      sload\n        /* \"src/contract/CryptoQuestTheShardsOfGenesisMMORPG.sol\":6236:6276  players[msg.sender].inventory.length - 1 */\n      tag_321\n      swap1\n        /* \"src/contract/CryptoQuestTheShardsOfGenesisMMORPG.sol\":6275:6276  1 */\n      0x01\n      swap1\n        /* \"src/contract/CryptoQuestTheShardsOfGenesisMMORPG.sol\":6236:6276  players[msg.sender].inventory.length - 1 */\n      tag_322\n      jump\t// in\n    tag_321:\n        /* \"src/contract/CryptoQuestTheShardsOfGenesisMMORPG.sol\":6206:6277  players[msg.sender].inventory[players[msg.sender].inventory.length - 1] */\n      dup2\n      sload\n      dup2\n      lt\n      tag_324\n      jumpi\n      tag_324\n      tag_194\n      jump\t// in\n    tag_324:\n      0x00\n      swap2\n      dup3\n      mstore\n      0x20\n      dup1\n      dup4\n      keccak256\n      swap1\n      swap2\n      add\n      sload\n        /* \"src/contract/CryptoQuestTheShardsOfGenesisMMORPG.sol\":6179:6189  msg.sender */\n      caller\n        /* \"src/contract/CryptoQuestTheShardsOfGenesisMMORPG.sol\":6171:6190  players[msg.sender] */\n      dup4\n      mstore\n        /* \"src/contract/CryptoQuestTheShardsOfGenesisMMORPG.sol\":6171:6178  players */\n      0x03\n        /* \"src/contract/CryptoQuestTheShardsOfGenesisMMORPG.sol\":6171:6190  players[msg.sender] */\n      swap1\n      swap2\n      mstore\n      0x40\n      swap1\n      swap2\n      keccak256\n        /* \"src/contract/CryptoQuestTheShardsOfGenesisMMORPG.sol\":6171:6200  players[msg.sender].inventory */\n      0x08\n      add\n        /* \"src/contract/CryptoQuestTheShardsOfGenesisMMORPG.sol\":6171:6203  players[msg.sender].inventory[j] */\n      dup1\n      sload\n        /* \"src/contract/CryptoQuestTheShardsOfGenesisMMORPG.sol\":6201:6202  j */\n      dup4\n      swap1\n        /* \"src/contract/CryptoQuestTheShardsOfGenesisMMORPG.sol\":6171:6203  players[msg.sender].inventory[j] */\n      dup2\n      lt\n      tag_327\n      jumpi\n      tag_327\n      tag_194\n      jump\t// in\n    tag_327:\n      0x00\n      swap2\n      dup3\n      mstore\n      0x20\n      dup1\n      dup4\n      keccak256\n      swap1\n      swap2\n      add\n        /* \"src/contract/CryptoQuestTheShardsOfGenesisMMORPG.sol\":6171:6277  players[msg.sender].inventory[j] = players[msg.sender].inventory[players[msg.sender].inventory.length - 1] */\n      swap3\n      swap1\n      swap3\n      sstore\n        /* \"src/contract/CryptoQuestTheShardsOfGenesisMMORPG.sol\":6307:6317  msg.sender */\n      caller\n        /* \"src/contract/CryptoQuestTheShardsOfGenesisMMORPG.sol\":6299:6318  players[msg.sender] */\n      dup2\n      mstore\n        /* \"src/contract/CryptoQuestTheShardsOfGenesisMMORPG.sol\":6299:6306  players */\n      0x03\n        /* \"src/contract/CryptoQuestTheShardsOfGenesisMMORPG.sol\":6299:6318  players[msg.sender] */\n      swap1\n      swap2\n      mstore\n      0x40\n      swap1\n      keccak256\n        /* \"src/contract/CryptoQuestTheShardsOfGenesisMMORPG.sol\":6299:6328  players[msg.sender].inventory */\n      0x08\n      add\n        /* \"src/contract/CryptoQuestTheShardsOfGenesisMMORPG.sol\":6299:6334  players[msg.sender].inventory.pop() */\n      dup1\n      sload\n      dup1\n      tag_330\n      jumpi\n      tag_330\n      tag_331\n      jump\t// in\n    tag_330:\n      0x01\n      swap1\n      sub\n      dup2\n      dup2\n      swap1\n      0x00\n      mstore\n      keccak256(0x00, 0x20)\n      add\n      0x00\n      swap1\n      sstore\n      swap1\n      sstore\n        /* \"src/contract/CryptoQuestTheShardsOfGenesisMMORPG.sol\":6356:6361  break */\n      jump(tag_313)\n        /* \"src/contract/CryptoQuestTheShardsOfGenesisMMORPG.sol\":6090:6380  if (players[msg.sender].inventory[j] == recipe.itemIds[i]) {... */\n    tag_320:\n        /* \"src/contract/CryptoQuestTheShardsOfGenesisMMORPG.sol\":6067:6070  j++ */\n      0x01\n      add\n        /* \"src/contract/CryptoQuestTheShardsOfGenesisMMORPG.sol\":6008:6394  for (uint j = 0; j < players[msg.sender].inventory.length; j++) {... */\n      jump(tag_312)\n    tag_313:\n      pop\n        /* \"src/contract/CryptoQuestTheShardsOfGenesisMMORPG.sol\":5989:5992  i++ */\n      0x01\n      add\n        /* \"src/contract/CryptoQuestTheShardsOfGenesisMMORPG.sol\":5945:6404  for (uint i = 0; i < recipe.itemIds.length; i++) {... */\n      jump(tag_309)\n    tag_310:\n      pop\n        /* \"src/contract/CryptoQuestTheShardsOfGenesisMMORPG.sol\":6480:6490  msg.sender */\n      caller\n        /* \"src/contract/CryptoQuestTheShardsOfGenesisMMORPG.sol\":6472:6491  players[msg.sender] */\n      0x00\n      swap1\n      dup2\n      mstore\n        /* \"src/contract/CryptoQuestTheShardsOfGenesisMMORPG.sol\":6472:6479  players */\n      0x03\n        /* \"src/contract/CryptoQuestTheShardsOfGenesisMMORPG.sol\":6472:6491  players[msg.sender] */\n      0x20\n      swap1\n      dup2\n      mstore\n      0x40\n      dup3\n      keccak256\n        /* \"src/contract/CryptoQuestTheShardsOfGenesisMMORPG.sol\":6507:6526  recipe.resultItemId */\n      swap3\n      dup2\n      add\n      mload\n        /* \"src/contract/CryptoQuestTheShardsOfGenesisMMORPG.sol\":6472:6501  players[msg.sender].inventory */\n      0x08\n      swap1\n      swap4\n      add\n        /* \"src/contract/CryptoQuestTheShardsOfGenesisMMORPG.sol\":6472:6527  players[msg.sender].inventory.push(recipe.resultItemId) */\n      dup1\n      sload\n      0x01\n      dup2\n      add\n      dup3\n      sstore\n      swap1\n      dup4\n      mstore\n      swap2\n      keccak256\n      add\n      sstore\n      pop\n        /* \"src/contract/CryptoQuestTheShardsOfGenesisMMORPG.sol\":5235:6534  function craftItem(uint recipeId) public {... */\n      jump\t// out\n        /* \"src/contract/CryptoQuestTheShardsOfGenesisMMORPG.sol\":2508:2579  function pause() public onlyRole(PAUSER_ROLE) {... */\n    tag_113:\n      0x00\n      dup1\n      mload\n      0x20\n      data_9b87106a812d214d41ad9b68a21119e2948eaaf1040375c939ec808b8862455c\n      dup4\n      codecopy\n      dup2\n      mload\n      swap2\n      mstore\n        /* \"@openzeppelin/contracts-upgradeable/access/AccessControlUpgradeable.sol\":3191:3207  _checkRole(role) */\n      tag_335\n        /* \"@openzeppelin/contracts-upgradeable/access/AccessControlUpgradeable.sol\":3202:3206  role */\n      dup2\n        /* \"@openzeppelin/contracts-upgradeable/access/AccessControlUpgradeable.sol\":3191:3201  _checkRole */\n      tag_211\n        /* \"@openzeppelin/contracts-upgradeable/access/AccessControlUpgradeable.sol\":3191:3207  _checkRole(role) */\n      jump\t// in\n    tag_335:\n        /* \"src/contract/CryptoQuestTheShardsOfGenesisMMORPG.sol\":2564:2572  _pause() */\n      tag_233\n        /* \"src/contract/CryptoQuestTheShardsOfGenesisMMORPG.sol\":2564:2570  _pause */\n      tag_338\n        /* \"src/contract/CryptoQuestTheShardsOfGenesisMMORPG.sol\":2564:2572  _pause() */\n      jump\t// in\n        /* \"@openzeppelin/contracts-upgradeable/access/AccessControlUpgradeable.sol\":3732:3939  function hasRole(bytes32 role, address account) public view virtual returns (bool) {... */\n    tag_117:\n        /* \"@openzeppelin/contracts-upgradeable/access/AccessControlUpgradeable.sol\":3809:3813  bool */\n      0x00\n        /* \"@openzeppelin/contracts-upgradeable/access/AccessControlUpgradeable.sol\":3901:3915  $._roles[role] */\n      swap2\n      dup3\n      mstore\n      0x00\n      dup1\n      mload\n      0x20\n      data_b3da67d1b252aeab7c8063542d95e75f82a5307a82535949bc38f7cf7ba8897f\n      dup4\n      codecopy\n      dup2\n      mload\n      swap2\n      mstore\n      0x20\n      swap1\n      dup2\n      mstore\n      0x40\n      dup1\n      dup5\n      keccak256\n      sub(shl(0xa0, 0x01), 0x01)\n        /* \"@openzeppelin/contracts-upgradeable/access/AccessControlUpgradeable.sol\":3901:3932  $._roles[role].hasRole[account] */\n      swap4\n      swap1\n      swap4\n      and\n      dup5\n      mstore\n      swap2\n      swap1\n      mstore\n      swap1\n      keccak256\n      sload\n      0xff\n      and\n      swap1\n        /* \"@openzeppelin/contracts-upgradeable/access/AccessControlUpgradeable.sol\":3732:3939  function hasRole(bytes32 role, address account) public view virtual returns (bool) {... */\n      jump\t// out\n        /* \"src/contract/CryptoQuestTheShardsOfGenesisMMORPG.sol\":1695:1734  mapping(address => Guild) public guilds */\n    tag_127:\n      mstore(0x20, 0x05)\n      0x00\n      swap1\n      dup2\n      mstore\n      0x40\n      swap1\n      keccak256\n      dup1\n      sload\n      dup2\n      swap1\n      tag_341\n      swap1\n      tag_342\n      jump\t// in\n    tag_341:\n      dup1\n      0x1f\n      add\n      0x20\n      dup1\n      swap2\n      div\n      mul\n      0x20\n      add\n      mload(0x40)\n      swap1\n      dup2\n      add\n      0x40\n      mstore\n      dup1\n      swap3\n      swap2\n      swap1\n      dup2\n      dup2\n      mstore\n      0x20\n      add\n      dup3\n      dup1\n      sload\n      tag_343\n      swap1\n      tag_342\n      jump\t// in\n    tag_343:\n      dup1\n      iszero\n      tag_344\n      jumpi\n      dup1\n      0x1f\n      lt\n      tag_345\n      jumpi\n      0x0100\n      dup1\n      dup4\n      sload\n      div\n      mul\n      dup4\n      mstore\n      swap2\n      0x20\n      add\n      swap2\n      jump(tag_344)\n    tag_345:\n      dup3\n      add\n      swap2\n      swap1\n      0x00\n      mstore\n      keccak256(0x00, 0x20)\n      swap1\n    tag_346:\n      dup2\n      sload\n      dup2\n      mstore\n      swap1\n      0x01\n      add\n      swap1\n      0x20\n      add\n      dup1\n      dup4\n      gt\n      tag_346\n      jumpi\n      dup3\n      swap1\n      sub\n      0x1f\n      and\n      dup3\n      add\n      swap2\n    tag_344:\n      pop\n      pop\n      pop\n      0x01\n      swap1\n      swap4\n      add\n      sload\n      swap2\n      swap3\n      pop\n      pop\n      sub(shl(0xa0, 0x01), 0x01)\n      and\n      dup3\n      jump\t// out\n        /* \"src/contract/CryptoQuestTheShardsOfGenesisMMORPG.sol\":4987:5229  function addRecipe(uint[] memory itemIds, uint resultItemId) public onlyRole(GAME_ADMIN_ROLE) {... */\n    tag_134:\n      0x00\n      dup1\n      mload\n      0x20\n      data_3059375685003c5c33343043cb51f6c6b03e849d5b2f19339e935f8b505d9fe3\n      dup4\n      codecopy\n      dup2\n      mload\n      swap2\n      mstore\n        /* \"@openzeppelin/contracts-upgradeable/access/AccessControlUpgradeable.sol\":3191:3207  _checkRole(role) */\n      tag_348\n        /* \"@openzeppelin/contracts-upgradeable/access/AccessControlUpgradeable.sol\":3202:3206  role */\n      dup2\n        /* \"@openzeppelin/contracts-upgradeable/access/AccessControlUpgradeable.sol\":3191:3201  _checkRole */\n      tag_211\n        /* \"@openzeppelin/contracts-upgradeable/access/AccessControlUpgradeable.sol\":3191:3207  _checkRole(role) */\n      jump\t// in\n    tag_348:\n        /* \"src/contract/CryptoQuestTheShardsOfGenesisMMORPG.sol\":5115:5144  Recipe(itemIds, resultItemId) */\n      0x40\n      dup1\n      mload\n      dup1\n      dup3\n      add\n      dup3\n      mstore\n      dup5\n      dup2\n      mstore\n      0x20\n      dup1\n      dup3\n      add\n      dup6\n      swap1\n      mstore\n        /* \"src/contract/CryptoQuestTheShardsOfGenesisMMORPG.sol\":5099:5111  nextRecipeId */\n      sload(0x01)\n      0x00\n        /* \"src/contract/CryptoQuestTheShardsOfGenesisMMORPG.sol\":5091:5112  recipes[nextRecipeId] */\n      swap1\n      dup2\n      mstore\n        /* \"src/contract/CryptoQuestTheShardsOfGenesisMMORPG.sol\":5091:5098  recipes */\n      0x07\n        /* \"src/contract/CryptoQuestTheShardsOfGenesisMMORPG.sol\":5091:5112  recipes[nextRecipeId] */\n      dup3\n      mstore\n      swap3\n      swap1\n      swap3\n      keccak256\n        /* \"src/contract/CryptoQuestTheShardsOfGenesisMMORPG.sol\":5091:5144  recipes[nextRecipeId] = Recipe(itemIds, resultItemId) */\n      dup2\n      mload\n      dup1\n      mload\n        /* \"src/contract/CryptoQuestTheShardsOfGenesisMMORPG.sol\":5115:5144  Recipe(itemIds, resultItemId) */\n      swap3\n      swap4\n        /* \"src/contract/CryptoQuestTheShardsOfGenesisMMORPG.sol\":5091:5112  recipes[nextRecipeId] */\n      swap2\n      swap3\n        /* \"src/contract/CryptoQuestTheShardsOfGenesisMMORPG.sol\":5091:5144  recipes[nextRecipeId] = Recipe(itemIds, resultItemId) */\n      tag_350\n      swap3\n        /* \"src/contract/CryptoQuestTheShardsOfGenesisMMORPG.sol\":5091:5112  recipes[nextRecipeId] */\n      dup5\n      swap3\n        /* \"src/contract/CryptoQuestTheShardsOfGenesisMMORPG.sol\":5091:5144  recipes[nextRecipeId] = Recipe(itemIds, resultItemId) */\n      add\n      swap1\n      tag_247\n      jump\t// in\n    tag_350:\n      pop\n      0x20\n      swap2\n      dup3\n      add\n      mload\n      0x01\n      swap2\n      dup3\n      add\n      sstore\n        /* \"src/contract/CryptoQuestTheShardsOfGenesisMMORPG.sol\":5171:5183  nextRecipeId */\n      sload\n        /* \"src/contract/CryptoQuestTheShardsOfGenesisMMORPG.sol\":5159:5198  RecipeAdded(nextRecipeId, resultItemId) */\n      0x40\n      dup1\n      mload\n        /* \"#utility.yul\":16267:16292   */\n      swap2\n      dup3\n      mstore\n        /* \"#utility.yul\":16308:16326   */\n      swap2\n      dup2\n      add\n        /* \"#utility.yul\":16301:16335   */\n      dup5\n      swap1\n      mstore\n        /* \"src/contract/CryptoQuestTheShardsOfGenesisMMORPG.sol\":5159:5198  RecipeAdded(nextRecipeId, resultItemId) */\n      0x9becfd2b1fc8127387c5b0002a6cbc8382e6c8fb9f76dfd6cfd92cbe94383d0e\n      swap2\n        /* \"#utility.yul\":16240:16258   */\n      add\n        /* \"src/contract/CryptoQuestTheShardsOfGenesisMMORPG.sol\":5159:5198  RecipeAdded(nextRecipeId, resultItemId) */\n      mload(0x40)\n      dup1\n      swap2\n      sub\n      swap1\n      log1\n        /* \"src/contract/CryptoQuestTheShardsOfGenesisMMORPG.sol\":5208:5220  nextRecipeId */\n      0x01\n        /* \"src/contract/CryptoQuestTheShardsOfGenesisMMORPG.sol\":5208:5222  nextRecipeId++ */\n      dup1\n      sload\n      swap1\n        /* \"src/contract/CryptoQuestTheShardsOfGenesisMMORPG.sol\":5208:5220  nextRecipeId */\n      0x00\n        /* \"src/contract/CryptoQuestTheShardsOfGenesisMMORPG.sol\":5208:5222  nextRecipeId++ */\n      tag_353\n      dup4\n      tag_223\n      jump\t// in\n    tag_353:\n      swap2\n      swap1\n      pop\n      sstore\n      pop\n        /* \"src/contract/CryptoQuestTheShardsOfGenesisMMORPG.sol\":4987:5229  function addRecipe(uint[] memory itemIds, uint resultItemId) public onlyRole(GAME_ADMIN_ROLE) {... */\n      pop\n      pop\n      pop\n      jump\t// out\n        /* \"src/contract/CryptoQuestTheShardsOfGenesisMMORPG.sol\":1555:1589  mapping(uint => Item) public items */\n    tag_147:\n      mstore(0x20, 0x02)\n      0x00\n      swap1\n      dup2\n      mstore\n      0x40\n      swap1\n      keccak256\n      dup1\n      sload\n      0x01\n      dup3\n      add\n      dup1\n      sload\n      swap2\n      swap3\n      swap2\n      tag_354\n      swap1\n      tag_342\n      jump\t// in\n    tag_354:\n      dup1\n      0x1f\n      add\n      0x20\n      dup1\n      swap2\n      div\n      mul\n      0x20\n      add\n      mload(0x40)\n      swap1\n      dup2\n      add\n      0x40\n      mstore\n      dup1\n      swap3\n      swap2\n      swap1\n      dup2\n      dup2\n      mstore\n      0x20\n      add\n      dup3\n      dup1\n      sload\n      tag_355\n      swap1\n      tag_342\n      jump\t// in\n    tag_355:\n      dup1\n      iszero\n      tag_356\n      jumpi\n      dup1\n      0x1f\n      lt\n      tag_357\n      jumpi\n      0x0100\n      dup1\n      dup4\n      sload\n      div\n      mul\n      dup4\n      mstore\n      swap2\n      0x20\n      add\n      swap2\n      jump(tag_356)\n    tag_357:\n      dup3\n      add\n      swap2\n      swap1\n      0x00\n      mstore\n      keccak256(0x00, 0x20)\n      swap1\n    tag_358:\n      dup2\n      sload\n      dup2\n      mstore\n      swap1\n      0x01\n      add\n      swap1\n      0x20\n      add\n      dup1\n      dup4\n      gt\n      tag_358\n      jumpi\n      dup3\n      swap1\n      sub\n      0x1f\n      and\n      dup3\n      add\n      swap2\n    tag_356:\n      pop\n      pop\n      pop\n      pop\n      pop\n      swap1\n      dup1\n      0x02\n      add\n      sload\n      swap1\n      dup1\n      0x03\n      add\n      sload\n      swap1\n      dup1\n      0x04\n      add\n      sload\n      swap1\n      dup1\n      0x05\n      add\n      sload\n      swap1\n      pop\n      dup7\n      jump\t// out\n        /* \"src/contract/CryptoQuestTheShardsOfGenesisMMORPG.sol\":2115:2502  function initialize(address defaultAdmin, address pauser, address upgrader) initializer public {... */\n    tag_154:\n        /* \"@openzeppelin/contracts-upgradeable/proxy/utils/Initializable.sol\":8870:8891  INITIALIZABLE_STORAGE */\n      0xf0c57e16840df040f15088dc2f81fe391c3923bec73e23a9662efc9c229c6a00\n        /* \"@openzeppelin/contracts-upgradeable/proxy/utils/Initializable.sol\":4302:4317  $._initializing */\n      dup1\n      sload\n      shl(0x40, 0x01)\n      dup2\n      div\n      0xff\n      and\n        /* \"@openzeppelin/contracts-upgradeable/proxy/utils/Initializable.sol\":4301:4317  !$._initializing */\n      iszero\n      swap1\n        /* \"@openzeppelin/contracts-upgradeable/proxy/utils/Initializable.sol\":4348:4362  $._initialized */\n      0xffffffffffffffff\n      and\n        /* \"@openzeppelin/contracts-upgradeable/proxy/utils/Initializable.sol\":4158:4188  InitializableStorage storage $ */\n      0x00\n        /* \"@openzeppelin/contracts-upgradeable/proxy/utils/Initializable.sol\":4726:4742  initialized == 0 */\n      dup2\n      iszero\n        /* \"@openzeppelin/contracts-upgradeable/proxy/utils/Initializable.sol\":4726:4760  initialized == 0 && isTopLevelCall */\n      dup1\n      iszero\n      tag_362\n      jumpi\n      pop\n        /* \"@openzeppelin/contracts-upgradeable/proxy/utils/Initializable.sol\":4746:4760  isTopLevelCall */\n      dup3\n        /* \"@openzeppelin/contracts-upgradeable/proxy/utils/Initializable.sol\":4726:4760  initialized == 0 && isTopLevelCall */\n    tag_362:\n        /* \"@openzeppelin/contracts-upgradeable/proxy/utils/Initializable.sol\":4706:4760  bool initialSetup = initialized == 0 && isTopLevelCall */\n      swap1\n      pop\n        /* \"@openzeppelin/contracts-upgradeable/proxy/utils/Initializable.sol\":4770:4787  bool construction */\n      0x00\n        /* \"@openzeppelin/contracts-upgradeable/proxy/utils/Initializable.sol\":4790:4801  initialized */\n      dup3\n        /* \"@openzeppelin/contracts-upgradeable/proxy/utils/Initializable.sol\":4790:4806  initialized == 1 */\n      0xffffffffffffffff\n      and\n        /* \"@openzeppelin/contracts-upgradeable/proxy/utils/Initializable.sol\":4805:4806  1 */\n      0x01\n        /* \"@openzeppelin/contracts-upgradeable/proxy/utils/Initializable.sol\":4790:4806  initialized == 1 */\n      eq\n        /* \"@openzeppelin/contracts-upgradeable/proxy/utils/Initializable.sol\":4790:4840  initialized == 1 && address(this).code.length == 0 */\n      dup1\n      iszero\n      tag_363\n      jumpi\n      pop\n        /* \"@openzeppelin/contracts-upgradeable/proxy/utils/Initializable.sol\":4818:4822  this */\n      address\n        /* \"@openzeppelin/contracts-upgradeable/proxy/utils/Initializable.sol\":4810:4835  address(this).code.length */\n      extcodesize\n        /* \"@openzeppelin/contracts-upgradeable/proxy/utils/Initializable.sol\":4810:4840  address(this).code.length == 0 */\n      iszero\n        /* \"@openzeppelin/contracts-upgradeable/proxy/utils/Initializable.sol\":4790:4840  initialized == 1 && address(this).code.length == 0 */\n    tag_363:\n        /* \"@openzeppelin/contracts-upgradeable/proxy/utils/Initializable.sol\":4770:4840  bool construction = initialized == 1 && address(this).code.length == 0 */\n      swap1\n      pop\n        /* \"@openzeppelin/contracts-upgradeable/proxy/utils/Initializable.sol\":4856:4868  initialSetup */\n      dup2\n        /* \"@openzeppelin/contracts-upgradeable/proxy/utils/Initializable.sol\":4855:4868  !initialSetup */\n      iszero\n        /* \"@openzeppelin/contracts-upgradeable/proxy/utils/Initializable.sol\":4855:4885  !initialSetup && !construction */\n      dup1\n      iszero\n      tag_364\n      jumpi\n      pop\n        /* \"@openzeppelin/contracts-upgradeable/proxy/utils/Initializable.sol\":4873:4885  construction */\n      dup1\n        /* \"@openzeppelin/contracts-upgradeable/proxy/utils/Initializable.sol\":4872:4885  !construction */\n      iszero\n        /* \"@openzeppelin/contracts-upgradeable/proxy/utils/Initializable.sol\":4855:4885  !initialSetup && !construction */\n    tag_364:\n        /* \"@openzeppelin/contracts-upgradeable/proxy/utils/Initializable.sol\":4851:4942  if (!initialSetup && !construction) {... */\n      iszero\n      tag_365\n      jumpi\n        /* \"@openzeppelin/contracts-upgradeable/proxy/utils/Initializable.sol\":4908:4931  InvalidInitialization() */\n      mload(0x40)\n      shl(0xe0, 0xf92ee8a9)\n      dup2\n      mstore\n      0x04\n      add\n      mload(0x40)\n      dup1\n      swap2\n      sub\n      swap1\n      revert\n        /* \"@openzeppelin/contracts-upgradeable/proxy/utils/Initializable.sol\":4851:4942  if (!initialSetup && !construction) {... */\n    tag_365:\n        /* \"@openzeppelin/contracts-upgradeable/proxy/utils/Initializable.sol\":4951:4969  $._initialized = 1 */\n      dup5\n      sload\n      not(0xffffffffffffffff)\n      and\n        /* \"@openzeppelin/contracts-upgradeable/proxy/utils/Initializable.sol\":4968:4969  1 */\n      0x01\n        /* \"@openzeppelin/contracts-upgradeable/proxy/utils/Initializable.sol\":4951:4969  $._initialized = 1 */\n      or\n      dup6\n      sstore\n        /* \"@openzeppelin/contracts-upgradeable/proxy/utils/Initializable.sol\":4979:5046  if (isTopLevelCall) {... */\n      dup4\n      iszero\n      tag_366\n      jumpi\n        /* \"@openzeppelin/contracts-upgradeable/proxy/utils/Initializable.sol\":5013:5035  $._initializing = true */\n      dup5\n      sload\n      not(shl(0x40, 0xff))\n      and\n      shl(0x40, 0x01)\n      or\n      dup6\n      sstore\n        /* \"@openzeppelin/contracts-upgradeable/proxy/utils/Initializable.sol\":4979:5046  if (isTopLevelCall) {... */\n    tag_366:\n        /* \"src/contract/CryptoQuestTheShardsOfGenesisMMORPG.sol\":2220:2237  __Pausable_init() */\n      tag_368\n        /* \"src/contract/CryptoQuestTheShardsOfGenesisMMORPG.sol\":2220:2235  __Pausable_init */\n      tag_369\n        /* \"src/contract/CryptoQuestTheShardsOfGenesisMMORPG.sol\":2220:2237  __Pausable_init() */\n      jump\t// in\n    tag_368:\n        /* \"src/contract/CryptoQuestTheShardsOfGenesisMMORPG.sol\":2247:2269  __AccessControl_init() */\n      tag_370\n        /* \"src/contract/CryptoQuestTheShardsOfGenesisMMORPG.sol\":2247:2267  __AccessControl_init */\n      tag_371\n        /* \"src/contract/CryptoQuestTheShardsOfGenesisMMORPG.sol\":2247:2269  __AccessControl_init() */\n      jump\t// in\n    tag_370:\n        /* \"src/contract/CryptoQuestTheShardsOfGenesisMMORPG.sol\":2279:2303  __UUPSUpgradeable_init() */\n      tag_372\n        /* \"src/contract/CryptoQuestTheShardsOfGenesisMMORPG.sol\":2279:2301  __UUPSUpgradeable_init */\n      tag_371\n        /* \"src/contract/CryptoQuestTheShardsOfGenesisMMORPG.sol\":2279:2303  __UUPSUpgradeable_init() */\n      jump\t// in\n    tag_372:\n        /* \"src/contract/CryptoQuestTheShardsOfGenesisMMORPG.sol\":2314:2358  _grantRole(DEFAULT_ADMIN_ROLE, defaultAdmin) */\n      tag_374\n        /* \"@openzeppelin/contracts-upgradeable/access/AccessControlUpgradeable.sol\":2362:2366  0x00 */\n      0x00\n        /* \"src/contract/CryptoQuestTheShardsOfGenesisMMORPG.sol\":2345:2357  defaultAdmin */\n      dup10\n        /* \"src/contract/CryptoQuestTheShardsOfGenesisMMORPG.sol\":2314:2324  _grantRole */\n      tag_214\n        /* \"src/contract/CryptoQuestTheShardsOfGenesisMMORPG.sol\":2314:2358  _grantRole(DEFAULT_ADMIN_ROLE, defaultAdmin) */\n      jump\t// in\n    tag_374:\n      pop\n        /* \"src/contract/CryptoQuestTheShardsOfGenesisMMORPG.sol\":2368:2399  _grantRole(PAUSER_ROLE, pauser) */\n      tag_375\n      0x00\n      dup1\n      mload\n      0x20\n      data_9b87106a812d214d41ad9b68a21119e2948eaaf1040375c939ec808b8862455c\n      dup4\n      codecopy\n      dup2\n      mload\n      swap2\n      mstore\n        /* \"src/contract/CryptoQuestTheShardsOfGenesisMMORPG.sol\":2392:2398  pauser */\n      dup9\n        /* \"src/contract/CryptoQuestTheShardsOfGenesisMMORPG.sol\":2368:2378  _grantRole */\n      tag_214\n        /* \"src/contract/CryptoQuestTheShardsOfGenesisMMORPG.sol\":2368:2399  _grantRole(PAUSER_ROLE, pauser) */\n      jump\t// in\n    tag_375:\n      pop\n        /* \"src/contract/CryptoQuestTheShardsOfGenesisMMORPG.sol\":2409:2444  _grantRole(UPGRADER_ROLE, upgrader) */\n      tag_376\n        /* \"src/contract/CryptoQuestTheShardsOfGenesisMMORPG.sol\":661:687  keccak256(\"UPGRADER_ROLE\") */\n      0x189ab7a9244df0848122154315af71fe140f3db0fe014031783b0946b8c9d2e3\n        /* \"src/contract/CryptoQuestTheShardsOfGenesisMMORPG.sol\":2435:2443  upgrader */\n      dup8\n        /* \"src/contract/CryptoQuestTheShardsOfGenesisMMORPG.sol\":2409:2419  _grantRole */\n      tag_214\n        /* \"src/contract/CryptoQuestTheShardsOfGenesisMMORPG.sol\":2409:2444  _grantRole(UPGRADER_ROLE, upgrader) */\n      jump\t// in\n    tag_376:\n      pop\n        /* \"src/contract/CryptoQuestTheShardsOfGenesisMMORPG.sol\":2454:2495  _grantRole(GAME_ADMIN_ROLE, defaultAdmin) */\n      tag_377\n      0x00\n      dup1\n      mload\n      0x20\n      data_3059375685003c5c33343043cb51f6c6b03e849d5b2f19339e935f8b505d9fe3\n      dup4\n      codecopy\n      dup2\n      mload\n      swap2\n      mstore\n        /* \"src/contract/CryptoQuestTheShardsOfGenesisMMORPG.sol\":2482:2494  defaultAdmin */\n      dup10\n        /* \"src/contract/CryptoQuestTheShardsOfGenesisMMORPG.sol\":2454:2464  _grantRole */\n      tag_214\n        /* \"src/contract/CryptoQuestTheShardsOfGenesisMMORPG.sol\":2454:2495  _grantRole(GAME_ADMIN_ROLE, defaultAdmin) */\n      jump\t// in\n    tag_377:\n      pop\n        /* \"@openzeppelin/contracts-upgradeable/proxy/utils/Initializable.sol\":5070:5084  isTopLevelCall */\n      dup4\n        /* \"@openzeppelin/contracts-upgradeable/proxy/utils/Initializable.sol\":5066:5167  if (isTopLevelCall) {... */\n      iszero\n      tag_378\n      jumpi\n        /* \"@openzeppelin/contracts-upgradeable/proxy/utils/Initializable.sol\":5100:5123  $._initializing = false */\n      dup5\n      sload\n      not(shl(0x40, 0xff))\n      and\n      dup6\n      sstore\n        /* \"@openzeppelin/contracts-upgradeable/proxy/utils/Initializable.sol\":5142:5156  Initialized(1) */\n      mload(0x40)\n      0x01\n        /* \"#utility.yul\":16499:16549   */\n      dup2\n      mstore\n        /* \"@openzeppelin/contracts-upgradeable/proxy/utils/Initializable.sol\":5142:5156  Initialized(1) */\n      0xc7f505b2f371ae2175ee4913f4499e1f2633a7b5936321eed1cdaeb6115181d2\n      swap1\n        /* \"#utility.yul\":16487:16489   */\n      0x20\n        /* \"#utility.yul\":16472:16490   */\n      add\n        /* \"@openzeppelin/contracts-upgradeable/proxy/utils/Initializable.sol\":5142:5156  Initialized(1) */\n      mload(0x40)\n      dup1\n      swap2\n      sub\n      swap1\n      log1\n        /* \"@openzeppelin/contracts-upgradeable/proxy/utils/Initializable.sol\":5066:5167  if (isTopLevelCall) {... */\n    tag_378:\n        /* \"@openzeppelin/contracts-upgradeable/proxy/utils/Initializable.sol\":4092:5173  {... */\n      pop\n      pop\n      pop\n      pop\n      pop\n        /* \"src/contract/CryptoQuestTheShardsOfGenesisMMORPG.sol\":2115:2502  function initialize(address defaultAdmin, address pauser, address upgrader) initializer public {... */\n      pop\n      pop\n      pop\n      jump\t// out\n        /* \"src/contract/CryptoQuestTheShardsOfGenesisMMORPG.sol\":1642:1689  mapping(address => Quest[]) public playerQuests */\n    tag_159:\n      mstore(0x20, 0x04)\n      dup2\n      0x00\n      mstore\n      keccak256(0x00, 0x40)\n      dup2\n      dup2\n      sload\n      dup2\n      lt\n      tag_381\n      jumpi\n      0x00\n      dup1\n      revert\n    tag_381:\n      swap1\n      0x00\n      mstore\n      keccak256(0x00, 0x20)\n      swap1\n      0x04\n      mul\n      add\n      0x00\n      swap2\n      pop\n      swap2\n      pop\n      pop\n      dup1\n      0x00\n      add\n      dup1\n      sload\n      tag_383\n      swap1\n      tag_342\n      jump\t// in\n    tag_383:\n      dup1\n      0x1f\n      add\n      0x20\n      dup1\n      swap2\n      div\n      mul\n      0x20\n      add\n      mload(0x40)\n      swap1\n      dup2\n      add\n      0x40\n      mstore\n      dup1\n      swap3\n      swap2\n      swap1\n      dup2\n      dup2\n      mstore\n      0x20\n      add\n      dup3\n      dup1\n      sload\n      tag_384\n      swap1\n      tag_342\n      jump\t// in\n    tag_384:\n      dup1\n      iszero\n      tag_385\n      jumpi\n      dup1\n      0x1f\n      lt\n      tag_386\n      jumpi\n      0x0100\n      dup1\n      dup4\n      sload\n      div\n      mul\n      dup4\n      mstore\n      swap2\n      0x20\n      add\n      swap2\n      jump(tag_385)\n    tag_386:\n      dup3\n      add\n      swap2\n      swap1\n      0x00\n      mstore\n      keccak256(0x00, 0x20)\n      swap1\n    tag_387:\n      dup2\n      sload\n      dup2\n      mstore\n      swap1\n      0x01\n      add\n      swap1\n      0x20\n      add\n      dup1\n      dup4\n      gt\n      tag_387\n      jumpi\n      dup3\n      swap1\n      sub\n      0x1f\n      and\n      dup3\n      add\n      swap2\n    tag_385:\n      pop\n      pop\n      pop\n      pop\n      pop\n      swap1\n      dup1\n      0x01\n      add\n      dup1\n      sload\n      tag_388\n      swap1\n      tag_342\n      jump\t// in\n    tag_388:\n      dup1\n      0x1f\n      add\n      0x20\n      dup1\n      swap2\n      div\n      mul\n      0x20\n      add\n      mload(0x40)\n      swap1\n      dup2\n      add\n      0x40\n      mstore\n      dup1\n      swap3\n      swap2\n      swap1\n      dup2\n      dup2\n      mstore\n      0x20\n      add\n      dup3\n      dup1\n      sload\n      tag_389\n      swap1\n      tag_342\n      jump\t// in\n    tag_389:\n      dup1\n      iszero\n      tag_390\n      jumpi\n      dup1\n      0x1f\n      lt\n      tag_391\n      jumpi\n      0x0100\n      dup1\n      dup4\n      sload\n      div\n      mul\n      dup4\n      mstore\n      swap2\n      0x20\n      add\n      swap2\n      jump(tag_390)\n    tag_391:\n      dup3\n      add\n      swap2\n      swap1\n      0x00\n      mstore\n      keccak256(0x00, 0x20)\n      swap1\n    tag_392:\n      dup2\n      sload\n      dup2\n      mstore\n      swap1\n      0x01\n      add\n      swap1\n      0x20\n      add\n      dup1\n      dup4\n      gt\n      tag_392\n      jumpi\n      dup3\n      swap1\n      sub\n      0x1f\n      and\n      dup3\n      add\n      swap2\n    tag_390:\n      pop\n      pop\n      pop\n      pop\n      0x02\n      dup4\n      add\n      sload\n      0x03\n      swap1\n      swap4\n      add\n      sload\n      swap2\n      swap3\n      swap2\n      0xff\n      and\n      swap1\n      pop\n      dup5\n      jump\t// out\n        /* \"@openzeppelin/contracts-upgradeable/access/AccessControlUpgradeable.sol\":5662:5800  function revokeRole(bytes32 role, address account) public virtual onlyRole(getRoleAdmin(role)) {... */\n    tag_165:\n        /* \"@openzeppelin/contracts-upgradeable/access/AccessControlUpgradeable.sol\":5737:5755  getRoleAdmin(role) */\n      tag_393\n        /* \"@openzeppelin/contracts-upgradeable/access/AccessControlUpgradeable.sol\":5750:5754  role */\n      dup3\n        /* \"@openzeppelin/contracts-upgradeable/access/AccessControlUpgradeable.sol\":5737:5749  getRoleAdmin */\n      tag_55\n        /* \"@openzeppelin/contracts-upgradeable/access/AccessControlUpgradeable.sol\":5737:5755  getRoleAdmin(role) */\n      jump\t// in\n    tag_393:\n        /* \"@openzeppelin/contracts-upgradeable/access/AccessControlUpgradeable.sol\":3191:3207  _checkRole(role) */\n      tag_395\n        /* \"@openzeppelin/contracts-upgradeable/access/AccessControlUpgradeable.sol\":3202:3206  role */\n      dup2\n        /* \"@openzeppelin/contracts-upgradeable/access/AccessControlUpgradeable.sol\":3191:3201  _checkRole */\n      tag_211\n        /* \"@openzeppelin/contracts-upgradeable/access/AccessControlUpgradeable.sol\":3191:3207  _checkRole(role) */\n      jump\t// in\n    tag_395:\n        /* \"@openzeppelin/contracts-upgradeable/access/AccessControlUpgradeable.sol\":5767:5793  _revokeRole(role, account) */\n      tag_213\n        /* \"@openzeppelin/contracts-upgradeable/access/AccessControlUpgradeable.sol\":5779:5783  role */\n      dup4\n        /* \"@openzeppelin/contracts-upgradeable/access/AccessControlUpgradeable.sol\":5785:5792  account */\n      dup4\n        /* \"@openzeppelin/contracts-upgradeable/access/AccessControlUpgradeable.sol\":5767:5778  _revokeRole */\n      tag_229\n        /* \"@openzeppelin/contracts-upgradeable/access/AccessControlUpgradeable.sol\":5767:5793  _revokeRole(role, account) */\n      jump\t// in\n        /* \"src/contract/CryptoQuestTheShardsOfGenesisMMORPG.sol\":4469:4981  function joinGuild(string memory guildName) public {... */\n    tag_175:\n        /* \"src/contract/CryptoQuestTheShardsOfGenesisMMORPG.sol\":4530:4544  address leader */\n      0x00\n        /* \"src/contract/CryptoQuestTheShardsOfGenesisMMORPG.sol\":4547:4564  guildNameToLeader */\n      0x06\n        /* \"src/contract/CryptoQuestTheShardsOfGenesisMMORPG.sol\":4565:4574  guildName */\n      dup3\n        /* \"src/contract/CryptoQuestTheShardsOfGenesisMMORPG.sol\":4547:4575  guildNameToLeader[guildName] */\n      mload(0x40)\n      tag_399\n      swap2\n      swap1\n      tag_197\n      jump\t// in\n    tag_399:\n      swap1\n      dup2\n      mstore\n      mload(0x40)\n      swap1\n      dup2\n      swap1\n      sub\n      0x20\n      add\n      swap1\n      keccak256\n      sload\n      sub(shl(0xa0, 0x01), 0x01)\n      and\n      swap1\n      pop\n      dup1\n        /* \"src/contract/CryptoQuestTheShardsOfGenesisMMORPG.sol\":4585:4638  require(leader != address(0), \"Guild does not exist\") */\n      tag_400\n      jumpi\n      mload(0x40)\n      shl(0xe5, 0x461bcd)\n      dup2\n      mstore\n        /* \"#utility.yul\":16762:16764   */\n      0x20\n        /* \"src/contract/CryptoQuestTheShardsOfGenesisMMORPG.sol\":4585:4638  require(leader != address(0), \"Guild does not exist\") */\n      0x04\n      dup3\n      add\n        /* \"#utility.yul\":16744:16765   */\n      mstore\n        /* \"#utility.yul\":16801:16803   */\n      0x14\n        /* \"#utility.yul\":16781:16799   */\n      0x24\n      dup3\n      add\n        /* \"#utility.yul\":16774:16804   */\n      mstore\n      shl(0x62, 0x11dd5a5b1908191bd95cc81b9bdd08195e1a5cdd)\n        /* \"#utility.yul\":16820:16838   */\n      0x44\n      dup3\n      add\n        /* \"#utility.yul\":16813:16863   */\n      mstore\n        /* \"#utility.yul\":16880:16898   */\n      0x64\n      add\n        /* \"src/contract/CryptoQuestTheShardsOfGenesisMMORPG.sol\":4585:4638  require(leader != address(0), \"Guild does not exist\") */\n      tag_237\n        /* \"#utility.yul\":16560:16904   */\n      jump\n        /* \"src/contract/CryptoQuestTheShardsOfGenesisMMORPG.sol\":4585:4638  require(leader != address(0), \"Guild does not exist\") */\n    tag_400:\n      sub(shl(0xa0, 0x01), 0x01)\n        /* \"src/contract/CryptoQuestTheShardsOfGenesisMMORPG.sol\":4755:4769  guilds[leader] */\n      dup2\n      and\n        /* \"src/contract/CryptoQuestTheShardsOfGenesisMMORPG.sol\":4733:4752  Guild storage guild */\n      0x00\n        /* \"src/contract/CryptoQuestTheShardsOfGenesisMMORPG.sol\":4755:4769  guilds[leader] */\n      swap1\n      dup2\n      mstore\n        /* \"src/contract/CryptoQuestTheShardsOfGenesisMMORPG.sol\":4755:4761  guilds */\n      0x05\n        /* \"src/contract/CryptoQuestTheShardsOfGenesisMMORPG.sol\":4755:4769  guilds[leader] */\n      0x20\n      mstore\n      0x40\n      dup2\n      keccak256\n      swap1\n        /* \"src/contract/CryptoQuestTheShardsOfGenesisMMORPG.sol\":4779:4934  for (uint i = 0; i < guild.members.length; i++) {... */\n    tag_403:\n        /* \"src/contract/CryptoQuestTheShardsOfGenesisMMORPG.sol\":4800:4813  guild.members */\n      0x02\n      dup3\n      add\n        /* \"src/contract/CryptoQuestTheShardsOfGenesisMMORPG.sol\":4800:4820  guild.members.length */\n      sload\n        /* \"src/contract/CryptoQuestTheShardsOfGenesisMMORPG.sol\":4796:4820  i < guild.members.length */\n      dup2\n      lt\n        /* \"src/contract/CryptoQuestTheShardsOfGenesisMMORPG.sol\":4779:4934  for (uint i = 0; i < guild.members.length; i++) {... */\n      iszero\n      tag_404\n      jumpi\n        /* \"src/contract/CryptoQuestTheShardsOfGenesisMMORPG.sol\":4869:4879  msg.sender */\n      caller\n      sub(shl(0xa0, 0x01), 0x01)\n        /* \"src/contract/CryptoQuestTheShardsOfGenesisMMORPG.sol\":4849:4879  guild.members[i] != msg.sender */\n      and\n        /* \"src/contract/CryptoQuestTheShardsOfGenesisMMORPG.sol\":4849:4854  guild */\n      dup3\n        /* \"src/contract/CryptoQuestTheShardsOfGenesisMMORPG.sol\":4849:4862  guild.members */\n      0x02\n      add\n        /* \"src/contract/CryptoQuestTheShardsOfGenesisMMORPG.sol\":4863:4864  i */\n      dup3\n        /* \"src/contract/CryptoQuestTheShardsOfGenesisMMORPG.sol\":4849:4865  guild.members[i] */\n      dup2\n      sload\n      dup2\n      lt\n      tag_407\n      jumpi\n      tag_407\n      tag_194\n      jump\t// in\n    tag_407:\n      0x00\n      swap2\n      dup3\n      mstore\n      0x20\n      swap1\n      swap2\n      keccak256\n      add\n      sload\n      sub(shl(0xa0, 0x01), 0x01)\n      and\n        /* \"src/contract/CryptoQuestTheShardsOfGenesisMMORPG.sol\":4849:4879  guild.members[i] != msg.sender */\n      sub\n        /* \"src/contract/CryptoQuestTheShardsOfGenesisMMORPG.sol\":4841:4923  require(guild.members[i] != msg.sender, \"Sender is already a member of the guild\") */\n      tag_409\n      jumpi\n      mload(0x40)\n      shl(0xe5, 0x461bcd)\n      dup2\n      mstore\n        /* \"#utility.yul\":17111:17113   */\n      0x20\n        /* \"src/contract/CryptoQuestTheShardsOfGenesisMMORPG.sol\":4841:4923  require(guild.members[i] != msg.sender, \"Sender is already a member of the guild\") */\n      0x04\n      dup3\n      add\n        /* \"#utility.yul\":17093:17114   */\n      mstore\n        /* \"#utility.yul\":17150:17152   */\n      0x27\n        /* \"#utility.yul\":17130:17148   */\n      0x24\n      dup3\n      add\n        /* \"#utility.yul\":17123:17153   */\n      mstore\n        /* \"#utility.yul\":17189:17223   */\n      0x53656e64657220697320616c72656164792061206d656d626572206f66207468\n        /* \"#utility.yul\":17169:17187   */\n      0x44\n      dup3\n      add\n        /* \"#utility.yul\":17162:17224   */\n      mstore\n      shl(0xca, 0x194819dd5a5b19)\n        /* \"#utility.yul\":17240:17258   */\n      0x64\n      dup3\n      add\n        /* \"#utility.yul\":17233:17270   */\n      mstore\n        /* \"#utility.yul\":17287:17306   */\n      0x84\n      add\n        /* \"src/contract/CryptoQuestTheShardsOfGenesisMMORPG.sol\":4841:4923  require(guild.members[i] != msg.sender, \"Sender is already a member of the guild\") */\n      tag_237\n        /* \"#utility.yul\":16909:17312   */\n      jump\n        /* \"src/contract/CryptoQuestTheShardsOfGenesisMMORPG.sol\":4841:4923  require(guild.members[i] != msg.sender, \"Sender is already a member of the guild\") */\n    tag_409:\n        /* \"src/contract/CryptoQuestTheShardsOfGenesisMMORPG.sol\":4822:4825  i++ */\n      0x01\n      add\n        /* \"src/contract/CryptoQuestTheShardsOfGenesisMMORPG.sol\":4779:4934  for (uint i = 0; i < guild.members.length; i++) {... */\n      jump(tag_403)\n    tag_404:\n      pop\n        /* \"src/contract/CryptoQuestTheShardsOfGenesisMMORPG.sol\":4944:4957  guild.members */\n      0x02\n      add\n        /* \"src/contract/CryptoQuestTheShardsOfGenesisMMORPG.sol\":4944:4974  guild.members.push(msg.sender) */\n      dup1\n      sload\n      0x01\n      dup2\n      add\n      dup3\n      sstore\n      0x00\n      swap2\n      dup3\n      mstore\n      0x20\n      swap1\n      swap2\n      keccak256\n      add\n      dup1\n      sload\n      not(sub(shl(0xa0, 0x01), 0x01))\n      and\n        /* \"src/contract/CryptoQuestTheShardsOfGenesisMMORPG.sol\":4963:4973  msg.sender */\n      caller\n        /* \"src/contract/CryptoQuestTheShardsOfGenesisMMORPG.sol\":4944:4974  guild.members.push(msg.sender) */\n      or\n      swap1\n      sstore\n      pop\n      pop\n        /* \"src/contract/CryptoQuestTheShardsOfGenesisMMORPG.sol\":4469:4981  function joinGuild(string memory guildName) public {... */\n      jump\t// out\n        /* \"@openzeppelin/contracts-upgradeable/access/AccessControlUpgradeable.sol\":4148:4251  function _checkRole(bytes32 role) internal view virtual {... */\n    tag_211:\n        /* \"@openzeppelin/contracts-upgradeable/access/AccessControlUpgradeable.sol\":4214:4244  _checkRole(role, _msgSender()) */\n      tag_233\n        /* \"@openzeppelin/contracts-upgradeable/access/AccessControlUpgradeable.sol\":4225:4229  role */\n      dup2\n        /* \"@openzeppelin/contracts-upgradeable/utils/ContextUpgradeable.sol\":966:976  msg.sender */\n      caller\n        /* \"@openzeppelin/contracts-upgradeable/access/AccessControlUpgradeable.sol\":4214:4224  _checkRole */\n      tag_418\n        /* \"@openzeppelin/contracts-upgradeable/access/AccessControlUpgradeable.sol\":4214:4244  _checkRole(role, _msgSender()) */\n      jump\t// in\n        /* \"@openzeppelin/contracts-upgradeable/access/AccessControlUpgradeable.sol\":7270:7657  function _grantRole(bytes32 role, address account) internal virtual returns (bool) {... */\n    tag_214:\n        /* \"@openzeppelin/contracts-upgradeable/access/AccessControlUpgradeable.sol\":7347:7351  bool */\n      0x00\n      0x00\n      dup1\n      mload\n      0x20\n      data_b3da67d1b252aeab7c8063542d95e75f82a5307a82535949bc38f7cf7ba8897f\n      dup4\n      codecopy\n      dup2\n      mload\n      swap2\n      mstore\n        /* \"@openzeppelin/contracts-upgradeable/access/AccessControlUpgradeable.sol\":7437:7459  hasRole(role, account) */\n      tag_421\n        /* \"@openzeppelin/contracts-upgradeable/access/AccessControlUpgradeable.sol\":7445:7449  role */\n      dup5\n        /* \"@openzeppelin/contracts-upgradeable/access/AccessControlUpgradeable.sol\":7451:7458  account */\n      dup5\n        /* \"@openzeppelin/contracts-upgradeable/access/AccessControlUpgradeable.sol\":7437:7444  hasRole */\n      tag_117\n        /* \"@openzeppelin/contracts-upgradeable/access/AccessControlUpgradeable.sol\":7437:7459  hasRole(role, account) */\n      jump\t// in\n    tag_421:\n        /* \"@openzeppelin/contracts-upgradeable/access/AccessControlUpgradeable.sol\":7432:7651  if (!hasRole(role, account)) {... */\n      tag_422\n      jumpi\n        /* \"@openzeppelin/contracts-upgradeable/access/AccessControlUpgradeable.sol\":7475:7483  $._roles */\n      0x00\n        /* \"@openzeppelin/contracts-upgradeable/access/AccessControlUpgradeable.sol\":7475:7489  $._roles[role] */\n      dup5\n      dup2\n      mstore\n      0x20\n      dup3\n      dup2\n      mstore\n      0x40\n      dup1\n      dup4\n      keccak256\n      sub(shl(0xa0, 0x01), 0x01)\n        /* \"@openzeppelin/contracts-upgradeable/access/AccessControlUpgradeable.sol\":7475:7506  $._roles[role].hasRole[account] */\n      dup8\n      and\n      dup5\n      mstore\n      swap1\n      swap2\n      mstore\n      swap1\n      keccak256\n        /* \"@openzeppelin/contracts-upgradeable/access/AccessControlUpgradeable.sol\":7475:7513  $._roles[role].hasRole[account] = true */\n      dup1\n      sload\n      not(0xff)\n      and\n        /* \"@openzeppelin/contracts-upgradeable/access/AccessControlUpgradeable.sol\":7509:7513  true */\n      0x01\n        /* \"@openzeppelin/contracts-upgradeable/access/AccessControlUpgradeable.sol\":7475:7513  $._roles[role].hasRole[account] = true */\n      or\n      swap1\n      sstore\n        /* \"@openzeppelin/contracts-upgradeable/access/AccessControlUpgradeable.sol\":7559:7571  _msgSender() */\n      tag_423\n        /* \"@openzeppelin/contracts-upgradeable/utils/ContextUpgradeable.sol\":966:976  msg.sender */\n      caller\n      swap1\n        /* \"@openzeppelin/contracts-upgradeable/utils/ContextUpgradeable.sol\":887:983  function _msgSender() internal view virtual returns (address) {... */\n      jump\n        /* \"@openzeppelin/contracts-upgradeable/access/AccessControlUpgradeable.sol\":7559:7571  _msgSender() */\n    tag_423:\n      sub(shl(0xa0, 0x01), 0x01)\n        /* \"@openzeppelin/contracts-upgradeable/access/AccessControlUpgradeable.sol\":7532:7572  RoleGranted(role, account, _msgSender()) */\n      and\n        /* \"@openzeppelin/contracts-upgradeable/access/AccessControlUpgradeable.sol\":7550:7557  account */\n      dup4\n      sub(shl(0xa0, 0x01), 0x01)\n        /* \"@openzeppelin/contracts-upgradeable/access/AccessControlUpgradeable.sol\":7532:7572  RoleGranted(role, account, _msgSender()) */\n      and\n        /* \"@openzeppelin/contracts-upgradeable/access/AccessControlUpgradeable.sol\":7544:7548  role */\n      dup6\n        /* \"@openzeppelin/contracts-upgradeable/access/AccessControlUpgradeable.sol\":7532:7572  RoleGranted(role, account, _msgSender()) */\n      0x2f8788117e7eff1d82e926ec794901d17c78024a50270940304540a733656f0d\n      mload(0x40)\n      mload(0x40)\n      dup1\n      swap2\n      sub\n      swap1\n      log4\n        /* \"@openzeppelin/contracts-upgradeable/access/AccessControlUpgradeable.sol\":7593:7597  true */\n      0x01\n        /* \"@openzeppelin/contracts-upgradeable/access/AccessControlUpgradeable.sol\":7586:7597  return true */\n      swap2\n      pop\n      pop\n      jump(tag_186)\n        /* \"@openzeppelin/contracts-upgradeable/access/AccessControlUpgradeable.sol\":7432:7651  if (!hasRole(role, account)) {... */\n    tag_422:\n        /* \"@openzeppelin/contracts-upgradeable/access/AccessControlUpgradeable.sol\":7635:7640  false */\n      0x00\n        /* \"@openzeppelin/contracts-upgradeable/access/AccessControlUpgradeable.sol\":7628:7640  return false */\n      swap2\n      pop\n      pop\n      jump(tag_186)\n        /* \"@openzeppelin/contracts-upgradeable/access/AccessControlUpgradeable.sol\":7892:8280  function _revokeRole(bytes32 role, address account) internal virtual returns (bool) {... */\n    tag_229:\n        /* \"@openzeppelin/contracts-upgradeable/access/AccessControlUpgradeable.sol\":7970:7974  bool */\n      0x00\n      0x00\n      dup1\n      mload\n      0x20\n      data_b3da67d1b252aeab7c8063542d95e75f82a5307a82535949bc38f7cf7ba8897f\n      dup4\n      codecopy\n      dup2\n      mload\n      swap2\n      mstore\n        /* \"@openzeppelin/contracts-upgradeable/access/AccessControlUpgradeable.sol\":8059:8081  hasRole(role, account) */\n      tag_428\n        /* \"@openzeppelin/contracts-upgradeable/access/AccessControlUpgradeable.sol\":8067:8071  role */\n      dup5\n        /* \"@openzeppelin/contracts-upgradeable/access/AccessControlUpgradeable.sol\":8073:8080  account */\n      dup5\n        /* \"@openzeppelin/contracts-upgradeable/access/AccessControlUpgradeable.sol\":8059:8066  hasRole */\n      tag_117\n        /* \"@openzeppelin/contracts-upgradeable/access/AccessControlUpgradeable.sol\":8059:8081  hasRole(role, account) */\n      jump\t// in\n    tag_428:\n        /* \"@openzeppelin/contracts-upgradeable/access/AccessControlUpgradeable.sol\":8055:8274  if (hasRole(role, account)) {... */\n      iszero\n      tag_422\n      jumpi\n        /* \"@openzeppelin/contracts-upgradeable/access/AccessControlUpgradeable.sol\":8131:8136  false */\n      0x00\n        /* \"@openzeppelin/contracts-upgradeable/access/AccessControlUpgradeable.sol\":8097:8111  $._roles[role] */\n      dup5\n      dup2\n      mstore\n      0x20\n      dup3\n      dup2\n      mstore\n      0x40\n      dup1\n      dup4\n      keccak256\n      sub(shl(0xa0, 0x01), 0x01)\n        /* \"@openzeppelin/contracts-upgradeable/access/AccessControlUpgradeable.sol\":8097:8128  $._roles[role].hasRole[account] */\n      dup8\n      and\n      dup1\n      dup6\n      mstore\n      swap3\n      mstore\n      dup1\n      dup4\n      keccak256\n        /* \"@openzeppelin/contracts-upgradeable/access/AccessControlUpgradeable.sol\":8097:8136  $._roles[role].hasRole[account] = false */\n      dup1\n      sload\n      not(0xff)\n      and\n      swap1\n      sstore\n        /* \"@openzeppelin/contracts-upgradeable/access/AccessControlUpgradeable.sol\":8155:8195  RoleRevoked(role, account, _msgSender()) */\n      mload\n        /* \"@openzeppelin/contracts-upgradeable/utils/ContextUpgradeable.sol\":966:976  msg.sender */\n      caller\n      swap3\n        /* \"@openzeppelin/contracts-upgradeable/access/AccessControlUpgradeable.sol\":8097:8111  $._roles[role] */\n      dup8\n      swap2\n        /* \"@openzeppelin/contracts-upgradeable/access/AccessControlUpgradeable.sol\":8155:8195  RoleRevoked(role, account, _msgSender()) */\n      0xf6391f5c32d9c69d2a47ea670b442974b53935d1edc7fd64eb21e047a839171b\n      swap2\n        /* \"@openzeppelin/contracts-upgradeable/access/AccessControlUpgradeable.sol\":8131:8136  false */\n      swap1\n        /* \"@openzeppelin/contracts-upgradeable/access/AccessControlUpgradeable.sol\":8155:8195  RoleRevoked(role, account, _msgSender()) */\n      log4\n        /* \"@openzeppelin/contracts-upgradeable/access/AccessControlUpgradeable.sol\":8216:8220  true */\n      0x01\n        /* \"@openzeppelin/contracts-upgradeable/access/AccessControlUpgradeable.sol\":8209:8220  return true */\n      swap2\n      pop\n      pop\n      jump(tag_186)\n        /* \"@openzeppelin/contracts-upgradeable/utils/PausableUpgradeable.sol\":3674:3852  function _unpause() internal virtual whenPaused {... */\n    tag_234:\n        /* \"@openzeppelin/contracts-upgradeable/utils/PausableUpgradeable.sol\":2563:2579  _requirePaused() */\n      tag_433\n        /* \"@openzeppelin/contracts-upgradeable/utils/PausableUpgradeable.sol\":2563:2577  _requirePaused */\n      tag_434\n        /* \"@openzeppelin/contracts-upgradeable/utils/PausableUpgradeable.sol\":2563:2579  _requirePaused() */\n      jump\t// in\n    tag_433:\n      0x00\n      dup1\n      mload\n      0x20\n      data_c0c65a3718f3702d917c44106b91645b509d2e2d0979b70495c3babce192339f\n      dup4\n      codecopy\n      dup2\n      mload\n      swap2\n      mstore\n        /* \"@openzeppelin/contracts-upgradeable/utils/PausableUpgradeable.sol\":3791:3808  $._paused = false */\n      dup1\n      sload\n      not(0xff)\n      and\n      dup2\n      sstore\n        /* \"@openzeppelin/contracts-upgradeable/utils/PausableUpgradeable.sol\":3823:3845  Unpaused(_msgSender()) */\n      0x5db9ee0a495bf2e6ff9c91a7834c1ba4fdd244a5e8aa4e537bd38aeae4b073aa\n        /* \"@openzeppelin/contracts-upgradeable/utils/ContextUpgradeable.sol\":966:976  msg.sender */\n      caller\n        /* \"@openzeppelin/contracts-upgradeable/utils/PausableUpgradeable.sol\":3832:3844  _msgSender() */\n    tag_437:\n        /* \"@openzeppelin/contracts-upgradeable/utils/PausableUpgradeable.sol\":3823:3845  Unpaused(_msgSender()) */\n      mload(0x40)\n      sub(shl(0xa0, 0x01), 0x01)\n        /* \"#utility.yul\":17481:17513   */\n      swap1\n      swap2\n      and\n        /* \"#utility.yul\":17463:17514   */\n      dup2\n      mstore\n        /* \"#utility.yul\":17451:17453   */\n      0x20\n        /* \"#utility.yul\":17436:17454   */\n      add\n        /* \"@openzeppelin/contracts-upgradeable/utils/PausableUpgradeable.sol\":3823:3845  Unpaused(_msgSender()) */\n      mload(0x40)\n      dup1\n      swap2\n      sub\n      swap1\n      log1\n        /* \"@openzeppelin/contracts-upgradeable/utils/PausableUpgradeable.sol\":3722:3852  {... */\n      pop\n        /* \"@openzeppelin/contracts-upgradeable/utils/PausableUpgradeable.sol\":3674:3852  function _unpause() internal virtual whenPaused {... */\n      jump\t// out\n        /* \"@openzeppelin/contracts-upgradeable/proxy/utils/UUPSUpgradeable.sol\":4599:4911  function _checkProxy() internal view virtual {... */\n    tag_251:\n        /* \"@openzeppelin/contracts-upgradeable/proxy/utils/UUPSUpgradeable.sol\":4679:4683  this */\n      address\n      sub(shl(0xa0, 0x01), 0x01)\n        /* \"@openzeppelin/contracts-upgradeable/proxy/utils/UUPSUpgradeable.sol\":4688:4694  __self */\n      immutable(\"0x3b04ad91523c4dcf551e081621e633b9099d51bf9c5461e58c3bc7354a578b27\")\n        /* \"@openzeppelin/contracts-upgradeable/proxy/utils/UUPSUpgradeable.sol\":4671:4694  address(this) == __self */\n      and\n      eq\n      dup1\n        /* \"@openzeppelin/contracts-upgradeable/proxy/utils/UUPSUpgradeable.sol\":4671:4791  address(this) == __self || // Must be called through delegatecall... */\n      tag_441\n      jumpi\n      pop\n        /* \"@openzeppelin/contracts-upgradeable/proxy/utils/UUPSUpgradeable.sol\":4785:4791  __self */\n      immutable(\"0x3b04ad91523c4dcf551e081621e633b9099d51bf9c5461e58c3bc7354a578b27\")\n      sub(shl(0xa0, 0x01), 0x01)\n        /* \"@openzeppelin/contracts-upgradeable/proxy/utils/UUPSUpgradeable.sol\":4749:4791  ERC1967Utils.getImplementation() != __self */\n      and\n        /* \"@openzeppelin/contracts-upgradeable/proxy/utils/UUPSUpgradeable.sol\":4749:4781  ERC1967Utils.getImplementation() */\n      tag_442\n      0x00\n      dup1\n      mload\n      0x20\n      data_75b20eef8615de99c108b05f0dbda081c91897128caa336d75dffb97c4132b4d\n      dup4\n      codecopy\n      dup2\n      mload\n      swap2\n      mstore\n        /* \"@openzeppelin/contracts/proxy/ERC1967/ERC1967Utils.sol\":2035:2088  StorageSlot.getAddressSlot(IMPLEMENTATION_SLOT).value */\n      sload\n      sub(shl(0xa0, 0x01), 0x01)\n      and\n      swap1\n        /* \"@openzeppelin/contracts/proxy/ERC1967/ERC1967Utils.sol\":1957:2095  function getImplementation() internal view returns (address) {... */\n      jump\n        /* \"@openzeppelin/contracts-upgradeable/proxy/utils/UUPSUpgradeable.sol\":4749:4781  ERC1967Utils.getImplementation() */\n    tag_442:\n      sub(shl(0xa0, 0x01), 0x01)\n        /* \"@openzeppelin/contracts-upgradeable/proxy/utils/UUPSUpgradeable.sol\":4749:4791  ERC1967Utils.getImplementation() != __self */\n      and\n      eq\n      iszero\n        /* \"@openzeppelin/contracts-upgradeable/proxy/utils/UUPSUpgradeable.sol\":4671:4791  address(this) == __self || // Must be called through delegatecall... */\n    tag_441:\n        /* \"@openzeppelin/contracts-upgradeable/proxy/utils/UUPSUpgradeable.sol\":4654:4905  if (... */\n      iszero\n      tag_444\n      jumpi\n        /* \"@openzeppelin/contracts-upgradeable/proxy/utils/UUPSUpgradeable.sol\":4865:4894  UUPSUnauthorizedCallContext() */\n      mload(0x40)\n      shl(0xe1, 0x703e46dd)\n      dup2\n      mstore\n      0x04\n      add\n      mload(0x40)\n      dup1\n      swap2\n      sub\n      swap1\n      revert\n        /* \"@openzeppelin/contracts-upgradeable/proxy/utils/UUPSUpgradeable.sol\":4654:4905  if (... */\n    tag_444:\n        /* \"@openzeppelin/contracts-upgradeable/proxy/utils/UUPSUpgradeable.sol\":4599:4911  function _checkProxy() internal view virtual {... */\n      jump\t// out\n        /* \"src/contract/CryptoQuestTheShardsOfGenesisMMORPG.sol\":2666:2764  function _authorizeUpgrade(address newImplementation) internal override onlyRole(UPGRADER_ROLE) {} */\n    tag_254:\n        /* \"src/contract/CryptoQuestTheShardsOfGenesisMMORPG.sol\":661:687  keccak256(\"UPGRADER_ROLE\") */\n      0x189ab7a9244df0848122154315af71fe140f3db0fe014031783b0946b8c9d2e3\n        /* \"@openzeppelin/contracts-upgradeable/access/AccessControlUpgradeable.sol\":3191:3207  _checkRole(role) */\n      tag_190\n        /* \"@openzeppelin/contracts-upgradeable/access/AccessControlUpgradeable.sol\":3202:3206  role */\n      dup2\n        /* \"@openzeppelin/contracts-upgradeable/access/AccessControlUpgradeable.sol\":3191:3201  _checkRole */\n      tag_211\n        /* \"@openzeppelin/contracts-upgradeable/access/AccessControlUpgradeable.sol\":3191:3207  _checkRole(role) */\n      jump\t// in\n        /* \"@openzeppelin/contracts-upgradeable/proxy/utils/UUPSUpgradeable.sol\":6052:6590  function _upgradeToAndCallUUPS(address newImplementation, bytes memory data) private {... */\n    tag_256:\n        /* \"@openzeppelin/contracts-upgradeable/proxy/utils/UUPSUpgradeable.sol\":6169:6186  newImplementation */\n      dup2\n      sub(shl(0xa0, 0x01), 0x01)\n        /* \"@openzeppelin/contracts-upgradeable/proxy/utils/UUPSUpgradeable.sol\":6151:6201  IERC1822Proxiable(newImplementation).proxiableUUID */\n      and\n      0x52d1902d\n        /* \"@openzeppelin/contracts-upgradeable/proxy/utils/UUPSUpgradeable.sol\":6151:6203  IERC1822Proxiable(newImplementation).proxiableUUID() */\n      mload(0x40)\n      dup2\n      0xffffffff\n      and\n      0xe0\n      shl\n      dup2\n      mstore\n      0x04\n      add\n      0x20\n      mload(0x40)\n      dup1\n      dup4\n      sub\n      dup2\n      dup7\n      gas\n      staticcall\n      swap3\n      pop\n      pop\n      pop\n      dup1\n      iszero\n      tag_449\n      jumpi\n      pop\n      0x40\n      dup1\n      mload\n      0x1f\n      returndatasize\n      swap1\n      dup2\n      add\n      not(0x1f)\n      and\n      dup3\n      add\n      swap1\n      swap3\n      mstore\n      tag_450\n      swap2\n      dup2\n      add\n      swap1\n      tag_451\n      jump\t// in\n    tag_450:\n      0x01\n    tag_449:\n        /* \"@openzeppelin/contracts-upgradeable/proxy/utils/UUPSUpgradeable.sol\":6147:6584  try IERC1822Proxiable(newImplementation).proxiableUUID() returns (bytes32 slot) {... */\n      tag_452\n      jumpi\n        /* \"@openzeppelin/contracts-upgradeable/proxy/utils/UUPSUpgradeable.sol\":6513:6573  ERC1967Utils.ERC1967InvalidImplementation(newImplementation) */\n      mload(0x40)\n      shl(0xe0, 0x4c9c8ce3)\n      dup2\n      mstore\n      sub(shl(0xa0, 0x01), 0x01)\n        /* \"#utility.yul\":17481:17513   */\n      dup4\n      and\n        /* \"@openzeppelin/contracts-upgradeable/proxy/utils/UUPSUpgradeable.sol\":6513:6573  ERC1967Utils.ERC1967InvalidImplementation(newImplementation) */\n      0x04\n      dup3\n      add\n        /* \"#utility.yul\":17463:17514   */\n      mstore\n        /* \"#utility.yul\":17436:17454   */\n      0x24\n      add\n        /* \"@openzeppelin/contracts-upgradeable/proxy/utils/UUPSUpgradeable.sol\":6513:6573  ERC1967Utils.ERC1967InvalidImplementation(newImplementation) */\n      tag_237\n        /* \"#utility.yul\":17317:17520   */\n      jump\n        /* \"@openzeppelin/contracts-upgradeable/proxy/utils/UUPSUpgradeable.sol\":6147:6584  try IERC1822Proxiable(newImplementation).proxiableUUID() returns (bytes32 slot) {... */\n    tag_452:\n      0x00\n      dup1\n      mload\n      0x20\n      data_75b20eef8615de99c108b05f0dbda081c91897128caa336d75dffb97c4132b4d\n      dup4\n      codecopy\n      dup2\n      mload\n      swap2\n      mstore\n        /* \"@openzeppelin/contracts-upgradeable/proxy/utils/UUPSUpgradeable.sol\":6245:6285  slot != ERC1967Utils.IMPLEMENTATION_SLOT */\n      dup2\n      eq\n        /* \"@openzeppelin/contracts-upgradeable/proxy/utils/UUPSUpgradeable.sol\":6241:6361  if (slot != ERC1967Utils.IMPLEMENTATION_SLOT) {... */\n      tag_458\n      jumpi\n        /* \"@openzeppelin/contracts-upgradeable/proxy/utils/UUPSUpgradeable.sol\":6312:6346  UUPSUnsupportedProxiableUUID(slot) */\n      mload(0x40)\n      shl(0xe2, 0x2a875269)\n      dup2\n      mstore\n      0x04\n      dup2\n      add\n        /* \"#utility.yul\":2206:2231   */\n      dup3\n      swap1\n      mstore\n        /* \"#utility.yul\":2179:2197   */\n      0x24\n      add\n        /* \"@openzeppelin/contracts-upgradeable/proxy/utils/UUPSUpgradeable.sol\":6312:6346  UUPSUnsupportedProxiableUUID(slot) */\n      tag_237\n        /* \"#utility.yul\":2060:2237   */\n      jump\n        /* \"@openzeppelin/contracts-upgradeable/proxy/utils/UUPSUpgradeable.sol\":6241:6361  if (slot != ERC1967Utils.IMPLEMENTATION_SLOT) {... */\n    tag_458:\n        /* \"@openzeppelin/contracts-upgradeable/proxy/utils/UUPSUpgradeable.sol\":6374:6428  ERC1967Utils.upgradeToAndCall(newImplementation, data) */\n      tag_228\n        /* \"@openzeppelin/contracts-upgradeable/proxy/utils/UUPSUpgradeable.sol\":6404:6421  newImplementation */\n      dup4\n        /* \"@openzeppelin/contracts-upgradeable/proxy/utils/UUPSUpgradeable.sol\":6423:6427  data */\n      dup4\n        /* \"@openzeppelin/contracts-upgradeable/proxy/utils/UUPSUpgradeable.sol\":6374:6403  ERC1967Utils.upgradeToAndCall */\n      tag_461\n        /* \"@openzeppelin/contracts-upgradeable/proxy/utils/UUPSUpgradeable.sol\":6374:6428  ERC1967Utils.upgradeToAndCall(newImplementation, data) */\n      jump\t// in\n        /* \"@openzeppelin/contracts-upgradeable/proxy/utils/UUPSUpgradeable.sol\":5028:5241  function _checkNotDelegated() internal view virtual {... */\n    tag_277:\n        /* \"@openzeppelin/contracts-upgradeable/proxy/utils/UUPSUpgradeable.sol\":5102:5106  this */\n      address\n      sub(shl(0xa0, 0x01), 0x01)\n        /* \"@openzeppelin/contracts-upgradeable/proxy/utils/UUPSUpgradeable.sol\":5111:5117  __self */\n      immutable(\"0x3b04ad91523c4dcf551e081621e633b9099d51bf9c5461e58c3bc7354a578b27\")\n        /* \"@openzeppelin/contracts-upgradeable/proxy/utils/UUPSUpgradeable.sol\":5094:5117  address(this) != __self */\n      and\n      eq\n        /* \"@openzeppelin/contracts-upgradeable/proxy/utils/UUPSUpgradeable.sol\":5090:5235  if (address(this) != __self) {... */\n      tag_444\n      jumpi\n        /* \"@openzeppelin/contracts-upgradeable/proxy/utils/UUPSUpgradeable.sol\":5195:5224  UUPSUnauthorizedCallContext() */\n      mload(0x40)\n      shl(0xe1, 0x703e46dd)\n      dup2\n      mstore\n      0x04\n      add\n      mload(0x40)\n      dup1\n      swap2\n      sub\n      swap1\n      revert\n        /* \"@openzeppelin/contracts-upgradeable/utils/PausableUpgradeable.sol\":3366:3542  function _pause() internal virtual whenNotPaused {... */\n    tag_338:\n        /* \"@openzeppelin/contracts-upgradeable/utils/PausableUpgradeable.sol\":2316:2335  _requireNotPaused() */\n      tag_466\n        /* \"@openzeppelin/contracts-upgradeable/utils/PausableUpgradeable.sol\":2316:2333  _requireNotPaused */\n      tag_467\n        /* \"@openzeppelin/contracts-upgradeable/utils/PausableUpgradeable.sol\":2316:2335  _requireNotPaused() */\n      jump\t// in\n    tag_466:\n      0x00\n      dup1\n      mload\n      0x20\n      data_c0c65a3718f3702d917c44106b91645b509d2e2d0979b70495c3babce192339f\n      dup4\n      codecopy\n      dup2\n      mload\n      swap2\n      mstore\n        /* \"@openzeppelin/contracts-upgradeable/utils/PausableUpgradeable.sol\":3484:3500  $._paused = true */\n      dup1\n      sload\n      not(0xff)\n      and\n        /* \"@openzeppelin/contracts-upgradeable/utils/PausableUpgradeable.sol\":3496:3500  true */\n      0x01\n        /* \"@openzeppelin/contracts-upgradeable/utils/PausableUpgradeable.sol\":3484:3500  $._paused = true */\n      or\n      dup2\n      sstore\n        /* \"@openzeppelin/contracts-upgradeable/utils/PausableUpgradeable.sol\":3515:3535  Paused(_msgSender()) */\n      0x62e78cea01bee320cd4e420270b5ea74000d11b0c9f74754ebdbfc544b05a258\n        /* \"@openzeppelin/contracts-upgradeable/utils/ContextUpgradeable.sol\":966:976  msg.sender */\n      caller\n        /* \"@openzeppelin/contracts-upgradeable/utils/PausableUpgradeable.sol\":3522:3534  _msgSender() */\n      tag_437\n        /* \"@openzeppelin/contracts-upgradeable/utils/ContextUpgradeable.sol\":887:983  function _msgSender() internal view virtual returns (address) {... */\n      jump\n        /* \"@openzeppelin/contracts-upgradeable/utils/PausableUpgradeable.sol\":1836:1933  function __Pausable_init() internal onlyInitializing {... */\n    tag_369:\n        /* \"@openzeppelin/contracts-upgradeable/proxy/utils/Initializable.sol\":6931:6951  _checkInitializing() */\n      tag_474\n        /* \"@openzeppelin/contracts-upgradeable/proxy/utils/Initializable.sol\":6931:6949  _checkInitializing */\n      tag_475\n        /* \"@openzeppelin/contracts-upgradeable/proxy/utils/Initializable.sol\":6931:6951  _checkInitializing() */\n      jump\t// in\n    tag_474:\n        /* \"@openzeppelin/contracts-upgradeable/utils/PausableUpgradeable.sol\":1899:1926  __Pausable_init_unchained() */\n      tag_444\n        /* \"@openzeppelin/contracts-upgradeable/utils/PausableUpgradeable.sol\":1899:1924  __Pausable_init_unchained */\n      tag_478\n        /* \"@openzeppelin/contracts-upgradeable/utils/PausableUpgradeable.sol\":1899:1926  __Pausable_init_unchained() */\n      jump\t// in\n        /* \"@openzeppelin/contracts-upgradeable/access/AccessControlUpgradeable.sol\":3231:3296  function __AccessControl_init() internal onlyInitializing {... */\n    tag_371:\n        /* \"@openzeppelin/contracts-upgradeable/proxy/utils/Initializable.sol\":6931:6951  _checkInitializing() */\n      tag_444\n        /* \"@openzeppelin/contracts-upgradeable/proxy/utils/Initializable.sol\":6931:6949  _checkInitializing */\n      tag_475\n        /* \"@openzeppelin/contracts-upgradeable/proxy/utils/Initializable.sol\":6931:6951  _checkInitializing() */\n      jump\t// in\n        /* \"@openzeppelin/contracts-upgradeable/access/AccessControlUpgradeable.sol\":4381:4578  function _checkRole(bytes32 role, address account) internal view virtual {... */\n    tag_418:\n        /* \"@openzeppelin/contracts-upgradeable/access/AccessControlUpgradeable.sol\":4469:4491  hasRole(role, account) */\n      tag_486\n        /* \"@openzeppelin/contracts-upgradeable/access/AccessControlUpgradeable.sol\":4477:4481  role */\n      dup3\n        /* \"@openzeppelin/contracts-upgradeable/access/AccessControlUpgradeable.sol\":4483:4490  account */\n      dup3\n        /* \"@openzeppelin/contracts-upgradeable/access/AccessControlUpgradeable.sol\":4469:4476  hasRole */\n      tag_117\n        /* \"@openzeppelin/contracts-upgradeable/access/AccessControlUpgradeable.sol\":4469:4491  hasRole(role, account) */\n      jump\t// in\n    tag_486:\n        /* \"@openzeppelin/contracts-upgradeable/access/AccessControlUpgradeable.sol\":4464:4572  if (!hasRole(role, account)) {... */\n      tag_190\n      jumpi\n        /* \"@openzeppelin/contracts-upgradeable/access/AccessControlUpgradeable.sol\":4514:4561  AccessControlUnauthorizedAccount(account, role) */\n      mload(0x40)\n      shl(0xe0, 0xe2517d3f)\n      dup2\n      mstore\n      sub(shl(0xa0, 0x01), 0x01)\n        /* \"#utility.yul\":17906:17938   */\n      dup3\n      and\n        /* \"@openzeppelin/contracts-upgradeable/access/AccessControlUpgradeable.sol\":4514:4561  AccessControlUnauthorizedAccount(account, role) */\n      0x04\n      dup3\n      add\n        /* \"#utility.yul\":17888:17939   */\n      mstore\n        /* \"#utility.yul\":17955:17973   */\n      0x24\n      dup2\n      add\n        /* \"#utility.yul\":17948:17982   */\n      dup4\n      swap1\n      mstore\n        /* \"#utility.yul\":17861:17879   */\n      0x44\n      add\n        /* \"@openzeppelin/contracts-upgradeable/access/AccessControlUpgradeable.sol\":4514:4561  AccessControlUnauthorizedAccount(account, role) */\n      tag_237\n        /* \"#utility.yul\":17714:17988   */\n      jump\n        /* \"@openzeppelin/contracts-upgradeable/utils/PausableUpgradeable.sol\":3105:3231  function _requirePaused() internal view virtual {... */\n    tag_434:\n      0x00\n      dup1\n      mload\n      0x20\n      data_c0c65a3718f3702d917c44106b91645b509d2e2d0979b70495c3babce192339f\n      dup4\n      codecopy\n      dup2\n      mload\n      swap2\n      mstore\n        /* \"@openzeppelin/contracts-upgradeable/utils/PausableUpgradeable.sol\":2821:2830  $._paused */\n      sload\n      0xff\n      and\n        /* \"@openzeppelin/contracts-upgradeable/utils/PausableUpgradeable.sol\":3163:3225  if (!paused()) {... */\n      tag_444\n      jumpi\n        /* \"@openzeppelin/contracts-upgradeable/utils/PausableUpgradeable.sol\":3199:3214  ExpectedPause() */\n      mload(0x40)\n      shl(0xe0, 0x8dfc202b)\n      dup2\n      mstore\n      0x04\n      add\n      mload(0x40)\n      dup1\n      swap2\n      sub\n      swap1\n      revert\n        /* \"@openzeppelin/contracts/proxy/ERC1967/ERC1967Utils.sol\":2779:3114  function upgradeToAndCall(address newImplementation, bytes memory data) internal {... */\n    tag_461:\n        /* \"@openzeppelin/contracts/proxy/ERC1967/ERC1967Utils.sol\":2870:2907  _setImplementation(newImplementation) */\n      tag_497\n        /* \"@openzeppelin/contracts/proxy/ERC1967/ERC1967Utils.sol\":2889:2906  newImplementation */\n      dup3\n        /* \"@openzeppelin/contracts/proxy/ERC1967/ERC1967Utils.sol\":2870:2888  _setImplementation */\n      tag_498\n        /* \"@openzeppelin/contracts/proxy/ERC1967/ERC1967Utils.sol\":2870:2907  _setImplementation(newImplementation) */\n      jump\t// in\n    tag_497:\n        /* \"@openzeppelin/contracts/proxy/ERC1967/ERC1967Utils.sol\":2922:2949  Upgraded(newImplementation) */\n      mload(0x40)\n      sub(shl(0xa0, 0x01), 0x01)\n      dup4\n      and\n      swap1\n      0xbc7cd75a20ee27fd9adebab32041f755214dbc6bffa90cc0225b39da2e5c2d3b\n      swap1\n      0x00\n      swap1\n      log2\n        /* \"@openzeppelin/contracts/proxy/ERC1967/ERC1967Utils.sol\":2964:2975  data.length */\n      dup1\n      mload\n        /* \"@openzeppelin/contracts/proxy/ERC1967/ERC1967Utils.sol\":2964:2979  data.length > 0 */\n      iszero\n        /* \"@openzeppelin/contracts/proxy/ERC1967/ERC1967Utils.sol\":2960:3108  if (data.length > 0) {... */\n      tag_499\n      jumpi\n        /* \"@openzeppelin/contracts/proxy/ERC1967/ERC1967Utils.sol\":2995:3048  Address.functionDelegateCall(newImplementation, data) */\n      tag_228\n        /* \"@openzeppelin/contracts/proxy/ERC1967/ERC1967Utils.sol\":3024:3041  newImplementation */\n      dup3\n        /* \"@openzeppelin/contracts/proxy/ERC1967/ERC1967Utils.sol\":3043:3047  data */\n      dup3\n        /* \"@openzeppelin/contracts/proxy/ERC1967/ERC1967Utils.sol\":2995:3023  Address.functionDelegateCall */\n      tag_501\n        /* \"@openzeppelin/contracts/proxy/ERC1967/ERC1967Utils.sol\":2995:3048  Address.functionDelegateCall(newImplementation, data) */\n      jump\t// in\n        /* \"@openzeppelin/contracts/proxy/ERC1967/ERC1967Utils.sol\":2960:3108  if (data.length > 0) {... */\n    tag_499:\n        /* \"@openzeppelin/contracts/proxy/ERC1967/ERC1967Utils.sol\":3079:3097  _checkNonPayable() */\n      tag_190\n        /* \"@openzeppelin/contracts/proxy/ERC1967/ERC1967Utils.sol\":3079:3095  _checkNonPayable */\n      tag_504\n        /* \"@openzeppelin/contracts/proxy/ERC1967/ERC1967Utils.sol\":3079:3097  _checkNonPayable() */\n      jump\t// in\n        /* \"@openzeppelin/contracts-upgradeable/utils/PausableUpgradeable.sol\":2905:3033  function _requireNotPaused() internal view virtual {... */\n    tag_467:\n      0x00\n      dup1\n      mload\n      0x20\n      data_c0c65a3718f3702d917c44106b91645b509d2e2d0979b70495c3babce192339f\n      dup4\n      codecopy\n      dup2\n      mload\n      swap2\n      mstore\n        /* \"@openzeppelin/contracts-upgradeable/utils/PausableUpgradeable.sol\":2821:2830  $._paused */\n      sload\n      0xff\n      and\n        /* \"@openzeppelin/contracts-upgradeable/utils/PausableUpgradeable.sol\":2966:3027  if (paused()) {... */\n      iszero\n      tag_444\n      jumpi\n        /* \"@openzeppelin/contracts-upgradeable/utils/PausableUpgradeable.sol\":3001:3016  EnforcedPause() */\n      mload(0x40)\n      shl(0xe0, 0xd93c0665)\n      dup2\n      mstore\n      0x04\n      add\n      mload(0x40)\n      dup1\n      swap2\n      sub\n      swap1\n      revert\n        /* \"@openzeppelin/contracts-upgradeable/proxy/utils/Initializable.sol\":7084:7225  function _checkInitializing() internal view virtual {... */\n    tag_475:\n        /* \"@openzeppelin/contracts-upgradeable/proxy/utils/Initializable.sol\":8870:8891  INITIALIZABLE_STORAGE */\n      0xf0c57e16840df040f15088dc2f81fe391c3923bec73e23a9662efc9c229c6a00\n        /* \"@openzeppelin/contracts-upgradeable/proxy/utils/Initializable.sol\":8560:8600  _getInitializableStorage()._initializing */\n      sload\n      shl(0x40, 0x01)\n      swap1\n      div\n      0xff\n      and\n        /* \"@openzeppelin/contracts-upgradeable/proxy/utils/Initializable.sol\":7146:7219  if (!_isInitializing()) {... */\n      tag_444\n      jumpi\n        /* \"@openzeppelin/contracts-upgradeable/proxy/utils/Initializable.sol\":7191:7208  NotInitializing() */\n      mload(0x40)\n      shl(0xe3, 0x1afcd79f)\n      dup2\n      mstore\n      0x04\n      add\n      mload(0x40)\n      dup1\n      swap2\n      sub\n      swap1\n      revert\n        /* \"@openzeppelin/contracts-upgradeable/utils/PausableUpgradeable.sol\":1939:2095  function __Pausable_init_unchained() internal onlyInitializing {... */\n    tag_478:\n        /* \"@openzeppelin/contracts-upgradeable/proxy/utils/Initializable.sol\":6931:6951  _checkInitializing() */\n      tag_513\n        /* \"@openzeppelin/contracts-upgradeable/proxy/utils/Initializable.sol\":6931:6949  _checkInitializing */\n      tag_475\n        /* \"@openzeppelin/contracts-upgradeable/proxy/utils/Initializable.sol\":6931:6951  _checkInitializing() */\n      jump\t// in\n    tag_513:\n      0x00\n      dup1\n      mload\n      0x20\n      data_c0c65a3718f3702d917c44106b91645b509d2e2d0979b70495c3babce192339f\n      dup4\n      codecopy\n      dup2\n      mload\n      swap2\n      mstore\n        /* \"@openzeppelin/contracts-upgradeable/utils/PausableUpgradeable.sol\":2071:2088  $._paused = false */\n      dup1\n      sload\n      not(0xff)\n      and\n      swap1\n      sstore\n        /* \"@openzeppelin/contracts-upgradeable/utils/PausableUpgradeable.sol\":1939:2095  function __Pausable_init_unchained() internal onlyInitializing {... */\n      jump\t// out\n        /* \"@openzeppelin/contracts/proxy/ERC1967/ERC1967Utils.sol\":2186:2467  function _setImplementation(address newImplementation) private {... */\n    tag_498:\n        /* \"@openzeppelin/contracts/proxy/ERC1967/ERC1967Utils.sol\":2263:2280  newImplementation */\n      dup1\n      sub(shl(0xa0, 0x01), 0x01)\n        /* \"@openzeppelin/contracts/proxy/ERC1967/ERC1967Utils.sol\":2263:2292  newImplementation.code.length */\n      and\n      extcodesize\n        /* \"@openzeppelin/contracts/proxy/ERC1967/ERC1967Utils.sol\":2296:2297  0 */\n      0x00\n        /* \"@openzeppelin/contracts/proxy/ERC1967/ERC1967Utils.sol\":2263:2297  newImplementation.code.length == 0 */\n      sub\n        /* \"@openzeppelin/contracts/proxy/ERC1967/ERC1967Utils.sol\":2259:2378  if (newImplementation.code.length == 0) {... */\n      tag_518\n      jumpi\n        /* \"@openzeppelin/contracts/proxy/ERC1967/ERC1967Utils.sol\":2320:2367  ERC1967InvalidImplementation(newImplementation) */\n      mload(0x40)\n      shl(0xe0, 0x4c9c8ce3)\n      dup2\n      mstore\n      sub(shl(0xa0, 0x01), 0x01)\n        /* \"#utility.yul\":17481:17513   */\n      dup3\n      and\n        /* \"@openzeppelin/contracts/proxy/ERC1967/ERC1967Utils.sol\":2320:2367  ERC1967InvalidImplementation(newImplementation) */\n      0x04\n      dup3\n      add\n        /* \"#utility.yul\":17463:17514   */\n      mstore\n        /* \"#utility.yul\":17436:17454   */\n      0x24\n      add\n        /* \"@openzeppelin/contracts/proxy/ERC1967/ERC1967Utils.sol\":2320:2367  ERC1967InvalidImplementation(newImplementation) */\n      tag_237\n        /* \"#utility.yul\":17317:17520   */\n      jump\n        /* \"@openzeppelin/contracts/proxy/ERC1967/ERC1967Utils.sol\":2259:2378  if (newImplementation.code.length == 0) {... */\n    tag_518:\n      0x00\n      dup1\n      mload\n      0x20\n      data_75b20eef8615de99c108b05f0dbda081c91897128caa336d75dffb97c4132b4d\n      dup4\n      codecopy\n      dup2\n      mload\n      swap2\n      mstore\n        /* \"@openzeppelin/contracts/proxy/ERC1967/ERC1967Utils.sol\":2387:2460  StorageSlot.getAddressSlot(IMPLEMENTATION_SLOT).value = newImplementation */\n      dup1\n      sload\n      not(sub(shl(0xa0, 0x01), 0x01))\n      and\n      sub(shl(0xa0, 0x01), 0x01)\n      swap3\n      swap1\n      swap3\n      and\n      swap2\n      swap1\n      swap2\n      or\n      swap1\n      sstore\n        /* \"@openzeppelin/contracts/proxy/ERC1967/ERC1967Utils.sol\":2186:2467  function _setImplementation(address newImplementation) private {... */\n      jump\t// out\n        /* \"@openzeppelin/contracts/utils/Address.sol\":4106:4359  function functionDelegateCall(address target, bytes memory data) internal returns (bytes memory) {... */\n    tag_501:\n        /* \"@openzeppelin/contracts/utils/Address.sol\":4189:4201  bytes memory */\n      0x60\n        /* \"@openzeppelin/contracts/utils/Address.sol\":4214:4226  bool success */\n      0x00\n        /* \"@openzeppelin/contracts/utils/Address.sol\":4228:4251  bytes memory returndata */\n      dup1\n        /* \"@openzeppelin/contracts/utils/Address.sol\":4255:4261  target */\n      dup5\n      sub(shl(0xa0, 0x01), 0x01)\n        /* \"@openzeppelin/contracts/utils/Address.sol\":4255:4274  target.delegatecall */\n      and\n        /* \"@openzeppelin/contracts/utils/Address.sol\":4275:4279  data */\n      dup5\n        /* \"@openzeppelin/contracts/utils/Address.sol\":4255:4280  target.delegatecall(data) */\n      mload(0x40)\n      tag_522\n      swap2\n      swap1\n      tag_197\n      jump\t// in\n    tag_522:\n      0x00\n      mload(0x40)\n      dup1\n      dup4\n      sub\n      dup2\n      dup6\n      gas\n      delegatecall\n      swap2\n      pop\n      pop\n      returndatasize\n      dup1\n      0x00\n      dup2\n      eq\n      tag_526\n      jumpi\n      mload(0x40)\n      swap2\n      pop\n      and(add(returndatasize, 0x3f), not(0x1f))\n      dup3\n      add\n      0x40\n      mstore\n      returndatasize\n      dup3\n      mstore\n      returndatasize\n      0x00\n      0x20\n      dup5\n      add\n      returndatacopy\n      jump(tag_525)\n    tag_526:\n      0x60\n      swap2\n      pop\n    tag_525:\n      pop\n        /* \"@openzeppelin/contracts/utils/Address.sol\":4213:4280  (bool success, bytes memory returndata) = target.delegatecall(data) */\n      swap2\n      pop\n      swap2\n      pop\n        /* \"@openzeppelin/contracts/utils/Address.sol\":4297:4352  verifyCallResultFromTarget(target, success, returndata) */\n      tag_527\n        /* \"@openzeppelin/contracts/utils/Address.sol\":4324:4330  target */\n      dup6\n        /* \"@openzeppelin/contracts/utils/Address.sol\":4332:4339  success */\n      dup4\n        /* \"@openzeppelin/contracts/utils/Address.sol\":4341:4351  returndata */\n      dup4\n        /* \"@openzeppelin/contracts/utils/Address.sol\":4297:4323  verifyCallResultFromTarget */\n      tag_528\n        /* \"@openzeppelin/contracts/utils/Address.sol\":4297:4352  verifyCallResultFromTarget(target, success, returndata) */\n      jump\t// in\n    tag_527:\n        /* \"@openzeppelin/contracts/utils/Address.sol\":4290:4352  return verifyCallResultFromTarget(target, success, returndata) */\n      swap6\n        /* \"@openzeppelin/contracts/utils/Address.sol\":4106:4359  function functionDelegateCall(address target, bytes memory data) internal returns (bytes memory) {... */\n      swap5\n      pop\n      pop\n      pop\n      pop\n      pop\n      jump\t// out\n        /* \"@openzeppelin/contracts/proxy/ERC1967/ERC1967Utils.sol\":6598:6720  function _checkNonPayable() private {... */\n    tag_504:\n        /* \"@openzeppelin/contracts/proxy/ERC1967/ERC1967Utils.sol\":6648:6657  msg.value */\n      callvalue\n        /* \"@openzeppelin/contracts/proxy/ERC1967/ERC1967Utils.sol\":6648:6661  msg.value > 0 */\n      iszero\n        /* \"@openzeppelin/contracts/proxy/ERC1967/ERC1967Utils.sol\":6644:6714  if (msg.value > 0) {... */\n      tag_444\n      jumpi\n        /* \"@openzeppelin/contracts/proxy/ERC1967/ERC1967Utils.sol\":6684:6703  ERC1967NonPayable() */\n      mload(0x40)\n      shl(0xe0, 0xb398979f)\n      dup2\n      mstore\n      0x04\n      add\n      mload(0x40)\n      dup1\n      swap2\n      sub\n      swap1\n      revert\n        /* \"@openzeppelin/contracts/utils/Address.sol\":4625:5207  function verifyCallResultFromTarget(... */\n    tag_528:\n        /* \"@openzeppelin/contracts/utils/Address.sol\":4769:4781  bytes memory */\n      0x60\n        /* \"@openzeppelin/contracts/utils/Address.sol\":4798:4805  success */\n      dup3\n        /* \"@openzeppelin/contracts/utils/Address.sol\":4793:5201  if (!success) {... */\n      tag_534\n      jumpi\n        /* \"@openzeppelin/contracts/utils/Address.sol\":4821:4840  _revert(returndata) */\n      tag_535\n        /* \"@openzeppelin/contracts/utils/Address.sol\":4829:4839  returndata */\n      dup3\n        /* \"@openzeppelin/contracts/utils/Address.sol\":4821:4828  _revert */\n      tag_536\n        /* \"@openzeppelin/contracts/utils/Address.sol\":4821:4840  _revert(returndata) */\n      jump\t// in\n    tag_535:\n        /* \"@openzeppelin/contracts/utils/Address.sol\":4793:5201  if (!success) {... */\n      jump(tag_537)\n    tag_534:\n        /* \"@openzeppelin/contracts/utils/Address.sol\":5045:5062  returndata.length */\n      dup2\n      mload\n        /* \"@openzeppelin/contracts/utils/Address.sol\":5045:5067  returndata.length == 0 */\n      iszero\n        /* \"@openzeppelin/contracts/utils/Address.sol\":5045:5094  returndata.length == 0 && target.code.length == 0 */\n      dup1\n      iszero\n      tag_538\n      jumpi\n      pop\n      sub(shl(0xa0, 0x01), 0x01)\n        /* \"@openzeppelin/contracts/utils/Address.sol\":5071:5089  target.code.length */\n      dup5\n      and\n      extcodesize\n        /* \"@openzeppelin/contracts/utils/Address.sol\":5071:5094  target.code.length == 0 */\n      iszero\n        /* \"@openzeppelin/contracts/utils/Address.sol\":5045:5094  returndata.length == 0 && target.code.length == 0 */\n    tag_538:\n        /* \"@openzeppelin/contracts/utils/Address.sol\":5041:5160  if (returndata.length == 0 && target.code.length == 0) {... */\n      iszero\n      tag_539\n      jumpi\n        /* \"@openzeppelin/contracts/utils/Address.sol\":5121:5145  AddressEmptyCode(target) */\n      mload(0x40)\n      shl(0xe0, 0x9996b315)\n      dup2\n      mstore\n      sub(shl(0xa0, 0x01), 0x01)\n        /* \"#utility.yul\":17481:17513   */\n      dup6\n      and\n        /* \"@openzeppelin/contracts/utils/Address.sol\":5121:5145  AddressEmptyCode(target) */\n      0x04\n      dup3\n      add\n        /* \"#utility.yul\":17463:17514   */\n      mstore\n        /* \"#utility.yul\":17436:17454   */\n      0x24\n      add\n        /* \"@openzeppelin/contracts/utils/Address.sol\":5121:5145  AddressEmptyCode(target) */\n      tag_237\n        /* \"#utility.yul\":17317:17520   */\n      jump\n        /* \"@openzeppelin/contracts/utils/Address.sol\":5041:5160  if (returndata.length == 0 && target.code.length == 0) {... */\n    tag_539:\n      pop\n        /* \"@openzeppelin/contracts/utils/Address.sol\":5180:5190  returndata */\n      dup1\n        /* \"@openzeppelin/contracts/utils/Address.sol\":4793:5201  if (!success) {... */\n    tag_537:\n        /* \"@openzeppelin/contracts/utils/Address.sol\":4625:5207  function verifyCallResultFromTarget(... */\n      swap4\n      swap3\n      pop\n      pop\n      pop\n      jump\t// out\n        /* \"@openzeppelin/contracts/utils/Address.sol\":5743:6259  function _revert(bytes memory returndata) private pure {... */\n    tag_536:\n        /* \"@openzeppelin/contracts/utils/Address.sol\":5874:5891  returndata.length */\n      dup1\n      mload\n        /* \"@openzeppelin/contracts/utils/Address.sol\":5874:5895  returndata.length > 0 */\n      iszero\n        /* \"@openzeppelin/contracts/utils/Address.sol\":5870:6253  if (returndata.length > 0) {... */\n      tag_542\n      jumpi\n        /* \"@openzeppelin/contracts/utils/Address.sol\":6102:6112  returndata */\n      dup1\n        /* \"@openzeppelin/contracts/utils/Address.sol\":6096:6113  mload(returndata) */\n      mload\n        /* \"@openzeppelin/contracts/utils/Address.sol\":6158:6173  returndata_size */\n      dup1\n        /* \"@openzeppelin/contracts/utils/Address.sol\":6145:6155  returndata */\n      dup3\n        /* \"@openzeppelin/contracts/utils/Address.sol\":6141:6143  32 */\n      0x20\n        /* \"@openzeppelin/contracts/utils/Address.sol\":6137:6156  add(32, returndata) */\n      add\n        /* \"@openzeppelin/contracts/utils/Address.sol\":6130:6174  revert(add(32, returndata), returndata_size) */\n      revert\n        /* \"@openzeppelin/contracts/utils/Address.sol\":5870:6253  if (returndata.length > 0) {... */\n    tag_542:\n        /* \"@openzeppelin/contracts/utils/Address.sol\":6225:6242  FailedInnerCall() */\n      mload(0x40)\n      shl(0xe1, 0x0a12f521)\n      dup2\n      mstore\n      0x04\n      add\n      mload(0x40)\n      dup1\n      swap2\n      sub\n      swap1\n      revert\n    tag_247:\n      dup3\n      dup1\n      sload\n      dup3\n      dup3\n      sstore\n      swap1\n      0x00\n      mstore\n      keccak256(0x00, 0x20)\n      swap1\n      dup2\n      add\n      swap3\n      dup3\n      iszero\n      tag_546\n      jumpi\n      swap2\n      0x20\n      mul\n      dup3\n      add\n    tag_545:\n      dup3\n      dup2\n      gt\n      iszero\n      tag_546\n      jumpi\n      dup3\n      mload\n      dup3\n      sstore\n      swap2\n      0x20\n      add\n      swap2\n      swap1\n      0x01\n      add\n      swap1\n      jump(tag_545)\n    tag_546:\n      pop\n      tag_547\n      swap3\n      swap2\n      pop\n      tag_548\n      jump\t// in\n    tag_547:\n      pop\n      swap1\n      jump\t// out\n    tag_269:\n      dup3\n      dup1\n      sload\n      dup3\n      dup3\n      sstore\n      swap1\n      0x00\n      mstore\n      keccak256(0x00, 0x20)\n      swap1\n      dup2\n      add\n      swap3\n      dup3\n      iszero\n      tag_546\n      jumpi\n      swap2\n      0x20\n      mul\n      dup3\n      add\n    tag_550:\n      dup3\n      dup2\n      gt\n      iszero\n      tag_546\n      jumpi\n      dup3\n      mload\n      dup3\n      sload\n      not(sub(shl(0xa0, 0x01), 0x01))\n      and\n      sub(shl(0xa0, 0x01), 0x01)\n      swap1\n      swap2\n      and\n      or\n      dup3\n      sstore\n      0x20\n      swap1\n      swap3\n      add\n      swap2\n      0x01\n      swap1\n      swap2\n      add\n      swap1\n      jump(tag_550)\n    tag_548:\n    tag_553:\n      dup1\n      dup3\n      gt\n      iszero\n      tag_547\n      jumpi\n      0x00\n      dup2\n      sstore\n      0x01\n      add\n      jump(tag_553)\n        /* \"#utility.yul\":14:300   */\n    tag_42:\n        /* \"#utility.yul\":72:78   */\n      0x00\n        /* \"#utility.yul\":125:127   */\n      0x20\n        /* \"#utility.yul\":113:122   */\n      dup3\n        /* \"#utility.yul\":104:111   */\n      dup5\n        /* \"#utility.yul\":100:123   */\n      sub\n        /* \"#utility.yul\":96:128   */\n      slt\n        /* \"#utility.yul\":93:145   */\n      iszero\n      tag_567\n      jumpi\n        /* \"#utility.yul\":141:142   */\n      0x00\n        /* \"#utility.yul\":138:139   */\n      dup1\n        /* \"#utility.yul\":131:143   */\n      revert\n        /* \"#utility.yul\":93:145   */\n    tag_567:\n        /* \"#utility.yul\":167:190   */\n      dup2\n      calldataload\n      not(sub(shl(0xe0, 0x01), 0x01))\n        /* \"#utility.yul\":219:251   */\n      dup2\n      and\n        /* \"#utility.yul\":209:252   */\n      dup2\n      eq\n        /* \"#utility.yul\":199:270   */\n      tag_537\n      jumpi\n        /* \"#utility.yul\":266:267   */\n      0x00\n        /* \"#utility.yul\":263:264   */\n      dup1\n        /* \"#utility.yul\":256:268   */\n      revert\n        /* \"#utility.yul\":497:624   */\n    tag_241:\n        /* \"#utility.yul\":558:568   */\n      0x4e487b71\n        /* \"#utility.yul\":553:556   */\n      0xe0\n        /* \"#utility.yul\":549:569   */\n      shl\n        /* \"#utility.yul\":546:547   */\n      0x00\n        /* \"#utility.yul\":539:570   */\n      mstore\n        /* \"#utility.yul\":589:593   */\n      0x41\n        /* \"#utility.yul\":586:587   */\n      0x04\n        /* \"#utility.yul\":579:594   */\n      mstore\n        /* \"#utility.yul\":613:617   */\n      0x24\n        /* \"#utility.yul\":610:611   */\n      0x00\n        /* \"#utility.yul\":603:618   */\n      revert\n        /* \"#utility.yul\":629:904   */\n    tag_555:\n        /* \"#utility.yul\":700:702   */\n      0x40\n        /* \"#utility.yul\":694:703   */\n      mload\n        /* \"#utility.yul\":765:767   */\n      0x1f\n        /* \"#utility.yul\":746:759   */\n      dup3\n      add\n      not(0x1f)\n        /* \"#utility.yul\":742:769   */\n      and\n        /* \"#utility.yul\":730:770   */\n      dup2\n      add\n        /* \"#utility.yul\":800:818   */\n      0xffffffffffffffff\n        /* \"#utility.yul\":785:819   */\n      dup2\n      gt\n        /* \"#utility.yul\":821:843   */\n      dup3\n      dup3\n      lt\n        /* \"#utility.yul\":782:844   */\n      or\n        /* \"#utility.yul\":779:867   */\n      iszero\n      tag_573\n      jumpi\n        /* \"#utility.yul\":847:865   */\n      tag_573\n      tag_241\n      jump\t// in\n    tag_573:\n        /* \"#utility.yul\":883:885   */\n      0x40\n        /* \"#utility.yul\":876:898   */\n      mstore\n        /* \"#utility.yul\":629:904   */\n      swap2\n      swap1\n      pop\n      jump\t// out\n        /* \"#utility.yul\":909:1316   */\n    tag_556:\n        /* \"#utility.yul\":974:979   */\n      0x00\n        /* \"#utility.yul\":1008:1026   */\n      0xffffffffffffffff\n        /* \"#utility.yul\":1000:1006   */\n      dup4\n        /* \"#utility.yul\":997:1027   */\n      gt\n        /* \"#utility.yul\":994:1050   */\n      iszero\n      tag_576\n      jumpi\n        /* \"#utility.yul\":1030:1048   */\n      tag_576\n      tag_241\n      jump\t// in\n    tag_576:\n        /* \"#utility.yul\":1068:1125   */\n      tag_577\n        /* \"#utility.yul\":1113:1115   */\n      0x1f\n        /* \"#utility.yul\":1092:1107   */\n      dup5\n      add\n      not(0x1f)\n        /* \"#utility.yul\":1088:1117   */\n      and\n        /* \"#utility.yul\":1119:1123   */\n      0x20\n        /* \"#utility.yul\":1084:1124   */\n      add\n        /* \"#utility.yul\":1068:1125   */\n      tag_555\n      jump\t// in\n    tag_577:\n        /* \"#utility.yul\":1059:1125   */\n      swap1\n      pop\n        /* \"#utility.yul\":1148:1154   */\n      dup3\n        /* \"#utility.yul\":1141:1146   */\n      dup2\n        /* \"#utility.yul\":1134:1155   */\n      mstore\n        /* \"#utility.yul\":1188:1191   */\n      dup4\n        /* \"#utility.yul\":1179:1185   */\n      dup4\n        /* \"#utility.yul\":1174:1177   */\n      dup4\n        /* \"#utility.yul\":1170:1186   */\n      add\n        /* \"#utility.yul\":1167:1192   */\n      gt\n        /* \"#utility.yul\":1164:1209   */\n      iszero\n      tag_578\n      jumpi\n        /* \"#utility.yul\":1205:1206   */\n      0x00\n        /* \"#utility.yul\":1202:1203   */\n      dup1\n        /* \"#utility.yul\":1195:1207   */\n      revert\n        /* \"#utility.yul\":1164:1209   */\n    tag_578:\n        /* \"#utility.yul\":1254:1260   */\n      dup3\n        /* \"#utility.yul\":1249:1252   */\n      dup3\n        /* \"#utility.yul\":1242:1246   */\n      0x20\n        /* \"#utility.yul\":1235:1240   */\n      dup4\n        /* \"#utility.yul\":1231:1247   */\n      add\n        /* \"#utility.yul\":1218:1261   */\n      calldatacopy\n        /* \"#utility.yul\":1308:1309   */\n      0x00\n        /* \"#utility.yul\":1301:1305   */\n      0x20\n        /* \"#utility.yul\":1292:1298   */\n      dup5\n        /* \"#utility.yul\":1285:1290   */\n      dup4\n        /* \"#utility.yul\":1281:1299   */\n      add\n        /* \"#utility.yul\":1277:1306   */\n      add\n        /* \"#utility.yul\":1270:1310   */\n      mstore\n        /* \"#utility.yul\":909:1316   */\n      swap4\n      swap3\n      pop\n      pop\n      pop\n      jump\t// out\n        /* \"#utility.yul\":1321:1543   */\n    tag_557:\n        /* \"#utility.yul\":1364:1369   */\n      0x00\n        /* \"#utility.yul\":1417:1420   */\n      dup3\n        /* \"#utility.yul\":1410:1414   */\n      0x1f\n        /* \"#utility.yul\":1402:1408   */\n      dup4\n        /* \"#utility.yul\":1398:1415   */\n      add\n        /* \"#utility.yul\":1394:1421   */\n      slt\n        /* \"#utility.yul\":1384:1439   */\n      tag_580\n      jumpi\n        /* \"#utility.yul\":1435:1436   */\n      0x00\n        /* \"#utility.yul\":1432:1433   */\n      dup1\n        /* \"#utility.yul\":1425:1437   */\n      revert\n        /* \"#utility.yul\":1384:1439   */\n    tag_580:\n        /* \"#utility.yul\":1457:1537   */\n      tag_537\n        /* \"#utility.yul\":1533:1536   */\n      dup4\n        /* \"#utility.yul\":1524:1530   */\n      dup4\n        /* \"#utility.yul\":1511:1531   */\n      calldataload\n        /* \"#utility.yul\":1504:1508   */\n      0x20\n        /* \"#utility.yul\":1496:1502   */\n      dup6\n        /* \"#utility.yul\":1492:1509   */\n      add\n        /* \"#utility.yul\":1457:1537   */\n      tag_556\n      jump\t// in\n        /* \"#utility.yul\":1548:1870   */\n    tag_49:\n        /* \"#utility.yul\":1617:1623   */\n      0x00\n        /* \"#utility.yul\":1670:1672   */\n      0x20\n        /* \"#utility.yul\":1658:1667   */\n      dup3\n        /* \"#utility.yul\":1649:1656   */\n      dup5\n        /* \"#utility.yul\":1645:1668   */\n      sub\n        /* \"#utility.yul\":1641:1673   */\n      slt\n        /* \"#utility.yul\":1638:1690   */\n      iszero\n      tag_583\n      jumpi\n        /* \"#utility.yul\":1686:1687   */\n      0x00\n        /* \"#utility.yul\":1683:1684   */\n      dup1\n        /* \"#utility.yul\":1676:1688   */\n      revert\n        /* \"#utility.yul\":1638:1690   */\n    tag_583:\n        /* \"#utility.yul\":1726:1735   */\n      dup2\n        /* \"#utility.yul\":1713:1736   */\n      calldataload\n        /* \"#utility.yul\":1759:1777   */\n      0xffffffffffffffff\n        /* \"#utility.yul\":1751:1757   */\n      dup2\n        /* \"#utility.yul\":1748:1778   */\n      gt\n        /* \"#utility.yul\":1745:1795   */\n      iszero\n      tag_584\n      jumpi\n        /* \"#utility.yul\":1791:1792   */\n      0x00\n        /* \"#utility.yul\":1788:1789   */\n      dup1\n        /* \"#utility.yul\":1781:1793   */\n      revert\n        /* \"#utility.yul\":1745:1795   */\n    tag_584:\n        /* \"#utility.yul\":1814:1864   */\n      tag_585\n        /* \"#utility.yul\":1856:1863   */\n      dup5\n        /* \"#utility.yul\":1847:1853   */\n      dup3\n        /* \"#utility.yul\":1836:1845   */\n      dup6\n        /* \"#utility.yul\":1832:1854   */\n      add\n        /* \"#utility.yul\":1814:1864   */\n      tag_557\n      jump\t// in\n    tag_585:\n        /* \"#utility.yul\":1804:1864   */\n      swap5\n        /* \"#utility.yul\":1548:1870   */\n      swap4\n      pop\n      pop\n      pop\n      pop\n      jump\t// out\n        /* \"#utility.yul\":1875:2055   */\n    tag_54:\n        /* \"#utility.yul\":1934:1940   */\n      0x00\n        /* \"#utility.yul\":1987:1989   */\n      0x20\n        /* \"#utility.yul\":1975:1984   */\n      dup3\n        /* \"#utility.yul\":1966:1973   */\n      dup5\n        /* \"#utility.yul\":1962:1985   */\n      sub\n        /* \"#utility.yul\":1958:1990   */\n      slt\n        /* \"#utility.yul\":1955:2007   */\n      iszero\n      tag_587\n      jumpi\n        /* \"#utility.yul\":2003:2004   */\n      0x00\n        /* \"#utility.yul\":2000:2001   */\n      dup1\n        /* \"#utility.yul\":1993:2005   */\n      revert\n        /* \"#utility.yul\":1955:2007   */\n    tag_587:\n      pop\n        /* \"#utility.yul\":2026:2049   */\n      calldataload\n      swap2\n        /* \"#utility.yul\":1875:2055   */\n      swap1\n      pop\n      jump\t// out\n        /* \"#utility.yul\":2242:2415   */\n    tag_558:\n        /* \"#utility.yul\":2310:2330   */\n      dup1\n      calldataload\n      sub(shl(0xa0, 0x01), 0x01)\n        /* \"#utility.yul\":2359:2390   */\n      dup2\n      and\n        /* \"#utility.yul\":2349:2391   */\n      dup2\n      eq\n        /* \"#utility.yul\":2339:2409   */\n      tag_590\n      jumpi\n        /* \"#utility.yul\":2405:2406   */\n      0x00\n        /* \"#utility.yul\":2402:2403   */\n      dup1\n        /* \"#utility.yul\":2395:2407   */\n      revert\n        /* \"#utility.yul\":2339:2409   */\n    tag_590:\n        /* \"#utility.yul\":2242:2415   */\n      swap2\n      swap1\n      pop\n      jump\t// out\n        /* \"#utility.yul\":2420:2674   */\n    tag_61:\n        /* \"#utility.yul\":2488:2494   */\n      0x00\n        /* \"#utility.yul\":2496:2502   */\n      dup1\n        /* \"#utility.yul\":2549:2551   */\n      0x40\n        /* \"#utility.yul\":2537:2546   */\n      dup4\n        /* \"#utility.yul\":2528:2535   */\n      dup6\n        /* \"#utility.yul\":2524:2547   */\n      sub\n        /* \"#utility.yul\":2520:2552   */\n      slt\n        /* \"#utility.yul\":2517:2569   */\n      iszero\n      tag_592\n      jumpi\n        /* \"#utility.yul\":2565:2566   */\n      0x00\n        /* \"#utility.yul\":2562:2563   */\n      dup1\n        /* \"#utility.yul\":2555:2567   */\n      revert\n        /* \"#utility.yul\":2517:2569   */\n    tag_592:\n        /* \"#utility.yul\":2601:2610   */\n      dup3\n        /* \"#utility.yul\":2588:2611   */\n      calldataload\n        /* \"#utility.yul\":2578:2611   */\n      swap2\n      pop\n        /* \"#utility.yul\":2630:2668   */\n      tag_593\n        /* \"#utility.yul\":2664:2666   */\n      0x20\n        /* \"#utility.yul\":2653:2662   */\n      dup5\n        /* \"#utility.yul\":2649:2667   */\n      add\n        /* \"#utility.yul\":2630:2668   */\n      tag_558\n      jump\t// in\n    tag_593:\n        /* \"#utility.yul\":2620:2668   */\n      swap1\n      pop\n        /* \"#utility.yul\":2420:2674   */\n      swap3\n      pop\n      swap3\n      swap1\n      pop\n      jump\t// out\n        /* \"#utility.yul\":2679:3275   */\n    tag_66:\n        /* \"#utility.yul\":2784:2790   */\n      0x00\n        /* \"#utility.yul\":2792:2798   */\n      dup1\n        /* \"#utility.yul\":2800:2806   */\n      0x00\n        /* \"#utility.yul\":2808:2814   */\n      dup1\n        /* \"#utility.yul\":2816:2822   */\n      0x00\n        /* \"#utility.yul\":2869:2872   */\n      0xa0\n        /* \"#utility.yul\":2857:2866   */\n      dup7\n        /* \"#utility.yul\":2848:2855   */\n      dup9\n        /* \"#utility.yul\":2844:2867   */\n      sub\n        /* \"#utility.yul\":2840:2873   */\n      slt\n        /* \"#utility.yul\":2837:2890   */\n      iszero\n      tag_595\n      jumpi\n        /* \"#utility.yul\":2886:2887   */\n      0x00\n        /* \"#utility.yul\":2883:2884   */\n      dup1\n        /* \"#utility.yul\":2876:2888   */\n      revert\n        /* \"#utility.yul\":2837:2890   */\n    tag_595:\n        /* \"#utility.yul\":2926:2935   */\n      dup6\n        /* \"#utility.yul\":2913:2936   */\n      calldataload\n        /* \"#utility.yul\":2959:2977   */\n      0xffffffffffffffff\n        /* \"#utility.yul\":2951:2957   */\n      dup2\n        /* \"#utility.yul\":2948:2978   */\n      gt\n        /* \"#utility.yul\":2945:2995   */\n      iszero\n      tag_596\n      jumpi\n        /* \"#utility.yul\":2991:2992   */\n      0x00\n        /* \"#utility.yul\":2988:2989   */\n      dup1\n        /* \"#utility.yul\":2981:2993   */\n      revert\n        /* \"#utility.yul\":2945:2995   */\n    tag_596:\n        /* \"#utility.yul\":3014:3064   */\n      tag_597\n        /* \"#utility.yul\":3056:3063   */\n      dup9\n        /* \"#utility.yul\":3047:3053   */\n      dup3\n        /* \"#utility.yul\":3036:3045   */\n      dup10\n        /* \"#utility.yul\":3032:3054   */\n      add\n        /* \"#utility.yul\":3014:3064   */\n      tag_557\n      jump\t// in\n    tag_597:\n        /* \"#utility.yul\":3004:3064   */\n      swap9\n        /* \"#utility.yul\":3111:3113   */\n      0x20\n        /* \"#utility.yul\":3096:3114   */\n      dup9\n      add\n        /* \"#utility.yul\":3083:3115   */\n      calldataload\n      swap9\n      pop\n        /* \"#utility.yul\":3162:3164   */\n      0x40\n        /* \"#utility.yul\":3147:3165   */\n      dup9\n      add\n        /* \"#utility.yul\":3134:3166   */\n      calldataload\n      swap8\n        /* \"#utility.yul\":3213:3215   */\n      0x60\n        /* \"#utility.yul\":3198:3216   */\n      dup2\n      add\n        /* \"#utility.yul\":3185:3217   */\n      calldataload\n      swap8\n      pop\n        /* \"#utility.yul\":3264:3267   */\n      0x80\n        /* \"#utility.yul\":3249:3268   */\n      add\n        /* \"#utility.yul\":3236:3269   */\n      calldataload\n      swap6\n      pop\n        /* \"#utility.yul\":2679:3275   */\n      swap4\n      pop\n      pop\n      pop\n      pop\n      jump\t// out\n        /* \"#utility.yul\":3647:4171   */\n    tag_87:\n        /* \"#utility.yul\":3724:3730   */\n      0x00\n        /* \"#utility.yul\":3732:3738   */\n      dup1\n        /* \"#utility.yul\":3785:3787   */\n      0x40\n        /* \"#utility.yul\":3773:3782   */\n      dup4\n        /* \"#utility.yul\":3764:3771   */\n      dup6\n        /* \"#utility.yul\":3760:3783   */\n      sub\n        /* \"#utility.yul\":3756:3788   */\n      slt\n        /* \"#utility.yul\":3753:3805   */\n      iszero\n      tag_602\n      jumpi\n        /* \"#utility.yul\":3801:3802   */\n      0x00\n        /* \"#utility.yul\":3798:3799   */\n      dup1\n        /* \"#utility.yul\":3791:3803   */\n      revert\n        /* \"#utility.yul\":3753:3805   */\n    tag_602:\n        /* \"#utility.yul\":3824:3853   */\n      tag_603\n        /* \"#utility.yul\":3843:3852   */\n      dup4\n        /* \"#utility.yul\":3824:3853   */\n      tag_558\n      jump\t// in\n    tag_603:\n        /* \"#utility.yul\":3814:3853   */\n      swap2\n      pop\n        /* \"#utility.yul\":3904:3906   */\n      0x20\n        /* \"#utility.yul\":3893:3902   */\n      dup4\n        /* \"#utility.yul\":3889:3907   */\n      add\n        /* \"#utility.yul\":3876:3908   */\n      calldataload\n        /* \"#utility.yul\":3931:3949   */\n      0xffffffffffffffff\n        /* \"#utility.yul\":3923:3929   */\n      dup2\n        /* \"#utility.yul\":3920:3950   */\n      gt\n        /* \"#utility.yul\":3917:3967   */\n      iszero\n      tag_604\n      jumpi\n        /* \"#utility.yul\":3963:3964   */\n      0x00\n        /* \"#utility.yul\":3960:3961   */\n      dup1\n        /* \"#utility.yul\":3953:3965   */\n      revert\n        /* \"#utility.yul\":3917:3967   */\n    tag_604:\n        /* \"#utility.yul\":3986:4008   */\n      dup4\n      add\n        /* \"#utility.yul\":4039:4043   */\n      0x1f\n        /* \"#utility.yul\":4031:4044   */\n      dup2\n      add\n        /* \"#utility.yul\":4027:4054   */\n      dup6\n      sgt\n        /* \"#utility.yul\":4017:4072   */\n      tag_605\n      jumpi\n        /* \"#utility.yul\":4068:4069   */\n      0x00\n        /* \"#utility.yul\":4065:4066   */\n      dup1\n        /* \"#utility.yul\":4058:4070   */\n      revert\n        /* \"#utility.yul\":4017:4072   */\n    tag_605:\n        /* \"#utility.yul\":4091:4165   */\n      tag_606\n        /* \"#utility.yul\":4157:4164   */\n      dup6\n        /* \"#utility.yul\":4152:4154   */\n      dup3\n        /* \"#utility.yul\":4139:4155   */\n      calldataload\n        /* \"#utility.yul\":4134:4136   */\n      0x20\n        /* \"#utility.yul\":4130:4132   */\n      dup5\n        /* \"#utility.yul\":4126:4137   */\n      add\n        /* \"#utility.yul\":4091:4165   */\n      tag_556\n      jump\t// in\n    tag_606:\n        /* \"#utility.yul\":4081:4165   */\n      swap2\n      pop\n      pop\n        /* \"#utility.yul\":3647:4171   */\n      swap3\n      pop\n      swap3\n      swap1\n      pop\n      jump\t// out\n        /* \"#utility.yul\":4176:4572   */\n    tag_92:\n        /* \"#utility.yul\":4254:4260   */\n      0x00\n        /* \"#utility.yul\":4262:4268   */\n      dup1\n        /* \"#utility.yul\":4315:4317   */\n      0x40\n        /* \"#utility.yul\":4303:4312   */\n      dup4\n        /* \"#utility.yul\":4294:4301   */\n      dup6\n        /* \"#utility.yul\":4290:4313   */\n      sub\n        /* \"#utility.yul\":4286:4318   */\n      slt\n        /* \"#utility.yul\":4283:4335   */\n      iszero\n      tag_608\n      jumpi\n        /* \"#utility.yul\":4331:4332   */\n      0x00\n        /* \"#utility.yul\":4328:4329   */\n      dup1\n        /* \"#utility.yul\":4321:4333   */\n      revert\n        /* \"#utility.yul\":4283:4335   */\n    tag_608:\n        /* \"#utility.yul\":4371:4380   */\n      dup3\n        /* \"#utility.yul\":4358:4381   */\n      calldataload\n        /* \"#utility.yul\":4404:4422   */\n      0xffffffffffffffff\n        /* \"#utility.yul\":4396:4402   */\n      dup2\n        /* \"#utility.yul\":4393:4423   */\n      gt\n        /* \"#utility.yul\":4390:4440   */\n      iszero\n      tag_609\n      jumpi\n        /* \"#utility.yul\":4436:4437   */\n      0x00\n        /* \"#utility.yul\":4433:4434   */\n      dup1\n        /* \"#utility.yul\":4426:4438   */\n      revert\n        /* \"#utility.yul\":4390:4440   */\n    tag_609:\n        /* \"#utility.yul\":4459:4509   */\n      tag_610\n        /* \"#utility.yul\":4501:4508   */\n      dup6\n        /* \"#utility.yul\":4492:4498   */\n      dup3\n        /* \"#utility.yul\":4481:4490   */\n      dup7\n        /* \"#utility.yul\":4477:4499   */\n      add\n        /* \"#utility.yul\":4459:4509   */\n      tag_557\n      jump\t// in\n    tag_610:\n        /* \"#utility.yul\":4449:4509   */\n      swap3\n      pop\n      pop\n        /* \"#utility.yul\":4528:4566   */\n      tag_593\n        /* \"#utility.yul\":4562:4564   */\n      0x20\n        /* \"#utility.yul\":4551:4560   */\n      dup5\n        /* \"#utility.yul\":4547:4565   */\n      add\n        /* \"#utility.yul\":4528:4566   */\n      tag_558\n      jump\t// in\n        /* \"#utility.yul\":4577:5188   */\n    tag_105:\n        /* \"#utility.yul\":4674:4680   */\n      0x00\n        /* \"#utility.yul\":4682:4688   */\n      dup1\n        /* \"#utility.yul\":4690:4696   */\n      0x00\n        /* \"#utility.yul\":4743:4745   */\n      0x60\n        /* \"#utility.yul\":4731:4740   */\n      dup5\n        /* \"#utility.yul\":4722:4729   */\n      dup7\n        /* \"#utility.yul\":4718:4741   */\n      sub\n        /* \"#utility.yul\":4714:4746   */\n      slt\n        /* \"#utility.yul\":4711:4763   */\n      iszero\n      tag_613\n      jumpi\n        /* \"#utility.yul\":4759:4760   */\n      0x00\n        /* \"#utility.yul\":4756:4757   */\n      dup1\n        /* \"#utility.yul\":4749:4761   */\n      revert\n        /* \"#utility.yul\":4711:4763   */\n    tag_613:\n        /* \"#utility.yul\":4799:4808   */\n      dup4\n        /* \"#utility.yul\":4786:4809   */\n      calldataload\n        /* \"#utility.yul\":4828:4846   */\n      0xffffffffffffffff\n        /* \"#utility.yul\":4869:4871   */\n      dup1\n        /* \"#utility.yul\":4861:4867   */\n      dup3\n        /* \"#utility.yul\":4858:4872   */\n      gt\n        /* \"#utility.yul\":4855:4889   */\n      iszero\n      tag_614\n      jumpi\n        /* \"#utility.yul\":4885:4886   */\n      0x00\n        /* \"#utility.yul\":4882:4883   */\n      dup1\n        /* \"#utility.yul\":4875:4887   */\n      revert\n        /* \"#utility.yul\":4855:4889   */\n    tag_614:\n        /* \"#utility.yul\":4908:4958   */\n      tag_615\n        /* \"#utility.yul\":4950:4957   */\n      dup8\n        /* \"#utility.yul\":4941:4947   */\n      dup4\n        /* \"#utility.yul\":4930:4939   */\n      dup9\n        /* \"#utility.yul\":4926:4948   */\n      add\n        /* \"#utility.yul\":4908:4958   */\n      tag_557\n      jump\t// in\n    tag_615:\n        /* \"#utility.yul\":4898:4958   */\n      swap5\n      pop\n        /* \"#utility.yul\":5011:5013   */\n      0x20\n        /* \"#utility.yul\":5000:5009   */\n      dup7\n        /* \"#utility.yul\":4996:5014   */\n      add\n        /* \"#utility.yul\":4983:5015   */\n      calldataload\n        /* \"#utility.yul\":4967:5015   */\n      swap2\n      pop\n        /* \"#utility.yul\":5040:5042   */\n      dup1\n        /* \"#utility.yul\":5030:5038   */\n      dup3\n        /* \"#utility.yul\":5027:5043   */\n      gt\n        /* \"#utility.yul\":5024:5060   */\n      iszero\n      tag_616\n      jumpi\n        /* \"#utility.yul\":5056:5057   */\n      0x00\n        /* \"#utility.yul\":5053:5054   */\n      dup1\n        /* \"#utility.yul\":5046:5058   */\n      revert\n        /* \"#utility.yul\":5024:5060   */\n    tag_616:\n      pop\n        /* \"#utility.yul\":5079:5131   */\n      tag_617\n        /* \"#utility.yul\":5123:5130   */\n      dup7\n        /* \"#utility.yul\":5112:5120   */\n      dup3\n        /* \"#utility.yul\":5101:5110   */\n      dup8\n        /* \"#utility.yul\":5097:5121   */\n      add\n        /* \"#utility.yul\":5079:5131   */\n      tag_557\n      jump\t// in\n    tag_617:\n        /* \"#utility.yul\":5069:5131   */\n      swap3\n      pop\n      pop\n        /* \"#utility.yul\":5178:5180   */\n      0x40\n        /* \"#utility.yul\":5167:5176   */\n      dup5\n        /* \"#utility.yul\":5163:5181   */\n      add\n        /* \"#utility.yul\":5150:5182   */\n      calldataload\n        /* \"#utility.yul\":5140:5182   */\n      swap1\n      pop\n        /* \"#utility.yul\":4577:5188   */\n      swap3\n      pop\n      swap3\n      pop\n      swap3\n      jump\t// out\n        /* \"#utility.yul\":5193:5379   */\n    tag_126:\n        /* \"#utility.yul\":5252:5258   */\n      0x00\n        /* \"#utility.yul\":5305:5307   */\n      0x20\n        /* \"#utility.yul\":5293:5302   */\n      dup3\n        /* \"#utility.yul\":5284:5291   */\n      dup5\n        /* \"#utility.yul\":5280:5303   */\n      sub\n        /* \"#utility.yul\":5276:5308   */\n      slt\n        /* \"#utility.yul\":5273:5325   */\n      iszero\n      tag_619\n      jumpi\n        /* \"#utility.yul\":5321:5322   */\n      0x00\n        /* \"#utility.yul\":5318:5319   */\n      dup1\n        /* \"#utility.yul\":5311:5323   */\n      revert\n        /* \"#utility.yul\":5273:5325   */\n    tag_619:\n        /* \"#utility.yul\":5344:5373   */\n      tag_537\n        /* \"#utility.yul\":5363:5372   */\n      dup3\n        /* \"#utility.yul\":5344:5373   */\n      tag_558\n      jump\t// in\n        /* \"#utility.yul\":5384:5684   */\n    tag_559:\n        /* \"#utility.yul\":5437:5440   */\n      0x00\n        /* \"#utility.yul\":5475:5480   */\n      dup2\n        /* \"#utility.yul\":5469:5481   */\n      mload\n        /* \"#utility.yul\":5502:5508   */\n      dup1\n        /* \"#utility.yul\":5497:5500   */\n      dup5\n        /* \"#utility.yul\":5490:5509   */\n      mstore\n        /* \"#utility.yul\":5558:5564   */\n      dup1\n        /* \"#utility.yul\":5551:5555   */\n      0x20\n        /* \"#utility.yul\":5544:5549   */\n      dup5\n        /* \"#utility.yul\":5540:5556   */\n      add\n        /* \"#utility.yul\":5533:5537   */\n      0x20\n        /* \"#utility.yul\":5528:5531   */\n      dup7\n        /* \"#utility.yul\":5524:5538   */\n      add\n        /* \"#utility.yul\":5518:5565   */\n      mcopy\n        /* \"#utility.yul\":5610:5611   */\n      0x00\n        /* \"#utility.yul\":5603:5607   */\n      0x20\n        /* \"#utility.yul\":5594:5600   */\n      dup3\n        /* \"#utility.yul\":5589:5592   */\n      dup7\n        /* \"#utility.yul\":5585:5601   */\n      add\n        /* \"#utility.yul\":5581:5608   */\n      add\n        /* \"#utility.yul\":5574:5612   */\n      mstore\n        /* \"#utility.yul\":5673:5677   */\n      0x20\n        /* \"#utility.yul\":5666:5668   */\n      0x1f\n        /* \"#utility.yul\":5662:5669   */\n      not\n        /* \"#utility.yul\":5657:5659   */\n      0x1f\n        /* \"#utility.yul\":5649:5655   */\n      dup4\n        /* \"#utility.yul\":5645:5660   */\n      add\n        /* \"#utility.yul\":5641:5670   */\n      and\n        /* \"#utility.yul\":5636:5639   */\n      dup6\n        /* \"#utility.yul\":5632:5671   */\n      add\n        /* \"#utility.yul\":5628:5678   */\n      add\n        /* \"#utility.yul\":5621:5678   */\n      swap2\n      pop\n      pop\n        /* \"#utility.yul\":5384:5684   */\n      swap3\n      swap2\n      pop\n      pop\n      jump\t// out\n        /* \"#utility.yul\":5689:6017   */\n    tag_129:\n        /* \"#utility.yul\":5866:5868   */\n      0x40\n        /* \"#utility.yul\":5855:5864   */\n      dup2\n        /* \"#utility.yul\":5848:5869   */\n      mstore\n        /* \"#utility.yul\":5829:5833   */\n      0x00\n        /* \"#utility.yul\":5886:5942   */\n      tag_623\n        /* \"#utility.yul\":5938:5940   */\n      0x40\n        /* \"#utility.yul\":5927:5936   */\n      dup4\n        /* \"#utility.yul\":5923:5941   */\n      add\n        /* \"#utility.yul\":5915:5921   */\n      dup6\n        /* \"#utility.yul\":5886:5942   */\n      tag_559\n      jump\t// in\n    tag_623:\n        /* \"#utility.yul\":5878:5942   */\n      swap1\n      pop\n        /* \"#utility.yul\":6007:6008   */\n      0x01\n        /* \"#utility.yul\":6003:6004   */\n      dup1\n        /* \"#utility.yul\":5998:6001   */\n      0xa0\n        /* \"#utility.yul\":5994:6005   */\n      shl\n        /* \"#utility.yul\":5990:6009   */\n      sub\n        /* \"#utility.yul\":5982:5988   */\n      dup4\n        /* \"#utility.yul\":5978:6010   */\n      and\n        /* \"#utility.yul\":5973:5975   */\n      0x20\n        /* \"#utility.yul\":5962:5971   */\n      dup4\n        /* \"#utility.yul\":5958:5976   */\n      add\n        /* \"#utility.yul\":5951:6011   */\n      mstore\n        /* \"#utility.yul\":5689:6017   */\n      swap4\n      swap3\n      pop\n      pop\n      pop\n      jump\t// out\n        /* \"#utility.yul\":6022:7038   */\n    tag_133:\n        /* \"#utility.yul\":6115:6121   */\n      0x00\n        /* \"#utility.yul\":6123:6129   */\n      dup1\n        /* \"#utility.yul\":6176:6178   */\n      0x40\n        /* \"#utility.yul\":6164:6173   */\n      dup4\n        /* \"#utility.yul\":6155:6162   */\n      dup6\n        /* \"#utility.yul\":6151:6174   */\n      sub\n        /* \"#utility.yul\":6147:6179   */\n      slt\n        /* \"#utility.yul\":6144:6196   */\n      iszero\n      tag_625\n      jumpi\n        /* \"#utility.yul\":6192:6193   */\n      0x00\n        /* \"#utility.yul\":6189:6190   */\n      dup1\n        /* \"#utility.yul\":6182:6194   */\n      revert\n        /* \"#utility.yul\":6144:6196   */\n    tag_625:\n        /* \"#utility.yul\":6232:6241   */\n      dup3\n        /* \"#utility.yul\":6219:6242   */\n      calldataload\n        /* \"#utility.yul\":6261:6279   */\n      0xffffffffffffffff\n        /* \"#utility.yul\":6302:6304   */\n      dup1\n        /* \"#utility.yul\":6294:6300   */\n      dup3\n        /* \"#utility.yul\":6291:6305   */\n      gt\n        /* \"#utility.yul\":6288:6322   */\n      iszero\n      tag_626\n      jumpi\n        /* \"#utility.yul\":6318:6319   */\n      0x00\n        /* \"#utility.yul\":6315:6316   */\n      dup1\n        /* \"#utility.yul\":6308:6320   */\n      revert\n        /* \"#utility.yul\":6288:6322   */\n    tag_626:\n        /* \"#utility.yul\":6356:6362   */\n      dup2\n        /* \"#utility.yul\":6345:6354   */\n      dup6\n        /* \"#utility.yul\":6341:6363   */\n      add\n        /* \"#utility.yul\":6331:6363   */\n      swap2\n      pop\n        /* \"#utility.yul\":6401:6408   */\n      dup6\n        /* \"#utility.yul\":6394:6398   */\n      0x1f\n        /* \"#utility.yul\":6390:6392   */\n      dup4\n        /* \"#utility.yul\":6386:6399   */\n      add\n        /* \"#utility.yul\":6382:6409   */\n      slt\n        /* \"#utility.yul\":6372:6427   */\n      tag_627\n      jumpi\n        /* \"#utility.yul\":6423:6424   */\n      0x00\n        /* \"#utility.yul\":6420:6421   */\n      dup1\n        /* \"#utility.yul\":6413:6425   */\n      revert\n        /* \"#utility.yul\":6372:6427   */\n    tag_627:\n        /* \"#utility.yul\":6459:6461   */\n      dup2\n        /* \"#utility.yul\":6446:6462   */\n      calldataload\n        /* \"#utility.yul\":6481:6485   */\n      0x20\n        /* \"#utility.yul\":6504:6506   */\n      dup3\n        /* \"#utility.yul\":6500:6502   */\n      dup3\n        /* \"#utility.yul\":6497:6507   */\n      gt\n        /* \"#utility.yul\":6494:6530   */\n      iszero\n      tag_629\n      jumpi\n        /* \"#utility.yul\":6510:6528   */\n      tag_629\n      tag_241\n      jump\t// in\n    tag_629:\n        /* \"#utility.yul\":6556:6558   */\n      dup2\n        /* \"#utility.yul\":6553:6554   */\n      0x05\n        /* \"#utility.yul\":6549:6559   */\n      shl\n        /* \"#utility.yul\":6539:6559   */\n      swap3\n      pop\n        /* \"#utility.yul\":6579:6607   */\n      tag_630\n        /* \"#utility.yul\":6603:6605   */\n      dup2\n        /* \"#utility.yul\":6599:6601   */\n      dup5\n        /* \"#utility.yul\":6595:6606   */\n      add\n        /* \"#utility.yul\":6579:6607   */\n      tag_555\n      jump\t// in\n    tag_630:\n        /* \"#utility.yul\":6641:6656   */\n      dup3\n      dup2\n      mstore\n        /* \"#utility.yul\":6711:6722   */\n      swap3\n      dup5\n      add\n        /* \"#utility.yul\":6707:6727   */\n      dup2\n      add\n      swap3\n        /* \"#utility.yul\":6672:6684   */\n      dup2\n      dup2\n      add\n      swap1\n        /* \"#utility.yul\":6739:6758   */\n      dup10\n      dup6\n      gt\n        /* \"#utility.yul\":6736:6775   */\n      iszero\n      tag_631\n      jumpi\n        /* \"#utility.yul\":6771:6772   */\n      0x00\n        /* \"#utility.yul\":6768:6769   */\n      dup1\n        /* \"#utility.yul\":6761:6773   */\n      revert\n        /* \"#utility.yul\":6736:6775   */\n    tag_631:\n        /* \"#utility.yul\":6795:6806   */\n      swap5\n      dup3\n      add\n      swap5\n        /* \"#utility.yul\":6815:6957   */\n    tag_632:\n        /* \"#utility.yul\":6831:6837   */\n      dup5\n        /* \"#utility.yul\":6826:6829   */\n      dup7\n        /* \"#utility.yul\":6823:6838   */\n      lt\n        /* \"#utility.yul\":6815:6957   */\n      iszero\n      tag_634\n      jumpi\n        /* \"#utility.yul\":6897:6914   */\n      dup6\n      calldataload\n        /* \"#utility.yul\":6885:6915   */\n      dup3\n      mstore\n        /* \"#utility.yul\":6848:6860   */\n      swap5\n      dup3\n      add\n      swap5\n        /* \"#utility.yul\":6935:6947   */\n      swap1\n      dup3\n      add\n      swap1\n        /* \"#utility.yul\":6815:6957   */\n      jump(tag_632)\n    tag_634:\n        /* \"#utility.yul\":6976:6981   */\n      swap10\n        /* \"#utility.yul\":7013:7031   */\n      swap8\n      swap1\n      swap2\n      add\n        /* \"#utility.yul\":7000:7032   */\n      calldataload\n      swap8\n      pop\n      pop\n      pop\n      pop\n      pop\n      pop\n      pop\n        /* \"#utility.yul\":6022:7038   */\n      jump\t// out\n        /* \"#utility.yul\":7043:7274   */\n    tag_139:\n        /* \"#utility.yul\":7192:7194   */\n      0x20\n        /* \"#utility.yul\":7181:7190   */\n      dup2\n        /* \"#utility.yul\":7174:7195   */\n      mstore\n        /* \"#utility.yul\":7155:7159   */\n      0x00\n        /* \"#utility.yul\":7212:7268   */\n      tag_537\n        /* \"#utility.yul\":7264:7266   */\n      0x20\n        /* \"#utility.yul\":7253:7262   */\n      dup4\n        /* \"#utility.yul\":7249:7267   */\n      add\n        /* \"#utility.yul\":7241:7247   */\n      dup5\n        /* \"#utility.yul\":7212:7268   */\n      tag_559\n      jump\t// in\n        /* \"#utility.yul\":7279:7869   */\n    tag_149:\n        /* \"#utility.yul\":7568:7574   */\n      dup7\n        /* \"#utility.yul\":7557:7566   */\n      dup2\n        /* \"#utility.yul\":7550:7575   */\n      mstore\n        /* \"#utility.yul\":7611:7614   */\n      0xc0\n        /* \"#utility.yul\":7606:7608   */\n      0x20\n        /* \"#utility.yul\":7595:7604   */\n      dup3\n        /* \"#utility.yul\":7591:7609   */\n      add\n        /* \"#utility.yul\":7584:7615   */\n      mstore\n        /* \"#utility.yul\":7531:7535   */\n      0x00\n        /* \"#utility.yul\":7632:7689   */\n      tag_638\n        /* \"#utility.yul\":7684:7687   */\n      0xc0\n        /* \"#utility.yul\":7673:7682   */\n      dup4\n        /* \"#utility.yul\":7669:7688   */\n      add\n        /* \"#utility.yul\":7661:7667   */\n      dup9\n        /* \"#utility.yul\":7632:7689   */\n      tag_559\n      jump\t// in\n    tag_638:\n        /* \"#utility.yul\":7624:7689   */\n      swap1\n      pop\n        /* \"#utility.yul\":7725:7731   */\n      dup6\n        /* \"#utility.yul\":7720:7722   */\n      0x40\n        /* \"#utility.yul\":7709:7718   */\n      dup4\n        /* \"#utility.yul\":7705:7723   */\n      add\n        /* \"#utility.yul\":7698:7732   */\n      mstore\n        /* \"#utility.yul\":7768:7774   */\n      dup5\n        /* \"#utility.yul\":7763:7765   */\n      0x60\n        /* \"#utility.yul\":7752:7761   */\n      dup4\n        /* \"#utility.yul\":7748:7766   */\n      add\n        /* \"#utility.yul\":7741:7775   */\n      mstore\n        /* \"#utility.yul\":7812:7818   */\n      dup4\n        /* \"#utility.yul\":7806:7809   */\n      0x80\n        /* \"#utility.yul\":7795:7804   */\n      dup4\n        /* \"#utility.yul\":7791:7810   */\n      add\n        /* \"#utility.yul\":7784:7819   */\n      mstore\n        /* \"#utility.yul\":7856:7862   */\n      dup3\n        /* \"#utility.yul\":7850:7853   */\n      0xa0\n        /* \"#utility.yul\":7839:7848   */\n      dup4\n        /* \"#utility.yul\":7835:7854   */\n      add\n        /* \"#utility.yul\":7828:7863   */\n      mstore\n        /* \"#utility.yul\":7279:7869   */\n      swap8\n      swap7\n      pop\n      pop\n      pop\n      pop\n      pop\n      pop\n      pop\n      jump\t// out\n        /* \"#utility.yul\":7874:8208   */\n    tag_153:\n        /* \"#utility.yul\":7951:7957   */\n      0x00\n        /* \"#utility.yul\":7959:7965   */\n      dup1\n        /* \"#utility.yul\":7967:7973   */\n      0x00\n        /* \"#utility.yul\":8020:8022   */\n      0x60\n        /* \"#utility.yul\":8008:8017   */\n      dup5\n        /* \"#utility.yul\":7999:8006   */\n      dup7\n        /* \"#utility.yul\":7995:8018   */\n      sub\n        /* \"#utility.yul\":7991:8023   */\n      slt\n        /* \"#utility.yul\":7988:8040   */\n      iszero\n      tag_640\n      jumpi\n        /* \"#utility.yul\":8036:8037   */\n      0x00\n        /* \"#utility.yul\":8033:8034   */\n      dup1\n        /* \"#utility.yul\":8026:8038   */\n      revert\n        /* \"#utility.yul\":7988:8040   */\n    tag_640:\n        /* \"#utility.yul\":8059:8088   */\n      tag_641\n        /* \"#utility.yul\":8078:8087   */\n      dup5\n        /* \"#utility.yul\":8059:8088   */\n      tag_558\n      jump\t// in\n    tag_641:\n        /* \"#utility.yul\":8049:8088   */\n      swap3\n      pop\n        /* \"#utility.yul\":8107:8145   */\n      tag_642\n        /* \"#utility.yul\":8141:8143   */\n      0x20\n        /* \"#utility.yul\":8130:8139   */\n      dup6\n        /* \"#utility.yul\":8126:8144   */\n      add\n        /* \"#utility.yul\":8107:8145   */\n      tag_558\n      jump\t// in\n    tag_642:\n        /* \"#utility.yul\":8097:8145   */\n      swap2\n      pop\n        /* \"#utility.yul\":8164:8202   */\n      tag_643\n        /* \"#utility.yul\":8198:8200   */\n      0x40\n        /* \"#utility.yul\":8187:8196   */\n      dup6\n        /* \"#utility.yul\":8183:8201   */\n      add\n        /* \"#utility.yul\":8164:8202   */\n      tag_558\n      jump\t// in\n    tag_643:\n        /* \"#utility.yul\":8154:8202   */\n      swap1\n      pop\n        /* \"#utility.yul\":7874:8208   */\n      swap3\n      pop\n      swap3\n      pop\n      swap3\n      jump\t// out\n        /* \"#utility.yul\":8213:8467   */\n    tag_158:\n        /* \"#utility.yul\":8281:8287   */\n      0x00\n        /* \"#utility.yul\":8289:8295   */\n      dup1\n        /* \"#utility.yul\":8342:8344   */\n      0x40\n        /* \"#utility.yul\":8330:8339   */\n      dup4\n        /* \"#utility.yul\":8321:8328   */\n      dup6\n        /* \"#utility.yul\":8317:8340   */\n      sub\n        /* \"#utility.yul\":8313:8345   */\n      slt\n        /* \"#utility.yul\":8310:8362   */\n      iszero\n      tag_645\n      jumpi\n        /* \"#utility.yul\":8358:8359   */\n      0x00\n        /* \"#utility.yul\":8355:8356   */\n      dup1\n        /* \"#utility.yul\":8348:8360   */\n      revert\n        /* \"#utility.yul\":8310:8362   */\n    tag_645:\n        /* \"#utility.yul\":8381:8410   */\n      tag_646\n        /* \"#utility.yul\":8400:8409   */\n      dup4\n        /* \"#utility.yul\":8381:8410   */\n      tag_558\n      jump\t// in\n    tag_646:\n        /* \"#utility.yul\":8371:8410   */\n      swap5\n        /* \"#utility.yul\":8457:8459   */\n      0x20\n        /* \"#utility.yul\":8442:8460   */\n      swap4\n      swap1\n      swap4\n      add\n        /* \"#utility.yul\":8429:8461   */\n      calldataload\n      swap4\n      pop\n      pop\n      pop\n        /* \"#utility.yul\":8213:8467   */\n      jump\t// out\n        /* \"#utility.yul\":8472:9031   */\n    tag_161:\n        /* \"#utility.yul\":8719:8722   */\n      0x80\n        /* \"#utility.yul\":8708:8717   */\n      dup2\n        /* \"#utility.yul\":8701:8723   */\n      mstore\n        /* \"#utility.yul\":8682:8686   */\n      0x00\n        /* \"#utility.yul\":8746:8803   */\n      tag_648\n        /* \"#utility.yul\":8798:8801   */\n      0x80\n        /* \"#utility.yul\":8787:8796   */\n      dup4\n        /* \"#utility.yul\":8783:8802   */\n      add\n        /* \"#utility.yul\":8775:8781   */\n      dup8\n        /* \"#utility.yul\":8746:8803   */\n      tag_559\n      jump\t// in\n    tag_648:\n        /* \"#utility.yul\":8851:8860   */\n      dup3\n        /* \"#utility.yul\":8843:8849   */\n      dup2\n        /* \"#utility.yul\":8839:8861   */\n      sub\n        /* \"#utility.yul\":8834:8836   */\n      0x20\n        /* \"#utility.yul\":8823:8832   */\n      dup5\n        /* \"#utility.yul\":8819:8837   */\n      add\n        /* \"#utility.yul\":8812:8862   */\n      mstore\n        /* \"#utility.yul\":8879:8923   */\n      tag_649\n        /* \"#utility.yul\":8916:8922   */\n      dup2\n        /* \"#utility.yul\":8908:8914   */\n      dup8\n        /* \"#utility.yul\":8879:8923   */\n      tag_559\n      jump\t// in\n    tag_649:\n        /* \"#utility.yul\":8954:8956   */\n      0x40\n        /* \"#utility.yul\":8939:8957   */\n      dup5\n      add\n        /* \"#utility.yul\":8932:8966   */\n      swap6\n      swap1\n      swap6\n      mstore\n      pop\n      pop\n        /* \"#utility.yul\":9009:9023   */\n      swap1\n      iszero\n        /* \"#utility.yul\":9002:9024   */\n      iszero\n        /* \"#utility.yul\":8997:8999   */\n      0x60\n        /* \"#utility.yul\":8982:9000   */\n      swap1\n      swap2\n      add\n        /* \"#utility.yul\":8975:9025   */\n      mstore\n        /* \"#utility.yul\":8871:8923   */\n      swap3\n        /* \"#utility.yul\":8472:9031   */\n      swap2\n      pop\n      pop\n      jump\t// out\n        /* \"#utility.yul\":9720:9847   */\n    tag_194:\n        /* \"#utility.yul\":9781:9791   */\n      0x4e487b71\n        /* \"#utility.yul\":9776:9779   */\n      0xe0\n        /* \"#utility.yul\":9772:9792   */\n      shl\n        /* \"#utility.yul\":9769:9770   */\n      0x00\n        /* \"#utility.yul\":9762:9793   */\n      mstore\n        /* \"#utility.yul\":9812:9816   */\n      0x32\n        /* \"#utility.yul\":9809:9810   */\n      0x04\n        /* \"#utility.yul\":9802:9817   */\n      mstore\n        /* \"#utility.yul\":9836:9840   */\n      0x24\n        /* \"#utility.yul\":9833:9834   */\n      0x00\n        /* \"#utility.yul\":9826:9841   */\n      revert\n        /* \"#utility.yul\":9852:10064   */\n    tag_560:\n        /* \"#utility.yul\":9894:9897   */\n      0x00\n        /* \"#utility.yul\":9932:9937   */\n      dup2\n        /* \"#utility.yul\":9926:9938   */\n      mload\n        /* \"#utility.yul\":9976:9982   */\n      dup1\n        /* \"#utility.yul\":9969:9973   */\n      0x20\n        /* \"#utility.yul\":9962:9967   */\n      dup5\n        /* \"#utility.yul\":9958:9974   */\n      add\n        /* \"#utility.yul\":9953:9956   */\n      dup6\n        /* \"#utility.yul\":9947:9983   */\n      mcopy\n        /* \"#utility.yul\":10038:10039   */\n      0x00\n        /* \"#utility.yul\":10002:10018   */\n      swap4\n      add\n        /* \"#utility.yul\":10027:10040   */\n      swap3\n      dup4\n      mstore\n      pop\n        /* \"#utility.yul\":10002:10018   */\n      swap1\n      swap2\n        /* \"#utility.yul\":9852:10064   */\n      swap1\n      pop\n      jump\t// out\n        /* \"#utility.yul\":10069:10261   */\n    tag_197:\n        /* \"#utility.yul\":10200:10203   */\n      0x00\n        /* \"#utility.yul\":10225:10255   */\n      tag_537\n        /* \"#utility.yul\":10251:10254   */\n      dup3\n        /* \"#utility.yul\":10243:10249   */\n      dup5\n        /* \"#utility.yul\":10225:10255   */\n      tag_560\n      jump\t// in\n        /* \"#utility.yul\":10266:10646   */\n    tag_342:\n        /* \"#utility.yul\":10345:10346   */\n      0x01\n        /* \"#utility.yul\":10341:10353   */\n      dup2\n      dup2\n      shr\n      swap1\n        /* \"#utility.yul\":10388:10400   */\n      dup3\n      and\n      dup1\n        /* \"#utility.yul\":10409:10470   */\n      tag_656\n      jumpi\n        /* \"#utility.yul\":10463:10467   */\n      0x7f\n        /* \"#utility.yul\":10455:10461   */\n      dup3\n        /* \"#utility.yul\":10451:10468   */\n      and\n        /* \"#utility.yul\":10441:10468   */\n      swap2\n      pop\n        /* \"#utility.yul\":10409:10470   */\n    tag_656:\n        /* \"#utility.yul\":10516:10518   */\n      0x20\n        /* \"#utility.yul\":10508:10514   */\n      dup3\n        /* \"#utility.yul\":10505:10519   */\n      lt\n        /* \"#utility.yul\":10485:10503   */\n      dup2\n        /* \"#utility.yul\":10482:10520   */\n      sub\n        /* \"#utility.yul\":10479:10640   */\n      tag_657\n      jumpi\n        /* \"#utility.yul\":10562:10572   */\n      0x4e487b71\n        /* \"#utility.yul\":10557:10560   */\n      0xe0\n        /* \"#utility.yul\":10553:10573   */\n      shl\n        /* \"#utility.yul\":10550:10551   */\n      0x00\n        /* \"#utility.yul\":10543:10574   */\n      mstore\n        /* \"#utility.yul\":10597:10601   */\n      0x22\n        /* \"#utility.yul\":10594:10595   */\n      0x04\n        /* \"#utility.yul\":10587:10602   */\n      mstore\n        /* \"#utility.yul\":10625:10629   */\n      0x24\n        /* \"#utility.yul\":10622:10623   */\n      0x00\n        /* \"#utility.yul\":10615:10630   */\n      revert\n        /* \"#utility.yul\":10479:10640   */\n    tag_657:\n      pop\n        /* \"#utility.yul\":10266:10646   */\n      swap2\n      swap1\n      pop\n      jump\t// out\n        /* \"#utility.yul\":10777:11620   */\n    tag_199:\n        /* \"#utility.yul\":10905:10908   */\n      0x00\n        /* \"#utility.yul\":10934:10935   */\n      dup1\n        /* \"#utility.yul\":10967:10973   */\n      dup4\n        /* \"#utility.yul\":10961:10974   */\n      sload\n        /* \"#utility.yul\":10997:11033   */\n      tag_660\n        /* \"#utility.yul\":11023:11032   */\n      dup2\n        /* \"#utility.yul\":10997:11033   */\n      tag_342\n      jump\t// in\n    tag_660:\n        /* \"#utility.yul\":11052:11053   */\n      0x01\n        /* \"#utility.yul\":11069:11086   */\n      dup3\n      dup2\n      and\n        /* \"#utility.yul\":11095:11228   */\n      dup1\n      iszero\n      tag_662\n      jumpi\n        /* \"#utility.yul\":11242:11243   */\n      0x01\n        /* \"#utility.yul\":11237:11595   */\n      dup2\n      eq\n      tag_663\n      jumpi\n        /* \"#utility.yul\":11062:11595   */\n      jump(tag_661)\n        /* \"#utility.yul\":11095:11228   */\n    tag_662:\n      not(0xff)\n        /* \"#utility.yul\":11128:11152   */\n      dup5\n      and\n        /* \"#utility.yul\":11116:11153   */\n      dup8\n      mstore\n        /* \"#utility.yul\":11201:11215   */\n      dup3\n      iszero\n        /* \"#utility.yul\":11194:11216   */\n      iszero\n        /* \"#utility.yul\":11182:11217   */\n      dup4\n      mul\n        /* \"#utility.yul\":11173:11218   */\n      dup8\n      add\n      swap5\n      pop\n        /* \"#utility.yul\":11095:11228   */\n      jump(tag_661)\n        /* \"#utility.yul\":11237:11595   */\n    tag_663:\n        /* \"#utility.yul\":11268:11274   */\n      dup8\n        /* \"#utility.yul\":11265:11266   */\n      0x00\n        /* \"#utility.yul\":11258:11275   */\n      mstore\n        /* \"#utility.yul\":11298:11302   */\n      0x20\n        /* \"#utility.yul\":11343:11347   */\n      dup1\n        /* \"#utility.yul\":11340:11341   */\n      0x00\n        /* \"#utility.yul\":11330:11348   */\n      keccak256\n        /* \"#utility.yul\":11370:11371   */\n      0x00\n        /* \"#utility.yul\":11384:11549   */\n    tag_664:\n        /* \"#utility.yul\":11398:11404   */\n      dup6\n        /* \"#utility.yul\":11395:11396   */\n      dup2\n        /* \"#utility.yul\":11392:11405   */\n      lt\n        /* \"#utility.yul\":11384:11549   */\n      iszero\n      tag_666\n      jumpi\n        /* \"#utility.yul\":11476:11490   */\n      dup2\n      sload\n        /* \"#utility.yul\":11463:11474   */\n      dup11\n      dup3\n      add\n        /* \"#utility.yul\":11456:11491   */\n      mstore\n        /* \"#utility.yul\":11519:11535   */\n      swap1\n      dup5\n      add\n      swap1\n        /* \"#utility.yul\":11413:11423   */\n      dup3\n      add\n        /* \"#utility.yul\":11384:11549   */\n      jump(tag_664)\n    tag_666:\n        /* \"#utility.yul\":11388:11391   */\n      pop\n      pop\n      pop\n        /* \"#utility.yul\":11578:11584   */\n      dup3\n        /* \"#utility.yul\":11573:11576   */\n      dup8\n        /* \"#utility.yul\":11569:11585   */\n      add\n        /* \"#utility.yul\":11562:11585   */\n      swap5\n      pop\n        /* \"#utility.yul\":11062:11595   */\n    tag_661:\n      pop\n        /* \"#utility.yul\":11611:11614   */\n      swap3\n      swap7\n        /* \"#utility.yul\":10777:11620   */\n      swap6\n      pop\n      pop\n      pop\n      pop\n      pop\n      pop\n      jump\t// out\n        /* \"#utility.yul\":11625:11752   */\n    tag_562:\n        /* \"#utility.yul\":11686:11696   */\n      0x4e487b71\n        /* \"#utility.yul\":11681:11684   */\n      0xe0\n        /* \"#utility.yul\":11677:11697   */\n      shl\n        /* \"#utility.yul\":11674:11675   */\n      0x00\n        /* \"#utility.yul\":11667:11698   */\n      mstore\n        /* \"#utility.yul\":11717:11721   */\n      0x11\n        /* \"#utility.yul\":11714:11715   */\n      0x04\n        /* \"#utility.yul\":11707:11722   */\n      mstore\n        /* \"#utility.yul\":11741:11745   */\n      0x24\n        /* \"#utility.yul\":11738:11739   */\n      0x00\n        /* \"#utility.yul\":11731:11746   */\n      revert\n        /* \"#utility.yul\":11757:11882   */\n    tag_203:\n        /* \"#utility.yul\":11822:11831   */\n      dup1\n      dup3\n      add\n        /* \"#utility.yul\":11843:11853   */\n      dup1\n      dup3\n      gt\n        /* \"#utility.yul\":11840:11876   */\n      iszero\n      tag_186\n      jumpi\n        /* \"#utility.yul\":11856:11874   */\n      tag_186\n      tag_562\n      jump\t// in\n        /* \"#utility.yul\":11887:12405   */\n    tag_563:\n        /* \"#utility.yul\":11989:11991   */\n      0x1f\n        /* \"#utility.yul\":11984:11987   */\n      dup3\n        /* \"#utility.yul\":11981:11992   */\n      gt\n        /* \"#utility.yul\":11978:12399   */\n      iszero\n      tag_228\n      jumpi\n        /* \"#utility.yul\":12025:12030   */\n      dup1\n        /* \"#utility.yul\":12022:12023   */\n      0x00\n        /* \"#utility.yul\":12015:12031   */\n      mstore\n        /* \"#utility.yul\":12069:12073   */\n      0x20\n        /* \"#utility.yul\":12066:12067   */\n      0x00\n        /* \"#utility.yul\":12056:12074   */\n      keccak256\n        /* \"#utility.yul\":12139:12141   */\n      0x1f\n        /* \"#utility.yul\":12127:12137   */\n      dup5\n        /* \"#utility.yul\":12123:12142   */\n      add\n        /* \"#utility.yul\":12120:12121   */\n      0x05\n        /* \"#utility.yul\":12116:12143   */\n      shr\n        /* \"#utility.yul\":12110:12114   */\n      dup2\n        /* \"#utility.yul\":12106:12144   */\n      add\n        /* \"#utility.yul\":12175:12179   */\n      0x20\n        /* \"#utility.yul\":12163:12173   */\n      dup6\n        /* \"#utility.yul\":12160:12180   */\n      lt\n        /* \"#utility.yul\":12157:12204   */\n      iszero\n      tag_673\n      jumpi\n      pop\n        /* \"#utility.yul\":12198:12202   */\n      dup1\n        /* \"#utility.yul\":12157:12204   */\n    tag_673:\n        /* \"#utility.yul\":12253:12255   */\n      0x1f\n        /* \"#utility.yul\":12248:12251   */\n      dup5\n        /* \"#utility.yul\":12244:12256   */\n      add\n        /* \"#utility.yul\":12241:12242   */\n      0x05\n        /* \"#utility.yul\":12237:12257   */\n      shr\n        /* \"#utility.yul\":12231:12235   */\n      dup3\n        /* \"#utility.yul\":12227:12258   */\n      add\n        /* \"#utility.yul\":12217:12258   */\n      swap2\n      pop\n        /* \"#utility.yul\":12308:12389   */\n    tag_674:\n        /* \"#utility.yul\":12326:12328   */\n      dup2\n        /* \"#utility.yul\":12319:12324   */\n      dup2\n        /* \"#utility.yul\":12316:12329   */\n      lt\n        /* \"#utility.yul\":12308:12389   */\n      iszero\n      tag_676\n      jumpi\n        /* \"#utility.yul\":12385:12386   */\n      0x00\n        /* \"#utility.yul\":12371:12387   */\n      dup2\n      sstore\n        /* \"#utility.yul\":12352:12353   */\n      0x01\n        /* \"#utility.yul\":12341:12354   */\n      add\n        /* \"#utility.yul\":12308:12389   */\n      jump(tag_674)\n    tag_676:\n        /* \"#utility.yul\":12312:12315   */\n      pop\n      pop\n        /* \"#utility.yul\":11887:12405   */\n      pop\n      pop\n      pop\n      jump\t// out\n        /* \"#utility.yul\":12581:13926   */\n    tag_219:\n        /* \"#utility.yul\":12707:12710   */\n      dup2\n        /* \"#utility.yul\":12701:12711   */\n      mload\n        /* \"#utility.yul\":12734:12752   */\n      0xffffffffffffffff\n        /* \"#utility.yul\":12726:12732   */\n      dup2\n        /* \"#utility.yul\":12723:12753   */\n      gt\n        /* \"#utility.yul\":12720:12776   */\n      iszero\n      tag_680\n      jumpi\n        /* \"#utility.yul\":12756:12774   */\n      tag_680\n      tag_241\n      jump\t// in\n    tag_680:\n        /* \"#utility.yul\":12785:12882   */\n      tag_681\n        /* \"#utility.yul\":12875:12881   */\n      dup2\n        /* \"#utility.yul\":12835:12873   */\n      tag_682\n        /* \"#utility.yul\":12867:12871   */\n      dup5\n        /* \"#utility.yul\":12861:12872   */\n      sload\n        /* \"#utility.yul\":12835:12873   */\n      tag_342\n      jump\t// in\n    tag_682:\n        /* \"#utility.yul\":12829:12833   */\n      dup5\n        /* \"#utility.yul\":12785:12882   */\n      tag_563\n      jump\t// in\n    tag_681:\n        /* \"#utility.yul\":12937:12941   */\n      0x20\n      dup1\n        /* \"#utility.yul\":12994:12996   */\n      0x1f\n        /* \"#utility.yul\":12983:12997   */\n      dup4\n      gt\n        /* \"#utility.yul\":13011:13012   */\n      0x01\n        /* \"#utility.yul\":13006:13669   */\n      dup2\n      eq\n      tag_684\n      jumpi\n        /* \"#utility.yul\":13713:13714   */\n      0x00\n        /* \"#utility.yul\":13730:13736   */\n      dup5\n        /* \"#utility.yul\":13727:13816   */\n      iszero\n      tag_685\n      jumpi\n      pop\n        /* \"#utility.yul\":13782:13801   */\n      dup6\n      dup4\n      add\n        /* \"#utility.yul\":13776:13802   */\n      mload\n        /* \"#utility.yul\":13727:13816   */\n    tag_685:\n      not(0x00)\n        /* \"#utility.yul\":12538:12539   */\n      0x03\n        /* \"#utility.yul\":12534:12545   */\n      dup7\n      swap1\n      shl\n        /* \"#utility.yul\":12530:12554   */\n      shr\n        /* \"#utility.yul\":12526:12555   */\n      not\n        /* \"#utility.yul\":12516:12556   */\n      and\n        /* \"#utility.yul\":12562:12563   */\n      0x01\n        /* \"#utility.yul\":12558:12569   */\n      dup6\n      swap1\n      shl\n        /* \"#utility.yul\":12513:12570   */\n      or\n        /* \"#utility.yul\":13829:13910   */\n      dup6\n      sstore\n        /* \"#utility.yul\":12976:13920   */\n      jump(tag_683)\n        /* \"#utility.yul\":13006:13669   */\n    tag_684:\n        /* \"#utility.yul\":10724:10725   */\n      0x00\n        /* \"#utility.yul\":10717:10731   */\n      dup6\n      dup2\n      mstore\n        /* \"#utility.yul\":10761:10765   */\n      0x20\n        /* \"#utility.yul\":10748:10766   */\n      dup2\n      keccak256\n      not(0x1f)\n        /* \"#utility.yul\":13042:13062   */\n      dup7\n      and\n      swap2\n        /* \"#utility.yul\":13160:13396   */\n    tag_688:\n        /* \"#utility.yul\":13174:13181   */\n      dup3\n        /* \"#utility.yul\":13171:13172   */\n      dup2\n        /* \"#utility.yul\":13168:13182   */\n      lt\n        /* \"#utility.yul\":13160:13396   */\n      iszero\n      tag_690\n      jumpi\n        /* \"#utility.yul\":13263:13282   */\n      dup9\n      dup7\n      add\n        /* \"#utility.yul\":13257:13283   */\n      mload\n        /* \"#utility.yul\":13242:13284   */\n      dup3\n      sstore\n        /* \"#utility.yul\":13355:13382   */\n      swap5\n      dup5\n      add\n      swap5\n        /* \"#utility.yul\":13323:13324   */\n      0x01\n        /* \"#utility.yul\":13311:13325   */\n      swap1\n      swap2\n      add\n      swap1\n        /* \"#utility.yul\":13190:13209   */\n      dup5\n      add\n        /* \"#utility.yul\":13160:13396   */\n      jump(tag_688)\n    tag_690:\n        /* \"#utility.yul\":13164:13167   */\n      pop\n        /* \"#utility.yul\":13424:13430   */\n      dup6\n        /* \"#utility.yul\":13415:13422   */\n      dup3\n        /* \"#utility.yul\":13412:13431   */\n      lt\n        /* \"#utility.yul\":13409:13610   */\n      iszero\n      tag_691\n      jumpi\n        /* \"#utility.yul\":13485:13504   */\n      dup8\n      dup6\n      add\n        /* \"#utility.yul\":13479:13505   */\n      mload\n      not(0x00)\n        /* \"#utility.yul\":13568:13569   */\n      0x03\n        /* \"#utility.yul\":13564:13578   */\n      dup9\n      swap1\n      shl\n        /* \"#utility.yul\":13580:13583   */\n      0xf8\n        /* \"#utility.yul\":13560:13584   */\n      and\n        /* \"#utility.yul\":13556:13593   */\n      shr\n        /* \"#utility.yul\":13552:13594   */\n      not\n        /* \"#utility.yul\":13537:13595   */\n      and\n        /* \"#utility.yul\":13522:13596   */\n      dup2\n      sstore\n        /* \"#utility.yul\":13409:13610   */\n    tag_691:\n      pop\n      pop\n        /* \"#utility.yul\":13656:13657   */\n      0x01\n        /* \"#utility.yul\":13647:13653   */\n      dup5\n        /* \"#utility.yul\":13644:13645   */\n      0x01\n        /* \"#utility.yul\":13640:13654   */\n      shl\n        /* \"#utility.yul\":13636:13658   */\n      add\n        /* \"#utility.yul\":13630:13634   */\n      dup6\n        /* \"#utility.yul\":13623:13659   */\n      sstore\n        /* \"#utility.yul\":12976:13920   */\n    tag_683:\n      pop\n      pop\n      pop\n      pop\n        /* \"#utility.yul\":12581:13926   */\n      pop\n      pop\n      jump\t// out\n        /* \"#utility.yul\":13931:14233   */\n    tag_221:\n        /* \"#utility.yul\":14108:14114   */\n      dup3\n        /* \"#utility.yul\":14097:14106   */\n      dup2\n        /* \"#utility.yul\":14090:14115   */\n      mstore\n        /* \"#utility.yul\":14151:14153   */\n      0x40\n        /* \"#utility.yul\":14146:14148   */\n      0x20\n        /* \"#utility.yul\":14135:14144   */\n      dup3\n        /* \"#utility.yul\":14131:14149   */\n      add\n        /* \"#utility.yul\":14124:14154   */\n      mstore\n        /* \"#utility.yul\":14071:14075   */\n      0x00\n        /* \"#utility.yul\":14171:14227   */\n      tag_585\n        /* \"#utility.yul\":14223:14225   */\n      0x40\n        /* \"#utility.yul\":14212:14221   */\n      dup4\n        /* \"#utility.yul\":14208:14226   */\n      add\n        /* \"#utility.yul\":14200:14206   */\n      dup5\n        /* \"#utility.yul\":14171:14227   */\n      tag_559\n      jump\t// in\n        /* \"#utility.yul\":14238:14373   */\n    tag_223:\n        /* \"#utility.yul\":14277:14280   */\n      0x00\n        /* \"#utility.yul\":14298:14315   */\n      0x01\n      dup3\n      add\n        /* \"#utility.yul\":14295:14338   */\n      tag_696\n      jumpi\n        /* \"#utility.yul\":14318:14336   */\n      tag_696\n      tag_562\n      jump\t// in\n    tag_696:\n      pop\n        /* \"#utility.yul\":14365:14366   */\n      0x01\n        /* \"#utility.yul\":14354:14367   */\n      add\n      swap1\n        /* \"#utility.yul\":14238:14373   */\n      jump\t// out\n        /* \"#utility.yul\":15828:15956   */\n    tag_322:\n        /* \"#utility.yul\":15895:15904   */\n      dup2\n      dup2\n      sub\n        /* \"#utility.yul\":15916:15927   */\n      dup2\n      dup2\n      gt\n        /* \"#utility.yul\":15913:15950   */\n      iszero\n      tag_186\n      jumpi\n        /* \"#utility.yul\":15930:15948   */\n      tag_186\n      tag_562\n      jump\t// in\n        /* \"#utility.yul\":15961:16088   */\n    tag_331:\n        /* \"#utility.yul\":16022:16032   */\n      0x4e487b71\n        /* \"#utility.yul\":16017:16020   */\n      0xe0\n        /* \"#utility.yul\":16013:16033   */\n      shl\n        /* \"#utility.yul\":16010:16011   */\n      0x00\n        /* \"#utility.yul\":16003:16034   */\n      mstore\n        /* \"#utility.yul\":16053:16057   */\n      0x31\n        /* \"#utility.yul\":16050:16051   */\n      0x04\n        /* \"#utility.yul\":16043:16058   */\n      mstore\n        /* \"#utility.yul\":16077:16081   */\n      0x24\n        /* \"#utility.yul\":16074:16075   */\n      0x00\n        /* \"#utility.yul\":16067:16082   */\n      revert\n        /* \"#utility.yul\":17525:17709   */\n    tag_451:\n        /* \"#utility.yul\":17595:17601   */\n      0x00\n        /* \"#utility.yul\":17648:17650   */\n      0x20\n        /* \"#utility.yul\":17636:17645   */\n      dup3\n        /* \"#utility.yul\":17627:17634   */\n      dup5\n        /* \"#utility.yul\":17623:17646   */\n      sub\n        /* \"#utility.yul\":17619:17651   */\n      slt\n        /* \"#utility.yul\":17616:17668   */\n      iszero\n      tag_711\n      jumpi\n        /* \"#utility.yul\":17664:17665   */\n      0x00\n        /* \"#utility.yul\":17661:17662   */\n      dup1\n        /* \"#utility.yul\":17654:17666   */\n      revert\n        /* \"#utility.yul\":17616:17668   */\n    tag_711:\n      pop\n        /* \"#utility.yul\":17687:17703   */\n      mload\n      swap2\n        /* \"#utility.yul\":17525:17709   */\n      swap1\n      pop\n      jump\t// out\n    stop\n    data_3059375685003c5c33343043cb51f6c6b03e849d5b2f19339e935f8b505d9fe3 9b7946abd96dccbe6cfc6cc2c13300ab429d93e16fa72dc459eeccda73817f08\n    data_75b20eef8615de99c108b05f0dbda081c91897128caa336d75dffb97c4132b4d 360894a13ba1a3210667c828492db98dca3e2076cc3735a920a3ca505d382bbc\n    data_9b87106a812d214d41ad9b68a21119e2948eaaf1040375c939ec808b8862455c 65d7a28e3265b37a6474929f336521b332c1681b933f6cb9f3376673440d862a\n    data_b3da67d1b252aeab7c8063542d95e75f82a5307a82535949bc38f7cf7ba8897f 02dd7bc7dec4dceedda775e58dd541e08a116c6c53815c0bd028192f7b626800\n    data_c0c65a3718f3702d917c44106b91645b509d2e2d0979b70495c3babce192339f cd5ed15c6e187e77e9aee88184c21f4f2182ab5827cb3b7e07fbedcd63f03300\n\n    auxdata: 0xa2646970667358221220ea2b3697326adffd8de11773ad2c8d3456aac56c13e47a40f02f25681bd8a0f164736f6c63430008190033\n}\n",
				"bytecode": {
					"linkReferences": {},
					"object": "60a06040523060805260015f8190558055348015601a575f80fd5b5060805161272e6100415f395f818161194c015281816119750152611ad8015261272e5ff3fe6080604052600436106101c5575f3560e01c80638456cb59116100f2578063bfb231d211610092578063e2eb41ff11610062578063e2eb41ff14610532578063e551ba4b146105cb578063e63ab1e9146105ea578063f72c0d8b1461060a575f80fd5b8063bfb231d214610494578063c0c53b8b146104c5578063d3dcff7c146104e4578063d547741f14610513575f80fd5b8063a75859e1116100cd578063a75859e1146103eb578063a9834b6714610418578063ad3cb1cc14610437578063be22d27d14610474575f80fd5b80638456cb59146103a557806391d14854146103b9578063a217fddf146103d8575f80fd5b80633fa9fcf81161016857806352d1902d1161013857806352d1902d146103305780635c975abb146103445780636f347a78146103675780637309cbbd14610386575f80fd5b80633fa9fcf8146102bc578063443c227c146102d05780634f1ef286146102fe5780634fa4a1bb14610311575f80fd5b80632f2ff15d116101a35780632f2ff15d1461024b57806331fee8be1461026a57806336568abe146102895780633f4ba83a146102a8575f80fd5b806301ffc9a7146101c957806317435e1a146101fd578063248a9ca31461021e575b5f80fd5b3480156101d4575f80fd5b506101e86101e3366004611ef8565b61063d565b60405190151581526020015b60405180910390f35b348015610208575f80fd5b5061021c610217366004611fd7565b610673565b005b348015610229575f80fd5b5061023d610238366004612011565b6107a9565b6040519081526020016101f4565b348015610256575f80fd5b5061021c610265366004612043565b6107c9565b348015610275575f80fd5b5061021c61028436600461206d565b6107eb565b348015610294575f80fd5b5061021c6102a3366004612043565b6108d8565b3480156102b3575f80fd5b5061021c610910565b3480156102c7575f80fd5b5061021c610932565b3480156102db575f80fd5b5061023d6102ea366004612011565b60076020525f908152604090206001015481565b61021c61030c3660046120c5565b610b03565b34801561031c575f80fd5b5061021c61032b366004612123565b610b1e565b34801561033b575f80fd5b5061023d610d24565b34801561034f575f80fd5b505f805160206126d98339815191525460ff166101e8565b348015610372575f80fd5b5061021c610381366004612165565b610d3f565b348015610391575f80fd5b5061021c6103a0366004612011565b610dea565b3480156103b0575f80fd5b5061021c611109565b3480156103c4575f80fd5b506101e86103d3366004612043565b611128565b3480156103e3575f80fd5b5061023d5f81565b3480156103f6575f80fd5b5061040a6104053660046121cd565b61115e565b6040516101f4929190612214565b348015610423575f80fd5b5061021c61043236600461223d565b611208565b348015610442575f80fd5b50610467604051806040016040528060058152602001640352e302e360dc1b81525081565b6040516101f491906122e4565b34801561047f575f80fd5b5061023d5f8051602061265983398151915281565b34801561049f575f80fd5b506104b36104ae366004612011565b6112b6565b6040516101f4969594939291906122f6565b3480156104d0575f80fd5b5061021c6104df366004612333565b611370565b3480156104ef575f80fd5b506105036104fe366004612373565b6114f5565b6040516101f4949392919061239b565b34801561051e575f80fd5b5061021c61052d366004612043565b61164b565b34801561053d575f80fd5b5061059061054c3660046121cd565b6003602052805f5260405f205f91509050805f0154908060010154908060020154908060030154908060040154908060050154908060060154908060070154905088565b604080519889526020890197909752958701949094526060860192909252608085015260a084015260c083015260e0820152610100016101f4565b3480156105d6575f80fd5b5061021c6105e5366004611fd7565b611667565b3480156105f5575f80fd5b5061023d5f8051602061269983398151915281565b348015610615575f80fd5b5061023d7f189ab7a9244df0848122154315af71fe140f3db0fe014031783b0946b8c9d2e381565b5f6001600160e01b03198216637965db0b60e01b148061066d57506301ffc9a760e01b6001600160e01b03198316145b92915050565b5f5b335f908152600460205260409020548110156107a557335f9081526004602052604081208054839081106106ab576106ab6123d8565b905f5260205f2090600402019050826040516020016106ca9190612403565b60408051601f19818403018152908290528051602091820120916106f091849101612446565b604051602081830303815290604052805190602001201480156107185750600381015460ff16155b1561079c576003808201805460ff191660019081179091556002830154335f908152602093909352604083209091018054919290916107589084906124cc565b909155505060405133907fbe21664565742a9f42cbb6d005f92db59c7bcad35b12ef5b57b79e75676b247a9061078f9086906122e4565b60405180910390a2505050565b50600101610675565b5050565b5f9081525f805160206126b9833981519152602052604090206001015490565b6107d2826107a9565b6107db816117be565b6107e583836117c8565b50505050565b5f80516020612659833981519152610802816117be565b6040805160c0810182525f805480835260208084018b81528486018b9052606085018a90526080850189905260a08501889052918352600290529290208151815591519091906001820190610857908261252a565b5060408201518160020155606082015181600301556080820151816004015560a082015181600501559050507f78d68ba0e8c23b92e7c700d99efed2719520cbd4af845b2c03ae251f9cdf3d525f54876040516108b59291906125ea565b60405180910390a15f805490806108cb83612602565b9190505550505050505050565b6001600160a01b03811633146109015760405163334bd91960e11b815260040160405180910390fd5b61090b8282611869565b505050565b5f80516020612699833981519152610927816117be565b61092f6118e2565b50565b335f908152600360205260409020541561098b5760405162461bcd60e51b8152602060048201526015602482015274506c6179657220616c72656164792065786973747360581b60448201526064015b60405180910390fd5b604051806101400160405280600181526020015f81526020016064815260200160328152602001600a81526020016005815260200160038152602001600281526020015f67ffffffffffffffff8111156109e7576109e7611f1f565b604051908082528060200260200182016040528015610a10578160200160208202803683370190505b5081526020015f604051908082528060200260200182016040528015610a40578160200160208202803683370190505b509052335f90815260036020818152604092839020845181558482015160018201559284015160028401556060840151918301919091556080830151600483015560a0830151600583015560c0830151600683015560e083015160078301556101008301518051610ab79260088501920190611e48565b506101208201518051610ad4916009840191602090910190611e48565b50506040513391507fb4cca19a27ce42915c3cee0cee28fc5d90969ee49f09ec71659546a63b5f7bc0905f90a2565b610b0b611941565b610b14826119e7565b6107a58282611a11565b5f80516020612659833981519152610b35816117be565b5f6001600160a01b0316600684604051610b4f9190612403565b908152604051908190036020019020546001600160a01b031614610bac5760405162461bcd60e51b81526020600482015260146024820152734775696c6420616c72656164792065786973747360601b6044820152606401610982565b604080516060810182528481526001600160a01b0384166020820152815160018082528184018452919283019181602001602082028036833750505090526001600160a01b0383165f90815260056020526040902081518190610c0f908261252a565b506020828101516001830180546001600160a01b0319166001600160a01b0390921691909117905560408301518051610c4e9260028501920190611e91565b5050506001600160a01b0382165f9081526005602052604081206002018054849290610c7c57610c7c6123d8565b905f5260205f20015f6101000a8154816001600160a01b0302191690836001600160a01b0316021790555081600684604051610cb89190612403565b90815260405190819003602001812080546001600160a01b03939093166001600160a01b0319909316929092179091557f072208535a97b2e307167838c66aacd47f8de3a2cb92bc2ddb2b2b52009c9fd590610d179085908590612214565b60405180910390a1505050565b5f610d2d611acd565b505f8051602061267983398151915290565b5f80516020612659833981519152610d56816117be565b335f908152600460208181526040808420815160808101835289815280840189905291820187905260608201859052805460018101825590855291909320835191909202909101908190610daa908261252a565b5060208201516001820190610dbf908261252a565b50604082015160028201556060909101516003909101805460ff191691151591909117905550505050565b5f818152600760209081526040808320815181546060948102820185018452928101838152909391928492849190840182828015610e4557602002820191905f5260205f20905b815481526020019060010190808311610e31575b5050505050815260200160018201548152505090505f815f01515111610e9e5760405162461bcd60e51b815260206004820152600e60248201526d496e76616c69642072656369706560901b6044820152606401610982565b5f5b815151811015610f9f575f805b335f90815260036020526040902060080154811015610f38578351805184908110610eda57610eda6123d8565b602002602001015160035f336001600160a01b03166001600160a01b031681526020019081526020015f206008018281548110610f1957610f196123d8565b905f5260205f20015403610f305760019150610f38565b600101610ead565b5080610f965760405162461bcd60e51b815260206004820152602760248201527f506c6179657220646f6573206e6f74206861766520616c6c207265717569726560448201526664206974656d7360c81b6064820152608401610982565b50600101610ea0565b505f5b8151518110156110dd575f5b335f908152600360205260409020600801548110156110d4578251805183908110610fdb57610fdb6123d8565b602002602001015160035f336001600160a01b03166001600160a01b031681526020019081526020015f20600801828154811061101a5761101a6123d8565b905f5260205f200154036110cc57335f90815260036020526040902060080180546110479060019061261a565b81548110611057576110576123d8565b5f91825260208083209091015433835260039091526040909120600801805483908110611086576110866123d8565b5f9182526020808320909101929092553381526003909152604090206008018054806110b4576110b461262d565b600190038181905f5260205f20015f905590556110d4565b600101610fae565b50600101610fa2565b50335f908152600360209081526040822092810151600890930180546001810182559083529120015550565b5f80516020612699833981519152611120816117be565b61092f611b16565b5f9182525f805160206126b9833981519152602090815260408084206001600160a01b0393909316845291905290205460ff1690565b60056020525f90815260409020805481906111789061240e565b80601f01602080910402602001604051908101604052809291908181526020018280546111a49061240e565b80156111ef5780601f106111c6576101008083540402835291602001916111ef565b820191905f5260205f20905b8154815290600101906020018083116111d257829003601f168201915b505050600190930154919250506001600160a01b031682565b5f8051602061265983398151915261121f816117be565b60408051808201825284815260208082018590526001545f908152600782529290922081518051929391926112579284920190611e48565b5060209182015160019182015554604080519182529181018490527f9becfd2b1fc8127387c5b0002a6cbc8382e6c8fb9f76dfd6cfd92cbe94383d0e910160405180910390a160018054905f6112ac83612602565b9190505550505050565b60026020525f9081526040902080546001820180549192916112d79061240e565b80601f01602080910402602001604051908101604052809291908181526020018280546113039061240e565b801561134e5780601f106113255761010080835404028352916020019161134e565b820191905f5260205f20905b81548152906001019060200180831161133157829003601f168201915b5050505050908060020154908060030154908060040154908060050154905086565b7ff0c57e16840df040f15088dc2f81fe391c3923bec73e23a9662efc9c229c6a008054600160401b810460ff16159067ffffffffffffffff165f811580156113b55750825b90505f8267ffffffffffffffff1660011480156113d15750303b155b9050811580156113df575080155b156113fd5760405163f92ee8a960e01b815260040160405180910390fd5b845467ffffffffffffffff19166001178555831561142757845460ff60401b1916600160401b1785555b61142f611b5e565b611437611b6e565b61143f611b6e565b6114495f896117c8565b506114615f80516020612699833981519152886117c8565b5061148c7f189ab7a9244df0848122154315af71fe140f3db0fe014031783b0946b8c9d2e3876117c8565b506114a45f80516020612659833981519152896117c8565b5083156114eb57845460ff60401b19168555604051600181527fc7f505b2f371ae2175ee4913f4499e1f2633a7b5936321eed1cdaeb6115181d29060200160405180910390a15b5050505050505050565b6004602052815f5260405f20818154811061150e575f80fd5b905f5260205f2090600402015f9150915050805f01805461152e9061240e565b80601f016020809104026020016040519081016040528092919081815260200182805461155a9061240e565b80156115a55780601f1061157c576101008083540402835291602001916115a5565b820191905f5260205f20905b81548152906001019060200180831161158857829003601f168201915b5050505050908060010180546115ba9061240e565b80601f01602080910402602001604051908101604052809291908181526020018280546115e69061240e565b80156116315780601f1061160857610100808354040283529160200191611631565b820191905f5260205f20905b81548152906001019060200180831161161457829003601f168201915b50505050600283015460039093015491929160ff16905084565b611654826107a9565b61165d816117be565b6107e58383611869565b5f6006826040516116789190612403565b908152604051908190036020019020546001600160a01b03169050806116d75760405162461bcd60e51b815260206004820152601460248201527311dd5a5b1908191bd95cc81b9bdd08195e1a5cdd60621b6044820152606401610982565b6001600160a01b0381165f908152600560205260408120905b600282015481101561179457336001600160a01b031682600201828154811061171b5761171b6123d8565b5f918252602090912001546001600160a01b03160361178c5760405162461bcd60e51b815260206004820152602760248201527f53656e64657220697320616c72656164792061206d656d626572206f66207468604482015266194819dd5a5b1960ca1b6064820152608401610982565b6001016116f0565b5060020180546001810182555f91825260209091200180546001600160a01b031916331790555050565b61092f8133611b76565b5f5f805160206126b98339815191526117e18484611128565b611860575f848152602082815260408083206001600160a01b03871684529091529020805460ff191660011790556118163390565b6001600160a01b0316836001600160a01b0316857f2f8788117e7eff1d82e926ec794901d17c78024a50270940304540a733656f0d60405160405180910390a4600191505061066d565b5f91505061066d565b5f5f805160206126b98339815191526118828484611128565b15611860575f848152602082815260408083206001600160a01b0387168085529252808320805460ff1916905551339287917ff6391f5c32d9c69d2a47ea670b442974b53935d1edc7fd64eb21e047a839171b9190a4600191505061066d565b6118ea611baf565b5f805160206126d9833981519152805460ff191681557f5db9ee0a495bf2e6ff9c91a7834c1ba4fdd244a5e8aa4e537bd38aeae4b073aa335b6040516001600160a01b03909116815260200160405180910390a150565b306001600160a01b037f00000000000000000000000000000000000000000000000000000000000000001614806119c757507f00000000000000000000000000000000000000000000000000000000000000006001600160a01b03166119bb5f80516020612679833981519152546001600160a01b031690565b6001600160a01b031614155b156119e55760405163703e46dd60e11b815260040160405180910390fd5b565b7f189ab7a9244df0848122154315af71fe140f3db0fe014031783b0946b8c9d2e36107a5816117be565b816001600160a01b03166352d1902d6040518163ffffffff1660e01b8152600401602060405180830381865afa925050508015611a6b575060408051601f3d908101601f19168201909252611a6891810190612641565b60015b611a9357604051634c9c8ce360e01b81526001600160a01b0383166004820152602401610982565b5f805160206126798339815191528114611ac357604051632a87526960e21b815260048101829052602401610982565b61090b8383611bde565b306001600160a01b037f000000000000000000000000000000000000000000000000000000000000000016146119e55760405163703e46dd60e11b815260040160405180910390fd5b611b1e611c33565b5f805160206126d9833981519152805460ff191660011781557f62e78cea01bee320cd4e420270b5ea74000d11b0c9f74754ebdbfc544b05a25833611923565b611b66611c63565b6119e5611cac565b6119e5611c63565b611b808282611128565b6107a55760405163e2517d3f60e01b81526001600160a01b038216600482015260248101839052604401610982565b5f805160206126d98339815191525460ff166119e557604051638dfc202b60e01b815260040160405180910390fd5b611be782611ccc565b6040516001600160a01b038316907fbc7cd75a20ee27fd9adebab32041f755214dbc6bffa90cc0225b39da2e5c2d3b905f90a2805115611c2b5761090b8282611d2f565b6107a5611da1565b5f805160206126d98339815191525460ff16156119e55760405163d93c066560e01b815260040160405180910390fd5b7ff0c57e16840df040f15088dc2f81fe391c3923bec73e23a9662efc9c229c6a0054600160401b900460ff166119e557604051631afcd79f60e31b815260040160405180910390fd5b611cb4611c63565b5f805160206126d9833981519152805460ff19169055565b806001600160a01b03163b5f03611d0157604051634c9c8ce360e01b81526001600160a01b0382166004820152602401610982565b5f8051602061267983398151915280546001600160a01b0319166001600160a01b0392909216919091179055565b60605f80846001600160a01b031684604051611d4b9190612403565b5f60405180830381855af49150503d805f8114611d83576040519150601f19603f3d011682016040523d82523d5f602084013e611d88565b606091505b5091509150611d98858383611dc0565b95945050505050565b34156119e55760405163b398979f60e01b815260040160405180910390fd5b606082611dd557611dd082611e1f565b611e18565b8151158015611dec57506001600160a01b0384163b155b15611e1557604051639996b31560e01b81526001600160a01b0385166004820152602401610982565b50805b9392505050565b805115611e2f5780518082602001fd5b604051630a12f52160e11b815260040160405180910390fd5b828054828255905f5260205f20908101928215611e81579160200282015b82811115611e81578251825591602001919060010190611e66565b50611e8d929150611ee4565b5090565b828054828255905f5260205f20908101928215611e81579160200282015b82811115611e8157825182546001600160a01b0319166001600160a01b03909116178255602090920191600190910190611eaf565b5b80821115611e8d575f8155600101611ee5565b5f60208284031215611f08575f80fd5b81356001600160e01b031981168114611e18575f80fd5b634e487b7160e01b5f52604160045260245ffd5b604051601f8201601f1916810167ffffffffffffffff81118282101715611f5c57611f5c611f1f565b604052919050565b5f67ffffffffffffffff831115611f7d57611f7d611f1f565b611f90601f8401601f1916602001611f33565b9050828152838383011115611fa3575f80fd5b828260208301375f602084830101529392505050565b5f82601f830112611fc8575f80fd5b611e1883833560208501611f64565b5f60208284031215611fe7575f80fd5b813567ffffffffffffffff811115611ffd575f80fd5b61200984828501611fb9565b949350505050565b5f60208284031215612021575f80fd5b5035919050565b80356001600160a01b038116811461203e575f80fd5b919050565b5f8060408385031215612054575f80fd5b8235915061206460208401612028565b90509250929050565b5f805f805f60a08688031215612081575f80fd5b853567ffffffffffffffff811115612097575f80fd5b6120a388828901611fb9565b9860208801359850604088013597606081013597506080013595509350505050565b5f80604083850312156120d6575f80fd5b6120df83612028565b9150602083013567ffffffffffffffff8111156120fa575f80fd5b8301601f8101851361210a575f80fd5b61211985823560208401611f64565b9150509250929050565b5f8060408385031215612134575f80fd5b823567ffffffffffffffff81111561214a575f80fd5b61215685828601611fb9565b92505061206460208401612028565b5f805f60608486031215612177575f80fd5b833567ffffffffffffffff8082111561218e575f80fd5b61219a87838801611fb9565b945060208601359150808211156121af575f80fd5b506121bc86828701611fb9565b925050604084013590509250925092565b5f602082840312156121dd575f80fd5b611e1882612028565b5f81518084528060208401602086015e5f602082860101526020601f19601f83011685010191505092915050565b604081525f61222660408301856121e6565b905060018060a01b03831660208301529392505050565b5f806040838503121561224e575f80fd5b823567ffffffffffffffff80821115612265575f80fd5b818501915085601f830112612278575f80fd5b813560208282111561228c5761228c611f1f565b8160051b925061229d818401611f33565b82815292840181019281810190898511156122b6575f80fd5b948201945b848610156122d4578535825294820194908201906122bb565b9997909101359750505050505050565b602081525f611e1860208301846121e6565b86815260c060208201525f61230e60c08301886121e6565b90508560408301528460608301528360808301528260a0830152979650505050505050565b5f805f60608486031215612345575f80fd5b61234e84612028565b925061235c60208501612028565b915061236a60408501612028565b90509250925092565b5f8060408385031215612384575f80fd5b61238d83612028565b946020939093013593505050565b608081525f6123ad60808301876121e6565b82810360208401526123bf81876121e6565b6040840195909552505090151560609091015292915050565b634e487b7160e01b5f52603260045260245ffd5b5f81518060208401855e5f93019283525090919050565b5f611e1882846123ec565b600181811c9082168061242257607f821691505b60208210810361244057634e487b7160e01b5f52602260045260245ffd5b50919050565b5f8083546124538161240e565b6001828116801561246b5760018114612480576124ac565b60ff19841687528215158302870194506124ac565b875f526020805f205f5b858110156124a35781548a82015290840190820161248a565b50505082870194505b50929695505050505050565b634e487b7160e01b5f52601160045260245ffd5b8082018082111561066d5761066d6124b8565b601f82111561090b57805f5260205f20601f840160051c810160208510156125045750805b601f840160051c820191505b81811015612523575f8155600101612510565b5050505050565b815167ffffffffffffffff81111561254457612544611f1f565b61255881612552845461240e565b846124df565b602080601f83116001811461258b575f84156125745750858301515b5f19600386901b1c1916600185901b1785556125e2565b5f85815260208120601f198616915b828110156125b95788860151825594840194600190910190840161259a565b50858210156125d657878501515f19600388901b60f8161c191681555b505060018460011b0185555b505050505050565b828152604060208201525f61200960408301846121e6565b5f60018201612613576126136124b8565b5060010190565b8181038181111561066d5761066d6124b8565b634e487b7160e01b5f52603160045260245ffd5b5f60208284031215612651575f80fd5b505191905056fe9b7946abd96dccbe6cfc6cc2c13300ab429d93e16fa72dc459eeccda73817f08360894a13ba1a3210667c828492db98dca3e2076cc3735a920a3ca505d382bbc65d7a28e3265b37a6474929f336521b332c1681b933f6cb9f3376673440d862a02dd7bc7dec4dceedda775e58dd541e08a116c6c53815c0bd028192f7b626800cd5ed15c6e187e77e9aee88184c21f4f2182ab5827cb3b7e07fbedcd63f03300a2646970667358221220ea2b3697326adffd8de11773ad2c8d3456aac56c13e47a40f02f25681bd8a0f164736f6c63430008190033",
					"opcodes": "PUSH1 0xA0 PUSH1 0x40 MSTORE ADDRESS PUSH1 0x80 MSTORE PUSH1 0x1 PUSH0 DUP2 SWAP1 SSTORE DUP1 SSTORE CALLVALUE DUP1 ISZERO PUSH1 0x1A JUMPI PUSH0 DUP1 REVERT JUMPDEST POP PUSH1 0x80 MLOAD PUSH2 0x272E PUSH2 0x41 PUSH0 CODECOPY PUSH0 DUP2 DUP2 PUSH2 0x194C ADD MSTORE DUP2 DUP2 PUSH2 0x1975 ADD MSTORE PUSH2 0x1AD8 ADD MSTORE PUSH2 0x272E PUSH0 RETURN INVALID PUSH1 0x80 PUSH1 0x40 MSTORE PUSH1 0x4 CALLDATASIZE LT PUSH2 0x1C5 JUMPI PUSH0 CALLDATALOAD PUSH1 0xE0 SHR DUP1 PUSH4 0x8456CB59 GT PUSH2 0xF2 JUMPI DUP1 PUSH4 0xBFB231D2 GT PUSH2 0x92 JUMPI DUP1 PUSH4 0xE2EB41FF GT PUSH2 0x62 JUMPI DUP1 PUSH4 0xE2EB41FF EQ PUSH2 0x532 JUMPI DUP1 PUSH4 0xE551BA4B EQ PUSH2 0x5CB JUMPI DUP1 PUSH4 0xE63AB1E9 EQ PUSH2 0x5EA JUMPI DUP1 PUSH4 0xF72C0D8B EQ PUSH2 0x60A JUMPI PUSH0 DUP1 REVERT JUMPDEST DUP1 PUSH4 0xBFB231D2 EQ PUSH2 0x494 JUMPI DUP1 PUSH4 0xC0C53B8B EQ PUSH2 0x4C5 JUMPI DUP1 PUSH4 0xD3DCFF7C EQ PUSH2 0x4E4 JUMPI DUP1 PUSH4 0xD547741F EQ PUSH2 0x513 JUMPI PUSH0 DUP1 REVERT JUMPDEST DUP1 PUSH4 0xA75859E1 GT PUSH2 0xCD JUMPI DUP1 PUSH4 0xA75859E1 EQ PUSH2 0x3EB JUMPI DUP1 PUSH4 0xA9834B67 EQ PUSH2 0x418 JUMPI DUP1 PUSH4 0xAD3CB1CC EQ PUSH2 0x437 JUMPI DUP1 PUSH4 0xBE22D27D EQ PUSH2 0x474 JUMPI PUSH0 DUP1 REVERT JUMPDEST DUP1 PUSH4 0x8456CB59 EQ PUSH2 0x3A5 JUMPI DUP1 PUSH4 0x91D14854 EQ PUSH2 0x3B9 JUMPI DUP1 PUSH4 0xA217FDDF EQ PUSH2 0x3D8 JUMPI PUSH0 DUP1 REVERT JUMPDEST DUP1 PUSH4 0x3FA9FCF8 GT PUSH2 0x168 JUMPI DUP1 PUSH4 0x52D1902D GT PUSH2 0x138 JUMPI DUP1 PUSH4 0x52D1902D EQ PUSH2 0x330 JUMPI DUP1 PUSH4 0x5C975ABB EQ PUSH2 0x344 JUMPI DUP1 PUSH4 0x6F347A78 EQ PUSH2 0x367 JUMPI DUP1 PUSH4 0x7309CBBD EQ PUSH2 0x386 JUMPI PUSH0 DUP1 REVERT JUMPDEST DUP1 PUSH4 0x3FA9FCF8 EQ PUSH2 0x2BC JUMPI DUP1 PUSH4 0x443C227C EQ PUSH2 0x2D0 JUMPI DUP1 PUSH4 0x4F1EF286 EQ PUSH2 0x2FE JUMPI DUP1 PUSH4 0x4FA4A1BB EQ PUSH2 0x311 JUMPI PUSH0 DUP1 REVERT JUMPDEST DUP1 PUSH4 0x2F2FF15D GT PUSH2 0x1A3 JUMPI DUP1 PUSH4 0x2F2FF15D EQ PUSH2 0x24B JUMPI DUP1 PUSH4 0x31FEE8BE EQ PUSH2 0x26A JUMPI DUP1 PUSH4 0x36568ABE EQ PUSH2 0x289 JUMPI DUP1 PUSH4 0x3F4BA83A EQ PUSH2 0x2A8 JUMPI PUSH0 DUP1 REVERT JUMPDEST DUP1 PUSH4 0x1FFC9A7 EQ PUSH2 0x1C9 JUMPI DUP1 PUSH4 0x17435E1A EQ PUSH2 0x1FD JUMPI DUP1 PUSH4 0x248A9CA3 EQ PUSH2 0x21E JUMPI JUMPDEST PUSH0 DUP1 REVERT JUMPDEST CALLVALUE DUP1 ISZERO PUSH2 0x1D4 JUMPI PUSH0 DUP1 REVERT JUMPDEST POP PUSH2 0x1E8 PUSH2 0x1E3 CALLDATASIZE PUSH1 0x4 PUSH2 0x1EF8 JUMP JUMPDEST PUSH2 0x63D JUMP JUMPDEST PUSH1 0x40 MLOAD SWAP1 ISZERO ISZERO DUP2 MSTORE PUSH1 0x20 ADD JUMPDEST PUSH1 0x40 MLOAD DUP1 SWAP2 SUB SWAP1 RETURN JUMPDEST CALLVALUE DUP1 ISZERO PUSH2 0x208 JUMPI PUSH0 DUP1 REVERT JUMPDEST POP PUSH2 0x21C PUSH2 0x217 CALLDATASIZE PUSH1 0x4 PUSH2 0x1FD7 JUMP JUMPDEST PUSH2 0x673 JUMP JUMPDEST STOP JUMPDEST CALLVALUE DUP1 ISZERO PUSH2 0x229 JUMPI PUSH0 DUP1 REVERT JUMPDEST POP PUSH2 0x23D PUSH2 0x238 CALLDATASIZE PUSH1 0x4 PUSH2 0x2011 JUMP JUMPDEST PUSH2 0x7A9 JUMP JUMPDEST PUSH1 0x40 MLOAD SWAP1 DUP2 MSTORE PUSH1 0x20 ADD PUSH2 0x1F4 JUMP JUMPDEST CALLVALUE DUP1 ISZERO PUSH2 0x256 JUMPI PUSH0 DUP1 REVERT JUMPDEST POP PUSH2 0x21C PUSH2 0x265 CALLDATASIZE PUSH1 0x4 PUSH2 0x2043 JUMP JUMPDEST PUSH2 0x7C9 JUMP JUMPDEST CALLVALUE DUP1 ISZERO PUSH2 0x275 JUMPI PUSH0 DUP1 REVERT JUMPDEST POP PUSH2 0x21C PUSH2 0x284 CALLDATASIZE PUSH1 0x4 PUSH2 0x206D JUMP JUMPDEST PUSH2 0x7EB JUMP JUMPDEST CALLVALUE DUP1 ISZERO PUSH2 0x294 JUMPI PUSH0 DUP1 REVERT JUMPDEST POP PUSH2 0x21C PUSH2 0x2A3 CALLDATASIZE PUSH1 0x4 PUSH2 0x2043 JUMP JUMPDEST PUSH2 0x8D8 JUMP JUMPDEST CALLVALUE DUP1 ISZERO PUSH2 0x2B3 JUMPI PUSH0 DUP1 REVERT JUMPDEST POP PUSH2 0x21C PUSH2 0x910 JUMP JUMPDEST CALLVALUE DUP1 ISZERO PUSH2 0x2C7 JUMPI PUSH0 DUP1 REVERT JUMPDEST POP PUSH2 0x21C PUSH2 0x932 JUMP JUMPDEST CALLVALUE DUP1 ISZERO PUSH2 0x2DB JUMPI PUSH0 DUP1 REVERT JUMPDEST POP PUSH2 0x23D PUSH2 0x2EA CALLDATASIZE PUSH1 0x4 PUSH2 0x2011 JUMP JUMPDEST PUSH1 0x7 PUSH1 0x20 MSTORE PUSH0 SWAP1 DUP2 MSTORE PUSH1 0x40 SWAP1 KECCAK256 PUSH1 0x1 ADD SLOAD DUP2 JUMP JUMPDEST PUSH2 0x21C PUSH2 0x30C CALLDATASIZE PUSH1 0x4 PUSH2 0x20C5 JUMP JUMPDEST PUSH2 0xB03 JUMP JUMPDEST CALLVALUE DUP1 ISZERO PUSH2 0x31C JUMPI PUSH0 DUP1 REVERT JUMPDEST POP PUSH2 0x21C PUSH2 0x32B CALLDATASIZE PUSH1 0x4 PUSH2 0x2123 JUMP JUMPDEST PUSH2 0xB1E JUMP JUMPDEST CALLVALUE DUP1 ISZERO PUSH2 0x33B JUMPI PUSH0 DUP1 REVERT JUMPDEST POP PUSH2 0x23D PUSH2 0xD24 JUMP JUMPDEST CALLVALUE DUP1 ISZERO PUSH2 0x34F JUMPI PUSH0 DUP1 REVERT JUMPDEST POP PUSH0 DUP1 MLOAD PUSH1 0x20 PUSH2 0x26D9 DUP4 CODECOPY DUP2 MLOAD SWAP2 MSTORE SLOAD PUSH1 0xFF AND PUSH2 0x1E8 JUMP JUMPDEST CALLVALUE DUP1 ISZERO PUSH2 0x372 JUMPI PUSH0 DUP1 REVERT JUMPDEST POP PUSH2 0x21C PUSH2 0x381 CALLDATASIZE PUSH1 0x4 PUSH2 0x2165 JUMP JUMPDEST PUSH2 0xD3F JUMP JUMPDEST CALLVALUE DUP1 ISZERO PUSH2 0x391 JUMPI PUSH0 DUP1 REVERT JUMPDEST POP PUSH2 0x21C PUSH2 0x3A0 CALLDATASIZE PUSH1 0x4 PUSH2 0x2011 JUMP JUMPDEST PUSH2 0xDEA JUMP JUMPDEST CALLVALUE DUP1 ISZERO PUSH2 0x3B0 JUMPI PUSH0 DUP1 REVERT JUMPDEST POP PUSH2 0x21C PUSH2 0x1109 JUMP JUMPDEST CALLVALUE DUP1 ISZERO PUSH2 0x3C4 JUMPI PUSH0 DUP1 REVERT JUMPDEST POP PUSH2 0x1E8 PUSH2 0x3D3 CALLDATASIZE PUSH1 0x4 PUSH2 0x2043 JUMP JUMPDEST PUSH2 0x1128 JUMP JUMPDEST CALLVALUE DUP1 ISZERO PUSH2 0x3E3 JUMPI PUSH0 DUP1 REVERT JUMPDEST POP PUSH2 0x23D PUSH0 DUP2 JUMP JUMPDEST CALLVALUE DUP1 ISZERO PUSH2 0x3F6 JUMPI PUSH0 DUP1 REVERT JUMPDEST POP PUSH2 0x40A PUSH2 0x405 CALLDATASIZE PUSH1 0x4 PUSH2 0x21CD JUMP JUMPDEST PUSH2 0x115E JUMP JUMPDEST PUSH1 0x40 MLOAD PUSH2 0x1F4 SWAP3 SWAP2 SWAP1 PUSH2 0x2214 JUMP JUMPDEST CALLVALUE DUP1 ISZERO PUSH2 0x423 JUMPI PUSH0 DUP1 REVERT JUMPDEST POP PUSH2 0x21C PUSH2 0x432 CALLDATASIZE PUSH1 0x4 PUSH2 0x223D JUMP JUMPDEST PUSH2 0x1208 JUMP JUMPDEST CALLVALUE DUP1 ISZERO PUSH2 0x442 JUMPI PUSH0 DUP1 REVERT JUMPDEST POP PUSH2 0x467 PUSH1 0x40 MLOAD DUP1 PUSH1 0x40 ADD PUSH1 0x40 MSTORE DUP1 PUSH1 0x5 DUP2 MSTORE PUSH1 0x20 ADD PUSH5 0x352E302E3 PUSH1 0xDC SHL DUP2 MSTORE POP DUP2 JUMP JUMPDEST PUSH1 0x40 MLOAD PUSH2 0x1F4 SWAP2 SWAP1 PUSH2 0x22E4 JUMP JUMPDEST CALLVALUE DUP1 ISZERO PUSH2 0x47F JUMPI PUSH0 DUP1 REVERT JUMPDEST POP PUSH2 0x23D PUSH0 DUP1 MLOAD PUSH1 0x20 PUSH2 0x2659 DUP4 CODECOPY DUP2 MLOAD SWAP2 MSTORE DUP2 JUMP JUMPDEST CALLVALUE DUP1 ISZERO PUSH2 0x49F JUMPI PUSH0 DUP1 REVERT JUMPDEST POP PUSH2 0x4B3 PUSH2 0x4AE CALLDATASIZE PUSH1 0x4 PUSH2 0x2011 JUMP JUMPDEST PUSH2 0x12B6 JUMP JUMPDEST PUSH1 0x40 MLOAD PUSH2 0x1F4 SWAP7 SWAP6 SWAP5 SWAP4 SWAP3 SWAP2 SWAP1 PUSH2 0x22F6 JUMP JUMPDEST CALLVALUE DUP1 ISZERO PUSH2 0x4D0 JUMPI PUSH0 DUP1 REVERT JUMPDEST POP PUSH2 0x21C PUSH2 0x4DF CALLDATASIZE PUSH1 0x4 PUSH2 0x2333 JUMP JUMPDEST PUSH2 0x1370 JUMP JUMPDEST CALLVALUE DUP1 ISZERO PUSH2 0x4EF JUMPI PUSH0 DUP1 REVERT JUMPDEST POP PUSH2 0x503 PUSH2 0x4FE CALLDATASIZE PUSH1 0x4 PUSH2 0x2373 JUMP JUMPDEST PUSH2 0x14F5 JUMP JUMPDEST PUSH1 0x40 MLOAD PUSH2 0x1F4 SWAP5 SWAP4 SWAP3 SWAP2 SWAP1 PUSH2 0x239B JUMP JUMPDEST CALLVALUE DUP1 ISZERO PUSH2 0x51E JUMPI PUSH0 DUP1 REVERT JUMPDEST POP PUSH2 0x21C PUSH2 0x52D CALLDATASIZE PUSH1 0x4 PUSH2 0x2043 JUMP JUMPDEST PUSH2 0x164B JUMP JUMPDEST CALLVALUE DUP1 ISZERO PUSH2 0x53D JUMPI PUSH0 DUP1 REVERT JUMPDEST POP PUSH2 0x590 PUSH2 0x54C CALLDATASIZE PUSH1 0x4 PUSH2 0x21CD JUMP JUMPDEST PUSH1 0x3 PUSH1 0x20 MSTORE DUP1 PUSH0 MSTORE PUSH1 0x40 PUSH0 KECCAK256 PUSH0 SWAP2 POP SWAP1 POP DUP1 PUSH0 ADD SLOAD SWAP1 DUP1 PUSH1 0x1 ADD SLOAD SWAP1 DUP1 PUSH1 0x2 ADD SLOAD SWAP1 DUP1 PUSH1 0x3 ADD SLOAD SWAP1 DUP1 PUSH1 0x4 ADD SLOAD SWAP1 DUP1 PUSH1 0x5 ADD SLOAD SWAP1 DUP1 PUSH1 0x6 ADD SLOAD SWAP1 DUP1 PUSH1 0x7 ADD SLOAD SWAP1 POP DUP9 JUMP JUMPDEST PUSH1 0x40 DUP1 MLOAD SWAP9 DUP10 MSTORE PUSH1 0x20 DUP10 ADD SWAP8 SWAP1 SWAP8 MSTORE SWAP6 DUP8 ADD SWAP5 SWAP1 SWAP5 MSTORE PUSH1 0x60 DUP7 ADD SWAP3 SWAP1 SWAP3 MSTORE PUSH1 0x80 DUP6 ADD MSTORE PUSH1 0xA0 DUP5 ADD MSTORE PUSH1 0xC0 DUP4 ADD MSTORE PUSH1 0xE0 DUP3 ADD MSTORE PUSH2 0x100 ADD PUSH2 0x1F4 JUMP JUMPDEST CALLVALUE DUP1 ISZERO PUSH2 0x5D6 JUMPI PUSH0 DUP1 REVERT JUMPDEST POP PUSH2 0x21C PUSH2 0x5E5 CALLDATASIZE PUSH1 0x4 PUSH2 0x1FD7 JUMP JUMPDEST PUSH2 0x1667 JUMP JUMPDEST CALLVALUE DUP1 ISZERO PUSH2 0x5F5 JUMPI PUSH0 DUP1 REVERT JUMPDEST POP PUSH2 0x23D PUSH0 DUP1 MLOAD PUSH1 0x20 PUSH2 0x2699 DUP4 CODECOPY DUP2 MLOAD SWAP2 MSTORE DUP2 JUMP JUMPDEST CALLVALUE DUP1 ISZERO PUSH2 0x615 JUMPI PUSH0 DUP1 REVERT JUMPDEST POP PUSH2 0x23D PUSH32 0x189AB7A9244DF0848122154315AF71FE140F3DB0FE014031783B0946B8C9D2E3 DUP2 JUMP JUMPDEST PUSH0 PUSH1 0x1 PUSH1 0x1 PUSH1 0xE0 SHL SUB NOT DUP3 AND PUSH4 0x7965DB0B PUSH1 0xE0 SHL EQ DUP1 PUSH2 0x66D JUMPI POP PUSH4 0x1FFC9A7 PUSH1 0xE0 SHL PUSH1 0x1 PUSH1 0x1 PUSH1 0xE0 SHL SUB NOT DUP4 AND EQ JUMPDEST SWAP3 SWAP2 POP POP JUMP JUMPDEST PUSH0 JUMPDEST CALLER PUSH0 SWAP1 DUP2 MSTORE PUSH1 0x4 PUSH1 0x20 MSTORE PUSH1 0x40 SWAP1 KECCAK256 SLOAD DUP2 LT ISZERO PUSH2 0x7A5 JUMPI CALLER PUSH0 SWAP1 DUP2 MSTORE PUSH1 0x4 PUSH1 0x20 MSTORE PUSH1 0x40 DUP2 KECCAK256 DUP1 SLOAD DUP4 SWAP1 DUP2 LT PUSH2 0x6AB JUMPI PUSH2 0x6AB PUSH2 0x23D8 JUMP JUMPDEST SWAP1 PUSH0 MSTORE PUSH1 0x20 PUSH0 KECCAK256 SWAP1 PUSH1 0x4 MUL ADD SWAP1 POP DUP3 PUSH1 0x40 MLOAD PUSH1 0x20 ADD PUSH2 0x6CA SWAP2 SWAP1 PUSH2 0x2403 JUMP JUMPDEST PUSH1 0x40 DUP1 MLOAD PUSH1 0x1F NOT DUP2 DUP5 SUB ADD DUP2 MSTORE SWAP1 DUP3 SWAP1 MSTORE DUP1 MLOAD PUSH1 0x20 SWAP2 DUP3 ADD KECCAK256 SWAP2 PUSH2 0x6F0 SWAP2 DUP5 SWAP2 ADD PUSH2 0x2446 JUMP JUMPDEST PUSH1 0x40 MLOAD PUSH1 0x20 DUP2 DUP4 SUB SUB DUP2 MSTORE SWAP1 PUSH1 0x40 MSTORE DUP1 MLOAD SWAP1 PUSH1 0x20 ADD KECCAK256 EQ DUP1 ISZERO PUSH2 0x718 JUMPI POP PUSH1 0x3 DUP2 ADD SLOAD PUSH1 0xFF AND ISZERO JUMPDEST ISZERO PUSH2 0x79C JUMPI PUSH1 0x3 DUP1 DUP3 ADD DUP1 SLOAD PUSH1 0xFF NOT AND PUSH1 0x1 SWAP1 DUP2 OR SWAP1 SWAP2 SSTORE PUSH1 0x2 DUP4 ADD SLOAD CALLER PUSH0 SWAP1 DUP2 MSTORE PUSH1 0x20 SWAP4 SWAP1 SWAP4 MSTORE PUSH1 0x40 DUP4 KECCAK256 SWAP1 SWAP2 ADD DUP1 SLOAD SWAP2 SWAP3 SWAP1 SWAP2 PUSH2 0x758 SWAP1 DUP5 SWAP1 PUSH2 0x24CC JUMP JUMPDEST SWAP1 SWAP2 SSTORE POP POP PUSH1 0x40 MLOAD CALLER SWAP1 PUSH32 0xBE21664565742A9F42CBB6D005F92DB59C7BCAD35B12EF5B57B79E75676B247A SWAP1 PUSH2 0x78F SWAP1 DUP7 SWAP1 PUSH2 0x22E4 JUMP JUMPDEST PUSH1 0x40 MLOAD DUP1 SWAP2 SUB SWAP1 LOG2 POP POP POP JUMP JUMPDEST POP PUSH1 0x1 ADD PUSH2 0x675 JUMP JUMPDEST POP POP JUMP JUMPDEST PUSH0 SWAP1 DUP2 MSTORE PUSH0 DUP1 MLOAD PUSH1 0x20 PUSH2 0x26B9 DUP4 CODECOPY DUP2 MLOAD SWAP2 MSTORE PUSH1 0x20 MSTORE PUSH1 0x40 SWAP1 KECCAK256 PUSH1 0x1 ADD SLOAD SWAP1 JUMP JUMPDEST PUSH2 0x7D2 DUP3 PUSH2 0x7A9 JUMP JUMPDEST PUSH2 0x7DB DUP2 PUSH2 0x17BE JUMP JUMPDEST PUSH2 0x7E5 DUP4 DUP4 PUSH2 0x17C8 JUMP JUMPDEST POP POP POP POP JUMP JUMPDEST PUSH0 DUP1 MLOAD PUSH1 0x20 PUSH2 0x2659 DUP4 CODECOPY DUP2 MLOAD SWAP2 MSTORE PUSH2 0x802 DUP2 PUSH2 0x17BE JUMP JUMPDEST PUSH1 0x40 DUP1 MLOAD PUSH1 0xC0 DUP2 ADD DUP3 MSTORE PUSH0 DUP1 SLOAD DUP1 DUP4 MSTORE PUSH1 0x20 DUP1 DUP5 ADD DUP12 DUP2 MSTORE DUP5 DUP7 ADD DUP12 SWAP1 MSTORE PUSH1 0x60 DUP6 ADD DUP11 SWAP1 MSTORE PUSH1 0x80 DUP6 ADD DUP10 SWAP1 MSTORE PUSH1 0xA0 DUP6 ADD DUP9 SWAP1 MSTORE SWAP2 DUP4 MSTORE PUSH1 0x2 SWAP1 MSTORE SWAP3 SWAP1 KECCAK256 DUP2 MLOAD DUP2 SSTORE SWAP2 MLOAD SWAP1 SWAP2 SWAP1 PUSH1 0x1 DUP3 ADD SWAP1 PUSH2 0x857 SWAP1 DUP3 PUSH2 0x252A JUMP JUMPDEST POP PUSH1 0x40 DUP3 ADD MLOAD DUP2 PUSH1 0x2 ADD SSTORE PUSH1 0x60 DUP3 ADD MLOAD DUP2 PUSH1 0x3 ADD SSTORE PUSH1 0x80 DUP3 ADD MLOAD DUP2 PUSH1 0x4 ADD SSTORE PUSH1 0xA0 DUP3 ADD MLOAD DUP2 PUSH1 0x5 ADD SSTORE SWAP1 POP POP PUSH32 0x78D68BA0E8C23B92E7C700D99EFED2719520CBD4AF845B2C03AE251F9CDF3D52 PUSH0 SLOAD DUP8 PUSH1 0x40 MLOAD PUSH2 0x8B5 SWAP3 SWAP2 SWAP1 PUSH2 0x25EA JUMP JUMPDEST PUSH1 0x40 MLOAD DUP1 SWAP2 SUB SWAP1 LOG1 PUSH0 DUP1 SLOAD SWAP1 DUP1 PUSH2 0x8CB DUP4 PUSH2 0x2602 JUMP JUMPDEST SWAP2 SWAP1 POP SSTORE POP POP POP POP POP POP POP JUMP JUMPDEST PUSH1 0x1 PUSH1 0x1 PUSH1 0xA0 SHL SUB DUP2 AND CALLER EQ PUSH2 0x901 JUMPI PUSH1 0x40 MLOAD PUSH4 0x334BD919 PUSH1 0xE1 SHL DUP2 MSTORE PUSH1 0x4 ADD PUSH1 0x40 MLOAD DUP1 SWAP2 SUB SWAP1 REVERT JUMPDEST PUSH2 0x90B DUP3 DUP3 PUSH2 0x1869 JUMP JUMPDEST POP POP POP JUMP JUMPDEST PUSH0 DUP1 MLOAD PUSH1 0x20 PUSH2 0x2699 DUP4 CODECOPY DUP2 MLOAD SWAP2 MSTORE PUSH2 0x927 DUP2 PUSH2 0x17BE JUMP JUMPDEST PUSH2 0x92F PUSH2 0x18E2 JUMP JUMPDEST POP JUMP JUMPDEST CALLER PUSH0 SWAP1 DUP2 MSTORE PUSH1 0x3 PUSH1 0x20 MSTORE PUSH1 0x40 SWAP1 KECCAK256 SLOAD ISZERO PUSH2 0x98B JUMPI PUSH1 0x40 MLOAD PUSH3 0x461BCD PUSH1 0xE5 SHL DUP2 MSTORE PUSH1 0x20 PUSH1 0x4 DUP3 ADD MSTORE PUSH1 0x15 PUSH1 0x24 DUP3 ADD MSTORE PUSH21 0x506C6179657220616C726561647920657869737473 PUSH1 0x58 SHL PUSH1 0x44 DUP3 ADD MSTORE PUSH1 0x64 ADD JUMPDEST PUSH1 0x40 MLOAD DUP1 SWAP2 SUB SWAP1 REVERT JUMPDEST PUSH1 0x40 MLOAD DUP1 PUSH2 0x140 ADD PUSH1 0x40 MSTORE DUP1 PUSH1 0x1 DUP2 MSTORE PUSH1 0x20 ADD PUSH0 DUP2 MSTORE PUSH1 0x20 ADD PUSH1 0x64 DUP2 MSTORE PUSH1 0x20 ADD PUSH1 0x32 DUP2 MSTORE PUSH1 0x20 ADD PUSH1 0xA DUP2 MSTORE PUSH1 0x20 ADD PUSH1 0x5 DUP2 MSTORE PUSH1 0x20 ADD PUSH1 0x3 DUP2 MSTORE PUSH1 0x20 ADD PUSH1 0x2 DUP2 MSTORE PUSH1 0x20 ADD PUSH0 PUSH8 0xFFFFFFFFFFFFFFFF DUP2 GT ISZERO PUSH2 0x9E7 JUMPI PUSH2 0x9E7 PUSH2 0x1F1F JUMP JUMPDEST PUSH1 0x40 MLOAD SWAP1 DUP1 DUP3 MSTORE DUP1 PUSH1 0x20 MUL PUSH1 0x20 ADD DUP3 ADD PUSH1 0x40 MSTORE DUP1 ISZERO PUSH2 0xA10 JUMPI DUP2 PUSH1 0x20 ADD PUSH1 0x20 DUP3 MUL DUP1 CALLDATASIZE DUP4 CALLDATACOPY ADD SWAP1 POP JUMPDEST POP DUP2 MSTORE PUSH1 0x20 ADD PUSH0 PUSH1 0x40 MLOAD SWAP1 DUP1 DUP3 MSTORE DUP1 PUSH1 0x20 MUL PUSH1 0x20 ADD DUP3 ADD PUSH1 0x40 MSTORE DUP1 ISZERO PUSH2 0xA40 JUMPI DUP2 PUSH1 0x20 ADD PUSH1 0x20 DUP3 MUL DUP1 CALLDATASIZE DUP4 CALLDATACOPY ADD SWAP1 POP JUMPDEST POP SWAP1 MSTORE CALLER PUSH0 SWAP1 DUP2 MSTORE PUSH1 0x3 PUSH1 0x20 DUP2 DUP2 MSTORE PUSH1 0x40 SWAP3 DUP4 SWAP1 KECCAK256 DUP5 MLOAD DUP2 SSTORE DUP5 DUP3 ADD MLOAD PUSH1 0x1 DUP3 ADD SSTORE SWAP3 DUP5 ADD MLOAD PUSH1 0x2 DUP5 ADD SSTORE PUSH1 0x60 DUP5 ADD MLOAD SWAP2 DUP4 ADD SWAP2 SWAP1 SWAP2 SSTORE PUSH1 0x80 DUP4 ADD MLOAD PUSH1 0x4 DUP4 ADD SSTORE PUSH1 0xA0 DUP4 ADD MLOAD PUSH1 0x5 DUP4 ADD SSTORE PUSH1 0xC0 DUP4 ADD MLOAD PUSH1 0x6 DUP4 ADD SSTORE PUSH1 0xE0 DUP4 ADD MLOAD PUSH1 0x7 DUP4 ADD SSTORE PUSH2 0x100 DUP4 ADD MLOAD DUP1 MLOAD PUSH2 0xAB7 SWAP3 PUSH1 0x8 DUP6 ADD SWAP3 ADD SWAP1 PUSH2 0x1E48 JUMP JUMPDEST POP PUSH2 0x120 DUP3 ADD MLOAD DUP1 MLOAD PUSH2 0xAD4 SWAP2 PUSH1 0x9 DUP5 ADD SWAP2 PUSH1 0x20 SWAP1 SWAP2 ADD SWAP1 PUSH2 0x1E48 JUMP JUMPDEST POP POP PUSH1 0x40 MLOAD CALLER SWAP2 POP PUSH32 0xB4CCA19A27CE42915C3CEE0CEE28FC5D90969EE49F09EC71659546A63B5F7BC0 SWAP1 PUSH0 SWAP1 LOG2 JUMP JUMPDEST PUSH2 0xB0B PUSH2 0x1941 JUMP JUMPDEST PUSH2 0xB14 DUP3 PUSH2 0x19E7 JUMP JUMPDEST PUSH2 0x7A5 DUP3 DUP3 PUSH2 0x1A11 JUMP JUMPDEST PUSH0 DUP1 MLOAD PUSH1 0x20 PUSH2 0x2659 DUP4 CODECOPY DUP2 MLOAD SWAP2 MSTORE PUSH2 0xB35 DUP2 PUSH2 0x17BE JUMP JUMPDEST PUSH0 PUSH1 0x1 PUSH1 0x1 PUSH1 0xA0 SHL SUB AND PUSH1 0x6 DUP5 PUSH1 0x40 MLOAD PUSH2 0xB4F SWAP2 SWAP1 PUSH2 0x2403 JUMP JUMPDEST SWAP1 DUP2 MSTORE PUSH1 0x40 MLOAD SWAP1 DUP2 SWAP1 SUB PUSH1 0x20 ADD SWAP1 KECCAK256 SLOAD PUSH1 0x1 PUSH1 0x1 PUSH1 0xA0 SHL SUB AND EQ PUSH2 0xBAC JUMPI PUSH1 0x40 MLOAD PUSH3 0x461BCD PUSH1 0xE5 SHL DUP2 MSTORE PUSH1 0x20 PUSH1 0x4 DUP3 ADD MSTORE PUSH1 0x14 PUSH1 0x24 DUP3 ADD MSTORE PUSH20 0x4775696C6420616C726561647920657869737473 PUSH1 0x60 SHL PUSH1 0x44 DUP3 ADD MSTORE PUSH1 0x64 ADD PUSH2 0x982 JUMP JUMPDEST PUSH1 0x40 DUP1 MLOAD PUSH1 0x60 DUP2 ADD DUP3 MSTORE DUP5 DUP2 MSTORE PUSH1 0x1 PUSH1 0x1 PUSH1 0xA0 SHL SUB DUP5 AND PUSH1 0x20 DUP3 ADD MSTORE DUP2 MLOAD PUSH1 0x1 DUP1 DUP3 MSTORE DUP2 DUP5 ADD DUP5 MSTORE SWAP2 SWAP3 DUP4 ADD SWAP2 DUP2 PUSH1 0x20 ADD PUSH1 0x20 DUP3 MUL DUP1 CALLDATASIZE DUP4 CALLDATACOPY POP POP POP SWAP1 MSTORE PUSH1 0x1 PUSH1 0x1 PUSH1 0xA0 SHL SUB DUP4 AND PUSH0 SWAP1 DUP2 MSTORE PUSH1 0x5 PUSH1 0x20 MSTORE PUSH1 0x40 SWAP1 KECCAK256 DUP2 MLOAD DUP2 SWAP1 PUSH2 0xC0F SWAP1 DUP3 PUSH2 0x252A JUMP JUMPDEST POP PUSH1 0x20 DUP3 DUP2 ADD MLOAD PUSH1 0x1 DUP4 ADD DUP1 SLOAD PUSH1 0x1 PUSH1 0x1 PUSH1 0xA0 SHL SUB NOT AND PUSH1 0x1 PUSH1 0x1 PUSH1 0xA0 SHL SUB SWAP1 SWAP3 AND SWAP2 SWAP1 SWAP2 OR SWAP1 SSTORE PUSH1 0x40 DUP4 ADD MLOAD DUP1 MLOAD PUSH2 0xC4E SWAP3 PUSH1 0x2 DUP6 ADD SWAP3 ADD SWAP1 PUSH2 0x1E91 JUMP JUMPDEST POP POP POP PUSH1 0x1 PUSH1 0x1 PUSH1 0xA0 SHL SUB DUP3 AND PUSH0 SWAP1 DUP2 MSTORE PUSH1 0x5 PUSH1 0x20 MSTORE PUSH1 0x40 DUP2 KECCAK256 PUSH1 0x2 ADD DUP1 SLOAD DUP5 SWAP3 SWAP1 PUSH2 0xC7C JUMPI PUSH2 0xC7C PUSH2 0x23D8 JUMP JUMPDEST SWAP1 PUSH0 MSTORE PUSH1 0x20 PUSH0 KECCAK256 ADD PUSH0 PUSH2 0x100 EXP DUP2 SLOAD DUP2 PUSH1 0x1 PUSH1 0x1 PUSH1 0xA0 SHL SUB MUL NOT AND SWAP1 DUP4 PUSH1 0x1 PUSH1 0x1 PUSH1 0xA0 SHL SUB AND MUL OR SWAP1 SSTORE POP DUP2 PUSH1 0x6 DUP5 PUSH1 0x40 MLOAD PUSH2 0xCB8 SWAP2 SWAP1 PUSH2 0x2403 JUMP JUMPDEST SWAP1 DUP2 MSTORE PUSH1 0x40 MLOAD SWAP1 DUP2 SWAP1 SUB PUSH1 0x20 ADD DUP2 KECCAK256 DUP1 SLOAD PUSH1 0x1 PUSH1 0x1 PUSH1 0xA0 SHL SUB SWAP4 SWAP1 SWAP4 AND PUSH1 0x1 PUSH1 0x1 PUSH1 0xA0 SHL SUB NOT SWAP1 SWAP4 AND SWAP3 SWAP1 SWAP3 OR SWAP1 SWAP2 SSTORE PUSH32 0x72208535A97B2E307167838C66AACD47F8DE3A2CB92BC2DDB2B2B52009C9FD5 SWAP1 PUSH2 0xD17 SWAP1 DUP6 SWAP1 DUP6 SWAP1 PUSH2 0x2214 JUMP JUMPDEST PUSH1 0x40 MLOAD DUP1 SWAP2 SUB SWAP1 LOG1 POP POP POP JUMP JUMPDEST PUSH0 PUSH2 0xD2D PUSH2 0x1ACD JUMP JUMPDEST POP PUSH0 DUP1 MLOAD PUSH1 0x20 PUSH2 0x2679 DUP4 CODECOPY DUP2 MLOAD SWAP2 MSTORE SWAP1 JUMP JUMPDEST PUSH0 DUP1 MLOAD PUSH1 0x20 PUSH2 0x2659 DUP4 CODECOPY DUP2 MLOAD SWAP2 MSTORE PUSH2 0xD56 DUP2 PUSH2 0x17BE JUMP JUMPDEST CALLER PUSH0 SWAP1 DUP2 MSTORE PUSH1 0x4 PUSH1 0x20 DUP2 DUP2 MSTORE PUSH1 0x40 DUP1 DUP5 KECCAK256 DUP2 MLOAD PUSH1 0x80 DUP2 ADD DUP4 MSTORE DUP10 DUP2 MSTORE DUP1 DUP5 ADD DUP10 SWAP1 MSTORE SWAP2 DUP3 ADD DUP8 SWAP1 MSTORE PUSH1 0x60 DUP3 ADD DUP6 SWAP1 MSTORE DUP1 SLOAD PUSH1 0x1 DUP2 ADD DUP3 SSTORE SWAP1 DUP6 MSTORE SWAP2 SWAP1 SWAP4 KECCAK256 DUP4 MLOAD SWAP2 SWAP1 SWAP3 MUL SWAP1 SWAP2 ADD SWAP1 DUP2 SWAP1 PUSH2 0xDAA SWAP1 DUP3 PUSH2 0x252A JUMP JUMPDEST POP PUSH1 0x20 DUP3 ADD MLOAD PUSH1 0x1 DUP3 ADD SWAP1 PUSH2 0xDBF SWAP1 DUP3 PUSH2 0x252A JUMP JUMPDEST POP PUSH1 0x40 DUP3 ADD MLOAD PUSH1 0x2 DUP3 ADD SSTORE PUSH1 0x60 SWAP1 SWAP2 ADD MLOAD PUSH1 0x3 SWAP1 SWAP2 ADD DUP1 SLOAD PUSH1 0xFF NOT AND SWAP2 ISZERO ISZERO SWAP2 SWAP1 SWAP2 OR SWAP1 SSTORE POP POP POP POP JUMP JUMPDEST PUSH0 DUP2 DUP2 MSTORE PUSH1 0x7 PUSH1 0x20 SWAP1 DUP2 MSTORE PUSH1 0x40 DUP1 DUP4 KECCAK256 DUP2 MLOAD DUP2 SLOAD PUSH1 0x60 SWAP5 DUP2 MUL DUP3 ADD DUP6 ADD DUP5 MSTORE SWAP3 DUP2 ADD DUP4 DUP2 MSTORE SWAP1 SWAP4 SWAP2 SWAP3 DUP5 SWAP3 DUP5 SWAP2 SWAP1 DUP5 ADD DUP3 DUP3 DUP1 ISZERO PUSH2 0xE45 JUMPI PUSH1 0x20 MUL DUP3 ADD SWAP2 SWAP1 PUSH0 MSTORE PUSH1 0x20 PUSH0 KECCAK256 SWAP1 JUMPDEST DUP2 SLOAD DUP2 MSTORE PUSH1 0x20 ADD SWAP1 PUSH1 0x1 ADD SWAP1 DUP1 DUP4 GT PUSH2 0xE31 JUMPI JUMPDEST POP POP POP POP POP DUP2 MSTORE PUSH1 0x20 ADD PUSH1 0x1 DUP3 ADD SLOAD DUP2 MSTORE POP POP SWAP1 POP PUSH0 DUP2 PUSH0 ADD MLOAD MLOAD GT PUSH2 0xE9E JUMPI PUSH1 0x40 MLOAD PUSH3 0x461BCD PUSH1 0xE5 SHL DUP2 MSTORE PUSH1 0x20 PUSH1 0x4 DUP3 ADD MSTORE PUSH1 0xE PUSH1 0x24 DUP3 ADD MSTORE PUSH14 0x496E76616C696420726563697065 PUSH1 0x90 SHL PUSH1 0x44 DUP3 ADD MSTORE PUSH1 0x64 ADD PUSH2 0x982 JUMP JUMPDEST PUSH0 JUMPDEST DUP2 MLOAD MLOAD DUP2 LT ISZERO PUSH2 0xF9F JUMPI PUSH0 DUP1 JUMPDEST CALLER PUSH0 SWAP1 DUP2 MSTORE PUSH1 0x3 PUSH1 0x20 MSTORE PUSH1 0x40 SWAP1 KECCAK256 PUSH1 0x8 ADD SLOAD DUP2 LT ISZERO PUSH2 0xF38 JUMPI DUP4 MLOAD DUP1 MLOAD DUP5 SWAP1 DUP2 LT PUSH2 0xEDA JUMPI PUSH2 0xEDA PUSH2 0x23D8 JUMP JUMPDEST PUSH1 0x20 MUL PUSH1 0x20 ADD ADD MLOAD PUSH1 0x3 PUSH0 CALLER PUSH1 0x1 PUSH1 0x1 PUSH1 0xA0 SHL SUB AND PUSH1 0x1 PUSH1 0x1 PUSH1 0xA0 SHL SUB AND DUP2 MSTORE PUSH1 0x20 ADD SWAP1 DUP2 MSTORE PUSH1 0x20 ADD PUSH0 KECCAK256 PUSH1 0x8 ADD DUP3 DUP2 SLOAD DUP2 LT PUSH2 0xF19 JUMPI PUSH2 0xF19 PUSH2 0x23D8 JUMP JUMPDEST SWAP1 PUSH0 MSTORE PUSH1 0x20 PUSH0 KECCAK256 ADD SLOAD SUB PUSH2 0xF30 JUMPI PUSH1 0x1 SWAP2 POP PUSH2 0xF38 JUMP JUMPDEST PUSH1 0x1 ADD PUSH2 0xEAD JUMP JUMPDEST POP DUP1 PUSH2 0xF96 JUMPI PUSH1 0x40 MLOAD PUSH3 0x461BCD PUSH1 0xE5 SHL DUP2 MSTORE PUSH1 0x20 PUSH1 0x4 DUP3 ADD MSTORE PUSH1 0x27 PUSH1 0x24 DUP3 ADD MSTORE PUSH32 0x506C6179657220646F6573206E6F74206861766520616C6C2072657175697265 PUSH1 0x44 DUP3 ADD MSTORE PUSH7 0x64206974656D73 PUSH1 0xC8 SHL PUSH1 0x64 DUP3 ADD MSTORE PUSH1 0x84 ADD PUSH2 0x982 JUMP JUMPDEST POP PUSH1 0x1 ADD PUSH2 0xEA0 JUMP JUMPDEST POP PUSH0 JUMPDEST DUP2 MLOAD MLOAD DUP2 LT ISZERO PUSH2 0x10DD JUMPI PUSH0 JUMPDEST CALLER PUSH0 SWAP1 DUP2 MSTORE PUSH1 0x3 PUSH1 0x20 MSTORE PUSH1 0x40 SWAP1 KECCAK256 PUSH1 0x8 ADD SLOAD DUP2 LT ISZERO PUSH2 0x10D4 JUMPI DUP3 MLOAD DUP1 MLOAD DUP4 SWAP1 DUP2 LT PUSH2 0xFDB JUMPI PUSH2 0xFDB PUSH2 0x23D8 JUMP JUMPDEST PUSH1 0x20 MUL PUSH1 0x20 ADD ADD MLOAD PUSH1 0x3 PUSH0 CALLER PUSH1 0x1 PUSH1 0x1 PUSH1 0xA0 SHL SUB AND PUSH1 0x1 PUSH1 0x1 PUSH1 0xA0 SHL SUB AND DUP2 MSTORE PUSH1 0x20 ADD SWAP1 DUP2 MSTORE PUSH1 0x20 ADD PUSH0 KECCAK256 PUSH1 0x8 ADD DUP3 DUP2 SLOAD DUP2 LT PUSH2 0x101A JUMPI PUSH2 0x101A PUSH2 0x23D8 JUMP JUMPDEST SWAP1 PUSH0 MSTORE PUSH1 0x20 PUSH0 KECCAK256 ADD SLOAD SUB PUSH2 0x10CC JUMPI CALLER PUSH0 SWAP1 DUP2 MSTORE PUSH1 0x3 PUSH1 0x20 MSTORE PUSH1 0x40 SWAP1 KECCAK256 PUSH1 0x8 ADD DUP1 SLOAD PUSH2 0x1047 SWAP1 PUSH1 0x1 SWAP1 PUSH2 0x261A JUMP JUMPDEST DUP2 SLOAD DUP2 LT PUSH2 0x1057 JUMPI PUSH2 0x1057 PUSH2 0x23D8 JUMP JUMPDEST PUSH0 SWAP2 DUP3 MSTORE PUSH1 0x20 DUP1 DUP4 KECCAK256 SWAP1 SWAP2 ADD SLOAD CALLER DUP4 MSTORE PUSH1 0x3 SWAP1 SWAP2 MSTORE PUSH1 0x40 SWAP1 SWAP2 KECCAK256 PUSH1 0x8 ADD DUP1 SLOAD DUP4 SWAP1 DUP2 LT PUSH2 0x1086 JUMPI PUSH2 0x1086 PUSH2 0x23D8 JUMP JUMPDEST PUSH0 SWAP2 DUP3 MSTORE PUSH1 0x20 DUP1 DUP4 KECCAK256 SWAP1 SWAP2 ADD SWAP3 SWAP1 SWAP3 SSTORE CALLER DUP2 MSTORE PUSH1 0x3 SWAP1 SWAP2 MSTORE PUSH1 0x40 SWAP1 KECCAK256 PUSH1 0x8 ADD DUP1 SLOAD DUP1 PUSH2 0x10B4 JUMPI PUSH2 0x10B4 PUSH2 0x262D JUMP JUMPDEST PUSH1 0x1 SWAP1 SUB DUP2 DUP2 SWAP1 PUSH0 MSTORE PUSH1 0x20 PUSH0 KECCAK256 ADD PUSH0 SWAP1 SSTORE SWAP1 SSTORE PUSH2 0x10D4 JUMP JUMPDEST PUSH1 0x1 ADD PUSH2 0xFAE JUMP JUMPDEST POP PUSH1 0x1 ADD PUSH2 0xFA2 JUMP JUMPDEST POP CALLER PUSH0 SWAP1 DUP2 MSTORE PUSH1 0x3 PUSH1 0x20 SWAP1 DUP2 MSTORE PUSH1 0x40 DUP3 KECCAK256 SWAP3 DUP2 ADD MLOAD PUSH1 0x8 SWAP1 SWAP4 ADD DUP1 SLOAD PUSH1 0x1 DUP2 ADD DUP3 SSTORE SWAP1 DUP4 MSTORE SWAP2 KECCAK256 ADD SSTORE POP JUMP JUMPDEST PUSH0 DUP1 MLOAD PUSH1 0x20 PUSH2 0x2699 DUP4 CODECOPY DUP2 MLOAD SWAP2 MSTORE PUSH2 0x1120 DUP2 PUSH2 0x17BE JUMP JUMPDEST PUSH2 0x92F PUSH2 0x1B16 JUMP JUMPDEST PUSH0 SWAP2 DUP3 MSTORE PUSH0 DUP1 MLOAD PUSH1 0x20 PUSH2 0x26B9 DUP4 CODECOPY DUP2 MLOAD SWAP2 MSTORE PUSH1 0x20 SWAP1 DUP2 MSTORE PUSH1 0x40 DUP1 DUP5 KECCAK256 PUSH1 0x1 PUSH1 0x1 PUSH1 0xA0 SHL SUB SWAP4 SWAP1 SWAP4 AND DUP5 MSTORE SWAP2 SWAP1 MSTORE SWAP1 KECCAK256 SLOAD PUSH1 0xFF AND SWAP1 JUMP JUMPDEST PUSH1 0x5 PUSH1 0x20 MSTORE PUSH0 SWAP1 DUP2 MSTORE PUSH1 0x40 SWAP1 KECCAK256 DUP1 SLOAD DUP2 SWAP1 PUSH2 0x1178 SWAP1 PUSH2 0x240E JUMP JUMPDEST DUP1 PUSH1 0x1F ADD PUSH1 0x20 DUP1 SWAP2 DIV MUL PUSH1 0x20 ADD PUSH1 0x40 MLOAD SWAP1 DUP2 ADD PUSH1 0x40 MSTORE DUP1 SWAP3 SWAP2 SWAP1 DUP2 DUP2 MSTORE PUSH1 0x20 ADD DUP3 DUP1 SLOAD PUSH2 0x11A4 SWAP1 PUSH2 0x240E JUMP JUMPDEST DUP1 ISZERO PUSH2 0x11EF JUMPI DUP1 PUSH1 0x1F LT PUSH2 0x11C6 JUMPI PUSH2 0x100 DUP1 DUP4 SLOAD DIV MUL DUP4 MSTORE SWAP2 PUSH1 0x20 ADD SWAP2 PUSH2 0x11EF JUMP JUMPDEST DUP3 ADD SWAP2 SWAP1 PUSH0 MSTORE PUSH1 0x20 PUSH0 KECCAK256 SWAP1 JUMPDEST DUP2 SLOAD DUP2 MSTORE SWAP1 PUSH1 0x1 ADD SWAP1 PUSH1 0x20 ADD DUP1 DUP4 GT PUSH2 0x11D2 JUMPI DUP3 SWAP1 SUB PUSH1 0x1F AND DUP3 ADD SWAP2 JUMPDEST POP POP POP PUSH1 0x1 SWAP1 SWAP4 ADD SLOAD SWAP2 SWAP3 POP POP PUSH1 0x1 PUSH1 0x1 PUSH1 0xA0 SHL SUB AND DUP3 JUMP JUMPDEST PUSH0 DUP1 MLOAD PUSH1 0x20 PUSH2 0x2659 DUP4 CODECOPY DUP2 MLOAD SWAP2 MSTORE PUSH2 0x121F DUP2 PUSH2 0x17BE JUMP JUMPDEST PUSH1 0x40 DUP1 MLOAD DUP1 DUP3 ADD DUP3 MSTORE DUP5 DUP2 MSTORE PUSH1 0x20 DUP1 DUP3 ADD DUP6 SWAP1 MSTORE PUSH1 0x1 SLOAD PUSH0 SWAP1 DUP2 MSTORE PUSH1 0x7 DUP3 MSTORE SWAP3 SWAP1 SWAP3 KECCAK256 DUP2 MLOAD DUP1 MLOAD SWAP3 SWAP4 SWAP2 SWAP3 PUSH2 0x1257 SWAP3 DUP5 SWAP3 ADD SWAP1 PUSH2 0x1E48 JUMP JUMPDEST POP PUSH1 0x20 SWAP2 DUP3 ADD MLOAD PUSH1 0x1 SWAP2 DUP3 ADD SSTORE SLOAD PUSH1 0x40 DUP1 MLOAD SWAP2 DUP3 MSTORE SWAP2 DUP2 ADD DUP5 SWAP1 MSTORE PUSH32 0x9BECFD2B1FC8127387C5B0002A6CBC8382E6C8FB9F76DFD6CFD92CBE94383D0E SWAP2 ADD PUSH1 0x40 MLOAD DUP1 SWAP2 SUB SWAP1 LOG1 PUSH1 0x1 DUP1 SLOAD SWAP1 PUSH0 PUSH2 0x12AC DUP4 PUSH2 0x2602 JUMP JUMPDEST SWAP2 SWAP1 POP SSTORE POP POP POP POP JUMP JUMPDEST PUSH1 0x2 PUSH1 0x20 MSTORE PUSH0 SWAP1 DUP2 MSTORE PUSH1 0x40 SWAP1 KECCAK256 DUP1 SLOAD PUSH1 0x1 DUP3 ADD DUP1 SLOAD SWAP2 SWAP3 SWAP2 PUSH2 0x12D7 SWAP1 PUSH2 0x240E JUMP JUMPDEST DUP1 PUSH1 0x1F ADD PUSH1 0x20 DUP1 SWAP2 DIV MUL PUSH1 0x20 ADD PUSH1 0x40 MLOAD SWAP1 DUP2 ADD PUSH1 0x40 MSTORE DUP1 SWAP3 SWAP2 SWAP1 DUP2 DUP2 MSTORE PUSH1 0x20 ADD DUP3 DUP1 SLOAD PUSH2 0x1303 SWAP1 PUSH2 0x240E JUMP JUMPDEST DUP1 ISZERO PUSH2 0x134E JUMPI DUP1 PUSH1 0x1F LT PUSH2 0x1325 JUMPI PUSH2 0x100 DUP1 DUP4 SLOAD DIV MUL DUP4 MSTORE SWAP2 PUSH1 0x20 ADD SWAP2 PUSH2 0x134E JUMP JUMPDEST DUP3 ADD SWAP2 SWAP1 PUSH0 MSTORE PUSH1 0x20 PUSH0 KECCAK256 SWAP1 JUMPDEST DUP2 SLOAD DUP2 MSTORE SWAP1 PUSH1 0x1 ADD SWAP1 PUSH1 0x20 ADD DUP1 DUP4 GT PUSH2 0x1331 JUMPI DUP3 SWAP1 SUB PUSH1 0x1F AND DUP3 ADD SWAP2 JUMPDEST POP POP POP POP POP SWAP1 DUP1 PUSH1 0x2 ADD SLOAD SWAP1 DUP1 PUSH1 0x3 ADD SLOAD SWAP1 DUP1 PUSH1 0x4 ADD SLOAD SWAP1 DUP1 PUSH1 0x5 ADD SLOAD SWAP1 POP DUP7 JUMP JUMPDEST PUSH32 0xF0C57E16840DF040F15088DC2F81FE391C3923BEC73E23A9662EFC9C229C6A00 DUP1 SLOAD PUSH1 0x1 PUSH1 0x40 SHL DUP2 DIV PUSH1 0xFF AND ISZERO SWAP1 PUSH8 0xFFFFFFFFFFFFFFFF AND PUSH0 DUP2 ISZERO DUP1 ISZERO PUSH2 0x13B5 JUMPI POP DUP3 JUMPDEST SWAP1 POP PUSH0 DUP3 PUSH8 0xFFFFFFFFFFFFFFFF AND PUSH1 0x1 EQ DUP1 ISZERO PUSH2 0x13D1 JUMPI POP ADDRESS EXTCODESIZE ISZERO JUMPDEST SWAP1 POP DUP2 ISZERO DUP1 ISZERO PUSH2 0x13DF JUMPI POP DUP1 ISZERO JUMPDEST ISZERO PUSH2 0x13FD JUMPI PUSH1 0x40 MLOAD PUSH4 0xF92EE8A9 PUSH1 0xE0 SHL DUP2 MSTORE PUSH1 0x4 ADD PUSH1 0x40 MLOAD DUP1 SWAP2 SUB SWAP1 REVERT JUMPDEST DUP5 SLOAD PUSH8 0xFFFFFFFFFFFFFFFF NOT AND PUSH1 0x1 OR DUP6 SSTORE DUP4 ISZERO PUSH2 0x1427 JUMPI DUP5 SLOAD PUSH1 0xFF PUSH1 0x40 SHL NOT AND PUSH1 0x1 PUSH1 0x40 SHL OR DUP6 SSTORE JUMPDEST PUSH2 0x142F PUSH2 0x1B5E JUMP JUMPDEST PUSH2 0x1437 PUSH2 0x1B6E JUMP JUMPDEST PUSH2 0x143F PUSH2 0x1B6E JUMP JUMPDEST PUSH2 0x1449 PUSH0 DUP10 PUSH2 0x17C8 JUMP JUMPDEST POP PUSH2 0x1461 PUSH0 DUP1 MLOAD PUSH1 0x20 PUSH2 0x2699 DUP4 CODECOPY DUP2 MLOAD SWAP2 MSTORE DUP9 PUSH2 0x17C8 JUMP JUMPDEST POP PUSH2 0x148C PUSH32 0x189AB7A9244DF0848122154315AF71FE140F3DB0FE014031783B0946B8C9D2E3 DUP8 PUSH2 0x17C8 JUMP JUMPDEST POP PUSH2 0x14A4 PUSH0 DUP1 MLOAD PUSH1 0x20 PUSH2 0x2659 DUP4 CODECOPY DUP2 MLOAD SWAP2 MSTORE DUP10 PUSH2 0x17C8 JUMP JUMPDEST POP DUP4 ISZERO PUSH2 0x14EB JUMPI DUP5 SLOAD PUSH1 0xFF PUSH1 0x40 SHL NOT AND DUP6 SSTORE PUSH1 0x40 MLOAD PUSH1 0x1 DUP2 MSTORE PUSH32 0xC7F505B2F371AE2175EE4913F4499E1F2633A7B5936321EED1CDAEB6115181D2 SWAP1 PUSH1 0x20 ADD PUSH1 0x40 MLOAD DUP1 SWAP2 SUB SWAP1 LOG1 JUMPDEST POP POP POP POP POP POP POP POP JUMP JUMPDEST PUSH1 0x4 PUSH1 0x20 MSTORE DUP2 PUSH0 MSTORE PUSH1 0x40 PUSH0 KECCAK256 DUP2 DUP2 SLOAD DUP2 LT PUSH2 0x150E JUMPI PUSH0 DUP1 REVERT JUMPDEST SWAP1 PUSH0 MSTORE PUSH1 0x20 PUSH0 KECCAK256 SWAP1 PUSH1 0x4 MUL ADD PUSH0 SWAP2 POP SWAP2 POP POP DUP1 PUSH0 ADD DUP1 SLOAD PUSH2 0x152E SWAP1 PUSH2 0x240E JUMP JUMPDEST DUP1 PUSH1 0x1F ADD PUSH1 0x20 DUP1 SWAP2 DIV MUL PUSH1 0x20 ADD PUSH1 0x40 MLOAD SWAP1 DUP2 ADD PUSH1 0x40 MSTORE DUP1 SWAP3 SWAP2 SWAP1 DUP2 DUP2 MSTORE PUSH1 0x20 ADD DUP3 DUP1 SLOAD PUSH2 0x155A SWAP1 PUSH2 0x240E JUMP JUMPDEST DUP1 ISZERO PUSH2 0x15A5 JUMPI DUP1 PUSH1 0x1F LT PUSH2 0x157C JUMPI PUSH2 0x100 DUP1 DUP4 SLOAD DIV MUL DUP4 MSTORE SWAP2 PUSH1 0x20 ADD SWAP2 PUSH2 0x15A5 JUMP JUMPDEST DUP3 ADD SWAP2 SWAP1 PUSH0 MSTORE PUSH1 0x20 PUSH0 KECCAK256 SWAP1 JUMPDEST DUP2 SLOAD DUP2 MSTORE SWAP1 PUSH1 0x1 ADD SWAP1 PUSH1 0x20 ADD DUP1 DUP4 GT PUSH2 0x1588 JUMPI DUP3 SWAP1 SUB PUSH1 0x1F AND DUP3 ADD SWAP2 JUMPDEST POP POP POP POP POP SWAP1 DUP1 PUSH1 0x1 ADD DUP1 SLOAD PUSH2 0x15BA SWAP1 PUSH2 0x240E JUMP JUMPDEST DUP1 PUSH1 0x1F ADD PUSH1 0x20 DUP1 SWAP2 DIV MUL PUSH1 0x20 ADD PUSH1 0x40 MLOAD SWAP1 DUP2 ADD PUSH1 0x40 MSTORE DUP1 SWAP3 SWAP2 SWAP1 DUP2 DUP2 MSTORE PUSH1 0x20 ADD DUP3 DUP1 SLOAD PUSH2 0x15E6 SWAP1 PUSH2 0x240E JUMP JUMPDEST DUP1 ISZERO PUSH2 0x1631 JUMPI DUP1 PUSH1 0x1F LT PUSH2 0x1608 JUMPI PUSH2 0x100 DUP1 DUP4 SLOAD DIV MUL DUP4 MSTORE SWAP2 PUSH1 0x20 ADD SWAP2 PUSH2 0x1631 JUMP JUMPDEST DUP3 ADD SWAP2 SWAP1 PUSH0 MSTORE PUSH1 0x20 PUSH0 KECCAK256 SWAP1 JUMPDEST DUP2 SLOAD DUP2 MSTORE SWAP1 PUSH1 0x1 ADD SWAP1 PUSH1 0x20 ADD DUP1 DUP4 GT PUSH2 0x1614 JUMPI DUP3 SWAP1 SUB PUSH1 0x1F AND DUP3 ADD SWAP2 JUMPDEST POP POP POP POP PUSH1 0x2 DUP4 ADD SLOAD PUSH1 0x3 SWAP1 SWAP4 ADD SLOAD SWAP2 SWAP3 SWAP2 PUSH1 0xFF AND SWAP1 POP DUP5 JUMP JUMPDEST PUSH2 0x1654 DUP3 PUSH2 0x7A9 JUMP JUMPDEST PUSH2 0x165D DUP2 PUSH2 0x17BE JUMP JUMPDEST PUSH2 0x7E5 DUP4 DUP4 PUSH2 0x1869 JUMP JUMPDEST PUSH0 PUSH1 0x6 DUP3 PUSH1 0x40 MLOAD PUSH2 0x1678 SWAP2 SWAP1 PUSH2 0x2403 JUMP JUMPDEST SWAP1 DUP2 MSTORE PUSH1 0x40 MLOAD SWAP1 DUP2 SWAP1 SUB PUSH1 0x20 ADD SWAP1 KECCAK256 SLOAD PUSH1 0x1 PUSH1 0x1 PUSH1 0xA0 SHL SUB AND SWAP1 POP DUP1 PUSH2 0x16D7 JUMPI PUSH1 0x40 MLOAD PUSH3 0x461BCD PUSH1 0xE5 SHL DUP2 MSTORE PUSH1 0x20 PUSH1 0x4 DUP3 ADD MSTORE PUSH1 0x14 PUSH1 0x24 DUP3 ADD MSTORE PUSH20 0x11DD5A5B1908191BD95CC81B9BDD08195E1A5CDD PUSH1 0x62 SHL PUSH1 0x44 DUP3 ADD MSTORE PUSH1 0x64 ADD PUSH2 0x982 JUMP JUMPDEST PUSH1 0x1 PUSH1 0x1 PUSH1 0xA0 SHL SUB DUP2 AND PUSH0 SWAP1 DUP2 MSTORE PUSH1 0x5 PUSH1 0x20 MSTORE PUSH1 0x40 DUP2 KECCAK256 SWAP1 JUMPDEST PUSH1 0x2 DUP3 ADD SLOAD DUP2 LT ISZERO PUSH2 0x1794 JUMPI CALLER PUSH1 0x1 PUSH1 0x1 PUSH1 0xA0 SHL SUB AND DUP3 PUSH1 0x2 ADD DUP3 DUP2 SLOAD DUP2 LT PUSH2 0x171B JUMPI PUSH2 0x171B PUSH2 0x23D8 JUMP JUMPDEST PUSH0 SWAP2 DUP3 MSTORE PUSH1 0x20 SWAP1 SWAP2 KECCAK256 ADD SLOAD PUSH1 0x1 PUSH1 0x1 PUSH1 0xA0 SHL SUB AND SUB PUSH2 0x178C JUMPI PUSH1 0x40 MLOAD PUSH3 0x461BCD PUSH1 0xE5 SHL DUP2 MSTORE PUSH1 0x20 PUSH1 0x4 DUP3 ADD MSTORE PUSH1 0x27 PUSH1 0x24 DUP3 ADD MSTORE PUSH32 0x53656E64657220697320616C72656164792061206D656D626572206F66207468 PUSH1 0x44 DUP3 ADD MSTORE PUSH7 0x194819DD5A5B19 PUSH1 0xCA SHL PUSH1 0x64 DUP3 ADD MSTORE PUSH1 0x84 ADD PUSH2 0x982 JUMP JUMPDEST PUSH1 0x1 ADD PUSH2 0x16F0 JUMP JUMPDEST POP PUSH1 0x2 ADD DUP1 SLOAD PUSH1 0x1 DUP2 ADD DUP3 SSTORE PUSH0 SWAP2 DUP3 MSTORE PUSH1 0x20 SWAP1 SWAP2 KECCAK256 ADD DUP1 SLOAD PUSH1 0x1 PUSH1 0x1 PUSH1 0xA0 SHL SUB NOT AND CALLER OR SWAP1 SSTORE POP POP JUMP JUMPDEST PUSH2 0x92F DUP2 CALLER PUSH2 0x1B76 JUMP JUMPDEST PUSH0 PUSH0 DUP1 MLOAD PUSH1 0x20 PUSH2 0x26B9 DUP4 CODECOPY DUP2 MLOAD SWAP2 MSTORE PUSH2 0x17E1 DUP5 DUP5 PUSH2 0x1128 JUMP JUMPDEST PUSH2 0x1860 JUMPI PUSH0 DUP5 DUP2 MSTORE PUSH1 0x20 DUP3 DUP2 MSTORE PUSH1 0x40 DUP1 DUP4 KECCAK256 PUSH1 0x1 PUSH1 0x1 PUSH1 0xA0 SHL SUB DUP8 AND DUP5 MSTORE SWAP1 SWAP2 MSTORE SWAP1 KECCAK256 DUP1 SLOAD PUSH1 0xFF NOT AND PUSH1 0x1 OR SWAP1 SSTORE PUSH2 0x1816 CALLER SWAP1 JUMP JUMPDEST PUSH1 0x1 PUSH1 0x1 PUSH1 0xA0 SHL SUB AND DUP4 PUSH1 0x1 PUSH1 0x1 PUSH1 0xA0 SHL SUB AND DUP6 PUSH32 0x2F8788117E7EFF1D82E926EC794901D17C78024A50270940304540A733656F0D PUSH1 0x40 MLOAD PUSH1 0x40 MLOAD DUP1 SWAP2 SUB SWAP1 LOG4 PUSH1 0x1 SWAP2 POP POP PUSH2 0x66D JUMP JUMPDEST PUSH0 SWAP2 POP POP PUSH2 0x66D JUMP JUMPDEST PUSH0 PUSH0 DUP1 MLOAD PUSH1 0x20 PUSH2 0x26B9 DUP4 CODECOPY DUP2 MLOAD SWAP2 MSTORE PUSH2 0x1882 DUP5 DUP5 PUSH2 0x1128 JUMP JUMPDEST ISZERO PUSH2 0x1860 JUMPI PUSH0 DUP5 DUP2 MSTORE PUSH1 0x20 DUP3 DUP2 MSTORE PUSH1 0x40 DUP1 DUP4 KECCAK256 PUSH1 0x1 PUSH1 0x1 PUSH1 0xA0 SHL SUB DUP8 AND DUP1 DUP6 MSTORE SWAP3 MSTORE DUP1 DUP4 KECCAK256 DUP1 SLOAD PUSH1 0xFF NOT AND SWAP1 SSTORE MLOAD CALLER SWAP3 DUP8 SWAP2 PUSH32 0xF6391F5C32D9C69D2A47EA670B442974B53935D1EDC7FD64EB21E047A839171B SWAP2 SWAP1 LOG4 PUSH1 0x1 SWAP2 POP POP PUSH2 0x66D JUMP JUMPDEST PUSH2 0x18EA PUSH2 0x1BAF JUMP JUMPDEST PUSH0 DUP1 MLOAD PUSH1 0x20 PUSH2 0x26D9 DUP4 CODECOPY DUP2 MLOAD SWAP2 MSTORE DUP1 SLOAD PUSH1 0xFF NOT AND DUP2 SSTORE PUSH32 0x5DB9EE0A495BF2E6FF9C91A7834C1BA4FDD244A5E8AA4E537BD38AEAE4B073AA CALLER JUMPDEST PUSH1 0x40 MLOAD PUSH1 0x1 PUSH1 0x1 PUSH1 0xA0 SHL SUB SWAP1 SWAP2 AND DUP2 MSTORE PUSH1 0x20 ADD PUSH1 0x40 MLOAD DUP1 SWAP2 SUB SWAP1 LOG1 POP JUMP JUMPDEST ADDRESS PUSH1 0x1 PUSH1 0x1 PUSH1 0xA0 SHL SUB PUSH32 0x0 AND EQ DUP1 PUSH2 0x19C7 JUMPI POP PUSH32 0x0 PUSH1 0x1 PUSH1 0x1 PUSH1 0xA0 SHL SUB AND PUSH2 0x19BB PUSH0 DUP1 MLOAD PUSH1 0x20 PUSH2 0x2679 DUP4 CODECOPY DUP2 MLOAD SWAP2 MSTORE SLOAD PUSH1 0x1 PUSH1 0x1 PUSH1 0xA0 SHL SUB AND SWAP1 JUMP JUMPDEST PUSH1 0x1 PUSH1 0x1 PUSH1 0xA0 SHL SUB AND EQ ISZERO JUMPDEST ISZERO PUSH2 0x19E5 JUMPI PUSH1 0x40 MLOAD PUSH4 0x703E46DD PUSH1 0xE1 SHL DUP2 MSTORE PUSH1 0x4 ADD PUSH1 0x40 MLOAD DUP1 SWAP2 SUB SWAP1 REVERT JUMPDEST JUMP JUMPDEST PUSH32 0x189AB7A9244DF0848122154315AF71FE140F3DB0FE014031783B0946B8C9D2E3 PUSH2 0x7A5 DUP2 PUSH2 0x17BE JUMP JUMPDEST DUP2 PUSH1 0x1 PUSH1 0x1 PUSH1 0xA0 SHL SUB AND PUSH4 0x52D1902D PUSH1 0x40 MLOAD DUP2 PUSH4 0xFFFFFFFF AND PUSH1 0xE0 SHL DUP2 MSTORE PUSH1 0x4 ADD PUSH1 0x20 PUSH1 0x40 MLOAD DUP1 DUP4 SUB DUP2 DUP7 GAS STATICCALL SWAP3 POP POP POP DUP1 ISZERO PUSH2 0x1A6B JUMPI POP PUSH1 0x40 DUP1 MLOAD PUSH1 0x1F RETURNDATASIZE SWAP1 DUP2 ADD PUSH1 0x1F NOT AND DUP3 ADD SWAP1 SWAP3 MSTORE PUSH2 0x1A68 SWAP2 DUP2 ADD SWAP1 PUSH2 0x2641 JUMP JUMPDEST PUSH1 0x1 JUMPDEST PUSH2 0x1A93 JUMPI PUSH1 0x40 MLOAD PUSH4 0x4C9C8CE3 PUSH1 0xE0 SHL DUP2 MSTORE PUSH1 0x1 PUSH1 0x1 PUSH1 0xA0 SHL SUB DUP4 AND PUSH1 0x4 DUP3 ADD MSTORE PUSH1 0x24 ADD PUSH2 0x982 JUMP JUMPDEST PUSH0 DUP1 MLOAD PUSH1 0x20 PUSH2 0x2679 DUP4 CODECOPY DUP2 MLOAD SWAP2 MSTORE DUP2 EQ PUSH2 0x1AC3 JUMPI PUSH1 0x40 MLOAD PUSH4 0x2A875269 PUSH1 0xE2 SHL DUP2 MSTORE PUSH1 0x4 DUP2 ADD DUP3 SWAP1 MSTORE PUSH1 0x24 ADD PUSH2 0x982 JUMP JUMPDEST PUSH2 0x90B DUP4 DUP4 PUSH2 0x1BDE JUMP JUMPDEST ADDRESS PUSH1 0x1 PUSH1 0x1 PUSH1 0xA0 SHL SUB PUSH32 0x0 AND EQ PUSH2 0x19E5 JUMPI PUSH1 0x40 MLOAD PUSH4 0x703E46DD PUSH1 0xE1 SHL DUP2 MSTORE PUSH1 0x4 ADD PUSH1 0x40 MLOAD DUP1 SWAP2 SUB SWAP1 REVERT JUMPDEST PUSH2 0x1B1E PUSH2 0x1C33 JUMP JUMPDEST PUSH0 DUP1 MLOAD PUSH1 0x20 PUSH2 0x26D9 DUP4 CODECOPY DUP2 MLOAD SWAP2 MSTORE DUP1 SLOAD PUSH1 0xFF NOT AND PUSH1 0x1 OR DUP2 SSTORE PUSH32 0x62E78CEA01BEE320CD4E420270B5EA74000D11B0C9F74754EBDBFC544B05A258 CALLER PUSH2 0x1923 JUMP JUMPDEST PUSH2 0x1B66 PUSH2 0x1C63 JUMP JUMPDEST PUSH2 0x19E5 PUSH2 0x1CAC JUMP JUMPDEST PUSH2 0x19E5 PUSH2 0x1C63 JUMP JUMPDEST PUSH2 0x1B80 DUP3 DUP3 PUSH2 0x1128 JUMP JUMPDEST PUSH2 0x7A5 JUMPI PUSH1 0x40 MLOAD PUSH4 0xE2517D3F PUSH1 0xE0 SHL DUP2 MSTORE PUSH1 0x1 PUSH1 0x1 PUSH1 0xA0 SHL SUB DUP3 AND PUSH1 0x4 DUP3 ADD MSTORE PUSH1 0x24 DUP2 ADD DUP4 SWAP1 MSTORE PUSH1 0x44 ADD PUSH2 0x982 JUMP JUMPDEST PUSH0 DUP1 MLOAD PUSH1 0x20 PUSH2 0x26D9 DUP4 CODECOPY DUP2 MLOAD SWAP2 MSTORE SLOAD PUSH1 0xFF AND PUSH2 0x19E5 JUMPI PUSH1 0x40 MLOAD PUSH4 0x8DFC202B PUSH1 0xE0 SHL DUP2 MSTORE PUSH1 0x4 ADD PUSH1 0x40 MLOAD DUP1 SWAP2 SUB SWAP1 REVERT JUMPDEST PUSH2 0x1BE7 DUP3 PUSH2 0x1CCC JUMP JUMPDEST PUSH1 0x40 MLOAD PUSH1 0x1 PUSH1 0x1 PUSH1 0xA0 SHL SUB DUP4 AND SWAP1 PUSH32 0xBC7CD75A20EE27FD9ADEBAB32041F755214DBC6BFFA90CC0225B39DA2E5C2D3B SWAP1 PUSH0 SWAP1 LOG2 DUP1 MLOAD ISZERO PUSH2 0x1C2B JUMPI PUSH2 0x90B DUP3 DUP3 PUSH2 0x1D2F JUMP JUMPDEST PUSH2 0x7A5 PUSH2 0x1DA1 JUMP JUMPDEST PUSH0 DUP1 MLOAD PUSH1 0x20 PUSH2 0x26D9 DUP4 CODECOPY DUP2 MLOAD SWAP2 MSTORE SLOAD PUSH1 0xFF AND ISZERO PUSH2 0x19E5 JUMPI PUSH1 0x40 MLOAD PUSH4 0xD93C0665 PUSH1 0xE0 SHL DUP2 MSTORE PUSH1 0x4 ADD PUSH1 0x40 MLOAD DUP1 SWAP2 SUB SWAP1 REVERT JUMPDEST PUSH32 0xF0C57E16840DF040F15088DC2F81FE391C3923BEC73E23A9662EFC9C229C6A00 SLOAD PUSH1 0x1 PUSH1 0x40 SHL SWAP1 DIV PUSH1 0xFF AND PUSH2 0x19E5 JUMPI PUSH1 0x40 MLOAD PUSH4 0x1AFCD79F PUSH1 0xE3 SHL DUP2 MSTORE PUSH1 0x4 ADD PUSH1 0x40 MLOAD DUP1 SWAP2 SUB SWAP1 REVERT JUMPDEST PUSH2 0x1CB4 PUSH2 0x1C63 JUMP JUMPDEST PUSH0 DUP1 MLOAD PUSH1 0x20 PUSH2 0x26D9 DUP4 CODECOPY DUP2 MLOAD SWAP2 MSTORE DUP1 SLOAD PUSH1 0xFF NOT AND SWAP1 SSTORE JUMP JUMPDEST DUP1 PUSH1 0x1 PUSH1 0x1 PUSH1 0xA0 SHL SUB AND EXTCODESIZE PUSH0 SUB PUSH2 0x1D01 JUMPI PUSH1 0x40 MLOAD PUSH4 0x4C9C8CE3 PUSH1 0xE0 SHL DUP2 MSTORE PUSH1 0x1 PUSH1 0x1 PUSH1 0xA0 SHL SUB DUP3 AND PUSH1 0x4 DUP3 ADD MSTORE PUSH1 0x24 ADD PUSH2 0x982 JUMP JUMPDEST PUSH0 DUP1 MLOAD PUSH1 0x20 PUSH2 0x2679 DUP4 CODECOPY DUP2 MLOAD SWAP2 MSTORE DUP1 SLOAD PUSH1 0x1 PUSH1 0x1 PUSH1 0xA0 SHL SUB NOT AND PUSH1 0x1 PUSH1 0x1 PUSH1 0xA0 SHL SUB SWAP3 SWAP1 SWAP3 AND SWAP2 SWAP1 SWAP2 OR SWAP1 SSTORE JUMP JUMPDEST PUSH1 0x60 PUSH0 DUP1 DUP5 PUSH1 0x1 PUSH1 0x1 PUSH1 0xA0 SHL SUB AND DUP5 PUSH1 0x40 MLOAD PUSH2 0x1D4B SWAP2 SWAP1 PUSH2 0x2403 JUMP JUMPDEST PUSH0 PUSH1 0x40 MLOAD DUP1 DUP4 SUB DUP2 DUP6 GAS DELEGATECALL SWAP2 POP POP RETURNDATASIZE DUP1 PUSH0 DUP2 EQ PUSH2 0x1D83 JUMPI PUSH1 0x40 MLOAD SWAP2 POP PUSH1 0x1F NOT PUSH1 0x3F RETURNDATASIZE ADD AND DUP3 ADD PUSH1 0x40 MSTORE RETURNDATASIZE DUP3 MSTORE RETURNDATASIZE PUSH0 PUSH1 0x20 DUP5 ADD RETURNDATACOPY PUSH2 0x1D88 JUMP JUMPDEST PUSH1 0x60 SWAP2 POP JUMPDEST POP SWAP2 POP SWAP2 POP PUSH2 0x1D98 DUP6 DUP4 DUP4 PUSH2 0x1DC0 JUMP JUMPDEST SWAP6 SWAP5 POP POP POP POP POP JUMP JUMPDEST CALLVALUE ISZERO PUSH2 0x19E5 JUMPI PUSH1 0x40 MLOAD PUSH4 0xB398979F PUSH1 0xE0 SHL DUP2 MSTORE PUSH1 0x4 ADD PUSH1 0x40 MLOAD DUP1 SWAP2 SUB SWAP1 REVERT JUMPDEST PUSH1 0x60 DUP3 PUSH2 0x1DD5 JUMPI PUSH2 0x1DD0 DUP3 PUSH2 0x1E1F JUMP JUMPDEST PUSH2 0x1E18 JUMP JUMPDEST DUP2 MLOAD ISZERO DUP1 ISZERO PUSH2 0x1DEC JUMPI POP PUSH1 0x1 PUSH1 0x1 PUSH1 0xA0 SHL SUB DUP5 AND EXTCODESIZE ISZERO JUMPDEST ISZERO PUSH2 0x1E15 JUMPI PUSH1 0x40 MLOAD PUSH4 0x9996B315 PUSH1 0xE0 SHL DUP2 MSTORE PUSH1 0x1 PUSH1 0x1 PUSH1 0xA0 SHL SUB DUP6 AND PUSH1 0x4 DUP3 ADD MSTORE PUSH1 0x24 ADD PUSH2 0x982 JUMP JUMPDEST POP DUP1 JUMPDEST SWAP4 SWAP3 POP POP POP JUMP JUMPDEST DUP1 MLOAD ISZERO PUSH2 0x1E2F JUMPI DUP1 MLOAD DUP1 DUP3 PUSH1 0x20 ADD REVERT JUMPDEST PUSH1 0x40 MLOAD PUSH4 0xA12F521 PUSH1 0xE1 SHL DUP2 MSTORE PUSH1 0x4 ADD PUSH1 0x40 MLOAD DUP1 SWAP2 SUB SWAP1 REVERT JUMPDEST DUP3 DUP1 SLOAD DUP3 DUP3 SSTORE SWAP1 PUSH0 MSTORE PUSH1 0x20 PUSH0 KECCAK256 SWAP1 DUP2 ADD SWAP3 DUP3 ISZERO PUSH2 0x1E81 JUMPI SWAP2 PUSH1 0x20 MUL DUP3 ADD JUMPDEST DUP3 DUP2 GT ISZERO PUSH2 0x1E81 JUMPI DUP3 MLOAD DUP3 SSTORE SWAP2 PUSH1 0x20 ADD SWAP2 SWAP1 PUSH1 0x1 ADD SWAP1 PUSH2 0x1E66 JUMP JUMPDEST POP PUSH2 0x1E8D SWAP3 SWAP2 POP PUSH2 0x1EE4 JUMP JUMPDEST POP SWAP1 JUMP JUMPDEST DUP3 DUP1 SLOAD DUP3 DUP3 SSTORE SWAP1 PUSH0 MSTORE PUSH1 0x20 PUSH0 KECCAK256 SWAP1 DUP2 ADD SWAP3 DUP3 ISZERO PUSH2 0x1E81 JUMPI SWAP2 PUSH1 0x20 MUL DUP3 ADD JUMPDEST DUP3 DUP2 GT ISZERO PUSH2 0x1E81 JUMPI DUP3 MLOAD DUP3 SLOAD PUSH1 0x1 PUSH1 0x1 PUSH1 0xA0 SHL SUB NOT AND PUSH1 0x1 PUSH1 0x1 PUSH1 0xA0 SHL SUB SWAP1 SWAP2 AND OR DUP3 SSTORE PUSH1 0x20 SWAP1 SWAP3 ADD SWAP2 PUSH1 0x1 SWAP1 SWAP2 ADD SWAP1 PUSH2 0x1EAF JUMP JUMPDEST JUMPDEST DUP1 DUP3 GT ISZERO PUSH2 0x1E8D JUMPI PUSH0 DUP2 SSTORE PUSH1 0x1 ADD PUSH2 0x1EE5 JUMP JUMPDEST PUSH0 PUSH1 0x20 DUP3 DUP5 SUB SLT ISZERO PUSH2 0x1F08 JUMPI PUSH0 DUP1 REVERT JUMPDEST DUP2 CALLDATALOAD PUSH1 0x1 PUSH1 0x1 PUSH1 0xE0 SHL SUB NOT DUP2 AND DUP2 EQ PUSH2 0x1E18 JUMPI PUSH0 DUP1 REVERT JUMPDEST PUSH4 0x4E487B71 PUSH1 0xE0 SHL PUSH0 MSTORE PUSH1 0x41 PUSH1 0x4 MSTORE PUSH1 0x24 PUSH0 REVERT JUMPDEST PUSH1 0x40 MLOAD PUSH1 0x1F DUP3 ADD PUSH1 0x1F NOT AND DUP2 ADD PUSH8 0xFFFFFFFFFFFFFFFF DUP2 GT DUP3 DUP3 LT OR ISZERO PUSH2 0x1F5C JUMPI PUSH2 0x1F5C PUSH2 0x1F1F JUMP JUMPDEST PUSH1 0x40 MSTORE SWAP2 SWAP1 POP JUMP JUMPDEST PUSH0 PUSH8 0xFFFFFFFFFFFFFFFF DUP4 GT ISZERO PUSH2 0x1F7D JUMPI PUSH2 0x1F7D PUSH2 0x1F1F JUMP JUMPDEST PUSH2 0x1F90 PUSH1 0x1F DUP5 ADD PUSH1 0x1F NOT AND PUSH1 0x20 ADD PUSH2 0x1F33 JUMP JUMPDEST SWAP1 POP DUP3 DUP2 MSTORE DUP4 DUP4 DUP4 ADD GT ISZERO PUSH2 0x1FA3 JUMPI PUSH0 DUP1 REVERT JUMPDEST DUP3 DUP3 PUSH1 0x20 DUP4 ADD CALLDATACOPY PUSH0 PUSH1 0x20 DUP5 DUP4 ADD ADD MSTORE SWAP4 SWAP3 POP POP POP JUMP JUMPDEST PUSH0 DUP3 PUSH1 0x1F DUP4 ADD SLT PUSH2 0x1FC8 JUMPI PUSH0 DUP1 REVERT JUMPDEST PUSH2 0x1E18 DUP4 DUP4 CALLDATALOAD PUSH1 0x20 DUP6 ADD PUSH2 0x1F64 JUMP JUMPDEST PUSH0 PUSH1 0x20 DUP3 DUP5 SUB SLT ISZERO PUSH2 0x1FE7 JUMPI PUSH0 DUP1 REVERT JUMPDEST DUP2 CALLDATALOAD PUSH8 0xFFFFFFFFFFFFFFFF DUP2 GT ISZERO PUSH2 0x1FFD JUMPI PUSH0 DUP1 REVERT JUMPDEST PUSH2 0x2009 DUP5 DUP3 DUP6 ADD PUSH2 0x1FB9 JUMP JUMPDEST SWAP5 SWAP4 POP POP POP POP JUMP JUMPDEST PUSH0 PUSH1 0x20 DUP3 DUP5 SUB SLT ISZERO PUSH2 0x2021 JUMPI PUSH0 DUP1 REVERT JUMPDEST POP CALLDATALOAD SWAP2 SWAP1 POP JUMP JUMPDEST DUP1 CALLDATALOAD PUSH1 0x1 PUSH1 0x1 PUSH1 0xA0 SHL SUB DUP2 AND DUP2 EQ PUSH2 0x203E JUMPI PUSH0 DUP1 REVERT JUMPDEST SWAP2 SWAP1 POP JUMP JUMPDEST PUSH0 DUP1 PUSH1 0x40 DUP4 DUP6 SUB SLT ISZERO PUSH2 0x2054 JUMPI PUSH0 DUP1 REVERT JUMPDEST DUP3 CALLDATALOAD SWAP2 POP PUSH2 0x2064 PUSH1 0x20 DUP5 ADD PUSH2 0x2028 JUMP JUMPDEST SWAP1 POP SWAP3 POP SWAP3 SWAP1 POP JUMP JUMPDEST PUSH0 DUP1 PUSH0 DUP1 PUSH0 PUSH1 0xA0 DUP7 DUP9 SUB SLT ISZERO PUSH2 0x2081 JUMPI PUSH0 DUP1 REVERT JUMPDEST DUP6 CALLDATALOAD PUSH8 0xFFFFFFFFFFFFFFFF DUP2 GT ISZERO PUSH2 0x2097 JUMPI PUSH0 DUP1 REVERT JUMPDEST PUSH2 0x20A3 DUP9 DUP3 DUP10 ADD PUSH2 0x1FB9 JUMP JUMPDEST SWAP9 PUSH1 0x20 DUP9 ADD CALLDATALOAD SWAP9 POP PUSH1 0x40 DUP9 ADD CALLDATALOAD SWAP8 PUSH1 0x60 DUP2 ADD CALLDATALOAD SWAP8 POP PUSH1 0x80 ADD CALLDATALOAD SWAP6 POP SWAP4 POP POP POP POP JUMP JUMPDEST PUSH0 DUP1 PUSH1 0x40 DUP4 DUP6 SUB SLT ISZERO PUSH2 0x20D6 JUMPI PUSH0 DUP1 REVERT JUMPDEST PUSH2 0x20DF DUP4 PUSH2 0x2028 JUMP JUMPDEST SWAP2 POP PUSH1 0x20 DUP4 ADD CALLDATALOAD PUSH8 0xFFFFFFFFFFFFFFFF DUP2 GT ISZERO PUSH2 0x20FA JUMPI PUSH0 DUP1 REVERT JUMPDEST DUP4 ADD PUSH1 0x1F DUP2 ADD DUP6 SGT PUSH2 0x210A JUMPI PUSH0 DUP1 REVERT JUMPDEST PUSH2 0x2119 DUP6 DUP3 CALLDATALOAD PUSH1 0x20 DUP5 ADD PUSH2 0x1F64 JUMP JUMPDEST SWAP2 POP POP SWAP3 POP SWAP3 SWAP1 POP JUMP JUMPDEST PUSH0 DUP1 PUSH1 0x40 DUP4 DUP6 SUB SLT ISZERO PUSH2 0x2134 JUMPI PUSH0 DUP1 REVERT JUMPDEST DUP3 CALLDATALOAD PUSH8 0xFFFFFFFFFFFFFFFF DUP2 GT ISZERO PUSH2 0x214A JUMPI PUSH0 DUP1 REVERT JUMPDEST PUSH2 0x2156 DUP6 DUP3 DUP7 ADD PUSH2 0x1FB9 JUMP JUMPDEST SWAP3 POP POP PUSH2 0x2064 PUSH1 0x20 DUP5 ADD PUSH2 0x2028 JUMP JUMPDEST PUSH0 DUP1 PUSH0 PUSH1 0x60 DUP5 DUP7 SUB SLT ISZERO PUSH2 0x2177 JUMPI PUSH0 DUP1 REVERT JUMPDEST DUP4 CALLDATALOAD PUSH8 0xFFFFFFFFFFFFFFFF DUP1 DUP3 GT ISZERO PUSH2 0x218E JUMPI PUSH0 DUP1 REVERT JUMPDEST PUSH2 0x219A DUP8 DUP4 DUP9 ADD PUSH2 0x1FB9 JUMP JUMPDEST SWAP5 POP PUSH1 0x20 DUP7 ADD CALLDATALOAD SWAP2 POP DUP1 DUP3 GT ISZERO PUSH2 0x21AF JUMPI PUSH0 DUP1 REVERT JUMPDEST POP PUSH2 0x21BC DUP7 DUP3 DUP8 ADD PUSH2 0x1FB9 JUMP JUMPDEST SWAP3 POP POP PUSH1 0x40 DUP5 ADD CALLDATALOAD SWAP1 POP SWAP3 POP SWAP3 POP SWAP3 JUMP JUMPDEST PUSH0 PUSH1 0x20 DUP3 DUP5 SUB SLT ISZERO PUSH2 0x21DD JUMPI PUSH0 DUP1 REVERT JUMPDEST PUSH2 0x1E18 DUP3 PUSH2 0x2028 JUMP JUMPDEST PUSH0 DUP2 MLOAD DUP1 DUP5 MSTORE DUP1 PUSH1 0x20 DUP5 ADD PUSH1 0x20 DUP7 ADD MCOPY PUSH0 PUSH1 0x20 DUP3 DUP7 ADD ADD MSTORE PUSH1 0x20 PUSH1 0x1F NOT PUSH1 0x1F DUP4 ADD AND DUP6 ADD ADD SWAP2 POP POP SWAP3 SWAP2 POP POP JUMP JUMPDEST PUSH1 0x40 DUP2 MSTORE PUSH0 PUSH2 0x2226 PUSH1 0x40 DUP4 ADD DUP6 PUSH2 0x21E6 JUMP JUMPDEST SWAP1 POP PUSH1 0x1 DUP1 PUSH1 0xA0 SHL SUB DUP4 AND PUSH1 0x20 DUP4 ADD MSTORE SWAP4 SWAP3 POP POP POP JUMP JUMPDEST PUSH0 DUP1 PUSH1 0x40 DUP4 DUP6 SUB SLT ISZERO PUSH2 0x224E JUMPI PUSH0 DUP1 REVERT JUMPDEST DUP3 CALLDATALOAD PUSH8 0xFFFFFFFFFFFFFFFF DUP1 DUP3 GT ISZERO PUSH2 0x2265 JUMPI PUSH0 DUP1 REVERT JUMPDEST DUP2 DUP6 ADD SWAP2 POP DUP6 PUSH1 0x1F DUP4 ADD SLT PUSH2 0x2278 JUMPI PUSH0 DUP1 REVERT JUMPDEST DUP2 CALLDATALOAD PUSH1 0x20 DUP3 DUP3 GT ISZERO PUSH2 0x228C JUMPI PUSH2 0x228C PUSH2 0x1F1F JUMP JUMPDEST DUP2 PUSH1 0x5 SHL SWAP3 POP PUSH2 0x229D DUP2 DUP5 ADD PUSH2 0x1F33 JUMP JUMPDEST DUP3 DUP2 MSTORE SWAP3 DUP5 ADD DUP2 ADD SWAP3 DUP2 DUP2 ADD SWAP1 DUP10 DUP6 GT ISZERO PUSH2 0x22B6 JUMPI PUSH0 DUP1 REVERT JUMPDEST SWAP5 DUP3 ADD SWAP5 JUMPDEST DUP5 DUP7 LT ISZERO PUSH2 0x22D4 JUMPI DUP6 CALLDATALOAD DUP3 MSTORE SWAP5 DUP3 ADD SWAP5 SWAP1 DUP3 ADD SWAP1 PUSH2 0x22BB JUMP JUMPDEST SWAP10 SWAP8 SWAP1 SWAP2 ADD CALLDATALOAD SWAP8 POP POP POP POP POP POP POP JUMP JUMPDEST PUSH1 0x20 DUP2 MSTORE PUSH0 PUSH2 0x1E18 PUSH1 0x20 DUP4 ADD DUP5 PUSH2 0x21E6 JUMP JUMPDEST DUP7 DUP2 MSTORE PUSH1 0xC0 PUSH1 0x20 DUP3 ADD MSTORE PUSH0 PUSH2 0x230E PUSH1 0xC0 DUP4 ADD DUP9 PUSH2 0x21E6 JUMP JUMPDEST SWAP1 POP DUP6 PUSH1 0x40 DUP4 ADD MSTORE DUP5 PUSH1 0x60 DUP4 ADD MSTORE DUP4 PUSH1 0x80 DUP4 ADD MSTORE DUP3 PUSH1 0xA0 DUP4 ADD MSTORE SWAP8 SWAP7 POP POP POP POP POP POP POP JUMP JUMPDEST PUSH0 DUP1 PUSH0 PUSH1 0x60 DUP5 DUP7 SUB SLT ISZERO PUSH2 0x2345 JUMPI PUSH0 DUP1 REVERT JUMPDEST PUSH2 0x234E DUP5 PUSH2 0x2028 JUMP JUMPDEST SWAP3 POP PUSH2 0x235C PUSH1 0x20 DUP6 ADD PUSH2 0x2028 JUMP JUMPDEST SWAP2 POP PUSH2 0x236A PUSH1 0x40 DUP6 ADD PUSH2 0x2028 JUMP JUMPDEST SWAP1 POP SWAP3 POP SWAP3 POP SWAP3 JUMP JUMPDEST PUSH0 DUP1 PUSH1 0x40 DUP4 DUP6 SUB SLT ISZERO PUSH2 0x2384 JUMPI PUSH0 DUP1 REVERT JUMPDEST PUSH2 0x238D DUP4 PUSH2 0x2028 JUMP JUMPDEST SWAP5 PUSH1 0x20 SWAP4 SWAP1 SWAP4 ADD CALLDATALOAD SWAP4 POP POP POP JUMP JUMPDEST PUSH1 0x80 DUP2 MSTORE PUSH0 PUSH2 0x23AD PUSH1 0x80 DUP4 ADD DUP8 PUSH2 0x21E6 JUMP JUMPDEST DUP3 DUP2 SUB PUSH1 0x20 DUP5 ADD MSTORE PUSH2 0x23BF DUP2 DUP8 PUSH2 0x21E6 JUMP JUMPDEST PUSH1 0x40 DUP5 ADD SWAP6 SWAP1 SWAP6 MSTORE POP POP SWAP1 ISZERO ISZERO PUSH1 0x60 SWAP1 SWAP2 ADD MSTORE SWAP3 SWAP2 POP POP JUMP JUMPDEST PUSH4 0x4E487B71 PUSH1 0xE0 SHL PUSH0 MSTORE PUSH1 0x32 PUSH1 0x4 MSTORE PUSH1 0x24 PUSH0 REVERT JUMPDEST PUSH0 DUP2 MLOAD DUP1 PUSH1 0x20 DUP5 ADD DUP6 MCOPY PUSH0 SWAP4 ADD SWAP3 DUP4 MSTORE POP SWAP1 SWAP2 SWAP1 POP JUMP JUMPDEST PUSH0 PUSH2 0x1E18 DUP3 DUP5 PUSH2 0x23EC JUMP JUMPDEST PUSH1 0x1 DUP2 DUP2 SHR SWAP1 DUP3 AND DUP1 PUSH2 0x2422 JUMPI PUSH1 0x7F DUP3 AND SWAP2 POP JUMPDEST PUSH1 0x20 DUP3 LT DUP2 SUB PUSH2 0x2440 JUMPI PUSH4 0x4E487B71 PUSH1 0xE0 SHL PUSH0 MSTORE PUSH1 0x22 PUSH1 0x4 MSTORE PUSH1 0x24 PUSH0 REVERT JUMPDEST POP SWAP2 SWAP1 POP JUMP JUMPDEST PUSH0 DUP1 DUP4 SLOAD PUSH2 0x2453 DUP2 PUSH2 0x240E JUMP JUMPDEST PUSH1 0x1 DUP3 DUP2 AND DUP1 ISZERO PUSH2 0x246B JUMPI PUSH1 0x1 DUP2 EQ PUSH2 0x2480 JUMPI PUSH2 0x24AC JUMP JUMPDEST PUSH1 0xFF NOT DUP5 AND DUP8 MSTORE DUP3 ISZERO ISZERO DUP4 MUL DUP8 ADD SWAP5 POP PUSH2 0x24AC JUMP JUMPDEST DUP8 PUSH0 MSTORE PUSH1 0x20 DUP1 PUSH0 KECCAK256 PUSH0 JUMPDEST DUP6 DUP2 LT ISZERO PUSH2 0x24A3 JUMPI DUP2 SLOAD DUP11 DUP3 ADD MSTORE SWAP1 DUP5 ADD SWAP1 DUP3 ADD PUSH2 0x248A JUMP JUMPDEST POP POP POP DUP3 DUP8 ADD SWAP5 POP JUMPDEST POP SWAP3 SWAP7 SWAP6 POP POP POP POP POP POP JUMP JUMPDEST PUSH4 0x4E487B71 PUSH1 0xE0 SHL PUSH0 MSTORE PUSH1 0x11 PUSH1 0x4 MSTORE PUSH1 0x24 PUSH0 REVERT JUMPDEST DUP1 DUP3 ADD DUP1 DUP3 GT ISZERO PUSH2 0x66D JUMPI PUSH2 0x66D PUSH2 0x24B8 JUMP JUMPDEST PUSH1 0x1F DUP3 GT ISZERO PUSH2 0x90B JUMPI DUP1 PUSH0 MSTORE PUSH1 0x20 PUSH0 KECCAK256 PUSH1 0x1F DUP5 ADD PUSH1 0x5 SHR DUP2 ADD PUSH1 0x20 DUP6 LT ISZERO PUSH2 0x2504 JUMPI POP DUP1 JUMPDEST PUSH1 0x1F DUP5 ADD PUSH1 0x5 SHR DUP3 ADD SWAP2 POP JUMPDEST DUP2 DUP2 LT ISZERO PUSH2 0x2523 JUMPI PUSH0 DUP2 SSTORE PUSH1 0x1 ADD PUSH2 0x2510 JUMP JUMPDEST POP POP POP POP POP JUMP JUMPDEST DUP2 MLOAD PUSH8 0xFFFFFFFFFFFFFFFF DUP2 GT ISZERO PUSH2 0x2544 JUMPI PUSH2 0x2544 PUSH2 0x1F1F JUMP JUMPDEST PUSH2 0x2558 DUP2 PUSH2 0x2552 DUP5 SLOAD PUSH2 0x240E JUMP JUMPDEST DUP5 PUSH2 0x24DF JUMP JUMPDEST PUSH1 0x20 DUP1 PUSH1 0x1F DUP4 GT PUSH1 0x1 DUP2 EQ PUSH2 0x258B JUMPI PUSH0 DUP5 ISZERO PUSH2 0x2574 JUMPI POP DUP6 DUP4 ADD MLOAD JUMPDEST PUSH0 NOT PUSH1 0x3 DUP7 SWAP1 SHL SHR NOT AND PUSH1 0x1 DUP6 SWAP1 SHL OR DUP6 SSTORE PUSH2 0x25E2 JUMP JUMPDEST PUSH0 DUP6 DUP2 MSTORE PUSH1 0x20 DUP2 KECCAK256 PUSH1 0x1F NOT DUP7 AND SWAP2 JUMPDEST DUP3 DUP2 LT ISZERO PUSH2 0x25B9 JUMPI DUP9 DUP7 ADD MLOAD DUP3 SSTORE SWAP5 DUP5 ADD SWAP5 PUSH1 0x1 SWAP1 SWAP2 ADD SWAP1 DUP5 ADD PUSH2 0x259A JUMP JUMPDEST POP DUP6 DUP3 LT ISZERO PUSH2 0x25D6 JUMPI DUP8 DUP6 ADD MLOAD PUSH0 NOT PUSH1 0x3 DUP9 SWAP1 SHL PUSH1 0xF8 AND SHR NOT AND DUP2 SSTORE JUMPDEST POP POP PUSH1 0x1 DUP5 PUSH1 0x1 SHL ADD DUP6 SSTORE JUMPDEST POP POP POP POP POP POP JUMP JUMPDEST DUP3 DUP2 MSTORE PUSH1 0x40 PUSH1 0x20 DUP3 ADD MSTORE PUSH0 PUSH2 0x2009 PUSH1 0x40 DUP4 ADD DUP5 PUSH2 0x21E6 JUMP JUMPDEST PUSH0 PUSH1 0x1 DUP3 ADD PUSH2 0x2613 JUMPI PUSH2 0x2613 PUSH2 0x24B8 JUMP JUMPDEST POP PUSH1 0x1 ADD SWAP1 JUMP JUMPDEST DUP2 DUP2 SUB DUP2 DUP2 GT ISZERO PUSH2 0x66D JUMPI PUSH2 0x66D PUSH2 0x24B8 JUMP JUMPDEST PUSH4 0x4E487B71 PUSH1 0xE0 SHL PUSH0 MSTORE PUSH1 0x31 PUSH1 0x4 MSTORE PUSH1 0x24 PUSH0 REVERT JUMPDEST PUSH0 PUSH1 0x20 DUP3 DUP5 SUB SLT ISZERO PUSH2 0x2651 JUMPI PUSH0 DUP1 REVERT JUMPDEST POP MLOAD SWAP2 SWAP1 POP JUMP INVALID SWAP12 PUSH26 0x46ABD96DCCBE6CFC6CC2C13300AB429D93E16FA72DC459EECCDA PUSH20 0x817F08360894A13BA1A3210667C828492DB98DCA RETURNDATACOPY KECCAK256 PUSH23 0xCC3735A920A3CA505D382BBC65D7A28E3265B37A647492 SWAP16 CALLER PUSH6 0x21B332C1681B SWAP4 EXTCODEHASH PUSH13 0xB9F3376673440D862A02DD7BC7 0xDE 0xC4 0xDC 0xEE 0xDD 0xA7 PUSH22 0xE58DD541E08A116C6C53815C0BD028192F7B626800CD MCOPY 0xD1 TLOAD PUSH15 0x187E77E9AEE88184C21F4F2182AB58 0x27 0xCB EXTCODESIZE PUSH31 0x7FBEDCD63F03300A2646970667358221220EA2B3697326ADFFD8DE11773AD 0x2C DUP14 CALLVALUE JUMP 0xAA 0xC5 PUSH13 0x13E47A40F02F25681BD8A0F164 PUSH20 0x6F6C634300081900330000000000000000000000 "
				},
				"gasEstimates": {
					"creation": {
						"codeDepositCost": "2006000",
						"executionCost": "infinite",
						"totalCost": "infinite"
					},
					"external": {
						"DEFAULT_ADMIN_ROLE()": "283",
						"GAME_ADMIN_ROLE()": "infinite",
						"PAUSER_ROLE()": "infinite",
						"UPGRADER_ROLE()": "304",
						"UPGRADE_INTERFACE_VERSION()": "infinite",
						"addItem(string,uint256,uint256,uint256,uint256)": "infinite",
						"addRecipe(uint256[],uint256)": "infinite",
						"completeQuest(string)": "infinite",
						"craftItem(uint256)": "infinite",
						"createGuild(string,address)": "infinite",
						"createPlayer()": "infinite",
						"getRoleAdmin(bytes32)": "infinite",
						"grantRole(bytes32,address)": "infinite",
						"guilds(address)": "infinite",
						"hasRole(bytes32,address)": "infinite",
						"initialize(address,address,address)": "infinite",
						"items(uint256)": "infinite",
						"joinGuild(string)": "infinite",
						"pause()": "infinite",
						"paused()": "infinite",
						"playerQuests(address,uint256)": "infinite",
						"players(address)": "17500",
						"proxiableUUID()": "infinite",
						"recipes(uint256)": "2509",
						"renounceRole(bytes32,address)": "29183",
						"revokeRole(bytes32,address)": "infinite",
						"startQuest(string,string,uint256)": "infinite",
						"supportsInterface(bytes4)": "470",
						"unpause()": "infinite",
						"upgradeToAndCall(address,bytes)": "infinite"
					},
					"internal": {
						"_authorizeUpgrade(address)": "infinite"
					}
				},
				"methodIdentifiers": {
					"DEFAULT_ADMIN_ROLE()": "a217fddf",
					"GAME_ADMIN_ROLE()": "be22d27d",
					"PAUSER_ROLE()": "e63ab1e9",
					"UPGRADER_ROLE()": "f72c0d8b",
					"UPGRADE_INTERFACE_VERSION()": "ad3cb1cc",
					"addItem(string,uint256,uint256,uint256,uint256)": "31fee8be",
					"addRecipe(uint256[],uint256)": "a9834b67",
					"completeQuest(string)": "17435e1a",
					"craftItem(uint256)": "7309cbbd",
					"createGuild(string,address)": "4fa4a1bb",
					"createPlayer()": "3fa9fcf8",
					"getRoleAdmin(bytes32)": "248a9ca3",
					"grantRole(bytes32,address)": "2f2ff15d",
					"guilds(address)": "a75859e1",
					"hasRole(bytes32,address)": "91d14854",
					"initialize(address,address,address)": "c0c53b8b",
					"items(uint256)": "bfb231d2",
					"joinGuild(string)": "e551ba4b",
					"pause()": "8456cb59",
					"paused()": "5c975abb",
					"playerQuests(address,uint256)": "d3dcff7c",
					"players(address)": "e2eb41ff",
					"proxiableUUID()": "52d1902d",
					"recipes(uint256)": "443c227c",
					"renounceRole(bytes32,address)": "36568abe",
					"revokeRole(bytes32,address)": "d547741f",
					"startQuest(string,string,uint256)": "6f347a78",
					"supportsInterface(bytes4)": "01ffc9a7",
					"unpause()": "3f4ba83a",
					"upgradeToAndCall(address,bytes)": "4f1ef286"
				}
			},
			"storageLayout": {
				"storage": [
					{
						"astId": 1932,
						"contract": "src/contract/CryptoQuestTheShardsOfGenesisMMORPG.sol:CryptoQuestTheShardsOfGenesisMMPORPG",
						"label": "nextItemId",
						"offset": 0,
						"slot": "0",
						"type": "t_uint256"
					},
					{
						"astId": 1935,
						"contract": "src/contract/CryptoQuestTheShardsOfGenesisMMORPG.sol:CryptoQuestTheShardsOfGenesisMMPORPG",
						"label": "nextRecipeId",
						"offset": 0,
						"slot": "1",
						"type": "t_uint256"
					},
					{
						"astId": 1940,
						"contract": "src/contract/CryptoQuestTheShardsOfGenesisMMORPG.sol:CryptoQuestTheShardsOfGenesisMMPORPG",
						"label": "items",
						"offset": 0,
						"slot": "2",
						"type": "t_mapping(t_uint256,t_struct(Item)1906_storage)"
					},
					{
						"astId": 1945,
						"contract": "src/contract/CryptoQuestTheShardsOfGenesisMMORPG.sol:CryptoQuestTheShardsOfGenesisMMPORPG",
						"label": "players",
						"offset": 0,
						"slot": "3",
						"type": "t_mapping(t_address,t_struct(Player)1893_storage)"
					},
					{
						"astId": 1951,
						"contract": "src/contract/CryptoQuestTheShardsOfGenesisMMORPG.sol:CryptoQuestTheShardsOfGenesisMMPORPG",
						"label": "playerQuests",
						"offset": 0,
						"slot": "4",
						"type": "t_mapping(t_address,t_array(t_struct(Quest)1915_storage)dyn_storage)"
					},
					{
						"astId": 1956,
						"contract": "src/contract/CryptoQuestTheShardsOfGenesisMMORPG.sol:CryptoQuestTheShardsOfGenesisMMPORPG",
						"label": "guilds",
						"offset": 0,
						"slot": "5",
						"type": "t_mapping(t_address,t_struct(Guild)1923_storage)"
					},
					{
						"astId": 1960,
						"contract": "src/contract/CryptoQuestTheShardsOfGenesisMMORPG.sol:CryptoQuestTheShardsOfGenesisMMPORPG",
						"label": "guildNameToLeader",
						"offset": 0,
						"slot": "6",
						"type": "t_mapping(t_string_memory_ptr,t_address)"
					},
					{
						"astId": 1965,
						"contract": "src/contract/CryptoQuestTheShardsOfGenesisMMORPG.sol:CryptoQuestTheShardsOfGenesisMMPORPG",
						"label": "recipes",
						"offset": 0,
						"slot": "7",
						"type": "t_mapping(t_uint256,t_struct(Recipe)1929_storage)"
					}
				],
				"types": {
					"t_address": {
						"encoding": "inplace",
						"label": "address",
						"numberOfBytes": "20"
					},
					"t_array(t_address)dyn_storage": {
						"base": "t_address",
						"encoding": "dynamic_array",
						"label": "address[]",
						"numberOfBytes": "32"
					},
					"t_array(t_struct(Quest)1915_storage)dyn_storage": {
						"base": "t_struct(Quest)1915_storage",
						"encoding": "dynamic_array",
						"label": "struct CryptoQuestTheShardsOfGenesisMMPORPG.Quest[]",
						"numberOfBytes": "32"
					},
					"t_array(t_uint256)dyn_storage": {
						"base": "t_uint256",
						"encoding": "dynamic_array",
						"label": "uint256[]",
						"numberOfBytes": "32"
					},
					"t_bool": {
						"encoding": "inplace",
						"label": "bool",
						"numberOfBytes": "1"
					},
					"t_mapping(t_address,t_array(t_struct(Quest)1915_storage)dyn_storage)": {
						"encoding": "mapping",
						"key": "t_address",
						"label": "mapping(address => struct CryptoQuestTheShardsOfGenesisMMPORPG.Quest[])",
						"numberOfBytes": "32",
						"value": "t_array(t_struct(Quest)1915_storage)dyn_storage"
					},
					"t_mapping(t_address,t_struct(Guild)1923_storage)": {
						"encoding": "mapping",
						"key": "t_address",
						"label": "mapping(address => struct CryptoQuestTheShardsOfGenesisMMPORPG.Guild)",
						"numberOfBytes": "32",
						"value": "t_struct(Guild)1923_storage"
					},
					"t_mapping(t_address,t_struct(Player)1893_storage)": {
						"encoding": "mapping",
						"key": "t_address",
						"label": "mapping(address => struct CryptoQuestTheShardsOfGenesisMMPORPG.Player)",
						"numberOfBytes": "32",
						"value": "t_struct(Player)1893_storage"
					},
					"t_mapping(t_string_memory_ptr,t_address)": {
						"encoding": "mapping",
						"key": "t_string_memory_ptr",
						"label": "mapping(string => address)",
						"numberOfBytes": "32",
						"value": "t_address"
					},
					"t_mapping(t_uint256,t_struct(Item)1906_storage)": {
						"encoding": "mapping",
						"key": "t_uint256",
						"label": "mapping(uint256 => struct CryptoQuestTheShardsOfGenesisMMPORPG.Item)",
						"numberOfBytes": "32",
						"value": "t_struct(Item)1906_storage"
					},
					"t_mapping(t_uint256,t_struct(Recipe)1929_storage)": {
						"encoding": "mapping",
						"key": "t_uint256",
						"label": "mapping(uint256 => struct CryptoQuestTheShardsOfGenesisMMPORPG.Recipe)",
						"numberOfBytes": "32",
						"value": "t_struct(Recipe)1929_storage"
					},
					"t_string_memory_ptr": {
						"encoding": "bytes",
						"label": "string",
						"numberOfBytes": "32"
					},
					"t_string_storage": {
						"encoding": "bytes",
						"label": "string",
						"numberOfBytes": "32"
					},
					"t_struct(Guild)1923_storage": {
						"encoding": "inplace",
						"label": "struct CryptoQuestTheShardsOfGenesisMMPORPG.Guild",
						"members": [
							{
								"astId": 1917,
								"contract": "src/contract/CryptoQuestTheShardsOfGenesisMMORPG.sol:CryptoQuestTheShardsOfGenesisMMPORPG",
								"label": "name",
								"offset": 0,
								"slot": "0",
								"type": "t_string_storage"
							},
							{
								"astId": 1919,
								"contract": "src/contract/CryptoQuestTheShardsOfGenesisMMORPG.sol:CryptoQuestTheShardsOfGenesisMMPORPG",
								"label": "leader",
								"offset": 0,
								"slot": "1",
								"type": "t_address"
							},
							{
								"astId": 1922,
								"contract": "src/contract/CryptoQuestTheShardsOfGenesisMMORPG.sol:CryptoQuestTheShardsOfGenesisMMPORPG",
								"label": "members",
								"offset": 0,
								"slot": "2",
								"type": "t_array(t_address)dyn_storage"
							}
						],
						"numberOfBytes": "96"
					},
					"t_struct(Item)1906_storage": {
						"encoding": "inplace",
						"label": "struct CryptoQuestTheShardsOfGenesisMMPORPG.Item",
						"members": [
							{
								"astId": 1895,
								"contract": "src/contract/CryptoQuestTheShardsOfGenesisMMORPG.sol:CryptoQuestTheShardsOfGenesisMMPORPG",
								"label": "id",
								"offset": 0,
								"slot": "0",
								"type": "t_uint256"
							},
							{
								"astId": 1897,
								"contract": "src/contract/CryptoQuestTheShardsOfGenesisMMORPG.sol:CryptoQuestTheShardsOfGenesisMMPORPG",
								"label": "name",
								"offset": 0,
								"slot": "1",
								"type": "t_string_storage"
							},
							{
								"astId": 1899,
								"contract": "src/contract/CryptoQuestTheShardsOfGenesisMMORPG.sol:CryptoQuestTheShardsOfGenesisMMPORPG",
								"label": "attackBonus",
								"offset": 0,
								"slot": "2",
								"type": "t_uint256"
							},
							{
								"astId": 1901,
								"contract": "src/contract/CryptoQuestTheShardsOfGenesisMMORPG.sol:CryptoQuestTheShardsOfGenesisMMPORPG",
								"label": "defenseBonus",
								"offset": 0,
								"slot": "3",
								"type": "t_uint256"
							},
							{
								"astId": 1903,
								"contract": "src/contract/CryptoQuestTheShardsOfGenesisMMORPG.sol:CryptoQuestTheShardsOfGenesisMMPORPG",
								"label": "manaBonus",
								"offset": 0,
								"slot": "4",
								"type": "t_uint256"
							},
							{
								"astId": 1905,
								"contract": "src/contract/CryptoQuestTheShardsOfGenesisMMORPG.sol:CryptoQuestTheShardsOfGenesisMMPORPG",
								"label": "healthBonus",
								"offset": 0,
								"slot": "5",
								"type": "t_uint256"
							}
						],
						"numberOfBytes": "192"
					},
					"t_struct(Player)1893_storage": {
						"encoding": "inplace",
						"label": "struct CryptoQuestTheShardsOfGenesisMMPORPG.Player",
						"members": [
							{
								"astId": 1872,
								"contract": "src/contract/CryptoQuestTheShardsOfGenesisMMORPG.sol:CryptoQuestTheShardsOfGenesisMMPORPG",
								"label": "level",
								"offset": 0,
								"slot": "0",
								"type": "t_uint256"
							},
							{
								"astId": 1874,
								"contract": "src/contract/CryptoQuestTheShardsOfGenesisMMORPG.sol:CryptoQuestTheShardsOfGenesisMMPORPG",
								"label": "experience",
								"offset": 0,
								"slot": "1",
								"type": "t_uint256"
							},
							{
								"astId": 1876,
								"contract": "src/contract/CryptoQuestTheShardsOfGenesisMMORPG.sol:CryptoQuestTheShardsOfGenesisMMPORPG",
								"label": "health",
								"offset": 0,
								"slot": "2",
								"type": "t_uint256"
							},
							{
								"astId": 1878,
								"contract": "src/contract/CryptoQuestTheShardsOfGenesisMMORPG.sol:CryptoQuestTheShardsOfGenesisMMPORPG",
								"label": "mana",
								"offset": 0,
								"slot": "3",
								"type": "t_uint256"
							},
							{
								"astId": 1880,
								"contract": "src/contract/CryptoQuestTheShardsOfGenesisMMORPG.sol:CryptoQuestTheShardsOfGenesisMMPORPG",
								"label": "attackDamage",
								"offset": 0,
								"slot": "4",
								"type": "t_uint256"
							},
							{
								"astId": 1882,
								"contract": "src/contract/CryptoQuestTheShardsOfGenesisMMORPG.sol:CryptoQuestTheShardsOfGenesisMMPORPG",
								"label": "defense",
								"offset": 0,
								"slot": "5",
								"type": "t_uint256"
							},
							{
								"astId": 1884,
								"contract": "src/contract/CryptoQuestTheShardsOfGenesisMMORPG.sol:CryptoQuestTheShardsOfGenesisMMPORPG",
								"label": "agility",
								"offset": 0,
								"slot": "6",
								"type": "t_uint256"
							},
							{
								"astId": 1886,
								"contract": "src/contract/CryptoQuestTheShardsOfGenesisMMORPG.sol:CryptoQuestTheShardsOfGenesisMMPORPG",
								"label": "luck",
								"offset": 0,
								"slot": "7",
								"type": "t_uint256"
							},
							{
								"astId": 1889,
								"contract": "src/contract/CryptoQuestTheShardsOfGenesisMMORPG.sol:CryptoQuestTheShardsOfGenesisMMPORPG",
								"label": "inventory",
								"offset": 0,
								"slot": "8",
								"type": "t_array(t_uint256)dyn_storage"
							},
							{
								"astId": 1892,
								"contract": "src/contract/CryptoQuestTheShardsOfGenesisMMORPG.sol:CryptoQuestTheShardsOfGenesisMMPORPG",
								"label": "skills",
								"offset": 0,
								"slot": "9",
								"type": "t_array(t_uint256)dyn_storage"
							}
						],
						"numberOfBytes": "320"
					},
					"t_struct(Quest)1915_storage": {
						"encoding": "inplace",
						"label": "struct CryptoQuestTheShardsOfGenesisMMPORPG.Quest",
						"members": [
							{
								"astId": 1908,
								"contract": "src/contract/CryptoQuestTheShardsOfGenesisMMORPG.sol:CryptoQuestTheShardsOfGenesisMMPORPG",
								"label": "title",
								"offset": 0,
								"slot": "0",
								"type": "t_string_storage"
							},
							{
								"astId": 1910,
								"contract": "src/contract/CryptoQuestTheShardsOfGenesisMMORPG.sol:CryptoQuestTheShardsOfGenesisMMPORPG",
								"label": "description",
								"offset": 0,
								"slot": "1",
								"type": "t_string_storage"
							},
							{
								"astId": 1912,
								"contract": "src/contract/CryptoQuestTheShardsOfGenesisMMORPG.sol:CryptoQuestTheShardsOfGenesisMMPORPG",
								"label": "rewardXP",
								"offset": 0,
								"slot": "2",
								"type": "t_uint256"
							},
							{
								"astId": 1914,
								"contract": "src/contract/CryptoQuestTheShardsOfGenesisMMORPG.sol:CryptoQuestTheShardsOfGenesisMMPORPG",
								"label": "completed",
								"offset": 0,
								"slot": "3",
								"type": "t_bool"
							}
						],
						"numberOfBytes": "128"
					},
					"t_struct(Recipe)1929_storage": {
						"encoding": "inplace",
						"label": "struct CryptoQuestTheShardsOfGenesisMMPORPG.Recipe",
						"members": [
							{
								"astId": 1926,
								"contract": "src/contract/CryptoQuestTheShardsOfGenesisMMORPG.sol:CryptoQuestTheShardsOfGenesisMMPORPG",
								"label": "itemIds",
								"offset": 0,
								"slot": "0",
								"type": "t_array(t_uint256)dyn_storage"
							},
							{
								"astId": 1928,
								"contract": "src/contract/CryptoQuestTheShardsOfGenesisMMORPG.sol:CryptoQuestTheShardsOfGenesisMMPORPG",
								"label": "resultItemId",
								"offset": 0,
								"slot": "1",
								"type": "t_uint256"
							}
						],
						"numberOfBytes": "64"
					},
					"t_uint256": {
						"encoding": "inplace",
						"label": "uint256",
						"numberOfBytes": "32"
					}
				}
			},
			"userdoc": {
				"kind": "user",
				"methods": {},
				"version": 1
			}
		}
	}
}