{
	"src/smartcontracts/CryptoQuestSwap.sol": {
		"CryptoQuestSwap": {
			"abi": [
				{
					"inputs": [],
					"stateMutability": "nonpayable",
					"type": "constructor"
				},
				{
					"inputs": [],
					"name": "AccessControlBadConfirmation",
					"type": "error"
				},
				{
					"inputs": [
						{
							"internalType": "address",
							"name": "account",
							"type": "address"
						},
						{
							"internalType": "bytes32",
							"name": "neededRole",
							"type": "bytes32"
						}
					],
					"name": "AccessControlUnauthorizedAccount",
					"type": "error"
				},
				{
					"inputs": [
						{
							"internalType": "address",
							"name": "target",
							"type": "address"
						}
					],
					"name": "AddressEmptyCode",
					"type": "error"
				},
				{
					"inputs": [
						{
							"internalType": "address",
							"name": "implementation",
							"type": "address"
						}
					],
					"name": "ERC1967InvalidImplementation",
					"type": "error"
				},
				{
					"inputs": [],
					"name": "ERC1967NonPayable",
					"type": "error"
				},
				{
					"inputs": [],
					"name": "EnforcedPause",
					"type": "error"
				},
				{
					"inputs": [],
					"name": "ExpectedPause",
					"type": "error"
				},
				{
					"inputs": [],
					"name": "FailedInnerCall",
					"type": "error"
				},
				{
					"inputs": [],
					"name": "InvalidInitialization",
					"type": "error"
				},
				{
					"inputs": [],
					"name": "NotInitializing",
					"type": "error"
				},
				{
					"inputs": [],
					"name": "UUPSUnauthorizedCallContext",
					"type": "error"
				},
				{
					"inputs": [
						{
							"internalType": "bytes32",
							"name": "slot",
							"type": "bytes32"
						}
					],
					"name": "UUPSUnsupportedProxiableUUID",
					"type": "error"
				},
				{
					"anonymous": false,
					"inputs": [
						{
							"indexed": false,
							"internalType": "uint64",
							"name": "version",
							"type": "uint64"
						}
					],
					"name": "Initialized",
					"type": "event"
				},
				{
					"anonymous": false,
					"inputs": [
						{
							"indexed": true,
							"internalType": "address",
							"name": "provider",
							"type": "address"
						},
						{
							"indexed": true,
							"internalType": "address",
							"name": "token",
							"type": "address"
						},
						{
							"indexed": false,
							"internalType": "uint256",
							"name": "tokenAmount",
							"type": "uint256"
						},
						{
							"indexed": false,
							"internalType": "uint256",
							"name": "ethAmount",
							"type": "uint256"
						},
						{
							"indexed": false,
							"internalType": "uint256",
							"name": "liquidity",
							"type": "uint256"
						}
					],
					"name": "LiquidityAdded",
					"type": "event"
				},
				{
					"anonymous": false,
					"inputs": [
						{
							"indexed": true,
							"internalType": "address",
							"name": "provider",
							"type": "address"
						},
						{
							"indexed": true,
							"internalType": "address",
							"name": "token",
							"type": "address"
						},
						{
							"indexed": false,
							"internalType": "uint256",
							"name": "tokenAmount",
							"type": "uint256"
						},
						{
							"indexed": false,
							"internalType": "uint256",
							"name": "ethAmount",
							"type": "uint256"
						},
						{
							"indexed": false,
							"internalType": "uint256",
							"name": "liquidity",
							"type": "uint256"
						}
					],
					"name": "LiquidityRemoved",
					"type": "event"
				},
				{
					"anonymous": false,
					"inputs": [
						{
							"indexed": true,
							"internalType": "address",
							"name": "swapper",
							"type": "address"
						},
						{
							"indexed": true,
							"internalType": "address",
							"name": "nftContract",
							"type": "address"
						},
						{
							"indexed": true,
							"internalType": "uint256",
							"name": "tokenId",
							"type": "uint256"
						},
						{
							"indexed": false,
							"internalType": "uint256",
							"name": "ethAmount",
							"type": "uint256"
						}
					],
					"name": "NFTSwapped",
					"type": "event"
				},
				{
					"anonymous": false,
					"inputs": [
						{
							"indexed": false,
							"internalType": "address",
							"name": "account",
							"type": "address"
						}
					],
					"name": "Paused",
					"type": "event"
				},
				{
					"anonymous": false,
					"inputs": [
						{
							"indexed": true,
							"internalType": "bytes32",
							"name": "role",
							"type": "bytes32"
						},
						{
							"indexed": true,
							"internalType": "bytes32",
							"name": "previousAdminRole",
							"type": "bytes32"
						},
						{
							"indexed": true,
							"internalType": "bytes32",
							"name": "newAdminRole",
							"type": "bytes32"
						}
					],
					"name": "RoleAdminChanged",
					"type": "event"
				},
				{
					"anonymous": false,
					"inputs": [
						{
							"indexed": true,
							"internalType": "bytes32",
							"name": "role",
							"type": "bytes32"
						},
						{
							"indexed": true,
							"internalType": "address",
							"name": "account",
							"type": "address"
						},
						{
							"indexed": true,
							"internalType": "address",
							"name": "sender",
							"type": "address"
						}
					],
					"name": "RoleGranted",
					"type": "event"
				},
				{
					"anonymous": false,
					"inputs": [
						{
							"indexed": true,
							"internalType": "bytes32",
							"name": "role",
							"type": "bytes32"
						},
						{
							"indexed": true,
							"internalType": "address",
							"name": "account",
							"type": "address"
						},
						{
							"indexed": true,
							"internalType": "address",
							"name": "sender",
							"type": "address"
						}
					],
					"name": "RoleRevoked",
					"type": "event"
				},
				{
					"anonymous": false,
					"inputs": [
						{
							"indexed": true,
							"internalType": "address",
							"name": "swapper",
							"type": "address"
						},
						{
							"indexed": true,
							"internalType": "address",
							"name": "token",
							"type": "address"
						},
						{
							"indexed": false,
							"internalType": "uint256",
							"name": "tokenAmount",
							"type": "uint256"
						},
						{
							"indexed": false,
							"internalType": "uint256",
							"name": "ethAmount",
							"type": "uint256"
						}
					],
					"name": "TokenSwapped",
					"type": "event"
				},
				{
					"anonymous": false,
					"inputs": [
						{
							"indexed": false,
							"internalType": "address",
							"name": "account",
							"type": "address"
						}
					],
					"name": "Unpaused",
					"type": "event"
				},
				{
					"anonymous": false,
					"inputs": [
						{
							"indexed": true,
							"internalType": "address",
							"name": "implementation",
							"type": "address"
						}
					],
					"name": "Upgraded",
					"type": "event"
				},
				{
					"inputs": [],
					"name": "DEFAULT_ADMIN_ROLE",
					"outputs": [
						{
							"internalType": "bytes32",
							"name": "",
							"type": "bytes32"
						}
					],
					"stateMutability": "view",
					"type": "function"
				},
				{
					"inputs": [],
					"name": "FEE_RATE",
					"outputs": [
						{
							"internalType": "uint256",
							"name": "",
							"type": "uint256"
						}
					],
					"stateMutability": "view",
					"type": "function"
				},
				{
					"inputs": [],
					"name": "LIQUIDITY_MANAGER_ROLE",
					"outputs": [
						{
							"internalType": "bytes32",
							"name": "",
							"type": "bytes32"
						}
					],
					"stateMutability": "view",
					"type": "function"
				},
				{
					"inputs": [],
					"name": "PAUSER_ROLE",
					"outputs": [
						{
							"internalType": "bytes32",
							"name": "",
							"type": "bytes32"
						}
					],
					"stateMutability": "view",
					"type": "function"
				},
				{
					"inputs": [],
					"name": "UPGRADER_ROLE",
					"outputs": [
						{
							"internalType": "bytes32",
							"name": "",
							"type": "bytes32"
						}
					],
					"stateMutability": "view",
					"type": "function"
				},
				{
					"inputs": [],
					"name": "UPGRADE_INTERFACE_VERSION",
					"outputs": [
						{
							"internalType": "string",
							"name": "",
							"type": "string"
						}
					],
					"stateMutability": "view",
					"type": "function"
				},
				{
					"inputs": [
						{
							"internalType": "address",
							"name": "token",
							"type": "address"
						},
						{
							"internalType": "uint256",
							"name": "tokenAmount",
							"type": "uint256"
						}
					],
					"name": "addLiquidity",
					"outputs": [
						{
							"internalType": "uint256",
							"name": "",
							"type": "uint256"
						}
					],
					"stateMutability": "payable",
					"type": "function"
				},
				{
					"inputs": [],
					"name": "cqtNFT",
					"outputs": [
						{
							"internalType": "contract IERC721Upgradeable",
							"name": "",
							"type": "address"
						}
					],
					"stateMutability": "view",
					"type": "function"
				},
				{
					"inputs": [],
					"name": "cqtToken",
					"outputs": [
						{
							"internalType": "contract IERC20Upgradeable",
							"name": "",
							"type": "address"
						}
					],
					"stateMutability": "view",
					"type": "function"
				},
				{
					"inputs": [
						{
							"internalType": "bytes32",
							"name": "role",
							"type": "bytes32"
						}
					],
					"name": "getRoleAdmin",
					"outputs": [
						{
							"internalType": "bytes32",
							"name": "",
							"type": "bytes32"
						}
					],
					"stateMutability": "view",
					"type": "function"
				},
				{
					"inputs": [
						{
							"internalType": "bytes32",
							"name": "role",
							"type": "bytes32"
						},
						{
							"internalType": "address",
							"name": "account",
							"type": "address"
						}
					],
					"name": "grantRole",
					"outputs": [],
					"stateMutability": "nonpayable",
					"type": "function"
				},
				{
					"inputs": [
						{
							"internalType": "bytes32",
							"name": "role",
							"type": "bytes32"
						},
						{
							"internalType": "address",
							"name": "account",
							"type": "address"
						}
					],
					"name": "hasRole",
					"outputs": [
						{
							"internalType": "bool",
							"name": "",
							"type": "bool"
						}
					],
					"stateMutability": "view",
					"type": "function"
				},
				{
					"inputs": [
						{
							"internalType": "address",
							"name": "defaultAdmin",
							"type": "address"
						},
						{
							"internalType": "address",
							"name": "pauser",
							"type": "address"
						},
						{
							"internalType": "address",
							"name": "upgrader",
							"type": "address"
						},
						{
							"internalType": "address",
							"name": "liquidityManager",
							"type": "address"
						},
						{
							"internalType": "address",
							"name": "cqtTokenAddress",
							"type": "address"
						},
						{
							"internalType": "address",
							"name": "cqtNFTAddress",
							"type": "address"
						}
					],
					"name": "initialize",
					"outputs": [],
					"stateMutability": "nonpayable",
					"type": "function"
				},
				{
					"inputs": [
						{
							"internalType": "address",
							"name": "",
							"type": "address"
						}
					],
					"name": "liquidityPools",
					"outputs": [
						{
							"internalType": "uint256",
							"name": "tokenAmount",
							"type": "uint256"
						},
						{
							"internalType": "uint256",
							"name": "ethAmount",
							"type": "uint256"
						},
						{
							"internalType": "uint256",
							"name": "totalLiquidity",
							"type": "uint256"
						}
					],
					"stateMutability": "view",
					"type": "function"
				},
				{
					"inputs": [],
					"name": "pause",
					"outputs": [],
					"stateMutability": "nonpayable",
					"type": "function"
				},
				{
					"inputs": [],
					"name": "paused",
					"outputs": [
						{
							"internalType": "bool",
							"name": "",
							"type": "bool"
						}
					],
					"stateMutability": "view",
					"type": "function"
				},
				{
					"inputs": [],
					"name": "proxiableUUID",
					"outputs": [
						{
							"internalType": "bytes32",
							"name": "",
							"type": "bytes32"
						}
					],
					"stateMutability": "view",
					"type": "function"
				},
				{
					"inputs": [
						{
							"internalType": "address",
							"name": "token",
							"type": "address"
						},
						{
							"internalType": "uint256",
							"name": "liquidity",
							"type": "uint256"
						}
					],
					"name": "removeLiquidity",
					"outputs": [
						{
							"internalType": "uint256",
							"name": "tokenAmount",
							"type": "uint256"
						},
						{
							"internalType": "uint256",
							"name": "ethAmount",
							"type": "uint256"
						}
					],
					"stateMutability": "nonpayable",
					"type": "function"
				},
				{
					"inputs": [
						{
							"internalType": "bytes32",
							"name": "role",
							"type": "bytes32"
						},
						{
							"internalType": "address",
							"name": "callerConfirmation",
							"type": "address"
						}
					],
					"name": "renounceRole",
					"outputs": [],
					"stateMutability": "nonpayable",
					"type": "function"
				},
				{
					"inputs": [
						{
							"internalType": "bytes32",
							"name": "role",
							"type": "bytes32"
						},
						{
							"internalType": "address",
							"name": "account",
							"type": "address"
						}
					],
					"name": "revokeRole",
					"outputs": [],
					"stateMutability": "nonpayable",
					"type": "function"
				},
				{
					"inputs": [
						{
							"internalType": "bytes4",
							"name": "interfaceId",
							"type": "bytes4"
						}
					],
					"name": "supportsInterface",
					"outputs": [
						{
							"internalType": "bool",
							"name": "",
							"type": "bool"
						}
					],
					"stateMutability": "view",
					"type": "function"
				},
				{
					"inputs": [
						{
							"internalType": "uint256",
							"name": "tokenId",
							"type": "uint256"
						},
						{
							"internalType": "uint256",
							"name": "minETH",
							"type": "uint256"
						}
					],
					"name": "swapETHForNFT",
					"outputs": [],
					"stateMutability": "payable",
					"type": "function"
				},
				{
					"inputs": [
						{
							"internalType": "address",
							"name": "token",
							"type": "address"
						},
						{
							"internalType": "uint256",
							"name": "minTokens",
							"type": "uint256"
						}
					],
					"name": "swapETHForTokens",
					"outputs": [],
					"stateMutability": "payable",
					"type": "function"
				},
				{
					"inputs": [
						{
							"internalType": "uint256",
							"name": "tokenId",
							"type": "uint256"
						},
						{
							"internalType": "uint256",
							"name": "minETH",
							"type": "uint256"
						}
					],
					"name": "swapNFTForETH",
					"outputs": [],
					"stateMutability": "nonpayable",
					"type": "function"
				},
				{
					"inputs": [
						{
							"internalType": "address",
							"name": "token",
							"type": "address"
						},
						{
							"internalType": "uint256",
							"name": "tokenAmount",
							"type": "uint256"
						},
						{
							"internalType": "uint256",
							"name": "minETH",
							"type": "uint256"
						}
					],
					"name": "swapTokensForETH",
					"outputs": [],
					"stateMutability": "nonpayable",
					"type": "function"
				},
				{
					"inputs": [],
					"name": "unpause",
					"outputs": [],
					"stateMutability": "nonpayable",
					"type": "function"
				},
				{
					"inputs": [
						{
							"internalType": "address",
							"name": "token",
							"type": "address"
						},
						{
							"internalType": "uint256",
							"name": "newTokenAmount",
							"type": "uint256"
						},
						{
							"internalType": "uint256",
							"name": "newEthAmount",
							"type": "uint256"
						}
					],
					"name": "updateLiquidityPool",
					"outputs": [],
					"stateMutability": "nonpayable",
					"type": "function"
				},
				{
					"inputs": [
						{
							"internalType": "address",
							"name": "newImplementation",
							"type": "address"
						},
						{
							"internalType": "bytes",
							"name": "data",
							"type": "bytes"
						}
					],
					"name": "upgradeToAndCall",
					"outputs": [],
					"stateMutability": "payable",
					"type": "function"
				},
				{
					"inputs": [
						{
							"internalType": "uint256",
							"name": "amount",
							"type": "uint256"
						}
					],
					"name": "withdrawETH",
					"outputs": [],
					"stateMutability": "nonpayable",
					"type": "function"
				},
				{
					"inputs": [
						{
							"internalType": "uint256",
							"name": "tokenId",
							"type": "uint256"
						}
					],
					"name": "withdrawNFT",
					"outputs": [],
					"stateMutability": "nonpayable",
					"type": "function"
				},
				{
					"inputs": [
						{
							"internalType": "address",
							"name": "token",
							"type": "address"
						},
						{
							"internalType": "uint256",
							"name": "amount",
							"type": "uint256"
						}
					],
					"name": "withdrawTokens",
					"outputs": [],
					"stateMutability": "nonpayable",
					"type": "function"
				}
			],
			"devdoc": {
				"custom:security-contact": "jacquedegraff@creodamo.com",
				"errors": {
					"AccessControlBadConfirmation()": [
						{
							"details": "The caller of a function is not the expected one. NOTE: Don't confuse with {AccessControlUnauthorizedAccount}."
						}
					],
					"AccessControlUnauthorizedAccount(address,bytes32)": [
						{
							"details": "The `account` is missing a role."
						}
					],
					"AddressEmptyCode(address)": [
						{
							"details": "There's no code at `target` (it is not a contract)."
						}
					],
					"ERC1967InvalidImplementation(address)": [
						{
							"details": "The `implementation` of the proxy is invalid."
						}
					],
					"ERC1967NonPayable()": [
						{
							"details": "An upgrade function sees `msg.value > 0` that may be lost."
						}
					],
					"EnforcedPause()": [
						{
							"details": "The operation failed because the contract is paused."
						}
					],
					"ExpectedPause()": [
						{
							"details": "The operation failed because the contract is not paused."
						}
					],
					"FailedInnerCall()": [
						{
							"details": "A call to an address target failed. The target may have reverted."
						}
					],
					"InvalidInitialization()": [
						{
							"details": "The contract is already initialized."
						}
					],
					"NotInitializing()": [
						{
							"details": "The contract is not initializing."
						}
					],
					"UUPSUnauthorizedCallContext()": [
						{
							"details": "The call is from an unauthorized context."
						}
					],
					"UUPSUnsupportedProxiableUUID(bytes32)": [
						{
							"details": "The storage `slot` is unsupported as a UUID."
						}
					]
				},
				"events": {
					"Initialized(uint64)": {
						"details": "Triggered when the contract has been initialized or reinitialized."
					},
					"Paused(address)": {
						"details": "Emitted when the pause is triggered by `account`."
					},
					"RoleAdminChanged(bytes32,bytes32,bytes32)": {
						"details": "Emitted when `newAdminRole` is set as ``role``'s admin role, replacing `previousAdminRole` `DEFAULT_ADMIN_ROLE` is the starting admin for all roles, despite {RoleAdminChanged} not being emitted signaling this."
					},
					"RoleGranted(bytes32,address,address)": {
						"details": "Emitted when `account` is granted `role`. `sender` is the account that originated the contract call, an admin role bearer except when using {AccessControl-_setupRole}."
					},
					"RoleRevoked(bytes32,address,address)": {
						"details": "Emitted when `account` is revoked `role`. `sender` is the account that originated the contract call:   - if using `revokeRole`, it is the admin role bearer   - if using `renounceRole`, it is the role bearer (i.e. `account`)"
					},
					"Unpaused(address)": {
						"details": "Emitted when the pause is lifted by `account`."
					},
					"Upgraded(address)": {
						"details": "Emitted when the implementation is upgraded."
					}
				},
				"kind": "dev",
				"methods": {
					"constructor": {
						"custom:oz-upgrades-unsafe-allow": "constructor"
					},
					"getRoleAdmin(bytes32)": {
						"details": "Returns the admin role that controls `role`. See {grantRole} and {revokeRole}. To change a role's admin, use {_setRoleAdmin}."
					},
					"grantRole(bytes32,address)": {
						"details": "Grants `role` to `account`. If `account` had not been already granted `role`, emits a {RoleGranted} event. Requirements: - the caller must have ``role``'s admin role. May emit a {RoleGranted} event."
					},
					"hasRole(bytes32,address)": {
						"details": "Returns `true` if `account` has been granted `role`."
					},
					"paused()": {
						"details": "Returns true if the contract is paused, and false otherwise."
					},
					"proxiableUUID()": {
						"details": "Implementation of the ERC1822 {proxiableUUID} function. This returns the storage slot used by the implementation. It is used to validate the implementation's compatibility when performing an upgrade. IMPORTANT: A proxy pointing at a proxiable contract should not be considered proxiable itself, because this risks bricking a proxy that upgrades to it, by delegating to itself until out of gas. Thus it is critical that this function revert if invoked through a proxy. This is guaranteed by the `notDelegated` modifier."
					},
					"renounceRole(bytes32,address)": {
						"details": "Revokes `role` from the calling account. Roles are often managed via {grantRole} and {revokeRole}: this function's purpose is to provide a mechanism for accounts to lose their privileges if they are compromised (such as when a trusted device is misplaced). If the calling account had been revoked `role`, emits a {RoleRevoked} event. Requirements: - the caller must be `callerConfirmation`. May emit a {RoleRevoked} event."
					},
					"revokeRole(bytes32,address)": {
						"details": "Revokes `role` from `account`. If `account` had been granted `role`, emits a {RoleRevoked} event. Requirements: - the caller must have ``role``'s admin role. May emit a {RoleRevoked} event."
					},
					"supportsInterface(bytes4)": {
						"details": "See {IERC165-supportsInterface}."
					},
					"upgradeToAndCall(address,bytes)": {
						"custom:oz-upgrades-unsafe-allow-reachable": "delegatecall",
						"details": "Upgrade the implementation of the proxy to `newImplementation`, and subsequently execute the function call encoded in `data`. Calls {_authorizeUpgrade}. Emits an {Upgraded} event."
					}
				},
				"version": 1
			},
			"evm": {
				"assembly": "    /* \"src/smartcontracts/CryptoQuestSwap.sol\":638:8779  contract CryptoQuestSwap is Initializable, PausableUpgradeable, AccessControlUpgradeable, UUPSUpgradeable {... */\n  mstore(0x40, 0xa0)\n    /* \"@openzeppelin/contracts-upgradeable/proxy/utils/UUPSUpgradeable.sol\":1171:1175  this */\n  address\n    /* \"@openzeppelin/contracts-upgradeable/proxy/utils/UUPSUpgradeable.sol\":1128:1176  address private immutable __self = address(this) */\n  0x80\n  mstore\n    /* \"src/smartcontracts/CryptoQuestSwap.sol\":1901:1954  constructor() {... */\n  callvalue\n  dup1\n  iszero\n  tag_1\n  jumpi\n  0x00\n  dup1\n  revert\ntag_1:\n  pop\n    /* \"src/smartcontracts/CryptoQuestSwap.sol\":1925:1947  _disableInitializers() */\n  tag_4\n    /* \"src/smartcontracts/CryptoQuestSwap.sol\":1925:1945  _disableInitializers */\n  tag_5\n    /* \"src/smartcontracts/CryptoQuestSwap.sol\":1925:1947  _disableInitializers() */\n  jump\t// in\ntag_4:\n    /* \"src/smartcontracts/CryptoQuestSwap.sol\":638:8779  contract CryptoQuestSwap is Initializable, PausableUpgradeable, AccessControlUpgradeable, UUPSUpgradeable {... */\n  jump(tag_15)\n    /* \"@openzeppelin/contracts-upgradeable/proxy/utils/Initializable.sol\":7711:8133  function _disableInitializers() internal virtual {... */\ntag_5:\n    /* \"@openzeppelin/contracts-upgradeable/proxy/utils/Initializable.sol\":8870:8891  INITIALIZABLE_STORAGE */\n  0xf0c57e16840df040f15088dc2f81fe391c3923bec73e23a9662efc9c229c6a00\n    /* \"@openzeppelin/contracts-upgradeable/proxy/utils/Initializable.sol\":7900:7915  $._initializing */\n  dup1\n  sload\n  0x010000000000000000\n  swap1\n  div\n  0xff\n  and\n    /* \"@openzeppelin/contracts-upgradeable/proxy/utils/Initializable.sol\":7896:7972  if ($._initializing) {... */\n  iszero\n  tag_10\n  jumpi\n    /* \"@openzeppelin/contracts-upgradeable/proxy/utils/Initializable.sol\":7938:7961  InvalidInitialization() */\n  mload(0x40)\n  shl(0xe0, 0xf92ee8a9)\n  dup2\n  mstore\n  0x04\n  add\n  mload(0x40)\n  dup1\n  swap2\n  sub\n  swap1\n  revert\n    /* \"@openzeppelin/contracts-upgradeable/proxy/utils/Initializable.sol\":7896:7972  if ($._initializing) {... */\ntag_10:\n    /* \"@openzeppelin/contracts-upgradeable/proxy/utils/Initializable.sol\":7985:7999  $._initialized */\n  dup1\n  sload\n  sub(shl(0x40, 0x01), 0x01)\n  swap1\n  dup2\n  and\n    /* \"@openzeppelin/contracts-upgradeable/proxy/utils/Initializable.sol\":7985:8019  $._initialized != type(uint64).max */\n  eq\n    /* \"@openzeppelin/contracts-upgradeable/proxy/utils/Initializable.sol\":7981:8127  if ($._initialized != type(uint64).max) {... */\n  tag_11\n  jumpi\n    /* \"@openzeppelin/contracts-upgradeable/proxy/utils/Initializable.sol\":8035:8068  $._initialized = type(uint64).max */\n  dup1\n  sload\n  not(sub(shl(0x40, 0x01), 0x01))\n  and\n  sub(shl(0x40, 0x01), 0x01)\n  swap1\n  dup2\n  or\n  dup3\n  sstore\n    /* \"@openzeppelin/contracts-upgradeable/proxy/utils/Initializable.sol\":8087:8116  Initialized(type(uint64).max) */\n  mload(0x40)\n    /* \"#utility.yul\":158:208   */\n  swap1\n  dup2\n  mstore\n    /* \"@openzeppelin/contracts-upgradeable/proxy/utils/Initializable.sol\":8087:8116  Initialized(type(uint64).max) */\n  0xc7f505b2f371ae2175ee4913f4499e1f2633a7b5936321eed1cdaeb6115181d2\n  swap1\n    /* \"#utility.yul\":146:148   */\n  0x20\n    /* \"#utility.yul\":131:149   */\n  add\n    /* \"@openzeppelin/contracts-upgradeable/proxy/utils/Initializable.sol\":8087:8116  Initialized(type(uint64).max) */\n  mload(0x40)\n  dup1\n  swap2\n  sub\n  swap1\n  log1\n    /* \"@openzeppelin/contracts-upgradeable/proxy/utils/Initializable.sol\":7981:8127  if ($._initialized != type(uint64).max) {... */\ntag_11:\n    /* \"@openzeppelin/contracts-upgradeable/proxy/utils/Initializable.sol\":7760:8133  {... */\n  pop\n    /* \"@openzeppelin/contracts-upgradeable/proxy/utils/Initializable.sol\":7711:8133  function _disableInitializers() internal virtual {... */\n  jump\t// out\n    /* \"#utility.yul\":14:214   */\ntag_15:\n    /* \"src/smartcontracts/CryptoQuestSwap.sol\":638:8779  contract CryptoQuestSwap is Initializable, PausableUpgradeable, AccessControlUpgradeable, UUPSUpgradeable {... */\n  mload(0x80)\n  codecopy(0x00, dataOffset(sub_0), dataSize(sub_0))\n  0x00\n  assignImmutable(\"0x3b04ad91523c4dcf551e081621e633b9099d51bf9c5461e58c3bc7354a578b27\")\n  return(0x00, dataSize(sub_0))\nstop\n\nsub_0: assembly {\n        /* \"src/smartcontracts/CryptoQuestSwap.sol\":638:8779  contract CryptoQuestSwap is Initializable, PausableUpgradeable, AccessControlUpgradeable, UUPSUpgradeable {... */\n      mstore(0x40, 0x80)\n      jumpi(tag_1, lt(calldatasize, 0x04))\n      shr(0xe0, calldataload(0x00))\n      dup1\n      0x56688700\n      gt\n      tag_33\n      jumpi\n      dup1\n      0xcc2a9a5b\n      gt\n      tag_34\n      jumpi\n      dup1\n      0xe15cc8da\n      gt\n      tag_35\n      jumpi\n      dup1\n      0xe15cc8da\n      eq\n      tag_29\n      jumpi\n      dup1\n      0xe63ab1e9\n      eq\n      tag_30\n      jumpi\n      dup1\n      0xf14210a6\n      eq\n      tag_31\n      jumpi\n      dup1\n      0xf72c0d8b\n      eq\n      tag_32\n      jumpi\n      0x00\n      dup1\n      revert\n    tag_35:\n      dup1\n      0xcc2a9a5b\n      eq\n      tag_25\n      jumpi\n      dup1\n      0xd547741f\n      eq\n      tag_26\n      jumpi\n      dup1\n      0xd9a37ad2\n      eq\n      tag_27\n      jumpi\n      dup1\n      0xda069683\n      eq\n      tag_28\n      jumpi\n      0x00\n      dup1\n      revert\n    tag_34:\n      dup1\n      0xa201ccf6\n      gt\n      tag_36\n      jumpi\n      dup1\n      0xa201ccf6\n      eq\n      tag_21\n      jumpi\n      dup1\n      0xa217fddf\n      eq\n      tag_22\n      jumpi\n      dup1\n      0xad3cb1cc\n      eq\n      tag_23\n      jumpi\n      dup1\n      0xc7088313\n      eq\n      tag_24\n      jumpi\n      0x00\n      dup1\n      revert\n    tag_36:\n      dup1\n      0x56688700\n      eq\n      tag_17\n      jumpi\n      dup1\n      0x5c975abb\n      eq\n      tag_18\n      jumpi\n      dup1\n      0x8456cb59\n      eq\n      tag_19\n      jumpi\n      dup1\n      0x91d14854\n      eq\n      tag_20\n      jumpi\n      0x00\n      dup1\n      revert\n    tag_33:\n      dup1\n      0x2f2ff15d\n      gt\n      tag_37\n      jumpi\n      dup1\n      0x49f0346e\n      gt\n      tag_38\n      jumpi\n      dup1\n      0x49f0346e\n      eq\n      tag_13\n      jumpi\n      dup1\n      0x4f1ef286\n      eq\n      tag_14\n      jumpi\n      dup1\n      0x51422e97\n      eq\n      tag_15\n      jumpi\n      dup1\n      0x52d1902d\n      eq\n      tag_16\n      jumpi\n      0x00\n      dup1\n      revert\n    tag_38:\n      dup1\n      0x2f2ff15d\n      eq\n      tag_9\n      jumpi\n      dup1\n      0x34aab064\n      eq\n      tag_10\n      jumpi\n      dup1\n      0x36568abe\n      eq\n      tag_11\n      jumpi\n      dup1\n      0x3f4ba83a\n      eq\n      tag_12\n      jumpi\n      0x00\n      dup1\n      revert\n    tag_37:\n      dup1\n      0x0b0fd47e\n      gt\n      tag_39\n      jumpi\n      dup1\n      0x0b0fd47e\n      eq\n      tag_5\n      jumpi\n      dup1\n      0x242f0551\n      eq\n      tag_6\n      jumpi\n      dup1\n      0x248a9ca3\n      eq\n      tag_7\n      jumpi\n      dup1\n      0x2d11c58a\n      eq\n      tag_8\n      jumpi\n      0x00\n      dup1\n      revert\n    tag_39:\n      dup1\n      0x01ffc9a7\n      eq\n      tag_2\n      jumpi\n      dup1\n      0x023245d7\n      eq\n      tag_3\n      jumpi\n      dup1\n      0x06b091f9\n      eq\n      tag_4\n      jumpi\n    tag_1:\n      0x00\n      dup1\n      revert\n        /* \"@openzeppelin/contracts-upgradeable/access/AccessControlUpgradeable.sol\":3443:3645  function supportsInterface(bytes4 interfaceId) public view virtual override returns (bool) {... */\n    tag_2:\n      callvalue\n      dup1\n      iszero\n      tag_40\n      jumpi\n      0x00\n      dup1\n      revert\n    tag_40:\n      pop\n      tag_41\n      tag_42\n      calldatasize\n      0x04\n      tag_43\n      jump\t// in\n    tag_42:\n      tag_44\n      jump\t// in\n    tag_41:\n      mload(0x40)\n        /* \"#utility.yul\":470:484   */\n      swap1\n      iszero\n        /* \"#utility.yul\":463:485   */\n      iszero\n        /* \"#utility.yul\":445:486   */\n      dup2\n      mstore\n        /* \"#utility.yul\":433:435   */\n      0x20\n        /* \"#utility.yul\":418:436   */\n      add\n        /* \"@openzeppelin/contracts-upgradeable/access/AccessControlUpgradeable.sol\":3443:3645  function supportsInterface(bytes4 interfaceId) public view virtual override returns (bool) {... */\n    tag_45:\n      mload(0x40)\n      dup1\n      swap2\n      sub\n      swap1\n      return\n        /* \"src/smartcontracts/CryptoQuestSwap.sol\":8625:8777  function withdrawNFT(uint256 tokenId) external onlyRole(DEFAULT_ADMIN_ROLE) {... */\n    tag_3:\n      callvalue\n      dup1\n      iszero\n      tag_47\n      jumpi\n      0x00\n      dup1\n      revert\n    tag_47:\n      pop\n      tag_48\n      tag_49\n      calldatasize\n      0x04\n      tag_50\n      jump\t// in\n    tag_49:\n      tag_51\n      jump\t// in\n    tag_48:\n      stop\n        /* \"src/smartcontracts/CryptoQuestSwap.sol\":8456:8619  function withdrawTokens(address token, uint256 amount) external onlyRole(DEFAULT_ADMIN_ROLE) {... */\n    tag_4:\n      callvalue\n      dup1\n      iszero\n      tag_52\n      jumpi\n      0x00\n      dup1\n      revert\n    tag_52:\n      pop\n      tag_48\n      tag_54\n      calldatasize\n      0x04\n      tag_55\n      jump\t// in\n    tag_54:\n      tag_56\n      jump\t// in\n        /* \"src/smartcontracts/CryptoQuestSwap.sol\":1283:1338  mapping(address => LiquidityPool) public liquidityPools */\n    tag_5:\n      callvalue\n      dup1\n      iszero\n      tag_57\n      jumpi\n      0x00\n      dup1\n      revert\n    tag_57:\n      pop\n      tag_58\n      tag_59\n      calldatasize\n      0x04\n      tag_60\n      jump\t// in\n    tag_59:\n      0x02\n      0x20\n      dup2\n      swap1\n      mstore\n      0x00\n      swap2\n      dup3\n      mstore\n      0x40\n      swap1\n      swap2\n      keccak256\n      dup1\n      sload\n      0x01\n      dup3\n      add\n      sload\n      swap2\n      swap1\n      swap3\n      add\n      sload\n      dup4\n      jump\n    tag_58:\n      0x40\n      dup1\n      mload\n        /* \"#utility.yul\":1690:1715   */\n      swap4\n      dup5\n      mstore\n        /* \"#utility.yul\":1746:1748   */\n      0x20\n        /* \"#utility.yul\":1731:1749   */\n      dup5\n      add\n        /* \"#utility.yul\":1724:1758   */\n      swap3\n      swap1\n      swap3\n      mstore\n        /* \"#utility.yul\":1774:1792   */\n      swap1\n      dup3\n      add\n        /* \"#utility.yul\":1767:1801   */\n      mstore\n        /* \"#utility.yul\":1678:1680   */\n      0x60\n        /* \"#utility.yul\":1663:1681   */\n      add\n        /* \"src/smartcontracts/CryptoQuestSwap.sol\":1283:1338  mapping(address => LiquidityPool) public liquidityPools */\n      tag_45\n        /* \"#utility.yul\":1488:1807   */\n      jump\n        /* \"src/smartcontracts/CryptoQuestSwap.sol\":890:974  bytes32 public constant LIQUIDITY_MANAGER_ROLE = keccak256(\"LIQUIDITY_MANAGER_ROLE\") */\n    tag_6:\n      callvalue\n      dup1\n      iszero\n      tag_64\n      jumpi\n      0x00\n      dup1\n      revert\n    tag_64:\n      pop\n      tag_65\n        /* \"src/smartcontracts/CryptoQuestSwap.sol\":939:974  keccak256(\"LIQUIDITY_MANAGER_ROLE\") */\n      0x77e60b99a50d27fb027f6912a507d956105b4148adab27a86d235c8bcca8fa2f\n        /* \"src/smartcontracts/CryptoQuestSwap.sol\":890:974  bytes32 public constant LIQUIDITY_MANAGER_ROLE = keccak256(\"LIQUIDITY_MANAGER_ROLE\") */\n      dup2\n      jump\n    tag_65:\n      mload(0x40)\n        /* \"#utility.yul\":1958:1983   */\n      swap1\n      dup2\n      mstore\n        /* \"#utility.yul\":1946:1948   */\n      0x20\n        /* \"#utility.yul\":1931:1949   */\n      add\n        /* \"src/smartcontracts/CryptoQuestSwap.sol\":890:974  bytes32 public constant LIQUIDITY_MANAGER_ROLE = keccak256(\"LIQUIDITY_MANAGER_ROLE\") */\n      tag_45\n        /* \"#utility.yul\":1812:1989   */\n      jump\n        /* \"@openzeppelin/contracts-upgradeable/access/AccessControlUpgradeable.sol\":4759:4950  function getRoleAdmin(bytes32 role) public view virtual returns (bytes32) {... */\n    tag_7:\n      callvalue\n      dup1\n      iszero\n      tag_69\n      jumpi\n      0x00\n      dup1\n      revert\n    tag_69:\n      pop\n      tag_65\n      tag_71\n      calldatasize\n      0x04\n      tag_50\n      jump\t// in\n    tag_71:\n      tag_73\n      jump\t// in\n        /* \"src/smartcontracts/CryptoQuestSwap.sol\":981:1017  uint256 public constant FEE_RATE = 3 */\n    tag_8:\n      callvalue\n      dup1\n      iszero\n      tag_75\n      jumpi\n      0x00\n      dup1\n      revert\n    tag_75:\n      pop\n      tag_65\n        /* \"src/smartcontracts/CryptoQuestSwap.sol\":1016:1017  3 */\n      0x03\n        /* \"src/smartcontracts/CryptoQuestSwap.sol\":981:1017  uint256 public constant FEE_RATE = 3 */\n      dup2\n      jump\n        /* \"@openzeppelin/contracts-upgradeable/access/AccessControlUpgradeable.sol\":5246:5382  function grantRole(bytes32 role, address account) public virtual onlyRole(getRoleAdmin(role)) {... */\n    tag_9:\n      callvalue\n      dup1\n      iszero\n      tag_80\n      jumpi\n      0x00\n      dup1\n      revert\n    tag_80:\n      pop\n      tag_48\n      tag_82\n      calldatasize\n      0x04\n      tag_83\n      jump\t// in\n    tag_82:\n      tag_84\n      jump\t// in\n        /* \"src/smartcontracts/CryptoQuestSwap.sol\":1036:1069  IERC20Upgradeable public cqtToken */\n    tag_10:\n      callvalue\n      dup1\n      iszero\n      tag_85\n      jumpi\n      0x00\n      dup1\n      revert\n    tag_85:\n      pop\n      sload(0x00)\n      tag_86\n      swap1\n      sub(shl(0xa0, 0x01), 0x01)\n      and\n      dup2\n      jump\n    tag_86:\n      mload(0x40)\n      sub(shl(0xa0, 0x01), 0x01)\n        /* \"#utility.yul\":2968:3000   */\n      swap1\n      swap2\n      and\n        /* \"#utility.yul\":2950:3001   */\n      dup2\n      mstore\n        /* \"#utility.yul\":2938:2940   */\n      0x20\n        /* \"#utility.yul\":2923:2941   */\n      add\n        /* \"src/smartcontracts/CryptoQuestSwap.sol\":1036:1069  IERC20Upgradeable public cqtToken */\n      tag_45\n        /* \"#utility.yul\":2779:3007   */\n      jump\n        /* \"@openzeppelin/contracts-upgradeable/access/AccessControlUpgradeable.sol\":6348:6593  function renounceRole(bytes32 role, address callerConfirmation) public virtual {... */\n    tag_11:\n      callvalue\n      dup1\n      iszero\n      tag_90\n      jumpi\n      0x00\n      dup1\n      revert\n    tag_90:\n      pop\n      tag_48\n      tag_92\n      calldatasize\n      0x04\n      tag_83\n      jump\t// in\n    tag_92:\n      tag_93\n      jump\t// in\n        /* \"src/smartcontracts/CryptoQuestSwap.sol\":2677:2752  function unpause() public onlyRole(PAUSER_ROLE) {... */\n    tag_12:\n      callvalue\n      dup1\n      iszero\n      tag_94\n      jumpi\n      0x00\n      dup1\n      revert\n    tag_94:\n      pop\n      tag_48\n      tag_96\n      jump\t// in\n        /* \"src/smartcontracts/CryptoQuestSwap.sol\":6319:6960  function swapETHForNFT(uint256 tokenId, uint256 minETH) external payable whenNotPaused {... */\n    tag_13:\n      tag_48\n      tag_98\n      calldatasize\n      0x04\n      tag_99\n      jump\t// in\n    tag_98:\n      tag_100\n      jump\t// in\n        /* \"@openzeppelin/contracts-upgradeable/proxy/utils/UUPSUpgradeable.sol\":4158:4372  function upgradeToAndCall(address newImplementation, bytes memory data) public payable virtual onlyProxy {... */\n    tag_14:\n      tag_48\n      tag_102\n      calldatasize\n      0x04\n      tag_103\n      jump\t// in\n    tag_102:\n      tag_104\n      jump\t// in\n        /* \"src/smartcontracts/CryptoQuestSwap.sol\":4824:5527  function swapETHForTokens(address token, uint256 minTokens) external payable whenNotPaused {... */\n    tag_15:\n      tag_48\n      tag_106\n      calldatasize\n      0x04\n      tag_55\n      jump\t// in\n    tag_106:\n      tag_107\n      jump\t// in\n        /* \"@openzeppelin/contracts-upgradeable/proxy/utils/UUPSUpgradeable.sol\":3705:3839  function proxiableUUID() external view virtual notDelegated returns (bytes32) {... */\n    tag_16:\n      callvalue\n      dup1\n      iszero\n      tag_108\n      jumpi\n      0x00\n      dup1\n      revert\n    tag_108:\n      pop\n      tag_65\n      tag_110\n      jump\t// in\n        /* \"src/smartcontracts/CryptoQuestSwap.sol\":2758:4007  function addLiquidity(address token, uint256 tokenAmount) external payable whenNotPaused returns (uint256) {... */\n    tag_17:\n      tag_65\n      tag_113\n      calldatasize\n      0x04\n      tag_55\n      jump\t// in\n    tag_113:\n      tag_114\n      jump\t// in\n        /* \"@openzeppelin/contracts-upgradeable/utils/PausableUpgradeable.sol\":2692:2837  function paused() public view virtual returns (bool) {... */\n    tag_18:\n      callvalue\n      dup1\n      iszero\n      tag_116\n      jumpi\n      0x00\n      dup1\n      revert\n    tag_116:\n      pop\n      0x00\n      dup1\n      mload\n      0x20\n      data_c0c65a3718f3702d917c44106b91645b509d2e2d0979b70495c3babce192339f\n      dup4\n      codecopy\n      dup2\n      mload\n      swap2\n      mstore\n        /* \"@openzeppelin/contracts-upgradeable/utils/PausableUpgradeable.sol\":2821:2830  $._paused */\n      sload\n      0xff\n      and\n        /* \"@openzeppelin/contracts-upgradeable/utils/PausableUpgradeable.sol\":2692:2837  function paused() public view virtual returns (bool) {... */\n      jump(tag_41)\n        /* \"src/smartcontracts/CryptoQuestSwap.sol\":2600:2671  function pause() public onlyRole(PAUSER_ROLE) {... */\n    tag_19:\n      callvalue\n      dup1\n      iszero\n      tag_120\n      jumpi\n      0x00\n      dup1\n      revert\n    tag_120:\n      pop\n      tag_48\n      tag_122\n      jump\t// in\n        /* \"@openzeppelin/contracts-upgradeable/access/AccessControlUpgradeable.sol\":3732:3939  function hasRole(bytes32 role, address account) public view virtual returns (bool) {... */\n    tag_20:\n      callvalue\n      dup1\n      iszero\n      tag_123\n      jumpi\n      0x00\n      dup1\n      revert\n    tag_123:\n      pop\n      tag_41\n      tag_125\n      calldatasize\n      0x04\n      tag_83\n      jump\t// in\n    tag_125:\n      tag_126\n      jump\t// in\n        /* \"src/smartcontracts/CryptoQuestSwap.sol\":4013:4818  function removeLiquidity(address token, uint256 liquidity) external whenNotPaused returns (uint256 tokenAmount, uint256 ethAmount) {... */\n    tag_21:\n      callvalue\n      dup1\n      iszero\n      tag_128\n      jumpi\n      0x00\n      dup1\n      revert\n    tag_128:\n      pop\n      tag_129\n      tag_130\n      calldatasize\n      0x04\n      tag_55\n      jump\t// in\n    tag_130:\n      tag_131\n      jump\t// in\n    tag_129:\n      0x40\n      dup1\n      mload\n        /* \"#utility.yul\":4753:4778   */\n      swap3\n      dup4\n      mstore\n        /* \"#utility.yul\":4809:4811   */\n      0x20\n        /* \"#utility.yul\":4794:4812   */\n      dup4\n      add\n        /* \"#utility.yul\":4787:4821   */\n      swap2\n      swap1\n      swap2\n      mstore\n        /* \"#utility.yul\":4726:4744   */\n      add\n        /* \"src/smartcontracts/CryptoQuestSwap.sol\":4013:4818  function removeLiquidity(address token, uint256 liquidity) external whenNotPaused returns (uint256 tokenAmount, uint256 ethAmount) {... */\n      tag_45\n        /* \"#utility.yul\":4579:4827   */\n      jump\n        /* \"@openzeppelin/contracts-upgradeable/access/AccessControlUpgradeable.sol\":2317:2366  bytes32 public constant DEFAULT_ADMIN_ROLE = 0x00 */\n    tag_22:\n      callvalue\n      dup1\n      iszero\n      tag_134\n      jumpi\n      0x00\n      dup1\n      revert\n    tag_134:\n      pop\n      tag_65\n        /* \"@openzeppelin/contracts-upgradeable/access/AccessControlUpgradeable.sol\":2362:2366  0x00 */\n      0x00\n        /* \"@openzeppelin/contracts-upgradeable/access/AccessControlUpgradeable.sol\":2317:2366  bytes32 public constant DEFAULT_ADMIN_ROLE = 0x00 */\n      dup2\n      jump\n        /* \"@openzeppelin/contracts-upgradeable/proxy/utils/UUPSUpgradeable.sol\":1819:1877  string public constant UPGRADE_INTERFACE_VERSION = \"5.0.0\" */\n    tag_23:\n      callvalue\n      dup1\n      iszero\n      tag_138\n      jumpi\n      0x00\n      dup1\n      revert\n    tag_138:\n      pop\n      tag_139\n      mload(0x40)\n      dup1\n      0x40\n      add\n      0x40\n      mstore\n      dup1\n      0x05\n      dup2\n      mstore\n      0x20\n      add\n      shl(0xdc, 0x0352e302e3)\n      dup2\n      mstore\n      pop\n      dup2\n      jump\n    tag_139:\n      mload(0x40)\n      tag_45\n      swap2\n      swap1\n      tag_142\n      jump\t// in\n        /* \"src/smartcontracts/CryptoQuestSwap.sol\":7987:8242  function updateLiquidityPool(address token, uint256 newTokenAmount, uint256 newEthAmount) external onlyRole(LIQUIDITY_MANAGER_ROLE) {... */\n    tag_24:\n      callvalue\n      dup1\n      iszero\n      tag_143\n      jumpi\n      0x00\n      dup1\n      revert\n    tag_143:\n      pop\n      tag_48\n      tag_145\n      calldatasize\n      0x04\n      tag_146\n      jump\t// in\n    tag_145:\n      tag_147\n      jump\t// in\n        /* \"src/smartcontracts/CryptoQuestSwap.sol\":1960:2594  function initialize(... */\n    tag_25:\n      callvalue\n      dup1\n      iszero\n      tag_148\n      jumpi\n      0x00\n      dup1\n      revert\n    tag_148:\n      pop\n      tag_48\n      tag_150\n      calldatasize\n      0x04\n      tag_151\n      jump\t// in\n    tag_150:\n      tag_152\n      jump\t// in\n        /* \"@openzeppelin/contracts-upgradeable/access/AccessControlUpgradeable.sol\":5662:5800  function revokeRole(bytes32 role, address account) public virtual onlyRole(getRoleAdmin(role)) {... */\n    tag_26:\n      callvalue\n      dup1\n      iszero\n      tag_153\n      jumpi\n      0x00\n      dup1\n      revert\n    tag_153:\n      pop\n      tag_48\n      tag_155\n      calldatasize\n      0x04\n      tag_83\n      jump\t// in\n    tag_155:\n      tag_156\n      jump\t// in\n        /* \"src/smartcontracts/CryptoQuestSwap.sol\":6966:7493  function swapNFTForETH(uint256 tokenId, uint256 minETH) external whenNotPaused {... */\n    tag_27:\n      callvalue\n      dup1\n      iszero\n      tag_157\n      jumpi\n      0x00\n      dup1\n      revert\n    tag_157:\n      pop\n      tag_48\n      tag_159\n      calldatasize\n      0x04\n      tag_99\n      jump\t// in\n    tag_159:\n      tag_160\n      jump\t// in\n        /* \"src/smartcontracts/CryptoQuestSwap.sol\":1075:1107  IERC721Upgradeable public cqtNFT */\n    tag_28:\n      callvalue\n      dup1\n      iszero\n      tag_161\n      jumpi\n      0x00\n      dup1\n      revert\n    tag_161:\n      pop\n      sload(0x01)\n      tag_86\n      swap1\n      sub(shl(0xa0, 0x01), 0x01)\n      and\n      dup2\n      jump\n        /* \"src/smartcontracts/CryptoQuestSwap.sol\":5533:6313  function swapTokensForETH(address token, uint256 tokenAmount, uint256 minETH) external whenNotPaused {... */\n    tag_29:\n      callvalue\n      dup1\n      iszero\n      tag_166\n      jumpi\n      0x00\n      dup1\n      revert\n    tag_166:\n      pop\n      tag_48\n      tag_168\n      calldatasize\n      0x04\n      tag_146\n      jump\t// in\n    tag_168:\n      tag_169\n      jump\t// in\n        /* \"src/smartcontracts/CryptoQuestSwap.sol\":750:812  bytes32 public constant PAUSER_ROLE = keccak256(\"PAUSER_ROLE\") */\n    tag_30:\n      callvalue\n      dup1\n      iszero\n      tag_170\n      jumpi\n      0x00\n      dup1\n      revert\n    tag_170:\n      pop\n      tag_65\n      0x00\n      dup1\n      mload\n      0x20\n      data_9b87106a812d214d41ad9b68a21119e2948eaaf1040375c939ec808b8862455c\n      dup4\n      codecopy\n      dup2\n      mload\n      swap2\n      mstore\n      dup2\n      jump\n        /* \"src/smartcontracts/CryptoQuestSwap.sol\":8248:8450  function withdrawETH(uint256 amount) external onlyRole(DEFAULT_ADMIN_ROLE) {... */\n    tag_31:\n      callvalue\n      dup1\n      iszero\n      tag_174\n      jumpi\n      0x00\n      dup1\n      revert\n    tag_174:\n      pop\n      tag_48\n      tag_176\n      calldatasize\n      0x04\n      tag_50\n      jump\t// in\n    tag_176:\n      tag_177\n      jump\t// in\n        /* \"src/smartcontracts/CryptoQuestSwap.sol\":818:884  bytes32 public constant UPGRADER_ROLE = keccak256(\"UPGRADER_ROLE\") */\n    tag_32:\n      callvalue\n      dup1\n      iszero\n      tag_178\n      jumpi\n      0x00\n      dup1\n      revert\n    tag_178:\n      pop\n      tag_65\n        /* \"src/smartcontracts/CryptoQuestSwap.sol\":858:884  keccak256(\"UPGRADER_ROLE\") */\n      0x189ab7a9244df0848122154315af71fe140f3db0fe014031783b0946b8c9d2e3\n        /* \"src/smartcontracts/CryptoQuestSwap.sol\":818:884  bytes32 public constant UPGRADER_ROLE = keccak256(\"UPGRADER_ROLE\") */\n      dup2\n      jump\n        /* \"@openzeppelin/contracts-upgradeable/access/AccessControlUpgradeable.sol\":3443:3645  function supportsInterface(bytes4 interfaceId) public view virtual override returns (bool) {... */\n    tag_44:\n        /* \"@openzeppelin/contracts-upgradeable/access/AccessControlUpgradeable.sol\":3528:3532  bool */\n      0x00\n      not(sub(shl(0xe0, 0x01), 0x01))\n        /* \"@openzeppelin/contracts-upgradeable/access/AccessControlUpgradeable.sol\":3551:3598  interfaceId == type(IAccessControl).interfaceId */\n      dup3\n      and\n      shl(0xe0, 0x7965db0b)\n      eq\n      dup1\n        /* \"@openzeppelin/contracts-upgradeable/access/AccessControlUpgradeable.sol\":3551:3638  interfaceId == type(IAccessControl).interfaceId || super.supportsInterface(interfaceId) */\n      tag_184\n      jumpi\n      pop\n      shl(0xe0, 0x01ffc9a7)\n      not(sub(shl(0xe0, 0x01), 0x01))\n        /* \"@openzeppelin/contracts-upgradeable/utils/introspection/ERC165Upgradeable.sol\":1133:1173  interfaceId == type(IERC165).interfaceId */\n      dup4\n      and\n      eq\n        /* \"@openzeppelin/contracts-upgradeable/access/AccessControlUpgradeable.sol\":3602:3638  super.supportsInterface(interfaceId) */\n    tag_184:\n        /* \"@openzeppelin/contracts-upgradeable/access/AccessControlUpgradeable.sol\":3544:3638  return interfaceId == type(IAccessControl).interfaceId || super.supportsInterface(interfaceId) */\n      swap3\n        /* \"@openzeppelin/contracts-upgradeable/access/AccessControlUpgradeable.sol\":3443:3645  function supportsInterface(bytes4 interfaceId) public view virtual override returns (bool) {... */\n      swap2\n      pop\n      pop\n      jump\t// out\n        /* \"src/smartcontracts/CryptoQuestSwap.sol\":8625:8777  function withdrawNFT(uint256 tokenId) external onlyRole(DEFAULT_ADMIN_ROLE) {... */\n    tag_51:\n        /* \"@openzeppelin/contracts-upgradeable/access/AccessControlUpgradeable.sol\":2362:2366  0x00 */\n      0x00\n        /* \"@openzeppelin/contracts-upgradeable/access/AccessControlUpgradeable.sol\":3191:3207  _checkRole(role) */\n      tag_187\n        /* \"@openzeppelin/contracts-upgradeable/access/AccessControlUpgradeable.sol\":2362:2366  0x00 */\n      dup2\n        /* \"@openzeppelin/contracts-upgradeable/access/AccessControlUpgradeable.sol\":3191:3201  _checkRole */\n      tag_188\n        /* \"@openzeppelin/contracts-upgradeable/access/AccessControlUpgradeable.sol\":3191:3207  _checkRole(role) */\n      jump\t// in\n    tag_187:\n        /* \"src/smartcontracts/CryptoQuestSwap.sol\":8711:8717  cqtNFT */\n      sload(0x01)\n        /* \"src/smartcontracts/CryptoQuestSwap.sol\":8711:8770  cqtNFT.safeTransferFrom(address(this), msg.sender, tokenId) */\n      mload(0x40)\n      shl(0xe1, 0x21421707)\n      dup2\n      mstore\n      sub(shl(0xa0, 0x01), 0x01)\n        /* \"src/smartcontracts/CryptoQuestSwap.sol\":8711:8717  cqtNFT */\n      swap1\n      swap2\n      and\n      swap1\n        /* \"src/smartcontracts/CryptoQuestSwap.sol\":8711:8734  cqtNFT.safeTransferFrom */\n      0x42842e0e\n      swap1\n        /* \"src/smartcontracts/CryptoQuestSwap.sol\":8711:8770  cqtNFT.safeTransferFrom(address(this), msg.sender, tokenId) */\n      tag_190\n      swap1\n        /* \"src/smartcontracts/CryptoQuestSwap.sol\":8743:8747  this */\n      address\n      swap1\n        /* \"src/smartcontracts/CryptoQuestSwap.sol\":8750:8760  msg.sender */\n      caller\n      swap1\n        /* \"src/smartcontracts/CryptoQuestSwap.sol\":8762:8769  tokenId */\n      dup8\n      swap1\n        /* \"src/smartcontracts/CryptoQuestSwap.sol\":8711:8770  cqtNFT.safeTransferFrom(address(this), msg.sender, tokenId) */\n      0x04\n      add\n      tag_191\n      jump\t// in\n    tag_190:\n      0x00\n      mload(0x40)\n      dup1\n      dup4\n      sub\n      dup2\n      0x00\n      dup8\n      dup1\n      extcodesize\n      iszero\n      dup1\n      iszero\n      tag_192\n      jumpi\n      0x00\n      dup1\n      revert\n    tag_192:\n      pop\n      gas\n      call\n      iszero\n      dup1\n      iszero\n      tag_194\n      jumpi\n      returndatasize\n      0x00\n      dup1\n      returndatacopy\n      revert(0x00, returndatasize)\n    tag_194:\n      pop\n      pop\n      pop\n      pop\n        /* \"src/smartcontracts/CryptoQuestSwap.sol\":8625:8777  function withdrawNFT(uint256 tokenId) external onlyRole(DEFAULT_ADMIN_ROLE) {... */\n      pop\n      pop\n      jump\t// out\n        /* \"src/smartcontracts/CryptoQuestSwap.sol\":8456:8619  function withdrawTokens(address token, uint256 amount) external onlyRole(DEFAULT_ADMIN_ROLE) {... */\n    tag_56:\n        /* \"@openzeppelin/contracts-upgradeable/access/AccessControlUpgradeable.sol\":2362:2366  0x00 */\n      0x00\n        /* \"@openzeppelin/contracts-upgradeable/access/AccessControlUpgradeable.sol\":3191:3207  _checkRole(role) */\n      tag_196\n        /* \"@openzeppelin/contracts-upgradeable/access/AccessControlUpgradeable.sol\":2362:2366  0x00 */\n      dup2\n        /* \"@openzeppelin/contracts-upgradeable/access/AccessControlUpgradeable.sol\":3191:3201  _checkRole */\n      tag_188\n        /* \"@openzeppelin/contracts-upgradeable/access/AccessControlUpgradeable.sol\":3191:3207  _checkRole(role) */\n      jump\t// in\n    tag_196:\n        /* \"src/smartcontracts/CryptoQuestSwap.sol\":8559:8612  IERC20Upgradeable(token).transfer(msg.sender, amount) */\n      mload(0x40)\n      shl(0xe0, 0xa9059cbb)\n      dup2\n      mstore\n        /* \"src/smartcontracts/CryptoQuestSwap.sol\":8593:8603  msg.sender */\n      caller\n        /* \"src/smartcontracts/CryptoQuestSwap.sol\":8559:8612  IERC20Upgradeable(token).transfer(msg.sender, amount) */\n      0x04\n      dup3\n      add\n        /* \"#utility.yul\":7491:7542   */\n      mstore\n        /* \"#utility.yul\":7558:7576   */\n      0x24\n      dup2\n      add\n        /* \"#utility.yul\":7551:7585   */\n      dup4\n      swap1\n      mstore\n      sub(shl(0xa0, 0x01), 0x01)\n        /* \"src/smartcontracts/CryptoQuestSwap.sol\":8559:8592  IERC20Upgradeable(token).transfer */\n      dup5\n      and\n      swap1\n      0xa9059cbb\n      swap1\n        /* \"#utility.yul\":7464:7482   */\n      0x44\n      add\n        /* \"src/smartcontracts/CryptoQuestSwap.sol\":8559:8612  IERC20Upgradeable(token).transfer(msg.sender, amount) */\n      0x20\n      mload(0x40)\n      dup1\n      dup4\n      sub\n      dup2\n      0x00\n      dup8\n      gas\n      call\n      iszero\n      dup1\n      iszero\n      tag_201\n      jumpi\n      returndatasize\n      0x00\n      dup1\n      returndatacopy\n      revert(0x00, returndatasize)\n    tag_201:\n      pop\n      pop\n      pop\n      pop\n      mload(0x40)\n      returndatasize\n      not(0x1f)\n      0x1f\n      dup3\n      add\n      and\n      dup3\n      add\n      dup1\n      0x40\n      mstore\n      pop\n      dup2\n      add\n      swap1\n      tag_202\n      swap2\n      swap1\n      tag_203\n      jump\t// in\n    tag_202:\n      pop\n        /* \"src/smartcontracts/CryptoQuestSwap.sol\":8456:8619  function withdrawTokens(address token, uint256 amount) external onlyRole(DEFAULT_ADMIN_ROLE) {... */\n      pop\n      pop\n      pop\n      jump\t// out\n        /* \"@openzeppelin/contracts-upgradeable/access/AccessControlUpgradeable.sol\":4759:4950  function getRoleAdmin(bytes32 role) public view virtual returns (bytes32) {... */\n    tag_73:\n        /* \"@openzeppelin/contracts-upgradeable/access/AccessControlUpgradeable.sol\":4824:4831  bytes32 */\n      0x00\n        /* \"@openzeppelin/contracts-upgradeable/access/AccessControlUpgradeable.sol\":4919:4933  $._roles[role] */\n      swap1\n      dup2\n      mstore\n      0x00\n      dup1\n      mload\n      0x20\n      data_b3da67d1b252aeab7c8063542d95e75f82a5307a82535949bc38f7cf7ba8897f\n      dup4\n      codecopy\n      dup2\n      mload\n      swap2\n      mstore\n      0x20\n      mstore\n      0x40\n      swap1\n      keccak256\n        /* \"@openzeppelin/contracts-upgradeable/access/AccessControlUpgradeable.sol\":4919:4943  $._roles[role].adminRole */\n      0x01\n      add\n      sload\n      swap1\n        /* \"@openzeppelin/contracts-upgradeable/access/AccessControlUpgradeable.sol\":4759:4950  function getRoleAdmin(bytes32 role) public view virtual returns (bytes32) {... */\n      jump\t// out\n        /* \"@openzeppelin/contracts-upgradeable/access/AccessControlUpgradeable.sol\":5246:5382  function grantRole(bytes32 role, address account) public virtual onlyRole(getRoleAdmin(role)) {... */\n    tag_84:\n        /* \"@openzeppelin/contracts-upgradeable/access/AccessControlUpgradeable.sol\":5320:5338  getRoleAdmin(role) */\n      tag_207\n        /* \"@openzeppelin/contracts-upgradeable/access/AccessControlUpgradeable.sol\":5333:5337  role */\n      dup3\n        /* \"@openzeppelin/contracts-upgradeable/access/AccessControlUpgradeable.sol\":5320:5332  getRoleAdmin */\n      tag_73\n        /* \"@openzeppelin/contracts-upgradeable/access/AccessControlUpgradeable.sol\":5320:5338  getRoleAdmin(role) */\n      jump\t// in\n    tag_207:\n        /* \"@openzeppelin/contracts-upgradeable/access/AccessControlUpgradeable.sol\":3191:3207  _checkRole(role) */\n      tag_209\n        /* \"@openzeppelin/contracts-upgradeable/access/AccessControlUpgradeable.sol\":3202:3206  role */\n      dup2\n        /* \"@openzeppelin/contracts-upgradeable/access/AccessControlUpgradeable.sol\":3191:3201  _checkRole */\n      tag_188\n        /* \"@openzeppelin/contracts-upgradeable/access/AccessControlUpgradeable.sol\":3191:3207  _checkRole(role) */\n      jump\t// in\n    tag_209:\n        /* \"@openzeppelin/contracts-upgradeable/access/AccessControlUpgradeable.sol\":5350:5375  _grantRole(role, account) */\n      tag_202\n        /* \"@openzeppelin/contracts-upgradeable/access/AccessControlUpgradeable.sol\":5361:5365  role */\n      dup4\n        /* \"@openzeppelin/contracts-upgradeable/access/AccessControlUpgradeable.sol\":5367:5374  account */\n      dup4\n        /* \"@openzeppelin/contracts-upgradeable/access/AccessControlUpgradeable.sol\":5350:5360  _grantRole */\n      tag_212\n        /* \"@openzeppelin/contracts-upgradeable/access/AccessControlUpgradeable.sol\":5350:5375  _grantRole(role, account) */\n      jump\t// in\n        /* \"@openzeppelin/contracts-upgradeable/access/AccessControlUpgradeable.sol\":6348:6593  function renounceRole(bytes32 role, address callerConfirmation) public virtual {... */\n    tag_93:\n      sub(shl(0xa0, 0x01), 0x01)\n        /* \"@openzeppelin/contracts-upgradeable/access/AccessControlUpgradeable.sol\":6441:6475  callerConfirmation != _msgSender() */\n      dup2\n      and\n        /* \"@openzeppelin/contracts-upgradeable/utils/ContextUpgradeable.sol\":966:976  msg.sender */\n      caller\n        /* \"@openzeppelin/contracts-upgradeable/access/AccessControlUpgradeable.sol\":6441:6475  callerConfirmation != _msgSender() */\n      eq\n        /* \"@openzeppelin/contracts-upgradeable/access/AccessControlUpgradeable.sol\":6437:6539  if (callerConfirmation != _msgSender()) {... */\n      tag_216\n      jumpi\n        /* \"@openzeppelin/contracts-upgradeable/access/AccessControlUpgradeable.sol\":6498:6528  AccessControlBadConfirmation() */\n      mload(0x40)\n      shl(0xe1, 0x334bd919)\n      dup2\n      mstore\n      0x04\n      add\n      mload(0x40)\n      dup1\n      swap2\n      sub\n      swap1\n      revert\n        /* \"@openzeppelin/contracts-upgradeable/access/AccessControlUpgradeable.sol\":6437:6539  if (callerConfirmation != _msgSender()) {... */\n    tag_216:\n        /* \"@openzeppelin/contracts-upgradeable/access/AccessControlUpgradeable.sol\":6549:6586  _revokeRole(role, callerConfirmation) */\n      tag_217\n        /* \"@openzeppelin/contracts-upgradeable/access/AccessControlUpgradeable.sol\":6561:6565  role */\n      dup3\n        /* \"@openzeppelin/contracts-upgradeable/access/AccessControlUpgradeable.sol\":6567:6585  callerConfirmation */\n      dup3\n        /* \"@openzeppelin/contracts-upgradeable/access/AccessControlUpgradeable.sol\":6549:6560  _revokeRole */\n      tag_218\n        /* \"@openzeppelin/contracts-upgradeable/access/AccessControlUpgradeable.sol\":6549:6586  _revokeRole(role, callerConfirmation) */\n      jump\t// in\n    tag_217:\n      pop\n        /* \"@openzeppelin/contracts-upgradeable/access/AccessControlUpgradeable.sol\":6348:6593  function renounceRole(bytes32 role, address callerConfirmation) public virtual {... */\n      pop\n      pop\n      jump\t// out\n        /* \"src/smartcontracts/CryptoQuestSwap.sol\":2677:2752  function unpause() public onlyRole(PAUSER_ROLE) {... */\n    tag_96:\n      0x00\n      dup1\n      mload\n      0x20\n      data_9b87106a812d214d41ad9b68a21119e2948eaaf1040375c939ec808b8862455c\n      dup4\n      codecopy\n      dup2\n      mload\n      swap2\n      mstore\n        /* \"@openzeppelin/contracts-upgradeable/access/AccessControlUpgradeable.sol\":3191:3207  _checkRole(role) */\n      tag_220\n        /* \"@openzeppelin/contracts-upgradeable/access/AccessControlUpgradeable.sol\":3202:3206  role */\n      dup2\n        /* \"@openzeppelin/contracts-upgradeable/access/AccessControlUpgradeable.sol\":3191:3201  _checkRole */\n      tag_188\n        /* \"@openzeppelin/contracts-upgradeable/access/AccessControlUpgradeable.sol\":3191:3207  _checkRole(role) */\n      jump\t// in\n    tag_220:\n        /* \"src/smartcontracts/CryptoQuestSwap.sol\":2735:2745  _unpause() */\n      tag_222\n        /* \"src/smartcontracts/CryptoQuestSwap.sol\":2735:2743  _unpause */\n      tag_223\n        /* \"src/smartcontracts/CryptoQuestSwap.sol\":2735:2745  _unpause() */\n      jump\t// in\n    tag_222:\n        /* \"src/smartcontracts/CryptoQuestSwap.sol\":2677:2752  function unpause() public onlyRole(PAUSER_ROLE) {... */\n      pop\n      jump\t// out\n        /* \"src/smartcontracts/CryptoQuestSwap.sol\":6319:6960  function swapETHForNFT(uint256 tokenId, uint256 minETH) external payable whenNotPaused {... */\n    tag_100:\n        /* \"@openzeppelin/contracts-upgradeable/utils/PausableUpgradeable.sol\":2316:2335  _requireNotPaused() */\n      tag_225\n        /* \"@openzeppelin/contracts-upgradeable/utils/PausableUpgradeable.sol\":2316:2333  _requireNotPaused */\n      tag_226\n        /* \"@openzeppelin/contracts-upgradeable/utils/PausableUpgradeable.sol\":2316:2335  _requireNotPaused() */\n      jump\t// in\n    tag_225:\n        /* \"src/smartcontracts/CryptoQuestSwap.sol\":6436:6437  0 */\n      0x00\n        /* \"src/smartcontracts/CryptoQuestSwap.sol\":6424:6433  msg.value */\n      callvalue\n        /* \"src/smartcontracts/CryptoQuestSwap.sol\":6424:6437  msg.value > 0 */\n      gt\n        /* \"src/smartcontracts/CryptoQuestSwap.sol\":6416:6478  require(msg.value > 0, \"ETH amount must be greater than zero\") */\n      tag_228\n      jumpi\n      mload(0x40)\n      shl(0xe5, 0x461bcd)\n      dup2\n      mstore\n      0x04\n      add\n      tag_229\n      swap1\n      tag_230\n      jump\t// in\n    tag_229:\n      mload(0x40)\n      dup1\n      swap2\n      sub\n      swap1\n      revert\n    tag_228:\n        /* \"src/smartcontracts/CryptoQuestSwap.sol\":6496:6502  cqtNFT */\n      sload(0x01)\n        /* \"src/smartcontracts/CryptoQuestSwap.sol\":6496:6519  cqtNFT.ownerOf(tokenId) */\n      mload(0x40)\n      shl(0xe1, 0x31a9108f)\n      dup2\n      mstore\n      0x04\n      dup2\n      add\n        /* \"#utility.yul\":1958:1983   */\n      dup5\n      swap1\n      mstore\n        /* \"src/smartcontracts/CryptoQuestSwap.sol\":6531:6535  this */\n      address\n      swap2\n      sub(shl(0xa0, 0x01), 0x01)\n        /* \"src/smartcontracts/CryptoQuestSwap.sol\":6496:6502  cqtNFT */\n      and\n      swap1\n        /* \"src/smartcontracts/CryptoQuestSwap.sol\":6496:6510  cqtNFT.ownerOf */\n      0x6352211e\n      swap1\n        /* \"#utility.yul\":1931:1949   */\n      0x24\n      add\n        /* \"src/smartcontracts/CryptoQuestSwap.sol\":6496:6519  cqtNFT.ownerOf(tokenId) */\n      0x20\n      mload(0x40)\n      dup1\n      dup4\n      sub\n      dup2\n      dup7\n      gas\n      staticcall\n      iszero\n      dup1\n      iszero\n      tag_233\n      jumpi\n      returndatasize\n      0x00\n      dup1\n      returndatacopy\n      revert(0x00, returndatasize)\n    tag_233:\n      pop\n      pop\n      pop\n      pop\n      mload(0x40)\n      returndatasize\n      not(0x1f)\n      0x1f\n      dup3\n      add\n      and\n      dup3\n      add\n      dup1\n      0x40\n      mstore\n      pop\n      dup2\n      add\n      swap1\n      tag_234\n      swap2\n      swap1\n      tag_235\n      jump\t// in\n    tag_234:\n      sub(shl(0xa0, 0x01), 0x01)\n        /* \"src/smartcontracts/CryptoQuestSwap.sol\":6496:6536  cqtNFT.ownerOf(tokenId) == address(this) */\n      and\n      eq\n        /* \"src/smartcontracts/CryptoQuestSwap.sol\":6488:6566  require(cqtNFT.ownerOf(tokenId) == address(this), \"NFT not owned by contract\") */\n      tag_236\n      jumpi\n      mload(0x40)\n      shl(0xe5, 0x461bcd)\n      dup2\n      mstore\n        /* \"#utility.yul\":8741:8743   */\n      0x20\n        /* \"src/smartcontracts/CryptoQuestSwap.sol\":6488:6566  require(cqtNFT.ownerOf(tokenId) == address(this), \"NFT not owned by contract\") */\n      0x04\n      dup3\n      add\n        /* \"#utility.yul\":8723:8744   */\n      mstore\n        /* \"#utility.yul\":8780:8782   */\n      0x19\n        /* \"#utility.yul\":8760:8778   */\n      0x24\n      dup3\n      add\n        /* \"#utility.yul\":8753:8783   */\n      mstore\n        /* \"#utility.yul\":8819:8846   */\n      0x4e4654206e6f74206f776e656420627920636f6e747261637400000000000000\n        /* \"#utility.yul\":8799:8817   */\n      0x44\n      dup3\n      add\n        /* \"#utility.yul\":8792:8847   */\n      mstore\n        /* \"#utility.yul\":8864:8882   */\n      0x64\n      add\n        /* \"src/smartcontracts/CryptoQuestSwap.sol\":6488:6566  require(cqtNFT.ownerOf(tokenId) == address(this), \"NFT not owned by contract\") */\n      tag_229\n        /* \"#utility.yul\":8539:8888   */\n      jump\n        /* \"src/smartcontracts/CryptoQuestSwap.sol\":6488:6566  require(cqtNFT.ownerOf(tokenId) == address(this), \"NFT not owned by contract\") */\n    tag_236:\n        /* \"src/smartcontracts/CryptoQuestSwap.sol\":6577:6594  uint256 ethAmount */\n      0x00\n        /* \"src/smartcontracts/CryptoQuestSwap.sol\":6597:6661  getOutputAmount(msg.value, address(this).balance - msg.value, 1) */\n      tag_239\n        /* \"src/smartcontracts/CryptoQuestSwap.sol\":6613:6622  msg.value */\n      callvalue\n        /* \"src/smartcontracts/CryptoQuestSwap.sol\":6624:6657  address(this).balance - msg.value */\n      tag_240\n        /* \"src/smartcontracts/CryptoQuestSwap.sol\":6613:6622  msg.value */\n      dup2\n        /* \"src/smartcontracts/CryptoQuestSwap.sol\":6624:6645  address(this).balance */\n      selfbalance\n        /* \"src/smartcontracts/CryptoQuestSwap.sol\":6624:6657  address(this).balance - msg.value */\n      tag_241\n      jump\t// in\n    tag_240:\n        /* \"src/smartcontracts/CryptoQuestSwap.sol\":6659:6660  1 */\n      0x01\n        /* \"src/smartcontracts/CryptoQuestSwap.sol\":6597:6612  getOutputAmount */\n      tag_242\n        /* \"src/smartcontracts/CryptoQuestSwap.sol\":6597:6661  getOutputAmount(msg.value, address(this).balance - msg.value, 1) */\n      jump\t// in\n    tag_239:\n        /* \"src/smartcontracts/CryptoQuestSwap.sol\":6577:6661  uint256 ethAmount = getOutputAmount(msg.value, address(this).balance - msg.value, 1) */\n      swap1\n      pop\n        /* \"src/smartcontracts/CryptoQuestSwap.sol\":6721:6727  minETH */\n      dup2\n        /* \"src/smartcontracts/CryptoQuestSwap.sol\":6708:6717  ethAmount */\n      dup2\n        /* \"src/smartcontracts/CryptoQuestSwap.sol\":6708:6727  ethAmount >= minETH */\n      lt\n      iszero\n        /* \"src/smartcontracts/CryptoQuestSwap.sol\":6700:6759  require(ethAmount >= minETH, \"Slippage tolerance exceeded\") */\n      tag_243\n      jumpi\n      mload(0x40)\n      shl(0xe5, 0x461bcd)\n      dup2\n      mstore\n      0x04\n      add\n      tag_229\n      swap1\n      tag_245\n      jump\t// in\n    tag_243:\n        /* \"src/smartcontracts/CryptoQuestSwap.sol\":6770:6809  payable(msg.sender).transfer(ethAmount) */\n      mload(0x40)\n        /* \"src/smartcontracts/CryptoQuestSwap.sol\":6778:6788  msg.sender */\n      caller\n      swap1\n        /* \"src/smartcontracts/CryptoQuestSwap.sol\":6770:6809  payable(msg.sender).transfer(ethAmount) */\n      dup3\n      iszero\n      0x08fc\n      mul\n      swap1\n        /* \"src/smartcontracts/CryptoQuestSwap.sol\":6799:6808  ethAmount */\n      dup4\n      swap1\n        /* \"src/smartcontracts/CryptoQuestSwap.sol\":6770:6809  payable(msg.sender).transfer(ethAmount) */\n      0x00\n      dup2\n      dup2\n      dup2\n        /* \"src/smartcontracts/CryptoQuestSwap.sol\":6799:6808  ethAmount */\n      dup6\n        /* \"src/smartcontracts/CryptoQuestSwap.sol\":6778:6788  msg.sender */\n      dup9\n        /* \"src/smartcontracts/CryptoQuestSwap.sol\":6770:6809  payable(msg.sender).transfer(ethAmount) */\n      dup9\n      call\n      swap4\n      pop\n      pop\n      pop\n      pop\n      iszero\n      dup1\n      iszero\n      tag_247\n      jumpi\n      returndatasize\n      0x00\n      dup1\n      returndatacopy\n      revert(0x00, returndatasize)\n    tag_247:\n      pop\n        /* \"src/smartcontracts/CryptoQuestSwap.sol\":6819:6825  cqtNFT */\n      sload(0x01)\n        /* \"src/smartcontracts/CryptoQuestSwap.sol\":6819:6878  cqtNFT.safeTransferFrom(address(this), msg.sender, tokenId) */\n      mload(0x40)\n      shl(0xe1, 0x21421707)\n      dup2\n      mstore\n      sub(shl(0xa0, 0x01), 0x01)\n        /* \"src/smartcontracts/CryptoQuestSwap.sol\":6819:6825  cqtNFT */\n      swap1\n      swap2\n      and\n      swap1\n        /* \"src/smartcontracts/CryptoQuestSwap.sol\":6819:6842  cqtNFT.safeTransferFrom */\n      0x42842e0e\n      swap1\n        /* \"src/smartcontracts/CryptoQuestSwap.sol\":6819:6878  cqtNFT.safeTransferFrom(address(this), msg.sender, tokenId) */\n      tag_248\n      swap1\n        /* \"src/smartcontracts/CryptoQuestSwap.sol\":6851:6855  this */\n      address\n      swap1\n        /* \"src/smartcontracts/CryptoQuestSwap.sol\":6858:6868  msg.sender */\n      caller\n      swap1\n        /* \"src/smartcontracts/CryptoQuestSwap.sol\":6870:6877  tokenId */\n      dup9\n      swap1\n        /* \"src/smartcontracts/CryptoQuestSwap.sol\":6819:6878  cqtNFT.safeTransferFrom(address(this), msg.sender, tokenId) */\n      0x04\n      add\n      tag_191\n      jump\t// in\n    tag_248:\n      0x00\n      mload(0x40)\n      dup1\n      dup4\n      sub\n      dup2\n      0x00\n      dup8\n      dup1\n      extcodesize\n      iszero\n      dup1\n      iszero\n      tag_249\n      jumpi\n      0x00\n      dup1\n      revert\n    tag_249:\n      pop\n      gas\n      call\n      iszero\n      dup1\n      iszero\n      tag_251\n      jumpi\n      returndatasize\n      0x00\n      dup1\n      returndatacopy\n      revert(0x00, returndatasize)\n    tag_251:\n      pop\n      pop\n        /* \"src/smartcontracts/CryptoQuestSwap.sol\":6925:6931  cqtNFT */\n      sload(0x01)\n        /* \"src/smartcontracts/CryptoQuestSwap.sol\":6894:6953  NFTSwapped(msg.sender, address(cqtNFT), tokenId, ethAmount) */\n      mload(0x40)\n        /* \"#utility.yul\":1958:1983   */\n      dup5\n      dup2\n      mstore\n        /* \"src/smartcontracts/CryptoQuestSwap.sol\":6934:6941  tokenId */\n      dup7\n      swap4\n      pop\n      sub(shl(0xa0, 0x01), 0x01)\n        /* \"src/smartcontracts/CryptoQuestSwap.sol\":6925:6931  cqtNFT */\n      swap1\n      swap2\n      and\n      swap2\n      pop\n        /* \"src/smartcontracts/CryptoQuestSwap.sol\":6905:6915  msg.sender */\n      caller\n      swap1\n        /* \"src/smartcontracts/CryptoQuestSwap.sol\":6894:6953  NFTSwapped(msg.sender, address(cqtNFT), tokenId, ethAmount) */\n      0x9181665db8d8d5fcce186f7b2cfebe8fbcdc3a003664bbfce2e790f57b076e65\n      swap1\n        /* \"#utility.yul\":1946:1948   */\n      0x20\n        /* \"#utility.yul\":1931:1949   */\n      add\n        /* \"src/smartcontracts/CryptoQuestSwap.sol\":6894:6953  NFTSwapped(msg.sender, address(cqtNFT), tokenId, ethAmount) */\n    tag_252:\n      mload(0x40)\n      dup1\n      swap2\n      sub\n      swap1\n      log4\n        /* \"src/smartcontracts/CryptoQuestSwap.sol\":6406:6960  {... */\n      pop\n        /* \"src/smartcontracts/CryptoQuestSwap.sol\":6319:6960  function swapETHForNFT(uint256 tokenId, uint256 minETH) external payable whenNotPaused {... */\n      pop\n      pop\n      jump\t// out\n        /* \"@openzeppelin/contracts-upgradeable/proxy/utils/UUPSUpgradeable.sol\":4158:4372  function upgradeToAndCall(address newImplementation, bytes memory data) public payable virtual onlyProxy {... */\n    tag_104:\n        /* \"@openzeppelin/contracts-upgradeable/proxy/utils/UUPSUpgradeable.sol\":2653:2666  _checkProxy() */\n      tag_254\n        /* \"@openzeppelin/contracts-upgradeable/proxy/utils/UUPSUpgradeable.sol\":2653:2664  _checkProxy */\n      tag_255\n        /* \"@openzeppelin/contracts-upgradeable/proxy/utils/UUPSUpgradeable.sol\":2653:2666  _checkProxy() */\n      jump\t// in\n    tag_254:\n        /* \"@openzeppelin/contracts-upgradeable/proxy/utils/UUPSUpgradeable.sol\":4273:4309  _authorizeUpgrade(newImplementation) */\n      tag_257\n        /* \"@openzeppelin/contracts-upgradeable/proxy/utils/UUPSUpgradeable.sol\":4291:4308  newImplementation */\n      dup3\n        /* \"@openzeppelin/contracts-upgradeable/proxy/utils/UUPSUpgradeable.sol\":4273:4290  _authorizeUpgrade */\n      tag_258\n        /* \"@openzeppelin/contracts-upgradeable/proxy/utils/UUPSUpgradeable.sol\":4273:4309  _authorizeUpgrade(newImplementation) */\n      jump\t// in\n    tag_257:\n        /* \"@openzeppelin/contracts-upgradeable/proxy/utils/UUPSUpgradeable.sol\":4319:4365  _upgradeToAndCallUUPS(newImplementation, data) */\n      tag_259\n        /* \"@openzeppelin/contracts-upgradeable/proxy/utils/UUPSUpgradeable.sol\":4341:4358  newImplementation */\n      dup3\n        /* \"@openzeppelin/contracts-upgradeable/proxy/utils/UUPSUpgradeable.sol\":4360:4364  data */\n      dup3\n        /* \"@openzeppelin/contracts-upgradeable/proxy/utils/UUPSUpgradeable.sol\":4319:4340  _upgradeToAndCallUUPS */\n      tag_260\n        /* \"@openzeppelin/contracts-upgradeable/proxy/utils/UUPSUpgradeable.sol\":4319:4365  _upgradeToAndCallUUPS(newImplementation, data) */\n      jump\t// in\n    tag_259:\n        /* \"@openzeppelin/contracts-upgradeable/proxy/utils/UUPSUpgradeable.sol\":4158:4372  function upgradeToAndCall(address newImplementation, bytes memory data) public payable virtual onlyProxy {... */\n      pop\n      pop\n      jump\t// out\n        /* \"src/smartcontracts/CryptoQuestSwap.sol\":4824:5527  function swapETHForTokens(address token, uint256 minTokens) external payable whenNotPaused {... */\n    tag_107:\n        /* \"@openzeppelin/contracts-upgradeable/utils/PausableUpgradeable.sol\":2316:2335  _requireNotPaused() */\n      tag_262\n        /* \"@openzeppelin/contracts-upgradeable/utils/PausableUpgradeable.sol\":2316:2333  _requireNotPaused */\n      tag_226\n        /* \"@openzeppelin/contracts-upgradeable/utils/PausableUpgradeable.sol\":2316:2335  _requireNotPaused() */\n      jump\t// in\n    tag_262:\n        /* \"src/smartcontracts/CryptoQuestSwap.sol\":4945:4946  0 */\n      0x00\n        /* \"src/smartcontracts/CryptoQuestSwap.sol\":4933:4942  msg.value */\n      callvalue\n        /* \"src/smartcontracts/CryptoQuestSwap.sol\":4933:4946  msg.value > 0 */\n      gt\n        /* \"src/smartcontracts/CryptoQuestSwap.sol\":4925:4987  require(msg.value > 0, \"ETH amount must be greater than zero\") */\n      tag_264\n      jumpi\n      mload(0x40)\n      shl(0xe5, 0x461bcd)\n      dup2\n      mstore\n      0x04\n      add\n      tag_229\n      swap1\n      tag_230\n      jump\t// in\n    tag_264:\n      sub(shl(0xa0, 0x01), 0x01)\n        /* \"src/smartcontracts/CryptoQuestSwap.sol\":5026:5047  liquidityPools[token] */\n      dup3\n      and\n        /* \"src/smartcontracts/CryptoQuestSwap.sol\":4997:5023  LiquidityPool storage pool */\n      0x00\n        /* \"src/smartcontracts/CryptoQuestSwap.sol\":5026:5047  liquidityPools[token] */\n      swap1\n      dup2\n      mstore\n        /* \"src/smartcontracts/CryptoQuestSwap.sol\":5026:5040  liquidityPools */\n      0x02\n        /* \"src/smartcontracts/CryptoQuestSwap.sol\":5026:5047  liquidityPools[token] */\n      0x20\n      mstore\n      0x40\n      swap1\n      keccak256\n        /* \"src/smartcontracts/CryptoQuestSwap.sol\":5065:5079  pool.ethAmount */\n      0x01\n      dup2\n      add\n      sload\n        /* \"src/smartcontracts/CryptoQuestSwap.sol\":5065:5083  pool.ethAmount > 0 */\n      iszero\n      dup1\n      iszero\n      swap1\n        /* \"src/smartcontracts/CryptoQuestSwap.sol\":5065:5107  pool.ethAmount > 0 && pool.tokenAmount > 0 */\n      tag_266\n      jumpi\n      pop\n        /* \"src/smartcontracts/CryptoQuestSwap.sol\":5087:5103  pool.tokenAmount */\n      dup1\n      sload\n        /* \"src/smartcontracts/CryptoQuestSwap.sol\":5087:5107  pool.tokenAmount > 0 */\n      iszero\n      iszero\n        /* \"src/smartcontracts/CryptoQuestSwap.sol\":5065:5107  pool.ethAmount > 0 && pool.tokenAmount > 0 */\n    tag_266:\n        /* \"src/smartcontracts/CryptoQuestSwap.sol\":5057:5134  require(pool.ethAmount > 0 && pool.tokenAmount > 0, \"Insufficient liquidity\") */\n      tag_267\n      jumpi\n      mload(0x40)\n      shl(0xe5, 0x461bcd)\n      dup2\n      mstore\n      0x04\n      add\n      tag_229\n      swap1\n      tag_269\n      jump\t// in\n    tag_267:\n        /* \"src/smartcontracts/CryptoQuestSwap.sol\":5145:5164  uint256 tokenAmount */\n      0x00\n        /* \"src/smartcontracts/CryptoQuestSwap.sol\":5167:5227  getOutputAmount(msg.value, pool.ethAmount, pool.tokenAmount) */\n      tag_270\n        /* \"src/smartcontracts/CryptoQuestSwap.sol\":5183:5192  msg.value */\n      callvalue\n        /* \"src/smartcontracts/CryptoQuestSwap.sol\":5194:5198  pool */\n      dup4\n        /* \"src/smartcontracts/CryptoQuestSwap.sol\":5194:5208  pool.ethAmount */\n      0x01\n      add\n      sload\n        /* \"src/smartcontracts/CryptoQuestSwap.sol\":5210:5214  pool */\n      dup5\n        /* \"src/smartcontracts/CryptoQuestSwap.sol\":5210:5226  pool.tokenAmount */\n      0x00\n      add\n      sload\n        /* \"src/smartcontracts/CryptoQuestSwap.sol\":5167:5182  getOutputAmount */\n      tag_242\n        /* \"src/smartcontracts/CryptoQuestSwap.sol\":5167:5227  getOutputAmount(msg.value, pool.ethAmount, pool.tokenAmount) */\n      jump\t// in\n    tag_270:\n        /* \"src/smartcontracts/CryptoQuestSwap.sol\":5145:5227  uint256 tokenAmount = getOutputAmount(msg.value, pool.ethAmount, pool.tokenAmount) */\n      swap1\n      pop\n        /* \"src/smartcontracts/CryptoQuestSwap.sol\":5260:5269  minTokens */\n      dup3\n        /* \"src/smartcontracts/CryptoQuestSwap.sol\":5245:5256  tokenAmount */\n      dup2\n        /* \"src/smartcontracts/CryptoQuestSwap.sol\":5245:5269  tokenAmount >= minTokens */\n      lt\n      iszero\n        /* \"src/smartcontracts/CryptoQuestSwap.sol\":5237:5301  require(tokenAmount >= minTokens, \"Slippage tolerance exceeded\") */\n      tag_271\n      jumpi\n      mload(0x40)\n      shl(0xe5, 0x461bcd)\n      dup2\n      mstore\n      0x04\n      add\n      tag_229\n      swap1\n      tag_245\n      jump\t// in\n    tag_271:\n        /* \"src/smartcontracts/CryptoQuestSwap.sol\":5330:5339  msg.value */\n      callvalue\n        /* \"src/smartcontracts/CryptoQuestSwap.sol\":5312:5316  pool */\n      dup3\n        /* \"src/smartcontracts/CryptoQuestSwap.sol\":5312:5326  pool.ethAmount */\n      0x01\n      add\n      0x00\n        /* \"src/smartcontracts/CryptoQuestSwap.sol\":5312:5339  pool.ethAmount += msg.value */\n      dup3\n      dup3\n      sload\n      tag_273\n      swap2\n      swap1\n      tag_274\n      jump\t// in\n    tag_273:\n      swap1\n      swap2\n      sstore\n      pop\n      pop\n        /* \"src/smartcontracts/CryptoQuestSwap.sol\":5349:5380  pool.tokenAmount -= tokenAmount */\n      dup2\n      sload\n        /* \"src/smartcontracts/CryptoQuestSwap.sol\":5369:5380  tokenAmount */\n      dup2\n      swap1\n        /* \"src/smartcontracts/CryptoQuestSwap.sol\":5349:5353  pool */\n      dup4\n      swap1\n        /* \"src/smartcontracts/CryptoQuestSwap.sol\":5349:5365  pool.tokenAmount */\n      0x00\n      swap1\n        /* \"src/smartcontracts/CryptoQuestSwap.sol\":5349:5380  pool.tokenAmount -= tokenAmount */\n      tag_275\n      swap1\n        /* \"src/smartcontracts/CryptoQuestSwap.sol\":5369:5380  tokenAmount */\n      dup5\n      swap1\n        /* \"src/smartcontracts/CryptoQuestSwap.sol\":5349:5380  pool.tokenAmount -= tokenAmount */\n      tag_241\n      jump\t// in\n    tag_275:\n      swap1\n      swap2\n      sstore\n      pop\n      pop\n        /* \"src/smartcontracts/CryptoQuestSwap.sol\":5391:5449  IERC20Upgradeable(token).transfer(msg.sender, tokenAmount) */\n      mload(0x40)\n      shl(0xe0, 0xa9059cbb)\n      dup2\n      mstore\n        /* \"src/smartcontracts/CryptoQuestSwap.sol\":5425:5435  msg.sender */\n      caller\n        /* \"src/smartcontracts/CryptoQuestSwap.sol\":5391:5449  IERC20Upgradeable(token).transfer(msg.sender, tokenAmount) */\n      0x04\n      dup3\n      add\n        /* \"#utility.yul\":7491:7542   */\n      mstore\n        /* \"#utility.yul\":7558:7576   */\n      0x24\n      dup2\n      add\n        /* \"#utility.yul\":7551:7585   */\n      dup3\n      swap1\n      mstore\n      sub(shl(0xa0, 0x01), 0x01)\n        /* \"src/smartcontracts/CryptoQuestSwap.sol\":5391:5424  IERC20Upgradeable(token).transfer */\n      dup6\n      and\n      swap1\n      0xa9059cbb\n      swap1\n        /* \"#utility.yul\":7464:7482   */\n      0x44\n      add\n        /* \"src/smartcontracts/CryptoQuestSwap.sol\":5391:5449  IERC20Upgradeable(token).transfer(msg.sender, tokenAmount) */\n      0x20\n      mload(0x40)\n      dup1\n      dup4\n      sub\n      dup2\n      0x00\n      dup8\n      gas\n      call\n      iszero\n      dup1\n      iszero\n      tag_278\n      jumpi\n      returndatasize\n      0x00\n      dup1\n      returndatacopy\n      revert(0x00, returndatasize)\n    tag_278:\n      pop\n      pop\n      pop\n      pop\n      mload(0x40)\n      returndatasize\n      not(0x1f)\n      0x1f\n      dup3\n      add\n      and\n      dup3\n      add\n      dup1\n      0x40\n      mstore\n      pop\n      dup2\n      add\n      swap1\n      tag_279\n      swap2\n      swap1\n      tag_203\n      jump\t// in\n    tag_279:\n      pop\n        /* \"src/smartcontracts/CryptoQuestSwap.sol\":5465:5520  TokenSwapped(msg.sender, token, tokenAmount, msg.value) */\n      0x40\n      dup1\n      mload\n        /* \"#utility.yul\":4753:4778   */\n      dup3\n      dup2\n      mstore\n        /* \"src/smartcontracts/CryptoQuestSwap.sol\":5510:5519  msg.value */\n      callvalue\n        /* \"#utility.yul\":4809:4811   */\n      0x20\n        /* \"#utility.yul\":4794:4812   */\n      dup3\n      add\n        /* \"#utility.yul\":4787:4821   */\n      mstore\n      sub(shl(0xa0, 0x01), 0x01)\n        /* \"src/smartcontracts/CryptoQuestSwap.sol\":5465:5520  TokenSwapped(msg.sender, token, tokenAmount, msg.value) */\n      dup7\n      and\n      swap2\n        /* \"src/smartcontracts/CryptoQuestSwap.sol\":5478:5488  msg.sender */\n      caller\n      swap2\n        /* \"src/smartcontracts/CryptoQuestSwap.sol\":5465:5520  TokenSwapped(msg.sender, token, tokenAmount, msg.value) */\n      0x30b60ee4dc75c0fb04420331b13e9ad7f8ff8fc51eac9c97d36fb20ccbe09d66\n      swap2\n        /* \"#utility.yul\":4726:4744   */\n      add\n        /* \"src/smartcontracts/CryptoQuestSwap.sol\":5465:5520  TokenSwapped(msg.sender, token, tokenAmount, msg.value) */\n      mload(0x40)\n      dup1\n      swap2\n      sub\n      swap1\n      log3\n        /* \"src/smartcontracts/CryptoQuestSwap.sol\":4915:5527  {... */\n      pop\n      pop\n        /* \"src/smartcontracts/CryptoQuestSwap.sol\":4824:5527  function swapETHForTokens(address token, uint256 minTokens) external payable whenNotPaused {... */\n      pop\n      pop\n      jump\t// out\n        /* \"@openzeppelin/contracts-upgradeable/proxy/utils/UUPSUpgradeable.sol\":3705:3839  function proxiableUUID() external view virtual notDelegated returns (bytes32) {... */\n    tag_110:\n        /* \"@openzeppelin/contracts-upgradeable/proxy/utils/UUPSUpgradeable.sol\":3774:3781  bytes32 */\n      0x00\n        /* \"@openzeppelin/contracts-upgradeable/proxy/utils/UUPSUpgradeable.sol\":2924:2944  _checkNotDelegated() */\n      tag_282\n        /* \"@openzeppelin/contracts-upgradeable/proxy/utils/UUPSUpgradeable.sol\":2924:2942  _checkNotDelegated */\n      tag_283\n        /* \"@openzeppelin/contracts-upgradeable/proxy/utils/UUPSUpgradeable.sol\":2924:2944  _checkNotDelegated() */\n      jump\t// in\n    tag_282:\n      pop\n      0x00\n      dup1\n      mload\n      0x20\n      data_75b20eef8615de99c108b05f0dbda081c91897128caa336d75dffb97c4132b4d\n      dup4\n      codecopy\n      dup2\n      mload\n      swap2\n      mstore\n        /* \"@openzeppelin/contracts-upgradeable/proxy/utils/UUPSUpgradeable.sol\":3705:3839  function proxiableUUID() external view virtual notDelegated returns (bytes32) {... */\n      swap1\n      jump\t// out\n        /* \"src/smartcontracts/CryptoQuestSwap.sol\":2758:4007  function addLiquidity(address token, uint256 tokenAmount) external payable whenNotPaused returns (uint256) {... */\n    tag_114:\n        /* \"src/smartcontracts/CryptoQuestSwap.sol\":2856:2863  uint256 */\n      0x00\n        /* \"@openzeppelin/contracts-upgradeable/utils/PausableUpgradeable.sol\":2316:2335  _requireNotPaused() */\n      tag_286\n        /* \"@openzeppelin/contracts-upgradeable/utils/PausableUpgradeable.sol\":2316:2333  _requireNotPaused */\n      tag_226\n        /* \"@openzeppelin/contracts-upgradeable/utils/PausableUpgradeable.sol\":2316:2335  _requireNotPaused() */\n      jump\t// in\n    tag_286:\n        /* \"src/smartcontracts/CryptoQuestSwap.sol\":2897:2898  0 */\n      0x00\n        /* \"src/smartcontracts/CryptoQuestSwap.sol\":2883:2894  tokenAmount */\n      dup3\n        /* \"src/smartcontracts/CryptoQuestSwap.sol\":2883:2898  tokenAmount > 0 */\n      gt\n        /* \"src/smartcontracts/CryptoQuestSwap.sol\":2875:2941  require(tokenAmount > 0, \"Token amount must be greater than zero\") */\n      tag_288\n      jumpi\n      mload(0x40)\n      shl(0xe5, 0x461bcd)\n      dup2\n      mstore\n      0x04\n      add\n      tag_229\n      swap1\n      tag_290\n      jump\t// in\n    tag_288:\n        /* \"src/smartcontracts/CryptoQuestSwap.sol\":2971:2972  0 */\n      0x00\n        /* \"src/smartcontracts/CryptoQuestSwap.sol\":2959:2968  msg.value */\n      callvalue\n        /* \"src/smartcontracts/CryptoQuestSwap.sol\":2959:2972  msg.value > 0 */\n      gt\n        /* \"src/smartcontracts/CryptoQuestSwap.sol\":2951:3013  require(msg.value > 0, \"ETH amount must be greater than zero\") */\n      tag_291\n      jumpi\n      mload(0x40)\n      shl(0xe5, 0x461bcd)\n      dup2\n      mstore\n      0x04\n      add\n      tag_229\n      swap1\n      tag_230\n      jump\t// in\n    tag_291:\n        /* \"src/smartcontracts/CryptoQuestSwap.sol\":3024:3101  IERC20Upgradeable(token).transferFrom(msg.sender, address(this), tokenAmount) */\n      mload(0x40)\n      shl(0xe0, 0x23b872dd)\n      dup2\n      mstore\n      sub(shl(0xa0, 0x01), 0x01)\n        /* \"src/smartcontracts/CryptoQuestSwap.sol\":3024:3061  IERC20Upgradeable(token).transferFrom */\n      dup5\n      and\n      swap1\n      0x23b872dd\n      swap1\n        /* \"src/smartcontracts/CryptoQuestSwap.sol\":3024:3101  IERC20Upgradeable(token).transferFrom(msg.sender, address(this), tokenAmount) */\n      tag_293\n      swap1\n        /* \"src/smartcontracts/CryptoQuestSwap.sol\":3062:3072  msg.sender */\n      caller\n      swap1\n        /* \"src/smartcontracts/CryptoQuestSwap.sol\":3082:3086  this */\n      address\n      swap1\n        /* \"src/smartcontracts/CryptoQuestSwap.sol\":3089:3100  tokenAmount */\n      dup8\n      swap1\n        /* \"src/smartcontracts/CryptoQuestSwap.sol\":3024:3101  IERC20Upgradeable(token).transferFrom(msg.sender, address(this), tokenAmount) */\n      0x04\n      add\n      tag_191\n      jump\t// in\n    tag_293:\n      0x20\n      mload(0x40)\n      dup1\n      dup4\n      sub\n      dup2\n      0x00\n      dup8\n      gas\n      call\n      iszero\n      dup1\n      iszero\n      tag_295\n      jumpi\n      returndatasize\n      0x00\n      dup1\n      returndatacopy\n      revert(0x00, returndatasize)\n    tag_295:\n      pop\n      pop\n      pop\n      pop\n      mload(0x40)\n      returndatasize\n      not(0x1f)\n      0x1f\n      dup3\n      add\n      and\n      dup3\n      add\n      dup1\n      0x40\n      mstore\n      pop\n      dup2\n      add\n      swap1\n      tag_296\n      swap2\n      swap1\n      tag_203\n      jump\t// in\n    tag_296:\n      pop\n      sub(shl(0xa0, 0x01), 0x01)\n        /* \"src/smartcontracts/CryptoQuestSwap.sol\":3141:3162  liquidityPools[token] */\n      dup4\n      and\n        /* \"src/smartcontracts/CryptoQuestSwap.sol\":3112:3138  LiquidityPool storage pool */\n      0x00\n        /* \"src/smartcontracts/CryptoQuestSwap.sol\":3141:3162  liquidityPools[token] */\n      swap1\n      dup2\n      mstore\n        /* \"src/smartcontracts/CryptoQuestSwap.sol\":3141:3155  liquidityPools */\n      0x02\n        /* \"src/smartcontracts/CryptoQuestSwap.sol\":3141:3162  liquidityPools[token] */\n      0x20\n      dup2\n      swap1\n      mstore\n      0x40\n      dup3\n      keccak256\n        /* \"src/smartcontracts/CryptoQuestSwap.sol\":3204:3223  pool.totalLiquidity */\n      swap1\n      dup2\n      add\n      sload\n        /* \"src/smartcontracts/CryptoQuestSwap.sol\":3141:3162  liquidityPools[token] */\n      swap1\n      swap2\n        /* \"src/smartcontracts/CryptoQuestSwap.sol\":3112:3138  LiquidityPool storage pool */\n      swap1\n        /* \"src/smartcontracts/CryptoQuestSwap.sol\":3204:3228  pool.totalLiquidity == 0 */\n      dup2\n      sub\n        /* \"src/smartcontracts/CryptoQuestSwap.sol\":3200:3799  if (pool.totalLiquidity == 0) {... */\n      tag_297\n      jumpi\n      pop\n        /* \"src/smartcontracts/CryptoQuestSwap.sol\":3244:3274  pool.tokenAmount = tokenAmount */\n      dup3\n      dup2\n      sstore\n        /* \"src/smartcontracts/CryptoQuestSwap.sol\":3305:3314  msg.value */\n      callvalue\n        /* \"src/smartcontracts/CryptoQuestSwap.sol\":3288:3302  pool.ethAmount */\n      0x01\n      dup3\n      add\n        /* \"src/smartcontracts/CryptoQuestSwap.sol\":3288:3314  pool.ethAmount = msg.value */\n      sstore\n        /* \"src/smartcontracts/CryptoQuestSwap.sol\":3263:3274  tokenAmount */\n      dup3\n        /* \"src/smartcontracts/CryptoQuestSwap.sol\":3200:3799  if (pool.totalLiquidity == 0) {... */\n      jump(tag_298)\n    tag_297:\n        /* \"src/smartcontracts/CryptoQuestSwap.sol\":3407:3408  0 */\n      0x00\n        /* \"src/smartcontracts/CryptoQuestSwap.sol\":3390:3394  pool */\n      dup3\n        /* \"src/smartcontracts/CryptoQuestSwap.sol\":3390:3404  pool.ethAmount */\n      0x01\n      add\n      sload\n        /* \"src/smartcontracts/CryptoQuestSwap.sol\":3390:3408  pool.ethAmount > 0 */\n      gt\n        /* \"src/smartcontracts/CryptoQuestSwap.sol\":3390:3432  pool.ethAmount > 0 && pool.tokenAmount > 0 */\n      dup1\n      iszero\n      tag_299\n      jumpi\n      pop\n        /* \"src/smartcontracts/CryptoQuestSwap.sol\":3412:3428  pool.tokenAmount */\n      dup2\n      sload\n        /* \"src/smartcontracts/CryptoQuestSwap.sol\":3412:3432  pool.tokenAmount > 0 */\n      iszero\n      iszero\n        /* \"src/smartcontracts/CryptoQuestSwap.sol\":3390:3432  pool.ethAmount > 0 && pool.tokenAmount > 0 */\n    tag_299:\n        /* \"src/smartcontracts/CryptoQuestSwap.sol\":3382:3455  require(pool.ethAmount > 0 && pool.tokenAmount > 0, \"Invalid pool state\") */\n      tag_300\n      jumpi\n      mload(0x40)\n      shl(0xe5, 0x461bcd)\n      dup2\n      mstore\n        /* \"#utility.yul\":10604:10606   */\n      0x20\n        /* \"src/smartcontracts/CryptoQuestSwap.sol\":3382:3455  require(pool.ethAmount > 0 && pool.tokenAmount > 0, \"Invalid pool state\") */\n      0x04\n      dup3\n      add\n        /* \"#utility.yul\":10586:10607   */\n      mstore\n        /* \"#utility.yul\":10643:10645   */\n      0x12\n        /* \"#utility.yul\":10623:10641   */\n      0x24\n      dup3\n      add\n        /* \"#utility.yul\":10616:10646   */\n      mstore\n      shl(0x70, 0x496e76616c696420706f6f6c207374617465)\n        /* \"#utility.yul\":10662:10680   */\n      0x44\n      dup3\n      add\n        /* \"#utility.yul\":10655:10703   */\n      mstore\n        /* \"#utility.yul\":10720:10738   */\n      0x64\n      add\n        /* \"src/smartcontracts/CryptoQuestSwap.sol\":3382:3455  require(pool.ethAmount > 0 && pool.tokenAmount > 0, \"Invalid pool state\") */\n      tag_229\n        /* \"#utility.yul\":10402:10744   */\n      jump\n        /* \"src/smartcontracts/CryptoQuestSwap.sol\":3382:3455  require(pool.ethAmount > 0 && pool.tokenAmount > 0, \"Invalid pool state\") */\n    tag_300:\n        /* \"src/smartcontracts/CryptoQuestSwap.sol\":3470:3492  uint256 ethAmountRatio */\n      0x00\n        /* \"src/smartcontracts/CryptoQuestSwap.sol\":3528:3532  pool */\n      dup3\n        /* \"src/smartcontracts/CryptoQuestSwap.sol\":3528:3544  pool.tokenAmount */\n      0x00\n      add\n      sload\n        /* \"src/smartcontracts/CryptoQuestSwap.sol\":3513:3524  tokenAmount */\n      dup6\n        /* \"src/smartcontracts/CryptoQuestSwap.sol\":3496:3500  pool */\n      dup5\n        /* \"src/smartcontracts/CryptoQuestSwap.sol\":3496:3510  pool.ethAmount */\n      0x01\n      add\n      sload\n        /* \"src/smartcontracts/CryptoQuestSwap.sol\":3496:3524  pool.ethAmount * tokenAmount */\n      tag_303\n      swap2\n      swap1\n      tag_304\n      jump\t// in\n    tag_303:\n        /* \"src/smartcontracts/CryptoQuestSwap.sol\":3495:3544  (pool.ethAmount * tokenAmount) / pool.tokenAmount */\n      tag_305\n      swap2\n      swap1\n      tag_306\n      jump\t// in\n    tag_305:\n        /* \"src/smartcontracts/CryptoQuestSwap.sol\":3470:3544  uint256 ethAmountRatio = (pool.ethAmount * tokenAmount) / pool.tokenAmount */\n      swap1\n      pop\n        /* \"src/smartcontracts/CryptoQuestSwap.sol\":3579:3593  ethAmountRatio */\n      dup1\n        /* \"src/smartcontracts/CryptoQuestSwap.sol\":3566:3575  msg.value */\n      callvalue\n        /* \"src/smartcontracts/CryptoQuestSwap.sol\":3566:3593  msg.value >= ethAmountRatio */\n      lt\n      iszero\n        /* \"src/smartcontracts/CryptoQuestSwap.sol\":3558:3621  require(msg.value >= ethAmountRatio, \"Insufficient ETH amount\") */\n      tag_307\n      jumpi\n      mload(0x40)\n      shl(0xe5, 0x461bcd)\n      dup2\n      mstore\n        /* \"#utility.yul\":11346:11348   */\n      0x20\n        /* \"src/smartcontracts/CryptoQuestSwap.sol\":3558:3621  require(msg.value >= ethAmountRatio, \"Insufficient ETH amount\") */\n      0x04\n      dup3\n      add\n        /* \"#utility.yul\":11328:11349   */\n      mstore\n        /* \"#utility.yul\":11385:11387   */\n      0x17\n        /* \"#utility.yul\":11365:11383   */\n      0x24\n      dup3\n      add\n        /* \"#utility.yul\":11358:11388   */\n      mstore\n        /* \"#utility.yul\":11424:11449   */\n      0x496e73756666696369656e742045544820616d6f756e74000000000000000000\n        /* \"#utility.yul\":11404:11422   */\n      0x44\n      dup3\n      add\n        /* \"#utility.yul\":11397:11450   */\n      mstore\n        /* \"#utility.yul\":11467:11485   */\n      0x64\n      add\n        /* \"src/smartcontracts/CryptoQuestSwap.sol\":3558:3621  require(msg.value >= ethAmountRatio, \"Insufficient ETH amount\") */\n      tag_229\n        /* \"#utility.yul\":11144:11491   */\n      jump\n        /* \"src/smartcontracts/CryptoQuestSwap.sol\":3558:3621  require(msg.value >= ethAmountRatio, \"Insufficient ETH amount\") */\n    tag_307:\n        /* \"src/smartcontracts/CryptoQuestSwap.sol\":3656:3667  tokenAmount */\n      dup5\n        /* \"src/smartcontracts/CryptoQuestSwap.sol\":3636:3640  pool */\n      dup4\n        /* \"src/smartcontracts/CryptoQuestSwap.sol\":3636:3652  pool.tokenAmount */\n      0x00\n      add\n      0x00\n        /* \"src/smartcontracts/CryptoQuestSwap.sol\":3636:3667  pool.tokenAmount += tokenAmount */\n      dup3\n      dup3\n      sload\n      tag_310\n      swap2\n      swap1\n      tag_274\n      jump\t// in\n    tag_310:\n      swap3\n      pop\n      pop\n      dup2\n      swap1\n      sstore\n      pop\n        /* \"src/smartcontracts/CryptoQuestSwap.sol\":3699:3708  msg.value */\n      callvalue\n        /* \"src/smartcontracts/CryptoQuestSwap.sol\":3681:3685  pool */\n      dup4\n        /* \"src/smartcontracts/CryptoQuestSwap.sol\":3681:3695  pool.ethAmount */\n      0x01\n      add\n      0x00\n        /* \"src/smartcontracts/CryptoQuestSwap.sol\":3681:3708  pool.ethAmount += msg.value */\n      dup3\n      dup3\n      sload\n      tag_311\n      swap2\n      swap1\n      tag_274\n      jump\t// in\n    tag_311:\n      swap1\n      swap2\n      sstore\n      pop\n      pop\n        /* \"src/smartcontracts/CryptoQuestSwap.sol\":3772:3788  pool.tokenAmount */\n      dup3\n      sload\n        /* \"src/smartcontracts/CryptoQuestSwap.sol\":3735:3754  pool.totalLiquidity */\n      0x02\n      dup5\n      add\n      sload\n        /* \"src/smartcontracts/CryptoQuestSwap.sol\":3735:3768  pool.totalLiquidity * tokenAmount */\n      tag_312\n      swap1\n        /* \"src/smartcontracts/CryptoQuestSwap.sol\":3757:3768  tokenAmount */\n      dup8\n      swap1\n        /* \"src/smartcontracts/CryptoQuestSwap.sol\":3735:3768  pool.totalLiquidity * tokenAmount */\n      tag_304\n      jump\t// in\n    tag_312:\n        /* \"src/smartcontracts/CryptoQuestSwap.sol\":3734:3788  (pool.totalLiquidity * tokenAmount) / pool.tokenAmount */\n      tag_313\n      swap2\n      swap1\n      tag_306\n      jump\t// in\n    tag_313:\n        /* \"src/smartcontracts/CryptoQuestSwap.sol\":3722:3788  liquidity = (pool.totalLiquidity * tokenAmount) / pool.tokenAmount */\n      swap2\n      pop\n        /* \"src/smartcontracts/CryptoQuestSwap.sol\":3368:3799  {... */\n      pop\n        /* \"src/smartcontracts/CryptoQuestSwap.sol\":3200:3799  if (pool.totalLiquidity == 0) {... */\n    tag_298:\n        /* \"src/smartcontracts/CryptoQuestSwap.sol\":3832:3841  liquidity */\n      dup1\n        /* \"src/smartcontracts/CryptoQuestSwap.sol\":3809:3813  pool */\n      dup3\n        /* \"src/smartcontracts/CryptoQuestSwap.sol\":3809:3828  pool.totalLiquidity */\n      0x02\n      add\n      0x00\n        /* \"src/smartcontracts/CryptoQuestSwap.sol\":3809:3841  pool.totalLiquidity += liquidity */\n      dup3\n      dup3\n      sload\n      tag_314\n      swap2\n      swap1\n      tag_274\n      jump\t// in\n    tag_314:\n      swap1\n      swap2\n      sstore\n      pop\n      pop\n        /* \"src/smartcontracts/CryptoQuestSwap.sol\":3866:3876  msg.sender */\n      caller\n        /* \"src/smartcontracts/CryptoQuestSwap.sol\":3851:3877  pool.liquidity[msg.sender] */\n      0x00\n      swap1\n      dup2\n      mstore\n        /* \"src/smartcontracts/CryptoQuestSwap.sol\":3851:3865  pool.liquidity */\n      0x03\n      dup4\n      add\n        /* \"src/smartcontracts/CryptoQuestSwap.sol\":3851:3877  pool.liquidity[msg.sender] */\n      0x20\n      mstore\n      0x40\n      dup2\n      keccak256\n        /* \"src/smartcontracts/CryptoQuestSwap.sol\":3851:3890  pool.liquidity[msg.sender] += liquidity */\n      dup1\n      sload\n        /* \"src/smartcontracts/CryptoQuestSwap.sol\":3881:3890  liquidity */\n      dup4\n      swap3\n        /* \"src/smartcontracts/CryptoQuestSwap.sol\":3851:3877  pool.liquidity[msg.sender] */\n      swap1\n        /* \"src/smartcontracts/CryptoQuestSwap.sol\":3851:3890  pool.liquidity[msg.sender] += liquidity */\n      tag_315\n      swap1\n        /* \"src/smartcontracts/CryptoQuestSwap.sol\":3881:3890  liquidity */\n      dup5\n      swap1\n        /* \"src/smartcontracts/CryptoQuestSwap.sol\":3851:3890  pool.liquidity[msg.sender] += liquidity */\n      tag_274\n      jump\t// in\n    tag_315:\n      swap1\n      swap2\n      sstore\n      pop\n      pop\n        /* \"src/smartcontracts/CryptoQuestSwap.sol\":3906:3974  LiquidityAdded(msg.sender, token, tokenAmount, msg.value, liquidity) */\n      0x40\n      dup1\n      mload\n        /* \"#utility.yul\":1690:1715   */\n      dup6\n      dup2\n      mstore\n        /* \"src/smartcontracts/CryptoQuestSwap.sol\":3953:3962  msg.value */\n      callvalue\n        /* \"#utility.yul\":1746:1748   */\n      0x20\n        /* \"#utility.yul\":1731:1749   */\n      dup3\n      add\n        /* \"#utility.yul\":1724:1758   */\n      mstore\n        /* \"#utility.yul\":1774:1792   */\n      swap1\n      dup2\n      add\n        /* \"#utility.yul\":1767:1801   */\n      dup3\n      swap1\n      mstore\n      sub(shl(0xa0, 0x01), 0x01)\n        /* \"src/smartcontracts/CryptoQuestSwap.sol\":3906:3974  LiquidityAdded(msg.sender, token, tokenAmount, msg.value, liquidity) */\n      dup7\n      and\n      swap1\n        /* \"src/smartcontracts/CryptoQuestSwap.sol\":3921:3931  msg.sender */\n      caller\n      swap1\n        /* \"src/smartcontracts/CryptoQuestSwap.sol\":3906:3974  LiquidityAdded(msg.sender, token, tokenAmount, msg.value, liquidity) */\n      0x4a1a2a6176e9646d9e3157f7c2ab3c499f18337c0b0828cfb28e0a61de4a11f7\n      swap1\n        /* \"#utility.yul\":1678:1680   */\n      0x60\n        /* \"#utility.yul\":1663:1681   */\n      add\n        /* \"src/smartcontracts/CryptoQuestSwap.sol\":3906:3974  LiquidityAdded(msg.sender, token, tokenAmount, msg.value, liquidity) */\n      mload(0x40)\n      dup1\n      swap2\n      sub\n      swap1\n      log3\n        /* \"src/smartcontracts/CryptoQuestSwap.sol\":3991:4000  liquidity */\n      swap5\n        /* \"src/smartcontracts/CryptoQuestSwap.sol\":2758:4007  function addLiquidity(address token, uint256 tokenAmount) external payable whenNotPaused returns (uint256) {... */\n      swap4\n      pop\n      pop\n      pop\n      pop\n      jump\t// out\n        /* \"src/smartcontracts/CryptoQuestSwap.sol\":2600:2671  function pause() public onlyRole(PAUSER_ROLE) {... */\n    tag_122:\n      0x00\n      dup1\n      mload\n      0x20\n      data_9b87106a812d214d41ad9b68a21119e2948eaaf1040375c939ec808b8862455c\n      dup4\n      codecopy\n      dup2\n      mload\n      swap2\n      mstore\n        /* \"@openzeppelin/contracts-upgradeable/access/AccessControlUpgradeable.sol\":3191:3207  _checkRole(role) */\n      tag_321\n        /* \"@openzeppelin/contracts-upgradeable/access/AccessControlUpgradeable.sol\":3202:3206  role */\n      dup2\n        /* \"@openzeppelin/contracts-upgradeable/access/AccessControlUpgradeable.sol\":3191:3201  _checkRole */\n      tag_188\n        /* \"@openzeppelin/contracts-upgradeable/access/AccessControlUpgradeable.sol\":3191:3207  _checkRole(role) */\n      jump\t// in\n    tag_321:\n        /* \"src/smartcontracts/CryptoQuestSwap.sol\":2656:2664  _pause() */\n      tag_222\n        /* \"src/smartcontracts/CryptoQuestSwap.sol\":2656:2662  _pause */\n      tag_324\n        /* \"src/smartcontracts/CryptoQuestSwap.sol\":2656:2664  _pause() */\n      jump\t// in\n        /* \"@openzeppelin/contracts-upgradeable/access/AccessControlUpgradeable.sol\":3732:3939  function hasRole(bytes32 role, address account) public view virtual returns (bool) {... */\n    tag_126:\n        /* \"@openzeppelin/contracts-upgradeable/access/AccessControlUpgradeable.sol\":3809:3813  bool */\n      0x00\n        /* \"@openzeppelin/contracts-upgradeable/access/AccessControlUpgradeable.sol\":3901:3915  $._roles[role] */\n      swap2\n      dup3\n      mstore\n      0x00\n      dup1\n      mload\n      0x20\n      data_b3da67d1b252aeab7c8063542d95e75f82a5307a82535949bc38f7cf7ba8897f\n      dup4\n      codecopy\n      dup2\n      mload\n      swap2\n      mstore\n      0x20\n      swap1\n      dup2\n      mstore\n      0x40\n      dup1\n      dup5\n      keccak256\n      sub(shl(0xa0, 0x01), 0x01)\n        /* \"@openzeppelin/contracts-upgradeable/access/AccessControlUpgradeable.sol\":3901:3932  $._roles[role].hasRole[account] */\n      swap4\n      swap1\n      swap4\n      and\n      dup5\n      mstore\n      swap2\n      swap1\n      mstore\n      swap1\n      keccak256\n      sload\n      0xff\n      and\n      swap1\n        /* \"@openzeppelin/contracts-upgradeable/access/AccessControlUpgradeable.sol\":3732:3939  function hasRole(bytes32 role, address account) public view virtual returns (bool) {... */\n      jump\t// out\n        /* \"src/smartcontracts/CryptoQuestSwap.sol\":4013:4818  function removeLiquidity(address token, uint256 liquidity) external whenNotPaused returns (uint256 tokenAmount, uint256 ethAmount) {... */\n    tag_131:\n        /* \"src/smartcontracts/CryptoQuestSwap.sol\":4104:4123  uint256 tokenAmount */\n      0x00\n        /* \"src/smartcontracts/CryptoQuestSwap.sol\":4125:4142  uint256 ethAmount */\n      dup1\n        /* \"@openzeppelin/contracts-upgradeable/utils/PausableUpgradeable.sol\":2316:2335  _requireNotPaused() */\n      tag_328\n        /* \"@openzeppelin/contracts-upgradeable/utils/PausableUpgradeable.sol\":2316:2333  _requireNotPaused */\n      tag_226\n        /* \"@openzeppelin/contracts-upgradeable/utils/PausableUpgradeable.sol\":2316:2335  _requireNotPaused() */\n      jump\t// in\n    tag_328:\n      sub(shl(0xa0, 0x01), 0x01)\n        /* \"src/smartcontracts/CryptoQuestSwap.sol\":4183:4204  liquidityPools[token] */\n      dup5\n      and\n        /* \"src/smartcontracts/CryptoQuestSwap.sol\":4154:4180  LiquidityPool storage pool */\n      0x00\n        /* \"src/smartcontracts/CryptoQuestSwap.sol\":4183:4204  liquidityPools[token] */\n      swap1\n      dup2\n      mstore\n        /* \"src/smartcontracts/CryptoQuestSwap.sol\":4183:4197  liquidityPools */\n      0x02\n        /* \"src/smartcontracts/CryptoQuestSwap.sol\":4183:4204  liquidityPools[token] */\n      0x20\n      swap1\n      dup2\n      mstore\n      0x40\n      dup1\n      dup4\n      keccak256\n        /* \"src/smartcontracts/CryptoQuestSwap.sol\":4237:4247  msg.sender */\n      caller\n        /* \"src/smartcontracts/CryptoQuestSwap.sol\":4222:4248  pool.liquidity[msg.sender] */\n      dup5\n      mstore\n        /* \"src/smartcontracts/CryptoQuestSwap.sol\":4222:4236  pool.liquidity */\n      0x03\n      dup2\n      add\n        /* \"src/smartcontracts/CryptoQuestSwap.sol\":4222:4248  pool.liquidity[msg.sender] */\n      swap1\n      swap3\n      mstore\n      swap1\n      swap2\n      keccak256\n      sload\n        /* \"src/smartcontracts/CryptoQuestSwap.sol\":4222:4261  pool.liquidity[msg.sender] >= liquidity */\n      dup5\n      gt\n      iszero\n        /* \"src/smartcontracts/CryptoQuestSwap.sol\":4214:4288  require(pool.liquidity[msg.sender] >= liquidity, \"Insufficient liquidity\") */\n      tag_330\n      jumpi\n      mload(0x40)\n      shl(0xe5, 0x461bcd)\n      dup2\n      mstore\n      0x04\n      add\n      tag_229\n      swap1\n      tag_269\n      jump\t// in\n    tag_330:\n        /* \"src/smartcontracts/CryptoQuestSwap.sol\":4346:4365  pool.totalLiquidity */\n      0x02\n      dup2\n      add\n      sload\n        /* \"src/smartcontracts/CryptoQuestSwap.sol\":4314:4330  pool.tokenAmount */\n      dup2\n      sload\n        /* \"src/smartcontracts/CryptoQuestSwap.sol\":4314:4342  pool.tokenAmount * liquidity */\n      tag_332\n      swap1\n        /* \"src/smartcontracts/CryptoQuestSwap.sol\":4333:4342  liquidity */\n      dup7\n      swap1\n        /* \"src/smartcontracts/CryptoQuestSwap.sol\":4314:4342  pool.tokenAmount * liquidity */\n      tag_304\n      jump\t// in\n    tag_332:\n        /* \"src/smartcontracts/CryptoQuestSwap.sol\":4313:4365  (pool.tokenAmount * liquidity) / pool.totalLiquidity */\n      tag_333\n      swap2\n      swap1\n      tag_306\n      jump\t// in\n    tag_333:\n        /* \"src/smartcontracts/CryptoQuestSwap.sol\":4299:4365  tokenAmount = (pool.tokenAmount * liquidity) / pool.totalLiquidity */\n      swap3\n      pop\n        /* \"src/smartcontracts/CryptoQuestSwap.sol\":4418:4422  pool */\n      dup1\n        /* \"src/smartcontracts/CryptoQuestSwap.sol\":4418:4437  pool.totalLiquidity */\n      0x02\n      add\n      sload\n        /* \"src/smartcontracts/CryptoQuestSwap.sol\":4405:4414  liquidity */\n      dup5\n        /* \"src/smartcontracts/CryptoQuestSwap.sol\":4388:4392  pool */\n      dup3\n        /* \"src/smartcontracts/CryptoQuestSwap.sol\":4388:4402  pool.ethAmount */\n      0x01\n      add\n      sload\n        /* \"src/smartcontracts/CryptoQuestSwap.sol\":4388:4414  pool.ethAmount * liquidity */\n      tag_334\n      swap2\n      swap1\n      tag_304\n      jump\t// in\n    tag_334:\n        /* \"src/smartcontracts/CryptoQuestSwap.sol\":4387:4437  (pool.ethAmount * liquidity) / pool.totalLiquidity */\n      tag_335\n      swap2\n      swap1\n      tag_306\n      jump\t// in\n    tag_335:\n        /* \"src/smartcontracts/CryptoQuestSwap.sol\":4375:4437  ethAmount = (pool.ethAmount * liquidity) / pool.totalLiquidity */\n      swap2\n      pop\n        /* \"src/smartcontracts/CryptoQuestSwap.sol\":4468:4479  tokenAmount */\n      dup3\n        /* \"src/smartcontracts/CryptoQuestSwap.sol\":4448:4452  pool */\n      dup2\n        /* \"src/smartcontracts/CryptoQuestSwap.sol\":4448:4464  pool.tokenAmount */\n      0x00\n      add\n      0x00\n        /* \"src/smartcontracts/CryptoQuestSwap.sol\":4448:4479  pool.tokenAmount -= tokenAmount */\n      dup3\n      dup3\n      sload\n      tag_336\n      swap2\n      swap1\n      tag_241\n      jump\t// in\n    tag_336:\n      swap3\n      pop\n      pop\n      dup2\n      swap1\n      sstore\n      pop\n        /* \"src/smartcontracts/CryptoQuestSwap.sol\":4507:4516  ethAmount */\n      dup2\n        /* \"src/smartcontracts/CryptoQuestSwap.sol\":4489:4493  pool */\n      dup2\n        /* \"src/smartcontracts/CryptoQuestSwap.sol\":4489:4503  pool.ethAmount */\n      0x01\n      add\n      0x00\n        /* \"src/smartcontracts/CryptoQuestSwap.sol\":4489:4516  pool.ethAmount -= ethAmount */\n      dup3\n      dup3\n      sload\n      tag_337\n      swap2\n      swap1\n      tag_241\n      jump\t// in\n    tag_337:\n      swap3\n      pop\n      pop\n      dup2\n      swap1\n      sstore\n      pop\n        /* \"src/smartcontracts/CryptoQuestSwap.sol\":4549:4558  liquidity */\n      dup4\n        /* \"src/smartcontracts/CryptoQuestSwap.sol\":4526:4530  pool */\n      dup2\n        /* \"src/smartcontracts/CryptoQuestSwap.sol\":4526:4545  pool.totalLiquidity */\n      0x02\n      add\n      0x00\n        /* \"src/smartcontracts/CryptoQuestSwap.sol\":4526:4558  pool.totalLiquidity -= liquidity */\n      dup3\n      dup3\n      sload\n      tag_338\n      swap2\n      swap1\n      tag_241\n      jump\t// in\n    tag_338:\n      swap1\n      swap2\n      sstore\n      pop\n      pop\n        /* \"src/smartcontracts/CryptoQuestSwap.sol\":4583:4593  msg.sender */\n      caller\n        /* \"src/smartcontracts/CryptoQuestSwap.sol\":4568:4594  pool.liquidity[msg.sender] */\n      0x00\n      swap1\n      dup2\n      mstore\n        /* \"src/smartcontracts/CryptoQuestSwap.sol\":4568:4582  pool.liquidity */\n      0x03\n      dup3\n      add\n        /* \"src/smartcontracts/CryptoQuestSwap.sol\":4568:4594  pool.liquidity[msg.sender] */\n      0x20\n      mstore\n      0x40\n      dup2\n      keccak256\n        /* \"src/smartcontracts/CryptoQuestSwap.sol\":4568:4607  pool.liquidity[msg.sender] -= liquidity */\n      dup1\n      sload\n        /* \"src/smartcontracts/CryptoQuestSwap.sol\":4598:4607  liquidity */\n      dup7\n      swap3\n        /* \"src/smartcontracts/CryptoQuestSwap.sol\":4568:4594  pool.liquidity[msg.sender] */\n      swap1\n        /* \"src/smartcontracts/CryptoQuestSwap.sol\":4568:4607  pool.liquidity[msg.sender] -= liquidity */\n      tag_339\n      swap1\n        /* \"src/smartcontracts/CryptoQuestSwap.sol\":4598:4607  liquidity */\n      dup5\n      swap1\n        /* \"src/smartcontracts/CryptoQuestSwap.sol\":4568:4607  pool.liquidity[msg.sender] -= liquidity */\n      tag_241\n      jump\t// in\n    tag_339:\n      swap1\n      swap2\n      sstore\n      pop\n      pop\n        /* \"src/smartcontracts/CryptoQuestSwap.sol\":4618:4676  IERC20Upgradeable(token).transfer(msg.sender, tokenAmount) */\n      mload(0x40)\n      shl(0xe0, 0xa9059cbb)\n      dup2\n      mstore\n        /* \"src/smartcontracts/CryptoQuestSwap.sol\":4652:4662  msg.sender */\n      caller\n        /* \"src/smartcontracts/CryptoQuestSwap.sol\":4618:4676  IERC20Upgradeable(token).transfer(msg.sender, tokenAmount) */\n      0x04\n      dup3\n      add\n        /* \"#utility.yul\":7491:7542   */\n      mstore\n        /* \"#utility.yul\":7558:7576   */\n      0x24\n      dup2\n      add\n        /* \"#utility.yul\":7551:7585   */\n      dup5\n      swap1\n      mstore\n      sub(shl(0xa0, 0x01), 0x01)\n        /* \"src/smartcontracts/CryptoQuestSwap.sol\":4618:4651  IERC20Upgradeable(token).transfer */\n      dup7\n      and\n      swap1\n      0xa9059cbb\n      swap1\n        /* \"#utility.yul\":7464:7482   */\n      0x44\n      add\n        /* \"src/smartcontracts/CryptoQuestSwap.sol\":4618:4676  IERC20Upgradeable(token).transfer(msg.sender, tokenAmount) */\n      0x20\n      mload(0x40)\n      dup1\n      dup4\n      sub\n      dup2\n      0x00\n      dup8\n      gas\n      call\n      iszero\n      dup1\n      iszero\n      tag_342\n      jumpi\n      returndatasize\n      0x00\n      dup1\n      returndatacopy\n      revert(0x00, returndatasize)\n    tag_342:\n      pop\n      pop\n      pop\n      pop\n      mload(0x40)\n      returndatasize\n      not(0x1f)\n      0x1f\n      dup3\n      add\n      and\n      dup3\n      add\n      dup1\n      0x40\n      mstore\n      pop\n      dup2\n      add\n      swap1\n      tag_343\n      swap2\n      swap1\n      tag_203\n      jump\t// in\n    tag_343:\n      pop\n        /* \"src/smartcontracts/CryptoQuestSwap.sol\":4686:4725  payable(msg.sender).transfer(ethAmount) */\n      mload(0x40)\n        /* \"src/smartcontracts/CryptoQuestSwap.sol\":4694:4704  msg.sender */\n      caller\n      swap1\n        /* \"src/smartcontracts/CryptoQuestSwap.sol\":4686:4725  payable(msg.sender).transfer(ethAmount) */\n      dup4\n      iszero\n      0x08fc\n      mul\n      swap1\n        /* \"src/smartcontracts/CryptoQuestSwap.sol\":4715:4724  ethAmount */\n      dup5\n      swap1\n        /* \"src/smartcontracts/CryptoQuestSwap.sol\":4686:4725  payable(msg.sender).transfer(ethAmount) */\n      0x00\n      dup2\n      dup2\n      dup2\n        /* \"src/smartcontracts/CryptoQuestSwap.sol\":4715:4724  ethAmount */\n      dup6\n        /* \"src/smartcontracts/CryptoQuestSwap.sol\":4694:4704  msg.sender */\n      dup9\n        /* \"src/smartcontracts/CryptoQuestSwap.sol\":4686:4725  payable(msg.sender).transfer(ethAmount) */\n      dup9\n      call\n      swap4\n      pop\n      pop\n      pop\n      pop\n      iszero\n      dup1\n      iszero\n      tag_345\n      jumpi\n      returndatasize\n      0x00\n      dup1\n      returndatacopy\n      revert(0x00, returndatasize)\n    tag_345:\n      pop\n        /* \"src/smartcontracts/CryptoQuestSwap.sol\":4741:4811  LiquidityRemoved(msg.sender, token, tokenAmount, ethAmount, liquidity) */\n      0x40\n      dup1\n      mload\n        /* \"#utility.yul\":1690:1715   */\n      dup5\n      dup2\n      mstore\n        /* \"#utility.yul\":1746:1748   */\n      0x20\n        /* \"#utility.yul\":1731:1749   */\n      dup2\n      add\n        /* \"#utility.yul\":1724:1758   */\n      dup5\n      swap1\n      mstore\n        /* \"#utility.yul\":1774:1792   */\n      swap1\n      dup2\n      add\n        /* \"#utility.yul\":1767:1801   */\n      dup6\n      swap1\n      mstore\n      sub(shl(0xa0, 0x01), 0x01)\n        /* \"src/smartcontracts/CryptoQuestSwap.sol\":4741:4811  LiquidityRemoved(msg.sender, token, tokenAmount, ethAmount, liquidity) */\n      dup7\n      and\n      swap1\n        /* \"src/smartcontracts/CryptoQuestSwap.sol\":4758:4768  msg.sender */\n      caller\n      swap1\n        /* \"src/smartcontracts/CryptoQuestSwap.sol\":4741:4811  LiquidityRemoved(msg.sender, token, tokenAmount, ethAmount, liquidity) */\n      0xbc7d19d505c7ec4db83f3b51f19fb98c4c8a99922e7839d1ee608dfbee29501b\n      swap1\n        /* \"#utility.yul\":1678:1680   */\n      0x60\n        /* \"#utility.yul\":1663:1681   */\n      add\n        /* \"src/smartcontracts/CryptoQuestSwap.sol\":4741:4811  LiquidityRemoved(msg.sender, token, tokenAmount, ethAmount, liquidity) */\n      mload(0x40)\n      dup1\n      swap2\n      sub\n      swap1\n      log3\n        /* \"src/smartcontracts/CryptoQuestSwap.sol\":4144:4818  {... */\n      pop\n        /* \"src/smartcontracts/CryptoQuestSwap.sol\":4013:4818  function removeLiquidity(address token, uint256 liquidity) external whenNotPaused returns (uint256 tokenAmount, uint256 ethAmount) {... */\n      swap3\n      pop\n      swap3\n      swap1\n      pop\n      jump\t// out\n        /* \"src/smartcontracts/CryptoQuestSwap.sol\":7987:8242  function updateLiquidityPool(address token, uint256 newTokenAmount, uint256 newEthAmount) external onlyRole(LIQUIDITY_MANAGER_ROLE) {... */\n    tag_147:\n        /* \"src/smartcontracts/CryptoQuestSwap.sol\":939:974  keccak256(\"LIQUIDITY_MANAGER_ROLE\") */\n      0x77e60b99a50d27fb027f6912a507d956105b4148adab27a86d235c8bcca8fa2f\n        /* \"@openzeppelin/contracts-upgradeable/access/AccessControlUpgradeable.sol\":3191:3207  _checkRole(role) */\n      tag_348\n        /* \"@openzeppelin/contracts-upgradeable/access/AccessControlUpgradeable.sol\":3202:3206  role */\n      dup2\n        /* \"@openzeppelin/contracts-upgradeable/access/AccessControlUpgradeable.sol\":3191:3201  _checkRole */\n      tag_188\n        /* \"@openzeppelin/contracts-upgradeable/access/AccessControlUpgradeable.sol\":3191:3207  _checkRole(role) */\n      jump\t// in\n    tag_348:\n      pop\n      sub(shl(0xa0, 0x01), 0x01)\n        /* \"src/smartcontracts/CryptoQuestSwap.sol\":8129:8150  liquidityPools[token] */\n      swap1\n      swap3\n      and\n      0x00\n      swap1\n      dup2\n      mstore\n        /* \"src/smartcontracts/CryptoQuestSwap.sol\":8129:8143  liquidityPools */\n      0x02\n        /* \"src/smartcontracts/CryptoQuestSwap.sol\":8129:8150  liquidityPools[token] */\n      0x20\n      mstore\n      0x40\n      swap1\n      keccak256\n        /* \"src/smartcontracts/CryptoQuestSwap.sol\":8129:8179  liquidityPools[token].tokenAmount = newTokenAmount */\n      swap1\n      dup2\n      sstore\n        /* \"src/smartcontracts/CryptoQuestSwap.sol\":8189:8220  liquidityPools[token].ethAmount */\n      0x01\n      add\n        /* \"src/smartcontracts/CryptoQuestSwap.sol\":8189:8235  liquidityPools[token].ethAmount = newEthAmount */\n      sstore\n        /* \"src/smartcontracts/CryptoQuestSwap.sol\":7987:8242  function updateLiquidityPool(address token, uint256 newTokenAmount, uint256 newEthAmount) external onlyRole(LIQUIDITY_MANAGER_ROLE) {... */\n      jump\t// out\n        /* \"src/smartcontracts/CryptoQuestSwap.sol\":1960:2594  function initialize(... */\n    tag_152:\n        /* \"@openzeppelin/contracts-upgradeable/proxy/utils/Initializable.sol\":8870:8891  INITIALIZABLE_STORAGE */\n      0xf0c57e16840df040f15088dc2f81fe391c3923bec73e23a9662efc9c229c6a00\n        /* \"@openzeppelin/contracts-upgradeable/proxy/utils/Initializable.sol\":4302:4317  $._initializing */\n      dup1\n      sload\n      shl(0x40, 0x01)\n      dup2\n      div\n      0xff\n      and\n        /* \"@openzeppelin/contracts-upgradeable/proxy/utils/Initializable.sol\":4301:4317  !$._initializing */\n      iszero\n      swap1\n        /* \"@openzeppelin/contracts-upgradeable/proxy/utils/Initializable.sol\":4348:4362  $._initialized */\n      0xffffffffffffffff\n      and\n        /* \"@openzeppelin/contracts-upgradeable/proxy/utils/Initializable.sol\":4158:4188  InitializableStorage storage $ */\n      0x00\n        /* \"@openzeppelin/contracts-upgradeable/proxy/utils/Initializable.sol\":4726:4742  initialized == 0 */\n      dup2\n      iszero\n        /* \"@openzeppelin/contracts-upgradeable/proxy/utils/Initializable.sol\":4726:4760  initialized == 0 && isTopLevelCall */\n      dup1\n      iszero\n      tag_353\n      jumpi\n      pop\n        /* \"@openzeppelin/contracts-upgradeable/proxy/utils/Initializable.sol\":4746:4760  isTopLevelCall */\n      dup3\n        /* \"@openzeppelin/contracts-upgradeable/proxy/utils/Initializable.sol\":4726:4760  initialized == 0 && isTopLevelCall */\n    tag_353:\n        /* \"@openzeppelin/contracts-upgradeable/proxy/utils/Initializable.sol\":4706:4760  bool initialSetup = initialized == 0 && isTopLevelCall */\n      swap1\n      pop\n        /* \"@openzeppelin/contracts-upgradeable/proxy/utils/Initializable.sol\":4770:4787  bool construction */\n      0x00\n        /* \"@openzeppelin/contracts-upgradeable/proxy/utils/Initializable.sol\":4790:4801  initialized */\n      dup3\n        /* \"@openzeppelin/contracts-upgradeable/proxy/utils/Initializable.sol\":4790:4806  initialized == 1 */\n      0xffffffffffffffff\n      and\n        /* \"@openzeppelin/contracts-upgradeable/proxy/utils/Initializable.sol\":4805:4806  1 */\n      0x01\n        /* \"@openzeppelin/contracts-upgradeable/proxy/utils/Initializable.sol\":4790:4806  initialized == 1 */\n      eq\n        /* \"@openzeppelin/contracts-upgradeable/proxy/utils/Initializable.sol\":4790:4840  initialized == 1 && address(this).code.length == 0 */\n      dup1\n      iszero\n      tag_354\n      jumpi\n      pop\n        /* \"@openzeppelin/contracts-upgradeable/proxy/utils/Initializable.sol\":4818:4822  this */\n      address\n        /* \"@openzeppelin/contracts-upgradeable/proxy/utils/Initializable.sol\":4810:4835  address(this).code.length */\n      extcodesize\n        /* \"@openzeppelin/contracts-upgradeable/proxy/utils/Initializable.sol\":4810:4840  address(this).code.length == 0 */\n      iszero\n        /* \"@openzeppelin/contracts-upgradeable/proxy/utils/Initializable.sol\":4790:4840  initialized == 1 && address(this).code.length == 0 */\n    tag_354:\n        /* \"@openzeppelin/contracts-upgradeable/proxy/utils/Initializable.sol\":4770:4840  bool construction = initialized == 1 && address(this).code.length == 0 */\n      swap1\n      pop\n        /* \"@openzeppelin/contracts-upgradeable/proxy/utils/Initializable.sol\":4856:4868  initialSetup */\n      dup2\n        /* \"@openzeppelin/contracts-upgradeable/proxy/utils/Initializable.sol\":4855:4868  !initialSetup */\n      iszero\n        /* \"@openzeppelin/contracts-upgradeable/proxy/utils/Initializable.sol\":4855:4885  !initialSetup && !construction */\n      dup1\n      iszero\n      tag_355\n      jumpi\n      pop\n        /* \"@openzeppelin/contracts-upgradeable/proxy/utils/Initializable.sol\":4873:4885  construction */\n      dup1\n        /* \"@openzeppelin/contracts-upgradeable/proxy/utils/Initializable.sol\":4872:4885  !construction */\n      iszero\n        /* \"@openzeppelin/contracts-upgradeable/proxy/utils/Initializable.sol\":4855:4885  !initialSetup && !construction */\n    tag_355:\n        /* \"@openzeppelin/contracts-upgradeable/proxy/utils/Initializable.sol\":4851:4942  if (!initialSetup && !construction) {... */\n      iszero\n      tag_356\n      jumpi\n        /* \"@openzeppelin/contracts-upgradeable/proxy/utils/Initializable.sol\":4908:4931  InvalidInitialization() */\n      mload(0x40)\n      shl(0xe0, 0xf92ee8a9)\n      dup2\n      mstore\n      0x04\n      add\n      mload(0x40)\n      dup1\n      swap2\n      sub\n      swap1\n      revert\n        /* \"@openzeppelin/contracts-upgradeable/proxy/utils/Initializable.sol\":4851:4942  if (!initialSetup && !construction) {... */\n    tag_356:\n        /* \"@openzeppelin/contracts-upgradeable/proxy/utils/Initializable.sol\":4951:4969  $._initialized = 1 */\n      dup5\n      sload\n      not(0xffffffffffffffff)\n      and\n        /* \"@openzeppelin/contracts-upgradeable/proxy/utils/Initializable.sol\":4968:4969  1 */\n      0x01\n        /* \"@openzeppelin/contracts-upgradeable/proxy/utils/Initializable.sol\":4951:4969  $._initialized = 1 */\n      or\n      dup6\n      sstore\n        /* \"@openzeppelin/contracts-upgradeable/proxy/utils/Initializable.sol\":4979:5046  if (isTopLevelCall) {... */\n      dup4\n      iszero\n      tag_357\n      jumpi\n        /* \"@openzeppelin/contracts-upgradeable/proxy/utils/Initializable.sol\":5013:5035  $._initializing = true */\n      dup5\n      sload\n      not(shl(0x40, 0xff))\n      and\n      shl(0x40, 0x01)\n      or\n      dup6\n      sstore\n        /* \"@openzeppelin/contracts-upgradeable/proxy/utils/Initializable.sol\":4979:5046  if (isTopLevelCall) {... */\n    tag_357:\n        /* \"src/smartcontracts/CryptoQuestSwap.sol\":2193:2210  __Pausable_init() */\n      tag_359\n        /* \"src/smartcontracts/CryptoQuestSwap.sol\":2193:2208  __Pausable_init */\n      tag_360\n        /* \"src/smartcontracts/CryptoQuestSwap.sol\":2193:2210  __Pausable_init() */\n      jump\t// in\n    tag_359:\n        /* \"src/smartcontracts/CryptoQuestSwap.sol\":2220:2242  __AccessControl_init() */\n      tag_361\n        /* \"src/smartcontracts/CryptoQuestSwap.sol\":2220:2240  __AccessControl_init */\n      tag_362\n        /* \"src/smartcontracts/CryptoQuestSwap.sol\":2220:2242  __AccessControl_init() */\n      jump\t// in\n    tag_361:\n        /* \"src/smartcontracts/CryptoQuestSwap.sol\":2252:2276  __UUPSUpgradeable_init() */\n      tag_363\n        /* \"src/smartcontracts/CryptoQuestSwap.sol\":2252:2274  __UUPSUpgradeable_init */\n      tag_362\n        /* \"src/smartcontracts/CryptoQuestSwap.sol\":2252:2276  __UUPSUpgradeable_init() */\n      jump\t// in\n    tag_363:\n        /* \"src/smartcontracts/CryptoQuestSwap.sol\":2287:2331  _grantRole(DEFAULT_ADMIN_ROLE, defaultAdmin) */\n      tag_365\n        /* \"@openzeppelin/contracts-upgradeable/access/AccessControlUpgradeable.sol\":2362:2366  0x00 */\n      0x00\n        /* \"src/smartcontracts/CryptoQuestSwap.sol\":2318:2330  defaultAdmin */\n      dup13\n        /* \"src/smartcontracts/CryptoQuestSwap.sol\":2287:2297  _grantRole */\n      tag_212\n        /* \"src/smartcontracts/CryptoQuestSwap.sol\":2287:2331  _grantRole(DEFAULT_ADMIN_ROLE, defaultAdmin) */\n      jump\t// in\n    tag_365:\n      pop\n        /* \"src/smartcontracts/CryptoQuestSwap.sol\":2341:2372  _grantRole(PAUSER_ROLE, pauser) */\n      tag_366\n      0x00\n      dup1\n      mload\n      0x20\n      data_9b87106a812d214d41ad9b68a21119e2948eaaf1040375c939ec808b8862455c\n      dup4\n      codecopy\n      dup2\n      mload\n      swap2\n      mstore\n        /* \"src/smartcontracts/CryptoQuestSwap.sol\":2365:2371  pauser */\n      dup12\n        /* \"src/smartcontracts/CryptoQuestSwap.sol\":2341:2351  _grantRole */\n      tag_212\n        /* \"src/smartcontracts/CryptoQuestSwap.sol\":2341:2372  _grantRole(PAUSER_ROLE, pauser) */\n      jump\t// in\n    tag_366:\n      pop\n        /* \"src/smartcontracts/CryptoQuestSwap.sol\":2382:2417  _grantRole(UPGRADER_ROLE, upgrader) */\n      tag_367\n        /* \"src/smartcontracts/CryptoQuestSwap.sol\":858:884  keccak256(\"UPGRADER_ROLE\") */\n      0x189ab7a9244df0848122154315af71fe140f3db0fe014031783b0946b8c9d2e3\n        /* \"src/smartcontracts/CryptoQuestSwap.sol\":2408:2416  upgrader */\n      dup11\n        /* \"src/smartcontracts/CryptoQuestSwap.sol\":2382:2392  _grantRole */\n      tag_212\n        /* \"src/smartcontracts/CryptoQuestSwap.sol\":2382:2417  _grantRole(UPGRADER_ROLE, upgrader) */\n      jump\t// in\n    tag_367:\n      pop\n        /* \"src/smartcontracts/CryptoQuestSwap.sol\":2427:2479  _grantRole(LIQUIDITY_MANAGER_ROLE, liquidityManager) */\n      tag_368\n        /* \"src/smartcontracts/CryptoQuestSwap.sol\":939:974  keccak256(\"LIQUIDITY_MANAGER_ROLE\") */\n      0x77e60b99a50d27fb027f6912a507d956105b4148adab27a86d235c8bcca8fa2f\n        /* \"src/smartcontracts/CryptoQuestSwap.sol\":2462:2478  liquidityManager */\n      dup10\n        /* \"src/smartcontracts/CryptoQuestSwap.sol\":2427:2437  _grantRole */\n      tag_212\n        /* \"src/smartcontracts/CryptoQuestSwap.sol\":2427:2479  _grantRole(LIQUIDITY_MANAGER_ROLE, liquidityManager) */\n      jump\t// in\n    tag_368:\n      pop\n        /* \"src/smartcontracts/CryptoQuestSwap.sol\":2490:2498  cqtToken */\n      0x00\n        /* \"src/smartcontracts/CryptoQuestSwap.sol\":2490:2535  cqtToken = IERC20Upgradeable(cqtTokenAddress) */\n      dup1\n      sload\n      sub(shl(0xa0, 0x01), 0x01)\n      dup1\n      dup11\n      and\n      not(sub(shl(0xa0, 0x01), 0x01))\n      swap3\n      dup4\n      and\n      or\n      swap1\n      swap3\n      sstore\n      0x01\n        /* \"src/smartcontracts/CryptoQuestSwap.sol\":2545:2587  cqtNFT = IERC721Upgradeable(cqtNFTAddress) */\n      dup1\n      sload\n      swap3\n      dup10\n      and\n      swap3\n      swap1\n      swap2\n      and\n      swap2\n      swap1\n      swap2\n      or\n      swap1\n      sstore\n        /* \"@openzeppelin/contracts-upgradeable/proxy/utils/Initializable.sol\":5066:5167  if (isTopLevelCall) {... */\n      dup4\n      iszero\n      tag_369\n      jumpi\n        /* \"@openzeppelin/contracts-upgradeable/proxy/utils/Initializable.sol\":5100:5123  $._initializing = false */\n      dup5\n      sload\n      not(shl(0x40, 0xff))\n      and\n      dup6\n      sstore\n        /* \"@openzeppelin/contracts-upgradeable/proxy/utils/Initializable.sol\":5142:5156  Initialized(1) */\n      mload(0x40)\n      0x01\n        /* \"#utility.yul\":11649:11699   */\n      dup2\n      mstore\n        /* \"@openzeppelin/contracts-upgradeable/proxy/utils/Initializable.sol\":5142:5156  Initialized(1) */\n      0xc7f505b2f371ae2175ee4913f4499e1f2633a7b5936321eed1cdaeb6115181d2\n      swap1\n        /* \"#utility.yul\":11637:11639   */\n      0x20\n        /* \"#utility.yul\":11622:11640   */\n      add\n        /* \"@openzeppelin/contracts-upgradeable/proxy/utils/Initializable.sol\":5142:5156  Initialized(1) */\n      mload(0x40)\n      dup1\n      swap2\n      sub\n      swap1\n      log1\n        /* \"@openzeppelin/contracts-upgradeable/proxy/utils/Initializable.sol\":5066:5167  if (isTopLevelCall) {... */\n    tag_369:\n        /* \"@openzeppelin/contracts-upgradeable/proxy/utils/Initializable.sol\":4092:5173  {... */\n      pop\n      pop\n      pop\n      pop\n      pop\n        /* \"src/smartcontracts/CryptoQuestSwap.sol\":1960:2594  function initialize(... */\n      pop\n      pop\n      pop\n      pop\n      pop\n      pop\n      jump\t// out\n        /* \"@openzeppelin/contracts-upgradeable/access/AccessControlUpgradeable.sol\":5662:5800  function revokeRole(bytes32 role, address account) public virtual onlyRole(getRoleAdmin(role)) {... */\n    tag_156:\n        /* \"@openzeppelin/contracts-upgradeable/access/AccessControlUpgradeable.sol\":5737:5755  getRoleAdmin(role) */\n      tag_372\n        /* \"@openzeppelin/contracts-upgradeable/access/AccessControlUpgradeable.sol\":5750:5754  role */\n      dup3\n        /* \"@openzeppelin/contracts-upgradeable/access/AccessControlUpgradeable.sol\":5737:5749  getRoleAdmin */\n      tag_73\n        /* \"@openzeppelin/contracts-upgradeable/access/AccessControlUpgradeable.sol\":5737:5755  getRoleAdmin(role) */\n      jump\t// in\n    tag_372:\n        /* \"@openzeppelin/contracts-upgradeable/access/AccessControlUpgradeable.sol\":3191:3207  _checkRole(role) */\n      tag_374\n        /* \"@openzeppelin/contracts-upgradeable/access/AccessControlUpgradeable.sol\":3202:3206  role */\n      dup2\n        /* \"@openzeppelin/contracts-upgradeable/access/AccessControlUpgradeable.sol\":3191:3201  _checkRole */\n      tag_188\n        /* \"@openzeppelin/contracts-upgradeable/access/AccessControlUpgradeable.sol\":3191:3207  _checkRole(role) */\n      jump\t// in\n    tag_374:\n        /* \"@openzeppelin/contracts-upgradeable/access/AccessControlUpgradeable.sol\":5767:5793  _revokeRole(role, account) */\n      tag_202\n        /* \"@openzeppelin/contracts-upgradeable/access/AccessControlUpgradeable.sol\":5779:5783  role */\n      dup4\n        /* \"@openzeppelin/contracts-upgradeable/access/AccessControlUpgradeable.sol\":5785:5792  account */\n      dup4\n        /* \"@openzeppelin/contracts-upgradeable/access/AccessControlUpgradeable.sol\":5767:5778  _revokeRole */\n      tag_218\n        /* \"@openzeppelin/contracts-upgradeable/access/AccessControlUpgradeable.sol\":5767:5793  _revokeRole(role, account) */\n      jump\t// in\n        /* \"src/smartcontracts/CryptoQuestSwap.sol\":6966:7493  function swapNFTForETH(uint256 tokenId, uint256 minETH) external whenNotPaused {... */\n    tag_160:\n        /* \"@openzeppelin/contracts-upgradeable/utils/PausableUpgradeable.sol\":2316:2335  _requireNotPaused() */\n      tag_378\n        /* \"@openzeppelin/contracts-upgradeable/utils/PausableUpgradeable.sol\":2316:2333  _requireNotPaused */\n      tag_226\n        /* \"@openzeppelin/contracts-upgradeable/utils/PausableUpgradeable.sol\":2316:2335  _requireNotPaused() */\n      jump\t// in\n    tag_378:\n        /* \"src/smartcontracts/CryptoQuestSwap.sol\":7063:7069  cqtNFT */\n      sload(0x01)\n        /* \"src/smartcontracts/CryptoQuestSwap.sol\":7063:7086  cqtNFT.ownerOf(tokenId) */\n      mload(0x40)\n      shl(0xe1, 0x31a9108f)\n      dup2\n      mstore\n      0x04\n      dup2\n      add\n        /* \"#utility.yul\":1958:1983   */\n      dup5\n      swap1\n      mstore\n        /* \"src/smartcontracts/CryptoQuestSwap.sol\":7090:7100  msg.sender */\n      caller\n      swap2\n      sub(shl(0xa0, 0x01), 0x01)\n        /* \"src/smartcontracts/CryptoQuestSwap.sol\":7063:7069  cqtNFT */\n      and\n      swap1\n        /* \"src/smartcontracts/CryptoQuestSwap.sol\":7063:7077  cqtNFT.ownerOf */\n      0x6352211e\n      swap1\n        /* \"#utility.yul\":1931:1949   */\n      0x24\n      add\n        /* \"src/smartcontracts/CryptoQuestSwap.sol\":7063:7086  cqtNFT.ownerOf(tokenId) */\n      0x20\n      mload(0x40)\n      dup1\n      dup4\n      sub\n      dup2\n      dup7\n      gas\n      staticcall\n      iszero\n      dup1\n      iszero\n      tag_382\n      jumpi\n      returndatasize\n      0x00\n      dup1\n      returndatacopy\n      revert(0x00, returndatasize)\n    tag_382:\n      pop\n      pop\n      pop\n      pop\n      mload(0x40)\n      returndatasize\n      not(0x1f)\n      0x1f\n      dup3\n      add\n      and\n      dup3\n      add\n      dup1\n      0x40\n      mstore\n      pop\n      dup2\n      add\n      swap1\n      tag_383\n      swap2\n      swap1\n      tag_235\n      jump\t// in\n    tag_383:\n      sub(shl(0xa0, 0x01), 0x01)\n        /* \"src/smartcontracts/CryptoQuestSwap.sol\":7063:7100  cqtNFT.ownerOf(tokenId) == msg.sender */\n      and\n      eq\n        /* \"src/smartcontracts/CryptoQuestSwap.sol\":7055:7121  require(cqtNFT.ownerOf(tokenId) == msg.sender, \"Not owner of NFT\") */\n      tag_384\n      jumpi\n      mload(0x40)\n      shl(0xe5, 0x461bcd)\n      dup2\n      mstore\n        /* \"#utility.yul\":11912:11914   */\n      0x20\n        /* \"src/smartcontracts/CryptoQuestSwap.sol\":7055:7121  require(cqtNFT.ownerOf(tokenId) == msg.sender, \"Not owner of NFT\") */\n      0x04\n      dup3\n      add\n        /* \"#utility.yul\":11894:11915   */\n      mstore\n        /* \"#utility.yul\":11951:11953   */\n      0x10\n        /* \"#utility.yul\":11931:11949   */\n      0x24\n      dup3\n      add\n        /* \"#utility.yul\":11924:11954   */\n      mstore\n      shl(0x82, 0x139bdd081bdddb995c881bd988139195)\n        /* \"#utility.yul\":11970:11988   */\n      0x44\n      dup3\n      add\n        /* \"#utility.yul\":11963:12009   */\n      mstore\n        /* \"#utility.yul\":12026:12044   */\n      0x64\n      add\n        /* \"src/smartcontracts/CryptoQuestSwap.sol\":7055:7121  require(cqtNFT.ownerOf(tokenId) == msg.sender, \"Not owner of NFT\") */\n      tag_229\n        /* \"#utility.yul\":11710:12050   */\n      jump\n        /* \"src/smartcontracts/CryptoQuestSwap.sol\":7055:7121  require(cqtNFT.ownerOf(tokenId) == msg.sender, \"Not owner of NFT\") */\n    tag_384:\n        /* \"src/smartcontracts/CryptoQuestSwap.sol\":7132:7149  uint256 ethAmount */\n      0x00\n        /* \"src/smartcontracts/CryptoQuestSwap.sol\":7152:7196  getOutputAmount(1, 1, address(this).balance) */\n      tag_387\n        /* \"src/smartcontracts/CryptoQuestSwap.sol\":7168:7169  1 */\n      0x01\n        /* \"src/smartcontracts/CryptoQuestSwap.sol\":7171:7172  1 */\n      dup1\n        /* \"src/smartcontracts/CryptoQuestSwap.sol\":7174:7195  address(this).balance */\n      selfbalance\n        /* \"src/smartcontracts/CryptoQuestSwap.sol\":7152:7167  getOutputAmount */\n      tag_242\n        /* \"src/smartcontracts/CryptoQuestSwap.sol\":7152:7196  getOutputAmount(1, 1, address(this).balance) */\n      jump\t// in\n    tag_387:\n        /* \"src/smartcontracts/CryptoQuestSwap.sol\":7132:7196  uint256 ethAmount = getOutputAmount(1, 1, address(this).balance) */\n      swap1\n      pop\n        /* \"src/smartcontracts/CryptoQuestSwap.sol\":7254:7260  minETH */\n      dup2\n        /* \"src/smartcontracts/CryptoQuestSwap.sol\":7241:7250  ethAmount */\n      dup2\n        /* \"src/smartcontracts/CryptoQuestSwap.sol\":7241:7260  ethAmount >= minETH */\n      lt\n      iszero\n        /* \"src/smartcontracts/CryptoQuestSwap.sol\":7233:7292  require(ethAmount >= minETH, \"Slippage tolerance exceeded\") */\n      tag_388\n      jumpi\n      mload(0x40)\n      shl(0xe5, 0x461bcd)\n      dup2\n      mstore\n      0x04\n      add\n      tag_229\n      swap1\n      tag_245\n      jump\t// in\n    tag_388:\n        /* \"src/smartcontracts/CryptoQuestSwap.sol\":7303:7309  cqtNFT */\n      sload(0x01)\n        /* \"src/smartcontracts/CryptoQuestSwap.sol\":7303:7362  cqtNFT.safeTransferFrom(msg.sender, address(this), tokenId) */\n      mload(0x40)\n      shl(0xe1, 0x21421707)\n      dup2\n      mstore\n      sub(shl(0xa0, 0x01), 0x01)\n        /* \"src/smartcontracts/CryptoQuestSwap.sol\":7303:7309  cqtNFT */\n      swap1\n      swap2\n      and\n      swap1\n        /* \"src/smartcontracts/CryptoQuestSwap.sol\":7303:7326  cqtNFT.safeTransferFrom */\n      0x42842e0e\n      swap1\n        /* \"src/smartcontracts/CryptoQuestSwap.sol\":7303:7362  cqtNFT.safeTransferFrom(msg.sender, address(this), tokenId) */\n      tag_390\n      swap1\n        /* \"src/smartcontracts/CryptoQuestSwap.sol\":7327:7337  msg.sender */\n      caller\n      swap1\n        /* \"src/smartcontracts/CryptoQuestSwap.sol\":7347:7351  this */\n      address\n      swap1\n        /* \"src/smartcontracts/CryptoQuestSwap.sol\":7354:7361  tokenId */\n      dup9\n      swap1\n        /* \"src/smartcontracts/CryptoQuestSwap.sol\":7303:7362  cqtNFT.safeTransferFrom(msg.sender, address(this), tokenId) */\n      0x04\n      add\n      tag_191\n      jump\t// in\n    tag_390:\n      0x00\n      mload(0x40)\n      dup1\n      dup4\n      sub\n      dup2\n      0x00\n      dup8\n      dup1\n      extcodesize\n      iszero\n      dup1\n      iszero\n      tag_391\n      jumpi\n      0x00\n      dup1\n      revert\n    tag_391:\n      pop\n      gas\n      call\n      iszero\n      dup1\n      iszero\n      tag_393\n      jumpi\n      returndatasize\n      0x00\n      dup1\n      returndatacopy\n      revert(0x00, returndatasize)\n    tag_393:\n      pop\n      pop\n        /* \"src/smartcontracts/CryptoQuestSwap.sol\":7372:7411  payable(msg.sender).transfer(ethAmount) */\n      mload(0x40)\n        /* \"src/smartcontracts/CryptoQuestSwap.sol\":7380:7390  msg.sender */\n      caller\n      swap3\n      pop\n        /* \"src/smartcontracts/CryptoQuestSwap.sol\":7372:7411  payable(msg.sender).transfer(ethAmount) */\n      dup4\n      iszero\n      0x08fc\n      mul\n      swap2\n      pop\n        /* \"src/smartcontracts/CryptoQuestSwap.sol\":7401:7410  ethAmount */\n      dup4\n      swap1\n        /* \"src/smartcontracts/CryptoQuestSwap.sol\":7372:7411  payable(msg.sender).transfer(ethAmount) */\n      0x00\n      dup2\n      dup2\n      dup2\n        /* \"src/smartcontracts/CryptoQuestSwap.sol\":7401:7410  ethAmount */\n      dup6\n        /* \"src/smartcontracts/CryptoQuestSwap.sol\":7380:7390  msg.sender */\n      dup9\n        /* \"src/smartcontracts/CryptoQuestSwap.sol\":7372:7411  payable(msg.sender).transfer(ethAmount) */\n      dup9\n      call\n      swap4\n      pop\n      pop\n      pop\n      pop\n      iszero\n      dup1\n      iszero\n      tag_395\n      jumpi\n      returndatasize\n      0x00\n      dup1\n      returndatacopy\n      revert(0x00, returndatasize)\n    tag_395:\n      pop\n        /* \"src/smartcontracts/CryptoQuestSwap.sol\":7458:7464  cqtNFT */\n      sload(0x01)\n        /* \"src/smartcontracts/CryptoQuestSwap.sol\":7427:7486  NFTSwapped(msg.sender, address(cqtNFT), tokenId, ethAmount) */\n      mload(0x40)\n        /* \"#utility.yul\":1958:1983   */\n      dup3\n      dup2\n      mstore\n        /* \"src/smartcontracts/CryptoQuestSwap.sol\":7467:7474  tokenId */\n      dup5\n      swap2\n      sub(shl(0xa0, 0x01), 0x01)\n        /* \"src/smartcontracts/CryptoQuestSwap.sol\":7458:7464  cqtNFT */\n      and\n      swap1\n        /* \"src/smartcontracts/CryptoQuestSwap.sol\":7438:7448  msg.sender */\n      caller\n      swap1\n        /* \"src/smartcontracts/CryptoQuestSwap.sol\":7427:7486  NFTSwapped(msg.sender, address(cqtNFT), tokenId, ethAmount) */\n      0x9181665db8d8d5fcce186f7b2cfebe8fbcdc3a003664bbfce2e790f57b076e65\n      swap1\n        /* \"#utility.yul\":1946:1948   */\n      0x20\n        /* \"#utility.yul\":1931:1949   */\n      add\n        /* \"src/smartcontracts/CryptoQuestSwap.sol\":7427:7486  NFTSwapped(msg.sender, address(cqtNFT), tokenId, ethAmount) */\n      tag_252\n        /* \"#utility.yul\":1812:1989   */\n      jump\n        /* \"src/smartcontracts/CryptoQuestSwap.sol\":5533:6313  function swapTokensForETH(address token, uint256 tokenAmount, uint256 minETH) external whenNotPaused {... */\n    tag_169:\n        /* \"@openzeppelin/contracts-upgradeable/utils/PausableUpgradeable.sol\":2316:2335  _requireNotPaused() */\n      tag_398\n        /* \"@openzeppelin/contracts-upgradeable/utils/PausableUpgradeable.sol\":2316:2333  _requireNotPaused */\n      tag_226\n        /* \"@openzeppelin/contracts-upgradeable/utils/PausableUpgradeable.sol\":2316:2335  _requireNotPaused() */\n      jump\t// in\n    tag_398:\n        /* \"src/smartcontracts/CryptoQuestSwap.sol\":5666:5667  0 */\n      0x00\n        /* \"src/smartcontracts/CryptoQuestSwap.sol\":5652:5663  tokenAmount */\n      dup3\n        /* \"src/smartcontracts/CryptoQuestSwap.sol\":5652:5667  tokenAmount > 0 */\n      gt\n        /* \"src/smartcontracts/CryptoQuestSwap.sol\":5644:5710  require(tokenAmount > 0, \"Token amount must be greater than zero\") */\n      tag_400\n      jumpi\n      mload(0x40)\n      shl(0xe5, 0x461bcd)\n      dup2\n      mstore\n      0x04\n      add\n      tag_229\n      swap1\n      tag_290\n      jump\t// in\n    tag_400:\n      sub(shl(0xa0, 0x01), 0x01)\n        /* \"src/smartcontracts/CryptoQuestSwap.sol\":5749:5770  liquidityPools[token] */\n      dup4\n      and\n        /* \"src/smartcontracts/CryptoQuestSwap.sol\":5720:5746  LiquidityPool storage pool */\n      0x00\n        /* \"src/smartcontracts/CryptoQuestSwap.sol\":5749:5770  liquidityPools[token] */\n      swap1\n      dup2\n      mstore\n        /* \"src/smartcontracts/CryptoQuestSwap.sol\":5749:5763  liquidityPools */\n      0x02\n        /* \"src/smartcontracts/CryptoQuestSwap.sol\":5749:5770  liquidityPools[token] */\n      0x20\n      mstore\n      0x40\n      swap1\n      keccak256\n        /* \"src/smartcontracts/CryptoQuestSwap.sol\":5788:5802  pool.ethAmount */\n      0x01\n      dup2\n      add\n      sload\n        /* \"src/smartcontracts/CryptoQuestSwap.sol\":5788:5806  pool.ethAmount > 0 */\n      iszero\n      dup1\n      iszero\n      swap1\n        /* \"src/smartcontracts/CryptoQuestSwap.sol\":5788:5830  pool.ethAmount > 0 && pool.tokenAmount > 0 */\n      tag_402\n      jumpi\n      pop\n        /* \"src/smartcontracts/CryptoQuestSwap.sol\":5810:5826  pool.tokenAmount */\n      dup1\n      sload\n        /* \"src/smartcontracts/CryptoQuestSwap.sol\":5810:5830  pool.tokenAmount > 0 */\n      iszero\n      iszero\n        /* \"src/smartcontracts/CryptoQuestSwap.sol\":5788:5830  pool.ethAmount > 0 && pool.tokenAmount > 0 */\n    tag_402:\n        /* \"src/smartcontracts/CryptoQuestSwap.sol\":5780:5857  require(pool.ethAmount > 0 && pool.tokenAmount > 0, \"Insufficient liquidity\") */\n      tag_403\n      jumpi\n      mload(0x40)\n      shl(0xe5, 0x461bcd)\n      dup2\n      mstore\n      0x04\n      add\n      tag_229\n      swap1\n      tag_269\n      jump\t// in\n    tag_403:\n        /* \"src/smartcontracts/CryptoQuestSwap.sol\":5868:5885  uint256 ethAmount */\n      0x00\n        /* \"src/smartcontracts/CryptoQuestSwap.sol\":5888:5950  getOutputAmount(tokenAmount, pool.tokenAmount, pool.ethAmount) */\n      tag_405\n        /* \"src/smartcontracts/CryptoQuestSwap.sol\":5904:5915  tokenAmount */\n      dup5\n        /* \"src/smartcontracts/CryptoQuestSwap.sol\":5917:5921  pool */\n      dup4\n        /* \"src/smartcontracts/CryptoQuestSwap.sol\":5917:5933  pool.tokenAmount */\n      0x00\n      add\n      sload\n        /* \"src/smartcontracts/CryptoQuestSwap.sol\":5935:5939  pool */\n      dup5\n        /* \"src/smartcontracts/CryptoQuestSwap.sol\":5935:5949  pool.ethAmount */\n      0x01\n      add\n      sload\n        /* \"src/smartcontracts/CryptoQuestSwap.sol\":5888:5903  getOutputAmount */\n      tag_242\n        /* \"src/smartcontracts/CryptoQuestSwap.sol\":5888:5950  getOutputAmount(tokenAmount, pool.tokenAmount, pool.ethAmount) */\n      jump\t// in\n    tag_405:\n        /* \"src/smartcontracts/CryptoQuestSwap.sol\":5868:5950  uint256 ethAmount = getOutputAmount(tokenAmount, pool.tokenAmount, pool.ethAmount) */\n      swap1\n      pop\n        /* \"src/smartcontracts/CryptoQuestSwap.sol\":5981:5987  minETH */\n      dup3\n        /* \"src/smartcontracts/CryptoQuestSwap.sol\":5968:5977  ethAmount */\n      dup2\n        /* \"src/smartcontracts/CryptoQuestSwap.sol\":5968:5987  ethAmount >= minETH */\n      lt\n      iszero\n        /* \"src/smartcontracts/CryptoQuestSwap.sol\":5960:6019  require(ethAmount >= minETH, \"Slippage tolerance exceeded\") */\n      tag_406\n      jumpi\n      mload(0x40)\n      shl(0xe5, 0x461bcd)\n      dup2\n      mstore\n      0x04\n      add\n      tag_229\n      swap1\n      tag_245\n      jump\t// in\n    tag_406:\n        /* \"src/smartcontracts/CryptoQuestSwap.sol\":6050:6061  tokenAmount */\n      dup4\n        /* \"src/smartcontracts/CryptoQuestSwap.sol\":6030:6034  pool */\n      dup3\n        /* \"src/smartcontracts/CryptoQuestSwap.sol\":6030:6046  pool.tokenAmount */\n      0x00\n      add\n      0x00\n        /* \"src/smartcontracts/CryptoQuestSwap.sol\":6030:6061  pool.tokenAmount += tokenAmount */\n      dup3\n      dup3\n      sload\n      tag_408\n      swap2\n      swap1\n      tag_274\n      jump\t// in\n    tag_408:\n      swap3\n      pop\n      pop\n      dup2\n      swap1\n      sstore\n      pop\n        /* \"src/smartcontracts/CryptoQuestSwap.sol\":6089:6098  ethAmount */\n      dup1\n        /* \"src/smartcontracts/CryptoQuestSwap.sol\":6071:6075  pool */\n      dup3\n        /* \"src/smartcontracts/CryptoQuestSwap.sol\":6071:6085  pool.ethAmount */\n      0x01\n      add\n      0x00\n        /* \"src/smartcontracts/CryptoQuestSwap.sol\":6071:6098  pool.ethAmount -= ethAmount */\n      dup3\n      dup3\n      sload\n      tag_409\n      swap2\n      swap1\n      tag_241\n      jump\t// in\n    tag_409:\n      swap1\n      swap2\n      sstore\n      pop\n      pop\n        /* \"src/smartcontracts/CryptoQuestSwap.sol\":6109:6186  IERC20Upgradeable(token).transferFrom(msg.sender, address(this), tokenAmount) */\n      mload(0x40)\n      shl(0xe0, 0x23b872dd)\n      dup2\n      mstore\n      sub(shl(0xa0, 0x01), 0x01)\n        /* \"src/smartcontracts/CryptoQuestSwap.sol\":6109:6146  IERC20Upgradeable(token).transferFrom */\n      dup7\n      and\n      swap1\n      0x23b872dd\n      swap1\n        /* \"src/smartcontracts/CryptoQuestSwap.sol\":6109:6186  IERC20Upgradeable(token).transferFrom(msg.sender, address(this), tokenAmount) */\n      tag_410\n      swap1\n        /* \"src/smartcontracts/CryptoQuestSwap.sol\":6147:6157  msg.sender */\n      caller\n      swap1\n        /* \"src/smartcontracts/CryptoQuestSwap.sol\":6167:6171  this */\n      address\n      swap1\n        /* \"src/smartcontracts/CryptoQuestSwap.sol\":6174:6185  tokenAmount */\n      dup10\n      swap1\n        /* \"src/smartcontracts/CryptoQuestSwap.sol\":6109:6186  IERC20Upgradeable(token).transferFrom(msg.sender, address(this), tokenAmount) */\n      0x04\n      add\n      tag_191\n      jump\t// in\n    tag_410:\n      0x20\n      mload(0x40)\n      dup1\n      dup4\n      sub\n      dup2\n      0x00\n      dup8\n      gas\n      call\n      iszero\n      dup1\n      iszero\n      tag_412\n      jumpi\n      returndatasize\n      0x00\n      dup1\n      returndatacopy\n      revert(0x00, returndatasize)\n    tag_412:\n      pop\n      pop\n      pop\n      pop\n      mload(0x40)\n      returndatasize\n      not(0x1f)\n      0x1f\n      dup3\n      add\n      and\n      dup3\n      add\n      dup1\n      0x40\n      mstore\n      pop\n      dup2\n      add\n      swap1\n      tag_413\n      swap2\n      swap1\n      tag_203\n      jump\t// in\n    tag_413:\n      pop\n        /* \"src/smartcontracts/CryptoQuestSwap.sol\":6196:6235  payable(msg.sender).transfer(ethAmount) */\n      mload(0x40)\n        /* \"src/smartcontracts/CryptoQuestSwap.sol\":6204:6214  msg.sender */\n      caller\n      swap1\n        /* \"src/smartcontracts/CryptoQuestSwap.sol\":6196:6235  payable(msg.sender).transfer(ethAmount) */\n      dup3\n      iszero\n      0x08fc\n      mul\n      swap1\n        /* \"src/smartcontracts/CryptoQuestSwap.sol\":6225:6234  ethAmount */\n      dup4\n      swap1\n        /* \"src/smartcontracts/CryptoQuestSwap.sol\":6196:6235  payable(msg.sender).transfer(ethAmount) */\n      0x00\n      dup2\n      dup2\n      dup2\n        /* \"src/smartcontracts/CryptoQuestSwap.sol\":6225:6234  ethAmount */\n      dup6\n        /* \"src/smartcontracts/CryptoQuestSwap.sol\":6204:6214  msg.sender */\n      dup9\n        /* \"src/smartcontracts/CryptoQuestSwap.sol\":6196:6235  payable(msg.sender).transfer(ethAmount) */\n      dup9\n      call\n      swap4\n      pop\n      pop\n      pop\n      pop\n      iszero\n      dup1\n      iszero\n      tag_415\n      jumpi\n      returndatasize\n      0x00\n      dup1\n      returndatacopy\n      revert(0x00, returndatasize)\n    tag_415:\n      pop\n        /* \"src/smartcontracts/CryptoQuestSwap.sol\":6251:6306  TokenSwapped(msg.sender, token, tokenAmount, ethAmount) */\n      0x40\n      dup1\n      mload\n        /* \"#utility.yul\":4753:4778   */\n      dup6\n      dup2\n      mstore\n        /* \"#utility.yul\":4809:4811   */\n      0x20\n        /* \"#utility.yul\":4794:4812   */\n      dup2\n      add\n        /* \"#utility.yul\":4787:4821   */\n      dup4\n      swap1\n      mstore\n      sub(shl(0xa0, 0x01), 0x01)\n        /* \"src/smartcontracts/CryptoQuestSwap.sol\":6251:6306  TokenSwapped(msg.sender, token, tokenAmount, ethAmount) */\n      dup8\n      and\n      swap2\n        /* \"src/smartcontracts/CryptoQuestSwap.sol\":6264:6274  msg.sender */\n      caller\n      swap2\n        /* \"src/smartcontracts/CryptoQuestSwap.sol\":6251:6306  TokenSwapped(msg.sender, token, tokenAmount, ethAmount) */\n      0x30b60ee4dc75c0fb04420331b13e9ad7f8ff8fc51eac9c97d36fb20ccbe09d66\n      swap2\n        /* \"#utility.yul\":4726:4744   */\n      add\n        /* \"src/smartcontracts/CryptoQuestSwap.sol\":6251:6306  TokenSwapped(msg.sender, token, tokenAmount, ethAmount) */\n      mload(0x40)\n      dup1\n      swap2\n      sub\n      swap1\n      log3\n        /* \"src/smartcontracts/CryptoQuestSwap.sol\":5634:6313  {... */\n      pop\n      pop\n        /* \"src/smartcontracts/CryptoQuestSwap.sol\":5533:6313  function swapTokensForETH(address token, uint256 tokenAmount, uint256 minETH) external whenNotPaused {... */\n      pop\n      pop\n      pop\n      jump\t// out\n        /* \"src/smartcontracts/CryptoQuestSwap.sol\":8248:8450  function withdrawETH(uint256 amount) external onlyRole(DEFAULT_ADMIN_ROLE) {... */\n    tag_177:\n        /* \"@openzeppelin/contracts-upgradeable/access/AccessControlUpgradeable.sol\":2362:2366  0x00 */\n      0x00\n        /* \"@openzeppelin/contracts-upgradeable/access/AccessControlUpgradeable.sol\":3191:3207  _checkRole(role) */\n      tag_418\n        /* \"@openzeppelin/contracts-upgradeable/access/AccessControlUpgradeable.sol\":2362:2366  0x00 */\n      dup2\n        /* \"@openzeppelin/contracts-upgradeable/access/AccessControlUpgradeable.sol\":3191:3201  _checkRole */\n      tag_188\n        /* \"@openzeppelin/contracts-upgradeable/access/AccessControlUpgradeable.sol\":3191:3207  _checkRole(role) */\n      jump\t// in\n    tag_418:\n        /* \"src/smartcontracts/CryptoQuestSwap.sol\":8366:8372  amount */\n      dup2\n        /* \"src/smartcontracts/CryptoQuestSwap.sol\":8341:8362  address(this).balance */\n      selfbalance\n        /* \"src/smartcontracts/CryptoQuestSwap.sol\":8341:8372  address(this).balance >= amount */\n      lt\n      iszero\n        /* \"src/smartcontracts/CryptoQuestSwap.sol\":8333:8397  require(address(this).balance >= amount, \"Insufficient balance\") */\n      tag_420\n      jumpi\n      mload(0x40)\n      shl(0xe5, 0x461bcd)\n      dup2\n      mstore\n        /* \"#utility.yul\":12257:12259   */\n      0x20\n        /* \"src/smartcontracts/CryptoQuestSwap.sol\":8333:8397  require(address(this).balance >= amount, \"Insufficient balance\") */\n      0x04\n      dup3\n      add\n        /* \"#utility.yul\":12239:12260   */\n      mstore\n        /* \"#utility.yul\":12296:12298   */\n      0x14\n        /* \"#utility.yul\":12276:12294   */\n      0x24\n      dup3\n      add\n        /* \"#utility.yul\":12269:12299   */\n      mstore\n      shl(0x60, 0x496e73756666696369656e742062616c616e6365)\n        /* \"#utility.yul\":12315:12333   */\n      0x44\n      dup3\n      add\n        /* \"#utility.yul\":12308:12358   */\n      mstore\n        /* \"#utility.yul\":12375:12393   */\n      0x64\n      add\n        /* \"src/smartcontracts/CryptoQuestSwap.sol\":8333:8397  require(address(this).balance >= amount, \"Insufficient balance\") */\n      tag_229\n        /* \"#utility.yul\":12055:12399   */\n      jump\n        /* \"src/smartcontracts/CryptoQuestSwap.sol\":8333:8397  require(address(this).balance >= amount, \"Insufficient balance\") */\n    tag_420:\n        /* \"src/smartcontracts/CryptoQuestSwap.sol\":8407:8443  payable(msg.sender).transfer(amount) */\n      mload(0x40)\n        /* \"src/smartcontracts/CryptoQuestSwap.sol\":8415:8425  msg.sender */\n      caller\n      swap1\n        /* \"src/smartcontracts/CryptoQuestSwap.sol\":8407:8443  payable(msg.sender).transfer(amount) */\n      dup4\n      iszero\n      0x08fc\n      mul\n      swap1\n        /* \"src/smartcontracts/CryptoQuestSwap.sol\":8436:8442  amount */\n      dup5\n      swap1\n        /* \"src/smartcontracts/CryptoQuestSwap.sol\":8407:8443  payable(msg.sender).transfer(amount) */\n      0x00\n      dup2\n      dup2\n      dup2\n        /* \"src/smartcontracts/CryptoQuestSwap.sol\":8436:8442  amount */\n      dup6\n        /* \"src/smartcontracts/CryptoQuestSwap.sol\":8415:8425  msg.sender */\n      dup9\n        /* \"src/smartcontracts/CryptoQuestSwap.sol\":8407:8443  payable(msg.sender).transfer(amount) */\n      dup9\n      call\n      swap4\n      pop\n      pop\n      pop\n      pop\n      iszero\n      dup1\n      iszero\n      tag_217\n      jumpi\n      returndatasize\n      0x00\n      dup1\n      returndatacopy\n      revert(0x00, returndatasize)\n        /* \"@openzeppelin/contracts-upgradeable/access/AccessControlUpgradeable.sol\":4148:4251  function _checkRole(bytes32 role) internal view virtual {... */\n    tag_188:\n        /* \"@openzeppelin/contracts-upgradeable/access/AccessControlUpgradeable.sol\":4214:4244  _checkRole(role, _msgSender()) */\n      tag_222\n        /* \"@openzeppelin/contracts-upgradeable/access/AccessControlUpgradeable.sol\":4225:4229  role */\n      dup2\n        /* \"@openzeppelin/contracts-upgradeable/utils/ContextUpgradeable.sol\":966:976  msg.sender */\n      caller\n        /* \"@openzeppelin/contracts-upgradeable/access/AccessControlUpgradeable.sol\":4214:4224  _checkRole */\n      tag_429\n        /* \"@openzeppelin/contracts-upgradeable/access/AccessControlUpgradeable.sol\":4214:4244  _checkRole(role, _msgSender()) */\n      jump\t// in\n        /* \"@openzeppelin/contracts-upgradeable/access/AccessControlUpgradeable.sol\":7270:7657  function _grantRole(bytes32 role, address account) internal virtual returns (bool) {... */\n    tag_212:\n        /* \"@openzeppelin/contracts-upgradeable/access/AccessControlUpgradeable.sol\":7347:7351  bool */\n      0x00\n      0x00\n      dup1\n      mload\n      0x20\n      data_b3da67d1b252aeab7c8063542d95e75f82a5307a82535949bc38f7cf7ba8897f\n      dup4\n      codecopy\n      dup2\n      mload\n      swap2\n      mstore\n        /* \"@openzeppelin/contracts-upgradeable/access/AccessControlUpgradeable.sol\":7437:7459  hasRole(role, account) */\n      tag_433\n        /* \"@openzeppelin/contracts-upgradeable/access/AccessControlUpgradeable.sol\":7445:7449  role */\n      dup5\n        /* \"@openzeppelin/contracts-upgradeable/access/AccessControlUpgradeable.sol\":7451:7458  account */\n      dup5\n        /* \"@openzeppelin/contracts-upgradeable/access/AccessControlUpgradeable.sol\":7437:7444  hasRole */\n      tag_126\n        /* \"@openzeppelin/contracts-upgradeable/access/AccessControlUpgradeable.sol\":7437:7459  hasRole(role, account) */\n      jump\t// in\n    tag_433:\n        /* \"@openzeppelin/contracts-upgradeable/access/AccessControlUpgradeable.sol\":7432:7651  if (!hasRole(role, account)) {... */\n      tag_434\n      jumpi\n        /* \"@openzeppelin/contracts-upgradeable/access/AccessControlUpgradeable.sol\":7475:7483  $._roles */\n      0x00\n        /* \"@openzeppelin/contracts-upgradeable/access/AccessControlUpgradeable.sol\":7475:7489  $._roles[role] */\n      dup5\n      dup2\n      mstore\n      0x20\n      dup3\n      dup2\n      mstore\n      0x40\n      dup1\n      dup4\n      keccak256\n      sub(shl(0xa0, 0x01), 0x01)\n        /* \"@openzeppelin/contracts-upgradeable/access/AccessControlUpgradeable.sol\":7475:7506  $._roles[role].hasRole[account] */\n      dup8\n      and\n      dup5\n      mstore\n      swap1\n      swap2\n      mstore\n      swap1\n      keccak256\n        /* \"@openzeppelin/contracts-upgradeable/access/AccessControlUpgradeable.sol\":7475:7513  $._roles[role].hasRole[account] = true */\n      dup1\n      sload\n      not(0xff)\n      and\n        /* \"@openzeppelin/contracts-upgradeable/access/AccessControlUpgradeable.sol\":7509:7513  true */\n      0x01\n        /* \"@openzeppelin/contracts-upgradeable/access/AccessControlUpgradeable.sol\":7475:7513  $._roles[role].hasRole[account] = true */\n      or\n      swap1\n      sstore\n        /* \"@openzeppelin/contracts-upgradeable/access/AccessControlUpgradeable.sol\":7559:7571  _msgSender() */\n      tag_435\n        /* \"@openzeppelin/contracts-upgradeable/utils/ContextUpgradeable.sol\":966:976  msg.sender */\n      caller\n      swap1\n        /* \"@openzeppelin/contracts-upgradeable/utils/ContextUpgradeable.sol\":887:983  function _msgSender() internal view virtual returns (address) {... */\n      jump\n        /* \"@openzeppelin/contracts-upgradeable/access/AccessControlUpgradeable.sol\":7559:7571  _msgSender() */\n    tag_435:\n      sub(shl(0xa0, 0x01), 0x01)\n        /* \"@openzeppelin/contracts-upgradeable/access/AccessControlUpgradeable.sol\":7532:7572  RoleGranted(role, account, _msgSender()) */\n      and\n        /* \"@openzeppelin/contracts-upgradeable/access/AccessControlUpgradeable.sol\":7550:7557  account */\n      dup4\n      sub(shl(0xa0, 0x01), 0x01)\n        /* \"@openzeppelin/contracts-upgradeable/access/AccessControlUpgradeable.sol\":7532:7572  RoleGranted(role, account, _msgSender()) */\n      and\n        /* \"@openzeppelin/contracts-upgradeable/access/AccessControlUpgradeable.sol\":7544:7548  role */\n      dup6\n        /* \"@openzeppelin/contracts-upgradeable/access/AccessControlUpgradeable.sol\":7532:7572  RoleGranted(role, account, _msgSender()) */\n      0x2f8788117e7eff1d82e926ec794901d17c78024a50270940304540a733656f0d\n      mload(0x40)\n      mload(0x40)\n      dup1\n      swap2\n      sub\n      swap1\n      log4\n        /* \"@openzeppelin/contracts-upgradeable/access/AccessControlUpgradeable.sol\":7593:7597  true */\n      0x01\n        /* \"@openzeppelin/contracts-upgradeable/access/AccessControlUpgradeable.sol\":7586:7597  return true */\n      swap2\n      pop\n      pop\n      jump(tag_184)\n        /* \"@openzeppelin/contracts-upgradeable/access/AccessControlUpgradeable.sol\":7432:7651  if (!hasRole(role, account)) {... */\n    tag_434:\n        /* \"@openzeppelin/contracts-upgradeable/access/AccessControlUpgradeable.sol\":7635:7640  false */\n      0x00\n        /* \"@openzeppelin/contracts-upgradeable/access/AccessControlUpgradeable.sol\":7628:7640  return false */\n      swap2\n      pop\n      pop\n      jump(tag_184)\n        /* \"@openzeppelin/contracts-upgradeable/access/AccessControlUpgradeable.sol\":7892:8280  function _revokeRole(bytes32 role, address account) internal virtual returns (bool) {... */\n    tag_218:\n        /* \"@openzeppelin/contracts-upgradeable/access/AccessControlUpgradeable.sol\":7970:7974  bool */\n      0x00\n      0x00\n      dup1\n      mload\n      0x20\n      data_b3da67d1b252aeab7c8063542d95e75f82a5307a82535949bc38f7cf7ba8897f\n      dup4\n      codecopy\n      dup2\n      mload\n      swap2\n      mstore\n        /* \"@openzeppelin/contracts-upgradeable/access/AccessControlUpgradeable.sol\":8059:8081  hasRole(role, account) */\n      tag_440\n        /* \"@openzeppelin/contracts-upgradeable/access/AccessControlUpgradeable.sol\":8067:8071  role */\n      dup5\n        /* \"@openzeppelin/contracts-upgradeable/access/AccessControlUpgradeable.sol\":8073:8080  account */\n      dup5\n        /* \"@openzeppelin/contracts-upgradeable/access/AccessControlUpgradeable.sol\":8059:8066  hasRole */\n      tag_126\n        /* \"@openzeppelin/contracts-upgradeable/access/AccessControlUpgradeable.sol\":8059:8081  hasRole(role, account) */\n      jump\t// in\n    tag_440:\n        /* \"@openzeppelin/contracts-upgradeable/access/AccessControlUpgradeable.sol\":8055:8274  if (hasRole(role, account)) {... */\n      iszero\n      tag_434\n      jumpi\n        /* \"@openzeppelin/contracts-upgradeable/access/AccessControlUpgradeable.sol\":8131:8136  false */\n      0x00\n        /* \"@openzeppelin/contracts-upgradeable/access/AccessControlUpgradeable.sol\":8097:8111  $._roles[role] */\n      dup5\n      dup2\n      mstore\n      0x20\n      dup3\n      dup2\n      mstore\n      0x40\n      dup1\n      dup4\n      keccak256\n      sub(shl(0xa0, 0x01), 0x01)\n        /* \"@openzeppelin/contracts-upgradeable/access/AccessControlUpgradeable.sol\":8097:8128  $._roles[role].hasRole[account] */\n      dup8\n      and\n      dup1\n      dup6\n      mstore\n      swap3\n      mstore\n      dup1\n      dup4\n      keccak256\n        /* \"@openzeppelin/contracts-upgradeable/access/AccessControlUpgradeable.sol\":8097:8136  $._roles[role].hasRole[account] = false */\n      dup1\n      sload\n      not(0xff)\n      and\n      swap1\n      sstore\n        /* \"@openzeppelin/contracts-upgradeable/access/AccessControlUpgradeable.sol\":8155:8195  RoleRevoked(role, account, _msgSender()) */\n      mload\n        /* \"@openzeppelin/contracts-upgradeable/utils/ContextUpgradeable.sol\":966:976  msg.sender */\n      caller\n      swap3\n        /* \"@openzeppelin/contracts-upgradeable/access/AccessControlUpgradeable.sol\":8097:8111  $._roles[role] */\n      dup8\n      swap2\n        /* \"@openzeppelin/contracts-upgradeable/access/AccessControlUpgradeable.sol\":8155:8195  RoleRevoked(role, account, _msgSender()) */\n      0xf6391f5c32d9c69d2a47ea670b442974b53935d1edc7fd64eb21e047a839171b\n      swap2\n        /* \"@openzeppelin/contracts-upgradeable/access/AccessControlUpgradeable.sol\":8131:8136  false */\n      swap1\n        /* \"@openzeppelin/contracts-upgradeable/access/AccessControlUpgradeable.sol\":8155:8195  RoleRevoked(role, account, _msgSender()) */\n      log4\n        /* \"@openzeppelin/contracts-upgradeable/access/AccessControlUpgradeable.sol\":8216:8220  true */\n      0x01\n        /* \"@openzeppelin/contracts-upgradeable/access/AccessControlUpgradeable.sol\":8209:8220  return true */\n      swap2\n      pop\n      pop\n      jump(tag_184)\n        /* \"@openzeppelin/contracts-upgradeable/utils/PausableUpgradeable.sol\":3674:3852  function _unpause() internal virtual whenPaused {... */\n    tag_223:\n        /* \"@openzeppelin/contracts-upgradeable/utils/PausableUpgradeable.sol\":2563:2579  _requirePaused() */\n      tag_445\n        /* \"@openzeppelin/contracts-upgradeable/utils/PausableUpgradeable.sol\":2563:2577  _requirePaused */\n      tag_446\n        /* \"@openzeppelin/contracts-upgradeable/utils/PausableUpgradeable.sol\":2563:2579  _requirePaused() */\n      jump\t// in\n    tag_445:\n      0x00\n      dup1\n      mload\n      0x20\n      data_c0c65a3718f3702d917c44106b91645b509d2e2d0979b70495c3babce192339f\n      dup4\n      codecopy\n      dup2\n      mload\n      swap2\n      mstore\n        /* \"@openzeppelin/contracts-upgradeable/utils/PausableUpgradeable.sol\":3791:3808  $._paused = false */\n      dup1\n      sload\n      not(0xff)\n      and\n      dup2\n      sstore\n        /* \"@openzeppelin/contracts-upgradeable/utils/PausableUpgradeable.sol\":3823:3845  Unpaused(_msgSender()) */\n      0x5db9ee0a495bf2e6ff9c91a7834c1ba4fdd244a5e8aa4e537bd38aeae4b073aa\n        /* \"@openzeppelin/contracts-upgradeable/utils/ContextUpgradeable.sol\":966:976  msg.sender */\n      caller\n        /* \"@openzeppelin/contracts-upgradeable/utils/PausableUpgradeable.sol\":3832:3844  _msgSender() */\n    tag_449:\n        /* \"@openzeppelin/contracts-upgradeable/utils/PausableUpgradeable.sol\":3823:3845  Unpaused(_msgSender()) */\n      mload(0x40)\n      sub(shl(0xa0, 0x01), 0x01)\n        /* \"#utility.yul\":2968:3000   */\n      swap1\n      swap2\n      and\n        /* \"#utility.yul\":2950:3001   */\n      dup2\n      mstore\n        /* \"#utility.yul\":2938:2940   */\n      0x20\n        /* \"#utility.yul\":2923:2941   */\n      add\n        /* \"@openzeppelin/contracts-upgradeable/utils/PausableUpgradeable.sol\":3823:3845  Unpaused(_msgSender()) */\n      mload(0x40)\n      dup1\n      swap2\n      sub\n      swap1\n      log1\n        /* \"@openzeppelin/contracts-upgradeable/utils/PausableUpgradeable.sol\":3722:3852  {... */\n      pop\n        /* \"@openzeppelin/contracts-upgradeable/utils/PausableUpgradeable.sol\":3674:3852  function _unpause() internal virtual whenPaused {... */\n      jump\t// out\n        /* \"@openzeppelin/contracts-upgradeable/utils/PausableUpgradeable.sol\":2905:3033  function _requireNotPaused() internal view virtual {... */\n    tag_226:\n      0x00\n      dup1\n      mload\n      0x20\n      data_c0c65a3718f3702d917c44106b91645b509d2e2d0979b70495c3babce192339f\n      dup4\n      codecopy\n      dup2\n      mload\n      swap2\n      mstore\n        /* \"@openzeppelin/contracts-upgradeable/utils/PausableUpgradeable.sol\":2821:2830  $._paused */\n      sload\n      0xff\n      and\n        /* \"@openzeppelin/contracts-upgradeable/utils/PausableUpgradeable.sol\":2966:3027  if (paused()) {... */\n      iszero\n      tag_454\n      jumpi\n        /* \"@openzeppelin/contracts-upgradeable/utils/PausableUpgradeable.sol\":3001:3016  EnforcedPause() */\n      mload(0x40)\n      shl(0xe0, 0xd93c0665)\n      dup2\n      mstore\n      0x04\n      add\n      mload(0x40)\n      dup1\n      swap2\n      sub\n      swap1\n      revert\n        /* \"@openzeppelin/contracts-upgradeable/utils/PausableUpgradeable.sol\":2966:3027  if (paused()) {... */\n    tag_454:\n        /* \"@openzeppelin/contracts-upgradeable/utils/PausableUpgradeable.sol\":2905:3033  function _requireNotPaused() internal view virtual {... */\n      jump\t// out\n        /* \"src/smartcontracts/CryptoQuestSwap.sol\":7499:7877  function getOutputAmount(uint256 inputAmount, uint256 inputReserve, uint256 outputReserve) internal pure returns (uint256) {... */\n    tag_242:\n        /* \"src/smartcontracts/CryptoQuestSwap.sol\":7613:7620  uint256 */\n      0x00\n      dup1\n        /* \"src/smartcontracts/CryptoQuestSwap.sol\":7676:7691  1000 - FEE_RATE */\n      tag_456\n        /* \"src/smartcontracts/CryptoQuestSwap.sol\":1016:1017  3 */\n      0x03\n        /* \"src/smartcontracts/CryptoQuestSwap.sol\":7676:7680  1000 */\n      0x03e8\n        /* \"src/smartcontracts/CryptoQuestSwap.sol\":7676:7691  1000 - FEE_RATE */\n      tag_241\n      jump\t// in\n    tag_456:\n        /* \"src/smartcontracts/CryptoQuestSwap.sol\":7661:7692  inputAmount * (1000 - FEE_RATE) */\n      tag_457\n      swap1\n        /* \"src/smartcontracts/CryptoQuestSwap.sol\":7661:7672  inputAmount */\n      dup7\n        /* \"src/smartcontracts/CryptoQuestSwap.sol\":7661:7692  inputAmount * (1000 - FEE_RATE) */\n      tag_304\n      jump\t// in\n    tag_457:\n        /* \"src/smartcontracts/CryptoQuestSwap.sol\":7632:7692  uint256 inputAmountWithFee = inputAmount * (1000 - FEE_RATE) */\n      swap1\n      pop\n        /* \"src/smartcontracts/CryptoQuestSwap.sol\":7702:7719  uint256 numerator */\n      0x00\n        /* \"src/smartcontracts/CryptoQuestSwap.sol\":7722:7756  inputAmountWithFee * outputReserve */\n      tag_458\n        /* \"src/smartcontracts/CryptoQuestSwap.sol\":7743:7756  outputReserve */\n      dup5\n        /* \"src/smartcontracts/CryptoQuestSwap.sol\":7632:7692  uint256 inputAmountWithFee = inputAmount * (1000 - FEE_RATE) */\n      dup4\n        /* \"src/smartcontracts/CryptoQuestSwap.sol\":7722:7756  inputAmountWithFee * outputReserve */\n      tag_304\n      jump\t// in\n    tag_458:\n        /* \"src/smartcontracts/CryptoQuestSwap.sol\":7702:7756  uint256 numerator = inputAmountWithFee * outputReserve */\n      swap1\n      pop\n        /* \"src/smartcontracts/CryptoQuestSwap.sol\":7766:7785  uint256 denominator */\n      0x00\n        /* \"src/smartcontracts/CryptoQuestSwap.sol\":7812:7830  inputAmountWithFee */\n      dup3\n        /* \"src/smartcontracts/CryptoQuestSwap.sol\":7789:7808  inputReserve * 1000 */\n      tag_459\n        /* \"src/smartcontracts/CryptoQuestSwap.sol\":7789:7801  inputReserve */\n      dup8\n        /* \"src/smartcontracts/CryptoQuestSwap.sol\":7804:7808  1000 */\n      0x03e8\n        /* \"src/smartcontracts/CryptoQuestSwap.sol\":7789:7808  inputReserve * 1000 */\n      tag_304\n      jump\t// in\n    tag_459:\n        /* \"src/smartcontracts/CryptoQuestSwap.sol\":7788:7830  (inputReserve * 1000) + inputAmountWithFee */\n      tag_460\n      swap2\n      swap1\n      tag_274\n      jump\t// in\n    tag_460:\n        /* \"src/smartcontracts/CryptoQuestSwap.sol\":7766:7830  uint256 denominator = (inputReserve * 1000) + inputAmountWithFee */\n      swap1\n      pop\n        /* \"src/smartcontracts/CryptoQuestSwap.sol\":7847:7870  numerator / denominator */\n      tag_461\n        /* \"src/smartcontracts/CryptoQuestSwap.sol\":7766:7830  uint256 denominator = (inputReserve * 1000) + inputAmountWithFee */\n      dup2\n        /* \"src/smartcontracts/CryptoQuestSwap.sol\":7847:7856  numerator */\n      dup4\n        /* \"src/smartcontracts/CryptoQuestSwap.sol\":7847:7870  numerator / denominator */\n      tag_306\n      jump\t// in\n    tag_461:\n        /* \"src/smartcontracts/CryptoQuestSwap.sol\":7840:7870  return numerator / denominator */\n      swap4\n      pop\n      pop\n      pop\n      pop\n        /* \"src/smartcontracts/CryptoQuestSwap.sol\":7499:7877  function getOutputAmount(uint256 inputAmount, uint256 inputReserve, uint256 outputReserve) internal pure returns (uint256) {... */\n    tag_455:\n      swap4\n      swap3\n      pop\n      pop\n      pop\n      jump\t// out\n        /* \"@openzeppelin/contracts-upgradeable/proxy/utils/UUPSUpgradeable.sol\":4599:4911  function _checkProxy() internal view virtual {... */\n    tag_255:\n        /* \"@openzeppelin/contracts-upgradeable/proxy/utils/UUPSUpgradeable.sol\":4679:4683  this */\n      address\n      sub(shl(0xa0, 0x01), 0x01)\n        /* \"@openzeppelin/contracts-upgradeable/proxy/utils/UUPSUpgradeable.sol\":4688:4694  __self */\n      immutable(\"0x3b04ad91523c4dcf551e081621e633b9099d51bf9c5461e58c3bc7354a578b27\")\n        /* \"@openzeppelin/contracts-upgradeable/proxy/utils/UUPSUpgradeable.sol\":4671:4694  address(this) == __self */\n      and\n      eq\n      dup1\n        /* \"@openzeppelin/contracts-upgradeable/proxy/utils/UUPSUpgradeable.sol\":4671:4791  address(this) == __self || // Must be called through delegatecall... */\n      tag_463\n      jumpi\n      pop\n        /* \"@openzeppelin/contracts-upgradeable/proxy/utils/UUPSUpgradeable.sol\":4785:4791  __self */\n      immutable(\"0x3b04ad91523c4dcf551e081621e633b9099d51bf9c5461e58c3bc7354a578b27\")\n      sub(shl(0xa0, 0x01), 0x01)\n        /* \"@openzeppelin/contracts-upgradeable/proxy/utils/UUPSUpgradeable.sol\":4749:4791  ERC1967Utils.getImplementation() != __self */\n      and\n        /* \"@openzeppelin/contracts-upgradeable/proxy/utils/UUPSUpgradeable.sol\":4749:4781  ERC1967Utils.getImplementation() */\n      tag_464\n      0x00\n      dup1\n      mload\n      0x20\n      data_75b20eef8615de99c108b05f0dbda081c91897128caa336d75dffb97c4132b4d\n      dup4\n      codecopy\n      dup2\n      mload\n      swap2\n      mstore\n        /* \"@openzeppelin/contracts/proxy/ERC1967/ERC1967Utils.sol\":2035:2088  StorageSlot.getAddressSlot(IMPLEMENTATION_SLOT).value */\n      sload\n      sub(shl(0xa0, 0x01), 0x01)\n      and\n      swap1\n        /* \"@openzeppelin/contracts/proxy/ERC1967/ERC1967Utils.sol\":1957:2095  function getImplementation() internal view returns (address) {... */\n      jump\n        /* \"@openzeppelin/contracts-upgradeable/proxy/utils/UUPSUpgradeable.sol\":4749:4781  ERC1967Utils.getImplementation() */\n    tag_464:\n      sub(shl(0xa0, 0x01), 0x01)\n        /* \"@openzeppelin/contracts-upgradeable/proxy/utils/UUPSUpgradeable.sol\":4749:4791  ERC1967Utils.getImplementation() != __self */\n      and\n      eq\n      iszero\n        /* \"@openzeppelin/contracts-upgradeable/proxy/utils/UUPSUpgradeable.sol\":4671:4791  address(this) == __self || // Must be called through delegatecall... */\n    tag_463:\n        /* \"@openzeppelin/contracts-upgradeable/proxy/utils/UUPSUpgradeable.sol\":4654:4905  if (... */\n      iszero\n      tag_454\n      jumpi\n        /* \"@openzeppelin/contracts-upgradeable/proxy/utils/UUPSUpgradeable.sol\":4865:4894  UUPSUnauthorizedCallContext() */\n      mload(0x40)\n      shl(0xe1, 0x703e46dd)\n      dup2\n      mstore\n      0x04\n      add\n      mload(0x40)\n      dup1\n      swap2\n      sub\n      swap1\n      revert\n        /* \"src/smartcontracts/CryptoQuestSwap.sol\":7883:7981  function _authorizeUpgrade(address newImplementation) internal onlyRole(UPGRADER_ROLE) override {} */\n    tag_258:\n        /* \"src/smartcontracts/CryptoQuestSwap.sol\":858:884  keccak256(\"UPGRADER_ROLE\") */\n      0x189ab7a9244df0848122154315af71fe140f3db0fe014031783b0946b8c9d2e3\n        /* \"@openzeppelin/contracts-upgradeable/access/AccessControlUpgradeable.sol\":3191:3207  _checkRole(role) */\n      tag_259\n        /* \"@openzeppelin/contracts-upgradeable/access/AccessControlUpgradeable.sol\":3202:3206  role */\n      dup2\n        /* \"@openzeppelin/contracts-upgradeable/access/AccessControlUpgradeable.sol\":3191:3201  _checkRole */\n      tag_188\n        /* \"@openzeppelin/contracts-upgradeable/access/AccessControlUpgradeable.sol\":3191:3207  _checkRole(role) */\n      jump\t// in\n        /* \"@openzeppelin/contracts-upgradeable/proxy/utils/UUPSUpgradeable.sol\":6052:6590  function _upgradeToAndCallUUPS(address newImplementation, bytes memory data) private {... */\n    tag_260:\n        /* \"@openzeppelin/contracts-upgradeable/proxy/utils/UUPSUpgradeable.sol\":6169:6186  newImplementation */\n      dup2\n      sub(shl(0xa0, 0x01), 0x01)\n        /* \"@openzeppelin/contracts-upgradeable/proxy/utils/UUPSUpgradeable.sol\":6151:6201  IERC1822Proxiable(newImplementation).proxiableUUID */\n      and\n      0x52d1902d\n        /* \"@openzeppelin/contracts-upgradeable/proxy/utils/UUPSUpgradeable.sol\":6151:6203  IERC1822Proxiable(newImplementation).proxiableUUID() */\n      mload(0x40)\n      dup2\n      0xffffffff\n      and\n      0xe0\n      shl\n      dup2\n      mstore\n      0x04\n      add\n      0x20\n      mload(0x40)\n      dup1\n      dup4\n      sub\n      dup2\n      dup7\n      gas\n      staticcall\n      swap3\n      pop\n      pop\n      pop\n      dup1\n      iszero\n      tag_471\n      jumpi\n      pop\n      0x40\n      dup1\n      mload\n      0x1f\n      returndatasize\n      swap1\n      dup2\n      add\n      not(0x1f)\n      and\n      dup3\n      add\n      swap1\n      swap3\n      mstore\n      tag_472\n      swap2\n      dup2\n      add\n      swap1\n      tag_473\n      jump\t// in\n    tag_472:\n      0x01\n    tag_471:\n        /* \"@openzeppelin/contracts-upgradeable/proxy/utils/UUPSUpgradeable.sol\":6147:6584  try IERC1822Proxiable(newImplementation).proxiableUUID() returns (bytes32 slot) {... */\n      tag_474\n      jumpi\n        /* \"@openzeppelin/contracts-upgradeable/proxy/utils/UUPSUpgradeable.sol\":6513:6573  ERC1967Utils.ERC1967InvalidImplementation(newImplementation) */\n      mload(0x40)\n      shl(0xe0, 0x4c9c8ce3)\n      dup2\n      mstore\n      sub(shl(0xa0, 0x01), 0x01)\n        /* \"#utility.yul\":2968:3000   */\n      dup4\n      and\n        /* \"@openzeppelin/contracts-upgradeable/proxy/utils/UUPSUpgradeable.sol\":6513:6573  ERC1967Utils.ERC1967InvalidImplementation(newImplementation) */\n      0x04\n      dup3\n      add\n        /* \"#utility.yul\":2950:3001   */\n      mstore\n        /* \"#utility.yul\":2923:2941   */\n      0x24\n      add\n        /* \"@openzeppelin/contracts-upgradeable/proxy/utils/UUPSUpgradeable.sol\":6513:6573  ERC1967Utils.ERC1967InvalidImplementation(newImplementation) */\n      tag_229\n        /* \"#utility.yul\":2779:3007   */\n      jump\n        /* \"@openzeppelin/contracts-upgradeable/proxy/utils/UUPSUpgradeable.sol\":6147:6584  try IERC1822Proxiable(newImplementation).proxiableUUID() returns (bytes32 slot) {... */\n    tag_474:\n      0x00\n      dup1\n      mload\n      0x20\n      data_75b20eef8615de99c108b05f0dbda081c91897128caa336d75dffb97c4132b4d\n      dup4\n      codecopy\n      dup2\n      mload\n      swap2\n      mstore\n        /* \"@openzeppelin/contracts-upgradeable/proxy/utils/UUPSUpgradeable.sol\":6245:6285  slot != ERC1967Utils.IMPLEMENTATION_SLOT */\n      dup2\n      eq\n        /* \"@openzeppelin/contracts-upgradeable/proxy/utils/UUPSUpgradeable.sol\":6241:6361  if (slot != ERC1967Utils.IMPLEMENTATION_SLOT) {... */\n      tag_480\n      jumpi\n        /* \"@openzeppelin/contracts-upgradeable/proxy/utils/UUPSUpgradeable.sol\":6312:6346  UUPSUnsupportedProxiableUUID(slot) */\n      mload(0x40)\n      shl(0xe2, 0x2a875269)\n      dup2\n      mstore\n      0x04\n      dup2\n      add\n        /* \"#utility.yul\":1958:1983   */\n      dup3\n      swap1\n      mstore\n        /* \"#utility.yul\":1931:1949   */\n      0x24\n      add\n        /* \"@openzeppelin/contracts-upgradeable/proxy/utils/UUPSUpgradeable.sol\":6312:6346  UUPSUnsupportedProxiableUUID(slot) */\n      tag_229\n        /* \"#utility.yul\":1812:1989   */\n      jump\n        /* \"@openzeppelin/contracts-upgradeable/proxy/utils/UUPSUpgradeable.sol\":6241:6361  if (slot != ERC1967Utils.IMPLEMENTATION_SLOT) {... */\n    tag_480:\n        /* \"@openzeppelin/contracts-upgradeable/proxy/utils/UUPSUpgradeable.sol\":6374:6428  ERC1967Utils.upgradeToAndCall(newImplementation, data) */\n      tag_217\n        /* \"@openzeppelin/contracts-upgradeable/proxy/utils/UUPSUpgradeable.sol\":6404:6421  newImplementation */\n      dup4\n        /* \"@openzeppelin/contracts-upgradeable/proxy/utils/UUPSUpgradeable.sol\":6423:6427  data */\n      dup4\n        /* \"@openzeppelin/contracts-upgradeable/proxy/utils/UUPSUpgradeable.sol\":6374:6403  ERC1967Utils.upgradeToAndCall */\n      tag_483\n        /* \"@openzeppelin/contracts-upgradeable/proxy/utils/UUPSUpgradeable.sol\":6374:6428  ERC1967Utils.upgradeToAndCall(newImplementation, data) */\n      jump\t// in\n        /* \"@openzeppelin/contracts-upgradeable/proxy/utils/UUPSUpgradeable.sol\":5028:5241  function _checkNotDelegated() internal view virtual {... */\n    tag_283:\n        /* \"@openzeppelin/contracts-upgradeable/proxy/utils/UUPSUpgradeable.sol\":5102:5106  this */\n      address\n      sub(shl(0xa0, 0x01), 0x01)\n        /* \"@openzeppelin/contracts-upgradeable/proxy/utils/UUPSUpgradeable.sol\":5111:5117  __self */\n      immutable(\"0x3b04ad91523c4dcf551e081621e633b9099d51bf9c5461e58c3bc7354a578b27\")\n        /* \"@openzeppelin/contracts-upgradeable/proxy/utils/UUPSUpgradeable.sol\":5094:5117  address(this) != __self */\n      and\n      eq\n        /* \"@openzeppelin/contracts-upgradeable/proxy/utils/UUPSUpgradeable.sol\":5090:5235  if (address(this) != __self) {... */\n      tag_454\n      jumpi\n        /* \"@openzeppelin/contracts-upgradeable/proxy/utils/UUPSUpgradeable.sol\":5195:5224  UUPSUnauthorizedCallContext() */\n      mload(0x40)\n      shl(0xe1, 0x703e46dd)\n      dup2\n      mstore\n      0x04\n      add\n      mload(0x40)\n      dup1\n      swap2\n      sub\n      swap1\n      revert\n        /* \"@openzeppelin/contracts-upgradeable/utils/PausableUpgradeable.sol\":3366:3542  function _pause() internal virtual whenNotPaused {... */\n    tag_324:\n        /* \"@openzeppelin/contracts-upgradeable/utils/PausableUpgradeable.sol\":2316:2335  _requireNotPaused() */\n      tag_488\n        /* \"@openzeppelin/contracts-upgradeable/utils/PausableUpgradeable.sol\":2316:2333  _requireNotPaused */\n      tag_226\n        /* \"@openzeppelin/contracts-upgradeable/utils/PausableUpgradeable.sol\":2316:2335  _requireNotPaused() */\n      jump\t// in\n    tag_488:\n      0x00\n      dup1\n      mload\n      0x20\n      data_c0c65a3718f3702d917c44106b91645b509d2e2d0979b70495c3babce192339f\n      dup4\n      codecopy\n      dup2\n      mload\n      swap2\n      mstore\n        /* \"@openzeppelin/contracts-upgradeable/utils/PausableUpgradeable.sol\":3484:3500  $._paused = true */\n      dup1\n      sload\n      not(0xff)\n      and\n        /* \"@openzeppelin/contracts-upgradeable/utils/PausableUpgradeable.sol\":3496:3500  true */\n      0x01\n        /* \"@openzeppelin/contracts-upgradeable/utils/PausableUpgradeable.sol\":3484:3500  $._paused = true */\n      or\n      dup2\n      sstore\n        /* \"@openzeppelin/contracts-upgradeable/utils/PausableUpgradeable.sol\":3515:3535  Paused(_msgSender()) */\n      0x62e78cea01bee320cd4e420270b5ea74000d11b0c9f74754ebdbfc544b05a258\n        /* \"@openzeppelin/contracts-upgradeable/utils/ContextUpgradeable.sol\":966:976  msg.sender */\n      caller\n        /* \"@openzeppelin/contracts-upgradeable/utils/PausableUpgradeable.sol\":3522:3534  _msgSender() */\n      tag_449\n        /* \"@openzeppelin/contracts-upgradeable/utils/ContextUpgradeable.sol\":887:983  function _msgSender() internal view virtual returns (address) {... */\n      jump\n        /* \"@openzeppelin/contracts-upgradeable/utils/PausableUpgradeable.sol\":1836:1933  function __Pausable_init() internal onlyInitializing {... */\n    tag_360:\n        /* \"@openzeppelin/contracts-upgradeable/proxy/utils/Initializable.sol\":6931:6951  _checkInitializing() */\n      tag_495\n        /* \"@openzeppelin/contracts-upgradeable/proxy/utils/Initializable.sol\":6931:6949  _checkInitializing */\n      tag_496\n        /* \"@openzeppelin/contracts-upgradeable/proxy/utils/Initializable.sol\":6931:6951  _checkInitializing() */\n      jump\t// in\n    tag_495:\n        /* \"@openzeppelin/contracts-upgradeable/utils/PausableUpgradeable.sol\":1899:1926  __Pausable_init_unchained() */\n      tag_454\n        /* \"@openzeppelin/contracts-upgradeable/utils/PausableUpgradeable.sol\":1899:1924  __Pausable_init_unchained */\n      tag_499\n        /* \"@openzeppelin/contracts-upgradeable/utils/PausableUpgradeable.sol\":1899:1926  __Pausable_init_unchained() */\n      jump\t// in\n        /* \"@openzeppelin/contracts-upgradeable/access/AccessControlUpgradeable.sol\":3231:3296  function __AccessControl_init() internal onlyInitializing {... */\n    tag_362:\n        /* \"@openzeppelin/contracts-upgradeable/proxy/utils/Initializable.sol\":6931:6951  _checkInitializing() */\n      tag_454\n        /* \"@openzeppelin/contracts-upgradeable/proxy/utils/Initializable.sol\":6931:6949  _checkInitializing */\n      tag_496\n        /* \"@openzeppelin/contracts-upgradeable/proxy/utils/Initializable.sol\":6931:6951  _checkInitializing() */\n      jump\t// in\n        /* \"@openzeppelin/contracts-upgradeable/access/AccessControlUpgradeable.sol\":4381:4578  function _checkRole(bytes32 role, address account) internal view virtual {... */\n    tag_429:\n        /* \"@openzeppelin/contracts-upgradeable/access/AccessControlUpgradeable.sol\":4469:4491  hasRole(role, account) */\n      tag_507\n        /* \"@openzeppelin/contracts-upgradeable/access/AccessControlUpgradeable.sol\":4477:4481  role */\n      dup3\n        /* \"@openzeppelin/contracts-upgradeable/access/AccessControlUpgradeable.sol\":4483:4490  account */\n      dup3\n        /* \"@openzeppelin/contracts-upgradeable/access/AccessControlUpgradeable.sol\":4469:4476  hasRole */\n      tag_126\n        /* \"@openzeppelin/contracts-upgradeable/access/AccessControlUpgradeable.sol\":4469:4491  hasRole(role, account) */\n      jump\t// in\n    tag_507:\n        /* \"@openzeppelin/contracts-upgradeable/access/AccessControlUpgradeable.sol\":4464:4572  if (!hasRole(role, account)) {... */\n      tag_259\n      jumpi\n        /* \"@openzeppelin/contracts-upgradeable/access/AccessControlUpgradeable.sol\":4514:4561  AccessControlUnauthorizedAccount(account, role) */\n      mload(0x40)\n      shl(0xe0, 0xe2517d3f)\n      dup2\n      mstore\n      sub(shl(0xa0, 0x01), 0x01)\n        /* \"#utility.yul\":7509:7541   */\n      dup3\n      and\n        /* \"@openzeppelin/contracts-upgradeable/access/AccessControlUpgradeable.sol\":4514:4561  AccessControlUnauthorizedAccount(account, role) */\n      0x04\n      dup3\n      add\n        /* \"#utility.yul\":7491:7542   */\n      mstore\n        /* \"#utility.yul\":7558:7576   */\n      0x24\n      dup2\n      add\n        /* \"#utility.yul\":7551:7585   */\n      dup4\n      swap1\n      mstore\n        /* \"#utility.yul\":7464:7482   */\n      0x44\n      add\n        /* \"@openzeppelin/contracts-upgradeable/access/AccessControlUpgradeable.sol\":4514:4561  AccessControlUnauthorizedAccount(account, role) */\n      tag_229\n        /* \"#utility.yul\":7317:7591   */\n      jump\n        /* \"@openzeppelin/contracts-upgradeable/utils/PausableUpgradeable.sol\":3105:3231  function _requirePaused() internal view virtual {... */\n    tag_446:\n      0x00\n      dup1\n      mload\n      0x20\n      data_c0c65a3718f3702d917c44106b91645b509d2e2d0979b70495c3babce192339f\n      dup4\n      codecopy\n      dup2\n      mload\n      swap2\n      mstore\n        /* \"@openzeppelin/contracts-upgradeable/utils/PausableUpgradeable.sol\":2821:2830  $._paused */\n      sload\n      0xff\n      and\n        /* \"@openzeppelin/contracts-upgradeable/utils/PausableUpgradeable.sol\":3163:3225  if (!paused()) {... */\n      tag_454\n      jumpi\n        /* \"@openzeppelin/contracts-upgradeable/utils/PausableUpgradeable.sol\":3199:3214  ExpectedPause() */\n      mload(0x40)\n      shl(0xe0, 0x8dfc202b)\n      dup2\n      mstore\n      0x04\n      add\n      mload(0x40)\n      dup1\n      swap2\n      sub\n      swap1\n      revert\n        /* \"@openzeppelin/contracts/proxy/ERC1967/ERC1967Utils.sol\":2779:3114  function upgradeToAndCall(address newImplementation, bytes memory data) internal {... */\n    tag_483:\n        /* \"@openzeppelin/contracts/proxy/ERC1967/ERC1967Utils.sol\":2870:2907  _setImplementation(newImplementation) */\n      tag_518\n        /* \"@openzeppelin/contracts/proxy/ERC1967/ERC1967Utils.sol\":2889:2906  newImplementation */\n      dup3\n        /* \"@openzeppelin/contracts/proxy/ERC1967/ERC1967Utils.sol\":2870:2888  _setImplementation */\n      tag_519\n        /* \"@openzeppelin/contracts/proxy/ERC1967/ERC1967Utils.sol\":2870:2907  _setImplementation(newImplementation) */\n      jump\t// in\n    tag_518:\n        /* \"@openzeppelin/contracts/proxy/ERC1967/ERC1967Utils.sol\":2922:2949  Upgraded(newImplementation) */\n      mload(0x40)\n      sub(shl(0xa0, 0x01), 0x01)\n      dup4\n      and\n      swap1\n      0xbc7cd75a20ee27fd9adebab32041f755214dbc6bffa90cc0225b39da2e5c2d3b\n      swap1\n      0x00\n      swap1\n      log2\n        /* \"@openzeppelin/contracts/proxy/ERC1967/ERC1967Utils.sol\":2964:2975  data.length */\n      dup1\n      mload\n        /* \"@openzeppelin/contracts/proxy/ERC1967/ERC1967Utils.sol\":2964:2979  data.length > 0 */\n      iszero\n        /* \"@openzeppelin/contracts/proxy/ERC1967/ERC1967Utils.sol\":2960:3108  if (data.length > 0) {... */\n      tag_520\n      jumpi\n        /* \"@openzeppelin/contracts/proxy/ERC1967/ERC1967Utils.sol\":2995:3048  Address.functionDelegateCall(newImplementation, data) */\n      tag_217\n        /* \"@openzeppelin/contracts/proxy/ERC1967/ERC1967Utils.sol\":3024:3041  newImplementation */\n      dup3\n        /* \"@openzeppelin/contracts/proxy/ERC1967/ERC1967Utils.sol\":3043:3047  data */\n      dup3\n        /* \"@openzeppelin/contracts/proxy/ERC1967/ERC1967Utils.sol\":2995:3023  Address.functionDelegateCall */\n      tag_522\n        /* \"@openzeppelin/contracts/proxy/ERC1967/ERC1967Utils.sol\":2995:3048  Address.functionDelegateCall(newImplementation, data) */\n      jump\t// in\n        /* \"@openzeppelin/contracts/proxy/ERC1967/ERC1967Utils.sol\":2960:3108  if (data.length > 0) {... */\n    tag_520:\n        /* \"@openzeppelin/contracts/proxy/ERC1967/ERC1967Utils.sol\":3079:3097  _checkNonPayable() */\n      tag_259\n        /* \"@openzeppelin/contracts/proxy/ERC1967/ERC1967Utils.sol\":3079:3095  _checkNonPayable */\n      tag_525\n        /* \"@openzeppelin/contracts/proxy/ERC1967/ERC1967Utils.sol\":3079:3097  _checkNonPayable() */\n      jump\t// in\n        /* \"@openzeppelin/contracts-upgradeable/proxy/utils/Initializable.sol\":7084:7225  function _checkInitializing() internal view virtual {... */\n    tag_496:\n        /* \"@openzeppelin/contracts-upgradeable/proxy/utils/Initializable.sol\":8870:8891  INITIALIZABLE_STORAGE */\n      0xf0c57e16840df040f15088dc2f81fe391c3923bec73e23a9662efc9c229c6a00\n        /* \"@openzeppelin/contracts-upgradeable/proxy/utils/Initializable.sol\":8560:8600  _getInitializableStorage()._initializing */\n      sload\n      shl(0x40, 0x01)\n      swap1\n      div\n      0xff\n      and\n        /* \"@openzeppelin/contracts-upgradeable/proxy/utils/Initializable.sol\":7146:7219  if (!_isInitializing()) {... */\n      tag_454\n      jumpi\n        /* \"@openzeppelin/contracts-upgradeable/proxy/utils/Initializable.sol\":7191:7208  NotInitializing() */\n      mload(0x40)\n      shl(0xe3, 0x1afcd79f)\n      dup2\n      mstore\n      0x04\n      add\n      mload(0x40)\n      dup1\n      swap2\n      sub\n      swap1\n      revert\n        /* \"@openzeppelin/contracts-upgradeable/utils/PausableUpgradeable.sol\":1939:2095  function __Pausable_init_unchained() internal onlyInitializing {... */\n    tag_499:\n        /* \"@openzeppelin/contracts-upgradeable/proxy/utils/Initializable.sol\":6931:6951  _checkInitializing() */\n      tag_531\n        /* \"@openzeppelin/contracts-upgradeable/proxy/utils/Initializable.sol\":6931:6949  _checkInitializing */\n      tag_496\n        /* \"@openzeppelin/contracts-upgradeable/proxy/utils/Initializable.sol\":6931:6951  _checkInitializing() */\n      jump\t// in\n    tag_531:\n      0x00\n      dup1\n      mload\n      0x20\n      data_c0c65a3718f3702d917c44106b91645b509d2e2d0979b70495c3babce192339f\n      dup4\n      codecopy\n      dup2\n      mload\n      swap2\n      mstore\n        /* \"@openzeppelin/contracts-upgradeable/utils/PausableUpgradeable.sol\":2071:2088  $._paused = false */\n      dup1\n      sload\n      not(0xff)\n      and\n      swap1\n      sstore\n        /* \"@openzeppelin/contracts-upgradeable/utils/PausableUpgradeable.sol\":1939:2095  function __Pausable_init_unchained() internal onlyInitializing {... */\n      jump\t// out\n        /* \"@openzeppelin/contracts/proxy/ERC1967/ERC1967Utils.sol\":2186:2467  function _setImplementation(address newImplementation) private {... */\n    tag_519:\n        /* \"@openzeppelin/contracts/proxy/ERC1967/ERC1967Utils.sol\":2263:2280  newImplementation */\n      dup1\n      sub(shl(0xa0, 0x01), 0x01)\n        /* \"@openzeppelin/contracts/proxy/ERC1967/ERC1967Utils.sol\":2263:2292  newImplementation.code.length */\n      and\n      extcodesize\n        /* \"@openzeppelin/contracts/proxy/ERC1967/ERC1967Utils.sol\":2296:2297  0 */\n      0x00\n        /* \"@openzeppelin/contracts/proxy/ERC1967/ERC1967Utils.sol\":2263:2297  newImplementation.code.length == 0 */\n      sub\n        /* \"@openzeppelin/contracts/proxy/ERC1967/ERC1967Utils.sol\":2259:2378  if (newImplementation.code.length == 0) {... */\n      tag_536\n      jumpi\n        /* \"@openzeppelin/contracts/proxy/ERC1967/ERC1967Utils.sol\":2320:2367  ERC1967InvalidImplementation(newImplementation) */\n      mload(0x40)\n      shl(0xe0, 0x4c9c8ce3)\n      dup2\n      mstore\n      sub(shl(0xa0, 0x01), 0x01)\n        /* \"#utility.yul\":2968:3000   */\n      dup3\n      and\n        /* \"@openzeppelin/contracts/proxy/ERC1967/ERC1967Utils.sol\":2320:2367  ERC1967InvalidImplementation(newImplementation) */\n      0x04\n      dup3\n      add\n        /* \"#utility.yul\":2950:3001   */\n      mstore\n        /* \"#utility.yul\":2923:2941   */\n      0x24\n      add\n        /* \"@openzeppelin/contracts/proxy/ERC1967/ERC1967Utils.sol\":2320:2367  ERC1967InvalidImplementation(newImplementation) */\n      tag_229\n        /* \"#utility.yul\":2779:3007   */\n      jump\n        /* \"@openzeppelin/contracts/proxy/ERC1967/ERC1967Utils.sol\":2259:2378  if (newImplementation.code.length == 0) {... */\n    tag_536:\n      0x00\n      dup1\n      mload\n      0x20\n      data_75b20eef8615de99c108b05f0dbda081c91897128caa336d75dffb97c4132b4d\n      dup4\n      codecopy\n      dup2\n      mload\n      swap2\n      mstore\n        /* \"@openzeppelin/contracts/proxy/ERC1967/ERC1967Utils.sol\":2387:2460  StorageSlot.getAddressSlot(IMPLEMENTATION_SLOT).value = newImplementation */\n      dup1\n      sload\n      not(sub(shl(0xa0, 0x01), 0x01))\n      and\n      sub(shl(0xa0, 0x01), 0x01)\n      swap3\n      swap1\n      swap3\n      and\n      swap2\n      swap1\n      swap2\n      or\n      swap1\n      sstore\n        /* \"@openzeppelin/contracts/proxy/ERC1967/ERC1967Utils.sol\":2186:2467  function _setImplementation(address newImplementation) private {... */\n      jump\t// out\n        /* \"@openzeppelin/contracts/utils/Address.sol\":4106:4359  function functionDelegateCall(address target, bytes memory data) internal returns (bytes memory) {... */\n    tag_522:\n        /* \"@openzeppelin/contracts/utils/Address.sol\":4189:4201  bytes memory */\n      0x60\n        /* \"@openzeppelin/contracts/utils/Address.sol\":4214:4226  bool success */\n      0x00\n        /* \"@openzeppelin/contracts/utils/Address.sol\":4228:4251  bytes memory returndata */\n      dup1\n        /* \"@openzeppelin/contracts/utils/Address.sol\":4255:4261  target */\n      dup5\n      sub(shl(0xa0, 0x01), 0x01)\n        /* \"@openzeppelin/contracts/utils/Address.sol\":4255:4274  target.delegatecall */\n      and\n        /* \"@openzeppelin/contracts/utils/Address.sol\":4275:4279  data */\n      dup5\n        /* \"@openzeppelin/contracts/utils/Address.sol\":4255:4280  target.delegatecall(data) */\n      mload(0x40)\n      tag_540\n      swap2\n      swap1\n      tag_541\n      jump\t// in\n    tag_540:\n      0x00\n      mload(0x40)\n      dup1\n      dup4\n      sub\n      dup2\n      dup6\n      gas\n      delegatecall\n      swap2\n      pop\n      pop\n      returndatasize\n      dup1\n      0x00\n      dup2\n      eq\n      tag_544\n      jumpi\n      mload(0x40)\n      swap2\n      pop\n      and(add(returndatasize, 0x3f), not(0x1f))\n      dup3\n      add\n      0x40\n      mstore\n      returndatasize\n      dup3\n      mstore\n      returndatasize\n      0x00\n      0x20\n      dup5\n      add\n      returndatacopy\n      jump(tag_543)\n    tag_544:\n      0x60\n      swap2\n      pop\n    tag_543:\n      pop\n        /* \"@openzeppelin/contracts/utils/Address.sol\":4213:4280  (bool success, bytes memory returndata) = target.delegatecall(data) */\n      swap2\n      pop\n      swap2\n      pop\n        /* \"@openzeppelin/contracts/utils/Address.sol\":4297:4352  verifyCallResultFromTarget(target, success, returndata) */\n      tag_545\n        /* \"@openzeppelin/contracts/utils/Address.sol\":4324:4330  target */\n      dup6\n        /* \"@openzeppelin/contracts/utils/Address.sol\":4332:4339  success */\n      dup4\n        /* \"@openzeppelin/contracts/utils/Address.sol\":4341:4351  returndata */\n      dup4\n        /* \"@openzeppelin/contracts/utils/Address.sol\":4297:4323  verifyCallResultFromTarget */\n      tag_546\n        /* \"@openzeppelin/contracts/utils/Address.sol\":4297:4352  verifyCallResultFromTarget(target, success, returndata) */\n      jump\t// in\n    tag_545:\n        /* \"@openzeppelin/contracts/utils/Address.sol\":4290:4352  return verifyCallResultFromTarget(target, success, returndata) */\n      swap6\n        /* \"@openzeppelin/contracts/utils/Address.sol\":4106:4359  function functionDelegateCall(address target, bytes memory data) internal returns (bytes memory) {... */\n      swap5\n      pop\n      pop\n      pop\n      pop\n      pop\n      jump\t// out\n        /* \"@openzeppelin/contracts/proxy/ERC1967/ERC1967Utils.sol\":6598:6720  function _checkNonPayable() private {... */\n    tag_525:\n        /* \"@openzeppelin/contracts/proxy/ERC1967/ERC1967Utils.sol\":6648:6657  msg.value */\n      callvalue\n        /* \"@openzeppelin/contracts/proxy/ERC1967/ERC1967Utils.sol\":6648:6661  msg.value > 0 */\n      iszero\n        /* \"@openzeppelin/contracts/proxy/ERC1967/ERC1967Utils.sol\":6644:6714  if (msg.value > 0) {... */\n      tag_454\n      jumpi\n        /* \"@openzeppelin/contracts/proxy/ERC1967/ERC1967Utils.sol\":6684:6703  ERC1967NonPayable() */\n      mload(0x40)\n      shl(0xe0, 0xb398979f)\n      dup2\n      mstore\n      0x04\n      add\n      mload(0x40)\n      dup1\n      swap2\n      sub\n      swap1\n      revert\n        /* \"@openzeppelin/contracts/utils/Address.sol\":4625:5207  function verifyCallResultFromTarget(... */\n    tag_546:\n        /* \"@openzeppelin/contracts/utils/Address.sol\":4769:4781  bytes memory */\n      0x60\n        /* \"@openzeppelin/contracts/utils/Address.sol\":4798:4805  success */\n      dup3\n        /* \"@openzeppelin/contracts/utils/Address.sol\":4793:5201  if (!success) {... */\n      tag_552\n      jumpi\n        /* \"@openzeppelin/contracts/utils/Address.sol\":4821:4840  _revert(returndata) */\n      tag_553\n        /* \"@openzeppelin/contracts/utils/Address.sol\":4829:4839  returndata */\n      dup3\n        /* \"@openzeppelin/contracts/utils/Address.sol\":4821:4828  _revert */\n      tag_554\n        /* \"@openzeppelin/contracts/utils/Address.sol\":4821:4840  _revert(returndata) */\n      jump\t// in\n    tag_553:\n        /* \"@openzeppelin/contracts/utils/Address.sol\":4793:5201  if (!success) {... */\n      jump(tag_455)\n    tag_552:\n        /* \"@openzeppelin/contracts/utils/Address.sol\":5045:5062  returndata.length */\n      dup2\n      mload\n        /* \"@openzeppelin/contracts/utils/Address.sol\":5045:5067  returndata.length == 0 */\n      iszero\n        /* \"@openzeppelin/contracts/utils/Address.sol\":5045:5094  returndata.length == 0 && target.code.length == 0 */\n      dup1\n      iszero\n      tag_556\n      jumpi\n      pop\n      sub(shl(0xa0, 0x01), 0x01)\n        /* \"@openzeppelin/contracts/utils/Address.sol\":5071:5089  target.code.length */\n      dup5\n      and\n      extcodesize\n        /* \"@openzeppelin/contracts/utils/Address.sol\":5071:5094  target.code.length == 0 */\n      iszero\n        /* \"@openzeppelin/contracts/utils/Address.sol\":5045:5094  returndata.length == 0 && target.code.length == 0 */\n    tag_556:\n        /* \"@openzeppelin/contracts/utils/Address.sol\":5041:5160  if (returndata.length == 0 && target.code.length == 0) {... */\n      iszero\n      tag_557\n      jumpi\n        /* \"@openzeppelin/contracts/utils/Address.sol\":5121:5145  AddressEmptyCode(target) */\n      mload(0x40)\n      shl(0xe0, 0x9996b315)\n      dup2\n      mstore\n      sub(shl(0xa0, 0x01), 0x01)\n        /* \"#utility.yul\":2968:3000   */\n      dup6\n      and\n        /* \"@openzeppelin/contracts/utils/Address.sol\":5121:5145  AddressEmptyCode(target) */\n      0x04\n      dup3\n      add\n        /* \"#utility.yul\":2950:3001   */\n      mstore\n        /* \"#utility.yul\":2923:2941   */\n      0x24\n      add\n        /* \"@openzeppelin/contracts/utils/Address.sol\":5121:5145  AddressEmptyCode(target) */\n      tag_229\n        /* \"#utility.yul\":2779:3007   */\n      jump\n        /* \"@openzeppelin/contracts/utils/Address.sol\":5041:5160  if (returndata.length == 0 && target.code.length == 0) {... */\n    tag_557:\n      pop\n        /* \"@openzeppelin/contracts/utils/Address.sol\":5180:5190  returndata */\n      dup1\n        /* \"@openzeppelin/contracts/utils/Address.sol\":5173:5190  return returndata */\n      jump(tag_455)\n        /* \"@openzeppelin/contracts/utils/Address.sol\":5743:6259  function _revert(bytes memory returndata) private pure {... */\n    tag_554:\n        /* \"@openzeppelin/contracts/utils/Address.sol\":5874:5891  returndata.length */\n      dup1\n      mload\n        /* \"@openzeppelin/contracts/utils/Address.sol\":5874:5895  returndata.length > 0 */\n      iszero\n        /* \"@openzeppelin/contracts/utils/Address.sol\":5870:6253  if (returndata.length > 0) {... */\n      tag_560\n      jumpi\n        /* \"@openzeppelin/contracts/utils/Address.sol\":6102:6112  returndata */\n      dup1\n        /* \"@openzeppelin/contracts/utils/Address.sol\":6096:6113  mload(returndata) */\n      mload\n        /* \"@openzeppelin/contracts/utils/Address.sol\":6158:6173  returndata_size */\n      dup1\n        /* \"@openzeppelin/contracts/utils/Address.sol\":6145:6155  returndata */\n      dup3\n        /* \"@openzeppelin/contracts/utils/Address.sol\":6141:6143  32 */\n      0x20\n        /* \"@openzeppelin/contracts/utils/Address.sol\":6137:6156  add(32, returndata) */\n      add\n        /* \"@openzeppelin/contracts/utils/Address.sol\":6130:6174  revert(add(32, returndata), returndata_size) */\n      revert\n        /* \"@openzeppelin/contracts/utils/Address.sol\":5870:6253  if (returndata.length > 0) {... */\n    tag_560:\n        /* \"@openzeppelin/contracts/utils/Address.sol\":6225:6242  FailedInnerCall() */\n      mload(0x40)\n      shl(0xe1, 0x0a12f521)\n      dup2\n      mstore\n      0x04\n      add\n      mload(0x40)\n      dup1\n      swap2\n      sub\n      swap1\n      revert\n        /* \"#utility.yul\":14:300   */\n    tag_43:\n        /* \"#utility.yul\":72:78   */\n      0x00\n        /* \"#utility.yul\":125:127   */\n      0x20\n        /* \"#utility.yul\":113:122   */\n      dup3\n        /* \"#utility.yul\":104:111   */\n      dup5\n        /* \"#utility.yul\":100:123   */\n      sub\n        /* \"#utility.yul\":96:128   */\n      slt\n        /* \"#utility.yul\":93:145   */\n      iszero\n      tag_567\n      jumpi\n        /* \"#utility.yul\":141:142   */\n      0x00\n        /* \"#utility.yul\":138:139   */\n      dup1\n        /* \"#utility.yul\":131:143   */\n      revert\n        /* \"#utility.yul\":93:145   */\n    tag_567:\n        /* \"#utility.yul\":167:190   */\n      dup2\n      calldataload\n      not(sub(shl(0xe0, 0x01), 0x01))\n        /* \"#utility.yul\":219:251   */\n      dup2\n      and\n        /* \"#utility.yul\":209:252   */\n      dup2\n      eq\n        /* \"#utility.yul\":199:270   */\n      tag_455\n      jumpi\n        /* \"#utility.yul\":266:267   */\n      0x00\n        /* \"#utility.yul\":263:264   */\n      dup1\n        /* \"#utility.yul\":256:268   */\n      revert\n        /* \"#utility.yul\":497:723   */\n    tag_50:\n        /* \"#utility.yul\":556:562   */\n      0x00\n        /* \"#utility.yul\":609:611   */\n      0x20\n        /* \"#utility.yul\":597:606   */\n      dup3\n        /* \"#utility.yul\":588:595   */\n      dup5\n        /* \"#utility.yul\":584:607   */\n      sub\n        /* \"#utility.yul\":580:612   */\n      slt\n        /* \"#utility.yul\":577:629   */\n      iszero\n      tag_571\n      jumpi\n        /* \"#utility.yul\":625:626   */\n      0x00\n        /* \"#utility.yul\":622:623   */\n      dup1\n        /* \"#utility.yul\":615:627   */\n      revert\n        /* \"#utility.yul\":577:629   */\n    tag_571:\n      pop\n        /* \"#utility.yul\":670:693   */\n      calldataload\n      swap2\n        /* \"#utility.yul\":497:723   */\n      swap1\n      pop\n      jump\t// out\n        /* \"#utility.yul\":728:859   */\n    tag_562:\n      sub(shl(0xa0, 0x01), 0x01)\n        /* \"#utility.yul\":803:834   */\n      dup2\n      and\n        /* \"#utility.yul\":793:835   */\n      dup2\n      eq\n        /* \"#utility.yul\":783:853   */\n      tag_222\n      jumpi\n        /* \"#utility.yul\":849:850   */\n      0x00\n        /* \"#utility.yul\":846:847   */\n      dup1\n        /* \"#utility.yul\":839:851   */\n      revert\n        /* \"#utility.yul\":864:1231   */\n    tag_55:\n        /* \"#utility.yul\":932:938   */\n      0x00\n        /* \"#utility.yul\":940:946   */\n      dup1\n        /* \"#utility.yul\":993:995   */\n      0x40\n        /* \"#utility.yul\":981:990   */\n      dup4\n        /* \"#utility.yul\":972:979   */\n      dup6\n        /* \"#utility.yul\":968:991   */\n      sub\n        /* \"#utility.yul\":964:996   */\n      slt\n        /* \"#utility.yul\":961:1013   */\n      iszero\n      tag_575\n      jumpi\n        /* \"#utility.yul\":1009:1010   */\n      0x00\n        /* \"#utility.yul\":1006:1007   */\n      dup1\n        /* \"#utility.yul\":999:1011   */\n      revert\n        /* \"#utility.yul\":961:1013   */\n    tag_575:\n        /* \"#utility.yul\":1048:1057   */\n      dup3\n        /* \"#utility.yul\":1035:1058   */\n      calldataload\n        /* \"#utility.yul\":1067:1098   */\n      tag_576\n        /* \"#utility.yul\":1092:1097   */\n      dup2\n        /* \"#utility.yul\":1067:1098   */\n      tag_562\n      jump\t// in\n    tag_576:\n        /* \"#utility.yul\":1117:1122   */\n      swap5\n        /* \"#utility.yul\":1195:1197   */\n      0x20\n        /* \"#utility.yul\":1180:1198   */\n      swap4\n      swap1\n      swap4\n      add\n        /* \"#utility.yul\":1167:1199   */\n      calldataload\n      swap4\n      pop\n      pop\n      pop\n        /* \"#utility.yul\":864:1231   */\n      jump\t// out\n        /* \"#utility.yul\":1236:1483   */\n    tag_60:\n        /* \"#utility.yul\":1295:1301   */\n      0x00\n        /* \"#utility.yul\":1348:1350   */\n      0x20\n        /* \"#utility.yul\":1336:1345   */\n      dup3\n        /* \"#utility.yul\":1327:1334   */\n      dup5\n        /* \"#utility.yul\":1323:1346   */\n      sub\n        /* \"#utility.yul\":1319:1351   */\n      slt\n        /* \"#utility.yul\":1316:1368   */\n      iszero\n      tag_578\n      jumpi\n        /* \"#utility.yul\":1364:1365   */\n      0x00\n        /* \"#utility.yul\":1361:1362   */\n      dup1\n        /* \"#utility.yul\":1354:1366   */\n      revert\n        /* \"#utility.yul\":1316:1368   */\n    tag_578:\n        /* \"#utility.yul\":1403:1412   */\n      dup2\n        /* \"#utility.yul\":1390:1413   */\n      calldataload\n        /* \"#utility.yul\":1422:1453   */\n      tag_455\n        /* \"#utility.yul\":1447:1452   */\n      dup2\n        /* \"#utility.yul\":1422:1453   */\n      tag_562\n      jump\t// in\n        /* \"#utility.yul\":2407:2774   */\n    tag_83:\n        /* \"#utility.yul\":2475:2481   */\n      0x00\n        /* \"#utility.yul\":2483:2489   */\n      dup1\n        /* \"#utility.yul\":2536:2538   */\n      0x40\n        /* \"#utility.yul\":2524:2533   */\n      dup4\n        /* \"#utility.yul\":2515:2522   */\n      dup6\n        /* \"#utility.yul\":2511:2534   */\n      sub\n        /* \"#utility.yul\":2507:2539   */\n      slt\n        /* \"#utility.yul\":2504:2556   */\n      iszero\n      tag_586\n      jumpi\n        /* \"#utility.yul\":2552:2553   */\n      0x00\n        /* \"#utility.yul\":2549:2550   */\n      dup1\n        /* \"#utility.yul\":2542:2554   */\n      revert\n        /* \"#utility.yul\":2504:2556   */\n    tag_586:\n        /* \"#utility.yul\":2597:2620   */\n      dup3\n      calldataload\n      swap2\n      pop\n        /* \"#utility.yul\":2696:2698   */\n      0x20\n        /* \"#utility.yul\":2681:2699   */\n      dup4\n      add\n        /* \"#utility.yul\":2668:2700   */\n      calldataload\n        /* \"#utility.yul\":2709:2742   */\n      tag_587\n        /* \"#utility.yul\":2668:2700   */\n      dup2\n        /* \"#utility.yul\":2709:2742   */\n      tag_562\n      jump\t// in\n    tag_587:\n        /* \"#utility.yul\":2761:2768   */\n      dup1\n        /* \"#utility.yul\":2751:2768   */\n      swap2\n      pop\n      pop\n        /* \"#utility.yul\":2407:2774   */\n      swap3\n      pop\n      swap3\n      swap1\n      pop\n      jump\t// out\n        /* \"#utility.yul\":3012:3358   */\n    tag_99:\n        /* \"#utility.yul\":3080:3086   */\n      0x00\n        /* \"#utility.yul\":3088:3094   */\n      dup1\n        /* \"#utility.yul\":3141:3143   */\n      0x40\n        /* \"#utility.yul\":3129:3138   */\n      dup4\n        /* \"#utility.yul\":3120:3127   */\n      dup6\n        /* \"#utility.yul\":3116:3139   */\n      sub\n        /* \"#utility.yul\":3112:3144   */\n      slt\n        /* \"#utility.yul\":3109:3161   */\n      iszero\n      tag_590\n      jumpi\n        /* \"#utility.yul\":3157:3158   */\n      0x00\n        /* \"#utility.yul\":3154:3155   */\n      dup1\n        /* \"#utility.yul\":3147:3159   */\n      revert\n        /* \"#utility.yul\":3109:3161   */\n    tag_590:\n      pop\n      pop\n        /* \"#utility.yul\":3202:3225   */\n      dup1\n      calldataload\n      swap3\n        /* \"#utility.yul\":3322:3324   */\n      0x20\n        /* \"#utility.yul\":3307:3325   */\n      swap1\n      swap2\n      add\n        /* \"#utility.yul\":3294:3326   */\n      calldataload\n      swap2\n      pop\n        /* \"#utility.yul\":3012:3358   */\n      jump\t// out\n        /* \"#utility.yul\":3363:3490   */\n    tag_563:\n        /* \"#utility.yul\":3424:3434   */\n      0x4e487b71\n        /* \"#utility.yul\":3419:3422   */\n      0xe0\n        /* \"#utility.yul\":3415:3435   */\n      shl\n        /* \"#utility.yul\":3412:3413   */\n      0x00\n        /* \"#utility.yul\":3405:3436   */\n      mstore\n        /* \"#utility.yul\":3455:3459   */\n      0x41\n        /* \"#utility.yul\":3452:3453   */\n      0x04\n        /* \"#utility.yul\":3445:3460   */\n      mstore\n        /* \"#utility.yul\":3479:3483   */\n      0x24\n        /* \"#utility.yul\":3476:3477   */\n      0x00\n        /* \"#utility.yul\":3469:3484   */\n      revert\n        /* \"#utility.yul\":3495:4574   */\n    tag_103:\n        /* \"#utility.yul\":3572:3578   */\n      0x00\n        /* \"#utility.yul\":3580:3586   */\n      dup1\n        /* \"#utility.yul\":3633:3635   */\n      0x40\n        /* \"#utility.yul\":3621:3630   */\n      dup4\n        /* \"#utility.yul\":3612:3619   */\n      dup6\n        /* \"#utility.yul\":3608:3631   */\n      sub\n        /* \"#utility.yul\":3604:3636   */\n      slt\n        /* \"#utility.yul\":3601:3653   */\n      iszero\n      tag_593\n      jumpi\n        /* \"#utility.yul\":3649:3650   */\n      0x00\n        /* \"#utility.yul\":3646:3647   */\n      dup1\n        /* \"#utility.yul\":3639:3651   */\n      revert\n        /* \"#utility.yul\":3601:3653   */\n    tag_593:\n        /* \"#utility.yul\":3688:3697   */\n      dup3\n        /* \"#utility.yul\":3675:3698   */\n      calldataload\n        /* \"#utility.yul\":3707:3738   */\n      tag_594\n        /* \"#utility.yul\":3732:3737   */\n      dup2\n        /* \"#utility.yul\":3707:3738   */\n      tag_562\n      jump\t// in\n    tag_594:\n        /* \"#utility.yul\":3757:3762   */\n      swap2\n      pop\n        /* \"#utility.yul\":3813:3815   */\n      0x20\n        /* \"#utility.yul\":3798:3816   */\n      dup4\n      add\n        /* \"#utility.yul\":3785:3817   */\n      calldataload\n        /* \"#utility.yul\":3840:3858   */\n      0xffffffffffffffff\n        /* \"#utility.yul\":3829:3859   */\n      dup2\n      gt\n        /* \"#utility.yul\":3826:3876   */\n      iszero\n      tag_595\n      jumpi\n        /* \"#utility.yul\":3872:3873   */\n      0x00\n        /* \"#utility.yul\":3869:3870   */\n      dup1\n        /* \"#utility.yul\":3862:3874   */\n      revert\n        /* \"#utility.yul\":3826:3876   */\n    tag_595:\n        /* \"#utility.yul\":3895:3917   */\n      dup4\n      add\n        /* \"#utility.yul\":3948:3952   */\n      0x1f\n        /* \"#utility.yul\":3940:3953   */\n      dup2\n      add\n        /* \"#utility.yul\":3936:3963   */\n      dup6\n      sgt\n        /* \"#utility.yul\":3926:3981   */\n      tag_596\n      jumpi\n        /* \"#utility.yul\":3977:3978   */\n      0x00\n        /* \"#utility.yul\":3974:3975   */\n      dup1\n        /* \"#utility.yul\":3967:3979   */\n      revert\n        /* \"#utility.yul\":3926:3981   */\n    tag_596:\n        /* \"#utility.yul\":4017:4019   */\n      dup1\n        /* \"#utility.yul\":4004:4020   */\n      calldataload\n        /* \"#utility.yul\":4043:4061   */\n      0xffffffffffffffff\n        /* \"#utility.yul\":4035:4041   */\n      dup2\n        /* \"#utility.yul\":4032:4062   */\n      gt\n        /* \"#utility.yul\":4029:4085   */\n      iszero\n      tag_598\n      jumpi\n        /* \"#utility.yul\":4065:4083   */\n      tag_598\n      tag_563\n      jump\t// in\n    tag_598:\n        /* \"#utility.yul\":4114:4116   */\n      0x40\n        /* \"#utility.yul\":4108:4117   */\n      mload\n        /* \"#utility.yul\":4206:4208   */\n      0x1f\n        /* \"#utility.yul\":4168:4185   */\n      dup3\n      add\n      not(0x1f)\n        /* \"#utility.yul\":4164:4195   */\n      swap1\n      dup2\n      and\n        /* \"#utility.yul\":4197:4199   */\n      0x3f\n        /* \"#utility.yul\":4160:4200   */\n      add\n        /* \"#utility.yul\":4156:4210   */\n      and\n        /* \"#utility.yul\":4144:4211   */\n      dup2\n      add\n        /* \"#utility.yul\":4241:4259   */\n      0xffffffffffffffff\n        /* \"#utility.yul\":4226:4260   */\n      dup2\n      gt\n        /* \"#utility.yul\":4262:4284   */\n      dup3\n      dup3\n      lt\n        /* \"#utility.yul\":4223:4285   */\n      or\n        /* \"#utility.yul\":4220:4308   */\n      iszero\n      tag_600\n      jumpi\n        /* \"#utility.yul\":4288:4306   */\n      tag_600\n      tag_563\n      jump\t// in\n    tag_600:\n        /* \"#utility.yul\":4324:4326   */\n      0x40\n        /* \"#utility.yul\":4317:4339   */\n      mstore\n        /* \"#utility.yul\":4348:4370   */\n      dup2\n      dup2\n      mstore\n        /* \"#utility.yul\":4389:4404   */\n      dup3\n      dup3\n      add\n        /* \"#utility.yul\":4406:4408   */\n      0x20\n        /* \"#utility.yul\":4385:4409   */\n      add\n        /* \"#utility.yul\":4382:4419   */\n      dup8\n      lt\n        /* \"#utility.yul\":4379:4436   */\n      iszero\n      tag_601\n      jumpi\n        /* \"#utility.yul\":4432:4433   */\n      0x00\n        /* \"#utility.yul\":4429:4430   */\n      dup1\n        /* \"#utility.yul\":4422:4434   */\n      revert\n        /* \"#utility.yul\":4379:4436   */\n    tag_601:\n        /* \"#utility.yul\":4488:4494   */\n      dup2\n        /* \"#utility.yul\":4483:4485   */\n      0x20\n        /* \"#utility.yul\":4479:4481   */\n      dup5\n        /* \"#utility.yul\":4475:4486   */\n      add\n        /* \"#utility.yul\":4470:4472   */\n      0x20\n        /* \"#utility.yul\":4462:4468   */\n      dup4\n        /* \"#utility.yul\":4458:4473   */\n      add\n        /* \"#utility.yul\":4445:4495   */\n      calldatacopy\n        /* \"#utility.yul\":4541:4542   */\n      0x00\n        /* \"#utility.yul\":4536:4538   */\n      0x20\n        /* \"#utility.yul\":4527:4533   */\n      dup4\n        /* \"#utility.yul\":4519:4525   */\n      dup4\n        /* \"#utility.yul\":4515:4534   */\n      add\n        /* \"#utility.yul\":4511:4539   */\n      add\n        /* \"#utility.yul\":4504:4543   */\n      mstore\n        /* \"#utility.yul\":4562:4568   */\n      dup1\n        /* \"#utility.yul\":4552:4568   */\n      swap4\n      pop\n      pop\n      pop\n      pop\n        /* \"#utility.yul\":3495:4574   */\n      swap3\n      pop\n      swap3\n      swap1\n      pop\n      jump\t// out\n        /* \"#utility.yul\":4832:5250   */\n    tag_142:\n        /* \"#utility.yul\":4981:4983   */\n      0x20\n        /* \"#utility.yul\":4970:4979   */\n      dup2\n        /* \"#utility.yul\":4963:4984   */\n      mstore\n        /* \"#utility.yul\":4944:4948   */\n      0x00\n        /* \"#utility.yul\":5013:5019   */\n      dup3\n        /* \"#utility.yul\":5007:5020   */\n      mload\n        /* \"#utility.yul\":5056:5062   */\n      dup1\n        /* \"#utility.yul\":5051:5053   */\n      0x20\n        /* \"#utility.yul\":5040:5049   */\n      dup5\n        /* \"#utility.yul\":5036:5054   */\n      add\n        /* \"#utility.yul\":5029:5063   */\n      mstore\n        /* \"#utility.yul\":5115:5121   */\n      dup1\n        /* \"#utility.yul\":5110:5112   */\n      0x20\n        /* \"#utility.yul\":5102:5108   */\n      dup6\n        /* \"#utility.yul\":5098:5113   */\n      add\n        /* \"#utility.yul\":5093:5095   */\n      0x40\n        /* \"#utility.yul\":5082:5091   */\n      dup6\n        /* \"#utility.yul\":5078:5096   */\n      add\n        /* \"#utility.yul\":5072:5122   */\n      mcopy\n        /* \"#utility.yul\":5171:5172   */\n      0x00\n        /* \"#utility.yul\":5166:5168   */\n      0x40\n        /* \"#utility.yul\":5157:5163   */\n      dup3\n        /* \"#utility.yul\":5146:5155   */\n      dup6\n        /* \"#utility.yul\":5142:5164   */\n      add\n        /* \"#utility.yul\":5138:5169   */\n      add\n        /* \"#utility.yul\":5131:5173   */\n      mstore\n        /* \"#utility.yul\":5241:5243   */\n      0x40\n        /* \"#utility.yul\":5234:5236   */\n      0x1f\n        /* \"#utility.yul\":5230:5237   */\n      not\n        /* \"#utility.yul\":5225:5227   */\n      0x1f\n        /* \"#utility.yul\":5217:5223   */\n      dup4\n        /* \"#utility.yul\":5213:5228   */\n      add\n        /* \"#utility.yul\":5209:5238   */\n      and\n        /* \"#utility.yul\":5198:5207   */\n      dup5\n        /* \"#utility.yul\":5194:5239   */\n      add\n        /* \"#utility.yul\":5190:5244   */\n      add\n        /* \"#utility.yul\":5182:5244   */\n      swap2\n      pop\n      pop\n        /* \"#utility.yul\":4832:5250   */\n      swap3\n      swap2\n      pop\n      pop\n      jump\t// out\n        /* \"#utility.yul\":5255:5742   */\n    tag_146:\n        /* \"#utility.yul\":5332:5338   */\n      0x00\n        /* \"#utility.yul\":5340:5346   */\n      dup1\n        /* \"#utility.yul\":5348:5354   */\n      0x00\n        /* \"#utility.yul\":5401:5403   */\n      0x60\n        /* \"#utility.yul\":5389:5398   */\n      dup5\n        /* \"#utility.yul\":5380:5387   */\n      dup7\n        /* \"#utility.yul\":5376:5399   */\n      sub\n        /* \"#utility.yul\":5372:5404   */\n      slt\n        /* \"#utility.yul\":5369:5421   */\n      iszero\n      tag_605\n      jumpi\n        /* \"#utility.yul\":5417:5418   */\n      0x00\n        /* \"#utility.yul\":5414:5415   */\n      dup1\n        /* \"#utility.yul\":5407:5419   */\n      revert\n        /* \"#utility.yul\":5369:5421   */\n    tag_605:\n        /* \"#utility.yul\":5456:5465   */\n      dup4\n        /* \"#utility.yul\":5443:5466   */\n      calldataload\n        /* \"#utility.yul\":5475:5506   */\n      tag_606\n        /* \"#utility.yul\":5500:5505   */\n      dup2\n        /* \"#utility.yul\":5475:5506   */\n      tag_562\n      jump\t// in\n    tag_606:\n        /* \"#utility.yul\":5525:5530   */\n      swap6\n        /* \"#utility.yul\":5603:5605   */\n      0x20\n        /* \"#utility.yul\":5588:5606   */\n      dup6\n      add\n        /* \"#utility.yul\":5575:5607   */\n      calldataload\n      swap6\n      pop\n        /* \"#utility.yul\":5706:5708   */\n      0x40\n        /* \"#utility.yul\":5691:5709   */\n      swap1\n      swap5\n      add\n        /* \"#utility.yul\":5678:5710   */\n      calldataload\n      swap4\n        /* \"#utility.yul\":5255:5742   */\n      swap3\n      pop\n      pop\n      pop\n      jump\t// out\n        /* \"#utility.yul\":5747:6702   */\n    tag_151:\n        /* \"#utility.yul\":5851:5857   */\n      0x00\n        /* \"#utility.yul\":5859:5865   */\n      dup1\n        /* \"#utility.yul\":5867:5873   */\n      0x00\n        /* \"#utility.yul\":5875:5881   */\n      dup1\n        /* \"#utility.yul\":5883:5889   */\n      0x00\n        /* \"#utility.yul\":5891:5897   */\n      dup1\n        /* \"#utility.yul\":5944:5947   */\n      0xc0\n        /* \"#utility.yul\":5932:5941   */\n      dup8\n        /* \"#utility.yul\":5923:5930   */\n      dup10\n        /* \"#utility.yul\":5919:5942   */\n      sub\n        /* \"#utility.yul\":5915:5948   */\n      slt\n        /* \"#utility.yul\":5912:5965   */\n      iszero\n      tag_608\n      jumpi\n        /* \"#utility.yul\":5961:5962   */\n      0x00\n        /* \"#utility.yul\":5958:5959   */\n      dup1\n        /* \"#utility.yul\":5951:5963   */\n      revert\n        /* \"#utility.yul\":5912:5965   */\n    tag_608:\n        /* \"#utility.yul\":6000:6009   */\n      dup7\n        /* \"#utility.yul\":5987:6010   */\n      calldataload\n        /* \"#utility.yul\":6019:6050   */\n      tag_609\n        /* \"#utility.yul\":6044:6049   */\n      dup2\n        /* \"#utility.yul\":6019:6050   */\n      tag_562\n      jump\t// in\n    tag_609:\n        /* \"#utility.yul\":6069:6074   */\n      swap6\n      pop\n        /* \"#utility.yul\":6126:6128   */\n      0x20\n        /* \"#utility.yul\":6111:6129   */\n      dup8\n      add\n        /* \"#utility.yul\":6098:6130   */\n      calldataload\n        /* \"#utility.yul\":6139:6172   */\n      tag_610\n        /* \"#utility.yul\":6098:6130   */\n      dup2\n        /* \"#utility.yul\":6139:6172   */\n      tag_562\n      jump\t// in\n    tag_610:\n        /* \"#utility.yul\":6191:6198   */\n      swap5\n      pop\n        /* \"#utility.yul\":6250:6252   */\n      0x40\n        /* \"#utility.yul\":6235:6253   */\n      dup8\n      add\n        /* \"#utility.yul\":6222:6254   */\n      calldataload\n        /* \"#utility.yul\":6263:6296   */\n      tag_611\n        /* \"#utility.yul\":6222:6254   */\n      dup2\n        /* \"#utility.yul\":6263:6296   */\n      tag_562\n      jump\t// in\n    tag_611:\n        /* \"#utility.yul\":6315:6322   */\n      swap4\n      pop\n        /* \"#utility.yul\":6374:6376   */\n      0x60\n        /* \"#utility.yul\":6359:6377   */\n      dup8\n      add\n        /* \"#utility.yul\":6346:6378   */\n      calldataload\n        /* \"#utility.yul\":6387:6420   */\n      tag_612\n        /* \"#utility.yul\":6346:6378   */\n      dup2\n        /* \"#utility.yul\":6387:6420   */\n      tag_562\n      jump\t// in\n    tag_612:\n        /* \"#utility.yul\":6439:6446   */\n      swap3\n      pop\n        /* \"#utility.yul\":6498:6501   */\n      0x80\n        /* \"#utility.yul\":6483:6502   */\n      dup8\n      add\n        /* \"#utility.yul\":6470:6503   */\n      calldataload\n        /* \"#utility.yul\":6512:6545   */\n      tag_613\n        /* \"#utility.yul\":6470:6503   */\n      dup2\n        /* \"#utility.yul\":6512:6545   */\n      tag_562\n      jump\t// in\n    tag_613:\n        /* \"#utility.yul\":6564:6571   */\n      swap2\n      pop\n        /* \"#utility.yul\":6623:6626   */\n      0xa0\n        /* \"#utility.yul\":6608:6627   */\n      dup8\n      add\n        /* \"#utility.yul\":6595:6628   */\n      calldataload\n        /* \"#utility.yul\":6637:6670   */\n      tag_614\n        /* \"#utility.yul\":6595:6628   */\n      dup2\n        /* \"#utility.yul\":6637:6670   */\n      tag_562\n      jump\t// in\n    tag_614:\n        /* \"#utility.yul\":6689:6696   */\n      dup1\n        /* \"#utility.yul\":6679:6696   */\n      swap2\n      pop\n      pop\n        /* \"#utility.yul\":5747:6702   */\n      swap3\n      swap6\n      pop\n      swap3\n      swap6\n      pop\n      swap3\n      swap6\n      jump\t// out\n        /* \"#utility.yul\":6941:7312   */\n    tag_191:\n      sub(shl(0xa0, 0x01), 0x01)\n        /* \"#utility.yul\":7161:7193   */\n      swap4\n      dup5\n      and\n        /* \"#utility.yul\":7143:7194   */\n      dup2\n      mstore\n        /* \"#utility.yul\":7230:7262   */\n      swap2\n      swap1\n      swap3\n      and\n        /* \"#utility.yul\":7225:7227   */\n      0x20\n        /* \"#utility.yul\":7210:7228   */\n      dup3\n      add\n        /* \"#utility.yul\":7203:7263   */\n      mstore\n        /* \"#utility.yul\":7294:7296   */\n      0x40\n        /* \"#utility.yul\":7279:7297   */\n      dup2\n      add\n        /* \"#utility.yul\":7272:7306   */\n      swap2\n      swap1\n      swap2\n      mstore\n        /* \"#utility.yul\":7131:7133   */\n      0x60\n        /* \"#utility.yul\":7116:7134   */\n      add\n      swap1\n        /* \"#utility.yul\":6941:7312   */\n      jump\t// out\n        /* \"#utility.yul\":7596:7873   */\n    tag_203:\n        /* \"#utility.yul\":7663:7669   */\n      0x00\n        /* \"#utility.yul\":7716:7718   */\n      0x20\n        /* \"#utility.yul\":7704:7713   */\n      dup3\n        /* \"#utility.yul\":7695:7702   */\n      dup5\n        /* \"#utility.yul\":7691:7714   */\n      sub\n        /* \"#utility.yul\":7687:7719   */\n      slt\n        /* \"#utility.yul\":7684:7736   */\n      iszero\n      tag_619\n      jumpi\n        /* \"#utility.yul\":7732:7733   */\n      0x00\n        /* \"#utility.yul\":7729:7730   */\n      dup1\n        /* \"#utility.yul\":7722:7734   */\n      revert\n        /* \"#utility.yul\":7684:7736   */\n    tag_619:\n        /* \"#utility.yul\":7764:7773   */\n      dup2\n        /* \"#utility.yul\":7758:7774   */\n      mload\n        /* \"#utility.yul\":7817:7822   */\n      dup1\n        /* \"#utility.yul\":7810:7823   */\n      iszero\n        /* \"#utility.yul\":7803:7824   */\n      iszero\n        /* \"#utility.yul\":7796:7801   */\n      dup2\n        /* \"#utility.yul\":7793:7825   */\n      eq\n        /* \"#utility.yul\":7783:7843   */\n      tag_455\n      jumpi\n        /* \"#utility.yul\":7839:7840   */\n      0x00\n        /* \"#utility.yul\":7836:7837   */\n      dup1\n        /* \"#utility.yul\":7829:7841   */\n      revert\n        /* \"#utility.yul\":7878:8278   */\n    tag_230:\n        /* \"#utility.yul\":8080:8082   */\n      0x20\n        /* \"#utility.yul\":8062:8083   */\n      dup1\n      dup3\n      mstore\n        /* \"#utility.yul\":8119:8121   */\n      0x24\n        /* \"#utility.yul\":8099:8117   */\n      swap1\n      dup3\n      add\n        /* \"#utility.yul\":8092:8122   */\n      mstore\n        /* \"#utility.yul\":8158:8192   */\n      0x45544820616d6f756e74206d7573742062652067726561746572207468616e20\n        /* \"#utility.yul\":8153:8155   */\n      0x40\n        /* \"#utility.yul\":8138:8156   */\n      dup3\n      add\n        /* \"#utility.yul\":8131:8193   */\n      mstore\n      shl(0xe0, 0x7a65726f)\n        /* \"#utility.yul\":8224:8226   */\n      0x60\n        /* \"#utility.yul\":8209:8227   */\n      dup3\n      add\n        /* \"#utility.yul\":8202:8236   */\n      mstore\n        /* \"#utility.yul\":8268:8271   */\n      0x80\n        /* \"#utility.yul\":8253:8272   */\n      add\n      swap1\n        /* \"#utility.yul\":7878:8278   */\n      jump\t// out\n        /* \"#utility.yul\":8283:8534   */\n    tag_235:\n        /* \"#utility.yul\":8353:8359   */\n      0x00\n        /* \"#utility.yul\":8406:8408   */\n      0x20\n        /* \"#utility.yul\":8394:8403   */\n      dup3\n        /* \"#utility.yul\":8385:8392   */\n      dup5\n        /* \"#utility.yul\":8381:8404   */\n      sub\n        /* \"#utility.yul\":8377:8409   */\n      slt\n        /* \"#utility.yul\":8374:8426   */\n      iszero\n      tag_623\n      jumpi\n        /* \"#utility.yul\":8422:8423   */\n      0x00\n        /* \"#utility.yul\":8419:8420   */\n      dup1\n        /* \"#utility.yul\":8412:8424   */\n      revert\n        /* \"#utility.yul\":8374:8426   */\n    tag_623:\n        /* \"#utility.yul\":8454:8463   */\n      dup2\n        /* \"#utility.yul\":8448:8464   */\n      mload\n        /* \"#utility.yul\":8473:8504   */\n      tag_455\n        /* \"#utility.yul\":8498:8503   */\n      dup2\n        /* \"#utility.yul\":8473:8504   */\n      tag_562\n      jump\t// in\n        /* \"#utility.yul\":8893:9020   */\n    tag_564:\n        /* \"#utility.yul\":8954:8964   */\n      0x4e487b71\n        /* \"#utility.yul\":8949:8952   */\n      0xe0\n        /* \"#utility.yul\":8945:8965   */\n      shl\n        /* \"#utility.yul\":8942:8943   */\n      0x00\n        /* \"#utility.yul\":8935:8966   */\n      mstore\n        /* \"#utility.yul\":8985:8989   */\n      0x11\n        /* \"#utility.yul\":8982:8983   */\n      0x04\n        /* \"#utility.yul\":8975:8990   */\n      mstore\n        /* \"#utility.yul\":9009:9013   */\n      0x24\n        /* \"#utility.yul\":9006:9007   */\n      0x00\n        /* \"#utility.yul\":8999:9014   */\n      revert\n        /* \"#utility.yul\":9025:9153   */\n    tag_241:\n        /* \"#utility.yul\":9092:9101   */\n      dup2\n      dup2\n      sub\n        /* \"#utility.yul\":9113:9124   */\n      dup2\n      dup2\n      gt\n        /* \"#utility.yul\":9110:9147   */\n      iszero\n      tag_184\n      jumpi\n        /* \"#utility.yul\":9127:9145   */\n      tag_184\n      tag_564\n      jump\t// in\n        /* \"#utility.yul\":9158:9509   */\n    tag_245:\n        /* \"#utility.yul\":9360:9362   */\n      0x20\n        /* \"#utility.yul\":9342:9363   */\n      dup1\n      dup3\n      mstore\n        /* \"#utility.yul\":9399:9401   */\n      0x1b\n        /* \"#utility.yul\":9379:9397   */\n      swap1\n      dup3\n      add\n        /* \"#utility.yul\":9372:9402   */\n      mstore\n        /* \"#utility.yul\":9438:9467   */\n      0x536c69707061676520746f6c6572616e63652065786365656465640000000000\n        /* \"#utility.yul\":9433:9435   */\n      0x40\n        /* \"#utility.yul\":9418:9436   */\n      dup3\n      add\n        /* \"#utility.yul\":9411:9468   */\n      mstore\n        /* \"#utility.yul\":9500:9502   */\n      0x60\n        /* \"#utility.yul\":9485:9503   */\n      add\n      swap1\n        /* \"#utility.yul\":9158:9509   */\n      jump\t// out\n        /* \"#utility.yul\":9514:9860   */\n    tag_269:\n        /* \"#utility.yul\":9716:9718   */\n      0x20\n        /* \"#utility.yul\":9698:9719   */\n      dup1\n      dup3\n      mstore\n        /* \"#utility.yul\":9755:9757   */\n      0x16\n        /* \"#utility.yul\":9735:9753   */\n      swap1\n      dup3\n      add\n        /* \"#utility.yul\":9728:9758   */\n      mstore\n      shl(0x50, 0x496e73756666696369656e74206c6971756964697479)\n        /* \"#utility.yul\":9789:9791   */\n      0x40\n        /* \"#utility.yul\":9774:9792   */\n      dup3\n      add\n        /* \"#utility.yul\":9767:9819   */\n      mstore\n        /* \"#utility.yul\":9851:9853   */\n      0x60\n        /* \"#utility.yul\":9836:9854   */\n      add\n      swap1\n        /* \"#utility.yul\":9514:9860   */\n      jump\t// out\n        /* \"#utility.yul\":9865:9990   */\n    tag_274:\n        /* \"#utility.yul\":9930:9939   */\n      dup1\n      dup3\n      add\n        /* \"#utility.yul\":9951:9961   */\n      dup1\n      dup3\n      gt\n        /* \"#utility.yul\":9948:9984   */\n      iszero\n      tag_184\n      jumpi\n        /* \"#utility.yul\":9964:9982   */\n      tag_184\n      tag_564\n      jump\t// in\n        /* \"#utility.yul\":9995:10397   */\n    tag_290:\n        /* \"#utility.yul\":10197:10199   */\n      0x20\n        /* \"#utility.yul\":10179:10200   */\n      dup1\n      dup3\n      mstore\n        /* \"#utility.yul\":10236:10238   */\n      0x26\n        /* \"#utility.yul\":10216:10234   */\n      swap1\n      dup3\n      add\n        /* \"#utility.yul\":10209:10239   */\n      mstore\n        /* \"#utility.yul\":10275:10309   */\n      0x546f6b656e20616d6f756e74206d757374206265206772656174657220746861\n        /* \"#utility.yul\":10270:10272   */\n      0x40\n        /* \"#utility.yul\":10255:10273   */\n      dup3\n      add\n        /* \"#utility.yul\":10248:10310   */\n      mstore\n      shl(0xd0, 0x6e207a65726f)\n        /* \"#utility.yul\":10341:10343   */\n      0x60\n        /* \"#utility.yul\":10326:10344   */\n      dup3\n      add\n        /* \"#utility.yul\":10319:10355   */\n      mstore\n        /* \"#utility.yul\":10387:10390   */\n      0x80\n        /* \"#utility.yul\":10372:10391   */\n      add\n      swap1\n        /* \"#utility.yul\":9995:10397   */\n      jump\t// out\n        /* \"#utility.yul\":10749:10917   */\n    tag_304:\n        /* \"#utility.yul\":10822:10831   */\n      dup1\n      dup3\n      mul\n        /* \"#utility.yul\":10853:10862   */\n      dup2\n      iszero\n        /* \"#utility.yul\":10870:10885   */\n      dup3\n      dup3\n      div\n        /* \"#utility.yul\":10864:10886   */\n      dup5\n      eq\n        /* \"#utility.yul\":10850:10887   */\n      or\n        /* \"#utility.yul\":10840:10911   */\n      tag_184\n      jumpi\n        /* \"#utility.yul\":10891:10909   */\n      tag_184\n      tag_564\n      jump\t// in\n        /* \"#utility.yul\":10922:11139   */\n    tag_306:\n        /* \"#utility.yul\":10962:10963   */\n      0x00\n        /* \"#utility.yul\":10988:10989   */\n      dup3\n        /* \"#utility.yul\":10978:11110   */\n      tag_641\n      jumpi\n        /* \"#utility.yul\":11032:11042   */\n      0x4e487b71\n        /* \"#utility.yul\":11027:11030   */\n      0xe0\n        /* \"#utility.yul\":11023:11043   */\n      shl\n        /* \"#utility.yul\":11020:11021   */\n      0x00\n        /* \"#utility.yul\":11013:11044   */\n      mstore\n        /* \"#utility.yul\":11067:11071   */\n      0x12\n        /* \"#utility.yul\":11064:11065   */\n      0x04\n        /* \"#utility.yul\":11057:11072   */\n      mstore\n        /* \"#utility.yul\":11095:11099   */\n      0x24\n        /* \"#utility.yul\":11092:11093   */\n      0x00\n        /* \"#utility.yul\":11085:11100   */\n      revert\n        /* \"#utility.yul\":10978:11110   */\n    tag_641:\n      pop\n        /* \"#utility.yul\":11124:11133   */\n      div\n      swap1\n        /* \"#utility.yul\":10922:11139   */\n      jump\t// out\n        /* \"#utility.yul\":12612:12796   */\n    tag_473:\n        /* \"#utility.yul\":12682:12688   */\n      0x00\n        /* \"#utility.yul\":12735:12737   */\n      0x20\n        /* \"#utility.yul\":12723:12732   */\n      dup3\n        /* \"#utility.yul\":12714:12721   */\n      dup5\n        /* \"#utility.yul\":12710:12733   */\n      sub\n        /* \"#utility.yul\":12706:12738   */\n      slt\n        /* \"#utility.yul\":12703:12755   */\n      iszero\n      tag_648\n      jumpi\n        /* \"#utility.yul\":12751:12752   */\n      0x00\n        /* \"#utility.yul\":12748:12749   */\n      dup1\n        /* \"#utility.yul\":12741:12753   */\n      revert\n        /* \"#utility.yul\":12703:12755   */\n    tag_648:\n      pop\n        /* \"#utility.yul\":12774:12790   */\n      mload\n      swap2\n        /* \"#utility.yul\":12612:12796   */\n      swap1\n      pop\n      jump\t// out\n        /* \"#utility.yul\":13080:13381   */\n    tag_541:\n        /* \"#utility.yul\":13209:13212   */\n      0x00\n        /* \"#utility.yul\":13247:13253   */\n      dup3\n        /* \"#utility.yul\":13241:13254   */\n      mload\n        /* \"#utility.yul\":13293:13299   */\n      dup1\n        /* \"#utility.yul\":13286:13290   */\n      0x20\n        /* \"#utility.yul\":13278:13284   */\n      dup6\n        /* \"#utility.yul\":13274:13291   */\n      add\n        /* \"#utility.yul\":13269:13272   */\n      dup5\n        /* \"#utility.yul\":13263:13300   */\n      mcopy\n        /* \"#utility.yul\":13355:13356   */\n      0x00\n        /* \"#utility.yul\":13319:13335   */\n      swap3\n      add\n        /* \"#utility.yul\":13344:13357   */\n      swap2\n      dup3\n      mstore\n      pop\n        /* \"#utility.yul\":13319:13335   */\n      swap2\n        /* \"#utility.yul\":13080:13381   */\n      swap1\n      pop\n      jump\t// out\n    stop\n    data_75b20eef8615de99c108b05f0dbda081c91897128caa336d75dffb97c4132b4d 360894a13ba1a3210667c828492db98dca3e2076cc3735a920a3ca505d382bbc\n    data_9b87106a812d214d41ad9b68a21119e2948eaaf1040375c939ec808b8862455c 65d7a28e3265b37a6474929f336521b332c1681b933f6cb9f3376673440d862a\n    data_b3da67d1b252aeab7c8063542d95e75f82a5307a82535949bc38f7cf7ba8897f 02dd7bc7dec4dceedda775e58dd541e08a116c6c53815c0bd028192f7b626800\n    data_c0c65a3718f3702d917c44106b91645b509d2e2d0979b70495c3babce192339f cd5ed15c6e187e77e9aee88184c21f4f2182ab5827cb3b7e07fbedcd63f03300\n\n    auxdata: 0xa26469706673582212203f75604ee134227bbe63f608679c24b94c9ec4a391e502a1d117559bb5f0f07264736f6c634300081a0033\n}\n",
				"bytecode": {
					"linkReferences": {},
					"object": "60a060405230608052348015610013575f80fd5b5061001c610021565b6100d3565b7ff0c57e16840df040f15088dc2f81fe391c3923bec73e23a9662efc9c229c6a00805468010000000000000000900460ff16156100715760405163f92ee8a960e01b815260040160405180910390fd5b80546001600160401b03908116146100d05780546001600160401b0319166001600160401b0390811782556040519081527fc7f505b2f371ae2175ee4913f4499e1f2633a7b5936321eed1cdaeb6115181d29060200160405180910390a15b50565b6080516122a06100f95f395f8181611893015281816118bc0152611a1d01526122a05ff3fe6080604052600436106101d0575f3560e01c806356688700116100fd578063cc2a9a5b11610092578063e15cc8da11610062578063e15cc8da1461056d578063e63ab1e91461058c578063f14210a6146105ac578063f72c0d8b146105cb575f80fd5b8063cc2a9a5b146104f1578063d547741f14610510578063d9a37ad21461052f578063da0696831461054e575f80fd5b8063a201ccf6116100cd578063a201ccf61461044e578063a217fddf14610482578063ad3cb1cc14610495578063c7088313146104d2575f80fd5b806356688700146103e55780635c975abb146103f85780638456cb591461041b57806391d148541461042f575f80fd5b80632f2ff15d1161017357806349f0346e1161014357806349f0346e146103985780634f1ef286146103ab57806351422e97146103be57806352d1902d146103d1575f80fd5b80632f2ff15d1461031057806334aab0641461032f57806336568abe146103655780633f4ba83a14610384575f80fd5b80630b0fd47e116101ae5780630b0fd47e14610248578063242f05511461029c578063248a9ca3146102dd5780632d11c58a146102fc575f80fd5b806301ffc9a7146101d4578063023245d71461020857806306b091f914610229575b5f80fd5b3480156101df575f80fd5b506101f36101ee366004611d5a565b6105fe565b60405190151581526020015b60405180910390f35b348015610213575f80fd5b50610227610222366004611d81565b610634565b005b348015610234575f80fd5b50610227610243366004611dac565b6106a3565b348015610253575f80fd5b50610281610262366004611dd6565b600260208190525f918252604090912080546001820154919092015483565b604080519384526020840192909252908201526060016101ff565b3480156102a7575f80fd5b506102cf7f77e60b99a50d27fb027f6912a507d956105b4148adab27a86d235c8bcca8fa2f81565b6040519081526020016101ff565b3480156102e8575f80fd5b506102cf6102f7366004611d81565b610721565b348015610307575f80fd5b506102cf600381565b34801561031b575f80fd5b5061022761032a366004611df1565b610741565b34801561033a575f80fd5b505f5461034d906001600160a01b031681565b6040516001600160a01b0390911681526020016101ff565b348015610370575f80fd5b5061022761037f366004611df1565b61075d565b34801561038f575f80fd5b50610227610795565b6102276103a6366004611e1f565b6107b7565b6102276103b9366004611e53565b6109b8565b6102276103cc366004611dac565b6109d7565b3480156103dc575f80fd5b506102cf610b63565b6102cf6103f3366004611dac565b610b7e565b348015610403575f80fd5b505f8051602061224b8339815191525460ff166101f3565b348015610426575f80fd5b50610227610e14565b34801561043a575f80fd5b506101f3610449366004611df1565b610e33565b348015610459575f80fd5b5061046d610468366004611dac565b610e69565b604080519283526020830191909152016101ff565b34801561048d575f80fd5b506102cf5f81565b3480156104a0575f80fd5b506104c5604051806040016040528060058152602001640352e302e360dc1b81525081565b6040516101ff9190611f19565b3480156104dd575f80fd5b506102276104ec366004611f4e565b611059565b3480156104fc575f80fd5b5061022761050b366004611f80565b6110a5565b34801561051b575f80fd5b5061022761052a366004611df1565b61126f565b34801561053a575f80fd5b50610227610549366004611e1f565b61128b565b348015610559575f80fd5b5060015461034d906001600160a01b031681565b348015610578575f80fd5b50610227610587366004611f4e565b611443565b348015610597575f80fd5b506102cf5f8051602061220b83398151915281565b3480156105b7575f80fd5b506102276105c6366004611d81565b6115ff565b3480156105d6575f80fd5b506102cf7f189ab7a9244df0848122154315af71fe140f3db0fe014031783b0946b8c9d2e381565b5f6001600160e01b03198216637965db0b60e01b148061062e57506301ffc9a760e01b6001600160e01b03198316145b92915050565b5f61063e8161167a565b600154604051632142170760e11b81526001600160a01b03909116906342842e0e9061067290309033908790600401611ffe565b5f604051808303815f87803b158015610689575f80fd5b505af115801561069b573d5f803e3d5ffd5b505050505050565b5f6106ad8161167a565b60405163a9059cbb60e01b8152336004820152602481018390526001600160a01b0384169063a9059cbb906044016020604051808303815f875af11580156106f7573d5f803e3d5ffd5b505050506040513d601f19601f8201168201806040525081019061071b9190612022565b50505050565b5f9081525f8051602061222b833981519152602052604090206001015490565b61074a82610721565b6107538161167a565b61071b8383611684565b6001600160a01b03811633146107865760405163334bd91960e11b815260040160405180910390fd5b6107908282611725565b505050565b5f8051602061220b8339815191526107ac8161167a565b6107b461179e565b50565b6107bf6117fd565b5f34116107e75760405162461bcd60e51b81526004016107de90612041565b60405180910390fd5b6001546040516331a9108f60e11b81526004810184905230916001600160a01b031690636352211e90602401602060405180830381865afa15801561082e573d5f803e3d5ffd5b505050506040513d601f19601f820116820180604052508101906108529190612085565b6001600160a01b0316146108a85760405162461bcd60e51b815260206004820152601960248201527f4e4654206e6f74206f776e656420627920636f6e74726163740000000000000060448201526064016107de565b5f6108be346108b781476120b4565b600161182f565b9050818110156108e05760405162461bcd60e51b81526004016107de906120c7565b604051339082156108fc029083905f818181858888f1935050505015801561090a573d5f803e3d5ffd5b50600154604051632142170760e11b81526001600160a01b03909116906342842e0e9061093f90309033908890600401611ffe565b5f604051808303815f87803b158015610956575f80fd5b505af1158015610968573d5f803e3d5ffd5b50506001546040518481528693506001600160a01b03909116915033907f9181665db8d8d5fcce186f7b2cfebe8fbcdc3a003664bbfce2e790f57b076e65906020015b60405180910390a4505050565b6109c0611888565b6109c98261192c565b6109d38282611956565b5050565b6109df6117fd565b5f34116109fe5760405162461bcd60e51b81526004016107de90612041565b6001600160a01b0382165f908152600260205260409020600181015415801590610a285750805415155b610a445760405162461bcd60e51b81526004016107de906120fe565b5f610a57348360010154845f015461182f565b905082811015610a795760405162461bcd60e51b81526004016107de906120c7565b34826001015f828254610a8c919061212e565b90915550508154819083905f90610aa49084906120b4565b909155505060405163a9059cbb60e01b8152336004820152602481018290526001600160a01b0385169063a9059cbb906044016020604051808303815f875af1158015610af3573d5f803e3d5ffd5b505050506040513d601f19601f82011682018060405250810190610b179190612022565b50604080518281523460208201526001600160a01b0386169133917f30b60ee4dc75c0fb04420331b13e9ad7f8ff8fc51eac9c97d36fb20ccbe09d66910160405180910390a350505050565b5f610b6c611a12565b505f805160206121eb83398151915290565b5f610b876117fd565b5f8211610ba65760405162461bcd60e51b81526004016107de90612141565b5f3411610bc55760405162461bcd60e51b81526004016107de90612041565b6040516323b872dd60e01b81526001600160a01b038416906323b872dd90610bf590339030908790600401611ffe565b6020604051808303815f875af1158015610c11573d5f803e3d5ffd5b505050506040513d601f19601f82011682018060405250810190610c359190612022565b506001600160a01b0383165f9081526002602081905260408220908101549091908103610c6c575082815534600182015582610d82565b5f8260010154118015610c7f5750815415155b610cc05760405162461bcd60e51b8152602060048201526012602482015271496e76616c696420706f6f6c20737461746560701b60448201526064016107de565b5f825f0154858460010154610cd59190612187565b610cdf919061219e565b905080341015610d315760405162461bcd60e51b815260206004820152601760248201527f496e73756666696369656e742045544820616d6f756e7400000000000000000060448201526064016107de565b84835f015f828254610d43919061212e565b9250508190555034836001015f828254610d5d919061212e565b909155505082546002840154610d74908790612187565b610d7e919061219e565b9150505b80826002015f828254610d95919061212e565b9091555050335f90815260038301602052604081208054839290610dba90849061212e565b9091555050604080518581523460208201529081018290526001600160a01b0386169033907f4a1a2a6176e9646d9e3157f7c2ab3c499f18337c0b0828cfb28e0a61de4a11f79060600160405180910390a3949350505050565b5f8051602061220b833981519152610e2b8161167a565b6107b4611a5b565b5f9182525f8051602061222b833981519152602090815260408084206001600160a01b0393909316845291905290205460ff1690565b5f80610e736117fd565b6001600160a01b0384165f9081526002602090815260408083203384526003810190925290912054841115610eba5760405162461bcd60e51b81526004016107de906120fe565b60028101548154610ecc908690612187565b610ed6919061219e565b92508060020154848260010154610eed9190612187565b610ef7919061219e565b915082815f015f828254610f0b91906120b4565b9250508190555081816001015f828254610f2591906120b4565b9250508190555083816002015f828254610f3f91906120b4565b9091555050335f90815260038201602052604081208054869290610f649084906120b4565b909155505060405163a9059cbb60e01b8152336004820152602481018490526001600160a01b0386169063a9059cbb906044016020604051808303815f875af1158015610fb3573d5f803e3d5ffd5b505050506040513d601f19601f82011682018060405250810190610fd79190612022565b50604051339083156108fc029084905f818181858888f19350505050158015611002573d5f803e3d5ffd5b5060408051848152602081018490529081018590526001600160a01b0386169033907fbc7d19d505c7ec4db83f3b51f19fb98c4c8a99922e7839d1ee608dfbee29501b9060600160405180910390a3509250929050565b7f77e60b99a50d27fb027f6912a507d956105b4148adab27a86d235c8bcca8fa2f6110838161167a565b506001600160a01b039092165f90815260026020526040902090815560010155565b7ff0c57e16840df040f15088dc2f81fe391c3923bec73e23a9662efc9c229c6a008054600160401b810460ff16159067ffffffffffffffff165f811580156110ea5750825b90505f8267ffffffffffffffff1660011480156111065750303b155b905081158015611114575080155b156111325760405163f92ee8a960e01b815260040160405180910390fd5b845467ffffffffffffffff19166001178555831561115c57845460ff60401b1916600160401b1785555b611164611aa3565b61116c611ab3565b611174611ab3565b61117e5f8c611684565b506111965f8051602061220b8339815191528b611684565b506111c17f189ab7a9244df0848122154315af71fe140f3db0fe014031783b0946b8c9d2e38a611684565b506111ec7f77e60b99a50d27fb027f6912a507d956105b4148adab27a86d235c8bcca8fa2f89611684565b505f80546001600160a01b03808a166001600160a01b0319928316179092556001805492891692909116919091179055831561126257845460ff60401b19168555604051600181527fc7f505b2f371ae2175ee4913f4499e1f2633a7b5936321eed1cdaeb6115181d29060200160405180910390a15b5050505050505050505050565b61127882610721565b6112818161167a565b61071b8383611725565b6112936117fd565b6001546040516331a9108f60e11b81526004810184905233916001600160a01b031690636352211e90602401602060405180830381865afa1580156112da573d5f803e3d5ffd5b505050506040513d601f19601f820116820180604052508101906112fe9190612085565b6001600160a01b0316146113475760405162461bcd60e51b815260206004820152601060248201526f139bdd081bdddb995c881bd98813919560821b60448201526064016107de565b5f6113546001804761182f565b9050818110156113765760405162461bcd60e51b81526004016107de906120c7565b600154604051632142170760e11b81526001600160a01b03909116906342842e0e906113aa90339030908890600401611ffe565b5f604051808303815f87803b1580156113c1575f80fd5b505af11580156113d3573d5f803e3d5ffd5b505060405133925083156108fc02915083905f818181858888f19350505050158015611401573d5f803e3d5ffd5b5060015460405182815284916001600160a01b03169033907f9181665db8d8d5fcce186f7b2cfebe8fbcdc3a003664bbfce2e790f57b076e65906020016109ab565b61144b6117fd565b5f821161146a5760405162461bcd60e51b81526004016107de90612141565b6001600160a01b0383165f9081526002602052604090206001810154158015906114945750805415155b6114b05760405162461bcd60e51b81526004016107de906120fe565b5f6114c384835f0154846001015461182f565b9050828110156114e55760405162461bcd60e51b81526004016107de906120c7565b83825f015f8282546114f7919061212e565b9250508190555080826001015f82825461151191906120b4565b90915550506040516323b872dd60e01b81526001600160a01b038616906323b872dd9061154690339030908990600401611ffe565b6020604051808303815f875af1158015611562573d5f803e3d5ffd5b505050506040513d601f19601f820116820180604052508101906115869190612022565b50604051339082156108fc029083905f818181858888f193505050501580156115b1573d5f803e3d5ffd5b5060408051858152602081018390526001600160a01b0387169133917f30b60ee4dc75c0fb04420331b13e9ad7f8ff8fc51eac9c97d36fb20ccbe09d66910160405180910390a35050505050565b5f6116098161167a565b814710156116505760405162461bcd60e51b8152602060048201526014602482015273496e73756666696369656e742062616c616e636560601b60448201526064016107de565b604051339083156108fc029084905f818181858888f19350505050158015610790573d5f803e3d5ffd5b6107b48133611abb565b5f5f8051602061222b83398151915261169d8484610e33565b61171c575f848152602082815260408083206001600160a01b03871684529091529020805460ff191660011790556116d23390565b6001600160a01b0316836001600160a01b0316857f2f8788117e7eff1d82e926ec794901d17c78024a50270940304540a733656f0d60405160405180910390a4600191505061062e565b5f91505061062e565b5f5f8051602061222b83398151915261173e8484610e33565b1561171c575f848152602082815260408083206001600160a01b0387168085529252808320805460ff1916905551339287917ff6391f5c32d9c69d2a47ea670b442974b53935d1edc7fd64eb21e047a839171b9190a4600191505061062e565b6117a6611af4565b5f8051602061224b833981519152805460ff191681557f5db9ee0a495bf2e6ff9c91a7834c1ba4fdd244a5e8aa4e537bd38aeae4b073aa335b6040516001600160a01b03909116815260200160405180910390a150565b5f8051602061224b8339815191525460ff161561182d5760405163d93c066560e01b815260040160405180910390fd5b565b5f8061183e60036103e86120b4565b6118489086612187565b90505f6118558483612187565b90505f82611865876103e8612187565b61186f919061212e565b905061187b818361219e565b93505050505b9392505050565b306001600160a01b037f000000000000000000000000000000000000000000000000000000000000000016148061190e57507f00000000000000000000000000000000000000000000000000000000000000006001600160a01b03166119025f805160206121eb833981519152546001600160a01b031690565b6001600160a01b031614155b1561182d5760405163703e46dd60e11b815260040160405180910390fd5b7f189ab7a9244df0848122154315af71fe140f3db0fe014031783b0946b8c9d2e36109d38161167a565b816001600160a01b03166352d1902d6040518163ffffffff1660e01b8152600401602060405180830381865afa9250505080156119b0575060408051601f3d908101601f191682019092526119ad918101906121bd565b60015b6119d857604051634c9c8ce360e01b81526001600160a01b03831660048201526024016107de565b5f805160206121eb8339815191528114611a0857604051632a87526960e21b8152600481018290526024016107de565b6107908383611b23565b306001600160a01b037f0000000000000000000000000000000000000000000000000000000000000000161461182d5760405163703e46dd60e11b815260040160405180910390fd5b611a636117fd565b5f8051602061224b833981519152805460ff191660011781557f62e78cea01bee320cd4e420270b5ea74000d11b0c9f74754ebdbfc544b05a258336117df565b611aab611b78565b61182d611bc1565b61182d611b78565b611ac58282610e33565b6109d35760405163e2517d3f60e01b81526001600160a01b0382166004820152602481018390526044016107de565b5f8051602061224b8339815191525460ff1661182d57604051638dfc202b60e01b815260040160405180910390fd5b611b2c82611be1565b6040516001600160a01b038316907fbc7cd75a20ee27fd9adebab32041f755214dbc6bffa90cc0225b39da2e5c2d3b905f90a2805115611b70576107908282611c44565b6109d3611cb6565b7ff0c57e16840df040f15088dc2f81fe391c3923bec73e23a9662efc9c229c6a0054600160401b900460ff1661182d57604051631afcd79f60e31b815260040160405180910390fd5b611bc9611b78565b5f8051602061224b833981519152805460ff19169055565b806001600160a01b03163b5f03611c1657604051634c9c8ce360e01b81526001600160a01b03821660048201526024016107de565b5f805160206121eb83398151915280546001600160a01b0319166001600160a01b0392909216919091179055565b60605f80846001600160a01b031684604051611c6091906121d4565b5f60405180830381855af49150503d805f8114611c98576040519150601f19603f3d011682016040523d82523d5f602084013e611c9d565b606091505b5091509150611cad858383611cd5565b95945050505050565b341561182d5760405163b398979f60e01b815260040160405180910390fd5b606082611cea57611ce582611d31565b611881565b8151158015611d0157506001600160a01b0384163b155b15611d2a57604051639996b31560e01b81526001600160a01b03851660048201526024016107de565b5080611881565b805115611d415780518082602001fd5b604051630a12f52160e11b815260040160405180910390fd5b5f60208284031215611d6a575f80fd5b81356001600160e01b031981168114611881575f80fd5b5f60208284031215611d91575f80fd5b5035919050565b6001600160a01b03811681146107b4575f80fd5b5f8060408385031215611dbd575f80fd5b8235611dc881611d98565b946020939093013593505050565b5f60208284031215611de6575f80fd5b813561188181611d98565b5f8060408385031215611e02575f80fd5b823591506020830135611e1481611d98565b809150509250929050565b5f8060408385031215611e30575f80fd5b50508035926020909101359150565b634e487b7160e01b5f52604160045260245ffd5b5f8060408385031215611e64575f80fd5b8235611e6f81611d98565b9150602083013567ffffffffffffffff811115611e8a575f80fd5b8301601f81018513611e9a575f80fd5b803567ffffffffffffffff811115611eb457611eb4611e3f565b604051601f8201601f19908116603f0116810167ffffffffffffffff81118282101715611ee357611ee3611e3f565b604052818152828201602001871015611efa575f80fd5b816020840160208301375f602083830101528093505050509250929050565b602081525f82518060208401528060208501604085015e5f604082850101526040601f19601f83011684010191505092915050565b5f805f60608486031215611f60575f80fd5b8335611f6b81611d98565b95602085013595506040909401359392505050565b5f805f805f8060c08789031215611f95575f80fd5b8635611fa081611d98565b95506020870135611fb081611d98565b94506040870135611fc081611d98565b93506060870135611fd081611d98565b92506080870135611fe081611d98565b915060a0870135611ff081611d98565b809150509295509295509295565b6001600160a01b039384168152919092166020820152604081019190915260600190565b5f60208284031215612032575f80fd5b81518015158114611881575f80fd5b60208082526024908201527f45544820616d6f756e74206d7573742062652067726561746572207468616e206040820152637a65726f60e01b606082015260800190565b5f60208284031215612095575f80fd5b815161188181611d98565b634e487b7160e01b5f52601160045260245ffd5b8181038181111561062e5761062e6120a0565b6020808252601b908201527f536c69707061676520746f6c6572616e63652065786365656465640000000000604082015260600190565b602080825260169082015275496e73756666696369656e74206c697175696469747960501b604082015260600190565b8082018082111561062e5761062e6120a0565b60208082526026908201527f546f6b656e20616d6f756e74206d7573742062652067726561746572207468616040820152656e207a65726f60d01b606082015260800190565b808202811582820484141761062e5761062e6120a0565b5f826121b857634e487b7160e01b5f52601260045260245ffd5b500490565b5f602082840312156121cd575f80fd5b5051919050565b5f82518060208501845e5f92019182525091905056fe360894a13ba1a3210667c828492db98dca3e2076cc3735a920a3ca505d382bbc65d7a28e3265b37a6474929f336521b332c1681b933f6cb9f3376673440d862a02dd7bc7dec4dceedda775e58dd541e08a116c6c53815c0bd028192f7b626800cd5ed15c6e187e77e9aee88184c21f4f2182ab5827cb3b7e07fbedcd63f03300a26469706673582212203f75604ee134227bbe63f608679c24b94c9ec4a391e502a1d117559bb5f0f07264736f6c634300081a0033",
					"opcodes": "PUSH1 0xA0 PUSH1 0x40 MSTORE ADDRESS PUSH1 0x80 MSTORE CALLVALUE DUP1 ISZERO PUSH2 0x13 JUMPI PUSH0 DUP1 REVERT JUMPDEST POP PUSH2 0x1C PUSH2 0x21 JUMP JUMPDEST PUSH2 0xD3 JUMP JUMPDEST PUSH32 0xF0C57E16840DF040F15088DC2F81FE391C3923BEC73E23A9662EFC9C229C6A00 DUP1 SLOAD PUSH9 0x10000000000000000 SWAP1 DIV PUSH1 0xFF AND ISZERO PUSH2 0x71 JUMPI PUSH1 0x40 MLOAD PUSH4 0xF92EE8A9 PUSH1 0xE0 SHL DUP2 MSTORE PUSH1 0x4 ADD PUSH1 0x40 MLOAD DUP1 SWAP2 SUB SWAP1 REVERT JUMPDEST DUP1 SLOAD PUSH1 0x1 PUSH1 0x1 PUSH1 0x40 SHL SUB SWAP1 DUP2 AND EQ PUSH2 0xD0 JUMPI DUP1 SLOAD PUSH1 0x1 PUSH1 0x1 PUSH1 0x40 SHL SUB NOT AND PUSH1 0x1 PUSH1 0x1 PUSH1 0x40 SHL SUB SWAP1 DUP2 OR DUP3 SSTORE PUSH1 0x40 MLOAD SWAP1 DUP2 MSTORE PUSH32 0xC7F505B2F371AE2175EE4913F4499E1F2633A7B5936321EED1CDAEB6115181D2 SWAP1 PUSH1 0x20 ADD PUSH1 0x40 MLOAD DUP1 SWAP2 SUB SWAP1 LOG1 JUMPDEST POP JUMP JUMPDEST PUSH1 0x80 MLOAD PUSH2 0x22A0 PUSH2 0xF9 PUSH0 CODECOPY PUSH0 DUP2 DUP2 PUSH2 0x1893 ADD MSTORE DUP2 DUP2 PUSH2 0x18BC ADD MSTORE PUSH2 0x1A1D ADD MSTORE PUSH2 0x22A0 PUSH0 RETURN INVALID PUSH1 0x80 PUSH1 0x40 MSTORE PUSH1 0x4 CALLDATASIZE LT PUSH2 0x1D0 JUMPI PUSH0 CALLDATALOAD PUSH1 0xE0 SHR DUP1 PUSH4 0x56688700 GT PUSH2 0xFD JUMPI DUP1 PUSH4 0xCC2A9A5B GT PUSH2 0x92 JUMPI DUP1 PUSH4 0xE15CC8DA GT PUSH2 0x62 JUMPI DUP1 PUSH4 0xE15CC8DA EQ PUSH2 0x56D JUMPI DUP1 PUSH4 0xE63AB1E9 EQ PUSH2 0x58C JUMPI DUP1 PUSH4 0xF14210A6 EQ PUSH2 0x5AC JUMPI DUP1 PUSH4 0xF72C0D8B EQ PUSH2 0x5CB JUMPI PUSH0 DUP1 REVERT JUMPDEST DUP1 PUSH4 0xCC2A9A5B EQ PUSH2 0x4F1 JUMPI DUP1 PUSH4 0xD547741F EQ PUSH2 0x510 JUMPI DUP1 PUSH4 0xD9A37AD2 EQ PUSH2 0x52F JUMPI DUP1 PUSH4 0xDA069683 EQ PUSH2 0x54E JUMPI PUSH0 DUP1 REVERT JUMPDEST DUP1 PUSH4 0xA201CCF6 GT PUSH2 0xCD JUMPI DUP1 PUSH4 0xA201CCF6 EQ PUSH2 0x44E JUMPI DUP1 PUSH4 0xA217FDDF EQ PUSH2 0x482 JUMPI DUP1 PUSH4 0xAD3CB1CC EQ PUSH2 0x495 JUMPI DUP1 PUSH4 0xC7088313 EQ PUSH2 0x4D2 JUMPI PUSH0 DUP1 REVERT JUMPDEST DUP1 PUSH4 0x56688700 EQ PUSH2 0x3E5 JUMPI DUP1 PUSH4 0x5C975ABB EQ PUSH2 0x3F8 JUMPI DUP1 PUSH4 0x8456CB59 EQ PUSH2 0x41B JUMPI DUP1 PUSH4 0x91D14854 EQ PUSH2 0x42F JUMPI PUSH0 DUP1 REVERT JUMPDEST DUP1 PUSH4 0x2F2FF15D GT PUSH2 0x173 JUMPI DUP1 PUSH4 0x49F0346E GT PUSH2 0x143 JUMPI DUP1 PUSH4 0x49F0346E EQ PUSH2 0x398 JUMPI DUP1 PUSH4 0x4F1EF286 EQ PUSH2 0x3AB JUMPI DUP1 PUSH4 0x51422E97 EQ PUSH2 0x3BE JUMPI DUP1 PUSH4 0x52D1902D EQ PUSH2 0x3D1 JUMPI PUSH0 DUP1 REVERT JUMPDEST DUP1 PUSH4 0x2F2FF15D EQ PUSH2 0x310 JUMPI DUP1 PUSH4 0x34AAB064 EQ PUSH2 0x32F JUMPI DUP1 PUSH4 0x36568ABE EQ PUSH2 0x365 JUMPI DUP1 PUSH4 0x3F4BA83A EQ PUSH2 0x384 JUMPI PUSH0 DUP1 REVERT JUMPDEST DUP1 PUSH4 0xB0FD47E GT PUSH2 0x1AE JUMPI DUP1 PUSH4 0xB0FD47E EQ PUSH2 0x248 JUMPI DUP1 PUSH4 0x242F0551 EQ PUSH2 0x29C JUMPI DUP1 PUSH4 0x248A9CA3 EQ PUSH2 0x2DD JUMPI DUP1 PUSH4 0x2D11C58A EQ PUSH2 0x2FC JUMPI PUSH0 DUP1 REVERT JUMPDEST DUP1 PUSH4 0x1FFC9A7 EQ PUSH2 0x1D4 JUMPI DUP1 PUSH4 0x23245D7 EQ PUSH2 0x208 JUMPI DUP1 PUSH4 0x6B091F9 EQ PUSH2 0x229 JUMPI JUMPDEST PUSH0 DUP1 REVERT JUMPDEST CALLVALUE DUP1 ISZERO PUSH2 0x1DF JUMPI PUSH0 DUP1 REVERT JUMPDEST POP PUSH2 0x1F3 PUSH2 0x1EE CALLDATASIZE PUSH1 0x4 PUSH2 0x1D5A JUMP JUMPDEST PUSH2 0x5FE JUMP JUMPDEST PUSH1 0x40 MLOAD SWAP1 ISZERO ISZERO DUP2 MSTORE PUSH1 0x20 ADD JUMPDEST PUSH1 0x40 MLOAD DUP1 SWAP2 SUB SWAP1 RETURN JUMPDEST CALLVALUE DUP1 ISZERO PUSH2 0x213 JUMPI PUSH0 DUP1 REVERT JUMPDEST POP PUSH2 0x227 PUSH2 0x222 CALLDATASIZE PUSH1 0x4 PUSH2 0x1D81 JUMP JUMPDEST PUSH2 0x634 JUMP JUMPDEST STOP JUMPDEST CALLVALUE DUP1 ISZERO PUSH2 0x234 JUMPI PUSH0 DUP1 REVERT JUMPDEST POP PUSH2 0x227 PUSH2 0x243 CALLDATASIZE PUSH1 0x4 PUSH2 0x1DAC JUMP JUMPDEST PUSH2 0x6A3 JUMP JUMPDEST CALLVALUE DUP1 ISZERO PUSH2 0x253 JUMPI PUSH0 DUP1 REVERT JUMPDEST POP PUSH2 0x281 PUSH2 0x262 CALLDATASIZE PUSH1 0x4 PUSH2 0x1DD6 JUMP JUMPDEST PUSH1 0x2 PUSH1 0x20 DUP2 SWAP1 MSTORE PUSH0 SWAP2 DUP3 MSTORE PUSH1 0x40 SWAP1 SWAP2 KECCAK256 DUP1 SLOAD PUSH1 0x1 DUP3 ADD SLOAD SWAP2 SWAP1 SWAP3 ADD SLOAD DUP4 JUMP JUMPDEST PUSH1 0x40 DUP1 MLOAD SWAP4 DUP5 MSTORE PUSH1 0x20 DUP5 ADD SWAP3 SWAP1 SWAP3 MSTORE SWAP1 DUP3 ADD MSTORE PUSH1 0x60 ADD PUSH2 0x1FF JUMP JUMPDEST CALLVALUE DUP1 ISZERO PUSH2 0x2A7 JUMPI PUSH0 DUP1 REVERT JUMPDEST POP PUSH2 0x2CF PUSH32 0x77E60B99A50D27FB027F6912A507D956105B4148ADAB27A86D235C8BCCA8FA2F DUP2 JUMP JUMPDEST PUSH1 0x40 MLOAD SWAP1 DUP2 MSTORE PUSH1 0x20 ADD PUSH2 0x1FF JUMP JUMPDEST CALLVALUE DUP1 ISZERO PUSH2 0x2E8 JUMPI PUSH0 DUP1 REVERT JUMPDEST POP PUSH2 0x2CF PUSH2 0x2F7 CALLDATASIZE PUSH1 0x4 PUSH2 0x1D81 JUMP JUMPDEST PUSH2 0x721 JUMP JUMPDEST CALLVALUE DUP1 ISZERO PUSH2 0x307 JUMPI PUSH0 DUP1 REVERT JUMPDEST POP PUSH2 0x2CF PUSH1 0x3 DUP2 JUMP JUMPDEST CALLVALUE DUP1 ISZERO PUSH2 0x31B JUMPI PUSH0 DUP1 REVERT JUMPDEST POP PUSH2 0x227 PUSH2 0x32A CALLDATASIZE PUSH1 0x4 PUSH2 0x1DF1 JUMP JUMPDEST PUSH2 0x741 JUMP JUMPDEST CALLVALUE DUP1 ISZERO PUSH2 0x33A JUMPI PUSH0 DUP1 REVERT JUMPDEST POP PUSH0 SLOAD PUSH2 0x34D SWAP1 PUSH1 0x1 PUSH1 0x1 PUSH1 0xA0 SHL SUB AND DUP2 JUMP JUMPDEST PUSH1 0x40 MLOAD PUSH1 0x1 PUSH1 0x1 PUSH1 0xA0 SHL SUB SWAP1 SWAP2 AND DUP2 MSTORE PUSH1 0x20 ADD PUSH2 0x1FF JUMP JUMPDEST CALLVALUE DUP1 ISZERO PUSH2 0x370 JUMPI PUSH0 DUP1 REVERT JUMPDEST POP PUSH2 0x227 PUSH2 0x37F CALLDATASIZE PUSH1 0x4 PUSH2 0x1DF1 JUMP JUMPDEST PUSH2 0x75D JUMP JUMPDEST CALLVALUE DUP1 ISZERO PUSH2 0x38F JUMPI PUSH0 DUP1 REVERT JUMPDEST POP PUSH2 0x227 PUSH2 0x795 JUMP JUMPDEST PUSH2 0x227 PUSH2 0x3A6 CALLDATASIZE PUSH1 0x4 PUSH2 0x1E1F JUMP JUMPDEST PUSH2 0x7B7 JUMP JUMPDEST PUSH2 0x227 PUSH2 0x3B9 CALLDATASIZE PUSH1 0x4 PUSH2 0x1E53 JUMP JUMPDEST PUSH2 0x9B8 JUMP JUMPDEST PUSH2 0x227 PUSH2 0x3CC CALLDATASIZE PUSH1 0x4 PUSH2 0x1DAC JUMP JUMPDEST PUSH2 0x9D7 JUMP JUMPDEST CALLVALUE DUP1 ISZERO PUSH2 0x3DC JUMPI PUSH0 DUP1 REVERT JUMPDEST POP PUSH2 0x2CF PUSH2 0xB63 JUMP JUMPDEST PUSH2 0x2CF PUSH2 0x3F3 CALLDATASIZE PUSH1 0x4 PUSH2 0x1DAC JUMP JUMPDEST PUSH2 0xB7E JUMP JUMPDEST CALLVALUE DUP1 ISZERO PUSH2 0x403 JUMPI PUSH0 DUP1 REVERT JUMPDEST POP PUSH0 DUP1 MLOAD PUSH1 0x20 PUSH2 0x224B DUP4 CODECOPY DUP2 MLOAD SWAP2 MSTORE SLOAD PUSH1 0xFF AND PUSH2 0x1F3 JUMP JUMPDEST CALLVALUE DUP1 ISZERO PUSH2 0x426 JUMPI PUSH0 DUP1 REVERT JUMPDEST POP PUSH2 0x227 PUSH2 0xE14 JUMP JUMPDEST CALLVALUE DUP1 ISZERO PUSH2 0x43A JUMPI PUSH0 DUP1 REVERT JUMPDEST POP PUSH2 0x1F3 PUSH2 0x449 CALLDATASIZE PUSH1 0x4 PUSH2 0x1DF1 JUMP JUMPDEST PUSH2 0xE33 JUMP JUMPDEST CALLVALUE DUP1 ISZERO PUSH2 0x459 JUMPI PUSH0 DUP1 REVERT JUMPDEST POP PUSH2 0x46D PUSH2 0x468 CALLDATASIZE PUSH1 0x4 PUSH2 0x1DAC JUMP JUMPDEST PUSH2 0xE69 JUMP JUMPDEST PUSH1 0x40 DUP1 MLOAD SWAP3 DUP4 MSTORE PUSH1 0x20 DUP4 ADD SWAP2 SWAP1 SWAP2 MSTORE ADD PUSH2 0x1FF JUMP JUMPDEST CALLVALUE DUP1 ISZERO PUSH2 0x48D JUMPI PUSH0 DUP1 REVERT JUMPDEST POP PUSH2 0x2CF PUSH0 DUP2 JUMP JUMPDEST CALLVALUE DUP1 ISZERO PUSH2 0x4A0 JUMPI PUSH0 DUP1 REVERT JUMPDEST POP PUSH2 0x4C5 PUSH1 0x40 MLOAD DUP1 PUSH1 0x40 ADD PUSH1 0x40 MSTORE DUP1 PUSH1 0x5 DUP2 MSTORE PUSH1 0x20 ADD PUSH5 0x352E302E3 PUSH1 0xDC SHL DUP2 MSTORE POP DUP2 JUMP JUMPDEST PUSH1 0x40 MLOAD PUSH2 0x1FF SWAP2 SWAP1 PUSH2 0x1F19 JUMP JUMPDEST CALLVALUE DUP1 ISZERO PUSH2 0x4DD JUMPI PUSH0 DUP1 REVERT JUMPDEST POP PUSH2 0x227 PUSH2 0x4EC CALLDATASIZE PUSH1 0x4 PUSH2 0x1F4E JUMP JUMPDEST PUSH2 0x1059 JUMP JUMPDEST CALLVALUE DUP1 ISZERO PUSH2 0x4FC JUMPI PUSH0 DUP1 REVERT JUMPDEST POP PUSH2 0x227 PUSH2 0x50B CALLDATASIZE PUSH1 0x4 PUSH2 0x1F80 JUMP JUMPDEST PUSH2 0x10A5 JUMP JUMPDEST CALLVALUE DUP1 ISZERO PUSH2 0x51B JUMPI PUSH0 DUP1 REVERT JUMPDEST POP PUSH2 0x227 PUSH2 0x52A CALLDATASIZE PUSH1 0x4 PUSH2 0x1DF1 JUMP JUMPDEST PUSH2 0x126F JUMP JUMPDEST CALLVALUE DUP1 ISZERO PUSH2 0x53A JUMPI PUSH0 DUP1 REVERT JUMPDEST POP PUSH2 0x227 PUSH2 0x549 CALLDATASIZE PUSH1 0x4 PUSH2 0x1E1F JUMP JUMPDEST PUSH2 0x128B JUMP JUMPDEST CALLVALUE DUP1 ISZERO PUSH2 0x559 JUMPI PUSH0 DUP1 REVERT JUMPDEST POP PUSH1 0x1 SLOAD PUSH2 0x34D SWAP1 PUSH1 0x1 PUSH1 0x1 PUSH1 0xA0 SHL SUB AND DUP2 JUMP JUMPDEST CALLVALUE DUP1 ISZERO PUSH2 0x578 JUMPI PUSH0 DUP1 REVERT JUMPDEST POP PUSH2 0x227 PUSH2 0x587 CALLDATASIZE PUSH1 0x4 PUSH2 0x1F4E JUMP JUMPDEST PUSH2 0x1443 JUMP JUMPDEST CALLVALUE DUP1 ISZERO PUSH2 0x597 JUMPI PUSH0 DUP1 REVERT JUMPDEST POP PUSH2 0x2CF PUSH0 DUP1 MLOAD PUSH1 0x20 PUSH2 0x220B DUP4 CODECOPY DUP2 MLOAD SWAP2 MSTORE DUP2 JUMP JUMPDEST CALLVALUE DUP1 ISZERO PUSH2 0x5B7 JUMPI PUSH0 DUP1 REVERT JUMPDEST POP PUSH2 0x227 PUSH2 0x5C6 CALLDATASIZE PUSH1 0x4 PUSH2 0x1D81 JUMP JUMPDEST PUSH2 0x15FF JUMP JUMPDEST CALLVALUE DUP1 ISZERO PUSH2 0x5D6 JUMPI PUSH0 DUP1 REVERT JUMPDEST POP PUSH2 0x2CF PUSH32 0x189AB7A9244DF0848122154315AF71FE140F3DB0FE014031783B0946B8C9D2E3 DUP2 JUMP JUMPDEST PUSH0 PUSH1 0x1 PUSH1 0x1 PUSH1 0xE0 SHL SUB NOT DUP3 AND PUSH4 0x7965DB0B PUSH1 0xE0 SHL EQ DUP1 PUSH2 0x62E JUMPI POP PUSH4 0x1FFC9A7 PUSH1 0xE0 SHL PUSH1 0x1 PUSH1 0x1 PUSH1 0xE0 SHL SUB NOT DUP4 AND EQ JUMPDEST SWAP3 SWAP2 POP POP JUMP JUMPDEST PUSH0 PUSH2 0x63E DUP2 PUSH2 0x167A JUMP JUMPDEST PUSH1 0x1 SLOAD PUSH1 0x40 MLOAD PUSH4 0x21421707 PUSH1 0xE1 SHL DUP2 MSTORE PUSH1 0x1 PUSH1 0x1 PUSH1 0xA0 SHL SUB SWAP1 SWAP2 AND SWAP1 PUSH4 0x42842E0E SWAP1 PUSH2 0x672 SWAP1 ADDRESS SWAP1 CALLER SWAP1 DUP8 SWAP1 PUSH1 0x4 ADD PUSH2 0x1FFE JUMP JUMPDEST PUSH0 PUSH1 0x40 MLOAD DUP1 DUP4 SUB DUP2 PUSH0 DUP8 DUP1 EXTCODESIZE ISZERO DUP1 ISZERO PUSH2 0x689 JUMPI PUSH0 DUP1 REVERT JUMPDEST POP GAS CALL ISZERO DUP1 ISZERO PUSH2 0x69B JUMPI RETURNDATASIZE PUSH0 DUP1 RETURNDATACOPY RETURNDATASIZE PUSH0 REVERT JUMPDEST POP POP POP POP POP POP JUMP JUMPDEST PUSH0 PUSH2 0x6AD DUP2 PUSH2 0x167A JUMP JUMPDEST PUSH1 0x40 MLOAD PUSH4 0xA9059CBB PUSH1 0xE0 SHL DUP2 MSTORE CALLER PUSH1 0x4 DUP3 ADD MSTORE PUSH1 0x24 DUP2 ADD DUP4 SWAP1 MSTORE PUSH1 0x1 PUSH1 0x1 PUSH1 0xA0 SHL SUB DUP5 AND SWAP1 PUSH4 0xA9059CBB SWAP1 PUSH1 0x44 ADD PUSH1 0x20 PUSH1 0x40 MLOAD DUP1 DUP4 SUB DUP2 PUSH0 DUP8 GAS CALL ISZERO DUP1 ISZERO PUSH2 0x6F7 JUMPI RETURNDATASIZE PUSH0 DUP1 RETURNDATACOPY RETURNDATASIZE PUSH0 REVERT JUMPDEST POP POP POP POP PUSH1 0x40 MLOAD RETURNDATASIZE PUSH1 0x1F NOT PUSH1 0x1F DUP3 ADD AND DUP3 ADD DUP1 PUSH1 0x40 MSTORE POP DUP2 ADD SWAP1 PUSH2 0x71B SWAP2 SWAP1 PUSH2 0x2022 JUMP JUMPDEST POP POP POP POP JUMP JUMPDEST PUSH0 SWAP1 DUP2 MSTORE PUSH0 DUP1 MLOAD PUSH1 0x20 PUSH2 0x222B DUP4 CODECOPY DUP2 MLOAD SWAP2 MSTORE PUSH1 0x20 MSTORE PUSH1 0x40 SWAP1 KECCAK256 PUSH1 0x1 ADD SLOAD SWAP1 JUMP JUMPDEST PUSH2 0x74A DUP3 PUSH2 0x721 JUMP JUMPDEST PUSH2 0x753 DUP2 PUSH2 0x167A JUMP JUMPDEST PUSH2 0x71B DUP4 DUP4 PUSH2 0x1684 JUMP JUMPDEST PUSH1 0x1 PUSH1 0x1 PUSH1 0xA0 SHL SUB DUP2 AND CALLER EQ PUSH2 0x786 JUMPI PUSH1 0x40 MLOAD PUSH4 0x334BD919 PUSH1 0xE1 SHL DUP2 MSTORE PUSH1 0x4 ADD PUSH1 0x40 MLOAD DUP1 SWAP2 SUB SWAP1 REVERT JUMPDEST PUSH2 0x790 DUP3 DUP3 PUSH2 0x1725 JUMP JUMPDEST POP POP POP JUMP JUMPDEST PUSH0 DUP1 MLOAD PUSH1 0x20 PUSH2 0x220B DUP4 CODECOPY DUP2 MLOAD SWAP2 MSTORE PUSH2 0x7AC DUP2 PUSH2 0x167A JUMP JUMPDEST PUSH2 0x7B4 PUSH2 0x179E JUMP JUMPDEST POP JUMP JUMPDEST PUSH2 0x7BF PUSH2 0x17FD JUMP JUMPDEST PUSH0 CALLVALUE GT PUSH2 0x7E7 JUMPI PUSH1 0x40 MLOAD PUSH3 0x461BCD PUSH1 0xE5 SHL DUP2 MSTORE PUSH1 0x4 ADD PUSH2 0x7DE SWAP1 PUSH2 0x2041 JUMP JUMPDEST PUSH1 0x40 MLOAD DUP1 SWAP2 SUB SWAP1 REVERT JUMPDEST PUSH1 0x1 SLOAD PUSH1 0x40 MLOAD PUSH4 0x31A9108F PUSH1 0xE1 SHL DUP2 MSTORE PUSH1 0x4 DUP2 ADD DUP5 SWAP1 MSTORE ADDRESS SWAP2 PUSH1 0x1 PUSH1 0x1 PUSH1 0xA0 SHL SUB AND SWAP1 PUSH4 0x6352211E SWAP1 PUSH1 0x24 ADD PUSH1 0x20 PUSH1 0x40 MLOAD DUP1 DUP4 SUB DUP2 DUP7 GAS STATICCALL ISZERO DUP1 ISZERO PUSH2 0x82E JUMPI RETURNDATASIZE PUSH0 DUP1 RETURNDATACOPY RETURNDATASIZE PUSH0 REVERT JUMPDEST POP POP POP POP PUSH1 0x40 MLOAD RETURNDATASIZE PUSH1 0x1F NOT PUSH1 0x1F DUP3 ADD AND DUP3 ADD DUP1 PUSH1 0x40 MSTORE POP DUP2 ADD SWAP1 PUSH2 0x852 SWAP2 SWAP1 PUSH2 0x2085 JUMP JUMPDEST PUSH1 0x1 PUSH1 0x1 PUSH1 0xA0 SHL SUB AND EQ PUSH2 0x8A8 JUMPI PUSH1 0x40 MLOAD PUSH3 0x461BCD PUSH1 0xE5 SHL DUP2 MSTORE PUSH1 0x20 PUSH1 0x4 DUP3 ADD MSTORE PUSH1 0x19 PUSH1 0x24 DUP3 ADD MSTORE PUSH32 0x4E4654206E6F74206F776E656420627920636F6E747261637400000000000000 PUSH1 0x44 DUP3 ADD MSTORE PUSH1 0x64 ADD PUSH2 0x7DE JUMP JUMPDEST PUSH0 PUSH2 0x8BE CALLVALUE PUSH2 0x8B7 DUP2 SELFBALANCE PUSH2 0x20B4 JUMP JUMPDEST PUSH1 0x1 PUSH2 0x182F JUMP JUMPDEST SWAP1 POP DUP2 DUP2 LT ISZERO PUSH2 0x8E0 JUMPI PUSH1 0x40 MLOAD PUSH3 0x461BCD PUSH1 0xE5 SHL DUP2 MSTORE PUSH1 0x4 ADD PUSH2 0x7DE SWAP1 PUSH2 0x20C7 JUMP JUMPDEST PUSH1 0x40 MLOAD CALLER SWAP1 DUP3 ISZERO PUSH2 0x8FC MUL SWAP1 DUP4 SWAP1 PUSH0 DUP2 DUP2 DUP2 DUP6 DUP9 DUP9 CALL SWAP4 POP POP POP POP ISZERO DUP1 ISZERO PUSH2 0x90A JUMPI RETURNDATASIZE PUSH0 DUP1 RETURNDATACOPY RETURNDATASIZE PUSH0 REVERT JUMPDEST POP PUSH1 0x1 SLOAD PUSH1 0x40 MLOAD PUSH4 0x21421707 PUSH1 0xE1 SHL DUP2 MSTORE PUSH1 0x1 PUSH1 0x1 PUSH1 0xA0 SHL SUB SWAP1 SWAP2 AND SWAP1 PUSH4 0x42842E0E SWAP1 PUSH2 0x93F SWAP1 ADDRESS SWAP1 CALLER SWAP1 DUP9 SWAP1 PUSH1 0x4 ADD PUSH2 0x1FFE JUMP JUMPDEST PUSH0 PUSH1 0x40 MLOAD DUP1 DUP4 SUB DUP2 PUSH0 DUP8 DUP1 EXTCODESIZE ISZERO DUP1 ISZERO PUSH2 0x956 JUMPI PUSH0 DUP1 REVERT JUMPDEST POP GAS CALL ISZERO DUP1 ISZERO PUSH2 0x968 JUMPI RETURNDATASIZE PUSH0 DUP1 RETURNDATACOPY RETURNDATASIZE PUSH0 REVERT JUMPDEST POP POP PUSH1 0x1 SLOAD PUSH1 0x40 MLOAD DUP5 DUP2 MSTORE DUP7 SWAP4 POP PUSH1 0x1 PUSH1 0x1 PUSH1 0xA0 SHL SUB SWAP1 SWAP2 AND SWAP2 POP CALLER SWAP1 PUSH32 0x9181665DB8D8D5FCCE186F7B2CFEBE8FBCDC3A003664BBFCE2E790F57B076E65 SWAP1 PUSH1 0x20 ADD JUMPDEST PUSH1 0x40 MLOAD DUP1 SWAP2 SUB SWAP1 LOG4 POP POP POP JUMP JUMPDEST PUSH2 0x9C0 PUSH2 0x1888 JUMP JUMPDEST PUSH2 0x9C9 DUP3 PUSH2 0x192C JUMP JUMPDEST PUSH2 0x9D3 DUP3 DUP3 PUSH2 0x1956 JUMP JUMPDEST POP POP JUMP JUMPDEST PUSH2 0x9DF PUSH2 0x17FD JUMP JUMPDEST PUSH0 CALLVALUE GT PUSH2 0x9FE JUMPI PUSH1 0x40 MLOAD PUSH3 0x461BCD PUSH1 0xE5 SHL DUP2 MSTORE PUSH1 0x4 ADD PUSH2 0x7DE SWAP1 PUSH2 0x2041 JUMP JUMPDEST PUSH1 0x1 PUSH1 0x1 PUSH1 0xA0 SHL SUB DUP3 AND PUSH0 SWAP1 DUP2 MSTORE PUSH1 0x2 PUSH1 0x20 MSTORE PUSH1 0x40 SWAP1 KECCAK256 PUSH1 0x1 DUP2 ADD SLOAD ISZERO DUP1 ISZERO SWAP1 PUSH2 0xA28 JUMPI POP DUP1 SLOAD ISZERO ISZERO JUMPDEST PUSH2 0xA44 JUMPI PUSH1 0x40 MLOAD PUSH3 0x461BCD PUSH1 0xE5 SHL DUP2 MSTORE PUSH1 0x4 ADD PUSH2 0x7DE SWAP1 PUSH2 0x20FE JUMP JUMPDEST PUSH0 PUSH2 0xA57 CALLVALUE DUP4 PUSH1 0x1 ADD SLOAD DUP5 PUSH0 ADD SLOAD PUSH2 0x182F JUMP JUMPDEST SWAP1 POP DUP3 DUP2 LT ISZERO PUSH2 0xA79 JUMPI PUSH1 0x40 MLOAD PUSH3 0x461BCD PUSH1 0xE5 SHL DUP2 MSTORE PUSH1 0x4 ADD PUSH2 0x7DE SWAP1 PUSH2 0x20C7 JUMP JUMPDEST CALLVALUE DUP3 PUSH1 0x1 ADD PUSH0 DUP3 DUP3 SLOAD PUSH2 0xA8C SWAP2 SWAP1 PUSH2 0x212E JUMP JUMPDEST SWAP1 SWAP2 SSTORE POP POP DUP2 SLOAD DUP2 SWAP1 DUP4 SWAP1 PUSH0 SWAP1 PUSH2 0xAA4 SWAP1 DUP5 SWAP1 PUSH2 0x20B4 JUMP JUMPDEST SWAP1 SWAP2 SSTORE POP POP PUSH1 0x40 MLOAD PUSH4 0xA9059CBB PUSH1 0xE0 SHL DUP2 MSTORE CALLER PUSH1 0x4 DUP3 ADD MSTORE PUSH1 0x24 DUP2 ADD DUP3 SWAP1 MSTORE PUSH1 0x1 PUSH1 0x1 PUSH1 0xA0 SHL SUB DUP6 AND SWAP1 PUSH4 0xA9059CBB SWAP1 PUSH1 0x44 ADD PUSH1 0x20 PUSH1 0x40 MLOAD DUP1 DUP4 SUB DUP2 PUSH0 DUP8 GAS CALL ISZERO DUP1 ISZERO PUSH2 0xAF3 JUMPI RETURNDATASIZE PUSH0 DUP1 RETURNDATACOPY RETURNDATASIZE PUSH0 REVERT JUMPDEST POP POP POP POP PUSH1 0x40 MLOAD RETURNDATASIZE PUSH1 0x1F NOT PUSH1 0x1F DUP3 ADD AND DUP3 ADD DUP1 PUSH1 0x40 MSTORE POP DUP2 ADD SWAP1 PUSH2 0xB17 SWAP2 SWAP1 PUSH2 0x2022 JUMP JUMPDEST POP PUSH1 0x40 DUP1 MLOAD DUP3 DUP2 MSTORE CALLVALUE PUSH1 0x20 DUP3 ADD MSTORE PUSH1 0x1 PUSH1 0x1 PUSH1 0xA0 SHL SUB DUP7 AND SWAP2 CALLER SWAP2 PUSH32 0x30B60EE4DC75C0FB04420331B13E9AD7F8FF8FC51EAC9C97D36FB20CCBE09D66 SWAP2 ADD PUSH1 0x40 MLOAD DUP1 SWAP2 SUB SWAP1 LOG3 POP POP POP POP JUMP JUMPDEST PUSH0 PUSH2 0xB6C PUSH2 0x1A12 JUMP JUMPDEST POP PUSH0 DUP1 MLOAD PUSH1 0x20 PUSH2 0x21EB DUP4 CODECOPY DUP2 MLOAD SWAP2 MSTORE SWAP1 JUMP JUMPDEST PUSH0 PUSH2 0xB87 PUSH2 0x17FD JUMP JUMPDEST PUSH0 DUP3 GT PUSH2 0xBA6 JUMPI PUSH1 0x40 MLOAD PUSH3 0x461BCD PUSH1 0xE5 SHL DUP2 MSTORE PUSH1 0x4 ADD PUSH2 0x7DE SWAP1 PUSH2 0x2141 JUMP JUMPDEST PUSH0 CALLVALUE GT PUSH2 0xBC5 JUMPI PUSH1 0x40 MLOAD PUSH3 0x461BCD PUSH1 0xE5 SHL DUP2 MSTORE PUSH1 0x4 ADD PUSH2 0x7DE SWAP1 PUSH2 0x2041 JUMP JUMPDEST PUSH1 0x40 MLOAD PUSH4 0x23B872DD PUSH1 0xE0 SHL DUP2 MSTORE PUSH1 0x1 PUSH1 0x1 PUSH1 0xA0 SHL SUB DUP5 AND SWAP1 PUSH4 0x23B872DD SWAP1 PUSH2 0xBF5 SWAP1 CALLER SWAP1 ADDRESS SWAP1 DUP8 SWAP1 PUSH1 0x4 ADD PUSH2 0x1FFE JUMP JUMPDEST PUSH1 0x20 PUSH1 0x40 MLOAD DUP1 DUP4 SUB DUP2 PUSH0 DUP8 GAS CALL ISZERO DUP1 ISZERO PUSH2 0xC11 JUMPI RETURNDATASIZE PUSH0 DUP1 RETURNDATACOPY RETURNDATASIZE PUSH0 REVERT JUMPDEST POP POP POP POP PUSH1 0x40 MLOAD RETURNDATASIZE PUSH1 0x1F NOT PUSH1 0x1F DUP3 ADD AND DUP3 ADD DUP1 PUSH1 0x40 MSTORE POP DUP2 ADD SWAP1 PUSH2 0xC35 SWAP2 SWAP1 PUSH2 0x2022 JUMP JUMPDEST POP PUSH1 0x1 PUSH1 0x1 PUSH1 0xA0 SHL SUB DUP4 AND PUSH0 SWAP1 DUP2 MSTORE PUSH1 0x2 PUSH1 0x20 DUP2 SWAP1 MSTORE PUSH1 0x40 DUP3 KECCAK256 SWAP1 DUP2 ADD SLOAD SWAP1 SWAP2 SWAP1 DUP2 SUB PUSH2 0xC6C JUMPI POP DUP3 DUP2 SSTORE CALLVALUE PUSH1 0x1 DUP3 ADD SSTORE DUP3 PUSH2 0xD82 JUMP JUMPDEST PUSH0 DUP3 PUSH1 0x1 ADD SLOAD GT DUP1 ISZERO PUSH2 0xC7F JUMPI POP DUP2 SLOAD ISZERO ISZERO JUMPDEST PUSH2 0xCC0 JUMPI PUSH1 0x40 MLOAD PUSH3 0x461BCD PUSH1 0xE5 SHL DUP2 MSTORE PUSH1 0x20 PUSH1 0x4 DUP3 ADD MSTORE PUSH1 0x12 PUSH1 0x24 DUP3 ADD MSTORE PUSH18 0x496E76616C696420706F6F6C207374617465 PUSH1 0x70 SHL PUSH1 0x44 DUP3 ADD MSTORE PUSH1 0x64 ADD PUSH2 0x7DE JUMP JUMPDEST PUSH0 DUP3 PUSH0 ADD SLOAD DUP6 DUP5 PUSH1 0x1 ADD SLOAD PUSH2 0xCD5 SWAP2 SWAP1 PUSH2 0x2187 JUMP JUMPDEST PUSH2 0xCDF SWAP2 SWAP1 PUSH2 0x219E JUMP JUMPDEST SWAP1 POP DUP1 CALLVALUE LT ISZERO PUSH2 0xD31 JUMPI PUSH1 0x40 MLOAD PUSH3 0x461BCD PUSH1 0xE5 SHL DUP2 MSTORE PUSH1 0x20 PUSH1 0x4 DUP3 ADD MSTORE PUSH1 0x17 PUSH1 0x24 DUP3 ADD MSTORE PUSH32 0x496E73756666696369656E742045544820616D6F756E74000000000000000000 PUSH1 0x44 DUP3 ADD MSTORE PUSH1 0x64 ADD PUSH2 0x7DE JUMP JUMPDEST DUP5 DUP4 PUSH0 ADD PUSH0 DUP3 DUP3 SLOAD PUSH2 0xD43 SWAP2 SWAP1 PUSH2 0x212E JUMP JUMPDEST SWAP3 POP POP DUP2 SWAP1 SSTORE POP CALLVALUE DUP4 PUSH1 0x1 ADD PUSH0 DUP3 DUP3 SLOAD PUSH2 0xD5D SWAP2 SWAP1 PUSH2 0x212E JUMP JUMPDEST SWAP1 SWAP2 SSTORE POP POP DUP3 SLOAD PUSH1 0x2 DUP5 ADD SLOAD PUSH2 0xD74 SWAP1 DUP8 SWAP1 PUSH2 0x2187 JUMP JUMPDEST PUSH2 0xD7E SWAP2 SWAP1 PUSH2 0x219E JUMP JUMPDEST SWAP2 POP POP JUMPDEST DUP1 DUP3 PUSH1 0x2 ADD PUSH0 DUP3 DUP3 SLOAD PUSH2 0xD95 SWAP2 SWAP1 PUSH2 0x212E JUMP JUMPDEST SWAP1 SWAP2 SSTORE POP POP CALLER PUSH0 SWAP1 DUP2 MSTORE PUSH1 0x3 DUP4 ADD PUSH1 0x20 MSTORE PUSH1 0x40 DUP2 KECCAK256 DUP1 SLOAD DUP4 SWAP3 SWAP1 PUSH2 0xDBA SWAP1 DUP5 SWAP1 PUSH2 0x212E JUMP JUMPDEST SWAP1 SWAP2 SSTORE POP POP PUSH1 0x40 DUP1 MLOAD DUP6 DUP2 MSTORE CALLVALUE PUSH1 0x20 DUP3 ADD MSTORE SWAP1 DUP2 ADD DUP3 SWAP1 MSTORE PUSH1 0x1 PUSH1 0x1 PUSH1 0xA0 SHL SUB DUP7 AND SWAP1 CALLER SWAP1 PUSH32 0x4A1A2A6176E9646D9E3157F7C2AB3C499F18337C0B0828CFB28E0A61DE4A11F7 SWAP1 PUSH1 0x60 ADD PUSH1 0x40 MLOAD DUP1 SWAP2 SUB SWAP1 LOG3 SWAP5 SWAP4 POP POP POP POP JUMP JUMPDEST PUSH0 DUP1 MLOAD PUSH1 0x20 PUSH2 0x220B DUP4 CODECOPY DUP2 MLOAD SWAP2 MSTORE PUSH2 0xE2B DUP2 PUSH2 0x167A JUMP JUMPDEST PUSH2 0x7B4 PUSH2 0x1A5B JUMP JUMPDEST PUSH0 SWAP2 DUP3 MSTORE PUSH0 DUP1 MLOAD PUSH1 0x20 PUSH2 0x222B DUP4 CODECOPY DUP2 MLOAD SWAP2 MSTORE PUSH1 0x20 SWAP1 DUP2 MSTORE PUSH1 0x40 DUP1 DUP5 KECCAK256 PUSH1 0x1 PUSH1 0x1 PUSH1 0xA0 SHL SUB SWAP4 SWAP1 SWAP4 AND DUP5 MSTORE SWAP2 SWAP1 MSTORE SWAP1 KECCAK256 SLOAD PUSH1 0xFF AND SWAP1 JUMP JUMPDEST PUSH0 DUP1 PUSH2 0xE73 PUSH2 0x17FD JUMP JUMPDEST PUSH1 0x1 PUSH1 0x1 PUSH1 0xA0 SHL SUB DUP5 AND PUSH0 SWAP1 DUP2 MSTORE PUSH1 0x2 PUSH1 0x20 SWAP1 DUP2 MSTORE PUSH1 0x40 DUP1 DUP4 KECCAK256 CALLER DUP5 MSTORE PUSH1 0x3 DUP2 ADD SWAP1 SWAP3 MSTORE SWAP1 SWAP2 KECCAK256 SLOAD DUP5 GT ISZERO PUSH2 0xEBA JUMPI PUSH1 0x40 MLOAD PUSH3 0x461BCD PUSH1 0xE5 SHL DUP2 MSTORE PUSH1 0x4 ADD PUSH2 0x7DE SWAP1 PUSH2 0x20FE JUMP JUMPDEST PUSH1 0x2 DUP2 ADD SLOAD DUP2 SLOAD PUSH2 0xECC SWAP1 DUP7 SWAP1 PUSH2 0x2187 JUMP JUMPDEST PUSH2 0xED6 SWAP2 SWAP1 PUSH2 0x219E JUMP JUMPDEST SWAP3 POP DUP1 PUSH1 0x2 ADD SLOAD DUP5 DUP3 PUSH1 0x1 ADD SLOAD PUSH2 0xEED SWAP2 SWAP1 PUSH2 0x2187 JUMP JUMPDEST PUSH2 0xEF7 SWAP2 SWAP1 PUSH2 0x219E JUMP JUMPDEST SWAP2 POP DUP3 DUP2 PUSH0 ADD PUSH0 DUP3 DUP3 SLOAD PUSH2 0xF0B SWAP2 SWAP1 PUSH2 0x20B4 JUMP JUMPDEST SWAP3 POP POP DUP2 SWAP1 SSTORE POP DUP2 DUP2 PUSH1 0x1 ADD PUSH0 DUP3 DUP3 SLOAD PUSH2 0xF25 SWAP2 SWAP1 PUSH2 0x20B4 JUMP JUMPDEST SWAP3 POP POP DUP2 SWAP1 SSTORE POP DUP4 DUP2 PUSH1 0x2 ADD PUSH0 DUP3 DUP3 SLOAD PUSH2 0xF3F SWAP2 SWAP1 PUSH2 0x20B4 JUMP JUMPDEST SWAP1 SWAP2 SSTORE POP POP CALLER PUSH0 SWAP1 DUP2 MSTORE PUSH1 0x3 DUP3 ADD PUSH1 0x20 MSTORE PUSH1 0x40 DUP2 KECCAK256 DUP1 SLOAD DUP7 SWAP3 SWAP1 PUSH2 0xF64 SWAP1 DUP5 SWAP1 PUSH2 0x20B4 JUMP JUMPDEST SWAP1 SWAP2 SSTORE POP POP PUSH1 0x40 MLOAD PUSH4 0xA9059CBB PUSH1 0xE0 SHL DUP2 MSTORE CALLER PUSH1 0x4 DUP3 ADD MSTORE PUSH1 0x24 DUP2 ADD DUP5 SWAP1 MSTORE PUSH1 0x1 PUSH1 0x1 PUSH1 0xA0 SHL SUB DUP7 AND SWAP1 PUSH4 0xA9059CBB SWAP1 PUSH1 0x44 ADD PUSH1 0x20 PUSH1 0x40 MLOAD DUP1 DUP4 SUB DUP2 PUSH0 DUP8 GAS CALL ISZERO DUP1 ISZERO PUSH2 0xFB3 JUMPI RETURNDATASIZE PUSH0 DUP1 RETURNDATACOPY RETURNDATASIZE PUSH0 REVERT JUMPDEST POP POP POP POP PUSH1 0x40 MLOAD RETURNDATASIZE PUSH1 0x1F NOT PUSH1 0x1F DUP3 ADD AND DUP3 ADD DUP1 PUSH1 0x40 MSTORE POP DUP2 ADD SWAP1 PUSH2 0xFD7 SWAP2 SWAP1 PUSH2 0x2022 JUMP JUMPDEST POP PUSH1 0x40 MLOAD CALLER SWAP1 DUP4 ISZERO PUSH2 0x8FC MUL SWAP1 DUP5 SWAP1 PUSH0 DUP2 DUP2 DUP2 DUP6 DUP9 DUP9 CALL SWAP4 POP POP POP POP ISZERO DUP1 ISZERO PUSH2 0x1002 JUMPI RETURNDATASIZE PUSH0 DUP1 RETURNDATACOPY RETURNDATASIZE PUSH0 REVERT JUMPDEST POP PUSH1 0x40 DUP1 MLOAD DUP5 DUP2 MSTORE PUSH1 0x20 DUP2 ADD DUP5 SWAP1 MSTORE SWAP1 DUP2 ADD DUP6 SWAP1 MSTORE PUSH1 0x1 PUSH1 0x1 PUSH1 0xA0 SHL SUB DUP7 AND SWAP1 CALLER SWAP1 PUSH32 0xBC7D19D505C7EC4DB83F3B51F19FB98C4C8A99922E7839D1EE608DFBEE29501B SWAP1 PUSH1 0x60 ADD PUSH1 0x40 MLOAD DUP1 SWAP2 SUB SWAP1 LOG3 POP SWAP3 POP SWAP3 SWAP1 POP JUMP JUMPDEST PUSH32 0x77E60B99A50D27FB027F6912A507D956105B4148ADAB27A86D235C8BCCA8FA2F PUSH2 0x1083 DUP2 PUSH2 0x167A JUMP JUMPDEST POP PUSH1 0x1 PUSH1 0x1 PUSH1 0xA0 SHL SUB SWAP1 SWAP3 AND PUSH0 SWAP1 DUP2 MSTORE PUSH1 0x2 PUSH1 0x20 MSTORE PUSH1 0x40 SWAP1 KECCAK256 SWAP1 DUP2 SSTORE PUSH1 0x1 ADD SSTORE JUMP JUMPDEST PUSH32 0xF0C57E16840DF040F15088DC2F81FE391C3923BEC73E23A9662EFC9C229C6A00 DUP1 SLOAD PUSH1 0x1 PUSH1 0x40 SHL DUP2 DIV PUSH1 0xFF AND ISZERO SWAP1 PUSH8 0xFFFFFFFFFFFFFFFF AND PUSH0 DUP2 ISZERO DUP1 ISZERO PUSH2 0x10EA JUMPI POP DUP3 JUMPDEST SWAP1 POP PUSH0 DUP3 PUSH8 0xFFFFFFFFFFFFFFFF AND PUSH1 0x1 EQ DUP1 ISZERO PUSH2 0x1106 JUMPI POP ADDRESS EXTCODESIZE ISZERO JUMPDEST SWAP1 POP DUP2 ISZERO DUP1 ISZERO PUSH2 0x1114 JUMPI POP DUP1 ISZERO JUMPDEST ISZERO PUSH2 0x1132 JUMPI PUSH1 0x40 MLOAD PUSH4 0xF92EE8A9 PUSH1 0xE0 SHL DUP2 MSTORE PUSH1 0x4 ADD PUSH1 0x40 MLOAD DUP1 SWAP2 SUB SWAP1 REVERT JUMPDEST DUP5 SLOAD PUSH8 0xFFFFFFFFFFFFFFFF NOT AND PUSH1 0x1 OR DUP6 SSTORE DUP4 ISZERO PUSH2 0x115C JUMPI DUP5 SLOAD PUSH1 0xFF PUSH1 0x40 SHL NOT AND PUSH1 0x1 PUSH1 0x40 SHL OR DUP6 SSTORE JUMPDEST PUSH2 0x1164 PUSH2 0x1AA3 JUMP JUMPDEST PUSH2 0x116C PUSH2 0x1AB3 JUMP JUMPDEST PUSH2 0x1174 PUSH2 0x1AB3 JUMP JUMPDEST PUSH2 0x117E PUSH0 DUP13 PUSH2 0x1684 JUMP JUMPDEST POP PUSH2 0x1196 PUSH0 DUP1 MLOAD PUSH1 0x20 PUSH2 0x220B DUP4 CODECOPY DUP2 MLOAD SWAP2 MSTORE DUP12 PUSH2 0x1684 JUMP JUMPDEST POP PUSH2 0x11C1 PUSH32 0x189AB7A9244DF0848122154315AF71FE140F3DB0FE014031783B0946B8C9D2E3 DUP11 PUSH2 0x1684 JUMP JUMPDEST POP PUSH2 0x11EC PUSH32 0x77E60B99A50D27FB027F6912A507D956105B4148ADAB27A86D235C8BCCA8FA2F DUP10 PUSH2 0x1684 JUMP JUMPDEST POP PUSH0 DUP1 SLOAD PUSH1 0x1 PUSH1 0x1 PUSH1 0xA0 SHL SUB DUP1 DUP11 AND PUSH1 0x1 PUSH1 0x1 PUSH1 0xA0 SHL SUB NOT SWAP3 DUP4 AND OR SWAP1 SWAP3 SSTORE PUSH1 0x1 DUP1 SLOAD SWAP3 DUP10 AND SWAP3 SWAP1 SWAP2 AND SWAP2 SWAP1 SWAP2 OR SWAP1 SSTORE DUP4 ISZERO PUSH2 0x1262 JUMPI DUP5 SLOAD PUSH1 0xFF PUSH1 0x40 SHL NOT AND DUP6 SSTORE PUSH1 0x40 MLOAD PUSH1 0x1 DUP2 MSTORE PUSH32 0xC7F505B2F371AE2175EE4913F4499E1F2633A7B5936321EED1CDAEB6115181D2 SWAP1 PUSH1 0x20 ADD PUSH1 0x40 MLOAD DUP1 SWAP2 SUB SWAP1 LOG1 JUMPDEST POP POP POP POP POP POP POP POP POP POP POP JUMP JUMPDEST PUSH2 0x1278 DUP3 PUSH2 0x721 JUMP JUMPDEST PUSH2 0x1281 DUP2 PUSH2 0x167A JUMP JUMPDEST PUSH2 0x71B DUP4 DUP4 PUSH2 0x1725 JUMP JUMPDEST PUSH2 0x1293 PUSH2 0x17FD JUMP JUMPDEST PUSH1 0x1 SLOAD PUSH1 0x40 MLOAD PUSH4 0x31A9108F PUSH1 0xE1 SHL DUP2 MSTORE PUSH1 0x4 DUP2 ADD DUP5 SWAP1 MSTORE CALLER SWAP2 PUSH1 0x1 PUSH1 0x1 PUSH1 0xA0 SHL SUB AND SWAP1 PUSH4 0x6352211E SWAP1 PUSH1 0x24 ADD PUSH1 0x20 PUSH1 0x40 MLOAD DUP1 DUP4 SUB DUP2 DUP7 GAS STATICCALL ISZERO DUP1 ISZERO PUSH2 0x12DA JUMPI RETURNDATASIZE PUSH0 DUP1 RETURNDATACOPY RETURNDATASIZE PUSH0 REVERT JUMPDEST POP POP POP POP PUSH1 0x40 MLOAD RETURNDATASIZE PUSH1 0x1F NOT PUSH1 0x1F DUP3 ADD AND DUP3 ADD DUP1 PUSH1 0x40 MSTORE POP DUP2 ADD SWAP1 PUSH2 0x12FE SWAP2 SWAP1 PUSH2 0x2085 JUMP JUMPDEST PUSH1 0x1 PUSH1 0x1 PUSH1 0xA0 SHL SUB AND EQ PUSH2 0x1347 JUMPI PUSH1 0x40 MLOAD PUSH3 0x461BCD PUSH1 0xE5 SHL DUP2 MSTORE PUSH1 0x20 PUSH1 0x4 DUP3 ADD MSTORE PUSH1 0x10 PUSH1 0x24 DUP3 ADD MSTORE PUSH16 0x139BDD081BDDDB995C881BD988139195 PUSH1 0x82 SHL PUSH1 0x44 DUP3 ADD MSTORE PUSH1 0x64 ADD PUSH2 0x7DE JUMP JUMPDEST PUSH0 PUSH2 0x1354 PUSH1 0x1 DUP1 SELFBALANCE PUSH2 0x182F JUMP JUMPDEST SWAP1 POP DUP2 DUP2 LT ISZERO PUSH2 0x1376 JUMPI PUSH1 0x40 MLOAD PUSH3 0x461BCD PUSH1 0xE5 SHL DUP2 MSTORE PUSH1 0x4 ADD PUSH2 0x7DE SWAP1 PUSH2 0x20C7 JUMP JUMPDEST PUSH1 0x1 SLOAD PUSH1 0x40 MLOAD PUSH4 0x21421707 PUSH1 0xE1 SHL DUP2 MSTORE PUSH1 0x1 PUSH1 0x1 PUSH1 0xA0 SHL SUB SWAP1 SWAP2 AND SWAP1 PUSH4 0x42842E0E SWAP1 PUSH2 0x13AA SWAP1 CALLER SWAP1 ADDRESS SWAP1 DUP9 SWAP1 PUSH1 0x4 ADD PUSH2 0x1FFE JUMP JUMPDEST PUSH0 PUSH1 0x40 MLOAD DUP1 DUP4 SUB DUP2 PUSH0 DUP8 DUP1 EXTCODESIZE ISZERO DUP1 ISZERO PUSH2 0x13C1 JUMPI PUSH0 DUP1 REVERT JUMPDEST POP GAS CALL ISZERO DUP1 ISZERO PUSH2 0x13D3 JUMPI RETURNDATASIZE PUSH0 DUP1 RETURNDATACOPY RETURNDATASIZE PUSH0 REVERT JUMPDEST POP POP PUSH1 0x40 MLOAD CALLER SWAP3 POP DUP4 ISZERO PUSH2 0x8FC MUL SWAP2 POP DUP4 SWAP1 PUSH0 DUP2 DUP2 DUP2 DUP6 DUP9 DUP9 CALL SWAP4 POP POP POP POP ISZERO DUP1 ISZERO PUSH2 0x1401 JUMPI RETURNDATASIZE PUSH0 DUP1 RETURNDATACOPY RETURNDATASIZE PUSH0 REVERT JUMPDEST POP PUSH1 0x1 SLOAD PUSH1 0x40 MLOAD DUP3 DUP2 MSTORE DUP5 SWAP2 PUSH1 0x1 PUSH1 0x1 PUSH1 0xA0 SHL SUB AND SWAP1 CALLER SWAP1 PUSH32 0x9181665DB8D8D5FCCE186F7B2CFEBE8FBCDC3A003664BBFCE2E790F57B076E65 SWAP1 PUSH1 0x20 ADD PUSH2 0x9AB JUMP JUMPDEST PUSH2 0x144B PUSH2 0x17FD JUMP JUMPDEST PUSH0 DUP3 GT PUSH2 0x146A JUMPI PUSH1 0x40 MLOAD PUSH3 0x461BCD PUSH1 0xE5 SHL DUP2 MSTORE PUSH1 0x4 ADD PUSH2 0x7DE SWAP1 PUSH2 0x2141 JUMP JUMPDEST PUSH1 0x1 PUSH1 0x1 PUSH1 0xA0 SHL SUB DUP4 AND PUSH0 SWAP1 DUP2 MSTORE PUSH1 0x2 PUSH1 0x20 MSTORE PUSH1 0x40 SWAP1 KECCAK256 PUSH1 0x1 DUP2 ADD SLOAD ISZERO DUP1 ISZERO SWAP1 PUSH2 0x1494 JUMPI POP DUP1 SLOAD ISZERO ISZERO JUMPDEST PUSH2 0x14B0 JUMPI PUSH1 0x40 MLOAD PUSH3 0x461BCD PUSH1 0xE5 SHL DUP2 MSTORE PUSH1 0x4 ADD PUSH2 0x7DE SWAP1 PUSH2 0x20FE JUMP JUMPDEST PUSH0 PUSH2 0x14C3 DUP5 DUP4 PUSH0 ADD SLOAD DUP5 PUSH1 0x1 ADD SLOAD PUSH2 0x182F JUMP JUMPDEST SWAP1 POP DUP3 DUP2 LT ISZERO PUSH2 0x14E5 JUMPI PUSH1 0x40 MLOAD PUSH3 0x461BCD PUSH1 0xE5 SHL DUP2 MSTORE PUSH1 0x4 ADD PUSH2 0x7DE SWAP1 PUSH2 0x20C7 JUMP JUMPDEST DUP4 DUP3 PUSH0 ADD PUSH0 DUP3 DUP3 SLOAD PUSH2 0x14F7 SWAP2 SWAP1 PUSH2 0x212E JUMP JUMPDEST SWAP3 POP POP DUP2 SWAP1 SSTORE POP DUP1 DUP3 PUSH1 0x1 ADD PUSH0 DUP3 DUP3 SLOAD PUSH2 0x1511 SWAP2 SWAP1 PUSH2 0x20B4 JUMP JUMPDEST SWAP1 SWAP2 SSTORE POP POP PUSH1 0x40 MLOAD PUSH4 0x23B872DD PUSH1 0xE0 SHL DUP2 MSTORE PUSH1 0x1 PUSH1 0x1 PUSH1 0xA0 SHL SUB DUP7 AND SWAP1 PUSH4 0x23B872DD SWAP1 PUSH2 0x1546 SWAP1 CALLER SWAP1 ADDRESS SWAP1 DUP10 SWAP1 PUSH1 0x4 ADD PUSH2 0x1FFE JUMP JUMPDEST PUSH1 0x20 PUSH1 0x40 MLOAD DUP1 DUP4 SUB DUP2 PUSH0 DUP8 GAS CALL ISZERO DUP1 ISZERO PUSH2 0x1562 JUMPI RETURNDATASIZE PUSH0 DUP1 RETURNDATACOPY RETURNDATASIZE PUSH0 REVERT JUMPDEST POP POP POP POP PUSH1 0x40 MLOAD RETURNDATASIZE PUSH1 0x1F NOT PUSH1 0x1F DUP3 ADD AND DUP3 ADD DUP1 PUSH1 0x40 MSTORE POP DUP2 ADD SWAP1 PUSH2 0x1586 SWAP2 SWAP1 PUSH2 0x2022 JUMP JUMPDEST POP PUSH1 0x40 MLOAD CALLER SWAP1 DUP3 ISZERO PUSH2 0x8FC MUL SWAP1 DUP4 SWAP1 PUSH0 DUP2 DUP2 DUP2 DUP6 DUP9 DUP9 CALL SWAP4 POP POP POP POP ISZERO DUP1 ISZERO PUSH2 0x15B1 JUMPI RETURNDATASIZE PUSH0 DUP1 RETURNDATACOPY RETURNDATASIZE PUSH0 REVERT JUMPDEST POP PUSH1 0x40 DUP1 MLOAD DUP6 DUP2 MSTORE PUSH1 0x20 DUP2 ADD DUP4 SWAP1 MSTORE PUSH1 0x1 PUSH1 0x1 PUSH1 0xA0 SHL SUB DUP8 AND SWAP2 CALLER SWAP2 PUSH32 0x30B60EE4DC75C0FB04420331B13E9AD7F8FF8FC51EAC9C97D36FB20CCBE09D66 SWAP2 ADD PUSH1 0x40 MLOAD DUP1 SWAP2 SUB SWAP1 LOG3 POP POP POP POP POP JUMP JUMPDEST PUSH0 PUSH2 0x1609 DUP2 PUSH2 0x167A JUMP JUMPDEST DUP2 SELFBALANCE LT ISZERO PUSH2 0x1650 JUMPI PUSH1 0x40 MLOAD PUSH3 0x461BCD PUSH1 0xE5 SHL DUP2 MSTORE PUSH1 0x20 PUSH1 0x4 DUP3 ADD MSTORE PUSH1 0x14 PUSH1 0x24 DUP3 ADD MSTORE PUSH20 0x496E73756666696369656E742062616C616E6365 PUSH1 0x60 SHL PUSH1 0x44 DUP3 ADD MSTORE PUSH1 0x64 ADD PUSH2 0x7DE JUMP JUMPDEST PUSH1 0x40 MLOAD CALLER SWAP1 DUP4 ISZERO PUSH2 0x8FC MUL SWAP1 DUP5 SWAP1 PUSH0 DUP2 DUP2 DUP2 DUP6 DUP9 DUP9 CALL SWAP4 POP POP POP POP ISZERO DUP1 ISZERO PUSH2 0x790 JUMPI RETURNDATASIZE PUSH0 DUP1 RETURNDATACOPY RETURNDATASIZE PUSH0 REVERT JUMPDEST PUSH2 0x7B4 DUP2 CALLER PUSH2 0x1ABB JUMP JUMPDEST PUSH0 PUSH0 DUP1 MLOAD PUSH1 0x20 PUSH2 0x222B DUP4 CODECOPY DUP2 MLOAD SWAP2 MSTORE PUSH2 0x169D DUP5 DUP5 PUSH2 0xE33 JUMP JUMPDEST PUSH2 0x171C JUMPI PUSH0 DUP5 DUP2 MSTORE PUSH1 0x20 DUP3 DUP2 MSTORE PUSH1 0x40 DUP1 DUP4 KECCAK256 PUSH1 0x1 PUSH1 0x1 PUSH1 0xA0 SHL SUB DUP8 AND DUP5 MSTORE SWAP1 SWAP2 MSTORE SWAP1 KECCAK256 DUP1 SLOAD PUSH1 0xFF NOT AND PUSH1 0x1 OR SWAP1 SSTORE PUSH2 0x16D2 CALLER SWAP1 JUMP JUMPDEST PUSH1 0x1 PUSH1 0x1 PUSH1 0xA0 SHL SUB AND DUP4 PUSH1 0x1 PUSH1 0x1 PUSH1 0xA0 SHL SUB AND DUP6 PUSH32 0x2F8788117E7EFF1D82E926EC794901D17C78024A50270940304540A733656F0D PUSH1 0x40 MLOAD PUSH1 0x40 MLOAD DUP1 SWAP2 SUB SWAP1 LOG4 PUSH1 0x1 SWAP2 POP POP PUSH2 0x62E JUMP JUMPDEST PUSH0 SWAP2 POP POP PUSH2 0x62E JUMP JUMPDEST PUSH0 PUSH0 DUP1 MLOAD PUSH1 0x20 PUSH2 0x222B DUP4 CODECOPY DUP2 MLOAD SWAP2 MSTORE PUSH2 0x173E DUP5 DUP5 PUSH2 0xE33 JUMP JUMPDEST ISZERO PUSH2 0x171C JUMPI PUSH0 DUP5 DUP2 MSTORE PUSH1 0x20 DUP3 DUP2 MSTORE PUSH1 0x40 DUP1 DUP4 KECCAK256 PUSH1 0x1 PUSH1 0x1 PUSH1 0xA0 SHL SUB DUP8 AND DUP1 DUP6 MSTORE SWAP3 MSTORE DUP1 DUP4 KECCAK256 DUP1 SLOAD PUSH1 0xFF NOT AND SWAP1 SSTORE MLOAD CALLER SWAP3 DUP8 SWAP2 PUSH32 0xF6391F5C32D9C69D2A47EA670B442974B53935D1EDC7FD64EB21E047A839171B SWAP2 SWAP1 LOG4 PUSH1 0x1 SWAP2 POP POP PUSH2 0x62E JUMP JUMPDEST PUSH2 0x17A6 PUSH2 0x1AF4 JUMP JUMPDEST PUSH0 DUP1 MLOAD PUSH1 0x20 PUSH2 0x224B DUP4 CODECOPY DUP2 MLOAD SWAP2 MSTORE DUP1 SLOAD PUSH1 0xFF NOT AND DUP2 SSTORE PUSH32 0x5DB9EE0A495BF2E6FF9C91A7834C1BA4FDD244A5E8AA4E537BD38AEAE4B073AA CALLER JUMPDEST PUSH1 0x40 MLOAD PUSH1 0x1 PUSH1 0x1 PUSH1 0xA0 SHL SUB SWAP1 SWAP2 AND DUP2 MSTORE PUSH1 0x20 ADD PUSH1 0x40 MLOAD DUP1 SWAP2 SUB SWAP1 LOG1 POP JUMP JUMPDEST PUSH0 DUP1 MLOAD PUSH1 0x20 PUSH2 0x224B DUP4 CODECOPY DUP2 MLOAD SWAP2 MSTORE SLOAD PUSH1 0xFF AND ISZERO PUSH2 0x182D JUMPI PUSH1 0x40 MLOAD PUSH4 0xD93C0665 PUSH1 0xE0 SHL DUP2 MSTORE PUSH1 0x4 ADD PUSH1 0x40 MLOAD DUP1 SWAP2 SUB SWAP1 REVERT JUMPDEST JUMP JUMPDEST PUSH0 DUP1 PUSH2 0x183E PUSH1 0x3 PUSH2 0x3E8 PUSH2 0x20B4 JUMP JUMPDEST PUSH2 0x1848 SWAP1 DUP7 PUSH2 0x2187 JUMP JUMPDEST SWAP1 POP PUSH0 PUSH2 0x1855 DUP5 DUP4 PUSH2 0x2187 JUMP JUMPDEST SWAP1 POP PUSH0 DUP3 PUSH2 0x1865 DUP8 PUSH2 0x3E8 PUSH2 0x2187 JUMP JUMPDEST PUSH2 0x186F SWAP2 SWAP1 PUSH2 0x212E JUMP JUMPDEST SWAP1 POP PUSH2 0x187B DUP2 DUP4 PUSH2 0x219E JUMP JUMPDEST SWAP4 POP POP POP POP JUMPDEST SWAP4 SWAP3 POP POP POP JUMP JUMPDEST ADDRESS PUSH1 0x1 PUSH1 0x1 PUSH1 0xA0 SHL SUB PUSH32 0x0 AND EQ DUP1 PUSH2 0x190E JUMPI POP PUSH32 0x0 PUSH1 0x1 PUSH1 0x1 PUSH1 0xA0 SHL SUB AND PUSH2 0x1902 PUSH0 DUP1 MLOAD PUSH1 0x20 PUSH2 0x21EB DUP4 CODECOPY DUP2 MLOAD SWAP2 MSTORE SLOAD PUSH1 0x1 PUSH1 0x1 PUSH1 0xA0 SHL SUB AND SWAP1 JUMP JUMPDEST PUSH1 0x1 PUSH1 0x1 PUSH1 0xA0 SHL SUB AND EQ ISZERO JUMPDEST ISZERO PUSH2 0x182D JUMPI PUSH1 0x40 MLOAD PUSH4 0x703E46DD PUSH1 0xE1 SHL DUP2 MSTORE PUSH1 0x4 ADD PUSH1 0x40 MLOAD DUP1 SWAP2 SUB SWAP1 REVERT JUMPDEST PUSH32 0x189AB7A9244DF0848122154315AF71FE140F3DB0FE014031783B0946B8C9D2E3 PUSH2 0x9D3 DUP2 PUSH2 0x167A JUMP JUMPDEST DUP2 PUSH1 0x1 PUSH1 0x1 PUSH1 0xA0 SHL SUB AND PUSH4 0x52D1902D PUSH1 0x40 MLOAD DUP2 PUSH4 0xFFFFFFFF AND PUSH1 0xE0 SHL DUP2 MSTORE PUSH1 0x4 ADD PUSH1 0x20 PUSH1 0x40 MLOAD DUP1 DUP4 SUB DUP2 DUP7 GAS STATICCALL SWAP3 POP POP POP DUP1 ISZERO PUSH2 0x19B0 JUMPI POP PUSH1 0x40 DUP1 MLOAD PUSH1 0x1F RETURNDATASIZE SWAP1 DUP2 ADD PUSH1 0x1F NOT AND DUP3 ADD SWAP1 SWAP3 MSTORE PUSH2 0x19AD SWAP2 DUP2 ADD SWAP1 PUSH2 0x21BD JUMP JUMPDEST PUSH1 0x1 JUMPDEST PUSH2 0x19D8 JUMPI PUSH1 0x40 MLOAD PUSH4 0x4C9C8CE3 PUSH1 0xE0 SHL DUP2 MSTORE PUSH1 0x1 PUSH1 0x1 PUSH1 0xA0 SHL SUB DUP4 AND PUSH1 0x4 DUP3 ADD MSTORE PUSH1 0x24 ADD PUSH2 0x7DE JUMP JUMPDEST PUSH0 DUP1 MLOAD PUSH1 0x20 PUSH2 0x21EB DUP4 CODECOPY DUP2 MLOAD SWAP2 MSTORE DUP2 EQ PUSH2 0x1A08 JUMPI PUSH1 0x40 MLOAD PUSH4 0x2A875269 PUSH1 0xE2 SHL DUP2 MSTORE PUSH1 0x4 DUP2 ADD DUP3 SWAP1 MSTORE PUSH1 0x24 ADD PUSH2 0x7DE JUMP JUMPDEST PUSH2 0x790 DUP4 DUP4 PUSH2 0x1B23 JUMP JUMPDEST ADDRESS PUSH1 0x1 PUSH1 0x1 PUSH1 0xA0 SHL SUB PUSH32 0x0 AND EQ PUSH2 0x182D JUMPI PUSH1 0x40 MLOAD PUSH4 0x703E46DD PUSH1 0xE1 SHL DUP2 MSTORE PUSH1 0x4 ADD PUSH1 0x40 MLOAD DUP1 SWAP2 SUB SWAP1 REVERT JUMPDEST PUSH2 0x1A63 PUSH2 0x17FD JUMP JUMPDEST PUSH0 DUP1 MLOAD PUSH1 0x20 PUSH2 0x224B DUP4 CODECOPY DUP2 MLOAD SWAP2 MSTORE DUP1 SLOAD PUSH1 0xFF NOT AND PUSH1 0x1 OR DUP2 SSTORE PUSH32 0x62E78CEA01BEE320CD4E420270B5EA74000D11B0C9F74754EBDBFC544B05A258 CALLER PUSH2 0x17DF JUMP JUMPDEST PUSH2 0x1AAB PUSH2 0x1B78 JUMP JUMPDEST PUSH2 0x182D PUSH2 0x1BC1 JUMP JUMPDEST PUSH2 0x182D PUSH2 0x1B78 JUMP JUMPDEST PUSH2 0x1AC5 DUP3 DUP3 PUSH2 0xE33 JUMP JUMPDEST PUSH2 0x9D3 JUMPI PUSH1 0x40 MLOAD PUSH4 0xE2517D3F PUSH1 0xE0 SHL DUP2 MSTORE PUSH1 0x1 PUSH1 0x1 PUSH1 0xA0 SHL SUB DUP3 AND PUSH1 0x4 DUP3 ADD MSTORE PUSH1 0x24 DUP2 ADD DUP4 SWAP1 MSTORE PUSH1 0x44 ADD PUSH2 0x7DE JUMP JUMPDEST PUSH0 DUP1 MLOAD PUSH1 0x20 PUSH2 0x224B DUP4 CODECOPY DUP2 MLOAD SWAP2 MSTORE SLOAD PUSH1 0xFF AND PUSH2 0x182D JUMPI PUSH1 0x40 MLOAD PUSH4 0x8DFC202B PUSH1 0xE0 SHL DUP2 MSTORE PUSH1 0x4 ADD PUSH1 0x40 MLOAD DUP1 SWAP2 SUB SWAP1 REVERT JUMPDEST PUSH2 0x1B2C DUP3 PUSH2 0x1BE1 JUMP JUMPDEST PUSH1 0x40 MLOAD PUSH1 0x1 PUSH1 0x1 PUSH1 0xA0 SHL SUB DUP4 AND SWAP1 PUSH32 0xBC7CD75A20EE27FD9ADEBAB32041F755214DBC6BFFA90CC0225B39DA2E5C2D3B SWAP1 PUSH0 SWAP1 LOG2 DUP1 MLOAD ISZERO PUSH2 0x1B70 JUMPI PUSH2 0x790 DUP3 DUP3 PUSH2 0x1C44 JUMP JUMPDEST PUSH2 0x9D3 PUSH2 0x1CB6 JUMP JUMPDEST PUSH32 0xF0C57E16840DF040F15088DC2F81FE391C3923BEC73E23A9662EFC9C229C6A00 SLOAD PUSH1 0x1 PUSH1 0x40 SHL SWAP1 DIV PUSH1 0xFF AND PUSH2 0x182D JUMPI PUSH1 0x40 MLOAD PUSH4 0x1AFCD79F PUSH1 0xE3 SHL DUP2 MSTORE PUSH1 0x4 ADD PUSH1 0x40 MLOAD DUP1 SWAP2 SUB SWAP1 REVERT JUMPDEST PUSH2 0x1BC9 PUSH2 0x1B78 JUMP JUMPDEST PUSH0 DUP1 MLOAD PUSH1 0x20 PUSH2 0x224B DUP4 CODECOPY DUP2 MLOAD SWAP2 MSTORE DUP1 SLOAD PUSH1 0xFF NOT AND SWAP1 SSTORE JUMP JUMPDEST DUP1 PUSH1 0x1 PUSH1 0x1 PUSH1 0xA0 SHL SUB AND EXTCODESIZE PUSH0 SUB PUSH2 0x1C16 JUMPI PUSH1 0x40 MLOAD PUSH4 0x4C9C8CE3 PUSH1 0xE0 SHL DUP2 MSTORE PUSH1 0x1 PUSH1 0x1 PUSH1 0xA0 SHL SUB DUP3 AND PUSH1 0x4 DUP3 ADD MSTORE PUSH1 0x24 ADD PUSH2 0x7DE JUMP JUMPDEST PUSH0 DUP1 MLOAD PUSH1 0x20 PUSH2 0x21EB DUP4 CODECOPY DUP2 MLOAD SWAP2 MSTORE DUP1 SLOAD PUSH1 0x1 PUSH1 0x1 PUSH1 0xA0 SHL SUB NOT AND PUSH1 0x1 PUSH1 0x1 PUSH1 0xA0 SHL SUB SWAP3 SWAP1 SWAP3 AND SWAP2 SWAP1 SWAP2 OR SWAP1 SSTORE JUMP JUMPDEST PUSH1 0x60 PUSH0 DUP1 DUP5 PUSH1 0x1 PUSH1 0x1 PUSH1 0xA0 SHL SUB AND DUP5 PUSH1 0x40 MLOAD PUSH2 0x1C60 SWAP2 SWAP1 PUSH2 0x21D4 JUMP JUMPDEST PUSH0 PUSH1 0x40 MLOAD DUP1 DUP4 SUB DUP2 DUP6 GAS DELEGATECALL SWAP2 POP POP RETURNDATASIZE DUP1 PUSH0 DUP2 EQ PUSH2 0x1C98 JUMPI PUSH1 0x40 MLOAD SWAP2 POP PUSH1 0x1F NOT PUSH1 0x3F RETURNDATASIZE ADD AND DUP3 ADD PUSH1 0x40 MSTORE RETURNDATASIZE DUP3 MSTORE RETURNDATASIZE PUSH0 PUSH1 0x20 DUP5 ADD RETURNDATACOPY PUSH2 0x1C9D JUMP JUMPDEST PUSH1 0x60 SWAP2 POP JUMPDEST POP SWAP2 POP SWAP2 POP PUSH2 0x1CAD DUP6 DUP4 DUP4 PUSH2 0x1CD5 JUMP JUMPDEST SWAP6 SWAP5 POP POP POP POP POP JUMP JUMPDEST CALLVALUE ISZERO PUSH2 0x182D JUMPI PUSH1 0x40 MLOAD PUSH4 0xB398979F PUSH1 0xE0 SHL DUP2 MSTORE PUSH1 0x4 ADD PUSH1 0x40 MLOAD DUP1 SWAP2 SUB SWAP1 REVERT JUMPDEST PUSH1 0x60 DUP3 PUSH2 0x1CEA JUMPI PUSH2 0x1CE5 DUP3 PUSH2 0x1D31 JUMP JUMPDEST PUSH2 0x1881 JUMP JUMPDEST DUP2 MLOAD ISZERO DUP1 ISZERO PUSH2 0x1D01 JUMPI POP PUSH1 0x1 PUSH1 0x1 PUSH1 0xA0 SHL SUB DUP5 AND EXTCODESIZE ISZERO JUMPDEST ISZERO PUSH2 0x1D2A JUMPI PUSH1 0x40 MLOAD PUSH4 0x9996B315 PUSH1 0xE0 SHL DUP2 MSTORE PUSH1 0x1 PUSH1 0x1 PUSH1 0xA0 SHL SUB DUP6 AND PUSH1 0x4 DUP3 ADD MSTORE PUSH1 0x24 ADD PUSH2 0x7DE JUMP JUMPDEST POP DUP1 PUSH2 0x1881 JUMP JUMPDEST DUP1 MLOAD ISZERO PUSH2 0x1D41 JUMPI DUP1 MLOAD DUP1 DUP3 PUSH1 0x20 ADD REVERT JUMPDEST PUSH1 0x40 MLOAD PUSH4 0xA12F521 PUSH1 0xE1 SHL DUP2 MSTORE PUSH1 0x4 ADD PUSH1 0x40 MLOAD DUP1 SWAP2 SUB SWAP1 REVERT JUMPDEST PUSH0 PUSH1 0x20 DUP3 DUP5 SUB SLT ISZERO PUSH2 0x1D6A JUMPI PUSH0 DUP1 REVERT JUMPDEST DUP2 CALLDATALOAD PUSH1 0x1 PUSH1 0x1 PUSH1 0xE0 SHL SUB NOT DUP2 AND DUP2 EQ PUSH2 0x1881 JUMPI PUSH0 DUP1 REVERT JUMPDEST PUSH0 PUSH1 0x20 DUP3 DUP5 SUB SLT ISZERO PUSH2 0x1D91 JUMPI PUSH0 DUP1 REVERT JUMPDEST POP CALLDATALOAD SWAP2 SWAP1 POP JUMP JUMPDEST PUSH1 0x1 PUSH1 0x1 PUSH1 0xA0 SHL SUB DUP2 AND DUP2 EQ PUSH2 0x7B4 JUMPI PUSH0 DUP1 REVERT JUMPDEST PUSH0 DUP1 PUSH1 0x40 DUP4 DUP6 SUB SLT ISZERO PUSH2 0x1DBD JUMPI PUSH0 DUP1 REVERT JUMPDEST DUP3 CALLDATALOAD PUSH2 0x1DC8 DUP2 PUSH2 0x1D98 JUMP JUMPDEST SWAP5 PUSH1 0x20 SWAP4 SWAP1 SWAP4 ADD CALLDATALOAD SWAP4 POP POP POP JUMP JUMPDEST PUSH0 PUSH1 0x20 DUP3 DUP5 SUB SLT ISZERO PUSH2 0x1DE6 JUMPI PUSH0 DUP1 REVERT JUMPDEST DUP2 CALLDATALOAD PUSH2 0x1881 DUP2 PUSH2 0x1D98 JUMP JUMPDEST PUSH0 DUP1 PUSH1 0x40 DUP4 DUP6 SUB SLT ISZERO PUSH2 0x1E02 JUMPI PUSH0 DUP1 REVERT JUMPDEST DUP3 CALLDATALOAD SWAP2 POP PUSH1 0x20 DUP4 ADD CALLDATALOAD PUSH2 0x1E14 DUP2 PUSH2 0x1D98 JUMP JUMPDEST DUP1 SWAP2 POP POP SWAP3 POP SWAP3 SWAP1 POP JUMP JUMPDEST PUSH0 DUP1 PUSH1 0x40 DUP4 DUP6 SUB SLT ISZERO PUSH2 0x1E30 JUMPI PUSH0 DUP1 REVERT JUMPDEST POP POP DUP1 CALLDATALOAD SWAP3 PUSH1 0x20 SWAP1 SWAP2 ADD CALLDATALOAD SWAP2 POP JUMP JUMPDEST PUSH4 0x4E487B71 PUSH1 0xE0 SHL PUSH0 MSTORE PUSH1 0x41 PUSH1 0x4 MSTORE PUSH1 0x24 PUSH0 REVERT JUMPDEST PUSH0 DUP1 PUSH1 0x40 DUP4 DUP6 SUB SLT ISZERO PUSH2 0x1E64 JUMPI PUSH0 DUP1 REVERT JUMPDEST DUP3 CALLDATALOAD PUSH2 0x1E6F DUP2 PUSH2 0x1D98 JUMP JUMPDEST SWAP2 POP PUSH1 0x20 DUP4 ADD CALLDATALOAD PUSH8 0xFFFFFFFFFFFFFFFF DUP2 GT ISZERO PUSH2 0x1E8A JUMPI PUSH0 DUP1 REVERT JUMPDEST DUP4 ADD PUSH1 0x1F DUP2 ADD DUP6 SGT PUSH2 0x1E9A JUMPI PUSH0 DUP1 REVERT JUMPDEST DUP1 CALLDATALOAD PUSH8 0xFFFFFFFFFFFFFFFF DUP2 GT ISZERO PUSH2 0x1EB4 JUMPI PUSH2 0x1EB4 PUSH2 0x1E3F JUMP JUMPDEST PUSH1 0x40 MLOAD PUSH1 0x1F DUP3 ADD PUSH1 0x1F NOT SWAP1 DUP2 AND PUSH1 0x3F ADD AND DUP2 ADD PUSH8 0xFFFFFFFFFFFFFFFF DUP2 GT DUP3 DUP3 LT OR ISZERO PUSH2 0x1EE3 JUMPI PUSH2 0x1EE3 PUSH2 0x1E3F JUMP JUMPDEST PUSH1 0x40 MSTORE DUP2 DUP2 MSTORE DUP3 DUP3 ADD PUSH1 0x20 ADD DUP8 LT ISZERO PUSH2 0x1EFA JUMPI PUSH0 DUP1 REVERT JUMPDEST DUP2 PUSH1 0x20 DUP5 ADD PUSH1 0x20 DUP4 ADD CALLDATACOPY PUSH0 PUSH1 0x20 DUP4 DUP4 ADD ADD MSTORE DUP1 SWAP4 POP POP POP POP SWAP3 POP SWAP3 SWAP1 POP JUMP JUMPDEST PUSH1 0x20 DUP2 MSTORE PUSH0 DUP3 MLOAD DUP1 PUSH1 0x20 DUP5 ADD MSTORE DUP1 PUSH1 0x20 DUP6 ADD PUSH1 0x40 DUP6 ADD MCOPY PUSH0 PUSH1 0x40 DUP3 DUP6 ADD ADD MSTORE PUSH1 0x40 PUSH1 0x1F NOT PUSH1 0x1F DUP4 ADD AND DUP5 ADD ADD SWAP2 POP POP SWAP3 SWAP2 POP POP JUMP JUMPDEST PUSH0 DUP1 PUSH0 PUSH1 0x60 DUP5 DUP7 SUB SLT ISZERO PUSH2 0x1F60 JUMPI PUSH0 DUP1 REVERT JUMPDEST DUP4 CALLDATALOAD PUSH2 0x1F6B DUP2 PUSH2 0x1D98 JUMP JUMPDEST SWAP6 PUSH1 0x20 DUP6 ADD CALLDATALOAD SWAP6 POP PUSH1 0x40 SWAP1 SWAP5 ADD CALLDATALOAD SWAP4 SWAP3 POP POP POP JUMP JUMPDEST PUSH0 DUP1 PUSH0 DUP1 PUSH0 DUP1 PUSH1 0xC0 DUP8 DUP10 SUB SLT ISZERO PUSH2 0x1F95 JUMPI PUSH0 DUP1 REVERT JUMPDEST DUP7 CALLDATALOAD PUSH2 0x1FA0 DUP2 PUSH2 0x1D98 JUMP JUMPDEST SWAP6 POP PUSH1 0x20 DUP8 ADD CALLDATALOAD PUSH2 0x1FB0 DUP2 PUSH2 0x1D98 JUMP JUMPDEST SWAP5 POP PUSH1 0x40 DUP8 ADD CALLDATALOAD PUSH2 0x1FC0 DUP2 PUSH2 0x1D98 JUMP JUMPDEST SWAP4 POP PUSH1 0x60 DUP8 ADD CALLDATALOAD PUSH2 0x1FD0 DUP2 PUSH2 0x1D98 JUMP JUMPDEST SWAP3 POP PUSH1 0x80 DUP8 ADD CALLDATALOAD PUSH2 0x1FE0 DUP2 PUSH2 0x1D98 JUMP JUMPDEST SWAP2 POP PUSH1 0xA0 DUP8 ADD CALLDATALOAD PUSH2 0x1FF0 DUP2 PUSH2 0x1D98 JUMP JUMPDEST DUP1 SWAP2 POP POP SWAP3 SWAP6 POP SWAP3 SWAP6 POP SWAP3 SWAP6 JUMP JUMPDEST PUSH1 0x1 PUSH1 0x1 PUSH1 0xA0 SHL SUB SWAP4 DUP5 AND DUP2 MSTORE SWAP2 SWAP1 SWAP3 AND PUSH1 0x20 DUP3 ADD MSTORE PUSH1 0x40 DUP2 ADD SWAP2 SWAP1 SWAP2 MSTORE PUSH1 0x60 ADD SWAP1 JUMP JUMPDEST PUSH0 PUSH1 0x20 DUP3 DUP5 SUB SLT ISZERO PUSH2 0x2032 JUMPI PUSH0 DUP1 REVERT JUMPDEST DUP2 MLOAD DUP1 ISZERO ISZERO DUP2 EQ PUSH2 0x1881 JUMPI PUSH0 DUP1 REVERT JUMPDEST PUSH1 0x20 DUP1 DUP3 MSTORE PUSH1 0x24 SWAP1 DUP3 ADD MSTORE PUSH32 0x45544820616D6F756E74206D7573742062652067726561746572207468616E20 PUSH1 0x40 DUP3 ADD MSTORE PUSH4 0x7A65726F PUSH1 0xE0 SHL PUSH1 0x60 DUP3 ADD MSTORE PUSH1 0x80 ADD SWAP1 JUMP JUMPDEST PUSH0 PUSH1 0x20 DUP3 DUP5 SUB SLT ISZERO PUSH2 0x2095 JUMPI PUSH0 DUP1 REVERT JUMPDEST DUP2 MLOAD PUSH2 0x1881 DUP2 PUSH2 0x1D98 JUMP JUMPDEST PUSH4 0x4E487B71 PUSH1 0xE0 SHL PUSH0 MSTORE PUSH1 0x11 PUSH1 0x4 MSTORE PUSH1 0x24 PUSH0 REVERT JUMPDEST DUP2 DUP2 SUB DUP2 DUP2 GT ISZERO PUSH2 0x62E JUMPI PUSH2 0x62E PUSH2 0x20A0 JUMP JUMPDEST PUSH1 0x20 DUP1 DUP3 MSTORE PUSH1 0x1B SWAP1 DUP3 ADD MSTORE PUSH32 0x536C69707061676520746F6C6572616E63652065786365656465640000000000 PUSH1 0x40 DUP3 ADD MSTORE PUSH1 0x60 ADD SWAP1 JUMP JUMPDEST PUSH1 0x20 DUP1 DUP3 MSTORE PUSH1 0x16 SWAP1 DUP3 ADD MSTORE PUSH22 0x496E73756666696369656E74206C6971756964697479 PUSH1 0x50 SHL PUSH1 0x40 DUP3 ADD MSTORE PUSH1 0x60 ADD SWAP1 JUMP JUMPDEST DUP1 DUP3 ADD DUP1 DUP3 GT ISZERO PUSH2 0x62E JUMPI PUSH2 0x62E PUSH2 0x20A0 JUMP JUMPDEST PUSH1 0x20 DUP1 DUP3 MSTORE PUSH1 0x26 SWAP1 DUP3 ADD MSTORE PUSH32 0x546F6B656E20616D6F756E74206D757374206265206772656174657220746861 PUSH1 0x40 DUP3 ADD MSTORE PUSH6 0x6E207A65726F PUSH1 0xD0 SHL PUSH1 0x60 DUP3 ADD MSTORE PUSH1 0x80 ADD SWAP1 JUMP JUMPDEST DUP1 DUP3 MUL DUP2 ISZERO DUP3 DUP3 DIV DUP5 EQ OR PUSH2 0x62E JUMPI PUSH2 0x62E PUSH2 0x20A0 JUMP JUMPDEST PUSH0 DUP3 PUSH2 0x21B8 JUMPI PUSH4 0x4E487B71 PUSH1 0xE0 SHL PUSH0 MSTORE PUSH1 0x12 PUSH1 0x4 MSTORE PUSH1 0x24 PUSH0 REVERT JUMPDEST POP DIV SWAP1 JUMP JUMPDEST PUSH0 PUSH1 0x20 DUP3 DUP5 SUB SLT ISZERO PUSH2 0x21CD JUMPI PUSH0 DUP1 REVERT JUMPDEST POP MLOAD SWAP2 SWAP1 POP JUMP JUMPDEST PUSH0 DUP3 MLOAD DUP1 PUSH1 0x20 DUP6 ADD DUP5 MCOPY PUSH0 SWAP3 ADD SWAP2 DUP3 MSTORE POP SWAP2 SWAP1 POP JUMP INVALID CALLDATASIZE ADDMOD SWAP5 LOG1 EXTCODESIZE LOG1 LOG3 0x21 MOD PUSH8 0xC828492DB98DCA3E KECCAK256 PUSH23 0xCC3735A920A3CA505D382BBC65D7A28E3265B37A647492 SWAP16 CALLER PUSH6 0x21B332C1681B SWAP4 EXTCODEHASH PUSH13 0xB9F3376673440D862A02DD7BC7 0xDE 0xC4 0xDC 0xEE 0xDD 0xA7 PUSH22 0xE58DD541E08A116C6C53815C0BD028192F7B626800CD MCOPY 0xD1 TLOAD PUSH15 0x187E77E9AEE88184C21F4F2182AB58 0x27 0xCB EXTCODESIZE PUSH31 0x7FBEDCD63F03300A26469706673582212203F75604EE134227BBE63F60867 SWAP13 0x24 0xB9 0x4C SWAP15 0xC4 LOG3 SWAP2 0xE5 MUL LOG1 0xD1 OR SSTORE SWAP12 0xB5 CREATE CREATE PUSH19 0x64736F6C634300081A00330000000000000000 "
				},
				"gasEstimates": {
					"creation": {
						"codeDepositCost": "1772800",
						"executionCost": "infinite",
						"totalCost": "infinite"
					},
					"external": {
						"DEFAULT_ADMIN_ROLE()": "260",
						"FEE_RATE()": "306",
						"LIQUIDITY_MANAGER_ROLE()": "262",
						"PAUSER_ROLE()": "infinite",
						"UPGRADER_ROLE()": "304",
						"UPGRADE_INTERFACE_VERSION()": "infinite",
						"addLiquidity(address,uint256)": "infinite",
						"cqtNFT()": "2447",
						"cqtToken()": "2403",
						"getRoleAdmin(bytes32)": "infinite",
						"grantRole(bytes32,address)": "infinite",
						"hasRole(bytes32,address)": "infinite",
						"initialize(address,address,address,address,address,address)": "infinite",
						"liquidityPools(address)": "6831",
						"pause()": "infinite",
						"paused()": "infinite",
						"proxiableUUID()": "infinite",
						"removeLiquidity(address,uint256)": "infinite",
						"renounceRole(bytes32,address)": "29182",
						"revokeRole(bytes32,address)": "infinite",
						"supportsInterface(bytes4)": "470",
						"swapETHForNFT(uint256,uint256)": "infinite",
						"swapETHForTokens(address,uint256)": "infinite",
						"swapNFTForETH(uint256,uint256)": "infinite",
						"swapTokensForETH(address,uint256,uint256)": "infinite",
						"unpause()": "infinite",
						"updateLiquidityPool(address,uint256,uint256)": "infinite",
						"upgradeToAndCall(address,bytes)": "infinite",
						"withdrawETH(uint256)": "infinite",
						"withdrawNFT(uint256)": "infinite",
						"withdrawTokens(address,uint256)": "infinite"
					},
					"internal": {
						"_authorizeUpgrade(address)": "infinite",
						"getOutputAmount(uint256,uint256,uint256)": "infinite"
					}
				},
				"methodIdentifiers": {
					"DEFAULT_ADMIN_ROLE()": "a217fddf",
					"FEE_RATE()": "2d11c58a",
					"LIQUIDITY_MANAGER_ROLE()": "242f0551",
					"PAUSER_ROLE()": "e63ab1e9",
					"UPGRADER_ROLE()": "f72c0d8b",
					"UPGRADE_INTERFACE_VERSION()": "ad3cb1cc",
					"addLiquidity(address,uint256)": "56688700",
					"cqtNFT()": "da069683",
					"cqtToken()": "34aab064",
					"getRoleAdmin(bytes32)": "248a9ca3",
					"grantRole(bytes32,address)": "2f2ff15d",
					"hasRole(bytes32,address)": "91d14854",
					"initialize(address,address,address,address,address,address)": "cc2a9a5b",
					"liquidityPools(address)": "0b0fd47e",
					"pause()": "8456cb59",
					"paused()": "5c975abb",
					"proxiableUUID()": "52d1902d",
					"removeLiquidity(address,uint256)": "a201ccf6",
					"renounceRole(bytes32,address)": "36568abe",
					"revokeRole(bytes32,address)": "d547741f",
					"supportsInterface(bytes4)": "01ffc9a7",
					"swapETHForNFT(uint256,uint256)": "49f0346e",
					"swapETHForTokens(address,uint256)": "51422e97",
					"swapNFTForETH(uint256,uint256)": "d9a37ad2",
					"swapTokensForETH(address,uint256,uint256)": "e15cc8da",
					"unpause()": "3f4ba83a",
					"updateLiquidityPool(address,uint256,uint256)": "c7088313",
					"upgradeToAndCall(address,bytes)": "4f1ef286",
					"withdrawETH(uint256)": "f14210a6",
					"withdrawNFT(uint256)": "023245d7",
					"withdrawTokens(address,uint256)": "06b091f9"
				}
			},
			"storageLayout": {
				"storage": [
					{
						"astId": 2085,
						"contract": "src/smartcontracts/CryptoQuestSwap.sol:CryptoQuestSwap",
						"label": "cqtToken",
						"offset": 0,
						"slot": "0",
						"type": "t_contract(IERC20Upgradeable)876"
					},
					{
						"astId": 2088,
						"contract": "src/smartcontracts/CryptoQuestSwap.sol:CryptoQuestSwap",
						"label": "cqtNFT",
						"offset": 0,
						"slot": "1",
						"type": "t_contract(IERC721Upgradeable)992"
					},
					{
						"astId": 2104,
						"contract": "src/smartcontracts/CryptoQuestSwap.sol:CryptoQuestSwap",
						"label": "liquidityPools",
						"offset": 0,
						"slot": "2",
						"type": "t_mapping(t_address,t_struct(LiquidityPool)2099_storage)"
					}
				],
				"types": {
					"t_address": {
						"encoding": "inplace",
						"label": "address",
						"numberOfBytes": "20"
					},
					"t_contract(IERC20Upgradeable)876": {
						"encoding": "inplace",
						"label": "contract IERC20Upgradeable",
						"numberOfBytes": "20"
					},
					"t_contract(IERC721Upgradeable)992": {
						"encoding": "inplace",
						"label": "contract IERC721Upgradeable",
						"numberOfBytes": "20"
					},
					"t_mapping(t_address,t_struct(LiquidityPool)2099_storage)": {
						"encoding": "mapping",
						"key": "t_address",
						"label": "mapping(address => struct CryptoQuestSwap.LiquidityPool)",
						"numberOfBytes": "32",
						"value": "t_struct(LiquidityPool)2099_storage"
					},
					"t_mapping(t_address,t_uint256)": {
						"encoding": "mapping",
						"key": "t_address",
						"label": "mapping(address => uint256)",
						"numberOfBytes": "32",
						"value": "t_uint256"
					},
					"t_struct(LiquidityPool)2099_storage": {
						"encoding": "inplace",
						"label": "struct CryptoQuestSwap.LiquidityPool",
						"members": [
							{
								"astId": 2090,
								"contract": "src/smartcontracts/CryptoQuestSwap.sol:CryptoQuestSwap",
								"label": "tokenAmount",
								"offset": 0,
								"slot": "0",
								"type": "t_uint256"
							},
							{
								"astId": 2092,
								"contract": "src/smartcontracts/CryptoQuestSwap.sol:CryptoQuestSwap",
								"label": "ethAmount",
								"offset": 0,
								"slot": "1",
								"type": "t_uint256"
							},
							{
								"astId": 2094,
								"contract": "src/smartcontracts/CryptoQuestSwap.sol:CryptoQuestSwap",
								"label": "totalLiquidity",
								"offset": 0,
								"slot": "2",
								"type": "t_uint256"
							},
							{
								"astId": 2098,
								"contract": "src/smartcontracts/CryptoQuestSwap.sol:CryptoQuestSwap",
								"label": "liquidity",
								"offset": 0,
								"slot": "3",
								"type": "t_mapping(t_address,t_uint256)"
							}
						],
						"numberOfBytes": "128"
					},
					"t_uint256": {
						"encoding": "inplace",
						"label": "uint256",
						"numberOfBytes": "32"
					}
				}
			},
			"userdoc": {
				"kind": "user",
				"methods": {},
				"version": 1
			}
		}
	}
}