{
	"src/smartcontracts/CryptoQuestTheShardsOfGenesisWallet.sol": {
		"CryptoQuestTheShardsOfGenesisWallet": {
			"abi": [
				{
					"inputs": [],
					"stateMutability": "nonpayable",
					"type": "constructor"
				},
				{
					"inputs": [],
					"name": "AccessControlBadConfirmation",
					"type": "error"
				},
				{
					"inputs": [
						{
							"internalType": "address",
							"name": "account",
							"type": "address"
						},
						{
							"internalType": "bytes32",
							"name": "neededRole",
							"type": "bytes32"
						}
					],
					"name": "AccessControlUnauthorizedAccount",
					"type": "error"
				},
				{
					"inputs": [
						{
							"internalType": "address",
							"name": "target",
							"type": "address"
						}
					],
					"name": "AddressEmptyCode",
					"type": "error"
				},
				{
					"inputs": [
						{
							"internalType": "address",
							"name": "implementation",
							"type": "address"
						}
					],
					"name": "ERC1967InvalidImplementation",
					"type": "error"
				},
				{
					"inputs": [],
					"name": "ERC1967NonPayable",
					"type": "error"
				},
				{
					"inputs": [],
					"name": "FailedInnerCall",
					"type": "error"
				},
				{
					"inputs": [],
					"name": "InvalidInitialization",
					"type": "error"
				},
				{
					"inputs": [],
					"name": "NotInitializing",
					"type": "error"
				},
				{
					"inputs": [],
					"name": "UUPSUnauthorizedCallContext",
					"type": "error"
				},
				{
					"inputs": [
						{
							"internalType": "bytes32",
							"name": "slot",
							"type": "bytes32"
						}
					],
					"name": "UUPSUnsupportedProxiableUUID",
					"type": "error"
				},
				{
					"anonymous": false,
					"inputs": [
						{
							"indexed": false,
							"internalType": "uint64",
							"name": "version",
							"type": "uint64"
						}
					],
					"name": "Initialized",
					"type": "event"
				},
				{
					"anonymous": false,
					"inputs": [
						{
							"indexed": false,
							"internalType": "address",
							"name": "account",
							"type": "address"
						}
					],
					"name": "Paused",
					"type": "event"
				},
				{
					"anonymous": false,
					"inputs": [
						{
							"indexed": true,
							"internalType": "bytes32",
							"name": "role",
							"type": "bytes32"
						},
						{
							"indexed": true,
							"internalType": "bytes32",
							"name": "previousAdminRole",
							"type": "bytes32"
						},
						{
							"indexed": true,
							"internalType": "bytes32",
							"name": "newAdminRole",
							"type": "bytes32"
						}
					],
					"name": "RoleAdminChanged",
					"type": "event"
				},
				{
					"anonymous": false,
					"inputs": [
						{
							"indexed": true,
							"internalType": "bytes32",
							"name": "role",
							"type": "bytes32"
						},
						{
							"indexed": true,
							"internalType": "address",
							"name": "account",
							"type": "address"
						},
						{
							"indexed": true,
							"internalType": "address",
							"name": "sender",
							"type": "address"
						}
					],
					"name": "RoleGranted",
					"type": "event"
				},
				{
					"anonymous": false,
					"inputs": [
						{
							"indexed": true,
							"internalType": "bytes32",
							"name": "role",
							"type": "bytes32"
						},
						{
							"indexed": true,
							"internalType": "address",
							"name": "account",
							"type": "address"
						},
						{
							"indexed": true,
							"internalType": "address",
							"name": "sender",
							"type": "address"
						}
					],
					"name": "RoleRevoked",
					"type": "event"
				},
				{
					"anonymous": false,
					"inputs": [
						{
							"indexed": true,
							"internalType": "address",
							"name": "user",
							"type": "address"
						},
						{
							"indexed": false,
							"internalType": "uint256",
							"name": "amount",
							"type": "uint256"
						},
						{
							"indexed": false,
							"internalType": "uint256",
							"name": "startTime",
							"type": "uint256"
						}
					],
					"name": "TokensStaked",
					"type": "event"
				},
				{
					"anonymous": false,
					"inputs": [
						{
							"indexed": true,
							"internalType": "address",
							"name": "user",
							"type": "address"
						},
						{
							"indexed": false,
							"internalType": "uint256",
							"name": "amount",
							"type": "uint256"
						},
						{
							"indexed": false,
							"internalType": "uint256",
							"name": "reward",
							"type": "uint256"
						}
					],
					"name": "TokensUnstaked",
					"type": "event"
				},
				{
					"anonymous": false,
					"inputs": [
						{
							"indexed": true,
							"internalType": "address",
							"name": "owner",
							"type": "address"
						},
						{
							"indexed": true,
							"internalType": "uint256",
							"name": "txIndex",
							"type": "uint256"
						}
					],
					"name": "TransactionConfirmed",
					"type": "event"
				},
				{
					"anonymous": false,
					"inputs": [
						{
							"indexed": true,
							"internalType": "uint256",
							"name": "txIndex",
							"type": "uint256"
						}
					],
					"name": "TransactionExecuted",
					"type": "event"
				},
				{
					"anonymous": false,
					"inputs": [
						{
							"indexed": true,
							"internalType": "address",
							"name": "owner",
							"type": "address"
						},
						{
							"indexed": true,
							"internalType": "uint256",
							"name": "txIndex",
							"type": "uint256"
						}
					],
					"name": "TransactionRevoked",
					"type": "event"
				},
				{
					"anonymous": false,
					"inputs": [
						{
							"indexed": true,
							"internalType": "uint256",
							"name": "txIndex",
							"type": "uint256"
						}
					],
					"name": "TransactionSubmitted",
					"type": "event"
				},
				{
					"anonymous": false,
					"inputs": [
						{
							"indexed": false,
							"internalType": "address",
							"name": "account",
							"type": "address"
						}
					],
					"name": "Unpaused",
					"type": "event"
				},
				{
					"anonymous": false,
					"inputs": [
						{
							"indexed": true,
							"internalType": "address",
							"name": "implementation",
							"type": "address"
						}
					],
					"name": "Upgraded",
					"type": "event"
				},
				{
					"inputs": [],
					"name": "ADMIN_ROLE",
					"outputs": [
						{
							"internalType": "bytes32",
							"name": "",
							"type": "bytes32"
						}
					],
					"stateMutability": "view",
					"type": "function"
				},
				{
					"inputs": [],
					"name": "DEFAULT_ADMIN_ROLE",
					"outputs": [
						{
							"internalType": "bytes32",
							"name": "",
							"type": "bytes32"
						}
					],
					"stateMutability": "view",
					"type": "function"
				},
				{
					"inputs": [],
					"name": "PAUSER_ROLE",
					"outputs": [
						{
							"internalType": "bytes32",
							"name": "",
							"type": "bytes32"
						}
					],
					"stateMutability": "view",
					"type": "function"
				},
				{
					"inputs": [],
					"name": "UPGRADER_ROLE",
					"outputs": [
						{
							"internalType": "bytes32",
							"name": "",
							"type": "bytes32"
						}
					],
					"stateMutability": "view",
					"type": "function"
				},
				{
					"inputs": [],
					"name": "UPGRADE_INTERFACE_VERSION",
					"outputs": [
						{
							"internalType": "string",
							"name": "",
							"type": "string"
						}
					],
					"stateMutability": "view",
					"type": "function"
				},
				{
					"inputs": [
						{
							"internalType": "uint256",
							"name": "_txIndex",
							"type": "uint256"
						}
					],
					"name": "confirmTransaction",
					"outputs": [],
					"stateMutability": "nonpayable",
					"type": "function"
				},
				{
					"inputs": [],
					"name": "daoAddress",
					"outputs": [
						{
							"internalType": "address",
							"name": "",
							"type": "address"
						}
					],
					"stateMutability": "view",
					"type": "function"
				},
				{
					"inputs": [],
					"name": "erc1155Address",
					"outputs": [
						{
							"internalType": "address",
							"name": "",
							"type": "address"
						}
					],
					"stateMutability": "view",
					"type": "function"
				},
				{
					"inputs": [],
					"name": "erc20Address",
					"outputs": [
						{
							"internalType": "address",
							"name": "",
							"type": "address"
						}
					],
					"stateMutability": "view",
					"type": "function"
				},
				{
					"inputs": [],
					"name": "erc721Address",
					"outputs": [
						{
							"internalType": "address",
							"name": "",
							"type": "address"
						}
					],
					"stateMutability": "view",
					"type": "function"
				},
				{
					"inputs": [
						{
							"internalType": "uint256",
							"name": "_txIndex",
							"type": "uint256"
						}
					],
					"name": "executeTransaction",
					"outputs": [],
					"stateMutability": "nonpayable",
					"type": "function"
				},
				{
					"inputs": [],
					"name": "farmingAddress",
					"outputs": [
						{
							"internalType": "address",
							"name": "",
							"type": "address"
						}
					],
					"stateMutability": "view",
					"type": "function"
				},
				{
					"inputs": [
						{
							"internalType": "bytes32",
							"name": "role",
							"type": "bytes32"
						}
					],
					"name": "getRoleAdmin",
					"outputs": [
						{
							"internalType": "bytes32",
							"name": "",
							"type": "bytes32"
						}
					],
					"stateMutability": "view",
					"type": "function"
				},
				{
					"inputs": [
						{
							"internalType": "bytes32",
							"name": "role",
							"type": "bytes32"
						},
						{
							"internalType": "address",
							"name": "account",
							"type": "address"
						}
					],
					"name": "grantRole",
					"outputs": [],
					"stateMutability": "nonpayable",
					"type": "function"
				},
				{
					"inputs": [
						{
							"internalType": "bytes32",
							"name": "role",
							"type": "bytes32"
						},
						{
							"internalType": "address",
							"name": "account",
							"type": "address"
						}
					],
					"name": "hasRole",
					"outputs": [
						{
							"internalType": "bool",
							"name": "",
							"type": "bool"
						}
					],
					"stateMutability": "view",
					"type": "function"
				},
				{
					"inputs": [
						{
							"internalType": "address",
							"name": "admin",
							"type": "address"
						},
						{
							"internalType": "uint256",
							"name": "_requiredConfirmations",
							"type": "uint256"
						},
						{
							"internalType": "uint256",
							"name": "_stakingRate",
							"type": "uint256"
						},
						{
							"internalType": "address",
							"name": "_erc20Address",
							"type": "address"
						},
						{
							"internalType": "address",
							"name": "_erc721Address",
							"type": "address"
						},
						{
							"internalType": "address",
							"name": "_erc1155Address",
							"type": "address"
						},
						{
							"internalType": "address",
							"name": "_daoAddress",
							"type": "address"
						},
						{
							"internalType": "address",
							"name": "_stakingAddress",
							"type": "address"
						},
						{
							"internalType": "address",
							"name": "_farmingAddress",
							"type": "address"
						}
					],
					"name": "initialize",
					"outputs": [],
					"stateMutability": "nonpayable",
					"type": "function"
				},
				{
					"inputs": [
						{
							"internalType": "uint256",
							"name": "",
							"type": "uint256"
						},
						{
							"internalType": "address",
							"name": "",
							"type": "address"
						}
					],
					"name": "isConfirmed",
					"outputs": [
						{
							"internalType": "bool",
							"name": "",
							"type": "bool"
						}
					],
					"stateMutability": "view",
					"type": "function"
				},
				{
					"inputs": [],
					"name": "pause",
					"outputs": [],
					"stateMutability": "nonpayable",
					"type": "function"
				},
				{
					"inputs": [],
					"name": "paused",
					"outputs": [
						{
							"internalType": "bool",
							"name": "",
							"type": "bool"
						}
					],
					"stateMutability": "view",
					"type": "function"
				},
				{
					"inputs": [],
					"name": "proxiableUUID",
					"outputs": [
						{
							"internalType": "bytes32",
							"name": "",
							"type": "bytes32"
						}
					],
					"stateMutability": "view",
					"type": "function"
				},
				{
					"inputs": [
						{
							"internalType": "bytes32",
							"name": "role",
							"type": "bytes32"
						},
						{
							"internalType": "address",
							"name": "callerConfirmation",
							"type": "address"
						}
					],
					"name": "renounceRole",
					"outputs": [],
					"stateMutability": "nonpayable",
					"type": "function"
				},
				{
					"inputs": [],
					"name": "requiredConfirmations",
					"outputs": [
						{
							"internalType": "uint256",
							"name": "",
							"type": "uint256"
						}
					],
					"stateMutability": "view",
					"type": "function"
				},
				{
					"inputs": [
						{
							"internalType": "uint256",
							"name": "_txIndex",
							"type": "uint256"
						}
					],
					"name": "revokeConfirmation",
					"outputs": [],
					"stateMutability": "nonpayable",
					"type": "function"
				},
				{
					"inputs": [
						{
							"internalType": "bytes32",
							"name": "role",
							"type": "bytes32"
						},
						{
							"internalType": "address",
							"name": "account",
							"type": "address"
						}
					],
					"name": "revokeRole",
					"outputs": [],
					"stateMutability": "nonpayable",
					"type": "function"
				},
				{
					"inputs": [
						{
							"internalType": "address",
							"name": "_daoAddress",
							"type": "address"
						}
					],
					"name": "setDAOAddress",
					"outputs": [],
					"stateMutability": "nonpayable",
					"type": "function"
				},
				{
					"inputs": [
						{
							"internalType": "address",
							"name": "_erc1155Address",
							"type": "address"
						}
					],
					"name": "setERC1155Address",
					"outputs": [],
					"stateMutability": "nonpayable",
					"type": "function"
				},
				{
					"inputs": [
						{
							"internalType": "address",
							"name": "_erc20Address",
							"type": "address"
						}
					],
					"name": "setERC20Address",
					"outputs": [],
					"stateMutability": "nonpayable",
					"type": "function"
				},
				{
					"inputs": [
						{
							"internalType": "address",
							"name": "_erc721Address",
							"type": "address"
						}
					],
					"name": "setERC721Address",
					"outputs": [],
					"stateMutability": "nonpayable",
					"type": "function"
				},
				{
					"inputs": [
						{
							"internalType": "address",
							"name": "_farmingAddress",
							"type": "address"
						}
					],
					"name": "setFarmingAddress",
					"outputs": [],
					"stateMutability": "nonpayable",
					"type": "function"
				},
				{
					"inputs": [
						{
							"internalType": "address",
							"name": "_stakingAddress",
							"type": "address"
						}
					],
					"name": "setStakingAddress",
					"outputs": [],
					"stateMutability": "nonpayable",
					"type": "function"
				},
				{
					"inputs": [
						{
							"internalType": "uint256",
							"name": "_amount",
							"type": "uint256"
						}
					],
					"name": "stakeTokens",
					"outputs": [],
					"stateMutability": "nonpayable",
					"type": "function"
				},
				{
					"inputs": [
						{
							"internalType": "address",
							"name": "",
							"type": "address"
						}
					],
					"name": "stakes",
					"outputs": [
						{
							"internalType": "uint256",
							"name": "amount",
							"type": "uint256"
						},
						{
							"internalType": "uint256",
							"name": "startTime",
							"type": "uint256"
						}
					],
					"stateMutability": "view",
					"type": "function"
				},
				{
					"inputs": [],
					"name": "stakingAddress",
					"outputs": [
						{
							"internalType": "address",
							"name": "",
							"type": "address"
						}
					],
					"stateMutability": "view",
					"type": "function"
				},
				{
					"inputs": [],
					"name": "stakingRate",
					"outputs": [
						{
							"internalType": "uint256",
							"name": "",
							"type": "uint256"
						}
					],
					"stateMutability": "view",
					"type": "function"
				},
				{
					"inputs": [
						{
							"internalType": "address",
							"name": "_to",
							"type": "address"
						},
						{
							"internalType": "uint256",
							"name": "_value",
							"type": "uint256"
						},
						{
							"internalType": "bytes",
							"name": "_data",
							"type": "bytes"
						}
					],
					"name": "submitTransaction",
					"outputs": [],
					"stateMutability": "nonpayable",
					"type": "function"
				},
				{
					"inputs": [
						{
							"internalType": "bytes4",
							"name": "interfaceId",
							"type": "bytes4"
						}
					],
					"name": "supportsInterface",
					"outputs": [
						{
							"internalType": "bool",
							"name": "",
							"type": "bool"
						}
					],
					"stateMutability": "view",
					"type": "function"
				},
				{
					"inputs": [
						{
							"internalType": "uint256",
							"name": "",
							"type": "uint256"
						}
					],
					"name": "transactions",
					"outputs": [
						{
							"internalType": "address",
							"name": "to",
							"type": "address"
						},
						{
							"internalType": "uint256",
							"name": "value",
							"type": "uint256"
						},
						{
							"internalType": "bytes",
							"name": "data",
							"type": "bytes"
						},
						{
							"internalType": "bool",
							"name": "executed",
							"type": "bool"
						},
						{
							"internalType": "uint256",
							"name": "numConfirmations",
							"type": "uint256"
						}
					],
					"stateMutability": "view",
					"type": "function"
				},
				{
					"inputs": [],
					"name": "unpause",
					"outputs": [],
					"stateMutability": "nonpayable",
					"type": "function"
				},
				{
					"inputs": [],
					"name": "unstakeTokens",
					"outputs": [],
					"stateMutability": "nonpayable",
					"type": "function"
				},
				{
					"inputs": [
						{
							"internalType": "address",
							"name": "newImplementation",
							"type": "address"
						},
						{
							"internalType": "bytes",
							"name": "data",
							"type": "bytes"
						}
					],
					"name": "upgradeToAndCall",
					"outputs": [],
					"stateMutability": "payable",
					"type": "function"
				},
				{
					"stateMutability": "payable",
					"type": "receive"
				}
			],
			"devdoc": {
				"errors": {
					"AccessControlBadConfirmation()": [
						{
							"details": "The caller of a function is not the expected one. NOTE: Don't confuse with {AccessControlUnauthorizedAccount}."
						}
					],
					"AccessControlUnauthorizedAccount(address,bytes32)": [
						{
							"details": "The `account` is missing a role."
						}
					],
					"AddressEmptyCode(address)": [
						{
							"details": "There's no code at `target` (it is not a contract)."
						}
					],
					"ERC1967InvalidImplementation(address)": [
						{
							"details": "The `implementation` of the proxy is invalid."
						}
					],
					"ERC1967NonPayable()": [
						{
							"details": "An upgrade function sees `msg.value > 0` that may be lost."
						}
					],
					"FailedInnerCall()": [
						{
							"details": "A call to an address target failed. The target may have reverted."
						}
					],
					"InvalidInitialization()": [
						{
							"details": "The contract is already initialized."
						}
					],
					"NotInitializing()": [
						{
							"details": "The contract is not initializing."
						}
					],
					"UUPSUnauthorizedCallContext()": [
						{
							"details": "The call is from an unauthorized context."
						}
					],
					"UUPSUnsupportedProxiableUUID(bytes32)": [
						{
							"details": "The storage `slot` is unsupported as a UUID."
						}
					]
				},
				"events": {
					"Initialized(uint64)": {
						"details": "Triggered when the contract has been initialized or reinitialized."
					},
					"Paused(address)": {
						"details": "Emitted when the pause is triggered by `account`."
					},
					"RoleAdminChanged(bytes32,bytes32,bytes32)": {
						"details": "Emitted when `newAdminRole` is set as ``role``'s admin role, replacing `previousAdminRole` `DEFAULT_ADMIN_ROLE` is the starting admin for all roles, despite {RoleAdminChanged} not being emitted signaling this."
					},
					"RoleGranted(bytes32,address,address)": {
						"details": "Emitted when `account` is granted `role`. `sender` is the account that originated the contract call, an admin role bearer except when using {AccessControl-_setupRole}."
					},
					"RoleRevoked(bytes32,address,address)": {
						"details": "Emitted when `account` is revoked `role`. `sender` is the account that originated the contract call:   - if using `revokeRole`, it is the admin role bearer   - if using `renounceRole`, it is the role bearer (i.e. `account`)"
					},
					"Unpaused(address)": {
						"details": "Emitted when the pause is lifted by `account`."
					},
					"Upgraded(address)": {
						"details": "Emitted when the implementation is upgraded."
					}
				},
				"kind": "dev",
				"methods": {
					"constructor": {
						"custom:oz-upgrades-unsafe-allow": "constructor"
					},
					"getRoleAdmin(bytes32)": {
						"details": "Returns the admin role that controls `role`. See {grantRole} and {revokeRole}. To change a role's admin, use {_setRoleAdmin}."
					},
					"grantRole(bytes32,address)": {
						"details": "Grants `role` to `account`. If `account` had not been already granted `role`, emits a {RoleGranted} event. Requirements: - the caller must have ``role``'s admin role. May emit a {RoleGranted} event."
					},
					"hasRole(bytes32,address)": {
						"details": "Returns `true` if `account` has been granted `role`."
					},
					"paused()": {
						"details": "Returns true if the contract is paused, and false otherwise."
					},
					"proxiableUUID()": {
						"details": "Implementation of the ERC1822 {proxiableUUID} function. This returns the storage slot used by the implementation. It is used to validate the implementation's compatibility when performing an upgrade. IMPORTANT: A proxy pointing at a proxiable contract should not be considered proxiable itself, because this risks bricking a proxy that upgrades to it, by delegating to itself until out of gas. Thus it is critical that this function revert if invoked through a proxy. This is guaranteed by the `notDelegated` modifier."
					},
					"renounceRole(bytes32,address)": {
						"details": "Revokes `role` from the calling account. Roles are often managed via {grantRole} and {revokeRole}: this function's purpose is to provide a mechanism for accounts to lose their privileges if they are compromised (such as when a trusted device is misplaced). If the calling account had been revoked `role`, emits a {RoleRevoked} event. Requirements: - the caller must be `callerConfirmation`. May emit a {RoleRevoked} event."
					},
					"revokeRole(bytes32,address)": {
						"details": "Revokes `role` from `account`. If `account` had been granted `role`, emits a {RoleRevoked} event. Requirements: - the caller must have ``role``'s admin role. May emit a {RoleRevoked} event."
					},
					"supportsInterface(bytes4)": {
						"details": "See {IERC165-supportsInterface}."
					},
					"upgradeToAndCall(address,bytes)": {
						"custom:oz-upgrades-unsafe-allow-reachable": "delegatecall",
						"details": "Upgrade the implementation of the proxy to `newImplementation`, and subsequently execute the function call encoded in `data`. Calls {_authorizeUpgrade}. Emits an {Upgraded} event."
					}
				},
				"version": 1
			},
			"evm": {
				"assembly": "    /* \"src/smartcontracts/CryptoQuestTheShardsOfGenesisWallet.sol\":852:7779  contract CryptoQuestTheShardsOfGenesisWallet is Initializable, AccessControlUpgradeable, PausableUpgradeable, UUPSUpgradeable {... */\n  mstore(0x40, 0xa0)\n    /* \"@openzeppelin/contracts-upgradeable/proxy/utils/UUPSUpgradeable.sol\":1171:1175  this */\n  address\n    /* \"@openzeppelin/contracts-upgradeable/proxy/utils/UUPSUpgradeable.sol\":1128:1176  address private immutable __self = address(this) */\n  0x80\n  mstore\n    /* \"src/smartcontracts/CryptoQuestTheShardsOfGenesisWallet.sol\":2483:2536  constructor() {... */\n  callvalue\n  dup1\n  iszero\n  tag_1\n  jumpi\n  0x00\n  dup1\n  revert\ntag_1:\n  pop\n    /* \"src/smartcontracts/CryptoQuestTheShardsOfGenesisWallet.sol\":2507:2529  _disableInitializers() */\n  tag_4\n    /* \"src/smartcontracts/CryptoQuestTheShardsOfGenesisWallet.sol\":2507:2527  _disableInitializers */\n  tag_5\n    /* \"src/smartcontracts/CryptoQuestTheShardsOfGenesisWallet.sol\":2507:2529  _disableInitializers() */\n  jump\t// in\ntag_4:\n    /* \"src/smartcontracts/CryptoQuestTheShardsOfGenesisWallet.sol\":852:7779  contract CryptoQuestTheShardsOfGenesisWallet is Initializable, AccessControlUpgradeable, PausableUpgradeable, UUPSUpgradeable {... */\n  jump(tag_15)\n    /* \"@openzeppelin/contracts-upgradeable/proxy/utils/Initializable.sol\":7711:8133  function _disableInitializers() internal virtual {... */\ntag_5:\n    /* \"@openzeppelin/contracts-upgradeable/proxy/utils/Initializable.sol\":8870:8891  INITIALIZABLE_STORAGE */\n  0xf0c57e16840df040f15088dc2f81fe391c3923bec73e23a9662efc9c229c6a00\n    /* \"@openzeppelin/contracts-upgradeable/proxy/utils/Initializable.sol\":7900:7915  $._initializing */\n  dup1\n  sload\n  0x010000000000000000\n  swap1\n  div\n  0xff\n  and\n    /* \"@openzeppelin/contracts-upgradeable/proxy/utils/Initializable.sol\":7896:7972  if ($._initializing) {... */\n  iszero\n  tag_10\n  jumpi\n    /* \"@openzeppelin/contracts-upgradeable/proxy/utils/Initializable.sol\":7938:7961  InvalidInitialization() */\n  mload(0x40)\n  shl(0xe0, 0xf92ee8a9)\n  dup2\n  mstore\n  0x04\n  add\n  mload(0x40)\n  dup1\n  swap2\n  sub\n  swap1\n  revert\n    /* \"@openzeppelin/contracts-upgradeable/proxy/utils/Initializable.sol\":7896:7972  if ($._initializing) {... */\ntag_10:\n    /* \"@openzeppelin/contracts-upgradeable/proxy/utils/Initializable.sol\":7985:7999  $._initialized */\n  dup1\n  sload\n  sub(shl(0x40, 0x01), 0x01)\n  swap1\n  dup2\n  and\n    /* \"@openzeppelin/contracts-upgradeable/proxy/utils/Initializable.sol\":7985:8019  $._initialized != type(uint64).max */\n  eq\n    /* \"@openzeppelin/contracts-upgradeable/proxy/utils/Initializable.sol\":7981:8127  if ($._initialized != type(uint64).max) {... */\n  tag_11\n  jumpi\n    /* \"@openzeppelin/contracts-upgradeable/proxy/utils/Initializable.sol\":8035:8068  $._initialized = type(uint64).max */\n  dup1\n  sload\n  not(sub(shl(0x40, 0x01), 0x01))\n  and\n  sub(shl(0x40, 0x01), 0x01)\n  swap1\n  dup2\n  or\n  dup3\n  sstore\n    /* \"@openzeppelin/contracts-upgradeable/proxy/utils/Initializable.sol\":8087:8116  Initialized(type(uint64).max) */\n  mload(0x40)\n    /* \"#utility.yul\":158:208   */\n  swap1\n  dup2\n  mstore\n    /* \"@openzeppelin/contracts-upgradeable/proxy/utils/Initializable.sol\":8087:8116  Initialized(type(uint64).max) */\n  0xc7f505b2f371ae2175ee4913f4499e1f2633a7b5936321eed1cdaeb6115181d2\n  swap1\n    /* \"#utility.yul\":146:148   */\n  0x20\n    /* \"#utility.yul\":131:149   */\n  add\n    /* \"@openzeppelin/contracts-upgradeable/proxy/utils/Initializable.sol\":8087:8116  Initialized(type(uint64).max) */\n  mload(0x40)\n  dup1\n  swap2\n  sub\n  swap1\n  log1\n    /* \"@openzeppelin/contracts-upgradeable/proxy/utils/Initializable.sol\":7981:8127  if ($._initialized != type(uint64).max) {... */\ntag_11:\n    /* \"@openzeppelin/contracts-upgradeable/proxy/utils/Initializable.sol\":7760:8133  {... */\n  pop\n    /* \"@openzeppelin/contracts-upgradeable/proxy/utils/Initializable.sol\":7711:8133  function _disableInitializers() internal virtual {... */\n  jump\t// out\n    /* \"#utility.yul\":14:214   */\ntag_15:\n    /* \"src/smartcontracts/CryptoQuestTheShardsOfGenesisWallet.sol\":852:7779  contract CryptoQuestTheShardsOfGenesisWallet is Initializable, AccessControlUpgradeable, PausableUpgradeable, UUPSUpgradeable {... */\n  mload(0x80)\n  codecopy(0x00, dataOffset(sub_0), dataSize(sub_0))\n  0x00\n  assignImmutable(\"0x3b04ad91523c4dcf551e081621e633b9099d51bf9c5461e58c3bc7354a578b27\")\n  return(0x00, dataSize(sub_0))\nstop\n\nsub_0: assembly {\n        /* \"src/smartcontracts/CryptoQuestTheShardsOfGenesisWallet.sol\":852:7779  contract CryptoQuestTheShardsOfGenesisWallet is Initializable, AccessControlUpgradeable, PausableUpgradeable, UUPSUpgradeable {... */\n      mstore(0x40, 0x80)\n      jumpi(tag_1, lt(calldatasize, 0x04))\n      shr(0xe0, calldataload(0x00))\n      dup1\n      0x8456cb59\n      gt\n      tag_43\n      jumpi\n      dup1\n      0xc01a8c84\n      gt\n      tag_44\n      jumpi\n      dup1\n      0xd836fc6f\n      gt\n      tag_45\n      jumpi\n      dup1\n      0xd836fc6f\n      eq\n      tag_38\n      jumpi\n      dup1\n      0xe63ab1e9\n      eq\n      tag_39\n      jumpi\n      dup1\n      0xee22610b\n      eq\n      tag_40\n      jumpi\n      dup1\n      0xf4e0d9ac\n      eq\n      tag_41\n      jumpi\n      dup1\n      0xf72c0d8b\n      eq\n      tag_42\n      jumpi\n      0x00\n      dup1\n      revert\n    tag_45:\n      dup1\n      0xc01a8c84\n      eq\n      tag_33\n      jumpi\n      dup1\n      0xc63a6ad2\n      eq\n      tag_34\n      jumpi\n      dup1\n      0xc6427474\n      eq\n      tag_35\n      jumpi\n      dup1\n      0xd547741f\n      eq\n      tag_36\n      jumpi\n      dup1\n      0xd7b4be24\n      eq\n      tag_37\n      jumpi\n      0x00\n      dup1\n      revert\n    tag_44:\n      dup1\n      0x9ace38c2\n      gt\n      tag_46\n      jumpi\n      dup1\n      0x9ace38c2\n      eq\n      tag_28\n      jumpi\n      dup1\n      0xa217fddf\n      eq\n      tag_29\n      jumpi\n      dup1\n      0xa5ce413b\n      eq\n      tag_30\n      jumpi\n      dup1\n      0xad3cb1cc\n      eq\n      tag_31\n      jumpi\n      dup1\n      0xb001f618\n      eq\n      tag_32\n      jumpi\n      0x00\n      dup1\n      revert\n    tag_46:\n      dup1\n      0x8456cb59\n      eq\n      tag_23\n      jumpi\n      dup1\n      0x8a2ade58\n      eq\n      tag_24\n      jumpi\n      dup1\n      0x91d14854\n      eq\n      tag_25\n      jumpi\n      dup1\n      0x965afa89\n      eq\n      tag_26\n      jumpi\n      dup1\n      0x9a03d9a3\n      eq\n      tag_27\n      jumpi\n      0x00\n      dup1\n      revert\n    tag_43:\n      dup1\n      0x3f4ba83a\n      gt\n      tag_47\n      jumpi\n      dup1\n      0x63447471\n      gt\n      tag_48\n      jumpi\n      dup1\n      0x63447471\n      eq\n      tag_18\n      jumpi\n      dup1\n      0x7547c7a3\n      eq\n      tag_19\n      jumpi\n      dup1\n      0x75b238fc\n      eq\n      tag_20\n      jumpi\n      dup1\n      0x80f59a65\n      eq\n      tag_21\n      jumpi\n      dup1\n      0x82e717f7\n      eq\n      tag_22\n      jumpi\n      0x00\n      dup1\n      revert\n    tag_48:\n      dup1\n      0x3f4ba83a\n      eq\n      tag_13\n      jumpi\n      dup1\n      0x41bec0d2\n      eq\n      tag_14\n      jumpi\n      dup1\n      0x4f1ef286\n      eq\n      tag_15\n      jumpi\n      dup1\n      0x52d1902d\n      eq\n      tag_16\n      jumpi\n      dup1\n      0x5c975abb\n      eq\n      tag_17\n      jumpi\n      0x00\n      dup1\n      revert\n    tag_47:\n      dup1\n      0x2352a864\n      gt\n      tag_49\n      jumpi\n      dup1\n      0x2352a864\n      eq\n      tag_8\n      jumpi\n      dup1\n      0x248a9ca3\n      eq\n      tag_9\n      jumpi\n      dup1\n      0x276184ae\n      eq\n      tag_10\n      jumpi\n      dup1\n      0x2f2ff15d\n      eq\n      tag_11\n      jumpi\n      dup1\n      0x36568abe\n      eq\n      tag_12\n      jumpi\n      0x00\n      dup1\n      revert\n    tag_49:\n      dup1\n      0x01ffc9a7\n      eq\n      tag_3\n      jumpi\n      dup1\n      0x05142002\n      eq\n      tag_4\n      jumpi\n      dup1\n      0x16934fc4\n      eq\n      tag_5\n      jumpi\n      dup1\n      0x20ea8d86\n      eq\n      tag_6\n      jumpi\n      dup1\n      0x2131c68c\n      eq\n      tag_7\n      jumpi\n      0x00\n      dup1\n      revert\n    tag_1:\n      jumpi(tag_2, calldatasize)\n      stop\n    tag_2:\n      0x00\n      dup1\n      revert\n        /* \"@openzeppelin/contracts-upgradeable/access/AccessControlUpgradeable.sol\":3443:3645  function supportsInterface(bytes4 interfaceId) public view virtual override returns (bool) {... */\n    tag_3:\n      callvalue\n      dup1\n      iszero\n      tag_52\n      jumpi\n      0x00\n      dup1\n      revert\n    tag_52:\n      pop\n      tag_53\n      tag_54\n      calldatasize\n      0x04\n      tag_55\n      jump\t// in\n    tag_54:\n      tag_56\n      jump\t// in\n    tag_53:\n      mload(0x40)\n        /* \"#utility.yul\":470:484   */\n      swap1\n      iszero\n        /* \"#utility.yul\":463:485   */\n      iszero\n        /* \"#utility.yul\":445:486   */\n      dup2\n      mstore\n        /* \"#utility.yul\":433:435   */\n      0x20\n        /* \"#utility.yul\":418:436   */\n      add\n        /* \"@openzeppelin/contracts-upgradeable/access/AccessControlUpgradeable.sol\":3443:3645  function supportsInterface(bytes4 interfaceId) public view virtual override returns (bool) {... */\n    tag_57:\n      mload(0x40)\n      dup1\n      swap2\n      sub\n      swap1\n      return\n        /* \"src/smartcontracts/CryptoQuestTheShardsOfGenesisWallet.sol\":1294:1323  address public erc1155Address */\n    tag_4:\n      callvalue\n      dup1\n      iszero\n      tag_59\n      jumpi\n      0x00\n      dup1\n      revert\n    tag_59:\n      pop\n      sload(0x34)\n      tag_60\n      swap1\n      sub(shl(0xa0, 0x01), 0x01)\n      and\n      dup2\n      jump\n    tag_60:\n      mload(0x40)\n      sub(shl(0xa0, 0x01), 0x01)\n        /* \"#utility.yul\":661:693   */\n      swap1\n      swap2\n      and\n        /* \"#utility.yul\":643:694   */\n      dup2\n      mstore\n        /* \"#utility.yul\":631:633   */\n      0x20\n        /* \"#utility.yul\":616:634   */\n      add\n        /* \"src/smartcontracts/CryptoQuestTheShardsOfGenesisWallet.sol\":1294:1323  address public erc1155Address */\n      tag_57\n        /* \"#utility.yul\":497:700   */\n      jump\n        /* \"src/smartcontracts/CryptoQuestTheShardsOfGenesisWallet.sol\":1883:1922  mapping(address => Stake) public stakes */\n    tag_5:\n      callvalue\n      dup1\n      iszero\n      tag_64\n      jumpi\n      0x00\n      dup1\n      revert\n    tag_64:\n      pop\n      tag_65\n      tag_66\n      calldatasize\n      0x04\n      tag_67\n      jump\t// in\n    tag_66:\n      mstore(0x20, 0x3b)\n      0x00\n      swap1\n      dup2\n      mstore\n      0x40\n      swap1\n      keccak256\n      dup1\n      sload\n      0x01\n      swap1\n      swap2\n      add\n      sload\n      dup3\n      jump\n    tag_65:\n      0x40\n      dup1\n      mload\n        /* \"#utility.yul\":1248:1273   */\n      swap3\n      dup4\n      mstore\n        /* \"#utility.yul\":1304:1306   */\n      0x20\n        /* \"#utility.yul\":1289:1307   */\n      dup4\n      add\n        /* \"#utility.yul\":1282:1316   */\n      swap2\n      swap1\n      swap2\n      mstore\n        /* \"#utility.yul\":1221:1239   */\n      add\n        /* \"src/smartcontracts/CryptoQuestTheShardsOfGenesisWallet.sol\":1883:1922  mapping(address => Stake) public stakes */\n      tag_57\n        /* \"#utility.yul\":1074:1322   */\n      jump\n        /* \"src/smartcontracts/CryptoQuestTheShardsOfGenesisWallet.sol\":6040:6450  function revokeConfirmation(uint256 _txIndex) public onlyAdmin txExists(_txIndex) notExecuted(_txIndex) {... */\n    tag_6:\n      callvalue\n      dup1\n      iszero\n      tag_71\n      jumpi\n      0x00\n      dup1\n      revert\n    tag_71:\n      pop\n      tag_72\n      tag_73\n      calldatasize\n      0x04\n      tag_74\n      jump\t// in\n    tag_73:\n      tag_75\n      jump\t// in\n    tag_72:\n      stop\n        /* \"src/smartcontracts/CryptoQuestTheShardsOfGenesisWallet.sol\":1329:1354  address public daoAddress */\n    tag_7:\n      callvalue\n      dup1\n      iszero\n      tag_76\n      jumpi\n      0x00\n      dup1\n      revert\n    tag_76:\n      pop\n      sload(0x35)\n      tag_60\n      swap1\n      sub(shl(0xa0, 0x01), 0x01)\n      and\n      dup2\n      jump\n        /* \"src/smartcontracts/CryptoQuestTheShardsOfGenesisWallet.sol\":1260:1288  address public erc721Address */\n    tag_8:\n      callvalue\n      dup1\n      iszero\n      tag_80\n      jumpi\n      0x00\n      dup1\n      revert\n    tag_80:\n      pop\n      sload(0x33)\n      tag_60\n      swap1\n      sub(shl(0xa0, 0x01), 0x01)\n      and\n      dup2\n      jump\n        /* \"@openzeppelin/contracts-upgradeable/access/AccessControlUpgradeable.sol\":4759:4950  function getRoleAdmin(bytes32 role) public view virtual returns (bytes32) {... */\n    tag_9:\n      callvalue\n      dup1\n      iszero\n      tag_84\n      jumpi\n      0x00\n      dup1\n      revert\n    tag_84:\n      pop\n      tag_85\n      tag_86\n      calldatasize\n      0x04\n      tag_74\n      jump\t// in\n    tag_86:\n      tag_88\n      jump\t// in\n    tag_85:\n      mload(0x40)\n        /* \"#utility.yul\":1843:1868   */\n      swap1\n      dup2\n      mstore\n        /* \"#utility.yul\":1831:1833   */\n      0x20\n        /* \"#utility.yul\":1816:1834   */\n      add\n        /* \"@openzeppelin/contracts-upgradeable/access/AccessControlUpgradeable.sol\":4759:4950  function getRoleAdmin(bytes32 role) public view virtual returns (bytes32) {... */\n      tag_57\n        /* \"#utility.yul\":1697:1874   */\n      jump\n        /* \"src/smartcontracts/CryptoQuestTheShardsOfGenesisWallet.sol\":1227:1254  address public erc20Address */\n    tag_10:\n      callvalue\n      dup1\n      iszero\n      tag_91\n      jumpi\n      0x00\n      dup1\n      revert\n    tag_91:\n      pop\n      sload(0x32)\n      tag_60\n      swap1\n      sub(shl(0xa0, 0x01), 0x01)\n      and\n      dup2\n      jump\n        /* \"@openzeppelin/contracts-upgradeable/access/AccessControlUpgradeable.sol\":5246:5382  function grantRole(bytes32 role, address account) public virtual onlyRole(getRoleAdmin(role)) {... */\n    tag_11:\n      callvalue\n      dup1\n      iszero\n      tag_95\n      jumpi\n      0x00\n      dup1\n      revert\n    tag_95:\n      pop\n      tag_72\n      tag_97\n      calldatasize\n      0x04\n      tag_98\n      jump\t// in\n    tag_97:\n      tag_99\n      jump\t// in\n        /* \"@openzeppelin/contracts-upgradeable/access/AccessControlUpgradeable.sol\":6348:6593  function renounceRole(bytes32 role, address callerConfirmation) public virtual {... */\n    tag_12:\n      callvalue\n      dup1\n      iszero\n      tag_100\n      jumpi\n      0x00\n      dup1\n      revert\n    tag_100:\n      pop\n      tag_72\n      tag_102\n      calldatasize\n      0x04\n      tag_98\n      jump\t// in\n    tag_102:\n      tag_103\n      jump\t// in\n        /* \"src/smartcontracts/CryptoQuestTheShardsOfGenesisWallet.sol\":7563:7638  function unpause() public onlyRole(PAUSER_ROLE) {... */\n    tag_13:\n      callvalue\n      dup1\n      iszero\n      tag_104\n      jumpi\n      0x00\n      dup1\n      revert\n    tag_104:\n      pop\n      tag_72\n      tag_106\n      jump\t// in\n        /* \"src/smartcontracts/CryptoQuestTheShardsOfGenesisWallet.sol\":4024:4136  function setERC20Address(address _erc20Address) external onlyAdmin {... */\n    tag_14:\n      callvalue\n      dup1\n      iszero\n      tag_107\n      jumpi\n      0x00\n      dup1\n      revert\n    tag_107:\n      pop\n      tag_72\n      tag_109\n      calldatasize\n      0x04\n      tag_67\n      jump\t// in\n    tag_109:\n      tag_110\n      jump\t// in\n        /* \"@openzeppelin/contracts-upgradeable/proxy/utils/UUPSUpgradeable.sol\":4158:4372  function upgradeToAndCall(address newImplementation, bytes memory data) public payable virtual onlyProxy {... */\n    tag_15:\n      tag_72\n      tag_112\n      calldatasize\n      0x04\n      tag_113\n      jump\t// in\n    tag_112:\n      tag_114\n      jump\t// in\n        /* \"@openzeppelin/contracts-upgradeable/proxy/utils/UUPSUpgradeable.sol\":3705:3839  function proxiableUUID() external view virtual notDelegated returns (bytes32) {... */\n    tag_16:\n      callvalue\n      dup1\n      iszero\n      tag_115\n      jumpi\n      0x00\n      dup1\n      revert\n    tag_115:\n      pop\n      tag_85\n      tag_117\n      jump\t// in\n        /* \"@openzeppelin/contracts-upgradeable/security/PausableUpgradeable.sol\":1879:1963  function paused() public view virtual returns (bool) {... */\n    tag_17:\n      callvalue\n      dup1\n      iszero\n      tag_119\n      jumpi\n      0x00\n      dup1\n      revert\n    tag_119:\n      pop\n        /* \"@openzeppelin/contracts-upgradeable/security/PausableUpgradeable.sol\":1926:1930  bool */\n      0x00\n        /* \"@openzeppelin/contracts-upgradeable/security/PausableUpgradeable.sol\":1949:1956  _paused */\n      sload\n      0xff\n      and\n        /* \"@openzeppelin/contracts-upgradeable/security/PausableUpgradeable.sol\":1879:1963  function paused() public view virtual returns (bool) {... */\n      jump(tag_53)\n        /* \"src/smartcontracts/CryptoQuestTheShardsOfGenesisWallet.sol\":2542:3472  function initialize(... */\n    tag_18:\n      callvalue\n      dup1\n      iszero\n      tag_123\n      jumpi\n      0x00\n      dup1\n      revert\n    tag_123:\n      pop\n      tag_72\n      tag_125\n      calldatasize\n      0x04\n      tag_126\n      jump\t// in\n    tag_125:\n      tag_127\n      jump\t// in\n        /* \"src/smartcontracts/CryptoQuestTheShardsOfGenesisWallet.sol\":6485:6900  function stakeTokens(uint256 _amount) public whenNotPaused {... */\n    tag_19:\n      callvalue\n      dup1\n      iszero\n      tag_128\n      jumpi\n      0x00\n      dup1\n      revert\n    tag_128:\n      pop\n      tag_72\n      tag_130\n      calldatasize\n      0x04\n      tag_74\n      jump\t// in\n    tag_130:\n      tag_131\n      jump\t// in\n        /* \"src/smartcontracts/CryptoQuestTheShardsOfGenesisWallet.sol\":1052:1112  bytes32 public constant ADMIN_ROLE = keccak256(\"ADMIN_ROLE\") */\n    tag_20:\n      callvalue\n      dup1\n      iszero\n      tag_132\n      jumpi\n      0x00\n      dup1\n      revert\n    tag_132:\n      pop\n      tag_85\n      0x00\n      dup1\n      mload\n      0x20\n      data_cb864c43dd5d441bb6271f424f11befa622c032dfd374d226e26fbbdb782b8f8\n      dup4\n      codecopy\n      dup2\n      mload\n      swap2\n      mstore\n      dup2\n      jump\n        /* \"src/smartcontracts/CryptoQuestTheShardsOfGenesisWallet.sol\":1629:1692  mapping(uint256 => mapping(address => bool)) public isConfirmed */\n    tag_21:\n      callvalue\n      dup1\n      iszero\n      tag_136\n      jumpi\n      0x00\n      dup1\n      revert\n    tag_136:\n      pop\n      tag_53\n      tag_138\n      calldatasize\n      0x04\n      tag_98\n      jump\t// in\n    tag_138:\n      0x38\n      0x20\n      swap1\n      dup2\n      mstore\n      0x00\n      swap3\n      dup4\n      mstore\n      0x40\n      dup1\n      dup5\n      keccak256\n      swap1\n      swap2\n      mstore\n      swap1\n      dup3\n      mstore\n      swap1\n      keccak256\n      sload\n      0xff\n      and\n      dup2\n      jump\n        /* \"src/smartcontracts/CryptoQuestTheShardsOfGenesisWallet.sol\":1737:1773  uint256 public requiredConfirmations */\n    tag_22:\n      callvalue\n      dup1\n      iszero\n      tag_142\n      jumpi\n      0x00\n      dup1\n      revert\n    tag_142:\n      pop\n      tag_85\n      sload(0x3a)\n      dup2\n      jump\n        /* \"src/smartcontracts/CryptoQuestTheShardsOfGenesisWallet.sol\":7486:7557  function pause() public onlyRole(PAUSER_ROLE) {... */\n    tag_23:\n      callvalue\n      dup1\n      iszero\n      tag_147\n      jumpi\n      0x00\n      dup1\n      revert\n    tag_147:\n      pop\n      tag_72\n      tag_149\n      jump\t// in\n        /* \"src/smartcontracts/CryptoQuestTheShardsOfGenesisWallet.sol\":1395:1424  address public farmingAddress */\n    tag_24:\n      callvalue\n      dup1\n      iszero\n      tag_150\n      jumpi\n      0x00\n      dup1\n      revert\n    tag_150:\n      pop\n      sload(0x37)\n      tag_60\n      swap1\n      sub(shl(0xa0, 0x01), 0x01)\n      and\n      dup2\n      jump\n        /* \"@openzeppelin/contracts-upgradeable/access/AccessControlUpgradeable.sol\":3732:3939  function hasRole(bytes32 role, address account) public view virtual returns (bool) {... */\n    tag_25:\n      callvalue\n      dup1\n      iszero\n      tag_154\n      jumpi\n      0x00\n      dup1\n      revert\n    tag_154:\n      pop\n      tag_53\n      tag_156\n      calldatasize\n      0x04\n      tag_98\n      jump\t// in\n    tag_156:\n      tag_157\n      jump\t// in\n        /* \"src/smartcontracts/CryptoQuestTheShardsOfGenesisWallet.sol\":4390:4494  function setDAOAddress(address _daoAddress) external onlyAdmin {... */\n    tag_26:\n      callvalue\n      dup1\n      iszero\n      tag_159\n      jumpi\n      0x00\n      dup1\n      revert\n    tag_159:\n      pop\n      tag_72\n      tag_161\n      calldatasize\n      0x04\n      tag_67\n      jump\t// in\n    tag_161:\n      tag_162\n      jump\t// in\n        /* \"src/smartcontracts/CryptoQuestTheShardsOfGenesisWallet.sol\":4142:4258  function setERC721Address(address _erc721Address) external onlyAdmin {... */\n    tag_27:\n      callvalue\n      dup1\n      iszero\n      tag_163\n      jumpi\n      0x00\n      dup1\n      revert\n    tag_163:\n      pop\n      tag_72\n      tag_165\n      calldatasize\n      0x04\n      tag_67\n      jump\t// in\n    tag_165:\n      tag_166\n      jump\t// in\n        /* \"src/smartcontracts/CryptoQuestTheShardsOfGenesisWallet.sol\":1698:1731  Transaction[] public transactions */\n    tag_28:\n      callvalue\n      dup1\n      iszero\n      tag_167\n      jumpi\n      0x00\n      dup1\n      revert\n    tag_167:\n      pop\n      tag_168\n      tag_169\n      calldatasize\n      0x04\n      tag_74\n      jump\t// in\n    tag_169:\n      tag_170\n      jump\t// in\n    tag_168:\n      mload(0x40)\n      tag_57\n      swap6\n      swap5\n      swap4\n      swap3\n      swap2\n      swap1\n      tag_172\n      jump\t// in\n        /* \"@openzeppelin/contracts-upgradeable/access/AccessControlUpgradeable.sol\":2317:2366  bytes32 public constant DEFAULT_ADMIN_ROLE = 0x00 */\n    tag_29:\n      callvalue\n      dup1\n      iszero\n      tag_173\n      jumpi\n      0x00\n      dup1\n      revert\n    tag_173:\n      pop\n      tag_85\n        /* \"@openzeppelin/contracts-upgradeable/access/AccessControlUpgradeable.sol\":2362:2366  0x00 */\n      0x00\n        /* \"@openzeppelin/contracts-upgradeable/access/AccessControlUpgradeable.sol\":2317:2366  bytes32 public constant DEFAULT_ADMIN_ROLE = 0x00 */\n      dup2\n      jump\n        /* \"src/smartcontracts/CryptoQuestTheShardsOfGenesisWallet.sol\":6906:7480  function unstakeTokens() public whenNotPaused {... */\n    tag_30:\n      callvalue\n      dup1\n      iszero\n      tag_177\n      jumpi\n      0x00\n      dup1\n      revert\n    tag_177:\n      pop\n      tag_72\n      tag_179\n      jump\t// in\n        /* \"@openzeppelin/contracts-upgradeable/proxy/utils/UUPSUpgradeable.sol\":1819:1877  string public constant UPGRADE_INTERFACE_VERSION = \"5.0.0\" */\n    tag_31:\n      callvalue\n      dup1\n      iszero\n      tag_180\n      jumpi\n      0x00\n      dup1\n      revert\n    tag_180:\n      pop\n      tag_181\n      mload(0x40)\n      dup1\n      0x40\n      add\n      0x40\n      mstore\n      dup1\n      0x05\n      dup2\n      mstore\n      0x20\n      add\n      shl(0xdc, 0x0352e302e3)\n      dup2\n      mstore\n      pop\n      dup2\n      jump\n    tag_181:\n      mload(0x40)\n      tag_57\n      swap2\n      swap1\n      tag_184\n      jump\t// in\n        /* \"src/smartcontracts/CryptoQuestTheShardsOfGenesisWallet.sol\":4626:4746  function setFarmingAddress(address _farmingAddress) external onlyAdmin {... */\n    tag_32:\n      callvalue\n      dup1\n      iszero\n      tag_185\n      jumpi\n      0x00\n      dup1\n      revert\n    tag_185:\n      pop\n      tag_72\n      tag_187\n      calldatasize\n      0x04\n      tag_67\n      jump\t// in\n    tag_187:\n      tag_188\n      jump\t// in\n        /* \"src/smartcontracts/CryptoQuestTheShardsOfGenesisWallet.sol\":5138:5533  function confirmTransaction(uint256 _txIndex)... */\n    tag_33:\n      callvalue\n      dup1\n      iszero\n      tag_189\n      jumpi\n      0x00\n      dup1\n      revert\n    tag_189:\n      pop\n      tag_72\n      tag_191\n      calldatasize\n      0x04\n      tag_74\n      jump\t// in\n    tag_191:\n      tag_192\n      jump\t// in\n        /* \"src/smartcontracts/CryptoQuestTheShardsOfGenesisWallet.sol\":1928:1954  uint256 public stakingRate */\n    tag_34:\n      callvalue\n      dup1\n      iszero\n      tag_193\n      jumpi\n      0x00\n      dup1\n      revert\n    tag_193:\n      pop\n      tag_85\n      sload(0x3c)\n      dup2\n      jump\n        /* \"src/smartcontracts/CryptoQuestTheShardsOfGenesisWallet.sol\":4752:5132  function submitTransaction(address _to, uint256 _value, bytes memory _data) public onlyAdmin {... */\n    tag_35:\n      callvalue\n      dup1\n      iszero\n      tag_197\n      jumpi\n      0x00\n      dup1\n      revert\n    tag_197:\n      pop\n      tag_72\n      tag_199\n      calldatasize\n      0x04\n      tag_200\n      jump\t// in\n    tag_199:\n      tag_201\n      jump\t// in\n        /* \"@openzeppelin/contracts-upgradeable/access/AccessControlUpgradeable.sol\":5662:5800  function revokeRole(bytes32 role, address account) public virtual onlyRole(getRoleAdmin(role)) {... */\n    tag_36:\n      callvalue\n      dup1\n      iszero\n      tag_202\n      jumpi\n      0x00\n      dup1\n      revert\n    tag_202:\n      pop\n      tag_72\n      tag_204\n      calldatasize\n      0x04\n      tag_98\n      jump\t// in\n    tag_204:\n      tag_205\n      jump\t// in\n        /* \"src/smartcontracts/CryptoQuestTheShardsOfGenesisWallet.sol\":1360:1389  address public stakingAddress */\n    tag_37:\n      callvalue\n      dup1\n      iszero\n      tag_206\n      jumpi\n      0x00\n      dup1\n      revert\n    tag_206:\n      pop\n      sload(0x36)\n      tag_60\n      swap1\n      sub(shl(0xa0, 0x01), 0x01)\n      and\n      dup2\n      jump\n        /* \"src/smartcontracts/CryptoQuestTheShardsOfGenesisWallet.sol\":4264:4384  function setERC1155Address(address _erc1155Address) external onlyAdmin {... */\n    tag_38:\n      callvalue\n      dup1\n      iszero\n      tag_210\n      jumpi\n      0x00\n      dup1\n      revert\n    tag_210:\n      pop\n      tag_72\n      tag_212\n      calldatasize\n      0x04\n      tag_67\n      jump\t// in\n    tag_212:\n      tag_213\n      jump\t// in\n        /* \"src/smartcontracts/CryptoQuestTheShardsOfGenesisWallet.sol\":984:1046  bytes32 public constant PAUSER_ROLE = keccak256(\"PAUSER_ROLE\") */\n    tag_39:\n      callvalue\n      dup1\n      iszero\n      tag_214\n      jumpi\n      0x00\n      dup1\n      revert\n    tag_214:\n      pop\n      tag_85\n      0x00\n      dup1\n      mload\n      0x20\n      data_9b87106a812d214d41ad9b68a21119e2948eaaf1040375c939ec808b8862455c\n      dup4\n      codecopy\n      dup2\n      mload\n      swap2\n      mstore\n      dup2\n      jump\n        /* \"src/smartcontracts/CryptoQuestTheShardsOfGenesisWallet.sol\":5539:6034  function executeTransaction(uint256 _txIndex) public onlyAdmin txExists(_txIndex) notExecuted(_txIndex) {... */\n    tag_40:\n      callvalue\n      dup1\n      iszero\n      tag_218\n      jumpi\n      0x00\n      dup1\n      revert\n    tag_218:\n      pop\n      tag_72\n      tag_220\n      calldatasize\n      0x04\n      tag_74\n      jump\t// in\n    tag_220:\n      tag_221\n      jump\t// in\n        /* \"src/smartcontracts/CryptoQuestTheShardsOfGenesisWallet.sol\":4500:4620  function setStakingAddress(address _stakingAddress) external onlyAdmin {... */\n    tag_41:\n      callvalue\n      dup1\n      iszero\n      tag_222\n      jumpi\n      0x00\n      dup1\n      revert\n    tag_222:\n      pop\n      tag_72\n      tag_224\n      calldatasize\n      0x04\n      tag_67\n      jump\t// in\n    tag_224:\n      tag_225\n      jump\t// in\n        /* \"src/smartcontracts/CryptoQuestTheShardsOfGenesisWallet.sol\":1118:1184  bytes32 public constant UPGRADER_ROLE = keccak256(\"UPGRADER_ROLE\") */\n    tag_42:\n      callvalue\n      dup1\n      iszero\n      tag_226\n      jumpi\n      0x00\n      dup1\n      revert\n    tag_226:\n      pop\n      tag_85\n        /* \"src/smartcontracts/CryptoQuestTheShardsOfGenesisWallet.sol\":1158:1184  keccak256(\"UPGRADER_ROLE\") */\n      0x189ab7a9244df0848122154315af71fe140f3db0fe014031783b0946b8c9d2e3\n        /* \"src/smartcontracts/CryptoQuestTheShardsOfGenesisWallet.sol\":1118:1184  bytes32 public constant UPGRADER_ROLE = keccak256(\"UPGRADER_ROLE\") */\n      dup2\n      jump\n        /* \"@openzeppelin/contracts-upgradeable/access/AccessControlUpgradeable.sol\":3443:3645  function supportsInterface(bytes4 interfaceId) public view virtual override returns (bool) {... */\n    tag_56:\n        /* \"@openzeppelin/contracts-upgradeable/access/AccessControlUpgradeable.sol\":3528:3532  bool */\n      0x00\n      not(sub(shl(0xe0, 0x01), 0x01))\n        /* \"@openzeppelin/contracts-upgradeable/access/AccessControlUpgradeable.sol\":3551:3598  interfaceId == type(IAccessControl).interfaceId */\n      dup3\n      and\n      shl(0xe0, 0x7965db0b)\n      eq\n      dup1\n        /* \"@openzeppelin/contracts-upgradeable/access/AccessControlUpgradeable.sol\":3551:3638  interfaceId == type(IAccessControl).interfaceId || super.supportsInterface(interfaceId) */\n      tag_232\n      jumpi\n      pop\n      shl(0xe0, 0x01ffc9a7)\n      not(sub(shl(0xe0, 0x01), 0x01))\n        /* \"@openzeppelin/contracts-upgradeable/utils/introspection/ERC165Upgradeable.sol\":1133:1173  interfaceId == type(IERC165).interfaceId */\n      dup4\n      and\n      eq\n        /* \"@openzeppelin/contracts-upgradeable/access/AccessControlUpgradeable.sol\":3602:3638  super.supportsInterface(interfaceId) */\n    tag_232:\n        /* \"@openzeppelin/contracts-upgradeable/access/AccessControlUpgradeable.sol\":3544:3638  return interfaceId == type(IAccessControl).interfaceId || super.supportsInterface(interfaceId) */\n      swap3\n        /* \"@openzeppelin/contracts-upgradeable/access/AccessControlUpgradeable.sol\":3443:3645  function supportsInterface(bytes4 interfaceId) public view virtual override returns (bool) {... */\n      swap2\n      pop\n      pop\n      jump\t// out\n        /* \"src/smartcontracts/CryptoQuestTheShardsOfGenesisWallet.sol\":6040:6450  function revokeConfirmation(uint256 _txIndex) public onlyAdmin txExists(_txIndex) notExecuted(_txIndex) {... */\n    tag_75:\n        /* \"src/smartcontracts/CryptoQuestTheShardsOfGenesisWallet.sol\":3517:3548  hasRole(ADMIN_ROLE, msg.sender) */\n      tag_235\n      0x00\n      dup1\n      mload\n      0x20\n      data_cb864c43dd5d441bb6271f424f11befa622c032dfd374d226e26fbbdb782b8f8\n      dup4\n      codecopy\n      dup2\n      mload\n      swap2\n      mstore\n        /* \"src/smartcontracts/CryptoQuestTheShardsOfGenesisWallet.sol\":3537:3547  msg.sender */\n      caller\n        /* \"src/smartcontracts/CryptoQuestTheShardsOfGenesisWallet.sol\":3517:3524  hasRole */\n      tag_157\n        /* \"src/smartcontracts/CryptoQuestTheShardsOfGenesisWallet.sol\":3517:3548  hasRole(ADMIN_ROLE, msg.sender) */\n      jump\t// in\n    tag_235:\n        /* \"src/smartcontracts/CryptoQuestTheShardsOfGenesisWallet.sol\":3509:3565  require(hasRole(ADMIN_ROLE, msg.sender), \"Not an admin\") */\n      tag_236\n      jumpi\n      mload(0x40)\n      shl(0xe5, 0x461bcd)\n      dup2\n      mstore\n      0x04\n      add\n      tag_237\n      swap1\n      tag_238\n      jump\t// in\n    tag_237:\n      mload(0x40)\n      dup1\n      swap2\n      sub\n      swap1\n      revert\n    tag_236:\n        /* \"src/smartcontracts/CryptoQuestTheShardsOfGenesisWallet.sol\":3654:3666  transactions */\n      0x39\n        /* \"src/smartcontracts/CryptoQuestTheShardsOfGenesisWallet.sol\":3654:3673  transactions.length */\n      sload\n        /* \"src/smartcontracts/CryptoQuestTheShardsOfGenesisWallet.sol\":6112:6120  _txIndex */\n      dup2\n      swap1\n        /* \"src/smartcontracts/CryptoQuestTheShardsOfGenesisWallet.sol\":3643:3673  _txIndex < transactions.length */\n      dup2\n      lt\n        /* \"src/smartcontracts/CryptoQuestTheShardsOfGenesisWallet.sol\":3635:3704  require(_txIndex < transactions.length, \"Transaction does not exist\") */\n      tag_240\n      jumpi\n      mload(0x40)\n      shl(0xe5, 0x461bcd)\n      dup2\n      mstore\n      0x04\n      add\n      tag_237\n      swap1\n      tag_242\n      jump\t// in\n    tag_240:\n        /* \"src/smartcontracts/CryptoQuestTheShardsOfGenesisWallet.sol\":6134:6142  _txIndex */\n      dup2\n        /* \"src/smartcontracts/CryptoQuestTheShardsOfGenesisWallet.sol\":3786:3798  transactions */\n      0x39\n        /* \"src/smartcontracts/CryptoQuestTheShardsOfGenesisWallet.sol\":3799:3807  _txIndex */\n      dup2\n        /* \"src/smartcontracts/CryptoQuestTheShardsOfGenesisWallet.sol\":3786:3808  transactions[_txIndex] */\n      dup2\n      sload\n      dup2\n      lt\n      tag_245\n      jumpi\n      tag_245\n      tag_246\n      jump\t// in\n    tag_245:\n      0x00\n      swap2\n      dup3\n      mstore\n      0x20\n      swap1\n      swap2\n      keccak256\n        /* \"src/smartcontracts/CryptoQuestTheShardsOfGenesisWallet.sol\":3786:3817  transactions[_txIndex].executed */\n      0x03\n        /* \"src/smartcontracts/CryptoQuestTheShardsOfGenesisWallet.sol\":3786:3808  transactions[_txIndex] */\n      0x05\n      swap1\n      swap3\n      mul\n      add\n        /* \"src/smartcontracts/CryptoQuestTheShardsOfGenesisWallet.sol\":3786:3817  transactions[_txIndex].executed */\n      add\n      sload\n      0xff\n      and\n        /* \"src/smartcontracts/CryptoQuestTheShardsOfGenesisWallet.sol\":3785:3817  !transactions[_txIndex].executed */\n      iszero\n        /* \"src/smartcontracts/CryptoQuestTheShardsOfGenesisWallet.sol\":3777:3850  require(!transactions[_txIndex].executed, \"Transaction already executed\") */\n      tag_248\n      jumpi\n      mload(0x40)\n      shl(0xe5, 0x461bcd)\n      dup2\n      mstore\n      0x04\n      add\n      tag_237\n      swap1\n      tag_250\n      jump\t// in\n    tag_248:\n        /* \"src/smartcontracts/CryptoQuestTheShardsOfGenesisWallet.sol\":6154:6185  Transaction storage transaction */\n      0x00\n        /* \"src/smartcontracts/CryptoQuestTheShardsOfGenesisWallet.sol\":6188:6200  transactions */\n      0x39\n        /* \"src/smartcontracts/CryptoQuestTheShardsOfGenesisWallet.sol\":6201:6209  _txIndex */\n      dup5\n        /* \"src/smartcontracts/CryptoQuestTheShardsOfGenesisWallet.sol\":6188:6210  transactions[_txIndex] */\n      dup2\n      sload\n      dup2\n      lt\n      tag_253\n      jumpi\n      tag_253\n      tag_246\n      jump\t// in\n    tag_253:\n      0x00\n      swap2\n      dup3\n      mstore\n      0x20\n      dup1\n      dup4\n      keccak256\n        /* \"src/smartcontracts/CryptoQuestTheShardsOfGenesisWallet.sol\":6229:6250  isConfirmed[_txIndex] */\n      dup8\n      dup5\n      mstore\n        /* \"src/smartcontracts/CryptoQuestTheShardsOfGenesisWallet.sol\":6229:6240  isConfirmed */\n      0x38\n        /* \"src/smartcontracts/CryptoQuestTheShardsOfGenesisWallet.sol\":6229:6250  isConfirmed[_txIndex] */\n      dup3\n      mstore\n      0x40\n      dup1\n      dup6\n      keccak256\n        /* \"src/smartcontracts/CryptoQuestTheShardsOfGenesisWallet.sol\":6251:6261  msg.sender */\n      caller\n        /* \"src/smartcontracts/CryptoQuestTheShardsOfGenesisWallet.sol\":6229:6262  isConfirmed[_txIndex][msg.sender] */\n      dup7\n      mstore\n      swap1\n      swap3\n      mstore\n      swap3\n      keccak256\n      sload\n        /* \"src/smartcontracts/CryptoQuestTheShardsOfGenesisWallet.sol\":6188:6210  transactions[_txIndex] */\n      0x05\n      swap1\n      swap2\n      mul\n      swap1\n      swap2\n      add\n      swap2\n      pop\n        /* \"src/smartcontracts/CryptoQuestTheShardsOfGenesisWallet.sol\":6229:6262  isConfirmed[_txIndex][msg.sender] */\n      0xff\n      and\n        /* \"src/smartcontracts/CryptoQuestTheShardsOfGenesisWallet.sol\":6221:6292  require(isConfirmed[_txIndex][msg.sender], \"Transaction not confirmed\") */\n      tag_255\n      jumpi\n      mload(0x40)\n      shl(0xe5, 0x461bcd)\n      dup2\n      mstore\n        /* \"#utility.yul\":7526:7528   */\n      0x20\n        /* \"src/smartcontracts/CryptoQuestTheShardsOfGenesisWallet.sol\":6221:6292  require(isConfirmed[_txIndex][msg.sender], \"Transaction not confirmed\") */\n      0x04\n      dup3\n      add\n        /* \"#utility.yul\":7508:7529   */\n      mstore\n        /* \"#utility.yul\":7565:7567   */\n      0x19\n        /* \"#utility.yul\":7545:7563   */\n      0x24\n      dup3\n      add\n        /* \"#utility.yul\":7538:7568   */\n      mstore\n        /* \"#utility.yul\":7604:7631   */\n      0x5472616e73616374696f6e206e6f7420636f6e6669726d656400000000000000\n        /* \"#utility.yul\":7584:7602   */\n      0x44\n      dup3\n      add\n        /* \"#utility.yul\":7577:7632   */\n      mstore\n        /* \"#utility.yul\":7649:7667   */\n      0x64\n      add\n        /* \"src/smartcontracts/CryptoQuestTheShardsOfGenesisWallet.sol\":6221:6292  require(isConfirmed[_txIndex][msg.sender], \"Transaction not confirmed\") */\n      tag_237\n        /* \"#utility.yul\":7324:7673   */\n      jump\n        /* \"src/smartcontracts/CryptoQuestTheShardsOfGenesisWallet.sol\":6221:6292  require(isConfirmed[_txIndex][msg.sender], \"Transaction not confirmed\") */\n    tag_255:\n        /* \"src/smartcontracts/CryptoQuestTheShardsOfGenesisWallet.sol\":6335:6336  1 */\n      0x01\n        /* \"src/smartcontracts/CryptoQuestTheShardsOfGenesisWallet.sol\":6303:6314  transaction */\n      dup2\n        /* \"src/smartcontracts/CryptoQuestTheShardsOfGenesisWallet.sol\":6303:6331  transaction.numConfirmations */\n      0x04\n      add\n      0x00\n        /* \"src/smartcontracts/CryptoQuestTheShardsOfGenesisWallet.sol\":6303:6336  transaction.numConfirmations -= 1 */\n      dup3\n      dup3\n      sload\n      tag_258\n      swap2\n      swap1\n      tag_259\n      jump\t// in\n    tag_258:\n      swap1\n      swap2\n      sstore\n      pop\n      pop\n        /* \"src/smartcontracts/CryptoQuestTheShardsOfGenesisWallet.sol\":6382:6387  false */\n      0x00\n        /* \"src/smartcontracts/CryptoQuestTheShardsOfGenesisWallet.sol\":6346:6367  isConfirmed[_txIndex] */\n      dup5\n      dup2\n      mstore\n        /* \"src/smartcontracts/CryptoQuestTheShardsOfGenesisWallet.sol\":6346:6357  isConfirmed */\n      0x38\n        /* \"src/smartcontracts/CryptoQuestTheShardsOfGenesisWallet.sol\":6346:6367  isConfirmed[_txIndex] */\n      0x20\n      swap1\n      dup2\n      mstore\n      0x40\n      dup1\n      dup4\n      keccak256\n        /* \"src/smartcontracts/CryptoQuestTheShardsOfGenesisWallet.sol\":6368:6378  msg.sender */\n      caller\n        /* \"src/smartcontracts/CryptoQuestTheShardsOfGenesisWallet.sol\":6346:6379  isConfirmed[_txIndex][msg.sender] */\n      dup1\n      dup6\n      mstore\n      swap3\n      mstore\n      dup1\n      dup4\n      keccak256\n        /* \"src/smartcontracts/CryptoQuestTheShardsOfGenesisWallet.sol\":6346:6387  isConfirmed[_txIndex][msg.sender] = false */\n      dup1\n      sload\n      not(0xff)\n      and\n      swap1\n      sstore\n        /* \"src/smartcontracts/CryptoQuestTheShardsOfGenesisWallet.sol\":6403:6443  TransactionRevoked(msg.sender, _txIndex) */\n      mload\n        /* \"src/smartcontracts/CryptoQuestTheShardsOfGenesisWallet.sol\":6358:6366  _txIndex */\n      dup7\n      swap3\n        /* \"src/smartcontracts/CryptoQuestTheShardsOfGenesisWallet.sol\":6403:6443  TransactionRevoked(msg.sender, _txIndex) */\n      0xe5c8875c5e14471f806f15f740cd9fd54937d151e9dcf8ad3ba988d6a285e67e\n      swap2\n      log3\n        /* \"src/smartcontracts/CryptoQuestTheShardsOfGenesisWallet.sol\":6144:6450  {... */\n      pop\n        /* \"src/smartcontracts/CryptoQuestTheShardsOfGenesisWallet.sol\":3714:3715  _ */\n      pop\n        /* \"src/smartcontracts/CryptoQuestTheShardsOfGenesisWallet.sol\":3575:3576  _ */\n      pop\n        /* \"src/smartcontracts/CryptoQuestTheShardsOfGenesisWallet.sol\":6040:6450  function revokeConfirmation(uint256 _txIndex) public onlyAdmin txExists(_txIndex) notExecuted(_txIndex) {... */\n      pop\n      jump\t// out\n        /* \"@openzeppelin/contracts-upgradeable/access/AccessControlUpgradeable.sol\":4759:4950  function getRoleAdmin(bytes32 role) public view virtual returns (bytes32) {... */\n    tag_88:\n        /* \"@openzeppelin/contracts-upgradeable/access/AccessControlUpgradeable.sol\":4824:4831  bytes32 */\n      0x00\n        /* \"@openzeppelin/contracts-upgradeable/access/AccessControlUpgradeable.sol\":4919:4933  $._roles[role] */\n      swap1\n      dup2\n      mstore\n      0x00\n      dup1\n      mload\n      0x20\n      data_b3da67d1b252aeab7c8063542d95e75f82a5307a82535949bc38f7cf7ba8897f\n      dup4\n      codecopy\n      dup2\n      mload\n      swap2\n      mstore\n      0x20\n      mstore\n      0x40\n      swap1\n      keccak256\n        /* \"@openzeppelin/contracts-upgradeable/access/AccessControlUpgradeable.sol\":4919:4943  $._roles[role].adminRole */\n      0x01\n      add\n      sload\n      swap1\n        /* \"@openzeppelin/contracts-upgradeable/access/AccessControlUpgradeable.sol\":4759:4950  function getRoleAdmin(bytes32 role) public view virtual returns (bytes32) {... */\n      jump\t// out\n        /* \"@openzeppelin/contracts-upgradeable/access/AccessControlUpgradeable.sol\":5246:5382  function grantRole(bytes32 role, address account) public virtual onlyRole(getRoleAdmin(role)) {... */\n    tag_99:\n        /* \"@openzeppelin/contracts-upgradeable/access/AccessControlUpgradeable.sol\":5320:5338  getRoleAdmin(role) */\n      tag_263\n        /* \"@openzeppelin/contracts-upgradeable/access/AccessControlUpgradeable.sol\":5333:5337  role */\n      dup3\n        /* \"@openzeppelin/contracts-upgradeable/access/AccessControlUpgradeable.sol\":5320:5332  getRoleAdmin */\n      tag_88\n        /* \"@openzeppelin/contracts-upgradeable/access/AccessControlUpgradeable.sol\":5320:5338  getRoleAdmin(role) */\n      jump\t// in\n    tag_263:\n        /* \"@openzeppelin/contracts-upgradeable/access/AccessControlUpgradeable.sol\":3191:3207  _checkRole(role) */\n      tag_265\n        /* \"@openzeppelin/contracts-upgradeable/access/AccessControlUpgradeable.sol\":3202:3206  role */\n      dup2\n        /* \"@openzeppelin/contracts-upgradeable/access/AccessControlUpgradeable.sol\":3191:3201  _checkRole */\n      tag_266\n        /* \"@openzeppelin/contracts-upgradeable/access/AccessControlUpgradeable.sol\":3191:3207  _checkRole(role) */\n      jump\t// in\n    tag_265:\n        /* \"@openzeppelin/contracts-upgradeable/access/AccessControlUpgradeable.sol\":5350:5375  _grantRole(role, account) */\n      tag_268\n        /* \"@openzeppelin/contracts-upgradeable/access/AccessControlUpgradeable.sol\":5361:5365  role */\n      dup4\n        /* \"@openzeppelin/contracts-upgradeable/access/AccessControlUpgradeable.sol\":5367:5374  account */\n      dup4\n        /* \"@openzeppelin/contracts-upgradeable/access/AccessControlUpgradeable.sol\":5350:5360  _grantRole */\n      tag_269\n        /* \"@openzeppelin/contracts-upgradeable/access/AccessControlUpgradeable.sol\":5350:5375  _grantRole(role, account) */\n      jump\t// in\n    tag_268:\n      pop\n        /* \"@openzeppelin/contracts-upgradeable/access/AccessControlUpgradeable.sol\":5246:5382  function grantRole(bytes32 role, address account) public virtual onlyRole(getRoleAdmin(role)) {... */\n      pop\n      pop\n      pop\n      jump\t// out\n        /* \"@openzeppelin/contracts-upgradeable/access/AccessControlUpgradeable.sol\":6348:6593  function renounceRole(bytes32 role, address callerConfirmation) public virtual {... */\n    tag_103:\n      sub(shl(0xa0, 0x01), 0x01)\n        /* \"@openzeppelin/contracts-upgradeable/access/AccessControlUpgradeable.sol\":6441:6475  callerConfirmation != _msgSender() */\n      dup2\n      and\n        /* \"@openzeppelin/contracts-upgradeable/utils/ContextUpgradeable.sol\":966:976  msg.sender */\n      caller\n        /* \"@openzeppelin/contracts-upgradeable/access/AccessControlUpgradeable.sol\":6441:6475  callerConfirmation != _msgSender() */\n      eq\n        /* \"@openzeppelin/contracts-upgradeable/access/AccessControlUpgradeable.sol\":6437:6539  if (callerConfirmation != _msgSender()) {... */\n      tag_273\n      jumpi\n        /* \"@openzeppelin/contracts-upgradeable/access/AccessControlUpgradeable.sol\":6498:6528  AccessControlBadConfirmation() */\n      mload(0x40)\n      shl(0xe1, 0x334bd919)\n      dup2\n      mstore\n      0x04\n      add\n      mload(0x40)\n      dup1\n      swap2\n      sub\n      swap1\n      revert\n        /* \"@openzeppelin/contracts-upgradeable/access/AccessControlUpgradeable.sol\":6437:6539  if (callerConfirmation != _msgSender()) {... */\n    tag_273:\n        /* \"@openzeppelin/contracts-upgradeable/access/AccessControlUpgradeable.sol\":6549:6586  _revokeRole(role, callerConfirmation) */\n      tag_274\n        /* \"@openzeppelin/contracts-upgradeable/access/AccessControlUpgradeable.sol\":6561:6565  role */\n      dup3\n        /* \"@openzeppelin/contracts-upgradeable/access/AccessControlUpgradeable.sol\":6567:6585  callerConfirmation */\n      dup3\n        /* \"@openzeppelin/contracts-upgradeable/access/AccessControlUpgradeable.sol\":6549:6560  _revokeRole */\n      tag_275\n        /* \"@openzeppelin/contracts-upgradeable/access/AccessControlUpgradeable.sol\":6549:6586  _revokeRole(role, callerConfirmation) */\n      jump\t// in\n    tag_274:\n      pop\n        /* \"@openzeppelin/contracts-upgradeable/access/AccessControlUpgradeable.sol\":6348:6593  function renounceRole(bytes32 role, address callerConfirmation) public virtual {... */\n      pop\n      pop\n      jump\t// out\n        /* \"src/smartcontracts/CryptoQuestTheShardsOfGenesisWallet.sol\":7563:7638  function unpause() public onlyRole(PAUSER_ROLE) {... */\n    tag_106:\n      0x00\n      dup1\n      mload\n      0x20\n      data_9b87106a812d214d41ad9b68a21119e2948eaaf1040375c939ec808b8862455c\n      dup4\n      codecopy\n      dup2\n      mload\n      swap2\n      mstore\n        /* \"@openzeppelin/contracts-upgradeable/access/AccessControlUpgradeable.sol\":3191:3207  _checkRole(role) */\n      tag_277\n        /* \"@openzeppelin/contracts-upgradeable/access/AccessControlUpgradeable.sol\":3202:3206  role */\n      dup2\n        /* \"@openzeppelin/contracts-upgradeable/access/AccessControlUpgradeable.sol\":3191:3201  _checkRole */\n      tag_266\n        /* \"@openzeppelin/contracts-upgradeable/access/AccessControlUpgradeable.sol\":3191:3207  _checkRole(role) */\n      jump\t// in\n    tag_277:\n        /* \"src/smartcontracts/CryptoQuestTheShardsOfGenesisWallet.sol\":7621:7631  _unpause() */\n      tag_279\n        /* \"src/smartcontracts/CryptoQuestTheShardsOfGenesisWallet.sol\":7621:7629  _unpause */\n      tag_280\n        /* \"src/smartcontracts/CryptoQuestTheShardsOfGenesisWallet.sol\":7621:7631  _unpause() */\n      jump\t// in\n    tag_279:\n        /* \"src/smartcontracts/CryptoQuestTheShardsOfGenesisWallet.sol\":7563:7638  function unpause() public onlyRole(PAUSER_ROLE) {... */\n      pop\n      jump\t// out\n        /* \"src/smartcontracts/CryptoQuestTheShardsOfGenesisWallet.sol\":4024:4136  function setERC20Address(address _erc20Address) external onlyAdmin {... */\n    tag_110:\n        /* \"src/smartcontracts/CryptoQuestTheShardsOfGenesisWallet.sol\":3517:3548  hasRole(ADMIN_ROLE, msg.sender) */\n      tag_282\n      0x00\n      dup1\n      mload\n      0x20\n      data_cb864c43dd5d441bb6271f424f11befa622c032dfd374d226e26fbbdb782b8f8\n      dup4\n      codecopy\n      dup2\n      mload\n      swap2\n      mstore\n        /* \"src/smartcontracts/CryptoQuestTheShardsOfGenesisWallet.sol\":3537:3547  msg.sender */\n      caller\n        /* \"src/smartcontracts/CryptoQuestTheShardsOfGenesisWallet.sol\":3517:3524  hasRole */\n      tag_157\n        /* \"src/smartcontracts/CryptoQuestTheShardsOfGenesisWallet.sol\":3517:3548  hasRole(ADMIN_ROLE, msg.sender) */\n      jump\t// in\n    tag_282:\n        /* \"src/smartcontracts/CryptoQuestTheShardsOfGenesisWallet.sol\":3509:3565  require(hasRole(ADMIN_ROLE, msg.sender), \"Not an admin\") */\n      tag_283\n      jumpi\n      mload(0x40)\n      shl(0xe5, 0x461bcd)\n      dup2\n      mstore\n      0x04\n      add\n      tag_237\n      swap1\n      tag_238\n      jump\t// in\n    tag_283:\n        /* \"src/smartcontracts/CryptoQuestTheShardsOfGenesisWallet.sol\":4101:4113  erc20Address */\n      0x32\n        /* \"src/smartcontracts/CryptoQuestTheShardsOfGenesisWallet.sol\":4101:4129  erc20Address = _erc20Address */\n      dup1\n      sload\n      not(sub(shl(0xa0, 0x01), 0x01))\n      and\n      sub(shl(0xa0, 0x01), 0x01)\n      swap3\n      swap1\n      swap3\n      and\n      swap2\n      swap1\n      swap2\n      or\n      swap1\n      sstore\n        /* \"src/smartcontracts/CryptoQuestTheShardsOfGenesisWallet.sol\":4024:4136  function setERC20Address(address _erc20Address) external onlyAdmin {... */\n      jump\t// out\n        /* \"@openzeppelin/contracts-upgradeable/proxy/utils/UUPSUpgradeable.sol\":4158:4372  function upgradeToAndCall(address newImplementation, bytes memory data) public payable virtual onlyProxy {... */\n    tag_114:\n        /* \"@openzeppelin/contracts-upgradeable/proxy/utils/UUPSUpgradeable.sol\":2653:2666  _checkProxy() */\n      tag_287\n        /* \"@openzeppelin/contracts-upgradeable/proxy/utils/UUPSUpgradeable.sol\":2653:2664  _checkProxy */\n      tag_288\n        /* \"@openzeppelin/contracts-upgradeable/proxy/utils/UUPSUpgradeable.sol\":2653:2666  _checkProxy() */\n      jump\t// in\n    tag_287:\n        /* \"@openzeppelin/contracts-upgradeable/proxy/utils/UUPSUpgradeable.sol\":4273:4309  _authorizeUpgrade(newImplementation) */\n      tag_290\n        /* \"@openzeppelin/contracts-upgradeable/proxy/utils/UUPSUpgradeable.sol\":4291:4308  newImplementation */\n      dup3\n        /* \"@openzeppelin/contracts-upgradeable/proxy/utils/UUPSUpgradeable.sol\":4273:4290  _authorizeUpgrade */\n      tag_291\n        /* \"@openzeppelin/contracts-upgradeable/proxy/utils/UUPSUpgradeable.sol\":4273:4309  _authorizeUpgrade(newImplementation) */\n      jump\t// in\n    tag_290:\n        /* \"@openzeppelin/contracts-upgradeable/proxy/utils/UUPSUpgradeable.sol\":4319:4365  _upgradeToAndCallUUPS(newImplementation, data) */\n      tag_292\n        /* \"@openzeppelin/contracts-upgradeable/proxy/utils/UUPSUpgradeable.sol\":4341:4358  newImplementation */\n      dup3\n        /* \"@openzeppelin/contracts-upgradeable/proxy/utils/UUPSUpgradeable.sol\":4360:4364  data */\n      dup3\n        /* \"@openzeppelin/contracts-upgradeable/proxy/utils/UUPSUpgradeable.sol\":4319:4340  _upgradeToAndCallUUPS */\n      tag_293\n        /* \"@openzeppelin/contracts-upgradeable/proxy/utils/UUPSUpgradeable.sol\":4319:4365  _upgradeToAndCallUUPS(newImplementation, data) */\n      jump\t// in\n    tag_292:\n        /* \"@openzeppelin/contracts-upgradeable/proxy/utils/UUPSUpgradeable.sol\":4158:4372  function upgradeToAndCall(address newImplementation, bytes memory data) public payable virtual onlyProxy {... */\n      pop\n      pop\n      jump\t// out\n        /* \"@openzeppelin/contracts-upgradeable/proxy/utils/UUPSUpgradeable.sol\":3705:3839  function proxiableUUID() external view virtual notDelegated returns (bytes32) {... */\n    tag_117:\n        /* \"@openzeppelin/contracts-upgradeable/proxy/utils/UUPSUpgradeable.sol\":3774:3781  bytes32 */\n      0x00\n        /* \"@openzeppelin/contracts-upgradeable/proxy/utils/UUPSUpgradeable.sol\":2924:2944  _checkNotDelegated() */\n      tag_295\n        /* \"@openzeppelin/contracts-upgradeable/proxy/utils/UUPSUpgradeable.sol\":2924:2942  _checkNotDelegated */\n      tag_296\n        /* \"@openzeppelin/contracts-upgradeable/proxy/utils/UUPSUpgradeable.sol\":2924:2944  _checkNotDelegated() */\n      jump\t// in\n    tag_295:\n      pop\n      0x00\n      dup1\n      mload\n      0x20\n      data_75b20eef8615de99c108b05f0dbda081c91897128caa336d75dffb97c4132b4d\n      dup4\n      codecopy\n      dup2\n      mload\n      swap2\n      mstore\n        /* \"@openzeppelin/contracts-upgradeable/proxy/utils/UUPSUpgradeable.sol\":3705:3839  function proxiableUUID() external view virtual notDelegated returns (bytes32) {... */\n      swap1\n      jump\t// out\n        /* \"src/smartcontracts/CryptoQuestTheShardsOfGenesisWallet.sol\":2542:3472  function initialize(... */\n    tag_127:\n        /* \"@openzeppelin/contracts-upgradeable/proxy/utils/Initializable.sol\":8870:8891  INITIALIZABLE_STORAGE */\n      0xf0c57e16840df040f15088dc2f81fe391c3923bec73e23a9662efc9c229c6a00\n        /* \"@openzeppelin/contracts-upgradeable/proxy/utils/Initializable.sol\":4302:4317  $._initializing */\n      dup1\n      sload\n      shl(0x40, 0x01)\n      dup2\n      div\n      0xff\n      and\n        /* \"@openzeppelin/contracts-upgradeable/proxy/utils/Initializable.sol\":4301:4317  !$._initializing */\n      iszero\n      swap1\n        /* \"@openzeppelin/contracts-upgradeable/proxy/utils/Initializable.sol\":4348:4362  $._initialized */\n      0xffffffffffffffff\n      and\n        /* \"@openzeppelin/contracts-upgradeable/proxy/utils/Initializable.sol\":4158:4188  InitializableStorage storage $ */\n      0x00\n        /* \"@openzeppelin/contracts-upgradeable/proxy/utils/Initializable.sol\":4726:4742  initialized == 0 */\n      dup2\n      iszero\n        /* \"@openzeppelin/contracts-upgradeable/proxy/utils/Initializable.sol\":4726:4760  initialized == 0 && isTopLevelCall */\n      dup1\n      iszero\n      tag_302\n      jumpi\n      pop\n        /* \"@openzeppelin/contracts-upgradeable/proxy/utils/Initializable.sol\":4746:4760  isTopLevelCall */\n      dup3\n        /* \"@openzeppelin/contracts-upgradeable/proxy/utils/Initializable.sol\":4726:4760  initialized == 0 && isTopLevelCall */\n    tag_302:\n        /* \"@openzeppelin/contracts-upgradeable/proxy/utils/Initializable.sol\":4706:4760  bool initialSetup = initialized == 0 && isTopLevelCall */\n      swap1\n      pop\n        /* \"@openzeppelin/contracts-upgradeable/proxy/utils/Initializable.sol\":4770:4787  bool construction */\n      0x00\n        /* \"@openzeppelin/contracts-upgradeable/proxy/utils/Initializable.sol\":4790:4801  initialized */\n      dup3\n        /* \"@openzeppelin/contracts-upgradeable/proxy/utils/Initializable.sol\":4790:4806  initialized == 1 */\n      0xffffffffffffffff\n      and\n        /* \"@openzeppelin/contracts-upgradeable/proxy/utils/Initializable.sol\":4805:4806  1 */\n      0x01\n        /* \"@openzeppelin/contracts-upgradeable/proxy/utils/Initializable.sol\":4790:4806  initialized == 1 */\n      eq\n        /* \"@openzeppelin/contracts-upgradeable/proxy/utils/Initializable.sol\":4790:4840  initialized == 1 && address(this).code.length == 0 */\n      dup1\n      iszero\n      tag_303\n      jumpi\n      pop\n        /* \"@openzeppelin/contracts-upgradeable/proxy/utils/Initializable.sol\":4818:4822  this */\n      address\n        /* \"@openzeppelin/contracts-upgradeable/proxy/utils/Initializable.sol\":4810:4835  address(this).code.length */\n      extcodesize\n        /* \"@openzeppelin/contracts-upgradeable/proxy/utils/Initializable.sol\":4810:4840  address(this).code.length == 0 */\n      iszero\n        /* \"@openzeppelin/contracts-upgradeable/proxy/utils/Initializable.sol\":4790:4840  initialized == 1 && address(this).code.length == 0 */\n    tag_303:\n        /* \"@openzeppelin/contracts-upgradeable/proxy/utils/Initializable.sol\":4770:4840  bool construction = initialized == 1 && address(this).code.length == 0 */\n      swap1\n      pop\n        /* \"@openzeppelin/contracts-upgradeable/proxy/utils/Initializable.sol\":4856:4868  initialSetup */\n      dup2\n        /* \"@openzeppelin/contracts-upgradeable/proxy/utils/Initializable.sol\":4855:4868  !initialSetup */\n      iszero\n        /* \"@openzeppelin/contracts-upgradeable/proxy/utils/Initializable.sol\":4855:4885  !initialSetup && !construction */\n      dup1\n      iszero\n      tag_304\n      jumpi\n      pop\n        /* \"@openzeppelin/contracts-upgradeable/proxy/utils/Initializable.sol\":4873:4885  construction */\n      dup1\n        /* \"@openzeppelin/contracts-upgradeable/proxy/utils/Initializable.sol\":4872:4885  !construction */\n      iszero\n        /* \"@openzeppelin/contracts-upgradeable/proxy/utils/Initializable.sol\":4855:4885  !initialSetup && !construction */\n    tag_304:\n        /* \"@openzeppelin/contracts-upgradeable/proxy/utils/Initializable.sol\":4851:4942  if (!initialSetup && !construction) {... */\n      iszero\n      tag_305\n      jumpi\n        /* \"@openzeppelin/contracts-upgradeable/proxy/utils/Initializable.sol\":4908:4931  InvalidInitialization() */\n      mload(0x40)\n      shl(0xe0, 0xf92ee8a9)\n      dup2\n      mstore\n      0x04\n      add\n      mload(0x40)\n      dup1\n      swap2\n      sub\n      swap1\n      revert\n        /* \"@openzeppelin/contracts-upgradeable/proxy/utils/Initializable.sol\":4851:4942  if (!initialSetup && !construction) {... */\n    tag_305:\n        /* \"@openzeppelin/contracts-upgradeable/proxy/utils/Initializable.sol\":4951:4969  $._initialized = 1 */\n      dup5\n      sload\n      not(0xffffffffffffffff)\n      and\n        /* \"@openzeppelin/contracts-upgradeable/proxy/utils/Initializable.sol\":4968:4969  1 */\n      0x01\n        /* \"@openzeppelin/contracts-upgradeable/proxy/utils/Initializable.sol\":4951:4969  $._initialized = 1 */\n      or\n      dup6\n      sstore\n        /* \"@openzeppelin/contracts-upgradeable/proxy/utils/Initializable.sol\":4979:5046  if (isTopLevelCall) {... */\n      dup4\n      iszero\n      tag_306\n      jumpi\n        /* \"@openzeppelin/contracts-upgradeable/proxy/utils/Initializable.sol\":5013:5035  $._initializing = true */\n      dup5\n      sload\n      not(shl(0x40, 0xff))\n      and\n      shl(0x40, 0x01)\n      or\n      dup6\n      sstore\n        /* \"@openzeppelin/contracts-upgradeable/proxy/utils/Initializable.sol\":4979:5046  if (isTopLevelCall) {... */\n    tag_306:\n        /* \"src/smartcontracts/CryptoQuestTheShardsOfGenesisWallet.sol\":2881:2903  __AccessControl_init() */\n      tag_308\n        /* \"src/smartcontracts/CryptoQuestTheShardsOfGenesisWallet.sol\":2881:2901  __AccessControl_init */\n      tag_309\n        /* \"src/smartcontracts/CryptoQuestTheShardsOfGenesisWallet.sol\":2881:2903  __AccessControl_init() */\n      jump\t// in\n    tag_308:\n        /* \"src/smartcontracts/CryptoQuestTheShardsOfGenesisWallet.sol\":2913:2930  __Pausable_init() */\n      tag_310\n        /* \"src/smartcontracts/CryptoQuestTheShardsOfGenesisWallet.sol\":2913:2928  __Pausable_init */\n      tag_311\n        /* \"src/smartcontracts/CryptoQuestTheShardsOfGenesisWallet.sol\":2913:2930  __Pausable_init() */\n      jump\t// in\n    tag_310:\n        /* \"src/smartcontracts/CryptoQuestTheShardsOfGenesisWallet.sol\":2940:2964  __UUPSUpgradeable_init() */\n      tag_312\n        /* \"src/smartcontracts/CryptoQuestTheShardsOfGenesisWallet.sol\":2940:2962  __UUPSUpgradeable_init */\n      tag_309\n        /* \"src/smartcontracts/CryptoQuestTheShardsOfGenesisWallet.sol\":2940:2964  __UUPSUpgradeable_init() */\n      jump\t// in\n    tag_312:\n        /* \"src/smartcontracts/CryptoQuestTheShardsOfGenesisWallet.sol\":2975:3012  _grantRole(DEFAULT_ADMIN_ROLE, admin) */\n      tag_314\n        /* \"@openzeppelin/contracts-upgradeable/access/AccessControlUpgradeable.sol\":2362:2366  0x00 */\n      0x00\n        /* \"src/smartcontracts/CryptoQuestTheShardsOfGenesisWallet.sol\":3006:3011  admin */\n      dup16\n        /* \"src/smartcontracts/CryptoQuestTheShardsOfGenesisWallet.sol\":2975:2985  _grantRole */\n      tag_269\n        /* \"src/smartcontracts/CryptoQuestTheShardsOfGenesisWallet.sol\":2975:3012  _grantRole(DEFAULT_ADMIN_ROLE, admin) */\n      jump\t// in\n    tag_314:\n      pop\n        /* \"src/smartcontracts/CryptoQuestTheShardsOfGenesisWallet.sol\":3022:3052  _grantRole(PAUSER_ROLE, admin) */\n      tag_315\n      0x00\n      dup1\n      mload\n      0x20\n      data_9b87106a812d214d41ad9b68a21119e2948eaaf1040375c939ec808b8862455c\n      dup4\n      codecopy\n      dup2\n      mload\n      swap2\n      mstore\n        /* \"src/smartcontracts/CryptoQuestTheShardsOfGenesisWallet.sol\":3046:3051  admin */\n      dup16\n        /* \"src/smartcontracts/CryptoQuestTheShardsOfGenesisWallet.sol\":3022:3032  _grantRole */\n      tag_269\n        /* \"src/smartcontracts/CryptoQuestTheShardsOfGenesisWallet.sol\":3022:3052  _grantRole(PAUSER_ROLE, admin) */\n      jump\t// in\n    tag_315:\n      pop\n        /* \"src/smartcontracts/CryptoQuestTheShardsOfGenesisWallet.sol\":3062:3091  _grantRole(ADMIN_ROLE, admin) */\n      tag_316\n      0x00\n      dup1\n      mload\n      0x20\n      data_cb864c43dd5d441bb6271f424f11befa622c032dfd374d226e26fbbdb782b8f8\n      dup4\n      codecopy\n      dup2\n      mload\n      swap2\n      mstore\n        /* \"src/smartcontracts/CryptoQuestTheShardsOfGenesisWallet.sol\":3085:3090  admin */\n      dup16\n        /* \"src/smartcontracts/CryptoQuestTheShardsOfGenesisWallet.sol\":3062:3072  _grantRole */\n      tag_269\n        /* \"src/smartcontracts/CryptoQuestTheShardsOfGenesisWallet.sol\":3062:3091  _grantRole(ADMIN_ROLE, admin) */\n      jump\t// in\n    tag_316:\n      pop\n        /* \"src/smartcontracts/CryptoQuestTheShardsOfGenesisWallet.sol\":3101:3133  _grantRole(UPGRADER_ROLE, admin) */\n      tag_317\n        /* \"src/smartcontracts/CryptoQuestTheShardsOfGenesisWallet.sol\":1158:1184  keccak256(\"UPGRADER_ROLE\") */\n      0x189ab7a9244df0848122154315af71fe140f3db0fe014031783b0946b8c9d2e3\n        /* \"src/smartcontracts/CryptoQuestTheShardsOfGenesisWallet.sol\":3127:3132  admin */\n      dup16\n        /* \"src/smartcontracts/CryptoQuestTheShardsOfGenesisWallet.sol\":3101:3111  _grantRole */\n      tag_269\n        /* \"src/smartcontracts/CryptoQuestTheShardsOfGenesisWallet.sol\":3101:3133  _grantRole(UPGRADER_ROLE, admin) */\n      jump\t// in\n    tag_317:\n      pop\n        /* \"src/smartcontracts/CryptoQuestTheShardsOfGenesisWallet.sol\":3144:3165  requiredConfirmations */\n      0x3a\n        /* \"src/smartcontracts/CryptoQuestTheShardsOfGenesisWallet.sol\":3144:3190  requiredConfirmations = _requiredConfirmations */\n      dup14\n      swap1\n      sstore\n        /* \"src/smartcontracts/CryptoQuestTheShardsOfGenesisWallet.sol\":3200:3211  stakingRate */\n      0x3c\n        /* \"src/smartcontracts/CryptoQuestTheShardsOfGenesisWallet.sol\":3200:3226  stakingRate = _stakingRate */\n      dup13\n      swap1\n      sstore\n        /* \"src/smartcontracts/CryptoQuestTheShardsOfGenesisWallet.sol\":3237:3249  erc20Address */\n      0x32\n        /* \"src/smartcontracts/CryptoQuestTheShardsOfGenesisWallet.sol\":3237:3265  erc20Address = _erc20Address */\n      dup1\n      sload\n      not(sub(shl(0xa0, 0x01), 0x01))\n      swap1\n      dup2\n      and\n      sub(shl(0xa0, 0x01), 0x01)\n      dup15\n      dup2\n      and\n      swap2\n      swap1\n      swap2\n      or\n      swap1\n      swap3\n      sstore\n        /* \"src/smartcontracts/CryptoQuestTheShardsOfGenesisWallet.sol\":3275:3288  erc721Address */\n      0x33\n        /* \"src/smartcontracts/CryptoQuestTheShardsOfGenesisWallet.sol\":3275:3305  erc721Address = _erc721Address */\n      dup1\n      sload\n      dup3\n      and\n      dup14\n      dup5\n      and\n      or\n      swap1\n      sstore\n        /* \"src/smartcontracts/CryptoQuestTheShardsOfGenesisWallet.sol\":3315:3329  erc1155Address */\n      0x34\n        /* \"src/smartcontracts/CryptoQuestTheShardsOfGenesisWallet.sol\":3315:3347  erc1155Address = _erc1155Address */\n      dup1\n      sload\n      dup3\n      and\n      dup13\n      dup5\n      and\n      or\n      swap1\n      sstore\n        /* \"src/smartcontracts/CryptoQuestTheShardsOfGenesisWallet.sol\":3357:3367  daoAddress */\n      0x35\n        /* \"src/smartcontracts/CryptoQuestTheShardsOfGenesisWallet.sol\":3357:3381  daoAddress = _daoAddress */\n      dup1\n      sload\n      dup3\n      and\n      dup12\n      dup5\n      and\n      or\n      swap1\n      sstore\n        /* \"src/smartcontracts/CryptoQuestTheShardsOfGenesisWallet.sol\":3391:3405  stakingAddress */\n      0x36\n        /* \"src/smartcontracts/CryptoQuestTheShardsOfGenesisWallet.sol\":3391:3423  stakingAddress = _stakingAddress */\n      dup1\n      sload\n      dup3\n      and\n      dup11\n      dup5\n      and\n      or\n      swap1\n      sstore\n        /* \"src/smartcontracts/CryptoQuestTheShardsOfGenesisWallet.sol\":3433:3447  farmingAddress */\n      0x37\n        /* \"src/smartcontracts/CryptoQuestTheShardsOfGenesisWallet.sol\":3433:3465  farmingAddress = _farmingAddress */\n      dup1\n      sload\n      swap1\n      swap2\n      and\n      swap2\n      dup9\n      and\n      swap2\n      swap1\n      swap2\n      or\n      swap1\n      sstore\n        /* \"@openzeppelin/contracts-upgradeable/proxy/utils/Initializable.sol\":5066:5167  if (isTopLevelCall) {... */\n      dup4\n      iszero\n      tag_318\n      jumpi\n        /* \"@openzeppelin/contracts-upgradeable/proxy/utils/Initializable.sol\":5100:5123  $._initializing = false */\n      dup5\n      sload\n      not(shl(0x40, 0xff))\n      and\n      dup6\n      sstore\n        /* \"@openzeppelin/contracts-upgradeable/proxy/utils/Initializable.sol\":5142:5156  Initialized(1) */\n      mload(0x40)\n      0x01\n        /* \"#utility.yul\":8096:8146   */\n      dup2\n      mstore\n        /* \"@openzeppelin/contracts-upgradeable/proxy/utils/Initializable.sol\":5142:5156  Initialized(1) */\n      0xc7f505b2f371ae2175ee4913f4499e1f2633a7b5936321eed1cdaeb6115181d2\n      swap1\n        /* \"#utility.yul\":8084:8086   */\n      0x20\n        /* \"#utility.yul\":8069:8087   */\n      add\n        /* \"@openzeppelin/contracts-upgradeable/proxy/utils/Initializable.sol\":5142:5156  Initialized(1) */\n      mload(0x40)\n      dup1\n      swap2\n      sub\n      swap1\n      log1\n        /* \"@openzeppelin/contracts-upgradeable/proxy/utils/Initializable.sol\":5066:5167  if (isTopLevelCall) {... */\n    tag_318:\n        /* \"@openzeppelin/contracts-upgradeable/proxy/utils/Initializable.sol\":4092:5173  {... */\n      pop\n      pop\n      pop\n      pop\n      pop\n        /* \"src/smartcontracts/CryptoQuestTheShardsOfGenesisWallet.sol\":2542:3472  function initialize(... */\n      pop\n      pop\n      pop\n      pop\n      pop\n      pop\n      pop\n      pop\n      pop\n      jump\t// out\n        /* \"src/smartcontracts/CryptoQuestTheShardsOfGenesisWallet.sol\":6485:6900  function stakeTokens(uint256 _amount) public whenNotPaused {... */\n    tag_131:\n        /* \"@openzeppelin/contracts-upgradeable/security/PausableUpgradeable.sol\":1503:1522  _requireNotPaused() */\n      tag_322\n        /* \"@openzeppelin/contracts-upgradeable/security/PausableUpgradeable.sol\":1503:1520  _requireNotPaused */\n      tag_323\n        /* \"@openzeppelin/contracts-upgradeable/security/PausableUpgradeable.sol\":1503:1522  _requireNotPaused() */\n      jump\t// in\n    tag_322:\n        /* \"src/smartcontracts/CryptoQuestTheShardsOfGenesisWallet.sol\":6598:6610  erc20Address */\n      sload(0x32)\n        /* \"src/smartcontracts/CryptoQuestTheShardsOfGenesisWallet.sol\":6629:6683  token.transferFrom(msg.sender, address(this), _amount) */\n      mload(0x40)\n      shl(0xe0, 0x23b872dd)\n      dup2\n      mstore\n        /* \"src/smartcontracts/CryptoQuestTheShardsOfGenesisWallet.sol\":6648:6658  msg.sender */\n      caller\n        /* \"src/smartcontracts/CryptoQuestTheShardsOfGenesisWallet.sol\":6629:6683  token.transferFrom(msg.sender, address(this), _amount) */\n      0x04\n      dup3\n      add\n        /* \"#utility.yul\":8397:8431   */\n      mstore\n        /* \"src/smartcontracts/CryptoQuestTheShardsOfGenesisWallet.sol\":6668:6672  this */\n      address\n        /* \"#utility.yul\":8447:8465   */\n      0x24\n      dup3\n      add\n        /* \"#utility.yul\":8440:8483   */\n      mstore\n        /* \"#utility.yul\":8499:8517   */\n      0x44\n      dup2\n      add\n        /* \"#utility.yul\":8492:8526   */\n      dup4\n      swap1\n      mstore\n      sub(shl(0xa0, 0x01), 0x01)\n        /* \"src/smartcontracts/CryptoQuestTheShardsOfGenesisWallet.sol\":6598:6610  erc20Address */\n      swap1\n      swap2\n      and\n      swap1\n      dup2\n      swap1\n        /* \"src/smartcontracts/CryptoQuestTheShardsOfGenesisWallet.sol\":6629:6647  token.transferFrom */\n      0x23b872dd\n      swap1\n        /* \"#utility.yul\":8332:8350   */\n      0x64\n      add\n        /* \"src/smartcontracts/CryptoQuestTheShardsOfGenesisWallet.sol\":6629:6683  token.transferFrom(msg.sender, address(this), _amount) */\n      0x20\n      mload(0x40)\n      dup1\n      dup4\n      sub\n      dup2\n      0x00\n      dup8\n      gas\n      call\n      iszero\n      dup1\n      iszero\n      tag_328\n      jumpi\n      returndatasize\n      0x00\n      dup1\n      returndatacopy\n      revert(0x00, returndatasize)\n    tag_328:\n      pop\n      pop\n      pop\n      pop\n      mload(0x40)\n      returndatasize\n      not(0x1f)\n      0x1f\n      dup3\n      add\n      and\n      dup3\n      add\n      dup1\n      0x40\n      mstore\n      pop\n      dup2\n      add\n      swap1\n      tag_329\n      swap2\n      swap1\n      tag_330\n      jump\t// in\n    tag_329:\n        /* \"src/smartcontracts/CryptoQuestTheShardsOfGenesisWallet.sol\":6621:6709  require(token.transferFrom(msg.sender, address(this), _amount), \"Token transfer failed\") */\n      tag_331\n      jumpi\n      mload(0x40)\n      shl(0xe5, 0x461bcd)\n      dup2\n      mstore\n        /* \"#utility.yul\":9021:9023   */\n      0x20\n        /* \"src/smartcontracts/CryptoQuestTheShardsOfGenesisWallet.sol\":6621:6709  require(token.transferFrom(msg.sender, address(this), _amount), \"Token transfer failed\") */\n      0x04\n      dup3\n      add\n        /* \"#utility.yul\":9003:9024   */\n      mstore\n        /* \"#utility.yul\":9060:9062   */\n      0x15\n        /* \"#utility.yul\":9040:9058   */\n      0x24\n      dup3\n      add\n        /* \"#utility.yul\":9033:9063   */\n      mstore\n      shl(0x5a, 0x151bdad95b881d1c985b9cd9995c8819985a5b1959)\n        /* \"#utility.yul\":9079:9097   */\n      0x44\n      dup3\n      add\n        /* \"#utility.yul\":9072:9123   */\n      mstore\n        /* \"#utility.yul\":9140:9158   */\n      0x64\n      add\n        /* \"src/smartcontracts/CryptoQuestTheShardsOfGenesisWallet.sol\":6621:6709  require(token.transferFrom(msg.sender, address(this), _amount), \"Token transfer failed\") */\n      tag_237\n        /* \"#utility.yul\":8819:9164   */\n      jump\n        /* \"src/smartcontracts/CryptoQuestTheShardsOfGenesisWallet.sol\":6621:6709  require(token.transferFrom(msg.sender, address(this), _amount), \"Token transfer failed\") */\n    tag_331:\n        /* \"src/smartcontracts/CryptoQuestTheShardsOfGenesisWallet.sol\":6741:6827  Stake({... */\n      0x40\n      dup1\n      mload\n      dup1\n      dup3\n      add\n      dup3\n      mstore\n      dup4\n      dup2\n      mstore\n        /* \"src/smartcontracts/CryptoQuestTheShardsOfGenesisWallet.sol\":6801:6816  block.timestamp */\n      timestamp\n        /* \"src/smartcontracts/CryptoQuestTheShardsOfGenesisWallet.sol\":6741:6827  Stake({... */\n      0x20\n      dup1\n      dup4\n      add\n      dup3\n      dup2\n      mstore\n        /* \"src/smartcontracts/CryptoQuestTheShardsOfGenesisWallet.sol\":6727:6737  msg.sender */\n      caller\n      0x00\n        /* \"src/smartcontracts/CryptoQuestTheShardsOfGenesisWallet.sol\":6720:6738  stakes[msg.sender] */\n      dup2\n      dup2\n      mstore\n        /* \"src/smartcontracts/CryptoQuestTheShardsOfGenesisWallet.sol\":6720:6726  stakes */\n      0x3b\n        /* \"src/smartcontracts/CryptoQuestTheShardsOfGenesisWallet.sol\":6720:6738  stakes[msg.sender] */\n      dup5\n      mstore\n      dup7\n      swap1\n      keccak256\n        /* \"src/smartcontracts/CryptoQuestTheShardsOfGenesisWallet.sol\":6720:6827  stakes[msg.sender] = Stake({... */\n      swap5\n      mload\n      dup6\n      sstore\n      swap1\n      mload\n      0x01\n      swap1\n      swap5\n      add\n      swap4\n      swap1\n      swap4\n      sstore\n        /* \"src/smartcontracts/CryptoQuestTheShardsOfGenesisWallet.sol\":6843:6893  TokensStaked(msg.sender, _amount, block.timestamp) */\n      dup4\n      mload\n        /* \"#utility.yul\":1248:1273   */\n      dup7\n      dup2\n      mstore\n        /* \"#utility.yul\":1289:1307   */\n      swap1\n      dup2\n      add\n        /* \"#utility.yul\":1282:1316   */\n      swap2\n      swap1\n      swap2\n      mstore\n        /* \"src/smartcontracts/CryptoQuestTheShardsOfGenesisWallet.sol\":6727:6737  msg.sender */\n      swap1\n      swap2\n        /* \"src/smartcontracts/CryptoQuestTheShardsOfGenesisWallet.sol\":6843:6893  TokensStaked(msg.sender, _amount, block.timestamp) */\n      0xdd2a19c3bdd089cbe77c04f5655f83de0504d6140d12c8667646f55d0557c4dc\n      swap2\n        /* \"#utility.yul\":1221:1239   */\n      add\n        /* \"src/smartcontracts/CryptoQuestTheShardsOfGenesisWallet.sol\":6843:6893  TokensStaked(msg.sender, _amount, block.timestamp) */\n      mload(0x40)\n      dup1\n      swap2\n      sub\n      swap1\n      log2\n        /* \"src/smartcontracts/CryptoQuestTheShardsOfGenesisWallet.sol\":6544:6900  {... */\n      pop\n        /* \"src/smartcontracts/CryptoQuestTheShardsOfGenesisWallet.sol\":6485:6900  function stakeTokens(uint256 _amount) public whenNotPaused {... */\n      pop\n      jump\t// out\n        /* \"src/smartcontracts/CryptoQuestTheShardsOfGenesisWallet.sol\":7486:7557  function pause() public onlyRole(PAUSER_ROLE) {... */\n    tag_149:\n      0x00\n      dup1\n      mload\n      0x20\n      data_9b87106a812d214d41ad9b68a21119e2948eaaf1040375c939ec808b8862455c\n      dup4\n      codecopy\n      dup2\n      mload\n      swap2\n      mstore\n        /* \"@openzeppelin/contracts-upgradeable/access/AccessControlUpgradeable.sol\":3191:3207  _checkRole(role) */\n      tag_336\n        /* \"@openzeppelin/contracts-upgradeable/access/AccessControlUpgradeable.sol\":3202:3206  role */\n      dup2\n        /* \"@openzeppelin/contracts-upgradeable/access/AccessControlUpgradeable.sol\":3191:3201  _checkRole */\n      tag_266\n        /* \"@openzeppelin/contracts-upgradeable/access/AccessControlUpgradeable.sol\":3191:3207  _checkRole(role) */\n      jump\t// in\n    tag_336:\n        /* \"src/smartcontracts/CryptoQuestTheShardsOfGenesisWallet.sol\":7542:7550  _pause() */\n      tag_279\n        /* \"src/smartcontracts/CryptoQuestTheShardsOfGenesisWallet.sol\":7542:7548  _pause */\n      tag_339\n        /* \"src/smartcontracts/CryptoQuestTheShardsOfGenesisWallet.sol\":7542:7550  _pause() */\n      jump\t// in\n        /* \"@openzeppelin/contracts-upgradeable/access/AccessControlUpgradeable.sol\":3732:3939  function hasRole(bytes32 role, address account) public view virtual returns (bool) {... */\n    tag_157:\n        /* \"@openzeppelin/contracts-upgradeable/access/AccessControlUpgradeable.sol\":3809:3813  bool */\n      0x00\n        /* \"@openzeppelin/contracts-upgradeable/access/AccessControlUpgradeable.sol\":3901:3915  $._roles[role] */\n      swap2\n      dup3\n      mstore\n      0x00\n      dup1\n      mload\n      0x20\n      data_b3da67d1b252aeab7c8063542d95e75f82a5307a82535949bc38f7cf7ba8897f\n      dup4\n      codecopy\n      dup2\n      mload\n      swap2\n      mstore\n      0x20\n      swap1\n      dup2\n      mstore\n      0x40\n      dup1\n      dup5\n      keccak256\n      sub(shl(0xa0, 0x01), 0x01)\n        /* \"@openzeppelin/contracts-upgradeable/access/AccessControlUpgradeable.sol\":3901:3932  $._roles[role].hasRole[account] */\n      swap4\n      swap1\n      swap4\n      and\n      dup5\n      mstore\n      swap2\n      swap1\n      mstore\n      swap1\n      keccak256\n      sload\n      0xff\n      and\n      swap1\n        /* \"@openzeppelin/contracts-upgradeable/access/AccessControlUpgradeable.sol\":3732:3939  function hasRole(bytes32 role, address account) public view virtual returns (bool) {... */\n      jump\t// out\n        /* \"src/smartcontracts/CryptoQuestTheShardsOfGenesisWallet.sol\":4390:4494  function setDAOAddress(address _daoAddress) external onlyAdmin {... */\n    tag_162:\n        /* \"src/smartcontracts/CryptoQuestTheShardsOfGenesisWallet.sol\":3517:3548  hasRole(ADMIN_ROLE, msg.sender) */\n      tag_343\n      0x00\n      dup1\n      mload\n      0x20\n      data_cb864c43dd5d441bb6271f424f11befa622c032dfd374d226e26fbbdb782b8f8\n      dup4\n      codecopy\n      dup2\n      mload\n      swap2\n      mstore\n        /* \"src/smartcontracts/CryptoQuestTheShardsOfGenesisWallet.sol\":3537:3547  msg.sender */\n      caller\n        /* \"src/smartcontracts/CryptoQuestTheShardsOfGenesisWallet.sol\":3517:3524  hasRole */\n      tag_157\n        /* \"src/smartcontracts/CryptoQuestTheShardsOfGenesisWallet.sol\":3517:3548  hasRole(ADMIN_ROLE, msg.sender) */\n      jump\t// in\n    tag_343:\n        /* \"src/smartcontracts/CryptoQuestTheShardsOfGenesisWallet.sol\":3509:3565  require(hasRole(ADMIN_ROLE, msg.sender), \"Not an admin\") */\n      tag_344\n      jumpi\n      mload(0x40)\n      shl(0xe5, 0x461bcd)\n      dup2\n      mstore\n      0x04\n      add\n      tag_237\n      swap1\n      tag_238\n      jump\t// in\n    tag_344:\n        /* \"src/smartcontracts/CryptoQuestTheShardsOfGenesisWallet.sol\":4463:4473  daoAddress */\n      0x35\n        /* \"src/smartcontracts/CryptoQuestTheShardsOfGenesisWallet.sol\":4463:4487  daoAddress = _daoAddress */\n      dup1\n      sload\n      not(sub(shl(0xa0, 0x01), 0x01))\n      and\n      sub(shl(0xa0, 0x01), 0x01)\n      swap3\n      swap1\n      swap3\n      and\n      swap2\n      swap1\n      swap2\n      or\n      swap1\n      sstore\n        /* \"src/smartcontracts/CryptoQuestTheShardsOfGenesisWallet.sol\":4390:4494  function setDAOAddress(address _daoAddress) external onlyAdmin {... */\n      jump\t// out\n        /* \"src/smartcontracts/CryptoQuestTheShardsOfGenesisWallet.sol\":4142:4258  function setERC721Address(address _erc721Address) external onlyAdmin {... */\n    tag_166:\n        /* \"src/smartcontracts/CryptoQuestTheShardsOfGenesisWallet.sol\":3517:3548  hasRole(ADMIN_ROLE, msg.sender) */\n      tag_348\n      0x00\n      dup1\n      mload\n      0x20\n      data_cb864c43dd5d441bb6271f424f11befa622c032dfd374d226e26fbbdb782b8f8\n      dup4\n      codecopy\n      dup2\n      mload\n      swap2\n      mstore\n        /* \"src/smartcontracts/CryptoQuestTheShardsOfGenesisWallet.sol\":3537:3547  msg.sender */\n      caller\n        /* \"src/smartcontracts/CryptoQuestTheShardsOfGenesisWallet.sol\":3517:3524  hasRole */\n      tag_157\n        /* \"src/smartcontracts/CryptoQuestTheShardsOfGenesisWallet.sol\":3517:3548  hasRole(ADMIN_ROLE, msg.sender) */\n      jump\t// in\n    tag_348:\n        /* \"src/smartcontracts/CryptoQuestTheShardsOfGenesisWallet.sol\":3509:3565  require(hasRole(ADMIN_ROLE, msg.sender), \"Not an admin\") */\n      tag_349\n      jumpi\n      mload(0x40)\n      shl(0xe5, 0x461bcd)\n      dup2\n      mstore\n      0x04\n      add\n      tag_237\n      swap1\n      tag_238\n      jump\t// in\n    tag_349:\n        /* \"src/smartcontracts/CryptoQuestTheShardsOfGenesisWallet.sol\":4221:4234  erc721Address */\n      0x33\n        /* \"src/smartcontracts/CryptoQuestTheShardsOfGenesisWallet.sol\":4221:4251  erc721Address = _erc721Address */\n      dup1\n      sload\n      not(sub(shl(0xa0, 0x01), 0x01))\n      and\n      sub(shl(0xa0, 0x01), 0x01)\n      swap3\n      swap1\n      swap3\n      and\n      swap2\n      swap1\n      swap2\n      or\n      swap1\n      sstore\n        /* \"src/smartcontracts/CryptoQuestTheShardsOfGenesisWallet.sol\":4142:4258  function setERC721Address(address _erc721Address) external onlyAdmin {... */\n      jump\t// out\n        /* \"src/smartcontracts/CryptoQuestTheShardsOfGenesisWallet.sol\":1698:1731  Transaction[] public transactions */\n    tag_170:\n      0x39\n      dup2\n      dup2\n      sload\n      dup2\n      lt\n      tag_352\n      jumpi\n      0x00\n      dup1\n      revert\n    tag_352:\n      0x00\n      swap2\n      dup3\n      mstore\n      0x20\n      swap1\n      swap2\n      keccak256\n      0x05\n      swap1\n      swap2\n      mul\n      add\n      dup1\n      sload\n      0x01\n      dup3\n      add\n      sload\n      0x02\n      dup4\n      add\n      dup1\n      sload\n      sub(shl(0xa0, 0x01), 0x01)\n      swap1\n      swap4\n      and\n      swap5\n      pop\n      swap1\n      swap3\n      swap2\n      tag_354\n      swap1\n      tag_355\n      jump\t// in\n    tag_354:\n      dup1\n      0x1f\n      add\n      0x20\n      dup1\n      swap2\n      div\n      mul\n      0x20\n      add\n      mload(0x40)\n      swap1\n      dup2\n      add\n      0x40\n      mstore\n      dup1\n      swap3\n      swap2\n      swap1\n      dup2\n      dup2\n      mstore\n      0x20\n      add\n      dup3\n      dup1\n      sload\n      tag_356\n      swap1\n      tag_355\n      jump\t// in\n    tag_356:\n      dup1\n      iszero\n      tag_357\n      jumpi\n      dup1\n      0x1f\n      lt\n      tag_358\n      jumpi\n      0x0100\n      dup1\n      dup4\n      sload\n      div\n      mul\n      dup4\n      mstore\n      swap2\n      0x20\n      add\n      swap2\n      jump(tag_357)\n    tag_358:\n      dup3\n      add\n      swap2\n      swap1\n      0x00\n      mstore\n      keccak256(0x00, 0x20)\n      swap1\n    tag_359:\n      dup2\n      sload\n      dup2\n      mstore\n      swap1\n      0x01\n      add\n      swap1\n      0x20\n      add\n      dup1\n      dup4\n      gt\n      tag_359\n      jumpi\n      dup3\n      swap1\n      sub\n      0x1f\n      and\n      dup3\n      add\n      swap2\n    tag_357:\n      pop\n      pop\n      pop\n      pop\n      0x03\n      dup4\n      add\n      sload\n      0x04\n      swap1\n      swap4\n      add\n      sload\n      swap2\n      swap3\n      0xff\n      and\n      swap2\n      swap1\n      pop\n      dup6\n      jump\t// out\n        /* \"src/smartcontracts/CryptoQuestTheShardsOfGenesisWallet.sol\":6906:7480  function unstakeTokens() public whenNotPaused {... */\n    tag_179:\n        /* \"@openzeppelin/contracts-upgradeable/security/PausableUpgradeable.sol\":1503:1522  _requireNotPaused() */\n      tag_361\n        /* \"@openzeppelin/contracts-upgradeable/security/PausableUpgradeable.sol\":1503:1520  _requireNotPaused */\n      tag_323\n        /* \"@openzeppelin/contracts-upgradeable/security/PausableUpgradeable.sol\":1503:1522  _requireNotPaused() */\n      jump\t// in\n    tag_361:\n        /* \"src/smartcontracts/CryptoQuestTheShardsOfGenesisWallet.sol\":6990:7000  msg.sender */\n      caller\n        /* \"src/smartcontracts/CryptoQuestTheShardsOfGenesisWallet.sol\":6962:6980  Stake memory stake */\n      0x00\n        /* \"src/smartcontracts/CryptoQuestTheShardsOfGenesisWallet.sol\":6983:7001  stakes[msg.sender] */\n      swap1\n      dup2\n      mstore\n        /* \"src/smartcontracts/CryptoQuestTheShardsOfGenesisWallet.sol\":6983:6989  stakes */\n      0x3b\n        /* \"src/smartcontracts/CryptoQuestTheShardsOfGenesisWallet.sol\":6983:7001  stakes[msg.sender] */\n      0x20\n      swap1\n      dup2\n      mstore\n      0x40\n      swap2\n      dup3\n      swap1\n      keccak256\n        /* \"src/smartcontracts/CryptoQuestTheShardsOfGenesisWallet.sol\":6962:7001  Stake memory stake = stakes[msg.sender] */\n      dup3\n      mload\n      dup1\n      dup5\n      add\n      swap1\n      swap4\n      mstore\n      dup1\n      sload\n      dup1\n      dup5\n      mstore\n      0x01\n      swap1\n      swap2\n      add\n      sload\n      swap2\n      dup4\n      add\n      swap2\n      swap1\n      swap2\n      mstore\n        /* \"src/smartcontracts/CryptoQuestTheShardsOfGenesisWallet.sol\":7011:7056  require(stake.amount > 0, \"No tokens staked\") */\n      tag_363\n      jumpi\n      mload(0x40)\n      shl(0xe5, 0x461bcd)\n      dup2\n      mstore\n        /* \"#utility.yul\":9756:9758   */\n      0x20\n        /* \"src/smartcontracts/CryptoQuestTheShardsOfGenesisWallet.sol\":7011:7056  require(stake.amount > 0, \"No tokens staked\") */\n      0x04\n      dup3\n      add\n        /* \"#utility.yul\":9738:9759   */\n      mstore\n        /* \"#utility.yul\":9795:9797   */\n      0x10\n        /* \"#utility.yul\":9775:9793   */\n      0x24\n      dup3\n      add\n        /* \"#utility.yul\":9768:9798   */\n      mstore\n      shl(0x82, 0x139bc81d1bdad95b9cc81cdd185ad959)\n        /* \"#utility.yul\":9814:9832   */\n      0x44\n      dup3\n      add\n        /* \"#utility.yul\":9807:9853   */\n      mstore\n        /* \"#utility.yul\":9870:9888   */\n      0x64\n      add\n        /* \"src/smartcontracts/CryptoQuestTheShardsOfGenesisWallet.sol\":7011:7056  require(stake.amount > 0, \"No tokens staked\") */\n      tag_237\n        /* \"#utility.yul\":9554:9894   */\n      jump\n        /* \"src/smartcontracts/CryptoQuestTheShardsOfGenesisWallet.sol\":7011:7056  require(stake.amount > 0, \"No tokens staked\") */\n    tag_363:\n        /* \"src/smartcontracts/CryptoQuestTheShardsOfGenesisWallet.sol\":7067:7090  uint256 stakingDuration */\n      0x00\n        /* \"src/smartcontracts/CryptoQuestTheShardsOfGenesisWallet.sol\":7111:7116  stake */\n      dup2\n        /* \"src/smartcontracts/CryptoQuestTheShardsOfGenesisWallet.sol\":7111:7126  stake.startTime */\n      0x20\n      add\n      mload\n        /* \"src/smartcontracts/CryptoQuestTheShardsOfGenesisWallet.sol\":7093:7108  block.timestamp */\n      timestamp\n        /* \"src/smartcontracts/CryptoQuestTheShardsOfGenesisWallet.sol\":7093:7126  block.timestamp - stake.startTime */\n      tag_366\n      swap2\n      swap1\n      tag_259\n      jump\t// in\n    tag_366:\n        /* \"src/smartcontracts/CryptoQuestTheShardsOfGenesisWallet.sol\":7067:7126  uint256 stakingDuration = block.timestamp - stake.startTime */\n      swap1\n      pop\n        /* \"src/smartcontracts/CryptoQuestTheShardsOfGenesisWallet.sol\":7136:7150  uint256 reward */\n      0x00\n        /* \"src/smartcontracts/CryptoQuestTheShardsOfGenesisWallet.sol\":7203:7211  365 days */\n      0x01e13380\n        /* \"src/smartcontracts/CryptoQuestTheShardsOfGenesisWallet.sol\":7183:7198  stakingDuration */\n      dup3\n        /* \"src/smartcontracts/CryptoQuestTheShardsOfGenesisWallet.sol\":7169:7180  stakingRate */\n      sload(0x3c)\n        /* \"src/smartcontracts/CryptoQuestTheShardsOfGenesisWallet.sol\":7154:7159  stake */\n      dup6\n        /* \"src/smartcontracts/CryptoQuestTheShardsOfGenesisWallet.sol\":7154:7166  stake.amount */\n      0x00\n      add\n      mload\n        /* \"src/smartcontracts/CryptoQuestTheShardsOfGenesisWallet.sol\":7154:7180  stake.amount * stakingRate */\n      tag_367\n      swap2\n      swap1\n      tag_368\n      jump\t// in\n    tag_367:\n        /* \"src/smartcontracts/CryptoQuestTheShardsOfGenesisWallet.sol\":7154:7198  stake.amount * stakingRate * stakingDuration */\n      tag_369\n      swap2\n      swap1\n      tag_368\n      jump\t// in\n    tag_369:\n        /* \"src/smartcontracts/CryptoQuestTheShardsOfGenesisWallet.sol\":7153:7212  (stake.amount * stakingRate * stakingDuration) / (365 days) */\n      tag_370\n      swap2\n      swap1\n      tag_371\n      jump\t// in\n    tag_370:\n        /* \"src/smartcontracts/CryptoQuestTheShardsOfGenesisWallet.sol\":7267:7279  erc20Address */\n      sload(0x32)\n        /* \"src/smartcontracts/CryptoQuestTheShardsOfGenesisWallet.sol\":7325:7337  stake.amount */\n      dup5\n      mload\n        /* \"src/smartcontracts/CryptoQuestTheShardsOfGenesisWallet.sol\":7136:7212  uint256 reward = (stake.amount * stakingRate * stakingDuration) / (365 days) */\n      swap2\n      swap3\n      pop\n      sub(shl(0xa0, 0x01), 0x01)\n        /* \"src/smartcontracts/CryptoQuestTheShardsOfGenesisWallet.sol\":7267:7279  erc20Address */\n      and\n      swap1\n      dup2\n      swap1\n        /* \"src/smartcontracts/CryptoQuestTheShardsOfGenesisWallet.sol\":7298:7312  token.transfer */\n      0xa9059cbb\n      swap1\n        /* \"src/smartcontracts/CryptoQuestTheShardsOfGenesisWallet.sol\":7313:7323  msg.sender */\n      caller\n      swap1\n        /* \"src/smartcontracts/CryptoQuestTheShardsOfGenesisWallet.sol\":7325:7346  stake.amount + reward */\n      tag_372\n      swap1\n        /* \"src/smartcontracts/CryptoQuestTheShardsOfGenesisWallet.sol\":7136:7212  uint256 reward = (stake.amount * stakingRate * stakingDuration) / (365 days) */\n      dup7\n      swap1\n        /* \"src/smartcontracts/CryptoQuestTheShardsOfGenesisWallet.sol\":7325:7346  stake.amount + reward */\n      tag_373\n      jump\t// in\n    tag_372:\n        /* \"src/smartcontracts/CryptoQuestTheShardsOfGenesisWallet.sol\":7298:7347  token.transfer(msg.sender, stake.amount + reward) */\n      mload(0x40)\n      not(sub(shl(0xe0, 0x01), 0x01))\n      0xe0\n      dup6\n      swap1\n      shl\n      and\n      dup2\n      mstore\n      sub(shl(0xa0, 0x01), 0x01)\n        /* \"#utility.yul\":10616:10648   */\n      swap1\n      swap3\n      and\n        /* \"src/smartcontracts/CryptoQuestTheShardsOfGenesisWallet.sol\":7298:7347  token.transfer(msg.sender, stake.amount + reward) */\n      0x04\n      dup4\n      add\n        /* \"#utility.yul\":10598:10649   */\n      mstore\n        /* \"#utility.yul\":10665:10683   */\n      0x24\n      dup3\n      add\n        /* \"#utility.yul\":10658:10692   */\n      mstore\n        /* \"#utility.yul\":10571:10589   */\n      0x44\n      add\n        /* \"src/smartcontracts/CryptoQuestTheShardsOfGenesisWallet.sol\":7298:7347  token.transfer(msg.sender, stake.amount + reward) */\n      0x20\n      mload(0x40)\n      dup1\n      dup4\n      sub\n      dup2\n      0x00\n      dup8\n      gas\n      call\n      iszero\n      dup1\n      iszero\n      tag_377\n      jumpi\n      returndatasize\n      0x00\n      dup1\n      returndatacopy\n      revert(0x00, returndatasize)\n    tag_377:\n      pop\n      pop\n      pop\n      pop\n      mload(0x40)\n      returndatasize\n      not(0x1f)\n      0x1f\n      dup3\n      add\n      and\n      dup3\n      add\n      dup1\n      0x40\n      mstore\n      pop\n      dup2\n      add\n      swap1\n      tag_378\n      swap2\n      swap1\n      tag_330\n      jump\t// in\n    tag_378:\n        /* \"src/smartcontracts/CryptoQuestTheShardsOfGenesisWallet.sol\":7290:7373  require(token.transfer(msg.sender, stake.amount + reward), \"Token transfer failed\") */\n      tag_379\n      jumpi\n      mload(0x40)\n      shl(0xe5, 0x461bcd)\n      dup2\n      mstore\n        /* \"#utility.yul\":9021:9023   */\n      0x20\n        /* \"src/smartcontracts/CryptoQuestTheShardsOfGenesisWallet.sol\":7290:7373  require(token.transfer(msg.sender, stake.amount + reward), \"Token transfer failed\") */\n      0x04\n      dup3\n      add\n        /* \"#utility.yul\":9003:9024   */\n      mstore\n        /* \"#utility.yul\":9060:9062   */\n      0x15\n        /* \"#utility.yul\":9040:9058   */\n      0x24\n      dup3\n      add\n        /* \"#utility.yul\":9033:9063   */\n      mstore\n      shl(0x5a, 0x151bdad95b881d1c985b9cd9995c8819985a5b1959)\n        /* \"#utility.yul\":9079:9097   */\n      0x44\n      dup3\n      add\n        /* \"#utility.yul\":9072:9123   */\n      mstore\n        /* \"#utility.yul\":9140:9158   */\n      0x64\n      add\n        /* \"src/smartcontracts/CryptoQuestTheShardsOfGenesisWallet.sol\":7290:7373  require(token.transfer(msg.sender, stake.amount + reward), \"Token transfer failed\") */\n      tag_237\n        /* \"#utility.yul\":8819:9164   */\n      jump\n        /* \"src/smartcontracts/CryptoQuestTheShardsOfGenesisWallet.sol\":7290:7373  require(token.transfer(msg.sender, stake.amount + reward), \"Token transfer failed\") */\n    tag_379:\n        /* \"src/smartcontracts/CryptoQuestTheShardsOfGenesisWallet.sol\":7398:7408  msg.sender */\n      caller\n        /* \"src/smartcontracts/CryptoQuestTheShardsOfGenesisWallet.sol\":7391:7409  stakes[msg.sender] */\n      0x00\n      dup2\n      dup2\n      mstore\n        /* \"src/smartcontracts/CryptoQuestTheShardsOfGenesisWallet.sol\":7391:7397  stakes */\n      0x3b\n        /* \"src/smartcontracts/CryptoQuestTheShardsOfGenesisWallet.sol\":7391:7409  stakes[msg.sender] */\n      0x20\n      swap1\n      dup2\n      mstore\n      0x40\n      dup1\n      dup4\n      keccak256\n        /* \"src/smartcontracts/CryptoQuestTheShardsOfGenesisWallet.sol\":7384:7409  delete stakes[msg.sender] */\n      dup4\n      dup2\n      sstore\n      0x01\n      add\n      swap3\n      swap1\n      swap3\n      sstore\n        /* \"src/smartcontracts/CryptoQuestTheShardsOfGenesisWallet.sol\":7452:7464  stake.amount */\n      dup7\n      mload\n        /* \"src/smartcontracts/CryptoQuestTheShardsOfGenesisWallet.sol\":7425:7473  TokensUnstaked(msg.sender, stake.amount, reward) */\n      dup3\n      mload\n        /* \"#utility.yul\":1248:1273   */\n      swap1\n      dup2\n      mstore\n        /* \"#utility.yul\":1289:1307   */\n      swap1\n      dup2\n      add\n        /* \"#utility.yul\":1282:1316   */\n      dup6\n      swap1\n      mstore\n        /* \"src/smartcontracts/CryptoQuestTheShardsOfGenesisWallet.sol\":7425:7473  TokensUnstaked(msg.sender, stake.amount, reward) */\n      0x6f2d3e000c89d37446b7c0374c0125068ff316d1e3ee302336478a8cd03c2336\n      swap2\n        /* \"#utility.yul\":1221:1239   */\n      add\n        /* \"src/smartcontracts/CryptoQuestTheShardsOfGenesisWallet.sol\":7425:7473  TokensUnstaked(msg.sender, stake.amount, reward) */\n      mload(0x40)\n      dup1\n      swap2\n      sub\n      swap1\n      log2\n        /* \"src/smartcontracts/CryptoQuestTheShardsOfGenesisWallet.sol\":6952:7480  {... */\n      pop\n      pop\n      pop\n      pop\n        /* \"src/smartcontracts/CryptoQuestTheShardsOfGenesisWallet.sol\":6906:7480  function unstakeTokens() public whenNotPaused {... */\n      jump\t// out\n        /* \"src/smartcontracts/CryptoQuestTheShardsOfGenesisWallet.sol\":4626:4746  function setFarmingAddress(address _farmingAddress) external onlyAdmin {... */\n    tag_188:\n        /* \"src/smartcontracts/CryptoQuestTheShardsOfGenesisWallet.sol\":3517:3548  hasRole(ADMIN_ROLE, msg.sender) */\n      tag_383\n      0x00\n      dup1\n      mload\n      0x20\n      data_cb864c43dd5d441bb6271f424f11befa622c032dfd374d226e26fbbdb782b8f8\n      dup4\n      codecopy\n      dup2\n      mload\n      swap2\n      mstore\n        /* \"src/smartcontracts/CryptoQuestTheShardsOfGenesisWallet.sol\":3537:3547  msg.sender */\n      caller\n        /* \"src/smartcontracts/CryptoQuestTheShardsOfGenesisWallet.sol\":3517:3524  hasRole */\n      tag_157\n        /* \"src/smartcontracts/CryptoQuestTheShardsOfGenesisWallet.sol\":3517:3548  hasRole(ADMIN_ROLE, msg.sender) */\n      jump\t// in\n    tag_383:\n        /* \"src/smartcontracts/CryptoQuestTheShardsOfGenesisWallet.sol\":3509:3565  require(hasRole(ADMIN_ROLE, msg.sender), \"Not an admin\") */\n      tag_384\n      jumpi\n      mload(0x40)\n      shl(0xe5, 0x461bcd)\n      dup2\n      mstore\n      0x04\n      add\n      tag_237\n      swap1\n      tag_238\n      jump\t// in\n    tag_384:\n        /* \"src/smartcontracts/CryptoQuestTheShardsOfGenesisWallet.sol\":4707:4721  farmingAddress */\n      0x37\n        /* \"src/smartcontracts/CryptoQuestTheShardsOfGenesisWallet.sol\":4707:4739  farmingAddress = _farmingAddress */\n      dup1\n      sload\n      not(sub(shl(0xa0, 0x01), 0x01))\n      and\n      sub(shl(0xa0, 0x01), 0x01)\n      swap3\n      swap1\n      swap3\n      and\n      swap2\n      swap1\n      swap2\n      or\n      swap1\n      sstore\n        /* \"src/smartcontracts/CryptoQuestTheShardsOfGenesisWallet.sol\":4626:4746  function setFarmingAddress(address _farmingAddress) external onlyAdmin {... */\n      jump\t// out\n        /* \"src/smartcontracts/CryptoQuestTheShardsOfGenesisWallet.sol\":5138:5533  function confirmTransaction(uint256 _txIndex)... */\n    tag_192:\n        /* \"src/smartcontracts/CryptoQuestTheShardsOfGenesisWallet.sol\":3517:3548  hasRole(ADMIN_ROLE, msg.sender) */\n      tag_388\n      0x00\n      dup1\n      mload\n      0x20\n      data_cb864c43dd5d441bb6271f424f11befa622c032dfd374d226e26fbbdb782b8f8\n      dup4\n      codecopy\n      dup2\n      mload\n      swap2\n      mstore\n        /* \"src/smartcontracts/CryptoQuestTheShardsOfGenesisWallet.sol\":3537:3547  msg.sender */\n      caller\n        /* \"src/smartcontracts/CryptoQuestTheShardsOfGenesisWallet.sol\":3517:3524  hasRole */\n      tag_157\n        /* \"src/smartcontracts/CryptoQuestTheShardsOfGenesisWallet.sol\":3517:3548  hasRole(ADMIN_ROLE, msg.sender) */\n      jump\t// in\n    tag_388:\n        /* \"src/smartcontracts/CryptoQuestTheShardsOfGenesisWallet.sol\":3509:3565  require(hasRole(ADMIN_ROLE, msg.sender), \"Not an admin\") */\n      tag_389\n      jumpi\n      mload(0x40)\n      shl(0xe5, 0x461bcd)\n      dup2\n      mstore\n      0x04\n      add\n      tag_237\n      swap1\n      tag_238\n      jump\t// in\n    tag_389:\n        /* \"src/smartcontracts/CryptoQuestTheShardsOfGenesisWallet.sol\":3654:3666  transactions */\n      0x39\n        /* \"src/smartcontracts/CryptoQuestTheShardsOfGenesisWallet.sol\":3654:3673  transactions.length */\n      sload\n        /* \"src/smartcontracts/CryptoQuestTheShardsOfGenesisWallet.sol\":5234:5242  _txIndex */\n      dup2\n      swap1\n        /* \"src/smartcontracts/CryptoQuestTheShardsOfGenesisWallet.sol\":3643:3673  _txIndex < transactions.length */\n      dup2\n      lt\n        /* \"src/smartcontracts/CryptoQuestTheShardsOfGenesisWallet.sol\":3635:3704  require(_txIndex < transactions.length, \"Transaction does not exist\") */\n      tag_392\n      jumpi\n      mload(0x40)\n      shl(0xe5, 0x461bcd)\n      dup2\n      mstore\n      0x04\n      add\n      tag_237\n      swap1\n      tag_242\n      jump\t// in\n    tag_392:\n        /* \"src/smartcontracts/CryptoQuestTheShardsOfGenesisWallet.sol\":5264:5272  _txIndex */\n      dup2\n        /* \"src/smartcontracts/CryptoQuestTheShardsOfGenesisWallet.sol\":3786:3798  transactions */\n      0x39\n        /* \"src/smartcontracts/CryptoQuestTheShardsOfGenesisWallet.sol\":3799:3807  _txIndex */\n      dup2\n        /* \"src/smartcontracts/CryptoQuestTheShardsOfGenesisWallet.sol\":3786:3808  transactions[_txIndex] */\n      dup2\n      sload\n      dup2\n      lt\n      tag_396\n      jumpi\n      tag_396\n      tag_246\n      jump\t// in\n    tag_396:\n      0x00\n      swap2\n      dup3\n      mstore\n      0x20\n      swap1\n      swap2\n      keccak256\n        /* \"src/smartcontracts/CryptoQuestTheShardsOfGenesisWallet.sol\":3786:3817  transactions[_txIndex].executed */\n      0x03\n        /* \"src/smartcontracts/CryptoQuestTheShardsOfGenesisWallet.sol\":3786:3808  transactions[_txIndex] */\n      0x05\n      swap1\n      swap3\n      mul\n      add\n        /* \"src/smartcontracts/CryptoQuestTheShardsOfGenesisWallet.sol\":3786:3817  transactions[_txIndex].executed */\n      add\n      sload\n      0xff\n      and\n        /* \"src/smartcontracts/CryptoQuestTheShardsOfGenesisWallet.sol\":3785:3817  !transactions[_txIndex].executed */\n      iszero\n        /* \"src/smartcontracts/CryptoQuestTheShardsOfGenesisWallet.sol\":3777:3850  require(!transactions[_txIndex].executed, \"Transaction already executed\") */\n      tag_398\n      jumpi\n      mload(0x40)\n      shl(0xe5, 0x461bcd)\n      dup2\n      mstore\n      0x04\n      add\n      tag_237\n      swap1\n      tag_250\n      jump\t// in\n    tag_398:\n        /* \"src/smartcontracts/CryptoQuestTheShardsOfGenesisWallet.sol\":3933:3954  isConfirmed[_txIndex] */\n      0x00\n      dup4\n      dup2\n      mstore\n        /* \"src/smartcontracts/CryptoQuestTheShardsOfGenesisWallet.sol\":3933:3944  isConfirmed */\n      0x38\n        /* \"src/smartcontracts/CryptoQuestTheShardsOfGenesisWallet.sol\":3933:3954  isConfirmed[_txIndex] */\n      0x20\n      swap1\n      dup2\n      mstore\n      0x40\n      dup1\n      dup4\n      keccak256\n        /* \"src/smartcontracts/CryptoQuestTheShardsOfGenesisWallet.sol\":3955:3965  msg.sender */\n      caller\n        /* \"src/smartcontracts/CryptoQuestTheShardsOfGenesisWallet.sol\":3933:3966  isConfirmed[_txIndex][msg.sender] */\n      dup5\n      mstore\n      swap1\n      swap2\n      mstore\n      swap1\n      keccak256\n      sload\n        /* \"src/smartcontracts/CryptoQuestTheShardsOfGenesisWallet.sol\":5295:5303  _txIndex */\n      dup4\n      swap1\n        /* \"src/smartcontracts/CryptoQuestTheShardsOfGenesisWallet.sol\":3933:3966  isConfirmed[_txIndex][msg.sender] */\n      0xff\n      and\n        /* \"src/smartcontracts/CryptoQuestTheShardsOfGenesisWallet.sol\":3932:3966  !isConfirmed[_txIndex][msg.sender] */\n      iszero\n        /* \"src/smartcontracts/CryptoQuestTheShardsOfGenesisWallet.sol\":3924:4000  require(!isConfirmed[_txIndex][msg.sender], \"Transaction already confirmed\") */\n      tag_401\n      jumpi\n      mload(0x40)\n      shl(0xe5, 0x461bcd)\n      dup2\n      mstore\n        /* \"#utility.yul\":10905:10907   */\n      0x20\n        /* \"src/smartcontracts/CryptoQuestTheShardsOfGenesisWallet.sol\":3924:4000  require(!isConfirmed[_txIndex][msg.sender], \"Transaction already confirmed\") */\n      0x04\n      dup3\n      add\n        /* \"#utility.yul\":10887:10908   */\n      mstore\n        /* \"#utility.yul\":10944:10946   */\n      0x1d\n        /* \"#utility.yul\":10924:10942   */\n      0x24\n      dup3\n      add\n        /* \"#utility.yul\":10917:10947   */\n      mstore\n        /* \"#utility.yul\":10983:11014   */\n      0x5472616e73616374696f6e20616c726561647920636f6e6669726d6564000000\n        /* \"#utility.yul\":10963:10981   */\n      0x44\n      dup3\n      add\n        /* \"#utility.yul\":10956:11015   */\n      mstore\n        /* \"#utility.yul\":11032:11050   */\n      0x64\n      add\n        /* \"src/smartcontracts/CryptoQuestTheShardsOfGenesisWallet.sol\":3924:4000  require(!isConfirmed[_txIndex][msg.sender], \"Transaction already confirmed\") */\n      tag_237\n        /* \"#utility.yul\":10703:11056   */\n      jump\n        /* \"src/smartcontracts/CryptoQuestTheShardsOfGenesisWallet.sol\":3924:4000  require(!isConfirmed[_txIndex][msg.sender], \"Transaction already confirmed\") */\n    tag_401:\n        /* \"src/smartcontracts/CryptoQuestTheShardsOfGenesisWallet.sol\":5319:5350  Transaction storage transaction */\n      0x00\n        /* \"src/smartcontracts/CryptoQuestTheShardsOfGenesisWallet.sol\":5353:5365  transactions */\n      0x39\n        /* \"src/smartcontracts/CryptoQuestTheShardsOfGenesisWallet.sol\":5366:5374  _txIndex */\n      dup6\n        /* \"src/smartcontracts/CryptoQuestTheShardsOfGenesisWallet.sol\":5353:5375  transactions[_txIndex] */\n      dup2\n      sload\n      dup2\n      lt\n      tag_406\n      jumpi\n      tag_406\n      tag_246\n      jump\t// in\n    tag_406:\n      swap1\n      0x00\n      mstore\n      keccak256(0x00, 0x20)\n      swap1\n      0x05\n      mul\n      add\n        /* \"src/smartcontracts/CryptoQuestTheShardsOfGenesisWallet.sol\":5319:5375  Transaction storage transaction = transactions[_txIndex] */\n      swap1\n      pop\n        /* \"src/smartcontracts/CryptoQuestTheShardsOfGenesisWallet.sol\":5417:5418  1 */\n      0x01\n        /* \"src/smartcontracts/CryptoQuestTheShardsOfGenesisWallet.sol\":5385:5396  transaction */\n      dup2\n        /* \"src/smartcontracts/CryptoQuestTheShardsOfGenesisWallet.sol\":5385:5413  transaction.numConfirmations */\n      0x04\n      add\n      0x00\n        /* \"src/smartcontracts/CryptoQuestTheShardsOfGenesisWallet.sol\":5385:5418  transaction.numConfirmations += 1 */\n      dup3\n      dup3\n      sload\n      tag_408\n      swap2\n      swap1\n      tag_373\n      jump\t// in\n    tag_408:\n      swap1\n      swap2\n      sstore\n      pop\n      pop\n        /* \"src/smartcontracts/CryptoQuestTheShardsOfGenesisWallet.sol\":5428:5449  isConfirmed[_txIndex] */\n      0x00\n      dup6\n      dup2\n      mstore\n        /* \"src/smartcontracts/CryptoQuestTheShardsOfGenesisWallet.sol\":5428:5439  isConfirmed */\n      0x38\n        /* \"src/smartcontracts/CryptoQuestTheShardsOfGenesisWallet.sol\":5428:5449  isConfirmed[_txIndex] */\n      0x20\n      swap1\n      dup2\n      mstore\n      0x40\n      dup1\n      dup4\n      keccak256\n        /* \"src/smartcontracts/CryptoQuestTheShardsOfGenesisWallet.sol\":5450:5460  msg.sender */\n      caller\n        /* \"src/smartcontracts/CryptoQuestTheShardsOfGenesisWallet.sol\":5428:5461  isConfirmed[_txIndex][msg.sender] */\n      dup1\n      dup6\n      mstore\n      swap3\n      mstore\n      dup1\n      dup4\n      keccak256\n        /* \"src/smartcontracts/CryptoQuestTheShardsOfGenesisWallet.sol\":5428:5468  isConfirmed[_txIndex][msg.sender] = true */\n      dup1\n      sload\n      not(0xff)\n      and\n        /* \"src/smartcontracts/CryptoQuestTheShardsOfGenesisWallet.sol\":5464:5468  true */\n      0x01\n        /* \"src/smartcontracts/CryptoQuestTheShardsOfGenesisWallet.sol\":5428:5468  isConfirmed[_txIndex][msg.sender] = true */\n      or\n      swap1\n      sstore\n        /* \"src/smartcontracts/CryptoQuestTheShardsOfGenesisWallet.sol\":5484:5526  TransactionConfirmed(msg.sender, _txIndex) */\n      mload\n        /* \"src/smartcontracts/CryptoQuestTheShardsOfGenesisWallet.sol\":5440:5448  _txIndex */\n      dup8\n      swap3\n        /* \"src/smartcontracts/CryptoQuestTheShardsOfGenesisWallet.sol\":5484:5526  TransactionConfirmed(msg.sender, _txIndex) */\n      0xf8a17c9136a3ae33364fac05eb088a3cbafee10c1889c88593e20ee2d8e4eb88\n      swap2\n      log3\n        /* \"src/smartcontracts/CryptoQuestTheShardsOfGenesisWallet.sol\":5309:5533  {... */\n      pop\n        /* \"src/smartcontracts/CryptoQuestTheShardsOfGenesisWallet.sol\":3860:3861  _ */\n      pop\n        /* \"src/smartcontracts/CryptoQuestTheShardsOfGenesisWallet.sol\":3714:3715  _ */\n      pop\n        /* \"src/smartcontracts/CryptoQuestTheShardsOfGenesisWallet.sol\":3575:3576  _ */\n      pop\n        /* \"src/smartcontracts/CryptoQuestTheShardsOfGenesisWallet.sol\":5138:5533  function confirmTransaction(uint256 _txIndex)... */\n      pop\n      jump\t// out\n        /* \"src/smartcontracts/CryptoQuestTheShardsOfGenesisWallet.sol\":4752:5132  function submitTransaction(address _to, uint256 _value, bytes memory _data) public onlyAdmin {... */\n    tag_201:\n        /* \"src/smartcontracts/CryptoQuestTheShardsOfGenesisWallet.sol\":3517:3548  hasRole(ADMIN_ROLE, msg.sender) */\n      tag_410\n      0x00\n      dup1\n      mload\n      0x20\n      data_cb864c43dd5d441bb6271f424f11befa622c032dfd374d226e26fbbdb782b8f8\n      dup4\n      codecopy\n      dup2\n      mload\n      swap2\n      mstore\n        /* \"src/smartcontracts/CryptoQuestTheShardsOfGenesisWallet.sol\":3537:3547  msg.sender */\n      caller\n        /* \"src/smartcontracts/CryptoQuestTheShardsOfGenesisWallet.sol\":3517:3524  hasRole */\n      tag_157\n        /* \"src/smartcontracts/CryptoQuestTheShardsOfGenesisWallet.sol\":3517:3548  hasRole(ADMIN_ROLE, msg.sender) */\n      jump\t// in\n    tag_410:\n        /* \"src/smartcontracts/CryptoQuestTheShardsOfGenesisWallet.sol\":3509:3565  require(hasRole(ADMIN_ROLE, msg.sender), \"Not an admin\") */\n      tag_411\n      jumpi\n      mload(0x40)\n      shl(0xe5, 0x461bcd)\n      dup2\n      mstore\n      0x04\n      add\n      tag_237\n      swap1\n      tag_238\n      jump\t// in\n    tag_411:\n        /* \"src/smartcontracts/CryptoQuestTheShardsOfGenesisWallet.sol\":4873:4885  transactions */\n      0x39\n        /* \"src/smartcontracts/CryptoQuestTheShardsOfGenesisWallet.sol\":4873:4892  transactions.length */\n      dup1\n      sload\n        /* \"src/smartcontracts/CryptoQuestTheShardsOfGenesisWallet.sol\":4921:5079  Transaction({... */\n      0x40\n      dup1\n      mload\n      0xa0\n      dup2\n      add\n      dup3\n      mstore\n      sub(shl(0xa0, 0x01), 0x01)\n      dup8\n      dup2\n      and\n      dup3\n      mstore\n      0x20\n      dup3\n      add\n      dup8\n      dup2\n      mstore\n      swap3\n      dup3\n      add\n      dup7\n      dup2\n      mstore\n      0x00\n      0x60\n      dup5\n      add\n      dup2\n      swap1\n      mstore\n      0x80\n      dup5\n      add\n      dup2\n      swap1\n      mstore\n      0x01\n        /* \"src/smartcontracts/CryptoQuestTheShardsOfGenesisWallet.sol\":4903:5080  transactions.push(Transaction({... */\n      dup7\n      add\n      dup8\n      sstore\n      swap6\n      swap1\n      swap6\n      mstore\n      dup2\n      mload\n      0xdc16fef70f8d5ddbc01ee3d903d1e69c18a3c7be080eb86a81e0578814ee58d3\n      0x05\n      dup7\n      mul\n      swap1\n      dup2\n      add\n      dup1\n      sload\n      not(sub(shl(0xa0, 0x01), 0x01))\n      and\n      swap3\n      swap1\n      swap4\n      and\n      swap2\n      swap1\n      swap2\n      or\n      dup3\n      sstore\n      swap3\n      mload\n      0xdc16fef70f8d5ddbc01ee3d903d1e69c18a3c7be080eb86a81e0578814ee58d4\n      dup5\n      add\n      sstore\n      swap4\n      mload\n        /* \"src/smartcontracts/CryptoQuestTheShardsOfGenesisWallet.sol\":4873:4892  transactions.length */\n      swap3\n      swap4\n        /* \"src/smartcontracts/CryptoQuestTheShardsOfGenesisWallet.sol\":4921:5079  Transaction({... */\n      swap1\n      swap3\n        /* \"src/smartcontracts/CryptoQuestTheShardsOfGenesisWallet.sol\":4903:5080  transactions.push(Transaction({... */\n      swap1\n      swap2\n      0xdc16fef70f8d5ddbc01ee3d903d1e69c18a3c7be080eb86a81e0578814ee58d5\n      add\n      swap1\n      tag_415\n      swap1\n      dup3\n      tag_416\n      jump\t// in\n    tag_415:\n      pop\n      0x60\n      dup3\n      add\n      mload\n      0x03\n      dup3\n      add\n      dup1\n      sload\n      not(0xff)\n      and\n      swap2\n      iszero\n      iszero\n      swap2\n      swap1\n      swap2\n      or\n      swap1\n      sstore\n      0x80\n      swap1\n      swap2\n      add\n      mload\n      0x04\n      swap1\n      swap2\n      add\n      sstore\n        /* \"src/smartcontracts/CryptoQuestTheShardsOfGenesisWallet.sol\":5096:5125  TransactionSubmitted(txIndex) */\n      mload(0x40)\n        /* \"src/smartcontracts/CryptoQuestTheShardsOfGenesisWallet.sol\":5117:5124  txIndex */\n      dup2\n      swap1\n        /* \"src/smartcontracts/CryptoQuestTheShardsOfGenesisWallet.sol\":5096:5125  TransactionSubmitted(txIndex) */\n      0xd0b5d9eac097410294ec9f2cee7cd185cf31ab46babf3dfdbeac8b222b03f2d1\n      swap1\n      0x00\n      swap1\n      log2\n        /* \"src/smartcontracts/CryptoQuestTheShardsOfGenesisWallet.sol\":4845:5132  {... */\n      pop\n        /* \"src/smartcontracts/CryptoQuestTheShardsOfGenesisWallet.sol\":4752:5132  function submitTransaction(address _to, uint256 _value, bytes memory _data) public onlyAdmin {... */\n      pop\n      pop\n      pop\n      jump\t// out\n        /* \"@openzeppelin/contracts-upgradeable/access/AccessControlUpgradeable.sol\":5662:5800  function revokeRole(bytes32 role, address account) public virtual onlyRole(getRoleAdmin(role)) {... */\n    tag_205:\n        /* \"@openzeppelin/contracts-upgradeable/access/AccessControlUpgradeable.sol\":5737:5755  getRoleAdmin(role) */\n      tag_417\n        /* \"@openzeppelin/contracts-upgradeable/access/AccessControlUpgradeable.sol\":5750:5754  role */\n      dup3\n        /* \"@openzeppelin/contracts-upgradeable/access/AccessControlUpgradeable.sol\":5737:5749  getRoleAdmin */\n      tag_88\n        /* \"@openzeppelin/contracts-upgradeable/access/AccessControlUpgradeable.sol\":5737:5755  getRoleAdmin(role) */\n      jump\t// in\n    tag_417:\n        /* \"@openzeppelin/contracts-upgradeable/access/AccessControlUpgradeable.sol\":3191:3207  _checkRole(role) */\n      tag_419\n        /* \"@openzeppelin/contracts-upgradeable/access/AccessControlUpgradeable.sol\":3202:3206  role */\n      dup2\n        /* \"@openzeppelin/contracts-upgradeable/access/AccessControlUpgradeable.sol\":3191:3201  _checkRole */\n      tag_266\n        /* \"@openzeppelin/contracts-upgradeable/access/AccessControlUpgradeable.sol\":3191:3207  _checkRole(role) */\n      jump\t// in\n    tag_419:\n        /* \"@openzeppelin/contracts-upgradeable/access/AccessControlUpgradeable.sol\":5767:5793  _revokeRole(role, account) */\n      tag_268\n        /* \"@openzeppelin/contracts-upgradeable/access/AccessControlUpgradeable.sol\":5779:5783  role */\n      dup4\n        /* \"@openzeppelin/contracts-upgradeable/access/AccessControlUpgradeable.sol\":5785:5792  account */\n      dup4\n        /* \"@openzeppelin/contracts-upgradeable/access/AccessControlUpgradeable.sol\":5767:5778  _revokeRole */\n      tag_275\n        /* \"@openzeppelin/contracts-upgradeable/access/AccessControlUpgradeable.sol\":5767:5793  _revokeRole(role, account) */\n      jump\t// in\n        /* \"src/smartcontracts/CryptoQuestTheShardsOfGenesisWallet.sol\":4264:4384  function setERC1155Address(address _erc1155Address) external onlyAdmin {... */\n    tag_213:\n        /* \"src/smartcontracts/CryptoQuestTheShardsOfGenesisWallet.sol\":3517:3548  hasRole(ADMIN_ROLE, msg.sender) */\n      tag_423\n      0x00\n      dup1\n      mload\n      0x20\n      data_cb864c43dd5d441bb6271f424f11befa622c032dfd374d226e26fbbdb782b8f8\n      dup4\n      codecopy\n      dup2\n      mload\n      swap2\n      mstore\n        /* \"src/smartcontracts/CryptoQuestTheShardsOfGenesisWallet.sol\":3537:3547  msg.sender */\n      caller\n        /* \"src/smartcontracts/CryptoQuestTheShardsOfGenesisWallet.sol\":3517:3524  hasRole */\n      tag_157\n        /* \"src/smartcontracts/CryptoQuestTheShardsOfGenesisWallet.sol\":3517:3548  hasRole(ADMIN_ROLE, msg.sender) */\n      jump\t// in\n    tag_423:\n        /* \"src/smartcontracts/CryptoQuestTheShardsOfGenesisWallet.sol\":3509:3565  require(hasRole(ADMIN_ROLE, msg.sender), \"Not an admin\") */\n      tag_424\n      jumpi\n      mload(0x40)\n      shl(0xe5, 0x461bcd)\n      dup2\n      mstore\n      0x04\n      add\n      tag_237\n      swap1\n      tag_238\n      jump\t// in\n    tag_424:\n        /* \"src/smartcontracts/CryptoQuestTheShardsOfGenesisWallet.sol\":4345:4359  erc1155Address */\n      0x34\n        /* \"src/smartcontracts/CryptoQuestTheShardsOfGenesisWallet.sol\":4345:4377  erc1155Address = _erc1155Address */\n      dup1\n      sload\n      not(sub(shl(0xa0, 0x01), 0x01))\n      and\n      sub(shl(0xa0, 0x01), 0x01)\n      swap3\n      swap1\n      swap3\n      and\n      swap2\n      swap1\n      swap2\n      or\n      swap1\n      sstore\n        /* \"src/smartcontracts/CryptoQuestTheShardsOfGenesisWallet.sol\":4264:4384  function setERC1155Address(address _erc1155Address) external onlyAdmin {... */\n      jump\t// out\n        /* \"src/smartcontracts/CryptoQuestTheShardsOfGenesisWallet.sol\":5539:6034  function executeTransaction(uint256 _txIndex) public onlyAdmin txExists(_txIndex) notExecuted(_txIndex) {... */\n    tag_221:\n        /* \"src/smartcontracts/CryptoQuestTheShardsOfGenesisWallet.sol\":3517:3548  hasRole(ADMIN_ROLE, msg.sender) */\n      tag_428\n      0x00\n      dup1\n      mload\n      0x20\n      data_cb864c43dd5d441bb6271f424f11befa622c032dfd374d226e26fbbdb782b8f8\n      dup4\n      codecopy\n      dup2\n      mload\n      swap2\n      mstore\n        /* \"src/smartcontracts/CryptoQuestTheShardsOfGenesisWallet.sol\":3537:3547  msg.sender */\n      caller\n        /* \"src/smartcontracts/CryptoQuestTheShardsOfGenesisWallet.sol\":3517:3524  hasRole */\n      tag_157\n        /* \"src/smartcontracts/CryptoQuestTheShardsOfGenesisWallet.sol\":3517:3548  hasRole(ADMIN_ROLE, msg.sender) */\n      jump\t// in\n    tag_428:\n        /* \"src/smartcontracts/CryptoQuestTheShardsOfGenesisWallet.sol\":3509:3565  require(hasRole(ADMIN_ROLE, msg.sender), \"Not an admin\") */\n      tag_429\n      jumpi\n      mload(0x40)\n      shl(0xe5, 0x461bcd)\n      dup2\n      mstore\n      0x04\n      add\n      tag_237\n      swap1\n      tag_238\n      jump\t// in\n    tag_429:\n        /* \"src/smartcontracts/CryptoQuestTheShardsOfGenesisWallet.sol\":3654:3666  transactions */\n      0x39\n        /* \"src/smartcontracts/CryptoQuestTheShardsOfGenesisWallet.sol\":3654:3673  transactions.length */\n      sload\n        /* \"src/smartcontracts/CryptoQuestTheShardsOfGenesisWallet.sol\":5611:5619  _txIndex */\n      dup2\n      swap1\n        /* \"src/smartcontracts/CryptoQuestTheShardsOfGenesisWallet.sol\":3643:3673  _txIndex < transactions.length */\n      dup2\n      lt\n        /* \"src/smartcontracts/CryptoQuestTheShardsOfGenesisWallet.sol\":3635:3704  require(_txIndex < transactions.length, \"Transaction does not exist\") */\n      tag_432\n      jumpi\n      mload(0x40)\n      shl(0xe5, 0x461bcd)\n      dup2\n      mstore\n      0x04\n      add\n      tag_237\n      swap1\n      tag_242\n      jump\t// in\n    tag_432:\n        /* \"src/smartcontracts/CryptoQuestTheShardsOfGenesisWallet.sol\":5633:5641  _txIndex */\n      dup2\n        /* \"src/smartcontracts/CryptoQuestTheShardsOfGenesisWallet.sol\":3786:3798  transactions */\n      0x39\n        /* \"src/smartcontracts/CryptoQuestTheShardsOfGenesisWallet.sol\":3799:3807  _txIndex */\n      dup2\n        /* \"src/smartcontracts/CryptoQuestTheShardsOfGenesisWallet.sol\":3786:3808  transactions[_txIndex] */\n      dup2\n      sload\n      dup2\n      lt\n      tag_436\n      jumpi\n      tag_436\n      tag_246\n      jump\t// in\n    tag_436:\n      0x00\n      swap2\n      dup3\n      mstore\n      0x20\n      swap1\n      swap2\n      keccak256\n        /* \"src/smartcontracts/CryptoQuestTheShardsOfGenesisWallet.sol\":3786:3817  transactions[_txIndex].executed */\n      0x03\n        /* \"src/smartcontracts/CryptoQuestTheShardsOfGenesisWallet.sol\":3786:3808  transactions[_txIndex] */\n      0x05\n      swap1\n      swap3\n      mul\n      add\n        /* \"src/smartcontracts/CryptoQuestTheShardsOfGenesisWallet.sol\":3786:3817  transactions[_txIndex].executed */\n      add\n      sload\n      0xff\n      and\n        /* \"src/smartcontracts/CryptoQuestTheShardsOfGenesisWallet.sol\":3785:3817  !transactions[_txIndex].executed */\n      iszero\n        /* \"src/smartcontracts/CryptoQuestTheShardsOfGenesisWallet.sol\":3777:3850  require(!transactions[_txIndex].executed, \"Transaction already executed\") */\n      tag_438\n      jumpi\n      mload(0x40)\n      shl(0xe5, 0x461bcd)\n      dup2\n      mstore\n      0x04\n      add\n      tag_237\n      swap1\n      tag_250\n      jump\t// in\n    tag_438:\n        /* \"src/smartcontracts/CryptoQuestTheShardsOfGenesisWallet.sol\":5653:5684  Transaction storage transaction */\n      0x00\n        /* \"src/smartcontracts/CryptoQuestTheShardsOfGenesisWallet.sol\":5687:5699  transactions */\n      0x39\n        /* \"src/smartcontracts/CryptoQuestTheShardsOfGenesisWallet.sol\":5700:5708  _txIndex */\n      dup5\n        /* \"src/smartcontracts/CryptoQuestTheShardsOfGenesisWallet.sol\":5687:5709  transactions[_txIndex] */\n      dup2\n      sload\n      dup2\n      lt\n      tag_442\n      jumpi\n      tag_442\n      tag_246\n      jump\t// in\n    tag_442:\n      swap1\n      0x00\n      mstore\n      keccak256(0x00, 0x20)\n      swap1\n      0x05\n      mul\n      add\n        /* \"src/smartcontracts/CryptoQuestTheShardsOfGenesisWallet.sol\":5653:5709  Transaction storage transaction = transactions[_txIndex] */\n      swap1\n      pop\n        /* \"src/smartcontracts/CryptoQuestTheShardsOfGenesisWallet.sol\":5760:5781  requiredConfirmations */\n      sload(0x3a)\n        /* \"src/smartcontracts/CryptoQuestTheShardsOfGenesisWallet.sol\":5728:5739  transaction */\n      dup2\n        /* \"src/smartcontracts/CryptoQuestTheShardsOfGenesisWallet.sol\":5728:5756  transaction.numConfirmations */\n      0x04\n      add\n      sload\n        /* \"src/smartcontracts/CryptoQuestTheShardsOfGenesisWallet.sol\":5728:5781  transaction.numConfirmations >= requiredConfirmations */\n      lt\n      iszero\n        /* \"src/smartcontracts/CryptoQuestTheShardsOfGenesisWallet.sol\":5720:5803  require(transaction.numConfirmations >= requiredConfirmations, \"Cannot execute tx\") */\n      tag_444\n      jumpi\n      mload(0x40)\n      shl(0xe5, 0x461bcd)\n      dup2\n      mstore\n        /* \"#utility.yul\":13427:13429   */\n      0x20\n        /* \"src/smartcontracts/CryptoQuestTheShardsOfGenesisWallet.sol\":5720:5803  require(transaction.numConfirmations >= requiredConfirmations, \"Cannot execute tx\") */\n      0x04\n      dup3\n      add\n        /* \"#utility.yul\":13409:13430   */\n      mstore\n        /* \"#utility.yul\":13466:13468   */\n      0x11\n        /* \"#utility.yul\":13446:13464   */\n      0x24\n      dup3\n      add\n        /* \"#utility.yul\":13439:13469   */\n      mstore\n      shl(0x7b, 0x086c2dcdcdee840caf0cac6eae8ca40e8f)\n        /* \"#utility.yul\":13485:13503   */\n      0x44\n      dup3\n      add\n        /* \"#utility.yul\":13478:13525   */\n      mstore\n        /* \"#utility.yul\":13542:13560   */\n      0x64\n      add\n        /* \"src/smartcontracts/CryptoQuestTheShardsOfGenesisWallet.sol\":5720:5803  require(transaction.numConfirmations >= requiredConfirmations, \"Cannot execute tx\") */\n      tag_237\n        /* \"#utility.yul\":13225:13566   */\n      jump\n        /* \"src/smartcontracts/CryptoQuestTheShardsOfGenesisWallet.sol\":5720:5803  require(transaction.numConfirmations >= requiredConfirmations, \"Cannot execute tx\") */\n    tag_444:\n        /* \"src/smartcontracts/CryptoQuestTheShardsOfGenesisWallet.sol\":5814:5834  transaction.executed */\n      0x03\n      dup2\n      add\n        /* \"src/smartcontracts/CryptoQuestTheShardsOfGenesisWallet.sol\":5814:5841  transaction.executed = true */\n      dup1\n      sload\n      not(0xff)\n      and\n        /* \"src/smartcontracts/CryptoQuestTheShardsOfGenesisWallet.sol\":5837:5841  true */\n      0x01\n        /* \"src/smartcontracts/CryptoQuestTheShardsOfGenesisWallet.sol\":5814:5841  transaction.executed = true */\n      swap1\n      dup2\n      or\n      swap1\n      swap2\n      sstore\n        /* \"src/smartcontracts/CryptoQuestTheShardsOfGenesisWallet.sol\":5871:5885  transaction.to */\n      dup2\n      sload\n        /* \"src/smartcontracts/CryptoQuestTheShardsOfGenesisWallet.sol\":5898:5915  transaction.value */\n      swap1\n      dup3\n      add\n      sload\n        /* \"src/smartcontracts/CryptoQuestTheShardsOfGenesisWallet.sol\":5871:5934  transaction.to.call{value: transaction.value}(transaction.data) */\n      mload(0x40)\n        /* \"src/smartcontracts/CryptoQuestTheShardsOfGenesisWallet.sol\":5814:5834  transaction.executed */\n      0x00\n      swap3\n      sub(shl(0xa0, 0x01), 0x01)\n        /* \"src/smartcontracts/CryptoQuestTheShardsOfGenesisWallet.sol\":5871:5885  transaction.to */\n      and\n      swap2\n        /* \"src/smartcontracts/CryptoQuestTheShardsOfGenesisWallet.sol\":5898:5915  transaction.value */\n      swap1\n        /* \"src/smartcontracts/CryptoQuestTheShardsOfGenesisWallet.sol\":5871:5934  transaction.to.call{value: transaction.value}(transaction.data) */\n      tag_447\n      swap1\n        /* \"src/smartcontracts/CryptoQuestTheShardsOfGenesisWallet.sol\":5917:5933  transaction.data */\n      0x02\n      dup7\n      add\n      swap1\n        /* \"src/smartcontracts/CryptoQuestTheShardsOfGenesisWallet.sol\":5871:5934  transaction.to.call{value: transaction.value}(transaction.data) */\n      tag_448\n      jump\t// in\n    tag_447:\n      0x00\n      mload(0x40)\n      dup1\n      dup4\n      sub\n      dup2\n      dup6\n      dup8\n      gas\n      call\n      swap3\n      pop\n      pop\n      pop\n      returndatasize\n      dup1\n      0x00\n      dup2\n      eq\n      tag_451\n      jumpi\n      mload(0x40)\n      swap2\n      pop\n      and(add(returndatasize, 0x3f), not(0x1f))\n      dup3\n      add\n      0x40\n      mstore\n      returndatasize\n      dup3\n      mstore\n      returndatasize\n      0x00\n      0x20\n      dup5\n      add\n      returndatacopy\n      jump(tag_450)\n    tag_451:\n      0x60\n      swap2\n      pop\n    tag_450:\n      pop\n        /* \"src/smartcontracts/CryptoQuestTheShardsOfGenesisWallet.sol\":5852:5934  (bool success, ) = transaction.to.call{value: transaction.value}(transaction.data) */\n      pop\n      swap1\n      pop\n        /* \"src/smartcontracts/CryptoQuestTheShardsOfGenesisWallet.sol\":5952:5959  success */\n      dup1\n        /* \"src/smartcontracts/CryptoQuestTheShardsOfGenesisWallet.sol\":5944:5982  require(success, \"Transaction failed\") */\n      tag_452\n      jumpi\n      mload(0x40)\n      shl(0xe5, 0x461bcd)\n      dup2\n      mstore\n        /* \"#utility.yul\":14619:14621   */\n      0x20\n        /* \"src/smartcontracts/CryptoQuestTheShardsOfGenesisWallet.sol\":5944:5982  require(success, \"Transaction failed\") */\n      0x04\n      dup3\n      add\n        /* \"#utility.yul\":14601:14622   */\n      mstore\n        /* \"#utility.yul\":14658:14660   */\n      0x12\n        /* \"#utility.yul\":14638:14656   */\n      0x24\n      dup3\n      add\n        /* \"#utility.yul\":14631:14661   */\n      mstore\n      shl(0x72, 0x151c985b9cd858dd1a5bdb8819985a5b1959)\n        /* \"#utility.yul\":14677:14695   */\n      0x44\n      dup3\n      add\n        /* \"#utility.yul\":14670:14718   */\n      mstore\n        /* \"#utility.yul\":14735:14753   */\n      0x64\n      add\n        /* \"src/smartcontracts/CryptoQuestTheShardsOfGenesisWallet.sol\":5944:5982  require(success, \"Transaction failed\") */\n      tag_237\n        /* \"#utility.yul\":14417:14759   */\n      jump\n        /* \"src/smartcontracts/CryptoQuestTheShardsOfGenesisWallet.sol\":5944:5982  require(success, \"Transaction failed\") */\n    tag_452:\n        /* \"src/smartcontracts/CryptoQuestTheShardsOfGenesisWallet.sol\":5998:6027  TransactionExecuted(_txIndex) */\n      mload(0x40)\n        /* \"src/smartcontracts/CryptoQuestTheShardsOfGenesisWallet.sol\":6018:6026  _txIndex */\n      dup6\n      swap1\n        /* \"src/smartcontracts/CryptoQuestTheShardsOfGenesisWallet.sol\":5998:6027  TransactionExecuted(_txIndex) */\n      0x15ed165a284872ea7017f03df402a0cadfbfab588320ffaf83f160c2f82781c7\n      swap1\n      0x00\n      swap1\n      log2\n        /* \"src/smartcontracts/CryptoQuestTheShardsOfGenesisWallet.sol\":5643:6034  {... */\n      pop\n      pop\n        /* \"src/smartcontracts/CryptoQuestTheShardsOfGenesisWallet.sol\":3714:3715  _ */\n      pop\n        /* \"src/smartcontracts/CryptoQuestTheShardsOfGenesisWallet.sol\":3575:3576  _ */\n      pop\n        /* \"src/smartcontracts/CryptoQuestTheShardsOfGenesisWallet.sol\":5539:6034  function executeTransaction(uint256 _txIndex) public onlyAdmin txExists(_txIndex) notExecuted(_txIndex) {... */\n      pop\n      jump\t// out\n        /* \"src/smartcontracts/CryptoQuestTheShardsOfGenesisWallet.sol\":4500:4620  function setStakingAddress(address _stakingAddress) external onlyAdmin {... */\n    tag_225:\n        /* \"src/smartcontracts/CryptoQuestTheShardsOfGenesisWallet.sol\":3517:3548  hasRole(ADMIN_ROLE, msg.sender) */\n      tag_456\n      0x00\n      dup1\n      mload\n      0x20\n      data_cb864c43dd5d441bb6271f424f11befa622c032dfd374d226e26fbbdb782b8f8\n      dup4\n      codecopy\n      dup2\n      mload\n      swap2\n      mstore\n        /* \"src/smartcontracts/CryptoQuestTheShardsOfGenesisWallet.sol\":3537:3547  msg.sender */\n      caller\n        /* \"src/smartcontracts/CryptoQuestTheShardsOfGenesisWallet.sol\":3517:3524  hasRole */\n      tag_157\n        /* \"src/smartcontracts/CryptoQuestTheShardsOfGenesisWallet.sol\":3517:3548  hasRole(ADMIN_ROLE, msg.sender) */\n      jump\t// in\n    tag_456:\n        /* \"src/smartcontracts/CryptoQuestTheShardsOfGenesisWallet.sol\":3509:3565  require(hasRole(ADMIN_ROLE, msg.sender), \"Not an admin\") */\n      tag_457\n      jumpi\n      mload(0x40)\n      shl(0xe5, 0x461bcd)\n      dup2\n      mstore\n      0x04\n      add\n      tag_237\n      swap1\n      tag_238\n      jump\t// in\n    tag_457:\n        /* \"src/smartcontracts/CryptoQuestTheShardsOfGenesisWallet.sol\":4581:4595  stakingAddress */\n      0x36\n        /* \"src/smartcontracts/CryptoQuestTheShardsOfGenesisWallet.sol\":4581:4613  stakingAddress = _stakingAddress */\n      dup1\n      sload\n      not(sub(shl(0xa0, 0x01), 0x01))\n      and\n      sub(shl(0xa0, 0x01), 0x01)\n      swap3\n      swap1\n      swap3\n      and\n      swap2\n      swap1\n      swap2\n      or\n      swap1\n      sstore\n        /* \"src/smartcontracts/CryptoQuestTheShardsOfGenesisWallet.sol\":4500:4620  function setStakingAddress(address _stakingAddress) external onlyAdmin {... */\n      jump\t// out\n        /* \"@openzeppelin/contracts-upgradeable/access/AccessControlUpgradeable.sol\":4148:4251  function _checkRole(bytes32 role) internal view virtual {... */\n    tag_266:\n        /* \"@openzeppelin/contracts-upgradeable/access/AccessControlUpgradeable.sol\":4214:4244  _checkRole(role, _msgSender()) */\n      tag_279\n        /* \"@openzeppelin/contracts-upgradeable/access/AccessControlUpgradeable.sol\":4225:4229  role */\n      dup2\n        /* \"@openzeppelin/contracts-upgradeable/utils/ContextUpgradeable.sol\":966:976  msg.sender */\n      caller\n        /* \"@openzeppelin/contracts-upgradeable/access/AccessControlUpgradeable.sol\":4214:4224  _checkRole */\n      tag_465\n        /* \"@openzeppelin/contracts-upgradeable/access/AccessControlUpgradeable.sol\":4214:4244  _checkRole(role, _msgSender()) */\n      jump\t// in\n        /* \"@openzeppelin/contracts-upgradeable/access/AccessControlUpgradeable.sol\":7270:7657  function _grantRole(bytes32 role, address account) internal virtual returns (bool) {... */\n    tag_269:\n        /* \"@openzeppelin/contracts-upgradeable/access/AccessControlUpgradeable.sol\":7347:7351  bool */\n      0x00\n      0x00\n      dup1\n      mload\n      0x20\n      data_b3da67d1b252aeab7c8063542d95e75f82a5307a82535949bc38f7cf7ba8897f\n      dup4\n      codecopy\n      dup2\n      mload\n      swap2\n      mstore\n        /* \"@openzeppelin/contracts-upgradeable/access/AccessControlUpgradeable.sol\":7437:7459  hasRole(role, account) */\n      tag_468\n        /* \"@openzeppelin/contracts-upgradeable/access/AccessControlUpgradeable.sol\":7445:7449  role */\n      dup5\n        /* \"@openzeppelin/contracts-upgradeable/access/AccessControlUpgradeable.sol\":7451:7458  account */\n      dup5\n        /* \"@openzeppelin/contracts-upgradeable/access/AccessControlUpgradeable.sol\":7437:7444  hasRole */\n      tag_157\n        /* \"@openzeppelin/contracts-upgradeable/access/AccessControlUpgradeable.sol\":7437:7459  hasRole(role, account) */\n      jump\t// in\n    tag_468:\n        /* \"@openzeppelin/contracts-upgradeable/access/AccessControlUpgradeable.sol\":7432:7651  if (!hasRole(role, account)) {... */\n      tag_469\n      jumpi\n        /* \"@openzeppelin/contracts-upgradeable/access/AccessControlUpgradeable.sol\":7475:7483  $._roles */\n      0x00\n        /* \"@openzeppelin/contracts-upgradeable/access/AccessControlUpgradeable.sol\":7475:7489  $._roles[role] */\n      dup5\n      dup2\n      mstore\n      0x20\n      dup3\n      dup2\n      mstore\n      0x40\n      dup1\n      dup4\n      keccak256\n      sub(shl(0xa0, 0x01), 0x01)\n        /* \"@openzeppelin/contracts-upgradeable/access/AccessControlUpgradeable.sol\":7475:7506  $._roles[role].hasRole[account] */\n      dup8\n      and\n      dup5\n      mstore\n      swap1\n      swap2\n      mstore\n      swap1\n      keccak256\n        /* \"@openzeppelin/contracts-upgradeable/access/AccessControlUpgradeable.sol\":7475:7513  $._roles[role].hasRole[account] = true */\n      dup1\n      sload\n      not(0xff)\n      and\n        /* \"@openzeppelin/contracts-upgradeable/access/AccessControlUpgradeable.sol\":7509:7513  true */\n      0x01\n        /* \"@openzeppelin/contracts-upgradeable/access/AccessControlUpgradeable.sol\":7475:7513  $._roles[role].hasRole[account] = true */\n      or\n      swap1\n      sstore\n        /* \"@openzeppelin/contracts-upgradeable/access/AccessControlUpgradeable.sol\":7559:7571  _msgSender() */\n      tag_470\n        /* \"@openzeppelin/contracts-upgradeable/utils/ContextUpgradeable.sol\":966:976  msg.sender */\n      caller\n      swap1\n        /* \"@openzeppelin/contracts-upgradeable/utils/ContextUpgradeable.sol\":887:983  function _msgSender() internal view virtual returns (address) {... */\n      jump\n        /* \"@openzeppelin/contracts-upgradeable/access/AccessControlUpgradeable.sol\":7559:7571  _msgSender() */\n    tag_470:\n      sub(shl(0xa0, 0x01), 0x01)\n        /* \"@openzeppelin/contracts-upgradeable/access/AccessControlUpgradeable.sol\":7532:7572  RoleGranted(role, account, _msgSender()) */\n      and\n        /* \"@openzeppelin/contracts-upgradeable/access/AccessControlUpgradeable.sol\":7550:7557  account */\n      dup4\n      sub(shl(0xa0, 0x01), 0x01)\n        /* \"@openzeppelin/contracts-upgradeable/access/AccessControlUpgradeable.sol\":7532:7572  RoleGranted(role, account, _msgSender()) */\n      and\n        /* \"@openzeppelin/contracts-upgradeable/access/AccessControlUpgradeable.sol\":7544:7548  role */\n      dup6\n        /* \"@openzeppelin/contracts-upgradeable/access/AccessControlUpgradeable.sol\":7532:7572  RoleGranted(role, account, _msgSender()) */\n      0x2f8788117e7eff1d82e926ec794901d17c78024a50270940304540a733656f0d\n      mload(0x40)\n      mload(0x40)\n      dup1\n      swap2\n      sub\n      swap1\n      log4\n        /* \"@openzeppelin/contracts-upgradeable/access/AccessControlUpgradeable.sol\":7593:7597  true */\n      0x01\n        /* \"@openzeppelin/contracts-upgradeable/access/AccessControlUpgradeable.sol\":7586:7597  return true */\n      swap2\n      pop\n      pop\n      jump(tag_232)\n        /* \"@openzeppelin/contracts-upgradeable/access/AccessControlUpgradeable.sol\":7432:7651  if (!hasRole(role, account)) {... */\n    tag_469:\n        /* \"@openzeppelin/contracts-upgradeable/access/AccessControlUpgradeable.sol\":7635:7640  false */\n      0x00\n        /* \"@openzeppelin/contracts-upgradeable/access/AccessControlUpgradeable.sol\":7628:7640  return false */\n      swap2\n      pop\n      pop\n      jump(tag_232)\n        /* \"@openzeppelin/contracts-upgradeable/access/AccessControlUpgradeable.sol\":7892:8280  function _revokeRole(bytes32 role, address account) internal virtual returns (bool) {... */\n    tag_275:\n        /* \"@openzeppelin/contracts-upgradeable/access/AccessControlUpgradeable.sol\":7970:7974  bool */\n      0x00\n      0x00\n      dup1\n      mload\n      0x20\n      data_b3da67d1b252aeab7c8063542d95e75f82a5307a82535949bc38f7cf7ba8897f\n      dup4\n      codecopy\n      dup2\n      mload\n      swap2\n      mstore\n        /* \"@openzeppelin/contracts-upgradeable/access/AccessControlUpgradeable.sol\":8059:8081  hasRole(role, account) */\n      tag_475\n        /* \"@openzeppelin/contracts-upgradeable/access/AccessControlUpgradeable.sol\":8067:8071  role */\n      dup5\n        /* \"@openzeppelin/contracts-upgradeable/access/AccessControlUpgradeable.sol\":8073:8080  account */\n      dup5\n        /* \"@openzeppelin/contracts-upgradeable/access/AccessControlUpgradeable.sol\":8059:8066  hasRole */\n      tag_157\n        /* \"@openzeppelin/contracts-upgradeable/access/AccessControlUpgradeable.sol\":8059:8081  hasRole(role, account) */\n      jump\t// in\n    tag_475:\n        /* \"@openzeppelin/contracts-upgradeable/access/AccessControlUpgradeable.sol\":8055:8274  if (hasRole(role, account)) {... */\n      iszero\n      tag_469\n      jumpi\n        /* \"@openzeppelin/contracts-upgradeable/access/AccessControlUpgradeable.sol\":8131:8136  false */\n      0x00\n        /* \"@openzeppelin/contracts-upgradeable/access/AccessControlUpgradeable.sol\":8097:8111  $._roles[role] */\n      dup5\n      dup2\n      mstore\n      0x20\n      dup3\n      dup2\n      mstore\n      0x40\n      dup1\n      dup4\n      keccak256\n      sub(shl(0xa0, 0x01), 0x01)\n        /* \"@openzeppelin/contracts-upgradeable/access/AccessControlUpgradeable.sol\":8097:8128  $._roles[role].hasRole[account] */\n      dup8\n      and\n      dup1\n      dup6\n      mstore\n      swap3\n      mstore\n      dup1\n      dup4\n      keccak256\n        /* \"@openzeppelin/contracts-upgradeable/access/AccessControlUpgradeable.sol\":8097:8136  $._roles[role].hasRole[account] = false */\n      dup1\n      sload\n      not(0xff)\n      and\n      swap1\n      sstore\n        /* \"@openzeppelin/contracts-upgradeable/access/AccessControlUpgradeable.sol\":8155:8195  RoleRevoked(role, account, _msgSender()) */\n      mload\n        /* \"@openzeppelin/contracts-upgradeable/utils/ContextUpgradeable.sol\":966:976  msg.sender */\n      caller\n      swap3\n        /* \"@openzeppelin/contracts-upgradeable/access/AccessControlUpgradeable.sol\":8097:8111  $._roles[role] */\n      dup8\n      swap2\n        /* \"@openzeppelin/contracts-upgradeable/access/AccessControlUpgradeable.sol\":8155:8195  RoleRevoked(role, account, _msgSender()) */\n      0xf6391f5c32d9c69d2a47ea670b442974b53935d1edc7fd64eb21e047a839171b\n      swap2\n        /* \"@openzeppelin/contracts-upgradeable/access/AccessControlUpgradeable.sol\":8131:8136  false */\n      swap1\n        /* \"@openzeppelin/contracts-upgradeable/access/AccessControlUpgradeable.sol\":8155:8195  RoleRevoked(role, account, _msgSender()) */\n      log4\n        /* \"@openzeppelin/contracts-upgradeable/access/AccessControlUpgradeable.sol\":8216:8220  true */\n      0x01\n        /* \"@openzeppelin/contracts-upgradeable/access/AccessControlUpgradeable.sol\":8209:8220  return true */\n      swap2\n      pop\n      pop\n      jump(tag_232)\n        /* \"@openzeppelin/contracts-upgradeable/security/PausableUpgradeable.sol\":2697:2814  function _unpause() internal virtual whenPaused {... */\n    tag_280:\n        /* \"@openzeppelin/contracts-upgradeable/security/PausableUpgradeable.sol\":1750:1766  _requirePaused() */\n      tag_480\n        /* \"@openzeppelin/contracts-upgradeable/security/PausableUpgradeable.sol\":1750:1764  _requirePaused */\n      tag_481\n        /* \"@openzeppelin/contracts-upgradeable/security/PausableUpgradeable.sol\":1750:1766  _requirePaused() */\n      jump\t// in\n    tag_480:\n        /* \"@openzeppelin/contracts-upgradeable/security/PausableUpgradeable.sol\":2765:2770  false */\n      0x00\n        /* \"@openzeppelin/contracts-upgradeable/security/PausableUpgradeable.sol\":2755:2770  _paused = false */\n      dup1\n      sload\n      not(0xff)\n      and\n      swap1\n      sstore\n        /* \"@openzeppelin/contracts-upgradeable/security/PausableUpgradeable.sol\":2785:2807  Unpaused(_msgSender()) */\n      0x5db9ee0a495bf2e6ff9c91a7834c1ba4fdd244a5e8aa4e537bd38aeae4b073aa\n        /* \"@openzeppelin/contracts-upgradeable/utils/ContextUpgradeable.sol\":966:976  msg.sender */\n      caller\n        /* \"@openzeppelin/contracts-upgradeable/security/PausableUpgradeable.sol\":2794:2806  _msgSender() */\n    tag_483:\n        /* \"@openzeppelin/contracts-upgradeable/security/PausableUpgradeable.sol\":2785:2807  Unpaused(_msgSender()) */\n      mload(0x40)\n      sub(shl(0xa0, 0x01), 0x01)\n        /* \"#utility.yul\":661:693   */\n      swap1\n      swap2\n      and\n        /* \"#utility.yul\":643:694   */\n      dup2\n      mstore\n        /* \"#utility.yul\":631:633   */\n      0x20\n        /* \"#utility.yul\":616:634   */\n      add\n        /* \"@openzeppelin/contracts-upgradeable/security/PausableUpgradeable.sol\":2785:2807  Unpaused(_msgSender()) */\n      mload(0x40)\n      dup1\n      swap2\n      sub\n      swap1\n      log1\n        /* \"@openzeppelin/contracts-upgradeable/security/PausableUpgradeable.sol\":2697:2814  function _unpause() internal virtual whenPaused {... */\n      jump\t// out\n        /* \"@openzeppelin/contracts-upgradeable/proxy/utils/UUPSUpgradeable.sol\":4599:4911  function _checkProxy() internal view virtual {... */\n    tag_288:\n        /* \"@openzeppelin/contracts-upgradeable/proxy/utils/UUPSUpgradeable.sol\":4679:4683  this */\n      address\n      sub(shl(0xa0, 0x01), 0x01)\n        /* \"@openzeppelin/contracts-upgradeable/proxy/utils/UUPSUpgradeable.sol\":4688:4694  __self */\n      immutable(\"0x3b04ad91523c4dcf551e081621e633b9099d51bf9c5461e58c3bc7354a578b27\")\n        /* \"@openzeppelin/contracts-upgradeable/proxy/utils/UUPSUpgradeable.sol\":4671:4694  address(this) == __self */\n      and\n      eq\n      dup1\n        /* \"@openzeppelin/contracts-upgradeable/proxy/utils/UUPSUpgradeable.sol\":4671:4791  address(this) == __self || // Must be called through delegatecall... */\n      tag_486\n      jumpi\n      pop\n        /* \"@openzeppelin/contracts-upgradeable/proxy/utils/UUPSUpgradeable.sol\":4785:4791  __self */\n      immutable(\"0x3b04ad91523c4dcf551e081621e633b9099d51bf9c5461e58c3bc7354a578b27\")\n      sub(shl(0xa0, 0x01), 0x01)\n        /* \"@openzeppelin/contracts-upgradeable/proxy/utils/UUPSUpgradeable.sol\":4749:4791  ERC1967Utils.getImplementation() != __self */\n      and\n        /* \"@openzeppelin/contracts-upgradeable/proxy/utils/UUPSUpgradeable.sol\":4749:4781  ERC1967Utils.getImplementation() */\n      tag_487\n      0x00\n      dup1\n      mload\n      0x20\n      data_75b20eef8615de99c108b05f0dbda081c91897128caa336d75dffb97c4132b4d\n      dup4\n      codecopy\n      dup2\n      mload\n      swap2\n      mstore\n        /* \"@openzeppelin/contracts/proxy/ERC1967/ERC1967Utils.sol\":2035:2088  StorageSlot.getAddressSlot(IMPLEMENTATION_SLOT).value */\n      sload\n      sub(shl(0xa0, 0x01), 0x01)\n      and\n      swap1\n        /* \"@openzeppelin/contracts/proxy/ERC1967/ERC1967Utils.sol\":1957:2095  function getImplementation() internal view returns (address) {... */\n      jump\n        /* \"@openzeppelin/contracts-upgradeable/proxy/utils/UUPSUpgradeable.sol\":4749:4781  ERC1967Utils.getImplementation() */\n    tag_487:\n      sub(shl(0xa0, 0x01), 0x01)\n        /* \"@openzeppelin/contracts-upgradeable/proxy/utils/UUPSUpgradeable.sol\":4749:4791  ERC1967Utils.getImplementation() != __self */\n      and\n      eq\n      iszero\n        /* \"@openzeppelin/contracts-upgradeable/proxy/utils/UUPSUpgradeable.sol\":4671:4791  address(this) == __self || // Must be called through delegatecall... */\n    tag_486:\n        /* \"@openzeppelin/contracts-upgradeable/proxy/utils/UUPSUpgradeable.sol\":4654:4905  if (... */\n      iszero\n      tag_489\n      jumpi\n        /* \"@openzeppelin/contracts-upgradeable/proxy/utils/UUPSUpgradeable.sol\":4865:4894  UUPSUnauthorizedCallContext() */\n      mload(0x40)\n      shl(0xe1, 0x703e46dd)\n      dup2\n      mstore\n      0x04\n      add\n      mload(0x40)\n      dup1\n      swap2\n      sub\n      swap1\n      revert\n        /* \"@openzeppelin/contracts-upgradeable/proxy/utils/UUPSUpgradeable.sol\":4654:4905  if (... */\n    tag_489:\n        /* \"@openzeppelin/contracts-upgradeable/proxy/utils/UUPSUpgradeable.sol\":4599:4911  function _checkProxy() internal view virtual {... */\n      jump\t// out\n        /* \"src/smartcontracts/CryptoQuestTheShardsOfGenesisWallet.sol\":7644:7742  function _authorizeUpgrade(address newImplementation) internal override onlyRole(UPGRADER_ROLE) {} */\n    tag_291:\n        /* \"src/smartcontracts/CryptoQuestTheShardsOfGenesisWallet.sol\":1158:1184  keccak256(\"UPGRADER_ROLE\") */\n      0x189ab7a9244df0848122154315af71fe140f3db0fe014031783b0946b8c9d2e3\n        /* \"@openzeppelin/contracts-upgradeable/access/AccessControlUpgradeable.sol\":3191:3207  _checkRole(role) */\n      tag_292\n        /* \"@openzeppelin/contracts-upgradeable/access/AccessControlUpgradeable.sol\":3202:3206  role */\n      dup2\n        /* \"@openzeppelin/contracts-upgradeable/access/AccessControlUpgradeable.sol\":3191:3201  _checkRole */\n      tag_266\n        /* \"@openzeppelin/contracts-upgradeable/access/AccessControlUpgradeable.sol\":3191:3207  _checkRole(role) */\n      jump\t// in\n        /* \"@openzeppelin/contracts-upgradeable/proxy/utils/UUPSUpgradeable.sol\":6052:6590  function _upgradeToAndCallUUPS(address newImplementation, bytes memory data) private {... */\n    tag_293:\n        /* \"@openzeppelin/contracts-upgradeable/proxy/utils/UUPSUpgradeable.sol\":6169:6186  newImplementation */\n      dup2\n      sub(shl(0xa0, 0x01), 0x01)\n        /* \"@openzeppelin/contracts-upgradeable/proxy/utils/UUPSUpgradeable.sol\":6151:6201  IERC1822Proxiable(newImplementation).proxiableUUID */\n      and\n      0x52d1902d\n        /* \"@openzeppelin/contracts-upgradeable/proxy/utils/UUPSUpgradeable.sol\":6151:6203  IERC1822Proxiable(newImplementation).proxiableUUID() */\n      mload(0x40)\n      dup2\n      0xffffffff\n      and\n      0xe0\n      shl\n      dup2\n      mstore\n      0x04\n      add\n      0x20\n      mload(0x40)\n      dup1\n      dup4\n      sub\n      dup2\n      dup7\n      gas\n      staticcall\n      swap3\n      pop\n      pop\n      pop\n      dup1\n      iszero\n      tag_494\n      jumpi\n      pop\n      0x40\n      dup1\n      mload\n      0x1f\n      returndatasize\n      swap1\n      dup2\n      add\n      not(0x1f)\n      and\n      dup3\n      add\n      swap1\n      swap3\n      mstore\n      tag_495\n      swap2\n      dup2\n      add\n      swap1\n      tag_496\n      jump\t// in\n    tag_495:\n      0x01\n    tag_494:\n        /* \"@openzeppelin/contracts-upgradeable/proxy/utils/UUPSUpgradeable.sol\":6147:6584  try IERC1822Proxiable(newImplementation).proxiableUUID() returns (bytes32 slot) {... */\n      tag_497\n      jumpi\n        /* \"@openzeppelin/contracts-upgradeable/proxy/utils/UUPSUpgradeable.sol\":6513:6573  ERC1967Utils.ERC1967InvalidImplementation(newImplementation) */\n      mload(0x40)\n      shl(0xe0, 0x4c9c8ce3)\n      dup2\n      mstore\n      sub(shl(0xa0, 0x01), 0x01)\n        /* \"#utility.yul\":661:693   */\n      dup4\n      and\n        /* \"@openzeppelin/contracts-upgradeable/proxy/utils/UUPSUpgradeable.sol\":6513:6573  ERC1967Utils.ERC1967InvalidImplementation(newImplementation) */\n      0x04\n      dup3\n      add\n        /* \"#utility.yul\":643:694   */\n      mstore\n        /* \"#utility.yul\":616:634   */\n      0x24\n      add\n        /* \"@openzeppelin/contracts-upgradeable/proxy/utils/UUPSUpgradeable.sol\":6513:6573  ERC1967Utils.ERC1967InvalidImplementation(newImplementation) */\n      tag_237\n        /* \"#utility.yul\":497:700   */\n      jump\n        /* \"@openzeppelin/contracts-upgradeable/proxy/utils/UUPSUpgradeable.sol\":6147:6584  try IERC1822Proxiable(newImplementation).proxiableUUID() returns (bytes32 slot) {... */\n    tag_497:\n      0x00\n      dup1\n      mload\n      0x20\n      data_75b20eef8615de99c108b05f0dbda081c91897128caa336d75dffb97c4132b4d\n      dup4\n      codecopy\n      dup2\n      mload\n      swap2\n      mstore\n        /* \"@openzeppelin/contracts-upgradeable/proxy/utils/UUPSUpgradeable.sol\":6245:6285  slot != ERC1967Utils.IMPLEMENTATION_SLOT */\n      dup2\n      eq\n        /* \"@openzeppelin/contracts-upgradeable/proxy/utils/UUPSUpgradeable.sol\":6241:6361  if (slot != ERC1967Utils.IMPLEMENTATION_SLOT) {... */\n      tag_503\n      jumpi\n        /* \"@openzeppelin/contracts-upgradeable/proxy/utils/UUPSUpgradeable.sol\":6312:6346  UUPSUnsupportedProxiableUUID(slot) */\n      mload(0x40)\n      shl(0xe2, 0x2a875269)\n      dup2\n      mstore\n      0x04\n      dup2\n      add\n        /* \"#utility.yul\":1843:1868   */\n      dup3\n      swap1\n      mstore\n        /* \"#utility.yul\":1816:1834   */\n      0x24\n      add\n        /* \"@openzeppelin/contracts-upgradeable/proxy/utils/UUPSUpgradeable.sol\":6312:6346  UUPSUnsupportedProxiableUUID(slot) */\n      tag_237\n        /* \"#utility.yul\":1697:1874   */\n      jump\n        /* \"@openzeppelin/contracts-upgradeable/proxy/utils/UUPSUpgradeable.sol\":6241:6361  if (slot != ERC1967Utils.IMPLEMENTATION_SLOT) {... */\n    tag_503:\n        /* \"@openzeppelin/contracts-upgradeable/proxy/utils/UUPSUpgradeable.sol\":6374:6428  ERC1967Utils.upgradeToAndCall(newImplementation, data) */\n      tag_274\n        /* \"@openzeppelin/contracts-upgradeable/proxy/utils/UUPSUpgradeable.sol\":6404:6421  newImplementation */\n      dup4\n        /* \"@openzeppelin/contracts-upgradeable/proxy/utils/UUPSUpgradeable.sol\":6423:6427  data */\n      dup4\n        /* \"@openzeppelin/contracts-upgradeable/proxy/utils/UUPSUpgradeable.sol\":6374:6403  ERC1967Utils.upgradeToAndCall */\n      tag_506\n        /* \"@openzeppelin/contracts-upgradeable/proxy/utils/UUPSUpgradeable.sol\":6374:6428  ERC1967Utils.upgradeToAndCall(newImplementation, data) */\n      jump\t// in\n        /* \"@openzeppelin/contracts-upgradeable/proxy/utils/UUPSUpgradeable.sol\":5028:5241  function _checkNotDelegated() internal view virtual {... */\n    tag_296:\n        /* \"@openzeppelin/contracts-upgradeable/proxy/utils/UUPSUpgradeable.sol\":5102:5106  this */\n      address\n      sub(shl(0xa0, 0x01), 0x01)\n        /* \"@openzeppelin/contracts-upgradeable/proxy/utils/UUPSUpgradeable.sol\":5111:5117  __self */\n      immutable(\"0x3b04ad91523c4dcf551e081621e633b9099d51bf9c5461e58c3bc7354a578b27\")\n        /* \"@openzeppelin/contracts-upgradeable/proxy/utils/UUPSUpgradeable.sol\":5094:5117  address(this) != __self */\n      and\n      eq\n        /* \"@openzeppelin/contracts-upgradeable/proxy/utils/UUPSUpgradeable.sol\":5090:5235  if (address(this) != __self) {... */\n      tag_489\n      jumpi\n        /* \"@openzeppelin/contracts-upgradeable/proxy/utils/UUPSUpgradeable.sol\":5195:5224  UUPSUnauthorizedCallContext() */\n      mload(0x40)\n      shl(0xe1, 0x703e46dd)\n      dup2\n      mstore\n      0x04\n      add\n      mload(0x40)\n      dup1\n      swap2\n      sub\n      swap1\n      revert\n        /* \"@openzeppelin/contracts-upgradeable/access/AccessControlUpgradeable.sol\":3231:3296  function __AccessControl_init() internal onlyInitializing {... */\n    tag_309:\n        /* \"@openzeppelin/contracts-upgradeable/proxy/utils/Initializable.sol\":6931:6951  _checkInitializing() */\n      tag_489\n        /* \"@openzeppelin/contracts-upgradeable/proxy/utils/Initializable.sol\":6931:6949  _checkInitializing */\n      tag_512\n        /* \"@openzeppelin/contracts-upgradeable/proxy/utils/Initializable.sol\":6931:6951  _checkInitializing() */\n      jump\t// in\n        /* \"@openzeppelin/contracts-upgradeable/security/PausableUpgradeable.sol\":1084:1181  function __Pausable_init() internal onlyInitializing {... */\n    tag_311:\n        /* \"@openzeppelin/contracts-upgradeable/proxy/utils/Initializable.sol\":6931:6951  _checkInitializing() */\n      tag_515\n        /* \"@openzeppelin/contracts-upgradeable/proxy/utils/Initializable.sol\":6931:6949  _checkInitializing */\n      tag_512\n        /* \"@openzeppelin/contracts-upgradeable/proxy/utils/Initializable.sol\":6931:6951  _checkInitializing() */\n      jump\t// in\n    tag_515:\n        /* \"@openzeppelin/contracts-upgradeable/security/PausableUpgradeable.sol\":1147:1174  __Pausable_init_unchained() */\n      tag_489\n        /* \"@openzeppelin/contracts-upgradeable/security/PausableUpgradeable.sol\":1147:1172  __Pausable_init_unchained */\n      tag_518\n        /* \"@openzeppelin/contracts-upgradeable/security/PausableUpgradeable.sol\":1147:1174  __Pausable_init_unchained() */\n      jump\t// in\n        /* \"@openzeppelin/contracts-upgradeable/security/PausableUpgradeable.sol\":2031:2137  function _requireNotPaused() internal view virtual {... */\n    tag_323:\n        /* \"@openzeppelin/contracts-upgradeable/security/PausableUpgradeable.sol\":1926:1930  bool */\n      0x00\n        /* \"@openzeppelin/contracts-upgradeable/security/PausableUpgradeable.sol\":1949:1956  _paused */\n      sload\n      0xff\n      and\n        /* \"@openzeppelin/contracts-upgradeable/security/PausableUpgradeable.sol\":2100:2109  !paused() */\n      iszero\n        /* \"@openzeppelin/contracts-upgradeable/security/PausableUpgradeable.sol\":2092:2130  require(!paused(), \"Pausable: paused\") */\n      tag_489\n      jumpi\n      mload(0x40)\n      shl(0xe5, 0x461bcd)\n      dup2\n      mstore\n        /* \"#utility.yul\":15155:15157   */\n      0x20\n        /* \"@openzeppelin/contracts-upgradeable/security/PausableUpgradeable.sol\":2092:2130  require(!paused(), \"Pausable: paused\") */\n      0x04\n      dup3\n      add\n        /* \"#utility.yul\":15137:15158   */\n      mstore\n        /* \"#utility.yul\":15194:15196   */\n      0x10\n        /* \"#utility.yul\":15174:15192   */\n      0x24\n      dup3\n      add\n        /* \"#utility.yul\":15167:15197   */\n      mstore\n      shl(0x82, 0x14185d5cd8589b194e881c185d5cd959)\n        /* \"#utility.yul\":15213:15231   */\n      0x44\n      dup3\n      add\n        /* \"#utility.yul\":15206:15252   */\n      mstore\n        /* \"#utility.yul\":15269:15287   */\n      0x64\n      add\n        /* \"@openzeppelin/contracts-upgradeable/security/PausableUpgradeable.sol\":2092:2130  require(!paused(), \"Pausable: paused\") */\n      tag_237\n        /* \"#utility.yul\":14953:15293   */\n      jump\n        /* \"@openzeppelin/contracts-upgradeable/security/PausableUpgradeable.sol\":2450:2565  function _pause() internal virtual whenNotPaused {... */\n    tag_339:\n        /* \"@openzeppelin/contracts-upgradeable/security/PausableUpgradeable.sol\":1503:1522  _requireNotPaused() */\n      tag_528\n        /* \"@openzeppelin/contracts-upgradeable/security/PausableUpgradeable.sol\":1503:1520  _requireNotPaused */\n      tag_323\n        /* \"@openzeppelin/contracts-upgradeable/security/PausableUpgradeable.sol\":1503:1522  _requireNotPaused() */\n      jump\t// in\n    tag_528:\n        /* \"@openzeppelin/contracts-upgradeable/security/PausableUpgradeable.sol\":2509:2516  _paused */\n      0x00\n        /* \"@openzeppelin/contracts-upgradeable/security/PausableUpgradeable.sol\":2509:2523  _paused = true */\n      dup1\n      sload\n      not(0xff)\n      and\n        /* \"@openzeppelin/contracts-upgradeable/security/PausableUpgradeable.sol\":2519:2523  true */\n      0x01\n        /* \"@openzeppelin/contracts-upgradeable/security/PausableUpgradeable.sol\":2509:2523  _paused = true */\n      or\n      swap1\n      sstore\n        /* \"@openzeppelin/contracts-upgradeable/security/PausableUpgradeable.sol\":2538:2558  Paused(_msgSender()) */\n      0x62e78cea01bee320cd4e420270b5ea74000d11b0c9f74754ebdbfc544b05a258\n        /* \"@openzeppelin/contracts-upgradeable/security/PausableUpgradeable.sol\":2545:2557  _msgSender() */\n      tag_483\n        /* \"@openzeppelin/contracts-upgradeable/utils/ContextUpgradeable.sol\":966:976  msg.sender */\n      caller\n      swap1\n        /* \"@openzeppelin/contracts-upgradeable/utils/ContextUpgradeable.sol\":887:983  function _msgSender() internal view virtual returns (address) {... */\n      jump\n        /* \"@openzeppelin/contracts-upgradeable/access/AccessControlUpgradeable.sol\":4381:4578  function _checkRole(bytes32 role, address account) internal view virtual {... */\n    tag_465:\n        /* \"@openzeppelin/contracts-upgradeable/access/AccessControlUpgradeable.sol\":4469:4491  hasRole(role, account) */\n      tag_533\n        /* \"@openzeppelin/contracts-upgradeable/access/AccessControlUpgradeable.sol\":4477:4481  role */\n      dup3\n        /* \"@openzeppelin/contracts-upgradeable/access/AccessControlUpgradeable.sol\":4483:4490  account */\n      dup3\n        /* \"@openzeppelin/contracts-upgradeable/access/AccessControlUpgradeable.sol\":4469:4476  hasRole */\n      tag_157\n        /* \"@openzeppelin/contracts-upgradeable/access/AccessControlUpgradeable.sol\":4469:4491  hasRole(role, account) */\n      jump\t// in\n    tag_533:\n        /* \"@openzeppelin/contracts-upgradeable/access/AccessControlUpgradeable.sol\":4464:4572  if (!hasRole(role, account)) {... */\n      tag_292\n      jumpi\n        /* \"@openzeppelin/contracts-upgradeable/access/AccessControlUpgradeable.sol\":4514:4561  AccessControlUnauthorizedAccount(account, role) */\n      mload(0x40)\n      shl(0xe0, 0xe2517d3f)\n      dup2\n      mstore\n      sub(shl(0xa0, 0x01), 0x01)\n        /* \"#utility.yul\":10616:10648   */\n      dup3\n      and\n        /* \"@openzeppelin/contracts-upgradeable/access/AccessControlUpgradeable.sol\":4514:4561  AccessControlUnauthorizedAccount(account, role) */\n      0x04\n      dup3\n      add\n        /* \"#utility.yul\":10598:10649   */\n      mstore\n        /* \"#utility.yul\":10665:10683   */\n      0x24\n      dup2\n      add\n        /* \"#utility.yul\":10658:10692   */\n      dup4\n      swap1\n      mstore\n        /* \"#utility.yul\":10571:10589   */\n      0x44\n      add\n        /* \"@openzeppelin/contracts-upgradeable/access/AccessControlUpgradeable.sol\":4514:4561  AccessControlUnauthorizedAccount(account, role) */\n      tag_237\n        /* \"#utility.yul\":10424:10698   */\n      jump\n        /* \"@openzeppelin/contracts-upgradeable/security/PausableUpgradeable.sol\":2209:2315  function _requirePaused() internal view virtual {... */\n    tag_481:\n        /* \"@openzeppelin/contracts-upgradeable/security/PausableUpgradeable.sol\":1926:1930  bool */\n      0x00\n        /* \"@openzeppelin/contracts-upgradeable/security/PausableUpgradeable.sol\":1949:1956  _paused */\n      sload\n      0xff\n      and\n        /* \"@openzeppelin/contracts-upgradeable/security/PausableUpgradeable.sol\":2267:2308  require(paused(), \"Pausable: not paused\") */\n      tag_489\n      jumpi\n      mload(0x40)\n      shl(0xe5, 0x461bcd)\n      dup2\n      mstore\n        /* \"#utility.yul\":15779:15781   */\n      0x20\n        /* \"@openzeppelin/contracts-upgradeable/security/PausableUpgradeable.sol\":2267:2308  require(paused(), \"Pausable: not paused\") */\n      0x04\n      dup3\n      add\n        /* \"#utility.yul\":15761:15782   */\n      mstore\n        /* \"#utility.yul\":15818:15820   */\n      0x14\n        /* \"#utility.yul\":15798:15816   */\n      0x24\n      dup3\n      add\n        /* \"#utility.yul\":15791:15821   */\n      mstore\n      shl(0x62, 0x14185d5cd8589b194e881b9bdd081c185d5cd959)\n        /* \"#utility.yul\":15837:15855   */\n      0x44\n      dup3\n      add\n        /* \"#utility.yul\":15830:15880   */\n      mstore\n        /* \"#utility.yul\":15897:15915   */\n      0x64\n      add\n        /* \"@openzeppelin/contracts-upgradeable/security/PausableUpgradeable.sol\":2267:2308  require(paused(), \"Pausable: not paused\") */\n      tag_237\n        /* \"#utility.yul\":15577:15921   */\n      jump\n        /* \"@openzeppelin/contracts/proxy/ERC1967/ERC1967Utils.sol\":2779:3114  function upgradeToAndCall(address newImplementation, bytes memory data) internal {... */\n    tag_506:\n        /* \"@openzeppelin/contracts/proxy/ERC1967/ERC1967Utils.sol\":2870:2907  _setImplementation(newImplementation) */\n      tag_546\n        /* \"@openzeppelin/contracts/proxy/ERC1967/ERC1967Utils.sol\":2889:2906  newImplementation */\n      dup3\n        /* \"@openzeppelin/contracts/proxy/ERC1967/ERC1967Utils.sol\":2870:2888  _setImplementation */\n      tag_547\n        /* \"@openzeppelin/contracts/proxy/ERC1967/ERC1967Utils.sol\":2870:2907  _setImplementation(newImplementation) */\n      jump\t// in\n    tag_546:\n        /* \"@openzeppelin/contracts/proxy/ERC1967/ERC1967Utils.sol\":2922:2949  Upgraded(newImplementation) */\n      mload(0x40)\n      sub(shl(0xa0, 0x01), 0x01)\n      dup4\n      and\n      swap1\n      0xbc7cd75a20ee27fd9adebab32041f755214dbc6bffa90cc0225b39da2e5c2d3b\n      swap1\n      0x00\n      swap1\n      log2\n        /* \"@openzeppelin/contracts/proxy/ERC1967/ERC1967Utils.sol\":2964:2975  data.length */\n      dup1\n      mload\n        /* \"@openzeppelin/contracts/proxy/ERC1967/ERC1967Utils.sol\":2964:2979  data.length > 0 */\n      iszero\n        /* \"@openzeppelin/contracts/proxy/ERC1967/ERC1967Utils.sol\":2960:3108  if (data.length > 0) {... */\n      tag_548\n      jumpi\n        /* \"@openzeppelin/contracts/proxy/ERC1967/ERC1967Utils.sol\":2995:3048  Address.functionDelegateCall(newImplementation, data) */\n      tag_274\n        /* \"@openzeppelin/contracts/proxy/ERC1967/ERC1967Utils.sol\":3024:3041  newImplementation */\n      dup3\n        /* \"@openzeppelin/contracts/proxy/ERC1967/ERC1967Utils.sol\":3043:3047  data */\n      dup3\n        /* \"@openzeppelin/contracts/proxy/ERC1967/ERC1967Utils.sol\":2995:3023  Address.functionDelegateCall */\n      tag_550\n        /* \"@openzeppelin/contracts/proxy/ERC1967/ERC1967Utils.sol\":2995:3048  Address.functionDelegateCall(newImplementation, data) */\n      jump\t// in\n        /* \"@openzeppelin/contracts/proxy/ERC1967/ERC1967Utils.sol\":2960:3108  if (data.length > 0) {... */\n    tag_548:\n        /* \"@openzeppelin/contracts/proxy/ERC1967/ERC1967Utils.sol\":3079:3097  _checkNonPayable() */\n      tag_292\n        /* \"@openzeppelin/contracts/proxy/ERC1967/ERC1967Utils.sol\":3079:3095  _checkNonPayable */\n      tag_553\n        /* \"@openzeppelin/contracts/proxy/ERC1967/ERC1967Utils.sol\":3079:3097  _checkNonPayable() */\n      jump\t// in\n        /* \"@openzeppelin/contracts-upgradeable/proxy/utils/Initializable.sol\":7084:7225  function _checkInitializing() internal view virtual {... */\n    tag_512:\n        /* \"@openzeppelin/contracts-upgradeable/proxy/utils/Initializable.sol\":8870:8891  INITIALIZABLE_STORAGE */\n      0xf0c57e16840df040f15088dc2f81fe391c3923bec73e23a9662efc9c229c6a00\n        /* \"@openzeppelin/contracts-upgradeable/proxy/utils/Initializable.sol\":8560:8600  _getInitializableStorage()._initializing */\n      sload\n      shl(0x40, 0x01)\n      swap1\n      div\n      0xff\n      and\n        /* \"@openzeppelin/contracts-upgradeable/proxy/utils/Initializable.sol\":7146:7219  if (!_isInitializing()) {... */\n      tag_489\n      jumpi\n        /* \"@openzeppelin/contracts-upgradeable/proxy/utils/Initializable.sol\":7191:7208  NotInitializing() */\n      mload(0x40)\n      shl(0xe3, 0x1afcd79f)\n      dup2\n      mstore\n      0x04\n      add\n      mload(0x40)\n      dup1\n      swap2\n      sub\n      swap1\n      revert\n        /* \"@openzeppelin/contracts-upgradeable/security/PausableUpgradeable.sol\":1187:1282  function __Pausable_init_unchained() internal onlyInitializing {... */\n    tag_518:\n        /* \"@openzeppelin/contracts-upgradeable/proxy/utils/Initializable.sol\":6931:6951  _checkInitializing() */\n      tag_559\n        /* \"@openzeppelin/contracts-upgradeable/proxy/utils/Initializable.sol\":6931:6949  _checkInitializing */\n      tag_512\n        /* \"@openzeppelin/contracts-upgradeable/proxy/utils/Initializable.sol\":6931:6951  _checkInitializing() */\n      jump\t// in\n    tag_559:\n        /* \"@openzeppelin/contracts-upgradeable/security/PausableUpgradeable.sol\":1270:1275  false */\n      0x00\n        /* \"@openzeppelin/contracts-upgradeable/security/PausableUpgradeable.sol\":1260:1275  _paused = false */\n      dup1\n      sload\n      not(0xff)\n      and\n      swap1\n      sstore\n        /* \"@openzeppelin/contracts-upgradeable/security/PausableUpgradeable.sol\":1187:1282  function __Pausable_init_unchained() internal onlyInitializing {... */\n      jump\t// out\n        /* \"@openzeppelin/contracts/proxy/ERC1967/ERC1967Utils.sol\":2186:2467  function _setImplementation(address newImplementation) private {... */\n    tag_547:\n        /* \"@openzeppelin/contracts/proxy/ERC1967/ERC1967Utils.sol\":2263:2280  newImplementation */\n      dup1\n      sub(shl(0xa0, 0x01), 0x01)\n        /* \"@openzeppelin/contracts/proxy/ERC1967/ERC1967Utils.sol\":2263:2292  newImplementation.code.length */\n      and\n      extcodesize\n        /* \"@openzeppelin/contracts/proxy/ERC1967/ERC1967Utils.sol\":2296:2297  0 */\n      0x00\n        /* \"@openzeppelin/contracts/proxy/ERC1967/ERC1967Utils.sol\":2263:2297  newImplementation.code.length == 0 */\n      sub\n        /* \"@openzeppelin/contracts/proxy/ERC1967/ERC1967Utils.sol\":2259:2378  if (newImplementation.code.length == 0) {... */\n      tag_563\n      jumpi\n        /* \"@openzeppelin/contracts/proxy/ERC1967/ERC1967Utils.sol\":2320:2367  ERC1967InvalidImplementation(newImplementation) */\n      mload(0x40)\n      shl(0xe0, 0x4c9c8ce3)\n      dup2\n      mstore\n      sub(shl(0xa0, 0x01), 0x01)\n        /* \"#utility.yul\":661:693   */\n      dup3\n      and\n        /* \"@openzeppelin/contracts/proxy/ERC1967/ERC1967Utils.sol\":2320:2367  ERC1967InvalidImplementation(newImplementation) */\n      0x04\n      dup3\n      add\n        /* \"#utility.yul\":643:694   */\n      mstore\n        /* \"#utility.yul\":616:634   */\n      0x24\n      add\n        /* \"@openzeppelin/contracts/proxy/ERC1967/ERC1967Utils.sol\":2320:2367  ERC1967InvalidImplementation(newImplementation) */\n      tag_237\n        /* \"#utility.yul\":497:700   */\n      jump\n        /* \"@openzeppelin/contracts/proxy/ERC1967/ERC1967Utils.sol\":2259:2378  if (newImplementation.code.length == 0) {... */\n    tag_563:\n      0x00\n      dup1\n      mload\n      0x20\n      data_75b20eef8615de99c108b05f0dbda081c91897128caa336d75dffb97c4132b4d\n      dup4\n      codecopy\n      dup2\n      mload\n      swap2\n      mstore\n        /* \"@openzeppelin/contracts/proxy/ERC1967/ERC1967Utils.sol\":2387:2460  StorageSlot.getAddressSlot(IMPLEMENTATION_SLOT).value = newImplementation */\n      dup1\n      sload\n      not(sub(shl(0xa0, 0x01), 0x01))\n      and\n      sub(shl(0xa0, 0x01), 0x01)\n      swap3\n      swap1\n      swap3\n      and\n      swap2\n      swap1\n      swap2\n      or\n      swap1\n      sstore\n        /* \"@openzeppelin/contracts/proxy/ERC1967/ERC1967Utils.sol\":2186:2467  function _setImplementation(address newImplementation) private {... */\n      jump\t// out\n        /* \"@openzeppelin/contracts/utils/Address.sol\":4106:4359  function functionDelegateCall(address target, bytes memory data) internal returns (bytes memory) {... */\n    tag_550:\n        /* \"@openzeppelin/contracts/utils/Address.sol\":4189:4201  bytes memory */\n      0x60\n        /* \"@openzeppelin/contracts/utils/Address.sol\":4214:4226  bool success */\n      0x00\n        /* \"@openzeppelin/contracts/utils/Address.sol\":4228:4251  bytes memory returndata */\n      dup1\n        /* \"@openzeppelin/contracts/utils/Address.sol\":4255:4261  target */\n      dup5\n      sub(shl(0xa0, 0x01), 0x01)\n        /* \"@openzeppelin/contracts/utils/Address.sol\":4255:4274  target.delegatecall */\n      and\n        /* \"@openzeppelin/contracts/utils/Address.sol\":4275:4279  data */\n      dup5\n        /* \"@openzeppelin/contracts/utils/Address.sol\":4255:4280  target.delegatecall(data) */\n      mload(0x40)\n      tag_567\n      swap2\n      swap1\n      tag_568\n      jump\t// in\n    tag_567:\n      0x00\n      mload(0x40)\n      dup1\n      dup4\n      sub\n      dup2\n      dup6\n      gas\n      delegatecall\n      swap2\n      pop\n      pop\n      returndatasize\n      dup1\n      0x00\n      dup2\n      eq\n      tag_571\n      jumpi\n      mload(0x40)\n      swap2\n      pop\n      and(add(returndatasize, 0x3f), not(0x1f))\n      dup3\n      add\n      0x40\n      mstore\n      returndatasize\n      dup3\n      mstore\n      returndatasize\n      0x00\n      0x20\n      dup5\n      add\n      returndatacopy\n      jump(tag_570)\n    tag_571:\n      0x60\n      swap2\n      pop\n    tag_570:\n      pop\n        /* \"@openzeppelin/contracts/utils/Address.sol\":4213:4280  (bool success, bytes memory returndata) = target.delegatecall(data) */\n      swap2\n      pop\n      swap2\n      pop\n        /* \"@openzeppelin/contracts/utils/Address.sol\":4297:4352  verifyCallResultFromTarget(target, success, returndata) */\n      tag_572\n        /* \"@openzeppelin/contracts/utils/Address.sol\":4324:4330  target */\n      dup6\n        /* \"@openzeppelin/contracts/utils/Address.sol\":4332:4339  success */\n      dup4\n        /* \"@openzeppelin/contracts/utils/Address.sol\":4341:4351  returndata */\n      dup4\n        /* \"@openzeppelin/contracts/utils/Address.sol\":4297:4323  verifyCallResultFromTarget */\n      tag_573\n        /* \"@openzeppelin/contracts/utils/Address.sol\":4297:4352  verifyCallResultFromTarget(target, success, returndata) */\n      jump\t// in\n    tag_572:\n        /* \"@openzeppelin/contracts/utils/Address.sol\":4290:4352  return verifyCallResultFromTarget(target, success, returndata) */\n      swap6\n        /* \"@openzeppelin/contracts/utils/Address.sol\":4106:4359  function functionDelegateCall(address target, bytes memory data) internal returns (bytes memory) {... */\n      swap5\n      pop\n      pop\n      pop\n      pop\n      pop\n      jump\t// out\n        /* \"@openzeppelin/contracts/proxy/ERC1967/ERC1967Utils.sol\":6598:6720  function _checkNonPayable() private {... */\n    tag_553:\n        /* \"@openzeppelin/contracts/proxy/ERC1967/ERC1967Utils.sol\":6648:6657  msg.value */\n      callvalue\n        /* \"@openzeppelin/contracts/proxy/ERC1967/ERC1967Utils.sol\":6648:6661  msg.value > 0 */\n      iszero\n        /* \"@openzeppelin/contracts/proxy/ERC1967/ERC1967Utils.sol\":6644:6714  if (msg.value > 0) {... */\n      tag_489\n      jumpi\n        /* \"@openzeppelin/contracts/proxy/ERC1967/ERC1967Utils.sol\":6684:6703  ERC1967NonPayable() */\n      mload(0x40)\n      shl(0xe0, 0xb398979f)\n      dup2\n      mstore\n      0x04\n      add\n      mload(0x40)\n      dup1\n      swap2\n      sub\n      swap1\n      revert\n        /* \"@openzeppelin/contracts/utils/Address.sol\":4625:5207  function verifyCallResultFromTarget(... */\n    tag_573:\n        /* \"@openzeppelin/contracts/utils/Address.sol\":4769:4781  bytes memory */\n      0x60\n        /* \"@openzeppelin/contracts/utils/Address.sol\":4798:4805  success */\n      dup3\n        /* \"@openzeppelin/contracts/utils/Address.sol\":4793:5201  if (!success) {... */\n      tag_579\n      jumpi\n        /* \"@openzeppelin/contracts/utils/Address.sol\":4821:4840  _revert(returndata) */\n      tag_580\n        /* \"@openzeppelin/contracts/utils/Address.sol\":4829:4839  returndata */\n      dup3\n        /* \"@openzeppelin/contracts/utils/Address.sol\":4821:4828  _revert */\n      tag_581\n        /* \"@openzeppelin/contracts/utils/Address.sol\":4821:4840  _revert(returndata) */\n      jump\t// in\n    tag_580:\n        /* \"@openzeppelin/contracts/utils/Address.sol\":4793:5201  if (!success) {... */\n      jump(tag_582)\n    tag_579:\n        /* \"@openzeppelin/contracts/utils/Address.sol\":5045:5062  returndata.length */\n      dup2\n      mload\n        /* \"@openzeppelin/contracts/utils/Address.sol\":5045:5067  returndata.length == 0 */\n      iszero\n        /* \"@openzeppelin/contracts/utils/Address.sol\":5045:5094  returndata.length == 0 && target.code.length == 0 */\n      dup1\n      iszero\n      tag_583\n      jumpi\n      pop\n      sub(shl(0xa0, 0x01), 0x01)\n        /* \"@openzeppelin/contracts/utils/Address.sol\":5071:5089  target.code.length */\n      dup5\n      and\n      extcodesize\n        /* \"@openzeppelin/contracts/utils/Address.sol\":5071:5094  target.code.length == 0 */\n      iszero\n        /* \"@openzeppelin/contracts/utils/Address.sol\":5045:5094  returndata.length == 0 && target.code.length == 0 */\n    tag_583:\n        /* \"@openzeppelin/contracts/utils/Address.sol\":5041:5160  if (returndata.length == 0 && target.code.length == 0) {... */\n      iszero\n      tag_584\n      jumpi\n        /* \"@openzeppelin/contracts/utils/Address.sol\":5121:5145  AddressEmptyCode(target) */\n      mload(0x40)\n      shl(0xe0, 0x9996b315)\n      dup2\n      mstore\n      sub(shl(0xa0, 0x01), 0x01)\n        /* \"#utility.yul\":661:693   */\n      dup6\n      and\n        /* \"@openzeppelin/contracts/utils/Address.sol\":5121:5145  AddressEmptyCode(target) */\n      0x04\n      dup3\n      add\n        /* \"#utility.yul\":643:694   */\n      mstore\n        /* \"#utility.yul\":616:634   */\n      0x24\n      add\n        /* \"@openzeppelin/contracts/utils/Address.sol\":5121:5145  AddressEmptyCode(target) */\n      tag_237\n        /* \"#utility.yul\":497:700   */\n      jump\n        /* \"@openzeppelin/contracts/utils/Address.sol\":5041:5160  if (returndata.length == 0 && target.code.length == 0) {... */\n    tag_584:\n      pop\n        /* \"@openzeppelin/contracts/utils/Address.sol\":5180:5190  returndata */\n      dup1\n        /* \"@openzeppelin/contracts/utils/Address.sol\":4793:5201  if (!success) {... */\n    tag_582:\n        /* \"@openzeppelin/contracts/utils/Address.sol\":4625:5207  function verifyCallResultFromTarget(... */\n      swap4\n      swap3\n      pop\n      pop\n      pop\n      jump\t// out\n        /* \"@openzeppelin/contracts/utils/Address.sol\":5743:6259  function _revert(bytes memory returndata) private pure {... */\n    tag_581:\n        /* \"@openzeppelin/contracts/utils/Address.sol\":5874:5891  returndata.length */\n      dup1\n      mload\n        /* \"@openzeppelin/contracts/utils/Address.sol\":5874:5895  returndata.length > 0 */\n      iszero\n        /* \"@openzeppelin/contracts/utils/Address.sol\":5870:6253  if (returndata.length > 0) {... */\n      tag_587\n      jumpi\n        /* \"@openzeppelin/contracts/utils/Address.sol\":6102:6112  returndata */\n      dup1\n        /* \"@openzeppelin/contracts/utils/Address.sol\":6096:6113  mload(returndata) */\n      mload\n        /* \"@openzeppelin/contracts/utils/Address.sol\":6158:6173  returndata_size */\n      dup1\n        /* \"@openzeppelin/contracts/utils/Address.sol\":6145:6155  returndata */\n      dup3\n        /* \"@openzeppelin/contracts/utils/Address.sol\":6141:6143  32 */\n      0x20\n        /* \"@openzeppelin/contracts/utils/Address.sol\":6137:6156  add(32, returndata) */\n      add\n        /* \"@openzeppelin/contracts/utils/Address.sol\":6130:6174  revert(add(32, returndata), returndata_size) */\n      revert\n        /* \"@openzeppelin/contracts/utils/Address.sol\":5870:6253  if (returndata.length > 0) {... */\n    tag_587:\n        /* \"@openzeppelin/contracts/utils/Address.sol\":6225:6242  FailedInnerCall() */\n      mload(0x40)\n      shl(0xe1, 0x0a12f521)\n      dup2\n      mstore\n      0x04\n      add\n      mload(0x40)\n      dup1\n      swap2\n      sub\n      swap1\n      revert\n        /* \"#utility.yul\":14:300   */\n    tag_55:\n        /* \"#utility.yul\":72:78   */\n      0x00\n        /* \"#utility.yul\":125:127   */\n      0x20\n        /* \"#utility.yul\":113:122   */\n      dup3\n        /* \"#utility.yul\":104:111   */\n      dup5\n        /* \"#utility.yul\":100:123   */\n      sub\n        /* \"#utility.yul\":96:128   */\n      slt\n        /* \"#utility.yul\":93:145   */\n      iszero\n      tag_599\n      jumpi\n        /* \"#utility.yul\":141:142   */\n      0x00\n        /* \"#utility.yul\":138:139   */\n      dup1\n        /* \"#utility.yul\":131:143   */\n      revert\n        /* \"#utility.yul\":93:145   */\n    tag_599:\n        /* \"#utility.yul\":167:190   */\n      dup2\n      calldataload\n      not(sub(shl(0xe0, 0x01), 0x01))\n        /* \"#utility.yul\":219:251   */\n      dup2\n      and\n        /* \"#utility.yul\":209:252   */\n      dup2\n      eq\n        /* \"#utility.yul\":199:270   */\n      tag_582\n      jumpi\n        /* \"#utility.yul\":266:267   */\n      0x00\n        /* \"#utility.yul\":263:264   */\n      dup1\n        /* \"#utility.yul\":256:268   */\n      revert\n        /* \"#utility.yul\":705:878   */\n    tag_589:\n        /* \"#utility.yul\":773:793   */\n      dup1\n      calldataload\n      sub(shl(0xa0, 0x01), 0x01)\n        /* \"#utility.yul\":822:853   */\n      dup2\n      and\n        /* \"#utility.yul\":812:854   */\n      dup2\n      eq\n        /* \"#utility.yul\":802:872   */\n      tag_604\n      jumpi\n        /* \"#utility.yul\":868:869   */\n      0x00\n        /* \"#utility.yul\":865:866   */\n      dup1\n        /* \"#utility.yul\":858:870   */\n      revert\n        /* \"#utility.yul\":802:872   */\n    tag_604:\n        /* \"#utility.yul\":705:878   */\n      swap2\n      swap1\n      pop\n      jump\t// out\n        /* \"#utility.yul\":883:1069   */\n    tag_67:\n        /* \"#utility.yul\":942:948   */\n      0x00\n        /* \"#utility.yul\":995:997   */\n      0x20\n        /* \"#utility.yul\":983:992   */\n      dup3\n        /* \"#utility.yul\":974:981   */\n      dup5\n        /* \"#utility.yul\":970:993   */\n      sub\n        /* \"#utility.yul\":966:998   */\n      slt\n        /* \"#utility.yul\":963:1015   */\n      iszero\n      tag_606\n      jumpi\n        /* \"#utility.yul\":1011:1012   */\n      0x00\n        /* \"#utility.yul\":1008:1009   */\n      dup1\n        /* \"#utility.yul\":1001:1013   */\n      revert\n        /* \"#utility.yul\":963:1015   */\n    tag_606:\n        /* \"#utility.yul\":1034:1063   */\n      tag_582\n        /* \"#utility.yul\":1053:1062   */\n      dup3\n        /* \"#utility.yul\":1034:1063   */\n      tag_589\n      jump\t// in\n        /* \"#utility.yul\":1327:1507   */\n    tag_74:\n        /* \"#utility.yul\":1386:1392   */\n      0x00\n        /* \"#utility.yul\":1439:1441   */\n      0x20\n        /* \"#utility.yul\":1427:1436   */\n      dup3\n        /* \"#utility.yul\":1418:1425   */\n      dup5\n        /* \"#utility.yul\":1414:1437   */\n      sub\n        /* \"#utility.yul\":1410:1442   */\n      slt\n        /* \"#utility.yul\":1407:1459   */\n      iszero\n      tag_610\n      jumpi\n        /* \"#utility.yul\":1455:1456   */\n      0x00\n        /* \"#utility.yul\":1452:1453   */\n      dup1\n        /* \"#utility.yul\":1445:1457   */\n      revert\n        /* \"#utility.yul\":1407:1459   */\n    tag_610:\n      pop\n        /* \"#utility.yul\":1478:1501   */\n      calldataload\n      swap2\n        /* \"#utility.yul\":1327:1507   */\n      swap1\n      pop\n      jump\t// out\n        /* \"#utility.yul\":1879:2133   */\n    tag_98:\n        /* \"#utility.yul\":1947:1953   */\n      0x00\n        /* \"#utility.yul\":1955:1961   */\n      dup1\n        /* \"#utility.yul\":2008:2010   */\n      0x40\n        /* \"#utility.yul\":1996:2005   */\n      dup4\n        /* \"#utility.yul\":1987:1994   */\n      dup6\n        /* \"#utility.yul\":1983:2006   */\n      sub\n        /* \"#utility.yul\":1979:2011   */\n      slt\n        /* \"#utility.yul\":1976:2028   */\n      iszero\n      tag_615\n      jumpi\n        /* \"#utility.yul\":2024:2025   */\n      0x00\n        /* \"#utility.yul\":2021:2022   */\n      dup1\n        /* \"#utility.yul\":2014:2026   */\n      revert\n        /* \"#utility.yul\":1976:2028   */\n    tag_615:\n        /* \"#utility.yul\":2060:2069   */\n      dup3\n        /* \"#utility.yul\":2047:2070   */\n      calldataload\n        /* \"#utility.yul\":2037:2070   */\n      swap2\n      pop\n        /* \"#utility.yul\":2089:2127   */\n      tag_616\n        /* \"#utility.yul\":2123:2125   */\n      0x20\n        /* \"#utility.yul\":2112:2121   */\n      dup5\n        /* \"#utility.yul\":2108:2126   */\n      add\n        /* \"#utility.yul\":2089:2127   */\n      tag_589\n      jump\t// in\n    tag_616:\n        /* \"#utility.yul\":2079:2127   */\n      swap1\n      pop\n        /* \"#utility.yul\":1879:2133   */\n      swap3\n      pop\n      swap3\n      swap1\n      pop\n      jump\t// out\n        /* \"#utility.yul\":2138:2265   */\n    tag_590:\n        /* \"#utility.yul\":2199:2209   */\n      0x4e487b71\n        /* \"#utility.yul\":2194:2197   */\n      0xe0\n        /* \"#utility.yul\":2190:2210   */\n      shl\n        /* \"#utility.yul\":2187:2188   */\n      0x00\n        /* \"#utility.yul\":2180:2211   */\n      mstore\n        /* \"#utility.yul\":2230:2234   */\n      0x41\n        /* \"#utility.yul\":2227:2228   */\n      0x04\n        /* \"#utility.yul\":2220:2235   */\n      mstore\n        /* \"#utility.yul\":2254:2258   */\n      0x24\n        /* \"#utility.yul\":2251:2252   */\n      0x00\n        /* \"#utility.yul\":2244:2259   */\n      revert\n        /* \"#utility.yul\":2270:2988   */\n    tag_591:\n        /* \"#utility.yul\":2312:2317   */\n      0x00\n        /* \"#utility.yul\":2365:2368   */\n      dup3\n        /* \"#utility.yul\":2358:2362   */\n      0x1f\n        /* \"#utility.yul\":2350:2356   */\n      dup4\n        /* \"#utility.yul\":2346:2363   */\n      add\n        /* \"#utility.yul\":2342:2369   */\n      slt\n        /* \"#utility.yul\":2332:2387   */\n      tag_619\n      jumpi\n        /* \"#utility.yul\":2383:2384   */\n      0x00\n        /* \"#utility.yul\":2380:2381   */\n      dup1\n        /* \"#utility.yul\":2373:2385   */\n      revert\n        /* \"#utility.yul\":2332:2387   */\n    tag_619:\n        /* \"#utility.yul\":2419:2425   */\n      dup2\n        /* \"#utility.yul\":2406:2426   */\n      calldataload\n        /* \"#utility.yul\":2445:2463   */\n      0xffffffffffffffff\n        /* \"#utility.yul\":2482:2484   */\n      dup1\n        /* \"#utility.yul\":2478:2480   */\n      dup3\n        /* \"#utility.yul\":2475:2485   */\n      gt\n        /* \"#utility.yul\":2472:2508   */\n      iszero\n      tag_621\n      jumpi\n        /* \"#utility.yul\":2488:2506   */\n      tag_621\n      tag_590\n      jump\t// in\n    tag_621:\n        /* \"#utility.yul\":2563:2565   */\n      0x40\n        /* \"#utility.yul\":2557:2566   */\n      mload\n        /* \"#utility.yul\":2531:2533   */\n      0x1f\n        /* \"#utility.yul\":2617:2630   */\n      dup4\n      add\n      not(0x1f)\n        /* \"#utility.yul\":2613:2635   */\n      swap1\n      dup2\n      and\n        /* \"#utility.yul\":2637:2639   */\n      0x3f\n        /* \"#utility.yul\":2609:2640   */\n      add\n        /* \"#utility.yul\":2605:2645   */\n      and\n        /* \"#utility.yul\":2593:2646   */\n      dup2\n      add\n      swap1\n        /* \"#utility.yul\":2661:2679   */\n      dup3\n      dup3\n      gt\n        /* \"#utility.yul\":2681:2703   */\n      dup2\n      dup4\n      lt\n        /* \"#utility.yul\":2658:2704   */\n      or\n        /* \"#utility.yul\":2655:2727   */\n      iszero\n      tag_623\n      jumpi\n        /* \"#utility.yul\":2707:2725   */\n      tag_623\n      tag_590\n      jump\t// in\n    tag_623:\n        /* \"#utility.yul\":2747:2757   */\n      dup2\n        /* \"#utility.yul\":2743:2745   */\n      0x40\n        /* \"#utility.yul\":2736:2758   */\n      mstore\n        /* \"#utility.yul\":2782:2784   */\n      dup4\n        /* \"#utility.yul\":2774:2780   */\n      dup2\n        /* \"#utility.yul\":2767:2785   */\n      mstore\n        /* \"#utility.yul\":2828:2831   */\n      dup7\n        /* \"#utility.yul\":2821:2825   */\n      0x20\n        /* \"#utility.yul\":2816:2818   */\n      dup6\n        /* \"#utility.yul\":2808:2814   */\n      dup9\n        /* \"#utility.yul\":2804:2819   */\n      add\n        /* \"#utility.yul\":2800:2826   */\n      add\n        /* \"#utility.yul\":2797:2832   */\n      gt\n        /* \"#utility.yul\":2794:2849   */\n      iszero\n      tag_624\n      jumpi\n        /* \"#utility.yul\":2845:2846   */\n      0x00\n        /* \"#utility.yul\":2842:2843   */\n      dup1\n        /* \"#utility.yul\":2835:2847   */\n      revert\n        /* \"#utility.yul\":2794:2849   */\n    tag_624:\n        /* \"#utility.yul\":2909:2911   */\n      dup4\n        /* \"#utility.yul\":2902:2906   */\n      0x20\n        /* \"#utility.yul\":2894:2900   */\n      dup8\n        /* \"#utility.yul\":2890:2907   */\n      add\n        /* \"#utility.yul\":2883:2887   */\n      0x20\n        /* \"#utility.yul\":2875:2881   */\n      dup4\n        /* \"#utility.yul\":2871:2888   */\n      add\n        /* \"#utility.yul\":2858:2912   */\n      calldatacopy\n        /* \"#utility.yul\":2956:2957   */\n      0x00\n        /* \"#utility.yul\":2949:2953   */\n      0x20\n        /* \"#utility.yul\":2944:2946   */\n      dup6\n        /* \"#utility.yul\":2936:2942   */\n      dup4\n        /* \"#utility.yul\":2932:2947   */\n      add\n        /* \"#utility.yul\":2928:2954   */\n      add\n        /* \"#utility.yul\":2921:2958   */\n      mstore\n        /* \"#utility.yul\":2976:2982   */\n      dup1\n        /* \"#utility.yul\":2967:2982   */\n      swap5\n      pop\n      pop\n      pop\n      pop\n      pop\n        /* \"#utility.yul\":2270:2988   */\n      swap3\n      swap2\n      pop\n      pop\n      jump\t// out\n        /* \"#utility.yul\":2993:3387   */\n    tag_113:\n        /* \"#utility.yul\":3070:3076   */\n      0x00\n        /* \"#utility.yul\":3078:3084   */\n      dup1\n        /* \"#utility.yul\":3131:3133   */\n      0x40\n        /* \"#utility.yul\":3119:3128   */\n      dup4\n        /* \"#utility.yul\":3110:3117   */\n      dup6\n        /* \"#utility.yul\":3106:3129   */\n      sub\n        /* \"#utility.yul\":3102:3134   */\n      slt\n        /* \"#utility.yul\":3099:3151   */\n      iszero\n      tag_626\n      jumpi\n        /* \"#utility.yul\":3147:3148   */\n      0x00\n        /* \"#utility.yul\":3144:3145   */\n      dup1\n        /* \"#utility.yul\":3137:3149   */\n      revert\n        /* \"#utility.yul\":3099:3151   */\n    tag_626:\n        /* \"#utility.yul\":3170:3199   */\n      tag_627\n        /* \"#utility.yul\":3189:3198   */\n      dup4\n        /* \"#utility.yul\":3170:3199   */\n      tag_589\n      jump\t// in\n    tag_627:\n        /* \"#utility.yul\":3160:3199   */\n      swap2\n      pop\n        /* \"#utility.yul\":3250:3252   */\n      0x20\n        /* \"#utility.yul\":3239:3248   */\n      dup4\n        /* \"#utility.yul\":3235:3253   */\n      add\n        /* \"#utility.yul\":3222:3254   */\n      calldataload\n        /* \"#utility.yul\":3277:3295   */\n      0xffffffffffffffff\n        /* \"#utility.yul\":3269:3275   */\n      dup2\n        /* \"#utility.yul\":3266:3296   */\n      gt\n        /* \"#utility.yul\":3263:3313   */\n      iszero\n      tag_628\n      jumpi\n        /* \"#utility.yul\":3309:3310   */\n      0x00\n        /* \"#utility.yul\":3306:3307   */\n      dup1\n        /* \"#utility.yul\":3299:3311   */\n      revert\n        /* \"#utility.yul\":3263:3313   */\n    tag_628:\n        /* \"#utility.yul\":3332:3381   */\n      tag_629\n        /* \"#utility.yul\":3373:3380   */\n      dup6\n        /* \"#utility.yul\":3364:3370   */\n      dup3\n        /* \"#utility.yul\":3353:3362   */\n      dup7\n        /* \"#utility.yul\":3349:3371   */\n      add\n        /* \"#utility.yul\":3332:3381   */\n      tag_591\n      jump\t// in\n    tag_629:\n        /* \"#utility.yul\":3322:3381   */\n      swap2\n      pop\n      pop\n        /* \"#utility.yul\":2993:3387   */\n      swap3\n      pop\n      swap3\n      swap1\n      pop\n      jump\t// out\n        /* \"#utility.yul\":3392:4164   */\n    tag_126:\n        /* \"#utility.yul\":3523:3529   */\n      0x00\n        /* \"#utility.yul\":3531:3537   */\n      dup1\n        /* \"#utility.yul\":3539:3545   */\n      0x00\n        /* \"#utility.yul\":3547:3553   */\n      dup1\n        /* \"#utility.yul\":3555:3561   */\n      0x00\n        /* \"#utility.yul\":3563:3569   */\n      dup1\n        /* \"#utility.yul\":3571:3577   */\n      0x00\n        /* \"#utility.yul\":3579:3585   */\n      dup1\n        /* \"#utility.yul\":3587:3593   */\n      0x00\n        /* \"#utility.yul\":3640:3643   */\n      0x0120\n        /* \"#utility.yul\":3628:3637   */\n      dup11\n        /* \"#utility.yul\":3619:3626   */\n      dup13\n        /* \"#utility.yul\":3615:3638   */\n      sub\n        /* \"#utility.yul\":3611:3644   */\n      slt\n        /* \"#utility.yul\":3608:3661   */\n      iszero\n      tag_631\n      jumpi\n        /* \"#utility.yul\":3657:3658   */\n      0x00\n        /* \"#utility.yul\":3654:3655   */\n      dup1\n        /* \"#utility.yul\":3647:3659   */\n      revert\n        /* \"#utility.yul\":3608:3661   */\n    tag_631:\n        /* \"#utility.yul\":3680:3709   */\n      tag_632\n        /* \"#utility.yul\":3699:3708   */\n      dup11\n        /* \"#utility.yul\":3680:3709   */\n      tag_589\n      jump\t// in\n    tag_632:\n        /* \"#utility.yul\":3670:3709   */\n      swap9\n      pop\n        /* \"#utility.yul\":3756:3758   */\n      0x20\n        /* \"#utility.yul\":3745:3754   */\n      dup11\n        /* \"#utility.yul\":3741:3759   */\n      add\n        /* \"#utility.yul\":3728:3760   */\n      calldataload\n        /* \"#utility.yul\":3718:3760   */\n      swap8\n      pop\n        /* \"#utility.yul\":3807:3809   */\n      0x40\n        /* \"#utility.yul\":3796:3805   */\n      dup11\n        /* \"#utility.yul\":3792:3810   */\n      add\n        /* \"#utility.yul\":3779:3811   */\n      calldataload\n        /* \"#utility.yul\":3769:3811   */\n      swap7\n      pop\n        /* \"#utility.yul\":3830:3868   */\n      tag_633\n        /* \"#utility.yul\":3864:3866   */\n      0x60\n        /* \"#utility.yul\":3853:3862   */\n      dup12\n        /* \"#utility.yul\":3849:3867   */\n      add\n        /* \"#utility.yul\":3830:3868   */\n      tag_589\n      jump\t// in\n    tag_633:\n        /* \"#utility.yul\":3820:3868   */\n      swap6\n      pop\n        /* \"#utility.yul\":3887:3926   */\n      tag_634\n        /* \"#utility.yul\":3921:3924   */\n      0x80\n        /* \"#utility.yul\":3910:3919   */\n      dup12\n        /* \"#utility.yul\":3906:3925   */\n      add\n        /* \"#utility.yul\":3887:3926   */\n      tag_589\n      jump\t// in\n    tag_634:\n        /* \"#utility.yul\":3877:3926   */\n      swap5\n      pop\n        /* \"#utility.yul\":3945:3984   */\n      tag_635\n        /* \"#utility.yul\":3979:3982   */\n      0xa0\n        /* \"#utility.yul\":3968:3977   */\n      dup12\n        /* \"#utility.yul\":3964:3983   */\n      add\n        /* \"#utility.yul\":3945:3984   */\n      tag_589\n      jump\t// in\n    tag_635:\n        /* \"#utility.yul\":3935:3984   */\n      swap4\n      pop\n        /* \"#utility.yul\":4003:4042   */\n      tag_636\n        /* \"#utility.yul\":4037:4040   */\n      0xc0\n        /* \"#utility.yul\":4026:4035   */\n      dup12\n        /* \"#utility.yul\":4022:4041   */\n      add\n        /* \"#utility.yul\":4003:4042   */\n      tag_589\n      jump\t// in\n    tag_636:\n        /* \"#utility.yul\":3993:4042   */\n      swap3\n      pop\n        /* \"#utility.yul\":4061:4100   */\n      tag_637\n        /* \"#utility.yul\":4095:4098   */\n      0xe0\n        /* \"#utility.yul\":4084:4093   */\n      dup12\n        /* \"#utility.yul\":4080:4099   */\n      add\n        /* \"#utility.yul\":4061:4100   */\n      tag_589\n      jump\t// in\n    tag_637:\n        /* \"#utility.yul\":4051:4100   */\n      swap2\n      pop\n        /* \"#utility.yul\":4119:4158   */\n      tag_638\n        /* \"#utility.yul\":4153:4156   */\n      0x0100\n        /* \"#utility.yul\":4142:4151   */\n      dup12\n        /* \"#utility.yul\":4138:4157   */\n      add\n        /* \"#utility.yul\":4119:4158   */\n      tag_589\n      jump\t// in\n    tag_638:\n        /* \"#utility.yul\":4109:4158   */\n      swap1\n      pop\n        /* \"#utility.yul\":3392:4164   */\n      swap3\n      swap6\n      swap9\n      pop\n      swap3\n      swap6\n      swap9\n      pop\n      swap3\n      swap6\n      swap9\n      jump\t// out\n        /* \"#utility.yul\":4610:4898   */\n    tag_592:\n        /* \"#utility.yul\":4651:4654   */\n      0x00\n        /* \"#utility.yul\":4689:4694   */\n      dup2\n        /* \"#utility.yul\":4683:4695   */\n      mload\n        /* \"#utility.yul\":4716:4722   */\n      dup1\n        /* \"#utility.yul\":4711:4714   */\n      dup5\n        /* \"#utility.yul\":4704:4723   */\n      mstore\n        /* \"#utility.yul\":4772:4778   */\n      dup1\n        /* \"#utility.yul\":4765:4769   */\n      0x20\n        /* \"#utility.yul\":4758:4763   */\n      dup5\n        /* \"#utility.yul\":4754:4770   */\n      add\n        /* \"#utility.yul\":4747:4751   */\n      0x20\n        /* \"#utility.yul\":4742:4745   */\n      dup7\n        /* \"#utility.yul\":4738:4752   */\n      add\n        /* \"#utility.yul\":4732:4779   */\n      mcopy\n        /* \"#utility.yul\":4824:4825   */\n      0x00\n        /* \"#utility.yul\":4817:4821   */\n      0x20\n        /* \"#utility.yul\":4808:4814   */\n      dup3\n        /* \"#utility.yul\":4803:4806   */\n      dup7\n        /* \"#utility.yul\":4799:4815   */\n      add\n        /* \"#utility.yul\":4795:4822   */\n      add\n        /* \"#utility.yul\":4788:4826   */\n      mstore\n        /* \"#utility.yul\":4887:4891   */\n      0x20\n        /* \"#utility.yul\":4880:4882   */\n      0x1f\n        /* \"#utility.yul\":4876:4883   */\n      not\n        /* \"#utility.yul\":4871:4873   */\n      0x1f\n        /* \"#utility.yul\":4863:4869   */\n      dup4\n        /* \"#utility.yul\":4859:4874   */\n      add\n        /* \"#utility.yul\":4855:4884   */\n      and\n        /* \"#utility.yul\":4850:4853   */\n      dup6\n        /* \"#utility.yul\":4846:4885   */\n      add\n        /* \"#utility.yul\":4842:4892   */\n      add\n        /* \"#utility.yul\":4835:4892   */\n      swap2\n      pop\n      pop\n        /* \"#utility.yul\":4610:4898   */\n      swap3\n      swap2\n      pop\n      pop\n      jump\t// out\n        /* \"#utility.yul\":4903:5443   */\n    tag_172:\n        /* \"#utility.yul\":5185:5186   */\n      0x01\n        /* \"#utility.yul\":5181:5182   */\n      dup1\n        /* \"#utility.yul\":5176:5179   */\n      0xa0\n        /* \"#utility.yul\":5172:5183   */\n      shl\n        /* \"#utility.yul\":5168:5187   */\n      sub\n        /* \"#utility.yul\":5160:5166   */\n      dup7\n        /* \"#utility.yul\":5156:5188   */\n      and\n        /* \"#utility.yul\":5145:5154   */\n      dup2\n        /* \"#utility.yul\":5138:5189   */\n      mstore\n        /* \"#utility.yul\":5225:5231   */\n      dup5\n        /* \"#utility.yul\":5220:5222   */\n      0x20\n        /* \"#utility.yul\":5209:5218   */\n      dup3\n        /* \"#utility.yul\":5205:5223   */\n      add\n        /* \"#utility.yul\":5198:5232   */\n      mstore\n        /* \"#utility.yul\":5268:5271   */\n      0xa0\n        /* \"#utility.yul\":5263:5265   */\n      0x40\n        /* \"#utility.yul\":5252:5261   */\n      dup3\n        /* \"#utility.yul\":5248:5266   */\n      add\n        /* \"#utility.yul\":5241:5272   */\n      mstore\n        /* \"#utility.yul\":5119:5123   */\n      0x00\n        /* \"#utility.yul\":5289:5334   */\n      tag_645\n        /* \"#utility.yul\":5329:5332   */\n      0xa0\n        /* \"#utility.yul\":5318:5327   */\n      dup4\n        /* \"#utility.yul\":5314:5333   */\n      add\n        /* \"#utility.yul\":5306:5312   */\n      dup7\n        /* \"#utility.yul\":5289:5334   */\n      tag_592\n      jump\t// in\n    tag_645:\n        /* \"#utility.yul\":5377:5391   */\n      swap4\n      iszero\n        /* \"#utility.yul\":5370:5392   */\n      iszero\n        /* \"#utility.yul\":5365:5367   */\n      0x60\n        /* \"#utility.yul\":5350:5368   */\n      dup4\n      add\n        /* \"#utility.yul\":5343:5393   */\n      mstore\n      pop\n        /* \"#utility.yul\":5424:5427   */\n      0x80\n        /* \"#utility.yul\":5409:5428   */\n      add\n        /* \"#utility.yul\":5402:5437   */\n      mstore\n        /* \"#utility.yul\":5281:5334   */\n      swap4\n        /* \"#utility.yul\":4903:5443   */\n      swap3\n      pop\n      pop\n      pop\n      jump\t// out\n        /* \"#utility.yul\":5448:5667   */\n    tag_184:\n        /* \"#utility.yul\":5597:5599   */\n      0x20\n        /* \"#utility.yul\":5586:5595   */\n      dup2\n        /* \"#utility.yul\":5579:5600   */\n      mstore\n        /* \"#utility.yul\":5560:5564   */\n      0x00\n        /* \"#utility.yul\":5617:5661   */\n      tag_582\n        /* \"#utility.yul\":5657:5659   */\n      0x20\n        /* \"#utility.yul\":5646:5655   */\n      dup4\n        /* \"#utility.yul\":5642:5660   */\n      add\n        /* \"#utility.yul\":5634:5640   */\n      dup5\n        /* \"#utility.yul\":5617:5661   */\n      tag_592\n      jump\t// in\n        /* \"#utility.yul\":5672:6134   */\n    tag_200:\n        /* \"#utility.yul\":5758:5764   */\n      0x00\n        /* \"#utility.yul\":5766:5772   */\n      dup1\n        /* \"#utility.yul\":5774:5780   */\n      0x00\n        /* \"#utility.yul\":5827:5829   */\n      0x60\n        /* \"#utility.yul\":5815:5824   */\n      dup5\n        /* \"#utility.yul\":5806:5813   */\n      dup7\n        /* \"#utility.yul\":5802:5825   */\n      sub\n        /* \"#utility.yul\":5798:5830   */\n      slt\n        /* \"#utility.yul\":5795:5847   */\n      iszero\n      tag_649\n      jumpi\n        /* \"#utility.yul\":5843:5844   */\n      0x00\n        /* \"#utility.yul\":5840:5841   */\n      dup1\n        /* \"#utility.yul\":5833:5845   */\n      revert\n        /* \"#utility.yul\":5795:5847   */\n    tag_649:\n        /* \"#utility.yul\":5866:5895   */\n      tag_650\n        /* \"#utility.yul\":5885:5894   */\n      dup5\n        /* \"#utility.yul\":5866:5895   */\n      tag_589\n      jump\t// in\n    tag_650:\n        /* \"#utility.yul\":5856:5895   */\n      swap3\n      pop\n        /* \"#utility.yul\":5942:5944   */\n      0x20\n        /* \"#utility.yul\":5931:5940   */\n      dup5\n        /* \"#utility.yul\":5927:5945   */\n      add\n        /* \"#utility.yul\":5914:5946   */\n      calldataload\n        /* \"#utility.yul\":5904:5946   */\n      swap2\n      pop\n        /* \"#utility.yul\":5997:5999   */\n      0x40\n        /* \"#utility.yul\":5986:5995   */\n      dup5\n        /* \"#utility.yul\":5982:6000   */\n      add\n        /* \"#utility.yul\":5969:6001   */\n      calldataload\n        /* \"#utility.yul\":6024:6042   */\n      0xffffffffffffffff\n        /* \"#utility.yul\":6016:6022   */\n      dup2\n        /* \"#utility.yul\":6013:6043   */\n      gt\n        /* \"#utility.yul\":6010:6060   */\n      iszero\n      tag_651\n      jumpi\n        /* \"#utility.yul\":6056:6057   */\n      0x00\n        /* \"#utility.yul\":6053:6054   */\n      dup1\n        /* \"#utility.yul\":6046:6058   */\n      revert\n        /* \"#utility.yul\":6010:6060   */\n    tag_651:\n        /* \"#utility.yul\":6079:6128   */\n      tag_652\n        /* \"#utility.yul\":6120:6127   */\n      dup7\n        /* \"#utility.yul\":6111:6117   */\n      dup3\n        /* \"#utility.yul\":6100:6109   */\n      dup8\n        /* \"#utility.yul\":6096:6118   */\n      add\n        /* \"#utility.yul\":6079:6128   */\n      tag_591\n      jump\t// in\n    tag_652:\n        /* \"#utility.yul\":6069:6128   */\n      swap2\n      pop\n      pop\n        /* \"#utility.yul\":5672:6134   */\n      swap3\n      pop\n      swap3\n      pop\n      swap3\n      jump\t// out\n        /* \"#utility.yul\":6139:6475   */\n    tag_238:\n        /* \"#utility.yul\":6341:6343   */\n      0x20\n        /* \"#utility.yul\":6323:6344   */\n      dup1\n      dup3\n      mstore\n        /* \"#utility.yul\":6380:6382   */\n      0x0c\n        /* \"#utility.yul\":6360:6378   */\n      swap1\n      dup3\n      add\n        /* \"#utility.yul\":6353:6383   */\n      mstore\n      shl(0xa1, 0x2737ba1030b71030b236b4b7)\n        /* \"#utility.yul\":6414:6416   */\n      0x40\n        /* \"#utility.yul\":6399:6417   */\n      dup3\n      add\n        /* \"#utility.yul\":6392:6434   */\n      mstore\n        /* \"#utility.yul\":6466:6468   */\n      0x60\n        /* \"#utility.yul\":6451:6469   */\n      add\n      swap1\n        /* \"#utility.yul\":6139:6475   */\n      jump\t// out\n        /* \"#utility.yul\":6480:6830   */\n    tag_242:\n        /* \"#utility.yul\":6682:6684   */\n      0x20\n        /* \"#utility.yul\":6664:6685   */\n      dup1\n      dup3\n      mstore\n        /* \"#utility.yul\":6721:6723   */\n      0x1a\n        /* \"#utility.yul\":6701:6719   */\n      swap1\n      dup3\n      add\n        /* \"#utility.yul\":6694:6724   */\n      mstore\n        /* \"#utility.yul\":6760:6788   */\n      0x5472616e73616374696f6e20646f6573206e6f74206578697374000000000000\n        /* \"#utility.yul\":6755:6757   */\n      0x40\n        /* \"#utility.yul\":6740:6758   */\n      dup3\n      add\n        /* \"#utility.yul\":6733:6789   */\n      mstore\n        /* \"#utility.yul\":6821:6823   */\n      0x60\n        /* \"#utility.yul\":6806:6824   */\n      add\n      swap1\n        /* \"#utility.yul\":6480:6830   */\n      jump\t// out\n        /* \"#utility.yul\":6835:6962   */\n    tag_246:\n        /* \"#utility.yul\":6896:6906   */\n      0x4e487b71\n        /* \"#utility.yul\":6891:6894   */\n      0xe0\n        /* \"#utility.yul\":6887:6907   */\n      shl\n        /* \"#utility.yul\":6884:6885   */\n      0x00\n        /* \"#utility.yul\":6877:6908   */\n      mstore\n        /* \"#utility.yul\":6927:6931   */\n      0x32\n        /* \"#utility.yul\":6924:6925   */\n      0x04\n        /* \"#utility.yul\":6917:6932   */\n      mstore\n        /* \"#utility.yul\":6951:6955   */\n      0x24\n        /* \"#utility.yul\":6948:6949   */\n      0x00\n        /* \"#utility.yul\":6941:6956   */\n      revert\n        /* \"#utility.yul\":6967:7319   */\n    tag_250:\n        /* \"#utility.yul\":7169:7171   */\n      0x20\n        /* \"#utility.yul\":7151:7172   */\n      dup1\n      dup3\n      mstore\n        /* \"#utility.yul\":7208:7210   */\n      0x1c\n        /* \"#utility.yul\":7188:7206   */\n      swap1\n      dup3\n      add\n        /* \"#utility.yul\":7181:7211   */\n      mstore\n        /* \"#utility.yul\":7247:7277   */\n      0x5472616e73616374696f6e20616c726561647920657865637574656400000000\n        /* \"#utility.yul\":7242:7244   */\n      0x40\n        /* \"#utility.yul\":7227:7245   */\n      dup3\n      add\n        /* \"#utility.yul\":7220:7278   */\n      mstore\n        /* \"#utility.yul\":7310:7312   */\n      0x60\n        /* \"#utility.yul\":7295:7313   */\n      add\n      swap1\n        /* \"#utility.yul\":6967:7319   */\n      jump\t// out\n        /* \"#utility.yul\":7678:7805   */\n    tag_593:\n        /* \"#utility.yul\":7739:7749   */\n      0x4e487b71\n        /* \"#utility.yul\":7734:7737   */\n      0xe0\n        /* \"#utility.yul\":7730:7750   */\n      shl\n        /* \"#utility.yul\":7727:7728   */\n      0x00\n        /* \"#utility.yul\":7720:7751   */\n      mstore\n        /* \"#utility.yul\":7770:7774   */\n      0x11\n        /* \"#utility.yul\":7767:7768   */\n      0x04\n        /* \"#utility.yul\":7760:7775   */\n      mstore\n        /* \"#utility.yul\":7794:7798   */\n      0x24\n        /* \"#utility.yul\":7791:7792   */\n      0x00\n        /* \"#utility.yul\":7784:7799   */\n      revert\n        /* \"#utility.yul\":7810:7938   */\n    tag_259:\n        /* \"#utility.yul\":7877:7886   */\n      dup2\n      dup2\n      sub\n        /* \"#utility.yul\":7898:7909   */\n      dup2\n      dup2\n      gt\n        /* \"#utility.yul\":7895:7932   */\n      iszero\n      tag_232\n      jumpi\n        /* \"#utility.yul\":7912:7930   */\n      tag_232\n      tag_593\n      jump\t// in\n        /* \"#utility.yul\":8537:8814   */\n    tag_330:\n        /* \"#utility.yul\":8604:8610   */\n      0x00\n        /* \"#utility.yul\":8657:8659   */\n      0x20\n        /* \"#utility.yul\":8645:8654   */\n      dup3\n        /* \"#utility.yul\":8636:8643   */\n      dup5\n        /* \"#utility.yul\":8632:8655   */\n      sub\n        /* \"#utility.yul\":8628:8660   */\n      slt\n        /* \"#utility.yul\":8625:8677   */\n      iszero\n      tag_665\n      jumpi\n        /* \"#utility.yul\":8673:8674   */\n      0x00\n        /* \"#utility.yul\":8670:8671   */\n      dup1\n        /* \"#utility.yul\":8663:8675   */\n      revert\n        /* \"#utility.yul\":8625:8677   */\n    tag_665:\n        /* \"#utility.yul\":8705:8714   */\n      dup2\n        /* \"#utility.yul\":8699:8715   */\n      mload\n        /* \"#utility.yul\":8758:8763   */\n      dup1\n        /* \"#utility.yul\":8751:8764   */\n      iszero\n        /* \"#utility.yul\":8744:8765   */\n      iszero\n        /* \"#utility.yul\":8737:8742   */\n      dup2\n        /* \"#utility.yul\":8734:8766   */\n      eq\n        /* \"#utility.yul\":8724:8784   */\n      tag_582\n      jumpi\n        /* \"#utility.yul\":8780:8781   */\n      0x00\n        /* \"#utility.yul\":8777:8778   */\n      dup1\n        /* \"#utility.yul\":8770:8782   */\n      revert\n        /* \"#utility.yul\":9169:9549   */\n    tag_355:\n        /* \"#utility.yul\":9248:9249   */\n      0x01\n        /* \"#utility.yul\":9244:9256   */\n      dup2\n      dup2\n      shr\n      swap1\n        /* \"#utility.yul\":9291:9303   */\n      dup3\n      and\n      dup1\n        /* \"#utility.yul\":9312:9373   */\n      tag_669\n      jumpi\n        /* \"#utility.yul\":9366:9370   */\n      0x7f\n        /* \"#utility.yul\":9358:9364   */\n      dup3\n        /* \"#utility.yul\":9354:9371   */\n      and\n        /* \"#utility.yul\":9344:9371   */\n      swap2\n      pop\n        /* \"#utility.yul\":9312:9373   */\n    tag_669:\n        /* \"#utility.yul\":9419:9421   */\n      0x20\n        /* \"#utility.yul\":9411:9417   */\n      dup3\n        /* \"#utility.yul\":9408:9422   */\n      lt\n        /* \"#utility.yul\":9388:9406   */\n      dup2\n        /* \"#utility.yul\":9385:9423   */\n      sub\n        /* \"#utility.yul\":9382:9543   */\n      tag_670\n      jumpi\n        /* \"#utility.yul\":9465:9475   */\n      0x4e487b71\n        /* \"#utility.yul\":9460:9463   */\n      0xe0\n        /* \"#utility.yul\":9456:9476   */\n      shl\n        /* \"#utility.yul\":9453:9454   */\n      0x00\n        /* \"#utility.yul\":9446:9477   */\n      mstore\n        /* \"#utility.yul\":9500:9504   */\n      0x22\n        /* \"#utility.yul\":9497:9498   */\n      0x04\n        /* \"#utility.yul\":9490:9505   */\n      mstore\n        /* \"#utility.yul\":9528:9532   */\n      0x24\n        /* \"#utility.yul\":9525:9526   */\n      0x00\n        /* \"#utility.yul\":9518:9533   */\n      revert\n        /* \"#utility.yul\":9382:9543   */\n    tag_670:\n      pop\n        /* \"#utility.yul\":9169:9549   */\n      swap2\n      swap1\n      pop\n      jump\t// out\n        /* \"#utility.yul\":9899:10067   */\n    tag_368:\n        /* \"#utility.yul\":9972:9981   */\n      dup1\n      dup3\n      mul\n        /* \"#utility.yul\":10003:10012   */\n      dup2\n      iszero\n        /* \"#utility.yul\":10020:10035   */\n      dup3\n      dup3\n      div\n        /* \"#utility.yul\":10014:10036   */\n      dup5\n      eq\n        /* \"#utility.yul\":10000:10037   */\n      or\n        /* \"#utility.yul\":9990:10061   */\n      tag_232\n      jumpi\n        /* \"#utility.yul\":10041:10059   */\n      tag_232\n      tag_593\n      jump\t// in\n        /* \"#utility.yul\":10072:10289   */\n    tag_371:\n        /* \"#utility.yul\":10112:10113   */\n      0x00\n        /* \"#utility.yul\":10138:10139   */\n      dup3\n        /* \"#utility.yul\":10128:10260   */\n      tag_676\n      jumpi\n        /* \"#utility.yul\":10182:10192   */\n      0x4e487b71\n        /* \"#utility.yul\":10177:10180   */\n      0xe0\n        /* \"#utility.yul\":10173:10193   */\n      shl\n        /* \"#utility.yul\":10170:10171   */\n      0x00\n        /* \"#utility.yul\":10163:10194   */\n      mstore\n        /* \"#utility.yul\":10217:10221   */\n      0x12\n        /* \"#utility.yul\":10214:10215   */\n      0x04\n        /* \"#utility.yul\":10207:10222   */\n      mstore\n        /* \"#utility.yul\":10245:10249   */\n      0x24\n        /* \"#utility.yul\":10242:10243   */\n      0x00\n        /* \"#utility.yul\":10235:10250   */\n      revert\n        /* \"#utility.yul\":10128:10260   */\n    tag_676:\n      pop\n        /* \"#utility.yul\":10274:10283   */\n      div\n      swap1\n        /* \"#utility.yul\":10072:10289   */\n      jump\t// out\n        /* \"#utility.yul\":10294:10419   */\n    tag_373:\n        /* \"#utility.yul\":10359:10368   */\n      dup1\n      dup3\n      add\n        /* \"#utility.yul\":10380:10390   */\n      dup1\n      dup3\n      gt\n        /* \"#utility.yul\":10377:10413   */\n      iszero\n      tag_232\n      jumpi\n        /* \"#utility.yul\":10393:10411   */\n      tag_232\n      tag_593\n      jump\t// in\n        /* \"#utility.yul\":11186:11703   */\n    tag_595:\n        /* \"#utility.yul\":11287:11289   */\n      0x1f\n        /* \"#utility.yul\":11282:11285   */\n      dup3\n        /* \"#utility.yul\":11279:11290   */\n      gt\n        /* \"#utility.yul\":11276:11697   */\n      iszero\n      tag_274\n      jumpi\n        /* \"#utility.yul\":11323:11328   */\n      dup1\n        /* \"#utility.yul\":11320:11321   */\n      0x00\n        /* \"#utility.yul\":11313:11329   */\n      mstore\n        /* \"#utility.yul\":11367:11371   */\n      0x20\n        /* \"#utility.yul\":11364:11365   */\n      0x00\n        /* \"#utility.yul\":11354:11372   */\n      keccak256\n        /* \"#utility.yul\":11437:11439   */\n      0x1f\n        /* \"#utility.yul\":11425:11435   */\n      dup5\n        /* \"#utility.yul\":11421:11440   */\n      add\n        /* \"#utility.yul\":11418:11419   */\n      0x05\n        /* \"#utility.yul\":11414:11441   */\n      shr\n        /* \"#utility.yul\":11408:11412   */\n      dup2\n        /* \"#utility.yul\":11404:11442   */\n      add\n        /* \"#utility.yul\":11473:11477   */\n      0x20\n        /* \"#utility.yul\":11461:11471   */\n      dup6\n        /* \"#utility.yul\":11458:11478   */\n      lt\n        /* \"#utility.yul\":11455:11502   */\n      iszero\n      tag_685\n      jumpi\n      pop\n        /* \"#utility.yul\":11496:11500   */\n      dup1\n        /* \"#utility.yul\":11455:11502   */\n    tag_685:\n        /* \"#utility.yul\":11551:11553   */\n      0x1f\n        /* \"#utility.yul\":11546:11549   */\n      dup5\n        /* \"#utility.yul\":11542:11554   */\n      add\n        /* \"#utility.yul\":11539:11540   */\n      0x05\n        /* \"#utility.yul\":11535:11555   */\n      shr\n        /* \"#utility.yul\":11529:11533   */\n      dup3\n        /* \"#utility.yul\":11525:11556   */\n      add\n        /* \"#utility.yul\":11515:11556   */\n      swap2\n      pop\n        /* \"#utility.yul\":11606:11687   */\n    tag_686:\n        /* \"#utility.yul\":11624:11626   */\n      dup2\n        /* \"#utility.yul\":11617:11622   */\n      dup2\n        /* \"#utility.yul\":11614:11627   */\n      lt\n        /* \"#utility.yul\":11606:11687   */\n      iszero\n      tag_688\n      jumpi\n        /* \"#utility.yul\":11683:11684   */\n      0x00\n        /* \"#utility.yul\":11669:11685   */\n      dup2\n      sstore\n        /* \"#utility.yul\":11650:11651   */\n      0x01\n        /* \"#utility.yul\":11639:11652   */\n      add\n        /* \"#utility.yul\":11606:11687   */\n      jump(tag_686)\n    tag_688:\n        /* \"#utility.yul\":11610:11613   */\n      pop\n      pop\n        /* \"#utility.yul\":11186:11703   */\n      pop\n      pop\n      pop\n      jump\t// out\n        /* \"#utility.yul\":11879:13220   */\n    tag_416:\n        /* \"#utility.yul\":12003:12006   */\n      dup2\n        /* \"#utility.yul\":11997:12007   */\n      mload\n        /* \"#utility.yul\":12030:12048   */\n      0xffffffffffffffff\n        /* \"#utility.yul\":12022:12028   */\n      dup2\n        /* \"#utility.yul\":12019:12049   */\n      gt\n        /* \"#utility.yul\":12016:12072   */\n      iszero\n      tag_692\n      jumpi\n        /* \"#utility.yul\":12052:12070   */\n      tag_692\n      tag_590\n      jump\t// in\n    tag_692:\n        /* \"#utility.yul\":12081:12177   */\n      tag_693\n        /* \"#utility.yul\":12170:12176   */\n      dup2\n        /* \"#utility.yul\":12130:12168   */\n      tag_694\n        /* \"#utility.yul\":12162:12166   */\n      dup5\n        /* \"#utility.yul\":12156:12167   */\n      sload\n        /* \"#utility.yul\":12130:12168   */\n      tag_355\n      jump\t// in\n    tag_694:\n        /* \"#utility.yul\":12124:12128   */\n      dup5\n        /* \"#utility.yul\":12081:12177   */\n      tag_595\n      jump\t// in\n    tag_693:\n        /* \"#utility.yul\":12232:12236   */\n      0x20\n      dup1\n        /* \"#utility.yul\":12289:12291   */\n      0x1f\n        /* \"#utility.yul\":12278:12292   */\n      dup4\n      gt\n        /* \"#utility.yul\":12306:12307   */\n      0x01\n        /* \"#utility.yul\":12301:12963   */\n      dup2\n      eq\n      tag_696\n      jumpi\n        /* \"#utility.yul\":13007:13008   */\n      0x00\n        /* \"#utility.yul\":13024:13030   */\n      dup5\n        /* \"#utility.yul\":13021:13110   */\n      iszero\n      tag_697\n      jumpi\n      pop\n        /* \"#utility.yul\":13076:13095   */\n      dup6\n      dup4\n      add\n        /* \"#utility.yul\":13070:13096   */\n      mload\n        /* \"#utility.yul\":13021:13110   */\n    tag_697:\n      not(0x00)\n        /* \"#utility.yul\":11836:11837   */\n      0x03\n        /* \"#utility.yul\":11832:11843   */\n      dup7\n      swap1\n      shl\n        /* \"#utility.yul\":11828:11852   */\n      shr\n        /* \"#utility.yul\":11824:11853   */\n      not\n        /* \"#utility.yul\":11814:11854   */\n      and\n        /* \"#utility.yul\":11860:11861   */\n      0x01\n        /* \"#utility.yul\":11856:11867   */\n      dup6\n      swap1\n      shl\n        /* \"#utility.yul\":11811:11868   */\n      or\n        /* \"#utility.yul\":13123:13204   */\n      dup6\n      sstore\n        /* \"#utility.yul\":12271:13214   */\n      jump(tag_695)\n        /* \"#utility.yul\":12301:12963   */\n    tag_696:\n        /* \"#utility.yul\":11133:11134   */\n      0x00\n        /* \"#utility.yul\":11126:11140   */\n      dup6\n      dup2\n      mstore\n        /* \"#utility.yul\":11170:11174   */\n      0x20\n        /* \"#utility.yul\":11157:11175   */\n      dup2\n      keccak256\n      not(0x1f)\n        /* \"#utility.yul\":12337:12357   */\n      dup7\n      and\n      swap2\n        /* \"#utility.yul\":12454:12690   */\n    tag_700:\n        /* \"#utility.yul\":12468:12475   */\n      dup3\n        /* \"#utility.yul\":12465:12466   */\n      dup2\n        /* \"#utility.yul\":12462:12476   */\n      lt\n        /* \"#utility.yul\":12454:12690   */\n      iszero\n      tag_702\n      jumpi\n        /* \"#utility.yul\":12557:12576   */\n      dup9\n      dup7\n      add\n        /* \"#utility.yul\":12551:12577   */\n      mload\n        /* \"#utility.yul\":12536:12578   */\n      dup3\n      sstore\n        /* \"#utility.yul\":12649:12676   */\n      swap5\n      dup5\n      add\n      swap5\n        /* \"#utility.yul\":12617:12618   */\n      0x01\n        /* \"#utility.yul\":12605:12619   */\n      swap1\n      swap2\n      add\n      swap1\n        /* \"#utility.yul\":12484:12503   */\n      dup5\n      add\n        /* \"#utility.yul\":12454:12690   */\n      jump(tag_700)\n    tag_702:\n        /* \"#utility.yul\":12458:12461   */\n      pop\n        /* \"#utility.yul\":12718:12724   */\n      dup6\n        /* \"#utility.yul\":12709:12716   */\n      dup3\n        /* \"#utility.yul\":12706:12725   */\n      lt\n        /* \"#utility.yul\":12703:12904   */\n      iszero\n      tag_703\n      jumpi\n        /* \"#utility.yul\":12779:12798   */\n      dup8\n      dup6\n      add\n        /* \"#utility.yul\":12773:12799   */\n      mload\n      not(0x00)\n        /* \"#utility.yul\":12862:12863   */\n      0x03\n        /* \"#utility.yul\":12858:12872   */\n      dup9\n      swap1\n      shl\n        /* \"#utility.yul\":12874:12877   */\n      0xf8\n        /* \"#utility.yul\":12854:12878   */\n      and\n        /* \"#utility.yul\":12850:12887   */\n      shr\n        /* \"#utility.yul\":12846:12888   */\n      not\n        /* \"#utility.yul\":12831:12889   */\n      and\n        /* \"#utility.yul\":12816:12890   */\n      dup2\n      sstore\n        /* \"#utility.yul\":12703:12904   */\n    tag_703:\n      pop\n      pop\n        /* \"#utility.yul\":12950:12951   */\n      0x01\n        /* \"#utility.yul\":12941:12947   */\n      dup5\n        /* \"#utility.yul\":12938:12939   */\n      0x01\n        /* \"#utility.yul\":12934:12948   */\n      shl\n        /* \"#utility.yul\":12930:12952   */\n      add\n        /* \"#utility.yul\":12924:12928   */\n      dup6\n        /* \"#utility.yul\":12917:12953   */\n      sstore\n        /* \"#utility.yul\":12271:13214   */\n    tag_695:\n      pop\n      pop\n      pop\n      pop\n        /* \"#utility.yul\":11879:13220   */\n      pop\n      pop\n      jump\t// out\n        /* \"#utility.yul\":13571:14412   */\n    tag_448:\n        /* \"#utility.yul\":13697:13700   */\n      0x00\n        /* \"#utility.yul\":13726:13727   */\n      dup1\n        /* \"#utility.yul\":13759:13765   */\n      dup4\n        /* \"#utility.yul\":13753:13766   */\n      sload\n        /* \"#utility.yul\":13789:13825   */\n      tag_706\n        /* \"#utility.yul\":13815:13824   */\n      dup2\n        /* \"#utility.yul\":13789:13825   */\n      tag_355\n      jump\t// in\n    tag_706:\n        /* \"#utility.yul\":13844:13845   */\n      0x01\n        /* \"#utility.yul\":13861:13878   */\n      dup3\n      dup2\n      and\n        /* \"#utility.yul\":13887:14020   */\n      dup1\n      iszero\n      tag_708\n      jumpi\n        /* \"#utility.yul\":14034:14035   */\n      0x01\n        /* \"#utility.yul\":14029:14387   */\n      dup2\n      eq\n      tag_709\n      jumpi\n        /* \"#utility.yul\":13854:14387   */\n      jump(tag_707)\n        /* \"#utility.yul\":13887:14020   */\n    tag_708:\n      not(0xff)\n        /* \"#utility.yul\":13920:13944   */\n      dup5\n      and\n        /* \"#utility.yul\":13908:13945   */\n      dup8\n      mstore\n        /* \"#utility.yul\":13993:14007   */\n      dup3\n      iszero\n        /* \"#utility.yul\":13986:14008   */\n      iszero\n        /* \"#utility.yul\":13974:14009   */\n      dup4\n      mul\n        /* \"#utility.yul\":13965:14010   */\n      dup8\n      add\n      swap5\n      pop\n        /* \"#utility.yul\":13887:14020   */\n      jump(tag_707)\n        /* \"#utility.yul\":14029:14387   */\n    tag_709:\n        /* \"#utility.yul\":14060:14066   */\n      dup8\n        /* \"#utility.yul\":14057:14058   */\n      0x00\n        /* \"#utility.yul\":14050:14067   */\n      mstore\n        /* \"#utility.yul\":14090:14094   */\n      0x20\n        /* \"#utility.yul\":14135:14139   */\n      dup1\n        /* \"#utility.yul\":14132:14133   */\n      0x00\n        /* \"#utility.yul\":14122:14140   */\n      keccak256\n        /* \"#utility.yul\":14162:14163   */\n      0x00\n        /* \"#utility.yul\":14176:14341   */\n    tag_710:\n        /* \"#utility.yul\":14190:14196   */\n      dup6\n        /* \"#utility.yul\":14187:14188   */\n      dup2\n        /* \"#utility.yul\":14184:14197   */\n      lt\n        /* \"#utility.yul\":14176:14341   */\n      iszero\n      tag_712\n      jumpi\n        /* \"#utility.yul\":14268:14282   */\n      dup2\n      sload\n        /* \"#utility.yul\":14255:14266   */\n      dup11\n      dup3\n      add\n        /* \"#utility.yul\":14248:14283   */\n      mstore\n        /* \"#utility.yul\":14311:14327   */\n      swap1\n      dup5\n      add\n      swap1\n        /* \"#utility.yul\":14205:14215   */\n      dup3\n      add\n        /* \"#utility.yul\":14176:14341   */\n      jump(tag_710)\n    tag_712:\n        /* \"#utility.yul\":14180:14183   */\n      pop\n      pop\n      pop\n        /* \"#utility.yul\":14370:14376   */\n      dup3\n        /* \"#utility.yul\":14365:14368   */\n      dup8\n        /* \"#utility.yul\":14361:14377   */\n      add\n        /* \"#utility.yul\":14354:14377   */\n      swap5\n      pop\n        /* \"#utility.yul\":13854:14387   */\n    tag_707:\n      pop\n        /* \"#utility.yul\":14403:14406   */\n      swap3\n      swap7\n        /* \"#utility.yul\":13571:14412   */\n      swap6\n      pop\n      pop\n      pop\n      pop\n      pop\n      pop\n      jump\t// out\n        /* \"#utility.yul\":14764:14948   */\n    tag_496:\n        /* \"#utility.yul\":14834:14840   */\n      0x00\n        /* \"#utility.yul\":14887:14889   */\n      0x20\n        /* \"#utility.yul\":14875:14884   */\n      dup3\n        /* \"#utility.yul\":14866:14873   */\n      dup5\n        /* \"#utility.yul\":14862:14885   */\n      sub\n        /* \"#utility.yul\":14858:14890   */\n      slt\n        /* \"#utility.yul\":14855:14907   */\n      iszero\n      tag_715\n      jumpi\n        /* \"#utility.yul\":14903:14904   */\n      0x00\n        /* \"#utility.yul\":14900:14901   */\n      dup1\n        /* \"#utility.yul\":14893:14905   */\n      revert\n        /* \"#utility.yul\":14855:14907   */\n    tag_715:\n      pop\n        /* \"#utility.yul\":14926:14942   */\n      mload\n      swap2\n        /* \"#utility.yul\":14764:14948   */\n      swap1\n      pop\n      jump\t// out\n        /* \"#utility.yul\":15926:16227   */\n    tag_568:\n        /* \"#utility.yul\":16055:16058   */\n      0x00\n        /* \"#utility.yul\":16093:16099   */\n      dup3\n        /* \"#utility.yul\":16087:16100   */\n      mload\n        /* \"#utility.yul\":16139:16145   */\n      dup1\n        /* \"#utility.yul\":16132:16136   */\n      0x20\n        /* \"#utility.yul\":16124:16130   */\n      dup6\n        /* \"#utility.yul\":16120:16137   */\n      add\n        /* \"#utility.yul\":16115:16118   */\n      dup5\n        /* \"#utility.yul\":16109:16146   */\n      mcopy\n        /* \"#utility.yul\":16201:16202   */\n      0x00\n        /* \"#utility.yul\":16165:16181   */\n      swap3\n      add\n        /* \"#utility.yul\":16190:16203   */\n      swap2\n      dup3\n      mstore\n      pop\n        /* \"#utility.yul\":16165:16181   */\n      swap2\n        /* \"#utility.yul\":15926:16227   */\n      swap1\n      pop\n      jump\t// out\n    stop\n    data_75b20eef8615de99c108b05f0dbda081c91897128caa336d75dffb97c4132b4d 360894a13ba1a3210667c828492db98dca3e2076cc3735a920a3ca505d382bbc\n    data_9b87106a812d214d41ad9b68a21119e2948eaaf1040375c939ec808b8862455c 65d7a28e3265b37a6474929f336521b332c1681b933f6cb9f3376673440d862a\n    data_b3da67d1b252aeab7c8063542d95e75f82a5307a82535949bc38f7cf7ba8897f 02dd7bc7dec4dceedda775e58dd541e08a116c6c53815c0bd028192f7b626800\n    data_cb864c43dd5d441bb6271f424f11befa622c032dfd374d226e26fbbdb782b8f8 a49807205ce4d355092ef5a8a18f56e8913cf4a201fbe287825b095693c21775\n\n    auxdata: 0xa2646970667358221220a4cfbb32862d2b8babaa1b0f8524b364e15a749dde9724685f56eb1095fe3a1d64736f6c63430008190033\n}\n",
				"bytecode": {
					"linkReferences": {},
					"object": "60a060405230608052348015610013575f80fd5b5061001c610021565b6100d3565b7ff0c57e16840df040f15088dc2f81fe391c3923bec73e23a9662efc9c229c6a00805468010000000000000000900460ff16156100715760405163f92ee8a960e01b815260040160405180910390fd5b80546001600160401b03908116146100d05780546001600160401b0319166001600160401b0390811782556040519081527fc7f505b2f371ae2175ee4913f4499e1f2633a7b5936321eed1cdaeb6115181d29060200160405180910390a15b50565b6080516124a16100f95f395f81816118dc015281816119050152611a6801526124a15ff3fe608060405260043610610236575f3560e01c80638456cb5911610129578063c01a8c84116100a8578063d836fc6f1161006d578063d836fc6f146106cc578063e63ab1e9146106eb578063ee22610b1461070b578063f4e0d9ac1461072a578063f72c0d8b14610749575f80fd5b8063c01a8c841461063b578063c63a6ad21461065a578063c64274741461066f578063d547741f1461068e578063d7b4be24146106ad575f80fd5b80639ace38c2116100ee5780639ace38c214610588578063a217fddf146105b8578063a5ce413b146105cb578063ad3cb1cc146105df578063b001f6181461061c575f80fd5b80638456cb59146104f85780638a2ade581461050c57806391d148541461052b578063965afa891461054a5780639a03d9a314610569575f80fd5b80633f4ba83a116101b5578063634474711161017a578063634474711461044c5780637547c7a31461046b57806375b238fc1461048a57806380f59a65146104aa57806382e717f7146104e3575f80fd5b80633f4ba83a146103dc57806341bec0d2146103f05780634f1ef2861461040f57806352d1902d146104225780635c975abb14610436575f80fd5b80632352a864116101fb5780632352a86414610333578063248a9ca314610352578063276184ae1461037f5780632f2ff15d1461039e57806336568abe146103bd575f80fd5b806301ffc9a714610241578063051420021461027557806316934fc4146102ac57806320ea8d86146102f35780632131c68c14610314575f80fd5b3661023d57005b5f80fd5b34801561024c575f80fd5b5061026061025b366004611ded565b61077c565b60405190151581526020015b60405180910390f35b348015610280575f80fd5b50603454610294906001600160a01b031681565b6040516001600160a01b03909116815260200161026c565b3480156102b7575f80fd5b506102de6102c6366004611e2f565b603b6020525f90815260409020805460019091015482565b6040805192835260208301919091520161026c565b3480156102fe575f80fd5b5061031261030d366004611e48565b6107b2565b005b34801561031f575f80fd5b50603554610294906001600160a01b031681565b34801561033e575f80fd5b50603354610294906001600160a01b031681565b34801561035d575f80fd5b5061037161036c366004611e48565b610949565b60405190815260200161026c565b34801561038a575f80fd5b50603254610294906001600160a01b031681565b3480156103a9575f80fd5b506103126103b8366004611e5f565b610969565b3480156103c8575f80fd5b506103126103d7366004611e5f565b61098b565b3480156103e7575f80fd5b506103126109c3565b3480156103fb575f80fd5b5061031261040a366004611e2f565b6109e5565b61031261041d366004611f26565b610a3a565b34801561042d575f80fd5b50610371610a59565b348015610441575f80fd5b505f5460ff16610260565b348015610457575f80fd5b50610312610466366004611f71565b610a74565b348015610476575f80fd5b50610312610485366004611e48565b610c6b565b348015610495575f80fd5b506103715f8051602061244c83398151915281565b3480156104b5575f80fd5b506102606104c4366004611e5f565b603860209081525f928352604080842090915290825290205460ff1681565b3480156104ee575f80fd5b50610371603a5481565b348015610503575f80fd5b50610312610d9e565b348015610517575f80fd5b50603754610294906001600160a01b031681565b348015610536575f80fd5b50610260610545366004611e5f565b610dbd565b348015610555575f80fd5b50610312610564366004611e2f565b610df3565b348015610574575f80fd5b50610312610583366004611e2f565b610e48565b348015610593575f80fd5b506105a76105a2366004611e48565b610e9d565b60405161026c959493929190612033565b3480156105c3575f80fd5b506103715f81565b3480156105d6575f80fd5b50610312610f72565b3480156105ea575f80fd5b5061060f604051806040016040528060058152602001640352e302e360dc1b81525081565b60405161026c919061206d565b348015610627575f80fd5b50610312610636366004611e2f565b611154565b348015610646575f80fd5b50610312610655366004611e48565b6111a9565b348015610665575f80fd5b50610371603c5481565b34801561067a575f80fd5b5061031261068936600461207f565b61133d565b348015610699575f80fd5b506103126106a8366004611e5f565b6114a1565b3480156106b8575f80fd5b50603654610294906001600160a01b031681565b3480156106d7575f80fd5b506103126106e6366004611e2f565b6114bd565b3480156106f6575f80fd5b506103715f8051602061240c83398151915281565b348015610716575f80fd5b50610312610725366004611e48565b611512565b348015610735575f80fd5b50610312610744366004611e2f565b611707565b348015610754575f80fd5b506103717f189ab7a9244df0848122154315af71fe140f3db0fe014031783b0946b8c9d2e381565b5f6001600160e01b03198216637965db0b60e01b14806107ac57506301ffc9a760e01b6001600160e01b03198316145b92915050565b6107c95f8051602061244c83398151915233610dbd565b6107ee5760405162461bcd60e51b81526004016107e5906120d2565b60405180910390fd5b603954819081106108115760405162461bcd60e51b81526004016107e5906120f8565b81603981815481106108255761082561212f565b5f91825260209091206003600590920201015460ff16156108585760405162461bcd60e51b81526004016107e590612143565b5f6039848154811061086c5761086c61212f565b5f91825260208083208784526038825260408085203386529092529220546005909102909101915060ff166108e35760405162461bcd60e51b815260206004820152601960248201527f5472616e73616374696f6e206e6f7420636f6e6669726d65640000000000000060448201526064016107e5565b6001816004015f8282546108f7919061218e565b90915550505f848152603860209081526040808320338085529252808320805460ff191690555186927fe5c8875c5e14471f806f15f740cd9fd54937d151e9dcf8ad3ba988d6a285e67e91a350505050565b5f9081525f8051602061242c833981519152602052604090206001015490565b61097282610949565b61097b8161175c565b6109858383611766565b50505050565b6001600160a01b03811633146109b45760405163334bd91960e11b815260040160405180910390fd5b6109be8282611807565b505050565b5f8051602061240c8339815191526109da8161175c565b6109e2611880565b50565b6109fc5f8051602061244c83398151915233610dbd565b610a185760405162461bcd60e51b81526004016107e5906120d2565b603280546001600160a01b0319166001600160a01b0392909216919091179055565b610a426118d1565b610a4b82611977565b610a5582826119a1565b5050565b5f610a62611a5d565b505f805160206123ec83398151915290565b7ff0c57e16840df040f15088dc2f81fe391c3923bec73e23a9662efc9c229c6a008054600160401b810460ff16159067ffffffffffffffff165f81158015610ab95750825b90505f8267ffffffffffffffff166001148015610ad55750303b155b905081158015610ae3575080155b15610b015760405163f92ee8a960e01b815260040160405180910390fd5b845467ffffffffffffffff191660011785558315610b2b57845460ff60401b1916600160401b1785555b610b33611aa6565b610b3b611aae565b610b43611aa6565b610b4d5f8f611766565b50610b655f8051602061240c8339815191528f611766565b50610b7d5f8051602061244c8339815191528f611766565b50610ba87f189ab7a9244df0848122154315af71fe140f3db0fe014031783b0946b8c9d2e38f611766565b50603a8d9055603c8c9055603280546001600160a01b03199081166001600160a01b038e8116919091179092556033805482168d84161790556034805482168c84161790556035805482168b84161790556036805482168a8416179055603780549091169188169190911790558315610c5b57845460ff60401b19168555604051600181527fc7f505b2f371ae2175ee4913f4499e1f2633a7b5936321eed1cdaeb6115181d29060200160405180910390a15b5050505050505050505050505050565b610c73611abe565b6032546040516323b872dd60e01b8152336004820152306024820152604481018390526001600160a01b039091169081906323b872dd906064016020604051808303815f875af1158015610cc9573d5f803e3d5ffd5b505050506040513d601f19601f82011682018060405250810190610ced91906121a1565b610d315760405162461bcd60e51b8152602060048201526015602482015274151bdad95b881d1c985b9cd9995c8819985a5b1959605a1b60448201526064016107e5565b604080518082018252838152426020808301828152335f818152603b845286902094518555905160019094019390935583518681529081019190915290917fdd2a19c3bdd089cbe77c04f5655f83de0504d6140d12c8667646f55d0557c4dc910160405180910390a25050565b5f8051602061240c833981519152610db58161175c565b6109e2611b03565b5f9182525f8051602061242c833981519152602090815260408084206001600160a01b0393909316845291905290205460ff1690565b610e0a5f8051602061244c83398151915233610dbd565b610e265760405162461bcd60e51b81526004016107e5906120d2565b603580546001600160a01b0319166001600160a01b0392909216919091179055565b610e5f5f8051602061244c83398151915233610dbd565b610e7b5760405162461bcd60e51b81526004016107e5906120d2565b603380546001600160a01b0319166001600160a01b0392909216919091179055565b60398181548110610eac575f80fd5b5f9182526020909120600590910201805460018201546002830180546001600160a01b039093169450909291610ee1906121c0565b80601f0160208091040260200160405190810160405280929190818152602001828054610f0d906121c0565b8015610f585780601f10610f2f57610100808354040283529160200191610f58565b820191905f5260205f20905b815481529060010190602001808311610f3b57829003601f168201915b505050506003830154600490930154919260ff1691905085565b610f7a611abe565b335f908152603b60209081526040918290208251808401909352805480845260019091015491830191909152610fe55760405162461bcd60e51b815260206004820152601060248201526f139bc81d1bdad95b9cc81cdd185ad95960821b60448201526064016107e5565b5f816020015142610ff6919061218e565b90505f6301e1338082603c54855f015161101091906121f8565b61101a91906121f8565b611024919061220f565b60325484519192506001600160a01b031690819063a9059cbb90339061104b90869061222e565b6040516001600160e01b031960e085901b1681526001600160a01b03909216600483015260248201526044016020604051808303815f875af1158015611093573d5f803e3d5ffd5b505050506040513d601f19601f820116820180604052508101906110b791906121a1565b6110fb5760405162461bcd60e51b8152602060048201526015602482015274151bdad95b881d1c985b9cd9995c8819985a5b1959605a1b60448201526064016107e5565b335f818152603b6020908152604080832083815560010192909255865182519081529081018590527f6f2d3e000c89d37446b7c0374c0125068ff316d1e3ee302336478a8cd03c2336910160405180910390a250505050565b61116b5f8051602061244c83398151915233610dbd565b6111875760405162461bcd60e51b81526004016107e5906120d2565b603780546001600160a01b0319166001600160a01b0392909216919091179055565b6111c05f8051602061244c83398151915233610dbd565b6111dc5760405162461bcd60e51b81526004016107e5906120d2565b603954819081106111ff5760405162461bcd60e51b81526004016107e5906120f8565b81603981815481106112135761121361212f565b5f91825260209091206003600590920201015460ff16156112465760405162461bcd60e51b81526004016107e590612143565b5f838152603860209081526040808320338452909152902054839060ff16156112b15760405162461bcd60e51b815260206004820152601d60248201527f5472616e73616374696f6e20616c726561647920636f6e6669726d656400000060448201526064016107e5565b5f603985815481106112c5576112c561212f565b905f5260205f20906005020190506001816004015f8282546112e7919061222e565b90915550505f858152603860209081526040808320338085529252808320805460ff191660011790555187927ff8a17c9136a3ae33364fac05eb088a3cbafee10c1889c88593e20ee2d8e4eb8891a35050505050565b6113545f8051602061244c83398151915233610dbd565b6113705760405162461bcd60e51b81526004016107e5906120d2565b603980546040805160a0810182526001600160a01b038781168252602082018781529282018681525f60608401819052608084018190526001860187559590955281517fdc16fef70f8d5ddbc01ee3d903d1e69c18a3c7be080eb86a81e0578814ee58d36005860290810180546001600160a01b0319169290931691909117825592517fdc16fef70f8d5ddbc01ee3d903d1e69c18a3c7be080eb86a81e0578814ee58d484015593519293909290917fdc16fef70f8d5ddbc01ee3d903d1e69c18a3c7be080eb86a81e0578814ee58d5019061144c908261228c565b50606082015160038201805460ff191691151591909117905560809091015160049091015560405181907fd0b5d9eac097410294ec9f2cee7cd185cf31ab46babf3dfdbeac8b222b03f2d1905f90a250505050565b6114aa82610949565b6114b38161175c565b6109858383611807565b6114d45f8051602061244c83398151915233610dbd565b6114f05760405162461bcd60e51b81526004016107e5906120d2565b603480546001600160a01b0319166001600160a01b0392909216919091179055565b6115295f8051602061244c83398151915233610dbd565b6115455760405162461bcd60e51b81526004016107e5906120d2565b603954819081106115685760405162461bcd60e51b81526004016107e5906120f8565b816039818154811061157c5761157c61212f565b5f91825260209091206003600590920201015460ff16156115af5760405162461bcd60e51b81526004016107e590612143565b5f603984815481106115c3576115c361212f565b905f5260205f2090600502019050603a548160040154101561161b5760405162461bcd60e51b8152602060048201526011602482015270086c2dcdcdee840caf0cac6eae8ca40e8f607b1b60448201526064016107e5565b60038101805460ff191660019081179091558154908201546040515f926001600160a01b0316919061165190600286019061234c565b5f6040518083038185875af1925050503d805f811461168b576040519150601f19603f3d011682016040523d82523d5f602084013e611690565b606091505b50509050806116d65760405162461bcd60e51b8152602060048201526012602482015271151c985b9cd858dd1a5bdb8819985a5b195960721b60448201526064016107e5565b60405185907f15ed165a284872ea7017f03df402a0cadfbfab588320ffaf83f160c2f82781c7905f90a25050505050565b61171e5f8051602061244c83398151915233610dbd565b61173a5760405162461bcd60e51b81526004016107e5906120d2565b603680546001600160a01b0319166001600160a01b0392909216919091179055565b6109e28133611b3f565b5f5f8051602061242c83398151915261177f8484610dbd565b6117fe575f848152602082815260408083206001600160a01b03871684529091529020805460ff191660011790556117b43390565b6001600160a01b0316836001600160a01b0316857f2f8788117e7eff1d82e926ec794901d17c78024a50270940304540a733656f0d60405160405180910390a460019150506107ac565b5f9150506107ac565b5f5f8051602061242c8339815191526118208484610dbd565b156117fe575f848152602082815260408083206001600160a01b0387168085529252808320805460ff1916905551339287917ff6391f5c32d9c69d2a47ea670b442974b53935d1edc7fd64eb21e047a839171b9190a460019150506107ac565b611888611b78565b5f805460ff191690557f5db9ee0a495bf2e6ff9c91a7834c1ba4fdd244a5e8aa4e537bd38aeae4b073aa335b6040516001600160a01b03909116815260200160405180910390a1565b306001600160a01b037f000000000000000000000000000000000000000000000000000000000000000016148061195757507f00000000000000000000000000000000000000000000000000000000000000006001600160a01b031661194b5f805160206123ec833981519152546001600160a01b031690565b6001600160a01b031614155b156119755760405163703e46dd60e11b815260040160405180910390fd5b565b7f189ab7a9244df0848122154315af71fe140f3db0fe014031783b0946b8c9d2e3610a558161175c565b816001600160a01b03166352d1902d6040518163ffffffff1660e01b8152600401602060405180830381865afa9250505080156119fb575060408051601f3d908101601f191682019092526119f8918101906123be565b60015b611a2357604051634c9c8ce360e01b81526001600160a01b03831660048201526024016107e5565b5f805160206123ec8339815191528114611a5357604051632a87526960e21b8152600481018290526024016107e5565b6109be8383611bc0565b306001600160a01b037f000000000000000000000000000000000000000000000000000000000000000016146119755760405163703e46dd60e11b815260040160405180910390fd5b611975611c15565b611ab6611c15565b611975611c5e565b5f5460ff16156119755760405162461bcd60e51b815260206004820152601060248201526f14185d5cd8589b194e881c185d5cd95960821b60448201526064016107e5565b611b0b611abe565b5f805460ff191660011790557f62e78cea01bee320cd4e420270b5ea74000d11b0c9f74754ebdbfc544b05a2586118b43390565b611b498282610dbd565b610a555760405163e2517d3f60e01b81526001600160a01b0382166004820152602481018390526044016107e5565b5f5460ff166119755760405162461bcd60e51b815260206004820152601460248201527314185d5cd8589b194e881b9bdd081c185d5cd95960621b60448201526064016107e5565b611bc982611c71565b6040516001600160a01b038316907fbc7cd75a20ee27fd9adebab32041f755214dbc6bffa90cc0225b39da2e5c2d3b905f90a2805115611c0d576109be8282611cd4565b610a55611d46565b7ff0c57e16840df040f15088dc2f81fe391c3923bec73e23a9662efc9c229c6a0054600160401b900460ff1661197557604051631afcd79f60e31b815260040160405180910390fd5b611c66611c15565b5f805460ff19169055565b806001600160a01b03163b5f03611ca657604051634c9c8ce360e01b81526001600160a01b03821660048201526024016107e5565b5f805160206123ec83398151915280546001600160a01b0319166001600160a01b0392909216919091179055565b60605f80846001600160a01b031684604051611cf091906123d5565b5f60405180830381855af49150503d805f8114611d28576040519150601f19603f3d011682016040523d82523d5f602084013e611d2d565b606091505b5091509150611d3d858383611d65565b95945050505050565b34156119755760405163b398979f60e01b815260040160405180910390fd5b606082611d7a57611d7582611dc4565b611dbd565b8151158015611d9157506001600160a01b0384163b155b15611dba57604051639996b31560e01b81526001600160a01b03851660048201526024016107e5565b50805b9392505050565b805115611dd45780518082602001fd5b604051630a12f52160e11b815260040160405180910390fd5b5f60208284031215611dfd575f80fd5b81356001600160e01b031981168114611dbd575f80fd5b80356001600160a01b0381168114611e2a575f80fd5b919050565b5f60208284031215611e3f575f80fd5b611dbd82611e14565b5f60208284031215611e58575f80fd5b5035919050565b5f8060408385031215611e70575f80fd5b82359150611e8060208401611e14565b90509250929050565b634e487b7160e01b5f52604160045260245ffd5b5f82601f830112611eac575f80fd5b813567ffffffffffffffff80821115611ec757611ec7611e89565b604051601f8301601f19908116603f01168101908282118183101715611eef57611eef611e89565b81604052838152866020858801011115611f07575f80fd5b836020870160208301375f602085830101528094505050505092915050565b5f8060408385031215611f37575f80fd5b611f4083611e14565b9150602083013567ffffffffffffffff811115611f5b575f80fd5b611f6785828601611e9d565b9150509250929050565b5f805f805f805f805f6101208a8c031215611f8a575f80fd5b611f938a611e14565b985060208a0135975060408a01359650611faf60608b01611e14565b9550611fbd60808b01611e14565b9450611fcb60a08b01611e14565b9350611fd960c08b01611e14565b9250611fe760e08b01611e14565b9150611ff66101008b01611e14565b90509295985092959850929598565b5f81518084528060208401602086015e5f602082860101526020601f19601f83011685010191505092915050565b60018060a01b038616815284602082015260a060408201525f61205960a0830186612005565b931515606083015250608001529392505050565b602081525f611dbd6020830184612005565b5f805f60608486031215612091575f80fd5b61209a84611e14565b925060208401359150604084013567ffffffffffffffff8111156120bc575f80fd5b6120c886828701611e9d565b9150509250925092565b6020808252600c908201526b2737ba1030b71030b236b4b760a11b604082015260600190565b6020808252601a908201527f5472616e73616374696f6e20646f6573206e6f74206578697374000000000000604082015260600190565b634e487b7160e01b5f52603260045260245ffd5b6020808252601c908201527f5472616e73616374696f6e20616c726561647920657865637574656400000000604082015260600190565b634e487b7160e01b5f52601160045260245ffd5b818103818111156107ac576107ac61217a565b5f602082840312156121b1575f80fd5b81518015158114611dbd575f80fd5b600181811c908216806121d457607f821691505b6020821081036121f257634e487b7160e01b5f52602260045260245ffd5b50919050565b80820281158282048414176107ac576107ac61217a565b5f8261222957634e487b7160e01b5f52601260045260245ffd5b500490565b808201808211156107ac576107ac61217a565b601f8211156109be57805f5260205f20601f840160051c810160208510156122665750805b601f840160051c820191505b81811015612285575f8155600101612272565b5050505050565b815167ffffffffffffffff8111156122a6576122a6611e89565b6122ba816122b484546121c0565b84612241565b602080601f8311600181146122ed575f84156122d65750858301515b5f19600386901b1c1916600185901b178555612344565b5f85815260208120601f198616915b8281101561231b578886015182559484019460019091019084016122fc565b508582101561233857878501515f19600388901b60f8161c191681555b505060018460011b0185555b505050505050565b5f808354612359816121c0565b600182811680156123715760018114612386576123b2565b60ff19841687528215158302870194506123b2565b875f526020805f205f5b858110156123a95781548a820152908401908201612390565b50505082870194505b50929695505050505050565b5f602082840312156123ce575f80fd5b5051919050565b5f82518060208501845e5f92019182525091905056fe360894a13ba1a3210667c828492db98dca3e2076cc3735a920a3ca505d382bbc65d7a28e3265b37a6474929f336521b332c1681b933f6cb9f3376673440d862a02dd7bc7dec4dceedda775e58dd541e08a116c6c53815c0bd028192f7b626800a49807205ce4d355092ef5a8a18f56e8913cf4a201fbe287825b095693c21775a2646970667358221220a4cfbb32862d2b8babaa1b0f8524b364e15a749dde9724685f56eb1095fe3a1d64736f6c63430008190033",
					"opcodes": "PUSH1 0xA0 PUSH1 0x40 MSTORE ADDRESS PUSH1 0x80 MSTORE CALLVALUE DUP1 ISZERO PUSH2 0x13 JUMPI PUSH0 DUP1 REVERT JUMPDEST POP PUSH2 0x1C PUSH2 0x21 JUMP JUMPDEST PUSH2 0xD3 JUMP JUMPDEST PUSH32 0xF0C57E16840DF040F15088DC2F81FE391C3923BEC73E23A9662EFC9C229C6A00 DUP1 SLOAD PUSH9 0x10000000000000000 SWAP1 DIV PUSH1 0xFF AND ISZERO PUSH2 0x71 JUMPI PUSH1 0x40 MLOAD PUSH4 0xF92EE8A9 PUSH1 0xE0 SHL DUP2 MSTORE PUSH1 0x4 ADD PUSH1 0x40 MLOAD DUP1 SWAP2 SUB SWAP1 REVERT JUMPDEST DUP1 SLOAD PUSH1 0x1 PUSH1 0x1 PUSH1 0x40 SHL SUB SWAP1 DUP2 AND EQ PUSH2 0xD0 JUMPI DUP1 SLOAD PUSH1 0x1 PUSH1 0x1 PUSH1 0x40 SHL SUB NOT AND PUSH1 0x1 PUSH1 0x1 PUSH1 0x40 SHL SUB SWAP1 DUP2 OR DUP3 SSTORE PUSH1 0x40 MLOAD SWAP1 DUP2 MSTORE PUSH32 0xC7F505B2F371AE2175EE4913F4499E1F2633A7B5936321EED1CDAEB6115181D2 SWAP1 PUSH1 0x20 ADD PUSH1 0x40 MLOAD DUP1 SWAP2 SUB SWAP1 LOG1 JUMPDEST POP JUMP JUMPDEST PUSH1 0x80 MLOAD PUSH2 0x24A1 PUSH2 0xF9 PUSH0 CODECOPY PUSH0 DUP2 DUP2 PUSH2 0x18DC ADD MSTORE DUP2 DUP2 PUSH2 0x1905 ADD MSTORE PUSH2 0x1A68 ADD MSTORE PUSH2 0x24A1 PUSH0 RETURN INVALID PUSH1 0x80 PUSH1 0x40 MSTORE PUSH1 0x4 CALLDATASIZE LT PUSH2 0x236 JUMPI PUSH0 CALLDATALOAD PUSH1 0xE0 SHR DUP1 PUSH4 0x8456CB59 GT PUSH2 0x129 JUMPI DUP1 PUSH4 0xC01A8C84 GT PUSH2 0xA8 JUMPI DUP1 PUSH4 0xD836FC6F GT PUSH2 0x6D JUMPI DUP1 PUSH4 0xD836FC6F EQ PUSH2 0x6CC JUMPI DUP1 PUSH4 0xE63AB1E9 EQ PUSH2 0x6EB JUMPI DUP1 PUSH4 0xEE22610B EQ PUSH2 0x70B JUMPI DUP1 PUSH4 0xF4E0D9AC EQ PUSH2 0x72A JUMPI DUP1 PUSH4 0xF72C0D8B EQ PUSH2 0x749 JUMPI PUSH0 DUP1 REVERT JUMPDEST DUP1 PUSH4 0xC01A8C84 EQ PUSH2 0x63B JUMPI DUP1 PUSH4 0xC63A6AD2 EQ PUSH2 0x65A JUMPI DUP1 PUSH4 0xC6427474 EQ PUSH2 0x66F JUMPI DUP1 PUSH4 0xD547741F EQ PUSH2 0x68E JUMPI DUP1 PUSH4 0xD7B4BE24 EQ PUSH2 0x6AD JUMPI PUSH0 DUP1 REVERT JUMPDEST DUP1 PUSH4 0x9ACE38C2 GT PUSH2 0xEE JUMPI DUP1 PUSH4 0x9ACE38C2 EQ PUSH2 0x588 JUMPI DUP1 PUSH4 0xA217FDDF EQ PUSH2 0x5B8 JUMPI DUP1 PUSH4 0xA5CE413B EQ PUSH2 0x5CB JUMPI DUP1 PUSH4 0xAD3CB1CC EQ PUSH2 0x5DF JUMPI DUP1 PUSH4 0xB001F618 EQ PUSH2 0x61C JUMPI PUSH0 DUP1 REVERT JUMPDEST DUP1 PUSH4 0x8456CB59 EQ PUSH2 0x4F8 JUMPI DUP1 PUSH4 0x8A2ADE58 EQ PUSH2 0x50C JUMPI DUP1 PUSH4 0x91D14854 EQ PUSH2 0x52B JUMPI DUP1 PUSH4 0x965AFA89 EQ PUSH2 0x54A JUMPI DUP1 PUSH4 0x9A03D9A3 EQ PUSH2 0x569 JUMPI PUSH0 DUP1 REVERT JUMPDEST DUP1 PUSH4 0x3F4BA83A GT PUSH2 0x1B5 JUMPI DUP1 PUSH4 0x63447471 GT PUSH2 0x17A JUMPI DUP1 PUSH4 0x63447471 EQ PUSH2 0x44C JUMPI DUP1 PUSH4 0x7547C7A3 EQ PUSH2 0x46B JUMPI DUP1 PUSH4 0x75B238FC EQ PUSH2 0x48A JUMPI DUP1 PUSH4 0x80F59A65 EQ PUSH2 0x4AA JUMPI DUP1 PUSH4 0x82E717F7 EQ PUSH2 0x4E3 JUMPI PUSH0 DUP1 REVERT JUMPDEST DUP1 PUSH4 0x3F4BA83A EQ PUSH2 0x3DC JUMPI DUP1 PUSH4 0x41BEC0D2 EQ PUSH2 0x3F0 JUMPI DUP1 PUSH4 0x4F1EF286 EQ PUSH2 0x40F JUMPI DUP1 PUSH4 0x52D1902D EQ PUSH2 0x422 JUMPI DUP1 PUSH4 0x5C975ABB EQ PUSH2 0x436 JUMPI PUSH0 DUP1 REVERT JUMPDEST DUP1 PUSH4 0x2352A864 GT PUSH2 0x1FB JUMPI DUP1 PUSH4 0x2352A864 EQ PUSH2 0x333 JUMPI DUP1 PUSH4 0x248A9CA3 EQ PUSH2 0x352 JUMPI DUP1 PUSH4 0x276184AE EQ PUSH2 0x37F JUMPI DUP1 PUSH4 0x2F2FF15D EQ PUSH2 0x39E JUMPI DUP1 PUSH4 0x36568ABE EQ PUSH2 0x3BD JUMPI PUSH0 DUP1 REVERT JUMPDEST DUP1 PUSH4 0x1FFC9A7 EQ PUSH2 0x241 JUMPI DUP1 PUSH4 0x5142002 EQ PUSH2 0x275 JUMPI DUP1 PUSH4 0x16934FC4 EQ PUSH2 0x2AC JUMPI DUP1 PUSH4 0x20EA8D86 EQ PUSH2 0x2F3 JUMPI DUP1 PUSH4 0x2131C68C EQ PUSH2 0x314 JUMPI PUSH0 DUP1 REVERT JUMPDEST CALLDATASIZE PUSH2 0x23D JUMPI STOP JUMPDEST PUSH0 DUP1 REVERT JUMPDEST CALLVALUE DUP1 ISZERO PUSH2 0x24C JUMPI PUSH0 DUP1 REVERT JUMPDEST POP PUSH2 0x260 PUSH2 0x25B CALLDATASIZE PUSH1 0x4 PUSH2 0x1DED JUMP JUMPDEST PUSH2 0x77C JUMP JUMPDEST PUSH1 0x40 MLOAD SWAP1 ISZERO ISZERO DUP2 MSTORE PUSH1 0x20 ADD JUMPDEST PUSH1 0x40 MLOAD DUP1 SWAP2 SUB SWAP1 RETURN JUMPDEST CALLVALUE DUP1 ISZERO PUSH2 0x280 JUMPI PUSH0 DUP1 REVERT JUMPDEST POP PUSH1 0x34 SLOAD PUSH2 0x294 SWAP1 PUSH1 0x1 PUSH1 0x1 PUSH1 0xA0 SHL SUB AND DUP2 JUMP JUMPDEST PUSH1 0x40 MLOAD PUSH1 0x1 PUSH1 0x1 PUSH1 0xA0 SHL SUB SWAP1 SWAP2 AND DUP2 MSTORE PUSH1 0x20 ADD PUSH2 0x26C JUMP JUMPDEST CALLVALUE DUP1 ISZERO PUSH2 0x2B7 JUMPI PUSH0 DUP1 REVERT JUMPDEST POP PUSH2 0x2DE PUSH2 0x2C6 CALLDATASIZE PUSH1 0x4 PUSH2 0x1E2F JUMP JUMPDEST PUSH1 0x3B PUSH1 0x20 MSTORE PUSH0 SWAP1 DUP2 MSTORE PUSH1 0x40 SWAP1 KECCAK256 DUP1 SLOAD PUSH1 0x1 SWAP1 SWAP2 ADD SLOAD DUP3 JUMP JUMPDEST PUSH1 0x40 DUP1 MLOAD SWAP3 DUP4 MSTORE PUSH1 0x20 DUP4 ADD SWAP2 SWAP1 SWAP2 MSTORE ADD PUSH2 0x26C JUMP JUMPDEST CALLVALUE DUP1 ISZERO PUSH2 0x2FE JUMPI PUSH0 DUP1 REVERT JUMPDEST POP PUSH2 0x312 PUSH2 0x30D CALLDATASIZE PUSH1 0x4 PUSH2 0x1E48 JUMP JUMPDEST PUSH2 0x7B2 JUMP JUMPDEST STOP JUMPDEST CALLVALUE DUP1 ISZERO PUSH2 0x31F JUMPI PUSH0 DUP1 REVERT JUMPDEST POP PUSH1 0x35 SLOAD PUSH2 0x294 SWAP1 PUSH1 0x1 PUSH1 0x1 PUSH1 0xA0 SHL SUB AND DUP2 JUMP JUMPDEST CALLVALUE DUP1 ISZERO PUSH2 0x33E JUMPI PUSH0 DUP1 REVERT JUMPDEST POP PUSH1 0x33 SLOAD PUSH2 0x294 SWAP1 PUSH1 0x1 PUSH1 0x1 PUSH1 0xA0 SHL SUB AND DUP2 JUMP JUMPDEST CALLVALUE DUP1 ISZERO PUSH2 0x35D JUMPI PUSH0 DUP1 REVERT JUMPDEST POP PUSH2 0x371 PUSH2 0x36C CALLDATASIZE PUSH1 0x4 PUSH2 0x1E48 JUMP JUMPDEST PUSH2 0x949 JUMP JUMPDEST PUSH1 0x40 MLOAD SWAP1 DUP2 MSTORE PUSH1 0x20 ADD PUSH2 0x26C JUMP JUMPDEST CALLVALUE DUP1 ISZERO PUSH2 0x38A JUMPI PUSH0 DUP1 REVERT JUMPDEST POP PUSH1 0x32 SLOAD PUSH2 0x294 SWAP1 PUSH1 0x1 PUSH1 0x1 PUSH1 0xA0 SHL SUB AND DUP2 JUMP JUMPDEST CALLVALUE DUP1 ISZERO PUSH2 0x3A9 JUMPI PUSH0 DUP1 REVERT JUMPDEST POP PUSH2 0x312 PUSH2 0x3B8 CALLDATASIZE PUSH1 0x4 PUSH2 0x1E5F JUMP JUMPDEST PUSH2 0x969 JUMP JUMPDEST CALLVALUE DUP1 ISZERO PUSH2 0x3C8 JUMPI PUSH0 DUP1 REVERT JUMPDEST POP PUSH2 0x312 PUSH2 0x3D7 CALLDATASIZE PUSH1 0x4 PUSH2 0x1E5F JUMP JUMPDEST PUSH2 0x98B JUMP JUMPDEST CALLVALUE DUP1 ISZERO PUSH2 0x3E7 JUMPI PUSH0 DUP1 REVERT JUMPDEST POP PUSH2 0x312 PUSH2 0x9C3 JUMP JUMPDEST CALLVALUE DUP1 ISZERO PUSH2 0x3FB JUMPI PUSH0 DUP1 REVERT JUMPDEST POP PUSH2 0x312 PUSH2 0x40A CALLDATASIZE PUSH1 0x4 PUSH2 0x1E2F JUMP JUMPDEST PUSH2 0x9E5 JUMP JUMPDEST PUSH2 0x312 PUSH2 0x41D CALLDATASIZE PUSH1 0x4 PUSH2 0x1F26 JUMP JUMPDEST PUSH2 0xA3A JUMP JUMPDEST CALLVALUE DUP1 ISZERO PUSH2 0x42D JUMPI PUSH0 DUP1 REVERT JUMPDEST POP PUSH2 0x371 PUSH2 0xA59 JUMP JUMPDEST CALLVALUE DUP1 ISZERO PUSH2 0x441 JUMPI PUSH0 DUP1 REVERT JUMPDEST POP PUSH0 SLOAD PUSH1 0xFF AND PUSH2 0x260 JUMP JUMPDEST CALLVALUE DUP1 ISZERO PUSH2 0x457 JUMPI PUSH0 DUP1 REVERT JUMPDEST POP PUSH2 0x312 PUSH2 0x466 CALLDATASIZE PUSH1 0x4 PUSH2 0x1F71 JUMP JUMPDEST PUSH2 0xA74 JUMP JUMPDEST CALLVALUE DUP1 ISZERO PUSH2 0x476 JUMPI PUSH0 DUP1 REVERT JUMPDEST POP PUSH2 0x312 PUSH2 0x485 CALLDATASIZE PUSH1 0x4 PUSH2 0x1E48 JUMP JUMPDEST PUSH2 0xC6B JUMP JUMPDEST CALLVALUE DUP1 ISZERO PUSH2 0x495 JUMPI PUSH0 DUP1 REVERT JUMPDEST POP PUSH2 0x371 PUSH0 DUP1 MLOAD PUSH1 0x20 PUSH2 0x244C DUP4 CODECOPY DUP2 MLOAD SWAP2 MSTORE DUP2 JUMP JUMPDEST CALLVALUE DUP1 ISZERO PUSH2 0x4B5 JUMPI PUSH0 DUP1 REVERT JUMPDEST POP PUSH2 0x260 PUSH2 0x4C4 CALLDATASIZE PUSH1 0x4 PUSH2 0x1E5F JUMP JUMPDEST PUSH1 0x38 PUSH1 0x20 SWAP1 DUP2 MSTORE PUSH0 SWAP3 DUP4 MSTORE PUSH1 0x40 DUP1 DUP5 KECCAK256 SWAP1 SWAP2 MSTORE SWAP1 DUP3 MSTORE SWAP1 KECCAK256 SLOAD PUSH1 0xFF AND DUP2 JUMP JUMPDEST CALLVALUE DUP1 ISZERO PUSH2 0x4EE JUMPI PUSH0 DUP1 REVERT JUMPDEST POP PUSH2 0x371 PUSH1 0x3A SLOAD DUP2 JUMP JUMPDEST CALLVALUE DUP1 ISZERO PUSH2 0x503 JUMPI PUSH0 DUP1 REVERT JUMPDEST POP PUSH2 0x312 PUSH2 0xD9E JUMP JUMPDEST CALLVALUE DUP1 ISZERO PUSH2 0x517 JUMPI PUSH0 DUP1 REVERT JUMPDEST POP PUSH1 0x37 SLOAD PUSH2 0x294 SWAP1 PUSH1 0x1 PUSH1 0x1 PUSH1 0xA0 SHL SUB AND DUP2 JUMP JUMPDEST CALLVALUE DUP1 ISZERO PUSH2 0x536 JUMPI PUSH0 DUP1 REVERT JUMPDEST POP PUSH2 0x260 PUSH2 0x545 CALLDATASIZE PUSH1 0x4 PUSH2 0x1E5F JUMP JUMPDEST PUSH2 0xDBD JUMP JUMPDEST CALLVALUE DUP1 ISZERO PUSH2 0x555 JUMPI PUSH0 DUP1 REVERT JUMPDEST POP PUSH2 0x312 PUSH2 0x564 CALLDATASIZE PUSH1 0x4 PUSH2 0x1E2F JUMP JUMPDEST PUSH2 0xDF3 JUMP JUMPDEST CALLVALUE DUP1 ISZERO PUSH2 0x574 JUMPI PUSH0 DUP1 REVERT JUMPDEST POP PUSH2 0x312 PUSH2 0x583 CALLDATASIZE PUSH1 0x4 PUSH2 0x1E2F JUMP JUMPDEST PUSH2 0xE48 JUMP JUMPDEST CALLVALUE DUP1 ISZERO PUSH2 0x593 JUMPI PUSH0 DUP1 REVERT JUMPDEST POP PUSH2 0x5A7 PUSH2 0x5A2 CALLDATASIZE PUSH1 0x4 PUSH2 0x1E48 JUMP JUMPDEST PUSH2 0xE9D JUMP JUMPDEST PUSH1 0x40 MLOAD PUSH2 0x26C SWAP6 SWAP5 SWAP4 SWAP3 SWAP2 SWAP1 PUSH2 0x2033 JUMP JUMPDEST CALLVALUE DUP1 ISZERO PUSH2 0x5C3 JUMPI PUSH0 DUP1 REVERT JUMPDEST POP PUSH2 0x371 PUSH0 DUP2 JUMP JUMPDEST CALLVALUE DUP1 ISZERO PUSH2 0x5D6 JUMPI PUSH0 DUP1 REVERT JUMPDEST POP PUSH2 0x312 PUSH2 0xF72 JUMP JUMPDEST CALLVALUE DUP1 ISZERO PUSH2 0x5EA JUMPI PUSH0 DUP1 REVERT JUMPDEST POP PUSH2 0x60F PUSH1 0x40 MLOAD DUP1 PUSH1 0x40 ADD PUSH1 0x40 MSTORE DUP1 PUSH1 0x5 DUP2 MSTORE PUSH1 0x20 ADD PUSH5 0x352E302E3 PUSH1 0xDC SHL DUP2 MSTORE POP DUP2 JUMP JUMPDEST PUSH1 0x40 MLOAD PUSH2 0x26C SWAP2 SWAP1 PUSH2 0x206D JUMP JUMPDEST CALLVALUE DUP1 ISZERO PUSH2 0x627 JUMPI PUSH0 DUP1 REVERT JUMPDEST POP PUSH2 0x312 PUSH2 0x636 CALLDATASIZE PUSH1 0x4 PUSH2 0x1E2F JUMP JUMPDEST PUSH2 0x1154 JUMP JUMPDEST CALLVALUE DUP1 ISZERO PUSH2 0x646 JUMPI PUSH0 DUP1 REVERT JUMPDEST POP PUSH2 0x312 PUSH2 0x655 CALLDATASIZE PUSH1 0x4 PUSH2 0x1E48 JUMP JUMPDEST PUSH2 0x11A9 JUMP JUMPDEST CALLVALUE DUP1 ISZERO PUSH2 0x665 JUMPI PUSH0 DUP1 REVERT JUMPDEST POP PUSH2 0x371 PUSH1 0x3C SLOAD DUP2 JUMP JUMPDEST CALLVALUE DUP1 ISZERO PUSH2 0x67A JUMPI PUSH0 DUP1 REVERT JUMPDEST POP PUSH2 0x312 PUSH2 0x689 CALLDATASIZE PUSH1 0x4 PUSH2 0x207F JUMP JUMPDEST PUSH2 0x133D JUMP JUMPDEST CALLVALUE DUP1 ISZERO PUSH2 0x699 JUMPI PUSH0 DUP1 REVERT JUMPDEST POP PUSH2 0x312 PUSH2 0x6A8 CALLDATASIZE PUSH1 0x4 PUSH2 0x1E5F JUMP JUMPDEST PUSH2 0x14A1 JUMP JUMPDEST CALLVALUE DUP1 ISZERO PUSH2 0x6B8 JUMPI PUSH0 DUP1 REVERT JUMPDEST POP PUSH1 0x36 SLOAD PUSH2 0x294 SWAP1 PUSH1 0x1 PUSH1 0x1 PUSH1 0xA0 SHL SUB AND DUP2 JUMP JUMPDEST CALLVALUE DUP1 ISZERO PUSH2 0x6D7 JUMPI PUSH0 DUP1 REVERT JUMPDEST POP PUSH2 0x312 PUSH2 0x6E6 CALLDATASIZE PUSH1 0x4 PUSH2 0x1E2F JUMP JUMPDEST PUSH2 0x14BD JUMP JUMPDEST CALLVALUE DUP1 ISZERO PUSH2 0x6F6 JUMPI PUSH0 DUP1 REVERT JUMPDEST POP PUSH2 0x371 PUSH0 DUP1 MLOAD PUSH1 0x20 PUSH2 0x240C DUP4 CODECOPY DUP2 MLOAD SWAP2 MSTORE DUP2 JUMP JUMPDEST CALLVALUE DUP1 ISZERO PUSH2 0x716 JUMPI PUSH0 DUP1 REVERT JUMPDEST POP PUSH2 0x312 PUSH2 0x725 CALLDATASIZE PUSH1 0x4 PUSH2 0x1E48 JUMP JUMPDEST PUSH2 0x1512 JUMP JUMPDEST CALLVALUE DUP1 ISZERO PUSH2 0x735 JUMPI PUSH0 DUP1 REVERT JUMPDEST POP PUSH2 0x312 PUSH2 0x744 CALLDATASIZE PUSH1 0x4 PUSH2 0x1E2F JUMP JUMPDEST PUSH2 0x1707 JUMP JUMPDEST CALLVALUE DUP1 ISZERO PUSH2 0x754 JUMPI PUSH0 DUP1 REVERT JUMPDEST POP PUSH2 0x371 PUSH32 0x189AB7A9244DF0848122154315AF71FE140F3DB0FE014031783B0946B8C9D2E3 DUP2 JUMP JUMPDEST PUSH0 PUSH1 0x1 PUSH1 0x1 PUSH1 0xE0 SHL SUB NOT DUP3 AND PUSH4 0x7965DB0B PUSH1 0xE0 SHL EQ DUP1 PUSH2 0x7AC JUMPI POP PUSH4 0x1FFC9A7 PUSH1 0xE0 SHL PUSH1 0x1 PUSH1 0x1 PUSH1 0xE0 SHL SUB NOT DUP4 AND EQ JUMPDEST SWAP3 SWAP2 POP POP JUMP JUMPDEST PUSH2 0x7C9 PUSH0 DUP1 MLOAD PUSH1 0x20 PUSH2 0x244C DUP4 CODECOPY DUP2 MLOAD SWAP2 MSTORE CALLER PUSH2 0xDBD JUMP JUMPDEST PUSH2 0x7EE JUMPI PUSH1 0x40 MLOAD PUSH3 0x461BCD PUSH1 0xE5 SHL DUP2 MSTORE PUSH1 0x4 ADD PUSH2 0x7E5 SWAP1 PUSH2 0x20D2 JUMP JUMPDEST PUSH1 0x40 MLOAD DUP1 SWAP2 SUB SWAP1 REVERT JUMPDEST PUSH1 0x39 SLOAD DUP2 SWAP1 DUP2 LT PUSH2 0x811 JUMPI PUSH1 0x40 MLOAD PUSH3 0x461BCD PUSH1 0xE5 SHL DUP2 MSTORE PUSH1 0x4 ADD PUSH2 0x7E5 SWAP1 PUSH2 0x20F8 JUMP JUMPDEST DUP2 PUSH1 0x39 DUP2 DUP2 SLOAD DUP2 LT PUSH2 0x825 JUMPI PUSH2 0x825 PUSH2 0x212F JUMP JUMPDEST PUSH0 SWAP2 DUP3 MSTORE PUSH1 0x20 SWAP1 SWAP2 KECCAK256 PUSH1 0x3 PUSH1 0x5 SWAP1 SWAP3 MUL ADD ADD SLOAD PUSH1 0xFF AND ISZERO PUSH2 0x858 JUMPI PUSH1 0x40 MLOAD PUSH3 0x461BCD PUSH1 0xE5 SHL DUP2 MSTORE PUSH1 0x4 ADD PUSH2 0x7E5 SWAP1 PUSH2 0x2143 JUMP JUMPDEST PUSH0 PUSH1 0x39 DUP5 DUP2 SLOAD DUP2 LT PUSH2 0x86C JUMPI PUSH2 0x86C PUSH2 0x212F JUMP JUMPDEST PUSH0 SWAP2 DUP3 MSTORE PUSH1 0x20 DUP1 DUP4 KECCAK256 DUP8 DUP5 MSTORE PUSH1 0x38 DUP3 MSTORE PUSH1 0x40 DUP1 DUP6 KECCAK256 CALLER DUP7 MSTORE SWAP1 SWAP3 MSTORE SWAP3 KECCAK256 SLOAD PUSH1 0x5 SWAP1 SWAP2 MUL SWAP1 SWAP2 ADD SWAP2 POP PUSH1 0xFF AND PUSH2 0x8E3 JUMPI PUSH1 0x40 MLOAD PUSH3 0x461BCD PUSH1 0xE5 SHL DUP2 MSTORE PUSH1 0x20 PUSH1 0x4 DUP3 ADD MSTORE PUSH1 0x19 PUSH1 0x24 DUP3 ADD MSTORE PUSH32 0x5472616E73616374696F6E206E6F7420636F6E6669726D656400000000000000 PUSH1 0x44 DUP3 ADD MSTORE PUSH1 0x64 ADD PUSH2 0x7E5 JUMP JUMPDEST PUSH1 0x1 DUP2 PUSH1 0x4 ADD PUSH0 DUP3 DUP3 SLOAD PUSH2 0x8F7 SWAP2 SWAP1 PUSH2 0x218E JUMP JUMPDEST SWAP1 SWAP2 SSTORE POP POP PUSH0 DUP5 DUP2 MSTORE PUSH1 0x38 PUSH1 0x20 SWAP1 DUP2 MSTORE PUSH1 0x40 DUP1 DUP4 KECCAK256 CALLER DUP1 DUP6 MSTORE SWAP3 MSTORE DUP1 DUP4 KECCAK256 DUP1 SLOAD PUSH1 0xFF NOT AND SWAP1 SSTORE MLOAD DUP7 SWAP3 PUSH32 0xE5C8875C5E14471F806F15F740CD9FD54937D151E9DCF8AD3BA988D6A285E67E SWAP2 LOG3 POP POP POP POP JUMP JUMPDEST PUSH0 SWAP1 DUP2 MSTORE PUSH0 DUP1 MLOAD PUSH1 0x20 PUSH2 0x242C DUP4 CODECOPY DUP2 MLOAD SWAP2 MSTORE PUSH1 0x20 MSTORE PUSH1 0x40 SWAP1 KECCAK256 PUSH1 0x1 ADD SLOAD SWAP1 JUMP JUMPDEST PUSH2 0x972 DUP3 PUSH2 0x949 JUMP JUMPDEST PUSH2 0x97B DUP2 PUSH2 0x175C JUMP JUMPDEST PUSH2 0x985 DUP4 DUP4 PUSH2 0x1766 JUMP JUMPDEST POP POP POP POP JUMP JUMPDEST PUSH1 0x1 PUSH1 0x1 PUSH1 0xA0 SHL SUB DUP2 AND CALLER EQ PUSH2 0x9B4 JUMPI PUSH1 0x40 MLOAD PUSH4 0x334BD919 PUSH1 0xE1 SHL DUP2 MSTORE PUSH1 0x4 ADD PUSH1 0x40 MLOAD DUP1 SWAP2 SUB SWAP1 REVERT JUMPDEST PUSH2 0x9BE DUP3 DUP3 PUSH2 0x1807 JUMP JUMPDEST POP POP POP JUMP JUMPDEST PUSH0 DUP1 MLOAD PUSH1 0x20 PUSH2 0x240C DUP4 CODECOPY DUP2 MLOAD SWAP2 MSTORE PUSH2 0x9DA DUP2 PUSH2 0x175C JUMP JUMPDEST PUSH2 0x9E2 PUSH2 0x1880 JUMP JUMPDEST POP JUMP JUMPDEST PUSH2 0x9FC PUSH0 DUP1 MLOAD PUSH1 0x20 PUSH2 0x244C DUP4 CODECOPY DUP2 MLOAD SWAP2 MSTORE CALLER PUSH2 0xDBD JUMP JUMPDEST PUSH2 0xA18 JUMPI PUSH1 0x40 MLOAD PUSH3 0x461BCD PUSH1 0xE5 SHL DUP2 MSTORE PUSH1 0x4 ADD PUSH2 0x7E5 SWAP1 PUSH2 0x20D2 JUMP JUMPDEST PUSH1 0x32 DUP1 SLOAD PUSH1 0x1 PUSH1 0x1 PUSH1 0xA0 SHL SUB NOT AND PUSH1 0x1 PUSH1 0x1 PUSH1 0xA0 SHL SUB SWAP3 SWAP1 SWAP3 AND SWAP2 SWAP1 SWAP2 OR SWAP1 SSTORE JUMP JUMPDEST PUSH2 0xA42 PUSH2 0x18D1 JUMP JUMPDEST PUSH2 0xA4B DUP3 PUSH2 0x1977 JUMP JUMPDEST PUSH2 0xA55 DUP3 DUP3 PUSH2 0x19A1 JUMP JUMPDEST POP POP JUMP JUMPDEST PUSH0 PUSH2 0xA62 PUSH2 0x1A5D JUMP JUMPDEST POP PUSH0 DUP1 MLOAD PUSH1 0x20 PUSH2 0x23EC DUP4 CODECOPY DUP2 MLOAD SWAP2 MSTORE SWAP1 JUMP JUMPDEST PUSH32 0xF0C57E16840DF040F15088DC2F81FE391C3923BEC73E23A9662EFC9C229C6A00 DUP1 SLOAD PUSH1 0x1 PUSH1 0x40 SHL DUP2 DIV PUSH1 0xFF AND ISZERO SWAP1 PUSH8 0xFFFFFFFFFFFFFFFF AND PUSH0 DUP2 ISZERO DUP1 ISZERO PUSH2 0xAB9 JUMPI POP DUP3 JUMPDEST SWAP1 POP PUSH0 DUP3 PUSH8 0xFFFFFFFFFFFFFFFF AND PUSH1 0x1 EQ DUP1 ISZERO PUSH2 0xAD5 JUMPI POP ADDRESS EXTCODESIZE ISZERO JUMPDEST SWAP1 POP DUP2 ISZERO DUP1 ISZERO PUSH2 0xAE3 JUMPI POP DUP1 ISZERO JUMPDEST ISZERO PUSH2 0xB01 JUMPI PUSH1 0x40 MLOAD PUSH4 0xF92EE8A9 PUSH1 0xE0 SHL DUP2 MSTORE PUSH1 0x4 ADD PUSH1 0x40 MLOAD DUP1 SWAP2 SUB SWAP1 REVERT JUMPDEST DUP5 SLOAD PUSH8 0xFFFFFFFFFFFFFFFF NOT AND PUSH1 0x1 OR DUP6 SSTORE DUP4 ISZERO PUSH2 0xB2B JUMPI DUP5 SLOAD PUSH1 0xFF PUSH1 0x40 SHL NOT AND PUSH1 0x1 PUSH1 0x40 SHL OR DUP6 SSTORE JUMPDEST PUSH2 0xB33 PUSH2 0x1AA6 JUMP JUMPDEST PUSH2 0xB3B PUSH2 0x1AAE JUMP JUMPDEST PUSH2 0xB43 PUSH2 0x1AA6 JUMP JUMPDEST PUSH2 0xB4D PUSH0 DUP16 PUSH2 0x1766 JUMP JUMPDEST POP PUSH2 0xB65 PUSH0 DUP1 MLOAD PUSH1 0x20 PUSH2 0x240C DUP4 CODECOPY DUP2 MLOAD SWAP2 MSTORE DUP16 PUSH2 0x1766 JUMP JUMPDEST POP PUSH2 0xB7D PUSH0 DUP1 MLOAD PUSH1 0x20 PUSH2 0x244C DUP4 CODECOPY DUP2 MLOAD SWAP2 MSTORE DUP16 PUSH2 0x1766 JUMP JUMPDEST POP PUSH2 0xBA8 PUSH32 0x189AB7A9244DF0848122154315AF71FE140F3DB0FE014031783B0946B8C9D2E3 DUP16 PUSH2 0x1766 JUMP JUMPDEST POP PUSH1 0x3A DUP14 SWAP1 SSTORE PUSH1 0x3C DUP13 SWAP1 SSTORE PUSH1 0x32 DUP1 SLOAD PUSH1 0x1 PUSH1 0x1 PUSH1 0xA0 SHL SUB NOT SWAP1 DUP2 AND PUSH1 0x1 PUSH1 0x1 PUSH1 0xA0 SHL SUB DUP15 DUP2 AND SWAP2 SWAP1 SWAP2 OR SWAP1 SWAP3 SSTORE PUSH1 0x33 DUP1 SLOAD DUP3 AND DUP14 DUP5 AND OR SWAP1 SSTORE PUSH1 0x34 DUP1 SLOAD DUP3 AND DUP13 DUP5 AND OR SWAP1 SSTORE PUSH1 0x35 DUP1 SLOAD DUP3 AND DUP12 DUP5 AND OR SWAP1 SSTORE PUSH1 0x36 DUP1 SLOAD DUP3 AND DUP11 DUP5 AND OR SWAP1 SSTORE PUSH1 0x37 DUP1 SLOAD SWAP1 SWAP2 AND SWAP2 DUP9 AND SWAP2 SWAP1 SWAP2 OR SWAP1 SSTORE DUP4 ISZERO PUSH2 0xC5B JUMPI DUP5 SLOAD PUSH1 0xFF PUSH1 0x40 SHL NOT AND DUP6 SSTORE PUSH1 0x40 MLOAD PUSH1 0x1 DUP2 MSTORE PUSH32 0xC7F505B2F371AE2175EE4913F4499E1F2633A7B5936321EED1CDAEB6115181D2 SWAP1 PUSH1 0x20 ADD PUSH1 0x40 MLOAD DUP1 SWAP2 SUB SWAP1 LOG1 JUMPDEST POP POP POP POP POP POP POP POP POP POP POP POP POP POP JUMP JUMPDEST PUSH2 0xC73 PUSH2 0x1ABE JUMP JUMPDEST PUSH1 0x32 SLOAD PUSH1 0x40 MLOAD PUSH4 0x23B872DD PUSH1 0xE0 SHL DUP2 MSTORE CALLER PUSH1 0x4 DUP3 ADD MSTORE ADDRESS PUSH1 0x24 DUP3 ADD MSTORE PUSH1 0x44 DUP2 ADD DUP4 SWAP1 MSTORE PUSH1 0x1 PUSH1 0x1 PUSH1 0xA0 SHL SUB SWAP1 SWAP2 AND SWAP1 DUP2 SWAP1 PUSH4 0x23B872DD SWAP1 PUSH1 0x64 ADD PUSH1 0x20 PUSH1 0x40 MLOAD DUP1 DUP4 SUB DUP2 PUSH0 DUP8 GAS CALL ISZERO DUP1 ISZERO PUSH2 0xCC9 JUMPI RETURNDATASIZE PUSH0 DUP1 RETURNDATACOPY RETURNDATASIZE PUSH0 REVERT JUMPDEST POP POP POP POP PUSH1 0x40 MLOAD RETURNDATASIZE PUSH1 0x1F NOT PUSH1 0x1F DUP3 ADD AND DUP3 ADD DUP1 PUSH1 0x40 MSTORE POP DUP2 ADD SWAP1 PUSH2 0xCED SWAP2 SWAP1 PUSH2 0x21A1 JUMP JUMPDEST PUSH2 0xD31 JUMPI PUSH1 0x40 MLOAD PUSH3 0x461BCD PUSH1 0xE5 SHL DUP2 MSTORE PUSH1 0x20 PUSH1 0x4 DUP3 ADD MSTORE PUSH1 0x15 PUSH1 0x24 DUP3 ADD MSTORE PUSH21 0x151BDAD95B881D1C985B9CD9995C8819985A5B1959 PUSH1 0x5A SHL PUSH1 0x44 DUP3 ADD MSTORE PUSH1 0x64 ADD PUSH2 0x7E5 JUMP JUMPDEST PUSH1 0x40 DUP1 MLOAD DUP1 DUP3 ADD DUP3 MSTORE DUP4 DUP2 MSTORE TIMESTAMP PUSH1 0x20 DUP1 DUP4 ADD DUP3 DUP2 MSTORE CALLER PUSH0 DUP2 DUP2 MSTORE PUSH1 0x3B DUP5 MSTORE DUP7 SWAP1 KECCAK256 SWAP5 MLOAD DUP6 SSTORE SWAP1 MLOAD PUSH1 0x1 SWAP1 SWAP5 ADD SWAP4 SWAP1 SWAP4 SSTORE DUP4 MLOAD DUP7 DUP2 MSTORE SWAP1 DUP2 ADD SWAP2 SWAP1 SWAP2 MSTORE SWAP1 SWAP2 PUSH32 0xDD2A19C3BDD089CBE77C04F5655F83DE0504D6140D12C8667646F55D0557C4DC SWAP2 ADD PUSH1 0x40 MLOAD DUP1 SWAP2 SUB SWAP1 LOG2 POP POP JUMP JUMPDEST PUSH0 DUP1 MLOAD PUSH1 0x20 PUSH2 0x240C DUP4 CODECOPY DUP2 MLOAD SWAP2 MSTORE PUSH2 0xDB5 DUP2 PUSH2 0x175C JUMP JUMPDEST PUSH2 0x9E2 PUSH2 0x1B03 JUMP JUMPDEST PUSH0 SWAP2 DUP3 MSTORE PUSH0 DUP1 MLOAD PUSH1 0x20 PUSH2 0x242C DUP4 CODECOPY DUP2 MLOAD SWAP2 MSTORE PUSH1 0x20 SWAP1 DUP2 MSTORE PUSH1 0x40 DUP1 DUP5 KECCAK256 PUSH1 0x1 PUSH1 0x1 PUSH1 0xA0 SHL SUB SWAP4 SWAP1 SWAP4 AND DUP5 MSTORE SWAP2 SWAP1 MSTORE SWAP1 KECCAK256 SLOAD PUSH1 0xFF AND SWAP1 JUMP JUMPDEST PUSH2 0xE0A PUSH0 DUP1 MLOAD PUSH1 0x20 PUSH2 0x244C DUP4 CODECOPY DUP2 MLOAD SWAP2 MSTORE CALLER PUSH2 0xDBD JUMP JUMPDEST PUSH2 0xE26 JUMPI PUSH1 0x40 MLOAD PUSH3 0x461BCD PUSH1 0xE5 SHL DUP2 MSTORE PUSH1 0x4 ADD PUSH2 0x7E5 SWAP1 PUSH2 0x20D2 JUMP JUMPDEST PUSH1 0x35 DUP1 SLOAD PUSH1 0x1 PUSH1 0x1 PUSH1 0xA0 SHL SUB NOT AND PUSH1 0x1 PUSH1 0x1 PUSH1 0xA0 SHL SUB SWAP3 SWAP1 SWAP3 AND SWAP2 SWAP1 SWAP2 OR SWAP1 SSTORE JUMP JUMPDEST PUSH2 0xE5F PUSH0 DUP1 MLOAD PUSH1 0x20 PUSH2 0x244C DUP4 CODECOPY DUP2 MLOAD SWAP2 MSTORE CALLER PUSH2 0xDBD JUMP JUMPDEST PUSH2 0xE7B JUMPI PUSH1 0x40 MLOAD PUSH3 0x461BCD PUSH1 0xE5 SHL DUP2 MSTORE PUSH1 0x4 ADD PUSH2 0x7E5 SWAP1 PUSH2 0x20D2 JUMP JUMPDEST PUSH1 0x33 DUP1 SLOAD PUSH1 0x1 PUSH1 0x1 PUSH1 0xA0 SHL SUB NOT AND PUSH1 0x1 PUSH1 0x1 PUSH1 0xA0 SHL SUB SWAP3 SWAP1 SWAP3 AND SWAP2 SWAP1 SWAP2 OR SWAP1 SSTORE JUMP JUMPDEST PUSH1 0x39 DUP2 DUP2 SLOAD DUP2 LT PUSH2 0xEAC JUMPI PUSH0 DUP1 REVERT JUMPDEST PUSH0 SWAP2 DUP3 MSTORE PUSH1 0x20 SWAP1 SWAP2 KECCAK256 PUSH1 0x5 SWAP1 SWAP2 MUL ADD DUP1 SLOAD PUSH1 0x1 DUP3 ADD SLOAD PUSH1 0x2 DUP4 ADD DUP1 SLOAD PUSH1 0x1 PUSH1 0x1 PUSH1 0xA0 SHL SUB SWAP1 SWAP4 AND SWAP5 POP SWAP1 SWAP3 SWAP2 PUSH2 0xEE1 SWAP1 PUSH2 0x21C0 JUMP JUMPDEST DUP1 PUSH1 0x1F ADD PUSH1 0x20 DUP1 SWAP2 DIV MUL PUSH1 0x20 ADD PUSH1 0x40 MLOAD SWAP1 DUP2 ADD PUSH1 0x40 MSTORE DUP1 SWAP3 SWAP2 SWAP1 DUP2 DUP2 MSTORE PUSH1 0x20 ADD DUP3 DUP1 SLOAD PUSH2 0xF0D SWAP1 PUSH2 0x21C0 JUMP JUMPDEST DUP1 ISZERO PUSH2 0xF58 JUMPI DUP1 PUSH1 0x1F LT PUSH2 0xF2F JUMPI PUSH2 0x100 DUP1 DUP4 SLOAD DIV MUL DUP4 MSTORE SWAP2 PUSH1 0x20 ADD SWAP2 PUSH2 0xF58 JUMP JUMPDEST DUP3 ADD SWAP2 SWAP1 PUSH0 MSTORE PUSH1 0x20 PUSH0 KECCAK256 SWAP1 JUMPDEST DUP2 SLOAD DUP2 MSTORE SWAP1 PUSH1 0x1 ADD SWAP1 PUSH1 0x20 ADD DUP1 DUP4 GT PUSH2 0xF3B JUMPI DUP3 SWAP1 SUB PUSH1 0x1F AND DUP3 ADD SWAP2 JUMPDEST POP POP POP POP PUSH1 0x3 DUP4 ADD SLOAD PUSH1 0x4 SWAP1 SWAP4 ADD SLOAD SWAP2 SWAP3 PUSH1 0xFF AND SWAP2 SWAP1 POP DUP6 JUMP JUMPDEST PUSH2 0xF7A PUSH2 0x1ABE JUMP JUMPDEST CALLER PUSH0 SWAP1 DUP2 MSTORE PUSH1 0x3B PUSH1 0x20 SWAP1 DUP2 MSTORE PUSH1 0x40 SWAP2 DUP3 SWAP1 KECCAK256 DUP3 MLOAD DUP1 DUP5 ADD SWAP1 SWAP4 MSTORE DUP1 SLOAD DUP1 DUP5 MSTORE PUSH1 0x1 SWAP1 SWAP2 ADD SLOAD SWAP2 DUP4 ADD SWAP2 SWAP1 SWAP2 MSTORE PUSH2 0xFE5 JUMPI PUSH1 0x40 MLOAD PUSH3 0x461BCD PUSH1 0xE5 SHL DUP2 MSTORE PUSH1 0x20 PUSH1 0x4 DUP3 ADD MSTORE PUSH1 0x10 PUSH1 0x24 DUP3 ADD MSTORE PUSH16 0x139BC81D1BDAD95B9CC81CDD185AD959 PUSH1 0x82 SHL PUSH1 0x44 DUP3 ADD MSTORE PUSH1 0x64 ADD PUSH2 0x7E5 JUMP JUMPDEST PUSH0 DUP2 PUSH1 0x20 ADD MLOAD TIMESTAMP PUSH2 0xFF6 SWAP2 SWAP1 PUSH2 0x218E JUMP JUMPDEST SWAP1 POP PUSH0 PUSH4 0x1E13380 DUP3 PUSH1 0x3C SLOAD DUP6 PUSH0 ADD MLOAD PUSH2 0x1010 SWAP2 SWAP1 PUSH2 0x21F8 JUMP JUMPDEST PUSH2 0x101A SWAP2 SWAP1 PUSH2 0x21F8 JUMP JUMPDEST PUSH2 0x1024 SWAP2 SWAP1 PUSH2 0x220F JUMP JUMPDEST PUSH1 0x32 SLOAD DUP5 MLOAD SWAP2 SWAP3 POP PUSH1 0x1 PUSH1 0x1 PUSH1 0xA0 SHL SUB AND SWAP1 DUP2 SWAP1 PUSH4 0xA9059CBB SWAP1 CALLER SWAP1 PUSH2 0x104B SWAP1 DUP7 SWAP1 PUSH2 0x222E JUMP JUMPDEST PUSH1 0x40 MLOAD PUSH1 0x1 PUSH1 0x1 PUSH1 0xE0 SHL SUB NOT PUSH1 0xE0 DUP6 SWAP1 SHL AND DUP2 MSTORE PUSH1 0x1 PUSH1 0x1 PUSH1 0xA0 SHL SUB SWAP1 SWAP3 AND PUSH1 0x4 DUP4 ADD MSTORE PUSH1 0x24 DUP3 ADD MSTORE PUSH1 0x44 ADD PUSH1 0x20 PUSH1 0x40 MLOAD DUP1 DUP4 SUB DUP2 PUSH0 DUP8 GAS CALL ISZERO DUP1 ISZERO PUSH2 0x1093 JUMPI RETURNDATASIZE PUSH0 DUP1 RETURNDATACOPY RETURNDATASIZE PUSH0 REVERT JUMPDEST POP POP POP POP PUSH1 0x40 MLOAD RETURNDATASIZE PUSH1 0x1F NOT PUSH1 0x1F DUP3 ADD AND DUP3 ADD DUP1 PUSH1 0x40 MSTORE POP DUP2 ADD SWAP1 PUSH2 0x10B7 SWAP2 SWAP1 PUSH2 0x21A1 JUMP JUMPDEST PUSH2 0x10FB JUMPI PUSH1 0x40 MLOAD PUSH3 0x461BCD PUSH1 0xE5 SHL DUP2 MSTORE PUSH1 0x20 PUSH1 0x4 DUP3 ADD MSTORE PUSH1 0x15 PUSH1 0x24 DUP3 ADD MSTORE PUSH21 0x151BDAD95B881D1C985B9CD9995C8819985A5B1959 PUSH1 0x5A SHL PUSH1 0x44 DUP3 ADD MSTORE PUSH1 0x64 ADD PUSH2 0x7E5 JUMP JUMPDEST CALLER PUSH0 DUP2 DUP2 MSTORE PUSH1 0x3B PUSH1 0x20 SWAP1 DUP2 MSTORE PUSH1 0x40 DUP1 DUP4 KECCAK256 DUP4 DUP2 SSTORE PUSH1 0x1 ADD SWAP3 SWAP1 SWAP3 SSTORE DUP7 MLOAD DUP3 MLOAD SWAP1 DUP2 MSTORE SWAP1 DUP2 ADD DUP6 SWAP1 MSTORE PUSH32 0x6F2D3E000C89D37446B7C0374C0125068FF316D1E3EE302336478A8CD03C2336 SWAP2 ADD PUSH1 0x40 MLOAD DUP1 SWAP2 SUB SWAP1 LOG2 POP POP POP POP JUMP JUMPDEST PUSH2 0x116B PUSH0 DUP1 MLOAD PUSH1 0x20 PUSH2 0x244C DUP4 CODECOPY DUP2 MLOAD SWAP2 MSTORE CALLER PUSH2 0xDBD JUMP JUMPDEST PUSH2 0x1187 JUMPI PUSH1 0x40 MLOAD PUSH3 0x461BCD PUSH1 0xE5 SHL DUP2 MSTORE PUSH1 0x4 ADD PUSH2 0x7E5 SWAP1 PUSH2 0x20D2 JUMP JUMPDEST PUSH1 0x37 DUP1 SLOAD PUSH1 0x1 PUSH1 0x1 PUSH1 0xA0 SHL SUB NOT AND PUSH1 0x1 PUSH1 0x1 PUSH1 0xA0 SHL SUB SWAP3 SWAP1 SWAP3 AND SWAP2 SWAP1 SWAP2 OR SWAP1 SSTORE JUMP JUMPDEST PUSH2 0x11C0 PUSH0 DUP1 MLOAD PUSH1 0x20 PUSH2 0x244C DUP4 CODECOPY DUP2 MLOAD SWAP2 MSTORE CALLER PUSH2 0xDBD JUMP JUMPDEST PUSH2 0x11DC JUMPI PUSH1 0x40 MLOAD PUSH3 0x461BCD PUSH1 0xE5 SHL DUP2 MSTORE PUSH1 0x4 ADD PUSH2 0x7E5 SWAP1 PUSH2 0x20D2 JUMP JUMPDEST PUSH1 0x39 SLOAD DUP2 SWAP1 DUP2 LT PUSH2 0x11FF JUMPI PUSH1 0x40 MLOAD PUSH3 0x461BCD PUSH1 0xE5 SHL DUP2 MSTORE PUSH1 0x4 ADD PUSH2 0x7E5 SWAP1 PUSH2 0x20F8 JUMP JUMPDEST DUP2 PUSH1 0x39 DUP2 DUP2 SLOAD DUP2 LT PUSH2 0x1213 JUMPI PUSH2 0x1213 PUSH2 0x212F JUMP JUMPDEST PUSH0 SWAP2 DUP3 MSTORE PUSH1 0x20 SWAP1 SWAP2 KECCAK256 PUSH1 0x3 PUSH1 0x5 SWAP1 SWAP3 MUL ADD ADD SLOAD PUSH1 0xFF AND ISZERO PUSH2 0x1246 JUMPI PUSH1 0x40 MLOAD PUSH3 0x461BCD PUSH1 0xE5 SHL DUP2 MSTORE PUSH1 0x4 ADD PUSH2 0x7E5 SWAP1 PUSH2 0x2143 JUMP JUMPDEST PUSH0 DUP4 DUP2 MSTORE PUSH1 0x38 PUSH1 0x20 SWAP1 DUP2 MSTORE PUSH1 0x40 DUP1 DUP4 KECCAK256 CALLER DUP5 MSTORE SWAP1 SWAP2 MSTORE SWAP1 KECCAK256 SLOAD DUP4 SWAP1 PUSH1 0xFF AND ISZERO PUSH2 0x12B1 JUMPI PUSH1 0x40 MLOAD PUSH3 0x461BCD PUSH1 0xE5 SHL DUP2 MSTORE PUSH1 0x20 PUSH1 0x4 DUP3 ADD MSTORE PUSH1 0x1D PUSH1 0x24 DUP3 ADD MSTORE PUSH32 0x5472616E73616374696F6E20616C726561647920636F6E6669726D6564000000 PUSH1 0x44 DUP3 ADD MSTORE PUSH1 0x64 ADD PUSH2 0x7E5 JUMP JUMPDEST PUSH0 PUSH1 0x39 DUP6 DUP2 SLOAD DUP2 LT PUSH2 0x12C5 JUMPI PUSH2 0x12C5 PUSH2 0x212F JUMP JUMPDEST SWAP1 PUSH0 MSTORE PUSH1 0x20 PUSH0 KECCAK256 SWAP1 PUSH1 0x5 MUL ADD SWAP1 POP PUSH1 0x1 DUP2 PUSH1 0x4 ADD PUSH0 DUP3 DUP3 SLOAD PUSH2 0x12E7 SWAP2 SWAP1 PUSH2 0x222E JUMP JUMPDEST SWAP1 SWAP2 SSTORE POP POP PUSH0 DUP6 DUP2 MSTORE PUSH1 0x38 PUSH1 0x20 SWAP1 DUP2 MSTORE PUSH1 0x40 DUP1 DUP4 KECCAK256 CALLER DUP1 DUP6 MSTORE SWAP3 MSTORE DUP1 DUP4 KECCAK256 DUP1 SLOAD PUSH1 0xFF NOT AND PUSH1 0x1 OR SWAP1 SSTORE MLOAD DUP8 SWAP3 PUSH32 0xF8A17C9136A3AE33364FAC05EB088A3CBAFEE10C1889C88593E20EE2D8E4EB88 SWAP2 LOG3 POP POP POP POP POP JUMP JUMPDEST PUSH2 0x1354 PUSH0 DUP1 MLOAD PUSH1 0x20 PUSH2 0x244C DUP4 CODECOPY DUP2 MLOAD SWAP2 MSTORE CALLER PUSH2 0xDBD JUMP JUMPDEST PUSH2 0x1370 JUMPI PUSH1 0x40 MLOAD PUSH3 0x461BCD PUSH1 0xE5 SHL DUP2 MSTORE PUSH1 0x4 ADD PUSH2 0x7E5 SWAP1 PUSH2 0x20D2 JUMP JUMPDEST PUSH1 0x39 DUP1 SLOAD PUSH1 0x40 DUP1 MLOAD PUSH1 0xA0 DUP2 ADD DUP3 MSTORE PUSH1 0x1 PUSH1 0x1 PUSH1 0xA0 SHL SUB DUP8 DUP2 AND DUP3 MSTORE PUSH1 0x20 DUP3 ADD DUP8 DUP2 MSTORE SWAP3 DUP3 ADD DUP7 DUP2 MSTORE PUSH0 PUSH1 0x60 DUP5 ADD DUP2 SWAP1 MSTORE PUSH1 0x80 DUP5 ADD DUP2 SWAP1 MSTORE PUSH1 0x1 DUP7 ADD DUP8 SSTORE SWAP6 SWAP1 SWAP6 MSTORE DUP2 MLOAD PUSH32 0xDC16FEF70F8D5DDBC01EE3D903D1E69C18A3C7BE080EB86A81E0578814EE58D3 PUSH1 0x5 DUP7 MUL SWAP1 DUP2 ADD DUP1 SLOAD PUSH1 0x1 PUSH1 0x1 PUSH1 0xA0 SHL SUB NOT AND SWAP3 SWAP1 SWAP4 AND SWAP2 SWAP1 SWAP2 OR DUP3 SSTORE SWAP3 MLOAD PUSH32 0xDC16FEF70F8D5DDBC01EE3D903D1E69C18A3C7BE080EB86A81E0578814EE58D4 DUP5 ADD SSTORE SWAP4 MLOAD SWAP3 SWAP4 SWAP1 SWAP3 SWAP1 SWAP2 PUSH32 0xDC16FEF70F8D5DDBC01EE3D903D1E69C18A3C7BE080EB86A81E0578814EE58D5 ADD SWAP1 PUSH2 0x144C SWAP1 DUP3 PUSH2 0x228C JUMP JUMPDEST POP PUSH1 0x60 DUP3 ADD MLOAD PUSH1 0x3 DUP3 ADD DUP1 SLOAD PUSH1 0xFF NOT AND SWAP2 ISZERO ISZERO SWAP2 SWAP1 SWAP2 OR SWAP1 SSTORE PUSH1 0x80 SWAP1 SWAP2 ADD MLOAD PUSH1 0x4 SWAP1 SWAP2 ADD SSTORE PUSH1 0x40 MLOAD DUP2 SWAP1 PUSH32 0xD0B5D9EAC097410294EC9F2CEE7CD185CF31AB46BABF3DFDBEAC8B222B03F2D1 SWAP1 PUSH0 SWAP1 LOG2 POP POP POP POP JUMP JUMPDEST PUSH2 0x14AA DUP3 PUSH2 0x949 JUMP JUMPDEST PUSH2 0x14B3 DUP2 PUSH2 0x175C JUMP JUMPDEST PUSH2 0x985 DUP4 DUP4 PUSH2 0x1807 JUMP JUMPDEST PUSH2 0x14D4 PUSH0 DUP1 MLOAD PUSH1 0x20 PUSH2 0x244C DUP4 CODECOPY DUP2 MLOAD SWAP2 MSTORE CALLER PUSH2 0xDBD JUMP JUMPDEST PUSH2 0x14F0 JUMPI PUSH1 0x40 MLOAD PUSH3 0x461BCD PUSH1 0xE5 SHL DUP2 MSTORE PUSH1 0x4 ADD PUSH2 0x7E5 SWAP1 PUSH2 0x20D2 JUMP JUMPDEST PUSH1 0x34 DUP1 SLOAD PUSH1 0x1 PUSH1 0x1 PUSH1 0xA0 SHL SUB NOT AND PUSH1 0x1 PUSH1 0x1 PUSH1 0xA0 SHL SUB SWAP3 SWAP1 SWAP3 AND SWAP2 SWAP1 SWAP2 OR SWAP1 SSTORE JUMP JUMPDEST PUSH2 0x1529 PUSH0 DUP1 MLOAD PUSH1 0x20 PUSH2 0x244C DUP4 CODECOPY DUP2 MLOAD SWAP2 MSTORE CALLER PUSH2 0xDBD JUMP JUMPDEST PUSH2 0x1545 JUMPI PUSH1 0x40 MLOAD PUSH3 0x461BCD PUSH1 0xE5 SHL DUP2 MSTORE PUSH1 0x4 ADD PUSH2 0x7E5 SWAP1 PUSH2 0x20D2 JUMP JUMPDEST PUSH1 0x39 SLOAD DUP2 SWAP1 DUP2 LT PUSH2 0x1568 JUMPI PUSH1 0x40 MLOAD PUSH3 0x461BCD PUSH1 0xE5 SHL DUP2 MSTORE PUSH1 0x4 ADD PUSH2 0x7E5 SWAP1 PUSH2 0x20F8 JUMP JUMPDEST DUP2 PUSH1 0x39 DUP2 DUP2 SLOAD DUP2 LT PUSH2 0x157C JUMPI PUSH2 0x157C PUSH2 0x212F JUMP JUMPDEST PUSH0 SWAP2 DUP3 MSTORE PUSH1 0x20 SWAP1 SWAP2 KECCAK256 PUSH1 0x3 PUSH1 0x5 SWAP1 SWAP3 MUL ADD ADD SLOAD PUSH1 0xFF AND ISZERO PUSH2 0x15AF JUMPI PUSH1 0x40 MLOAD PUSH3 0x461BCD PUSH1 0xE5 SHL DUP2 MSTORE PUSH1 0x4 ADD PUSH2 0x7E5 SWAP1 PUSH2 0x2143 JUMP JUMPDEST PUSH0 PUSH1 0x39 DUP5 DUP2 SLOAD DUP2 LT PUSH2 0x15C3 JUMPI PUSH2 0x15C3 PUSH2 0x212F JUMP JUMPDEST SWAP1 PUSH0 MSTORE PUSH1 0x20 PUSH0 KECCAK256 SWAP1 PUSH1 0x5 MUL ADD SWAP1 POP PUSH1 0x3A SLOAD DUP2 PUSH1 0x4 ADD SLOAD LT ISZERO PUSH2 0x161B JUMPI PUSH1 0x40 MLOAD PUSH3 0x461BCD PUSH1 0xE5 SHL DUP2 MSTORE PUSH1 0x20 PUSH1 0x4 DUP3 ADD MSTORE PUSH1 0x11 PUSH1 0x24 DUP3 ADD MSTORE PUSH17 0x86C2DCDCDEE840CAF0CAC6EAE8CA40E8F PUSH1 0x7B SHL PUSH1 0x44 DUP3 ADD MSTORE PUSH1 0x64 ADD PUSH2 0x7E5 JUMP JUMPDEST PUSH1 0x3 DUP2 ADD DUP1 SLOAD PUSH1 0xFF NOT AND PUSH1 0x1 SWAP1 DUP2 OR SWAP1 SWAP2 SSTORE DUP2 SLOAD SWAP1 DUP3 ADD SLOAD PUSH1 0x40 MLOAD PUSH0 SWAP3 PUSH1 0x1 PUSH1 0x1 PUSH1 0xA0 SHL SUB AND SWAP2 SWAP1 PUSH2 0x1651 SWAP1 PUSH1 0x2 DUP7 ADD SWAP1 PUSH2 0x234C JUMP JUMPDEST PUSH0 PUSH1 0x40 MLOAD DUP1 DUP4 SUB DUP2 DUP6 DUP8 GAS CALL SWAP3 POP POP POP RETURNDATASIZE DUP1 PUSH0 DUP2 EQ PUSH2 0x168B JUMPI PUSH1 0x40 MLOAD SWAP2 POP PUSH1 0x1F NOT PUSH1 0x3F RETURNDATASIZE ADD AND DUP3 ADD PUSH1 0x40 MSTORE RETURNDATASIZE DUP3 MSTORE RETURNDATASIZE PUSH0 PUSH1 0x20 DUP5 ADD RETURNDATACOPY PUSH2 0x1690 JUMP JUMPDEST PUSH1 0x60 SWAP2 POP JUMPDEST POP POP SWAP1 POP DUP1 PUSH2 0x16D6 JUMPI PUSH1 0x40 MLOAD PUSH3 0x461BCD PUSH1 0xE5 SHL DUP2 MSTORE PUSH1 0x20 PUSH1 0x4 DUP3 ADD MSTORE PUSH1 0x12 PUSH1 0x24 DUP3 ADD MSTORE PUSH18 0x151C985B9CD858DD1A5BDB8819985A5B1959 PUSH1 0x72 SHL PUSH1 0x44 DUP3 ADD MSTORE PUSH1 0x64 ADD PUSH2 0x7E5 JUMP JUMPDEST PUSH1 0x40 MLOAD DUP6 SWAP1 PUSH32 0x15ED165A284872EA7017F03DF402A0CADFBFAB588320FFAF83F160C2F82781C7 SWAP1 PUSH0 SWAP1 LOG2 POP POP POP POP POP JUMP JUMPDEST PUSH2 0x171E PUSH0 DUP1 MLOAD PUSH1 0x20 PUSH2 0x244C DUP4 CODECOPY DUP2 MLOAD SWAP2 MSTORE CALLER PUSH2 0xDBD JUMP JUMPDEST PUSH2 0x173A JUMPI PUSH1 0x40 MLOAD PUSH3 0x461BCD PUSH1 0xE5 SHL DUP2 MSTORE PUSH1 0x4 ADD PUSH2 0x7E5 SWAP1 PUSH2 0x20D2 JUMP JUMPDEST PUSH1 0x36 DUP1 SLOAD PUSH1 0x1 PUSH1 0x1 PUSH1 0xA0 SHL SUB NOT AND PUSH1 0x1 PUSH1 0x1 PUSH1 0xA0 SHL SUB SWAP3 SWAP1 SWAP3 AND SWAP2 SWAP1 SWAP2 OR SWAP1 SSTORE JUMP JUMPDEST PUSH2 0x9E2 DUP2 CALLER PUSH2 0x1B3F JUMP JUMPDEST PUSH0 PUSH0 DUP1 MLOAD PUSH1 0x20 PUSH2 0x242C DUP4 CODECOPY DUP2 MLOAD SWAP2 MSTORE PUSH2 0x177F DUP5 DUP5 PUSH2 0xDBD JUMP JUMPDEST PUSH2 0x17FE JUMPI PUSH0 DUP5 DUP2 MSTORE PUSH1 0x20 DUP3 DUP2 MSTORE PUSH1 0x40 DUP1 DUP4 KECCAK256 PUSH1 0x1 PUSH1 0x1 PUSH1 0xA0 SHL SUB DUP8 AND DUP5 MSTORE SWAP1 SWAP2 MSTORE SWAP1 KECCAK256 DUP1 SLOAD PUSH1 0xFF NOT AND PUSH1 0x1 OR SWAP1 SSTORE PUSH2 0x17B4 CALLER SWAP1 JUMP JUMPDEST PUSH1 0x1 PUSH1 0x1 PUSH1 0xA0 SHL SUB AND DUP4 PUSH1 0x1 PUSH1 0x1 PUSH1 0xA0 SHL SUB AND DUP6 PUSH32 0x2F8788117E7EFF1D82E926EC794901D17C78024A50270940304540A733656F0D PUSH1 0x40 MLOAD PUSH1 0x40 MLOAD DUP1 SWAP2 SUB SWAP1 LOG4 PUSH1 0x1 SWAP2 POP POP PUSH2 0x7AC JUMP JUMPDEST PUSH0 SWAP2 POP POP PUSH2 0x7AC JUMP JUMPDEST PUSH0 PUSH0 DUP1 MLOAD PUSH1 0x20 PUSH2 0x242C DUP4 CODECOPY DUP2 MLOAD SWAP2 MSTORE PUSH2 0x1820 DUP5 DUP5 PUSH2 0xDBD JUMP JUMPDEST ISZERO PUSH2 0x17FE JUMPI PUSH0 DUP5 DUP2 MSTORE PUSH1 0x20 DUP3 DUP2 MSTORE PUSH1 0x40 DUP1 DUP4 KECCAK256 PUSH1 0x1 PUSH1 0x1 PUSH1 0xA0 SHL SUB DUP8 AND DUP1 DUP6 MSTORE SWAP3 MSTORE DUP1 DUP4 KECCAK256 DUP1 SLOAD PUSH1 0xFF NOT AND SWAP1 SSTORE MLOAD CALLER SWAP3 DUP8 SWAP2 PUSH32 0xF6391F5C32D9C69D2A47EA670B442974B53935D1EDC7FD64EB21E047A839171B SWAP2 SWAP1 LOG4 PUSH1 0x1 SWAP2 POP POP PUSH2 0x7AC JUMP JUMPDEST PUSH2 0x1888 PUSH2 0x1B78 JUMP JUMPDEST PUSH0 DUP1 SLOAD PUSH1 0xFF NOT AND SWAP1 SSTORE PUSH32 0x5DB9EE0A495BF2E6FF9C91A7834C1BA4FDD244A5E8AA4E537BD38AEAE4B073AA CALLER JUMPDEST PUSH1 0x40 MLOAD PUSH1 0x1 PUSH1 0x1 PUSH1 0xA0 SHL SUB SWAP1 SWAP2 AND DUP2 MSTORE PUSH1 0x20 ADD PUSH1 0x40 MLOAD DUP1 SWAP2 SUB SWAP1 LOG1 JUMP JUMPDEST ADDRESS PUSH1 0x1 PUSH1 0x1 PUSH1 0xA0 SHL SUB PUSH32 0x0 AND EQ DUP1 PUSH2 0x1957 JUMPI POP PUSH32 0x0 PUSH1 0x1 PUSH1 0x1 PUSH1 0xA0 SHL SUB AND PUSH2 0x194B PUSH0 DUP1 MLOAD PUSH1 0x20 PUSH2 0x23EC DUP4 CODECOPY DUP2 MLOAD SWAP2 MSTORE SLOAD PUSH1 0x1 PUSH1 0x1 PUSH1 0xA0 SHL SUB AND SWAP1 JUMP JUMPDEST PUSH1 0x1 PUSH1 0x1 PUSH1 0xA0 SHL SUB AND EQ ISZERO JUMPDEST ISZERO PUSH2 0x1975 JUMPI PUSH1 0x40 MLOAD PUSH4 0x703E46DD PUSH1 0xE1 SHL DUP2 MSTORE PUSH1 0x4 ADD PUSH1 0x40 MLOAD DUP1 SWAP2 SUB SWAP1 REVERT JUMPDEST JUMP JUMPDEST PUSH32 0x189AB7A9244DF0848122154315AF71FE140F3DB0FE014031783B0946B8C9D2E3 PUSH2 0xA55 DUP2 PUSH2 0x175C JUMP JUMPDEST DUP2 PUSH1 0x1 PUSH1 0x1 PUSH1 0xA0 SHL SUB AND PUSH4 0x52D1902D PUSH1 0x40 MLOAD DUP2 PUSH4 0xFFFFFFFF AND PUSH1 0xE0 SHL DUP2 MSTORE PUSH1 0x4 ADD PUSH1 0x20 PUSH1 0x40 MLOAD DUP1 DUP4 SUB DUP2 DUP7 GAS STATICCALL SWAP3 POP POP POP DUP1 ISZERO PUSH2 0x19FB JUMPI POP PUSH1 0x40 DUP1 MLOAD PUSH1 0x1F RETURNDATASIZE SWAP1 DUP2 ADD PUSH1 0x1F NOT AND DUP3 ADD SWAP1 SWAP3 MSTORE PUSH2 0x19F8 SWAP2 DUP2 ADD SWAP1 PUSH2 0x23BE JUMP JUMPDEST PUSH1 0x1 JUMPDEST PUSH2 0x1A23 JUMPI PUSH1 0x40 MLOAD PUSH4 0x4C9C8CE3 PUSH1 0xE0 SHL DUP2 MSTORE PUSH1 0x1 PUSH1 0x1 PUSH1 0xA0 SHL SUB DUP4 AND PUSH1 0x4 DUP3 ADD MSTORE PUSH1 0x24 ADD PUSH2 0x7E5 JUMP JUMPDEST PUSH0 DUP1 MLOAD PUSH1 0x20 PUSH2 0x23EC DUP4 CODECOPY DUP2 MLOAD SWAP2 MSTORE DUP2 EQ PUSH2 0x1A53 JUMPI PUSH1 0x40 MLOAD PUSH4 0x2A875269 PUSH1 0xE2 SHL DUP2 MSTORE PUSH1 0x4 DUP2 ADD DUP3 SWAP1 MSTORE PUSH1 0x24 ADD PUSH2 0x7E5 JUMP JUMPDEST PUSH2 0x9BE DUP4 DUP4 PUSH2 0x1BC0 JUMP JUMPDEST ADDRESS PUSH1 0x1 PUSH1 0x1 PUSH1 0xA0 SHL SUB PUSH32 0x0 AND EQ PUSH2 0x1975 JUMPI PUSH1 0x40 MLOAD PUSH4 0x703E46DD PUSH1 0xE1 SHL DUP2 MSTORE PUSH1 0x4 ADD PUSH1 0x40 MLOAD DUP1 SWAP2 SUB SWAP1 REVERT JUMPDEST PUSH2 0x1975 PUSH2 0x1C15 JUMP JUMPDEST PUSH2 0x1AB6 PUSH2 0x1C15 JUMP JUMPDEST PUSH2 0x1975 PUSH2 0x1C5E JUMP JUMPDEST PUSH0 SLOAD PUSH1 0xFF AND ISZERO PUSH2 0x1975 JUMPI PUSH1 0x40 MLOAD PUSH3 0x461BCD PUSH1 0xE5 SHL DUP2 MSTORE PUSH1 0x20 PUSH1 0x4 DUP3 ADD MSTORE PUSH1 0x10 PUSH1 0x24 DUP3 ADD MSTORE PUSH16 0x14185D5CD8589B194E881C185D5CD959 PUSH1 0x82 SHL PUSH1 0x44 DUP3 ADD MSTORE PUSH1 0x64 ADD PUSH2 0x7E5 JUMP JUMPDEST PUSH2 0x1B0B PUSH2 0x1ABE JUMP JUMPDEST PUSH0 DUP1 SLOAD PUSH1 0xFF NOT AND PUSH1 0x1 OR SWAP1 SSTORE PUSH32 0x62E78CEA01BEE320CD4E420270B5EA74000D11B0C9F74754EBDBFC544B05A258 PUSH2 0x18B4 CALLER SWAP1 JUMP JUMPDEST PUSH2 0x1B49 DUP3 DUP3 PUSH2 0xDBD JUMP JUMPDEST PUSH2 0xA55 JUMPI PUSH1 0x40 MLOAD PUSH4 0xE2517D3F PUSH1 0xE0 SHL DUP2 MSTORE PUSH1 0x1 PUSH1 0x1 PUSH1 0xA0 SHL SUB DUP3 AND PUSH1 0x4 DUP3 ADD MSTORE PUSH1 0x24 DUP2 ADD DUP4 SWAP1 MSTORE PUSH1 0x44 ADD PUSH2 0x7E5 JUMP JUMPDEST PUSH0 SLOAD PUSH1 0xFF AND PUSH2 0x1975 JUMPI PUSH1 0x40 MLOAD PUSH3 0x461BCD PUSH1 0xE5 SHL DUP2 MSTORE PUSH1 0x20 PUSH1 0x4 DUP3 ADD MSTORE PUSH1 0x14 PUSH1 0x24 DUP3 ADD MSTORE PUSH20 0x14185D5CD8589B194E881B9BDD081C185D5CD959 PUSH1 0x62 SHL PUSH1 0x44 DUP3 ADD MSTORE PUSH1 0x64 ADD PUSH2 0x7E5 JUMP JUMPDEST PUSH2 0x1BC9 DUP3 PUSH2 0x1C71 JUMP JUMPDEST PUSH1 0x40 MLOAD PUSH1 0x1 PUSH1 0x1 PUSH1 0xA0 SHL SUB DUP4 AND SWAP1 PUSH32 0xBC7CD75A20EE27FD9ADEBAB32041F755214DBC6BFFA90CC0225B39DA2E5C2D3B SWAP1 PUSH0 SWAP1 LOG2 DUP1 MLOAD ISZERO PUSH2 0x1C0D JUMPI PUSH2 0x9BE DUP3 DUP3 PUSH2 0x1CD4 JUMP JUMPDEST PUSH2 0xA55 PUSH2 0x1D46 JUMP JUMPDEST PUSH32 0xF0C57E16840DF040F15088DC2F81FE391C3923BEC73E23A9662EFC9C229C6A00 SLOAD PUSH1 0x1 PUSH1 0x40 SHL SWAP1 DIV PUSH1 0xFF AND PUSH2 0x1975 JUMPI PUSH1 0x40 MLOAD PUSH4 0x1AFCD79F PUSH1 0xE3 SHL DUP2 MSTORE PUSH1 0x4 ADD PUSH1 0x40 MLOAD DUP1 SWAP2 SUB SWAP1 REVERT JUMPDEST PUSH2 0x1C66 PUSH2 0x1C15 JUMP JUMPDEST PUSH0 DUP1 SLOAD PUSH1 0xFF NOT AND SWAP1 SSTORE JUMP JUMPDEST DUP1 PUSH1 0x1 PUSH1 0x1 PUSH1 0xA0 SHL SUB AND EXTCODESIZE PUSH0 SUB PUSH2 0x1CA6 JUMPI PUSH1 0x40 MLOAD PUSH4 0x4C9C8CE3 PUSH1 0xE0 SHL DUP2 MSTORE PUSH1 0x1 PUSH1 0x1 PUSH1 0xA0 SHL SUB DUP3 AND PUSH1 0x4 DUP3 ADD MSTORE PUSH1 0x24 ADD PUSH2 0x7E5 JUMP JUMPDEST PUSH0 DUP1 MLOAD PUSH1 0x20 PUSH2 0x23EC DUP4 CODECOPY DUP2 MLOAD SWAP2 MSTORE DUP1 SLOAD PUSH1 0x1 PUSH1 0x1 PUSH1 0xA0 SHL SUB NOT AND PUSH1 0x1 PUSH1 0x1 PUSH1 0xA0 SHL SUB SWAP3 SWAP1 SWAP3 AND SWAP2 SWAP1 SWAP2 OR SWAP1 SSTORE JUMP JUMPDEST PUSH1 0x60 PUSH0 DUP1 DUP5 PUSH1 0x1 PUSH1 0x1 PUSH1 0xA0 SHL SUB AND DUP5 PUSH1 0x40 MLOAD PUSH2 0x1CF0 SWAP2 SWAP1 PUSH2 0x23D5 JUMP JUMPDEST PUSH0 PUSH1 0x40 MLOAD DUP1 DUP4 SUB DUP2 DUP6 GAS DELEGATECALL SWAP2 POP POP RETURNDATASIZE DUP1 PUSH0 DUP2 EQ PUSH2 0x1D28 JUMPI PUSH1 0x40 MLOAD SWAP2 POP PUSH1 0x1F NOT PUSH1 0x3F RETURNDATASIZE ADD AND DUP3 ADD PUSH1 0x40 MSTORE RETURNDATASIZE DUP3 MSTORE RETURNDATASIZE PUSH0 PUSH1 0x20 DUP5 ADD RETURNDATACOPY PUSH2 0x1D2D JUMP JUMPDEST PUSH1 0x60 SWAP2 POP JUMPDEST POP SWAP2 POP SWAP2 POP PUSH2 0x1D3D DUP6 DUP4 DUP4 PUSH2 0x1D65 JUMP JUMPDEST SWAP6 SWAP5 POP POP POP POP POP JUMP JUMPDEST CALLVALUE ISZERO PUSH2 0x1975 JUMPI PUSH1 0x40 MLOAD PUSH4 0xB398979F PUSH1 0xE0 SHL DUP2 MSTORE PUSH1 0x4 ADD PUSH1 0x40 MLOAD DUP1 SWAP2 SUB SWAP1 REVERT JUMPDEST PUSH1 0x60 DUP3 PUSH2 0x1D7A JUMPI PUSH2 0x1D75 DUP3 PUSH2 0x1DC4 JUMP JUMPDEST PUSH2 0x1DBD JUMP JUMPDEST DUP2 MLOAD ISZERO DUP1 ISZERO PUSH2 0x1D91 JUMPI POP PUSH1 0x1 PUSH1 0x1 PUSH1 0xA0 SHL SUB DUP5 AND EXTCODESIZE ISZERO JUMPDEST ISZERO PUSH2 0x1DBA JUMPI PUSH1 0x40 MLOAD PUSH4 0x9996B315 PUSH1 0xE0 SHL DUP2 MSTORE PUSH1 0x1 PUSH1 0x1 PUSH1 0xA0 SHL SUB DUP6 AND PUSH1 0x4 DUP3 ADD MSTORE PUSH1 0x24 ADD PUSH2 0x7E5 JUMP JUMPDEST POP DUP1 JUMPDEST SWAP4 SWAP3 POP POP POP JUMP JUMPDEST DUP1 MLOAD ISZERO PUSH2 0x1DD4 JUMPI DUP1 MLOAD DUP1 DUP3 PUSH1 0x20 ADD REVERT JUMPDEST PUSH1 0x40 MLOAD PUSH4 0xA12F521 PUSH1 0xE1 SHL DUP2 MSTORE PUSH1 0x4 ADD PUSH1 0x40 MLOAD DUP1 SWAP2 SUB SWAP1 REVERT JUMPDEST PUSH0 PUSH1 0x20 DUP3 DUP5 SUB SLT ISZERO PUSH2 0x1DFD JUMPI PUSH0 DUP1 REVERT JUMPDEST DUP2 CALLDATALOAD PUSH1 0x1 PUSH1 0x1 PUSH1 0xE0 SHL SUB NOT DUP2 AND DUP2 EQ PUSH2 0x1DBD JUMPI PUSH0 DUP1 REVERT JUMPDEST DUP1 CALLDATALOAD PUSH1 0x1 PUSH1 0x1 PUSH1 0xA0 SHL SUB DUP2 AND DUP2 EQ PUSH2 0x1E2A JUMPI PUSH0 DUP1 REVERT JUMPDEST SWAP2 SWAP1 POP JUMP JUMPDEST PUSH0 PUSH1 0x20 DUP3 DUP5 SUB SLT ISZERO PUSH2 0x1E3F JUMPI PUSH0 DUP1 REVERT JUMPDEST PUSH2 0x1DBD DUP3 PUSH2 0x1E14 JUMP JUMPDEST PUSH0 PUSH1 0x20 DUP3 DUP5 SUB SLT ISZERO PUSH2 0x1E58 JUMPI PUSH0 DUP1 REVERT JUMPDEST POP CALLDATALOAD SWAP2 SWAP1 POP JUMP JUMPDEST PUSH0 DUP1 PUSH1 0x40 DUP4 DUP6 SUB SLT ISZERO PUSH2 0x1E70 JUMPI PUSH0 DUP1 REVERT JUMPDEST DUP3 CALLDATALOAD SWAP2 POP PUSH2 0x1E80 PUSH1 0x20 DUP5 ADD PUSH2 0x1E14 JUMP JUMPDEST SWAP1 POP SWAP3 POP SWAP3 SWAP1 POP JUMP JUMPDEST PUSH4 0x4E487B71 PUSH1 0xE0 SHL PUSH0 MSTORE PUSH1 0x41 PUSH1 0x4 MSTORE PUSH1 0x24 PUSH0 REVERT JUMPDEST PUSH0 DUP3 PUSH1 0x1F DUP4 ADD SLT PUSH2 0x1EAC JUMPI PUSH0 DUP1 REVERT JUMPDEST DUP2 CALLDATALOAD PUSH8 0xFFFFFFFFFFFFFFFF DUP1 DUP3 GT ISZERO PUSH2 0x1EC7 JUMPI PUSH2 0x1EC7 PUSH2 0x1E89 JUMP JUMPDEST PUSH1 0x40 MLOAD PUSH1 0x1F DUP4 ADD PUSH1 0x1F NOT SWAP1 DUP2 AND PUSH1 0x3F ADD AND DUP2 ADD SWAP1 DUP3 DUP3 GT DUP2 DUP4 LT OR ISZERO PUSH2 0x1EEF JUMPI PUSH2 0x1EEF PUSH2 0x1E89 JUMP JUMPDEST DUP2 PUSH1 0x40 MSTORE DUP4 DUP2 MSTORE DUP7 PUSH1 0x20 DUP6 DUP9 ADD ADD GT ISZERO PUSH2 0x1F07 JUMPI PUSH0 DUP1 REVERT JUMPDEST DUP4 PUSH1 0x20 DUP8 ADD PUSH1 0x20 DUP4 ADD CALLDATACOPY PUSH0 PUSH1 0x20 DUP6 DUP4 ADD ADD MSTORE DUP1 SWAP5 POP POP POP POP POP SWAP3 SWAP2 POP POP JUMP JUMPDEST PUSH0 DUP1 PUSH1 0x40 DUP4 DUP6 SUB SLT ISZERO PUSH2 0x1F37 JUMPI PUSH0 DUP1 REVERT JUMPDEST PUSH2 0x1F40 DUP4 PUSH2 0x1E14 JUMP JUMPDEST SWAP2 POP PUSH1 0x20 DUP4 ADD CALLDATALOAD PUSH8 0xFFFFFFFFFFFFFFFF DUP2 GT ISZERO PUSH2 0x1F5B JUMPI PUSH0 DUP1 REVERT JUMPDEST PUSH2 0x1F67 DUP6 DUP3 DUP7 ADD PUSH2 0x1E9D JUMP JUMPDEST SWAP2 POP POP SWAP3 POP SWAP3 SWAP1 POP JUMP JUMPDEST PUSH0 DUP1 PUSH0 DUP1 PUSH0 DUP1 PUSH0 DUP1 PUSH0 PUSH2 0x120 DUP11 DUP13 SUB SLT ISZERO PUSH2 0x1F8A JUMPI PUSH0 DUP1 REVERT JUMPDEST PUSH2 0x1F93 DUP11 PUSH2 0x1E14 JUMP JUMPDEST SWAP9 POP PUSH1 0x20 DUP11 ADD CALLDATALOAD SWAP8 POP PUSH1 0x40 DUP11 ADD CALLDATALOAD SWAP7 POP PUSH2 0x1FAF PUSH1 0x60 DUP12 ADD PUSH2 0x1E14 JUMP JUMPDEST SWAP6 POP PUSH2 0x1FBD PUSH1 0x80 DUP12 ADD PUSH2 0x1E14 JUMP JUMPDEST SWAP5 POP PUSH2 0x1FCB PUSH1 0xA0 DUP12 ADD PUSH2 0x1E14 JUMP JUMPDEST SWAP4 POP PUSH2 0x1FD9 PUSH1 0xC0 DUP12 ADD PUSH2 0x1E14 JUMP JUMPDEST SWAP3 POP PUSH2 0x1FE7 PUSH1 0xE0 DUP12 ADD PUSH2 0x1E14 JUMP JUMPDEST SWAP2 POP PUSH2 0x1FF6 PUSH2 0x100 DUP12 ADD PUSH2 0x1E14 JUMP JUMPDEST SWAP1 POP SWAP3 SWAP6 SWAP9 POP SWAP3 SWAP6 SWAP9 POP SWAP3 SWAP6 SWAP9 JUMP JUMPDEST PUSH0 DUP2 MLOAD DUP1 DUP5 MSTORE DUP1 PUSH1 0x20 DUP5 ADD PUSH1 0x20 DUP7 ADD MCOPY PUSH0 PUSH1 0x20 DUP3 DUP7 ADD ADD MSTORE PUSH1 0x20 PUSH1 0x1F NOT PUSH1 0x1F DUP4 ADD AND DUP6 ADD ADD SWAP2 POP POP SWAP3 SWAP2 POP POP JUMP JUMPDEST PUSH1 0x1 DUP1 PUSH1 0xA0 SHL SUB DUP7 AND DUP2 MSTORE DUP5 PUSH1 0x20 DUP3 ADD MSTORE PUSH1 0xA0 PUSH1 0x40 DUP3 ADD MSTORE PUSH0 PUSH2 0x2059 PUSH1 0xA0 DUP4 ADD DUP7 PUSH2 0x2005 JUMP JUMPDEST SWAP4 ISZERO ISZERO PUSH1 0x60 DUP4 ADD MSTORE POP PUSH1 0x80 ADD MSTORE SWAP4 SWAP3 POP POP POP JUMP JUMPDEST PUSH1 0x20 DUP2 MSTORE PUSH0 PUSH2 0x1DBD PUSH1 0x20 DUP4 ADD DUP5 PUSH2 0x2005 JUMP JUMPDEST PUSH0 DUP1 PUSH0 PUSH1 0x60 DUP5 DUP7 SUB SLT ISZERO PUSH2 0x2091 JUMPI PUSH0 DUP1 REVERT JUMPDEST PUSH2 0x209A DUP5 PUSH2 0x1E14 JUMP JUMPDEST SWAP3 POP PUSH1 0x20 DUP5 ADD CALLDATALOAD SWAP2 POP PUSH1 0x40 DUP5 ADD CALLDATALOAD PUSH8 0xFFFFFFFFFFFFFFFF DUP2 GT ISZERO PUSH2 0x20BC JUMPI PUSH0 DUP1 REVERT JUMPDEST PUSH2 0x20C8 DUP7 DUP3 DUP8 ADD PUSH2 0x1E9D JUMP JUMPDEST SWAP2 POP POP SWAP3 POP SWAP3 POP SWAP3 JUMP JUMPDEST PUSH1 0x20 DUP1 DUP3 MSTORE PUSH1 0xC SWAP1 DUP3 ADD MSTORE PUSH12 0x2737BA1030B71030B236B4B7 PUSH1 0xA1 SHL PUSH1 0x40 DUP3 ADD MSTORE PUSH1 0x60 ADD SWAP1 JUMP JUMPDEST PUSH1 0x20 DUP1 DUP3 MSTORE PUSH1 0x1A SWAP1 DUP3 ADD MSTORE PUSH32 0x5472616E73616374696F6E20646F6573206E6F74206578697374000000000000 PUSH1 0x40 DUP3 ADD MSTORE PUSH1 0x60 ADD SWAP1 JUMP JUMPDEST PUSH4 0x4E487B71 PUSH1 0xE0 SHL PUSH0 MSTORE PUSH1 0x32 PUSH1 0x4 MSTORE PUSH1 0x24 PUSH0 REVERT JUMPDEST PUSH1 0x20 DUP1 DUP3 MSTORE PUSH1 0x1C SWAP1 DUP3 ADD MSTORE PUSH32 0x5472616E73616374696F6E20616C726561647920657865637574656400000000 PUSH1 0x40 DUP3 ADD MSTORE PUSH1 0x60 ADD SWAP1 JUMP JUMPDEST PUSH4 0x4E487B71 PUSH1 0xE0 SHL PUSH0 MSTORE PUSH1 0x11 PUSH1 0x4 MSTORE PUSH1 0x24 PUSH0 REVERT JUMPDEST DUP2 DUP2 SUB DUP2 DUP2 GT ISZERO PUSH2 0x7AC JUMPI PUSH2 0x7AC PUSH2 0x217A JUMP JUMPDEST PUSH0 PUSH1 0x20 DUP3 DUP5 SUB SLT ISZERO PUSH2 0x21B1 JUMPI PUSH0 DUP1 REVERT JUMPDEST DUP2 MLOAD DUP1 ISZERO ISZERO DUP2 EQ PUSH2 0x1DBD JUMPI PUSH0 DUP1 REVERT JUMPDEST PUSH1 0x1 DUP2 DUP2 SHR SWAP1 DUP3 AND DUP1 PUSH2 0x21D4 JUMPI PUSH1 0x7F DUP3 AND SWAP2 POP JUMPDEST PUSH1 0x20 DUP3 LT DUP2 SUB PUSH2 0x21F2 JUMPI PUSH4 0x4E487B71 PUSH1 0xE0 SHL PUSH0 MSTORE PUSH1 0x22 PUSH1 0x4 MSTORE PUSH1 0x24 PUSH0 REVERT JUMPDEST POP SWAP2 SWAP1 POP JUMP JUMPDEST DUP1 DUP3 MUL DUP2 ISZERO DUP3 DUP3 DIV DUP5 EQ OR PUSH2 0x7AC JUMPI PUSH2 0x7AC PUSH2 0x217A JUMP JUMPDEST PUSH0 DUP3 PUSH2 0x2229 JUMPI PUSH4 0x4E487B71 PUSH1 0xE0 SHL PUSH0 MSTORE PUSH1 0x12 PUSH1 0x4 MSTORE PUSH1 0x24 PUSH0 REVERT JUMPDEST POP DIV SWAP1 JUMP JUMPDEST DUP1 DUP3 ADD DUP1 DUP3 GT ISZERO PUSH2 0x7AC JUMPI PUSH2 0x7AC PUSH2 0x217A JUMP JUMPDEST PUSH1 0x1F DUP3 GT ISZERO PUSH2 0x9BE JUMPI DUP1 PUSH0 MSTORE PUSH1 0x20 PUSH0 KECCAK256 PUSH1 0x1F DUP5 ADD PUSH1 0x5 SHR DUP2 ADD PUSH1 0x20 DUP6 LT ISZERO PUSH2 0x2266 JUMPI POP DUP1 JUMPDEST PUSH1 0x1F DUP5 ADD PUSH1 0x5 SHR DUP3 ADD SWAP2 POP JUMPDEST DUP2 DUP2 LT ISZERO PUSH2 0x2285 JUMPI PUSH0 DUP2 SSTORE PUSH1 0x1 ADD PUSH2 0x2272 JUMP JUMPDEST POP POP POP POP POP JUMP JUMPDEST DUP2 MLOAD PUSH8 0xFFFFFFFFFFFFFFFF DUP2 GT ISZERO PUSH2 0x22A6 JUMPI PUSH2 0x22A6 PUSH2 0x1E89 JUMP JUMPDEST PUSH2 0x22BA DUP2 PUSH2 0x22B4 DUP5 SLOAD PUSH2 0x21C0 JUMP JUMPDEST DUP5 PUSH2 0x2241 JUMP JUMPDEST PUSH1 0x20 DUP1 PUSH1 0x1F DUP4 GT PUSH1 0x1 DUP2 EQ PUSH2 0x22ED JUMPI PUSH0 DUP5 ISZERO PUSH2 0x22D6 JUMPI POP DUP6 DUP4 ADD MLOAD JUMPDEST PUSH0 NOT PUSH1 0x3 DUP7 SWAP1 SHL SHR NOT AND PUSH1 0x1 DUP6 SWAP1 SHL OR DUP6 SSTORE PUSH2 0x2344 JUMP JUMPDEST PUSH0 DUP6 DUP2 MSTORE PUSH1 0x20 DUP2 KECCAK256 PUSH1 0x1F NOT DUP7 AND SWAP2 JUMPDEST DUP3 DUP2 LT ISZERO PUSH2 0x231B JUMPI DUP9 DUP7 ADD MLOAD DUP3 SSTORE SWAP5 DUP5 ADD SWAP5 PUSH1 0x1 SWAP1 SWAP2 ADD SWAP1 DUP5 ADD PUSH2 0x22FC JUMP JUMPDEST POP DUP6 DUP3 LT ISZERO PUSH2 0x2338 JUMPI DUP8 DUP6 ADD MLOAD PUSH0 NOT PUSH1 0x3 DUP9 SWAP1 SHL PUSH1 0xF8 AND SHR NOT AND DUP2 SSTORE JUMPDEST POP POP PUSH1 0x1 DUP5 PUSH1 0x1 SHL ADD DUP6 SSTORE JUMPDEST POP POP POP POP POP POP JUMP JUMPDEST PUSH0 DUP1 DUP4 SLOAD PUSH2 0x2359 DUP2 PUSH2 0x21C0 JUMP JUMPDEST PUSH1 0x1 DUP3 DUP2 AND DUP1 ISZERO PUSH2 0x2371 JUMPI PUSH1 0x1 DUP2 EQ PUSH2 0x2386 JUMPI PUSH2 0x23B2 JUMP JUMPDEST PUSH1 0xFF NOT DUP5 AND DUP8 MSTORE DUP3 ISZERO ISZERO DUP4 MUL DUP8 ADD SWAP5 POP PUSH2 0x23B2 JUMP JUMPDEST DUP8 PUSH0 MSTORE PUSH1 0x20 DUP1 PUSH0 KECCAK256 PUSH0 JUMPDEST DUP6 DUP2 LT ISZERO PUSH2 0x23A9 JUMPI DUP2 SLOAD DUP11 DUP3 ADD MSTORE SWAP1 DUP5 ADD SWAP1 DUP3 ADD PUSH2 0x2390 JUMP JUMPDEST POP POP POP DUP3 DUP8 ADD SWAP5 POP JUMPDEST POP SWAP3 SWAP7 SWAP6 POP POP POP POP POP POP JUMP JUMPDEST PUSH0 PUSH1 0x20 DUP3 DUP5 SUB SLT ISZERO PUSH2 0x23CE JUMPI PUSH0 DUP1 REVERT JUMPDEST POP MLOAD SWAP2 SWAP1 POP JUMP JUMPDEST PUSH0 DUP3 MLOAD DUP1 PUSH1 0x20 DUP6 ADD DUP5 MCOPY PUSH0 SWAP3 ADD SWAP2 DUP3 MSTORE POP SWAP2 SWAP1 POP JUMP INVALID CALLDATASIZE ADDMOD SWAP5 LOG1 EXTCODESIZE LOG1 LOG3 0x21 MOD PUSH8 0xC828492DB98DCA3E KECCAK256 PUSH23 0xCC3735A920A3CA505D382BBC65D7A28E3265B37A647492 SWAP16 CALLER PUSH6 0x21B332C1681B SWAP4 EXTCODEHASH PUSH13 0xB9F3376673440D862A02DD7BC7 0xDE 0xC4 0xDC 0xEE 0xDD 0xA7 PUSH22 0xE58DD541E08A116C6C53815C0BD028192F7B626800A4 SWAP9 SMOD KECCAK256 TLOAD 0xE4 0xD3 SSTORE MULMOD 0x2E CREATE2 0xA8 LOG1 DUP16 JUMP 0xE8 SWAP2 EXTCODECOPY DELEGATECALL LOG2 ADD 0xFB 0xE2 DUP8 DUP3 JUMPDEST MULMOD JUMP SWAP4 0xC2 OR PUSH22 0xA2646970667358221220A4CFBB32862D2B8BABAA1B0F DUP6 0x24 0xB3 PUSH5 0xE15A749DDE SWAP8 0x24 PUSH9 0x5F56EB1095FE3A1D64 PUSH20 0x6F6C634300081900330000000000000000000000 "
				},
				"gasEstimates": {
					"creation": {
						"codeDepositCost": "1875400",
						"executionCost": "infinite",
						"totalCost": "infinite"
					},
					"external": {
						"ADMIN_ROLE()": "infinite",
						"DEFAULT_ADMIN_ROLE()": "260",
						"PAUSER_ROLE()": "infinite",
						"UPGRADER_ROLE()": "326",
						"UPGRADE_INTERFACE_VERSION()": "infinite",
						"confirmTransaction(uint256)": "infinite",
						"daoAddress()": "2471",
						"erc1155Address()": "2405",
						"erc20Address()": "2426",
						"erc721Address()": "2382",
						"executeTransaction(uint256)": "infinite",
						"farmingAddress()": "2404",
						"getRoleAdmin(bytes32)": "infinite",
						"grantRole(bytes32,address)": "infinite",
						"hasRole(bytes32,address)": "infinite",
						"initialize(address,uint256,uint256,address,address,address,address,address,address)": "infinite",
						"isConfirmed(uint256,address)": "2726",
						"pause()": "infinite",
						"paused()": "2425",
						"proxiableUUID()": "infinite",
						"renounceRole(bytes32,address)": "29227",
						"requiredConfirmations()": "2427",
						"revokeConfirmation(uint256)": "infinite",
						"revokeRole(bytes32,address)": "infinite",
						"setDAOAddress(address)": "infinite",
						"setERC1155Address(address)": "infinite",
						"setERC20Address(address)": "infinite",
						"setERC721Address(address)": "infinite",
						"setFarmingAddress(address)": "infinite",
						"setStakingAddress(address)": "infinite",
						"stakeTokens(uint256)": "infinite",
						"stakes(address)": "4746",
						"stakingAddress()": "2469",
						"stakingRate()": "2361",
						"submitTransaction(address,uint256,bytes)": "infinite",
						"supportsInterface(bytes4)": "470",
						"transactions(uint256)": "infinite",
						"unpause()": "infinite",
						"unstakeTokens()": "infinite",
						"upgradeToAndCall(address,bytes)": "infinite"
					},
					"internal": {
						"_authorizeUpgrade(address)": "infinite"
					}
				},
				"methodIdentifiers": {
					"ADMIN_ROLE()": "75b238fc",
					"DEFAULT_ADMIN_ROLE()": "a217fddf",
					"PAUSER_ROLE()": "e63ab1e9",
					"UPGRADER_ROLE()": "f72c0d8b",
					"UPGRADE_INTERFACE_VERSION()": "ad3cb1cc",
					"confirmTransaction(uint256)": "c01a8c84",
					"daoAddress()": "2131c68c",
					"erc1155Address()": "05142002",
					"erc20Address()": "276184ae",
					"erc721Address()": "2352a864",
					"executeTransaction(uint256)": "ee22610b",
					"farmingAddress()": "8a2ade58",
					"getRoleAdmin(bytes32)": "248a9ca3",
					"grantRole(bytes32,address)": "2f2ff15d",
					"hasRole(bytes32,address)": "91d14854",
					"initialize(address,uint256,uint256,address,address,address,address,address,address)": "63447471",
					"isConfirmed(uint256,address)": "80f59a65",
					"pause()": "8456cb59",
					"paused()": "5c975abb",
					"proxiableUUID()": "52d1902d",
					"renounceRole(bytes32,address)": "36568abe",
					"requiredConfirmations()": "82e717f7",
					"revokeConfirmation(uint256)": "20ea8d86",
					"revokeRole(bytes32,address)": "d547741f",
					"setDAOAddress(address)": "965afa89",
					"setERC1155Address(address)": "d836fc6f",
					"setERC20Address(address)": "41bec0d2",
					"setERC721Address(address)": "9a03d9a3",
					"setFarmingAddress(address)": "b001f618",
					"setStakingAddress(address)": "f4e0d9ac",
					"stakeTokens(uint256)": "7547c7a3",
					"stakes(address)": "16934fc4",
					"stakingAddress()": "d7b4be24",
					"stakingRate()": "c63a6ad2",
					"submitTransaction(address,uint256,bytes)": "c6427474",
					"supportsInterface(bytes4)": "01ffc9a7",
					"transactions(uint256)": "9ace38c2",
					"unpause()": "3f4ba83a",
					"unstakeTokens()": "a5ce413b",
					"upgradeToAndCall(address,bytes)": "4f1ef286"
				}
			},
			"storageLayout": {
				"storage": [
					{
						"astId": 820,
						"contract": "src/smartcontracts/CryptoQuestTheShardsOfGenesisWallet.sol:CryptoQuestTheShardsOfGenesisWallet",
						"label": "_paused",
						"offset": 0,
						"slot": "0",
						"type": "t_bool"
					},
					{
						"astId": 925,
						"contract": "src/smartcontracts/CryptoQuestTheShardsOfGenesisWallet.sol:CryptoQuestTheShardsOfGenesisWallet",
						"label": "__gap",
						"offset": 0,
						"slot": "1",
						"type": "t_array(t_uint256)49_storage"
					},
					{
						"astId": 2158,
						"contract": "src/smartcontracts/CryptoQuestTheShardsOfGenesisWallet.sol:CryptoQuestTheShardsOfGenesisWallet",
						"label": "erc20Address",
						"offset": 0,
						"slot": "50",
						"type": "t_address"
					},
					{
						"astId": 2160,
						"contract": "src/smartcontracts/CryptoQuestTheShardsOfGenesisWallet.sol:CryptoQuestTheShardsOfGenesisWallet",
						"label": "erc721Address",
						"offset": 0,
						"slot": "51",
						"type": "t_address"
					},
					{
						"astId": 2162,
						"contract": "src/smartcontracts/CryptoQuestTheShardsOfGenesisWallet.sol:CryptoQuestTheShardsOfGenesisWallet",
						"label": "erc1155Address",
						"offset": 0,
						"slot": "52",
						"type": "t_address"
					},
					{
						"astId": 2164,
						"contract": "src/smartcontracts/CryptoQuestTheShardsOfGenesisWallet.sol:CryptoQuestTheShardsOfGenesisWallet",
						"label": "daoAddress",
						"offset": 0,
						"slot": "53",
						"type": "t_address"
					},
					{
						"astId": 2166,
						"contract": "src/smartcontracts/CryptoQuestTheShardsOfGenesisWallet.sol:CryptoQuestTheShardsOfGenesisWallet",
						"label": "stakingAddress",
						"offset": 0,
						"slot": "54",
						"type": "t_address"
					},
					{
						"astId": 2168,
						"contract": "src/smartcontracts/CryptoQuestTheShardsOfGenesisWallet.sol:CryptoQuestTheShardsOfGenesisWallet",
						"label": "farmingAddress",
						"offset": 0,
						"slot": "55",
						"type": "t_address"
					},
					{
						"astId": 2185,
						"contract": "src/smartcontracts/CryptoQuestTheShardsOfGenesisWallet.sol:CryptoQuestTheShardsOfGenesisWallet",
						"label": "isConfirmed",
						"offset": 0,
						"slot": "56",
						"type": "t_mapping(t_uint256,t_mapping(t_address,t_bool))"
					},
					{
						"astId": 2189,
						"contract": "src/smartcontracts/CryptoQuestTheShardsOfGenesisWallet.sol:CryptoQuestTheShardsOfGenesisWallet",
						"label": "transactions",
						"offset": 0,
						"slot": "57",
						"type": "t_array(t_struct(Transaction)2179_storage)dyn_storage"
					},
					{
						"astId": 2191,
						"contract": "src/smartcontracts/CryptoQuestTheShardsOfGenesisWallet.sol:CryptoQuestTheShardsOfGenesisWallet",
						"label": "requiredConfirmations",
						"offset": 0,
						"slot": "58",
						"type": "t_uint256"
					},
					{
						"astId": 2201,
						"contract": "src/smartcontracts/CryptoQuestTheShardsOfGenesisWallet.sol:CryptoQuestTheShardsOfGenesisWallet",
						"label": "stakes",
						"offset": 0,
						"slot": "59",
						"type": "t_mapping(t_address,t_struct(Stake)2196_storage)"
					},
					{
						"astId": 2203,
						"contract": "src/smartcontracts/CryptoQuestTheShardsOfGenesisWallet.sol:CryptoQuestTheShardsOfGenesisWallet",
						"label": "stakingRate",
						"offset": 0,
						"slot": "60",
						"type": "t_uint256"
					}
				],
				"types": {
					"t_address": {
						"encoding": "inplace",
						"label": "address",
						"numberOfBytes": "20"
					},
					"t_array(t_struct(Transaction)2179_storage)dyn_storage": {
						"base": "t_struct(Transaction)2179_storage",
						"encoding": "dynamic_array",
						"label": "struct CryptoQuestTheShardsOfGenesisWallet.Transaction[]",
						"numberOfBytes": "32"
					},
					"t_array(t_uint256)49_storage": {
						"base": "t_uint256",
						"encoding": "inplace",
						"label": "uint256[49]",
						"numberOfBytes": "1568"
					},
					"t_bool": {
						"encoding": "inplace",
						"label": "bool",
						"numberOfBytes": "1"
					},
					"t_bytes_storage": {
						"encoding": "bytes",
						"label": "bytes",
						"numberOfBytes": "32"
					},
					"t_mapping(t_address,t_bool)": {
						"encoding": "mapping",
						"key": "t_address",
						"label": "mapping(address => bool)",
						"numberOfBytes": "32",
						"value": "t_bool"
					},
					"t_mapping(t_address,t_struct(Stake)2196_storage)": {
						"encoding": "mapping",
						"key": "t_address",
						"label": "mapping(address => struct CryptoQuestTheShardsOfGenesisWallet.Stake)",
						"numberOfBytes": "32",
						"value": "t_struct(Stake)2196_storage"
					},
					"t_mapping(t_uint256,t_mapping(t_address,t_bool))": {
						"encoding": "mapping",
						"key": "t_uint256",
						"label": "mapping(uint256 => mapping(address => bool))",
						"numberOfBytes": "32",
						"value": "t_mapping(t_address,t_bool)"
					},
					"t_struct(Stake)2196_storage": {
						"encoding": "inplace",
						"label": "struct CryptoQuestTheShardsOfGenesisWallet.Stake",
						"members": [
							{
								"astId": 2193,
								"contract": "src/smartcontracts/CryptoQuestTheShardsOfGenesisWallet.sol:CryptoQuestTheShardsOfGenesisWallet",
								"label": "amount",
								"offset": 0,
								"slot": "0",
								"type": "t_uint256"
							},
							{
								"astId": 2195,
								"contract": "src/smartcontracts/CryptoQuestTheShardsOfGenesisWallet.sol:CryptoQuestTheShardsOfGenesisWallet",
								"label": "startTime",
								"offset": 0,
								"slot": "1",
								"type": "t_uint256"
							}
						],
						"numberOfBytes": "64"
					},
					"t_struct(Transaction)2179_storage": {
						"encoding": "inplace",
						"label": "struct CryptoQuestTheShardsOfGenesisWallet.Transaction",
						"members": [
							{
								"astId": 2170,
								"contract": "src/smartcontracts/CryptoQuestTheShardsOfGenesisWallet.sol:CryptoQuestTheShardsOfGenesisWallet",
								"label": "to",
								"offset": 0,
								"slot": "0",
								"type": "t_address"
							},
							{
								"astId": 2172,
								"contract": "src/smartcontracts/CryptoQuestTheShardsOfGenesisWallet.sol:CryptoQuestTheShardsOfGenesisWallet",
								"label": "value",
								"offset": 0,
								"slot": "1",
								"type": "t_uint256"
							},
							{
								"astId": 2174,
								"contract": "src/smartcontracts/CryptoQuestTheShardsOfGenesisWallet.sol:CryptoQuestTheShardsOfGenesisWallet",
								"label": "data",
								"offset": 0,
								"slot": "2",
								"type": "t_bytes_storage"
							},
							{
								"astId": 2176,
								"contract": "src/smartcontracts/CryptoQuestTheShardsOfGenesisWallet.sol:CryptoQuestTheShardsOfGenesisWallet",
								"label": "executed",
								"offset": 0,
								"slot": "3",
								"type": "t_bool"
							},
							{
								"astId": 2178,
								"contract": "src/smartcontracts/CryptoQuestTheShardsOfGenesisWallet.sol:CryptoQuestTheShardsOfGenesisWallet",
								"label": "numConfirmations",
								"offset": 0,
								"slot": "4",
								"type": "t_uint256"
							}
						],
						"numberOfBytes": "160"
					},
					"t_uint256": {
						"encoding": "inplace",
						"label": "uint256",
						"numberOfBytes": "32"
					}
				}
			},
			"userdoc": {
				"kind": "user",
				"methods": {},
				"version": 1
			}
		}
	}
}