{
	"src/smartcontracts/CryptoQuestTheShardsOfGenesisMMORPG.sol": {
		"CryptoQuestTheShardsOfGenesisMMPORPG": {
			"abi": [
				{
					"inputs": [],
					"name": "AccessControlBadConfirmation",
					"type": "error"
				},
				{
					"inputs": [
						{
							"internalType": "address",
							"name": "account",
							"type": "address"
						},
						{
							"internalType": "bytes32",
							"name": "neededRole",
							"type": "bytes32"
						}
					],
					"name": "AccessControlUnauthorizedAccount",
					"type": "error"
				},
				{
					"inputs": [
						{
							"internalType": "address",
							"name": "target",
							"type": "address"
						}
					],
					"name": "AddressEmptyCode",
					"type": "error"
				},
				{
					"inputs": [
						{
							"internalType": "address",
							"name": "implementation",
							"type": "address"
						}
					],
					"name": "ERC1967InvalidImplementation",
					"type": "error"
				},
				{
					"inputs": [],
					"name": "ERC1967NonPayable",
					"type": "error"
				},
				{
					"inputs": [],
					"name": "EnforcedPause",
					"type": "error"
				},
				{
					"inputs": [],
					"name": "ExpectedPause",
					"type": "error"
				},
				{
					"inputs": [],
					"name": "FailedInnerCall",
					"type": "error"
				},
				{
					"inputs": [],
					"name": "InvalidInitialization",
					"type": "error"
				},
				{
					"inputs": [],
					"name": "NotInitializing",
					"type": "error"
				},
				{
					"inputs": [],
					"name": "UUPSUnauthorizedCallContext",
					"type": "error"
				},
				{
					"inputs": [
						{
							"internalType": "bytes32",
							"name": "slot",
							"type": "bytes32"
						}
					],
					"name": "UUPSUnsupportedProxiableUUID",
					"type": "error"
				},
				{
					"anonymous": false,
					"inputs": [
						{
							"indexed": false,
							"internalType": "string",
							"name": "name",
							"type": "string"
						},
						{
							"indexed": false,
							"internalType": "address",
							"name": "leader",
							"type": "address"
						}
					],
					"name": "GuildCreated",
					"type": "event"
				},
				{
					"anonymous": false,
					"inputs": [
						{
							"indexed": false,
							"internalType": "uint64",
							"name": "version",
							"type": "uint64"
						}
					],
					"name": "Initialized",
					"type": "event"
				},
				{
					"anonymous": false,
					"inputs": [
						{
							"indexed": false,
							"internalType": "uint256",
							"name": "itemId",
							"type": "uint256"
						},
						{
							"indexed": false,
							"internalType": "string",
							"name": "itemName",
							"type": "string"
						}
					],
					"name": "ItemAdded",
					"type": "event"
				},
				{
					"anonymous": false,
					"inputs": [
						{
							"indexed": false,
							"internalType": "address",
							"name": "account",
							"type": "address"
						}
					],
					"name": "Paused",
					"type": "event"
				},
				{
					"anonymous": false,
					"inputs": [
						{
							"indexed": true,
							"internalType": "address",
							"name": "player",
							"type": "address"
						}
					],
					"name": "PlayerCreated",
					"type": "event"
				},
				{
					"anonymous": false,
					"inputs": [
						{
							"indexed": true,
							"internalType": "address",
							"name": "player",
							"type": "address"
						},
						{
							"indexed": false,
							"internalType": "string",
							"name": "questTitle",
							"type": "string"
						}
					],
					"name": "QuestCompleted",
					"type": "event"
				},
				{
					"anonymous": false,
					"inputs": [
						{
							"indexed": false,
							"internalType": "uint256",
							"name": "recipeId",
							"type": "uint256"
						},
						{
							"indexed": false,
							"internalType": "uint256",
							"name": "resultItemId",
							"type": "uint256"
						}
					],
					"name": "RecipeAdded",
					"type": "event"
				},
				{
					"anonymous": false,
					"inputs": [
						{
							"indexed": true,
							"internalType": "bytes32",
							"name": "role",
							"type": "bytes32"
						},
						{
							"indexed": true,
							"internalType": "bytes32",
							"name": "previousAdminRole",
							"type": "bytes32"
						},
						{
							"indexed": true,
							"internalType": "bytes32",
							"name": "newAdminRole",
							"type": "bytes32"
						}
					],
					"name": "RoleAdminChanged",
					"type": "event"
				},
				{
					"anonymous": false,
					"inputs": [
						{
							"indexed": true,
							"internalType": "bytes32",
							"name": "role",
							"type": "bytes32"
						},
						{
							"indexed": true,
							"internalType": "address",
							"name": "account",
							"type": "address"
						},
						{
							"indexed": true,
							"internalType": "address",
							"name": "sender",
							"type": "address"
						}
					],
					"name": "RoleGranted",
					"type": "event"
				},
				{
					"anonymous": false,
					"inputs": [
						{
							"indexed": true,
							"internalType": "bytes32",
							"name": "role",
							"type": "bytes32"
						},
						{
							"indexed": true,
							"internalType": "address",
							"name": "account",
							"type": "address"
						},
						{
							"indexed": true,
							"internalType": "address",
							"name": "sender",
							"type": "address"
						}
					],
					"name": "RoleRevoked",
					"type": "event"
				},
				{
					"anonymous": false,
					"inputs": [
						{
							"indexed": false,
							"internalType": "address",
							"name": "account",
							"type": "address"
						}
					],
					"name": "Unpaused",
					"type": "event"
				},
				{
					"anonymous": false,
					"inputs": [
						{
							"indexed": true,
							"internalType": "address",
							"name": "implementation",
							"type": "address"
						}
					],
					"name": "Upgraded",
					"type": "event"
				},
				{
					"inputs": [],
					"name": "DEFAULT_ADMIN_ROLE",
					"outputs": [
						{
							"internalType": "bytes32",
							"name": "",
							"type": "bytes32"
						}
					],
					"stateMutability": "view",
					"type": "function"
				},
				{
					"inputs": [],
					"name": "GAME_ADMIN_ROLE",
					"outputs": [
						{
							"internalType": "bytes32",
							"name": "",
							"type": "bytes32"
						}
					],
					"stateMutability": "view",
					"type": "function"
				},
				{
					"inputs": [],
					"name": "PAUSER_ROLE",
					"outputs": [
						{
							"internalType": "bytes32",
							"name": "",
							"type": "bytes32"
						}
					],
					"stateMutability": "view",
					"type": "function"
				},
				{
					"inputs": [],
					"name": "UPGRADER_ROLE",
					"outputs": [
						{
							"internalType": "bytes32",
							"name": "",
							"type": "bytes32"
						}
					],
					"stateMutability": "view",
					"type": "function"
				},
				{
					"inputs": [],
					"name": "UPGRADE_INTERFACE_VERSION",
					"outputs": [
						{
							"internalType": "string",
							"name": "",
							"type": "string"
						}
					],
					"stateMutability": "view",
					"type": "function"
				},
				{
					"inputs": [
						{
							"internalType": "string",
							"name": "name",
							"type": "string"
						},
						{
							"internalType": "uint256",
							"name": "attackBonus",
							"type": "uint256"
						},
						{
							"internalType": "uint256",
							"name": "defenseBonus",
							"type": "uint256"
						},
						{
							"internalType": "uint256",
							"name": "manaBonus",
							"type": "uint256"
						},
						{
							"internalType": "uint256",
							"name": "healthBonus",
							"type": "uint256"
						}
					],
					"name": "addItem",
					"outputs": [],
					"stateMutability": "nonpayable",
					"type": "function"
				},
				{
					"inputs": [
						{
							"internalType": "uint256[]",
							"name": "itemIds",
							"type": "uint256[]"
						},
						{
							"internalType": "uint256",
							"name": "resultItemId",
							"type": "uint256"
						}
					],
					"name": "addRecipe",
					"outputs": [],
					"stateMutability": "nonpayable",
					"type": "function"
				},
				{
					"inputs": [
						{
							"internalType": "string",
							"name": "questTitle",
							"type": "string"
						}
					],
					"name": "completeQuest",
					"outputs": [],
					"stateMutability": "nonpayable",
					"type": "function"
				},
				{
					"inputs": [
						{
							"internalType": "uint256",
							"name": "recipeId",
							"type": "uint256"
						}
					],
					"name": "craftItem",
					"outputs": [],
					"stateMutability": "nonpayable",
					"type": "function"
				},
				{
					"inputs": [
						{
							"internalType": "string",
							"name": "name",
							"type": "string"
						},
						{
							"internalType": "address",
							"name": "leader",
							"type": "address"
						}
					],
					"name": "createGuild",
					"outputs": [],
					"stateMutability": "nonpayable",
					"type": "function"
				},
				{
					"inputs": [],
					"name": "createPlayer",
					"outputs": [],
					"stateMutability": "nonpayable",
					"type": "function"
				},
				{
					"inputs": [],
					"name": "daoContract",
					"outputs": [
						{
							"internalType": "contract IDAO",
							"name": "",
							"type": "address"
						}
					],
					"stateMutability": "view",
					"type": "function"
				},
				{
					"inputs": [],
					"name": "erc1155Token",
					"outputs": [
						{
							"internalType": "contract IERC1155",
							"name": "",
							"type": "address"
						}
					],
					"stateMutability": "view",
					"type": "function"
				},
				{
					"inputs": [],
					"name": "erc20Token",
					"outputs": [
						{
							"internalType": "contract IERC20",
							"name": "",
							"type": "address"
						}
					],
					"stateMutability": "view",
					"type": "function"
				},
				{
					"inputs": [],
					"name": "erc721Token",
					"outputs": [
						{
							"internalType": "contract IERC721",
							"name": "",
							"type": "address"
						}
					],
					"stateMutability": "view",
					"type": "function"
				},
				{
					"inputs": [],
					"name": "farmingContract",
					"outputs": [
						{
							"internalType": "contract IFarming",
							"name": "",
							"type": "address"
						}
					],
					"stateMutability": "view",
					"type": "function"
				},
				{
					"inputs": [
						{
							"internalType": "bytes32",
							"name": "role",
							"type": "bytes32"
						}
					],
					"name": "getRoleAdmin",
					"outputs": [
						{
							"internalType": "bytes32",
							"name": "",
							"type": "bytes32"
						}
					],
					"stateMutability": "view",
					"type": "function"
				},
				{
					"inputs": [
						{
							"internalType": "bytes32",
							"name": "role",
							"type": "bytes32"
						},
						{
							"internalType": "address",
							"name": "account",
							"type": "address"
						}
					],
					"name": "grantRole",
					"outputs": [],
					"stateMutability": "nonpayable",
					"type": "function"
				},
				{
					"inputs": [
						{
							"internalType": "address",
							"name": "",
							"type": "address"
						}
					],
					"name": "guilds",
					"outputs": [
						{
							"internalType": "string",
							"name": "name",
							"type": "string"
						},
						{
							"internalType": "address",
							"name": "leader",
							"type": "address"
						}
					],
					"stateMutability": "view",
					"type": "function"
				},
				{
					"inputs": [
						{
							"internalType": "bytes32",
							"name": "role",
							"type": "bytes32"
						},
						{
							"internalType": "address",
							"name": "account",
							"type": "address"
						}
					],
					"name": "hasRole",
					"outputs": [
						{
							"internalType": "bool",
							"name": "",
							"type": "bool"
						}
					],
					"stateMutability": "view",
					"type": "function"
				},
				{
					"inputs": [
						{
							"internalType": "address",
							"name": "defaultAdmin",
							"type": "address"
						},
						{
							"internalType": "address",
							"name": "pauser",
							"type": "address"
						},
						{
							"internalType": "address",
							"name": "upgrader",
							"type": "address"
						},
						{
							"internalType": "address",
							"name": "_erc20Address",
							"type": "address"
						},
						{
							"internalType": "address",
							"name": "_erc721Address",
							"type": "address"
						},
						{
							"internalType": "address",
							"name": "_erc1155Address",
							"type": "address"
						},
						{
							"internalType": "address",
							"name": "_daoAddress",
							"type": "address"
						},
						{
							"internalType": "address",
							"name": "_stakingAddress",
							"type": "address"
						},
						{
							"internalType": "address",
							"name": "_farmingAddress",
							"type": "address"
						}
					],
					"name": "initialize",
					"outputs": [],
					"stateMutability": "nonpayable",
					"type": "function"
				},
				{
					"inputs": [
						{
							"internalType": "uint256",
							"name": "",
							"type": "uint256"
						}
					],
					"name": "items",
					"outputs": [
						{
							"internalType": "uint256",
							"name": "id",
							"type": "uint256"
						},
						{
							"internalType": "string",
							"name": "name",
							"type": "string"
						},
						{
							"internalType": "uint256",
							"name": "attackBonus",
							"type": "uint256"
						},
						{
							"internalType": "uint256",
							"name": "defenseBonus",
							"type": "uint256"
						},
						{
							"internalType": "uint256",
							"name": "manaBonus",
							"type": "uint256"
						},
						{
							"internalType": "uint256",
							"name": "healthBonus",
							"type": "uint256"
						}
					],
					"stateMutability": "view",
					"type": "function"
				},
				{
					"inputs": [
						{
							"internalType": "string",
							"name": "guildName",
							"type": "string"
						}
					],
					"name": "joinGuild",
					"outputs": [],
					"stateMutability": "nonpayable",
					"type": "function"
				},
				{
					"inputs": [],
					"name": "pause",
					"outputs": [],
					"stateMutability": "nonpayable",
					"type": "function"
				},
				{
					"inputs": [],
					"name": "paused",
					"outputs": [
						{
							"internalType": "bool",
							"name": "",
							"type": "bool"
						}
					],
					"stateMutability": "view",
					"type": "function"
				},
				{
					"inputs": [
						{
							"internalType": "address",
							"name": "",
							"type": "address"
						},
						{
							"internalType": "uint256",
							"name": "",
							"type": "uint256"
						}
					],
					"name": "playerQuests",
					"outputs": [
						{
							"internalType": "string",
							"name": "title",
							"type": "string"
						},
						{
							"internalType": "string",
							"name": "description",
							"type": "string"
						},
						{
							"internalType": "uint256",
							"name": "rewardXP",
							"type": "uint256"
						},
						{
							"internalType": "bool",
							"name": "completed",
							"type": "bool"
						}
					],
					"stateMutability": "view",
					"type": "function"
				},
				{
					"inputs": [
						{
							"internalType": "address",
							"name": "",
							"type": "address"
						}
					],
					"name": "players",
					"outputs": [
						{
							"internalType": "uint256",
							"name": "level",
							"type": "uint256"
						},
						{
							"internalType": "uint256",
							"name": "experience",
							"type": "uint256"
						},
						{
							"internalType": "uint256",
							"name": "health",
							"type": "uint256"
						},
						{
							"internalType": "uint256",
							"name": "mana",
							"type": "uint256"
						},
						{
							"internalType": "uint256",
							"name": "attackDamage",
							"type": "uint256"
						},
						{
							"internalType": "uint256",
							"name": "defense",
							"type": "uint256"
						},
						{
							"internalType": "uint256",
							"name": "agility",
							"type": "uint256"
						},
						{
							"internalType": "uint256",
							"name": "luck",
							"type": "uint256"
						}
					],
					"stateMutability": "view",
					"type": "function"
				},
				{
					"inputs": [],
					"name": "proxiableUUID",
					"outputs": [
						{
							"internalType": "bytes32",
							"name": "",
							"type": "bytes32"
						}
					],
					"stateMutability": "view",
					"type": "function"
				},
				{
					"inputs": [
						{
							"internalType": "uint256",
							"name": "",
							"type": "uint256"
						}
					],
					"name": "recipes",
					"outputs": [
						{
							"internalType": "uint256",
							"name": "resultItemId",
							"type": "uint256"
						}
					],
					"stateMutability": "view",
					"type": "function"
				},
				{
					"inputs": [
						{
							"internalType": "bytes32",
							"name": "role",
							"type": "bytes32"
						},
						{
							"internalType": "address",
							"name": "callerConfirmation",
							"type": "address"
						}
					],
					"name": "renounceRole",
					"outputs": [],
					"stateMutability": "nonpayable",
					"type": "function"
				},
				{
					"inputs": [
						{
							"internalType": "bytes32",
							"name": "role",
							"type": "bytes32"
						},
						{
							"internalType": "address",
							"name": "account",
							"type": "address"
						}
					],
					"name": "revokeRole",
					"outputs": [],
					"stateMutability": "nonpayable",
					"type": "function"
				},
				{
					"inputs": [
						{
							"internalType": "address",
							"name": "_daoAddress",
							"type": "address"
						}
					],
					"name": "setDAOAddress",
					"outputs": [],
					"stateMutability": "nonpayable",
					"type": "function"
				},
				{
					"inputs": [
						{
							"internalType": "address",
							"name": "_erc1155Address",
							"type": "address"
						}
					],
					"name": "setERC1155Address",
					"outputs": [],
					"stateMutability": "nonpayable",
					"type": "function"
				},
				{
					"inputs": [
						{
							"internalType": "address",
							"name": "_erc20Address",
							"type": "address"
						}
					],
					"name": "setERC20Address",
					"outputs": [],
					"stateMutability": "nonpayable",
					"type": "function"
				},
				{
					"inputs": [
						{
							"internalType": "address",
							"name": "_erc721Address",
							"type": "address"
						}
					],
					"name": "setERC721Address",
					"outputs": [],
					"stateMutability": "nonpayable",
					"type": "function"
				},
				{
					"inputs": [
						{
							"internalType": "address",
							"name": "_farmingAddress",
							"type": "address"
						}
					],
					"name": "setFarmingAddress",
					"outputs": [],
					"stateMutability": "nonpayable",
					"type": "function"
				},
				{
					"inputs": [
						{
							"internalType": "address",
							"name": "_stakingAddress",
							"type": "address"
						}
					],
					"name": "setStakingAddress",
					"outputs": [],
					"stateMutability": "nonpayable",
					"type": "function"
				},
				{
					"inputs": [],
					"name": "stakingContract",
					"outputs": [
						{
							"internalType": "contract IStaking",
							"name": "",
							"type": "address"
						}
					],
					"stateMutability": "view",
					"type": "function"
				},
				{
					"inputs": [
						{
							"internalType": "string",
							"name": "title",
							"type": "string"
						},
						{
							"internalType": "string",
							"name": "description",
							"type": "string"
						},
						{
							"internalType": "uint256",
							"name": "rewardXP",
							"type": "uint256"
						}
					],
					"name": "startQuest",
					"outputs": [],
					"stateMutability": "nonpayable",
					"type": "function"
				},
				{
					"inputs": [
						{
							"internalType": "bytes4",
							"name": "interfaceId",
							"type": "bytes4"
						}
					],
					"name": "supportsInterface",
					"outputs": [
						{
							"internalType": "bool",
							"name": "",
							"type": "bool"
						}
					],
					"stateMutability": "view",
					"type": "function"
				},
				{
					"inputs": [],
					"name": "unpause",
					"outputs": [],
					"stateMutability": "nonpayable",
					"type": "function"
				},
				{
					"inputs": [
						{
							"internalType": "address",
							"name": "newImplementation",
							"type": "address"
						},
						{
							"internalType": "bytes",
							"name": "data",
							"type": "bytes"
						}
					],
					"name": "upgradeToAndCall",
					"outputs": [],
					"stateMutability": "payable",
					"type": "function"
				}
			],
			"devdoc": {
				"errors": {
					"AccessControlBadConfirmation()": [
						{
							"details": "The caller of a function is not the expected one. NOTE: Don't confuse with {AccessControlUnauthorizedAccount}."
						}
					],
					"AccessControlUnauthorizedAccount(address,bytes32)": [
						{
							"details": "The `account` is missing a role."
						}
					],
					"AddressEmptyCode(address)": [
						{
							"details": "There's no code at `target` (it is not a contract)."
						}
					],
					"ERC1967InvalidImplementation(address)": [
						{
							"details": "The `implementation` of the proxy is invalid."
						}
					],
					"ERC1967NonPayable()": [
						{
							"details": "An upgrade function sees `msg.value > 0` that may be lost."
						}
					],
					"EnforcedPause()": [
						{
							"details": "The operation failed because the contract is paused."
						}
					],
					"ExpectedPause()": [
						{
							"details": "The operation failed because the contract is not paused."
						}
					],
					"FailedInnerCall()": [
						{
							"details": "A call to an address target failed. The target may have reverted."
						}
					],
					"InvalidInitialization()": [
						{
							"details": "The contract is already initialized."
						}
					],
					"NotInitializing()": [
						{
							"details": "The contract is not initializing."
						}
					],
					"UUPSUnauthorizedCallContext()": [
						{
							"details": "The call is from an unauthorized context."
						}
					],
					"UUPSUnsupportedProxiableUUID(bytes32)": [
						{
							"details": "The storage `slot` is unsupported as a UUID."
						}
					]
				},
				"events": {
					"Initialized(uint64)": {
						"details": "Triggered when the contract has been initialized or reinitialized."
					},
					"Paused(address)": {
						"details": "Emitted when the pause is triggered by `account`."
					},
					"RoleAdminChanged(bytes32,bytes32,bytes32)": {
						"details": "Emitted when `newAdminRole` is set as ``role``'s admin role, replacing `previousAdminRole` `DEFAULT_ADMIN_ROLE` is the starting admin for all roles, despite {RoleAdminChanged} not being emitted signaling this."
					},
					"RoleGranted(bytes32,address,address)": {
						"details": "Emitted when `account` is granted `role`. `sender` is the account that originated the contract call, an admin role bearer except when using {AccessControl-_setupRole}."
					},
					"RoleRevoked(bytes32,address,address)": {
						"details": "Emitted when `account` is revoked `role`. `sender` is the account that originated the contract call:   - if using `revokeRole`, it is the admin role bearer   - if using `renounceRole`, it is the role bearer (i.e. `account`)"
					},
					"Unpaused(address)": {
						"details": "Emitted when the pause is lifted by `account`."
					},
					"Upgraded(address)": {
						"details": "Emitted when the implementation is upgraded."
					}
				},
				"kind": "dev",
				"methods": {
					"getRoleAdmin(bytes32)": {
						"details": "Returns the admin role that controls `role`. See {grantRole} and {revokeRole}. To change a role's admin, use {_setRoleAdmin}."
					},
					"grantRole(bytes32,address)": {
						"details": "Grants `role` to `account`. If `account` had not been already granted `role`, emits a {RoleGranted} event. Requirements: - the caller must have ``role``'s admin role. May emit a {RoleGranted} event."
					},
					"hasRole(bytes32,address)": {
						"details": "Returns `true` if `account` has been granted `role`."
					},
					"paused()": {
						"details": "Returns true if the contract is paused, and false otherwise."
					},
					"proxiableUUID()": {
						"details": "Implementation of the ERC1822 {proxiableUUID} function. This returns the storage slot used by the implementation. It is used to validate the implementation's compatibility when performing an upgrade. IMPORTANT: A proxy pointing at a proxiable contract should not be considered proxiable itself, because this risks bricking a proxy that upgrades to it, by delegating to itself until out of gas. Thus it is critical that this function revert if invoked through a proxy. This is guaranteed by the `notDelegated` modifier."
					},
					"renounceRole(bytes32,address)": {
						"details": "Revokes `role` from the calling account. Roles are often managed via {grantRole} and {revokeRole}: this function's purpose is to provide a mechanism for accounts to lose their privileges if they are compromised (such as when a trusted device is misplaced). If the calling account had been revoked `role`, emits a {RoleRevoked} event. Requirements: - the caller must be `callerConfirmation`. May emit a {RoleRevoked} event."
					},
					"revokeRole(bytes32,address)": {
						"details": "Revokes `role` from `account`. If `account` had been granted `role`, emits a {RoleRevoked} event. Requirements: - the caller must have ``role``'s admin role. May emit a {RoleRevoked} event."
					},
					"supportsInterface(bytes4)": {
						"details": "See {IERC165-supportsInterface}."
					},
					"upgradeToAndCall(address,bytes)": {
						"custom:oz-upgrades-unsafe-allow-reachable": "delegatecall",
						"details": "Upgrade the implementation of the proxy to `newImplementation`, and subsequently execute the function call encoded in `data`. Calls {_authorizeUpgrade}. Emits an {Upgraded} event."
					}
				},
				"version": 1
			},
			"evm": {
				"assembly": "    /* \"src/smartcontracts/CryptoQuestTheShardsOfGenesisMMORPG.sol\":1130:8944  contract CryptoQuestTheShardsOfGenesisMMPORPG is Initializable, PausableUpgradeable, AccessControlUpgradeable, UUPSUpgradeable {... */\n  mstore(0x40, 0xa0)\n    /* \"@openzeppelin/contracts-upgradeable/proxy/utils/UUPSUpgradeable.sol\":1171:1175  this */\n  address\n    /* \"@openzeppelin/contracts-upgradeable/proxy/utils/UUPSUpgradeable.sol\":1128:1176  address private immutable __self = address(this) */\n  0x80\n  mstore\n    /* \"src/smartcontracts/CryptoQuestTheShardsOfGenesisMMORPG.sol\":2422:2423  1 */\n  0x01\n    /* \"src/smartcontracts/CryptoQuestTheShardsOfGenesisMMORPG.sol\":2396:2423  uint private nextItemId = 1 */\n  0x06\n  dup2\n  swap1\n  sstore\n    /* \"src/smartcontracts/CryptoQuestTheShardsOfGenesisMMORPG.sol\":2429:2458  uint private nextRecipeId = 1 */\n  0x07\n  sstore\n    /* \"src/smartcontracts/CryptoQuestTheShardsOfGenesisMMORPG.sol\":1130:8944  contract CryptoQuestTheShardsOfGenesisMMPORPG is Initializable, PausableUpgradeable, AccessControlUpgradeable, UUPSUpgradeable {... */\n  callvalue\n  dup1\n  iszero\n  tag_1\n  jumpi\n  0x00\n  dup1\n  revert\ntag_1:\n  pop\n  mload(0x80)\n  codecopy(0x00, dataOffset(sub_0), dataSize(sub_0))\n  0x00\n  assignImmutable(\"0x3b04ad91523c4dcf551e081621e633b9099d51bf9c5461e58c3bc7354a578b27\")\n  return(0x00, dataSize(sub_0))\nstop\n\nsub_0: assembly {\n        /* \"src/smartcontracts/CryptoQuestTheShardsOfGenesisMMORPG.sol\":1130:8944  contract CryptoQuestTheShardsOfGenesisMMPORPG is Initializable, PausableUpgradeable, AccessControlUpgradeable, UUPSUpgradeable {... */\n      mstore(0x40, 0x80)\n      jumpi(tag_1, lt(calldatasize, 0x04))\n      shr(0xe0, calldataload(0x00))\n      dup1\n      0x8a13eea7\n      gt\n      tag_44\n      jumpi\n      dup1\n      0xbfb231d2\n      gt\n      tag_45\n      jumpi\n      dup1\n      0xe551ba4b\n      gt\n      tag_46\n      jumpi\n      dup1\n      0xe551ba4b\n      eq\n      tag_38\n      jumpi\n      dup1\n      0xe63ab1e9\n      eq\n      tag_39\n      jumpi\n      dup1\n      0xee99205c\n      eq\n      tag_40\n      jumpi\n      dup1\n      0xf4e0d9ac\n      eq\n      tag_41\n      jumpi\n      dup1\n      0xf5e95acb\n      eq\n      tag_42\n      jumpi\n      dup1\n      0xf72c0d8b\n      eq\n      tag_43\n      jumpi\n      0x00\n      dup1\n      revert\n    tag_46:\n      dup1\n      0xbfb231d2\n      eq\n      tag_33\n      jumpi\n      dup1\n      0xd3dcff7c\n      eq\n      tag_34\n      jumpi\n      dup1\n      0xd547741f\n      eq\n      tag_35\n      jumpi\n      dup1\n      0xd836fc6f\n      eq\n      tag_36\n      jumpi\n      dup1\n      0xe2eb41ff\n      eq\n      tag_37\n      jumpi\n      0x00\n      dup1\n      revert\n    tag_45:\n      dup1\n      0xa75859e1\n      gt\n      tag_47\n      jumpi\n      dup1\n      0xa75859e1\n      eq\n      tag_28\n      jumpi\n      dup1\n      0xa9834b67\n      eq\n      tag_29\n      jumpi\n      dup1\n      0xad3cb1cc\n      eq\n      tag_30\n      jumpi\n      dup1\n      0xb001f618\n      eq\n      tag_31\n      jumpi\n      dup1\n      0xbe22d27d\n      eq\n      tag_32\n      jumpi\n      0x00\n      dup1\n      revert\n    tag_47:\n      dup1\n      0x8a13eea7\n      eq\n      tag_23\n      jumpi\n      dup1\n      0x91d14854\n      eq\n      tag_24\n      jumpi\n      dup1\n      0x965afa89\n      eq\n      tag_25\n      jumpi\n      dup1\n      0x9a03d9a3\n      eq\n      tag_26\n      jumpi\n      dup1\n      0xa217fddf\n      eq\n      tag_27\n      jumpi\n      0x00\n      dup1\n      revert\n    tag_44:\n      dup1\n      0x41bec0d2\n      gt\n      tag_48\n      jumpi\n      dup1\n      0x52d1902d\n      gt\n      tag_49\n      jumpi\n      dup1\n      0x52d1902d\n      eq\n      tag_17\n      jumpi\n      dup1\n      0x5c975abb\n      eq\n      tag_18\n      jumpi\n      dup1\n      0x5f2d6bcd\n      eq\n      tag_19\n      jumpi\n      dup1\n      0x6f347a78\n      eq\n      tag_20\n      jumpi\n      dup1\n      0x7309cbbd\n      eq\n      tag_21\n      jumpi\n      dup1\n      0x8456cb59\n      eq\n      tag_22\n      jumpi\n      0x00\n      dup1\n      revert\n    tag_49:\n      dup1\n      0x41bec0d2\n      eq\n      tag_12\n      jumpi\n      dup1\n      0x443c227c\n      eq\n      tag_13\n      jumpi\n      dup1\n      0x4a7ffcbc\n      eq\n      tag_14\n      jumpi\n      dup1\n      0x4f1ef286\n      eq\n      tag_15\n      jumpi\n      dup1\n      0x4fa4a1bb\n      eq\n      tag_16\n      jumpi\n      0x00\n      dup1\n      revert\n    tag_48:\n      dup1\n      0x2f2ff15d\n      gt\n      tag_50\n      jumpi\n      dup1\n      0x2f2ff15d\n      eq\n      tag_7\n      jumpi\n      dup1\n      0x31fee8be\n      eq\n      tag_8\n      jumpi\n      dup1\n      0x36568abe\n      eq\n      tag_9\n      jumpi\n      dup1\n      0x3f4ba83a\n      eq\n      tag_10\n      jumpi\n      dup1\n      0x3fa9fcf8\n      eq\n      tag_11\n      jumpi\n      0x00\n      dup1\n      revert\n    tag_50:\n      dup1\n      0x01ffc9a7\n      eq\n      tag_2\n      jumpi\n      dup1\n      0x02eec568\n      eq\n      tag_3\n      jumpi\n      dup1\n      0x17435e1a\n      eq\n      tag_4\n      jumpi\n      dup1\n      0x21f42268\n      eq\n      tag_5\n      jumpi\n      dup1\n      0x248a9ca3\n      eq\n      tag_6\n      jumpi\n    tag_1:\n      0x00\n      dup1\n      revert\n        /* \"@openzeppelin/contracts-upgradeable/access/AccessControlUpgradeable.sol\":3443:3645  function supportsInterface(bytes4 interfaceId) public view virtual override returns (bool) {... */\n    tag_2:\n      callvalue\n      dup1\n      iszero\n      tag_51\n      jumpi\n      0x00\n      dup1\n      revert\n    tag_51:\n      pop\n      tag_52\n      tag_53\n      calldatasize\n      0x04\n      tag_54\n      jump\t// in\n    tag_53:\n      tag_55\n      jump\t// in\n    tag_52:\n      mload(0x40)\n        /* \"#utility.yul\":470:484   */\n      swap1\n      iszero\n        /* \"#utility.yul\":463:485   */\n      iszero\n        /* \"#utility.yul\":445:486   */\n      dup2\n      mstore\n        /* \"#utility.yul\":433:435   */\n      0x20\n        /* \"#utility.yul\":418:436   */\n      add\n        /* \"@openzeppelin/contracts-upgradeable/access/AccessControlUpgradeable.sol\":3443:3645  function supportsInterface(bytes4 interfaceId) public view virtual override returns (bool) {... */\n    tag_56:\n      mload(0x40)\n      dup1\n      swap2\n      sub\n      swap1\n      return\n        /* \"src/smartcontracts/CryptoQuestTheShardsOfGenesisMMORPG.sol\":1642:1673  IFarming public farmingContract */\n    tag_3:\n      callvalue\n      dup1\n      iszero\n      tag_58\n      jumpi\n      0x00\n      dup1\n      revert\n    tag_58:\n      pop\n      sload(0x05)\n      tag_59\n      swap1\n      sub(shl(0xa0, 0x01), 0x01)\n      and\n      dup2\n      jump\n    tag_59:\n      mload(0x40)\n      sub(shl(0xa0, 0x01), 0x01)\n        /* \"#utility.yul\":678:710   */\n      swap1\n      swap2\n      and\n        /* \"#utility.yul\":660:711   */\n      dup2\n      mstore\n        /* \"#utility.yul\":648:650   */\n      0x20\n        /* \"#utility.yul\":633:651   */\n      add\n        /* \"src/smartcontracts/CryptoQuestTheShardsOfGenesisMMORPG.sol\":1642:1673  IFarming public farmingContract */\n      tag_56\n        /* \"#utility.yul\":497:717   */\n      jump\n        /* \"src/smartcontracts/CryptoQuestTheShardsOfGenesisMMORPG.sol\":5851:6383  function completeQuest(string memory questTitle) public {... */\n    tag_4:\n      callvalue\n      dup1\n      iszero\n      tag_63\n      jumpi\n      0x00\n      dup1\n      revert\n    tag_63:\n      pop\n      tag_64\n      tag_65\n      calldatasize\n      0x04\n      tag_66\n      jump\t// in\n    tag_65:\n      tag_67\n      jump\t// in\n    tag_64:\n      stop\n        /* \"src/smartcontracts/CryptoQuestTheShardsOfGenesisMMORPG.sol\":1542:1570  IERC1155 public erc1155Token */\n    tag_5:\n      callvalue\n      dup1\n      iszero\n      tag_68\n      jumpi\n      0x00\n      dup1\n      revert\n    tag_68:\n      pop\n      sload(0x02)\n      tag_59\n      swap1\n      sub(shl(0xa0, 0x01), 0x01)\n      and\n      dup2\n      jump\n        /* \"@openzeppelin/contracts-upgradeable/access/AccessControlUpgradeable.sol\":4759:4950  function getRoleAdmin(bytes32 role) public view virtual returns (bytes32) {... */\n    tag_6:\n      callvalue\n      dup1\n      iszero\n      tag_73\n      jumpi\n      0x00\n      dup1\n      revert\n    tag_73:\n      pop\n      tag_74\n      tag_75\n      calldatasize\n      0x04\n      tag_76\n      jump\t// in\n    tag_75:\n      tag_77\n      jump\t// in\n    tag_74:\n      mload(0x40)\n        /* \"#utility.yul\":2656:2681   */\n      swap1\n      dup2\n      mstore\n        /* \"#utility.yul\":2644:2646   */\n      0x20\n        /* \"#utility.yul\":2629:2647   */\n      add\n        /* \"@openzeppelin/contracts-upgradeable/access/AccessControlUpgradeable.sol\":4759:4950  function getRoleAdmin(bytes32 role) public view virtual returns (bytes32) {... */\n      tag_56\n        /* \"#utility.yul\":2510:2687   */\n      jump\n        /* \"@openzeppelin/contracts-upgradeable/access/AccessControlUpgradeable.sol\":5246:5382  function grantRole(bytes32 role, address account) public virtual onlyRole(getRoleAdmin(role)) {... */\n    tag_7:\n      callvalue\n      dup1\n      iszero\n      tag_80\n      jumpi\n      0x00\n      dup1\n      revert\n    tag_80:\n      pop\n      tag_64\n      tag_82\n      calldatasize\n      0x04\n      tag_83\n      jump\t// in\n    tag_82:\n      tag_84\n      jump\t// in\n        /* \"src/smartcontracts/CryptoQuestTheShardsOfGenesisMMORPG.sol\":5318:5633  function addItem(string memory name, uint attackBonus, uint defenseBonus, uint manaBonus, uint healthBonus) public onlyRole(GAME_ADMIN_ROLE) {... */\n    tag_8:\n      callvalue\n      dup1\n      iszero\n      tag_85\n      jumpi\n      0x00\n      dup1\n      revert\n    tag_85:\n      pop\n      tag_64\n      tag_87\n      calldatasize\n      0x04\n      tag_88\n      jump\t// in\n    tag_87:\n      tag_89\n      jump\t// in\n        /* \"@openzeppelin/contracts-upgradeable/access/AccessControlUpgradeable.sol\":6348:6593  function renounceRole(bytes32 role, address callerConfirmation) public virtual {... */\n    tag_9:\n      callvalue\n      dup1\n      iszero\n      tag_90\n      jumpi\n      0x00\n      dup1\n      revert\n    tag_90:\n      pop\n      tag_64\n      tag_92\n      calldatasize\n      0x04\n      tag_83\n      jump\t// in\n    tag_92:\n      tag_93\n      jump\t// in\n        /* \"src/smartcontracts/CryptoQuestTheShardsOfGenesisMMORPG.sol\":4879:4954  function unpause() public onlyRole(PAUSER_ROLE) {... */\n    tag_10:\n      callvalue\n      dup1\n      iszero\n      tag_94\n      jumpi\n      0x00\n      dup1\n      revert\n    tag_94:\n      pop\n      tag_64\n      tag_96\n      jump\t// in\n        /* \"src/smartcontracts/CryptoQuestTheShardsOfGenesisMMORPG.sol\":5064:5312  function createPlayer() public {... */\n    tag_11:\n      callvalue\n      dup1\n      iszero\n      tag_97\n      jumpi\n      0x00\n      dup1\n      revert\n    tag_97:\n      pop\n      tag_64\n      tag_99\n      jump\t// in\n        /* \"src/smartcontracts/CryptoQuestTheShardsOfGenesisMMORPG.sol\":3928:4062  function setERC20Address(address _erc20Address) external onlyRole(GAME_ADMIN_ROLE) {... */\n    tag_12:\n      callvalue\n      dup1\n      iszero\n      tag_100\n      jumpi\n      0x00\n      dup1\n      revert\n    tag_100:\n      pop\n      tag_64\n      tag_102\n      calldatasize\n      0x04\n      tag_103\n      jump\t// in\n    tag_102:\n      tag_104\n      jump\t// in\n        /* \"src/smartcontracts/CryptoQuestTheShardsOfGenesisMMORPG.sol\":2700:2738  mapping(uint => Recipe) public recipes */\n    tag_13:\n      callvalue\n      dup1\n      iszero\n      tag_105\n      jumpi\n      0x00\n      dup1\n      revert\n    tag_105:\n      pop\n      tag_74\n      tag_107\n      calldatasize\n      0x04\n      tag_76\n      jump\t// in\n    tag_107:\n      mstore(0x20, 0x0d)\n      0x00\n      swap1\n      dup2\n      mstore\n      0x40\n      swap1\n      keccak256\n      0x01\n      add\n      sload\n      dup2\n      jump\n        /* \"src/smartcontracts/CryptoQuestTheShardsOfGenesisMMORPG.sol\":1576:1599  IDAO public daoContract */\n    tag_14:\n      callvalue\n      dup1\n      iszero\n      tag_112\n      jumpi\n      0x00\n      dup1\n      revert\n    tag_112:\n      pop\n      sload(0x03)\n      tag_59\n      swap1\n      sub(shl(0xa0, 0x01), 0x01)\n      and\n      dup2\n      jump\n        /* \"@openzeppelin/contracts-upgradeable/proxy/utils/UUPSUpgradeable.sol\":4158:4372  function upgradeToAndCall(address newImplementation, bytes memory data) public payable virtual onlyProxy {... */\n    tag_15:\n      tag_64\n      tag_118\n      calldatasize\n      0x04\n      tag_119\n      jump\t// in\n    tag_118:\n      tag_120\n      jump\t// in\n        /* \"src/smartcontracts/CryptoQuestTheShardsOfGenesisMMORPG.sol\":6389:6757  function createGuild(string memory name, address leader) public onlyRole(GAME_ADMIN_ROLE) {... */\n    tag_16:\n      callvalue\n      dup1\n      iszero\n      tag_121\n      jumpi\n      0x00\n      dup1\n      revert\n    tag_121:\n      pop\n      tag_64\n      tag_123\n      calldatasize\n      0x04\n      tag_124\n      jump\t// in\n    tag_123:\n      tag_125\n      jump\t// in\n        /* \"@openzeppelin/contracts-upgradeable/proxy/utils/UUPSUpgradeable.sol\":3705:3839  function proxiableUUID() external view virtual notDelegated returns (bytes32) {... */\n    tag_17:\n      callvalue\n      dup1\n      iszero\n      tag_126\n      jumpi\n      0x00\n      dup1\n      revert\n    tag_126:\n      pop\n      tag_74\n      tag_128\n      jump\t// in\n        /* \"@openzeppelin/contracts-upgradeable/utils/PausableUpgradeable.sol\":2692:2837  function paused() public view virtual returns (bool) {... */\n    tag_18:\n      callvalue\n      dup1\n      iszero\n      tag_130\n      jumpi\n      0x00\n      dup1\n      revert\n    tag_130:\n      pop\n      0x00\n      dup1\n      mload\n      0x20\n      data_c0c65a3718f3702d917c44106b91645b509d2e2d0979b70495c3babce192339f\n      dup4\n      codecopy\n      dup2\n      mload\n      swap2\n      mstore\n        /* \"@openzeppelin/contracts-upgradeable/utils/PausableUpgradeable.sol\":2821:2830  $._paused */\n      sload\n      0xff\n      and\n        /* \"@openzeppelin/contracts-upgradeable/utils/PausableUpgradeable.sol\":2692:2837  function paused() public view virtual returns (bool) {... */\n      jump(tag_52)\n        /* \"src/smartcontracts/CryptoQuestTheShardsOfGenesisMMORPG.sol\":1510:1536  IERC721 public erc721Token */\n    tag_19:\n      callvalue\n      dup1\n      iszero\n      tag_134\n      jumpi\n      0x00\n      dup1\n      revert\n    tag_134:\n      pop\n      sload(0x01)\n      tag_59\n      swap1\n      sub(shl(0xa0, 0x01), 0x01)\n      and\n      dup2\n      jump\n        /* \"src/smartcontracts/CryptoQuestTheShardsOfGenesisMMORPG.sol\":5639:5845  function startQuest(string memory title, string memory description, uint rewardXP) public onlyRole(GAME_ADMIN_ROLE) {... */\n    tag_20:\n      callvalue\n      dup1\n      iszero\n      tag_139\n      jumpi\n      0x00\n      dup1\n      revert\n    tag_139:\n      pop\n      tag_64\n      tag_141\n      calldatasize\n      0x04\n      tag_142\n      jump\t// in\n    tag_141:\n      tag_143\n      jump\t// in\n        /* \"src/smartcontracts/CryptoQuestTheShardsOfGenesisMMORPG.sol\":7529:8828  function craftItem(uint recipeId) public {... */\n    tag_21:\n      callvalue\n      dup1\n      iszero\n      tag_144\n      jumpi\n      0x00\n      dup1\n      revert\n    tag_144:\n      pop\n      tag_64\n      tag_146\n      calldatasize\n      0x04\n      tag_76\n      jump\t// in\n    tag_146:\n      tag_147\n      jump\t// in\n        /* \"src/smartcontracts/CryptoQuestTheShardsOfGenesisMMORPG.sol\":4802:4873  function pause() public onlyRole(PAUSER_ROLE) {... */\n    tag_22:\n      callvalue\n      dup1\n      iszero\n      tag_148\n      jumpi\n      0x00\n      dup1\n      revert\n    tag_148:\n      pop\n      tag_64\n      tag_150\n      jump\t// in\n        /* \"src/smartcontracts/CryptoQuestTheShardsOfGenesisMMORPG.sol\":1480:1504  IERC20 public erc20Token */\n    tag_23:\n      callvalue\n      dup1\n      iszero\n      tag_151\n      jumpi\n      0x00\n      dup1\n      revert\n    tag_151:\n      pop\n      sload(0x00)\n      tag_59\n      swap1\n      sub(shl(0xa0, 0x01), 0x01)\n      and\n      dup2\n      jump\n        /* \"@openzeppelin/contracts-upgradeable/access/AccessControlUpgradeable.sol\":3732:3939  function hasRole(bytes32 role, address account) public view virtual returns (bool) {... */\n    tag_24:\n      callvalue\n      dup1\n      iszero\n      tag_156\n      jumpi\n      0x00\n      dup1\n      revert\n    tag_156:\n      pop\n      tag_52\n      tag_158\n      calldatasize\n      0x04\n      tag_83\n      jump\t// in\n    tag_158:\n      tag_159\n      jump\t// in\n        /* \"src/smartcontracts/CryptoQuestTheShardsOfGenesisMMORPG.sol\":4363:4490  function setDAOAddress(address _daoAddress) external onlyRole(GAME_ADMIN_ROLE) {... */\n    tag_25:\n      callvalue\n      dup1\n      iszero\n      tag_161\n      jumpi\n      0x00\n      dup1\n      revert\n    tag_161:\n      pop\n      tag_64\n      tag_163\n      calldatasize\n      0x04\n      tag_103\n      jump\t// in\n    tag_163:\n      tag_164\n      jump\t// in\n        /* \"src/smartcontracts/CryptoQuestTheShardsOfGenesisMMORPG.sol\":4068:4207  function setERC721Address(address _erc721Address) external onlyRole(GAME_ADMIN_ROLE) {... */\n    tag_26:\n      callvalue\n      dup1\n      iszero\n      tag_165\n      jumpi\n      0x00\n      dup1\n      revert\n    tag_165:\n      pop\n      tag_64\n      tag_167\n      calldatasize\n      0x04\n      tag_103\n      jump\t// in\n    tag_167:\n      tag_168\n      jump\t// in\n        /* \"@openzeppelin/contracts-upgradeable/access/AccessControlUpgradeable.sol\":2317:2366  bytes32 public constant DEFAULT_ADMIN_ROLE = 0x00 */\n    tag_27:\n      callvalue\n      dup1\n      iszero\n      tag_169\n      jumpi\n      0x00\n      dup1\n      revert\n    tag_169:\n      pop\n      tag_74\n        /* \"@openzeppelin/contracts-upgradeable/access/AccessControlUpgradeable.sol\":2362:2366  0x00 */\n      0x00\n        /* \"@openzeppelin/contracts-upgradeable/access/AccessControlUpgradeable.sol\":2317:2366  bytes32 public constant DEFAULT_ADMIN_ROLE = 0x00 */\n      dup2\n      jump\n        /* \"src/smartcontracts/CryptoQuestTheShardsOfGenesisMMORPG.sol\":2605:2644  mapping(address => Guild) public guilds */\n    tag_28:\n      callvalue\n      dup1\n      iszero\n      tag_173\n      jumpi\n      0x00\n      dup1\n      revert\n    tag_173:\n      pop\n      tag_174\n      tag_175\n      calldatasize\n      0x04\n      tag_103\n      jump\t// in\n    tag_175:\n      tag_176\n      jump\t// in\n    tag_174:\n      mload(0x40)\n      tag_56\n      swap3\n      swap2\n      swap1\n      tag_178\n      jump\t// in\n        /* \"src/smartcontracts/CryptoQuestTheShardsOfGenesisMMORPG.sol\":7281:7523  function addRecipe(uint[] memory itemIds, uint resultItemId) public onlyRole(GAME_ADMIN_ROLE) {... */\n    tag_29:\n      callvalue\n      dup1\n      iszero\n      tag_179\n      jumpi\n      0x00\n      dup1\n      revert\n    tag_179:\n      pop\n      tag_64\n      tag_181\n      calldatasize\n      0x04\n      tag_182\n      jump\t// in\n    tag_181:\n      tag_183\n      jump\t// in\n        /* \"@openzeppelin/contracts-upgradeable/proxy/utils/UUPSUpgradeable.sol\":1819:1877  string public constant UPGRADE_INTERFACE_VERSION = \"5.0.0\" */\n    tag_30:\n      callvalue\n      dup1\n      iszero\n      tag_184\n      jumpi\n      0x00\n      dup1\n      revert\n    tag_184:\n      pop\n      tag_185\n      mload(0x40)\n      dup1\n      0x40\n      add\n      0x40\n      mstore\n      dup1\n      0x05\n      dup2\n      mstore\n      0x20\n      add\n      shl(0xdc, 0x0352e302e3)\n      dup2\n      mstore\n      pop\n      dup2\n      jump\n    tag_185:\n      mload(0x40)\n      tag_56\n      swap2\n      swap1\n      tag_188\n      jump\t// in\n        /* \"src/smartcontracts/CryptoQuestTheShardsOfGenesisMMORPG.sol\":4649:4796  function setFarmingAddress(address _farmingAddress) external onlyRole(GAME_ADMIN_ROLE) {... */\n    tag_31:\n      callvalue\n      dup1\n      iszero\n      tag_189\n      jumpi\n      0x00\n      dup1\n      revert\n    tag_189:\n      pop\n      tag_64\n      tag_191\n      calldatasize\n      0x04\n      tag_103\n      jump\t// in\n    tag_191:\n      tag_192\n      jump\t// in\n        /* \"src/smartcontracts/CryptoQuestTheShardsOfGenesisMMORPG.sol\":1403:1473  bytes32 public constant GAME_ADMIN_ROLE = keccak256(\"GAME_ADMIN_ROLE\") */\n    tag_32:\n      callvalue\n      dup1\n      iszero\n      tag_193\n      jumpi\n      0x00\n      dup1\n      revert\n    tag_193:\n      pop\n      tag_74\n      0x00\n      dup1\n      mload\n      0x20\n      data_3059375685003c5c33343043cb51f6c6b03e849d5b2f19339e935f8b505d9fe3\n      dup4\n      codecopy\n      dup2\n      mload\n      swap2\n      mstore\n      dup2\n      jump\n        /* \"src/smartcontracts/CryptoQuestTheShardsOfGenesisMMORPG.sol\":2465:2499  mapping(uint => Item) public items */\n    tag_33:\n      callvalue\n      dup1\n      iszero\n      tag_197\n      jumpi\n      0x00\n      dup1\n      revert\n    tag_197:\n      pop\n      tag_198\n      tag_199\n      calldatasize\n      0x04\n      tag_76\n      jump\t// in\n    tag_199:\n      tag_200\n      jump\t// in\n    tag_198:\n      mload(0x40)\n      tag_56\n      swap7\n      swap6\n      swap5\n      swap4\n      swap3\n      swap2\n      swap1\n      tag_202\n      jump\t// in\n        /* \"src/smartcontracts/CryptoQuestTheShardsOfGenesisMMORPG.sol\":2552:2599  mapping(address => Quest[]) public playerQuests */\n    tag_34:\n      callvalue\n      dup1\n      iszero\n      tag_203\n      jumpi\n      0x00\n      dup1\n      revert\n    tag_203:\n      pop\n      tag_204\n      tag_205\n      calldatasize\n      0x04\n      tag_206\n      jump\t// in\n    tag_205:\n      tag_207\n      jump\t// in\n    tag_204:\n      mload(0x40)\n      tag_56\n      swap5\n      swap4\n      swap3\n      swap2\n      swap1\n      tag_209\n      jump\t// in\n        /* \"@openzeppelin/contracts-upgradeable/access/AccessControlUpgradeable.sol\":5662:5800  function revokeRole(bytes32 role, address account) public virtual onlyRole(getRoleAdmin(role)) {... */\n    tag_35:\n      callvalue\n      dup1\n      iszero\n      tag_210\n      jumpi\n      0x00\n      dup1\n      revert\n    tag_210:\n      pop\n      tag_64\n      tag_212\n      calldatasize\n      0x04\n      tag_83\n      jump\t// in\n    tag_212:\n      tag_213\n      jump\t// in\n        /* \"src/smartcontracts/CryptoQuestTheShardsOfGenesisMMORPG.sol\":4213:4357  function setERC1155Address(address _erc1155Address) external onlyRole(GAME_ADMIN_ROLE) {... */\n    tag_36:\n      callvalue\n      dup1\n      iszero\n      tag_214\n      jumpi\n      0x00\n      dup1\n      revert\n    tag_214:\n      pop\n      tag_64\n      tag_216\n      calldatasize\n      0x04\n      tag_103\n      jump\t// in\n    tag_216:\n      tag_217\n      jump\t// in\n        /* \"src/smartcontracts/CryptoQuestTheShardsOfGenesisMMORPG.sol\":2505:2546  mapping(address => Player) public players */\n    tag_37:\n      callvalue\n      dup1\n      iszero\n      tag_218\n      jumpi\n      0x00\n      dup1\n      revert\n    tag_218:\n      pop\n      tag_219\n      tag_220\n      calldatasize\n      0x04\n      tag_103\n      jump\t// in\n    tag_220:\n      mstore(0x20, 0x09)\n      0x00\n      swap1\n      dup2\n      mstore\n      0x40\n      swap1\n      keccak256\n      dup1\n      sload\n      0x01\n      dup3\n      add\n      sload\n      0x02\n      dup4\n      add\n      sload\n      0x03\n      dup5\n      add\n      sload\n      0x04\n      dup6\n      add\n      sload\n      0x05\n      dup7\n      add\n      sload\n      0x06\n      dup8\n      add\n      sload\n      0x07\n      swap1\n      swap8\n      add\n      sload\n      swap6\n      swap7\n      swap5\n      swap6\n      swap4\n      swap5\n      swap3\n      swap4\n      swap2\n      swap3\n      swap1\n      swap2\n      dup9\n      jump\n    tag_219:\n      0x40\n      dup1\n      mload\n        /* \"#utility.yul\":10158:10183   */\n      swap9\n      dup10\n      mstore\n        /* \"#utility.yul\":10214:10216   */\n      0x20\n        /* \"#utility.yul\":10199:10217   */\n      dup10\n      add\n        /* \"#utility.yul\":10192:10226   */\n      swap8\n      swap1\n      swap8\n      mstore\n        /* \"#utility.yul\":10242:10260   */\n      swap6\n      dup8\n      add\n        /* \"#utility.yul\":10235:10269   */\n      swap5\n      swap1\n      swap5\n      mstore\n        /* \"#utility.yul\":10300:10302   */\n      0x60\n        /* \"#utility.yul\":10285:10303   */\n      dup7\n      add\n        /* \"#utility.yul\":10278:10312   */\n      swap3\n      swap1\n      swap3\n      mstore\n        /* \"#utility.yul\":10343:10346   */\n      0x80\n        /* \"#utility.yul\":10328:10347   */\n      dup6\n      add\n        /* \"#utility.yul\":10321:10356   */\n      mstore\n        /* \"#utility.yul\":10387:10390   */\n      0xa0\n        /* \"#utility.yul\":10372:10391   */\n      dup5\n      add\n        /* \"#utility.yul\":10365:10400   */\n      mstore\n        /* \"#utility.yul\":10431:10434   */\n      0xc0\n        /* \"#utility.yul\":10416:10435   */\n      dup4\n      add\n        /* \"#utility.yul\":10409:10444   */\n      mstore\n        /* \"#utility.yul\":10475:10478   */\n      0xe0\n        /* \"#utility.yul\":10460:10479   */\n      dup3\n      add\n        /* \"#utility.yul\":10453:10488   */\n      mstore\n        /* \"#utility.yul\":10145:10148   */\n      0x0100\n        /* \"#utility.yul\":10130:10149   */\n      add\n        /* \"src/smartcontracts/CryptoQuestTheShardsOfGenesisMMORPG.sol\":2505:2546  mapping(address => Player) public players */\n      tag_56\n        /* \"#utility.yul\":9815:10494   */\n      jump\n        /* \"src/smartcontracts/CryptoQuestTheShardsOfGenesisMMORPG.sol\":6763:7275  function joinGuild(string memory guildName) public {... */\n    tag_38:\n      callvalue\n      dup1\n      iszero\n      tag_224\n      jumpi\n      0x00\n      dup1\n      revert\n    tag_224:\n      pop\n      tag_64\n      tag_226\n      calldatasize\n      0x04\n      tag_66\n      jump\t// in\n    tag_226:\n      tag_227\n      jump\t// in\n        /* \"src/smartcontracts/CryptoQuestTheShardsOfGenesisMMORPG.sol\":1263:1325  bytes32 public constant PAUSER_ROLE = keccak256(\"PAUSER_ROLE\") */\n    tag_39:\n      callvalue\n      dup1\n      iszero\n      tag_228\n      jumpi\n      0x00\n      dup1\n      revert\n    tag_228:\n      pop\n      tag_74\n      0x00\n      dup1\n      mload\n      0x20\n      data_9b87106a812d214d41ad9b68a21119e2948eaaf1040375c939ec808b8862455c\n      dup4\n      codecopy\n      dup2\n      mload\n      swap2\n      mstore\n      dup2\n      jump\n        /* \"src/smartcontracts/CryptoQuestTheShardsOfGenesisMMORPG.sol\":1605:1636  IStaking public stakingContract */\n    tag_40:\n      callvalue\n      dup1\n      iszero\n      tag_232\n      jumpi\n      0x00\n      dup1\n      revert\n    tag_232:\n      pop\n      sload(0x04)\n      tag_59\n      swap1\n      sub(shl(0xa0, 0x01), 0x01)\n      and\n      dup2\n      jump\n        /* \"src/smartcontracts/CryptoQuestTheShardsOfGenesisMMORPG.sol\":4496:4643  function setStakingAddress(address _stakingAddress) external onlyRole(GAME_ADMIN_ROLE) {... */\n    tag_41:\n      callvalue\n      dup1\n      iszero\n      tag_237\n      jumpi\n      0x00\n      dup1\n      revert\n    tag_237:\n      pop\n      tag_64\n      tag_239\n      calldatasize\n      0x04\n      tag_103\n      jump\t// in\n    tag_239:\n      tag_240\n      jump\t// in\n        /* \"src/smartcontracts/CryptoQuestTheShardsOfGenesisMMORPG.sol\":3025:3922  function initialize(... */\n    tag_42:\n      callvalue\n      dup1\n      iszero\n      tag_241\n      jumpi\n      0x00\n      dup1\n      revert\n    tag_241:\n      pop\n      tag_64\n      tag_243\n      calldatasize\n      0x04\n      tag_244\n      jump\t// in\n    tag_243:\n      tag_245\n      jump\t// in\n        /* \"src/smartcontracts/CryptoQuestTheShardsOfGenesisMMORPG.sol\":1331:1397  bytes32 public constant UPGRADER_ROLE = keccak256(\"UPGRADER_ROLE\") */\n    tag_43:\n      callvalue\n      dup1\n      iszero\n      tag_246\n      jumpi\n      0x00\n      dup1\n      revert\n    tag_246:\n      pop\n      tag_74\n        /* \"src/smartcontracts/CryptoQuestTheShardsOfGenesisMMORPG.sol\":1371:1397  keccak256(\"UPGRADER_ROLE\") */\n      0x189ab7a9244df0848122154315af71fe140f3db0fe014031783b0946b8c9d2e3\n        /* \"src/smartcontracts/CryptoQuestTheShardsOfGenesisMMORPG.sol\":1331:1397  bytes32 public constant UPGRADER_ROLE = keccak256(\"UPGRADER_ROLE\") */\n      dup2\n      jump\n        /* \"@openzeppelin/contracts-upgradeable/access/AccessControlUpgradeable.sol\":3443:3645  function supportsInterface(bytes4 interfaceId) public view virtual override returns (bool) {... */\n    tag_55:\n        /* \"@openzeppelin/contracts-upgradeable/access/AccessControlUpgradeable.sol\":3528:3532  bool */\n      0x00\n      not(sub(shl(0xe0, 0x01), 0x01))\n        /* \"@openzeppelin/contracts-upgradeable/access/AccessControlUpgradeable.sol\":3551:3598  interfaceId == type(IAccessControl).interfaceId */\n      dup3\n      and\n      shl(0xe0, 0x7965db0b)\n      eq\n      dup1\n        /* \"@openzeppelin/contracts-upgradeable/access/AccessControlUpgradeable.sol\":3551:3638  interfaceId == type(IAccessControl).interfaceId || super.supportsInterface(interfaceId) */\n      tag_252\n      jumpi\n      pop\n      shl(0xe0, 0x01ffc9a7)\n      not(sub(shl(0xe0, 0x01), 0x01))\n        /* \"@openzeppelin/contracts-upgradeable/utils/introspection/ERC165Upgradeable.sol\":1133:1173  interfaceId == type(IERC165).interfaceId */\n      dup4\n      and\n      eq\n        /* \"@openzeppelin/contracts-upgradeable/access/AccessControlUpgradeable.sol\":3602:3638  super.supportsInterface(interfaceId) */\n    tag_252:\n        /* \"@openzeppelin/contracts-upgradeable/access/AccessControlUpgradeable.sol\":3544:3638  return interfaceId == type(IAccessControl).interfaceId || super.supportsInterface(interfaceId) */\n      swap3\n        /* \"@openzeppelin/contracts-upgradeable/access/AccessControlUpgradeable.sol\":3443:3645  function supportsInterface(bytes4 interfaceId) public view virtual override returns (bool) {... */\n      swap2\n      pop\n      pop\n      jump\t// out\n        /* \"src/smartcontracts/CryptoQuestTheShardsOfGenesisMMORPG.sol\":5851:6383  function completeQuest(string memory questTitle) public {... */\n    tag_67:\n        /* \"src/smartcontracts/CryptoQuestTheShardsOfGenesisMMORPG.sol\":5922:5928  uint i */\n      0x00\n        /* \"src/smartcontracts/CryptoQuestTheShardsOfGenesisMMORPG.sol\":5917:6377  for (uint i = 0; i < playerQuests[msg.sender].length; i++) {... */\n    tag_255:\n        /* \"src/smartcontracts/CryptoQuestTheShardsOfGenesisMMORPG.sol\":5951:5961  msg.sender */\n      caller\n        /* \"src/smartcontracts/CryptoQuestTheShardsOfGenesisMMORPG.sol\":5938:5962  playerQuests[msg.sender] */\n      0x00\n      swap1\n      dup2\n      mstore\n        /* \"src/smartcontracts/CryptoQuestTheShardsOfGenesisMMORPG.sol\":5938:5950  playerQuests */\n      0x0a\n        /* \"src/smartcontracts/CryptoQuestTheShardsOfGenesisMMORPG.sol\":5938:5962  playerQuests[msg.sender] */\n      0x20\n      mstore\n      0x40\n      swap1\n      keccak256\n        /* \"src/smartcontracts/CryptoQuestTheShardsOfGenesisMMORPG.sol\":5938:5969  playerQuests[msg.sender].length */\n      sload\n        /* \"src/smartcontracts/CryptoQuestTheShardsOfGenesisMMORPG.sol\":5934:5969  i < playerQuests[msg.sender].length */\n      dup2\n      lt\n        /* \"src/smartcontracts/CryptoQuestTheShardsOfGenesisMMORPG.sol\":5917:6377  for (uint i = 0; i < playerQuests[msg.sender].length; i++) {... */\n      iszero\n      tag_256\n      jumpi\n        /* \"src/smartcontracts/CryptoQuestTheShardsOfGenesisMMORPG.sol\":6025:6035  msg.sender */\n      caller\n        /* \"src/smartcontracts/CryptoQuestTheShardsOfGenesisMMORPG.sol\":5990:6009  Quest storage quest */\n      0x00\n        /* \"src/smartcontracts/CryptoQuestTheShardsOfGenesisMMORPG.sol\":6012:6036  playerQuests[msg.sender] */\n      swap1\n      dup2\n      mstore\n        /* \"src/smartcontracts/CryptoQuestTheShardsOfGenesisMMORPG.sol\":6012:6024  playerQuests */\n      0x0a\n        /* \"src/smartcontracts/CryptoQuestTheShardsOfGenesisMMORPG.sol\":6012:6036  playerQuests[msg.sender] */\n      0x20\n      mstore\n      0x40\n      dup2\n      keccak256\n        /* \"src/smartcontracts/CryptoQuestTheShardsOfGenesisMMORPG.sol\":6012:6039  playerQuests[msg.sender][i] */\n      dup1\n      sload\n        /* \"src/smartcontracts/CryptoQuestTheShardsOfGenesisMMORPG.sol\":6037:6038  i */\n      dup4\n      swap1\n        /* \"src/smartcontracts/CryptoQuestTheShardsOfGenesisMMORPG.sol\":6012:6039  playerQuests[msg.sender][i] */\n      dup2\n      lt\n      tag_259\n      jumpi\n      tag_259\n      tag_260\n      jump\t// in\n    tag_259:\n      swap1\n      0x00\n      mstore\n      keccak256(0x00, 0x20)\n      swap1\n      0x04\n      mul\n      add\n        /* \"src/smartcontracts/CryptoQuestTheShardsOfGenesisMMORPG.sol\":5990:6039  Quest storage quest = playerQuests[msg.sender][i] */\n      swap1\n      pop\n        /* \"src/smartcontracts/CryptoQuestTheShardsOfGenesisMMORPG.sol\":6128:6138  questTitle */\n      dup3\n        /* \"src/smartcontracts/CryptoQuestTheShardsOfGenesisMMORPG.sol\":6111:6139  abi.encodePacked(questTitle) */\n      add(0x20, mload(0x40))\n      tag_262\n      swap2\n      swap1\n      tag_263\n      jump\t// in\n    tag_262:\n      0x40\n      dup1\n      mload\n      not(0x1f)\n      dup2\n      dup5\n      sub\n      add\n      dup2\n      mstore\n      swap1\n      dup3\n      swap1\n      mstore\n        /* \"src/smartcontracts/CryptoQuestTheShardsOfGenesisMMORPG.sol\":6101:6140  keccak256(abi.encodePacked(questTitle)) */\n      dup1\n      mload\n        /* \"src/smartcontracts/CryptoQuestTheShardsOfGenesisMMORPG.sol\":6111:6139  abi.encodePacked(questTitle) */\n      0x20\n        /* \"src/smartcontracts/CryptoQuestTheShardsOfGenesisMMORPG.sol\":6101:6140  keccak256(abi.encodePacked(questTitle)) */\n      swap2\n      dup3\n      add\n      keccak256\n      swap2\n        /* \"src/smartcontracts/CryptoQuestTheShardsOfGenesisMMORPG.sol\":6067:6096  abi.encodePacked(quest.title) */\n      tag_264\n      swap2\n        /* \"src/smartcontracts/CryptoQuestTheShardsOfGenesisMMORPG.sol\":6084:6089  quest */\n      dup5\n      swap2\n        /* \"src/smartcontracts/CryptoQuestTheShardsOfGenesisMMORPG.sol\":6067:6096  abi.encodePacked(quest.title) */\n      add\n      tag_265\n      jump\t// in\n    tag_264:\n      mload(0x40)\n      0x20\n      dup2\n      dup4\n      sub\n      sub\n      dup2\n      mstore\n      swap1\n      0x40\n      mstore\n        /* \"src/smartcontracts/CryptoQuestTheShardsOfGenesisMMORPG.sol\":6057:6097  keccak256(abi.encodePacked(quest.title)) */\n      dup1\n      mload\n      swap1\n      0x20\n      add\n      keccak256\n        /* \"src/smartcontracts/CryptoQuestTheShardsOfGenesisMMORPG.sol\":6057:6140  keccak256(abi.encodePacked(quest.title)) == keccak256(abi.encodePacked(questTitle)) */\n      eq\n        /* \"src/smartcontracts/CryptoQuestTheShardsOfGenesisMMORPG.sol\":6057:6160  keccak256(abi.encodePacked(quest.title)) == keccak256(abi.encodePacked(questTitle)) && !quest.completed */\n      dup1\n      iszero\n      tag_266\n      jumpi\n      pop\n        /* \"src/smartcontracts/CryptoQuestTheShardsOfGenesisMMORPG.sol\":6145:6160  quest.completed */\n      0x03\n      dup2\n      add\n      sload\n      0xff\n      and\n        /* \"src/smartcontracts/CryptoQuestTheShardsOfGenesisMMORPG.sol\":6144:6160  !quest.completed */\n      iszero\n        /* \"src/smartcontracts/CryptoQuestTheShardsOfGenesisMMORPG.sol\":6057:6160  keccak256(abi.encodePacked(quest.title)) == keccak256(abi.encodePacked(questTitle)) && !quest.completed */\n    tag_266:\n        /* \"src/smartcontracts/CryptoQuestTheShardsOfGenesisMMORPG.sol\":6053:6367  if (keccak256(abi.encodePacked(quest.title)) == keccak256(abi.encodePacked(questTitle)) && !quest.completed) {... */\n      iszero\n      tag_267\n      jumpi\n        /* \"src/smartcontracts/CryptoQuestTheShardsOfGenesisMMORPG.sol\":6180:6195  quest.completed */\n      0x03\n      dup2\n      add\n        /* \"src/smartcontracts/CryptoQuestTheShardsOfGenesisMMORPG.sol\":6180:6202  quest.completed = true */\n      dup1\n      sload\n      not(0xff)\n      and\n        /* \"src/smartcontracts/CryptoQuestTheShardsOfGenesisMMORPG.sol\":6198:6202  true */\n      0x01\n        /* \"src/smartcontracts/CryptoQuestTheShardsOfGenesisMMORPG.sol\":6180:6202  quest.completed = true */\n      swap1\n      dup2\n      or\n      swap1\n      swap2\n      sstore\n        /* \"src/smartcontracts/CryptoQuestTheShardsOfGenesisMMORPG.sol\":6254:6268  quest.rewardXP */\n      0x02\n      dup3\n      add\n      sload\n        /* \"src/smartcontracts/CryptoQuestTheShardsOfGenesisMMORPG.sol\":6228:6238  msg.sender */\n      caller\n        /* \"src/smartcontracts/CryptoQuestTheShardsOfGenesisMMORPG.sol\":6180:6195  quest.completed */\n      0x00\n        /* \"src/smartcontracts/CryptoQuestTheShardsOfGenesisMMORPG.sol\":6220:6239  players[msg.sender] */\n      swap1\n      dup2\n      mstore\n        /* \"src/smartcontracts/CryptoQuestTheShardsOfGenesisMMORPG.sol\":6220:6227  players */\n      0x09\n        /* \"src/smartcontracts/CryptoQuestTheShardsOfGenesisMMORPG.sol\":6220:6239  players[msg.sender] */\n      0x20\n      mstore\n      0x40\n      dup2\n      keccak256\n        /* \"src/smartcontracts/CryptoQuestTheShardsOfGenesisMMORPG.sol\":6220:6250  players[msg.sender].experience */\n      swap1\n      swap3\n      add\n        /* \"src/smartcontracts/CryptoQuestTheShardsOfGenesisMMORPG.sol\":6220:6268  players[msg.sender].experience += quest.rewardXP */\n      dup1\n      sload\n        /* \"src/smartcontracts/CryptoQuestTheShardsOfGenesisMMORPG.sol\":6254:6268  quest.rewardXP */\n      swap2\n      swap3\n        /* \"src/smartcontracts/CryptoQuestTheShardsOfGenesisMMORPG.sol\":6220:6250  players[msg.sender].experience */\n      swap1\n      swap2\n        /* \"src/smartcontracts/CryptoQuestTheShardsOfGenesisMMORPG.sol\":6220:6268  players[msg.sender].experience += quest.rewardXP */\n      tag_268\n      swap1\n        /* \"src/smartcontracts/CryptoQuestTheShardsOfGenesisMMORPG.sol\":6254:6268  quest.rewardXP */\n      dup5\n      swap1\n        /* \"src/smartcontracts/CryptoQuestTheShardsOfGenesisMMORPG.sol\":6220:6268  players[msg.sender].experience += quest.rewardXP */\n      tag_269\n      jump\t// in\n    tag_268:\n      swap1\n      swap2\n      sstore\n      pop\n      pop\n        /* \"src/smartcontracts/CryptoQuestTheShardsOfGenesisMMORPG.sol\":6291:6329  QuestCompleted(msg.sender, questTitle) */\n      mload(0x40)\n        /* \"src/smartcontracts/CryptoQuestTheShardsOfGenesisMMORPG.sol\":6306:6316  msg.sender */\n      caller\n      swap1\n        /* \"src/smartcontracts/CryptoQuestTheShardsOfGenesisMMORPG.sol\":6291:6329  QuestCompleted(msg.sender, questTitle) */\n      0xbe21664565742a9f42cbb6d005f92db59c7bcad35b12ef5b57b79e75676b247a\n      swap1\n      tag_270\n      swap1\n        /* \"src/smartcontracts/CryptoQuestTheShardsOfGenesisMMORPG.sol\":6318:6328  questTitle */\n      dup7\n      swap1\n        /* \"src/smartcontracts/CryptoQuestTheShardsOfGenesisMMORPG.sol\":6291:6329  QuestCompleted(msg.sender, questTitle) */\n      tag_188\n      jump\t// in\n    tag_270:\n      mload(0x40)\n      dup1\n      swap2\n      sub\n      swap1\n      log2\n        /* \"src/smartcontracts/CryptoQuestTheShardsOfGenesisMMORPG.sol\":6347:6352  break */\n      pop\n        /* \"src/smartcontracts/CryptoQuestTheShardsOfGenesisMMORPG.sol\":5917:6377  for (uint i = 0; i < playerQuests[msg.sender].length; i++) {... */\n      pop\n        /* \"src/smartcontracts/CryptoQuestTheShardsOfGenesisMMORPG.sol\":5851:6383  function completeQuest(string memory questTitle) public {... */\n      pop\n      jump\t// out\n        /* \"src/smartcontracts/CryptoQuestTheShardsOfGenesisMMORPG.sol\":6053:6367  if (keccak256(abi.encodePacked(quest.title)) == keccak256(abi.encodePacked(questTitle)) && !quest.completed) {... */\n    tag_267:\n      pop\n        /* \"src/smartcontracts/CryptoQuestTheShardsOfGenesisMMORPG.sol\":5971:5974  i++ */\n      0x01\n      add\n        /* \"src/smartcontracts/CryptoQuestTheShardsOfGenesisMMORPG.sol\":5917:6377  for (uint i = 0; i < playerQuests[msg.sender].length; i++) {... */\n      jump(tag_255)\n    tag_256:\n      pop\n        /* \"src/smartcontracts/CryptoQuestTheShardsOfGenesisMMORPG.sol\":5851:6383  function completeQuest(string memory questTitle) public {... */\n      pop\n      jump\t// out\n        /* \"@openzeppelin/contracts-upgradeable/access/AccessControlUpgradeable.sol\":4759:4950  function getRoleAdmin(bytes32 role) public view virtual returns (bytes32) {... */\n    tag_77:\n        /* \"@openzeppelin/contracts-upgradeable/access/AccessControlUpgradeable.sol\":4824:4831  bytes32 */\n      0x00\n        /* \"@openzeppelin/contracts-upgradeable/access/AccessControlUpgradeable.sol\":4919:4933  $._roles[role] */\n      swap1\n      dup2\n      mstore\n      0x00\n      dup1\n      mload\n      0x20\n      data_b3da67d1b252aeab7c8063542d95e75f82a5307a82535949bc38f7cf7ba8897f\n      dup4\n      codecopy\n      dup2\n      mload\n      swap2\n      mstore\n      0x20\n      mstore\n      0x40\n      swap1\n      keccak256\n        /* \"@openzeppelin/contracts-upgradeable/access/AccessControlUpgradeable.sol\":4919:4943  $._roles[role].adminRole */\n      0x01\n      add\n      sload\n      swap1\n        /* \"@openzeppelin/contracts-upgradeable/access/AccessControlUpgradeable.sol\":4759:4950  function getRoleAdmin(bytes32 role) public view virtual returns (bytes32) {... */\n      jump\t// out\n        /* \"@openzeppelin/contracts-upgradeable/access/AccessControlUpgradeable.sol\":5246:5382  function grantRole(bytes32 role, address account) public virtual onlyRole(getRoleAdmin(role)) {... */\n    tag_84:\n        /* \"@openzeppelin/contracts-upgradeable/access/AccessControlUpgradeable.sol\":5320:5338  getRoleAdmin(role) */\n      tag_274\n        /* \"@openzeppelin/contracts-upgradeable/access/AccessControlUpgradeable.sol\":5333:5337  role */\n      dup3\n        /* \"@openzeppelin/contracts-upgradeable/access/AccessControlUpgradeable.sol\":5320:5332  getRoleAdmin */\n      tag_77\n        /* \"@openzeppelin/contracts-upgradeable/access/AccessControlUpgradeable.sol\":5320:5338  getRoleAdmin(role) */\n      jump\t// in\n    tag_274:\n        /* \"@openzeppelin/contracts-upgradeable/access/AccessControlUpgradeable.sol\":3191:3207  _checkRole(role) */\n      tag_276\n        /* \"@openzeppelin/contracts-upgradeable/access/AccessControlUpgradeable.sol\":3202:3206  role */\n      dup2\n        /* \"@openzeppelin/contracts-upgradeable/access/AccessControlUpgradeable.sol\":3191:3201  _checkRole */\n      tag_277\n        /* \"@openzeppelin/contracts-upgradeable/access/AccessControlUpgradeable.sol\":3191:3207  _checkRole(role) */\n      jump\t// in\n    tag_276:\n        /* \"@openzeppelin/contracts-upgradeable/access/AccessControlUpgradeable.sol\":5350:5375  _grantRole(role, account) */\n      tag_279\n        /* \"@openzeppelin/contracts-upgradeable/access/AccessControlUpgradeable.sol\":5361:5365  role */\n      dup4\n        /* \"@openzeppelin/contracts-upgradeable/access/AccessControlUpgradeable.sol\":5367:5374  account */\n      dup4\n        /* \"@openzeppelin/contracts-upgradeable/access/AccessControlUpgradeable.sol\":5350:5360  _grantRole */\n      tag_280\n        /* \"@openzeppelin/contracts-upgradeable/access/AccessControlUpgradeable.sol\":5350:5375  _grantRole(role, account) */\n      jump\t// in\n    tag_279:\n      pop\n        /* \"@openzeppelin/contracts-upgradeable/access/AccessControlUpgradeable.sol\":5246:5382  function grantRole(bytes32 role, address account) public virtual onlyRole(getRoleAdmin(role)) {... */\n      pop\n      pop\n      pop\n      jump\t// out\n        /* \"src/smartcontracts/CryptoQuestTheShardsOfGenesisMMORPG.sol\":5318:5633  function addItem(string memory name, uint attackBonus, uint defenseBonus, uint manaBonus, uint healthBonus) public onlyRole(GAME_ADMIN_ROLE) {... */\n    tag_89:\n      0x00\n      dup1\n      mload\n      0x20\n      data_3059375685003c5c33343043cb51f6c6b03e849d5b2f19339e935f8b505d9fe3\n      dup4\n      codecopy\n      dup2\n      mload\n      swap2\n      mstore\n        /* \"@openzeppelin/contracts-upgradeable/access/AccessControlUpgradeable.sol\":3191:3207  _checkRole(role) */\n      tag_282\n        /* \"@openzeppelin/contracts-upgradeable/access/AccessControlUpgradeable.sol\":3202:3206  role */\n      dup2\n        /* \"@openzeppelin/contracts-upgradeable/access/AccessControlUpgradeable.sol\":3191:3201  _checkRole */\n      tag_277\n        /* \"@openzeppelin/contracts-upgradeable/access/AccessControlUpgradeable.sol\":3191:3207  _checkRole(role) */\n      jump\t// in\n    tag_282:\n        /* \"src/smartcontracts/CryptoQuestTheShardsOfGenesisMMORPG.sol\":5489:5562  Item(nextItemId, name, attackBonus, defenseBonus, manaBonus, healthBonus) */\n      0x40\n      dup1\n      mload\n      0xc0\n      dup2\n      add\n      dup3\n      mstore\n        /* \"src/smartcontracts/CryptoQuestTheShardsOfGenesisMMORPG.sol\":5494:5504  nextItemId */\n      sload(0x06)\n        /* \"src/smartcontracts/CryptoQuestTheShardsOfGenesisMMORPG.sol\":5489:5562  Item(nextItemId, name, attackBonus, defenseBonus, manaBonus, healthBonus) */\n      dup1\n      dup3\n      mstore\n      0x20\n      dup1\n      dup4\n      add\n      dup11\n      dup2\n      mstore\n      dup4\n      dup6\n      add\n      dup11\n      swap1\n      mstore\n      0x60\n      dup5\n      add\n      dup10\n      swap1\n      mstore\n      0x80\n      dup5\n      add\n      dup9\n      swap1\n      mstore\n      0xa0\n      dup5\n      add\n      dup8\n      swap1\n      mstore\n      0x00\n        /* \"src/smartcontracts/CryptoQuestTheShardsOfGenesisMMORPG.sol\":5469:5486  items[nextItemId] */\n      swap3\n      dup4\n      mstore\n        /* \"src/smartcontracts/CryptoQuestTheShardsOfGenesisMMORPG.sol\":5469:5474  items */\n      0x08\n        /* \"src/smartcontracts/CryptoQuestTheShardsOfGenesisMMORPG.sol\":5469:5486  items[nextItemId] */\n      swap1\n      swap2\n      mstore\n      swap3\n      swap1\n      keccak256\n        /* \"src/smartcontracts/CryptoQuestTheShardsOfGenesisMMORPG.sol\":5469:5562  items[nextItemId] = Item(nextItemId, name, attackBonus, defenseBonus, manaBonus, healthBonus) */\n      dup2\n      mload\n      dup2\n      sstore\n      swap2\n      mload\n        /* \"src/smartcontracts/CryptoQuestTheShardsOfGenesisMMORPG.sol\":5489:5562  Item(nextItemId, name, attackBonus, defenseBonus, manaBonus, healthBonus) */\n      swap1\n      swap2\n        /* \"src/smartcontracts/CryptoQuestTheShardsOfGenesisMMORPG.sol\":5469:5486  items[nextItemId] */\n      swap1\n        /* \"src/smartcontracts/CryptoQuestTheShardsOfGenesisMMORPG.sol\":5469:5562  items[nextItemId] = Item(nextItemId, name, attackBonus, defenseBonus, manaBonus, healthBonus) */\n      0x01\n      dup3\n      add\n      swap1\n      tag_284\n      swap1\n      dup3\n      tag_285\n      jump\t// in\n    tag_284:\n      pop\n      0x40\n      dup3\n      add\n      mload\n      dup2\n      0x02\n      add\n      sstore\n      0x60\n      dup3\n      add\n      mload\n      dup2\n      0x03\n      add\n      sstore\n      0x80\n      dup3\n      add\n      mload\n      dup2\n      0x04\n      add\n      sstore\n      0xa0\n      dup3\n      add\n      mload\n      dup2\n      0x05\n      add\n      sstore\n      swap1\n      pop\n      pop\n        /* \"src/smartcontracts/CryptoQuestTheShardsOfGenesisMMORPG.sol\":5577:5604  ItemAdded(nextItemId, name) */\n      0x78d68ba0e8c23b92e7c700d99efed2719520cbd4af845b2c03ae251f9cdf3d52\n        /* \"src/smartcontracts/CryptoQuestTheShardsOfGenesisMMORPG.sol\":5587:5597  nextItemId */\n      sload(0x06)\n        /* \"src/smartcontracts/CryptoQuestTheShardsOfGenesisMMORPG.sol\":5599:5603  name */\n      dup8\n        /* \"src/smartcontracts/CryptoQuestTheShardsOfGenesisMMORPG.sol\":5577:5604  ItemAdded(nextItemId, name) */\n      mload(0x40)\n      tag_286\n      swap3\n      swap2\n      swap1\n      tag_287\n      jump\t// in\n    tag_286:\n      mload(0x40)\n      dup1\n      swap2\n      sub\n      swap1\n      log1\n        /* \"src/smartcontracts/CryptoQuestTheShardsOfGenesisMMORPG.sol\":5614:5624  nextItemId */\n      0x06\n        /* \"src/smartcontracts/CryptoQuestTheShardsOfGenesisMMORPG.sol\":5614:5626  nextItemId++ */\n      dup1\n      sload\n      swap1\n        /* \"src/smartcontracts/CryptoQuestTheShardsOfGenesisMMORPG.sol\":5614:5624  nextItemId */\n      0x00\n        /* \"src/smartcontracts/CryptoQuestTheShardsOfGenesisMMORPG.sol\":5614:5626  nextItemId++ */\n      tag_288\n      dup4\n      tag_289\n      jump\t// in\n    tag_288:\n      swap2\n      swap1\n      pop\n      sstore\n      pop\n        /* \"src/smartcontracts/CryptoQuestTheShardsOfGenesisMMORPG.sol\":5318:5633  function addItem(string memory name, uint attackBonus, uint defenseBonus, uint manaBonus, uint healthBonus) public onlyRole(GAME_ADMIN_ROLE) {... */\n      pop\n      pop\n      pop\n      pop\n      pop\n      pop\n      jump\t// out\n        /* \"@openzeppelin/contracts-upgradeable/access/AccessControlUpgradeable.sol\":6348:6593  function renounceRole(bytes32 role, address callerConfirmation) public virtual {... */\n    tag_93:\n      sub(shl(0xa0, 0x01), 0x01)\n        /* \"@openzeppelin/contracts-upgradeable/access/AccessControlUpgradeable.sol\":6441:6475  callerConfirmation != _msgSender() */\n      dup2\n      and\n        /* \"@openzeppelin/contracts-upgradeable/utils/ContextUpgradeable.sol\":966:976  msg.sender */\n      caller\n        /* \"@openzeppelin/contracts-upgradeable/access/AccessControlUpgradeable.sol\":6441:6475  callerConfirmation != _msgSender() */\n      eq\n        /* \"@openzeppelin/contracts-upgradeable/access/AccessControlUpgradeable.sol\":6437:6539  if (callerConfirmation != _msgSender()) {... */\n      tag_293\n      jumpi\n        /* \"@openzeppelin/contracts-upgradeable/access/AccessControlUpgradeable.sol\":6498:6528  AccessControlBadConfirmation() */\n      mload(0x40)\n      shl(0xe1, 0x334bd919)\n      dup2\n      mstore\n      0x04\n      add\n      mload(0x40)\n      dup1\n      swap2\n      sub\n      swap1\n      revert\n        /* \"@openzeppelin/contracts-upgradeable/access/AccessControlUpgradeable.sol\":6437:6539  if (callerConfirmation != _msgSender()) {... */\n    tag_293:\n        /* \"@openzeppelin/contracts-upgradeable/access/AccessControlUpgradeable.sol\":6549:6586  _revokeRole(role, callerConfirmation) */\n      tag_294\n        /* \"@openzeppelin/contracts-upgradeable/access/AccessControlUpgradeable.sol\":6561:6565  role */\n      dup3\n        /* \"@openzeppelin/contracts-upgradeable/access/AccessControlUpgradeable.sol\":6567:6585  callerConfirmation */\n      dup3\n        /* \"@openzeppelin/contracts-upgradeable/access/AccessControlUpgradeable.sol\":6549:6560  _revokeRole */\n      tag_295\n        /* \"@openzeppelin/contracts-upgradeable/access/AccessControlUpgradeable.sol\":6549:6586  _revokeRole(role, callerConfirmation) */\n      jump\t// in\n    tag_294:\n      pop\n        /* \"@openzeppelin/contracts-upgradeable/access/AccessControlUpgradeable.sol\":6348:6593  function renounceRole(bytes32 role, address callerConfirmation) public virtual {... */\n      pop\n      pop\n      jump\t// out\n        /* \"src/smartcontracts/CryptoQuestTheShardsOfGenesisMMORPG.sol\":4879:4954  function unpause() public onlyRole(PAUSER_ROLE) {... */\n    tag_96:\n      0x00\n      dup1\n      mload\n      0x20\n      data_9b87106a812d214d41ad9b68a21119e2948eaaf1040375c939ec808b8862455c\n      dup4\n      codecopy\n      dup2\n      mload\n      swap2\n      mstore\n        /* \"@openzeppelin/contracts-upgradeable/access/AccessControlUpgradeable.sol\":3191:3207  _checkRole(role) */\n      tag_297\n        /* \"@openzeppelin/contracts-upgradeable/access/AccessControlUpgradeable.sol\":3202:3206  role */\n      dup2\n        /* \"@openzeppelin/contracts-upgradeable/access/AccessControlUpgradeable.sol\":3191:3201  _checkRole */\n      tag_277\n        /* \"@openzeppelin/contracts-upgradeable/access/AccessControlUpgradeable.sol\":3191:3207  _checkRole(role) */\n      jump\t// in\n    tag_297:\n        /* \"src/smartcontracts/CryptoQuestTheShardsOfGenesisMMORPG.sol\":4937:4947  _unpause() */\n      tag_299\n        /* \"src/smartcontracts/CryptoQuestTheShardsOfGenesisMMORPG.sol\":4937:4945  _unpause */\n      tag_300\n        /* \"src/smartcontracts/CryptoQuestTheShardsOfGenesisMMORPG.sol\":4937:4947  _unpause() */\n      jump\t// in\n    tag_299:\n        /* \"src/smartcontracts/CryptoQuestTheShardsOfGenesisMMORPG.sol\":4879:4954  function unpause() public onlyRole(PAUSER_ROLE) {... */\n      pop\n      jump\t// out\n        /* \"src/smartcontracts/CryptoQuestTheShardsOfGenesisMMORPG.sol\":5064:5312  function createPlayer() public {... */\n    tag_99:\n        /* \"src/smartcontracts/CryptoQuestTheShardsOfGenesisMMORPG.sol\":5121:5131  msg.sender */\n      caller\n        /* \"src/smartcontracts/CryptoQuestTheShardsOfGenesisMMORPG.sol\":5113:5132  players[msg.sender] */\n      0x00\n      swap1\n      dup2\n      mstore\n        /* \"src/smartcontracts/CryptoQuestTheShardsOfGenesisMMORPG.sol\":5113:5120  players */\n      0x09\n        /* \"src/smartcontracts/CryptoQuestTheShardsOfGenesisMMORPG.sol\":5113:5132  players[msg.sender] */\n      0x20\n      mstore\n      0x40\n      swap1\n      keccak256\n        /* \"src/smartcontracts/CryptoQuestTheShardsOfGenesisMMORPG.sol\":5113:5138  players[msg.sender].level */\n      sload\n        /* \"src/smartcontracts/CryptoQuestTheShardsOfGenesisMMORPG.sol\":5113:5143  players[msg.sender].level == 0 */\n      iszero\n        /* \"src/smartcontracts/CryptoQuestTheShardsOfGenesisMMORPG.sol\":5105:5169  require(players[msg.sender].level == 0, \"Player already exists\") */\n      tag_302\n      jumpi\n      mload(0x40)\n      shl(0xe5, 0x461bcd)\n      dup2\n      mstore\n        /* \"#utility.yul\":16373:16375   */\n      0x20\n        /* \"src/smartcontracts/CryptoQuestTheShardsOfGenesisMMORPG.sol\":5105:5169  require(players[msg.sender].level == 0, \"Player already exists\") */\n      0x04\n      dup3\n      add\n        /* \"#utility.yul\":16355:16376   */\n      mstore\n        /* \"#utility.yul\":16412:16414   */\n      0x15\n        /* \"#utility.yul\":16392:16410   */\n      0x24\n      dup3\n      add\n        /* \"#utility.yul\":16385:16415   */\n      mstore\n      shl(0x58, 0x506c6179657220616c726561647920657869737473)\n        /* \"#utility.yul\":16431:16449   */\n      0x44\n      dup3\n      add\n        /* \"#utility.yul\":16424:16475   */\n      mstore\n        /* \"#utility.yul\":16492:16510   */\n      0x64\n      add\n        /* \"src/smartcontracts/CryptoQuestTheShardsOfGenesisMMORPG.sol\":5105:5169  require(players[msg.sender].level == 0, \"Player already exists\") */\n    tag_303:\n      mload(0x40)\n      dup1\n      swap2\n      sub\n      swap1\n      revert\n    tag_302:\n        /* \"src/smartcontracts/CryptoQuestTheShardsOfGenesisMMORPG.sol\":5201:5265  Player(1, 0, 100, 50, 10, 5, 3, 2, new uint[](0), new uint[](0)) */\n      mload(0x40)\n      dup1\n      0x0140\n      add\n      0x40\n      mstore\n      dup1\n        /* \"src/smartcontracts/CryptoQuestTheShardsOfGenesisMMORPG.sol\":5208:5209  1 */\n      0x01\n        /* \"src/smartcontracts/CryptoQuestTheShardsOfGenesisMMORPG.sol\":5201:5265  Player(1, 0, 100, 50, 10, 5, 3, 2, new uint[](0), new uint[](0)) */\n      dup2\n      mstore\n      0x20\n      add\n        /* \"src/smartcontracts/CryptoQuestTheShardsOfGenesisMMORPG.sol\":5211:5212  0 */\n      0x00\n        /* \"src/smartcontracts/CryptoQuestTheShardsOfGenesisMMORPG.sol\":5201:5265  Player(1, 0, 100, 50, 10, 5, 3, 2, new uint[](0), new uint[](0)) */\n      dup2\n      mstore\n      0x20\n      add\n        /* \"src/smartcontracts/CryptoQuestTheShardsOfGenesisMMORPG.sol\":5214:5217  100 */\n      0x64\n        /* \"src/smartcontracts/CryptoQuestTheShardsOfGenesisMMORPG.sol\":5201:5265  Player(1, 0, 100, 50, 10, 5, 3, 2, new uint[](0), new uint[](0)) */\n      dup2\n      mstore\n      0x20\n      add\n        /* \"src/smartcontracts/CryptoQuestTheShardsOfGenesisMMORPG.sol\":5219:5221  50 */\n      0x32\n        /* \"src/smartcontracts/CryptoQuestTheShardsOfGenesisMMORPG.sol\":5201:5265  Player(1, 0, 100, 50, 10, 5, 3, 2, new uint[](0), new uint[](0)) */\n      dup2\n      mstore\n      0x20\n      add\n        /* \"src/smartcontracts/CryptoQuestTheShardsOfGenesisMMORPG.sol\":5223:5225  10 */\n      0x0a\n        /* \"src/smartcontracts/CryptoQuestTheShardsOfGenesisMMORPG.sol\":5201:5265  Player(1, 0, 100, 50, 10, 5, 3, 2, new uint[](0), new uint[](0)) */\n      dup2\n      mstore\n      0x20\n      add\n        /* \"src/smartcontracts/CryptoQuestTheShardsOfGenesisMMORPG.sol\":5227:5228  5 */\n      0x05\n        /* \"src/smartcontracts/CryptoQuestTheShardsOfGenesisMMORPG.sol\":5201:5265  Player(1, 0, 100, 50, 10, 5, 3, 2, new uint[](0), new uint[](0)) */\n      dup2\n      mstore\n      0x20\n      add\n        /* \"src/smartcontracts/CryptoQuestTheShardsOfGenesisMMORPG.sol\":5230:5231  3 */\n      0x03\n        /* \"src/smartcontracts/CryptoQuestTheShardsOfGenesisMMORPG.sol\":5201:5265  Player(1, 0, 100, 50, 10, 5, 3, 2, new uint[](0), new uint[](0)) */\n      dup2\n      mstore\n      0x20\n      add\n        /* \"src/smartcontracts/CryptoQuestTheShardsOfGenesisMMORPG.sol\":5233:5234  2 */\n      0x02\n        /* \"src/smartcontracts/CryptoQuestTheShardsOfGenesisMMORPG.sol\":5201:5265  Player(1, 0, 100, 50, 10, 5, 3, 2, new uint[](0), new uint[](0)) */\n      dup2\n      mstore\n      0x20\n      add\n        /* \"src/smartcontracts/CryptoQuestTheShardsOfGenesisMMORPG.sol\":5247:5248  0 */\n      0x00\n        /* \"src/smartcontracts/CryptoQuestTheShardsOfGenesisMMORPG.sol\":5236:5249  new uint[](0) */\n      0xffffffffffffffff\n      dup2\n      gt\n      iszero\n      tag_306\n      jumpi\n      tag_306\n      tag_307\n      jump\t// in\n    tag_306:\n      mload(0x40)\n      swap1\n      dup1\n      dup3\n      mstore\n      dup1\n      0x20\n      mul\n      0x20\n      add\n      dup3\n      add\n      0x40\n      mstore\n      dup1\n      iszero\n      tag_308\n      jumpi\n      dup2\n      0x20\n      add\n      0x20\n      dup3\n      mul\n      dup1\n      calldatasize\n      dup4\n      calldatacopy\n      add\n      swap1\n      pop\n    tag_308:\n      pop\n        /* \"src/smartcontracts/CryptoQuestTheShardsOfGenesisMMORPG.sol\":5201:5265  Player(1, 0, 100, 50, 10, 5, 3, 2, new uint[](0), new uint[](0)) */\n      dup2\n      mstore\n      0x20\n      add\n        /* \"src/smartcontracts/CryptoQuestTheShardsOfGenesisMMORPG.sol\":5262:5263  0 */\n      0x00\n        /* \"src/smartcontracts/CryptoQuestTheShardsOfGenesisMMORPG.sol\":5251:5264  new uint[](0) */\n      mload(0x40)\n      swap1\n      dup1\n      dup3\n      mstore\n      dup1\n      0x20\n      mul\n      0x20\n      add\n      dup3\n      add\n      0x40\n      mstore\n      dup1\n      iszero\n      tag_311\n      jumpi\n      dup2\n      0x20\n      add\n      0x20\n      dup3\n      mul\n      dup1\n      calldatasize\n      dup4\n      calldatacopy\n      add\n      swap1\n      pop\n    tag_311:\n      pop\n        /* \"src/smartcontracts/CryptoQuestTheShardsOfGenesisMMORPG.sol\":5201:5265  Player(1, 0, 100, 50, 10, 5, 3, 2, new uint[](0), new uint[](0)) */\n      swap1\n      mstore\n        /* \"src/smartcontracts/CryptoQuestTheShardsOfGenesisMMORPG.sol\":5187:5197  msg.sender */\n      caller\n        /* \"src/smartcontracts/CryptoQuestTheShardsOfGenesisMMORPG.sol\":5179:5198  players[msg.sender] */\n      0x00\n      swap1\n      dup2\n      mstore\n        /* \"src/smartcontracts/CryptoQuestTheShardsOfGenesisMMORPG.sol\":5179:5186  players */\n      0x09\n        /* \"src/smartcontracts/CryptoQuestTheShardsOfGenesisMMORPG.sol\":5179:5198  players[msg.sender] */\n      0x20\n      swap1\n      dup2\n      mstore\n      0x40\n      swap2\n      dup3\n      swap1\n      keccak256\n        /* \"src/smartcontracts/CryptoQuestTheShardsOfGenesisMMORPG.sol\":5179:5265  players[msg.sender] = Player(1, 0, 100, 50, 10, 5, 3, 2, new uint[](0), new uint[](0)) */\n      dup4\n      mload\n      dup2\n      sstore\n      dup4\n      dup3\n      add\n      mload\n      0x01\n      dup3\n      add\n      sstore\n      swap2\n      dup4\n      add\n      mload\n      0x02\n      dup4\n      add\n      sstore\n      0x60\n      dup4\n      add\n      mload\n      0x03\n      dup4\n      add\n      sstore\n      0x80\n      dup4\n      add\n      mload\n      0x04\n      dup4\n      add\n      sstore\n      0xa0\n      dup4\n      add\n      mload\n      0x05\n      dup4\n      add\n      sstore\n      0xc0\n      dup4\n      add\n      mload\n      0x06\n      dup4\n      add\n      sstore\n      0xe0\n      dup4\n      add\n      mload\n      0x07\n      dup4\n      add\n      sstore\n      0x0100\n      dup4\n      add\n      mload\n      dup1\n      mload\n      tag_312\n      swap3\n      0x08\n      dup6\n      add\n      swap3\n      add\n      swap1\n      tag_313\n      jump\t// in\n    tag_312:\n      pop\n      0x0120\n      dup3\n      add\n      mload\n      dup1\n      mload\n      tag_314\n      swap2\n      0x09\n      dup5\n      add\n      swap2\n      0x20\n      swap1\n      swap2\n      add\n      swap1\n      tag_313\n      jump\t// in\n    tag_314:\n      pop\n      pop\n        /* \"src/smartcontracts/CryptoQuestTheShardsOfGenesisMMORPG.sol\":5280:5305  PlayerCreated(msg.sender) */\n      mload(0x40)\n        /* \"src/smartcontracts/CryptoQuestTheShardsOfGenesisMMORPG.sol\":5294:5304  msg.sender */\n      caller\n      swap2\n      pop\n        /* \"src/smartcontracts/CryptoQuestTheShardsOfGenesisMMORPG.sol\":5280:5305  PlayerCreated(msg.sender) */\n      0xb4cca19a27ce42915c3cee0cee28fc5d90969ee49f09ec71659546a63b5f7bc0\n      swap1\n      0x00\n      swap1\n      log2\n        /* \"src/smartcontracts/CryptoQuestTheShardsOfGenesisMMORPG.sol\":5064:5312  function createPlayer() public {... */\n      jump\t// out\n        /* \"src/smartcontracts/CryptoQuestTheShardsOfGenesisMMORPG.sol\":3928:4062  function setERC20Address(address _erc20Address) external onlyRole(GAME_ADMIN_ROLE) {... */\n    tag_104:\n      0x00\n      dup1\n      mload\n      0x20\n      data_3059375685003c5c33343043cb51f6c6b03e849d5b2f19339e935f8b505d9fe3\n      dup4\n      codecopy\n      dup2\n      mload\n      swap2\n      mstore\n        /* \"@openzeppelin/contracts-upgradeable/access/AccessControlUpgradeable.sol\":3191:3207  _checkRole(role) */\n      tag_316\n        /* \"@openzeppelin/contracts-upgradeable/access/AccessControlUpgradeable.sol\":3202:3206  role */\n      dup2\n        /* \"@openzeppelin/contracts-upgradeable/access/AccessControlUpgradeable.sol\":3191:3201  _checkRole */\n      tag_277\n        /* \"@openzeppelin/contracts-upgradeable/access/AccessControlUpgradeable.sol\":3191:3207  _checkRole(role) */\n      jump\t// in\n    tag_316:\n      pop\n        /* \"src/smartcontracts/CryptoQuestTheShardsOfGenesisMMORPG.sol\":4021:4031  erc20Token */\n      0x00\n        /* \"src/smartcontracts/CryptoQuestTheShardsOfGenesisMMORPG.sol\":4021:4055  erc20Token = IERC20(_erc20Address) */\n      dup1\n      sload\n      not(sub(shl(0xa0, 0x01), 0x01))\n      and\n      sub(shl(0xa0, 0x01), 0x01)\n      swap3\n      swap1\n      swap3\n      and\n      swap2\n      swap1\n      swap2\n      or\n      swap1\n      sstore\n        /* \"src/smartcontracts/CryptoQuestTheShardsOfGenesisMMORPG.sol\":3928:4062  function setERC20Address(address _erc20Address) external onlyRole(GAME_ADMIN_ROLE) {... */\n      jump\t// out\n        /* \"@openzeppelin/contracts-upgradeable/proxy/utils/UUPSUpgradeable.sol\":4158:4372  function upgradeToAndCall(address newImplementation, bytes memory data) public payable virtual onlyProxy {... */\n    tag_120:\n        /* \"@openzeppelin/contracts-upgradeable/proxy/utils/UUPSUpgradeable.sol\":2653:2666  _checkProxy() */\n      tag_319\n        /* \"@openzeppelin/contracts-upgradeable/proxy/utils/UUPSUpgradeable.sol\":2653:2664  _checkProxy */\n      tag_320\n        /* \"@openzeppelin/contracts-upgradeable/proxy/utils/UUPSUpgradeable.sol\":2653:2666  _checkProxy() */\n      jump\t// in\n    tag_319:\n        /* \"@openzeppelin/contracts-upgradeable/proxy/utils/UUPSUpgradeable.sol\":4273:4309  _authorizeUpgrade(newImplementation) */\n      tag_322\n        /* \"@openzeppelin/contracts-upgradeable/proxy/utils/UUPSUpgradeable.sol\":4291:4308  newImplementation */\n      dup3\n        /* \"@openzeppelin/contracts-upgradeable/proxy/utils/UUPSUpgradeable.sol\":4273:4290  _authorizeUpgrade */\n      tag_323\n        /* \"@openzeppelin/contracts-upgradeable/proxy/utils/UUPSUpgradeable.sol\":4273:4309  _authorizeUpgrade(newImplementation) */\n      jump\t// in\n    tag_322:\n        /* \"@openzeppelin/contracts-upgradeable/proxy/utils/UUPSUpgradeable.sol\":4319:4365  _upgradeToAndCallUUPS(newImplementation, data) */\n      tag_256\n        /* \"@openzeppelin/contracts-upgradeable/proxy/utils/UUPSUpgradeable.sol\":4341:4358  newImplementation */\n      dup3\n        /* \"@openzeppelin/contracts-upgradeable/proxy/utils/UUPSUpgradeable.sol\":4360:4364  data */\n      dup3\n        /* \"@openzeppelin/contracts-upgradeable/proxy/utils/UUPSUpgradeable.sol\":4319:4340  _upgradeToAndCallUUPS */\n      tag_325\n        /* \"@openzeppelin/contracts-upgradeable/proxy/utils/UUPSUpgradeable.sol\":4319:4365  _upgradeToAndCallUUPS(newImplementation, data) */\n      jump\t// in\n        /* \"src/smartcontracts/CryptoQuestTheShardsOfGenesisMMORPG.sol\":6389:6757  function createGuild(string memory name, address leader) public onlyRole(GAME_ADMIN_ROLE) {... */\n    tag_125:\n      0x00\n      dup1\n      mload\n      0x20\n      data_3059375685003c5c33343043cb51f6c6b03e849d5b2f19339e935f8b505d9fe3\n      dup4\n      codecopy\n      dup2\n      mload\n      swap2\n      mstore\n        /* \"@openzeppelin/contracts-upgradeable/access/AccessControlUpgradeable.sol\":3191:3207  _checkRole(role) */\n      tag_327\n        /* \"@openzeppelin/contracts-upgradeable/access/AccessControlUpgradeable.sol\":3202:3206  role */\n      dup2\n        /* \"@openzeppelin/contracts-upgradeable/access/AccessControlUpgradeable.sol\":3191:3201  _checkRole */\n      tag_277\n        /* \"@openzeppelin/contracts-upgradeable/access/AccessControlUpgradeable.sol\":3191:3207  _checkRole(role) */\n      jump\t// in\n    tag_327:\n        /* \"src/smartcontracts/CryptoQuestTheShardsOfGenesisMMORPG.sol\":6532:6533  0 */\n      0x00\n      sub(shl(0xa0, 0x01), 0x01)\n        /* \"src/smartcontracts/CryptoQuestTheShardsOfGenesisMMORPG.sol\":6497:6534  guildNameToLeader[name] == address(0) */\n      and\n        /* \"src/smartcontracts/CryptoQuestTheShardsOfGenesisMMORPG.sol\":6497:6514  guildNameToLeader */\n      0x0c\n        /* \"src/smartcontracts/CryptoQuestTheShardsOfGenesisMMORPG.sol\":6515:6519  name */\n      dup5\n        /* \"src/smartcontracts/CryptoQuestTheShardsOfGenesisMMORPG.sol\":6497:6520  guildNameToLeader[name] */\n      mload(0x40)\n      tag_329\n      swap2\n      swap1\n      tag_263\n      jump\t// in\n    tag_329:\n      swap1\n      dup2\n      mstore\n      mload(0x40)\n      swap1\n      dup2\n      swap1\n      sub\n      0x20\n      add\n      swap1\n      keccak256\n      sload\n      sub(shl(0xa0, 0x01), 0x01)\n      and\n        /* \"src/smartcontracts/CryptoQuestTheShardsOfGenesisMMORPG.sol\":6497:6534  guildNameToLeader[name] == address(0) */\n      eq\n        /* \"src/smartcontracts/CryptoQuestTheShardsOfGenesisMMORPG.sol\":6489:6559  require(guildNameToLeader[name] == address(0), \"Guild already exists\") */\n      tag_330\n      jumpi\n      mload(0x40)\n      shl(0xe5, 0x461bcd)\n      dup2\n      mstore\n        /* \"#utility.yul\":16723:16725   */\n      0x20\n        /* \"src/smartcontracts/CryptoQuestTheShardsOfGenesisMMORPG.sol\":6489:6559  require(guildNameToLeader[name] == address(0), \"Guild already exists\") */\n      0x04\n      dup3\n      add\n        /* \"#utility.yul\":16705:16726   */\n      mstore\n        /* \"#utility.yul\":16762:16764   */\n      0x14\n        /* \"#utility.yul\":16742:16760   */\n      0x24\n      dup3\n      add\n        /* \"#utility.yul\":16735:16765   */\n      mstore\n      shl(0x60, 0x4775696c6420616c726561647920657869737473)\n        /* \"#utility.yul\":16781:16799   */\n      0x44\n      dup3\n      add\n        /* \"#utility.yul\":16774:16824   */\n      mstore\n        /* \"#utility.yul\":16841:16859   */\n      0x64\n      add\n        /* \"src/smartcontracts/CryptoQuestTheShardsOfGenesisMMORPG.sol\":6489:6559  require(guildNameToLeader[name] == address(0), \"Guild already exists\") */\n      tag_303\n        /* \"#utility.yul\":16521:16865   */\n      jump\n        /* \"src/smartcontracts/CryptoQuestTheShardsOfGenesisMMORPG.sol\":6489:6559  require(guildNameToLeader[name] == address(0), \"Guild already exists\") */\n    tag_330:\n        /* \"src/smartcontracts/CryptoQuestTheShardsOfGenesisMMORPG.sol\":6586:6623  Guild(name, leader, new address[](1)) */\n      0x40\n      dup1\n      mload\n      0x60\n      dup2\n      add\n      dup3\n      mstore\n      dup5\n      dup2\n      mstore\n      sub(shl(0xa0, 0x01), 0x01)\n      dup5\n      and\n      0x20\n      dup3\n      add\n      mstore\n        /* \"src/smartcontracts/CryptoQuestTheShardsOfGenesisMMORPG.sol\":6606:6622  new address[](1) */\n      dup2\n      mload\n        /* \"src/smartcontracts/CryptoQuestTheShardsOfGenesisMMORPG.sol\":6620:6621  1 */\n      0x01\n        /* \"src/smartcontracts/CryptoQuestTheShardsOfGenesisMMORPG.sol\":6606:6622  new address[](1) */\n      dup1\n      dup3\n      mstore\n      dup2\n      dup5\n      add\n      dup5\n      mstore\n        /* \"src/smartcontracts/CryptoQuestTheShardsOfGenesisMMORPG.sol\":6586:6623  Guild(name, leader, new address[](1)) */\n      swap2\n      swap3\n      dup4\n      add\n      swap2\n        /* \"src/smartcontracts/CryptoQuestTheShardsOfGenesisMMORPG.sol\":6606:6622  new address[](1) */\n      dup2\n      0x20\n      add\n      0x20\n      dup3\n      mul\n      dup1\n      calldatasize\n      dup4\n      calldatacopy\n      pop\n      pop\n      pop\n        /* \"src/smartcontracts/CryptoQuestTheShardsOfGenesisMMORPG.sol\":6586:6623  Guild(name, leader, new address[](1)) */\n      swap1\n      mstore\n      sub(shl(0xa0, 0x01), 0x01)\n        /* \"src/smartcontracts/CryptoQuestTheShardsOfGenesisMMORPG.sol\":6569:6583  guilds[leader] */\n      dup4\n      and\n      0x00\n      swap1\n      dup2\n      mstore\n        /* \"src/smartcontracts/CryptoQuestTheShardsOfGenesisMMORPG.sol\":6569:6575  guilds */\n      0x0b\n        /* \"src/smartcontracts/CryptoQuestTheShardsOfGenesisMMORPG.sol\":6569:6583  guilds[leader] */\n      0x20\n      mstore\n      0x40\n      swap1\n      keccak256\n        /* \"src/smartcontracts/CryptoQuestTheShardsOfGenesisMMORPG.sol\":6569:6623  guilds[leader] = Guild(name, leader, new address[](1)) */\n      dup2\n      mload\n        /* \"src/smartcontracts/CryptoQuestTheShardsOfGenesisMMORPG.sol\":6569:6583  guilds[leader] */\n      dup2\n      swap1\n        /* \"src/smartcontracts/CryptoQuestTheShardsOfGenesisMMORPG.sol\":6569:6623  guilds[leader] = Guild(name, leader, new address[](1)) */\n      tag_336\n      swap1\n        /* \"src/smartcontracts/CryptoQuestTheShardsOfGenesisMMORPG.sol\":6569:6583  guilds[leader] */\n      dup3\n        /* \"src/smartcontracts/CryptoQuestTheShardsOfGenesisMMORPG.sol\":6569:6623  guilds[leader] = Guild(name, leader, new address[](1)) */\n      tag_285\n      jump\t// in\n    tag_336:\n      pop\n      0x20\n      dup3\n      dup2\n      add\n      mload\n      0x01\n      dup4\n      add\n      dup1\n      sload\n      not(sub(shl(0xa0, 0x01), 0x01))\n      and\n      sub(shl(0xa0, 0x01), 0x01)\n      swap1\n      swap3\n      and\n      swap2\n      swap1\n      swap2\n      or\n      swap1\n      sstore\n      0x40\n      dup4\n      add\n      mload\n      dup1\n      mload\n      tag_337\n      swap3\n      0x02\n      dup6\n      add\n      swap3\n      add\n      swap1\n      tag_338\n      jump\t// in\n    tag_337:\n      pop\n      pop\n      pop\n      sub(shl(0xa0, 0x01), 0x01)\n        /* \"src/smartcontracts/CryptoQuestTheShardsOfGenesisMMORPG.sol\":6633:6647  guilds[leader] */\n      dup3\n      and\n      0x00\n      swap1\n      dup2\n      mstore\n        /* \"src/smartcontracts/CryptoQuestTheShardsOfGenesisMMORPG.sol\":6633:6639  guilds */\n      0x0b\n        /* \"src/smartcontracts/CryptoQuestTheShardsOfGenesisMMORPG.sol\":6633:6647  guilds[leader] */\n      0x20\n      mstore\n      0x40\n      dup2\n      keccak256\n        /* \"src/smartcontracts/CryptoQuestTheShardsOfGenesisMMORPG.sol\":6633:6655  guilds[leader].members */\n      0x02\n      add\n        /* \"src/smartcontracts/CryptoQuestTheShardsOfGenesisMMORPG.sol\":6633:6658  guilds[leader].members[0] */\n      dup1\n      sload\n        /* \"src/smartcontracts/CryptoQuestTheShardsOfGenesisMMORPG.sol\":6661:6667  leader */\n      dup5\n      swap3\n        /* \"src/smartcontracts/CryptoQuestTheShardsOfGenesisMMORPG.sol\":6633:6647  guilds[leader] */\n      swap1\n        /* \"src/smartcontracts/CryptoQuestTheShardsOfGenesisMMORPG.sol\":6633:6658  guilds[leader].members[0] */\n      tag_340\n      jumpi\n      tag_340\n      tag_260\n      jump\t// in\n    tag_340:\n      swap1\n      0x00\n      mstore\n      keccak256(0x00, 0x20)\n      add\n      0x00\n        /* \"src/smartcontracts/CryptoQuestTheShardsOfGenesisMMORPG.sol\":6633:6667  guilds[leader].members[0] = leader */\n      0x0100\n      exp\n      dup2\n      sload\n      dup2\n      sub(shl(0xa0, 0x01), 0x01)\n      mul\n      not\n      and\n      swap1\n      dup4\n      sub(shl(0xa0, 0x01), 0x01)\n      and\n      mul\n      or\n      swap1\n      sstore\n      pop\n        /* \"src/smartcontracts/CryptoQuestTheShardsOfGenesisMMORPG.sol\":6703:6709  leader */\n      dup2\n        /* \"src/smartcontracts/CryptoQuestTheShardsOfGenesisMMORPG.sol\":6677:6694  guildNameToLeader */\n      0x0c\n        /* \"src/smartcontracts/CryptoQuestTheShardsOfGenesisMMORPG.sol\":6695:6699  name */\n      dup5\n        /* \"src/smartcontracts/CryptoQuestTheShardsOfGenesisMMORPG.sol\":6677:6700  guildNameToLeader[name] */\n      mload(0x40)\n      tag_342\n      swap2\n      swap1\n      tag_263\n      jump\t// in\n    tag_342:\n      swap1\n      dup2\n      mstore\n      mload(0x40)\n      swap1\n      dup2\n      swap1\n      sub\n      0x20\n      add\n      dup2\n      keccak256\n        /* \"src/smartcontracts/CryptoQuestTheShardsOfGenesisMMORPG.sol\":6677:6709  guildNameToLeader[name] = leader */\n      dup1\n      sload\n      sub(shl(0xa0, 0x01), 0x01)\n      swap4\n      swap1\n      swap4\n      and\n      not(sub(shl(0xa0, 0x01), 0x01))\n      swap1\n      swap4\n      and\n      swap3\n      swap1\n      swap3\n      or\n      swap1\n      swap2\n      sstore\n        /* \"src/smartcontracts/CryptoQuestTheShardsOfGenesisMMORPG.sol\":6724:6750  GuildCreated(name, leader) */\n      0x072208535a97b2e307167838c66aacd47f8de3a2cb92bc2ddb2b2b52009c9fd5\n      swap1\n      tag_343\n      swap1\n        /* \"src/smartcontracts/CryptoQuestTheShardsOfGenesisMMORPG.sol\":6737:6741  name */\n      dup6\n      swap1\n        /* \"src/smartcontracts/CryptoQuestTheShardsOfGenesisMMORPG.sol\":6743:6749  leader */\n      dup6\n      swap1\n        /* \"src/smartcontracts/CryptoQuestTheShardsOfGenesisMMORPG.sol\":6724:6750  GuildCreated(name, leader) */\n      tag_178\n      jump\t// in\n    tag_343:\n      mload(0x40)\n      dup1\n      swap2\n      sub\n      swap1\n      log1\n        /* \"src/smartcontracts/CryptoQuestTheShardsOfGenesisMMORPG.sol\":6389:6757  function createGuild(string memory name, address leader) public onlyRole(GAME_ADMIN_ROLE) {... */\n      pop\n      pop\n      pop\n      jump\t// out\n        /* \"@openzeppelin/contracts-upgradeable/proxy/utils/UUPSUpgradeable.sol\":3705:3839  function proxiableUUID() external view virtual notDelegated returns (bytes32) {... */\n    tag_128:\n        /* \"@openzeppelin/contracts-upgradeable/proxy/utils/UUPSUpgradeable.sol\":3774:3781  bytes32 */\n      0x00\n        /* \"@openzeppelin/contracts-upgradeable/proxy/utils/UUPSUpgradeable.sol\":2924:2944  _checkNotDelegated() */\n      tag_345\n        /* \"@openzeppelin/contracts-upgradeable/proxy/utils/UUPSUpgradeable.sol\":2924:2942  _checkNotDelegated */\n      tag_346\n        /* \"@openzeppelin/contracts-upgradeable/proxy/utils/UUPSUpgradeable.sol\":2924:2944  _checkNotDelegated() */\n      jump\t// in\n    tag_345:\n      pop\n      0x00\n      dup1\n      mload\n      0x20\n      data_75b20eef8615de99c108b05f0dbda081c91897128caa336d75dffb97c4132b4d\n      dup4\n      codecopy\n      dup2\n      mload\n      swap2\n      mstore\n        /* \"@openzeppelin/contracts-upgradeable/proxy/utils/UUPSUpgradeable.sol\":3705:3839  function proxiableUUID() external view virtual notDelegated returns (bytes32) {... */\n      swap1\n      jump\t// out\n        /* \"src/smartcontracts/CryptoQuestTheShardsOfGenesisMMORPG.sol\":5639:5845  function startQuest(string memory title, string memory description, uint rewardXP) public onlyRole(GAME_ADMIN_ROLE) {... */\n    tag_143:\n      0x00\n      dup1\n      mload\n      0x20\n      data_3059375685003c5c33343043cb51f6c6b03e849d5b2f19339e935f8b505d9fe3\n      dup4\n      codecopy\n      dup2\n      mload\n      swap2\n      mstore\n        /* \"@openzeppelin/contracts-upgradeable/access/AccessControlUpgradeable.sol\":3191:3207  _checkRole(role) */\n      tag_352\n        /* \"@openzeppelin/contracts-upgradeable/access/AccessControlUpgradeable.sol\":3202:3206  role */\n      dup2\n        /* \"@openzeppelin/contracts-upgradeable/access/AccessControlUpgradeable.sol\":3191:3201  _checkRole */\n      tag_277\n        /* \"@openzeppelin/contracts-upgradeable/access/AccessControlUpgradeable.sol\":3191:3207  _checkRole(role) */\n      jump\t// in\n    tag_352:\n        /* \"src/smartcontracts/CryptoQuestTheShardsOfGenesisMMORPG.sol\":5778:5788  msg.sender */\n      caller\n        /* \"src/smartcontracts/CryptoQuestTheShardsOfGenesisMMORPG.sol\":5765:5789  playerQuests[msg.sender] */\n      0x00\n      swap1\n      dup2\n      mstore\n        /* \"src/smartcontracts/CryptoQuestTheShardsOfGenesisMMORPG.sol\":5765:5777  playerQuests */\n      0x0a\n        /* \"src/smartcontracts/CryptoQuestTheShardsOfGenesisMMORPG.sol\":5765:5789  playerQuests[msg.sender] */\n      0x20\n      swap1\n      dup2\n      mstore\n      0x40\n      dup1\n      dup4\n      keccak256\n        /* \"src/smartcontracts/CryptoQuestTheShardsOfGenesisMMORPG.sol\":5795:5837  Quest(title, description, rewardXP, false) */\n      dup2\n      mload\n      0x80\n      dup2\n      add\n      dup4\n      mstore\n      dup9\n      dup2\n      mstore\n      dup1\n      dup5\n      add\n      dup9\n      swap1\n      mstore\n      swap2\n      dup3\n      add\n      dup7\n      swap1\n      mstore\n      0x60\n      dup3\n      add\n      dup5\n      swap1\n      mstore\n        /* \"src/smartcontracts/CryptoQuestTheShardsOfGenesisMMORPG.sol\":5765:5838  playerQuests[msg.sender].push(Quest(title, description, rewardXP, false)) */\n      dup1\n      sload\n        /* \"src/smartcontracts/CryptoQuestTheShardsOfGenesisMMORPG.sol\":5795:5837  Quest(title, description, rewardXP, false) */\n      0x01\n        /* \"src/smartcontracts/CryptoQuestTheShardsOfGenesisMMORPG.sol\":5765:5838  playerQuests[msg.sender].push(Quest(title, description, rewardXP, false)) */\n      dup2\n      add\n      dup3\n      sstore\n      swap1\n      dup5\n      mstore\n      swap2\n      swap1\n      swap3\n      keccak256\n      dup3\n      mload\n      0x04\n      swap1\n      swap3\n      mul\n      add\n      swap1\n      dup2\n      swap1\n      tag_355\n      swap1\n      dup3\n      tag_285\n      jump\t// in\n    tag_355:\n      pop\n      0x20\n      dup3\n      add\n      mload\n      0x01\n      dup3\n      add\n      swap1\n      tag_356\n      swap1\n      dup3\n      tag_285\n      jump\t// in\n    tag_356:\n      pop\n      0x40\n      dup3\n      add\n      mload\n      0x02\n      dup3\n      add\n      sstore\n      0x60\n      swap1\n      swap2\n      add\n      mload\n      0x03\n      swap1\n      swap2\n      add\n      dup1\n      sload\n      not(0xff)\n      and\n      swap2\n      iszero\n      iszero\n      swap2\n      swap1\n      swap2\n      or\n      swap1\n      sstore\n      pop\n      pop\n      pop\n      pop\n        /* \"src/smartcontracts/CryptoQuestTheShardsOfGenesisMMORPG.sol\":5639:5845  function startQuest(string memory title, string memory description, uint rewardXP) public onlyRole(GAME_ADMIN_ROLE) {... */\n      jump\t// out\n        /* \"src/smartcontracts/CryptoQuestTheShardsOfGenesisMMORPG.sol\":7529:8828  function craftItem(uint recipeId) public {... */\n    tag_147:\n        /* \"src/smartcontracts/CryptoQuestTheShardsOfGenesisMMORPG.sol\":7580:7600  Recipe memory recipe */\n      0x00\n        /* \"src/smartcontracts/CryptoQuestTheShardsOfGenesisMMORPG.sol\":7603:7620  recipes[recipeId] */\n      dup2\n      dup2\n      mstore\n        /* \"src/smartcontracts/CryptoQuestTheShardsOfGenesisMMORPG.sol\":7603:7610  recipes */\n      0x0d\n        /* \"src/smartcontracts/CryptoQuestTheShardsOfGenesisMMORPG.sol\":7603:7620  recipes[recipeId] */\n      0x20\n      swap1\n      dup2\n      mstore\n      0x40\n      dup1\n      dup4\n      keccak256\n        /* \"src/smartcontracts/CryptoQuestTheShardsOfGenesisMMORPG.sol\":7580:7620  Recipe memory recipe = recipes[recipeId] */\n      dup2\n      mload\n      dup2\n      sload\n      0x60\n      swap5\n      dup2\n      mul\n      dup3\n      add\n      dup6\n      add\n      dup5\n      mstore\n      swap3\n      dup2\n      add\n      dup4\n      dup2\n      mstore\n      swap1\n      swap4\n        /* \"src/smartcontracts/CryptoQuestTheShardsOfGenesisMMORPG.sol\":7603:7620  recipes[recipeId] */\n      swap2\n      swap3\n        /* \"src/smartcontracts/CryptoQuestTheShardsOfGenesisMMORPG.sol\":7580:7620  Recipe memory recipe = recipes[recipeId] */\n      dup5\n      swap3\n        /* \"src/smartcontracts/CryptoQuestTheShardsOfGenesisMMORPG.sol\":7603:7620  recipes[recipeId] */\n      dup5\n      swap2\n        /* \"src/smartcontracts/CryptoQuestTheShardsOfGenesisMMORPG.sol\":7580:7620  Recipe memory recipe = recipes[recipeId] */\n      swap1\n      dup5\n      add\n        /* \"src/smartcontracts/CryptoQuestTheShardsOfGenesisMMORPG.sol\":7603:7620  recipes[recipeId] */\n      dup3\n        /* \"src/smartcontracts/CryptoQuestTheShardsOfGenesisMMORPG.sol\":7580:7620  Recipe memory recipe = recipes[recipeId] */\n      dup3\n      dup1\n      iszero\n      tag_358\n      jumpi\n      0x20\n      mul\n      dup3\n      add\n      swap2\n      swap1\n      0x00\n      mstore\n      keccak256(0x00, 0x20)\n      swap1\n    tag_359:\n      dup2\n      sload\n      dup2\n      mstore\n      0x20\n      add\n      swap1\n      0x01\n      add\n      swap1\n      dup1\n      dup4\n      gt\n      tag_359\n      jumpi\n    tag_358:\n      pop\n      pop\n      pop\n      pop\n      pop\n      dup2\n      mstore\n      0x20\n      add\n      0x01\n      dup3\n      add\n      sload\n      dup2\n      mstore\n      pop\n      pop\n      swap1\n      pop\n        /* \"src/smartcontracts/CryptoQuestTheShardsOfGenesisMMORPG.sol\":7662:7663  0 */\n      0x00\n        /* \"src/smartcontracts/CryptoQuestTheShardsOfGenesisMMORPG.sol\":7638:7644  recipe */\n      dup2\n        /* \"src/smartcontracts/CryptoQuestTheShardsOfGenesisMMORPG.sol\":7638:7652  recipe.itemIds */\n      0x00\n      add\n      mload\n        /* \"src/smartcontracts/CryptoQuestTheShardsOfGenesisMMORPG.sol\":7638:7659  recipe.itemIds.length */\n      mload\n        /* \"src/smartcontracts/CryptoQuestTheShardsOfGenesisMMORPG.sol\":7638:7663  recipe.itemIds.length > 0 */\n      gt\n        /* \"src/smartcontracts/CryptoQuestTheShardsOfGenesisMMORPG.sol\":7630:7682  require(recipe.itemIds.length > 0, \"Invalid recipe\") */\n      tag_360\n      jumpi\n      mload(0x40)\n      shl(0xe5, 0x461bcd)\n      dup2\n      mstore\n        /* \"#utility.yul\":17072:17074   */\n      0x20\n        /* \"src/smartcontracts/CryptoQuestTheShardsOfGenesisMMORPG.sol\":7630:7682  require(recipe.itemIds.length > 0, \"Invalid recipe\") */\n      0x04\n      dup3\n      add\n        /* \"#utility.yul\":17054:17075   */\n      mstore\n        /* \"#utility.yul\":17111:17113   */\n      0x0e\n        /* \"#utility.yul\":17091:17109   */\n      0x24\n      dup3\n      add\n        /* \"#utility.yul\":17084:17114   */\n      mstore\n      shl(0x90, 0x496e76616c696420726563697065)\n        /* \"#utility.yul\":17130:17148   */\n      0x44\n      dup3\n      add\n        /* \"#utility.yul\":17123:17167   */\n      mstore\n        /* \"#utility.yul\":17184:17202   */\n      0x64\n      add\n        /* \"src/smartcontracts/CryptoQuestTheShardsOfGenesisMMORPG.sol\":7630:7682  require(recipe.itemIds.length > 0, \"Invalid recipe\") */\n      tag_303\n        /* \"#utility.yul\":16870:17208   */\n      jump\n        /* \"src/smartcontracts/CryptoQuestTheShardsOfGenesisMMORPG.sol\":7630:7682  require(recipe.itemIds.length > 0, \"Invalid recipe\") */\n    tag_360:\n        /* \"src/smartcontracts/CryptoQuestTheShardsOfGenesisMMORPG.sol\":7756:7762  uint i */\n      0x00\n        /* \"src/smartcontracts/CryptoQuestTheShardsOfGenesisMMORPG.sol\":7751:8168  for (uint i = 0; i < recipe.itemIds.length; i++) {... */\n    tag_363:\n        /* \"src/smartcontracts/CryptoQuestTheShardsOfGenesisMMORPG.sol\":7772:7786  recipe.itemIds */\n      dup2\n      mload\n        /* \"src/smartcontracts/CryptoQuestTheShardsOfGenesisMMORPG.sol\":7772:7793  recipe.itemIds.length */\n      mload\n        /* \"src/smartcontracts/CryptoQuestTheShardsOfGenesisMMORPG.sol\":7768:7793  i < recipe.itemIds.length */\n      dup2\n      lt\n        /* \"src/smartcontracts/CryptoQuestTheShardsOfGenesisMMORPG.sol\":7751:8168  for (uint i = 0; i < recipe.itemIds.length; i++) {... */\n      iszero\n      tag_364\n      jumpi\n        /* \"src/smartcontracts/CryptoQuestTheShardsOfGenesisMMORPG.sol\":7814:7826  bool hasItem */\n      0x00\n        /* \"src/smartcontracts/CryptoQuestTheShardsOfGenesisMMORPG.sol\":7853:7859  uint j */\n      dup1\n        /* \"src/smartcontracts/CryptoQuestTheShardsOfGenesisMMORPG.sol\":7848:8085  for (uint j = 0; j < players[msg.sender].inventory.length; j++) {... */\n    tag_366:\n        /* \"src/smartcontracts/CryptoQuestTheShardsOfGenesisMMORPG.sol\":7877:7887  msg.sender */\n      caller\n        /* \"src/smartcontracts/CryptoQuestTheShardsOfGenesisMMORPG.sol\":7869:7888  players[msg.sender] */\n      0x00\n      swap1\n      dup2\n      mstore\n        /* \"src/smartcontracts/CryptoQuestTheShardsOfGenesisMMORPG.sol\":7869:7876  players */\n      0x09\n        /* \"src/smartcontracts/CryptoQuestTheShardsOfGenesisMMORPG.sol\":7869:7888  players[msg.sender] */\n      0x20\n      mstore\n      0x40\n      swap1\n      keccak256\n        /* \"src/smartcontracts/CryptoQuestTheShardsOfGenesisMMORPG.sol\":7869:7898  players[msg.sender].inventory */\n      0x08\n      add\n        /* \"src/smartcontracts/CryptoQuestTheShardsOfGenesisMMORPG.sol\":7869:7905  players[msg.sender].inventory.length */\n      sload\n        /* \"src/smartcontracts/CryptoQuestTheShardsOfGenesisMMORPG.sol\":7865:7905  j < players[msg.sender].inventory.length */\n      dup2\n      lt\n        /* \"src/smartcontracts/CryptoQuestTheShardsOfGenesisMMORPG.sol\":7848:8085  for (uint j = 0; j < players[msg.sender].inventory.length; j++) {... */\n      iszero\n      tag_367\n      jumpi\n        /* \"src/smartcontracts/CryptoQuestTheShardsOfGenesisMMORPG.sol\":7970:7984  recipe.itemIds */\n      dup4\n      mload\n        /* \"src/smartcontracts/CryptoQuestTheShardsOfGenesisMMORPG.sol\":7970:7987  recipe.itemIds[i] */\n      dup1\n      mload\n        /* \"src/smartcontracts/CryptoQuestTheShardsOfGenesisMMORPG.sol\":7985:7986  i */\n      dup5\n      swap1\n        /* \"src/smartcontracts/CryptoQuestTheShardsOfGenesisMMORPG.sol\":7970:7987  recipe.itemIds[i] */\n      dup2\n      lt\n      tag_370\n      jumpi\n      tag_370\n      tag_260\n      jump\t// in\n    tag_370:\n      0x20\n      mul\n      0x20\n      add\n      add\n      mload\n        /* \"src/smartcontracts/CryptoQuestTheShardsOfGenesisMMORPG.sol\":7934:7941  players */\n      0x09\n        /* \"src/smartcontracts/CryptoQuestTheShardsOfGenesisMMORPG.sol\":7934:7953  players[msg.sender] */\n      0x00\n        /* \"src/smartcontracts/CryptoQuestTheShardsOfGenesisMMORPG.sol\":7942:7952  msg.sender */\n      caller\n      sub(shl(0xa0, 0x01), 0x01)\n        /* \"src/smartcontracts/CryptoQuestTheShardsOfGenesisMMORPG.sol\":7934:7953  players[msg.sender] */\n      and\n      sub(shl(0xa0, 0x01), 0x01)\n      and\n      dup2\n      mstore\n      0x20\n      add\n      swap1\n      dup2\n      mstore\n      0x20\n      add\n      0x00\n      keccak256\n        /* \"src/smartcontracts/CryptoQuestTheShardsOfGenesisMMORPG.sol\":7934:7963  players[msg.sender].inventory */\n      0x08\n      add\n        /* \"src/smartcontracts/CryptoQuestTheShardsOfGenesisMMORPG.sol\":7964:7965  j */\n      dup3\n        /* \"src/smartcontracts/CryptoQuestTheShardsOfGenesisMMORPG.sol\":7934:7966  players[msg.sender].inventory[j] */\n      dup2\n      sload\n      dup2\n      lt\n      tag_372\n      jumpi\n      tag_372\n      tag_260\n      jump\t// in\n    tag_372:\n      swap1\n      0x00\n      mstore\n      keccak256(0x00, 0x20)\n      add\n      sload\n        /* \"src/smartcontracts/CryptoQuestTheShardsOfGenesisMMORPG.sol\":7934:7987  players[msg.sender].inventory[j] == recipe.itemIds[i] */\n      sub\n        /* \"src/smartcontracts/CryptoQuestTheShardsOfGenesisMMORPG.sol\":7930:8071  if (players[msg.sender].inventory[j] == recipe.itemIds[i]) {... */\n      tag_374\n      jumpi\n        /* \"src/smartcontracts/CryptoQuestTheShardsOfGenesisMMORPG.sol\":8021:8025  true */\n      0x01\n        /* \"src/smartcontracts/CryptoQuestTheShardsOfGenesisMMORPG.sol\":8011:8025  hasItem = true */\n      swap2\n      pop\n        /* \"src/smartcontracts/CryptoQuestTheShardsOfGenesisMMORPG.sol\":8047:8052  break */\n      jump(tag_367)\n        /* \"src/smartcontracts/CryptoQuestTheShardsOfGenesisMMORPG.sol\":7930:8071  if (players[msg.sender].inventory[j] == recipe.itemIds[i]) {... */\n    tag_374:\n        /* \"src/smartcontracts/CryptoQuestTheShardsOfGenesisMMORPG.sol\":7907:7910  j++ */\n      0x01\n      add\n        /* \"src/smartcontracts/CryptoQuestTheShardsOfGenesisMMORPG.sol\":7848:8085  for (uint j = 0; j < players[msg.sender].inventory.length; j++) {... */\n      jump(tag_366)\n    tag_367:\n      pop\n        /* \"src/smartcontracts/CryptoQuestTheShardsOfGenesisMMORPG.sol\":8106:8113  hasItem */\n      dup1\n        /* \"src/smartcontracts/CryptoQuestTheShardsOfGenesisMMORPG.sol\":8098:8157  require(hasItem, \"Player does not have all required items\") */\n      tag_375\n      jumpi\n      mload(0x40)\n      shl(0xe5, 0x461bcd)\n      dup2\n      mstore\n        /* \"#utility.yul\":17415:17417   */\n      0x20\n        /* \"src/smartcontracts/CryptoQuestTheShardsOfGenesisMMORPG.sol\":8098:8157  require(hasItem, \"Player does not have all required items\") */\n      0x04\n      dup3\n      add\n        /* \"#utility.yul\":17397:17418   */\n      mstore\n        /* \"#utility.yul\":17454:17456   */\n      0x27\n        /* \"#utility.yul\":17434:17452   */\n      0x24\n      dup3\n      add\n        /* \"#utility.yul\":17427:17457   */\n      mstore\n        /* \"#utility.yul\":17493:17527   */\n      0x506c6179657220646f6573206e6f74206861766520616c6c2072657175697265\n        /* \"#utility.yul\":17473:17491   */\n      0x44\n      dup3\n      add\n        /* \"#utility.yul\":17466:17528   */\n      mstore\n      shl(0xc8, 0x64206974656d73)\n        /* \"#utility.yul\":17544:17562   */\n      0x64\n      dup3\n      add\n        /* \"#utility.yul\":17537:17574   */\n      mstore\n        /* \"#utility.yul\":17591:17610   */\n      0x84\n      add\n        /* \"src/smartcontracts/CryptoQuestTheShardsOfGenesisMMORPG.sol\":8098:8157  require(hasItem, \"Player does not have all required items\") */\n      tag_303\n        /* \"#utility.yul\":17213:17616   */\n      jump\n        /* \"src/smartcontracts/CryptoQuestTheShardsOfGenesisMMORPG.sol\":8098:8157  require(hasItem, \"Player does not have all required items\") */\n    tag_375:\n      pop\n        /* \"src/smartcontracts/CryptoQuestTheShardsOfGenesisMMORPG.sol\":7795:7798  i++ */\n      0x01\n      add\n        /* \"src/smartcontracts/CryptoQuestTheShardsOfGenesisMMORPG.sol\":7751:8168  for (uint i = 0; i < recipe.itemIds.length; i++) {... */\n      jump(tag_363)\n    tag_364:\n      pop\n        /* \"src/smartcontracts/CryptoQuestTheShardsOfGenesisMMORPG.sol\":8244:8250  uint i */\n      0x00\n        /* \"src/smartcontracts/CryptoQuestTheShardsOfGenesisMMORPG.sol\":8239:8698  for (uint i = 0; i < recipe.itemIds.length; i++) {... */\n    tag_378:\n        /* \"src/smartcontracts/CryptoQuestTheShardsOfGenesisMMORPG.sol\":8260:8274  recipe.itemIds */\n      dup2\n      mload\n        /* \"src/smartcontracts/CryptoQuestTheShardsOfGenesisMMORPG.sol\":8260:8281  recipe.itemIds.length */\n      mload\n        /* \"src/smartcontracts/CryptoQuestTheShardsOfGenesisMMORPG.sol\":8256:8281  i < recipe.itemIds.length */\n      dup2\n      lt\n        /* \"src/smartcontracts/CryptoQuestTheShardsOfGenesisMMORPG.sol\":8239:8698  for (uint i = 0; i < recipe.itemIds.length; i++) {... */\n      iszero\n      tag_379\n      jumpi\n        /* \"src/smartcontracts/CryptoQuestTheShardsOfGenesisMMORPG.sol\":8307:8313  uint j */\n      0x00\n        /* \"src/smartcontracts/CryptoQuestTheShardsOfGenesisMMORPG.sol\":8302:8688  for (uint j = 0; j < players[msg.sender].inventory.length; j++) {... */\n    tag_381:\n        /* \"src/smartcontracts/CryptoQuestTheShardsOfGenesisMMORPG.sol\":8331:8341  msg.sender */\n      caller\n        /* \"src/smartcontracts/CryptoQuestTheShardsOfGenesisMMORPG.sol\":8323:8342  players[msg.sender] */\n      0x00\n      swap1\n      dup2\n      mstore\n        /* \"src/smartcontracts/CryptoQuestTheShardsOfGenesisMMORPG.sol\":8323:8330  players */\n      0x09\n        /* \"src/smartcontracts/CryptoQuestTheShardsOfGenesisMMORPG.sol\":8323:8342  players[msg.sender] */\n      0x20\n      mstore\n      0x40\n      swap1\n      keccak256\n        /* \"src/smartcontracts/CryptoQuestTheShardsOfGenesisMMORPG.sol\":8323:8352  players[msg.sender].inventory */\n      0x08\n      add\n        /* \"src/smartcontracts/CryptoQuestTheShardsOfGenesisMMORPG.sol\":8323:8359  players[msg.sender].inventory.length */\n      sload\n        /* \"src/smartcontracts/CryptoQuestTheShardsOfGenesisMMORPG.sol\":8319:8359  j < players[msg.sender].inventory.length */\n      dup2\n      lt\n        /* \"src/smartcontracts/CryptoQuestTheShardsOfGenesisMMORPG.sol\":8302:8688  for (uint j = 0; j < players[msg.sender].inventory.length; j++) {... */\n      iszero\n      tag_382\n      jumpi\n        /* \"src/smartcontracts/CryptoQuestTheShardsOfGenesisMMORPG.sol\":8424:8438  recipe.itemIds */\n      dup3\n      mload\n        /* \"src/smartcontracts/CryptoQuestTheShardsOfGenesisMMORPG.sol\":8424:8441  recipe.itemIds[i] */\n      dup1\n      mload\n        /* \"src/smartcontracts/CryptoQuestTheShardsOfGenesisMMORPG.sol\":8439:8440  i */\n      dup4\n      swap1\n        /* \"src/smartcontracts/CryptoQuestTheShardsOfGenesisMMORPG.sol\":8424:8441  recipe.itemIds[i] */\n      dup2\n      lt\n      tag_385\n      jumpi\n      tag_385\n      tag_260\n      jump\t// in\n    tag_385:\n      0x20\n      mul\n      0x20\n      add\n      add\n      mload\n        /* \"src/smartcontracts/CryptoQuestTheShardsOfGenesisMMORPG.sol\":8388:8395  players */\n      0x09\n        /* \"src/smartcontracts/CryptoQuestTheShardsOfGenesisMMORPG.sol\":8388:8407  players[msg.sender] */\n      0x00\n        /* \"src/smartcontracts/CryptoQuestTheShardsOfGenesisMMORPG.sol\":8396:8406  msg.sender */\n      caller\n      sub(shl(0xa0, 0x01), 0x01)\n        /* \"src/smartcontracts/CryptoQuestTheShardsOfGenesisMMORPG.sol\":8388:8407  players[msg.sender] */\n      and\n      sub(shl(0xa0, 0x01), 0x01)\n      and\n      dup2\n      mstore\n      0x20\n      add\n      swap1\n      dup2\n      mstore\n      0x20\n      add\n      0x00\n      keccak256\n        /* \"src/smartcontracts/CryptoQuestTheShardsOfGenesisMMORPG.sol\":8388:8417  players[msg.sender].inventory */\n      0x08\n      add\n        /* \"src/smartcontracts/CryptoQuestTheShardsOfGenesisMMORPG.sol\":8418:8419  j */\n      dup3\n        /* \"src/smartcontracts/CryptoQuestTheShardsOfGenesisMMORPG.sol\":8388:8420  players[msg.sender].inventory[j] */\n      dup2\n      sload\n      dup2\n      lt\n      tag_387\n      jumpi\n      tag_387\n      tag_260\n      jump\t// in\n    tag_387:\n      swap1\n      0x00\n      mstore\n      keccak256(0x00, 0x20)\n      add\n      sload\n        /* \"src/smartcontracts/CryptoQuestTheShardsOfGenesisMMORPG.sol\":8388:8441  players[msg.sender].inventory[j] == recipe.itemIds[i] */\n      sub\n        /* \"src/smartcontracts/CryptoQuestTheShardsOfGenesisMMORPG.sol\":8384:8674  if (players[msg.sender].inventory[j] == recipe.itemIds[i]) {... */\n      tag_389\n      jumpi\n        /* \"src/smartcontracts/CryptoQuestTheShardsOfGenesisMMORPG.sol\":8508:8518  msg.sender */\n      caller\n        /* \"src/smartcontracts/CryptoQuestTheShardsOfGenesisMMORPG.sol\":8500:8519  players[msg.sender] */\n      0x00\n      swap1\n      dup2\n      mstore\n        /* \"src/smartcontracts/CryptoQuestTheShardsOfGenesisMMORPG.sol\":8500:8507  players */\n      0x09\n        /* \"src/smartcontracts/CryptoQuestTheShardsOfGenesisMMORPG.sol\":8500:8519  players[msg.sender] */\n      0x20\n      mstore\n      0x40\n      swap1\n      keccak256\n        /* \"src/smartcontracts/CryptoQuestTheShardsOfGenesisMMORPG.sol\":8500:8529  players[msg.sender].inventory */\n      0x08\n      add\n        /* \"src/smartcontracts/CryptoQuestTheShardsOfGenesisMMORPG.sol\":8530:8566  players[msg.sender].inventory.length */\n      dup1\n      sload\n        /* \"src/smartcontracts/CryptoQuestTheShardsOfGenesisMMORPG.sol\":8530:8570  players[msg.sender].inventory.length - 1 */\n      tag_390\n      swap1\n        /* \"src/smartcontracts/CryptoQuestTheShardsOfGenesisMMORPG.sol\":8569:8570  1 */\n      0x01\n      swap1\n        /* \"src/smartcontracts/CryptoQuestTheShardsOfGenesisMMORPG.sol\":8530:8570  players[msg.sender].inventory.length - 1 */\n      tag_391\n      jump\t// in\n    tag_390:\n        /* \"src/smartcontracts/CryptoQuestTheShardsOfGenesisMMORPG.sol\":8500:8571  players[msg.sender].inventory[players[msg.sender].inventory.length - 1] */\n      dup2\n      sload\n      dup2\n      lt\n      tag_393\n      jumpi\n      tag_393\n      tag_260\n      jump\t// in\n    tag_393:\n      0x00\n      swap2\n      dup3\n      mstore\n      0x20\n      dup1\n      dup4\n      keccak256\n      swap1\n      swap2\n      add\n      sload\n        /* \"src/smartcontracts/CryptoQuestTheShardsOfGenesisMMORPG.sol\":8473:8483  msg.sender */\n      caller\n        /* \"src/smartcontracts/CryptoQuestTheShardsOfGenesisMMORPG.sol\":8465:8484  players[msg.sender] */\n      dup4\n      mstore\n        /* \"src/smartcontracts/CryptoQuestTheShardsOfGenesisMMORPG.sol\":8465:8472  players */\n      0x09\n        /* \"src/smartcontracts/CryptoQuestTheShardsOfGenesisMMORPG.sol\":8465:8484  players[msg.sender] */\n      swap1\n      swap2\n      mstore\n      0x40\n      swap1\n      swap2\n      keccak256\n        /* \"src/smartcontracts/CryptoQuestTheShardsOfGenesisMMORPG.sol\":8465:8494  players[msg.sender].inventory */\n      0x08\n      add\n        /* \"src/smartcontracts/CryptoQuestTheShardsOfGenesisMMORPG.sol\":8465:8497  players[msg.sender].inventory[j] */\n      dup1\n      sload\n        /* \"src/smartcontracts/CryptoQuestTheShardsOfGenesisMMORPG.sol\":8495:8496  j */\n      dup4\n      swap1\n        /* \"src/smartcontracts/CryptoQuestTheShardsOfGenesisMMORPG.sol\":8465:8497  players[msg.sender].inventory[j] */\n      dup2\n      lt\n      tag_396\n      jumpi\n      tag_396\n      tag_260\n      jump\t// in\n    tag_396:\n      0x00\n      swap2\n      dup3\n      mstore\n      0x20\n      dup1\n      dup4\n      keccak256\n      swap1\n      swap2\n      add\n        /* \"src/smartcontracts/CryptoQuestTheShardsOfGenesisMMORPG.sol\":8465:8571  players[msg.sender].inventory[j] = players[msg.sender].inventory[players[msg.sender].inventory.length - 1] */\n      swap3\n      swap1\n      swap3\n      sstore\n        /* \"src/smartcontracts/CryptoQuestTheShardsOfGenesisMMORPG.sol\":8601:8611  msg.sender */\n      caller\n        /* \"src/smartcontracts/CryptoQuestTheShardsOfGenesisMMORPG.sol\":8593:8612  players[msg.sender] */\n      dup2\n      mstore\n        /* \"src/smartcontracts/CryptoQuestTheShardsOfGenesisMMORPG.sol\":8593:8600  players */\n      0x09\n        /* \"src/smartcontracts/CryptoQuestTheShardsOfGenesisMMORPG.sol\":8593:8612  players[msg.sender] */\n      swap1\n      swap2\n      mstore\n      0x40\n      swap1\n      keccak256\n        /* \"src/smartcontracts/CryptoQuestTheShardsOfGenesisMMORPG.sol\":8593:8622  players[msg.sender].inventory */\n      0x08\n      add\n        /* \"src/smartcontracts/CryptoQuestTheShardsOfGenesisMMORPG.sol\":8593:8628  players[msg.sender].inventory.pop() */\n      dup1\n      sload\n      dup1\n      tag_399\n      jumpi\n      tag_399\n      tag_400\n      jump\t// in\n    tag_399:\n      0x01\n      swap1\n      sub\n      dup2\n      dup2\n      swap1\n      0x00\n      mstore\n      keccak256(0x00, 0x20)\n      add\n      0x00\n      swap1\n      sstore\n      swap1\n      sstore\n        /* \"src/smartcontracts/CryptoQuestTheShardsOfGenesisMMORPG.sol\":8650:8655  break */\n      jump(tag_382)\n        /* \"src/smartcontracts/CryptoQuestTheShardsOfGenesisMMORPG.sol\":8384:8674  if (players[msg.sender].inventory[j] == recipe.itemIds[i]) {... */\n    tag_389:\n        /* \"src/smartcontracts/CryptoQuestTheShardsOfGenesisMMORPG.sol\":8361:8364  j++ */\n      0x01\n      add\n        /* \"src/smartcontracts/CryptoQuestTheShardsOfGenesisMMORPG.sol\":8302:8688  for (uint j = 0; j < players[msg.sender].inventory.length; j++) {... */\n      jump(tag_381)\n    tag_382:\n      pop\n        /* \"src/smartcontracts/CryptoQuestTheShardsOfGenesisMMORPG.sol\":8283:8286  i++ */\n      0x01\n      add\n        /* \"src/smartcontracts/CryptoQuestTheShardsOfGenesisMMORPG.sol\":8239:8698  for (uint i = 0; i < recipe.itemIds.length; i++) {... */\n      jump(tag_378)\n    tag_379:\n      pop\n        /* \"src/smartcontracts/CryptoQuestTheShardsOfGenesisMMORPG.sol\":8774:8784  msg.sender */\n      caller\n        /* \"src/smartcontracts/CryptoQuestTheShardsOfGenesisMMORPG.sol\":8766:8785  players[msg.sender] */\n      0x00\n      swap1\n      dup2\n      mstore\n        /* \"src/smartcontracts/CryptoQuestTheShardsOfGenesisMMORPG.sol\":8766:8773  players */\n      0x09\n        /* \"src/smartcontracts/CryptoQuestTheShardsOfGenesisMMORPG.sol\":8766:8785  players[msg.sender] */\n      0x20\n      swap1\n      dup2\n      mstore\n      0x40\n      dup3\n      keccak256\n        /* \"src/smartcontracts/CryptoQuestTheShardsOfGenesisMMORPG.sol\":8801:8820  recipe.resultItemId */\n      swap3\n      dup2\n      add\n      mload\n        /* \"src/smartcontracts/CryptoQuestTheShardsOfGenesisMMORPG.sol\":8766:8795  players[msg.sender].inventory */\n      0x08\n      swap1\n      swap4\n      add\n        /* \"src/smartcontracts/CryptoQuestTheShardsOfGenesisMMORPG.sol\":8766:8821  players[msg.sender].inventory.push(recipe.resultItemId) */\n      dup1\n      sload\n      0x01\n      dup2\n      add\n      dup3\n      sstore\n      swap1\n      dup4\n      mstore\n      swap2\n      keccak256\n      add\n      sstore\n      pop\n        /* \"src/smartcontracts/CryptoQuestTheShardsOfGenesisMMORPG.sol\":7529:8828  function craftItem(uint recipeId) public {... */\n      jump\t// out\n        /* \"src/smartcontracts/CryptoQuestTheShardsOfGenesisMMORPG.sol\":4802:4873  function pause() public onlyRole(PAUSER_ROLE) {... */\n    tag_150:\n      0x00\n      dup1\n      mload\n      0x20\n      data_9b87106a812d214d41ad9b68a21119e2948eaaf1040375c939ec808b8862455c\n      dup4\n      codecopy\n      dup2\n      mload\n      swap2\n      mstore\n        /* \"@openzeppelin/contracts-upgradeable/access/AccessControlUpgradeable.sol\":3191:3207  _checkRole(role) */\n      tag_404\n        /* \"@openzeppelin/contracts-upgradeable/access/AccessControlUpgradeable.sol\":3202:3206  role */\n      dup2\n        /* \"@openzeppelin/contracts-upgradeable/access/AccessControlUpgradeable.sol\":3191:3201  _checkRole */\n      tag_277\n        /* \"@openzeppelin/contracts-upgradeable/access/AccessControlUpgradeable.sol\":3191:3207  _checkRole(role) */\n      jump\t// in\n    tag_404:\n        /* \"src/smartcontracts/CryptoQuestTheShardsOfGenesisMMORPG.sol\":4858:4866  _pause() */\n      tag_299\n        /* \"src/smartcontracts/CryptoQuestTheShardsOfGenesisMMORPG.sol\":4858:4864  _pause */\n      tag_407\n        /* \"src/smartcontracts/CryptoQuestTheShardsOfGenesisMMORPG.sol\":4858:4866  _pause() */\n      jump\t// in\n        /* \"@openzeppelin/contracts-upgradeable/access/AccessControlUpgradeable.sol\":3732:3939  function hasRole(bytes32 role, address account) public view virtual returns (bool) {... */\n    tag_159:\n        /* \"@openzeppelin/contracts-upgradeable/access/AccessControlUpgradeable.sol\":3809:3813  bool */\n      0x00\n        /* \"@openzeppelin/contracts-upgradeable/access/AccessControlUpgradeable.sol\":3901:3915  $._roles[role] */\n      swap2\n      dup3\n      mstore\n      0x00\n      dup1\n      mload\n      0x20\n      data_b3da67d1b252aeab7c8063542d95e75f82a5307a82535949bc38f7cf7ba8897f\n      dup4\n      codecopy\n      dup2\n      mload\n      swap2\n      mstore\n      0x20\n      swap1\n      dup2\n      mstore\n      0x40\n      dup1\n      dup5\n      keccak256\n      sub(shl(0xa0, 0x01), 0x01)\n        /* \"@openzeppelin/contracts-upgradeable/access/AccessControlUpgradeable.sol\":3901:3932  $._roles[role].hasRole[account] */\n      swap4\n      swap1\n      swap4\n      and\n      dup5\n      mstore\n      swap2\n      swap1\n      mstore\n      swap1\n      keccak256\n      sload\n      0xff\n      and\n      swap1\n        /* \"@openzeppelin/contracts-upgradeable/access/AccessControlUpgradeable.sol\":3732:3939  function hasRole(bytes32 role, address account) public view virtual returns (bool) {... */\n      jump\t// out\n        /* \"src/smartcontracts/CryptoQuestTheShardsOfGenesisMMORPG.sol\":4363:4490  function setDAOAddress(address _daoAddress) external onlyRole(GAME_ADMIN_ROLE) {... */\n    tag_164:\n      0x00\n      dup1\n      mload\n      0x20\n      data_3059375685003c5c33343043cb51f6c6b03e849d5b2f19339e935f8b505d9fe3\n      dup4\n      codecopy\n      dup2\n      mload\n      swap2\n      mstore\n        /* \"@openzeppelin/contracts-upgradeable/access/AccessControlUpgradeable.sol\":3191:3207  _checkRole(role) */\n      tag_411\n        /* \"@openzeppelin/contracts-upgradeable/access/AccessControlUpgradeable.sol\":3202:3206  role */\n      dup2\n        /* \"@openzeppelin/contracts-upgradeable/access/AccessControlUpgradeable.sol\":3191:3201  _checkRole */\n      tag_277\n        /* \"@openzeppelin/contracts-upgradeable/access/AccessControlUpgradeable.sol\":3191:3207  _checkRole(role) */\n      jump\t// in\n    tag_411:\n      pop\n        /* \"src/smartcontracts/CryptoQuestTheShardsOfGenesisMMORPG.sol\":4452:4463  daoContract */\n      0x03\n        /* \"src/smartcontracts/CryptoQuestTheShardsOfGenesisMMORPG.sol\":4452:4483  daoContract = IDAO(_daoAddress) */\n      dup1\n      sload\n      not(sub(shl(0xa0, 0x01), 0x01))\n      and\n      sub(shl(0xa0, 0x01), 0x01)\n      swap3\n      swap1\n      swap3\n      and\n      swap2\n      swap1\n      swap2\n      or\n      swap1\n      sstore\n        /* \"src/smartcontracts/CryptoQuestTheShardsOfGenesisMMORPG.sol\":4363:4490  function setDAOAddress(address _daoAddress) external onlyRole(GAME_ADMIN_ROLE) {... */\n      jump\t// out\n        /* \"src/smartcontracts/CryptoQuestTheShardsOfGenesisMMORPG.sol\":4068:4207  function setERC721Address(address _erc721Address) external onlyRole(GAME_ADMIN_ROLE) {... */\n    tag_168:\n      0x00\n      dup1\n      mload\n      0x20\n      data_3059375685003c5c33343043cb51f6c6b03e849d5b2f19339e935f8b505d9fe3\n      dup4\n      codecopy\n      dup2\n      mload\n      swap2\n      mstore\n        /* \"@openzeppelin/contracts-upgradeable/access/AccessControlUpgradeable.sol\":3191:3207  _checkRole(role) */\n      tag_414\n        /* \"@openzeppelin/contracts-upgradeable/access/AccessControlUpgradeable.sol\":3202:3206  role */\n      dup2\n        /* \"@openzeppelin/contracts-upgradeable/access/AccessControlUpgradeable.sol\":3191:3201  _checkRole */\n      tag_277\n        /* \"@openzeppelin/contracts-upgradeable/access/AccessControlUpgradeable.sol\":3191:3207  _checkRole(role) */\n      jump\t// in\n    tag_414:\n      pop\n        /* \"src/smartcontracts/CryptoQuestTheShardsOfGenesisMMORPG.sol\":4163:4174  erc721Token */\n      0x01\n        /* \"src/smartcontracts/CryptoQuestTheShardsOfGenesisMMORPG.sol\":4163:4200  erc721Token = IERC721(_erc721Address) */\n      dup1\n      sload\n      not(sub(shl(0xa0, 0x01), 0x01))\n      and\n      sub(shl(0xa0, 0x01), 0x01)\n      swap3\n      swap1\n      swap3\n      and\n      swap2\n      swap1\n      swap2\n      or\n      swap1\n      sstore\n        /* \"src/smartcontracts/CryptoQuestTheShardsOfGenesisMMORPG.sol\":4068:4207  function setERC721Address(address _erc721Address) external onlyRole(GAME_ADMIN_ROLE) {... */\n      jump\t// out\n        /* \"src/smartcontracts/CryptoQuestTheShardsOfGenesisMMORPG.sol\":2605:2644  mapping(address => Guild) public guilds */\n    tag_176:\n      mstore(0x20, 0x0b)\n      0x00\n      swap1\n      dup2\n      mstore\n      0x40\n      swap1\n      keccak256\n      dup1\n      sload\n      dup2\n      swap1\n      tag_416\n      swap1\n      tag_417\n      jump\t// in\n    tag_416:\n      dup1\n      0x1f\n      add\n      0x20\n      dup1\n      swap2\n      div\n      mul\n      0x20\n      add\n      mload(0x40)\n      swap1\n      dup2\n      add\n      0x40\n      mstore\n      dup1\n      swap3\n      swap2\n      swap1\n      dup2\n      dup2\n      mstore\n      0x20\n      add\n      dup3\n      dup1\n      sload\n      tag_418\n      swap1\n      tag_417\n      jump\t// in\n    tag_418:\n      dup1\n      iszero\n      tag_419\n      jumpi\n      dup1\n      0x1f\n      lt\n      tag_420\n      jumpi\n      0x0100\n      dup1\n      dup4\n      sload\n      div\n      mul\n      dup4\n      mstore\n      swap2\n      0x20\n      add\n      swap2\n      jump(tag_419)\n    tag_420:\n      dup3\n      add\n      swap2\n      swap1\n      0x00\n      mstore\n      keccak256(0x00, 0x20)\n      swap1\n    tag_421:\n      dup2\n      sload\n      dup2\n      mstore\n      swap1\n      0x01\n      add\n      swap1\n      0x20\n      add\n      dup1\n      dup4\n      gt\n      tag_421\n      jumpi\n      dup3\n      swap1\n      sub\n      0x1f\n      and\n      dup3\n      add\n      swap2\n    tag_419:\n      pop\n      pop\n      pop\n      0x01\n      swap1\n      swap4\n      add\n      sload\n      swap2\n      swap3\n      pop\n      pop\n      sub(shl(0xa0, 0x01), 0x01)\n      and\n      dup3\n      jump\t// out\n        /* \"src/smartcontracts/CryptoQuestTheShardsOfGenesisMMORPG.sol\":7281:7523  function addRecipe(uint[] memory itemIds, uint resultItemId) public onlyRole(GAME_ADMIN_ROLE) {... */\n    tag_183:\n      0x00\n      dup1\n      mload\n      0x20\n      data_3059375685003c5c33343043cb51f6c6b03e849d5b2f19339e935f8b505d9fe3\n      dup4\n      codecopy\n      dup2\n      mload\n      swap2\n      mstore\n        /* \"@openzeppelin/contracts-upgradeable/access/AccessControlUpgradeable.sol\":3191:3207  _checkRole(role) */\n      tag_423\n        /* \"@openzeppelin/contracts-upgradeable/access/AccessControlUpgradeable.sol\":3202:3206  role */\n      dup2\n        /* \"@openzeppelin/contracts-upgradeable/access/AccessControlUpgradeable.sol\":3191:3201  _checkRole */\n      tag_277\n        /* \"@openzeppelin/contracts-upgradeable/access/AccessControlUpgradeable.sol\":3191:3207  _checkRole(role) */\n      jump\t// in\n    tag_423:\n        /* \"src/smartcontracts/CryptoQuestTheShardsOfGenesisMMORPG.sol\":7409:7438  Recipe(itemIds, resultItemId) */\n      0x40\n      dup1\n      mload\n      dup1\n      dup3\n      add\n      dup3\n      mstore\n      dup5\n      dup2\n      mstore\n      0x20\n      dup1\n      dup3\n      add\n      dup6\n      swap1\n      mstore\n        /* \"src/smartcontracts/CryptoQuestTheShardsOfGenesisMMORPG.sol\":7393:7405  nextRecipeId */\n      sload(0x07)\n      0x00\n        /* \"src/smartcontracts/CryptoQuestTheShardsOfGenesisMMORPG.sol\":7385:7406  recipes[nextRecipeId] */\n      swap1\n      dup2\n      mstore\n        /* \"src/smartcontracts/CryptoQuestTheShardsOfGenesisMMORPG.sol\":7385:7392  recipes */\n      0x0d\n        /* \"src/smartcontracts/CryptoQuestTheShardsOfGenesisMMORPG.sol\":7385:7406  recipes[nextRecipeId] */\n      dup3\n      mstore\n      swap3\n      swap1\n      swap3\n      keccak256\n        /* \"src/smartcontracts/CryptoQuestTheShardsOfGenesisMMORPG.sol\":7385:7438  recipes[nextRecipeId] = Recipe(itemIds, resultItemId) */\n      dup2\n      mload\n      dup1\n      mload\n        /* \"src/smartcontracts/CryptoQuestTheShardsOfGenesisMMORPG.sol\":7409:7438  Recipe(itemIds, resultItemId) */\n      swap3\n      swap4\n        /* \"src/smartcontracts/CryptoQuestTheShardsOfGenesisMMORPG.sol\":7385:7406  recipes[nextRecipeId] */\n      swap2\n      swap3\n        /* \"src/smartcontracts/CryptoQuestTheShardsOfGenesisMMORPG.sol\":7385:7438  recipes[nextRecipeId] = Recipe(itemIds, resultItemId) */\n      tag_425\n      swap3\n        /* \"src/smartcontracts/CryptoQuestTheShardsOfGenesisMMORPG.sol\":7385:7406  recipes[nextRecipeId] */\n      dup5\n      swap3\n        /* \"src/smartcontracts/CryptoQuestTheShardsOfGenesisMMORPG.sol\":7385:7438  recipes[nextRecipeId] = Recipe(itemIds, resultItemId) */\n      add\n      swap1\n      tag_313\n      jump\t// in\n    tag_425:\n      pop\n      0x20\n      swap2\n      dup3\n      add\n      mload\n      0x01\n      swap1\n      swap2\n      add\n      sstore\n        /* \"src/smartcontracts/CryptoQuestTheShardsOfGenesisMMORPG.sol\":7465:7477  nextRecipeId */\n      sload(0x07)\n        /* \"src/smartcontracts/CryptoQuestTheShardsOfGenesisMMORPG.sol\":7453:7492  RecipeAdded(nextRecipeId, resultItemId) */\n      0x40\n      dup1\n      mload\n        /* \"#utility.yul\":18060:18085   */\n      swap2\n      dup3\n      mstore\n        /* \"#utility.yul\":18101:18119   */\n      swap2\n      dup2\n      add\n        /* \"#utility.yul\":18094:18128   */\n      dup5\n      swap1\n      mstore\n        /* \"src/smartcontracts/CryptoQuestTheShardsOfGenesisMMORPG.sol\":7453:7492  RecipeAdded(nextRecipeId, resultItemId) */\n      0x9becfd2b1fc8127387c5b0002a6cbc8382e6c8fb9f76dfd6cfd92cbe94383d0e\n      swap2\n        /* \"#utility.yul\":18033:18051   */\n      add\n        /* \"src/smartcontracts/CryptoQuestTheShardsOfGenesisMMORPG.sol\":7453:7492  RecipeAdded(nextRecipeId, resultItemId) */\n      mload(0x40)\n      dup1\n      swap2\n      sub\n      swap1\n      log1\n        /* \"src/smartcontracts/CryptoQuestTheShardsOfGenesisMMORPG.sol\":7502:7514  nextRecipeId */\n      0x07\n        /* \"src/smartcontracts/CryptoQuestTheShardsOfGenesisMMORPG.sol\":7502:7516  nextRecipeId++ */\n      dup1\n      sload\n      swap1\n        /* \"src/smartcontracts/CryptoQuestTheShardsOfGenesisMMORPG.sol\":7502:7514  nextRecipeId */\n      0x00\n        /* \"src/smartcontracts/CryptoQuestTheShardsOfGenesisMMORPG.sol\":7502:7516  nextRecipeId++ */\n      tag_428\n      dup4\n      tag_289\n      jump\t// in\n    tag_428:\n      swap2\n      swap1\n      pop\n      sstore\n      pop\n        /* \"src/smartcontracts/CryptoQuestTheShardsOfGenesisMMORPG.sol\":7281:7523  function addRecipe(uint[] memory itemIds, uint resultItemId) public onlyRole(GAME_ADMIN_ROLE) {... */\n      pop\n      pop\n      pop\n      jump\t// out\n        /* \"src/smartcontracts/CryptoQuestTheShardsOfGenesisMMORPG.sol\":4649:4796  function setFarmingAddress(address _farmingAddress) external onlyRole(GAME_ADMIN_ROLE) {... */\n    tag_192:\n      0x00\n      dup1\n      mload\n      0x20\n      data_3059375685003c5c33343043cb51f6c6b03e849d5b2f19339e935f8b505d9fe3\n      dup4\n      codecopy\n      dup2\n      mload\n      swap2\n      mstore\n        /* \"@openzeppelin/contracts-upgradeable/access/AccessControlUpgradeable.sol\":3191:3207  _checkRole(role) */\n      tag_430\n        /* \"@openzeppelin/contracts-upgradeable/access/AccessControlUpgradeable.sol\":3202:3206  role */\n      dup2\n        /* \"@openzeppelin/contracts-upgradeable/access/AccessControlUpgradeable.sol\":3191:3201  _checkRole */\n      tag_277\n        /* \"@openzeppelin/contracts-upgradeable/access/AccessControlUpgradeable.sol\":3191:3207  _checkRole(role) */\n      jump\t// in\n    tag_430:\n      pop\n        /* \"src/smartcontracts/CryptoQuestTheShardsOfGenesisMMORPG.sol\":4746:4761  farmingContract */\n      0x05\n        /* \"src/smartcontracts/CryptoQuestTheShardsOfGenesisMMORPG.sol\":4746:4789  farmingContract = IFarming(_farmingAddress) */\n      dup1\n      sload\n      not(sub(shl(0xa0, 0x01), 0x01))\n      and\n      sub(shl(0xa0, 0x01), 0x01)\n      swap3\n      swap1\n      swap3\n      and\n      swap2\n      swap1\n      swap2\n      or\n      swap1\n      sstore\n        /* \"src/smartcontracts/CryptoQuestTheShardsOfGenesisMMORPG.sol\":4649:4796  function setFarmingAddress(address _farmingAddress) external onlyRole(GAME_ADMIN_ROLE) {... */\n      jump\t// out\n        /* \"src/smartcontracts/CryptoQuestTheShardsOfGenesisMMORPG.sol\":2465:2499  mapping(uint => Item) public items */\n    tag_200:\n      mstore(0x20, 0x08)\n      0x00\n      swap1\n      dup2\n      mstore\n      0x40\n      swap1\n      keccak256\n      dup1\n      sload\n      0x01\n      dup3\n      add\n      dup1\n      sload\n      swap2\n      swap3\n      swap2\n      tag_432\n      swap1\n      tag_417\n      jump\t// in\n    tag_432:\n      dup1\n      0x1f\n      add\n      0x20\n      dup1\n      swap2\n      div\n      mul\n      0x20\n      add\n      mload(0x40)\n      swap1\n      dup2\n      add\n      0x40\n      mstore\n      dup1\n      swap3\n      swap2\n      swap1\n      dup2\n      dup2\n      mstore\n      0x20\n      add\n      dup3\n      dup1\n      sload\n      tag_433\n      swap1\n      tag_417\n      jump\t// in\n    tag_433:\n      dup1\n      iszero\n      tag_434\n      jumpi\n      dup1\n      0x1f\n      lt\n      tag_435\n      jumpi\n      0x0100\n      dup1\n      dup4\n      sload\n      div\n      mul\n      dup4\n      mstore\n      swap2\n      0x20\n      add\n      swap2\n      jump(tag_434)\n    tag_435:\n      dup3\n      add\n      swap2\n      swap1\n      0x00\n      mstore\n      keccak256(0x00, 0x20)\n      swap1\n    tag_436:\n      dup2\n      sload\n      dup2\n      mstore\n      swap1\n      0x01\n      add\n      swap1\n      0x20\n      add\n      dup1\n      dup4\n      gt\n      tag_436\n      jumpi\n      dup3\n      swap1\n      sub\n      0x1f\n      and\n      dup3\n      add\n      swap2\n    tag_434:\n      pop\n      pop\n      pop\n      pop\n      pop\n      swap1\n      dup1\n      0x02\n      add\n      sload\n      swap1\n      dup1\n      0x03\n      add\n      sload\n      swap1\n      dup1\n      0x04\n      add\n      sload\n      swap1\n      dup1\n      0x05\n      add\n      sload\n      swap1\n      pop\n      dup7\n      jump\t// out\n        /* \"src/smartcontracts/CryptoQuestTheShardsOfGenesisMMORPG.sol\":2552:2599  mapping(address => Quest[]) public playerQuests */\n    tag_207:\n      mstore(0x20, 0x0a)\n      dup2\n      0x00\n      mstore\n      keccak256(0x00, 0x40)\n      dup2\n      dup2\n      sload\n      dup2\n      lt\n      tag_437\n      jumpi\n      0x00\n      dup1\n      revert\n    tag_437:\n      swap1\n      0x00\n      mstore\n      keccak256(0x00, 0x20)\n      swap1\n      0x04\n      mul\n      add\n      0x00\n      swap2\n      pop\n      swap2\n      pop\n      pop\n      dup1\n      0x00\n      add\n      dup1\n      sload\n      tag_439\n      swap1\n      tag_417\n      jump\t// in\n    tag_439:\n      dup1\n      0x1f\n      add\n      0x20\n      dup1\n      swap2\n      div\n      mul\n      0x20\n      add\n      mload(0x40)\n      swap1\n      dup2\n      add\n      0x40\n      mstore\n      dup1\n      swap3\n      swap2\n      swap1\n      dup2\n      dup2\n      mstore\n      0x20\n      add\n      dup3\n      dup1\n      sload\n      tag_440\n      swap1\n      tag_417\n      jump\t// in\n    tag_440:\n      dup1\n      iszero\n      tag_441\n      jumpi\n      dup1\n      0x1f\n      lt\n      tag_442\n      jumpi\n      0x0100\n      dup1\n      dup4\n      sload\n      div\n      mul\n      dup4\n      mstore\n      swap2\n      0x20\n      add\n      swap2\n      jump(tag_441)\n    tag_442:\n      dup3\n      add\n      swap2\n      swap1\n      0x00\n      mstore\n      keccak256(0x00, 0x20)\n      swap1\n    tag_443:\n      dup2\n      sload\n      dup2\n      mstore\n      swap1\n      0x01\n      add\n      swap1\n      0x20\n      add\n      dup1\n      dup4\n      gt\n      tag_443\n      jumpi\n      dup3\n      swap1\n      sub\n      0x1f\n      and\n      dup3\n      add\n      swap2\n    tag_441:\n      pop\n      pop\n      pop\n      pop\n      pop\n      swap1\n      dup1\n      0x01\n      add\n      dup1\n      sload\n      tag_444\n      swap1\n      tag_417\n      jump\t// in\n    tag_444:\n      dup1\n      0x1f\n      add\n      0x20\n      dup1\n      swap2\n      div\n      mul\n      0x20\n      add\n      mload(0x40)\n      swap1\n      dup2\n      add\n      0x40\n      mstore\n      dup1\n      swap3\n      swap2\n      swap1\n      dup2\n      dup2\n      mstore\n      0x20\n      add\n      dup3\n      dup1\n      sload\n      tag_445\n      swap1\n      tag_417\n      jump\t// in\n    tag_445:\n      dup1\n      iszero\n      tag_446\n      jumpi\n      dup1\n      0x1f\n      lt\n      tag_447\n      jumpi\n      0x0100\n      dup1\n      dup4\n      sload\n      div\n      mul\n      dup4\n      mstore\n      swap2\n      0x20\n      add\n      swap2\n      jump(tag_446)\n    tag_447:\n      dup3\n      add\n      swap2\n      swap1\n      0x00\n      mstore\n      keccak256(0x00, 0x20)\n      swap1\n    tag_448:\n      dup2\n      sload\n      dup2\n      mstore\n      swap1\n      0x01\n      add\n      swap1\n      0x20\n      add\n      dup1\n      dup4\n      gt\n      tag_448\n      jumpi\n      dup3\n      swap1\n      sub\n      0x1f\n      and\n      dup3\n      add\n      swap2\n    tag_446:\n      pop\n      pop\n      pop\n      pop\n      0x02\n      dup4\n      add\n      sload\n      0x03\n      swap1\n      swap4\n      add\n      sload\n      swap2\n      swap3\n      swap2\n      0xff\n      and\n      swap1\n      pop\n      dup5\n      jump\t// out\n        /* \"@openzeppelin/contracts-upgradeable/access/AccessControlUpgradeable.sol\":5662:5800  function revokeRole(bytes32 role, address account) public virtual onlyRole(getRoleAdmin(role)) {... */\n    tag_213:\n        /* \"@openzeppelin/contracts-upgradeable/access/AccessControlUpgradeable.sol\":5737:5755  getRoleAdmin(role) */\n      tag_449\n        /* \"@openzeppelin/contracts-upgradeable/access/AccessControlUpgradeable.sol\":5750:5754  role */\n      dup3\n        /* \"@openzeppelin/contracts-upgradeable/access/AccessControlUpgradeable.sol\":5737:5749  getRoleAdmin */\n      tag_77\n        /* \"@openzeppelin/contracts-upgradeable/access/AccessControlUpgradeable.sol\":5737:5755  getRoleAdmin(role) */\n      jump\t// in\n    tag_449:\n        /* \"@openzeppelin/contracts-upgradeable/access/AccessControlUpgradeable.sol\":3191:3207  _checkRole(role) */\n      tag_451\n        /* \"@openzeppelin/contracts-upgradeable/access/AccessControlUpgradeable.sol\":3202:3206  role */\n      dup2\n        /* \"@openzeppelin/contracts-upgradeable/access/AccessControlUpgradeable.sol\":3191:3201  _checkRole */\n      tag_277\n        /* \"@openzeppelin/contracts-upgradeable/access/AccessControlUpgradeable.sol\":3191:3207  _checkRole(role) */\n      jump\t// in\n    tag_451:\n        /* \"@openzeppelin/contracts-upgradeable/access/AccessControlUpgradeable.sol\":5767:5793  _revokeRole(role, account) */\n      tag_279\n        /* \"@openzeppelin/contracts-upgradeable/access/AccessControlUpgradeable.sol\":5779:5783  role */\n      dup4\n        /* \"@openzeppelin/contracts-upgradeable/access/AccessControlUpgradeable.sol\":5785:5792  account */\n      dup4\n        /* \"@openzeppelin/contracts-upgradeable/access/AccessControlUpgradeable.sol\":5767:5778  _revokeRole */\n      tag_295\n        /* \"@openzeppelin/contracts-upgradeable/access/AccessControlUpgradeable.sol\":5767:5793  _revokeRole(role, account) */\n      jump\t// in\n        /* \"src/smartcontracts/CryptoQuestTheShardsOfGenesisMMORPG.sol\":4213:4357  function setERC1155Address(address _erc1155Address) external onlyRole(GAME_ADMIN_ROLE) {... */\n    tag_217:\n      0x00\n      dup1\n      mload\n      0x20\n      data_3059375685003c5c33343043cb51f6c6b03e849d5b2f19339e935f8b505d9fe3\n      dup4\n      codecopy\n      dup2\n      mload\n      swap2\n      mstore\n        /* \"@openzeppelin/contracts-upgradeable/access/AccessControlUpgradeable.sol\":3191:3207  _checkRole(role) */\n      tag_455\n        /* \"@openzeppelin/contracts-upgradeable/access/AccessControlUpgradeable.sol\":3202:3206  role */\n      dup2\n        /* \"@openzeppelin/contracts-upgradeable/access/AccessControlUpgradeable.sol\":3191:3201  _checkRole */\n      tag_277\n        /* \"@openzeppelin/contracts-upgradeable/access/AccessControlUpgradeable.sol\":3191:3207  _checkRole(role) */\n      jump\t// in\n    tag_455:\n      pop\n        /* \"src/smartcontracts/CryptoQuestTheShardsOfGenesisMMORPG.sol\":4310:4322  erc1155Token */\n      0x02\n        /* \"src/smartcontracts/CryptoQuestTheShardsOfGenesisMMORPG.sol\":4310:4350  erc1155Token = IERC1155(_erc1155Address) */\n      dup1\n      sload\n      not(sub(shl(0xa0, 0x01), 0x01))\n      and\n      sub(shl(0xa0, 0x01), 0x01)\n      swap3\n      swap1\n      swap3\n      and\n      swap2\n      swap1\n      swap2\n      or\n      swap1\n      sstore\n        /* \"src/smartcontracts/CryptoQuestTheShardsOfGenesisMMORPG.sol\":4213:4357  function setERC1155Address(address _erc1155Address) external onlyRole(GAME_ADMIN_ROLE) {... */\n      jump\t// out\n        /* \"src/smartcontracts/CryptoQuestTheShardsOfGenesisMMORPG.sol\":6763:7275  function joinGuild(string memory guildName) public {... */\n    tag_227:\n        /* \"src/smartcontracts/CryptoQuestTheShardsOfGenesisMMORPG.sol\":6824:6838  address leader */\n      0x00\n        /* \"src/smartcontracts/CryptoQuestTheShardsOfGenesisMMORPG.sol\":6841:6858  guildNameToLeader */\n      0x0c\n        /* \"src/smartcontracts/CryptoQuestTheShardsOfGenesisMMORPG.sol\":6859:6868  guildName */\n      dup3\n        /* \"src/smartcontracts/CryptoQuestTheShardsOfGenesisMMORPG.sol\":6841:6869  guildNameToLeader[guildName] */\n      mload(0x40)\n      tag_458\n      swap2\n      swap1\n      tag_263\n      jump\t// in\n    tag_458:\n      swap1\n      dup2\n      mstore\n      mload(0x40)\n      swap1\n      dup2\n      swap1\n      sub\n      0x20\n      add\n      swap1\n      keccak256\n      sload\n      sub(shl(0xa0, 0x01), 0x01)\n      and\n      swap1\n      pop\n      dup1\n        /* \"src/smartcontracts/CryptoQuestTheShardsOfGenesisMMORPG.sol\":6879:6932  require(leader != address(0), \"Guild does not exist\") */\n      tag_459\n      jumpi\n      mload(0x40)\n      shl(0xe5, 0x461bcd)\n      dup2\n      mstore\n        /* \"#utility.yul\":18341:18343   */\n      0x20\n        /* \"src/smartcontracts/CryptoQuestTheShardsOfGenesisMMORPG.sol\":6879:6932  require(leader != address(0), \"Guild does not exist\") */\n      0x04\n      dup3\n      add\n        /* \"#utility.yul\":18323:18344   */\n      mstore\n        /* \"#utility.yul\":18380:18382   */\n      0x14\n        /* \"#utility.yul\":18360:18378   */\n      0x24\n      dup3\n      add\n        /* \"#utility.yul\":18353:18383   */\n      mstore\n      shl(0x62, 0x11dd5a5b1908191bd95cc81b9bdd08195e1a5cdd)\n        /* \"#utility.yul\":18399:18417   */\n      0x44\n      dup3\n      add\n        /* \"#utility.yul\":18392:18442   */\n      mstore\n        /* \"#utility.yul\":18459:18477   */\n      0x64\n      add\n        /* \"src/smartcontracts/CryptoQuestTheShardsOfGenesisMMORPG.sol\":6879:6932  require(leader != address(0), \"Guild does not exist\") */\n      tag_303\n        /* \"#utility.yul\":18139:18483   */\n      jump\n        /* \"src/smartcontracts/CryptoQuestTheShardsOfGenesisMMORPG.sol\":6879:6932  require(leader != address(0), \"Guild does not exist\") */\n    tag_459:\n      sub(shl(0xa0, 0x01), 0x01)\n        /* \"src/smartcontracts/CryptoQuestTheShardsOfGenesisMMORPG.sol\":7049:7063  guilds[leader] */\n      dup2\n      and\n        /* \"src/smartcontracts/CryptoQuestTheShardsOfGenesisMMORPG.sol\":7027:7046  Guild storage guild */\n      0x00\n        /* \"src/smartcontracts/CryptoQuestTheShardsOfGenesisMMORPG.sol\":7049:7063  guilds[leader] */\n      swap1\n      dup2\n      mstore\n        /* \"src/smartcontracts/CryptoQuestTheShardsOfGenesisMMORPG.sol\":7049:7055  guilds */\n      0x0b\n        /* \"src/smartcontracts/CryptoQuestTheShardsOfGenesisMMORPG.sol\":7049:7063  guilds[leader] */\n      0x20\n      mstore\n      0x40\n      dup2\n      keccak256\n      swap1\n        /* \"src/smartcontracts/CryptoQuestTheShardsOfGenesisMMORPG.sol\":7073:7228  for (uint i = 0; i < guild.members.length; i++) {... */\n    tag_462:\n        /* \"src/smartcontracts/CryptoQuestTheShardsOfGenesisMMORPG.sol\":7094:7107  guild.members */\n      0x02\n      dup3\n      add\n        /* \"src/smartcontracts/CryptoQuestTheShardsOfGenesisMMORPG.sol\":7094:7114  guild.members.length */\n      sload\n        /* \"src/smartcontracts/CryptoQuestTheShardsOfGenesisMMORPG.sol\":7090:7114  i < guild.members.length */\n      dup2\n      lt\n        /* \"src/smartcontracts/CryptoQuestTheShardsOfGenesisMMORPG.sol\":7073:7228  for (uint i = 0; i < guild.members.length; i++) {... */\n      iszero\n      tag_463\n      jumpi\n        /* \"src/smartcontracts/CryptoQuestTheShardsOfGenesisMMORPG.sol\":7163:7173  msg.sender */\n      caller\n      sub(shl(0xa0, 0x01), 0x01)\n        /* \"src/smartcontracts/CryptoQuestTheShardsOfGenesisMMORPG.sol\":7143:7173  guild.members[i] != msg.sender */\n      and\n        /* \"src/smartcontracts/CryptoQuestTheShardsOfGenesisMMORPG.sol\":7143:7148  guild */\n      dup3\n        /* \"src/smartcontracts/CryptoQuestTheShardsOfGenesisMMORPG.sol\":7143:7156  guild.members */\n      0x02\n      add\n        /* \"src/smartcontracts/CryptoQuestTheShardsOfGenesisMMORPG.sol\":7157:7158  i */\n      dup3\n        /* \"src/smartcontracts/CryptoQuestTheShardsOfGenesisMMORPG.sol\":7143:7159  guild.members[i] */\n      dup2\n      sload\n      dup2\n      lt\n      tag_466\n      jumpi\n      tag_466\n      tag_260\n      jump\t// in\n    tag_466:\n      0x00\n      swap2\n      dup3\n      mstore\n      0x20\n      swap1\n      swap2\n      keccak256\n      add\n      sload\n      sub(shl(0xa0, 0x01), 0x01)\n      and\n        /* \"src/smartcontracts/CryptoQuestTheShardsOfGenesisMMORPG.sol\":7143:7173  guild.members[i] != msg.sender */\n      sub\n        /* \"src/smartcontracts/CryptoQuestTheShardsOfGenesisMMORPG.sol\":7135:7217  require(guild.members[i] != msg.sender, \"Sender is already a member of the guild\") */\n      tag_468\n      jumpi\n      mload(0x40)\n      shl(0xe5, 0x461bcd)\n      dup2\n      mstore\n        /* \"#utility.yul\":18690:18692   */\n      0x20\n        /* \"src/smartcontracts/CryptoQuestTheShardsOfGenesisMMORPG.sol\":7135:7217  require(guild.members[i] != msg.sender, \"Sender is already a member of the guild\") */\n      0x04\n      dup3\n      add\n        /* \"#utility.yul\":18672:18693   */\n      mstore\n        /* \"#utility.yul\":18729:18731   */\n      0x27\n        /* \"#utility.yul\":18709:18727   */\n      0x24\n      dup3\n      add\n        /* \"#utility.yul\":18702:18732   */\n      mstore\n        /* \"#utility.yul\":18768:18802   */\n      0x53656e64657220697320616c72656164792061206d656d626572206f66207468\n        /* \"#utility.yul\":18748:18766   */\n      0x44\n      dup3\n      add\n        /* \"#utility.yul\":18741:18803   */\n      mstore\n      shl(0xca, 0x194819dd5a5b19)\n        /* \"#utility.yul\":18819:18837   */\n      0x64\n      dup3\n      add\n        /* \"#utility.yul\":18812:18849   */\n      mstore\n        /* \"#utility.yul\":18866:18885   */\n      0x84\n      add\n        /* \"src/smartcontracts/CryptoQuestTheShardsOfGenesisMMORPG.sol\":7135:7217  require(guild.members[i] != msg.sender, \"Sender is already a member of the guild\") */\n      tag_303\n        /* \"#utility.yul\":18488:18891   */\n      jump\n        /* \"src/smartcontracts/CryptoQuestTheShardsOfGenesisMMORPG.sol\":7135:7217  require(guild.members[i] != msg.sender, \"Sender is already a member of the guild\") */\n    tag_468:\n        /* \"src/smartcontracts/CryptoQuestTheShardsOfGenesisMMORPG.sol\":7116:7119  i++ */\n      0x01\n      add\n        /* \"src/smartcontracts/CryptoQuestTheShardsOfGenesisMMORPG.sol\":7073:7228  for (uint i = 0; i < guild.members.length; i++) {... */\n      jump(tag_462)\n    tag_463:\n      pop\n        /* \"src/smartcontracts/CryptoQuestTheShardsOfGenesisMMORPG.sol\":7238:7251  guild.members */\n      0x02\n      add\n        /* \"src/smartcontracts/CryptoQuestTheShardsOfGenesisMMORPG.sol\":7238:7268  guild.members.push(msg.sender) */\n      dup1\n      sload\n      0x01\n      dup2\n      add\n      dup3\n      sstore\n      0x00\n      swap2\n      dup3\n      mstore\n      0x20\n      swap1\n      swap2\n      keccak256\n      add\n      dup1\n      sload\n      not(sub(shl(0xa0, 0x01), 0x01))\n      and\n        /* \"src/smartcontracts/CryptoQuestTheShardsOfGenesisMMORPG.sol\":7257:7267  msg.sender */\n      caller\n        /* \"src/smartcontracts/CryptoQuestTheShardsOfGenesisMMORPG.sol\":7238:7268  guild.members.push(msg.sender) */\n      or\n      swap1\n      sstore\n      pop\n      pop\n        /* \"src/smartcontracts/CryptoQuestTheShardsOfGenesisMMORPG.sol\":6763:7275  function joinGuild(string memory guildName) public {... */\n      jump\t// out\n        /* \"src/smartcontracts/CryptoQuestTheShardsOfGenesisMMORPG.sol\":4496:4643  function setStakingAddress(address _stakingAddress) external onlyRole(GAME_ADMIN_ROLE) {... */\n    tag_240:\n      0x00\n      dup1\n      mload\n      0x20\n      data_3059375685003c5c33343043cb51f6c6b03e849d5b2f19339e935f8b505d9fe3\n      dup4\n      codecopy\n      dup2\n      mload\n      swap2\n      mstore\n        /* \"@openzeppelin/contracts-upgradeable/access/AccessControlUpgradeable.sol\":3191:3207  _checkRole(role) */\n      tag_473\n        /* \"@openzeppelin/contracts-upgradeable/access/AccessControlUpgradeable.sol\":3202:3206  role */\n      dup2\n        /* \"@openzeppelin/contracts-upgradeable/access/AccessControlUpgradeable.sol\":3191:3201  _checkRole */\n      tag_277\n        /* \"@openzeppelin/contracts-upgradeable/access/AccessControlUpgradeable.sol\":3191:3207  _checkRole(role) */\n      jump\t// in\n    tag_473:\n      pop\n        /* \"src/smartcontracts/CryptoQuestTheShardsOfGenesisMMORPG.sol\":4593:4608  stakingContract */\n      0x04\n        /* \"src/smartcontracts/CryptoQuestTheShardsOfGenesisMMORPG.sol\":4593:4636  stakingContract = IStaking(_stakingAddress) */\n      dup1\n      sload\n      not(sub(shl(0xa0, 0x01), 0x01))\n      and\n      sub(shl(0xa0, 0x01), 0x01)\n      swap3\n      swap1\n      swap3\n      and\n      swap2\n      swap1\n      swap2\n      or\n      swap1\n      sstore\n        /* \"src/smartcontracts/CryptoQuestTheShardsOfGenesisMMORPG.sol\":4496:4643  function setStakingAddress(address _stakingAddress) external onlyRole(GAME_ADMIN_ROLE) {... */\n      jump\t// out\n        /* \"src/smartcontracts/CryptoQuestTheShardsOfGenesisMMORPG.sol\":3025:3922  function initialize(... */\n    tag_245:\n        /* \"@openzeppelin/contracts-upgradeable/proxy/utils/Initializable.sol\":8870:8891  INITIALIZABLE_STORAGE */\n      0xf0c57e16840df040f15088dc2f81fe391c3923bec73e23a9662efc9c229c6a00\n        /* \"@openzeppelin/contracts-upgradeable/proxy/utils/Initializable.sol\":4302:4317  $._initializing */\n      dup1\n      sload\n      shl(0x40, 0x01)\n      dup2\n      div\n      0xff\n      and\n        /* \"@openzeppelin/contracts-upgradeable/proxy/utils/Initializable.sol\":4301:4317  !$._initializing */\n      iszero\n      swap1\n        /* \"@openzeppelin/contracts-upgradeable/proxy/utils/Initializable.sol\":4348:4362  $._initialized */\n      0xffffffffffffffff\n      and\n        /* \"@openzeppelin/contracts-upgradeable/proxy/utils/Initializable.sol\":4158:4188  InitializableStorage storage $ */\n      0x00\n        /* \"@openzeppelin/contracts-upgradeable/proxy/utils/Initializable.sol\":4726:4742  initialized == 0 */\n      dup2\n      iszero\n        /* \"@openzeppelin/contracts-upgradeable/proxy/utils/Initializable.sol\":4726:4760  initialized == 0 && isTopLevelCall */\n      dup1\n      iszero\n      tag_478\n      jumpi\n      pop\n        /* \"@openzeppelin/contracts-upgradeable/proxy/utils/Initializable.sol\":4746:4760  isTopLevelCall */\n      dup3\n        /* \"@openzeppelin/contracts-upgradeable/proxy/utils/Initializable.sol\":4726:4760  initialized == 0 && isTopLevelCall */\n    tag_478:\n        /* \"@openzeppelin/contracts-upgradeable/proxy/utils/Initializable.sol\":4706:4760  bool initialSetup = initialized == 0 && isTopLevelCall */\n      swap1\n      pop\n        /* \"@openzeppelin/contracts-upgradeable/proxy/utils/Initializable.sol\":4770:4787  bool construction */\n      0x00\n        /* \"@openzeppelin/contracts-upgradeable/proxy/utils/Initializable.sol\":4790:4801  initialized */\n      dup3\n        /* \"@openzeppelin/contracts-upgradeable/proxy/utils/Initializable.sol\":4790:4806  initialized == 1 */\n      0xffffffffffffffff\n      and\n        /* \"@openzeppelin/contracts-upgradeable/proxy/utils/Initializable.sol\":4805:4806  1 */\n      0x01\n        /* \"@openzeppelin/contracts-upgradeable/proxy/utils/Initializable.sol\":4790:4806  initialized == 1 */\n      eq\n        /* \"@openzeppelin/contracts-upgradeable/proxy/utils/Initializable.sol\":4790:4840  initialized == 1 && address(this).code.length == 0 */\n      dup1\n      iszero\n      tag_479\n      jumpi\n      pop\n        /* \"@openzeppelin/contracts-upgradeable/proxy/utils/Initializable.sol\":4818:4822  this */\n      address\n        /* \"@openzeppelin/contracts-upgradeable/proxy/utils/Initializable.sol\":4810:4835  address(this).code.length */\n      extcodesize\n        /* \"@openzeppelin/contracts-upgradeable/proxy/utils/Initializable.sol\":4810:4840  address(this).code.length == 0 */\n      iszero\n        /* \"@openzeppelin/contracts-upgradeable/proxy/utils/Initializable.sol\":4790:4840  initialized == 1 && address(this).code.length == 0 */\n    tag_479:\n        /* \"@openzeppelin/contracts-upgradeable/proxy/utils/Initializable.sol\":4770:4840  bool construction = initialized == 1 && address(this).code.length == 0 */\n      swap1\n      pop\n        /* \"@openzeppelin/contracts-upgradeable/proxy/utils/Initializable.sol\":4856:4868  initialSetup */\n      dup2\n        /* \"@openzeppelin/contracts-upgradeable/proxy/utils/Initializable.sol\":4855:4868  !initialSetup */\n      iszero\n        /* \"@openzeppelin/contracts-upgradeable/proxy/utils/Initializable.sol\":4855:4885  !initialSetup && !construction */\n      dup1\n      iszero\n      tag_480\n      jumpi\n      pop\n        /* \"@openzeppelin/contracts-upgradeable/proxy/utils/Initializable.sol\":4873:4885  construction */\n      dup1\n        /* \"@openzeppelin/contracts-upgradeable/proxy/utils/Initializable.sol\":4872:4885  !construction */\n      iszero\n        /* \"@openzeppelin/contracts-upgradeable/proxy/utils/Initializable.sol\":4855:4885  !initialSetup && !construction */\n    tag_480:\n        /* \"@openzeppelin/contracts-upgradeable/proxy/utils/Initializable.sol\":4851:4942  if (!initialSetup && !construction) {... */\n      iszero\n      tag_481\n      jumpi\n        /* \"@openzeppelin/contracts-upgradeable/proxy/utils/Initializable.sol\":4908:4931  InvalidInitialization() */\n      mload(0x40)\n      shl(0xe0, 0xf92ee8a9)\n      dup2\n      mstore\n      0x04\n      add\n      mload(0x40)\n      dup1\n      swap2\n      sub\n      swap1\n      revert\n        /* \"@openzeppelin/contracts-upgradeable/proxy/utils/Initializable.sol\":4851:4942  if (!initialSetup && !construction) {... */\n    tag_481:\n        /* \"@openzeppelin/contracts-upgradeable/proxy/utils/Initializable.sol\":4951:4969  $._initialized = 1 */\n      dup5\n      sload\n      not(0xffffffffffffffff)\n      and\n        /* \"@openzeppelin/contracts-upgradeable/proxy/utils/Initializable.sol\":4968:4969  1 */\n      0x01\n        /* \"@openzeppelin/contracts-upgradeable/proxy/utils/Initializable.sol\":4951:4969  $._initialized = 1 */\n      or\n      dup6\n      sstore\n        /* \"@openzeppelin/contracts-upgradeable/proxy/utils/Initializable.sol\":4979:5046  if (isTopLevelCall) {... */\n      dup4\n      iszero\n      tag_482\n      jumpi\n        /* \"@openzeppelin/contracts-upgradeable/proxy/utils/Initializable.sol\":5013:5035  $._initializing = true */\n      dup5\n      sload\n      not(shl(0x40, 0xff))\n      and\n      shl(0x40, 0x01)\n      or\n      dup6\n      sstore\n        /* \"@openzeppelin/contracts-upgradeable/proxy/utils/Initializable.sol\":4979:5046  if (isTopLevelCall) {... */\n    tag_482:\n        /* \"src/smartcontracts/CryptoQuestTheShardsOfGenesisMMORPG.sol\":3351:3368  __Pausable_init() */\n      tag_484\n        /* \"src/smartcontracts/CryptoQuestTheShardsOfGenesisMMORPG.sol\":3351:3366  __Pausable_init */\n      tag_485\n        /* \"src/smartcontracts/CryptoQuestTheShardsOfGenesisMMORPG.sol\":3351:3368  __Pausable_init() */\n      jump\t// in\n    tag_484:\n        /* \"src/smartcontracts/CryptoQuestTheShardsOfGenesisMMORPG.sol\":3378:3400  __AccessControl_init() */\n      tag_486\n        /* \"src/smartcontracts/CryptoQuestTheShardsOfGenesisMMORPG.sol\":3378:3398  __AccessControl_init */\n      tag_487\n        /* \"src/smartcontracts/CryptoQuestTheShardsOfGenesisMMORPG.sol\":3378:3400  __AccessControl_init() */\n      jump\t// in\n    tag_486:\n        /* \"src/smartcontracts/CryptoQuestTheShardsOfGenesisMMORPG.sol\":3410:3434  __UUPSUpgradeable_init() */\n      tag_488\n        /* \"src/smartcontracts/CryptoQuestTheShardsOfGenesisMMORPG.sol\":3410:3432  __UUPSUpgradeable_init */\n      tag_487\n        /* \"src/smartcontracts/CryptoQuestTheShardsOfGenesisMMORPG.sol\":3410:3434  __UUPSUpgradeable_init() */\n      jump\t// in\n    tag_488:\n        /* \"src/smartcontracts/CryptoQuestTheShardsOfGenesisMMORPG.sol\":3445:3489  _grantRole(DEFAULT_ADMIN_ROLE, defaultAdmin) */\n      tag_490\n        /* \"@openzeppelin/contracts-upgradeable/access/AccessControlUpgradeable.sol\":2362:2366  0x00 */\n      0x00\n        /* \"src/smartcontracts/CryptoQuestTheShardsOfGenesisMMORPG.sol\":3476:3488  defaultAdmin */\n      dup16\n        /* \"src/smartcontracts/CryptoQuestTheShardsOfGenesisMMORPG.sol\":3445:3455  _grantRole */\n      tag_280\n        /* \"src/smartcontracts/CryptoQuestTheShardsOfGenesisMMORPG.sol\":3445:3489  _grantRole(DEFAULT_ADMIN_ROLE, defaultAdmin) */\n      jump\t// in\n    tag_490:\n      pop\n        /* \"src/smartcontracts/CryptoQuestTheShardsOfGenesisMMORPG.sol\":3499:3530  _grantRole(PAUSER_ROLE, pauser) */\n      tag_491\n      0x00\n      dup1\n      mload\n      0x20\n      data_9b87106a812d214d41ad9b68a21119e2948eaaf1040375c939ec808b8862455c\n      dup4\n      codecopy\n      dup2\n      mload\n      swap2\n      mstore\n        /* \"src/smartcontracts/CryptoQuestTheShardsOfGenesisMMORPG.sol\":3523:3529  pauser */\n      dup15\n        /* \"src/smartcontracts/CryptoQuestTheShardsOfGenesisMMORPG.sol\":3499:3509  _grantRole */\n      tag_280\n        /* \"src/smartcontracts/CryptoQuestTheShardsOfGenesisMMORPG.sol\":3499:3530  _grantRole(PAUSER_ROLE, pauser) */\n      jump\t// in\n    tag_491:\n      pop\n        /* \"src/smartcontracts/CryptoQuestTheShardsOfGenesisMMORPG.sol\":3540:3575  _grantRole(UPGRADER_ROLE, upgrader) */\n      tag_492\n        /* \"src/smartcontracts/CryptoQuestTheShardsOfGenesisMMORPG.sol\":1371:1397  keccak256(\"UPGRADER_ROLE\") */\n      0x189ab7a9244df0848122154315af71fe140f3db0fe014031783b0946b8c9d2e3\n        /* \"src/smartcontracts/CryptoQuestTheShardsOfGenesisMMORPG.sol\":3566:3574  upgrader */\n      dup14\n        /* \"src/smartcontracts/CryptoQuestTheShardsOfGenesisMMORPG.sol\":3540:3550  _grantRole */\n      tag_280\n        /* \"src/smartcontracts/CryptoQuestTheShardsOfGenesisMMORPG.sol\":3540:3575  _grantRole(UPGRADER_ROLE, upgrader) */\n      jump\t// in\n    tag_492:\n      pop\n        /* \"src/smartcontracts/CryptoQuestTheShardsOfGenesisMMORPG.sol\":3585:3626  _grantRole(GAME_ADMIN_ROLE, defaultAdmin) */\n      tag_493\n      0x00\n      dup1\n      mload\n      0x20\n      data_3059375685003c5c33343043cb51f6c6b03e849d5b2f19339e935f8b505d9fe3\n      dup4\n      codecopy\n      dup2\n      mload\n      swap2\n      mstore\n        /* \"src/smartcontracts/CryptoQuestTheShardsOfGenesisMMORPG.sol\":3613:3625  defaultAdmin */\n      dup16\n        /* \"src/smartcontracts/CryptoQuestTheShardsOfGenesisMMORPG.sol\":3585:3595  _grantRole */\n      tag_280\n        /* \"src/smartcontracts/CryptoQuestTheShardsOfGenesisMMORPG.sol\":3585:3626  _grantRole(GAME_ADMIN_ROLE, defaultAdmin) */\n      jump\t// in\n    tag_493:\n      pop\n        /* \"src/smartcontracts/CryptoQuestTheShardsOfGenesisMMORPG.sol\":3637:3647  erc20Token */\n      0x00\n        /* \"src/smartcontracts/CryptoQuestTheShardsOfGenesisMMORPG.sol\":3637:3671  erc20Token = IERC20(_erc20Address) */\n      dup1\n      sload\n      not(sub(shl(0xa0, 0x01), 0x01))\n      swap1\n      dup2\n      and\n      sub(shl(0xa0, 0x01), 0x01)\n      dup15\n      dup2\n      and\n      swap2\n      swap1\n      swap2\n      or\n      swap1\n      swap3\n      sstore\n      0x01\n        /* \"src/smartcontracts/CryptoQuestTheShardsOfGenesisMMORPG.sol\":3681:3718  erc721Token = IERC721(_erc721Address) */\n      dup1\n      sload\n      dup3\n      and\n      dup14\n      dup5\n      and\n      or\n      swap1\n      sstore\n        /* \"src/smartcontracts/CryptoQuestTheShardsOfGenesisMMORPG.sol\":3728:3740  erc1155Token */\n      0x02\n        /* \"src/smartcontracts/CryptoQuestTheShardsOfGenesisMMORPG.sol\":3728:3768  erc1155Token = IERC1155(_erc1155Address) */\n      dup1\n      sload\n      dup3\n      and\n      dup13\n      dup5\n      and\n      or\n      swap1\n      sstore\n        /* \"src/smartcontracts/CryptoQuestTheShardsOfGenesisMMORPG.sol\":3778:3789  daoContract */\n      0x03\n        /* \"src/smartcontracts/CryptoQuestTheShardsOfGenesisMMORPG.sol\":3778:3809  daoContract = IDAO(_daoAddress) */\n      dup1\n      sload\n      dup3\n      and\n      dup12\n      dup5\n      and\n      or\n      swap1\n      sstore\n        /* \"src/smartcontracts/CryptoQuestTheShardsOfGenesisMMORPG.sol\":3819:3834  stakingContract */\n      0x04\n        /* \"src/smartcontracts/CryptoQuestTheShardsOfGenesisMMORPG.sol\":3819:3862  stakingContract = IStaking(_stakingAddress) */\n      dup1\n      sload\n      dup3\n      and\n      dup11\n      dup5\n      and\n      or\n      swap1\n      sstore\n        /* \"src/smartcontracts/CryptoQuestTheShardsOfGenesisMMORPG.sol\":3872:3887  farmingContract */\n      0x05\n        /* \"src/smartcontracts/CryptoQuestTheShardsOfGenesisMMORPG.sol\":3872:3915  farmingContract = IFarming(_farmingAddress) */\n      dup1\n      sload\n      swap1\n      swap2\n      and\n      swap2\n      dup9\n      and\n      swap2\n      swap1\n      swap2\n      or\n      swap1\n      sstore\n        /* \"@openzeppelin/contracts-upgradeable/proxy/utils/Initializable.sol\":5066:5167  if (isTopLevelCall) {... */\n      dup4\n      iszero\n      tag_494\n      jumpi\n        /* \"@openzeppelin/contracts-upgradeable/proxy/utils/Initializable.sol\":5100:5123  $._initializing = false */\n      dup5\n      sload\n      not(shl(0x40, 0xff))\n      and\n      dup6\n      sstore\n        /* \"@openzeppelin/contracts-upgradeable/proxy/utils/Initializable.sol\":5142:5156  Initialized(1) */\n      mload(0x40)\n      0x01\n        /* \"#utility.yul\":19049:19099   */\n      dup2\n      mstore\n        /* \"@openzeppelin/contracts-upgradeable/proxy/utils/Initializable.sol\":5142:5156  Initialized(1) */\n      0xc7f505b2f371ae2175ee4913f4499e1f2633a7b5936321eed1cdaeb6115181d2\n      swap1\n        /* \"#utility.yul\":19037:19039   */\n      0x20\n        /* \"#utility.yul\":19022:19040   */\n      add\n        /* \"@openzeppelin/contracts-upgradeable/proxy/utils/Initializable.sol\":5142:5156  Initialized(1) */\n      mload(0x40)\n      dup1\n      swap2\n      sub\n      swap1\n      log1\n        /* \"@openzeppelin/contracts-upgradeable/proxy/utils/Initializable.sol\":5066:5167  if (isTopLevelCall) {... */\n    tag_494:\n        /* \"@openzeppelin/contracts-upgradeable/proxy/utils/Initializable.sol\":4092:5173  {... */\n      pop\n      pop\n      pop\n      pop\n      pop\n        /* \"src/smartcontracts/CryptoQuestTheShardsOfGenesisMMORPG.sol\":3025:3922  function initialize(... */\n      pop\n      pop\n      pop\n      pop\n      pop\n      pop\n      pop\n      pop\n      pop\n      jump\t// out\n        /* \"@openzeppelin/contracts-upgradeable/access/AccessControlUpgradeable.sol\":4148:4251  function _checkRole(bytes32 role) internal view virtual {... */\n    tag_277:\n        /* \"@openzeppelin/contracts-upgradeable/access/AccessControlUpgradeable.sol\":4214:4244  _checkRole(role, _msgSender()) */\n      tag_299\n        /* \"@openzeppelin/contracts-upgradeable/access/AccessControlUpgradeable.sol\":4225:4229  role */\n      dup2\n        /* \"@openzeppelin/contracts-upgradeable/utils/ContextUpgradeable.sol\":966:976  msg.sender */\n      caller\n        /* \"@openzeppelin/contracts-upgradeable/access/AccessControlUpgradeable.sol\":4214:4224  _checkRole */\n      tag_502\n        /* \"@openzeppelin/contracts-upgradeable/access/AccessControlUpgradeable.sol\":4214:4244  _checkRole(role, _msgSender()) */\n      jump\t// in\n        /* \"@openzeppelin/contracts-upgradeable/access/AccessControlUpgradeable.sol\":7270:7657  function _grantRole(bytes32 role, address account) internal virtual returns (bool) {... */\n    tag_280:\n        /* \"@openzeppelin/contracts-upgradeable/access/AccessControlUpgradeable.sol\":7347:7351  bool */\n      0x00\n      0x00\n      dup1\n      mload\n      0x20\n      data_b3da67d1b252aeab7c8063542d95e75f82a5307a82535949bc38f7cf7ba8897f\n      dup4\n      codecopy\n      dup2\n      mload\n      swap2\n      mstore\n        /* \"@openzeppelin/contracts-upgradeable/access/AccessControlUpgradeable.sol\":7437:7459  hasRole(role, account) */\n      tag_505\n        /* \"@openzeppelin/contracts-upgradeable/access/AccessControlUpgradeable.sol\":7445:7449  role */\n      dup5\n        /* \"@openzeppelin/contracts-upgradeable/access/AccessControlUpgradeable.sol\":7451:7458  account */\n      dup5\n        /* \"@openzeppelin/contracts-upgradeable/access/AccessControlUpgradeable.sol\":7437:7444  hasRole */\n      tag_159\n        /* \"@openzeppelin/contracts-upgradeable/access/AccessControlUpgradeable.sol\":7437:7459  hasRole(role, account) */\n      jump\t// in\n    tag_505:\n        /* \"@openzeppelin/contracts-upgradeable/access/AccessControlUpgradeable.sol\":7432:7651  if (!hasRole(role, account)) {... */\n      tag_506\n      jumpi\n        /* \"@openzeppelin/contracts-upgradeable/access/AccessControlUpgradeable.sol\":7475:7483  $._roles */\n      0x00\n        /* \"@openzeppelin/contracts-upgradeable/access/AccessControlUpgradeable.sol\":7475:7489  $._roles[role] */\n      dup5\n      dup2\n      mstore\n      0x20\n      dup3\n      dup2\n      mstore\n      0x40\n      dup1\n      dup4\n      keccak256\n      sub(shl(0xa0, 0x01), 0x01)\n        /* \"@openzeppelin/contracts-upgradeable/access/AccessControlUpgradeable.sol\":7475:7506  $._roles[role].hasRole[account] */\n      dup8\n      and\n      dup5\n      mstore\n      swap1\n      swap2\n      mstore\n      swap1\n      keccak256\n        /* \"@openzeppelin/contracts-upgradeable/access/AccessControlUpgradeable.sol\":7475:7513  $._roles[role].hasRole[account] = true */\n      dup1\n      sload\n      not(0xff)\n      and\n        /* \"@openzeppelin/contracts-upgradeable/access/AccessControlUpgradeable.sol\":7509:7513  true */\n      0x01\n        /* \"@openzeppelin/contracts-upgradeable/access/AccessControlUpgradeable.sol\":7475:7513  $._roles[role].hasRole[account] = true */\n      or\n      swap1\n      sstore\n        /* \"@openzeppelin/contracts-upgradeable/access/AccessControlUpgradeable.sol\":7559:7571  _msgSender() */\n      tag_507\n        /* \"@openzeppelin/contracts-upgradeable/utils/ContextUpgradeable.sol\":966:976  msg.sender */\n      caller\n      swap1\n        /* \"@openzeppelin/contracts-upgradeable/utils/ContextUpgradeable.sol\":887:983  function _msgSender() internal view virtual returns (address) {... */\n      jump\n        /* \"@openzeppelin/contracts-upgradeable/access/AccessControlUpgradeable.sol\":7559:7571  _msgSender() */\n    tag_507:\n      sub(shl(0xa0, 0x01), 0x01)\n        /* \"@openzeppelin/contracts-upgradeable/access/AccessControlUpgradeable.sol\":7532:7572  RoleGranted(role, account, _msgSender()) */\n      and\n        /* \"@openzeppelin/contracts-upgradeable/access/AccessControlUpgradeable.sol\":7550:7557  account */\n      dup4\n      sub(shl(0xa0, 0x01), 0x01)\n        /* \"@openzeppelin/contracts-upgradeable/access/AccessControlUpgradeable.sol\":7532:7572  RoleGranted(role, account, _msgSender()) */\n      and\n        /* \"@openzeppelin/contracts-upgradeable/access/AccessControlUpgradeable.sol\":7544:7548  role */\n      dup6\n        /* \"@openzeppelin/contracts-upgradeable/access/AccessControlUpgradeable.sol\":7532:7572  RoleGranted(role, account, _msgSender()) */\n      0x2f8788117e7eff1d82e926ec794901d17c78024a50270940304540a733656f0d\n      mload(0x40)\n      mload(0x40)\n      dup1\n      swap2\n      sub\n      swap1\n      log4\n        /* \"@openzeppelin/contracts-upgradeable/access/AccessControlUpgradeable.sol\":7593:7597  true */\n      0x01\n        /* \"@openzeppelin/contracts-upgradeable/access/AccessControlUpgradeable.sol\":7586:7597  return true */\n      swap2\n      pop\n      pop\n      jump(tag_252)\n        /* \"@openzeppelin/contracts-upgradeable/access/AccessControlUpgradeable.sol\":7432:7651  if (!hasRole(role, account)) {... */\n    tag_506:\n        /* \"@openzeppelin/contracts-upgradeable/access/AccessControlUpgradeable.sol\":7635:7640  false */\n      0x00\n        /* \"@openzeppelin/contracts-upgradeable/access/AccessControlUpgradeable.sol\":7628:7640  return false */\n      swap2\n      pop\n      pop\n      jump(tag_252)\n        /* \"@openzeppelin/contracts-upgradeable/access/AccessControlUpgradeable.sol\":7892:8280  function _revokeRole(bytes32 role, address account) internal virtual returns (bool) {... */\n    tag_295:\n        /* \"@openzeppelin/contracts-upgradeable/access/AccessControlUpgradeable.sol\":7970:7974  bool */\n      0x00\n      0x00\n      dup1\n      mload\n      0x20\n      data_b3da67d1b252aeab7c8063542d95e75f82a5307a82535949bc38f7cf7ba8897f\n      dup4\n      codecopy\n      dup2\n      mload\n      swap2\n      mstore\n        /* \"@openzeppelin/contracts-upgradeable/access/AccessControlUpgradeable.sol\":8059:8081  hasRole(role, account) */\n      tag_512\n        /* \"@openzeppelin/contracts-upgradeable/access/AccessControlUpgradeable.sol\":8067:8071  role */\n      dup5\n        /* \"@openzeppelin/contracts-upgradeable/access/AccessControlUpgradeable.sol\":8073:8080  account */\n      dup5\n        /* \"@openzeppelin/contracts-upgradeable/access/AccessControlUpgradeable.sol\":8059:8066  hasRole */\n      tag_159\n        /* \"@openzeppelin/contracts-upgradeable/access/AccessControlUpgradeable.sol\":8059:8081  hasRole(role, account) */\n      jump\t// in\n    tag_512:\n        /* \"@openzeppelin/contracts-upgradeable/access/AccessControlUpgradeable.sol\":8055:8274  if (hasRole(role, account)) {... */\n      iszero\n      tag_506\n      jumpi\n        /* \"@openzeppelin/contracts-upgradeable/access/AccessControlUpgradeable.sol\":8131:8136  false */\n      0x00\n        /* \"@openzeppelin/contracts-upgradeable/access/AccessControlUpgradeable.sol\":8097:8111  $._roles[role] */\n      dup5\n      dup2\n      mstore\n      0x20\n      dup3\n      dup2\n      mstore\n      0x40\n      dup1\n      dup4\n      keccak256\n      sub(shl(0xa0, 0x01), 0x01)\n        /* \"@openzeppelin/contracts-upgradeable/access/AccessControlUpgradeable.sol\":8097:8128  $._roles[role].hasRole[account] */\n      dup8\n      and\n      dup1\n      dup6\n      mstore\n      swap3\n      mstore\n      dup1\n      dup4\n      keccak256\n        /* \"@openzeppelin/contracts-upgradeable/access/AccessControlUpgradeable.sol\":8097:8136  $._roles[role].hasRole[account] = false */\n      dup1\n      sload\n      not(0xff)\n      and\n      swap1\n      sstore\n        /* \"@openzeppelin/contracts-upgradeable/access/AccessControlUpgradeable.sol\":8155:8195  RoleRevoked(role, account, _msgSender()) */\n      mload\n        /* \"@openzeppelin/contracts-upgradeable/utils/ContextUpgradeable.sol\":966:976  msg.sender */\n      caller\n      swap3\n        /* \"@openzeppelin/contracts-upgradeable/access/AccessControlUpgradeable.sol\":8097:8111  $._roles[role] */\n      dup8\n      swap2\n        /* \"@openzeppelin/contracts-upgradeable/access/AccessControlUpgradeable.sol\":8155:8195  RoleRevoked(role, account, _msgSender()) */\n      0xf6391f5c32d9c69d2a47ea670b442974b53935d1edc7fd64eb21e047a839171b\n      swap2\n        /* \"@openzeppelin/contracts-upgradeable/access/AccessControlUpgradeable.sol\":8131:8136  false */\n      swap1\n        /* \"@openzeppelin/contracts-upgradeable/access/AccessControlUpgradeable.sol\":8155:8195  RoleRevoked(role, account, _msgSender()) */\n      log4\n        /* \"@openzeppelin/contracts-upgradeable/access/AccessControlUpgradeable.sol\":8216:8220  true */\n      0x01\n        /* \"@openzeppelin/contracts-upgradeable/access/AccessControlUpgradeable.sol\":8209:8220  return true */\n      swap2\n      pop\n      pop\n      jump(tag_252)\n        /* \"@openzeppelin/contracts-upgradeable/utils/PausableUpgradeable.sol\":3674:3852  function _unpause() internal virtual whenPaused {... */\n    tag_300:\n        /* \"@openzeppelin/contracts-upgradeable/utils/PausableUpgradeable.sol\":2563:2579  _requirePaused() */\n      tag_517\n        /* \"@openzeppelin/contracts-upgradeable/utils/PausableUpgradeable.sol\":2563:2577  _requirePaused */\n      tag_518\n        /* \"@openzeppelin/contracts-upgradeable/utils/PausableUpgradeable.sol\":2563:2579  _requirePaused() */\n      jump\t// in\n    tag_517:\n      0x00\n      dup1\n      mload\n      0x20\n      data_c0c65a3718f3702d917c44106b91645b509d2e2d0979b70495c3babce192339f\n      dup4\n      codecopy\n      dup2\n      mload\n      swap2\n      mstore\n        /* \"@openzeppelin/contracts-upgradeable/utils/PausableUpgradeable.sol\":3791:3808  $._paused = false */\n      dup1\n      sload\n      not(0xff)\n      and\n      dup2\n      sstore\n        /* \"@openzeppelin/contracts-upgradeable/utils/PausableUpgradeable.sol\":3823:3845  Unpaused(_msgSender()) */\n      0x5db9ee0a495bf2e6ff9c91a7834c1ba4fdd244a5e8aa4e537bd38aeae4b073aa\n        /* \"@openzeppelin/contracts-upgradeable/utils/ContextUpgradeable.sol\":966:976  msg.sender */\n      caller\n        /* \"@openzeppelin/contracts-upgradeable/utils/PausableUpgradeable.sol\":3832:3844  _msgSender() */\n    tag_521:\n        /* \"@openzeppelin/contracts-upgradeable/utils/PausableUpgradeable.sol\":3823:3845  Unpaused(_msgSender()) */\n      mload(0x40)\n      sub(shl(0xa0, 0x01), 0x01)\n        /* \"#utility.yul\":678:710   */\n      swap1\n      swap2\n      and\n        /* \"#utility.yul\":660:711   */\n      dup2\n      mstore\n        /* \"#utility.yul\":648:650   */\n      0x20\n        /* \"#utility.yul\":633:651   */\n      add\n        /* \"@openzeppelin/contracts-upgradeable/utils/PausableUpgradeable.sol\":3823:3845  Unpaused(_msgSender()) */\n      mload(0x40)\n      dup1\n      swap2\n      sub\n      swap1\n      log1\n        /* \"@openzeppelin/contracts-upgradeable/utils/PausableUpgradeable.sol\":3722:3852  {... */\n      pop\n        /* \"@openzeppelin/contracts-upgradeable/utils/PausableUpgradeable.sol\":3674:3852  function _unpause() internal virtual whenPaused {... */\n      jump\t// out\n        /* \"@openzeppelin/contracts-upgradeable/proxy/utils/UUPSUpgradeable.sol\":4599:4911  function _checkProxy() internal view virtual {... */\n    tag_320:\n        /* \"@openzeppelin/contracts-upgradeable/proxy/utils/UUPSUpgradeable.sol\":4679:4683  this */\n      address\n      sub(shl(0xa0, 0x01), 0x01)\n        /* \"@openzeppelin/contracts-upgradeable/proxy/utils/UUPSUpgradeable.sol\":4688:4694  __self */\n      immutable(\"0x3b04ad91523c4dcf551e081621e633b9099d51bf9c5461e58c3bc7354a578b27\")\n        /* \"@openzeppelin/contracts-upgradeable/proxy/utils/UUPSUpgradeable.sol\":4671:4694  address(this) == __self */\n      and\n      eq\n      dup1\n        /* \"@openzeppelin/contracts-upgradeable/proxy/utils/UUPSUpgradeable.sol\":4671:4791  address(this) == __self || // Must be called through delegatecall... */\n      tag_525\n      jumpi\n      pop\n        /* \"@openzeppelin/contracts-upgradeable/proxy/utils/UUPSUpgradeable.sol\":4785:4791  __self */\n      immutable(\"0x3b04ad91523c4dcf551e081621e633b9099d51bf9c5461e58c3bc7354a578b27\")\n      sub(shl(0xa0, 0x01), 0x01)\n        /* \"@openzeppelin/contracts-upgradeable/proxy/utils/UUPSUpgradeable.sol\":4749:4791  ERC1967Utils.getImplementation() != __self */\n      and\n        /* \"@openzeppelin/contracts-upgradeable/proxy/utils/UUPSUpgradeable.sol\":4749:4781  ERC1967Utils.getImplementation() */\n      tag_526\n      0x00\n      dup1\n      mload\n      0x20\n      data_75b20eef8615de99c108b05f0dbda081c91897128caa336d75dffb97c4132b4d\n      dup4\n      codecopy\n      dup2\n      mload\n      swap2\n      mstore\n        /* \"@openzeppelin/contracts/proxy/ERC1967/ERC1967Utils.sol\":2035:2088  StorageSlot.getAddressSlot(IMPLEMENTATION_SLOT).value */\n      sload\n      sub(shl(0xa0, 0x01), 0x01)\n      and\n      swap1\n        /* \"@openzeppelin/contracts/proxy/ERC1967/ERC1967Utils.sol\":1957:2095  function getImplementation() internal view returns (address) {... */\n      jump\n        /* \"@openzeppelin/contracts-upgradeable/proxy/utils/UUPSUpgradeable.sol\":4749:4781  ERC1967Utils.getImplementation() */\n    tag_526:\n      sub(shl(0xa0, 0x01), 0x01)\n        /* \"@openzeppelin/contracts-upgradeable/proxy/utils/UUPSUpgradeable.sol\":4749:4791  ERC1967Utils.getImplementation() != __self */\n      and\n      eq\n      iszero\n        /* \"@openzeppelin/contracts-upgradeable/proxy/utils/UUPSUpgradeable.sol\":4671:4791  address(this) == __self || // Must be called through delegatecall... */\n    tag_525:\n        /* \"@openzeppelin/contracts-upgradeable/proxy/utils/UUPSUpgradeable.sol\":4654:4905  if (... */\n      iszero\n      tag_528\n      jumpi\n        /* \"@openzeppelin/contracts-upgradeable/proxy/utils/UUPSUpgradeable.sol\":4865:4894  UUPSUnauthorizedCallContext() */\n      mload(0x40)\n      shl(0xe1, 0x703e46dd)\n      dup2\n      mstore\n      0x04\n      add\n      mload(0x40)\n      dup1\n      swap2\n      sub\n      swap1\n      revert\n        /* \"@openzeppelin/contracts-upgradeable/proxy/utils/UUPSUpgradeable.sol\":4654:4905  if (... */\n    tag_528:\n        /* \"@openzeppelin/contracts-upgradeable/proxy/utils/UUPSUpgradeable.sol\":4599:4911  function _checkProxy() internal view virtual {... */\n      jump\t// out\n        /* \"src/smartcontracts/CryptoQuestTheShardsOfGenesisMMORPG.sol\":4960:5058  function _authorizeUpgrade(address newImplementation) internal override onlyRole(UPGRADER_ROLE) {} */\n    tag_323:\n        /* \"src/smartcontracts/CryptoQuestTheShardsOfGenesisMMORPG.sol\":1371:1397  keccak256(\"UPGRADER_ROLE\") */\n      0x189ab7a9244df0848122154315af71fe140f3db0fe014031783b0946b8c9d2e3\n        /* \"@openzeppelin/contracts-upgradeable/access/AccessControlUpgradeable.sol\":3191:3207  _checkRole(role) */\n      tag_256\n        /* \"@openzeppelin/contracts-upgradeable/access/AccessControlUpgradeable.sol\":3202:3206  role */\n      dup2\n        /* \"@openzeppelin/contracts-upgradeable/access/AccessControlUpgradeable.sol\":3191:3201  _checkRole */\n      tag_277\n        /* \"@openzeppelin/contracts-upgradeable/access/AccessControlUpgradeable.sol\":3191:3207  _checkRole(role) */\n      jump\t// in\n        /* \"@openzeppelin/contracts-upgradeable/proxy/utils/UUPSUpgradeable.sol\":6052:6590  function _upgradeToAndCallUUPS(address newImplementation, bytes memory data) private {... */\n    tag_325:\n        /* \"@openzeppelin/contracts-upgradeable/proxy/utils/UUPSUpgradeable.sol\":6169:6186  newImplementation */\n      dup2\n      sub(shl(0xa0, 0x01), 0x01)\n        /* \"@openzeppelin/contracts-upgradeable/proxy/utils/UUPSUpgradeable.sol\":6151:6201  IERC1822Proxiable(newImplementation).proxiableUUID */\n      and\n      0x52d1902d\n        /* \"@openzeppelin/contracts-upgradeable/proxy/utils/UUPSUpgradeable.sol\":6151:6203  IERC1822Proxiable(newImplementation).proxiableUUID() */\n      mload(0x40)\n      dup2\n      0xffffffff\n      and\n      0xe0\n      shl\n      dup2\n      mstore\n      0x04\n      add\n      0x20\n      mload(0x40)\n      dup1\n      dup4\n      sub\n      dup2\n      dup7\n      gas\n      staticcall\n      swap3\n      pop\n      pop\n      pop\n      dup1\n      iszero\n      tag_533\n      jumpi\n      pop\n      0x40\n      dup1\n      mload\n      0x1f\n      returndatasize\n      swap1\n      dup2\n      add\n      not(0x1f)\n      and\n      dup3\n      add\n      swap1\n      swap3\n      mstore\n      tag_534\n      swap2\n      dup2\n      add\n      swap1\n      tag_535\n      jump\t// in\n    tag_534:\n      0x01\n    tag_533:\n        /* \"@openzeppelin/contracts-upgradeable/proxy/utils/UUPSUpgradeable.sol\":6147:6584  try IERC1822Proxiable(newImplementation).proxiableUUID() returns (bytes32 slot) {... */\n      tag_536\n      jumpi\n        /* \"@openzeppelin/contracts-upgradeable/proxy/utils/UUPSUpgradeable.sol\":6513:6573  ERC1967Utils.ERC1967InvalidImplementation(newImplementation) */\n      mload(0x40)\n      shl(0xe0, 0x4c9c8ce3)\n      dup2\n      mstore\n      sub(shl(0xa0, 0x01), 0x01)\n        /* \"#utility.yul\":678:710   */\n      dup4\n      and\n        /* \"@openzeppelin/contracts-upgradeable/proxy/utils/UUPSUpgradeable.sol\":6513:6573  ERC1967Utils.ERC1967InvalidImplementation(newImplementation) */\n      0x04\n      dup3\n      add\n        /* \"#utility.yul\":660:711   */\n      mstore\n        /* \"#utility.yul\":633:651   */\n      0x24\n      add\n        /* \"@openzeppelin/contracts-upgradeable/proxy/utils/UUPSUpgradeable.sol\":6513:6573  ERC1967Utils.ERC1967InvalidImplementation(newImplementation) */\n      tag_303\n        /* \"#utility.yul\":497:717   */\n      jump\n        /* \"@openzeppelin/contracts-upgradeable/proxy/utils/UUPSUpgradeable.sol\":6147:6584  try IERC1822Proxiable(newImplementation).proxiableUUID() returns (bytes32 slot) {... */\n    tag_536:\n      0x00\n      dup1\n      mload\n      0x20\n      data_75b20eef8615de99c108b05f0dbda081c91897128caa336d75dffb97c4132b4d\n      dup4\n      codecopy\n      dup2\n      mload\n      swap2\n      mstore\n        /* \"@openzeppelin/contracts-upgradeable/proxy/utils/UUPSUpgradeable.sol\":6245:6285  slot != ERC1967Utils.IMPLEMENTATION_SLOT */\n      dup2\n      eq\n        /* \"@openzeppelin/contracts-upgradeable/proxy/utils/UUPSUpgradeable.sol\":6241:6361  if (slot != ERC1967Utils.IMPLEMENTATION_SLOT) {... */\n      tag_542\n      jumpi\n        /* \"@openzeppelin/contracts-upgradeable/proxy/utils/UUPSUpgradeable.sol\":6312:6346  UUPSUnsupportedProxiableUUID(slot) */\n      mload(0x40)\n      shl(0xe2, 0x2a875269)\n      dup2\n      mstore\n      0x04\n      dup2\n      add\n        /* \"#utility.yul\":2656:2681   */\n      dup3\n      swap1\n      mstore\n        /* \"#utility.yul\":2629:2647   */\n      0x24\n      add\n        /* \"@openzeppelin/contracts-upgradeable/proxy/utils/UUPSUpgradeable.sol\":6312:6346  UUPSUnsupportedProxiableUUID(slot) */\n      tag_303\n        /* \"#utility.yul\":2510:2687   */\n      jump\n        /* \"@openzeppelin/contracts-upgradeable/proxy/utils/UUPSUpgradeable.sol\":6241:6361  if (slot != ERC1967Utils.IMPLEMENTATION_SLOT) {... */\n    tag_542:\n        /* \"@openzeppelin/contracts-upgradeable/proxy/utils/UUPSUpgradeable.sol\":6374:6428  ERC1967Utils.upgradeToAndCall(newImplementation, data) */\n      tag_294\n        /* \"@openzeppelin/contracts-upgradeable/proxy/utils/UUPSUpgradeable.sol\":6404:6421  newImplementation */\n      dup4\n        /* \"@openzeppelin/contracts-upgradeable/proxy/utils/UUPSUpgradeable.sol\":6423:6427  data */\n      dup4\n        /* \"@openzeppelin/contracts-upgradeable/proxy/utils/UUPSUpgradeable.sol\":6374:6403  ERC1967Utils.upgradeToAndCall */\n      tag_545\n        /* \"@openzeppelin/contracts-upgradeable/proxy/utils/UUPSUpgradeable.sol\":6374:6428  ERC1967Utils.upgradeToAndCall(newImplementation, data) */\n      jump\t// in\n        /* \"@openzeppelin/contracts-upgradeable/proxy/utils/UUPSUpgradeable.sol\":5028:5241  function _checkNotDelegated() internal view virtual {... */\n    tag_346:\n        /* \"@openzeppelin/contracts-upgradeable/proxy/utils/UUPSUpgradeable.sol\":5102:5106  this */\n      address\n      sub(shl(0xa0, 0x01), 0x01)\n        /* \"@openzeppelin/contracts-upgradeable/proxy/utils/UUPSUpgradeable.sol\":5111:5117  __self */\n      immutable(\"0x3b04ad91523c4dcf551e081621e633b9099d51bf9c5461e58c3bc7354a578b27\")\n        /* \"@openzeppelin/contracts-upgradeable/proxy/utils/UUPSUpgradeable.sol\":5094:5117  address(this) != __self */\n      and\n      eq\n        /* \"@openzeppelin/contracts-upgradeable/proxy/utils/UUPSUpgradeable.sol\":5090:5235  if (address(this) != __self) {... */\n      tag_528\n      jumpi\n        /* \"@openzeppelin/contracts-upgradeable/proxy/utils/UUPSUpgradeable.sol\":5195:5224  UUPSUnauthorizedCallContext() */\n      mload(0x40)\n      shl(0xe1, 0x703e46dd)\n      dup2\n      mstore\n      0x04\n      add\n      mload(0x40)\n      dup1\n      swap2\n      sub\n      swap1\n      revert\n        /* \"@openzeppelin/contracts-upgradeable/utils/PausableUpgradeable.sol\":3366:3542  function _pause() internal virtual whenNotPaused {... */\n    tag_407:\n        /* \"@openzeppelin/contracts-upgradeable/utils/PausableUpgradeable.sol\":2316:2335  _requireNotPaused() */\n      tag_550\n        /* \"@openzeppelin/contracts-upgradeable/utils/PausableUpgradeable.sol\":2316:2333  _requireNotPaused */\n      tag_551\n        /* \"@openzeppelin/contracts-upgradeable/utils/PausableUpgradeable.sol\":2316:2335  _requireNotPaused() */\n      jump\t// in\n    tag_550:\n      0x00\n      dup1\n      mload\n      0x20\n      data_c0c65a3718f3702d917c44106b91645b509d2e2d0979b70495c3babce192339f\n      dup4\n      codecopy\n      dup2\n      mload\n      swap2\n      mstore\n        /* \"@openzeppelin/contracts-upgradeable/utils/PausableUpgradeable.sol\":3484:3500  $._paused = true */\n      dup1\n      sload\n      not(0xff)\n      and\n        /* \"@openzeppelin/contracts-upgradeable/utils/PausableUpgradeable.sol\":3496:3500  true */\n      0x01\n        /* \"@openzeppelin/contracts-upgradeable/utils/PausableUpgradeable.sol\":3484:3500  $._paused = true */\n      or\n      dup2\n      sstore\n        /* \"@openzeppelin/contracts-upgradeable/utils/PausableUpgradeable.sol\":3515:3535  Paused(_msgSender()) */\n      0x62e78cea01bee320cd4e420270b5ea74000d11b0c9f74754ebdbfc544b05a258\n        /* \"@openzeppelin/contracts-upgradeable/utils/ContextUpgradeable.sol\":966:976  msg.sender */\n      caller\n        /* \"@openzeppelin/contracts-upgradeable/utils/PausableUpgradeable.sol\":3522:3534  _msgSender() */\n      tag_521\n        /* \"@openzeppelin/contracts-upgradeable/utils/ContextUpgradeable.sol\":887:983  function _msgSender() internal view virtual returns (address) {... */\n      jump\n        /* \"@openzeppelin/contracts-upgradeable/utils/PausableUpgradeable.sol\":1836:1933  function __Pausable_init() internal onlyInitializing {... */\n    tag_485:\n        /* \"@openzeppelin/contracts-upgradeable/proxy/utils/Initializable.sol\":6931:6951  _checkInitializing() */\n      tag_558\n        /* \"@openzeppelin/contracts-upgradeable/proxy/utils/Initializable.sol\":6931:6949  _checkInitializing */\n      tag_559\n        /* \"@openzeppelin/contracts-upgradeable/proxy/utils/Initializable.sol\":6931:6951  _checkInitializing() */\n      jump\t// in\n    tag_558:\n        /* \"@openzeppelin/contracts-upgradeable/utils/PausableUpgradeable.sol\":1899:1926  __Pausable_init_unchained() */\n      tag_528\n        /* \"@openzeppelin/contracts-upgradeable/utils/PausableUpgradeable.sol\":1899:1924  __Pausable_init_unchained */\n      tag_562\n        /* \"@openzeppelin/contracts-upgradeable/utils/PausableUpgradeable.sol\":1899:1926  __Pausable_init_unchained() */\n      jump\t// in\n        /* \"@openzeppelin/contracts-upgradeable/access/AccessControlUpgradeable.sol\":3231:3296  function __AccessControl_init() internal onlyInitializing {... */\n    tag_487:\n        /* \"@openzeppelin/contracts-upgradeable/proxy/utils/Initializable.sol\":6931:6951  _checkInitializing() */\n      tag_528\n        /* \"@openzeppelin/contracts-upgradeable/proxy/utils/Initializable.sol\":6931:6949  _checkInitializing */\n      tag_559\n        /* \"@openzeppelin/contracts-upgradeable/proxy/utils/Initializable.sol\":6931:6951  _checkInitializing() */\n      jump\t// in\n        /* \"@openzeppelin/contracts-upgradeable/access/AccessControlUpgradeable.sol\":4381:4578  function _checkRole(bytes32 role, address account) internal view virtual {... */\n    tag_502:\n        /* \"@openzeppelin/contracts-upgradeable/access/AccessControlUpgradeable.sol\":4469:4491  hasRole(role, account) */\n      tag_570\n        /* \"@openzeppelin/contracts-upgradeable/access/AccessControlUpgradeable.sol\":4477:4481  role */\n      dup3\n        /* \"@openzeppelin/contracts-upgradeable/access/AccessControlUpgradeable.sol\":4483:4490  account */\n      dup3\n        /* \"@openzeppelin/contracts-upgradeable/access/AccessControlUpgradeable.sol\":4469:4476  hasRole */\n      tag_159\n        /* \"@openzeppelin/contracts-upgradeable/access/AccessControlUpgradeable.sol\":4469:4491  hasRole(role, account) */\n      jump\t// in\n    tag_570:\n        /* \"@openzeppelin/contracts-upgradeable/access/AccessControlUpgradeable.sol\":4464:4572  if (!hasRole(role, account)) {... */\n      tag_256\n      jumpi\n        /* \"@openzeppelin/contracts-upgradeable/access/AccessControlUpgradeable.sol\":4514:4561  AccessControlUnauthorizedAccount(account, role) */\n      mload(0x40)\n      shl(0xe0, 0xe2517d3f)\n      dup2\n      mstore\n      sub(shl(0xa0, 0x01), 0x01)\n        /* \"#utility.yul\":19699:19731   */\n      dup3\n      and\n        /* \"@openzeppelin/contracts-upgradeable/access/AccessControlUpgradeable.sol\":4514:4561  AccessControlUnauthorizedAccount(account, role) */\n      0x04\n      dup3\n      add\n        /* \"#utility.yul\":19681:19732   */\n      mstore\n        /* \"#utility.yul\":19748:19766   */\n      0x24\n      dup2\n      add\n        /* \"#utility.yul\":19741:19775   */\n      dup4\n      swap1\n      mstore\n        /* \"#utility.yul\":19654:19672   */\n      0x44\n      add\n        /* \"@openzeppelin/contracts-upgradeable/access/AccessControlUpgradeable.sol\":4514:4561  AccessControlUnauthorizedAccount(account, role) */\n      tag_303\n        /* \"#utility.yul\":19507:19781   */\n      jump\n        /* \"@openzeppelin/contracts-upgradeable/utils/PausableUpgradeable.sol\":3105:3231  function _requirePaused() internal view virtual {... */\n    tag_518:\n      0x00\n      dup1\n      mload\n      0x20\n      data_c0c65a3718f3702d917c44106b91645b509d2e2d0979b70495c3babce192339f\n      dup4\n      codecopy\n      dup2\n      mload\n      swap2\n      mstore\n        /* \"@openzeppelin/contracts-upgradeable/utils/PausableUpgradeable.sol\":2821:2830  $._paused */\n      sload\n      0xff\n      and\n        /* \"@openzeppelin/contracts-upgradeable/utils/PausableUpgradeable.sol\":3163:3225  if (!paused()) {... */\n      tag_528\n      jumpi\n        /* \"@openzeppelin/contracts-upgradeable/utils/PausableUpgradeable.sol\":3199:3214  ExpectedPause() */\n      mload(0x40)\n      shl(0xe0, 0x8dfc202b)\n      dup2\n      mstore\n      0x04\n      add\n      mload(0x40)\n      dup1\n      swap2\n      sub\n      swap1\n      revert\n        /* \"@openzeppelin/contracts/proxy/ERC1967/ERC1967Utils.sol\":2779:3114  function upgradeToAndCall(address newImplementation, bytes memory data) internal {... */\n    tag_545:\n        /* \"@openzeppelin/contracts/proxy/ERC1967/ERC1967Utils.sol\":2870:2907  _setImplementation(newImplementation) */\n      tag_581\n        /* \"@openzeppelin/contracts/proxy/ERC1967/ERC1967Utils.sol\":2889:2906  newImplementation */\n      dup3\n        /* \"@openzeppelin/contracts/proxy/ERC1967/ERC1967Utils.sol\":2870:2888  _setImplementation */\n      tag_582\n        /* \"@openzeppelin/contracts/proxy/ERC1967/ERC1967Utils.sol\":2870:2907  _setImplementation(newImplementation) */\n      jump\t// in\n    tag_581:\n        /* \"@openzeppelin/contracts/proxy/ERC1967/ERC1967Utils.sol\":2922:2949  Upgraded(newImplementation) */\n      mload(0x40)\n      sub(shl(0xa0, 0x01), 0x01)\n      dup4\n      and\n      swap1\n      0xbc7cd75a20ee27fd9adebab32041f755214dbc6bffa90cc0225b39da2e5c2d3b\n      swap1\n      0x00\n      swap1\n      log2\n        /* \"@openzeppelin/contracts/proxy/ERC1967/ERC1967Utils.sol\":2964:2975  data.length */\n      dup1\n      mload\n        /* \"@openzeppelin/contracts/proxy/ERC1967/ERC1967Utils.sol\":2964:2979  data.length > 0 */\n      iszero\n        /* \"@openzeppelin/contracts/proxy/ERC1967/ERC1967Utils.sol\":2960:3108  if (data.length > 0) {... */\n      tag_583\n      jumpi\n        /* \"@openzeppelin/contracts/proxy/ERC1967/ERC1967Utils.sol\":2995:3048  Address.functionDelegateCall(newImplementation, data) */\n      tag_294\n        /* \"@openzeppelin/contracts/proxy/ERC1967/ERC1967Utils.sol\":3024:3041  newImplementation */\n      dup3\n        /* \"@openzeppelin/contracts/proxy/ERC1967/ERC1967Utils.sol\":3043:3047  data */\n      dup3\n        /* \"@openzeppelin/contracts/proxy/ERC1967/ERC1967Utils.sol\":2995:3023  Address.functionDelegateCall */\n      tag_585\n        /* \"@openzeppelin/contracts/proxy/ERC1967/ERC1967Utils.sol\":2995:3048  Address.functionDelegateCall(newImplementation, data) */\n      jump\t// in\n        /* \"@openzeppelin/contracts/proxy/ERC1967/ERC1967Utils.sol\":2960:3108  if (data.length > 0) {... */\n    tag_583:\n        /* \"@openzeppelin/contracts/proxy/ERC1967/ERC1967Utils.sol\":3079:3097  _checkNonPayable() */\n      tag_256\n        /* \"@openzeppelin/contracts/proxy/ERC1967/ERC1967Utils.sol\":3079:3095  _checkNonPayable */\n      tag_588\n        /* \"@openzeppelin/contracts/proxy/ERC1967/ERC1967Utils.sol\":3079:3097  _checkNonPayable() */\n      jump\t// in\n        /* \"@openzeppelin/contracts-upgradeable/utils/PausableUpgradeable.sol\":2905:3033  function _requireNotPaused() internal view virtual {... */\n    tag_551:\n      0x00\n      dup1\n      mload\n      0x20\n      data_c0c65a3718f3702d917c44106b91645b509d2e2d0979b70495c3babce192339f\n      dup4\n      codecopy\n      dup2\n      mload\n      swap2\n      mstore\n        /* \"@openzeppelin/contracts-upgradeable/utils/PausableUpgradeable.sol\":2821:2830  $._paused */\n      sload\n      0xff\n      and\n        /* \"@openzeppelin/contracts-upgradeable/utils/PausableUpgradeable.sol\":2966:3027  if (paused()) {... */\n      iszero\n      tag_528\n      jumpi\n        /* \"@openzeppelin/contracts-upgradeable/utils/PausableUpgradeable.sol\":3001:3016  EnforcedPause() */\n      mload(0x40)\n      shl(0xe0, 0xd93c0665)\n      dup2\n      mstore\n      0x04\n      add\n      mload(0x40)\n      dup1\n      swap2\n      sub\n      swap1\n      revert\n        /* \"@openzeppelin/contracts-upgradeable/proxy/utils/Initializable.sol\":7084:7225  function _checkInitializing() internal view virtual {... */\n    tag_559:\n        /* \"@openzeppelin/contracts-upgradeable/proxy/utils/Initializable.sol\":8870:8891  INITIALIZABLE_STORAGE */\n      0xf0c57e16840df040f15088dc2f81fe391c3923bec73e23a9662efc9c229c6a00\n        /* \"@openzeppelin/contracts-upgradeable/proxy/utils/Initializable.sol\":8560:8600  _getInitializableStorage()._initializing */\n      sload\n      shl(0x40, 0x01)\n      swap1\n      div\n      0xff\n      and\n        /* \"@openzeppelin/contracts-upgradeable/proxy/utils/Initializable.sol\":7146:7219  if (!_isInitializing()) {... */\n      tag_528\n      jumpi\n        /* \"@openzeppelin/contracts-upgradeable/proxy/utils/Initializable.sol\":7191:7208  NotInitializing() */\n      mload(0x40)\n      shl(0xe3, 0x1afcd79f)\n      dup2\n      mstore\n      0x04\n      add\n      mload(0x40)\n      dup1\n      swap2\n      sub\n      swap1\n      revert\n        /* \"@openzeppelin/contracts-upgradeable/utils/PausableUpgradeable.sol\":1939:2095  function __Pausable_init_unchained() internal onlyInitializing {... */\n    tag_562:\n        /* \"@openzeppelin/contracts-upgradeable/proxy/utils/Initializable.sol\":6931:6951  _checkInitializing() */\n      tag_597\n        /* \"@openzeppelin/contracts-upgradeable/proxy/utils/Initializable.sol\":6931:6949  _checkInitializing */\n      tag_559\n        /* \"@openzeppelin/contracts-upgradeable/proxy/utils/Initializable.sol\":6931:6951  _checkInitializing() */\n      jump\t// in\n    tag_597:\n      0x00\n      dup1\n      mload\n      0x20\n      data_c0c65a3718f3702d917c44106b91645b509d2e2d0979b70495c3babce192339f\n      dup4\n      codecopy\n      dup2\n      mload\n      swap2\n      mstore\n        /* \"@openzeppelin/contracts-upgradeable/utils/PausableUpgradeable.sol\":2071:2088  $._paused = false */\n      dup1\n      sload\n      not(0xff)\n      and\n      swap1\n      sstore\n        /* \"@openzeppelin/contracts-upgradeable/utils/PausableUpgradeable.sol\":1939:2095  function __Pausable_init_unchained() internal onlyInitializing {... */\n      jump\t// out\n        /* \"@openzeppelin/contracts/proxy/ERC1967/ERC1967Utils.sol\":2186:2467  function _setImplementation(address newImplementation) private {... */\n    tag_582:\n        /* \"@openzeppelin/contracts/proxy/ERC1967/ERC1967Utils.sol\":2263:2280  newImplementation */\n      dup1\n      sub(shl(0xa0, 0x01), 0x01)\n        /* \"@openzeppelin/contracts/proxy/ERC1967/ERC1967Utils.sol\":2263:2292  newImplementation.code.length */\n      and\n      extcodesize\n        /* \"@openzeppelin/contracts/proxy/ERC1967/ERC1967Utils.sol\":2296:2297  0 */\n      0x00\n        /* \"@openzeppelin/contracts/proxy/ERC1967/ERC1967Utils.sol\":2263:2297  newImplementation.code.length == 0 */\n      sub\n        /* \"@openzeppelin/contracts/proxy/ERC1967/ERC1967Utils.sol\":2259:2378  if (newImplementation.code.length == 0) {... */\n      tag_602\n      jumpi\n        /* \"@openzeppelin/contracts/proxy/ERC1967/ERC1967Utils.sol\":2320:2367  ERC1967InvalidImplementation(newImplementation) */\n      mload(0x40)\n      shl(0xe0, 0x4c9c8ce3)\n      dup2\n      mstore\n      sub(shl(0xa0, 0x01), 0x01)\n        /* \"#utility.yul\":678:710   */\n      dup3\n      and\n        /* \"@openzeppelin/contracts/proxy/ERC1967/ERC1967Utils.sol\":2320:2367  ERC1967InvalidImplementation(newImplementation) */\n      0x04\n      dup3\n      add\n        /* \"#utility.yul\":660:711   */\n      mstore\n        /* \"#utility.yul\":633:651   */\n      0x24\n      add\n        /* \"@openzeppelin/contracts/proxy/ERC1967/ERC1967Utils.sol\":2320:2367  ERC1967InvalidImplementation(newImplementation) */\n      tag_303\n        /* \"#utility.yul\":497:717   */\n      jump\n        /* \"@openzeppelin/contracts/proxy/ERC1967/ERC1967Utils.sol\":2259:2378  if (newImplementation.code.length == 0) {... */\n    tag_602:\n      0x00\n      dup1\n      mload\n      0x20\n      data_75b20eef8615de99c108b05f0dbda081c91897128caa336d75dffb97c4132b4d\n      dup4\n      codecopy\n      dup2\n      mload\n      swap2\n      mstore\n        /* \"@openzeppelin/contracts/proxy/ERC1967/ERC1967Utils.sol\":2387:2460  StorageSlot.getAddressSlot(IMPLEMENTATION_SLOT).value = newImplementation */\n      dup1\n      sload\n      not(sub(shl(0xa0, 0x01), 0x01))\n      and\n      sub(shl(0xa0, 0x01), 0x01)\n      swap3\n      swap1\n      swap3\n      and\n      swap2\n      swap1\n      swap2\n      or\n      swap1\n      sstore\n        /* \"@openzeppelin/contracts/proxy/ERC1967/ERC1967Utils.sol\":2186:2467  function _setImplementation(address newImplementation) private {... */\n      jump\t// out\n        /* \"@openzeppelin/contracts/utils/Address.sol\":4106:4359  function functionDelegateCall(address target, bytes memory data) internal returns (bytes memory) {... */\n    tag_585:\n        /* \"@openzeppelin/contracts/utils/Address.sol\":4189:4201  bytes memory */\n      0x60\n        /* \"@openzeppelin/contracts/utils/Address.sol\":4214:4226  bool success */\n      0x00\n        /* \"@openzeppelin/contracts/utils/Address.sol\":4228:4251  bytes memory returndata */\n      dup1\n        /* \"@openzeppelin/contracts/utils/Address.sol\":4255:4261  target */\n      dup5\n      sub(shl(0xa0, 0x01), 0x01)\n        /* \"@openzeppelin/contracts/utils/Address.sol\":4255:4274  target.delegatecall */\n      and\n        /* \"@openzeppelin/contracts/utils/Address.sol\":4275:4279  data */\n      dup5\n        /* \"@openzeppelin/contracts/utils/Address.sol\":4255:4280  target.delegatecall(data) */\n      mload(0x40)\n      tag_606\n      swap2\n      swap1\n      tag_263\n      jump\t// in\n    tag_606:\n      0x00\n      mload(0x40)\n      dup1\n      dup4\n      sub\n      dup2\n      dup6\n      gas\n      delegatecall\n      swap2\n      pop\n      pop\n      returndatasize\n      dup1\n      0x00\n      dup2\n      eq\n      tag_610\n      jumpi\n      mload(0x40)\n      swap2\n      pop\n      and(add(returndatasize, 0x3f), not(0x1f))\n      dup3\n      add\n      0x40\n      mstore\n      returndatasize\n      dup3\n      mstore\n      returndatasize\n      0x00\n      0x20\n      dup5\n      add\n      returndatacopy\n      jump(tag_609)\n    tag_610:\n      0x60\n      swap2\n      pop\n    tag_609:\n      pop\n        /* \"@openzeppelin/contracts/utils/Address.sol\":4213:4280  (bool success, bytes memory returndata) = target.delegatecall(data) */\n      swap2\n      pop\n      swap2\n      pop\n        /* \"@openzeppelin/contracts/utils/Address.sol\":4297:4352  verifyCallResultFromTarget(target, success, returndata) */\n      tag_611\n        /* \"@openzeppelin/contracts/utils/Address.sol\":4324:4330  target */\n      dup6\n        /* \"@openzeppelin/contracts/utils/Address.sol\":4332:4339  success */\n      dup4\n        /* \"@openzeppelin/contracts/utils/Address.sol\":4341:4351  returndata */\n      dup4\n        /* \"@openzeppelin/contracts/utils/Address.sol\":4297:4323  verifyCallResultFromTarget */\n      tag_612\n        /* \"@openzeppelin/contracts/utils/Address.sol\":4297:4352  verifyCallResultFromTarget(target, success, returndata) */\n      jump\t// in\n    tag_611:\n        /* \"@openzeppelin/contracts/utils/Address.sol\":4290:4352  return verifyCallResultFromTarget(target, success, returndata) */\n      swap6\n        /* \"@openzeppelin/contracts/utils/Address.sol\":4106:4359  function functionDelegateCall(address target, bytes memory data) internal returns (bytes memory) {... */\n      swap5\n      pop\n      pop\n      pop\n      pop\n      pop\n      jump\t// out\n        /* \"@openzeppelin/contracts/proxy/ERC1967/ERC1967Utils.sol\":6598:6720  function _checkNonPayable() private {... */\n    tag_588:\n        /* \"@openzeppelin/contracts/proxy/ERC1967/ERC1967Utils.sol\":6648:6657  msg.value */\n      callvalue\n        /* \"@openzeppelin/contracts/proxy/ERC1967/ERC1967Utils.sol\":6648:6661  msg.value > 0 */\n      iszero\n        /* \"@openzeppelin/contracts/proxy/ERC1967/ERC1967Utils.sol\":6644:6714  if (msg.value > 0) {... */\n      tag_528\n      jumpi\n        /* \"@openzeppelin/contracts/proxy/ERC1967/ERC1967Utils.sol\":6684:6703  ERC1967NonPayable() */\n      mload(0x40)\n      shl(0xe0, 0xb398979f)\n      dup2\n      mstore\n      0x04\n      add\n      mload(0x40)\n      dup1\n      swap2\n      sub\n      swap1\n      revert\n        /* \"@openzeppelin/contracts/utils/Address.sol\":4625:5207  function verifyCallResultFromTarget(... */\n    tag_612:\n        /* \"@openzeppelin/contracts/utils/Address.sol\":4769:4781  bytes memory */\n      0x60\n        /* \"@openzeppelin/contracts/utils/Address.sol\":4798:4805  success */\n      dup3\n        /* \"@openzeppelin/contracts/utils/Address.sol\":4793:5201  if (!success) {... */\n      tag_618\n      jumpi\n        /* \"@openzeppelin/contracts/utils/Address.sol\":4821:4840  _revert(returndata) */\n      tag_619\n        /* \"@openzeppelin/contracts/utils/Address.sol\":4829:4839  returndata */\n      dup3\n        /* \"@openzeppelin/contracts/utils/Address.sol\":4821:4828  _revert */\n      tag_620\n        /* \"@openzeppelin/contracts/utils/Address.sol\":4821:4840  _revert(returndata) */\n      jump\t// in\n    tag_619:\n        /* \"@openzeppelin/contracts/utils/Address.sol\":4793:5201  if (!success) {... */\n      jump(tag_621)\n    tag_618:\n        /* \"@openzeppelin/contracts/utils/Address.sol\":5045:5062  returndata.length */\n      dup2\n      mload\n        /* \"@openzeppelin/contracts/utils/Address.sol\":5045:5067  returndata.length == 0 */\n      iszero\n        /* \"@openzeppelin/contracts/utils/Address.sol\":5045:5094  returndata.length == 0 && target.code.length == 0 */\n      dup1\n      iszero\n      tag_622\n      jumpi\n      pop\n      sub(shl(0xa0, 0x01), 0x01)\n        /* \"@openzeppelin/contracts/utils/Address.sol\":5071:5089  target.code.length */\n      dup5\n      and\n      extcodesize\n        /* \"@openzeppelin/contracts/utils/Address.sol\":5071:5094  target.code.length == 0 */\n      iszero\n        /* \"@openzeppelin/contracts/utils/Address.sol\":5045:5094  returndata.length == 0 && target.code.length == 0 */\n    tag_622:\n        /* \"@openzeppelin/contracts/utils/Address.sol\":5041:5160  if (returndata.length == 0 && target.code.length == 0) {... */\n      iszero\n      tag_623\n      jumpi\n        /* \"@openzeppelin/contracts/utils/Address.sol\":5121:5145  AddressEmptyCode(target) */\n      mload(0x40)\n      shl(0xe0, 0x9996b315)\n      dup2\n      mstore\n      sub(shl(0xa0, 0x01), 0x01)\n        /* \"#utility.yul\":678:710   */\n      dup6\n      and\n        /* \"@openzeppelin/contracts/utils/Address.sol\":5121:5145  AddressEmptyCode(target) */\n      0x04\n      dup3\n      add\n        /* \"#utility.yul\":660:711   */\n      mstore\n        /* \"#utility.yul\":633:651   */\n      0x24\n      add\n        /* \"@openzeppelin/contracts/utils/Address.sol\":5121:5145  AddressEmptyCode(target) */\n      tag_303\n        /* \"#utility.yul\":497:717   */\n      jump\n        /* \"@openzeppelin/contracts/utils/Address.sol\":5041:5160  if (returndata.length == 0 && target.code.length == 0) {... */\n    tag_623:\n      pop\n        /* \"@openzeppelin/contracts/utils/Address.sol\":5180:5190  returndata */\n      dup1\n        /* \"@openzeppelin/contracts/utils/Address.sol\":4793:5201  if (!success) {... */\n    tag_621:\n        /* \"@openzeppelin/contracts/utils/Address.sol\":4625:5207  function verifyCallResultFromTarget(... */\n      swap4\n      swap3\n      pop\n      pop\n      pop\n      jump\t// out\n        /* \"@openzeppelin/contracts/utils/Address.sol\":5743:6259  function _revert(bytes memory returndata) private pure {... */\n    tag_620:\n        /* \"@openzeppelin/contracts/utils/Address.sol\":5874:5891  returndata.length */\n      dup1\n      mload\n        /* \"@openzeppelin/contracts/utils/Address.sol\":5874:5895  returndata.length > 0 */\n      iszero\n        /* \"@openzeppelin/contracts/utils/Address.sol\":5870:6253  if (returndata.length > 0) {... */\n      tag_626\n      jumpi\n        /* \"@openzeppelin/contracts/utils/Address.sol\":6102:6112  returndata */\n      dup1\n        /* \"@openzeppelin/contracts/utils/Address.sol\":6096:6113  mload(returndata) */\n      mload\n        /* \"@openzeppelin/contracts/utils/Address.sol\":6158:6173  returndata_size */\n      dup1\n        /* \"@openzeppelin/contracts/utils/Address.sol\":6145:6155  returndata */\n      dup3\n        /* \"@openzeppelin/contracts/utils/Address.sol\":6141:6143  32 */\n      0x20\n        /* \"@openzeppelin/contracts/utils/Address.sol\":6137:6156  add(32, returndata) */\n      add\n        /* \"@openzeppelin/contracts/utils/Address.sol\":6130:6174  revert(add(32, returndata), returndata_size) */\n      revert\n        /* \"@openzeppelin/contracts/utils/Address.sol\":5870:6253  if (returndata.length > 0) {... */\n    tag_626:\n        /* \"@openzeppelin/contracts/utils/Address.sol\":6225:6242  FailedInnerCall() */\n      mload(0x40)\n      shl(0xe1, 0x0a12f521)\n      dup2\n      mstore\n      0x04\n      add\n      mload(0x40)\n      dup1\n      swap2\n      sub\n      swap1\n      revert\n    tag_313:\n      dup3\n      dup1\n      sload\n      dup3\n      dup3\n      sstore\n      swap1\n      0x00\n      mstore\n      keccak256(0x00, 0x20)\n      swap1\n      dup2\n      add\n      swap3\n      dup3\n      iszero\n      tag_630\n      jumpi\n      swap2\n      0x20\n      mul\n      dup3\n      add\n    tag_629:\n      dup3\n      dup2\n      gt\n      iszero\n      tag_630\n      jumpi\n      dup3\n      mload\n      dup3\n      sstore\n      swap2\n      0x20\n      add\n      swap2\n      swap1\n      0x01\n      add\n      swap1\n      jump(tag_629)\n    tag_630:\n      pop\n      tag_631\n      swap3\n      swap2\n      pop\n      tag_632\n      jump\t// in\n    tag_631:\n      pop\n      swap1\n      jump\t// out\n    tag_338:\n      dup3\n      dup1\n      sload\n      dup3\n      dup3\n      sstore\n      swap1\n      0x00\n      mstore\n      keccak256(0x00, 0x20)\n      swap1\n      dup2\n      add\n      swap3\n      dup3\n      iszero\n      tag_630\n      jumpi\n      swap2\n      0x20\n      mul\n      dup3\n      add\n    tag_634:\n      dup3\n      dup2\n      gt\n      iszero\n      tag_630\n      jumpi\n      dup3\n      mload\n      dup3\n      sload\n      not(sub(shl(0xa0, 0x01), 0x01))\n      and\n      sub(shl(0xa0, 0x01), 0x01)\n      swap1\n      swap2\n      and\n      or\n      dup3\n      sstore\n      0x20\n      swap1\n      swap3\n      add\n      swap2\n      0x01\n      swap1\n      swap2\n      add\n      swap1\n      jump(tag_634)\n    tag_632:\n    tag_637:\n      dup1\n      dup3\n      gt\n      iszero\n      tag_631\n      jumpi\n      0x00\n      dup2\n      sstore\n      0x01\n      add\n      jump(tag_637)\n        /* \"#utility.yul\":14:300   */\n    tag_54:\n        /* \"#utility.yul\":72:78   */\n      0x00\n        /* \"#utility.yul\":125:127   */\n      0x20\n        /* \"#utility.yul\":113:122   */\n      dup3\n        /* \"#utility.yul\":104:111   */\n      dup5\n        /* \"#utility.yul\":100:123   */\n      sub\n        /* \"#utility.yul\":96:128   */\n      slt\n        /* \"#utility.yul\":93:145   */\n      iszero\n      tag_651\n      jumpi\n        /* \"#utility.yul\":141:142   */\n      0x00\n        /* \"#utility.yul\":138:139   */\n      dup1\n        /* \"#utility.yul\":131:143   */\n      revert\n        /* \"#utility.yul\":93:145   */\n    tag_651:\n        /* \"#utility.yul\":167:190   */\n      dup2\n      calldataload\n      not(sub(shl(0xe0, 0x01), 0x01))\n        /* \"#utility.yul\":219:251   */\n      dup2\n      and\n        /* \"#utility.yul\":209:252   */\n      dup2\n      eq\n        /* \"#utility.yul\":199:270   */\n      tag_621\n      jumpi\n        /* \"#utility.yul\":266:267   */\n      0x00\n        /* \"#utility.yul\":263:264   */\n      dup1\n        /* \"#utility.yul\":256:268   */\n      revert\n        /* \"#utility.yul\":722:849   */\n    tag_307:\n        /* \"#utility.yul\":783:793   */\n      0x4e487b71\n        /* \"#utility.yul\":778:781   */\n      0xe0\n        /* \"#utility.yul\":774:794   */\n      shl\n        /* \"#utility.yul\":771:772   */\n      0x00\n        /* \"#utility.yul\":764:795   */\n      mstore\n        /* \"#utility.yul\":814:818   */\n      0x41\n        /* \"#utility.yul\":811:812   */\n      0x04\n        /* \"#utility.yul\":804:819   */\n      mstore\n        /* \"#utility.yul\":838:842   */\n      0x24\n        /* \"#utility.yul\":835:836   */\n      0x00\n        /* \"#utility.yul\":828:843   */\n      revert\n        /* \"#utility.yul\":854:1129   */\n    tag_639:\n        /* \"#utility.yul\":925:927   */\n      0x40\n        /* \"#utility.yul\":919:928   */\n      mload\n        /* \"#utility.yul\":990:992   */\n      0x1f\n        /* \"#utility.yul\":971:984   */\n      dup3\n      add\n      not(0x1f)\n        /* \"#utility.yul\":967:994   */\n      and\n        /* \"#utility.yul\":955:995   */\n      dup2\n      add\n        /* \"#utility.yul\":1025:1043   */\n      0xffffffffffffffff\n        /* \"#utility.yul\":1010:1044   */\n      dup2\n      gt\n        /* \"#utility.yul\":1046:1068   */\n      dup3\n      dup3\n      lt\n        /* \"#utility.yul\":1007:1069   */\n      or\n        /* \"#utility.yul\":1004:1092   */\n      iszero\n      tag_658\n      jumpi\n        /* \"#utility.yul\":1072:1090   */\n      tag_658\n      tag_307\n      jump\t// in\n    tag_658:\n        /* \"#utility.yul\":1108:1110   */\n      0x40\n        /* \"#utility.yul\":1101:1123   */\n      mstore\n        /* \"#utility.yul\":854:1129   */\n      swap2\n      swap1\n      pop\n      jump\t// out\n        /* \"#utility.yul\":1134:1541   */\n    tag_640:\n        /* \"#utility.yul\":1199:1204   */\n      0x00\n        /* \"#utility.yul\":1233:1251   */\n      0xffffffffffffffff\n        /* \"#utility.yul\":1225:1231   */\n      dup4\n        /* \"#utility.yul\":1222:1252   */\n      gt\n        /* \"#utility.yul\":1219:1275   */\n      iszero\n      tag_661\n      jumpi\n        /* \"#utility.yul\":1255:1273   */\n      tag_661\n      tag_307\n      jump\t// in\n    tag_661:\n        /* \"#utility.yul\":1293:1350   */\n      tag_662\n        /* \"#utility.yul\":1338:1340   */\n      0x1f\n        /* \"#utility.yul\":1317:1332   */\n      dup5\n      add\n      not(0x1f)\n        /* \"#utility.yul\":1313:1342   */\n      and\n        /* \"#utility.yul\":1344:1348   */\n      0x20\n        /* \"#utility.yul\":1309:1349   */\n      add\n        /* \"#utility.yul\":1293:1350   */\n      tag_639\n      jump\t// in\n    tag_662:\n        /* \"#utility.yul\":1284:1350   */\n      swap1\n      pop\n        /* \"#utility.yul\":1373:1379   */\n      dup3\n        /* \"#utility.yul\":1366:1371   */\n      dup2\n        /* \"#utility.yul\":1359:1380   */\n      mstore\n        /* \"#utility.yul\":1413:1416   */\n      dup4\n        /* \"#utility.yul\":1404:1410   */\n      dup4\n        /* \"#utility.yul\":1399:1402   */\n      dup4\n        /* \"#utility.yul\":1395:1411   */\n      add\n        /* \"#utility.yul\":1392:1417   */\n      gt\n        /* \"#utility.yul\":1389:1434   */\n      iszero\n      tag_663\n      jumpi\n        /* \"#utility.yul\":1430:1431   */\n      0x00\n        /* \"#utility.yul\":1427:1428   */\n      dup1\n        /* \"#utility.yul\":1420:1432   */\n      revert\n        /* \"#utility.yul\":1389:1434   */\n    tag_663:\n        /* \"#utility.yul\":1479:1485   */\n      dup3\n        /* \"#utility.yul\":1474:1477   */\n      dup3\n        /* \"#utility.yul\":1467:1471   */\n      0x20\n        /* \"#utility.yul\":1460:1465   */\n      dup4\n        /* \"#utility.yul\":1456:1472   */\n      add\n        /* \"#utility.yul\":1443:1486   */\n      calldatacopy\n        /* \"#utility.yul\":1533:1534   */\n      0x00\n        /* \"#utility.yul\":1526:1530   */\n      0x20\n        /* \"#utility.yul\":1517:1523   */\n      dup5\n        /* \"#utility.yul\":1510:1515   */\n      dup4\n        /* \"#utility.yul\":1506:1524   */\n      add\n        /* \"#utility.yul\":1502:1531   */\n      add\n        /* \"#utility.yul\":1495:1535   */\n      mstore\n        /* \"#utility.yul\":1134:1541   */\n      swap4\n      swap3\n      pop\n      pop\n      pop\n      jump\t// out\n        /* \"#utility.yul\":1546:1768   */\n    tag_641:\n        /* \"#utility.yul\":1589:1594   */\n      0x00\n        /* \"#utility.yul\":1642:1645   */\n      dup3\n        /* \"#utility.yul\":1635:1639   */\n      0x1f\n        /* \"#utility.yul\":1627:1633   */\n      dup4\n        /* \"#utility.yul\":1623:1640   */\n      add\n        /* \"#utility.yul\":1619:1646   */\n      slt\n        /* \"#utility.yul\":1609:1664   */\n      tag_665\n      jumpi\n        /* \"#utility.yul\":1660:1661   */\n      0x00\n        /* \"#utility.yul\":1657:1658   */\n      dup1\n        /* \"#utility.yul\":1650:1662   */\n      revert\n        /* \"#utility.yul\":1609:1664   */\n    tag_665:\n        /* \"#utility.yul\":1682:1762   */\n      tag_621\n        /* \"#utility.yul\":1758:1761   */\n      dup4\n        /* \"#utility.yul\":1749:1755   */\n      dup4\n        /* \"#utility.yul\":1736:1756   */\n      calldataload\n        /* \"#utility.yul\":1729:1733   */\n      0x20\n        /* \"#utility.yul\":1721:1727   */\n      dup6\n        /* \"#utility.yul\":1717:1734   */\n      add\n        /* \"#utility.yul\":1682:1762   */\n      tag_640\n      jump\t// in\n        /* \"#utility.yul\":1773:2095   */\n    tag_66:\n        /* \"#utility.yul\":1842:1848   */\n      0x00\n        /* \"#utility.yul\":1895:1897   */\n      0x20\n        /* \"#utility.yul\":1883:1892   */\n      dup3\n        /* \"#utility.yul\":1874:1881   */\n      dup5\n        /* \"#utility.yul\":1870:1893   */\n      sub\n        /* \"#utility.yul\":1866:1898   */\n      slt\n        /* \"#utility.yul\":1863:1915   */\n      iszero\n      tag_668\n      jumpi\n        /* \"#utility.yul\":1911:1912   */\n      0x00\n        /* \"#utility.yul\":1908:1909   */\n      dup1\n        /* \"#utility.yul\":1901:1913   */\n      revert\n        /* \"#utility.yul\":1863:1915   */\n    tag_668:\n        /* \"#utility.yul\":1951:1960   */\n      dup2\n        /* \"#utility.yul\":1938:1961   */\n      calldataload\n        /* \"#utility.yul\":1984:2002   */\n      0xffffffffffffffff\n        /* \"#utility.yul\":1976:1982   */\n      dup2\n        /* \"#utility.yul\":1973:2003   */\n      gt\n        /* \"#utility.yul\":1970:2020   */\n      iszero\n      tag_669\n      jumpi\n        /* \"#utility.yul\":2016:2017   */\n      0x00\n        /* \"#utility.yul\":2013:2014   */\n      dup1\n        /* \"#utility.yul\":2006:2018   */\n      revert\n        /* \"#utility.yul\":1970:2020   */\n    tag_669:\n        /* \"#utility.yul\":2039:2089   */\n      tag_670\n        /* \"#utility.yul\":2081:2088   */\n      dup5\n        /* \"#utility.yul\":2072:2078   */\n      dup3\n        /* \"#utility.yul\":2061:2070   */\n      dup6\n        /* \"#utility.yul\":2057:2079   */\n      add\n        /* \"#utility.yul\":2039:2089   */\n      tag_641\n      jump\t// in\n    tag_670:\n        /* \"#utility.yul\":2029:2089   */\n      swap5\n        /* \"#utility.yul\":1773:2095   */\n      swap4\n      pop\n      pop\n      pop\n      pop\n      jump\t// out\n        /* \"#utility.yul\":2325:2505   */\n    tag_76:\n        /* \"#utility.yul\":2384:2390   */\n      0x00\n        /* \"#utility.yul\":2437:2439   */\n      0x20\n        /* \"#utility.yul\":2425:2434   */\n      dup3\n        /* \"#utility.yul\":2416:2423   */\n      dup5\n        /* \"#utility.yul\":2412:2435   */\n      sub\n        /* \"#utility.yul\":2408:2440   */\n      slt\n        /* \"#utility.yul\":2405:2457   */\n      iszero\n      tag_673\n      jumpi\n        /* \"#utility.yul\":2453:2454   */\n      0x00\n        /* \"#utility.yul\":2450:2451   */\n      dup1\n        /* \"#utility.yul\":2443:2455   */\n      revert\n        /* \"#utility.yul\":2405:2457   */\n    tag_673:\n      pop\n        /* \"#utility.yul\":2476:2499   */\n      calldataload\n      swap2\n        /* \"#utility.yul\":2325:2505   */\n      swap1\n      pop\n      jump\t// out\n        /* \"#utility.yul\":2692:2865   */\n    tag_642:\n        /* \"#utility.yul\":2760:2780   */\n      dup1\n      calldataload\n      sub(shl(0xa0, 0x01), 0x01)\n        /* \"#utility.yul\":2809:2840   */\n      dup2\n      and\n        /* \"#utility.yul\":2799:2841   */\n      dup2\n      eq\n        /* \"#utility.yul\":2789:2859   */\n      tag_676\n      jumpi\n        /* \"#utility.yul\":2855:2856   */\n      0x00\n        /* \"#utility.yul\":2852:2853   */\n      dup1\n        /* \"#utility.yul\":2845:2857   */\n      revert\n        /* \"#utility.yul\":2789:2859   */\n    tag_676:\n        /* \"#utility.yul\":2692:2865   */\n      swap2\n      swap1\n      pop\n      jump\t// out\n        /* \"#utility.yul\":2870:3124   */\n    tag_83:\n        /* \"#utility.yul\":2938:2944   */\n      0x00\n        /* \"#utility.yul\":2946:2952   */\n      dup1\n        /* \"#utility.yul\":2999:3001   */\n      0x40\n        /* \"#utility.yul\":2987:2996   */\n      dup4\n        /* \"#utility.yul\":2978:2985   */\n      dup6\n        /* \"#utility.yul\":2974:2997   */\n      sub\n        /* \"#utility.yul\":2970:3002   */\n      slt\n        /* \"#utility.yul\":2967:3019   */\n      iszero\n      tag_678\n      jumpi\n        /* \"#utility.yul\":3015:3016   */\n      0x00\n        /* \"#utility.yul\":3012:3013   */\n      dup1\n        /* \"#utility.yul\":3005:3017   */\n      revert\n        /* \"#utility.yul\":2967:3019   */\n    tag_678:\n        /* \"#utility.yul\":3051:3060   */\n      dup3\n        /* \"#utility.yul\":3038:3061   */\n      calldataload\n        /* \"#utility.yul\":3028:3061   */\n      swap2\n      pop\n        /* \"#utility.yul\":3080:3118   */\n      tag_679\n        /* \"#utility.yul\":3114:3116   */\n      0x20\n        /* \"#utility.yul\":3103:3112   */\n      dup5\n        /* \"#utility.yul\":3099:3117   */\n      add\n        /* \"#utility.yul\":3080:3118   */\n      tag_642\n      jump\t// in\n    tag_679:\n        /* \"#utility.yul\":3070:3118   */\n      swap1\n      pop\n        /* \"#utility.yul\":2870:3124   */\n      swap3\n      pop\n      swap3\n      swap1\n      pop\n      jump\t// out\n        /* \"#utility.yul\":3129:3725   */\n    tag_88:\n        /* \"#utility.yul\":3234:3240   */\n      0x00\n        /* \"#utility.yul\":3242:3248   */\n      dup1\n        /* \"#utility.yul\":3250:3256   */\n      0x00\n        /* \"#utility.yul\":3258:3264   */\n      dup1\n        /* \"#utility.yul\":3266:3272   */\n      0x00\n        /* \"#utility.yul\":3319:3322   */\n      0xa0\n        /* \"#utility.yul\":3307:3316   */\n      dup7\n        /* \"#utility.yul\":3298:3305   */\n      dup9\n        /* \"#utility.yul\":3294:3317   */\n      sub\n        /* \"#utility.yul\":3290:3323   */\n      slt\n        /* \"#utility.yul\":3287:3340   */\n      iszero\n      tag_681\n      jumpi\n        /* \"#utility.yul\":3336:3337   */\n      0x00\n        /* \"#utility.yul\":3333:3334   */\n      dup1\n        /* \"#utility.yul\":3326:3338   */\n      revert\n        /* \"#utility.yul\":3287:3340   */\n    tag_681:\n        /* \"#utility.yul\":3376:3385   */\n      dup6\n        /* \"#utility.yul\":3363:3386   */\n      calldataload\n        /* \"#utility.yul\":3409:3427   */\n      0xffffffffffffffff\n        /* \"#utility.yul\":3401:3407   */\n      dup2\n        /* \"#utility.yul\":3398:3428   */\n      gt\n        /* \"#utility.yul\":3395:3445   */\n      iszero\n      tag_682\n      jumpi\n        /* \"#utility.yul\":3441:3442   */\n      0x00\n        /* \"#utility.yul\":3438:3439   */\n      dup1\n        /* \"#utility.yul\":3431:3443   */\n      revert\n        /* \"#utility.yul\":3395:3445   */\n    tag_682:\n        /* \"#utility.yul\":3464:3514   */\n      tag_683\n        /* \"#utility.yul\":3506:3513   */\n      dup9\n        /* \"#utility.yul\":3497:3503   */\n      dup3\n        /* \"#utility.yul\":3486:3495   */\n      dup10\n        /* \"#utility.yul\":3482:3504   */\n      add\n        /* \"#utility.yul\":3464:3514   */\n      tag_641\n      jump\t// in\n    tag_683:\n        /* \"#utility.yul\":3454:3514   */\n      swap9\n        /* \"#utility.yul\":3561:3563   */\n      0x20\n        /* \"#utility.yul\":3546:3564   */\n      dup9\n      add\n        /* \"#utility.yul\":3533:3565   */\n      calldataload\n      swap9\n      pop\n        /* \"#utility.yul\":3612:3614   */\n      0x40\n        /* \"#utility.yul\":3597:3615   */\n      dup9\n      add\n        /* \"#utility.yul\":3584:3616   */\n      calldataload\n      swap8\n        /* \"#utility.yul\":3663:3665   */\n      0x60\n        /* \"#utility.yul\":3648:3666   */\n      dup2\n      add\n        /* \"#utility.yul\":3635:3667   */\n      calldataload\n      swap8\n      pop\n        /* \"#utility.yul\":3714:3717   */\n      0x80\n        /* \"#utility.yul\":3699:3718   */\n      add\n        /* \"#utility.yul\":3686:3719   */\n      calldataload\n      swap6\n      pop\n        /* \"#utility.yul\":3129:3725   */\n      swap4\n      pop\n      pop\n      pop\n      pop\n      jump\t// out\n        /* \"#utility.yul\":3730:3916   */\n    tag_103:\n        /* \"#utility.yul\":3789:3795   */\n      0x00\n        /* \"#utility.yul\":3842:3844   */\n      0x20\n        /* \"#utility.yul\":3830:3839   */\n      dup3\n        /* \"#utility.yul\":3821:3828   */\n      dup5\n        /* \"#utility.yul\":3817:3840   */\n      sub\n        /* \"#utility.yul\":3813:3845   */\n      slt\n        /* \"#utility.yul\":3810:3862   */\n      iszero\n      tag_685\n      jumpi\n        /* \"#utility.yul\":3858:3859   */\n      0x00\n        /* \"#utility.yul\":3855:3856   */\n      dup1\n        /* \"#utility.yul\":3848:3860   */\n      revert\n        /* \"#utility.yul\":3810:3862   */\n    tag_685:\n        /* \"#utility.yul\":3881:3910   */\n      tag_621\n        /* \"#utility.yul\":3900:3909   */\n      dup3\n        /* \"#utility.yul\":3881:3910   */\n      tag_642\n      jump\t// in\n        /* \"#utility.yul\":4509:5033   */\n    tag_119:\n        /* \"#utility.yul\":4586:4592   */\n      0x00\n        /* \"#utility.yul\":4594:4600   */\n      dup1\n        /* \"#utility.yul\":4647:4649   */\n      0x40\n        /* \"#utility.yul\":4635:4644   */\n      dup4\n        /* \"#utility.yul\":4626:4633   */\n      dup6\n        /* \"#utility.yul\":4622:4645   */\n      sub\n        /* \"#utility.yul\":4618:4650   */\n      slt\n        /* \"#utility.yul\":4615:4667   */\n      iszero\n      tag_692\n      jumpi\n        /* \"#utility.yul\":4663:4664   */\n      0x00\n        /* \"#utility.yul\":4660:4661   */\n      dup1\n        /* \"#utility.yul\":4653:4665   */\n      revert\n        /* \"#utility.yul\":4615:4667   */\n    tag_692:\n        /* \"#utility.yul\":4686:4715   */\n      tag_693\n        /* \"#utility.yul\":4705:4714   */\n      dup4\n        /* \"#utility.yul\":4686:4715   */\n      tag_642\n      jump\t// in\n    tag_693:\n        /* \"#utility.yul\":4676:4715   */\n      swap2\n      pop\n        /* \"#utility.yul\":4766:4768   */\n      0x20\n        /* \"#utility.yul\":4755:4764   */\n      dup4\n        /* \"#utility.yul\":4751:4769   */\n      add\n        /* \"#utility.yul\":4738:4770   */\n      calldataload\n        /* \"#utility.yul\":4793:4811   */\n      0xffffffffffffffff\n        /* \"#utility.yul\":4785:4791   */\n      dup2\n        /* \"#utility.yul\":4782:4812   */\n      gt\n        /* \"#utility.yul\":4779:4829   */\n      iszero\n      tag_694\n      jumpi\n        /* \"#utility.yul\":4825:4826   */\n      0x00\n        /* \"#utility.yul\":4822:4823   */\n      dup1\n        /* \"#utility.yul\":4815:4827   */\n      revert\n        /* \"#utility.yul\":4779:4829   */\n    tag_694:\n        /* \"#utility.yul\":4848:4870   */\n      dup4\n      add\n        /* \"#utility.yul\":4901:4905   */\n      0x1f\n        /* \"#utility.yul\":4893:4906   */\n      dup2\n      add\n        /* \"#utility.yul\":4889:4916   */\n      dup6\n      sgt\n        /* \"#utility.yul\":4879:4934   */\n      tag_695\n      jumpi\n        /* \"#utility.yul\":4930:4931   */\n      0x00\n        /* \"#utility.yul\":4927:4928   */\n      dup1\n        /* \"#utility.yul\":4920:4932   */\n      revert\n        /* \"#utility.yul\":4879:4934   */\n    tag_695:\n        /* \"#utility.yul\":4953:5027   */\n      tag_696\n        /* \"#utility.yul\":5019:5026   */\n      dup6\n        /* \"#utility.yul\":5014:5016   */\n      dup3\n        /* \"#utility.yul\":5001:5017   */\n      calldataload\n        /* \"#utility.yul\":4996:4998   */\n      0x20\n        /* \"#utility.yul\":4992:4994   */\n      dup5\n        /* \"#utility.yul\":4988:4999   */\n      add\n        /* \"#utility.yul\":4953:5027   */\n      tag_640\n      jump\t// in\n    tag_696:\n        /* \"#utility.yul\":4943:5027   */\n      swap2\n      pop\n      pop\n        /* \"#utility.yul\":4509:5033   */\n      swap3\n      pop\n      swap3\n      swap1\n      pop\n      jump\t// out\n        /* \"#utility.yul\":5038:5434   */\n    tag_124:\n        /* \"#utility.yul\":5116:5122   */\n      0x00\n        /* \"#utility.yul\":5124:5130   */\n      dup1\n        /* \"#utility.yul\":5177:5179   */\n      0x40\n        /* \"#utility.yul\":5165:5174   */\n      dup4\n        /* \"#utility.yul\":5156:5163   */\n      dup6\n        /* \"#utility.yul\":5152:5175   */\n      sub\n        /* \"#utility.yul\":5148:5180   */\n      slt\n        /* \"#utility.yul\":5145:5197   */\n      iszero\n      tag_698\n      jumpi\n        /* \"#utility.yul\":5193:5194   */\n      0x00\n        /* \"#utility.yul\":5190:5191   */\n      dup1\n        /* \"#utility.yul\":5183:5195   */\n      revert\n        /* \"#utility.yul\":5145:5197   */\n    tag_698:\n        /* \"#utility.yul\":5233:5242   */\n      dup3\n        /* \"#utility.yul\":5220:5243   */\n      calldataload\n        /* \"#utility.yul\":5266:5284   */\n      0xffffffffffffffff\n        /* \"#utility.yul\":5258:5264   */\n      dup2\n        /* \"#utility.yul\":5255:5285   */\n      gt\n        /* \"#utility.yul\":5252:5302   */\n      iszero\n      tag_699\n      jumpi\n        /* \"#utility.yul\":5298:5299   */\n      0x00\n        /* \"#utility.yul\":5295:5296   */\n      dup1\n        /* \"#utility.yul\":5288:5300   */\n      revert\n        /* \"#utility.yul\":5252:5302   */\n    tag_699:\n        /* \"#utility.yul\":5321:5371   */\n      tag_700\n        /* \"#utility.yul\":5363:5370   */\n      dup6\n        /* \"#utility.yul\":5354:5360   */\n      dup3\n        /* \"#utility.yul\":5343:5352   */\n      dup7\n        /* \"#utility.yul\":5339:5361   */\n      add\n        /* \"#utility.yul\":5321:5371   */\n      tag_641\n      jump\t// in\n    tag_700:\n        /* \"#utility.yul\":5311:5371   */\n      swap3\n      pop\n      pop\n        /* \"#utility.yul\":5390:5428   */\n      tag_679\n        /* \"#utility.yul\":5424:5426   */\n      0x20\n        /* \"#utility.yul\":5413:5422   */\n      dup5\n        /* \"#utility.yul\":5409:5427   */\n      add\n        /* \"#utility.yul\":5390:5428   */\n      tag_642\n      jump\t// in\n        /* \"#utility.yul\":5663:6274   */\n    tag_142:\n        /* \"#utility.yul\":5760:5766   */\n      0x00\n        /* \"#utility.yul\":5768:5774   */\n      dup1\n        /* \"#utility.yul\":5776:5782   */\n      0x00\n        /* \"#utility.yul\":5829:5831   */\n      0x60\n        /* \"#utility.yul\":5817:5826   */\n      dup5\n        /* \"#utility.yul\":5808:5815   */\n      dup7\n        /* \"#utility.yul\":5804:5827   */\n      sub\n        /* \"#utility.yul\":5800:5832   */\n      slt\n        /* \"#utility.yul\":5797:5849   */\n      iszero\n      tag_704\n      jumpi\n        /* \"#utility.yul\":5845:5846   */\n      0x00\n        /* \"#utility.yul\":5842:5843   */\n      dup1\n        /* \"#utility.yul\":5835:5847   */\n      revert\n        /* \"#utility.yul\":5797:5849   */\n    tag_704:\n        /* \"#utility.yul\":5885:5894   */\n      dup4\n        /* \"#utility.yul\":5872:5895   */\n      calldataload\n        /* \"#utility.yul\":5914:5932   */\n      0xffffffffffffffff\n        /* \"#utility.yul\":5955:5957   */\n      dup1\n        /* \"#utility.yul\":5947:5953   */\n      dup3\n        /* \"#utility.yul\":5944:5958   */\n      gt\n        /* \"#utility.yul\":5941:5975   */\n      iszero\n      tag_705\n      jumpi\n        /* \"#utility.yul\":5971:5972   */\n      0x00\n        /* \"#utility.yul\":5968:5969   */\n      dup1\n        /* \"#utility.yul\":5961:5973   */\n      revert\n        /* \"#utility.yul\":5941:5975   */\n    tag_705:\n        /* \"#utility.yul\":5994:6044   */\n      tag_706\n        /* \"#utility.yul\":6036:6043   */\n      dup8\n        /* \"#utility.yul\":6027:6033   */\n      dup4\n        /* \"#utility.yul\":6016:6025   */\n      dup9\n        /* \"#utility.yul\":6012:6034   */\n      add\n        /* \"#utility.yul\":5994:6044   */\n      tag_641\n      jump\t// in\n    tag_706:\n        /* \"#utility.yul\":5984:6044   */\n      swap5\n      pop\n        /* \"#utility.yul\":6097:6099   */\n      0x20\n        /* \"#utility.yul\":6086:6095   */\n      dup7\n        /* \"#utility.yul\":6082:6100   */\n      add\n        /* \"#utility.yul\":6069:6101   */\n      calldataload\n        /* \"#utility.yul\":6053:6101   */\n      swap2\n      pop\n        /* \"#utility.yul\":6126:6128   */\n      dup1\n        /* \"#utility.yul\":6116:6124   */\n      dup3\n        /* \"#utility.yul\":6113:6129   */\n      gt\n        /* \"#utility.yul\":6110:6146   */\n      iszero\n      tag_707\n      jumpi\n        /* \"#utility.yul\":6142:6143   */\n      0x00\n        /* \"#utility.yul\":6139:6140   */\n      dup1\n        /* \"#utility.yul\":6132:6144   */\n      revert\n        /* \"#utility.yul\":6110:6146   */\n    tag_707:\n      pop\n        /* \"#utility.yul\":6165:6217   */\n      tag_708\n        /* \"#utility.yul\":6209:6216   */\n      dup7\n        /* \"#utility.yul\":6198:6206   */\n      dup3\n        /* \"#utility.yul\":6187:6196   */\n      dup8\n        /* \"#utility.yul\":6183:6207   */\n      add\n        /* \"#utility.yul\":6165:6217   */\n      tag_641\n      jump\t// in\n    tag_708:\n        /* \"#utility.yul\":6155:6217   */\n      swap3\n      pop\n      pop\n        /* \"#utility.yul\":6264:6266   */\n      0x40\n        /* \"#utility.yul\":6253:6262   */\n      dup5\n        /* \"#utility.yul\":6249:6267   */\n      add\n        /* \"#utility.yul\":6236:6268   */\n      calldataload\n        /* \"#utility.yul\":6226:6268   */\n      swap1\n      pop\n        /* \"#utility.yul\":5663:6274   */\n      swap3\n      pop\n      swap3\n      pop\n      swap3\n      jump\t// out\n        /* \"#utility.yul\":6502:6802   */\n    tag_643:\n        /* \"#utility.yul\":6555:6558   */\n      0x00\n        /* \"#utility.yul\":6593:6598   */\n      dup2\n        /* \"#utility.yul\":6587:6599   */\n      mload\n        /* \"#utility.yul\":6620:6626   */\n      dup1\n        /* \"#utility.yul\":6615:6618   */\n      dup5\n        /* \"#utility.yul\":6608:6627   */\n      mstore\n        /* \"#utility.yul\":6676:6682   */\n      dup1\n        /* \"#utility.yul\":6669:6673   */\n      0x20\n        /* \"#utility.yul\":6662:6667   */\n      dup5\n        /* \"#utility.yul\":6658:6674   */\n      add\n        /* \"#utility.yul\":6651:6655   */\n      0x20\n        /* \"#utility.yul\":6646:6649   */\n      dup7\n        /* \"#utility.yul\":6642:6656   */\n      add\n        /* \"#utility.yul\":6636:6683   */\n      mcopy\n        /* \"#utility.yul\":6728:6729   */\n      0x00\n        /* \"#utility.yul\":6721:6725   */\n      0x20\n        /* \"#utility.yul\":6712:6718   */\n      dup3\n        /* \"#utility.yul\":6707:6710   */\n      dup7\n        /* \"#utility.yul\":6703:6719   */\n      add\n        /* \"#utility.yul\":6699:6726   */\n      add\n        /* \"#utility.yul\":6692:6730   */\n      mstore\n        /* \"#utility.yul\":6791:6795   */\n      0x20\n        /* \"#utility.yul\":6784:6786   */\n      0x1f\n        /* \"#utility.yul\":6780:6787   */\n      not\n        /* \"#utility.yul\":6775:6777   */\n      0x1f\n        /* \"#utility.yul\":6767:6773   */\n      dup4\n        /* \"#utility.yul\":6763:6778   */\n      add\n        /* \"#utility.yul\":6759:6788   */\n      and\n        /* \"#utility.yul\":6754:6757   */\n      dup6\n        /* \"#utility.yul\":6750:6789   */\n      add\n        /* \"#utility.yul\":6746:6796   */\n      add\n        /* \"#utility.yul\":6739:6796   */\n      swap2\n      pop\n      pop\n        /* \"#utility.yul\":6502:6802   */\n      swap3\n      swap2\n      pop\n      pop\n      jump\t// out\n        /* \"#utility.yul\":6807:7135   */\n    tag_178:\n        /* \"#utility.yul\":6984:6986   */\n      0x40\n        /* \"#utility.yul\":6973:6982   */\n      dup2\n        /* \"#utility.yul\":6966:6987   */\n      mstore\n        /* \"#utility.yul\":6947:6951   */\n      0x00\n        /* \"#utility.yul\":7004:7060   */\n      tag_712\n        /* \"#utility.yul\":7056:7058   */\n      0x40\n        /* \"#utility.yul\":7045:7054   */\n      dup4\n        /* \"#utility.yul\":7041:7059   */\n      add\n        /* \"#utility.yul\":7033:7039   */\n      dup6\n        /* \"#utility.yul\":7004:7060   */\n      tag_643\n      jump\t// in\n    tag_712:\n        /* \"#utility.yul\":6996:7060   */\n      swap1\n      pop\n        /* \"#utility.yul\":7125:7126   */\n      0x01\n        /* \"#utility.yul\":7121:7122   */\n      dup1\n        /* \"#utility.yul\":7116:7119   */\n      0xa0\n        /* \"#utility.yul\":7112:7123   */\n      shl\n        /* \"#utility.yul\":7108:7127   */\n      sub\n        /* \"#utility.yul\":7100:7106   */\n      dup4\n        /* \"#utility.yul\":7096:7128   */\n      and\n        /* \"#utility.yul\":7091:7093   */\n      0x20\n        /* \"#utility.yul\":7080:7089   */\n      dup4\n        /* \"#utility.yul\":7076:7094   */\n      add\n        /* \"#utility.yul\":7069:7129   */\n      mstore\n        /* \"#utility.yul\":6807:7135   */\n      swap4\n      swap3\n      pop\n      pop\n      pop\n      jump\t// out\n        /* \"#utility.yul\":7140:8156   */\n    tag_182:\n        /* \"#utility.yul\":7233:7239   */\n      0x00\n        /* \"#utility.yul\":7241:7247   */\n      dup1\n        /* \"#utility.yul\":7294:7296   */\n      0x40\n        /* \"#utility.yul\":7282:7291   */\n      dup4\n        /* \"#utility.yul\":7273:7280   */\n      dup6\n        /* \"#utility.yul\":7269:7292   */\n      sub\n        /* \"#utility.yul\":7265:7297   */\n      slt\n        /* \"#utility.yul\":7262:7314   */\n      iszero\n      tag_714\n      jumpi\n        /* \"#utility.yul\":7310:7311   */\n      0x00\n        /* \"#utility.yul\":7307:7308   */\n      dup1\n        /* \"#utility.yul\":7300:7312   */\n      revert\n        /* \"#utility.yul\":7262:7314   */\n    tag_714:\n        /* \"#utility.yul\":7350:7359   */\n      dup3\n        /* \"#utility.yul\":7337:7360   */\n      calldataload\n        /* \"#utility.yul\":7379:7397   */\n      0xffffffffffffffff\n        /* \"#utility.yul\":7420:7422   */\n      dup1\n        /* \"#utility.yul\":7412:7418   */\n      dup3\n        /* \"#utility.yul\":7409:7423   */\n      gt\n        /* \"#utility.yul\":7406:7440   */\n      iszero\n      tag_715\n      jumpi\n        /* \"#utility.yul\":7436:7437   */\n      0x00\n        /* \"#utility.yul\":7433:7434   */\n      dup1\n        /* \"#utility.yul\":7426:7438   */\n      revert\n        /* \"#utility.yul\":7406:7440   */\n    tag_715:\n        /* \"#utility.yul\":7474:7480   */\n      dup2\n        /* \"#utility.yul\":7463:7472   */\n      dup6\n        /* \"#utility.yul\":7459:7481   */\n      add\n        /* \"#utility.yul\":7449:7481   */\n      swap2\n      pop\n        /* \"#utility.yul\":7519:7526   */\n      dup6\n        /* \"#utility.yul\":7512:7516   */\n      0x1f\n        /* \"#utility.yul\":7508:7510   */\n      dup4\n        /* \"#utility.yul\":7504:7517   */\n      add\n        /* \"#utility.yul\":7500:7527   */\n      slt\n        /* \"#utility.yul\":7490:7545   */\n      tag_716\n      jumpi\n        /* \"#utility.yul\":7541:7542   */\n      0x00\n        /* \"#utility.yul\":7538:7539   */\n      dup1\n        /* \"#utility.yul\":7531:7543   */\n      revert\n        /* \"#utility.yul\":7490:7545   */\n    tag_716:\n        /* \"#utility.yul\":7577:7579   */\n      dup2\n        /* \"#utility.yul\":7564:7580   */\n      calldataload\n        /* \"#utility.yul\":7599:7603   */\n      0x20\n        /* \"#utility.yul\":7622:7624   */\n      dup3\n        /* \"#utility.yul\":7618:7620   */\n      dup3\n        /* \"#utility.yul\":7615:7625   */\n      gt\n        /* \"#utility.yul\":7612:7648   */\n      iszero\n      tag_718\n      jumpi\n        /* \"#utility.yul\":7628:7646   */\n      tag_718\n      tag_307\n      jump\t// in\n    tag_718:\n        /* \"#utility.yul\":7674:7676   */\n      dup2\n        /* \"#utility.yul\":7671:7672   */\n      0x05\n        /* \"#utility.yul\":7667:7677   */\n      shl\n        /* \"#utility.yul\":7657:7677   */\n      swap3\n      pop\n        /* \"#utility.yul\":7697:7725   */\n      tag_719\n        /* \"#utility.yul\":7721:7723   */\n      dup2\n        /* \"#utility.yul\":7717:7719   */\n      dup5\n        /* \"#utility.yul\":7713:7724   */\n      add\n        /* \"#utility.yul\":7697:7725   */\n      tag_639\n      jump\t// in\n    tag_719:\n        /* \"#utility.yul\":7759:7774   */\n      dup3\n      dup2\n      mstore\n        /* \"#utility.yul\":7829:7840   */\n      swap3\n      dup5\n      add\n        /* \"#utility.yul\":7825:7845   */\n      dup2\n      add\n      swap3\n        /* \"#utility.yul\":7790:7802   */\n      dup2\n      dup2\n      add\n      swap1\n        /* \"#utility.yul\":7857:7876   */\n      dup10\n      dup6\n      gt\n        /* \"#utility.yul\":7854:7893   */\n      iszero\n      tag_720\n      jumpi\n        /* \"#utility.yul\":7889:7890   */\n      0x00\n        /* \"#utility.yul\":7886:7887   */\n      dup1\n        /* \"#utility.yul\":7879:7891   */\n      revert\n        /* \"#utility.yul\":7854:7893   */\n    tag_720:\n        /* \"#utility.yul\":7913:7924   */\n      swap5\n      dup3\n      add\n      swap5\n        /* \"#utility.yul\":7933:8075   */\n    tag_721:\n        /* \"#utility.yul\":7949:7955   */\n      dup5\n        /* \"#utility.yul\":7944:7947   */\n      dup7\n        /* \"#utility.yul\":7941:7956   */\n      lt\n        /* \"#utility.yul\":7933:8075   */\n      iszero\n      tag_723\n      jumpi\n        /* \"#utility.yul\":8015:8032   */\n      dup6\n      calldataload\n        /* \"#utility.yul\":8003:8033   */\n      dup3\n      mstore\n        /* \"#utility.yul\":7966:7978   */\n      swap5\n      dup3\n      add\n      swap5\n        /* \"#utility.yul\":8053:8065   */\n      swap1\n      dup3\n      add\n      swap1\n        /* \"#utility.yul\":7933:8075   */\n      jump(tag_721)\n    tag_723:\n        /* \"#utility.yul\":8094:8099   */\n      swap10\n        /* \"#utility.yul\":8131:8149   */\n      swap8\n      swap1\n      swap2\n      add\n        /* \"#utility.yul\":8118:8150   */\n      calldataload\n      swap8\n      pop\n      pop\n      pop\n      pop\n      pop\n      pop\n      pop\n        /* \"#utility.yul\":7140:8156   */\n      jump\t// out\n        /* \"#utility.yul\":8161:8392   */\n    tag_188:\n        /* \"#utility.yul\":8310:8312   */\n      0x20\n        /* \"#utility.yul\":8299:8308   */\n      dup2\n        /* \"#utility.yul\":8292:8313   */\n      mstore\n        /* \"#utility.yul\":8273:8277   */\n      0x00\n        /* \"#utility.yul\":8330:8386   */\n      tag_621\n        /* \"#utility.yul\":8382:8384   */\n      0x20\n        /* \"#utility.yul\":8371:8380   */\n      dup4\n        /* \"#utility.yul\":8367:8385   */\n      add\n        /* \"#utility.yul\":8359:8365   */\n      dup5\n        /* \"#utility.yul\":8330:8386   */\n      tag_643\n      jump\t// in\n        /* \"#utility.yul\":8397:8987   */\n    tag_202:\n        /* \"#utility.yul\":8686:8692   */\n      dup7\n        /* \"#utility.yul\":8675:8684   */\n      dup2\n        /* \"#utility.yul\":8668:8693   */\n      mstore\n        /* \"#utility.yul\":8729:8732   */\n      0xc0\n        /* \"#utility.yul\":8724:8726   */\n      0x20\n        /* \"#utility.yul\":8713:8722   */\n      dup3\n        /* \"#utility.yul\":8709:8727   */\n      add\n        /* \"#utility.yul\":8702:8733   */\n      mstore\n        /* \"#utility.yul\":8649:8653   */\n      0x00\n        /* \"#utility.yul\":8750:8807   */\n      tag_727\n        /* \"#utility.yul\":8802:8805   */\n      0xc0\n        /* \"#utility.yul\":8791:8800   */\n      dup4\n        /* \"#utility.yul\":8787:8806   */\n      add\n        /* \"#utility.yul\":8779:8785   */\n      dup9\n        /* \"#utility.yul\":8750:8807   */\n      tag_643\n      jump\t// in\n    tag_727:\n        /* \"#utility.yul\":8742:8807   */\n      swap1\n      pop\n        /* \"#utility.yul\":8843:8849   */\n      dup6\n        /* \"#utility.yul\":8838:8840   */\n      0x40\n        /* \"#utility.yul\":8827:8836   */\n      dup4\n        /* \"#utility.yul\":8823:8841   */\n      add\n        /* \"#utility.yul\":8816:8850   */\n      mstore\n        /* \"#utility.yul\":8886:8892   */\n      dup5\n        /* \"#utility.yul\":8881:8883   */\n      0x60\n        /* \"#utility.yul\":8870:8879   */\n      dup4\n        /* \"#utility.yul\":8866:8884   */\n      add\n        /* \"#utility.yul\":8859:8893   */\n      mstore\n        /* \"#utility.yul\":8930:8936   */\n      dup4\n        /* \"#utility.yul\":8924:8927   */\n      0x80\n        /* \"#utility.yul\":8913:8922   */\n      dup4\n        /* \"#utility.yul\":8909:8928   */\n      add\n        /* \"#utility.yul\":8902:8937   */\n      mstore\n        /* \"#utility.yul\":8974:8980   */\n      dup3\n        /* \"#utility.yul\":8968:8971   */\n      0xa0\n        /* \"#utility.yul\":8957:8966   */\n      dup4\n        /* \"#utility.yul\":8953:8972   */\n      add\n        /* \"#utility.yul\":8946:8981   */\n      mstore\n        /* \"#utility.yul\":8397:8987   */\n      swap8\n      swap7\n      pop\n      pop\n      pop\n      pop\n      pop\n      pop\n      pop\n      jump\t// out\n        /* \"#utility.yul\":8992:9246   */\n    tag_206:\n        /* \"#utility.yul\":9060:9066   */\n      0x00\n        /* \"#utility.yul\":9068:9074   */\n      dup1\n        /* \"#utility.yul\":9121:9123   */\n      0x40\n        /* \"#utility.yul\":9109:9118   */\n      dup4\n        /* \"#utility.yul\":9100:9107   */\n      dup6\n        /* \"#utility.yul\":9096:9119   */\n      sub\n        /* \"#utility.yul\":9092:9124   */\n      slt\n        /* \"#utility.yul\":9089:9141   */\n      iszero\n      tag_729\n      jumpi\n        /* \"#utility.yul\":9137:9138   */\n      0x00\n        /* \"#utility.yul\":9134:9135   */\n      dup1\n        /* \"#utility.yul\":9127:9139   */\n      revert\n        /* \"#utility.yul\":9089:9141   */\n    tag_729:\n        /* \"#utility.yul\":9160:9189   */\n      tag_730\n        /* \"#utility.yul\":9179:9188   */\n      dup4\n        /* \"#utility.yul\":9160:9189   */\n      tag_642\n      jump\t// in\n    tag_730:\n        /* \"#utility.yul\":9150:9189   */\n      swap5\n        /* \"#utility.yul\":9236:9238   */\n      0x20\n        /* \"#utility.yul\":9221:9239   */\n      swap4\n      swap1\n      swap4\n      add\n        /* \"#utility.yul\":9208:9240   */\n      calldataload\n      swap4\n      pop\n      pop\n      pop\n        /* \"#utility.yul\":8992:9246   */\n      jump\t// out\n        /* \"#utility.yul\":9251:9810   */\n    tag_209:\n        /* \"#utility.yul\":9498:9501   */\n      0x80\n        /* \"#utility.yul\":9487:9496   */\n      dup2\n        /* \"#utility.yul\":9480:9502   */\n      mstore\n        /* \"#utility.yul\":9461:9465   */\n      0x00\n        /* \"#utility.yul\":9525:9582   */\n      tag_732\n        /* \"#utility.yul\":9577:9580   */\n      0x80\n        /* \"#utility.yul\":9566:9575   */\n      dup4\n        /* \"#utility.yul\":9562:9581   */\n      add\n        /* \"#utility.yul\":9554:9560   */\n      dup8\n        /* \"#utility.yul\":9525:9582   */\n      tag_643\n      jump\t// in\n    tag_732:\n        /* \"#utility.yul\":9630:9639   */\n      dup3\n        /* \"#utility.yul\":9622:9628   */\n      dup2\n        /* \"#utility.yul\":9618:9640   */\n      sub\n        /* \"#utility.yul\":9613:9615   */\n      0x20\n        /* \"#utility.yul\":9602:9611   */\n      dup5\n        /* \"#utility.yul\":9598:9616   */\n      add\n        /* \"#utility.yul\":9591:9641   */\n      mstore\n        /* \"#utility.yul\":9658:9702   */\n      tag_733\n        /* \"#utility.yul\":9695:9701   */\n      dup2\n        /* \"#utility.yul\":9687:9693   */\n      dup8\n        /* \"#utility.yul\":9658:9702   */\n      tag_643\n      jump\t// in\n    tag_733:\n        /* \"#utility.yul\":9733:9735   */\n      0x40\n        /* \"#utility.yul\":9718:9736   */\n      dup5\n      add\n        /* \"#utility.yul\":9711:9745   */\n      swap6\n      swap1\n      swap6\n      mstore\n      pop\n      pop\n        /* \"#utility.yul\":9788:9802   */\n      swap1\n      iszero\n        /* \"#utility.yul\":9781:9803   */\n      iszero\n        /* \"#utility.yul\":9776:9778   */\n      0x60\n        /* \"#utility.yul\":9761:9779   */\n      swap1\n      swap2\n      add\n        /* \"#utility.yul\":9754:9804   */\n      mstore\n        /* \"#utility.yul\":9650:9702   */\n      swap3\n        /* \"#utility.yul\":9251:9810   */\n      swap2\n      pop\n      pop\n      jump\t// out\n        /* \"#utility.yul\":10724:11508   */\n    tag_244:\n        /* \"#utility.yul\":10855:10861   */\n      0x00\n        /* \"#utility.yul\":10863:10869   */\n      dup1\n        /* \"#utility.yul\":10871:10877   */\n      0x00\n        /* \"#utility.yul\":10879:10885   */\n      dup1\n        /* \"#utility.yul\":10887:10893   */\n      0x00\n        /* \"#utility.yul\":10895:10901   */\n      dup1\n        /* \"#utility.yul\":10903:10909   */\n      0x00\n        /* \"#utility.yul\":10911:10917   */\n      dup1\n        /* \"#utility.yul\":10919:10925   */\n      0x00\n        /* \"#utility.yul\":10972:10975   */\n      0x0120\n        /* \"#utility.yul\":10960:10969   */\n      dup11\n        /* \"#utility.yul\":10951:10958   */\n      dup13\n        /* \"#utility.yul\":10947:10970   */\n      sub\n        /* \"#utility.yul\":10943:10976   */\n      slt\n        /* \"#utility.yul\":10940:10993   */\n      iszero\n      tag_737\n      jumpi\n        /* \"#utility.yul\":10989:10990   */\n      0x00\n        /* \"#utility.yul\":10986:10987   */\n      dup1\n        /* \"#utility.yul\":10979:10991   */\n      revert\n        /* \"#utility.yul\":10940:10993   */\n    tag_737:\n        /* \"#utility.yul\":11012:11041   */\n      tag_738\n        /* \"#utility.yul\":11031:11040   */\n      dup11\n        /* \"#utility.yul\":11012:11041   */\n      tag_642\n      jump\t// in\n    tag_738:\n        /* \"#utility.yul\":11002:11041   */\n      swap9\n      pop\n        /* \"#utility.yul\":11060:11098   */\n      tag_739\n        /* \"#utility.yul\":11094:11096   */\n      0x20\n        /* \"#utility.yul\":11083:11092   */\n      dup12\n        /* \"#utility.yul\":11079:11097   */\n      add\n        /* \"#utility.yul\":11060:11098   */\n      tag_642\n      jump\t// in\n    tag_739:\n        /* \"#utility.yul\":11050:11098   */\n      swap8\n      pop\n        /* \"#utility.yul\":11117:11155   */\n      tag_740\n        /* \"#utility.yul\":11151:11153   */\n      0x40\n        /* \"#utility.yul\":11140:11149   */\n      dup12\n        /* \"#utility.yul\":11136:11154   */\n      add\n        /* \"#utility.yul\":11117:11155   */\n      tag_642\n      jump\t// in\n    tag_740:\n        /* \"#utility.yul\":11107:11155   */\n      swap7\n      pop\n        /* \"#utility.yul\":11174:11212   */\n      tag_741\n        /* \"#utility.yul\":11208:11210   */\n      0x60\n        /* \"#utility.yul\":11197:11206   */\n      dup12\n        /* \"#utility.yul\":11193:11211   */\n      add\n        /* \"#utility.yul\":11174:11212   */\n      tag_642\n      jump\t// in\n    tag_741:\n        /* \"#utility.yul\":11164:11212   */\n      swap6\n      pop\n        /* \"#utility.yul\":11231:11270   */\n      tag_742\n        /* \"#utility.yul\":11265:11268   */\n      0x80\n        /* \"#utility.yul\":11254:11263   */\n      dup12\n        /* \"#utility.yul\":11250:11269   */\n      add\n        /* \"#utility.yul\":11231:11270   */\n      tag_642\n      jump\t// in\n    tag_742:\n        /* \"#utility.yul\":11221:11270   */\n      swap5\n      pop\n        /* \"#utility.yul\":11289:11328   */\n      tag_743\n        /* \"#utility.yul\":11323:11326   */\n      0xa0\n        /* \"#utility.yul\":11312:11321   */\n      dup12\n        /* \"#utility.yul\":11308:11327   */\n      add\n        /* \"#utility.yul\":11289:11328   */\n      tag_642\n      jump\t// in\n    tag_743:\n        /* \"#utility.yul\":11279:11328   */\n      swap4\n      pop\n        /* \"#utility.yul\":11347:11386   */\n      tag_744\n        /* \"#utility.yul\":11381:11384   */\n      0xc0\n        /* \"#utility.yul\":11370:11379   */\n      dup12\n        /* \"#utility.yul\":11366:11385   */\n      add\n        /* \"#utility.yul\":11347:11386   */\n      tag_642\n      jump\t// in\n    tag_744:\n        /* \"#utility.yul\":11337:11386   */\n      swap3\n      pop\n        /* \"#utility.yul\":11405:11444   */\n      tag_745\n        /* \"#utility.yul\":11439:11442   */\n      0xe0\n        /* \"#utility.yul\":11428:11437   */\n      dup12\n        /* \"#utility.yul\":11424:11443   */\n      add\n        /* \"#utility.yul\":11405:11444   */\n      tag_642\n      jump\t// in\n    tag_745:\n        /* \"#utility.yul\":11395:11444   */\n      swap2\n      pop\n        /* \"#utility.yul\":11463:11502   */\n      tag_746\n        /* \"#utility.yul\":11497:11500   */\n      0x0100\n        /* \"#utility.yul\":11486:11495   */\n      dup12\n        /* \"#utility.yul\":11482:11501   */\n      add\n        /* \"#utility.yul\":11463:11502   */\n      tag_642\n      jump\t// in\n    tag_746:\n        /* \"#utility.yul\":11453:11502   */\n      swap1\n      pop\n        /* \"#utility.yul\":10724:11508   */\n      swap3\n      swap6\n      swap9\n      pop\n      swap3\n      swap6\n      swap9\n      pop\n      swap3\n      swap6\n      swap9\n      jump\t// out\n        /* \"#utility.yul\":11513:11640   */\n    tag_260:\n        /* \"#utility.yul\":11574:11584   */\n      0x4e487b71\n        /* \"#utility.yul\":11569:11572   */\n      0xe0\n        /* \"#utility.yul\":11565:11585   */\n      shl\n        /* \"#utility.yul\":11562:11563   */\n      0x00\n        /* \"#utility.yul\":11555:11586   */\n      mstore\n        /* \"#utility.yul\":11605:11609   */\n      0x32\n        /* \"#utility.yul\":11602:11603   */\n      0x04\n        /* \"#utility.yul\":11595:11610   */\n      mstore\n        /* \"#utility.yul\":11629:11633   */\n      0x24\n        /* \"#utility.yul\":11626:11627   */\n      0x00\n        /* \"#utility.yul\":11619:11634   */\n      revert\n        /* \"#utility.yul\":11645:11857   */\n    tag_644:\n        /* \"#utility.yul\":11687:11690   */\n      0x00\n        /* \"#utility.yul\":11725:11730   */\n      dup2\n        /* \"#utility.yul\":11719:11731   */\n      mload\n        /* \"#utility.yul\":11769:11775   */\n      dup1\n        /* \"#utility.yul\":11762:11766   */\n      0x20\n        /* \"#utility.yul\":11755:11760   */\n      dup5\n        /* \"#utility.yul\":11751:11767   */\n      add\n        /* \"#utility.yul\":11746:11749   */\n      dup6\n        /* \"#utility.yul\":11740:11776   */\n      mcopy\n        /* \"#utility.yul\":11831:11832   */\n      0x00\n        /* \"#utility.yul\":11795:11811   */\n      swap4\n      add\n        /* \"#utility.yul\":11820:11833   */\n      swap3\n      dup4\n      mstore\n      pop\n        /* \"#utility.yul\":11795:11811   */\n      swap1\n      swap2\n        /* \"#utility.yul\":11645:11857   */\n      swap1\n      pop\n      jump\t// out\n        /* \"#utility.yul\":11862:12054   */\n    tag_263:\n        /* \"#utility.yul\":11993:11996   */\n      0x00\n        /* \"#utility.yul\":12018:12048   */\n      tag_621\n        /* \"#utility.yul\":12044:12047   */\n      dup3\n        /* \"#utility.yul\":12036:12042   */\n      dup5\n        /* \"#utility.yul\":12018:12048   */\n      tag_644\n      jump\t// in\n        /* \"#utility.yul\":12059:12439   */\n    tag_417:\n        /* \"#utility.yul\":12138:12139   */\n      0x01\n        /* \"#utility.yul\":12134:12146   */\n      dup2\n      dup2\n      shr\n      swap1\n        /* \"#utility.yul\":12181:12193   */\n      dup3\n      and\n      dup1\n        /* \"#utility.yul\":12202:12263   */\n      tag_752\n      jumpi\n        /* \"#utility.yul\":12256:12260   */\n      0x7f\n        /* \"#utility.yul\":12248:12254   */\n      dup3\n        /* \"#utility.yul\":12244:12261   */\n      and\n        /* \"#utility.yul\":12234:12261   */\n      swap2\n      pop\n        /* \"#utility.yul\":12202:12263   */\n    tag_752:\n        /* \"#utility.yul\":12309:12311   */\n      0x20\n        /* \"#utility.yul\":12301:12307   */\n      dup3\n        /* \"#utility.yul\":12298:12312   */\n      lt\n        /* \"#utility.yul\":12278:12296   */\n      dup2\n        /* \"#utility.yul\":12275:12313   */\n      sub\n        /* \"#utility.yul\":12272:12433   */\n      tag_753\n      jumpi\n        /* \"#utility.yul\":12355:12365   */\n      0x4e487b71\n        /* \"#utility.yul\":12350:12353   */\n      0xe0\n        /* \"#utility.yul\":12346:12366   */\n      shl\n        /* \"#utility.yul\":12343:12344   */\n      0x00\n        /* \"#utility.yul\":12336:12367   */\n      mstore\n        /* \"#utility.yul\":12390:12394   */\n      0x22\n        /* \"#utility.yul\":12387:12388   */\n      0x04\n        /* \"#utility.yul\":12380:12395   */\n      mstore\n        /* \"#utility.yul\":12418:12422   */\n      0x24\n        /* \"#utility.yul\":12415:12416   */\n      0x00\n        /* \"#utility.yul\":12408:12423   */\n      revert\n        /* \"#utility.yul\":12272:12433   */\n    tag_753:\n      pop\n        /* \"#utility.yul\":12059:12439   */\n      swap2\n      swap1\n      pop\n      jump\t// out\n        /* \"#utility.yul\":12570:13413   */\n    tag_265:\n        /* \"#utility.yul\":12698:12701   */\n      0x00\n        /* \"#utility.yul\":12727:12728   */\n      dup1\n        /* \"#utility.yul\":12760:12766   */\n      dup4\n        /* \"#utility.yul\":12754:12767   */\n      sload\n        /* \"#utility.yul\":12790:12826   */\n      tag_756\n        /* \"#utility.yul\":12816:12825   */\n      dup2\n        /* \"#utility.yul\":12790:12826   */\n      tag_417\n      jump\t// in\n    tag_756:\n        /* \"#utility.yul\":12845:12846   */\n      0x01\n        /* \"#utility.yul\":12862:12879   */\n      dup3\n      dup2\n      and\n        /* \"#utility.yul\":12888:13021   */\n      dup1\n      iszero\n      tag_758\n      jumpi\n        /* \"#utility.yul\":13035:13036   */\n      0x01\n        /* \"#utility.yul\":13030:13388   */\n      dup2\n      eq\n      tag_759\n      jumpi\n        /* \"#utility.yul\":12855:13388   */\n      jump(tag_757)\n        /* \"#utility.yul\":12888:13021   */\n    tag_758:\n      not(0xff)\n        /* \"#utility.yul\":12921:12945   */\n      dup5\n      and\n        /* \"#utility.yul\":12909:12946   */\n      dup8\n      mstore\n        /* \"#utility.yul\":12994:13008   */\n      dup3\n      iszero\n        /* \"#utility.yul\":12987:13009   */\n      iszero\n        /* \"#utility.yul\":12975:13010   */\n      dup4\n      mul\n        /* \"#utility.yul\":12966:13011   */\n      dup8\n      add\n      swap5\n      pop\n        /* \"#utility.yul\":12888:13021   */\n      jump(tag_757)\n        /* \"#utility.yul\":13030:13388   */\n    tag_759:\n        /* \"#utility.yul\":13061:13067   */\n      dup8\n        /* \"#utility.yul\":13058:13059   */\n      0x00\n        /* \"#utility.yul\":13051:13068   */\n      mstore\n        /* \"#utility.yul\":13091:13095   */\n      0x20\n        /* \"#utility.yul\":13136:13140   */\n      dup1\n        /* \"#utility.yul\":13133:13134   */\n      0x00\n        /* \"#utility.yul\":13123:13141   */\n      keccak256\n        /* \"#utility.yul\":13163:13164   */\n      0x00\n        /* \"#utility.yul\":13177:13342   */\n    tag_760:\n        /* \"#utility.yul\":13191:13197   */\n      dup6\n        /* \"#utility.yul\":13188:13189   */\n      dup2\n        /* \"#utility.yul\":13185:13198   */\n      lt\n        /* \"#utility.yul\":13177:13342   */\n      iszero\n      tag_762\n      jumpi\n        /* \"#utility.yul\":13269:13283   */\n      dup2\n      sload\n        /* \"#utility.yul\":13256:13267   */\n      dup11\n      dup3\n      add\n        /* \"#utility.yul\":13249:13284   */\n      mstore\n        /* \"#utility.yul\":13312:13328   */\n      swap1\n      dup5\n      add\n      swap1\n        /* \"#utility.yul\":13206:13216   */\n      dup3\n      add\n        /* \"#utility.yul\":13177:13342   */\n      jump(tag_760)\n    tag_762:\n        /* \"#utility.yul\":13181:13184   */\n      pop\n      pop\n      pop\n        /* \"#utility.yul\":13371:13377   */\n      dup3\n        /* \"#utility.yul\":13366:13369   */\n      dup8\n        /* \"#utility.yul\":13362:13378   */\n      add\n        /* \"#utility.yul\":13355:13378   */\n      swap5\n      pop\n        /* \"#utility.yul\":12855:13388   */\n    tag_757:\n      pop\n        /* \"#utility.yul\":13404:13407   */\n      swap3\n      swap7\n        /* \"#utility.yul\":12570:13413   */\n      swap6\n      pop\n      pop\n      pop\n      pop\n      pop\n      pop\n      jump\t// out\n        /* \"#utility.yul\":13418:13545   */\n    tag_646:\n        /* \"#utility.yul\":13479:13489   */\n      0x4e487b71\n        /* \"#utility.yul\":13474:13477   */\n      0xe0\n        /* \"#utility.yul\":13470:13490   */\n      shl\n        /* \"#utility.yul\":13467:13468   */\n      0x00\n        /* \"#utility.yul\":13460:13491   */\n      mstore\n        /* \"#utility.yul\":13510:13514   */\n      0x11\n        /* \"#utility.yul\":13507:13508   */\n      0x04\n        /* \"#utility.yul\":13500:13515   */\n      mstore\n        /* \"#utility.yul\":13534:13538   */\n      0x24\n        /* \"#utility.yul\":13531:13532   */\n      0x00\n        /* \"#utility.yul\":13524:13539   */\n      revert\n        /* \"#utility.yul\":13550:13675   */\n    tag_269:\n        /* \"#utility.yul\":13615:13624   */\n      dup1\n      dup3\n      add\n        /* \"#utility.yul\":13636:13646   */\n      dup1\n      dup3\n      gt\n        /* \"#utility.yul\":13633:13669   */\n      iszero\n      tag_252\n      jumpi\n        /* \"#utility.yul\":13649:13667   */\n      tag_252\n      tag_646\n      jump\t// in\n        /* \"#utility.yul\":13680:14198   */\n    tag_647:\n        /* \"#utility.yul\":13782:13784   */\n      0x1f\n        /* \"#utility.yul\":13777:13780   */\n      dup3\n        /* \"#utility.yul\":13774:13785   */\n      gt\n        /* \"#utility.yul\":13771:14192   */\n      iszero\n      tag_294\n      jumpi\n        /* \"#utility.yul\":13818:13823   */\n      dup1\n        /* \"#utility.yul\":13815:13816   */\n      0x00\n        /* \"#utility.yul\":13808:13824   */\n      mstore\n        /* \"#utility.yul\":13862:13866   */\n      0x20\n        /* \"#utility.yul\":13859:13860   */\n      0x00\n        /* \"#utility.yul\":13849:13867   */\n      keccak256\n        /* \"#utility.yul\":13932:13934   */\n      0x1f\n        /* \"#utility.yul\":13920:13930   */\n      dup5\n        /* \"#utility.yul\":13916:13935   */\n      add\n        /* \"#utility.yul\":13913:13914   */\n      0x05\n        /* \"#utility.yul\":13909:13936   */\n      shr\n        /* \"#utility.yul\":13903:13907   */\n      dup2\n        /* \"#utility.yul\":13899:13937   */\n      add\n        /* \"#utility.yul\":13968:13972   */\n      0x20\n        /* \"#utility.yul\":13956:13966   */\n      dup6\n        /* \"#utility.yul\":13953:13973   */\n      lt\n        /* \"#utility.yul\":13950:13997   */\n      iszero\n      tag_769\n      jumpi\n      pop\n        /* \"#utility.yul\":13991:13995   */\n      dup1\n        /* \"#utility.yul\":13950:13997   */\n    tag_769:\n        /* \"#utility.yul\":14046:14048   */\n      0x1f\n        /* \"#utility.yul\":14041:14044   */\n      dup5\n        /* \"#utility.yul\":14037:14049   */\n      add\n        /* \"#utility.yul\":14034:14035   */\n      0x05\n        /* \"#utility.yul\":14030:14050   */\n      shr\n        /* \"#utility.yul\":14024:14028   */\n      dup3\n        /* \"#utility.yul\":14020:14051   */\n      add\n        /* \"#utility.yul\":14010:14051   */\n      swap2\n      pop\n        /* \"#utility.yul\":14101:14182   */\n    tag_770:\n        /* \"#utility.yul\":14119:14121   */\n      dup2\n        /* \"#utility.yul\":14112:14117   */\n      dup2\n        /* \"#utility.yul\":14109:14122   */\n      lt\n        /* \"#utility.yul\":14101:14182   */\n      iszero\n      tag_772\n      jumpi\n        /* \"#utility.yul\":14178:14179   */\n      0x00\n        /* \"#utility.yul\":14164:14180   */\n      dup2\n      sstore\n        /* \"#utility.yul\":14145:14146   */\n      0x01\n        /* \"#utility.yul\":14134:14147   */\n      add\n        /* \"#utility.yul\":14101:14182   */\n      jump(tag_770)\n    tag_772:\n        /* \"#utility.yul\":14105:14108   */\n      pop\n      pop\n        /* \"#utility.yul\":13680:14198   */\n      pop\n      pop\n      pop\n      jump\t// out\n        /* \"#utility.yul\":14374:15719   */\n    tag_285:\n        /* \"#utility.yul\":14500:14503   */\n      dup2\n        /* \"#utility.yul\":14494:14504   */\n      mload\n        /* \"#utility.yul\":14527:14545   */\n      0xffffffffffffffff\n        /* \"#utility.yul\":14519:14525   */\n      dup2\n        /* \"#utility.yul\":14516:14546   */\n      gt\n        /* \"#utility.yul\":14513:14569   */\n      iszero\n      tag_776\n      jumpi\n        /* \"#utility.yul\":14549:14567   */\n      tag_776\n      tag_307\n      jump\t// in\n    tag_776:\n        /* \"#utility.yul\":14578:14675   */\n      tag_777\n        /* \"#utility.yul\":14668:14674   */\n      dup2\n        /* \"#utility.yul\":14628:14666   */\n      tag_778\n        /* \"#utility.yul\":14660:14664   */\n      dup5\n        /* \"#utility.yul\":14654:14665   */\n      sload\n        /* \"#utility.yul\":14628:14666   */\n      tag_417\n      jump\t// in\n    tag_778:\n        /* \"#utility.yul\":14622:14626   */\n      dup5\n        /* \"#utility.yul\":14578:14675   */\n      tag_647\n      jump\t// in\n    tag_777:\n        /* \"#utility.yul\":14730:14734   */\n      0x20\n      dup1\n        /* \"#utility.yul\":14787:14789   */\n      0x1f\n        /* \"#utility.yul\":14776:14790   */\n      dup4\n      gt\n        /* \"#utility.yul\":14804:14805   */\n      0x01\n        /* \"#utility.yul\":14799:15462   */\n      dup2\n      eq\n      tag_780\n      jumpi\n        /* \"#utility.yul\":15506:15507   */\n      0x00\n        /* \"#utility.yul\":15523:15529   */\n      dup5\n        /* \"#utility.yul\":15520:15609   */\n      iszero\n      tag_781\n      jumpi\n      pop\n        /* \"#utility.yul\":15575:15594   */\n      dup6\n      dup4\n      add\n        /* \"#utility.yul\":15569:15595   */\n      mload\n        /* \"#utility.yul\":15520:15609   */\n    tag_781:\n      not(0x00)\n        /* \"#utility.yul\":14331:14332   */\n      0x03\n        /* \"#utility.yul\":14327:14338   */\n      dup7\n      swap1\n      shl\n        /* \"#utility.yul\":14323:14347   */\n      shr\n        /* \"#utility.yul\":14319:14348   */\n      not\n        /* \"#utility.yul\":14309:14349   */\n      and\n        /* \"#utility.yul\":14355:14356   */\n      0x01\n        /* \"#utility.yul\":14351:14362   */\n      dup6\n      swap1\n      shl\n        /* \"#utility.yul\":14306:14363   */\n      or\n        /* \"#utility.yul\":15622:15703   */\n      dup6\n      sstore\n        /* \"#utility.yul\":14769:15713   */\n      jump(tag_779)\n        /* \"#utility.yul\":14799:15462   */\n    tag_780:\n        /* \"#utility.yul\":12517:12518   */\n      0x00\n        /* \"#utility.yul\":12510:12524   */\n      dup6\n      dup2\n      mstore\n        /* \"#utility.yul\":12554:12558   */\n      0x20\n        /* \"#utility.yul\":12541:12559   */\n      dup2\n      keccak256\n      not(0x1f)\n        /* \"#utility.yul\":14835:14855   */\n      dup7\n      and\n      swap2\n        /* \"#utility.yul\":14953:15189   */\n    tag_784:\n        /* \"#utility.yul\":14967:14974   */\n      dup3\n        /* \"#utility.yul\":14964:14965   */\n      dup2\n        /* \"#utility.yul\":14961:14975   */\n      lt\n        /* \"#utility.yul\":14953:15189   */\n      iszero\n      tag_786\n      jumpi\n        /* \"#utility.yul\":15056:15075   */\n      dup9\n      dup7\n      add\n        /* \"#utility.yul\":15050:15076   */\n      mload\n        /* \"#utility.yul\":15035:15077   */\n      dup3\n      sstore\n        /* \"#utility.yul\":15148:15175   */\n      swap5\n      dup5\n      add\n      swap5\n        /* \"#utility.yul\":15116:15117   */\n      0x01\n        /* \"#utility.yul\":15104:15118   */\n      swap1\n      swap2\n      add\n      swap1\n        /* \"#utility.yul\":14983:15002   */\n      dup5\n      add\n        /* \"#utility.yul\":14953:15189   */\n      jump(tag_784)\n    tag_786:\n        /* \"#utility.yul\":14957:14960   */\n      pop\n        /* \"#utility.yul\":15217:15223   */\n      dup6\n        /* \"#utility.yul\":15208:15215   */\n      dup3\n        /* \"#utility.yul\":15205:15224   */\n      lt\n        /* \"#utility.yul\":15202:15403   */\n      iszero\n      tag_787\n      jumpi\n        /* \"#utility.yul\":15278:15297   */\n      dup8\n      dup6\n      add\n        /* \"#utility.yul\":15272:15298   */\n      mload\n      not(0x00)\n        /* \"#utility.yul\":15361:15362   */\n      0x03\n        /* \"#utility.yul\":15357:15371   */\n      dup9\n      swap1\n      shl\n        /* \"#utility.yul\":15373:15376   */\n      0xf8\n        /* \"#utility.yul\":15353:15377   */\n      and\n        /* \"#utility.yul\":15349:15386   */\n      shr\n        /* \"#utility.yul\":15345:15387   */\n      not\n        /* \"#utility.yul\":15330:15388   */\n      and\n        /* \"#utility.yul\":15315:15389   */\n      dup2\n      sstore\n        /* \"#utility.yul\":15202:15403   */\n    tag_787:\n      pop\n      pop\n        /* \"#utility.yul\":15449:15450   */\n      0x01\n        /* \"#utility.yul\":15440:15446   */\n      dup5\n        /* \"#utility.yul\":15437:15438   */\n      0x01\n        /* \"#utility.yul\":15433:15447   */\n      shl\n        /* \"#utility.yul\":15429:15451   */\n      add\n        /* \"#utility.yul\":15423:15427   */\n      dup6\n        /* \"#utility.yul\":15416:15452   */\n      sstore\n        /* \"#utility.yul\":14769:15713   */\n    tag_779:\n      pop\n      pop\n      pop\n      pop\n        /* \"#utility.yul\":14374:15719   */\n      pop\n      pop\n      jump\t// out\n        /* \"#utility.yul\":15724:16026   */\n    tag_287:\n        /* \"#utility.yul\":15901:15907   */\n      dup3\n        /* \"#utility.yul\":15890:15899   */\n      dup2\n        /* \"#utility.yul\":15883:15908   */\n      mstore\n        /* \"#utility.yul\":15944:15946   */\n      0x40\n        /* \"#utility.yul\":15939:15941   */\n      0x20\n        /* \"#utility.yul\":15928:15937   */\n      dup3\n        /* \"#utility.yul\":15924:15942   */\n      add\n        /* \"#utility.yul\":15917:15947   */\n      mstore\n        /* \"#utility.yul\":15864:15868   */\n      0x00\n        /* \"#utility.yul\":15964:16020   */\n      tag_670\n        /* \"#utility.yul\":16016:16018   */\n      0x40\n        /* \"#utility.yul\":16005:16014   */\n      dup4\n        /* \"#utility.yul\":16001:16019   */\n      add\n        /* \"#utility.yul\":15993:15999   */\n      dup5\n        /* \"#utility.yul\":15964:16020   */\n      tag_643\n      jump\t// in\n        /* \"#utility.yul\":16031:16166   */\n    tag_289:\n        /* \"#utility.yul\":16070:16073   */\n      0x00\n        /* \"#utility.yul\":16091:16108   */\n      0x01\n      dup3\n      add\n        /* \"#utility.yul\":16088:16131   */\n      tag_792\n      jumpi\n        /* \"#utility.yul\":16111:16129   */\n      tag_792\n      tag_646\n      jump\t// in\n    tag_792:\n      pop\n        /* \"#utility.yul\":16158:16159   */\n      0x01\n        /* \"#utility.yul\":16147:16160   */\n      add\n      swap1\n        /* \"#utility.yul\":16031:16166   */\n      jump\t// out\n        /* \"#utility.yul\":17621:17749   */\n    tag_391:\n        /* \"#utility.yul\":17688:17697   */\n      dup2\n      dup2\n      sub\n        /* \"#utility.yul\":17709:17720   */\n      dup2\n      dup2\n      gt\n        /* \"#utility.yul\":17706:17743   */\n      iszero\n      tag_252\n      jumpi\n        /* \"#utility.yul\":17723:17741   */\n      tag_252\n      tag_646\n      jump\t// in\n        /* \"#utility.yul\":17754:17881   */\n    tag_400:\n        /* \"#utility.yul\":17815:17825   */\n      0x4e487b71\n        /* \"#utility.yul\":17810:17813   */\n      0xe0\n        /* \"#utility.yul\":17806:17826   */\n      shl\n        /* \"#utility.yul\":17803:17804   */\n      0x00\n        /* \"#utility.yul\":17796:17827   */\n      mstore\n        /* \"#utility.yul\":17846:17850   */\n      0x31\n        /* \"#utility.yul\":17843:17844   */\n      0x04\n        /* \"#utility.yul\":17836:17851   */\n      mstore\n        /* \"#utility.yul\":17870:17874   */\n      0x24\n        /* \"#utility.yul\":17867:17868   */\n      0x00\n        /* \"#utility.yul\":17860:17875   */\n      revert\n        /* \"#utility.yul\":19318:19502   */\n    tag_535:\n        /* \"#utility.yul\":19388:19394   */\n      0x00\n        /* \"#utility.yul\":19441:19443   */\n      0x20\n        /* \"#utility.yul\":19429:19438   */\n      dup3\n        /* \"#utility.yul\":19420:19427   */\n      dup5\n        /* \"#utility.yul\":19416:19439   */\n      sub\n        /* \"#utility.yul\":19412:19444   */\n      slt\n        /* \"#utility.yul\":19409:19461   */\n      iszero\n      tag_807\n      jumpi\n        /* \"#utility.yul\":19457:19458   */\n      0x00\n        /* \"#utility.yul\":19454:19455   */\n      dup1\n        /* \"#utility.yul\":19447:19459   */\n      revert\n        /* \"#utility.yul\":19409:19461   */\n    tag_807:\n      pop\n        /* \"#utility.yul\":19480:19496   */\n      mload\n      swap2\n        /* \"#utility.yul\":19318:19502   */\n      swap1\n      pop\n      jump\t// out\n    stop\n    data_3059375685003c5c33343043cb51f6c6b03e849d5b2f19339e935f8b505d9fe3 9b7946abd96dccbe6cfc6cc2c13300ab429d93e16fa72dc459eeccda73817f08\n    data_75b20eef8615de99c108b05f0dbda081c91897128caa336d75dffb97c4132b4d 360894a13ba1a3210667c828492db98dca3e2076cc3735a920a3ca505d382bbc\n    data_9b87106a812d214d41ad9b68a21119e2948eaaf1040375c939ec808b8862455c 65d7a28e3265b37a6474929f336521b332c1681b933f6cb9f3376673440d862a\n    data_b3da67d1b252aeab7c8063542d95e75f82a5307a82535949bc38f7cf7ba8897f 02dd7bc7dec4dceedda775e58dd541e08a116c6c53815c0bd028192f7b626800\n    data_c0c65a3718f3702d917c44106b91645b509d2e2d0979b70495c3babce192339f cd5ed15c6e187e77e9aee88184c21f4f2182ab5827cb3b7e07fbedcd63f03300\n\n    auxdata: 0xa2646970667358221220a380f93995c55f9003baa58abdf7f5f3bc929d362a7e3d83ff901d66628b1c5f64736f6c63430008190033\n}\n",
				"bytecode": {
					"linkReferences": {},
					"object": "60a06040523060805260016006819055600755348015601c575f80fd5b50608051612b606100435f395f8181611d1c01528181611d450152611ea80152612b605ff3fe608060405260043610610249575f3560e01c80638a13eea711610134578063bfb231d2116100b3578063e551ba4b11610078578063e551ba4b1461077b578063e63ab1e91461079a578063ee99205c146107ba578063f4e0d9ac146107d9578063f5e95acb146107f8578063f72c0d8b14610817575f80fd5b8063bfb231d214610646578063d3dcff7c14610677578063d547741f146106a6578063d836fc6f146106c5578063e2eb41ff146106e4575f80fd5b8063a75859e1116100f9578063a75859e11461057e578063a9834b67146105ab578063ad3cb1cc146105ca578063b001f61814610607578063be22d27d14610626575f80fd5b80638a13eea7146104f057806391d148541461050e578063965afa891461052d5780639a03d9a31461054c578063a217fddf1461056b575f80fd5b806341bec0d2116101cb57806352d1902d1161019057806352d1902d146104485780635c975abb1461045c5780635f2d6bcd1461047f5780636f347a781461049e5780637309cbbd146104bd5780638456cb59146104dc575f80fd5b806341bec0d2146103aa578063443c227c146103c95780634a7ffcbc146103f75780634f1ef286146104165780634fa4a1bb14610429575f80fd5b80632f2ff15d116102115780632f2ff15d1461032557806331fee8be1461034457806336568abe146103635780633f4ba83a146103825780633fa9fcf814610396575f80fd5b806301ffc9a71461024d57806302eec5681461028157806317435e1a146102b857806321f42268146102d9578063248a9ca3146102f8575b5f80fd5b348015610258575f80fd5b5061026c6102673660046122c8565b61084a565b60405190151581526020015b60405180910390f35b34801561028c575f80fd5b506005546102a0906001600160a01b031681565b6040516001600160a01b039091168152602001610278565b3480156102c3575f80fd5b506102d76102d23660046123a7565b610880565b005b3480156102e4575f80fd5b506002546102a0906001600160a01b031681565b348015610303575f80fd5b506103176103123660046123e1565b6109b4565b604051908152602001610278565b348015610330575f80fd5b506102d761033f366004612413565b6109d4565b34801561034f575f80fd5b506102d761035e36600461243d565b6109f6565b34801561036e575f80fd5b506102d761037d366004612413565b610ae7565b34801561038d575f80fd5b506102d7610b1f565b3480156103a1575f80fd5b506102d7610b41565b3480156103b5575f80fd5b506102d76103c4366004612495565b610d10565b3480156103d4575f80fd5b506103176103e33660046123e1565b600d6020525f908152604090206001015481565b348015610402575f80fd5b506003546102a0906001600160a01b031681565b6102d76104243660046124ae565b610d49565b348015610434575f80fd5b506102d761044336600461250c565b610d64565b348015610453575f80fd5b50610317610f6a565b348015610467575f80fd5b505f80516020612b0b8339815191525460ff1661026c565b34801561048a575f80fd5b506001546102a0906001600160a01b031681565b3480156104a9575f80fd5b506102d76104b836600461254e565b610f85565b3480156104c8575f80fd5b506102d76104d73660046123e1565b61102f565b3480156104e7575f80fd5b506102d761134e565b3480156104fb575f80fd5b505f546102a0906001600160a01b031681565b348015610519575f80fd5b5061026c610528366004612413565b61136d565b348015610538575f80fd5b506102d7610547366004612495565b6113a3565b348015610557575f80fd5b506102d7610566366004612495565b6113dd565b348015610576575f80fd5b506103175f81565b348015610589575f80fd5b5061059d610598366004612495565b611417565b6040516102789291906125e4565b3480156105b6575f80fd5b506102d76105c536600461260d565b6114c1565b3480156105d5575f80fd5b506105fa604051806040016040528060058152602001640352e302e360dc1b81525081565b60405161027891906126b4565b348015610612575f80fd5b506102d7610621366004612495565b611571565b348015610631575f80fd5b506103175f80516020612a8b83398151915281565b348015610651575f80fd5b506106656106603660046123e1565b6115ab565b604051610278969594939291906126c6565b348015610682575f80fd5b50610696610691366004612703565b611665565b604051610278949392919061272b565b3480156106b1575f80fd5b506102d76106c0366004612413565b6117bb565b3480156106d0575f80fd5b506102d76106df366004612495565b6117d7565b3480156106ef575f80fd5b506107406106fe366004612495565b60096020525f90815260409020805460018201546002830154600384015460048501546005860154600687015460079097015495969495939492939192909188565b604080519889526020890197909752958701949094526060860192909252608085015260a084015260c083015260e082015261010001610278565b348015610786575f80fd5b506102d76107953660046123a7565b611811565b3480156107a5575f80fd5b506103175f80516020612acb83398151915281565b3480156107c5575f80fd5b506004546102a0906001600160a01b031681565b3480156107e4575f80fd5b506102d76107f3366004612495565b611968565b348015610803575f80fd5b506102d7610812366004612768565b6119a2565b348015610822575f80fd5b506103177f189ab7a9244df0848122154315af71fe140f3db0fe014031783b0946b8c9d2e381565b5f6001600160e01b03198216637965db0b60e01b148061087a57506301ffc9a760e01b6001600160e01b03198316145b92915050565b5f5b335f908152600a60205260409020548110156109b057335f908152600a602052604081208054839081106108b8576108b861280a565b905f5260205f2090600402019050826040516020016108d79190612835565b60408051601f19818403018152908290528051602091820120916108fd91849101612878565b604051602081830303815290604052805190602001201480156109255750600381015460ff16155b156109a75760038101805460ff191660019081179091556002820154335f9081526009602052604081209092018054919290916109639084906128fe565b909155505060405133907fbe21664565742a9f42cbb6d005f92db59c7bcad35b12ef5b57b79e75676b247a9061099a9086906126b4565b60405180910390a2505050565b50600101610882565b5050565b5f9081525f80516020612aeb833981519152602052604090206001015490565b6109dd826109b4565b6109e681611b8e565b6109f08383611b98565b50505050565b5f80516020612a8b833981519152610a0d81611b8e565b6040805160c08101825260065480825260208083018a81528385018a9052606084018990526080840188905260a084018790525f92835260089091529290208151815591519091906001820190610a64908261295c565b5060408201518160020155606082015181600301556080820151816004015560a082015181600501559050507f78d68ba0e8c23b92e7c700d99efed2719520cbd4af845b2c03ae251f9cdf3d5260065487604051610ac3929190612a1c565b60405180910390a160068054905f610ada83612a34565b9190505550505050505050565b6001600160a01b0381163314610b105760405163334bd91960e11b815260040160405180910390fd5b610b1a8282611c39565b505050565b5f80516020612acb833981519152610b3681611b8e565b610b3e611cb2565b50565b335f9081526009602052604090205415610b9a5760405162461bcd60e51b8152602060048201526015602482015274506c6179657220616c72656164792065786973747360581b60448201526064015b60405180910390fd5b604051806101400160405280600181526020015f81526020016064815260200160328152602001600a81526020016005815260200160038152602001600281526020015f67ffffffffffffffff811115610bf657610bf66122ef565b604051908082528060200260200182016040528015610c1f578160200160208202803683370190505b5081526020015f604051908082528060200260200182016040528015610c4f578160200160208202803683370190505b509052335f9081526009602090815260409182902083518155838201516001820155918301516002830155606083015160038301556080830151600483015560a0830151600583015560c0830151600683015560e083015160078301556101008301518051610cc49260088501920190612218565b506101208201518051610ce1916009840191602090910190612218565b50506040513391507fb4cca19a27ce42915c3cee0cee28fc5d90969ee49f09ec71659546a63b5f7bc0905f90a2565b5f80516020612a8b833981519152610d2781611b8e565b505f80546001600160a01b0319166001600160a01b0392909216919091179055565b610d51611d11565b610d5a82611db7565b6109b08282611de1565b5f80516020612a8b833981519152610d7b81611b8e565b5f6001600160a01b0316600c84604051610d959190612835565b908152604051908190036020019020546001600160a01b031614610df25760405162461bcd60e51b81526020600482015260146024820152734775696c6420616c72656164792065786973747360601b6044820152606401610b91565b604080516060810182528481526001600160a01b0384166020820152815160018082528184018452919283019181602001602082028036833750505090526001600160a01b0383165f908152600b6020526040902081518190610e55908261295c565b506020828101516001830180546001600160a01b0319166001600160a01b0390921691909117905560408301518051610e949260028501920190612261565b5050506001600160a01b0382165f908152600b602052604081206002018054849290610ec257610ec261280a565b905f5260205f20015f6101000a8154816001600160a01b0302191690836001600160a01b0316021790555081600c84604051610efe9190612835565b90815260405190819003602001812080546001600160a01b03939093166001600160a01b0319909316929092179091557f072208535a97b2e307167838c66aacd47f8de3a2cb92bc2ddb2b2b52009c9fd590610f5d90859085906125e4565b60405180910390a1505050565b5f610f73611e9d565b505f80516020612aab83398151915290565b5f80516020612a8b833981519152610f9c81611b8e565b335f908152600a602090815260408083208151608081018352888152808401889052918201869052606082018490528054600181018255908452919092208251600490920201908190610fef908261295c565b5060208201516001820190611004908261295c565b50604082015160028201556060909101516003909101805460ff191691151591909117905550505050565b5f818152600d6020908152604080832081518154606094810282018501845292810183815290939192849284919084018282801561108a57602002820191905f5260205f20905b815481526020019060010190808311611076575b5050505050815260200160018201548152505090505f815f015151116110e35760405162461bcd60e51b815260206004820152600e60248201526d496e76616c69642072656369706560901b6044820152606401610b91565b5f5b8151518110156111e4575f805b335f9081526009602052604090206008015481101561117d57835180518490811061111f5761111f61280a565b602002602001015160095f336001600160a01b03166001600160a01b031681526020019081526020015f20600801828154811061115e5761115e61280a565b905f5260205f20015403611175576001915061117d565b6001016110f2565b50806111db5760405162461bcd60e51b815260206004820152602760248201527f506c6179657220646f6573206e6f74206861766520616c6c207265717569726560448201526664206974656d7360c81b6064820152608401610b91565b506001016110e5565b505f5b815151811015611322575f5b335f908152600960205260409020600801548110156113195782518051839081106112205761122061280a565b602002602001015160095f336001600160a01b03166001600160a01b031681526020019081526020015f20600801828154811061125f5761125f61280a565b905f5260205f2001540361131157335f908152600960205260409020600801805461128c90600190612a4c565b8154811061129c5761129c61280a565b5f918252602080832090910154338352600990915260409091206008018054839081106112cb576112cb61280a565b5f9182526020808320909101929092553381526009909152604090206008018054806112f9576112f9612a5f565b600190038181905f5260205f20015f90559055611319565b6001016111f3565b506001016111e7565b50335f908152600960209081526040822092810151600890930180546001810182559083529120015550565b5f80516020612acb83398151915261136581611b8e565b610b3e611ee6565b5f9182525f80516020612aeb833981519152602090815260408084206001600160a01b0393909316845291905290205460ff1690565b5f80516020612a8b8339815191526113ba81611b8e565b50600380546001600160a01b0319166001600160a01b0392909216919091179055565b5f80516020612a8b8339815191526113f481611b8e565b50600180546001600160a01b0319166001600160a01b0392909216919091179055565b600b6020525f908152604090208054819061143190612840565b80601f016020809104026020016040519081016040528092919081815260200182805461145d90612840565b80156114a85780601f1061147f576101008083540402835291602001916114a8565b820191905f5260205f20905b81548152906001019060200180831161148b57829003601f168201915b505050600190930154919250506001600160a01b031682565b5f80516020612a8b8339815191526114d881611b8e565b60408051808201825284815260208082018590526007545f908152600d82529290922081518051929391926115109284920190612218565b50602091820151600190910155600754604080519182529181018490527f9becfd2b1fc8127387c5b0002a6cbc8382e6c8fb9f76dfd6cfd92cbe94383d0e910160405180910390a160078054905f61156783612a34565b9190505550505050565b5f80516020612a8b83398151915261158881611b8e565b50600580546001600160a01b0319166001600160a01b0392909216919091179055565b60086020525f9081526040902080546001820180549192916115cc90612840565b80601f01602080910402602001604051908101604052809291908181526020018280546115f890612840565b80156116435780601f1061161a57610100808354040283529160200191611643565b820191905f5260205f20905b81548152906001019060200180831161162657829003601f168201915b5050505050908060020154908060030154908060040154908060050154905086565b600a602052815f5260405f20818154811061167e575f80fd5b905f5260205f2090600402015f9150915050805f01805461169e90612840565b80601f01602080910402602001604051908101604052809291908181526020018280546116ca90612840565b80156117155780601f106116ec57610100808354040283529160200191611715565b820191905f5260205f20905b8154815290600101906020018083116116f857829003601f168201915b50505050509080600101805461172a90612840565b80601f016020809104026020016040519081016040528092919081815260200182805461175690612840565b80156117a15780601f10611778576101008083540402835291602001916117a1565b820191905f5260205f20905b81548152906001019060200180831161178457829003601f168201915b50505050600283015460039093015491929160ff16905084565b6117c4826109b4565b6117cd81611b8e565b6109f08383611c39565b5f80516020612a8b8339815191526117ee81611b8e565b50600280546001600160a01b0319166001600160a01b0392909216919091179055565b5f600c826040516118229190612835565b908152604051908190036020019020546001600160a01b03169050806118815760405162461bcd60e51b815260206004820152601460248201527311dd5a5b1908191bd95cc81b9bdd08195e1a5cdd60621b6044820152606401610b91565b6001600160a01b0381165f908152600b60205260408120905b600282015481101561193e57336001600160a01b03168260020182815481106118c5576118c561280a565b5f918252602090912001546001600160a01b0316036119365760405162461bcd60e51b815260206004820152602760248201527f53656e64657220697320616c72656164792061206d656d626572206f66207468604482015266194819dd5a5b1960ca1b6064820152608401610b91565b60010161189a565b5060020180546001810182555f91825260209091200180546001600160a01b031916331790555050565b5f80516020612a8b83398151915261197f81611b8e565b50600480546001600160a01b0319166001600160a01b0392909216919091179055565b7ff0c57e16840df040f15088dc2f81fe391c3923bec73e23a9662efc9c229c6a008054600160401b810460ff16159067ffffffffffffffff165f811580156119e75750825b90505f8267ffffffffffffffff166001148015611a035750303b155b905081158015611a11575080155b15611a2f5760405163f92ee8a960e01b815260040160405180910390fd5b845467ffffffffffffffff191660011785558315611a5957845460ff60401b1916600160401b1785555b611a61611f2e565b611a69611f3e565b611a71611f3e565b611a7b5f8f611b98565b50611a935f80516020612acb8339815191528e611b98565b50611abe7f189ab7a9244df0848122154315af71fe140f3db0fe014031783b0946b8c9d2e38d611b98565b50611ad65f80516020612a8b8339815191528f611b98565b505f80546001600160a01b03199081166001600160a01b038e8116919091179092556001805482168d84161790556002805482168c84161790556003805482168b84161790556004805482168a8416179055600580549091169188169190911790558315611b7e57845460ff60401b19168555604051600181527fc7f505b2f371ae2175ee4913f4499e1f2633a7b5936321eed1cdaeb6115181d29060200160405180910390a15b5050505050505050505050505050565b610b3e8133611f46565b5f5f80516020612aeb833981519152611bb1848461136d565b611c30575f848152602082815260408083206001600160a01b03871684529091529020805460ff19166001179055611be63390565b6001600160a01b0316836001600160a01b0316857f2f8788117e7eff1d82e926ec794901d17c78024a50270940304540a733656f0d60405160405180910390a4600191505061087a565b5f91505061087a565b5f5f80516020612aeb833981519152611c52848461136d565b15611c30575f848152602082815260408083206001600160a01b0387168085529252808320805460ff1916905551339287917ff6391f5c32d9c69d2a47ea670b442974b53935d1edc7fd64eb21e047a839171b9190a4600191505061087a565b611cba611f7f565b5f80516020612b0b833981519152805460ff191681557f5db9ee0a495bf2e6ff9c91a7834c1ba4fdd244a5e8aa4e537bd38aeae4b073aa335b6040516001600160a01b03909116815260200160405180910390a150565b306001600160a01b037f0000000000000000000000000000000000000000000000000000000000000000161480611d9757507f00000000000000000000000000000000000000000000000000000000000000006001600160a01b0316611d8b5f80516020612aab833981519152546001600160a01b031690565b6001600160a01b031614155b15611db55760405163703e46dd60e11b815260040160405180910390fd5b565b7f189ab7a9244df0848122154315af71fe140f3db0fe014031783b0946b8c9d2e36109b081611b8e565b816001600160a01b03166352d1902d6040518163ffffffff1660e01b8152600401602060405180830381865afa925050508015611e3b575060408051601f3d908101601f19168201909252611e3891810190612a73565b60015b611e6357604051634c9c8ce360e01b81526001600160a01b0383166004820152602401610b91565b5f80516020612aab8339815191528114611e9357604051632a87526960e21b815260048101829052602401610b91565b610b1a8383611fae565b306001600160a01b037f00000000000000000000000000000000000000000000000000000000000000001614611db55760405163703e46dd60e11b815260040160405180910390fd5b611eee612003565b5f80516020612b0b833981519152805460ff191660011781557f62e78cea01bee320cd4e420270b5ea74000d11b0c9f74754ebdbfc544b05a25833611cf3565b611f36612033565b611db561207c565b611db5612033565b611f50828261136d565b6109b05760405163e2517d3f60e01b81526001600160a01b038216600482015260248101839052604401610b91565b5f80516020612b0b8339815191525460ff16611db557604051638dfc202b60e01b815260040160405180910390fd5b611fb78261209c565b6040516001600160a01b038316907fbc7cd75a20ee27fd9adebab32041f755214dbc6bffa90cc0225b39da2e5c2d3b905f90a2805115611ffb57610b1a82826120ff565b6109b0612171565b5f80516020612b0b8339815191525460ff1615611db55760405163d93c066560e01b815260040160405180910390fd5b7ff0c57e16840df040f15088dc2f81fe391c3923bec73e23a9662efc9c229c6a0054600160401b900460ff16611db557604051631afcd79f60e31b815260040160405180910390fd5b612084612033565b5f80516020612b0b833981519152805460ff19169055565b806001600160a01b03163b5f036120d157604051634c9c8ce360e01b81526001600160a01b0382166004820152602401610b91565b5f80516020612aab83398151915280546001600160a01b0319166001600160a01b0392909216919091179055565b60605f80846001600160a01b03168460405161211b9190612835565b5f60405180830381855af49150503d805f8114612153576040519150601f19603f3d011682016040523d82523d5f602084013e612158565b606091505b5091509150612168858383612190565b95945050505050565b3415611db55760405163b398979f60e01b815260040160405180910390fd5b6060826121a5576121a0826121ef565b6121e8565b81511580156121bc57506001600160a01b0384163b155b156121e557604051639996b31560e01b81526001600160a01b0385166004820152602401610b91565b50805b9392505050565b8051156121ff5780518082602001fd5b604051630a12f52160e11b815260040160405180910390fd5b828054828255905f5260205f20908101928215612251579160200282015b82811115612251578251825591602001919060010190612236565b5061225d9291506122b4565b5090565b828054828255905f5260205f20908101928215612251579160200282015b8281111561225157825182546001600160a01b0319166001600160a01b0390911617825560209092019160019091019061227f565b5b8082111561225d575f81556001016122b5565b5f602082840312156122d8575f80fd5b81356001600160e01b0319811681146121e8575f80fd5b634e487b7160e01b5f52604160045260245ffd5b604051601f8201601f1916810167ffffffffffffffff8111828210171561232c5761232c6122ef565b604052919050565b5f67ffffffffffffffff83111561234d5761234d6122ef565b612360601f8401601f1916602001612303565b9050828152838383011115612373575f80fd5b828260208301375f602084830101529392505050565b5f82601f830112612398575f80fd5b6121e883833560208501612334565b5f602082840312156123b7575f80fd5b813567ffffffffffffffff8111156123cd575f80fd5b6123d984828501612389565b949350505050565b5f602082840312156123f1575f80fd5b5035919050565b80356001600160a01b038116811461240e575f80fd5b919050565b5f8060408385031215612424575f80fd5b82359150612434602084016123f8565b90509250929050565b5f805f805f60a08688031215612451575f80fd5b853567ffffffffffffffff811115612467575f80fd5b61247388828901612389565b9860208801359850604088013597606081013597506080013595509350505050565b5f602082840312156124a5575f80fd5b6121e8826123f8565b5f80604083850312156124bf575f80fd5b6124c8836123f8565b9150602083013567ffffffffffffffff8111156124e3575f80fd5b8301601f810185136124f3575f80fd5b61250285823560208401612334565b9150509250929050565b5f806040838503121561251d575f80fd5b823567ffffffffffffffff811115612533575f80fd5b61253f85828601612389565b925050612434602084016123f8565b5f805f60608486031215612560575f80fd5b833567ffffffffffffffff80821115612577575f80fd5b61258387838801612389565b94506020860135915080821115612598575f80fd5b506125a586828701612389565b925050604084013590509250925092565b5f81518084528060208401602086015e5f602082860101526020601f19601f83011685010191505092915050565b604081525f6125f660408301856125b6565b905060018060a01b03831660208301529392505050565b5f806040838503121561261e575f80fd5b823567ffffffffffffffff80821115612635575f80fd5b818501915085601f830112612648575f80fd5b813560208282111561265c5761265c6122ef565b8160051b925061266d818401612303565b8281529284018101928181019089851115612686575f80fd5b948201945b848610156126a45785358252948201949082019061268b565b9997909101359750505050505050565b602081525f6121e860208301846125b6565b86815260c060208201525f6126de60c08301886125b6565b90508560408301528460608301528360808301528260a0830152979650505050505050565b5f8060408385031215612714575f80fd5b61271d836123f8565b946020939093013593505050565b608081525f61273d60808301876125b6565b828103602084015261274f81876125b6565b6040840195909552505090151560609091015292915050565b5f805f805f805f805f6101208a8c031215612781575f80fd5b61278a8a6123f8565b985061279860208b016123f8565b97506127a660408b016123f8565b96506127b460608b016123f8565b95506127c260808b016123f8565b94506127d060a08b016123f8565b93506127de60c08b016123f8565b92506127ec60e08b016123f8565b91506127fb6101008b016123f8565b90509295985092959850929598565b634e487b7160e01b5f52603260045260245ffd5b5f81518060208401855e5f93019283525090919050565b5f6121e8828461281e565b600181811c9082168061285457607f821691505b60208210810361287257634e487b7160e01b5f52602260045260245ffd5b50919050565b5f80835461288581612840565b6001828116801561289d57600181146128b2576128de565b60ff19841687528215158302870194506128de565b875f526020805f205f5b858110156128d55781548a8201529084019082016128bc565b50505082870194505b50929695505050505050565b634e487b7160e01b5f52601160045260245ffd5b8082018082111561087a5761087a6128ea565b601f821115610b1a57805f5260205f20601f840160051c810160208510156129365750805b601f840160051c820191505b81811015612955575f8155600101612942565b5050505050565b815167ffffffffffffffff811115612976576129766122ef565b61298a816129848454612840565b84612911565b602080601f8311600181146129bd575f84156129a65750858301515b5f19600386901b1c1916600185901b178555612a14565b5f85815260208120601f198616915b828110156129eb578886015182559484019460019091019084016129cc565b5085821015612a0857878501515f19600388901b60f8161c191681555b505060018460011b0185555b505050505050565b828152604060208201525f6123d960408301846125b6565b5f60018201612a4557612a456128ea565b5060010190565b8181038181111561087a5761087a6128ea565b634e487b7160e01b5f52603160045260245ffd5b5f60208284031215612a83575f80fd5b505191905056fe9b7946abd96dccbe6cfc6cc2c13300ab429d93e16fa72dc459eeccda73817f08360894a13ba1a3210667c828492db98dca3e2076cc3735a920a3ca505d382bbc65d7a28e3265b37a6474929f336521b332c1681b933f6cb9f3376673440d862a02dd7bc7dec4dceedda775e58dd541e08a116c6c53815c0bd028192f7b626800cd5ed15c6e187e77e9aee88184c21f4f2182ab5827cb3b7e07fbedcd63f03300a2646970667358221220a380f93995c55f9003baa58abdf7f5f3bc929d362a7e3d83ff901d66628b1c5f64736f6c63430008190033",
					"opcodes": "PUSH1 0xA0 PUSH1 0x40 MSTORE ADDRESS PUSH1 0x80 MSTORE PUSH1 0x1 PUSH1 0x6 DUP2 SWAP1 SSTORE PUSH1 0x7 SSTORE CALLVALUE DUP1 ISZERO PUSH1 0x1C JUMPI PUSH0 DUP1 REVERT JUMPDEST POP PUSH1 0x80 MLOAD PUSH2 0x2B60 PUSH2 0x43 PUSH0 CODECOPY PUSH0 DUP2 DUP2 PUSH2 0x1D1C ADD MSTORE DUP2 DUP2 PUSH2 0x1D45 ADD MSTORE PUSH2 0x1EA8 ADD MSTORE PUSH2 0x2B60 PUSH0 RETURN INVALID PUSH1 0x80 PUSH1 0x40 MSTORE PUSH1 0x4 CALLDATASIZE LT PUSH2 0x249 JUMPI PUSH0 CALLDATALOAD PUSH1 0xE0 SHR DUP1 PUSH4 0x8A13EEA7 GT PUSH2 0x134 JUMPI DUP1 PUSH4 0xBFB231D2 GT PUSH2 0xB3 JUMPI DUP1 PUSH4 0xE551BA4B GT PUSH2 0x78 JUMPI DUP1 PUSH4 0xE551BA4B EQ PUSH2 0x77B JUMPI DUP1 PUSH4 0xE63AB1E9 EQ PUSH2 0x79A JUMPI DUP1 PUSH4 0xEE99205C EQ PUSH2 0x7BA JUMPI DUP1 PUSH4 0xF4E0D9AC EQ PUSH2 0x7D9 JUMPI DUP1 PUSH4 0xF5E95ACB EQ PUSH2 0x7F8 JUMPI DUP1 PUSH4 0xF72C0D8B EQ PUSH2 0x817 JUMPI PUSH0 DUP1 REVERT JUMPDEST DUP1 PUSH4 0xBFB231D2 EQ PUSH2 0x646 JUMPI DUP1 PUSH4 0xD3DCFF7C EQ PUSH2 0x677 JUMPI DUP1 PUSH4 0xD547741F EQ PUSH2 0x6A6 JUMPI DUP1 PUSH4 0xD836FC6F EQ PUSH2 0x6C5 JUMPI DUP1 PUSH4 0xE2EB41FF EQ PUSH2 0x6E4 JUMPI PUSH0 DUP1 REVERT JUMPDEST DUP1 PUSH4 0xA75859E1 GT PUSH2 0xF9 JUMPI DUP1 PUSH4 0xA75859E1 EQ PUSH2 0x57E JUMPI DUP1 PUSH4 0xA9834B67 EQ PUSH2 0x5AB JUMPI DUP1 PUSH4 0xAD3CB1CC EQ PUSH2 0x5CA JUMPI DUP1 PUSH4 0xB001F618 EQ PUSH2 0x607 JUMPI DUP1 PUSH4 0xBE22D27D EQ PUSH2 0x626 JUMPI PUSH0 DUP1 REVERT JUMPDEST DUP1 PUSH4 0x8A13EEA7 EQ PUSH2 0x4F0 JUMPI DUP1 PUSH4 0x91D14854 EQ PUSH2 0x50E JUMPI DUP1 PUSH4 0x965AFA89 EQ PUSH2 0x52D JUMPI DUP1 PUSH4 0x9A03D9A3 EQ PUSH2 0x54C JUMPI DUP1 PUSH4 0xA217FDDF EQ PUSH2 0x56B JUMPI PUSH0 DUP1 REVERT JUMPDEST DUP1 PUSH4 0x41BEC0D2 GT PUSH2 0x1CB JUMPI DUP1 PUSH4 0x52D1902D GT PUSH2 0x190 JUMPI DUP1 PUSH4 0x52D1902D EQ PUSH2 0x448 JUMPI DUP1 PUSH4 0x5C975ABB EQ PUSH2 0x45C JUMPI DUP1 PUSH4 0x5F2D6BCD EQ PUSH2 0x47F JUMPI DUP1 PUSH4 0x6F347A78 EQ PUSH2 0x49E JUMPI DUP1 PUSH4 0x7309CBBD EQ PUSH2 0x4BD JUMPI DUP1 PUSH4 0x8456CB59 EQ PUSH2 0x4DC JUMPI PUSH0 DUP1 REVERT JUMPDEST DUP1 PUSH4 0x41BEC0D2 EQ PUSH2 0x3AA JUMPI DUP1 PUSH4 0x443C227C EQ PUSH2 0x3C9 JUMPI DUP1 PUSH4 0x4A7FFCBC EQ PUSH2 0x3F7 JUMPI DUP1 PUSH4 0x4F1EF286 EQ PUSH2 0x416 JUMPI DUP1 PUSH4 0x4FA4A1BB EQ PUSH2 0x429 JUMPI PUSH0 DUP1 REVERT JUMPDEST DUP1 PUSH4 0x2F2FF15D GT PUSH2 0x211 JUMPI DUP1 PUSH4 0x2F2FF15D EQ PUSH2 0x325 JUMPI DUP1 PUSH4 0x31FEE8BE EQ PUSH2 0x344 JUMPI DUP1 PUSH4 0x36568ABE EQ PUSH2 0x363 JUMPI DUP1 PUSH4 0x3F4BA83A EQ PUSH2 0x382 JUMPI DUP1 PUSH4 0x3FA9FCF8 EQ PUSH2 0x396 JUMPI PUSH0 DUP1 REVERT JUMPDEST DUP1 PUSH4 0x1FFC9A7 EQ PUSH2 0x24D JUMPI DUP1 PUSH4 0x2EEC568 EQ PUSH2 0x281 JUMPI DUP1 PUSH4 0x17435E1A EQ PUSH2 0x2B8 JUMPI DUP1 PUSH4 0x21F42268 EQ PUSH2 0x2D9 JUMPI DUP1 PUSH4 0x248A9CA3 EQ PUSH2 0x2F8 JUMPI JUMPDEST PUSH0 DUP1 REVERT JUMPDEST CALLVALUE DUP1 ISZERO PUSH2 0x258 JUMPI PUSH0 DUP1 REVERT JUMPDEST POP PUSH2 0x26C PUSH2 0x267 CALLDATASIZE PUSH1 0x4 PUSH2 0x22C8 JUMP JUMPDEST PUSH2 0x84A JUMP JUMPDEST PUSH1 0x40 MLOAD SWAP1 ISZERO ISZERO DUP2 MSTORE PUSH1 0x20 ADD JUMPDEST PUSH1 0x40 MLOAD DUP1 SWAP2 SUB SWAP1 RETURN JUMPDEST CALLVALUE DUP1 ISZERO PUSH2 0x28C JUMPI PUSH0 DUP1 REVERT JUMPDEST POP PUSH1 0x5 SLOAD PUSH2 0x2A0 SWAP1 PUSH1 0x1 PUSH1 0x1 PUSH1 0xA0 SHL SUB AND DUP2 JUMP JUMPDEST PUSH1 0x40 MLOAD PUSH1 0x1 PUSH1 0x1 PUSH1 0xA0 SHL SUB SWAP1 SWAP2 AND DUP2 MSTORE PUSH1 0x20 ADD PUSH2 0x278 JUMP JUMPDEST CALLVALUE DUP1 ISZERO PUSH2 0x2C3 JUMPI PUSH0 DUP1 REVERT JUMPDEST POP PUSH2 0x2D7 PUSH2 0x2D2 CALLDATASIZE PUSH1 0x4 PUSH2 0x23A7 JUMP JUMPDEST PUSH2 0x880 JUMP JUMPDEST STOP JUMPDEST CALLVALUE DUP1 ISZERO PUSH2 0x2E4 JUMPI PUSH0 DUP1 REVERT JUMPDEST POP PUSH1 0x2 SLOAD PUSH2 0x2A0 SWAP1 PUSH1 0x1 PUSH1 0x1 PUSH1 0xA0 SHL SUB AND DUP2 JUMP JUMPDEST CALLVALUE DUP1 ISZERO PUSH2 0x303 JUMPI PUSH0 DUP1 REVERT JUMPDEST POP PUSH2 0x317 PUSH2 0x312 CALLDATASIZE PUSH1 0x4 PUSH2 0x23E1 JUMP JUMPDEST PUSH2 0x9B4 JUMP JUMPDEST PUSH1 0x40 MLOAD SWAP1 DUP2 MSTORE PUSH1 0x20 ADD PUSH2 0x278 JUMP JUMPDEST CALLVALUE DUP1 ISZERO PUSH2 0x330 JUMPI PUSH0 DUP1 REVERT JUMPDEST POP PUSH2 0x2D7 PUSH2 0x33F CALLDATASIZE PUSH1 0x4 PUSH2 0x2413 JUMP JUMPDEST PUSH2 0x9D4 JUMP JUMPDEST CALLVALUE DUP1 ISZERO PUSH2 0x34F JUMPI PUSH0 DUP1 REVERT JUMPDEST POP PUSH2 0x2D7 PUSH2 0x35E CALLDATASIZE PUSH1 0x4 PUSH2 0x243D JUMP JUMPDEST PUSH2 0x9F6 JUMP JUMPDEST CALLVALUE DUP1 ISZERO PUSH2 0x36E JUMPI PUSH0 DUP1 REVERT JUMPDEST POP PUSH2 0x2D7 PUSH2 0x37D CALLDATASIZE PUSH1 0x4 PUSH2 0x2413 JUMP JUMPDEST PUSH2 0xAE7 JUMP JUMPDEST CALLVALUE DUP1 ISZERO PUSH2 0x38D JUMPI PUSH0 DUP1 REVERT JUMPDEST POP PUSH2 0x2D7 PUSH2 0xB1F JUMP JUMPDEST CALLVALUE DUP1 ISZERO PUSH2 0x3A1 JUMPI PUSH0 DUP1 REVERT JUMPDEST POP PUSH2 0x2D7 PUSH2 0xB41 JUMP JUMPDEST CALLVALUE DUP1 ISZERO PUSH2 0x3B5 JUMPI PUSH0 DUP1 REVERT JUMPDEST POP PUSH2 0x2D7 PUSH2 0x3C4 CALLDATASIZE PUSH1 0x4 PUSH2 0x2495 JUMP JUMPDEST PUSH2 0xD10 JUMP JUMPDEST CALLVALUE DUP1 ISZERO PUSH2 0x3D4 JUMPI PUSH0 DUP1 REVERT JUMPDEST POP PUSH2 0x317 PUSH2 0x3E3 CALLDATASIZE PUSH1 0x4 PUSH2 0x23E1 JUMP JUMPDEST PUSH1 0xD PUSH1 0x20 MSTORE PUSH0 SWAP1 DUP2 MSTORE PUSH1 0x40 SWAP1 KECCAK256 PUSH1 0x1 ADD SLOAD DUP2 JUMP JUMPDEST CALLVALUE DUP1 ISZERO PUSH2 0x402 JUMPI PUSH0 DUP1 REVERT JUMPDEST POP PUSH1 0x3 SLOAD PUSH2 0x2A0 SWAP1 PUSH1 0x1 PUSH1 0x1 PUSH1 0xA0 SHL SUB AND DUP2 JUMP JUMPDEST PUSH2 0x2D7 PUSH2 0x424 CALLDATASIZE PUSH1 0x4 PUSH2 0x24AE JUMP JUMPDEST PUSH2 0xD49 JUMP JUMPDEST CALLVALUE DUP1 ISZERO PUSH2 0x434 JUMPI PUSH0 DUP1 REVERT JUMPDEST POP PUSH2 0x2D7 PUSH2 0x443 CALLDATASIZE PUSH1 0x4 PUSH2 0x250C JUMP JUMPDEST PUSH2 0xD64 JUMP JUMPDEST CALLVALUE DUP1 ISZERO PUSH2 0x453 JUMPI PUSH0 DUP1 REVERT JUMPDEST POP PUSH2 0x317 PUSH2 0xF6A JUMP JUMPDEST CALLVALUE DUP1 ISZERO PUSH2 0x467 JUMPI PUSH0 DUP1 REVERT JUMPDEST POP PUSH0 DUP1 MLOAD PUSH1 0x20 PUSH2 0x2B0B DUP4 CODECOPY DUP2 MLOAD SWAP2 MSTORE SLOAD PUSH1 0xFF AND PUSH2 0x26C JUMP JUMPDEST CALLVALUE DUP1 ISZERO PUSH2 0x48A JUMPI PUSH0 DUP1 REVERT JUMPDEST POP PUSH1 0x1 SLOAD PUSH2 0x2A0 SWAP1 PUSH1 0x1 PUSH1 0x1 PUSH1 0xA0 SHL SUB AND DUP2 JUMP JUMPDEST CALLVALUE DUP1 ISZERO PUSH2 0x4A9 JUMPI PUSH0 DUP1 REVERT JUMPDEST POP PUSH2 0x2D7 PUSH2 0x4B8 CALLDATASIZE PUSH1 0x4 PUSH2 0x254E JUMP JUMPDEST PUSH2 0xF85 JUMP JUMPDEST CALLVALUE DUP1 ISZERO PUSH2 0x4C8 JUMPI PUSH0 DUP1 REVERT JUMPDEST POP PUSH2 0x2D7 PUSH2 0x4D7 CALLDATASIZE PUSH1 0x4 PUSH2 0x23E1 JUMP JUMPDEST PUSH2 0x102F JUMP JUMPDEST CALLVALUE DUP1 ISZERO PUSH2 0x4E7 JUMPI PUSH0 DUP1 REVERT JUMPDEST POP PUSH2 0x2D7 PUSH2 0x134E JUMP JUMPDEST CALLVALUE DUP1 ISZERO PUSH2 0x4FB JUMPI PUSH0 DUP1 REVERT JUMPDEST POP PUSH0 SLOAD PUSH2 0x2A0 SWAP1 PUSH1 0x1 PUSH1 0x1 PUSH1 0xA0 SHL SUB AND DUP2 JUMP JUMPDEST CALLVALUE DUP1 ISZERO PUSH2 0x519 JUMPI PUSH0 DUP1 REVERT JUMPDEST POP PUSH2 0x26C PUSH2 0x528 CALLDATASIZE PUSH1 0x4 PUSH2 0x2413 JUMP JUMPDEST PUSH2 0x136D JUMP JUMPDEST CALLVALUE DUP1 ISZERO PUSH2 0x538 JUMPI PUSH0 DUP1 REVERT JUMPDEST POP PUSH2 0x2D7 PUSH2 0x547 CALLDATASIZE PUSH1 0x4 PUSH2 0x2495 JUMP JUMPDEST PUSH2 0x13A3 JUMP JUMPDEST CALLVALUE DUP1 ISZERO PUSH2 0x557 JUMPI PUSH0 DUP1 REVERT JUMPDEST POP PUSH2 0x2D7 PUSH2 0x566 CALLDATASIZE PUSH1 0x4 PUSH2 0x2495 JUMP JUMPDEST PUSH2 0x13DD JUMP JUMPDEST CALLVALUE DUP1 ISZERO PUSH2 0x576 JUMPI PUSH0 DUP1 REVERT JUMPDEST POP PUSH2 0x317 PUSH0 DUP2 JUMP JUMPDEST CALLVALUE DUP1 ISZERO PUSH2 0x589 JUMPI PUSH0 DUP1 REVERT JUMPDEST POP PUSH2 0x59D PUSH2 0x598 CALLDATASIZE PUSH1 0x4 PUSH2 0x2495 JUMP JUMPDEST PUSH2 0x1417 JUMP JUMPDEST PUSH1 0x40 MLOAD PUSH2 0x278 SWAP3 SWAP2 SWAP1 PUSH2 0x25E4 JUMP JUMPDEST CALLVALUE DUP1 ISZERO PUSH2 0x5B6 JUMPI PUSH0 DUP1 REVERT JUMPDEST POP PUSH2 0x2D7 PUSH2 0x5C5 CALLDATASIZE PUSH1 0x4 PUSH2 0x260D JUMP JUMPDEST PUSH2 0x14C1 JUMP JUMPDEST CALLVALUE DUP1 ISZERO PUSH2 0x5D5 JUMPI PUSH0 DUP1 REVERT JUMPDEST POP PUSH2 0x5FA PUSH1 0x40 MLOAD DUP1 PUSH1 0x40 ADD PUSH1 0x40 MSTORE DUP1 PUSH1 0x5 DUP2 MSTORE PUSH1 0x20 ADD PUSH5 0x352E302E3 PUSH1 0xDC SHL DUP2 MSTORE POP DUP2 JUMP JUMPDEST PUSH1 0x40 MLOAD PUSH2 0x278 SWAP2 SWAP1 PUSH2 0x26B4 JUMP JUMPDEST CALLVALUE DUP1 ISZERO PUSH2 0x612 JUMPI PUSH0 DUP1 REVERT JUMPDEST POP PUSH2 0x2D7 PUSH2 0x621 CALLDATASIZE PUSH1 0x4 PUSH2 0x2495 JUMP JUMPDEST PUSH2 0x1571 JUMP JUMPDEST CALLVALUE DUP1 ISZERO PUSH2 0x631 JUMPI PUSH0 DUP1 REVERT JUMPDEST POP PUSH2 0x317 PUSH0 DUP1 MLOAD PUSH1 0x20 PUSH2 0x2A8B DUP4 CODECOPY DUP2 MLOAD SWAP2 MSTORE DUP2 JUMP JUMPDEST CALLVALUE DUP1 ISZERO PUSH2 0x651 JUMPI PUSH0 DUP1 REVERT JUMPDEST POP PUSH2 0x665 PUSH2 0x660 CALLDATASIZE PUSH1 0x4 PUSH2 0x23E1 JUMP JUMPDEST PUSH2 0x15AB JUMP JUMPDEST PUSH1 0x40 MLOAD PUSH2 0x278 SWAP7 SWAP6 SWAP5 SWAP4 SWAP3 SWAP2 SWAP1 PUSH2 0x26C6 JUMP JUMPDEST CALLVALUE DUP1 ISZERO PUSH2 0x682 JUMPI PUSH0 DUP1 REVERT JUMPDEST POP PUSH2 0x696 PUSH2 0x691 CALLDATASIZE PUSH1 0x4 PUSH2 0x2703 JUMP JUMPDEST PUSH2 0x1665 JUMP JUMPDEST PUSH1 0x40 MLOAD PUSH2 0x278 SWAP5 SWAP4 SWAP3 SWAP2 SWAP1 PUSH2 0x272B JUMP JUMPDEST CALLVALUE DUP1 ISZERO PUSH2 0x6B1 JUMPI PUSH0 DUP1 REVERT JUMPDEST POP PUSH2 0x2D7 PUSH2 0x6C0 CALLDATASIZE PUSH1 0x4 PUSH2 0x2413 JUMP JUMPDEST PUSH2 0x17BB JUMP JUMPDEST CALLVALUE DUP1 ISZERO PUSH2 0x6D0 JUMPI PUSH0 DUP1 REVERT JUMPDEST POP PUSH2 0x2D7 PUSH2 0x6DF CALLDATASIZE PUSH1 0x4 PUSH2 0x2495 JUMP JUMPDEST PUSH2 0x17D7 JUMP JUMPDEST CALLVALUE DUP1 ISZERO PUSH2 0x6EF JUMPI PUSH0 DUP1 REVERT JUMPDEST POP PUSH2 0x740 PUSH2 0x6FE CALLDATASIZE PUSH1 0x4 PUSH2 0x2495 JUMP JUMPDEST PUSH1 0x9 PUSH1 0x20 MSTORE PUSH0 SWAP1 DUP2 MSTORE PUSH1 0x40 SWAP1 KECCAK256 DUP1 SLOAD PUSH1 0x1 DUP3 ADD SLOAD PUSH1 0x2 DUP4 ADD SLOAD PUSH1 0x3 DUP5 ADD SLOAD PUSH1 0x4 DUP6 ADD SLOAD PUSH1 0x5 DUP7 ADD SLOAD PUSH1 0x6 DUP8 ADD SLOAD PUSH1 0x7 SWAP1 SWAP8 ADD SLOAD SWAP6 SWAP7 SWAP5 SWAP6 SWAP4 SWAP5 SWAP3 SWAP4 SWAP2 SWAP3 SWAP1 SWAP2 DUP9 JUMP JUMPDEST PUSH1 0x40 DUP1 MLOAD SWAP9 DUP10 MSTORE PUSH1 0x20 DUP10 ADD SWAP8 SWAP1 SWAP8 MSTORE SWAP6 DUP8 ADD SWAP5 SWAP1 SWAP5 MSTORE PUSH1 0x60 DUP7 ADD SWAP3 SWAP1 SWAP3 MSTORE PUSH1 0x80 DUP6 ADD MSTORE PUSH1 0xA0 DUP5 ADD MSTORE PUSH1 0xC0 DUP4 ADD MSTORE PUSH1 0xE0 DUP3 ADD MSTORE PUSH2 0x100 ADD PUSH2 0x278 JUMP JUMPDEST CALLVALUE DUP1 ISZERO PUSH2 0x786 JUMPI PUSH0 DUP1 REVERT JUMPDEST POP PUSH2 0x2D7 PUSH2 0x795 CALLDATASIZE PUSH1 0x4 PUSH2 0x23A7 JUMP JUMPDEST PUSH2 0x1811 JUMP JUMPDEST CALLVALUE DUP1 ISZERO PUSH2 0x7A5 JUMPI PUSH0 DUP1 REVERT JUMPDEST POP PUSH2 0x317 PUSH0 DUP1 MLOAD PUSH1 0x20 PUSH2 0x2ACB DUP4 CODECOPY DUP2 MLOAD SWAP2 MSTORE DUP2 JUMP JUMPDEST CALLVALUE DUP1 ISZERO PUSH2 0x7C5 JUMPI PUSH0 DUP1 REVERT JUMPDEST POP PUSH1 0x4 SLOAD PUSH2 0x2A0 SWAP1 PUSH1 0x1 PUSH1 0x1 PUSH1 0xA0 SHL SUB AND DUP2 JUMP JUMPDEST CALLVALUE DUP1 ISZERO PUSH2 0x7E4 JUMPI PUSH0 DUP1 REVERT JUMPDEST POP PUSH2 0x2D7 PUSH2 0x7F3 CALLDATASIZE PUSH1 0x4 PUSH2 0x2495 JUMP JUMPDEST PUSH2 0x1968 JUMP JUMPDEST CALLVALUE DUP1 ISZERO PUSH2 0x803 JUMPI PUSH0 DUP1 REVERT JUMPDEST POP PUSH2 0x2D7 PUSH2 0x812 CALLDATASIZE PUSH1 0x4 PUSH2 0x2768 JUMP JUMPDEST PUSH2 0x19A2 JUMP JUMPDEST CALLVALUE DUP1 ISZERO PUSH2 0x822 JUMPI PUSH0 DUP1 REVERT JUMPDEST POP PUSH2 0x317 PUSH32 0x189AB7A9244DF0848122154315AF71FE140F3DB0FE014031783B0946B8C9D2E3 DUP2 JUMP JUMPDEST PUSH0 PUSH1 0x1 PUSH1 0x1 PUSH1 0xE0 SHL SUB NOT DUP3 AND PUSH4 0x7965DB0B PUSH1 0xE0 SHL EQ DUP1 PUSH2 0x87A JUMPI POP PUSH4 0x1FFC9A7 PUSH1 0xE0 SHL PUSH1 0x1 PUSH1 0x1 PUSH1 0xE0 SHL SUB NOT DUP4 AND EQ JUMPDEST SWAP3 SWAP2 POP POP JUMP JUMPDEST PUSH0 JUMPDEST CALLER PUSH0 SWAP1 DUP2 MSTORE PUSH1 0xA PUSH1 0x20 MSTORE PUSH1 0x40 SWAP1 KECCAK256 SLOAD DUP2 LT ISZERO PUSH2 0x9B0 JUMPI CALLER PUSH0 SWAP1 DUP2 MSTORE PUSH1 0xA PUSH1 0x20 MSTORE PUSH1 0x40 DUP2 KECCAK256 DUP1 SLOAD DUP4 SWAP1 DUP2 LT PUSH2 0x8B8 JUMPI PUSH2 0x8B8 PUSH2 0x280A JUMP JUMPDEST SWAP1 PUSH0 MSTORE PUSH1 0x20 PUSH0 KECCAK256 SWAP1 PUSH1 0x4 MUL ADD SWAP1 POP DUP3 PUSH1 0x40 MLOAD PUSH1 0x20 ADD PUSH2 0x8D7 SWAP2 SWAP1 PUSH2 0x2835 JUMP JUMPDEST PUSH1 0x40 DUP1 MLOAD PUSH1 0x1F NOT DUP2 DUP5 SUB ADD DUP2 MSTORE SWAP1 DUP3 SWAP1 MSTORE DUP1 MLOAD PUSH1 0x20 SWAP2 DUP3 ADD KECCAK256 SWAP2 PUSH2 0x8FD SWAP2 DUP5 SWAP2 ADD PUSH2 0x2878 JUMP JUMPDEST PUSH1 0x40 MLOAD PUSH1 0x20 DUP2 DUP4 SUB SUB DUP2 MSTORE SWAP1 PUSH1 0x40 MSTORE DUP1 MLOAD SWAP1 PUSH1 0x20 ADD KECCAK256 EQ DUP1 ISZERO PUSH2 0x925 JUMPI POP PUSH1 0x3 DUP2 ADD SLOAD PUSH1 0xFF AND ISZERO JUMPDEST ISZERO PUSH2 0x9A7 JUMPI PUSH1 0x3 DUP2 ADD DUP1 SLOAD PUSH1 0xFF NOT AND PUSH1 0x1 SWAP1 DUP2 OR SWAP1 SWAP2 SSTORE PUSH1 0x2 DUP3 ADD SLOAD CALLER PUSH0 SWAP1 DUP2 MSTORE PUSH1 0x9 PUSH1 0x20 MSTORE PUSH1 0x40 DUP2 KECCAK256 SWAP1 SWAP3 ADD DUP1 SLOAD SWAP2 SWAP3 SWAP1 SWAP2 PUSH2 0x963 SWAP1 DUP5 SWAP1 PUSH2 0x28FE JUMP JUMPDEST SWAP1 SWAP2 SSTORE POP POP PUSH1 0x40 MLOAD CALLER SWAP1 PUSH32 0xBE21664565742A9F42CBB6D005F92DB59C7BCAD35B12EF5B57B79E75676B247A SWAP1 PUSH2 0x99A SWAP1 DUP7 SWAP1 PUSH2 0x26B4 JUMP JUMPDEST PUSH1 0x40 MLOAD DUP1 SWAP2 SUB SWAP1 LOG2 POP POP POP JUMP JUMPDEST POP PUSH1 0x1 ADD PUSH2 0x882 JUMP JUMPDEST POP POP JUMP JUMPDEST PUSH0 SWAP1 DUP2 MSTORE PUSH0 DUP1 MLOAD PUSH1 0x20 PUSH2 0x2AEB DUP4 CODECOPY DUP2 MLOAD SWAP2 MSTORE PUSH1 0x20 MSTORE PUSH1 0x40 SWAP1 KECCAK256 PUSH1 0x1 ADD SLOAD SWAP1 JUMP JUMPDEST PUSH2 0x9DD DUP3 PUSH2 0x9B4 JUMP JUMPDEST PUSH2 0x9E6 DUP2 PUSH2 0x1B8E JUMP JUMPDEST PUSH2 0x9F0 DUP4 DUP4 PUSH2 0x1B98 JUMP JUMPDEST POP POP POP POP JUMP JUMPDEST PUSH0 DUP1 MLOAD PUSH1 0x20 PUSH2 0x2A8B DUP4 CODECOPY DUP2 MLOAD SWAP2 MSTORE PUSH2 0xA0D DUP2 PUSH2 0x1B8E JUMP JUMPDEST PUSH1 0x40 DUP1 MLOAD PUSH1 0xC0 DUP2 ADD DUP3 MSTORE PUSH1 0x6 SLOAD DUP1 DUP3 MSTORE PUSH1 0x20 DUP1 DUP4 ADD DUP11 DUP2 MSTORE DUP4 DUP6 ADD DUP11 SWAP1 MSTORE PUSH1 0x60 DUP5 ADD DUP10 SWAP1 MSTORE PUSH1 0x80 DUP5 ADD DUP9 SWAP1 MSTORE PUSH1 0xA0 DUP5 ADD DUP8 SWAP1 MSTORE PUSH0 SWAP3 DUP4 MSTORE PUSH1 0x8 SWAP1 SWAP2 MSTORE SWAP3 SWAP1 KECCAK256 DUP2 MLOAD DUP2 SSTORE SWAP2 MLOAD SWAP1 SWAP2 SWAP1 PUSH1 0x1 DUP3 ADD SWAP1 PUSH2 0xA64 SWAP1 DUP3 PUSH2 0x295C JUMP JUMPDEST POP PUSH1 0x40 DUP3 ADD MLOAD DUP2 PUSH1 0x2 ADD SSTORE PUSH1 0x60 DUP3 ADD MLOAD DUP2 PUSH1 0x3 ADD SSTORE PUSH1 0x80 DUP3 ADD MLOAD DUP2 PUSH1 0x4 ADD SSTORE PUSH1 0xA0 DUP3 ADD MLOAD DUP2 PUSH1 0x5 ADD SSTORE SWAP1 POP POP PUSH32 0x78D68BA0E8C23B92E7C700D99EFED2719520CBD4AF845B2C03AE251F9CDF3D52 PUSH1 0x6 SLOAD DUP8 PUSH1 0x40 MLOAD PUSH2 0xAC3 SWAP3 SWAP2 SWAP1 PUSH2 0x2A1C JUMP JUMPDEST PUSH1 0x40 MLOAD DUP1 SWAP2 SUB SWAP1 LOG1 PUSH1 0x6 DUP1 SLOAD SWAP1 PUSH0 PUSH2 0xADA DUP4 PUSH2 0x2A34 JUMP JUMPDEST SWAP2 SWAP1 POP SSTORE POP POP POP POP POP POP POP JUMP JUMPDEST PUSH1 0x1 PUSH1 0x1 PUSH1 0xA0 SHL SUB DUP2 AND CALLER EQ PUSH2 0xB10 JUMPI PUSH1 0x40 MLOAD PUSH4 0x334BD919 PUSH1 0xE1 SHL DUP2 MSTORE PUSH1 0x4 ADD PUSH1 0x40 MLOAD DUP1 SWAP2 SUB SWAP1 REVERT JUMPDEST PUSH2 0xB1A DUP3 DUP3 PUSH2 0x1C39 JUMP JUMPDEST POP POP POP JUMP JUMPDEST PUSH0 DUP1 MLOAD PUSH1 0x20 PUSH2 0x2ACB DUP4 CODECOPY DUP2 MLOAD SWAP2 MSTORE PUSH2 0xB36 DUP2 PUSH2 0x1B8E JUMP JUMPDEST PUSH2 0xB3E PUSH2 0x1CB2 JUMP JUMPDEST POP JUMP JUMPDEST CALLER PUSH0 SWAP1 DUP2 MSTORE PUSH1 0x9 PUSH1 0x20 MSTORE PUSH1 0x40 SWAP1 KECCAK256 SLOAD ISZERO PUSH2 0xB9A JUMPI PUSH1 0x40 MLOAD PUSH3 0x461BCD PUSH1 0xE5 SHL DUP2 MSTORE PUSH1 0x20 PUSH1 0x4 DUP3 ADD MSTORE PUSH1 0x15 PUSH1 0x24 DUP3 ADD MSTORE PUSH21 0x506C6179657220616C726561647920657869737473 PUSH1 0x58 SHL PUSH1 0x44 DUP3 ADD MSTORE PUSH1 0x64 ADD JUMPDEST PUSH1 0x40 MLOAD DUP1 SWAP2 SUB SWAP1 REVERT JUMPDEST PUSH1 0x40 MLOAD DUP1 PUSH2 0x140 ADD PUSH1 0x40 MSTORE DUP1 PUSH1 0x1 DUP2 MSTORE PUSH1 0x20 ADD PUSH0 DUP2 MSTORE PUSH1 0x20 ADD PUSH1 0x64 DUP2 MSTORE PUSH1 0x20 ADD PUSH1 0x32 DUP2 MSTORE PUSH1 0x20 ADD PUSH1 0xA DUP2 MSTORE PUSH1 0x20 ADD PUSH1 0x5 DUP2 MSTORE PUSH1 0x20 ADD PUSH1 0x3 DUP2 MSTORE PUSH1 0x20 ADD PUSH1 0x2 DUP2 MSTORE PUSH1 0x20 ADD PUSH0 PUSH8 0xFFFFFFFFFFFFFFFF DUP2 GT ISZERO PUSH2 0xBF6 JUMPI PUSH2 0xBF6 PUSH2 0x22EF JUMP JUMPDEST PUSH1 0x40 MLOAD SWAP1 DUP1 DUP3 MSTORE DUP1 PUSH1 0x20 MUL PUSH1 0x20 ADD DUP3 ADD PUSH1 0x40 MSTORE DUP1 ISZERO PUSH2 0xC1F JUMPI DUP2 PUSH1 0x20 ADD PUSH1 0x20 DUP3 MUL DUP1 CALLDATASIZE DUP4 CALLDATACOPY ADD SWAP1 POP JUMPDEST POP DUP2 MSTORE PUSH1 0x20 ADD PUSH0 PUSH1 0x40 MLOAD SWAP1 DUP1 DUP3 MSTORE DUP1 PUSH1 0x20 MUL PUSH1 0x20 ADD DUP3 ADD PUSH1 0x40 MSTORE DUP1 ISZERO PUSH2 0xC4F JUMPI DUP2 PUSH1 0x20 ADD PUSH1 0x20 DUP3 MUL DUP1 CALLDATASIZE DUP4 CALLDATACOPY ADD SWAP1 POP JUMPDEST POP SWAP1 MSTORE CALLER PUSH0 SWAP1 DUP2 MSTORE PUSH1 0x9 PUSH1 0x20 SWAP1 DUP2 MSTORE PUSH1 0x40 SWAP2 DUP3 SWAP1 KECCAK256 DUP4 MLOAD DUP2 SSTORE DUP4 DUP3 ADD MLOAD PUSH1 0x1 DUP3 ADD SSTORE SWAP2 DUP4 ADD MLOAD PUSH1 0x2 DUP4 ADD SSTORE PUSH1 0x60 DUP4 ADD MLOAD PUSH1 0x3 DUP4 ADD SSTORE PUSH1 0x80 DUP4 ADD MLOAD PUSH1 0x4 DUP4 ADD SSTORE PUSH1 0xA0 DUP4 ADD MLOAD PUSH1 0x5 DUP4 ADD SSTORE PUSH1 0xC0 DUP4 ADD MLOAD PUSH1 0x6 DUP4 ADD SSTORE PUSH1 0xE0 DUP4 ADD MLOAD PUSH1 0x7 DUP4 ADD SSTORE PUSH2 0x100 DUP4 ADD MLOAD DUP1 MLOAD PUSH2 0xCC4 SWAP3 PUSH1 0x8 DUP6 ADD SWAP3 ADD SWAP1 PUSH2 0x2218 JUMP JUMPDEST POP PUSH2 0x120 DUP3 ADD MLOAD DUP1 MLOAD PUSH2 0xCE1 SWAP2 PUSH1 0x9 DUP5 ADD SWAP2 PUSH1 0x20 SWAP1 SWAP2 ADD SWAP1 PUSH2 0x2218 JUMP JUMPDEST POP POP PUSH1 0x40 MLOAD CALLER SWAP2 POP PUSH32 0xB4CCA19A27CE42915C3CEE0CEE28FC5D90969EE49F09EC71659546A63B5F7BC0 SWAP1 PUSH0 SWAP1 LOG2 JUMP JUMPDEST PUSH0 DUP1 MLOAD PUSH1 0x20 PUSH2 0x2A8B DUP4 CODECOPY DUP2 MLOAD SWAP2 MSTORE PUSH2 0xD27 DUP2 PUSH2 0x1B8E JUMP JUMPDEST POP PUSH0 DUP1 SLOAD PUSH1 0x1 PUSH1 0x1 PUSH1 0xA0 SHL SUB NOT AND PUSH1 0x1 PUSH1 0x1 PUSH1 0xA0 SHL SUB SWAP3 SWAP1 SWAP3 AND SWAP2 SWAP1 SWAP2 OR SWAP1 SSTORE JUMP JUMPDEST PUSH2 0xD51 PUSH2 0x1D11 JUMP JUMPDEST PUSH2 0xD5A DUP3 PUSH2 0x1DB7 JUMP JUMPDEST PUSH2 0x9B0 DUP3 DUP3 PUSH2 0x1DE1 JUMP JUMPDEST PUSH0 DUP1 MLOAD PUSH1 0x20 PUSH2 0x2A8B DUP4 CODECOPY DUP2 MLOAD SWAP2 MSTORE PUSH2 0xD7B DUP2 PUSH2 0x1B8E JUMP JUMPDEST PUSH0 PUSH1 0x1 PUSH1 0x1 PUSH1 0xA0 SHL SUB AND PUSH1 0xC DUP5 PUSH1 0x40 MLOAD PUSH2 0xD95 SWAP2 SWAP1 PUSH2 0x2835 JUMP JUMPDEST SWAP1 DUP2 MSTORE PUSH1 0x40 MLOAD SWAP1 DUP2 SWAP1 SUB PUSH1 0x20 ADD SWAP1 KECCAK256 SLOAD PUSH1 0x1 PUSH1 0x1 PUSH1 0xA0 SHL SUB AND EQ PUSH2 0xDF2 JUMPI PUSH1 0x40 MLOAD PUSH3 0x461BCD PUSH1 0xE5 SHL DUP2 MSTORE PUSH1 0x20 PUSH1 0x4 DUP3 ADD MSTORE PUSH1 0x14 PUSH1 0x24 DUP3 ADD MSTORE PUSH20 0x4775696C6420616C726561647920657869737473 PUSH1 0x60 SHL PUSH1 0x44 DUP3 ADD MSTORE PUSH1 0x64 ADD PUSH2 0xB91 JUMP JUMPDEST PUSH1 0x40 DUP1 MLOAD PUSH1 0x60 DUP2 ADD DUP3 MSTORE DUP5 DUP2 MSTORE PUSH1 0x1 PUSH1 0x1 PUSH1 0xA0 SHL SUB DUP5 AND PUSH1 0x20 DUP3 ADD MSTORE DUP2 MLOAD PUSH1 0x1 DUP1 DUP3 MSTORE DUP2 DUP5 ADD DUP5 MSTORE SWAP2 SWAP3 DUP4 ADD SWAP2 DUP2 PUSH1 0x20 ADD PUSH1 0x20 DUP3 MUL DUP1 CALLDATASIZE DUP4 CALLDATACOPY POP POP POP SWAP1 MSTORE PUSH1 0x1 PUSH1 0x1 PUSH1 0xA0 SHL SUB DUP4 AND PUSH0 SWAP1 DUP2 MSTORE PUSH1 0xB PUSH1 0x20 MSTORE PUSH1 0x40 SWAP1 KECCAK256 DUP2 MLOAD DUP2 SWAP1 PUSH2 0xE55 SWAP1 DUP3 PUSH2 0x295C JUMP JUMPDEST POP PUSH1 0x20 DUP3 DUP2 ADD MLOAD PUSH1 0x1 DUP4 ADD DUP1 SLOAD PUSH1 0x1 PUSH1 0x1 PUSH1 0xA0 SHL SUB NOT AND PUSH1 0x1 PUSH1 0x1 PUSH1 0xA0 SHL SUB SWAP1 SWAP3 AND SWAP2 SWAP1 SWAP2 OR SWAP1 SSTORE PUSH1 0x40 DUP4 ADD MLOAD DUP1 MLOAD PUSH2 0xE94 SWAP3 PUSH1 0x2 DUP6 ADD SWAP3 ADD SWAP1 PUSH2 0x2261 JUMP JUMPDEST POP POP POP PUSH1 0x1 PUSH1 0x1 PUSH1 0xA0 SHL SUB DUP3 AND PUSH0 SWAP1 DUP2 MSTORE PUSH1 0xB PUSH1 0x20 MSTORE PUSH1 0x40 DUP2 KECCAK256 PUSH1 0x2 ADD DUP1 SLOAD DUP5 SWAP3 SWAP1 PUSH2 0xEC2 JUMPI PUSH2 0xEC2 PUSH2 0x280A JUMP JUMPDEST SWAP1 PUSH0 MSTORE PUSH1 0x20 PUSH0 KECCAK256 ADD PUSH0 PUSH2 0x100 EXP DUP2 SLOAD DUP2 PUSH1 0x1 PUSH1 0x1 PUSH1 0xA0 SHL SUB MUL NOT AND SWAP1 DUP4 PUSH1 0x1 PUSH1 0x1 PUSH1 0xA0 SHL SUB AND MUL OR SWAP1 SSTORE POP DUP2 PUSH1 0xC DUP5 PUSH1 0x40 MLOAD PUSH2 0xEFE SWAP2 SWAP1 PUSH2 0x2835 JUMP JUMPDEST SWAP1 DUP2 MSTORE PUSH1 0x40 MLOAD SWAP1 DUP2 SWAP1 SUB PUSH1 0x20 ADD DUP2 KECCAK256 DUP1 SLOAD PUSH1 0x1 PUSH1 0x1 PUSH1 0xA0 SHL SUB SWAP4 SWAP1 SWAP4 AND PUSH1 0x1 PUSH1 0x1 PUSH1 0xA0 SHL SUB NOT SWAP1 SWAP4 AND SWAP3 SWAP1 SWAP3 OR SWAP1 SWAP2 SSTORE PUSH32 0x72208535A97B2E307167838C66AACD47F8DE3A2CB92BC2DDB2B2B52009C9FD5 SWAP1 PUSH2 0xF5D SWAP1 DUP6 SWAP1 DUP6 SWAP1 PUSH2 0x25E4 JUMP JUMPDEST PUSH1 0x40 MLOAD DUP1 SWAP2 SUB SWAP1 LOG1 POP POP POP JUMP JUMPDEST PUSH0 PUSH2 0xF73 PUSH2 0x1E9D JUMP JUMPDEST POP PUSH0 DUP1 MLOAD PUSH1 0x20 PUSH2 0x2AAB DUP4 CODECOPY DUP2 MLOAD SWAP2 MSTORE SWAP1 JUMP JUMPDEST PUSH0 DUP1 MLOAD PUSH1 0x20 PUSH2 0x2A8B DUP4 CODECOPY DUP2 MLOAD SWAP2 MSTORE PUSH2 0xF9C DUP2 PUSH2 0x1B8E JUMP JUMPDEST CALLER PUSH0 SWAP1 DUP2 MSTORE PUSH1 0xA PUSH1 0x20 SWAP1 DUP2 MSTORE PUSH1 0x40 DUP1 DUP4 KECCAK256 DUP2 MLOAD PUSH1 0x80 DUP2 ADD DUP4 MSTORE DUP9 DUP2 MSTORE DUP1 DUP5 ADD DUP9 SWAP1 MSTORE SWAP2 DUP3 ADD DUP7 SWAP1 MSTORE PUSH1 0x60 DUP3 ADD DUP5 SWAP1 MSTORE DUP1 SLOAD PUSH1 0x1 DUP2 ADD DUP3 SSTORE SWAP1 DUP5 MSTORE SWAP2 SWAP1 SWAP3 KECCAK256 DUP3 MLOAD PUSH1 0x4 SWAP1 SWAP3 MUL ADD SWAP1 DUP2 SWAP1 PUSH2 0xFEF SWAP1 DUP3 PUSH2 0x295C JUMP JUMPDEST POP PUSH1 0x20 DUP3 ADD MLOAD PUSH1 0x1 DUP3 ADD SWAP1 PUSH2 0x1004 SWAP1 DUP3 PUSH2 0x295C JUMP JUMPDEST POP PUSH1 0x40 DUP3 ADD MLOAD PUSH1 0x2 DUP3 ADD SSTORE PUSH1 0x60 SWAP1 SWAP2 ADD MLOAD PUSH1 0x3 SWAP1 SWAP2 ADD DUP1 SLOAD PUSH1 0xFF NOT AND SWAP2 ISZERO ISZERO SWAP2 SWAP1 SWAP2 OR SWAP1 SSTORE POP POP POP POP JUMP JUMPDEST PUSH0 DUP2 DUP2 MSTORE PUSH1 0xD PUSH1 0x20 SWAP1 DUP2 MSTORE PUSH1 0x40 DUP1 DUP4 KECCAK256 DUP2 MLOAD DUP2 SLOAD PUSH1 0x60 SWAP5 DUP2 MUL DUP3 ADD DUP6 ADD DUP5 MSTORE SWAP3 DUP2 ADD DUP4 DUP2 MSTORE SWAP1 SWAP4 SWAP2 SWAP3 DUP5 SWAP3 DUP5 SWAP2 SWAP1 DUP5 ADD DUP3 DUP3 DUP1 ISZERO PUSH2 0x108A JUMPI PUSH1 0x20 MUL DUP3 ADD SWAP2 SWAP1 PUSH0 MSTORE PUSH1 0x20 PUSH0 KECCAK256 SWAP1 JUMPDEST DUP2 SLOAD DUP2 MSTORE PUSH1 0x20 ADD SWAP1 PUSH1 0x1 ADD SWAP1 DUP1 DUP4 GT PUSH2 0x1076 JUMPI JUMPDEST POP POP POP POP POP DUP2 MSTORE PUSH1 0x20 ADD PUSH1 0x1 DUP3 ADD SLOAD DUP2 MSTORE POP POP SWAP1 POP PUSH0 DUP2 PUSH0 ADD MLOAD MLOAD GT PUSH2 0x10E3 JUMPI PUSH1 0x40 MLOAD PUSH3 0x461BCD PUSH1 0xE5 SHL DUP2 MSTORE PUSH1 0x20 PUSH1 0x4 DUP3 ADD MSTORE PUSH1 0xE PUSH1 0x24 DUP3 ADD MSTORE PUSH14 0x496E76616C696420726563697065 PUSH1 0x90 SHL PUSH1 0x44 DUP3 ADD MSTORE PUSH1 0x64 ADD PUSH2 0xB91 JUMP JUMPDEST PUSH0 JUMPDEST DUP2 MLOAD MLOAD DUP2 LT ISZERO PUSH2 0x11E4 JUMPI PUSH0 DUP1 JUMPDEST CALLER PUSH0 SWAP1 DUP2 MSTORE PUSH1 0x9 PUSH1 0x20 MSTORE PUSH1 0x40 SWAP1 KECCAK256 PUSH1 0x8 ADD SLOAD DUP2 LT ISZERO PUSH2 0x117D JUMPI DUP4 MLOAD DUP1 MLOAD DUP5 SWAP1 DUP2 LT PUSH2 0x111F JUMPI PUSH2 0x111F PUSH2 0x280A JUMP JUMPDEST PUSH1 0x20 MUL PUSH1 0x20 ADD ADD MLOAD PUSH1 0x9 PUSH0 CALLER PUSH1 0x1 PUSH1 0x1 PUSH1 0xA0 SHL SUB AND PUSH1 0x1 PUSH1 0x1 PUSH1 0xA0 SHL SUB AND DUP2 MSTORE PUSH1 0x20 ADD SWAP1 DUP2 MSTORE PUSH1 0x20 ADD PUSH0 KECCAK256 PUSH1 0x8 ADD DUP3 DUP2 SLOAD DUP2 LT PUSH2 0x115E JUMPI PUSH2 0x115E PUSH2 0x280A JUMP JUMPDEST SWAP1 PUSH0 MSTORE PUSH1 0x20 PUSH0 KECCAK256 ADD SLOAD SUB PUSH2 0x1175 JUMPI PUSH1 0x1 SWAP2 POP PUSH2 0x117D JUMP JUMPDEST PUSH1 0x1 ADD PUSH2 0x10F2 JUMP JUMPDEST POP DUP1 PUSH2 0x11DB JUMPI PUSH1 0x40 MLOAD PUSH3 0x461BCD PUSH1 0xE5 SHL DUP2 MSTORE PUSH1 0x20 PUSH1 0x4 DUP3 ADD MSTORE PUSH1 0x27 PUSH1 0x24 DUP3 ADD MSTORE PUSH32 0x506C6179657220646F6573206E6F74206861766520616C6C2072657175697265 PUSH1 0x44 DUP3 ADD MSTORE PUSH7 0x64206974656D73 PUSH1 0xC8 SHL PUSH1 0x64 DUP3 ADD MSTORE PUSH1 0x84 ADD PUSH2 0xB91 JUMP JUMPDEST POP PUSH1 0x1 ADD PUSH2 0x10E5 JUMP JUMPDEST POP PUSH0 JUMPDEST DUP2 MLOAD MLOAD DUP2 LT ISZERO PUSH2 0x1322 JUMPI PUSH0 JUMPDEST CALLER PUSH0 SWAP1 DUP2 MSTORE PUSH1 0x9 PUSH1 0x20 MSTORE PUSH1 0x40 SWAP1 KECCAK256 PUSH1 0x8 ADD SLOAD DUP2 LT ISZERO PUSH2 0x1319 JUMPI DUP3 MLOAD DUP1 MLOAD DUP4 SWAP1 DUP2 LT PUSH2 0x1220 JUMPI PUSH2 0x1220 PUSH2 0x280A JUMP JUMPDEST PUSH1 0x20 MUL PUSH1 0x20 ADD ADD MLOAD PUSH1 0x9 PUSH0 CALLER PUSH1 0x1 PUSH1 0x1 PUSH1 0xA0 SHL SUB AND PUSH1 0x1 PUSH1 0x1 PUSH1 0xA0 SHL SUB AND DUP2 MSTORE PUSH1 0x20 ADD SWAP1 DUP2 MSTORE PUSH1 0x20 ADD PUSH0 KECCAK256 PUSH1 0x8 ADD DUP3 DUP2 SLOAD DUP2 LT PUSH2 0x125F JUMPI PUSH2 0x125F PUSH2 0x280A JUMP JUMPDEST SWAP1 PUSH0 MSTORE PUSH1 0x20 PUSH0 KECCAK256 ADD SLOAD SUB PUSH2 0x1311 JUMPI CALLER PUSH0 SWAP1 DUP2 MSTORE PUSH1 0x9 PUSH1 0x20 MSTORE PUSH1 0x40 SWAP1 KECCAK256 PUSH1 0x8 ADD DUP1 SLOAD PUSH2 0x128C SWAP1 PUSH1 0x1 SWAP1 PUSH2 0x2A4C JUMP JUMPDEST DUP2 SLOAD DUP2 LT PUSH2 0x129C JUMPI PUSH2 0x129C PUSH2 0x280A JUMP JUMPDEST PUSH0 SWAP2 DUP3 MSTORE PUSH1 0x20 DUP1 DUP4 KECCAK256 SWAP1 SWAP2 ADD SLOAD CALLER DUP4 MSTORE PUSH1 0x9 SWAP1 SWAP2 MSTORE PUSH1 0x40 SWAP1 SWAP2 KECCAK256 PUSH1 0x8 ADD DUP1 SLOAD DUP4 SWAP1 DUP2 LT PUSH2 0x12CB JUMPI PUSH2 0x12CB PUSH2 0x280A JUMP JUMPDEST PUSH0 SWAP2 DUP3 MSTORE PUSH1 0x20 DUP1 DUP4 KECCAK256 SWAP1 SWAP2 ADD SWAP3 SWAP1 SWAP3 SSTORE CALLER DUP2 MSTORE PUSH1 0x9 SWAP1 SWAP2 MSTORE PUSH1 0x40 SWAP1 KECCAK256 PUSH1 0x8 ADD DUP1 SLOAD DUP1 PUSH2 0x12F9 JUMPI PUSH2 0x12F9 PUSH2 0x2A5F JUMP JUMPDEST PUSH1 0x1 SWAP1 SUB DUP2 DUP2 SWAP1 PUSH0 MSTORE PUSH1 0x20 PUSH0 KECCAK256 ADD PUSH0 SWAP1 SSTORE SWAP1 SSTORE PUSH2 0x1319 JUMP JUMPDEST PUSH1 0x1 ADD PUSH2 0x11F3 JUMP JUMPDEST POP PUSH1 0x1 ADD PUSH2 0x11E7 JUMP JUMPDEST POP CALLER PUSH0 SWAP1 DUP2 MSTORE PUSH1 0x9 PUSH1 0x20 SWAP1 DUP2 MSTORE PUSH1 0x40 DUP3 KECCAK256 SWAP3 DUP2 ADD MLOAD PUSH1 0x8 SWAP1 SWAP4 ADD DUP1 SLOAD PUSH1 0x1 DUP2 ADD DUP3 SSTORE SWAP1 DUP4 MSTORE SWAP2 KECCAK256 ADD SSTORE POP JUMP JUMPDEST PUSH0 DUP1 MLOAD PUSH1 0x20 PUSH2 0x2ACB DUP4 CODECOPY DUP2 MLOAD SWAP2 MSTORE PUSH2 0x1365 DUP2 PUSH2 0x1B8E JUMP JUMPDEST PUSH2 0xB3E PUSH2 0x1EE6 JUMP JUMPDEST PUSH0 SWAP2 DUP3 MSTORE PUSH0 DUP1 MLOAD PUSH1 0x20 PUSH2 0x2AEB DUP4 CODECOPY DUP2 MLOAD SWAP2 MSTORE PUSH1 0x20 SWAP1 DUP2 MSTORE PUSH1 0x40 DUP1 DUP5 KECCAK256 PUSH1 0x1 PUSH1 0x1 PUSH1 0xA0 SHL SUB SWAP4 SWAP1 SWAP4 AND DUP5 MSTORE SWAP2 SWAP1 MSTORE SWAP1 KECCAK256 SLOAD PUSH1 0xFF AND SWAP1 JUMP JUMPDEST PUSH0 DUP1 MLOAD PUSH1 0x20 PUSH2 0x2A8B DUP4 CODECOPY DUP2 MLOAD SWAP2 MSTORE PUSH2 0x13BA DUP2 PUSH2 0x1B8E JUMP JUMPDEST POP PUSH1 0x3 DUP1 SLOAD PUSH1 0x1 PUSH1 0x1 PUSH1 0xA0 SHL SUB NOT AND PUSH1 0x1 PUSH1 0x1 PUSH1 0xA0 SHL SUB SWAP3 SWAP1 SWAP3 AND SWAP2 SWAP1 SWAP2 OR SWAP1 SSTORE JUMP JUMPDEST PUSH0 DUP1 MLOAD PUSH1 0x20 PUSH2 0x2A8B DUP4 CODECOPY DUP2 MLOAD SWAP2 MSTORE PUSH2 0x13F4 DUP2 PUSH2 0x1B8E JUMP JUMPDEST POP PUSH1 0x1 DUP1 SLOAD PUSH1 0x1 PUSH1 0x1 PUSH1 0xA0 SHL SUB NOT AND PUSH1 0x1 PUSH1 0x1 PUSH1 0xA0 SHL SUB SWAP3 SWAP1 SWAP3 AND SWAP2 SWAP1 SWAP2 OR SWAP1 SSTORE JUMP JUMPDEST PUSH1 0xB PUSH1 0x20 MSTORE PUSH0 SWAP1 DUP2 MSTORE PUSH1 0x40 SWAP1 KECCAK256 DUP1 SLOAD DUP2 SWAP1 PUSH2 0x1431 SWAP1 PUSH2 0x2840 JUMP JUMPDEST DUP1 PUSH1 0x1F ADD PUSH1 0x20 DUP1 SWAP2 DIV MUL PUSH1 0x20 ADD PUSH1 0x40 MLOAD SWAP1 DUP2 ADD PUSH1 0x40 MSTORE DUP1 SWAP3 SWAP2 SWAP1 DUP2 DUP2 MSTORE PUSH1 0x20 ADD DUP3 DUP1 SLOAD PUSH2 0x145D SWAP1 PUSH2 0x2840 JUMP JUMPDEST DUP1 ISZERO PUSH2 0x14A8 JUMPI DUP1 PUSH1 0x1F LT PUSH2 0x147F JUMPI PUSH2 0x100 DUP1 DUP4 SLOAD DIV MUL DUP4 MSTORE SWAP2 PUSH1 0x20 ADD SWAP2 PUSH2 0x14A8 JUMP JUMPDEST DUP3 ADD SWAP2 SWAP1 PUSH0 MSTORE PUSH1 0x20 PUSH0 KECCAK256 SWAP1 JUMPDEST DUP2 SLOAD DUP2 MSTORE SWAP1 PUSH1 0x1 ADD SWAP1 PUSH1 0x20 ADD DUP1 DUP4 GT PUSH2 0x148B JUMPI DUP3 SWAP1 SUB PUSH1 0x1F AND DUP3 ADD SWAP2 JUMPDEST POP POP POP PUSH1 0x1 SWAP1 SWAP4 ADD SLOAD SWAP2 SWAP3 POP POP PUSH1 0x1 PUSH1 0x1 PUSH1 0xA0 SHL SUB AND DUP3 JUMP JUMPDEST PUSH0 DUP1 MLOAD PUSH1 0x20 PUSH2 0x2A8B DUP4 CODECOPY DUP2 MLOAD SWAP2 MSTORE PUSH2 0x14D8 DUP2 PUSH2 0x1B8E JUMP JUMPDEST PUSH1 0x40 DUP1 MLOAD DUP1 DUP3 ADD DUP3 MSTORE DUP5 DUP2 MSTORE PUSH1 0x20 DUP1 DUP3 ADD DUP6 SWAP1 MSTORE PUSH1 0x7 SLOAD PUSH0 SWAP1 DUP2 MSTORE PUSH1 0xD DUP3 MSTORE SWAP3 SWAP1 SWAP3 KECCAK256 DUP2 MLOAD DUP1 MLOAD SWAP3 SWAP4 SWAP2 SWAP3 PUSH2 0x1510 SWAP3 DUP5 SWAP3 ADD SWAP1 PUSH2 0x2218 JUMP JUMPDEST POP PUSH1 0x20 SWAP2 DUP3 ADD MLOAD PUSH1 0x1 SWAP1 SWAP2 ADD SSTORE PUSH1 0x7 SLOAD PUSH1 0x40 DUP1 MLOAD SWAP2 DUP3 MSTORE SWAP2 DUP2 ADD DUP5 SWAP1 MSTORE PUSH32 0x9BECFD2B1FC8127387C5B0002A6CBC8382E6C8FB9F76DFD6CFD92CBE94383D0E SWAP2 ADD PUSH1 0x40 MLOAD DUP1 SWAP2 SUB SWAP1 LOG1 PUSH1 0x7 DUP1 SLOAD SWAP1 PUSH0 PUSH2 0x1567 DUP4 PUSH2 0x2A34 JUMP JUMPDEST SWAP2 SWAP1 POP SSTORE POP POP POP POP JUMP JUMPDEST PUSH0 DUP1 MLOAD PUSH1 0x20 PUSH2 0x2A8B DUP4 CODECOPY DUP2 MLOAD SWAP2 MSTORE PUSH2 0x1588 DUP2 PUSH2 0x1B8E JUMP JUMPDEST POP PUSH1 0x5 DUP1 SLOAD PUSH1 0x1 PUSH1 0x1 PUSH1 0xA0 SHL SUB NOT AND PUSH1 0x1 PUSH1 0x1 PUSH1 0xA0 SHL SUB SWAP3 SWAP1 SWAP3 AND SWAP2 SWAP1 SWAP2 OR SWAP1 SSTORE JUMP JUMPDEST PUSH1 0x8 PUSH1 0x20 MSTORE PUSH0 SWAP1 DUP2 MSTORE PUSH1 0x40 SWAP1 KECCAK256 DUP1 SLOAD PUSH1 0x1 DUP3 ADD DUP1 SLOAD SWAP2 SWAP3 SWAP2 PUSH2 0x15CC SWAP1 PUSH2 0x2840 JUMP JUMPDEST DUP1 PUSH1 0x1F ADD PUSH1 0x20 DUP1 SWAP2 DIV MUL PUSH1 0x20 ADD PUSH1 0x40 MLOAD SWAP1 DUP2 ADD PUSH1 0x40 MSTORE DUP1 SWAP3 SWAP2 SWAP1 DUP2 DUP2 MSTORE PUSH1 0x20 ADD DUP3 DUP1 SLOAD PUSH2 0x15F8 SWAP1 PUSH2 0x2840 JUMP JUMPDEST DUP1 ISZERO PUSH2 0x1643 JUMPI DUP1 PUSH1 0x1F LT PUSH2 0x161A JUMPI PUSH2 0x100 DUP1 DUP4 SLOAD DIV MUL DUP4 MSTORE SWAP2 PUSH1 0x20 ADD SWAP2 PUSH2 0x1643 JUMP JUMPDEST DUP3 ADD SWAP2 SWAP1 PUSH0 MSTORE PUSH1 0x20 PUSH0 KECCAK256 SWAP1 JUMPDEST DUP2 SLOAD DUP2 MSTORE SWAP1 PUSH1 0x1 ADD SWAP1 PUSH1 0x20 ADD DUP1 DUP4 GT PUSH2 0x1626 JUMPI DUP3 SWAP1 SUB PUSH1 0x1F AND DUP3 ADD SWAP2 JUMPDEST POP POP POP POP POP SWAP1 DUP1 PUSH1 0x2 ADD SLOAD SWAP1 DUP1 PUSH1 0x3 ADD SLOAD SWAP1 DUP1 PUSH1 0x4 ADD SLOAD SWAP1 DUP1 PUSH1 0x5 ADD SLOAD SWAP1 POP DUP7 JUMP JUMPDEST PUSH1 0xA PUSH1 0x20 MSTORE DUP2 PUSH0 MSTORE PUSH1 0x40 PUSH0 KECCAK256 DUP2 DUP2 SLOAD DUP2 LT PUSH2 0x167E JUMPI PUSH0 DUP1 REVERT JUMPDEST SWAP1 PUSH0 MSTORE PUSH1 0x20 PUSH0 KECCAK256 SWAP1 PUSH1 0x4 MUL ADD PUSH0 SWAP2 POP SWAP2 POP POP DUP1 PUSH0 ADD DUP1 SLOAD PUSH2 0x169E SWAP1 PUSH2 0x2840 JUMP JUMPDEST DUP1 PUSH1 0x1F ADD PUSH1 0x20 DUP1 SWAP2 DIV MUL PUSH1 0x20 ADD PUSH1 0x40 MLOAD SWAP1 DUP2 ADD PUSH1 0x40 MSTORE DUP1 SWAP3 SWAP2 SWAP1 DUP2 DUP2 MSTORE PUSH1 0x20 ADD DUP3 DUP1 SLOAD PUSH2 0x16CA SWAP1 PUSH2 0x2840 JUMP JUMPDEST DUP1 ISZERO PUSH2 0x1715 JUMPI DUP1 PUSH1 0x1F LT PUSH2 0x16EC JUMPI PUSH2 0x100 DUP1 DUP4 SLOAD DIV MUL DUP4 MSTORE SWAP2 PUSH1 0x20 ADD SWAP2 PUSH2 0x1715 JUMP JUMPDEST DUP3 ADD SWAP2 SWAP1 PUSH0 MSTORE PUSH1 0x20 PUSH0 KECCAK256 SWAP1 JUMPDEST DUP2 SLOAD DUP2 MSTORE SWAP1 PUSH1 0x1 ADD SWAP1 PUSH1 0x20 ADD DUP1 DUP4 GT PUSH2 0x16F8 JUMPI DUP3 SWAP1 SUB PUSH1 0x1F AND DUP3 ADD SWAP2 JUMPDEST POP POP POP POP POP SWAP1 DUP1 PUSH1 0x1 ADD DUP1 SLOAD PUSH2 0x172A SWAP1 PUSH2 0x2840 JUMP JUMPDEST DUP1 PUSH1 0x1F ADD PUSH1 0x20 DUP1 SWAP2 DIV MUL PUSH1 0x20 ADD PUSH1 0x40 MLOAD SWAP1 DUP2 ADD PUSH1 0x40 MSTORE DUP1 SWAP3 SWAP2 SWAP1 DUP2 DUP2 MSTORE PUSH1 0x20 ADD DUP3 DUP1 SLOAD PUSH2 0x1756 SWAP1 PUSH2 0x2840 JUMP JUMPDEST DUP1 ISZERO PUSH2 0x17A1 JUMPI DUP1 PUSH1 0x1F LT PUSH2 0x1778 JUMPI PUSH2 0x100 DUP1 DUP4 SLOAD DIV MUL DUP4 MSTORE SWAP2 PUSH1 0x20 ADD SWAP2 PUSH2 0x17A1 JUMP JUMPDEST DUP3 ADD SWAP2 SWAP1 PUSH0 MSTORE PUSH1 0x20 PUSH0 KECCAK256 SWAP1 JUMPDEST DUP2 SLOAD DUP2 MSTORE SWAP1 PUSH1 0x1 ADD SWAP1 PUSH1 0x20 ADD DUP1 DUP4 GT PUSH2 0x1784 JUMPI DUP3 SWAP1 SUB PUSH1 0x1F AND DUP3 ADD SWAP2 JUMPDEST POP POP POP POP PUSH1 0x2 DUP4 ADD SLOAD PUSH1 0x3 SWAP1 SWAP4 ADD SLOAD SWAP2 SWAP3 SWAP2 PUSH1 0xFF AND SWAP1 POP DUP5 JUMP JUMPDEST PUSH2 0x17C4 DUP3 PUSH2 0x9B4 JUMP JUMPDEST PUSH2 0x17CD DUP2 PUSH2 0x1B8E JUMP JUMPDEST PUSH2 0x9F0 DUP4 DUP4 PUSH2 0x1C39 JUMP JUMPDEST PUSH0 DUP1 MLOAD PUSH1 0x20 PUSH2 0x2A8B DUP4 CODECOPY DUP2 MLOAD SWAP2 MSTORE PUSH2 0x17EE DUP2 PUSH2 0x1B8E JUMP JUMPDEST POP PUSH1 0x2 DUP1 SLOAD PUSH1 0x1 PUSH1 0x1 PUSH1 0xA0 SHL SUB NOT AND PUSH1 0x1 PUSH1 0x1 PUSH1 0xA0 SHL SUB SWAP3 SWAP1 SWAP3 AND SWAP2 SWAP1 SWAP2 OR SWAP1 SSTORE JUMP JUMPDEST PUSH0 PUSH1 0xC DUP3 PUSH1 0x40 MLOAD PUSH2 0x1822 SWAP2 SWAP1 PUSH2 0x2835 JUMP JUMPDEST SWAP1 DUP2 MSTORE PUSH1 0x40 MLOAD SWAP1 DUP2 SWAP1 SUB PUSH1 0x20 ADD SWAP1 KECCAK256 SLOAD PUSH1 0x1 PUSH1 0x1 PUSH1 0xA0 SHL SUB AND SWAP1 POP DUP1 PUSH2 0x1881 JUMPI PUSH1 0x40 MLOAD PUSH3 0x461BCD PUSH1 0xE5 SHL DUP2 MSTORE PUSH1 0x20 PUSH1 0x4 DUP3 ADD MSTORE PUSH1 0x14 PUSH1 0x24 DUP3 ADD MSTORE PUSH20 0x11DD5A5B1908191BD95CC81B9BDD08195E1A5CDD PUSH1 0x62 SHL PUSH1 0x44 DUP3 ADD MSTORE PUSH1 0x64 ADD PUSH2 0xB91 JUMP JUMPDEST PUSH1 0x1 PUSH1 0x1 PUSH1 0xA0 SHL SUB DUP2 AND PUSH0 SWAP1 DUP2 MSTORE PUSH1 0xB PUSH1 0x20 MSTORE PUSH1 0x40 DUP2 KECCAK256 SWAP1 JUMPDEST PUSH1 0x2 DUP3 ADD SLOAD DUP2 LT ISZERO PUSH2 0x193E JUMPI CALLER PUSH1 0x1 PUSH1 0x1 PUSH1 0xA0 SHL SUB AND DUP3 PUSH1 0x2 ADD DUP3 DUP2 SLOAD DUP2 LT PUSH2 0x18C5 JUMPI PUSH2 0x18C5 PUSH2 0x280A JUMP JUMPDEST PUSH0 SWAP2 DUP3 MSTORE PUSH1 0x20 SWAP1 SWAP2 KECCAK256 ADD SLOAD PUSH1 0x1 PUSH1 0x1 PUSH1 0xA0 SHL SUB AND SUB PUSH2 0x1936 JUMPI PUSH1 0x40 MLOAD PUSH3 0x461BCD PUSH1 0xE5 SHL DUP2 MSTORE PUSH1 0x20 PUSH1 0x4 DUP3 ADD MSTORE PUSH1 0x27 PUSH1 0x24 DUP3 ADD MSTORE PUSH32 0x53656E64657220697320616C72656164792061206D656D626572206F66207468 PUSH1 0x44 DUP3 ADD MSTORE PUSH7 0x194819DD5A5B19 PUSH1 0xCA SHL PUSH1 0x64 DUP3 ADD MSTORE PUSH1 0x84 ADD PUSH2 0xB91 JUMP JUMPDEST PUSH1 0x1 ADD PUSH2 0x189A JUMP JUMPDEST POP PUSH1 0x2 ADD DUP1 SLOAD PUSH1 0x1 DUP2 ADD DUP3 SSTORE PUSH0 SWAP2 DUP3 MSTORE PUSH1 0x20 SWAP1 SWAP2 KECCAK256 ADD DUP1 SLOAD PUSH1 0x1 PUSH1 0x1 PUSH1 0xA0 SHL SUB NOT AND CALLER OR SWAP1 SSTORE POP POP JUMP JUMPDEST PUSH0 DUP1 MLOAD PUSH1 0x20 PUSH2 0x2A8B DUP4 CODECOPY DUP2 MLOAD SWAP2 MSTORE PUSH2 0x197F DUP2 PUSH2 0x1B8E JUMP JUMPDEST POP PUSH1 0x4 DUP1 SLOAD PUSH1 0x1 PUSH1 0x1 PUSH1 0xA0 SHL SUB NOT AND PUSH1 0x1 PUSH1 0x1 PUSH1 0xA0 SHL SUB SWAP3 SWAP1 SWAP3 AND SWAP2 SWAP1 SWAP2 OR SWAP1 SSTORE JUMP JUMPDEST PUSH32 0xF0C57E16840DF040F15088DC2F81FE391C3923BEC73E23A9662EFC9C229C6A00 DUP1 SLOAD PUSH1 0x1 PUSH1 0x40 SHL DUP2 DIV PUSH1 0xFF AND ISZERO SWAP1 PUSH8 0xFFFFFFFFFFFFFFFF AND PUSH0 DUP2 ISZERO DUP1 ISZERO PUSH2 0x19E7 JUMPI POP DUP3 JUMPDEST SWAP1 POP PUSH0 DUP3 PUSH8 0xFFFFFFFFFFFFFFFF AND PUSH1 0x1 EQ DUP1 ISZERO PUSH2 0x1A03 JUMPI POP ADDRESS EXTCODESIZE ISZERO JUMPDEST SWAP1 POP DUP2 ISZERO DUP1 ISZERO PUSH2 0x1A11 JUMPI POP DUP1 ISZERO JUMPDEST ISZERO PUSH2 0x1A2F JUMPI PUSH1 0x40 MLOAD PUSH4 0xF92EE8A9 PUSH1 0xE0 SHL DUP2 MSTORE PUSH1 0x4 ADD PUSH1 0x40 MLOAD DUP1 SWAP2 SUB SWAP1 REVERT JUMPDEST DUP5 SLOAD PUSH8 0xFFFFFFFFFFFFFFFF NOT AND PUSH1 0x1 OR DUP6 SSTORE DUP4 ISZERO PUSH2 0x1A59 JUMPI DUP5 SLOAD PUSH1 0xFF PUSH1 0x40 SHL NOT AND PUSH1 0x1 PUSH1 0x40 SHL OR DUP6 SSTORE JUMPDEST PUSH2 0x1A61 PUSH2 0x1F2E JUMP JUMPDEST PUSH2 0x1A69 PUSH2 0x1F3E JUMP JUMPDEST PUSH2 0x1A71 PUSH2 0x1F3E JUMP JUMPDEST PUSH2 0x1A7B PUSH0 DUP16 PUSH2 0x1B98 JUMP JUMPDEST POP PUSH2 0x1A93 PUSH0 DUP1 MLOAD PUSH1 0x20 PUSH2 0x2ACB DUP4 CODECOPY DUP2 MLOAD SWAP2 MSTORE DUP15 PUSH2 0x1B98 JUMP JUMPDEST POP PUSH2 0x1ABE PUSH32 0x189AB7A9244DF0848122154315AF71FE140F3DB0FE014031783B0946B8C9D2E3 DUP14 PUSH2 0x1B98 JUMP JUMPDEST POP PUSH2 0x1AD6 PUSH0 DUP1 MLOAD PUSH1 0x20 PUSH2 0x2A8B DUP4 CODECOPY DUP2 MLOAD SWAP2 MSTORE DUP16 PUSH2 0x1B98 JUMP JUMPDEST POP PUSH0 DUP1 SLOAD PUSH1 0x1 PUSH1 0x1 PUSH1 0xA0 SHL SUB NOT SWAP1 DUP2 AND PUSH1 0x1 PUSH1 0x1 PUSH1 0xA0 SHL SUB DUP15 DUP2 AND SWAP2 SWAP1 SWAP2 OR SWAP1 SWAP3 SSTORE PUSH1 0x1 DUP1 SLOAD DUP3 AND DUP14 DUP5 AND OR SWAP1 SSTORE PUSH1 0x2 DUP1 SLOAD DUP3 AND DUP13 DUP5 AND OR SWAP1 SSTORE PUSH1 0x3 DUP1 SLOAD DUP3 AND DUP12 DUP5 AND OR SWAP1 SSTORE PUSH1 0x4 DUP1 SLOAD DUP3 AND DUP11 DUP5 AND OR SWAP1 SSTORE PUSH1 0x5 DUP1 SLOAD SWAP1 SWAP2 AND SWAP2 DUP9 AND SWAP2 SWAP1 SWAP2 OR SWAP1 SSTORE DUP4 ISZERO PUSH2 0x1B7E JUMPI DUP5 SLOAD PUSH1 0xFF PUSH1 0x40 SHL NOT AND DUP6 SSTORE PUSH1 0x40 MLOAD PUSH1 0x1 DUP2 MSTORE PUSH32 0xC7F505B2F371AE2175EE4913F4499E1F2633A7B5936321EED1CDAEB6115181D2 SWAP1 PUSH1 0x20 ADD PUSH1 0x40 MLOAD DUP1 SWAP2 SUB SWAP1 LOG1 JUMPDEST POP POP POP POP POP POP POP POP POP POP POP POP POP POP JUMP JUMPDEST PUSH2 0xB3E DUP2 CALLER PUSH2 0x1F46 JUMP JUMPDEST PUSH0 PUSH0 DUP1 MLOAD PUSH1 0x20 PUSH2 0x2AEB DUP4 CODECOPY DUP2 MLOAD SWAP2 MSTORE PUSH2 0x1BB1 DUP5 DUP5 PUSH2 0x136D JUMP JUMPDEST PUSH2 0x1C30 JUMPI PUSH0 DUP5 DUP2 MSTORE PUSH1 0x20 DUP3 DUP2 MSTORE PUSH1 0x40 DUP1 DUP4 KECCAK256 PUSH1 0x1 PUSH1 0x1 PUSH1 0xA0 SHL SUB DUP8 AND DUP5 MSTORE SWAP1 SWAP2 MSTORE SWAP1 KECCAK256 DUP1 SLOAD PUSH1 0xFF NOT AND PUSH1 0x1 OR SWAP1 SSTORE PUSH2 0x1BE6 CALLER SWAP1 JUMP JUMPDEST PUSH1 0x1 PUSH1 0x1 PUSH1 0xA0 SHL SUB AND DUP4 PUSH1 0x1 PUSH1 0x1 PUSH1 0xA0 SHL SUB AND DUP6 PUSH32 0x2F8788117E7EFF1D82E926EC794901D17C78024A50270940304540A733656F0D PUSH1 0x40 MLOAD PUSH1 0x40 MLOAD DUP1 SWAP2 SUB SWAP1 LOG4 PUSH1 0x1 SWAP2 POP POP PUSH2 0x87A JUMP JUMPDEST PUSH0 SWAP2 POP POP PUSH2 0x87A JUMP JUMPDEST PUSH0 PUSH0 DUP1 MLOAD PUSH1 0x20 PUSH2 0x2AEB DUP4 CODECOPY DUP2 MLOAD SWAP2 MSTORE PUSH2 0x1C52 DUP5 DUP5 PUSH2 0x136D JUMP JUMPDEST ISZERO PUSH2 0x1C30 JUMPI PUSH0 DUP5 DUP2 MSTORE PUSH1 0x20 DUP3 DUP2 MSTORE PUSH1 0x40 DUP1 DUP4 KECCAK256 PUSH1 0x1 PUSH1 0x1 PUSH1 0xA0 SHL SUB DUP8 AND DUP1 DUP6 MSTORE SWAP3 MSTORE DUP1 DUP4 KECCAK256 DUP1 SLOAD PUSH1 0xFF NOT AND SWAP1 SSTORE MLOAD CALLER SWAP3 DUP8 SWAP2 PUSH32 0xF6391F5C32D9C69D2A47EA670B442974B53935D1EDC7FD64EB21E047A839171B SWAP2 SWAP1 LOG4 PUSH1 0x1 SWAP2 POP POP PUSH2 0x87A JUMP JUMPDEST PUSH2 0x1CBA PUSH2 0x1F7F JUMP JUMPDEST PUSH0 DUP1 MLOAD PUSH1 0x20 PUSH2 0x2B0B DUP4 CODECOPY DUP2 MLOAD SWAP2 MSTORE DUP1 SLOAD PUSH1 0xFF NOT AND DUP2 SSTORE PUSH32 0x5DB9EE0A495BF2E6FF9C91A7834C1BA4FDD244A5E8AA4E537BD38AEAE4B073AA CALLER JUMPDEST PUSH1 0x40 MLOAD PUSH1 0x1 PUSH1 0x1 PUSH1 0xA0 SHL SUB SWAP1 SWAP2 AND DUP2 MSTORE PUSH1 0x20 ADD PUSH1 0x40 MLOAD DUP1 SWAP2 SUB SWAP1 LOG1 POP JUMP JUMPDEST ADDRESS PUSH1 0x1 PUSH1 0x1 PUSH1 0xA0 SHL SUB PUSH32 0x0 AND EQ DUP1 PUSH2 0x1D97 JUMPI POP PUSH32 0x0 PUSH1 0x1 PUSH1 0x1 PUSH1 0xA0 SHL SUB AND PUSH2 0x1D8B PUSH0 DUP1 MLOAD PUSH1 0x20 PUSH2 0x2AAB DUP4 CODECOPY DUP2 MLOAD SWAP2 MSTORE SLOAD PUSH1 0x1 PUSH1 0x1 PUSH1 0xA0 SHL SUB AND SWAP1 JUMP JUMPDEST PUSH1 0x1 PUSH1 0x1 PUSH1 0xA0 SHL SUB AND EQ ISZERO JUMPDEST ISZERO PUSH2 0x1DB5 JUMPI PUSH1 0x40 MLOAD PUSH4 0x703E46DD PUSH1 0xE1 SHL DUP2 MSTORE PUSH1 0x4 ADD PUSH1 0x40 MLOAD DUP1 SWAP2 SUB SWAP1 REVERT JUMPDEST JUMP JUMPDEST PUSH32 0x189AB7A9244DF0848122154315AF71FE140F3DB0FE014031783B0946B8C9D2E3 PUSH2 0x9B0 DUP2 PUSH2 0x1B8E JUMP JUMPDEST DUP2 PUSH1 0x1 PUSH1 0x1 PUSH1 0xA0 SHL SUB AND PUSH4 0x52D1902D PUSH1 0x40 MLOAD DUP2 PUSH4 0xFFFFFFFF AND PUSH1 0xE0 SHL DUP2 MSTORE PUSH1 0x4 ADD PUSH1 0x20 PUSH1 0x40 MLOAD DUP1 DUP4 SUB DUP2 DUP7 GAS STATICCALL SWAP3 POP POP POP DUP1 ISZERO PUSH2 0x1E3B JUMPI POP PUSH1 0x40 DUP1 MLOAD PUSH1 0x1F RETURNDATASIZE SWAP1 DUP2 ADD PUSH1 0x1F NOT AND DUP3 ADD SWAP1 SWAP3 MSTORE PUSH2 0x1E38 SWAP2 DUP2 ADD SWAP1 PUSH2 0x2A73 JUMP JUMPDEST PUSH1 0x1 JUMPDEST PUSH2 0x1E63 JUMPI PUSH1 0x40 MLOAD PUSH4 0x4C9C8CE3 PUSH1 0xE0 SHL DUP2 MSTORE PUSH1 0x1 PUSH1 0x1 PUSH1 0xA0 SHL SUB DUP4 AND PUSH1 0x4 DUP3 ADD MSTORE PUSH1 0x24 ADD PUSH2 0xB91 JUMP JUMPDEST PUSH0 DUP1 MLOAD PUSH1 0x20 PUSH2 0x2AAB DUP4 CODECOPY DUP2 MLOAD SWAP2 MSTORE DUP2 EQ PUSH2 0x1E93 JUMPI PUSH1 0x40 MLOAD PUSH4 0x2A875269 PUSH1 0xE2 SHL DUP2 MSTORE PUSH1 0x4 DUP2 ADD DUP3 SWAP1 MSTORE PUSH1 0x24 ADD PUSH2 0xB91 JUMP JUMPDEST PUSH2 0xB1A DUP4 DUP4 PUSH2 0x1FAE JUMP JUMPDEST ADDRESS PUSH1 0x1 PUSH1 0x1 PUSH1 0xA0 SHL SUB PUSH32 0x0 AND EQ PUSH2 0x1DB5 JUMPI PUSH1 0x40 MLOAD PUSH4 0x703E46DD PUSH1 0xE1 SHL DUP2 MSTORE PUSH1 0x4 ADD PUSH1 0x40 MLOAD DUP1 SWAP2 SUB SWAP1 REVERT JUMPDEST PUSH2 0x1EEE PUSH2 0x2003 JUMP JUMPDEST PUSH0 DUP1 MLOAD PUSH1 0x20 PUSH2 0x2B0B DUP4 CODECOPY DUP2 MLOAD SWAP2 MSTORE DUP1 SLOAD PUSH1 0xFF NOT AND PUSH1 0x1 OR DUP2 SSTORE PUSH32 0x62E78CEA01BEE320CD4E420270B5EA74000D11B0C9F74754EBDBFC544B05A258 CALLER PUSH2 0x1CF3 JUMP JUMPDEST PUSH2 0x1F36 PUSH2 0x2033 JUMP JUMPDEST PUSH2 0x1DB5 PUSH2 0x207C JUMP JUMPDEST PUSH2 0x1DB5 PUSH2 0x2033 JUMP JUMPDEST PUSH2 0x1F50 DUP3 DUP3 PUSH2 0x136D JUMP JUMPDEST PUSH2 0x9B0 JUMPI PUSH1 0x40 MLOAD PUSH4 0xE2517D3F PUSH1 0xE0 SHL DUP2 MSTORE PUSH1 0x1 PUSH1 0x1 PUSH1 0xA0 SHL SUB DUP3 AND PUSH1 0x4 DUP3 ADD MSTORE PUSH1 0x24 DUP2 ADD DUP4 SWAP1 MSTORE PUSH1 0x44 ADD PUSH2 0xB91 JUMP JUMPDEST PUSH0 DUP1 MLOAD PUSH1 0x20 PUSH2 0x2B0B DUP4 CODECOPY DUP2 MLOAD SWAP2 MSTORE SLOAD PUSH1 0xFF AND PUSH2 0x1DB5 JUMPI PUSH1 0x40 MLOAD PUSH4 0x8DFC202B PUSH1 0xE0 SHL DUP2 MSTORE PUSH1 0x4 ADD PUSH1 0x40 MLOAD DUP1 SWAP2 SUB SWAP1 REVERT JUMPDEST PUSH2 0x1FB7 DUP3 PUSH2 0x209C JUMP JUMPDEST PUSH1 0x40 MLOAD PUSH1 0x1 PUSH1 0x1 PUSH1 0xA0 SHL SUB DUP4 AND SWAP1 PUSH32 0xBC7CD75A20EE27FD9ADEBAB32041F755214DBC6BFFA90CC0225B39DA2E5C2D3B SWAP1 PUSH0 SWAP1 LOG2 DUP1 MLOAD ISZERO PUSH2 0x1FFB JUMPI PUSH2 0xB1A DUP3 DUP3 PUSH2 0x20FF JUMP JUMPDEST PUSH2 0x9B0 PUSH2 0x2171 JUMP JUMPDEST PUSH0 DUP1 MLOAD PUSH1 0x20 PUSH2 0x2B0B DUP4 CODECOPY DUP2 MLOAD SWAP2 MSTORE SLOAD PUSH1 0xFF AND ISZERO PUSH2 0x1DB5 JUMPI PUSH1 0x40 MLOAD PUSH4 0xD93C0665 PUSH1 0xE0 SHL DUP2 MSTORE PUSH1 0x4 ADD PUSH1 0x40 MLOAD DUP1 SWAP2 SUB SWAP1 REVERT JUMPDEST PUSH32 0xF0C57E16840DF040F15088DC2F81FE391C3923BEC73E23A9662EFC9C229C6A00 SLOAD PUSH1 0x1 PUSH1 0x40 SHL SWAP1 DIV PUSH1 0xFF AND PUSH2 0x1DB5 JUMPI PUSH1 0x40 MLOAD PUSH4 0x1AFCD79F PUSH1 0xE3 SHL DUP2 MSTORE PUSH1 0x4 ADD PUSH1 0x40 MLOAD DUP1 SWAP2 SUB SWAP1 REVERT JUMPDEST PUSH2 0x2084 PUSH2 0x2033 JUMP JUMPDEST PUSH0 DUP1 MLOAD PUSH1 0x20 PUSH2 0x2B0B DUP4 CODECOPY DUP2 MLOAD SWAP2 MSTORE DUP1 SLOAD PUSH1 0xFF NOT AND SWAP1 SSTORE JUMP JUMPDEST DUP1 PUSH1 0x1 PUSH1 0x1 PUSH1 0xA0 SHL SUB AND EXTCODESIZE PUSH0 SUB PUSH2 0x20D1 JUMPI PUSH1 0x40 MLOAD PUSH4 0x4C9C8CE3 PUSH1 0xE0 SHL DUP2 MSTORE PUSH1 0x1 PUSH1 0x1 PUSH1 0xA0 SHL SUB DUP3 AND PUSH1 0x4 DUP3 ADD MSTORE PUSH1 0x24 ADD PUSH2 0xB91 JUMP JUMPDEST PUSH0 DUP1 MLOAD PUSH1 0x20 PUSH2 0x2AAB DUP4 CODECOPY DUP2 MLOAD SWAP2 MSTORE DUP1 SLOAD PUSH1 0x1 PUSH1 0x1 PUSH1 0xA0 SHL SUB NOT AND PUSH1 0x1 PUSH1 0x1 PUSH1 0xA0 SHL SUB SWAP3 SWAP1 SWAP3 AND SWAP2 SWAP1 SWAP2 OR SWAP1 SSTORE JUMP JUMPDEST PUSH1 0x60 PUSH0 DUP1 DUP5 PUSH1 0x1 PUSH1 0x1 PUSH1 0xA0 SHL SUB AND DUP5 PUSH1 0x40 MLOAD PUSH2 0x211B SWAP2 SWAP1 PUSH2 0x2835 JUMP JUMPDEST PUSH0 PUSH1 0x40 MLOAD DUP1 DUP4 SUB DUP2 DUP6 GAS DELEGATECALL SWAP2 POP POP RETURNDATASIZE DUP1 PUSH0 DUP2 EQ PUSH2 0x2153 JUMPI PUSH1 0x40 MLOAD SWAP2 POP PUSH1 0x1F NOT PUSH1 0x3F RETURNDATASIZE ADD AND DUP3 ADD PUSH1 0x40 MSTORE RETURNDATASIZE DUP3 MSTORE RETURNDATASIZE PUSH0 PUSH1 0x20 DUP5 ADD RETURNDATACOPY PUSH2 0x2158 JUMP JUMPDEST PUSH1 0x60 SWAP2 POP JUMPDEST POP SWAP2 POP SWAP2 POP PUSH2 0x2168 DUP6 DUP4 DUP4 PUSH2 0x2190 JUMP JUMPDEST SWAP6 SWAP5 POP POP POP POP POP JUMP JUMPDEST CALLVALUE ISZERO PUSH2 0x1DB5 JUMPI PUSH1 0x40 MLOAD PUSH4 0xB398979F PUSH1 0xE0 SHL DUP2 MSTORE PUSH1 0x4 ADD PUSH1 0x40 MLOAD DUP1 SWAP2 SUB SWAP1 REVERT JUMPDEST PUSH1 0x60 DUP3 PUSH2 0x21A5 JUMPI PUSH2 0x21A0 DUP3 PUSH2 0x21EF JUMP JUMPDEST PUSH2 0x21E8 JUMP JUMPDEST DUP2 MLOAD ISZERO DUP1 ISZERO PUSH2 0x21BC JUMPI POP PUSH1 0x1 PUSH1 0x1 PUSH1 0xA0 SHL SUB DUP5 AND EXTCODESIZE ISZERO JUMPDEST ISZERO PUSH2 0x21E5 JUMPI PUSH1 0x40 MLOAD PUSH4 0x9996B315 PUSH1 0xE0 SHL DUP2 MSTORE PUSH1 0x1 PUSH1 0x1 PUSH1 0xA0 SHL SUB DUP6 AND PUSH1 0x4 DUP3 ADD MSTORE PUSH1 0x24 ADD PUSH2 0xB91 JUMP JUMPDEST POP DUP1 JUMPDEST SWAP4 SWAP3 POP POP POP JUMP JUMPDEST DUP1 MLOAD ISZERO PUSH2 0x21FF JUMPI DUP1 MLOAD DUP1 DUP3 PUSH1 0x20 ADD REVERT JUMPDEST PUSH1 0x40 MLOAD PUSH4 0xA12F521 PUSH1 0xE1 SHL DUP2 MSTORE PUSH1 0x4 ADD PUSH1 0x40 MLOAD DUP1 SWAP2 SUB SWAP1 REVERT JUMPDEST DUP3 DUP1 SLOAD DUP3 DUP3 SSTORE SWAP1 PUSH0 MSTORE PUSH1 0x20 PUSH0 KECCAK256 SWAP1 DUP2 ADD SWAP3 DUP3 ISZERO PUSH2 0x2251 JUMPI SWAP2 PUSH1 0x20 MUL DUP3 ADD JUMPDEST DUP3 DUP2 GT ISZERO PUSH2 0x2251 JUMPI DUP3 MLOAD DUP3 SSTORE SWAP2 PUSH1 0x20 ADD SWAP2 SWAP1 PUSH1 0x1 ADD SWAP1 PUSH2 0x2236 JUMP JUMPDEST POP PUSH2 0x225D SWAP3 SWAP2 POP PUSH2 0x22B4 JUMP JUMPDEST POP SWAP1 JUMP JUMPDEST DUP3 DUP1 SLOAD DUP3 DUP3 SSTORE SWAP1 PUSH0 MSTORE PUSH1 0x20 PUSH0 KECCAK256 SWAP1 DUP2 ADD SWAP3 DUP3 ISZERO PUSH2 0x2251 JUMPI SWAP2 PUSH1 0x20 MUL DUP3 ADD JUMPDEST DUP3 DUP2 GT ISZERO PUSH2 0x2251 JUMPI DUP3 MLOAD DUP3 SLOAD PUSH1 0x1 PUSH1 0x1 PUSH1 0xA0 SHL SUB NOT AND PUSH1 0x1 PUSH1 0x1 PUSH1 0xA0 SHL SUB SWAP1 SWAP2 AND OR DUP3 SSTORE PUSH1 0x20 SWAP1 SWAP3 ADD SWAP2 PUSH1 0x1 SWAP1 SWAP2 ADD SWAP1 PUSH2 0x227F JUMP JUMPDEST JUMPDEST DUP1 DUP3 GT ISZERO PUSH2 0x225D JUMPI PUSH0 DUP2 SSTORE PUSH1 0x1 ADD PUSH2 0x22B5 JUMP JUMPDEST PUSH0 PUSH1 0x20 DUP3 DUP5 SUB SLT ISZERO PUSH2 0x22D8 JUMPI PUSH0 DUP1 REVERT JUMPDEST DUP2 CALLDATALOAD PUSH1 0x1 PUSH1 0x1 PUSH1 0xE0 SHL SUB NOT DUP2 AND DUP2 EQ PUSH2 0x21E8 JUMPI PUSH0 DUP1 REVERT JUMPDEST PUSH4 0x4E487B71 PUSH1 0xE0 SHL PUSH0 MSTORE PUSH1 0x41 PUSH1 0x4 MSTORE PUSH1 0x24 PUSH0 REVERT JUMPDEST PUSH1 0x40 MLOAD PUSH1 0x1F DUP3 ADD PUSH1 0x1F NOT AND DUP2 ADD PUSH8 0xFFFFFFFFFFFFFFFF DUP2 GT DUP3 DUP3 LT OR ISZERO PUSH2 0x232C JUMPI PUSH2 0x232C PUSH2 0x22EF JUMP JUMPDEST PUSH1 0x40 MSTORE SWAP2 SWAP1 POP JUMP JUMPDEST PUSH0 PUSH8 0xFFFFFFFFFFFFFFFF DUP4 GT ISZERO PUSH2 0x234D JUMPI PUSH2 0x234D PUSH2 0x22EF JUMP JUMPDEST PUSH2 0x2360 PUSH1 0x1F DUP5 ADD PUSH1 0x1F NOT AND PUSH1 0x20 ADD PUSH2 0x2303 JUMP JUMPDEST SWAP1 POP DUP3 DUP2 MSTORE DUP4 DUP4 DUP4 ADD GT ISZERO PUSH2 0x2373 JUMPI PUSH0 DUP1 REVERT JUMPDEST DUP3 DUP3 PUSH1 0x20 DUP4 ADD CALLDATACOPY PUSH0 PUSH1 0x20 DUP5 DUP4 ADD ADD MSTORE SWAP4 SWAP3 POP POP POP JUMP JUMPDEST PUSH0 DUP3 PUSH1 0x1F DUP4 ADD SLT PUSH2 0x2398 JUMPI PUSH0 DUP1 REVERT JUMPDEST PUSH2 0x21E8 DUP4 DUP4 CALLDATALOAD PUSH1 0x20 DUP6 ADD PUSH2 0x2334 JUMP JUMPDEST PUSH0 PUSH1 0x20 DUP3 DUP5 SUB SLT ISZERO PUSH2 0x23B7 JUMPI PUSH0 DUP1 REVERT JUMPDEST DUP2 CALLDATALOAD PUSH8 0xFFFFFFFFFFFFFFFF DUP2 GT ISZERO PUSH2 0x23CD JUMPI PUSH0 DUP1 REVERT JUMPDEST PUSH2 0x23D9 DUP5 DUP3 DUP6 ADD PUSH2 0x2389 JUMP JUMPDEST SWAP5 SWAP4 POP POP POP POP JUMP JUMPDEST PUSH0 PUSH1 0x20 DUP3 DUP5 SUB SLT ISZERO PUSH2 0x23F1 JUMPI PUSH0 DUP1 REVERT JUMPDEST POP CALLDATALOAD SWAP2 SWAP1 POP JUMP JUMPDEST DUP1 CALLDATALOAD PUSH1 0x1 PUSH1 0x1 PUSH1 0xA0 SHL SUB DUP2 AND DUP2 EQ PUSH2 0x240E JUMPI PUSH0 DUP1 REVERT JUMPDEST SWAP2 SWAP1 POP JUMP JUMPDEST PUSH0 DUP1 PUSH1 0x40 DUP4 DUP6 SUB SLT ISZERO PUSH2 0x2424 JUMPI PUSH0 DUP1 REVERT JUMPDEST DUP3 CALLDATALOAD SWAP2 POP PUSH2 0x2434 PUSH1 0x20 DUP5 ADD PUSH2 0x23F8 JUMP JUMPDEST SWAP1 POP SWAP3 POP SWAP3 SWAP1 POP JUMP JUMPDEST PUSH0 DUP1 PUSH0 DUP1 PUSH0 PUSH1 0xA0 DUP7 DUP9 SUB SLT ISZERO PUSH2 0x2451 JUMPI PUSH0 DUP1 REVERT JUMPDEST DUP6 CALLDATALOAD PUSH8 0xFFFFFFFFFFFFFFFF DUP2 GT ISZERO PUSH2 0x2467 JUMPI PUSH0 DUP1 REVERT JUMPDEST PUSH2 0x2473 DUP9 DUP3 DUP10 ADD PUSH2 0x2389 JUMP JUMPDEST SWAP9 PUSH1 0x20 DUP9 ADD CALLDATALOAD SWAP9 POP PUSH1 0x40 DUP9 ADD CALLDATALOAD SWAP8 PUSH1 0x60 DUP2 ADD CALLDATALOAD SWAP8 POP PUSH1 0x80 ADD CALLDATALOAD SWAP6 POP SWAP4 POP POP POP POP JUMP JUMPDEST PUSH0 PUSH1 0x20 DUP3 DUP5 SUB SLT ISZERO PUSH2 0x24A5 JUMPI PUSH0 DUP1 REVERT JUMPDEST PUSH2 0x21E8 DUP3 PUSH2 0x23F8 JUMP JUMPDEST PUSH0 DUP1 PUSH1 0x40 DUP4 DUP6 SUB SLT ISZERO PUSH2 0x24BF JUMPI PUSH0 DUP1 REVERT JUMPDEST PUSH2 0x24C8 DUP4 PUSH2 0x23F8 JUMP JUMPDEST SWAP2 POP PUSH1 0x20 DUP4 ADD CALLDATALOAD PUSH8 0xFFFFFFFFFFFFFFFF DUP2 GT ISZERO PUSH2 0x24E3 JUMPI PUSH0 DUP1 REVERT JUMPDEST DUP4 ADD PUSH1 0x1F DUP2 ADD DUP6 SGT PUSH2 0x24F3 JUMPI PUSH0 DUP1 REVERT JUMPDEST PUSH2 0x2502 DUP6 DUP3 CALLDATALOAD PUSH1 0x20 DUP5 ADD PUSH2 0x2334 JUMP JUMPDEST SWAP2 POP POP SWAP3 POP SWAP3 SWAP1 POP JUMP JUMPDEST PUSH0 DUP1 PUSH1 0x40 DUP4 DUP6 SUB SLT ISZERO PUSH2 0x251D JUMPI PUSH0 DUP1 REVERT JUMPDEST DUP3 CALLDATALOAD PUSH8 0xFFFFFFFFFFFFFFFF DUP2 GT ISZERO PUSH2 0x2533 JUMPI PUSH0 DUP1 REVERT JUMPDEST PUSH2 0x253F DUP6 DUP3 DUP7 ADD PUSH2 0x2389 JUMP JUMPDEST SWAP3 POP POP PUSH2 0x2434 PUSH1 0x20 DUP5 ADD PUSH2 0x23F8 JUMP JUMPDEST PUSH0 DUP1 PUSH0 PUSH1 0x60 DUP5 DUP7 SUB SLT ISZERO PUSH2 0x2560 JUMPI PUSH0 DUP1 REVERT JUMPDEST DUP4 CALLDATALOAD PUSH8 0xFFFFFFFFFFFFFFFF DUP1 DUP3 GT ISZERO PUSH2 0x2577 JUMPI PUSH0 DUP1 REVERT JUMPDEST PUSH2 0x2583 DUP8 DUP4 DUP9 ADD PUSH2 0x2389 JUMP JUMPDEST SWAP5 POP PUSH1 0x20 DUP7 ADD CALLDATALOAD SWAP2 POP DUP1 DUP3 GT ISZERO PUSH2 0x2598 JUMPI PUSH0 DUP1 REVERT JUMPDEST POP PUSH2 0x25A5 DUP7 DUP3 DUP8 ADD PUSH2 0x2389 JUMP JUMPDEST SWAP3 POP POP PUSH1 0x40 DUP5 ADD CALLDATALOAD SWAP1 POP SWAP3 POP SWAP3 POP SWAP3 JUMP JUMPDEST PUSH0 DUP2 MLOAD DUP1 DUP5 MSTORE DUP1 PUSH1 0x20 DUP5 ADD PUSH1 0x20 DUP7 ADD MCOPY PUSH0 PUSH1 0x20 DUP3 DUP7 ADD ADD MSTORE PUSH1 0x20 PUSH1 0x1F NOT PUSH1 0x1F DUP4 ADD AND DUP6 ADD ADD SWAP2 POP POP SWAP3 SWAP2 POP POP JUMP JUMPDEST PUSH1 0x40 DUP2 MSTORE PUSH0 PUSH2 0x25F6 PUSH1 0x40 DUP4 ADD DUP6 PUSH2 0x25B6 JUMP JUMPDEST SWAP1 POP PUSH1 0x1 DUP1 PUSH1 0xA0 SHL SUB DUP4 AND PUSH1 0x20 DUP4 ADD MSTORE SWAP4 SWAP3 POP POP POP JUMP JUMPDEST PUSH0 DUP1 PUSH1 0x40 DUP4 DUP6 SUB SLT ISZERO PUSH2 0x261E JUMPI PUSH0 DUP1 REVERT JUMPDEST DUP3 CALLDATALOAD PUSH8 0xFFFFFFFFFFFFFFFF DUP1 DUP3 GT ISZERO PUSH2 0x2635 JUMPI PUSH0 DUP1 REVERT JUMPDEST DUP2 DUP6 ADD SWAP2 POP DUP6 PUSH1 0x1F DUP4 ADD SLT PUSH2 0x2648 JUMPI PUSH0 DUP1 REVERT JUMPDEST DUP2 CALLDATALOAD PUSH1 0x20 DUP3 DUP3 GT ISZERO PUSH2 0x265C JUMPI PUSH2 0x265C PUSH2 0x22EF JUMP JUMPDEST DUP2 PUSH1 0x5 SHL SWAP3 POP PUSH2 0x266D DUP2 DUP5 ADD PUSH2 0x2303 JUMP JUMPDEST DUP3 DUP2 MSTORE SWAP3 DUP5 ADD DUP2 ADD SWAP3 DUP2 DUP2 ADD SWAP1 DUP10 DUP6 GT ISZERO PUSH2 0x2686 JUMPI PUSH0 DUP1 REVERT JUMPDEST SWAP5 DUP3 ADD SWAP5 JUMPDEST DUP5 DUP7 LT ISZERO PUSH2 0x26A4 JUMPI DUP6 CALLDATALOAD DUP3 MSTORE SWAP5 DUP3 ADD SWAP5 SWAP1 DUP3 ADD SWAP1 PUSH2 0x268B JUMP JUMPDEST SWAP10 SWAP8 SWAP1 SWAP2 ADD CALLDATALOAD SWAP8 POP POP POP POP POP POP POP JUMP JUMPDEST PUSH1 0x20 DUP2 MSTORE PUSH0 PUSH2 0x21E8 PUSH1 0x20 DUP4 ADD DUP5 PUSH2 0x25B6 JUMP JUMPDEST DUP7 DUP2 MSTORE PUSH1 0xC0 PUSH1 0x20 DUP3 ADD MSTORE PUSH0 PUSH2 0x26DE PUSH1 0xC0 DUP4 ADD DUP9 PUSH2 0x25B6 JUMP JUMPDEST SWAP1 POP DUP6 PUSH1 0x40 DUP4 ADD MSTORE DUP5 PUSH1 0x60 DUP4 ADD MSTORE DUP4 PUSH1 0x80 DUP4 ADD MSTORE DUP3 PUSH1 0xA0 DUP4 ADD MSTORE SWAP8 SWAP7 POP POP POP POP POP POP POP JUMP JUMPDEST PUSH0 DUP1 PUSH1 0x40 DUP4 DUP6 SUB SLT ISZERO PUSH2 0x2714 JUMPI PUSH0 DUP1 REVERT JUMPDEST PUSH2 0x271D DUP4 PUSH2 0x23F8 JUMP JUMPDEST SWAP5 PUSH1 0x20 SWAP4 SWAP1 SWAP4 ADD CALLDATALOAD SWAP4 POP POP POP JUMP JUMPDEST PUSH1 0x80 DUP2 MSTORE PUSH0 PUSH2 0x273D PUSH1 0x80 DUP4 ADD DUP8 PUSH2 0x25B6 JUMP JUMPDEST DUP3 DUP2 SUB PUSH1 0x20 DUP5 ADD MSTORE PUSH2 0x274F DUP2 DUP8 PUSH2 0x25B6 JUMP JUMPDEST PUSH1 0x40 DUP5 ADD SWAP6 SWAP1 SWAP6 MSTORE POP POP SWAP1 ISZERO ISZERO PUSH1 0x60 SWAP1 SWAP2 ADD MSTORE SWAP3 SWAP2 POP POP JUMP JUMPDEST PUSH0 DUP1 PUSH0 DUP1 PUSH0 DUP1 PUSH0 DUP1 PUSH0 PUSH2 0x120 DUP11 DUP13 SUB SLT ISZERO PUSH2 0x2781 JUMPI PUSH0 DUP1 REVERT JUMPDEST PUSH2 0x278A DUP11 PUSH2 0x23F8 JUMP JUMPDEST SWAP9 POP PUSH2 0x2798 PUSH1 0x20 DUP12 ADD PUSH2 0x23F8 JUMP JUMPDEST SWAP8 POP PUSH2 0x27A6 PUSH1 0x40 DUP12 ADD PUSH2 0x23F8 JUMP JUMPDEST SWAP7 POP PUSH2 0x27B4 PUSH1 0x60 DUP12 ADD PUSH2 0x23F8 JUMP JUMPDEST SWAP6 POP PUSH2 0x27C2 PUSH1 0x80 DUP12 ADD PUSH2 0x23F8 JUMP JUMPDEST SWAP5 POP PUSH2 0x27D0 PUSH1 0xA0 DUP12 ADD PUSH2 0x23F8 JUMP JUMPDEST SWAP4 POP PUSH2 0x27DE PUSH1 0xC0 DUP12 ADD PUSH2 0x23F8 JUMP JUMPDEST SWAP3 POP PUSH2 0x27EC PUSH1 0xE0 DUP12 ADD PUSH2 0x23F8 JUMP JUMPDEST SWAP2 POP PUSH2 0x27FB PUSH2 0x100 DUP12 ADD PUSH2 0x23F8 JUMP JUMPDEST SWAP1 POP SWAP3 SWAP6 SWAP9 POP SWAP3 SWAP6 SWAP9 POP SWAP3 SWAP6 SWAP9 JUMP JUMPDEST PUSH4 0x4E487B71 PUSH1 0xE0 SHL PUSH0 MSTORE PUSH1 0x32 PUSH1 0x4 MSTORE PUSH1 0x24 PUSH0 REVERT JUMPDEST PUSH0 DUP2 MLOAD DUP1 PUSH1 0x20 DUP5 ADD DUP6 MCOPY PUSH0 SWAP4 ADD SWAP3 DUP4 MSTORE POP SWAP1 SWAP2 SWAP1 POP JUMP JUMPDEST PUSH0 PUSH2 0x21E8 DUP3 DUP5 PUSH2 0x281E JUMP JUMPDEST PUSH1 0x1 DUP2 DUP2 SHR SWAP1 DUP3 AND DUP1 PUSH2 0x2854 JUMPI PUSH1 0x7F DUP3 AND SWAP2 POP JUMPDEST PUSH1 0x20 DUP3 LT DUP2 SUB PUSH2 0x2872 JUMPI PUSH4 0x4E487B71 PUSH1 0xE0 SHL PUSH0 MSTORE PUSH1 0x22 PUSH1 0x4 MSTORE PUSH1 0x24 PUSH0 REVERT JUMPDEST POP SWAP2 SWAP1 POP JUMP JUMPDEST PUSH0 DUP1 DUP4 SLOAD PUSH2 0x2885 DUP2 PUSH2 0x2840 JUMP JUMPDEST PUSH1 0x1 DUP3 DUP2 AND DUP1 ISZERO PUSH2 0x289D JUMPI PUSH1 0x1 DUP2 EQ PUSH2 0x28B2 JUMPI PUSH2 0x28DE JUMP JUMPDEST PUSH1 0xFF NOT DUP5 AND DUP8 MSTORE DUP3 ISZERO ISZERO DUP4 MUL DUP8 ADD SWAP5 POP PUSH2 0x28DE JUMP JUMPDEST DUP8 PUSH0 MSTORE PUSH1 0x20 DUP1 PUSH0 KECCAK256 PUSH0 JUMPDEST DUP6 DUP2 LT ISZERO PUSH2 0x28D5 JUMPI DUP2 SLOAD DUP11 DUP3 ADD MSTORE SWAP1 DUP5 ADD SWAP1 DUP3 ADD PUSH2 0x28BC JUMP JUMPDEST POP POP POP DUP3 DUP8 ADD SWAP5 POP JUMPDEST POP SWAP3 SWAP7 SWAP6 POP POP POP POP POP POP JUMP JUMPDEST PUSH4 0x4E487B71 PUSH1 0xE0 SHL PUSH0 MSTORE PUSH1 0x11 PUSH1 0x4 MSTORE PUSH1 0x24 PUSH0 REVERT JUMPDEST DUP1 DUP3 ADD DUP1 DUP3 GT ISZERO PUSH2 0x87A JUMPI PUSH2 0x87A PUSH2 0x28EA JUMP JUMPDEST PUSH1 0x1F DUP3 GT ISZERO PUSH2 0xB1A JUMPI DUP1 PUSH0 MSTORE PUSH1 0x20 PUSH0 KECCAK256 PUSH1 0x1F DUP5 ADD PUSH1 0x5 SHR DUP2 ADD PUSH1 0x20 DUP6 LT ISZERO PUSH2 0x2936 JUMPI POP DUP1 JUMPDEST PUSH1 0x1F DUP5 ADD PUSH1 0x5 SHR DUP3 ADD SWAP2 POP JUMPDEST DUP2 DUP2 LT ISZERO PUSH2 0x2955 JUMPI PUSH0 DUP2 SSTORE PUSH1 0x1 ADD PUSH2 0x2942 JUMP JUMPDEST POP POP POP POP POP JUMP JUMPDEST DUP2 MLOAD PUSH8 0xFFFFFFFFFFFFFFFF DUP2 GT ISZERO PUSH2 0x2976 JUMPI PUSH2 0x2976 PUSH2 0x22EF JUMP JUMPDEST PUSH2 0x298A DUP2 PUSH2 0x2984 DUP5 SLOAD PUSH2 0x2840 JUMP JUMPDEST DUP5 PUSH2 0x2911 JUMP JUMPDEST PUSH1 0x20 DUP1 PUSH1 0x1F DUP4 GT PUSH1 0x1 DUP2 EQ PUSH2 0x29BD JUMPI PUSH0 DUP5 ISZERO PUSH2 0x29A6 JUMPI POP DUP6 DUP4 ADD MLOAD JUMPDEST PUSH0 NOT PUSH1 0x3 DUP7 SWAP1 SHL SHR NOT AND PUSH1 0x1 DUP6 SWAP1 SHL OR DUP6 SSTORE PUSH2 0x2A14 JUMP JUMPDEST PUSH0 DUP6 DUP2 MSTORE PUSH1 0x20 DUP2 KECCAK256 PUSH1 0x1F NOT DUP7 AND SWAP2 JUMPDEST DUP3 DUP2 LT ISZERO PUSH2 0x29EB JUMPI DUP9 DUP7 ADD MLOAD DUP3 SSTORE SWAP5 DUP5 ADD SWAP5 PUSH1 0x1 SWAP1 SWAP2 ADD SWAP1 DUP5 ADD PUSH2 0x29CC JUMP JUMPDEST POP DUP6 DUP3 LT ISZERO PUSH2 0x2A08 JUMPI DUP8 DUP6 ADD MLOAD PUSH0 NOT PUSH1 0x3 DUP9 SWAP1 SHL PUSH1 0xF8 AND SHR NOT AND DUP2 SSTORE JUMPDEST POP POP PUSH1 0x1 DUP5 PUSH1 0x1 SHL ADD DUP6 SSTORE JUMPDEST POP POP POP POP POP POP JUMP JUMPDEST DUP3 DUP2 MSTORE PUSH1 0x40 PUSH1 0x20 DUP3 ADD MSTORE PUSH0 PUSH2 0x23D9 PUSH1 0x40 DUP4 ADD DUP5 PUSH2 0x25B6 JUMP JUMPDEST PUSH0 PUSH1 0x1 DUP3 ADD PUSH2 0x2A45 JUMPI PUSH2 0x2A45 PUSH2 0x28EA JUMP JUMPDEST POP PUSH1 0x1 ADD SWAP1 JUMP JUMPDEST DUP2 DUP2 SUB DUP2 DUP2 GT ISZERO PUSH2 0x87A JUMPI PUSH2 0x87A PUSH2 0x28EA JUMP JUMPDEST PUSH4 0x4E487B71 PUSH1 0xE0 SHL PUSH0 MSTORE PUSH1 0x31 PUSH1 0x4 MSTORE PUSH1 0x24 PUSH0 REVERT JUMPDEST PUSH0 PUSH1 0x20 DUP3 DUP5 SUB SLT ISZERO PUSH2 0x2A83 JUMPI PUSH0 DUP1 REVERT JUMPDEST POP MLOAD SWAP2 SWAP1 POP JUMP INVALID SWAP12 PUSH26 0x46ABD96DCCBE6CFC6CC2C13300AB429D93E16FA72DC459EECCDA PUSH20 0x817F08360894A13BA1A3210667C828492DB98DCA RETURNDATACOPY KECCAK256 PUSH23 0xCC3735A920A3CA505D382BBC65D7A28E3265B37A647492 SWAP16 CALLER PUSH6 0x21B332C1681B SWAP4 EXTCODEHASH PUSH13 0xB9F3376673440D862A02DD7BC7 0xDE 0xC4 0xDC 0xEE 0xDD 0xA7 PUSH22 0xE58DD541E08A116C6C53815C0BD028192F7B626800CD MCOPY 0xD1 TLOAD PUSH15 0x187E77E9AEE88184C21F4F2182AB58 0x27 0xCB EXTCODESIZE PUSH31 0x7FBEDCD63F03300A2646970667358221220A380F93995C55F9003BAA58ABD 0xF7 CREATE2 RETURN 0xBC SWAP3 SWAP14 CALLDATASIZE 0x2A PUSH31 0x3D83FF901D66628B1C5F64736F6C6343000819003300000000000000000000 "
				},
				"gasEstimates": {
					"creation": {
						"codeDepositCost": "2220800",
						"executionCost": "infinite",
						"totalCost": "infinite"
					},
					"external": {
						"DEFAULT_ADMIN_ROLE()": "327",
						"GAME_ADMIN_ROLE()": "infinite",
						"PAUSER_ROLE()": "infinite",
						"UPGRADER_ROLE()": "348",
						"UPGRADE_INTERFACE_VERSION()": "infinite",
						"addItem(string,uint256,uint256,uint256,uint256)": "infinite",
						"addRecipe(uint256[],uint256)": "infinite",
						"completeQuest(string)": "infinite",
						"craftItem(uint256)": "infinite",
						"createGuild(string,address)": "infinite",
						"createPlayer()": "infinite",
						"daoContract()": "2426",
						"erc1155Token()": "2449",
						"erc20Token()": "2381",
						"erc721Token()": "2425",
						"farmingContract()": "2405",
						"getRoleAdmin(bytes32)": "infinite",
						"grantRole(bytes32,address)": "infinite",
						"guilds(address)": "infinite",
						"hasRole(bytes32,address)": "infinite",
						"initialize(address,address,address,address,address,address,address,address,address)": "infinite",
						"items(uint256)": "infinite",
						"joinGuild(string)": "infinite",
						"pause()": "infinite",
						"paused()": "infinite",
						"playerQuests(address,uint256)": "infinite",
						"players(address)": "17589",
						"proxiableUUID()": "infinite",
						"recipes(uint256)": "2509",
						"renounceRole(bytes32,address)": "29183",
						"revokeRole(bytes32,address)": "infinite",
						"setDAOAddress(address)": "infinite",
						"setERC1155Address(address)": "infinite",
						"setERC20Address(address)": "infinite",
						"setERC721Address(address)": "infinite",
						"setFarmingAddress(address)": "infinite",
						"setStakingAddress(address)": "infinite",
						"stakingContract()": "2424",
						"startQuest(string,string,uint256)": "infinite",
						"supportsInterface(bytes4)": "470",
						"unpause()": "infinite",
						"upgradeToAndCall(address,bytes)": "infinite"
					},
					"internal": {
						"_authorizeUpgrade(address)": "infinite"
					}
				},
				"methodIdentifiers": {
					"DEFAULT_ADMIN_ROLE()": "a217fddf",
					"GAME_ADMIN_ROLE()": "be22d27d",
					"PAUSER_ROLE()": "e63ab1e9",
					"UPGRADER_ROLE()": "f72c0d8b",
					"UPGRADE_INTERFACE_VERSION()": "ad3cb1cc",
					"addItem(string,uint256,uint256,uint256,uint256)": "31fee8be",
					"addRecipe(uint256[],uint256)": "a9834b67",
					"completeQuest(string)": "17435e1a",
					"craftItem(uint256)": "7309cbbd",
					"createGuild(string,address)": "4fa4a1bb",
					"createPlayer()": "3fa9fcf8",
					"daoContract()": "4a7ffcbc",
					"erc1155Token()": "21f42268",
					"erc20Token()": "8a13eea7",
					"erc721Token()": "5f2d6bcd",
					"farmingContract()": "02eec568",
					"getRoleAdmin(bytes32)": "248a9ca3",
					"grantRole(bytes32,address)": "2f2ff15d",
					"guilds(address)": "a75859e1",
					"hasRole(bytes32,address)": "91d14854",
					"initialize(address,address,address,address,address,address,address,address,address)": "f5e95acb",
					"items(uint256)": "bfb231d2",
					"joinGuild(string)": "e551ba4b",
					"pause()": "8456cb59",
					"paused()": "5c975abb",
					"playerQuests(address,uint256)": "d3dcff7c",
					"players(address)": "e2eb41ff",
					"proxiableUUID()": "52d1902d",
					"recipes(uint256)": "443c227c",
					"renounceRole(bytes32,address)": "36568abe",
					"revokeRole(bytes32,address)": "d547741f",
					"setDAOAddress(address)": "965afa89",
					"setERC1155Address(address)": "d836fc6f",
					"setERC20Address(address)": "41bec0d2",
					"setERC721Address(address)": "9a03d9a3",
					"setFarmingAddress(address)": "b001f618",
					"setStakingAddress(address)": "f4e0d9ac",
					"stakingContract()": "ee99205c",
					"startQuest(string,string,uint256)": "6f347a78",
					"supportsInterface(bytes4)": "01ffc9a7",
					"unpause()": "3f4ba83a",
					"upgradeToAndCall(address,bytes)": "4f1ef286"
				}
			},
			"storageLayout": {
				"storage": [
					{
						"astId": 1910,
						"contract": "src/smartcontracts/CryptoQuestTheShardsOfGenesisMMORPG.sol:CryptoQuestTheShardsOfGenesisMMPORPG",
						"label": "erc20Token",
						"offset": 0,
						"slot": "0",
						"type": "t_contract(IERC20)1857"
					},
					{
						"astId": 1913,
						"contract": "src/smartcontracts/CryptoQuestTheShardsOfGenesisMMORPG.sol:CryptoQuestTheShardsOfGenesisMMPORPG",
						"label": "erc721Token",
						"offset": 0,
						"slot": "1",
						"type": "t_contract(IERC721)1867"
					},
					{
						"astId": 1916,
						"contract": "src/smartcontracts/CryptoQuestTheShardsOfGenesisMMORPG.sol:CryptoQuestTheShardsOfGenesisMMPORPG",
						"label": "erc1155Token",
						"offset": 0,
						"slot": "2",
						"type": "t_contract(IERC1155)1881"
					},
					{
						"astId": 1919,
						"contract": "src/smartcontracts/CryptoQuestTheShardsOfGenesisMMORPG.sol:CryptoQuestTheShardsOfGenesisMMPORPG",
						"label": "daoContract",
						"offset": 0,
						"slot": "3",
						"type": "t_contract(IDAO)1882"
					},
					{
						"astId": 1922,
						"contract": "src/smartcontracts/CryptoQuestTheShardsOfGenesisMMORPG.sol:CryptoQuestTheShardsOfGenesisMMPORPG",
						"label": "stakingContract",
						"offset": 0,
						"slot": "4",
						"type": "t_contract(IStaking)1883"
					},
					{
						"astId": 1925,
						"contract": "src/smartcontracts/CryptoQuestTheShardsOfGenesisMMORPG.sol:CryptoQuestTheShardsOfGenesisMMPORPG",
						"label": "farmingContract",
						"offset": 0,
						"slot": "5",
						"type": "t_contract(IFarming)1884"
					},
					{
						"astId": 1987,
						"contract": "src/smartcontracts/CryptoQuestTheShardsOfGenesisMMORPG.sol:CryptoQuestTheShardsOfGenesisMMPORPG",
						"label": "nextItemId",
						"offset": 0,
						"slot": "6",
						"type": "t_uint256"
					},
					{
						"astId": 1990,
						"contract": "src/smartcontracts/CryptoQuestTheShardsOfGenesisMMORPG.sol:CryptoQuestTheShardsOfGenesisMMPORPG",
						"label": "nextRecipeId",
						"offset": 0,
						"slot": "7",
						"type": "t_uint256"
					},
					{
						"astId": 1995,
						"contract": "src/smartcontracts/CryptoQuestTheShardsOfGenesisMMORPG.sol:CryptoQuestTheShardsOfGenesisMMPORPG",
						"label": "items",
						"offset": 0,
						"slot": "8",
						"type": "t_mapping(t_uint256,t_struct(Item)1961_storage)"
					},
					{
						"astId": 2000,
						"contract": "src/smartcontracts/CryptoQuestTheShardsOfGenesisMMORPG.sol:CryptoQuestTheShardsOfGenesisMMPORPG",
						"label": "players",
						"offset": 0,
						"slot": "9",
						"type": "t_mapping(t_address,t_struct(Player)1948_storage)"
					},
					{
						"astId": 2006,
						"contract": "src/smartcontracts/CryptoQuestTheShardsOfGenesisMMORPG.sol:CryptoQuestTheShardsOfGenesisMMPORPG",
						"label": "playerQuests",
						"offset": 0,
						"slot": "10",
						"type": "t_mapping(t_address,t_array(t_struct(Quest)1970_storage)dyn_storage)"
					},
					{
						"astId": 2011,
						"contract": "src/smartcontracts/CryptoQuestTheShardsOfGenesisMMORPG.sol:CryptoQuestTheShardsOfGenesisMMPORPG",
						"label": "guilds",
						"offset": 0,
						"slot": "11",
						"type": "t_mapping(t_address,t_struct(Guild)1978_storage)"
					},
					{
						"astId": 2015,
						"contract": "src/smartcontracts/CryptoQuestTheShardsOfGenesisMMORPG.sol:CryptoQuestTheShardsOfGenesisMMPORPG",
						"label": "guildNameToLeader",
						"offset": 0,
						"slot": "12",
						"type": "t_mapping(t_string_memory_ptr,t_address)"
					},
					{
						"astId": 2020,
						"contract": "src/smartcontracts/CryptoQuestTheShardsOfGenesisMMORPG.sol:CryptoQuestTheShardsOfGenesisMMPORPG",
						"label": "recipes",
						"offset": 0,
						"slot": "13",
						"type": "t_mapping(t_uint256,t_struct(Recipe)1984_storage)"
					}
				],
				"types": {
					"t_address": {
						"encoding": "inplace",
						"label": "address",
						"numberOfBytes": "20"
					},
					"t_array(t_address)dyn_storage": {
						"base": "t_address",
						"encoding": "dynamic_array",
						"label": "address[]",
						"numberOfBytes": "32"
					},
					"t_array(t_struct(Quest)1970_storage)dyn_storage": {
						"base": "t_struct(Quest)1970_storage",
						"encoding": "dynamic_array",
						"label": "struct CryptoQuestTheShardsOfGenesisMMPORPG.Quest[]",
						"numberOfBytes": "32"
					},
					"t_array(t_uint256)dyn_storage": {
						"base": "t_uint256",
						"encoding": "dynamic_array",
						"label": "uint256[]",
						"numberOfBytes": "32"
					},
					"t_bool": {
						"encoding": "inplace",
						"label": "bool",
						"numberOfBytes": "1"
					},
					"t_contract(IDAO)1882": {
						"encoding": "inplace",
						"label": "contract IDAO",
						"numberOfBytes": "20"
					},
					"t_contract(IERC1155)1881": {
						"encoding": "inplace",
						"label": "contract IERC1155",
						"numberOfBytes": "20"
					},
					"t_contract(IERC20)1857": {
						"encoding": "inplace",
						"label": "contract IERC20",
						"numberOfBytes": "20"
					},
					"t_contract(IERC721)1867": {
						"encoding": "inplace",
						"label": "contract IERC721",
						"numberOfBytes": "20"
					},
					"t_contract(IFarming)1884": {
						"encoding": "inplace",
						"label": "contract IFarming",
						"numberOfBytes": "20"
					},
					"t_contract(IStaking)1883": {
						"encoding": "inplace",
						"label": "contract IStaking",
						"numberOfBytes": "20"
					},
					"t_mapping(t_address,t_array(t_struct(Quest)1970_storage)dyn_storage)": {
						"encoding": "mapping",
						"key": "t_address",
						"label": "mapping(address => struct CryptoQuestTheShardsOfGenesisMMPORPG.Quest[])",
						"numberOfBytes": "32",
						"value": "t_array(t_struct(Quest)1970_storage)dyn_storage"
					},
					"t_mapping(t_address,t_struct(Guild)1978_storage)": {
						"encoding": "mapping",
						"key": "t_address",
						"label": "mapping(address => struct CryptoQuestTheShardsOfGenesisMMPORPG.Guild)",
						"numberOfBytes": "32",
						"value": "t_struct(Guild)1978_storage"
					},
					"t_mapping(t_address,t_struct(Player)1948_storage)": {
						"encoding": "mapping",
						"key": "t_address",
						"label": "mapping(address => struct CryptoQuestTheShardsOfGenesisMMPORPG.Player)",
						"numberOfBytes": "32",
						"value": "t_struct(Player)1948_storage"
					},
					"t_mapping(t_string_memory_ptr,t_address)": {
						"encoding": "mapping",
						"key": "t_string_memory_ptr",
						"label": "mapping(string => address)",
						"numberOfBytes": "32",
						"value": "t_address"
					},
					"t_mapping(t_uint256,t_struct(Item)1961_storage)": {
						"encoding": "mapping",
						"key": "t_uint256",
						"label": "mapping(uint256 => struct CryptoQuestTheShardsOfGenesisMMPORPG.Item)",
						"numberOfBytes": "32",
						"value": "t_struct(Item)1961_storage"
					},
					"t_mapping(t_uint256,t_struct(Recipe)1984_storage)": {
						"encoding": "mapping",
						"key": "t_uint256",
						"label": "mapping(uint256 => struct CryptoQuestTheShardsOfGenesisMMPORPG.Recipe)",
						"numberOfBytes": "32",
						"value": "t_struct(Recipe)1984_storage"
					},
					"t_string_memory_ptr": {
						"encoding": "bytes",
						"label": "string",
						"numberOfBytes": "32"
					},
					"t_string_storage": {
						"encoding": "bytes",
						"label": "string",
						"numberOfBytes": "32"
					},
					"t_struct(Guild)1978_storage": {
						"encoding": "inplace",
						"label": "struct CryptoQuestTheShardsOfGenesisMMPORPG.Guild",
						"members": [
							{
								"astId": 1972,
								"contract": "src/smartcontracts/CryptoQuestTheShardsOfGenesisMMORPG.sol:CryptoQuestTheShardsOfGenesisMMPORPG",
								"label": "name",
								"offset": 0,
								"slot": "0",
								"type": "t_string_storage"
							},
							{
								"astId": 1974,
								"contract": "src/smartcontracts/CryptoQuestTheShardsOfGenesisMMORPG.sol:CryptoQuestTheShardsOfGenesisMMPORPG",
								"label": "leader",
								"offset": 0,
								"slot": "1",
								"type": "t_address"
							},
							{
								"astId": 1977,
								"contract": "src/smartcontracts/CryptoQuestTheShardsOfGenesisMMORPG.sol:CryptoQuestTheShardsOfGenesisMMPORPG",
								"label": "members",
								"offset": 0,
								"slot": "2",
								"type": "t_array(t_address)dyn_storage"
							}
						],
						"numberOfBytes": "96"
					},
					"t_struct(Item)1961_storage": {
						"encoding": "inplace",
						"label": "struct CryptoQuestTheShardsOfGenesisMMPORPG.Item",
						"members": [
							{
								"astId": 1950,
								"contract": "src/smartcontracts/CryptoQuestTheShardsOfGenesisMMORPG.sol:CryptoQuestTheShardsOfGenesisMMPORPG",
								"label": "id",
								"offset": 0,
								"slot": "0",
								"type": "t_uint256"
							},
							{
								"astId": 1952,
								"contract": "src/smartcontracts/CryptoQuestTheShardsOfGenesisMMORPG.sol:CryptoQuestTheShardsOfGenesisMMPORPG",
								"label": "name",
								"offset": 0,
								"slot": "1",
								"type": "t_string_storage"
							},
							{
								"astId": 1954,
								"contract": "src/smartcontracts/CryptoQuestTheShardsOfGenesisMMORPG.sol:CryptoQuestTheShardsOfGenesisMMPORPG",
								"label": "attackBonus",
								"offset": 0,
								"slot": "2",
								"type": "t_uint256"
							},
							{
								"astId": 1956,
								"contract": "src/smartcontracts/CryptoQuestTheShardsOfGenesisMMORPG.sol:CryptoQuestTheShardsOfGenesisMMPORPG",
								"label": "defenseBonus",
								"offset": 0,
								"slot": "3",
								"type": "t_uint256"
							},
							{
								"astId": 1958,
								"contract": "src/smartcontracts/CryptoQuestTheShardsOfGenesisMMORPG.sol:CryptoQuestTheShardsOfGenesisMMPORPG",
								"label": "manaBonus",
								"offset": 0,
								"slot": "4",
								"type": "t_uint256"
							},
							{
								"astId": 1960,
								"contract": "src/smartcontracts/CryptoQuestTheShardsOfGenesisMMORPG.sol:CryptoQuestTheShardsOfGenesisMMPORPG",
								"label": "healthBonus",
								"offset": 0,
								"slot": "5",
								"type": "t_uint256"
							}
						],
						"numberOfBytes": "192"
					},
					"t_struct(Player)1948_storage": {
						"encoding": "inplace",
						"label": "struct CryptoQuestTheShardsOfGenesisMMPORPG.Player",
						"members": [
							{
								"astId": 1927,
								"contract": "src/smartcontracts/CryptoQuestTheShardsOfGenesisMMORPG.sol:CryptoQuestTheShardsOfGenesisMMPORPG",
								"label": "level",
								"offset": 0,
								"slot": "0",
								"type": "t_uint256"
							},
							{
								"astId": 1929,
								"contract": "src/smartcontracts/CryptoQuestTheShardsOfGenesisMMORPG.sol:CryptoQuestTheShardsOfGenesisMMPORPG",
								"label": "experience",
								"offset": 0,
								"slot": "1",
								"type": "t_uint256"
							},
							{
								"astId": 1931,
								"contract": "src/smartcontracts/CryptoQuestTheShardsOfGenesisMMORPG.sol:CryptoQuestTheShardsOfGenesisMMPORPG",
								"label": "health",
								"offset": 0,
								"slot": "2",
								"type": "t_uint256"
							},
							{
								"astId": 1933,
								"contract": "src/smartcontracts/CryptoQuestTheShardsOfGenesisMMORPG.sol:CryptoQuestTheShardsOfGenesisMMPORPG",
								"label": "mana",
								"offset": 0,
								"slot": "3",
								"type": "t_uint256"
							},
							{
								"astId": 1935,
								"contract": "src/smartcontracts/CryptoQuestTheShardsOfGenesisMMORPG.sol:CryptoQuestTheShardsOfGenesisMMPORPG",
								"label": "attackDamage",
								"offset": 0,
								"slot": "4",
								"type": "t_uint256"
							},
							{
								"astId": 1937,
								"contract": "src/smartcontracts/CryptoQuestTheShardsOfGenesisMMORPG.sol:CryptoQuestTheShardsOfGenesisMMPORPG",
								"label": "defense",
								"offset": 0,
								"slot": "5",
								"type": "t_uint256"
							},
							{
								"astId": 1939,
								"contract": "src/smartcontracts/CryptoQuestTheShardsOfGenesisMMORPG.sol:CryptoQuestTheShardsOfGenesisMMPORPG",
								"label": "agility",
								"offset": 0,
								"slot": "6",
								"type": "t_uint256"
							},
							{
								"astId": 1941,
								"contract": "src/smartcontracts/CryptoQuestTheShardsOfGenesisMMORPG.sol:CryptoQuestTheShardsOfGenesisMMPORPG",
								"label": "luck",
								"offset": 0,
								"slot": "7",
								"type": "t_uint256"
							},
							{
								"astId": 1944,
								"contract": "src/smartcontracts/CryptoQuestTheShardsOfGenesisMMORPG.sol:CryptoQuestTheShardsOfGenesisMMPORPG",
								"label": "inventory",
								"offset": 0,
								"slot": "8",
								"type": "t_array(t_uint256)dyn_storage"
							},
							{
								"astId": 1947,
								"contract": "src/smartcontracts/CryptoQuestTheShardsOfGenesisMMORPG.sol:CryptoQuestTheShardsOfGenesisMMPORPG",
								"label": "skills",
								"offset": 0,
								"slot": "9",
								"type": "t_array(t_uint256)dyn_storage"
							}
						],
						"numberOfBytes": "320"
					},
					"t_struct(Quest)1970_storage": {
						"encoding": "inplace",
						"label": "struct CryptoQuestTheShardsOfGenesisMMPORPG.Quest",
						"members": [
							{
								"astId": 1963,
								"contract": "src/smartcontracts/CryptoQuestTheShardsOfGenesisMMORPG.sol:CryptoQuestTheShardsOfGenesisMMPORPG",
								"label": "title",
								"offset": 0,
								"slot": "0",
								"type": "t_string_storage"
							},
							{
								"astId": 1965,
								"contract": "src/smartcontracts/CryptoQuestTheShardsOfGenesisMMORPG.sol:CryptoQuestTheShardsOfGenesisMMPORPG",
								"label": "description",
								"offset": 0,
								"slot": "1",
								"type": "t_string_storage"
							},
							{
								"astId": 1967,
								"contract": "src/smartcontracts/CryptoQuestTheShardsOfGenesisMMORPG.sol:CryptoQuestTheShardsOfGenesisMMPORPG",
								"label": "rewardXP",
								"offset": 0,
								"slot": "2",
								"type": "t_uint256"
							},
							{
								"astId": 1969,
								"contract": "src/smartcontracts/CryptoQuestTheShardsOfGenesisMMORPG.sol:CryptoQuestTheShardsOfGenesisMMPORPG",
								"label": "completed",
								"offset": 0,
								"slot": "3",
								"type": "t_bool"
							}
						],
						"numberOfBytes": "128"
					},
					"t_struct(Recipe)1984_storage": {
						"encoding": "inplace",
						"label": "struct CryptoQuestTheShardsOfGenesisMMPORPG.Recipe",
						"members": [
							{
								"astId": 1981,
								"contract": "src/smartcontracts/CryptoQuestTheShardsOfGenesisMMORPG.sol:CryptoQuestTheShardsOfGenesisMMPORPG",
								"label": "itemIds",
								"offset": 0,
								"slot": "0",
								"type": "t_array(t_uint256)dyn_storage"
							},
							{
								"astId": 1983,
								"contract": "src/smartcontracts/CryptoQuestTheShardsOfGenesisMMORPG.sol:CryptoQuestTheShardsOfGenesisMMPORPG",
								"label": "resultItemId",
								"offset": 0,
								"slot": "1",
								"type": "t_uint256"
							}
						],
						"numberOfBytes": "64"
					},
					"t_uint256": {
						"encoding": "inplace",
						"label": "uint256",
						"numberOfBytes": "32"
					}
				}
			},
			"userdoc": {
				"kind": "user",
				"methods": {},
				"version": 1
			}
		}
	}
}