{
	"src/smartcontracts/CryptoQuestSwap.sol": {
		"CryptoQuestSwap": {
			"abi": [
				{
					"inputs": [],
					"stateMutability": "nonpayable",
					"type": "constructor"
				},
				{
					"inputs": [],
					"name": "AccessControlBadConfirmation",
					"type": "error"
				},
				{
					"inputs": [
						{
							"internalType": "address",
							"name": "account",
							"type": "address"
						},
						{
							"internalType": "bytes32",
							"name": "neededRole",
							"type": "bytes32"
						}
					],
					"name": "AccessControlUnauthorizedAccount",
					"type": "error"
				},
				{
					"inputs": [
						{
							"internalType": "address",
							"name": "target",
							"type": "address"
						}
					],
					"name": "AddressEmptyCode",
					"type": "error"
				},
				{
					"inputs": [
						{
							"internalType": "address",
							"name": "implementation",
							"type": "address"
						}
					],
					"name": "ERC1967InvalidImplementation",
					"type": "error"
				},
				{
					"inputs": [],
					"name": "ERC1967NonPayable",
					"type": "error"
				},
				{
					"inputs": [],
					"name": "EnforcedPause",
					"type": "error"
				},
				{
					"inputs": [],
					"name": "ExpectedPause",
					"type": "error"
				},
				{
					"inputs": [],
					"name": "FailedInnerCall",
					"type": "error"
				},
				{
					"inputs": [],
					"name": "InvalidInitialization",
					"type": "error"
				},
				{
					"inputs": [],
					"name": "NotInitializing",
					"type": "error"
				},
				{
					"inputs": [],
					"name": "UUPSUnauthorizedCallContext",
					"type": "error"
				},
				{
					"inputs": [
						{
							"internalType": "bytes32",
							"name": "slot",
							"type": "bytes32"
						}
					],
					"name": "UUPSUnsupportedProxiableUUID",
					"type": "error"
				},
				{
					"anonymous": false,
					"inputs": [
						{
							"indexed": false,
							"internalType": "uint64",
							"name": "version",
							"type": "uint64"
						}
					],
					"name": "Initialized",
					"type": "event"
				},
				{
					"anonymous": false,
					"inputs": [
						{
							"indexed": true,
							"internalType": "address",
							"name": "provider",
							"type": "address"
						},
						{
							"indexed": true,
							"internalType": "address",
							"name": "token",
							"type": "address"
						},
						{
							"indexed": false,
							"internalType": "uint256",
							"name": "tokenAmount",
							"type": "uint256"
						},
						{
							"indexed": false,
							"internalType": "uint256",
							"name": "ethAmount",
							"type": "uint256"
						},
						{
							"indexed": false,
							"internalType": "uint256",
							"name": "liquidity",
							"type": "uint256"
						}
					],
					"name": "LiquidityAdded",
					"type": "event"
				},
				{
					"anonymous": false,
					"inputs": [
						{
							"indexed": true,
							"internalType": "address",
							"name": "provider",
							"type": "address"
						},
						{
							"indexed": true,
							"internalType": "address",
							"name": "token",
							"type": "address"
						},
						{
							"indexed": false,
							"internalType": "uint256",
							"name": "tokenAmount",
							"type": "uint256"
						},
						{
							"indexed": false,
							"internalType": "uint256",
							"name": "ethAmount",
							"type": "uint256"
						},
						{
							"indexed": false,
							"internalType": "uint256",
							"name": "liquidity",
							"type": "uint256"
						}
					],
					"name": "LiquidityRemoved",
					"type": "event"
				},
				{
					"anonymous": false,
					"inputs": [
						{
							"indexed": true,
							"internalType": "address",
							"name": "swapper",
							"type": "address"
						},
						{
							"indexed": true,
							"internalType": "address",
							"name": "nftContract",
							"type": "address"
						},
						{
							"indexed": true,
							"internalType": "uint256",
							"name": "tokenId",
							"type": "uint256"
						},
						{
							"indexed": false,
							"internalType": "uint256",
							"name": "ethAmount",
							"type": "uint256"
						}
					],
					"name": "NFTSwapped",
					"type": "event"
				},
				{
					"anonymous": false,
					"inputs": [
						{
							"indexed": false,
							"internalType": "address",
							"name": "account",
							"type": "address"
						}
					],
					"name": "Paused",
					"type": "event"
				},
				{
					"anonymous": false,
					"inputs": [
						{
							"indexed": true,
							"internalType": "bytes32",
							"name": "role",
							"type": "bytes32"
						},
						{
							"indexed": true,
							"internalType": "bytes32",
							"name": "previousAdminRole",
							"type": "bytes32"
						},
						{
							"indexed": true,
							"internalType": "bytes32",
							"name": "newAdminRole",
							"type": "bytes32"
						}
					],
					"name": "RoleAdminChanged",
					"type": "event"
				},
				{
					"anonymous": false,
					"inputs": [
						{
							"indexed": true,
							"internalType": "bytes32",
							"name": "role",
							"type": "bytes32"
						},
						{
							"indexed": true,
							"internalType": "address",
							"name": "account",
							"type": "address"
						},
						{
							"indexed": true,
							"internalType": "address",
							"name": "sender",
							"type": "address"
						}
					],
					"name": "RoleGranted",
					"type": "event"
				},
				{
					"anonymous": false,
					"inputs": [
						{
							"indexed": true,
							"internalType": "bytes32",
							"name": "role",
							"type": "bytes32"
						},
						{
							"indexed": true,
							"internalType": "address",
							"name": "account",
							"type": "address"
						},
						{
							"indexed": true,
							"internalType": "address",
							"name": "sender",
							"type": "address"
						}
					],
					"name": "RoleRevoked",
					"type": "event"
				},
				{
					"anonymous": false,
					"inputs": [
						{
							"indexed": true,
							"internalType": "address",
							"name": "swapper",
							"type": "address"
						},
						{
							"indexed": true,
							"internalType": "address",
							"name": "token",
							"type": "address"
						},
						{
							"indexed": false,
							"internalType": "uint256",
							"name": "tokenAmount",
							"type": "uint256"
						},
						{
							"indexed": false,
							"internalType": "uint256",
							"name": "ethAmount",
							"type": "uint256"
						}
					],
					"name": "TokenSwapped",
					"type": "event"
				},
				{
					"anonymous": false,
					"inputs": [
						{
							"indexed": false,
							"internalType": "address",
							"name": "account",
							"type": "address"
						}
					],
					"name": "Unpaused",
					"type": "event"
				},
				{
					"anonymous": false,
					"inputs": [
						{
							"indexed": true,
							"internalType": "address",
							"name": "implementation",
							"type": "address"
						}
					],
					"name": "Upgraded",
					"type": "event"
				},
				{
					"inputs": [],
					"name": "DEFAULT_ADMIN_ROLE",
					"outputs": [
						{
							"internalType": "bytes32",
							"name": "",
							"type": "bytes32"
						}
					],
					"stateMutability": "view",
					"type": "function"
				},
				{
					"inputs": [],
					"name": "FEE_RATE",
					"outputs": [
						{
							"internalType": "uint256",
							"name": "",
							"type": "uint256"
						}
					],
					"stateMutability": "view",
					"type": "function"
				},
				{
					"inputs": [],
					"name": "LIQUIDITY_MANAGER_ROLE",
					"outputs": [
						{
							"internalType": "bytes32",
							"name": "",
							"type": "bytes32"
						}
					],
					"stateMutability": "view",
					"type": "function"
				},
				{
					"inputs": [],
					"name": "PAUSER_ROLE",
					"outputs": [
						{
							"internalType": "bytes32",
							"name": "",
							"type": "bytes32"
						}
					],
					"stateMutability": "view",
					"type": "function"
				},
				{
					"inputs": [],
					"name": "UPGRADER_ROLE",
					"outputs": [
						{
							"internalType": "bytes32",
							"name": "",
							"type": "bytes32"
						}
					],
					"stateMutability": "view",
					"type": "function"
				},
				{
					"inputs": [],
					"name": "UPGRADE_INTERFACE_VERSION",
					"outputs": [
						{
							"internalType": "string",
							"name": "",
							"type": "string"
						}
					],
					"stateMutability": "view",
					"type": "function"
				},
				{
					"inputs": [
						{
							"internalType": "address",
							"name": "token",
							"type": "address"
						},
						{
							"internalType": "uint256",
							"name": "tokenAmount",
							"type": "uint256"
						}
					],
					"name": "addLiquidity",
					"outputs": [
						{
							"internalType": "uint256",
							"name": "",
							"type": "uint256"
						}
					],
					"stateMutability": "payable",
					"type": "function"
				},
				{
					"inputs": [],
					"name": "cqtNFT",
					"outputs": [
						{
							"internalType": "contract IERC721Upgradeable",
							"name": "",
							"type": "address"
						}
					],
					"stateMutability": "view",
					"type": "function"
				},
				{
					"inputs": [],
					"name": "cqtToken",
					"outputs": [
						{
							"internalType": "contract IERC20Upgradeable",
							"name": "",
							"type": "address"
						}
					],
					"stateMutability": "view",
					"type": "function"
				},
				{
					"inputs": [
						{
							"internalType": "bytes32",
							"name": "role",
							"type": "bytes32"
						}
					],
					"name": "getRoleAdmin",
					"outputs": [
						{
							"internalType": "bytes32",
							"name": "",
							"type": "bytes32"
						}
					],
					"stateMutability": "view",
					"type": "function"
				},
				{
					"inputs": [
						{
							"internalType": "bytes32",
							"name": "role",
							"type": "bytes32"
						},
						{
							"internalType": "address",
							"name": "account",
							"type": "address"
						}
					],
					"name": "grantRole",
					"outputs": [],
					"stateMutability": "nonpayable",
					"type": "function"
				},
				{
					"inputs": [
						{
							"internalType": "bytes32",
							"name": "role",
							"type": "bytes32"
						},
						{
							"internalType": "address",
							"name": "account",
							"type": "address"
						}
					],
					"name": "hasRole",
					"outputs": [
						{
							"internalType": "bool",
							"name": "",
							"type": "bool"
						}
					],
					"stateMutability": "view",
					"type": "function"
				},
				{
					"inputs": [
						{
							"internalType": "address",
							"name": "defaultAdmin",
							"type": "address"
						},
						{
							"internalType": "address",
							"name": "pauser",
							"type": "address"
						},
						{
							"internalType": "address",
							"name": "upgrader",
							"type": "address"
						},
						{
							"internalType": "address",
							"name": "liquidityManager",
							"type": "address"
						},
						{
							"internalType": "address",
							"name": "cqtTokenAddress",
							"type": "address"
						},
						{
							"internalType": "address",
							"name": "cqtNFTAddress",
							"type": "address"
						}
					],
					"name": "initialize",
					"outputs": [],
					"stateMutability": "nonpayable",
					"type": "function"
				},
				{
					"inputs": [
						{
							"internalType": "address",
							"name": "",
							"type": "address"
						}
					],
					"name": "liquidityPools",
					"outputs": [
						{
							"internalType": "uint256",
							"name": "tokenAmount",
							"type": "uint256"
						},
						{
							"internalType": "uint256",
							"name": "ethAmount",
							"type": "uint256"
						},
						{
							"internalType": "uint256",
							"name": "totalLiquidity",
							"type": "uint256"
						}
					],
					"stateMutability": "view",
					"type": "function"
				},
				{
					"inputs": [],
					"name": "pause",
					"outputs": [],
					"stateMutability": "nonpayable",
					"type": "function"
				},
				{
					"inputs": [],
					"name": "paused",
					"outputs": [
						{
							"internalType": "bool",
							"name": "",
							"type": "bool"
						}
					],
					"stateMutability": "view",
					"type": "function"
				},
				{
					"inputs": [],
					"name": "proxiableUUID",
					"outputs": [
						{
							"internalType": "bytes32",
							"name": "",
							"type": "bytes32"
						}
					],
					"stateMutability": "view",
					"type": "function"
				},
				{
					"inputs": [
						{
							"internalType": "address",
							"name": "token",
							"type": "address"
						},
						{
							"internalType": "uint256",
							"name": "liquidity",
							"type": "uint256"
						}
					],
					"name": "removeLiquidity",
					"outputs": [
						{
							"internalType": "uint256",
							"name": "tokenAmount",
							"type": "uint256"
						},
						{
							"internalType": "uint256",
							"name": "ethAmount",
							"type": "uint256"
						}
					],
					"stateMutability": "nonpayable",
					"type": "function"
				},
				{
					"inputs": [
						{
							"internalType": "bytes32",
							"name": "role",
							"type": "bytes32"
						},
						{
							"internalType": "address",
							"name": "callerConfirmation",
							"type": "address"
						}
					],
					"name": "renounceRole",
					"outputs": [],
					"stateMutability": "nonpayable",
					"type": "function"
				},
				{
					"inputs": [
						{
							"internalType": "bytes32",
							"name": "role",
							"type": "bytes32"
						},
						{
							"internalType": "address",
							"name": "account",
							"type": "address"
						}
					],
					"name": "revokeRole",
					"outputs": [],
					"stateMutability": "nonpayable",
					"type": "function"
				},
				{
					"inputs": [
						{
							"internalType": "bytes4",
							"name": "interfaceId",
							"type": "bytes4"
						}
					],
					"name": "supportsInterface",
					"outputs": [
						{
							"internalType": "bool",
							"name": "",
							"type": "bool"
						}
					],
					"stateMutability": "view",
					"type": "function"
				},
				{
					"inputs": [
						{
							"internalType": "uint256",
							"name": "tokenId",
							"type": "uint256"
						},
						{
							"internalType": "uint256",
							"name": "minETH",
							"type": "uint256"
						}
					],
					"name": "swapETHForNFT",
					"outputs": [],
					"stateMutability": "payable",
					"type": "function"
				},
				{
					"inputs": [
						{
							"internalType": "address",
							"name": "token",
							"type": "address"
						},
						{
							"internalType": "uint256",
							"name": "minTokens",
							"type": "uint256"
						}
					],
					"name": "swapETHForTokens",
					"outputs": [],
					"stateMutability": "payable",
					"type": "function"
				},
				{
					"inputs": [
						{
							"internalType": "uint256",
							"name": "tokenId",
							"type": "uint256"
						},
						{
							"internalType": "uint256",
							"name": "minETH",
							"type": "uint256"
						}
					],
					"name": "swapNFTForETH",
					"outputs": [],
					"stateMutability": "nonpayable",
					"type": "function"
				},
				{
					"inputs": [
						{
							"internalType": "address",
							"name": "token",
							"type": "address"
						},
						{
							"internalType": "uint256",
							"name": "tokenAmount",
							"type": "uint256"
						},
						{
							"internalType": "uint256",
							"name": "minETH",
							"type": "uint256"
						}
					],
					"name": "swapTokensForETH",
					"outputs": [],
					"stateMutability": "nonpayable",
					"type": "function"
				},
				{
					"inputs": [],
					"name": "unpause",
					"outputs": [],
					"stateMutability": "nonpayable",
					"type": "function"
				},
				{
					"inputs": [
						{
							"internalType": "address",
							"name": "token",
							"type": "address"
						},
						{
							"internalType": "uint256",
							"name": "newTokenAmount",
							"type": "uint256"
						},
						{
							"internalType": "uint256",
							"name": "newEthAmount",
							"type": "uint256"
						}
					],
					"name": "updateLiquidityPool",
					"outputs": [],
					"stateMutability": "nonpayable",
					"type": "function"
				},
				{
					"inputs": [
						{
							"internalType": "address",
							"name": "newImplementation",
							"type": "address"
						},
						{
							"internalType": "bytes",
							"name": "data",
							"type": "bytes"
						}
					],
					"name": "upgradeToAndCall",
					"outputs": [],
					"stateMutability": "payable",
					"type": "function"
				},
				{
					"inputs": [
						{
							"internalType": "uint256",
							"name": "amount",
							"type": "uint256"
						}
					],
					"name": "withdrawETH",
					"outputs": [],
					"stateMutability": "nonpayable",
					"type": "function"
				},
				{
					"inputs": [
						{
							"internalType": "uint256",
							"name": "tokenId",
							"type": "uint256"
						}
					],
					"name": "withdrawNFT",
					"outputs": [],
					"stateMutability": "nonpayable",
					"type": "function"
				},
				{
					"inputs": [
						{
							"internalType": "address",
							"name": "token",
							"type": "address"
						},
						{
							"internalType": "uint256",
							"name": "amount",
							"type": "uint256"
						}
					],
					"name": "withdrawTokens",
					"outputs": [],
					"stateMutability": "nonpayable",
					"type": "function"
				}
			],
			"devdoc": {
				"custom:security-contact": "jacquedegraff@creodamo.com",
				"errors": {
					"AccessControlBadConfirmation()": [
						{
							"details": "The caller of a function is not the expected one. NOTE: Don't confuse with {AccessControlUnauthorizedAccount}."
						}
					],
					"AccessControlUnauthorizedAccount(address,bytes32)": [
						{
							"details": "The `account` is missing a role."
						}
					],
					"AddressEmptyCode(address)": [
						{
							"details": "There's no code at `target` (it is not a contract)."
						}
					],
					"ERC1967InvalidImplementation(address)": [
						{
							"details": "The `implementation` of the proxy is invalid."
						}
					],
					"ERC1967NonPayable()": [
						{
							"details": "An upgrade function sees `msg.value > 0` that may be lost."
						}
					],
					"EnforcedPause()": [
						{
							"details": "The operation failed because the contract is paused."
						}
					],
					"ExpectedPause()": [
						{
							"details": "The operation failed because the contract is not paused."
						}
					],
					"FailedInnerCall()": [
						{
							"details": "A call to an address target failed. The target may have reverted."
						}
					],
					"InvalidInitialization()": [
						{
							"details": "The contract is already initialized."
						}
					],
					"NotInitializing()": [
						{
							"details": "The contract is not initializing."
						}
					],
					"UUPSUnauthorizedCallContext()": [
						{
							"details": "The call is from an unauthorized context."
						}
					],
					"UUPSUnsupportedProxiableUUID(bytes32)": [
						{
							"details": "The storage `slot` is unsupported as a UUID."
						}
					]
				},
				"events": {
					"Initialized(uint64)": {
						"details": "Triggered when the contract has been initialized or reinitialized."
					},
					"Paused(address)": {
						"details": "Emitted when the pause is triggered by `account`."
					},
					"RoleAdminChanged(bytes32,bytes32,bytes32)": {
						"details": "Emitted when `newAdminRole` is set as ``role``'s admin role, replacing `previousAdminRole` `DEFAULT_ADMIN_ROLE` is the starting admin for all roles, despite {RoleAdminChanged} not being emitted signaling this."
					},
					"RoleGranted(bytes32,address,address)": {
						"details": "Emitted when `account` is granted `role`. `sender` is the account that originated the contract call, an admin role bearer except when using {AccessControl-_setupRole}."
					},
					"RoleRevoked(bytes32,address,address)": {
						"details": "Emitted when `account` is revoked `role`. `sender` is the account that originated the contract call:   - if using `revokeRole`, it is the admin role bearer   - if using `renounceRole`, it is the role bearer (i.e. `account`)"
					},
					"Unpaused(address)": {
						"details": "Emitted when the pause is lifted by `account`."
					},
					"Upgraded(address)": {
						"details": "Emitted when the implementation is upgraded."
					}
				},
				"kind": "dev",
				"methods": {
					"constructor": {
						"custom:oz-upgrades-unsafe-allow": "constructor"
					},
					"getRoleAdmin(bytes32)": {
						"details": "Returns the admin role that controls `role`. See {grantRole} and {revokeRole}. To change a role's admin, use {_setRoleAdmin}."
					},
					"grantRole(bytes32,address)": {
						"details": "Grants `role` to `account`. If `account` had not been already granted `role`, emits a {RoleGranted} event. Requirements: - the caller must have ``role``'s admin role. May emit a {RoleGranted} event."
					},
					"hasRole(bytes32,address)": {
						"details": "Returns `true` if `account` has been granted `role`."
					},
					"paused()": {
						"details": "Returns true if the contract is paused, and false otherwise."
					},
					"proxiableUUID()": {
						"details": "Implementation of the ERC1822 {proxiableUUID} function. This returns the storage slot used by the implementation. It is used to validate the implementation's compatibility when performing an upgrade. IMPORTANT: A proxy pointing at a proxiable contract should not be considered proxiable itself, because this risks bricking a proxy that upgrades to it, by delegating to itself until out of gas. Thus it is critical that this function revert if invoked through a proxy. This is guaranteed by the `notDelegated` modifier."
					},
					"renounceRole(bytes32,address)": {
						"details": "Revokes `role` from the calling account. Roles are often managed via {grantRole} and {revokeRole}: this function's purpose is to provide a mechanism for accounts to lose their privileges if they are compromised (such as when a trusted device is misplaced). If the calling account had been revoked `role`, emits a {RoleRevoked} event. Requirements: - the caller must be `callerConfirmation`. May emit a {RoleRevoked} event."
					},
					"revokeRole(bytes32,address)": {
						"details": "Revokes `role` from `account`. If `account` had been granted `role`, emits a {RoleRevoked} event. Requirements: - the caller must have ``role``'s admin role. May emit a {RoleRevoked} event."
					},
					"supportsInterface(bytes4)": {
						"details": "See {IERC165-supportsInterface}."
					},
					"upgradeToAndCall(address,bytes)": {
						"custom:oz-upgrades-unsafe-allow-reachable": "delegatecall",
						"details": "Upgrade the implementation of the proxy to `newImplementation`, and subsequently execute the function call encoded in `data`. Calls {_authorizeUpgrade}. Emits an {Upgraded} event."
					}
				},
				"version": 1
			},
			"evm": {
				"assembly": "    /* \"src/smartcontracts/CryptoQuestSwap.sol\":638:8779  contract CryptoQuestSwap is Initializable, PausableUpgradeable, AccessControlUpgradeable, UUPSUpgradeable {... */\n  mstore(0x40, 0xa0)\n    /* \"@openzeppelin/contracts-upgradeable/proxy/utils/UUPSUpgradeable.sol\":1171:1175  this */\n  address\n    /* \"@openzeppelin/contracts-upgradeable/proxy/utils/UUPSUpgradeable.sol\":1128:1176  address private immutable __self = address(this) */\n  0xffffffffffffffffffffffffffffffffffffffff\n  and\n  0x80\n  swap1\n  0xffffffffffffffffffffffffffffffffffffffff\n  and\n  dup2\n  mstore\n  pop\n    /* \"src/smartcontracts/CryptoQuestSwap.sol\":1901:1954  constructor() {... */\n  callvalue\n  dup1\n  iszero\n  tag_1\n  jumpi\n  0x00\n  dup1\n  revert\ntag_1:\n  pop\n    /* \"src/smartcontracts/CryptoQuestSwap.sol\":1925:1947  _disableInitializers() */\n  tag_4\n    /* \"src/smartcontracts/CryptoQuestSwap.sol\":1925:1945  _disableInitializers */\n  shl(0x20, tag_5)\n    /* \"src/smartcontracts/CryptoQuestSwap.sol\":1925:1947  _disableInitializers() */\n  0x20\n  shr\n  jump\t// in\ntag_4:\n    /* \"src/smartcontracts/CryptoQuestSwap.sol\":638:8779  contract CryptoQuestSwap is Initializable, PausableUpgradeable, AccessControlUpgradeable, UUPSUpgradeable {... */\n  jump(tag_6)\n    /* \"@openzeppelin/contracts-upgradeable/proxy/utils/Initializable.sol\":7711:8133  function _disableInitializers() internal virtual {... */\ntag_5:\n    /* \"@openzeppelin/contracts-upgradeable/proxy/utils/Initializable.sol\":7826:7856  InitializableStorage storage $ */\n  0x00\n    /* \"@openzeppelin/contracts-upgradeable/proxy/utils/Initializable.sol\":7859:7885  _getInitializableStorage() */\n  tag_8\n    /* \"@openzeppelin/contracts-upgradeable/proxy/utils/Initializable.sol\":7859:7883  _getInitializableStorage */\n  shl(0x20, tag_9)\n    /* \"@openzeppelin/contracts-upgradeable/proxy/utils/Initializable.sol\":7859:7885  _getInitializableStorage() */\n  0x20\n  shr\n  jump\t// in\ntag_8:\n    /* \"@openzeppelin/contracts-upgradeable/proxy/utils/Initializable.sol\":7826:7885  InitializableStorage storage $ = _getInitializableStorage() */\n  swap1\n  pop\n    /* \"@openzeppelin/contracts-upgradeable/proxy/utils/Initializable.sol\":7900:7901  $ */\n  dup1\n    /* \"@openzeppelin/contracts-upgradeable/proxy/utils/Initializable.sol\":7900:7915  $._initializing */\n  0x00\n  add\n  0x08\n  swap1\n  sload\n  swap1\n  0x0100\n  exp\n  swap1\n  div\n  0xff\n  and\n    /* \"@openzeppelin/contracts-upgradeable/proxy/utils/Initializable.sol\":7896:7972  if ($._initializing) {... */\n  iszero\n  tag_10\n  jumpi\n    /* \"@openzeppelin/contracts-upgradeable/proxy/utils/Initializable.sol\":7938:7961  InvalidInitialization() */\n  mload(0x40)\n  0xf92ee8a900000000000000000000000000000000000000000000000000000000\n  dup2\n  mstore\n  0x04\n  add\n  mload(0x40)\n  dup1\n  swap2\n  sub\n  swap1\n  revert\n    /* \"@openzeppelin/contracts-upgradeable/proxy/utils/Initializable.sol\":7896:7972  if ($._initializing) {... */\ntag_10:\n    /* \"@openzeppelin/contracts-upgradeable/proxy/utils/Initializable.sol\":8003:8019  type(uint64).max */\n  0xffffffffffffffff\n    /* \"@openzeppelin/contracts-upgradeable/proxy/utils/Initializable.sol\":7985:8019  $._initialized != type(uint64).max */\n  dup1\n  and\n    /* \"@openzeppelin/contracts-upgradeable/proxy/utils/Initializable.sol\":7985:7986  $ */\n  dup2\n    /* \"@openzeppelin/contracts-upgradeable/proxy/utils/Initializable.sol\":7985:7999  $._initialized */\n  0x00\n  add\n  0x00\n  swap1\n  sload\n  swap1\n  0x0100\n  exp\n  swap1\n  div\n  0xffffffffffffffff\n  and\n    /* \"@openzeppelin/contracts-upgradeable/proxy/utils/Initializable.sol\":7985:8019  $._initialized != type(uint64).max */\n  0xffffffffffffffff\n  and\n  eq\n    /* \"@openzeppelin/contracts-upgradeable/proxy/utils/Initializable.sol\":7981:8127  if ($._initialized != type(uint64).max) {... */\n  tag_11\n  jumpi\n    /* \"@openzeppelin/contracts-upgradeable/proxy/utils/Initializable.sol\":8052:8068  type(uint64).max */\n  0xffffffffffffffff\n    /* \"@openzeppelin/contracts-upgradeable/proxy/utils/Initializable.sol\":8035:8036  $ */\n  dup2\n    /* \"@openzeppelin/contracts-upgradeable/proxy/utils/Initializable.sol\":8035:8049  $._initialized */\n  0x00\n  add\n  0x00\n    /* \"@openzeppelin/contracts-upgradeable/proxy/utils/Initializable.sol\":8035:8068  $._initialized = type(uint64).max */\n  0x0100\n  exp\n  dup2\n  sload\n  dup2\n  0xffffffffffffffff\n  mul\n  not\n  and\n  swap1\n  dup4\n  0xffffffffffffffff\n  and\n  mul\n  or\n  swap1\n  sstore\n  pop\n    /* \"@openzeppelin/contracts-upgradeable/proxy/utils/Initializable.sol\":8087:8116  Initialized(type(uint64).max) */\n  0xc7f505b2f371ae2175ee4913f4499e1f2633a7b5936321eed1cdaeb6115181d2\n    /* \"@openzeppelin/contracts-upgradeable/proxy/utils/Initializable.sol\":8099:8115  type(uint64).max */\n  0xffffffffffffffff\n    /* \"@openzeppelin/contracts-upgradeable/proxy/utils/Initializable.sol\":8087:8116  Initialized(type(uint64).max) */\n  mload(0x40)\n  tag_12\n  swap2\n  swap1\n  tag_13\n  jump\t// in\ntag_12:\n  mload(0x40)\n  dup1\n  swap2\n  sub\n  swap1\n  log1\n    /* \"@openzeppelin/contracts-upgradeable/proxy/utils/Initializable.sol\":7981:8127  if ($._initialized != type(uint64).max) {... */\ntag_11:\n    /* \"@openzeppelin/contracts-upgradeable/proxy/utils/Initializable.sol\":7760:8133  {... */\n  pop\n    /* \"@openzeppelin/contracts-upgradeable/proxy/utils/Initializable.sol\":7711:8133  function _disableInitializers() internal virtual {... */\n  jump\t// out\n    /* \"@openzeppelin/contracts-upgradeable/proxy/utils/Initializable.sol\":8737:8907  function _getInitializableStorage() private pure returns (InitializableStorage storage $) {... */\ntag_9:\n    /* \"@openzeppelin/contracts-upgradeable/proxy/utils/Initializable.sol\":8795:8825  InitializableStorage storage $ */\n  0x00\n    /* \"@openzeppelin/contracts-upgradeable/proxy/utils/Initializable.sol\":8870:8891  INITIALIZABLE_STORAGE */\n  0xf0c57e16840df040f15088dc2f81fe391c3923bec73e23a9662efc9c229c6a00\n    /* \"@openzeppelin/contracts-upgradeable/proxy/utils/Initializable.sol\":8860:8891  $.slot := INITIALIZABLE_STORAGE */\n  swap1\n  pop\n    /* \"@openzeppelin/contracts-upgradeable/proxy/utils/Initializable.sol\":8737:8907  function _getInitializableStorage() private pure returns (InitializableStorage storage $) {... */\n  swap1\n  jump\t// out\n    /* \"#utility.yul\":7:108   */\ntag_15:\n    /* \"#utility.yul\":43:50   */\n  0x00\n    /* \"#utility.yul\":83:101   */\n  0xffffffffffffffff\n    /* \"#utility.yul\":76:81   */\n  dup3\n    /* \"#utility.yul\":72:102   */\n  and\n    /* \"#utility.yul\":61:102   */\n  swap1\n  pop\n    /* \"#utility.yul\":7:108   */\n  swap2\n  swap1\n  pop\n  jump\t// out\n    /* \"#utility.yul\":114:229   */\ntag_16:\n    /* \"#utility.yul\":199:222   */\n  tag_20\n    /* \"#utility.yul\":216:221   */\n  dup2\n    /* \"#utility.yul\":199:222   */\n  tag_15\n  jump\t// in\ntag_20:\n    /* \"#utility.yul\":194:197   */\n  dup3\n    /* \"#utility.yul\":187:223   */\n  mstore\n    /* \"#utility.yul\":114:229   */\n  pop\n  pop\n  jump\t// out\n    /* \"#utility.yul\":235:453   */\ntag_13:\n    /* \"#utility.yul\":326:330   */\n  0x00\n    /* \"#utility.yul\":364:366   */\n  0x20\n    /* \"#utility.yul\":353:362   */\n  dup3\n    /* \"#utility.yul\":349:367   */\n  add\n    /* \"#utility.yul\":341:367   */\n  swap1\n  pop\n    /* \"#utility.yul\":377:446   */\n  tag_22\n    /* \"#utility.yul\":443:444   */\n  0x00\n    /* \"#utility.yul\":432:441   */\n  dup4\n    /* \"#utility.yul\":428:445   */\n  add\n    /* \"#utility.yul\":419:425   */\n  dup5\n    /* \"#utility.yul\":377:446   */\n  tag_16\n  jump\t// in\ntag_22:\n    /* \"#utility.yul\":235:453   */\n  swap3\n  swap2\n  pop\n  pop\n  jump\t// out\n    /* \"src/smartcontracts/CryptoQuestSwap.sol\":638:8779  contract CryptoQuestSwap is Initializable, PausableUpgradeable, AccessControlUpgradeable, UUPSUpgradeable {... */\ntag_6:\n  mload(0x80)\n  codecopy(0x00, dataOffset(sub_0), dataSize(sub_0))\n  0x00\n  assignImmutable(\"0x3b04ad91523c4dcf551e081621e633b9099d51bf9c5461e58c3bc7354a578b27\")\n  return(0x00, dataSize(sub_0))\nstop\n\nsub_0: assembly {\n        /* \"src/smartcontracts/CryptoQuestSwap.sol\":638:8779  contract CryptoQuestSwap is Initializable, PausableUpgradeable, AccessControlUpgradeable, UUPSUpgradeable {... */\n      mstore(0x40, 0x80)\n      jumpi(tag_1, lt(calldatasize, 0x04))\n      shr(0xe0, calldataload(0x00))\n      dup1\n      0x56688700\n      gt\n      tag_33\n      jumpi\n      dup1\n      0xcc2a9a5b\n      gt\n      tag_34\n      jumpi\n      dup1\n      0xe15cc8da\n      gt\n      tag_35\n      jumpi\n      dup1\n      0xe15cc8da\n      eq\n      tag_29\n      jumpi\n      dup1\n      0xe63ab1e9\n      eq\n      tag_30\n      jumpi\n      dup1\n      0xf14210a6\n      eq\n      tag_31\n      jumpi\n      dup1\n      0xf72c0d8b\n      eq\n      tag_32\n      jumpi\n      jump(tag_1)\n    tag_35:\n      dup1\n      0xcc2a9a5b\n      eq\n      tag_25\n      jumpi\n      dup1\n      0xd547741f\n      eq\n      tag_26\n      jumpi\n      dup1\n      0xd9a37ad2\n      eq\n      tag_27\n      jumpi\n      dup1\n      0xda069683\n      eq\n      tag_28\n      jumpi\n      jump(tag_1)\n    tag_34:\n      dup1\n      0xa201ccf6\n      gt\n      tag_36\n      jumpi\n      dup1\n      0xa201ccf6\n      eq\n      tag_21\n      jumpi\n      dup1\n      0xa217fddf\n      eq\n      tag_22\n      jumpi\n      dup1\n      0xad3cb1cc\n      eq\n      tag_23\n      jumpi\n      dup1\n      0xc7088313\n      eq\n      tag_24\n      jumpi\n      jump(tag_1)\n    tag_36:\n      dup1\n      0x56688700\n      eq\n      tag_17\n      jumpi\n      dup1\n      0x5c975abb\n      eq\n      tag_18\n      jumpi\n      dup1\n      0x8456cb59\n      eq\n      tag_19\n      jumpi\n      dup1\n      0x91d14854\n      eq\n      tag_20\n      jumpi\n      jump(tag_1)\n    tag_33:\n      dup1\n      0x2f2ff15d\n      gt\n      tag_37\n      jumpi\n      dup1\n      0x49f0346e\n      gt\n      tag_38\n      jumpi\n      dup1\n      0x49f0346e\n      eq\n      tag_13\n      jumpi\n      dup1\n      0x4f1ef286\n      eq\n      tag_14\n      jumpi\n      dup1\n      0x51422e97\n      eq\n      tag_15\n      jumpi\n      dup1\n      0x52d1902d\n      eq\n      tag_16\n      jumpi\n      jump(tag_1)\n    tag_38:\n      dup1\n      0x2f2ff15d\n      eq\n      tag_9\n      jumpi\n      dup1\n      0x34aab064\n      eq\n      tag_10\n      jumpi\n      dup1\n      0x36568abe\n      eq\n      tag_11\n      jumpi\n      dup1\n      0x3f4ba83a\n      eq\n      tag_12\n      jumpi\n      jump(tag_1)\n    tag_37:\n      dup1\n      0x0b0fd47e\n      gt\n      tag_39\n      jumpi\n      dup1\n      0x0b0fd47e\n      eq\n      tag_5\n      jumpi\n      dup1\n      0x242f0551\n      eq\n      tag_6\n      jumpi\n      dup1\n      0x248a9ca3\n      eq\n      tag_7\n      jumpi\n      dup1\n      0x2d11c58a\n      eq\n      tag_8\n      jumpi\n      jump(tag_1)\n    tag_39:\n      dup1\n      0x01ffc9a7\n      eq\n      tag_2\n      jumpi\n      dup1\n      0x023245d7\n      eq\n      tag_3\n      jumpi\n      dup1\n      0x06b091f9\n      eq\n      tag_4\n      jumpi\n    tag_1:\n      0x00\n      dup1\n      revert\n        /* \"@openzeppelin/contracts-upgradeable/access/AccessControlUpgradeable.sol\":3443:3645  function supportsInterface(bytes4 interfaceId) public view virtual override returns (bool) {... */\n    tag_2:\n      callvalue\n      dup1\n      iszero\n      tag_40\n      jumpi\n      0x00\n      dup1\n      revert\n    tag_40:\n      pop\n      tag_41\n      0x04\n      dup1\n      calldatasize\n      sub\n      dup2\n      add\n      swap1\n      tag_42\n      swap2\n      swap1\n      tag_43\n      jump\t// in\n    tag_42:\n      tag_44\n      jump\t// in\n    tag_41:\n      mload(0x40)\n      tag_45\n      swap2\n      swap1\n      tag_46\n      jump\t// in\n    tag_45:\n      mload(0x40)\n      dup1\n      swap2\n      sub\n      swap1\n      return\n        /* \"src/smartcontracts/CryptoQuestSwap.sol\":8625:8777  function withdrawNFT(uint256 tokenId) external onlyRole(DEFAULT_ADMIN_ROLE) {... */\n    tag_3:\n      callvalue\n      dup1\n      iszero\n      tag_47\n      jumpi\n      0x00\n      dup1\n      revert\n    tag_47:\n      pop\n      tag_48\n      0x04\n      dup1\n      calldatasize\n      sub\n      dup2\n      add\n      swap1\n      tag_49\n      swap2\n      swap1\n      tag_50\n      jump\t// in\n    tag_49:\n      tag_51\n      jump\t// in\n    tag_48:\n      stop\n        /* \"src/smartcontracts/CryptoQuestSwap.sol\":8456:8619  function withdrawTokens(address token, uint256 amount) external onlyRole(DEFAULT_ADMIN_ROLE) {... */\n    tag_4:\n      callvalue\n      dup1\n      iszero\n      tag_52\n      jumpi\n      0x00\n      dup1\n      revert\n    tag_52:\n      pop\n      tag_53\n      0x04\n      dup1\n      calldatasize\n      sub\n      dup2\n      add\n      swap1\n      tag_54\n      swap2\n      swap1\n      tag_55\n      jump\t// in\n    tag_54:\n      tag_56\n      jump\t// in\n    tag_53:\n      stop\n        /* \"src/smartcontracts/CryptoQuestSwap.sol\":1283:1338  mapping(address => LiquidityPool) public liquidityPools */\n    tag_5:\n      callvalue\n      dup1\n      iszero\n      tag_57\n      jumpi\n      0x00\n      dup1\n      revert\n    tag_57:\n      pop\n      tag_58\n      0x04\n      dup1\n      calldatasize\n      sub\n      dup2\n      add\n      swap1\n      tag_59\n      swap2\n      swap1\n      tag_60\n      jump\t// in\n    tag_59:\n      tag_61\n      jump\t// in\n    tag_58:\n      mload(0x40)\n      tag_62\n      swap4\n      swap3\n      swap2\n      swap1\n      tag_63\n      jump\t// in\n    tag_62:\n      mload(0x40)\n      dup1\n      swap2\n      sub\n      swap1\n      return\n        /* \"src/smartcontracts/CryptoQuestSwap.sol\":890:974  bytes32 public constant LIQUIDITY_MANAGER_ROLE = keccak256(\"LIQUIDITY_MANAGER_ROLE\") */\n    tag_6:\n      callvalue\n      dup1\n      iszero\n      tag_64\n      jumpi\n      0x00\n      dup1\n      revert\n    tag_64:\n      pop\n      tag_65\n      tag_66\n      jump\t// in\n    tag_65:\n      mload(0x40)\n      tag_67\n      swap2\n      swap1\n      tag_68\n      jump\t// in\n    tag_67:\n      mload(0x40)\n      dup1\n      swap2\n      sub\n      swap1\n      return\n        /* \"@openzeppelin/contracts-upgradeable/access/AccessControlUpgradeable.sol\":4759:4950  function getRoleAdmin(bytes32 role) public view virtual returns (bytes32) {... */\n    tag_7:\n      callvalue\n      dup1\n      iszero\n      tag_69\n      jumpi\n      0x00\n      dup1\n      revert\n    tag_69:\n      pop\n      tag_70\n      0x04\n      dup1\n      calldatasize\n      sub\n      dup2\n      add\n      swap1\n      tag_71\n      swap2\n      swap1\n      tag_72\n      jump\t// in\n    tag_71:\n      tag_73\n      jump\t// in\n    tag_70:\n      mload(0x40)\n      tag_74\n      swap2\n      swap1\n      tag_68\n      jump\t// in\n    tag_74:\n      mload(0x40)\n      dup1\n      swap2\n      sub\n      swap1\n      return\n        /* \"src/smartcontracts/CryptoQuestSwap.sol\":981:1017  uint256 public constant FEE_RATE = 3 */\n    tag_8:\n      callvalue\n      dup1\n      iszero\n      tag_75\n      jumpi\n      0x00\n      dup1\n      revert\n    tag_75:\n      pop\n      tag_76\n      tag_77\n      jump\t// in\n    tag_76:\n      mload(0x40)\n      tag_78\n      swap2\n      swap1\n      tag_79\n      jump\t// in\n    tag_78:\n      mload(0x40)\n      dup1\n      swap2\n      sub\n      swap1\n      return\n        /* \"@openzeppelin/contracts-upgradeable/access/AccessControlUpgradeable.sol\":5246:5382  function grantRole(bytes32 role, address account) public virtual onlyRole(getRoleAdmin(role)) {... */\n    tag_9:\n      callvalue\n      dup1\n      iszero\n      tag_80\n      jumpi\n      0x00\n      dup1\n      revert\n    tag_80:\n      pop\n      tag_81\n      0x04\n      dup1\n      calldatasize\n      sub\n      dup2\n      add\n      swap1\n      tag_82\n      swap2\n      swap1\n      tag_83\n      jump\t// in\n    tag_82:\n      tag_84\n      jump\t// in\n    tag_81:\n      stop\n        /* \"src/smartcontracts/CryptoQuestSwap.sol\":1036:1069  IERC20Upgradeable public cqtToken */\n    tag_10:\n      callvalue\n      dup1\n      iszero\n      tag_85\n      jumpi\n      0x00\n      dup1\n      revert\n    tag_85:\n      pop\n      tag_86\n      tag_87\n      jump\t// in\n    tag_86:\n      mload(0x40)\n      tag_88\n      swap2\n      swap1\n      tag_89\n      jump\t// in\n    tag_88:\n      mload(0x40)\n      dup1\n      swap2\n      sub\n      swap1\n      return\n        /* \"@openzeppelin/contracts-upgradeable/access/AccessControlUpgradeable.sol\":6348:6593  function renounceRole(bytes32 role, address callerConfirmation) public virtual {... */\n    tag_11:\n      callvalue\n      dup1\n      iszero\n      tag_90\n      jumpi\n      0x00\n      dup1\n      revert\n    tag_90:\n      pop\n      tag_91\n      0x04\n      dup1\n      calldatasize\n      sub\n      dup2\n      add\n      swap1\n      tag_92\n      swap2\n      swap1\n      tag_83\n      jump\t// in\n    tag_92:\n      tag_93\n      jump\t// in\n    tag_91:\n      stop\n        /* \"src/smartcontracts/CryptoQuestSwap.sol\":2677:2752  function unpause() public onlyRole(PAUSER_ROLE) {... */\n    tag_12:\n      callvalue\n      dup1\n      iszero\n      tag_94\n      jumpi\n      0x00\n      dup1\n      revert\n    tag_94:\n      pop\n      tag_95\n      tag_96\n      jump\t// in\n    tag_95:\n      stop\n        /* \"src/smartcontracts/CryptoQuestSwap.sol\":6319:6960  function swapETHForNFT(uint256 tokenId, uint256 minETH) external payable whenNotPaused {... */\n    tag_13:\n      tag_97\n      0x04\n      dup1\n      calldatasize\n      sub\n      dup2\n      add\n      swap1\n      tag_98\n      swap2\n      swap1\n      tag_99\n      jump\t// in\n    tag_98:\n      tag_100\n      jump\t// in\n    tag_97:\n      stop\n        /* \"@openzeppelin/contracts-upgradeable/proxy/utils/UUPSUpgradeable.sol\":4158:4372  function upgradeToAndCall(address newImplementation, bytes memory data) public payable virtual onlyProxy {... */\n    tag_14:\n      tag_101\n      0x04\n      dup1\n      calldatasize\n      sub\n      dup2\n      add\n      swap1\n      tag_102\n      swap2\n      swap1\n      tag_103\n      jump\t// in\n    tag_102:\n      tag_104\n      jump\t// in\n    tag_101:\n      stop\n        /* \"src/smartcontracts/CryptoQuestSwap.sol\":4824:5527  function swapETHForTokens(address token, uint256 minTokens) external payable whenNotPaused {... */\n    tag_15:\n      tag_105\n      0x04\n      dup1\n      calldatasize\n      sub\n      dup2\n      add\n      swap1\n      tag_106\n      swap2\n      swap1\n      tag_55\n      jump\t// in\n    tag_106:\n      tag_107\n      jump\t// in\n    tag_105:\n      stop\n        /* \"@openzeppelin/contracts-upgradeable/proxy/utils/UUPSUpgradeable.sol\":3705:3839  function proxiableUUID() external view virtual notDelegated returns (bytes32) {... */\n    tag_16:\n      callvalue\n      dup1\n      iszero\n      tag_108\n      jumpi\n      0x00\n      dup1\n      revert\n    tag_108:\n      pop\n      tag_109\n      tag_110\n      jump\t// in\n    tag_109:\n      mload(0x40)\n      tag_111\n      swap2\n      swap1\n      tag_68\n      jump\t// in\n    tag_111:\n      mload(0x40)\n      dup1\n      swap2\n      sub\n      swap1\n      return\n        /* \"src/smartcontracts/CryptoQuestSwap.sol\":2758:4007  function addLiquidity(address token, uint256 tokenAmount) external payable whenNotPaused returns (uint256) {... */\n    tag_17:\n      tag_112\n      0x04\n      dup1\n      calldatasize\n      sub\n      dup2\n      add\n      swap1\n      tag_113\n      swap2\n      swap1\n      tag_55\n      jump\t// in\n    tag_113:\n      tag_114\n      jump\t// in\n    tag_112:\n      mload(0x40)\n      tag_115\n      swap2\n      swap1\n      tag_79\n      jump\t// in\n    tag_115:\n      mload(0x40)\n      dup1\n      swap2\n      sub\n      swap1\n      return\n        /* \"@openzeppelin/contracts-upgradeable/utils/PausableUpgradeable.sol\":2692:2837  function paused() public view virtual returns (bool) {... */\n    tag_18:\n      callvalue\n      dup1\n      iszero\n      tag_116\n      jumpi\n      0x00\n      dup1\n      revert\n    tag_116:\n      pop\n      tag_117\n      tag_118\n      jump\t// in\n    tag_117:\n      mload(0x40)\n      tag_119\n      swap2\n      swap1\n      tag_46\n      jump\t// in\n    tag_119:\n      mload(0x40)\n      dup1\n      swap2\n      sub\n      swap1\n      return\n        /* \"src/smartcontracts/CryptoQuestSwap.sol\":2600:2671  function pause() public onlyRole(PAUSER_ROLE) {... */\n    tag_19:\n      callvalue\n      dup1\n      iszero\n      tag_120\n      jumpi\n      0x00\n      dup1\n      revert\n    tag_120:\n      pop\n      tag_121\n      tag_122\n      jump\t// in\n    tag_121:\n      stop\n        /* \"@openzeppelin/contracts-upgradeable/access/AccessControlUpgradeable.sol\":3732:3939  function hasRole(bytes32 role, address account) public view virtual returns (bool) {... */\n    tag_20:\n      callvalue\n      dup1\n      iszero\n      tag_123\n      jumpi\n      0x00\n      dup1\n      revert\n    tag_123:\n      pop\n      tag_124\n      0x04\n      dup1\n      calldatasize\n      sub\n      dup2\n      add\n      swap1\n      tag_125\n      swap2\n      swap1\n      tag_83\n      jump\t// in\n    tag_125:\n      tag_126\n      jump\t// in\n    tag_124:\n      mload(0x40)\n      tag_127\n      swap2\n      swap1\n      tag_46\n      jump\t// in\n    tag_127:\n      mload(0x40)\n      dup1\n      swap2\n      sub\n      swap1\n      return\n        /* \"src/smartcontracts/CryptoQuestSwap.sol\":4013:4818  function removeLiquidity(address token, uint256 liquidity) external whenNotPaused returns (uint256 tokenAmount, uint256 ethAmount) {... */\n    tag_21:\n      callvalue\n      dup1\n      iszero\n      tag_128\n      jumpi\n      0x00\n      dup1\n      revert\n    tag_128:\n      pop\n      tag_129\n      0x04\n      dup1\n      calldatasize\n      sub\n      dup2\n      add\n      swap1\n      tag_130\n      swap2\n      swap1\n      tag_55\n      jump\t// in\n    tag_130:\n      tag_131\n      jump\t// in\n    tag_129:\n      mload(0x40)\n      tag_132\n      swap3\n      swap2\n      swap1\n      tag_133\n      jump\t// in\n    tag_132:\n      mload(0x40)\n      dup1\n      swap2\n      sub\n      swap1\n      return\n        /* \"@openzeppelin/contracts-upgradeable/access/AccessControlUpgradeable.sol\":2317:2366  bytes32 public constant DEFAULT_ADMIN_ROLE = 0x00 */\n    tag_22:\n      callvalue\n      dup1\n      iszero\n      tag_134\n      jumpi\n      0x00\n      dup1\n      revert\n    tag_134:\n      pop\n      tag_135\n      tag_136\n      jump\t// in\n    tag_135:\n      mload(0x40)\n      tag_137\n      swap2\n      swap1\n      tag_68\n      jump\t// in\n    tag_137:\n      mload(0x40)\n      dup1\n      swap2\n      sub\n      swap1\n      return\n        /* \"@openzeppelin/contracts-upgradeable/proxy/utils/UUPSUpgradeable.sol\":1819:1877  string public constant UPGRADE_INTERFACE_VERSION = \"5.0.0\" */\n    tag_23:\n      callvalue\n      dup1\n      iszero\n      tag_138\n      jumpi\n      0x00\n      dup1\n      revert\n    tag_138:\n      pop\n      tag_139\n      tag_140\n      jump\t// in\n    tag_139:\n      mload(0x40)\n      tag_141\n      swap2\n      swap1\n      tag_142\n      jump\t// in\n    tag_141:\n      mload(0x40)\n      dup1\n      swap2\n      sub\n      swap1\n      return\n        /* \"src/smartcontracts/CryptoQuestSwap.sol\":7987:8242  function updateLiquidityPool(address token, uint256 newTokenAmount, uint256 newEthAmount) external onlyRole(LIQUIDITY_MANAGER_ROLE) {... */\n    tag_24:\n      callvalue\n      dup1\n      iszero\n      tag_143\n      jumpi\n      0x00\n      dup1\n      revert\n    tag_143:\n      pop\n      tag_144\n      0x04\n      dup1\n      calldatasize\n      sub\n      dup2\n      add\n      swap1\n      tag_145\n      swap2\n      swap1\n      tag_146\n      jump\t// in\n    tag_145:\n      tag_147\n      jump\t// in\n    tag_144:\n      stop\n        /* \"src/smartcontracts/CryptoQuestSwap.sol\":1960:2594  function initialize(... */\n    tag_25:\n      callvalue\n      dup1\n      iszero\n      tag_148\n      jumpi\n      0x00\n      dup1\n      revert\n    tag_148:\n      pop\n      tag_149\n      0x04\n      dup1\n      calldatasize\n      sub\n      dup2\n      add\n      swap1\n      tag_150\n      swap2\n      swap1\n      tag_151\n      jump\t// in\n    tag_150:\n      tag_152\n      jump\t// in\n    tag_149:\n      stop\n        /* \"@openzeppelin/contracts-upgradeable/access/AccessControlUpgradeable.sol\":5662:5800  function revokeRole(bytes32 role, address account) public virtual onlyRole(getRoleAdmin(role)) {... */\n    tag_26:\n      callvalue\n      dup1\n      iszero\n      tag_153\n      jumpi\n      0x00\n      dup1\n      revert\n    tag_153:\n      pop\n      tag_154\n      0x04\n      dup1\n      calldatasize\n      sub\n      dup2\n      add\n      swap1\n      tag_155\n      swap2\n      swap1\n      tag_83\n      jump\t// in\n    tag_155:\n      tag_156\n      jump\t// in\n    tag_154:\n      stop\n        /* \"src/smartcontracts/CryptoQuestSwap.sol\":6966:7493  function swapNFTForETH(uint256 tokenId, uint256 minETH) external whenNotPaused {... */\n    tag_27:\n      callvalue\n      dup1\n      iszero\n      tag_157\n      jumpi\n      0x00\n      dup1\n      revert\n    tag_157:\n      pop\n      tag_158\n      0x04\n      dup1\n      calldatasize\n      sub\n      dup2\n      add\n      swap1\n      tag_159\n      swap2\n      swap1\n      tag_99\n      jump\t// in\n    tag_159:\n      tag_160\n      jump\t// in\n    tag_158:\n      stop\n        /* \"src/smartcontracts/CryptoQuestSwap.sol\":1075:1107  IERC721Upgradeable public cqtNFT */\n    tag_28:\n      callvalue\n      dup1\n      iszero\n      tag_161\n      jumpi\n      0x00\n      dup1\n      revert\n    tag_161:\n      pop\n      tag_162\n      tag_163\n      jump\t// in\n    tag_162:\n      mload(0x40)\n      tag_164\n      swap2\n      swap1\n      tag_165\n      jump\t// in\n    tag_164:\n      mload(0x40)\n      dup1\n      swap2\n      sub\n      swap1\n      return\n        /* \"src/smartcontracts/CryptoQuestSwap.sol\":5533:6313  function swapTokensForETH(address token, uint256 tokenAmount, uint256 minETH) external whenNotPaused {... */\n    tag_29:\n      callvalue\n      dup1\n      iszero\n      tag_166\n      jumpi\n      0x00\n      dup1\n      revert\n    tag_166:\n      pop\n      tag_167\n      0x04\n      dup1\n      calldatasize\n      sub\n      dup2\n      add\n      swap1\n      tag_168\n      swap2\n      swap1\n      tag_146\n      jump\t// in\n    tag_168:\n      tag_169\n      jump\t// in\n    tag_167:\n      stop\n        /* \"src/smartcontracts/CryptoQuestSwap.sol\":750:812  bytes32 public constant PAUSER_ROLE = keccak256(\"PAUSER_ROLE\") */\n    tag_30:\n      callvalue\n      dup1\n      iszero\n      tag_170\n      jumpi\n      0x00\n      dup1\n      revert\n    tag_170:\n      pop\n      tag_171\n      tag_172\n      jump\t// in\n    tag_171:\n      mload(0x40)\n      tag_173\n      swap2\n      swap1\n      tag_68\n      jump\t// in\n    tag_173:\n      mload(0x40)\n      dup1\n      swap2\n      sub\n      swap1\n      return\n        /* \"src/smartcontracts/CryptoQuestSwap.sol\":8248:8450  function withdrawETH(uint256 amount) external onlyRole(DEFAULT_ADMIN_ROLE) {... */\n    tag_31:\n      callvalue\n      dup1\n      iszero\n      tag_174\n      jumpi\n      0x00\n      dup1\n      revert\n    tag_174:\n      pop\n      tag_175\n      0x04\n      dup1\n      calldatasize\n      sub\n      dup2\n      add\n      swap1\n      tag_176\n      swap2\n      swap1\n      tag_50\n      jump\t// in\n    tag_176:\n      tag_177\n      jump\t// in\n    tag_175:\n      stop\n        /* \"src/smartcontracts/CryptoQuestSwap.sol\":818:884  bytes32 public constant UPGRADER_ROLE = keccak256(\"UPGRADER_ROLE\") */\n    tag_32:\n      callvalue\n      dup1\n      iszero\n      tag_178\n      jumpi\n      0x00\n      dup1\n      revert\n    tag_178:\n      pop\n      tag_179\n      tag_180\n      jump\t// in\n    tag_179:\n      mload(0x40)\n      tag_181\n      swap2\n      swap1\n      tag_68\n      jump\t// in\n    tag_181:\n      mload(0x40)\n      dup1\n      swap2\n      sub\n      swap1\n      return\n        /* \"@openzeppelin/contracts-upgradeable/access/AccessControlUpgradeable.sol\":3443:3645  function supportsInterface(bytes4 interfaceId) public view virtual override returns (bool) {... */\n    tag_44:\n        /* \"@openzeppelin/contracts-upgradeable/access/AccessControlUpgradeable.sol\":3528:3532  bool */\n      0x00\n        /* \"@openzeppelin/contracts-upgradeable/access/AccessControlUpgradeable.sol\":3566:3598  type(IAccessControl).interfaceId */\n      0x7965db0b00000000000000000000000000000000000000000000000000000000\n        /* \"@openzeppelin/contracts-upgradeable/access/AccessControlUpgradeable.sol\":3551:3598  interfaceId == type(IAccessControl).interfaceId */\n      not(0xffffffffffffffffffffffffffffffffffffffffffffffffffffffff)\n      and\n        /* \"@openzeppelin/contracts-upgradeable/access/AccessControlUpgradeable.sol\":3551:3562  interfaceId */\n      dup3\n        /* \"@openzeppelin/contracts-upgradeable/access/AccessControlUpgradeable.sol\":3551:3598  interfaceId == type(IAccessControl).interfaceId */\n      not(0xffffffffffffffffffffffffffffffffffffffffffffffffffffffff)\n      and\n      eq\n        /* \"@openzeppelin/contracts-upgradeable/access/AccessControlUpgradeable.sol\":3551:3638  interfaceId == type(IAccessControl).interfaceId || super.supportsInterface(interfaceId) */\n      dup1\n      tag_183\n      jumpi\n      pop\n        /* \"@openzeppelin/contracts-upgradeable/access/AccessControlUpgradeable.sol\":3602:3638  super.supportsInterface(interfaceId) */\n      tag_184\n        /* \"@openzeppelin/contracts-upgradeable/access/AccessControlUpgradeable.sol\":3626:3637  interfaceId */\n      dup3\n        /* \"@openzeppelin/contracts-upgradeable/access/AccessControlUpgradeable.sol\":3602:3625  super.supportsInterface */\n      tag_185\n        /* \"@openzeppelin/contracts-upgradeable/access/AccessControlUpgradeable.sol\":3602:3638  super.supportsInterface(interfaceId) */\n      jump\t// in\n    tag_184:\n        /* \"@openzeppelin/contracts-upgradeable/access/AccessControlUpgradeable.sol\":3551:3638  interfaceId == type(IAccessControl).interfaceId || super.supportsInterface(interfaceId) */\n    tag_183:\n        /* \"@openzeppelin/contracts-upgradeable/access/AccessControlUpgradeable.sol\":3544:3638  return interfaceId == type(IAccessControl).interfaceId || super.supportsInterface(interfaceId) */\n      swap1\n      pop\n        /* \"@openzeppelin/contracts-upgradeable/access/AccessControlUpgradeable.sol\":3443:3645  function supportsInterface(bytes4 interfaceId) public view virtual override returns (bool) {... */\n      swap2\n      swap1\n      pop\n      jump\t// out\n        /* \"src/smartcontracts/CryptoQuestSwap.sol\":8625:8777  function withdrawNFT(uint256 tokenId) external onlyRole(DEFAULT_ADMIN_ROLE) {... */\n    tag_51:\n        /* \"@openzeppelin/contracts-upgradeable/access/AccessControlUpgradeable.sol\":2362:2366  0x00 */\n      0x00\n        /* \"src/smartcontracts/CryptoQuestSwap.sol\":8681:8699  DEFAULT_ADMIN_ROLE */\n      dup1\n      shl\n        /* \"@openzeppelin/contracts-upgradeable/access/AccessControlUpgradeable.sol\":3191:3207  _checkRole(role) */\n      tag_187\n        /* \"@openzeppelin/contracts-upgradeable/access/AccessControlUpgradeable.sol\":3202:3206  role */\n      dup2\n        /* \"@openzeppelin/contracts-upgradeable/access/AccessControlUpgradeable.sol\":3191:3201  _checkRole */\n      tag_188\n        /* \"@openzeppelin/contracts-upgradeable/access/AccessControlUpgradeable.sol\":3191:3207  _checkRole(role) */\n      jump\t// in\n    tag_187:\n        /* \"src/smartcontracts/CryptoQuestSwap.sol\":8711:8717  cqtNFT */\n      0x01\n      0x00\n      swap1\n      sload\n      swap1\n      0x0100\n      exp\n      swap1\n      div\n      0xffffffffffffffffffffffffffffffffffffffff\n      and\n        /* \"src/smartcontracts/CryptoQuestSwap.sol\":8711:8734  cqtNFT.safeTransferFrom */\n      0xffffffffffffffffffffffffffffffffffffffff\n      and\n      0x42842e0e\n        /* \"src/smartcontracts/CryptoQuestSwap.sol\":8743:8747  this */\n      address\n        /* \"src/smartcontracts/CryptoQuestSwap.sol\":8750:8760  msg.sender */\n      caller\n        /* \"src/smartcontracts/CryptoQuestSwap.sol\":8762:8769  tokenId */\n      dup6\n        /* \"src/smartcontracts/CryptoQuestSwap.sol\":8711:8770  cqtNFT.safeTransferFrom(address(this), msg.sender, tokenId) */\n      mload(0x40)\n      dup5\n      0xffffffff\n      and\n      0xe0\n      shl\n      dup2\n      mstore\n      0x04\n      add\n      tag_190\n      swap4\n      swap3\n      swap2\n      swap1\n      tag_191\n      jump\t// in\n    tag_190:\n      0x00\n      mload(0x40)\n      dup1\n      dup4\n      sub\n      dup2\n      0x00\n      dup8\n      dup1\n      extcodesize\n      iszero\n      dup1\n      iszero\n      tag_192\n      jumpi\n      0x00\n      dup1\n      revert\n    tag_192:\n      pop\n      gas\n      call\n      iszero\n      dup1\n      iszero\n      tag_194\n      jumpi\n      returndatasize\n      0x00\n      dup1\n      returndatacopy\n      revert(0x00, returndatasize)\n    tag_194:\n      pop\n      pop\n      pop\n      pop\n        /* \"src/smartcontracts/CryptoQuestSwap.sol\":8625:8777  function withdrawNFT(uint256 tokenId) external onlyRole(DEFAULT_ADMIN_ROLE) {... */\n      pop\n      pop\n      jump\t// out\n        /* \"src/smartcontracts/CryptoQuestSwap.sol\":8456:8619  function withdrawTokens(address token, uint256 amount) external onlyRole(DEFAULT_ADMIN_ROLE) {... */\n    tag_56:\n        /* \"@openzeppelin/contracts-upgradeable/access/AccessControlUpgradeable.sol\":2362:2366  0x00 */\n      0x00\n        /* \"src/smartcontracts/CryptoQuestSwap.sol\":8529:8547  DEFAULT_ADMIN_ROLE */\n      dup1\n      shl\n        /* \"@openzeppelin/contracts-upgradeable/access/AccessControlUpgradeable.sol\":3191:3207  _checkRole(role) */\n      tag_196\n        /* \"@openzeppelin/contracts-upgradeable/access/AccessControlUpgradeable.sol\":3202:3206  role */\n      dup2\n        /* \"@openzeppelin/contracts-upgradeable/access/AccessControlUpgradeable.sol\":3191:3201  _checkRole */\n      tag_188\n        /* \"@openzeppelin/contracts-upgradeable/access/AccessControlUpgradeable.sol\":3191:3207  _checkRole(role) */\n      jump\t// in\n    tag_196:\n        /* \"src/smartcontracts/CryptoQuestSwap.sol\":8577:8582  token */\n      dup3\n        /* \"src/smartcontracts/CryptoQuestSwap.sol\":8559:8592  IERC20Upgradeable(token).transfer */\n      0xffffffffffffffffffffffffffffffffffffffff\n      and\n      0xa9059cbb\n        /* \"src/smartcontracts/CryptoQuestSwap.sol\":8593:8603  msg.sender */\n      caller\n        /* \"src/smartcontracts/CryptoQuestSwap.sol\":8605:8611  amount */\n      dup5\n        /* \"src/smartcontracts/CryptoQuestSwap.sol\":8559:8612  IERC20Upgradeable(token).transfer(msg.sender, amount) */\n      mload(0x40)\n      dup4\n      0xffffffff\n      and\n      0xe0\n      shl\n      dup2\n      mstore\n      0x04\n      add\n      tag_198\n      swap3\n      swap2\n      swap1\n      tag_199\n      jump\t// in\n    tag_198:\n      0x20\n      mload(0x40)\n      dup1\n      dup4\n      sub\n      dup2\n      0x00\n      dup8\n      gas\n      call\n      iszero\n      dup1\n      iszero\n      tag_201\n      jumpi\n      returndatasize\n      0x00\n      dup1\n      returndatacopy\n      revert(0x00, returndatasize)\n    tag_201:\n      pop\n      pop\n      pop\n      pop\n      mload(0x40)\n      returndatasize\n      not(0x1f)\n      0x1f\n      dup3\n      add\n      and\n      dup3\n      add\n      dup1\n      0x40\n      mstore\n      pop\n      dup2\n      add\n      swap1\n      tag_202\n      swap2\n      swap1\n      tag_203\n      jump\t// in\n    tag_202:\n      pop\n        /* \"src/smartcontracts/CryptoQuestSwap.sol\":8456:8619  function withdrawTokens(address token, uint256 amount) external onlyRole(DEFAULT_ADMIN_ROLE) {... */\n      pop\n      pop\n      pop\n      jump\t// out\n        /* \"src/smartcontracts/CryptoQuestSwap.sol\":1283:1338  mapping(address => LiquidityPool) public liquidityPools */\n    tag_61:\n      mstore(0x20, 0x02)\n      dup1\n      0x00\n      mstore\n      keccak256(0x00, 0x40)\n      0x00\n      swap2\n      pop\n      swap1\n      pop\n      dup1\n      0x00\n      add\n      sload\n      swap1\n      dup1\n      0x01\n      add\n      sload\n      swap1\n      dup1\n      0x02\n      add\n      sload\n      swap1\n      pop\n      dup4\n      jump\t// out\n        /* \"src/smartcontracts/CryptoQuestSwap.sol\":890:974  bytes32 public constant LIQUIDITY_MANAGER_ROLE = keccak256(\"LIQUIDITY_MANAGER_ROLE\") */\n    tag_66:\n        /* \"src/smartcontracts/CryptoQuestSwap.sol\":939:974  keccak256(\"LIQUIDITY_MANAGER_ROLE\") */\n      0x77e60b99a50d27fb027f6912a507d956105b4148adab27a86d235c8bcca8fa2f\n        /* \"src/smartcontracts/CryptoQuestSwap.sol\":890:974  bytes32 public constant LIQUIDITY_MANAGER_ROLE = keccak256(\"LIQUIDITY_MANAGER_ROLE\") */\n      dup2\n      jump\t// out\n        /* \"@openzeppelin/contracts-upgradeable/access/AccessControlUpgradeable.sol\":4759:4950  function getRoleAdmin(bytes32 role) public view virtual returns (bytes32) {... */\n    tag_73:\n        /* \"@openzeppelin/contracts-upgradeable/access/AccessControlUpgradeable.sol\":4824:4831  bytes32 */\n      0x00\n        /* \"@openzeppelin/contracts-upgradeable/access/AccessControlUpgradeable.sol\":4843:4873  AccessControlStorage storage $ */\n      dup1\n        /* \"@openzeppelin/contracts-upgradeable/access/AccessControlUpgradeable.sol\":4876:4902  _getAccessControlStorage() */\n      tag_205\n        /* \"@openzeppelin/contracts-upgradeable/access/AccessControlUpgradeable.sol\":4876:4900  _getAccessControlStorage */\n      tag_206\n        /* \"@openzeppelin/contracts-upgradeable/access/AccessControlUpgradeable.sol\":4876:4902  _getAccessControlStorage() */\n      jump\t// in\n    tag_205:\n        /* \"@openzeppelin/contracts-upgradeable/access/AccessControlUpgradeable.sol\":4843:4902  AccessControlStorage storage $ = _getAccessControlStorage() */\n      swap1\n      pop\n        /* \"@openzeppelin/contracts-upgradeable/access/AccessControlUpgradeable.sol\":4919:4920  $ */\n      dup1\n        /* \"@openzeppelin/contracts-upgradeable/access/AccessControlUpgradeable.sol\":4919:4927  $._roles */\n      0x00\n      add\n        /* \"@openzeppelin/contracts-upgradeable/access/AccessControlUpgradeable.sol\":4919:4933  $._roles[role] */\n      0x00\n        /* \"@openzeppelin/contracts-upgradeable/access/AccessControlUpgradeable.sol\":4928:4932  role */\n      dup5\n        /* \"@openzeppelin/contracts-upgradeable/access/AccessControlUpgradeable.sol\":4919:4933  $._roles[role] */\n      dup2\n      mstore\n      0x20\n      add\n      swap1\n      dup2\n      mstore\n      0x20\n      add\n      0x00\n      keccak256\n        /* \"@openzeppelin/contracts-upgradeable/access/AccessControlUpgradeable.sol\":4919:4943  $._roles[role].adminRole */\n      0x01\n      add\n      sload\n        /* \"@openzeppelin/contracts-upgradeable/access/AccessControlUpgradeable.sol\":4912:4943  return $._roles[role].adminRole */\n      swap2\n      pop\n      pop\n        /* \"@openzeppelin/contracts-upgradeable/access/AccessControlUpgradeable.sol\":4759:4950  function getRoleAdmin(bytes32 role) public view virtual returns (bytes32) {... */\n      swap2\n      swap1\n      pop\n      jump\t// out\n        /* \"src/smartcontracts/CryptoQuestSwap.sol\":981:1017  uint256 public constant FEE_RATE = 3 */\n    tag_77:\n        /* \"src/smartcontracts/CryptoQuestSwap.sol\":1016:1017  3 */\n      0x03\n        /* \"src/smartcontracts/CryptoQuestSwap.sol\":981:1017  uint256 public constant FEE_RATE = 3 */\n      dup2\n      jump\t// out\n        /* \"@openzeppelin/contracts-upgradeable/access/AccessControlUpgradeable.sol\":5246:5382  function grantRole(bytes32 role, address account) public virtual onlyRole(getRoleAdmin(role)) {... */\n    tag_84:\n        /* \"@openzeppelin/contracts-upgradeable/access/AccessControlUpgradeable.sol\":5320:5338  getRoleAdmin(role) */\n      tag_207\n        /* \"@openzeppelin/contracts-upgradeable/access/AccessControlUpgradeable.sol\":5333:5337  role */\n      dup3\n        /* \"@openzeppelin/contracts-upgradeable/access/AccessControlUpgradeable.sol\":5320:5332  getRoleAdmin */\n      tag_73\n        /* \"@openzeppelin/contracts-upgradeable/access/AccessControlUpgradeable.sol\":5320:5338  getRoleAdmin(role) */\n      jump\t// in\n    tag_207:\n        /* \"@openzeppelin/contracts-upgradeable/access/AccessControlUpgradeable.sol\":3191:3207  _checkRole(role) */\n      tag_209\n        /* \"@openzeppelin/contracts-upgradeable/access/AccessControlUpgradeable.sol\":3202:3206  role */\n      dup2\n        /* \"@openzeppelin/contracts-upgradeable/access/AccessControlUpgradeable.sol\":3191:3201  _checkRole */\n      tag_188\n        /* \"@openzeppelin/contracts-upgradeable/access/AccessControlUpgradeable.sol\":3191:3207  _checkRole(role) */\n      jump\t// in\n    tag_209:\n        /* \"@openzeppelin/contracts-upgradeable/access/AccessControlUpgradeable.sol\":5350:5375  _grantRole(role, account) */\n      tag_211\n        /* \"@openzeppelin/contracts-upgradeable/access/AccessControlUpgradeable.sol\":5361:5365  role */\n      dup4\n        /* \"@openzeppelin/contracts-upgradeable/access/AccessControlUpgradeable.sol\":5367:5374  account */\n      dup4\n        /* \"@openzeppelin/contracts-upgradeable/access/AccessControlUpgradeable.sol\":5350:5360  _grantRole */\n      tag_212\n        /* \"@openzeppelin/contracts-upgradeable/access/AccessControlUpgradeable.sol\":5350:5375  _grantRole(role, account) */\n      jump\t// in\n    tag_211:\n      pop\n        /* \"@openzeppelin/contracts-upgradeable/access/AccessControlUpgradeable.sol\":5246:5382  function grantRole(bytes32 role, address account) public virtual onlyRole(getRoleAdmin(role)) {... */\n      pop\n      pop\n      pop\n      jump\t// out\n        /* \"src/smartcontracts/CryptoQuestSwap.sol\":1036:1069  IERC20Upgradeable public cqtToken */\n    tag_87:\n      0x00\n      dup1\n      sload\n      swap1\n      0x0100\n      exp\n      swap1\n      div\n      0xffffffffffffffffffffffffffffffffffffffff\n      and\n      dup2\n      jump\t// out\n        /* \"@openzeppelin/contracts-upgradeable/access/AccessControlUpgradeable.sol\":6348:6593  function renounceRole(bytes32 role, address callerConfirmation) public virtual {... */\n    tag_93:\n        /* \"@openzeppelin/contracts-upgradeable/access/AccessControlUpgradeable.sol\":6463:6475  _msgSender() */\n      tag_214\n        /* \"@openzeppelin/contracts-upgradeable/access/AccessControlUpgradeable.sol\":6463:6473  _msgSender */\n      tag_215\n        /* \"@openzeppelin/contracts-upgradeable/access/AccessControlUpgradeable.sol\":6463:6475  _msgSender() */\n      jump\t// in\n    tag_214:\n        /* \"@openzeppelin/contracts-upgradeable/access/AccessControlUpgradeable.sol\":6441:6475  callerConfirmation != _msgSender() */\n      0xffffffffffffffffffffffffffffffffffffffff\n      and\n        /* \"@openzeppelin/contracts-upgradeable/access/AccessControlUpgradeable.sol\":6441:6459  callerConfirmation */\n      dup2\n        /* \"@openzeppelin/contracts-upgradeable/access/AccessControlUpgradeable.sol\":6441:6475  callerConfirmation != _msgSender() */\n      0xffffffffffffffffffffffffffffffffffffffff\n      and\n      eq\n        /* \"@openzeppelin/contracts-upgradeable/access/AccessControlUpgradeable.sol\":6437:6539  if (callerConfirmation != _msgSender()) {... */\n      tag_216\n      jumpi\n        /* \"@openzeppelin/contracts-upgradeable/access/AccessControlUpgradeable.sol\":6498:6528  AccessControlBadConfirmation() */\n      mload(0x40)\n      0x6697b23200000000000000000000000000000000000000000000000000000000\n      dup2\n      mstore\n      0x04\n      add\n      mload(0x40)\n      dup1\n      swap2\n      sub\n      swap1\n      revert\n        /* \"@openzeppelin/contracts-upgradeable/access/AccessControlUpgradeable.sol\":6437:6539  if (callerConfirmation != _msgSender()) {... */\n    tag_216:\n        /* \"@openzeppelin/contracts-upgradeable/access/AccessControlUpgradeable.sol\":6549:6586  _revokeRole(role, callerConfirmation) */\n      tag_217\n        /* \"@openzeppelin/contracts-upgradeable/access/AccessControlUpgradeable.sol\":6561:6565  role */\n      dup3\n        /* \"@openzeppelin/contracts-upgradeable/access/AccessControlUpgradeable.sol\":6567:6585  callerConfirmation */\n      dup3\n        /* \"@openzeppelin/contracts-upgradeable/access/AccessControlUpgradeable.sol\":6549:6560  _revokeRole */\n      tag_218\n        /* \"@openzeppelin/contracts-upgradeable/access/AccessControlUpgradeable.sol\":6549:6586  _revokeRole(role, callerConfirmation) */\n      jump\t// in\n    tag_217:\n      pop\n        /* \"@openzeppelin/contracts-upgradeable/access/AccessControlUpgradeable.sol\":6348:6593  function renounceRole(bytes32 role, address callerConfirmation) public virtual {... */\n      pop\n      pop\n      jump\t// out\n        /* \"src/smartcontracts/CryptoQuestSwap.sol\":2677:2752  function unpause() public onlyRole(PAUSER_ROLE) {... */\n    tag_96:\n        /* \"src/smartcontracts/CryptoQuestSwap.sol\":788:812  keccak256(\"PAUSER_ROLE\") */\n      0x65d7a28e3265b37a6474929f336521b332c1681b933f6cb9f3376673440d862a\n        /* \"@openzeppelin/contracts-upgradeable/access/AccessControlUpgradeable.sol\":3191:3207  _checkRole(role) */\n      tag_220\n        /* \"@openzeppelin/contracts-upgradeable/access/AccessControlUpgradeable.sol\":3202:3206  role */\n      dup2\n        /* \"@openzeppelin/contracts-upgradeable/access/AccessControlUpgradeable.sol\":3191:3201  _checkRole */\n      tag_188\n        /* \"@openzeppelin/contracts-upgradeable/access/AccessControlUpgradeable.sol\":3191:3207  _checkRole(role) */\n      jump\t// in\n    tag_220:\n        /* \"src/smartcontracts/CryptoQuestSwap.sol\":2735:2745  _unpause() */\n      tag_222\n        /* \"src/smartcontracts/CryptoQuestSwap.sol\":2735:2743  _unpause */\n      tag_223\n        /* \"src/smartcontracts/CryptoQuestSwap.sol\":2735:2745  _unpause() */\n      jump\t// in\n    tag_222:\n        /* \"src/smartcontracts/CryptoQuestSwap.sol\":2677:2752  function unpause() public onlyRole(PAUSER_ROLE) {... */\n      pop\n      jump\t// out\n        /* \"src/smartcontracts/CryptoQuestSwap.sol\":6319:6960  function swapETHForNFT(uint256 tokenId, uint256 minETH) external payable whenNotPaused {... */\n    tag_100:\n        /* \"@openzeppelin/contracts-upgradeable/utils/PausableUpgradeable.sol\":2316:2335  _requireNotPaused() */\n      tag_225\n        /* \"@openzeppelin/contracts-upgradeable/utils/PausableUpgradeable.sol\":2316:2333  _requireNotPaused */\n      tag_226\n        /* \"@openzeppelin/contracts-upgradeable/utils/PausableUpgradeable.sol\":2316:2335  _requireNotPaused() */\n      jump\t// in\n    tag_225:\n        /* \"src/smartcontracts/CryptoQuestSwap.sol\":6436:6437  0 */\n      0x00\n        /* \"src/smartcontracts/CryptoQuestSwap.sol\":6424:6433  msg.value */\n      callvalue\n        /* \"src/smartcontracts/CryptoQuestSwap.sol\":6424:6437  msg.value > 0 */\n      gt\n        /* \"src/smartcontracts/CryptoQuestSwap.sol\":6416:6478  require(msg.value > 0, \"ETH amount must be greater than zero\") */\n      tag_228\n      jumpi\n      mload(0x40)\n      0x08c379a000000000000000000000000000000000000000000000000000000000\n      dup2\n      mstore\n      0x04\n      add\n      tag_229\n      swap1\n      tag_230\n      jump\t// in\n    tag_229:\n      mload(0x40)\n      dup1\n      swap2\n      sub\n      swap1\n      revert\n    tag_228:\n        /* \"src/smartcontracts/CryptoQuestSwap.sol\":6531:6535  this */\n      address\n        /* \"src/smartcontracts/CryptoQuestSwap.sol\":6496:6536  cqtNFT.ownerOf(tokenId) == address(this) */\n      0xffffffffffffffffffffffffffffffffffffffff\n      and\n        /* \"src/smartcontracts/CryptoQuestSwap.sol\":6496:6502  cqtNFT */\n      0x01\n      0x00\n      swap1\n      sload\n      swap1\n      0x0100\n      exp\n      swap1\n      div\n      0xffffffffffffffffffffffffffffffffffffffff\n      and\n        /* \"src/smartcontracts/CryptoQuestSwap.sol\":6496:6510  cqtNFT.ownerOf */\n      0xffffffffffffffffffffffffffffffffffffffff\n      and\n      0x6352211e\n        /* \"src/smartcontracts/CryptoQuestSwap.sol\":6511:6518  tokenId */\n      dup5\n        /* \"src/smartcontracts/CryptoQuestSwap.sol\":6496:6519  cqtNFT.ownerOf(tokenId) */\n      mload(0x40)\n      dup3\n      0xffffffff\n      and\n      0xe0\n      shl\n      dup2\n      mstore\n      0x04\n      add\n      tag_231\n      swap2\n      swap1\n      tag_79\n      jump\t// in\n    tag_231:\n      0x20\n      mload(0x40)\n      dup1\n      dup4\n      sub\n      dup2\n      dup7\n      gas\n      staticcall\n      iszero\n      dup1\n      iszero\n      tag_233\n      jumpi\n      returndatasize\n      0x00\n      dup1\n      returndatacopy\n      revert(0x00, returndatasize)\n    tag_233:\n      pop\n      pop\n      pop\n      pop\n      mload(0x40)\n      returndatasize\n      not(0x1f)\n      0x1f\n      dup3\n      add\n      and\n      dup3\n      add\n      dup1\n      0x40\n      mstore\n      pop\n      dup2\n      add\n      swap1\n      tag_234\n      swap2\n      swap1\n      tag_235\n      jump\t// in\n    tag_234:\n        /* \"src/smartcontracts/CryptoQuestSwap.sol\":6496:6536  cqtNFT.ownerOf(tokenId) == address(this) */\n      0xffffffffffffffffffffffffffffffffffffffff\n      and\n      eq\n        /* \"src/smartcontracts/CryptoQuestSwap.sol\":6488:6566  require(cqtNFT.ownerOf(tokenId) == address(this), \"NFT not owned by contract\") */\n      tag_236\n      jumpi\n      mload(0x40)\n      0x08c379a000000000000000000000000000000000000000000000000000000000\n      dup2\n      mstore\n      0x04\n      add\n      tag_237\n      swap1\n      tag_238\n      jump\t// in\n    tag_237:\n      mload(0x40)\n      dup1\n      swap2\n      sub\n      swap1\n      revert\n    tag_236:\n        /* \"src/smartcontracts/CryptoQuestSwap.sol\":6577:6594  uint256 ethAmount */\n      0x00\n        /* \"src/smartcontracts/CryptoQuestSwap.sol\":6597:6661  getOutputAmount(msg.value, address(this).balance - msg.value, 1) */\n      tag_239\n        /* \"src/smartcontracts/CryptoQuestSwap.sol\":6613:6622  msg.value */\n      callvalue\n        /* \"src/smartcontracts/CryptoQuestSwap.sol\":6648:6657  msg.value */\n      callvalue\n        /* \"src/smartcontracts/CryptoQuestSwap.sol\":6624:6645  address(this).balance */\n      selfbalance\n        /* \"src/smartcontracts/CryptoQuestSwap.sol\":6624:6657  address(this).balance - msg.value */\n      tag_240\n      swap2\n      swap1\n      tag_241\n      jump\t// in\n    tag_240:\n        /* \"src/smartcontracts/CryptoQuestSwap.sol\":6659:6660  1 */\n      0x01\n        /* \"src/smartcontracts/CryptoQuestSwap.sol\":6597:6612  getOutputAmount */\n      tag_242\n        /* \"src/smartcontracts/CryptoQuestSwap.sol\":6597:6661  getOutputAmount(msg.value, address(this).balance - msg.value, 1) */\n      jump\t// in\n    tag_239:\n        /* \"src/smartcontracts/CryptoQuestSwap.sol\":6577:6661  uint256 ethAmount = getOutputAmount(msg.value, address(this).balance - msg.value, 1) */\n      swap1\n      pop\n        /* \"src/smartcontracts/CryptoQuestSwap.sol\":6721:6727  minETH */\n      dup2\n        /* \"src/smartcontracts/CryptoQuestSwap.sol\":6708:6717  ethAmount */\n      dup2\n        /* \"src/smartcontracts/CryptoQuestSwap.sol\":6708:6727  ethAmount >= minETH */\n      lt\n      iszero\n        /* \"src/smartcontracts/CryptoQuestSwap.sol\":6700:6759  require(ethAmount >= minETH, \"Slippage tolerance exceeded\") */\n      tag_243\n      jumpi\n      mload(0x40)\n      0x08c379a000000000000000000000000000000000000000000000000000000000\n      dup2\n      mstore\n      0x04\n      add\n      tag_244\n      swap1\n      tag_245\n      jump\t// in\n    tag_244:\n      mload(0x40)\n      dup1\n      swap2\n      sub\n      swap1\n      revert\n    tag_243:\n        /* \"src/smartcontracts/CryptoQuestSwap.sol\":6778:6788  msg.sender */\n      caller\n        /* \"src/smartcontracts/CryptoQuestSwap.sol\":6770:6798  payable(msg.sender).transfer */\n      0xffffffffffffffffffffffffffffffffffffffff\n      and\n        /* \"src/smartcontracts/CryptoQuestSwap.sol\":6770:6809  payable(msg.sender).transfer(ethAmount) */\n      0x08fc\n        /* \"src/smartcontracts/CryptoQuestSwap.sol\":6799:6808  ethAmount */\n      dup3\n        /* \"src/smartcontracts/CryptoQuestSwap.sol\":6770:6809  payable(msg.sender).transfer(ethAmount) */\n      swap1\n      dup2\n      iszero\n      mul\n      swap1\n      mload(0x40)\n      0x00\n      mload(0x40)\n      dup1\n      dup4\n      sub\n      dup2\n      dup6\n      dup9\n      dup9\n      call\n      swap4\n      pop\n      pop\n      pop\n      pop\n      iszero\n      dup1\n      iszero\n      tag_247\n      jumpi\n      returndatasize\n      0x00\n      dup1\n      returndatacopy\n      revert(0x00, returndatasize)\n    tag_247:\n      pop\n        /* \"src/smartcontracts/CryptoQuestSwap.sol\":6819:6825  cqtNFT */\n      0x01\n      0x00\n      swap1\n      sload\n      swap1\n      0x0100\n      exp\n      swap1\n      div\n      0xffffffffffffffffffffffffffffffffffffffff\n      and\n        /* \"src/smartcontracts/CryptoQuestSwap.sol\":6819:6842  cqtNFT.safeTransferFrom */\n      0xffffffffffffffffffffffffffffffffffffffff\n      and\n      0x42842e0e\n        /* \"src/smartcontracts/CryptoQuestSwap.sol\":6851:6855  this */\n      address\n        /* \"src/smartcontracts/CryptoQuestSwap.sol\":6858:6868  msg.sender */\n      caller\n        /* \"src/smartcontracts/CryptoQuestSwap.sol\":6870:6877  tokenId */\n      dup7\n        /* \"src/smartcontracts/CryptoQuestSwap.sol\":6819:6878  cqtNFT.safeTransferFrom(address(this), msg.sender, tokenId) */\n      mload(0x40)\n      dup5\n      0xffffffff\n      and\n      0xe0\n      shl\n      dup2\n      mstore\n      0x04\n      add\n      tag_248\n      swap4\n      swap3\n      swap2\n      swap1\n      tag_191\n      jump\t// in\n    tag_248:\n      0x00\n      mload(0x40)\n      dup1\n      dup4\n      sub\n      dup2\n      0x00\n      dup8\n      dup1\n      extcodesize\n      iszero\n      dup1\n      iszero\n      tag_249\n      jumpi\n      0x00\n      dup1\n      revert\n    tag_249:\n      pop\n      gas\n      call\n      iszero\n      dup1\n      iszero\n      tag_251\n      jumpi\n      returndatasize\n      0x00\n      dup1\n      returndatacopy\n      revert(0x00, returndatasize)\n    tag_251:\n      pop\n      pop\n      pop\n      pop\n        /* \"src/smartcontracts/CryptoQuestSwap.sol\":6934:6941  tokenId */\n      dup3\n        /* \"src/smartcontracts/CryptoQuestSwap.sol\":6925:6931  cqtNFT */\n      0x01\n      0x00\n      swap1\n      sload\n      swap1\n      0x0100\n      exp\n      swap1\n      div\n      0xffffffffffffffffffffffffffffffffffffffff\n      and\n        /* \"src/smartcontracts/CryptoQuestSwap.sol\":6894:6953  NFTSwapped(msg.sender, address(cqtNFT), tokenId, ethAmount) */\n      0xffffffffffffffffffffffffffffffffffffffff\n      and\n        /* \"src/smartcontracts/CryptoQuestSwap.sol\":6905:6915  msg.sender */\n      caller\n        /* \"src/smartcontracts/CryptoQuestSwap.sol\":6894:6953  NFTSwapped(msg.sender, address(cqtNFT), tokenId, ethAmount) */\n      0xffffffffffffffffffffffffffffffffffffffff\n      and\n      0x9181665db8d8d5fcce186f7b2cfebe8fbcdc3a003664bbfce2e790f57b076e65\n        /* \"src/smartcontracts/CryptoQuestSwap.sol\":6943:6952  ethAmount */\n      dup5\n        /* \"src/smartcontracts/CryptoQuestSwap.sol\":6894:6953  NFTSwapped(msg.sender, address(cqtNFT), tokenId, ethAmount) */\n      mload(0x40)\n      tag_252\n      swap2\n      swap1\n      tag_79\n      jump\t// in\n    tag_252:\n      mload(0x40)\n      dup1\n      swap2\n      sub\n      swap1\n      log4\n        /* \"src/smartcontracts/CryptoQuestSwap.sol\":6406:6960  {... */\n      pop\n        /* \"src/smartcontracts/CryptoQuestSwap.sol\":6319:6960  function swapETHForNFT(uint256 tokenId, uint256 minETH) external payable whenNotPaused {... */\n      pop\n      pop\n      jump\t// out\n        /* \"@openzeppelin/contracts-upgradeable/proxy/utils/UUPSUpgradeable.sol\":4158:4372  function upgradeToAndCall(address newImplementation, bytes memory data) public payable virtual onlyProxy {... */\n    tag_104:\n        /* \"@openzeppelin/contracts-upgradeable/proxy/utils/UUPSUpgradeable.sol\":2653:2666  _checkProxy() */\n      tag_254\n        /* \"@openzeppelin/contracts-upgradeable/proxy/utils/UUPSUpgradeable.sol\":2653:2664  _checkProxy */\n      tag_255\n        /* \"@openzeppelin/contracts-upgradeable/proxy/utils/UUPSUpgradeable.sol\":2653:2666  _checkProxy() */\n      jump\t// in\n    tag_254:\n        /* \"@openzeppelin/contracts-upgradeable/proxy/utils/UUPSUpgradeable.sol\":4273:4309  _authorizeUpgrade(newImplementation) */\n      tag_257\n        /* \"@openzeppelin/contracts-upgradeable/proxy/utils/UUPSUpgradeable.sol\":4291:4308  newImplementation */\n      dup3\n        /* \"@openzeppelin/contracts-upgradeable/proxy/utils/UUPSUpgradeable.sol\":4273:4290  _authorizeUpgrade */\n      tag_258\n        /* \"@openzeppelin/contracts-upgradeable/proxy/utils/UUPSUpgradeable.sol\":4273:4309  _authorizeUpgrade(newImplementation) */\n      jump\t// in\n    tag_257:\n        /* \"@openzeppelin/contracts-upgradeable/proxy/utils/UUPSUpgradeable.sol\":4319:4365  _upgradeToAndCallUUPS(newImplementation, data) */\n      tag_259\n        /* \"@openzeppelin/contracts-upgradeable/proxy/utils/UUPSUpgradeable.sol\":4341:4358  newImplementation */\n      dup3\n        /* \"@openzeppelin/contracts-upgradeable/proxy/utils/UUPSUpgradeable.sol\":4360:4364  data */\n      dup3\n        /* \"@openzeppelin/contracts-upgradeable/proxy/utils/UUPSUpgradeable.sol\":4319:4340  _upgradeToAndCallUUPS */\n      tag_260\n        /* \"@openzeppelin/contracts-upgradeable/proxy/utils/UUPSUpgradeable.sol\":4319:4365  _upgradeToAndCallUUPS(newImplementation, data) */\n      jump\t// in\n    tag_259:\n        /* \"@openzeppelin/contracts-upgradeable/proxy/utils/UUPSUpgradeable.sol\":4158:4372  function upgradeToAndCall(address newImplementation, bytes memory data) public payable virtual onlyProxy {... */\n      pop\n      pop\n      jump\t// out\n        /* \"src/smartcontracts/CryptoQuestSwap.sol\":4824:5527  function swapETHForTokens(address token, uint256 minTokens) external payable whenNotPaused {... */\n    tag_107:\n        /* \"@openzeppelin/contracts-upgradeable/utils/PausableUpgradeable.sol\":2316:2335  _requireNotPaused() */\n      tag_262\n        /* \"@openzeppelin/contracts-upgradeable/utils/PausableUpgradeable.sol\":2316:2333  _requireNotPaused */\n      tag_226\n        /* \"@openzeppelin/contracts-upgradeable/utils/PausableUpgradeable.sol\":2316:2335  _requireNotPaused() */\n      jump\t// in\n    tag_262:\n        /* \"src/smartcontracts/CryptoQuestSwap.sol\":4945:4946  0 */\n      0x00\n        /* \"src/smartcontracts/CryptoQuestSwap.sol\":4933:4942  msg.value */\n      callvalue\n        /* \"src/smartcontracts/CryptoQuestSwap.sol\":4933:4946  msg.value > 0 */\n      gt\n        /* \"src/smartcontracts/CryptoQuestSwap.sol\":4925:4987  require(msg.value > 0, \"ETH amount must be greater than zero\") */\n      tag_264\n      jumpi\n      mload(0x40)\n      0x08c379a000000000000000000000000000000000000000000000000000000000\n      dup2\n      mstore\n      0x04\n      add\n      tag_265\n      swap1\n      tag_230\n      jump\t// in\n    tag_265:\n      mload(0x40)\n      dup1\n      swap2\n      sub\n      swap1\n      revert\n    tag_264:\n        /* \"src/smartcontracts/CryptoQuestSwap.sol\":4997:5023  LiquidityPool storage pool */\n      0x00\n        /* \"src/smartcontracts/CryptoQuestSwap.sol\":5026:5040  liquidityPools */\n      0x02\n        /* \"src/smartcontracts/CryptoQuestSwap.sol\":5026:5047  liquidityPools[token] */\n      0x00\n        /* \"src/smartcontracts/CryptoQuestSwap.sol\":5041:5046  token */\n      dup5\n        /* \"src/smartcontracts/CryptoQuestSwap.sol\":5026:5047  liquidityPools[token] */\n      0xffffffffffffffffffffffffffffffffffffffff\n      and\n      0xffffffffffffffffffffffffffffffffffffffff\n      and\n      dup2\n      mstore\n      0x20\n      add\n      swap1\n      dup2\n      mstore\n      0x20\n      add\n      0x00\n      keccak256\n        /* \"src/smartcontracts/CryptoQuestSwap.sol\":4997:5047  LiquidityPool storage pool = liquidityPools[token] */\n      swap1\n      pop\n        /* \"src/smartcontracts/CryptoQuestSwap.sol\":5082:5083  0 */\n      0x00\n        /* \"src/smartcontracts/CryptoQuestSwap.sol\":5065:5069  pool */\n      dup2\n        /* \"src/smartcontracts/CryptoQuestSwap.sol\":5065:5079  pool.ethAmount */\n      0x01\n      add\n      sload\n        /* \"src/smartcontracts/CryptoQuestSwap.sol\":5065:5083  pool.ethAmount > 0 */\n      gt\n        /* \"src/smartcontracts/CryptoQuestSwap.sol\":5065:5107  pool.ethAmount > 0 && pool.tokenAmount > 0 */\n      dup1\n      iszero\n      tag_266\n      jumpi\n      pop\n        /* \"src/smartcontracts/CryptoQuestSwap.sol\":5106:5107  0 */\n      0x00\n        /* \"src/smartcontracts/CryptoQuestSwap.sol\":5087:5091  pool */\n      dup2\n        /* \"src/smartcontracts/CryptoQuestSwap.sol\":5087:5103  pool.tokenAmount */\n      0x00\n      add\n      sload\n        /* \"src/smartcontracts/CryptoQuestSwap.sol\":5087:5107  pool.tokenAmount > 0 */\n      gt\n        /* \"src/smartcontracts/CryptoQuestSwap.sol\":5065:5107  pool.ethAmount > 0 && pool.tokenAmount > 0 */\n    tag_266:\n        /* \"src/smartcontracts/CryptoQuestSwap.sol\":5057:5134  require(pool.ethAmount > 0 && pool.tokenAmount > 0, \"Insufficient liquidity\") */\n      tag_267\n      jumpi\n      mload(0x40)\n      0x08c379a000000000000000000000000000000000000000000000000000000000\n      dup2\n      mstore\n      0x04\n      add\n      tag_268\n      swap1\n      tag_269\n      jump\t// in\n    tag_268:\n      mload(0x40)\n      dup1\n      swap2\n      sub\n      swap1\n      revert\n    tag_267:\n        /* \"src/smartcontracts/CryptoQuestSwap.sol\":5145:5164  uint256 tokenAmount */\n      0x00\n        /* \"src/smartcontracts/CryptoQuestSwap.sol\":5167:5227  getOutputAmount(msg.value, pool.ethAmount, pool.tokenAmount) */\n      tag_270\n        /* \"src/smartcontracts/CryptoQuestSwap.sol\":5183:5192  msg.value */\n      callvalue\n        /* \"src/smartcontracts/CryptoQuestSwap.sol\":5194:5198  pool */\n      dup4\n        /* \"src/smartcontracts/CryptoQuestSwap.sol\":5194:5208  pool.ethAmount */\n      0x01\n      add\n      sload\n        /* \"src/smartcontracts/CryptoQuestSwap.sol\":5210:5214  pool */\n      dup5\n        /* \"src/smartcontracts/CryptoQuestSwap.sol\":5210:5226  pool.tokenAmount */\n      0x00\n      add\n      sload\n        /* \"src/smartcontracts/CryptoQuestSwap.sol\":5167:5182  getOutputAmount */\n      tag_242\n        /* \"src/smartcontracts/CryptoQuestSwap.sol\":5167:5227  getOutputAmount(msg.value, pool.ethAmount, pool.tokenAmount) */\n      jump\t// in\n    tag_270:\n        /* \"src/smartcontracts/CryptoQuestSwap.sol\":5145:5227  uint256 tokenAmount = getOutputAmount(msg.value, pool.ethAmount, pool.tokenAmount) */\n      swap1\n      pop\n        /* \"src/smartcontracts/CryptoQuestSwap.sol\":5260:5269  minTokens */\n      dup3\n        /* \"src/smartcontracts/CryptoQuestSwap.sol\":5245:5256  tokenAmount */\n      dup2\n        /* \"src/smartcontracts/CryptoQuestSwap.sol\":5245:5269  tokenAmount >= minTokens */\n      lt\n      iszero\n        /* \"src/smartcontracts/CryptoQuestSwap.sol\":5237:5301  require(tokenAmount >= minTokens, \"Slippage tolerance exceeded\") */\n      tag_271\n      jumpi\n      mload(0x40)\n      0x08c379a000000000000000000000000000000000000000000000000000000000\n      dup2\n      mstore\n      0x04\n      add\n      tag_272\n      swap1\n      tag_245\n      jump\t// in\n    tag_272:\n      mload(0x40)\n      dup1\n      swap2\n      sub\n      swap1\n      revert\n    tag_271:\n        /* \"src/smartcontracts/CryptoQuestSwap.sol\":5330:5339  msg.value */\n      callvalue\n        /* \"src/smartcontracts/CryptoQuestSwap.sol\":5312:5316  pool */\n      dup3\n        /* \"src/smartcontracts/CryptoQuestSwap.sol\":5312:5326  pool.ethAmount */\n      0x01\n      add\n      0x00\n        /* \"src/smartcontracts/CryptoQuestSwap.sol\":5312:5339  pool.ethAmount += msg.value */\n      dup3\n      dup3\n      sload\n      tag_273\n      swap2\n      swap1\n      tag_274\n      jump\t// in\n    tag_273:\n      swap3\n      pop\n      pop\n      dup2\n      swap1\n      sstore\n      pop\n        /* \"src/smartcontracts/CryptoQuestSwap.sol\":5369:5380  tokenAmount */\n      dup1\n        /* \"src/smartcontracts/CryptoQuestSwap.sol\":5349:5353  pool */\n      dup3\n        /* \"src/smartcontracts/CryptoQuestSwap.sol\":5349:5365  pool.tokenAmount */\n      0x00\n      add\n      0x00\n        /* \"src/smartcontracts/CryptoQuestSwap.sol\":5349:5380  pool.tokenAmount -= tokenAmount */\n      dup3\n      dup3\n      sload\n      tag_275\n      swap2\n      swap1\n      tag_241\n      jump\t// in\n    tag_275:\n      swap3\n      pop\n      pop\n      dup2\n      swap1\n      sstore\n      pop\n        /* \"src/smartcontracts/CryptoQuestSwap.sol\":5409:5414  token */\n      dup4\n        /* \"src/smartcontracts/CryptoQuestSwap.sol\":5391:5424  IERC20Upgradeable(token).transfer */\n      0xffffffffffffffffffffffffffffffffffffffff\n      and\n      0xa9059cbb\n        /* \"src/smartcontracts/CryptoQuestSwap.sol\":5425:5435  msg.sender */\n      caller\n        /* \"src/smartcontracts/CryptoQuestSwap.sol\":5437:5448  tokenAmount */\n      dup4\n        /* \"src/smartcontracts/CryptoQuestSwap.sol\":5391:5449  IERC20Upgradeable(token).transfer(msg.sender, tokenAmount) */\n      mload(0x40)\n      dup4\n      0xffffffff\n      and\n      0xe0\n      shl\n      dup2\n      mstore\n      0x04\n      add\n      tag_276\n      swap3\n      swap2\n      swap1\n      tag_199\n      jump\t// in\n    tag_276:\n      0x20\n      mload(0x40)\n      dup1\n      dup4\n      sub\n      dup2\n      0x00\n      dup8\n      gas\n      call\n      iszero\n      dup1\n      iszero\n      tag_278\n      jumpi\n      returndatasize\n      0x00\n      dup1\n      returndatacopy\n      revert(0x00, returndatasize)\n    tag_278:\n      pop\n      pop\n      pop\n      pop\n      mload(0x40)\n      returndatasize\n      not(0x1f)\n      0x1f\n      dup3\n      add\n      and\n      dup3\n      add\n      dup1\n      0x40\n      mstore\n      pop\n      dup2\n      add\n      swap1\n      tag_279\n      swap2\n      swap1\n      tag_203\n      jump\t// in\n    tag_279:\n      pop\n        /* \"src/smartcontracts/CryptoQuestSwap.sol\":5490:5495  token */\n      dup4\n        /* \"src/smartcontracts/CryptoQuestSwap.sol\":5465:5520  TokenSwapped(msg.sender, token, tokenAmount, msg.value) */\n      0xffffffffffffffffffffffffffffffffffffffff\n      and\n        /* \"src/smartcontracts/CryptoQuestSwap.sol\":5478:5488  msg.sender */\n      caller\n        /* \"src/smartcontracts/CryptoQuestSwap.sol\":5465:5520  TokenSwapped(msg.sender, token, tokenAmount, msg.value) */\n      0xffffffffffffffffffffffffffffffffffffffff\n      and\n      0x30b60ee4dc75c0fb04420331b13e9ad7f8ff8fc51eac9c97d36fb20ccbe09d66\n        /* \"src/smartcontracts/CryptoQuestSwap.sol\":5497:5508  tokenAmount */\n      dup4\n        /* \"src/smartcontracts/CryptoQuestSwap.sol\":5510:5519  msg.value */\n      callvalue\n        /* \"src/smartcontracts/CryptoQuestSwap.sol\":5465:5520  TokenSwapped(msg.sender, token, tokenAmount, msg.value) */\n      mload(0x40)\n      tag_280\n      swap3\n      swap2\n      swap1\n      tag_133\n      jump\t// in\n    tag_280:\n      mload(0x40)\n      dup1\n      swap2\n      sub\n      swap1\n      log3\n        /* \"src/smartcontracts/CryptoQuestSwap.sol\":4915:5527  {... */\n      pop\n      pop\n        /* \"src/smartcontracts/CryptoQuestSwap.sol\":4824:5527  function swapETHForTokens(address token, uint256 minTokens) external payable whenNotPaused {... */\n      pop\n      pop\n      jump\t// out\n        /* \"@openzeppelin/contracts-upgradeable/proxy/utils/UUPSUpgradeable.sol\":3705:3839  function proxiableUUID() external view virtual notDelegated returns (bytes32) {... */\n    tag_110:\n        /* \"@openzeppelin/contracts-upgradeable/proxy/utils/UUPSUpgradeable.sol\":3774:3781  bytes32 */\n      0x00\n        /* \"@openzeppelin/contracts-upgradeable/proxy/utils/UUPSUpgradeable.sol\":2924:2944  _checkNotDelegated() */\n      tag_282\n        /* \"@openzeppelin/contracts-upgradeable/proxy/utils/UUPSUpgradeable.sol\":2924:2942  _checkNotDelegated */\n      tag_283\n        /* \"@openzeppelin/contracts-upgradeable/proxy/utils/UUPSUpgradeable.sol\":2924:2944  _checkNotDelegated() */\n      jump\t// in\n    tag_282:\n        /* \"@openzeppelin/contracts/proxy/ERC1967/ERC1967Utils.sol\":1327:1393  0x360894a13ba1a3210667c828492db98dca3e2076cc3735a920a3ca505d382bbc */\n      0x360894a13ba1a3210667c828492db98dca3e2076cc3735a920a3ca505d382bbc\n        /* \"@openzeppelin/contracts-upgradeable/proxy/utils/UUPSUpgradeable.sol\":3800:3832  ERC1967Utils.IMPLEMENTATION_SLOT */\n      0x00\n      shl\n        /* \"@openzeppelin/contracts-upgradeable/proxy/utils/UUPSUpgradeable.sol\":3793:3832  return ERC1967Utils.IMPLEMENTATION_SLOT */\n      swap1\n      pop\n        /* \"@openzeppelin/contracts-upgradeable/proxy/utils/UUPSUpgradeable.sol\":3705:3839  function proxiableUUID() external view virtual notDelegated returns (bytes32) {... */\n      swap1\n      jump\t// out\n        /* \"src/smartcontracts/CryptoQuestSwap.sol\":2758:4007  function addLiquidity(address token, uint256 tokenAmount) external payable whenNotPaused returns (uint256) {... */\n    tag_114:\n        /* \"src/smartcontracts/CryptoQuestSwap.sol\":2856:2863  uint256 */\n      0x00\n        /* \"@openzeppelin/contracts-upgradeable/utils/PausableUpgradeable.sol\":2316:2335  _requireNotPaused() */\n      tag_286\n        /* \"@openzeppelin/contracts-upgradeable/utils/PausableUpgradeable.sol\":2316:2333  _requireNotPaused */\n      tag_226\n        /* \"@openzeppelin/contracts-upgradeable/utils/PausableUpgradeable.sol\":2316:2335  _requireNotPaused() */\n      jump\t// in\n    tag_286:\n        /* \"src/smartcontracts/CryptoQuestSwap.sol\":2897:2898  0 */\n      0x00\n        /* \"src/smartcontracts/CryptoQuestSwap.sol\":2883:2894  tokenAmount */\n      dup3\n        /* \"src/smartcontracts/CryptoQuestSwap.sol\":2883:2898  tokenAmount > 0 */\n      gt\n        /* \"src/smartcontracts/CryptoQuestSwap.sol\":2875:2941  require(tokenAmount > 0, \"Token amount must be greater than zero\") */\n      tag_288\n      jumpi\n      mload(0x40)\n      0x08c379a000000000000000000000000000000000000000000000000000000000\n      dup2\n      mstore\n      0x04\n      add\n      tag_289\n      swap1\n      tag_290\n      jump\t// in\n    tag_289:\n      mload(0x40)\n      dup1\n      swap2\n      sub\n      swap1\n      revert\n    tag_288:\n        /* \"src/smartcontracts/CryptoQuestSwap.sol\":2971:2972  0 */\n      0x00\n        /* \"src/smartcontracts/CryptoQuestSwap.sol\":2959:2968  msg.value */\n      callvalue\n        /* \"src/smartcontracts/CryptoQuestSwap.sol\":2959:2972  msg.value > 0 */\n      gt\n        /* \"src/smartcontracts/CryptoQuestSwap.sol\":2951:3013  require(msg.value > 0, \"ETH amount must be greater than zero\") */\n      tag_291\n      jumpi\n      mload(0x40)\n      0x08c379a000000000000000000000000000000000000000000000000000000000\n      dup2\n      mstore\n      0x04\n      add\n      tag_292\n      swap1\n      tag_230\n      jump\t// in\n    tag_292:\n      mload(0x40)\n      dup1\n      swap2\n      sub\n      swap1\n      revert\n    tag_291:\n        /* \"src/smartcontracts/CryptoQuestSwap.sol\":3042:3047  token */\n      dup3\n        /* \"src/smartcontracts/CryptoQuestSwap.sol\":3024:3061  IERC20Upgradeable(token).transferFrom */\n      0xffffffffffffffffffffffffffffffffffffffff\n      and\n      0x23b872dd\n        /* \"src/smartcontracts/CryptoQuestSwap.sol\":3062:3072  msg.sender */\n      caller\n        /* \"src/smartcontracts/CryptoQuestSwap.sol\":3082:3086  this */\n      address\n        /* \"src/smartcontracts/CryptoQuestSwap.sol\":3089:3100  tokenAmount */\n      dup6\n        /* \"src/smartcontracts/CryptoQuestSwap.sol\":3024:3101  IERC20Upgradeable(token).transferFrom(msg.sender, address(this), tokenAmount) */\n      mload(0x40)\n      dup5\n      0xffffffff\n      and\n      0xe0\n      shl\n      dup2\n      mstore\n      0x04\n      add\n      tag_293\n      swap4\n      swap3\n      swap2\n      swap1\n      tag_191\n      jump\t// in\n    tag_293:\n      0x20\n      mload(0x40)\n      dup1\n      dup4\n      sub\n      dup2\n      0x00\n      dup8\n      gas\n      call\n      iszero\n      dup1\n      iszero\n      tag_295\n      jumpi\n      returndatasize\n      0x00\n      dup1\n      returndatacopy\n      revert(0x00, returndatasize)\n    tag_295:\n      pop\n      pop\n      pop\n      pop\n      mload(0x40)\n      returndatasize\n      not(0x1f)\n      0x1f\n      dup3\n      add\n      and\n      dup3\n      add\n      dup1\n      0x40\n      mstore\n      pop\n      dup2\n      add\n      swap1\n      tag_296\n      swap2\n      swap1\n      tag_203\n      jump\t// in\n    tag_296:\n      pop\n        /* \"src/smartcontracts/CryptoQuestSwap.sol\":3112:3138  LiquidityPool storage pool */\n      0x00\n        /* \"src/smartcontracts/CryptoQuestSwap.sol\":3141:3155  liquidityPools */\n      0x02\n        /* \"src/smartcontracts/CryptoQuestSwap.sol\":3141:3162  liquidityPools[token] */\n      0x00\n        /* \"src/smartcontracts/CryptoQuestSwap.sol\":3156:3161  token */\n      dup6\n        /* \"src/smartcontracts/CryptoQuestSwap.sol\":3141:3162  liquidityPools[token] */\n      0xffffffffffffffffffffffffffffffffffffffff\n      and\n      0xffffffffffffffffffffffffffffffffffffffff\n      and\n      dup2\n      mstore\n      0x20\n      add\n      swap1\n      dup2\n      mstore\n      0x20\n      add\n      0x00\n      keccak256\n        /* \"src/smartcontracts/CryptoQuestSwap.sol\":3112:3162  LiquidityPool storage pool = liquidityPools[token] */\n      swap1\n      pop\n        /* \"src/smartcontracts/CryptoQuestSwap.sol\":3172:3189  uint256 liquidity */\n      0x00\n        /* \"src/smartcontracts/CryptoQuestSwap.sol\":3227:3228  0 */\n      dup1\n        /* \"src/smartcontracts/CryptoQuestSwap.sol\":3204:3208  pool */\n      dup3\n        /* \"src/smartcontracts/CryptoQuestSwap.sol\":3204:3223  pool.totalLiquidity */\n      0x02\n      add\n      sload\n        /* \"src/smartcontracts/CryptoQuestSwap.sol\":3204:3228  pool.totalLiquidity == 0 */\n      sub\n        /* \"src/smartcontracts/CryptoQuestSwap.sol\":3200:3799  if (pool.totalLiquidity == 0) {... */\n      tag_297\n      jumpi\n        /* \"src/smartcontracts/CryptoQuestSwap.sol\":3263:3274  tokenAmount */\n      dup4\n        /* \"src/smartcontracts/CryptoQuestSwap.sol\":3244:3248  pool */\n      dup3\n        /* \"src/smartcontracts/CryptoQuestSwap.sol\":3244:3260  pool.tokenAmount */\n      0x00\n      add\n        /* \"src/smartcontracts/CryptoQuestSwap.sol\":3244:3274  pool.tokenAmount = tokenAmount */\n      dup2\n      swap1\n      sstore\n      pop\n        /* \"src/smartcontracts/CryptoQuestSwap.sol\":3305:3314  msg.value */\n      callvalue\n        /* \"src/smartcontracts/CryptoQuestSwap.sol\":3288:3292  pool */\n      dup3\n        /* \"src/smartcontracts/CryptoQuestSwap.sol\":3288:3302  pool.ethAmount */\n      0x01\n      add\n        /* \"src/smartcontracts/CryptoQuestSwap.sol\":3288:3314  pool.ethAmount = msg.value */\n      dup2\n      swap1\n      sstore\n      pop\n        /* \"src/smartcontracts/CryptoQuestSwap.sol\":3340:3351  tokenAmount */\n      dup4\n        /* \"src/smartcontracts/CryptoQuestSwap.sol\":3328:3351  liquidity = tokenAmount */\n      swap1\n      pop\n        /* \"src/smartcontracts/CryptoQuestSwap.sol\":3200:3799  if (pool.totalLiquidity == 0) {... */\n      jump(tag_298)\n    tag_297:\n        /* \"src/smartcontracts/CryptoQuestSwap.sol\":3407:3408  0 */\n      0x00\n        /* \"src/smartcontracts/CryptoQuestSwap.sol\":3390:3394  pool */\n      dup3\n        /* \"src/smartcontracts/CryptoQuestSwap.sol\":3390:3404  pool.ethAmount */\n      0x01\n      add\n      sload\n        /* \"src/smartcontracts/CryptoQuestSwap.sol\":3390:3408  pool.ethAmount > 0 */\n      gt\n        /* \"src/smartcontracts/CryptoQuestSwap.sol\":3390:3432  pool.ethAmount > 0 && pool.tokenAmount > 0 */\n      dup1\n      iszero\n      tag_299\n      jumpi\n      pop\n        /* \"src/smartcontracts/CryptoQuestSwap.sol\":3431:3432  0 */\n      0x00\n        /* \"src/smartcontracts/CryptoQuestSwap.sol\":3412:3416  pool */\n      dup3\n        /* \"src/smartcontracts/CryptoQuestSwap.sol\":3412:3428  pool.tokenAmount */\n      0x00\n      add\n      sload\n        /* \"src/smartcontracts/CryptoQuestSwap.sol\":3412:3432  pool.tokenAmount > 0 */\n      gt\n        /* \"src/smartcontracts/CryptoQuestSwap.sol\":3390:3432  pool.ethAmount > 0 && pool.tokenAmount > 0 */\n    tag_299:\n        /* \"src/smartcontracts/CryptoQuestSwap.sol\":3382:3455  require(pool.ethAmount > 0 && pool.tokenAmount > 0, \"Invalid pool state\") */\n      tag_300\n      jumpi\n      mload(0x40)\n      0x08c379a000000000000000000000000000000000000000000000000000000000\n      dup2\n      mstore\n      0x04\n      add\n      tag_301\n      swap1\n      tag_302\n      jump\t// in\n    tag_301:\n      mload(0x40)\n      dup1\n      swap2\n      sub\n      swap1\n      revert\n    tag_300:\n        /* \"src/smartcontracts/CryptoQuestSwap.sol\":3470:3492  uint256 ethAmountRatio */\n      0x00\n        /* \"src/smartcontracts/CryptoQuestSwap.sol\":3528:3532  pool */\n      dup3\n        /* \"src/smartcontracts/CryptoQuestSwap.sol\":3528:3544  pool.tokenAmount */\n      0x00\n      add\n      sload\n        /* \"src/smartcontracts/CryptoQuestSwap.sol\":3513:3524  tokenAmount */\n      dup6\n        /* \"src/smartcontracts/CryptoQuestSwap.sol\":3496:3500  pool */\n      dup5\n        /* \"src/smartcontracts/CryptoQuestSwap.sol\":3496:3510  pool.ethAmount */\n      0x01\n      add\n      sload\n        /* \"src/smartcontracts/CryptoQuestSwap.sol\":3496:3524  pool.ethAmount * tokenAmount */\n      tag_303\n      swap2\n      swap1\n      tag_304\n      jump\t// in\n    tag_303:\n        /* \"src/smartcontracts/CryptoQuestSwap.sol\":3495:3544  (pool.ethAmount * tokenAmount) / pool.tokenAmount */\n      tag_305\n      swap2\n      swap1\n      tag_306\n      jump\t// in\n    tag_305:\n        /* \"src/smartcontracts/CryptoQuestSwap.sol\":3470:3544  uint256 ethAmountRatio = (pool.ethAmount * tokenAmount) / pool.tokenAmount */\n      swap1\n      pop\n        /* \"src/smartcontracts/CryptoQuestSwap.sol\":3579:3593  ethAmountRatio */\n      dup1\n        /* \"src/smartcontracts/CryptoQuestSwap.sol\":3566:3575  msg.value */\n      callvalue\n        /* \"src/smartcontracts/CryptoQuestSwap.sol\":3566:3593  msg.value >= ethAmountRatio */\n      lt\n      iszero\n        /* \"src/smartcontracts/CryptoQuestSwap.sol\":3558:3621  require(msg.value >= ethAmountRatio, \"Insufficient ETH amount\") */\n      tag_307\n      jumpi\n      mload(0x40)\n      0x08c379a000000000000000000000000000000000000000000000000000000000\n      dup2\n      mstore\n      0x04\n      add\n      tag_308\n      swap1\n      tag_309\n      jump\t// in\n    tag_308:\n      mload(0x40)\n      dup1\n      swap2\n      sub\n      swap1\n      revert\n    tag_307:\n        /* \"src/smartcontracts/CryptoQuestSwap.sol\":3656:3667  tokenAmount */\n      dup5\n        /* \"src/smartcontracts/CryptoQuestSwap.sol\":3636:3640  pool */\n      dup4\n        /* \"src/smartcontracts/CryptoQuestSwap.sol\":3636:3652  pool.tokenAmount */\n      0x00\n      add\n      0x00\n        /* \"src/smartcontracts/CryptoQuestSwap.sol\":3636:3667  pool.tokenAmount += tokenAmount */\n      dup3\n      dup3\n      sload\n      tag_310\n      swap2\n      swap1\n      tag_274\n      jump\t// in\n    tag_310:\n      swap3\n      pop\n      pop\n      dup2\n      swap1\n      sstore\n      pop\n        /* \"src/smartcontracts/CryptoQuestSwap.sol\":3699:3708  msg.value */\n      callvalue\n        /* \"src/smartcontracts/CryptoQuestSwap.sol\":3681:3685  pool */\n      dup4\n        /* \"src/smartcontracts/CryptoQuestSwap.sol\":3681:3695  pool.ethAmount */\n      0x01\n      add\n      0x00\n        /* \"src/smartcontracts/CryptoQuestSwap.sol\":3681:3708  pool.ethAmount += msg.value */\n      dup3\n      dup3\n      sload\n      tag_311\n      swap2\n      swap1\n      tag_274\n      jump\t// in\n    tag_311:\n      swap3\n      pop\n      pop\n      dup2\n      swap1\n      sstore\n      pop\n        /* \"src/smartcontracts/CryptoQuestSwap.sol\":3772:3776  pool */\n      dup3\n        /* \"src/smartcontracts/CryptoQuestSwap.sol\":3772:3788  pool.tokenAmount */\n      0x00\n      add\n      sload\n        /* \"src/smartcontracts/CryptoQuestSwap.sol\":3757:3768  tokenAmount */\n      dup6\n        /* \"src/smartcontracts/CryptoQuestSwap.sol\":3735:3739  pool */\n      dup5\n        /* \"src/smartcontracts/CryptoQuestSwap.sol\":3735:3754  pool.totalLiquidity */\n      0x02\n      add\n      sload\n        /* \"src/smartcontracts/CryptoQuestSwap.sol\":3735:3768  pool.totalLiquidity * tokenAmount */\n      tag_312\n      swap2\n      swap1\n      tag_304\n      jump\t// in\n    tag_312:\n        /* \"src/smartcontracts/CryptoQuestSwap.sol\":3734:3788  (pool.totalLiquidity * tokenAmount) / pool.tokenAmount */\n      tag_313\n      swap2\n      swap1\n      tag_306\n      jump\t// in\n    tag_313:\n        /* \"src/smartcontracts/CryptoQuestSwap.sol\":3722:3788  liquidity = (pool.totalLiquidity * tokenAmount) / pool.tokenAmount */\n      swap2\n      pop\n        /* \"src/smartcontracts/CryptoQuestSwap.sol\":3368:3799  {... */\n      pop\n        /* \"src/smartcontracts/CryptoQuestSwap.sol\":3200:3799  if (pool.totalLiquidity == 0) {... */\n    tag_298:\n        /* \"src/smartcontracts/CryptoQuestSwap.sol\":3832:3841  liquidity */\n      dup1\n        /* \"src/smartcontracts/CryptoQuestSwap.sol\":3809:3813  pool */\n      dup3\n        /* \"src/smartcontracts/CryptoQuestSwap.sol\":3809:3828  pool.totalLiquidity */\n      0x02\n      add\n      0x00\n        /* \"src/smartcontracts/CryptoQuestSwap.sol\":3809:3841  pool.totalLiquidity += liquidity */\n      dup3\n      dup3\n      sload\n      tag_314\n      swap2\n      swap1\n      tag_274\n      jump\t// in\n    tag_314:\n      swap3\n      pop\n      pop\n      dup2\n      swap1\n      sstore\n      pop\n        /* \"src/smartcontracts/CryptoQuestSwap.sol\":3881:3890  liquidity */\n      dup1\n        /* \"src/smartcontracts/CryptoQuestSwap.sol\":3851:3855  pool */\n      dup3\n        /* \"src/smartcontracts/CryptoQuestSwap.sol\":3851:3865  pool.liquidity */\n      0x03\n      add\n        /* \"src/smartcontracts/CryptoQuestSwap.sol\":3851:3877  pool.liquidity[msg.sender] */\n      0x00\n        /* \"src/smartcontracts/CryptoQuestSwap.sol\":3866:3876  msg.sender */\n      caller\n        /* \"src/smartcontracts/CryptoQuestSwap.sol\":3851:3877  pool.liquidity[msg.sender] */\n      0xffffffffffffffffffffffffffffffffffffffff\n      and\n      0xffffffffffffffffffffffffffffffffffffffff\n      and\n      dup2\n      mstore\n      0x20\n      add\n      swap1\n      dup2\n      mstore\n      0x20\n      add\n      0x00\n      keccak256\n      0x00\n        /* \"src/smartcontracts/CryptoQuestSwap.sol\":3851:3890  pool.liquidity[msg.sender] += liquidity */\n      dup3\n      dup3\n      sload\n      tag_315\n      swap2\n      swap1\n      tag_274\n      jump\t// in\n    tag_315:\n      swap3\n      pop\n      pop\n      dup2\n      swap1\n      sstore\n      pop\n        /* \"src/smartcontracts/CryptoQuestSwap.sol\":3933:3938  token */\n      dup5\n        /* \"src/smartcontracts/CryptoQuestSwap.sol\":3906:3974  LiquidityAdded(msg.sender, token, tokenAmount, msg.value, liquidity) */\n      0xffffffffffffffffffffffffffffffffffffffff\n      and\n        /* \"src/smartcontracts/CryptoQuestSwap.sol\":3921:3931  msg.sender */\n      caller\n        /* \"src/smartcontracts/CryptoQuestSwap.sol\":3906:3974  LiquidityAdded(msg.sender, token, tokenAmount, msg.value, liquidity) */\n      0xffffffffffffffffffffffffffffffffffffffff\n      and\n      0x4a1a2a6176e9646d9e3157f7c2ab3c499f18337c0b0828cfb28e0a61de4a11f7\n        /* \"src/smartcontracts/CryptoQuestSwap.sol\":3940:3951  tokenAmount */\n      dup7\n        /* \"src/smartcontracts/CryptoQuestSwap.sol\":3953:3962  msg.value */\n      callvalue\n        /* \"src/smartcontracts/CryptoQuestSwap.sol\":3964:3973  liquidity */\n      dup6\n        /* \"src/smartcontracts/CryptoQuestSwap.sol\":3906:3974  LiquidityAdded(msg.sender, token, tokenAmount, msg.value, liquidity) */\n      mload(0x40)\n      tag_316\n      swap4\n      swap3\n      swap2\n      swap1\n      tag_63\n      jump\t// in\n    tag_316:\n      mload(0x40)\n      dup1\n      swap2\n      sub\n      swap1\n      log3\n        /* \"src/smartcontracts/CryptoQuestSwap.sol\":3991:4000  liquidity */\n      dup1\n        /* \"src/smartcontracts/CryptoQuestSwap.sol\":3984:4000  return liquidity */\n      swap3\n      pop\n      pop\n      pop\n        /* \"src/smartcontracts/CryptoQuestSwap.sol\":2758:4007  function addLiquidity(address token, uint256 tokenAmount) external payable whenNotPaused returns (uint256) {... */\n      swap3\n      swap2\n      pop\n      pop\n      jump\t// out\n        /* \"@openzeppelin/contracts-upgradeable/utils/PausableUpgradeable.sol\":2692:2837  function paused() public view virtual returns (bool) {... */\n    tag_118:\n        /* \"@openzeppelin/contracts-upgradeable/utils/PausableUpgradeable.sol\":2739:2743  bool */\n      0x00\n        /* \"@openzeppelin/contracts-upgradeable/utils/PausableUpgradeable.sol\":2755:2780  PausableStorage storage $ */\n      dup1\n        /* \"@openzeppelin/contracts-upgradeable/utils/PausableUpgradeable.sol\":2783:2804  _getPausableStorage() */\n      tag_318\n        /* \"@openzeppelin/contracts-upgradeable/utils/PausableUpgradeable.sol\":2783:2802  _getPausableStorage */\n      tag_319\n        /* \"@openzeppelin/contracts-upgradeable/utils/PausableUpgradeable.sol\":2783:2804  _getPausableStorage() */\n      jump\t// in\n    tag_318:\n        /* \"@openzeppelin/contracts-upgradeable/utils/PausableUpgradeable.sol\":2755:2804  PausableStorage storage $ = _getPausableStorage() */\n      swap1\n      pop\n        /* \"@openzeppelin/contracts-upgradeable/utils/PausableUpgradeable.sol\":2821:2822  $ */\n      dup1\n        /* \"@openzeppelin/contracts-upgradeable/utils/PausableUpgradeable.sol\":2821:2830  $._paused */\n      0x00\n      add\n      0x00\n      swap1\n      sload\n      swap1\n      0x0100\n      exp\n      swap1\n      div\n      0xff\n      and\n        /* \"@openzeppelin/contracts-upgradeable/utils/PausableUpgradeable.sol\":2814:2830  return $._paused */\n      swap2\n      pop\n      pop\n        /* \"@openzeppelin/contracts-upgradeable/utils/PausableUpgradeable.sol\":2692:2837  function paused() public view virtual returns (bool) {... */\n      swap1\n      jump\t// out\n        /* \"src/smartcontracts/CryptoQuestSwap.sol\":2600:2671  function pause() public onlyRole(PAUSER_ROLE) {... */\n    tag_122:\n        /* \"src/smartcontracts/CryptoQuestSwap.sol\":788:812  keccak256(\"PAUSER_ROLE\") */\n      0x65d7a28e3265b37a6474929f336521b332c1681b933f6cb9f3376673440d862a\n        /* \"@openzeppelin/contracts-upgradeable/access/AccessControlUpgradeable.sol\":3191:3207  _checkRole(role) */\n      tag_321\n        /* \"@openzeppelin/contracts-upgradeable/access/AccessControlUpgradeable.sol\":3202:3206  role */\n      dup2\n        /* \"@openzeppelin/contracts-upgradeable/access/AccessControlUpgradeable.sol\":3191:3201  _checkRole */\n      tag_188\n        /* \"@openzeppelin/contracts-upgradeable/access/AccessControlUpgradeable.sol\":3191:3207  _checkRole(role) */\n      jump\t// in\n    tag_321:\n        /* \"src/smartcontracts/CryptoQuestSwap.sol\":2656:2664  _pause() */\n      tag_323\n        /* \"src/smartcontracts/CryptoQuestSwap.sol\":2656:2662  _pause */\n      tag_324\n        /* \"src/smartcontracts/CryptoQuestSwap.sol\":2656:2664  _pause() */\n      jump\t// in\n    tag_323:\n        /* \"src/smartcontracts/CryptoQuestSwap.sol\":2600:2671  function pause() public onlyRole(PAUSER_ROLE) {... */\n      pop\n      jump\t// out\n        /* \"@openzeppelin/contracts-upgradeable/access/AccessControlUpgradeable.sol\":3732:3939  function hasRole(bytes32 role, address account) public view virtual returns (bool) {... */\n    tag_126:\n        /* \"@openzeppelin/contracts-upgradeable/access/AccessControlUpgradeable.sol\":3809:3813  bool */\n      0x00\n        /* \"@openzeppelin/contracts-upgradeable/access/AccessControlUpgradeable.sol\":3825:3855  AccessControlStorage storage $ */\n      dup1\n        /* \"@openzeppelin/contracts-upgradeable/access/AccessControlUpgradeable.sol\":3858:3884  _getAccessControlStorage() */\n      tag_326\n        /* \"@openzeppelin/contracts-upgradeable/access/AccessControlUpgradeable.sol\":3858:3882  _getAccessControlStorage */\n      tag_206\n        /* \"@openzeppelin/contracts-upgradeable/access/AccessControlUpgradeable.sol\":3858:3884  _getAccessControlStorage() */\n      jump\t// in\n    tag_326:\n        /* \"@openzeppelin/contracts-upgradeable/access/AccessControlUpgradeable.sol\":3825:3884  AccessControlStorage storage $ = _getAccessControlStorage() */\n      swap1\n      pop\n        /* \"@openzeppelin/contracts-upgradeable/access/AccessControlUpgradeable.sol\":3901:3902  $ */\n      dup1\n        /* \"@openzeppelin/contracts-upgradeable/access/AccessControlUpgradeable.sol\":3901:3909  $._roles */\n      0x00\n      add\n        /* \"@openzeppelin/contracts-upgradeable/access/AccessControlUpgradeable.sol\":3901:3915  $._roles[role] */\n      0x00\n        /* \"@openzeppelin/contracts-upgradeable/access/AccessControlUpgradeable.sol\":3910:3914  role */\n      dup6\n        /* \"@openzeppelin/contracts-upgradeable/access/AccessControlUpgradeable.sol\":3901:3915  $._roles[role] */\n      dup2\n      mstore\n      0x20\n      add\n      swap1\n      dup2\n      mstore\n      0x20\n      add\n      0x00\n      keccak256\n        /* \"@openzeppelin/contracts-upgradeable/access/AccessControlUpgradeable.sol\":3901:3923  $._roles[role].hasRole */\n      0x00\n      add\n        /* \"@openzeppelin/contracts-upgradeable/access/AccessControlUpgradeable.sol\":3901:3932  $._roles[role].hasRole[account] */\n      0x00\n        /* \"@openzeppelin/contracts-upgradeable/access/AccessControlUpgradeable.sol\":3924:3931  account */\n      dup5\n        /* \"@openzeppelin/contracts-upgradeable/access/AccessControlUpgradeable.sol\":3901:3932  $._roles[role].hasRole[account] */\n      0xffffffffffffffffffffffffffffffffffffffff\n      and\n      0xffffffffffffffffffffffffffffffffffffffff\n      and\n      dup2\n      mstore\n      0x20\n      add\n      swap1\n      dup2\n      mstore\n      0x20\n      add\n      0x00\n      keccak256\n      0x00\n      swap1\n      sload\n      swap1\n      0x0100\n      exp\n      swap1\n      div\n      0xff\n      and\n        /* \"@openzeppelin/contracts-upgradeable/access/AccessControlUpgradeable.sol\":3894:3932  return $._roles[role].hasRole[account] */\n      swap2\n      pop\n      pop\n        /* \"@openzeppelin/contracts-upgradeable/access/AccessControlUpgradeable.sol\":3732:3939  function hasRole(bytes32 role, address account) public view virtual returns (bool) {... */\n      swap3\n      swap2\n      pop\n      pop\n      jump\t// out\n        /* \"src/smartcontracts/CryptoQuestSwap.sol\":4013:4818  function removeLiquidity(address token, uint256 liquidity) external whenNotPaused returns (uint256 tokenAmount, uint256 ethAmount) {... */\n    tag_131:\n        /* \"src/smartcontracts/CryptoQuestSwap.sol\":4104:4123  uint256 tokenAmount */\n      0x00\n        /* \"src/smartcontracts/CryptoQuestSwap.sol\":4125:4142  uint256 ethAmount */\n      dup1\n        /* \"@openzeppelin/contracts-upgradeable/utils/PausableUpgradeable.sol\":2316:2335  _requireNotPaused() */\n      tag_328\n        /* \"@openzeppelin/contracts-upgradeable/utils/PausableUpgradeable.sol\":2316:2333  _requireNotPaused */\n      tag_226\n        /* \"@openzeppelin/contracts-upgradeable/utils/PausableUpgradeable.sol\":2316:2335  _requireNotPaused() */\n      jump\t// in\n    tag_328:\n        /* \"src/smartcontracts/CryptoQuestSwap.sol\":4154:4180  LiquidityPool storage pool */\n      0x00\n        /* \"src/smartcontracts/CryptoQuestSwap.sol\":4183:4197  liquidityPools */\n      0x02\n        /* \"src/smartcontracts/CryptoQuestSwap.sol\":4183:4204  liquidityPools[token] */\n      0x00\n        /* \"src/smartcontracts/CryptoQuestSwap.sol\":4198:4203  token */\n      dup7\n        /* \"src/smartcontracts/CryptoQuestSwap.sol\":4183:4204  liquidityPools[token] */\n      0xffffffffffffffffffffffffffffffffffffffff\n      and\n      0xffffffffffffffffffffffffffffffffffffffff\n      and\n      dup2\n      mstore\n      0x20\n      add\n      swap1\n      dup2\n      mstore\n      0x20\n      add\n      0x00\n      keccak256\n        /* \"src/smartcontracts/CryptoQuestSwap.sol\":4154:4204  LiquidityPool storage pool = liquidityPools[token] */\n      swap1\n      pop\n        /* \"src/smartcontracts/CryptoQuestSwap.sol\":4252:4261  liquidity */\n      dup4\n        /* \"src/smartcontracts/CryptoQuestSwap.sol\":4222:4226  pool */\n      dup2\n        /* \"src/smartcontracts/CryptoQuestSwap.sol\":4222:4236  pool.liquidity */\n      0x03\n      add\n        /* \"src/smartcontracts/CryptoQuestSwap.sol\":4222:4248  pool.liquidity[msg.sender] */\n      0x00\n        /* \"src/smartcontracts/CryptoQuestSwap.sol\":4237:4247  msg.sender */\n      caller\n        /* \"src/smartcontracts/CryptoQuestSwap.sol\":4222:4248  pool.liquidity[msg.sender] */\n      0xffffffffffffffffffffffffffffffffffffffff\n      and\n      0xffffffffffffffffffffffffffffffffffffffff\n      and\n      dup2\n      mstore\n      0x20\n      add\n      swap1\n      dup2\n      mstore\n      0x20\n      add\n      0x00\n      keccak256\n      sload\n        /* \"src/smartcontracts/CryptoQuestSwap.sol\":4222:4261  pool.liquidity[msg.sender] >= liquidity */\n      lt\n      iszero\n        /* \"src/smartcontracts/CryptoQuestSwap.sol\":4214:4288  require(pool.liquidity[msg.sender] >= liquidity, \"Insufficient liquidity\") */\n      tag_330\n      jumpi\n      mload(0x40)\n      0x08c379a000000000000000000000000000000000000000000000000000000000\n      dup2\n      mstore\n      0x04\n      add\n      tag_331\n      swap1\n      tag_269\n      jump\t// in\n    tag_331:\n      mload(0x40)\n      dup1\n      swap2\n      sub\n      swap1\n      revert\n    tag_330:\n        /* \"src/smartcontracts/CryptoQuestSwap.sol\":4346:4350  pool */\n      dup1\n        /* \"src/smartcontracts/CryptoQuestSwap.sol\":4346:4365  pool.totalLiquidity */\n      0x02\n      add\n      sload\n        /* \"src/smartcontracts/CryptoQuestSwap.sol\":4333:4342  liquidity */\n      dup5\n        /* \"src/smartcontracts/CryptoQuestSwap.sol\":4314:4318  pool */\n      dup3\n        /* \"src/smartcontracts/CryptoQuestSwap.sol\":4314:4330  pool.tokenAmount */\n      0x00\n      add\n      sload\n        /* \"src/smartcontracts/CryptoQuestSwap.sol\":4314:4342  pool.tokenAmount * liquidity */\n      tag_332\n      swap2\n      swap1\n      tag_304\n      jump\t// in\n    tag_332:\n        /* \"src/smartcontracts/CryptoQuestSwap.sol\":4313:4365  (pool.tokenAmount * liquidity) / pool.totalLiquidity */\n      tag_333\n      swap2\n      swap1\n      tag_306\n      jump\t// in\n    tag_333:\n        /* \"src/smartcontracts/CryptoQuestSwap.sol\":4299:4365  tokenAmount = (pool.tokenAmount * liquidity) / pool.totalLiquidity */\n      swap3\n      pop\n        /* \"src/smartcontracts/CryptoQuestSwap.sol\":4418:4422  pool */\n      dup1\n        /* \"src/smartcontracts/CryptoQuestSwap.sol\":4418:4437  pool.totalLiquidity */\n      0x02\n      add\n      sload\n        /* \"src/smartcontracts/CryptoQuestSwap.sol\":4405:4414  liquidity */\n      dup5\n        /* \"src/smartcontracts/CryptoQuestSwap.sol\":4388:4392  pool */\n      dup3\n        /* \"src/smartcontracts/CryptoQuestSwap.sol\":4388:4402  pool.ethAmount */\n      0x01\n      add\n      sload\n        /* \"src/smartcontracts/CryptoQuestSwap.sol\":4388:4414  pool.ethAmount * liquidity */\n      tag_334\n      swap2\n      swap1\n      tag_304\n      jump\t// in\n    tag_334:\n        /* \"src/smartcontracts/CryptoQuestSwap.sol\":4387:4437  (pool.ethAmount * liquidity) / pool.totalLiquidity */\n      tag_335\n      swap2\n      swap1\n      tag_306\n      jump\t// in\n    tag_335:\n        /* \"src/smartcontracts/CryptoQuestSwap.sol\":4375:4437  ethAmount = (pool.ethAmount * liquidity) / pool.totalLiquidity */\n      swap2\n      pop\n        /* \"src/smartcontracts/CryptoQuestSwap.sol\":4468:4479  tokenAmount */\n      dup3\n        /* \"src/smartcontracts/CryptoQuestSwap.sol\":4448:4452  pool */\n      dup2\n        /* \"src/smartcontracts/CryptoQuestSwap.sol\":4448:4464  pool.tokenAmount */\n      0x00\n      add\n      0x00\n        /* \"src/smartcontracts/CryptoQuestSwap.sol\":4448:4479  pool.tokenAmount -= tokenAmount */\n      dup3\n      dup3\n      sload\n      tag_336\n      swap2\n      swap1\n      tag_241\n      jump\t// in\n    tag_336:\n      swap3\n      pop\n      pop\n      dup2\n      swap1\n      sstore\n      pop\n        /* \"src/smartcontracts/CryptoQuestSwap.sol\":4507:4516  ethAmount */\n      dup2\n        /* \"src/smartcontracts/CryptoQuestSwap.sol\":4489:4493  pool */\n      dup2\n        /* \"src/smartcontracts/CryptoQuestSwap.sol\":4489:4503  pool.ethAmount */\n      0x01\n      add\n      0x00\n        /* \"src/smartcontracts/CryptoQuestSwap.sol\":4489:4516  pool.ethAmount -= ethAmount */\n      dup3\n      dup3\n      sload\n      tag_337\n      swap2\n      swap1\n      tag_241\n      jump\t// in\n    tag_337:\n      swap3\n      pop\n      pop\n      dup2\n      swap1\n      sstore\n      pop\n        /* \"src/smartcontracts/CryptoQuestSwap.sol\":4549:4558  liquidity */\n      dup4\n        /* \"src/smartcontracts/CryptoQuestSwap.sol\":4526:4530  pool */\n      dup2\n        /* \"src/smartcontracts/CryptoQuestSwap.sol\":4526:4545  pool.totalLiquidity */\n      0x02\n      add\n      0x00\n        /* \"src/smartcontracts/CryptoQuestSwap.sol\":4526:4558  pool.totalLiquidity -= liquidity */\n      dup3\n      dup3\n      sload\n      tag_338\n      swap2\n      swap1\n      tag_241\n      jump\t// in\n    tag_338:\n      swap3\n      pop\n      pop\n      dup2\n      swap1\n      sstore\n      pop\n        /* \"src/smartcontracts/CryptoQuestSwap.sol\":4598:4607  liquidity */\n      dup4\n        /* \"src/smartcontracts/CryptoQuestSwap.sol\":4568:4572  pool */\n      dup2\n        /* \"src/smartcontracts/CryptoQuestSwap.sol\":4568:4582  pool.liquidity */\n      0x03\n      add\n        /* \"src/smartcontracts/CryptoQuestSwap.sol\":4568:4594  pool.liquidity[msg.sender] */\n      0x00\n        /* \"src/smartcontracts/CryptoQuestSwap.sol\":4583:4593  msg.sender */\n      caller\n        /* \"src/smartcontracts/CryptoQuestSwap.sol\":4568:4594  pool.liquidity[msg.sender] */\n      0xffffffffffffffffffffffffffffffffffffffff\n      and\n      0xffffffffffffffffffffffffffffffffffffffff\n      and\n      dup2\n      mstore\n      0x20\n      add\n      swap1\n      dup2\n      mstore\n      0x20\n      add\n      0x00\n      keccak256\n      0x00\n        /* \"src/smartcontracts/CryptoQuestSwap.sol\":4568:4607  pool.liquidity[msg.sender] -= liquidity */\n      dup3\n      dup3\n      sload\n      tag_339\n      swap2\n      swap1\n      tag_241\n      jump\t// in\n    tag_339:\n      swap3\n      pop\n      pop\n      dup2\n      swap1\n      sstore\n      pop\n        /* \"src/smartcontracts/CryptoQuestSwap.sol\":4636:4641  token */\n      dup5\n        /* \"src/smartcontracts/CryptoQuestSwap.sol\":4618:4651  IERC20Upgradeable(token).transfer */\n      0xffffffffffffffffffffffffffffffffffffffff\n      and\n      0xa9059cbb\n        /* \"src/smartcontracts/CryptoQuestSwap.sol\":4652:4662  msg.sender */\n      caller\n        /* \"src/smartcontracts/CryptoQuestSwap.sol\":4664:4675  tokenAmount */\n      dup6\n        /* \"src/smartcontracts/CryptoQuestSwap.sol\":4618:4676  IERC20Upgradeable(token).transfer(msg.sender, tokenAmount) */\n      mload(0x40)\n      dup4\n      0xffffffff\n      and\n      0xe0\n      shl\n      dup2\n      mstore\n      0x04\n      add\n      tag_340\n      swap3\n      swap2\n      swap1\n      tag_199\n      jump\t// in\n    tag_340:\n      0x20\n      mload(0x40)\n      dup1\n      dup4\n      sub\n      dup2\n      0x00\n      dup8\n      gas\n      call\n      iszero\n      dup1\n      iszero\n      tag_342\n      jumpi\n      returndatasize\n      0x00\n      dup1\n      returndatacopy\n      revert(0x00, returndatasize)\n    tag_342:\n      pop\n      pop\n      pop\n      pop\n      mload(0x40)\n      returndatasize\n      not(0x1f)\n      0x1f\n      dup3\n      add\n      and\n      dup3\n      add\n      dup1\n      0x40\n      mstore\n      pop\n      dup2\n      add\n      swap1\n      tag_343\n      swap2\n      swap1\n      tag_203\n      jump\t// in\n    tag_343:\n      pop\n        /* \"src/smartcontracts/CryptoQuestSwap.sol\":4694:4704  msg.sender */\n      caller\n        /* \"src/smartcontracts/CryptoQuestSwap.sol\":4686:4714  payable(msg.sender).transfer */\n      0xffffffffffffffffffffffffffffffffffffffff\n      and\n        /* \"src/smartcontracts/CryptoQuestSwap.sol\":4686:4725  payable(msg.sender).transfer(ethAmount) */\n      0x08fc\n        /* \"src/smartcontracts/CryptoQuestSwap.sol\":4715:4724  ethAmount */\n      dup4\n        /* \"src/smartcontracts/CryptoQuestSwap.sol\":4686:4725  payable(msg.sender).transfer(ethAmount) */\n      swap1\n      dup2\n      iszero\n      mul\n      swap1\n      mload(0x40)\n      0x00\n      mload(0x40)\n      dup1\n      dup4\n      sub\n      dup2\n      dup6\n      dup9\n      dup9\n      call\n      swap4\n      pop\n      pop\n      pop\n      pop\n      iszero\n      dup1\n      iszero\n      tag_345\n      jumpi\n      returndatasize\n      0x00\n      dup1\n      returndatacopy\n      revert(0x00, returndatasize)\n    tag_345:\n      pop\n        /* \"src/smartcontracts/CryptoQuestSwap.sol\":4770:4775  token */\n      dup5\n        /* \"src/smartcontracts/CryptoQuestSwap.sol\":4741:4811  LiquidityRemoved(msg.sender, token, tokenAmount, ethAmount, liquidity) */\n      0xffffffffffffffffffffffffffffffffffffffff\n      and\n        /* \"src/smartcontracts/CryptoQuestSwap.sol\":4758:4768  msg.sender */\n      caller\n        /* \"src/smartcontracts/CryptoQuestSwap.sol\":4741:4811  LiquidityRemoved(msg.sender, token, tokenAmount, ethAmount, liquidity) */\n      0xffffffffffffffffffffffffffffffffffffffff\n      and\n      0xbc7d19d505c7ec4db83f3b51f19fb98c4c8a99922e7839d1ee608dfbee29501b\n        /* \"src/smartcontracts/CryptoQuestSwap.sol\":4777:4788  tokenAmount */\n      dup6\n        /* \"src/smartcontracts/CryptoQuestSwap.sol\":4790:4799  ethAmount */\n      dup6\n        /* \"src/smartcontracts/CryptoQuestSwap.sol\":4801:4810  liquidity */\n      dup9\n        /* \"src/smartcontracts/CryptoQuestSwap.sol\":4741:4811  LiquidityRemoved(msg.sender, token, tokenAmount, ethAmount, liquidity) */\n      mload(0x40)\n      tag_346\n      swap4\n      swap3\n      swap2\n      swap1\n      tag_63\n      jump\t// in\n    tag_346:\n      mload(0x40)\n      dup1\n      swap2\n      sub\n      swap1\n      log3\n        /* \"src/smartcontracts/CryptoQuestSwap.sol\":4144:4818  {... */\n      pop\n        /* \"src/smartcontracts/CryptoQuestSwap.sol\":4013:4818  function removeLiquidity(address token, uint256 liquidity) external whenNotPaused returns (uint256 tokenAmount, uint256 ethAmount) {... */\n      swap3\n      pop\n      swap3\n      swap1\n      pop\n      jump\t// out\n        /* \"@openzeppelin/contracts-upgradeable/access/AccessControlUpgradeable.sol\":2317:2366  bytes32 public constant DEFAULT_ADMIN_ROLE = 0x00 */\n    tag_136:\n        /* \"@openzeppelin/contracts-upgradeable/access/AccessControlUpgradeable.sol\":2362:2366  0x00 */\n      0x00\n        /* \"@openzeppelin/contracts-upgradeable/access/AccessControlUpgradeable.sol\":2317:2366  bytes32 public constant DEFAULT_ADMIN_ROLE = 0x00 */\n      dup1\n      shl\n      dup2\n      jump\t// out\n        /* \"@openzeppelin/contracts-upgradeable/proxy/utils/UUPSUpgradeable.sol\":1819:1877  string public constant UPGRADE_INTERFACE_VERSION = \"5.0.0\" */\n    tag_140:\n      mload(0x40)\n      dup1\n      0x40\n      add\n      0x40\n      mstore\n      dup1\n      0x05\n      dup2\n      mstore\n      0x20\n      add\n      0x352e302e30000000000000000000000000000000000000000000000000000000\n      dup2\n      mstore\n      pop\n      dup2\n      jump\t// out\n        /* \"src/smartcontracts/CryptoQuestSwap.sol\":7987:8242  function updateLiquidityPool(address token, uint256 newTokenAmount, uint256 newEthAmount) external onlyRole(LIQUIDITY_MANAGER_ROLE) {... */\n    tag_147:\n        /* \"src/smartcontracts/CryptoQuestSwap.sol\":939:974  keccak256(\"LIQUIDITY_MANAGER_ROLE\") */\n      0x77e60b99a50d27fb027f6912a507d956105b4148adab27a86d235c8bcca8fa2f\n        /* \"@openzeppelin/contracts-upgradeable/access/AccessControlUpgradeable.sol\":3191:3207  _checkRole(role) */\n      tag_348\n        /* \"@openzeppelin/contracts-upgradeable/access/AccessControlUpgradeable.sol\":3202:3206  role */\n      dup2\n        /* \"@openzeppelin/contracts-upgradeable/access/AccessControlUpgradeable.sol\":3191:3201  _checkRole */\n      tag_188\n        /* \"@openzeppelin/contracts-upgradeable/access/AccessControlUpgradeable.sol\":3191:3207  _checkRole(role) */\n      jump\t// in\n    tag_348:\n        /* \"src/smartcontracts/CryptoQuestSwap.sol\":8165:8179  newTokenAmount */\n      dup3\n        /* \"src/smartcontracts/CryptoQuestSwap.sol\":8129:8143  liquidityPools */\n      0x02\n        /* \"src/smartcontracts/CryptoQuestSwap.sol\":8129:8150  liquidityPools[token] */\n      0x00\n        /* \"src/smartcontracts/CryptoQuestSwap.sol\":8144:8149  token */\n      dup7\n        /* \"src/smartcontracts/CryptoQuestSwap.sol\":8129:8150  liquidityPools[token] */\n      0xffffffffffffffffffffffffffffffffffffffff\n      and\n      0xffffffffffffffffffffffffffffffffffffffff\n      and\n      dup2\n      mstore\n      0x20\n      add\n      swap1\n      dup2\n      mstore\n      0x20\n      add\n      0x00\n      keccak256\n        /* \"src/smartcontracts/CryptoQuestSwap.sol\":8129:8162  liquidityPools[token].tokenAmount */\n      0x00\n      add\n        /* \"src/smartcontracts/CryptoQuestSwap.sol\":8129:8179  liquidityPools[token].tokenAmount = newTokenAmount */\n      dup2\n      swap1\n      sstore\n      pop\n        /* \"src/smartcontracts/CryptoQuestSwap.sol\":8223:8235  newEthAmount */\n      dup2\n        /* \"src/smartcontracts/CryptoQuestSwap.sol\":8189:8203  liquidityPools */\n      0x02\n        /* \"src/smartcontracts/CryptoQuestSwap.sol\":8189:8210  liquidityPools[token] */\n      0x00\n        /* \"src/smartcontracts/CryptoQuestSwap.sol\":8204:8209  token */\n      dup7\n        /* \"src/smartcontracts/CryptoQuestSwap.sol\":8189:8210  liquidityPools[token] */\n      0xffffffffffffffffffffffffffffffffffffffff\n      and\n      0xffffffffffffffffffffffffffffffffffffffff\n      and\n      dup2\n      mstore\n      0x20\n      add\n      swap1\n      dup2\n      mstore\n      0x20\n      add\n      0x00\n      keccak256\n        /* \"src/smartcontracts/CryptoQuestSwap.sol\":8189:8220  liquidityPools[token].ethAmount */\n      0x01\n      add\n        /* \"src/smartcontracts/CryptoQuestSwap.sol\":8189:8235  liquidityPools[token].ethAmount = newEthAmount */\n      dup2\n      swap1\n      sstore\n      pop\n        /* \"src/smartcontracts/CryptoQuestSwap.sol\":7987:8242  function updateLiquidityPool(address token, uint256 newTokenAmount, uint256 newEthAmount) external onlyRole(LIQUIDITY_MANAGER_ROLE) {... */\n      pop\n      pop\n      pop\n      pop\n      jump\t// out\n        /* \"src/smartcontracts/CryptoQuestSwap.sol\":1960:2594  function initialize(... */\n    tag_152:\n        /* \"@openzeppelin/contracts-upgradeable/proxy/utils/Initializable.sol\":4158:4188  InitializableStorage storage $ */\n      0x00\n        /* \"@openzeppelin/contracts-upgradeable/proxy/utils/Initializable.sol\":4191:4217  _getInitializableStorage() */\n      tag_351\n        /* \"@openzeppelin/contracts-upgradeable/proxy/utils/Initializable.sol\":4191:4215  _getInitializableStorage */\n      tag_352\n        /* \"@openzeppelin/contracts-upgradeable/proxy/utils/Initializable.sol\":4191:4217  _getInitializableStorage() */\n      jump\t// in\n    tag_351:\n        /* \"@openzeppelin/contracts-upgradeable/proxy/utils/Initializable.sol\":4158:4217  InitializableStorage storage $ = _getInitializableStorage() */\n      swap1\n      pop\n        /* \"@openzeppelin/contracts-upgradeable/proxy/utils/Initializable.sol\":4279:4298  bool isTopLevelCall */\n      0x00\n        /* \"@openzeppelin/contracts-upgradeable/proxy/utils/Initializable.sol\":4302:4303  $ */\n      dup2\n        /* \"@openzeppelin/contracts-upgradeable/proxy/utils/Initializable.sol\":4302:4317  $._initializing */\n      0x00\n      add\n      0x08\n      swap1\n      sload\n      swap1\n      0x0100\n      exp\n      swap1\n      div\n      0xff\n      and\n        /* \"@openzeppelin/contracts-upgradeable/proxy/utils/Initializable.sol\":4301:4317  !$._initializing */\n      iszero\n        /* \"@openzeppelin/contracts-upgradeable/proxy/utils/Initializable.sol\":4279:4317  bool isTopLevelCall = !$._initializing */\n      swap1\n      pop\n        /* \"@openzeppelin/contracts-upgradeable/proxy/utils/Initializable.sol\":4327:4345  uint64 initialized */\n      0x00\n        /* \"@openzeppelin/contracts-upgradeable/proxy/utils/Initializable.sol\":4348:4349  $ */\n      dup3\n        /* \"@openzeppelin/contracts-upgradeable/proxy/utils/Initializable.sol\":4348:4362  $._initialized */\n      0x00\n      add\n      0x00\n      swap1\n      sload\n      swap1\n      0x0100\n      exp\n      swap1\n      div\n      0xffffffffffffffff\n      and\n        /* \"@openzeppelin/contracts-upgradeable/proxy/utils/Initializable.sol\":4327:4362  uint64 initialized = $._initialized */\n      swap1\n      pop\n        /* \"@openzeppelin/contracts-upgradeable/proxy/utils/Initializable.sol\":4706:4723  bool initialSetup */\n      0x00\n        /* \"@openzeppelin/contracts-upgradeable/proxy/utils/Initializable.sol\":4741:4742  0 */\n      dup1\n        /* \"@openzeppelin/contracts-upgradeable/proxy/utils/Initializable.sol\":4726:4737  initialized */\n      dup3\n        /* \"@openzeppelin/contracts-upgradeable/proxy/utils/Initializable.sol\":4726:4742  initialized == 0 */\n      0xffffffffffffffff\n      and\n      eq\n        /* \"@openzeppelin/contracts-upgradeable/proxy/utils/Initializable.sol\":4726:4760  initialized == 0 && isTopLevelCall */\n      dup1\n      iszero\n      tag_353\n      jumpi\n      pop\n        /* \"@openzeppelin/contracts-upgradeable/proxy/utils/Initializable.sol\":4746:4760  isTopLevelCall */\n      dup3\n        /* \"@openzeppelin/contracts-upgradeable/proxy/utils/Initializable.sol\":4726:4760  initialized == 0 && isTopLevelCall */\n    tag_353:\n        /* \"@openzeppelin/contracts-upgradeable/proxy/utils/Initializable.sol\":4706:4760  bool initialSetup = initialized == 0 && isTopLevelCall */\n      swap1\n      pop\n        /* \"@openzeppelin/contracts-upgradeable/proxy/utils/Initializable.sol\":4770:4787  bool construction */\n      0x00\n        /* \"@openzeppelin/contracts-upgradeable/proxy/utils/Initializable.sol\":4805:4806  1 */\n      0x01\n        /* \"@openzeppelin/contracts-upgradeable/proxy/utils/Initializable.sol\":4790:4801  initialized */\n      dup4\n        /* \"@openzeppelin/contracts-upgradeable/proxy/utils/Initializable.sol\":4790:4806  initialized == 1 */\n      0xffffffffffffffff\n      and\n      eq\n        /* \"@openzeppelin/contracts-upgradeable/proxy/utils/Initializable.sol\":4790:4840  initialized == 1 && address(this).code.length == 0 */\n      dup1\n      iszero\n      tag_354\n      jumpi\n      pop\n        /* \"@openzeppelin/contracts-upgradeable/proxy/utils/Initializable.sol\":4839:4840  0 */\n      0x00\n        /* \"@openzeppelin/contracts-upgradeable/proxy/utils/Initializable.sol\":4818:4822  this */\n      address\n        /* \"@openzeppelin/contracts-upgradeable/proxy/utils/Initializable.sol\":4810:4835  address(this).code.length */\n      0xffffffffffffffffffffffffffffffffffffffff\n      and\n      extcodesize\n        /* \"@openzeppelin/contracts-upgradeable/proxy/utils/Initializable.sol\":4810:4840  address(this).code.length == 0 */\n      eq\n        /* \"@openzeppelin/contracts-upgradeable/proxy/utils/Initializable.sol\":4790:4840  initialized == 1 && address(this).code.length == 0 */\n    tag_354:\n        /* \"@openzeppelin/contracts-upgradeable/proxy/utils/Initializable.sol\":4770:4840  bool construction = initialized == 1 && address(this).code.length == 0 */\n      swap1\n      pop\n        /* \"@openzeppelin/contracts-upgradeable/proxy/utils/Initializable.sol\":4856:4868  initialSetup */\n      dup2\n        /* \"@openzeppelin/contracts-upgradeable/proxy/utils/Initializable.sol\":4855:4868  !initialSetup */\n      iszero\n        /* \"@openzeppelin/contracts-upgradeable/proxy/utils/Initializable.sol\":4855:4885  !initialSetup && !construction */\n      dup1\n      iszero\n      tag_355\n      jumpi\n      pop\n        /* \"@openzeppelin/contracts-upgradeable/proxy/utils/Initializable.sol\":4873:4885  construction */\n      dup1\n        /* \"@openzeppelin/contracts-upgradeable/proxy/utils/Initializable.sol\":4872:4885  !construction */\n      iszero\n        /* \"@openzeppelin/contracts-upgradeable/proxy/utils/Initializable.sol\":4855:4885  !initialSetup && !construction */\n    tag_355:\n        /* \"@openzeppelin/contracts-upgradeable/proxy/utils/Initializable.sol\":4851:4942  if (!initialSetup && !construction) {... */\n      iszero\n      tag_356\n      jumpi\n        /* \"@openzeppelin/contracts-upgradeable/proxy/utils/Initializable.sol\":4908:4931  InvalidInitialization() */\n      mload(0x40)\n      0xf92ee8a900000000000000000000000000000000000000000000000000000000\n      dup2\n      mstore\n      0x04\n      add\n      mload(0x40)\n      dup1\n      swap2\n      sub\n      swap1\n      revert\n        /* \"@openzeppelin/contracts-upgradeable/proxy/utils/Initializable.sol\":4851:4942  if (!initialSetup && !construction) {... */\n    tag_356:\n        /* \"@openzeppelin/contracts-upgradeable/proxy/utils/Initializable.sol\":4968:4969  1 */\n      0x01\n        /* \"@openzeppelin/contracts-upgradeable/proxy/utils/Initializable.sol\":4951:4952  $ */\n      dup6\n        /* \"@openzeppelin/contracts-upgradeable/proxy/utils/Initializable.sol\":4951:4965  $._initialized */\n      0x00\n      add\n      0x00\n        /* \"@openzeppelin/contracts-upgradeable/proxy/utils/Initializable.sol\":4951:4969  $._initialized = 1 */\n      0x0100\n      exp\n      dup2\n      sload\n      dup2\n      0xffffffffffffffff\n      mul\n      not\n      and\n      swap1\n      dup4\n      0xffffffffffffffff\n      and\n      mul\n      or\n      swap1\n      sstore\n      pop\n        /* \"@openzeppelin/contracts-upgradeable/proxy/utils/Initializable.sol\":4983:4997  isTopLevelCall */\n      dup4\n        /* \"@openzeppelin/contracts-upgradeable/proxy/utils/Initializable.sol\":4979:5046  if (isTopLevelCall) {... */\n      iszero\n      tag_357\n      jumpi\n        /* \"@openzeppelin/contracts-upgradeable/proxy/utils/Initializable.sol\":5031:5035  true */\n      0x01\n        /* \"@openzeppelin/contracts-upgradeable/proxy/utils/Initializable.sol\":5013:5014  $ */\n      dup6\n        /* \"@openzeppelin/contracts-upgradeable/proxy/utils/Initializable.sol\":5013:5028  $._initializing */\n      0x00\n      add\n      0x08\n        /* \"@openzeppelin/contracts-upgradeable/proxy/utils/Initializable.sol\":5013:5035  $._initializing = true */\n      0x0100\n      exp\n      dup2\n      sload\n      dup2\n      0xff\n      mul\n      not\n      and\n      swap1\n      dup4\n      iszero\n      iszero\n      mul\n      or\n      swap1\n      sstore\n      pop\n        /* \"@openzeppelin/contracts-upgradeable/proxy/utils/Initializable.sol\":4979:5046  if (isTopLevelCall) {... */\n    tag_357:\n        /* \"src/smartcontracts/CryptoQuestSwap.sol\":2193:2210  __Pausable_init() */\n      tag_359\n        /* \"src/smartcontracts/CryptoQuestSwap.sol\":2193:2208  __Pausable_init */\n      tag_360\n        /* \"src/smartcontracts/CryptoQuestSwap.sol\":2193:2210  __Pausable_init() */\n      jump\t// in\n    tag_359:\n        /* \"src/smartcontracts/CryptoQuestSwap.sol\":2220:2242  __AccessControl_init() */\n      tag_361\n        /* \"src/smartcontracts/CryptoQuestSwap.sol\":2220:2240  __AccessControl_init */\n      tag_362\n        /* \"src/smartcontracts/CryptoQuestSwap.sol\":2220:2242  __AccessControl_init() */\n      jump\t// in\n    tag_361:\n        /* \"src/smartcontracts/CryptoQuestSwap.sol\":2252:2276  __UUPSUpgradeable_init() */\n      tag_363\n        /* \"src/smartcontracts/CryptoQuestSwap.sol\":2252:2274  __UUPSUpgradeable_init */\n      tag_364\n        /* \"src/smartcontracts/CryptoQuestSwap.sol\":2252:2276  __UUPSUpgradeable_init() */\n      jump\t// in\n    tag_363:\n        /* \"src/smartcontracts/CryptoQuestSwap.sol\":2287:2331  _grantRole(DEFAULT_ADMIN_ROLE, defaultAdmin) */\n      tag_365\n        /* \"@openzeppelin/contracts-upgradeable/access/AccessControlUpgradeable.sol\":2362:2366  0x00 */\n      0x00\n        /* \"src/smartcontracts/CryptoQuestSwap.sol\":2298:2316  DEFAULT_ADMIN_ROLE */\n      dup1\n      shl\n        /* \"src/smartcontracts/CryptoQuestSwap.sol\":2318:2330  defaultAdmin */\n      dup13\n        /* \"src/smartcontracts/CryptoQuestSwap.sol\":2287:2297  _grantRole */\n      tag_212\n        /* \"src/smartcontracts/CryptoQuestSwap.sol\":2287:2331  _grantRole(DEFAULT_ADMIN_ROLE, defaultAdmin) */\n      jump\t// in\n    tag_365:\n      pop\n        /* \"src/smartcontracts/CryptoQuestSwap.sol\":2341:2372  _grantRole(PAUSER_ROLE, pauser) */\n      tag_366\n        /* \"src/smartcontracts/CryptoQuestSwap.sol\":788:812  keccak256(\"PAUSER_ROLE\") */\n      0x65d7a28e3265b37a6474929f336521b332c1681b933f6cb9f3376673440d862a\n        /* \"src/smartcontracts/CryptoQuestSwap.sol\":2365:2371  pauser */\n      dup12\n        /* \"src/smartcontracts/CryptoQuestSwap.sol\":2341:2351  _grantRole */\n      tag_212\n        /* \"src/smartcontracts/CryptoQuestSwap.sol\":2341:2372  _grantRole(PAUSER_ROLE, pauser) */\n      jump\t// in\n    tag_366:\n      pop\n        /* \"src/smartcontracts/CryptoQuestSwap.sol\":2382:2417  _grantRole(UPGRADER_ROLE, upgrader) */\n      tag_367\n        /* \"src/smartcontracts/CryptoQuestSwap.sol\":858:884  keccak256(\"UPGRADER_ROLE\") */\n      0x189ab7a9244df0848122154315af71fe140f3db0fe014031783b0946b8c9d2e3\n        /* \"src/smartcontracts/CryptoQuestSwap.sol\":2408:2416  upgrader */\n      dup11\n        /* \"src/smartcontracts/CryptoQuestSwap.sol\":2382:2392  _grantRole */\n      tag_212\n        /* \"src/smartcontracts/CryptoQuestSwap.sol\":2382:2417  _grantRole(UPGRADER_ROLE, upgrader) */\n      jump\t// in\n    tag_367:\n      pop\n        /* \"src/smartcontracts/CryptoQuestSwap.sol\":2427:2479  _grantRole(LIQUIDITY_MANAGER_ROLE, liquidityManager) */\n      tag_368\n        /* \"src/smartcontracts/CryptoQuestSwap.sol\":939:974  keccak256(\"LIQUIDITY_MANAGER_ROLE\") */\n      0x77e60b99a50d27fb027f6912a507d956105b4148adab27a86d235c8bcca8fa2f\n        /* \"src/smartcontracts/CryptoQuestSwap.sol\":2462:2478  liquidityManager */\n      dup10\n        /* \"src/smartcontracts/CryptoQuestSwap.sol\":2427:2437  _grantRole */\n      tag_212\n        /* \"src/smartcontracts/CryptoQuestSwap.sol\":2427:2479  _grantRole(LIQUIDITY_MANAGER_ROLE, liquidityManager) */\n      jump\t// in\n    tag_368:\n      pop\n        /* \"src/smartcontracts/CryptoQuestSwap.sol\":2519:2534  cqtTokenAddress */\n      dup7\n        /* \"src/smartcontracts/CryptoQuestSwap.sol\":2490:2498  cqtToken */\n      0x00\n      dup1\n        /* \"src/smartcontracts/CryptoQuestSwap.sol\":2490:2535  cqtToken = IERC20Upgradeable(cqtTokenAddress) */\n      0x0100\n      exp\n      dup2\n      sload\n      dup2\n      0xffffffffffffffffffffffffffffffffffffffff\n      mul\n      not\n      and\n      swap1\n      dup4\n      0xffffffffffffffffffffffffffffffffffffffff\n      and\n      mul\n      or\n      swap1\n      sstore\n      pop\n        /* \"src/smartcontracts/CryptoQuestSwap.sol\":2573:2586  cqtNFTAddress */\n      dup6\n        /* \"src/smartcontracts/CryptoQuestSwap.sol\":2545:2551  cqtNFT */\n      0x01\n      0x00\n        /* \"src/smartcontracts/CryptoQuestSwap.sol\":2545:2587  cqtNFT = IERC721Upgradeable(cqtNFTAddress) */\n      0x0100\n      exp\n      dup2\n      sload\n      dup2\n      0xffffffffffffffffffffffffffffffffffffffff\n      mul\n      not\n      and\n      swap1\n      dup4\n      0xffffffffffffffffffffffffffffffffffffffff\n      and\n      mul\n      or\n      swap1\n      sstore\n      pop\n        /* \"@openzeppelin/contracts-upgradeable/proxy/utils/Initializable.sol\":5070:5084  isTopLevelCall */\n      dup4\n        /* \"@openzeppelin/contracts-upgradeable/proxy/utils/Initializable.sol\":5066:5167  if (isTopLevelCall) {... */\n      iszero\n      tag_369\n      jumpi\n        /* \"@openzeppelin/contracts-upgradeable/proxy/utils/Initializable.sol\":5118:5123  false */\n      0x00\n        /* \"@openzeppelin/contracts-upgradeable/proxy/utils/Initializable.sol\":5100:5101  $ */\n      dup6\n        /* \"@openzeppelin/contracts-upgradeable/proxy/utils/Initializable.sol\":5100:5115  $._initializing */\n      0x00\n      add\n      0x08\n        /* \"@openzeppelin/contracts-upgradeable/proxy/utils/Initializable.sol\":5100:5123  $._initializing = false */\n      0x0100\n      exp\n      dup2\n      sload\n      dup2\n      0xff\n      mul\n      not\n      and\n      swap1\n      dup4\n      iszero\n      iszero\n      mul\n      or\n      swap1\n      sstore\n      pop\n        /* \"@openzeppelin/contracts-upgradeable/proxy/utils/Initializable.sol\":5142:5156  Initialized(1) */\n      0xc7f505b2f371ae2175ee4913f4499e1f2633a7b5936321eed1cdaeb6115181d2\n        /* \"@openzeppelin/contracts-upgradeable/proxy/utils/Initializable.sol\":5154:5155  1 */\n      0x01\n        /* \"@openzeppelin/contracts-upgradeable/proxy/utils/Initializable.sol\":5142:5156  Initialized(1) */\n      mload(0x40)\n      tag_370\n      swap2\n      swap1\n      tag_371\n      jump\t// in\n    tag_370:\n      mload(0x40)\n      dup1\n      swap2\n      sub\n      swap1\n      log1\n        /* \"@openzeppelin/contracts-upgradeable/proxy/utils/Initializable.sol\":5066:5167  if (isTopLevelCall) {... */\n    tag_369:\n        /* \"@openzeppelin/contracts-upgradeable/proxy/utils/Initializable.sol\":4092:5173  {... */\n      pop\n      pop\n      pop\n      pop\n      pop\n        /* \"src/smartcontracts/CryptoQuestSwap.sol\":1960:2594  function initialize(... */\n      pop\n      pop\n      pop\n      pop\n      pop\n      pop\n      jump\t// out\n        /* \"@openzeppelin/contracts-upgradeable/access/AccessControlUpgradeable.sol\":5662:5800  function revokeRole(bytes32 role, address account) public virtual onlyRole(getRoleAdmin(role)) {... */\n    tag_156:\n        /* \"@openzeppelin/contracts-upgradeable/access/AccessControlUpgradeable.sol\":5737:5755  getRoleAdmin(role) */\n      tag_372\n        /* \"@openzeppelin/contracts-upgradeable/access/AccessControlUpgradeable.sol\":5750:5754  role */\n      dup3\n        /* \"@openzeppelin/contracts-upgradeable/access/AccessControlUpgradeable.sol\":5737:5749  getRoleAdmin */\n      tag_73\n        /* \"@openzeppelin/contracts-upgradeable/access/AccessControlUpgradeable.sol\":5737:5755  getRoleAdmin(role) */\n      jump\t// in\n    tag_372:\n        /* \"@openzeppelin/contracts-upgradeable/access/AccessControlUpgradeable.sol\":3191:3207  _checkRole(role) */\n      tag_374\n        /* \"@openzeppelin/contracts-upgradeable/access/AccessControlUpgradeable.sol\":3202:3206  role */\n      dup2\n        /* \"@openzeppelin/contracts-upgradeable/access/AccessControlUpgradeable.sol\":3191:3201  _checkRole */\n      tag_188\n        /* \"@openzeppelin/contracts-upgradeable/access/AccessControlUpgradeable.sol\":3191:3207  _checkRole(role) */\n      jump\t// in\n    tag_374:\n        /* \"@openzeppelin/contracts-upgradeable/access/AccessControlUpgradeable.sol\":5767:5793  _revokeRole(role, account) */\n      tag_376\n        /* \"@openzeppelin/contracts-upgradeable/access/AccessControlUpgradeable.sol\":5779:5783  role */\n      dup4\n        /* \"@openzeppelin/contracts-upgradeable/access/AccessControlUpgradeable.sol\":5785:5792  account */\n      dup4\n        /* \"@openzeppelin/contracts-upgradeable/access/AccessControlUpgradeable.sol\":5767:5778  _revokeRole */\n      tag_218\n        /* \"@openzeppelin/contracts-upgradeable/access/AccessControlUpgradeable.sol\":5767:5793  _revokeRole(role, account) */\n      jump\t// in\n    tag_376:\n      pop\n        /* \"@openzeppelin/contracts-upgradeable/access/AccessControlUpgradeable.sol\":5662:5800  function revokeRole(bytes32 role, address account) public virtual onlyRole(getRoleAdmin(role)) {... */\n      pop\n      pop\n      pop\n      jump\t// out\n        /* \"src/smartcontracts/CryptoQuestSwap.sol\":6966:7493  function swapNFTForETH(uint256 tokenId, uint256 minETH) external whenNotPaused {... */\n    tag_160:\n        /* \"@openzeppelin/contracts-upgradeable/utils/PausableUpgradeable.sol\":2316:2335  _requireNotPaused() */\n      tag_378\n        /* \"@openzeppelin/contracts-upgradeable/utils/PausableUpgradeable.sol\":2316:2333  _requireNotPaused */\n      tag_226\n        /* \"@openzeppelin/contracts-upgradeable/utils/PausableUpgradeable.sol\":2316:2335  _requireNotPaused() */\n      jump\t// in\n    tag_378:\n        /* \"src/smartcontracts/CryptoQuestSwap.sol\":7090:7100  msg.sender */\n      caller\n        /* \"src/smartcontracts/CryptoQuestSwap.sol\":7063:7100  cqtNFT.ownerOf(tokenId) == msg.sender */\n      0xffffffffffffffffffffffffffffffffffffffff\n      and\n        /* \"src/smartcontracts/CryptoQuestSwap.sol\":7063:7069  cqtNFT */\n      0x01\n      0x00\n      swap1\n      sload\n      swap1\n      0x0100\n      exp\n      swap1\n      div\n      0xffffffffffffffffffffffffffffffffffffffff\n      and\n        /* \"src/smartcontracts/CryptoQuestSwap.sol\":7063:7077  cqtNFT.ownerOf */\n      0xffffffffffffffffffffffffffffffffffffffff\n      and\n      0x6352211e\n        /* \"src/smartcontracts/CryptoQuestSwap.sol\":7078:7085  tokenId */\n      dup5\n        /* \"src/smartcontracts/CryptoQuestSwap.sol\":7063:7086  cqtNFT.ownerOf(tokenId) */\n      mload(0x40)\n      dup3\n      0xffffffff\n      and\n      0xe0\n      shl\n      dup2\n      mstore\n      0x04\n      add\n      tag_380\n      swap2\n      swap1\n      tag_79\n      jump\t// in\n    tag_380:\n      0x20\n      mload(0x40)\n      dup1\n      dup4\n      sub\n      dup2\n      dup7\n      gas\n      staticcall\n      iszero\n      dup1\n      iszero\n      tag_382\n      jumpi\n      returndatasize\n      0x00\n      dup1\n      returndatacopy\n      revert(0x00, returndatasize)\n    tag_382:\n      pop\n      pop\n      pop\n      pop\n      mload(0x40)\n      returndatasize\n      not(0x1f)\n      0x1f\n      dup3\n      add\n      and\n      dup3\n      add\n      dup1\n      0x40\n      mstore\n      pop\n      dup2\n      add\n      swap1\n      tag_383\n      swap2\n      swap1\n      tag_235\n      jump\t// in\n    tag_383:\n        /* \"src/smartcontracts/CryptoQuestSwap.sol\":7063:7100  cqtNFT.ownerOf(tokenId) == msg.sender */\n      0xffffffffffffffffffffffffffffffffffffffff\n      and\n      eq\n        /* \"src/smartcontracts/CryptoQuestSwap.sol\":7055:7121  require(cqtNFT.ownerOf(tokenId) == msg.sender, \"Not owner of NFT\") */\n      tag_384\n      jumpi\n      mload(0x40)\n      0x08c379a000000000000000000000000000000000000000000000000000000000\n      dup2\n      mstore\n      0x04\n      add\n      tag_385\n      swap1\n      tag_386\n      jump\t// in\n    tag_385:\n      mload(0x40)\n      dup1\n      swap2\n      sub\n      swap1\n      revert\n    tag_384:\n        /* \"src/smartcontracts/CryptoQuestSwap.sol\":7132:7149  uint256 ethAmount */\n      0x00\n        /* \"src/smartcontracts/CryptoQuestSwap.sol\":7152:7196  getOutputAmount(1, 1, address(this).balance) */\n      tag_387\n        /* \"src/smartcontracts/CryptoQuestSwap.sol\":7168:7169  1 */\n      0x01\n        /* \"src/smartcontracts/CryptoQuestSwap.sol\":7171:7172  1 */\n      dup1\n        /* \"src/smartcontracts/CryptoQuestSwap.sol\":7174:7195  address(this).balance */\n      selfbalance\n        /* \"src/smartcontracts/CryptoQuestSwap.sol\":7152:7167  getOutputAmount */\n      tag_242\n        /* \"src/smartcontracts/CryptoQuestSwap.sol\":7152:7196  getOutputAmount(1, 1, address(this).balance) */\n      jump\t// in\n    tag_387:\n        /* \"src/smartcontracts/CryptoQuestSwap.sol\":7132:7196  uint256 ethAmount = getOutputAmount(1, 1, address(this).balance) */\n      swap1\n      pop\n        /* \"src/smartcontracts/CryptoQuestSwap.sol\":7254:7260  minETH */\n      dup2\n        /* \"src/smartcontracts/CryptoQuestSwap.sol\":7241:7250  ethAmount */\n      dup2\n        /* \"src/smartcontracts/CryptoQuestSwap.sol\":7241:7260  ethAmount >= minETH */\n      lt\n      iszero\n        /* \"src/smartcontracts/CryptoQuestSwap.sol\":7233:7292  require(ethAmount >= minETH, \"Slippage tolerance exceeded\") */\n      tag_388\n      jumpi\n      mload(0x40)\n      0x08c379a000000000000000000000000000000000000000000000000000000000\n      dup2\n      mstore\n      0x04\n      add\n      tag_389\n      swap1\n      tag_245\n      jump\t// in\n    tag_389:\n      mload(0x40)\n      dup1\n      swap2\n      sub\n      swap1\n      revert\n    tag_388:\n        /* \"src/smartcontracts/CryptoQuestSwap.sol\":7303:7309  cqtNFT */\n      0x01\n      0x00\n      swap1\n      sload\n      swap1\n      0x0100\n      exp\n      swap1\n      div\n      0xffffffffffffffffffffffffffffffffffffffff\n      and\n        /* \"src/smartcontracts/CryptoQuestSwap.sol\":7303:7326  cqtNFT.safeTransferFrom */\n      0xffffffffffffffffffffffffffffffffffffffff\n      and\n      0x42842e0e\n        /* \"src/smartcontracts/CryptoQuestSwap.sol\":7327:7337  msg.sender */\n      caller\n        /* \"src/smartcontracts/CryptoQuestSwap.sol\":7347:7351  this */\n      address\n        /* \"src/smartcontracts/CryptoQuestSwap.sol\":7354:7361  tokenId */\n      dup7\n        /* \"src/smartcontracts/CryptoQuestSwap.sol\":7303:7362  cqtNFT.safeTransferFrom(msg.sender, address(this), tokenId) */\n      mload(0x40)\n      dup5\n      0xffffffff\n      and\n      0xe0\n      shl\n      dup2\n      mstore\n      0x04\n      add\n      tag_390\n      swap4\n      swap3\n      swap2\n      swap1\n      tag_191\n      jump\t// in\n    tag_390:\n      0x00\n      mload(0x40)\n      dup1\n      dup4\n      sub\n      dup2\n      0x00\n      dup8\n      dup1\n      extcodesize\n      iszero\n      dup1\n      iszero\n      tag_391\n      jumpi\n      0x00\n      dup1\n      revert\n    tag_391:\n      pop\n      gas\n      call\n      iszero\n      dup1\n      iszero\n      tag_393\n      jumpi\n      returndatasize\n      0x00\n      dup1\n      returndatacopy\n      revert(0x00, returndatasize)\n    tag_393:\n      pop\n      pop\n      pop\n      pop\n        /* \"src/smartcontracts/CryptoQuestSwap.sol\":7380:7390  msg.sender */\n      caller\n        /* \"src/smartcontracts/CryptoQuestSwap.sol\":7372:7400  payable(msg.sender).transfer */\n      0xffffffffffffffffffffffffffffffffffffffff\n      and\n        /* \"src/smartcontracts/CryptoQuestSwap.sol\":7372:7411  payable(msg.sender).transfer(ethAmount) */\n      0x08fc\n        /* \"src/smartcontracts/CryptoQuestSwap.sol\":7401:7410  ethAmount */\n      dup3\n        /* \"src/smartcontracts/CryptoQuestSwap.sol\":7372:7411  payable(msg.sender).transfer(ethAmount) */\n      swap1\n      dup2\n      iszero\n      mul\n      swap1\n      mload(0x40)\n      0x00\n      mload(0x40)\n      dup1\n      dup4\n      sub\n      dup2\n      dup6\n      dup9\n      dup9\n      call\n      swap4\n      pop\n      pop\n      pop\n      pop\n      iszero\n      dup1\n      iszero\n      tag_395\n      jumpi\n      returndatasize\n      0x00\n      dup1\n      returndatacopy\n      revert(0x00, returndatasize)\n    tag_395:\n      pop\n        /* \"src/smartcontracts/CryptoQuestSwap.sol\":7467:7474  tokenId */\n      dup3\n        /* \"src/smartcontracts/CryptoQuestSwap.sol\":7458:7464  cqtNFT */\n      0x01\n      0x00\n      swap1\n      sload\n      swap1\n      0x0100\n      exp\n      swap1\n      div\n      0xffffffffffffffffffffffffffffffffffffffff\n      and\n        /* \"src/smartcontracts/CryptoQuestSwap.sol\":7427:7486  NFTSwapped(msg.sender, address(cqtNFT), tokenId, ethAmount) */\n      0xffffffffffffffffffffffffffffffffffffffff\n      and\n        /* \"src/smartcontracts/CryptoQuestSwap.sol\":7438:7448  msg.sender */\n      caller\n        /* \"src/smartcontracts/CryptoQuestSwap.sol\":7427:7486  NFTSwapped(msg.sender, address(cqtNFT), tokenId, ethAmount) */\n      0xffffffffffffffffffffffffffffffffffffffff\n      and\n      0x9181665db8d8d5fcce186f7b2cfebe8fbcdc3a003664bbfce2e790f57b076e65\n        /* \"src/smartcontracts/CryptoQuestSwap.sol\":7476:7485  ethAmount */\n      dup5\n        /* \"src/smartcontracts/CryptoQuestSwap.sol\":7427:7486  NFTSwapped(msg.sender, address(cqtNFT), tokenId, ethAmount) */\n      mload(0x40)\n      tag_396\n      swap2\n      swap1\n      tag_79\n      jump\t// in\n    tag_396:\n      mload(0x40)\n      dup1\n      swap2\n      sub\n      swap1\n      log4\n        /* \"src/smartcontracts/CryptoQuestSwap.sol\":7045:7493  {... */\n      pop\n        /* \"src/smartcontracts/CryptoQuestSwap.sol\":6966:7493  function swapNFTForETH(uint256 tokenId, uint256 minETH) external whenNotPaused {... */\n      pop\n      pop\n      jump\t// out\n        /* \"src/smartcontracts/CryptoQuestSwap.sol\":1075:1107  IERC721Upgradeable public cqtNFT */\n    tag_163:\n      0x01\n      0x00\n      swap1\n      sload\n      swap1\n      0x0100\n      exp\n      swap1\n      div\n      0xffffffffffffffffffffffffffffffffffffffff\n      and\n      dup2\n      jump\t// out\n        /* \"src/smartcontracts/CryptoQuestSwap.sol\":5533:6313  function swapTokensForETH(address token, uint256 tokenAmount, uint256 minETH) external whenNotPaused {... */\n    tag_169:\n        /* \"@openzeppelin/contracts-upgradeable/utils/PausableUpgradeable.sol\":2316:2335  _requireNotPaused() */\n      tag_398\n        /* \"@openzeppelin/contracts-upgradeable/utils/PausableUpgradeable.sol\":2316:2333  _requireNotPaused */\n      tag_226\n        /* \"@openzeppelin/contracts-upgradeable/utils/PausableUpgradeable.sol\":2316:2335  _requireNotPaused() */\n      jump\t// in\n    tag_398:\n        /* \"src/smartcontracts/CryptoQuestSwap.sol\":5666:5667  0 */\n      0x00\n        /* \"src/smartcontracts/CryptoQuestSwap.sol\":5652:5663  tokenAmount */\n      dup3\n        /* \"src/smartcontracts/CryptoQuestSwap.sol\":5652:5667  tokenAmount > 0 */\n      gt\n        /* \"src/smartcontracts/CryptoQuestSwap.sol\":5644:5710  require(tokenAmount > 0, \"Token amount must be greater than zero\") */\n      tag_400\n      jumpi\n      mload(0x40)\n      0x08c379a000000000000000000000000000000000000000000000000000000000\n      dup2\n      mstore\n      0x04\n      add\n      tag_401\n      swap1\n      tag_290\n      jump\t// in\n    tag_401:\n      mload(0x40)\n      dup1\n      swap2\n      sub\n      swap1\n      revert\n    tag_400:\n        /* \"src/smartcontracts/CryptoQuestSwap.sol\":5720:5746  LiquidityPool storage pool */\n      0x00\n        /* \"src/smartcontracts/CryptoQuestSwap.sol\":5749:5763  liquidityPools */\n      0x02\n        /* \"src/smartcontracts/CryptoQuestSwap.sol\":5749:5770  liquidityPools[token] */\n      0x00\n        /* \"src/smartcontracts/CryptoQuestSwap.sol\":5764:5769  token */\n      dup6\n        /* \"src/smartcontracts/CryptoQuestSwap.sol\":5749:5770  liquidityPools[token] */\n      0xffffffffffffffffffffffffffffffffffffffff\n      and\n      0xffffffffffffffffffffffffffffffffffffffff\n      and\n      dup2\n      mstore\n      0x20\n      add\n      swap1\n      dup2\n      mstore\n      0x20\n      add\n      0x00\n      keccak256\n        /* \"src/smartcontracts/CryptoQuestSwap.sol\":5720:5770  LiquidityPool storage pool = liquidityPools[token] */\n      swap1\n      pop\n        /* \"src/smartcontracts/CryptoQuestSwap.sol\":5805:5806  0 */\n      0x00\n        /* \"src/smartcontracts/CryptoQuestSwap.sol\":5788:5792  pool */\n      dup2\n        /* \"src/smartcontracts/CryptoQuestSwap.sol\":5788:5802  pool.ethAmount */\n      0x01\n      add\n      sload\n        /* \"src/smartcontracts/CryptoQuestSwap.sol\":5788:5806  pool.ethAmount > 0 */\n      gt\n        /* \"src/smartcontracts/CryptoQuestSwap.sol\":5788:5830  pool.ethAmount > 0 && pool.tokenAmount > 0 */\n      dup1\n      iszero\n      tag_402\n      jumpi\n      pop\n        /* \"src/smartcontracts/CryptoQuestSwap.sol\":5829:5830  0 */\n      0x00\n        /* \"src/smartcontracts/CryptoQuestSwap.sol\":5810:5814  pool */\n      dup2\n        /* \"src/smartcontracts/CryptoQuestSwap.sol\":5810:5826  pool.tokenAmount */\n      0x00\n      add\n      sload\n        /* \"src/smartcontracts/CryptoQuestSwap.sol\":5810:5830  pool.tokenAmount > 0 */\n      gt\n        /* \"src/smartcontracts/CryptoQuestSwap.sol\":5788:5830  pool.ethAmount > 0 && pool.tokenAmount > 0 */\n    tag_402:\n        /* \"src/smartcontracts/CryptoQuestSwap.sol\":5780:5857  require(pool.ethAmount > 0 && pool.tokenAmount > 0, \"Insufficient liquidity\") */\n      tag_403\n      jumpi\n      mload(0x40)\n      0x08c379a000000000000000000000000000000000000000000000000000000000\n      dup2\n      mstore\n      0x04\n      add\n      tag_404\n      swap1\n      tag_269\n      jump\t// in\n    tag_404:\n      mload(0x40)\n      dup1\n      swap2\n      sub\n      swap1\n      revert\n    tag_403:\n        /* \"src/smartcontracts/CryptoQuestSwap.sol\":5868:5885  uint256 ethAmount */\n      0x00\n        /* \"src/smartcontracts/CryptoQuestSwap.sol\":5888:5950  getOutputAmount(tokenAmount, pool.tokenAmount, pool.ethAmount) */\n      tag_405\n        /* \"src/smartcontracts/CryptoQuestSwap.sol\":5904:5915  tokenAmount */\n      dup5\n        /* \"src/smartcontracts/CryptoQuestSwap.sol\":5917:5921  pool */\n      dup4\n        /* \"src/smartcontracts/CryptoQuestSwap.sol\":5917:5933  pool.tokenAmount */\n      0x00\n      add\n      sload\n        /* \"src/smartcontracts/CryptoQuestSwap.sol\":5935:5939  pool */\n      dup5\n        /* \"src/smartcontracts/CryptoQuestSwap.sol\":5935:5949  pool.ethAmount */\n      0x01\n      add\n      sload\n        /* \"src/smartcontracts/CryptoQuestSwap.sol\":5888:5903  getOutputAmount */\n      tag_242\n        /* \"src/smartcontracts/CryptoQuestSwap.sol\":5888:5950  getOutputAmount(tokenAmount, pool.tokenAmount, pool.ethAmount) */\n      jump\t// in\n    tag_405:\n        /* \"src/smartcontracts/CryptoQuestSwap.sol\":5868:5950  uint256 ethAmount = getOutputAmount(tokenAmount, pool.tokenAmount, pool.ethAmount) */\n      swap1\n      pop\n        /* \"src/smartcontracts/CryptoQuestSwap.sol\":5981:5987  minETH */\n      dup3\n        /* \"src/smartcontracts/CryptoQuestSwap.sol\":5968:5977  ethAmount */\n      dup2\n        /* \"src/smartcontracts/CryptoQuestSwap.sol\":5968:5987  ethAmount >= minETH */\n      lt\n      iszero\n        /* \"src/smartcontracts/CryptoQuestSwap.sol\":5960:6019  require(ethAmount >= minETH, \"Slippage tolerance exceeded\") */\n      tag_406\n      jumpi\n      mload(0x40)\n      0x08c379a000000000000000000000000000000000000000000000000000000000\n      dup2\n      mstore\n      0x04\n      add\n      tag_407\n      swap1\n      tag_245\n      jump\t// in\n    tag_407:\n      mload(0x40)\n      dup1\n      swap2\n      sub\n      swap1\n      revert\n    tag_406:\n        /* \"src/smartcontracts/CryptoQuestSwap.sol\":6050:6061  tokenAmount */\n      dup4\n        /* \"src/smartcontracts/CryptoQuestSwap.sol\":6030:6034  pool */\n      dup3\n        /* \"src/smartcontracts/CryptoQuestSwap.sol\":6030:6046  pool.tokenAmount */\n      0x00\n      add\n      0x00\n        /* \"src/smartcontracts/CryptoQuestSwap.sol\":6030:6061  pool.tokenAmount += tokenAmount */\n      dup3\n      dup3\n      sload\n      tag_408\n      swap2\n      swap1\n      tag_274\n      jump\t// in\n    tag_408:\n      swap3\n      pop\n      pop\n      dup2\n      swap1\n      sstore\n      pop\n        /* \"src/smartcontracts/CryptoQuestSwap.sol\":6089:6098  ethAmount */\n      dup1\n        /* \"src/smartcontracts/CryptoQuestSwap.sol\":6071:6075  pool */\n      dup3\n        /* \"src/smartcontracts/CryptoQuestSwap.sol\":6071:6085  pool.ethAmount */\n      0x01\n      add\n      0x00\n        /* \"src/smartcontracts/CryptoQuestSwap.sol\":6071:6098  pool.ethAmount -= ethAmount */\n      dup3\n      dup3\n      sload\n      tag_409\n      swap2\n      swap1\n      tag_241\n      jump\t// in\n    tag_409:\n      swap3\n      pop\n      pop\n      dup2\n      swap1\n      sstore\n      pop\n        /* \"src/smartcontracts/CryptoQuestSwap.sol\":6127:6132  token */\n      dup5\n        /* \"src/smartcontracts/CryptoQuestSwap.sol\":6109:6146  IERC20Upgradeable(token).transferFrom */\n      0xffffffffffffffffffffffffffffffffffffffff\n      and\n      0x23b872dd\n        /* \"src/smartcontracts/CryptoQuestSwap.sol\":6147:6157  msg.sender */\n      caller\n        /* \"src/smartcontracts/CryptoQuestSwap.sol\":6167:6171  this */\n      address\n        /* \"src/smartcontracts/CryptoQuestSwap.sol\":6174:6185  tokenAmount */\n      dup8\n        /* \"src/smartcontracts/CryptoQuestSwap.sol\":6109:6186  IERC20Upgradeable(token).transferFrom(msg.sender, address(this), tokenAmount) */\n      mload(0x40)\n      dup5\n      0xffffffff\n      and\n      0xe0\n      shl\n      dup2\n      mstore\n      0x04\n      add\n      tag_410\n      swap4\n      swap3\n      swap2\n      swap1\n      tag_191\n      jump\t// in\n    tag_410:\n      0x20\n      mload(0x40)\n      dup1\n      dup4\n      sub\n      dup2\n      0x00\n      dup8\n      gas\n      call\n      iszero\n      dup1\n      iszero\n      tag_412\n      jumpi\n      returndatasize\n      0x00\n      dup1\n      returndatacopy\n      revert(0x00, returndatasize)\n    tag_412:\n      pop\n      pop\n      pop\n      pop\n      mload(0x40)\n      returndatasize\n      not(0x1f)\n      0x1f\n      dup3\n      add\n      and\n      dup3\n      add\n      dup1\n      0x40\n      mstore\n      pop\n      dup2\n      add\n      swap1\n      tag_413\n      swap2\n      swap1\n      tag_203\n      jump\t// in\n    tag_413:\n      pop\n        /* \"src/smartcontracts/CryptoQuestSwap.sol\":6204:6214  msg.sender */\n      caller\n        /* \"src/smartcontracts/CryptoQuestSwap.sol\":6196:6224  payable(msg.sender).transfer */\n      0xffffffffffffffffffffffffffffffffffffffff\n      and\n        /* \"src/smartcontracts/CryptoQuestSwap.sol\":6196:6235  payable(msg.sender).transfer(ethAmount) */\n      0x08fc\n        /* \"src/smartcontracts/CryptoQuestSwap.sol\":6225:6234  ethAmount */\n      dup3\n        /* \"src/smartcontracts/CryptoQuestSwap.sol\":6196:6235  payable(msg.sender).transfer(ethAmount) */\n      swap1\n      dup2\n      iszero\n      mul\n      swap1\n      mload(0x40)\n      0x00\n      mload(0x40)\n      dup1\n      dup4\n      sub\n      dup2\n      dup6\n      dup9\n      dup9\n      call\n      swap4\n      pop\n      pop\n      pop\n      pop\n      iszero\n      dup1\n      iszero\n      tag_415\n      jumpi\n      returndatasize\n      0x00\n      dup1\n      returndatacopy\n      revert(0x00, returndatasize)\n    tag_415:\n      pop\n        /* \"src/smartcontracts/CryptoQuestSwap.sol\":6276:6281  token */\n      dup5\n        /* \"src/smartcontracts/CryptoQuestSwap.sol\":6251:6306  TokenSwapped(msg.sender, token, tokenAmount, ethAmount) */\n      0xffffffffffffffffffffffffffffffffffffffff\n      and\n        /* \"src/smartcontracts/CryptoQuestSwap.sol\":6264:6274  msg.sender */\n      caller\n        /* \"src/smartcontracts/CryptoQuestSwap.sol\":6251:6306  TokenSwapped(msg.sender, token, tokenAmount, ethAmount) */\n      0xffffffffffffffffffffffffffffffffffffffff\n      and\n      0x30b60ee4dc75c0fb04420331b13e9ad7f8ff8fc51eac9c97d36fb20ccbe09d66\n        /* \"src/smartcontracts/CryptoQuestSwap.sol\":6283:6294  tokenAmount */\n      dup7\n        /* \"src/smartcontracts/CryptoQuestSwap.sol\":6296:6305  ethAmount */\n      dup5\n        /* \"src/smartcontracts/CryptoQuestSwap.sol\":6251:6306  TokenSwapped(msg.sender, token, tokenAmount, ethAmount) */\n      mload(0x40)\n      tag_416\n      swap3\n      swap2\n      swap1\n      tag_133\n      jump\t// in\n    tag_416:\n      mload(0x40)\n      dup1\n      swap2\n      sub\n      swap1\n      log3\n        /* \"src/smartcontracts/CryptoQuestSwap.sol\":5634:6313  {... */\n      pop\n      pop\n        /* \"src/smartcontracts/CryptoQuestSwap.sol\":5533:6313  function swapTokensForETH(address token, uint256 tokenAmount, uint256 minETH) external whenNotPaused {... */\n      pop\n      pop\n      pop\n      jump\t// out\n        /* \"src/smartcontracts/CryptoQuestSwap.sol\":750:812  bytes32 public constant PAUSER_ROLE = keccak256(\"PAUSER_ROLE\") */\n    tag_172:\n        /* \"src/smartcontracts/CryptoQuestSwap.sol\":788:812  keccak256(\"PAUSER_ROLE\") */\n      0x65d7a28e3265b37a6474929f336521b332c1681b933f6cb9f3376673440d862a\n        /* \"src/smartcontracts/CryptoQuestSwap.sol\":750:812  bytes32 public constant PAUSER_ROLE = keccak256(\"PAUSER_ROLE\") */\n      dup2\n      jump\t// out\n        /* \"src/smartcontracts/CryptoQuestSwap.sol\":8248:8450  function withdrawETH(uint256 amount) external onlyRole(DEFAULT_ADMIN_ROLE) {... */\n    tag_177:\n        /* \"@openzeppelin/contracts-upgradeable/access/AccessControlUpgradeable.sol\":2362:2366  0x00 */\n      0x00\n        /* \"src/smartcontracts/CryptoQuestSwap.sol\":8303:8321  DEFAULT_ADMIN_ROLE */\n      dup1\n      shl\n        /* \"@openzeppelin/contracts-upgradeable/access/AccessControlUpgradeable.sol\":3191:3207  _checkRole(role) */\n      tag_418\n        /* \"@openzeppelin/contracts-upgradeable/access/AccessControlUpgradeable.sol\":3202:3206  role */\n      dup2\n        /* \"@openzeppelin/contracts-upgradeable/access/AccessControlUpgradeable.sol\":3191:3201  _checkRole */\n      tag_188\n        /* \"@openzeppelin/contracts-upgradeable/access/AccessControlUpgradeable.sol\":3191:3207  _checkRole(role) */\n      jump\t// in\n    tag_418:\n        /* \"src/smartcontracts/CryptoQuestSwap.sol\":8366:8372  amount */\n      dup2\n        /* \"src/smartcontracts/CryptoQuestSwap.sol\":8341:8362  address(this).balance */\n      selfbalance\n        /* \"src/smartcontracts/CryptoQuestSwap.sol\":8341:8372  address(this).balance >= amount */\n      lt\n      iszero\n        /* \"src/smartcontracts/CryptoQuestSwap.sol\":8333:8397  require(address(this).balance >= amount, \"Insufficient balance\") */\n      tag_420\n      jumpi\n      mload(0x40)\n      0x08c379a000000000000000000000000000000000000000000000000000000000\n      dup2\n      mstore\n      0x04\n      add\n      tag_421\n      swap1\n      tag_422\n      jump\t// in\n    tag_421:\n      mload(0x40)\n      dup1\n      swap2\n      sub\n      swap1\n      revert\n    tag_420:\n        /* \"src/smartcontracts/CryptoQuestSwap.sol\":8415:8425  msg.sender */\n      caller\n        /* \"src/smartcontracts/CryptoQuestSwap.sol\":8407:8435  payable(msg.sender).transfer */\n      0xffffffffffffffffffffffffffffffffffffffff\n      and\n        /* \"src/smartcontracts/CryptoQuestSwap.sol\":8407:8443  payable(msg.sender).transfer(amount) */\n      0x08fc\n        /* \"src/smartcontracts/CryptoQuestSwap.sol\":8436:8442  amount */\n      dup4\n        /* \"src/smartcontracts/CryptoQuestSwap.sol\":8407:8443  payable(msg.sender).transfer(amount) */\n      swap1\n      dup2\n      iszero\n      mul\n      swap1\n      mload(0x40)\n      0x00\n      mload(0x40)\n      dup1\n      dup4\n      sub\n      dup2\n      dup6\n      dup9\n      dup9\n      call\n      swap4\n      pop\n      pop\n      pop\n      pop\n      iszero\n      dup1\n      iszero\n      tag_424\n      jumpi\n      returndatasize\n      0x00\n      dup1\n      returndatacopy\n      revert(0x00, returndatasize)\n    tag_424:\n      pop\n        /* \"src/smartcontracts/CryptoQuestSwap.sol\":8248:8450  function withdrawETH(uint256 amount) external onlyRole(DEFAULT_ADMIN_ROLE) {... */\n      pop\n      pop\n      jump\t// out\n        /* \"src/smartcontracts/CryptoQuestSwap.sol\":818:884  bytes32 public constant UPGRADER_ROLE = keccak256(\"UPGRADER_ROLE\") */\n    tag_180:\n        /* \"src/smartcontracts/CryptoQuestSwap.sol\":858:884  keccak256(\"UPGRADER_ROLE\") */\n      0x189ab7a9244df0848122154315af71fe140f3db0fe014031783b0946b8c9d2e3\n        /* \"src/smartcontracts/CryptoQuestSwap.sol\":818:884  bytes32 public constant UPGRADER_ROLE = keccak256(\"UPGRADER_ROLE\") */\n      dup2\n      jump\t// out\n        /* \"@openzeppelin/contracts-upgradeable/utils/introspection/ERC165Upgradeable.sol\":1034:1180  function supportsInterface(bytes4 interfaceId) public view virtual returns (bool) {... */\n    tag_185:\n        /* \"@openzeppelin/contracts-upgradeable/utils/introspection/ERC165Upgradeable.sol\":1110:1114  bool */\n      0x00\n        /* \"@openzeppelin/contracts-upgradeable/utils/introspection/ERC165Upgradeable.sol\":1148:1173  type(IERC165).interfaceId */\n      0x01ffc9a700000000000000000000000000000000000000000000000000000000\n        /* \"@openzeppelin/contracts-upgradeable/utils/introspection/ERC165Upgradeable.sol\":1133:1173  interfaceId == type(IERC165).interfaceId */\n      not(0xffffffffffffffffffffffffffffffffffffffffffffffffffffffff)\n      and\n        /* \"@openzeppelin/contracts-upgradeable/utils/introspection/ERC165Upgradeable.sol\":1133:1144  interfaceId */\n      dup3\n        /* \"@openzeppelin/contracts-upgradeable/utils/introspection/ERC165Upgradeable.sol\":1133:1173  interfaceId == type(IERC165).interfaceId */\n      not(0xffffffffffffffffffffffffffffffffffffffffffffffffffffffff)\n      and\n      eq\n        /* \"@openzeppelin/contracts-upgradeable/utils/introspection/ERC165Upgradeable.sol\":1126:1173  return interfaceId == type(IERC165).interfaceId */\n      swap1\n      pop\n        /* \"@openzeppelin/contracts-upgradeable/utils/introspection/ERC165Upgradeable.sol\":1034:1180  function supportsInterface(bytes4 interfaceId) public view virtual returns (bool) {... */\n      swap2\n      swap1\n      pop\n      jump\t// out\n        /* \"@openzeppelin/contracts-upgradeable/access/AccessControlUpgradeable.sol\":4148:4251  function _checkRole(bytes32 role) internal view virtual {... */\n    tag_188:\n        /* \"@openzeppelin/contracts-upgradeable/access/AccessControlUpgradeable.sol\":4214:4244  _checkRole(role, _msgSender()) */\n      tag_427\n        /* \"@openzeppelin/contracts-upgradeable/access/AccessControlUpgradeable.sol\":4225:4229  role */\n      dup2\n        /* \"@openzeppelin/contracts-upgradeable/access/AccessControlUpgradeable.sol\":4231:4243  _msgSender() */\n      tag_428\n        /* \"@openzeppelin/contracts-upgradeable/access/AccessControlUpgradeable.sol\":4231:4241  _msgSender */\n      tag_215\n        /* \"@openzeppelin/contracts-upgradeable/access/AccessControlUpgradeable.sol\":4231:4243  _msgSender() */\n      jump\t// in\n    tag_428:\n        /* \"@openzeppelin/contracts-upgradeable/access/AccessControlUpgradeable.sol\":4214:4224  _checkRole */\n      tag_429\n        /* \"@openzeppelin/contracts-upgradeable/access/AccessControlUpgradeable.sol\":4214:4244  _checkRole(role, _msgSender()) */\n      jump\t// in\n    tag_427:\n        /* \"@openzeppelin/contracts-upgradeable/access/AccessControlUpgradeable.sol\":4148:4251  function _checkRole(bytes32 role) internal view virtual {... */\n      pop\n      jump\t// out\n        /* \"@openzeppelin/contracts-upgradeable/access/AccessControlUpgradeable.sol\":2787:2964  function _getAccessControlStorage() private pure returns (AccessControlStorage storage $) {... */\n    tag_206:\n        /* \"@openzeppelin/contracts-upgradeable/access/AccessControlUpgradeable.sol\":2845:2875  AccessControlStorage storage $ */\n      0x00\n        /* \"@openzeppelin/contracts-upgradeable/access/AccessControlUpgradeable.sol\":2920:2948  AccessControlStorageLocation */\n      0x02dd7bc7dec4dceedda775e58dd541e08a116c6c53815c0bd028192f7b626800\n        /* \"@openzeppelin/contracts-upgradeable/access/AccessControlUpgradeable.sol\":2910:2948  $.slot := AccessControlStorageLocation */\n      swap1\n      pop\n        /* \"@openzeppelin/contracts-upgradeable/access/AccessControlUpgradeable.sol\":2787:2964  function _getAccessControlStorage() private pure returns (AccessControlStorage storage $) {... */\n      swap1\n      jump\t// out\n        /* \"@openzeppelin/contracts-upgradeable/access/AccessControlUpgradeable.sol\":7270:7657  function _grantRole(bytes32 role, address account) internal virtual returns (bool) {... */\n    tag_212:\n        /* \"@openzeppelin/contracts-upgradeable/access/AccessControlUpgradeable.sol\":7347:7351  bool */\n      0x00\n        /* \"@openzeppelin/contracts-upgradeable/access/AccessControlUpgradeable.sol\":7363:7393  AccessControlStorage storage $ */\n      dup1\n        /* \"@openzeppelin/contracts-upgradeable/access/AccessControlUpgradeable.sol\":7396:7422  _getAccessControlStorage() */\n      tag_432\n        /* \"@openzeppelin/contracts-upgradeable/access/AccessControlUpgradeable.sol\":7396:7420  _getAccessControlStorage */\n      tag_206\n        /* \"@openzeppelin/contracts-upgradeable/access/AccessControlUpgradeable.sol\":7396:7422  _getAccessControlStorage() */\n      jump\t// in\n    tag_432:\n        /* \"@openzeppelin/contracts-upgradeable/access/AccessControlUpgradeable.sol\":7363:7422  AccessControlStorage storage $ = _getAccessControlStorage() */\n      swap1\n      pop\n        /* \"@openzeppelin/contracts-upgradeable/access/AccessControlUpgradeable.sol\":7437:7459  hasRole(role, account) */\n      tag_433\n        /* \"@openzeppelin/contracts-upgradeable/access/AccessControlUpgradeable.sol\":7445:7449  role */\n      dup5\n        /* \"@openzeppelin/contracts-upgradeable/access/AccessControlUpgradeable.sol\":7451:7458  account */\n      dup5\n        /* \"@openzeppelin/contracts-upgradeable/access/AccessControlUpgradeable.sol\":7437:7444  hasRole */\n      tag_126\n        /* \"@openzeppelin/contracts-upgradeable/access/AccessControlUpgradeable.sol\":7437:7459  hasRole(role, account) */\n      jump\t// in\n    tag_433:\n        /* \"@openzeppelin/contracts-upgradeable/access/AccessControlUpgradeable.sol\":7432:7651  if (!hasRole(role, account)) {... */\n      tag_434\n      jumpi\n        /* \"@openzeppelin/contracts-upgradeable/access/AccessControlUpgradeable.sol\":7509:7513  true */\n      0x01\n        /* \"@openzeppelin/contracts-upgradeable/access/AccessControlUpgradeable.sol\":7475:7476  $ */\n      dup2\n        /* \"@openzeppelin/contracts-upgradeable/access/AccessControlUpgradeable.sol\":7475:7483  $._roles */\n      0x00\n      add\n        /* \"@openzeppelin/contracts-upgradeable/access/AccessControlUpgradeable.sol\":7475:7489  $._roles[role] */\n      0x00\n        /* \"@openzeppelin/contracts-upgradeable/access/AccessControlUpgradeable.sol\":7484:7488  role */\n      dup7\n        /* \"@openzeppelin/contracts-upgradeable/access/AccessControlUpgradeable.sol\":7475:7489  $._roles[role] */\n      dup2\n      mstore\n      0x20\n      add\n      swap1\n      dup2\n      mstore\n      0x20\n      add\n      0x00\n      keccak256\n        /* \"@openzeppelin/contracts-upgradeable/access/AccessControlUpgradeable.sol\":7475:7497  $._roles[role].hasRole */\n      0x00\n      add\n        /* \"@openzeppelin/contracts-upgradeable/access/AccessControlUpgradeable.sol\":7475:7506  $._roles[role].hasRole[account] */\n      0x00\n        /* \"@openzeppelin/contracts-upgradeable/access/AccessControlUpgradeable.sol\":7498:7505  account */\n      dup6\n        /* \"@openzeppelin/contracts-upgradeable/access/AccessControlUpgradeable.sol\":7475:7506  $._roles[role].hasRole[account] */\n      0xffffffffffffffffffffffffffffffffffffffff\n      and\n      0xffffffffffffffffffffffffffffffffffffffff\n      and\n      dup2\n      mstore\n      0x20\n      add\n      swap1\n      dup2\n      mstore\n      0x20\n      add\n      0x00\n      keccak256\n      0x00\n        /* \"@openzeppelin/contracts-upgradeable/access/AccessControlUpgradeable.sol\":7475:7513  $._roles[role].hasRole[account] = true */\n      0x0100\n      exp\n      dup2\n      sload\n      dup2\n      0xff\n      mul\n      not\n      and\n      swap1\n      dup4\n      iszero\n      iszero\n      mul\n      or\n      swap1\n      sstore\n      pop\n        /* \"@openzeppelin/contracts-upgradeable/access/AccessControlUpgradeable.sol\":7559:7571  _msgSender() */\n      tag_435\n        /* \"@openzeppelin/contracts-upgradeable/access/AccessControlUpgradeable.sol\":7559:7569  _msgSender */\n      tag_215\n        /* \"@openzeppelin/contracts-upgradeable/access/AccessControlUpgradeable.sol\":7559:7571  _msgSender() */\n      jump\t// in\n    tag_435:\n        /* \"@openzeppelin/contracts-upgradeable/access/AccessControlUpgradeable.sol\":7532:7572  RoleGranted(role, account, _msgSender()) */\n      0xffffffffffffffffffffffffffffffffffffffff\n      and\n        /* \"@openzeppelin/contracts-upgradeable/access/AccessControlUpgradeable.sol\":7550:7557  account */\n      dup4\n        /* \"@openzeppelin/contracts-upgradeable/access/AccessControlUpgradeable.sol\":7532:7572  RoleGranted(role, account, _msgSender()) */\n      0xffffffffffffffffffffffffffffffffffffffff\n      and\n        /* \"@openzeppelin/contracts-upgradeable/access/AccessControlUpgradeable.sol\":7544:7548  role */\n      dup6\n        /* \"@openzeppelin/contracts-upgradeable/access/AccessControlUpgradeable.sol\":7532:7572  RoleGranted(role, account, _msgSender()) */\n      0x2f8788117e7eff1d82e926ec794901d17c78024a50270940304540a733656f0d\n      mload(0x40)\n      mload(0x40)\n      dup1\n      swap2\n      sub\n      swap1\n      log4\n        /* \"@openzeppelin/contracts-upgradeable/access/AccessControlUpgradeable.sol\":7593:7597  true */\n      0x01\n        /* \"@openzeppelin/contracts-upgradeable/access/AccessControlUpgradeable.sol\":7586:7597  return true */\n      swap2\n      pop\n      pop\n      jump(tag_431)\n        /* \"@openzeppelin/contracts-upgradeable/access/AccessControlUpgradeable.sol\":7432:7651  if (!hasRole(role, account)) {... */\n    tag_434:\n        /* \"@openzeppelin/contracts-upgradeable/access/AccessControlUpgradeable.sol\":7635:7640  false */\n      0x00\n        /* \"@openzeppelin/contracts-upgradeable/access/AccessControlUpgradeable.sol\":7628:7640  return false */\n      swap2\n      pop\n      pop\n        /* \"@openzeppelin/contracts-upgradeable/access/AccessControlUpgradeable.sol\":7270:7657  function _grantRole(bytes32 role, address account) internal virtual returns (bool) {... */\n    tag_431:\n      swap3\n      swap2\n      pop\n      pop\n      jump\t// out\n        /* \"@openzeppelin/contracts-upgradeable/utils/ContextUpgradeable.sol\":887:983  function _msgSender() internal view virtual returns (address) {... */\n    tag_215:\n        /* \"@openzeppelin/contracts-upgradeable/utils/ContextUpgradeable.sol\":940:947  address */\n      0x00\n        /* \"@openzeppelin/contracts-upgradeable/utils/ContextUpgradeable.sol\":966:976  msg.sender */\n      caller\n        /* \"@openzeppelin/contracts-upgradeable/utils/ContextUpgradeable.sol\":959:976  return msg.sender */\n      swap1\n      pop\n        /* \"@openzeppelin/contracts-upgradeable/utils/ContextUpgradeable.sol\":887:983  function _msgSender() internal view virtual returns (address) {... */\n      swap1\n      jump\t// out\n        /* \"@openzeppelin/contracts-upgradeable/access/AccessControlUpgradeable.sol\":7892:8280  function _revokeRole(bytes32 role, address account) internal virtual returns (bool) {... */\n    tag_218:\n        /* \"@openzeppelin/contracts-upgradeable/access/AccessControlUpgradeable.sol\":7970:7974  bool */\n      0x00\n        /* \"@openzeppelin/contracts-upgradeable/access/AccessControlUpgradeable.sol\":7986:8016  AccessControlStorage storage $ */\n      dup1\n        /* \"@openzeppelin/contracts-upgradeable/access/AccessControlUpgradeable.sol\":8019:8045  _getAccessControlStorage() */\n      tag_439\n        /* \"@openzeppelin/contracts-upgradeable/access/AccessControlUpgradeable.sol\":8019:8043  _getAccessControlStorage */\n      tag_206\n        /* \"@openzeppelin/contracts-upgradeable/access/AccessControlUpgradeable.sol\":8019:8045  _getAccessControlStorage() */\n      jump\t// in\n    tag_439:\n        /* \"@openzeppelin/contracts-upgradeable/access/AccessControlUpgradeable.sol\":7986:8045  AccessControlStorage storage $ = _getAccessControlStorage() */\n      swap1\n      pop\n        /* \"@openzeppelin/contracts-upgradeable/access/AccessControlUpgradeable.sol\":8059:8081  hasRole(role, account) */\n      tag_440\n        /* \"@openzeppelin/contracts-upgradeable/access/AccessControlUpgradeable.sol\":8067:8071  role */\n      dup5\n        /* \"@openzeppelin/contracts-upgradeable/access/AccessControlUpgradeable.sol\":8073:8080  account */\n      dup5\n        /* \"@openzeppelin/contracts-upgradeable/access/AccessControlUpgradeable.sol\":8059:8066  hasRole */\n      tag_126\n        /* \"@openzeppelin/contracts-upgradeable/access/AccessControlUpgradeable.sol\":8059:8081  hasRole(role, account) */\n      jump\t// in\n    tag_440:\n        /* \"@openzeppelin/contracts-upgradeable/access/AccessControlUpgradeable.sol\":8055:8274  if (hasRole(role, account)) {... */\n      iszero\n      tag_441\n      jumpi\n        /* \"@openzeppelin/contracts-upgradeable/access/AccessControlUpgradeable.sol\":8131:8136  false */\n      0x00\n        /* \"@openzeppelin/contracts-upgradeable/access/AccessControlUpgradeable.sol\":8097:8098  $ */\n      dup2\n        /* \"@openzeppelin/contracts-upgradeable/access/AccessControlUpgradeable.sol\":8097:8105  $._roles */\n      0x00\n      add\n        /* \"@openzeppelin/contracts-upgradeable/access/AccessControlUpgradeable.sol\":8097:8111  $._roles[role] */\n      0x00\n        /* \"@openzeppelin/contracts-upgradeable/access/AccessControlUpgradeable.sol\":8106:8110  role */\n      dup7\n        /* \"@openzeppelin/contracts-upgradeable/access/AccessControlUpgradeable.sol\":8097:8111  $._roles[role] */\n      dup2\n      mstore\n      0x20\n      add\n      swap1\n      dup2\n      mstore\n      0x20\n      add\n      0x00\n      keccak256\n        /* \"@openzeppelin/contracts-upgradeable/access/AccessControlUpgradeable.sol\":8097:8119  $._roles[role].hasRole */\n      0x00\n      add\n        /* \"@openzeppelin/contracts-upgradeable/access/AccessControlUpgradeable.sol\":8097:8128  $._roles[role].hasRole[account] */\n      0x00\n        /* \"@openzeppelin/contracts-upgradeable/access/AccessControlUpgradeable.sol\":8120:8127  account */\n      dup6\n        /* \"@openzeppelin/contracts-upgradeable/access/AccessControlUpgradeable.sol\":8097:8128  $._roles[role].hasRole[account] */\n      0xffffffffffffffffffffffffffffffffffffffff\n      and\n      0xffffffffffffffffffffffffffffffffffffffff\n      and\n      dup2\n      mstore\n      0x20\n      add\n      swap1\n      dup2\n      mstore\n      0x20\n      add\n      0x00\n      keccak256\n      0x00\n        /* \"@openzeppelin/contracts-upgradeable/access/AccessControlUpgradeable.sol\":8097:8136  $._roles[role].hasRole[account] = false */\n      0x0100\n      exp\n      dup2\n      sload\n      dup2\n      0xff\n      mul\n      not\n      and\n      swap1\n      dup4\n      iszero\n      iszero\n      mul\n      or\n      swap1\n      sstore\n      pop\n        /* \"@openzeppelin/contracts-upgradeable/access/AccessControlUpgradeable.sol\":8182:8194  _msgSender() */\n      tag_442\n        /* \"@openzeppelin/contracts-upgradeable/access/AccessControlUpgradeable.sol\":8182:8192  _msgSender */\n      tag_215\n        /* \"@openzeppelin/contracts-upgradeable/access/AccessControlUpgradeable.sol\":8182:8194  _msgSender() */\n      jump\t// in\n    tag_442:\n        /* \"@openzeppelin/contracts-upgradeable/access/AccessControlUpgradeable.sol\":8155:8195  RoleRevoked(role, account, _msgSender()) */\n      0xffffffffffffffffffffffffffffffffffffffff\n      and\n        /* \"@openzeppelin/contracts-upgradeable/access/AccessControlUpgradeable.sol\":8173:8180  account */\n      dup4\n        /* \"@openzeppelin/contracts-upgradeable/access/AccessControlUpgradeable.sol\":8155:8195  RoleRevoked(role, account, _msgSender()) */\n      0xffffffffffffffffffffffffffffffffffffffff\n      and\n        /* \"@openzeppelin/contracts-upgradeable/access/AccessControlUpgradeable.sol\":8167:8171  role */\n      dup6\n        /* \"@openzeppelin/contracts-upgradeable/access/AccessControlUpgradeable.sol\":8155:8195  RoleRevoked(role, account, _msgSender()) */\n      0xf6391f5c32d9c69d2a47ea670b442974b53935d1edc7fd64eb21e047a839171b\n      mload(0x40)\n      mload(0x40)\n      dup1\n      swap2\n      sub\n      swap1\n      log4\n        /* \"@openzeppelin/contracts-upgradeable/access/AccessControlUpgradeable.sol\":8216:8220  true */\n      0x01\n        /* \"@openzeppelin/contracts-upgradeable/access/AccessControlUpgradeable.sol\":8209:8220  return true */\n      swap2\n      pop\n      pop\n      jump(tag_438)\n        /* \"@openzeppelin/contracts-upgradeable/access/AccessControlUpgradeable.sol\":8055:8274  if (hasRole(role, account)) {... */\n    tag_441:\n        /* \"@openzeppelin/contracts-upgradeable/access/AccessControlUpgradeable.sol\":8258:8263  false */\n      0x00\n        /* \"@openzeppelin/contracts-upgradeable/access/AccessControlUpgradeable.sol\":8251:8263  return false */\n      swap2\n      pop\n      pop\n        /* \"@openzeppelin/contracts-upgradeable/access/AccessControlUpgradeable.sol\":7892:8280  function _revokeRole(bytes32 role, address account) internal virtual returns (bool) {... */\n    tag_438:\n      swap3\n      swap2\n      pop\n      pop\n      jump\t// out\n        /* \"@openzeppelin/contracts-upgradeable/utils/PausableUpgradeable.sol\":3674:3852  function _unpause() internal virtual whenPaused {... */\n    tag_223:\n        /* \"@openzeppelin/contracts-upgradeable/utils/PausableUpgradeable.sol\":2563:2579  _requirePaused() */\n      tag_445\n        /* \"@openzeppelin/contracts-upgradeable/utils/PausableUpgradeable.sol\":2563:2577  _requirePaused */\n      tag_446\n        /* \"@openzeppelin/contracts-upgradeable/utils/PausableUpgradeable.sol\":2563:2579  _requirePaused() */\n      jump\t// in\n    tag_445:\n        /* \"@openzeppelin/contracts-upgradeable/utils/PausableUpgradeable.sol\":3732:3757  PausableStorage storage $ */\n      0x00\n        /* \"@openzeppelin/contracts-upgradeable/utils/PausableUpgradeable.sol\":3760:3781  _getPausableStorage() */\n      tag_448\n        /* \"@openzeppelin/contracts-upgradeable/utils/PausableUpgradeable.sol\":3760:3779  _getPausableStorage */\n      tag_319\n        /* \"@openzeppelin/contracts-upgradeable/utils/PausableUpgradeable.sol\":3760:3781  _getPausableStorage() */\n      jump\t// in\n    tag_448:\n        /* \"@openzeppelin/contracts-upgradeable/utils/PausableUpgradeable.sol\":3732:3781  PausableStorage storage $ = _getPausableStorage() */\n      swap1\n      pop\n        /* \"@openzeppelin/contracts-upgradeable/utils/PausableUpgradeable.sol\":3803:3808  false */\n      0x00\n        /* \"@openzeppelin/contracts-upgradeable/utils/PausableUpgradeable.sol\":3791:3792  $ */\n      dup2\n        /* \"@openzeppelin/contracts-upgradeable/utils/PausableUpgradeable.sol\":3791:3800  $._paused */\n      0x00\n      add\n      0x00\n        /* \"@openzeppelin/contracts-upgradeable/utils/PausableUpgradeable.sol\":3791:3808  $._paused = false */\n      0x0100\n      exp\n      dup2\n      sload\n      dup2\n      0xff\n      mul\n      not\n      and\n      swap1\n      dup4\n      iszero\n      iszero\n      mul\n      or\n      swap1\n      sstore\n      pop\n        /* \"@openzeppelin/contracts-upgradeable/utils/PausableUpgradeable.sol\":3823:3845  Unpaused(_msgSender()) */\n      0x5db9ee0a495bf2e6ff9c91a7834c1ba4fdd244a5e8aa4e537bd38aeae4b073aa\n        /* \"@openzeppelin/contracts-upgradeable/utils/PausableUpgradeable.sol\":3832:3844  _msgSender() */\n      tag_449\n        /* \"@openzeppelin/contracts-upgradeable/utils/PausableUpgradeable.sol\":3832:3842  _msgSender */\n      tag_215\n        /* \"@openzeppelin/contracts-upgradeable/utils/PausableUpgradeable.sol\":3832:3844  _msgSender() */\n      jump\t// in\n    tag_449:\n        /* \"@openzeppelin/contracts-upgradeable/utils/PausableUpgradeable.sol\":3823:3845  Unpaused(_msgSender()) */\n      mload(0x40)\n      tag_450\n      swap2\n      swap1\n      tag_451\n      jump\t// in\n    tag_450:\n      mload(0x40)\n      dup1\n      swap2\n      sub\n      swap1\n      log1\n        /* \"@openzeppelin/contracts-upgradeable/utils/PausableUpgradeable.sol\":3722:3852  {... */\n      pop\n        /* \"@openzeppelin/contracts-upgradeable/utils/PausableUpgradeable.sol\":3674:3852  function _unpause() internal virtual whenPaused {... */\n      jump\t// out\n        /* \"@openzeppelin/contracts-upgradeable/utils/PausableUpgradeable.sol\":2905:3033  function _requireNotPaused() internal view virtual {... */\n    tag_226:\n        /* \"@openzeppelin/contracts-upgradeable/utils/PausableUpgradeable.sol\":2970:2978  paused() */\n      tag_453\n        /* \"@openzeppelin/contracts-upgradeable/utils/PausableUpgradeable.sol\":2970:2976  paused */\n      tag_118\n        /* \"@openzeppelin/contracts-upgradeable/utils/PausableUpgradeable.sol\":2970:2978  paused() */\n      jump\t// in\n    tag_453:\n        /* \"@openzeppelin/contracts-upgradeable/utils/PausableUpgradeable.sol\":2966:3027  if (paused()) {... */\n      iszero\n      tag_454\n      jumpi\n        /* \"@openzeppelin/contracts-upgradeable/utils/PausableUpgradeable.sol\":3001:3016  EnforcedPause() */\n      mload(0x40)\n      0xd93c066500000000000000000000000000000000000000000000000000000000\n      dup2\n      mstore\n      0x04\n      add\n      mload(0x40)\n      dup1\n      swap2\n      sub\n      swap1\n      revert\n        /* \"@openzeppelin/contracts-upgradeable/utils/PausableUpgradeable.sol\":2966:3027  if (paused()) {... */\n    tag_454:\n        /* \"@openzeppelin/contracts-upgradeable/utils/PausableUpgradeable.sol\":2905:3033  function _requireNotPaused() internal view virtual {... */\n      jump\t// out\n        /* \"src/smartcontracts/CryptoQuestSwap.sol\":7499:7877  function getOutputAmount(uint256 inputAmount, uint256 inputReserve, uint256 outputReserve) internal pure returns (uint256) {... */\n    tag_242:\n        /* \"src/smartcontracts/CryptoQuestSwap.sol\":7613:7620  uint256 */\n      0x00\n        /* \"src/smartcontracts/CryptoQuestSwap.sol\":7632:7658  uint256 inputAmountWithFee */\n      dup1\n        /* \"src/smartcontracts/CryptoQuestSwap.sol\":1016:1017  3 */\n      0x03\n        /* \"src/smartcontracts/CryptoQuestSwap.sol\":7676:7680  1000 */\n      0x03e8\n        /* \"src/smartcontracts/CryptoQuestSwap.sol\":7676:7691  1000 - FEE_RATE */\n      tag_456\n      swap2\n      swap1\n      tag_241\n      jump\t// in\n    tag_456:\n        /* \"src/smartcontracts/CryptoQuestSwap.sol\":7661:7672  inputAmount */\n      dup6\n        /* \"src/smartcontracts/CryptoQuestSwap.sol\":7661:7692  inputAmount * (1000 - FEE_RATE) */\n      tag_457\n      swap2\n      swap1\n      tag_304\n      jump\t// in\n    tag_457:\n        /* \"src/smartcontracts/CryptoQuestSwap.sol\":7632:7692  uint256 inputAmountWithFee = inputAmount * (1000 - FEE_RATE) */\n      swap1\n      pop\n        /* \"src/smartcontracts/CryptoQuestSwap.sol\":7702:7719  uint256 numerator */\n      0x00\n        /* \"src/smartcontracts/CryptoQuestSwap.sol\":7743:7756  outputReserve */\n      dup4\n        /* \"src/smartcontracts/CryptoQuestSwap.sol\":7722:7740  inputAmountWithFee */\n      dup3\n        /* \"src/smartcontracts/CryptoQuestSwap.sol\":7722:7756  inputAmountWithFee * outputReserve */\n      tag_458\n      swap2\n      swap1\n      tag_304\n      jump\t// in\n    tag_458:\n        /* \"src/smartcontracts/CryptoQuestSwap.sol\":7702:7756  uint256 numerator = inputAmountWithFee * outputReserve */\n      swap1\n      pop\n        /* \"src/smartcontracts/CryptoQuestSwap.sol\":7766:7785  uint256 denominator */\n      0x00\n        /* \"src/smartcontracts/CryptoQuestSwap.sol\":7812:7830  inputAmountWithFee */\n      dup3\n        /* \"src/smartcontracts/CryptoQuestSwap.sol\":7804:7808  1000 */\n      0x03e8\n        /* \"src/smartcontracts/CryptoQuestSwap.sol\":7789:7801  inputReserve */\n      dup8\n        /* \"src/smartcontracts/CryptoQuestSwap.sol\":7789:7808  inputReserve * 1000 */\n      tag_459\n      swap2\n      swap1\n      tag_304\n      jump\t// in\n    tag_459:\n        /* \"src/smartcontracts/CryptoQuestSwap.sol\":7788:7830  (inputReserve * 1000) + inputAmountWithFee */\n      tag_460\n      swap2\n      swap1\n      tag_274\n      jump\t// in\n    tag_460:\n        /* \"src/smartcontracts/CryptoQuestSwap.sol\":7766:7830  uint256 denominator = (inputReserve * 1000) + inputAmountWithFee */\n      swap1\n      pop\n        /* \"src/smartcontracts/CryptoQuestSwap.sol\":7859:7870  denominator */\n      dup1\n        /* \"src/smartcontracts/CryptoQuestSwap.sol\":7847:7856  numerator */\n      dup3\n        /* \"src/smartcontracts/CryptoQuestSwap.sol\":7847:7870  numerator / denominator */\n      tag_461\n      swap2\n      swap1\n      tag_306\n      jump\t// in\n    tag_461:\n        /* \"src/smartcontracts/CryptoQuestSwap.sol\":7840:7870  return numerator / denominator */\n      swap4\n      pop\n      pop\n      pop\n      pop\n        /* \"src/smartcontracts/CryptoQuestSwap.sol\":7499:7877  function getOutputAmount(uint256 inputAmount, uint256 inputReserve, uint256 outputReserve) internal pure returns (uint256) {... */\n      swap4\n      swap3\n      pop\n      pop\n      pop\n      jump\t// out\n        /* \"@openzeppelin/contracts-upgradeable/proxy/utils/UUPSUpgradeable.sol\":4599:4911  function _checkProxy() internal view virtual {... */\n    tag_255:\n        /* \"@openzeppelin/contracts-upgradeable/proxy/utils/UUPSUpgradeable.sol\":4688:4694  __self */\n      immutable(\"0x3b04ad91523c4dcf551e081621e633b9099d51bf9c5461e58c3bc7354a578b27\")\n        /* \"@openzeppelin/contracts-upgradeable/proxy/utils/UUPSUpgradeable.sol\":4671:4694  address(this) == __self */\n      0xffffffffffffffffffffffffffffffffffffffff\n      and\n        /* \"@openzeppelin/contracts-upgradeable/proxy/utils/UUPSUpgradeable.sol\":4679:4683  this */\n      address\n        /* \"@openzeppelin/contracts-upgradeable/proxy/utils/UUPSUpgradeable.sol\":4671:4694  address(this) == __self */\n      0xffffffffffffffffffffffffffffffffffffffff\n      and\n      eq\n        /* \"@openzeppelin/contracts-upgradeable/proxy/utils/UUPSUpgradeable.sol\":4671:4791  address(this) == __self || // Must be called through delegatecall... */\n      dup1\n      tag_463\n      jumpi\n      pop\n        /* \"@openzeppelin/contracts-upgradeable/proxy/utils/UUPSUpgradeable.sol\":4785:4791  __self */\n      immutable(\"0x3b04ad91523c4dcf551e081621e633b9099d51bf9c5461e58c3bc7354a578b27\")\n        /* \"@openzeppelin/contracts-upgradeable/proxy/utils/UUPSUpgradeable.sol\":4749:4791  ERC1967Utils.getImplementation() != __self */\n      0xffffffffffffffffffffffffffffffffffffffff\n      and\n        /* \"@openzeppelin/contracts-upgradeable/proxy/utils/UUPSUpgradeable.sol\":4749:4781  ERC1967Utils.getImplementation() */\n      tag_464\n        /* \"@openzeppelin/contracts-upgradeable/proxy/utils/UUPSUpgradeable.sol\":4749:4779  ERC1967Utils.getImplementation */\n      tag_465\n        /* \"@openzeppelin/contracts-upgradeable/proxy/utils/UUPSUpgradeable.sol\":4749:4781  ERC1967Utils.getImplementation() */\n      jump\t// in\n    tag_464:\n        /* \"@openzeppelin/contracts-upgradeable/proxy/utils/UUPSUpgradeable.sol\":4749:4791  ERC1967Utils.getImplementation() != __self */\n      0xffffffffffffffffffffffffffffffffffffffff\n      and\n      eq\n      iszero\n        /* \"@openzeppelin/contracts-upgradeable/proxy/utils/UUPSUpgradeable.sol\":4671:4791  address(this) == __self || // Must be called through delegatecall... */\n    tag_463:\n        /* \"@openzeppelin/contracts-upgradeable/proxy/utils/UUPSUpgradeable.sol\":4654:4905  if (... */\n      iszero\n      tag_466\n      jumpi\n        /* \"@openzeppelin/contracts-upgradeable/proxy/utils/UUPSUpgradeable.sol\":4865:4894  UUPSUnauthorizedCallContext() */\n      mload(0x40)\n      0xe07c8dba00000000000000000000000000000000000000000000000000000000\n      dup2\n      mstore\n      0x04\n      add\n      mload(0x40)\n      dup1\n      swap2\n      sub\n      swap1\n      revert\n        /* \"@openzeppelin/contracts-upgradeable/proxy/utils/UUPSUpgradeable.sol\":4654:4905  if (... */\n    tag_466:\n        /* \"@openzeppelin/contracts-upgradeable/proxy/utils/UUPSUpgradeable.sol\":4599:4911  function _checkProxy() internal view virtual {... */\n      jump\t// out\n        /* \"src/smartcontracts/CryptoQuestSwap.sol\":7883:7981  function _authorizeUpgrade(address newImplementation) internal onlyRole(UPGRADER_ROLE) override {} */\n    tag_258:\n        /* \"src/smartcontracts/CryptoQuestSwap.sol\":858:884  keccak256(\"UPGRADER_ROLE\") */\n      0x189ab7a9244df0848122154315af71fe140f3db0fe014031783b0946b8c9d2e3\n        /* \"@openzeppelin/contracts-upgradeable/access/AccessControlUpgradeable.sol\":3191:3207  _checkRole(role) */\n      tag_468\n        /* \"@openzeppelin/contracts-upgradeable/access/AccessControlUpgradeable.sol\":3202:3206  role */\n      dup2\n        /* \"@openzeppelin/contracts-upgradeable/access/AccessControlUpgradeable.sol\":3191:3201  _checkRole */\n      tag_188\n        /* \"@openzeppelin/contracts-upgradeable/access/AccessControlUpgradeable.sol\":3191:3207  _checkRole(role) */\n      jump\t// in\n    tag_468:\n        /* \"src/smartcontracts/CryptoQuestSwap.sol\":7883:7981  function _authorizeUpgrade(address newImplementation) internal onlyRole(UPGRADER_ROLE) override {} */\n      pop\n      pop\n      jump\t// out\n        /* \"@openzeppelin/contracts-upgradeable/proxy/utils/UUPSUpgradeable.sol\":6052:6590  function _upgradeToAndCallUUPS(address newImplementation, bytes memory data) private {... */\n    tag_260:\n        /* \"@openzeppelin/contracts-upgradeable/proxy/utils/UUPSUpgradeable.sol\":6169:6186  newImplementation */\n      dup2\n        /* \"@openzeppelin/contracts-upgradeable/proxy/utils/UUPSUpgradeable.sol\":6151:6201  IERC1822Proxiable(newImplementation).proxiableUUID */\n      0xffffffffffffffffffffffffffffffffffffffff\n      and\n      0x52d1902d\n        /* \"@openzeppelin/contracts-upgradeable/proxy/utils/UUPSUpgradeable.sol\":6151:6203  IERC1822Proxiable(newImplementation).proxiableUUID() */\n      mload(0x40)\n      dup2\n      0xffffffff\n      and\n      0xe0\n      shl\n      dup2\n      mstore\n      0x04\n      add\n      0x20\n      mload(0x40)\n      dup1\n      dup4\n      sub\n      dup2\n      dup7\n      gas\n      staticcall\n      swap3\n      pop\n      pop\n      pop\n      dup1\n      iszero\n      tag_471\n      jumpi\n      pop\n      mload(0x40)\n      returndatasize\n      not(0x1f)\n      0x1f\n      dup3\n      add\n      and\n      dup3\n      add\n      dup1\n      0x40\n      mstore\n      pop\n      dup2\n      add\n      swap1\n      tag_472\n      swap2\n      swap1\n      tag_473\n      jump\t// in\n    tag_472:\n      0x01\n    tag_471:\n        /* \"@openzeppelin/contracts-upgradeable/proxy/utils/UUPSUpgradeable.sol\":6147:6584  try IERC1822Proxiable(newImplementation).proxiableUUID() returns (bytes32 slot) {... */\n      tag_474\n      jumpi\n        /* \"@openzeppelin/contracts-upgradeable/proxy/utils/UUPSUpgradeable.sol\":6555:6572  newImplementation */\n      dup2\n        /* \"@openzeppelin/contracts-upgradeable/proxy/utils/UUPSUpgradeable.sol\":6513:6573  ERC1967Utils.ERC1967InvalidImplementation(newImplementation) */\n      mload(0x40)\n      0x4c9c8ce300000000000000000000000000000000000000000000000000000000\n      dup2\n      mstore\n      0x04\n      add\n      tag_478\n      swap2\n      swap1\n      tag_451\n      jump\t// in\n    tag_478:\n      mload(0x40)\n      dup1\n      swap2\n      sub\n      swap1\n      revert\n        /* \"@openzeppelin/contracts-upgradeable/proxy/utils/UUPSUpgradeable.sol\":6147:6584  try IERC1822Proxiable(newImplementation).proxiableUUID() returns (bytes32 slot) {... */\n    tag_474:\n        /* \"@openzeppelin/contracts/proxy/ERC1967/ERC1967Utils.sol\":1327:1393  0x360894a13ba1a3210667c828492db98dca3e2076cc3735a920a3ca505d382bbc */\n      0x360894a13ba1a3210667c828492db98dca3e2076cc3735a920a3ca505d382bbc\n        /* \"@openzeppelin/contracts-upgradeable/proxy/utils/UUPSUpgradeable.sol\":6253:6285  ERC1967Utils.IMPLEMENTATION_SLOT */\n      0x00\n      shl\n        /* \"@openzeppelin/contracts-upgradeable/proxy/utils/UUPSUpgradeable.sol\":6245:6249  slot */\n      dup2\n        /* \"@openzeppelin/contracts-upgradeable/proxy/utils/UUPSUpgradeable.sol\":6245:6285  slot != ERC1967Utils.IMPLEMENTATION_SLOT */\n      eq\n        /* \"@openzeppelin/contracts-upgradeable/proxy/utils/UUPSUpgradeable.sol\":6241:6361  if (slot != ERC1967Utils.IMPLEMENTATION_SLOT) {... */\n      tag_480\n      jumpi\n        /* \"@openzeppelin/contracts-upgradeable/proxy/utils/UUPSUpgradeable.sol\":6341:6345  slot */\n      dup1\n        /* \"@openzeppelin/contracts-upgradeable/proxy/utils/UUPSUpgradeable.sol\":6312:6346  UUPSUnsupportedProxiableUUID(slot) */\n      mload(0x40)\n      0xaa1d49a400000000000000000000000000000000000000000000000000000000\n      dup2\n      mstore\n      0x04\n      add\n      tag_481\n      swap2\n      swap1\n      tag_68\n      jump\t// in\n    tag_481:\n      mload(0x40)\n      dup1\n      swap2\n      sub\n      swap1\n      revert\n        /* \"@openzeppelin/contracts-upgradeable/proxy/utils/UUPSUpgradeable.sol\":6241:6361  if (slot != ERC1967Utils.IMPLEMENTATION_SLOT) {... */\n    tag_480:\n        /* \"@openzeppelin/contracts-upgradeable/proxy/utils/UUPSUpgradeable.sol\":6374:6428  ERC1967Utils.upgradeToAndCall(newImplementation, data) */\n      tag_482\n        /* \"@openzeppelin/contracts-upgradeable/proxy/utils/UUPSUpgradeable.sol\":6404:6421  newImplementation */\n      dup4\n        /* \"@openzeppelin/contracts-upgradeable/proxy/utils/UUPSUpgradeable.sol\":6423:6427  data */\n      dup4\n        /* \"@openzeppelin/contracts-upgradeable/proxy/utils/UUPSUpgradeable.sol\":6374:6403  ERC1967Utils.upgradeToAndCall */\n      tag_483\n        /* \"@openzeppelin/contracts-upgradeable/proxy/utils/UUPSUpgradeable.sol\":6374:6428  ERC1967Utils.upgradeToAndCall(newImplementation, data) */\n      jump\t// in\n    tag_482:\n        /* \"@openzeppelin/contracts-upgradeable/proxy/utils/UUPSUpgradeable.sol\":6204:6439  returns (bytes32 slot) {... */\n      pop\n        /* \"@openzeppelin/contracts-upgradeable/proxy/utils/UUPSUpgradeable.sol\":6052:6590  function _upgradeToAndCallUUPS(address newImplementation, bytes memory data) private {... */\n      pop\n      pop\n      jump\t// out\n        /* \"@openzeppelin/contracts-upgradeable/proxy/utils/UUPSUpgradeable.sol\":5028:5241  function _checkNotDelegated() internal view virtual {... */\n    tag_283:\n        /* \"@openzeppelin/contracts-upgradeable/proxy/utils/UUPSUpgradeable.sol\":5111:5117  __self */\n      immutable(\"0x3b04ad91523c4dcf551e081621e633b9099d51bf9c5461e58c3bc7354a578b27\")\n        /* \"@openzeppelin/contracts-upgradeable/proxy/utils/UUPSUpgradeable.sol\":5094:5117  address(this) != __self */\n      0xffffffffffffffffffffffffffffffffffffffff\n      and\n        /* \"@openzeppelin/contracts-upgradeable/proxy/utils/UUPSUpgradeable.sol\":5102:5106  this */\n      address\n        /* \"@openzeppelin/contracts-upgradeable/proxy/utils/UUPSUpgradeable.sol\":5094:5117  address(this) != __self */\n      0xffffffffffffffffffffffffffffffffffffffff\n      and\n      eq\n        /* \"@openzeppelin/contracts-upgradeable/proxy/utils/UUPSUpgradeable.sol\":5090:5235  if (address(this) != __self) {... */\n      tag_485\n      jumpi\n        /* \"@openzeppelin/contracts-upgradeable/proxy/utils/UUPSUpgradeable.sol\":5195:5224  UUPSUnauthorizedCallContext() */\n      mload(0x40)\n      0xe07c8dba00000000000000000000000000000000000000000000000000000000\n      dup2\n      mstore\n      0x04\n      add\n      mload(0x40)\n      dup1\n      swap2\n      sub\n      swap1\n      revert\n        /* \"@openzeppelin/contracts-upgradeable/proxy/utils/UUPSUpgradeable.sol\":5090:5235  if (address(this) != __self) {... */\n    tag_485:\n        /* \"@openzeppelin/contracts-upgradeable/proxy/utils/UUPSUpgradeable.sol\":5028:5241  function _checkNotDelegated() internal view virtual {... */\n      jump\t// out\n        /* \"@openzeppelin/contracts-upgradeable/utils/PausableUpgradeable.sol\":1147:1309  function _getPausableStorage() private pure returns (PausableStorage storage $) {... */\n    tag_319:\n        /* \"@openzeppelin/contracts-upgradeable/utils/PausableUpgradeable.sol\":1200:1225  PausableStorage storage $ */\n      0x00\n        /* \"@openzeppelin/contracts-upgradeable/utils/PausableUpgradeable.sol\":1270:1293  PausableStorageLocation */\n      0xcd5ed15c6e187e77e9aee88184c21f4f2182ab5827cb3b7e07fbedcd63f03300\n        /* \"@openzeppelin/contracts-upgradeable/utils/PausableUpgradeable.sol\":1260:1293  $.slot := PausableStorageLocation */\n      swap1\n      pop\n        /* \"@openzeppelin/contracts-upgradeable/utils/PausableUpgradeable.sol\":1147:1309  function _getPausableStorage() private pure returns (PausableStorage storage $) {... */\n      swap1\n      jump\t// out\n        /* \"@openzeppelin/contracts-upgradeable/utils/PausableUpgradeable.sol\":3366:3542  function _pause() internal virtual whenNotPaused {... */\n    tag_324:\n        /* \"@openzeppelin/contracts-upgradeable/utils/PausableUpgradeable.sol\":2316:2335  _requireNotPaused() */\n      tag_488\n        /* \"@openzeppelin/contracts-upgradeable/utils/PausableUpgradeable.sol\":2316:2333  _requireNotPaused */\n      tag_226\n        /* \"@openzeppelin/contracts-upgradeable/utils/PausableUpgradeable.sol\":2316:2335  _requireNotPaused() */\n      jump\t// in\n    tag_488:\n        /* \"@openzeppelin/contracts-upgradeable/utils/PausableUpgradeable.sol\":3425:3450  PausableStorage storage $ */\n      0x00\n        /* \"@openzeppelin/contracts-upgradeable/utils/PausableUpgradeable.sol\":3453:3474  _getPausableStorage() */\n      tag_490\n        /* \"@openzeppelin/contracts-upgradeable/utils/PausableUpgradeable.sol\":3453:3472  _getPausableStorage */\n      tag_319\n        /* \"@openzeppelin/contracts-upgradeable/utils/PausableUpgradeable.sol\":3453:3474  _getPausableStorage() */\n      jump\t// in\n    tag_490:\n        /* \"@openzeppelin/contracts-upgradeable/utils/PausableUpgradeable.sol\":3425:3474  PausableStorage storage $ = _getPausableStorage() */\n      swap1\n      pop\n        /* \"@openzeppelin/contracts-upgradeable/utils/PausableUpgradeable.sol\":3496:3500  true */\n      0x01\n        /* \"@openzeppelin/contracts-upgradeable/utils/PausableUpgradeable.sol\":3484:3485  $ */\n      dup2\n        /* \"@openzeppelin/contracts-upgradeable/utils/PausableUpgradeable.sol\":3484:3493  $._paused */\n      0x00\n      add\n      0x00\n        /* \"@openzeppelin/contracts-upgradeable/utils/PausableUpgradeable.sol\":3484:3500  $._paused = true */\n      0x0100\n      exp\n      dup2\n      sload\n      dup2\n      0xff\n      mul\n      not\n      and\n      swap1\n      dup4\n      iszero\n      iszero\n      mul\n      or\n      swap1\n      sstore\n      pop\n        /* \"@openzeppelin/contracts-upgradeable/utils/PausableUpgradeable.sol\":3515:3535  Paused(_msgSender()) */\n      0x62e78cea01bee320cd4e420270b5ea74000d11b0c9f74754ebdbfc544b05a258\n        /* \"@openzeppelin/contracts-upgradeable/utils/PausableUpgradeable.sol\":3522:3534  _msgSender() */\n      tag_491\n        /* \"@openzeppelin/contracts-upgradeable/utils/PausableUpgradeable.sol\":3522:3532  _msgSender */\n      tag_215\n        /* \"@openzeppelin/contracts-upgradeable/utils/PausableUpgradeable.sol\":3522:3534  _msgSender() */\n      jump\t// in\n    tag_491:\n        /* \"@openzeppelin/contracts-upgradeable/utils/PausableUpgradeable.sol\":3515:3535  Paused(_msgSender()) */\n      mload(0x40)\n      tag_492\n      swap2\n      swap1\n      tag_451\n      jump\t// in\n    tag_492:\n      mload(0x40)\n      dup1\n      swap2\n      sub\n      swap1\n      log1\n        /* \"@openzeppelin/contracts-upgradeable/utils/PausableUpgradeable.sol\":3415:3542  {... */\n      pop\n        /* \"@openzeppelin/contracts-upgradeable/utils/PausableUpgradeable.sol\":3366:3542  function _pause() internal virtual whenNotPaused {... */\n      jump\t// out\n        /* \"@openzeppelin/contracts-upgradeable/proxy/utils/Initializable.sol\":8737:8907  function _getInitializableStorage() private pure returns (InitializableStorage storage $) {... */\n    tag_352:\n        /* \"@openzeppelin/contracts-upgradeable/proxy/utils/Initializable.sol\":8795:8825  InitializableStorage storage $ */\n      0x00\n        /* \"@openzeppelin/contracts-upgradeable/proxy/utils/Initializable.sol\":8870:8891  INITIALIZABLE_STORAGE */\n      0xf0c57e16840df040f15088dc2f81fe391c3923bec73e23a9662efc9c229c6a00\n        /* \"@openzeppelin/contracts-upgradeable/proxy/utils/Initializable.sol\":8860:8891  $.slot := INITIALIZABLE_STORAGE */\n      swap1\n      pop\n        /* \"@openzeppelin/contracts-upgradeable/proxy/utils/Initializable.sol\":8737:8907  function _getInitializableStorage() private pure returns (InitializableStorage storage $) {... */\n      swap1\n      jump\t// out\n        /* \"@openzeppelin/contracts-upgradeable/utils/PausableUpgradeable.sol\":1836:1933  function __Pausable_init() internal onlyInitializing {... */\n    tag_360:\n        /* \"@openzeppelin/contracts-upgradeable/proxy/utils/Initializable.sol\":6931:6951  _checkInitializing() */\n      tag_495\n        /* \"@openzeppelin/contracts-upgradeable/proxy/utils/Initializable.sol\":6931:6949  _checkInitializing */\n      tag_496\n        /* \"@openzeppelin/contracts-upgradeable/proxy/utils/Initializable.sol\":6931:6951  _checkInitializing() */\n      jump\t// in\n    tag_495:\n        /* \"@openzeppelin/contracts-upgradeable/utils/PausableUpgradeable.sol\":1899:1926  __Pausable_init_unchained() */\n      tag_498\n        /* \"@openzeppelin/contracts-upgradeable/utils/PausableUpgradeable.sol\":1899:1924  __Pausable_init_unchained */\n      tag_499\n        /* \"@openzeppelin/contracts-upgradeable/utils/PausableUpgradeable.sol\":1899:1926  __Pausable_init_unchained() */\n      jump\t// in\n    tag_498:\n        /* \"@openzeppelin/contracts-upgradeable/utils/PausableUpgradeable.sol\":1836:1933  function __Pausable_init() internal onlyInitializing {... */\n      jump\t// out\n        /* \"@openzeppelin/contracts-upgradeable/access/AccessControlUpgradeable.sol\":3231:3296  function __AccessControl_init() internal onlyInitializing {... */\n    tag_362:\n        /* \"@openzeppelin/contracts-upgradeable/proxy/utils/Initializable.sol\":6931:6951  _checkInitializing() */\n      tag_501\n        /* \"@openzeppelin/contracts-upgradeable/proxy/utils/Initializable.sol\":6931:6949  _checkInitializing */\n      tag_496\n        /* \"@openzeppelin/contracts-upgradeable/proxy/utils/Initializable.sol\":6931:6951  _checkInitializing() */\n      jump\t// in\n    tag_501:\n        /* \"@openzeppelin/contracts-upgradeable/access/AccessControlUpgradeable.sol\":3231:3296  function __AccessControl_init() internal onlyInitializing {... */\n      jump\t// out\n        /* \"@openzeppelin/contracts-upgradeable/proxy/utils/UUPSUpgradeable.sol\":2968:3035  function __UUPSUpgradeable_init() internal onlyInitializing {... */\n    tag_364:\n        /* \"@openzeppelin/contracts-upgradeable/proxy/utils/Initializable.sol\":6931:6951  _checkInitializing() */\n      tag_504\n        /* \"@openzeppelin/contracts-upgradeable/proxy/utils/Initializable.sol\":6931:6949  _checkInitializing */\n      tag_496\n        /* \"@openzeppelin/contracts-upgradeable/proxy/utils/Initializable.sol\":6931:6951  _checkInitializing() */\n      jump\t// in\n    tag_504:\n        /* \"@openzeppelin/contracts-upgradeable/proxy/utils/UUPSUpgradeable.sol\":2968:3035  function __UUPSUpgradeable_init() internal onlyInitializing {... */\n      jump\t// out\n        /* \"@openzeppelin/contracts-upgradeable/access/AccessControlUpgradeable.sol\":4381:4578  function _checkRole(bytes32 role, address account) internal view virtual {... */\n    tag_429:\n        /* \"@openzeppelin/contracts-upgradeable/access/AccessControlUpgradeable.sol\":4469:4491  hasRole(role, account) */\n      tag_507\n        /* \"@openzeppelin/contracts-upgradeable/access/AccessControlUpgradeable.sol\":4477:4481  role */\n      dup3\n        /* \"@openzeppelin/contracts-upgradeable/access/AccessControlUpgradeable.sol\":4483:4490  account */\n      dup3\n        /* \"@openzeppelin/contracts-upgradeable/access/AccessControlUpgradeable.sol\":4469:4476  hasRole */\n      tag_126\n        /* \"@openzeppelin/contracts-upgradeable/access/AccessControlUpgradeable.sol\":4469:4491  hasRole(role, account) */\n      jump\t// in\n    tag_507:\n        /* \"@openzeppelin/contracts-upgradeable/access/AccessControlUpgradeable.sol\":4464:4572  if (!hasRole(role, account)) {... */\n      tag_508\n      jumpi\n        /* \"@openzeppelin/contracts-upgradeable/access/AccessControlUpgradeable.sol\":4547:4554  account */\n      dup1\n        /* \"@openzeppelin/contracts-upgradeable/access/AccessControlUpgradeable.sol\":4556:4560  role */\n      dup3\n        /* \"@openzeppelin/contracts-upgradeable/access/AccessControlUpgradeable.sol\":4514:4561  AccessControlUnauthorizedAccount(account, role) */\n      mload(0x40)\n      0xe2517d3f00000000000000000000000000000000000000000000000000000000\n      dup2\n      mstore\n      0x04\n      add\n      tag_509\n      swap3\n      swap2\n      swap1\n      tag_510\n      jump\t// in\n    tag_509:\n      mload(0x40)\n      dup1\n      swap2\n      sub\n      swap1\n      revert\n        /* \"@openzeppelin/contracts-upgradeable/access/AccessControlUpgradeable.sol\":4464:4572  if (!hasRole(role, account)) {... */\n    tag_508:\n        /* \"@openzeppelin/contracts-upgradeable/access/AccessControlUpgradeable.sol\":4381:4578  function _checkRole(bytes32 role, address account) internal view virtual {... */\n      pop\n      pop\n      jump\t// out\n        /* \"@openzeppelin/contracts-upgradeable/utils/PausableUpgradeable.sol\":3105:3231  function _requirePaused() internal view virtual {... */\n    tag_446:\n        /* \"@openzeppelin/contracts-upgradeable/utils/PausableUpgradeable.sol\":3168:3176  paused() */\n      tag_512\n        /* \"@openzeppelin/contracts-upgradeable/utils/PausableUpgradeable.sol\":3168:3174  paused */\n      tag_118\n        /* \"@openzeppelin/contracts-upgradeable/utils/PausableUpgradeable.sol\":3168:3176  paused() */\n      jump\t// in\n    tag_512:\n        /* \"@openzeppelin/contracts-upgradeable/utils/PausableUpgradeable.sol\":3163:3225  if (!paused()) {... */\n      tag_513\n      jumpi\n        /* \"@openzeppelin/contracts-upgradeable/utils/PausableUpgradeable.sol\":3199:3214  ExpectedPause() */\n      mload(0x40)\n      0x8dfc202b00000000000000000000000000000000000000000000000000000000\n      dup2\n      mstore\n      0x04\n      add\n      mload(0x40)\n      dup1\n      swap2\n      sub\n      swap1\n      revert\n        /* \"@openzeppelin/contracts-upgradeable/utils/PausableUpgradeable.sol\":3163:3225  if (!paused()) {... */\n    tag_513:\n        /* \"@openzeppelin/contracts-upgradeable/utils/PausableUpgradeable.sol\":3105:3231  function _requirePaused() internal view virtual {... */\n      jump\t// out\n        /* \"@openzeppelin/contracts/proxy/ERC1967/ERC1967Utils.sol\":1957:2095  function getImplementation() internal view returns (address) {... */\n    tag_465:\n        /* \"@openzeppelin/contracts/proxy/ERC1967/ERC1967Utils.sol\":2009:2016  address */\n      0x00\n        /* \"@openzeppelin/contracts/proxy/ERC1967/ERC1967Utils.sol\":2035:2082  StorageSlot.getAddressSlot(IMPLEMENTATION_SLOT) */\n      tag_515\n        /* \"@openzeppelin/contracts/proxy/ERC1967/ERC1967Utils.sol\":1327:1393  0x360894a13ba1a3210667c828492db98dca3e2076cc3735a920a3ca505d382bbc */\n      0x360894a13ba1a3210667c828492db98dca3e2076cc3735a920a3ca505d382bbc\n        /* \"@openzeppelin/contracts/proxy/ERC1967/ERC1967Utils.sol\":2062:2081  IMPLEMENTATION_SLOT */\n      0x00\n      shl\n        /* \"@openzeppelin/contracts/proxy/ERC1967/ERC1967Utils.sol\":2035:2061  StorageSlot.getAddressSlot */\n      tag_516\n        /* \"@openzeppelin/contracts/proxy/ERC1967/ERC1967Utils.sol\":2035:2082  StorageSlot.getAddressSlot(IMPLEMENTATION_SLOT) */\n      jump\t// in\n    tag_515:\n        /* \"@openzeppelin/contracts/proxy/ERC1967/ERC1967Utils.sol\":2035:2088  StorageSlot.getAddressSlot(IMPLEMENTATION_SLOT).value */\n      0x00\n      add\n      0x00\n      swap1\n      sload\n      swap1\n      0x0100\n      exp\n      swap1\n      div\n      0xffffffffffffffffffffffffffffffffffffffff\n      and\n        /* \"@openzeppelin/contracts/proxy/ERC1967/ERC1967Utils.sol\":2028:2088  return StorageSlot.getAddressSlot(IMPLEMENTATION_SLOT).value */\n      swap1\n      pop\n        /* \"@openzeppelin/contracts/proxy/ERC1967/ERC1967Utils.sol\":1957:2095  function getImplementation() internal view returns (address) {... */\n      swap1\n      jump\t// out\n        /* \"@openzeppelin/contracts/proxy/ERC1967/ERC1967Utils.sol\":2779:3114  function upgradeToAndCall(address newImplementation, bytes memory data) internal {... */\n    tag_483:\n        /* \"@openzeppelin/contracts/proxy/ERC1967/ERC1967Utils.sol\":2870:2907  _setImplementation(newImplementation) */\n      tag_518\n        /* \"@openzeppelin/contracts/proxy/ERC1967/ERC1967Utils.sol\":2889:2906  newImplementation */\n      dup3\n        /* \"@openzeppelin/contracts/proxy/ERC1967/ERC1967Utils.sol\":2870:2888  _setImplementation */\n      tag_519\n        /* \"@openzeppelin/contracts/proxy/ERC1967/ERC1967Utils.sol\":2870:2907  _setImplementation(newImplementation) */\n      jump\t// in\n    tag_518:\n        /* \"@openzeppelin/contracts/proxy/ERC1967/ERC1967Utils.sol\":2931:2948  newImplementation */\n      dup2\n        /* \"@openzeppelin/contracts/proxy/ERC1967/ERC1967Utils.sol\":2922:2949  Upgraded(newImplementation) */\n      0xffffffffffffffffffffffffffffffffffffffff\n      and\n      0xbc7cd75a20ee27fd9adebab32041f755214dbc6bffa90cc0225b39da2e5c2d3b\n      mload(0x40)\n      mload(0x40)\n      dup1\n      swap2\n      sub\n      swap1\n      log2\n        /* \"@openzeppelin/contracts/proxy/ERC1967/ERC1967Utils.sol\":2978:2979  0 */\n      0x00\n        /* \"@openzeppelin/contracts/proxy/ERC1967/ERC1967Utils.sol\":2964:2968  data */\n      dup2\n        /* \"@openzeppelin/contracts/proxy/ERC1967/ERC1967Utils.sol\":2964:2975  data.length */\n      mload\n        /* \"@openzeppelin/contracts/proxy/ERC1967/ERC1967Utils.sol\":2964:2979  data.length > 0 */\n      gt\n        /* \"@openzeppelin/contracts/proxy/ERC1967/ERC1967Utils.sol\":2960:3108  if (data.length > 0) {... */\n      iszero\n      tag_520\n      jumpi\n        /* \"@openzeppelin/contracts/proxy/ERC1967/ERC1967Utils.sol\":2995:3048  Address.functionDelegateCall(newImplementation, data) */\n      tag_521\n        /* \"@openzeppelin/contracts/proxy/ERC1967/ERC1967Utils.sol\":3024:3041  newImplementation */\n      dup3\n        /* \"@openzeppelin/contracts/proxy/ERC1967/ERC1967Utils.sol\":3043:3047  data */\n      dup3\n        /* \"@openzeppelin/contracts/proxy/ERC1967/ERC1967Utils.sol\":2995:3023  Address.functionDelegateCall */\n      tag_522\n        /* \"@openzeppelin/contracts/proxy/ERC1967/ERC1967Utils.sol\":2995:3048  Address.functionDelegateCall(newImplementation, data) */\n      jump\t// in\n    tag_521:\n      pop\n        /* \"@openzeppelin/contracts/proxy/ERC1967/ERC1967Utils.sol\":2960:3108  if (data.length > 0) {... */\n      jump(tag_523)\n    tag_520:\n        /* \"@openzeppelin/contracts/proxy/ERC1967/ERC1967Utils.sol\":3079:3097  _checkNonPayable() */\n      tag_524\n        /* \"@openzeppelin/contracts/proxy/ERC1967/ERC1967Utils.sol\":3079:3095  _checkNonPayable */\n      tag_525\n        /* \"@openzeppelin/contracts/proxy/ERC1967/ERC1967Utils.sol\":3079:3097  _checkNonPayable() */\n      jump\t// in\n    tag_524:\n        /* \"@openzeppelin/contracts/proxy/ERC1967/ERC1967Utils.sol\":2960:3108  if (data.length > 0) {... */\n    tag_523:\n        /* \"@openzeppelin/contracts/proxy/ERC1967/ERC1967Utils.sol\":2779:3114  function upgradeToAndCall(address newImplementation, bytes memory data) internal {... */\n      pop\n      pop\n      jump\t// out\n        /* \"@openzeppelin/contracts-upgradeable/proxy/utils/Initializable.sol\":7084:7225  function _checkInitializing() internal view virtual {... */\n    tag_496:\n        /* \"@openzeppelin/contracts-upgradeable/proxy/utils/Initializable.sol\":7151:7168  _isInitializing() */\n      tag_527\n        /* \"@openzeppelin/contracts-upgradeable/proxy/utils/Initializable.sol\":7151:7166  _isInitializing */\n      tag_528\n        /* \"@openzeppelin/contracts-upgradeable/proxy/utils/Initializable.sol\":7151:7168  _isInitializing() */\n      jump\t// in\n    tag_527:\n        /* \"@openzeppelin/contracts-upgradeable/proxy/utils/Initializable.sol\":7146:7219  if (!_isInitializing()) {... */\n      tag_529\n      jumpi\n        /* \"@openzeppelin/contracts-upgradeable/proxy/utils/Initializable.sol\":7191:7208  NotInitializing() */\n      mload(0x40)\n      0xd7e6bcf800000000000000000000000000000000000000000000000000000000\n      dup2\n      mstore\n      0x04\n      add\n      mload(0x40)\n      dup1\n      swap2\n      sub\n      swap1\n      revert\n        /* \"@openzeppelin/contracts-upgradeable/proxy/utils/Initializable.sol\":7146:7219  if (!_isInitializing()) {... */\n    tag_529:\n        /* \"@openzeppelin/contracts-upgradeable/proxy/utils/Initializable.sol\":7084:7225  function _checkInitializing() internal view virtual {... */\n      jump\t// out\n        /* \"@openzeppelin/contracts-upgradeable/utils/PausableUpgradeable.sol\":1939:2095  function __Pausable_init_unchained() internal onlyInitializing {... */\n    tag_499:\n        /* \"@openzeppelin/contracts-upgradeable/proxy/utils/Initializable.sol\":6931:6951  _checkInitializing() */\n      tag_531\n        /* \"@openzeppelin/contracts-upgradeable/proxy/utils/Initializable.sol\":6931:6949  _checkInitializing */\n      tag_496\n        /* \"@openzeppelin/contracts-upgradeable/proxy/utils/Initializable.sol\":6931:6951  _checkInitializing() */\n      jump\t// in\n    tag_531:\n        /* \"@openzeppelin/contracts-upgradeable/utils/PausableUpgradeable.sol\":2012:2037  PausableStorage storage $ */\n      0x00\n        /* \"@openzeppelin/contracts-upgradeable/utils/PausableUpgradeable.sol\":2040:2061  _getPausableStorage() */\n      tag_533\n        /* \"@openzeppelin/contracts-upgradeable/utils/PausableUpgradeable.sol\":2040:2059  _getPausableStorage */\n      tag_319\n        /* \"@openzeppelin/contracts-upgradeable/utils/PausableUpgradeable.sol\":2040:2061  _getPausableStorage() */\n      jump\t// in\n    tag_533:\n        /* \"@openzeppelin/contracts-upgradeable/utils/PausableUpgradeable.sol\":2012:2061  PausableStorage storage $ = _getPausableStorage() */\n      swap1\n      pop\n        /* \"@openzeppelin/contracts-upgradeable/utils/PausableUpgradeable.sol\":2083:2088  false */\n      0x00\n        /* \"@openzeppelin/contracts-upgradeable/utils/PausableUpgradeable.sol\":2071:2072  $ */\n      dup2\n        /* \"@openzeppelin/contracts-upgradeable/utils/PausableUpgradeable.sol\":2071:2080  $._paused */\n      0x00\n      add\n      0x00\n        /* \"@openzeppelin/contracts-upgradeable/utils/PausableUpgradeable.sol\":2071:2088  $._paused = false */\n      0x0100\n      exp\n      dup2\n      sload\n      dup2\n      0xff\n      mul\n      not\n      and\n      swap1\n      dup4\n      iszero\n      iszero\n      mul\n      or\n      swap1\n      sstore\n      pop\n        /* \"@openzeppelin/contracts-upgradeable/utils/PausableUpgradeable.sol\":2002:2095  {... */\n      pop\n        /* \"@openzeppelin/contracts-upgradeable/utils/PausableUpgradeable.sol\":1939:2095  function __Pausable_init_unchained() internal onlyInitializing {... */\n      jump\t// out\n        /* \"@openzeppelin/contracts/utils/StorageSlot.sol\":1684:1874  function getAddressSlot(bytes32 slot) internal pure returns (AddressSlot storage r) {... */\n    tag_516:\n        /* \"@openzeppelin/contracts/utils/StorageSlot.sol\":1745:1766  AddressSlot storage r */\n      0x00\n        /* \"@openzeppelin/contracts/utils/StorageSlot.sol\":1854:1858  slot */\n      dup2\n        /* \"@openzeppelin/contracts/utils/StorageSlot.sol\":1844:1858  r.slot := slot */\n      swap1\n      pop\n        /* \"@openzeppelin/contracts/utils/StorageSlot.sol\":1684:1874  function getAddressSlot(bytes32 slot) internal pure returns (AddressSlot storage r) {... */\n      swap2\n      swap1\n      pop\n      jump\t// out\n        /* \"@openzeppelin/contracts/proxy/ERC1967/ERC1967Utils.sol\":2186:2467  function _setImplementation(address newImplementation) private {... */\n    tag_519:\n        /* \"@openzeppelin/contracts/proxy/ERC1967/ERC1967Utils.sol\":2296:2297  0 */\n      0x00\n        /* \"@openzeppelin/contracts/proxy/ERC1967/ERC1967Utils.sol\":2263:2280  newImplementation */\n      dup2\n        /* \"@openzeppelin/contracts/proxy/ERC1967/ERC1967Utils.sol\":2263:2292  newImplementation.code.length */\n      0xffffffffffffffffffffffffffffffffffffffff\n      and\n      extcodesize\n        /* \"@openzeppelin/contracts/proxy/ERC1967/ERC1967Utils.sol\":2263:2297  newImplementation.code.length == 0 */\n      sub\n        /* \"@openzeppelin/contracts/proxy/ERC1967/ERC1967Utils.sol\":2259:2378  if (newImplementation.code.length == 0) {... */\n      tag_536\n      jumpi\n        /* \"@openzeppelin/contracts/proxy/ERC1967/ERC1967Utils.sol\":2349:2366  newImplementation */\n      dup1\n        /* \"@openzeppelin/contracts/proxy/ERC1967/ERC1967Utils.sol\":2320:2367  ERC1967InvalidImplementation(newImplementation) */\n      mload(0x40)\n      0x4c9c8ce300000000000000000000000000000000000000000000000000000000\n      dup2\n      mstore\n      0x04\n      add\n      tag_537\n      swap2\n      swap1\n      tag_451\n      jump\t// in\n    tag_537:\n      mload(0x40)\n      dup1\n      swap2\n      sub\n      swap1\n      revert\n        /* \"@openzeppelin/contracts/proxy/ERC1967/ERC1967Utils.sol\":2259:2378  if (newImplementation.code.length == 0) {... */\n    tag_536:\n        /* \"@openzeppelin/contracts/proxy/ERC1967/ERC1967Utils.sol\":2443:2460  newImplementation */\n      dup1\n        /* \"@openzeppelin/contracts/proxy/ERC1967/ERC1967Utils.sol\":2387:2434  StorageSlot.getAddressSlot(IMPLEMENTATION_SLOT) */\n      tag_538\n        /* \"@openzeppelin/contracts/proxy/ERC1967/ERC1967Utils.sol\":1327:1393  0x360894a13ba1a3210667c828492db98dca3e2076cc3735a920a3ca505d382bbc */\n      0x360894a13ba1a3210667c828492db98dca3e2076cc3735a920a3ca505d382bbc\n        /* \"@openzeppelin/contracts/proxy/ERC1967/ERC1967Utils.sol\":2414:2433  IMPLEMENTATION_SLOT */\n      0x00\n      shl\n        /* \"@openzeppelin/contracts/proxy/ERC1967/ERC1967Utils.sol\":2387:2413  StorageSlot.getAddressSlot */\n      tag_516\n        /* \"@openzeppelin/contracts/proxy/ERC1967/ERC1967Utils.sol\":2387:2434  StorageSlot.getAddressSlot(IMPLEMENTATION_SLOT) */\n      jump\t// in\n    tag_538:\n        /* \"@openzeppelin/contracts/proxy/ERC1967/ERC1967Utils.sol\":2387:2440  StorageSlot.getAddressSlot(IMPLEMENTATION_SLOT).value */\n      0x00\n      add\n      0x00\n        /* \"@openzeppelin/contracts/proxy/ERC1967/ERC1967Utils.sol\":2387:2460  StorageSlot.getAddressSlot(IMPLEMENTATION_SLOT).value = newImplementation */\n      0x0100\n      exp\n      dup2\n      sload\n      dup2\n      0xffffffffffffffffffffffffffffffffffffffff\n      mul\n      not\n      and\n      swap1\n      dup4\n      0xffffffffffffffffffffffffffffffffffffffff\n      and\n      mul\n      or\n      swap1\n      sstore\n      pop\n        /* \"@openzeppelin/contracts/proxy/ERC1967/ERC1967Utils.sol\":2186:2467  function _setImplementation(address newImplementation) private {... */\n      pop\n      jump\t// out\n        /* \"@openzeppelin/contracts/utils/Address.sol\":4106:4359  function functionDelegateCall(address target, bytes memory data) internal returns (bytes memory) {... */\n    tag_522:\n        /* \"@openzeppelin/contracts/utils/Address.sol\":4189:4201  bytes memory */\n      0x60\n        /* \"@openzeppelin/contracts/utils/Address.sol\":4214:4226  bool success */\n      0x00\n        /* \"@openzeppelin/contracts/utils/Address.sol\":4228:4251  bytes memory returndata */\n      dup1\n        /* \"@openzeppelin/contracts/utils/Address.sol\":4255:4261  target */\n      dup5\n        /* \"@openzeppelin/contracts/utils/Address.sol\":4255:4274  target.delegatecall */\n      0xffffffffffffffffffffffffffffffffffffffff\n      and\n        /* \"@openzeppelin/contracts/utils/Address.sol\":4275:4279  data */\n      dup5\n        /* \"@openzeppelin/contracts/utils/Address.sol\":4255:4280  target.delegatecall(data) */\n      mload(0x40)\n      tag_540\n      swap2\n      swap1\n      tag_541\n      jump\t// in\n    tag_540:\n      0x00\n      mload(0x40)\n      dup1\n      dup4\n      sub\n      dup2\n      dup6\n      gas\n      delegatecall\n      swap2\n      pop\n      pop\n      returndatasize\n      dup1\n      0x00\n      dup2\n      eq\n      tag_544\n      jumpi\n      mload(0x40)\n      swap2\n      pop\n      and(add(returndatasize, 0x3f), not(0x1f))\n      dup3\n      add\n      0x40\n      mstore\n      returndatasize\n      dup3\n      mstore\n      returndatasize\n      0x00\n      0x20\n      dup5\n      add\n      returndatacopy\n      jump(tag_543)\n    tag_544:\n      0x60\n      swap2\n      pop\n    tag_543:\n      pop\n        /* \"@openzeppelin/contracts/utils/Address.sol\":4213:4280  (bool success, bytes memory returndata) = target.delegatecall(data) */\n      swap2\n      pop\n      swap2\n      pop\n        /* \"@openzeppelin/contracts/utils/Address.sol\":4297:4352  verifyCallResultFromTarget(target, success, returndata) */\n      tag_545\n        /* \"@openzeppelin/contracts/utils/Address.sol\":4324:4330  target */\n      dup6\n        /* \"@openzeppelin/contracts/utils/Address.sol\":4332:4339  success */\n      dup4\n        /* \"@openzeppelin/contracts/utils/Address.sol\":4341:4351  returndata */\n      dup4\n        /* \"@openzeppelin/contracts/utils/Address.sol\":4297:4323  verifyCallResultFromTarget */\n      tag_546\n        /* \"@openzeppelin/contracts/utils/Address.sol\":4297:4352  verifyCallResultFromTarget(target, success, returndata) */\n      jump\t// in\n    tag_545:\n        /* \"@openzeppelin/contracts/utils/Address.sol\":4290:4352  return verifyCallResultFromTarget(target, success, returndata) */\n      swap3\n      pop\n      pop\n      pop\n        /* \"@openzeppelin/contracts/utils/Address.sol\":4106:4359  function functionDelegateCall(address target, bytes memory data) internal returns (bytes memory) {... */\n      swap3\n      swap2\n      pop\n      pop\n      jump\t// out\n        /* \"@openzeppelin/contracts/proxy/ERC1967/ERC1967Utils.sol\":6598:6720  function _checkNonPayable() private {... */\n    tag_525:\n        /* \"@openzeppelin/contracts/proxy/ERC1967/ERC1967Utils.sol\":6660:6661  0 */\n      0x00\n        /* \"@openzeppelin/contracts/proxy/ERC1967/ERC1967Utils.sol\":6648:6657  msg.value */\n      callvalue\n        /* \"@openzeppelin/contracts/proxy/ERC1967/ERC1967Utils.sol\":6648:6661  msg.value > 0 */\n      gt\n        /* \"@openzeppelin/contracts/proxy/ERC1967/ERC1967Utils.sol\":6644:6714  if (msg.value > 0) {... */\n      iszero\n      tag_548\n      jumpi\n        /* \"@openzeppelin/contracts/proxy/ERC1967/ERC1967Utils.sol\":6684:6703  ERC1967NonPayable() */\n      mload(0x40)\n      0xb398979f00000000000000000000000000000000000000000000000000000000\n      dup2\n      mstore\n      0x04\n      add\n      mload(0x40)\n      dup1\n      swap2\n      sub\n      swap1\n      revert\n        /* \"@openzeppelin/contracts/proxy/ERC1967/ERC1967Utils.sol\":6644:6714  if (msg.value > 0) {... */\n    tag_548:\n        /* \"@openzeppelin/contracts/proxy/ERC1967/ERC1967Utils.sol\":6598:6720  function _checkNonPayable() private {... */\n      jump\t// out\n        /* \"@openzeppelin/contracts-upgradeable/proxy/utils/Initializable.sol\":8487:8607  function _isInitializing() internal view returns (bool) {... */\n    tag_528:\n        /* \"@openzeppelin/contracts-upgradeable/proxy/utils/Initializable.sol\":8537:8541  bool */\n      0x00\n        /* \"@openzeppelin/contracts-upgradeable/proxy/utils/Initializable.sol\":8560:8586  _getInitializableStorage() */\n      tag_550\n        /* \"@openzeppelin/contracts-upgradeable/proxy/utils/Initializable.sol\":8560:8584  _getInitializableStorage */\n      tag_352\n        /* \"@openzeppelin/contracts-upgradeable/proxy/utils/Initializable.sol\":8560:8586  _getInitializableStorage() */\n      jump\t// in\n    tag_550:\n        /* \"@openzeppelin/contracts-upgradeable/proxy/utils/Initializable.sol\":8560:8600  _getInitializableStorage()._initializing */\n      0x00\n      add\n      0x08\n      swap1\n      sload\n      swap1\n      0x0100\n      exp\n      swap1\n      div\n      0xff\n      and\n        /* \"@openzeppelin/contracts-upgradeable/proxy/utils/Initializable.sol\":8553:8600  return _getInitializableStorage()._initializing */\n      swap1\n      pop\n        /* \"@openzeppelin/contracts-upgradeable/proxy/utils/Initializable.sol\":8487:8607  function _isInitializing() internal view returns (bool) {... */\n      swap1\n      jump\t// out\n        /* \"@openzeppelin/contracts/utils/Address.sol\":4625:5207  function verifyCallResultFromTarget(... */\n    tag_546:\n        /* \"@openzeppelin/contracts/utils/Address.sol\":4769:4781  bytes memory */\n      0x60\n        /* \"@openzeppelin/contracts/utils/Address.sol\":4798:4805  success */\n      dup3\n        /* \"@openzeppelin/contracts/utils/Address.sol\":4793:5201  if (!success) {... */\n      tag_552\n      jumpi\n        /* \"@openzeppelin/contracts/utils/Address.sol\":4821:4840  _revert(returndata) */\n      tag_553\n        /* \"@openzeppelin/contracts/utils/Address.sol\":4829:4839  returndata */\n      dup3\n        /* \"@openzeppelin/contracts/utils/Address.sol\":4821:4828  _revert */\n      tag_554\n        /* \"@openzeppelin/contracts/utils/Address.sol\":4821:4840  _revert(returndata) */\n      jump\t// in\n    tag_553:\n        /* \"@openzeppelin/contracts/utils/Address.sol\":4793:5201  if (!success) {... */\n      jump(tag_555)\n    tag_552:\n        /* \"@openzeppelin/contracts/utils/Address.sol\":5066:5067  0 */\n      0x00\n        /* \"@openzeppelin/contracts/utils/Address.sol\":5045:5055  returndata */\n      dup3\n        /* \"@openzeppelin/contracts/utils/Address.sol\":5045:5062  returndata.length */\n      mload\n        /* \"@openzeppelin/contracts/utils/Address.sol\":5045:5067  returndata.length == 0 */\n      eq\n        /* \"@openzeppelin/contracts/utils/Address.sol\":5045:5094  returndata.length == 0 && target.code.length == 0 */\n      dup1\n      iszero\n      tag_556\n      jumpi\n      pop\n        /* \"@openzeppelin/contracts/utils/Address.sol\":5093:5094  0 */\n      0x00\n        /* \"@openzeppelin/contracts/utils/Address.sol\":5071:5077  target */\n      dup5\n        /* \"@openzeppelin/contracts/utils/Address.sol\":5071:5089  target.code.length */\n      0xffffffffffffffffffffffffffffffffffffffff\n      and\n      extcodesize\n        /* \"@openzeppelin/contracts/utils/Address.sol\":5071:5094  target.code.length == 0 */\n      eq\n        /* \"@openzeppelin/contracts/utils/Address.sol\":5045:5094  returndata.length == 0 && target.code.length == 0 */\n    tag_556:\n        /* \"@openzeppelin/contracts/utils/Address.sol\":5041:5160  if (returndata.length == 0 && target.code.length == 0) {... */\n      iszero\n      tag_557\n      jumpi\n        /* \"@openzeppelin/contracts/utils/Address.sol\":5138:5144  target */\n      dup4\n        /* \"@openzeppelin/contracts/utils/Address.sol\":5121:5145  AddressEmptyCode(target) */\n      mload(0x40)\n      0x9996b31500000000000000000000000000000000000000000000000000000000\n      dup2\n      mstore\n      0x04\n      add\n      tag_558\n      swap2\n      swap1\n      tag_451\n      jump\t// in\n    tag_558:\n      mload(0x40)\n      dup1\n      swap2\n      sub\n      swap1\n      revert\n        /* \"@openzeppelin/contracts/utils/Address.sol\":5041:5160  if (returndata.length == 0 && target.code.length == 0) {... */\n    tag_557:\n        /* \"@openzeppelin/contracts/utils/Address.sol\":5180:5190  returndata */\n      dup2\n        /* \"@openzeppelin/contracts/utils/Address.sol\":5173:5190  return returndata */\n      swap1\n      pop\n      jump(tag_551)\n        /* \"@openzeppelin/contracts/utils/Address.sol\":4793:5201  if (!success) {... */\n    tag_555:\n        /* \"@openzeppelin/contracts/utils/Address.sol\":4625:5207  function verifyCallResultFromTarget(... */\n    tag_551:\n      swap4\n      swap3\n      pop\n      pop\n      pop\n      jump\t// out\n        /* \"@openzeppelin/contracts/utils/Address.sol\":5743:6259  function _revert(bytes memory returndata) private pure {... */\n    tag_554:\n        /* \"@openzeppelin/contracts/utils/Address.sol\":5894:5895  0 */\n      0x00\n        /* \"@openzeppelin/contracts/utils/Address.sol\":5874:5884  returndata */\n      dup2\n        /* \"@openzeppelin/contracts/utils/Address.sol\":5874:5891  returndata.length */\n      mload\n        /* \"@openzeppelin/contracts/utils/Address.sol\":5874:5895  returndata.length > 0 */\n      gt\n        /* \"@openzeppelin/contracts/utils/Address.sol\":5870:6253  if (returndata.length > 0) {... */\n      iszero\n      tag_560\n      jumpi\n        /* \"@openzeppelin/contracts/utils/Address.sol\":6102:6112  returndata */\n      dup1\n        /* \"@openzeppelin/contracts/utils/Address.sol\":6096:6113  mload(returndata) */\n      mload\n        /* \"@openzeppelin/contracts/utils/Address.sol\":6158:6173  returndata_size */\n      dup1\n        /* \"@openzeppelin/contracts/utils/Address.sol\":6145:6155  returndata */\n      dup3\n        /* \"@openzeppelin/contracts/utils/Address.sol\":6141:6143  32 */\n      0x20\n        /* \"@openzeppelin/contracts/utils/Address.sol\":6137:6156  add(32, returndata) */\n      add\n        /* \"@openzeppelin/contracts/utils/Address.sol\":6130:6174  revert(add(32, returndata), returndata_size) */\n      revert\n        /* \"@openzeppelin/contracts/utils/Address.sol\":5870:6253  if (returndata.length > 0) {... */\n    tag_560:\n        /* \"@openzeppelin/contracts/utils/Address.sol\":6225:6242  FailedInnerCall() */\n      mload(0x40)\n      0x1425ea4200000000000000000000000000000000000000000000000000000000\n      dup2\n      mstore\n      0x04\n      add\n      mload(0x40)\n      dup1\n      swap2\n      sub\n      swap1\n      revert\n        /* \"#utility.yul\":7:82   */\n    tag_562:\n        /* \"#utility.yul\":40:46   */\n      0x00\n        /* \"#utility.yul\":73:75   */\n      0x40\n        /* \"#utility.yul\":67:76   */\n      mload\n        /* \"#utility.yul\":57:76   */\n      swap1\n      pop\n        /* \"#utility.yul\":7:82   */\n      swap1\n      jump\t// out\n        /* \"#utility.yul\":88:205   */\n    tag_563:\n        /* \"#utility.yul\":197:198   */\n      0x00\n        /* \"#utility.yul\":194:195   */\n      dup1\n        /* \"#utility.yul\":187:199   */\n      revert\n        /* \"#utility.yul\":211:328   */\n    tag_564:\n        /* \"#utility.yul\":320:321   */\n      0x00\n        /* \"#utility.yul\":317:318   */\n      dup1\n        /* \"#utility.yul\":310:322   */\n      revert\n        /* \"#utility.yul\":334:483   */\n    tag_565:\n        /* \"#utility.yul\":370:377   */\n      0x00\n        /* \"#utility.yul\":410:476   */\n      0xffffffff00000000000000000000000000000000000000000000000000000000\n        /* \"#utility.yul\":403:408   */\n      dup3\n        /* \"#utility.yul\":399:477   */\n      and\n        /* \"#utility.yul\":388:477   */\n      swap1\n      pop\n        /* \"#utility.yul\":334:483   */\n      swap2\n      swap1\n      pop\n      jump\t// out\n        /* \"#utility.yul\":489:609   */\n    tag_566:\n        /* \"#utility.yul\":561:584   */\n      tag_641\n        /* \"#utility.yul\":578:583   */\n      dup2\n        /* \"#utility.yul\":561:584   */\n      tag_565\n      jump\t// in\n    tag_641:\n        /* \"#utility.yul\":554:559   */\n      dup2\n        /* \"#utility.yul\":551:585   */\n      eq\n        /* \"#utility.yul\":541:603   */\n      tag_642\n      jumpi\n        /* \"#utility.yul\":599:600   */\n      0x00\n        /* \"#utility.yul\":596:597   */\n      dup1\n        /* \"#utility.yul\":589:601   */\n      revert\n        /* \"#utility.yul\":541:603   */\n    tag_642:\n        /* \"#utility.yul\":489:609   */\n      pop\n      jump\t// out\n        /* \"#utility.yul\":615:752   */\n    tag_567:\n        /* \"#utility.yul\":660:665   */\n      0x00\n        /* \"#utility.yul\":698:704   */\n      dup2\n        /* \"#utility.yul\":685:705   */\n      calldataload\n        /* \"#utility.yul\":676:705   */\n      swap1\n      pop\n        /* \"#utility.yul\":714:746   */\n      tag_644\n        /* \"#utility.yul\":740:745   */\n      dup2\n        /* \"#utility.yul\":714:746   */\n      tag_566\n      jump\t// in\n    tag_644:\n        /* \"#utility.yul\":615:752   */\n      swap3\n      swap2\n      pop\n      pop\n      jump\t// out\n        /* \"#utility.yul\":758:1085   */\n    tag_43:\n        /* \"#utility.yul\":816:822   */\n      0x00\n        /* \"#utility.yul\":865:867   */\n      0x20\n        /* \"#utility.yul\":853:862   */\n      dup3\n        /* \"#utility.yul\":844:851   */\n      dup5\n        /* \"#utility.yul\":840:863   */\n      sub\n        /* \"#utility.yul\":836:868   */\n      slt\n        /* \"#utility.yul\":833:952   */\n      iszero\n      tag_646\n      jumpi\n        /* \"#utility.yul\":871:950   */\n      tag_647\n      tag_563\n      jump\t// in\n    tag_647:\n        /* \"#utility.yul\":833:952   */\n    tag_646:\n        /* \"#utility.yul\":991:992   */\n      0x00\n        /* \"#utility.yul\":1016:1068   */\n      tag_648\n        /* \"#utility.yul\":1060:1067   */\n      dup5\n        /* \"#utility.yul\":1051:1057   */\n      dup3\n        /* \"#utility.yul\":1040:1049   */\n      dup6\n        /* \"#utility.yul\":1036:1058   */\n      add\n        /* \"#utility.yul\":1016:1068   */\n      tag_567\n      jump\t// in\n    tag_648:\n        /* \"#utility.yul\":1006:1068   */\n      swap2\n      pop\n        /* \"#utility.yul\":962:1078   */\n      pop\n        /* \"#utility.yul\":758:1085   */\n      swap3\n      swap2\n      pop\n      pop\n      jump\t// out\n        /* \"#utility.yul\":1091:1181   */\n    tag_568:\n        /* \"#utility.yul\":1125:1132   */\n      0x00\n        /* \"#utility.yul\":1168:1173   */\n      dup2\n        /* \"#utility.yul\":1161:1174   */\n      iszero\n        /* \"#utility.yul\":1154:1175   */\n      iszero\n        /* \"#utility.yul\":1143:1175   */\n      swap1\n      pop\n        /* \"#utility.yul\":1091:1181   */\n      swap2\n      swap1\n      pop\n      jump\t// out\n        /* \"#utility.yul\":1187:1296   */\n    tag_569:\n        /* \"#utility.yul\":1268:1289   */\n      tag_651\n        /* \"#utility.yul\":1283:1288   */\n      dup2\n        /* \"#utility.yul\":1268:1289   */\n      tag_568\n      jump\t// in\n    tag_651:\n        /* \"#utility.yul\":1263:1266   */\n      dup3\n        /* \"#utility.yul\":1256:1290   */\n      mstore\n        /* \"#utility.yul\":1187:1296   */\n      pop\n      pop\n      jump\t// out\n        /* \"#utility.yul\":1302:1512   */\n    tag_46:\n        /* \"#utility.yul\":1389:1393   */\n      0x00\n        /* \"#utility.yul\":1427:1429   */\n      0x20\n        /* \"#utility.yul\":1416:1425   */\n      dup3\n        /* \"#utility.yul\":1412:1430   */\n      add\n        /* \"#utility.yul\":1404:1430   */\n      swap1\n      pop\n        /* \"#utility.yul\":1440:1505   */\n      tag_653\n        /* \"#utility.yul\":1502:1503   */\n      0x00\n        /* \"#utility.yul\":1491:1500   */\n      dup4\n        /* \"#utility.yul\":1487:1504   */\n      add\n        /* \"#utility.yul\":1478:1484   */\n      dup5\n        /* \"#utility.yul\":1440:1505   */\n      tag_569\n      jump\t// in\n    tag_653:\n        /* \"#utility.yul\":1302:1512   */\n      swap3\n      swap2\n      pop\n      pop\n      jump\t// out\n        /* \"#utility.yul\":1518:1595   */\n    tag_570:\n        /* \"#utility.yul\":1555:1562   */\n      0x00\n        /* \"#utility.yul\":1584:1589   */\n      dup2\n        /* \"#utility.yul\":1573:1589   */\n      swap1\n      pop\n        /* \"#utility.yul\":1518:1595   */\n      swap2\n      swap1\n      pop\n      jump\t// out\n        /* \"#utility.yul\":1601:1723   */\n    tag_571:\n        /* \"#utility.yul\":1674:1698   */\n      tag_656\n        /* \"#utility.yul\":1692:1697   */\n      dup2\n        /* \"#utility.yul\":1674:1698   */\n      tag_570\n      jump\t// in\n    tag_656:\n        /* \"#utility.yul\":1667:1672   */\n      dup2\n        /* \"#utility.yul\":1664:1699   */\n      eq\n        /* \"#utility.yul\":1654:1717   */\n      tag_657\n      jumpi\n        /* \"#utility.yul\":1713:1714   */\n      0x00\n        /* \"#utility.yul\":1710:1711   */\n      dup1\n        /* \"#utility.yul\":1703:1715   */\n      revert\n        /* \"#utility.yul\":1654:1717   */\n    tag_657:\n        /* \"#utility.yul\":1601:1723   */\n      pop\n      jump\t// out\n        /* \"#utility.yul\":1729:1868   */\n    tag_572:\n        /* \"#utility.yul\":1775:1780   */\n      0x00\n        /* \"#utility.yul\":1813:1819   */\n      dup2\n        /* \"#utility.yul\":1800:1820   */\n      calldataload\n        /* \"#utility.yul\":1791:1820   */\n      swap1\n      pop\n        /* \"#utility.yul\":1829:1862   */\n      tag_659\n        /* \"#utility.yul\":1856:1861   */\n      dup2\n        /* \"#utility.yul\":1829:1862   */\n      tag_571\n      jump\t// in\n    tag_659:\n        /* \"#utility.yul\":1729:1868   */\n      swap3\n      swap2\n      pop\n      pop\n      jump\t// out\n        /* \"#utility.yul\":1874:2203   */\n    tag_50:\n        /* \"#utility.yul\":1933:1939   */\n      0x00\n        /* \"#utility.yul\":1982:1984   */\n      0x20\n        /* \"#utility.yul\":1970:1979   */\n      dup3\n        /* \"#utility.yul\":1961:1968   */\n      dup5\n        /* \"#utility.yul\":1957:1980   */\n      sub\n        /* \"#utility.yul\":1953:1985   */\n      slt\n        /* \"#utility.yul\":1950:2069   */\n      iszero\n      tag_661\n      jumpi\n        /* \"#utility.yul\":1988:2067   */\n      tag_662\n      tag_563\n      jump\t// in\n    tag_662:\n        /* \"#utility.yul\":1950:2069   */\n    tag_661:\n        /* \"#utility.yul\":2108:2109   */\n      0x00\n        /* \"#utility.yul\":2133:2186   */\n      tag_663\n        /* \"#utility.yul\":2178:2185   */\n      dup5\n        /* \"#utility.yul\":2169:2175   */\n      dup3\n        /* \"#utility.yul\":2158:2167   */\n      dup6\n        /* \"#utility.yul\":2154:2176   */\n      add\n        /* \"#utility.yul\":2133:2186   */\n      tag_572\n      jump\t// in\n    tag_663:\n        /* \"#utility.yul\":2123:2186   */\n      swap2\n      pop\n        /* \"#utility.yul\":2079:2196   */\n      pop\n        /* \"#utility.yul\":1874:2203   */\n      swap3\n      swap2\n      pop\n      pop\n      jump\t// out\n        /* \"#utility.yul\":2209:2335   */\n    tag_573:\n        /* \"#utility.yul\":2246:2253   */\n      0x00\n        /* \"#utility.yul\":2286:2328   */\n      0xffffffffffffffffffffffffffffffffffffffff\n        /* \"#utility.yul\":2279:2284   */\n      dup3\n        /* \"#utility.yul\":2275:2329   */\n      and\n        /* \"#utility.yul\":2264:2329   */\n      swap1\n      pop\n        /* \"#utility.yul\":2209:2335   */\n      swap2\n      swap1\n      pop\n      jump\t// out\n        /* \"#utility.yul\":2341:2437   */\n    tag_574:\n        /* \"#utility.yul\":2378:2385   */\n      0x00\n        /* \"#utility.yul\":2407:2431   */\n      tag_666\n        /* \"#utility.yul\":2425:2430   */\n      dup3\n        /* \"#utility.yul\":2407:2431   */\n      tag_573\n      jump\t// in\n    tag_666:\n        /* \"#utility.yul\":2396:2431   */\n      swap1\n      pop\n        /* \"#utility.yul\":2341:2437   */\n      swap2\n      swap1\n      pop\n      jump\t// out\n        /* \"#utility.yul\":2443:2565   */\n    tag_575:\n        /* \"#utility.yul\":2516:2540   */\n      tag_668\n        /* \"#utility.yul\":2534:2539   */\n      dup2\n        /* \"#utility.yul\":2516:2540   */\n      tag_574\n      jump\t// in\n    tag_668:\n        /* \"#utility.yul\":2509:2514   */\n      dup2\n        /* \"#utility.yul\":2506:2541   */\n      eq\n        /* \"#utility.yul\":2496:2559   */\n      tag_669\n      jumpi\n        /* \"#utility.yul\":2555:2556   */\n      0x00\n        /* \"#utility.yul\":2552:2553   */\n      dup1\n        /* \"#utility.yul\":2545:2557   */\n      revert\n        /* \"#utility.yul\":2496:2559   */\n    tag_669:\n        /* \"#utility.yul\":2443:2565   */\n      pop\n      jump\t// out\n        /* \"#utility.yul\":2571:2710   */\n    tag_576:\n        /* \"#utility.yul\":2617:2622   */\n      0x00\n        /* \"#utility.yul\":2655:2661   */\n      dup2\n        /* \"#utility.yul\":2642:2662   */\n      calldataload\n        /* \"#utility.yul\":2633:2662   */\n      swap1\n      pop\n        /* \"#utility.yul\":2671:2704   */\n      tag_671\n        /* \"#utility.yul\":2698:2703   */\n      dup2\n        /* \"#utility.yul\":2671:2704   */\n      tag_575\n      jump\t// in\n    tag_671:\n        /* \"#utility.yul\":2571:2710   */\n      swap3\n      swap2\n      pop\n      pop\n      jump\t// out\n        /* \"#utility.yul\":2716:3190   */\n    tag_55:\n        /* \"#utility.yul\":2784:2790   */\n      0x00\n        /* \"#utility.yul\":2792:2798   */\n      dup1\n        /* \"#utility.yul\":2841:2843   */\n      0x40\n        /* \"#utility.yul\":2829:2838   */\n      dup4\n        /* \"#utility.yul\":2820:2827   */\n      dup6\n        /* \"#utility.yul\":2816:2839   */\n      sub\n        /* \"#utility.yul\":2812:2844   */\n      slt\n        /* \"#utility.yul\":2809:2928   */\n      iszero\n      tag_673\n      jumpi\n        /* \"#utility.yul\":2847:2926   */\n      tag_674\n      tag_563\n      jump\t// in\n    tag_674:\n        /* \"#utility.yul\":2809:2928   */\n    tag_673:\n        /* \"#utility.yul\":2967:2968   */\n      0x00\n        /* \"#utility.yul\":2992:3045   */\n      tag_675\n        /* \"#utility.yul\":3037:3044   */\n      dup6\n        /* \"#utility.yul\":3028:3034   */\n      dup3\n        /* \"#utility.yul\":3017:3026   */\n      dup7\n        /* \"#utility.yul\":3013:3035   */\n      add\n        /* \"#utility.yul\":2992:3045   */\n      tag_576\n      jump\t// in\n    tag_675:\n        /* \"#utility.yul\":2982:3045   */\n      swap3\n      pop\n        /* \"#utility.yul\":2938:3055   */\n      pop\n        /* \"#utility.yul\":3094:3096   */\n      0x20\n        /* \"#utility.yul\":3120:3173   */\n      tag_676\n        /* \"#utility.yul\":3165:3172   */\n      dup6\n        /* \"#utility.yul\":3156:3162   */\n      dup3\n        /* \"#utility.yul\":3145:3154   */\n      dup7\n        /* \"#utility.yul\":3141:3163   */\n      add\n        /* \"#utility.yul\":3120:3173   */\n      tag_572\n      jump\t// in\n    tag_676:\n        /* \"#utility.yul\":3110:3173   */\n      swap2\n      pop\n        /* \"#utility.yul\":3065:3183   */\n      pop\n        /* \"#utility.yul\":2716:3190   */\n      swap3\n      pop\n      swap3\n      swap1\n      pop\n      jump\t// out\n        /* \"#utility.yul\":3196:3525   */\n    tag_60:\n        /* \"#utility.yul\":3255:3261   */\n      0x00\n        /* \"#utility.yul\":3304:3306   */\n      0x20\n        /* \"#utility.yul\":3292:3301   */\n      dup3\n        /* \"#utility.yul\":3283:3290   */\n      dup5\n        /* \"#utility.yul\":3279:3302   */\n      sub\n        /* \"#utility.yul\":3275:3307   */\n      slt\n        /* \"#utility.yul\":3272:3391   */\n      iszero\n      tag_678\n      jumpi\n        /* \"#utility.yul\":3310:3389   */\n      tag_679\n      tag_563\n      jump\t// in\n    tag_679:\n        /* \"#utility.yul\":3272:3391   */\n    tag_678:\n        /* \"#utility.yul\":3430:3431   */\n      0x00\n        /* \"#utility.yul\":3455:3508   */\n      tag_680\n        /* \"#utility.yul\":3500:3507   */\n      dup5\n        /* \"#utility.yul\":3491:3497   */\n      dup3\n        /* \"#utility.yul\":3480:3489   */\n      dup6\n        /* \"#utility.yul\":3476:3498   */\n      add\n        /* \"#utility.yul\":3455:3508   */\n      tag_576\n      jump\t// in\n    tag_680:\n        /* \"#utility.yul\":3445:3508   */\n      swap2\n      pop\n        /* \"#utility.yul\":3401:3518   */\n      pop\n        /* \"#utility.yul\":3196:3525   */\n      swap3\n      swap2\n      pop\n      pop\n      jump\t// out\n        /* \"#utility.yul\":3531:3649   */\n    tag_577:\n        /* \"#utility.yul\":3618:3642   */\n      tag_682\n        /* \"#utility.yul\":3636:3641   */\n      dup2\n        /* \"#utility.yul\":3618:3642   */\n      tag_570\n      jump\t// in\n    tag_682:\n        /* \"#utility.yul\":3613:3616   */\n      dup3\n        /* \"#utility.yul\":3606:3643   */\n      mstore\n        /* \"#utility.yul\":3531:3649   */\n      pop\n      pop\n      jump\t// out\n        /* \"#utility.yul\":3655:4097   */\n    tag_63:\n        /* \"#utility.yul\":3804:3808   */\n      0x00\n        /* \"#utility.yul\":3842:3844   */\n      0x60\n        /* \"#utility.yul\":3831:3840   */\n      dup3\n        /* \"#utility.yul\":3827:3845   */\n      add\n        /* \"#utility.yul\":3819:3845   */\n      swap1\n      pop\n        /* \"#utility.yul\":3855:3926   */\n      tag_684\n        /* \"#utility.yul\":3923:3924   */\n      0x00\n        /* \"#utility.yul\":3912:3921   */\n      dup4\n        /* \"#utility.yul\":3908:3925   */\n      add\n        /* \"#utility.yul\":3899:3905   */\n      dup7\n        /* \"#utility.yul\":3855:3926   */\n      tag_577\n      jump\t// in\n    tag_684:\n        /* \"#utility.yul\":3936:4008   */\n      tag_685\n        /* \"#utility.yul\":4004:4006   */\n      0x20\n        /* \"#utility.yul\":3993:4002   */\n      dup4\n        /* \"#utility.yul\":3989:4007   */\n      add\n        /* \"#utility.yul\":3980:3986   */\n      dup6\n        /* \"#utility.yul\":3936:4008   */\n      tag_577\n      jump\t// in\n    tag_685:\n        /* \"#utility.yul\":4018:4090   */\n      tag_686\n        /* \"#utility.yul\":4086:4088   */\n      0x40\n        /* \"#utility.yul\":4075:4084   */\n      dup4\n        /* \"#utility.yul\":4071:4089   */\n      add\n        /* \"#utility.yul\":4062:4068   */\n      dup5\n        /* \"#utility.yul\":4018:4090   */\n      tag_577\n      jump\t// in\n    tag_686:\n        /* \"#utility.yul\":3655:4097   */\n      swap5\n      swap4\n      pop\n      pop\n      pop\n      pop\n      jump\t// out\n        /* \"#utility.yul\":4103:4180   */\n    tag_578:\n        /* \"#utility.yul\":4140:4147   */\n      0x00\n        /* \"#utility.yul\":4169:4174   */\n      dup2\n        /* \"#utility.yul\":4158:4174   */\n      swap1\n      pop\n        /* \"#utility.yul\":4103:4180   */\n      swap2\n      swap1\n      pop\n      jump\t// out\n        /* \"#utility.yul\":4186:4304   */\n    tag_579:\n        /* \"#utility.yul\":4273:4297   */\n      tag_689\n        /* \"#utility.yul\":4291:4296   */\n      dup2\n        /* \"#utility.yul\":4273:4297   */\n      tag_578\n      jump\t// in\n    tag_689:\n        /* \"#utility.yul\":4268:4271   */\n      dup3\n        /* \"#utility.yul\":4261:4298   */\n      mstore\n        /* \"#utility.yul\":4186:4304   */\n      pop\n      pop\n      jump\t// out\n        /* \"#utility.yul\":4310:4532   */\n    tag_68:\n        /* \"#utility.yul\":4403:4407   */\n      0x00\n        /* \"#utility.yul\":4441:4443   */\n      0x20\n        /* \"#utility.yul\":4430:4439   */\n      dup3\n        /* \"#utility.yul\":4426:4444   */\n      add\n        /* \"#utility.yul\":4418:4444   */\n      swap1\n      pop\n        /* \"#utility.yul\":4454:4525   */\n      tag_691\n        /* \"#utility.yul\":4522:4523   */\n      0x00\n        /* \"#utility.yul\":4511:4520   */\n      dup4\n        /* \"#utility.yul\":4507:4524   */\n      add\n        /* \"#utility.yul\":4498:4504   */\n      dup5\n        /* \"#utility.yul\":4454:4525   */\n      tag_579\n      jump\t// in\n    tag_691:\n        /* \"#utility.yul\":4310:4532   */\n      swap3\n      swap2\n      pop\n      pop\n      jump\t// out\n        /* \"#utility.yul\":4538:4660   */\n    tag_580:\n        /* \"#utility.yul\":4611:4635   */\n      tag_693\n        /* \"#utility.yul\":4629:4634   */\n      dup2\n        /* \"#utility.yul\":4611:4635   */\n      tag_578\n      jump\t// in\n    tag_693:\n        /* \"#utility.yul\":4604:4609   */\n      dup2\n        /* \"#utility.yul\":4601:4636   */\n      eq\n        /* \"#utility.yul\":4591:4654   */\n      tag_694\n      jumpi\n        /* \"#utility.yul\":4650:4651   */\n      0x00\n        /* \"#utility.yul\":4647:4648   */\n      dup1\n        /* \"#utility.yul\":4640:4652   */\n      revert\n        /* \"#utility.yul\":4591:4654   */\n    tag_694:\n        /* \"#utility.yul\":4538:4660   */\n      pop\n      jump\t// out\n        /* \"#utility.yul\":4666:4805   */\n    tag_581:\n        /* \"#utility.yul\":4712:4717   */\n      0x00\n        /* \"#utility.yul\":4750:4756   */\n      dup2\n        /* \"#utility.yul\":4737:4757   */\n      calldataload\n        /* \"#utility.yul\":4728:4757   */\n      swap1\n      pop\n        /* \"#utility.yul\":4766:4799   */\n      tag_696\n        /* \"#utility.yul\":4793:4798   */\n      dup2\n        /* \"#utility.yul\":4766:4799   */\n      tag_580\n      jump\t// in\n    tag_696:\n        /* \"#utility.yul\":4666:4805   */\n      swap3\n      swap2\n      pop\n      pop\n      jump\t// out\n        /* \"#utility.yul\":4811:5140   */\n    tag_72:\n        /* \"#utility.yul\":4870:4876   */\n      0x00\n        /* \"#utility.yul\":4919:4921   */\n      0x20\n        /* \"#utility.yul\":4907:4916   */\n      dup3\n        /* \"#utility.yul\":4898:4905   */\n      dup5\n        /* \"#utility.yul\":4894:4917   */\n      sub\n        /* \"#utility.yul\":4890:4922   */\n      slt\n        /* \"#utility.yul\":4887:5006   */\n      iszero\n      tag_698\n      jumpi\n        /* \"#utility.yul\":4925:5004   */\n      tag_699\n      tag_563\n      jump\t// in\n    tag_699:\n        /* \"#utility.yul\":4887:5006   */\n    tag_698:\n        /* \"#utility.yul\":5045:5046   */\n      0x00\n        /* \"#utility.yul\":5070:5123   */\n      tag_700\n        /* \"#utility.yul\":5115:5122   */\n      dup5\n        /* \"#utility.yul\":5106:5112   */\n      dup3\n        /* \"#utility.yul\":5095:5104   */\n      dup6\n        /* \"#utility.yul\":5091:5113   */\n      add\n        /* \"#utility.yul\":5070:5123   */\n      tag_581\n      jump\t// in\n    tag_700:\n        /* \"#utility.yul\":5060:5123   */\n      swap2\n      pop\n        /* \"#utility.yul\":5016:5133   */\n      pop\n        /* \"#utility.yul\":4811:5140   */\n      swap3\n      swap2\n      pop\n      pop\n      jump\t// out\n        /* \"#utility.yul\":5146:5368   */\n    tag_79:\n        /* \"#utility.yul\":5239:5243   */\n      0x00\n        /* \"#utility.yul\":5277:5279   */\n      0x20\n        /* \"#utility.yul\":5266:5275   */\n      dup3\n        /* \"#utility.yul\":5262:5280   */\n      add\n        /* \"#utility.yul\":5254:5280   */\n      swap1\n      pop\n        /* \"#utility.yul\":5290:5361   */\n      tag_702\n        /* \"#utility.yul\":5358:5359   */\n      0x00\n        /* \"#utility.yul\":5347:5356   */\n      dup4\n        /* \"#utility.yul\":5343:5360   */\n      add\n        /* \"#utility.yul\":5334:5340   */\n      dup5\n        /* \"#utility.yul\":5290:5361   */\n      tag_577\n      jump\t// in\n    tag_702:\n        /* \"#utility.yul\":5146:5368   */\n      swap3\n      swap2\n      pop\n      pop\n      jump\t// out\n        /* \"#utility.yul\":5374:5848   */\n    tag_83:\n        /* \"#utility.yul\":5442:5448   */\n      0x00\n        /* \"#utility.yul\":5450:5456   */\n      dup1\n        /* \"#utility.yul\":5499:5501   */\n      0x40\n        /* \"#utility.yul\":5487:5496   */\n      dup4\n        /* \"#utility.yul\":5478:5485   */\n      dup6\n        /* \"#utility.yul\":5474:5497   */\n      sub\n        /* \"#utility.yul\":5470:5502   */\n      slt\n        /* \"#utility.yul\":5467:5586   */\n      iszero\n      tag_704\n      jumpi\n        /* \"#utility.yul\":5505:5584   */\n      tag_705\n      tag_563\n      jump\t// in\n    tag_705:\n        /* \"#utility.yul\":5467:5586   */\n    tag_704:\n        /* \"#utility.yul\":5625:5626   */\n      0x00\n        /* \"#utility.yul\":5650:5703   */\n      tag_706\n        /* \"#utility.yul\":5695:5702   */\n      dup6\n        /* \"#utility.yul\":5686:5692   */\n      dup3\n        /* \"#utility.yul\":5675:5684   */\n      dup7\n        /* \"#utility.yul\":5671:5693   */\n      add\n        /* \"#utility.yul\":5650:5703   */\n      tag_581\n      jump\t// in\n    tag_706:\n        /* \"#utility.yul\":5640:5703   */\n      swap3\n      pop\n        /* \"#utility.yul\":5596:5713   */\n      pop\n        /* \"#utility.yul\":5752:5754   */\n      0x20\n        /* \"#utility.yul\":5778:5831   */\n      tag_707\n        /* \"#utility.yul\":5823:5830   */\n      dup6\n        /* \"#utility.yul\":5814:5820   */\n      dup3\n        /* \"#utility.yul\":5803:5812   */\n      dup7\n        /* \"#utility.yul\":5799:5821   */\n      add\n        /* \"#utility.yul\":5778:5831   */\n      tag_576\n      jump\t// in\n    tag_707:\n        /* \"#utility.yul\":5768:5831   */\n      swap2\n      pop\n        /* \"#utility.yul\":5723:5841   */\n      pop\n        /* \"#utility.yul\":5374:5848   */\n      swap3\n      pop\n      swap3\n      swap1\n      pop\n      jump\t// out\n        /* \"#utility.yul\":5854:5914   */\n    tag_582:\n        /* \"#utility.yul\":5882:5885   */\n      0x00\n        /* \"#utility.yul\":5903:5908   */\n      dup2\n        /* \"#utility.yul\":5896:5908   */\n      swap1\n      pop\n        /* \"#utility.yul\":5854:5914   */\n      swap2\n      swap1\n      pop\n      jump\t// out\n        /* \"#utility.yul\":5920:6062   */\n    tag_583:\n        /* \"#utility.yul\":5970:5979   */\n      0x00\n        /* \"#utility.yul\":6003:6056   */\n      tag_710\n        /* \"#utility.yul\":6021:6055   */\n      tag_711\n        /* \"#utility.yul\":6030:6054   */\n      tag_712\n        /* \"#utility.yul\":6048:6053   */\n      dup5\n        /* \"#utility.yul\":6030:6054   */\n      tag_573\n      jump\t// in\n    tag_712:\n        /* \"#utility.yul\":6021:6055   */\n      tag_582\n      jump\t// in\n    tag_711:\n        /* \"#utility.yul\":6003:6056   */\n      tag_573\n      jump\t// in\n    tag_710:\n        /* \"#utility.yul\":5990:6056   */\n      swap1\n      pop\n        /* \"#utility.yul\":5920:6062   */\n      swap2\n      swap1\n      pop\n      jump\t// out\n        /* \"#utility.yul\":6068:6194   */\n    tag_584:\n        /* \"#utility.yul\":6118:6127   */\n      0x00\n        /* \"#utility.yul\":6151:6188   */\n      tag_714\n        /* \"#utility.yul\":6182:6187   */\n      dup3\n        /* \"#utility.yul\":6151:6188   */\n      tag_583\n      jump\t// in\n    tag_714:\n        /* \"#utility.yul\":6138:6188   */\n      swap1\n      pop\n        /* \"#utility.yul\":6068:6194   */\n      swap2\n      swap1\n      pop\n      jump\t// out\n        /* \"#utility.yul\":6200:6351   */\n    tag_585:\n        /* \"#utility.yul\":6275:6284   */\n      0x00\n        /* \"#utility.yul\":6308:6345   */\n      tag_716\n        /* \"#utility.yul\":6339:6344   */\n      dup3\n        /* \"#utility.yul\":6308:6345   */\n      tag_584\n      jump\t// in\n    tag_716:\n        /* \"#utility.yul\":6295:6345   */\n      swap1\n      pop\n        /* \"#utility.yul\":6200:6351   */\n      swap2\n      swap1\n      pop\n      jump\t// out\n        /* \"#utility.yul\":6357:6538   */\n    tag_586:\n        /* \"#utility.yul\":6469:6531   */\n      tag_718\n        /* \"#utility.yul\":6525:6530   */\n      dup2\n        /* \"#utility.yul\":6469:6531   */\n      tag_585\n      jump\t// in\n    tag_718:\n        /* \"#utility.yul\":6464:6467   */\n      dup3\n        /* \"#utility.yul\":6457:6532   */\n      mstore\n        /* \"#utility.yul\":6357:6538   */\n      pop\n      pop\n      jump\t// out\n        /* \"#utility.yul\":6544:6816   */\n    tag_89:\n        /* \"#utility.yul\":6662:6666   */\n      0x00\n        /* \"#utility.yul\":6700:6702   */\n      0x20\n        /* \"#utility.yul\":6689:6698   */\n      dup3\n        /* \"#utility.yul\":6685:6703   */\n      add\n        /* \"#utility.yul\":6677:6703   */\n      swap1\n      pop\n        /* \"#utility.yul\":6713:6809   */\n      tag_720\n        /* \"#utility.yul\":6806:6807   */\n      0x00\n        /* \"#utility.yul\":6795:6804   */\n      dup4\n        /* \"#utility.yul\":6791:6808   */\n      add\n        /* \"#utility.yul\":6782:6788   */\n      dup5\n        /* \"#utility.yul\":6713:6809   */\n      tag_586\n      jump\t// in\n    tag_720:\n        /* \"#utility.yul\":6544:6816   */\n      swap3\n      swap2\n      pop\n      pop\n      jump\t// out\n        /* \"#utility.yul\":6822:7296   */\n    tag_99:\n        /* \"#utility.yul\":6890:6896   */\n      0x00\n        /* \"#utility.yul\":6898:6904   */\n      dup1\n        /* \"#utility.yul\":6947:6949   */\n      0x40\n        /* \"#utility.yul\":6935:6944   */\n      dup4\n        /* \"#utility.yul\":6926:6933   */\n      dup6\n        /* \"#utility.yul\":6922:6945   */\n      sub\n        /* \"#utility.yul\":6918:6950   */\n      slt\n        /* \"#utility.yul\":6915:7034   */\n      iszero\n      tag_722\n      jumpi\n        /* \"#utility.yul\":6953:7032   */\n      tag_723\n      tag_563\n      jump\t// in\n    tag_723:\n        /* \"#utility.yul\":6915:7034   */\n    tag_722:\n        /* \"#utility.yul\":7073:7074   */\n      0x00\n        /* \"#utility.yul\":7098:7151   */\n      tag_724\n        /* \"#utility.yul\":7143:7150   */\n      dup6\n        /* \"#utility.yul\":7134:7140   */\n      dup3\n        /* \"#utility.yul\":7123:7132   */\n      dup7\n        /* \"#utility.yul\":7119:7141   */\n      add\n        /* \"#utility.yul\":7098:7151   */\n      tag_572\n      jump\t// in\n    tag_724:\n        /* \"#utility.yul\":7088:7151   */\n      swap3\n      pop\n        /* \"#utility.yul\":7044:7161   */\n      pop\n        /* \"#utility.yul\":7200:7202   */\n      0x20\n        /* \"#utility.yul\":7226:7279   */\n      tag_725\n        /* \"#utility.yul\":7271:7278   */\n      dup6\n        /* \"#utility.yul\":7262:7268   */\n      dup3\n        /* \"#utility.yul\":7251:7260   */\n      dup7\n        /* \"#utility.yul\":7247:7269   */\n      add\n        /* \"#utility.yul\":7226:7279   */\n      tag_572\n      jump\t// in\n    tag_725:\n        /* \"#utility.yul\":7216:7279   */\n      swap2\n      pop\n        /* \"#utility.yul\":7171:7289   */\n      pop\n        /* \"#utility.yul\":6822:7296   */\n      swap3\n      pop\n      swap3\n      swap1\n      pop\n      jump\t// out\n        /* \"#utility.yul\":7302:7419   */\n    tag_587:\n        /* \"#utility.yul\":7411:7412   */\n      0x00\n        /* \"#utility.yul\":7408:7409   */\n      dup1\n        /* \"#utility.yul\":7401:7413   */\n      revert\n        /* \"#utility.yul\":7425:7542   */\n    tag_588:\n        /* \"#utility.yul\":7534:7535   */\n      0x00\n        /* \"#utility.yul\":7531:7532   */\n      dup1\n        /* \"#utility.yul\":7524:7536   */\n      revert\n        /* \"#utility.yul\":7548:7650   */\n    tag_589:\n        /* \"#utility.yul\":7589:7595   */\n      0x00\n        /* \"#utility.yul\":7640:7642   */\n      0x1f\n        /* \"#utility.yul\":7636:7643   */\n      not\n        /* \"#utility.yul\":7631:7633   */\n      0x1f\n        /* \"#utility.yul\":7624:7629   */\n      dup4\n        /* \"#utility.yul\":7620:7634   */\n      add\n        /* \"#utility.yul\":7616:7644   */\n      and\n        /* \"#utility.yul\":7606:7644   */\n      swap1\n      pop\n        /* \"#utility.yul\":7548:7650   */\n      swap2\n      swap1\n      pop\n      jump\t// out\n        /* \"#utility.yul\":7656:7836   */\n    tag_590:\n        /* \"#utility.yul\":7704:7781   */\n      0x4e487b7100000000000000000000000000000000000000000000000000000000\n        /* \"#utility.yul\":7701:7702   */\n      0x00\n        /* \"#utility.yul\":7694:7782   */\n      mstore\n        /* \"#utility.yul\":7801:7805   */\n      0x41\n        /* \"#utility.yul\":7798:7799   */\n      0x04\n        /* \"#utility.yul\":7791:7806   */\n      mstore\n        /* \"#utility.yul\":7825:7829   */\n      0x24\n        /* \"#utility.yul\":7822:7823   */\n      0x00\n        /* \"#utility.yul\":7815:7830   */\n      revert\n        /* \"#utility.yul\":7842:8123   */\n    tag_591:\n        /* \"#utility.yul\":7925:7952   */\n      tag_731\n        /* \"#utility.yul\":7947:7951   */\n      dup3\n        /* \"#utility.yul\":7925:7952   */\n      tag_589\n      jump\t// in\n    tag_731:\n        /* \"#utility.yul\":7917:7923   */\n      dup2\n        /* \"#utility.yul\":7913:7953   */\n      add\n        /* \"#utility.yul\":8055:8061   */\n      dup2\n        /* \"#utility.yul\":8043:8053   */\n      dup2\n        /* \"#utility.yul\":8040:8062   */\n      lt\n        /* \"#utility.yul\":8019:8037   */\n      0xffffffffffffffff\n        /* \"#utility.yul\":8007:8017   */\n      dup3\n        /* \"#utility.yul\":8004:8038   */\n      gt\n        /* \"#utility.yul\":8001:8063   */\n      or\n        /* \"#utility.yul\":7998:8086   */\n      iszero\n      tag_732\n      jumpi\n        /* \"#utility.yul\":8066:8084   */\n      tag_733\n      tag_590\n      jump\t// in\n    tag_733:\n        /* \"#utility.yul\":7998:8086   */\n    tag_732:\n        /* \"#utility.yul\":8106:8116   */\n      dup1\n        /* \"#utility.yul\":8102:8104   */\n      0x40\n        /* \"#utility.yul\":8095:8117   */\n      mstore\n        /* \"#utility.yul\":7885:8123   */\n      pop\n        /* \"#utility.yul\":7842:8123   */\n      pop\n      pop\n      jump\t// out\n        /* \"#utility.yul\":8129:8258   */\n    tag_592:\n        /* \"#utility.yul\":8163:8169   */\n      0x00\n        /* \"#utility.yul\":8190:8210   */\n      tag_735\n      tag_562\n      jump\t// in\n    tag_735:\n        /* \"#utility.yul\":8180:8210   */\n      swap1\n      pop\n        /* \"#utility.yul\":8219:8252   */\n      tag_736\n        /* \"#utility.yul\":8247:8251   */\n      dup3\n        /* \"#utility.yul\":8239:8245   */\n      dup3\n        /* \"#utility.yul\":8219:8252   */\n      tag_591\n      jump\t// in\n    tag_736:\n        /* \"#utility.yul\":8129:8258   */\n      swap2\n      swap1\n      pop\n      jump\t// out\n        /* \"#utility.yul\":8264:8571   */\n    tag_593:\n        /* \"#utility.yul\":8325:8329   */\n      0x00\n        /* \"#utility.yul\":8415:8433   */\n      0xffffffffffffffff\n        /* \"#utility.yul\":8407:8413   */\n      dup3\n        /* \"#utility.yul\":8404:8434   */\n      gt\n        /* \"#utility.yul\":8401:8457   */\n      iszero\n      tag_738\n      jumpi\n        /* \"#utility.yul\":8437:8455   */\n      tag_739\n      tag_590\n      jump\t// in\n    tag_739:\n        /* \"#utility.yul\":8401:8457   */\n    tag_738:\n        /* \"#utility.yul\":8475:8504   */\n      tag_740\n        /* \"#utility.yul\":8497:8503   */\n      dup3\n        /* \"#utility.yul\":8475:8504   */\n      tag_589\n      jump\t// in\n    tag_740:\n        /* \"#utility.yul\":8467:8504   */\n      swap1\n      pop\n        /* \"#utility.yul\":8559:8563   */\n      0x20\n        /* \"#utility.yul\":8553:8557   */\n      dup2\n        /* \"#utility.yul\":8549:8564   */\n      add\n        /* \"#utility.yul\":8541:8564   */\n      swap1\n      pop\n        /* \"#utility.yul\":8264:8571   */\n      swap2\n      swap1\n      pop\n      jump\t// out\n        /* \"#utility.yul\":8577:8725   */\n    tag_594:\n        /* \"#utility.yul\":8675:8681   */\n      dup3\n        /* \"#utility.yul\":8670:8673   */\n      dup2\n        /* \"#utility.yul\":8665:8668   */\n      dup4\n        /* \"#utility.yul\":8652:8682   */\n      calldatacopy\n        /* \"#utility.yul\":8716:8717   */\n      0x00\n        /* \"#utility.yul\":8707:8713   */\n      dup4\n        /* \"#utility.yul\":8702:8705   */\n      dup4\n        /* \"#utility.yul\":8698:8714   */\n      add\n        /* \"#utility.yul\":8691:8718   */\n      mstore\n        /* \"#utility.yul\":8577:8725   */\n      pop\n      pop\n      pop\n      jump\t// out\n        /* \"#utility.yul\":8731:9154   */\n    tag_595:\n        /* \"#utility.yul\":8808:8813   */\n      0x00\n        /* \"#utility.yul\":8833:8898   */\n      tag_743\n        /* \"#utility.yul\":8849:8897   */\n      tag_744\n        /* \"#utility.yul\":8890:8896   */\n      dup5\n        /* \"#utility.yul\":8849:8897   */\n      tag_593\n      jump\t// in\n    tag_744:\n        /* \"#utility.yul\":8833:8898   */\n      tag_592\n      jump\t// in\n    tag_743:\n        /* \"#utility.yul\":8824:8898   */\n      swap1\n      pop\n        /* \"#utility.yul\":8921:8927   */\n      dup3\n        /* \"#utility.yul\":8914:8919   */\n      dup2\n        /* \"#utility.yul\":8907:8928   */\n      mstore\n        /* \"#utility.yul\":8959:8963   */\n      0x20\n        /* \"#utility.yul\":8952:8957   */\n      dup2\n        /* \"#utility.yul\":8948:8964   */\n      add\n        /* \"#utility.yul\":8997:9000   */\n      dup5\n        /* \"#utility.yul\":8988:8994   */\n      dup5\n        /* \"#utility.yul\":8983:8986   */\n      dup5\n        /* \"#utility.yul\":8979:8995   */\n      add\n        /* \"#utility.yul\":8976:9001   */\n      gt\n        /* \"#utility.yul\":8973:9085   */\n      iszero\n      tag_745\n      jumpi\n        /* \"#utility.yul\":9004:9083   */\n      tag_746\n      tag_588\n      jump\t// in\n    tag_746:\n        /* \"#utility.yul\":8973:9085   */\n    tag_745:\n        /* \"#utility.yul\":9094:9148   */\n      tag_747\n        /* \"#utility.yul\":9141:9147   */\n      dup5\n        /* \"#utility.yul\":9136:9139   */\n      dup3\n        /* \"#utility.yul\":9131:9134   */\n      dup6\n        /* \"#utility.yul\":9094:9148   */\n      tag_594\n      jump\t// in\n    tag_747:\n        /* \"#utility.yul\":8814:9154   */\n      pop\n        /* \"#utility.yul\":8731:9154   */\n      swap4\n      swap3\n      pop\n      pop\n      pop\n      jump\t// out\n        /* \"#utility.yul\":9173:9511   */\n    tag_596:\n        /* \"#utility.yul\":9228:9233   */\n      0x00\n        /* \"#utility.yul\":9277:9280   */\n      dup3\n        /* \"#utility.yul\":9270:9274   */\n      0x1f\n        /* \"#utility.yul\":9262:9268   */\n      dup4\n        /* \"#utility.yul\":9258:9275   */\n      add\n        /* \"#utility.yul\":9254:9281   */\n      slt\n        /* \"#utility.yul\":9244:9366   */\n      tag_749\n      jumpi\n        /* \"#utility.yul\":9285:9364   */\n      tag_750\n      tag_587\n      jump\t// in\n    tag_750:\n        /* \"#utility.yul\":9244:9366   */\n    tag_749:\n        /* \"#utility.yul\":9402:9408   */\n      dup2\n        /* \"#utility.yul\":9389:9409   */\n      calldataload\n        /* \"#utility.yul\":9427:9505   */\n      tag_751\n        /* \"#utility.yul\":9501:9504   */\n      dup5\n        /* \"#utility.yul\":9493:9499   */\n      dup3\n        /* \"#utility.yul\":9486:9490   */\n      0x20\n        /* \"#utility.yul\":9478:9484   */\n      dup7\n        /* \"#utility.yul\":9474:9491   */\n      add\n        /* \"#utility.yul\":9427:9505   */\n      tag_595\n      jump\t// in\n    tag_751:\n        /* \"#utility.yul\":9418:9505   */\n      swap2\n      pop\n        /* \"#utility.yul\":9234:9511   */\n      pop\n        /* \"#utility.yul\":9173:9511   */\n      swap3\n      swap2\n      pop\n      pop\n      jump\t// out\n        /* \"#utility.yul\":9517:10169   */\n    tag_103:\n        /* \"#utility.yul\":9594:9600   */\n      0x00\n        /* \"#utility.yul\":9602:9608   */\n      dup1\n        /* \"#utility.yul\":9651:9653   */\n      0x40\n        /* \"#utility.yul\":9639:9648   */\n      dup4\n        /* \"#utility.yul\":9630:9637   */\n      dup6\n        /* \"#utility.yul\":9626:9649   */\n      sub\n        /* \"#utility.yul\":9622:9654   */\n      slt\n        /* \"#utility.yul\":9619:9738   */\n      iszero\n      tag_753\n      jumpi\n        /* \"#utility.yul\":9657:9736   */\n      tag_754\n      tag_563\n      jump\t// in\n    tag_754:\n        /* \"#utility.yul\":9619:9738   */\n    tag_753:\n        /* \"#utility.yul\":9777:9778   */\n      0x00\n        /* \"#utility.yul\":9802:9855   */\n      tag_755\n        /* \"#utility.yul\":9847:9854   */\n      dup6\n        /* \"#utility.yul\":9838:9844   */\n      dup3\n        /* \"#utility.yul\":9827:9836   */\n      dup7\n        /* \"#utility.yul\":9823:9845   */\n      add\n        /* \"#utility.yul\":9802:9855   */\n      tag_576\n      jump\t// in\n    tag_755:\n        /* \"#utility.yul\":9792:9855   */\n      swap3\n      pop\n        /* \"#utility.yul\":9748:9865   */\n      pop\n        /* \"#utility.yul\":9932:9934   */\n      0x20\n        /* \"#utility.yul\":9921:9930   */\n      dup4\n        /* \"#utility.yul\":9917:9935   */\n      add\n        /* \"#utility.yul\":9904:9936   */\n      calldataload\n        /* \"#utility.yul\":9963:9981   */\n      0xffffffffffffffff\n        /* \"#utility.yul\":9955:9961   */\n      dup2\n        /* \"#utility.yul\":9952:9982   */\n      gt\n        /* \"#utility.yul\":9949:10066   */\n      iszero\n      tag_756\n      jumpi\n        /* \"#utility.yul\":9985:10064   */\n      tag_757\n      tag_564\n      jump\t// in\n    tag_757:\n        /* \"#utility.yul\":9949:10066   */\n    tag_756:\n        /* \"#utility.yul\":10090:10152   */\n      tag_758\n        /* \"#utility.yul\":10144:10151   */\n      dup6\n        /* \"#utility.yul\":10135:10141   */\n      dup3\n        /* \"#utility.yul\":10124:10133   */\n      dup7\n        /* \"#utility.yul\":10120:10142   */\n      add\n        /* \"#utility.yul\":10090:10152   */\n      tag_596\n      jump\t// in\n    tag_758:\n        /* \"#utility.yul\":10080:10152   */\n      swap2\n      pop\n        /* \"#utility.yul\":9875:10162   */\n      pop\n        /* \"#utility.yul\":9517:10169   */\n      swap3\n      pop\n      swap3\n      swap1\n      pop\n      jump\t// out\n        /* \"#utility.yul\":10175:10507   */\n    tag_133:\n        /* \"#utility.yul\":10296:10300   */\n      0x00\n        /* \"#utility.yul\":10334:10336   */\n      0x40\n        /* \"#utility.yul\":10323:10332   */\n      dup3\n        /* \"#utility.yul\":10319:10337   */\n      add\n        /* \"#utility.yul\":10311:10337   */\n      swap1\n      pop\n        /* \"#utility.yul\":10347:10418   */\n      tag_760\n        /* \"#utility.yul\":10415:10416   */\n      0x00\n        /* \"#utility.yul\":10404:10413   */\n      dup4\n        /* \"#utility.yul\":10400:10417   */\n      add\n        /* \"#utility.yul\":10391:10397   */\n      dup6\n        /* \"#utility.yul\":10347:10418   */\n      tag_577\n      jump\t// in\n    tag_760:\n        /* \"#utility.yul\":10428:10500   */\n      tag_761\n        /* \"#utility.yul\":10496:10498   */\n      0x20\n        /* \"#utility.yul\":10485:10494   */\n      dup4\n        /* \"#utility.yul\":10481:10499   */\n      add\n        /* \"#utility.yul\":10472:10478   */\n      dup5\n        /* \"#utility.yul\":10428:10500   */\n      tag_577\n      jump\t// in\n    tag_761:\n        /* \"#utility.yul\":10175:10507   */\n      swap4\n      swap3\n      pop\n      pop\n      pop\n      jump\t// out\n        /* \"#utility.yul\":10513:10612   */\n    tag_597:\n        /* \"#utility.yul\":10565:10571   */\n      0x00\n        /* \"#utility.yul\":10599:10604   */\n      dup2\n        /* \"#utility.yul\":10593:10605   */\n      mload\n        /* \"#utility.yul\":10583:10605   */\n      swap1\n      pop\n        /* \"#utility.yul\":10513:10612   */\n      swap2\n      swap1\n      pop\n      jump\t// out\n        /* \"#utility.yul\":10618:10787   */\n    tag_598:\n        /* \"#utility.yul\":10702:10713   */\n      0x00\n        /* \"#utility.yul\":10736:10742   */\n      dup3\n        /* \"#utility.yul\":10731:10734   */\n      dup3\n        /* \"#utility.yul\":10724:10743   */\n      mstore\n        /* \"#utility.yul\":10776:10780   */\n      0x20\n        /* \"#utility.yul\":10771:10774   */\n      dup3\n        /* \"#utility.yul\":10767:10781   */\n      add\n        /* \"#utility.yul\":10752:10781   */\n      swap1\n      pop\n        /* \"#utility.yul\":10618:10787   */\n      swap3\n      swap2\n      pop\n      pop\n      jump\t// out\n        /* \"#utility.yul\":10793:10932   */\n    tag_599:\n        /* \"#utility.yul\":10882:10888   */\n      dup3\n        /* \"#utility.yul\":10877:10880   */\n      dup2\n        /* \"#utility.yul\":10872:10875   */\n      dup4\n        /* \"#utility.yul\":10866:10889   */\n      mcopy\n        /* \"#utility.yul\":10923:10924   */\n      0x00\n        /* \"#utility.yul\":10914:10920   */\n      dup4\n        /* \"#utility.yul\":10909:10912   */\n      dup4\n        /* \"#utility.yul\":10905:10921   */\n      add\n        /* \"#utility.yul\":10898:10925   */\n      mstore\n        /* \"#utility.yul\":10793:10932   */\n      pop\n      pop\n      pop\n      jump\t// out\n        /* \"#utility.yul\":10938:11315   */\n    tag_600:\n        /* \"#utility.yul\":11026:11029   */\n      0x00\n        /* \"#utility.yul\":11054:11093   */\n      tag_766\n        /* \"#utility.yul\":11087:11092   */\n      dup3\n        /* \"#utility.yul\":11054:11093   */\n      tag_597\n      jump\t// in\n    tag_766:\n        /* \"#utility.yul\":11109:11180   */\n      tag_767\n        /* \"#utility.yul\":11173:11179   */\n      dup2\n        /* \"#utility.yul\":11168:11171   */\n      dup6\n        /* \"#utility.yul\":11109:11180   */\n      tag_598\n      jump\t// in\n    tag_767:\n        /* \"#utility.yul\":11102:11180   */\n      swap4\n      pop\n        /* \"#utility.yul\":11189:11254   */\n      tag_768\n        /* \"#utility.yul\":11247:11253   */\n      dup2\n        /* \"#utility.yul\":11242:11245   */\n      dup6\n        /* \"#utility.yul\":11235:11239   */\n      0x20\n        /* \"#utility.yul\":11228:11233   */\n      dup7\n        /* \"#utility.yul\":11224:11240   */\n      add\n        /* \"#utility.yul\":11189:11254   */\n      tag_599\n      jump\t// in\n    tag_768:\n        /* \"#utility.yul\":11279:11308   */\n      tag_769\n        /* \"#utility.yul\":11301:11307   */\n      dup2\n        /* \"#utility.yul\":11279:11308   */\n      tag_589\n      jump\t// in\n    tag_769:\n        /* \"#utility.yul\":11274:11277   */\n      dup5\n        /* \"#utility.yul\":11270:11309   */\n      add\n        /* \"#utility.yul\":11263:11309   */\n      swap2\n      pop\n        /* \"#utility.yul\":11030:11315   */\n      pop\n        /* \"#utility.yul\":10938:11315   */\n      swap3\n      swap2\n      pop\n      pop\n      jump\t// out\n        /* \"#utility.yul\":11321:11634   */\n    tag_142:\n        /* \"#utility.yul\":11434:11438   */\n      0x00\n        /* \"#utility.yul\":11472:11474   */\n      0x20\n        /* \"#utility.yul\":11461:11470   */\n      dup3\n        /* \"#utility.yul\":11457:11475   */\n      add\n        /* \"#utility.yul\":11449:11475   */\n      swap1\n      pop\n        /* \"#utility.yul\":11521:11530   */\n      dup2\n        /* \"#utility.yul\":11515:11519   */\n      dup2\n        /* \"#utility.yul\":11511:11531   */\n      sub\n        /* \"#utility.yul\":11507:11508   */\n      0x00\n        /* \"#utility.yul\":11496:11505   */\n      dup4\n        /* \"#utility.yul\":11492:11509   */\n      add\n        /* \"#utility.yul\":11485:11532   */\n      mstore\n        /* \"#utility.yul\":11549:11627   */\n      tag_771\n        /* \"#utility.yul\":11622:11626   */\n      dup2\n        /* \"#utility.yul\":11613:11619   */\n      dup5\n        /* \"#utility.yul\":11549:11627   */\n      tag_600\n      jump\t// in\n    tag_771:\n        /* \"#utility.yul\":11541:11627   */\n      swap1\n      pop\n        /* \"#utility.yul\":11321:11634   */\n      swap3\n      swap2\n      pop\n      pop\n      jump\t// out\n        /* \"#utility.yul\":11640:12259   */\n    tag_146:\n        /* \"#utility.yul\":11717:11723   */\n      0x00\n        /* \"#utility.yul\":11725:11731   */\n      dup1\n        /* \"#utility.yul\":11733:11739   */\n      0x00\n        /* \"#utility.yul\":11782:11784   */\n      0x60\n        /* \"#utility.yul\":11770:11779   */\n      dup5\n        /* \"#utility.yul\":11761:11768   */\n      dup7\n        /* \"#utility.yul\":11757:11780   */\n      sub\n        /* \"#utility.yul\":11753:11785   */\n      slt\n        /* \"#utility.yul\":11750:11869   */\n      iszero\n      tag_773\n      jumpi\n        /* \"#utility.yul\":11788:11867   */\n      tag_774\n      tag_563\n      jump\t// in\n    tag_774:\n        /* \"#utility.yul\":11750:11869   */\n    tag_773:\n        /* \"#utility.yul\":11908:11909   */\n      0x00\n        /* \"#utility.yul\":11933:11986   */\n      tag_775\n        /* \"#utility.yul\":11978:11985   */\n      dup7\n        /* \"#utility.yul\":11969:11975   */\n      dup3\n        /* \"#utility.yul\":11958:11967   */\n      dup8\n        /* \"#utility.yul\":11954:11976   */\n      add\n        /* \"#utility.yul\":11933:11986   */\n      tag_576\n      jump\t// in\n    tag_775:\n        /* \"#utility.yul\":11923:11986   */\n      swap4\n      pop\n        /* \"#utility.yul\":11879:11996   */\n      pop\n        /* \"#utility.yul\":12035:12037   */\n      0x20\n        /* \"#utility.yul\":12061:12114   */\n      tag_776\n        /* \"#utility.yul\":12106:12113   */\n      dup7\n        /* \"#utility.yul\":12097:12103   */\n      dup3\n        /* \"#utility.yul\":12086:12095   */\n      dup8\n        /* \"#utility.yul\":12082:12104   */\n      add\n        /* \"#utility.yul\":12061:12114   */\n      tag_572\n      jump\t// in\n    tag_776:\n        /* \"#utility.yul\":12051:12114   */\n      swap3\n      pop\n        /* \"#utility.yul\":12006:12124   */\n      pop\n        /* \"#utility.yul\":12163:12165   */\n      0x40\n        /* \"#utility.yul\":12189:12242   */\n      tag_777\n        /* \"#utility.yul\":12234:12241   */\n      dup7\n        /* \"#utility.yul\":12225:12231   */\n      dup3\n        /* \"#utility.yul\":12214:12223   */\n      dup8\n        /* \"#utility.yul\":12210:12232   */\n      add\n        /* \"#utility.yul\":12189:12242   */\n      tag_572\n      jump\t// in\n    tag_777:\n        /* \"#utility.yul\":12179:12242   */\n      swap2\n      pop\n        /* \"#utility.yul\":12134:12252   */\n      pop\n        /* \"#utility.yul\":11640:12259   */\n      swap3\n      pop\n      swap3\n      pop\n      swap3\n      jump\t// out\n        /* \"#utility.yul\":12265:13322   */\n    tag_151:\n        /* \"#utility.yul\":12369:12375   */\n      0x00\n        /* \"#utility.yul\":12377:12383   */\n      dup1\n        /* \"#utility.yul\":12385:12391   */\n      0x00\n        /* \"#utility.yul\":12393:12399   */\n      dup1\n        /* \"#utility.yul\":12401:12407   */\n      0x00\n        /* \"#utility.yul\":12409:12415   */\n      dup1\n        /* \"#utility.yul\":12458:12461   */\n      0xc0\n        /* \"#utility.yul\":12446:12455   */\n      dup8\n        /* \"#utility.yul\":12437:12444   */\n      dup10\n        /* \"#utility.yul\":12433:12456   */\n      sub\n        /* \"#utility.yul\":12429:12462   */\n      slt\n        /* \"#utility.yul\":12426:12546   */\n      iszero\n      tag_779\n      jumpi\n        /* \"#utility.yul\":12465:12544   */\n      tag_780\n      tag_563\n      jump\t// in\n    tag_780:\n        /* \"#utility.yul\":12426:12546   */\n    tag_779:\n        /* \"#utility.yul\":12585:12586   */\n      0x00\n        /* \"#utility.yul\":12610:12663   */\n      tag_781\n        /* \"#utility.yul\":12655:12662   */\n      dup10\n        /* \"#utility.yul\":12646:12652   */\n      dup3\n        /* \"#utility.yul\":12635:12644   */\n      dup11\n        /* \"#utility.yul\":12631:12653   */\n      add\n        /* \"#utility.yul\":12610:12663   */\n      tag_576\n      jump\t// in\n    tag_781:\n        /* \"#utility.yul\":12600:12663   */\n      swap7\n      pop\n        /* \"#utility.yul\":12556:12673   */\n      pop\n        /* \"#utility.yul\":12712:12714   */\n      0x20\n        /* \"#utility.yul\":12738:12791   */\n      tag_782\n        /* \"#utility.yul\":12783:12790   */\n      dup10\n        /* \"#utility.yul\":12774:12780   */\n      dup3\n        /* \"#utility.yul\":12763:12772   */\n      dup11\n        /* \"#utility.yul\":12759:12781   */\n      add\n        /* \"#utility.yul\":12738:12791   */\n      tag_576\n      jump\t// in\n    tag_782:\n        /* \"#utility.yul\":12728:12791   */\n      swap6\n      pop\n        /* \"#utility.yul\":12683:12801   */\n      pop\n        /* \"#utility.yul\":12840:12842   */\n      0x40\n        /* \"#utility.yul\":12866:12919   */\n      tag_783\n        /* \"#utility.yul\":12911:12918   */\n      dup10\n        /* \"#utility.yul\":12902:12908   */\n      dup3\n        /* \"#utility.yul\":12891:12900   */\n      dup11\n        /* \"#utility.yul\":12887:12909   */\n      add\n        /* \"#utility.yul\":12866:12919   */\n      tag_576\n      jump\t// in\n    tag_783:\n        /* \"#utility.yul\":12856:12919   */\n      swap5\n      pop\n        /* \"#utility.yul\":12811:12929   */\n      pop\n        /* \"#utility.yul\":12968:12970   */\n      0x60\n        /* \"#utility.yul\":12994:13047   */\n      tag_784\n        /* \"#utility.yul\":13039:13046   */\n      dup10\n        /* \"#utility.yul\":13030:13036   */\n      dup3\n        /* \"#utility.yul\":13019:13028   */\n      dup11\n        /* \"#utility.yul\":13015:13037   */\n      add\n        /* \"#utility.yul\":12994:13047   */\n      tag_576\n      jump\t// in\n    tag_784:\n        /* \"#utility.yul\":12984:13047   */\n      swap4\n      pop\n        /* \"#utility.yul\":12939:13057   */\n      pop\n        /* \"#utility.yul\":13096:13099   */\n      0x80\n        /* \"#utility.yul\":13123:13176   */\n      tag_785\n        /* \"#utility.yul\":13168:13175   */\n      dup10\n        /* \"#utility.yul\":13159:13165   */\n      dup3\n        /* \"#utility.yul\":13148:13157   */\n      dup11\n        /* \"#utility.yul\":13144:13166   */\n      add\n        /* \"#utility.yul\":13123:13176   */\n      tag_576\n      jump\t// in\n    tag_785:\n        /* \"#utility.yul\":13113:13176   */\n      swap3\n      pop\n        /* \"#utility.yul\":13067:13186   */\n      pop\n        /* \"#utility.yul\":13225:13228   */\n      0xa0\n        /* \"#utility.yul\":13252:13305   */\n      tag_786\n        /* \"#utility.yul\":13297:13304   */\n      dup10\n        /* \"#utility.yul\":13288:13294   */\n      dup3\n        /* \"#utility.yul\":13277:13286   */\n      dup11\n        /* \"#utility.yul\":13273:13295   */\n      add\n        /* \"#utility.yul\":13252:13305   */\n      tag_576\n      jump\t// in\n    tag_786:\n        /* \"#utility.yul\":13242:13305   */\n      swap2\n      pop\n        /* \"#utility.yul\":13196:13315   */\n      pop\n        /* \"#utility.yul\":12265:13322   */\n      swap3\n      swap6\n      pop\n      swap3\n      swap6\n      pop\n      swap3\n      swap6\n      jump\t// out\n        /* \"#utility.yul\":13328:13480   */\n    tag_601:\n        /* \"#utility.yul\":13404:13413   */\n      0x00\n        /* \"#utility.yul\":13437:13474   */\n      tag_788\n        /* \"#utility.yul\":13468:13473   */\n      dup3\n        /* \"#utility.yul\":13437:13474   */\n      tag_584\n      jump\t// in\n    tag_788:\n        /* \"#utility.yul\":13424:13474   */\n      swap1\n      pop\n        /* \"#utility.yul\":13328:13480   */\n      swap2\n      swap1\n      pop\n      jump\t// out\n        /* \"#utility.yul\":13486:13669   */\n    tag_602:\n        /* \"#utility.yul\":13599:13662   */\n      tag_790\n        /* \"#utility.yul\":13656:13661   */\n      dup2\n        /* \"#utility.yul\":13599:13662   */\n      tag_601\n      jump\t// in\n    tag_790:\n        /* \"#utility.yul\":13594:13597   */\n      dup3\n        /* \"#utility.yul\":13587:13663   */\n      mstore\n        /* \"#utility.yul\":13486:13669   */\n      pop\n      pop\n      jump\t// out\n        /* \"#utility.yul\":13675:13949   */\n    tag_165:\n        /* \"#utility.yul\":13794:13798   */\n      0x00\n        /* \"#utility.yul\":13832:13834   */\n      0x20\n        /* \"#utility.yul\":13821:13830   */\n      dup3\n        /* \"#utility.yul\":13817:13835   */\n      add\n        /* \"#utility.yul\":13809:13835   */\n      swap1\n      pop\n        /* \"#utility.yul\":13845:13942   */\n      tag_792\n        /* \"#utility.yul\":13939:13940   */\n      0x00\n        /* \"#utility.yul\":13928:13937   */\n      dup4\n        /* \"#utility.yul\":13924:13941   */\n      add\n        /* \"#utility.yul\":13915:13921   */\n      dup5\n        /* \"#utility.yul\":13845:13942   */\n      tag_602\n      jump\t// in\n    tag_792:\n        /* \"#utility.yul\":13675:13949   */\n      swap3\n      swap2\n      pop\n      pop\n      jump\t// out\n        /* \"#utility.yul\":13955:14073   */\n    tag_603:\n        /* \"#utility.yul\":14042:14066   */\n      tag_794\n        /* \"#utility.yul\":14060:14065   */\n      dup2\n        /* \"#utility.yul\":14042:14066   */\n      tag_574\n      jump\t// in\n    tag_794:\n        /* \"#utility.yul\":14037:14040   */\n      dup3\n        /* \"#utility.yul\":14030:14067   */\n      mstore\n        /* \"#utility.yul\":13955:14073   */\n      pop\n      pop\n      jump\t// out\n        /* \"#utility.yul\":14079:14521   */\n    tag_191:\n        /* \"#utility.yul\":14228:14232   */\n      0x00\n        /* \"#utility.yul\":14266:14268   */\n      0x60\n        /* \"#utility.yul\":14255:14264   */\n      dup3\n        /* \"#utility.yul\":14251:14269   */\n      add\n        /* \"#utility.yul\":14243:14269   */\n      swap1\n      pop\n        /* \"#utility.yul\":14279:14350   */\n      tag_796\n        /* \"#utility.yul\":14347:14348   */\n      0x00\n        /* \"#utility.yul\":14336:14345   */\n      dup4\n        /* \"#utility.yul\":14332:14349   */\n      add\n        /* \"#utility.yul\":14323:14329   */\n      dup7\n        /* \"#utility.yul\":14279:14350   */\n      tag_603\n      jump\t// in\n    tag_796:\n        /* \"#utility.yul\":14360:14432   */\n      tag_797\n        /* \"#utility.yul\":14428:14430   */\n      0x20\n        /* \"#utility.yul\":14417:14426   */\n      dup4\n        /* \"#utility.yul\":14413:14431   */\n      add\n        /* \"#utility.yul\":14404:14410   */\n      dup6\n        /* \"#utility.yul\":14360:14432   */\n      tag_603\n      jump\t// in\n    tag_797:\n        /* \"#utility.yul\":14442:14514   */\n      tag_798\n        /* \"#utility.yul\":14510:14512   */\n      0x40\n        /* \"#utility.yul\":14499:14508   */\n      dup4\n        /* \"#utility.yul\":14495:14513   */\n      add\n        /* \"#utility.yul\":14486:14492   */\n      dup5\n        /* \"#utility.yul\":14442:14514   */\n      tag_577\n      jump\t// in\n    tag_798:\n        /* \"#utility.yul\":14079:14521   */\n      swap5\n      swap4\n      pop\n      pop\n      pop\n      pop\n      jump\t// out\n        /* \"#utility.yul\":14527:14859   */\n    tag_199:\n        /* \"#utility.yul\":14648:14652   */\n      0x00\n        /* \"#utility.yul\":14686:14688   */\n      0x40\n        /* \"#utility.yul\":14675:14684   */\n      dup3\n        /* \"#utility.yul\":14671:14689   */\n      add\n        /* \"#utility.yul\":14663:14689   */\n      swap1\n      pop\n        /* \"#utility.yul\":14699:14770   */\n      tag_800\n        /* \"#utility.yul\":14767:14768   */\n      0x00\n        /* \"#utility.yul\":14756:14765   */\n      dup4\n        /* \"#utility.yul\":14752:14769   */\n      add\n        /* \"#utility.yul\":14743:14749   */\n      dup6\n        /* \"#utility.yul\":14699:14770   */\n      tag_603\n      jump\t// in\n    tag_800:\n        /* \"#utility.yul\":14780:14852   */\n      tag_801\n        /* \"#utility.yul\":14848:14850   */\n      0x20\n        /* \"#utility.yul\":14837:14846   */\n      dup4\n        /* \"#utility.yul\":14833:14851   */\n      add\n        /* \"#utility.yul\":14824:14830   */\n      dup5\n        /* \"#utility.yul\":14780:14852   */\n      tag_577\n      jump\t// in\n    tag_801:\n        /* \"#utility.yul\":14527:14859   */\n      swap4\n      swap3\n      pop\n      pop\n      pop\n      jump\t// out\n        /* \"#utility.yul\":14865:14981   */\n    tag_604:\n        /* \"#utility.yul\":14935:14956   */\n      tag_803\n        /* \"#utility.yul\":14950:14955   */\n      dup2\n        /* \"#utility.yul\":14935:14956   */\n      tag_568\n      jump\t// in\n    tag_803:\n        /* \"#utility.yul\":14928:14933   */\n      dup2\n        /* \"#utility.yul\":14925:14957   */\n      eq\n        /* \"#utility.yul\":14915:14975   */\n      tag_804\n      jumpi\n        /* \"#utility.yul\":14971:14972   */\n      0x00\n        /* \"#utility.yul\":14968:14969   */\n      dup1\n        /* \"#utility.yul\":14961:14973   */\n      revert\n        /* \"#utility.yul\":14915:14975   */\n    tag_804:\n        /* \"#utility.yul\":14865:14981   */\n      pop\n      jump\t// out\n        /* \"#utility.yul\":14987:15124   */\n    tag_605:\n        /* \"#utility.yul\":15041:15046   */\n      0x00\n        /* \"#utility.yul\":15072:15078   */\n      dup2\n        /* \"#utility.yul\":15066:15079   */\n      mload\n        /* \"#utility.yul\":15057:15079   */\n      swap1\n      pop\n        /* \"#utility.yul\":15088:15118   */\n      tag_806\n        /* \"#utility.yul\":15112:15117   */\n      dup2\n        /* \"#utility.yul\":15088:15118   */\n      tag_604\n      jump\t// in\n    tag_806:\n        /* \"#utility.yul\":14987:15124   */\n      swap3\n      swap2\n      pop\n      pop\n      jump\t// out\n        /* \"#utility.yul\":15130:15475   */\n    tag_203:\n        /* \"#utility.yul\":15197:15203   */\n      0x00\n        /* \"#utility.yul\":15246:15248   */\n      0x20\n        /* \"#utility.yul\":15234:15243   */\n      dup3\n        /* \"#utility.yul\":15225:15232   */\n      dup5\n        /* \"#utility.yul\":15221:15244   */\n      sub\n        /* \"#utility.yul\":15217:15249   */\n      slt\n        /* \"#utility.yul\":15214:15333   */\n      iszero\n      tag_808\n      jumpi\n        /* \"#utility.yul\":15252:15331   */\n      tag_809\n      tag_563\n      jump\t// in\n    tag_809:\n        /* \"#utility.yul\":15214:15333   */\n    tag_808:\n        /* \"#utility.yul\":15372:15373   */\n      0x00\n        /* \"#utility.yul\":15397:15458   */\n      tag_810\n        /* \"#utility.yul\":15450:15457   */\n      dup5\n        /* \"#utility.yul\":15441:15447   */\n      dup3\n        /* \"#utility.yul\":15430:15439   */\n      dup6\n        /* \"#utility.yul\":15426:15448   */\n      add\n        /* \"#utility.yul\":15397:15458   */\n      tag_605\n      jump\t// in\n    tag_810:\n        /* \"#utility.yul\":15387:15458   */\n      swap2\n      pop\n        /* \"#utility.yul\":15343:15468   */\n      pop\n        /* \"#utility.yul\":15130:15475   */\n      swap3\n      swap2\n      pop\n      pop\n      jump\t// out\n        /* \"#utility.yul\":15481:15704   */\n    tag_606:\n        /* \"#utility.yul\":15621:15655   */\n      0x45544820616d6f756e74206d7573742062652067726561746572207468616e20\n        /* \"#utility.yul\":15617:15618   */\n      0x00\n        /* \"#utility.yul\":15609:15615   */\n      dup3\n        /* \"#utility.yul\":15605:15619   */\n      add\n        /* \"#utility.yul\":15598:15656   */\n      mstore\n        /* \"#utility.yul\":15690:15696   */\n      0x7a65726f00000000000000000000000000000000000000000000000000000000\n        /* \"#utility.yul\":15685:15687   */\n      0x20\n        /* \"#utility.yul\":15677:15683   */\n      dup3\n        /* \"#utility.yul\":15673:15688   */\n      add\n        /* \"#utility.yul\":15666:15697   */\n      mstore\n        /* \"#utility.yul\":15481:15704   */\n      pop\n      jump\t// out\n        /* \"#utility.yul\":15710:16076   */\n    tag_607:\n        /* \"#utility.yul\":15852:15855   */\n      0x00\n        /* \"#utility.yul\":15873:15940   */\n      tag_813\n        /* \"#utility.yul\":15937:15939   */\n      0x24\n        /* \"#utility.yul\":15932:15935   */\n      dup4\n        /* \"#utility.yul\":15873:15940   */\n      tag_598\n      jump\t// in\n    tag_813:\n        /* \"#utility.yul\":15866:15940   */\n      swap2\n      pop\n        /* \"#utility.yul\":15949:16042   */\n      tag_814\n        /* \"#utility.yul\":16038:16041   */\n      dup3\n        /* \"#utility.yul\":15949:16042   */\n      tag_606\n      jump\t// in\n    tag_814:\n        /* \"#utility.yul\":16067:16069   */\n      0x40\n        /* \"#utility.yul\":16062:16065   */\n      dup3\n        /* \"#utility.yul\":16058:16070   */\n      add\n        /* \"#utility.yul\":16051:16070   */\n      swap1\n      pop\n        /* \"#utility.yul\":15710:16076   */\n      swap2\n      swap1\n      pop\n      jump\t// out\n        /* \"#utility.yul\":16082:16501   */\n    tag_230:\n        /* \"#utility.yul\":16248:16252   */\n      0x00\n        /* \"#utility.yul\":16286:16288   */\n      0x20\n        /* \"#utility.yul\":16275:16284   */\n      dup3\n        /* \"#utility.yul\":16271:16289   */\n      add\n        /* \"#utility.yul\":16263:16289   */\n      swap1\n      pop\n        /* \"#utility.yul\":16335:16344   */\n      dup2\n        /* \"#utility.yul\":16329:16333   */\n      dup2\n        /* \"#utility.yul\":16325:16345   */\n      sub\n        /* \"#utility.yul\":16321:16322   */\n      0x00\n        /* \"#utility.yul\":16310:16319   */\n      dup4\n        /* \"#utility.yul\":16306:16323   */\n      add\n        /* \"#utility.yul\":16299:16346   */\n      mstore\n        /* \"#utility.yul\":16363:16494   */\n      tag_816\n        /* \"#utility.yul\":16489:16493   */\n      dup2\n        /* \"#utility.yul\":16363:16494   */\n      tag_607\n      jump\t// in\n    tag_816:\n        /* \"#utility.yul\":16355:16494   */\n      swap1\n      pop\n        /* \"#utility.yul\":16082:16501   */\n      swap2\n      swap1\n      pop\n      jump\t// out\n        /* \"#utility.yul\":16507:16650   */\n    tag_608:\n        /* \"#utility.yul\":16564:16569   */\n      0x00\n        /* \"#utility.yul\":16595:16601   */\n      dup2\n        /* \"#utility.yul\":16589:16602   */\n      mload\n        /* \"#utility.yul\":16580:16602   */\n      swap1\n      pop\n        /* \"#utility.yul\":16611:16644   */\n      tag_818\n        /* \"#utility.yul\":16638:16643   */\n      dup2\n        /* \"#utility.yul\":16611:16644   */\n      tag_575\n      jump\t// in\n    tag_818:\n        /* \"#utility.yul\":16507:16650   */\n      swap3\n      swap2\n      pop\n      pop\n      jump\t// out\n        /* \"#utility.yul\":16656:17007   */\n    tag_235:\n        /* \"#utility.yul\":16726:16732   */\n      0x00\n        /* \"#utility.yul\":16775:16777   */\n      0x20\n        /* \"#utility.yul\":16763:16772   */\n      dup3\n        /* \"#utility.yul\":16754:16761   */\n      dup5\n        /* \"#utility.yul\":16750:16773   */\n      sub\n        /* \"#utility.yul\":16746:16778   */\n      slt\n        /* \"#utility.yul\":16743:16862   */\n      iszero\n      tag_820\n      jumpi\n        /* \"#utility.yul\":16781:16860   */\n      tag_821\n      tag_563\n      jump\t// in\n    tag_821:\n        /* \"#utility.yul\":16743:16862   */\n    tag_820:\n        /* \"#utility.yul\":16901:16902   */\n      0x00\n        /* \"#utility.yul\":16926:16990   */\n      tag_822\n        /* \"#utility.yul\":16982:16989   */\n      dup5\n        /* \"#utility.yul\":16973:16979   */\n      dup3\n        /* \"#utility.yul\":16962:16971   */\n      dup6\n        /* \"#utility.yul\":16958:16980   */\n      add\n        /* \"#utility.yul\":16926:16990   */\n      tag_608\n      jump\t// in\n    tag_822:\n        /* \"#utility.yul\":16916:16990   */\n      swap2\n      pop\n        /* \"#utility.yul\":16872:17000   */\n      pop\n        /* \"#utility.yul\":16656:17007   */\n      swap3\n      swap2\n      pop\n      pop\n      jump\t// out\n        /* \"#utility.yul\":17013:17188   */\n    tag_609:\n        /* \"#utility.yul\":17153:17180   */\n      0x4e4654206e6f74206f776e656420627920636f6e747261637400000000000000\n        /* \"#utility.yul\":17149:17150   */\n      0x00\n        /* \"#utility.yul\":17141:17147   */\n      dup3\n        /* \"#utility.yul\":17137:17151   */\n      add\n        /* \"#utility.yul\":17130:17181   */\n      mstore\n        /* \"#utility.yul\":17013:17188   */\n      pop\n      jump\t// out\n        /* \"#utility.yul\":17194:17560   */\n    tag_610:\n        /* \"#utility.yul\":17336:17339   */\n      0x00\n        /* \"#utility.yul\":17357:17424   */\n      tag_825\n        /* \"#utility.yul\":17421:17423   */\n      0x19\n        /* \"#utility.yul\":17416:17419   */\n      dup4\n        /* \"#utility.yul\":17357:17424   */\n      tag_598\n      jump\t// in\n    tag_825:\n        /* \"#utility.yul\":17350:17424   */\n      swap2\n      pop\n        /* \"#utility.yul\":17433:17526   */\n      tag_826\n        /* \"#utility.yul\":17522:17525   */\n      dup3\n        /* \"#utility.yul\":17433:17526   */\n      tag_609\n      jump\t// in\n    tag_826:\n        /* \"#utility.yul\":17551:17553   */\n      0x20\n        /* \"#utility.yul\":17546:17549   */\n      dup3\n        /* \"#utility.yul\":17542:17554   */\n      add\n        /* \"#utility.yul\":17535:17554   */\n      swap1\n      pop\n        /* \"#utility.yul\":17194:17560   */\n      swap2\n      swap1\n      pop\n      jump\t// out\n        /* \"#utility.yul\":17566:17985   */\n    tag_238:\n        /* \"#utility.yul\":17732:17736   */\n      0x00\n        /* \"#utility.yul\":17770:17772   */\n      0x20\n        /* \"#utility.yul\":17759:17768   */\n      dup3\n        /* \"#utility.yul\":17755:17773   */\n      add\n        /* \"#utility.yul\":17747:17773   */\n      swap1\n      pop\n        /* \"#utility.yul\":17819:17828   */\n      dup2\n        /* \"#utility.yul\":17813:17817   */\n      dup2\n        /* \"#utility.yul\":17809:17829   */\n      sub\n        /* \"#utility.yul\":17805:17806   */\n      0x00\n        /* \"#utility.yul\":17794:17803   */\n      dup4\n        /* \"#utility.yul\":17790:17807   */\n      add\n        /* \"#utility.yul\":17783:17830   */\n      mstore\n        /* \"#utility.yul\":17847:17978   */\n      tag_828\n        /* \"#utility.yul\":17973:17977   */\n      dup2\n        /* \"#utility.yul\":17847:17978   */\n      tag_610\n      jump\t// in\n    tag_828:\n        /* \"#utility.yul\":17839:17978   */\n      swap1\n      pop\n        /* \"#utility.yul\":17566:17985   */\n      swap2\n      swap1\n      pop\n      jump\t// out\n        /* \"#utility.yul\":17991:18171   */\n    tag_611:\n        /* \"#utility.yul\":18039:18116   */\n      0x4e487b7100000000000000000000000000000000000000000000000000000000\n        /* \"#utility.yul\":18036:18037   */\n      0x00\n        /* \"#utility.yul\":18029:18117   */\n      mstore\n        /* \"#utility.yul\":18136:18140   */\n      0x11\n        /* \"#utility.yul\":18133:18134   */\n      0x04\n        /* \"#utility.yul\":18126:18141   */\n      mstore\n        /* \"#utility.yul\":18160:18164   */\n      0x24\n        /* \"#utility.yul\":18157:18158   */\n      0x00\n        /* \"#utility.yul\":18150:18165   */\n      revert\n        /* \"#utility.yul\":18177:18371   */\n    tag_241:\n        /* \"#utility.yul\":18217:18221   */\n      0x00\n        /* \"#utility.yul\":18237:18257   */\n      tag_831\n        /* \"#utility.yul\":18255:18256   */\n      dup3\n        /* \"#utility.yul\":18237:18257   */\n      tag_570\n      jump\t// in\n    tag_831:\n        /* \"#utility.yul\":18232:18257   */\n      swap2\n      pop\n        /* \"#utility.yul\":18271:18291   */\n      tag_832\n        /* \"#utility.yul\":18289:18290   */\n      dup4\n        /* \"#utility.yul\":18271:18291   */\n      tag_570\n      jump\t// in\n    tag_832:\n        /* \"#utility.yul\":18266:18291   */\n      swap3\n      pop\n        /* \"#utility.yul\":18315:18316   */\n      dup3\n        /* \"#utility.yul\":18312:18313   */\n      dup3\n        /* \"#utility.yul\":18308:18317   */\n      sub\n        /* \"#utility.yul\":18300:18317   */\n      swap1\n      pop\n        /* \"#utility.yul\":18339:18340   */\n      dup2\n        /* \"#utility.yul\":18333:18337   */\n      dup2\n        /* \"#utility.yul\":18330:18341   */\n      gt\n        /* \"#utility.yul\":18327:18364   */\n      iszero\n      tag_833\n      jumpi\n        /* \"#utility.yul\":18344:18362   */\n      tag_834\n      tag_611\n      jump\t// in\n    tag_834:\n        /* \"#utility.yul\":18327:18364   */\n    tag_833:\n        /* \"#utility.yul\":18177:18371   */\n      swap3\n      swap2\n      pop\n      pop\n      jump\t// out\n        /* \"#utility.yul\":18377:18554   */\n    tag_612:\n        /* \"#utility.yul\":18517:18546   */\n      0x536c69707061676520746f6c6572616e63652065786365656465640000000000\n        /* \"#utility.yul\":18513:18514   */\n      0x00\n        /* \"#utility.yul\":18505:18511   */\n      dup3\n        /* \"#utility.yul\":18501:18515   */\n      add\n        /* \"#utility.yul\":18494:18547   */\n      mstore\n        /* \"#utility.yul\":18377:18554   */\n      pop\n      jump\t// out\n        /* \"#utility.yul\":18560:18926   */\n    tag_613:\n        /* \"#utility.yul\":18702:18705   */\n      0x00\n        /* \"#utility.yul\":18723:18790   */\n      tag_837\n        /* \"#utility.yul\":18787:18789   */\n      0x1b\n        /* \"#utility.yul\":18782:18785   */\n      dup4\n        /* \"#utility.yul\":18723:18790   */\n      tag_598\n      jump\t// in\n    tag_837:\n        /* \"#utility.yul\":18716:18790   */\n      swap2\n      pop\n        /* \"#utility.yul\":18799:18892   */\n      tag_838\n        /* \"#utility.yul\":18888:18891   */\n      dup3\n        /* \"#utility.yul\":18799:18892   */\n      tag_612\n      jump\t// in\n    tag_838:\n        /* \"#utility.yul\":18917:18919   */\n      0x20\n        /* \"#utility.yul\":18912:18915   */\n      dup3\n        /* \"#utility.yul\":18908:18920   */\n      add\n        /* \"#utility.yul\":18901:18920   */\n      swap1\n      pop\n        /* \"#utility.yul\":18560:18926   */\n      swap2\n      swap1\n      pop\n      jump\t// out\n        /* \"#utility.yul\":18932:19351   */\n    tag_245:\n        /* \"#utility.yul\":19098:19102   */\n      0x00\n        /* \"#utility.yul\":19136:19138   */\n      0x20\n        /* \"#utility.yul\":19125:19134   */\n      dup3\n        /* \"#utility.yul\":19121:19139   */\n      add\n        /* \"#utility.yul\":19113:19139   */\n      swap1\n      pop\n        /* \"#utility.yul\":19185:19194   */\n      dup2\n        /* \"#utility.yul\":19179:19183   */\n      dup2\n        /* \"#utility.yul\":19175:19195   */\n      sub\n        /* \"#utility.yul\":19171:19172   */\n      0x00\n        /* \"#utility.yul\":19160:19169   */\n      dup4\n        /* \"#utility.yul\":19156:19173   */\n      add\n        /* \"#utility.yul\":19149:19196   */\n      mstore\n        /* \"#utility.yul\":19213:19344   */\n      tag_840\n        /* \"#utility.yul\":19339:19343   */\n      dup2\n        /* \"#utility.yul\":19213:19344   */\n      tag_613\n      jump\t// in\n    tag_840:\n        /* \"#utility.yul\":19205:19344   */\n      swap1\n      pop\n        /* \"#utility.yul\":18932:19351   */\n      swap2\n      swap1\n      pop\n      jump\t// out\n        /* \"#utility.yul\":19357:19529   */\n    tag_614:\n        /* \"#utility.yul\":19497:19521   */\n      0x496e73756666696369656e74206c697175696469747900000000000000000000\n        /* \"#utility.yul\":19493:19494   */\n      0x00\n        /* \"#utility.yul\":19485:19491   */\n      dup3\n        /* \"#utility.yul\":19481:19495   */\n      add\n        /* \"#utility.yul\":19474:19522   */\n      mstore\n        /* \"#utility.yul\":19357:19529   */\n      pop\n      jump\t// out\n        /* \"#utility.yul\":19535:19901   */\n    tag_615:\n        /* \"#utility.yul\":19677:19680   */\n      0x00\n        /* \"#utility.yul\":19698:19765   */\n      tag_843\n        /* \"#utility.yul\":19762:19764   */\n      0x16\n        /* \"#utility.yul\":19757:19760   */\n      dup4\n        /* \"#utility.yul\":19698:19765   */\n      tag_598\n      jump\t// in\n    tag_843:\n        /* \"#utility.yul\":19691:19765   */\n      swap2\n      pop\n        /* \"#utility.yul\":19774:19867   */\n      tag_844\n        /* \"#utility.yul\":19863:19866   */\n      dup3\n        /* \"#utility.yul\":19774:19867   */\n      tag_614\n      jump\t// in\n    tag_844:\n        /* \"#utility.yul\":19892:19894   */\n      0x20\n        /* \"#utility.yul\":19887:19890   */\n      dup3\n        /* \"#utility.yul\":19883:19895   */\n      add\n        /* \"#utility.yul\":19876:19895   */\n      swap1\n      pop\n        /* \"#utility.yul\":19535:19901   */\n      swap2\n      swap1\n      pop\n      jump\t// out\n        /* \"#utility.yul\":19907:20326   */\n    tag_269:\n        /* \"#utility.yul\":20073:20077   */\n      0x00\n        /* \"#utility.yul\":20111:20113   */\n      0x20\n        /* \"#utility.yul\":20100:20109   */\n      dup3\n        /* \"#utility.yul\":20096:20114   */\n      add\n        /* \"#utility.yul\":20088:20114   */\n      swap1\n      pop\n        /* \"#utility.yul\":20160:20169   */\n      dup2\n        /* \"#utility.yul\":20154:20158   */\n      dup2\n        /* \"#utility.yul\":20150:20170   */\n      sub\n        /* \"#utility.yul\":20146:20147   */\n      0x00\n        /* \"#utility.yul\":20135:20144   */\n      dup4\n        /* \"#utility.yul\":20131:20148   */\n      add\n        /* \"#utility.yul\":20124:20171   */\n      mstore\n        /* \"#utility.yul\":20188:20319   */\n      tag_846\n        /* \"#utility.yul\":20314:20318   */\n      dup2\n        /* \"#utility.yul\":20188:20319   */\n      tag_615\n      jump\t// in\n    tag_846:\n        /* \"#utility.yul\":20180:20319   */\n      swap1\n      pop\n        /* \"#utility.yul\":19907:20326   */\n      swap2\n      swap1\n      pop\n      jump\t// out\n        /* \"#utility.yul\":20332:20523   */\n    tag_274:\n        /* \"#utility.yul\":20372:20375   */\n      0x00\n        /* \"#utility.yul\":20391:20411   */\n      tag_848\n        /* \"#utility.yul\":20409:20410   */\n      dup3\n        /* \"#utility.yul\":20391:20411   */\n      tag_570\n      jump\t// in\n    tag_848:\n        /* \"#utility.yul\":20386:20411   */\n      swap2\n      pop\n        /* \"#utility.yul\":20425:20445   */\n      tag_849\n        /* \"#utility.yul\":20443:20444   */\n      dup4\n        /* \"#utility.yul\":20425:20445   */\n      tag_570\n      jump\t// in\n    tag_849:\n        /* \"#utility.yul\":20420:20445   */\n      swap3\n      pop\n        /* \"#utility.yul\":20468:20469   */\n      dup3\n        /* \"#utility.yul\":20465:20466   */\n      dup3\n        /* \"#utility.yul\":20461:20470   */\n      add\n        /* \"#utility.yul\":20454:20470   */\n      swap1\n      pop\n        /* \"#utility.yul\":20489:20492   */\n      dup1\n        /* \"#utility.yul\":20486:20487   */\n      dup3\n        /* \"#utility.yul\":20483:20493   */\n      gt\n        /* \"#utility.yul\":20480:20516   */\n      iszero\n      tag_850\n      jumpi\n        /* \"#utility.yul\":20496:20514   */\n      tag_851\n      tag_611\n      jump\t// in\n    tag_851:\n        /* \"#utility.yul\":20480:20516   */\n    tag_850:\n        /* \"#utility.yul\":20332:20523   */\n      swap3\n      swap2\n      pop\n      pop\n      jump\t// out\n        /* \"#utility.yul\":20529:20754   */\n    tag_616:\n        /* \"#utility.yul\":20669:20703   */\n      0x546f6b656e20616d6f756e74206d757374206265206772656174657220746861\n        /* \"#utility.yul\":20665:20666   */\n      0x00\n        /* \"#utility.yul\":20657:20663   */\n      dup3\n        /* \"#utility.yul\":20653:20667   */\n      add\n        /* \"#utility.yul\":20646:20704   */\n      mstore\n        /* \"#utility.yul\":20738:20746   */\n      0x6e207a65726f0000000000000000000000000000000000000000000000000000\n        /* \"#utility.yul\":20733:20735   */\n      0x20\n        /* \"#utility.yul\":20725:20731   */\n      dup3\n        /* \"#utility.yul\":20721:20736   */\n      add\n        /* \"#utility.yul\":20714:20747   */\n      mstore\n        /* \"#utility.yul\":20529:20754   */\n      pop\n      jump\t// out\n        /* \"#utility.yul\":20760:21126   */\n    tag_617:\n        /* \"#utility.yul\":20902:20905   */\n      0x00\n        /* \"#utility.yul\":20923:20990   */\n      tag_854\n        /* \"#utility.yul\":20987:20989   */\n      0x26\n        /* \"#utility.yul\":20982:20985   */\n      dup4\n        /* \"#utility.yul\":20923:20990   */\n      tag_598\n      jump\t// in\n    tag_854:\n        /* \"#utility.yul\":20916:20990   */\n      swap2\n      pop\n        /* \"#utility.yul\":20999:21092   */\n      tag_855\n        /* \"#utility.yul\":21088:21091   */\n      dup3\n        /* \"#utility.yul\":20999:21092   */\n      tag_616\n      jump\t// in\n    tag_855:\n        /* \"#utility.yul\":21117:21119   */\n      0x40\n        /* \"#utility.yul\":21112:21115   */\n      dup3\n        /* \"#utility.yul\":21108:21120   */\n      add\n        /* \"#utility.yul\":21101:21120   */\n      swap1\n      pop\n        /* \"#utility.yul\":20760:21126   */\n      swap2\n      swap1\n      pop\n      jump\t// out\n        /* \"#utility.yul\":21132:21551   */\n    tag_290:\n        /* \"#utility.yul\":21298:21302   */\n      0x00\n        /* \"#utility.yul\":21336:21338   */\n      0x20\n        /* \"#utility.yul\":21325:21334   */\n      dup3\n        /* \"#utility.yul\":21321:21339   */\n      add\n        /* \"#utility.yul\":21313:21339   */\n      swap1\n      pop\n        /* \"#utility.yul\":21385:21394   */\n      dup2\n        /* \"#utility.yul\":21379:21383   */\n      dup2\n        /* \"#utility.yul\":21375:21395   */\n      sub\n        /* \"#utility.yul\":21371:21372   */\n      0x00\n        /* \"#utility.yul\":21360:21369   */\n      dup4\n        /* \"#utility.yul\":21356:21373   */\n      add\n        /* \"#utility.yul\":21349:21396   */\n      mstore\n        /* \"#utility.yul\":21413:21544   */\n      tag_857\n        /* \"#utility.yul\":21539:21543   */\n      dup2\n        /* \"#utility.yul\":21413:21544   */\n      tag_617\n      jump\t// in\n    tag_857:\n        /* \"#utility.yul\":21405:21544   */\n      swap1\n      pop\n        /* \"#utility.yul\":21132:21551   */\n      swap2\n      swap1\n      pop\n      jump\t// out\n        /* \"#utility.yul\":21557:21725   */\n    tag_618:\n        /* \"#utility.yul\":21697:21717   */\n      0x496e76616c696420706f6f6c2073746174650000000000000000000000000000\n        /* \"#utility.yul\":21693:21694   */\n      0x00\n        /* \"#utility.yul\":21685:21691   */\n      dup3\n        /* \"#utility.yul\":21681:21695   */\n      add\n        /* \"#utility.yul\":21674:21718   */\n      mstore\n        /* \"#utility.yul\":21557:21725   */\n      pop\n      jump\t// out\n        /* \"#utility.yul\":21731:22097   */\n    tag_619:\n        /* \"#utility.yul\":21873:21876   */\n      0x00\n        /* \"#utility.yul\":21894:21961   */\n      tag_860\n        /* \"#utility.yul\":21958:21960   */\n      0x12\n        /* \"#utility.yul\":21953:21956   */\n      dup4\n        /* \"#utility.yul\":21894:21961   */\n      tag_598\n      jump\t// in\n    tag_860:\n        /* \"#utility.yul\":21887:21961   */\n      swap2\n      pop\n        /* \"#utility.yul\":21970:22063   */\n      tag_861\n        /* \"#utility.yul\":22059:22062   */\n      dup3\n        /* \"#utility.yul\":21970:22063   */\n      tag_618\n      jump\t// in\n    tag_861:\n        /* \"#utility.yul\":22088:22090   */\n      0x20\n        /* \"#utility.yul\":22083:22086   */\n      dup3\n        /* \"#utility.yul\":22079:22091   */\n      add\n        /* \"#utility.yul\":22072:22091   */\n      swap1\n      pop\n        /* \"#utility.yul\":21731:22097   */\n      swap2\n      swap1\n      pop\n      jump\t// out\n        /* \"#utility.yul\":22103:22522   */\n    tag_302:\n        /* \"#utility.yul\":22269:22273   */\n      0x00\n        /* \"#utility.yul\":22307:22309   */\n      0x20\n        /* \"#utility.yul\":22296:22305   */\n      dup3\n        /* \"#utility.yul\":22292:22310   */\n      add\n        /* \"#utility.yul\":22284:22310   */\n      swap1\n      pop\n        /* \"#utility.yul\":22356:22365   */\n      dup2\n        /* \"#utility.yul\":22350:22354   */\n      dup2\n        /* \"#utility.yul\":22346:22366   */\n      sub\n        /* \"#utility.yul\":22342:22343   */\n      0x00\n        /* \"#utility.yul\":22331:22340   */\n      dup4\n        /* \"#utility.yul\":22327:22344   */\n      add\n        /* \"#utility.yul\":22320:22367   */\n      mstore\n        /* \"#utility.yul\":22384:22515   */\n      tag_863\n        /* \"#utility.yul\":22510:22514   */\n      dup2\n        /* \"#utility.yul\":22384:22515   */\n      tag_619\n      jump\t// in\n    tag_863:\n        /* \"#utility.yul\":22376:22515   */\n      swap1\n      pop\n        /* \"#utility.yul\":22103:22522   */\n      swap2\n      swap1\n      pop\n      jump\t// out\n        /* \"#utility.yul\":22528:22938   */\n    tag_304:\n        /* \"#utility.yul\":22568:22575   */\n      0x00\n        /* \"#utility.yul\":22591:22611   */\n      tag_865\n        /* \"#utility.yul\":22609:22610   */\n      dup3\n        /* \"#utility.yul\":22591:22611   */\n      tag_570\n      jump\t// in\n    tag_865:\n        /* \"#utility.yul\":22586:22611   */\n      swap2\n      pop\n        /* \"#utility.yul\":22625:22645   */\n      tag_866\n        /* \"#utility.yul\":22643:22644   */\n      dup4\n        /* \"#utility.yul\":22625:22645   */\n      tag_570\n      jump\t// in\n    tag_866:\n        /* \"#utility.yul\":22620:22645   */\n      swap3\n      pop\n        /* \"#utility.yul\":22680:22681   */\n      dup3\n        /* \"#utility.yul\":22677:22678   */\n      dup3\n        /* \"#utility.yul\":22673:22682   */\n      mul\n        /* \"#utility.yul\":22702:22732   */\n      tag_867\n        /* \"#utility.yul\":22720:22731   */\n      dup2\n        /* \"#utility.yul\":22702:22732   */\n      tag_570\n      jump\t// in\n    tag_867:\n        /* \"#utility.yul\":22691:22732   */\n      swap2\n      pop\n        /* \"#utility.yul\":22881:22882   */\n      dup3\n        /* \"#utility.yul\":22872:22879   */\n      dup3\n        /* \"#utility.yul\":22868:22883   */\n      div\n        /* \"#utility.yul\":22865:22866   */\n      dup5\n        /* \"#utility.yul\":22862:22884   */\n      eq\n        /* \"#utility.yul\":22842:22843   */\n      dup4\n        /* \"#utility.yul\":22835:22844   */\n      iszero\n        /* \"#utility.yul\":22815:22898   */\n      or\n        /* \"#utility.yul\":22792:22931   */\n      tag_868\n      jumpi\n        /* \"#utility.yul\":22911:22929   */\n      tag_869\n      tag_611\n      jump\t// in\n    tag_869:\n        /* \"#utility.yul\":22792:22931   */\n    tag_868:\n        /* \"#utility.yul\":22576:22938   */\n      pop\n        /* \"#utility.yul\":22528:22938   */\n      swap3\n      swap2\n      pop\n      pop\n      jump\t// out\n        /* \"#utility.yul\":22944:23124   */\n    tag_620:\n        /* \"#utility.yul\":22992:23069   */\n      0x4e487b7100000000000000000000000000000000000000000000000000000000\n        /* \"#utility.yul\":22989:22990   */\n      0x00\n        /* \"#utility.yul\":22982:23070   */\n      mstore\n        /* \"#utility.yul\":23089:23093   */\n      0x12\n        /* \"#utility.yul\":23086:23087   */\n      0x04\n        /* \"#utility.yul\":23079:23094   */\n      mstore\n        /* \"#utility.yul\":23113:23117   */\n      0x24\n        /* \"#utility.yul\":23110:23111   */\n      0x00\n        /* \"#utility.yul\":23103:23118   */\n      revert\n        /* \"#utility.yul\":23130:23315   */\n    tag_306:\n        /* \"#utility.yul\":23170:23171   */\n      0x00\n        /* \"#utility.yul\":23187:23207   */\n      tag_872\n        /* \"#utility.yul\":23205:23206   */\n      dup3\n        /* \"#utility.yul\":23187:23207   */\n      tag_570\n      jump\t// in\n    tag_872:\n        /* \"#utility.yul\":23182:23207   */\n      swap2\n      pop\n        /* \"#utility.yul\":23221:23241   */\n      tag_873\n        /* \"#utility.yul\":23239:23240   */\n      dup4\n        /* \"#utility.yul\":23221:23241   */\n      tag_570\n      jump\t// in\n    tag_873:\n        /* \"#utility.yul\":23216:23241   */\n      swap3\n      pop\n        /* \"#utility.yul\":23260:23261   */\n      dup3\n        /* \"#utility.yul\":23250:23285   */\n      tag_874\n      jumpi\n        /* \"#utility.yul\":23265:23283   */\n      tag_875\n      tag_620\n      jump\t// in\n    tag_875:\n        /* \"#utility.yul\":23250:23285   */\n    tag_874:\n        /* \"#utility.yul\":23307:23308   */\n      dup3\n        /* \"#utility.yul\":23304:23305   */\n      dup3\n        /* \"#utility.yul\":23300:23309   */\n      div\n        /* \"#utility.yul\":23295:23309   */\n      swap1\n      pop\n        /* \"#utility.yul\":23130:23315   */\n      swap3\n      swap2\n      pop\n      pop\n      jump\t// out\n        /* \"#utility.yul\":23321:23494   */\n    tag_621:\n        /* \"#utility.yul\":23461:23486   */\n      0x496e73756666696369656e742045544820616d6f756e74000000000000000000\n        /* \"#utility.yul\":23457:23458   */\n      0x00\n        /* \"#utility.yul\":23449:23455   */\n      dup3\n        /* \"#utility.yul\":23445:23459   */\n      add\n        /* \"#utility.yul\":23438:23487   */\n      mstore\n        /* \"#utility.yul\":23321:23494   */\n      pop\n      jump\t// out\n        /* \"#utility.yul\":23500:23866   */\n    tag_622:\n        /* \"#utility.yul\":23642:23645   */\n      0x00\n        /* \"#utility.yul\":23663:23730   */\n      tag_878\n        /* \"#utility.yul\":23727:23729   */\n      0x17\n        /* \"#utility.yul\":23722:23725   */\n      dup4\n        /* \"#utility.yul\":23663:23730   */\n      tag_598\n      jump\t// in\n    tag_878:\n        /* \"#utility.yul\":23656:23730   */\n      swap2\n      pop\n        /* \"#utility.yul\":23739:23832   */\n      tag_879\n        /* \"#utility.yul\":23828:23831   */\n      dup3\n        /* \"#utility.yul\":23739:23832   */\n      tag_621\n      jump\t// in\n    tag_879:\n        /* \"#utility.yul\":23857:23859   */\n      0x20\n        /* \"#utility.yul\":23852:23855   */\n      dup3\n        /* \"#utility.yul\":23848:23860   */\n      add\n        /* \"#utility.yul\":23841:23860   */\n      swap1\n      pop\n        /* \"#utility.yul\":23500:23866   */\n      swap2\n      swap1\n      pop\n      jump\t// out\n        /* \"#utility.yul\":23872:24291   */\n    tag_309:\n        /* \"#utility.yul\":24038:24042   */\n      0x00\n        /* \"#utility.yul\":24076:24078   */\n      0x20\n        /* \"#utility.yul\":24065:24074   */\n      dup3\n        /* \"#utility.yul\":24061:24079   */\n      add\n        /* \"#utility.yul\":24053:24079   */\n      swap1\n      pop\n        /* \"#utility.yul\":24125:24134   */\n      dup2\n        /* \"#utility.yul\":24119:24123   */\n      dup2\n        /* \"#utility.yul\":24115:24135   */\n      sub\n        /* \"#utility.yul\":24111:24112   */\n      0x00\n        /* \"#utility.yul\":24100:24109   */\n      dup4\n        /* \"#utility.yul\":24096:24113   */\n      add\n        /* \"#utility.yul\":24089:24136   */\n      mstore\n        /* \"#utility.yul\":24153:24284   */\n      tag_881\n        /* \"#utility.yul\":24279:24283   */\n      dup2\n        /* \"#utility.yul\":24153:24284   */\n      tag_622\n      jump\t// in\n    tag_881:\n        /* \"#utility.yul\":24145:24284   */\n      swap1\n      pop\n        /* \"#utility.yul\":23872:24291   */\n      swap2\n      swap1\n      pop\n      jump\t// out\n        /* \"#utility.yul\":24297:24382   */\n    tag_623:\n        /* \"#utility.yul\":24342:24349   */\n      0x00\n        /* \"#utility.yul\":24371:24376   */\n      dup2\n        /* \"#utility.yul\":24360:24376   */\n      swap1\n      pop\n        /* \"#utility.yul\":24297:24382   */\n      swap2\n      swap1\n      pop\n      jump\t// out\n        /* \"#utility.yul\":24388:24489   */\n    tag_624:\n        /* \"#utility.yul\":24424:24431   */\n      0x00\n        /* \"#utility.yul\":24464:24482   */\n      0xffffffffffffffff\n        /* \"#utility.yul\":24457:24462   */\n      dup3\n        /* \"#utility.yul\":24453:24483   */\n      and\n        /* \"#utility.yul\":24442:24483   */\n      swap1\n      pop\n        /* \"#utility.yul\":24388:24489   */\n      swap2\n      swap1\n      pop\n      jump\t// out\n        /* \"#utility.yul\":24495:24651   */\n    tag_625:\n        /* \"#utility.yul\":24552:24561   */\n      0x00\n        /* \"#utility.yul\":24585:24645   */\n      tag_885\n        /* \"#utility.yul\":24602:24644   */\n      tag_886\n        /* \"#utility.yul\":24611:24643   */\n      tag_887\n        /* \"#utility.yul\":24637:24642   */\n      dup5\n        /* \"#utility.yul\":24611:24643   */\n      tag_623\n      jump\t// in\n    tag_887:\n        /* \"#utility.yul\":24602:24644   */\n      tag_582\n      jump\t// in\n    tag_886:\n        /* \"#utility.yul\":24585:24645   */\n      tag_624\n      jump\t// in\n    tag_885:\n        /* \"#utility.yul\":24572:24645   */\n      swap1\n      pop\n        /* \"#utility.yul\":24495:24651   */\n      swap2\n      swap1\n      pop\n      jump\t// out\n        /* \"#utility.yul\":24657:24802   */\n    tag_626:\n        /* \"#utility.yul\":24751:24795   */\n      tag_889\n        /* \"#utility.yul\":24789:24794   */\n      dup2\n        /* \"#utility.yul\":24751:24795   */\n      tag_625\n      jump\t// in\n    tag_889:\n        /* \"#utility.yul\":24746:24749   */\n      dup3\n        /* \"#utility.yul\":24739:24796   */\n      mstore\n        /* \"#utility.yul\":24657:24802   */\n      pop\n      pop\n      jump\t// out\n        /* \"#utility.yul\":24808:25044   */\n    tag_371:\n        /* \"#utility.yul\":24908:24912   */\n      0x00\n        /* \"#utility.yul\":24946:24948   */\n      0x20\n        /* \"#utility.yul\":24935:24944   */\n      dup3\n        /* \"#utility.yul\":24931:24949   */\n      add\n        /* \"#utility.yul\":24923:24949   */\n      swap1\n      pop\n        /* \"#utility.yul\":24959:25037   */\n      tag_891\n        /* \"#utility.yul\":25034:25035   */\n      0x00\n        /* \"#utility.yul\":25023:25032   */\n      dup4\n        /* \"#utility.yul\":25019:25036   */\n      add\n        /* \"#utility.yul\":25010:25016   */\n      dup5\n        /* \"#utility.yul\":24959:25037   */\n      tag_626\n      jump\t// in\n    tag_891:\n        /* \"#utility.yul\":24808:25044   */\n      swap3\n      swap2\n      pop\n      pop\n      jump\t// out\n        /* \"#utility.yul\":25050:25216   */\n    tag_627:\n        /* \"#utility.yul\":25190:25208   */\n      0x4e6f74206f776e6572206f66204e465400000000000000000000000000000000\n        /* \"#utility.yul\":25186:25187   */\n      0x00\n        /* \"#utility.yul\":25178:25184   */\n      dup3\n        /* \"#utility.yul\":25174:25188   */\n      add\n        /* \"#utility.yul\":25167:25209   */\n      mstore\n        /* \"#utility.yul\":25050:25216   */\n      pop\n      jump\t// out\n        /* \"#utility.yul\":25222:25588   */\n    tag_628:\n        /* \"#utility.yul\":25364:25367   */\n      0x00\n        /* \"#utility.yul\":25385:25452   */\n      tag_894\n        /* \"#utility.yul\":25449:25451   */\n      0x10\n        /* \"#utility.yul\":25444:25447   */\n      dup4\n        /* \"#utility.yul\":25385:25452   */\n      tag_598\n      jump\t// in\n    tag_894:\n        /* \"#utility.yul\":25378:25452   */\n      swap2\n      pop\n        /* \"#utility.yul\":25461:25554   */\n      tag_895\n        /* \"#utility.yul\":25550:25553   */\n      dup3\n        /* \"#utility.yul\":25461:25554   */\n      tag_627\n      jump\t// in\n    tag_895:\n        /* \"#utility.yul\":25579:25581   */\n      0x20\n        /* \"#utility.yul\":25574:25577   */\n      dup3\n        /* \"#utility.yul\":25570:25582   */\n      add\n        /* \"#utility.yul\":25563:25582   */\n      swap1\n      pop\n        /* \"#utility.yul\":25222:25588   */\n      swap2\n      swap1\n      pop\n      jump\t// out\n        /* \"#utility.yul\":25594:26013   */\n    tag_386:\n        /* \"#utility.yul\":25760:25764   */\n      0x00\n        /* \"#utility.yul\":25798:25800   */\n      0x20\n        /* \"#utility.yul\":25787:25796   */\n      dup3\n        /* \"#utility.yul\":25783:25801   */\n      add\n        /* \"#utility.yul\":25775:25801   */\n      swap1\n      pop\n        /* \"#utility.yul\":25847:25856   */\n      dup2\n        /* \"#utility.yul\":25841:25845   */\n      dup2\n        /* \"#utility.yul\":25837:25857   */\n      sub\n        /* \"#utility.yul\":25833:25834   */\n      0x00\n        /* \"#utility.yul\":25822:25831   */\n      dup4\n        /* \"#utility.yul\":25818:25835   */\n      add\n        /* \"#utility.yul\":25811:25858   */\n      mstore\n        /* \"#utility.yul\":25875:26006   */\n      tag_897\n        /* \"#utility.yul\":26001:26005   */\n      dup2\n        /* \"#utility.yul\":25875:26006   */\n      tag_628\n      jump\t// in\n    tag_897:\n        /* \"#utility.yul\":25867:26006   */\n      swap1\n      pop\n        /* \"#utility.yul\":25594:26013   */\n      swap2\n      swap1\n      pop\n      jump\t// out\n        /* \"#utility.yul\":26019:26189   */\n    tag_629:\n        /* \"#utility.yul\":26159:26181   */\n      0x496e73756666696369656e742062616c616e6365000000000000000000000000\n        /* \"#utility.yul\":26155:26156   */\n      0x00\n        /* \"#utility.yul\":26147:26153   */\n      dup3\n        /* \"#utility.yul\":26143:26157   */\n      add\n        /* \"#utility.yul\":26136:26182   */\n      mstore\n        /* \"#utility.yul\":26019:26189   */\n      pop\n      jump\t// out\n        /* \"#utility.yul\":26195:26561   */\n    tag_630:\n        /* \"#utility.yul\":26337:26340   */\n      0x00\n        /* \"#utility.yul\":26358:26425   */\n      tag_900\n        /* \"#utility.yul\":26422:26424   */\n      0x14\n        /* \"#utility.yul\":26417:26420   */\n      dup4\n        /* \"#utility.yul\":26358:26425   */\n      tag_598\n      jump\t// in\n    tag_900:\n        /* \"#utility.yul\":26351:26425   */\n      swap2\n      pop\n        /* \"#utility.yul\":26434:26527   */\n      tag_901\n        /* \"#utility.yul\":26523:26526   */\n      dup3\n        /* \"#utility.yul\":26434:26527   */\n      tag_629\n      jump\t// in\n    tag_901:\n        /* \"#utility.yul\":26552:26554   */\n      0x20\n        /* \"#utility.yul\":26547:26550   */\n      dup3\n        /* \"#utility.yul\":26543:26555   */\n      add\n        /* \"#utility.yul\":26536:26555   */\n      swap1\n      pop\n        /* \"#utility.yul\":26195:26561   */\n      swap2\n      swap1\n      pop\n      jump\t// out\n        /* \"#utility.yul\":26567:26986   */\n    tag_422:\n        /* \"#utility.yul\":26733:26737   */\n      0x00\n        /* \"#utility.yul\":26771:26773   */\n      0x20\n        /* \"#utility.yul\":26760:26769   */\n      dup3\n        /* \"#utility.yul\":26756:26774   */\n      add\n        /* \"#utility.yul\":26748:26774   */\n      swap1\n      pop\n        /* \"#utility.yul\":26820:26829   */\n      dup2\n        /* \"#utility.yul\":26814:26818   */\n      dup2\n        /* \"#utility.yul\":26810:26830   */\n      sub\n        /* \"#utility.yul\":26806:26807   */\n      0x00\n        /* \"#utility.yul\":26795:26804   */\n      dup4\n        /* \"#utility.yul\":26791:26808   */\n      add\n        /* \"#utility.yul\":26784:26831   */\n      mstore\n        /* \"#utility.yul\":26848:26979   */\n      tag_903\n        /* \"#utility.yul\":26974:26978   */\n      dup2\n        /* \"#utility.yul\":26848:26979   */\n      tag_630\n      jump\t// in\n    tag_903:\n        /* \"#utility.yul\":26840:26979   */\n      swap1\n      pop\n        /* \"#utility.yul\":26567:26986   */\n      swap2\n      swap1\n      pop\n      jump\t// out\n        /* \"#utility.yul\":26992:27214   */\n    tag_451:\n        /* \"#utility.yul\":27085:27089   */\n      0x00\n        /* \"#utility.yul\":27123:27125   */\n      0x20\n        /* \"#utility.yul\":27112:27121   */\n      dup3\n        /* \"#utility.yul\":27108:27126   */\n      add\n        /* \"#utility.yul\":27100:27126   */\n      swap1\n      pop\n        /* \"#utility.yul\":27136:27207   */\n      tag_905\n        /* \"#utility.yul\":27204:27205   */\n      0x00\n        /* \"#utility.yul\":27193:27202   */\n      dup4\n        /* \"#utility.yul\":27189:27206   */\n      add\n        /* \"#utility.yul\":27180:27186   */\n      dup5\n        /* \"#utility.yul\":27136:27207   */\n      tag_603\n      jump\t// in\n    tag_905:\n        /* \"#utility.yul\":26992:27214   */\n      swap3\n      swap2\n      pop\n      pop\n      jump\t// out\n        /* \"#utility.yul\":27220:27363   */\n    tag_631:\n        /* \"#utility.yul\":27277:27282   */\n      0x00\n        /* \"#utility.yul\":27308:27314   */\n      dup2\n        /* \"#utility.yul\":27302:27315   */\n      mload\n        /* \"#utility.yul\":27293:27315   */\n      swap1\n      pop\n        /* \"#utility.yul\":27324:27357   */\n      tag_907\n        /* \"#utility.yul\":27351:27356   */\n      dup2\n        /* \"#utility.yul\":27324:27357   */\n      tag_580\n      jump\t// in\n    tag_907:\n        /* \"#utility.yul\":27220:27363   */\n      swap3\n      swap2\n      pop\n      pop\n      jump\t// out\n        /* \"#utility.yul\":27369:27720   */\n    tag_473:\n        /* \"#utility.yul\":27439:27445   */\n      0x00\n        /* \"#utility.yul\":27488:27490   */\n      0x20\n        /* \"#utility.yul\":27476:27485   */\n      dup3\n        /* \"#utility.yul\":27467:27474   */\n      dup5\n        /* \"#utility.yul\":27463:27486   */\n      sub\n        /* \"#utility.yul\":27459:27491   */\n      slt\n        /* \"#utility.yul\":27456:27575   */\n      iszero\n      tag_909\n      jumpi\n        /* \"#utility.yul\":27494:27573   */\n      tag_910\n      tag_563\n      jump\t// in\n    tag_910:\n        /* \"#utility.yul\":27456:27575   */\n    tag_909:\n        /* \"#utility.yul\":27614:27615   */\n      0x00\n        /* \"#utility.yul\":27639:27703   */\n      tag_911\n        /* \"#utility.yul\":27695:27702   */\n      dup5\n        /* \"#utility.yul\":27686:27692   */\n      dup3\n        /* \"#utility.yul\":27675:27684   */\n      dup6\n        /* \"#utility.yul\":27671:27693   */\n      add\n        /* \"#utility.yul\":27639:27703   */\n      tag_631\n      jump\t// in\n    tag_911:\n        /* \"#utility.yul\":27629:27703   */\n      swap2\n      pop\n        /* \"#utility.yul\":27585:27713   */\n      pop\n        /* \"#utility.yul\":27369:27720   */\n      swap3\n      swap2\n      pop\n      pop\n      jump\t// out\n        /* \"#utility.yul\":27726:28058   */\n    tag_510:\n        /* \"#utility.yul\":27847:27851   */\n      0x00\n        /* \"#utility.yul\":27885:27887   */\n      0x40\n        /* \"#utility.yul\":27874:27883   */\n      dup3\n        /* \"#utility.yul\":27870:27888   */\n      add\n        /* \"#utility.yul\":27862:27888   */\n      swap1\n      pop\n        /* \"#utility.yul\":27898:27969   */\n      tag_913\n        /* \"#utility.yul\":27966:27967   */\n      0x00\n        /* \"#utility.yul\":27955:27964   */\n      dup4\n        /* \"#utility.yul\":27951:27968   */\n      add\n        /* \"#utility.yul\":27942:27948   */\n      dup6\n        /* \"#utility.yul\":27898:27969   */\n      tag_603\n      jump\t// in\n    tag_913:\n        /* \"#utility.yul\":27979:28051   */\n      tag_914\n        /* \"#utility.yul\":28047:28049   */\n      0x20\n        /* \"#utility.yul\":28036:28045   */\n      dup4\n        /* \"#utility.yul\":28032:28050   */\n      add\n        /* \"#utility.yul\":28023:28029   */\n      dup5\n        /* \"#utility.yul\":27979:28051   */\n      tag_579\n      jump\t// in\n    tag_914:\n        /* \"#utility.yul\":27726:28058   */\n      swap4\n      swap3\n      pop\n      pop\n      pop\n      jump\t// out\n        /* \"#utility.yul\":28064:28162   */\n    tag_632:\n        /* \"#utility.yul\":28115:28121   */\n      0x00\n        /* \"#utility.yul\":28149:28154   */\n      dup2\n        /* \"#utility.yul\":28143:28155   */\n      mload\n        /* \"#utility.yul\":28133:28155   */\n      swap1\n      pop\n        /* \"#utility.yul\":28064:28162   */\n      swap2\n      swap1\n      pop\n      jump\t// out\n        /* \"#utility.yul\":28168:28315   */\n    tag_633:\n        /* \"#utility.yul\":28269:28280   */\n      0x00\n        /* \"#utility.yul\":28306:28309   */\n      dup2\n        /* \"#utility.yul\":28291:28309   */\n      swap1\n      pop\n        /* \"#utility.yul\":28168:28315   */\n      swap3\n      swap2\n      pop\n      pop\n      jump\t// out\n        /* \"#utility.yul\":28321:28707   */\n    tag_634:\n        /* \"#utility.yul\":28425:28428   */\n      0x00\n        /* \"#utility.yul\":28453:28491   */\n      tag_918\n        /* \"#utility.yul\":28485:28490   */\n      dup3\n        /* \"#utility.yul\":28453:28491   */\n      tag_632\n      jump\t// in\n    tag_918:\n        /* \"#utility.yul\":28507:28595   */\n      tag_919\n        /* \"#utility.yul\":28588:28594   */\n      dup2\n        /* \"#utility.yul\":28583:28586   */\n      dup6\n        /* \"#utility.yul\":28507:28595   */\n      tag_633\n      jump\t// in\n    tag_919:\n        /* \"#utility.yul\":28500:28595   */\n      swap4\n      pop\n        /* \"#utility.yul\":28604:28669   */\n      tag_920\n        /* \"#utility.yul\":28662:28668   */\n      dup2\n        /* \"#utility.yul\":28657:28660   */\n      dup6\n        /* \"#utility.yul\":28650:28654   */\n      0x20\n        /* \"#utility.yul\":28643:28648   */\n      dup7\n        /* \"#utility.yul\":28639:28655   */\n      add\n        /* \"#utility.yul\":28604:28669   */\n      tag_599\n      jump\t// in\n    tag_920:\n        /* \"#utility.yul\":28694:28700   */\n      dup1\n        /* \"#utility.yul\":28689:28692   */\n      dup5\n        /* \"#utility.yul\":28685:28701   */\n      add\n        /* \"#utility.yul\":28678:28701   */\n      swap2\n      pop\n        /* \"#utility.yul\":28429:28707   */\n      pop\n        /* \"#utility.yul\":28321:28707   */\n      swap3\n      swap2\n      pop\n      pop\n      jump\t// out\n        /* \"#utility.yul\":28713:28984   */\n    tag_541:\n        /* \"#utility.yul\":28843:28846   */\n      0x00\n        /* \"#utility.yul\":28865:28958   */\n      tag_922\n        /* \"#utility.yul\":28954:28957   */\n      dup3\n        /* \"#utility.yul\":28945:28951   */\n      dup5\n        /* \"#utility.yul\":28865:28958   */\n      tag_634\n      jump\t// in\n    tag_922:\n        /* \"#utility.yul\":28858:28958   */\n      swap2\n      pop\n        /* \"#utility.yul\":28975:28978   */\n      dup2\n        /* \"#utility.yul\":28968:28978   */\n      swap1\n      pop\n        /* \"#utility.yul\":28713:28984   */\n      swap3\n      swap2\n      pop\n      pop\n      jump\t// out\n\n    auxdata: 0xa26469706673582212205bf6c2efaa4270f923e1d8981c52665ef8b357d3f4539e2838981c619ad515a964736f6c634300081a0033\n}\n",
				"bytecode": {
					"linkReferences": {},
					"object": "60a06040523073ffffffffffffffffffffffffffffffffffffffff1660809073ffffffffffffffffffffffffffffffffffffffff16815250348015610042575f80fd5b5061005161005660201b60201c565b6101b6565b5f61006561015460201b60201c565b9050805f0160089054906101000a900460ff16156100af576040517ff92ee8a900000000000000000000000000000000000000000000000000000000815260040160405180910390fd5b67ffffffffffffffff8016815f015f9054906101000a900467ffffffffffffffff1667ffffffffffffffff16146101515767ffffffffffffffff815f015f6101000a81548167ffffffffffffffff021916908367ffffffffffffffff1602179055507fc7f505b2f371ae2175ee4913f4499e1f2633a7b5936321eed1cdaeb6115181d267ffffffffffffffff604051610148919061019d565b60405180910390a15b50565b5f7ff0c57e16840df040f15088dc2f81fe391c3923bec73e23a9662efc9c229c6a00905090565b5f67ffffffffffffffff82169050919050565b6101978161017b565b82525050565b5f6020820190506101b05f83018461018e565b92915050565b608051613aec6101dc5f395f8181612470015281816124c501526126a20152613aec5ff3fe6080604052600436106101d7575f3560e01c80635668870011610101578063cc2a9a5b11610094578063e15cc8da11610063578063e15cc8da1461064a578063e63ab1e914610672578063f14210a61461069c578063f72c0d8b146106c4576101d7565b8063cc2a9a5b146105a8578063d547741f146105d0578063d9a37ad2146105f8578063da06968314610620576101d7565b8063a201ccf6116100d0578063a201ccf6146104ef578063a217fddf1461052c578063ad3cb1cc14610556578063c708831314610580576101d7565b806356688700146104435780635c975abb146104735780638456cb591461049d57806391d14854146104b3576101d7565b80632f2ff15d1161017957806349f0346e1161014857806349f0346e146103c55780634f1ef286146103e157806351422e97146103fd57806352d1902d14610419576101d7565b80632f2ff15d1461033557806334aab0641461035d57806336568abe146103875780633f4ba83a146103af576101d7565b80630b0fd47e116101b55780630b0fd47e14610267578063242f0551146102a5578063248a9ca3146102cf5780632d11c58a1461030b576101d7565b806301ffc9a7146101db578063023245d71461021757806306b091f91461023f575b5f80fd5b3480156101e6575f80fd5b5061020160048036038101906101fc9190612cb3565b6106ee565b60405161020e9190612cf8565b60405180910390f35b348015610222575f80fd5b5061023d60048036038101906102389190612d44565b610767565b005b34801561024a575f80fd5b5061026560048036038101906102609190612dc9565b610802565b005b348015610272575f80fd5b5061028d60048036038101906102889190612e07565b61088f565b60405161029c93929190612e41565b60405180910390f35b3480156102b0575f80fd5b506102b96108b5565b6040516102c69190612e8e565b60405180910390f35b3480156102da575f80fd5b506102f560048036038101906102f09190612ed1565b6108d9565b6040516103029190612e8e565b60405180910390f35b348015610316575f80fd5b5061031f610903565b60405161032c9190612efc565b60405180910390f35b348015610340575f80fd5b5061035b60048036038101906103569190612f15565b610908565b005b348015610368575f80fd5b5061037161092a565b60405161037e9190612fae565b60405180910390f35b348015610392575f80fd5b506103ad60048036038101906103a89190612f15565b61094d565b005b3480156103ba575f80fd5b506103c36109c8565b005b6103df60048036038101906103da9190612fc7565b6109fd565b005b6103fb60048036038101906103f69190613141565b610d05565b005b61041760048036038101906104129190612dc9565b610d24565b005b348015610424575f80fd5b5061042d610f76565b60405161043a9190612e8e565b60405180910390f35b61045d60048036038101906104589190612dc9565b610fa7565b60405161046a9190612efc565b60405180910390f35b34801561047e575f80fd5b50610487611307565b6040516104949190612cf8565b60405180910390f35b3480156104a8575f80fd5b506104b1611329565b005b3480156104be575f80fd5b506104d960048036038101906104d49190612f15565b61135e565b6040516104e69190612cf8565b60405180910390f35b3480156104fa575f80fd5b5061051560048036038101906105109190612dc9565b6113cf565b60405161052392919061319b565b60405180910390f35b348015610537575f80fd5b506105406116af565b60405161054d9190612e8e565b60405180910390f35b348015610561575f80fd5b5061056a6116b5565b6040516105779190613222565b60405180910390f35b34801561058b575f80fd5b506105a660048036038101906105a19190613242565b6116ee565b005b3480156105b3575f80fd5b506105ce60048036038101906105c99190613292565b6117a7565b005b3480156105db575f80fd5b506105f660048036038101906105f19190612f15565b611a49565b005b348015610603575f80fd5b5061061e60048036038101906106199190612fc7565b611a6b565b005b34801561062b575f80fd5b50610634611d26565b604051610641919061333b565b60405180910390f35b348015610655575f80fd5b50610670600480360381019061066b9190613242565b611d4b565b005b34801561067d575f80fd5b50610686611fe4565b6040516106939190612e8e565b60405180910390f35b3480156106a7575f80fd5b506106c260048036038101906106bd9190612d44565b612008565b005b3480156106cf575f80fd5b506106d861209f565b6040516106e59190612e8e565b60405180910390f35b5f7f7965db0b000000000000000000000000000000000000000000000000000000007bffffffffffffffffffffffffffffffffffffffffffffffffffffffff1916827bffffffffffffffffffffffffffffffffffffffffffffffffffffffff19161480610760575061075f826120c3565b5b9050919050565b5f801b6107738161212c565b60015f9054906101000a900473ffffffffffffffffffffffffffffffffffffffff1673ffffffffffffffffffffffffffffffffffffffff166342842e0e3033856040518463ffffffff1660e01b81526004016107d193929190613363565b5f604051808303815f87803b1580156107e8575f80fd5b505af11580156107fa573d5f803e3d5ffd5b505050505050565b5f801b61080e8161212c565b8273ffffffffffffffffffffffffffffffffffffffff1663a9059cbb33846040518363ffffffff1660e01b8152600401610849929190613398565b6020604051808303815f875af1158015610865573d5f803e3d5ffd5b505050506040513d601f19601f8201168201806040525081019061088991906133e9565b50505050565b6002602052805f5260405f205f91509050805f0154908060010154908060020154905083565b7f77e60b99a50d27fb027f6912a507d956105b4148adab27a86d235c8bcca8fa2f81565b5f806108e3612140565b9050805f015f8481526020019081526020015f2060010154915050919050565b600381565b610911826108d9565b61091a8161212c565b6109248383612167565b50505050565b5f8054906101000a900473ffffffffffffffffffffffffffffffffffffffff1681565b61095561225f565b73ffffffffffffffffffffffffffffffffffffffff168173ffffffffffffffffffffffffffffffffffffffff16146109b9576040517f6697b23200000000000000000000000000000000000000000000000000000000815260040160405180910390fd5b6109c38282612266565b505050565b7f65d7a28e3265b37a6474929f336521b332c1681b933f6cb9f3376673440d862a6109f28161212c565b6109fa61235e565b50565b610a056123cc565b5f3411610a47576040517f08c379a0000000000000000000000000000000000000000000000000000000008152600401610a3e90613484565b60405180910390fd5b3073ffffffffffffffffffffffffffffffffffffffff1660015f9054906101000a900473ffffffffffffffffffffffffffffffffffffffff1673ffffffffffffffffffffffffffffffffffffffff16636352211e846040518263ffffffff1660e01b8152600401610ab89190612efc565b602060405180830381865afa158015610ad3573d5f803e3d5ffd5b505050506040513d601f19601f82011682018060405250810190610af791906134b6565b73ffffffffffffffffffffffffffffffffffffffff1614610b4d576040517f08c379a0000000000000000000000000000000000000000000000000000000008152600401610b449061352b565b60405180910390fd5b5f610b65343447610b5e9190613576565b600161240d565b905081811015610baa576040517f08c379a0000000000000000000000000000000000000000000000000000000008152600401610ba1906135f3565b60405180910390fd5b3373ffffffffffffffffffffffffffffffffffffffff166108fc8290811502906040515f60405180830381858888f19350505050158015610bed573d5f803e3d5ffd5b5060015f9054906101000a900473ffffffffffffffffffffffffffffffffffffffff1673ffffffffffffffffffffffffffffffffffffffff166342842e0e3033866040518463ffffffff1660e01b8152600401610c4c93929190613363565b5f604051808303815f87803b158015610c63575f80fd5b505af1158015610c75573d5f803e3d5ffd5b505050508260015f9054906101000a900473ffffffffffffffffffffffffffffffffffffffff1673ffffffffffffffffffffffffffffffffffffffff163373ffffffffffffffffffffffffffffffffffffffff167f9181665db8d8d5fcce186f7b2cfebe8fbcdc3a003664bbfce2e790f57b076e6584604051610cf89190612efc565b60405180910390a4505050565b610d0d61246e565b610d1682612554565b610d208282612582565b5050565b610d2c6123cc565b5f3411610d6e576040517f08c379a0000000000000000000000000000000000000000000000000000000008152600401610d6590613484565b60405180910390fd5b5f60025f8473ffffffffffffffffffffffffffffffffffffffff1673ffffffffffffffffffffffffffffffffffffffff1681526020019081526020015f2090505f8160010154118015610dc357505f815f0154115b610e02576040517f08c379a0000000000000000000000000000000000000000000000000000000008152600401610df99061365b565b60405180910390fd5b5f610e15348360010154845f015461240d565b905082811015610e5a576040517f08c379a0000000000000000000000000000000000000000000000000000000008152600401610e51906135f3565b60405180910390fd5b34826001015f828254610e6d9190613679565b9250508190555080825f015f828254610e869190613576565b925050819055508373ffffffffffffffffffffffffffffffffffffffff1663a9059cbb33836040518363ffffffff1660e01b8152600401610ec8929190613398565b6020604051808303815f875af1158015610ee4573d5f803e3d5ffd5b505050506040513d601f19601f82011682018060405250810190610f0891906133e9565b508373ffffffffffffffffffffffffffffffffffffffff163373ffffffffffffffffffffffffffffffffffffffff167f30b60ee4dc75c0fb04420331b13e9ad7f8ff8fc51eac9c97d36fb20ccbe09d668334604051610f6892919061319b565b60405180910390a350505050565b5f610f7f6126a0565b7f360894a13ba1a3210667c828492db98dca3e2076cc3735a920a3ca505d382bbc5f1b905090565b5f610fb06123cc565b5f8211610ff2576040517f08c379a0000000000000000000000000000000000000000000000000000000008152600401610fe99061371c565b60405180910390fd5b5f3411611034576040517f08c379a000000000000000000000000000000000000000000000000000000000815260040161102b90613484565b60405180910390fd5b8273ffffffffffffffffffffffffffffffffffffffff166323b872dd3330856040518463ffffffff1660e01b815260040161107193929190613363565b6020604051808303815f875af115801561108d573d5f803e3d5ffd5b505050506040513d601f19601f820116820180604052508101906110b191906133e9565b505f60025f8573ffffffffffffffffffffffffffffffffffffffff1673ffffffffffffffffffffffffffffffffffffffff1681526020019081526020015f2090505f808260020154036111175783825f0181905550348260010181905550839050611224565b5f826001015411801561112c57505f825f0154115b61116b576040517f08c379a000000000000000000000000000000000000000000000000000000000815260040161116290613784565b60405180910390fd5b5f825f015485846001015461118091906137a2565b61118a9190613810565b9050803410156111cf576040517f08c379a00000000000000000000000000000000000000000000000000000000081526004016111c69061388a565b60405180910390fd5b84835f015f8282546111e19190613679565b9250508190555034836001015f8282546111fb9190613679565b92505081905550825f015485846002015461121691906137a2565b6112209190613810565b9150505b80826002015f8282546112379190613679565b9250508190555080826003015f3373ffffffffffffffffffffffffffffffffffffffff1673ffffffffffffffffffffffffffffffffffffffff1681526020019081526020015f205f82825461128c9190613679565b925050819055508473ffffffffffffffffffffffffffffffffffffffff163373ffffffffffffffffffffffffffffffffffffffff167f4a1a2a6176e9646d9e3157f7c2ab3c499f18337c0b0828cfb28e0a61de4a11f78634856040516112f493929190612e41565b60405180910390a3809250505092915050565b5f80611311612727565b9050805f015f9054906101000a900460ff1691505090565b7f65d7a28e3265b37a6474929f336521b332c1681b933f6cb9f3376673440d862a6113538161212c565b61135b61274e565b50565b5f80611368612140565b9050805f015f8581526020019081526020015f205f015f8473ffffffffffffffffffffffffffffffffffffffff1673ffffffffffffffffffffffffffffffffffffffff1681526020019081526020015f205f9054906101000a900460ff1691505092915050565b5f806113d96123cc565b5f60025f8673ffffffffffffffffffffffffffffffffffffffff1673ffffffffffffffffffffffffffffffffffffffff1681526020019081526020015f20905083816003015f3373ffffffffffffffffffffffffffffffffffffffff1673ffffffffffffffffffffffffffffffffffffffff1681526020019081526020015f2054101561149b576040517f08c379a00000000000000000000000000000000000000000000000000000000081526004016114929061365b565b60405180910390fd5b806002015484825f01546114af91906137a2565b6114b99190613810565b925080600201548482600101546114d091906137a2565b6114da9190613810565b915082815f015f8282546114ee9190613576565b9250508190555081816001015f8282546115089190613576565b9250508190555083816002015f8282546115229190613576565b9250508190555083816003015f3373ffffffffffffffffffffffffffffffffffffffff1673ffffffffffffffffffffffffffffffffffffffff1681526020019081526020015f205f8282546115779190613576565b925050819055508473ffffffffffffffffffffffffffffffffffffffff1663a9059cbb33856040518363ffffffff1660e01b81526004016115b9929190613398565b6020604051808303815f875af11580156115d5573d5f803e3d5ffd5b505050506040513d601f19601f820116820180604052508101906115f991906133e9565b503373ffffffffffffffffffffffffffffffffffffffff166108fc8390811502906040515f60405180830381858888f1935050505015801561163d573d5f803e3d5ffd5b508473ffffffffffffffffffffffffffffffffffffffff163373ffffffffffffffffffffffffffffffffffffffff167fbc7d19d505c7ec4db83f3b51f19fb98c4c8a99922e7839d1ee608dfbee29501b85858860405161169f93929190612e41565b60405180910390a3509250929050565b5f801b81565b6040518060400160405280600581526020017f352e302e3000000000000000000000000000000000000000000000000000000081525081565b7f77e60b99a50d27fb027f6912a507d956105b4148adab27a86d235c8bcca8fa2f6117188161212c565b8260025f8673ffffffffffffffffffffffffffffffffffffffff1673ffffffffffffffffffffffffffffffffffffffff1681526020019081526020015f205f01819055508160025f8673ffffffffffffffffffffffffffffffffffffffff1673ffffffffffffffffffffffffffffffffffffffff1681526020019081526020015f206001018190555050505050565b5f6117b06127bd565b90505f815f0160089054906101000a900460ff161590505f825f015f9054906101000a900467ffffffffffffffff1690505f808267ffffffffffffffff161480156117f85750825b90505f60018367ffffffffffffffff1614801561182b57505f3073ffffffffffffffffffffffffffffffffffffffff163b145b905081158015611839575080155b15611870576040517ff92ee8a900000000000000000000000000000000000000000000000000000000815260040160405180910390fd5b6001855f015f6101000a81548167ffffffffffffffff021916908367ffffffffffffffff16021790555083156118bd576001855f0160086101000a81548160ff0219169083151502179055505b6118c56127e4565b6118cd6127f6565b6118d5612800565b6118e15f801b8c612167565b5061190c7f65d7a28e3265b37a6474929f336521b332c1681b933f6cb9f3376673440d862a8b612167565b506119377f189ab7a9244df0848122154315af71fe140f3db0fe014031783b0946b8c9d2e38a612167565b506119627f77e60b99a50d27fb027f6912a507d956105b4148adab27a86d235c8bcca8fa2f89612167565b50865f806101000a81548173ffffffffffffffffffffffffffffffffffffffff021916908373ffffffffffffffffffffffffffffffffffffffff1602179055508560015f6101000a81548173ffffffffffffffffffffffffffffffffffffffff021916908373ffffffffffffffffffffffffffffffffffffffff1602179055508315611a3c575f855f0160086101000a81548160ff0219169083151502179055507fc7f505b2f371ae2175ee4913f4499e1f2633a7b5936321eed1cdaeb6115181d26001604051611a3391906138f4565b60405180910390a15b5050505050505050505050565b611a52826108d9565b611a5b8161212c565b611a658383612266565b50505050565b611a736123cc565b3373ffffffffffffffffffffffffffffffffffffffff1660015f9054906101000a900473ffffffffffffffffffffffffffffffffffffffff1673ffffffffffffffffffffffffffffffffffffffff16636352211e846040518263ffffffff1660e01b8152600401611ae49190612efc565b602060405180830381865afa158015611aff573d5f803e3d5ffd5b505050506040513d601f19601f82011682018060405250810190611b2391906134b6565b73ffffffffffffffffffffffffffffffffffffffff1614611b79576040517f08c379a0000000000000000000000000000000000000000000000000000000008152600401611b7090613957565b60405180910390fd5b5f611b866001804761240d565b905081811015611bcb576040517f08c379a0000000000000000000000000000000000000000000000000000000008152600401611bc2906135f3565b60405180910390fd5b60015f9054906101000a900473ffffffffffffffffffffffffffffffffffffffff1673ffffffffffffffffffffffffffffffffffffffff166342842e0e3330866040518463ffffffff1660e01b8152600401611c2993929190613363565b5f604051808303815f87803b158015611c40575f80fd5b505af1158015611c52573d5f803e3d5ffd5b505050503373ffffffffffffffffffffffffffffffffffffffff166108fc8290811502906040515f60405180830381858888f19350505050158015611c99573d5f803e3d5ffd5b508260015f9054906101000a900473ffffffffffffffffffffffffffffffffffffffff1673ffffffffffffffffffffffffffffffffffffffff163373ffffffffffffffffffffffffffffffffffffffff167f9181665db8d8d5fcce186f7b2cfebe8fbcdc3a003664bbfce2e790f57b076e6584604051611d199190612efc565b60405180910390a4505050565b60015f9054906101000a900473ffffffffffffffffffffffffffffffffffffffff1681565b611d536123cc565b5f8211611d95576040517f08c379a0000000000000000000000000000000000000000000000000000000008152600401611d8c9061371c565b60405180910390fd5b5f60025f8573ffffffffffffffffffffffffffffffffffffffff1673ffffffffffffffffffffffffffffffffffffffff1681526020019081526020015f2090505f8160010154118015611dea57505f815f0154115b611e29576040517f08c379a0000000000000000000000000000000000000000000000000000000008152600401611e209061365b565b60405180910390fd5b5f611e3c84835f0154846001015461240d565b905082811015611e81576040517f08c379a0000000000000000000000000000000000000000000000000000000008152600401611e78906135f3565b60405180910390fd5b83825f015f828254611e939190613679565b9250508190555080826001015f828254611ead9190613576565b925050819055508473ffffffffffffffffffffffffffffffffffffffff166323b872dd3330876040518463ffffffff1660e01b8152600401611ef193929190613363565b6020604051808303815f875af1158015611f0d573d5f803e3d5ffd5b505050506040513d601f19601f82011682018060405250810190611f3191906133e9565b503373ffffffffffffffffffffffffffffffffffffffff166108fc8290811502906040515f60405180830381858888f19350505050158015611f75573d5f803e3d5ffd5b508473ffffffffffffffffffffffffffffffffffffffff163373ffffffffffffffffffffffffffffffffffffffff167f30b60ee4dc75c0fb04420331b13e9ad7f8ff8fc51eac9c97d36fb20ccbe09d668684604051611fd592919061319b565b60405180910390a35050505050565b7f65d7a28e3265b37a6474929f336521b332c1681b933f6cb9f3376673440d862a81565b5f801b6120148161212c565b81471015612057576040517f08c379a000000000000000000000000000000000000000000000000000000000815260040161204e906139bf565b60405180910390fd5b3373ffffffffffffffffffffffffffffffffffffffff166108fc8390811502906040515f60405180830381858888f1935050505015801561209a573d5f803e3d5ffd5b505050565b7f189ab7a9244df0848122154315af71fe140f3db0fe014031783b0946b8c9d2e381565b5f7f01ffc9a7000000000000000000000000000000000000000000000000000000007bffffffffffffffffffffffffffffffffffffffffffffffffffffffff1916827bffffffffffffffffffffffffffffffffffffffffffffffffffffffff1916149050919050565b61213d8161213861225f565b61280a565b50565b5f7f02dd7bc7dec4dceedda775e58dd541e08a116c6c53815c0bd028192f7b626800905090565b5f80612171612140565b905061217d848461135e565b612254576001815f015f8681526020019081526020015f205f015f8573ffffffffffffffffffffffffffffffffffffffff1673ffffffffffffffffffffffffffffffffffffffff1681526020019081526020015f205f6101000a81548160ff0219169083151502179055506121f061225f565b73ffffffffffffffffffffffffffffffffffffffff168373ffffffffffffffffffffffffffffffffffffffff16857f2f8788117e7eff1d82e926ec794901d17c78024a50270940304540a733656f0d60405160405180910390a46001915050612259565b5f9150505b92915050565b5f33905090565b5f80612270612140565b905061227c848461135e565b15612353575f815f015f8681526020019081526020015f205f015f8573ffffffffffffffffffffffffffffffffffffffff1673ffffffffffffffffffffffffffffffffffffffff1681526020019081526020015f205f6101000a81548160ff0219169083151502179055506122ef61225f565b73ffffffffffffffffffffffffffffffffffffffff168373ffffffffffffffffffffffffffffffffffffffff16857ff6391f5c32d9c69d2a47ea670b442974b53935d1edc7fd64eb21e047a839171b60405160405180910390a46001915050612358565b5f9150505b92915050565b61236661285b565b5f61236f612727565b90505f815f015f6101000a81548160ff0219169083151502179055507f5db9ee0a495bf2e6ff9c91a7834c1ba4fdd244a5e8aa4e537bd38aeae4b073aa6123b461225f565b6040516123c191906139dd565b60405180910390a150565b6123d4611307565b1561240b576040517fd93c066500000000000000000000000000000000000000000000000000000000815260040160405180910390fd5b565b5f8060036103e861241e9190613576565b8561242991906137a2565b90505f838261243891906137a2565b90505f826103e88761244a91906137a2565b6124549190613679565b905080826124629190613810565b93505050509392505050565b7f000000000000000000000000000000000000000000000000000000000000000073ffffffffffffffffffffffffffffffffffffffff163073ffffffffffffffffffffffffffffffffffffffff16148061251b57507f000000000000000000000000000000000000000000000000000000000000000073ffffffffffffffffffffffffffffffffffffffff1661250261289b565b73ffffffffffffffffffffffffffffffffffffffff1614155b15612552576040517fe07c8dba00000000000000000000000000000000000000000000000000000000815260040160405180910390fd5b565b7f189ab7a9244df0848122154315af71fe140f3db0fe014031783b0946b8c9d2e361257e8161212c565b5050565b8173ffffffffffffffffffffffffffffffffffffffff166352d1902d6040518163ffffffff1660e01b8152600401602060405180830381865afa9250505080156125ea57506040513d601f19601f820116820180604052508101906125e79190613a0a565b60015b61262b57816040517f4c9c8ce300000000000000000000000000000000000000000000000000000000815260040161262291906139dd565b60405180910390fd5b7f360894a13ba1a3210667c828492db98dca3e2076cc3735a920a3ca505d382bbc5f1b811461269157806040517faa1d49a40000000000000000000000000000000000000000000000000000000081526004016126889190612e8e565b60405180910390fd5b61269b83836128ee565b505050565b7f000000000000000000000000000000000000000000000000000000000000000073ffffffffffffffffffffffffffffffffffffffff163073ffffffffffffffffffffffffffffffffffffffff1614612725576040517fe07c8dba00000000000000000000000000000000000000000000000000000000815260040160405180910390fd5b565b5f7fcd5ed15c6e187e77e9aee88184c21f4f2182ab5827cb3b7e07fbedcd63f03300905090565b6127566123cc565b5f61275f612727565b90506001815f015f6101000a81548160ff0219169083151502179055507f62e78cea01bee320cd4e420270b5ea74000d11b0c9f74754ebdbfc544b05a2586127a561225f565b6040516127b291906139dd565b60405180910390a150565b5f7ff0c57e16840df040f15088dc2f81fe391c3923bec73e23a9662efc9c229c6a00905090565b6127ec612960565b6127f46129a0565b565b6127fe612960565b565b612808612960565b565b612814828261135e565b6128575780826040517fe2517d3f00000000000000000000000000000000000000000000000000000000815260040161284e929190613a35565b60405180910390fd5b5050565b612863611307565b612899576040517f8dfc202b00000000000000000000000000000000000000000000000000000000815260040160405180910390fd5b565b5f6128c77f360894a13ba1a3210667c828492db98dca3e2076cc3735a920a3ca505d382bbc5f1b6129d0565b5f015f9054906101000a900473ffffffffffffffffffffffffffffffffffffffff16905090565b6128f7826129d9565b8173ffffffffffffffffffffffffffffffffffffffff167fbc7cd75a20ee27fd9adebab32041f755214dbc6bffa90cc0225b39da2e5c2d3b60405160405180910390a25f815111156129535761294d8282612aa2565b5061295c565b61295b612b22565b5b5050565b612968612b5e565b61299e576040517fd7e6bcf800000000000000000000000000000000000000000000000000000000815260040160405180910390fd5b565b6129a8612960565b5f6129b1612727565b90505f815f015f6101000a81548160ff02191690831515021790555050565b5f819050919050565b5f8173ffffffffffffffffffffffffffffffffffffffff163b03612a3457806040517f4c9c8ce3000000000000000000000000000000000000000000000000000000008152600401612a2b91906139dd565b60405180910390fd5b80612a607f360894a13ba1a3210667c828492db98dca3e2076cc3735a920a3ca505d382bbc5f1b6129d0565b5f015f6101000a81548173ffffffffffffffffffffffffffffffffffffffff021916908373ffffffffffffffffffffffffffffffffffffffff16021790555050565b60605f808473ffffffffffffffffffffffffffffffffffffffff1684604051612acb9190613aa0565b5f60405180830381855af49150503d805f8114612b03576040519150601f19603f3d011682016040523d82523d5f602084013e612b08565b606091505b5091509150612b18858383612b7c565b9250505092915050565b5f341115612b5c576040517fb398979f00000000000000000000000000000000000000000000000000000000815260040160405180910390fd5b565b5f612b676127bd565b5f0160089054906101000a900460ff16905090565b606082612b9157612b8c82612c09565b612c01565b5f8251148015612bb757505f8473ffffffffffffffffffffffffffffffffffffffff163b145b15612bf957836040517f9996b315000000000000000000000000000000000000000000000000000000008152600401612bf091906139dd565b60405180910390fd5b819050612c02565b5b9392505050565b5f81511115612c1b5780518082602001fd5b6040517f1425ea4200000000000000000000000000000000000000000000000000000000815260040160405180910390fd5b5f604051905090565b5f80fd5b5f80fd5b5f7fffffffff0000000000000000000000000000000000000000000000000000000082169050919050565b612c9281612c5e565b8114612c9c575f80fd5b50565b5f81359050612cad81612c89565b92915050565b5f60208284031215612cc857612cc7612c56565b5b5f612cd584828501612c9f565b91505092915050565b5f8115159050919050565b612cf281612cde565b82525050565b5f602082019050612d0b5f830184612ce9565b92915050565b5f819050919050565b612d2381612d11565b8114612d2d575f80fd5b50565b5f81359050612d3e81612d1a565b92915050565b5f60208284031215612d5957612d58612c56565b5b5f612d6684828501612d30565b91505092915050565b5f73ffffffffffffffffffffffffffffffffffffffff82169050919050565b5f612d9882612d6f565b9050919050565b612da881612d8e565b8114612db2575f80fd5b50565b5f81359050612dc381612d9f565b92915050565b5f8060408385031215612ddf57612dde612c56565b5b5f612dec85828601612db5565b9250506020612dfd85828601612d30565b9150509250929050565b5f60208284031215612e1c57612e1b612c56565b5b5f612e2984828501612db5565b91505092915050565b612e3b81612d11565b82525050565b5f606082019050612e545f830186612e32565b612e616020830185612e32565b612e6e6040830184612e32565b949350505050565b5f819050919050565b612e8881612e76565b82525050565b5f602082019050612ea15f830184612e7f565b92915050565b612eb081612e76565b8114612eba575f80fd5b50565b5f81359050612ecb81612ea7565b92915050565b5f60208284031215612ee657612ee5612c56565b5b5f612ef384828501612ebd565b91505092915050565b5f602082019050612f0f5f830184612e32565b92915050565b5f8060408385031215612f2b57612f2a612c56565b5b5f612f3885828601612ebd565b9250506020612f4985828601612db5565b9150509250929050565b5f819050919050565b5f612f76612f71612f6c84612d6f565b612f53565b612d6f565b9050919050565b5f612f8782612f5c565b9050919050565b5f612f9882612f7d565b9050919050565b612fa881612f8e565b82525050565b5f602082019050612fc15f830184612f9f565b92915050565b5f8060408385031215612fdd57612fdc612c56565b5b5f612fea85828601612d30565b9250506020612ffb85828601612d30565b9150509250929050565b5f80fd5b5f80fd5b5f601f19601f8301169050919050565b7f4e487b71000000000000000000000000000000000000000000000000000000005f52604160045260245ffd5b6130538261300d565b810181811067ffffffffffffffff821117156130725761307161301d565b5b80604052505050565b5f613084612c4d565b9050613090828261304a565b919050565b5f67ffffffffffffffff8211156130af576130ae61301d565b5b6130b88261300d565b9050602081019050919050565b828183375f83830152505050565b5f6130e56130e084613095565b61307b565b90508281526020810184848401111561310157613100613009565b5b61310c8482856130c5565b509392505050565b5f82601f83011261312857613127613005565b5b81356131388482602086016130d3565b91505092915050565b5f806040838503121561315757613156612c56565b5b5f61316485828601612db5565b925050602083013567ffffffffffffffff81111561318557613184612c5a565b5b61319185828601613114565b9150509250929050565b5f6040820190506131ae5f830185612e32565b6131bb6020830184612e32565b9392505050565b5f81519050919050565b5f82825260208201905092915050565b8281835e5f83830152505050565b5f6131f4826131c2565b6131fe81856131cc565b935061320e8185602086016131dc565b6132178161300d565b840191505092915050565b5f6020820190508181035f83015261323a81846131ea565b905092915050565b5f805f6060848603121561325957613258612c56565b5b5f61326686828701612db5565b935050602061327786828701612d30565b925050604061328886828701612d30565b9150509250925092565b5f805f805f8060c087890312156132ac576132ab612c56565b5b5f6132b989828a01612db5565b96505060206132ca89828a01612db5565b95505060406132db89828a01612db5565b94505060606132ec89828a01612db5565b93505060806132fd89828a01612db5565b92505060a061330e89828a01612db5565b9150509295509295509295565b5f61332582612f7d565b9050919050565b6133358161331b565b82525050565b5f60208201905061334e5f83018461332c565b92915050565b61335d81612d8e565b82525050565b5f6060820190506133765f830186613354565b6133836020830185613354565b6133906040830184612e32565b949350505050565b5f6040820190506133ab5f830185613354565b6133b86020830184612e32565b9392505050565b6133c881612cde565b81146133d2575f80fd5b50565b5f815190506133e3816133bf565b92915050565b5f602082840312156133fe576133fd612c56565b5b5f61340b848285016133d5565b91505092915050565b7f45544820616d6f756e74206d7573742062652067726561746572207468616e205f8201527f7a65726f00000000000000000000000000000000000000000000000000000000602082015250565b5f61346e6024836131cc565b915061347982613414565b604082019050919050565b5f6020820190508181035f83015261349b81613462565b9050919050565b5f815190506134b081612d9f565b92915050565b5f602082840312156134cb576134ca612c56565b5b5f6134d8848285016134a2565b91505092915050565b7f4e4654206e6f74206f776e656420627920636f6e7472616374000000000000005f82015250565b5f6135156019836131cc565b9150613520826134e1565b602082019050919050565b5f6020820190508181035f83015261354281613509565b9050919050565b7f4e487b71000000000000000000000000000000000000000000000000000000005f52601160045260245ffd5b5f61358082612d11565b915061358b83612d11565b92508282039050818111156135a3576135a2613549565b5b92915050565b7f536c69707061676520746f6c6572616e636520657863656564656400000000005f82015250565b5f6135dd601b836131cc565b91506135e8826135a9565b602082019050919050565b5f6020820190508181035f83015261360a816135d1565b9050919050565b7f496e73756666696369656e74206c6971756964697479000000000000000000005f82015250565b5f6136456016836131cc565b915061365082613611565b602082019050919050565b5f6020820190508181035f83015261367281613639565b9050919050565b5f61368382612d11565b915061368e83612d11565b92508282019050808211156136a6576136a5613549565b5b92915050565b7f546f6b656e20616d6f756e74206d7573742062652067726561746572207468615f8201527f6e207a65726f0000000000000000000000000000000000000000000000000000602082015250565b5f6137066026836131cc565b9150613711826136ac565b604082019050919050565b5f6020820190508181035f830152613733816136fa565b9050919050565b7f496e76616c696420706f6f6c20737461746500000000000000000000000000005f82015250565b5f61376e6012836131cc565b91506137798261373a565b602082019050919050565b5f6020820190508181035f83015261379b81613762565b9050919050565b5f6137ac82612d11565b91506137b783612d11565b92508282026137c581612d11565b915082820484148315176137dc576137db613549565b5b5092915050565b7f4e487b71000000000000000000000000000000000000000000000000000000005f52601260045260245ffd5b5f61381a82612d11565b915061382583612d11565b925082613835576138346137e3565b5b828204905092915050565b7f496e73756666696369656e742045544820616d6f756e740000000000000000005f82015250565b5f6138746017836131cc565b915061387f82613840565b602082019050919050565b5f6020820190508181035f8301526138a181613868565b9050919050565b5f819050919050565b5f67ffffffffffffffff82169050919050565b5f6138de6138d96138d4846138a8565b612f53565b6138b1565b9050919050565b6138ee816138c4565b82525050565b5f6020820190506139075f8301846138e5565b92915050565b7f4e6f74206f776e6572206f66204e4654000000000000000000000000000000005f82015250565b5f6139416010836131cc565b915061394c8261390d565b602082019050919050565b5f6020820190508181035f83015261396e81613935565b9050919050565b7f496e73756666696369656e742062616c616e63650000000000000000000000005f82015250565b5f6139a96014836131cc565b91506139b482613975565b602082019050919050565b5f6020820190508181035f8301526139d68161399d565b9050919050565b5f6020820190506139f05f830184613354565b92915050565b5f81519050613a0481612ea7565b92915050565b5f60208284031215613a1f57613a1e612c56565b5b5f613a2c848285016139f6565b91505092915050565b5f604082019050613a485f830185613354565b613a556020830184612e7f565b9392505050565b5f81519050919050565b5f81905092915050565b5f613a7a82613a5c565b613a848185613a66565b9350613a948185602086016131dc565b80840191505092915050565b5f613aab8284613a70565b91508190509291505056fea26469706673582212205bf6c2efaa4270f923e1d8981c52665ef8b357d3f4539e2838981c619ad515a964736f6c634300081a0033",
					"opcodes": "PUSH1 0xA0 PUSH1 0x40 MSTORE ADDRESS PUSH20 0xFFFFFFFFFFFFFFFFFFFFFFFFFFFFFFFFFFFFFFFF AND PUSH1 0x80 SWAP1 PUSH20 0xFFFFFFFFFFFFFFFFFFFFFFFFFFFFFFFFFFFFFFFF AND DUP2 MSTORE POP CALLVALUE DUP1 ISZERO PUSH2 0x42 JUMPI PUSH0 DUP1 REVERT JUMPDEST POP PUSH2 0x51 PUSH2 0x56 PUSH1 0x20 SHL PUSH1 0x20 SHR JUMP JUMPDEST PUSH2 0x1B6 JUMP JUMPDEST PUSH0 PUSH2 0x65 PUSH2 0x154 PUSH1 0x20 SHL PUSH1 0x20 SHR JUMP JUMPDEST SWAP1 POP DUP1 PUSH0 ADD PUSH1 0x8 SWAP1 SLOAD SWAP1 PUSH2 0x100 EXP SWAP1 DIV PUSH1 0xFF AND ISZERO PUSH2 0xAF JUMPI PUSH1 0x40 MLOAD PUSH32 0xF92EE8A900000000000000000000000000000000000000000000000000000000 DUP2 MSTORE PUSH1 0x4 ADD PUSH1 0x40 MLOAD DUP1 SWAP2 SUB SWAP1 REVERT JUMPDEST PUSH8 0xFFFFFFFFFFFFFFFF DUP1 AND DUP2 PUSH0 ADD PUSH0 SWAP1 SLOAD SWAP1 PUSH2 0x100 EXP SWAP1 DIV PUSH8 0xFFFFFFFFFFFFFFFF AND PUSH8 0xFFFFFFFFFFFFFFFF AND EQ PUSH2 0x151 JUMPI PUSH8 0xFFFFFFFFFFFFFFFF DUP2 PUSH0 ADD PUSH0 PUSH2 0x100 EXP DUP2 SLOAD DUP2 PUSH8 0xFFFFFFFFFFFFFFFF MUL NOT AND SWAP1 DUP4 PUSH8 0xFFFFFFFFFFFFFFFF AND MUL OR SWAP1 SSTORE POP PUSH32 0xC7F505B2F371AE2175EE4913F4499E1F2633A7B5936321EED1CDAEB6115181D2 PUSH8 0xFFFFFFFFFFFFFFFF PUSH1 0x40 MLOAD PUSH2 0x148 SWAP2 SWAP1 PUSH2 0x19D JUMP JUMPDEST PUSH1 0x40 MLOAD DUP1 SWAP2 SUB SWAP1 LOG1 JUMPDEST POP JUMP JUMPDEST PUSH0 PUSH32 0xF0C57E16840DF040F15088DC2F81FE391C3923BEC73E23A9662EFC9C229C6A00 SWAP1 POP SWAP1 JUMP JUMPDEST PUSH0 PUSH8 0xFFFFFFFFFFFFFFFF DUP3 AND SWAP1 POP SWAP2 SWAP1 POP JUMP JUMPDEST PUSH2 0x197 DUP2 PUSH2 0x17B JUMP JUMPDEST DUP3 MSTORE POP POP JUMP JUMPDEST PUSH0 PUSH1 0x20 DUP3 ADD SWAP1 POP PUSH2 0x1B0 PUSH0 DUP4 ADD DUP5 PUSH2 0x18E JUMP JUMPDEST SWAP3 SWAP2 POP POP JUMP JUMPDEST PUSH1 0x80 MLOAD PUSH2 0x3AEC PUSH2 0x1DC PUSH0 CODECOPY PUSH0 DUP2 DUP2 PUSH2 0x2470 ADD MSTORE DUP2 DUP2 PUSH2 0x24C5 ADD MSTORE PUSH2 0x26A2 ADD MSTORE PUSH2 0x3AEC PUSH0 RETURN INVALID PUSH1 0x80 PUSH1 0x40 MSTORE PUSH1 0x4 CALLDATASIZE LT PUSH2 0x1D7 JUMPI PUSH0 CALLDATALOAD PUSH1 0xE0 SHR DUP1 PUSH4 0x56688700 GT PUSH2 0x101 JUMPI DUP1 PUSH4 0xCC2A9A5B GT PUSH2 0x94 JUMPI DUP1 PUSH4 0xE15CC8DA GT PUSH2 0x63 JUMPI DUP1 PUSH4 0xE15CC8DA EQ PUSH2 0x64A JUMPI DUP1 PUSH4 0xE63AB1E9 EQ PUSH2 0x672 JUMPI DUP1 PUSH4 0xF14210A6 EQ PUSH2 0x69C JUMPI DUP1 PUSH4 0xF72C0D8B EQ PUSH2 0x6C4 JUMPI PUSH2 0x1D7 JUMP JUMPDEST DUP1 PUSH4 0xCC2A9A5B EQ PUSH2 0x5A8 JUMPI DUP1 PUSH4 0xD547741F EQ PUSH2 0x5D0 JUMPI DUP1 PUSH4 0xD9A37AD2 EQ PUSH2 0x5F8 JUMPI DUP1 PUSH4 0xDA069683 EQ PUSH2 0x620 JUMPI PUSH2 0x1D7 JUMP JUMPDEST DUP1 PUSH4 0xA201CCF6 GT PUSH2 0xD0 JUMPI DUP1 PUSH4 0xA201CCF6 EQ PUSH2 0x4EF JUMPI DUP1 PUSH4 0xA217FDDF EQ PUSH2 0x52C JUMPI DUP1 PUSH4 0xAD3CB1CC EQ PUSH2 0x556 JUMPI DUP1 PUSH4 0xC7088313 EQ PUSH2 0x580 JUMPI PUSH2 0x1D7 JUMP JUMPDEST DUP1 PUSH4 0x56688700 EQ PUSH2 0x443 JUMPI DUP1 PUSH4 0x5C975ABB EQ PUSH2 0x473 JUMPI DUP1 PUSH4 0x8456CB59 EQ PUSH2 0x49D JUMPI DUP1 PUSH4 0x91D14854 EQ PUSH2 0x4B3 JUMPI PUSH2 0x1D7 JUMP JUMPDEST DUP1 PUSH4 0x2F2FF15D GT PUSH2 0x179 JUMPI DUP1 PUSH4 0x49F0346E GT PUSH2 0x148 JUMPI DUP1 PUSH4 0x49F0346E EQ PUSH2 0x3C5 JUMPI DUP1 PUSH4 0x4F1EF286 EQ PUSH2 0x3E1 JUMPI DUP1 PUSH4 0x51422E97 EQ PUSH2 0x3FD JUMPI DUP1 PUSH4 0x52D1902D EQ PUSH2 0x419 JUMPI PUSH2 0x1D7 JUMP JUMPDEST DUP1 PUSH4 0x2F2FF15D EQ PUSH2 0x335 JUMPI DUP1 PUSH4 0x34AAB064 EQ PUSH2 0x35D JUMPI DUP1 PUSH4 0x36568ABE EQ PUSH2 0x387 JUMPI DUP1 PUSH4 0x3F4BA83A EQ PUSH2 0x3AF JUMPI PUSH2 0x1D7 JUMP JUMPDEST DUP1 PUSH4 0xB0FD47E GT PUSH2 0x1B5 JUMPI DUP1 PUSH4 0xB0FD47E EQ PUSH2 0x267 JUMPI DUP1 PUSH4 0x242F0551 EQ PUSH2 0x2A5 JUMPI DUP1 PUSH4 0x248A9CA3 EQ PUSH2 0x2CF JUMPI DUP1 PUSH4 0x2D11C58A EQ PUSH2 0x30B JUMPI PUSH2 0x1D7 JUMP JUMPDEST DUP1 PUSH4 0x1FFC9A7 EQ PUSH2 0x1DB JUMPI DUP1 PUSH4 0x23245D7 EQ PUSH2 0x217 JUMPI DUP1 PUSH4 0x6B091F9 EQ PUSH2 0x23F JUMPI JUMPDEST PUSH0 DUP1 REVERT JUMPDEST CALLVALUE DUP1 ISZERO PUSH2 0x1E6 JUMPI PUSH0 DUP1 REVERT JUMPDEST POP PUSH2 0x201 PUSH1 0x4 DUP1 CALLDATASIZE SUB DUP2 ADD SWAP1 PUSH2 0x1FC SWAP2 SWAP1 PUSH2 0x2CB3 JUMP JUMPDEST PUSH2 0x6EE JUMP JUMPDEST PUSH1 0x40 MLOAD PUSH2 0x20E SWAP2 SWAP1 PUSH2 0x2CF8 JUMP JUMPDEST PUSH1 0x40 MLOAD DUP1 SWAP2 SUB SWAP1 RETURN JUMPDEST CALLVALUE DUP1 ISZERO PUSH2 0x222 JUMPI PUSH0 DUP1 REVERT JUMPDEST POP PUSH2 0x23D PUSH1 0x4 DUP1 CALLDATASIZE SUB DUP2 ADD SWAP1 PUSH2 0x238 SWAP2 SWAP1 PUSH2 0x2D44 JUMP JUMPDEST PUSH2 0x767 JUMP JUMPDEST STOP JUMPDEST CALLVALUE DUP1 ISZERO PUSH2 0x24A JUMPI PUSH0 DUP1 REVERT JUMPDEST POP PUSH2 0x265 PUSH1 0x4 DUP1 CALLDATASIZE SUB DUP2 ADD SWAP1 PUSH2 0x260 SWAP2 SWAP1 PUSH2 0x2DC9 JUMP JUMPDEST PUSH2 0x802 JUMP JUMPDEST STOP JUMPDEST CALLVALUE DUP1 ISZERO PUSH2 0x272 JUMPI PUSH0 DUP1 REVERT JUMPDEST POP PUSH2 0x28D PUSH1 0x4 DUP1 CALLDATASIZE SUB DUP2 ADD SWAP1 PUSH2 0x288 SWAP2 SWAP1 PUSH2 0x2E07 JUMP JUMPDEST PUSH2 0x88F JUMP JUMPDEST PUSH1 0x40 MLOAD PUSH2 0x29C SWAP4 SWAP3 SWAP2 SWAP1 PUSH2 0x2E41 JUMP JUMPDEST PUSH1 0x40 MLOAD DUP1 SWAP2 SUB SWAP1 RETURN JUMPDEST CALLVALUE DUP1 ISZERO PUSH2 0x2B0 JUMPI PUSH0 DUP1 REVERT JUMPDEST POP PUSH2 0x2B9 PUSH2 0x8B5 JUMP JUMPDEST PUSH1 0x40 MLOAD PUSH2 0x2C6 SWAP2 SWAP1 PUSH2 0x2E8E JUMP JUMPDEST PUSH1 0x40 MLOAD DUP1 SWAP2 SUB SWAP1 RETURN JUMPDEST CALLVALUE DUP1 ISZERO PUSH2 0x2DA JUMPI PUSH0 DUP1 REVERT JUMPDEST POP PUSH2 0x2F5 PUSH1 0x4 DUP1 CALLDATASIZE SUB DUP2 ADD SWAP1 PUSH2 0x2F0 SWAP2 SWAP1 PUSH2 0x2ED1 JUMP JUMPDEST PUSH2 0x8D9 JUMP JUMPDEST PUSH1 0x40 MLOAD PUSH2 0x302 SWAP2 SWAP1 PUSH2 0x2E8E JUMP JUMPDEST PUSH1 0x40 MLOAD DUP1 SWAP2 SUB SWAP1 RETURN JUMPDEST CALLVALUE DUP1 ISZERO PUSH2 0x316 JUMPI PUSH0 DUP1 REVERT JUMPDEST POP PUSH2 0x31F PUSH2 0x903 JUMP JUMPDEST PUSH1 0x40 MLOAD PUSH2 0x32C SWAP2 SWAP1 PUSH2 0x2EFC JUMP JUMPDEST PUSH1 0x40 MLOAD DUP1 SWAP2 SUB SWAP1 RETURN JUMPDEST CALLVALUE DUP1 ISZERO PUSH2 0x340 JUMPI PUSH0 DUP1 REVERT JUMPDEST POP PUSH2 0x35B PUSH1 0x4 DUP1 CALLDATASIZE SUB DUP2 ADD SWAP1 PUSH2 0x356 SWAP2 SWAP1 PUSH2 0x2F15 JUMP JUMPDEST PUSH2 0x908 JUMP JUMPDEST STOP JUMPDEST CALLVALUE DUP1 ISZERO PUSH2 0x368 JUMPI PUSH0 DUP1 REVERT JUMPDEST POP PUSH2 0x371 PUSH2 0x92A JUMP JUMPDEST PUSH1 0x40 MLOAD PUSH2 0x37E SWAP2 SWAP1 PUSH2 0x2FAE JUMP JUMPDEST PUSH1 0x40 MLOAD DUP1 SWAP2 SUB SWAP1 RETURN JUMPDEST CALLVALUE DUP1 ISZERO PUSH2 0x392 JUMPI PUSH0 DUP1 REVERT JUMPDEST POP PUSH2 0x3AD PUSH1 0x4 DUP1 CALLDATASIZE SUB DUP2 ADD SWAP1 PUSH2 0x3A8 SWAP2 SWAP1 PUSH2 0x2F15 JUMP JUMPDEST PUSH2 0x94D JUMP JUMPDEST STOP JUMPDEST CALLVALUE DUP1 ISZERO PUSH2 0x3BA JUMPI PUSH0 DUP1 REVERT JUMPDEST POP PUSH2 0x3C3 PUSH2 0x9C8 JUMP JUMPDEST STOP JUMPDEST PUSH2 0x3DF PUSH1 0x4 DUP1 CALLDATASIZE SUB DUP2 ADD SWAP1 PUSH2 0x3DA SWAP2 SWAP1 PUSH2 0x2FC7 JUMP JUMPDEST PUSH2 0x9FD JUMP JUMPDEST STOP JUMPDEST PUSH2 0x3FB PUSH1 0x4 DUP1 CALLDATASIZE SUB DUP2 ADD SWAP1 PUSH2 0x3F6 SWAP2 SWAP1 PUSH2 0x3141 JUMP JUMPDEST PUSH2 0xD05 JUMP JUMPDEST STOP JUMPDEST PUSH2 0x417 PUSH1 0x4 DUP1 CALLDATASIZE SUB DUP2 ADD SWAP1 PUSH2 0x412 SWAP2 SWAP1 PUSH2 0x2DC9 JUMP JUMPDEST PUSH2 0xD24 JUMP JUMPDEST STOP JUMPDEST CALLVALUE DUP1 ISZERO PUSH2 0x424 JUMPI PUSH0 DUP1 REVERT JUMPDEST POP PUSH2 0x42D PUSH2 0xF76 JUMP JUMPDEST PUSH1 0x40 MLOAD PUSH2 0x43A SWAP2 SWAP1 PUSH2 0x2E8E JUMP JUMPDEST PUSH1 0x40 MLOAD DUP1 SWAP2 SUB SWAP1 RETURN JUMPDEST PUSH2 0x45D PUSH1 0x4 DUP1 CALLDATASIZE SUB DUP2 ADD SWAP1 PUSH2 0x458 SWAP2 SWAP1 PUSH2 0x2DC9 JUMP JUMPDEST PUSH2 0xFA7 JUMP JUMPDEST PUSH1 0x40 MLOAD PUSH2 0x46A SWAP2 SWAP1 PUSH2 0x2EFC JUMP JUMPDEST PUSH1 0x40 MLOAD DUP1 SWAP2 SUB SWAP1 RETURN JUMPDEST CALLVALUE DUP1 ISZERO PUSH2 0x47E JUMPI PUSH0 DUP1 REVERT JUMPDEST POP PUSH2 0x487 PUSH2 0x1307 JUMP JUMPDEST PUSH1 0x40 MLOAD PUSH2 0x494 SWAP2 SWAP1 PUSH2 0x2CF8 JUMP JUMPDEST PUSH1 0x40 MLOAD DUP1 SWAP2 SUB SWAP1 RETURN JUMPDEST CALLVALUE DUP1 ISZERO PUSH2 0x4A8 JUMPI PUSH0 DUP1 REVERT JUMPDEST POP PUSH2 0x4B1 PUSH2 0x1329 JUMP JUMPDEST STOP JUMPDEST CALLVALUE DUP1 ISZERO PUSH2 0x4BE JUMPI PUSH0 DUP1 REVERT JUMPDEST POP PUSH2 0x4D9 PUSH1 0x4 DUP1 CALLDATASIZE SUB DUP2 ADD SWAP1 PUSH2 0x4D4 SWAP2 SWAP1 PUSH2 0x2F15 JUMP JUMPDEST PUSH2 0x135E JUMP JUMPDEST PUSH1 0x40 MLOAD PUSH2 0x4E6 SWAP2 SWAP1 PUSH2 0x2CF8 JUMP JUMPDEST PUSH1 0x40 MLOAD DUP1 SWAP2 SUB SWAP1 RETURN JUMPDEST CALLVALUE DUP1 ISZERO PUSH2 0x4FA JUMPI PUSH0 DUP1 REVERT JUMPDEST POP PUSH2 0x515 PUSH1 0x4 DUP1 CALLDATASIZE SUB DUP2 ADD SWAP1 PUSH2 0x510 SWAP2 SWAP1 PUSH2 0x2DC9 JUMP JUMPDEST PUSH2 0x13CF JUMP JUMPDEST PUSH1 0x40 MLOAD PUSH2 0x523 SWAP3 SWAP2 SWAP1 PUSH2 0x319B JUMP JUMPDEST PUSH1 0x40 MLOAD DUP1 SWAP2 SUB SWAP1 RETURN JUMPDEST CALLVALUE DUP1 ISZERO PUSH2 0x537 JUMPI PUSH0 DUP1 REVERT JUMPDEST POP PUSH2 0x540 PUSH2 0x16AF JUMP JUMPDEST PUSH1 0x40 MLOAD PUSH2 0x54D SWAP2 SWAP1 PUSH2 0x2E8E JUMP JUMPDEST PUSH1 0x40 MLOAD DUP1 SWAP2 SUB SWAP1 RETURN JUMPDEST CALLVALUE DUP1 ISZERO PUSH2 0x561 JUMPI PUSH0 DUP1 REVERT JUMPDEST POP PUSH2 0x56A PUSH2 0x16B5 JUMP JUMPDEST PUSH1 0x40 MLOAD PUSH2 0x577 SWAP2 SWAP1 PUSH2 0x3222 JUMP JUMPDEST PUSH1 0x40 MLOAD DUP1 SWAP2 SUB SWAP1 RETURN JUMPDEST CALLVALUE DUP1 ISZERO PUSH2 0x58B JUMPI PUSH0 DUP1 REVERT JUMPDEST POP PUSH2 0x5A6 PUSH1 0x4 DUP1 CALLDATASIZE SUB DUP2 ADD SWAP1 PUSH2 0x5A1 SWAP2 SWAP1 PUSH2 0x3242 JUMP JUMPDEST PUSH2 0x16EE JUMP JUMPDEST STOP JUMPDEST CALLVALUE DUP1 ISZERO PUSH2 0x5B3 JUMPI PUSH0 DUP1 REVERT JUMPDEST POP PUSH2 0x5CE PUSH1 0x4 DUP1 CALLDATASIZE SUB DUP2 ADD SWAP1 PUSH2 0x5C9 SWAP2 SWAP1 PUSH2 0x3292 JUMP JUMPDEST PUSH2 0x17A7 JUMP JUMPDEST STOP JUMPDEST CALLVALUE DUP1 ISZERO PUSH2 0x5DB JUMPI PUSH0 DUP1 REVERT JUMPDEST POP PUSH2 0x5F6 PUSH1 0x4 DUP1 CALLDATASIZE SUB DUP2 ADD SWAP1 PUSH2 0x5F1 SWAP2 SWAP1 PUSH2 0x2F15 JUMP JUMPDEST PUSH2 0x1A49 JUMP JUMPDEST STOP JUMPDEST CALLVALUE DUP1 ISZERO PUSH2 0x603 JUMPI PUSH0 DUP1 REVERT JUMPDEST POP PUSH2 0x61E PUSH1 0x4 DUP1 CALLDATASIZE SUB DUP2 ADD SWAP1 PUSH2 0x619 SWAP2 SWAP1 PUSH2 0x2FC7 JUMP JUMPDEST PUSH2 0x1A6B JUMP JUMPDEST STOP JUMPDEST CALLVALUE DUP1 ISZERO PUSH2 0x62B JUMPI PUSH0 DUP1 REVERT JUMPDEST POP PUSH2 0x634 PUSH2 0x1D26 JUMP JUMPDEST PUSH1 0x40 MLOAD PUSH2 0x641 SWAP2 SWAP1 PUSH2 0x333B JUMP JUMPDEST PUSH1 0x40 MLOAD DUP1 SWAP2 SUB SWAP1 RETURN JUMPDEST CALLVALUE DUP1 ISZERO PUSH2 0x655 JUMPI PUSH0 DUP1 REVERT JUMPDEST POP PUSH2 0x670 PUSH1 0x4 DUP1 CALLDATASIZE SUB DUP2 ADD SWAP1 PUSH2 0x66B SWAP2 SWAP1 PUSH2 0x3242 JUMP JUMPDEST PUSH2 0x1D4B JUMP JUMPDEST STOP JUMPDEST CALLVALUE DUP1 ISZERO PUSH2 0x67D JUMPI PUSH0 DUP1 REVERT JUMPDEST POP PUSH2 0x686 PUSH2 0x1FE4 JUMP JUMPDEST PUSH1 0x40 MLOAD PUSH2 0x693 SWAP2 SWAP1 PUSH2 0x2E8E JUMP JUMPDEST PUSH1 0x40 MLOAD DUP1 SWAP2 SUB SWAP1 RETURN JUMPDEST CALLVALUE DUP1 ISZERO PUSH2 0x6A7 JUMPI PUSH0 DUP1 REVERT JUMPDEST POP PUSH2 0x6C2 PUSH1 0x4 DUP1 CALLDATASIZE SUB DUP2 ADD SWAP1 PUSH2 0x6BD SWAP2 SWAP1 PUSH2 0x2D44 JUMP JUMPDEST PUSH2 0x2008 JUMP JUMPDEST STOP JUMPDEST CALLVALUE DUP1 ISZERO PUSH2 0x6CF JUMPI PUSH0 DUP1 REVERT JUMPDEST POP PUSH2 0x6D8 PUSH2 0x209F JUMP JUMPDEST PUSH1 0x40 MLOAD PUSH2 0x6E5 SWAP2 SWAP1 PUSH2 0x2E8E JUMP JUMPDEST PUSH1 0x40 MLOAD DUP1 SWAP2 SUB SWAP1 RETURN JUMPDEST PUSH0 PUSH32 0x7965DB0B00000000000000000000000000000000000000000000000000000000 PUSH28 0xFFFFFFFFFFFFFFFFFFFFFFFFFFFFFFFFFFFFFFFFFFFFFFFFFFFFFFFF NOT AND DUP3 PUSH28 0xFFFFFFFFFFFFFFFFFFFFFFFFFFFFFFFFFFFFFFFFFFFFFFFFFFFFFFFF NOT AND EQ DUP1 PUSH2 0x760 JUMPI POP PUSH2 0x75F DUP3 PUSH2 0x20C3 JUMP JUMPDEST JUMPDEST SWAP1 POP SWAP2 SWAP1 POP JUMP JUMPDEST PUSH0 DUP1 SHL PUSH2 0x773 DUP2 PUSH2 0x212C JUMP JUMPDEST PUSH1 0x1 PUSH0 SWAP1 SLOAD SWAP1 PUSH2 0x100 EXP SWAP1 DIV PUSH20 0xFFFFFFFFFFFFFFFFFFFFFFFFFFFFFFFFFFFFFFFF AND PUSH20 0xFFFFFFFFFFFFFFFFFFFFFFFFFFFFFFFFFFFFFFFF AND PUSH4 0x42842E0E ADDRESS CALLER DUP6 PUSH1 0x40 MLOAD DUP5 PUSH4 0xFFFFFFFF AND PUSH1 0xE0 SHL DUP2 MSTORE PUSH1 0x4 ADD PUSH2 0x7D1 SWAP4 SWAP3 SWAP2 SWAP1 PUSH2 0x3363 JUMP JUMPDEST PUSH0 PUSH1 0x40 MLOAD DUP1 DUP4 SUB DUP2 PUSH0 DUP8 DUP1 EXTCODESIZE ISZERO DUP1 ISZERO PUSH2 0x7E8 JUMPI PUSH0 DUP1 REVERT JUMPDEST POP GAS CALL ISZERO DUP1 ISZERO PUSH2 0x7FA JUMPI RETURNDATASIZE PUSH0 DUP1 RETURNDATACOPY RETURNDATASIZE PUSH0 REVERT JUMPDEST POP POP POP POP POP POP JUMP JUMPDEST PUSH0 DUP1 SHL PUSH2 0x80E DUP2 PUSH2 0x212C JUMP JUMPDEST DUP3 PUSH20 0xFFFFFFFFFFFFFFFFFFFFFFFFFFFFFFFFFFFFFFFF AND PUSH4 0xA9059CBB CALLER DUP5 PUSH1 0x40 MLOAD DUP4 PUSH4 0xFFFFFFFF AND PUSH1 0xE0 SHL DUP2 MSTORE PUSH1 0x4 ADD PUSH2 0x849 SWAP3 SWAP2 SWAP1 PUSH2 0x3398 JUMP JUMPDEST PUSH1 0x20 PUSH1 0x40 MLOAD DUP1 DUP4 SUB DUP2 PUSH0 DUP8 GAS CALL ISZERO DUP1 ISZERO PUSH2 0x865 JUMPI RETURNDATASIZE PUSH0 DUP1 RETURNDATACOPY RETURNDATASIZE PUSH0 REVERT JUMPDEST POP POP POP POP PUSH1 0x40 MLOAD RETURNDATASIZE PUSH1 0x1F NOT PUSH1 0x1F DUP3 ADD AND DUP3 ADD DUP1 PUSH1 0x40 MSTORE POP DUP2 ADD SWAP1 PUSH2 0x889 SWAP2 SWAP1 PUSH2 0x33E9 JUMP JUMPDEST POP POP POP POP JUMP JUMPDEST PUSH1 0x2 PUSH1 0x20 MSTORE DUP1 PUSH0 MSTORE PUSH1 0x40 PUSH0 KECCAK256 PUSH0 SWAP2 POP SWAP1 POP DUP1 PUSH0 ADD SLOAD SWAP1 DUP1 PUSH1 0x1 ADD SLOAD SWAP1 DUP1 PUSH1 0x2 ADD SLOAD SWAP1 POP DUP4 JUMP JUMPDEST PUSH32 0x77E60B99A50D27FB027F6912A507D956105B4148ADAB27A86D235C8BCCA8FA2F DUP2 JUMP JUMPDEST PUSH0 DUP1 PUSH2 0x8E3 PUSH2 0x2140 JUMP JUMPDEST SWAP1 POP DUP1 PUSH0 ADD PUSH0 DUP5 DUP2 MSTORE PUSH1 0x20 ADD SWAP1 DUP2 MSTORE PUSH1 0x20 ADD PUSH0 KECCAK256 PUSH1 0x1 ADD SLOAD SWAP2 POP POP SWAP2 SWAP1 POP JUMP JUMPDEST PUSH1 0x3 DUP2 JUMP JUMPDEST PUSH2 0x911 DUP3 PUSH2 0x8D9 JUMP JUMPDEST PUSH2 0x91A DUP2 PUSH2 0x212C JUMP JUMPDEST PUSH2 0x924 DUP4 DUP4 PUSH2 0x2167 JUMP JUMPDEST POP POP POP POP JUMP JUMPDEST PUSH0 DUP1 SLOAD SWAP1 PUSH2 0x100 EXP SWAP1 DIV PUSH20 0xFFFFFFFFFFFFFFFFFFFFFFFFFFFFFFFFFFFFFFFF AND DUP2 JUMP JUMPDEST PUSH2 0x955 PUSH2 0x225F JUMP JUMPDEST PUSH20 0xFFFFFFFFFFFFFFFFFFFFFFFFFFFFFFFFFFFFFFFF AND DUP2 PUSH20 0xFFFFFFFFFFFFFFFFFFFFFFFFFFFFFFFFFFFFFFFF AND EQ PUSH2 0x9B9 JUMPI PUSH1 0x40 MLOAD PUSH32 0x6697B23200000000000000000000000000000000000000000000000000000000 DUP2 MSTORE PUSH1 0x4 ADD PUSH1 0x40 MLOAD DUP1 SWAP2 SUB SWAP1 REVERT JUMPDEST PUSH2 0x9C3 DUP3 DUP3 PUSH2 0x2266 JUMP JUMPDEST POP POP POP JUMP JUMPDEST PUSH32 0x65D7A28E3265B37A6474929F336521B332C1681B933F6CB9F3376673440D862A PUSH2 0x9F2 DUP2 PUSH2 0x212C JUMP JUMPDEST PUSH2 0x9FA PUSH2 0x235E JUMP JUMPDEST POP JUMP JUMPDEST PUSH2 0xA05 PUSH2 0x23CC JUMP JUMPDEST PUSH0 CALLVALUE GT PUSH2 0xA47 JUMPI PUSH1 0x40 MLOAD PUSH32 0x8C379A000000000000000000000000000000000000000000000000000000000 DUP2 MSTORE PUSH1 0x4 ADD PUSH2 0xA3E SWAP1 PUSH2 0x3484 JUMP JUMPDEST PUSH1 0x40 MLOAD DUP1 SWAP2 SUB SWAP1 REVERT JUMPDEST ADDRESS PUSH20 0xFFFFFFFFFFFFFFFFFFFFFFFFFFFFFFFFFFFFFFFF AND PUSH1 0x1 PUSH0 SWAP1 SLOAD SWAP1 PUSH2 0x100 EXP SWAP1 DIV PUSH20 0xFFFFFFFFFFFFFFFFFFFFFFFFFFFFFFFFFFFFFFFF AND PUSH20 0xFFFFFFFFFFFFFFFFFFFFFFFFFFFFFFFFFFFFFFFF AND PUSH4 0x6352211E DUP5 PUSH1 0x40 MLOAD DUP3 PUSH4 0xFFFFFFFF AND PUSH1 0xE0 SHL DUP2 MSTORE PUSH1 0x4 ADD PUSH2 0xAB8 SWAP2 SWAP1 PUSH2 0x2EFC JUMP JUMPDEST PUSH1 0x20 PUSH1 0x40 MLOAD DUP1 DUP4 SUB DUP2 DUP7 GAS STATICCALL ISZERO DUP1 ISZERO PUSH2 0xAD3 JUMPI RETURNDATASIZE PUSH0 DUP1 RETURNDATACOPY RETURNDATASIZE PUSH0 REVERT JUMPDEST POP POP POP POP PUSH1 0x40 MLOAD RETURNDATASIZE PUSH1 0x1F NOT PUSH1 0x1F DUP3 ADD AND DUP3 ADD DUP1 PUSH1 0x40 MSTORE POP DUP2 ADD SWAP1 PUSH2 0xAF7 SWAP2 SWAP1 PUSH2 0x34B6 JUMP JUMPDEST PUSH20 0xFFFFFFFFFFFFFFFFFFFFFFFFFFFFFFFFFFFFFFFF AND EQ PUSH2 0xB4D JUMPI PUSH1 0x40 MLOAD PUSH32 0x8C379A000000000000000000000000000000000000000000000000000000000 DUP2 MSTORE PUSH1 0x4 ADD PUSH2 0xB44 SWAP1 PUSH2 0x352B JUMP JUMPDEST PUSH1 0x40 MLOAD DUP1 SWAP2 SUB SWAP1 REVERT JUMPDEST PUSH0 PUSH2 0xB65 CALLVALUE CALLVALUE SELFBALANCE PUSH2 0xB5E SWAP2 SWAP1 PUSH2 0x3576 JUMP JUMPDEST PUSH1 0x1 PUSH2 0x240D JUMP JUMPDEST SWAP1 POP DUP2 DUP2 LT ISZERO PUSH2 0xBAA JUMPI PUSH1 0x40 MLOAD PUSH32 0x8C379A000000000000000000000000000000000000000000000000000000000 DUP2 MSTORE PUSH1 0x4 ADD PUSH2 0xBA1 SWAP1 PUSH2 0x35F3 JUMP JUMPDEST PUSH1 0x40 MLOAD DUP1 SWAP2 SUB SWAP1 REVERT JUMPDEST CALLER PUSH20 0xFFFFFFFFFFFFFFFFFFFFFFFFFFFFFFFFFFFFFFFF AND PUSH2 0x8FC DUP3 SWAP1 DUP2 ISZERO MUL SWAP1 PUSH1 0x40 MLOAD PUSH0 PUSH1 0x40 MLOAD DUP1 DUP4 SUB DUP2 DUP6 DUP9 DUP9 CALL SWAP4 POP POP POP POP ISZERO DUP1 ISZERO PUSH2 0xBED JUMPI RETURNDATASIZE PUSH0 DUP1 RETURNDATACOPY RETURNDATASIZE PUSH0 REVERT JUMPDEST POP PUSH1 0x1 PUSH0 SWAP1 SLOAD SWAP1 PUSH2 0x100 EXP SWAP1 DIV PUSH20 0xFFFFFFFFFFFFFFFFFFFFFFFFFFFFFFFFFFFFFFFF AND PUSH20 0xFFFFFFFFFFFFFFFFFFFFFFFFFFFFFFFFFFFFFFFF AND PUSH4 0x42842E0E ADDRESS CALLER DUP7 PUSH1 0x40 MLOAD DUP5 PUSH4 0xFFFFFFFF AND PUSH1 0xE0 SHL DUP2 MSTORE PUSH1 0x4 ADD PUSH2 0xC4C SWAP4 SWAP3 SWAP2 SWAP1 PUSH2 0x3363 JUMP JUMPDEST PUSH0 PUSH1 0x40 MLOAD DUP1 DUP4 SUB DUP2 PUSH0 DUP8 DUP1 EXTCODESIZE ISZERO DUP1 ISZERO PUSH2 0xC63 JUMPI PUSH0 DUP1 REVERT JUMPDEST POP GAS CALL ISZERO DUP1 ISZERO PUSH2 0xC75 JUMPI RETURNDATASIZE PUSH0 DUP1 RETURNDATACOPY RETURNDATASIZE PUSH0 REVERT JUMPDEST POP POP POP POP DUP3 PUSH1 0x1 PUSH0 SWAP1 SLOAD SWAP1 PUSH2 0x100 EXP SWAP1 DIV PUSH20 0xFFFFFFFFFFFFFFFFFFFFFFFFFFFFFFFFFFFFFFFF AND PUSH20 0xFFFFFFFFFFFFFFFFFFFFFFFFFFFFFFFFFFFFFFFF AND CALLER PUSH20 0xFFFFFFFFFFFFFFFFFFFFFFFFFFFFFFFFFFFFFFFF AND PUSH32 0x9181665DB8D8D5FCCE186F7B2CFEBE8FBCDC3A003664BBFCE2E790F57B076E65 DUP5 PUSH1 0x40 MLOAD PUSH2 0xCF8 SWAP2 SWAP1 PUSH2 0x2EFC JUMP JUMPDEST PUSH1 0x40 MLOAD DUP1 SWAP2 SUB SWAP1 LOG4 POP POP POP JUMP JUMPDEST PUSH2 0xD0D PUSH2 0x246E JUMP JUMPDEST PUSH2 0xD16 DUP3 PUSH2 0x2554 JUMP JUMPDEST PUSH2 0xD20 DUP3 DUP3 PUSH2 0x2582 JUMP JUMPDEST POP POP JUMP JUMPDEST PUSH2 0xD2C PUSH2 0x23CC JUMP JUMPDEST PUSH0 CALLVALUE GT PUSH2 0xD6E JUMPI PUSH1 0x40 MLOAD PUSH32 0x8C379A000000000000000000000000000000000000000000000000000000000 DUP2 MSTORE PUSH1 0x4 ADD PUSH2 0xD65 SWAP1 PUSH2 0x3484 JUMP JUMPDEST PUSH1 0x40 MLOAD DUP1 SWAP2 SUB SWAP1 REVERT JUMPDEST PUSH0 PUSH1 0x2 PUSH0 DUP5 PUSH20 0xFFFFFFFFFFFFFFFFFFFFFFFFFFFFFFFFFFFFFFFF AND PUSH20 0xFFFFFFFFFFFFFFFFFFFFFFFFFFFFFFFFFFFFFFFF AND DUP2 MSTORE PUSH1 0x20 ADD SWAP1 DUP2 MSTORE PUSH1 0x20 ADD PUSH0 KECCAK256 SWAP1 POP PUSH0 DUP2 PUSH1 0x1 ADD SLOAD GT DUP1 ISZERO PUSH2 0xDC3 JUMPI POP PUSH0 DUP2 PUSH0 ADD SLOAD GT JUMPDEST PUSH2 0xE02 JUMPI PUSH1 0x40 MLOAD PUSH32 0x8C379A000000000000000000000000000000000000000000000000000000000 DUP2 MSTORE PUSH1 0x4 ADD PUSH2 0xDF9 SWAP1 PUSH2 0x365B JUMP JUMPDEST PUSH1 0x40 MLOAD DUP1 SWAP2 SUB SWAP1 REVERT JUMPDEST PUSH0 PUSH2 0xE15 CALLVALUE DUP4 PUSH1 0x1 ADD SLOAD DUP5 PUSH0 ADD SLOAD PUSH2 0x240D JUMP JUMPDEST SWAP1 POP DUP3 DUP2 LT ISZERO PUSH2 0xE5A JUMPI PUSH1 0x40 MLOAD PUSH32 0x8C379A000000000000000000000000000000000000000000000000000000000 DUP2 MSTORE PUSH1 0x4 ADD PUSH2 0xE51 SWAP1 PUSH2 0x35F3 JUMP JUMPDEST PUSH1 0x40 MLOAD DUP1 SWAP2 SUB SWAP1 REVERT JUMPDEST CALLVALUE DUP3 PUSH1 0x1 ADD PUSH0 DUP3 DUP3 SLOAD PUSH2 0xE6D SWAP2 SWAP1 PUSH2 0x3679 JUMP JUMPDEST SWAP3 POP POP DUP2 SWAP1 SSTORE POP DUP1 DUP3 PUSH0 ADD PUSH0 DUP3 DUP3 SLOAD PUSH2 0xE86 SWAP2 SWAP1 PUSH2 0x3576 JUMP JUMPDEST SWAP3 POP POP DUP2 SWAP1 SSTORE POP DUP4 PUSH20 0xFFFFFFFFFFFFFFFFFFFFFFFFFFFFFFFFFFFFFFFF AND PUSH4 0xA9059CBB CALLER DUP4 PUSH1 0x40 MLOAD DUP4 PUSH4 0xFFFFFFFF AND PUSH1 0xE0 SHL DUP2 MSTORE PUSH1 0x4 ADD PUSH2 0xEC8 SWAP3 SWAP2 SWAP1 PUSH2 0x3398 JUMP JUMPDEST PUSH1 0x20 PUSH1 0x40 MLOAD DUP1 DUP4 SUB DUP2 PUSH0 DUP8 GAS CALL ISZERO DUP1 ISZERO PUSH2 0xEE4 JUMPI RETURNDATASIZE PUSH0 DUP1 RETURNDATACOPY RETURNDATASIZE PUSH0 REVERT JUMPDEST POP POP POP POP PUSH1 0x40 MLOAD RETURNDATASIZE PUSH1 0x1F NOT PUSH1 0x1F DUP3 ADD AND DUP3 ADD DUP1 PUSH1 0x40 MSTORE POP DUP2 ADD SWAP1 PUSH2 0xF08 SWAP2 SWAP1 PUSH2 0x33E9 JUMP JUMPDEST POP DUP4 PUSH20 0xFFFFFFFFFFFFFFFFFFFFFFFFFFFFFFFFFFFFFFFF AND CALLER PUSH20 0xFFFFFFFFFFFFFFFFFFFFFFFFFFFFFFFFFFFFFFFF AND PUSH32 0x30B60EE4DC75C0FB04420331B13E9AD7F8FF8FC51EAC9C97D36FB20CCBE09D66 DUP4 CALLVALUE PUSH1 0x40 MLOAD PUSH2 0xF68 SWAP3 SWAP2 SWAP1 PUSH2 0x319B JUMP JUMPDEST PUSH1 0x40 MLOAD DUP1 SWAP2 SUB SWAP1 LOG3 POP POP POP POP JUMP JUMPDEST PUSH0 PUSH2 0xF7F PUSH2 0x26A0 JUMP JUMPDEST PUSH32 0x360894A13BA1A3210667C828492DB98DCA3E2076CC3735A920A3CA505D382BBC PUSH0 SHL SWAP1 POP SWAP1 JUMP JUMPDEST PUSH0 PUSH2 0xFB0 PUSH2 0x23CC JUMP JUMPDEST PUSH0 DUP3 GT PUSH2 0xFF2 JUMPI PUSH1 0x40 MLOAD PUSH32 0x8C379A000000000000000000000000000000000000000000000000000000000 DUP2 MSTORE PUSH1 0x4 ADD PUSH2 0xFE9 SWAP1 PUSH2 0x371C JUMP JUMPDEST PUSH1 0x40 MLOAD DUP1 SWAP2 SUB SWAP1 REVERT JUMPDEST PUSH0 CALLVALUE GT PUSH2 0x1034 JUMPI PUSH1 0x40 MLOAD PUSH32 0x8C379A000000000000000000000000000000000000000000000000000000000 DUP2 MSTORE PUSH1 0x4 ADD PUSH2 0x102B SWAP1 PUSH2 0x3484 JUMP JUMPDEST PUSH1 0x40 MLOAD DUP1 SWAP2 SUB SWAP1 REVERT JUMPDEST DUP3 PUSH20 0xFFFFFFFFFFFFFFFFFFFFFFFFFFFFFFFFFFFFFFFF AND PUSH4 0x23B872DD CALLER ADDRESS DUP6 PUSH1 0x40 MLOAD DUP5 PUSH4 0xFFFFFFFF AND PUSH1 0xE0 SHL DUP2 MSTORE PUSH1 0x4 ADD PUSH2 0x1071 SWAP4 SWAP3 SWAP2 SWAP1 PUSH2 0x3363 JUMP JUMPDEST PUSH1 0x20 PUSH1 0x40 MLOAD DUP1 DUP4 SUB DUP2 PUSH0 DUP8 GAS CALL ISZERO DUP1 ISZERO PUSH2 0x108D JUMPI RETURNDATASIZE PUSH0 DUP1 RETURNDATACOPY RETURNDATASIZE PUSH0 REVERT JUMPDEST POP POP POP POP PUSH1 0x40 MLOAD RETURNDATASIZE PUSH1 0x1F NOT PUSH1 0x1F DUP3 ADD AND DUP3 ADD DUP1 PUSH1 0x40 MSTORE POP DUP2 ADD SWAP1 PUSH2 0x10B1 SWAP2 SWAP1 PUSH2 0x33E9 JUMP JUMPDEST POP PUSH0 PUSH1 0x2 PUSH0 DUP6 PUSH20 0xFFFFFFFFFFFFFFFFFFFFFFFFFFFFFFFFFFFFFFFF AND PUSH20 0xFFFFFFFFFFFFFFFFFFFFFFFFFFFFFFFFFFFFFFFF AND DUP2 MSTORE PUSH1 0x20 ADD SWAP1 DUP2 MSTORE PUSH1 0x20 ADD PUSH0 KECCAK256 SWAP1 POP PUSH0 DUP1 DUP3 PUSH1 0x2 ADD SLOAD SUB PUSH2 0x1117 JUMPI DUP4 DUP3 PUSH0 ADD DUP2 SWAP1 SSTORE POP CALLVALUE DUP3 PUSH1 0x1 ADD DUP2 SWAP1 SSTORE POP DUP4 SWAP1 POP PUSH2 0x1224 JUMP JUMPDEST PUSH0 DUP3 PUSH1 0x1 ADD SLOAD GT DUP1 ISZERO PUSH2 0x112C JUMPI POP PUSH0 DUP3 PUSH0 ADD SLOAD GT JUMPDEST PUSH2 0x116B JUMPI PUSH1 0x40 MLOAD PUSH32 0x8C379A000000000000000000000000000000000000000000000000000000000 DUP2 MSTORE PUSH1 0x4 ADD PUSH2 0x1162 SWAP1 PUSH2 0x3784 JUMP JUMPDEST PUSH1 0x40 MLOAD DUP1 SWAP2 SUB SWAP1 REVERT JUMPDEST PUSH0 DUP3 PUSH0 ADD SLOAD DUP6 DUP5 PUSH1 0x1 ADD SLOAD PUSH2 0x1180 SWAP2 SWAP1 PUSH2 0x37A2 JUMP JUMPDEST PUSH2 0x118A SWAP2 SWAP1 PUSH2 0x3810 JUMP JUMPDEST SWAP1 POP DUP1 CALLVALUE LT ISZERO PUSH2 0x11CF JUMPI PUSH1 0x40 MLOAD PUSH32 0x8C379A000000000000000000000000000000000000000000000000000000000 DUP2 MSTORE PUSH1 0x4 ADD PUSH2 0x11C6 SWAP1 PUSH2 0x388A JUMP JUMPDEST PUSH1 0x40 MLOAD DUP1 SWAP2 SUB SWAP1 REVERT JUMPDEST DUP5 DUP4 PUSH0 ADD PUSH0 DUP3 DUP3 SLOAD PUSH2 0x11E1 SWAP2 SWAP1 PUSH2 0x3679 JUMP JUMPDEST SWAP3 POP POP DUP2 SWAP1 SSTORE POP CALLVALUE DUP4 PUSH1 0x1 ADD PUSH0 DUP3 DUP3 SLOAD PUSH2 0x11FB SWAP2 SWAP1 PUSH2 0x3679 JUMP JUMPDEST SWAP3 POP POP DUP2 SWAP1 SSTORE POP DUP3 PUSH0 ADD SLOAD DUP6 DUP5 PUSH1 0x2 ADD SLOAD PUSH2 0x1216 SWAP2 SWAP1 PUSH2 0x37A2 JUMP JUMPDEST PUSH2 0x1220 SWAP2 SWAP1 PUSH2 0x3810 JUMP JUMPDEST SWAP2 POP POP JUMPDEST DUP1 DUP3 PUSH1 0x2 ADD PUSH0 DUP3 DUP3 SLOAD PUSH2 0x1237 SWAP2 SWAP1 PUSH2 0x3679 JUMP JUMPDEST SWAP3 POP POP DUP2 SWAP1 SSTORE POP DUP1 DUP3 PUSH1 0x3 ADD PUSH0 CALLER PUSH20 0xFFFFFFFFFFFFFFFFFFFFFFFFFFFFFFFFFFFFFFFF AND PUSH20 0xFFFFFFFFFFFFFFFFFFFFFFFFFFFFFFFFFFFFFFFF AND DUP2 MSTORE PUSH1 0x20 ADD SWAP1 DUP2 MSTORE PUSH1 0x20 ADD PUSH0 KECCAK256 PUSH0 DUP3 DUP3 SLOAD PUSH2 0x128C SWAP2 SWAP1 PUSH2 0x3679 JUMP JUMPDEST SWAP3 POP POP DUP2 SWAP1 SSTORE POP DUP5 PUSH20 0xFFFFFFFFFFFFFFFFFFFFFFFFFFFFFFFFFFFFFFFF AND CALLER PUSH20 0xFFFFFFFFFFFFFFFFFFFFFFFFFFFFFFFFFFFFFFFF AND PUSH32 0x4A1A2A6176E9646D9E3157F7C2AB3C499F18337C0B0828CFB28E0A61DE4A11F7 DUP7 CALLVALUE DUP6 PUSH1 0x40 MLOAD PUSH2 0x12F4 SWAP4 SWAP3 SWAP2 SWAP1 PUSH2 0x2E41 JUMP JUMPDEST PUSH1 0x40 MLOAD DUP1 SWAP2 SUB SWAP1 LOG3 DUP1 SWAP3 POP POP POP SWAP3 SWAP2 POP POP JUMP JUMPDEST PUSH0 DUP1 PUSH2 0x1311 PUSH2 0x2727 JUMP JUMPDEST SWAP1 POP DUP1 PUSH0 ADD PUSH0 SWAP1 SLOAD SWAP1 PUSH2 0x100 EXP SWAP1 DIV PUSH1 0xFF AND SWAP2 POP POP SWAP1 JUMP JUMPDEST PUSH32 0x65D7A28E3265B37A6474929F336521B332C1681B933F6CB9F3376673440D862A PUSH2 0x1353 DUP2 PUSH2 0x212C JUMP JUMPDEST PUSH2 0x135B PUSH2 0x274E JUMP JUMPDEST POP JUMP JUMPDEST PUSH0 DUP1 PUSH2 0x1368 PUSH2 0x2140 JUMP JUMPDEST SWAP1 POP DUP1 PUSH0 ADD PUSH0 DUP6 DUP2 MSTORE PUSH1 0x20 ADD SWAP1 DUP2 MSTORE PUSH1 0x20 ADD PUSH0 KECCAK256 PUSH0 ADD PUSH0 DUP5 PUSH20 0xFFFFFFFFFFFFFFFFFFFFFFFFFFFFFFFFFFFFFFFF AND PUSH20 0xFFFFFFFFFFFFFFFFFFFFFFFFFFFFFFFFFFFFFFFF AND DUP2 MSTORE PUSH1 0x20 ADD SWAP1 DUP2 MSTORE PUSH1 0x20 ADD PUSH0 KECCAK256 PUSH0 SWAP1 SLOAD SWAP1 PUSH2 0x100 EXP SWAP1 DIV PUSH1 0xFF AND SWAP2 POP POP SWAP3 SWAP2 POP POP JUMP JUMPDEST PUSH0 DUP1 PUSH2 0x13D9 PUSH2 0x23CC JUMP JUMPDEST PUSH0 PUSH1 0x2 PUSH0 DUP7 PUSH20 0xFFFFFFFFFFFFFFFFFFFFFFFFFFFFFFFFFFFFFFFF AND PUSH20 0xFFFFFFFFFFFFFFFFFFFFFFFFFFFFFFFFFFFFFFFF AND DUP2 MSTORE PUSH1 0x20 ADD SWAP1 DUP2 MSTORE PUSH1 0x20 ADD PUSH0 KECCAK256 SWAP1 POP DUP4 DUP2 PUSH1 0x3 ADD PUSH0 CALLER PUSH20 0xFFFFFFFFFFFFFFFFFFFFFFFFFFFFFFFFFFFFFFFF AND PUSH20 0xFFFFFFFFFFFFFFFFFFFFFFFFFFFFFFFFFFFFFFFF AND DUP2 MSTORE PUSH1 0x20 ADD SWAP1 DUP2 MSTORE PUSH1 0x20 ADD PUSH0 KECCAK256 SLOAD LT ISZERO PUSH2 0x149B JUMPI PUSH1 0x40 MLOAD PUSH32 0x8C379A000000000000000000000000000000000000000000000000000000000 DUP2 MSTORE PUSH1 0x4 ADD PUSH2 0x1492 SWAP1 PUSH2 0x365B JUMP JUMPDEST PUSH1 0x40 MLOAD DUP1 SWAP2 SUB SWAP1 REVERT JUMPDEST DUP1 PUSH1 0x2 ADD SLOAD DUP5 DUP3 PUSH0 ADD SLOAD PUSH2 0x14AF SWAP2 SWAP1 PUSH2 0x37A2 JUMP JUMPDEST PUSH2 0x14B9 SWAP2 SWAP1 PUSH2 0x3810 JUMP JUMPDEST SWAP3 POP DUP1 PUSH1 0x2 ADD SLOAD DUP5 DUP3 PUSH1 0x1 ADD SLOAD PUSH2 0x14D0 SWAP2 SWAP1 PUSH2 0x37A2 JUMP JUMPDEST PUSH2 0x14DA SWAP2 SWAP1 PUSH2 0x3810 JUMP JUMPDEST SWAP2 POP DUP3 DUP2 PUSH0 ADD PUSH0 DUP3 DUP3 SLOAD PUSH2 0x14EE SWAP2 SWAP1 PUSH2 0x3576 JUMP JUMPDEST SWAP3 POP POP DUP2 SWAP1 SSTORE POP DUP2 DUP2 PUSH1 0x1 ADD PUSH0 DUP3 DUP3 SLOAD PUSH2 0x1508 SWAP2 SWAP1 PUSH2 0x3576 JUMP JUMPDEST SWAP3 POP POP DUP2 SWAP1 SSTORE POP DUP4 DUP2 PUSH1 0x2 ADD PUSH0 DUP3 DUP3 SLOAD PUSH2 0x1522 SWAP2 SWAP1 PUSH2 0x3576 JUMP JUMPDEST SWAP3 POP POP DUP2 SWAP1 SSTORE POP DUP4 DUP2 PUSH1 0x3 ADD PUSH0 CALLER PUSH20 0xFFFFFFFFFFFFFFFFFFFFFFFFFFFFFFFFFFFFFFFF AND PUSH20 0xFFFFFFFFFFFFFFFFFFFFFFFFFFFFFFFFFFFFFFFF AND DUP2 MSTORE PUSH1 0x20 ADD SWAP1 DUP2 MSTORE PUSH1 0x20 ADD PUSH0 KECCAK256 PUSH0 DUP3 DUP3 SLOAD PUSH2 0x1577 SWAP2 SWAP1 PUSH2 0x3576 JUMP JUMPDEST SWAP3 POP POP DUP2 SWAP1 SSTORE POP DUP5 PUSH20 0xFFFFFFFFFFFFFFFFFFFFFFFFFFFFFFFFFFFFFFFF AND PUSH4 0xA9059CBB CALLER DUP6 PUSH1 0x40 MLOAD DUP4 PUSH4 0xFFFFFFFF AND PUSH1 0xE0 SHL DUP2 MSTORE PUSH1 0x4 ADD PUSH2 0x15B9 SWAP3 SWAP2 SWAP1 PUSH2 0x3398 JUMP JUMPDEST PUSH1 0x20 PUSH1 0x40 MLOAD DUP1 DUP4 SUB DUP2 PUSH0 DUP8 GAS CALL ISZERO DUP1 ISZERO PUSH2 0x15D5 JUMPI RETURNDATASIZE PUSH0 DUP1 RETURNDATACOPY RETURNDATASIZE PUSH0 REVERT JUMPDEST POP POP POP POP PUSH1 0x40 MLOAD RETURNDATASIZE PUSH1 0x1F NOT PUSH1 0x1F DUP3 ADD AND DUP3 ADD DUP1 PUSH1 0x40 MSTORE POP DUP2 ADD SWAP1 PUSH2 0x15F9 SWAP2 SWAP1 PUSH2 0x33E9 JUMP JUMPDEST POP CALLER PUSH20 0xFFFFFFFFFFFFFFFFFFFFFFFFFFFFFFFFFFFFFFFF AND PUSH2 0x8FC DUP4 SWAP1 DUP2 ISZERO MUL SWAP1 PUSH1 0x40 MLOAD PUSH0 PUSH1 0x40 MLOAD DUP1 DUP4 SUB DUP2 DUP6 DUP9 DUP9 CALL SWAP4 POP POP POP POP ISZERO DUP1 ISZERO PUSH2 0x163D JUMPI RETURNDATASIZE PUSH0 DUP1 RETURNDATACOPY RETURNDATASIZE PUSH0 REVERT JUMPDEST POP DUP5 PUSH20 0xFFFFFFFFFFFFFFFFFFFFFFFFFFFFFFFFFFFFFFFF AND CALLER PUSH20 0xFFFFFFFFFFFFFFFFFFFFFFFFFFFFFFFFFFFFFFFF AND PUSH32 0xBC7D19D505C7EC4DB83F3B51F19FB98C4C8A99922E7839D1EE608DFBEE29501B DUP6 DUP6 DUP9 PUSH1 0x40 MLOAD PUSH2 0x169F SWAP4 SWAP3 SWAP2 SWAP1 PUSH2 0x2E41 JUMP JUMPDEST PUSH1 0x40 MLOAD DUP1 SWAP2 SUB SWAP1 LOG3 POP SWAP3 POP SWAP3 SWAP1 POP JUMP JUMPDEST PUSH0 DUP1 SHL DUP2 JUMP JUMPDEST PUSH1 0x40 MLOAD DUP1 PUSH1 0x40 ADD PUSH1 0x40 MSTORE DUP1 PUSH1 0x5 DUP2 MSTORE PUSH1 0x20 ADD PUSH32 0x352E302E30000000000000000000000000000000000000000000000000000000 DUP2 MSTORE POP DUP2 JUMP JUMPDEST PUSH32 0x77E60B99A50D27FB027F6912A507D956105B4148ADAB27A86D235C8BCCA8FA2F PUSH2 0x1718 DUP2 PUSH2 0x212C JUMP JUMPDEST DUP3 PUSH1 0x2 PUSH0 DUP7 PUSH20 0xFFFFFFFFFFFFFFFFFFFFFFFFFFFFFFFFFFFFFFFF AND PUSH20 0xFFFFFFFFFFFFFFFFFFFFFFFFFFFFFFFFFFFFFFFF AND DUP2 MSTORE PUSH1 0x20 ADD SWAP1 DUP2 MSTORE PUSH1 0x20 ADD PUSH0 KECCAK256 PUSH0 ADD DUP2 SWAP1 SSTORE POP DUP2 PUSH1 0x2 PUSH0 DUP7 PUSH20 0xFFFFFFFFFFFFFFFFFFFFFFFFFFFFFFFFFFFFFFFF AND PUSH20 0xFFFFFFFFFFFFFFFFFFFFFFFFFFFFFFFFFFFFFFFF AND DUP2 MSTORE PUSH1 0x20 ADD SWAP1 DUP2 MSTORE PUSH1 0x20 ADD PUSH0 KECCAK256 PUSH1 0x1 ADD DUP2 SWAP1 SSTORE POP POP POP POP POP JUMP JUMPDEST PUSH0 PUSH2 0x17B0 PUSH2 0x27BD JUMP JUMPDEST SWAP1 POP PUSH0 DUP2 PUSH0 ADD PUSH1 0x8 SWAP1 SLOAD SWAP1 PUSH2 0x100 EXP SWAP1 DIV PUSH1 0xFF AND ISZERO SWAP1 POP PUSH0 DUP3 PUSH0 ADD PUSH0 SWAP1 SLOAD SWAP1 PUSH2 0x100 EXP SWAP1 DIV PUSH8 0xFFFFFFFFFFFFFFFF AND SWAP1 POP PUSH0 DUP1 DUP3 PUSH8 0xFFFFFFFFFFFFFFFF AND EQ DUP1 ISZERO PUSH2 0x17F8 JUMPI POP DUP3 JUMPDEST SWAP1 POP PUSH0 PUSH1 0x1 DUP4 PUSH8 0xFFFFFFFFFFFFFFFF AND EQ DUP1 ISZERO PUSH2 0x182B JUMPI POP PUSH0 ADDRESS PUSH20 0xFFFFFFFFFFFFFFFFFFFFFFFFFFFFFFFFFFFFFFFF AND EXTCODESIZE EQ JUMPDEST SWAP1 POP DUP2 ISZERO DUP1 ISZERO PUSH2 0x1839 JUMPI POP DUP1 ISZERO JUMPDEST ISZERO PUSH2 0x1870 JUMPI PUSH1 0x40 MLOAD PUSH32 0xF92EE8A900000000000000000000000000000000000000000000000000000000 DUP2 MSTORE PUSH1 0x4 ADD PUSH1 0x40 MLOAD DUP1 SWAP2 SUB SWAP1 REVERT JUMPDEST PUSH1 0x1 DUP6 PUSH0 ADD PUSH0 PUSH2 0x100 EXP DUP2 SLOAD DUP2 PUSH8 0xFFFFFFFFFFFFFFFF MUL NOT AND SWAP1 DUP4 PUSH8 0xFFFFFFFFFFFFFFFF AND MUL OR SWAP1 SSTORE POP DUP4 ISZERO PUSH2 0x18BD JUMPI PUSH1 0x1 DUP6 PUSH0 ADD PUSH1 0x8 PUSH2 0x100 EXP DUP2 SLOAD DUP2 PUSH1 0xFF MUL NOT AND SWAP1 DUP4 ISZERO ISZERO MUL OR SWAP1 SSTORE POP JUMPDEST PUSH2 0x18C5 PUSH2 0x27E4 JUMP JUMPDEST PUSH2 0x18CD PUSH2 0x27F6 JUMP JUMPDEST PUSH2 0x18D5 PUSH2 0x2800 JUMP JUMPDEST PUSH2 0x18E1 PUSH0 DUP1 SHL DUP13 PUSH2 0x2167 JUMP JUMPDEST POP PUSH2 0x190C PUSH32 0x65D7A28E3265B37A6474929F336521B332C1681B933F6CB9F3376673440D862A DUP12 PUSH2 0x2167 JUMP JUMPDEST POP PUSH2 0x1937 PUSH32 0x189AB7A9244DF0848122154315AF71FE140F3DB0FE014031783B0946B8C9D2E3 DUP11 PUSH2 0x2167 JUMP JUMPDEST POP PUSH2 0x1962 PUSH32 0x77E60B99A50D27FB027F6912A507D956105B4148ADAB27A86D235C8BCCA8FA2F DUP10 PUSH2 0x2167 JUMP JUMPDEST POP DUP7 PUSH0 DUP1 PUSH2 0x100 EXP DUP2 SLOAD DUP2 PUSH20 0xFFFFFFFFFFFFFFFFFFFFFFFFFFFFFFFFFFFFFFFF MUL NOT AND SWAP1 DUP4 PUSH20 0xFFFFFFFFFFFFFFFFFFFFFFFFFFFFFFFFFFFFFFFF AND MUL OR SWAP1 SSTORE POP DUP6 PUSH1 0x1 PUSH0 PUSH2 0x100 EXP DUP2 SLOAD DUP2 PUSH20 0xFFFFFFFFFFFFFFFFFFFFFFFFFFFFFFFFFFFFFFFF MUL NOT AND SWAP1 DUP4 PUSH20 0xFFFFFFFFFFFFFFFFFFFFFFFFFFFFFFFFFFFFFFFF AND MUL OR SWAP1 SSTORE POP DUP4 ISZERO PUSH2 0x1A3C JUMPI PUSH0 DUP6 PUSH0 ADD PUSH1 0x8 PUSH2 0x100 EXP DUP2 SLOAD DUP2 PUSH1 0xFF MUL NOT AND SWAP1 DUP4 ISZERO ISZERO MUL OR SWAP1 SSTORE POP PUSH32 0xC7F505B2F371AE2175EE4913F4499E1F2633A7B5936321EED1CDAEB6115181D2 PUSH1 0x1 PUSH1 0x40 MLOAD PUSH2 0x1A33 SWAP2 SWAP1 PUSH2 0x38F4 JUMP JUMPDEST PUSH1 0x40 MLOAD DUP1 SWAP2 SUB SWAP1 LOG1 JUMPDEST POP POP POP POP POP POP POP POP POP POP POP JUMP JUMPDEST PUSH2 0x1A52 DUP3 PUSH2 0x8D9 JUMP JUMPDEST PUSH2 0x1A5B DUP2 PUSH2 0x212C JUMP JUMPDEST PUSH2 0x1A65 DUP4 DUP4 PUSH2 0x2266 JUMP JUMPDEST POP POP POP POP JUMP JUMPDEST PUSH2 0x1A73 PUSH2 0x23CC JUMP JUMPDEST CALLER PUSH20 0xFFFFFFFFFFFFFFFFFFFFFFFFFFFFFFFFFFFFFFFF AND PUSH1 0x1 PUSH0 SWAP1 SLOAD SWAP1 PUSH2 0x100 EXP SWAP1 DIV PUSH20 0xFFFFFFFFFFFFFFFFFFFFFFFFFFFFFFFFFFFFFFFF AND PUSH20 0xFFFFFFFFFFFFFFFFFFFFFFFFFFFFFFFFFFFFFFFF AND PUSH4 0x6352211E DUP5 PUSH1 0x40 MLOAD DUP3 PUSH4 0xFFFFFFFF AND PUSH1 0xE0 SHL DUP2 MSTORE PUSH1 0x4 ADD PUSH2 0x1AE4 SWAP2 SWAP1 PUSH2 0x2EFC JUMP JUMPDEST PUSH1 0x20 PUSH1 0x40 MLOAD DUP1 DUP4 SUB DUP2 DUP7 GAS STATICCALL ISZERO DUP1 ISZERO PUSH2 0x1AFF JUMPI RETURNDATASIZE PUSH0 DUP1 RETURNDATACOPY RETURNDATASIZE PUSH0 REVERT JUMPDEST POP POP POP POP PUSH1 0x40 MLOAD RETURNDATASIZE PUSH1 0x1F NOT PUSH1 0x1F DUP3 ADD AND DUP3 ADD DUP1 PUSH1 0x40 MSTORE POP DUP2 ADD SWAP1 PUSH2 0x1B23 SWAP2 SWAP1 PUSH2 0x34B6 JUMP JUMPDEST PUSH20 0xFFFFFFFFFFFFFFFFFFFFFFFFFFFFFFFFFFFFFFFF AND EQ PUSH2 0x1B79 JUMPI PUSH1 0x40 MLOAD PUSH32 0x8C379A000000000000000000000000000000000000000000000000000000000 DUP2 MSTORE PUSH1 0x4 ADD PUSH2 0x1B70 SWAP1 PUSH2 0x3957 JUMP JUMPDEST PUSH1 0x40 MLOAD DUP1 SWAP2 SUB SWAP1 REVERT JUMPDEST PUSH0 PUSH2 0x1B86 PUSH1 0x1 DUP1 SELFBALANCE PUSH2 0x240D JUMP JUMPDEST SWAP1 POP DUP2 DUP2 LT ISZERO PUSH2 0x1BCB JUMPI PUSH1 0x40 MLOAD PUSH32 0x8C379A000000000000000000000000000000000000000000000000000000000 DUP2 MSTORE PUSH1 0x4 ADD PUSH2 0x1BC2 SWAP1 PUSH2 0x35F3 JUMP JUMPDEST PUSH1 0x40 MLOAD DUP1 SWAP2 SUB SWAP1 REVERT JUMPDEST PUSH1 0x1 PUSH0 SWAP1 SLOAD SWAP1 PUSH2 0x100 EXP SWAP1 DIV PUSH20 0xFFFFFFFFFFFFFFFFFFFFFFFFFFFFFFFFFFFFFFFF AND PUSH20 0xFFFFFFFFFFFFFFFFFFFFFFFFFFFFFFFFFFFFFFFF AND PUSH4 0x42842E0E CALLER ADDRESS DUP7 PUSH1 0x40 MLOAD DUP5 PUSH4 0xFFFFFFFF AND PUSH1 0xE0 SHL DUP2 MSTORE PUSH1 0x4 ADD PUSH2 0x1C29 SWAP4 SWAP3 SWAP2 SWAP1 PUSH2 0x3363 JUMP JUMPDEST PUSH0 PUSH1 0x40 MLOAD DUP1 DUP4 SUB DUP2 PUSH0 DUP8 DUP1 EXTCODESIZE ISZERO DUP1 ISZERO PUSH2 0x1C40 JUMPI PUSH0 DUP1 REVERT JUMPDEST POP GAS CALL ISZERO DUP1 ISZERO PUSH2 0x1C52 JUMPI RETURNDATASIZE PUSH0 DUP1 RETURNDATACOPY RETURNDATASIZE PUSH0 REVERT JUMPDEST POP POP POP POP CALLER PUSH20 0xFFFFFFFFFFFFFFFFFFFFFFFFFFFFFFFFFFFFFFFF AND PUSH2 0x8FC DUP3 SWAP1 DUP2 ISZERO MUL SWAP1 PUSH1 0x40 MLOAD PUSH0 PUSH1 0x40 MLOAD DUP1 DUP4 SUB DUP2 DUP6 DUP9 DUP9 CALL SWAP4 POP POP POP POP ISZERO DUP1 ISZERO PUSH2 0x1C99 JUMPI RETURNDATASIZE PUSH0 DUP1 RETURNDATACOPY RETURNDATASIZE PUSH0 REVERT JUMPDEST POP DUP3 PUSH1 0x1 PUSH0 SWAP1 SLOAD SWAP1 PUSH2 0x100 EXP SWAP1 DIV PUSH20 0xFFFFFFFFFFFFFFFFFFFFFFFFFFFFFFFFFFFFFFFF AND PUSH20 0xFFFFFFFFFFFFFFFFFFFFFFFFFFFFFFFFFFFFFFFF AND CALLER PUSH20 0xFFFFFFFFFFFFFFFFFFFFFFFFFFFFFFFFFFFFFFFF AND PUSH32 0x9181665DB8D8D5FCCE186F7B2CFEBE8FBCDC3A003664BBFCE2E790F57B076E65 DUP5 PUSH1 0x40 MLOAD PUSH2 0x1D19 SWAP2 SWAP1 PUSH2 0x2EFC JUMP JUMPDEST PUSH1 0x40 MLOAD DUP1 SWAP2 SUB SWAP1 LOG4 POP POP POP JUMP JUMPDEST PUSH1 0x1 PUSH0 SWAP1 SLOAD SWAP1 PUSH2 0x100 EXP SWAP1 DIV PUSH20 0xFFFFFFFFFFFFFFFFFFFFFFFFFFFFFFFFFFFFFFFF AND DUP2 JUMP JUMPDEST PUSH2 0x1D53 PUSH2 0x23CC JUMP JUMPDEST PUSH0 DUP3 GT PUSH2 0x1D95 JUMPI PUSH1 0x40 MLOAD PUSH32 0x8C379A000000000000000000000000000000000000000000000000000000000 DUP2 MSTORE PUSH1 0x4 ADD PUSH2 0x1D8C SWAP1 PUSH2 0x371C JUMP JUMPDEST PUSH1 0x40 MLOAD DUP1 SWAP2 SUB SWAP1 REVERT JUMPDEST PUSH0 PUSH1 0x2 PUSH0 DUP6 PUSH20 0xFFFFFFFFFFFFFFFFFFFFFFFFFFFFFFFFFFFFFFFF AND PUSH20 0xFFFFFFFFFFFFFFFFFFFFFFFFFFFFFFFFFFFFFFFF AND DUP2 MSTORE PUSH1 0x20 ADD SWAP1 DUP2 MSTORE PUSH1 0x20 ADD PUSH0 KECCAK256 SWAP1 POP PUSH0 DUP2 PUSH1 0x1 ADD SLOAD GT DUP1 ISZERO PUSH2 0x1DEA JUMPI POP PUSH0 DUP2 PUSH0 ADD SLOAD GT JUMPDEST PUSH2 0x1E29 JUMPI PUSH1 0x40 MLOAD PUSH32 0x8C379A000000000000000000000000000000000000000000000000000000000 DUP2 MSTORE PUSH1 0x4 ADD PUSH2 0x1E20 SWAP1 PUSH2 0x365B JUMP JUMPDEST PUSH1 0x40 MLOAD DUP1 SWAP2 SUB SWAP1 REVERT JUMPDEST PUSH0 PUSH2 0x1E3C DUP5 DUP4 PUSH0 ADD SLOAD DUP5 PUSH1 0x1 ADD SLOAD PUSH2 0x240D JUMP JUMPDEST SWAP1 POP DUP3 DUP2 LT ISZERO PUSH2 0x1E81 JUMPI PUSH1 0x40 MLOAD PUSH32 0x8C379A000000000000000000000000000000000000000000000000000000000 DUP2 MSTORE PUSH1 0x4 ADD PUSH2 0x1E78 SWAP1 PUSH2 0x35F3 JUMP JUMPDEST PUSH1 0x40 MLOAD DUP1 SWAP2 SUB SWAP1 REVERT JUMPDEST DUP4 DUP3 PUSH0 ADD PUSH0 DUP3 DUP3 SLOAD PUSH2 0x1E93 SWAP2 SWAP1 PUSH2 0x3679 JUMP JUMPDEST SWAP3 POP POP DUP2 SWAP1 SSTORE POP DUP1 DUP3 PUSH1 0x1 ADD PUSH0 DUP3 DUP3 SLOAD PUSH2 0x1EAD SWAP2 SWAP1 PUSH2 0x3576 JUMP JUMPDEST SWAP3 POP POP DUP2 SWAP1 SSTORE POP DUP5 PUSH20 0xFFFFFFFFFFFFFFFFFFFFFFFFFFFFFFFFFFFFFFFF AND PUSH4 0x23B872DD CALLER ADDRESS DUP8 PUSH1 0x40 MLOAD DUP5 PUSH4 0xFFFFFFFF AND PUSH1 0xE0 SHL DUP2 MSTORE PUSH1 0x4 ADD PUSH2 0x1EF1 SWAP4 SWAP3 SWAP2 SWAP1 PUSH2 0x3363 JUMP JUMPDEST PUSH1 0x20 PUSH1 0x40 MLOAD DUP1 DUP4 SUB DUP2 PUSH0 DUP8 GAS CALL ISZERO DUP1 ISZERO PUSH2 0x1F0D JUMPI RETURNDATASIZE PUSH0 DUP1 RETURNDATACOPY RETURNDATASIZE PUSH0 REVERT JUMPDEST POP POP POP POP PUSH1 0x40 MLOAD RETURNDATASIZE PUSH1 0x1F NOT PUSH1 0x1F DUP3 ADD AND DUP3 ADD DUP1 PUSH1 0x40 MSTORE POP DUP2 ADD SWAP1 PUSH2 0x1F31 SWAP2 SWAP1 PUSH2 0x33E9 JUMP JUMPDEST POP CALLER PUSH20 0xFFFFFFFFFFFFFFFFFFFFFFFFFFFFFFFFFFFFFFFF AND PUSH2 0x8FC DUP3 SWAP1 DUP2 ISZERO MUL SWAP1 PUSH1 0x40 MLOAD PUSH0 PUSH1 0x40 MLOAD DUP1 DUP4 SUB DUP2 DUP6 DUP9 DUP9 CALL SWAP4 POP POP POP POP ISZERO DUP1 ISZERO PUSH2 0x1F75 JUMPI RETURNDATASIZE PUSH0 DUP1 RETURNDATACOPY RETURNDATASIZE PUSH0 REVERT JUMPDEST POP DUP5 PUSH20 0xFFFFFFFFFFFFFFFFFFFFFFFFFFFFFFFFFFFFFFFF AND CALLER PUSH20 0xFFFFFFFFFFFFFFFFFFFFFFFFFFFFFFFFFFFFFFFF AND PUSH32 0x30B60EE4DC75C0FB04420331B13E9AD7F8FF8FC51EAC9C97D36FB20CCBE09D66 DUP7 DUP5 PUSH1 0x40 MLOAD PUSH2 0x1FD5 SWAP3 SWAP2 SWAP1 PUSH2 0x319B JUMP JUMPDEST PUSH1 0x40 MLOAD DUP1 SWAP2 SUB SWAP1 LOG3 POP POP POP POP POP JUMP JUMPDEST PUSH32 0x65D7A28E3265B37A6474929F336521B332C1681B933F6CB9F3376673440D862A DUP2 JUMP JUMPDEST PUSH0 DUP1 SHL PUSH2 0x2014 DUP2 PUSH2 0x212C JUMP JUMPDEST DUP2 SELFBALANCE LT ISZERO PUSH2 0x2057 JUMPI PUSH1 0x40 MLOAD PUSH32 0x8C379A000000000000000000000000000000000000000000000000000000000 DUP2 MSTORE PUSH1 0x4 ADD PUSH2 0x204E SWAP1 PUSH2 0x39BF JUMP JUMPDEST PUSH1 0x40 MLOAD DUP1 SWAP2 SUB SWAP1 REVERT JUMPDEST CALLER PUSH20 0xFFFFFFFFFFFFFFFFFFFFFFFFFFFFFFFFFFFFFFFF AND PUSH2 0x8FC DUP4 SWAP1 DUP2 ISZERO MUL SWAP1 PUSH1 0x40 MLOAD PUSH0 PUSH1 0x40 MLOAD DUP1 DUP4 SUB DUP2 DUP6 DUP9 DUP9 CALL SWAP4 POP POP POP POP ISZERO DUP1 ISZERO PUSH2 0x209A JUMPI RETURNDATASIZE PUSH0 DUP1 RETURNDATACOPY RETURNDATASIZE PUSH0 REVERT JUMPDEST POP POP POP JUMP JUMPDEST PUSH32 0x189AB7A9244DF0848122154315AF71FE140F3DB0FE014031783B0946B8C9D2E3 DUP2 JUMP JUMPDEST PUSH0 PUSH32 0x1FFC9A700000000000000000000000000000000000000000000000000000000 PUSH28 0xFFFFFFFFFFFFFFFFFFFFFFFFFFFFFFFFFFFFFFFFFFFFFFFFFFFFFFFF NOT AND DUP3 PUSH28 0xFFFFFFFFFFFFFFFFFFFFFFFFFFFFFFFFFFFFFFFFFFFFFFFFFFFFFFFF NOT AND EQ SWAP1 POP SWAP2 SWAP1 POP JUMP JUMPDEST PUSH2 0x213D DUP2 PUSH2 0x2138 PUSH2 0x225F JUMP JUMPDEST PUSH2 0x280A JUMP JUMPDEST POP JUMP JUMPDEST PUSH0 PUSH32 0x2DD7BC7DEC4DCEEDDA775E58DD541E08A116C6C53815C0BD028192F7B626800 SWAP1 POP SWAP1 JUMP JUMPDEST PUSH0 DUP1 PUSH2 0x2171 PUSH2 0x2140 JUMP JUMPDEST SWAP1 POP PUSH2 0x217D DUP5 DUP5 PUSH2 0x135E JUMP JUMPDEST PUSH2 0x2254 JUMPI PUSH1 0x1 DUP2 PUSH0 ADD PUSH0 DUP7 DUP2 MSTORE PUSH1 0x20 ADD SWAP1 DUP2 MSTORE PUSH1 0x20 ADD PUSH0 KECCAK256 PUSH0 ADD PUSH0 DUP6 PUSH20 0xFFFFFFFFFFFFFFFFFFFFFFFFFFFFFFFFFFFFFFFF AND PUSH20 0xFFFFFFFFFFFFFFFFFFFFFFFFFFFFFFFFFFFFFFFF AND DUP2 MSTORE PUSH1 0x20 ADD SWAP1 DUP2 MSTORE PUSH1 0x20 ADD PUSH0 KECCAK256 PUSH0 PUSH2 0x100 EXP DUP2 SLOAD DUP2 PUSH1 0xFF MUL NOT AND SWAP1 DUP4 ISZERO ISZERO MUL OR SWAP1 SSTORE POP PUSH2 0x21F0 PUSH2 0x225F JUMP JUMPDEST PUSH20 0xFFFFFFFFFFFFFFFFFFFFFFFFFFFFFFFFFFFFFFFF AND DUP4 PUSH20 0xFFFFFFFFFFFFFFFFFFFFFFFFFFFFFFFFFFFFFFFF AND DUP6 PUSH32 0x2F8788117E7EFF1D82E926EC794901D17C78024A50270940304540A733656F0D PUSH1 0x40 MLOAD PUSH1 0x40 MLOAD DUP1 SWAP2 SUB SWAP1 LOG4 PUSH1 0x1 SWAP2 POP POP PUSH2 0x2259 JUMP JUMPDEST PUSH0 SWAP2 POP POP JUMPDEST SWAP3 SWAP2 POP POP JUMP JUMPDEST PUSH0 CALLER SWAP1 POP SWAP1 JUMP JUMPDEST PUSH0 DUP1 PUSH2 0x2270 PUSH2 0x2140 JUMP JUMPDEST SWAP1 POP PUSH2 0x227C DUP5 DUP5 PUSH2 0x135E JUMP JUMPDEST ISZERO PUSH2 0x2353 JUMPI PUSH0 DUP2 PUSH0 ADD PUSH0 DUP7 DUP2 MSTORE PUSH1 0x20 ADD SWAP1 DUP2 MSTORE PUSH1 0x20 ADD PUSH0 KECCAK256 PUSH0 ADD PUSH0 DUP6 PUSH20 0xFFFFFFFFFFFFFFFFFFFFFFFFFFFFFFFFFFFFFFFF AND PUSH20 0xFFFFFFFFFFFFFFFFFFFFFFFFFFFFFFFFFFFFFFFF AND DUP2 MSTORE PUSH1 0x20 ADD SWAP1 DUP2 MSTORE PUSH1 0x20 ADD PUSH0 KECCAK256 PUSH0 PUSH2 0x100 EXP DUP2 SLOAD DUP2 PUSH1 0xFF MUL NOT AND SWAP1 DUP4 ISZERO ISZERO MUL OR SWAP1 SSTORE POP PUSH2 0x22EF PUSH2 0x225F JUMP JUMPDEST PUSH20 0xFFFFFFFFFFFFFFFFFFFFFFFFFFFFFFFFFFFFFFFF AND DUP4 PUSH20 0xFFFFFFFFFFFFFFFFFFFFFFFFFFFFFFFFFFFFFFFF AND DUP6 PUSH32 0xF6391F5C32D9C69D2A47EA670B442974B53935D1EDC7FD64EB21E047A839171B PUSH1 0x40 MLOAD PUSH1 0x40 MLOAD DUP1 SWAP2 SUB SWAP1 LOG4 PUSH1 0x1 SWAP2 POP POP PUSH2 0x2358 JUMP JUMPDEST PUSH0 SWAP2 POP POP JUMPDEST SWAP3 SWAP2 POP POP JUMP JUMPDEST PUSH2 0x2366 PUSH2 0x285B JUMP JUMPDEST PUSH0 PUSH2 0x236F PUSH2 0x2727 JUMP JUMPDEST SWAP1 POP PUSH0 DUP2 PUSH0 ADD PUSH0 PUSH2 0x100 EXP DUP2 SLOAD DUP2 PUSH1 0xFF MUL NOT AND SWAP1 DUP4 ISZERO ISZERO MUL OR SWAP1 SSTORE POP PUSH32 0x5DB9EE0A495BF2E6FF9C91A7834C1BA4FDD244A5E8AA4E537BD38AEAE4B073AA PUSH2 0x23B4 PUSH2 0x225F JUMP JUMPDEST PUSH1 0x40 MLOAD PUSH2 0x23C1 SWAP2 SWAP1 PUSH2 0x39DD JUMP JUMPDEST PUSH1 0x40 MLOAD DUP1 SWAP2 SUB SWAP1 LOG1 POP JUMP JUMPDEST PUSH2 0x23D4 PUSH2 0x1307 JUMP JUMPDEST ISZERO PUSH2 0x240B JUMPI PUSH1 0x40 MLOAD PUSH32 0xD93C066500000000000000000000000000000000000000000000000000000000 DUP2 MSTORE PUSH1 0x4 ADD PUSH1 0x40 MLOAD DUP1 SWAP2 SUB SWAP1 REVERT JUMPDEST JUMP JUMPDEST PUSH0 DUP1 PUSH1 0x3 PUSH2 0x3E8 PUSH2 0x241E SWAP2 SWAP1 PUSH2 0x3576 JUMP JUMPDEST DUP6 PUSH2 0x2429 SWAP2 SWAP1 PUSH2 0x37A2 JUMP JUMPDEST SWAP1 POP PUSH0 DUP4 DUP3 PUSH2 0x2438 SWAP2 SWAP1 PUSH2 0x37A2 JUMP JUMPDEST SWAP1 POP PUSH0 DUP3 PUSH2 0x3E8 DUP8 PUSH2 0x244A SWAP2 SWAP1 PUSH2 0x37A2 JUMP JUMPDEST PUSH2 0x2454 SWAP2 SWAP1 PUSH2 0x3679 JUMP JUMPDEST SWAP1 POP DUP1 DUP3 PUSH2 0x2462 SWAP2 SWAP1 PUSH2 0x3810 JUMP JUMPDEST SWAP4 POP POP POP POP SWAP4 SWAP3 POP POP POP JUMP JUMPDEST PUSH32 0x0 PUSH20 0xFFFFFFFFFFFFFFFFFFFFFFFFFFFFFFFFFFFFFFFF AND ADDRESS PUSH20 0xFFFFFFFFFFFFFFFFFFFFFFFFFFFFFFFFFFFFFFFF AND EQ DUP1 PUSH2 0x251B JUMPI POP PUSH32 0x0 PUSH20 0xFFFFFFFFFFFFFFFFFFFFFFFFFFFFFFFFFFFFFFFF AND PUSH2 0x2502 PUSH2 0x289B JUMP JUMPDEST PUSH20 0xFFFFFFFFFFFFFFFFFFFFFFFFFFFFFFFFFFFFFFFF AND EQ ISZERO JUMPDEST ISZERO PUSH2 0x2552 JUMPI PUSH1 0x40 MLOAD PUSH32 0xE07C8DBA00000000000000000000000000000000000000000000000000000000 DUP2 MSTORE PUSH1 0x4 ADD PUSH1 0x40 MLOAD DUP1 SWAP2 SUB SWAP1 REVERT JUMPDEST JUMP JUMPDEST PUSH32 0x189AB7A9244DF0848122154315AF71FE140F3DB0FE014031783B0946B8C9D2E3 PUSH2 0x257E DUP2 PUSH2 0x212C JUMP JUMPDEST POP POP JUMP JUMPDEST DUP2 PUSH20 0xFFFFFFFFFFFFFFFFFFFFFFFFFFFFFFFFFFFFFFFF AND PUSH4 0x52D1902D PUSH1 0x40 MLOAD DUP2 PUSH4 0xFFFFFFFF AND PUSH1 0xE0 SHL DUP2 MSTORE PUSH1 0x4 ADD PUSH1 0x20 PUSH1 0x40 MLOAD DUP1 DUP4 SUB DUP2 DUP7 GAS STATICCALL SWAP3 POP POP POP DUP1 ISZERO PUSH2 0x25EA JUMPI POP PUSH1 0x40 MLOAD RETURNDATASIZE PUSH1 0x1F NOT PUSH1 0x1F DUP3 ADD AND DUP3 ADD DUP1 PUSH1 0x40 MSTORE POP DUP2 ADD SWAP1 PUSH2 0x25E7 SWAP2 SWAP1 PUSH2 0x3A0A JUMP JUMPDEST PUSH1 0x1 JUMPDEST PUSH2 0x262B JUMPI DUP2 PUSH1 0x40 MLOAD PUSH32 0x4C9C8CE300000000000000000000000000000000000000000000000000000000 DUP2 MSTORE PUSH1 0x4 ADD PUSH2 0x2622 SWAP2 SWAP1 PUSH2 0x39DD JUMP JUMPDEST PUSH1 0x40 MLOAD DUP1 SWAP2 SUB SWAP1 REVERT JUMPDEST PUSH32 0x360894A13BA1A3210667C828492DB98DCA3E2076CC3735A920A3CA505D382BBC PUSH0 SHL DUP2 EQ PUSH2 0x2691 JUMPI DUP1 PUSH1 0x40 MLOAD PUSH32 0xAA1D49A400000000000000000000000000000000000000000000000000000000 DUP2 MSTORE PUSH1 0x4 ADD PUSH2 0x2688 SWAP2 SWAP1 PUSH2 0x2E8E JUMP JUMPDEST PUSH1 0x40 MLOAD DUP1 SWAP2 SUB SWAP1 REVERT JUMPDEST PUSH2 0x269B DUP4 DUP4 PUSH2 0x28EE JUMP JUMPDEST POP POP POP JUMP JUMPDEST PUSH32 0x0 PUSH20 0xFFFFFFFFFFFFFFFFFFFFFFFFFFFFFFFFFFFFFFFF AND ADDRESS PUSH20 0xFFFFFFFFFFFFFFFFFFFFFFFFFFFFFFFFFFFFFFFF AND EQ PUSH2 0x2725 JUMPI PUSH1 0x40 MLOAD PUSH32 0xE07C8DBA00000000000000000000000000000000000000000000000000000000 DUP2 MSTORE PUSH1 0x4 ADD PUSH1 0x40 MLOAD DUP1 SWAP2 SUB SWAP1 REVERT JUMPDEST JUMP JUMPDEST PUSH0 PUSH32 0xCD5ED15C6E187E77E9AEE88184C21F4F2182AB5827CB3B7E07FBEDCD63F03300 SWAP1 POP SWAP1 JUMP JUMPDEST PUSH2 0x2756 PUSH2 0x23CC JUMP JUMPDEST PUSH0 PUSH2 0x275F PUSH2 0x2727 JUMP JUMPDEST SWAP1 POP PUSH1 0x1 DUP2 PUSH0 ADD PUSH0 PUSH2 0x100 EXP DUP2 SLOAD DUP2 PUSH1 0xFF MUL NOT AND SWAP1 DUP4 ISZERO ISZERO MUL OR SWAP1 SSTORE POP PUSH32 0x62E78CEA01BEE320CD4E420270B5EA74000D11B0C9F74754EBDBFC544B05A258 PUSH2 0x27A5 PUSH2 0x225F JUMP JUMPDEST PUSH1 0x40 MLOAD PUSH2 0x27B2 SWAP2 SWAP1 PUSH2 0x39DD JUMP JUMPDEST PUSH1 0x40 MLOAD DUP1 SWAP2 SUB SWAP1 LOG1 POP JUMP JUMPDEST PUSH0 PUSH32 0xF0C57E16840DF040F15088DC2F81FE391C3923BEC73E23A9662EFC9C229C6A00 SWAP1 POP SWAP1 JUMP JUMPDEST PUSH2 0x27EC PUSH2 0x2960 JUMP JUMPDEST PUSH2 0x27F4 PUSH2 0x29A0 JUMP JUMPDEST JUMP JUMPDEST PUSH2 0x27FE PUSH2 0x2960 JUMP JUMPDEST JUMP JUMPDEST PUSH2 0x2808 PUSH2 0x2960 JUMP JUMPDEST JUMP JUMPDEST PUSH2 0x2814 DUP3 DUP3 PUSH2 0x135E JUMP JUMPDEST PUSH2 0x2857 JUMPI DUP1 DUP3 PUSH1 0x40 MLOAD PUSH32 0xE2517D3F00000000000000000000000000000000000000000000000000000000 DUP2 MSTORE PUSH1 0x4 ADD PUSH2 0x284E SWAP3 SWAP2 SWAP1 PUSH2 0x3A35 JUMP JUMPDEST PUSH1 0x40 MLOAD DUP1 SWAP2 SUB SWAP1 REVERT JUMPDEST POP POP JUMP JUMPDEST PUSH2 0x2863 PUSH2 0x1307 JUMP JUMPDEST PUSH2 0x2899 JUMPI PUSH1 0x40 MLOAD PUSH32 0x8DFC202B00000000000000000000000000000000000000000000000000000000 DUP2 MSTORE PUSH1 0x4 ADD PUSH1 0x40 MLOAD DUP1 SWAP2 SUB SWAP1 REVERT JUMPDEST JUMP JUMPDEST PUSH0 PUSH2 0x28C7 PUSH32 0x360894A13BA1A3210667C828492DB98DCA3E2076CC3735A920A3CA505D382BBC PUSH0 SHL PUSH2 0x29D0 JUMP JUMPDEST PUSH0 ADD PUSH0 SWAP1 SLOAD SWAP1 PUSH2 0x100 EXP SWAP1 DIV PUSH20 0xFFFFFFFFFFFFFFFFFFFFFFFFFFFFFFFFFFFFFFFF AND SWAP1 POP SWAP1 JUMP JUMPDEST PUSH2 0x28F7 DUP3 PUSH2 0x29D9 JUMP JUMPDEST DUP2 PUSH20 0xFFFFFFFFFFFFFFFFFFFFFFFFFFFFFFFFFFFFFFFF AND PUSH32 0xBC7CD75A20EE27FD9ADEBAB32041F755214DBC6BFFA90CC0225B39DA2E5C2D3B PUSH1 0x40 MLOAD PUSH1 0x40 MLOAD DUP1 SWAP2 SUB SWAP1 LOG2 PUSH0 DUP2 MLOAD GT ISZERO PUSH2 0x2953 JUMPI PUSH2 0x294D DUP3 DUP3 PUSH2 0x2AA2 JUMP JUMPDEST POP PUSH2 0x295C JUMP JUMPDEST PUSH2 0x295B PUSH2 0x2B22 JUMP JUMPDEST JUMPDEST POP POP JUMP JUMPDEST PUSH2 0x2968 PUSH2 0x2B5E JUMP JUMPDEST PUSH2 0x299E JUMPI PUSH1 0x40 MLOAD PUSH32 0xD7E6BCF800000000000000000000000000000000000000000000000000000000 DUP2 MSTORE PUSH1 0x4 ADD PUSH1 0x40 MLOAD DUP1 SWAP2 SUB SWAP1 REVERT JUMPDEST JUMP JUMPDEST PUSH2 0x29A8 PUSH2 0x2960 JUMP JUMPDEST PUSH0 PUSH2 0x29B1 PUSH2 0x2727 JUMP JUMPDEST SWAP1 POP PUSH0 DUP2 PUSH0 ADD PUSH0 PUSH2 0x100 EXP DUP2 SLOAD DUP2 PUSH1 0xFF MUL NOT AND SWAP1 DUP4 ISZERO ISZERO MUL OR SWAP1 SSTORE POP POP JUMP JUMPDEST PUSH0 DUP2 SWAP1 POP SWAP2 SWAP1 POP JUMP JUMPDEST PUSH0 DUP2 PUSH20 0xFFFFFFFFFFFFFFFFFFFFFFFFFFFFFFFFFFFFFFFF AND EXTCODESIZE SUB PUSH2 0x2A34 JUMPI DUP1 PUSH1 0x40 MLOAD PUSH32 0x4C9C8CE300000000000000000000000000000000000000000000000000000000 DUP2 MSTORE PUSH1 0x4 ADD PUSH2 0x2A2B SWAP2 SWAP1 PUSH2 0x39DD JUMP JUMPDEST PUSH1 0x40 MLOAD DUP1 SWAP2 SUB SWAP1 REVERT JUMPDEST DUP1 PUSH2 0x2A60 PUSH32 0x360894A13BA1A3210667C828492DB98DCA3E2076CC3735A920A3CA505D382BBC PUSH0 SHL PUSH2 0x29D0 JUMP JUMPDEST PUSH0 ADD PUSH0 PUSH2 0x100 EXP DUP2 SLOAD DUP2 PUSH20 0xFFFFFFFFFFFFFFFFFFFFFFFFFFFFFFFFFFFFFFFF MUL NOT AND SWAP1 DUP4 PUSH20 0xFFFFFFFFFFFFFFFFFFFFFFFFFFFFFFFFFFFFFFFF AND MUL OR SWAP1 SSTORE POP POP JUMP JUMPDEST PUSH1 0x60 PUSH0 DUP1 DUP5 PUSH20 0xFFFFFFFFFFFFFFFFFFFFFFFFFFFFFFFFFFFFFFFF AND DUP5 PUSH1 0x40 MLOAD PUSH2 0x2ACB SWAP2 SWAP1 PUSH2 0x3AA0 JUMP JUMPDEST PUSH0 PUSH1 0x40 MLOAD DUP1 DUP4 SUB DUP2 DUP6 GAS DELEGATECALL SWAP2 POP POP RETURNDATASIZE DUP1 PUSH0 DUP2 EQ PUSH2 0x2B03 JUMPI PUSH1 0x40 MLOAD SWAP2 POP PUSH1 0x1F NOT PUSH1 0x3F RETURNDATASIZE ADD AND DUP3 ADD PUSH1 0x40 MSTORE RETURNDATASIZE DUP3 MSTORE RETURNDATASIZE PUSH0 PUSH1 0x20 DUP5 ADD RETURNDATACOPY PUSH2 0x2B08 JUMP JUMPDEST PUSH1 0x60 SWAP2 POP JUMPDEST POP SWAP2 POP SWAP2 POP PUSH2 0x2B18 DUP6 DUP4 DUP4 PUSH2 0x2B7C JUMP JUMPDEST SWAP3 POP POP POP SWAP3 SWAP2 POP POP JUMP JUMPDEST PUSH0 CALLVALUE GT ISZERO PUSH2 0x2B5C JUMPI PUSH1 0x40 MLOAD PUSH32 0xB398979F00000000000000000000000000000000000000000000000000000000 DUP2 MSTORE PUSH1 0x4 ADD PUSH1 0x40 MLOAD DUP1 SWAP2 SUB SWAP1 REVERT JUMPDEST JUMP JUMPDEST PUSH0 PUSH2 0x2B67 PUSH2 0x27BD JUMP JUMPDEST PUSH0 ADD PUSH1 0x8 SWAP1 SLOAD SWAP1 PUSH2 0x100 EXP SWAP1 DIV PUSH1 0xFF AND SWAP1 POP SWAP1 JUMP JUMPDEST PUSH1 0x60 DUP3 PUSH2 0x2B91 JUMPI PUSH2 0x2B8C DUP3 PUSH2 0x2C09 JUMP JUMPDEST PUSH2 0x2C01 JUMP JUMPDEST PUSH0 DUP3 MLOAD EQ DUP1 ISZERO PUSH2 0x2BB7 JUMPI POP PUSH0 DUP5 PUSH20 0xFFFFFFFFFFFFFFFFFFFFFFFFFFFFFFFFFFFFFFFF AND EXTCODESIZE EQ JUMPDEST ISZERO PUSH2 0x2BF9 JUMPI DUP4 PUSH1 0x40 MLOAD PUSH32 0x9996B31500000000000000000000000000000000000000000000000000000000 DUP2 MSTORE PUSH1 0x4 ADD PUSH2 0x2BF0 SWAP2 SWAP1 PUSH2 0x39DD JUMP JUMPDEST PUSH1 0x40 MLOAD DUP1 SWAP2 SUB SWAP1 REVERT JUMPDEST DUP2 SWAP1 POP PUSH2 0x2C02 JUMP JUMPDEST JUMPDEST SWAP4 SWAP3 POP POP POP JUMP JUMPDEST PUSH0 DUP2 MLOAD GT ISZERO PUSH2 0x2C1B JUMPI DUP1 MLOAD DUP1 DUP3 PUSH1 0x20 ADD REVERT JUMPDEST PUSH1 0x40 MLOAD PUSH32 0x1425EA4200000000000000000000000000000000000000000000000000000000 DUP2 MSTORE PUSH1 0x4 ADD PUSH1 0x40 MLOAD DUP1 SWAP2 SUB SWAP1 REVERT JUMPDEST PUSH0 PUSH1 0x40 MLOAD SWAP1 POP SWAP1 JUMP JUMPDEST PUSH0 DUP1 REVERT JUMPDEST PUSH0 DUP1 REVERT JUMPDEST PUSH0 PUSH32 0xFFFFFFFF00000000000000000000000000000000000000000000000000000000 DUP3 AND SWAP1 POP SWAP2 SWAP1 POP JUMP JUMPDEST PUSH2 0x2C92 DUP2 PUSH2 0x2C5E JUMP JUMPDEST DUP2 EQ PUSH2 0x2C9C JUMPI PUSH0 DUP1 REVERT JUMPDEST POP JUMP JUMPDEST PUSH0 DUP2 CALLDATALOAD SWAP1 POP PUSH2 0x2CAD DUP2 PUSH2 0x2C89 JUMP JUMPDEST SWAP3 SWAP2 POP POP JUMP JUMPDEST PUSH0 PUSH1 0x20 DUP3 DUP5 SUB SLT ISZERO PUSH2 0x2CC8 JUMPI PUSH2 0x2CC7 PUSH2 0x2C56 JUMP JUMPDEST JUMPDEST PUSH0 PUSH2 0x2CD5 DUP5 DUP3 DUP6 ADD PUSH2 0x2C9F JUMP JUMPDEST SWAP2 POP POP SWAP3 SWAP2 POP POP JUMP JUMPDEST PUSH0 DUP2 ISZERO ISZERO SWAP1 POP SWAP2 SWAP1 POP JUMP JUMPDEST PUSH2 0x2CF2 DUP2 PUSH2 0x2CDE JUMP JUMPDEST DUP3 MSTORE POP POP JUMP JUMPDEST PUSH0 PUSH1 0x20 DUP3 ADD SWAP1 POP PUSH2 0x2D0B PUSH0 DUP4 ADD DUP5 PUSH2 0x2CE9 JUMP JUMPDEST SWAP3 SWAP2 POP POP JUMP JUMPDEST PUSH0 DUP2 SWAP1 POP SWAP2 SWAP1 POP JUMP JUMPDEST PUSH2 0x2D23 DUP2 PUSH2 0x2D11 JUMP JUMPDEST DUP2 EQ PUSH2 0x2D2D JUMPI PUSH0 DUP1 REVERT JUMPDEST POP JUMP JUMPDEST PUSH0 DUP2 CALLDATALOAD SWAP1 POP PUSH2 0x2D3E DUP2 PUSH2 0x2D1A JUMP JUMPDEST SWAP3 SWAP2 POP POP JUMP JUMPDEST PUSH0 PUSH1 0x20 DUP3 DUP5 SUB SLT ISZERO PUSH2 0x2D59 JUMPI PUSH2 0x2D58 PUSH2 0x2C56 JUMP JUMPDEST JUMPDEST PUSH0 PUSH2 0x2D66 DUP5 DUP3 DUP6 ADD PUSH2 0x2D30 JUMP JUMPDEST SWAP2 POP POP SWAP3 SWAP2 POP POP JUMP JUMPDEST PUSH0 PUSH20 0xFFFFFFFFFFFFFFFFFFFFFFFFFFFFFFFFFFFFFFFF DUP3 AND SWAP1 POP SWAP2 SWAP1 POP JUMP JUMPDEST PUSH0 PUSH2 0x2D98 DUP3 PUSH2 0x2D6F JUMP JUMPDEST SWAP1 POP SWAP2 SWAP1 POP JUMP JUMPDEST PUSH2 0x2DA8 DUP2 PUSH2 0x2D8E JUMP JUMPDEST DUP2 EQ PUSH2 0x2DB2 JUMPI PUSH0 DUP1 REVERT JUMPDEST POP JUMP JUMPDEST PUSH0 DUP2 CALLDATALOAD SWAP1 POP PUSH2 0x2DC3 DUP2 PUSH2 0x2D9F JUMP JUMPDEST SWAP3 SWAP2 POP POP JUMP JUMPDEST PUSH0 DUP1 PUSH1 0x40 DUP4 DUP6 SUB SLT ISZERO PUSH2 0x2DDF JUMPI PUSH2 0x2DDE PUSH2 0x2C56 JUMP JUMPDEST JUMPDEST PUSH0 PUSH2 0x2DEC DUP6 DUP3 DUP7 ADD PUSH2 0x2DB5 JUMP JUMPDEST SWAP3 POP POP PUSH1 0x20 PUSH2 0x2DFD DUP6 DUP3 DUP7 ADD PUSH2 0x2D30 JUMP JUMPDEST SWAP2 POP POP SWAP3 POP SWAP3 SWAP1 POP JUMP JUMPDEST PUSH0 PUSH1 0x20 DUP3 DUP5 SUB SLT ISZERO PUSH2 0x2E1C JUMPI PUSH2 0x2E1B PUSH2 0x2C56 JUMP JUMPDEST JUMPDEST PUSH0 PUSH2 0x2E29 DUP5 DUP3 DUP6 ADD PUSH2 0x2DB5 JUMP JUMPDEST SWAP2 POP POP SWAP3 SWAP2 POP POP JUMP JUMPDEST PUSH2 0x2E3B DUP2 PUSH2 0x2D11 JUMP JUMPDEST DUP3 MSTORE POP POP JUMP JUMPDEST PUSH0 PUSH1 0x60 DUP3 ADD SWAP1 POP PUSH2 0x2E54 PUSH0 DUP4 ADD DUP7 PUSH2 0x2E32 JUMP JUMPDEST PUSH2 0x2E61 PUSH1 0x20 DUP4 ADD DUP6 PUSH2 0x2E32 JUMP JUMPDEST PUSH2 0x2E6E PUSH1 0x40 DUP4 ADD DUP5 PUSH2 0x2E32 JUMP JUMPDEST SWAP5 SWAP4 POP POP POP POP JUMP JUMPDEST PUSH0 DUP2 SWAP1 POP SWAP2 SWAP1 POP JUMP JUMPDEST PUSH2 0x2E88 DUP2 PUSH2 0x2E76 JUMP JUMPDEST DUP3 MSTORE POP POP JUMP JUMPDEST PUSH0 PUSH1 0x20 DUP3 ADD SWAP1 POP PUSH2 0x2EA1 PUSH0 DUP4 ADD DUP5 PUSH2 0x2E7F JUMP JUMPDEST SWAP3 SWAP2 POP POP JUMP JUMPDEST PUSH2 0x2EB0 DUP2 PUSH2 0x2E76 JUMP JUMPDEST DUP2 EQ PUSH2 0x2EBA JUMPI PUSH0 DUP1 REVERT JUMPDEST POP JUMP JUMPDEST PUSH0 DUP2 CALLDATALOAD SWAP1 POP PUSH2 0x2ECB DUP2 PUSH2 0x2EA7 JUMP JUMPDEST SWAP3 SWAP2 POP POP JUMP JUMPDEST PUSH0 PUSH1 0x20 DUP3 DUP5 SUB SLT ISZERO PUSH2 0x2EE6 JUMPI PUSH2 0x2EE5 PUSH2 0x2C56 JUMP JUMPDEST JUMPDEST PUSH0 PUSH2 0x2EF3 DUP5 DUP3 DUP6 ADD PUSH2 0x2EBD JUMP JUMPDEST SWAP2 POP POP SWAP3 SWAP2 POP POP JUMP JUMPDEST PUSH0 PUSH1 0x20 DUP3 ADD SWAP1 POP PUSH2 0x2F0F PUSH0 DUP4 ADD DUP5 PUSH2 0x2E32 JUMP JUMPDEST SWAP3 SWAP2 POP POP JUMP JUMPDEST PUSH0 DUP1 PUSH1 0x40 DUP4 DUP6 SUB SLT ISZERO PUSH2 0x2F2B JUMPI PUSH2 0x2F2A PUSH2 0x2C56 JUMP JUMPDEST JUMPDEST PUSH0 PUSH2 0x2F38 DUP6 DUP3 DUP7 ADD PUSH2 0x2EBD JUMP JUMPDEST SWAP3 POP POP PUSH1 0x20 PUSH2 0x2F49 DUP6 DUP3 DUP7 ADD PUSH2 0x2DB5 JUMP JUMPDEST SWAP2 POP POP SWAP3 POP SWAP3 SWAP1 POP JUMP JUMPDEST PUSH0 DUP2 SWAP1 POP SWAP2 SWAP1 POP JUMP JUMPDEST PUSH0 PUSH2 0x2F76 PUSH2 0x2F71 PUSH2 0x2F6C DUP5 PUSH2 0x2D6F JUMP JUMPDEST PUSH2 0x2F53 JUMP JUMPDEST PUSH2 0x2D6F JUMP JUMPDEST SWAP1 POP SWAP2 SWAP1 POP JUMP JUMPDEST PUSH0 PUSH2 0x2F87 DUP3 PUSH2 0x2F5C JUMP JUMPDEST SWAP1 POP SWAP2 SWAP1 POP JUMP JUMPDEST PUSH0 PUSH2 0x2F98 DUP3 PUSH2 0x2F7D JUMP JUMPDEST SWAP1 POP SWAP2 SWAP1 POP JUMP JUMPDEST PUSH2 0x2FA8 DUP2 PUSH2 0x2F8E JUMP JUMPDEST DUP3 MSTORE POP POP JUMP JUMPDEST PUSH0 PUSH1 0x20 DUP3 ADD SWAP1 POP PUSH2 0x2FC1 PUSH0 DUP4 ADD DUP5 PUSH2 0x2F9F JUMP JUMPDEST SWAP3 SWAP2 POP POP JUMP JUMPDEST PUSH0 DUP1 PUSH1 0x40 DUP4 DUP6 SUB SLT ISZERO PUSH2 0x2FDD JUMPI PUSH2 0x2FDC PUSH2 0x2C56 JUMP JUMPDEST JUMPDEST PUSH0 PUSH2 0x2FEA DUP6 DUP3 DUP7 ADD PUSH2 0x2D30 JUMP JUMPDEST SWAP3 POP POP PUSH1 0x20 PUSH2 0x2FFB DUP6 DUP3 DUP7 ADD PUSH2 0x2D30 JUMP JUMPDEST SWAP2 POP POP SWAP3 POP SWAP3 SWAP1 POP JUMP JUMPDEST PUSH0 DUP1 REVERT JUMPDEST PUSH0 DUP1 REVERT JUMPDEST PUSH0 PUSH1 0x1F NOT PUSH1 0x1F DUP4 ADD AND SWAP1 POP SWAP2 SWAP1 POP JUMP JUMPDEST PUSH32 0x4E487B7100000000000000000000000000000000000000000000000000000000 PUSH0 MSTORE PUSH1 0x41 PUSH1 0x4 MSTORE PUSH1 0x24 PUSH0 REVERT JUMPDEST PUSH2 0x3053 DUP3 PUSH2 0x300D JUMP JUMPDEST DUP2 ADD DUP2 DUP2 LT PUSH8 0xFFFFFFFFFFFFFFFF DUP3 GT OR ISZERO PUSH2 0x3072 JUMPI PUSH2 0x3071 PUSH2 0x301D JUMP JUMPDEST JUMPDEST DUP1 PUSH1 0x40 MSTORE POP POP POP JUMP JUMPDEST PUSH0 PUSH2 0x3084 PUSH2 0x2C4D JUMP JUMPDEST SWAP1 POP PUSH2 0x3090 DUP3 DUP3 PUSH2 0x304A JUMP JUMPDEST SWAP2 SWAP1 POP JUMP JUMPDEST PUSH0 PUSH8 0xFFFFFFFFFFFFFFFF DUP3 GT ISZERO PUSH2 0x30AF JUMPI PUSH2 0x30AE PUSH2 0x301D JUMP JUMPDEST JUMPDEST PUSH2 0x30B8 DUP3 PUSH2 0x300D JUMP JUMPDEST SWAP1 POP PUSH1 0x20 DUP2 ADD SWAP1 POP SWAP2 SWAP1 POP JUMP JUMPDEST DUP3 DUP2 DUP4 CALLDATACOPY PUSH0 DUP4 DUP4 ADD MSTORE POP POP POP JUMP JUMPDEST PUSH0 PUSH2 0x30E5 PUSH2 0x30E0 DUP5 PUSH2 0x3095 JUMP JUMPDEST PUSH2 0x307B JUMP JUMPDEST SWAP1 POP DUP3 DUP2 MSTORE PUSH1 0x20 DUP2 ADD DUP5 DUP5 DUP5 ADD GT ISZERO PUSH2 0x3101 JUMPI PUSH2 0x3100 PUSH2 0x3009 JUMP JUMPDEST JUMPDEST PUSH2 0x310C DUP5 DUP3 DUP6 PUSH2 0x30C5 JUMP JUMPDEST POP SWAP4 SWAP3 POP POP POP JUMP JUMPDEST PUSH0 DUP3 PUSH1 0x1F DUP4 ADD SLT PUSH2 0x3128 JUMPI PUSH2 0x3127 PUSH2 0x3005 JUMP JUMPDEST JUMPDEST DUP2 CALLDATALOAD PUSH2 0x3138 DUP5 DUP3 PUSH1 0x20 DUP7 ADD PUSH2 0x30D3 JUMP JUMPDEST SWAP2 POP POP SWAP3 SWAP2 POP POP JUMP JUMPDEST PUSH0 DUP1 PUSH1 0x40 DUP4 DUP6 SUB SLT ISZERO PUSH2 0x3157 JUMPI PUSH2 0x3156 PUSH2 0x2C56 JUMP JUMPDEST JUMPDEST PUSH0 PUSH2 0x3164 DUP6 DUP3 DUP7 ADD PUSH2 0x2DB5 JUMP JUMPDEST SWAP3 POP POP PUSH1 0x20 DUP4 ADD CALLDATALOAD PUSH8 0xFFFFFFFFFFFFFFFF DUP2 GT ISZERO PUSH2 0x3185 JUMPI PUSH2 0x3184 PUSH2 0x2C5A JUMP JUMPDEST JUMPDEST PUSH2 0x3191 DUP6 DUP3 DUP7 ADD PUSH2 0x3114 JUMP JUMPDEST SWAP2 POP POP SWAP3 POP SWAP3 SWAP1 POP JUMP JUMPDEST PUSH0 PUSH1 0x40 DUP3 ADD SWAP1 POP PUSH2 0x31AE PUSH0 DUP4 ADD DUP6 PUSH2 0x2E32 JUMP JUMPDEST PUSH2 0x31BB PUSH1 0x20 DUP4 ADD DUP5 PUSH2 0x2E32 JUMP JUMPDEST SWAP4 SWAP3 POP POP POP JUMP JUMPDEST PUSH0 DUP2 MLOAD SWAP1 POP SWAP2 SWAP1 POP JUMP JUMPDEST PUSH0 DUP3 DUP3 MSTORE PUSH1 0x20 DUP3 ADD SWAP1 POP SWAP3 SWAP2 POP POP JUMP JUMPDEST DUP3 DUP2 DUP4 MCOPY PUSH0 DUP4 DUP4 ADD MSTORE POP POP POP JUMP JUMPDEST PUSH0 PUSH2 0x31F4 DUP3 PUSH2 0x31C2 JUMP JUMPDEST PUSH2 0x31FE DUP2 DUP6 PUSH2 0x31CC JUMP JUMPDEST SWAP4 POP PUSH2 0x320E DUP2 DUP6 PUSH1 0x20 DUP7 ADD PUSH2 0x31DC JUMP JUMPDEST PUSH2 0x3217 DUP2 PUSH2 0x300D JUMP JUMPDEST DUP5 ADD SWAP2 POP POP SWAP3 SWAP2 POP POP JUMP JUMPDEST PUSH0 PUSH1 0x20 DUP3 ADD SWAP1 POP DUP2 DUP2 SUB PUSH0 DUP4 ADD MSTORE PUSH2 0x323A DUP2 DUP5 PUSH2 0x31EA JUMP JUMPDEST SWAP1 POP SWAP3 SWAP2 POP POP JUMP JUMPDEST PUSH0 DUP1 PUSH0 PUSH1 0x60 DUP5 DUP7 SUB SLT ISZERO PUSH2 0x3259 JUMPI PUSH2 0x3258 PUSH2 0x2C56 JUMP JUMPDEST JUMPDEST PUSH0 PUSH2 0x3266 DUP7 DUP3 DUP8 ADD PUSH2 0x2DB5 JUMP JUMPDEST SWAP4 POP POP PUSH1 0x20 PUSH2 0x3277 DUP7 DUP3 DUP8 ADD PUSH2 0x2D30 JUMP JUMPDEST SWAP3 POP POP PUSH1 0x40 PUSH2 0x3288 DUP7 DUP3 DUP8 ADD PUSH2 0x2D30 JUMP JUMPDEST SWAP2 POP POP SWAP3 POP SWAP3 POP SWAP3 JUMP JUMPDEST PUSH0 DUP1 PUSH0 DUP1 PUSH0 DUP1 PUSH1 0xC0 DUP8 DUP10 SUB SLT ISZERO PUSH2 0x32AC JUMPI PUSH2 0x32AB PUSH2 0x2C56 JUMP JUMPDEST JUMPDEST PUSH0 PUSH2 0x32B9 DUP10 DUP3 DUP11 ADD PUSH2 0x2DB5 JUMP JUMPDEST SWAP7 POP POP PUSH1 0x20 PUSH2 0x32CA DUP10 DUP3 DUP11 ADD PUSH2 0x2DB5 JUMP JUMPDEST SWAP6 POP POP PUSH1 0x40 PUSH2 0x32DB DUP10 DUP3 DUP11 ADD PUSH2 0x2DB5 JUMP JUMPDEST SWAP5 POP POP PUSH1 0x60 PUSH2 0x32EC DUP10 DUP3 DUP11 ADD PUSH2 0x2DB5 JUMP JUMPDEST SWAP4 POP POP PUSH1 0x80 PUSH2 0x32FD DUP10 DUP3 DUP11 ADD PUSH2 0x2DB5 JUMP JUMPDEST SWAP3 POP POP PUSH1 0xA0 PUSH2 0x330E DUP10 DUP3 DUP11 ADD PUSH2 0x2DB5 JUMP JUMPDEST SWAP2 POP POP SWAP3 SWAP6 POP SWAP3 SWAP6 POP SWAP3 SWAP6 JUMP JUMPDEST PUSH0 PUSH2 0x3325 DUP3 PUSH2 0x2F7D JUMP JUMPDEST SWAP1 POP SWAP2 SWAP1 POP JUMP JUMPDEST PUSH2 0x3335 DUP2 PUSH2 0x331B JUMP JUMPDEST DUP3 MSTORE POP POP JUMP JUMPDEST PUSH0 PUSH1 0x20 DUP3 ADD SWAP1 POP PUSH2 0x334E PUSH0 DUP4 ADD DUP5 PUSH2 0x332C JUMP JUMPDEST SWAP3 SWAP2 POP POP JUMP JUMPDEST PUSH2 0x335D DUP2 PUSH2 0x2D8E JUMP JUMPDEST DUP3 MSTORE POP POP JUMP JUMPDEST PUSH0 PUSH1 0x60 DUP3 ADD SWAP1 POP PUSH2 0x3376 PUSH0 DUP4 ADD DUP7 PUSH2 0x3354 JUMP JUMPDEST PUSH2 0x3383 PUSH1 0x20 DUP4 ADD DUP6 PUSH2 0x3354 JUMP JUMPDEST PUSH2 0x3390 PUSH1 0x40 DUP4 ADD DUP5 PUSH2 0x2E32 JUMP JUMPDEST SWAP5 SWAP4 POP POP POP POP JUMP JUMPDEST PUSH0 PUSH1 0x40 DUP3 ADD SWAP1 POP PUSH2 0x33AB PUSH0 DUP4 ADD DUP6 PUSH2 0x3354 JUMP JUMPDEST PUSH2 0x33B8 PUSH1 0x20 DUP4 ADD DUP5 PUSH2 0x2E32 JUMP JUMPDEST SWAP4 SWAP3 POP POP POP JUMP JUMPDEST PUSH2 0x33C8 DUP2 PUSH2 0x2CDE JUMP JUMPDEST DUP2 EQ PUSH2 0x33D2 JUMPI PUSH0 DUP1 REVERT JUMPDEST POP JUMP JUMPDEST PUSH0 DUP2 MLOAD SWAP1 POP PUSH2 0x33E3 DUP2 PUSH2 0x33BF JUMP JUMPDEST SWAP3 SWAP2 POP POP JUMP JUMPDEST PUSH0 PUSH1 0x20 DUP3 DUP5 SUB SLT ISZERO PUSH2 0x33FE JUMPI PUSH2 0x33FD PUSH2 0x2C56 JUMP JUMPDEST JUMPDEST PUSH0 PUSH2 0x340B DUP5 DUP3 DUP6 ADD PUSH2 0x33D5 JUMP JUMPDEST SWAP2 POP POP SWAP3 SWAP2 POP POP JUMP JUMPDEST PUSH32 0x45544820616D6F756E74206D7573742062652067726561746572207468616E20 PUSH0 DUP3 ADD MSTORE PUSH32 0x7A65726F00000000000000000000000000000000000000000000000000000000 PUSH1 0x20 DUP3 ADD MSTORE POP JUMP JUMPDEST PUSH0 PUSH2 0x346E PUSH1 0x24 DUP4 PUSH2 0x31CC JUMP JUMPDEST SWAP2 POP PUSH2 0x3479 DUP3 PUSH2 0x3414 JUMP JUMPDEST PUSH1 0x40 DUP3 ADD SWAP1 POP SWAP2 SWAP1 POP JUMP JUMPDEST PUSH0 PUSH1 0x20 DUP3 ADD SWAP1 POP DUP2 DUP2 SUB PUSH0 DUP4 ADD MSTORE PUSH2 0x349B DUP2 PUSH2 0x3462 JUMP JUMPDEST SWAP1 POP SWAP2 SWAP1 POP JUMP JUMPDEST PUSH0 DUP2 MLOAD SWAP1 POP PUSH2 0x34B0 DUP2 PUSH2 0x2D9F JUMP JUMPDEST SWAP3 SWAP2 POP POP JUMP JUMPDEST PUSH0 PUSH1 0x20 DUP3 DUP5 SUB SLT ISZERO PUSH2 0x34CB JUMPI PUSH2 0x34CA PUSH2 0x2C56 JUMP JUMPDEST JUMPDEST PUSH0 PUSH2 0x34D8 DUP5 DUP3 DUP6 ADD PUSH2 0x34A2 JUMP JUMPDEST SWAP2 POP POP SWAP3 SWAP2 POP POP JUMP JUMPDEST PUSH32 0x4E4654206E6F74206F776E656420627920636F6E747261637400000000000000 PUSH0 DUP3 ADD MSTORE POP JUMP JUMPDEST PUSH0 PUSH2 0x3515 PUSH1 0x19 DUP4 PUSH2 0x31CC JUMP JUMPDEST SWAP2 POP PUSH2 0x3520 DUP3 PUSH2 0x34E1 JUMP JUMPDEST PUSH1 0x20 DUP3 ADD SWAP1 POP SWAP2 SWAP1 POP JUMP JUMPDEST PUSH0 PUSH1 0x20 DUP3 ADD SWAP1 POP DUP2 DUP2 SUB PUSH0 DUP4 ADD MSTORE PUSH2 0x3542 DUP2 PUSH2 0x3509 JUMP JUMPDEST SWAP1 POP SWAP2 SWAP1 POP JUMP JUMPDEST PUSH32 0x4E487B7100000000000000000000000000000000000000000000000000000000 PUSH0 MSTORE PUSH1 0x11 PUSH1 0x4 MSTORE PUSH1 0x24 PUSH0 REVERT JUMPDEST PUSH0 PUSH2 0x3580 DUP3 PUSH2 0x2D11 JUMP JUMPDEST SWAP2 POP PUSH2 0x358B DUP4 PUSH2 0x2D11 JUMP JUMPDEST SWAP3 POP DUP3 DUP3 SUB SWAP1 POP DUP2 DUP2 GT ISZERO PUSH2 0x35A3 JUMPI PUSH2 0x35A2 PUSH2 0x3549 JUMP JUMPDEST JUMPDEST SWAP3 SWAP2 POP POP JUMP JUMPDEST PUSH32 0x536C69707061676520746F6C6572616E63652065786365656465640000000000 PUSH0 DUP3 ADD MSTORE POP JUMP JUMPDEST PUSH0 PUSH2 0x35DD PUSH1 0x1B DUP4 PUSH2 0x31CC JUMP JUMPDEST SWAP2 POP PUSH2 0x35E8 DUP3 PUSH2 0x35A9 JUMP JUMPDEST PUSH1 0x20 DUP3 ADD SWAP1 POP SWAP2 SWAP1 POP JUMP JUMPDEST PUSH0 PUSH1 0x20 DUP3 ADD SWAP1 POP DUP2 DUP2 SUB PUSH0 DUP4 ADD MSTORE PUSH2 0x360A DUP2 PUSH2 0x35D1 JUMP JUMPDEST SWAP1 POP SWAP2 SWAP1 POP JUMP JUMPDEST PUSH32 0x496E73756666696369656E74206C697175696469747900000000000000000000 PUSH0 DUP3 ADD MSTORE POP JUMP JUMPDEST PUSH0 PUSH2 0x3645 PUSH1 0x16 DUP4 PUSH2 0x31CC JUMP JUMPDEST SWAP2 POP PUSH2 0x3650 DUP3 PUSH2 0x3611 JUMP JUMPDEST PUSH1 0x20 DUP3 ADD SWAP1 POP SWAP2 SWAP1 POP JUMP JUMPDEST PUSH0 PUSH1 0x20 DUP3 ADD SWAP1 POP DUP2 DUP2 SUB PUSH0 DUP4 ADD MSTORE PUSH2 0x3672 DUP2 PUSH2 0x3639 JUMP JUMPDEST SWAP1 POP SWAP2 SWAP1 POP JUMP JUMPDEST PUSH0 PUSH2 0x3683 DUP3 PUSH2 0x2D11 JUMP JUMPDEST SWAP2 POP PUSH2 0x368E DUP4 PUSH2 0x2D11 JUMP JUMPDEST SWAP3 POP DUP3 DUP3 ADD SWAP1 POP DUP1 DUP3 GT ISZERO PUSH2 0x36A6 JUMPI PUSH2 0x36A5 PUSH2 0x3549 JUMP JUMPDEST JUMPDEST SWAP3 SWAP2 POP POP JUMP JUMPDEST PUSH32 0x546F6B656E20616D6F756E74206D757374206265206772656174657220746861 PUSH0 DUP3 ADD MSTORE PUSH32 0x6E207A65726F0000000000000000000000000000000000000000000000000000 PUSH1 0x20 DUP3 ADD MSTORE POP JUMP JUMPDEST PUSH0 PUSH2 0x3706 PUSH1 0x26 DUP4 PUSH2 0x31CC JUMP JUMPDEST SWAP2 POP PUSH2 0x3711 DUP3 PUSH2 0x36AC JUMP JUMPDEST PUSH1 0x40 DUP3 ADD SWAP1 POP SWAP2 SWAP1 POP JUMP JUMPDEST PUSH0 PUSH1 0x20 DUP3 ADD SWAP1 POP DUP2 DUP2 SUB PUSH0 DUP4 ADD MSTORE PUSH2 0x3733 DUP2 PUSH2 0x36FA JUMP JUMPDEST SWAP1 POP SWAP2 SWAP1 POP JUMP JUMPDEST PUSH32 0x496E76616C696420706F6F6C2073746174650000000000000000000000000000 PUSH0 DUP3 ADD MSTORE POP JUMP JUMPDEST PUSH0 PUSH2 0x376E PUSH1 0x12 DUP4 PUSH2 0x31CC JUMP JUMPDEST SWAP2 POP PUSH2 0x3779 DUP3 PUSH2 0x373A JUMP JUMPDEST PUSH1 0x20 DUP3 ADD SWAP1 POP SWAP2 SWAP1 POP JUMP JUMPDEST PUSH0 PUSH1 0x20 DUP3 ADD SWAP1 POP DUP2 DUP2 SUB PUSH0 DUP4 ADD MSTORE PUSH2 0x379B DUP2 PUSH2 0x3762 JUMP JUMPDEST SWAP1 POP SWAP2 SWAP1 POP JUMP JUMPDEST PUSH0 PUSH2 0x37AC DUP3 PUSH2 0x2D11 JUMP JUMPDEST SWAP2 POP PUSH2 0x37B7 DUP4 PUSH2 0x2D11 JUMP JUMPDEST SWAP3 POP DUP3 DUP3 MUL PUSH2 0x37C5 DUP2 PUSH2 0x2D11 JUMP JUMPDEST SWAP2 POP DUP3 DUP3 DIV DUP5 EQ DUP4 ISZERO OR PUSH2 0x37DC JUMPI PUSH2 0x37DB PUSH2 0x3549 JUMP JUMPDEST JUMPDEST POP SWAP3 SWAP2 POP POP JUMP JUMPDEST PUSH32 0x4E487B7100000000000000000000000000000000000000000000000000000000 PUSH0 MSTORE PUSH1 0x12 PUSH1 0x4 MSTORE PUSH1 0x24 PUSH0 REVERT JUMPDEST PUSH0 PUSH2 0x381A DUP3 PUSH2 0x2D11 JUMP JUMPDEST SWAP2 POP PUSH2 0x3825 DUP4 PUSH2 0x2D11 JUMP JUMPDEST SWAP3 POP DUP3 PUSH2 0x3835 JUMPI PUSH2 0x3834 PUSH2 0x37E3 JUMP JUMPDEST JUMPDEST DUP3 DUP3 DIV SWAP1 POP SWAP3 SWAP2 POP POP JUMP JUMPDEST PUSH32 0x496E73756666696369656E742045544820616D6F756E74000000000000000000 PUSH0 DUP3 ADD MSTORE POP JUMP JUMPDEST PUSH0 PUSH2 0x3874 PUSH1 0x17 DUP4 PUSH2 0x31CC JUMP JUMPDEST SWAP2 POP PUSH2 0x387F DUP3 PUSH2 0x3840 JUMP JUMPDEST PUSH1 0x20 DUP3 ADD SWAP1 POP SWAP2 SWAP1 POP JUMP JUMPDEST PUSH0 PUSH1 0x20 DUP3 ADD SWAP1 POP DUP2 DUP2 SUB PUSH0 DUP4 ADD MSTORE PUSH2 0x38A1 DUP2 PUSH2 0x3868 JUMP JUMPDEST SWAP1 POP SWAP2 SWAP1 POP JUMP JUMPDEST PUSH0 DUP2 SWAP1 POP SWAP2 SWAP1 POP JUMP JUMPDEST PUSH0 PUSH8 0xFFFFFFFFFFFFFFFF DUP3 AND SWAP1 POP SWAP2 SWAP1 POP JUMP JUMPDEST PUSH0 PUSH2 0x38DE PUSH2 0x38D9 PUSH2 0x38D4 DUP5 PUSH2 0x38A8 JUMP JUMPDEST PUSH2 0x2F53 JUMP JUMPDEST PUSH2 0x38B1 JUMP JUMPDEST SWAP1 POP SWAP2 SWAP1 POP JUMP JUMPDEST PUSH2 0x38EE DUP2 PUSH2 0x38C4 JUMP JUMPDEST DUP3 MSTORE POP POP JUMP JUMPDEST PUSH0 PUSH1 0x20 DUP3 ADD SWAP1 POP PUSH2 0x3907 PUSH0 DUP4 ADD DUP5 PUSH2 0x38E5 JUMP JUMPDEST SWAP3 SWAP2 POP POP JUMP JUMPDEST PUSH32 0x4E6F74206F776E6572206F66204E465400000000000000000000000000000000 PUSH0 DUP3 ADD MSTORE POP JUMP JUMPDEST PUSH0 PUSH2 0x3941 PUSH1 0x10 DUP4 PUSH2 0x31CC JUMP JUMPDEST SWAP2 POP PUSH2 0x394C DUP3 PUSH2 0x390D JUMP JUMPDEST PUSH1 0x20 DUP3 ADD SWAP1 POP SWAP2 SWAP1 POP JUMP JUMPDEST PUSH0 PUSH1 0x20 DUP3 ADD SWAP1 POP DUP2 DUP2 SUB PUSH0 DUP4 ADD MSTORE PUSH2 0x396E DUP2 PUSH2 0x3935 JUMP JUMPDEST SWAP1 POP SWAP2 SWAP1 POP JUMP JUMPDEST PUSH32 0x496E73756666696369656E742062616C616E6365000000000000000000000000 PUSH0 DUP3 ADD MSTORE POP JUMP JUMPDEST PUSH0 PUSH2 0x39A9 PUSH1 0x14 DUP4 PUSH2 0x31CC JUMP JUMPDEST SWAP2 POP PUSH2 0x39B4 DUP3 PUSH2 0x3975 JUMP JUMPDEST PUSH1 0x20 DUP3 ADD SWAP1 POP SWAP2 SWAP1 POP JUMP JUMPDEST PUSH0 PUSH1 0x20 DUP3 ADD SWAP1 POP DUP2 DUP2 SUB PUSH0 DUP4 ADD MSTORE PUSH2 0x39D6 DUP2 PUSH2 0x399D JUMP JUMPDEST SWAP1 POP SWAP2 SWAP1 POP JUMP JUMPDEST PUSH0 PUSH1 0x20 DUP3 ADD SWAP1 POP PUSH2 0x39F0 PUSH0 DUP4 ADD DUP5 PUSH2 0x3354 JUMP JUMPDEST SWAP3 SWAP2 POP POP JUMP JUMPDEST PUSH0 DUP2 MLOAD SWAP1 POP PUSH2 0x3A04 DUP2 PUSH2 0x2EA7 JUMP JUMPDEST SWAP3 SWAP2 POP POP JUMP JUMPDEST PUSH0 PUSH1 0x20 DUP3 DUP5 SUB SLT ISZERO PUSH2 0x3A1F JUMPI PUSH2 0x3A1E PUSH2 0x2C56 JUMP JUMPDEST JUMPDEST PUSH0 PUSH2 0x3A2C DUP5 DUP3 DUP6 ADD PUSH2 0x39F6 JUMP JUMPDEST SWAP2 POP POP SWAP3 SWAP2 POP POP JUMP JUMPDEST PUSH0 PUSH1 0x40 DUP3 ADD SWAP1 POP PUSH2 0x3A48 PUSH0 DUP4 ADD DUP6 PUSH2 0x3354 JUMP JUMPDEST PUSH2 0x3A55 PUSH1 0x20 DUP4 ADD DUP5 PUSH2 0x2E7F JUMP JUMPDEST SWAP4 SWAP3 POP POP POP JUMP JUMPDEST PUSH0 DUP2 MLOAD SWAP1 POP SWAP2 SWAP1 POP JUMP JUMPDEST PUSH0 DUP2 SWAP1 POP SWAP3 SWAP2 POP POP JUMP JUMPDEST PUSH0 PUSH2 0x3A7A DUP3 PUSH2 0x3A5C JUMP JUMPDEST PUSH2 0x3A84 DUP2 DUP6 PUSH2 0x3A66 JUMP JUMPDEST SWAP4 POP PUSH2 0x3A94 DUP2 DUP6 PUSH1 0x20 DUP7 ADD PUSH2 0x31DC JUMP JUMPDEST DUP1 DUP5 ADD SWAP2 POP POP SWAP3 SWAP2 POP POP JUMP JUMPDEST PUSH0 PUSH2 0x3AAB DUP3 DUP5 PUSH2 0x3A70 JUMP JUMPDEST SWAP2 POP DUP2 SWAP1 POP SWAP3 SWAP2 POP POP JUMP INVALID LOG2 PUSH5 0x6970667358 0x22 SLT KECCAK256 JUMPDEST 0xF6 0xC2 0xEF 0xAA TIMESTAMP PUSH17 0xF923E1D8981C52665EF8B357D3F4539E28 CODESIZE SWAP9 SHR PUSH2 0x9AD5 ISZERO 0xA9 PUSH5 0x736F6C6343 STOP ADDMOD BYTE STOP CALLER "
				},
				"gasEstimates": {
					"creation": {
						"codeDepositCost": "3016800",
						"executionCost": "infinite",
						"totalCost": "infinite"
					},
					"external": {
						"DEFAULT_ADMIN_ROLE()": "397",
						"FEE_RATE()": "437",
						"LIQUIDITY_MANAGER_ROLE()": "393",
						"PAUSER_ROLE()": "391",
						"UPGRADER_ROLE()": "435",
						"UPGRADE_INTERFACE_VERSION()": "infinite",
						"addLiquidity(address,uint256)": "infinite",
						"cqtNFT()": "infinite",
						"cqtToken()": "infinite",
						"getRoleAdmin(bytes32)": "infinite",
						"grantRole(bytes32,address)": "infinite",
						"hasRole(bytes32,address)": "3286",
						"initialize(address,address,address,address,address,address)": "infinite",
						"liquidityPools(address)": "infinite",
						"pause()": "infinite",
						"paused()": "2593",
						"proxiableUUID()": "infinite",
						"removeLiquidity(address,uint256)": "infinite",
						"renounceRole(bytes32,address)": "infinite",
						"revokeRole(bytes32,address)": "infinite",
						"supportsInterface(bytes4)": "764",
						"swapETHForNFT(uint256,uint256)": "infinite",
						"swapETHForTokens(address,uint256)": "infinite",
						"swapNFTForETH(uint256,uint256)": "infinite",
						"swapTokensForETH(address,uint256,uint256)": "infinite",
						"unpause()": "infinite",
						"updateLiquidityPool(address,uint256,uint256)": "infinite",
						"upgradeToAndCall(address,bytes)": "infinite",
						"withdrawETH(uint256)": "infinite",
						"withdrawNFT(uint256)": "infinite",
						"withdrawTokens(address,uint256)": "infinite"
					},
					"internal": {
						"_authorizeUpgrade(address)": "infinite",
						"getOutputAmount(uint256,uint256,uint256)": "infinite"
					}
				},
				"methodIdentifiers": {
					"DEFAULT_ADMIN_ROLE()": "a217fddf",
					"FEE_RATE()": "2d11c58a",
					"LIQUIDITY_MANAGER_ROLE()": "242f0551",
					"PAUSER_ROLE()": "e63ab1e9",
					"UPGRADER_ROLE()": "f72c0d8b",
					"UPGRADE_INTERFACE_VERSION()": "ad3cb1cc",
					"addLiquidity(address,uint256)": "56688700",
					"cqtNFT()": "da069683",
					"cqtToken()": "34aab064",
					"getRoleAdmin(bytes32)": "248a9ca3",
					"grantRole(bytes32,address)": "2f2ff15d",
					"hasRole(bytes32,address)": "91d14854",
					"initialize(address,address,address,address,address,address)": "cc2a9a5b",
					"liquidityPools(address)": "0b0fd47e",
					"pause()": "8456cb59",
					"paused()": "5c975abb",
					"proxiableUUID()": "52d1902d",
					"removeLiquidity(address,uint256)": "a201ccf6",
					"renounceRole(bytes32,address)": "36568abe",
					"revokeRole(bytes32,address)": "d547741f",
					"supportsInterface(bytes4)": "01ffc9a7",
					"swapETHForNFT(uint256,uint256)": "49f0346e",
					"swapETHForTokens(address,uint256)": "51422e97",
					"swapNFTForETH(uint256,uint256)": "d9a37ad2",
					"swapTokensForETH(address,uint256,uint256)": "e15cc8da",
					"unpause()": "3f4ba83a",
					"updateLiquidityPool(address,uint256,uint256)": "c7088313",
					"upgradeToAndCall(address,bytes)": "4f1ef286",
					"withdrawETH(uint256)": "f14210a6",
					"withdrawNFT(uint256)": "023245d7",
					"withdrawTokens(address,uint256)": "06b091f9"
				}
			},
			"storageLayout": {
				"storage": [
					{
						"astId": 2085,
						"contract": "src/smartcontracts/CryptoQuestSwap.sol:CryptoQuestSwap",
						"label": "cqtToken",
						"offset": 0,
						"slot": "0",
						"type": "t_contract(IERC20Upgradeable)876"
					},
					{
						"astId": 2088,
						"contract": "src/smartcontracts/CryptoQuestSwap.sol:CryptoQuestSwap",
						"label": "cqtNFT",
						"offset": 0,
						"slot": "1",
						"type": "t_contract(IERC721Upgradeable)992"
					},
					{
						"astId": 2104,
						"contract": "src/smartcontracts/CryptoQuestSwap.sol:CryptoQuestSwap",
						"label": "liquidityPools",
						"offset": 0,
						"slot": "2",
						"type": "t_mapping(t_address,t_struct(LiquidityPool)2099_storage)"
					}
				],
				"types": {
					"t_address": {
						"encoding": "inplace",
						"label": "address",
						"numberOfBytes": "20"
					},
					"t_contract(IERC20Upgradeable)876": {
						"encoding": "inplace",
						"label": "contract IERC20Upgradeable",
						"numberOfBytes": "20"
					},
					"t_contract(IERC721Upgradeable)992": {
						"encoding": "inplace",
						"label": "contract IERC721Upgradeable",
						"numberOfBytes": "20"
					},
					"t_mapping(t_address,t_struct(LiquidityPool)2099_storage)": {
						"encoding": "mapping",
						"key": "t_address",
						"label": "mapping(address => struct CryptoQuestSwap.LiquidityPool)",
						"numberOfBytes": "32",
						"value": "t_struct(LiquidityPool)2099_storage"
					},
					"t_mapping(t_address,t_uint256)": {
						"encoding": "mapping",
						"key": "t_address",
						"label": "mapping(address => uint256)",
						"numberOfBytes": "32",
						"value": "t_uint256"
					},
					"t_struct(LiquidityPool)2099_storage": {
						"encoding": "inplace",
						"label": "struct CryptoQuestSwap.LiquidityPool",
						"members": [
							{
								"astId": 2090,
								"contract": "src/smartcontracts/CryptoQuestSwap.sol:CryptoQuestSwap",
								"label": "tokenAmount",
								"offset": 0,
								"slot": "0",
								"type": "t_uint256"
							},
							{
								"astId": 2092,
								"contract": "src/smartcontracts/CryptoQuestSwap.sol:CryptoQuestSwap",
								"label": "ethAmount",
								"offset": 0,
								"slot": "1",
								"type": "t_uint256"
							},
							{
								"astId": 2094,
								"contract": "src/smartcontracts/CryptoQuestSwap.sol:CryptoQuestSwap",
								"label": "totalLiquidity",
								"offset": 0,
								"slot": "2",
								"type": "t_uint256"
							},
							{
								"astId": 2098,
								"contract": "src/smartcontracts/CryptoQuestSwap.sol:CryptoQuestSwap",
								"label": "liquidity",
								"offset": 0,
								"slot": "3",
								"type": "t_mapping(t_address,t_uint256)"
							}
						],
						"numberOfBytes": "128"
					},
					"t_uint256": {
						"encoding": "inplace",
						"label": "uint256",
						"numberOfBytes": "32"
					}
				}
			},
			"userdoc": {
				"kind": "user",
				"methods": {},
				"version": 1
			}
		}
	}
}