{
	"data": {
		"bytecode": {
			"linkReferences": {},
			"object": "60a060405230608052348015610013575f80fd5b5061001c610021565b6100dd565b5f54610100900460ff161561008c5760405162461bcd60e51b815260206004820152602760248201527f496e697469616c697a61626c653a20636f6e747261637420697320696e697469604482015266616c697a696e6760c81b606482015260840160405180910390fd5b5f5460ff908116146100db575f805460ff191660ff9081179091556040519081527f7f26b83ff96e1f2b6a682f133852f6798a09c465da95921460cefb38474024989060200160405180910390a15b565b6080516150686101115f395f8181610ec601528181610f060152818161121101528181611251015261136e01526150685ff3fe60806040526004361061030d575f3560e01c80635c975abb116101a35780639ab24eb0116100f2578063d539139311610092578063e985e9c51161006d578063e985e9c51461096c578063f60bf54c146109b3578063f72c0d8b146109d2578063f8c8765e14610a05575f80fd5b8063d53913931461090d578063d547741f1461092d578063e63ab1e91461094c575f80fd5b8063b88d4fde116100cd578063b88d4fde14610891578063c3cda520146108b0578063c87b56dd146108cf578063d204c45e146108ee575f80fd5b80639ab24eb014610840578063a217fddf1461085f578063a22cb46514610872575f80fd5b80638456cb591161015d5780638e539e8c116101385780638e539e8c146107c357806391d14854146107e257806391ddadf41461080157806395d89b411461082c575f80fd5b80638456cb591461076957806384b0196e1461077d5780638b87b540146107a4575f80fd5b80635c975abb146106a85780636352211e146106bf57806370a08231146106de5780637210b448146106fd57806379db03731461072b5780637ecebe001461074a575f80fd5b806336568abe1161025f5780634a9f2855116102195780634f6ccce7116101f45780634f6ccce71461061e57806352d1902d1461063d578063587cde1e146106515780635c19a95c14610689575f80fd5b80634a9f2855146105d85780634bf5d7e9146105f75780634f1ef2861461060b575f80fd5b806336568abe146105295780633659cfe6146105485780633a46b1a8146105675780633f4ba83a1461058657806342842e0e1461059a57806342966c68146105b9575f80fd5b80631890545f116102ca5780632f2ff15d116102a55780632f2ff15d146104b85780632f745c59146104d7578063346c8f53146104f65780633644e51514610515575f80fd5b80631890545f1461040957806323b872dd1461046a578063248a9ca314610489575f80fd5b806301ffc9a71461031157806306fdde031461034557806307f4d25c14610366578063081812fc14610393578063095ea7b3146103ca57806318160ddd146103eb575b5f80fd5b34801561031c575f80fd5b5061033061032b3660046143f3565b610a24565b60405190151581526020015b60405180910390f35b348015610350575f80fd5b50610359610a34565b60405161033c919061443c565b348015610371575f80fd5b5061038561038036600461444e565b610ac4565b60405161033c929190614465565b34801561039e575f80fd5b506103b26103ad36600461444e565b610bec565b6040516001600160a01b03909116815260200161033c565b3480156103d5575f80fd5b506103e96103e43660046144ad565b610c11565b005b3480156103f6575f80fd5b506099545b60405190815260200161033c565b348015610414575f80fd5b5061044a61042336600461444e565b6102c26020525f908152604090208054600182015460028301546003909301549192909184565b60408051948552602085019390935291830152606082015260800161033c565b348015610475575f80fd5b506103e96104843660046144d5565b610d2a565b348015610494575f80fd5b506103fb6104a336600461444e565b5f90815261015f602052604090206001015490565b3480156104c3575f80fd5b506103e96104d236600461450f565b610d5c565b3480156104e2575f80fd5b506103fb6104f13660046144ad565b610d81565b348015610501575f80fd5b5061038561051036600461444e565b610e15565b348015610520575f80fd5b506103fb610e30565b348015610534575f80fd5b506103e961054336600461450f565b610e3e565b348015610553575f80fd5b506103e9610562366004614539565b610ebc565b348015610572575f80fd5b506103fb6105813660046144ad565b610f99565b348015610591575f80fd5b506103e9611029565b3480156105a5575f80fd5b506103e96105b43660046144d5565b611048565b3480156105c4575f80fd5b506103e96105d336600461444e565b611062565b3480156105e3575f80fd5b506103e96105f23660046145f5565b611090565b348015610602575f80fd5b5061035961116f565b6103e96106193660046146c2565b611207565b348015610629575f80fd5b506103fb61063836600461444e565b6112d2565b348015610648575f80fd5b506103fb611362565b34801561065c575f80fd5b506103b261066b366004614539565b6001600160a01b039081165f9081526101f760205260409020541690565b348015610694575f80fd5b506103e96106a3366004614539565b611413565b3480156106b3575f80fd5b5060fb5460ff16610330565b3480156106ca575f80fd5b506103b26106d936600461444e565b61141e565b3480156106e9575f80fd5b506103fb6106f8366004614539565b61147d565b348015610708575f80fd5b5061071c61071736600461444e565b611501565b60405161033c9392919061470c565b348015610736575f80fd5b506103e9610745366004614744565b6116b5565b348015610755575f80fd5b506103fb610764366004614539565b61177d565b348015610774575f80fd5b506103e961179b565b348015610788575f80fd5b506107916117ba565b60405161033c97969594939291906147b9565b3480156107af575f80fd5b506103e96107be36600461484f565b611855565b3480156107ce575f80fd5b506103fb6107dd36600461444e565b611915565b3480156107ed575f80fd5b506103306107fc36600461450f565b61198f565b34801561080c575f80fd5b506108156119ba565b60405165ffffffffffff909116815260200161033c565b348015610837575f80fd5b506103596119c4565b34801561084b575f80fd5b506103fb61085a366004614539565b6119d3565b34801561086a575f80fd5b506103fb5f81565b34801561087d575f80fd5b506103e961088c3660046148f4565b6119f4565b34801561089c575f80fd5b506103e96108ab36600461492d565b6119ff565b3480156108bb575f80fd5b506103e96108ca366004614990565b611a37565b3480156108da575f80fd5b506103596108e936600461444e565b611b63565b3480156108f9575f80fd5b506103e96109083660046146c2565b611b6e565b348015610918575f80fd5b506103fb5f8051602061501383398151915281565b348015610938575f80fd5b506103e961094736600461450f565b611bb0565b348015610957575f80fd5b506103fb5f80516020614fcc83398151915281565b348015610977575f80fd5b506103306109863660046149eb565b6001600160a01b039182165f908152606a6020908152604080832093909416825291909152205460ff1690565b3480156109be575f80fd5b506103e96109cd36600461484f565b611bd5565b3480156109dd575f80fd5b506103fb7f189ab7a9244df0848122154315af71fe140f3db0fe014031783b0946b8c9d2e381565b348015610a10575f80fd5b506103e9610a1f366004614a13565b611c85565b5f610a2e82611edb565b92915050565b606060658054610a4390614a64565b80601f0160208091040260200160405190810160405280929190818152602001828054610a6f90614a64565b8015610aba5780601f10610a9157610100808354040283529160200191610aba565b820191905f5260205f20905b815481529060010190602001808311610a9d57829003601f168201915b5050505050905090565b6102c06020525f9081526040902080548190610adf90614a64565b80601f0160208091040260200160405190810160405280929190818152602001828054610b0b90614a64565b8015610b565780601f10610b2d57610100808354040283529160200191610b56565b820191905f5260205f20905b815481529060010190602001808311610b3957829003601f168201915b505050505090806001018054610b6b90614a64565b80601f0160208091040260200160405190810160405280929190818152602001828054610b9790614a64565b8015610be25780601f10610bb957610100808354040283529160200191610be2565b820191905f5260205f20905b815481529060010190602001808311610bc557829003601f168201915b5050505050905082565b5f610bf682611eff565b505f908152606960205260409020546001600160a01b031690565b5f610c1b8261141e565b9050806001600160a01b0316836001600160a01b031603610c8d5760405162461bcd60e51b815260206004820152602160248201527f4552433732313a20617070726f76616c20746f2063757272656e74206f776e656044820152603960f91b60648201526084015b60405180910390fd5b336001600160a01b0382161480610ca95750610ca98133610986565b610d1b5760405162461bcd60e51b815260206004820152603d60248201527f4552433732313a20617070726f76652063616c6c6572206973206e6f7420746f60448201527f6b656e206f776e6572206f7220617070726f76656420666f7220616c6c0000006064820152608401610c84565b610d258383611f5d565b505050565b610d35335b82611fca565b610d515760405162461bcd60e51b8152600401610c8490614a96565b610d25838383612047565b5f82815261015f6020526040902060010154610d77816121be565b610d2583836121c8565b5f610d8b8361147d565b8210610ded5760405162461bcd60e51b815260206004820152602b60248201527f455243373231456e756d657261626c653a206f776e657220696e646578206f7560448201526a74206f6620626f756e647360a81b6064820152608401610c84565b506001600160a01b03919091165f908152609760209081526040808320938352929052205490565b6102c36020525f9081526040902080548190610adf90614a64565b5f610e3961224e565b905090565b6001600160a01b0381163314610eae5760405162461bcd60e51b815260206004820152602f60248201527f416363657373436f6e74726f6c3a2063616e206f6e6c792072656e6f756e636560448201526e103937b632b9903337b91039b2b63360891b6064820152608401610c84565b610eb88282612257565b5050565b6001600160a01b037f0000000000000000000000000000000000000000000000000000000000000000163003610f045760405162461bcd60e51b8152600401610c8490614ae3565b7f00000000000000000000000000000000000000000000000000000000000000006001600160a01b0316610f4c5f80516020614fac833981519152546001600160a01b031690565b6001600160a01b031614610f725760405162461bcd60e51b8152600401610c8490614b2f565b610f7b816122be565b604080515f80825260208201909252610f96918391906122e8565b50565b5f610fa26119ba565b65ffffffffffff168210610fef5760405162461bcd60e51b81526020600482015260146024820152730566f7465733a20667574757265206c6f6f6b75760641b6044820152606401610c84565b611019610ffb83612452565b6001600160a01b0385165f9081526101f860205260409020906124ba565b6001600160e01b03169392505050565b5f80516020614fcc833981519152611040816121be565b610f96612569565b610d2583838360405180602001604052805f8152506119ff565b61106b33610d2f565b6110875760405162461bcd60e51b8152600401610c8490614a96565b610f96816125bb565b5f805160206150138339815191526110a7816121be565b6110b187876125c4565b6110bb8683612762565b6040805160608101825286815260208082018790528183018690525f8981526102c190915291909120815181906110f29082614bbf565b50602082015160018201906111079082614bbf565b506040820151600282019061111c9082614bbf565b50905050866001600160a01b0316867f1cc2b18cccdc9c1648403a742bf360d69488886fe43494020b8592421dd2779b87878760405161115e9392919061470c565b60405180910390a350505050505050565b60604361117a6119ba565b65ffffffffffff16146111cf5760405162461bcd60e51b815260206004820152601860248201527f566f7465733a2062726f6b656e20636c6f636b206d6f646500000000000000006044820152606401610c84565b5060408051808201909152601d81527f6d6f64653d626c6f636b6e756d6265722666726f6d3d64656661756c74000000602082015290565b6001600160a01b037f000000000000000000000000000000000000000000000000000000000000000016300361124f5760405162461bcd60e51b8152600401610c8490614ae3565b7f00000000000000000000000000000000000000000000000000000000000000006001600160a01b03166112975f80516020614fac833981519152546001600160a01b031690565b6001600160a01b0316146112bd5760405162461bcd60e51b8152600401610c8490614b2f565b6112c6826122be565b610eb8828260016122e8565b5f6112dc60995490565b821061133f5760405162461bcd60e51b815260206004820152602c60248201527f455243373231456e756d657261626c653a20676c6f62616c20696e646578206f60448201526b7574206f6620626f756e647360a01b6064820152608401610c84565b6099828154811061135257611352614c79565b905f5260205f2001549050919050565b5f306001600160a01b037f000000000000000000000000000000000000000000000000000000000000000016146114015760405162461bcd60e51b815260206004820152603860248201527f555550535570677261646561626c653a206d757374206e6f742062652063616c60448201527f6c6564207468726f7567682064656c656761746563616c6c00000000000000006064820152608401610c84565b505f80516020614fac83398151915290565b33610eb8818361282b565b5f818152606760205260408120546001600160a01b031680610a2e5760405162461bcd60e51b8152602060048201526018602482015277115490cdcc8c4e881a5b9d985b1a59081d1bdad95b88125160421b6044820152606401610c84565b5f6001600160a01b0382166114e65760405162461bcd60e51b815260206004820152602960248201527f4552433732313a2061646472657373207a65726f206973206e6f7420612076616044820152683634b21037bbb732b960b91b6064820152608401610c84565b506001600160a01b03165f9081526068602052604090205490565b6102c16020525f908152604090208054819061151c90614a64565b80601f016020809104026020016040519081016040528092919081815260200182805461154890614a64565b80156115935780601f1061156a57610100808354040283529160200191611593565b820191905f5260205f20905b81548152906001019060200180831161157657829003601f168201915b5050505050908060010180546115a890614a64565b80601f01602080910402602001604051908101604052809291908181526020018280546115d490614a64565b801561161f5780601f106115f65761010080835404028352916020019161161f565b820191905f5260205f20905b81548152906001019060200180831161160257829003601f168201915b50505050509080600201805461163490614a64565b80601f016020809104026020016040519081016040528092919081815260200182805461166090614a64565b80156116ab5780601f10611682576101008083540402835291602001916116ab565b820191905f5260205f20905b81548152906001019060200180831161168e57829003601f168201915b5050505050905083565b5f805160206150138339815191526116cc816121be565b6116d688886125c4565b6116e08787612762565b604080516080810182528681526020808201878152828401878152606084018781525f8d81526102c290945292859020935184559051600184015551600283015551600390910155516001600160a01b0389169088907ff47c996ed5871087dc9057721735282563f5a94760e8bf808f0f2db6f13b053b9061176b908a908a908a908a908a90614c8d565b60405180910390a35050505050505050565b6001600160a01b0381165f9081526101fa6020526040812054610a2e565b5f80516020614fcc8339815191526117b2816121be565b610f9661289d565b5f6060805f805f60606101c3545f801b1480156117d857506101c454155b61181c5760405162461bcd60e51b81526020600482015260156024820152741152540dcc4c8e88155b9a5b9a5d1a585b1a5e9959605a1b6044820152606401610c84565b6118246128da565b61182c6128ea565b604080515f80825260208201909252600f60f81b9b939a50919850469750309650945092509050565b5f8051602061501383398151915261186c816121be565b61187686866125c4565b6118808583612762565b60408051808201825285815260208082018690525f8881526102c390915291909120815181906118b09082614bbf565b50602082015160018201906118c59082614bbf565b50905050856001600160a01b0316857fff3fdd5f7a47ca00431251c043373f1b90311bd3ca5de8536d89fc351bb8fd408686604051611905929190614465565b60405180910390a3505050505050565b5f61191e6119ba565b65ffffffffffff16821061196b5760405162461bcd60e51b81526020600482015260146024820152730566f7465733a20667574757265206c6f6f6b75760641b6044820152606401610c84565b61198061197783612452565b6101f9906124ba565b6001600160e01b031692915050565b5f91825261015f602090815260408084206001600160a01b0393909316845291905290205460ff1690565b5f610e39436128fa565b606060668054610a4390614a64565b6001600160a01b0381165f9081526101f86020526040812061198090612960565b610eb8338383612999565b611a093383611fca565b611a255760405162461bcd60e51b8152600401610c8490614a96565b611a3184848484612a66565b50505050565b83421115611a875760405162461bcd60e51b815260206004820152601860248201527f566f7465733a207369676e6174757265206578706972656400000000000000006044820152606401610c84565b604080517fe48329057bfd03d55e49b547132e39cffd9c1820ad7b9d4c5307691425d15adf60208201526001600160a01b0388169181019190915260608101869052608081018590525f90611b0090611af89060a00160405160208183030381529060405280519060200120612a99565b858585612ac5565b9050611b0b81612aeb565b8614611b505760405162461bcd60e51b8152602060048201526014602482015273566f7465733a20696e76616c6964206e6f6e636560601b6044820152606401610c84565b611b5a818861282b565b50505050505050565b6060610a2e82612b13565b5f80516020615013833981519152611b85816121be565b6102bf80545f9182611b9683614cd7565b919050559050611ba68482612c15565b611a318184612762565b5f82815261015f6020526040902060010154611bcb816121be565b610d258383612257565b5f80516020615013833981519152611bec816121be565b611bf686866125c4565b611c008583612762565b60408051808201825285815260208082018690525f8881526102c09091529190912081518190611c309082614bbf565b5060208201516001820190611c459082614bbf565b50905050856001600160a01b0316857f5d57226c6d1e088fb08906416512d43a3c52d7be0791198d262f9988818ff44a8686604051611905929190614465565b5f54610100900460ff1615808015611ca357505f54600160ff909116105b80611cbc5750303b158015611cbc57505f5460ff166001145b611d1f5760405162461bcd60e51b815260206004820152602e60248201527f496e697469616c697a61626c653a20636f6e747261637420697320616c72656160448201526d191e481a5b9a5d1a585b1a5e995960921b6064820152608401610c84565b5f805460ff191660011790558015611d40575f805461ff0019166101001790555b611d9d6040518060400160405280602081526020017f43727970746f51756573745468655368617264734f6647656e657369734e46548152506040518060400160405280600681526020016510d45513919560d21b815250612c2e565b611da5612c5e565b611dad612c5e565b611db5612c86565b611dbd612c5e565b611dc5612c5e565b611e1d6040518060400160405280602081526020017f43727970746f51756573745468655368617264734f6647656e657369734e4654815250604051806040016040528060018152602001603160f81b815250612cb4565b611e25612c5e565b611e2d612c5e565b611e375f866121c8565b611e4e5f80516020614fcc833981519152856121c8565b611e655f80516020615013833981519152846121c8565b611e8f7f189ab7a9244df0848122154315af71fe140f3db0fe014031783b0946b8c9d2e3836121c8565b8015611ed4575f805461ff0019169055604051600181527f7f26b83ff96e1f2b6a682f133852f6798a09c465da95921460cefb38474024989060200160405180910390a15b5050505050565b5f6001600160e01b03198216637965db0b60e01b1480610a2e5750610a2e82612ce4565b5f818152606760205260409020546001600160a01b0316610f965760405162461bcd60e51b8152602060048201526018602482015277115490cdcc8c4e881a5b9d985b1a59081d1bdad95b88125160421b6044820152606401610c84565b5f81815260696020526040902080546001600160a01b0319166001600160a01b0384169081179091558190611f918261141e565b6001600160a01b03167f8c5be1e5ebec7d5bd14f71427d1e84f3dd0314c0f7b2291e5b200ac8c7c3b92560405160405180910390a45050565b5f80611fd58361141e565b9050806001600160a01b0316846001600160a01b0316148061201b57506001600160a01b038082165f908152606a602090815260408083209388168352929052205460ff165b8061203f5750836001600160a01b031661203484610bec565b6001600160a01b0316145b949350505050565b826001600160a01b031661205a8261141e565b6001600160a01b0316146120805760405162461bcd60e51b8152600401610c8490614cef565b6001600160a01b0382166120e25760405162461bcd60e51b8152602060048201526024808201527f4552433732313a207472616e7366657220746f20746865207a65726f206164646044820152637265737360e01b6064820152608401610c84565b6120ef8383836001612d08565b826001600160a01b03166121028261141e565b6001600160a01b0316146121285760405162461bcd60e51b8152600401610c8490614cef565b5f81815260696020908152604080832080546001600160a01b03199081169091556001600160a01b038781168086526068855283862080545f1901905590871680865283862080546001019055868652606790945282852080549092168417909155905184937fddf252ad1be2c89b69c2b068fc378daa952ba7f163c4a11628f55a4df523b3ef91a4610d258383836001612d14565b610f968133612d20565b6121d2828261198f565b610eb8575f82815261015f602090815260408083206001600160a01b03851684529091529020805460ff1916600117905561220a3390565b6001600160a01b0316816001600160a01b0316837f2f8788117e7eff1d82e926ec794901d17c78024a50270940304540a733656f0d60405160405180910390a45050565b5f610e39612d79565b612261828261198f565b15610eb8575f82815261015f602090815260408083206001600160a01b0385168085529252808320805460ff1916905551339285917ff6391f5c32d9c69d2a47ea670b442974b53935d1edc7fd64eb21e047a839171b9190a45050565b7f189ab7a9244df0848122154315af71fe140f3db0fe014031783b0946b8c9d2e3610eb8816121be565b7f4910fdfa16fed3260ed0e7147f7cc6da11a60208b5b9406d12a635614ffd91435460ff161561231b57610d2583612dec565b826001600160a01b03166352d1902d6040518163ffffffff1660e01b8152600401602060405180830381865afa925050508015612375575060408051601f3d908101601f1916820190925261237291810190614d34565b60015b6123d85760405162461bcd60e51b815260206004820152602e60248201527f45524331393637557067726164653a206e657720696d706c656d656e7461746960448201526d6f6e206973206e6f74205555505360901b6064820152608401610c84565b5f80516020614fac83398151915281146124465760405162461bcd60e51b815260206004820152602960248201527f45524331393637557067726164653a20756e737570706f727465642070726f786044820152681a58589b195555525160ba1b6064820152608401610c84565b50610d25838383612e87565b5f63ffffffff8211156124b65760405162461bcd60e51b815260206004820152602660248201527f53616665436173743a2076616c756520646f65736e27742066697420696e203360448201526532206269747360d01b6064820152608401610c84565b5090565b81545f9081816005811115612514575f6124d384612eab565b6124dd9085614d4b565b5f8881526020902090915081015463ffffffff908116908716101561250457809150612512565b61250f816001614d5e565b92505b505b5f61252187878585612f8f565b9050801561255c5761254587612538600184614d4b565b5f91825260209091200190565b5464010000000090046001600160e01b031661255e565b5f5b979650505050505050565b612571612fea565b60fb805460ff191690557f5db9ee0a495bf2e6ff9c91a7834c1ba4fdd244a5e8aa4e537bd38aeae4b073aa335b6040516001600160a01b03909116815260200160405180910390a1565b610f9681613033565b6001600160a01b03821661261a5760405162461bcd60e51b815260206004820181905260248201527f4552433732313a206d696e7420746f20746865207a65726f20616464726573736044820152606401610c84565b5f818152606760205260409020546001600160a01b03161561267e5760405162461bcd60e51b815260206004820152601c60248201527f4552433732313a20746f6b656e20616c7265616479206d696e746564000000006044820152606401610c84565b61268b5f83836001612d08565b5f818152606760205260409020546001600160a01b0316156126ef5760405162461bcd60e51b815260206004820152601c60248201527f4552433732313a20746f6b656e20616c7265616479206d696e746564000000006044820152606401610c84565b6001600160a01b0382165f81815260686020908152604080832080546001019055848352606790915280822080546001600160a01b0319168417905551839291907fddf252ad1be2c89b69c2b068fc378daa952ba7f163c4a11628f55a4df523b3ef908290a4610eb85f83836001612d14565b5f828152606760205260409020546001600160a01b03166127dc5760405162461bcd60e51b815260206004820152602e60248201527f45524337323155524953746f726167653a2055524920736574206f66206e6f6e60448201526d32bc34b9ba32b73a103a37b5b2b760911b6064820152608401610c84565b5f82815260c9602052604090206127f38282614bbf565b506040518281527ff8e1a15aba9398e019f0b49df1a4fde98ee17ae345cb5f6b5e2c27f5033e8ce79060200160405180910390a15050565b6001600160a01b038281165f8181526101f7602052604080822080548686166001600160a01b0319821681179092559151919094169392849290917f3134e8a2e6d97e929a7e54011ea5485d7d196dd5f0ba4d4ef95803e8e3fc257f9190a4610d25818361289886613071565b61307b565b6128a56131e6565b60fb805460ff191660011790557f62e78cea01bee320cd4e420270b5ea74000d11b0c9f74754ebdbfc544b05a25861259e3390565b60606101c58054610a4390614a64565b60606101c68054610a4390614a64565b5f65ffffffffffff8211156124b65760405162461bcd60e51b815260206004820152602660248201527f53616665436173743a2076616c756520646f65736e27742066697420696e203460448201526538206269747360d01b6064820152608401610c84565b80545f9080156129905761297983612538600184614d4b565b5464010000000090046001600160e01b0316612992565b5f5b9392505050565b816001600160a01b0316836001600160a01b0316036129fa5760405162461bcd60e51b815260206004820152601960248201527f4552433732313a20617070726f766520746f2063616c6c6572000000000000006044820152606401610c84565b6001600160a01b038381165f818152606a6020908152604080832094871680845294825291829020805460ff191686151590811790915591519182527f17307eab39ab6107e8899845ad3d59bd9653f200f220920489ca2b5937696c31910160405180910390a3505050565b612a71848484612047565b612a7d8484848461322c565b611a315760405162461bcd60e51b8152600401610c8490614d71565b5f610a2e612aa561224e565b8360405161190160f01b8152600281019290925260228201526042902090565b5f805f612ad487878787613326565b91509150612ae1816133e3565b5095945050505050565b6001600160a01b0381165f9081526101fa602052604090208054600181018255905b50919050565b6060612b1e82611eff565b5f82815260c9602052604081208054612b3690614a64565b80601f0160208091040260200160405190810160405280929190818152602001828054612b6290614a64565b8015612bad5780601f10612b8457610100808354040283529160200191612bad565b820191905f5260205f20905b815481529060010190602001808311612b9057829003601f168201915b505050505090505f612bc960408051602081019091525f815290565b905080515f03612bda575092915050565b815115612c0c578082604051602001612bf4929190614dda565b60405160208183030381529060405292505050919050565b61203f8461352c565b610eb8828260405180602001604052805f81525061359b565b5f54610100900460ff16612c545760405162461bcd60e51b8152600401610c8490614dee565b610eb882826135cd565b5f54610100900460ff16612c845760405162461bcd60e51b8152600401610c8490614dee565b565b5f54610100900460ff16612cac5760405162461bcd60e51b8152600401610c8490614dee565b612c8461360c565b5f54610100900460ff16612cda5760405162461bcd60e51b8152600401610c8490614dee565b610eb8828261363e565b5f6001600160e01b03198216632483248360e11b1480610a2e5750610a2e8261368f565b611a31848484846136b3565b611a3184848484613726565b612d2a828261198f565b610eb857612d3781613736565b612d42836020613748565b604051602001612d53929190614e39565b60408051601f198184030181529082905262461bcd60e51b8252610c849160040161443c565b5f7f8b73c3c69bb8fe3d512ecc4cf759cc79239f7b179b0ffacaa9a75d522b39400f612da36138dd565b612dab613936565b60408051602081019490945283019190915260608201524660808201523060a082015260c00160405160208183030381529060405280519060200120905090565b6001600160a01b0381163b612e595760405162461bcd60e51b815260206004820152602d60248201527f455243313936373a206e657720696d706c656d656e746174696f6e206973206e60448201526c1bdd08184818dbdb9d1c9858dd609a1b6064820152608401610c84565b5f80516020614fac83398151915280546001600160a01b0319166001600160a01b0392909216919091179055565b612e9083613967565b5f82511180612e9c5750805b15610d2557611a3183836139a6565b5f815f03612eba57505f919050565b5f6001612ec6846139cb565b901c6001901b90506001818481612edf57612edf614e8e565b048201901c90506001818481612ef757612ef7614e8e565b048201901c90506001818481612f0f57612f0f614e8e565b048201901c90506001818481612f2757612f27614e8e565b048201901c90506001818481612f3f57612f3f614e8e565b048201901c90506001818481612f5757612f57614e8e565b048201901c90506001818481612f6f57612f6f614e8e565b048201901c905061299281828581612f8957612f89614e8e565b04613a5e565b5f5b81831015612fe2575f612fa48484613a73565b5f8781526020902090915063ffffffff86169082015463ffffffff161115612fce57809250612fdc565b612fd9816001614d5e565b93505b50612f91565b509392505050565b60fb5460ff16612c845760405162461bcd60e51b815260206004820152601460248201527314185d5cd8589b194e881b9bdd081c185d5cd95960621b6044820152606401610c84565b61303c81613a8d565b5f81815260c960205260409020805461305490614a64565b159050610f96575f81815260c960205260408120610f9691614398565b5f610a2e8261147d565b816001600160a01b0316836001600160a01b03161415801561309c57505f81115b15610d25576001600160a01b03831615613144576001600160a01b0383165f9081526101f86020526040812081906130df90613b356130da86613b40565b613ba8565b6001600160e01b031691506001600160e01b03169150846001600160a01b03167fdec2bacdd2f05b59de34da9b523dff8be42e5e38e818c82fdb0bae774387a7248383604051613139929190918252602082015260400190565b60405180910390a250505b6001600160a01b03821615610d25576001600160a01b0382165f9081526101f860205260408120819061317d90613bf06130da86613b40565b6001600160e01b031691506001600160e01b03169150836001600160a01b03167fdec2bacdd2f05b59de34da9b523dff8be42e5e38e818c82fdb0bae774387a72483836040516131d7929190918252602082015260400190565b60405180910390a25050505050565b60fb5460ff1615612c845760405162461bcd60e51b815260206004820152601060248201526f14185d5cd8589b194e881c185d5cd95960821b6044820152606401610c84565b5f6001600160a01b0384163b1561331e57604051630a85bd0160e11b81526001600160a01b0385169063150b7a029061326f903390899088908890600401614ea2565b6020604051808303815f875af19250505080156132a9575060408051601f3d908101601f191682019092526132a691810190614ed4565b60015b613304573d8080156132d6576040519150601f19603f3d011682016040523d82523d5f602084013e6132db565b606091505b5080515f036132fc5760405162461bcd60e51b8152600401610c8490614d71565b805181602001fd5b6001600160e01b031916630a85bd0160e11b14905061203f565b50600161203f565b5f807f7fffffffffffffffffffffffffffffff5d576e7357a4501ddfe92f46681b20a083111561335b57505f905060036133da565b604080515f8082526020820180845289905260ff881692820192909252606081018690526080810185905260019060a0016020604051602081039080840390855afa1580156133ac573d5f803e3d5ffd5b5050604051601f1901519150506001600160a01b0381166133d4575f600192509250506133da565b91505f90505b94509492505050565b5f8160048111156133f6576133f6614eef565b036133fe5750565b600181600481111561341257613412614eef565b0361345f5760405162461bcd60e51b815260206004820152601860248201527f45434453413a20696e76616c6964207369676e617475726500000000000000006044820152606401610c84565b600281600481111561347357613473614eef565b036134c05760405162461bcd60e51b815260206004820152601f60248201527f45434453413a20696e76616c6964207369676e6174757265206c656e677468006044820152606401610c84565b60038160048111156134d4576134d4614eef565b03610f965760405162461bcd60e51b815260206004820152602260248201527f45434453413a20696e76616c6964207369676e6174757265202773272076616c604482015261756560f01b6064820152608401610c84565b606061353782611eff565b5f61354c60408051602081019091525f815290565b90505f81511161356a5760405180602001604052805f815250612992565b8061357484613bfb565b604051602001613585929190614dda565b6040516020818303038152906040529392505050565b6135a583836125c4565b6135b15f84848461322c565b610d255760405162461bcd60e51b8152600401610c8490614d71565b5f54610100900460ff166135f35760405162461bcd60e51b8152600401610c8490614dee565b60656135ff8382614bbf565b506066610d258282614bbf565b5f54610100900460ff166136325760405162461bcd60e51b8152600401610c8490614dee565b60fb805460ff19169055565b5f54610100900460ff166136645760405162461bcd60e51b8152600401610c8490614dee565b6101c56136718382614bbf565b506101c661367f8282614bbf565b50505f6101c38190556101c45550565b5f6001600160e01b0319821663780e9d6360e01b1480610a2e5750610a2e82613c8a565b6136bf84848484613cd9565b60fb5460ff1615611a315760405162461bcd60e51b815260206004820152602b60248201527f4552433732315061757361626c653a20746f6b656e207472616e73666572207760448201526a1a1a5b19481c185d5cd95960aa1b6064820152608401610c84565b613731848483613e05565b611a31565b6060610a2e6001600160a01b03831660145b60605f613756836002614f03565b613761906002614d5e565b6001600160401b0381111561377857613778614552565b6040519080825280601f01601f1916602001820160405280156137a2576020820181803683370190505b509050600360fc1b815f815181106137bc576137bc614c79565b60200101906001600160f81b03191690815f1a905350600f60fb1b816001815181106137ea576137ea614c79565b60200101906001600160f81b03191690815f1a9053505f61380c846002614f03565b613817906001614d5e565b90505b600181111561388e576f181899199a1a9b1b9c1cb0b131b232b360811b85600f166010811061384b5761384b614c79565b1a60f81b82828151811061386157613861614c79565b60200101906001600160f81b03191690815f1a90535060049490941c9361388781614f1a565b905061381a565b5083156129925760405162461bcd60e51b815260206004820181905260248201527f537472696e67733a20686578206c656e67746820696e73756666696369656e746044820152606401610c84565b5f806138e76128da565b8051909150156138fe578051602090910120919050565b6101c354801561390e5792915050565b7fc5d2460186f7233c927e7db2dcc703c0e500b653ca82273b7bfad8045d85a4709250505090565b5f806139406128ea565b805190915015613957578051602090910120919050565b6101c454801561390e5792915050565b61397081612dec565b6040516001600160a01b038216907fbc7cd75a20ee27fd9adebab32041f755214dbc6bffa90cc0225b39da2e5c2d3b905f90a250565b60606129928383604051806060016040528060278152602001614fec60279139613e7d565b5f80608083901c156139df57608092831c92015b604083901c156139f157604092831c92015b602083901c15613a0357602092831c92015b601083901c15613a1557601092831c92015b600883901c15613a2757600892831c92015b600483901c15613a3957600492831c92015b600283901c15613a4b57600292831c92015b600183901c15610a2e5760010192915050565b5f818310613a6c5781612992565b5090919050565b5f613a816002848418614f2f565b61299290848416614d5e565b5f613a978261141e565b9050613aa6815f846001612d08565b613aaf8261141e565b5f83815260696020908152604080832080546001600160a01b03199081169091556001600160a01b0385168085526068845282852080545f190190558785526067909352818420805490911690555192935084927fddf252ad1be2c89b69c2b068fc378daa952ba7f163c4a11628f55a4df523b3ef908390a4610eb8815f846001612d14565b5f6129928284614f4e565b5f6001600160e01b038211156124b65760405162461bcd60e51b815260206004820152602760248201527f53616665436173743a2076616c756520646f65736e27742066697420696e20326044820152663234206269747360c81b6064820152608401610c84565b5f80613be3613bc5613bb86119ba565b65ffffffffffff16612452565b613bdb613bd188612960565b868863ffffffff16565b879190613ef1565b915091505b935093915050565b5f6129928284614f6d565b60605f613c0783613efe565b60010190505f816001600160401b03811115613c2557613c25614552565b6040519080825280601f01601f191660200182016040528015613c4f576020820181803683370190505b5090508181016020015b5f19016f181899199a1a9b1b9c1cb0b131b232b360811b600a86061a8153600a8504945084613c5957509392505050565b5f6001600160e01b031982166380ac58cd60e01b1480613cba57506001600160e01b03198216635b5e139f60e01b145b80610a2e57506301ffc9a760e01b6001600160e01b0319831614610a2e565b6001811115613d485760405162461bcd60e51b815260206004820152603560248201527f455243373231456e756d657261626c653a20636f6e7365637574697665207472604482015274185b9cd9995c9cc81b9bdd081cdd5c1c1bdc9d1959605a1b6064820152608401610c84565b816001600160a01b038516613da357613d9e81609980545f838152609a60205260408120829055600182018355919091527f72a152ddfb8e864297c917af52ea6c1c68aead0fee1a62673fcc7e0c94979d000155565b613dc6565b836001600160a01b0316856001600160a01b031614613dc657613dc68582613fd5565b6001600160a01b038416613de257613ddd8161406e565b611ed4565b846001600160a01b0316846001600160a01b031614611ed457611ed48482614115565b6001600160a01b038316613e2857613e256101f9613bf06130da84613b40565b50505b6001600160a01b038216613e4b57613e486101f9613b356130da84613b40565b50505b6001600160a01b038381165f9081526101f76020526040808220548584168352912054610d259291821691168361307b565b60605f80856001600160a01b031685604051613e999190614f8c565b5f60405180830381855af49150503d805f8114613ed1576040519150601f19603f3d011682016040523d82523d5f602084013e613ed6565b606091505b5091509150613ee786838387614157565b9695505050505050565b5f80613be38585856141cf565b5f8072184f03e93ff9f4daa797ed6e38ed64bf6a1f0160401b8310613f3c5772184f03e93ff9f4daa797ed6e38ed64bf6a1f0160401b830492506040015b6d04ee2d6d415b85acef81000000008310613f68576d04ee2d6d415b85acef8100000000830492506020015b662386f26fc100008310613f8657662386f26fc10000830492506010015b6305f5e1008310613f9e576305f5e100830492506008015b6127108310613fb257612710830492506004015b60648310613fc4576064830492506002015b600a8310610a2e5760010192915050565b5f6001613fe18461147d565b613feb9190614d4b565b5f8381526098602052604090205490915080821461403c576001600160a01b0384165f9081526097602090815260408083208584528252808320548484528184208190558352609890915290208190555b505f9182526098602090815260408084208490556001600160a01b039094168352609781528383209183525290812055565b6099545f9061407f90600190614d4b565b5f838152609a6020526040812054609980549394509092849081106140a6576140a6614c79565b905f5260205f200154905080609983815481106140c5576140c5614c79565b5f918252602080832090910192909255828152609a909152604080822084905585825281205560998054806140fc576140fc614f97565b600190038181905f5260205f20015f9055905550505050565b5f61411f8361147d565b6001600160a01b039093165f908152609760209081526040808320868452825280832085905593825260989052919091209190915550565b606083156141c55782515f036141be576001600160a01b0385163b6141be5760405162461bcd60e51b815260206004820152601d60248201527f416464726573733a2063616c6c20746f206e6f6e2d636f6e74726163740000006044820152606401610c84565b508161203f565b61203f838361436e565b82545f9081908015614315575f6141eb87612538600185614d4b565b60408051808201909152905463ffffffff8082168084526401000000009092046001600160e01b03166020840152919250908716101561426d5760405162461bcd60e51b815260206004820152601b60248201527f436865636b706f696e743a2064656372656173696e67206b65797300000000006044820152606401610c84565b805163ffffffff8088169116036142b6578461428e88612538600186614d4b565b80546001600160e01b03929092166401000000000263ffffffff909216919091179055614305565b6040805180820190915263ffffffff80881682526001600160e01b0380881660208085019182528b54600181018d555f8d81529190912094519151909216640100000000029216919091179101555b602001519250839150613be89050565b50506040805180820190915263ffffffff80851682526001600160e01b0380851660208085019182528854600181018a555f8a815291822095519251909316640100000000029190931617920191909155905081613be8565b81511561437e5781518083602001fd5b8060405162461bcd60e51b8152600401610c84919061443c565b5080546143a490614a64565b5f825580601f106143b3575050565b601f0160209004905f5260205f2090810190610f9691905b808211156124b6575f81556001016143cb565b6001600160e01b031981168114610f96575f80fd5b5f60208284031215614403575f80fd5b8135612992816143de565b5f81518084528060208401602086015e5f602082860101526020601f19601f83011685010191505092915050565b602081525f612992602083018461440e565b5f6020828403121561445e575f80fd5b5035919050565b604081525f614477604083018561440e565b8281036020840152614489818561440e565b95945050505050565b80356001600160a01b03811681146144a8575f80fd5b919050565b5f80604083850312156144be575f80fd5b6144c783614492565b946020939093013593505050565b5f805f606084860312156144e7575f80fd5b6144f084614492565b92506144fe60208501614492565b929592945050506040919091013590565b5f8060408385031215614520575f80fd5b8235915061453060208401614492565b90509250929050565b5f60208284031215614549575f80fd5b61299282614492565b634e487b7160e01b5f52604160045260245ffd5b5f82601f830112614575575f80fd5b8135602083015f806001600160401b0384111561459457614594614552565b50604051601f19601f85018116603f011681018181106001600160401b03821117156145c2576145c2614552565b6040528381529050808284018710156145d9575f80fd5b838360208301375f602085830101528094505050505092915050565b5f805f805f8060c0878903121561460a575f80fd5b61461387614492565b95506020870135945060408701356001600160401b03811115614634575f80fd5b61464089828a01614566565b94505060608701356001600160401b0381111561465b575f80fd5b61466789828a01614566565b93505060808701356001600160401b03811115614682575f80fd5b61468e89828a01614566565b92505060a08701356001600160401b038111156146a9575f80fd5b6146b589828a01614566565b9150509295509295509295565b5f80604083850312156146d3575f80fd5b6146dc83614492565b915060208301356001600160401b038111156146f6575f80fd5b61470285828601614566565b9150509250929050565b606081525f61471e606083018661440e565b8281036020840152614730818661440e565b90508281036040840152613ee7818561440e565b5f805f805f805f60e0888a03121561475a575f80fd5b61476388614492565b96506020880135955060408801356001600160401b03811115614784575f80fd5b6147908a828b01614566565b979a96995096976060810135975060808101359660a0820135965060c090910135945092505050565b60ff60f81b8816815260e060208201525f6147d760e083018961440e565b82810360408401526147e9818961440e565b606084018890526001600160a01b038716608085015260a0840186905283810360c0850152845180825260208087019350909101905f5b8181101561483e578351835260209384019390920191600101614820565b50909b9a5050505050505050505050565b5f805f805f60a08688031215614863575f80fd5b61486c86614492565b94506020860135935060408601356001600160401b0381111561488d575f80fd5b61489988828901614566565b93505060608601356001600160401b038111156148b4575f80fd5b6148c088828901614566565b92505060808601356001600160401b038111156148db575f80fd5b6148e788828901614566565b9150509295509295909350565b5f8060408385031215614905575f80fd5b61490e83614492565b915060208301358015158114614922575f80fd5b809150509250929050565b5f805f8060808587031215614940575f80fd5b61494985614492565b935061495760208601614492565b92506040850135915060608501356001600160401b03811115614978575f80fd5b61498487828801614566565b91505092959194509250565b5f805f805f8060c087890312156149a5575f80fd5b6149ae87614492565b95506020870135945060408701359350606087013560ff811681146149d1575f80fd5b9598949750929560808101359460a0909101359350915050565b5f80604083850312156149fc575f80fd5b614a0583614492565b915061453060208401614492565b5f805f8060808587031215614a26575f80fd5b614a2f85614492565b9350614a3d60208601614492565b9250614a4b60408601614492565b9150614a5960608601614492565b905092959194509250565b600181811c90821680614a7857607f821691505b602082108103612b0d57634e487b7160e01b5f52602260045260245ffd5b6020808252602d908201527f4552433732313a2063616c6c6572206973206e6f7420746f6b656e206f776e6560408201526c1c881bdc88185c1c1c9bdd9959609a1b606082015260800190565b6020808252602c908201527f46756e6374696f6e206d7573742062652063616c6c6564207468726f7567682060408201526b19195b1959d85d1958d85b1b60a21b606082015260800190565b6020808252602c908201527f46756e6374696f6e206d7573742062652063616c6c6564207468726f7567682060408201526b6163746976652070726f787960a01b606082015260800190565b601f821115610d2557805f5260205f20601f840160051c81016020851015614ba05750805b601f840160051c820191505b81811015611ed4575f8155600101614bac565b81516001600160401b03811115614bd857614bd8614552565b614bec81614be68454614a64565b84614b7b565b6020601f821160018114614c1e575f8315614c075750848201515b5f19600385901b1c1916600184901b178455611ed4565b5f84815260208120601f198516915b82811015614c4d5787850151825560209485019460019092019101614c2d565b5084821015614c6a57868401515f19600387901b60f8161c191681555b50505050600190811b01905550565b634e487b7160e01b5f52603260045260245ffd5b60a081525f614c9f60a083018861440e565b90508560208301528460408301528360608301528260808301529695505050505050565b634e487b7160e01b5f52601160045260245ffd5b5f60018201614ce857614ce8614cc3565b5060010190565b60208082526025908201527f4552433732313a207472616e736665722066726f6d20696e636f72726563742060408201526437bbb732b960d91b606082015260800190565b5f60208284031215614d44575f80fd5b5051919050565b81810381811115610a2e57610a2e614cc3565b80820180821115610a2e57610a2e614cc3565b60208082526032908201527f4552433732313a207472616e7366657220746f206e6f6e20455243373231526560408201527131b2b4bb32b91034b6b83632b6b2b73a32b960711b606082015260800190565b5f81518060208401855e5f93019283525090919050565b5f61203f614de88386614dc3565b84614dc3565b6020808252602b908201527f496e697469616c697a61626c653a20636f6e7472616374206973206e6f74206960408201526a6e697469616c697a696e6760a81b606082015260800190565b7f416363657373436f6e74726f6c3a206163636f756e742000000000000000000081525f614e6a6017830185614dc3565b7001034b99036b4b9b9b4b733903937b6329607d1b81526144896011820185614dc3565b634e487b7160e01b5f52601260045260245ffd5b6001600160a01b03858116825284166020820152604081018390526080606082018190525f90613ee79083018461440e565b5f60208284031215614ee4575f80fd5b8151612992816143de565b634e487b7160e01b5f52602160045260245ffd5b8082028115828204841417610a2e57610a2e614cc3565b5f81614f2857614f28614cc3565b505f190190565b5f82614f4957634e487b7160e01b5f52601260045260245ffd5b500490565b6001600160e01b038281168282160390811115610a2e57610a2e614cc3565b6001600160e01b038181168382160190811115610a2e57610a2e614cc3565b5f6129928284614dc3565b634e487b7160e01b5f52603160045260245ffdfe360894a13ba1a3210667c828492db98dca3e2076cc3735a920a3ca505d382bbc65d7a28e3265b37a6474929f336521b332c1681b933f6cb9f3376673440d862a416464726573733a206c6f772d6c6576656c2064656c65676174652063616c6c206661696c65649f2df0fed2c77648de5860a4cc508cd0818c85b8b8a1ab4ceeef8d981c8956a6a264697066735822122007298ca8936c3f88ff8ca87488e01cc55f945c51650eb9c2c5ec6885d85b926164736f6c634300081a0033",
			"opcodes": "PUSH1 0xA0 PUSH1 0x40 MSTORE ADDRESS PUSH1 0x80 MSTORE CALLVALUE DUP1 ISZERO PUSH2 0x13 JUMPI PUSH0 DUP1 REVERT JUMPDEST POP PUSH2 0x1C PUSH2 0x21 JUMP JUMPDEST PUSH2 0xDD JUMP JUMPDEST PUSH0 SLOAD PUSH2 0x100 SWAP1 DIV PUSH1 0xFF AND ISZERO PUSH2 0x8C JUMPI PUSH1 0x40 MLOAD PUSH3 0x461BCD PUSH1 0xE5 SHL DUP2 MSTORE PUSH1 0x20 PUSH1 0x4 DUP3 ADD MSTORE PUSH1 0x27 PUSH1 0x24 DUP3 ADD MSTORE PUSH32 0x496E697469616C697A61626C653A20636F6E747261637420697320696E697469 PUSH1 0x44 DUP3 ADD MSTORE PUSH7 0x616C697A696E67 PUSH1 0xC8 SHL PUSH1 0x64 DUP3 ADD MSTORE PUSH1 0x84 ADD PUSH1 0x40 MLOAD DUP1 SWAP2 SUB SWAP1 REVERT JUMPDEST PUSH0 SLOAD PUSH1 0xFF SWAP1 DUP2 AND EQ PUSH2 0xDB JUMPI PUSH0 DUP1 SLOAD PUSH1 0xFF NOT AND PUSH1 0xFF SWAP1 DUP2 OR SWAP1 SWAP2 SSTORE PUSH1 0x40 MLOAD SWAP1 DUP2 MSTORE PUSH32 0x7F26B83FF96E1F2B6A682F133852F6798A09C465DA95921460CEFB3847402498 SWAP1 PUSH1 0x20 ADD PUSH1 0x40 MLOAD DUP1 SWAP2 SUB SWAP1 LOG1 JUMPDEST JUMP JUMPDEST PUSH1 0x80 MLOAD PUSH2 0x5068 PUSH2 0x111 PUSH0 CODECOPY PUSH0 DUP2 DUP2 PUSH2 0xEC6 ADD MSTORE DUP2 DUP2 PUSH2 0xF06 ADD MSTORE DUP2 DUP2 PUSH2 0x1211 ADD MSTORE DUP2 DUP2 PUSH2 0x1251 ADD MSTORE PUSH2 0x136E ADD MSTORE PUSH2 0x5068 PUSH0 RETURN INVALID PUSH1 0x80 PUSH1 0x40 MSTORE PUSH1 0x4 CALLDATASIZE LT PUSH2 0x30D JUMPI PUSH0 CALLDATALOAD PUSH1 0xE0 SHR DUP1 PUSH4 0x5C975ABB GT PUSH2 0x1A3 JUMPI DUP1 PUSH4 0x9AB24EB0 GT PUSH2 0xF2 JUMPI DUP1 PUSH4 0xD5391393 GT PUSH2 0x92 JUMPI DUP1 PUSH4 0xE985E9C5 GT PUSH2 0x6D JUMPI DUP1 PUSH4 0xE985E9C5 EQ PUSH2 0x96C JUMPI DUP1 PUSH4 0xF60BF54C EQ PUSH2 0x9B3 JUMPI DUP1 PUSH4 0xF72C0D8B EQ PUSH2 0x9D2 JUMPI DUP1 PUSH4 0xF8C8765E EQ PUSH2 0xA05 JUMPI PUSH0 DUP1 REVERT JUMPDEST DUP1 PUSH4 0xD5391393 EQ PUSH2 0x90D JUMPI DUP1 PUSH4 0xD547741F EQ PUSH2 0x92D JUMPI DUP1 PUSH4 0xE63AB1E9 EQ PUSH2 0x94C JUMPI PUSH0 DUP1 REVERT JUMPDEST DUP1 PUSH4 0xB88D4FDE GT PUSH2 0xCD JUMPI DUP1 PUSH4 0xB88D4FDE EQ PUSH2 0x891 JUMPI DUP1 PUSH4 0xC3CDA520 EQ PUSH2 0x8B0 JUMPI DUP1 PUSH4 0xC87B56DD EQ PUSH2 0x8CF JUMPI DUP1 PUSH4 0xD204C45E EQ PUSH2 0x8EE JUMPI PUSH0 DUP1 REVERT JUMPDEST DUP1 PUSH4 0x9AB24EB0 EQ PUSH2 0x840 JUMPI DUP1 PUSH4 0xA217FDDF EQ PUSH2 0x85F JUMPI DUP1 PUSH4 0xA22CB465 EQ PUSH2 0x872 JUMPI PUSH0 DUP1 REVERT JUMPDEST DUP1 PUSH4 0x8456CB59 GT PUSH2 0x15D JUMPI DUP1 PUSH4 0x8E539E8C GT PUSH2 0x138 JUMPI DUP1 PUSH4 0x8E539E8C EQ PUSH2 0x7C3 JUMPI DUP1 PUSH4 0x91D14854 EQ PUSH2 0x7E2 JUMPI DUP1 PUSH4 0x91DDADF4 EQ PUSH2 0x801 JUMPI DUP1 PUSH4 0x95D89B41 EQ PUSH2 0x82C JUMPI PUSH0 DUP1 REVERT JUMPDEST DUP1 PUSH4 0x8456CB59 EQ PUSH2 0x769 JUMPI DUP1 PUSH4 0x84B0196E EQ PUSH2 0x77D JUMPI DUP1 PUSH4 0x8B87B540 EQ PUSH2 0x7A4 JUMPI PUSH0 DUP1 REVERT JUMPDEST DUP1 PUSH4 0x5C975ABB EQ PUSH2 0x6A8 JUMPI DUP1 PUSH4 0x6352211E EQ PUSH2 0x6BF JUMPI DUP1 PUSH4 0x70A08231 EQ PUSH2 0x6DE JUMPI DUP1 PUSH4 0x7210B448 EQ PUSH2 0x6FD JUMPI DUP1 PUSH4 0x79DB0373 EQ PUSH2 0x72B JUMPI DUP1 PUSH4 0x7ECEBE00 EQ PUSH2 0x74A JUMPI PUSH0 DUP1 REVERT JUMPDEST DUP1 PUSH4 0x36568ABE GT PUSH2 0x25F JUMPI DUP1 PUSH4 0x4A9F2855 GT PUSH2 0x219 JUMPI DUP1 PUSH4 0x4F6CCCE7 GT PUSH2 0x1F4 JUMPI DUP1 PUSH4 0x4F6CCCE7 EQ PUSH2 0x61E JUMPI DUP1 PUSH4 0x52D1902D EQ PUSH2 0x63D JUMPI DUP1 PUSH4 0x587CDE1E EQ PUSH2 0x651 JUMPI DUP1 PUSH4 0x5C19A95C EQ PUSH2 0x689 JUMPI PUSH0 DUP1 REVERT JUMPDEST DUP1 PUSH4 0x4A9F2855 EQ PUSH2 0x5D8 JUMPI DUP1 PUSH4 0x4BF5D7E9 EQ PUSH2 0x5F7 JUMPI DUP1 PUSH4 0x4F1EF286 EQ PUSH2 0x60B JUMPI PUSH0 DUP1 REVERT JUMPDEST DUP1 PUSH4 0x36568ABE EQ PUSH2 0x529 JUMPI DUP1 PUSH4 0x3659CFE6 EQ PUSH2 0x548 JUMPI DUP1 PUSH4 0x3A46B1A8 EQ PUSH2 0x567 JUMPI DUP1 PUSH4 0x3F4BA83A EQ PUSH2 0x586 JUMPI DUP1 PUSH4 0x42842E0E EQ PUSH2 0x59A JUMPI DUP1 PUSH4 0x42966C68 EQ PUSH2 0x5B9 JUMPI PUSH0 DUP1 REVERT JUMPDEST DUP1 PUSH4 0x1890545F GT PUSH2 0x2CA JUMPI DUP1 PUSH4 0x2F2FF15D GT PUSH2 0x2A5 JUMPI DUP1 PUSH4 0x2F2FF15D EQ PUSH2 0x4B8 JUMPI DUP1 PUSH4 0x2F745C59 EQ PUSH2 0x4D7 JUMPI DUP1 PUSH4 0x346C8F53 EQ PUSH2 0x4F6 JUMPI DUP1 PUSH4 0x3644E515 EQ PUSH2 0x515 JUMPI PUSH0 DUP1 REVERT JUMPDEST DUP1 PUSH4 0x1890545F EQ PUSH2 0x409 JUMPI DUP1 PUSH4 0x23B872DD EQ PUSH2 0x46A JUMPI DUP1 PUSH4 0x248A9CA3 EQ PUSH2 0x489 JUMPI PUSH0 DUP1 REVERT JUMPDEST DUP1 PUSH4 0x1FFC9A7 EQ PUSH2 0x311 JUMPI DUP1 PUSH4 0x6FDDE03 EQ PUSH2 0x345 JUMPI DUP1 PUSH4 0x7F4D25C EQ PUSH2 0x366 JUMPI DUP1 PUSH4 0x81812FC EQ PUSH2 0x393 JUMPI DUP1 PUSH4 0x95EA7B3 EQ PUSH2 0x3CA JUMPI DUP1 PUSH4 0x18160DDD EQ PUSH2 0x3EB JUMPI JUMPDEST PUSH0 DUP1 REVERT JUMPDEST CALLVALUE DUP1 ISZERO PUSH2 0x31C JUMPI PUSH0 DUP1 REVERT JUMPDEST POP PUSH2 0x330 PUSH2 0x32B CALLDATASIZE PUSH1 0x4 PUSH2 0x43F3 JUMP JUMPDEST PUSH2 0xA24 JUMP JUMPDEST PUSH1 0x40 MLOAD SWAP1 ISZERO ISZERO DUP2 MSTORE PUSH1 0x20 ADD JUMPDEST PUSH1 0x40 MLOAD DUP1 SWAP2 SUB SWAP1 RETURN JUMPDEST CALLVALUE DUP1 ISZERO PUSH2 0x350 JUMPI PUSH0 DUP1 REVERT JUMPDEST POP PUSH2 0x359 PUSH2 0xA34 JUMP JUMPDEST PUSH1 0x40 MLOAD PUSH2 0x33C SWAP2 SWAP1 PUSH2 0x443C JUMP JUMPDEST CALLVALUE DUP1 ISZERO PUSH2 0x371 JUMPI PUSH0 DUP1 REVERT JUMPDEST POP PUSH2 0x385 PUSH2 0x380 CALLDATASIZE PUSH1 0x4 PUSH2 0x444E JUMP JUMPDEST PUSH2 0xAC4 JUMP JUMPDEST PUSH1 0x40 MLOAD PUSH2 0x33C SWAP3 SWAP2 SWAP1 PUSH2 0x4465 JUMP JUMPDEST CALLVALUE DUP1 ISZERO PUSH2 0x39E JUMPI PUSH0 DUP1 REVERT JUMPDEST POP PUSH2 0x3B2 PUSH2 0x3AD CALLDATASIZE PUSH1 0x4 PUSH2 0x444E JUMP JUMPDEST PUSH2 0xBEC JUMP JUMPDEST PUSH1 0x40 MLOAD PUSH1 0x1 PUSH1 0x1 PUSH1 0xA0 SHL SUB SWAP1 SWAP2 AND DUP2 MSTORE PUSH1 0x20 ADD PUSH2 0x33C JUMP JUMPDEST CALLVALUE DUP1 ISZERO PUSH2 0x3D5 JUMPI PUSH0 DUP1 REVERT JUMPDEST POP PUSH2 0x3E9 PUSH2 0x3E4 CALLDATASIZE PUSH1 0x4 PUSH2 0x44AD JUMP JUMPDEST PUSH2 0xC11 JUMP JUMPDEST STOP JUMPDEST CALLVALUE DUP1 ISZERO PUSH2 0x3F6 JUMPI PUSH0 DUP1 REVERT JUMPDEST POP PUSH1 0x99 SLOAD JUMPDEST PUSH1 0x40 MLOAD SWAP1 DUP2 MSTORE PUSH1 0x20 ADD PUSH2 0x33C JUMP JUMPDEST CALLVALUE DUP1 ISZERO PUSH2 0x414 JUMPI PUSH0 DUP1 REVERT JUMPDEST POP PUSH2 0x44A PUSH2 0x423 CALLDATASIZE PUSH1 0x4 PUSH2 0x444E JUMP JUMPDEST PUSH2 0x2C2 PUSH1 0x20 MSTORE PUSH0 SWAP1 DUP2 MSTORE PUSH1 0x40 SWAP1 KECCAK256 DUP1 SLOAD PUSH1 0x1 DUP3 ADD SLOAD PUSH1 0x2 DUP4 ADD SLOAD PUSH1 0x3 SWAP1 SWAP4 ADD SLOAD SWAP2 SWAP3 SWAP1 SWAP2 DUP5 JUMP JUMPDEST PUSH1 0x40 DUP1 MLOAD SWAP5 DUP6 MSTORE PUSH1 0x20 DUP6 ADD SWAP4 SWAP1 SWAP4 MSTORE SWAP2 DUP4 ADD MSTORE PUSH1 0x60 DUP3 ADD MSTORE PUSH1 0x80 ADD PUSH2 0x33C JUMP JUMPDEST CALLVALUE DUP1 ISZERO PUSH2 0x475 JUMPI PUSH0 DUP1 REVERT JUMPDEST POP PUSH2 0x3E9 PUSH2 0x484 CALLDATASIZE PUSH1 0x4 PUSH2 0x44D5 JUMP JUMPDEST PUSH2 0xD2A JUMP JUMPDEST CALLVALUE DUP1 ISZERO PUSH2 0x494 JUMPI PUSH0 DUP1 REVERT JUMPDEST POP PUSH2 0x3FB PUSH2 0x4A3 CALLDATASIZE PUSH1 0x4 PUSH2 0x444E JUMP JUMPDEST PUSH0 SWAP1 DUP2 MSTORE PUSH2 0x15F PUSH1 0x20 MSTORE PUSH1 0x40 SWAP1 KECCAK256 PUSH1 0x1 ADD SLOAD SWAP1 JUMP JUMPDEST CALLVALUE DUP1 ISZERO PUSH2 0x4C3 JUMPI PUSH0 DUP1 REVERT JUMPDEST POP PUSH2 0x3E9 PUSH2 0x4D2 CALLDATASIZE PUSH1 0x4 PUSH2 0x450F JUMP JUMPDEST PUSH2 0xD5C JUMP JUMPDEST CALLVALUE DUP1 ISZERO PUSH2 0x4E2 JUMPI PUSH0 DUP1 REVERT JUMPDEST POP PUSH2 0x3FB PUSH2 0x4F1 CALLDATASIZE PUSH1 0x4 PUSH2 0x44AD JUMP JUMPDEST PUSH2 0xD81 JUMP JUMPDEST CALLVALUE DUP1 ISZERO PUSH2 0x501 JUMPI PUSH0 DUP1 REVERT JUMPDEST POP PUSH2 0x385 PUSH2 0x510 CALLDATASIZE PUSH1 0x4 PUSH2 0x444E JUMP JUMPDEST PUSH2 0xE15 JUMP JUMPDEST CALLVALUE DUP1 ISZERO PUSH2 0x520 JUMPI PUSH0 DUP1 REVERT JUMPDEST POP PUSH2 0x3FB PUSH2 0xE30 JUMP JUMPDEST CALLVALUE DUP1 ISZERO PUSH2 0x534 JUMPI PUSH0 DUP1 REVERT JUMPDEST POP PUSH2 0x3E9 PUSH2 0x543 CALLDATASIZE PUSH1 0x4 PUSH2 0x450F JUMP JUMPDEST PUSH2 0xE3E JUMP JUMPDEST CALLVALUE DUP1 ISZERO PUSH2 0x553 JUMPI PUSH0 DUP1 REVERT JUMPDEST POP PUSH2 0x3E9 PUSH2 0x562 CALLDATASIZE PUSH1 0x4 PUSH2 0x4539 JUMP JUMPDEST PUSH2 0xEBC JUMP JUMPDEST CALLVALUE DUP1 ISZERO PUSH2 0x572 JUMPI PUSH0 DUP1 REVERT JUMPDEST POP PUSH2 0x3FB PUSH2 0x581 CALLDATASIZE PUSH1 0x4 PUSH2 0x44AD JUMP JUMPDEST PUSH2 0xF99 JUMP JUMPDEST CALLVALUE DUP1 ISZERO PUSH2 0x591 JUMPI PUSH0 DUP1 REVERT JUMPDEST POP PUSH2 0x3E9 PUSH2 0x1029 JUMP JUMPDEST CALLVALUE DUP1 ISZERO PUSH2 0x5A5 JUMPI PUSH0 DUP1 REVERT JUMPDEST POP PUSH2 0x3E9 PUSH2 0x5B4 CALLDATASIZE PUSH1 0x4 PUSH2 0x44D5 JUMP JUMPDEST PUSH2 0x1048 JUMP JUMPDEST CALLVALUE DUP1 ISZERO PUSH2 0x5C4 JUMPI PUSH0 DUP1 REVERT JUMPDEST POP PUSH2 0x3E9 PUSH2 0x5D3 CALLDATASIZE PUSH1 0x4 PUSH2 0x444E JUMP JUMPDEST PUSH2 0x1062 JUMP JUMPDEST CALLVALUE DUP1 ISZERO PUSH2 0x5E3 JUMPI PUSH0 DUP1 REVERT JUMPDEST POP PUSH2 0x3E9 PUSH2 0x5F2 CALLDATASIZE PUSH1 0x4 PUSH2 0x45F5 JUMP JUMPDEST PUSH2 0x1090 JUMP JUMPDEST CALLVALUE DUP1 ISZERO PUSH2 0x602 JUMPI PUSH0 DUP1 REVERT JUMPDEST POP PUSH2 0x359 PUSH2 0x116F JUMP JUMPDEST PUSH2 0x3E9 PUSH2 0x619 CALLDATASIZE PUSH1 0x4 PUSH2 0x46C2 JUMP JUMPDEST PUSH2 0x1207 JUMP JUMPDEST CALLVALUE DUP1 ISZERO PUSH2 0x629 JUMPI PUSH0 DUP1 REVERT JUMPDEST POP PUSH2 0x3FB PUSH2 0x638 CALLDATASIZE PUSH1 0x4 PUSH2 0x444E JUMP JUMPDEST PUSH2 0x12D2 JUMP JUMPDEST CALLVALUE DUP1 ISZERO PUSH2 0x648 JUMPI PUSH0 DUP1 REVERT JUMPDEST POP PUSH2 0x3FB PUSH2 0x1362 JUMP JUMPDEST CALLVALUE DUP1 ISZERO PUSH2 0x65C JUMPI PUSH0 DUP1 REVERT JUMPDEST POP PUSH2 0x3B2 PUSH2 0x66B CALLDATASIZE PUSH1 0x4 PUSH2 0x4539 JUMP JUMPDEST PUSH1 0x1 PUSH1 0x1 PUSH1 0xA0 SHL SUB SWAP1 DUP2 AND PUSH0 SWAP1 DUP2 MSTORE PUSH2 0x1F7 PUSH1 0x20 MSTORE PUSH1 0x40 SWAP1 KECCAK256 SLOAD AND SWAP1 JUMP JUMPDEST CALLVALUE DUP1 ISZERO PUSH2 0x694 JUMPI PUSH0 DUP1 REVERT JUMPDEST POP PUSH2 0x3E9 PUSH2 0x6A3 CALLDATASIZE PUSH1 0x4 PUSH2 0x4539 JUMP JUMPDEST PUSH2 0x1413 JUMP JUMPDEST CALLVALUE DUP1 ISZERO PUSH2 0x6B3 JUMPI PUSH0 DUP1 REVERT JUMPDEST POP PUSH1 0xFB SLOAD PUSH1 0xFF AND PUSH2 0x330 JUMP JUMPDEST CALLVALUE DUP1 ISZERO PUSH2 0x6CA JUMPI PUSH0 DUP1 REVERT JUMPDEST POP PUSH2 0x3B2 PUSH2 0x6D9 CALLDATASIZE PUSH1 0x4 PUSH2 0x444E JUMP JUMPDEST PUSH2 0x141E JUMP JUMPDEST CALLVALUE DUP1 ISZERO PUSH2 0x6E9 JUMPI PUSH0 DUP1 REVERT JUMPDEST POP PUSH2 0x3FB PUSH2 0x6F8 CALLDATASIZE PUSH1 0x4 PUSH2 0x4539 JUMP JUMPDEST PUSH2 0x147D JUMP JUMPDEST CALLVALUE DUP1 ISZERO PUSH2 0x708 JUMPI PUSH0 DUP1 REVERT JUMPDEST POP PUSH2 0x71C PUSH2 0x717 CALLDATASIZE PUSH1 0x4 PUSH2 0x444E JUMP JUMPDEST PUSH2 0x1501 JUMP JUMPDEST PUSH1 0x40 MLOAD PUSH2 0x33C SWAP4 SWAP3 SWAP2 SWAP1 PUSH2 0x470C JUMP JUMPDEST CALLVALUE DUP1 ISZERO PUSH2 0x736 JUMPI PUSH0 DUP1 REVERT JUMPDEST POP PUSH2 0x3E9 PUSH2 0x745 CALLDATASIZE PUSH1 0x4 PUSH2 0x4744 JUMP JUMPDEST PUSH2 0x16B5 JUMP JUMPDEST CALLVALUE DUP1 ISZERO PUSH2 0x755 JUMPI PUSH0 DUP1 REVERT JUMPDEST POP PUSH2 0x3FB PUSH2 0x764 CALLDATASIZE PUSH1 0x4 PUSH2 0x4539 JUMP JUMPDEST PUSH2 0x177D JUMP JUMPDEST CALLVALUE DUP1 ISZERO PUSH2 0x774 JUMPI PUSH0 DUP1 REVERT JUMPDEST POP PUSH2 0x3E9 PUSH2 0x179B JUMP JUMPDEST CALLVALUE DUP1 ISZERO PUSH2 0x788 JUMPI PUSH0 DUP1 REVERT JUMPDEST POP PUSH2 0x791 PUSH2 0x17BA JUMP JUMPDEST PUSH1 0x40 MLOAD PUSH2 0x33C SWAP8 SWAP7 SWAP6 SWAP5 SWAP4 SWAP3 SWAP2 SWAP1 PUSH2 0x47B9 JUMP JUMPDEST CALLVALUE DUP1 ISZERO PUSH2 0x7AF JUMPI PUSH0 DUP1 REVERT JUMPDEST POP PUSH2 0x3E9 PUSH2 0x7BE CALLDATASIZE PUSH1 0x4 PUSH2 0x484F JUMP JUMPDEST PUSH2 0x1855 JUMP JUMPDEST CALLVALUE DUP1 ISZERO PUSH2 0x7CE JUMPI PUSH0 DUP1 REVERT JUMPDEST POP PUSH2 0x3FB PUSH2 0x7DD CALLDATASIZE PUSH1 0x4 PUSH2 0x444E JUMP JUMPDEST PUSH2 0x1915 JUMP JUMPDEST CALLVALUE DUP1 ISZERO PUSH2 0x7ED JUMPI PUSH0 DUP1 REVERT JUMPDEST POP PUSH2 0x330 PUSH2 0x7FC CALLDATASIZE PUSH1 0x4 PUSH2 0x450F JUMP JUMPDEST PUSH2 0x198F JUMP JUMPDEST CALLVALUE DUP1 ISZERO PUSH2 0x80C JUMPI PUSH0 DUP1 REVERT JUMPDEST POP PUSH2 0x815 PUSH2 0x19BA JUMP JUMPDEST PUSH1 0x40 MLOAD PUSH6 0xFFFFFFFFFFFF SWAP1 SWAP2 AND DUP2 MSTORE PUSH1 0x20 ADD PUSH2 0x33C JUMP JUMPDEST CALLVALUE DUP1 ISZERO PUSH2 0x837 JUMPI PUSH0 DUP1 REVERT JUMPDEST POP PUSH2 0x359 PUSH2 0x19C4 JUMP JUMPDEST CALLVALUE DUP1 ISZERO PUSH2 0x84B JUMPI PUSH0 DUP1 REVERT JUMPDEST POP PUSH2 0x3FB PUSH2 0x85A CALLDATASIZE PUSH1 0x4 PUSH2 0x4539 JUMP JUMPDEST PUSH2 0x19D3 JUMP JUMPDEST CALLVALUE DUP1 ISZERO PUSH2 0x86A JUMPI PUSH0 DUP1 REVERT JUMPDEST POP PUSH2 0x3FB PUSH0 DUP2 JUMP JUMPDEST CALLVALUE DUP1 ISZERO PUSH2 0x87D JUMPI PUSH0 DUP1 REVERT JUMPDEST POP PUSH2 0x3E9 PUSH2 0x88C CALLDATASIZE PUSH1 0x4 PUSH2 0x48F4 JUMP JUMPDEST PUSH2 0x19F4 JUMP JUMPDEST CALLVALUE DUP1 ISZERO PUSH2 0x89C JUMPI PUSH0 DUP1 REVERT JUMPDEST POP PUSH2 0x3E9 PUSH2 0x8AB CALLDATASIZE PUSH1 0x4 PUSH2 0x492D JUMP JUMPDEST PUSH2 0x19FF JUMP JUMPDEST CALLVALUE DUP1 ISZERO PUSH2 0x8BB JUMPI PUSH0 DUP1 REVERT JUMPDEST POP PUSH2 0x3E9 PUSH2 0x8CA CALLDATASIZE PUSH1 0x4 PUSH2 0x4990 JUMP JUMPDEST PUSH2 0x1A37 JUMP JUMPDEST CALLVALUE DUP1 ISZERO PUSH2 0x8DA JUMPI PUSH0 DUP1 REVERT JUMPDEST POP PUSH2 0x359 PUSH2 0x8E9 CALLDATASIZE PUSH1 0x4 PUSH2 0x444E JUMP JUMPDEST PUSH2 0x1B63 JUMP JUMPDEST CALLVALUE DUP1 ISZERO PUSH2 0x8F9 JUMPI PUSH0 DUP1 REVERT JUMPDEST POP PUSH2 0x3E9 PUSH2 0x908 CALLDATASIZE PUSH1 0x4 PUSH2 0x46C2 JUMP JUMPDEST PUSH2 0x1B6E JUMP JUMPDEST CALLVALUE DUP1 ISZERO PUSH2 0x918 JUMPI PUSH0 DUP1 REVERT JUMPDEST POP PUSH2 0x3FB PUSH0 DUP1 MLOAD PUSH1 0x20 PUSH2 0x5013 DUP4 CODECOPY DUP2 MLOAD SWAP2 MSTORE DUP2 JUMP JUMPDEST CALLVALUE DUP1 ISZERO PUSH2 0x938 JUMPI PUSH0 DUP1 REVERT JUMPDEST POP PUSH2 0x3E9 PUSH2 0x947 CALLDATASIZE PUSH1 0x4 PUSH2 0x450F JUMP JUMPDEST PUSH2 0x1BB0 JUMP JUMPDEST CALLVALUE DUP1 ISZERO PUSH2 0x957 JUMPI PUSH0 DUP1 REVERT JUMPDEST POP PUSH2 0x3FB PUSH0 DUP1 MLOAD PUSH1 0x20 PUSH2 0x4FCC DUP4 CODECOPY DUP2 MLOAD SWAP2 MSTORE DUP2 JUMP JUMPDEST CALLVALUE DUP1 ISZERO PUSH2 0x977 JUMPI PUSH0 DUP1 REVERT JUMPDEST POP PUSH2 0x330 PUSH2 0x986 CALLDATASIZE PUSH1 0x4 PUSH2 0x49EB JUMP JUMPDEST PUSH1 0x1 PUSH1 0x1 PUSH1 0xA0 SHL SUB SWAP2 DUP3 AND PUSH0 SWAP1 DUP2 MSTORE PUSH1 0x6A PUSH1 0x20 SWAP1 DUP2 MSTORE PUSH1 0x40 DUP1 DUP4 KECCAK256 SWAP4 SWAP1 SWAP5 AND DUP3 MSTORE SWAP2 SWAP1 SWAP2 MSTORE KECCAK256 SLOAD PUSH1 0xFF AND SWAP1 JUMP JUMPDEST CALLVALUE DUP1 ISZERO PUSH2 0x9BE JUMPI PUSH0 DUP1 REVERT JUMPDEST POP PUSH2 0x3E9 PUSH2 0x9CD CALLDATASIZE PUSH1 0x4 PUSH2 0x484F JUMP JUMPDEST PUSH2 0x1BD5 JUMP JUMPDEST CALLVALUE DUP1 ISZERO PUSH2 0x9DD JUMPI PUSH0 DUP1 REVERT JUMPDEST POP PUSH2 0x3FB PUSH32 0x189AB7A9244DF0848122154315AF71FE140F3DB0FE014031783B0946B8C9D2E3 DUP2 JUMP JUMPDEST CALLVALUE DUP1 ISZERO PUSH2 0xA10 JUMPI PUSH0 DUP1 REVERT JUMPDEST POP PUSH2 0x3E9 PUSH2 0xA1F CALLDATASIZE PUSH1 0x4 PUSH2 0x4A13 JUMP JUMPDEST PUSH2 0x1C85 JUMP JUMPDEST PUSH0 PUSH2 0xA2E DUP3 PUSH2 0x1EDB JUMP JUMPDEST SWAP3 SWAP2 POP POP JUMP JUMPDEST PUSH1 0x60 PUSH1 0x65 DUP1 SLOAD PUSH2 0xA43 SWAP1 PUSH2 0x4A64 JUMP JUMPDEST DUP1 PUSH1 0x1F ADD PUSH1 0x20 DUP1 SWAP2 DIV MUL PUSH1 0x20 ADD PUSH1 0x40 MLOAD SWAP1 DUP2 ADD PUSH1 0x40 MSTORE DUP1 SWAP3 SWAP2 SWAP1 DUP2 DUP2 MSTORE PUSH1 0x20 ADD DUP3 DUP1 SLOAD PUSH2 0xA6F SWAP1 PUSH2 0x4A64 JUMP JUMPDEST DUP1 ISZERO PUSH2 0xABA JUMPI DUP1 PUSH1 0x1F LT PUSH2 0xA91 JUMPI PUSH2 0x100 DUP1 DUP4 SLOAD DIV MUL DUP4 MSTORE SWAP2 PUSH1 0x20 ADD SWAP2 PUSH2 0xABA JUMP JUMPDEST DUP3 ADD SWAP2 SWAP1 PUSH0 MSTORE PUSH1 0x20 PUSH0 KECCAK256 SWAP1 JUMPDEST DUP2 SLOAD DUP2 MSTORE SWAP1 PUSH1 0x1 ADD SWAP1 PUSH1 0x20 ADD DUP1 DUP4 GT PUSH2 0xA9D JUMPI DUP3 SWAP1 SUB PUSH1 0x1F AND DUP3 ADD SWAP2 JUMPDEST POP POP POP POP POP SWAP1 POP SWAP1 JUMP JUMPDEST PUSH2 0x2C0 PUSH1 0x20 MSTORE PUSH0 SWAP1 DUP2 MSTORE PUSH1 0x40 SWAP1 KECCAK256 DUP1 SLOAD DUP2 SWAP1 PUSH2 0xADF SWAP1 PUSH2 0x4A64 JUMP JUMPDEST DUP1 PUSH1 0x1F ADD PUSH1 0x20 DUP1 SWAP2 DIV MUL PUSH1 0x20 ADD PUSH1 0x40 MLOAD SWAP1 DUP2 ADD PUSH1 0x40 MSTORE DUP1 SWAP3 SWAP2 SWAP1 DUP2 DUP2 MSTORE PUSH1 0x20 ADD DUP3 DUP1 SLOAD PUSH2 0xB0B SWAP1 PUSH2 0x4A64 JUMP JUMPDEST DUP1 ISZERO PUSH2 0xB56 JUMPI DUP1 PUSH1 0x1F LT PUSH2 0xB2D JUMPI PUSH2 0x100 DUP1 DUP4 SLOAD DIV MUL DUP4 MSTORE SWAP2 PUSH1 0x20 ADD SWAP2 PUSH2 0xB56 JUMP JUMPDEST DUP3 ADD SWAP2 SWAP1 PUSH0 MSTORE PUSH1 0x20 PUSH0 KECCAK256 SWAP1 JUMPDEST DUP2 SLOAD DUP2 MSTORE SWAP1 PUSH1 0x1 ADD SWAP1 PUSH1 0x20 ADD DUP1 DUP4 GT PUSH2 0xB39 JUMPI DUP3 SWAP1 SUB PUSH1 0x1F AND DUP3 ADD SWAP2 JUMPDEST POP POP POP POP POP SWAP1 DUP1 PUSH1 0x1 ADD DUP1 SLOAD PUSH2 0xB6B SWAP1 PUSH2 0x4A64 JUMP JUMPDEST DUP1 PUSH1 0x1F ADD PUSH1 0x20 DUP1 SWAP2 DIV MUL PUSH1 0x20 ADD PUSH1 0x40 MLOAD SWAP1 DUP2 ADD PUSH1 0x40 MSTORE DUP1 SWAP3 SWAP2 SWAP1 DUP2 DUP2 MSTORE PUSH1 0x20 ADD DUP3 DUP1 SLOAD PUSH2 0xB97 SWAP1 PUSH2 0x4A64 JUMP JUMPDEST DUP1 ISZERO PUSH2 0xBE2 JUMPI DUP1 PUSH1 0x1F LT PUSH2 0xBB9 JUMPI PUSH2 0x100 DUP1 DUP4 SLOAD DIV MUL DUP4 MSTORE SWAP2 PUSH1 0x20 ADD SWAP2 PUSH2 0xBE2 JUMP JUMPDEST DUP3 ADD SWAP2 SWAP1 PUSH0 MSTORE PUSH1 0x20 PUSH0 KECCAK256 SWAP1 JUMPDEST DUP2 SLOAD DUP2 MSTORE SWAP1 PUSH1 0x1 ADD SWAP1 PUSH1 0x20 ADD DUP1 DUP4 GT PUSH2 0xBC5 JUMPI DUP3 SWAP1 SUB PUSH1 0x1F AND DUP3 ADD SWAP2 JUMPDEST POP POP POP POP POP SWAP1 POP DUP3 JUMP JUMPDEST PUSH0 PUSH2 0xBF6 DUP3 PUSH2 0x1EFF JUMP JUMPDEST POP PUSH0 SWAP1 DUP2 MSTORE PUSH1 0x69 PUSH1 0x20 MSTORE PUSH1 0x40 SWAP1 KECCAK256 SLOAD PUSH1 0x1 PUSH1 0x1 PUSH1 0xA0 SHL SUB AND SWAP1 JUMP JUMPDEST PUSH0 PUSH2 0xC1B DUP3 PUSH2 0x141E JUMP JUMPDEST SWAP1 POP DUP1 PUSH1 0x1 PUSH1 0x1 PUSH1 0xA0 SHL SUB AND DUP4 PUSH1 0x1 PUSH1 0x1 PUSH1 0xA0 SHL SUB AND SUB PUSH2 0xC8D JUMPI PUSH1 0x40 MLOAD PUSH3 0x461BCD PUSH1 0xE5 SHL DUP2 MSTORE PUSH1 0x20 PUSH1 0x4 DUP3 ADD MSTORE PUSH1 0x21 PUSH1 0x24 DUP3 ADD MSTORE PUSH32 0x4552433732313A20617070726F76616C20746F2063757272656E74206F776E65 PUSH1 0x44 DUP3 ADD MSTORE PUSH1 0x39 PUSH1 0xF9 SHL PUSH1 0x64 DUP3 ADD MSTORE PUSH1 0x84 ADD JUMPDEST PUSH1 0x40 MLOAD DUP1 SWAP2 SUB SWAP1 REVERT JUMPDEST CALLER PUSH1 0x1 PUSH1 0x1 PUSH1 0xA0 SHL SUB DUP3 AND EQ DUP1 PUSH2 0xCA9 JUMPI POP PUSH2 0xCA9 DUP2 CALLER PUSH2 0x986 JUMP JUMPDEST PUSH2 0xD1B JUMPI PUSH1 0x40 MLOAD PUSH3 0x461BCD PUSH1 0xE5 SHL DUP2 MSTORE PUSH1 0x20 PUSH1 0x4 DUP3 ADD MSTORE PUSH1 0x3D PUSH1 0x24 DUP3 ADD MSTORE PUSH32 0x4552433732313A20617070726F76652063616C6C6572206973206E6F7420746F PUSH1 0x44 DUP3 ADD MSTORE PUSH32 0x6B656E206F776E6572206F7220617070726F76656420666F7220616C6C000000 PUSH1 0x64 DUP3 ADD MSTORE PUSH1 0x84 ADD PUSH2 0xC84 JUMP JUMPDEST PUSH2 0xD25 DUP4 DUP4 PUSH2 0x1F5D JUMP JUMPDEST POP POP POP JUMP JUMPDEST PUSH2 0xD35 CALLER JUMPDEST DUP3 PUSH2 0x1FCA JUMP JUMPDEST PUSH2 0xD51 JUMPI PUSH1 0x40 MLOAD PUSH3 0x461BCD PUSH1 0xE5 SHL DUP2 MSTORE PUSH1 0x4 ADD PUSH2 0xC84 SWAP1 PUSH2 0x4A96 JUMP JUMPDEST PUSH2 0xD25 DUP4 DUP4 DUP4 PUSH2 0x2047 JUMP JUMPDEST PUSH0 DUP3 DUP2 MSTORE PUSH2 0x15F PUSH1 0x20 MSTORE PUSH1 0x40 SWAP1 KECCAK256 PUSH1 0x1 ADD SLOAD PUSH2 0xD77 DUP2 PUSH2 0x21BE JUMP JUMPDEST PUSH2 0xD25 DUP4 DUP4 PUSH2 0x21C8 JUMP JUMPDEST PUSH0 PUSH2 0xD8B DUP4 PUSH2 0x147D JUMP JUMPDEST DUP3 LT PUSH2 0xDED JUMPI PUSH1 0x40 MLOAD PUSH3 0x461BCD PUSH1 0xE5 SHL DUP2 MSTORE PUSH1 0x20 PUSH1 0x4 DUP3 ADD MSTORE PUSH1 0x2B PUSH1 0x24 DUP3 ADD MSTORE PUSH32 0x455243373231456E756D657261626C653A206F776E657220696E646578206F75 PUSH1 0x44 DUP3 ADD MSTORE PUSH11 0x74206F6620626F756E6473 PUSH1 0xA8 SHL PUSH1 0x64 DUP3 ADD MSTORE PUSH1 0x84 ADD PUSH2 0xC84 JUMP JUMPDEST POP PUSH1 0x1 PUSH1 0x1 PUSH1 0xA0 SHL SUB SWAP2 SWAP1 SWAP2 AND PUSH0 SWAP1 DUP2 MSTORE PUSH1 0x97 PUSH1 0x20 SWAP1 DUP2 MSTORE PUSH1 0x40 DUP1 DUP4 KECCAK256 SWAP4 DUP4 MSTORE SWAP3 SWAP1 MSTORE KECCAK256 SLOAD SWAP1 JUMP JUMPDEST PUSH2 0x2C3 PUSH1 0x20 MSTORE PUSH0 SWAP1 DUP2 MSTORE PUSH1 0x40 SWAP1 KECCAK256 DUP1 SLOAD DUP2 SWAP1 PUSH2 0xADF SWAP1 PUSH2 0x4A64 JUMP JUMPDEST PUSH0 PUSH2 0xE39 PUSH2 0x224E JUMP JUMPDEST SWAP1 POP SWAP1 JUMP JUMPDEST PUSH1 0x1 PUSH1 0x1 PUSH1 0xA0 SHL SUB DUP2 AND CALLER EQ PUSH2 0xEAE JUMPI PUSH1 0x40 MLOAD PUSH3 0x461BCD PUSH1 0xE5 SHL DUP2 MSTORE PUSH1 0x20 PUSH1 0x4 DUP3 ADD MSTORE PUSH1 0x2F PUSH1 0x24 DUP3 ADD MSTORE PUSH32 0x416363657373436F6E74726F6C3A2063616E206F6E6C792072656E6F756E6365 PUSH1 0x44 DUP3 ADD MSTORE PUSH15 0x103937B632B9903337B91039B2B633 PUSH1 0x89 SHL PUSH1 0x64 DUP3 ADD MSTORE PUSH1 0x84 ADD PUSH2 0xC84 JUMP JUMPDEST PUSH2 0xEB8 DUP3 DUP3 PUSH2 0x2257 JUMP JUMPDEST POP POP JUMP JUMPDEST PUSH1 0x1 PUSH1 0x1 PUSH1 0xA0 SHL SUB PUSH32 0x0 AND ADDRESS SUB PUSH2 0xF04 JUMPI PUSH1 0x40 MLOAD PUSH3 0x461BCD PUSH1 0xE5 SHL DUP2 MSTORE PUSH1 0x4 ADD PUSH2 0xC84 SWAP1 PUSH2 0x4AE3 JUMP JUMPDEST PUSH32 0x0 PUSH1 0x1 PUSH1 0x1 PUSH1 0xA0 SHL SUB AND PUSH2 0xF4C PUSH0 DUP1 MLOAD PUSH1 0x20 PUSH2 0x4FAC DUP4 CODECOPY DUP2 MLOAD SWAP2 MSTORE SLOAD PUSH1 0x1 PUSH1 0x1 PUSH1 0xA0 SHL SUB AND SWAP1 JUMP JUMPDEST PUSH1 0x1 PUSH1 0x1 PUSH1 0xA0 SHL SUB AND EQ PUSH2 0xF72 JUMPI PUSH1 0x40 MLOAD PUSH3 0x461BCD PUSH1 0xE5 SHL DUP2 MSTORE PUSH1 0x4 ADD PUSH2 0xC84 SWAP1 PUSH2 0x4B2F JUMP JUMPDEST PUSH2 0xF7B DUP2 PUSH2 0x22BE JUMP JUMPDEST PUSH1 0x40 DUP1 MLOAD PUSH0 DUP1 DUP3 MSTORE PUSH1 0x20 DUP3 ADD SWAP1 SWAP3 MSTORE PUSH2 0xF96 SWAP2 DUP4 SWAP2 SWAP1 PUSH2 0x22E8 JUMP JUMPDEST POP JUMP JUMPDEST PUSH0 PUSH2 0xFA2 PUSH2 0x19BA JUMP JUMPDEST PUSH6 0xFFFFFFFFFFFF AND DUP3 LT PUSH2 0xFEF JUMPI PUSH1 0x40 MLOAD PUSH3 0x461BCD PUSH1 0xE5 SHL DUP2 MSTORE PUSH1 0x20 PUSH1 0x4 DUP3 ADD MSTORE PUSH1 0x14 PUSH1 0x24 DUP3 ADD MSTORE PUSH20 0x566F7465733A20667574757265206C6F6F6B757 PUSH1 0x64 SHL PUSH1 0x44 DUP3 ADD MSTORE PUSH1 0x64 ADD PUSH2 0xC84 JUMP JUMPDEST PUSH2 0x1019 PUSH2 0xFFB DUP4 PUSH2 0x2452 JUMP JUMPDEST PUSH1 0x1 PUSH1 0x1 PUSH1 0xA0 SHL SUB DUP6 AND PUSH0 SWAP1 DUP2 MSTORE PUSH2 0x1F8 PUSH1 0x20 MSTORE PUSH1 0x40 SWAP1 KECCAK256 SWAP1 PUSH2 0x24BA JUMP JUMPDEST PUSH1 0x1 PUSH1 0x1 PUSH1 0xE0 SHL SUB AND SWAP4 SWAP3 POP POP POP JUMP JUMPDEST PUSH0 DUP1 MLOAD PUSH1 0x20 PUSH2 0x4FCC DUP4 CODECOPY DUP2 MLOAD SWAP2 MSTORE PUSH2 0x1040 DUP2 PUSH2 0x21BE JUMP JUMPDEST PUSH2 0xF96 PUSH2 0x2569 JUMP JUMPDEST PUSH2 0xD25 DUP4 DUP4 DUP4 PUSH1 0x40 MLOAD DUP1 PUSH1 0x20 ADD PUSH1 0x40 MSTORE DUP1 PUSH0 DUP2 MSTORE POP PUSH2 0x19FF JUMP JUMPDEST PUSH2 0x106B CALLER PUSH2 0xD2F JUMP JUMPDEST PUSH2 0x1087 JUMPI PUSH1 0x40 MLOAD PUSH3 0x461BCD PUSH1 0xE5 SHL DUP2 MSTORE PUSH1 0x4 ADD PUSH2 0xC84 SWAP1 PUSH2 0x4A96 JUMP JUMPDEST PUSH2 0xF96 DUP2 PUSH2 0x25BB JUMP JUMPDEST PUSH0 DUP1 MLOAD PUSH1 0x20 PUSH2 0x5013 DUP4 CODECOPY DUP2 MLOAD SWAP2 MSTORE PUSH2 0x10A7 DUP2 PUSH2 0x21BE JUMP JUMPDEST PUSH2 0x10B1 DUP8 DUP8 PUSH2 0x25C4 JUMP JUMPDEST PUSH2 0x10BB DUP7 DUP4 PUSH2 0x2762 JUMP JUMPDEST PUSH1 0x40 DUP1 MLOAD PUSH1 0x60 DUP2 ADD DUP3 MSTORE DUP7 DUP2 MSTORE PUSH1 0x20 DUP1 DUP3 ADD DUP8 SWAP1 MSTORE DUP2 DUP4 ADD DUP7 SWAP1 MSTORE PUSH0 DUP10 DUP2 MSTORE PUSH2 0x2C1 SWAP1 SWAP2 MSTORE SWAP2 SWAP1 SWAP2 KECCAK256 DUP2 MLOAD DUP2 SWAP1 PUSH2 0x10F2 SWAP1 DUP3 PUSH2 0x4BBF JUMP JUMPDEST POP PUSH1 0x20 DUP3 ADD MLOAD PUSH1 0x1 DUP3 ADD SWAP1 PUSH2 0x1107 SWAP1 DUP3 PUSH2 0x4BBF JUMP JUMPDEST POP PUSH1 0x40 DUP3 ADD MLOAD PUSH1 0x2 DUP3 ADD SWAP1 PUSH2 0x111C SWAP1 DUP3 PUSH2 0x4BBF JUMP JUMPDEST POP SWAP1 POP POP DUP7 PUSH1 0x1 PUSH1 0x1 PUSH1 0xA0 SHL SUB AND DUP7 PUSH32 0x1CC2B18CCCDC9C1648403A742BF360D69488886FE43494020B8592421DD2779B DUP8 DUP8 DUP8 PUSH1 0x40 MLOAD PUSH2 0x115E SWAP4 SWAP3 SWAP2 SWAP1 PUSH2 0x470C JUMP JUMPDEST PUSH1 0x40 MLOAD DUP1 SWAP2 SUB SWAP1 LOG3 POP POP POP POP POP POP POP JUMP JUMPDEST PUSH1 0x60 NUMBER PUSH2 0x117A PUSH2 0x19BA JUMP JUMPDEST PUSH6 0xFFFFFFFFFFFF AND EQ PUSH2 0x11CF JUMPI PUSH1 0x40 MLOAD PUSH3 0x461BCD PUSH1 0xE5 SHL DUP2 MSTORE PUSH1 0x20 PUSH1 0x4 DUP3 ADD MSTORE PUSH1 0x18 PUSH1 0x24 DUP3 ADD MSTORE PUSH32 0x566F7465733A2062726F6B656E20636C6F636B206D6F64650000000000000000 PUSH1 0x44 DUP3 ADD MSTORE PUSH1 0x64 ADD PUSH2 0xC84 JUMP JUMPDEST POP PUSH1 0x40 DUP1 MLOAD DUP1 DUP3 ADD SWAP1 SWAP2 MSTORE PUSH1 0x1D DUP2 MSTORE PUSH32 0x6D6F64653D626C6F636B6E756D6265722666726F6D3D64656661756C74000000 PUSH1 0x20 DUP3 ADD MSTORE SWAP1 JUMP JUMPDEST PUSH1 0x1 PUSH1 0x1 PUSH1 0xA0 SHL SUB PUSH32 0x0 AND ADDRESS SUB PUSH2 0x124F JUMPI PUSH1 0x40 MLOAD PUSH3 0x461BCD PUSH1 0xE5 SHL DUP2 MSTORE PUSH1 0x4 ADD PUSH2 0xC84 SWAP1 PUSH2 0x4AE3 JUMP JUMPDEST PUSH32 0x0 PUSH1 0x1 PUSH1 0x1 PUSH1 0xA0 SHL SUB AND PUSH2 0x1297 PUSH0 DUP1 MLOAD PUSH1 0x20 PUSH2 0x4FAC DUP4 CODECOPY DUP2 MLOAD SWAP2 MSTORE SLOAD PUSH1 0x1 PUSH1 0x1 PUSH1 0xA0 SHL SUB AND SWAP1 JUMP JUMPDEST PUSH1 0x1 PUSH1 0x1 PUSH1 0xA0 SHL SUB AND EQ PUSH2 0x12BD JUMPI PUSH1 0x40 MLOAD PUSH3 0x461BCD PUSH1 0xE5 SHL DUP2 MSTORE PUSH1 0x4 ADD PUSH2 0xC84 SWAP1 PUSH2 0x4B2F JUMP JUMPDEST PUSH2 0x12C6 DUP3 PUSH2 0x22BE JUMP JUMPDEST PUSH2 0xEB8 DUP3 DUP3 PUSH1 0x1 PUSH2 0x22E8 JUMP JUMPDEST PUSH0 PUSH2 0x12DC PUSH1 0x99 SLOAD SWAP1 JUMP JUMPDEST DUP3 LT PUSH2 0x133F JUMPI PUSH1 0x40 MLOAD PUSH3 0x461BCD PUSH1 0xE5 SHL DUP2 MSTORE PUSH1 0x20 PUSH1 0x4 DUP3 ADD MSTORE PUSH1 0x2C PUSH1 0x24 DUP3 ADD MSTORE PUSH32 0x455243373231456E756D657261626C653A20676C6F62616C20696E646578206F PUSH1 0x44 DUP3 ADD MSTORE PUSH12 0x7574206F6620626F756E6473 PUSH1 0xA0 SHL PUSH1 0x64 DUP3 ADD MSTORE PUSH1 0x84 ADD PUSH2 0xC84 JUMP JUMPDEST PUSH1 0x99 DUP3 DUP2 SLOAD DUP2 LT PUSH2 0x1352 JUMPI PUSH2 0x1352 PUSH2 0x4C79 JUMP JUMPDEST SWAP1 PUSH0 MSTORE PUSH1 0x20 PUSH0 KECCAK256 ADD SLOAD SWAP1 POP SWAP2 SWAP1 POP JUMP JUMPDEST PUSH0 ADDRESS PUSH1 0x1 PUSH1 0x1 PUSH1 0xA0 SHL SUB PUSH32 0x0 AND EQ PUSH2 0x1401 JUMPI PUSH1 0x40 MLOAD PUSH3 0x461BCD PUSH1 0xE5 SHL DUP2 MSTORE PUSH1 0x20 PUSH1 0x4 DUP3 ADD MSTORE PUSH1 0x38 PUSH1 0x24 DUP3 ADD MSTORE PUSH32 0x555550535570677261646561626C653A206D757374206E6F742062652063616C PUSH1 0x44 DUP3 ADD MSTORE PUSH32 0x6C6564207468726F7567682064656C656761746563616C6C0000000000000000 PUSH1 0x64 DUP3 ADD MSTORE PUSH1 0x84 ADD PUSH2 0xC84 JUMP JUMPDEST POP PUSH0 DUP1 MLOAD PUSH1 0x20 PUSH2 0x4FAC DUP4 CODECOPY DUP2 MLOAD SWAP2 MSTORE SWAP1 JUMP JUMPDEST CALLER PUSH2 0xEB8 DUP2 DUP4 PUSH2 0x282B JUMP JUMPDEST PUSH0 DUP2 DUP2 MSTORE PUSH1 0x67 PUSH1 0x20 MSTORE PUSH1 0x40 DUP2 KECCAK256 SLOAD PUSH1 0x1 PUSH1 0x1 PUSH1 0xA0 SHL SUB AND DUP1 PUSH2 0xA2E JUMPI PUSH1 0x40 MLOAD PUSH3 0x461BCD PUSH1 0xE5 SHL DUP2 MSTORE PUSH1 0x20 PUSH1 0x4 DUP3 ADD MSTORE PUSH1 0x18 PUSH1 0x24 DUP3 ADD MSTORE PUSH24 0x115490CDCC8C4E881A5B9D985B1A59081D1BDAD95B881251 PUSH1 0x42 SHL PUSH1 0x44 DUP3 ADD MSTORE PUSH1 0x64 ADD PUSH2 0xC84 JUMP JUMPDEST PUSH0 PUSH1 0x1 PUSH1 0x1 PUSH1 0xA0 SHL SUB DUP3 AND PUSH2 0x14E6 JUMPI PUSH1 0x40 MLOAD PUSH3 0x461BCD PUSH1 0xE5 SHL DUP2 MSTORE PUSH1 0x20 PUSH1 0x4 DUP3 ADD MSTORE PUSH1 0x29 PUSH1 0x24 DUP3 ADD MSTORE PUSH32 0x4552433732313A2061646472657373207A65726F206973206E6F742061207661 PUSH1 0x44 DUP3 ADD MSTORE PUSH9 0x3634B21037BBB732B9 PUSH1 0xB9 SHL PUSH1 0x64 DUP3 ADD MSTORE PUSH1 0x84 ADD PUSH2 0xC84 JUMP JUMPDEST POP PUSH1 0x1 PUSH1 0x1 PUSH1 0xA0 SHL SUB AND PUSH0 SWAP1 DUP2 MSTORE PUSH1 0x68 PUSH1 0x20 MSTORE PUSH1 0x40 SWAP1 KECCAK256 SLOAD SWAP1 JUMP JUMPDEST PUSH2 0x2C1 PUSH1 0x20 MSTORE PUSH0 SWAP1 DUP2 MSTORE PUSH1 0x40 SWAP1 KECCAK256 DUP1 SLOAD DUP2 SWAP1 PUSH2 0x151C SWAP1 PUSH2 0x4A64 JUMP JUMPDEST DUP1 PUSH1 0x1F ADD PUSH1 0x20 DUP1 SWAP2 DIV MUL PUSH1 0x20 ADD PUSH1 0x40 MLOAD SWAP1 DUP2 ADD PUSH1 0x40 MSTORE DUP1 SWAP3 SWAP2 SWAP1 DUP2 DUP2 MSTORE PUSH1 0x20 ADD DUP3 DUP1 SLOAD PUSH2 0x1548 SWAP1 PUSH2 0x4A64 JUMP JUMPDEST DUP1 ISZERO PUSH2 0x1593 JUMPI DUP1 PUSH1 0x1F LT PUSH2 0x156A JUMPI PUSH2 0x100 DUP1 DUP4 SLOAD DIV MUL DUP4 MSTORE SWAP2 PUSH1 0x20 ADD SWAP2 PUSH2 0x1593 JUMP JUMPDEST DUP3 ADD SWAP2 SWAP1 PUSH0 MSTORE PUSH1 0x20 PUSH0 KECCAK256 SWAP1 JUMPDEST DUP2 SLOAD DUP2 MSTORE SWAP1 PUSH1 0x1 ADD SWAP1 PUSH1 0x20 ADD DUP1 DUP4 GT PUSH2 0x1576 JUMPI DUP3 SWAP1 SUB PUSH1 0x1F AND DUP3 ADD SWAP2 JUMPDEST POP POP POP POP POP SWAP1 DUP1 PUSH1 0x1 ADD DUP1 SLOAD PUSH2 0x15A8 SWAP1 PUSH2 0x4A64 JUMP JUMPDEST DUP1 PUSH1 0x1F ADD PUSH1 0x20 DUP1 SWAP2 DIV MUL PUSH1 0x20 ADD PUSH1 0x40 MLOAD SWAP1 DUP2 ADD PUSH1 0x40 MSTORE DUP1 SWAP3 SWAP2 SWAP1 DUP2 DUP2 MSTORE PUSH1 0x20 ADD DUP3 DUP1 SLOAD PUSH2 0x15D4 SWAP1 PUSH2 0x4A64 JUMP JUMPDEST DUP1 ISZERO PUSH2 0x161F JUMPI DUP1 PUSH1 0x1F LT PUSH2 0x15F6 JUMPI PUSH2 0x100 DUP1 DUP4 SLOAD DIV MUL DUP4 MSTORE SWAP2 PUSH1 0x20 ADD SWAP2 PUSH2 0x161F JUMP JUMPDEST DUP3 ADD SWAP2 SWAP1 PUSH0 MSTORE PUSH1 0x20 PUSH0 KECCAK256 SWAP1 JUMPDEST DUP2 SLOAD DUP2 MSTORE SWAP1 PUSH1 0x1 ADD SWAP1 PUSH1 0x20 ADD DUP1 DUP4 GT PUSH2 0x1602 JUMPI DUP3 SWAP1 SUB PUSH1 0x1F AND DUP3 ADD SWAP2 JUMPDEST POP POP POP POP POP SWAP1 DUP1 PUSH1 0x2 ADD DUP1 SLOAD PUSH2 0x1634 SWAP1 PUSH2 0x4A64 JUMP JUMPDEST DUP1 PUSH1 0x1F ADD PUSH1 0x20 DUP1 SWAP2 DIV MUL PUSH1 0x20 ADD PUSH1 0x40 MLOAD SWAP1 DUP2 ADD PUSH1 0x40 MSTORE DUP1 SWAP3 SWAP2 SWAP1 DUP2 DUP2 MSTORE PUSH1 0x20 ADD DUP3 DUP1 SLOAD PUSH2 0x1660 SWAP1 PUSH2 0x4A64 JUMP JUMPDEST DUP1 ISZERO PUSH2 0x16AB JUMPI DUP1 PUSH1 0x1F LT PUSH2 0x1682 JUMPI PUSH2 0x100 DUP1 DUP4 SLOAD DIV MUL DUP4 MSTORE SWAP2 PUSH1 0x20 ADD SWAP2 PUSH2 0x16AB JUMP JUMPDEST DUP3 ADD SWAP2 SWAP1 PUSH0 MSTORE PUSH1 0x20 PUSH0 KECCAK256 SWAP1 JUMPDEST DUP2 SLOAD DUP2 MSTORE SWAP1 PUSH1 0x1 ADD SWAP1 PUSH1 0x20 ADD DUP1 DUP4 GT PUSH2 0x168E JUMPI DUP3 SWAP1 SUB PUSH1 0x1F AND DUP3 ADD SWAP2 JUMPDEST POP POP POP POP POP SWAP1 POP DUP4 JUMP JUMPDEST PUSH0 DUP1 MLOAD PUSH1 0x20 PUSH2 0x5013 DUP4 CODECOPY DUP2 MLOAD SWAP2 MSTORE PUSH2 0x16CC DUP2 PUSH2 0x21BE JUMP JUMPDEST PUSH2 0x16D6 DUP9 DUP9 PUSH2 0x25C4 JUMP JUMPDEST PUSH2 0x16E0 DUP8 DUP8 PUSH2 0x2762 JUMP JUMPDEST PUSH1 0x40 DUP1 MLOAD PUSH1 0x80 DUP2 ADD DUP3 MSTORE DUP7 DUP2 MSTORE PUSH1 0x20 DUP1 DUP3 ADD DUP8 DUP2 MSTORE DUP3 DUP5 ADD DUP8 DUP2 MSTORE PUSH1 0x60 DUP5 ADD DUP8 DUP2 MSTORE PUSH0 DUP14 DUP2 MSTORE PUSH2 0x2C2 SWAP1 SWAP5 MSTORE SWAP3 DUP6 SWAP1 KECCAK256 SWAP4 MLOAD DUP5 SSTORE SWAP1 MLOAD PUSH1 0x1 DUP5 ADD SSTORE MLOAD PUSH1 0x2 DUP4 ADD SSTORE MLOAD PUSH1 0x3 SWAP1 SWAP2 ADD SSTORE MLOAD PUSH1 0x1 PUSH1 0x1 PUSH1 0xA0 SHL SUB DUP10 AND SWAP1 DUP9 SWAP1 PUSH32 0xF47C996ED5871087DC9057721735282563F5A94760E8BF808F0F2DB6F13B053B SWAP1 PUSH2 0x176B SWAP1 DUP11 SWAP1 DUP11 SWAP1 DUP11 SWAP1 DUP11 SWAP1 DUP11 SWAP1 PUSH2 0x4C8D JUMP JUMPDEST PUSH1 0x40 MLOAD DUP1 SWAP2 SUB SWAP1 LOG3 POP POP POP POP POP POP POP POP JUMP JUMPDEST PUSH1 0x1 PUSH1 0x1 PUSH1 0xA0 SHL SUB DUP2 AND PUSH0 SWAP1 DUP2 MSTORE PUSH2 0x1FA PUSH1 0x20 MSTORE PUSH1 0x40 DUP2 KECCAK256 SLOAD PUSH2 0xA2E JUMP JUMPDEST PUSH0 DUP1 MLOAD PUSH1 0x20 PUSH2 0x4FCC DUP4 CODECOPY DUP2 MLOAD SWAP2 MSTORE PUSH2 0x17B2 DUP2 PUSH2 0x21BE JUMP JUMPDEST PUSH2 0xF96 PUSH2 0x289D JUMP JUMPDEST PUSH0 PUSH1 0x60 DUP1 PUSH0 DUP1 PUSH0 PUSH1 0x60 PUSH2 0x1C3 SLOAD PUSH0 DUP1 SHL EQ DUP1 ISZERO PUSH2 0x17D8 JUMPI POP PUSH2 0x1C4 SLOAD ISZERO JUMPDEST PUSH2 0x181C JUMPI PUSH1 0x40 MLOAD PUSH3 0x461BCD PUSH1 0xE5 SHL DUP2 MSTORE PUSH1 0x20 PUSH1 0x4 DUP3 ADD MSTORE PUSH1 0x15 PUSH1 0x24 DUP3 ADD MSTORE PUSH21 0x1152540DCC4C8E88155B9A5B9A5D1A585B1A5E9959 PUSH1 0x5A SHL PUSH1 0x44 DUP3 ADD MSTORE PUSH1 0x64 ADD PUSH2 0xC84 JUMP JUMPDEST PUSH2 0x1824 PUSH2 0x28DA JUMP JUMPDEST PUSH2 0x182C PUSH2 0x28EA JUMP JUMPDEST PUSH1 0x40 DUP1 MLOAD PUSH0 DUP1 DUP3 MSTORE PUSH1 0x20 DUP3 ADD SWAP1 SWAP3 MSTORE PUSH1 0xF PUSH1 0xF8 SHL SWAP12 SWAP4 SWAP11 POP SWAP2 SWAP9 POP CHAINID SWAP8 POP ADDRESS SWAP7 POP SWAP5 POP SWAP3 POP SWAP1 POP JUMP JUMPDEST PUSH0 DUP1 MLOAD PUSH1 0x20 PUSH2 0x5013 DUP4 CODECOPY DUP2 MLOAD SWAP2 MSTORE PUSH2 0x186C DUP2 PUSH2 0x21BE JUMP JUMPDEST PUSH2 0x1876 DUP7 DUP7 PUSH2 0x25C4 JUMP JUMPDEST PUSH2 0x1880 DUP6 DUP4 PUSH2 0x2762 JUMP JUMPDEST PUSH1 0x40 DUP1 MLOAD DUP1 DUP3 ADD DUP3 MSTORE DUP6 DUP2 MSTORE PUSH1 0x20 DUP1 DUP3 ADD DUP7 SWAP1 MSTORE PUSH0 DUP9 DUP2 MSTORE PUSH2 0x2C3 SWAP1 SWAP2 MSTORE SWAP2 SWAP1 SWAP2 KECCAK256 DUP2 MLOAD DUP2 SWAP1 PUSH2 0x18B0 SWAP1 DUP3 PUSH2 0x4BBF JUMP JUMPDEST POP PUSH1 0x20 DUP3 ADD MLOAD PUSH1 0x1 DUP3 ADD SWAP1 PUSH2 0x18C5 SWAP1 DUP3 PUSH2 0x4BBF JUMP JUMPDEST POP SWAP1 POP POP DUP6 PUSH1 0x1 PUSH1 0x1 PUSH1 0xA0 SHL SUB AND DUP6 PUSH32 0xFF3FDD5F7A47CA00431251C043373F1B90311BD3CA5DE8536D89FC351BB8FD40 DUP7 DUP7 PUSH1 0x40 MLOAD PUSH2 0x1905 SWAP3 SWAP2 SWAP1 PUSH2 0x4465 JUMP JUMPDEST PUSH1 0x40 MLOAD DUP1 SWAP2 SUB SWAP1 LOG3 POP POP POP POP POP POP JUMP JUMPDEST PUSH0 PUSH2 0x191E PUSH2 0x19BA JUMP JUMPDEST PUSH6 0xFFFFFFFFFFFF AND DUP3 LT PUSH2 0x196B JUMPI PUSH1 0x40 MLOAD PUSH3 0x461BCD PUSH1 0xE5 SHL DUP2 MSTORE PUSH1 0x20 PUSH1 0x4 DUP3 ADD MSTORE PUSH1 0x14 PUSH1 0x24 DUP3 ADD MSTORE PUSH20 0x566F7465733A20667574757265206C6F6F6B757 PUSH1 0x64 SHL PUSH1 0x44 DUP3 ADD MSTORE PUSH1 0x64 ADD PUSH2 0xC84 JUMP JUMPDEST PUSH2 0x1980 PUSH2 0x1977 DUP4 PUSH2 0x2452 JUMP JUMPDEST PUSH2 0x1F9 SWAP1 PUSH2 0x24BA JUMP JUMPDEST PUSH1 0x1 PUSH1 0x1 PUSH1 0xE0 SHL SUB AND SWAP3 SWAP2 POP POP JUMP JUMPDEST PUSH0 SWAP2 DUP3 MSTORE PUSH2 0x15F PUSH1 0x20 SWAP1 DUP2 MSTORE PUSH1 0x40 DUP1 DUP5 KECCAK256 PUSH1 0x1 PUSH1 0x1 PUSH1 0xA0 SHL SUB SWAP4 SWAP1 SWAP4 AND DUP5 MSTORE SWAP2 SWAP1 MSTORE SWAP1 KECCAK256 SLOAD PUSH1 0xFF AND SWAP1 JUMP JUMPDEST PUSH0 PUSH2 0xE39 NUMBER PUSH2 0x28FA JUMP JUMPDEST PUSH1 0x60 PUSH1 0x66 DUP1 SLOAD PUSH2 0xA43 SWAP1 PUSH2 0x4A64 JUMP JUMPDEST PUSH1 0x1 PUSH1 0x1 PUSH1 0xA0 SHL SUB DUP2 AND PUSH0 SWAP1 DUP2 MSTORE PUSH2 0x1F8 PUSH1 0x20 MSTORE PUSH1 0x40 DUP2 KECCAK256 PUSH2 0x1980 SWAP1 PUSH2 0x2960 JUMP JUMPDEST PUSH2 0xEB8 CALLER DUP4 DUP4 PUSH2 0x2999 JUMP JUMPDEST PUSH2 0x1A09 CALLER DUP4 PUSH2 0x1FCA JUMP JUMPDEST PUSH2 0x1A25 JUMPI PUSH1 0x40 MLOAD PUSH3 0x461BCD PUSH1 0xE5 SHL DUP2 MSTORE PUSH1 0x4 ADD PUSH2 0xC84 SWAP1 PUSH2 0x4A96 JUMP JUMPDEST PUSH2 0x1A31 DUP5 DUP5 DUP5 DUP5 PUSH2 0x2A66 JUMP JUMPDEST POP POP POP POP JUMP JUMPDEST DUP4 TIMESTAMP GT ISZERO PUSH2 0x1A87 JUMPI PUSH1 0x40 MLOAD PUSH3 0x461BCD PUSH1 0xE5 SHL DUP2 MSTORE PUSH1 0x20 PUSH1 0x4 DUP3 ADD MSTORE PUSH1 0x18 PUSH1 0x24 DUP3 ADD MSTORE PUSH32 0x566F7465733A207369676E617475726520657870697265640000000000000000 PUSH1 0x44 DUP3 ADD MSTORE PUSH1 0x64 ADD PUSH2 0xC84 JUMP JUMPDEST PUSH1 0x40 DUP1 MLOAD PUSH32 0xE48329057BFD03D55E49B547132E39CFFD9C1820AD7B9D4C5307691425D15ADF PUSH1 0x20 DUP3 ADD MSTORE PUSH1 0x1 PUSH1 0x1 PUSH1 0xA0 SHL SUB DUP9 AND SWAP2 DUP2 ADD SWAP2 SWAP1 SWAP2 MSTORE PUSH1 0x60 DUP2 ADD DUP7 SWAP1 MSTORE PUSH1 0x80 DUP2 ADD DUP6 SWAP1 MSTORE PUSH0 SWAP1 PUSH2 0x1B00 SWAP1 PUSH2 0x1AF8 SWAP1 PUSH1 0xA0 ADD PUSH1 0x40 MLOAD PUSH1 0x20 DUP2 DUP4 SUB SUB DUP2 MSTORE SWAP1 PUSH1 0x40 MSTORE DUP1 MLOAD SWAP1 PUSH1 0x20 ADD KECCAK256 PUSH2 0x2A99 JUMP JUMPDEST DUP6 DUP6 DUP6 PUSH2 0x2AC5 JUMP JUMPDEST SWAP1 POP PUSH2 0x1B0B DUP2 PUSH2 0x2AEB JUMP JUMPDEST DUP7 EQ PUSH2 0x1B50 JUMPI PUSH1 0x40 MLOAD PUSH3 0x461BCD PUSH1 0xE5 SHL DUP2 MSTORE PUSH1 0x20 PUSH1 0x4 DUP3 ADD MSTORE PUSH1 0x14 PUSH1 0x24 DUP3 ADD MSTORE PUSH20 0x566F7465733A20696E76616C6964206E6F6E6365 PUSH1 0x60 SHL PUSH1 0x44 DUP3 ADD MSTORE PUSH1 0x64 ADD PUSH2 0xC84 JUMP JUMPDEST PUSH2 0x1B5A DUP2 DUP9 PUSH2 0x282B JUMP JUMPDEST POP POP POP POP POP POP POP JUMP JUMPDEST PUSH1 0x60 PUSH2 0xA2E DUP3 PUSH2 0x2B13 JUMP JUMPDEST PUSH0 DUP1 MLOAD PUSH1 0x20 PUSH2 0x5013 DUP4 CODECOPY DUP2 MLOAD SWAP2 MSTORE PUSH2 0x1B85 DUP2 PUSH2 0x21BE JUMP JUMPDEST PUSH2 0x2BF DUP1 SLOAD PUSH0 SWAP2 DUP3 PUSH2 0x1B96 DUP4 PUSH2 0x4CD7 JUMP JUMPDEST SWAP2 SWAP1 POP SSTORE SWAP1 POP PUSH2 0x1BA6 DUP5 DUP3 PUSH2 0x2C15 JUMP JUMPDEST PUSH2 0x1A31 DUP2 DUP5 PUSH2 0x2762 JUMP JUMPDEST PUSH0 DUP3 DUP2 MSTORE PUSH2 0x15F PUSH1 0x20 MSTORE PUSH1 0x40 SWAP1 KECCAK256 PUSH1 0x1 ADD SLOAD PUSH2 0x1BCB DUP2 PUSH2 0x21BE JUMP JUMPDEST PUSH2 0xD25 DUP4 DUP4 PUSH2 0x2257 JUMP JUMPDEST PUSH0 DUP1 MLOAD PUSH1 0x20 PUSH2 0x5013 DUP4 CODECOPY DUP2 MLOAD SWAP2 MSTORE PUSH2 0x1BEC DUP2 PUSH2 0x21BE JUMP JUMPDEST PUSH2 0x1BF6 DUP7 DUP7 PUSH2 0x25C4 JUMP JUMPDEST PUSH2 0x1C00 DUP6 DUP4 PUSH2 0x2762 JUMP JUMPDEST PUSH1 0x40 DUP1 MLOAD DUP1 DUP3 ADD DUP3 MSTORE DUP6 DUP2 MSTORE PUSH1 0x20 DUP1 DUP3 ADD DUP7 SWAP1 MSTORE PUSH0 DUP9 DUP2 MSTORE PUSH2 0x2C0 SWAP1 SWAP2 MSTORE SWAP2 SWAP1 SWAP2 KECCAK256 DUP2 MLOAD DUP2 SWAP1 PUSH2 0x1C30 SWAP1 DUP3 PUSH2 0x4BBF JUMP JUMPDEST POP PUSH1 0x20 DUP3 ADD MLOAD PUSH1 0x1 DUP3 ADD SWAP1 PUSH2 0x1C45 SWAP1 DUP3 PUSH2 0x4BBF JUMP JUMPDEST POP SWAP1 POP POP DUP6 PUSH1 0x1 PUSH1 0x1 PUSH1 0xA0 SHL SUB AND DUP6 PUSH32 0x5D57226C6D1E088FB08906416512D43A3C52D7BE0791198D262F9988818FF44A DUP7 DUP7 PUSH1 0x40 MLOAD PUSH2 0x1905 SWAP3 SWAP2 SWAP1 PUSH2 0x4465 JUMP JUMPDEST PUSH0 SLOAD PUSH2 0x100 SWAP1 DIV PUSH1 0xFF AND ISZERO DUP1 DUP1 ISZERO PUSH2 0x1CA3 JUMPI POP PUSH0 SLOAD PUSH1 0x1 PUSH1 0xFF SWAP1 SWAP2 AND LT JUMPDEST DUP1 PUSH2 0x1CBC JUMPI POP ADDRESS EXTCODESIZE ISZERO DUP1 ISZERO PUSH2 0x1CBC JUMPI POP PUSH0 SLOAD PUSH1 0xFF AND PUSH1 0x1 EQ JUMPDEST PUSH2 0x1D1F JUMPI PUSH1 0x40 MLOAD PUSH3 0x461BCD PUSH1 0xE5 SHL DUP2 MSTORE PUSH1 0x20 PUSH1 0x4 DUP3 ADD MSTORE PUSH1 0x2E PUSH1 0x24 DUP3 ADD MSTORE PUSH32 0x496E697469616C697A61626C653A20636F6E747261637420697320616C726561 PUSH1 0x44 DUP3 ADD MSTORE PUSH14 0x191E481A5B9A5D1A585B1A5E9959 PUSH1 0x92 SHL PUSH1 0x64 DUP3 ADD MSTORE PUSH1 0x84 ADD PUSH2 0xC84 JUMP JUMPDEST PUSH0 DUP1 SLOAD PUSH1 0xFF NOT AND PUSH1 0x1 OR SWAP1 SSTORE DUP1 ISZERO PUSH2 0x1D40 JUMPI PUSH0 DUP1 SLOAD PUSH2 0xFF00 NOT AND PUSH2 0x100 OR SWAP1 SSTORE JUMPDEST PUSH2 0x1D9D PUSH1 0x40 MLOAD DUP1 PUSH1 0x40 ADD PUSH1 0x40 MSTORE DUP1 PUSH1 0x20 DUP2 MSTORE PUSH1 0x20 ADD PUSH32 0x43727970746F51756573745468655368617264734F6647656E657369734E4654 DUP2 MSTORE POP PUSH1 0x40 MLOAD DUP1 PUSH1 0x40 ADD PUSH1 0x40 MSTORE DUP1 PUSH1 0x6 DUP2 MSTORE PUSH1 0x20 ADD PUSH6 0x10D455139195 PUSH1 0xD2 SHL DUP2 MSTORE POP PUSH2 0x2C2E JUMP JUMPDEST PUSH2 0x1DA5 PUSH2 0x2C5E JUMP JUMPDEST PUSH2 0x1DAD PUSH2 0x2C5E JUMP JUMPDEST PUSH2 0x1DB5 PUSH2 0x2C86 JUMP JUMPDEST PUSH2 0x1DBD PUSH2 0x2C5E JUMP JUMPDEST PUSH2 0x1DC5 PUSH2 0x2C5E JUMP JUMPDEST PUSH2 0x1E1D PUSH1 0x40 MLOAD DUP1 PUSH1 0x40 ADD PUSH1 0x40 MSTORE DUP1 PUSH1 0x20 DUP2 MSTORE PUSH1 0x20 ADD PUSH32 0x43727970746F51756573745468655368617264734F6647656E657369734E4654 DUP2 MSTORE POP PUSH1 0x40 MLOAD DUP1 PUSH1 0x40 ADD PUSH1 0x40 MSTORE DUP1 PUSH1 0x1 DUP2 MSTORE PUSH1 0x20 ADD PUSH1 0x31 PUSH1 0xF8 SHL DUP2 MSTORE POP PUSH2 0x2CB4 JUMP JUMPDEST PUSH2 0x1E25 PUSH2 0x2C5E JUMP JUMPDEST PUSH2 0x1E2D PUSH2 0x2C5E JUMP JUMPDEST PUSH2 0x1E37 PUSH0 DUP7 PUSH2 0x21C8 JUMP JUMPDEST PUSH2 0x1E4E PUSH0 DUP1 MLOAD PUSH1 0x20 PUSH2 0x4FCC DUP4 CODECOPY DUP2 MLOAD SWAP2 MSTORE DUP6 PUSH2 0x21C8 JUMP JUMPDEST PUSH2 0x1E65 PUSH0 DUP1 MLOAD PUSH1 0x20 PUSH2 0x5013 DUP4 CODECOPY DUP2 MLOAD SWAP2 MSTORE DUP5 PUSH2 0x21C8 JUMP JUMPDEST PUSH2 0x1E8F PUSH32 0x189AB7A9244DF0848122154315AF71FE140F3DB0FE014031783B0946B8C9D2E3 DUP4 PUSH2 0x21C8 JUMP JUMPDEST DUP1 ISZERO PUSH2 0x1ED4 JUMPI PUSH0 DUP1 SLOAD PUSH2 0xFF00 NOT AND SWAP1 SSTORE PUSH1 0x40 MLOAD PUSH1 0x1 DUP2 MSTORE PUSH32 0x7F26B83FF96E1F2B6A682F133852F6798A09C465DA95921460CEFB3847402498 SWAP1 PUSH1 0x20 ADD PUSH1 0x40 MLOAD DUP1 SWAP2 SUB SWAP1 LOG1 JUMPDEST POP POP POP POP POP JUMP JUMPDEST PUSH0 PUSH1 0x1 PUSH1 0x1 PUSH1 0xE0 SHL SUB NOT DUP3 AND PUSH4 0x7965DB0B PUSH1 0xE0 SHL EQ DUP1 PUSH2 0xA2E JUMPI POP PUSH2 0xA2E DUP3 PUSH2 0x2CE4 JUMP JUMPDEST PUSH0 DUP2 DUP2 MSTORE PUSH1 0x67 PUSH1 0x20 MSTORE PUSH1 0x40 SWAP1 KECCAK256 SLOAD PUSH1 0x1 PUSH1 0x1 PUSH1 0xA0 SHL SUB AND PUSH2 0xF96 JUMPI PUSH1 0x40 MLOAD PUSH3 0x461BCD PUSH1 0xE5 SHL DUP2 MSTORE PUSH1 0x20 PUSH1 0x4 DUP3 ADD MSTORE PUSH1 0x18 PUSH1 0x24 DUP3 ADD MSTORE PUSH24 0x115490CDCC8C4E881A5B9D985B1A59081D1BDAD95B881251 PUSH1 0x42 SHL PUSH1 0x44 DUP3 ADD MSTORE PUSH1 0x64 ADD PUSH2 0xC84 JUMP JUMPDEST PUSH0 DUP2 DUP2 MSTORE PUSH1 0x69 PUSH1 0x20 MSTORE PUSH1 0x40 SWAP1 KECCAK256 DUP1 SLOAD PUSH1 0x1 PUSH1 0x1 PUSH1 0xA0 SHL SUB NOT AND PUSH1 0x1 PUSH1 0x1 PUSH1 0xA0 SHL SUB DUP5 AND SWAP1 DUP2 OR SWAP1 SWAP2 SSTORE DUP2 SWAP1 PUSH2 0x1F91 DUP3 PUSH2 0x141E JUMP JUMPDEST PUSH1 0x1 PUSH1 0x1 PUSH1 0xA0 SHL SUB AND PUSH32 0x8C5BE1E5EBEC7D5BD14F71427D1E84F3DD0314C0F7B2291E5B200AC8C7C3B925 PUSH1 0x40 MLOAD PUSH1 0x40 MLOAD DUP1 SWAP2 SUB SWAP1 LOG4 POP POP JUMP JUMPDEST PUSH0 DUP1 PUSH2 0x1FD5 DUP4 PUSH2 0x141E JUMP JUMPDEST SWAP1 POP DUP1 PUSH1 0x1 PUSH1 0x1 PUSH1 0xA0 SHL SUB AND DUP5 PUSH1 0x1 PUSH1 0x1 PUSH1 0xA0 SHL SUB AND EQ DUP1 PUSH2 0x201B JUMPI POP PUSH1 0x1 PUSH1 0x1 PUSH1 0xA0 SHL SUB DUP1 DUP3 AND PUSH0 SWAP1 DUP2 MSTORE PUSH1 0x6A PUSH1 0x20 SWAP1 DUP2 MSTORE PUSH1 0x40 DUP1 DUP4 KECCAK256 SWAP4 DUP9 AND DUP4 MSTORE SWAP3 SWAP1 MSTORE KECCAK256 SLOAD PUSH1 0xFF AND JUMPDEST DUP1 PUSH2 0x203F JUMPI POP DUP4 PUSH1 0x1 PUSH1 0x1 PUSH1 0xA0 SHL SUB AND PUSH2 0x2034 DUP5 PUSH2 0xBEC JUMP JUMPDEST PUSH1 0x1 PUSH1 0x1 PUSH1 0xA0 SHL SUB AND EQ JUMPDEST SWAP5 SWAP4 POP POP POP POP JUMP JUMPDEST DUP3 PUSH1 0x1 PUSH1 0x1 PUSH1 0xA0 SHL SUB AND PUSH2 0x205A DUP3 PUSH2 0x141E JUMP JUMPDEST PUSH1 0x1 PUSH1 0x1 PUSH1 0xA0 SHL SUB AND EQ PUSH2 0x2080 JUMPI PUSH1 0x40 MLOAD PUSH3 0x461BCD PUSH1 0xE5 SHL DUP2 MSTORE PUSH1 0x4 ADD PUSH2 0xC84 SWAP1 PUSH2 0x4CEF JUMP JUMPDEST PUSH1 0x1 PUSH1 0x1 PUSH1 0xA0 SHL SUB DUP3 AND PUSH2 0x20E2 JUMPI PUSH1 0x40 MLOAD PUSH3 0x461BCD PUSH1 0xE5 SHL DUP2 MSTORE PUSH1 0x20 PUSH1 0x4 DUP3 ADD MSTORE PUSH1 0x24 DUP1 DUP3 ADD MSTORE PUSH32 0x4552433732313A207472616E7366657220746F20746865207A65726F20616464 PUSH1 0x44 DUP3 ADD MSTORE PUSH4 0x72657373 PUSH1 0xE0 SHL PUSH1 0x64 DUP3 ADD MSTORE PUSH1 0x84 ADD PUSH2 0xC84 JUMP JUMPDEST PUSH2 0x20EF DUP4 DUP4 DUP4 PUSH1 0x1 PUSH2 0x2D08 JUMP JUMPDEST DUP3 PUSH1 0x1 PUSH1 0x1 PUSH1 0xA0 SHL SUB AND PUSH2 0x2102 DUP3 PUSH2 0x141E JUMP JUMPDEST PUSH1 0x1 PUSH1 0x1 PUSH1 0xA0 SHL SUB AND EQ PUSH2 0x2128 JUMPI PUSH1 0x40 MLOAD PUSH3 0x461BCD PUSH1 0xE5 SHL DUP2 MSTORE PUSH1 0x4 ADD PUSH2 0xC84 SWAP1 PUSH2 0x4CEF JUMP JUMPDEST PUSH0 DUP2 DUP2 MSTORE PUSH1 0x69 PUSH1 0x20 SWAP1 DUP2 MSTORE PUSH1 0x40 DUP1 DUP4 KECCAK256 DUP1 SLOAD PUSH1 0x1 PUSH1 0x1 PUSH1 0xA0 SHL SUB NOT SWAP1 DUP2 AND SWAP1 SWAP2 SSTORE PUSH1 0x1 PUSH1 0x1 PUSH1 0xA0 SHL SUB DUP8 DUP2 AND DUP1 DUP7 MSTORE PUSH1 0x68 DUP6 MSTORE DUP4 DUP7 KECCAK256 DUP1 SLOAD PUSH0 NOT ADD SWAP1 SSTORE SWAP1 DUP8 AND DUP1 DUP7 MSTORE DUP4 DUP7 KECCAK256 DUP1 SLOAD PUSH1 0x1 ADD SWAP1 SSTORE DUP7 DUP7 MSTORE PUSH1 0x67 SWAP1 SWAP5 MSTORE DUP3 DUP6 KECCAK256 DUP1 SLOAD SWAP1 SWAP3 AND DUP5 OR SWAP1 SWAP2 SSTORE SWAP1 MLOAD DUP5 SWAP4 PUSH32 0xDDF252AD1BE2C89B69C2B068FC378DAA952BA7F163C4A11628F55A4DF523B3EF SWAP2 LOG4 PUSH2 0xD25 DUP4 DUP4 DUP4 PUSH1 0x1 PUSH2 0x2D14 JUMP JUMPDEST PUSH2 0xF96 DUP2 CALLER PUSH2 0x2D20 JUMP JUMPDEST PUSH2 0x21D2 DUP3 DUP3 PUSH2 0x198F JUMP JUMPDEST PUSH2 0xEB8 JUMPI PUSH0 DUP3 DUP2 MSTORE PUSH2 0x15F PUSH1 0x20 SWAP1 DUP2 MSTORE PUSH1 0x40 DUP1 DUP4 KECCAK256 PUSH1 0x1 PUSH1 0x1 PUSH1 0xA0 SHL SUB DUP6 AND DUP5 MSTORE SWAP1 SWAP2 MSTORE SWAP1 KECCAK256 DUP1 SLOAD PUSH1 0xFF NOT AND PUSH1 0x1 OR SWAP1 SSTORE PUSH2 0x220A CALLER SWAP1 JUMP JUMPDEST PUSH1 0x1 PUSH1 0x1 PUSH1 0xA0 SHL SUB AND DUP2 PUSH1 0x1 PUSH1 0x1 PUSH1 0xA0 SHL SUB AND DUP4 PUSH32 0x2F8788117E7EFF1D82E926EC794901D17C78024A50270940304540A733656F0D PUSH1 0x40 MLOAD PUSH1 0x40 MLOAD DUP1 SWAP2 SUB SWAP1 LOG4 POP POP JUMP JUMPDEST PUSH0 PUSH2 0xE39 PUSH2 0x2D79 JUMP JUMPDEST PUSH2 0x2261 DUP3 DUP3 PUSH2 0x198F JUMP JUMPDEST ISZERO PUSH2 0xEB8 JUMPI PUSH0 DUP3 DUP2 MSTORE PUSH2 0x15F PUSH1 0x20 SWAP1 DUP2 MSTORE PUSH1 0x40 DUP1 DUP4 KECCAK256 PUSH1 0x1 PUSH1 0x1 PUSH1 0xA0 SHL SUB DUP6 AND DUP1 DUP6 MSTORE SWAP3 MSTORE DUP1 DUP4 KECCAK256 DUP1 SLOAD PUSH1 0xFF NOT AND SWAP1 SSTORE MLOAD CALLER SWAP3 DUP6 SWAP2 PUSH32 0xF6391F5C32D9C69D2A47EA670B442974B53935D1EDC7FD64EB21E047A839171B SWAP2 SWAP1 LOG4 POP POP JUMP JUMPDEST PUSH32 0x189AB7A9244DF0848122154315AF71FE140F3DB0FE014031783B0946B8C9D2E3 PUSH2 0xEB8 DUP2 PUSH2 0x21BE JUMP JUMPDEST PUSH32 0x4910FDFA16FED3260ED0E7147F7CC6DA11A60208B5B9406D12A635614FFD9143 SLOAD PUSH1 0xFF AND ISZERO PUSH2 0x231B JUMPI PUSH2 0xD25 DUP4 PUSH2 0x2DEC JUMP JUMPDEST DUP3 PUSH1 0x1 PUSH1 0x1 PUSH1 0xA0 SHL SUB AND PUSH4 0x52D1902D PUSH1 0x40 MLOAD DUP2 PUSH4 0xFFFFFFFF AND PUSH1 0xE0 SHL DUP2 MSTORE PUSH1 0x4 ADD PUSH1 0x20 PUSH1 0x40 MLOAD DUP1 DUP4 SUB DUP2 DUP7 GAS STATICCALL SWAP3 POP POP POP DUP1 ISZERO PUSH2 0x2375 JUMPI POP PUSH1 0x40 DUP1 MLOAD PUSH1 0x1F RETURNDATASIZE SWAP1 DUP2 ADD PUSH1 0x1F NOT AND DUP3 ADD SWAP1 SWAP3 MSTORE PUSH2 0x2372 SWAP2 DUP2 ADD SWAP1 PUSH2 0x4D34 JUMP JUMPDEST PUSH1 0x1 JUMPDEST PUSH2 0x23D8 JUMPI PUSH1 0x40 MLOAD PUSH3 0x461BCD PUSH1 0xE5 SHL DUP2 MSTORE PUSH1 0x20 PUSH1 0x4 DUP3 ADD MSTORE PUSH1 0x2E PUSH1 0x24 DUP3 ADD MSTORE PUSH32 0x45524331393637557067726164653A206E657720696D706C656D656E74617469 PUSH1 0x44 DUP3 ADD MSTORE PUSH14 0x6F6E206973206E6F742055555053 PUSH1 0x90 SHL PUSH1 0x64 DUP3 ADD MSTORE PUSH1 0x84 ADD PUSH2 0xC84 JUMP JUMPDEST PUSH0 DUP1 MLOAD PUSH1 0x20 PUSH2 0x4FAC DUP4 CODECOPY DUP2 MLOAD SWAP2 MSTORE DUP2 EQ PUSH2 0x2446 JUMPI PUSH1 0x40 MLOAD PUSH3 0x461BCD PUSH1 0xE5 SHL DUP2 MSTORE PUSH1 0x20 PUSH1 0x4 DUP3 ADD MSTORE PUSH1 0x29 PUSH1 0x24 DUP3 ADD MSTORE PUSH32 0x45524331393637557067726164653A20756E737570706F727465642070726F78 PUSH1 0x44 DUP3 ADD MSTORE PUSH9 0x1A58589B1955555251 PUSH1 0xBA SHL PUSH1 0x64 DUP3 ADD MSTORE PUSH1 0x84 ADD PUSH2 0xC84 JUMP JUMPDEST POP PUSH2 0xD25 DUP4 DUP4 DUP4 PUSH2 0x2E87 JUMP JUMPDEST PUSH0 PUSH4 0xFFFFFFFF DUP3 GT ISZERO PUSH2 0x24B6 JUMPI PUSH1 0x40 MLOAD PUSH3 0x461BCD PUSH1 0xE5 SHL DUP2 MSTORE PUSH1 0x20 PUSH1 0x4 DUP3 ADD MSTORE PUSH1 0x26 PUSH1 0x24 DUP3 ADD MSTORE PUSH32 0x53616665436173743A2076616C756520646F65736E27742066697420696E2033 PUSH1 0x44 DUP3 ADD MSTORE PUSH6 0x322062697473 PUSH1 0xD0 SHL PUSH1 0x64 DUP3 ADD MSTORE PUSH1 0x84 ADD PUSH2 0xC84 JUMP JUMPDEST POP SWAP1 JUMP JUMPDEST DUP2 SLOAD PUSH0 SWAP1 DUP2 DUP2 PUSH1 0x5 DUP2 GT ISZERO PUSH2 0x2514 JUMPI PUSH0 PUSH2 0x24D3 DUP5 PUSH2 0x2EAB JUMP JUMPDEST PUSH2 0x24DD SWAP1 DUP6 PUSH2 0x4D4B JUMP JUMPDEST PUSH0 DUP9 DUP2 MSTORE PUSH1 0x20 SWAP1 KECCAK256 SWAP1 SWAP2 POP DUP2 ADD SLOAD PUSH4 0xFFFFFFFF SWAP1 DUP2 AND SWAP1 DUP8 AND LT ISZERO PUSH2 0x2504 JUMPI DUP1 SWAP2 POP PUSH2 0x2512 JUMP JUMPDEST PUSH2 0x250F DUP2 PUSH1 0x1 PUSH2 0x4D5E JUMP JUMPDEST SWAP3 POP JUMPDEST POP JUMPDEST PUSH0 PUSH2 0x2521 DUP8 DUP8 DUP6 DUP6 PUSH2 0x2F8F JUMP JUMPDEST SWAP1 POP DUP1 ISZERO PUSH2 0x255C JUMPI PUSH2 0x2545 DUP8 PUSH2 0x2538 PUSH1 0x1 DUP5 PUSH2 0x4D4B JUMP JUMPDEST PUSH0 SWAP2 DUP3 MSTORE PUSH1 0x20 SWAP1 SWAP2 KECCAK256 ADD SWAP1 JUMP JUMPDEST SLOAD PUSH5 0x100000000 SWAP1 DIV PUSH1 0x1 PUSH1 0x1 PUSH1 0xE0 SHL SUB AND PUSH2 0x255E JUMP JUMPDEST PUSH0 JUMPDEST SWAP8 SWAP7 POP POP POP POP POP POP POP JUMP JUMPDEST PUSH2 0x2571 PUSH2 0x2FEA JUMP JUMPDEST PUSH1 0xFB DUP1 SLOAD PUSH1 0xFF NOT AND SWAP1 SSTORE PUSH32 0x5DB9EE0A495BF2E6FF9C91A7834C1BA4FDD244A5E8AA4E537BD38AEAE4B073AA CALLER JUMPDEST PUSH1 0x40 MLOAD PUSH1 0x1 PUSH1 0x1 PUSH1 0xA0 SHL SUB SWAP1 SWAP2 AND DUP2 MSTORE PUSH1 0x20 ADD PUSH1 0x40 MLOAD DUP1 SWAP2 SUB SWAP1 LOG1 JUMP JUMPDEST PUSH2 0xF96 DUP2 PUSH2 0x3033 JUMP JUMPDEST PUSH1 0x1 PUSH1 0x1 PUSH1 0xA0 SHL SUB DUP3 AND PUSH2 0x261A JUMPI PUSH1 0x40 MLOAD PUSH3 0x461BCD PUSH1 0xE5 SHL DUP2 MSTORE PUSH1 0x20 PUSH1 0x4 DUP3 ADD DUP2 SWAP1 MSTORE PUSH1 0x24 DUP3 ADD MSTORE PUSH32 0x4552433732313A206D696E7420746F20746865207A65726F2061646472657373 PUSH1 0x44 DUP3 ADD MSTORE PUSH1 0x64 ADD PUSH2 0xC84 JUMP JUMPDEST PUSH0 DUP2 DUP2 MSTORE PUSH1 0x67 PUSH1 0x20 MSTORE PUSH1 0x40 SWAP1 KECCAK256 SLOAD PUSH1 0x1 PUSH1 0x1 PUSH1 0xA0 SHL SUB AND ISZERO PUSH2 0x267E JUMPI PUSH1 0x40 MLOAD PUSH3 0x461BCD PUSH1 0xE5 SHL DUP2 MSTORE PUSH1 0x20 PUSH1 0x4 DUP3 ADD MSTORE PUSH1 0x1C PUSH1 0x24 DUP3 ADD MSTORE PUSH32 0x4552433732313A20746F6B656E20616C7265616479206D696E74656400000000 PUSH1 0x44 DUP3 ADD MSTORE PUSH1 0x64 ADD PUSH2 0xC84 JUMP JUMPDEST PUSH2 0x268B PUSH0 DUP4 DUP4 PUSH1 0x1 PUSH2 0x2D08 JUMP JUMPDEST PUSH0 DUP2 DUP2 MSTORE PUSH1 0x67 PUSH1 0x20 MSTORE PUSH1 0x40 SWAP1 KECCAK256 SLOAD PUSH1 0x1 PUSH1 0x1 PUSH1 0xA0 SHL SUB AND ISZERO PUSH2 0x26EF JUMPI PUSH1 0x40 MLOAD PUSH3 0x461BCD PUSH1 0xE5 SHL DUP2 MSTORE PUSH1 0x20 PUSH1 0x4 DUP3 ADD MSTORE PUSH1 0x1C PUSH1 0x24 DUP3 ADD MSTORE PUSH32 0x4552433732313A20746F6B656E20616C7265616479206D696E74656400000000 PUSH1 0x44 DUP3 ADD MSTORE PUSH1 0x64 ADD PUSH2 0xC84 JUMP JUMPDEST PUSH1 0x1 PUSH1 0x1 PUSH1 0xA0 SHL SUB DUP3 AND PUSH0 DUP2 DUP2 MSTORE PUSH1 0x68 PUSH1 0x20 SWAP1 DUP2 MSTORE PUSH1 0x40 DUP1 DUP4 KECCAK256 DUP1 SLOAD PUSH1 0x1 ADD SWAP1 SSTORE DUP5 DUP4 MSTORE PUSH1 0x67 SWAP1 SWAP2 MSTORE DUP1 DUP3 KECCAK256 DUP1 SLOAD PUSH1 0x1 PUSH1 0x1 PUSH1 0xA0 SHL SUB NOT AND DUP5 OR SWAP1 SSTORE MLOAD DUP4 SWAP3 SWAP2 SWAP1 PUSH32 0xDDF252AD1BE2C89B69C2B068FC378DAA952BA7F163C4A11628F55A4DF523B3EF SWAP1 DUP3 SWAP1 LOG4 PUSH2 0xEB8 PUSH0 DUP4 DUP4 PUSH1 0x1 PUSH2 0x2D14 JUMP JUMPDEST PUSH0 DUP3 DUP2 MSTORE PUSH1 0x67 PUSH1 0x20 MSTORE PUSH1 0x40 SWAP1 KECCAK256 SLOAD PUSH1 0x1 PUSH1 0x1 PUSH1 0xA0 SHL SUB AND PUSH2 0x27DC JUMPI PUSH1 0x40 MLOAD PUSH3 0x461BCD PUSH1 0xE5 SHL DUP2 MSTORE PUSH1 0x20 PUSH1 0x4 DUP3 ADD MSTORE PUSH1 0x2E PUSH1 0x24 DUP3 ADD MSTORE PUSH32 0x45524337323155524953746F726167653A2055524920736574206F66206E6F6E PUSH1 0x44 DUP3 ADD MSTORE PUSH14 0x32BC34B9BA32B73A103A37B5B2B7 PUSH1 0x91 SHL PUSH1 0x64 DUP3 ADD MSTORE PUSH1 0x84 ADD PUSH2 0xC84 JUMP JUMPDEST PUSH0 DUP3 DUP2 MSTORE PUSH1 0xC9 PUSH1 0x20 MSTORE PUSH1 0x40 SWAP1 KECCAK256 PUSH2 0x27F3 DUP3 DUP3 PUSH2 0x4BBF JUMP JUMPDEST POP PUSH1 0x40 MLOAD DUP3 DUP2 MSTORE PUSH32 0xF8E1A15ABA9398E019F0B49DF1A4FDE98EE17AE345CB5F6B5E2C27F5033E8CE7 SWAP1 PUSH1 0x20 ADD PUSH1 0x40 MLOAD DUP1 SWAP2 SUB SWAP1 LOG1 POP POP JUMP JUMPDEST PUSH1 0x1 PUSH1 0x1 PUSH1 0xA0 SHL SUB DUP3 DUP2 AND PUSH0 DUP2 DUP2 MSTORE PUSH2 0x1F7 PUSH1 0x20 MSTORE PUSH1 0x40 DUP1 DUP3 KECCAK256 DUP1 SLOAD DUP7 DUP7 AND PUSH1 0x1 PUSH1 0x1 PUSH1 0xA0 SHL SUB NOT DUP3 AND DUP2 OR SWAP1 SWAP3 SSTORE SWAP2 MLOAD SWAP2 SWAP1 SWAP5 AND SWAP4 SWAP3 DUP5 SWAP3 SWAP1 SWAP2 PUSH32 0x3134E8A2E6D97E929A7E54011EA5485D7D196DD5F0BA4D4EF95803E8E3FC257F SWAP2 SWAP1 LOG4 PUSH2 0xD25 DUP2 DUP4 PUSH2 0x2898 DUP7 PUSH2 0x3071 JUMP JUMPDEST PUSH2 0x307B JUMP JUMPDEST PUSH2 0x28A5 PUSH2 0x31E6 JUMP JUMPDEST PUSH1 0xFB DUP1 SLOAD PUSH1 0xFF NOT AND PUSH1 0x1 OR SWAP1 SSTORE PUSH32 0x62E78CEA01BEE320CD4E420270B5EA74000D11B0C9F74754EBDBFC544B05A258 PUSH2 0x259E CALLER SWAP1 JUMP JUMPDEST PUSH1 0x60 PUSH2 0x1C5 DUP1 SLOAD PUSH2 0xA43 SWAP1 PUSH2 0x4A64 JUMP JUMPDEST PUSH1 0x60 PUSH2 0x1C6 DUP1 SLOAD PUSH2 0xA43 SWAP1 PUSH2 0x4A64 JUMP JUMPDEST PUSH0 PUSH6 0xFFFFFFFFFFFF DUP3 GT ISZERO PUSH2 0x24B6 JUMPI PUSH1 0x40 MLOAD PUSH3 0x461BCD PUSH1 0xE5 SHL DUP2 MSTORE PUSH1 0x20 PUSH1 0x4 DUP3 ADD MSTORE PUSH1 0x26 PUSH1 0x24 DUP3 ADD MSTORE PUSH32 0x53616665436173743A2076616C756520646F65736E27742066697420696E2034 PUSH1 0x44 DUP3 ADD MSTORE PUSH6 0x382062697473 PUSH1 0xD0 SHL PUSH1 0x64 DUP3 ADD MSTORE PUSH1 0x84 ADD PUSH2 0xC84 JUMP JUMPDEST DUP1 SLOAD PUSH0 SWAP1 DUP1 ISZERO PUSH2 0x2990 JUMPI PUSH2 0x2979 DUP4 PUSH2 0x2538 PUSH1 0x1 DUP5 PUSH2 0x4D4B JUMP JUMPDEST SLOAD PUSH5 0x100000000 SWAP1 DIV PUSH1 0x1 PUSH1 0x1 PUSH1 0xE0 SHL SUB AND PUSH2 0x2992 JUMP JUMPDEST PUSH0 JUMPDEST SWAP4 SWAP3 POP POP POP JUMP JUMPDEST DUP2 PUSH1 0x1 PUSH1 0x1 PUSH1 0xA0 SHL SUB AND DUP4 PUSH1 0x1 PUSH1 0x1 PUSH1 0xA0 SHL SUB AND SUB PUSH2 0x29FA JUMPI PUSH1 0x40 MLOAD PUSH3 0x461BCD PUSH1 0xE5 SHL DUP2 MSTORE PUSH1 0x20 PUSH1 0x4 DUP3 ADD MSTORE PUSH1 0x19 PUSH1 0x24 DUP3 ADD MSTORE PUSH32 0x4552433732313A20617070726F766520746F2063616C6C657200000000000000 PUSH1 0x44 DUP3 ADD MSTORE PUSH1 0x64 ADD PUSH2 0xC84 JUMP JUMPDEST PUSH1 0x1 PUSH1 0x1 PUSH1 0xA0 SHL SUB DUP4 DUP2 AND PUSH0 DUP2 DUP2 MSTORE PUSH1 0x6A PUSH1 0x20 SWAP1 DUP2 MSTORE PUSH1 0x40 DUP1 DUP4 KECCAK256 SWAP5 DUP8 AND DUP1 DUP5 MSTORE SWAP5 DUP3 MSTORE SWAP2 DUP3 SWAP1 KECCAK256 DUP1 SLOAD PUSH1 0xFF NOT AND DUP7 ISZERO ISZERO SWAP1 DUP2 OR SWAP1 SWAP2 SSTORE SWAP2 MLOAD SWAP2 DUP3 MSTORE PUSH32 0x17307EAB39AB6107E8899845AD3D59BD9653F200F220920489CA2B5937696C31 SWAP2 ADD PUSH1 0x40 MLOAD DUP1 SWAP2 SUB SWAP1 LOG3 POP POP POP JUMP JUMPDEST PUSH2 0x2A71 DUP5 DUP5 DUP5 PUSH2 0x2047 JUMP JUMPDEST PUSH2 0x2A7D DUP5 DUP5 DUP5 DUP5 PUSH2 0x322C JUMP JUMPDEST PUSH2 0x1A31 JUMPI PUSH1 0x40 MLOAD PUSH3 0x461BCD PUSH1 0xE5 SHL DUP2 MSTORE PUSH1 0x4 ADD PUSH2 0xC84 SWAP1 PUSH2 0x4D71 JUMP JUMPDEST PUSH0 PUSH2 0xA2E PUSH2 0x2AA5 PUSH2 0x224E JUMP JUMPDEST DUP4 PUSH1 0x40 MLOAD PUSH2 0x1901 PUSH1 0xF0 SHL DUP2 MSTORE PUSH1 0x2 DUP2 ADD SWAP3 SWAP1 SWAP3 MSTORE PUSH1 0x22 DUP3 ADD MSTORE PUSH1 0x42 SWAP1 KECCAK256 SWAP1 JUMP JUMPDEST PUSH0 DUP1 PUSH0 PUSH2 0x2AD4 DUP8 DUP8 DUP8 DUP8 PUSH2 0x3326 JUMP JUMPDEST SWAP2 POP SWAP2 POP PUSH2 0x2AE1 DUP2 PUSH2 0x33E3 JUMP JUMPDEST POP SWAP6 SWAP5 POP POP POP POP POP JUMP JUMPDEST PUSH1 0x1 PUSH1 0x1 PUSH1 0xA0 SHL SUB DUP2 AND PUSH0 SWAP1 DUP2 MSTORE PUSH2 0x1FA PUSH1 0x20 MSTORE PUSH1 0x40 SWAP1 KECCAK256 DUP1 SLOAD PUSH1 0x1 DUP2 ADD DUP3 SSTORE SWAP1 JUMPDEST POP SWAP2 SWAP1 POP JUMP JUMPDEST PUSH1 0x60 PUSH2 0x2B1E DUP3 PUSH2 0x1EFF JUMP JUMPDEST PUSH0 DUP3 DUP2 MSTORE PUSH1 0xC9 PUSH1 0x20 MSTORE PUSH1 0x40 DUP2 KECCAK256 DUP1 SLOAD PUSH2 0x2B36 SWAP1 PUSH2 0x4A64 JUMP JUMPDEST DUP1 PUSH1 0x1F ADD PUSH1 0x20 DUP1 SWAP2 DIV MUL PUSH1 0x20 ADD PUSH1 0x40 MLOAD SWAP1 DUP2 ADD PUSH1 0x40 MSTORE DUP1 SWAP3 SWAP2 SWAP1 DUP2 DUP2 MSTORE PUSH1 0x20 ADD DUP3 DUP1 SLOAD PUSH2 0x2B62 SWAP1 PUSH2 0x4A64 JUMP JUMPDEST DUP1 ISZERO PUSH2 0x2BAD JUMPI DUP1 PUSH1 0x1F LT PUSH2 0x2B84 JUMPI PUSH2 0x100 DUP1 DUP4 SLOAD DIV MUL DUP4 MSTORE SWAP2 PUSH1 0x20 ADD SWAP2 PUSH2 0x2BAD JUMP JUMPDEST DUP3 ADD SWAP2 SWAP1 PUSH0 MSTORE PUSH1 0x20 PUSH0 KECCAK256 SWAP1 JUMPDEST DUP2 SLOAD DUP2 MSTORE SWAP1 PUSH1 0x1 ADD SWAP1 PUSH1 0x20 ADD DUP1 DUP4 GT PUSH2 0x2B90 JUMPI DUP3 SWAP1 SUB PUSH1 0x1F AND DUP3 ADD SWAP2 JUMPDEST POP POP POP POP POP SWAP1 POP PUSH0 PUSH2 0x2BC9 PUSH1 0x40 DUP1 MLOAD PUSH1 0x20 DUP2 ADD SWAP1 SWAP2 MSTORE PUSH0 DUP2 MSTORE SWAP1 JUMP JUMPDEST SWAP1 POP DUP1 MLOAD PUSH0 SUB PUSH2 0x2BDA JUMPI POP SWAP3 SWAP2 POP POP JUMP JUMPDEST DUP2 MLOAD ISZERO PUSH2 0x2C0C JUMPI DUP1 DUP3 PUSH1 0x40 MLOAD PUSH1 0x20 ADD PUSH2 0x2BF4 SWAP3 SWAP2 SWAP1 PUSH2 0x4DDA JUMP JUMPDEST PUSH1 0x40 MLOAD PUSH1 0x20 DUP2 DUP4 SUB SUB DUP2 MSTORE SWAP1 PUSH1 0x40 MSTORE SWAP3 POP POP POP SWAP2 SWAP1 POP JUMP JUMPDEST PUSH2 0x203F DUP5 PUSH2 0x352C JUMP JUMPDEST PUSH2 0xEB8 DUP3 DUP3 PUSH1 0x40 MLOAD DUP1 PUSH1 0x20 ADD PUSH1 0x40 MSTORE DUP1 PUSH0 DUP2 MSTORE POP PUSH2 0x359B JUMP JUMPDEST PUSH0 SLOAD PUSH2 0x100 SWAP1 DIV PUSH1 0xFF AND PUSH2 0x2C54 JUMPI PUSH1 0x40 MLOAD PUSH3 0x461BCD PUSH1 0xE5 SHL DUP2 MSTORE PUSH1 0x4 ADD PUSH2 0xC84 SWAP1 PUSH2 0x4DEE JUMP JUMPDEST PUSH2 0xEB8 DUP3 DUP3 PUSH2 0x35CD JUMP JUMPDEST PUSH0 SLOAD PUSH2 0x100 SWAP1 DIV PUSH1 0xFF AND PUSH2 0x2C84 JUMPI PUSH1 0x40 MLOAD PUSH3 0x461BCD PUSH1 0xE5 SHL DUP2 MSTORE PUSH1 0x4 ADD PUSH2 0xC84 SWAP1 PUSH2 0x4DEE JUMP JUMPDEST JUMP JUMPDEST PUSH0 SLOAD PUSH2 0x100 SWAP1 DIV PUSH1 0xFF AND PUSH2 0x2CAC JUMPI PUSH1 0x40 MLOAD PUSH3 0x461BCD PUSH1 0xE5 SHL DUP2 MSTORE PUSH1 0x4 ADD PUSH2 0xC84 SWAP1 PUSH2 0x4DEE JUMP JUMPDEST PUSH2 0x2C84 PUSH2 0x360C JUMP JUMPDEST PUSH0 SLOAD PUSH2 0x100 SWAP1 DIV PUSH1 0xFF AND PUSH2 0x2CDA JUMPI PUSH1 0x40 MLOAD PUSH3 0x461BCD PUSH1 0xE5 SHL DUP2 MSTORE PUSH1 0x4 ADD PUSH2 0xC84 SWAP1 PUSH2 0x4DEE JUMP JUMPDEST PUSH2 0xEB8 DUP3 DUP3 PUSH2 0x363E JUMP JUMPDEST PUSH0 PUSH1 0x1 PUSH1 0x1 PUSH1 0xE0 SHL SUB NOT DUP3 AND PUSH4 0x24832483 PUSH1 0xE1 SHL EQ DUP1 PUSH2 0xA2E JUMPI POP PUSH2 0xA2E DUP3 PUSH2 0x368F JUMP JUMPDEST PUSH2 0x1A31 DUP5 DUP5 DUP5 DUP5 PUSH2 0x36B3 JUMP JUMPDEST PUSH2 0x1A31 DUP5 DUP5 DUP5 DUP5 PUSH2 0x3726 JUMP JUMPDEST PUSH2 0x2D2A DUP3 DUP3 PUSH2 0x198F JUMP JUMPDEST PUSH2 0xEB8 JUMPI PUSH2 0x2D37 DUP2 PUSH2 0x3736 JUMP JUMPDEST PUSH2 0x2D42 DUP4 PUSH1 0x20 PUSH2 0x3748 JUMP JUMPDEST PUSH1 0x40 MLOAD PUSH1 0x20 ADD PUSH2 0x2D53 SWAP3 SWAP2 SWAP1 PUSH2 0x4E39 JUMP JUMPDEST PUSH1 0x40 DUP1 MLOAD PUSH1 0x1F NOT DUP2 DUP5 SUB ADD DUP2 MSTORE SWAP1 DUP3 SWAP1 MSTORE PUSH3 0x461BCD PUSH1 0xE5 SHL DUP3 MSTORE PUSH2 0xC84 SWAP2 PUSH1 0x4 ADD PUSH2 0x443C JUMP JUMPDEST PUSH0 PUSH32 0x8B73C3C69BB8FE3D512ECC4CF759CC79239F7B179B0FFACAA9A75D522B39400F PUSH2 0x2DA3 PUSH2 0x38DD JUMP JUMPDEST PUSH2 0x2DAB PUSH2 0x3936 JUMP JUMPDEST PUSH1 0x40 DUP1 MLOAD PUSH1 0x20 DUP2 ADD SWAP5 SWAP1 SWAP5 MSTORE DUP4 ADD SWAP2 SWAP1 SWAP2 MSTORE PUSH1 0x60 DUP3 ADD MSTORE CHAINID PUSH1 0x80 DUP3 ADD MSTORE ADDRESS PUSH1 0xA0 DUP3 ADD MSTORE PUSH1 0xC0 ADD PUSH1 0x40 MLOAD PUSH1 0x20 DUP2 DUP4 SUB SUB DUP2 MSTORE SWAP1 PUSH1 0x40 MSTORE DUP1 MLOAD SWAP1 PUSH1 0x20 ADD KECCAK256 SWAP1 POP SWAP1 JUMP JUMPDEST PUSH1 0x1 PUSH1 0x1 PUSH1 0xA0 SHL SUB DUP2 AND EXTCODESIZE PUSH2 0x2E59 JUMPI PUSH1 0x40 MLOAD PUSH3 0x461BCD PUSH1 0xE5 SHL DUP2 MSTORE PUSH1 0x20 PUSH1 0x4 DUP3 ADD MSTORE PUSH1 0x2D PUSH1 0x24 DUP3 ADD MSTORE PUSH32 0x455243313936373A206E657720696D706C656D656E746174696F6E206973206E PUSH1 0x44 DUP3 ADD MSTORE PUSH13 0x1BDD08184818DBDB9D1C9858DD PUSH1 0x9A SHL PUSH1 0x64 DUP3 ADD MSTORE PUSH1 0x84 ADD PUSH2 0xC84 JUMP JUMPDEST PUSH0 DUP1 MLOAD PUSH1 0x20 PUSH2 0x4FAC DUP4 CODECOPY DUP2 MLOAD SWAP2 MSTORE DUP1 SLOAD PUSH1 0x1 PUSH1 0x1 PUSH1 0xA0 SHL SUB NOT AND PUSH1 0x1 PUSH1 0x1 PUSH1 0xA0 SHL SUB SWAP3 SWAP1 SWAP3 AND SWAP2 SWAP1 SWAP2 OR SWAP1 SSTORE JUMP JUMPDEST PUSH2 0x2E90 DUP4 PUSH2 0x3967 JUMP JUMPDEST PUSH0 DUP3 MLOAD GT DUP1 PUSH2 0x2E9C JUMPI POP DUP1 JUMPDEST ISZERO PUSH2 0xD25 JUMPI PUSH2 0x1A31 DUP4 DUP4 PUSH2 0x39A6 JUMP JUMPDEST PUSH0 DUP2 PUSH0 SUB PUSH2 0x2EBA JUMPI POP PUSH0 SWAP2 SWAP1 POP JUMP JUMPDEST PUSH0 PUSH1 0x1 PUSH2 0x2EC6 DUP5 PUSH2 0x39CB JUMP JUMPDEST SWAP1 SHR PUSH1 0x1 SWAP1 SHL SWAP1 POP PUSH1 0x1 DUP2 DUP5 DUP2 PUSH2 0x2EDF JUMPI PUSH2 0x2EDF PUSH2 0x4E8E JUMP JUMPDEST DIV DUP3 ADD SWAP1 SHR SWAP1 POP PUSH1 0x1 DUP2 DUP5 DUP2 PUSH2 0x2EF7 JUMPI PUSH2 0x2EF7 PUSH2 0x4E8E JUMP JUMPDEST DIV DUP3 ADD SWAP1 SHR SWAP1 POP PUSH1 0x1 DUP2 DUP5 DUP2 PUSH2 0x2F0F JUMPI PUSH2 0x2F0F PUSH2 0x4E8E JUMP JUMPDEST DIV DUP3 ADD SWAP1 SHR SWAP1 POP PUSH1 0x1 DUP2 DUP5 DUP2 PUSH2 0x2F27 JUMPI PUSH2 0x2F27 PUSH2 0x4E8E JUMP JUMPDEST DIV DUP3 ADD SWAP1 SHR SWAP1 POP PUSH1 0x1 DUP2 DUP5 DUP2 PUSH2 0x2F3F JUMPI PUSH2 0x2F3F PUSH2 0x4E8E JUMP JUMPDEST DIV DUP3 ADD SWAP1 SHR SWAP1 POP PUSH1 0x1 DUP2 DUP5 DUP2 PUSH2 0x2F57 JUMPI PUSH2 0x2F57 PUSH2 0x4E8E JUMP JUMPDEST DIV DUP3 ADD SWAP1 SHR SWAP1 POP PUSH1 0x1 DUP2 DUP5 DUP2 PUSH2 0x2F6F JUMPI PUSH2 0x2F6F PUSH2 0x4E8E JUMP JUMPDEST DIV DUP3 ADD SWAP1 SHR SWAP1 POP PUSH2 0x2992 DUP2 DUP3 DUP6 DUP2 PUSH2 0x2F89 JUMPI PUSH2 0x2F89 PUSH2 0x4E8E JUMP JUMPDEST DIV PUSH2 0x3A5E JUMP JUMPDEST PUSH0 JUMPDEST DUP2 DUP4 LT ISZERO PUSH2 0x2FE2 JUMPI PUSH0 PUSH2 0x2FA4 DUP5 DUP5 PUSH2 0x3A73 JUMP JUMPDEST PUSH0 DUP8 DUP2 MSTORE PUSH1 0x20 SWAP1 KECCAK256 SWAP1 SWAP2 POP PUSH4 0xFFFFFFFF DUP7 AND SWAP1 DUP3 ADD SLOAD PUSH4 0xFFFFFFFF AND GT ISZERO PUSH2 0x2FCE JUMPI DUP1 SWAP3 POP PUSH2 0x2FDC JUMP JUMPDEST PUSH2 0x2FD9 DUP2 PUSH1 0x1 PUSH2 0x4D5E JUMP JUMPDEST SWAP4 POP JUMPDEST POP PUSH2 0x2F91 JUMP JUMPDEST POP SWAP4 SWAP3 POP POP POP JUMP JUMPDEST PUSH1 0xFB SLOAD PUSH1 0xFF AND PUSH2 0x2C84 JUMPI PUSH1 0x40 MLOAD PUSH3 0x461BCD PUSH1 0xE5 SHL DUP2 MSTORE PUSH1 0x20 PUSH1 0x4 DUP3 ADD MSTORE PUSH1 0x14 PUSH1 0x24 DUP3 ADD MSTORE PUSH20 0x14185D5CD8589B194E881B9BDD081C185D5CD959 PUSH1 0x62 SHL PUSH1 0x44 DUP3 ADD MSTORE PUSH1 0x64 ADD PUSH2 0xC84 JUMP JUMPDEST PUSH2 0x303C DUP2 PUSH2 0x3A8D JUMP JUMPDEST PUSH0 DUP2 DUP2 MSTORE PUSH1 0xC9 PUSH1 0x20 MSTORE PUSH1 0x40 SWAP1 KECCAK256 DUP1 SLOAD PUSH2 0x3054 SWAP1 PUSH2 0x4A64 JUMP JUMPDEST ISZERO SWAP1 POP PUSH2 0xF96 JUMPI PUSH0 DUP2 DUP2 MSTORE PUSH1 0xC9 PUSH1 0x20 MSTORE PUSH1 0x40 DUP2 KECCAK256 PUSH2 0xF96 SWAP2 PUSH2 0x4398 JUMP JUMPDEST PUSH0 PUSH2 0xA2E DUP3 PUSH2 0x147D JUMP JUMPDEST DUP2 PUSH1 0x1 PUSH1 0x1 PUSH1 0xA0 SHL SUB AND DUP4 PUSH1 0x1 PUSH1 0x1 PUSH1 0xA0 SHL SUB AND EQ ISZERO DUP1 ISZERO PUSH2 0x309C JUMPI POP PUSH0 DUP2 GT JUMPDEST ISZERO PUSH2 0xD25 JUMPI PUSH1 0x1 PUSH1 0x1 PUSH1 0xA0 SHL SUB DUP4 AND ISZERO PUSH2 0x3144 JUMPI PUSH1 0x1 PUSH1 0x1 PUSH1 0xA0 SHL SUB DUP4 AND PUSH0 SWAP1 DUP2 MSTORE PUSH2 0x1F8 PUSH1 0x20 MSTORE PUSH1 0x40 DUP2 KECCAK256 DUP2 SWAP1 PUSH2 0x30DF SWAP1 PUSH2 0x3B35 PUSH2 0x30DA DUP7 PUSH2 0x3B40 JUMP JUMPDEST PUSH2 0x3BA8 JUMP JUMPDEST PUSH1 0x1 PUSH1 0x1 PUSH1 0xE0 SHL SUB AND SWAP2 POP PUSH1 0x1 PUSH1 0x1 PUSH1 0xE0 SHL SUB AND SWAP2 POP DUP5 PUSH1 0x1 PUSH1 0x1 PUSH1 0xA0 SHL SUB AND PUSH32 0xDEC2BACDD2F05B59DE34DA9B523DFF8BE42E5E38E818C82FDB0BAE774387A724 DUP4 DUP4 PUSH1 0x40 MLOAD PUSH2 0x3139 SWAP3 SWAP2 SWAP1 SWAP2 DUP3 MSTORE PUSH1 0x20 DUP3 ADD MSTORE PUSH1 0x40 ADD SWAP1 JUMP JUMPDEST PUSH1 0x40 MLOAD DUP1 SWAP2 SUB SWAP1 LOG2 POP POP JUMPDEST PUSH1 0x1 PUSH1 0x1 PUSH1 0xA0 SHL SUB DUP3 AND ISZERO PUSH2 0xD25 JUMPI PUSH1 0x1 PUSH1 0x1 PUSH1 0xA0 SHL SUB DUP3 AND PUSH0 SWAP1 DUP2 MSTORE PUSH2 0x1F8 PUSH1 0x20 MSTORE PUSH1 0x40 DUP2 KECCAK256 DUP2 SWAP1 PUSH2 0x317D SWAP1 PUSH2 0x3BF0 PUSH2 0x30DA DUP7 PUSH2 0x3B40 JUMP JUMPDEST PUSH1 0x1 PUSH1 0x1 PUSH1 0xE0 SHL SUB AND SWAP2 POP PUSH1 0x1 PUSH1 0x1 PUSH1 0xE0 SHL SUB AND SWAP2 POP DUP4 PUSH1 0x1 PUSH1 0x1 PUSH1 0xA0 SHL SUB AND PUSH32 0xDEC2BACDD2F05B59DE34DA9B523DFF8BE42E5E38E818C82FDB0BAE774387A724 DUP4 DUP4 PUSH1 0x40 MLOAD PUSH2 0x31D7 SWAP3 SWAP2 SWAP1 SWAP2 DUP3 MSTORE PUSH1 0x20 DUP3 ADD MSTORE PUSH1 0x40 ADD SWAP1 JUMP JUMPDEST PUSH1 0x40 MLOAD DUP1 SWAP2 SUB SWAP1 LOG2 POP POP POP POP POP JUMP JUMPDEST PUSH1 0xFB SLOAD PUSH1 0xFF AND ISZERO PUSH2 0x2C84 JUMPI PUSH1 0x40 MLOAD PUSH3 0x461BCD PUSH1 0xE5 SHL DUP2 MSTORE PUSH1 0x20 PUSH1 0x4 DUP3 ADD MSTORE PUSH1 0x10 PUSH1 0x24 DUP3 ADD MSTORE PUSH16 0x14185D5CD8589B194E881C185D5CD959 PUSH1 0x82 SHL PUSH1 0x44 DUP3 ADD MSTORE PUSH1 0x64 ADD PUSH2 0xC84 JUMP JUMPDEST PUSH0 PUSH1 0x1 PUSH1 0x1 PUSH1 0xA0 SHL SUB DUP5 AND EXTCODESIZE ISZERO PUSH2 0x331E JUMPI PUSH1 0x40 MLOAD PUSH4 0xA85BD01 PUSH1 0xE1 SHL DUP2 MSTORE PUSH1 0x1 PUSH1 0x1 PUSH1 0xA0 SHL SUB DUP6 AND SWAP1 PUSH4 0x150B7A02 SWAP1 PUSH2 0x326F SWAP1 CALLER SWAP1 DUP10 SWAP1 DUP9 SWAP1 DUP9 SWAP1 PUSH1 0x4 ADD PUSH2 0x4EA2 JUMP JUMPDEST PUSH1 0x20 PUSH1 0x40 MLOAD DUP1 DUP4 SUB DUP2 PUSH0 DUP8 GAS CALL SWAP3 POP POP POP DUP1 ISZERO PUSH2 0x32A9 JUMPI POP PUSH1 0x40 DUP1 MLOAD PUSH1 0x1F RETURNDATASIZE SWAP1 DUP2 ADD PUSH1 0x1F NOT AND DUP3 ADD SWAP1 SWAP3 MSTORE PUSH2 0x32A6 SWAP2 DUP2 ADD SWAP1 PUSH2 0x4ED4 JUMP JUMPDEST PUSH1 0x1 JUMPDEST PUSH2 0x3304 JUMPI RETURNDATASIZE DUP1 DUP1 ISZERO PUSH2 0x32D6 JUMPI PUSH1 0x40 MLOAD SWAP2 POP PUSH1 0x1F NOT PUSH1 0x3F RETURNDATASIZE ADD AND DUP3 ADD PUSH1 0x40 MSTORE RETURNDATASIZE DUP3 MSTORE RETURNDATASIZE PUSH0 PUSH1 0x20 DUP5 ADD RETURNDATACOPY PUSH2 0x32DB JUMP JUMPDEST PUSH1 0x60 SWAP2 POP JUMPDEST POP DUP1 MLOAD PUSH0 SUB PUSH2 0x32FC JUMPI PUSH1 0x40 MLOAD PUSH3 0x461BCD PUSH1 0xE5 SHL DUP2 MSTORE PUSH1 0x4 ADD PUSH2 0xC84 SWAP1 PUSH2 0x4D71 JUMP JUMPDEST DUP1 MLOAD DUP2 PUSH1 0x20 ADD REVERT JUMPDEST PUSH1 0x1 PUSH1 0x1 PUSH1 0xE0 SHL SUB NOT AND PUSH4 0xA85BD01 PUSH1 0xE1 SHL EQ SWAP1 POP PUSH2 0x203F JUMP JUMPDEST POP PUSH1 0x1 PUSH2 0x203F JUMP JUMPDEST PUSH0 DUP1 PUSH32 0x7FFFFFFFFFFFFFFFFFFFFFFFFFFFFFFF5D576E7357A4501DDFE92F46681B20A0 DUP4 GT ISZERO PUSH2 0x335B JUMPI POP PUSH0 SWAP1 POP PUSH1 0x3 PUSH2 0x33DA JUMP JUMPDEST PUSH1 0x40 DUP1 MLOAD PUSH0 DUP1 DUP3 MSTORE PUSH1 0x20 DUP3 ADD DUP1 DUP5 MSTORE DUP10 SWAP1 MSTORE PUSH1 0xFF DUP9 AND SWAP3 DUP3 ADD SWAP3 SWAP1 SWAP3 MSTORE PUSH1 0x60 DUP2 ADD DUP7 SWAP1 MSTORE PUSH1 0x80 DUP2 ADD DUP6 SWAP1 MSTORE PUSH1 0x1 SWAP1 PUSH1 0xA0 ADD PUSH1 0x20 PUSH1 0x40 MLOAD PUSH1 0x20 DUP2 SUB SWAP1 DUP1 DUP5 SUB SWAP1 DUP6 GAS STATICCALL ISZERO DUP1 ISZERO PUSH2 0x33AC JUMPI RETURNDATASIZE PUSH0 DUP1 RETURNDATACOPY RETURNDATASIZE PUSH0 REVERT JUMPDEST POP POP PUSH1 0x40 MLOAD PUSH1 0x1F NOT ADD MLOAD SWAP2 POP POP PUSH1 0x1 PUSH1 0x1 PUSH1 0xA0 SHL SUB DUP2 AND PUSH2 0x33D4 JUMPI PUSH0 PUSH1 0x1 SWAP3 POP SWAP3 POP POP PUSH2 0x33DA JUMP JUMPDEST SWAP2 POP PUSH0 SWAP1 POP JUMPDEST SWAP5 POP SWAP5 SWAP3 POP POP POP JUMP JUMPDEST PUSH0 DUP2 PUSH1 0x4 DUP2 GT ISZERO PUSH2 0x33F6 JUMPI PUSH2 0x33F6 PUSH2 0x4EEF JUMP JUMPDEST SUB PUSH2 0x33FE JUMPI POP JUMP JUMPDEST PUSH1 0x1 DUP2 PUSH1 0x4 DUP2 GT ISZERO PUSH2 0x3412 JUMPI PUSH2 0x3412 PUSH2 0x4EEF JUMP JUMPDEST SUB PUSH2 0x345F JUMPI PUSH1 0x40 MLOAD PUSH3 0x461BCD PUSH1 0xE5 SHL DUP2 MSTORE PUSH1 0x20 PUSH1 0x4 DUP3 ADD MSTORE PUSH1 0x18 PUSH1 0x24 DUP3 ADD MSTORE PUSH32 0x45434453413A20696E76616C6964207369676E61747572650000000000000000 PUSH1 0x44 DUP3 ADD MSTORE PUSH1 0x64 ADD PUSH2 0xC84 JUMP JUMPDEST PUSH1 0x2 DUP2 PUSH1 0x4 DUP2 GT ISZERO PUSH2 0x3473 JUMPI PUSH2 0x3473 PUSH2 0x4EEF JUMP JUMPDEST SUB PUSH2 0x34C0 JUMPI PUSH1 0x40 MLOAD PUSH3 0x461BCD PUSH1 0xE5 SHL DUP2 MSTORE PUSH1 0x20 PUSH1 0x4 DUP3 ADD MSTORE PUSH1 0x1F PUSH1 0x24 DUP3 ADD MSTORE PUSH32 0x45434453413A20696E76616C6964207369676E6174757265206C656E67746800 PUSH1 0x44 DUP3 ADD MSTORE PUSH1 0x64 ADD PUSH2 0xC84 JUMP JUMPDEST PUSH1 0x3 DUP2 PUSH1 0x4 DUP2 GT ISZERO PUSH2 0x34D4 JUMPI PUSH2 0x34D4 PUSH2 0x4EEF JUMP JUMPDEST SUB PUSH2 0xF96 JUMPI PUSH1 0x40 MLOAD PUSH3 0x461BCD PUSH1 0xE5 SHL DUP2 MSTORE PUSH1 0x20 PUSH1 0x4 DUP3 ADD MSTORE PUSH1 0x22 PUSH1 0x24 DUP3 ADD MSTORE PUSH32 0x45434453413A20696E76616C6964207369676E6174757265202773272076616C PUSH1 0x44 DUP3 ADD MSTORE PUSH2 0x7565 PUSH1 0xF0 SHL PUSH1 0x64 DUP3 ADD MSTORE PUSH1 0x84 ADD PUSH2 0xC84 JUMP JUMPDEST PUSH1 0x60 PUSH2 0x3537 DUP3 PUSH2 0x1EFF JUMP JUMPDEST PUSH0 PUSH2 0x354C PUSH1 0x40 DUP1 MLOAD PUSH1 0x20 DUP2 ADD SWAP1 SWAP2 MSTORE PUSH0 DUP2 MSTORE SWAP1 JUMP JUMPDEST SWAP1 POP PUSH0 DUP2 MLOAD GT PUSH2 0x356A JUMPI PUSH1 0x40 MLOAD DUP1 PUSH1 0x20 ADD PUSH1 0x40 MSTORE DUP1 PUSH0 DUP2 MSTORE POP PUSH2 0x2992 JUMP JUMPDEST DUP1 PUSH2 0x3574 DUP5 PUSH2 0x3BFB JUMP JUMPDEST PUSH1 0x40 MLOAD PUSH1 0x20 ADD PUSH2 0x3585 SWAP3 SWAP2 SWAP1 PUSH2 0x4DDA JUMP JUMPDEST PUSH1 0x40 MLOAD PUSH1 0x20 DUP2 DUP4 SUB SUB DUP2 MSTORE SWAP1 PUSH1 0x40 MSTORE SWAP4 SWAP3 POP POP POP JUMP JUMPDEST PUSH2 0x35A5 DUP4 DUP4 PUSH2 0x25C4 JUMP JUMPDEST PUSH2 0x35B1 PUSH0 DUP5 DUP5 DUP5 PUSH2 0x322C JUMP JUMPDEST PUSH2 0xD25 JUMPI PUSH1 0x40 MLOAD PUSH3 0x461BCD PUSH1 0xE5 SHL DUP2 MSTORE PUSH1 0x4 ADD PUSH2 0xC84 SWAP1 PUSH2 0x4D71 JUMP JUMPDEST PUSH0 SLOAD PUSH2 0x100 SWAP1 DIV PUSH1 0xFF AND PUSH2 0x35F3 JUMPI PUSH1 0x40 MLOAD PUSH3 0x461BCD PUSH1 0xE5 SHL DUP2 MSTORE PUSH1 0x4 ADD PUSH2 0xC84 SWAP1 PUSH2 0x4DEE JUMP JUMPDEST PUSH1 0x65 PUSH2 0x35FF DUP4 DUP3 PUSH2 0x4BBF JUMP JUMPDEST POP PUSH1 0x66 PUSH2 0xD25 DUP3 DUP3 PUSH2 0x4BBF JUMP JUMPDEST PUSH0 SLOAD PUSH2 0x100 SWAP1 DIV PUSH1 0xFF AND PUSH2 0x3632 JUMPI PUSH1 0x40 MLOAD PUSH3 0x461BCD PUSH1 0xE5 SHL DUP2 MSTORE PUSH1 0x4 ADD PUSH2 0xC84 SWAP1 PUSH2 0x4DEE JUMP JUMPDEST PUSH1 0xFB DUP1 SLOAD PUSH1 0xFF NOT AND SWAP1 SSTORE JUMP JUMPDEST PUSH0 SLOAD PUSH2 0x100 SWAP1 DIV PUSH1 0xFF AND PUSH2 0x3664 JUMPI PUSH1 0x40 MLOAD PUSH3 0x461BCD PUSH1 0xE5 SHL DUP2 MSTORE PUSH1 0x4 ADD PUSH2 0xC84 SWAP1 PUSH2 0x4DEE JUMP JUMPDEST PUSH2 0x1C5 PUSH2 0x3671 DUP4 DUP3 PUSH2 0x4BBF JUMP JUMPDEST POP PUSH2 0x1C6 PUSH2 0x367F DUP3 DUP3 PUSH2 0x4BBF JUMP JUMPDEST POP POP PUSH0 PUSH2 0x1C3 DUP2 SWAP1 SSTORE PUSH2 0x1C4 SSTORE POP JUMP JUMPDEST PUSH0 PUSH1 0x1 PUSH1 0x1 PUSH1 0xE0 SHL SUB NOT DUP3 AND PUSH4 0x780E9D63 PUSH1 0xE0 SHL EQ DUP1 PUSH2 0xA2E JUMPI POP PUSH2 0xA2E DUP3 PUSH2 0x3C8A JUMP JUMPDEST PUSH2 0x36BF DUP5 DUP5 DUP5 DUP5 PUSH2 0x3CD9 JUMP JUMPDEST PUSH1 0xFB SLOAD PUSH1 0xFF AND ISZERO PUSH2 0x1A31 JUMPI PUSH1 0x40 MLOAD PUSH3 0x461BCD PUSH1 0xE5 SHL DUP2 MSTORE PUSH1 0x20 PUSH1 0x4 DUP3 ADD MSTORE PUSH1 0x2B PUSH1 0x24 DUP3 ADD MSTORE PUSH32 0x4552433732315061757361626C653A20746F6B656E207472616E736665722077 PUSH1 0x44 DUP3 ADD MSTORE PUSH11 0x1A1A5B19481C185D5CD959 PUSH1 0xAA SHL PUSH1 0x64 DUP3 ADD MSTORE PUSH1 0x84 ADD PUSH2 0xC84 JUMP JUMPDEST PUSH2 0x3731 DUP5 DUP5 DUP4 PUSH2 0x3E05 JUMP JUMPDEST PUSH2 0x1A31 JUMP JUMPDEST PUSH1 0x60 PUSH2 0xA2E PUSH1 0x1 PUSH1 0x1 PUSH1 0xA0 SHL SUB DUP4 AND PUSH1 0x14 JUMPDEST PUSH1 0x60 PUSH0 PUSH2 0x3756 DUP4 PUSH1 0x2 PUSH2 0x4F03 JUMP JUMPDEST PUSH2 0x3761 SWAP1 PUSH1 0x2 PUSH2 0x4D5E JUMP JUMPDEST PUSH1 0x1 PUSH1 0x1 PUSH1 0x40 SHL SUB DUP2 GT ISZERO PUSH2 0x3778 JUMPI PUSH2 0x3778 PUSH2 0x4552 JUMP JUMPDEST PUSH1 0x40 MLOAD SWAP1 DUP1 DUP3 MSTORE DUP1 PUSH1 0x1F ADD PUSH1 0x1F NOT AND PUSH1 0x20 ADD DUP3 ADD PUSH1 0x40 MSTORE DUP1 ISZERO PUSH2 0x37A2 JUMPI PUSH1 0x20 DUP3 ADD DUP2 DUP1 CALLDATASIZE DUP4 CALLDATACOPY ADD SWAP1 POP JUMPDEST POP SWAP1 POP PUSH1 0x3 PUSH1 0xFC SHL DUP2 PUSH0 DUP2 MLOAD DUP2 LT PUSH2 0x37BC JUMPI PUSH2 0x37BC PUSH2 0x4C79 JUMP JUMPDEST PUSH1 0x20 ADD ADD SWAP1 PUSH1 0x1 PUSH1 0x1 PUSH1 0xF8 SHL SUB NOT AND SWAP1 DUP2 PUSH0 BYTE SWAP1 MSTORE8 POP PUSH1 0xF PUSH1 0xFB SHL DUP2 PUSH1 0x1 DUP2 MLOAD DUP2 LT PUSH2 0x37EA JUMPI PUSH2 0x37EA PUSH2 0x4C79 JUMP JUMPDEST PUSH1 0x20 ADD ADD SWAP1 PUSH1 0x1 PUSH1 0x1 PUSH1 0xF8 SHL SUB NOT AND SWAP1 DUP2 PUSH0 BYTE SWAP1 MSTORE8 POP PUSH0 PUSH2 0x380C DUP5 PUSH1 0x2 PUSH2 0x4F03 JUMP JUMPDEST PUSH2 0x3817 SWAP1 PUSH1 0x1 PUSH2 0x4D5E JUMP JUMPDEST SWAP1 POP JUMPDEST PUSH1 0x1 DUP2 GT ISZERO PUSH2 0x388E JUMPI PUSH16 0x181899199A1A9B1B9C1CB0B131B232B3 PUSH1 0x81 SHL DUP6 PUSH1 0xF AND PUSH1 0x10 DUP2 LT PUSH2 0x384B JUMPI PUSH2 0x384B PUSH2 0x4C79 JUMP JUMPDEST BYTE PUSH1 0xF8 SHL DUP3 DUP3 DUP2 MLOAD DUP2 LT PUSH2 0x3861 JUMPI PUSH2 0x3861 PUSH2 0x4C79 JUMP JUMPDEST PUSH1 0x20 ADD ADD SWAP1 PUSH1 0x1 PUSH1 0x1 PUSH1 0xF8 SHL SUB NOT AND SWAP1 DUP2 PUSH0 BYTE SWAP1 MSTORE8 POP PUSH1 0x4 SWAP5 SWAP1 SWAP5 SHR SWAP4 PUSH2 0x3887 DUP2 PUSH2 0x4F1A JUMP JUMPDEST SWAP1 POP PUSH2 0x381A JUMP JUMPDEST POP DUP4 ISZERO PUSH2 0x2992 JUMPI PUSH1 0x40 MLOAD PUSH3 0x461BCD PUSH1 0xE5 SHL DUP2 MSTORE PUSH1 0x20 PUSH1 0x4 DUP3 ADD DUP2 SWAP1 MSTORE PUSH1 0x24 DUP3 ADD MSTORE PUSH32 0x537472696E67733A20686578206C656E67746820696E73756666696369656E74 PUSH1 0x44 DUP3 ADD MSTORE PUSH1 0x64 ADD PUSH2 0xC84 JUMP JUMPDEST PUSH0 DUP1 PUSH2 0x38E7 PUSH2 0x28DA JUMP JUMPDEST DUP1 MLOAD SWAP1 SWAP2 POP ISZERO PUSH2 0x38FE JUMPI DUP1 MLOAD PUSH1 0x20 SWAP1 SWAP2 ADD KECCAK256 SWAP2 SWAP1 POP JUMP JUMPDEST PUSH2 0x1C3 SLOAD DUP1 ISZERO PUSH2 0x390E JUMPI SWAP3 SWAP2 POP POP JUMP JUMPDEST PUSH32 0xC5D2460186F7233C927E7DB2DCC703C0E500B653CA82273B7BFAD8045D85A470 SWAP3 POP POP POP SWAP1 JUMP JUMPDEST PUSH0 DUP1 PUSH2 0x3940 PUSH2 0x28EA JUMP JUMPDEST DUP1 MLOAD SWAP1 SWAP2 POP ISZERO PUSH2 0x3957 JUMPI DUP1 MLOAD PUSH1 0x20 SWAP1 SWAP2 ADD KECCAK256 SWAP2 SWAP1 POP JUMP JUMPDEST PUSH2 0x1C4 SLOAD DUP1 ISZERO PUSH2 0x390E JUMPI SWAP3 SWAP2 POP POP JUMP JUMPDEST PUSH2 0x3970 DUP2 PUSH2 0x2DEC JUMP JUMPDEST PUSH1 0x40 MLOAD PUSH1 0x1 PUSH1 0x1 PUSH1 0xA0 SHL SUB DUP3 AND SWAP1 PUSH32 0xBC7CD75A20EE27FD9ADEBAB32041F755214DBC6BFFA90CC0225B39DA2E5C2D3B SWAP1 PUSH0 SWAP1 LOG2 POP JUMP JUMPDEST PUSH1 0x60 PUSH2 0x2992 DUP4 DUP4 PUSH1 0x40 MLOAD DUP1 PUSH1 0x60 ADD PUSH1 0x40 MSTORE DUP1 PUSH1 0x27 DUP2 MSTORE PUSH1 0x20 ADD PUSH2 0x4FEC PUSH1 0x27 SWAP2 CODECOPY PUSH2 0x3E7D JUMP JUMPDEST PUSH0 DUP1 PUSH1 0x80 DUP4 SWAP1 SHR ISZERO PUSH2 0x39DF JUMPI PUSH1 0x80 SWAP3 DUP4 SHR SWAP3 ADD JUMPDEST PUSH1 0x40 DUP4 SWAP1 SHR ISZERO PUSH2 0x39F1 JUMPI PUSH1 0x40 SWAP3 DUP4 SHR SWAP3 ADD JUMPDEST PUSH1 0x20 DUP4 SWAP1 SHR ISZERO PUSH2 0x3A03 JUMPI PUSH1 0x20 SWAP3 DUP4 SHR SWAP3 ADD JUMPDEST PUSH1 0x10 DUP4 SWAP1 SHR ISZERO PUSH2 0x3A15 JUMPI PUSH1 0x10 SWAP3 DUP4 SHR SWAP3 ADD JUMPDEST PUSH1 0x8 DUP4 SWAP1 SHR ISZERO PUSH2 0x3A27 JUMPI PUSH1 0x8 SWAP3 DUP4 SHR SWAP3 ADD JUMPDEST PUSH1 0x4 DUP4 SWAP1 SHR ISZERO PUSH2 0x3A39 JUMPI PUSH1 0x4 SWAP3 DUP4 SHR SWAP3 ADD JUMPDEST PUSH1 0x2 DUP4 SWAP1 SHR ISZERO PUSH2 0x3A4B JUMPI PUSH1 0x2 SWAP3 DUP4 SHR SWAP3 ADD JUMPDEST PUSH1 0x1 DUP4 SWAP1 SHR ISZERO PUSH2 0xA2E JUMPI PUSH1 0x1 ADD SWAP3 SWAP2 POP POP JUMP JUMPDEST PUSH0 DUP2 DUP4 LT PUSH2 0x3A6C JUMPI DUP2 PUSH2 0x2992 JUMP JUMPDEST POP SWAP1 SWAP2 SWAP1 POP JUMP JUMPDEST PUSH0 PUSH2 0x3A81 PUSH1 0x2 DUP5 DUP5 XOR PUSH2 0x4F2F JUMP JUMPDEST PUSH2 0x2992 SWAP1 DUP5 DUP5 AND PUSH2 0x4D5E JUMP JUMPDEST PUSH0 PUSH2 0x3A97 DUP3 PUSH2 0x141E JUMP JUMPDEST SWAP1 POP PUSH2 0x3AA6 DUP2 PUSH0 DUP5 PUSH1 0x1 PUSH2 0x2D08 JUMP JUMPDEST PUSH2 0x3AAF DUP3 PUSH2 0x141E JUMP JUMPDEST PUSH0 DUP4 DUP2 MSTORE PUSH1 0x69 PUSH1 0x20 SWAP1 DUP2 MSTORE PUSH1 0x40 DUP1 DUP4 KECCAK256 DUP1 SLOAD PUSH1 0x1 PUSH1 0x1 PUSH1 0xA0 SHL SUB NOT SWAP1 DUP2 AND SWAP1 SWAP2 SSTORE PUSH1 0x1 PUSH1 0x1 PUSH1 0xA0 SHL SUB DUP6 AND DUP1 DUP6 MSTORE PUSH1 0x68 DUP5 MSTORE DUP3 DUP6 KECCAK256 DUP1 SLOAD PUSH0 NOT ADD SWAP1 SSTORE DUP8 DUP6 MSTORE PUSH1 0x67 SWAP1 SWAP4 MSTORE DUP2 DUP5 KECCAK256 DUP1 SLOAD SWAP1 SWAP2 AND SWAP1 SSTORE MLOAD SWAP3 SWAP4 POP DUP5 SWAP3 PUSH32 0xDDF252AD1BE2C89B69C2B068FC378DAA952BA7F163C4A11628F55A4DF523B3EF SWAP1 DUP4 SWAP1 LOG4 PUSH2 0xEB8 DUP2 PUSH0 DUP5 PUSH1 0x1 PUSH2 0x2D14 JUMP JUMPDEST PUSH0 PUSH2 0x2992 DUP3 DUP5 PUSH2 0x4F4E JUMP JUMPDEST PUSH0 PUSH1 0x1 PUSH1 0x1 PUSH1 0xE0 SHL SUB DUP3 GT ISZERO PUSH2 0x24B6 JUMPI PUSH1 0x40 MLOAD PUSH3 0x461BCD PUSH1 0xE5 SHL DUP2 MSTORE PUSH1 0x20 PUSH1 0x4 DUP3 ADD MSTORE PUSH1 0x27 PUSH1 0x24 DUP3 ADD MSTORE PUSH32 0x53616665436173743A2076616C756520646F65736E27742066697420696E2032 PUSH1 0x44 DUP3 ADD MSTORE PUSH7 0x32342062697473 PUSH1 0xC8 SHL PUSH1 0x64 DUP3 ADD MSTORE PUSH1 0x84 ADD PUSH2 0xC84 JUMP JUMPDEST PUSH0 DUP1 PUSH2 0x3BE3 PUSH2 0x3BC5 PUSH2 0x3BB8 PUSH2 0x19BA JUMP JUMPDEST PUSH6 0xFFFFFFFFFFFF AND PUSH2 0x2452 JUMP JUMPDEST PUSH2 0x3BDB PUSH2 0x3BD1 DUP9 PUSH2 0x2960 JUMP JUMPDEST DUP7 DUP9 PUSH4 0xFFFFFFFF AND JUMP JUMPDEST DUP8 SWAP2 SWAP1 PUSH2 0x3EF1 JUMP JUMPDEST SWAP2 POP SWAP2 POP JUMPDEST SWAP4 POP SWAP4 SWAP2 POP POP JUMP JUMPDEST PUSH0 PUSH2 0x2992 DUP3 DUP5 PUSH2 0x4F6D JUMP JUMPDEST PUSH1 0x60 PUSH0 PUSH2 0x3C07 DUP4 PUSH2 0x3EFE JUMP JUMPDEST PUSH1 0x1 ADD SWAP1 POP PUSH0 DUP2 PUSH1 0x1 PUSH1 0x1 PUSH1 0x40 SHL SUB DUP2 GT ISZERO PUSH2 0x3C25 JUMPI PUSH2 0x3C25 PUSH2 0x4552 JUMP JUMPDEST PUSH1 0x40 MLOAD SWAP1 DUP1 DUP3 MSTORE DUP1 PUSH1 0x1F ADD PUSH1 0x1F NOT AND PUSH1 0x20 ADD DUP3 ADD PUSH1 0x40 MSTORE DUP1 ISZERO PUSH2 0x3C4F JUMPI PUSH1 0x20 DUP3 ADD DUP2 DUP1 CALLDATASIZE DUP4 CALLDATACOPY ADD SWAP1 POP JUMPDEST POP SWAP1 POP DUP2 DUP2 ADD PUSH1 0x20 ADD JUMPDEST PUSH0 NOT ADD PUSH16 0x181899199A1A9B1B9C1CB0B131B232B3 PUSH1 0x81 SHL PUSH1 0xA DUP7 MOD BYTE DUP2 MSTORE8 PUSH1 0xA DUP6 DIV SWAP5 POP DUP5 PUSH2 0x3C59 JUMPI POP SWAP4 SWAP3 POP POP POP JUMP JUMPDEST PUSH0 PUSH1 0x1 PUSH1 0x1 PUSH1 0xE0 SHL SUB NOT DUP3 AND PUSH4 0x80AC58CD PUSH1 0xE0 SHL EQ DUP1 PUSH2 0x3CBA JUMPI POP PUSH1 0x1 PUSH1 0x1 PUSH1 0xE0 SHL SUB NOT DUP3 AND PUSH4 0x5B5E139F PUSH1 0xE0 SHL EQ JUMPDEST DUP1 PUSH2 0xA2E JUMPI POP PUSH4 0x1FFC9A7 PUSH1 0xE0 SHL PUSH1 0x1 PUSH1 0x1 PUSH1 0xE0 SHL SUB NOT DUP4 AND EQ PUSH2 0xA2E JUMP JUMPDEST PUSH1 0x1 DUP2 GT ISZERO PUSH2 0x3D48 JUMPI PUSH1 0x40 MLOAD PUSH3 0x461BCD PUSH1 0xE5 SHL DUP2 MSTORE PUSH1 0x20 PUSH1 0x4 DUP3 ADD MSTORE PUSH1 0x35 PUSH1 0x24 DUP3 ADD MSTORE PUSH32 0x455243373231456E756D657261626C653A20636F6E7365637574697665207472 PUSH1 0x44 DUP3 ADD MSTORE PUSH21 0x185B9CD9995C9CC81B9BDD081CDD5C1C1BDC9D1959 PUSH1 0x5A SHL PUSH1 0x64 DUP3 ADD MSTORE PUSH1 0x84 ADD PUSH2 0xC84 JUMP JUMPDEST DUP2 PUSH1 0x1 PUSH1 0x1 PUSH1 0xA0 SHL SUB DUP6 AND PUSH2 0x3DA3 JUMPI PUSH2 0x3D9E DUP2 PUSH1 0x99 DUP1 SLOAD PUSH0 DUP4 DUP2 MSTORE PUSH1 0x9A PUSH1 0x20 MSTORE PUSH1 0x40 DUP2 KECCAK256 DUP3 SWAP1 SSTORE PUSH1 0x1 DUP3 ADD DUP4 SSTORE SWAP2 SWAP1 SWAP2 MSTORE PUSH32 0x72A152DDFB8E864297C917AF52EA6C1C68AEAD0FEE1A62673FCC7E0C94979D00 ADD SSTORE JUMP JUMPDEST PUSH2 0x3DC6 JUMP JUMPDEST DUP4 PUSH1 0x1 PUSH1 0x1 PUSH1 0xA0 SHL SUB AND DUP6 PUSH1 0x1 PUSH1 0x1 PUSH1 0xA0 SHL SUB AND EQ PUSH2 0x3DC6 JUMPI PUSH2 0x3DC6 DUP6 DUP3 PUSH2 0x3FD5 JUMP JUMPDEST PUSH1 0x1 PUSH1 0x1 PUSH1 0xA0 SHL SUB DUP5 AND PUSH2 0x3DE2 JUMPI PUSH2 0x3DDD DUP2 PUSH2 0x406E JUMP JUMPDEST PUSH2 0x1ED4 JUMP JUMPDEST DUP5 PUSH1 0x1 PUSH1 0x1 PUSH1 0xA0 SHL SUB AND DUP5 PUSH1 0x1 PUSH1 0x1 PUSH1 0xA0 SHL SUB AND EQ PUSH2 0x1ED4 JUMPI PUSH2 0x1ED4 DUP5 DUP3 PUSH2 0x4115 JUMP JUMPDEST PUSH1 0x1 PUSH1 0x1 PUSH1 0xA0 SHL SUB DUP4 AND PUSH2 0x3E28 JUMPI PUSH2 0x3E25 PUSH2 0x1F9 PUSH2 0x3BF0 PUSH2 0x30DA DUP5 PUSH2 0x3B40 JUMP JUMPDEST POP POP JUMPDEST PUSH1 0x1 PUSH1 0x1 PUSH1 0xA0 SHL SUB DUP3 AND PUSH2 0x3E4B JUMPI PUSH2 0x3E48 PUSH2 0x1F9 PUSH2 0x3B35 PUSH2 0x30DA DUP5 PUSH2 0x3B40 JUMP JUMPDEST POP POP JUMPDEST PUSH1 0x1 PUSH1 0x1 PUSH1 0xA0 SHL SUB DUP4 DUP2 AND PUSH0 SWAP1 DUP2 MSTORE PUSH2 0x1F7 PUSH1 0x20 MSTORE PUSH1 0x40 DUP1 DUP3 KECCAK256 SLOAD DUP6 DUP5 AND DUP4 MSTORE SWAP2 KECCAK256 SLOAD PUSH2 0xD25 SWAP3 SWAP2 DUP3 AND SWAP2 AND DUP4 PUSH2 0x307B JUMP JUMPDEST PUSH1 0x60 PUSH0 DUP1 DUP6 PUSH1 0x1 PUSH1 0x1 PUSH1 0xA0 SHL SUB AND DUP6 PUSH1 0x40 MLOAD PUSH2 0x3E99 SWAP2 SWAP1 PUSH2 0x4F8C JUMP JUMPDEST PUSH0 PUSH1 0x40 MLOAD DUP1 DUP4 SUB DUP2 DUP6 GAS DELEGATECALL SWAP2 POP POP RETURNDATASIZE DUP1 PUSH0 DUP2 EQ PUSH2 0x3ED1 JUMPI PUSH1 0x40 MLOAD SWAP2 POP PUSH1 0x1F NOT PUSH1 0x3F RETURNDATASIZE ADD AND DUP3 ADD PUSH1 0x40 MSTORE RETURNDATASIZE DUP3 MSTORE RETURNDATASIZE PUSH0 PUSH1 0x20 DUP5 ADD RETURNDATACOPY PUSH2 0x3ED6 JUMP JUMPDEST PUSH1 0x60 SWAP2 POP JUMPDEST POP SWAP2 POP SWAP2 POP PUSH2 0x3EE7 DUP7 DUP4 DUP4 DUP8 PUSH2 0x4157 JUMP JUMPDEST SWAP7 SWAP6 POP POP POP POP POP POP JUMP JUMPDEST PUSH0 DUP1 PUSH2 0x3BE3 DUP6 DUP6 DUP6 PUSH2 0x41CF JUMP JUMPDEST PUSH0 DUP1 PUSH19 0x184F03E93FF9F4DAA797ED6E38ED64BF6A1F01 PUSH1 0x40 SHL DUP4 LT PUSH2 0x3F3C JUMPI PUSH19 0x184F03E93FF9F4DAA797ED6E38ED64BF6A1F01 PUSH1 0x40 SHL DUP4 DIV SWAP3 POP PUSH1 0x40 ADD JUMPDEST PUSH14 0x4EE2D6D415B85ACEF8100000000 DUP4 LT PUSH2 0x3F68 JUMPI PUSH14 0x4EE2D6D415B85ACEF8100000000 DUP4 DIV SWAP3 POP PUSH1 0x20 ADD JUMPDEST PUSH7 0x2386F26FC10000 DUP4 LT PUSH2 0x3F86 JUMPI PUSH7 0x2386F26FC10000 DUP4 DIV SWAP3 POP PUSH1 0x10 ADD JUMPDEST PUSH4 0x5F5E100 DUP4 LT PUSH2 0x3F9E JUMPI PUSH4 0x5F5E100 DUP4 DIV SWAP3 POP PUSH1 0x8 ADD JUMPDEST PUSH2 0x2710 DUP4 LT PUSH2 0x3FB2 JUMPI PUSH2 0x2710 DUP4 DIV SWAP3 POP PUSH1 0x4 ADD JUMPDEST PUSH1 0x64 DUP4 LT PUSH2 0x3FC4 JUMPI PUSH1 0x64 DUP4 DIV SWAP3 POP PUSH1 0x2 ADD JUMPDEST PUSH1 0xA DUP4 LT PUSH2 0xA2E JUMPI PUSH1 0x1 ADD SWAP3 SWAP2 POP POP JUMP JUMPDEST PUSH0 PUSH1 0x1 PUSH2 0x3FE1 DUP5 PUSH2 0x147D JUMP JUMPDEST PUSH2 0x3FEB SWAP2 SWAP1 PUSH2 0x4D4B JUMP JUMPDEST PUSH0 DUP4 DUP2 MSTORE PUSH1 0x98 PUSH1 0x20 MSTORE PUSH1 0x40 SWAP1 KECCAK256 SLOAD SWAP1 SWAP2 POP DUP1 DUP3 EQ PUSH2 0x403C JUMPI PUSH1 0x1 PUSH1 0x1 PUSH1 0xA0 SHL SUB DUP5 AND PUSH0 SWAP1 DUP2 MSTORE PUSH1 0x97 PUSH1 0x20 SWAP1 DUP2 MSTORE PUSH1 0x40 DUP1 DUP4 KECCAK256 DUP6 DUP5 MSTORE DUP3 MSTORE DUP1 DUP4 KECCAK256 SLOAD DUP5 DUP5 MSTORE DUP2 DUP5 KECCAK256 DUP2 SWAP1 SSTORE DUP4 MSTORE PUSH1 0x98 SWAP1 SWAP2 MSTORE SWAP1 KECCAK256 DUP2 SWAP1 SSTORE JUMPDEST POP PUSH0 SWAP2 DUP3 MSTORE PUSH1 0x98 PUSH1 0x20 SWAP1 DUP2 MSTORE PUSH1 0x40 DUP1 DUP5 KECCAK256 DUP5 SWAP1 SSTORE PUSH1 0x1 PUSH1 0x1 PUSH1 0xA0 SHL SUB SWAP1 SWAP5 AND DUP4 MSTORE PUSH1 0x97 DUP2 MSTORE DUP4 DUP4 KECCAK256 SWAP2 DUP4 MSTORE MSTORE SWAP1 DUP2 KECCAK256 SSTORE JUMP JUMPDEST PUSH1 0x99 SLOAD PUSH0 SWAP1 PUSH2 0x407F SWAP1 PUSH1 0x1 SWAP1 PUSH2 0x4D4B JUMP JUMPDEST PUSH0 DUP4 DUP2 MSTORE PUSH1 0x9A PUSH1 0x20 MSTORE PUSH1 0x40 DUP2 KECCAK256 SLOAD PUSH1 0x99 DUP1 SLOAD SWAP4 SWAP5 POP SWAP1 SWAP3 DUP5 SWAP1 DUP2 LT PUSH2 0x40A6 JUMPI PUSH2 0x40A6 PUSH2 0x4C79 JUMP JUMPDEST SWAP1 PUSH0 MSTORE PUSH1 0x20 PUSH0 KECCAK256 ADD SLOAD SWAP1 POP DUP1 PUSH1 0x99 DUP4 DUP2 SLOAD DUP2 LT PUSH2 0x40C5 JUMPI PUSH2 0x40C5 PUSH2 0x4C79 JUMP JUMPDEST PUSH0 SWAP2 DUP3 MSTORE PUSH1 0x20 DUP1 DUP4 KECCAK256 SWAP1 SWAP2 ADD SWAP3 SWAP1 SWAP3 SSTORE DUP3 DUP2 MSTORE PUSH1 0x9A SWAP1 SWAP2 MSTORE PUSH1 0x40 DUP1 DUP3 KECCAK256 DUP5 SWAP1 SSTORE DUP6 DUP3 MSTORE DUP2 KECCAK256 SSTORE PUSH1 0x99 DUP1 SLOAD DUP1 PUSH2 0x40FC JUMPI PUSH2 0x40FC PUSH2 0x4F97 JUMP JUMPDEST PUSH1 0x1 SWAP1 SUB DUP2 DUP2 SWAP1 PUSH0 MSTORE PUSH1 0x20 PUSH0 KECCAK256 ADD PUSH0 SWAP1 SSTORE SWAP1 SSTORE POP POP POP POP JUMP JUMPDEST PUSH0 PUSH2 0x411F DUP4 PUSH2 0x147D JUMP JUMPDEST PUSH1 0x1 PUSH1 0x1 PUSH1 0xA0 SHL SUB SWAP1 SWAP4 AND PUSH0 SWAP1 DUP2 MSTORE PUSH1 0x97 PUSH1 0x20 SWAP1 DUP2 MSTORE PUSH1 0x40 DUP1 DUP4 KECCAK256 DUP7 DUP5 MSTORE DUP3 MSTORE DUP1 DUP4 KECCAK256 DUP6 SWAP1 SSTORE SWAP4 DUP3 MSTORE PUSH1 0x98 SWAP1 MSTORE SWAP2 SWAP1 SWAP2 KECCAK256 SWAP2 SWAP1 SWAP2 SSTORE POP JUMP JUMPDEST PUSH1 0x60 DUP4 ISZERO PUSH2 0x41C5 JUMPI DUP3 MLOAD PUSH0 SUB PUSH2 0x41BE JUMPI PUSH1 0x1 PUSH1 0x1 PUSH1 0xA0 SHL SUB DUP6 AND EXTCODESIZE PUSH2 0x41BE JUMPI PUSH1 0x40 MLOAD PUSH3 0x461BCD PUSH1 0xE5 SHL DUP2 MSTORE PUSH1 0x20 PUSH1 0x4 DUP3 ADD MSTORE PUSH1 0x1D PUSH1 0x24 DUP3 ADD MSTORE PUSH32 0x416464726573733A2063616C6C20746F206E6F6E2D636F6E7472616374000000 PUSH1 0x44 DUP3 ADD MSTORE PUSH1 0x64 ADD PUSH2 0xC84 JUMP JUMPDEST POP DUP2 PUSH2 0x203F JUMP JUMPDEST PUSH2 0x203F DUP4 DUP4 PUSH2 0x436E JUMP JUMPDEST DUP3 SLOAD PUSH0 SWAP1 DUP2 SWAP1 DUP1 ISZERO PUSH2 0x4315 JUMPI PUSH0 PUSH2 0x41EB DUP8 PUSH2 0x2538 PUSH1 0x1 DUP6 PUSH2 0x4D4B JUMP JUMPDEST PUSH1 0x40 DUP1 MLOAD DUP1 DUP3 ADD SWAP1 SWAP2 MSTORE SWAP1 SLOAD PUSH4 0xFFFFFFFF DUP1 DUP3 AND DUP1 DUP5 MSTORE PUSH5 0x100000000 SWAP1 SWAP3 DIV PUSH1 0x1 PUSH1 0x1 PUSH1 0xE0 SHL SUB AND PUSH1 0x20 DUP5 ADD MSTORE SWAP2 SWAP3 POP SWAP1 DUP8 AND LT ISZERO PUSH2 0x426D JUMPI PUSH1 0x40 MLOAD PUSH3 0x461BCD PUSH1 0xE5 SHL DUP2 MSTORE PUSH1 0x20 PUSH1 0x4 DUP3 ADD MSTORE PUSH1 0x1B PUSH1 0x24 DUP3 ADD MSTORE PUSH32 0x436865636B706F696E743A2064656372656173696E67206B6579730000000000 PUSH1 0x44 DUP3 ADD MSTORE PUSH1 0x64 ADD PUSH2 0xC84 JUMP JUMPDEST DUP1 MLOAD PUSH4 0xFFFFFFFF DUP1 DUP9 AND SWAP2 AND SUB PUSH2 0x42B6 JUMPI DUP5 PUSH2 0x428E DUP9 PUSH2 0x2538 PUSH1 0x1 DUP7 PUSH2 0x4D4B JUMP JUMPDEST DUP1 SLOAD PUSH1 0x1 PUSH1 0x1 PUSH1 0xE0 SHL SUB SWAP3 SWAP1 SWAP3 AND PUSH5 0x100000000 MUL PUSH4 0xFFFFFFFF SWAP1 SWAP3 AND SWAP2 SWAP1 SWAP2 OR SWAP1 SSTORE PUSH2 0x4305 JUMP JUMPDEST PUSH1 0x40 DUP1 MLOAD DUP1 DUP3 ADD SWAP1 SWAP2 MSTORE PUSH4 0xFFFFFFFF DUP1 DUP9 AND DUP3 MSTORE PUSH1 0x1 PUSH1 0x1 PUSH1 0xE0 SHL SUB DUP1 DUP9 AND PUSH1 0x20 DUP1 DUP6 ADD SWAP2 DUP3 MSTORE DUP12 SLOAD PUSH1 0x1 DUP2 ADD DUP14 SSTORE PUSH0 DUP14 DUP2 MSTORE SWAP2 SWAP1 SWAP2 KECCAK256 SWAP5 MLOAD SWAP2 MLOAD SWAP1 SWAP3 AND PUSH5 0x100000000 MUL SWAP3 AND SWAP2 SWAP1 SWAP2 OR SWAP2 ADD SSTORE JUMPDEST PUSH1 0x20 ADD MLOAD SWAP3 POP DUP4 SWAP2 POP PUSH2 0x3BE8 SWAP1 POP JUMP JUMPDEST POP POP PUSH1 0x40 DUP1 MLOAD DUP1 DUP3 ADD SWAP1 SWAP2 MSTORE PUSH4 0xFFFFFFFF DUP1 DUP6 AND DUP3 MSTORE PUSH1 0x1 PUSH1 0x1 PUSH1 0xE0 SHL SUB DUP1 DUP6 AND PUSH1 0x20 DUP1 DUP6 ADD SWAP2 DUP3 MSTORE DUP9 SLOAD PUSH1 0x1 DUP2 ADD DUP11 SSTORE PUSH0 DUP11 DUP2 MSTORE SWAP2 DUP3 KECCAK256 SWAP6 MLOAD SWAP3 MLOAD SWAP1 SWAP4 AND PUSH5 0x100000000 MUL SWAP2 SWAP1 SWAP4 AND OR SWAP3 ADD SWAP2 SWAP1 SWAP2 SSTORE SWAP1 POP DUP2 PUSH2 0x3BE8 JUMP JUMPDEST DUP2 MLOAD ISZERO PUSH2 0x437E JUMPI DUP2 MLOAD DUP1 DUP4 PUSH1 0x20 ADD REVERT JUMPDEST DUP1 PUSH1 0x40 MLOAD PUSH3 0x461BCD PUSH1 0xE5 SHL DUP2 MSTORE PUSH1 0x4 ADD PUSH2 0xC84 SWAP2 SWAP1 PUSH2 0x443C JUMP JUMPDEST POP DUP1 SLOAD PUSH2 0x43A4 SWAP1 PUSH2 0x4A64 JUMP JUMPDEST PUSH0 DUP3 SSTORE DUP1 PUSH1 0x1F LT PUSH2 0x43B3 JUMPI POP POP JUMP JUMPDEST PUSH1 0x1F ADD PUSH1 0x20 SWAP1 DIV SWAP1 PUSH0 MSTORE PUSH1 0x20 PUSH0 KECCAK256 SWAP1 DUP2 ADD SWAP1 PUSH2 0xF96 SWAP2 SWAP1 JUMPDEST DUP1 DUP3 GT ISZERO PUSH2 0x24B6 JUMPI PUSH0 DUP2 SSTORE PUSH1 0x1 ADD PUSH2 0x43CB JUMP JUMPDEST PUSH1 0x1 PUSH1 0x1 PUSH1 0xE0 SHL SUB NOT DUP2 AND DUP2 EQ PUSH2 0xF96 JUMPI PUSH0 DUP1 REVERT JUMPDEST PUSH0 PUSH1 0x20 DUP3 DUP5 SUB SLT ISZERO PUSH2 0x4403 JUMPI PUSH0 DUP1 REVERT JUMPDEST DUP2 CALLDATALOAD PUSH2 0x2992 DUP2 PUSH2 0x43DE JUMP JUMPDEST PUSH0 DUP2 MLOAD DUP1 DUP5 MSTORE DUP1 PUSH1 0x20 DUP5 ADD PUSH1 0x20 DUP7 ADD MCOPY PUSH0 PUSH1 0x20 DUP3 DUP7 ADD ADD MSTORE PUSH1 0x20 PUSH1 0x1F NOT PUSH1 0x1F DUP4 ADD AND DUP6 ADD ADD SWAP2 POP POP SWAP3 SWAP2 POP POP JUMP JUMPDEST PUSH1 0x20 DUP2 MSTORE PUSH0 PUSH2 0x2992 PUSH1 0x20 DUP4 ADD DUP5 PUSH2 0x440E JUMP JUMPDEST PUSH0 PUSH1 0x20 DUP3 DUP5 SUB SLT ISZERO PUSH2 0x445E JUMPI PUSH0 DUP1 REVERT JUMPDEST POP CALLDATALOAD SWAP2 SWAP1 POP JUMP JUMPDEST PUSH1 0x40 DUP2 MSTORE PUSH0 PUSH2 0x4477 PUSH1 0x40 DUP4 ADD DUP6 PUSH2 0x440E JUMP JUMPDEST DUP3 DUP2 SUB PUSH1 0x20 DUP5 ADD MSTORE PUSH2 0x4489 DUP2 DUP6 PUSH2 0x440E JUMP JUMPDEST SWAP6 SWAP5 POP POP POP POP POP JUMP JUMPDEST DUP1 CALLDATALOAD PUSH1 0x1 PUSH1 0x1 PUSH1 0xA0 SHL SUB DUP2 AND DUP2 EQ PUSH2 0x44A8 JUMPI PUSH0 DUP1 REVERT JUMPDEST SWAP2 SWAP1 POP JUMP JUMPDEST PUSH0 DUP1 PUSH1 0x40 DUP4 DUP6 SUB SLT ISZERO PUSH2 0x44BE JUMPI PUSH0 DUP1 REVERT JUMPDEST PUSH2 0x44C7 DUP4 PUSH2 0x4492 JUMP JUMPDEST SWAP5 PUSH1 0x20 SWAP4 SWAP1 SWAP4 ADD CALLDATALOAD SWAP4 POP POP POP JUMP JUMPDEST PUSH0 DUP1 PUSH0 PUSH1 0x60 DUP5 DUP7 SUB SLT ISZERO PUSH2 0x44E7 JUMPI PUSH0 DUP1 REVERT JUMPDEST PUSH2 0x44F0 DUP5 PUSH2 0x4492 JUMP JUMPDEST SWAP3 POP PUSH2 0x44FE PUSH1 0x20 DUP6 ADD PUSH2 0x4492 JUMP JUMPDEST SWAP3 SWAP6 SWAP3 SWAP5 POP POP POP PUSH1 0x40 SWAP2 SWAP1 SWAP2 ADD CALLDATALOAD SWAP1 JUMP JUMPDEST PUSH0 DUP1 PUSH1 0x40 DUP4 DUP6 SUB SLT ISZERO PUSH2 0x4520 JUMPI PUSH0 DUP1 REVERT JUMPDEST DUP3 CALLDATALOAD SWAP2 POP PUSH2 0x4530 PUSH1 0x20 DUP5 ADD PUSH2 0x4492 JUMP JUMPDEST SWAP1 POP SWAP3 POP SWAP3 SWAP1 POP JUMP JUMPDEST PUSH0 PUSH1 0x20 DUP3 DUP5 SUB SLT ISZERO PUSH2 0x4549 JUMPI PUSH0 DUP1 REVERT JUMPDEST PUSH2 0x2992 DUP3 PUSH2 0x4492 JUMP JUMPDEST PUSH4 0x4E487B71 PUSH1 0xE0 SHL PUSH0 MSTORE PUSH1 0x41 PUSH1 0x4 MSTORE PUSH1 0x24 PUSH0 REVERT JUMPDEST PUSH0 DUP3 PUSH1 0x1F DUP4 ADD SLT PUSH2 0x4575 JUMPI PUSH0 DUP1 REVERT JUMPDEST DUP2 CALLDATALOAD PUSH1 0x20 DUP4 ADD PUSH0 DUP1 PUSH1 0x1 PUSH1 0x1 PUSH1 0x40 SHL SUB DUP5 GT ISZERO PUSH2 0x4594 JUMPI PUSH2 0x4594 PUSH2 0x4552 JUMP JUMPDEST POP PUSH1 0x40 MLOAD PUSH1 0x1F NOT PUSH1 0x1F DUP6 ADD DUP2 AND PUSH1 0x3F ADD AND DUP2 ADD DUP2 DUP2 LT PUSH1 0x1 PUSH1 0x1 PUSH1 0x40 SHL SUB DUP3 GT OR ISZERO PUSH2 0x45C2 JUMPI PUSH2 0x45C2 PUSH2 0x4552 JUMP JUMPDEST PUSH1 0x40 MSTORE DUP4 DUP2 MSTORE SWAP1 POP DUP1 DUP3 DUP5 ADD DUP8 LT ISZERO PUSH2 0x45D9 JUMPI PUSH0 DUP1 REVERT JUMPDEST DUP4 DUP4 PUSH1 0x20 DUP4 ADD CALLDATACOPY PUSH0 PUSH1 0x20 DUP6 DUP4 ADD ADD MSTORE DUP1 SWAP5 POP POP POP POP POP SWAP3 SWAP2 POP POP JUMP JUMPDEST PUSH0 DUP1 PUSH0 DUP1 PUSH0 DUP1 PUSH1 0xC0 DUP8 DUP10 SUB SLT ISZERO PUSH2 0x460A JUMPI PUSH0 DUP1 REVERT JUMPDEST PUSH2 0x4613 DUP8 PUSH2 0x4492 JUMP JUMPDEST SWAP6 POP PUSH1 0x20 DUP8 ADD CALLDATALOAD SWAP5 POP PUSH1 0x40 DUP8 ADD CALLDATALOAD PUSH1 0x1 PUSH1 0x1 PUSH1 0x40 SHL SUB DUP2 GT ISZERO PUSH2 0x4634 JUMPI PUSH0 DUP1 REVERT JUMPDEST PUSH2 0x4640 DUP10 DUP3 DUP11 ADD PUSH2 0x4566 JUMP JUMPDEST SWAP5 POP POP PUSH1 0x60 DUP8 ADD CALLDATALOAD PUSH1 0x1 PUSH1 0x1 PUSH1 0x40 SHL SUB DUP2 GT ISZERO PUSH2 0x465B JUMPI PUSH0 DUP1 REVERT JUMPDEST PUSH2 0x4667 DUP10 DUP3 DUP11 ADD PUSH2 0x4566 JUMP JUMPDEST SWAP4 POP POP PUSH1 0x80 DUP8 ADD CALLDATALOAD PUSH1 0x1 PUSH1 0x1 PUSH1 0x40 SHL SUB DUP2 GT ISZERO PUSH2 0x4682 JUMPI PUSH0 DUP1 REVERT JUMPDEST PUSH2 0x468E DUP10 DUP3 DUP11 ADD PUSH2 0x4566 JUMP JUMPDEST SWAP3 POP POP PUSH1 0xA0 DUP8 ADD CALLDATALOAD PUSH1 0x1 PUSH1 0x1 PUSH1 0x40 SHL SUB DUP2 GT ISZERO PUSH2 0x46A9 JUMPI PUSH0 DUP1 REVERT JUMPDEST PUSH2 0x46B5 DUP10 DUP3 DUP11 ADD PUSH2 0x4566 JUMP JUMPDEST SWAP2 POP POP SWAP3 SWAP6 POP SWAP3 SWAP6 POP SWAP3 SWAP6 JUMP JUMPDEST PUSH0 DUP1 PUSH1 0x40 DUP4 DUP6 SUB SLT ISZERO PUSH2 0x46D3 JUMPI PUSH0 DUP1 REVERT JUMPDEST PUSH2 0x46DC DUP4 PUSH2 0x4492 JUMP JUMPDEST SWAP2 POP PUSH1 0x20 DUP4 ADD CALLDATALOAD PUSH1 0x1 PUSH1 0x1 PUSH1 0x40 SHL SUB DUP2 GT ISZERO PUSH2 0x46F6 JUMPI PUSH0 DUP1 REVERT JUMPDEST PUSH2 0x4702 DUP6 DUP3 DUP7 ADD PUSH2 0x4566 JUMP JUMPDEST SWAP2 POP POP SWAP3 POP SWAP3 SWAP1 POP JUMP JUMPDEST PUSH1 0x60 DUP2 MSTORE PUSH0 PUSH2 0x471E PUSH1 0x60 DUP4 ADD DUP7 PUSH2 0x440E JUMP JUMPDEST DUP3 DUP2 SUB PUSH1 0x20 DUP5 ADD MSTORE PUSH2 0x4730 DUP2 DUP7 PUSH2 0x440E JUMP JUMPDEST SWAP1 POP DUP3 DUP2 SUB PUSH1 0x40 DUP5 ADD MSTORE PUSH2 0x3EE7 DUP2 DUP6 PUSH2 0x440E JUMP JUMPDEST PUSH0 DUP1 PUSH0 DUP1 PUSH0 DUP1 PUSH0 PUSH1 0xE0 DUP9 DUP11 SUB SLT ISZERO PUSH2 0x475A JUMPI PUSH0 DUP1 REVERT JUMPDEST PUSH2 0x4763 DUP9 PUSH2 0x4492 JUMP JUMPDEST SWAP7 POP PUSH1 0x20 DUP9 ADD CALLDATALOAD SWAP6 POP PUSH1 0x40 DUP9 ADD CALLDATALOAD PUSH1 0x1 PUSH1 0x1 PUSH1 0x40 SHL SUB DUP2 GT ISZERO PUSH2 0x4784 JUMPI PUSH0 DUP1 REVERT JUMPDEST PUSH2 0x4790 DUP11 DUP3 DUP12 ADD PUSH2 0x4566 JUMP JUMPDEST SWAP8 SWAP11 SWAP7 SWAP10 POP SWAP7 SWAP8 PUSH1 0x60 DUP2 ADD CALLDATALOAD SWAP8 POP PUSH1 0x80 DUP2 ADD CALLDATALOAD SWAP7 PUSH1 0xA0 DUP3 ADD CALLDATALOAD SWAP7 POP PUSH1 0xC0 SWAP1 SWAP2 ADD CALLDATALOAD SWAP5 POP SWAP3 POP POP POP JUMP JUMPDEST PUSH1 0xFF PUSH1 0xF8 SHL DUP9 AND DUP2 MSTORE PUSH1 0xE0 PUSH1 0x20 DUP3 ADD MSTORE PUSH0 PUSH2 0x47D7 PUSH1 0xE0 DUP4 ADD DUP10 PUSH2 0x440E JUMP JUMPDEST DUP3 DUP2 SUB PUSH1 0x40 DUP5 ADD MSTORE PUSH2 0x47E9 DUP2 DUP10 PUSH2 0x440E JUMP JUMPDEST PUSH1 0x60 DUP5 ADD DUP9 SWAP1 MSTORE PUSH1 0x1 PUSH1 0x1 PUSH1 0xA0 SHL SUB DUP8 AND PUSH1 0x80 DUP6 ADD MSTORE PUSH1 0xA0 DUP5 ADD DUP7 SWAP1 MSTORE DUP4 DUP2 SUB PUSH1 0xC0 DUP6 ADD MSTORE DUP5 MLOAD DUP1 DUP3 MSTORE PUSH1 0x20 DUP1 DUP8 ADD SWAP4 POP SWAP1 SWAP2 ADD SWAP1 PUSH0 JUMPDEST DUP2 DUP2 LT ISZERO PUSH2 0x483E JUMPI DUP4 MLOAD DUP4 MSTORE PUSH1 0x20 SWAP4 DUP5 ADD SWAP4 SWAP1 SWAP3 ADD SWAP2 PUSH1 0x1 ADD PUSH2 0x4820 JUMP JUMPDEST POP SWAP1 SWAP12 SWAP11 POP POP POP POP POP POP POP POP POP POP POP JUMP JUMPDEST PUSH0 DUP1 PUSH0 DUP1 PUSH0 PUSH1 0xA0 DUP7 DUP9 SUB SLT ISZERO PUSH2 0x4863 JUMPI PUSH0 DUP1 REVERT JUMPDEST PUSH2 0x486C DUP7 PUSH2 0x4492 JUMP JUMPDEST SWAP5 POP PUSH1 0x20 DUP7 ADD CALLDATALOAD SWAP4 POP PUSH1 0x40 DUP7 ADD CALLDATALOAD PUSH1 0x1 PUSH1 0x1 PUSH1 0x40 SHL SUB DUP2 GT ISZERO PUSH2 0x488D JUMPI PUSH0 DUP1 REVERT JUMPDEST PUSH2 0x4899 DUP9 DUP3 DUP10 ADD PUSH2 0x4566 JUMP JUMPDEST SWAP4 POP POP PUSH1 0x60 DUP7 ADD CALLDATALOAD PUSH1 0x1 PUSH1 0x1 PUSH1 0x40 SHL SUB DUP2 GT ISZERO PUSH2 0x48B4 JUMPI PUSH0 DUP1 REVERT JUMPDEST PUSH2 0x48C0 DUP9 DUP3 DUP10 ADD PUSH2 0x4566 JUMP JUMPDEST SWAP3 POP POP PUSH1 0x80 DUP7 ADD CALLDATALOAD PUSH1 0x1 PUSH1 0x1 PUSH1 0x40 SHL SUB DUP2 GT ISZERO PUSH2 0x48DB JUMPI PUSH0 DUP1 REVERT JUMPDEST PUSH2 0x48E7 DUP9 DUP3 DUP10 ADD PUSH2 0x4566 JUMP JUMPDEST SWAP2 POP POP SWAP3 SWAP6 POP SWAP3 SWAP6 SWAP1 SWAP4 POP JUMP JUMPDEST PUSH0 DUP1 PUSH1 0x40 DUP4 DUP6 SUB SLT ISZERO PUSH2 0x4905 JUMPI PUSH0 DUP1 REVERT JUMPDEST PUSH2 0x490E DUP4 PUSH2 0x4492 JUMP JUMPDEST SWAP2 POP PUSH1 0x20 DUP4 ADD CALLDATALOAD DUP1 ISZERO ISZERO DUP2 EQ PUSH2 0x4922 JUMPI PUSH0 DUP1 REVERT JUMPDEST DUP1 SWAP2 POP POP SWAP3 POP SWAP3 SWAP1 POP JUMP JUMPDEST PUSH0 DUP1 PUSH0 DUP1 PUSH1 0x80 DUP6 DUP8 SUB SLT ISZERO PUSH2 0x4940 JUMPI PUSH0 DUP1 REVERT JUMPDEST PUSH2 0x4949 DUP6 PUSH2 0x4492 JUMP JUMPDEST SWAP4 POP PUSH2 0x4957 PUSH1 0x20 DUP7 ADD PUSH2 0x4492 JUMP JUMPDEST SWAP3 POP PUSH1 0x40 DUP6 ADD CALLDATALOAD SWAP2 POP PUSH1 0x60 DUP6 ADD CALLDATALOAD PUSH1 0x1 PUSH1 0x1 PUSH1 0x40 SHL SUB DUP2 GT ISZERO PUSH2 0x4978 JUMPI PUSH0 DUP1 REVERT JUMPDEST PUSH2 0x4984 DUP8 DUP3 DUP9 ADD PUSH2 0x4566 JUMP JUMPDEST SWAP2 POP POP SWAP3 SWAP6 SWAP2 SWAP5 POP SWAP3 POP JUMP JUMPDEST PUSH0 DUP1 PUSH0 DUP1 PUSH0 DUP1 PUSH1 0xC0 DUP8 DUP10 SUB SLT ISZERO PUSH2 0x49A5 JUMPI PUSH0 DUP1 REVERT JUMPDEST PUSH2 0x49AE DUP8 PUSH2 0x4492 JUMP JUMPDEST SWAP6 POP PUSH1 0x20 DUP8 ADD CALLDATALOAD SWAP5 POP PUSH1 0x40 DUP8 ADD CALLDATALOAD SWAP4 POP PUSH1 0x60 DUP8 ADD CALLDATALOAD PUSH1 0xFF DUP2 AND DUP2 EQ PUSH2 0x49D1 JUMPI PUSH0 DUP1 REVERT JUMPDEST SWAP6 SWAP9 SWAP5 SWAP8 POP SWAP3 SWAP6 PUSH1 0x80 DUP2 ADD CALLDATALOAD SWAP5 PUSH1 0xA0 SWAP1 SWAP2 ADD CALLDATALOAD SWAP4 POP SWAP2 POP POP JUMP JUMPDEST PUSH0 DUP1 PUSH1 0x40 DUP4 DUP6 SUB SLT ISZERO PUSH2 0x49FC JUMPI PUSH0 DUP1 REVERT JUMPDEST PUSH2 0x4A05 DUP4 PUSH2 0x4492 JUMP JUMPDEST SWAP2 POP PUSH2 0x4530 PUSH1 0x20 DUP5 ADD PUSH2 0x4492 JUMP JUMPDEST PUSH0 DUP1 PUSH0 DUP1 PUSH1 0x80 DUP6 DUP8 SUB SLT ISZERO PUSH2 0x4A26 JUMPI PUSH0 DUP1 REVERT JUMPDEST PUSH2 0x4A2F DUP6 PUSH2 0x4492 JUMP JUMPDEST SWAP4 POP PUSH2 0x4A3D PUSH1 0x20 DUP7 ADD PUSH2 0x4492 JUMP JUMPDEST SWAP3 POP PUSH2 0x4A4B PUSH1 0x40 DUP7 ADD PUSH2 0x4492 JUMP JUMPDEST SWAP2 POP PUSH2 0x4A59 PUSH1 0x60 DUP7 ADD PUSH2 0x4492 JUMP JUMPDEST SWAP1 POP SWAP3 SWAP6 SWAP2 SWAP5 POP SWAP3 POP JUMP JUMPDEST PUSH1 0x1 DUP2 DUP2 SHR SWAP1 DUP3 AND DUP1 PUSH2 0x4A78 JUMPI PUSH1 0x7F DUP3 AND SWAP2 POP JUMPDEST PUSH1 0x20 DUP3 LT DUP2 SUB PUSH2 0x2B0D JUMPI PUSH4 0x4E487B71 PUSH1 0xE0 SHL PUSH0 MSTORE PUSH1 0x22 PUSH1 0x4 MSTORE PUSH1 0x24 PUSH0 REVERT JUMPDEST PUSH1 0x20 DUP1 DUP3 MSTORE PUSH1 0x2D SWAP1 DUP3 ADD MSTORE PUSH32 0x4552433732313A2063616C6C6572206973206E6F7420746F6B656E206F776E65 PUSH1 0x40 DUP3 ADD MSTORE PUSH13 0x1C881BDC88185C1C1C9BDD9959 PUSH1 0x9A SHL PUSH1 0x60 DUP3 ADD MSTORE PUSH1 0x80 ADD SWAP1 JUMP JUMPDEST PUSH1 0x20 DUP1 DUP3 MSTORE PUSH1 0x2C SWAP1 DUP3 ADD MSTORE PUSH32 0x46756E6374696F6E206D7573742062652063616C6C6564207468726F75676820 PUSH1 0x40 DUP3 ADD MSTORE PUSH12 0x19195B1959D85D1958D85B1B PUSH1 0xA2 SHL PUSH1 0x60 DUP3 ADD MSTORE PUSH1 0x80 ADD SWAP1 JUMP JUMPDEST PUSH1 0x20 DUP1 DUP3 MSTORE PUSH1 0x2C SWAP1 DUP3 ADD MSTORE PUSH32 0x46756E6374696F6E206D7573742062652063616C6C6564207468726F75676820 PUSH1 0x40 DUP3 ADD MSTORE PUSH12 0x6163746976652070726F7879 PUSH1 0xA0 SHL PUSH1 0x60 DUP3 ADD MSTORE PUSH1 0x80 ADD SWAP1 JUMP JUMPDEST PUSH1 0x1F DUP3 GT ISZERO PUSH2 0xD25 JUMPI DUP1 PUSH0 MSTORE PUSH1 0x20 PUSH0 KECCAK256 PUSH1 0x1F DUP5 ADD PUSH1 0x5 SHR DUP2 ADD PUSH1 0x20 DUP6 LT ISZERO PUSH2 0x4BA0 JUMPI POP DUP1 JUMPDEST PUSH1 0x1F DUP5 ADD PUSH1 0x5 SHR DUP3 ADD SWAP2 POP JUMPDEST DUP2 DUP2 LT ISZERO PUSH2 0x1ED4 JUMPI PUSH0 DUP2 SSTORE PUSH1 0x1 ADD PUSH2 0x4BAC JUMP JUMPDEST DUP2 MLOAD PUSH1 0x1 PUSH1 0x1 PUSH1 0x40 SHL SUB DUP2 GT ISZERO PUSH2 0x4BD8 JUMPI PUSH2 0x4BD8 PUSH2 0x4552 JUMP JUMPDEST PUSH2 0x4BEC DUP2 PUSH2 0x4BE6 DUP5 SLOAD PUSH2 0x4A64 JUMP JUMPDEST DUP5 PUSH2 0x4B7B JUMP JUMPDEST PUSH1 0x20 PUSH1 0x1F DUP3 GT PUSH1 0x1 DUP2 EQ PUSH2 0x4C1E JUMPI PUSH0 DUP4 ISZERO PUSH2 0x4C07 JUMPI POP DUP5 DUP3 ADD MLOAD JUMPDEST PUSH0 NOT PUSH1 0x3 DUP6 SWAP1 SHL SHR NOT AND PUSH1 0x1 DUP5 SWAP1 SHL OR DUP5 SSTORE PUSH2 0x1ED4 JUMP JUMPDEST PUSH0 DUP5 DUP2 MSTORE PUSH1 0x20 DUP2 KECCAK256 PUSH1 0x1F NOT DUP6 AND SWAP2 JUMPDEST DUP3 DUP2 LT ISZERO PUSH2 0x4C4D JUMPI DUP8 DUP6 ADD MLOAD DUP3 SSTORE PUSH1 0x20 SWAP5 DUP6 ADD SWAP5 PUSH1 0x1 SWAP1 SWAP3 ADD SWAP2 ADD PUSH2 0x4C2D JUMP JUMPDEST POP DUP5 DUP3 LT ISZERO PUSH2 0x4C6A JUMPI DUP7 DUP5 ADD MLOAD PUSH0 NOT PUSH1 0x3 DUP8 SWAP1 SHL PUSH1 0xF8 AND SHR NOT AND DUP2 SSTORE JUMPDEST POP POP POP POP PUSH1 0x1 SWAP1 DUP2 SHL ADD SWAP1 SSTORE POP JUMP JUMPDEST PUSH4 0x4E487B71 PUSH1 0xE0 SHL PUSH0 MSTORE PUSH1 0x32 PUSH1 0x4 MSTORE PUSH1 0x24 PUSH0 REVERT JUMPDEST PUSH1 0xA0 DUP2 MSTORE PUSH0 PUSH2 0x4C9F PUSH1 0xA0 DUP4 ADD DUP9 PUSH2 0x440E JUMP JUMPDEST SWAP1 POP DUP6 PUSH1 0x20 DUP4 ADD MSTORE DUP5 PUSH1 0x40 DUP4 ADD MSTORE DUP4 PUSH1 0x60 DUP4 ADD MSTORE DUP3 PUSH1 0x80 DUP4 ADD MSTORE SWAP7 SWAP6 POP POP POP POP POP POP JUMP JUMPDEST PUSH4 0x4E487B71 PUSH1 0xE0 SHL PUSH0 MSTORE PUSH1 0x11 PUSH1 0x4 MSTORE PUSH1 0x24 PUSH0 REVERT JUMPDEST PUSH0 PUSH1 0x1 DUP3 ADD PUSH2 0x4CE8 JUMPI PUSH2 0x4CE8 PUSH2 0x4CC3 JUMP JUMPDEST POP PUSH1 0x1 ADD SWAP1 JUMP JUMPDEST PUSH1 0x20 DUP1 DUP3 MSTORE PUSH1 0x25 SWAP1 DUP3 ADD MSTORE PUSH32 0x4552433732313A207472616E736665722066726F6D20696E636F727265637420 PUSH1 0x40 DUP3 ADD MSTORE PUSH5 0x37BBB732B9 PUSH1 0xD9 SHL PUSH1 0x60 DUP3 ADD MSTORE PUSH1 0x80 ADD SWAP1 JUMP JUMPDEST PUSH0 PUSH1 0x20 DUP3 DUP5 SUB SLT ISZERO PUSH2 0x4D44 JUMPI PUSH0 DUP1 REVERT JUMPDEST POP MLOAD SWAP2 SWAP1 POP JUMP JUMPDEST DUP2 DUP2 SUB DUP2 DUP2 GT ISZERO PUSH2 0xA2E JUMPI PUSH2 0xA2E PUSH2 0x4CC3 JUMP JUMPDEST DUP1 DUP3 ADD DUP1 DUP3 GT ISZERO PUSH2 0xA2E JUMPI PUSH2 0xA2E PUSH2 0x4CC3 JUMP JUMPDEST PUSH1 0x20 DUP1 DUP3 MSTORE PUSH1 0x32 SWAP1 DUP3 ADD MSTORE PUSH32 0x4552433732313A207472616E7366657220746F206E6F6E204552433732315265 PUSH1 0x40 DUP3 ADD MSTORE PUSH18 0x31B2B4BB32B91034B6B83632B6B2B73A32B9 PUSH1 0x71 SHL PUSH1 0x60 DUP3 ADD MSTORE PUSH1 0x80 ADD SWAP1 JUMP JUMPDEST PUSH0 DUP2 MLOAD DUP1 PUSH1 0x20 DUP5 ADD DUP6 MCOPY PUSH0 SWAP4 ADD SWAP3 DUP4 MSTORE POP SWAP1 SWAP2 SWAP1 POP JUMP JUMPDEST PUSH0 PUSH2 0x203F PUSH2 0x4DE8 DUP4 DUP7 PUSH2 0x4DC3 JUMP JUMPDEST DUP5 PUSH2 0x4DC3 JUMP JUMPDEST PUSH1 0x20 DUP1 DUP3 MSTORE PUSH1 0x2B SWAP1 DUP3 ADD MSTORE PUSH32 0x496E697469616C697A61626C653A20636F6E7472616374206973206E6F742069 PUSH1 0x40 DUP3 ADD MSTORE PUSH11 0x6E697469616C697A696E67 PUSH1 0xA8 SHL PUSH1 0x60 DUP3 ADD MSTORE PUSH1 0x80 ADD SWAP1 JUMP JUMPDEST PUSH32 0x416363657373436F6E74726F6C3A206163636F756E7420000000000000000000 DUP2 MSTORE PUSH0 PUSH2 0x4E6A PUSH1 0x17 DUP4 ADD DUP6 PUSH2 0x4DC3 JUMP JUMPDEST PUSH17 0x1034B99036B4B9B9B4B733903937B6329 PUSH1 0x7D SHL DUP2 MSTORE PUSH2 0x4489 PUSH1 0x11 DUP3 ADD DUP6 PUSH2 0x4DC3 JUMP JUMPDEST PUSH4 0x4E487B71 PUSH1 0xE0 SHL PUSH0 MSTORE PUSH1 0x12 PUSH1 0x4 MSTORE PUSH1 0x24 PUSH0 REVERT JUMPDEST PUSH1 0x1 PUSH1 0x1 PUSH1 0xA0 SHL SUB DUP6 DUP2 AND DUP3 MSTORE DUP5 AND PUSH1 0x20 DUP3 ADD MSTORE PUSH1 0x40 DUP2 ADD DUP4 SWAP1 MSTORE PUSH1 0x80 PUSH1 0x60 DUP3 ADD DUP2 SWAP1 MSTORE PUSH0 SWAP1 PUSH2 0x3EE7 SWAP1 DUP4 ADD DUP5 PUSH2 0x440E JUMP JUMPDEST PUSH0 PUSH1 0x20 DUP3 DUP5 SUB SLT ISZERO PUSH2 0x4EE4 JUMPI PUSH0 DUP1 REVERT JUMPDEST DUP2 MLOAD PUSH2 0x2992 DUP2 PUSH2 0x43DE JUMP JUMPDEST PUSH4 0x4E487B71 PUSH1 0xE0 SHL PUSH0 MSTORE PUSH1 0x21 PUSH1 0x4 MSTORE PUSH1 0x24 PUSH0 REVERT JUMPDEST DUP1 DUP3 MUL DUP2 ISZERO DUP3 DUP3 DIV DUP5 EQ OR PUSH2 0xA2E JUMPI PUSH2 0xA2E PUSH2 0x4CC3 JUMP JUMPDEST PUSH0 DUP2 PUSH2 0x4F28 JUMPI PUSH2 0x4F28 PUSH2 0x4CC3 JUMP JUMPDEST POP PUSH0 NOT ADD SWAP1 JUMP JUMPDEST PUSH0 DUP3 PUSH2 0x4F49 JUMPI PUSH4 0x4E487B71 PUSH1 0xE0 SHL PUSH0 MSTORE PUSH1 0x12 PUSH1 0x4 MSTORE PUSH1 0x24 PUSH0 REVERT JUMPDEST POP DIV SWAP1 JUMP JUMPDEST PUSH1 0x1 PUSH1 0x1 PUSH1 0xE0 SHL SUB DUP3 DUP2 AND DUP3 DUP3 AND SUB SWAP1 DUP2 GT ISZERO PUSH2 0xA2E JUMPI PUSH2 0xA2E PUSH2 0x4CC3 JUMP JUMPDEST PUSH1 0x1 PUSH1 0x1 PUSH1 0xE0 SHL SUB DUP2 DUP2 AND DUP4 DUP3 AND ADD SWAP1 DUP2 GT ISZERO PUSH2 0xA2E JUMPI PUSH2 0xA2E PUSH2 0x4CC3 JUMP JUMPDEST PUSH0 PUSH2 0x2992 DUP3 DUP5 PUSH2 0x4DC3 JUMP JUMPDEST PUSH4 0x4E487B71 PUSH1 0xE0 SHL PUSH0 MSTORE PUSH1 0x31 PUSH1 0x4 MSTORE PUSH1 0x24 PUSH0 REVERT INVALID CALLDATASIZE ADDMOD SWAP5 LOG1 EXTCODESIZE LOG1 LOG3 0x21 MOD PUSH8 0xC828492DB98DCA3E KECCAK256 PUSH23 0xCC3735A920A3CA505D382BBC65D7A28E3265B37A647492 SWAP16 CALLER PUSH6 0x21B332C1681B SWAP4 EXTCODEHASH PUSH13 0xB9F3376673440D862A41646472 PUSH6 0x73733A206C6F PUSH24 0x2D6C6576656C2064656C65676174652063616C6C20666169 PUSH13 0x65649F2DF0FED2C77648DE5860 LOG4 0xCC POP DUP13 0xD0 DUP2 DUP13 DUP6 0xB8 0xB8 LOG1 0xAB 0x4C 0xEE 0xEF DUP14 SWAP9 SHR DUP10 JUMP 0xA6 LOG2 PUSH5 0x6970667358 0x22 SLT KECCAK256 SMOD 0x29 DUP13 0xA8 SWAP4 PUSH13 0x3F88FF8CA87488E01CC55F945C MLOAD PUSH6 0xEB9C2C5EC68 DUP6 0xD8 JUMPDEST SWAP3 PUSH2 0x6473 PUSH16 0x6C634300081A00330000000000000000 "
		},
		"gasEstimates": {
			"creation": {
				"codeDepositCost": "4116800",
				"executionCost": "infinite",
				"totalCost": "infinite"
			},
			"external": {
				"CLOCK_MODE()": "infinite",
				"DEFAULT_ADMIN_ROLE()": "283",
				"DOMAIN_SEPARATOR()": "infinite",
				"MINTER_ROLE()": "infinite",
				"PAUSER_ROLE()": "infinite",
				"UPGRADER_ROLE()": "304",
				"approve(address,uint256)": "infinite",
				"balanceOf(address)": "2675",
				"burn(uint256)": "infinite",
				"characterTraits(uint256)": "infinite",
				"clock()": "432",
				"delegate(address)": "infinite",
				"delegateBySig(address,uint256,uint256,uint8,bytes32,bytes32)": "infinite",
				"delegates(address)": "2675",
				"eip712Domain()": "infinite",
				"getApproved(uint256)": "4832",
				"getPastTotalSupply(uint256)": "infinite",
				"getPastVotes(address,uint256)": "infinite",
				"getRoleAdmin(bytes32)": "2554",
				"getVotes(address)": "infinite",
				"grantRole(bytes32,address)": "infinite",
				"guildDetails(uint256)": "infinite",
				"hasRole(bytes32,address)": "2740",
				"initialize(address,address,address,address)": "infinite",
				"isApprovedForAll(address,address)": "infinite",
				"itemTraits(uint256)": "8906",
				"landDetails(uint256)": "infinite",
				"mintCharacter(address,uint256,string,string,string,string)": "infinite",
				"mintGuild(address,uint256,string,string,string)": "infinite",
				"mintItem(address,uint256,string,uint256,uint256,uint256,uint256)": "infinite",
				"mintLand(address,uint256,string,string,string)": "infinite",
				"name()": "infinite",
				"nonces(address)": "2724",
				"ownerOf(uint256)": "2603",
				"pause()": "infinite",
				"paused()": "2338",
				"proxiableUUID()": "infinite",
				"renounceRole(bytes32,address)": "29043",
				"revokeRole(bytes32,address)": "infinite",
				"safeMint(address,string)": "infinite",
				"safeTransferFrom(address,address,uint256)": "infinite",
				"safeTransferFrom(address,address,uint256,bytes)": "infinite",
				"setApprovalForAll(address,bool)": "26792",
				"supportsInterface(bytes4)": "infinite",
				"symbol()": "infinite",
				"tokenByIndex(uint256)": "6777",
				"tokenOfOwnerByIndex(address,uint256)": "5014",
				"tokenURI(uint256)": "infinite",
				"totalSupply()": "2437",
				"transferFrom(address,address,uint256)": "infinite",
				"unpause()": "infinite",
				"upgradeTo(address)": "infinite",
				"upgradeToAndCall(address,bytes)": "infinite"
			},
			"internal": {
				"_afterTokenTransfer(address,address,uint256,uint256)": "infinite",
				"_authorizeUpgrade(address)": "infinite",
				"_beforeTokenTransfer(address,address,uint256,uint256)": "infinite",
				"_burn(uint256)": "infinite"
			}
		},
		"methodIdentifiers": {
			"CLOCK_MODE()": "4bf5d7e9",
			"DEFAULT_ADMIN_ROLE()": "a217fddf",
			"DOMAIN_SEPARATOR()": "3644e515",
			"MINTER_ROLE()": "d5391393",
			"PAUSER_ROLE()": "e63ab1e9",
			"UPGRADER_ROLE()": "f72c0d8b",
			"approve(address,uint256)": "095ea7b3",
			"balanceOf(address)": "70a08231",
			"burn(uint256)": "42966c68",
			"characterTraits(uint256)": "7210b448",
			"clock()": "91ddadf4",
			"delegate(address)": "5c19a95c",
			"delegateBySig(address,uint256,uint256,uint8,bytes32,bytes32)": "c3cda520",
			"delegates(address)": "587cde1e",
			"eip712Domain()": "84b0196e",
			"getApproved(uint256)": "081812fc",
			"getPastTotalSupply(uint256)": "8e539e8c",
			"getPastVotes(address,uint256)": "3a46b1a8",
			"getRoleAdmin(bytes32)": "248a9ca3",
			"getVotes(address)": "9ab24eb0",
			"grantRole(bytes32,address)": "2f2ff15d",
			"guildDetails(uint256)": "346c8f53",
			"hasRole(bytes32,address)": "91d14854",
			"initialize(address,address,address,address)": "f8c8765e",
			"isApprovedForAll(address,address)": "e985e9c5",
			"itemTraits(uint256)": "1890545f",
			"landDetails(uint256)": "07f4d25c",
			"mintCharacter(address,uint256,string,string,string,string)": "4a9f2855",
			"mintGuild(address,uint256,string,string,string)": "8b87b540",
			"mintItem(address,uint256,string,uint256,uint256,uint256,uint256)": "79db0373",
			"mintLand(address,uint256,string,string,string)": "f60bf54c",
			"name()": "06fdde03",
			"nonces(address)": "7ecebe00",
			"ownerOf(uint256)": "6352211e",
			"pause()": "8456cb59",
			"paused()": "5c975abb",
			"proxiableUUID()": "52d1902d",
			"renounceRole(bytes32,address)": "36568abe",
			"revokeRole(bytes32,address)": "d547741f",
			"safeMint(address,string)": "d204c45e",
			"safeTransferFrom(address,address,uint256)": "42842e0e",
			"safeTransferFrom(address,address,uint256,bytes)": "b88d4fde",
			"setApprovalForAll(address,bool)": "a22cb465",
			"supportsInterface(bytes4)": "01ffc9a7",
			"symbol()": "95d89b41",
			"tokenByIndex(uint256)": "4f6ccce7",
			"tokenOfOwnerByIndex(address,uint256)": "2f745c59",
			"tokenURI(uint256)": "c87b56dd",
			"totalSupply()": "18160ddd",
			"transferFrom(address,address,uint256)": "23b872dd",
			"unpause()": "3f4ba83a",
			"upgradeTo(address)": "3659cfe6",
			"upgradeToAndCall(address,bytes)": "4f1ef286"
		}
	},
	"abi": [
		{
			"inputs": [],
			"stateMutability": "nonpayable",
			"type": "constructor"
		},
		{
			"anonymous": false,
			"inputs": [
				{
					"indexed": false,
					"internalType": "address",
					"name": "previousAdmin",
					"type": "address"
				},
				{
					"indexed": false,
					"internalType": "address",
					"name": "newAdmin",
					"type": "address"
				}
			],
			"name": "AdminChanged",
			"type": "event"
		},
		{
			"anonymous": false,
			"inputs": [
				{
					"indexed": true,
					"internalType": "address",
					"name": "owner",
					"type": "address"
				},
				{
					"indexed": true,
					"internalType": "address",
					"name": "approved",
					"type": "address"
				},
				{
					"indexed": true,
					"internalType": "uint256",
					"name": "tokenId",
					"type": "uint256"
				}
			],
			"name": "Approval",
			"type": "event"
		},
		{
			"anonymous": false,
			"inputs": [
				{
					"indexed": true,
					"internalType": "address",
					"name": "owner",
					"type": "address"
				},
				{
					"indexed": true,
					"internalType": "address",
					"name": "operator",
					"type": "address"
				},
				{
					"indexed": false,
					"internalType": "bool",
					"name": "approved",
					"type": "bool"
				}
			],
			"name": "ApprovalForAll",
			"type": "event"
		},
		{
			"anonymous": false,
			"inputs": [
				{
					"indexed": false,
					"internalType": "uint256",
					"name": "_fromTokenId",
					"type": "uint256"
				},
				{
					"indexed": false,
					"internalType": "uint256",
					"name": "_toTokenId",
					"type": "uint256"
				}
			],
			"name": "BatchMetadataUpdate",
			"type": "event"
		},
		{
			"anonymous": false,
			"inputs": [
				{
					"indexed": true,
					"internalType": "address",
					"name": "beacon",
					"type": "address"
				}
			],
			"name": "BeaconUpgraded",
			"type": "event"
		},
		{
			"anonymous": false,
			"inputs": [
				{
					"indexed": true,
					"internalType": "uint256",
					"name": "tokenId",
					"type": "uint256"
				},
				{
					"indexed": true,
					"internalType": "address",
					"name": "owner",
					"type": "address"
				},
				{
					"indexed": false,
					"internalType": "string",
					"name": "race",
					"type": "string"
				},
				{
					"indexed": false,
					"internalType": "string",
					"name": "armor",
					"type": "string"
				},
				{
					"indexed": false,
					"internalType": "string",
					"name": "appearance",
					"type": "string"
				}
			],
			"name": "CharacterMinted",
			"type": "event"
		},
		{
			"anonymous": false,
			"inputs": [
				{
					"indexed": true,
					"internalType": "address",
					"name": "delegator",
					"type": "address"
				},
				{
					"indexed": true,
					"internalType": "address",
					"name": "fromDelegate",
					"type": "address"
				},
				{
					"indexed": true,
					"internalType": "address",
					"name": "toDelegate",
					"type": "address"
				}
			],
			"name": "DelegateChanged",
			"type": "event"
		},
		{
			"anonymous": false,
			"inputs": [
				{
					"indexed": true,
					"internalType": "address",
					"name": "delegate",
					"type": "address"
				},
				{
					"indexed": false,
					"internalType": "uint256",
					"name": "previousBalance",
					"type": "uint256"
				},
				{
					"indexed": false,
					"internalType": "uint256",
					"name": "newBalance",
					"type": "uint256"
				}
			],
			"name": "DelegateVotesChanged",
			"type": "event"
		},
		{
			"anonymous": false,
			"inputs": [],
			"name": "EIP712DomainChanged",
			"type": "event"
		},
		{
			"anonymous": false,
			"inputs": [
				{
					"indexed": true,
					"internalType": "uint256",
					"name": "guildId",
					"type": "uint256"
				},
				{
					"indexed": true,
					"internalType": "address",
					"name": "owner",
					"type": "address"
				},
				{
					"indexed": false,
					"internalType": "string",
					"name": "name",
					"type": "string"
				},
				{
					"indexed": false,
					"internalType": "string",
					"name": "heraldry",
					"type": "string"
				}
			],
			"name": "GuildCreated",
			"type": "event"
		},
		{
			"anonymous": false,
			"inputs": [
				{
					"indexed": false,
					"internalType": "uint8",
					"name": "version",
					"type": "uint8"
				}
			],
			"name": "Initialized",
			"type": "event"
		},
		{
			"anonymous": false,
			"inputs": [
				{
					"indexed": true,
					"internalType": "uint256",
					"name": "itemId",
					"type": "uint256"
				},
				{
					"indexed": true,
					"internalType": "address",
					"name": "owner",
					"type": "address"
				},
				{
					"indexed": false,
					"internalType": "string",
					"name": "tokenURI",
					"type": "string"
				},
				{
					"indexed": false,
					"internalType": "uint256",
					"name": "attackBonus",
					"type": "uint256"
				},
				{
					"indexed": false,
					"internalType": "uint256",
					"name": "defenseBonus",
					"type": "uint256"
				},
				{
					"indexed": false,
					"internalType": "uint256",
					"name": "manaBonus",
					"type": "uint256"
				},
				{
					"indexed": false,
					"internalType": "uint256",
					"name": "healthBonus",
					"type": "uint256"
				}
			],
			"name": "ItemMinted",
			"type": "event"
		},
		{
			"anonymous": false,
			"inputs": [
				{
					"indexed": true,
					"internalType": "uint256",
					"name": "landId",
					"type": "uint256"
				},
				{
					"indexed": true,
					"internalType": "address",
					"name": "owner",
					"type": "address"
				},
				{
					"indexed": false,
					"internalType": "string",
					"name": "location",
					"type": "string"
				},
				{
					"indexed": false,
					"internalType": "string",
					"name": "landType",
					"type": "string"
				}
			],
			"name": "LandMinted",
			"type": "event"
		},
		{
			"anonymous": false,
			"inputs": [
				{
					"indexed": false,
					"internalType": "uint256",
					"name": "_tokenId",
					"type": "uint256"
				}
			],
			"name": "MetadataUpdate",
			"type": "event"
		},
		{
			"anonymous": false,
			"inputs": [
				{
					"indexed": false,
					"internalType": "address",
					"name": "account",
					"type": "address"
				}
			],
			"name": "Paused",
			"type": "event"
		},
		{
			"anonymous": false,
			"inputs": [
				{
					"indexed": true,
					"internalType": "bytes32",
					"name": "role",
					"type": "bytes32"
				},
				{
					"indexed": true,
					"internalType": "bytes32",
					"name": "previousAdminRole",
					"type": "bytes32"
				},
				{
					"indexed": true,
					"internalType": "bytes32",
					"name": "newAdminRole",
					"type": "bytes32"
				}
			],
			"name": "RoleAdminChanged",
			"type": "event"
		},
		{
			"anonymous": false,
			"inputs": [
				{
					"indexed": true,
					"internalType": "bytes32",
					"name": "role",
					"type": "bytes32"
				},
				{
					"indexed": true,
					"internalType": "address",
					"name": "account",
					"type": "address"
				},
				{
					"indexed": true,
					"internalType": "address",
					"name": "sender",
					"type": "address"
				}
			],
			"name": "RoleGranted",
			"type": "event"
		},
		{
			"anonymous": false,
			"inputs": [
				{
					"indexed": true,
					"internalType": "bytes32",
					"name": "role",
					"type": "bytes32"
				},
				{
					"indexed": true,
					"internalType": "address",
					"name": "account",
					"type": "address"
				},
				{
					"indexed": true,
					"internalType": "address",
					"name": "sender",
					"type": "address"
				}
			],
			"name": "RoleRevoked",
			"type": "event"
		},
		{
			"anonymous": false,
			"inputs": [
				{
					"indexed": true,
					"internalType": "address",
					"name": "from",
					"type": "address"
				},
				{
					"indexed": true,
					"internalType": "address",
					"name": "to",
					"type": "address"
				},
				{
					"indexed": true,
					"internalType": "uint256",
					"name": "tokenId",
					"type": "uint256"
				}
			],
			"name": "Transfer",
			"type": "event"
		},
		{
			"anonymous": false,
			"inputs": [
				{
					"indexed": false,
					"internalType": "address",
					"name": "account",
					"type": "address"
				}
			],
			"name": "Unpaused",
			"type": "event"
		},
		{
			"anonymous": false,
			"inputs": [
				{
					"indexed": true,
					"internalType": "address",
					"name": "implementation",
					"type": "address"
				}
			],
			"name": "Upgraded",
			"type": "event"
		},
		{
			"inputs": [],
			"name": "CLOCK_MODE",
			"outputs": [
				{
					"internalType": "string",
					"name": "",
					"type": "string"
				}
			],
			"stateMutability": "view",
			"type": "function"
		},
		{
			"inputs": [],
			"name": "DEFAULT_ADMIN_ROLE",
			"outputs": [
				{
					"internalType": "bytes32",
					"name": "",
					"type": "bytes32"
				}
			],
			"stateMutability": "view",
			"type": "function"
		},
		{
			"inputs": [],
			"name": "DOMAIN_SEPARATOR",
			"outputs": [
				{
					"internalType": "bytes32",
					"name": "",
					"type": "bytes32"
				}
			],
			"stateMutability": "view",
			"type": "function"
		},
		{
			"inputs": [],
			"name": "MINTER_ROLE",
			"outputs": [
				{
					"internalType": "bytes32",
					"name": "",
					"type": "bytes32"
				}
			],
			"stateMutability": "view",
			"type": "function"
		},
		{
			"inputs": [],
			"name": "PAUSER_ROLE",
			"outputs": [
				{
					"internalType": "bytes32",
					"name": "",
					"type": "bytes32"
				}
			],
			"stateMutability": "view",
			"type": "function"
		},
		{
			"inputs": [],
			"name": "UPGRADER_ROLE",
			"outputs": [
				{
					"internalType": "bytes32",
					"name": "",
					"type": "bytes32"
				}
			],
			"stateMutability": "view",
			"type": "function"
		},
		{
			"inputs": [
				{
					"internalType": "address",
					"name": "to",
					"type": "address"
				},
				{
					"internalType": "uint256",
					"name": "tokenId",
					"type": "uint256"
				}
			],
			"name": "approve",
			"outputs": [],
			"stateMutability": "nonpayable",
			"type": "function"
		},
		{
			"inputs": [
				{
					"internalType": "address",
					"name": "owner",
					"type": "address"
				}
			],
			"name": "balanceOf",
			"outputs": [
				{
					"internalType": "uint256",
					"name": "",
					"type": "uint256"
				}
			],
			"stateMutability": "view",
			"type": "function"
		},
		{
			"inputs": [
				{
					"internalType": "uint256",
					"name": "tokenId",
					"type": "uint256"
				}
			],
			"name": "burn",
			"outputs": [],
			"stateMutability": "nonpayable",
			"type": "function"
		},
		{
			"inputs": [
				{
					"internalType": "uint256",
					"name": "",
					"type": "uint256"
				}
			],
			"name": "characterTraits",
			"outputs": [
				{
					"internalType": "string",
					"name": "race",
					"type": "string"
				},
				{
					"internalType": "string",
					"name": "armor",
					"type": "string"
				},
				{
					"internalType": "string",
					"name": "appearance",
					"type": "string"
				}
			],
			"stateMutability": "view",
			"type": "function"
		},
		{
			"inputs": [],
			"name": "clock",
			"outputs": [
				{
					"internalType": "uint48",
					"name": "",
					"type": "uint48"
				}
			],
			"stateMutability": "view",
			"type": "function"
		},
		{
			"inputs": [
				{
					"internalType": "address",
					"name": "delegatee",
					"type": "address"
				}
			],
			"name": "delegate",
			"outputs": [],
			"stateMutability": "nonpayable",
			"type": "function"
		},
		{
			"inputs": [
				{
					"internalType": "address",
					"name": "delegatee",
					"type": "address"
				},
				{
					"internalType": "uint256",
					"name": "nonce",
					"type": "uint256"
				},
				{
					"internalType": "uint256",
					"name": "expiry",
					"type": "uint256"
				},
				{
					"internalType": "uint8",
					"name": "v",
					"type": "uint8"
				},
				{
					"internalType": "bytes32",
					"name": "r",
					"type": "bytes32"
				},
				{
					"internalType": "bytes32",
					"name": "s",
					"type": "bytes32"
				}
			],
			"name": "delegateBySig",
			"outputs": [],
			"stateMutability": "nonpayable",
			"type": "function"
		},
		{
			"inputs": [
				{
					"internalType": "address",
					"name": "account",
					"type": "address"
				}
			],
			"name": "delegates",
			"outputs": [
				{
					"internalType": "address",
					"name": "",
					"type": "address"
				}
			],
			"stateMutability": "view",
			"type": "function"
		},
		{
			"inputs": [],
			"name": "eip712Domain",
			"outputs": [
				{
					"internalType": "bytes1",
					"name": "fields",
					"type": "bytes1"
				},
				{
					"internalType": "string",
					"name": "name",
					"type": "string"
				},
				{
					"internalType": "string",
					"name": "version",
					"type": "string"
				},
				{
					"internalType": "uint256",
					"name": "chainId",
					"type": "uint256"
				},
				{
					"internalType": "address",
					"name": "verifyingContract",
					"type": "address"
				},
				{
					"internalType": "bytes32",
					"name": "salt",
					"type": "bytes32"
				},
				{
					"internalType": "uint256[]",
					"name": "extensions",
					"type": "uint256[]"
				}
			],
			"stateMutability": "view",
			"type": "function"
		},
		{
			"inputs": [
				{
					"internalType": "uint256",
					"name": "tokenId",
					"type": "uint256"
				}
			],
			"name": "getApproved",
			"outputs": [
				{
					"internalType": "address",
					"name": "",
					"type": "address"
				}
			],
			"stateMutability": "view",
			"type": "function"
		},
		{
			"inputs": [
				{
					"internalType": "uint256",
					"name": "timepoint",
					"type": "uint256"
				}
			],
			"name": "getPastTotalSupply",
			"outputs": [
				{
					"internalType": "uint256",
					"name": "",
					"type": "uint256"
				}
			],
			"stateMutability": "view",
			"type": "function"
		},
		{
			"inputs": [
				{
					"internalType": "address",
					"name": "account",
					"type": "address"
				},
				{
					"internalType": "uint256",
					"name": "timepoint",
					"type": "uint256"
				}
			],
			"name": "getPastVotes",
			"outputs": [
				{
					"internalType": "uint256",
					"name": "",
					"type": "uint256"
				}
			],
			"stateMutability": "view",
			"type": "function"
		},
		{
			"inputs": [
				{
					"internalType": "bytes32",
					"name": "role",
					"type": "bytes32"
				}
			],
			"name": "getRoleAdmin",
			"outputs": [
				{
					"internalType": "bytes32",
					"name": "",
					"type": "bytes32"
				}
			],
			"stateMutability": "view",
			"type": "function"
		},
		{
			"inputs": [
				{
					"internalType": "address",
					"name": "account",
					"type": "address"
				}
			],
			"name": "getVotes",
			"outputs": [
				{
					"internalType": "uint256",
					"name": "",
					"type": "uint256"
				}
			],
			"stateMutability": "view",
			"type": "function"
		},
		{
			"inputs": [
				{
					"internalType": "bytes32",
					"name": "role",
					"type": "bytes32"
				},
				{
					"internalType": "address",
					"name": "account",
					"type": "address"
				}
			],
			"name": "grantRole",
			"outputs": [],
			"stateMutability": "nonpayable",
			"type": "function"
		},
		{
			"inputs": [
				{
					"internalType": "uint256",
					"name": "",
					"type": "uint256"
				}
			],
			"name": "guildDetails",
			"outputs": [
				{
					"internalType": "string",
					"name": "name",
					"type": "string"
				},
				{
					"internalType": "string",
					"name": "heraldry",
					"type": "string"
				}
			],
			"stateMutability": "view",
			"type": "function"
		},
		{
			"inputs": [
				{
					"internalType": "bytes32",
					"name": "role",
					"type": "bytes32"
				},
				{
					"internalType": "address",
					"name": "account",
					"type": "address"
				}
			],
			"name": "hasRole",
			"outputs": [
				{
					"internalType": "bool",
					"name": "",
					"type": "bool"
				}
			],
			"stateMutability": "view",
			"type": "function"
		},
		{
			"inputs": [
				{
					"internalType": "address",
					"name": "defaultAdmin",
					"type": "address"
				},
				{
					"internalType": "address",
					"name": "pauser",
					"type": "address"
				},
				{
					"internalType": "address",
					"name": "minter",
					"type": "address"
				},
				{
					"internalType": "address",
					"name": "upgrader",
					"type": "address"
				}
			],
			"name": "initialize",
			"outputs": [],
			"stateMutability": "nonpayable",
			"type": "function"
		},
		{
			"inputs": [
				{
					"internalType": "address",
					"name": "owner",
					"type": "address"
				},
				{
					"internalType": "address",
					"name": "operator",
					"type": "address"
				}
			],
			"name": "isApprovedForAll",
			"outputs": [
				{
					"internalType": "bool",
					"name": "",
					"type": "bool"
				}
			],
			"stateMutability": "view",
			"type": "function"
		},
		{
			"inputs": [
				{
					"internalType": "uint256",
					"name": "",
					"type": "uint256"
				}
			],
			"name": "itemTraits",
			"outputs": [
				{
					"internalType": "uint256",
					"name": "attackBonus",
					"type": "uint256"
				},
				{
					"internalType": "uint256",
					"name": "defenseBonus",
					"type": "uint256"
				},
				{
					"internalType": "uint256",
					"name": "manaBonus",
					"type": "uint256"
				},
				{
					"internalType": "uint256",
					"name": "healthBonus",
					"type": "uint256"
				}
			],
			"stateMutability": "view",
			"type": "function"
		},
		{
			"inputs": [
				{
					"internalType": "uint256",
					"name": "",
					"type": "uint256"
				}
			],
			"name": "landDetails",
			"outputs": [
				{
					"internalType": "string",
					"name": "location",
					"type": "string"
				},
				{
					"internalType": "string",
					"name": "landType",
					"type": "string"
				}
			],
			"stateMutability": "view",
			"type": "function"
		},
		{
			"inputs": [
				{
					"internalType": "address",
					"name": "to",
					"type": "address"
				},
				{
					"internalType": "uint256",
					"name": "tokenId",
					"type": "uint256"
				},
				{
					"internalType": "string",
					"name": "race",
					"type": "string"
				},
				{
					"internalType": "string",
					"name": "armor",
					"type": "string"
				},
				{
					"internalType": "string",
					"name": "appearance",
					"type": "string"
				},
				{
					"internalType": "string",
					"name": "tokenURI_",
					"type": "string"
				}
			],
			"name": "mintCharacter",
			"outputs": [],
			"stateMutability": "nonpayable",
			"type": "function"
		},
		{
			"inputs": [
				{
					"internalType": "address",
					"name": "to",
					"type": "address"
				},
				{
					"internalType": "uint256",
					"name": "guildId",
					"type": "uint256"
				},
				{
					"internalType": "string",
					"name": "name",
					"type": "string"
				},
				{
					"internalType": "string",
					"name": "heraldry",
					"type": "string"
				},
				{
					"internalType": "string",
					"name": "tokenURI_",
					"type": "string"
				}
			],
			"name": "mintGuild",
			"outputs": [],
			"stateMutability": "nonpayable",
			"type": "function"
		},
		{
			"inputs": [
				{
					"internalType": "address",
					"name": "to",
					"type": "address"
				},
				{
					"internalType": "uint256",
					"name": "itemId",
					"type": "uint256"
				},
				{
					"internalType": "string",
					"name": "tokenURI_",
					"type": "string"
				},
				{
					"internalType": "uint256",
					"name": "attackBonus",
					"type": "uint256"
				},
				{
					"internalType": "uint256",
					"name": "defenseBonus",
					"type": "uint256"
				},
				{
					"internalType": "uint256",
					"name": "manaBonus",
					"type": "uint256"
				},
				{
					"internalType": "uint256",
					"name": "healthBonus",
					"type": "uint256"
				}
			],
			"name": "mintItem",
			"outputs": [],
			"stateMutability": "nonpayable",
			"type": "function"
		},
		{
			"inputs": [
				{
					"internalType": "address",
					"name": "to",
					"type": "address"
				},
				{
					"internalType": "uint256",
					"name": "newLandId",
					"type": "uint256"
				},
				{
					"internalType": "string",
					"name": "location",
					"type": "string"
				},
				{
					"internalType": "string",
					"name": "landType",
					"type": "string"
				},
				{
					"internalType": "string",
					"name": "tokenURI_",
					"type": "string"
				}
			],
			"name": "mintLand",
			"outputs": [],
			"stateMutability": "nonpayable",
			"type": "function"
		},
		{
			"inputs": [],
			"name": "name",
			"outputs": [
				{
					"internalType": "string",
					"name": "",
					"type": "string"
				}
			],
			"stateMutability": "view",
			"type": "function"
		},
		{
			"inputs": [
				{
					"internalType": "address",
					"name": "owner",
					"type": "address"
				}
			],
			"name": "nonces",
			"outputs": [
				{
					"internalType": "uint256",
					"name": "",
					"type": "uint256"
				}
			],
			"stateMutability": "view",
			"type": "function"
		},
		{
			"inputs": [
				{
					"internalType": "uint256",
					"name": "tokenId",
					"type": "uint256"
				}
			],
			"name": "ownerOf",
			"outputs": [
				{
					"internalType": "address",
					"name": "",
					"type": "address"
				}
			],
			"stateMutability": "view",
			"type": "function"
		},
		{
			"inputs": [],
			"name": "pause",
			"outputs": [],
			"stateMutability": "nonpayable",
			"type": "function"
		},
		{
			"inputs": [],
			"name": "paused",
			"outputs": [
				{
					"internalType": "bool",
					"name": "",
					"type": "bool"
				}
			],
			"stateMutability": "view",
			"type": "function"
		},
		{
			"inputs": [],
			"name": "proxiableUUID",
			"outputs": [
				{
					"internalType": "bytes32",
					"name": "",
					"type": "bytes32"
				}
			],
			"stateMutability": "view",
			"type": "function"
		},
		{
			"inputs": [
				{
					"internalType": "bytes32",
					"name": "role",
					"type": "bytes32"
				},
				{
					"internalType": "address",
					"name": "account",
					"type": "address"
				}
			],
			"name": "renounceRole",
			"outputs": [],
			"stateMutability": "nonpayable",
			"type": "function"
		},
		{
			"inputs": [
				{
					"internalType": "bytes32",
					"name": "role",
					"type": "bytes32"
				},
				{
					"internalType": "address",
					"name": "account",
					"type": "address"
				}
			],
			"name": "revokeRole",
			"outputs": [],
			"stateMutability": "nonpayable",
			"type": "function"
		},
		{
			"inputs": [
				{
					"internalType": "address",
					"name": "to",
					"type": "address"
				},
				{
					"internalType": "string",
					"name": "uri",
					"type": "string"
				}
			],
			"name": "safeMint",
			"outputs": [],
			"stateMutability": "nonpayable",
			"type": "function"
		},
		{
			"inputs": [
				{
					"internalType": "address",
					"name": "from",
					"type": "address"
				},
				{
					"internalType": "address",
					"name": "to",
					"type": "address"
				},
				{
					"internalType": "uint256",
					"name": "tokenId",
					"type": "uint256"
				}
			],
			"name": "safeTransferFrom",
			"outputs": [],
			"stateMutability": "nonpayable",
			"type": "function"
		},
		{
			"inputs": [
				{
					"internalType": "address",
					"name": "from",
					"type": "address"
				},
				{
					"internalType": "address",
					"name": "to",
					"type": "address"
				},
				{
					"internalType": "uint256",
					"name": "tokenId",
					"type": "uint256"
				},
				{
					"internalType": "bytes",
					"name": "data",
					"type": "bytes"
				}
			],
			"name": "safeTransferFrom",
			"outputs": [],
			"stateMutability": "nonpayable",
			"type": "function"
		},
		{
			"inputs": [
				{
					"internalType": "address",
					"name": "operator",
					"type": "address"
				},
				{
					"internalType": "bool",
					"name": "approved",
					"type": "bool"
				}
			],
			"name": "setApprovalForAll",
			"outputs": [],
			"stateMutability": "nonpayable",
			"type": "function"
		},
		{
			"inputs": [
				{
					"internalType": "bytes4",
					"name": "interfaceId",
					"type": "bytes4"
				}
			],
			"name": "supportsInterface",
			"outputs": [
				{
					"internalType": "bool",
					"name": "",
					"type": "bool"
				}
			],
			"stateMutability": "view",
			"type": "function"
		},
		{
			"inputs": [],
			"name": "symbol",
			"outputs": [
				{
					"internalType": "string",
					"name": "",
					"type": "string"
				}
			],
			"stateMutability": "view",
			"type": "function"
		},
		{
			"inputs": [
				{
					"internalType": "uint256",
					"name": "index",
					"type": "uint256"
				}
			],
			"name": "tokenByIndex",
			"outputs": [
				{
					"internalType": "uint256",
					"name": "",
					"type": "uint256"
				}
			],
			"stateMutability": "view",
			"type": "function"
		},
		{
			"inputs": [
				{
					"internalType": "address",
					"name": "owner",
					"type": "address"
				},
				{
					"internalType": "uint256",
					"name": "index",
					"type": "uint256"
				}
			],
			"name": "tokenOfOwnerByIndex",
			"outputs": [
				{
					"internalType": "uint256",
					"name": "",
					"type": "uint256"
				}
			],
			"stateMutability": "view",
			"type": "function"
		},
		{
			"inputs": [
				{
					"internalType": "uint256",
					"name": "tokenId",
					"type": "uint256"
				}
			],
			"name": "tokenURI",
			"outputs": [
				{
					"internalType": "string",
					"name": "",
					"type": "string"
				}
			],
			"stateMutability": "view",
			"type": "function"
		},
		{
			"inputs": [],
			"name": "totalSupply",
			"outputs": [
				{
					"internalType": "uint256",
					"name": "",
					"type": "uint256"
				}
			],
			"stateMutability": "view",
			"type": "function"
		},
		{
			"inputs": [
				{
					"internalType": "address",
					"name": "from",
					"type": "address"
				},
				{
					"internalType": "address",
					"name": "to",
					"type": "address"
				},
				{
					"internalType": "uint256",
					"name": "tokenId",
					"type": "uint256"
				}
			],
			"name": "transferFrom",
			"outputs": [],
			"stateMutability": "nonpayable",
			"type": "function"
		},
		{
			"inputs": [],
			"name": "unpause",
			"outputs": [],
			"stateMutability": "nonpayable",
			"type": "function"
		},
		{
			"inputs": [
				{
					"internalType": "address",
					"name": "newImplementation",
					"type": "address"
				}
			],
			"name": "upgradeTo",
			"outputs": [],
			"stateMutability": "nonpayable",
			"type": "function"
		},
		{
			"inputs": [
				{
					"internalType": "address",
					"name": "newImplementation",
					"type": "address"
				},
				{
					"internalType": "bytes",
					"name": "data",
					"type": "bytes"
				}
			],
			"name": "upgradeToAndCall",
			"outputs": [],
			"stateMutability": "payable",
			"type": "function"
		}
	]
}