{
	"src/smartcontracts/CryptoQuestTheShardsOfGenesisStaking.sol": {
		"CryptoQuestTheShardsOfGenesisStaking": {
			"abi": [
				{
					"inputs": [],
					"stateMutability": "nonpayable",
					"type": "constructor"
				},
				{
					"inputs": [],
					"name": "AccessControlBadConfirmation",
					"type": "error"
				},
				{
					"inputs": [
						{
							"internalType": "address",
							"name": "account",
							"type": "address"
						},
						{
							"internalType": "bytes32",
							"name": "neededRole",
							"type": "bytes32"
						}
					],
					"name": "AccessControlUnauthorizedAccount",
					"type": "error"
				},
				{
					"inputs": [
						{
							"internalType": "address",
							"name": "target",
							"type": "address"
						}
					],
					"name": "AddressEmptyCode",
					"type": "error"
				},
				{
					"inputs": [
						{
							"internalType": "address",
							"name": "implementation",
							"type": "address"
						}
					],
					"name": "ERC1967InvalidImplementation",
					"type": "error"
				},
				{
					"inputs": [],
					"name": "ERC1967NonPayable",
					"type": "error"
				},
				{
					"inputs": [],
					"name": "FailedInnerCall",
					"type": "error"
				},
				{
					"inputs": [],
					"name": "InvalidInitialization",
					"type": "error"
				},
				{
					"inputs": [],
					"name": "NotInitializing",
					"type": "error"
				},
				{
					"inputs": [],
					"name": "UUPSUnauthorizedCallContext",
					"type": "error"
				},
				{
					"inputs": [
						{
							"internalType": "bytes32",
							"name": "slot",
							"type": "bytes32"
						}
					],
					"name": "UUPSUnsupportedProxiableUUID",
					"type": "error"
				},
				{
					"anonymous": false,
					"inputs": [
						{
							"indexed": false,
							"internalType": "uint64",
							"name": "version",
							"type": "uint64"
						}
					],
					"name": "Initialized",
					"type": "event"
				},
				{
					"anonymous": false,
					"inputs": [
						{
							"indexed": false,
							"internalType": "address",
							"name": "account",
							"type": "address"
						}
					],
					"name": "Paused",
					"type": "event"
				},
				{
					"anonymous": false,
					"inputs": [
						{
							"indexed": true,
							"internalType": "bytes32",
							"name": "role",
							"type": "bytes32"
						},
						{
							"indexed": true,
							"internalType": "bytes32",
							"name": "previousAdminRole",
							"type": "bytes32"
						},
						{
							"indexed": true,
							"internalType": "bytes32",
							"name": "newAdminRole",
							"type": "bytes32"
						}
					],
					"name": "RoleAdminChanged",
					"type": "event"
				},
				{
					"anonymous": false,
					"inputs": [
						{
							"indexed": true,
							"internalType": "bytes32",
							"name": "role",
							"type": "bytes32"
						},
						{
							"indexed": true,
							"internalType": "address",
							"name": "account",
							"type": "address"
						},
						{
							"indexed": true,
							"internalType": "address",
							"name": "sender",
							"type": "address"
						}
					],
					"name": "RoleGranted",
					"type": "event"
				},
				{
					"anonymous": false,
					"inputs": [
						{
							"indexed": true,
							"internalType": "bytes32",
							"name": "role",
							"type": "bytes32"
						},
						{
							"indexed": true,
							"internalType": "address",
							"name": "account",
							"type": "address"
						},
						{
							"indexed": true,
							"internalType": "address",
							"name": "sender",
							"type": "address"
						}
					],
					"name": "RoleRevoked",
					"type": "event"
				},
				{
					"anonymous": false,
					"inputs": [
						{
							"indexed": false,
							"internalType": "uint256",
							"name": "tokenId",
							"type": "uint256"
						},
						{
							"indexed": false,
							"internalType": "address",
							"name": "owner",
							"type": "address"
						},
						{
							"indexed": false,
							"internalType": "uint256",
							"name": "stakeTime",
							"type": "uint256"
						}
					],
					"name": "Staked",
					"type": "event"
				},
				{
					"anonymous": false,
					"inputs": [
						{
							"indexed": false,
							"internalType": "address",
							"name": "account",
							"type": "address"
						}
					],
					"name": "Unpaused",
					"type": "event"
				},
				{
					"anonymous": false,
					"inputs": [
						{
							"indexed": false,
							"internalType": "uint256",
							"name": "tokenId",
							"type": "uint256"
						},
						{
							"indexed": false,
							"internalType": "address",
							"name": "owner",
							"type": "address"
						},
						{
							"indexed": false,
							"internalType": "uint256",
							"name": "unstakeTime",
							"type": "uint256"
						},
						{
							"indexed": false,
							"internalType": "uint256",
							"name": "reward",
							"type": "uint256"
						}
					],
					"name": "Unstaked",
					"type": "event"
				},
				{
					"anonymous": false,
					"inputs": [
						{
							"indexed": true,
							"internalType": "address",
							"name": "implementation",
							"type": "address"
						}
					],
					"name": "Upgraded",
					"type": "event"
				},
				{
					"inputs": [],
					"name": "DEFAULT_ADMIN_ROLE",
					"outputs": [
						{
							"internalType": "bytes32",
							"name": "",
							"type": "bytes32"
						}
					],
					"stateMutability": "view",
					"type": "function"
				},
				{
					"inputs": [],
					"name": "PAUSER_ROLE",
					"outputs": [
						{
							"internalType": "bytes32",
							"name": "",
							"type": "bytes32"
						}
					],
					"stateMutability": "view",
					"type": "function"
				},
				{
					"inputs": [],
					"name": "UPGRADER_ROLE",
					"outputs": [
						{
							"internalType": "bytes32",
							"name": "",
							"type": "bytes32"
						}
					],
					"stateMutability": "view",
					"type": "function"
				},
				{
					"inputs": [],
					"name": "UPGRADE_INTERFACE_VERSION",
					"outputs": [
						{
							"internalType": "string",
							"name": "",
							"type": "string"
						}
					],
					"stateMutability": "view",
					"type": "function"
				},
				{
					"inputs": [],
					"name": "cqnft1155Token",
					"outputs": [
						{
							"internalType": "address",
							"name": "",
							"type": "address"
						}
					],
					"stateMutability": "view",
					"type": "function"
				},
				{
					"inputs": [],
					"name": "cqnftToken",
					"outputs": [
						{
							"internalType": "address",
							"name": "",
							"type": "address"
						}
					],
					"stateMutability": "view",
					"type": "function"
				},
				{
					"inputs": [],
					"name": "cqtToken",
					"outputs": [
						{
							"internalType": "address",
							"name": "",
							"type": "address"
						}
					],
					"stateMutability": "view",
					"type": "function"
				},
				{
					"inputs": [
						{
							"internalType": "bytes32",
							"name": "role",
							"type": "bytes32"
						}
					],
					"name": "getRoleAdmin",
					"outputs": [
						{
							"internalType": "bytes32",
							"name": "",
							"type": "bytes32"
						}
					],
					"stateMutability": "view",
					"type": "function"
				},
				{
					"inputs": [
						{
							"internalType": "bytes32",
							"name": "role",
							"type": "bytes32"
						},
						{
							"internalType": "address",
							"name": "account",
							"type": "address"
						}
					],
					"name": "grantRole",
					"outputs": [],
					"stateMutability": "nonpayable",
					"type": "function"
				},
				{
					"inputs": [
						{
							"internalType": "bytes32",
							"name": "role",
							"type": "bytes32"
						},
						{
							"internalType": "address",
							"name": "account",
							"type": "address"
						}
					],
					"name": "hasRole",
					"outputs": [
						{
							"internalType": "bool",
							"name": "",
							"type": "bool"
						}
					],
					"stateMutability": "view",
					"type": "function"
				},
				{
					"inputs": [
						{
							"internalType": "address",
							"name": "_cqtToken",
							"type": "address"
						},
						{
							"internalType": "address",
							"name": "_cqnftToken",
							"type": "address"
						},
						{
							"internalType": "address",
							"name": "_cqnft1155Token",
							"type": "address"
						},
						{
							"internalType": "uint256",
							"name": "_rewardRate",
							"type": "uint256"
						},
						{
							"internalType": "uint256",
							"name": "_minimumStakingPeriod",
							"type": "uint256"
						}
					],
					"name": "initialize",
					"outputs": [],
					"stateMutability": "nonpayable",
					"type": "function"
				},
				{
					"inputs": [],
					"name": "minimumStakingPeriod",
					"outputs": [
						{
							"internalType": "uint256",
							"name": "",
							"type": "uint256"
						}
					],
					"stateMutability": "view",
					"type": "function"
				},
				{
					"inputs": [],
					"name": "paused",
					"outputs": [
						{
							"internalType": "bool",
							"name": "",
							"type": "bool"
						}
					],
					"stateMutability": "view",
					"type": "function"
				},
				{
					"inputs": [],
					"name": "proxiableUUID",
					"outputs": [
						{
							"internalType": "bytes32",
							"name": "",
							"type": "bytes32"
						}
					],
					"stateMutability": "view",
					"type": "function"
				},
				{
					"inputs": [
						{
							"internalType": "bytes32",
							"name": "role",
							"type": "bytes32"
						},
						{
							"internalType": "address",
							"name": "callerConfirmation",
							"type": "address"
						}
					],
					"name": "renounceRole",
					"outputs": [],
					"stateMutability": "nonpayable",
					"type": "function"
				},
				{
					"inputs": [
						{
							"internalType": "bytes32",
							"name": "role",
							"type": "bytes32"
						},
						{
							"internalType": "address",
							"name": "account",
							"type": "address"
						}
					],
					"name": "revokeRole",
					"outputs": [],
					"stateMutability": "nonpayable",
					"type": "function"
				},
				{
					"inputs": [],
					"name": "rewardRate",
					"outputs": [
						{
							"internalType": "uint256",
							"name": "",
							"type": "uint256"
						}
					],
					"stateMutability": "view",
					"type": "function"
				},
				{
					"inputs": [
						{
							"internalType": "uint256",
							"name": "_tokenId",
							"type": "uint256"
						},
						{
							"internalType": "uint256",
							"name": "_rarity",
							"type": "uint256"
						}
					],
					"name": "stake",
					"outputs": [],
					"stateMutability": "nonpayable",
					"type": "function"
				},
				{
					"inputs": [
						{
							"internalType": "uint256[]",
							"name": "_tokenIds",
							"type": "uint256[]"
						},
						{
							"internalType": "uint256[]",
							"name": "_rarities",
							"type": "uint256[]"
						}
					],
					"name": "stakeBatch",
					"outputs": [],
					"stateMutability": "nonpayable",
					"type": "function"
				},
				{
					"inputs": [
						{
							"internalType": "uint256",
							"name": "",
							"type": "uint256"
						}
					],
					"name": "stakes",
					"outputs": [
						{
							"internalType": "uint256",
							"name": "tokenId",
							"type": "uint256"
						},
						{
							"internalType": "address",
							"name": "owner",
							"type": "address"
						},
						{
							"internalType": "uint256",
							"name": "stakeTime",
							"type": "uint256"
						},
						{
							"internalType": "uint256",
							"name": "unstakeTime",
							"type": "uint256"
						},
						{
							"internalType": "uint256",
							"name": "reward",
							"type": "uint256"
						},
						{
							"internalType": "uint256",
							"name": "rarity",
							"type": "uint256"
						}
					],
					"stateMutability": "view",
					"type": "function"
				},
				{
					"inputs": [
						{
							"internalType": "bytes4",
							"name": "interfaceId",
							"type": "bytes4"
						}
					],
					"name": "supportsInterface",
					"outputs": [
						{
							"internalType": "bool",
							"name": "",
							"type": "bool"
						}
					],
					"stateMutability": "view",
					"type": "function"
				},
				{
					"inputs": [
						{
							"internalType": "uint256",
							"name": "_tokenId",
							"type": "uint256"
						}
					],
					"name": "unstake",
					"outputs": [],
					"stateMutability": "nonpayable",
					"type": "function"
				},
				{
					"inputs": [
						{
							"internalType": "address",
							"name": "newImplementation",
							"type": "address"
						},
						{
							"internalType": "bytes",
							"name": "data",
							"type": "bytes"
						}
					],
					"name": "upgradeToAndCall",
					"outputs": [],
					"stateMutability": "payable",
					"type": "function"
				}
			],
			"devdoc": {
				"custom:security-contact": "jacquedegraff@creodamo.com",
				"errors": {
					"AccessControlBadConfirmation()": [
						{
							"details": "The caller of a function is not the expected one. NOTE: Don't confuse with {AccessControlUnauthorizedAccount}."
						}
					],
					"AccessControlUnauthorizedAccount(address,bytes32)": [
						{
							"details": "The `account` is missing a role."
						}
					],
					"AddressEmptyCode(address)": [
						{
							"details": "There's no code at `target` (it is not a contract)."
						}
					],
					"ERC1967InvalidImplementation(address)": [
						{
							"details": "The `implementation` of the proxy is invalid."
						}
					],
					"ERC1967NonPayable()": [
						{
							"details": "An upgrade function sees `msg.value > 0` that may be lost."
						}
					],
					"FailedInnerCall()": [
						{
							"details": "A call to an address target failed. The target may have reverted."
						}
					],
					"InvalidInitialization()": [
						{
							"details": "The contract is already initialized."
						}
					],
					"NotInitializing()": [
						{
							"details": "The contract is not initializing."
						}
					],
					"UUPSUnauthorizedCallContext()": [
						{
							"details": "The call is from an unauthorized context."
						}
					],
					"UUPSUnsupportedProxiableUUID(bytes32)": [
						{
							"details": "The storage `slot` is unsupported as a UUID."
						}
					]
				},
				"events": {
					"Initialized(uint64)": {
						"details": "Triggered when the contract has been initialized or reinitialized."
					},
					"Paused(address)": {
						"details": "Emitted when the pause is triggered by `account`."
					},
					"RoleAdminChanged(bytes32,bytes32,bytes32)": {
						"details": "Emitted when `newAdminRole` is set as ``role``'s admin role, replacing `previousAdminRole` `DEFAULT_ADMIN_ROLE` is the starting admin for all roles, despite {RoleAdminChanged} not being emitted signaling this."
					},
					"RoleGranted(bytes32,address,address)": {
						"details": "Emitted when `account` is granted `role`. `sender` is the account that originated the contract call, an admin role bearer except when using {AccessControl-_setupRole}."
					},
					"RoleRevoked(bytes32,address,address)": {
						"details": "Emitted when `account` is revoked `role`. `sender` is the account that originated the contract call:   - if using `revokeRole`, it is the admin role bearer   - if using `renounceRole`, it is the role bearer (i.e. `account`)"
					},
					"Unpaused(address)": {
						"details": "Emitted when the pause is lifted by `account`."
					},
					"Upgraded(address)": {
						"details": "Emitted when the implementation is upgraded."
					}
				},
				"kind": "dev",
				"methods": {
					"getRoleAdmin(bytes32)": {
						"details": "Returns the admin role that controls `role`. See {grantRole} and {revokeRole}. To change a role's admin, use {_setRoleAdmin}."
					},
					"grantRole(bytes32,address)": {
						"details": "Grants `role` to `account`. If `account` had not been already granted `role`, emits a {RoleGranted} event. Requirements: - the caller must have ``role``'s admin role. May emit a {RoleGranted} event."
					},
					"hasRole(bytes32,address)": {
						"details": "Returns `true` if `account` has been granted `role`."
					},
					"paused()": {
						"details": "Returns true if the contract is paused, and false otherwise."
					},
					"proxiableUUID()": {
						"details": "Implementation of the ERC1822 {proxiableUUID} function. This returns the storage slot used by the implementation. It is used to validate the implementation's compatibility when performing an upgrade. IMPORTANT: A proxy pointing at a proxiable contract should not be considered proxiable itself, because this risks bricking a proxy that upgrades to it, by delegating to itself until out of gas. Thus it is critical that this function revert if invoked through a proxy. This is guaranteed by the `notDelegated` modifier."
					},
					"renounceRole(bytes32,address)": {
						"details": "Revokes `role` from the calling account. Roles are often managed via {grantRole} and {revokeRole}: this function's purpose is to provide a mechanism for accounts to lose their privileges if they are compromised (such as when a trusted device is misplaced). If the calling account had been revoked `role`, emits a {RoleRevoked} event. Requirements: - the caller must be `callerConfirmation`. May emit a {RoleRevoked} event."
					},
					"revokeRole(bytes32,address)": {
						"details": "Revokes `role` from `account`. If `account` had been granted `role`, emits a {RoleRevoked} event. Requirements: - the caller must have ``role``'s admin role. May emit a {RoleRevoked} event."
					},
					"supportsInterface(bytes4)": {
						"details": "See {IERC165-supportsInterface}."
					},
					"upgradeToAndCall(address,bytes)": {
						"custom:oz-upgrades-unsafe-allow-reachable": "delegatecall",
						"details": "Upgrade the implementation of the proxy to `newImplementation`, and subsequently execute the function call encoded in `data`. Calls {_authorizeUpgrade}. Emits an {Upgraded} event."
					}
				},
				"version": 1
			},
			"evm": {
				"assembly": "    /* \"src/smartcontracts/CryptoQuestTheShardsOfGenesisStaking.sol\":725:4710  contract CryptoQuestTheShardsOfGenesisStaking is Initializable, AccessControlUpgradeable, PausableUpgradeable, UUPSUpgradeable {... */\n  mstore(0x40, 0xa0)\n    /* \"@openzeppelin/contracts-upgradeable/proxy/utils/UUPSUpgradeable.sol\":1171:1175  this */\n  address\n    /* \"@openzeppelin/contracts-upgradeable/proxy/utils/UUPSUpgradeable.sol\":1128:1176  address private immutable __self = address(this) */\n  0x80\n  mstore\n    /* \"src/smartcontracts/CryptoQuestTheShardsOfGenesisStaking.sol\":1549:1714  constructor() {... */\n  callvalue\n  dup1\n  iszero\n  tag_1\n  jumpi\n  0x00\n  dup1\n  revert\ntag_1:\n  pop\n    /* \"src/smartcontracts/CryptoQuestTheShardsOfGenesisStaking.sol\":1573:1615  _grantRole(DEFAULT_ADMIN_ROLE, msg.sender) */\n  tag_4\n    /* \"@openzeppelin/contracts-upgradeable/access/AccessControlUpgradeable.sol\":2362:2366  0x00 */\n  0x00\n    /* \"src/smartcontracts/CryptoQuestTheShardsOfGenesisStaking.sol\":1604:1614  msg.sender */\n  caller\n    /* \"src/smartcontracts/CryptoQuestTheShardsOfGenesisStaking.sol\":1573:1583  _grantRole */\n  tag_5\n    /* \"src/smartcontracts/CryptoQuestTheShardsOfGenesisStaking.sol\":1573:1615  _grantRole(DEFAULT_ADMIN_ROLE, msg.sender) */\n  jump\t// in\ntag_4:\n  pop\n    /* \"src/smartcontracts/CryptoQuestTheShardsOfGenesisStaking.sol\":1625:1660  _grantRole(PAUSER_ROLE, msg.sender) */\n  tag_6\n    /* \"src/smartcontracts/CryptoQuestTheShardsOfGenesisStaking.sol\":896:920  keccak256(\"PAUSER_ROLE\") */\n  0x65d7a28e3265b37a6474929f336521b332c1681b933f6cb9f3376673440d862a\n    /* \"src/smartcontracts/CryptoQuestTheShardsOfGenesisStaking.sol\":1649:1659  msg.sender */\n  caller\n    /* \"src/smartcontracts/CryptoQuestTheShardsOfGenesisStaking.sol\":1625:1635  _grantRole */\n  tag_5\n    /* \"src/smartcontracts/CryptoQuestTheShardsOfGenesisStaking.sol\":1625:1660  _grantRole(PAUSER_ROLE, msg.sender) */\n  jump\t// in\ntag_6:\n  pop\n    /* \"src/smartcontracts/CryptoQuestTheShardsOfGenesisStaking.sol\":1670:1707  _grantRole(UPGRADER_ROLE, msg.sender) */\n  tag_7\n    /* \"src/smartcontracts/CryptoQuestTheShardsOfGenesisStaking.sol\":966:992  keccak256(\"UPGRADER_ROLE\") */\n  0x189ab7a9244df0848122154315af71fe140f3db0fe014031783b0946b8c9d2e3\n    /* \"src/smartcontracts/CryptoQuestTheShardsOfGenesisStaking.sol\":1696:1706  msg.sender */\n  caller\n    /* \"src/smartcontracts/CryptoQuestTheShardsOfGenesisStaking.sol\":1670:1680  _grantRole */\n  tag_5\n    /* \"src/smartcontracts/CryptoQuestTheShardsOfGenesisStaking.sol\":1670:1707  _grantRole(UPGRADER_ROLE, msg.sender) */\n  jump\t// in\ntag_7:\n  pop\n    /* \"src/smartcontracts/CryptoQuestTheShardsOfGenesisStaking.sol\":725:4710  contract CryptoQuestTheShardsOfGenesisStaking is Initializable, AccessControlUpgradeable, PausableUpgradeable, UUPSUpgradeable {... */\n  jump(tag_8)\n    /* \"@openzeppelin/contracts-upgradeable/access/AccessControlUpgradeable.sol\":7270:7657  function _grantRole(bytes32 role, address account) internal virtual returns (bool) {... */\ntag_5:\n    /* \"@openzeppelin/contracts-upgradeable/access/AccessControlUpgradeable.sol\":7347:7351  bool */\n  0x00\n    /* \"@openzeppelin/contracts-upgradeable/access/AccessControlUpgradeable.sol\":3901:3915  $._roles[role] */\n  dup3\n  dup2\n  mstore\n    /* \"@openzeppelin/contracts-upgradeable/access/AccessControlUpgradeable.sol\":2920:2948  AccessControlStorageLocation */\n  0x02dd7bc7dec4dceedda775e58dd541e08a116c6c53815c0bd028192f7b626800\n    /* \"@openzeppelin/contracts-upgradeable/access/AccessControlUpgradeable.sol\":3901:3915  $._roles[role] */\n  0x20\n  dup2\n  dup2\n  mstore\n  0x40\n  dup1\n  dup5\n  keccak256\n  sub(shl(0xa0, 0x01), 0x01)\n    /* \"@openzeppelin/contracts-upgradeable/access/AccessControlUpgradeable.sol\":3901:3932  $._roles[role].hasRole[account] */\n  dup7\n  and\n  dup6\n  mstore\n  swap1\n  swap2\n  mstore\n  dup3\n  keccak256\n  sload\n  0xff\n  and\n    /* \"@openzeppelin/contracts-upgradeable/access/AccessControlUpgradeable.sol\":7432:7651  if (!hasRole(role, account)) {... */\n  tag_14\n  jumpi\n    /* \"@openzeppelin/contracts-upgradeable/access/AccessControlUpgradeable.sol\":7475:7483  $._roles */\n  0x00\n    /* \"@openzeppelin/contracts-upgradeable/access/AccessControlUpgradeable.sol\":7475:7489  $._roles[role] */\n  dup5\n  dup2\n  mstore\n  0x20\n  dup3\n  dup2\n  mstore\n  0x40\n  dup1\n  dup4\n  keccak256\n  sub(shl(0xa0, 0x01), 0x01)\n    /* \"@openzeppelin/contracts-upgradeable/access/AccessControlUpgradeable.sol\":7475:7506  $._roles[role].hasRole[account] */\n  dup8\n  and\n  dup5\n  mstore\n  swap1\n  swap2\n  mstore\n  swap1\n  keccak256\n    /* \"@openzeppelin/contracts-upgradeable/access/AccessControlUpgradeable.sol\":7475:7513  $._roles[role].hasRole[account] = true */\n  dup1\n  sload\n  not(0xff)\n  and\n    /* \"@openzeppelin/contracts-upgradeable/access/AccessControlUpgradeable.sol\":7509:7513  true */\n  0x01\n    /* \"@openzeppelin/contracts-upgradeable/access/AccessControlUpgradeable.sol\":7475:7513  $._roles[role].hasRole[account] = true */\n  or\n  swap1\n  sstore\n    /* \"@openzeppelin/contracts-upgradeable/access/AccessControlUpgradeable.sol\":7559:7571  _msgSender() */\n  tag_15\n    /* \"@openzeppelin/contracts-upgradeable/utils/ContextUpgradeable.sol\":966:976  msg.sender */\n  caller\n  swap1\n    /* \"@openzeppelin/contracts-upgradeable/utils/ContextUpgradeable.sol\":887:983  function _msgSender() internal view virtual returns (address) {... */\n  jump\n    /* \"@openzeppelin/contracts-upgradeable/access/AccessControlUpgradeable.sol\":7559:7571  _msgSender() */\ntag_15:\n  sub(shl(0xa0, 0x01), 0x01)\n    /* \"@openzeppelin/contracts-upgradeable/access/AccessControlUpgradeable.sol\":7532:7572  RoleGranted(role, account, _msgSender()) */\n  and\n    /* \"@openzeppelin/contracts-upgradeable/access/AccessControlUpgradeable.sol\":7550:7557  account */\n  dup4\n  sub(shl(0xa0, 0x01), 0x01)\n    /* \"@openzeppelin/contracts-upgradeable/access/AccessControlUpgradeable.sol\":7532:7572  RoleGranted(role, account, _msgSender()) */\n  and\n    /* \"@openzeppelin/contracts-upgradeable/access/AccessControlUpgradeable.sol\":7544:7548  role */\n  dup6\n    /* \"@openzeppelin/contracts-upgradeable/access/AccessControlUpgradeable.sol\":7532:7572  RoleGranted(role, account, _msgSender()) */\n  0x2f8788117e7eff1d82e926ec794901d17c78024a50270940304540a733656f0d\n  mload(0x40)\n  mload(0x40)\n  dup1\n  swap2\n  sub\n  swap1\n  log4\n    /* \"@openzeppelin/contracts-upgradeable/access/AccessControlUpgradeable.sol\":7593:7597  true */\n  0x01\n    /* \"@openzeppelin/contracts-upgradeable/access/AccessControlUpgradeable.sol\":7586:7597  return true */\n  swap2\n  pop\n  pop\n  jump(tag_9)\n    /* \"@openzeppelin/contracts-upgradeable/access/AccessControlUpgradeable.sol\":7432:7651  if (!hasRole(role, account)) {... */\ntag_14:\n    /* \"@openzeppelin/contracts-upgradeable/access/AccessControlUpgradeable.sol\":7635:7640  false */\n  0x00\n    /* \"@openzeppelin/contracts-upgradeable/access/AccessControlUpgradeable.sol\":7628:7640  return false */\n  swap2\n  pop\n  pop\n    /* \"@openzeppelin/contracts-upgradeable/access/AccessControlUpgradeable.sol\":7270:7657  function _grantRole(bytes32 role, address account) internal virtual returns (bool) {... */\ntag_9:\n  swap3\n  swap2\n  pop\n  pop\n  jump\t// out\n    /* \"src/smartcontracts/CryptoQuestTheShardsOfGenesisStaking.sol\":725:4710  contract CryptoQuestTheShardsOfGenesisStaking is Initializable, AccessControlUpgradeable, PausableUpgradeable, UUPSUpgradeable {... */\ntag_8:\n  mload(0x80)\n  codecopy(0x00, dataOffset(sub_0), dataSize(sub_0))\n  0x00\n  assignImmutable(\"0x3b04ad91523c4dcf551e081621e633b9099d51bf9c5461e58c3bc7354a578b27\")\n  return(0x00, dataSize(sub_0))\nstop\n\nsub_0: assembly {\n        /* \"src/smartcontracts/CryptoQuestTheShardsOfGenesisStaking.sol\":725:4710  contract CryptoQuestTheShardsOfGenesisStaking is Initializable, AccessControlUpgradeable, PausableUpgradeable, UUPSUpgradeable {... */\n      mstore(0x40, 0x80)\n      jumpi(tag_1, lt(calldatasize, 0x04))\n      shr(0xe0, calldataload(0x00))\n      dup1\n      0x7b0a47ee\n      gt\n      tag_25\n      jumpi\n      dup1\n      0xad3cb1cc\n      gt\n      tag_26\n      jumpi\n      dup1\n      0xad3cb1cc\n      eq\n      tag_19\n      jumpi\n      dup1\n      0xd0f7d24f\n      eq\n      tag_20\n      jumpi\n      dup1\n      0xd547741f\n      eq\n      tag_21\n      jumpi\n      dup1\n      0xd5a44f86\n      eq\n      tag_22\n      jumpi\n      dup1\n      0xe63ab1e9\n      eq\n      tag_23\n      jumpi\n      dup1\n      0xf72c0d8b\n      eq\n      tag_24\n      jumpi\n      0x00\n      dup1\n      revert\n    tag_26:\n      dup1\n      0x7b0a47ee\n      eq\n      tag_13\n      jumpi\n      dup1\n      0x7ebed54c\n      eq\n      tag_14\n      jumpi\n      dup1\n      0x8172885b\n      eq\n      tag_15\n      jumpi\n      dup1\n      0x91d14854\n      eq\n      tag_16\n      jumpi\n      dup1\n      0xa217fddf\n      eq\n      tag_17\n      jumpi\n      dup1\n      0xa6b63eb8\n      eq\n      tag_18\n      jumpi\n      0x00\n      dup1\n      revert\n    tag_25:\n      dup1\n      0x36568abe\n      gt\n      tag_27\n      jumpi\n      dup1\n      0x36568abe\n      eq\n      tag_7\n      jumpi\n      dup1\n      0x4d9a824d\n      eq\n      tag_8\n      jumpi\n      dup1\n      0x4f1ef286\n      eq\n      tag_9\n      jumpi\n      dup1\n      0x52d1902d\n      eq\n      tag_10\n      jumpi\n      dup1\n      0x5c975abb\n      eq\n      tag_11\n      jumpi\n      dup1\n      0x7b0472f0\n      eq\n      tag_12\n      jumpi\n      0x00\n      dup1\n      revert\n    tag_27:\n      dup1\n      0x01ffc9a7\n      eq\n      tag_2\n      jumpi\n      dup1\n      0x248a9ca3\n      eq\n      tag_3\n      jumpi\n      dup1\n      0x2e17de78\n      eq\n      tag_4\n      jumpi\n      dup1\n      0x2f2ff15d\n      eq\n      tag_5\n      jumpi\n      dup1\n      0x34aab064\n      eq\n      tag_6\n      jumpi\n    tag_1:\n      0x00\n      dup1\n      revert\n        /* \"@openzeppelin/contracts-upgradeable/access/AccessControlUpgradeable.sol\":3443:3645  function supportsInterface(bytes4 interfaceId) public view virtual override returns (bool) {... */\n    tag_2:\n      callvalue\n      dup1\n      iszero\n      tag_28\n      jumpi\n      0x00\n      dup1\n      revert\n    tag_28:\n      pop\n      tag_29\n      tag_30\n      calldatasize\n      0x04\n      tag_31\n      jump\t// in\n    tag_30:\n      tag_32\n      jump\t// in\n    tag_29:\n      mload(0x40)\n        /* \"#utility.yul\":470:484   */\n      swap1\n      iszero\n        /* \"#utility.yul\":463:485   */\n      iszero\n        /* \"#utility.yul\":445:486   */\n      dup2\n      mstore\n        /* \"#utility.yul\":433:435   */\n      0x20\n        /* \"#utility.yul\":418:436   */\n      add\n        /* \"@openzeppelin/contracts-upgradeable/access/AccessControlUpgradeable.sol\":3443:3645  function supportsInterface(bytes4 interfaceId) public view virtual override returns (bool) {... */\n    tag_33:\n      mload(0x40)\n      dup1\n      swap2\n      sub\n      swap1\n      return\n        /* \"@openzeppelin/contracts-upgradeable/access/AccessControlUpgradeable.sol\":4759:4950  function getRoleAdmin(bytes32 role) public view virtual returns (bytes32) {... */\n    tag_3:\n      callvalue\n      dup1\n      iszero\n      tag_35\n      jumpi\n      0x00\n      dup1\n      revert\n    tag_35:\n      pop\n      tag_36\n      tag_37\n      calldatasize\n      0x04\n      tag_38\n      jump\t// in\n    tag_37:\n      tag_39\n      jump\t// in\n    tag_36:\n      mload(0x40)\n        /* \"#utility.yul\":874:899   */\n      swap1\n      dup2\n      mstore\n        /* \"#utility.yul\":862:864   */\n      0x20\n        /* \"#utility.yul\":847:865   */\n      add\n        /* \"@openzeppelin/contracts-upgradeable/access/AccessControlUpgradeable.sol\":4759:4950  function getRoleAdmin(bytes32 role) public view virtual returns (bytes32) {... */\n      tag_33\n        /* \"#utility.yul\":728:905   */\n      jump\n        /* \"src/smartcontracts/CryptoQuestTheShardsOfGenesisStaking.sol\":3536:4622  function unstake(uint256 _tokenId) public whenNotPaused {... */\n    tag_4:\n      callvalue\n      dup1\n      iszero\n      tag_42\n      jumpi\n      0x00\n      dup1\n      revert\n    tag_42:\n      pop\n      tag_43\n      tag_44\n      calldatasize\n      0x04\n      tag_38\n      jump\t// in\n    tag_44:\n      tag_46\n      jump\t// in\n    tag_43:\n      stop\n        /* \"@openzeppelin/contracts-upgradeable/access/AccessControlUpgradeable.sol\":5246:5382  function grantRole(bytes32 role, address account) public virtual onlyRole(getRoleAdmin(role)) {... */\n    tag_5:\n      callvalue\n      dup1\n      iszero\n      tag_47\n      jumpi\n      0x00\n      dup1\n      revert\n    tag_47:\n      pop\n      tag_43\n      tag_49\n      calldatasize\n      0x04\n      tag_50\n      jump\t// in\n    tag_49:\n      tag_51\n      jump\t// in\n        /* \"src/smartcontracts/CryptoQuestTheShardsOfGenesisStaking.sol\":1222:1245  address public cqtToken */\n    tag_6:\n      callvalue\n      dup1\n      iszero\n      tag_52\n      jumpi\n      0x00\n      dup1\n      revert\n    tag_52:\n      pop\n      sload(0x33)\n      tag_53\n      swap1\n      sub(shl(0xa0, 0x01), 0x01)\n      and\n      dup2\n      jump\n    tag_53:\n      mload(0x40)\n      sub(shl(0xa0, 0x01), 0x01)\n        /* \"#utility.yul\":1813:1845   */\n      swap1\n      swap2\n      and\n        /* \"#utility.yul\":1795:1846   */\n      dup2\n      mstore\n        /* \"#utility.yul\":1783:1785   */\n      0x20\n        /* \"#utility.yul\":1768:1786   */\n      add\n        /* \"src/smartcontracts/CryptoQuestTheShardsOfGenesisStaking.sol\":1222:1245  address public cqtToken */\n      tag_33\n        /* \"#utility.yul\":1649:1852   */\n      jump\n        /* \"@openzeppelin/contracts-upgradeable/access/AccessControlUpgradeable.sol\":6348:6593  function renounceRole(bytes32 role, address callerConfirmation) public virtual {... */\n    tag_7:\n      callvalue\n      dup1\n      iszero\n      tag_57\n      jumpi\n      0x00\n      dup1\n      revert\n    tag_57:\n      pop\n      tag_43\n      tag_59\n      calldatasize\n      0x04\n      tag_50\n      jump\t// in\n    tag_59:\n      tag_60\n      jump\t// in\n        /* \"src/smartcontracts/CryptoQuestTheShardsOfGenesisStaking.sol\":1251:1276  address public cqnftToken */\n    tag_8:\n      callvalue\n      dup1\n      iszero\n      tag_61\n      jumpi\n      0x00\n      dup1\n      revert\n    tag_61:\n      pop\n      sload(0x34)\n      tag_53\n      swap1\n      sub(shl(0xa0, 0x01), 0x01)\n      and\n      dup2\n      jump\n        /* \"@openzeppelin/contracts-upgradeable/proxy/utils/UUPSUpgradeable.sol\":4158:4372  function upgradeToAndCall(address newImplementation, bytes memory data) public payable virtual onlyProxy {... */\n    tag_9:\n      tag_43\n      tag_66\n      calldatasize\n      0x04\n      tag_67\n      jump\t// in\n    tag_66:\n      tag_68\n      jump\t// in\n        /* \"@openzeppelin/contracts-upgradeable/proxy/utils/UUPSUpgradeable.sol\":3705:3839  function proxiableUUID() external view virtual notDelegated returns (bytes32) {... */\n    tag_10:\n      callvalue\n      dup1\n      iszero\n      tag_69\n      jumpi\n      0x00\n      dup1\n      revert\n    tag_69:\n      pop\n      tag_36\n      tag_71\n      jump\t// in\n        /* \"@openzeppelin/contracts-upgradeable/security/PausableUpgradeable.sol\":1879:1963  function paused() public view virtual returns (bool) {... */\n    tag_11:\n      callvalue\n      dup1\n      iszero\n      tag_73\n      jumpi\n      0x00\n      dup1\n      revert\n    tag_73:\n      pop\n        /* \"@openzeppelin/contracts-upgradeable/security/PausableUpgradeable.sol\":1926:1930  bool */\n      0x00\n        /* \"@openzeppelin/contracts-upgradeable/security/PausableUpgradeable.sol\":1949:1956  _paused */\n      sload\n      0xff\n      and\n        /* \"@openzeppelin/contracts-upgradeable/security/PausableUpgradeable.sol\":1879:1963  function paused() public view virtual returns (bool) {... */\n      jump(tag_29)\n        /* \"src/smartcontracts/CryptoQuestTheShardsOfGenesisStaking.sol\":2223:3205  function stake(uint256 _tokenId, uint256 _rarity) public whenNotPaused {... */\n    tag_12:\n      callvalue\n      dup1\n      iszero\n      tag_77\n      jumpi\n      0x00\n      dup1\n      revert\n    tag_77:\n      pop\n      tag_43\n      tag_79\n      calldatasize\n      0x04\n      tag_80\n      jump\t// in\n    tag_79:\n      tag_81\n      jump\t// in\n        /* \"src/smartcontracts/CryptoQuestTheShardsOfGenesisStaking.sol\":1317:1342  uint256 public rewardRate */\n    tag_13:\n      callvalue\n      dup1\n      iszero\n      tag_82\n      jumpi\n      0x00\n      dup1\n      revert\n    tag_82:\n      pop\n      tag_36\n      sload(0x36)\n      dup2\n      jump\n        /* \"src/smartcontracts/CryptoQuestTheShardsOfGenesisStaking.sol\":1348:1383  uint256 public minimumStakingPeriod */\n    tag_14:\n      callvalue\n      dup1\n      iszero\n      tag_87\n      jumpi\n      0x00\n      dup1\n      revert\n    tag_87:\n      pop\n      tag_36\n      sload(0x37)\n      dup2\n      jump\n        /* \"src/smartcontracts/CryptoQuestTheShardsOfGenesisStaking.sol\":1282:1311  address public cqnft1155Token */\n    tag_15:\n      callvalue\n      dup1\n      iszero\n      tag_91\n      jumpi\n      0x00\n      dup1\n      revert\n    tag_91:\n      pop\n      sload(0x35)\n      tag_53\n      swap1\n      sub(shl(0xa0, 0x01), 0x01)\n      and\n      dup2\n      jump\n        /* \"@openzeppelin/contracts-upgradeable/access/AccessControlUpgradeable.sol\":3732:3939  function hasRole(bytes32 role, address account) public view virtual returns (bool) {... */\n    tag_16:\n      callvalue\n      dup1\n      iszero\n      tag_95\n      jumpi\n      0x00\n      dup1\n      revert\n    tag_95:\n      pop\n      tag_29\n      tag_97\n      calldatasize\n      0x04\n      tag_50\n      jump\t// in\n    tag_97:\n      tag_98\n      jump\t// in\n        /* \"@openzeppelin/contracts-upgradeable/access/AccessControlUpgradeable.sol\":2317:2366  bytes32 public constant DEFAULT_ADMIN_ROLE = 0x00 */\n    tag_17:\n      callvalue\n      dup1\n      iszero\n      tag_100\n      jumpi\n      0x00\n      dup1\n      revert\n    tag_100:\n      pop\n      tag_36\n        /* \"@openzeppelin/contracts-upgradeable/access/AccessControlUpgradeable.sol\":2362:2366  0x00 */\n      0x00\n        /* \"@openzeppelin/contracts-upgradeable/access/AccessControlUpgradeable.sol\":2317:2366  bytes32 public constant DEFAULT_ADMIN_ROLE = 0x00 */\n      dup2\n      jump\n        /* \"src/smartcontracts/CryptoQuestTheShardsOfGenesisStaking.sol\":1720:2217  function initialize(... */\n    tag_18:\n      callvalue\n      dup1\n      iszero\n      tag_104\n      jumpi\n      0x00\n      dup1\n      revert\n    tag_104:\n      pop\n      tag_43\n      tag_106\n      calldatasize\n      0x04\n      tag_107\n      jump\t// in\n    tag_106:\n      tag_108\n      jump\t// in\n        /* \"@openzeppelin/contracts-upgradeable/proxy/utils/UUPSUpgradeable.sol\":1819:1877  string public constant UPGRADE_INTERFACE_VERSION = \"5.0.0\" */\n    tag_19:\n      callvalue\n      dup1\n      iszero\n      tag_109\n      jumpi\n      0x00\n      dup1\n      revert\n    tag_109:\n      pop\n      tag_110\n      mload(0x40)\n      dup1\n      0x40\n      add\n      0x40\n      mstore\n      dup1\n      0x05\n      dup2\n      mstore\n      0x20\n      add\n      shl(0xdc, 0x0352e302e3)\n      dup2\n      mstore\n      pop\n      dup2\n      jump\n    tag_110:\n      mload(0x40)\n      tag_33\n      swap2\n      swap1\n      tag_113\n      jump\t// in\n        /* \"src/smartcontracts/CryptoQuestTheShardsOfGenesisStaking.sol\":3211:3530  function stakeBatch(uint256[] calldata _tokenIds, uint256[] calldata _rarities) public whenNotPaused {... */\n    tag_20:\n      callvalue\n      dup1\n      iszero\n      tag_114\n      jumpi\n      0x00\n      dup1\n      revert\n    tag_114:\n      pop\n      tag_43\n      tag_116\n      calldatasize\n      0x04\n      tag_117\n      jump\t// in\n    tag_116:\n      tag_118\n      jump\t// in\n        /* \"@openzeppelin/contracts-upgradeable/access/AccessControlUpgradeable.sol\":5662:5800  function revokeRole(bytes32 role, address account) public virtual onlyRole(getRoleAdmin(role)) {... */\n    tag_21:\n      callvalue\n      dup1\n      iszero\n      tag_119\n      jumpi\n      0x00\n      dup1\n      revert\n    tag_119:\n      pop\n      tag_43\n      tag_121\n      calldatasize\n      0x04\n      tag_50\n      jump\t// in\n    tag_121:\n      tag_122\n      jump\t// in\n        /* \"src/smartcontracts/CryptoQuestTheShardsOfGenesisStaking.sol\":1177:1216  mapping(uint256 => Stake) public stakes */\n    tag_22:\n      callvalue\n      dup1\n      iszero\n      tag_123\n      jumpi\n      0x00\n      dup1\n      revert\n    tag_123:\n      pop\n      tag_124\n      tag_125\n      calldatasize\n      0x04\n      tag_38\n      jump\t// in\n    tag_125:\n      mstore(0x20, 0x32)\n      0x00\n      swap1\n      dup2\n      mstore\n      0x40\n      swap1\n      keccak256\n      dup1\n      sload\n      0x01\n      dup3\n      add\n      sload\n      0x02\n      dup4\n      add\n      sload\n      0x03\n      dup5\n      add\n      sload\n      0x04\n      dup6\n      add\n      sload\n      0x05\n      swap1\n      swap6\n      add\n      sload\n      swap4\n      swap5\n      sub(shl(0xa0, 0x01), 0x01)\n      swap1\n      swap4\n      and\n      swap4\n      swap2\n      swap3\n      swap1\n      swap2\n      dup7\n      jump\n    tag_124:\n      0x40\n      dup1\n      mload\n        /* \"#utility.yul\":6237:6262   */\n      swap7\n      dup8\n      mstore\n      sub(shl(0xa0, 0x01), 0x01)\n        /* \"#utility.yul\":6298:6330   */\n      swap1\n      swap6\n      and\n        /* \"#utility.yul\":6293:6295   */\n      0x20\n        /* \"#utility.yul\":6278:6296   */\n      dup8\n      add\n        /* \"#utility.yul\":6271:6331   */\n      mstore\n        /* \"#utility.yul\":6347:6365   */\n      swap4\n      dup6\n      add\n        /* \"#utility.yul\":6340:6374   */\n      swap3\n      swap1\n      swap3\n      mstore\n        /* \"#utility.yul\":6405:6407   */\n      0x60\n        /* \"#utility.yul\":6390:6408   */\n      dup5\n      add\n        /* \"#utility.yul\":6383:6417   */\n      mstore\n        /* \"#utility.yul\":6448:6451   */\n      0x80\n        /* \"#utility.yul\":6433:6452   */\n      dup4\n      add\n        /* \"#utility.yul\":6426:6461   */\n      mstore\n        /* \"#utility.yul\":6318:6321   */\n      0xa0\n        /* \"#utility.yul\":6477:6496   */\n      dup3\n      add\n        /* \"#utility.yul\":6470:6505   */\n      mstore\n        /* \"#utility.yul\":6224:6227   */\n      0xc0\n        /* \"#utility.yul\":6209:6228   */\n      add\n        /* \"src/smartcontracts/CryptoQuestTheShardsOfGenesisStaking.sol\":1177:1216  mapping(uint256 => Stake) public stakes */\n      tag_33\n        /* \"#utility.yul\":5950:6511   */\n      jump\n        /* \"src/smartcontracts/CryptoQuestTheShardsOfGenesisStaking.sol\":858:920  bytes32 public constant PAUSER_ROLE = keccak256(\"PAUSER_ROLE\") */\n    tag_23:\n      callvalue\n      dup1\n      iszero\n      tag_129\n      jumpi\n      0x00\n      dup1\n      revert\n    tag_129:\n      pop\n      tag_36\n        /* \"src/smartcontracts/CryptoQuestTheShardsOfGenesisStaking.sol\":896:920  keccak256(\"PAUSER_ROLE\") */\n      0x65d7a28e3265b37a6474929f336521b332c1681b933f6cb9f3376673440d862a\n        /* \"src/smartcontracts/CryptoQuestTheShardsOfGenesisStaking.sol\":858:920  bytes32 public constant PAUSER_ROLE = keccak256(\"PAUSER_ROLE\") */\n      dup2\n      jump\n        /* \"src/smartcontracts/CryptoQuestTheShardsOfGenesisStaking.sol\":926:992  bytes32 public constant UPGRADER_ROLE = keccak256(\"UPGRADER_ROLE\") */\n    tag_24:\n      callvalue\n      dup1\n      iszero\n      tag_133\n      jumpi\n      0x00\n      dup1\n      revert\n    tag_133:\n      pop\n      tag_36\n        /* \"src/smartcontracts/CryptoQuestTheShardsOfGenesisStaking.sol\":966:992  keccak256(\"UPGRADER_ROLE\") */\n      0x189ab7a9244df0848122154315af71fe140f3db0fe014031783b0946b8c9d2e3\n        /* \"src/smartcontracts/CryptoQuestTheShardsOfGenesisStaking.sol\":926:992  bytes32 public constant UPGRADER_ROLE = keccak256(\"UPGRADER_ROLE\") */\n      dup2\n      jump\n        /* \"@openzeppelin/contracts-upgradeable/access/AccessControlUpgradeable.sol\":3443:3645  function supportsInterface(bytes4 interfaceId) public view virtual override returns (bool) {... */\n    tag_32:\n        /* \"@openzeppelin/contracts-upgradeable/access/AccessControlUpgradeable.sol\":3528:3532  bool */\n      0x00\n      not(sub(shl(0xe0, 0x01), 0x01))\n        /* \"@openzeppelin/contracts-upgradeable/access/AccessControlUpgradeable.sol\":3551:3598  interfaceId == type(IAccessControl).interfaceId */\n      dup3\n      and\n      shl(0xe0, 0x7965db0b)\n      eq\n      dup1\n        /* \"@openzeppelin/contracts-upgradeable/access/AccessControlUpgradeable.sol\":3551:3638  interfaceId == type(IAccessControl).interfaceId || super.supportsInterface(interfaceId) */\n      tag_139\n      jumpi\n      pop\n      shl(0xe0, 0x01ffc9a7)\n      not(sub(shl(0xe0, 0x01), 0x01))\n        /* \"@openzeppelin/contracts-upgradeable/utils/introspection/ERC165Upgradeable.sol\":1133:1173  interfaceId == type(IERC165).interfaceId */\n      dup4\n      and\n      eq\n        /* \"@openzeppelin/contracts-upgradeable/access/AccessControlUpgradeable.sol\":3602:3638  super.supportsInterface(interfaceId) */\n    tag_139:\n        /* \"@openzeppelin/contracts-upgradeable/access/AccessControlUpgradeable.sol\":3544:3638  return interfaceId == type(IAccessControl).interfaceId || super.supportsInterface(interfaceId) */\n      swap3\n        /* \"@openzeppelin/contracts-upgradeable/access/AccessControlUpgradeable.sol\":3443:3645  function supportsInterface(bytes4 interfaceId) public view virtual override returns (bool) {... */\n      swap2\n      pop\n      pop\n      jump\t// out\n        /* \"@openzeppelin/contracts-upgradeable/access/AccessControlUpgradeable.sol\":4759:4950  function getRoleAdmin(bytes32 role) public view virtual returns (bytes32) {... */\n    tag_39:\n        /* \"@openzeppelin/contracts-upgradeable/access/AccessControlUpgradeable.sol\":4824:4831  bytes32 */\n      0x00\n        /* \"@openzeppelin/contracts-upgradeable/access/AccessControlUpgradeable.sol\":4919:4933  $._roles[role] */\n      swap1\n      dup2\n      mstore\n      0x00\n      dup1\n      mload\n      0x20\n      data_b3da67d1b252aeab7c8063542d95e75f82a5307a82535949bc38f7cf7ba8897f\n      dup4\n      codecopy\n      dup2\n      mload\n      swap2\n      mstore\n      0x20\n      mstore\n      0x40\n      swap1\n      keccak256\n        /* \"@openzeppelin/contracts-upgradeable/access/AccessControlUpgradeable.sol\":4919:4943  $._roles[role].adminRole */\n      0x01\n      add\n      sload\n      swap1\n        /* \"@openzeppelin/contracts-upgradeable/access/AccessControlUpgradeable.sol\":4759:4950  function getRoleAdmin(bytes32 role) public view virtual returns (bytes32) {... */\n      jump\t// out\n        /* \"src/smartcontracts/CryptoQuestTheShardsOfGenesisStaking.sol\":3536:4622  function unstake(uint256 _tokenId) public whenNotPaused {... */\n    tag_46:\n        /* \"@openzeppelin/contracts-upgradeable/security/PausableUpgradeable.sol\":1503:1522  _requireNotPaused() */\n      tag_145\n        /* \"@openzeppelin/contracts-upgradeable/security/PausableUpgradeable.sol\":1503:1520  _requireNotPaused */\n      tag_146\n        /* \"@openzeppelin/contracts-upgradeable/security/PausableUpgradeable.sol\":1503:1522  _requireNotPaused() */\n      jump\t// in\n    tag_145:\n        /* \"src/smartcontracts/CryptoQuestTheShardsOfGenesisStaking.sol\":3610:3626  stakes[_tokenId] */\n      0x00\n      dup2\n      dup2\n      mstore\n        /* \"src/smartcontracts/CryptoQuestTheShardsOfGenesisStaking.sol\":3610:3616  stakes */\n      0x32\n        /* \"src/smartcontracts/CryptoQuestTheShardsOfGenesisStaking.sol\":3610:3626  stakes[_tokenId] */\n      0x20\n      mstore\n      0x40\n      swap1\n      keccak256\n        /* \"src/smartcontracts/CryptoQuestTheShardsOfGenesisStaking.sol\":3610:3632  stakes[_tokenId].owner */\n      0x01\n      add\n      sload\n      sub(shl(0xa0, 0x01), 0x01)\n      and\n        /* \"src/smartcontracts/CryptoQuestTheShardsOfGenesisStaking.sol\":3636:3646  msg.sender */\n      caller\n        /* \"src/smartcontracts/CryptoQuestTheShardsOfGenesisStaking.sol\":3610:3646  stakes[_tokenId].owner == msg.sender */\n      eq\n        /* \"src/smartcontracts/CryptoQuestTheShardsOfGenesisStaking.sol\":3602:3677  require(stakes[_tokenId].owner == msg.sender, \"Not the owner of the stake\") */\n      tag_148\n      jumpi\n      mload(0x40)\n      shl(0xe5, 0x461bcd)\n      dup2\n      mstore\n        /* \"#utility.yul\":6718:6720   */\n      0x20\n        /* \"src/smartcontracts/CryptoQuestTheShardsOfGenesisStaking.sol\":3602:3677  require(stakes[_tokenId].owner == msg.sender, \"Not the owner of the stake\") */\n      0x04\n      dup3\n      add\n        /* \"#utility.yul\":6700:6721   */\n      mstore\n        /* \"#utility.yul\":6757:6759   */\n      0x1a\n        /* \"#utility.yul\":6737:6755   */\n      0x24\n      dup3\n      add\n        /* \"#utility.yul\":6730:6760   */\n      mstore\n        /* \"#utility.yul\":6796:6824   */\n      0x4e6f7420746865206f776e6572206f6620746865207374616b65000000000000\n        /* \"#utility.yul\":6776:6794   */\n      0x44\n      dup3\n      add\n        /* \"#utility.yul\":6769:6825   */\n      mstore\n        /* \"#utility.yul\":6842:6860   */\n      0x64\n      add\n        /* \"src/smartcontracts/CryptoQuestTheShardsOfGenesisStaking.sol\":3602:3677  require(stakes[_tokenId].owner == msg.sender, \"Not the owner of the stake\") */\n    tag_149:\n      mload(0x40)\n      dup1\n      swap2\n      sub\n      swap1\n      revert\n    tag_148:\n        /* \"src/smartcontracts/CryptoQuestTheShardsOfGenesisStaking.sol\":3695:3711  stakes[_tokenId] */\n      0x00\n      dup2\n      dup2\n      mstore\n        /* \"src/smartcontracts/CryptoQuestTheShardsOfGenesisStaking.sol\":3695:3701  stakes */\n      0x32\n        /* \"src/smartcontracts/CryptoQuestTheShardsOfGenesisStaking.sol\":3695:3711  stakes[_tokenId] */\n      0x20\n      mstore\n      0x40\n      swap1\n      keccak256\n        /* \"src/smartcontracts/CryptoQuestTheShardsOfGenesisStaking.sol\":3695:3723  stakes[_tokenId].unstakeTime */\n      0x03\n      add\n      sload\n        /* \"src/smartcontracts/CryptoQuestTheShardsOfGenesisStaking.sol\":3695:3728  stakes[_tokenId].unstakeTime == 0 */\n      iszero\n        /* \"src/smartcontracts/CryptoQuestTheShardsOfGenesisStaking.sol\":3687:3755  require(stakes[_tokenId].unstakeTime == 0, \"Token already unstaked\") */\n      tag_151\n      jumpi\n      mload(0x40)\n      shl(0xe5, 0x461bcd)\n      dup2\n      mstore\n        /* \"#utility.yul\":7073:7075   */\n      0x20\n        /* \"src/smartcontracts/CryptoQuestTheShardsOfGenesisStaking.sol\":3687:3755  require(stakes[_tokenId].unstakeTime == 0, \"Token already unstaked\") */\n      0x04\n      dup3\n      add\n        /* \"#utility.yul\":7055:7076   */\n      mstore\n        /* \"#utility.yul\":7112:7114   */\n      0x16\n        /* \"#utility.yul\":7092:7110   */\n      0x24\n      dup3\n      add\n        /* \"#utility.yul\":7085:7115   */\n      mstore\n      shl(0x52, 0x151bdad95b88185b1c9958591e481d5b9cdd185ad959)\n        /* \"#utility.yul\":7131:7149   */\n      0x44\n      dup3\n      add\n        /* \"#utility.yul\":7124:7176   */\n      mstore\n        /* \"#utility.yul\":7193:7211   */\n      0x64\n      add\n        /* \"src/smartcontracts/CryptoQuestTheShardsOfGenesisStaking.sol\":3687:3755  require(stakes[_tokenId].unstakeTime == 0, \"Token already unstaked\") */\n      tag_149\n        /* \"#utility.yul\":6871:7217   */\n      jump\n        /* \"src/smartcontracts/CryptoQuestTheShardsOfGenesisStaking.sol\":3687:3755  require(stakes[_tokenId].unstakeTime == 0, \"Token already unstaked\") */\n    tag_151:\n        /* \"src/smartcontracts/CryptoQuestTheShardsOfGenesisStaking.sol\":3766:3787  uint256 stakingPeriod */\n      0x00\n        /* \"src/smartcontracts/CryptoQuestTheShardsOfGenesisStaking.sol\":3808:3824  stakes[_tokenId] */\n      dup2\n      dup2\n      mstore\n        /* \"src/smartcontracts/CryptoQuestTheShardsOfGenesisStaking.sol\":3808:3814  stakes */\n      0x32\n        /* \"src/smartcontracts/CryptoQuestTheShardsOfGenesisStaking.sol\":3808:3824  stakes[_tokenId] */\n      0x20\n      mstore\n      0x40\n      dup2\n      keccak256\n        /* \"src/smartcontracts/CryptoQuestTheShardsOfGenesisStaking.sol\":3808:3834  stakes[_tokenId].stakeTime */\n      0x02\n      add\n      sload\n        /* \"src/smartcontracts/CryptoQuestTheShardsOfGenesisStaking.sol\":3790:3834  block.timestamp - stakes[_tokenId].stakeTime */\n      tag_154\n      swap1\n        /* \"src/smartcontracts/CryptoQuestTheShardsOfGenesisStaking.sol\":3790:3805  block.timestamp */\n      timestamp\n        /* \"src/smartcontracts/CryptoQuestTheShardsOfGenesisStaking.sol\":3790:3834  block.timestamp - stakes[_tokenId].stakeTime */\n      tag_155\n      jump\t// in\n    tag_154:\n        /* \"src/smartcontracts/CryptoQuestTheShardsOfGenesisStaking.sol\":3766:3834  uint256 stakingPeriod = block.timestamp - stakes[_tokenId].stakeTime */\n      swap1\n      pop\n        /* \"src/smartcontracts/CryptoQuestTheShardsOfGenesisStaking.sol\":3869:3889  minimumStakingPeriod */\n      sload(0x37)\n        /* \"src/smartcontracts/CryptoQuestTheShardsOfGenesisStaking.sol\":3852:3865  stakingPeriod */\n      dup2\n        /* \"src/smartcontracts/CryptoQuestTheShardsOfGenesisStaking.sol\":3852:3889  stakingPeriod >= minimumStakingPeriod */\n      lt\n      iszero\n        /* \"src/smartcontracts/CryptoQuestTheShardsOfGenesisStaking.sol\":3844:3916  require(stakingPeriod >= minimumStakingPeriod, \"Staking period not met\") */\n      tag_156\n      jumpi\n      mload(0x40)\n      shl(0xe5, 0x461bcd)\n      dup2\n      mstore\n        /* \"#utility.yul\":7689:7691   */\n      0x20\n        /* \"src/smartcontracts/CryptoQuestTheShardsOfGenesisStaking.sol\":3844:3916  require(stakingPeriod >= minimumStakingPeriod, \"Staking period not met\") */\n      0x04\n      dup3\n      add\n        /* \"#utility.yul\":7671:7692   */\n      mstore\n        /* \"#utility.yul\":7728:7730   */\n      0x16\n        /* \"#utility.yul\":7708:7726   */\n      0x24\n      dup3\n      add\n        /* \"#utility.yul\":7701:7731   */\n      mstore\n      shl(0x52, 0x14dd185ada5b99c81c195c9a5bd9081b9bdd081b595d)\n        /* \"#utility.yul\":7747:7765   */\n      0x44\n      dup3\n      add\n        /* \"#utility.yul\":7740:7792   */\n      mstore\n        /* \"#utility.yul\":7809:7827   */\n      0x64\n      add\n        /* \"src/smartcontracts/CryptoQuestTheShardsOfGenesisStaking.sol\":3844:3916  require(stakingPeriod >= minimumStakingPeriod, \"Staking period not met\") */\n      tag_149\n        /* \"#utility.yul\":7487:7833   */\n      jump\n        /* \"src/smartcontracts/CryptoQuestTheShardsOfGenesisStaking.sol\":3844:3916  require(stakingPeriod >= minimumStakingPeriod, \"Staking period not met\") */\n    tag_156:\n        /* \"src/smartcontracts/CryptoQuestTheShardsOfGenesisStaking.sol\":3927:3943  stakes[_tokenId] */\n      0x00\n      dup3\n      dup2\n      mstore\n        /* \"src/smartcontracts/CryptoQuestTheShardsOfGenesisStaking.sol\":3927:3933  stakes */\n      0x32\n        /* \"src/smartcontracts/CryptoQuestTheShardsOfGenesisStaking.sol\":3927:3943  stakes[_tokenId] */\n      0x20\n      mstore\n      0x40\n      swap1\n      keccak256\n        /* \"src/smartcontracts/CryptoQuestTheShardsOfGenesisStaking.sol\":3958:3973  block.timestamp */\n      timestamp\n        /* \"src/smartcontracts/CryptoQuestTheShardsOfGenesisStaking.sol\":3927:3955  stakes[_tokenId].unstakeTime */\n      0x03\n      dup3\n      add\n        /* \"src/smartcontracts/CryptoQuestTheShardsOfGenesisStaking.sol\":3927:3973  stakes[_tokenId].unstakeTime = block.timestamp */\n      sstore\n        /* \"src/smartcontracts/CryptoQuestTheShardsOfGenesisStaking.sol\":4039:4062  stakes[_tokenId].rarity */\n      0x05\n      add\n      sload\n        /* \"src/smartcontracts/CryptoQuestTheShardsOfGenesisStaking.sol\":4026:4036  rewardRate */\n      sload(0x36)\n        /* \"src/smartcontracts/CryptoQuestTheShardsOfGenesisStaking.sol\":4066:4070  1e18 */\n      0x0de0b6b3a7640000\n      swap2\n        /* \"src/smartcontracts/CryptoQuestTheShardsOfGenesisStaking.sol\":4039:4062  stakes[_tokenId].rarity */\n      swap1\n        /* \"src/smartcontracts/CryptoQuestTheShardsOfGenesisStaking.sol\":4010:4036  stakingPeriod * rewardRate */\n      tag_159\n      swap1\n        /* \"src/smartcontracts/CryptoQuestTheShardsOfGenesisStaking.sol\":4010:4023  stakingPeriod */\n      dup5\n        /* \"src/smartcontracts/CryptoQuestTheShardsOfGenesisStaking.sol\":4010:4036  stakingPeriod * rewardRate */\n      tag_160\n      jump\t// in\n    tag_159:\n        /* \"src/smartcontracts/CryptoQuestTheShardsOfGenesisStaking.sol\":4010:4062  stakingPeriod * rewardRate * stakes[_tokenId].rarity */\n      tag_161\n      swap2\n      swap1\n      tag_160\n      jump\t// in\n    tag_161:\n        /* \"src/smartcontracts/CryptoQuestTheShardsOfGenesisStaking.sol\":4009:4070  (stakingPeriod * rewardRate * stakes[_tokenId].rarity) / 1e18 */\n      tag_162\n      swap2\n      swap1\n      tag_163\n      jump\t// in\n    tag_162:\n        /* \"src/smartcontracts/CryptoQuestTheShardsOfGenesisStaking.sol\":3983:3999  stakes[_tokenId] */\n      0x00\n      dup4\n      dup2\n      mstore\n        /* \"src/smartcontracts/CryptoQuestTheShardsOfGenesisStaking.sol\":3983:3989  stakes */\n      0x32\n        /* \"src/smartcontracts/CryptoQuestTheShardsOfGenesisStaking.sol\":3983:3999  stakes[_tokenId] */\n      0x20\n      mstore\n      0x40\n      swap1\n      dup2\n      swap1\n      keccak256\n        /* \"src/smartcontracts/CryptoQuestTheShardsOfGenesisStaking.sol\":3983:4006  stakes[_tokenId].reward */\n      0x04\n      swap1\n      dup2\n      add\n        /* \"src/smartcontracts/CryptoQuestTheShardsOfGenesisStaking.sol\":3983:4070  stakes[_tokenId].reward = (stakingPeriod * rewardRate * stakes[_tokenId].rarity) / 1e18 */\n      dup4\n      swap1\n      sstore\n        /* \"src/smartcontracts/CryptoQuestTheShardsOfGenesisStaking.sol\":4125:4133  cqtToken */\n      sload(0x33)\n        /* \"src/smartcontracts/CryptoQuestTheShardsOfGenesisStaking.sol\":4107:4180  IERC20Upgradeable(cqtToken).transfer(msg.sender, stakes[_tokenId].reward) */\n      swap2\n      mload\n      shl(0xe0, 0xa9059cbb)\n      dup2\n      mstore\n        /* \"src/smartcontracts/CryptoQuestTheShardsOfGenesisStaking.sol\":4144:4154  msg.sender */\n      caller\n        /* \"src/smartcontracts/CryptoQuestTheShardsOfGenesisStaking.sol\":4107:4180  IERC20Upgradeable(cqtToken).transfer(msg.sender, stakes[_tokenId].reward) */\n      swap2\n      dup2\n      add\n        /* \"#utility.yul\":8407:8458   */\n      swap2\n      swap1\n      swap2\n      mstore\n        /* \"#utility.yul\":8474:8492   */\n      0x24\n      dup2\n      add\n        /* \"#utility.yul\":8467:8501   */\n      swap3\n      swap1\n      swap3\n      mstore\n      sub(shl(0xa0, 0x01), 0x01)\n        /* \"src/smartcontracts/CryptoQuestTheShardsOfGenesisStaking.sol\":4125:4133  cqtToken */\n      and\n      swap1\n        /* \"src/smartcontracts/CryptoQuestTheShardsOfGenesisStaking.sol\":4107:4143  IERC20Upgradeable(cqtToken).transfer */\n      0xa9059cbb\n      swap1\n        /* \"#utility.yul\":8380:8398   */\n      0x44\n      add\n        /* \"src/smartcontracts/CryptoQuestTheShardsOfGenesisStaking.sol\":4107:4180  IERC20Upgradeable(cqtToken).transfer(msg.sender, stakes[_tokenId].reward) */\n      0x20\n      mload(0x40)\n      dup1\n      dup4\n      sub\n      dup2\n      0x00\n      dup8\n      gas\n      call\n      iszero\n      dup1\n      iszero\n      tag_167\n      jumpi\n      returndatasize\n      0x00\n      dup1\n      returndatacopy\n      revert(0x00, returndatasize)\n    tag_167:\n      pop\n      pop\n      pop\n      pop\n      mload(0x40)\n      returndatasize\n      not(0x1f)\n      0x1f\n      dup3\n      add\n      and\n      dup3\n      add\n      dup1\n      0x40\n      mstore\n      pop\n      dup2\n      add\n      swap1\n      tag_168\n      swap2\n      swap1\n      tag_169\n      jump\t// in\n    tag_168:\n      pop\n        /* \"src/smartcontracts/CryptoQuestTheShardsOfGenesisStaking.sol\":4214:4224  cqnftToken */\n      sload(0x34)\n        /* \"src/smartcontracts/CryptoQuestTheShardsOfGenesisStaking.sol\":4195:4243  IERC721Upgradeable(cqnftToken).ownerOf(_tokenId) */\n      mload(0x40)\n      shl(0xe1, 0x31a9108f)\n      dup2\n      mstore\n      0x04\n      dup2\n      add\n        /* \"#utility.yul\":874:899   */\n      dup5\n      swap1\n      mstore\n        /* \"src/smartcontracts/CryptoQuestTheShardsOfGenesisStaking.sol\":4255:4259  this */\n      address\n      swap2\n      sub(shl(0xa0, 0x01), 0x01)\n        /* \"src/smartcontracts/CryptoQuestTheShardsOfGenesisStaking.sol\":4214:4224  cqnftToken */\n      and\n      swap1\n        /* \"src/smartcontracts/CryptoQuestTheShardsOfGenesisStaking.sol\":4195:4233  IERC721Upgradeable(cqnftToken).ownerOf */\n      0x6352211e\n      swap1\n        /* \"#utility.yul\":847:865   */\n      0x24\n      add\n        /* \"src/smartcontracts/CryptoQuestTheShardsOfGenesisStaking.sol\":4195:4243  IERC721Upgradeable(cqnftToken).ownerOf(_tokenId) */\n      0x20\n      mload(0x40)\n      dup1\n      dup4\n      sub\n      dup2\n      dup7\n      gas\n      staticcall\n      iszero\n      dup1\n      iszero\n      tag_172\n      jumpi\n      returndatasize\n      0x00\n      dup1\n      returndatacopy\n      revert(0x00, returndatasize)\n    tag_172:\n      pop\n      pop\n      pop\n      pop\n      mload(0x40)\n      returndatasize\n      not(0x1f)\n      0x1f\n      dup3\n      add\n      and\n      dup3\n      add\n      dup1\n      0x40\n      mstore\n      pop\n      dup2\n      add\n      swap1\n      tag_173\n      swap2\n      swap1\n      tag_174\n      jump\t// in\n    tag_173:\n      sub(shl(0xa0, 0x01), 0x01)\n        /* \"src/smartcontracts/CryptoQuestTheShardsOfGenesisStaking.sol\":4195:4260  IERC721Upgradeable(cqnftToken).ownerOf(_tokenId) == address(this) */\n      and\n      sub\n        /* \"src/smartcontracts/CryptoQuestTheShardsOfGenesisStaking.sol\":4191:4494  if (IERC721Upgradeable(cqnftToken).ownerOf(_tokenId) == address(this)) {... */\n      tag_175\n      jumpi\n        /* \"src/smartcontracts/CryptoQuestTheShardsOfGenesisStaking.sol\":4295:4305  cqnftToken */\n      sload(0x34)\n        /* \"src/smartcontracts/CryptoQuestTheShardsOfGenesisStaking.sol\":4276:4356  IERC721Upgradeable(cqnftToken).transferFrom(address(this), msg.sender, _tokenId) */\n      mload(0x40)\n      shl(0xe0, 0x23b872dd)\n      dup2\n      mstore\n        /* \"src/smartcontracts/CryptoQuestTheShardsOfGenesisStaking.sol\":4328:4332  this */\n      address\n        /* \"src/smartcontracts/CryptoQuestTheShardsOfGenesisStaking.sol\":4276:4356  IERC721Upgradeable(cqnftToken).transferFrom(address(this), msg.sender, _tokenId) */\n      0x04\n      dup3\n      add\n        /* \"#utility.yul\":9252:9303   */\n      mstore\n        /* \"src/smartcontracts/CryptoQuestTheShardsOfGenesisStaking.sol\":4335:4345  msg.sender */\n      caller\n        /* \"#utility.yul\":9319:9337   */\n      0x24\n      dup3\n      add\n        /* \"#utility.yul\":9312:9372   */\n      mstore\n        /* \"#utility.yul\":9388:9406   */\n      0x44\n      dup2\n      add\n        /* \"#utility.yul\":9381:9415   */\n      dup5\n      swap1\n      mstore\n      sub(shl(0xa0, 0x01), 0x01)\n        /* \"src/smartcontracts/CryptoQuestTheShardsOfGenesisStaking.sol\":4295:4305  cqnftToken */\n      swap1\n      swap2\n      and\n      swap1\n        /* \"src/smartcontracts/CryptoQuestTheShardsOfGenesisStaking.sol\":4276:4319  IERC721Upgradeable(cqnftToken).transferFrom */\n      0x23b872dd\n      swap1\n        /* \"#utility.yul\":9225:9243   */\n      0x64\n      add\n        /* \"src/smartcontracts/CryptoQuestTheShardsOfGenesisStaking.sol\":4276:4356  IERC721Upgradeable(cqnftToken).transferFrom(address(this), msg.sender, _tokenId) */\n      0x00\n      mload(0x40)\n      dup1\n      dup4\n      sub\n      dup2\n      0x00\n      dup8\n      dup1\n      extcodesize\n      iszero\n      dup1\n      iszero\n      tag_178\n      jumpi\n      0x00\n      dup1\n      revert\n    tag_178:\n      pop\n      gas\n      call\n      iszero\n      dup1\n      iszero\n      tag_180\n      jumpi\n      returndatasize\n      0x00\n      dup1\n      returndatacopy\n      revert(0x00, returndatasize)\n    tag_180:\n      pop\n      pop\n      pop\n      pop\n        /* \"src/smartcontracts/CryptoQuestTheShardsOfGenesisStaking.sol\":4191:4494  if (IERC721Upgradeable(cqnftToken).ownerOf(_tokenId) == address(this)) {... */\n      jump(tag_181)\n    tag_175:\n        /* \"src/smartcontracts/CryptoQuestTheShardsOfGenesisStaking.sol\":4407:4421  cqnft1155Token */\n      sload(0x35)\n        /* \"src/smartcontracts/CryptoQuestTheShardsOfGenesisStaking.sol\":4387:4483  IERC1155Upgradeable(cqnft1155Token).safeTransferFrom(address(this), msg.sender, _tokenId, 1, \"\") */\n      mload(0x40)\n      shl(0xe1, 0x79212195)\n      dup2\n      mstore\n      sub(shl(0xa0, 0x01), 0x01)\n        /* \"src/smartcontracts/CryptoQuestTheShardsOfGenesisStaking.sol\":4407:4421  cqnft1155Token */\n      swap1\n      swap2\n      and\n      swap1\n        /* \"src/smartcontracts/CryptoQuestTheShardsOfGenesisStaking.sol\":4387:4439  IERC1155Upgradeable(cqnft1155Token).safeTransferFrom */\n      0xf242432a\n      swap1\n        /* \"src/smartcontracts/CryptoQuestTheShardsOfGenesisStaking.sol\":4387:4483  IERC1155Upgradeable(cqnft1155Token).safeTransferFrom(address(this), msg.sender, _tokenId, 1, \"\") */\n      tag_182\n      swap1\n        /* \"src/smartcontracts/CryptoQuestTheShardsOfGenesisStaking.sol\":4448:4452  this */\n      address\n      swap1\n        /* \"src/smartcontracts/CryptoQuestTheShardsOfGenesisStaking.sol\":4455:4465  msg.sender */\n      caller\n      swap1\n        /* \"src/smartcontracts/CryptoQuestTheShardsOfGenesisStaking.sol\":4467:4475  _tokenId */\n      dup8\n      swap1\n        /* \"src/smartcontracts/CryptoQuestTheShardsOfGenesisStaking.sol\":4407:4421  cqnft1155Token */\n      0x01\n      swap1\n        /* \"src/smartcontracts/CryptoQuestTheShardsOfGenesisStaking.sol\":4387:4483  IERC1155Upgradeable(cqnft1155Token).safeTransferFrom(address(this), msg.sender, _tokenId, 1, \"\") */\n      0x04\n      add\n      tag_183\n      jump\t// in\n    tag_182:\n      0x00\n      mload(0x40)\n      dup1\n      dup4\n      sub\n      dup2\n      0x00\n      dup8\n      dup1\n      extcodesize\n      iszero\n      dup1\n      iszero\n      tag_184\n      jumpi\n      0x00\n      dup1\n      revert\n    tag_184:\n      pop\n      gas\n      call\n      iszero\n      dup1\n      iszero\n      tag_186\n      jumpi\n      returndatasize\n      0x00\n      dup1\n      returndatacopy\n      revert(0x00, returndatasize)\n    tag_186:\n      pop\n      pop\n      pop\n      pop\n        /* \"src/smartcontracts/CryptoQuestTheShardsOfGenesisStaking.sol\":4191:4494  if (IERC721Upgradeable(cqnftToken).ownerOf(_tokenId) == address(this)) {... */\n    tag_181:\n        /* \"src/smartcontracts/CryptoQuestTheShardsOfGenesisStaking.sol\":4511:4527  stakes[_tokenId] */\n      0x00\n      dup3\n      dup2\n      mstore\n        /* \"src/smartcontracts/CryptoQuestTheShardsOfGenesisStaking.sol\":4511:4517  stakes */\n      0x32\n        /* \"src/smartcontracts/CryptoQuestTheShardsOfGenesisStaking.sol\":4511:4527  stakes[_tokenId] */\n      0x20\n      swap1\n      dup2\n      mstore\n      0x40\n      dup1\n      dup4\n      keccak256\n        /* \"src/smartcontracts/CryptoQuestTheShardsOfGenesisStaking.sol\":4504:4527  delete stakes[_tokenId] */\n      dup4\n      dup2\n      sstore\n      0x01\n      dup2\n      add\n      dup1\n      sload\n      not(sub(shl(0xa0, 0x01), 0x01))\n      and\n      swap1\n      sstore\n      0x02\n      dup2\n      add\n      dup5\n      swap1\n      sstore\n      0x03\n      dup2\n      add\n      dup5\n      swap1\n      sstore\n      0x04\n      dup2\n      add\n      dup5\n      swap1\n      sstore\n      0x05\n      add\n      dup4\n      swap1\n      sstore\n        /* \"src/smartcontracts/CryptoQuestTheShardsOfGenesisStaking.sol\":4543:4615  Unstaked(_tokenId, msg.sender, block.timestamp, stakes[_tokenId].reward) */\n      dup1\n      mload\n        /* \"#utility.yul\":10293:10318   */\n      dup6\n      dup2\n      mstore\n        /* \"src/smartcontracts/CryptoQuestTheShardsOfGenesisStaking.sol\":4562:4572  msg.sender */\n      caller\n        /* \"#utility.yul\":10334:10352   */\n      swap3\n      dup2\n      add\n        /* \"#utility.yul\":10327:10387   */\n      swap3\n      swap1\n      swap3\n      mstore\n        /* \"src/smartcontracts/CryptoQuestTheShardsOfGenesisStaking.sol\":4574:4589  block.timestamp */\n      timestamp\n        /* \"#utility.yul\":10403:10421   */\n      swap1\n      dup3\n      add\n        /* \"#utility.yul\":10396:10430   */\n      mstore\n        /* \"#utility.yul\":10461:10463   */\n      0x60\n        /* \"#utility.yul\":10446:10464   */\n      dup2\n      add\n        /* \"#utility.yul\":10439:10473   */\n      swap2\n      swap1\n      swap2\n      mstore\n        /* \"src/smartcontracts/CryptoQuestTheShardsOfGenesisStaking.sol\":4543:4615  Unstaked(_tokenId, msg.sender, block.timestamp, stakes[_tokenId].reward) */\n      0xffdaf13b1d96bfc2213355f353f84c19493e0681eb0df26f83d862acd266750a\n      swap1\n        /* \"#utility.yul\":10280:10283   */\n      0x80\n        /* \"#utility.yul\":10265:10284   */\n      add\n        /* \"src/smartcontracts/CryptoQuestTheShardsOfGenesisStaking.sol\":4543:4615  Unstaked(_tokenId, msg.sender, block.timestamp, stakes[_tokenId].reward) */\n    tag_187:\n      mload(0x40)\n      dup1\n      swap2\n      sub\n      swap1\n      log1\n        /* \"src/smartcontracts/CryptoQuestTheShardsOfGenesisStaking.sol\":3592:4622  {... */\n      pop\n        /* \"src/smartcontracts/CryptoQuestTheShardsOfGenesisStaking.sol\":3536:4622  function unstake(uint256 _tokenId) public whenNotPaused {... */\n      pop\n      jump\t// out\n        /* \"@openzeppelin/contracts-upgradeable/access/AccessControlUpgradeable.sol\":5246:5382  function grantRole(bytes32 role, address account) public virtual onlyRole(getRoleAdmin(role)) {... */\n    tag_51:\n        /* \"@openzeppelin/contracts-upgradeable/access/AccessControlUpgradeable.sol\":5320:5338  getRoleAdmin(role) */\n      tag_189\n        /* \"@openzeppelin/contracts-upgradeable/access/AccessControlUpgradeable.sol\":5333:5337  role */\n      dup3\n        /* \"@openzeppelin/contracts-upgradeable/access/AccessControlUpgradeable.sol\":5320:5332  getRoleAdmin */\n      tag_39\n        /* \"@openzeppelin/contracts-upgradeable/access/AccessControlUpgradeable.sol\":5320:5338  getRoleAdmin(role) */\n      jump\t// in\n    tag_189:\n        /* \"@openzeppelin/contracts-upgradeable/access/AccessControlUpgradeable.sol\":3191:3207  _checkRole(role) */\n      tag_191\n        /* \"@openzeppelin/contracts-upgradeable/access/AccessControlUpgradeable.sol\":3202:3206  role */\n      dup2\n        /* \"@openzeppelin/contracts-upgradeable/access/AccessControlUpgradeable.sol\":3191:3201  _checkRole */\n      tag_192\n        /* \"@openzeppelin/contracts-upgradeable/access/AccessControlUpgradeable.sol\":3191:3207  _checkRole(role) */\n      jump\t// in\n    tag_191:\n        /* \"@openzeppelin/contracts-upgradeable/access/AccessControlUpgradeable.sol\":5350:5375  _grantRole(role, account) */\n      tag_194\n        /* \"@openzeppelin/contracts-upgradeable/access/AccessControlUpgradeable.sol\":5361:5365  role */\n      dup4\n        /* \"@openzeppelin/contracts-upgradeable/access/AccessControlUpgradeable.sol\":5367:5374  account */\n      dup4\n        /* \"@openzeppelin/contracts-upgradeable/access/AccessControlUpgradeable.sol\":5350:5360  _grantRole */\n      tag_195\n        /* \"@openzeppelin/contracts-upgradeable/access/AccessControlUpgradeable.sol\":5350:5375  _grantRole(role, account) */\n      jump\t// in\n    tag_194:\n      pop\n        /* \"@openzeppelin/contracts-upgradeable/access/AccessControlUpgradeable.sol\":5246:5382  function grantRole(bytes32 role, address account) public virtual onlyRole(getRoleAdmin(role)) {... */\n      pop\n      pop\n      pop\n      jump\t// out\n        /* \"@openzeppelin/contracts-upgradeable/access/AccessControlUpgradeable.sol\":6348:6593  function renounceRole(bytes32 role, address callerConfirmation) public virtual {... */\n    tag_60:\n      sub(shl(0xa0, 0x01), 0x01)\n        /* \"@openzeppelin/contracts-upgradeable/access/AccessControlUpgradeable.sol\":6441:6475  callerConfirmation != _msgSender() */\n      dup2\n      and\n        /* \"@openzeppelin/contracts-upgradeable/utils/ContextUpgradeable.sol\":966:976  msg.sender */\n      caller\n        /* \"@openzeppelin/contracts-upgradeable/access/AccessControlUpgradeable.sol\":6441:6475  callerConfirmation != _msgSender() */\n      eq\n        /* \"@openzeppelin/contracts-upgradeable/access/AccessControlUpgradeable.sol\":6437:6539  if (callerConfirmation != _msgSender()) {... */\n      tag_199\n      jumpi\n        /* \"@openzeppelin/contracts-upgradeable/access/AccessControlUpgradeable.sol\":6498:6528  AccessControlBadConfirmation() */\n      mload(0x40)\n      shl(0xe1, 0x334bd919)\n      dup2\n      mstore\n      0x04\n      add\n      mload(0x40)\n      dup1\n      swap2\n      sub\n      swap1\n      revert\n        /* \"@openzeppelin/contracts-upgradeable/access/AccessControlUpgradeable.sol\":6437:6539  if (callerConfirmation != _msgSender()) {... */\n    tag_199:\n        /* \"@openzeppelin/contracts-upgradeable/access/AccessControlUpgradeable.sol\":6549:6586  _revokeRole(role, callerConfirmation) */\n      tag_200\n        /* \"@openzeppelin/contracts-upgradeable/access/AccessControlUpgradeable.sol\":6561:6565  role */\n      dup3\n        /* \"@openzeppelin/contracts-upgradeable/access/AccessControlUpgradeable.sol\":6567:6585  callerConfirmation */\n      dup3\n        /* \"@openzeppelin/contracts-upgradeable/access/AccessControlUpgradeable.sol\":6549:6560  _revokeRole */\n      tag_201\n        /* \"@openzeppelin/contracts-upgradeable/access/AccessControlUpgradeable.sol\":6549:6586  _revokeRole(role, callerConfirmation) */\n      jump\t// in\n    tag_200:\n      pop\n        /* \"@openzeppelin/contracts-upgradeable/access/AccessControlUpgradeable.sol\":6348:6593  function renounceRole(bytes32 role, address callerConfirmation) public virtual {... */\n      pop\n      pop\n      jump\t// out\n        /* \"@openzeppelin/contracts-upgradeable/proxy/utils/UUPSUpgradeable.sol\":4158:4372  function upgradeToAndCall(address newImplementation, bytes memory data) public payable virtual onlyProxy {... */\n    tag_68:\n        /* \"@openzeppelin/contracts-upgradeable/proxy/utils/UUPSUpgradeable.sol\":2653:2666  _checkProxy() */\n      tag_203\n        /* \"@openzeppelin/contracts-upgradeable/proxy/utils/UUPSUpgradeable.sol\":2653:2664  _checkProxy */\n      tag_204\n        /* \"@openzeppelin/contracts-upgradeable/proxy/utils/UUPSUpgradeable.sol\":2653:2666  _checkProxy() */\n      jump\t// in\n    tag_203:\n        /* \"@openzeppelin/contracts-upgradeable/proxy/utils/UUPSUpgradeable.sol\":4273:4309  _authorizeUpgrade(newImplementation) */\n      tag_206\n        /* \"@openzeppelin/contracts-upgradeable/proxy/utils/UUPSUpgradeable.sol\":4291:4308  newImplementation */\n      dup3\n        /* \"@openzeppelin/contracts-upgradeable/proxy/utils/UUPSUpgradeable.sol\":4273:4290  _authorizeUpgrade */\n      tag_207\n        /* \"@openzeppelin/contracts-upgradeable/proxy/utils/UUPSUpgradeable.sol\":4273:4309  _authorizeUpgrade(newImplementation) */\n      jump\t// in\n    tag_206:\n        /* \"@openzeppelin/contracts-upgradeable/proxy/utils/UUPSUpgradeable.sol\":4319:4365  _upgradeToAndCallUUPS(newImplementation, data) */\n      tag_208\n        /* \"@openzeppelin/contracts-upgradeable/proxy/utils/UUPSUpgradeable.sol\":4341:4358  newImplementation */\n      dup3\n        /* \"@openzeppelin/contracts-upgradeable/proxy/utils/UUPSUpgradeable.sol\":4360:4364  data */\n      dup3\n        /* \"@openzeppelin/contracts-upgradeable/proxy/utils/UUPSUpgradeable.sol\":4319:4340  _upgradeToAndCallUUPS */\n      tag_209\n        /* \"@openzeppelin/contracts-upgradeable/proxy/utils/UUPSUpgradeable.sol\":4319:4365  _upgradeToAndCallUUPS(newImplementation, data) */\n      jump\t// in\n    tag_208:\n        /* \"@openzeppelin/contracts-upgradeable/proxy/utils/UUPSUpgradeable.sol\":4158:4372  function upgradeToAndCall(address newImplementation, bytes memory data) public payable virtual onlyProxy {... */\n      pop\n      pop\n      jump\t// out\n        /* \"@openzeppelin/contracts-upgradeable/proxy/utils/UUPSUpgradeable.sol\":3705:3839  function proxiableUUID() external view virtual notDelegated returns (bytes32) {... */\n    tag_71:\n        /* \"@openzeppelin/contracts-upgradeable/proxy/utils/UUPSUpgradeable.sol\":3774:3781  bytes32 */\n      0x00\n        /* \"@openzeppelin/contracts-upgradeable/proxy/utils/UUPSUpgradeable.sol\":2924:2944  _checkNotDelegated() */\n      tag_211\n        /* \"@openzeppelin/contracts-upgradeable/proxy/utils/UUPSUpgradeable.sol\":2924:2942  _checkNotDelegated */\n      tag_212\n        /* \"@openzeppelin/contracts-upgradeable/proxy/utils/UUPSUpgradeable.sol\":2924:2944  _checkNotDelegated() */\n      jump\t// in\n    tag_211:\n      pop\n      0x00\n      dup1\n      mload\n      0x20\n      data_75b20eef8615de99c108b05f0dbda081c91897128caa336d75dffb97c4132b4d\n      dup4\n      codecopy\n      dup2\n      mload\n      swap2\n      mstore\n        /* \"@openzeppelin/contracts-upgradeable/proxy/utils/UUPSUpgradeable.sol\":3705:3839  function proxiableUUID() external view virtual notDelegated returns (bytes32) {... */\n      swap1\n      jump\t// out\n        /* \"src/smartcontracts/CryptoQuestTheShardsOfGenesisStaking.sol\":2223:3205  function stake(uint256 _tokenId, uint256 _rarity) public whenNotPaused {... */\n    tag_81:\n        /* \"@openzeppelin/contracts-upgradeable/security/PausableUpgradeable.sol\":1503:1522  _requireNotPaused() */\n      tag_216\n        /* \"@openzeppelin/contracts-upgradeable/security/PausableUpgradeable.sol\":1503:1520  _requireNotPaused */\n      tag_146\n        /* \"@openzeppelin/contracts-upgradeable/security/PausableUpgradeable.sol\":1503:1522  _requireNotPaused() */\n      jump\t// in\n    tag_216:\n        /* \"src/smartcontracts/CryptoQuestTheShardsOfGenesisStaking.sol\":2344:2354  cqnftToken */\n      sload(0x34)\n        /* \"src/smartcontracts/CryptoQuestTheShardsOfGenesisStaking.sol\":2325:2373  IERC721Upgradeable(cqnftToken).ownerOf(_tokenId) */\n      mload(0x40)\n      shl(0xe1, 0x31a9108f)\n      dup2\n      mstore\n      0x04\n      dup2\n      add\n        /* \"#utility.yul\":874:899   */\n      dup5\n      swap1\n      mstore\n        /* \"src/smartcontracts/CryptoQuestTheShardsOfGenesisStaking.sol\":2377:2387  msg.sender */\n      caller\n      swap2\n      sub(shl(0xa0, 0x01), 0x01)\n        /* \"src/smartcontracts/CryptoQuestTheShardsOfGenesisStaking.sol\":2344:2354  cqnftToken */\n      and\n      swap1\n        /* \"src/smartcontracts/CryptoQuestTheShardsOfGenesisStaking.sol\":2325:2363  IERC721Upgradeable(cqnftToken).ownerOf */\n      0x6352211e\n      swap1\n        /* \"#utility.yul\":847:865   */\n      0x24\n      add\n        /* \"src/smartcontracts/CryptoQuestTheShardsOfGenesisStaking.sol\":2325:2373  IERC721Upgradeable(cqnftToken).ownerOf(_tokenId) */\n      0x20\n      mload(0x40)\n      dup1\n      dup4\n      sub\n      dup2\n      dup7\n      gas\n      staticcall\n      iszero\n      dup1\n      iszero\n      tag_220\n      jumpi\n      returndatasize\n      0x00\n      dup1\n      returndatacopy\n      revert(0x00, returndatasize)\n    tag_220:\n      pop\n      pop\n      pop\n      pop\n      mload(0x40)\n      returndatasize\n      not(0x1f)\n      0x1f\n      dup3\n      add\n      and\n      dup3\n      add\n      dup1\n      0x40\n      mstore\n      pop\n      dup2\n      add\n      swap1\n      tag_221\n      swap2\n      swap1\n      tag_174\n      jump\t// in\n    tag_221:\n      sub(shl(0xa0, 0x01), 0x01)\n        /* \"src/smartcontracts/CryptoQuestTheShardsOfGenesisStaking.sol\":2325:2387  IERC721Upgradeable(cqnftToken).ownerOf(_tokenId) == msg.sender */\n      and\n      eq\n        /* \"src/smartcontracts/CryptoQuestTheShardsOfGenesisStaking.sol\":2325:2474  IERC721Upgradeable(cqnftToken).ownerOf(_tokenId) == msg.sender ||... */\n      dup1\n      tag_222\n      jumpi\n      pop\n        /* \"src/smartcontracts/CryptoQuestTheShardsOfGenesisStaking.sol\":2423:2437  cqnft1155Token */\n      sload(0x35)\n        /* \"src/smartcontracts/CryptoQuestTheShardsOfGenesisStaking.sol\":2403:2470  IERC1155Upgradeable(cqnft1155Token).balanceOf(msg.sender, _tokenId) */\n      mload(0x40)\n      shl(0xe1, 0x7eeac7)\n      dup2\n      mstore\n        /* \"src/smartcontracts/CryptoQuestTheShardsOfGenesisStaking.sol\":2449:2459  msg.sender */\n      caller\n        /* \"src/smartcontracts/CryptoQuestTheShardsOfGenesisStaking.sol\":2403:2470  IERC1155Upgradeable(cqnft1155Token).balanceOf(msg.sender, _tokenId) */\n      0x04\n      dup3\n      add\n        /* \"#utility.yul\":8407:8458   */\n      mstore\n        /* \"#utility.yul\":8474:8492   */\n      0x24\n      dup2\n      add\n        /* \"#utility.yul\":8467:8501   */\n      dup5\n      swap1\n      mstore\n        /* \"src/smartcontracts/CryptoQuestTheShardsOfGenesisStaking.sol\":2473:2474  0 */\n      0x00\n      swap2\n      sub(shl(0xa0, 0x01), 0x01)\n        /* \"src/smartcontracts/CryptoQuestTheShardsOfGenesisStaking.sol\":2423:2437  cqnft1155Token */\n      and\n      swap1\n        /* \"src/smartcontracts/CryptoQuestTheShardsOfGenesisStaking.sol\":2403:2448  IERC1155Upgradeable(cqnft1155Token).balanceOf */\n      0xfdd58e\n      swap1\n        /* \"#utility.yul\":8380:8398   */\n      0x44\n      add\n        /* \"src/smartcontracts/CryptoQuestTheShardsOfGenesisStaking.sol\":2403:2470  IERC1155Upgradeable(cqnft1155Token).balanceOf(msg.sender, _tokenId) */\n      0x20\n      mload(0x40)\n      dup1\n      dup4\n      sub\n      dup2\n      dup7\n      gas\n      staticcall\n      iszero\n      dup1\n      iszero\n      tag_225\n      jumpi\n      returndatasize\n      0x00\n      dup1\n      returndatacopy\n      revert(0x00, returndatasize)\n    tag_225:\n      pop\n      pop\n      pop\n      pop\n      mload(0x40)\n      returndatasize\n      not(0x1f)\n      0x1f\n      dup3\n      add\n      and\n      dup3\n      add\n      dup1\n      0x40\n      mstore\n      pop\n      dup2\n      add\n      swap1\n      tag_226\n      swap2\n      swap1\n      tag_227\n      jump\t// in\n    tag_226:\n        /* \"src/smartcontracts/CryptoQuestTheShardsOfGenesisStaking.sol\":2403:2474  IERC1155Upgradeable(cqnft1155Token).balanceOf(msg.sender, _tokenId) > 0 */\n      gt\n        /* \"src/smartcontracts/CryptoQuestTheShardsOfGenesisStaking.sol\":2325:2474  IERC721Upgradeable(cqnftToken).ownerOf(_tokenId) == msg.sender ||... */\n    tag_222:\n        /* \"src/smartcontracts/CryptoQuestTheShardsOfGenesisStaking.sol\":2304:2526  require(... */\n      tag_228\n      jumpi\n      mload(0x40)\n      shl(0xe5, 0x461bcd)\n      dup2\n      mstore\n        /* \"#utility.yul\":10875:10877   */\n      0x20\n        /* \"src/smartcontracts/CryptoQuestTheShardsOfGenesisStaking.sol\":2304:2526  require(... */\n      0x04\n      dup3\n      add\n        /* \"#utility.yul\":10857:10878   */\n      mstore\n        /* \"#utility.yul\":10914:10916   */\n      0x1a\n        /* \"#utility.yul\":10894:10912   */\n      0x24\n      dup3\n      add\n        /* \"#utility.yul\":10887:10917   */\n      mstore\n        /* \"#utility.yul\":10953:10981   */\n      0x4e6f7420746865206f776e6572206f662074686520746f6b656e000000000000\n        /* \"#utility.yul\":10933:10951   */\n      0x44\n      dup3\n      add\n        /* \"#utility.yul\":10926:10982   */\n      mstore\n        /* \"#utility.yul\":10999:11017   */\n      0x64\n      add\n        /* \"src/smartcontracts/CryptoQuestTheShardsOfGenesisStaking.sol\":2304:2526  require(... */\n      tag_149\n        /* \"#utility.yul\":10673:11023   */\n      jump\n        /* \"src/smartcontracts/CryptoQuestTheShardsOfGenesisStaking.sol\":2304:2526  require(... */\n    tag_228:\n        /* \"src/smartcontracts/CryptoQuestTheShardsOfGenesisStaking.sol\":2544:2560  stakes[_tokenId] */\n      0x00\n      dup3\n      dup2\n      mstore\n        /* \"src/smartcontracts/CryptoQuestTheShardsOfGenesisStaking.sol\":2544:2550  stakes */\n      0x32\n        /* \"src/smartcontracts/CryptoQuestTheShardsOfGenesisStaking.sol\":2544:2560  stakes[_tokenId] */\n      0x20\n      mstore\n      0x40\n      swap1\n      keccak256\n        /* \"src/smartcontracts/CryptoQuestTheShardsOfGenesisStaking.sol\":2544:2568  stakes[_tokenId].tokenId */\n      sload\n        /* \"src/smartcontracts/CryptoQuestTheShardsOfGenesisStaking.sol\":2544:2573  stakes[_tokenId].tokenId == 0 */\n      iszero\n        /* \"src/smartcontracts/CryptoQuestTheShardsOfGenesisStaking.sol\":2536:2598  require(stakes[_tokenId].tokenId == 0, \"Token already staked\") */\n      tag_231\n      jumpi\n      mload(0x40)\n      shl(0xe5, 0x461bcd)\n      dup2\n      mstore\n        /* \"#utility.yul\":11230:11232   */\n      0x20\n        /* \"src/smartcontracts/CryptoQuestTheShardsOfGenesisStaking.sol\":2536:2598  require(stakes[_tokenId].tokenId == 0, \"Token already staked\") */\n      0x04\n      dup3\n      add\n        /* \"#utility.yul\":11212:11233   */\n      mstore\n        /* \"#utility.yul\":11269:11271   */\n      0x14\n        /* \"#utility.yul\":11249:11267   */\n      0x24\n      dup3\n      add\n        /* \"#utility.yul\":11242:11272   */\n      mstore\n      shl(0x62, 0x151bdad95b88185b1c9958591e481cdd185ad959)\n        /* \"#utility.yul\":11288:11306   */\n      0x44\n      dup3\n      add\n        /* \"#utility.yul\":11281:11331   */\n      mstore\n        /* \"#utility.yul\":11348:11366   */\n      0x64\n      add\n        /* \"src/smartcontracts/CryptoQuestTheShardsOfGenesisStaking.sol\":2536:2598  require(stakes[_tokenId].tokenId == 0, \"Token already staked\") */\n      tag_149\n        /* \"#utility.yul\":11028:11372   */\n      jump\n        /* \"src/smartcontracts/CryptoQuestTheShardsOfGenesisStaking.sol\":2536:2598  require(stakes[_tokenId].tokenId == 0, \"Token already staked\") */\n    tag_231:\n        /* \"src/smartcontracts/CryptoQuestTheShardsOfGenesisStaking.sol\":2628:2827  Stake({... */\n      0x40\n      dup1\n      mload\n      0xc0\n      dup2\n      add\n      dup3\n      mstore\n      dup4\n      dup2\n      mstore\n        /* \"src/smartcontracts/CryptoQuestTheShardsOfGenesisStaking.sol\":2686:2696  msg.sender */\n      caller\n        /* \"src/smartcontracts/CryptoQuestTheShardsOfGenesisStaking.sol\":2628:2827  Stake({... */\n      0x20\n      dup1\n      dup4\n      add\n      dup3\n      dup2\n      mstore\n        /* \"src/smartcontracts/CryptoQuestTheShardsOfGenesisStaking.sol\":2721:2736  block.timestamp */\n      timestamp\n        /* \"src/smartcontracts/CryptoQuestTheShardsOfGenesisStaking.sol\":2628:2827  Stake({... */\n      dup5\n      dup7\n      add\n      swap1\n      dup2\n      mstore\n      0x00\n      0x60\n      dup7\n      add\n      dup2\n      dup2\n      mstore\n      0x80\n      dup8\n      add\n      dup3\n      dup2\n      mstore\n      0xa0\n      dup9\n      add\n      dup11\n      dup2\n      mstore\n        /* \"src/smartcontracts/CryptoQuestTheShardsOfGenesisStaking.sol\":2609:2625  stakes[_tokenId] */\n      dup12\n      dup5\n      mstore\n        /* \"src/smartcontracts/CryptoQuestTheShardsOfGenesisStaking.sol\":2609:2615  stakes */\n      0x32\n        /* \"src/smartcontracts/CryptoQuestTheShardsOfGenesisStaking.sol\":2609:2625  stakes[_tokenId] */\n      swap1\n      swap7\n      mstore\n      swap2\n      dup9\n      swap1\n      keccak256\n        /* \"src/smartcontracts/CryptoQuestTheShardsOfGenesisStaking.sol\":2609:2827  stakes[_tokenId] = Stake({... */\n      swap7\n      mload\n      dup8\n      sstore\n      swap3\n      mload\n      0x01\n      dup8\n      add\n      dup1\n      sload\n      not(sub(shl(0xa0, 0x01), 0x01))\n      and\n      sub(shl(0xa0, 0x01), 0x01)\n      swap3\n      dup4\n      and\n      or\n      swap1\n      sstore\n      swap2\n      mload\n      0x02\n      dup8\n      add\n      sstore\n      swap2\n      mload\n      0x03\n      dup7\n      add\n      sstore\n      swap1\n      mload\n      0x04\n      dup1\n      dup7\n      add\n      swap2\n      swap1\n      swap2\n      sstore\n      swap2\n      mload\n      0x05\n      swap1\n      swap5\n      add\n      swap4\n      swap1\n      swap4\n      sstore\n        /* \"src/smartcontracts/CryptoQuestTheShardsOfGenesisStaking.sol\":2861:2871  cqnftToken */\n      sload(0x34)\n        /* \"src/smartcontracts/CryptoQuestTheShardsOfGenesisStaking.sol\":2842:2890  IERC721Upgradeable(cqnftToken).ownerOf(_tokenId) */\n      swap4\n      mload\n      shl(0xe1, 0x31a9108f)\n      dup2\n      mstore\n      swap1\n      dup2\n      add\n        /* \"#utility.yul\":874:899   */\n      dup7\n      swap1\n      mstore\n        /* \"src/smartcontracts/CryptoQuestTheShardsOfGenesisStaking.sol\":2686:2696  msg.sender */\n      swap1\n      swap3\n        /* \"src/smartcontracts/CryptoQuestTheShardsOfGenesisStaking.sol\":2861:2871  cqnftToken */\n      swap1\n      swap2\n      and\n      swap1\n        /* \"src/smartcontracts/CryptoQuestTheShardsOfGenesisStaking.sol\":2842:2880  IERC721Upgradeable(cqnftToken).ownerOf */\n      0x6352211e\n      swap1\n        /* \"#utility.yul\":847:865   */\n      0x24\n      add\n        /* \"src/smartcontracts/CryptoQuestTheShardsOfGenesisStaking.sol\":2842:2890  IERC721Upgradeable(cqnftToken).ownerOf(_tokenId) */\n      0x20\n      mload(0x40)\n      dup1\n      dup4\n      sub\n      dup2\n      dup7\n      gas\n      staticcall\n      iszero\n      dup1\n      iszero\n      tag_236\n      jumpi\n      returndatasize\n      0x00\n      dup1\n      returndatacopy\n      revert(0x00, returndatasize)\n    tag_236:\n      pop\n      pop\n      pop\n      pop\n      mload(0x40)\n      returndatasize\n      not(0x1f)\n      0x1f\n      dup3\n      add\n      and\n      dup3\n      add\n      dup1\n      0x40\n      mstore\n      pop\n      dup2\n      add\n      swap1\n      tag_237\n      swap2\n      swap1\n      tag_174\n      jump\t// in\n    tag_237:\n      sub(shl(0xa0, 0x01), 0x01)\n        /* \"src/smartcontracts/CryptoQuestTheShardsOfGenesisStaking.sol\":2842:2904  IERC721Upgradeable(cqnftToken).ownerOf(_tokenId) == msg.sender */\n      and\n      sub\n        /* \"src/smartcontracts/CryptoQuestTheShardsOfGenesisStaking.sol\":2838:3138  if (IERC721Upgradeable(cqnftToken).ownerOf(_tokenId) == msg.sender) {... */\n      tag_238\n      jumpi\n        /* \"src/smartcontracts/CryptoQuestTheShardsOfGenesisStaking.sol\":2939:2949  cqnftToken */\n      sload(0x34)\n        /* \"src/smartcontracts/CryptoQuestTheShardsOfGenesisStaking.sol\":2920:3000  IERC721Upgradeable(cqnftToken).transferFrom(msg.sender, address(this), _tokenId) */\n      mload(0x40)\n      shl(0xe0, 0x23b872dd)\n      dup2\n      mstore\n        /* \"src/smartcontracts/CryptoQuestTheShardsOfGenesisStaking.sol\":2964:2974  msg.sender */\n      caller\n        /* \"src/smartcontracts/CryptoQuestTheShardsOfGenesisStaking.sol\":2920:3000  IERC721Upgradeable(cqnftToken).transferFrom(msg.sender, address(this), _tokenId) */\n      0x04\n      dup3\n      add\n        /* \"#utility.yul\":9252:9303   */\n      mstore\n        /* \"src/smartcontracts/CryptoQuestTheShardsOfGenesisStaking.sol\":2984:2988  this */\n      address\n        /* \"#utility.yul\":9319:9337   */\n      0x24\n      dup3\n      add\n        /* \"#utility.yul\":9312:9372   */\n      mstore\n        /* \"#utility.yul\":9388:9406   */\n      0x44\n      dup2\n      add\n        /* \"#utility.yul\":9381:9415   */\n      dup5\n      swap1\n      mstore\n      sub(shl(0xa0, 0x01), 0x01)\n        /* \"src/smartcontracts/CryptoQuestTheShardsOfGenesisStaking.sol\":2939:2949  cqnftToken */\n      swap1\n      swap2\n      and\n      swap1\n        /* \"src/smartcontracts/CryptoQuestTheShardsOfGenesisStaking.sol\":2920:2963  IERC721Upgradeable(cqnftToken).transferFrom */\n      0x23b872dd\n      swap1\n        /* \"#utility.yul\":9225:9243   */\n      0x64\n      add\n        /* \"src/smartcontracts/CryptoQuestTheShardsOfGenesisStaking.sol\":2920:3000  IERC721Upgradeable(cqnftToken).transferFrom(msg.sender, address(this), _tokenId) */\n      0x00\n      mload(0x40)\n      dup1\n      dup4\n      sub\n      dup2\n      0x00\n      dup8\n      dup1\n      extcodesize\n      iszero\n      dup1\n      iszero\n      tag_240\n      jumpi\n      0x00\n      dup1\n      revert\n    tag_240:\n      pop\n      gas\n      call\n      iszero\n      dup1\n      iszero\n      tag_242\n      jumpi\n      returndatasize\n      0x00\n      dup1\n      returndatacopy\n      revert(0x00, returndatasize)\n    tag_242:\n      pop\n      pop\n      pop\n      pop\n        /* \"src/smartcontracts/CryptoQuestTheShardsOfGenesisStaking.sol\":2838:3138  if (IERC721Upgradeable(cqnftToken).ownerOf(_tokenId) == msg.sender) {... */\n      jump(tag_243)\n    tag_238:\n        /* \"src/smartcontracts/CryptoQuestTheShardsOfGenesisStaking.sol\":3051:3065  cqnft1155Token */\n      sload(0x35)\n        /* \"src/smartcontracts/CryptoQuestTheShardsOfGenesisStaking.sol\":3031:3127  IERC1155Upgradeable(cqnft1155Token).safeTransferFrom(msg.sender, address(this), _tokenId, 1, \"\") */\n      mload(0x40)\n      shl(0xe1, 0x79212195)\n      dup2\n      mstore\n      sub(shl(0xa0, 0x01), 0x01)\n        /* \"src/smartcontracts/CryptoQuestTheShardsOfGenesisStaking.sol\":3051:3065  cqnft1155Token */\n      swap1\n      swap2\n      and\n      swap1\n        /* \"src/smartcontracts/CryptoQuestTheShardsOfGenesisStaking.sol\":3031:3083  IERC1155Upgradeable(cqnft1155Token).safeTransferFrom */\n      0xf242432a\n      swap1\n        /* \"src/smartcontracts/CryptoQuestTheShardsOfGenesisStaking.sol\":3031:3127  IERC1155Upgradeable(cqnft1155Token).safeTransferFrom(msg.sender, address(this), _tokenId, 1, \"\") */\n      tag_244\n      swap1\n        /* \"src/smartcontracts/CryptoQuestTheShardsOfGenesisStaking.sol\":3084:3094  msg.sender */\n      caller\n      swap1\n        /* \"src/smartcontracts/CryptoQuestTheShardsOfGenesisStaking.sol\":3104:3108  this */\n      address\n      swap1\n        /* \"src/smartcontracts/CryptoQuestTheShardsOfGenesisStaking.sol\":3111:3119  _tokenId */\n      dup8\n      swap1\n        /* \"src/smartcontracts/CryptoQuestTheShardsOfGenesisStaking.sol\":3051:3065  cqnft1155Token */\n      0x01\n      swap1\n        /* \"src/smartcontracts/CryptoQuestTheShardsOfGenesisStaking.sol\":3031:3127  IERC1155Upgradeable(cqnft1155Token).safeTransferFrom(msg.sender, address(this), _tokenId, 1, \"\") */\n      0x04\n      add\n      tag_183\n      jump\t// in\n    tag_244:\n      0x00\n      mload(0x40)\n      dup1\n      dup4\n      sub\n      dup2\n      0x00\n      dup8\n      dup1\n      extcodesize\n      iszero\n      dup1\n      iszero\n      tag_245\n      jumpi\n      0x00\n      dup1\n      revert\n    tag_245:\n      pop\n      gas\n      call\n      iszero\n      dup1\n      iszero\n      tag_247\n      jumpi\n      returndatasize\n      0x00\n      dup1\n      returndatacopy\n      revert(0x00, returndatasize)\n    tag_247:\n      pop\n      pop\n      pop\n      pop\n        /* \"src/smartcontracts/CryptoQuestTheShardsOfGenesisStaking.sol\":2838:3138  if (IERC721Upgradeable(cqnftToken).ownerOf(_tokenId) == msg.sender) {... */\n    tag_243:\n        /* \"src/smartcontracts/CryptoQuestTheShardsOfGenesisStaking.sol\":3153:3198  Staked(_tokenId, msg.sender, block.timestamp) */\n      0x40\n      dup1\n      mload\n        /* \"#utility.yul\":11579:11604   */\n      dup4\n      dup2\n      mstore\n        /* \"src/smartcontracts/CryptoQuestTheShardsOfGenesisStaking.sol\":3170:3180  msg.sender */\n      caller\n        /* \"#utility.yul\":11635:11637   */\n      0x20\n        /* \"#utility.yul\":11620:11638   */\n      dup3\n      add\n        /* \"#utility.yul\":11613:11673   */\n      mstore\n        /* \"src/smartcontracts/CryptoQuestTheShardsOfGenesisStaking.sol\":3182:3197  block.timestamp */\n      timestamp\n        /* \"#utility.yul\":11689:11707   */\n      swap2\n      dup2\n      add\n        /* \"#utility.yul\":11682:11716   */\n      swap2\n      swap1\n      swap2\n      mstore\n        /* \"src/smartcontracts/CryptoQuestTheShardsOfGenesisStaking.sol\":3153:3198  Staked(_tokenId, msg.sender, block.timestamp) */\n      0x18dcd430020e4d4899772fd94a8b40451dc5044dfb70bc46b532eeae431c864f\n      swap1\n        /* \"#utility.yul\":11567:11569   */\n      0x60\n        /* \"#utility.yul\":11552:11570   */\n      add\n        /* \"src/smartcontracts/CryptoQuestTheShardsOfGenesisStaking.sol\":3153:3198  Staked(_tokenId, msg.sender, block.timestamp) */\n      tag_187\n        /* \"#utility.yul\":11377:11722   */\n      jump\n        /* \"@openzeppelin/contracts-upgradeable/access/AccessControlUpgradeable.sol\":3732:3939  function hasRole(bytes32 role, address account) public view virtual returns (bool) {... */\n    tag_98:\n        /* \"@openzeppelin/contracts-upgradeable/access/AccessControlUpgradeable.sol\":3809:3813  bool */\n      0x00\n        /* \"@openzeppelin/contracts-upgradeable/access/AccessControlUpgradeable.sol\":3901:3915  $._roles[role] */\n      swap2\n      dup3\n      mstore\n      0x00\n      dup1\n      mload\n      0x20\n      data_b3da67d1b252aeab7c8063542d95e75f82a5307a82535949bc38f7cf7ba8897f\n      dup4\n      codecopy\n      dup2\n      mload\n      swap2\n      mstore\n      0x20\n      swap1\n      dup2\n      mstore\n      0x40\n      dup1\n      dup5\n      keccak256\n      sub(shl(0xa0, 0x01), 0x01)\n        /* \"@openzeppelin/contracts-upgradeable/access/AccessControlUpgradeable.sol\":3901:3932  $._roles[role].hasRole[account] */\n      swap4\n      swap1\n      swap4\n      and\n      dup5\n      mstore\n      swap2\n      swap1\n      mstore\n      swap1\n      keccak256\n      sload\n      0xff\n      and\n      swap1\n        /* \"@openzeppelin/contracts-upgradeable/access/AccessControlUpgradeable.sol\":3732:3939  function hasRole(bytes32 role, address account) public view virtual returns (bool) {... */\n      jump\t// out\n        /* \"src/smartcontracts/CryptoQuestTheShardsOfGenesisStaking.sol\":1720:2217  function initialize(... */\n    tag_108:\n        /* \"@openzeppelin/contracts-upgradeable/proxy/utils/Initializable.sol\":8870:8891  INITIALIZABLE_STORAGE */\n      0xf0c57e16840df040f15088dc2f81fe391c3923bec73e23a9662efc9c229c6a00\n        /* \"@openzeppelin/contracts-upgradeable/proxy/utils/Initializable.sol\":4302:4317  $._initializing */\n      dup1\n      sload\n      shl(0x40, 0x01)\n      dup2\n      div\n      0xff\n      and\n        /* \"@openzeppelin/contracts-upgradeable/proxy/utils/Initializable.sol\":4301:4317  !$._initializing */\n      iszero\n      swap1\n        /* \"@openzeppelin/contracts-upgradeable/proxy/utils/Initializable.sol\":4348:4362  $._initialized */\n      0xffffffffffffffff\n      and\n        /* \"@openzeppelin/contracts-upgradeable/proxy/utils/Initializable.sol\":4158:4188  InitializableStorage storage $ */\n      0x00\n        /* \"@openzeppelin/contracts-upgradeable/proxy/utils/Initializable.sol\":4726:4742  initialized == 0 */\n      dup2\n      iszero\n        /* \"@openzeppelin/contracts-upgradeable/proxy/utils/Initializable.sol\":4726:4760  initialized == 0 && isTopLevelCall */\n      dup1\n      iszero\n      tag_255\n      jumpi\n      pop\n        /* \"@openzeppelin/contracts-upgradeable/proxy/utils/Initializable.sol\":4746:4760  isTopLevelCall */\n      dup3\n        /* \"@openzeppelin/contracts-upgradeable/proxy/utils/Initializable.sol\":4726:4760  initialized == 0 && isTopLevelCall */\n    tag_255:\n        /* \"@openzeppelin/contracts-upgradeable/proxy/utils/Initializable.sol\":4706:4760  bool initialSetup = initialized == 0 && isTopLevelCall */\n      swap1\n      pop\n        /* \"@openzeppelin/contracts-upgradeable/proxy/utils/Initializable.sol\":4770:4787  bool construction */\n      0x00\n        /* \"@openzeppelin/contracts-upgradeable/proxy/utils/Initializable.sol\":4790:4801  initialized */\n      dup3\n        /* \"@openzeppelin/contracts-upgradeable/proxy/utils/Initializable.sol\":4790:4806  initialized == 1 */\n      0xffffffffffffffff\n      and\n        /* \"@openzeppelin/contracts-upgradeable/proxy/utils/Initializable.sol\":4805:4806  1 */\n      0x01\n        /* \"@openzeppelin/contracts-upgradeable/proxy/utils/Initializable.sol\":4790:4806  initialized == 1 */\n      eq\n        /* \"@openzeppelin/contracts-upgradeable/proxy/utils/Initializable.sol\":4790:4840  initialized == 1 && address(this).code.length == 0 */\n      dup1\n      iszero\n      tag_256\n      jumpi\n      pop\n        /* \"@openzeppelin/contracts-upgradeable/proxy/utils/Initializable.sol\":4818:4822  this */\n      address\n        /* \"@openzeppelin/contracts-upgradeable/proxy/utils/Initializable.sol\":4810:4835  address(this).code.length */\n      extcodesize\n        /* \"@openzeppelin/contracts-upgradeable/proxy/utils/Initializable.sol\":4810:4840  address(this).code.length == 0 */\n      iszero\n        /* \"@openzeppelin/contracts-upgradeable/proxy/utils/Initializable.sol\":4790:4840  initialized == 1 && address(this).code.length == 0 */\n    tag_256:\n        /* \"@openzeppelin/contracts-upgradeable/proxy/utils/Initializable.sol\":4770:4840  bool construction = initialized == 1 && address(this).code.length == 0 */\n      swap1\n      pop\n        /* \"@openzeppelin/contracts-upgradeable/proxy/utils/Initializable.sol\":4856:4868  initialSetup */\n      dup2\n        /* \"@openzeppelin/contracts-upgradeable/proxy/utils/Initializable.sol\":4855:4868  !initialSetup */\n      iszero\n        /* \"@openzeppelin/contracts-upgradeable/proxy/utils/Initializable.sol\":4855:4885  !initialSetup && !construction */\n      dup1\n      iszero\n      tag_257\n      jumpi\n      pop\n        /* \"@openzeppelin/contracts-upgradeable/proxy/utils/Initializable.sol\":4873:4885  construction */\n      dup1\n        /* \"@openzeppelin/contracts-upgradeable/proxy/utils/Initializable.sol\":4872:4885  !construction */\n      iszero\n        /* \"@openzeppelin/contracts-upgradeable/proxy/utils/Initializable.sol\":4855:4885  !initialSetup && !construction */\n    tag_257:\n        /* \"@openzeppelin/contracts-upgradeable/proxy/utils/Initializable.sol\":4851:4942  if (!initialSetup && !construction) {... */\n      iszero\n      tag_258\n      jumpi\n        /* \"@openzeppelin/contracts-upgradeable/proxy/utils/Initializable.sol\":4908:4931  InvalidInitialization() */\n      mload(0x40)\n      shl(0xe0, 0xf92ee8a9)\n      dup2\n      mstore\n      0x04\n      add\n      mload(0x40)\n      dup1\n      swap2\n      sub\n      swap1\n      revert\n        /* \"@openzeppelin/contracts-upgradeable/proxy/utils/Initializable.sol\":4851:4942  if (!initialSetup && !construction) {... */\n    tag_258:\n        /* \"@openzeppelin/contracts-upgradeable/proxy/utils/Initializable.sol\":4951:4969  $._initialized = 1 */\n      dup5\n      sload\n      not(0xffffffffffffffff)\n      and\n        /* \"@openzeppelin/contracts-upgradeable/proxy/utils/Initializable.sol\":4968:4969  1 */\n      0x01\n        /* \"@openzeppelin/contracts-upgradeable/proxy/utils/Initializable.sol\":4951:4969  $._initialized = 1 */\n      or\n      dup6\n      sstore\n        /* \"@openzeppelin/contracts-upgradeable/proxy/utils/Initializable.sol\":4979:5046  if (isTopLevelCall) {... */\n      dup4\n      iszero\n      tag_259\n      jumpi\n        /* \"@openzeppelin/contracts-upgradeable/proxy/utils/Initializable.sol\":5013:5035  $._initializing = true */\n      dup5\n      sload\n      not(shl(0x40, 0xff))\n      and\n      shl(0x40, 0x01)\n      or\n      dup6\n      sstore\n        /* \"@openzeppelin/contracts-upgradeable/proxy/utils/Initializable.sol\":4979:5046  if (isTopLevelCall) {... */\n    tag_259:\n        /* \"src/smartcontracts/CryptoQuestTheShardsOfGenesisStaking.sol\":1932:1954  __AccessControl_init() */\n      tag_261\n        /* \"src/smartcontracts/CryptoQuestTheShardsOfGenesisStaking.sol\":1932:1952  __AccessControl_init */\n      tag_262\n        /* \"src/smartcontracts/CryptoQuestTheShardsOfGenesisStaking.sol\":1932:1954  __AccessControl_init() */\n      jump\t// in\n    tag_261:\n        /* \"src/smartcontracts/CryptoQuestTheShardsOfGenesisStaking.sol\":1964:1981  __Pausable_init() */\n      tag_263\n        /* \"src/smartcontracts/CryptoQuestTheShardsOfGenesisStaking.sol\":1964:1979  __Pausable_init */\n      tag_264\n        /* \"src/smartcontracts/CryptoQuestTheShardsOfGenesisStaking.sol\":1964:1981  __Pausable_init() */\n      jump\t// in\n    tag_263:\n        /* \"src/smartcontracts/CryptoQuestTheShardsOfGenesisStaking.sol\":1991:2015  __UUPSUpgradeable_init() */\n      tag_265\n        /* \"src/smartcontracts/CryptoQuestTheShardsOfGenesisStaking.sol\":1991:2013  __UUPSUpgradeable_init */\n      tag_262\n        /* \"src/smartcontracts/CryptoQuestTheShardsOfGenesisStaking.sol\":1991:2015  __UUPSUpgradeable_init() */\n      jump\t// in\n    tag_265:\n        /* \"src/smartcontracts/CryptoQuestTheShardsOfGenesisStaking.sol\":2026:2034  cqtToken */\n      0x33\n        /* \"src/smartcontracts/CryptoQuestTheShardsOfGenesisStaking.sol\":2026:2046  cqtToken = _cqtToken */\n      dup1\n      sload\n      sub(shl(0xa0, 0x01), 0x01)\n      dup1\n      dup14\n      and\n      not(sub(shl(0xa0, 0x01), 0x01))\n      swap3\n      dup4\n      and\n      or\n      swap1\n      swap3\n      sstore\n        /* \"src/smartcontracts/CryptoQuestTheShardsOfGenesisStaking.sol\":2056:2066  cqnftToken */\n      0x34\n        /* \"src/smartcontracts/CryptoQuestTheShardsOfGenesisStaking.sol\":2056:2080  cqnftToken = _cqnftToken */\n      dup1\n      sload\n      dup13\n      dup5\n      and\n      swap1\n      dup4\n      and\n      or\n      swap1\n      sstore\n        /* \"src/smartcontracts/CryptoQuestTheShardsOfGenesisStaking.sol\":2090:2104  cqnft1155Token */\n      0x35\n        /* \"src/smartcontracts/CryptoQuestTheShardsOfGenesisStaking.sol\":2090:2122  cqnft1155Token = _cqnft1155Token */\n      dup1\n      sload\n      swap3\n      dup12\n      and\n      swap3\n      swap1\n      swap2\n      and\n      swap2\n      swap1\n      swap2\n      or\n      swap1\n      sstore\n        /* \"src/smartcontracts/CryptoQuestTheShardsOfGenesisStaking.sol\":2132:2142  rewardRate */\n      0x36\n        /* \"src/smartcontracts/CryptoQuestTheShardsOfGenesisStaking.sol\":2132:2156  rewardRate = _rewardRate */\n      dup8\n      swap1\n      sstore\n        /* \"src/smartcontracts/CryptoQuestTheShardsOfGenesisStaking.sol\":2166:2186  minimumStakingPeriod */\n      0x37\n        /* \"src/smartcontracts/CryptoQuestTheShardsOfGenesisStaking.sol\":2166:2210  minimumStakingPeriod = _minimumStakingPeriod */\n      dup7\n      swap1\n      sstore\n        /* \"@openzeppelin/contracts-upgradeable/proxy/utils/Initializable.sol\":5066:5167  if (isTopLevelCall) {... */\n      dup4\n      iszero\n      tag_267\n      jumpi\n        /* \"@openzeppelin/contracts-upgradeable/proxy/utils/Initializable.sol\":5100:5123  $._initializing = false */\n      dup5\n      sload\n      not(shl(0x40, 0xff))\n      and\n      dup6\n      sstore\n        /* \"@openzeppelin/contracts-upgradeable/proxy/utils/Initializable.sol\":5142:5156  Initialized(1) */\n      mload(0x40)\n      0x01\n        /* \"#utility.yul\":11880:11930   */\n      dup2\n      mstore\n        /* \"@openzeppelin/contracts-upgradeable/proxy/utils/Initializable.sol\":5142:5156  Initialized(1) */\n      0xc7f505b2f371ae2175ee4913f4499e1f2633a7b5936321eed1cdaeb6115181d2\n      swap1\n        /* \"#utility.yul\":11868:11870   */\n      0x20\n        /* \"#utility.yul\":11853:11871   */\n      add\n        /* \"@openzeppelin/contracts-upgradeable/proxy/utils/Initializable.sol\":5142:5156  Initialized(1) */\n      mload(0x40)\n      dup1\n      swap2\n      sub\n      swap1\n      log1\n        /* \"@openzeppelin/contracts-upgradeable/proxy/utils/Initializable.sol\":5066:5167  if (isTopLevelCall) {... */\n    tag_267:\n        /* \"@openzeppelin/contracts-upgradeable/proxy/utils/Initializable.sol\":4092:5173  {... */\n      pop\n      pop\n      pop\n      pop\n      pop\n        /* \"src/smartcontracts/CryptoQuestTheShardsOfGenesisStaking.sol\":1720:2217  function initialize(... */\n      pop\n      pop\n      pop\n      pop\n      pop\n      jump\t// out\n        /* \"src/smartcontracts/CryptoQuestTheShardsOfGenesisStaking.sol\":3211:3530  function stakeBatch(uint256[] calldata _tokenIds, uint256[] calldata _rarities) public whenNotPaused {... */\n    tag_118:\n        /* \"@openzeppelin/contracts-upgradeable/security/PausableUpgradeable.sol\":1503:1522  _requireNotPaused() */\n      tag_271\n        /* \"@openzeppelin/contracts-upgradeable/security/PausableUpgradeable.sol\":1503:1520  _requireNotPaused */\n      tag_146\n        /* \"@openzeppelin/contracts-upgradeable/security/PausableUpgradeable.sol\":1503:1522  _requireNotPaused() */\n      jump\t// in\n    tag_271:\n        /* \"src/smartcontracts/CryptoQuestTheShardsOfGenesisStaking.sol\":3330:3366  _tokenIds.length == _rarities.length */\n      dup3\n      dup2\n      eq\n        /* \"src/smartcontracts/CryptoQuestTheShardsOfGenesisStaking.sol\":3322:3409  require(_tokenIds.length == _rarities.length, \"Token IDs and rarities length mismatch\") */\n      tag_273\n      jumpi\n      mload(0x40)\n      shl(0xe5, 0x461bcd)\n      dup2\n      mstore\n        /* \"#utility.yul\":12143:12145   */\n      0x20\n        /* \"src/smartcontracts/CryptoQuestTheShardsOfGenesisStaking.sol\":3322:3409  require(_tokenIds.length == _rarities.length, \"Token IDs and rarities length mismatch\") */\n      0x04\n      dup3\n      add\n        /* \"#utility.yul\":12125:12146   */\n      mstore\n        /* \"#utility.yul\":12182:12184   */\n      0x26\n        /* \"#utility.yul\":12162:12180   */\n      0x24\n      dup3\n      add\n        /* \"#utility.yul\":12155:12185   */\n      mstore\n        /* \"#utility.yul\":12221:12255   */\n      0x546f6b656e2049447320616e64207261726974696573206c656e677468206d69\n        /* \"#utility.yul\":12201:12219   */\n      0x44\n      dup3\n      add\n        /* \"#utility.yul\":12194:12256   */\n      mstore\n      shl(0xd3, 0x0e6dac2e8c6d)\n        /* \"#utility.yul\":12272:12290   */\n      0x64\n      dup3\n      add\n        /* \"#utility.yul\":12265:12301   */\n      mstore\n        /* \"#utility.yul\":12318:12337   */\n      0x84\n      add\n        /* \"src/smartcontracts/CryptoQuestTheShardsOfGenesisStaking.sol\":3322:3409  require(_tokenIds.length == _rarities.length, \"Token IDs and rarities length mismatch\") */\n      tag_149\n        /* \"#utility.yul\":11941:12343   */\n      jump\n        /* \"src/smartcontracts/CryptoQuestTheShardsOfGenesisStaking.sol\":3322:3409  require(_tokenIds.length == _rarities.length, \"Token IDs and rarities length mismatch\") */\n    tag_273:\n        /* \"src/smartcontracts/CryptoQuestTheShardsOfGenesisStaking.sol\":3424:3433  uint256 i */\n      0x00\n        /* \"src/smartcontracts/CryptoQuestTheShardsOfGenesisStaking.sol\":3419:3524  for (uint256 i = 0; i < _tokenIds.length; i++) {... */\n    tag_276:\n        /* \"src/smartcontracts/CryptoQuestTheShardsOfGenesisStaking.sol\":3439:3459  i < _tokenIds.length */\n      dup4\n      dup2\n      lt\n        /* \"src/smartcontracts/CryptoQuestTheShardsOfGenesisStaking.sol\":3419:3524  for (uint256 i = 0; i < _tokenIds.length; i++) {... */\n      iszero\n      tag_277\n      jumpi\n        /* \"src/smartcontracts/CryptoQuestTheShardsOfGenesisStaking.sol\":3480:3513  stake(_tokenIds[i], _rarities[i]) */\n      tag_279\n        /* \"src/smartcontracts/CryptoQuestTheShardsOfGenesisStaking.sol\":3486:3495  _tokenIds */\n      dup6\n      dup6\n        /* \"src/smartcontracts/CryptoQuestTheShardsOfGenesisStaking.sol\":3496:3497  i */\n      dup4\n        /* \"src/smartcontracts/CryptoQuestTheShardsOfGenesisStaking.sol\":3486:3498  _tokenIds[i] */\n      dup2\n      dup2\n      lt\n      tag_281\n      jumpi\n      tag_281\n      tag_282\n      jump\t// in\n    tag_281:\n      swap1\n      pop\n      0x20\n      mul\n      add\n      calldataload\n        /* \"src/smartcontracts/CryptoQuestTheShardsOfGenesisStaking.sol\":3500:3509  _rarities */\n      dup5\n      dup5\n        /* \"src/smartcontracts/CryptoQuestTheShardsOfGenesisStaking.sol\":3510:3511  i */\n      dup5\n        /* \"src/smartcontracts/CryptoQuestTheShardsOfGenesisStaking.sol\":3500:3512  _rarities[i] */\n      dup2\n      dup2\n      lt\n      tag_284\n      jumpi\n      tag_284\n      tag_282\n      jump\t// in\n    tag_284:\n      swap1\n      pop\n      0x20\n      mul\n      add\n      calldataload\n        /* \"src/smartcontracts/CryptoQuestTheShardsOfGenesisStaking.sol\":3480:3485  stake */\n      tag_81\n        /* \"src/smartcontracts/CryptoQuestTheShardsOfGenesisStaking.sol\":3480:3513  stake(_tokenIds[i], _rarities[i]) */\n      jump\t// in\n    tag_279:\n        /* \"src/smartcontracts/CryptoQuestTheShardsOfGenesisStaking.sol\":3461:3464  i++ */\n      0x01\n      add\n        /* \"src/smartcontracts/CryptoQuestTheShardsOfGenesisStaking.sol\":3419:3524  for (uint256 i = 0; i < _tokenIds.length; i++) {... */\n      jump(tag_276)\n    tag_277:\n      pop\n        /* \"src/smartcontracts/CryptoQuestTheShardsOfGenesisStaking.sol\":3211:3530  function stakeBatch(uint256[] calldata _tokenIds, uint256[] calldata _rarities) public whenNotPaused {... */\n      pop\n      pop\n      pop\n      pop\n      jump\t// out\n        /* \"@openzeppelin/contracts-upgradeable/access/AccessControlUpgradeable.sol\":5662:5800  function revokeRole(bytes32 role, address account) public virtual onlyRole(getRoleAdmin(role)) {... */\n    tag_122:\n        /* \"@openzeppelin/contracts-upgradeable/access/AccessControlUpgradeable.sol\":5737:5755  getRoleAdmin(role) */\n      tag_285\n        /* \"@openzeppelin/contracts-upgradeable/access/AccessControlUpgradeable.sol\":5750:5754  role */\n      dup3\n        /* \"@openzeppelin/contracts-upgradeable/access/AccessControlUpgradeable.sol\":5737:5749  getRoleAdmin */\n      tag_39\n        /* \"@openzeppelin/contracts-upgradeable/access/AccessControlUpgradeable.sol\":5737:5755  getRoleAdmin(role) */\n      jump\t// in\n    tag_285:\n        /* \"@openzeppelin/contracts-upgradeable/access/AccessControlUpgradeable.sol\":3191:3207  _checkRole(role) */\n      tag_287\n        /* \"@openzeppelin/contracts-upgradeable/access/AccessControlUpgradeable.sol\":3202:3206  role */\n      dup2\n        /* \"@openzeppelin/contracts-upgradeable/access/AccessControlUpgradeable.sol\":3191:3201  _checkRole */\n      tag_192\n        /* \"@openzeppelin/contracts-upgradeable/access/AccessControlUpgradeable.sol\":3191:3207  _checkRole(role) */\n      jump\t// in\n    tag_287:\n        /* \"@openzeppelin/contracts-upgradeable/access/AccessControlUpgradeable.sol\":5767:5793  _revokeRole(role, account) */\n      tag_194\n        /* \"@openzeppelin/contracts-upgradeable/access/AccessControlUpgradeable.sol\":5779:5783  role */\n      dup4\n        /* \"@openzeppelin/contracts-upgradeable/access/AccessControlUpgradeable.sol\":5785:5792  account */\n      dup4\n        /* \"@openzeppelin/contracts-upgradeable/access/AccessControlUpgradeable.sol\":5767:5778  _revokeRole */\n      tag_201\n        /* \"@openzeppelin/contracts-upgradeable/access/AccessControlUpgradeable.sol\":5767:5793  _revokeRole(role, account) */\n      jump\t// in\n        /* \"@openzeppelin/contracts-upgradeable/security/PausableUpgradeable.sol\":2031:2137  function _requireNotPaused() internal view virtual {... */\n    tag_146:\n        /* \"@openzeppelin/contracts-upgradeable/security/PausableUpgradeable.sol\":1926:1930  bool */\n      0x00\n        /* \"@openzeppelin/contracts-upgradeable/security/PausableUpgradeable.sol\":1949:1956  _paused */\n      sload\n      0xff\n      and\n        /* \"@openzeppelin/contracts-upgradeable/security/PausableUpgradeable.sol\":2100:2109  !paused() */\n      iszero\n        /* \"@openzeppelin/contracts-upgradeable/security/PausableUpgradeable.sol\":2092:2130  require(!paused(), \"Pausable: paused\") */\n      tag_294\n      jumpi\n      mload(0x40)\n      shl(0xe5, 0x461bcd)\n      dup2\n      mstore\n        /* \"#utility.yul\":12682:12684   */\n      0x20\n        /* \"@openzeppelin/contracts-upgradeable/security/PausableUpgradeable.sol\":2092:2130  require(!paused(), \"Pausable: paused\") */\n      0x04\n      dup3\n      add\n        /* \"#utility.yul\":12664:12685   */\n      mstore\n        /* \"#utility.yul\":12721:12723   */\n      0x10\n        /* \"#utility.yul\":12701:12719   */\n      0x24\n      dup3\n      add\n        /* \"#utility.yul\":12694:12724   */\n      mstore\n      shl(0x82, 0x14185d5cd8589b194e881c185d5cd959)\n        /* \"#utility.yul\":12740:12758   */\n      0x44\n      dup3\n      add\n        /* \"#utility.yul\":12733:12779   */\n      mstore\n        /* \"#utility.yul\":12796:12814   */\n      0x64\n      add\n        /* \"@openzeppelin/contracts-upgradeable/security/PausableUpgradeable.sol\":2092:2130  require(!paused(), \"Pausable: paused\") */\n      tag_149\n        /* \"#utility.yul\":12480:12820   */\n      jump\n        /* \"@openzeppelin/contracts-upgradeable/security/PausableUpgradeable.sol\":2092:2130  require(!paused(), \"Pausable: paused\") */\n    tag_294:\n        /* \"@openzeppelin/contracts-upgradeable/security/PausableUpgradeable.sol\":2031:2137  function _requireNotPaused() internal view virtual {... */\n      jump\t// out\n        /* \"@openzeppelin/contracts-upgradeable/access/AccessControlUpgradeable.sol\":4148:4251  function _checkRole(bytes32 role) internal view virtual {... */\n    tag_192:\n        /* \"@openzeppelin/contracts-upgradeable/access/AccessControlUpgradeable.sol\":4214:4244  _checkRole(role, _msgSender()) */\n      tag_298\n        /* \"@openzeppelin/contracts-upgradeable/access/AccessControlUpgradeable.sol\":4225:4229  role */\n      dup2\n        /* \"@openzeppelin/contracts-upgradeable/utils/ContextUpgradeable.sol\":966:976  msg.sender */\n      caller\n        /* \"@openzeppelin/contracts-upgradeable/access/AccessControlUpgradeable.sol\":4214:4224  _checkRole */\n      tag_300\n        /* \"@openzeppelin/contracts-upgradeable/access/AccessControlUpgradeable.sol\":4214:4244  _checkRole(role, _msgSender()) */\n      jump\t// in\n    tag_298:\n        /* \"@openzeppelin/contracts-upgradeable/access/AccessControlUpgradeable.sol\":4148:4251  function _checkRole(bytes32 role) internal view virtual {... */\n      pop\n      jump\t// out\n        /* \"@openzeppelin/contracts-upgradeable/access/AccessControlUpgradeable.sol\":7270:7657  function _grantRole(bytes32 role, address account) internal virtual returns (bool) {... */\n    tag_195:\n        /* \"@openzeppelin/contracts-upgradeable/access/AccessControlUpgradeable.sol\":7347:7351  bool */\n      0x00\n      0x00\n      dup1\n      mload\n      0x20\n      data_b3da67d1b252aeab7c8063542d95e75f82a5307a82535949bc38f7cf7ba8897f\n      dup4\n      codecopy\n      dup2\n      mload\n      swap2\n      mstore\n        /* \"@openzeppelin/contracts-upgradeable/access/AccessControlUpgradeable.sol\":7437:7459  hasRole(role, account) */\n      tag_303\n        /* \"@openzeppelin/contracts-upgradeable/access/AccessControlUpgradeable.sol\":7445:7449  role */\n      dup5\n        /* \"@openzeppelin/contracts-upgradeable/access/AccessControlUpgradeable.sol\":7451:7458  account */\n      dup5\n        /* \"@openzeppelin/contracts-upgradeable/access/AccessControlUpgradeable.sol\":7437:7444  hasRole */\n      tag_98\n        /* \"@openzeppelin/contracts-upgradeable/access/AccessControlUpgradeable.sol\":7437:7459  hasRole(role, account) */\n      jump\t// in\n    tag_303:\n        /* \"@openzeppelin/contracts-upgradeable/access/AccessControlUpgradeable.sol\":7432:7651  if (!hasRole(role, account)) {... */\n      tag_304\n      jumpi\n        /* \"@openzeppelin/contracts-upgradeable/access/AccessControlUpgradeable.sol\":7475:7483  $._roles */\n      0x00\n        /* \"@openzeppelin/contracts-upgradeable/access/AccessControlUpgradeable.sol\":7475:7489  $._roles[role] */\n      dup5\n      dup2\n      mstore\n      0x20\n      dup3\n      dup2\n      mstore\n      0x40\n      dup1\n      dup4\n      keccak256\n      sub(shl(0xa0, 0x01), 0x01)\n        /* \"@openzeppelin/contracts-upgradeable/access/AccessControlUpgradeable.sol\":7475:7506  $._roles[role].hasRole[account] */\n      dup8\n      and\n      dup5\n      mstore\n      swap1\n      swap2\n      mstore\n      swap1\n      keccak256\n        /* \"@openzeppelin/contracts-upgradeable/access/AccessControlUpgradeable.sol\":7475:7513  $._roles[role].hasRole[account] = true */\n      dup1\n      sload\n      not(0xff)\n      and\n        /* \"@openzeppelin/contracts-upgradeable/access/AccessControlUpgradeable.sol\":7509:7513  true */\n      0x01\n        /* \"@openzeppelin/contracts-upgradeable/access/AccessControlUpgradeable.sol\":7475:7513  $._roles[role].hasRole[account] = true */\n      or\n      swap1\n      sstore\n        /* \"@openzeppelin/contracts-upgradeable/access/AccessControlUpgradeable.sol\":7559:7571  _msgSender() */\n      tag_305\n        /* \"@openzeppelin/contracts-upgradeable/utils/ContextUpgradeable.sol\":966:976  msg.sender */\n      caller\n      swap1\n        /* \"@openzeppelin/contracts-upgradeable/utils/ContextUpgradeable.sol\":887:983  function _msgSender() internal view virtual returns (address) {... */\n      jump\n        /* \"@openzeppelin/contracts-upgradeable/access/AccessControlUpgradeable.sol\":7559:7571  _msgSender() */\n    tag_305:\n      sub(shl(0xa0, 0x01), 0x01)\n        /* \"@openzeppelin/contracts-upgradeable/access/AccessControlUpgradeable.sol\":7532:7572  RoleGranted(role, account, _msgSender()) */\n      and\n        /* \"@openzeppelin/contracts-upgradeable/access/AccessControlUpgradeable.sol\":7550:7557  account */\n      dup4\n      sub(shl(0xa0, 0x01), 0x01)\n        /* \"@openzeppelin/contracts-upgradeable/access/AccessControlUpgradeable.sol\":7532:7572  RoleGranted(role, account, _msgSender()) */\n      and\n        /* \"@openzeppelin/contracts-upgradeable/access/AccessControlUpgradeable.sol\":7544:7548  role */\n      dup6\n        /* \"@openzeppelin/contracts-upgradeable/access/AccessControlUpgradeable.sol\":7532:7572  RoleGranted(role, account, _msgSender()) */\n      0x2f8788117e7eff1d82e926ec794901d17c78024a50270940304540a733656f0d\n      mload(0x40)\n      mload(0x40)\n      dup1\n      swap2\n      sub\n      swap1\n      log4\n        /* \"@openzeppelin/contracts-upgradeable/access/AccessControlUpgradeable.sol\":7593:7597  true */\n      0x01\n        /* \"@openzeppelin/contracts-upgradeable/access/AccessControlUpgradeable.sol\":7586:7597  return true */\n      swap2\n      pop\n      pop\n      jump(tag_139)\n        /* \"@openzeppelin/contracts-upgradeable/access/AccessControlUpgradeable.sol\":7432:7651  if (!hasRole(role, account)) {... */\n    tag_304:\n        /* \"@openzeppelin/contracts-upgradeable/access/AccessControlUpgradeable.sol\":7635:7640  false */\n      0x00\n        /* \"@openzeppelin/contracts-upgradeable/access/AccessControlUpgradeable.sol\":7628:7640  return false */\n      swap2\n      pop\n      pop\n      jump(tag_139)\n        /* \"@openzeppelin/contracts-upgradeable/access/AccessControlUpgradeable.sol\":7892:8280  function _revokeRole(bytes32 role, address account) internal virtual returns (bool) {... */\n    tag_201:\n        /* \"@openzeppelin/contracts-upgradeable/access/AccessControlUpgradeable.sol\":7970:7974  bool */\n      0x00\n      0x00\n      dup1\n      mload\n      0x20\n      data_b3da67d1b252aeab7c8063542d95e75f82a5307a82535949bc38f7cf7ba8897f\n      dup4\n      codecopy\n      dup2\n      mload\n      swap2\n      mstore\n        /* \"@openzeppelin/contracts-upgradeable/access/AccessControlUpgradeable.sol\":8059:8081  hasRole(role, account) */\n      tag_310\n        /* \"@openzeppelin/contracts-upgradeable/access/AccessControlUpgradeable.sol\":8067:8071  role */\n      dup5\n        /* \"@openzeppelin/contracts-upgradeable/access/AccessControlUpgradeable.sol\":8073:8080  account */\n      dup5\n        /* \"@openzeppelin/contracts-upgradeable/access/AccessControlUpgradeable.sol\":8059:8066  hasRole */\n      tag_98\n        /* \"@openzeppelin/contracts-upgradeable/access/AccessControlUpgradeable.sol\":8059:8081  hasRole(role, account) */\n      jump\t// in\n    tag_310:\n        /* \"@openzeppelin/contracts-upgradeable/access/AccessControlUpgradeable.sol\":8055:8274  if (hasRole(role, account)) {... */\n      iszero\n      tag_304\n      jumpi\n        /* \"@openzeppelin/contracts-upgradeable/access/AccessControlUpgradeable.sol\":8131:8136  false */\n      0x00\n        /* \"@openzeppelin/contracts-upgradeable/access/AccessControlUpgradeable.sol\":8097:8111  $._roles[role] */\n      dup5\n      dup2\n      mstore\n      0x20\n      dup3\n      dup2\n      mstore\n      0x40\n      dup1\n      dup4\n      keccak256\n      sub(shl(0xa0, 0x01), 0x01)\n        /* \"@openzeppelin/contracts-upgradeable/access/AccessControlUpgradeable.sol\":8097:8128  $._roles[role].hasRole[account] */\n      dup8\n      and\n      dup1\n      dup6\n      mstore\n      swap3\n      mstore\n      dup1\n      dup4\n      keccak256\n        /* \"@openzeppelin/contracts-upgradeable/access/AccessControlUpgradeable.sol\":8097:8136  $._roles[role].hasRole[account] = false */\n      dup1\n      sload\n      not(0xff)\n      and\n      swap1\n      sstore\n        /* \"@openzeppelin/contracts-upgradeable/access/AccessControlUpgradeable.sol\":8155:8195  RoleRevoked(role, account, _msgSender()) */\n      mload\n        /* \"@openzeppelin/contracts-upgradeable/utils/ContextUpgradeable.sol\":966:976  msg.sender */\n      caller\n      swap3\n        /* \"@openzeppelin/contracts-upgradeable/access/AccessControlUpgradeable.sol\":8097:8111  $._roles[role] */\n      dup8\n      swap2\n        /* \"@openzeppelin/contracts-upgradeable/access/AccessControlUpgradeable.sol\":8155:8195  RoleRevoked(role, account, _msgSender()) */\n      0xf6391f5c32d9c69d2a47ea670b442974b53935d1edc7fd64eb21e047a839171b\n      swap2\n        /* \"@openzeppelin/contracts-upgradeable/access/AccessControlUpgradeable.sol\":8131:8136  false */\n      swap1\n        /* \"@openzeppelin/contracts-upgradeable/access/AccessControlUpgradeable.sol\":8155:8195  RoleRevoked(role, account, _msgSender()) */\n      log4\n        /* \"@openzeppelin/contracts-upgradeable/access/AccessControlUpgradeable.sol\":8216:8220  true */\n      0x01\n        /* \"@openzeppelin/contracts-upgradeable/access/AccessControlUpgradeable.sol\":8209:8220  return true */\n      swap2\n      pop\n      pop\n      jump(tag_139)\n        /* \"@openzeppelin/contracts-upgradeable/proxy/utils/UUPSUpgradeable.sol\":4599:4911  function _checkProxy() internal view virtual {... */\n    tag_204:\n        /* \"@openzeppelin/contracts-upgradeable/proxy/utils/UUPSUpgradeable.sol\":4679:4683  this */\n      address\n      sub(shl(0xa0, 0x01), 0x01)\n        /* \"@openzeppelin/contracts-upgradeable/proxy/utils/UUPSUpgradeable.sol\":4688:4694  __self */\n      immutable(\"0x3b04ad91523c4dcf551e081621e633b9099d51bf9c5461e58c3bc7354a578b27\")\n        /* \"@openzeppelin/contracts-upgradeable/proxy/utils/UUPSUpgradeable.sol\":4671:4694  address(this) == __self */\n      and\n      eq\n      dup1\n        /* \"@openzeppelin/contracts-upgradeable/proxy/utils/UUPSUpgradeable.sol\":4671:4791  address(this) == __self || // Must be called through delegatecall... */\n      tag_315\n      jumpi\n      pop\n        /* \"@openzeppelin/contracts-upgradeable/proxy/utils/UUPSUpgradeable.sol\":4785:4791  __self */\n      immutable(\"0x3b04ad91523c4dcf551e081621e633b9099d51bf9c5461e58c3bc7354a578b27\")\n      sub(shl(0xa0, 0x01), 0x01)\n        /* \"@openzeppelin/contracts-upgradeable/proxy/utils/UUPSUpgradeable.sol\":4749:4791  ERC1967Utils.getImplementation() != __self */\n      and\n        /* \"@openzeppelin/contracts-upgradeable/proxy/utils/UUPSUpgradeable.sol\":4749:4781  ERC1967Utils.getImplementation() */\n      tag_316\n      0x00\n      dup1\n      mload\n      0x20\n      data_75b20eef8615de99c108b05f0dbda081c91897128caa336d75dffb97c4132b4d\n      dup4\n      codecopy\n      dup2\n      mload\n      swap2\n      mstore\n        /* \"@openzeppelin/contracts/proxy/ERC1967/ERC1967Utils.sol\":2035:2088  StorageSlot.getAddressSlot(IMPLEMENTATION_SLOT).value */\n      sload\n      sub(shl(0xa0, 0x01), 0x01)\n      and\n      swap1\n        /* \"@openzeppelin/contracts/proxy/ERC1967/ERC1967Utils.sol\":1957:2095  function getImplementation() internal view returns (address) {... */\n      jump\n        /* \"@openzeppelin/contracts-upgradeable/proxy/utils/UUPSUpgradeable.sol\":4749:4781  ERC1967Utils.getImplementation() */\n    tag_316:\n      sub(shl(0xa0, 0x01), 0x01)\n        /* \"@openzeppelin/contracts-upgradeable/proxy/utils/UUPSUpgradeable.sol\":4749:4791  ERC1967Utils.getImplementation() != __self */\n      and\n      eq\n      iszero\n        /* \"@openzeppelin/contracts-upgradeable/proxy/utils/UUPSUpgradeable.sol\":4671:4791  address(this) == __self || // Must be called through delegatecall... */\n    tag_315:\n        /* \"@openzeppelin/contracts-upgradeable/proxy/utils/UUPSUpgradeable.sol\":4654:4905  if (... */\n      iszero\n      tag_294\n      jumpi\n        /* \"@openzeppelin/contracts-upgradeable/proxy/utils/UUPSUpgradeable.sol\":4865:4894  UUPSUnauthorizedCallContext() */\n      mload(0x40)\n      shl(0xe1, 0x703e46dd)\n      dup2\n      mstore\n      0x04\n      add\n      mload(0x40)\n      dup1\n      swap2\n      sub\n      swap1\n      revert\n        /* \"src/smartcontracts/CryptoQuestTheShardsOfGenesisStaking.sol\":4628:4708  function _authorizeUpgrade(address) internal override onlyRole(UPGRADER_ROLE) {} */\n    tag_207:\n        /* \"src/smartcontracts/CryptoQuestTheShardsOfGenesisStaking.sol\":966:992  keccak256(\"UPGRADER_ROLE\") */\n      0x189ab7a9244df0848122154315af71fe140f3db0fe014031783b0946b8c9d2e3\n        /* \"@openzeppelin/contracts-upgradeable/access/AccessControlUpgradeable.sol\":3191:3207  _checkRole(role) */\n      tag_208\n        /* \"@openzeppelin/contracts-upgradeable/access/AccessControlUpgradeable.sol\":3202:3206  role */\n      dup2\n        /* \"@openzeppelin/contracts-upgradeable/access/AccessControlUpgradeable.sol\":3191:3201  _checkRole */\n      tag_192\n        /* \"@openzeppelin/contracts-upgradeable/access/AccessControlUpgradeable.sol\":3191:3207  _checkRole(role) */\n      jump\t// in\n        /* \"@openzeppelin/contracts-upgradeable/proxy/utils/UUPSUpgradeable.sol\":6052:6590  function _upgradeToAndCallUUPS(address newImplementation, bytes memory data) private {... */\n    tag_209:\n        /* \"@openzeppelin/contracts-upgradeable/proxy/utils/UUPSUpgradeable.sol\":6169:6186  newImplementation */\n      dup2\n      sub(shl(0xa0, 0x01), 0x01)\n        /* \"@openzeppelin/contracts-upgradeable/proxy/utils/UUPSUpgradeable.sol\":6151:6201  IERC1822Proxiable(newImplementation).proxiableUUID */\n      and\n      0x52d1902d\n        /* \"@openzeppelin/contracts-upgradeable/proxy/utils/UUPSUpgradeable.sol\":6151:6203  IERC1822Proxiable(newImplementation).proxiableUUID() */\n      mload(0x40)\n      dup2\n      0xffffffff\n      and\n      0xe0\n      shl\n      dup2\n      mstore\n      0x04\n      add\n      0x20\n      mload(0x40)\n      dup1\n      dup4\n      sub\n      dup2\n      dup7\n      gas\n      staticcall\n      swap3\n      pop\n      pop\n      pop\n      dup1\n      iszero\n      tag_323\n      jumpi\n      pop\n      0x40\n      dup1\n      mload\n      0x1f\n      returndatasize\n      swap1\n      dup2\n      add\n      not(0x1f)\n      and\n      dup3\n      add\n      swap1\n      swap3\n      mstore\n      tag_324\n      swap2\n      dup2\n      add\n      swap1\n      tag_227\n      jump\t// in\n    tag_324:\n      0x01\n    tag_323:\n        /* \"@openzeppelin/contracts-upgradeable/proxy/utils/UUPSUpgradeable.sol\":6147:6584  try IERC1822Proxiable(newImplementation).proxiableUUID() returns (bytes32 slot) {... */\n      tag_326\n      jumpi\n        /* \"@openzeppelin/contracts-upgradeable/proxy/utils/UUPSUpgradeable.sol\":6513:6573  ERC1967Utils.ERC1967InvalidImplementation(newImplementation) */\n      mload(0x40)\n      shl(0xe0, 0x4c9c8ce3)\n      dup2\n      mstore\n      sub(shl(0xa0, 0x01), 0x01)\n        /* \"#utility.yul\":1813:1845   */\n      dup4\n      and\n        /* \"@openzeppelin/contracts-upgradeable/proxy/utils/UUPSUpgradeable.sol\":6513:6573  ERC1967Utils.ERC1967InvalidImplementation(newImplementation) */\n      0x04\n      dup3\n      add\n        /* \"#utility.yul\":1795:1846   */\n      mstore\n        /* \"#utility.yul\":1768:1786   */\n      0x24\n      add\n        /* \"@openzeppelin/contracts-upgradeable/proxy/utils/UUPSUpgradeable.sol\":6513:6573  ERC1967Utils.ERC1967InvalidImplementation(newImplementation) */\n      tag_149\n        /* \"#utility.yul\":1649:1852   */\n      jump\n        /* \"@openzeppelin/contracts-upgradeable/proxy/utils/UUPSUpgradeable.sol\":6147:6584  try IERC1822Proxiable(newImplementation).proxiableUUID() returns (bytes32 slot) {... */\n    tag_326:\n      0x00\n      dup1\n      mload\n      0x20\n      data_75b20eef8615de99c108b05f0dbda081c91897128caa336d75dffb97c4132b4d\n      dup4\n      codecopy\n      dup2\n      mload\n      swap2\n      mstore\n        /* \"@openzeppelin/contracts-upgradeable/proxy/utils/UUPSUpgradeable.sol\":6245:6285  slot != ERC1967Utils.IMPLEMENTATION_SLOT */\n      dup2\n      eq\n        /* \"@openzeppelin/contracts-upgradeable/proxy/utils/UUPSUpgradeable.sol\":6241:6361  if (slot != ERC1967Utils.IMPLEMENTATION_SLOT) {... */\n      tag_332\n      jumpi\n        /* \"@openzeppelin/contracts-upgradeable/proxy/utils/UUPSUpgradeable.sol\":6312:6346  UUPSUnsupportedProxiableUUID(slot) */\n      mload(0x40)\n      shl(0xe2, 0x2a875269)\n      dup2\n      mstore\n      0x04\n      dup2\n      add\n        /* \"#utility.yul\":874:899   */\n      dup3\n      swap1\n      mstore\n        /* \"#utility.yul\":847:865   */\n      0x24\n      add\n        /* \"@openzeppelin/contracts-upgradeable/proxy/utils/UUPSUpgradeable.sol\":6312:6346  UUPSUnsupportedProxiableUUID(slot) */\n      tag_149\n        /* \"#utility.yul\":728:905   */\n      jump\n        /* \"@openzeppelin/contracts-upgradeable/proxy/utils/UUPSUpgradeable.sol\":6241:6361  if (slot != ERC1967Utils.IMPLEMENTATION_SLOT) {... */\n    tag_332:\n        /* \"@openzeppelin/contracts-upgradeable/proxy/utils/UUPSUpgradeable.sol\":6374:6428  ERC1967Utils.upgradeToAndCall(newImplementation, data) */\n      tag_200\n        /* \"@openzeppelin/contracts-upgradeable/proxy/utils/UUPSUpgradeable.sol\":6404:6421  newImplementation */\n      dup4\n        /* \"@openzeppelin/contracts-upgradeable/proxy/utils/UUPSUpgradeable.sol\":6423:6427  data */\n      dup4\n        /* \"@openzeppelin/contracts-upgradeable/proxy/utils/UUPSUpgradeable.sol\":6374:6403  ERC1967Utils.upgradeToAndCall */\n      tag_335\n        /* \"@openzeppelin/contracts-upgradeable/proxy/utils/UUPSUpgradeable.sol\":6374:6428  ERC1967Utils.upgradeToAndCall(newImplementation, data) */\n      jump\t// in\n        /* \"@openzeppelin/contracts-upgradeable/proxy/utils/UUPSUpgradeable.sol\":5028:5241  function _checkNotDelegated() internal view virtual {... */\n    tag_212:\n        /* \"@openzeppelin/contracts-upgradeable/proxy/utils/UUPSUpgradeable.sol\":5102:5106  this */\n      address\n      sub(shl(0xa0, 0x01), 0x01)\n        /* \"@openzeppelin/contracts-upgradeable/proxy/utils/UUPSUpgradeable.sol\":5111:5117  __self */\n      immutable(\"0x3b04ad91523c4dcf551e081621e633b9099d51bf9c5461e58c3bc7354a578b27\")\n        /* \"@openzeppelin/contracts-upgradeable/proxy/utils/UUPSUpgradeable.sol\":5094:5117  address(this) != __self */\n      and\n      eq\n        /* \"@openzeppelin/contracts-upgradeable/proxy/utils/UUPSUpgradeable.sol\":5090:5235  if (address(this) != __self) {... */\n      tag_294\n      jumpi\n        /* \"@openzeppelin/contracts-upgradeable/proxy/utils/UUPSUpgradeable.sol\":5195:5224  UUPSUnauthorizedCallContext() */\n      mload(0x40)\n      shl(0xe1, 0x703e46dd)\n      dup2\n      mstore\n      0x04\n      add\n      mload(0x40)\n      dup1\n      swap2\n      sub\n      swap1\n      revert\n        /* \"@openzeppelin/contracts-upgradeable/access/AccessControlUpgradeable.sol\":3231:3296  function __AccessControl_init() internal onlyInitializing {... */\n    tag_262:\n        /* \"@openzeppelin/contracts-upgradeable/proxy/utils/Initializable.sol\":6931:6951  _checkInitializing() */\n      tag_294\n        /* \"@openzeppelin/contracts-upgradeable/proxy/utils/Initializable.sol\":6931:6949  _checkInitializing */\n      tag_341\n        /* \"@openzeppelin/contracts-upgradeable/proxy/utils/Initializable.sol\":6931:6951  _checkInitializing() */\n      jump\t// in\n        /* \"@openzeppelin/contracts-upgradeable/security/PausableUpgradeable.sol\":1084:1181  function __Pausable_init() internal onlyInitializing {... */\n    tag_264:\n        /* \"@openzeppelin/contracts-upgradeable/proxy/utils/Initializable.sol\":6931:6951  _checkInitializing() */\n      tag_344\n        /* \"@openzeppelin/contracts-upgradeable/proxy/utils/Initializable.sol\":6931:6949  _checkInitializing */\n      tag_341\n        /* \"@openzeppelin/contracts-upgradeable/proxy/utils/Initializable.sol\":6931:6951  _checkInitializing() */\n      jump\t// in\n    tag_344:\n        /* \"@openzeppelin/contracts-upgradeable/security/PausableUpgradeable.sol\":1147:1174  __Pausable_init_unchained() */\n      tag_294\n        /* \"@openzeppelin/contracts-upgradeable/security/PausableUpgradeable.sol\":1147:1172  __Pausable_init_unchained */\n      tag_347\n        /* \"@openzeppelin/contracts-upgradeable/security/PausableUpgradeable.sol\":1147:1174  __Pausable_init_unchained() */\n      jump\t// in\n        /* \"@openzeppelin/contracts-upgradeable/access/AccessControlUpgradeable.sol\":4381:4578  function _checkRole(bytes32 role, address account) internal view virtual {... */\n    tag_300:\n        /* \"@openzeppelin/contracts-upgradeable/access/AccessControlUpgradeable.sol\":4469:4491  hasRole(role, account) */\n      tag_352\n        /* \"@openzeppelin/contracts-upgradeable/access/AccessControlUpgradeable.sol\":4477:4481  role */\n      dup3\n        /* \"@openzeppelin/contracts-upgradeable/access/AccessControlUpgradeable.sol\":4483:4490  account */\n      dup3\n        /* \"@openzeppelin/contracts-upgradeable/access/AccessControlUpgradeable.sol\":4469:4476  hasRole */\n      tag_98\n        /* \"@openzeppelin/contracts-upgradeable/access/AccessControlUpgradeable.sol\":4469:4491  hasRole(role, account) */\n      jump\t// in\n    tag_352:\n        /* \"@openzeppelin/contracts-upgradeable/access/AccessControlUpgradeable.sol\":4464:4572  if (!hasRole(role, account)) {... */\n      tag_208\n      jumpi\n        /* \"@openzeppelin/contracts-upgradeable/access/AccessControlUpgradeable.sol\":4514:4561  AccessControlUnauthorizedAccount(account, role) */\n      mload(0x40)\n      shl(0xe0, 0xe2517d3f)\n      dup2\n      mstore\n      sub(shl(0xa0, 0x01), 0x01)\n        /* \"#utility.yul\":8425:8457   */\n      dup3\n      and\n        /* \"@openzeppelin/contracts-upgradeable/access/AccessControlUpgradeable.sol\":4514:4561  AccessControlUnauthorizedAccount(account, role) */\n      0x04\n      dup3\n      add\n        /* \"#utility.yul\":8407:8458   */\n      mstore\n        /* \"#utility.yul\":8474:8492   */\n      0x24\n      dup2\n      add\n        /* \"#utility.yul\":8467:8501   */\n      dup4\n      swap1\n      mstore\n        /* \"#utility.yul\":8380:8398   */\n      0x44\n      add\n        /* \"@openzeppelin/contracts-upgradeable/access/AccessControlUpgradeable.sol\":4514:4561  AccessControlUnauthorizedAccount(account, role) */\n      tag_149\n        /* \"#utility.yul\":8233:8507   */\n      jump\n        /* \"@openzeppelin/contracts/proxy/ERC1967/ERC1967Utils.sol\":2779:3114  function upgradeToAndCall(address newImplementation, bytes memory data) internal {... */\n    tag_335:\n        /* \"@openzeppelin/contracts/proxy/ERC1967/ERC1967Utils.sol\":2870:2907  _setImplementation(newImplementation) */\n      tag_360\n        /* \"@openzeppelin/contracts/proxy/ERC1967/ERC1967Utils.sol\":2889:2906  newImplementation */\n      dup3\n        /* \"@openzeppelin/contracts/proxy/ERC1967/ERC1967Utils.sol\":2870:2888  _setImplementation */\n      tag_361\n        /* \"@openzeppelin/contracts/proxy/ERC1967/ERC1967Utils.sol\":2870:2907  _setImplementation(newImplementation) */\n      jump\t// in\n    tag_360:\n        /* \"@openzeppelin/contracts/proxy/ERC1967/ERC1967Utils.sol\":2922:2949  Upgraded(newImplementation) */\n      mload(0x40)\n      sub(shl(0xa0, 0x01), 0x01)\n      dup4\n      and\n      swap1\n      0xbc7cd75a20ee27fd9adebab32041f755214dbc6bffa90cc0225b39da2e5c2d3b\n      swap1\n      0x00\n      swap1\n      log2\n        /* \"@openzeppelin/contracts/proxy/ERC1967/ERC1967Utils.sol\":2964:2975  data.length */\n      dup1\n      mload\n        /* \"@openzeppelin/contracts/proxy/ERC1967/ERC1967Utils.sol\":2964:2979  data.length > 0 */\n      iszero\n        /* \"@openzeppelin/contracts/proxy/ERC1967/ERC1967Utils.sol\":2960:3108  if (data.length > 0) {... */\n      tag_362\n      jumpi\n        /* \"@openzeppelin/contracts/proxy/ERC1967/ERC1967Utils.sol\":2995:3048  Address.functionDelegateCall(newImplementation, data) */\n      tag_200\n        /* \"@openzeppelin/contracts/proxy/ERC1967/ERC1967Utils.sol\":3024:3041  newImplementation */\n      dup3\n        /* \"@openzeppelin/contracts/proxy/ERC1967/ERC1967Utils.sol\":3043:3047  data */\n      dup3\n        /* \"@openzeppelin/contracts/proxy/ERC1967/ERC1967Utils.sol\":2995:3023  Address.functionDelegateCall */\n      tag_364\n        /* \"@openzeppelin/contracts/proxy/ERC1967/ERC1967Utils.sol\":2995:3048  Address.functionDelegateCall(newImplementation, data) */\n      jump\t// in\n        /* \"@openzeppelin/contracts/proxy/ERC1967/ERC1967Utils.sol\":2960:3108  if (data.length > 0) {... */\n    tag_362:\n        /* \"@openzeppelin/contracts/proxy/ERC1967/ERC1967Utils.sol\":3079:3097  _checkNonPayable() */\n      tag_208\n        /* \"@openzeppelin/contracts/proxy/ERC1967/ERC1967Utils.sol\":3079:3095  _checkNonPayable */\n      tag_367\n        /* \"@openzeppelin/contracts/proxy/ERC1967/ERC1967Utils.sol\":3079:3097  _checkNonPayable() */\n      jump\t// in\n        /* \"@openzeppelin/contracts-upgradeable/proxy/utils/Initializable.sol\":7084:7225  function _checkInitializing() internal view virtual {... */\n    tag_341:\n        /* \"@openzeppelin/contracts-upgradeable/proxy/utils/Initializable.sol\":8870:8891  INITIALIZABLE_STORAGE */\n      0xf0c57e16840df040f15088dc2f81fe391c3923bec73e23a9662efc9c229c6a00\n        /* \"@openzeppelin/contracts-upgradeable/proxy/utils/Initializable.sol\":8560:8600  _getInitializableStorage()._initializing */\n      sload\n      shl(0x40, 0x01)\n      swap1\n      div\n      0xff\n      and\n        /* \"@openzeppelin/contracts-upgradeable/proxy/utils/Initializable.sol\":7146:7219  if (!_isInitializing()) {... */\n      tag_294\n      jumpi\n        /* \"@openzeppelin/contracts-upgradeable/proxy/utils/Initializable.sol\":7191:7208  NotInitializing() */\n      mload(0x40)\n      shl(0xe3, 0x1afcd79f)\n      dup2\n      mstore\n      0x04\n      add\n      mload(0x40)\n      dup1\n      swap2\n      sub\n      swap1\n      revert\n        /* \"@openzeppelin/contracts-upgradeable/security/PausableUpgradeable.sol\":1187:1282  function __Pausable_init_unchained() internal onlyInitializing {... */\n    tag_347:\n        /* \"@openzeppelin/contracts-upgradeable/proxy/utils/Initializable.sol\":6931:6951  _checkInitializing() */\n      tag_373\n        /* \"@openzeppelin/contracts-upgradeable/proxy/utils/Initializable.sol\":6931:6949  _checkInitializing */\n      tag_341\n        /* \"@openzeppelin/contracts-upgradeable/proxy/utils/Initializable.sol\":6931:6951  _checkInitializing() */\n      jump\t// in\n    tag_373:\n        /* \"@openzeppelin/contracts-upgradeable/security/PausableUpgradeable.sol\":1270:1275  false */\n      0x00\n        /* \"@openzeppelin/contracts-upgradeable/security/PausableUpgradeable.sol\":1260:1275  _paused = false */\n      dup1\n      sload\n      not(0xff)\n      and\n      swap1\n      sstore\n        /* \"@openzeppelin/contracts-upgradeable/security/PausableUpgradeable.sol\":1187:1282  function __Pausable_init_unchained() internal onlyInitializing {... */\n      jump\t// out\n        /* \"@openzeppelin/contracts/proxy/ERC1967/ERC1967Utils.sol\":2186:2467  function _setImplementation(address newImplementation) private {... */\n    tag_361:\n        /* \"@openzeppelin/contracts/proxy/ERC1967/ERC1967Utils.sol\":2263:2280  newImplementation */\n      dup1\n      sub(shl(0xa0, 0x01), 0x01)\n        /* \"@openzeppelin/contracts/proxy/ERC1967/ERC1967Utils.sol\":2263:2292  newImplementation.code.length */\n      and\n      extcodesize\n        /* \"@openzeppelin/contracts/proxy/ERC1967/ERC1967Utils.sol\":2296:2297  0 */\n      0x00\n        /* \"@openzeppelin/contracts/proxy/ERC1967/ERC1967Utils.sol\":2263:2297  newImplementation.code.length == 0 */\n      sub\n        /* \"@openzeppelin/contracts/proxy/ERC1967/ERC1967Utils.sol\":2259:2378  if (newImplementation.code.length == 0) {... */\n      tag_377\n      jumpi\n        /* \"@openzeppelin/contracts/proxy/ERC1967/ERC1967Utils.sol\":2320:2367  ERC1967InvalidImplementation(newImplementation) */\n      mload(0x40)\n      shl(0xe0, 0x4c9c8ce3)\n      dup2\n      mstore\n      sub(shl(0xa0, 0x01), 0x01)\n        /* \"#utility.yul\":1813:1845   */\n      dup3\n      and\n        /* \"@openzeppelin/contracts/proxy/ERC1967/ERC1967Utils.sol\":2320:2367  ERC1967InvalidImplementation(newImplementation) */\n      0x04\n      dup3\n      add\n        /* \"#utility.yul\":1795:1846   */\n      mstore\n        /* \"#utility.yul\":1768:1786   */\n      0x24\n      add\n        /* \"@openzeppelin/contracts/proxy/ERC1967/ERC1967Utils.sol\":2320:2367  ERC1967InvalidImplementation(newImplementation) */\n      tag_149\n        /* \"#utility.yul\":1649:1852   */\n      jump\n        /* \"@openzeppelin/contracts/proxy/ERC1967/ERC1967Utils.sol\":2259:2378  if (newImplementation.code.length == 0) {... */\n    tag_377:\n      0x00\n      dup1\n      mload\n      0x20\n      data_75b20eef8615de99c108b05f0dbda081c91897128caa336d75dffb97c4132b4d\n      dup4\n      codecopy\n      dup2\n      mload\n      swap2\n      mstore\n        /* \"@openzeppelin/contracts/proxy/ERC1967/ERC1967Utils.sol\":2387:2460  StorageSlot.getAddressSlot(IMPLEMENTATION_SLOT).value = newImplementation */\n      dup1\n      sload\n      not(sub(shl(0xa0, 0x01), 0x01))\n      and\n      sub(shl(0xa0, 0x01), 0x01)\n      swap3\n      swap1\n      swap3\n      and\n      swap2\n      swap1\n      swap2\n      or\n      swap1\n      sstore\n        /* \"@openzeppelin/contracts/proxy/ERC1967/ERC1967Utils.sol\":2186:2467  function _setImplementation(address newImplementation) private {... */\n      jump\t// out\n        /* \"@openzeppelin/contracts/utils/Address.sol\":4106:4359  function functionDelegateCall(address target, bytes memory data) internal returns (bytes memory) {... */\n    tag_364:\n        /* \"@openzeppelin/contracts/utils/Address.sol\":4189:4201  bytes memory */\n      0x60\n        /* \"@openzeppelin/contracts/utils/Address.sol\":4214:4226  bool success */\n      0x00\n        /* \"@openzeppelin/contracts/utils/Address.sol\":4228:4251  bytes memory returndata */\n      dup1\n        /* \"@openzeppelin/contracts/utils/Address.sol\":4255:4261  target */\n      dup5\n      sub(shl(0xa0, 0x01), 0x01)\n        /* \"@openzeppelin/contracts/utils/Address.sol\":4255:4274  target.delegatecall */\n      and\n        /* \"@openzeppelin/contracts/utils/Address.sol\":4275:4279  data */\n      dup5\n        /* \"@openzeppelin/contracts/utils/Address.sol\":4255:4280  target.delegatecall(data) */\n      mload(0x40)\n      tag_381\n      swap2\n      swap1\n      tag_382\n      jump\t// in\n    tag_381:\n      0x00\n      mload(0x40)\n      dup1\n      dup4\n      sub\n      dup2\n      dup6\n      gas\n      delegatecall\n      swap2\n      pop\n      pop\n      returndatasize\n      dup1\n      0x00\n      dup2\n      eq\n      tag_385\n      jumpi\n      mload(0x40)\n      swap2\n      pop\n      and(add(returndatasize, 0x3f), not(0x1f))\n      dup3\n      add\n      0x40\n      mstore\n      returndatasize\n      dup3\n      mstore\n      returndatasize\n      0x00\n      0x20\n      dup5\n      add\n      returndatacopy\n      jump(tag_384)\n    tag_385:\n      0x60\n      swap2\n      pop\n    tag_384:\n      pop\n        /* \"@openzeppelin/contracts/utils/Address.sol\":4213:4280  (bool success, bytes memory returndata) = target.delegatecall(data) */\n      swap2\n      pop\n      swap2\n      pop\n        /* \"@openzeppelin/contracts/utils/Address.sol\":4297:4352  verifyCallResultFromTarget(target, success, returndata) */\n      tag_386\n        /* \"@openzeppelin/contracts/utils/Address.sol\":4324:4330  target */\n      dup6\n        /* \"@openzeppelin/contracts/utils/Address.sol\":4332:4339  success */\n      dup4\n        /* \"@openzeppelin/contracts/utils/Address.sol\":4341:4351  returndata */\n      dup4\n        /* \"@openzeppelin/contracts/utils/Address.sol\":4297:4323  verifyCallResultFromTarget */\n      tag_387\n        /* \"@openzeppelin/contracts/utils/Address.sol\":4297:4352  verifyCallResultFromTarget(target, success, returndata) */\n      jump\t// in\n    tag_386:\n        /* \"@openzeppelin/contracts/utils/Address.sol\":4290:4352  return verifyCallResultFromTarget(target, success, returndata) */\n      swap6\n        /* \"@openzeppelin/contracts/utils/Address.sol\":4106:4359  function functionDelegateCall(address target, bytes memory data) internal returns (bytes memory) {... */\n      swap5\n      pop\n      pop\n      pop\n      pop\n      pop\n      jump\t// out\n        /* \"@openzeppelin/contracts/proxy/ERC1967/ERC1967Utils.sol\":6598:6720  function _checkNonPayable() private {... */\n    tag_367:\n        /* \"@openzeppelin/contracts/proxy/ERC1967/ERC1967Utils.sol\":6648:6657  msg.value */\n      callvalue\n        /* \"@openzeppelin/contracts/proxy/ERC1967/ERC1967Utils.sol\":6648:6661  msg.value > 0 */\n      iszero\n        /* \"@openzeppelin/contracts/proxy/ERC1967/ERC1967Utils.sol\":6644:6714  if (msg.value > 0) {... */\n      tag_294\n      jumpi\n        /* \"@openzeppelin/contracts/proxy/ERC1967/ERC1967Utils.sol\":6684:6703  ERC1967NonPayable() */\n      mload(0x40)\n      shl(0xe0, 0xb398979f)\n      dup2\n      mstore\n      0x04\n      add\n      mload(0x40)\n      dup1\n      swap2\n      sub\n      swap1\n      revert\n        /* \"@openzeppelin/contracts/utils/Address.sol\":4625:5207  function verifyCallResultFromTarget(... */\n    tag_387:\n        /* \"@openzeppelin/contracts/utils/Address.sol\":4769:4781  bytes memory */\n      0x60\n        /* \"@openzeppelin/contracts/utils/Address.sol\":4798:4805  success */\n      dup3\n        /* \"@openzeppelin/contracts/utils/Address.sol\":4793:5201  if (!success) {... */\n      tag_393\n      jumpi\n        /* \"@openzeppelin/contracts/utils/Address.sol\":4821:4840  _revert(returndata) */\n      tag_394\n        /* \"@openzeppelin/contracts/utils/Address.sol\":4829:4839  returndata */\n      dup3\n        /* \"@openzeppelin/contracts/utils/Address.sol\":4821:4828  _revert */\n      tag_395\n        /* \"@openzeppelin/contracts/utils/Address.sol\":4821:4840  _revert(returndata) */\n      jump\t// in\n    tag_394:\n        /* \"@openzeppelin/contracts/utils/Address.sol\":4793:5201  if (!success) {... */\n      jump(tag_396)\n    tag_393:\n        /* \"@openzeppelin/contracts/utils/Address.sol\":5045:5062  returndata.length */\n      dup2\n      mload\n        /* \"@openzeppelin/contracts/utils/Address.sol\":5045:5067  returndata.length == 0 */\n      iszero\n        /* \"@openzeppelin/contracts/utils/Address.sol\":5045:5094  returndata.length == 0 && target.code.length == 0 */\n      dup1\n      iszero\n      tag_397\n      jumpi\n      pop\n      sub(shl(0xa0, 0x01), 0x01)\n        /* \"@openzeppelin/contracts/utils/Address.sol\":5071:5089  target.code.length */\n      dup5\n      and\n      extcodesize\n        /* \"@openzeppelin/contracts/utils/Address.sol\":5071:5094  target.code.length == 0 */\n      iszero\n        /* \"@openzeppelin/contracts/utils/Address.sol\":5045:5094  returndata.length == 0 && target.code.length == 0 */\n    tag_397:\n        /* \"@openzeppelin/contracts/utils/Address.sol\":5041:5160  if (returndata.length == 0 && target.code.length == 0) {... */\n      iszero\n      tag_398\n      jumpi\n        /* \"@openzeppelin/contracts/utils/Address.sol\":5121:5145  AddressEmptyCode(target) */\n      mload(0x40)\n      shl(0xe0, 0x9996b315)\n      dup2\n      mstore\n      sub(shl(0xa0, 0x01), 0x01)\n        /* \"#utility.yul\":1813:1845   */\n      dup6\n      and\n        /* \"@openzeppelin/contracts/utils/Address.sol\":5121:5145  AddressEmptyCode(target) */\n      0x04\n      dup3\n      add\n        /* \"#utility.yul\":1795:1846   */\n      mstore\n        /* \"#utility.yul\":1768:1786   */\n      0x24\n      add\n        /* \"@openzeppelin/contracts/utils/Address.sol\":5121:5145  AddressEmptyCode(target) */\n      tag_149\n        /* \"#utility.yul\":1649:1852   */\n      jump\n        /* \"@openzeppelin/contracts/utils/Address.sol\":5041:5160  if (returndata.length == 0 && target.code.length == 0) {... */\n    tag_398:\n      pop\n        /* \"@openzeppelin/contracts/utils/Address.sol\":5180:5190  returndata */\n      dup1\n        /* \"@openzeppelin/contracts/utils/Address.sol\":4793:5201  if (!success) {... */\n    tag_396:\n        /* \"@openzeppelin/contracts/utils/Address.sol\":4625:5207  function verifyCallResultFromTarget(... */\n      swap4\n      swap3\n      pop\n      pop\n      pop\n      jump\t// out\n        /* \"@openzeppelin/contracts/utils/Address.sol\":5743:6259  function _revert(bytes memory returndata) private pure {... */\n    tag_395:\n        /* \"@openzeppelin/contracts/utils/Address.sol\":5874:5891  returndata.length */\n      dup1\n      mload\n        /* \"@openzeppelin/contracts/utils/Address.sol\":5874:5895  returndata.length > 0 */\n      iszero\n        /* \"@openzeppelin/contracts/utils/Address.sol\":5870:6253  if (returndata.length > 0) {... */\n      tag_401\n      jumpi\n        /* \"@openzeppelin/contracts/utils/Address.sol\":6102:6112  returndata */\n      dup1\n        /* \"@openzeppelin/contracts/utils/Address.sol\":6096:6113  mload(returndata) */\n      mload\n        /* \"@openzeppelin/contracts/utils/Address.sol\":6158:6173  returndata_size */\n      dup1\n        /* \"@openzeppelin/contracts/utils/Address.sol\":6145:6155  returndata */\n      dup3\n        /* \"@openzeppelin/contracts/utils/Address.sol\":6141:6143  32 */\n      0x20\n        /* \"@openzeppelin/contracts/utils/Address.sol\":6137:6156  add(32, returndata) */\n      add\n        /* \"@openzeppelin/contracts/utils/Address.sol\":6130:6174  revert(add(32, returndata), returndata_size) */\n      revert\n        /* \"@openzeppelin/contracts/utils/Address.sol\":5870:6253  if (returndata.length > 0) {... */\n    tag_401:\n        /* \"@openzeppelin/contracts/utils/Address.sol\":6225:6242  FailedInnerCall() */\n      mload(0x40)\n      shl(0xe1, 0x0a12f521)\n      dup2\n      mstore\n      0x04\n      add\n      mload(0x40)\n      dup1\n      swap2\n      sub\n      swap1\n      revert\n        /* \"#utility.yul\":14:300   */\n    tag_31:\n        /* \"#utility.yul\":72:78   */\n      0x00\n        /* \"#utility.yul\":125:127   */\n      0x20\n        /* \"#utility.yul\":113:122   */\n      dup3\n        /* \"#utility.yul\":104:111   */\n      dup5\n        /* \"#utility.yul\":100:123   */\n      sub\n        /* \"#utility.yul\":96:128   */\n      slt\n        /* \"#utility.yul\":93:145   */\n      iszero\n      tag_409\n      jumpi\n        /* \"#utility.yul\":141:142   */\n      0x00\n        /* \"#utility.yul\":138:139   */\n      dup1\n        /* \"#utility.yul\":131:143   */\n      revert\n        /* \"#utility.yul\":93:145   */\n    tag_409:\n        /* \"#utility.yul\":167:190   */\n      dup2\n      calldataload\n      not(sub(shl(0xe0, 0x01), 0x01))\n        /* \"#utility.yul\":219:251   */\n      dup2\n      and\n        /* \"#utility.yul\":209:252   */\n      dup2\n      eq\n        /* \"#utility.yul\":199:270   */\n      tag_396\n      jumpi\n        /* \"#utility.yul\":266:267   */\n      0x00\n        /* \"#utility.yul\":263:264   */\n      dup1\n        /* \"#utility.yul\":256:268   */\n      revert\n        /* \"#utility.yul\":497:723   */\n    tag_38:\n        /* \"#utility.yul\":556:562   */\n      0x00\n        /* \"#utility.yul\":609:611   */\n      0x20\n        /* \"#utility.yul\":597:606   */\n      dup3\n        /* \"#utility.yul\":588:595   */\n      dup5\n        /* \"#utility.yul\":584:607   */\n      sub\n        /* \"#utility.yul\":580:612   */\n      slt\n        /* \"#utility.yul\":577:629   */\n      iszero\n      tag_413\n      jumpi\n        /* \"#utility.yul\":625:626   */\n      0x00\n        /* \"#utility.yul\":622:623   */\n      dup1\n        /* \"#utility.yul\":615:627   */\n      revert\n        /* \"#utility.yul\":577:629   */\n    tag_413:\n      pop\n        /* \"#utility.yul\":670:693   */\n      calldataload\n      swap2\n        /* \"#utility.yul\":497:723   */\n      swap1\n      pop\n      jump\t// out\n        /* \"#utility.yul\":1141:1272   */\n    tag_403:\n      sub(shl(0xa0, 0x01), 0x01)\n        /* \"#utility.yul\":1216:1247   */\n      dup2\n      and\n        /* \"#utility.yul\":1206:1248   */\n      dup2\n      eq\n        /* \"#utility.yul\":1196:1266   */\n      tag_298\n      jumpi\n        /* \"#utility.yul\":1262:1263   */\n      0x00\n        /* \"#utility.yul\":1259:1260   */\n      dup1\n        /* \"#utility.yul\":1252:1264   */\n      revert\n        /* \"#utility.yul\":1277:1644   */\n    tag_50:\n        /* \"#utility.yul\":1345:1351   */\n      0x00\n        /* \"#utility.yul\":1353:1359   */\n      dup1\n        /* \"#utility.yul\":1406:1408   */\n      0x40\n        /* \"#utility.yul\":1394:1403   */\n      dup4\n        /* \"#utility.yul\":1385:1392   */\n      dup6\n        /* \"#utility.yul\":1381:1404   */\n      sub\n        /* \"#utility.yul\":1377:1409   */\n      slt\n        /* \"#utility.yul\":1374:1426   */\n      iszero\n      tag_420\n      jumpi\n        /* \"#utility.yul\":1422:1423   */\n      0x00\n        /* \"#utility.yul\":1419:1420   */\n      dup1\n        /* \"#utility.yul\":1412:1424   */\n      revert\n        /* \"#utility.yul\":1374:1426   */\n    tag_420:\n        /* \"#utility.yul\":1467:1490   */\n      dup3\n      calldataload\n      swap2\n      pop\n        /* \"#utility.yul\":1566:1568   */\n      0x20\n        /* \"#utility.yul\":1551:1569   */\n      dup4\n      add\n        /* \"#utility.yul\":1538:1570   */\n      calldataload\n        /* \"#utility.yul\":1579:1612   */\n      tag_421\n        /* \"#utility.yul\":1538:1570   */\n      dup2\n        /* \"#utility.yul\":1579:1612   */\n      tag_403\n      jump\t// in\n    tag_421:\n        /* \"#utility.yul\":1631:1638   */\n      dup1\n        /* \"#utility.yul\":1621:1638   */\n      swap2\n      pop\n      pop\n        /* \"#utility.yul\":1277:1644   */\n      swap3\n      pop\n      swap3\n      swap1\n      pop\n      jump\t// out\n        /* \"#utility.yul\":1857:1984   */\n    tag_404:\n        /* \"#utility.yul\":1918:1928   */\n      0x4e487b71\n        /* \"#utility.yul\":1913:1916   */\n      0xe0\n        /* \"#utility.yul\":1909:1929   */\n      shl\n        /* \"#utility.yul\":1906:1907   */\n      0x00\n        /* \"#utility.yul\":1899:1930   */\n      mstore\n        /* \"#utility.yul\":1949:1953   */\n      0x41\n        /* \"#utility.yul\":1946:1947   */\n      0x04\n        /* \"#utility.yul\":1939:1954   */\n      mstore\n        /* \"#utility.yul\":1973:1977   */\n      0x24\n        /* \"#utility.yul\":1970:1971   */\n      0x00\n        /* \"#utility.yul\":1963:1978   */\n      revert\n        /* \"#utility.yul\":1989:3068   */\n    tag_67:\n        /* \"#utility.yul\":2066:2072   */\n      0x00\n        /* \"#utility.yul\":2074:2080   */\n      dup1\n        /* \"#utility.yul\":2127:2129   */\n      0x40\n        /* \"#utility.yul\":2115:2124   */\n      dup4\n        /* \"#utility.yul\":2106:2113   */\n      dup6\n        /* \"#utility.yul\":2102:2125   */\n      sub\n        /* \"#utility.yul\":2098:2130   */\n      slt\n        /* \"#utility.yul\":2095:2147   */\n      iszero\n      tag_425\n      jumpi\n        /* \"#utility.yul\":2143:2144   */\n      0x00\n        /* \"#utility.yul\":2140:2141   */\n      dup1\n        /* \"#utility.yul\":2133:2145   */\n      revert\n        /* \"#utility.yul\":2095:2147   */\n    tag_425:\n        /* \"#utility.yul\":2182:2191   */\n      dup3\n        /* \"#utility.yul\":2169:2192   */\n      calldataload\n        /* \"#utility.yul\":2201:2232   */\n      tag_426\n        /* \"#utility.yul\":2226:2231   */\n      dup2\n        /* \"#utility.yul\":2201:2232   */\n      tag_403\n      jump\t// in\n    tag_426:\n        /* \"#utility.yul\":2251:2256   */\n      swap2\n      pop\n        /* \"#utility.yul\":2307:2309   */\n      0x20\n        /* \"#utility.yul\":2292:2310   */\n      dup4\n      add\n        /* \"#utility.yul\":2279:2311   */\n      calldataload\n        /* \"#utility.yul\":2334:2352   */\n      0xffffffffffffffff\n        /* \"#utility.yul\":2323:2353   */\n      dup2\n      gt\n        /* \"#utility.yul\":2320:2370   */\n      iszero\n      tag_427\n      jumpi\n        /* \"#utility.yul\":2366:2367   */\n      0x00\n        /* \"#utility.yul\":2363:2364   */\n      dup1\n        /* \"#utility.yul\":2356:2368   */\n      revert\n        /* \"#utility.yul\":2320:2370   */\n    tag_427:\n        /* \"#utility.yul\":2389:2411   */\n      dup4\n      add\n        /* \"#utility.yul\":2442:2446   */\n      0x1f\n        /* \"#utility.yul\":2434:2447   */\n      dup2\n      add\n        /* \"#utility.yul\":2430:2457   */\n      dup6\n      sgt\n        /* \"#utility.yul\":2420:2475   */\n      tag_428\n      jumpi\n        /* \"#utility.yul\":2471:2472   */\n      0x00\n        /* \"#utility.yul\":2468:2469   */\n      dup1\n        /* \"#utility.yul\":2461:2473   */\n      revert\n        /* \"#utility.yul\":2420:2475   */\n    tag_428:\n        /* \"#utility.yul\":2511:2513   */\n      dup1\n        /* \"#utility.yul\":2498:2514   */\n      calldataload\n        /* \"#utility.yul\":2537:2555   */\n      0xffffffffffffffff\n        /* \"#utility.yul\":2529:2535   */\n      dup2\n        /* \"#utility.yul\":2526:2556   */\n      gt\n        /* \"#utility.yul\":2523:2579   */\n      iszero\n      tag_430\n      jumpi\n        /* \"#utility.yul\":2559:2577   */\n      tag_430\n      tag_404\n      jump\t// in\n    tag_430:\n        /* \"#utility.yul\":2608:2610   */\n      0x40\n        /* \"#utility.yul\":2602:2611   */\n      mload\n        /* \"#utility.yul\":2700:2702   */\n      0x1f\n        /* \"#utility.yul\":2662:2679   */\n      dup3\n      add\n      not(0x1f)\n        /* \"#utility.yul\":2658:2689   */\n      swap1\n      dup2\n      and\n        /* \"#utility.yul\":2691:2693   */\n      0x3f\n        /* \"#utility.yul\":2654:2694   */\n      add\n        /* \"#utility.yul\":2650:2704   */\n      and\n        /* \"#utility.yul\":2638:2705   */\n      dup2\n      add\n        /* \"#utility.yul\":2735:2753   */\n      0xffffffffffffffff\n        /* \"#utility.yul\":2720:2754   */\n      dup2\n      gt\n        /* \"#utility.yul\":2756:2778   */\n      dup3\n      dup3\n      lt\n        /* \"#utility.yul\":2717:2779   */\n      or\n        /* \"#utility.yul\":2714:2802   */\n      iszero\n      tag_432\n      jumpi\n        /* \"#utility.yul\":2782:2800   */\n      tag_432\n      tag_404\n      jump\t// in\n    tag_432:\n        /* \"#utility.yul\":2818:2820   */\n      0x40\n        /* \"#utility.yul\":2811:2833   */\n      mstore\n        /* \"#utility.yul\":2842:2864   */\n      dup2\n      dup2\n      mstore\n        /* \"#utility.yul\":2883:2898   */\n      dup3\n      dup3\n      add\n        /* \"#utility.yul\":2900:2902   */\n      0x20\n        /* \"#utility.yul\":2879:2903   */\n      add\n        /* \"#utility.yul\":2876:2913   */\n      dup8\n      lt\n        /* \"#utility.yul\":2873:2930   */\n      iszero\n      tag_433\n      jumpi\n        /* \"#utility.yul\":2926:2927   */\n      0x00\n        /* \"#utility.yul\":2923:2924   */\n      dup1\n        /* \"#utility.yul\":2916:2928   */\n      revert\n        /* \"#utility.yul\":2873:2930   */\n    tag_433:\n        /* \"#utility.yul\":2982:2988   */\n      dup2\n        /* \"#utility.yul\":2977:2979   */\n      0x20\n        /* \"#utility.yul\":2973:2975   */\n      dup5\n        /* \"#utility.yul\":2969:2980   */\n      add\n        /* \"#utility.yul\":2964:2966   */\n      0x20\n        /* \"#utility.yul\":2956:2962   */\n      dup4\n        /* \"#utility.yul\":2952:2967   */\n      add\n        /* \"#utility.yul\":2939:2989   */\n      calldatacopy\n        /* \"#utility.yul\":3035:3036   */\n      0x00\n        /* \"#utility.yul\":3030:3032   */\n      0x20\n        /* \"#utility.yul\":3021:3027   */\n      dup4\n        /* \"#utility.yul\":3013:3019   */\n      dup4\n        /* \"#utility.yul\":3009:3028   */\n      add\n        /* \"#utility.yul\":3005:3033   */\n      add\n        /* \"#utility.yul\":2998:3037   */\n      mstore\n        /* \"#utility.yul\":3056:3062   */\n      dup1\n        /* \"#utility.yul\":3046:3062   */\n      swap4\n      pop\n      pop\n      pop\n      pop\n        /* \"#utility.yul\":1989:3068   */\n      swap3\n      pop\n      swap3\n      swap1\n      pop\n      jump\t// out\n        /* \"#utility.yul\":3073:3419   */\n    tag_80:\n        /* \"#utility.yul\":3141:3147   */\n      0x00\n        /* \"#utility.yul\":3149:3155   */\n      dup1\n        /* \"#utility.yul\":3202:3204   */\n      0x40\n        /* \"#utility.yul\":3190:3199   */\n      dup4\n        /* \"#utility.yul\":3181:3188   */\n      dup6\n        /* \"#utility.yul\":3177:3200   */\n      sub\n        /* \"#utility.yul\":3173:3205   */\n      slt\n        /* \"#utility.yul\":3170:3222   */\n      iszero\n      tag_435\n      jumpi\n        /* \"#utility.yul\":3218:3219   */\n      0x00\n        /* \"#utility.yul\":3215:3216   */\n      dup1\n        /* \"#utility.yul\":3208:3220   */\n      revert\n        /* \"#utility.yul\":3170:3222   */\n    tag_435:\n      pop\n      pop\n        /* \"#utility.yul\":3263:3286   */\n      dup1\n      calldataload\n      swap3\n        /* \"#utility.yul\":3383:3385   */\n      0x20\n        /* \"#utility.yul\":3368:3386   */\n      swap1\n      swap2\n      add\n        /* \"#utility.yul\":3355:3387   */\n      calldataload\n      swap2\n      pop\n        /* \"#utility.yul\":3073:3419   */\n      jump\t// out\n        /* \"#utility.yul\":3606:4377   */\n    tag_107:\n        /* \"#utility.yul\":3701:3707   */\n      0x00\n        /* \"#utility.yul\":3709:3715   */\n      dup1\n        /* \"#utility.yul\":3717:3723   */\n      0x00\n        /* \"#utility.yul\":3725:3731   */\n      dup1\n        /* \"#utility.yul\":3733:3739   */\n      0x00\n        /* \"#utility.yul\":3786:3789   */\n      0xa0\n        /* \"#utility.yul\":3774:3783   */\n      dup7\n        /* \"#utility.yul\":3765:3772   */\n      dup9\n        /* \"#utility.yul\":3761:3784   */\n      sub\n        /* \"#utility.yul\":3757:3790   */\n      slt\n        /* \"#utility.yul\":3754:3807   */\n      iszero\n      tag_438\n      jumpi\n        /* \"#utility.yul\":3803:3804   */\n      0x00\n        /* \"#utility.yul\":3800:3801   */\n      dup1\n        /* \"#utility.yul\":3793:3805   */\n      revert\n        /* \"#utility.yul\":3754:3807   */\n    tag_438:\n        /* \"#utility.yul\":3842:3851   */\n      dup6\n        /* \"#utility.yul\":3829:3852   */\n      calldataload\n        /* \"#utility.yul\":3861:3892   */\n      tag_439\n        /* \"#utility.yul\":3886:3891   */\n      dup2\n        /* \"#utility.yul\":3861:3892   */\n      tag_403\n      jump\t// in\n    tag_439:\n        /* \"#utility.yul\":3911:3916   */\n      swap5\n      pop\n        /* \"#utility.yul\":3968:3970   */\n      0x20\n        /* \"#utility.yul\":3953:3971   */\n      dup7\n      add\n        /* \"#utility.yul\":3940:3972   */\n      calldataload\n        /* \"#utility.yul\":3981:4014   */\n      tag_440\n        /* \"#utility.yul\":3940:3972   */\n      dup2\n        /* \"#utility.yul\":3981:4014   */\n      tag_403\n      jump\t// in\n    tag_440:\n        /* \"#utility.yul\":4033:4040   */\n      swap4\n      pop\n        /* \"#utility.yul\":4092:4094   */\n      0x40\n        /* \"#utility.yul\":4077:4095   */\n      dup7\n      add\n        /* \"#utility.yul\":4064:4096   */\n      calldataload\n        /* \"#utility.yul\":4105:4138   */\n      tag_441\n        /* \"#utility.yul\":4064:4096   */\n      dup2\n        /* \"#utility.yul\":4105:4138   */\n      tag_403\n      jump\t// in\n    tag_441:\n        /* \"#utility.yul\":3606:4377   */\n      swap5\n      swap8\n      swap4\n      swap7\n      pop\n        /* \"#utility.yul\":4157:4164   */\n      swap4\n      swap5\n        /* \"#utility.yul\":4237:4239   */\n      0x60\n        /* \"#utility.yul\":4222:4240   */\n      dup2\n      add\n        /* \"#utility.yul\":4209:4241   */\n      calldataload\n      swap5\n      pop\n        /* \"#utility.yul\":4340:4343   */\n      0x80\n        /* \"#utility.yul\":4325:4344   */\n      add\n        /* \"#utility.yul\":4312:4345   */\n      calldataload\n      swap3\n        /* \"#utility.yul\":3606:4377   */\n      swap2\n      pop\n      pop\n      jump\t// out\n        /* \"#utility.yul\":4382:4800   */\n    tag_113:\n        /* \"#utility.yul\":4531:4533   */\n      0x20\n        /* \"#utility.yul\":4520:4529   */\n      dup2\n        /* \"#utility.yul\":4513:4534   */\n      mstore\n        /* \"#utility.yul\":4494:4498   */\n      0x00\n        /* \"#utility.yul\":4563:4569   */\n      dup3\n        /* \"#utility.yul\":4557:4570   */\n      mload\n        /* \"#utility.yul\":4606:4612   */\n      dup1\n        /* \"#utility.yul\":4601:4603   */\n      0x20\n        /* \"#utility.yul\":4590:4599   */\n      dup5\n        /* \"#utility.yul\":4586:4604   */\n      add\n        /* \"#utility.yul\":4579:4613   */\n      mstore\n        /* \"#utility.yul\":4665:4671   */\n      dup1\n        /* \"#utility.yul\":4660:4662   */\n      0x20\n        /* \"#utility.yul\":4652:4658   */\n      dup6\n        /* \"#utility.yul\":4648:4663   */\n      add\n        /* \"#utility.yul\":4643:4645   */\n      0x40\n        /* \"#utility.yul\":4632:4641   */\n      dup6\n        /* \"#utility.yul\":4628:4646   */\n      add\n        /* \"#utility.yul\":4622:4672   */\n      mcopy\n        /* \"#utility.yul\":4721:4722   */\n      0x00\n        /* \"#utility.yul\":4716:4718   */\n      0x40\n        /* \"#utility.yul\":4707:4713   */\n      dup3\n        /* \"#utility.yul\":4696:4705   */\n      dup6\n        /* \"#utility.yul\":4692:4714   */\n      add\n        /* \"#utility.yul\":4688:4719   */\n      add\n        /* \"#utility.yul\":4681:4723   */\n      mstore\n        /* \"#utility.yul\":4791:4793   */\n      0x40\n        /* \"#utility.yul\":4784:4786   */\n      0x1f\n        /* \"#utility.yul\":4780:4787   */\n      not\n        /* \"#utility.yul\":4775:4777   */\n      0x1f\n        /* \"#utility.yul\":4767:4773   */\n      dup4\n        /* \"#utility.yul\":4763:4778   */\n      add\n        /* \"#utility.yul\":4759:4788   */\n      and\n        /* \"#utility.yul\":4748:4757   */\n      dup5\n        /* \"#utility.yul\":4744:4789   */\n      add\n        /* \"#utility.yul\":4740:4794   */\n      add\n        /* \"#utility.yul\":4732:4794   */\n      swap2\n      pop\n      pop\n        /* \"#utility.yul\":4382:4800   */\n      swap3\n      swap2\n      pop\n      pop\n      jump\t// out\n        /* \"#utility.yul\":4805:5172   */\n    tag_405:\n        /* \"#utility.yul\":4868:4876   */\n      0x00\n        /* \"#utility.yul\":4878:4884   */\n      dup1\n        /* \"#utility.yul\":4932:4935   */\n      dup4\n        /* \"#utility.yul\":4925:4929   */\n      0x1f\n        /* \"#utility.yul\":4917:4923   */\n      dup5\n        /* \"#utility.yul\":4913:4930   */\n      add\n        /* \"#utility.yul\":4909:4936   */\n      slt\n        /* \"#utility.yul\":4899:4954   */\n      tag_444\n      jumpi\n        /* \"#utility.yul\":4950:4951   */\n      0x00\n        /* \"#utility.yul\":4947:4948   */\n      dup1\n        /* \"#utility.yul\":4940:4952   */\n      revert\n        /* \"#utility.yul\":4899:4954   */\n    tag_444:\n      pop\n        /* \"#utility.yul\":4973:4993   */\n      dup2\n      calldataload\n        /* \"#utility.yul\":5016:5034   */\n      0xffffffffffffffff\n        /* \"#utility.yul\":5005:5035   */\n      dup2\n      gt\n        /* \"#utility.yul\":5002:5052   */\n      iszero\n      tag_445\n      jumpi\n        /* \"#utility.yul\":5048:5049   */\n      0x00\n        /* \"#utility.yul\":5045:5046   */\n      dup1\n        /* \"#utility.yul\":5038:5050   */\n      revert\n        /* \"#utility.yul\":5002:5052   */\n    tag_445:\n        /* \"#utility.yul\":5085:5089   */\n      0x20\n        /* \"#utility.yul\":5077:5083   */\n      dup4\n        /* \"#utility.yul\":5073:5090   */\n      add\n        /* \"#utility.yul\":5061:5090   */\n      swap2\n      pop\n        /* \"#utility.yul\":5145:5148   */\n      dup4\n        /* \"#utility.yul\":5138:5142   */\n      0x20\n        /* \"#utility.yul\":5128:5134   */\n      dup3\n        /* \"#utility.yul\":5125:5126   */\n      0x05\n        /* \"#utility.yul\":5121:5135   */\n      shl\n        /* \"#utility.yul\":5113:5119   */\n      dup6\n        /* \"#utility.yul\":5109:5136   */\n      add\n        /* \"#utility.yul\":5105:5143   */\n      add\n        /* \"#utility.yul\":5102:5149   */\n      gt\n        /* \"#utility.yul\":5099:5166   */\n      iszero\n      tag_446\n      jumpi\n        /* \"#utility.yul\":5162:5163   */\n      0x00\n        /* \"#utility.yul\":5159:5160   */\n      dup1\n        /* \"#utility.yul\":5152:5164   */\n      revert\n        /* \"#utility.yul\":5099:5166   */\n    tag_446:\n        /* \"#utility.yul\":4805:5172   */\n      swap3\n      pop\n      swap3\n      swap1\n      pop\n      jump\t// out\n        /* \"#utility.yul\":5177:5945   */\n    tag_117:\n        /* \"#utility.yul\":5299:5305   */\n      0x00\n        /* \"#utility.yul\":5307:5313   */\n      dup1\n        /* \"#utility.yul\":5315:5321   */\n      0x00\n        /* \"#utility.yul\":5323:5329   */\n      dup1\n        /* \"#utility.yul\":5376:5378   */\n      0x40\n        /* \"#utility.yul\":5364:5373   */\n      dup6\n        /* \"#utility.yul\":5355:5362   */\n      dup8\n        /* \"#utility.yul\":5351:5374   */\n      sub\n        /* \"#utility.yul\":5347:5379   */\n      slt\n        /* \"#utility.yul\":5344:5396   */\n      iszero\n      tag_448\n      jumpi\n        /* \"#utility.yul\":5392:5393   */\n      0x00\n        /* \"#utility.yul\":5389:5390   */\n      dup1\n        /* \"#utility.yul\":5382:5394   */\n      revert\n        /* \"#utility.yul\":5344:5396   */\n    tag_448:\n        /* \"#utility.yul\":5432:5441   */\n      dup5\n        /* \"#utility.yul\":5419:5442   */\n      calldataload\n        /* \"#utility.yul\":5465:5483   */\n      0xffffffffffffffff\n        /* \"#utility.yul\":5457:5463   */\n      dup2\n        /* \"#utility.yul\":5454:5484   */\n      gt\n        /* \"#utility.yul\":5451:5501   */\n      iszero\n      tag_449\n      jumpi\n        /* \"#utility.yul\":5497:5498   */\n      0x00\n        /* \"#utility.yul\":5494:5495   */\n      dup1\n        /* \"#utility.yul\":5487:5499   */\n      revert\n        /* \"#utility.yul\":5451:5501   */\n    tag_449:\n        /* \"#utility.yul\":5536:5606   */\n      tag_450\n        /* \"#utility.yul\":5598:5605   */\n      dup8\n        /* \"#utility.yul\":5589:5595   */\n      dup3\n        /* \"#utility.yul\":5578:5587   */\n      dup9\n        /* \"#utility.yul\":5574:5596   */\n      add\n        /* \"#utility.yul\":5536:5606   */\n      tag_405\n      jump\t// in\n    tag_450:\n        /* \"#utility.yul\":5625:5633   */\n      swap1\n      swap6\n      pop\n        /* \"#utility.yul\":5510:5606   */\n      swap4\n      pop\n      pop\n        /* \"#utility.yul\":5713:5715   */\n      0x20\n        /* \"#utility.yul\":5698:5716   */\n      dup6\n      add\n        /* \"#utility.yul\":5685:5717   */\n      calldataload\n        /* \"#utility.yul\":5742:5760   */\n      0xffffffffffffffff\n        /* \"#utility.yul\":5729:5761   */\n      dup2\n      gt\n        /* \"#utility.yul\":5726:5778   */\n      iszero\n      tag_451\n      jumpi\n        /* \"#utility.yul\":5774:5775   */\n      0x00\n        /* \"#utility.yul\":5771:5772   */\n      dup1\n        /* \"#utility.yul\":5764:5776   */\n      revert\n        /* \"#utility.yul\":5726:5778   */\n    tag_451:\n        /* \"#utility.yul\":5813:5885   */\n      tag_452\n        /* \"#utility.yul\":5877:5884   */\n      dup8\n        /* \"#utility.yul\":5866:5874   */\n      dup3\n        /* \"#utility.yul\":5855:5864   */\n      dup9\n        /* \"#utility.yul\":5851:5875   */\n      add\n        /* \"#utility.yul\":5813:5885   */\n      tag_405\n      jump\t// in\n    tag_452:\n        /* \"#utility.yul\":5177:5945   */\n      swap6\n      swap9\n      swap5\n      swap8\n      pop\n        /* \"#utility.yul\":5904:5912   */\n      swap6\n      pop\n      pop\n      pop\n      pop\n        /* \"#utility.yul\":5177:5945   */\n      jump\t// out\n        /* \"#utility.yul\":7222:7349   */\n    tag_406:\n        /* \"#utility.yul\":7283:7293   */\n      0x4e487b71\n        /* \"#utility.yul\":7278:7281   */\n      0xe0\n        /* \"#utility.yul\":7274:7294   */\n      shl\n        /* \"#utility.yul\":7271:7272   */\n      0x00\n        /* \"#utility.yul\":7264:7295   */\n      mstore\n        /* \"#utility.yul\":7314:7318   */\n      0x11\n        /* \"#utility.yul\":7311:7312   */\n      0x04\n        /* \"#utility.yul\":7304:7319   */\n      mstore\n        /* \"#utility.yul\":7338:7342   */\n      0x24\n        /* \"#utility.yul\":7335:7336   */\n      0x00\n        /* \"#utility.yul\":7328:7343   */\n      revert\n        /* \"#utility.yul\":7354:7482   */\n    tag_155:\n        /* \"#utility.yul\":7421:7430   */\n      dup2\n      dup2\n      sub\n        /* \"#utility.yul\":7442:7453   */\n      dup2\n      dup2\n      gt\n        /* \"#utility.yul\":7439:7476   */\n      iszero\n      tag_139\n      jumpi\n        /* \"#utility.yul\":7456:7474   */\n      tag_139\n      tag_406\n      jump\t// in\n        /* \"#utility.yul\":7838:8006   */\n    tag_160:\n        /* \"#utility.yul\":7911:7920   */\n      dup1\n      dup3\n      mul\n        /* \"#utility.yul\":7942:7951   */\n      dup2\n      iszero\n        /* \"#utility.yul\":7959:7974   */\n      dup3\n      dup3\n      div\n        /* \"#utility.yul\":7953:7975   */\n      dup5\n      eq\n        /* \"#utility.yul\":7939:7976   */\n      or\n        /* \"#utility.yul\":7929:8000   */\n      tag_139\n      jumpi\n        /* \"#utility.yul\":7980:7998   */\n      tag_139\n      tag_406\n      jump\t// in\n        /* \"#utility.yul\":8011:8228   */\n    tag_163:\n        /* \"#utility.yul\":8051:8052   */\n      0x00\n        /* \"#utility.yul\":8077:8078   */\n      dup3\n        /* \"#utility.yul\":8067:8199   */\n      tag_465\n      jumpi\n        /* \"#utility.yul\":8121:8131   */\n      0x4e487b71\n        /* \"#utility.yul\":8116:8119   */\n      0xe0\n        /* \"#utility.yul\":8112:8132   */\n      shl\n        /* \"#utility.yul\":8109:8110   */\n      0x00\n        /* \"#utility.yul\":8102:8133   */\n      mstore\n        /* \"#utility.yul\":8156:8160   */\n      0x12\n        /* \"#utility.yul\":8153:8154   */\n      0x04\n        /* \"#utility.yul\":8146:8161   */\n      mstore\n        /* \"#utility.yul\":8184:8188   */\n      0x24\n        /* \"#utility.yul\":8181:8182   */\n      0x00\n        /* \"#utility.yul\":8174:8189   */\n      revert\n        /* \"#utility.yul\":8067:8199   */\n    tag_465:\n      pop\n        /* \"#utility.yul\":8213:8222   */\n      div\n      swap1\n        /* \"#utility.yul\":8011:8228   */\n      jump\t// out\n        /* \"#utility.yul\":8512:8789   */\n    tag_169:\n        /* \"#utility.yul\":8579:8585   */\n      0x00\n        /* \"#utility.yul\":8632:8634   */\n      0x20\n        /* \"#utility.yul\":8620:8629   */\n      dup3\n        /* \"#utility.yul\":8611:8618   */\n      dup5\n        /* \"#utility.yul\":8607:8630   */\n      sub\n        /* \"#utility.yul\":8603:8635   */\n      slt\n        /* \"#utility.yul\":8600:8652   */\n      iszero\n      tag_468\n      jumpi\n        /* \"#utility.yul\":8648:8649   */\n      0x00\n        /* \"#utility.yul\":8645:8646   */\n      dup1\n        /* \"#utility.yul\":8638:8650   */\n      revert\n        /* \"#utility.yul\":8600:8652   */\n    tag_468:\n        /* \"#utility.yul\":8680:8689   */\n      dup2\n        /* \"#utility.yul\":8674:8690   */\n      mload\n        /* \"#utility.yul\":8733:8738   */\n      dup1\n        /* \"#utility.yul\":8726:8739   */\n      iszero\n        /* \"#utility.yul\":8719:8740   */\n      iszero\n        /* \"#utility.yul\":8712:8717   */\n      dup2\n        /* \"#utility.yul\":8709:8741   */\n      eq\n        /* \"#utility.yul\":8699:8759   */\n      tag_396\n      jumpi\n        /* \"#utility.yul\":8755:8756   */\n      0x00\n        /* \"#utility.yul\":8752:8753   */\n      dup1\n        /* \"#utility.yul\":8745:8757   */\n      revert\n        /* \"#utility.yul\":8794:9045   */\n    tag_174:\n        /* \"#utility.yul\":8864:8870   */\n      0x00\n        /* \"#utility.yul\":8917:8919   */\n      0x20\n        /* \"#utility.yul\":8905:8914   */\n      dup3\n        /* \"#utility.yul\":8896:8903   */\n      dup5\n        /* \"#utility.yul\":8892:8915   */\n      sub\n        /* \"#utility.yul\":8888:8920   */\n      slt\n        /* \"#utility.yul\":8885:8937   */\n      iszero\n      tag_471\n      jumpi\n        /* \"#utility.yul\":8933:8934   */\n      0x00\n        /* \"#utility.yul\":8930:8931   */\n      dup1\n        /* \"#utility.yul\":8923:8935   */\n      revert\n        /* \"#utility.yul\":8885:8937   */\n    tag_471:\n        /* \"#utility.yul\":8965:8974   */\n      dup2\n        /* \"#utility.yul\":8959:8975   */\n      mload\n        /* \"#utility.yul\":8984:9015   */\n      tag_396\n        /* \"#utility.yul\":9009:9014   */\n      dup2\n        /* \"#utility.yul\":8984:9015   */\n      tag_403\n      jump\t// in\n        /* \"#utility.yul\":9426:10057   */\n    tag_183:\n      sub(shl(0xa0, 0x01), 0x01)\n        /* \"#utility.yul\":9747:9779   */\n      swap5\n      dup6\n      and\n        /* \"#utility.yul\":9729:9780   */\n      dup2\n      mstore\n        /* \"#utility.yul\":9816:9848   */\n      swap3\n      swap1\n      swap4\n      and\n        /* \"#utility.yul\":9811:9813   */\n      0x20\n        /* \"#utility.yul\":9796:9814   */\n      dup4\n      add\n        /* \"#utility.yul\":9789:9849   */\n      mstore\n        /* \"#utility.yul\":9880:9882   */\n      0x40\n        /* \"#utility.yul\":9865:9883   */\n      dup3\n      add\n        /* \"#utility.yul\":9858:9892   */\n      mstore\n        /* \"#utility.yul\":9923:9925   */\n      0x60\n        /* \"#utility.yul\":9908:9926   */\n      dup2\n      add\n        /* \"#utility.yul\":9901:9935   */\n      swap2\n      swap1\n      swap2\n      mstore\n        /* \"#utility.yul\":9767:9770   */\n      0xa0\n        /* \"#utility.yul\":9966:9969   */\n      0x80\n        /* \"#utility.yul\":9951:9970   */\n      dup3\n      add\n        /* \"#utility.yul\":9944:9976   */\n      dup2\n      swap1\n      mstore\n      0x00\n        /* \"#utility.yul\":9992:10011   */\n      swap1\n      dup3\n      add\n        /* \"#utility.yul\":9985:10015   */\n      mstore\n        /* \"#utility.yul\":10047:10050   */\n      0xc0\n        /* \"#utility.yul\":10032:10051   */\n      add\n      swap1\n        /* \"#utility.yul\":9426:10057   */\n      jump\t// out\n        /* \"#utility.yul\":10484:10668   */\n    tag_227:\n        /* \"#utility.yul\":10554:10560   */\n      0x00\n        /* \"#utility.yul\":10607:10609   */\n      0x20\n        /* \"#utility.yul\":10595:10604   */\n      dup3\n        /* \"#utility.yul\":10586:10593   */\n      dup5\n        /* \"#utility.yul\":10582:10605   */\n      sub\n        /* \"#utility.yul\":10578:10610   */\n      slt\n        /* \"#utility.yul\":10575:10627   */\n      iszero\n      tag_477\n      jumpi\n        /* \"#utility.yul\":10623:10624   */\n      0x00\n        /* \"#utility.yul\":10620:10621   */\n      dup1\n        /* \"#utility.yul\":10613:10625   */\n      revert\n        /* \"#utility.yul\":10575:10627   */\n    tag_477:\n      pop\n        /* \"#utility.yul\":10646:10662   */\n      mload\n      swap2\n        /* \"#utility.yul\":10484:10668   */\n      swap1\n      pop\n      jump\t// out\n        /* \"#utility.yul\":12348:12475   */\n    tag_282:\n        /* \"#utility.yul\":12409:12419   */\n      0x4e487b71\n        /* \"#utility.yul\":12404:12407   */\n      0xe0\n        /* \"#utility.yul\":12400:12420   */\n      shl\n        /* \"#utility.yul\":12397:12398   */\n      0x00\n        /* \"#utility.yul\":12390:12421   */\n      mstore\n        /* \"#utility.yul\":12440:12444   */\n      0x32\n        /* \"#utility.yul\":12437:12438   */\n      0x04\n        /* \"#utility.yul\":12430:12445   */\n      mstore\n        /* \"#utility.yul\":12464:12468   */\n      0x24\n        /* \"#utility.yul\":12461:12462   */\n      0x00\n        /* \"#utility.yul\":12454:12469   */\n      revert\n        /* \"#utility.yul\":13293:13594   */\n    tag_382:\n        /* \"#utility.yul\":13422:13425   */\n      0x00\n        /* \"#utility.yul\":13460:13466   */\n      dup3\n        /* \"#utility.yul\":13454:13467   */\n      mload\n        /* \"#utility.yul\":13506:13512   */\n      dup1\n        /* \"#utility.yul\":13499:13503   */\n      0x20\n        /* \"#utility.yul\":13491:13497   */\n      dup6\n        /* \"#utility.yul\":13487:13504   */\n      add\n        /* \"#utility.yul\":13482:13485   */\n      dup5\n        /* \"#utility.yul\":13476:13513   */\n      mcopy\n        /* \"#utility.yul\":13568:13569   */\n      0x00\n        /* \"#utility.yul\":13532:13548   */\n      swap3\n      add\n        /* \"#utility.yul\":13557:13570   */\n      swap2\n      dup3\n      mstore\n      pop\n        /* \"#utility.yul\":13532:13548   */\n      swap2\n        /* \"#utility.yul\":13293:13594   */\n      swap1\n      pop\n      jump\t// out\n    stop\n    data_75b20eef8615de99c108b05f0dbda081c91897128caa336d75dffb97c4132b4d 360894a13ba1a3210667c828492db98dca3e2076cc3735a920a3ca505d382bbc\n    data_b3da67d1b252aeab7c8063542d95e75f82a5307a82535949bc38f7cf7ba8897f 02dd7bc7dec4dceedda775e58dd541e08a116c6c53815c0bd028192f7b626800\n\n    auxdata: 0xa264697066735822122093b9a88d1b3827e35df39db0c4f5f0b1503195780818a3a84e007496b58530ea64736f6c634300081a0033\n}\n",
				"bytecode": {
					"linkReferences": {},
					"object": "60a060405230608052348015610013575f80fd5b5061001e5f3361007a565b506100497f65d7a28e3265b37a6474929f336521b332c1681b933f6cb9f3376673440d862a3361007a565b506100747f189ab7a9244df0848122154315af71fe140f3db0fe014031783b0946b8c9d2e33361007a565b50610148565b5f8281527f02dd7bc7dec4dceedda775e58dd541e08a116c6c53815c0bd028192f7b626800602081815260408084206001600160a01b038616855290915282205460ff1661013d575f848152602082815260408083206001600160a01b03871684529091529020805460ff191660011790556100f33390565b6001600160a01b0316836001600160a01b0316857f2f8788117e7eff1d82e926ec794901d17c78024a50270940304540a733656f0d60405160405180910390a46001915050610142565b5f9150505b92915050565b60805161198261016e5f395f81816110fd01528181611126015261128701526119825ff3fe60806040526004361061013c575f3560e01c80637b0a47ee116100b3578063ad3cb1cc1161006d578063ad3cb1cc1461034c578063d0f7d24f14610389578063d547741f146103a8578063d5a44f86146103c7578063e63ab1e914610454578063f72c0d8b14610487575f80fd5b80637b0a47ee146102b25780637ebed54c146102c75780638172885b146102dc57806391d14854146102fb578063a217fddf1461031a578063a6b63eb81461032d575f80fd5b806336568abe1161010457806336568abe146102185780634d9a824d146102375780634f1ef2861461025657806352d1902d146102695780635c975abb1461027d5780637b0472f014610293575f80fd5b806301ffc9a714610140578063248a9ca3146101745780632e17de78146101a15780632f2ff15d146101c257806334aab064146101e1575b5f80fd5b34801561014b575f80fd5b5061015f61015a366004611543565b6104ba565b60405190151581526020015b60405180910390f35b34801561017f575f80fd5b5061019361018e36600461156a565b6104f0565b60405190815260200161016b565b3480156101ac575f80fd5b506101c06101bb36600461156a565b610510565b005b3480156101cd575f80fd5b506101c06101dc366004611595565b6108e5565b3480156101ec575f80fd5b50603354610200906001600160a01b031681565b6040516001600160a01b03909116815260200161016b565b348015610223575f80fd5b506101c0610232366004611595565b610907565b348015610242575f80fd5b50603454610200906001600160a01b031681565b6101c06102643660046115d7565b61093f565b348015610274575f80fd5b5061019361095e565b348015610288575f80fd5b505f5460ff1661015f565b34801561029e575f80fd5b506101c06102ad36600461169d565b610979565b3480156102bd575f80fd5b5061019360365481565b3480156102d2575f80fd5b5061019360375481565b3480156102e7575f80fd5b50603554610200906001600160a01b031681565b348015610306575f80fd5b5061015f610315366004611595565b610d11565b348015610325575f80fd5b506101935f81565b348015610338575f80fd5b506101c06103473660046116bd565b610d47565b348015610357575f80fd5b5061037c604051806040016040528060058152602001640352e302e360dc1b81525081565b60405161016b9190611714565b348015610394575f80fd5b506101c06103a3366004611791565b610eaf565b3480156103b3575f80fd5b506101c06103c2366004611595565b610f68565b3480156103d2575f80fd5b5061041f6103e136600461156a565b60326020525f908152604090208054600182015460028301546003840154600485015460059095015493946001600160a01b03909316939192909186565b604080519687526001600160a01b039095166020870152938501929092526060840152608083015260a082015260c00161016b565b34801561045f575f80fd5b506101937f65d7a28e3265b37a6474929f336521b332c1681b933f6cb9f3376673440d862a81565b348015610492575f80fd5b506101937f189ab7a9244df0848122154315af71fe140f3db0fe014031783b0946b8c9d2e381565b5f6001600160e01b03198216637965db0b60e01b14806104ea57506301ffc9a760e01b6001600160e01b03198316145b92915050565b5f9081525f8051602061192d833981519152602052604090206001015490565b610518610f84565b5f818152603260205260409020600101546001600160a01b031633146105855760405162461bcd60e51b815260206004820152601a60248201527f4e6f7420746865206f776e6572206f6620746865207374616b6500000000000060448201526064015b60405180910390fd5b5f81815260326020526040902060030154156105dc5760405162461bcd60e51b8152602060048201526016602482015275151bdad95b88185b1c9958591e481d5b9cdd185ad95960521b604482015260640161057c565b5f818152603260205260408120600201546105f79042611811565b90506037548110156106445760405162461bcd60e51b815260206004820152601660248201527514dd185ada5b99c81c195c9a5bd9081b9bdd081b595d60521b604482015260640161057c565b5f82815260326020526040902042600382015560050154603654670de0b6b3a764000091906106739084611824565b61067d9190611824565b610687919061183b565b5f83815260326020526040908190206004908101839055603354915163a9059cbb60e01b8152339181019190915260248101929092526001600160a01b03169063a9059cbb906044016020604051808303815f875af11580156106ec573d5f803e3d5ffd5b505050506040513d601f19601f82011682018060405250810190610710919061185a565b506034546040516331a9108f60e11b81526004810184905230916001600160a01b031690636352211e90602401602060405180830381865afa158015610758573d5f803e3d5ffd5b505050506040513d601f19601f8201168201806040525081019061077c9190611879565b6001600160a01b0316036107f4576034546040516323b872dd60e01b8152306004820152336024820152604481018490526001600160a01b03909116906323b872dd906064015f604051808303815f87803b1580156107d9575f80fd5b505af11580156107eb573d5f803e3d5ffd5b50505050610859565b603554604051637921219560e11b81526001600160a01b039091169063f242432a9061082b90309033908790600190600401611894565b5f604051808303815f87803b158015610842575f80fd5b505af1158015610854573d5f803e3d5ffd5b505050505b5f8281526032602090815260408083208381556001810180546001600160a01b031916905560028101849055600381018490556004810184905560050183905580518581523392810192909252429082015260608101919091527fffdaf13b1d96bfc2213355f353f84c19493e0681eb0df26f83d862acd266750a906080015b60405180910390a15050565b6108ee826104f0565b6108f781610fcb565b6109018383610fd8565b50505050565b6001600160a01b03811633146109305760405163334bd91960e11b815260040160405180910390fd5b61093a8282611079565b505050565b6109476110f2565b61095082611196565b61095a82826111c0565b5050565b5f61096761127c565b505f8051602061190d83398151915290565b610981610f84565b6034546040516331a9108f60e11b81526004810184905233916001600160a01b031690636352211e90602401602060405180830381865afa1580156109c8573d5f803e3d5ffd5b505050506040513d601f19601f820116820180604052508101906109ec9190611879565b6001600160a01b03161480610a6d5750603554604051627eeac760e11b8152336004820152602481018490525f916001600160a01b03169062fdd58e90604401602060405180830381865afa158015610a47573d5f803e3d5ffd5b505050506040513d601f19601f82011682018060405250810190610a6b91906118cb565b115b610ab95760405162461bcd60e51b815260206004820152601a60248201527f4e6f7420746865206f776e6572206f662074686520746f6b656e000000000000604482015260640161057c565b5f8281526032602052604090205415610b0b5760405162461bcd60e51b8152602060048201526014602482015273151bdad95b88185b1c9958591e481cdd185ad95960621b604482015260640161057c565b6040805160c081018252838152336020808301828152428486019081525f606086018181526080870182815260a088018a81528b84526032909652918890209651875592516001870180546001600160a01b0319166001600160a01b0392831617905591516002870155915160038601559051600480860191909155915160059094019390935560345493516331a9108f60e11b8152908101869052909290911690636352211e90602401602060405180830381865afa158015610bd1573d5f803e3d5ffd5b505050506040513d601f19601f82011682018060405250810190610bf59190611879565b6001600160a01b031603610c6d576034546040516323b872dd60e01b8152336004820152306024820152604481018490526001600160a01b03909116906323b872dd906064015f604051808303815f87803b158015610c52575f80fd5b505af1158015610c64573d5f803e3d5ffd5b50505050610cd2565b603554604051637921219560e11b81526001600160a01b039091169063f242432a90610ca490339030908790600190600401611894565b5f604051808303815f87803b158015610cbb575f80fd5b505af1158015610ccd573d5f803e3d5ffd5b505050505b6040805183815233602082015242918101919091527f18dcd430020e4d4899772fd94a8b40451dc5044dfb70bc46b532eeae431c864f906060016108d9565b5f9182525f8051602061192d833981519152602090815260408084206001600160a01b0393909316845291905290205460ff1690565b7ff0c57e16840df040f15088dc2f81fe391c3923bec73e23a9662efc9c229c6a008054600160401b810460ff16159067ffffffffffffffff165f81158015610d8c5750825b90505f8267ffffffffffffffff166001148015610da85750303b155b905081158015610db6575080155b15610dd45760405163f92ee8a960e01b815260040160405180910390fd5b845467ffffffffffffffff191660011785558315610dfe57845460ff60401b1916600160401b1785555b610e066112c5565b610e0e6112cd565b610e166112c5565b603380546001600160a01b03808d166001600160a01b031992831617909255603480548c841690831617905560358054928b1692909116919091179055603687905560378690558315610ea357845460ff60401b19168555604051600181527fc7f505b2f371ae2175ee4913f4499e1f2633a7b5936321eed1cdaeb6115181d29060200160405180910390a15b50505050505050505050565b610eb7610f84565b828114610f155760405162461bcd60e51b815260206004820152602660248201527f546f6b656e2049447320616e64207261726974696573206c656e677468206d696044820152650e6dac2e8c6d60d31b606482015260840161057c565b5f5b83811015610f6157610f59858583818110610f3457610f346118e2565b90506020020135848484818110610f4d57610f4d6118e2565b90506020020135610979565b600101610f17565b5050505050565b610f71826104f0565b610f7a81610fcb565b6109018383611079565b5f5460ff1615610fc95760405162461bcd60e51b815260206004820152601060248201526f14185d5cd8589b194e881c185d5cd95960821b604482015260640161057c565b565b610fd581336112dd565b50565b5f5f8051602061192d833981519152610ff18484610d11565b611070575f848152602082815260408083206001600160a01b03871684529091529020805460ff191660011790556110263390565b6001600160a01b0316836001600160a01b0316857f2f8788117e7eff1d82e926ec794901d17c78024a50270940304540a733656f0d60405160405180910390a460019150506104ea565b5f9150506104ea565b5f5f8051602061192d8339815191526110928484610d11565b15611070575f848152602082815260408083206001600160a01b0387168085529252808320805460ff1916905551339287917ff6391f5c32d9c69d2a47ea670b442974b53935d1edc7fd64eb21e047a839171b9190a460019150506104ea565b306001600160a01b037f000000000000000000000000000000000000000000000000000000000000000016148061117857507f00000000000000000000000000000000000000000000000000000000000000006001600160a01b031661116c5f8051602061190d833981519152546001600160a01b031690565b6001600160a01b031614155b15610fc95760405163703e46dd60e11b815260040160405180910390fd5b7f189ab7a9244df0848122154315af71fe140f3db0fe014031783b0946b8c9d2e361095a81610fcb565b816001600160a01b03166352d1902d6040518163ffffffff1660e01b8152600401602060405180830381865afa92505050801561121a575060408051601f3d908101601f19168201909252611217918101906118cb565b60015b61124257604051634c9c8ce360e01b81526001600160a01b038316600482015260240161057c565b5f8051602061190d833981519152811461127257604051632a87526960e21b81526004810182905260240161057c565b61093a8383611316565b306001600160a01b037f00000000000000000000000000000000000000000000000000000000000000001614610fc95760405163703e46dd60e11b815260040160405180910390fd5b610fc961136b565b6112d561136b565b610fc96113b4565b6112e78282610d11565b61095a5760405163e2517d3f60e01b81526001600160a01b03821660048201526024810183905260440161057c565b61131f826113c7565b6040516001600160a01b038316907fbc7cd75a20ee27fd9adebab32041f755214dbc6bffa90cc0225b39da2e5c2d3b905f90a28051156113635761093a828261142a565b61095a61149c565b7ff0c57e16840df040f15088dc2f81fe391c3923bec73e23a9662efc9c229c6a0054600160401b900460ff16610fc957604051631afcd79f60e31b815260040160405180910390fd5b6113bc61136b565b5f805460ff19169055565b806001600160a01b03163b5f036113fc57604051634c9c8ce360e01b81526001600160a01b038216600482015260240161057c565b5f8051602061190d83398151915280546001600160a01b0319166001600160a01b0392909216919091179055565b60605f80846001600160a01b03168460405161144691906118f6565b5f60405180830381855af49150503d805f811461147e576040519150601f19603f3d011682016040523d82523d5f602084013e611483565b606091505b50915091506114938583836114bb565b95945050505050565b3415610fc95760405163b398979f60e01b815260040160405180910390fd5b6060826114d0576114cb8261151a565b611513565b81511580156114e757506001600160a01b0384163b155b1561151057604051639996b31560e01b81526001600160a01b038516600482015260240161057c565b50805b9392505050565b80511561152a5780518082602001fd5b604051630a12f52160e11b815260040160405180910390fd5b5f60208284031215611553575f80fd5b81356001600160e01b031981168114611513575f80fd5b5f6020828403121561157a575f80fd5b5035919050565b6001600160a01b0381168114610fd5575f80fd5b5f80604083850312156115a6575f80fd5b8235915060208301356115b881611581565b809150509250929050565b634e487b7160e01b5f52604160045260245ffd5b5f80604083850312156115e8575f80fd5b82356115f381611581565b9150602083013567ffffffffffffffff81111561160e575f80fd5b8301601f8101851361161e575f80fd5b803567ffffffffffffffff811115611638576116386115c3565b604051601f8201601f19908116603f0116810167ffffffffffffffff81118282101715611667576116676115c3565b60405281815282820160200187101561167e575f80fd5b816020840160208301375f602083830101528093505050509250929050565b5f80604083850312156116ae575f80fd5b50508035926020909101359150565b5f805f805f60a086880312156116d1575f80fd5b85356116dc81611581565b945060208601356116ec81611581565b935060408601356116fc81611581565b94979396509394606081013594506080013592915050565b602081525f82518060208401528060208501604085015e5f604082850101526040601f19601f83011684010191505092915050565b5f8083601f840112611759575f80fd5b50813567ffffffffffffffff811115611770575f80fd5b6020830191508360208260051b850101111561178a575f80fd5b9250929050565b5f805f80604085870312156117a4575f80fd5b843567ffffffffffffffff8111156117ba575f80fd5b6117c687828801611749565b909550935050602085013567ffffffffffffffff8111156117e5575f80fd5b6117f187828801611749565b95989497509550505050565b634e487b7160e01b5f52601160045260245ffd5b818103818111156104ea576104ea6117fd565b80820281158282048414176104ea576104ea6117fd565b5f8261185557634e487b7160e01b5f52601260045260245ffd5b500490565b5f6020828403121561186a575f80fd5b81518015158114611513575f80fd5b5f60208284031215611889575f80fd5b815161151381611581565b6001600160a01b0394851681529290931660208301526040820152606081019190915260a0608082018190525f9082015260c00190565b5f602082840312156118db575f80fd5b5051919050565b634e487b7160e01b5f52603260045260245ffd5b5f82518060208501845e5f92019182525091905056fe360894a13ba1a3210667c828492db98dca3e2076cc3735a920a3ca505d382bbc02dd7bc7dec4dceedda775e58dd541e08a116c6c53815c0bd028192f7b626800a264697066735822122093b9a88d1b3827e35df39db0c4f5f0b1503195780818a3a84e007496b58530ea64736f6c634300081a0033",
					"opcodes": "PUSH1 0xA0 PUSH1 0x40 MSTORE ADDRESS PUSH1 0x80 MSTORE CALLVALUE DUP1 ISZERO PUSH2 0x13 JUMPI PUSH0 DUP1 REVERT JUMPDEST POP PUSH2 0x1E PUSH0 CALLER PUSH2 0x7A JUMP JUMPDEST POP PUSH2 0x49 PUSH32 0x65D7A28E3265B37A6474929F336521B332C1681B933F6CB9F3376673440D862A CALLER PUSH2 0x7A JUMP JUMPDEST POP PUSH2 0x74 PUSH32 0x189AB7A9244DF0848122154315AF71FE140F3DB0FE014031783B0946B8C9D2E3 CALLER PUSH2 0x7A JUMP JUMPDEST POP PUSH2 0x148 JUMP JUMPDEST PUSH0 DUP3 DUP2 MSTORE PUSH32 0x2DD7BC7DEC4DCEEDDA775E58DD541E08A116C6C53815C0BD028192F7B626800 PUSH1 0x20 DUP2 DUP2 MSTORE PUSH1 0x40 DUP1 DUP5 KECCAK256 PUSH1 0x1 PUSH1 0x1 PUSH1 0xA0 SHL SUB DUP7 AND DUP6 MSTORE SWAP1 SWAP2 MSTORE DUP3 KECCAK256 SLOAD PUSH1 0xFF AND PUSH2 0x13D JUMPI PUSH0 DUP5 DUP2 MSTORE PUSH1 0x20 DUP3 DUP2 MSTORE PUSH1 0x40 DUP1 DUP4 KECCAK256 PUSH1 0x1 PUSH1 0x1 PUSH1 0xA0 SHL SUB DUP8 AND DUP5 MSTORE SWAP1 SWAP2 MSTORE SWAP1 KECCAK256 DUP1 SLOAD PUSH1 0xFF NOT AND PUSH1 0x1 OR SWAP1 SSTORE PUSH2 0xF3 CALLER SWAP1 JUMP JUMPDEST PUSH1 0x1 PUSH1 0x1 PUSH1 0xA0 SHL SUB AND DUP4 PUSH1 0x1 PUSH1 0x1 PUSH1 0xA0 SHL SUB AND DUP6 PUSH32 0x2F8788117E7EFF1D82E926EC794901D17C78024A50270940304540A733656F0D PUSH1 0x40 MLOAD PUSH1 0x40 MLOAD DUP1 SWAP2 SUB SWAP1 LOG4 PUSH1 0x1 SWAP2 POP POP PUSH2 0x142 JUMP JUMPDEST PUSH0 SWAP2 POP POP JUMPDEST SWAP3 SWAP2 POP POP JUMP JUMPDEST PUSH1 0x80 MLOAD PUSH2 0x1982 PUSH2 0x16E PUSH0 CODECOPY PUSH0 DUP2 DUP2 PUSH2 0x10FD ADD MSTORE DUP2 DUP2 PUSH2 0x1126 ADD MSTORE PUSH2 0x1287 ADD MSTORE PUSH2 0x1982 PUSH0 RETURN INVALID PUSH1 0x80 PUSH1 0x40 MSTORE PUSH1 0x4 CALLDATASIZE LT PUSH2 0x13C JUMPI PUSH0 CALLDATALOAD PUSH1 0xE0 SHR DUP1 PUSH4 0x7B0A47EE GT PUSH2 0xB3 JUMPI DUP1 PUSH4 0xAD3CB1CC GT PUSH2 0x6D JUMPI DUP1 PUSH4 0xAD3CB1CC EQ PUSH2 0x34C JUMPI DUP1 PUSH4 0xD0F7D24F EQ PUSH2 0x389 JUMPI DUP1 PUSH4 0xD547741F EQ PUSH2 0x3A8 JUMPI DUP1 PUSH4 0xD5A44F86 EQ PUSH2 0x3C7 JUMPI DUP1 PUSH4 0xE63AB1E9 EQ PUSH2 0x454 JUMPI DUP1 PUSH4 0xF72C0D8B EQ PUSH2 0x487 JUMPI PUSH0 DUP1 REVERT JUMPDEST DUP1 PUSH4 0x7B0A47EE EQ PUSH2 0x2B2 JUMPI DUP1 PUSH4 0x7EBED54C EQ PUSH2 0x2C7 JUMPI DUP1 PUSH4 0x8172885B EQ PUSH2 0x2DC JUMPI DUP1 PUSH4 0x91D14854 EQ PUSH2 0x2FB JUMPI DUP1 PUSH4 0xA217FDDF EQ PUSH2 0x31A JUMPI DUP1 PUSH4 0xA6B63EB8 EQ PUSH2 0x32D JUMPI PUSH0 DUP1 REVERT JUMPDEST DUP1 PUSH4 0x36568ABE GT PUSH2 0x104 JUMPI DUP1 PUSH4 0x36568ABE EQ PUSH2 0x218 JUMPI DUP1 PUSH4 0x4D9A824D EQ PUSH2 0x237 JUMPI DUP1 PUSH4 0x4F1EF286 EQ PUSH2 0x256 JUMPI DUP1 PUSH4 0x52D1902D EQ PUSH2 0x269 JUMPI DUP1 PUSH4 0x5C975ABB EQ PUSH2 0x27D JUMPI DUP1 PUSH4 0x7B0472F0 EQ PUSH2 0x293 JUMPI PUSH0 DUP1 REVERT JUMPDEST DUP1 PUSH4 0x1FFC9A7 EQ PUSH2 0x140 JUMPI DUP1 PUSH4 0x248A9CA3 EQ PUSH2 0x174 JUMPI DUP1 PUSH4 0x2E17DE78 EQ PUSH2 0x1A1 JUMPI DUP1 PUSH4 0x2F2FF15D EQ PUSH2 0x1C2 JUMPI DUP1 PUSH4 0x34AAB064 EQ PUSH2 0x1E1 JUMPI JUMPDEST PUSH0 DUP1 REVERT JUMPDEST CALLVALUE DUP1 ISZERO PUSH2 0x14B JUMPI PUSH0 DUP1 REVERT JUMPDEST POP PUSH2 0x15F PUSH2 0x15A CALLDATASIZE PUSH1 0x4 PUSH2 0x1543 JUMP JUMPDEST PUSH2 0x4BA JUMP JUMPDEST PUSH1 0x40 MLOAD SWAP1 ISZERO ISZERO DUP2 MSTORE PUSH1 0x20 ADD JUMPDEST PUSH1 0x40 MLOAD DUP1 SWAP2 SUB SWAP1 RETURN JUMPDEST CALLVALUE DUP1 ISZERO PUSH2 0x17F JUMPI PUSH0 DUP1 REVERT JUMPDEST POP PUSH2 0x193 PUSH2 0x18E CALLDATASIZE PUSH1 0x4 PUSH2 0x156A JUMP JUMPDEST PUSH2 0x4F0 JUMP JUMPDEST PUSH1 0x40 MLOAD SWAP1 DUP2 MSTORE PUSH1 0x20 ADD PUSH2 0x16B JUMP JUMPDEST CALLVALUE DUP1 ISZERO PUSH2 0x1AC JUMPI PUSH0 DUP1 REVERT JUMPDEST POP PUSH2 0x1C0 PUSH2 0x1BB CALLDATASIZE PUSH1 0x4 PUSH2 0x156A JUMP JUMPDEST PUSH2 0x510 JUMP JUMPDEST STOP JUMPDEST CALLVALUE DUP1 ISZERO PUSH2 0x1CD JUMPI PUSH0 DUP1 REVERT JUMPDEST POP PUSH2 0x1C0 PUSH2 0x1DC CALLDATASIZE PUSH1 0x4 PUSH2 0x1595 JUMP JUMPDEST PUSH2 0x8E5 JUMP JUMPDEST CALLVALUE DUP1 ISZERO PUSH2 0x1EC JUMPI PUSH0 DUP1 REVERT JUMPDEST POP PUSH1 0x33 SLOAD PUSH2 0x200 SWAP1 PUSH1 0x1 PUSH1 0x1 PUSH1 0xA0 SHL SUB AND DUP2 JUMP JUMPDEST PUSH1 0x40 MLOAD PUSH1 0x1 PUSH1 0x1 PUSH1 0xA0 SHL SUB SWAP1 SWAP2 AND DUP2 MSTORE PUSH1 0x20 ADD PUSH2 0x16B JUMP JUMPDEST CALLVALUE DUP1 ISZERO PUSH2 0x223 JUMPI PUSH0 DUP1 REVERT JUMPDEST POP PUSH2 0x1C0 PUSH2 0x232 CALLDATASIZE PUSH1 0x4 PUSH2 0x1595 JUMP JUMPDEST PUSH2 0x907 JUMP JUMPDEST CALLVALUE DUP1 ISZERO PUSH2 0x242 JUMPI PUSH0 DUP1 REVERT JUMPDEST POP PUSH1 0x34 SLOAD PUSH2 0x200 SWAP1 PUSH1 0x1 PUSH1 0x1 PUSH1 0xA0 SHL SUB AND DUP2 JUMP JUMPDEST PUSH2 0x1C0 PUSH2 0x264 CALLDATASIZE PUSH1 0x4 PUSH2 0x15D7 JUMP JUMPDEST PUSH2 0x93F JUMP JUMPDEST CALLVALUE DUP1 ISZERO PUSH2 0x274 JUMPI PUSH0 DUP1 REVERT JUMPDEST POP PUSH2 0x193 PUSH2 0x95E JUMP JUMPDEST CALLVALUE DUP1 ISZERO PUSH2 0x288 JUMPI PUSH0 DUP1 REVERT JUMPDEST POP PUSH0 SLOAD PUSH1 0xFF AND PUSH2 0x15F JUMP JUMPDEST CALLVALUE DUP1 ISZERO PUSH2 0x29E JUMPI PUSH0 DUP1 REVERT JUMPDEST POP PUSH2 0x1C0 PUSH2 0x2AD CALLDATASIZE PUSH1 0x4 PUSH2 0x169D JUMP JUMPDEST PUSH2 0x979 JUMP JUMPDEST CALLVALUE DUP1 ISZERO PUSH2 0x2BD JUMPI PUSH0 DUP1 REVERT JUMPDEST POP PUSH2 0x193 PUSH1 0x36 SLOAD DUP2 JUMP JUMPDEST CALLVALUE DUP1 ISZERO PUSH2 0x2D2 JUMPI PUSH0 DUP1 REVERT JUMPDEST POP PUSH2 0x193 PUSH1 0x37 SLOAD DUP2 JUMP JUMPDEST CALLVALUE DUP1 ISZERO PUSH2 0x2E7 JUMPI PUSH0 DUP1 REVERT JUMPDEST POP PUSH1 0x35 SLOAD PUSH2 0x200 SWAP1 PUSH1 0x1 PUSH1 0x1 PUSH1 0xA0 SHL SUB AND DUP2 JUMP JUMPDEST CALLVALUE DUP1 ISZERO PUSH2 0x306 JUMPI PUSH0 DUP1 REVERT JUMPDEST POP PUSH2 0x15F PUSH2 0x315 CALLDATASIZE PUSH1 0x4 PUSH2 0x1595 JUMP JUMPDEST PUSH2 0xD11 JUMP JUMPDEST CALLVALUE DUP1 ISZERO PUSH2 0x325 JUMPI PUSH0 DUP1 REVERT JUMPDEST POP PUSH2 0x193 PUSH0 DUP2 JUMP JUMPDEST CALLVALUE DUP1 ISZERO PUSH2 0x338 JUMPI PUSH0 DUP1 REVERT JUMPDEST POP PUSH2 0x1C0 PUSH2 0x347 CALLDATASIZE PUSH1 0x4 PUSH2 0x16BD JUMP JUMPDEST PUSH2 0xD47 JUMP JUMPDEST CALLVALUE DUP1 ISZERO PUSH2 0x357 JUMPI PUSH0 DUP1 REVERT JUMPDEST POP PUSH2 0x37C PUSH1 0x40 MLOAD DUP1 PUSH1 0x40 ADD PUSH1 0x40 MSTORE DUP1 PUSH1 0x5 DUP2 MSTORE PUSH1 0x20 ADD PUSH5 0x352E302E3 PUSH1 0xDC SHL DUP2 MSTORE POP DUP2 JUMP JUMPDEST PUSH1 0x40 MLOAD PUSH2 0x16B SWAP2 SWAP1 PUSH2 0x1714 JUMP JUMPDEST CALLVALUE DUP1 ISZERO PUSH2 0x394 JUMPI PUSH0 DUP1 REVERT JUMPDEST POP PUSH2 0x1C0 PUSH2 0x3A3 CALLDATASIZE PUSH1 0x4 PUSH2 0x1791 JUMP JUMPDEST PUSH2 0xEAF JUMP JUMPDEST CALLVALUE DUP1 ISZERO PUSH2 0x3B3 JUMPI PUSH0 DUP1 REVERT JUMPDEST POP PUSH2 0x1C0 PUSH2 0x3C2 CALLDATASIZE PUSH1 0x4 PUSH2 0x1595 JUMP JUMPDEST PUSH2 0xF68 JUMP JUMPDEST CALLVALUE DUP1 ISZERO PUSH2 0x3D2 JUMPI PUSH0 DUP1 REVERT JUMPDEST POP PUSH2 0x41F PUSH2 0x3E1 CALLDATASIZE PUSH1 0x4 PUSH2 0x156A JUMP JUMPDEST PUSH1 0x32 PUSH1 0x20 MSTORE PUSH0 SWAP1 DUP2 MSTORE PUSH1 0x40 SWAP1 KECCAK256 DUP1 SLOAD PUSH1 0x1 DUP3 ADD SLOAD PUSH1 0x2 DUP4 ADD SLOAD PUSH1 0x3 DUP5 ADD SLOAD PUSH1 0x4 DUP6 ADD SLOAD PUSH1 0x5 SWAP1 SWAP6 ADD SLOAD SWAP4 SWAP5 PUSH1 0x1 PUSH1 0x1 PUSH1 0xA0 SHL SUB SWAP1 SWAP4 AND SWAP4 SWAP2 SWAP3 SWAP1 SWAP2 DUP7 JUMP JUMPDEST PUSH1 0x40 DUP1 MLOAD SWAP7 DUP8 MSTORE PUSH1 0x1 PUSH1 0x1 PUSH1 0xA0 SHL SUB SWAP1 SWAP6 AND PUSH1 0x20 DUP8 ADD MSTORE SWAP4 DUP6 ADD SWAP3 SWAP1 SWAP3 MSTORE PUSH1 0x60 DUP5 ADD MSTORE PUSH1 0x80 DUP4 ADD MSTORE PUSH1 0xA0 DUP3 ADD MSTORE PUSH1 0xC0 ADD PUSH2 0x16B JUMP JUMPDEST CALLVALUE DUP1 ISZERO PUSH2 0x45F JUMPI PUSH0 DUP1 REVERT JUMPDEST POP PUSH2 0x193 PUSH32 0x65D7A28E3265B37A6474929F336521B332C1681B933F6CB9F3376673440D862A DUP2 JUMP JUMPDEST CALLVALUE DUP1 ISZERO PUSH2 0x492 JUMPI PUSH0 DUP1 REVERT JUMPDEST POP PUSH2 0x193 PUSH32 0x189AB7A9244DF0848122154315AF71FE140F3DB0FE014031783B0946B8C9D2E3 DUP2 JUMP JUMPDEST PUSH0 PUSH1 0x1 PUSH1 0x1 PUSH1 0xE0 SHL SUB NOT DUP3 AND PUSH4 0x7965DB0B PUSH1 0xE0 SHL EQ DUP1 PUSH2 0x4EA JUMPI POP PUSH4 0x1FFC9A7 PUSH1 0xE0 SHL PUSH1 0x1 PUSH1 0x1 PUSH1 0xE0 SHL SUB NOT DUP4 AND EQ JUMPDEST SWAP3 SWAP2 POP POP JUMP JUMPDEST PUSH0 SWAP1 DUP2 MSTORE PUSH0 DUP1 MLOAD PUSH1 0x20 PUSH2 0x192D DUP4 CODECOPY DUP2 MLOAD SWAP2 MSTORE PUSH1 0x20 MSTORE PUSH1 0x40 SWAP1 KECCAK256 PUSH1 0x1 ADD SLOAD SWAP1 JUMP JUMPDEST PUSH2 0x518 PUSH2 0xF84 JUMP JUMPDEST PUSH0 DUP2 DUP2 MSTORE PUSH1 0x32 PUSH1 0x20 MSTORE PUSH1 0x40 SWAP1 KECCAK256 PUSH1 0x1 ADD SLOAD PUSH1 0x1 PUSH1 0x1 PUSH1 0xA0 SHL SUB AND CALLER EQ PUSH2 0x585 JUMPI PUSH1 0x40 MLOAD PUSH3 0x461BCD PUSH1 0xE5 SHL DUP2 MSTORE PUSH1 0x20 PUSH1 0x4 DUP3 ADD MSTORE PUSH1 0x1A PUSH1 0x24 DUP3 ADD MSTORE PUSH32 0x4E6F7420746865206F776E6572206F6620746865207374616B65000000000000 PUSH1 0x44 DUP3 ADD MSTORE PUSH1 0x64 ADD JUMPDEST PUSH1 0x40 MLOAD DUP1 SWAP2 SUB SWAP1 REVERT JUMPDEST PUSH0 DUP2 DUP2 MSTORE PUSH1 0x32 PUSH1 0x20 MSTORE PUSH1 0x40 SWAP1 KECCAK256 PUSH1 0x3 ADD SLOAD ISZERO PUSH2 0x5DC JUMPI PUSH1 0x40 MLOAD PUSH3 0x461BCD PUSH1 0xE5 SHL DUP2 MSTORE PUSH1 0x20 PUSH1 0x4 DUP3 ADD MSTORE PUSH1 0x16 PUSH1 0x24 DUP3 ADD MSTORE PUSH22 0x151BDAD95B88185B1C9958591E481D5B9CDD185AD959 PUSH1 0x52 SHL PUSH1 0x44 DUP3 ADD MSTORE PUSH1 0x64 ADD PUSH2 0x57C JUMP JUMPDEST PUSH0 DUP2 DUP2 MSTORE PUSH1 0x32 PUSH1 0x20 MSTORE PUSH1 0x40 DUP2 KECCAK256 PUSH1 0x2 ADD SLOAD PUSH2 0x5F7 SWAP1 TIMESTAMP PUSH2 0x1811 JUMP JUMPDEST SWAP1 POP PUSH1 0x37 SLOAD DUP2 LT ISZERO PUSH2 0x644 JUMPI PUSH1 0x40 MLOAD PUSH3 0x461BCD PUSH1 0xE5 SHL DUP2 MSTORE PUSH1 0x20 PUSH1 0x4 DUP3 ADD MSTORE PUSH1 0x16 PUSH1 0x24 DUP3 ADD MSTORE PUSH22 0x14DD185ADA5B99C81C195C9A5BD9081B9BDD081B595D PUSH1 0x52 SHL PUSH1 0x44 DUP3 ADD MSTORE PUSH1 0x64 ADD PUSH2 0x57C JUMP JUMPDEST PUSH0 DUP3 DUP2 MSTORE PUSH1 0x32 PUSH1 0x20 MSTORE PUSH1 0x40 SWAP1 KECCAK256 TIMESTAMP PUSH1 0x3 DUP3 ADD SSTORE PUSH1 0x5 ADD SLOAD PUSH1 0x36 SLOAD PUSH8 0xDE0B6B3A7640000 SWAP2 SWAP1 PUSH2 0x673 SWAP1 DUP5 PUSH2 0x1824 JUMP JUMPDEST PUSH2 0x67D SWAP2 SWAP1 PUSH2 0x1824 JUMP JUMPDEST PUSH2 0x687 SWAP2 SWAP1 PUSH2 0x183B JUMP JUMPDEST PUSH0 DUP4 DUP2 MSTORE PUSH1 0x32 PUSH1 0x20 MSTORE PUSH1 0x40 SWAP1 DUP2 SWAP1 KECCAK256 PUSH1 0x4 SWAP1 DUP2 ADD DUP4 SWAP1 SSTORE PUSH1 0x33 SLOAD SWAP2 MLOAD PUSH4 0xA9059CBB PUSH1 0xE0 SHL DUP2 MSTORE CALLER SWAP2 DUP2 ADD SWAP2 SWAP1 SWAP2 MSTORE PUSH1 0x24 DUP2 ADD SWAP3 SWAP1 SWAP3 MSTORE PUSH1 0x1 PUSH1 0x1 PUSH1 0xA0 SHL SUB AND SWAP1 PUSH4 0xA9059CBB SWAP1 PUSH1 0x44 ADD PUSH1 0x20 PUSH1 0x40 MLOAD DUP1 DUP4 SUB DUP2 PUSH0 DUP8 GAS CALL ISZERO DUP1 ISZERO PUSH2 0x6EC JUMPI RETURNDATASIZE PUSH0 DUP1 RETURNDATACOPY RETURNDATASIZE PUSH0 REVERT JUMPDEST POP POP POP POP PUSH1 0x40 MLOAD RETURNDATASIZE PUSH1 0x1F NOT PUSH1 0x1F DUP3 ADD AND DUP3 ADD DUP1 PUSH1 0x40 MSTORE POP DUP2 ADD SWAP1 PUSH2 0x710 SWAP2 SWAP1 PUSH2 0x185A JUMP JUMPDEST POP PUSH1 0x34 SLOAD PUSH1 0x40 MLOAD PUSH4 0x31A9108F PUSH1 0xE1 SHL DUP2 MSTORE PUSH1 0x4 DUP2 ADD DUP5 SWAP1 MSTORE ADDRESS SWAP2 PUSH1 0x1 PUSH1 0x1 PUSH1 0xA0 SHL SUB AND SWAP1 PUSH4 0x6352211E SWAP1 PUSH1 0x24 ADD PUSH1 0x20 PUSH1 0x40 MLOAD DUP1 DUP4 SUB DUP2 DUP7 GAS STATICCALL ISZERO DUP1 ISZERO PUSH2 0x758 JUMPI RETURNDATASIZE PUSH0 DUP1 RETURNDATACOPY RETURNDATASIZE PUSH0 REVERT JUMPDEST POP POP POP POP PUSH1 0x40 MLOAD RETURNDATASIZE PUSH1 0x1F NOT PUSH1 0x1F DUP3 ADD AND DUP3 ADD DUP1 PUSH1 0x40 MSTORE POP DUP2 ADD SWAP1 PUSH2 0x77C SWAP2 SWAP1 PUSH2 0x1879 JUMP JUMPDEST PUSH1 0x1 PUSH1 0x1 PUSH1 0xA0 SHL SUB AND SUB PUSH2 0x7F4 JUMPI PUSH1 0x34 SLOAD PUSH1 0x40 MLOAD PUSH4 0x23B872DD PUSH1 0xE0 SHL DUP2 MSTORE ADDRESS PUSH1 0x4 DUP3 ADD MSTORE CALLER PUSH1 0x24 DUP3 ADD MSTORE PUSH1 0x44 DUP2 ADD DUP5 SWAP1 MSTORE PUSH1 0x1 PUSH1 0x1 PUSH1 0xA0 SHL SUB SWAP1 SWAP2 AND SWAP1 PUSH4 0x23B872DD SWAP1 PUSH1 0x64 ADD PUSH0 PUSH1 0x40 MLOAD DUP1 DUP4 SUB DUP2 PUSH0 DUP8 DUP1 EXTCODESIZE ISZERO DUP1 ISZERO PUSH2 0x7D9 JUMPI PUSH0 DUP1 REVERT JUMPDEST POP GAS CALL ISZERO DUP1 ISZERO PUSH2 0x7EB JUMPI RETURNDATASIZE PUSH0 DUP1 RETURNDATACOPY RETURNDATASIZE PUSH0 REVERT JUMPDEST POP POP POP POP PUSH2 0x859 JUMP JUMPDEST PUSH1 0x35 SLOAD PUSH1 0x40 MLOAD PUSH4 0x79212195 PUSH1 0xE1 SHL DUP2 MSTORE PUSH1 0x1 PUSH1 0x1 PUSH1 0xA0 SHL SUB SWAP1 SWAP2 AND SWAP1 PUSH4 0xF242432A SWAP1 PUSH2 0x82B SWAP1 ADDRESS SWAP1 CALLER SWAP1 DUP8 SWAP1 PUSH1 0x1 SWAP1 PUSH1 0x4 ADD PUSH2 0x1894 JUMP JUMPDEST PUSH0 PUSH1 0x40 MLOAD DUP1 DUP4 SUB DUP2 PUSH0 DUP8 DUP1 EXTCODESIZE ISZERO DUP1 ISZERO PUSH2 0x842 JUMPI PUSH0 DUP1 REVERT JUMPDEST POP GAS CALL ISZERO DUP1 ISZERO PUSH2 0x854 JUMPI RETURNDATASIZE PUSH0 DUP1 RETURNDATACOPY RETURNDATASIZE PUSH0 REVERT JUMPDEST POP POP POP POP JUMPDEST PUSH0 DUP3 DUP2 MSTORE PUSH1 0x32 PUSH1 0x20 SWAP1 DUP2 MSTORE PUSH1 0x40 DUP1 DUP4 KECCAK256 DUP4 DUP2 SSTORE PUSH1 0x1 DUP2 ADD DUP1 SLOAD PUSH1 0x1 PUSH1 0x1 PUSH1 0xA0 SHL SUB NOT AND SWAP1 SSTORE PUSH1 0x2 DUP2 ADD DUP5 SWAP1 SSTORE PUSH1 0x3 DUP2 ADD DUP5 SWAP1 SSTORE PUSH1 0x4 DUP2 ADD DUP5 SWAP1 SSTORE PUSH1 0x5 ADD DUP4 SWAP1 SSTORE DUP1 MLOAD DUP6 DUP2 MSTORE CALLER SWAP3 DUP2 ADD SWAP3 SWAP1 SWAP3 MSTORE TIMESTAMP SWAP1 DUP3 ADD MSTORE PUSH1 0x60 DUP2 ADD SWAP2 SWAP1 SWAP2 MSTORE PUSH32 0xFFDAF13B1D96BFC2213355F353F84C19493E0681EB0DF26F83D862ACD266750A SWAP1 PUSH1 0x80 ADD JUMPDEST PUSH1 0x40 MLOAD DUP1 SWAP2 SUB SWAP1 LOG1 POP POP JUMP JUMPDEST PUSH2 0x8EE DUP3 PUSH2 0x4F0 JUMP JUMPDEST PUSH2 0x8F7 DUP2 PUSH2 0xFCB JUMP JUMPDEST PUSH2 0x901 DUP4 DUP4 PUSH2 0xFD8 JUMP JUMPDEST POP POP POP POP JUMP JUMPDEST PUSH1 0x1 PUSH1 0x1 PUSH1 0xA0 SHL SUB DUP2 AND CALLER EQ PUSH2 0x930 JUMPI PUSH1 0x40 MLOAD PUSH4 0x334BD919 PUSH1 0xE1 SHL DUP2 MSTORE PUSH1 0x4 ADD PUSH1 0x40 MLOAD DUP1 SWAP2 SUB SWAP1 REVERT JUMPDEST PUSH2 0x93A DUP3 DUP3 PUSH2 0x1079 JUMP JUMPDEST POP POP POP JUMP JUMPDEST PUSH2 0x947 PUSH2 0x10F2 JUMP JUMPDEST PUSH2 0x950 DUP3 PUSH2 0x1196 JUMP JUMPDEST PUSH2 0x95A DUP3 DUP3 PUSH2 0x11C0 JUMP JUMPDEST POP POP JUMP JUMPDEST PUSH0 PUSH2 0x967 PUSH2 0x127C JUMP JUMPDEST POP PUSH0 DUP1 MLOAD PUSH1 0x20 PUSH2 0x190D DUP4 CODECOPY DUP2 MLOAD SWAP2 MSTORE SWAP1 JUMP JUMPDEST PUSH2 0x981 PUSH2 0xF84 JUMP JUMPDEST PUSH1 0x34 SLOAD PUSH1 0x40 MLOAD PUSH4 0x31A9108F PUSH1 0xE1 SHL DUP2 MSTORE PUSH1 0x4 DUP2 ADD DUP5 SWAP1 MSTORE CALLER SWAP2 PUSH1 0x1 PUSH1 0x1 PUSH1 0xA0 SHL SUB AND SWAP1 PUSH4 0x6352211E SWAP1 PUSH1 0x24 ADD PUSH1 0x20 PUSH1 0x40 MLOAD DUP1 DUP4 SUB DUP2 DUP7 GAS STATICCALL ISZERO DUP1 ISZERO PUSH2 0x9C8 JUMPI RETURNDATASIZE PUSH0 DUP1 RETURNDATACOPY RETURNDATASIZE PUSH0 REVERT JUMPDEST POP POP POP POP PUSH1 0x40 MLOAD RETURNDATASIZE PUSH1 0x1F NOT PUSH1 0x1F DUP3 ADD AND DUP3 ADD DUP1 PUSH1 0x40 MSTORE POP DUP2 ADD SWAP1 PUSH2 0x9EC SWAP2 SWAP1 PUSH2 0x1879 JUMP JUMPDEST PUSH1 0x1 PUSH1 0x1 PUSH1 0xA0 SHL SUB AND EQ DUP1 PUSH2 0xA6D JUMPI POP PUSH1 0x35 SLOAD PUSH1 0x40 MLOAD PUSH3 0x7EEAC7 PUSH1 0xE1 SHL DUP2 MSTORE CALLER PUSH1 0x4 DUP3 ADD MSTORE PUSH1 0x24 DUP2 ADD DUP5 SWAP1 MSTORE PUSH0 SWAP2 PUSH1 0x1 PUSH1 0x1 PUSH1 0xA0 SHL SUB AND SWAP1 PUSH3 0xFDD58E SWAP1 PUSH1 0x44 ADD PUSH1 0x20 PUSH1 0x40 MLOAD DUP1 DUP4 SUB DUP2 DUP7 GAS STATICCALL ISZERO DUP1 ISZERO PUSH2 0xA47 JUMPI RETURNDATASIZE PUSH0 DUP1 RETURNDATACOPY RETURNDATASIZE PUSH0 REVERT JUMPDEST POP POP POP POP PUSH1 0x40 MLOAD RETURNDATASIZE PUSH1 0x1F NOT PUSH1 0x1F DUP3 ADD AND DUP3 ADD DUP1 PUSH1 0x40 MSTORE POP DUP2 ADD SWAP1 PUSH2 0xA6B SWAP2 SWAP1 PUSH2 0x18CB JUMP JUMPDEST GT JUMPDEST PUSH2 0xAB9 JUMPI PUSH1 0x40 MLOAD PUSH3 0x461BCD PUSH1 0xE5 SHL DUP2 MSTORE PUSH1 0x20 PUSH1 0x4 DUP3 ADD MSTORE PUSH1 0x1A PUSH1 0x24 DUP3 ADD MSTORE PUSH32 0x4E6F7420746865206F776E6572206F662074686520746F6B656E000000000000 PUSH1 0x44 DUP3 ADD MSTORE PUSH1 0x64 ADD PUSH2 0x57C JUMP JUMPDEST PUSH0 DUP3 DUP2 MSTORE PUSH1 0x32 PUSH1 0x20 MSTORE PUSH1 0x40 SWAP1 KECCAK256 SLOAD ISZERO PUSH2 0xB0B JUMPI PUSH1 0x40 MLOAD PUSH3 0x461BCD PUSH1 0xE5 SHL DUP2 MSTORE PUSH1 0x20 PUSH1 0x4 DUP3 ADD MSTORE PUSH1 0x14 PUSH1 0x24 DUP3 ADD MSTORE PUSH20 0x151BDAD95B88185B1C9958591E481CDD185AD959 PUSH1 0x62 SHL PUSH1 0x44 DUP3 ADD MSTORE PUSH1 0x64 ADD PUSH2 0x57C JUMP JUMPDEST PUSH1 0x40 DUP1 MLOAD PUSH1 0xC0 DUP2 ADD DUP3 MSTORE DUP4 DUP2 MSTORE CALLER PUSH1 0x20 DUP1 DUP4 ADD DUP3 DUP2 MSTORE TIMESTAMP DUP5 DUP7 ADD SWAP1 DUP2 MSTORE PUSH0 PUSH1 0x60 DUP7 ADD DUP2 DUP2 MSTORE PUSH1 0x80 DUP8 ADD DUP3 DUP2 MSTORE PUSH1 0xA0 DUP9 ADD DUP11 DUP2 MSTORE DUP12 DUP5 MSTORE PUSH1 0x32 SWAP1 SWAP7 MSTORE SWAP2 DUP9 SWAP1 KECCAK256 SWAP7 MLOAD DUP8 SSTORE SWAP3 MLOAD PUSH1 0x1 DUP8 ADD DUP1 SLOAD PUSH1 0x1 PUSH1 0x1 PUSH1 0xA0 SHL SUB NOT AND PUSH1 0x1 PUSH1 0x1 PUSH1 0xA0 SHL SUB SWAP3 DUP4 AND OR SWAP1 SSTORE SWAP2 MLOAD PUSH1 0x2 DUP8 ADD SSTORE SWAP2 MLOAD PUSH1 0x3 DUP7 ADD SSTORE SWAP1 MLOAD PUSH1 0x4 DUP1 DUP7 ADD SWAP2 SWAP1 SWAP2 SSTORE SWAP2 MLOAD PUSH1 0x5 SWAP1 SWAP5 ADD SWAP4 SWAP1 SWAP4 SSTORE PUSH1 0x34 SLOAD SWAP4 MLOAD PUSH4 0x31A9108F PUSH1 0xE1 SHL DUP2 MSTORE SWAP1 DUP2 ADD DUP7 SWAP1 MSTORE SWAP1 SWAP3 SWAP1 SWAP2 AND SWAP1 PUSH4 0x6352211E SWAP1 PUSH1 0x24 ADD PUSH1 0x20 PUSH1 0x40 MLOAD DUP1 DUP4 SUB DUP2 DUP7 GAS STATICCALL ISZERO DUP1 ISZERO PUSH2 0xBD1 JUMPI RETURNDATASIZE PUSH0 DUP1 RETURNDATACOPY RETURNDATASIZE PUSH0 REVERT JUMPDEST POP POP POP POP PUSH1 0x40 MLOAD RETURNDATASIZE PUSH1 0x1F NOT PUSH1 0x1F DUP3 ADD AND DUP3 ADD DUP1 PUSH1 0x40 MSTORE POP DUP2 ADD SWAP1 PUSH2 0xBF5 SWAP2 SWAP1 PUSH2 0x1879 JUMP JUMPDEST PUSH1 0x1 PUSH1 0x1 PUSH1 0xA0 SHL SUB AND SUB PUSH2 0xC6D JUMPI PUSH1 0x34 SLOAD PUSH1 0x40 MLOAD PUSH4 0x23B872DD PUSH1 0xE0 SHL DUP2 MSTORE CALLER PUSH1 0x4 DUP3 ADD MSTORE ADDRESS PUSH1 0x24 DUP3 ADD MSTORE PUSH1 0x44 DUP2 ADD DUP5 SWAP1 MSTORE PUSH1 0x1 PUSH1 0x1 PUSH1 0xA0 SHL SUB SWAP1 SWAP2 AND SWAP1 PUSH4 0x23B872DD SWAP1 PUSH1 0x64 ADD PUSH0 PUSH1 0x40 MLOAD DUP1 DUP4 SUB DUP2 PUSH0 DUP8 DUP1 EXTCODESIZE ISZERO DUP1 ISZERO PUSH2 0xC52 JUMPI PUSH0 DUP1 REVERT JUMPDEST POP GAS CALL ISZERO DUP1 ISZERO PUSH2 0xC64 JUMPI RETURNDATASIZE PUSH0 DUP1 RETURNDATACOPY RETURNDATASIZE PUSH0 REVERT JUMPDEST POP POP POP POP PUSH2 0xCD2 JUMP JUMPDEST PUSH1 0x35 SLOAD PUSH1 0x40 MLOAD PUSH4 0x79212195 PUSH1 0xE1 SHL DUP2 MSTORE PUSH1 0x1 PUSH1 0x1 PUSH1 0xA0 SHL SUB SWAP1 SWAP2 AND SWAP1 PUSH4 0xF242432A SWAP1 PUSH2 0xCA4 SWAP1 CALLER SWAP1 ADDRESS SWAP1 DUP8 SWAP1 PUSH1 0x1 SWAP1 PUSH1 0x4 ADD PUSH2 0x1894 JUMP JUMPDEST PUSH0 PUSH1 0x40 MLOAD DUP1 DUP4 SUB DUP2 PUSH0 DUP8 DUP1 EXTCODESIZE ISZERO DUP1 ISZERO PUSH2 0xCBB JUMPI PUSH0 DUP1 REVERT JUMPDEST POP GAS CALL ISZERO DUP1 ISZERO PUSH2 0xCCD JUMPI RETURNDATASIZE PUSH0 DUP1 RETURNDATACOPY RETURNDATASIZE PUSH0 REVERT JUMPDEST POP POP POP POP JUMPDEST PUSH1 0x40 DUP1 MLOAD DUP4 DUP2 MSTORE CALLER PUSH1 0x20 DUP3 ADD MSTORE TIMESTAMP SWAP2 DUP2 ADD SWAP2 SWAP1 SWAP2 MSTORE PUSH32 0x18DCD430020E4D4899772FD94A8B40451DC5044DFB70BC46B532EEAE431C864F SWAP1 PUSH1 0x60 ADD PUSH2 0x8D9 JUMP JUMPDEST PUSH0 SWAP2 DUP3 MSTORE PUSH0 DUP1 MLOAD PUSH1 0x20 PUSH2 0x192D DUP4 CODECOPY DUP2 MLOAD SWAP2 MSTORE PUSH1 0x20 SWAP1 DUP2 MSTORE PUSH1 0x40 DUP1 DUP5 KECCAK256 PUSH1 0x1 PUSH1 0x1 PUSH1 0xA0 SHL SUB SWAP4 SWAP1 SWAP4 AND DUP5 MSTORE SWAP2 SWAP1 MSTORE SWAP1 KECCAK256 SLOAD PUSH1 0xFF AND SWAP1 JUMP JUMPDEST PUSH32 0xF0C57E16840DF040F15088DC2F81FE391C3923BEC73E23A9662EFC9C229C6A00 DUP1 SLOAD PUSH1 0x1 PUSH1 0x40 SHL DUP2 DIV PUSH1 0xFF AND ISZERO SWAP1 PUSH8 0xFFFFFFFFFFFFFFFF AND PUSH0 DUP2 ISZERO DUP1 ISZERO PUSH2 0xD8C JUMPI POP DUP3 JUMPDEST SWAP1 POP PUSH0 DUP3 PUSH8 0xFFFFFFFFFFFFFFFF AND PUSH1 0x1 EQ DUP1 ISZERO PUSH2 0xDA8 JUMPI POP ADDRESS EXTCODESIZE ISZERO JUMPDEST SWAP1 POP DUP2 ISZERO DUP1 ISZERO PUSH2 0xDB6 JUMPI POP DUP1 ISZERO JUMPDEST ISZERO PUSH2 0xDD4 JUMPI PUSH1 0x40 MLOAD PUSH4 0xF92EE8A9 PUSH1 0xE0 SHL DUP2 MSTORE PUSH1 0x4 ADD PUSH1 0x40 MLOAD DUP1 SWAP2 SUB SWAP1 REVERT JUMPDEST DUP5 SLOAD PUSH8 0xFFFFFFFFFFFFFFFF NOT AND PUSH1 0x1 OR DUP6 SSTORE DUP4 ISZERO PUSH2 0xDFE JUMPI DUP5 SLOAD PUSH1 0xFF PUSH1 0x40 SHL NOT AND PUSH1 0x1 PUSH1 0x40 SHL OR DUP6 SSTORE JUMPDEST PUSH2 0xE06 PUSH2 0x12C5 JUMP JUMPDEST PUSH2 0xE0E PUSH2 0x12CD JUMP JUMPDEST PUSH2 0xE16 PUSH2 0x12C5 JUMP JUMPDEST PUSH1 0x33 DUP1 SLOAD PUSH1 0x1 PUSH1 0x1 PUSH1 0xA0 SHL SUB DUP1 DUP14 AND PUSH1 0x1 PUSH1 0x1 PUSH1 0xA0 SHL SUB NOT SWAP3 DUP4 AND OR SWAP1 SWAP3 SSTORE PUSH1 0x34 DUP1 SLOAD DUP13 DUP5 AND SWAP1 DUP4 AND OR SWAP1 SSTORE PUSH1 0x35 DUP1 SLOAD SWAP3 DUP12 AND SWAP3 SWAP1 SWAP2 AND SWAP2 SWAP1 SWAP2 OR SWAP1 SSTORE PUSH1 0x36 DUP8 SWAP1 SSTORE PUSH1 0x37 DUP7 SWAP1 SSTORE DUP4 ISZERO PUSH2 0xEA3 JUMPI DUP5 SLOAD PUSH1 0xFF PUSH1 0x40 SHL NOT AND DUP6 SSTORE PUSH1 0x40 MLOAD PUSH1 0x1 DUP2 MSTORE PUSH32 0xC7F505B2F371AE2175EE4913F4499E1F2633A7B5936321EED1CDAEB6115181D2 SWAP1 PUSH1 0x20 ADD PUSH1 0x40 MLOAD DUP1 SWAP2 SUB SWAP1 LOG1 JUMPDEST POP POP POP POP POP POP POP POP POP POP JUMP JUMPDEST PUSH2 0xEB7 PUSH2 0xF84 JUMP JUMPDEST DUP3 DUP2 EQ PUSH2 0xF15 JUMPI PUSH1 0x40 MLOAD PUSH3 0x461BCD PUSH1 0xE5 SHL DUP2 MSTORE PUSH1 0x20 PUSH1 0x4 DUP3 ADD MSTORE PUSH1 0x26 PUSH1 0x24 DUP3 ADD MSTORE PUSH32 0x546F6B656E2049447320616E64207261726974696573206C656E677468206D69 PUSH1 0x44 DUP3 ADD MSTORE PUSH6 0xE6DAC2E8C6D PUSH1 0xD3 SHL PUSH1 0x64 DUP3 ADD MSTORE PUSH1 0x84 ADD PUSH2 0x57C JUMP JUMPDEST PUSH0 JUMPDEST DUP4 DUP2 LT ISZERO PUSH2 0xF61 JUMPI PUSH2 0xF59 DUP6 DUP6 DUP4 DUP2 DUP2 LT PUSH2 0xF34 JUMPI PUSH2 0xF34 PUSH2 0x18E2 JUMP JUMPDEST SWAP1 POP PUSH1 0x20 MUL ADD CALLDATALOAD DUP5 DUP5 DUP5 DUP2 DUP2 LT PUSH2 0xF4D JUMPI PUSH2 0xF4D PUSH2 0x18E2 JUMP JUMPDEST SWAP1 POP PUSH1 0x20 MUL ADD CALLDATALOAD PUSH2 0x979 JUMP JUMPDEST PUSH1 0x1 ADD PUSH2 0xF17 JUMP JUMPDEST POP POP POP POP POP JUMP JUMPDEST PUSH2 0xF71 DUP3 PUSH2 0x4F0 JUMP JUMPDEST PUSH2 0xF7A DUP2 PUSH2 0xFCB JUMP JUMPDEST PUSH2 0x901 DUP4 DUP4 PUSH2 0x1079 JUMP JUMPDEST PUSH0 SLOAD PUSH1 0xFF AND ISZERO PUSH2 0xFC9 JUMPI PUSH1 0x40 MLOAD PUSH3 0x461BCD PUSH1 0xE5 SHL DUP2 MSTORE PUSH1 0x20 PUSH1 0x4 DUP3 ADD MSTORE PUSH1 0x10 PUSH1 0x24 DUP3 ADD MSTORE PUSH16 0x14185D5CD8589B194E881C185D5CD959 PUSH1 0x82 SHL PUSH1 0x44 DUP3 ADD MSTORE PUSH1 0x64 ADD PUSH2 0x57C JUMP JUMPDEST JUMP JUMPDEST PUSH2 0xFD5 DUP2 CALLER PUSH2 0x12DD JUMP JUMPDEST POP JUMP JUMPDEST PUSH0 PUSH0 DUP1 MLOAD PUSH1 0x20 PUSH2 0x192D DUP4 CODECOPY DUP2 MLOAD SWAP2 MSTORE PUSH2 0xFF1 DUP5 DUP5 PUSH2 0xD11 JUMP JUMPDEST PUSH2 0x1070 JUMPI PUSH0 DUP5 DUP2 MSTORE PUSH1 0x20 DUP3 DUP2 MSTORE PUSH1 0x40 DUP1 DUP4 KECCAK256 PUSH1 0x1 PUSH1 0x1 PUSH1 0xA0 SHL SUB DUP8 AND DUP5 MSTORE SWAP1 SWAP2 MSTORE SWAP1 KECCAK256 DUP1 SLOAD PUSH1 0xFF NOT AND PUSH1 0x1 OR SWAP1 SSTORE PUSH2 0x1026 CALLER SWAP1 JUMP JUMPDEST PUSH1 0x1 PUSH1 0x1 PUSH1 0xA0 SHL SUB AND DUP4 PUSH1 0x1 PUSH1 0x1 PUSH1 0xA0 SHL SUB AND DUP6 PUSH32 0x2F8788117E7EFF1D82E926EC794901D17C78024A50270940304540A733656F0D PUSH1 0x40 MLOAD PUSH1 0x40 MLOAD DUP1 SWAP2 SUB SWAP1 LOG4 PUSH1 0x1 SWAP2 POP POP PUSH2 0x4EA JUMP JUMPDEST PUSH0 SWAP2 POP POP PUSH2 0x4EA JUMP JUMPDEST PUSH0 PUSH0 DUP1 MLOAD PUSH1 0x20 PUSH2 0x192D DUP4 CODECOPY DUP2 MLOAD SWAP2 MSTORE PUSH2 0x1092 DUP5 DUP5 PUSH2 0xD11 JUMP JUMPDEST ISZERO PUSH2 0x1070 JUMPI PUSH0 DUP5 DUP2 MSTORE PUSH1 0x20 DUP3 DUP2 MSTORE PUSH1 0x40 DUP1 DUP4 KECCAK256 PUSH1 0x1 PUSH1 0x1 PUSH1 0xA0 SHL SUB DUP8 AND DUP1 DUP6 MSTORE SWAP3 MSTORE DUP1 DUP4 KECCAK256 DUP1 SLOAD PUSH1 0xFF NOT AND SWAP1 SSTORE MLOAD CALLER SWAP3 DUP8 SWAP2 PUSH32 0xF6391F5C32D9C69D2A47EA670B442974B53935D1EDC7FD64EB21E047A839171B SWAP2 SWAP1 LOG4 PUSH1 0x1 SWAP2 POP POP PUSH2 0x4EA JUMP JUMPDEST ADDRESS PUSH1 0x1 PUSH1 0x1 PUSH1 0xA0 SHL SUB PUSH32 0x0 AND EQ DUP1 PUSH2 0x1178 JUMPI POP PUSH32 0x0 PUSH1 0x1 PUSH1 0x1 PUSH1 0xA0 SHL SUB AND PUSH2 0x116C PUSH0 DUP1 MLOAD PUSH1 0x20 PUSH2 0x190D DUP4 CODECOPY DUP2 MLOAD SWAP2 MSTORE SLOAD PUSH1 0x1 PUSH1 0x1 PUSH1 0xA0 SHL SUB AND SWAP1 JUMP JUMPDEST PUSH1 0x1 PUSH1 0x1 PUSH1 0xA0 SHL SUB AND EQ ISZERO JUMPDEST ISZERO PUSH2 0xFC9 JUMPI PUSH1 0x40 MLOAD PUSH4 0x703E46DD PUSH1 0xE1 SHL DUP2 MSTORE PUSH1 0x4 ADD PUSH1 0x40 MLOAD DUP1 SWAP2 SUB SWAP1 REVERT JUMPDEST PUSH32 0x189AB7A9244DF0848122154315AF71FE140F3DB0FE014031783B0946B8C9D2E3 PUSH2 0x95A DUP2 PUSH2 0xFCB JUMP JUMPDEST DUP2 PUSH1 0x1 PUSH1 0x1 PUSH1 0xA0 SHL SUB AND PUSH4 0x52D1902D PUSH1 0x40 MLOAD DUP2 PUSH4 0xFFFFFFFF AND PUSH1 0xE0 SHL DUP2 MSTORE PUSH1 0x4 ADD PUSH1 0x20 PUSH1 0x40 MLOAD DUP1 DUP4 SUB DUP2 DUP7 GAS STATICCALL SWAP3 POP POP POP DUP1 ISZERO PUSH2 0x121A JUMPI POP PUSH1 0x40 DUP1 MLOAD PUSH1 0x1F RETURNDATASIZE SWAP1 DUP2 ADD PUSH1 0x1F NOT AND DUP3 ADD SWAP1 SWAP3 MSTORE PUSH2 0x1217 SWAP2 DUP2 ADD SWAP1 PUSH2 0x18CB JUMP JUMPDEST PUSH1 0x1 JUMPDEST PUSH2 0x1242 JUMPI PUSH1 0x40 MLOAD PUSH4 0x4C9C8CE3 PUSH1 0xE0 SHL DUP2 MSTORE PUSH1 0x1 PUSH1 0x1 PUSH1 0xA0 SHL SUB DUP4 AND PUSH1 0x4 DUP3 ADD MSTORE PUSH1 0x24 ADD PUSH2 0x57C JUMP JUMPDEST PUSH0 DUP1 MLOAD PUSH1 0x20 PUSH2 0x190D DUP4 CODECOPY DUP2 MLOAD SWAP2 MSTORE DUP2 EQ PUSH2 0x1272 JUMPI PUSH1 0x40 MLOAD PUSH4 0x2A875269 PUSH1 0xE2 SHL DUP2 MSTORE PUSH1 0x4 DUP2 ADD DUP3 SWAP1 MSTORE PUSH1 0x24 ADD PUSH2 0x57C JUMP JUMPDEST PUSH2 0x93A DUP4 DUP4 PUSH2 0x1316 JUMP JUMPDEST ADDRESS PUSH1 0x1 PUSH1 0x1 PUSH1 0xA0 SHL SUB PUSH32 0x0 AND EQ PUSH2 0xFC9 JUMPI PUSH1 0x40 MLOAD PUSH4 0x703E46DD PUSH1 0xE1 SHL DUP2 MSTORE PUSH1 0x4 ADD PUSH1 0x40 MLOAD DUP1 SWAP2 SUB SWAP1 REVERT JUMPDEST PUSH2 0xFC9 PUSH2 0x136B JUMP JUMPDEST PUSH2 0x12D5 PUSH2 0x136B JUMP JUMPDEST PUSH2 0xFC9 PUSH2 0x13B4 JUMP JUMPDEST PUSH2 0x12E7 DUP3 DUP3 PUSH2 0xD11 JUMP JUMPDEST PUSH2 0x95A JUMPI PUSH1 0x40 MLOAD PUSH4 0xE2517D3F PUSH1 0xE0 SHL DUP2 MSTORE PUSH1 0x1 PUSH1 0x1 PUSH1 0xA0 SHL SUB DUP3 AND PUSH1 0x4 DUP3 ADD MSTORE PUSH1 0x24 DUP2 ADD DUP4 SWAP1 MSTORE PUSH1 0x44 ADD PUSH2 0x57C JUMP JUMPDEST PUSH2 0x131F DUP3 PUSH2 0x13C7 JUMP JUMPDEST PUSH1 0x40 MLOAD PUSH1 0x1 PUSH1 0x1 PUSH1 0xA0 SHL SUB DUP4 AND SWAP1 PUSH32 0xBC7CD75A20EE27FD9ADEBAB32041F755214DBC6BFFA90CC0225B39DA2E5C2D3B SWAP1 PUSH0 SWAP1 LOG2 DUP1 MLOAD ISZERO PUSH2 0x1363 JUMPI PUSH2 0x93A DUP3 DUP3 PUSH2 0x142A JUMP JUMPDEST PUSH2 0x95A PUSH2 0x149C JUMP JUMPDEST PUSH32 0xF0C57E16840DF040F15088DC2F81FE391C3923BEC73E23A9662EFC9C229C6A00 SLOAD PUSH1 0x1 PUSH1 0x40 SHL SWAP1 DIV PUSH1 0xFF AND PUSH2 0xFC9 JUMPI PUSH1 0x40 MLOAD PUSH4 0x1AFCD79F PUSH1 0xE3 SHL DUP2 MSTORE PUSH1 0x4 ADD PUSH1 0x40 MLOAD DUP1 SWAP2 SUB SWAP1 REVERT JUMPDEST PUSH2 0x13BC PUSH2 0x136B JUMP JUMPDEST PUSH0 DUP1 SLOAD PUSH1 0xFF NOT AND SWAP1 SSTORE JUMP JUMPDEST DUP1 PUSH1 0x1 PUSH1 0x1 PUSH1 0xA0 SHL SUB AND EXTCODESIZE PUSH0 SUB PUSH2 0x13FC JUMPI PUSH1 0x40 MLOAD PUSH4 0x4C9C8CE3 PUSH1 0xE0 SHL DUP2 MSTORE PUSH1 0x1 PUSH1 0x1 PUSH1 0xA0 SHL SUB DUP3 AND PUSH1 0x4 DUP3 ADD MSTORE PUSH1 0x24 ADD PUSH2 0x57C JUMP JUMPDEST PUSH0 DUP1 MLOAD PUSH1 0x20 PUSH2 0x190D DUP4 CODECOPY DUP2 MLOAD SWAP2 MSTORE DUP1 SLOAD PUSH1 0x1 PUSH1 0x1 PUSH1 0xA0 SHL SUB NOT AND PUSH1 0x1 PUSH1 0x1 PUSH1 0xA0 SHL SUB SWAP3 SWAP1 SWAP3 AND SWAP2 SWAP1 SWAP2 OR SWAP1 SSTORE JUMP JUMPDEST PUSH1 0x60 PUSH0 DUP1 DUP5 PUSH1 0x1 PUSH1 0x1 PUSH1 0xA0 SHL SUB AND DUP5 PUSH1 0x40 MLOAD PUSH2 0x1446 SWAP2 SWAP1 PUSH2 0x18F6 JUMP JUMPDEST PUSH0 PUSH1 0x40 MLOAD DUP1 DUP4 SUB DUP2 DUP6 GAS DELEGATECALL SWAP2 POP POP RETURNDATASIZE DUP1 PUSH0 DUP2 EQ PUSH2 0x147E JUMPI PUSH1 0x40 MLOAD SWAP2 POP PUSH1 0x1F NOT PUSH1 0x3F RETURNDATASIZE ADD AND DUP3 ADD PUSH1 0x40 MSTORE RETURNDATASIZE DUP3 MSTORE RETURNDATASIZE PUSH0 PUSH1 0x20 DUP5 ADD RETURNDATACOPY PUSH2 0x1483 JUMP JUMPDEST PUSH1 0x60 SWAP2 POP JUMPDEST POP SWAP2 POP SWAP2 POP PUSH2 0x1493 DUP6 DUP4 DUP4 PUSH2 0x14BB JUMP JUMPDEST SWAP6 SWAP5 POP POP POP POP POP JUMP JUMPDEST CALLVALUE ISZERO PUSH2 0xFC9 JUMPI PUSH1 0x40 MLOAD PUSH4 0xB398979F PUSH1 0xE0 SHL DUP2 MSTORE PUSH1 0x4 ADD PUSH1 0x40 MLOAD DUP1 SWAP2 SUB SWAP1 REVERT JUMPDEST PUSH1 0x60 DUP3 PUSH2 0x14D0 JUMPI PUSH2 0x14CB DUP3 PUSH2 0x151A JUMP JUMPDEST PUSH2 0x1513 JUMP JUMPDEST DUP2 MLOAD ISZERO DUP1 ISZERO PUSH2 0x14E7 JUMPI POP PUSH1 0x1 PUSH1 0x1 PUSH1 0xA0 SHL SUB DUP5 AND EXTCODESIZE ISZERO JUMPDEST ISZERO PUSH2 0x1510 JUMPI PUSH1 0x40 MLOAD PUSH4 0x9996B315 PUSH1 0xE0 SHL DUP2 MSTORE PUSH1 0x1 PUSH1 0x1 PUSH1 0xA0 SHL SUB DUP6 AND PUSH1 0x4 DUP3 ADD MSTORE PUSH1 0x24 ADD PUSH2 0x57C JUMP JUMPDEST POP DUP1 JUMPDEST SWAP4 SWAP3 POP POP POP JUMP JUMPDEST DUP1 MLOAD ISZERO PUSH2 0x152A JUMPI DUP1 MLOAD DUP1 DUP3 PUSH1 0x20 ADD REVERT JUMPDEST PUSH1 0x40 MLOAD PUSH4 0xA12F521 PUSH1 0xE1 SHL DUP2 MSTORE PUSH1 0x4 ADD PUSH1 0x40 MLOAD DUP1 SWAP2 SUB SWAP1 REVERT JUMPDEST PUSH0 PUSH1 0x20 DUP3 DUP5 SUB SLT ISZERO PUSH2 0x1553 JUMPI PUSH0 DUP1 REVERT JUMPDEST DUP2 CALLDATALOAD PUSH1 0x1 PUSH1 0x1 PUSH1 0xE0 SHL SUB NOT DUP2 AND DUP2 EQ PUSH2 0x1513 JUMPI PUSH0 DUP1 REVERT JUMPDEST PUSH0 PUSH1 0x20 DUP3 DUP5 SUB SLT ISZERO PUSH2 0x157A JUMPI PUSH0 DUP1 REVERT JUMPDEST POP CALLDATALOAD SWAP2 SWAP1 POP JUMP JUMPDEST PUSH1 0x1 PUSH1 0x1 PUSH1 0xA0 SHL SUB DUP2 AND DUP2 EQ PUSH2 0xFD5 JUMPI PUSH0 DUP1 REVERT JUMPDEST PUSH0 DUP1 PUSH1 0x40 DUP4 DUP6 SUB SLT ISZERO PUSH2 0x15A6 JUMPI PUSH0 DUP1 REVERT JUMPDEST DUP3 CALLDATALOAD SWAP2 POP PUSH1 0x20 DUP4 ADD CALLDATALOAD PUSH2 0x15B8 DUP2 PUSH2 0x1581 JUMP JUMPDEST DUP1 SWAP2 POP POP SWAP3 POP SWAP3 SWAP1 POP JUMP JUMPDEST PUSH4 0x4E487B71 PUSH1 0xE0 SHL PUSH0 MSTORE PUSH1 0x41 PUSH1 0x4 MSTORE PUSH1 0x24 PUSH0 REVERT JUMPDEST PUSH0 DUP1 PUSH1 0x40 DUP4 DUP6 SUB SLT ISZERO PUSH2 0x15E8 JUMPI PUSH0 DUP1 REVERT JUMPDEST DUP3 CALLDATALOAD PUSH2 0x15F3 DUP2 PUSH2 0x1581 JUMP JUMPDEST SWAP2 POP PUSH1 0x20 DUP4 ADD CALLDATALOAD PUSH8 0xFFFFFFFFFFFFFFFF DUP2 GT ISZERO PUSH2 0x160E JUMPI PUSH0 DUP1 REVERT JUMPDEST DUP4 ADD PUSH1 0x1F DUP2 ADD DUP6 SGT PUSH2 0x161E JUMPI PUSH0 DUP1 REVERT JUMPDEST DUP1 CALLDATALOAD PUSH8 0xFFFFFFFFFFFFFFFF DUP2 GT ISZERO PUSH2 0x1638 JUMPI PUSH2 0x1638 PUSH2 0x15C3 JUMP JUMPDEST PUSH1 0x40 MLOAD PUSH1 0x1F DUP3 ADD PUSH1 0x1F NOT SWAP1 DUP2 AND PUSH1 0x3F ADD AND DUP2 ADD PUSH8 0xFFFFFFFFFFFFFFFF DUP2 GT DUP3 DUP3 LT OR ISZERO PUSH2 0x1667 JUMPI PUSH2 0x1667 PUSH2 0x15C3 JUMP JUMPDEST PUSH1 0x40 MSTORE DUP2 DUP2 MSTORE DUP3 DUP3 ADD PUSH1 0x20 ADD DUP8 LT ISZERO PUSH2 0x167E JUMPI PUSH0 DUP1 REVERT JUMPDEST DUP2 PUSH1 0x20 DUP5 ADD PUSH1 0x20 DUP4 ADD CALLDATACOPY PUSH0 PUSH1 0x20 DUP4 DUP4 ADD ADD MSTORE DUP1 SWAP4 POP POP POP POP SWAP3 POP SWAP3 SWAP1 POP JUMP JUMPDEST PUSH0 DUP1 PUSH1 0x40 DUP4 DUP6 SUB SLT ISZERO PUSH2 0x16AE JUMPI PUSH0 DUP1 REVERT JUMPDEST POP POP DUP1 CALLDATALOAD SWAP3 PUSH1 0x20 SWAP1 SWAP2 ADD CALLDATALOAD SWAP2 POP JUMP JUMPDEST PUSH0 DUP1 PUSH0 DUP1 PUSH0 PUSH1 0xA0 DUP7 DUP9 SUB SLT ISZERO PUSH2 0x16D1 JUMPI PUSH0 DUP1 REVERT JUMPDEST DUP6 CALLDATALOAD PUSH2 0x16DC DUP2 PUSH2 0x1581 JUMP JUMPDEST SWAP5 POP PUSH1 0x20 DUP7 ADD CALLDATALOAD PUSH2 0x16EC DUP2 PUSH2 0x1581 JUMP JUMPDEST SWAP4 POP PUSH1 0x40 DUP7 ADD CALLDATALOAD PUSH2 0x16FC DUP2 PUSH2 0x1581 JUMP JUMPDEST SWAP5 SWAP8 SWAP4 SWAP7 POP SWAP4 SWAP5 PUSH1 0x60 DUP2 ADD CALLDATALOAD SWAP5 POP PUSH1 0x80 ADD CALLDATALOAD SWAP3 SWAP2 POP POP JUMP JUMPDEST PUSH1 0x20 DUP2 MSTORE PUSH0 DUP3 MLOAD DUP1 PUSH1 0x20 DUP5 ADD MSTORE DUP1 PUSH1 0x20 DUP6 ADD PUSH1 0x40 DUP6 ADD MCOPY PUSH0 PUSH1 0x40 DUP3 DUP6 ADD ADD MSTORE PUSH1 0x40 PUSH1 0x1F NOT PUSH1 0x1F DUP4 ADD AND DUP5 ADD ADD SWAP2 POP POP SWAP3 SWAP2 POP POP JUMP JUMPDEST PUSH0 DUP1 DUP4 PUSH1 0x1F DUP5 ADD SLT PUSH2 0x1759 JUMPI PUSH0 DUP1 REVERT JUMPDEST POP DUP2 CALLDATALOAD PUSH8 0xFFFFFFFFFFFFFFFF DUP2 GT ISZERO PUSH2 0x1770 JUMPI PUSH0 DUP1 REVERT JUMPDEST PUSH1 0x20 DUP4 ADD SWAP2 POP DUP4 PUSH1 0x20 DUP3 PUSH1 0x5 SHL DUP6 ADD ADD GT ISZERO PUSH2 0x178A JUMPI PUSH0 DUP1 REVERT JUMPDEST SWAP3 POP SWAP3 SWAP1 POP JUMP JUMPDEST PUSH0 DUP1 PUSH0 DUP1 PUSH1 0x40 DUP6 DUP8 SUB SLT ISZERO PUSH2 0x17A4 JUMPI PUSH0 DUP1 REVERT JUMPDEST DUP5 CALLDATALOAD PUSH8 0xFFFFFFFFFFFFFFFF DUP2 GT ISZERO PUSH2 0x17BA JUMPI PUSH0 DUP1 REVERT JUMPDEST PUSH2 0x17C6 DUP8 DUP3 DUP9 ADD PUSH2 0x1749 JUMP JUMPDEST SWAP1 SWAP6 POP SWAP4 POP POP PUSH1 0x20 DUP6 ADD CALLDATALOAD PUSH8 0xFFFFFFFFFFFFFFFF DUP2 GT ISZERO PUSH2 0x17E5 JUMPI PUSH0 DUP1 REVERT JUMPDEST PUSH2 0x17F1 DUP8 DUP3 DUP9 ADD PUSH2 0x1749 JUMP JUMPDEST SWAP6 SWAP9 SWAP5 SWAP8 POP SWAP6 POP POP POP POP JUMP JUMPDEST PUSH4 0x4E487B71 PUSH1 0xE0 SHL PUSH0 MSTORE PUSH1 0x11 PUSH1 0x4 MSTORE PUSH1 0x24 PUSH0 REVERT JUMPDEST DUP2 DUP2 SUB DUP2 DUP2 GT ISZERO PUSH2 0x4EA JUMPI PUSH2 0x4EA PUSH2 0x17FD JUMP JUMPDEST DUP1 DUP3 MUL DUP2 ISZERO DUP3 DUP3 DIV DUP5 EQ OR PUSH2 0x4EA JUMPI PUSH2 0x4EA PUSH2 0x17FD JUMP JUMPDEST PUSH0 DUP3 PUSH2 0x1855 JUMPI PUSH4 0x4E487B71 PUSH1 0xE0 SHL PUSH0 MSTORE PUSH1 0x12 PUSH1 0x4 MSTORE PUSH1 0x24 PUSH0 REVERT JUMPDEST POP DIV SWAP1 JUMP JUMPDEST PUSH0 PUSH1 0x20 DUP3 DUP5 SUB SLT ISZERO PUSH2 0x186A JUMPI PUSH0 DUP1 REVERT JUMPDEST DUP2 MLOAD DUP1 ISZERO ISZERO DUP2 EQ PUSH2 0x1513 JUMPI PUSH0 DUP1 REVERT JUMPDEST PUSH0 PUSH1 0x20 DUP3 DUP5 SUB SLT ISZERO PUSH2 0x1889 JUMPI PUSH0 DUP1 REVERT JUMPDEST DUP2 MLOAD PUSH2 0x1513 DUP2 PUSH2 0x1581 JUMP JUMPDEST PUSH1 0x1 PUSH1 0x1 PUSH1 0xA0 SHL SUB SWAP5 DUP6 AND DUP2 MSTORE SWAP3 SWAP1 SWAP4 AND PUSH1 0x20 DUP4 ADD MSTORE PUSH1 0x40 DUP3 ADD MSTORE PUSH1 0x60 DUP2 ADD SWAP2 SWAP1 SWAP2 MSTORE PUSH1 0xA0 PUSH1 0x80 DUP3 ADD DUP2 SWAP1 MSTORE PUSH0 SWAP1 DUP3 ADD MSTORE PUSH1 0xC0 ADD SWAP1 JUMP JUMPDEST PUSH0 PUSH1 0x20 DUP3 DUP5 SUB SLT ISZERO PUSH2 0x18DB JUMPI PUSH0 DUP1 REVERT JUMPDEST POP MLOAD SWAP2 SWAP1 POP JUMP JUMPDEST PUSH4 0x4E487B71 PUSH1 0xE0 SHL PUSH0 MSTORE PUSH1 0x32 PUSH1 0x4 MSTORE PUSH1 0x24 PUSH0 REVERT JUMPDEST PUSH0 DUP3 MLOAD DUP1 PUSH1 0x20 DUP6 ADD DUP5 MCOPY PUSH0 SWAP3 ADD SWAP2 DUP3 MSTORE POP SWAP2 SWAP1 POP JUMP INVALID CALLDATASIZE ADDMOD SWAP5 LOG1 EXTCODESIZE LOG1 LOG3 0x21 MOD PUSH8 0xC828492DB98DCA3E KECCAK256 PUSH23 0xCC3735A920A3CA505D382BBC02DD7BC7DEC4DCEEDDA775 0xE5 DUP14 0xD5 COINBASE 0xE0 DUP11 GT PUSH13 0x6C53815C0BD028192F7B626800 LOG2 PUSH5 0x6970667358 0x22 SLT KECCAK256 SWAP4 0xB9 0xA8 DUP14 SHL CODESIZE 0x27 0xE3 TSTORE RETURN SWAP14 0xB0 0xC4 CREATE2 CREATE 0xB1 POP BALANCE SWAP6 PUSH25 0x818A3A84E007496B58530EA64736F6C634300081A00330000 "
				},
				"gasEstimates": {
					"creation": {
						"codeDepositCost": "1306000",
						"executionCost": "infinite",
						"totalCost": "infinite"
					},
					"external": {
						"DEFAULT_ADMIN_ROLE()": "304",
						"PAUSER_ROLE()": "304",
						"UPGRADER_ROLE()": "326",
						"UPGRADE_INTERFACE_VERSION()": "infinite",
						"cqnft1155Token()": "2403",
						"cqnftToken()": "2381",
						"cqtToken()": "2448",
						"getRoleAdmin(bytes32)": "infinite",
						"grantRole(bytes32,address)": "infinite",
						"hasRole(bytes32,address)": "infinite",
						"initialize(address,address,address,uint256,uint256)": "infinite",
						"minimumStakingPeriod()": "2339",
						"paused()": "2402",
						"proxiableUUID()": "infinite",
						"renounceRole(bytes32,address)": "29115",
						"revokeRole(bytes32,address)": "infinite",
						"rewardRate()": "2317",
						"stake(uint256,uint256)": "infinite",
						"stakeBatch(uint256[],uint256[])": "infinite",
						"stakes(uint256)": "13230",
						"supportsInterface(bytes4)": "447",
						"unstake(uint256)": "infinite",
						"upgradeToAndCall(address,bytes)": "infinite"
					},
					"internal": {
						"_authorizeUpgrade(address)": "infinite"
					}
				},
				"methodIdentifiers": {
					"DEFAULT_ADMIN_ROLE()": "a217fddf",
					"PAUSER_ROLE()": "e63ab1e9",
					"UPGRADER_ROLE()": "f72c0d8b",
					"UPGRADE_INTERFACE_VERSION()": "ad3cb1cc",
					"cqnft1155Token()": "8172885b",
					"cqnftToken()": "4d9a824d",
					"cqtToken()": "34aab064",
					"getRoleAdmin(bytes32)": "248a9ca3",
					"grantRole(bytes32,address)": "2f2ff15d",
					"hasRole(bytes32,address)": "91d14854",
					"initialize(address,address,address,uint256,uint256)": "a6b63eb8",
					"minimumStakingPeriod()": "7ebed54c",
					"paused()": "5c975abb",
					"proxiableUUID()": "52d1902d",
					"renounceRole(bytes32,address)": "36568abe",
					"revokeRole(bytes32,address)": "d547741f",
					"rewardRate()": "7b0a47ee",
					"stake(uint256,uint256)": "7b0472f0",
					"stakeBatch(uint256[],uint256[])": "d0f7d24f",
					"stakes(uint256)": "d5a44f86",
					"supportsInterface(bytes4)": "01ffc9a7",
					"unstake(uint256)": "2e17de78",
					"upgradeToAndCall(address,bytes)": "4f1ef286"
				}
			},
			"storageLayout": {
				"storage": [
					{
						"astId": 820,
						"contract": "src/smartcontracts/CryptoQuestTheShardsOfGenesisStaking.sol:CryptoQuestTheShardsOfGenesisStaking",
						"label": "_paused",
						"offset": 0,
						"slot": "0",
						"type": "t_bool"
					},
					{
						"astId": 925,
						"contract": "src/smartcontracts/CryptoQuestTheShardsOfGenesisStaking.sol:CryptoQuestTheShardsOfGenesisStaking",
						"label": "__gap",
						"offset": 0,
						"slot": "1",
						"type": "t_array(t_uint256)49_storage"
					},
					{
						"astId": 2167,
						"contract": "src/smartcontracts/CryptoQuestTheShardsOfGenesisStaking.sol:CryptoQuestTheShardsOfGenesisStaking",
						"label": "stakes",
						"offset": 0,
						"slot": "50",
						"type": "t_mapping(t_uint256,t_struct(Stake)2162_storage)"
					},
					{
						"astId": 2169,
						"contract": "src/smartcontracts/CryptoQuestTheShardsOfGenesisStaking.sol:CryptoQuestTheShardsOfGenesisStaking",
						"label": "cqtToken",
						"offset": 0,
						"slot": "51",
						"type": "t_address"
					},
					{
						"astId": 2171,
						"contract": "src/smartcontracts/CryptoQuestTheShardsOfGenesisStaking.sol:CryptoQuestTheShardsOfGenesisStaking",
						"label": "cqnftToken",
						"offset": 0,
						"slot": "52",
						"type": "t_address"
					},
					{
						"astId": 2173,
						"contract": "src/smartcontracts/CryptoQuestTheShardsOfGenesisStaking.sol:CryptoQuestTheShardsOfGenesisStaking",
						"label": "cqnft1155Token",
						"offset": 0,
						"slot": "53",
						"type": "t_address"
					},
					{
						"astId": 2175,
						"contract": "src/smartcontracts/CryptoQuestTheShardsOfGenesisStaking.sol:CryptoQuestTheShardsOfGenesisStaking",
						"label": "rewardRate",
						"offset": 0,
						"slot": "54",
						"type": "t_uint256"
					},
					{
						"astId": 2177,
						"contract": "src/smartcontracts/CryptoQuestTheShardsOfGenesisStaking.sol:CryptoQuestTheShardsOfGenesisStaking",
						"label": "minimumStakingPeriod",
						"offset": 0,
						"slot": "55",
						"type": "t_uint256"
					}
				],
				"types": {
					"t_address": {
						"encoding": "inplace",
						"label": "address",
						"numberOfBytes": "20"
					},
					"t_array(t_uint256)49_storage": {
						"base": "t_uint256",
						"encoding": "inplace",
						"label": "uint256[49]",
						"numberOfBytes": "1568"
					},
					"t_bool": {
						"encoding": "inplace",
						"label": "bool",
						"numberOfBytes": "1"
					},
					"t_mapping(t_uint256,t_struct(Stake)2162_storage)": {
						"encoding": "mapping",
						"key": "t_uint256",
						"label": "mapping(uint256 => struct CryptoQuestTheShardsOfGenesisStaking.Stake)",
						"numberOfBytes": "32",
						"value": "t_struct(Stake)2162_storage"
					},
					"t_struct(Stake)2162_storage": {
						"encoding": "inplace",
						"label": "struct CryptoQuestTheShardsOfGenesisStaking.Stake",
						"members": [
							{
								"astId": 2151,
								"contract": "src/smartcontracts/CryptoQuestTheShardsOfGenesisStaking.sol:CryptoQuestTheShardsOfGenesisStaking",
								"label": "tokenId",
								"offset": 0,
								"slot": "0",
								"type": "t_uint256"
							},
							{
								"astId": 2153,
								"contract": "src/smartcontracts/CryptoQuestTheShardsOfGenesisStaking.sol:CryptoQuestTheShardsOfGenesisStaking",
								"label": "owner",
								"offset": 0,
								"slot": "1",
								"type": "t_address"
							},
							{
								"astId": 2155,
								"contract": "src/smartcontracts/CryptoQuestTheShardsOfGenesisStaking.sol:CryptoQuestTheShardsOfGenesisStaking",
								"label": "stakeTime",
								"offset": 0,
								"slot": "2",
								"type": "t_uint256"
							},
							{
								"astId": 2157,
								"contract": "src/smartcontracts/CryptoQuestTheShardsOfGenesisStaking.sol:CryptoQuestTheShardsOfGenesisStaking",
								"label": "unstakeTime",
								"offset": 0,
								"slot": "3",
								"type": "t_uint256"
							},
							{
								"astId": 2159,
								"contract": "src/smartcontracts/CryptoQuestTheShardsOfGenesisStaking.sol:CryptoQuestTheShardsOfGenesisStaking",
								"label": "reward",
								"offset": 0,
								"slot": "4",
								"type": "t_uint256"
							},
							{
								"astId": 2161,
								"contract": "src/smartcontracts/CryptoQuestTheShardsOfGenesisStaking.sol:CryptoQuestTheShardsOfGenesisStaking",
								"label": "rarity",
								"offset": 0,
								"slot": "5",
								"type": "t_uint256"
							}
						],
						"numberOfBytes": "192"
					},
					"t_uint256": {
						"encoding": "inplace",
						"label": "uint256",
						"numberOfBytes": "32"
					}
				}
			},
			"userdoc": {
				"kind": "user",
				"methods": {},
				"version": 1
			}
		}
	}
}