{
	"data": {
		"bytecode": {
			"linkReferences": {},
			"object": "60a060405230608052348015610013575f80fd5b5061001c610021565b6100d3565b7ff0c57e16840df040f15088dc2f81fe391c3923bec73e23a9662efc9c229c6a00805468010000000000000000900460ff16156100715760405163f92ee8a960e01b815260040160405180910390fd5b80546001600160401b03908116146100d05780546001600160401b0319166001600160401b0390811782556040519081527fc7f505b2f371ae2175ee4913f4499e1f2633a7b5936321eed1cdaeb6115181d29060200160405180910390a15b50565b608051615c1d6100f95f395f81816128d1015281816128fa0152612a310152615c1d5ff3fe6080604052600436106103e2575f3560e01c80638a300225116101ff578063c7da203711610113578063e54584f4116100a8578063f2fde38b11610078578063f2fde38b14610d37578063f88699481461089c578063f8ce560a14610d56578063fc0c546a14610d75578063fe0d94c114610d89575f80fd5b8063e54584f414610ca1578063eb9019d414610cda578063ece40cc114610cf9578063f23a6e6114610d18575f80fd5b8063dd4e2ba5116100e3578063dd4e2ba514610beb578063ddf0b00914610c30578063deaaa7cc14610c4f578063e540d01d14610c82575f80fd5b8063c7da203714610b68578063cf7d5a4214610ba4578063d33219b414610bc3578063da35c66414610bd7575f80fd5b8063a9a9529411610194578063bc197c8111610164578063bc197c8114610ad9578063c01f9e3714610af8578063c0c53b8b14610b17578063c28bc2fa14610b36578063c59057e414610b49575f80fd5b8063a9a9529414610a34578063ab58fb8e14610a53578063ad3cb1cc14610a95578063b58131b014610ac5575f80fd5b806397c3d334116101cf57806397c3d334146109cf5780639a802a6d146109e2578063a7713a7014610a01578063a890c91014610a15575f80fd5b80638a300225146109525780638da5cb5b146109715780638ff262e31461098557806391ddadf4146109a4575f80fd5b8063452115d6116102f65780635f398a141161028b5780637b3c71d31161025b5780637b3c71d31461087d5780637b94c53e1461089c5780637d5e81e2146108b95780637ecebe00146108d857806384b0196e1461092b575f80fd5b80635f398a141461080c57806360c4247f1461082b578063715018a61461084a578063790518871461085e575f80fd5b8063544ffc9c116102c6578063544ffc9c1461074657806354fd4d50146107a557806356781388146107ce5780635b8d0e0d146107ed575f80fd5b8063452115d6146106ec5780634bf5d7e91461070b5780634f1ef2861461071f57806352d1902d14610732575f80fd5b80632656227d1161037757806335853d951161034757806335853d951461061a5780633932abb1146106395780633e4f49e61461064d57806340e58ee5146106795780634385963214610698575f80fd5b80632656227d146105855780632d63f693146105985780632e82db94146105b75780632fe3e261146105e7575f80fd5b8063143489d0116103b2578063143489d0146104c8578063150b7a02146104ff578063160cbed71461053757806316e9eaec14610556575f80fd5b806301ffc9a71461041d57806302a251a31461045157806306f3f9e61461048857806306fdde03146104a7575f80fd5b3661041957306103f0610d9c565b6001600160a01b03161461041757604051637485328f60e11b815260040160405180910390fd5b005b5f80fd5b348015610428575f80fd5b5061043c6104373660046148c7565b610daa565b60405190151581526020015b60405180910390f35b34801561045c575f80fd5b505f80516020615ac783398151915254600160301b900463ffffffff165b604051908152602001610448565b348015610493575f80fd5b506104176104a23660046148ee565b610dfb565b3480156104b2575f80fd5b506104bb610e0c565b6040516104489190614933565b3480156104d3575f80fd5b506104e76104e23660046148ee565b610ead565b6040516001600160a01b039091168152602001610448565b34801561050a575f80fd5b5061051e610519366004614a17565b610ed3565b6040516001600160e01b03199091168152602001610448565b348015610542575f80fd5b5061047a610551366004614be7565b610f15565b348015610561575f80fd5b506105756105703660046148ee565b610ff3565b6040516104489493929190614d47565b61047a610593366004614be7565b611201565b3480156105a3575f80fd5b5061047a6105b23660046148ee565b611380565b3480156105c2575f80fd5b506105d66105d13660046148ee565b6113ac565b604051610448959493929190614d91565b3480156105f2575f80fd5b5061047a7f3e83946653575f9a39005e1545185629e92736b7528ab20ca3816f315424a81181565b348015610625575f80fd5b50610417610634366004614de2565b611408565b348015610644575f80fd5b5061047a611410565b348015610658575f80fd5b5061066c6106673660046148ee565b61142e565b6040516104489190614e31565b348015610684575f80fd5b506104176106933660046148ee565b611438565b3480156106a3575f80fd5b5061043c6106b2366004614e3f565b5f9182525f80516020615b88833981519152602090815260408084206001600160a01b039390931684526003909201905290205460ff1690565b3480156106f7575f80fd5b5061047a610706366004614be7565b6115fd565b348015610716575f80fd5b506104bb61166d565b61041761072d366004614e6d565b611714565b34801561073d575f80fd5b5061047a611733565b348015610751575f80fd5b5061078a6107603660046148ee565b5f9081525f80516020615b8883398151915260205260409020805460018201546002909201549092565b60408051938452602084019290925290820152606001610448565b3480156107b0575f80fd5b506040805180820190915260018152603160f81b60208201526104bb565b3480156107d9575f80fd5b5061047a6107e8366004614ec9565b61174e565b3480156107f8575f80fd5b5061047a610807366004614f37565b611775565b348015610817575f80fd5b5061047a610826366004614ff3565b6118b4565b348015610836575f80fd5b5061047a6108453660046148ee565b611907565b348015610855575f80fd5b506104176119b4565b348015610869575f80fd5b50610417610878366004615087565b6119c7565b348015610888575f80fd5b5061047a6108973660046150a2565b6119d8565b3480156108a7575f80fd5b506104176108b63660046150f7565b50565b3480156108c4575f80fd5b5061047a6108d3366004615128565b611a1e565b3480156108e3575f80fd5b5061047a6108f2366004614de2565b6001600160a01b03165f9081527f5ab42ced628888259c08ac98db1eb0cf702fc1501344311d8b100cd1bfe4bb00602052604090205490565b348015610936575f80fd5b5061093f611ad8565b60405161044897969594939291906151c5565b34801561095d575f80fd5b5061047a61096c366004615128565b611b81565b34801561097c575f80fd5b506104e7611b90565b348015610990575f80fd5b5061047a61099f366004615234565b611bc4565b3480156109af575f80fd5b506109b8611c76565b60405165ffffffffffff9091168152602001610448565b3480156109da575f80fd5b50606461047a565b3480156109ed575f80fd5b5061047a6109fc366004615281565b611ce4565b348015610a0c575f80fd5b5061047a611cfa565b348015610a20575f80fd5b50610417610a2f366004614de2565b611d34565b348015610a3f575f80fd5b5061043c610a4e3660046148ee565b611d45565b348015610a5e575f80fd5b5061047a610a6d3660046148ee565b5f9081525f80516020615aa7833981519152602052604090206001015465ffffffffffff1690565b348015610aa0575f80fd5b506104bb604051806040016040528060058152602001640352e302e360dc1b81525081565b348015610ad0575f80fd5b5061047a611d4d565b348015610ae4575f80fd5b5061051e610af33660046152d5565b611d56565b348015610b03575f80fd5b5061047a610b123660046148ee565b611d99565b348015610b22575f80fd5b50610417610b3136600461536c565b611df7565b610417610b443660046153b4565b611f73565b348015610b54575f80fd5b5061047a610b63366004614be7565b611fef565b348015610b73575f80fd5b506040805180820190915260148152735472656173757279207265706f7274206461746160601b60208201526104bb565b348015610baf575f80fd5b50610417610bbe3660046153f3565b612028565b348015610bce575f80fd5b506104e7612068565b348015610be2575f80fd5b5061047a61207d565b348015610bf6575f80fd5b506040805180820190915260208082527f737570706f72743d627261766f2671756f72756d3d666f722c6162737461696e908201526104bb565b348015610c3b575f80fd5b50610417610c4a3660046148ee565b612095565b348015610c5a575f80fd5b5061047a7ff2aad550cf55f045cb27e9c559f9889fdfb6e6cdaa032301d6ea397784ae51d781565b348015610c8d575f80fd5b50610417610c9c36600461541d565b612254565b348015610cac575f80fd5b5060408051808201909152601181527047616d65206d657472696373206461746160781b60208201526104bb565b348015610ce5575f80fd5b5061047a610cf43660046153f3565b612265565b348015610d04575f80fd5b50610417610d133660046148ee565b612284565b348015610d23575f80fd5b5061051e610d32366004615440565b612295565b348015610d42575f80fd5b50610417610d51366004614de2565b6122d8565b348015610d61575f80fd5b5061047a610d703660046148ee565b612312565b348015610d80575f80fd5b506104e761231c565b610417610d973660046148ee565b612344565b5f610da5612068565b905090565b5f6001600160e01b031982166332a2ad4360e11b1480610dda57506001600160e01b03198216630271189760e51b145b80610df557506301ffc9a760e01b6001600160e01b03198316145b92915050565b610e03612503565b6108b68161258c565b5f80516020615bc88339815191528054606091908190610e2b90615497565b80601f0160208091040260200160405190810160405280929190818152602001828054610e5790615497565b8015610ea25780601f10610e7957610100808354040283529160200191610ea2565b820191905f5260205f20905b815481529060010190602001808311610e8557829003601f168201915b505050505091505090565b5f9081525f80516020615aa783398151915260205260409020546001600160a01b031690565b5f30610edd610d9c565b6001600160a01b031614610f0457604051637485328f60e11b815260040160405180910390fd5b50630a85bd0160e11b949350505050565b5f5f80516020615bc883398151915281610f3187878787611fef565b9050610f4681610f416004612642565b612664565b505f610f5582898989896126a1565b905065ffffffffffff811615610fcf575f82815260018481016020908152604092839020909101805465ffffffffffff191665ffffffffffff85169081179091558251858152918201527f9a2e42fd6722813d69113e7d0079d3d940171428df7373df9c7f7617cfda2892910160405180910390a1610fe8565b604051634844252360e11b815260040160405180910390fd5b509695505050505050565b606080805f805f80516020615b088339815191525f87815260018201602090815260408083208151815460a09481028201850190935260808101838152959650939490928492849184018282801561107257602002820191905f5260205f20905b81546001600160a01b03168152600190910190602001808311611054575b50505050508152602001600182018054806020026020016040519081016040528092919081815260200182805480156110c857602002820191905f5260205f20905b8154815260200190600101908083116110b4575b5050505050815260200160028201805480602002602001604051908101604052809291908181526020015f905b8282101561119d578382905f5260205f2001805461111290615497565b80601f016020809104026020016040519081016040528092919081815260200182805461113e90615497565b80156111895780601f1061116057610100808354040283529160200191611189565b820191905f5260205f20905b81548152906001019060200180831161116c57829003601f168201915b5050505050815260200190600101906110f5565b505050508152602001600382015481525050905080606001515f801b036111df57604051636ad0607560e01b8152600481018890526024015b60405180910390fd5b8051602082015160408301516060909301519199909850919650945092505050565b5f5f80516020615bc88339815191528161121d87878787611fef565b905061123d8161122d6005612642565b6112376004612642565b17612664565b505f8181526001830160205260409020805460ff60f01b1916600160f01b17905530611267610d9c565b6001600160a01b0316146112f2575f5b87518110156112f057306001600160a01b031688828151811061129c5761129c6154cf565b60200260200101516001600160a01b0316036112e8576112e88682815181106112c7576112c76154cf565b602002602001015180519060200120846002016126af90919063ffffffff16565b600101611277565b505b6112ff818888888861271f565b30611308610d9c565b6001600160a01b031614158015611336575060028201546001600160801b03808216600160801b9092041614155b15611342575f60028301555b6040518181527f712ae1383f79ac853f8d882153778e0260ef8f03b504e2866e0593e04d2b291f906020015b60405180910390a19695505050505050565b5f9081525f80516020615aa78339815191526020526040902054600160a01b900465ffffffffffff1690565b5f6060808083805f80516020615b0883398151915290505f815f0188815481106113d8576113d86154cf565b905f5260205f20015490505f805f806113f085610ff3565b979f929e50909c509a50949850939650505050505050565b6108b6612733565b5f610da55f80516020615ac78339815191525465ffffffffffff1690565b5f610df582612765565b5f8181527f7fd223d3380145bd26132714391e777c488a0df7ac2dd4b66419d8549fb3a601602090815260409182902080548351818402810184019094528084525f80516020615b088339815191529391926115f7929184918301828280156114c857602002820191905f5260205f20905b81546001600160a01b031681526001909101906020018083116114aa575b50505050508260010180548060200260200160405190810160405280929190818152602001828054801561151957602002820191905f5260205f20905b815481526020019060010190808311611505575b505050505083600201805480602002602001604051908101604052809291908181526020015f905b828210156115e9578382905f5260205f2001805461155e90615497565b80601f016020809104026020016040519081016040528092919081815260200182805461158a90615497565b80156115d55780601f106115ac576101008083540402835291602001916115d5565b820191905f5260205f20905b8154815290600101906020018083116115b857829003601f168201915b505050505081526020019060010190611541565b5050505084600301546115fd565b50505050565b5f8061160b86868686611fef565b905061161a81610f415f612642565b5061162481610ead565b6001600160a01b0316336001600160a01b0316146116575760405163233d98e360e01b81523360048201526024016111d6565b611663868686866128b0565b9695505050505050565b606061167761231c565b6001600160a01b0316634bf5d7e96040518163ffffffff1660e01b81526004015f60405180830381865afa9250505080156116d357506040513d5f823e601f3d908101601f191682016040526116d091908101906154e3565b60015b61170f575060408051808201909152601d81527f6d6f64653d626c6f636b6e756d6265722666726f6d3d64656661756c74000000602082015290565b919050565b61171c6128c6565b61172582611408565b61172f828261296a565b5050565b5f61173c612a26565b505f80516020615b6883398151915290565b5f8033905061176d84828560405180602001604052805f815250612a6f565b949350505050565b5f80611839876118337f3e83946653575f9a39005e1545185629e92736b7528ab20ca3816f315424a8118c8c8c6117ab8e612a90565b8d8d6040516117bb929190615557565b60405180910390208c805190602001206040516020016118189796959493929190968752602087019590955260ff9390931660408601526001600160a01b03919091166060850152608084015260a083015260c082015260e00190565b60405160208183030381529060405280519060200120612ad1565b85612afd565b905080611864576040516394ab6c0760e01b81526001600160a01b03881660048201526024016111d6565b6118a789888a89898080601f0160208091040260200160405190810160405280939291908181526020018383808284375f920191909152508b9250612b52915050565b9998505050505050505050565b5f803390506118fc87828888888080601f0160208091040260200160405190810160405280939291908181526020018383808284375f920191909152508a9250612b52915050565b979650505050505050565b7fe770710421fd2cad75ad828c61aa98f2d77d423a440b67872d0f65554148e00080545f9190828261193a60018461557a565b8154811061194a5761194a6154cf565b5f918252602090912001805490915065ffffffffffff811690600160301b90046001600160d01b031686821161198d576001600160d01b03169695505050505050565b6119a061199988612c2c565b8690612c62565b6001600160d01b0316979650505050505050565b6119bc612733565b6119c55f612d11565b565b6119cf612503565b6108b681612d81565b5f8033905061166386828787878080601f0160208091040260200160405190810160405280939291908181526020018383808284375f92019190915250612a6f92505050565b5f33611a2a8184612e03565b611a525760405163d9b3955760e01b81526001600160a01b03821660048201526024016111d6565b5f611a78826001611a61611c76565b611a6b919061558d565b65ffffffffffff16612265565b90505f611a83611d4d565b905080821015611abf57604051636121770b60e11b81526001600160a01b038416600482015260248101839052604481018290526064016111d6565b611acc8888888887612eeb565b98975050505050505050565b5f60608082808083815f80516020615b288339815191528054909150158015611b0357506001810154155b611b475760405162461bcd60e51b81526020600482015260156024820152741152540dcc4c8e88155b9a5b9a5d1a585b1a5e9959605a1b60448201526064016111d6565b611b4f612ef9565b611b57612f37565b604080515f80825260208201909252600f60f81b9c939b5091995046985030975095509350915050565b5f336116638686868685612eeb565b5f807f9016d09d72d40fdae2fd8ceac6b6234c7706214fd39c1cd1e609a0528c1993005b546001600160a01b031692915050565b5f80611c31846118337ff2aad550cf55f045cb27e9c559f9889fdfb6e6cdaa032301d6ea397784ae51d7898989611bfa8b612a90565b60408051602081019690965285019390935260ff90911660608401526001600160a01b0316608083015260a082015260c001611818565b905080611c5c576040516394ab6c0760e01b81526001600160a01b03851660048201526024016111d6565b61166386858760405180602001604052805f815250612a6f565b5f611c7f61231c565b6001600160a01b03166391ddadf46040518163ffffffff1660e01b8152600401602060405180830381865afa925050508015611cd8575060408051601f3d908101601f19168201909252611cd5918101906155ab565b60015b61170f57610da5612f75565b5f611cf0848484612f7f565b90505b9392505050565b5f7fe770710421fd2cad75ad828c61aa98f2d77d423a440b67872d0f65554148e000611d2581612ff9565b6001600160d01b031691505090565b611d3c612503565b6108b681613030565b5f6001610df5565b5f610da56130a5565b5f30611d60610d9c565b6001600160a01b031614611d8757604051637485328f60e11b815260040160405180910390fd5b5063bc197c8160e01b95945050505050565b5f8181525f80516020615aa783398151915260205260408120545f80516020615bc883398151915290611de890600160d01b810463ffffffff1690600160a01b900465ffffffffffff166155c6565b65ffffffffffff169392505050565b7ff0c57e16840df040f15088dc2f81fe391c3923bec73e23a9662efc9c229c6a008054600160401b810460ff1615906001600160401b03165f81158015611e3b5750825b90505f826001600160401b03166001148015611e565750303b155b905081158015611e64575080155b15611e825760405163f92ee8a960e01b815260040160405180910390fd5b845467ffffffffffffffff191660011785558315611eac57845460ff60401b1916600160401b1785555b611ecd604051806060016040528060218152602001615ae7602191396130ba565b611edd61384061c4e0600a6130f2565b611ee5613105565b611eed613105565b611ef68861310d565b611f00600461311e565b611f098761312f565b611f1286613140565b611f1a613105565b611f2386612d11565b8315611f6957845460ff60401b19168555604051600181527fc7f505b2f371ae2175ee4913f4499e1f2633a7b5936321eed1cdaeb6115181d29060200160405180910390a15b5050505050505050565b611f7b612503565b5f80856001600160a01b0316858585604051611f98929190615557565b5f6040518083038185875af1925050503d805f8114611fd2576040519150601f19603f3d011682016040523d82523d5f602084013e611fd7565b606091505b5091509150611fe68282613151565b50505050505050565b5f848484846040516020016120079493929190614d47565b60408051601f19818403018152919052805160209091012095945050505050565b612030612733565b6040516001600160a01b0383169082156108fc029083905f818181858888f19350505050158015612063573d5f803e3d5ffd5b505050565b5f805f80516020615ba8833981519152611bb4565b5f805f80516020615b088339815191525b5492915050565b5f8181527f7fd223d3380145bd26132714391e777c488a0df7ac2dd4b66419d8549fb3a601602090815260409182902080548351818402810184019094528084525f80516020615b088339815191529391926115f79291849183018282801561212557602002820191905f5260205f20905b81546001600160a01b03168152600190910190602001808311612107575b50505050508260010180548060200260200160405190810160405280929190818152602001828054801561217657602002820191905f5260205f20905b815481526020019060010190808311612162575b505050505083600201805480602002602001604051908101604052809291908181526020015f905b82821015612246578382905f5260205f200180546121bb90615497565b80601f01602080910402602001604051908101604052809291908181526020018280546121e790615497565b80156122325780601f1061220957610100808354040283529160200191612232565b820191905f5260205f20905b81548152906001019060200180831161221557829003601f168201915b50505050508152602001906001019061219e565b505050508460030154610f15565b61225c612503565b6108b68161316d565b5f611cf3838361227f60408051602081019091525f815290565b612f7f565b61228c612503565b6108b68161321a565b5f3061229f610d9c565b6001600160a01b0316146122c657604051637485328f60e11b815260040160405180910390fd5b5063f23a6e6160e01b95945050505050565b6122e0612733565b6001600160a01b03811661230957604051631e4fbdf760e01b81525f60048201526024016111d6565b6108b681612d11565b5f610df582613267565b5f807f3ba4977254e415696610a40ebf2258dbfa0ec6a2ff64e84bfe715ff16977cc00611bb4565b5f8181527f7fd223d3380145bd26132714391e777c488a0df7ac2dd4b66419d8549fb3a601602090815260409182902080548351818402810184019094528084525f80516020615b088339815191529391926115f7929184918301828280156123d457602002820191905f5260205f20905b81546001600160a01b031681526001909101906020018083116123b6575b50505050508260010180548060200260200160405190810160405280929190818152602001828054801561242557602002820191905f5260205f20905b815481526020019060010190808311612411575b505050505083600201805480602002602001604051908101604052809291908181526020015f905b828210156124f5578382905f5260205f2001805461246a90615497565b80601f016020809104026020016040519081016040528092919081815260200182805461249690615497565b80156124e15780601f106124b8576101008083540402835291602001916124e1565b820191905f5260205f20905b8154815290600101906020018083116124c457829003601f168201915b50505050508152602001906001019061244d565b505050508460030154611201565b5f80516020615bc88339815191523361251a610d9c565b6001600160a01b031614612543576040516347096e4760e01b81523360048201526024016111d6565b3061254c610d9c565b6001600160a01b0316146108b6575f803660405161256b929190615557565b604051809103902090505b80612583836002016132fb565b03612576575050565b7fe770710421fd2cad75ad828c61aa98f2d77d423a440b67872d0f65554148e0006064808311156125da5760405163243e544560e01b815260048101849052602481018290526044016111d6565b5f6125e3611cfa565b90506126016125f0611c76565b6125f986613377565b8591906133aa565b505060408051828152602081018690527f0553476bf02ef2726e8ce5ced78d63e26e602e4a2257b1f559418e24b4633997910160405180910390a150505050565b5f81600781111561265557612655614dfd565b600160ff919091161b92915050565b5f8061266f8461142e565b90505f8361267c83612642565b1603611cf3578381846040516331b75e4d60e01b81526004016111d6939291906155e4565b5f61166386868686866133c4565b81546001600160801b03600160801b8204811691811660018301909116036126ea57604051638acb5f2760e01b815260040160405180910390fd5b6001600160801b038082165f90815260018086016020526040909120939093558354919092018216600160801b029116179055565b61272c858585858561355d565b5050505050565b3361273c611b90565b6001600160a01b0316146119c55760405163118cdaa760e01b81523360048201526024016111d6565b5f5f80516020615ba88339815191528161277e846135fe565b9050600581600781111561279457612794614dfd565b146127a0579392505050565b5f848152600183016020526040908190205483549151632c258a9f60e11b81526004810182905290916001600160a01b03169063584b153e90602401602060405180830381865afa1580156127f7573d5f803e3d5ffd5b505050506040513d601f19601f8201168201806040525081019061281b9190615606565b1561282b57506005949350505050565b8254604051632ab0f52960e01b8152600481018390526001600160a01b0390911690632ab0f52990602401602060405180830381865afa158015612871573d5f803e3d5ffd5b505050506040513d601f19601f820116820180604052508101906128959190615606565b156128a557506007949350505050565b506002949350505050565b5f6128bd8585858561376a565b95945050505050565b306001600160a01b037f000000000000000000000000000000000000000000000000000000000000000016148061294c57507f00000000000000000000000000000000000000000000000000000000000000006001600160a01b03166129405f80516020615b68833981519152546001600160a01b031690565b6001600160a01b031614155b156119c55760405163703e46dd60e11b815260040160405180910390fd5b816001600160a01b03166352d1902d6040518163ffffffff1660e01b8152600401602060405180830381865afa9250505080156129c4575060408051601f3d908101601f191682019092526129c191810190615625565b60015b6129ec57604051634c9c8ce360e01b81526001600160a01b03831660048201526024016111d6565b5f80516020615b688339815191528114612a1c57604051632a87526960e21b8152600481018290526024016111d6565b6120638383613813565b306001600160a01b037f000000000000000000000000000000000000000000000000000000000000000016146119c55760405163703e46dd60e11b815260040160405180910390fd5b5f6128bd85858585612a8b60408051602081019091525f815290565b612b52565b6001600160a01b03165f9081527f5ab42ced628888259c08ac98db1eb0cf702fc1501344311d8b100cd1bfe4bb006020526040902080546001810190915590565b5f610df5612add613868565b8360405161190160f01b8152600281019290925260228201526042902090565b5f805f612b0a8585613871565b5090925090505f816003811115612b2357612b23614dfd565b148015612b415750856001600160a01b0316826001600160a01b0316145b8061166357506116638686866138ba565b5f612b6186610f416001612642565b505f612b7686612b7089611380565b85612f7f565b9050612b858787878487613990565b82515f03612bd957856001600160a01b03167fb8e138887d0aa13bab447e82de9d5c1777041ecd21ca36ba824ff1e6c07ddda488878488604051612bcc949392919061563c565b60405180910390a2611663565b856001600160a01b03167fe2babfbac5889a709b63bb7f598b324e08bc5a4fb9ec647fb3cbc9ec07eb87128887848888604051612c1a959493929190615663565b60405180910390a29695505050505050565b5f65ffffffffffff821115612c5e576040516306dfcc6560e41b815260306004820152602481018390526044016111d6565b5090565b81545f9081816005811115612cbe575f612c7b84613a91565b612c85908561557a565b5f8881526020902090915081015465ffffffffffff9081169087161015612cae57809150612cbc565b612cb981600161569c565b92505b505b5f612ccb87878585613b75565b90508015612d0557612cef87612ce260018461557a565b5f91825260209091200190565b54600160301b90046001600160d01b03166118fc565b5f979650505050505050565b7f9016d09d72d40fdae2fd8ceac6b6234c7706214fd39c1cd1e609a0528c19930080546001600160a01b031981166001600160a01b03848116918217845560405192169182907f8be0079c531659141344cd1fd0a4f28419497f9722a3daafe3b4186f6b6457e0905f90a3505050565b5f80516020615ac7833981519152546040805165ffffffffffff9283168152918316602083015280515f80516020615b48833981519152927fc565b045403dc03c2eea82b81a0465edad9e2e7fc4d97e11421c209da93d7a9392908290030190a1600101805465ffffffffffff191665ffffffffffff92909216919091179055565b80515f906034811015612e1a576001915050610df5565b82810160131901516001600160a01b031981166b046e0e4dee0dee6cae47a60f60a31b14612e4d57600192505050610df5565b5f80612e5a60288561557a565b90505b83811015612eca575f80612e90888481518110612e7c57612e7c6154cf565b01602001516001600160f81b031916613bd4565b9150915081612ea85760019650505050505050610df5565b8060ff166004856001600160a01b0316901b1793505050806001019050612e5d565b50856001600160a01b0316816001600160a01b031614935050505092915050565b5f6116638686868686613c64565b7fa16a46d94261c7517cc8ff89f61c0ce93598e3c849801011dee649a6a557d10280546060915f80516020615b2883398151915291610e2b90615497565b7fa16a46d94261c7517cc8ff89f61c0ce93598e3c849801011dee649a6a557d10380546060915f80516020615b2883398151915291610e2b90615497565b5f610da543612c2c565b5f612f8861231c565b604051630748d63560e31b81526001600160a01b038681166004830152602482018690529190911690633a46b1a890604401602060405180830381865afa158015612fd5573d5f803e3d5ffd5b505050506040513d601f19601f82011682018060405250810190611cf09190615625565b80545f9080156130285761301283612ce260018461557a565b54600160301b90046001600160d01b0316611cf3565b5f9392505050565b5f80516020615ba88339815191528054604080516001600160a01b039283168152918416602083015280517f08f74ea46ef7894f65eabfb5e6e695de773a000b47c529ab559178069b2264019281900390910190a180546001600160a01b0319166001600160a01b0392909216919091179055565b5f805f80516020615b4883398151915261208e565b6130c2613d2e565b6130e9816130e46040805180820190915260018152603160f81b602082015290565b613d77565b6108b681613dd6565b6130fa613d2e565b612063838383613df7565b6119c5613d2e565b613115613d2e565b6108b681613e1a565b613126613d2e565b6108b681613e63565b613137613d2e565b6108b681613e6b565b613148613d2e565b6108b681613e73565b6060826131665761316182613e7b565b610df5565b5080610df5565b5f80516020615b4883398151915263ffffffff82165f036131a35760405163f1cfbf0560e01b81525f60048201526024016111d6565b60018101546040805163ffffffff600160301b9093048316815291841660208301527f7e3f7f0708a84de9203036abaa450dccc85ad5ff52f78c170f3edb55cf5e8828910160405180910390a1600101805463ffffffff909216600160301b0269ffffffff00000000000019909216919091179055565b5f80516020615b488339815191528054604080519182526020820184905280517fccb45da8d5717e6c4544694297c4ba5cf151d455c9bb0ed4fc7a38411bc054619281900390910190a155565b5f606461327383611907565b61327b61231c565b6001600160a01b0316638e539e8c856040518263ffffffff1660e01b81526004016132a891815260200190565b602060405180830381865afa1580156132c3573d5f803e3d5ffd5b505050506040513d601f19601f820116820180604052508101906132e79190615625565b6132f191906156af565b610df591906156da565b80545f906001600160801b0380821691600160801b9004168103613332576040516375e52f4f60e01b815260040160405180910390fd5b6001600160801b038181165f908152600185810160205260408220805492905585546fffffffffffffffffffffffffffffffff19169301909116919091179092555090565b5f6001600160d01b03821115612c5e576040516306dfcc6560e41b815260d06004820152602481018390526044016111d6565b5f806133b7858585613ea4565b915091505b935093915050565b5f80516020615ba883398151915280546040805163793d064960e11b815290515f939284926001600160a01b039091169163f27a0c92916004808201926020929091908290030181865afa15801561341e573d5f803e3d5ffd5b505050506040513d601f19601f820116820180604052508101906134429190615625565b90505f3060601b6bffffffffffffffffffffffff19168518835460405163b1c5f42760e01b81529192506001600160a01b03169063b1c5f42790613492908b908b908b905f9088906004016156f9565b602060405180830381865afa1580156134ad573d5f803e3d5ffd5b505050506040513d601f19601f820116820180604052508101906134d19190615625565b5f8a815260018501602052604080822092909255845491516308f2a0bb60e41b81526001600160a01b0390921691638f2a0bb09161351c918c918c918c919088908a90600401615746565b5f604051808303815f87803b158015613533575f80fd5b505af1158015613545573d5f803e3d5ffd5b505050506118a78242613558919061569c565b612c2c565b5f80516020615ba8833981519152805460405163e38335e560e01b81526001600160a01b039091169063e38335e59034906135b8908990899089905f906bffffffffffffffffffffffff193060601b168b18906004016156f9565b5f604051808303818588803b1580156135cf575f80fd5b505af11580156135e1573d5f803e3d5ffd5b5050505f9788525050600101602052505060408320929092555050565b5f8181525f80516020615aa78339815191526020526040812080545f80516020615bc8833981519152919060ff600160f01b8204811691600160f81b900416811561364f5750600795945050505050565b80156136615750600295945050505050565b5f61366b87611380565b9050805f0361369057604051636ad0607560e01b8152600481018890526024016111d6565b5f613699611c76565b65ffffffffffff1690508082106136b757505f979650505050505050565b5f6136c189611d99565b90508181106136d95750600198975050505050505050565b6136e28961401a565b158061370d57505f8981525f80516020615b8883398151915260205260409020805460019091015411155b156137215750600398975050505050505050565b5f8981525f80516020615aa7833981519152602052604090206001015465ffffffffffff165f0361375b5750600498975050505050505050565b50600598975050505050505050565b5f5f80516020615ba8833981519152816137868787878761405f565b5f8181526001840160205260409020549091508015610fe857825460405163c4d252f560e01b8152600481018390526001600160a01b039091169063c4d252f5906024015f604051808303815f87803b1580156137e1575f80fd5b505af11580156137f3573d5f803e3d5ffd5b5050505f8381526001850160205260408120555050915050949350505050565b61381c8261411e565b6040516001600160a01b038316907fbc7cd75a20ee27fd9adebab32041f755214dbc6bffa90cc0225b39da2e5c2d3b905f90a2805115613860576120638282614181565b61172f6141ea565b5f610da5614209565b5f805f83516041036138a8576020840151604085015160608601515f1a61389a8882858561427c565b9550955095505050506138b3565b505081515f91506002905b9250925092565b5f805f856001600160a01b031685856040516024016138da92919061579d565b60408051601f198184030181529181526020820180516001600160e01b0316630b135d3f60e11b1790525161390f91906157b5565b5f60405180830381855afa9150503d805f8114613947576040519150601f19603f3d011682016040523d82523d5f602084013e61394c565b606091505b509150915081801561396057506020815110155b801561166357508051630b135d3f60e11b906139859083016020908101908401615625565b149695505050505050565b5f8581525f80516020615b88833981519152602081815260408084206001600160a01b0389168552600381019092529092205490919060ff16156139f2576040516371c6af4960e01b81526001600160a01b03871660048201526024016111d6565b6001600160a01b0386165f9081526003820160205260409020805460ff1916600117905560ff8516613a3b5783815f015f828254613a30919061569c565b90915550611fe69050565b5f1960ff861601613a595783816001015f828254613a30919061569c565b60011960ff861601613a785783816002015f828254613a30919061569c565b6040516303599be160e11b815260040160405180910390fd5b5f815f03613aa057505f919050565b5f6001613aac84614344565b901c6001901b90506001818481613ac557613ac56156c6565b048201901c90506001818481613add57613add6156c6565b048201901c90506001818481613af557613af56156c6565b048201901c90506001818481613b0d57613b0d6156c6565b048201901c90506001818481613b2557613b256156c6565b048201901c90506001818481613b3d57613b3d6156c6565b048201901c90506001818481613b5557613b556156c6565b048201901c9050611cf381828581613b6f57613b6f6156c6565b046143d7565b5f5b81831015613bcc575f613b8a84846143ec565b5f8781526020902090915065ffffffffffff86169082015465ffffffffffff161115613bb857809250613bc6565b613bc381600161569c565b93505b50613b77565b509392505050565b5f8060f883901c602f81118015613bee5750603a8160ff16105b15613c0357600194602f199091019350915050565b8060ff166040108015613c19575060478160ff16105b15613c2e576001946036199091019350915050565b8060ff166060108015613c44575060678160ff16105b15613c59576001946056199091019350915050565b505f93849350915050565b5f5f80516020615b0883398151915281613c818888888888614406565b8254600181810185555f8581526020808220909301849055604080516080810182528d81528085018d90528082018c90528a518b8601206060820152858352928701845290208151805194955091939092613ce0928492910190614778565b506020828101518051613cf992600185019201906147d7565b5060408201518051613d15916002840191602090910190614810565b5060609190910151600390910155979650505050505050565b7ff0c57e16840df040f15088dc2f81fe391c3923bec73e23a9662efc9c229c6a0054600160401b900460ff166119c557604051631afcd79f60e31b815260040160405180910390fd5b613d7f613d2e565b5f80516020615b288339815191527fa16a46d94261c7517cc8ff89f61c0ce93598e3c849801011dee649a6a557d102613db8848261580f565b5060038101613dc7838261580f565b505f8082556001909101555050565b613dde613d2e565b5f80516020615bc883398151915280612063838261580f565b613dff613d2e565b613e0883612d81565b613e118261316d565b6120638161321a565b613e22613d2e565b7f3ba4977254e415696610a40ebf2258dbfa0ec6a2ff64e84bfe715ff16977cc0080546001600160a01b0319166001600160a01b0392909216919091179055565b610e03613d2e565b611d3c613d2e565b6122e0613d2e565b805115613e8b5780518082602001fd5b604051630a12f52160e11b815260040160405180910390fd5b82545f9081908015613fc0575f613ec087612ce260018561557a565b60408051808201909152905465ffffffffffff808216808452600160301b9092046001600160d01b031660208401529192509087161015613f1457604051632520601d60e01b815260040160405180910390fd5b805165ffffffffffff808816911603613f605784613f3788612ce260018661557a565b80546001600160d01b0392909216600160301b0265ffffffffffff909216919091179055613fb0565b6040805180820190915265ffffffffffff80881682526001600160d01b0380881660208085019182528b54600181018d555f8d81529190912094519151909216600160301b029216919091179101555b6020015192508391506133bc9050565b50506040805180820190915265ffffffffffff80851682526001600160d01b0380851660208085019182528854600181018a555f8a815291822095519251909316600160301b0291909316179201919091559050816133bc565b5f8181525f80516020615b8883398151915260208190526040822060028101546001820154614049919061569c565b614055610d7086611380565b1115949350505050565b5f5f80516020615bc88339815191528161407b87878787611fef565b90506140c98161408b6007612642565b6140956006612642565b61409f6002612642565b60016140ac6007826158c9565b6140b79060026159bd565b6140c1919061557a565b181818612664565b505f8181526001830160205260409081902080546001600160f81b0316600160f81b179055517f789cf55be980739dad1d0699b93b58e806b51c9d96619bfa8fe0a28abaa7b30c9061136e9083815260200190565b806001600160a01b03163b5f0361415357604051634c9c8ce360e01b81526001600160a01b03821660048201526024016111d6565b5f80516020615b6883398151915280546001600160a01b0319166001600160a01b0392909216919091179055565b60605f80846001600160a01b03168460405161419d91906157b5565b5f60405180830381855af49150503d805f81146141d5576040519150601f19603f3d011682016040523d82523d5f602084013e6141da565b606091505b50915091506128bd858383614642565b34156119c55760405163b398979f60e01b815260040160405180910390fd5b5f7f8b73c3c69bb8fe3d512ecc4cf759cc79239f7b179b0ffacaa9a75d522b39400f61423361469e565b61423b614706565b60408051602081019490945283019190915260608201524660808201523060a082015260c00160405160208183030381529060405280519060200120905090565b5f80807f7fffffffffffffffffffffffffffffff5d576e7357a4501ddfe92f46681b20a08411156142b557505f9150600390508261433a565b604080515f808252602082018084528a905260ff891692820192909252606081018790526080810186905260019060a0016020604051602081039080840390855afa158015614306573d5f803e3d5ffd5b5050604051601f1901519150506001600160a01b03811661433157505f92506001915082905061433a565b92505f91508190505b9450945094915050565b5f80608083901c1561435857608092831c92015b604083901c1561436a57604092831c92015b602083901c1561437c57602092831c92015b601083901c1561438e57601092831c92015b600883901c156143a057600892831c92015b600483901c156143b257600492831c92015b600283901c156143c457600292831c92015b600183901c15610df55760010192915050565b5f8183106143e55781611cf3565b5090919050565b5f6143fa60028484186156da565b611cf39084841661569c565b5f805f80516020615bc8833981519152905061442b8787878780519060200120611fef565b91508551875114158061444057508451875114155b8061444a57508651155b1561447f57865185518751604051630447b05d60e41b81526004810193909352602483019190915260448201526064016111d6565b5f828152600182016020526040902054600160a01b900465ffffffffffff16156144ca57816144ad8361142e565b6040516331b75e4d60e01b81526111d69291905f906004016155e4565b5f6144d3611410565b6144db611c76565b65ffffffffffff166144ed919061569c565b90505f6145135f80516020615ac78339815191525463ffffffff600160301b9091041690565b5f858152600185016020526040902080546001600160a01b0319166001600160a01b03881617815590915061454783612c2c565b815465ffffffffffff91909116600160a01b0265ffffffffffff60a01b1990911617815561457482614748565b815463ffffffff91909116600160d01b0263ffffffff60d01b1990911617815589517f7d84a6263ae0d98d3329bd7b46bb4e8d6f98cd35a7adb45c274c8b7fd5ebd5e090869088908d908d906001600160401b038111156145d7576145d7614959565b60405190808252806020026020018201604052801561460a57816020015b60608152602001906001900390816145f55790505b508d896146178a8261569c565b8f60405161462d999897969594939291906159cb565b60405180910390a15050505095945050505050565b6060826146575761465282613e7b565b611cf3565b815115801561466e57506001600160a01b0384163b155b1561469757604051639996b31560e01b81526001600160a01b03851660048201526024016111d6565b5080611cf3565b5f5f80516020615b28833981519152816146b6612ef9565b8051909150156146ce57805160209091012092915050565b815480156146dd579392505050565b7fc5d2460186f7233c927e7db2dcc703c0e500b653ca82273b7bfad8045d85a470935050505090565b5f5f80516020615b288339815191528161471e612f37565b80519091501561473657805160209091012092915050565b600182015480156146dd579392505050565b5f63ffffffff821115612c5e576040516306dfcc6560e41b815260206004820152602481018390526044016111d6565b828054828255905f5260205f209081019282156147cb579160200282015b828111156147cb57825182546001600160a01b0319166001600160a01b03909116178255602090920191600190910190614796565b50612c5e929150614860565b828054828255905f5260205f209081019282156147cb579160200282015b828111156147cb5782518255916020019190600101906147f5565b828054828255905f5260205f20908101928215614854579160200282015b828111156148545782518290614844908261580f565b509160200191906001019061482e565b50612c5e929150614874565b5b80821115612c5e575f8155600101614861565b80821115612c5e575f6148878282614890565b50600101614874565b50805461489c90615497565b5f825580601f106148ab575050565b601f0160209004905f5260205f20908101906108b69190614860565b5f602082840312156148d7575f80fd5b81356001600160e01b031981168114611cf3575f80fd5b5f602082840312156148fe575f80fd5b5035919050565b5f81518084528060208401602086015e5f602082860101526020601f19601f83011685010191505092915050565b602081525f611cf36020830184614905565b6001600160a01b03811681146108b6575f80fd5b634e487b7160e01b5f52604160045260245ffd5b604051601f8201601f191681016001600160401b038111828210171561499557614995614959565b604052919050565b5f6001600160401b038211156149b5576149b5614959565b50601f01601f191660200190565b5f82601f8301126149d2575f80fd5b8135602083015f6149ea6149e58461499d565b61496d565b90508281528583830111156149fd575f80fd5b828260208301375f92810160200192909252509392505050565b5f805f8060808587031215614a2a575f80fd5b8435614a3581614945565b93506020850135614a4581614945565b92506040850135915060608501356001600160401b03811115614a66575f80fd5b614a72878288016149c3565b91505092959194509250565b5f6001600160401b03821115614a9657614a96614959565b5060051b60200190565b5f82601f830112614aaf575f80fd5b8135614abd6149e582614a7e565b8082825260208201915060208360051b860101925085831115614ade575f80fd5b602085015b83811015614b04578035614af681614945565b835260209283019201614ae3565b5095945050505050565b5f82601f830112614b1d575f80fd5b8135614b2b6149e582614a7e565b8082825260208201915060208360051b860101925085831115614b4c575f80fd5b602085015b83811015614b04578035835260209283019201614b51565b5f82601f830112614b78575f80fd5b8135614b866149e582614a7e565b8082825260208201915060208360051b860101925085831115614ba7575f80fd5b602085015b83811015614b045780356001600160401b03811115614bc9575f80fd5b614bd8886020838a01016149c3565b84525060209283019201614bac565b5f805f8060808587031215614bfa575f80fd5b84356001600160401b03811115614c0f575f80fd5b614c1b87828801614aa0565b94505060208501356001600160401b03811115614c36575f80fd5b614c4287828801614b0e565b93505060408501356001600160401b03811115614c5d575f80fd5b614c6987828801614b69565b949793965093946060013593505050565b5f8151808452602084019350602083015f5b82811015614cb35781516001600160a01b0316865260209586019590910190600101614c8c565b5093949350505050565b5f8151808452602084019350602083015f5b82811015614cb3578151865260209586019590910190600101614ccf565b5f82825180855260208501945060208160051b830101602085015f5b83811015614d3b57601f19858403018852614d25838351614905565b6020988901989093509190910190600101614d09565b50909695505050505050565b608081525f614d596080830187614c7a565b8281036020840152614d6b8187614cbd565b90508281036040840152614d7f8186614ced565b91505082606083015295945050505050565b85815260a060208201525f614da960a0830187614c7a565b8281036040840152614dbb8187614cbd565b90508281036060840152614dcf8186614ced565b9150508260808301529695505050505050565b5f60208284031215614df2575f80fd5b8135611cf381614945565b634e487b7160e01b5f52602160045260245ffd5b60088110614e2d57634e487b7160e01b5f52602160045260245ffd5b9052565b60208101610df58284614e11565b5f8060408385031215614e50575f80fd5b823591506020830135614e6281614945565b809150509250929050565b5f8060408385031215614e7e575f80fd5b8235614e8981614945565b915060208301356001600160401b03811115614ea3575f80fd5b614eaf858286016149c3565b9150509250929050565b803560ff8116811461170f575f80fd5b5f8060408385031215614eda575f80fd5b82359150614eea60208401614eb9565b90509250929050565b5f8083601f840112614f03575f80fd5b5081356001600160401b03811115614f19575f80fd5b602083019150836020828501011115614f30575f80fd5b9250929050565b5f805f805f805f60c0888a031215614f4d575f80fd5b87359650614f5d60208901614eb9565b95506040880135614f6d81614945565b945060608801356001600160401b03811115614f87575f80fd5b614f938a828b01614ef3565b90955093505060808801356001600160401b03811115614fb1575f80fd5b614fbd8a828b016149c3565b92505060a08801356001600160401b03811115614fd8575f80fd5b614fe48a828b016149c3565b91505092959891949750929550565b5f805f805f60808688031215615007575f80fd5b8535945061501760208701614eb9565b935060408601356001600160401b03811115615031575f80fd5b61503d88828901614ef3565b90945092505060608601356001600160401b0381111561505b575f80fd5b615067888289016149c3565b9150509295509295909350565b65ffffffffffff811681146108b6575f80fd5b5f60208284031215615097575f80fd5b8135611cf381615074565b5f805f80606085870312156150b5575f80fd5b843593506150c560208601614eb9565b925060408501356001600160401b038111156150df575f80fd5b6150eb87828801614ef3565b95989497509550505050565b5f60208284031215615107575f80fd5b81356001600160401b0381111561511c575f80fd5b61176d848285016149c3565b5f805f806080858703121561513b575f80fd5b84356001600160401b03811115615150575f80fd5b61515c87828801614aa0565b94505060208501356001600160401b03811115615177575f80fd5b61518387828801614b0e565b93505060408501356001600160401b0381111561519e575f80fd5b6151aa87828801614b69565b92505060608501356001600160401b03811115614a66575f80fd5b60ff60f81b8816815260e060208201525f6151e360e0830189614905565b82810360408401526151f58189614905565b606084018890526001600160a01b038716608085015260a0840186905283810360c085015290506152268185614cbd565b9a9950505050505050505050565b5f805f8060808587031215615247575f80fd5b8435935061525760208601614eb9565b9250604085013561526781614945565b915060608501356001600160401b03811115614a66575f80fd5b5f805f60608486031215615293575f80fd5b833561529e81614945565b92506020840135915060408401356001600160401b038111156152bf575f80fd5b6152cb868287016149c3565b9150509250925092565b5f805f805f60a086880312156152e9575f80fd5b85356152f481614945565b9450602086013561530481614945565b935060408601356001600160401b0381111561531e575f80fd5b61532a88828901614b0e565b93505060608601356001600160401b03811115615345575f80fd5b61535188828901614b0e565b92505060808601356001600160401b0381111561505b575f80fd5b5f805f6060848603121561537e575f80fd5b833561538981614945565b9250602084013561539981614945565b915060408401356153a981614945565b809150509250925092565b5f805f80606085870312156153c7575f80fd5b84356153d281614945565b93506020850135925060408501356001600160401b038111156150df575f80fd5b5f8060408385031215615404575f80fd5b823561540f81614945565b946020939093013593505050565b5f6020828403121561542d575f80fd5b813563ffffffff81168114611cf3575f80fd5b5f805f805f60a08688031215615454575f80fd5b853561545f81614945565b9450602086013561546f81614945565b9350604086013592506060860135915060808601356001600160401b0381111561505b575f80fd5b600181811c908216806154ab57607f821691505b6020821081036154c957634e487b7160e01b5f52602260045260245ffd5b50919050565b634e487b7160e01b5f52603260045260245ffd5b5f602082840312156154f3575f80fd5b81516001600160401b03811115615508575f80fd5b8201601f81018413615518575f80fd5b80516155266149e58261499d565b81815285602083850101111561553a575f80fd5b8160208401602083015e5f91810160200191909152949350505050565b818382375f9101908152919050565b634e487b7160e01b5f52601160045260245ffd5b81810381811115610df557610df5615566565b65ffffffffffff8281168282160390811115610df557610df5615566565b5f602082840312156155bb575f80fd5b8151611cf381615074565b65ffffffffffff8181168382160190811115610df557610df5615566565b838152606081016155f86020830185614e11565b826040830152949350505050565b5f60208284031215615616575f80fd5b81518015158114611cf3575f80fd5b5f60208284031215615635575f80fd5b5051919050565b84815260ff84166020820152826040820152608060608201525f6116636080830184614905565b85815260ff8516602082015283604082015260a060608201525f61568a60a0830185614905565b8281036080840152611acc8185614905565b80820180821115610df557610df5615566565b8082028115828204841417610df557610df5615566565b634e487b7160e01b5f52601260045260245ffd5b5f826156f457634e487b7160e01b5f52601260045260245ffd5b500490565b60a081525f61570b60a0830188614c7a565b828103602084015261571d8188614cbd565b905082810360408401526157318187614ced565b60608401959095525050608001529392505050565b60c081525f61575860c0830189614c7a565b828103602084015261576a8189614cbd565b9050828103604084015261577e8188614ced565b60608401969096525050608081019290925260a0909101529392505050565b828152604060208201525f611cf06040830184614905565b5f82518060208501845e5f920191825250919050565b601f82111561206357805f5260205f20601f840160051c810160208510156157f05750805b601f840160051c820191505b8181101561272c575f81556001016157fc565b81516001600160401b0381111561582857615828614959565b61583c816158368454615497565b846157cb565b6020601f82116001811461586e575f83156158575750848201515b5f19600385901b1c1916600184901b17845561272c565b5f84815260208120601f198516915b8281101561589d578785015182556020948501946001909201910161587d565b50848210156158ba57868401515f19600387901b60f8161c191681555b50505050600190811b01905550565b60ff8181168382160190811115610df557610df5615566565b6001815b60018411156133bc5780850481111561590157615901615566565b600184161561590f57908102905b60019390931c9280026158e6565b5f8261592b57506001610df5565b8161593757505f610df5565b816001811461594d576002811461595757615973565b6001915050610df5565b60ff84111561596857615968615566565b50506001821b610df5565b5060208310610133831016604e8410600b8410161715615996575081810a610df5565b6159a25f1984846158e2565b805f19048211156159b5576159b5615566565b029392505050565b5f611cf360ff84168361591d565b8981526001600160a01b0389166020820152610120604082018190525f906159f59083018a614c7a565b8281036060840152615a07818a614cbd565b9050828103608084015280885180835260208301915060208160051b84010160208b015f5b83811015615a5e57601f19868403018552615a48838351614905565b6020958601959093509190910190600101615a2c565b505085810360a0870152615a72818b614ced565b93505050508560c08401528460e0840152828103610100840152615a968185614905565b9c9b50505050505050505050505056fe7c712897014dbe49c045ef1299aa2d5f9e67e48eea4403efa21f1e0f3ac0cb0100d7616c8fe29c6c2fbe1d0c5bc8f2faa4c35b43746e70b24b4d532752affd0143727970746f51756573745f5468655368617264734f6647656e6573697344414f7fd223d3380145bd26132714391e777c488a0df7ac2dd4b66419d8549fb3a600a16a46d94261c7517cc8ff89f61c0ce93598e3c849801011dee649a6a557d10000d7616c8fe29c6c2fbe1d0c5bc8f2faa4c35b43746e70b24b4d532752affd00360894a13ba1a3210667c828492db98dca3e2076cc3735a920a3ca505d382bbca1cefa0f43667ef127a258e673c94202a79b656e62899531c4376d87a7f398000d5829787b8befdbc6044ef7457d8a95c2a04bc99235349f1a212c063e59d4007c712897014dbe49c045ef1299aa2d5f9e67e48eea4403efa21f1e0f3ac0cb00a26469706673582212204bda917177a06362236df798c1acb3030ef5de1d91e5bd279f2da8867b9526eb64736f6c634300081a0033",
			"opcodes": "PUSH1 0xA0 PUSH1 0x40 MSTORE ADDRESS PUSH1 0x80 MSTORE CALLVALUE DUP1 ISZERO PUSH2 0x13 JUMPI PUSH0 DUP1 REVERT JUMPDEST POP PUSH2 0x1C PUSH2 0x21 JUMP JUMPDEST PUSH2 0xD3 JUMP JUMPDEST PUSH32 0xF0C57E16840DF040F15088DC2F81FE391C3923BEC73E23A9662EFC9C229C6A00 DUP1 SLOAD PUSH9 0x10000000000000000 SWAP1 DIV PUSH1 0xFF AND ISZERO PUSH2 0x71 JUMPI PUSH1 0x40 MLOAD PUSH4 0xF92EE8A9 PUSH1 0xE0 SHL DUP2 MSTORE PUSH1 0x4 ADD PUSH1 0x40 MLOAD DUP1 SWAP2 SUB SWAP1 REVERT JUMPDEST DUP1 SLOAD PUSH1 0x1 PUSH1 0x1 PUSH1 0x40 SHL SUB SWAP1 DUP2 AND EQ PUSH2 0xD0 JUMPI DUP1 SLOAD PUSH1 0x1 PUSH1 0x1 PUSH1 0x40 SHL SUB NOT AND PUSH1 0x1 PUSH1 0x1 PUSH1 0x40 SHL SUB SWAP1 DUP2 OR DUP3 SSTORE PUSH1 0x40 MLOAD SWAP1 DUP2 MSTORE PUSH32 0xC7F505B2F371AE2175EE4913F4499E1F2633A7B5936321EED1CDAEB6115181D2 SWAP1 PUSH1 0x20 ADD PUSH1 0x40 MLOAD DUP1 SWAP2 SUB SWAP1 LOG1 JUMPDEST POP JUMP JUMPDEST PUSH1 0x80 MLOAD PUSH2 0x5C1D PUSH2 0xF9 PUSH0 CODECOPY PUSH0 DUP2 DUP2 PUSH2 0x28D1 ADD MSTORE DUP2 DUP2 PUSH2 0x28FA ADD MSTORE PUSH2 0x2A31 ADD MSTORE PUSH2 0x5C1D PUSH0 RETURN INVALID PUSH1 0x80 PUSH1 0x40 MSTORE PUSH1 0x4 CALLDATASIZE LT PUSH2 0x3E2 JUMPI PUSH0 CALLDATALOAD PUSH1 0xE0 SHR DUP1 PUSH4 0x8A300225 GT PUSH2 0x1FF JUMPI DUP1 PUSH4 0xC7DA2037 GT PUSH2 0x113 JUMPI DUP1 PUSH4 0xE54584F4 GT PUSH2 0xA8 JUMPI DUP1 PUSH4 0xF2FDE38B GT PUSH2 0x78 JUMPI DUP1 PUSH4 0xF2FDE38B EQ PUSH2 0xD37 JUMPI DUP1 PUSH4 0xF8869948 EQ PUSH2 0x89C JUMPI DUP1 PUSH4 0xF8CE560A EQ PUSH2 0xD56 JUMPI DUP1 PUSH4 0xFC0C546A EQ PUSH2 0xD75 JUMPI DUP1 PUSH4 0xFE0D94C1 EQ PUSH2 0xD89 JUMPI PUSH0 DUP1 REVERT JUMPDEST DUP1 PUSH4 0xE54584F4 EQ PUSH2 0xCA1 JUMPI DUP1 PUSH4 0xEB9019D4 EQ PUSH2 0xCDA JUMPI DUP1 PUSH4 0xECE40CC1 EQ PUSH2 0xCF9 JUMPI DUP1 PUSH4 0xF23A6E61 EQ PUSH2 0xD18 JUMPI PUSH0 DUP1 REVERT JUMPDEST DUP1 PUSH4 0xDD4E2BA5 GT PUSH2 0xE3 JUMPI DUP1 PUSH4 0xDD4E2BA5 EQ PUSH2 0xBEB JUMPI DUP1 PUSH4 0xDDF0B009 EQ PUSH2 0xC30 JUMPI DUP1 PUSH4 0xDEAAA7CC EQ PUSH2 0xC4F JUMPI DUP1 PUSH4 0xE540D01D EQ PUSH2 0xC82 JUMPI PUSH0 DUP1 REVERT JUMPDEST DUP1 PUSH4 0xC7DA2037 EQ PUSH2 0xB68 JUMPI DUP1 PUSH4 0xCF7D5A42 EQ PUSH2 0xBA4 JUMPI DUP1 PUSH4 0xD33219B4 EQ PUSH2 0xBC3 JUMPI DUP1 PUSH4 0xDA35C664 EQ PUSH2 0xBD7 JUMPI PUSH0 DUP1 REVERT JUMPDEST DUP1 PUSH4 0xA9A95294 GT PUSH2 0x194 JUMPI DUP1 PUSH4 0xBC197C81 GT PUSH2 0x164 JUMPI DUP1 PUSH4 0xBC197C81 EQ PUSH2 0xAD9 JUMPI DUP1 PUSH4 0xC01F9E37 EQ PUSH2 0xAF8 JUMPI DUP1 PUSH4 0xC0C53B8B EQ PUSH2 0xB17 JUMPI DUP1 PUSH4 0xC28BC2FA EQ PUSH2 0xB36 JUMPI DUP1 PUSH4 0xC59057E4 EQ PUSH2 0xB49 JUMPI PUSH0 DUP1 REVERT JUMPDEST DUP1 PUSH4 0xA9A95294 EQ PUSH2 0xA34 JUMPI DUP1 PUSH4 0xAB58FB8E EQ PUSH2 0xA53 JUMPI DUP1 PUSH4 0xAD3CB1CC EQ PUSH2 0xA95 JUMPI DUP1 PUSH4 0xB58131B0 EQ PUSH2 0xAC5 JUMPI PUSH0 DUP1 REVERT JUMPDEST DUP1 PUSH4 0x97C3D334 GT PUSH2 0x1CF JUMPI DUP1 PUSH4 0x97C3D334 EQ PUSH2 0x9CF JUMPI DUP1 PUSH4 0x9A802A6D EQ PUSH2 0x9E2 JUMPI DUP1 PUSH4 0xA7713A70 EQ PUSH2 0xA01 JUMPI DUP1 PUSH4 0xA890C910 EQ PUSH2 0xA15 JUMPI PUSH0 DUP1 REVERT JUMPDEST DUP1 PUSH4 0x8A300225 EQ PUSH2 0x952 JUMPI DUP1 PUSH4 0x8DA5CB5B EQ PUSH2 0x971 JUMPI DUP1 PUSH4 0x8FF262E3 EQ PUSH2 0x985 JUMPI DUP1 PUSH4 0x91DDADF4 EQ PUSH2 0x9A4 JUMPI PUSH0 DUP1 REVERT JUMPDEST DUP1 PUSH4 0x452115D6 GT PUSH2 0x2F6 JUMPI DUP1 PUSH4 0x5F398A14 GT PUSH2 0x28B JUMPI DUP1 PUSH4 0x7B3C71D3 GT PUSH2 0x25B JUMPI DUP1 PUSH4 0x7B3C71D3 EQ PUSH2 0x87D JUMPI DUP1 PUSH4 0x7B94C53E EQ PUSH2 0x89C JUMPI DUP1 PUSH4 0x7D5E81E2 EQ PUSH2 0x8B9 JUMPI DUP1 PUSH4 0x7ECEBE00 EQ PUSH2 0x8D8 JUMPI DUP1 PUSH4 0x84B0196E EQ PUSH2 0x92B JUMPI PUSH0 DUP1 REVERT JUMPDEST DUP1 PUSH4 0x5F398A14 EQ PUSH2 0x80C JUMPI DUP1 PUSH4 0x60C4247F EQ PUSH2 0x82B JUMPI DUP1 PUSH4 0x715018A6 EQ PUSH2 0x84A JUMPI DUP1 PUSH4 0x79051887 EQ PUSH2 0x85E JUMPI PUSH0 DUP1 REVERT JUMPDEST DUP1 PUSH4 0x544FFC9C GT PUSH2 0x2C6 JUMPI DUP1 PUSH4 0x544FFC9C EQ PUSH2 0x746 JUMPI DUP1 PUSH4 0x54FD4D50 EQ PUSH2 0x7A5 JUMPI DUP1 PUSH4 0x56781388 EQ PUSH2 0x7CE JUMPI DUP1 PUSH4 0x5B8D0E0D EQ PUSH2 0x7ED JUMPI PUSH0 DUP1 REVERT JUMPDEST DUP1 PUSH4 0x452115D6 EQ PUSH2 0x6EC JUMPI DUP1 PUSH4 0x4BF5D7E9 EQ PUSH2 0x70B JUMPI DUP1 PUSH4 0x4F1EF286 EQ PUSH2 0x71F JUMPI DUP1 PUSH4 0x52D1902D EQ PUSH2 0x732 JUMPI PUSH0 DUP1 REVERT JUMPDEST DUP1 PUSH4 0x2656227D GT PUSH2 0x377 JUMPI DUP1 PUSH4 0x35853D95 GT PUSH2 0x347 JUMPI DUP1 PUSH4 0x35853D95 EQ PUSH2 0x61A JUMPI DUP1 PUSH4 0x3932ABB1 EQ PUSH2 0x639 JUMPI DUP1 PUSH4 0x3E4F49E6 EQ PUSH2 0x64D JUMPI DUP1 PUSH4 0x40E58EE5 EQ PUSH2 0x679 JUMPI DUP1 PUSH4 0x43859632 EQ PUSH2 0x698 JUMPI PUSH0 DUP1 REVERT JUMPDEST DUP1 PUSH4 0x2656227D EQ PUSH2 0x585 JUMPI DUP1 PUSH4 0x2D63F693 EQ PUSH2 0x598 JUMPI DUP1 PUSH4 0x2E82DB94 EQ PUSH2 0x5B7 JUMPI DUP1 PUSH4 0x2FE3E261 EQ PUSH2 0x5E7 JUMPI PUSH0 DUP1 REVERT JUMPDEST DUP1 PUSH4 0x143489D0 GT PUSH2 0x3B2 JUMPI DUP1 PUSH4 0x143489D0 EQ PUSH2 0x4C8 JUMPI DUP1 PUSH4 0x150B7A02 EQ PUSH2 0x4FF JUMPI DUP1 PUSH4 0x160CBED7 EQ PUSH2 0x537 JUMPI DUP1 PUSH4 0x16E9EAEC EQ PUSH2 0x556 JUMPI PUSH0 DUP1 REVERT JUMPDEST DUP1 PUSH4 0x1FFC9A7 EQ PUSH2 0x41D JUMPI DUP1 PUSH4 0x2A251A3 EQ PUSH2 0x451 JUMPI DUP1 PUSH4 0x6F3F9E6 EQ PUSH2 0x488 JUMPI DUP1 PUSH4 0x6FDDE03 EQ PUSH2 0x4A7 JUMPI PUSH0 DUP1 REVERT JUMPDEST CALLDATASIZE PUSH2 0x419 JUMPI ADDRESS PUSH2 0x3F0 PUSH2 0xD9C JUMP JUMPDEST PUSH1 0x1 PUSH1 0x1 PUSH1 0xA0 SHL SUB AND EQ PUSH2 0x417 JUMPI PUSH1 0x40 MLOAD PUSH4 0x7485328F PUSH1 0xE1 SHL DUP2 MSTORE PUSH1 0x4 ADD PUSH1 0x40 MLOAD DUP1 SWAP2 SUB SWAP1 REVERT JUMPDEST STOP JUMPDEST PUSH0 DUP1 REVERT JUMPDEST CALLVALUE DUP1 ISZERO PUSH2 0x428 JUMPI PUSH0 DUP1 REVERT JUMPDEST POP PUSH2 0x43C PUSH2 0x437 CALLDATASIZE PUSH1 0x4 PUSH2 0x48C7 JUMP JUMPDEST PUSH2 0xDAA JUMP JUMPDEST PUSH1 0x40 MLOAD SWAP1 ISZERO ISZERO DUP2 MSTORE PUSH1 0x20 ADD JUMPDEST PUSH1 0x40 MLOAD DUP1 SWAP2 SUB SWAP1 RETURN JUMPDEST CALLVALUE DUP1 ISZERO PUSH2 0x45C JUMPI PUSH0 DUP1 REVERT JUMPDEST POP PUSH0 DUP1 MLOAD PUSH1 0x20 PUSH2 0x5AC7 DUP4 CODECOPY DUP2 MLOAD SWAP2 MSTORE SLOAD PUSH1 0x1 PUSH1 0x30 SHL SWAP1 DIV PUSH4 0xFFFFFFFF AND JUMPDEST PUSH1 0x40 MLOAD SWAP1 DUP2 MSTORE PUSH1 0x20 ADD PUSH2 0x448 JUMP JUMPDEST CALLVALUE DUP1 ISZERO PUSH2 0x493 JUMPI PUSH0 DUP1 REVERT JUMPDEST POP PUSH2 0x417 PUSH2 0x4A2 CALLDATASIZE PUSH1 0x4 PUSH2 0x48EE JUMP JUMPDEST PUSH2 0xDFB JUMP JUMPDEST CALLVALUE DUP1 ISZERO PUSH2 0x4B2 JUMPI PUSH0 DUP1 REVERT JUMPDEST POP PUSH2 0x4BB PUSH2 0xE0C JUMP JUMPDEST PUSH1 0x40 MLOAD PUSH2 0x448 SWAP2 SWAP1 PUSH2 0x4933 JUMP JUMPDEST CALLVALUE DUP1 ISZERO PUSH2 0x4D3 JUMPI PUSH0 DUP1 REVERT JUMPDEST POP PUSH2 0x4E7 PUSH2 0x4E2 CALLDATASIZE PUSH1 0x4 PUSH2 0x48EE JUMP JUMPDEST PUSH2 0xEAD JUMP JUMPDEST PUSH1 0x40 MLOAD PUSH1 0x1 PUSH1 0x1 PUSH1 0xA0 SHL SUB SWAP1 SWAP2 AND DUP2 MSTORE PUSH1 0x20 ADD PUSH2 0x448 JUMP JUMPDEST CALLVALUE DUP1 ISZERO PUSH2 0x50A JUMPI PUSH0 DUP1 REVERT JUMPDEST POP PUSH2 0x51E PUSH2 0x519 CALLDATASIZE PUSH1 0x4 PUSH2 0x4A17 JUMP JUMPDEST PUSH2 0xED3 JUMP JUMPDEST PUSH1 0x40 MLOAD PUSH1 0x1 PUSH1 0x1 PUSH1 0xE0 SHL SUB NOT SWAP1 SWAP2 AND DUP2 MSTORE PUSH1 0x20 ADD PUSH2 0x448 JUMP JUMPDEST CALLVALUE DUP1 ISZERO PUSH2 0x542 JUMPI PUSH0 DUP1 REVERT JUMPDEST POP PUSH2 0x47A PUSH2 0x551 CALLDATASIZE PUSH1 0x4 PUSH2 0x4BE7 JUMP JUMPDEST PUSH2 0xF15 JUMP JUMPDEST CALLVALUE DUP1 ISZERO PUSH2 0x561 JUMPI PUSH0 DUP1 REVERT JUMPDEST POP PUSH2 0x575 PUSH2 0x570 CALLDATASIZE PUSH1 0x4 PUSH2 0x48EE JUMP JUMPDEST PUSH2 0xFF3 JUMP JUMPDEST PUSH1 0x40 MLOAD PUSH2 0x448 SWAP5 SWAP4 SWAP3 SWAP2 SWAP1 PUSH2 0x4D47 JUMP JUMPDEST PUSH2 0x47A PUSH2 0x593 CALLDATASIZE PUSH1 0x4 PUSH2 0x4BE7 JUMP JUMPDEST PUSH2 0x1201 JUMP JUMPDEST CALLVALUE DUP1 ISZERO PUSH2 0x5A3 JUMPI PUSH0 DUP1 REVERT JUMPDEST POP PUSH2 0x47A PUSH2 0x5B2 CALLDATASIZE PUSH1 0x4 PUSH2 0x48EE JUMP JUMPDEST PUSH2 0x1380 JUMP JUMPDEST CALLVALUE DUP1 ISZERO PUSH2 0x5C2 JUMPI PUSH0 DUP1 REVERT JUMPDEST POP PUSH2 0x5D6 PUSH2 0x5D1 CALLDATASIZE PUSH1 0x4 PUSH2 0x48EE JUMP JUMPDEST PUSH2 0x13AC JUMP JUMPDEST PUSH1 0x40 MLOAD PUSH2 0x448 SWAP6 SWAP5 SWAP4 SWAP3 SWAP2 SWAP1 PUSH2 0x4D91 JUMP JUMPDEST CALLVALUE DUP1 ISZERO PUSH2 0x5F2 JUMPI PUSH0 DUP1 REVERT JUMPDEST POP PUSH2 0x47A PUSH32 0x3E83946653575F9A39005E1545185629E92736B7528AB20CA3816F315424A811 DUP2 JUMP JUMPDEST CALLVALUE DUP1 ISZERO PUSH2 0x625 JUMPI PUSH0 DUP1 REVERT JUMPDEST POP PUSH2 0x417 PUSH2 0x634 CALLDATASIZE PUSH1 0x4 PUSH2 0x4DE2 JUMP JUMPDEST PUSH2 0x1408 JUMP JUMPDEST CALLVALUE DUP1 ISZERO PUSH2 0x644 JUMPI PUSH0 DUP1 REVERT JUMPDEST POP PUSH2 0x47A PUSH2 0x1410 JUMP JUMPDEST CALLVALUE DUP1 ISZERO PUSH2 0x658 JUMPI PUSH0 DUP1 REVERT JUMPDEST POP PUSH2 0x66C PUSH2 0x667 CALLDATASIZE PUSH1 0x4 PUSH2 0x48EE JUMP JUMPDEST PUSH2 0x142E JUMP JUMPDEST PUSH1 0x40 MLOAD PUSH2 0x448 SWAP2 SWAP1 PUSH2 0x4E31 JUMP JUMPDEST CALLVALUE DUP1 ISZERO PUSH2 0x684 JUMPI PUSH0 DUP1 REVERT JUMPDEST POP PUSH2 0x417 PUSH2 0x693 CALLDATASIZE PUSH1 0x4 PUSH2 0x48EE JUMP JUMPDEST PUSH2 0x1438 JUMP JUMPDEST CALLVALUE DUP1 ISZERO PUSH2 0x6A3 JUMPI PUSH0 DUP1 REVERT JUMPDEST POP PUSH2 0x43C PUSH2 0x6B2 CALLDATASIZE PUSH1 0x4 PUSH2 0x4E3F JUMP JUMPDEST PUSH0 SWAP2 DUP3 MSTORE PUSH0 DUP1 MLOAD PUSH1 0x20 PUSH2 0x5B88 DUP4 CODECOPY DUP2 MLOAD SWAP2 MSTORE PUSH1 0x20 SWAP1 DUP2 MSTORE PUSH1 0x40 DUP1 DUP5 KECCAK256 PUSH1 0x1 PUSH1 0x1 PUSH1 0xA0 SHL SUB SWAP4 SWAP1 SWAP4 AND DUP5 MSTORE PUSH1 0x3 SWAP1 SWAP3 ADD SWAP1 MSTORE SWAP1 KECCAK256 SLOAD PUSH1 0xFF AND SWAP1 JUMP JUMPDEST CALLVALUE DUP1 ISZERO PUSH2 0x6F7 JUMPI PUSH0 DUP1 REVERT JUMPDEST POP PUSH2 0x47A PUSH2 0x706 CALLDATASIZE PUSH1 0x4 PUSH2 0x4BE7 JUMP JUMPDEST PUSH2 0x15FD JUMP JUMPDEST CALLVALUE DUP1 ISZERO PUSH2 0x716 JUMPI PUSH0 DUP1 REVERT JUMPDEST POP PUSH2 0x4BB PUSH2 0x166D JUMP JUMPDEST PUSH2 0x417 PUSH2 0x72D CALLDATASIZE PUSH1 0x4 PUSH2 0x4E6D JUMP JUMPDEST PUSH2 0x1714 JUMP JUMPDEST CALLVALUE DUP1 ISZERO PUSH2 0x73D JUMPI PUSH0 DUP1 REVERT JUMPDEST POP PUSH2 0x47A PUSH2 0x1733 JUMP JUMPDEST CALLVALUE DUP1 ISZERO PUSH2 0x751 JUMPI PUSH0 DUP1 REVERT JUMPDEST POP PUSH2 0x78A PUSH2 0x760 CALLDATASIZE PUSH1 0x4 PUSH2 0x48EE JUMP JUMPDEST PUSH0 SWAP1 DUP2 MSTORE PUSH0 DUP1 MLOAD PUSH1 0x20 PUSH2 0x5B88 DUP4 CODECOPY DUP2 MLOAD SWAP2 MSTORE PUSH1 0x20 MSTORE PUSH1 0x40 SWAP1 KECCAK256 DUP1 SLOAD PUSH1 0x1 DUP3 ADD SLOAD PUSH1 0x2 SWAP1 SWAP3 ADD SLOAD SWAP1 SWAP3 JUMP JUMPDEST PUSH1 0x40 DUP1 MLOAD SWAP4 DUP5 MSTORE PUSH1 0x20 DUP5 ADD SWAP3 SWAP1 SWAP3 MSTORE SWAP1 DUP3 ADD MSTORE PUSH1 0x60 ADD PUSH2 0x448 JUMP JUMPDEST CALLVALUE DUP1 ISZERO PUSH2 0x7B0 JUMPI PUSH0 DUP1 REVERT JUMPDEST POP PUSH1 0x40 DUP1 MLOAD DUP1 DUP3 ADD SWAP1 SWAP2 MSTORE PUSH1 0x1 DUP2 MSTORE PUSH1 0x31 PUSH1 0xF8 SHL PUSH1 0x20 DUP3 ADD MSTORE PUSH2 0x4BB JUMP JUMPDEST CALLVALUE DUP1 ISZERO PUSH2 0x7D9 JUMPI PUSH0 DUP1 REVERT JUMPDEST POP PUSH2 0x47A PUSH2 0x7E8 CALLDATASIZE PUSH1 0x4 PUSH2 0x4EC9 JUMP JUMPDEST PUSH2 0x174E JUMP JUMPDEST CALLVALUE DUP1 ISZERO PUSH2 0x7F8 JUMPI PUSH0 DUP1 REVERT JUMPDEST POP PUSH2 0x47A PUSH2 0x807 CALLDATASIZE PUSH1 0x4 PUSH2 0x4F37 JUMP JUMPDEST PUSH2 0x1775 JUMP JUMPDEST CALLVALUE DUP1 ISZERO PUSH2 0x817 JUMPI PUSH0 DUP1 REVERT JUMPDEST POP PUSH2 0x47A PUSH2 0x826 CALLDATASIZE PUSH1 0x4 PUSH2 0x4FF3 JUMP JUMPDEST PUSH2 0x18B4 JUMP JUMPDEST CALLVALUE DUP1 ISZERO PUSH2 0x836 JUMPI PUSH0 DUP1 REVERT JUMPDEST POP PUSH2 0x47A PUSH2 0x845 CALLDATASIZE PUSH1 0x4 PUSH2 0x48EE JUMP JUMPDEST PUSH2 0x1907 JUMP JUMPDEST CALLVALUE DUP1 ISZERO PUSH2 0x855 JUMPI PUSH0 DUP1 REVERT JUMPDEST POP PUSH2 0x417 PUSH2 0x19B4 JUMP JUMPDEST CALLVALUE DUP1 ISZERO PUSH2 0x869 JUMPI PUSH0 DUP1 REVERT JUMPDEST POP PUSH2 0x417 PUSH2 0x878 CALLDATASIZE PUSH1 0x4 PUSH2 0x5087 JUMP JUMPDEST PUSH2 0x19C7 JUMP JUMPDEST CALLVALUE DUP1 ISZERO PUSH2 0x888 JUMPI PUSH0 DUP1 REVERT JUMPDEST POP PUSH2 0x47A PUSH2 0x897 CALLDATASIZE PUSH1 0x4 PUSH2 0x50A2 JUMP JUMPDEST PUSH2 0x19D8 JUMP JUMPDEST CALLVALUE DUP1 ISZERO PUSH2 0x8A7 JUMPI PUSH0 DUP1 REVERT JUMPDEST POP PUSH2 0x417 PUSH2 0x8B6 CALLDATASIZE PUSH1 0x4 PUSH2 0x50F7 JUMP JUMPDEST POP JUMP JUMPDEST CALLVALUE DUP1 ISZERO PUSH2 0x8C4 JUMPI PUSH0 DUP1 REVERT JUMPDEST POP PUSH2 0x47A PUSH2 0x8D3 CALLDATASIZE PUSH1 0x4 PUSH2 0x5128 JUMP JUMPDEST PUSH2 0x1A1E JUMP JUMPDEST CALLVALUE DUP1 ISZERO PUSH2 0x8E3 JUMPI PUSH0 DUP1 REVERT JUMPDEST POP PUSH2 0x47A PUSH2 0x8F2 CALLDATASIZE PUSH1 0x4 PUSH2 0x4DE2 JUMP JUMPDEST PUSH1 0x1 PUSH1 0x1 PUSH1 0xA0 SHL SUB AND PUSH0 SWAP1 DUP2 MSTORE PUSH32 0x5AB42CED628888259C08AC98DB1EB0CF702FC1501344311D8B100CD1BFE4BB00 PUSH1 0x20 MSTORE PUSH1 0x40 SWAP1 KECCAK256 SLOAD SWAP1 JUMP JUMPDEST CALLVALUE DUP1 ISZERO PUSH2 0x936 JUMPI PUSH0 DUP1 REVERT JUMPDEST POP PUSH2 0x93F PUSH2 0x1AD8 JUMP JUMPDEST PUSH1 0x40 MLOAD PUSH2 0x448 SWAP8 SWAP7 SWAP6 SWAP5 SWAP4 SWAP3 SWAP2 SWAP1 PUSH2 0x51C5 JUMP JUMPDEST CALLVALUE DUP1 ISZERO PUSH2 0x95D JUMPI PUSH0 DUP1 REVERT JUMPDEST POP PUSH2 0x47A PUSH2 0x96C CALLDATASIZE PUSH1 0x4 PUSH2 0x5128 JUMP JUMPDEST PUSH2 0x1B81 JUMP JUMPDEST CALLVALUE DUP1 ISZERO PUSH2 0x97C JUMPI PUSH0 DUP1 REVERT JUMPDEST POP PUSH2 0x4E7 PUSH2 0x1B90 JUMP JUMPDEST CALLVALUE DUP1 ISZERO PUSH2 0x990 JUMPI PUSH0 DUP1 REVERT JUMPDEST POP PUSH2 0x47A PUSH2 0x99F CALLDATASIZE PUSH1 0x4 PUSH2 0x5234 JUMP JUMPDEST PUSH2 0x1BC4 JUMP JUMPDEST CALLVALUE DUP1 ISZERO PUSH2 0x9AF JUMPI PUSH0 DUP1 REVERT JUMPDEST POP PUSH2 0x9B8 PUSH2 0x1C76 JUMP JUMPDEST PUSH1 0x40 MLOAD PUSH6 0xFFFFFFFFFFFF SWAP1 SWAP2 AND DUP2 MSTORE PUSH1 0x20 ADD PUSH2 0x448 JUMP JUMPDEST CALLVALUE DUP1 ISZERO PUSH2 0x9DA JUMPI PUSH0 DUP1 REVERT JUMPDEST POP PUSH1 0x64 PUSH2 0x47A JUMP JUMPDEST CALLVALUE DUP1 ISZERO PUSH2 0x9ED JUMPI PUSH0 DUP1 REVERT JUMPDEST POP PUSH2 0x47A PUSH2 0x9FC CALLDATASIZE PUSH1 0x4 PUSH2 0x5281 JUMP JUMPDEST PUSH2 0x1CE4 JUMP JUMPDEST CALLVALUE DUP1 ISZERO PUSH2 0xA0C JUMPI PUSH0 DUP1 REVERT JUMPDEST POP PUSH2 0x47A PUSH2 0x1CFA JUMP JUMPDEST CALLVALUE DUP1 ISZERO PUSH2 0xA20 JUMPI PUSH0 DUP1 REVERT JUMPDEST POP PUSH2 0x417 PUSH2 0xA2F CALLDATASIZE PUSH1 0x4 PUSH2 0x4DE2 JUMP JUMPDEST PUSH2 0x1D34 JUMP JUMPDEST CALLVALUE DUP1 ISZERO PUSH2 0xA3F JUMPI PUSH0 DUP1 REVERT JUMPDEST POP PUSH2 0x43C PUSH2 0xA4E CALLDATASIZE PUSH1 0x4 PUSH2 0x48EE JUMP JUMPDEST PUSH2 0x1D45 JUMP JUMPDEST CALLVALUE DUP1 ISZERO PUSH2 0xA5E JUMPI PUSH0 DUP1 REVERT JUMPDEST POP PUSH2 0x47A PUSH2 0xA6D CALLDATASIZE PUSH1 0x4 PUSH2 0x48EE JUMP JUMPDEST PUSH0 SWAP1 DUP2 MSTORE PUSH0 DUP1 MLOAD PUSH1 0x20 PUSH2 0x5AA7 DUP4 CODECOPY DUP2 MLOAD SWAP2 MSTORE PUSH1 0x20 MSTORE PUSH1 0x40 SWAP1 KECCAK256 PUSH1 0x1 ADD SLOAD PUSH6 0xFFFFFFFFFFFF AND SWAP1 JUMP JUMPDEST CALLVALUE DUP1 ISZERO PUSH2 0xAA0 JUMPI PUSH0 DUP1 REVERT JUMPDEST POP PUSH2 0x4BB PUSH1 0x40 MLOAD DUP1 PUSH1 0x40 ADD PUSH1 0x40 MSTORE DUP1 PUSH1 0x5 DUP2 MSTORE PUSH1 0x20 ADD PUSH5 0x352E302E3 PUSH1 0xDC SHL DUP2 MSTORE POP DUP2 JUMP JUMPDEST CALLVALUE DUP1 ISZERO PUSH2 0xAD0 JUMPI PUSH0 DUP1 REVERT JUMPDEST POP PUSH2 0x47A PUSH2 0x1D4D JUMP JUMPDEST CALLVALUE DUP1 ISZERO PUSH2 0xAE4 JUMPI PUSH0 DUP1 REVERT JUMPDEST POP PUSH2 0x51E PUSH2 0xAF3 CALLDATASIZE PUSH1 0x4 PUSH2 0x52D5 JUMP JUMPDEST PUSH2 0x1D56 JUMP JUMPDEST CALLVALUE DUP1 ISZERO PUSH2 0xB03 JUMPI PUSH0 DUP1 REVERT JUMPDEST POP PUSH2 0x47A PUSH2 0xB12 CALLDATASIZE PUSH1 0x4 PUSH2 0x48EE JUMP JUMPDEST PUSH2 0x1D99 JUMP JUMPDEST CALLVALUE DUP1 ISZERO PUSH2 0xB22 JUMPI PUSH0 DUP1 REVERT JUMPDEST POP PUSH2 0x417 PUSH2 0xB31 CALLDATASIZE PUSH1 0x4 PUSH2 0x536C JUMP JUMPDEST PUSH2 0x1DF7 JUMP JUMPDEST PUSH2 0x417 PUSH2 0xB44 CALLDATASIZE PUSH1 0x4 PUSH2 0x53B4 JUMP JUMPDEST PUSH2 0x1F73 JUMP JUMPDEST CALLVALUE DUP1 ISZERO PUSH2 0xB54 JUMPI PUSH0 DUP1 REVERT JUMPDEST POP PUSH2 0x47A PUSH2 0xB63 CALLDATASIZE PUSH1 0x4 PUSH2 0x4BE7 JUMP JUMPDEST PUSH2 0x1FEF JUMP JUMPDEST CALLVALUE DUP1 ISZERO PUSH2 0xB73 JUMPI PUSH0 DUP1 REVERT JUMPDEST POP PUSH1 0x40 DUP1 MLOAD DUP1 DUP3 ADD SWAP1 SWAP2 MSTORE PUSH1 0x14 DUP2 MSTORE PUSH20 0x5472656173757279207265706F72742064617461 PUSH1 0x60 SHL PUSH1 0x20 DUP3 ADD MSTORE PUSH2 0x4BB JUMP JUMPDEST CALLVALUE DUP1 ISZERO PUSH2 0xBAF JUMPI PUSH0 DUP1 REVERT JUMPDEST POP PUSH2 0x417 PUSH2 0xBBE CALLDATASIZE PUSH1 0x4 PUSH2 0x53F3 JUMP JUMPDEST PUSH2 0x2028 JUMP JUMPDEST CALLVALUE DUP1 ISZERO PUSH2 0xBCE JUMPI PUSH0 DUP1 REVERT JUMPDEST POP PUSH2 0x4E7 PUSH2 0x2068 JUMP JUMPDEST CALLVALUE DUP1 ISZERO PUSH2 0xBE2 JUMPI PUSH0 DUP1 REVERT JUMPDEST POP PUSH2 0x47A PUSH2 0x207D JUMP JUMPDEST CALLVALUE DUP1 ISZERO PUSH2 0xBF6 JUMPI PUSH0 DUP1 REVERT JUMPDEST POP PUSH1 0x40 DUP1 MLOAD DUP1 DUP3 ADD SWAP1 SWAP2 MSTORE PUSH1 0x20 DUP1 DUP3 MSTORE PUSH32 0x737570706F72743D627261766F2671756F72756D3D666F722C6162737461696E SWAP1 DUP3 ADD MSTORE PUSH2 0x4BB JUMP JUMPDEST CALLVALUE DUP1 ISZERO PUSH2 0xC3B JUMPI PUSH0 DUP1 REVERT JUMPDEST POP PUSH2 0x417 PUSH2 0xC4A CALLDATASIZE PUSH1 0x4 PUSH2 0x48EE JUMP JUMPDEST PUSH2 0x2095 JUMP JUMPDEST CALLVALUE DUP1 ISZERO PUSH2 0xC5A JUMPI PUSH0 DUP1 REVERT JUMPDEST POP PUSH2 0x47A PUSH32 0xF2AAD550CF55F045CB27E9C559F9889FDFB6E6CDAA032301D6EA397784AE51D7 DUP2 JUMP JUMPDEST CALLVALUE DUP1 ISZERO PUSH2 0xC8D JUMPI PUSH0 DUP1 REVERT JUMPDEST POP PUSH2 0x417 PUSH2 0xC9C CALLDATASIZE PUSH1 0x4 PUSH2 0x541D JUMP JUMPDEST PUSH2 0x2254 JUMP JUMPDEST CALLVALUE DUP1 ISZERO PUSH2 0xCAC JUMPI PUSH0 DUP1 REVERT JUMPDEST POP PUSH1 0x40 DUP1 MLOAD DUP1 DUP3 ADD SWAP1 SWAP2 MSTORE PUSH1 0x11 DUP2 MSTORE PUSH17 0x47616D65206D6574726963732064617461 PUSH1 0x78 SHL PUSH1 0x20 DUP3 ADD MSTORE PUSH2 0x4BB JUMP JUMPDEST CALLVALUE DUP1 ISZERO PUSH2 0xCE5 JUMPI PUSH0 DUP1 REVERT JUMPDEST POP PUSH2 0x47A PUSH2 0xCF4 CALLDATASIZE PUSH1 0x4 PUSH2 0x53F3 JUMP JUMPDEST PUSH2 0x2265 JUMP JUMPDEST CALLVALUE DUP1 ISZERO PUSH2 0xD04 JUMPI PUSH0 DUP1 REVERT JUMPDEST POP PUSH2 0x417 PUSH2 0xD13 CALLDATASIZE PUSH1 0x4 PUSH2 0x48EE JUMP JUMPDEST PUSH2 0x2284 JUMP JUMPDEST CALLVALUE DUP1 ISZERO PUSH2 0xD23 JUMPI PUSH0 DUP1 REVERT JUMPDEST POP PUSH2 0x51E PUSH2 0xD32 CALLDATASIZE PUSH1 0x4 PUSH2 0x5440 JUMP JUMPDEST PUSH2 0x2295 JUMP JUMPDEST CALLVALUE DUP1 ISZERO PUSH2 0xD42 JUMPI PUSH0 DUP1 REVERT JUMPDEST POP PUSH2 0x417 PUSH2 0xD51 CALLDATASIZE PUSH1 0x4 PUSH2 0x4DE2 JUMP JUMPDEST PUSH2 0x22D8 JUMP JUMPDEST CALLVALUE DUP1 ISZERO PUSH2 0xD61 JUMPI PUSH0 DUP1 REVERT JUMPDEST POP PUSH2 0x47A PUSH2 0xD70 CALLDATASIZE PUSH1 0x4 PUSH2 0x48EE JUMP JUMPDEST PUSH2 0x2312 JUMP JUMPDEST CALLVALUE DUP1 ISZERO PUSH2 0xD80 JUMPI PUSH0 DUP1 REVERT JUMPDEST POP PUSH2 0x4E7 PUSH2 0x231C JUMP JUMPDEST PUSH2 0x417 PUSH2 0xD97 CALLDATASIZE PUSH1 0x4 PUSH2 0x48EE JUMP JUMPDEST PUSH2 0x2344 JUMP JUMPDEST PUSH0 PUSH2 0xDA5 PUSH2 0x2068 JUMP JUMPDEST SWAP1 POP SWAP1 JUMP JUMPDEST PUSH0 PUSH1 0x1 PUSH1 0x1 PUSH1 0xE0 SHL SUB NOT DUP3 AND PUSH4 0x32A2AD43 PUSH1 0xE1 SHL EQ DUP1 PUSH2 0xDDA JUMPI POP PUSH1 0x1 PUSH1 0x1 PUSH1 0xE0 SHL SUB NOT DUP3 AND PUSH4 0x2711897 PUSH1 0xE5 SHL EQ JUMPDEST DUP1 PUSH2 0xDF5 JUMPI POP PUSH4 0x1FFC9A7 PUSH1 0xE0 SHL PUSH1 0x1 PUSH1 0x1 PUSH1 0xE0 SHL SUB NOT DUP4 AND EQ JUMPDEST SWAP3 SWAP2 POP POP JUMP JUMPDEST PUSH2 0xE03 PUSH2 0x2503 JUMP JUMPDEST PUSH2 0x8B6 DUP2 PUSH2 0x258C JUMP JUMPDEST PUSH0 DUP1 MLOAD PUSH1 0x20 PUSH2 0x5BC8 DUP4 CODECOPY DUP2 MLOAD SWAP2 MSTORE DUP1 SLOAD PUSH1 0x60 SWAP2 SWAP1 DUP2 SWAP1 PUSH2 0xE2B SWAP1 PUSH2 0x5497 JUMP JUMPDEST DUP1 PUSH1 0x1F ADD PUSH1 0x20 DUP1 SWAP2 DIV MUL PUSH1 0x20 ADD PUSH1 0x40 MLOAD SWAP1 DUP2 ADD PUSH1 0x40 MSTORE DUP1 SWAP3 SWAP2 SWAP1 DUP2 DUP2 MSTORE PUSH1 0x20 ADD DUP3 DUP1 SLOAD PUSH2 0xE57 SWAP1 PUSH2 0x5497 JUMP JUMPDEST DUP1 ISZERO PUSH2 0xEA2 JUMPI DUP1 PUSH1 0x1F LT PUSH2 0xE79 JUMPI PUSH2 0x100 DUP1 DUP4 SLOAD DIV MUL DUP4 MSTORE SWAP2 PUSH1 0x20 ADD SWAP2 PUSH2 0xEA2 JUMP JUMPDEST DUP3 ADD SWAP2 SWAP1 PUSH0 MSTORE PUSH1 0x20 PUSH0 KECCAK256 SWAP1 JUMPDEST DUP2 SLOAD DUP2 MSTORE SWAP1 PUSH1 0x1 ADD SWAP1 PUSH1 0x20 ADD DUP1 DUP4 GT PUSH2 0xE85 JUMPI DUP3 SWAP1 SUB PUSH1 0x1F AND DUP3 ADD SWAP2 JUMPDEST POP POP POP POP POP SWAP2 POP POP SWAP1 JUMP JUMPDEST PUSH0 SWAP1 DUP2 MSTORE PUSH0 DUP1 MLOAD PUSH1 0x20 PUSH2 0x5AA7 DUP4 CODECOPY DUP2 MLOAD SWAP2 MSTORE PUSH1 0x20 MSTORE PUSH1 0x40 SWAP1 KECCAK256 SLOAD PUSH1 0x1 PUSH1 0x1 PUSH1 0xA0 SHL SUB AND SWAP1 JUMP JUMPDEST PUSH0 ADDRESS PUSH2 0xEDD PUSH2 0xD9C JUMP JUMPDEST PUSH1 0x1 PUSH1 0x1 PUSH1 0xA0 SHL SUB AND EQ PUSH2 0xF04 JUMPI PUSH1 0x40 MLOAD PUSH4 0x7485328F PUSH1 0xE1 SHL DUP2 MSTORE PUSH1 0x4 ADD PUSH1 0x40 MLOAD DUP1 SWAP2 SUB SWAP1 REVERT JUMPDEST POP PUSH4 0xA85BD01 PUSH1 0xE1 SHL SWAP5 SWAP4 POP POP POP POP JUMP JUMPDEST PUSH0 PUSH0 DUP1 MLOAD PUSH1 0x20 PUSH2 0x5BC8 DUP4 CODECOPY DUP2 MLOAD SWAP2 MSTORE DUP2 PUSH2 0xF31 DUP8 DUP8 DUP8 DUP8 PUSH2 0x1FEF JUMP JUMPDEST SWAP1 POP PUSH2 0xF46 DUP2 PUSH2 0xF41 PUSH1 0x4 PUSH2 0x2642 JUMP JUMPDEST PUSH2 0x2664 JUMP JUMPDEST POP PUSH0 PUSH2 0xF55 DUP3 DUP10 DUP10 DUP10 DUP10 PUSH2 0x26A1 JUMP JUMPDEST SWAP1 POP PUSH6 0xFFFFFFFFFFFF DUP2 AND ISZERO PUSH2 0xFCF JUMPI PUSH0 DUP3 DUP2 MSTORE PUSH1 0x1 DUP5 DUP2 ADD PUSH1 0x20 SWAP1 DUP2 MSTORE PUSH1 0x40 SWAP3 DUP4 SWAP1 KECCAK256 SWAP1 SWAP2 ADD DUP1 SLOAD PUSH6 0xFFFFFFFFFFFF NOT AND PUSH6 0xFFFFFFFFFFFF DUP6 AND SWAP1 DUP2 OR SWAP1 SWAP2 SSTORE DUP3 MLOAD DUP6 DUP2 MSTORE SWAP2 DUP3 ADD MSTORE PUSH32 0x9A2E42FD6722813D69113E7D0079D3D940171428DF7373DF9C7F7617CFDA2892 SWAP2 ADD PUSH1 0x40 MLOAD DUP1 SWAP2 SUB SWAP1 LOG1 PUSH2 0xFE8 JUMP JUMPDEST PUSH1 0x40 MLOAD PUSH4 0x48442523 PUSH1 0xE1 SHL DUP2 MSTORE PUSH1 0x4 ADD PUSH1 0x40 MLOAD DUP1 SWAP2 SUB SWAP1 REVERT JUMPDEST POP SWAP7 SWAP6 POP POP POP POP POP POP JUMP JUMPDEST PUSH1 0x60 DUP1 DUP1 PUSH0 DUP1 PUSH0 DUP1 MLOAD PUSH1 0x20 PUSH2 0x5B08 DUP4 CODECOPY DUP2 MLOAD SWAP2 MSTORE PUSH0 DUP8 DUP2 MSTORE PUSH1 0x1 DUP3 ADD PUSH1 0x20 SWAP1 DUP2 MSTORE PUSH1 0x40 DUP1 DUP4 KECCAK256 DUP2 MLOAD DUP2 SLOAD PUSH1 0xA0 SWAP5 DUP2 MUL DUP3 ADD DUP6 ADD SWAP1 SWAP4 MSTORE PUSH1 0x80 DUP2 ADD DUP4 DUP2 MSTORE SWAP6 SWAP7 POP SWAP4 SWAP5 SWAP1 SWAP3 DUP5 SWAP3 DUP5 SWAP2 DUP5 ADD DUP3 DUP3 DUP1 ISZERO PUSH2 0x1072 JUMPI PUSH1 0x20 MUL DUP3 ADD SWAP2 SWAP1 PUSH0 MSTORE PUSH1 0x20 PUSH0 KECCAK256 SWAP1 JUMPDEST DUP2 SLOAD PUSH1 0x1 PUSH1 0x1 PUSH1 0xA0 SHL SUB AND DUP2 MSTORE PUSH1 0x1 SWAP1 SWAP2 ADD SWAP1 PUSH1 0x20 ADD DUP1 DUP4 GT PUSH2 0x1054 JUMPI JUMPDEST POP POP POP POP POP DUP2 MSTORE PUSH1 0x20 ADD PUSH1 0x1 DUP3 ADD DUP1 SLOAD DUP1 PUSH1 0x20 MUL PUSH1 0x20 ADD PUSH1 0x40 MLOAD SWAP1 DUP2 ADD PUSH1 0x40 MSTORE DUP1 SWAP3 SWAP2 SWAP1 DUP2 DUP2 MSTORE PUSH1 0x20 ADD DUP3 DUP1 SLOAD DUP1 ISZERO PUSH2 0x10C8 JUMPI PUSH1 0x20 MUL DUP3 ADD SWAP2 SWAP1 PUSH0 MSTORE PUSH1 0x20 PUSH0 KECCAK256 SWAP1 JUMPDEST DUP2 SLOAD DUP2 MSTORE PUSH1 0x20 ADD SWAP1 PUSH1 0x1 ADD SWAP1 DUP1 DUP4 GT PUSH2 0x10B4 JUMPI JUMPDEST POP POP POP POP POP DUP2 MSTORE PUSH1 0x20 ADD PUSH1 0x2 DUP3 ADD DUP1 SLOAD DUP1 PUSH1 0x20 MUL PUSH1 0x20 ADD PUSH1 0x40 MLOAD SWAP1 DUP2 ADD PUSH1 0x40 MSTORE DUP1 SWAP3 SWAP2 SWAP1 DUP2 DUP2 MSTORE PUSH1 0x20 ADD PUSH0 SWAP1 JUMPDEST DUP3 DUP3 LT ISZERO PUSH2 0x119D JUMPI DUP4 DUP3 SWAP1 PUSH0 MSTORE PUSH1 0x20 PUSH0 KECCAK256 ADD DUP1 SLOAD PUSH2 0x1112 SWAP1 PUSH2 0x5497 JUMP JUMPDEST DUP1 PUSH1 0x1F ADD PUSH1 0x20 DUP1 SWAP2 DIV MUL PUSH1 0x20 ADD PUSH1 0x40 MLOAD SWAP1 DUP2 ADD PUSH1 0x40 MSTORE DUP1 SWAP3 SWAP2 SWAP1 DUP2 DUP2 MSTORE PUSH1 0x20 ADD DUP3 DUP1 SLOAD PUSH2 0x113E SWAP1 PUSH2 0x5497 JUMP JUMPDEST DUP1 ISZERO PUSH2 0x1189 JUMPI DUP1 PUSH1 0x1F LT PUSH2 0x1160 JUMPI PUSH2 0x100 DUP1 DUP4 SLOAD DIV MUL DUP4 MSTORE SWAP2 PUSH1 0x20 ADD SWAP2 PUSH2 0x1189 JUMP JUMPDEST DUP3 ADD SWAP2 SWAP1 PUSH0 MSTORE PUSH1 0x20 PUSH0 KECCAK256 SWAP1 JUMPDEST DUP2 SLOAD DUP2 MSTORE SWAP1 PUSH1 0x1 ADD SWAP1 PUSH1 0x20 ADD DUP1 DUP4 GT PUSH2 0x116C JUMPI DUP3 SWAP1 SUB PUSH1 0x1F AND DUP3 ADD SWAP2 JUMPDEST POP POP POP POP POP DUP2 MSTORE PUSH1 0x20 ADD SWAP1 PUSH1 0x1 ADD SWAP1 PUSH2 0x10F5 JUMP JUMPDEST POP POP POP POP DUP2 MSTORE PUSH1 0x20 ADD PUSH1 0x3 DUP3 ADD SLOAD DUP2 MSTORE POP POP SWAP1 POP DUP1 PUSH1 0x60 ADD MLOAD PUSH0 DUP1 SHL SUB PUSH2 0x11DF JUMPI PUSH1 0x40 MLOAD PUSH4 0x6AD06075 PUSH1 0xE0 SHL DUP2 MSTORE PUSH1 0x4 DUP2 ADD DUP9 SWAP1 MSTORE PUSH1 0x24 ADD JUMPDEST PUSH1 0x40 MLOAD DUP1 SWAP2 SUB SWAP1 REVERT JUMPDEST DUP1 MLOAD PUSH1 0x20 DUP3 ADD MLOAD PUSH1 0x40 DUP4 ADD MLOAD PUSH1 0x60 SWAP1 SWAP4 ADD MLOAD SWAP2 SWAP10 SWAP1 SWAP9 POP SWAP2 SWAP7 POP SWAP5 POP SWAP3 POP POP POP JUMP JUMPDEST PUSH0 PUSH0 DUP1 MLOAD PUSH1 0x20 PUSH2 0x5BC8 DUP4 CODECOPY DUP2 MLOAD SWAP2 MSTORE DUP2 PUSH2 0x121D DUP8 DUP8 DUP8 DUP8 PUSH2 0x1FEF JUMP JUMPDEST SWAP1 POP PUSH2 0x123D DUP2 PUSH2 0x122D PUSH1 0x5 PUSH2 0x2642 JUMP JUMPDEST PUSH2 0x1237 PUSH1 0x4 PUSH2 0x2642 JUMP JUMPDEST OR PUSH2 0x2664 JUMP JUMPDEST POP PUSH0 DUP2 DUP2 MSTORE PUSH1 0x1 DUP4 ADD PUSH1 0x20 MSTORE PUSH1 0x40 SWAP1 KECCAK256 DUP1 SLOAD PUSH1 0xFF PUSH1 0xF0 SHL NOT AND PUSH1 0x1 PUSH1 0xF0 SHL OR SWAP1 SSTORE ADDRESS PUSH2 0x1267 PUSH2 0xD9C JUMP JUMPDEST PUSH1 0x1 PUSH1 0x1 PUSH1 0xA0 SHL SUB AND EQ PUSH2 0x12F2 JUMPI PUSH0 JUMPDEST DUP8 MLOAD DUP2 LT ISZERO PUSH2 0x12F0 JUMPI ADDRESS PUSH1 0x1 PUSH1 0x1 PUSH1 0xA0 SHL SUB AND DUP9 DUP3 DUP2 MLOAD DUP2 LT PUSH2 0x129C JUMPI PUSH2 0x129C PUSH2 0x54CF JUMP JUMPDEST PUSH1 0x20 MUL PUSH1 0x20 ADD ADD MLOAD PUSH1 0x1 PUSH1 0x1 PUSH1 0xA0 SHL SUB AND SUB PUSH2 0x12E8 JUMPI PUSH2 0x12E8 DUP7 DUP3 DUP2 MLOAD DUP2 LT PUSH2 0x12C7 JUMPI PUSH2 0x12C7 PUSH2 0x54CF JUMP JUMPDEST PUSH1 0x20 MUL PUSH1 0x20 ADD ADD MLOAD DUP1 MLOAD SWAP1 PUSH1 0x20 ADD KECCAK256 DUP5 PUSH1 0x2 ADD PUSH2 0x26AF SWAP1 SWAP2 SWAP1 PUSH4 0xFFFFFFFF AND JUMP JUMPDEST PUSH1 0x1 ADD PUSH2 0x1277 JUMP JUMPDEST POP JUMPDEST PUSH2 0x12FF DUP2 DUP9 DUP9 DUP9 DUP9 PUSH2 0x271F JUMP JUMPDEST ADDRESS PUSH2 0x1308 PUSH2 0xD9C JUMP JUMPDEST PUSH1 0x1 PUSH1 0x1 PUSH1 0xA0 SHL SUB AND EQ ISZERO DUP1 ISZERO PUSH2 0x1336 JUMPI POP PUSH1 0x2 DUP3 ADD SLOAD PUSH1 0x1 PUSH1 0x1 PUSH1 0x80 SHL SUB DUP1 DUP3 AND PUSH1 0x1 PUSH1 0x80 SHL SWAP1 SWAP3 DIV AND EQ ISZERO JUMPDEST ISZERO PUSH2 0x1342 JUMPI PUSH0 PUSH1 0x2 DUP4 ADD SSTORE JUMPDEST PUSH1 0x40 MLOAD DUP2 DUP2 MSTORE PUSH32 0x712AE1383F79AC853F8D882153778E0260EF8F03B504E2866E0593E04D2B291F SWAP1 PUSH1 0x20 ADD JUMPDEST PUSH1 0x40 MLOAD DUP1 SWAP2 SUB SWAP1 LOG1 SWAP7 SWAP6 POP POP POP POP POP POP JUMP JUMPDEST PUSH0 SWAP1 DUP2 MSTORE PUSH0 DUP1 MLOAD PUSH1 0x20 PUSH2 0x5AA7 DUP4 CODECOPY DUP2 MLOAD SWAP2 MSTORE PUSH1 0x20 MSTORE PUSH1 0x40 SWAP1 KECCAK256 SLOAD PUSH1 0x1 PUSH1 0xA0 SHL SWAP1 DIV PUSH6 0xFFFFFFFFFFFF AND SWAP1 JUMP JUMPDEST PUSH0 PUSH1 0x60 DUP1 DUP1 DUP4 DUP1 PUSH0 DUP1 MLOAD PUSH1 0x20 PUSH2 0x5B08 DUP4 CODECOPY DUP2 MLOAD SWAP2 MSTORE SWAP1 POP PUSH0 DUP2 PUSH0 ADD DUP9 DUP2 SLOAD DUP2 LT PUSH2 0x13D8 JUMPI PUSH2 0x13D8 PUSH2 0x54CF JUMP JUMPDEST SWAP1 PUSH0 MSTORE PUSH1 0x20 PUSH0 KECCAK256 ADD SLOAD SWAP1 POP PUSH0 DUP1 PUSH0 DUP1 PUSH2 0x13F0 DUP6 PUSH2 0xFF3 JUMP JUMPDEST SWAP8 SWAP16 SWAP3 SWAP15 POP SWAP1 SWAP13 POP SWAP11 POP SWAP5 SWAP9 POP SWAP4 SWAP7 POP POP POP POP POP POP POP JUMP JUMPDEST PUSH2 0x8B6 PUSH2 0x2733 JUMP JUMPDEST PUSH0 PUSH2 0xDA5 PUSH0 DUP1 MLOAD PUSH1 0x20 PUSH2 0x5AC7 DUP4 CODECOPY DUP2 MLOAD SWAP2 MSTORE SLOAD PUSH6 0xFFFFFFFFFFFF AND SWAP1 JUMP JUMPDEST PUSH0 PUSH2 0xDF5 DUP3 PUSH2 0x2765 JUMP JUMPDEST PUSH0 DUP2 DUP2 MSTORE PUSH32 0x7FD223D3380145BD26132714391E777C488A0DF7AC2DD4B66419D8549FB3A601 PUSH1 0x20 SWAP1 DUP2 MSTORE PUSH1 0x40 SWAP2 DUP3 SWAP1 KECCAK256 DUP1 SLOAD DUP4 MLOAD DUP2 DUP5 MUL DUP2 ADD DUP5 ADD SWAP1 SWAP5 MSTORE DUP1 DUP5 MSTORE PUSH0 DUP1 MLOAD PUSH1 0x20 PUSH2 0x5B08 DUP4 CODECOPY DUP2 MLOAD SWAP2 MSTORE SWAP4 SWAP2 SWAP3 PUSH2 0x15F7 SWAP3 SWAP2 DUP5 SWAP2 DUP4 ADD DUP3 DUP3 DUP1 ISZERO PUSH2 0x14C8 JUMPI PUSH1 0x20 MUL DUP3 ADD SWAP2 SWAP1 PUSH0 MSTORE PUSH1 0x20 PUSH0 KECCAK256 SWAP1 JUMPDEST DUP2 SLOAD PUSH1 0x1 PUSH1 0x1 PUSH1 0xA0 SHL SUB AND DUP2 MSTORE PUSH1 0x1 SWAP1 SWAP2 ADD SWAP1 PUSH1 0x20 ADD DUP1 DUP4 GT PUSH2 0x14AA JUMPI JUMPDEST POP POP POP POP POP DUP3 PUSH1 0x1 ADD DUP1 SLOAD DUP1 PUSH1 0x20 MUL PUSH1 0x20 ADD PUSH1 0x40 MLOAD SWAP1 DUP2 ADD PUSH1 0x40 MSTORE DUP1 SWAP3 SWAP2 SWAP1 DUP2 DUP2 MSTORE PUSH1 0x20 ADD DUP3 DUP1 SLOAD DUP1 ISZERO PUSH2 0x1519 JUMPI PUSH1 0x20 MUL DUP3 ADD SWAP2 SWAP1 PUSH0 MSTORE PUSH1 0x20 PUSH0 KECCAK256 SWAP1 JUMPDEST DUP2 SLOAD DUP2 MSTORE PUSH1 0x20 ADD SWAP1 PUSH1 0x1 ADD SWAP1 DUP1 DUP4 GT PUSH2 0x1505 JUMPI JUMPDEST POP POP POP POP POP DUP4 PUSH1 0x2 ADD DUP1 SLOAD DUP1 PUSH1 0x20 MUL PUSH1 0x20 ADD PUSH1 0x40 MLOAD SWAP1 DUP2 ADD PUSH1 0x40 MSTORE DUP1 SWAP3 SWAP2 SWAP1 DUP2 DUP2 MSTORE PUSH1 0x20 ADD PUSH0 SWAP1 JUMPDEST DUP3 DUP3 LT ISZERO PUSH2 0x15E9 JUMPI DUP4 DUP3 SWAP1 PUSH0 MSTORE PUSH1 0x20 PUSH0 KECCAK256 ADD DUP1 SLOAD PUSH2 0x155E SWAP1 PUSH2 0x5497 JUMP JUMPDEST DUP1 PUSH1 0x1F ADD PUSH1 0x20 DUP1 SWAP2 DIV MUL PUSH1 0x20 ADD PUSH1 0x40 MLOAD SWAP1 DUP2 ADD PUSH1 0x40 MSTORE DUP1 SWAP3 SWAP2 SWAP1 DUP2 DUP2 MSTORE PUSH1 0x20 ADD DUP3 DUP1 SLOAD PUSH2 0x158A SWAP1 PUSH2 0x5497 JUMP JUMPDEST DUP1 ISZERO PUSH2 0x15D5 JUMPI DUP1 PUSH1 0x1F LT PUSH2 0x15AC JUMPI PUSH2 0x100 DUP1 DUP4 SLOAD DIV MUL DUP4 MSTORE SWAP2 PUSH1 0x20 ADD SWAP2 PUSH2 0x15D5 JUMP JUMPDEST DUP3 ADD SWAP2 SWAP1 PUSH0 MSTORE PUSH1 0x20 PUSH0 KECCAK256 SWAP1 JUMPDEST DUP2 SLOAD DUP2 MSTORE SWAP1 PUSH1 0x1 ADD SWAP1 PUSH1 0x20 ADD DUP1 DUP4 GT PUSH2 0x15B8 JUMPI DUP3 SWAP1 SUB PUSH1 0x1F AND DUP3 ADD SWAP2 JUMPDEST POP POP POP POP POP DUP2 MSTORE PUSH1 0x20 ADD SWAP1 PUSH1 0x1 ADD SWAP1 PUSH2 0x1541 JUMP JUMPDEST POP POP POP POP DUP5 PUSH1 0x3 ADD SLOAD PUSH2 0x15FD JUMP JUMPDEST POP POP POP POP JUMP JUMPDEST PUSH0 DUP1 PUSH2 0x160B DUP7 DUP7 DUP7 DUP7 PUSH2 0x1FEF JUMP JUMPDEST SWAP1 POP PUSH2 0x161A DUP2 PUSH2 0xF41 PUSH0 PUSH2 0x2642 JUMP JUMPDEST POP PUSH2 0x1624 DUP2 PUSH2 0xEAD JUMP JUMPDEST PUSH1 0x1 PUSH1 0x1 PUSH1 0xA0 SHL SUB AND CALLER PUSH1 0x1 PUSH1 0x1 PUSH1 0xA0 SHL SUB AND EQ PUSH2 0x1657 JUMPI PUSH1 0x40 MLOAD PUSH4 0x233D98E3 PUSH1 0xE0 SHL DUP2 MSTORE CALLER PUSH1 0x4 DUP3 ADD MSTORE PUSH1 0x24 ADD PUSH2 0x11D6 JUMP JUMPDEST PUSH2 0x1663 DUP7 DUP7 DUP7 DUP7 PUSH2 0x28B0 JUMP JUMPDEST SWAP7 SWAP6 POP POP POP POP POP POP JUMP JUMPDEST PUSH1 0x60 PUSH2 0x1677 PUSH2 0x231C JUMP JUMPDEST PUSH1 0x1 PUSH1 0x1 PUSH1 0xA0 SHL SUB AND PUSH4 0x4BF5D7E9 PUSH1 0x40 MLOAD DUP2 PUSH4 0xFFFFFFFF AND PUSH1 0xE0 SHL DUP2 MSTORE PUSH1 0x4 ADD PUSH0 PUSH1 0x40 MLOAD DUP1 DUP4 SUB DUP2 DUP7 GAS STATICCALL SWAP3 POP POP POP DUP1 ISZERO PUSH2 0x16D3 JUMPI POP PUSH1 0x40 MLOAD RETURNDATASIZE PUSH0 DUP3 RETURNDATACOPY PUSH1 0x1F RETURNDATASIZE SWAP1 DUP2 ADD PUSH1 0x1F NOT AND DUP3 ADD PUSH1 0x40 MSTORE PUSH2 0x16D0 SWAP2 SWAP1 DUP2 ADD SWAP1 PUSH2 0x54E3 JUMP JUMPDEST PUSH1 0x1 JUMPDEST PUSH2 0x170F JUMPI POP PUSH1 0x40 DUP1 MLOAD DUP1 DUP3 ADD SWAP1 SWAP2 MSTORE PUSH1 0x1D DUP2 MSTORE PUSH32 0x6D6F64653D626C6F636B6E756D6265722666726F6D3D64656661756C74000000 PUSH1 0x20 DUP3 ADD MSTORE SWAP1 JUMP JUMPDEST SWAP2 SWAP1 POP JUMP JUMPDEST PUSH2 0x171C PUSH2 0x28C6 JUMP JUMPDEST PUSH2 0x1725 DUP3 PUSH2 0x1408 JUMP JUMPDEST PUSH2 0x172F DUP3 DUP3 PUSH2 0x296A JUMP JUMPDEST POP POP JUMP JUMPDEST PUSH0 PUSH2 0x173C PUSH2 0x2A26 JUMP JUMPDEST POP PUSH0 DUP1 MLOAD PUSH1 0x20 PUSH2 0x5B68 DUP4 CODECOPY DUP2 MLOAD SWAP2 MSTORE SWAP1 JUMP JUMPDEST PUSH0 DUP1 CALLER SWAP1 POP PUSH2 0x176D DUP5 DUP3 DUP6 PUSH1 0x40 MLOAD DUP1 PUSH1 0x20 ADD PUSH1 0x40 MSTORE DUP1 PUSH0 DUP2 MSTORE POP PUSH2 0x2A6F JUMP JUMPDEST SWAP5 SWAP4 POP POP POP POP JUMP JUMPDEST PUSH0 DUP1 PUSH2 0x1839 DUP8 PUSH2 0x1833 PUSH32 0x3E83946653575F9A39005E1545185629E92736B7528AB20CA3816F315424A811 DUP13 DUP13 DUP13 PUSH2 0x17AB DUP15 PUSH2 0x2A90 JUMP JUMPDEST DUP14 DUP14 PUSH1 0x40 MLOAD PUSH2 0x17BB SWAP3 SWAP2 SWAP1 PUSH2 0x5557 JUMP JUMPDEST PUSH1 0x40 MLOAD DUP1 SWAP2 SUB SWAP1 KECCAK256 DUP13 DUP1 MLOAD SWAP1 PUSH1 0x20 ADD KECCAK256 PUSH1 0x40 MLOAD PUSH1 0x20 ADD PUSH2 0x1818 SWAP8 SWAP7 SWAP6 SWAP5 SWAP4 SWAP3 SWAP2 SWAP1 SWAP7 DUP8 MSTORE PUSH1 0x20 DUP8 ADD SWAP6 SWAP1 SWAP6 MSTORE PUSH1 0xFF SWAP4 SWAP1 SWAP4 AND PUSH1 0x40 DUP7 ADD MSTORE PUSH1 0x1 PUSH1 0x1 PUSH1 0xA0 SHL SUB SWAP2 SWAP1 SWAP2 AND PUSH1 0x60 DUP6 ADD MSTORE PUSH1 0x80 DUP5 ADD MSTORE PUSH1 0xA0 DUP4 ADD MSTORE PUSH1 0xC0 DUP3 ADD MSTORE PUSH1 0xE0 ADD SWAP1 JUMP JUMPDEST PUSH1 0x40 MLOAD PUSH1 0x20 DUP2 DUP4 SUB SUB DUP2 MSTORE SWAP1 PUSH1 0x40 MSTORE DUP1 MLOAD SWAP1 PUSH1 0x20 ADD KECCAK256 PUSH2 0x2AD1 JUMP JUMPDEST DUP6 PUSH2 0x2AFD JUMP JUMPDEST SWAP1 POP DUP1 PUSH2 0x1864 JUMPI PUSH1 0x40 MLOAD PUSH4 0x94AB6C07 PUSH1 0xE0 SHL DUP2 MSTORE PUSH1 0x1 PUSH1 0x1 PUSH1 0xA0 SHL SUB DUP9 AND PUSH1 0x4 DUP3 ADD MSTORE PUSH1 0x24 ADD PUSH2 0x11D6 JUMP JUMPDEST PUSH2 0x18A7 DUP10 DUP9 DUP11 DUP10 DUP10 DUP1 DUP1 PUSH1 0x1F ADD PUSH1 0x20 DUP1 SWAP2 DIV MUL PUSH1 0x20 ADD PUSH1 0x40 MLOAD SWAP1 DUP2 ADD PUSH1 0x40 MSTORE DUP1 SWAP4 SWAP3 SWAP2 SWAP1 DUP2 DUP2 MSTORE PUSH1 0x20 ADD DUP4 DUP4 DUP1 DUP3 DUP5 CALLDATACOPY PUSH0 SWAP3 ADD SWAP2 SWAP1 SWAP2 MSTORE POP DUP12 SWAP3 POP PUSH2 0x2B52 SWAP2 POP POP JUMP JUMPDEST SWAP10 SWAP9 POP POP POP POP POP POP POP POP POP JUMP JUMPDEST PUSH0 DUP1 CALLER SWAP1 POP PUSH2 0x18FC DUP8 DUP3 DUP9 DUP9 DUP9 DUP1 DUP1 PUSH1 0x1F ADD PUSH1 0x20 DUP1 SWAP2 DIV MUL PUSH1 0x20 ADD PUSH1 0x40 MLOAD SWAP1 DUP2 ADD PUSH1 0x40 MSTORE DUP1 SWAP4 SWAP3 SWAP2 SWAP1 DUP2 DUP2 MSTORE PUSH1 0x20 ADD DUP4 DUP4 DUP1 DUP3 DUP5 CALLDATACOPY PUSH0 SWAP3 ADD SWAP2 SWAP1 SWAP2 MSTORE POP DUP11 SWAP3 POP PUSH2 0x2B52 SWAP2 POP POP JUMP JUMPDEST SWAP8 SWAP7 POP POP POP POP POP POP POP JUMP JUMPDEST PUSH32 0xE770710421FD2CAD75AD828C61AA98F2D77D423A440B67872D0F65554148E000 DUP1 SLOAD PUSH0 SWAP2 SWAP1 DUP3 DUP3 PUSH2 0x193A PUSH1 0x1 DUP5 PUSH2 0x557A JUMP JUMPDEST DUP2 SLOAD DUP2 LT PUSH2 0x194A JUMPI PUSH2 0x194A PUSH2 0x54CF JUMP JUMPDEST PUSH0 SWAP2 DUP3 MSTORE PUSH1 0x20 SWAP1 SWAP2 KECCAK256 ADD DUP1 SLOAD SWAP1 SWAP2 POP PUSH6 0xFFFFFFFFFFFF DUP2 AND SWAP1 PUSH1 0x1 PUSH1 0x30 SHL SWAP1 DIV PUSH1 0x1 PUSH1 0x1 PUSH1 0xD0 SHL SUB AND DUP7 DUP3 GT PUSH2 0x198D JUMPI PUSH1 0x1 PUSH1 0x1 PUSH1 0xD0 SHL SUB AND SWAP7 SWAP6 POP POP POP POP POP POP JUMP JUMPDEST PUSH2 0x19A0 PUSH2 0x1999 DUP9 PUSH2 0x2C2C JUMP JUMPDEST DUP7 SWAP1 PUSH2 0x2C62 JUMP JUMPDEST PUSH1 0x1 PUSH1 0x1 PUSH1 0xD0 SHL SUB AND SWAP8 SWAP7 POP POP POP POP POP POP POP JUMP JUMPDEST PUSH2 0x19BC PUSH2 0x2733 JUMP JUMPDEST PUSH2 0x19C5 PUSH0 PUSH2 0x2D11 JUMP JUMPDEST JUMP JUMPDEST PUSH2 0x19CF PUSH2 0x2503 JUMP JUMPDEST PUSH2 0x8B6 DUP2 PUSH2 0x2D81 JUMP JUMPDEST PUSH0 DUP1 CALLER SWAP1 POP PUSH2 0x1663 DUP7 DUP3 DUP8 DUP8 DUP8 DUP1 DUP1 PUSH1 0x1F ADD PUSH1 0x20 DUP1 SWAP2 DIV MUL PUSH1 0x20 ADD PUSH1 0x40 MLOAD SWAP1 DUP2 ADD PUSH1 0x40 MSTORE DUP1 SWAP4 SWAP3 SWAP2 SWAP1 DUP2 DUP2 MSTORE PUSH1 0x20 ADD DUP4 DUP4 DUP1 DUP3 DUP5 CALLDATACOPY PUSH0 SWAP3 ADD SWAP2 SWAP1 SWAP2 MSTORE POP PUSH2 0x2A6F SWAP3 POP POP POP JUMP JUMPDEST PUSH0 CALLER PUSH2 0x1A2A DUP2 DUP5 PUSH2 0x2E03 JUMP JUMPDEST PUSH2 0x1A52 JUMPI PUSH1 0x40 MLOAD PUSH4 0xD9B39557 PUSH1 0xE0 SHL DUP2 MSTORE PUSH1 0x1 PUSH1 0x1 PUSH1 0xA0 SHL SUB DUP3 AND PUSH1 0x4 DUP3 ADD MSTORE PUSH1 0x24 ADD PUSH2 0x11D6 JUMP JUMPDEST PUSH0 PUSH2 0x1A78 DUP3 PUSH1 0x1 PUSH2 0x1A61 PUSH2 0x1C76 JUMP JUMPDEST PUSH2 0x1A6B SWAP2 SWAP1 PUSH2 0x558D JUMP JUMPDEST PUSH6 0xFFFFFFFFFFFF AND PUSH2 0x2265 JUMP JUMPDEST SWAP1 POP PUSH0 PUSH2 0x1A83 PUSH2 0x1D4D JUMP JUMPDEST SWAP1 POP DUP1 DUP3 LT ISZERO PUSH2 0x1ABF JUMPI PUSH1 0x40 MLOAD PUSH4 0x6121770B PUSH1 0xE1 SHL DUP2 MSTORE PUSH1 0x1 PUSH1 0x1 PUSH1 0xA0 SHL SUB DUP5 AND PUSH1 0x4 DUP3 ADD MSTORE PUSH1 0x24 DUP2 ADD DUP4 SWAP1 MSTORE PUSH1 0x44 DUP2 ADD DUP3 SWAP1 MSTORE PUSH1 0x64 ADD PUSH2 0x11D6 JUMP JUMPDEST PUSH2 0x1ACC DUP9 DUP9 DUP9 DUP9 DUP8 PUSH2 0x2EEB JUMP JUMPDEST SWAP9 SWAP8 POP POP POP POP POP POP POP POP JUMP JUMPDEST PUSH0 PUSH1 0x60 DUP1 DUP3 DUP1 DUP1 DUP4 DUP2 PUSH0 DUP1 MLOAD PUSH1 0x20 PUSH2 0x5B28 DUP4 CODECOPY DUP2 MLOAD SWAP2 MSTORE DUP1 SLOAD SWAP1 SWAP2 POP ISZERO DUP1 ISZERO PUSH2 0x1B03 JUMPI POP PUSH1 0x1 DUP2 ADD SLOAD ISZERO JUMPDEST PUSH2 0x1B47 JUMPI PUSH1 0x40 MLOAD PUSH3 0x461BCD PUSH1 0xE5 SHL DUP2 MSTORE PUSH1 0x20 PUSH1 0x4 DUP3 ADD MSTORE PUSH1 0x15 PUSH1 0x24 DUP3 ADD MSTORE PUSH21 0x1152540DCC4C8E88155B9A5B9A5D1A585B1A5E9959 PUSH1 0x5A SHL PUSH1 0x44 DUP3 ADD MSTORE PUSH1 0x64 ADD PUSH2 0x11D6 JUMP JUMPDEST PUSH2 0x1B4F PUSH2 0x2EF9 JUMP JUMPDEST PUSH2 0x1B57 PUSH2 0x2F37 JUMP JUMPDEST PUSH1 0x40 DUP1 MLOAD PUSH0 DUP1 DUP3 MSTORE PUSH1 0x20 DUP3 ADD SWAP1 SWAP3 MSTORE PUSH1 0xF PUSH1 0xF8 SHL SWAP13 SWAP4 SWAP12 POP SWAP2 SWAP10 POP CHAINID SWAP9 POP ADDRESS SWAP8 POP SWAP6 POP SWAP4 POP SWAP2 POP POP JUMP JUMPDEST PUSH0 CALLER PUSH2 0x1663 DUP7 DUP7 DUP7 DUP7 DUP6 PUSH2 0x2EEB JUMP JUMPDEST PUSH0 DUP1 PUSH32 0x9016D09D72D40FDAE2FD8CEAC6B6234C7706214FD39C1CD1E609A0528C199300 JUMPDEST SLOAD PUSH1 0x1 PUSH1 0x1 PUSH1 0xA0 SHL SUB AND SWAP3 SWAP2 POP POP JUMP JUMPDEST PUSH0 DUP1 PUSH2 0x1C31 DUP5 PUSH2 0x1833 PUSH32 0xF2AAD550CF55F045CB27E9C559F9889FDFB6E6CDAA032301D6EA397784AE51D7 DUP10 DUP10 DUP10 PUSH2 0x1BFA DUP12 PUSH2 0x2A90 JUMP JUMPDEST PUSH1 0x40 DUP1 MLOAD PUSH1 0x20 DUP2 ADD SWAP7 SWAP1 SWAP7 MSTORE DUP6 ADD SWAP4 SWAP1 SWAP4 MSTORE PUSH1 0xFF SWAP1 SWAP2 AND PUSH1 0x60 DUP5 ADD MSTORE PUSH1 0x1 PUSH1 0x1 PUSH1 0xA0 SHL SUB AND PUSH1 0x80 DUP4 ADD MSTORE PUSH1 0xA0 DUP3 ADD MSTORE PUSH1 0xC0 ADD PUSH2 0x1818 JUMP JUMPDEST SWAP1 POP DUP1 PUSH2 0x1C5C JUMPI PUSH1 0x40 MLOAD PUSH4 0x94AB6C07 PUSH1 0xE0 SHL DUP2 MSTORE PUSH1 0x1 PUSH1 0x1 PUSH1 0xA0 SHL SUB DUP6 AND PUSH1 0x4 DUP3 ADD MSTORE PUSH1 0x24 ADD PUSH2 0x11D6 JUMP JUMPDEST PUSH2 0x1663 DUP7 DUP6 DUP8 PUSH1 0x40 MLOAD DUP1 PUSH1 0x20 ADD PUSH1 0x40 MSTORE DUP1 PUSH0 DUP2 MSTORE POP PUSH2 0x2A6F JUMP JUMPDEST PUSH0 PUSH2 0x1C7F PUSH2 0x231C JUMP JUMPDEST PUSH1 0x1 PUSH1 0x1 PUSH1 0xA0 SHL SUB AND PUSH4 0x91DDADF4 PUSH1 0x40 MLOAD DUP2 PUSH4 0xFFFFFFFF AND PUSH1 0xE0 SHL DUP2 MSTORE PUSH1 0x4 ADD PUSH1 0x20 PUSH1 0x40 MLOAD DUP1 DUP4 SUB DUP2 DUP7 GAS STATICCALL SWAP3 POP POP POP DUP1 ISZERO PUSH2 0x1CD8 JUMPI POP PUSH1 0x40 DUP1 MLOAD PUSH1 0x1F RETURNDATASIZE SWAP1 DUP2 ADD PUSH1 0x1F NOT AND DUP3 ADD SWAP1 SWAP3 MSTORE PUSH2 0x1CD5 SWAP2 DUP2 ADD SWAP1 PUSH2 0x55AB JUMP JUMPDEST PUSH1 0x1 JUMPDEST PUSH2 0x170F JUMPI PUSH2 0xDA5 PUSH2 0x2F75 JUMP JUMPDEST PUSH0 PUSH2 0x1CF0 DUP5 DUP5 DUP5 PUSH2 0x2F7F JUMP JUMPDEST SWAP1 POP JUMPDEST SWAP4 SWAP3 POP POP POP JUMP JUMPDEST PUSH0 PUSH32 0xE770710421FD2CAD75AD828C61AA98F2D77D423A440B67872D0F65554148E000 PUSH2 0x1D25 DUP2 PUSH2 0x2FF9 JUMP JUMPDEST PUSH1 0x1 PUSH1 0x1 PUSH1 0xD0 SHL SUB AND SWAP2 POP POP SWAP1 JUMP JUMPDEST PUSH2 0x1D3C PUSH2 0x2503 JUMP JUMPDEST PUSH2 0x8B6 DUP2 PUSH2 0x3030 JUMP JUMPDEST PUSH0 PUSH1 0x1 PUSH2 0xDF5 JUMP JUMPDEST PUSH0 PUSH2 0xDA5 PUSH2 0x30A5 JUMP JUMPDEST PUSH0 ADDRESS PUSH2 0x1D60 PUSH2 0xD9C JUMP JUMPDEST PUSH1 0x1 PUSH1 0x1 PUSH1 0xA0 SHL SUB AND EQ PUSH2 0x1D87 JUMPI PUSH1 0x40 MLOAD PUSH4 0x7485328F PUSH1 0xE1 SHL DUP2 MSTORE PUSH1 0x4 ADD PUSH1 0x40 MLOAD DUP1 SWAP2 SUB SWAP1 REVERT JUMPDEST POP PUSH4 0xBC197C81 PUSH1 0xE0 SHL SWAP6 SWAP5 POP POP POP POP POP JUMP JUMPDEST PUSH0 DUP2 DUP2 MSTORE PUSH0 DUP1 MLOAD PUSH1 0x20 PUSH2 0x5AA7 DUP4 CODECOPY DUP2 MLOAD SWAP2 MSTORE PUSH1 0x20 MSTORE PUSH1 0x40 DUP2 KECCAK256 SLOAD PUSH0 DUP1 MLOAD PUSH1 0x20 PUSH2 0x5BC8 DUP4 CODECOPY DUP2 MLOAD SWAP2 MSTORE SWAP1 PUSH2 0x1DE8 SWAP1 PUSH1 0x1 PUSH1 0xD0 SHL DUP2 DIV PUSH4 0xFFFFFFFF AND SWAP1 PUSH1 0x1 PUSH1 0xA0 SHL SWAP1 DIV PUSH6 0xFFFFFFFFFFFF AND PUSH2 0x55C6 JUMP JUMPDEST PUSH6 0xFFFFFFFFFFFF AND SWAP4 SWAP3 POP POP POP JUMP JUMPDEST PUSH32 0xF0C57E16840DF040F15088DC2F81FE391C3923BEC73E23A9662EFC9C229C6A00 DUP1 SLOAD PUSH1 0x1 PUSH1 0x40 SHL DUP2 DIV PUSH1 0xFF AND ISZERO SWAP1 PUSH1 0x1 PUSH1 0x1 PUSH1 0x40 SHL SUB AND PUSH0 DUP2 ISZERO DUP1 ISZERO PUSH2 0x1E3B JUMPI POP DUP3 JUMPDEST SWAP1 POP PUSH0 DUP3 PUSH1 0x1 PUSH1 0x1 PUSH1 0x40 SHL SUB AND PUSH1 0x1 EQ DUP1 ISZERO PUSH2 0x1E56 JUMPI POP ADDRESS EXTCODESIZE ISZERO JUMPDEST SWAP1 POP DUP2 ISZERO DUP1 ISZERO PUSH2 0x1E64 JUMPI POP DUP1 ISZERO JUMPDEST ISZERO PUSH2 0x1E82 JUMPI PUSH1 0x40 MLOAD PUSH4 0xF92EE8A9 PUSH1 0xE0 SHL DUP2 MSTORE PUSH1 0x4 ADD PUSH1 0x40 MLOAD DUP1 SWAP2 SUB SWAP1 REVERT JUMPDEST DUP5 SLOAD PUSH8 0xFFFFFFFFFFFFFFFF NOT AND PUSH1 0x1 OR DUP6 SSTORE DUP4 ISZERO PUSH2 0x1EAC JUMPI DUP5 SLOAD PUSH1 0xFF PUSH1 0x40 SHL NOT AND PUSH1 0x1 PUSH1 0x40 SHL OR DUP6 SSTORE JUMPDEST PUSH2 0x1ECD PUSH1 0x40 MLOAD DUP1 PUSH1 0x60 ADD PUSH1 0x40 MSTORE DUP1 PUSH1 0x21 DUP2 MSTORE PUSH1 0x20 ADD PUSH2 0x5AE7 PUSH1 0x21 SWAP2 CODECOPY PUSH2 0x30BA JUMP JUMPDEST PUSH2 0x1EDD PUSH2 0x3840 PUSH2 0xC4E0 PUSH1 0xA PUSH2 0x30F2 JUMP JUMPDEST PUSH2 0x1EE5 PUSH2 0x3105 JUMP JUMPDEST PUSH2 0x1EED PUSH2 0x3105 JUMP JUMPDEST PUSH2 0x1EF6 DUP9 PUSH2 0x310D JUMP JUMPDEST PUSH2 0x1F00 PUSH1 0x4 PUSH2 0x311E JUMP JUMPDEST PUSH2 0x1F09 DUP8 PUSH2 0x312F JUMP JUMPDEST PUSH2 0x1F12 DUP7 PUSH2 0x3140 JUMP JUMPDEST PUSH2 0x1F1A PUSH2 0x3105 JUMP JUMPDEST PUSH2 0x1F23 DUP7 PUSH2 0x2D11 JUMP JUMPDEST DUP4 ISZERO PUSH2 0x1F69 JUMPI DUP5 SLOAD PUSH1 0xFF PUSH1 0x40 SHL NOT AND DUP6 SSTORE PUSH1 0x40 MLOAD PUSH1 0x1 DUP2 MSTORE PUSH32 0xC7F505B2F371AE2175EE4913F4499E1F2633A7B5936321EED1CDAEB6115181D2 SWAP1 PUSH1 0x20 ADD PUSH1 0x40 MLOAD DUP1 SWAP2 SUB SWAP1 LOG1 JUMPDEST POP POP POP POP POP POP POP POP JUMP JUMPDEST PUSH2 0x1F7B PUSH2 0x2503 JUMP JUMPDEST PUSH0 DUP1 DUP6 PUSH1 0x1 PUSH1 0x1 PUSH1 0xA0 SHL SUB AND DUP6 DUP6 DUP6 PUSH1 0x40 MLOAD PUSH2 0x1F98 SWAP3 SWAP2 SWAP1 PUSH2 0x5557 JUMP JUMPDEST PUSH0 PUSH1 0x40 MLOAD DUP1 DUP4 SUB DUP2 DUP6 DUP8 GAS CALL SWAP3 POP POP POP RETURNDATASIZE DUP1 PUSH0 DUP2 EQ PUSH2 0x1FD2 JUMPI PUSH1 0x40 MLOAD SWAP2 POP PUSH1 0x1F NOT PUSH1 0x3F RETURNDATASIZE ADD AND DUP3 ADD PUSH1 0x40 MSTORE RETURNDATASIZE DUP3 MSTORE RETURNDATASIZE PUSH0 PUSH1 0x20 DUP5 ADD RETURNDATACOPY PUSH2 0x1FD7 JUMP JUMPDEST PUSH1 0x60 SWAP2 POP JUMPDEST POP SWAP2 POP SWAP2 POP PUSH2 0x1FE6 DUP3 DUP3 PUSH2 0x3151 JUMP JUMPDEST POP POP POP POP POP POP POP JUMP JUMPDEST PUSH0 DUP5 DUP5 DUP5 DUP5 PUSH1 0x40 MLOAD PUSH1 0x20 ADD PUSH2 0x2007 SWAP5 SWAP4 SWAP3 SWAP2 SWAP1 PUSH2 0x4D47 JUMP JUMPDEST PUSH1 0x40 DUP1 MLOAD PUSH1 0x1F NOT DUP2 DUP5 SUB ADD DUP2 MSTORE SWAP2 SWAP1 MSTORE DUP1 MLOAD PUSH1 0x20 SWAP1 SWAP2 ADD KECCAK256 SWAP6 SWAP5 POP POP POP POP POP JUMP JUMPDEST PUSH2 0x2030 PUSH2 0x2733 JUMP JUMPDEST PUSH1 0x40 MLOAD PUSH1 0x1 PUSH1 0x1 PUSH1 0xA0 SHL SUB DUP4 AND SWAP1 DUP3 ISZERO PUSH2 0x8FC MUL SWAP1 DUP4 SWAP1 PUSH0 DUP2 DUP2 DUP2 DUP6 DUP9 DUP9 CALL SWAP4 POP POP POP POP ISZERO DUP1 ISZERO PUSH2 0x2063 JUMPI RETURNDATASIZE PUSH0 DUP1 RETURNDATACOPY RETURNDATASIZE PUSH0 REVERT JUMPDEST POP POP POP JUMP JUMPDEST PUSH0 DUP1 PUSH0 DUP1 MLOAD PUSH1 0x20 PUSH2 0x5BA8 DUP4 CODECOPY DUP2 MLOAD SWAP2 MSTORE PUSH2 0x1BB4 JUMP JUMPDEST PUSH0 DUP1 PUSH0 DUP1 MLOAD PUSH1 0x20 PUSH2 0x5B08 DUP4 CODECOPY DUP2 MLOAD SWAP2 MSTORE JUMPDEST SLOAD SWAP3 SWAP2 POP POP JUMP JUMPDEST PUSH0 DUP2 DUP2 MSTORE PUSH32 0x7FD223D3380145BD26132714391E777C488A0DF7AC2DD4B66419D8549FB3A601 PUSH1 0x20 SWAP1 DUP2 MSTORE PUSH1 0x40 SWAP2 DUP3 SWAP1 KECCAK256 DUP1 SLOAD DUP4 MLOAD DUP2 DUP5 MUL DUP2 ADD DUP5 ADD SWAP1 SWAP5 MSTORE DUP1 DUP5 MSTORE PUSH0 DUP1 MLOAD PUSH1 0x20 PUSH2 0x5B08 DUP4 CODECOPY DUP2 MLOAD SWAP2 MSTORE SWAP4 SWAP2 SWAP3 PUSH2 0x15F7 SWAP3 SWAP2 DUP5 SWAP2 DUP4 ADD DUP3 DUP3 DUP1 ISZERO PUSH2 0x2125 JUMPI PUSH1 0x20 MUL DUP3 ADD SWAP2 SWAP1 PUSH0 MSTORE PUSH1 0x20 PUSH0 KECCAK256 SWAP1 JUMPDEST DUP2 SLOAD PUSH1 0x1 PUSH1 0x1 PUSH1 0xA0 SHL SUB AND DUP2 MSTORE PUSH1 0x1 SWAP1 SWAP2 ADD SWAP1 PUSH1 0x20 ADD DUP1 DUP4 GT PUSH2 0x2107 JUMPI JUMPDEST POP POP POP POP POP DUP3 PUSH1 0x1 ADD DUP1 SLOAD DUP1 PUSH1 0x20 MUL PUSH1 0x20 ADD PUSH1 0x40 MLOAD SWAP1 DUP2 ADD PUSH1 0x40 MSTORE DUP1 SWAP3 SWAP2 SWAP1 DUP2 DUP2 MSTORE PUSH1 0x20 ADD DUP3 DUP1 SLOAD DUP1 ISZERO PUSH2 0x2176 JUMPI PUSH1 0x20 MUL DUP3 ADD SWAP2 SWAP1 PUSH0 MSTORE PUSH1 0x20 PUSH0 KECCAK256 SWAP1 JUMPDEST DUP2 SLOAD DUP2 MSTORE PUSH1 0x20 ADD SWAP1 PUSH1 0x1 ADD SWAP1 DUP1 DUP4 GT PUSH2 0x2162 JUMPI JUMPDEST POP POP POP POP POP DUP4 PUSH1 0x2 ADD DUP1 SLOAD DUP1 PUSH1 0x20 MUL PUSH1 0x20 ADD PUSH1 0x40 MLOAD SWAP1 DUP2 ADD PUSH1 0x40 MSTORE DUP1 SWAP3 SWAP2 SWAP1 DUP2 DUP2 MSTORE PUSH1 0x20 ADD PUSH0 SWAP1 JUMPDEST DUP3 DUP3 LT ISZERO PUSH2 0x2246 JUMPI DUP4 DUP3 SWAP1 PUSH0 MSTORE PUSH1 0x20 PUSH0 KECCAK256 ADD DUP1 SLOAD PUSH2 0x21BB SWAP1 PUSH2 0x5497 JUMP JUMPDEST DUP1 PUSH1 0x1F ADD PUSH1 0x20 DUP1 SWAP2 DIV MUL PUSH1 0x20 ADD PUSH1 0x40 MLOAD SWAP1 DUP2 ADD PUSH1 0x40 MSTORE DUP1 SWAP3 SWAP2 SWAP1 DUP2 DUP2 MSTORE PUSH1 0x20 ADD DUP3 DUP1 SLOAD PUSH2 0x21E7 SWAP1 PUSH2 0x5497 JUMP JUMPDEST DUP1 ISZERO PUSH2 0x2232 JUMPI DUP1 PUSH1 0x1F LT PUSH2 0x2209 JUMPI PUSH2 0x100 DUP1 DUP4 SLOAD DIV MUL DUP4 MSTORE SWAP2 PUSH1 0x20 ADD SWAP2 PUSH2 0x2232 JUMP JUMPDEST DUP3 ADD SWAP2 SWAP1 PUSH0 MSTORE PUSH1 0x20 PUSH0 KECCAK256 SWAP1 JUMPDEST DUP2 SLOAD DUP2 MSTORE SWAP1 PUSH1 0x1 ADD SWAP1 PUSH1 0x20 ADD DUP1 DUP4 GT PUSH2 0x2215 JUMPI DUP3 SWAP1 SUB PUSH1 0x1F AND DUP3 ADD SWAP2 JUMPDEST POP POP POP POP POP DUP2 MSTORE PUSH1 0x20 ADD SWAP1 PUSH1 0x1 ADD SWAP1 PUSH2 0x219E JUMP JUMPDEST POP POP POP POP DUP5 PUSH1 0x3 ADD SLOAD PUSH2 0xF15 JUMP JUMPDEST PUSH2 0x225C PUSH2 0x2503 JUMP JUMPDEST PUSH2 0x8B6 DUP2 PUSH2 0x316D JUMP JUMPDEST PUSH0 PUSH2 0x1CF3 DUP4 DUP4 PUSH2 0x227F PUSH1 0x40 DUP1 MLOAD PUSH1 0x20 DUP2 ADD SWAP1 SWAP2 MSTORE PUSH0 DUP2 MSTORE SWAP1 JUMP JUMPDEST PUSH2 0x2F7F JUMP JUMPDEST PUSH2 0x228C PUSH2 0x2503 JUMP JUMPDEST PUSH2 0x8B6 DUP2 PUSH2 0x321A JUMP JUMPDEST PUSH0 ADDRESS PUSH2 0x229F PUSH2 0xD9C JUMP JUMPDEST PUSH1 0x1 PUSH1 0x1 PUSH1 0xA0 SHL SUB AND EQ PUSH2 0x22C6 JUMPI PUSH1 0x40 MLOAD PUSH4 0x7485328F PUSH1 0xE1 SHL DUP2 MSTORE PUSH1 0x4 ADD PUSH1 0x40 MLOAD DUP1 SWAP2 SUB SWAP1 REVERT JUMPDEST POP PUSH4 0xF23A6E61 PUSH1 0xE0 SHL SWAP6 SWAP5 POP POP POP POP POP JUMP JUMPDEST PUSH2 0x22E0 PUSH2 0x2733 JUMP JUMPDEST PUSH1 0x1 PUSH1 0x1 PUSH1 0xA0 SHL SUB DUP2 AND PUSH2 0x2309 JUMPI PUSH1 0x40 MLOAD PUSH4 0x1E4FBDF7 PUSH1 0xE0 SHL DUP2 MSTORE PUSH0 PUSH1 0x4 DUP3 ADD MSTORE PUSH1 0x24 ADD PUSH2 0x11D6 JUMP JUMPDEST PUSH2 0x8B6 DUP2 PUSH2 0x2D11 JUMP JUMPDEST PUSH0 PUSH2 0xDF5 DUP3 PUSH2 0x3267 JUMP JUMPDEST PUSH0 DUP1 PUSH32 0x3BA4977254E415696610A40EBF2258DBFA0EC6A2FF64E84BFE715FF16977CC00 PUSH2 0x1BB4 JUMP JUMPDEST PUSH0 DUP2 DUP2 MSTORE PUSH32 0x7FD223D3380145BD26132714391E777C488A0DF7AC2DD4B66419D8549FB3A601 PUSH1 0x20 SWAP1 DUP2 MSTORE PUSH1 0x40 SWAP2 DUP3 SWAP1 KECCAK256 DUP1 SLOAD DUP4 MLOAD DUP2 DUP5 MUL DUP2 ADD DUP5 ADD SWAP1 SWAP5 MSTORE DUP1 DUP5 MSTORE PUSH0 DUP1 MLOAD PUSH1 0x20 PUSH2 0x5B08 DUP4 CODECOPY DUP2 MLOAD SWAP2 MSTORE SWAP4 SWAP2 SWAP3 PUSH2 0x15F7 SWAP3 SWAP2 DUP5 SWAP2 DUP4 ADD DUP3 DUP3 DUP1 ISZERO PUSH2 0x23D4 JUMPI PUSH1 0x20 MUL DUP3 ADD SWAP2 SWAP1 PUSH0 MSTORE PUSH1 0x20 PUSH0 KECCAK256 SWAP1 JUMPDEST DUP2 SLOAD PUSH1 0x1 PUSH1 0x1 PUSH1 0xA0 SHL SUB AND DUP2 MSTORE PUSH1 0x1 SWAP1 SWAP2 ADD SWAP1 PUSH1 0x20 ADD DUP1 DUP4 GT PUSH2 0x23B6 JUMPI JUMPDEST POP POP POP POP POP DUP3 PUSH1 0x1 ADD DUP1 SLOAD DUP1 PUSH1 0x20 MUL PUSH1 0x20 ADD PUSH1 0x40 MLOAD SWAP1 DUP2 ADD PUSH1 0x40 MSTORE DUP1 SWAP3 SWAP2 SWAP1 DUP2 DUP2 MSTORE PUSH1 0x20 ADD DUP3 DUP1 SLOAD DUP1 ISZERO PUSH2 0x2425 JUMPI PUSH1 0x20 MUL DUP3 ADD SWAP2 SWAP1 PUSH0 MSTORE PUSH1 0x20 PUSH0 KECCAK256 SWAP1 JUMPDEST DUP2 SLOAD DUP2 MSTORE PUSH1 0x20 ADD SWAP1 PUSH1 0x1 ADD SWAP1 DUP1 DUP4 GT PUSH2 0x2411 JUMPI JUMPDEST POP POP POP POP POP DUP4 PUSH1 0x2 ADD DUP1 SLOAD DUP1 PUSH1 0x20 MUL PUSH1 0x20 ADD PUSH1 0x40 MLOAD SWAP1 DUP2 ADD PUSH1 0x40 MSTORE DUP1 SWAP3 SWAP2 SWAP1 DUP2 DUP2 MSTORE PUSH1 0x20 ADD PUSH0 SWAP1 JUMPDEST DUP3 DUP3 LT ISZERO PUSH2 0x24F5 JUMPI DUP4 DUP3 SWAP1 PUSH0 MSTORE PUSH1 0x20 PUSH0 KECCAK256 ADD DUP1 SLOAD PUSH2 0x246A SWAP1 PUSH2 0x5497 JUMP JUMPDEST DUP1 PUSH1 0x1F ADD PUSH1 0x20 DUP1 SWAP2 DIV MUL PUSH1 0x20 ADD PUSH1 0x40 MLOAD SWAP1 DUP2 ADD PUSH1 0x40 MSTORE DUP1 SWAP3 SWAP2 SWAP1 DUP2 DUP2 MSTORE PUSH1 0x20 ADD DUP3 DUP1 SLOAD PUSH2 0x2496 SWAP1 PUSH2 0x5497 JUMP JUMPDEST DUP1 ISZERO PUSH2 0x24E1 JUMPI DUP1 PUSH1 0x1F LT PUSH2 0x24B8 JUMPI PUSH2 0x100 DUP1 DUP4 SLOAD DIV MUL DUP4 MSTORE SWAP2 PUSH1 0x20 ADD SWAP2 PUSH2 0x24E1 JUMP JUMPDEST DUP3 ADD SWAP2 SWAP1 PUSH0 MSTORE PUSH1 0x20 PUSH0 KECCAK256 SWAP1 JUMPDEST DUP2 SLOAD DUP2 MSTORE SWAP1 PUSH1 0x1 ADD SWAP1 PUSH1 0x20 ADD DUP1 DUP4 GT PUSH2 0x24C4 JUMPI DUP3 SWAP1 SUB PUSH1 0x1F AND DUP3 ADD SWAP2 JUMPDEST POP POP POP POP POP DUP2 MSTORE PUSH1 0x20 ADD SWAP1 PUSH1 0x1 ADD SWAP1 PUSH2 0x244D JUMP JUMPDEST POP POP POP POP DUP5 PUSH1 0x3 ADD SLOAD PUSH2 0x1201 JUMP JUMPDEST PUSH0 DUP1 MLOAD PUSH1 0x20 PUSH2 0x5BC8 DUP4 CODECOPY DUP2 MLOAD SWAP2 MSTORE CALLER PUSH2 0x251A PUSH2 0xD9C JUMP JUMPDEST PUSH1 0x1 PUSH1 0x1 PUSH1 0xA0 SHL SUB AND EQ PUSH2 0x2543 JUMPI PUSH1 0x40 MLOAD PUSH4 0x47096E47 PUSH1 0xE0 SHL DUP2 MSTORE CALLER PUSH1 0x4 DUP3 ADD MSTORE PUSH1 0x24 ADD PUSH2 0x11D6 JUMP JUMPDEST ADDRESS PUSH2 0x254C PUSH2 0xD9C JUMP JUMPDEST PUSH1 0x1 PUSH1 0x1 PUSH1 0xA0 SHL SUB AND EQ PUSH2 0x8B6 JUMPI PUSH0 DUP1 CALLDATASIZE PUSH1 0x40 MLOAD PUSH2 0x256B SWAP3 SWAP2 SWAP1 PUSH2 0x5557 JUMP JUMPDEST PUSH1 0x40 MLOAD DUP1 SWAP2 SUB SWAP1 KECCAK256 SWAP1 POP JUMPDEST DUP1 PUSH2 0x2583 DUP4 PUSH1 0x2 ADD PUSH2 0x32FB JUMP JUMPDEST SUB PUSH2 0x2576 JUMPI POP POP JUMP JUMPDEST PUSH32 0xE770710421FD2CAD75AD828C61AA98F2D77D423A440B67872D0F65554148E000 PUSH1 0x64 DUP1 DUP4 GT ISZERO PUSH2 0x25DA JUMPI PUSH1 0x40 MLOAD PUSH4 0x243E5445 PUSH1 0xE0 SHL DUP2 MSTORE PUSH1 0x4 DUP2 ADD DUP5 SWAP1 MSTORE PUSH1 0x24 DUP2 ADD DUP3 SWAP1 MSTORE PUSH1 0x44 ADD PUSH2 0x11D6 JUMP JUMPDEST PUSH0 PUSH2 0x25E3 PUSH2 0x1CFA JUMP JUMPDEST SWAP1 POP PUSH2 0x2601 PUSH2 0x25F0 PUSH2 0x1C76 JUMP JUMPDEST PUSH2 0x25F9 DUP7 PUSH2 0x3377 JUMP JUMPDEST DUP6 SWAP2 SWAP1 PUSH2 0x33AA JUMP JUMPDEST POP POP PUSH1 0x40 DUP1 MLOAD DUP3 DUP2 MSTORE PUSH1 0x20 DUP2 ADD DUP7 SWAP1 MSTORE PUSH32 0x553476BF02EF2726E8CE5CED78D63E26E602E4A2257B1F559418E24B4633997 SWAP2 ADD PUSH1 0x40 MLOAD DUP1 SWAP2 SUB SWAP1 LOG1 POP POP POP POP JUMP JUMPDEST PUSH0 DUP2 PUSH1 0x7 DUP2 GT ISZERO PUSH2 0x2655 JUMPI PUSH2 0x2655 PUSH2 0x4DFD JUMP JUMPDEST PUSH1 0x1 PUSH1 0xFF SWAP2 SWAP1 SWAP2 AND SHL SWAP3 SWAP2 POP POP JUMP JUMPDEST PUSH0 DUP1 PUSH2 0x266F DUP5 PUSH2 0x142E JUMP JUMPDEST SWAP1 POP PUSH0 DUP4 PUSH2 0x267C DUP4 PUSH2 0x2642 JUMP JUMPDEST AND SUB PUSH2 0x1CF3 JUMPI DUP4 DUP2 DUP5 PUSH1 0x40 MLOAD PUSH4 0x31B75E4D PUSH1 0xE0 SHL DUP2 MSTORE PUSH1 0x4 ADD PUSH2 0x11D6 SWAP4 SWAP3 SWAP2 SWAP1 PUSH2 0x55E4 JUMP JUMPDEST PUSH0 PUSH2 0x1663 DUP7 DUP7 DUP7 DUP7 DUP7 PUSH2 0x33C4 JUMP JUMPDEST DUP2 SLOAD PUSH1 0x1 PUSH1 0x1 PUSH1 0x80 SHL SUB PUSH1 0x1 PUSH1 0x80 SHL DUP3 DIV DUP2 AND SWAP2 DUP2 AND PUSH1 0x1 DUP4 ADD SWAP1 SWAP2 AND SUB PUSH2 0x26EA JUMPI PUSH1 0x40 MLOAD PUSH4 0x8ACB5F27 PUSH1 0xE0 SHL DUP2 MSTORE PUSH1 0x4 ADD PUSH1 0x40 MLOAD DUP1 SWAP2 SUB SWAP1 REVERT JUMPDEST PUSH1 0x1 PUSH1 0x1 PUSH1 0x80 SHL SUB DUP1 DUP3 AND PUSH0 SWAP1 DUP2 MSTORE PUSH1 0x1 DUP1 DUP7 ADD PUSH1 0x20 MSTORE PUSH1 0x40 SWAP1 SWAP2 KECCAK256 SWAP4 SWAP1 SWAP4 SSTORE DUP4 SLOAD SWAP2 SWAP1 SWAP3 ADD DUP3 AND PUSH1 0x1 PUSH1 0x80 SHL MUL SWAP2 AND OR SWAP1 SSTORE JUMP JUMPDEST PUSH2 0x272C DUP6 DUP6 DUP6 DUP6 DUP6 PUSH2 0x355D JUMP JUMPDEST POP POP POP POP POP JUMP JUMPDEST CALLER PUSH2 0x273C PUSH2 0x1B90 JUMP JUMPDEST PUSH1 0x1 PUSH1 0x1 PUSH1 0xA0 SHL SUB AND EQ PUSH2 0x19C5 JUMPI PUSH1 0x40 MLOAD PUSH4 0x118CDAA7 PUSH1 0xE0 SHL DUP2 MSTORE CALLER PUSH1 0x4 DUP3 ADD MSTORE PUSH1 0x24 ADD PUSH2 0x11D6 JUMP JUMPDEST PUSH0 PUSH0 DUP1 MLOAD PUSH1 0x20 PUSH2 0x5BA8 DUP4 CODECOPY DUP2 MLOAD SWAP2 MSTORE DUP2 PUSH2 0x277E DUP5 PUSH2 0x35FE JUMP JUMPDEST SWAP1 POP PUSH1 0x5 DUP2 PUSH1 0x7 DUP2 GT ISZERO PUSH2 0x2794 JUMPI PUSH2 0x2794 PUSH2 0x4DFD JUMP JUMPDEST EQ PUSH2 0x27A0 JUMPI SWAP4 SWAP3 POP POP POP JUMP JUMPDEST PUSH0 DUP5 DUP2 MSTORE PUSH1 0x1 DUP4 ADD PUSH1 0x20 MSTORE PUSH1 0x40 SWAP1 DUP2 SWAP1 KECCAK256 SLOAD DUP4 SLOAD SWAP2 MLOAD PUSH4 0x2C258A9F PUSH1 0xE1 SHL DUP2 MSTORE PUSH1 0x4 DUP2 ADD DUP3 SWAP1 MSTORE SWAP1 SWAP2 PUSH1 0x1 PUSH1 0x1 PUSH1 0xA0 SHL SUB AND SWAP1 PUSH4 0x584B153E SWAP1 PUSH1 0x24 ADD PUSH1 0x20 PUSH1 0x40 MLOAD DUP1 DUP4 SUB DUP2 DUP7 GAS STATICCALL ISZERO DUP1 ISZERO PUSH2 0x27F7 JUMPI RETURNDATASIZE PUSH0 DUP1 RETURNDATACOPY RETURNDATASIZE PUSH0 REVERT JUMPDEST POP POP POP POP PUSH1 0x40 MLOAD RETURNDATASIZE PUSH1 0x1F NOT PUSH1 0x1F DUP3 ADD AND DUP3 ADD DUP1 PUSH1 0x40 MSTORE POP DUP2 ADD SWAP1 PUSH2 0x281B SWAP2 SWAP1 PUSH2 0x5606 JUMP JUMPDEST ISZERO PUSH2 0x282B JUMPI POP PUSH1 0x5 SWAP5 SWAP4 POP POP POP POP JUMP JUMPDEST DUP3 SLOAD PUSH1 0x40 MLOAD PUSH4 0x2AB0F529 PUSH1 0xE0 SHL DUP2 MSTORE PUSH1 0x4 DUP2 ADD DUP4 SWAP1 MSTORE PUSH1 0x1 PUSH1 0x1 PUSH1 0xA0 SHL SUB SWAP1 SWAP2 AND SWAP1 PUSH4 0x2AB0F529 SWAP1 PUSH1 0x24 ADD PUSH1 0x20 PUSH1 0x40 MLOAD DUP1 DUP4 SUB DUP2 DUP7 GAS STATICCALL ISZERO DUP1 ISZERO PUSH2 0x2871 JUMPI RETURNDATASIZE PUSH0 DUP1 RETURNDATACOPY RETURNDATASIZE PUSH0 REVERT JUMPDEST POP POP POP POP PUSH1 0x40 MLOAD RETURNDATASIZE PUSH1 0x1F NOT PUSH1 0x1F DUP3 ADD AND DUP3 ADD DUP1 PUSH1 0x40 MSTORE POP DUP2 ADD SWAP1 PUSH2 0x2895 SWAP2 SWAP1 PUSH2 0x5606 JUMP JUMPDEST ISZERO PUSH2 0x28A5 JUMPI POP PUSH1 0x7 SWAP5 SWAP4 POP POP POP POP JUMP JUMPDEST POP PUSH1 0x2 SWAP5 SWAP4 POP POP POP POP JUMP JUMPDEST PUSH0 PUSH2 0x28BD DUP6 DUP6 DUP6 DUP6 PUSH2 0x376A JUMP JUMPDEST SWAP6 SWAP5 POP POP POP POP POP JUMP JUMPDEST ADDRESS PUSH1 0x1 PUSH1 0x1 PUSH1 0xA0 SHL SUB PUSH32 0x0 AND EQ DUP1 PUSH2 0x294C JUMPI POP PUSH32 0x0 PUSH1 0x1 PUSH1 0x1 PUSH1 0xA0 SHL SUB AND PUSH2 0x2940 PUSH0 DUP1 MLOAD PUSH1 0x20 PUSH2 0x5B68 DUP4 CODECOPY DUP2 MLOAD SWAP2 MSTORE SLOAD PUSH1 0x1 PUSH1 0x1 PUSH1 0xA0 SHL SUB AND SWAP1 JUMP JUMPDEST PUSH1 0x1 PUSH1 0x1 PUSH1 0xA0 SHL SUB AND EQ ISZERO JUMPDEST ISZERO PUSH2 0x19C5 JUMPI PUSH1 0x40 MLOAD PUSH4 0x703E46DD PUSH1 0xE1 SHL DUP2 MSTORE PUSH1 0x4 ADD PUSH1 0x40 MLOAD DUP1 SWAP2 SUB SWAP1 REVERT JUMPDEST DUP2 PUSH1 0x1 PUSH1 0x1 PUSH1 0xA0 SHL SUB AND PUSH4 0x52D1902D PUSH1 0x40 MLOAD DUP2 PUSH4 0xFFFFFFFF AND PUSH1 0xE0 SHL DUP2 MSTORE PUSH1 0x4 ADD PUSH1 0x20 PUSH1 0x40 MLOAD DUP1 DUP4 SUB DUP2 DUP7 GAS STATICCALL SWAP3 POP POP POP DUP1 ISZERO PUSH2 0x29C4 JUMPI POP PUSH1 0x40 DUP1 MLOAD PUSH1 0x1F RETURNDATASIZE SWAP1 DUP2 ADD PUSH1 0x1F NOT AND DUP3 ADD SWAP1 SWAP3 MSTORE PUSH2 0x29C1 SWAP2 DUP2 ADD SWAP1 PUSH2 0x5625 JUMP JUMPDEST PUSH1 0x1 JUMPDEST PUSH2 0x29EC JUMPI PUSH1 0x40 MLOAD PUSH4 0x4C9C8CE3 PUSH1 0xE0 SHL DUP2 MSTORE PUSH1 0x1 PUSH1 0x1 PUSH1 0xA0 SHL SUB DUP4 AND PUSH1 0x4 DUP3 ADD MSTORE PUSH1 0x24 ADD PUSH2 0x11D6 JUMP JUMPDEST PUSH0 DUP1 MLOAD PUSH1 0x20 PUSH2 0x5B68 DUP4 CODECOPY DUP2 MLOAD SWAP2 MSTORE DUP2 EQ PUSH2 0x2A1C JUMPI PUSH1 0x40 MLOAD PUSH4 0x2A875269 PUSH1 0xE2 SHL DUP2 MSTORE PUSH1 0x4 DUP2 ADD DUP3 SWAP1 MSTORE PUSH1 0x24 ADD PUSH2 0x11D6 JUMP JUMPDEST PUSH2 0x2063 DUP4 DUP4 PUSH2 0x3813 JUMP JUMPDEST ADDRESS PUSH1 0x1 PUSH1 0x1 PUSH1 0xA0 SHL SUB PUSH32 0x0 AND EQ PUSH2 0x19C5 JUMPI PUSH1 0x40 MLOAD PUSH4 0x703E46DD PUSH1 0xE1 SHL DUP2 MSTORE PUSH1 0x4 ADD PUSH1 0x40 MLOAD DUP1 SWAP2 SUB SWAP1 REVERT JUMPDEST PUSH0 PUSH2 0x28BD DUP6 DUP6 DUP6 DUP6 PUSH2 0x2A8B PUSH1 0x40 DUP1 MLOAD PUSH1 0x20 DUP2 ADD SWAP1 SWAP2 MSTORE PUSH0 DUP2 MSTORE SWAP1 JUMP JUMPDEST PUSH2 0x2B52 JUMP JUMPDEST PUSH1 0x1 PUSH1 0x1 PUSH1 0xA0 SHL SUB AND PUSH0 SWAP1 DUP2 MSTORE PUSH32 0x5AB42CED628888259C08AC98DB1EB0CF702FC1501344311D8B100CD1BFE4BB00 PUSH1 0x20 MSTORE PUSH1 0x40 SWAP1 KECCAK256 DUP1 SLOAD PUSH1 0x1 DUP2 ADD SWAP1 SWAP2 SSTORE SWAP1 JUMP JUMPDEST PUSH0 PUSH2 0xDF5 PUSH2 0x2ADD PUSH2 0x3868 JUMP JUMPDEST DUP4 PUSH1 0x40 MLOAD PUSH2 0x1901 PUSH1 0xF0 SHL DUP2 MSTORE PUSH1 0x2 DUP2 ADD SWAP3 SWAP1 SWAP3 MSTORE PUSH1 0x22 DUP3 ADD MSTORE PUSH1 0x42 SWAP1 KECCAK256 SWAP1 JUMP JUMPDEST PUSH0 DUP1 PUSH0 PUSH2 0x2B0A DUP6 DUP6 PUSH2 0x3871 JUMP JUMPDEST POP SWAP1 SWAP3 POP SWAP1 POP PUSH0 DUP2 PUSH1 0x3 DUP2 GT ISZERO PUSH2 0x2B23 JUMPI PUSH2 0x2B23 PUSH2 0x4DFD JUMP JUMPDEST EQ DUP1 ISZERO PUSH2 0x2B41 JUMPI POP DUP6 PUSH1 0x1 PUSH1 0x1 PUSH1 0xA0 SHL SUB AND DUP3 PUSH1 0x1 PUSH1 0x1 PUSH1 0xA0 SHL SUB AND EQ JUMPDEST DUP1 PUSH2 0x1663 JUMPI POP PUSH2 0x1663 DUP7 DUP7 DUP7 PUSH2 0x38BA JUMP JUMPDEST PUSH0 PUSH2 0x2B61 DUP7 PUSH2 0xF41 PUSH1 0x1 PUSH2 0x2642 JUMP JUMPDEST POP PUSH0 PUSH2 0x2B76 DUP7 PUSH2 0x2B70 DUP10 PUSH2 0x1380 JUMP JUMPDEST DUP6 PUSH2 0x2F7F JUMP JUMPDEST SWAP1 POP PUSH2 0x2B85 DUP8 DUP8 DUP8 DUP5 DUP8 PUSH2 0x3990 JUMP JUMPDEST DUP3 MLOAD PUSH0 SUB PUSH2 0x2BD9 JUMPI DUP6 PUSH1 0x1 PUSH1 0x1 PUSH1 0xA0 SHL SUB AND PUSH32 0xB8E138887D0AA13BAB447E82DE9D5C1777041ECD21CA36BA824FF1E6C07DDDA4 DUP9 DUP8 DUP5 DUP9 PUSH1 0x40 MLOAD PUSH2 0x2BCC SWAP5 SWAP4 SWAP3 SWAP2 SWAP1 PUSH2 0x563C JUMP JUMPDEST PUSH1 0x40 MLOAD DUP1 SWAP2 SUB SWAP1 LOG2 PUSH2 0x1663 JUMP JUMPDEST DUP6 PUSH1 0x1 PUSH1 0x1 PUSH1 0xA0 SHL SUB AND PUSH32 0xE2BABFBAC5889A709B63BB7F598B324E08BC5A4FB9EC647FB3CBC9EC07EB8712 DUP9 DUP8 DUP5 DUP9 DUP9 PUSH1 0x40 MLOAD PUSH2 0x2C1A SWAP6 SWAP5 SWAP4 SWAP3 SWAP2 SWAP1 PUSH2 0x5663 JUMP JUMPDEST PUSH1 0x40 MLOAD DUP1 SWAP2 SUB SWAP1 LOG2 SWAP7 SWAP6 POP POP POP POP POP POP JUMP JUMPDEST PUSH0 PUSH6 0xFFFFFFFFFFFF DUP3 GT ISZERO PUSH2 0x2C5E JUMPI PUSH1 0x40 MLOAD PUSH4 0x6DFCC65 PUSH1 0xE4 SHL DUP2 MSTORE PUSH1 0x30 PUSH1 0x4 DUP3 ADD MSTORE PUSH1 0x24 DUP2 ADD DUP4 SWAP1 MSTORE PUSH1 0x44 ADD PUSH2 0x11D6 JUMP JUMPDEST POP SWAP1 JUMP JUMPDEST DUP2 SLOAD PUSH0 SWAP1 DUP2 DUP2 PUSH1 0x5 DUP2 GT ISZERO PUSH2 0x2CBE JUMPI PUSH0 PUSH2 0x2C7B DUP5 PUSH2 0x3A91 JUMP JUMPDEST PUSH2 0x2C85 SWAP1 DUP6 PUSH2 0x557A JUMP JUMPDEST PUSH0 DUP9 DUP2 MSTORE PUSH1 0x20 SWAP1 KECCAK256 SWAP1 SWAP2 POP DUP2 ADD SLOAD PUSH6 0xFFFFFFFFFFFF SWAP1 DUP2 AND SWAP1 DUP8 AND LT ISZERO PUSH2 0x2CAE JUMPI DUP1 SWAP2 POP PUSH2 0x2CBC JUMP JUMPDEST PUSH2 0x2CB9 DUP2 PUSH1 0x1 PUSH2 0x569C JUMP JUMPDEST SWAP3 POP JUMPDEST POP JUMPDEST PUSH0 PUSH2 0x2CCB DUP8 DUP8 DUP6 DUP6 PUSH2 0x3B75 JUMP JUMPDEST SWAP1 POP DUP1 ISZERO PUSH2 0x2D05 JUMPI PUSH2 0x2CEF DUP8 PUSH2 0x2CE2 PUSH1 0x1 DUP5 PUSH2 0x557A JUMP JUMPDEST PUSH0 SWAP2 DUP3 MSTORE PUSH1 0x20 SWAP1 SWAP2 KECCAK256 ADD SWAP1 JUMP JUMPDEST SLOAD PUSH1 0x1 PUSH1 0x30 SHL SWAP1 DIV PUSH1 0x1 PUSH1 0x1 PUSH1 0xD0 SHL SUB AND PUSH2 0x18FC JUMP JUMPDEST PUSH0 SWAP8 SWAP7 POP POP POP POP POP POP POP JUMP JUMPDEST PUSH32 0x9016D09D72D40FDAE2FD8CEAC6B6234C7706214FD39C1CD1E609A0528C199300 DUP1 SLOAD PUSH1 0x1 PUSH1 0x1 PUSH1 0xA0 SHL SUB NOT DUP2 AND PUSH1 0x1 PUSH1 0x1 PUSH1 0xA0 SHL SUB DUP5 DUP2 AND SWAP2 DUP3 OR DUP5 SSTORE PUSH1 0x40 MLOAD SWAP3 AND SWAP2 DUP3 SWAP1 PUSH32 0x8BE0079C531659141344CD1FD0A4F28419497F9722A3DAAFE3B4186F6B6457E0 SWAP1 PUSH0 SWAP1 LOG3 POP POP POP JUMP JUMPDEST PUSH0 DUP1 MLOAD PUSH1 0x20 PUSH2 0x5AC7 DUP4 CODECOPY DUP2 MLOAD SWAP2 MSTORE SLOAD PUSH1 0x40 DUP1 MLOAD PUSH6 0xFFFFFFFFFFFF SWAP3 DUP4 AND DUP2 MSTORE SWAP2 DUP4 AND PUSH1 0x20 DUP4 ADD MSTORE DUP1 MLOAD PUSH0 DUP1 MLOAD PUSH1 0x20 PUSH2 0x5B48 DUP4 CODECOPY DUP2 MLOAD SWAP2 MSTORE SWAP3 PUSH32 0xC565B045403DC03C2EEA82B81A0465EDAD9E2E7FC4D97E11421C209DA93D7A93 SWAP3 SWAP1 DUP3 SWAP1 SUB ADD SWAP1 LOG1 PUSH1 0x1 ADD DUP1 SLOAD PUSH6 0xFFFFFFFFFFFF NOT AND PUSH6 0xFFFFFFFFFFFF SWAP3 SWAP1 SWAP3 AND SWAP2 SWAP1 SWAP2 OR SWAP1 SSTORE JUMP JUMPDEST DUP1 MLOAD PUSH0 SWAP1 PUSH1 0x34 DUP2 LT ISZERO PUSH2 0x2E1A JUMPI PUSH1 0x1 SWAP2 POP POP PUSH2 0xDF5 JUMP JUMPDEST DUP3 DUP2 ADD PUSH1 0x13 NOT ADD MLOAD PUSH1 0x1 PUSH1 0x1 PUSH1 0xA0 SHL SUB NOT DUP2 AND PUSH12 0x46E0E4DEE0DEE6CAE47A60F PUSH1 0xA3 SHL EQ PUSH2 0x2E4D JUMPI PUSH1 0x1 SWAP3 POP POP POP PUSH2 0xDF5 JUMP JUMPDEST PUSH0 DUP1 PUSH2 0x2E5A PUSH1 0x28 DUP6 PUSH2 0x557A JUMP JUMPDEST SWAP1 POP JUMPDEST DUP4 DUP2 LT ISZERO PUSH2 0x2ECA JUMPI PUSH0 DUP1 PUSH2 0x2E90 DUP9 DUP5 DUP2 MLOAD DUP2 LT PUSH2 0x2E7C JUMPI PUSH2 0x2E7C PUSH2 0x54CF JUMP JUMPDEST ADD PUSH1 0x20 ADD MLOAD PUSH1 0x1 PUSH1 0x1 PUSH1 0xF8 SHL SUB NOT AND PUSH2 0x3BD4 JUMP JUMPDEST SWAP2 POP SWAP2 POP DUP2 PUSH2 0x2EA8 JUMPI PUSH1 0x1 SWAP7 POP POP POP POP POP POP POP PUSH2 0xDF5 JUMP JUMPDEST DUP1 PUSH1 0xFF AND PUSH1 0x4 DUP6 PUSH1 0x1 PUSH1 0x1 PUSH1 0xA0 SHL SUB AND SWAP1 SHL OR SWAP4 POP POP POP DUP1 PUSH1 0x1 ADD SWAP1 POP PUSH2 0x2E5D JUMP JUMPDEST POP DUP6 PUSH1 0x1 PUSH1 0x1 PUSH1 0xA0 SHL SUB AND DUP2 PUSH1 0x1 PUSH1 0x1 PUSH1 0xA0 SHL SUB AND EQ SWAP4 POP POP POP POP SWAP3 SWAP2 POP POP JUMP JUMPDEST PUSH0 PUSH2 0x1663 DUP7 DUP7 DUP7 DUP7 DUP7 PUSH2 0x3C64 JUMP JUMPDEST PUSH32 0xA16A46D94261C7517CC8FF89F61C0CE93598E3C849801011DEE649A6A557D102 DUP1 SLOAD PUSH1 0x60 SWAP2 PUSH0 DUP1 MLOAD PUSH1 0x20 PUSH2 0x5B28 DUP4 CODECOPY DUP2 MLOAD SWAP2 MSTORE SWAP2 PUSH2 0xE2B SWAP1 PUSH2 0x5497 JUMP JUMPDEST PUSH32 0xA16A46D94261C7517CC8FF89F61C0CE93598E3C849801011DEE649A6A557D103 DUP1 SLOAD PUSH1 0x60 SWAP2 PUSH0 DUP1 MLOAD PUSH1 0x20 PUSH2 0x5B28 DUP4 CODECOPY DUP2 MLOAD SWAP2 MSTORE SWAP2 PUSH2 0xE2B SWAP1 PUSH2 0x5497 JUMP JUMPDEST PUSH0 PUSH2 0xDA5 NUMBER PUSH2 0x2C2C JUMP JUMPDEST PUSH0 PUSH2 0x2F88 PUSH2 0x231C JUMP JUMPDEST PUSH1 0x40 MLOAD PUSH4 0x748D635 PUSH1 0xE3 SHL DUP2 MSTORE PUSH1 0x1 PUSH1 0x1 PUSH1 0xA0 SHL SUB DUP7 DUP2 AND PUSH1 0x4 DUP4 ADD MSTORE PUSH1 0x24 DUP3 ADD DUP7 SWAP1 MSTORE SWAP2 SWAP1 SWAP2 AND SWAP1 PUSH4 0x3A46B1A8 SWAP1 PUSH1 0x44 ADD PUSH1 0x20 PUSH1 0x40 MLOAD DUP1 DUP4 SUB DUP2 DUP7 GAS STATICCALL ISZERO DUP1 ISZERO PUSH2 0x2FD5 JUMPI RETURNDATASIZE PUSH0 DUP1 RETURNDATACOPY RETURNDATASIZE PUSH0 REVERT JUMPDEST POP POP POP POP PUSH1 0x40 MLOAD RETURNDATASIZE PUSH1 0x1F NOT PUSH1 0x1F DUP3 ADD AND DUP3 ADD DUP1 PUSH1 0x40 MSTORE POP DUP2 ADD SWAP1 PUSH2 0x1CF0 SWAP2 SWAP1 PUSH2 0x5625 JUMP JUMPDEST DUP1 SLOAD PUSH0 SWAP1 DUP1 ISZERO PUSH2 0x3028 JUMPI PUSH2 0x3012 DUP4 PUSH2 0x2CE2 PUSH1 0x1 DUP5 PUSH2 0x557A JUMP JUMPDEST SLOAD PUSH1 0x1 PUSH1 0x30 SHL SWAP1 DIV PUSH1 0x1 PUSH1 0x1 PUSH1 0xD0 SHL SUB AND PUSH2 0x1CF3 JUMP JUMPDEST PUSH0 SWAP4 SWAP3 POP POP POP JUMP JUMPDEST PUSH0 DUP1 MLOAD PUSH1 0x20 PUSH2 0x5BA8 DUP4 CODECOPY DUP2 MLOAD SWAP2 MSTORE DUP1 SLOAD PUSH1 0x40 DUP1 MLOAD PUSH1 0x1 PUSH1 0x1 PUSH1 0xA0 SHL SUB SWAP3 DUP4 AND DUP2 MSTORE SWAP2 DUP5 AND PUSH1 0x20 DUP4 ADD MSTORE DUP1 MLOAD PUSH32 0x8F74EA46EF7894F65EABFB5E6E695DE773A000B47C529AB559178069B226401 SWAP3 DUP2 SWAP1 SUB SWAP1 SWAP2 ADD SWAP1 LOG1 DUP1 SLOAD PUSH1 0x1 PUSH1 0x1 PUSH1 0xA0 SHL SUB NOT AND PUSH1 0x1 PUSH1 0x1 PUSH1 0xA0 SHL SUB SWAP3 SWAP1 SWAP3 AND SWAP2 SWAP1 SWAP2 OR SWAP1 SSTORE JUMP JUMPDEST PUSH0 DUP1 PUSH0 DUP1 MLOAD PUSH1 0x20 PUSH2 0x5B48 DUP4 CODECOPY DUP2 MLOAD SWAP2 MSTORE PUSH2 0x208E JUMP JUMPDEST PUSH2 0x30C2 PUSH2 0x3D2E JUMP JUMPDEST PUSH2 0x30E9 DUP2 PUSH2 0x30E4 PUSH1 0x40 DUP1 MLOAD DUP1 DUP3 ADD SWAP1 SWAP2 MSTORE PUSH1 0x1 DUP2 MSTORE PUSH1 0x31 PUSH1 0xF8 SHL PUSH1 0x20 DUP3 ADD MSTORE SWAP1 JUMP JUMPDEST PUSH2 0x3D77 JUMP JUMPDEST PUSH2 0x8B6 DUP2 PUSH2 0x3DD6 JUMP JUMPDEST PUSH2 0x30FA PUSH2 0x3D2E JUMP JUMPDEST PUSH2 0x2063 DUP4 DUP4 DUP4 PUSH2 0x3DF7 JUMP JUMPDEST PUSH2 0x19C5 PUSH2 0x3D2E JUMP JUMPDEST PUSH2 0x3115 PUSH2 0x3D2E JUMP JUMPDEST PUSH2 0x8B6 DUP2 PUSH2 0x3E1A JUMP JUMPDEST PUSH2 0x3126 PUSH2 0x3D2E JUMP JUMPDEST PUSH2 0x8B6 DUP2 PUSH2 0x3E63 JUMP JUMPDEST PUSH2 0x3137 PUSH2 0x3D2E JUMP JUMPDEST PUSH2 0x8B6 DUP2 PUSH2 0x3E6B JUMP JUMPDEST PUSH2 0x3148 PUSH2 0x3D2E JUMP JUMPDEST PUSH2 0x8B6 DUP2 PUSH2 0x3E73 JUMP JUMPDEST PUSH1 0x60 DUP3 PUSH2 0x3166 JUMPI PUSH2 0x3161 DUP3 PUSH2 0x3E7B JUMP JUMPDEST PUSH2 0xDF5 JUMP JUMPDEST POP DUP1 PUSH2 0xDF5 JUMP JUMPDEST PUSH0 DUP1 MLOAD PUSH1 0x20 PUSH2 0x5B48 DUP4 CODECOPY DUP2 MLOAD SWAP2 MSTORE PUSH4 0xFFFFFFFF DUP3 AND PUSH0 SUB PUSH2 0x31A3 JUMPI PUSH1 0x40 MLOAD PUSH4 0xF1CFBF05 PUSH1 0xE0 SHL DUP2 MSTORE PUSH0 PUSH1 0x4 DUP3 ADD MSTORE PUSH1 0x24 ADD PUSH2 0x11D6 JUMP JUMPDEST PUSH1 0x1 DUP2 ADD SLOAD PUSH1 0x40 DUP1 MLOAD PUSH4 0xFFFFFFFF PUSH1 0x1 PUSH1 0x30 SHL SWAP1 SWAP4 DIV DUP4 AND DUP2 MSTORE SWAP2 DUP5 AND PUSH1 0x20 DUP4 ADD MSTORE PUSH32 0x7E3F7F0708A84DE9203036ABAA450DCCC85AD5FF52F78C170F3EDB55CF5E8828 SWAP2 ADD PUSH1 0x40 MLOAD DUP1 SWAP2 SUB SWAP1 LOG1 PUSH1 0x1 ADD DUP1 SLOAD PUSH4 0xFFFFFFFF SWAP1 SWAP3 AND PUSH1 0x1 PUSH1 0x30 SHL MUL PUSH10 0xFFFFFFFF000000000000 NOT SWAP1 SWAP3 AND SWAP2 SWAP1 SWAP2 OR SWAP1 SSTORE JUMP JUMPDEST PUSH0 DUP1 MLOAD PUSH1 0x20 PUSH2 0x5B48 DUP4 CODECOPY DUP2 MLOAD SWAP2 MSTORE DUP1 SLOAD PUSH1 0x40 DUP1 MLOAD SWAP2 DUP3 MSTORE PUSH1 0x20 DUP3 ADD DUP5 SWAP1 MSTORE DUP1 MLOAD PUSH32 0xCCB45DA8D5717E6C4544694297C4BA5CF151D455C9BB0ED4FC7A38411BC05461 SWAP3 DUP2 SWAP1 SUB SWAP1 SWAP2 ADD SWAP1 LOG1 SSTORE JUMP JUMPDEST PUSH0 PUSH1 0x64 PUSH2 0x3273 DUP4 PUSH2 0x1907 JUMP JUMPDEST PUSH2 0x327B PUSH2 0x231C JUMP JUMPDEST PUSH1 0x1 PUSH1 0x1 PUSH1 0xA0 SHL SUB AND PUSH4 0x8E539E8C DUP6 PUSH1 0x40 MLOAD DUP3 PUSH4 0xFFFFFFFF AND PUSH1 0xE0 SHL DUP2 MSTORE PUSH1 0x4 ADD PUSH2 0x32A8 SWAP2 DUP2 MSTORE PUSH1 0x20 ADD SWAP1 JUMP JUMPDEST PUSH1 0x20 PUSH1 0x40 MLOAD DUP1 DUP4 SUB DUP2 DUP7 GAS STATICCALL ISZERO DUP1 ISZERO PUSH2 0x32C3 JUMPI RETURNDATASIZE PUSH0 DUP1 RETURNDATACOPY RETURNDATASIZE PUSH0 REVERT JUMPDEST POP POP POP POP PUSH1 0x40 MLOAD RETURNDATASIZE PUSH1 0x1F NOT PUSH1 0x1F DUP3 ADD AND DUP3 ADD DUP1 PUSH1 0x40 MSTORE POP DUP2 ADD SWAP1 PUSH2 0x32E7 SWAP2 SWAP1 PUSH2 0x5625 JUMP JUMPDEST PUSH2 0x32F1 SWAP2 SWAP1 PUSH2 0x56AF JUMP JUMPDEST PUSH2 0xDF5 SWAP2 SWAP1 PUSH2 0x56DA JUMP JUMPDEST DUP1 SLOAD PUSH0 SWAP1 PUSH1 0x1 PUSH1 0x1 PUSH1 0x80 SHL SUB DUP1 DUP3 AND SWAP2 PUSH1 0x1 PUSH1 0x80 SHL SWAP1 DIV AND DUP2 SUB PUSH2 0x3332 JUMPI PUSH1 0x40 MLOAD PUSH4 0x75E52F4F PUSH1 0xE0 SHL DUP2 MSTORE PUSH1 0x4 ADD PUSH1 0x40 MLOAD DUP1 SWAP2 SUB SWAP1 REVERT JUMPDEST PUSH1 0x1 PUSH1 0x1 PUSH1 0x80 SHL SUB DUP2 DUP2 AND PUSH0 SWAP1 DUP2 MSTORE PUSH1 0x1 DUP6 DUP2 ADD PUSH1 0x20 MSTORE PUSH1 0x40 DUP3 KECCAK256 DUP1 SLOAD SWAP3 SWAP1 SSTORE DUP6 SLOAD PUSH16 0xFFFFFFFFFFFFFFFFFFFFFFFFFFFFFFFF NOT AND SWAP4 ADD SWAP1 SWAP2 AND SWAP2 SWAP1 SWAP2 OR SWAP1 SWAP3 SSTORE POP SWAP1 JUMP JUMPDEST PUSH0 PUSH1 0x1 PUSH1 0x1 PUSH1 0xD0 SHL SUB DUP3 GT ISZERO PUSH2 0x2C5E JUMPI PUSH1 0x40 MLOAD PUSH4 0x6DFCC65 PUSH1 0xE4 SHL DUP2 MSTORE PUSH1 0xD0 PUSH1 0x4 DUP3 ADD MSTORE PUSH1 0x24 DUP2 ADD DUP4 SWAP1 MSTORE PUSH1 0x44 ADD PUSH2 0x11D6 JUMP JUMPDEST PUSH0 DUP1 PUSH2 0x33B7 DUP6 DUP6 DUP6 PUSH2 0x3EA4 JUMP JUMPDEST SWAP2 POP SWAP2 POP JUMPDEST SWAP4 POP SWAP4 SWAP2 POP POP JUMP JUMPDEST PUSH0 DUP1 MLOAD PUSH1 0x20 PUSH2 0x5BA8 DUP4 CODECOPY DUP2 MLOAD SWAP2 MSTORE DUP1 SLOAD PUSH1 0x40 DUP1 MLOAD PUSH4 0x793D0649 PUSH1 0xE1 SHL DUP2 MSTORE SWAP1 MLOAD PUSH0 SWAP4 SWAP3 DUP5 SWAP3 PUSH1 0x1 PUSH1 0x1 PUSH1 0xA0 SHL SUB SWAP1 SWAP2 AND SWAP2 PUSH4 0xF27A0C92 SWAP2 PUSH1 0x4 DUP1 DUP3 ADD SWAP3 PUSH1 0x20 SWAP3 SWAP1 SWAP2 SWAP1 DUP3 SWAP1 SUB ADD DUP2 DUP7 GAS STATICCALL ISZERO DUP1 ISZERO PUSH2 0x341E JUMPI RETURNDATASIZE PUSH0 DUP1 RETURNDATACOPY RETURNDATASIZE PUSH0 REVERT JUMPDEST POP POP POP POP PUSH1 0x40 MLOAD RETURNDATASIZE PUSH1 0x1F NOT PUSH1 0x1F DUP3 ADD AND DUP3 ADD DUP1 PUSH1 0x40 MSTORE POP DUP2 ADD SWAP1 PUSH2 0x3442 SWAP2 SWAP1 PUSH2 0x5625 JUMP JUMPDEST SWAP1 POP PUSH0 ADDRESS PUSH1 0x60 SHL PUSH12 0xFFFFFFFFFFFFFFFFFFFFFFFF NOT AND DUP6 XOR DUP4 SLOAD PUSH1 0x40 MLOAD PUSH4 0xB1C5F427 PUSH1 0xE0 SHL DUP2 MSTORE SWAP2 SWAP3 POP PUSH1 0x1 PUSH1 0x1 PUSH1 0xA0 SHL SUB AND SWAP1 PUSH4 0xB1C5F427 SWAP1 PUSH2 0x3492 SWAP1 DUP12 SWAP1 DUP12 SWAP1 DUP12 SWAP1 PUSH0 SWAP1 DUP9 SWAP1 PUSH1 0x4 ADD PUSH2 0x56F9 JUMP JUMPDEST PUSH1 0x20 PUSH1 0x40 MLOAD DUP1 DUP4 SUB DUP2 DUP7 GAS STATICCALL ISZERO DUP1 ISZERO PUSH2 0x34AD JUMPI RETURNDATASIZE PUSH0 DUP1 RETURNDATACOPY RETURNDATASIZE PUSH0 REVERT JUMPDEST POP POP POP POP PUSH1 0x40 MLOAD RETURNDATASIZE PUSH1 0x1F NOT PUSH1 0x1F DUP3 ADD AND DUP3 ADD DUP1 PUSH1 0x40 MSTORE POP DUP2 ADD SWAP1 PUSH2 0x34D1 SWAP2 SWAP1 PUSH2 0x5625 JUMP JUMPDEST PUSH0 DUP11 DUP2 MSTORE PUSH1 0x1 DUP6 ADD PUSH1 0x20 MSTORE PUSH1 0x40 DUP1 DUP3 KECCAK256 SWAP3 SWAP1 SWAP3 SSTORE DUP5 SLOAD SWAP2 MLOAD PUSH4 0x8F2A0BB PUSH1 0xE4 SHL DUP2 MSTORE PUSH1 0x1 PUSH1 0x1 PUSH1 0xA0 SHL SUB SWAP1 SWAP3 AND SWAP2 PUSH4 0x8F2A0BB0 SWAP2 PUSH2 0x351C SWAP2 DUP13 SWAP2 DUP13 SWAP2 DUP13 SWAP2 SWAP1 DUP9 SWAP1 DUP11 SWAP1 PUSH1 0x4 ADD PUSH2 0x5746 JUMP JUMPDEST PUSH0 PUSH1 0x40 MLOAD DUP1 DUP4 SUB DUP2 PUSH0 DUP8 DUP1 EXTCODESIZE ISZERO DUP1 ISZERO PUSH2 0x3533 JUMPI PUSH0 DUP1 REVERT JUMPDEST POP GAS CALL ISZERO DUP1 ISZERO PUSH2 0x3545 JUMPI RETURNDATASIZE PUSH0 DUP1 RETURNDATACOPY RETURNDATASIZE PUSH0 REVERT JUMPDEST POP POP POP POP PUSH2 0x18A7 DUP3 TIMESTAMP PUSH2 0x3558 SWAP2 SWAP1 PUSH2 0x569C JUMP JUMPDEST PUSH2 0x2C2C JUMP JUMPDEST PUSH0 DUP1 MLOAD PUSH1 0x20 PUSH2 0x5BA8 DUP4 CODECOPY DUP2 MLOAD SWAP2 MSTORE DUP1 SLOAD PUSH1 0x40 MLOAD PUSH4 0xE38335E5 PUSH1 0xE0 SHL DUP2 MSTORE PUSH1 0x1 PUSH1 0x1 PUSH1 0xA0 SHL SUB SWAP1 SWAP2 AND SWAP1 PUSH4 0xE38335E5 SWAP1 CALLVALUE SWAP1 PUSH2 0x35B8 SWAP1 DUP10 SWAP1 DUP10 SWAP1 DUP10 SWAP1 PUSH0 SWAP1 PUSH12 0xFFFFFFFFFFFFFFFFFFFFFFFF NOT ADDRESS PUSH1 0x60 SHL AND DUP12 XOR SWAP1 PUSH1 0x4 ADD PUSH2 0x56F9 JUMP JUMPDEST PUSH0 PUSH1 0x40 MLOAD DUP1 DUP4 SUB DUP2 DUP6 DUP9 DUP1 EXTCODESIZE ISZERO DUP1 ISZERO PUSH2 0x35CF JUMPI PUSH0 DUP1 REVERT JUMPDEST POP GAS CALL ISZERO DUP1 ISZERO PUSH2 0x35E1 JUMPI RETURNDATASIZE PUSH0 DUP1 RETURNDATACOPY RETURNDATASIZE PUSH0 REVERT JUMPDEST POP POP POP PUSH0 SWAP8 DUP9 MSTORE POP POP PUSH1 0x1 ADD PUSH1 0x20 MSTORE POP POP PUSH1 0x40 DUP4 KECCAK256 SWAP3 SWAP1 SWAP3 SSTORE POP POP JUMP JUMPDEST PUSH0 DUP2 DUP2 MSTORE PUSH0 DUP1 MLOAD PUSH1 0x20 PUSH2 0x5AA7 DUP4 CODECOPY DUP2 MLOAD SWAP2 MSTORE PUSH1 0x20 MSTORE PUSH1 0x40 DUP2 KECCAK256 DUP1 SLOAD PUSH0 DUP1 MLOAD PUSH1 0x20 PUSH2 0x5BC8 DUP4 CODECOPY DUP2 MLOAD SWAP2 MSTORE SWAP2 SWAP1 PUSH1 0xFF PUSH1 0x1 PUSH1 0xF0 SHL DUP3 DIV DUP2 AND SWAP2 PUSH1 0x1 PUSH1 0xF8 SHL SWAP1 DIV AND DUP2 ISZERO PUSH2 0x364F JUMPI POP PUSH1 0x7 SWAP6 SWAP5 POP POP POP POP POP JUMP JUMPDEST DUP1 ISZERO PUSH2 0x3661 JUMPI POP PUSH1 0x2 SWAP6 SWAP5 POP POP POP POP POP JUMP JUMPDEST PUSH0 PUSH2 0x366B DUP8 PUSH2 0x1380 JUMP JUMPDEST SWAP1 POP DUP1 PUSH0 SUB PUSH2 0x3690 JUMPI PUSH1 0x40 MLOAD PUSH4 0x6AD06075 PUSH1 0xE0 SHL DUP2 MSTORE PUSH1 0x4 DUP2 ADD DUP9 SWAP1 MSTORE PUSH1 0x24 ADD PUSH2 0x11D6 JUMP JUMPDEST PUSH0 PUSH2 0x3699 PUSH2 0x1C76 JUMP JUMPDEST PUSH6 0xFFFFFFFFFFFF AND SWAP1 POP DUP1 DUP3 LT PUSH2 0x36B7 JUMPI POP PUSH0 SWAP8 SWAP7 POP POP POP POP POP POP POP JUMP JUMPDEST PUSH0 PUSH2 0x36C1 DUP10 PUSH2 0x1D99 JUMP JUMPDEST SWAP1 POP DUP2 DUP2 LT PUSH2 0x36D9 JUMPI POP PUSH1 0x1 SWAP9 SWAP8 POP POP POP POP POP POP POP POP JUMP JUMPDEST PUSH2 0x36E2 DUP10 PUSH2 0x401A JUMP JUMPDEST ISZERO DUP1 PUSH2 0x370D JUMPI POP PUSH0 DUP10 DUP2 MSTORE PUSH0 DUP1 MLOAD PUSH1 0x20 PUSH2 0x5B88 DUP4 CODECOPY DUP2 MLOAD SWAP2 MSTORE PUSH1 0x20 MSTORE PUSH1 0x40 SWAP1 KECCAK256 DUP1 SLOAD PUSH1 0x1 SWAP1 SWAP2 ADD SLOAD GT ISZERO JUMPDEST ISZERO PUSH2 0x3721 JUMPI POP PUSH1 0x3 SWAP9 SWAP8 POP POP POP POP POP POP POP POP JUMP JUMPDEST PUSH0 DUP10 DUP2 MSTORE PUSH0 DUP1 MLOAD PUSH1 0x20 PUSH2 0x5AA7 DUP4 CODECOPY DUP2 MLOAD SWAP2 MSTORE PUSH1 0x20 MSTORE PUSH1 0x40 SWAP1 KECCAK256 PUSH1 0x1 ADD SLOAD PUSH6 0xFFFFFFFFFFFF AND PUSH0 SUB PUSH2 0x375B JUMPI POP PUSH1 0x4 SWAP9 SWAP8 POP POP POP POP POP POP POP POP JUMP JUMPDEST POP PUSH1 0x5 SWAP9 SWAP8 POP POP POP POP POP POP POP POP JUMP JUMPDEST PUSH0 PUSH0 DUP1 MLOAD PUSH1 0x20 PUSH2 0x5BA8 DUP4 CODECOPY DUP2 MLOAD SWAP2 MSTORE DUP2 PUSH2 0x3786 DUP8 DUP8 DUP8 DUP8 PUSH2 0x405F JUMP JUMPDEST PUSH0 DUP2 DUP2 MSTORE PUSH1 0x1 DUP5 ADD PUSH1 0x20 MSTORE PUSH1 0x40 SWAP1 KECCAK256 SLOAD SWAP1 SWAP2 POP DUP1 ISZERO PUSH2 0xFE8 JUMPI DUP3 SLOAD PUSH1 0x40 MLOAD PUSH4 0xC4D252F5 PUSH1 0xE0 SHL DUP2 MSTORE PUSH1 0x4 DUP2 ADD DUP4 SWAP1 MSTORE PUSH1 0x1 PUSH1 0x1 PUSH1 0xA0 SHL SUB SWAP1 SWAP2 AND SWAP1 PUSH4 0xC4D252F5 SWAP1 PUSH1 0x24 ADD PUSH0 PUSH1 0x40 MLOAD DUP1 DUP4 SUB DUP2 PUSH0 DUP8 DUP1 EXTCODESIZE ISZERO DUP1 ISZERO PUSH2 0x37E1 JUMPI PUSH0 DUP1 REVERT JUMPDEST POP GAS CALL ISZERO DUP1 ISZERO PUSH2 0x37F3 JUMPI RETURNDATASIZE PUSH0 DUP1 RETURNDATACOPY RETURNDATASIZE PUSH0 REVERT JUMPDEST POP POP POP PUSH0 DUP4 DUP2 MSTORE PUSH1 0x1 DUP6 ADD PUSH1 0x20 MSTORE PUSH1 0x40 DUP2 KECCAK256 SSTORE POP POP SWAP2 POP POP SWAP5 SWAP4 POP POP POP POP JUMP JUMPDEST PUSH2 0x381C DUP3 PUSH2 0x411E JUMP JUMPDEST PUSH1 0x40 MLOAD PUSH1 0x1 PUSH1 0x1 PUSH1 0xA0 SHL SUB DUP4 AND SWAP1 PUSH32 0xBC7CD75A20EE27FD9ADEBAB32041F755214DBC6BFFA90CC0225B39DA2E5C2D3B SWAP1 PUSH0 SWAP1 LOG2 DUP1 MLOAD ISZERO PUSH2 0x3860 JUMPI PUSH2 0x2063 DUP3 DUP3 PUSH2 0x4181 JUMP JUMPDEST PUSH2 0x172F PUSH2 0x41EA JUMP JUMPDEST PUSH0 PUSH2 0xDA5 PUSH2 0x4209 JUMP JUMPDEST PUSH0 DUP1 PUSH0 DUP4 MLOAD PUSH1 0x41 SUB PUSH2 0x38A8 JUMPI PUSH1 0x20 DUP5 ADD MLOAD PUSH1 0x40 DUP6 ADD MLOAD PUSH1 0x60 DUP7 ADD MLOAD PUSH0 BYTE PUSH2 0x389A DUP9 DUP3 DUP6 DUP6 PUSH2 0x427C JUMP JUMPDEST SWAP6 POP SWAP6 POP SWAP6 POP POP POP POP PUSH2 0x38B3 JUMP JUMPDEST POP POP DUP2 MLOAD PUSH0 SWAP2 POP PUSH1 0x2 SWAP1 JUMPDEST SWAP3 POP SWAP3 POP SWAP3 JUMP JUMPDEST PUSH0 DUP1 PUSH0 DUP6 PUSH1 0x1 PUSH1 0x1 PUSH1 0xA0 SHL SUB AND DUP6 DUP6 PUSH1 0x40 MLOAD PUSH1 0x24 ADD PUSH2 0x38DA SWAP3 SWAP2 SWAP1 PUSH2 0x579D JUMP JUMPDEST PUSH1 0x40 DUP1 MLOAD PUSH1 0x1F NOT DUP2 DUP5 SUB ADD DUP2 MSTORE SWAP2 DUP2 MSTORE PUSH1 0x20 DUP3 ADD DUP1 MLOAD PUSH1 0x1 PUSH1 0x1 PUSH1 0xE0 SHL SUB AND PUSH4 0xB135D3F PUSH1 0xE1 SHL OR SWAP1 MSTORE MLOAD PUSH2 0x390F SWAP2 SWAP1 PUSH2 0x57B5 JUMP JUMPDEST PUSH0 PUSH1 0x40 MLOAD DUP1 DUP4 SUB DUP2 DUP6 GAS STATICCALL SWAP2 POP POP RETURNDATASIZE DUP1 PUSH0 DUP2 EQ PUSH2 0x3947 JUMPI PUSH1 0x40 MLOAD SWAP2 POP PUSH1 0x1F NOT PUSH1 0x3F RETURNDATASIZE ADD AND DUP3 ADD PUSH1 0x40 MSTORE RETURNDATASIZE DUP3 MSTORE RETURNDATASIZE PUSH0 PUSH1 0x20 DUP5 ADD RETURNDATACOPY PUSH2 0x394C JUMP JUMPDEST PUSH1 0x60 SWAP2 POP JUMPDEST POP SWAP2 POP SWAP2 POP DUP2 DUP1 ISZERO PUSH2 0x3960 JUMPI POP PUSH1 0x20 DUP2 MLOAD LT ISZERO JUMPDEST DUP1 ISZERO PUSH2 0x1663 JUMPI POP DUP1 MLOAD PUSH4 0xB135D3F PUSH1 0xE1 SHL SWAP1 PUSH2 0x3985 SWAP1 DUP4 ADD PUSH1 0x20 SWAP1 DUP2 ADD SWAP1 DUP5 ADD PUSH2 0x5625 JUMP JUMPDEST EQ SWAP7 SWAP6 POP POP POP POP POP POP JUMP JUMPDEST PUSH0 DUP6 DUP2 MSTORE PUSH0 DUP1 MLOAD PUSH1 0x20 PUSH2 0x5B88 DUP4 CODECOPY DUP2 MLOAD SWAP2 MSTORE PUSH1 0x20 DUP2 DUP2 MSTORE PUSH1 0x40 DUP1 DUP5 KECCAK256 PUSH1 0x1 PUSH1 0x1 PUSH1 0xA0 SHL SUB DUP10 AND DUP6 MSTORE PUSH1 0x3 DUP2 ADD SWAP1 SWAP3 MSTORE SWAP1 SWAP3 KECCAK256 SLOAD SWAP1 SWAP2 SWAP1 PUSH1 0xFF AND ISZERO PUSH2 0x39F2 JUMPI PUSH1 0x40 MLOAD PUSH4 0x71C6AF49 PUSH1 0xE0 SHL DUP2 MSTORE PUSH1 0x1 PUSH1 0x1 PUSH1 0xA0 SHL SUB DUP8 AND PUSH1 0x4 DUP3 ADD MSTORE PUSH1 0x24 ADD PUSH2 0x11D6 JUMP JUMPDEST PUSH1 0x1 PUSH1 0x1 PUSH1 0xA0 SHL SUB DUP7 AND PUSH0 SWAP1 DUP2 MSTORE PUSH1 0x3 DUP3 ADD PUSH1 0x20 MSTORE PUSH1 0x40 SWAP1 KECCAK256 DUP1 SLOAD PUSH1 0xFF NOT AND PUSH1 0x1 OR SWAP1 SSTORE PUSH1 0xFF DUP6 AND PUSH2 0x3A3B JUMPI DUP4 DUP2 PUSH0 ADD PUSH0 DUP3 DUP3 SLOAD PUSH2 0x3A30 SWAP2 SWAP1 PUSH2 0x569C JUMP JUMPDEST SWAP1 SWAP2 SSTORE POP PUSH2 0x1FE6 SWAP1 POP JUMP JUMPDEST PUSH0 NOT PUSH1 0xFF DUP7 AND ADD PUSH2 0x3A59 JUMPI DUP4 DUP2 PUSH1 0x1 ADD PUSH0 DUP3 DUP3 SLOAD PUSH2 0x3A30 SWAP2 SWAP1 PUSH2 0x569C JUMP JUMPDEST PUSH1 0x1 NOT PUSH1 0xFF DUP7 AND ADD PUSH2 0x3A78 JUMPI DUP4 DUP2 PUSH1 0x2 ADD PUSH0 DUP3 DUP3 SLOAD PUSH2 0x3A30 SWAP2 SWAP1 PUSH2 0x569C JUMP JUMPDEST PUSH1 0x40 MLOAD PUSH4 0x3599BE1 PUSH1 0xE1 SHL DUP2 MSTORE PUSH1 0x4 ADD PUSH1 0x40 MLOAD DUP1 SWAP2 SUB SWAP1 REVERT JUMPDEST PUSH0 DUP2 PUSH0 SUB PUSH2 0x3AA0 JUMPI POP PUSH0 SWAP2 SWAP1 POP JUMP JUMPDEST PUSH0 PUSH1 0x1 PUSH2 0x3AAC DUP5 PUSH2 0x4344 JUMP JUMPDEST SWAP1 SHR PUSH1 0x1 SWAP1 SHL SWAP1 POP PUSH1 0x1 DUP2 DUP5 DUP2 PUSH2 0x3AC5 JUMPI PUSH2 0x3AC5 PUSH2 0x56C6 JUMP JUMPDEST DIV DUP3 ADD SWAP1 SHR SWAP1 POP PUSH1 0x1 DUP2 DUP5 DUP2 PUSH2 0x3ADD JUMPI PUSH2 0x3ADD PUSH2 0x56C6 JUMP JUMPDEST DIV DUP3 ADD SWAP1 SHR SWAP1 POP PUSH1 0x1 DUP2 DUP5 DUP2 PUSH2 0x3AF5 JUMPI PUSH2 0x3AF5 PUSH2 0x56C6 JUMP JUMPDEST DIV DUP3 ADD SWAP1 SHR SWAP1 POP PUSH1 0x1 DUP2 DUP5 DUP2 PUSH2 0x3B0D JUMPI PUSH2 0x3B0D PUSH2 0x56C6 JUMP JUMPDEST DIV DUP3 ADD SWAP1 SHR SWAP1 POP PUSH1 0x1 DUP2 DUP5 DUP2 PUSH2 0x3B25 JUMPI PUSH2 0x3B25 PUSH2 0x56C6 JUMP JUMPDEST DIV DUP3 ADD SWAP1 SHR SWAP1 POP PUSH1 0x1 DUP2 DUP5 DUP2 PUSH2 0x3B3D JUMPI PUSH2 0x3B3D PUSH2 0x56C6 JUMP JUMPDEST DIV DUP3 ADD SWAP1 SHR SWAP1 POP PUSH1 0x1 DUP2 DUP5 DUP2 PUSH2 0x3B55 JUMPI PUSH2 0x3B55 PUSH2 0x56C6 JUMP JUMPDEST DIV DUP3 ADD SWAP1 SHR SWAP1 POP PUSH2 0x1CF3 DUP2 DUP3 DUP6 DUP2 PUSH2 0x3B6F JUMPI PUSH2 0x3B6F PUSH2 0x56C6 JUMP JUMPDEST DIV PUSH2 0x43D7 JUMP JUMPDEST PUSH0 JUMPDEST DUP2 DUP4 LT ISZERO PUSH2 0x3BCC JUMPI PUSH0 PUSH2 0x3B8A DUP5 DUP5 PUSH2 0x43EC JUMP JUMPDEST PUSH0 DUP8 DUP2 MSTORE PUSH1 0x20 SWAP1 KECCAK256 SWAP1 SWAP2 POP PUSH6 0xFFFFFFFFFFFF DUP7 AND SWAP1 DUP3 ADD SLOAD PUSH6 0xFFFFFFFFFFFF AND GT ISZERO PUSH2 0x3BB8 JUMPI DUP1 SWAP3 POP PUSH2 0x3BC6 JUMP JUMPDEST PUSH2 0x3BC3 DUP2 PUSH1 0x1 PUSH2 0x569C JUMP JUMPDEST SWAP4 POP JUMPDEST POP PUSH2 0x3B77 JUMP JUMPDEST POP SWAP4 SWAP3 POP POP POP JUMP JUMPDEST PUSH0 DUP1 PUSH1 0xF8 DUP4 SWAP1 SHR PUSH1 0x2F DUP2 GT DUP1 ISZERO PUSH2 0x3BEE JUMPI POP PUSH1 0x3A DUP2 PUSH1 0xFF AND LT JUMPDEST ISZERO PUSH2 0x3C03 JUMPI PUSH1 0x1 SWAP5 PUSH1 0x2F NOT SWAP1 SWAP2 ADD SWAP4 POP SWAP2 POP POP JUMP JUMPDEST DUP1 PUSH1 0xFF AND PUSH1 0x40 LT DUP1 ISZERO PUSH2 0x3C19 JUMPI POP PUSH1 0x47 DUP2 PUSH1 0xFF AND LT JUMPDEST ISZERO PUSH2 0x3C2E JUMPI PUSH1 0x1 SWAP5 PUSH1 0x36 NOT SWAP1 SWAP2 ADD SWAP4 POP SWAP2 POP POP JUMP JUMPDEST DUP1 PUSH1 0xFF AND PUSH1 0x60 LT DUP1 ISZERO PUSH2 0x3C44 JUMPI POP PUSH1 0x67 DUP2 PUSH1 0xFF AND LT JUMPDEST ISZERO PUSH2 0x3C59 JUMPI PUSH1 0x1 SWAP5 PUSH1 0x56 NOT SWAP1 SWAP2 ADD SWAP4 POP SWAP2 POP POP JUMP JUMPDEST POP PUSH0 SWAP4 DUP5 SWAP4 POP SWAP2 POP POP JUMP JUMPDEST PUSH0 PUSH0 DUP1 MLOAD PUSH1 0x20 PUSH2 0x5B08 DUP4 CODECOPY DUP2 MLOAD SWAP2 MSTORE DUP2 PUSH2 0x3C81 DUP9 DUP9 DUP9 DUP9 DUP9 PUSH2 0x4406 JUMP JUMPDEST DUP3 SLOAD PUSH1 0x1 DUP2 DUP2 ADD DUP6 SSTORE PUSH0 DUP6 DUP2 MSTORE PUSH1 0x20 DUP1 DUP3 KECCAK256 SWAP1 SWAP4 ADD DUP5 SWAP1 SSTORE PUSH1 0x40 DUP1 MLOAD PUSH1 0x80 DUP2 ADD DUP3 MSTORE DUP14 DUP2 MSTORE DUP1 DUP6 ADD DUP14 SWAP1 MSTORE DUP1 DUP3 ADD DUP13 SWAP1 MSTORE DUP11 MLOAD DUP12 DUP7 ADD KECCAK256 PUSH1 0x60 DUP3 ADD MSTORE DUP6 DUP4 MSTORE SWAP3 DUP8 ADD DUP5 MSTORE SWAP1 KECCAK256 DUP2 MLOAD DUP1 MLOAD SWAP5 SWAP6 POP SWAP2 SWAP4 SWAP1 SWAP3 PUSH2 0x3CE0 SWAP3 DUP5 SWAP3 SWAP2 ADD SWAP1 PUSH2 0x4778 JUMP JUMPDEST POP PUSH1 0x20 DUP3 DUP2 ADD MLOAD DUP1 MLOAD PUSH2 0x3CF9 SWAP3 PUSH1 0x1 DUP6 ADD SWAP3 ADD SWAP1 PUSH2 0x47D7 JUMP JUMPDEST POP PUSH1 0x40 DUP3 ADD MLOAD DUP1 MLOAD PUSH2 0x3D15 SWAP2 PUSH1 0x2 DUP5 ADD SWAP2 PUSH1 0x20 SWAP1 SWAP2 ADD SWAP1 PUSH2 0x4810 JUMP JUMPDEST POP PUSH1 0x60 SWAP2 SWAP1 SWAP2 ADD MLOAD PUSH1 0x3 SWAP1 SWAP2 ADD SSTORE SWAP8 SWAP7 POP POP POP POP POP POP POP JUMP JUMPDEST PUSH32 0xF0C57E16840DF040F15088DC2F81FE391C3923BEC73E23A9662EFC9C229C6A00 SLOAD PUSH1 0x1 PUSH1 0x40 SHL SWAP1 DIV PUSH1 0xFF AND PUSH2 0x19C5 JUMPI PUSH1 0x40 MLOAD PUSH4 0x1AFCD79F PUSH1 0xE3 SHL DUP2 MSTORE PUSH1 0x4 ADD PUSH1 0x40 MLOAD DUP1 SWAP2 SUB SWAP1 REVERT JUMPDEST PUSH2 0x3D7F PUSH2 0x3D2E JUMP JUMPDEST PUSH0 DUP1 MLOAD PUSH1 0x20 PUSH2 0x5B28 DUP4 CODECOPY DUP2 MLOAD SWAP2 MSTORE PUSH32 0xA16A46D94261C7517CC8FF89F61C0CE93598E3C849801011DEE649A6A557D102 PUSH2 0x3DB8 DUP5 DUP3 PUSH2 0x580F JUMP JUMPDEST POP PUSH1 0x3 DUP2 ADD PUSH2 0x3DC7 DUP4 DUP3 PUSH2 0x580F JUMP JUMPDEST POP PUSH0 DUP1 DUP3 SSTORE PUSH1 0x1 SWAP1 SWAP2 ADD SSTORE POP POP JUMP JUMPDEST PUSH2 0x3DDE PUSH2 0x3D2E JUMP JUMPDEST PUSH0 DUP1 MLOAD PUSH1 0x20 PUSH2 0x5BC8 DUP4 CODECOPY DUP2 MLOAD SWAP2 MSTORE DUP1 PUSH2 0x2063 DUP4 DUP3 PUSH2 0x580F JUMP JUMPDEST PUSH2 0x3DFF PUSH2 0x3D2E JUMP JUMPDEST PUSH2 0x3E08 DUP4 PUSH2 0x2D81 JUMP JUMPDEST PUSH2 0x3E11 DUP3 PUSH2 0x316D JUMP JUMPDEST PUSH2 0x2063 DUP2 PUSH2 0x321A JUMP JUMPDEST PUSH2 0x3E22 PUSH2 0x3D2E JUMP JUMPDEST PUSH32 0x3BA4977254E415696610A40EBF2258DBFA0EC6A2FF64E84BFE715FF16977CC00 DUP1 SLOAD PUSH1 0x1 PUSH1 0x1 PUSH1 0xA0 SHL SUB NOT AND PUSH1 0x1 PUSH1 0x1 PUSH1 0xA0 SHL SUB SWAP3 SWAP1 SWAP3 AND SWAP2 SWAP1 SWAP2 OR SWAP1 SSTORE JUMP JUMPDEST PUSH2 0xE03 PUSH2 0x3D2E JUMP JUMPDEST PUSH2 0x1D3C PUSH2 0x3D2E JUMP JUMPDEST PUSH2 0x22E0 PUSH2 0x3D2E JUMP JUMPDEST DUP1 MLOAD ISZERO PUSH2 0x3E8B JUMPI DUP1 MLOAD DUP1 DUP3 PUSH1 0x20 ADD REVERT JUMPDEST PUSH1 0x40 MLOAD PUSH4 0xA12F521 PUSH1 0xE1 SHL DUP2 MSTORE PUSH1 0x4 ADD PUSH1 0x40 MLOAD DUP1 SWAP2 SUB SWAP1 REVERT JUMPDEST DUP3 SLOAD PUSH0 SWAP1 DUP2 SWAP1 DUP1 ISZERO PUSH2 0x3FC0 JUMPI PUSH0 PUSH2 0x3EC0 DUP8 PUSH2 0x2CE2 PUSH1 0x1 DUP6 PUSH2 0x557A JUMP JUMPDEST PUSH1 0x40 DUP1 MLOAD DUP1 DUP3 ADD SWAP1 SWAP2 MSTORE SWAP1 SLOAD PUSH6 0xFFFFFFFFFFFF DUP1 DUP3 AND DUP1 DUP5 MSTORE PUSH1 0x1 PUSH1 0x30 SHL SWAP1 SWAP3 DIV PUSH1 0x1 PUSH1 0x1 PUSH1 0xD0 SHL SUB AND PUSH1 0x20 DUP5 ADD MSTORE SWAP2 SWAP3 POP SWAP1 DUP8 AND LT ISZERO PUSH2 0x3F14 JUMPI PUSH1 0x40 MLOAD PUSH4 0x2520601D PUSH1 0xE0 SHL DUP2 MSTORE PUSH1 0x4 ADD PUSH1 0x40 MLOAD DUP1 SWAP2 SUB SWAP1 REVERT JUMPDEST DUP1 MLOAD PUSH6 0xFFFFFFFFFFFF DUP1 DUP9 AND SWAP2 AND SUB PUSH2 0x3F60 JUMPI DUP5 PUSH2 0x3F37 DUP9 PUSH2 0x2CE2 PUSH1 0x1 DUP7 PUSH2 0x557A JUMP JUMPDEST DUP1 SLOAD PUSH1 0x1 PUSH1 0x1 PUSH1 0xD0 SHL SUB SWAP3 SWAP1 SWAP3 AND PUSH1 0x1 PUSH1 0x30 SHL MUL PUSH6 0xFFFFFFFFFFFF SWAP1 SWAP3 AND SWAP2 SWAP1 SWAP2 OR SWAP1 SSTORE PUSH2 0x3FB0 JUMP JUMPDEST PUSH1 0x40 DUP1 MLOAD DUP1 DUP3 ADD SWAP1 SWAP2 MSTORE PUSH6 0xFFFFFFFFFFFF DUP1 DUP9 AND DUP3 MSTORE PUSH1 0x1 PUSH1 0x1 PUSH1 0xD0 SHL SUB DUP1 DUP9 AND PUSH1 0x20 DUP1 DUP6 ADD SWAP2 DUP3 MSTORE DUP12 SLOAD PUSH1 0x1 DUP2 ADD DUP14 SSTORE PUSH0 DUP14 DUP2 MSTORE SWAP2 SWAP1 SWAP2 KECCAK256 SWAP5 MLOAD SWAP2 MLOAD SWAP1 SWAP3 AND PUSH1 0x1 PUSH1 0x30 SHL MUL SWAP3 AND SWAP2 SWAP1 SWAP2 OR SWAP2 ADD SSTORE JUMPDEST PUSH1 0x20 ADD MLOAD SWAP3 POP DUP4 SWAP2 POP PUSH2 0x33BC SWAP1 POP JUMP JUMPDEST POP POP PUSH1 0x40 DUP1 MLOAD DUP1 DUP3 ADD SWAP1 SWAP2 MSTORE PUSH6 0xFFFFFFFFFFFF DUP1 DUP6 AND DUP3 MSTORE PUSH1 0x1 PUSH1 0x1 PUSH1 0xD0 SHL SUB DUP1 DUP6 AND PUSH1 0x20 DUP1 DUP6 ADD SWAP2 DUP3 MSTORE DUP9 SLOAD PUSH1 0x1 DUP2 ADD DUP11 SSTORE PUSH0 DUP11 DUP2 MSTORE SWAP2 DUP3 KECCAK256 SWAP6 MLOAD SWAP3 MLOAD SWAP1 SWAP4 AND PUSH1 0x1 PUSH1 0x30 SHL MUL SWAP2 SWAP1 SWAP4 AND OR SWAP3 ADD SWAP2 SWAP1 SWAP2 SSTORE SWAP1 POP DUP2 PUSH2 0x33BC JUMP JUMPDEST PUSH0 DUP2 DUP2 MSTORE PUSH0 DUP1 MLOAD PUSH1 0x20 PUSH2 0x5B88 DUP4 CODECOPY DUP2 MLOAD SWAP2 MSTORE PUSH1 0x20 DUP2 SWAP1 MSTORE PUSH1 0x40 DUP3 KECCAK256 PUSH1 0x2 DUP2 ADD SLOAD PUSH1 0x1 DUP3 ADD SLOAD PUSH2 0x4049 SWAP2 SWAP1 PUSH2 0x569C JUMP JUMPDEST PUSH2 0x4055 PUSH2 0xD70 DUP7 PUSH2 0x1380 JUMP JUMPDEST GT ISZERO SWAP5 SWAP4 POP POP POP POP JUMP JUMPDEST PUSH0 PUSH0 DUP1 MLOAD PUSH1 0x20 PUSH2 0x5BC8 DUP4 CODECOPY DUP2 MLOAD SWAP2 MSTORE DUP2 PUSH2 0x407B DUP8 DUP8 DUP8 DUP8 PUSH2 0x1FEF JUMP JUMPDEST SWAP1 POP PUSH2 0x40C9 DUP2 PUSH2 0x408B PUSH1 0x7 PUSH2 0x2642 JUMP JUMPDEST PUSH2 0x4095 PUSH1 0x6 PUSH2 0x2642 JUMP JUMPDEST PUSH2 0x409F PUSH1 0x2 PUSH2 0x2642 JUMP JUMPDEST PUSH1 0x1 PUSH2 0x40AC PUSH1 0x7 DUP3 PUSH2 0x58C9 JUMP JUMPDEST PUSH2 0x40B7 SWAP1 PUSH1 0x2 PUSH2 0x59BD JUMP JUMPDEST PUSH2 0x40C1 SWAP2 SWAP1 PUSH2 0x557A JUMP JUMPDEST XOR XOR XOR PUSH2 0x2664 JUMP JUMPDEST POP PUSH0 DUP2 DUP2 MSTORE PUSH1 0x1 DUP4 ADD PUSH1 0x20 MSTORE PUSH1 0x40 SWAP1 DUP2 SWAP1 KECCAK256 DUP1 SLOAD PUSH1 0x1 PUSH1 0x1 PUSH1 0xF8 SHL SUB AND PUSH1 0x1 PUSH1 0xF8 SHL OR SWAP1 SSTORE MLOAD PUSH32 0x789CF55BE980739DAD1D0699B93B58E806B51C9D96619BFA8FE0A28ABAA7B30C SWAP1 PUSH2 0x136E SWAP1 DUP4 DUP2 MSTORE PUSH1 0x20 ADD SWAP1 JUMP JUMPDEST DUP1 PUSH1 0x1 PUSH1 0x1 PUSH1 0xA0 SHL SUB AND EXTCODESIZE PUSH0 SUB PUSH2 0x4153 JUMPI PUSH1 0x40 MLOAD PUSH4 0x4C9C8CE3 PUSH1 0xE0 SHL DUP2 MSTORE PUSH1 0x1 PUSH1 0x1 PUSH1 0xA0 SHL SUB DUP3 AND PUSH1 0x4 DUP3 ADD MSTORE PUSH1 0x24 ADD PUSH2 0x11D6 JUMP JUMPDEST PUSH0 DUP1 MLOAD PUSH1 0x20 PUSH2 0x5B68 DUP4 CODECOPY DUP2 MLOAD SWAP2 MSTORE DUP1 SLOAD PUSH1 0x1 PUSH1 0x1 PUSH1 0xA0 SHL SUB NOT AND PUSH1 0x1 PUSH1 0x1 PUSH1 0xA0 SHL SUB SWAP3 SWAP1 SWAP3 AND SWAP2 SWAP1 SWAP2 OR SWAP1 SSTORE JUMP JUMPDEST PUSH1 0x60 PUSH0 DUP1 DUP5 PUSH1 0x1 PUSH1 0x1 PUSH1 0xA0 SHL SUB AND DUP5 PUSH1 0x40 MLOAD PUSH2 0x419D SWAP2 SWAP1 PUSH2 0x57B5 JUMP JUMPDEST PUSH0 PUSH1 0x40 MLOAD DUP1 DUP4 SUB DUP2 DUP6 GAS DELEGATECALL SWAP2 POP POP RETURNDATASIZE DUP1 PUSH0 DUP2 EQ PUSH2 0x41D5 JUMPI PUSH1 0x40 MLOAD SWAP2 POP PUSH1 0x1F NOT PUSH1 0x3F RETURNDATASIZE ADD AND DUP3 ADD PUSH1 0x40 MSTORE RETURNDATASIZE DUP3 MSTORE RETURNDATASIZE PUSH0 PUSH1 0x20 DUP5 ADD RETURNDATACOPY PUSH2 0x41DA JUMP JUMPDEST PUSH1 0x60 SWAP2 POP JUMPDEST POP SWAP2 POP SWAP2 POP PUSH2 0x28BD DUP6 DUP4 DUP4 PUSH2 0x4642 JUMP JUMPDEST CALLVALUE ISZERO PUSH2 0x19C5 JUMPI PUSH1 0x40 MLOAD PUSH4 0xB398979F PUSH1 0xE0 SHL DUP2 MSTORE PUSH1 0x4 ADD PUSH1 0x40 MLOAD DUP1 SWAP2 SUB SWAP1 REVERT JUMPDEST PUSH0 PUSH32 0x8B73C3C69BB8FE3D512ECC4CF759CC79239F7B179B0FFACAA9A75D522B39400F PUSH2 0x4233 PUSH2 0x469E JUMP JUMPDEST PUSH2 0x423B PUSH2 0x4706 JUMP JUMPDEST PUSH1 0x40 DUP1 MLOAD PUSH1 0x20 DUP2 ADD SWAP5 SWAP1 SWAP5 MSTORE DUP4 ADD SWAP2 SWAP1 SWAP2 MSTORE PUSH1 0x60 DUP3 ADD MSTORE CHAINID PUSH1 0x80 DUP3 ADD MSTORE ADDRESS PUSH1 0xA0 DUP3 ADD MSTORE PUSH1 0xC0 ADD PUSH1 0x40 MLOAD PUSH1 0x20 DUP2 DUP4 SUB SUB DUP2 MSTORE SWAP1 PUSH1 0x40 MSTORE DUP1 MLOAD SWAP1 PUSH1 0x20 ADD KECCAK256 SWAP1 POP SWAP1 JUMP JUMPDEST PUSH0 DUP1 DUP1 PUSH32 0x7FFFFFFFFFFFFFFFFFFFFFFFFFFFFFFF5D576E7357A4501DDFE92F46681B20A0 DUP5 GT ISZERO PUSH2 0x42B5 JUMPI POP PUSH0 SWAP2 POP PUSH1 0x3 SWAP1 POP DUP3 PUSH2 0x433A JUMP JUMPDEST PUSH1 0x40 DUP1 MLOAD PUSH0 DUP1 DUP3 MSTORE PUSH1 0x20 DUP3 ADD DUP1 DUP5 MSTORE DUP11 SWAP1 MSTORE PUSH1 0xFF DUP10 AND SWAP3 DUP3 ADD SWAP3 SWAP1 SWAP3 MSTORE PUSH1 0x60 DUP2 ADD DUP8 SWAP1 MSTORE PUSH1 0x80 DUP2 ADD DUP7 SWAP1 MSTORE PUSH1 0x1 SWAP1 PUSH1 0xA0 ADD PUSH1 0x20 PUSH1 0x40 MLOAD PUSH1 0x20 DUP2 SUB SWAP1 DUP1 DUP5 SUB SWAP1 DUP6 GAS STATICCALL ISZERO DUP1 ISZERO PUSH2 0x4306 JUMPI RETURNDATASIZE PUSH0 DUP1 RETURNDATACOPY RETURNDATASIZE PUSH0 REVERT JUMPDEST POP POP PUSH1 0x40 MLOAD PUSH1 0x1F NOT ADD MLOAD SWAP2 POP POP PUSH1 0x1 PUSH1 0x1 PUSH1 0xA0 SHL SUB DUP2 AND PUSH2 0x4331 JUMPI POP PUSH0 SWAP3 POP PUSH1 0x1 SWAP2 POP DUP3 SWAP1 POP PUSH2 0x433A JUMP JUMPDEST SWAP3 POP PUSH0 SWAP2 POP DUP2 SWAP1 POP JUMPDEST SWAP5 POP SWAP5 POP SWAP5 SWAP2 POP POP JUMP JUMPDEST PUSH0 DUP1 PUSH1 0x80 DUP4 SWAP1 SHR ISZERO PUSH2 0x4358 JUMPI PUSH1 0x80 SWAP3 DUP4 SHR SWAP3 ADD JUMPDEST PUSH1 0x40 DUP4 SWAP1 SHR ISZERO PUSH2 0x436A JUMPI PUSH1 0x40 SWAP3 DUP4 SHR SWAP3 ADD JUMPDEST PUSH1 0x20 DUP4 SWAP1 SHR ISZERO PUSH2 0x437C JUMPI PUSH1 0x20 SWAP3 DUP4 SHR SWAP3 ADD JUMPDEST PUSH1 0x10 DUP4 SWAP1 SHR ISZERO PUSH2 0x438E JUMPI PUSH1 0x10 SWAP3 DUP4 SHR SWAP3 ADD JUMPDEST PUSH1 0x8 DUP4 SWAP1 SHR ISZERO PUSH2 0x43A0 JUMPI PUSH1 0x8 SWAP3 DUP4 SHR SWAP3 ADD JUMPDEST PUSH1 0x4 DUP4 SWAP1 SHR ISZERO PUSH2 0x43B2 JUMPI PUSH1 0x4 SWAP3 DUP4 SHR SWAP3 ADD JUMPDEST PUSH1 0x2 DUP4 SWAP1 SHR ISZERO PUSH2 0x43C4 JUMPI PUSH1 0x2 SWAP3 DUP4 SHR SWAP3 ADD JUMPDEST PUSH1 0x1 DUP4 SWAP1 SHR ISZERO PUSH2 0xDF5 JUMPI PUSH1 0x1 ADD SWAP3 SWAP2 POP POP JUMP JUMPDEST PUSH0 DUP2 DUP4 LT PUSH2 0x43E5 JUMPI DUP2 PUSH2 0x1CF3 JUMP JUMPDEST POP SWAP1 SWAP2 SWAP1 POP JUMP JUMPDEST PUSH0 PUSH2 0x43FA PUSH1 0x2 DUP5 DUP5 XOR PUSH2 0x56DA JUMP JUMPDEST PUSH2 0x1CF3 SWAP1 DUP5 DUP5 AND PUSH2 0x569C JUMP JUMPDEST PUSH0 DUP1 PUSH0 DUP1 MLOAD PUSH1 0x20 PUSH2 0x5BC8 DUP4 CODECOPY DUP2 MLOAD SWAP2 MSTORE SWAP1 POP PUSH2 0x442B DUP8 DUP8 DUP8 DUP8 DUP1 MLOAD SWAP1 PUSH1 0x20 ADD KECCAK256 PUSH2 0x1FEF JUMP JUMPDEST SWAP2 POP DUP6 MLOAD DUP8 MLOAD EQ ISZERO DUP1 PUSH2 0x4440 JUMPI POP DUP5 MLOAD DUP8 MLOAD EQ ISZERO JUMPDEST DUP1 PUSH2 0x444A JUMPI POP DUP7 MLOAD ISZERO JUMPDEST ISZERO PUSH2 0x447F JUMPI DUP7 MLOAD DUP6 MLOAD DUP8 MLOAD PUSH1 0x40 MLOAD PUSH4 0x447B05D PUSH1 0xE4 SHL DUP2 MSTORE PUSH1 0x4 DUP2 ADD SWAP4 SWAP1 SWAP4 MSTORE PUSH1 0x24 DUP4 ADD SWAP2 SWAP1 SWAP2 MSTORE PUSH1 0x44 DUP3 ADD MSTORE PUSH1 0x64 ADD PUSH2 0x11D6 JUMP JUMPDEST PUSH0 DUP3 DUP2 MSTORE PUSH1 0x1 DUP3 ADD PUSH1 0x20 MSTORE PUSH1 0x40 SWAP1 KECCAK256 SLOAD PUSH1 0x1 PUSH1 0xA0 SHL SWAP1 DIV PUSH6 0xFFFFFFFFFFFF AND ISZERO PUSH2 0x44CA JUMPI DUP2 PUSH2 0x44AD DUP4 PUSH2 0x142E JUMP JUMPDEST PUSH1 0x40 MLOAD PUSH4 0x31B75E4D PUSH1 0xE0 SHL DUP2 MSTORE PUSH2 0x11D6 SWAP3 SWAP2 SWAP1 PUSH0 SWAP1 PUSH1 0x4 ADD PUSH2 0x55E4 JUMP JUMPDEST PUSH0 PUSH2 0x44D3 PUSH2 0x1410 JUMP JUMPDEST PUSH2 0x44DB PUSH2 0x1C76 JUMP JUMPDEST PUSH6 0xFFFFFFFFFFFF AND PUSH2 0x44ED SWAP2 SWAP1 PUSH2 0x569C JUMP JUMPDEST SWAP1 POP PUSH0 PUSH2 0x4513 PUSH0 DUP1 MLOAD PUSH1 0x20 PUSH2 0x5AC7 DUP4 CODECOPY DUP2 MLOAD SWAP2 MSTORE SLOAD PUSH4 0xFFFFFFFF PUSH1 0x1 PUSH1 0x30 SHL SWAP1 SWAP2 DIV AND SWAP1 JUMP JUMPDEST PUSH0 DUP6 DUP2 MSTORE PUSH1 0x1 DUP6 ADD PUSH1 0x20 MSTORE PUSH1 0x40 SWAP1 KECCAK256 DUP1 SLOAD PUSH1 0x1 PUSH1 0x1 PUSH1 0xA0 SHL SUB NOT AND PUSH1 0x1 PUSH1 0x1 PUSH1 0xA0 SHL SUB DUP9 AND OR DUP2 SSTORE SWAP1 SWAP2 POP PUSH2 0x4547 DUP4 PUSH2 0x2C2C JUMP JUMPDEST DUP2 SLOAD PUSH6 0xFFFFFFFFFFFF SWAP2 SWAP1 SWAP2 AND PUSH1 0x1 PUSH1 0xA0 SHL MUL PUSH6 0xFFFFFFFFFFFF PUSH1 0xA0 SHL NOT SWAP1 SWAP2 AND OR DUP2 SSTORE PUSH2 0x4574 DUP3 PUSH2 0x4748 JUMP JUMPDEST DUP2 SLOAD PUSH4 0xFFFFFFFF SWAP2 SWAP1 SWAP2 AND PUSH1 0x1 PUSH1 0xD0 SHL MUL PUSH4 0xFFFFFFFF PUSH1 0xD0 SHL NOT SWAP1 SWAP2 AND OR DUP2 SSTORE DUP10 MLOAD PUSH32 0x7D84A6263AE0D98D3329BD7B46BB4E8D6F98CD35A7ADB45C274C8B7FD5EBD5E0 SWAP1 DUP7 SWAP1 DUP9 SWAP1 DUP14 SWAP1 DUP14 SWAP1 PUSH1 0x1 PUSH1 0x1 PUSH1 0x40 SHL SUB DUP2 GT ISZERO PUSH2 0x45D7 JUMPI PUSH2 0x45D7 PUSH2 0x4959 JUMP JUMPDEST PUSH1 0x40 MLOAD SWAP1 DUP1 DUP3 MSTORE DUP1 PUSH1 0x20 MUL PUSH1 0x20 ADD DUP3 ADD PUSH1 0x40 MSTORE DUP1 ISZERO PUSH2 0x460A JUMPI DUP2 PUSH1 0x20 ADD JUMPDEST PUSH1 0x60 DUP2 MSTORE PUSH1 0x20 ADD SWAP1 PUSH1 0x1 SWAP1 SUB SWAP1 DUP2 PUSH2 0x45F5 JUMPI SWAP1 POP JUMPDEST POP DUP14 DUP10 PUSH2 0x4617 DUP11 DUP3 PUSH2 0x569C JUMP JUMPDEST DUP16 PUSH1 0x40 MLOAD PUSH2 0x462D SWAP10 SWAP9 SWAP8 SWAP7 SWAP6 SWAP5 SWAP4 SWAP3 SWAP2 SWAP1 PUSH2 0x59CB JUMP JUMPDEST PUSH1 0x40 MLOAD DUP1 SWAP2 SUB SWAP1 LOG1 POP POP POP POP SWAP6 SWAP5 POP POP POP POP POP JUMP JUMPDEST PUSH1 0x60 DUP3 PUSH2 0x4657 JUMPI PUSH2 0x4652 DUP3 PUSH2 0x3E7B JUMP JUMPDEST PUSH2 0x1CF3 JUMP JUMPDEST DUP2 MLOAD ISZERO DUP1 ISZERO PUSH2 0x466E JUMPI POP PUSH1 0x1 PUSH1 0x1 PUSH1 0xA0 SHL SUB DUP5 AND EXTCODESIZE ISZERO JUMPDEST ISZERO PUSH2 0x4697 JUMPI PUSH1 0x40 MLOAD PUSH4 0x9996B315 PUSH1 0xE0 SHL DUP2 MSTORE PUSH1 0x1 PUSH1 0x1 PUSH1 0xA0 SHL SUB DUP6 AND PUSH1 0x4 DUP3 ADD MSTORE PUSH1 0x24 ADD PUSH2 0x11D6 JUMP JUMPDEST POP DUP1 PUSH2 0x1CF3 JUMP JUMPDEST PUSH0 PUSH0 DUP1 MLOAD PUSH1 0x20 PUSH2 0x5B28 DUP4 CODECOPY DUP2 MLOAD SWAP2 MSTORE DUP2 PUSH2 0x46B6 PUSH2 0x2EF9 JUMP JUMPDEST DUP1 MLOAD SWAP1 SWAP2 POP ISZERO PUSH2 0x46CE JUMPI DUP1 MLOAD PUSH1 0x20 SWAP1 SWAP2 ADD KECCAK256 SWAP3 SWAP2 POP POP JUMP JUMPDEST DUP2 SLOAD DUP1 ISZERO PUSH2 0x46DD JUMPI SWAP4 SWAP3 POP POP POP JUMP JUMPDEST PUSH32 0xC5D2460186F7233C927E7DB2DCC703C0E500B653CA82273B7BFAD8045D85A470 SWAP4 POP POP POP POP SWAP1 JUMP JUMPDEST PUSH0 PUSH0 DUP1 MLOAD PUSH1 0x20 PUSH2 0x5B28 DUP4 CODECOPY DUP2 MLOAD SWAP2 MSTORE DUP2 PUSH2 0x471E PUSH2 0x2F37 JUMP JUMPDEST DUP1 MLOAD SWAP1 SWAP2 POP ISZERO PUSH2 0x4736 JUMPI DUP1 MLOAD PUSH1 0x20 SWAP1 SWAP2 ADD KECCAK256 SWAP3 SWAP2 POP POP JUMP JUMPDEST PUSH1 0x1 DUP3 ADD SLOAD DUP1 ISZERO PUSH2 0x46DD JUMPI SWAP4 SWAP3 POP POP POP JUMP JUMPDEST PUSH0 PUSH4 0xFFFFFFFF DUP3 GT ISZERO PUSH2 0x2C5E JUMPI PUSH1 0x40 MLOAD PUSH4 0x6DFCC65 PUSH1 0xE4 SHL DUP2 MSTORE PUSH1 0x20 PUSH1 0x4 DUP3 ADD MSTORE PUSH1 0x24 DUP2 ADD DUP4 SWAP1 MSTORE PUSH1 0x44 ADD PUSH2 0x11D6 JUMP JUMPDEST DUP3 DUP1 SLOAD DUP3 DUP3 SSTORE SWAP1 PUSH0 MSTORE PUSH1 0x20 PUSH0 KECCAK256 SWAP1 DUP2 ADD SWAP3 DUP3 ISZERO PUSH2 0x47CB JUMPI SWAP2 PUSH1 0x20 MUL DUP3 ADD JUMPDEST DUP3 DUP2 GT ISZERO PUSH2 0x47CB JUMPI DUP3 MLOAD DUP3 SLOAD PUSH1 0x1 PUSH1 0x1 PUSH1 0xA0 SHL SUB NOT AND PUSH1 0x1 PUSH1 0x1 PUSH1 0xA0 SHL SUB SWAP1 SWAP2 AND OR DUP3 SSTORE PUSH1 0x20 SWAP1 SWAP3 ADD SWAP2 PUSH1 0x1 SWAP1 SWAP2 ADD SWAP1 PUSH2 0x4796 JUMP JUMPDEST POP PUSH2 0x2C5E SWAP3 SWAP2 POP PUSH2 0x4860 JUMP JUMPDEST DUP3 DUP1 SLOAD DUP3 DUP3 SSTORE SWAP1 PUSH0 MSTORE PUSH1 0x20 PUSH0 KECCAK256 SWAP1 DUP2 ADD SWAP3 DUP3 ISZERO PUSH2 0x47CB JUMPI SWAP2 PUSH1 0x20 MUL DUP3 ADD JUMPDEST DUP3 DUP2 GT ISZERO PUSH2 0x47CB JUMPI DUP3 MLOAD DUP3 SSTORE SWAP2 PUSH1 0x20 ADD SWAP2 SWAP1 PUSH1 0x1 ADD SWAP1 PUSH2 0x47F5 JUMP JUMPDEST DUP3 DUP1 SLOAD DUP3 DUP3 SSTORE SWAP1 PUSH0 MSTORE PUSH1 0x20 PUSH0 KECCAK256 SWAP1 DUP2 ADD SWAP3 DUP3 ISZERO PUSH2 0x4854 JUMPI SWAP2 PUSH1 0x20 MUL DUP3 ADD JUMPDEST DUP3 DUP2 GT ISZERO PUSH2 0x4854 JUMPI DUP3 MLOAD DUP3 SWAP1 PUSH2 0x4844 SWAP1 DUP3 PUSH2 0x580F JUMP JUMPDEST POP SWAP2 PUSH1 0x20 ADD SWAP2 SWAP1 PUSH1 0x1 ADD SWAP1 PUSH2 0x482E JUMP JUMPDEST POP PUSH2 0x2C5E SWAP3 SWAP2 POP PUSH2 0x4874 JUMP JUMPDEST JUMPDEST DUP1 DUP3 GT ISZERO PUSH2 0x2C5E JUMPI PUSH0 DUP2 SSTORE PUSH1 0x1 ADD PUSH2 0x4861 JUMP JUMPDEST DUP1 DUP3 GT ISZERO PUSH2 0x2C5E JUMPI PUSH0 PUSH2 0x4887 DUP3 DUP3 PUSH2 0x4890 JUMP JUMPDEST POP PUSH1 0x1 ADD PUSH2 0x4874 JUMP JUMPDEST POP DUP1 SLOAD PUSH2 0x489C SWAP1 PUSH2 0x5497 JUMP JUMPDEST PUSH0 DUP3 SSTORE DUP1 PUSH1 0x1F LT PUSH2 0x48AB JUMPI POP POP JUMP JUMPDEST PUSH1 0x1F ADD PUSH1 0x20 SWAP1 DIV SWAP1 PUSH0 MSTORE PUSH1 0x20 PUSH0 KECCAK256 SWAP1 DUP2 ADD SWAP1 PUSH2 0x8B6 SWAP2 SWAP1 PUSH2 0x4860 JUMP JUMPDEST PUSH0 PUSH1 0x20 DUP3 DUP5 SUB SLT ISZERO PUSH2 0x48D7 JUMPI PUSH0 DUP1 REVERT JUMPDEST DUP2 CALLDATALOAD PUSH1 0x1 PUSH1 0x1 PUSH1 0xE0 SHL SUB NOT DUP2 AND DUP2 EQ PUSH2 0x1CF3 JUMPI PUSH0 DUP1 REVERT JUMPDEST PUSH0 PUSH1 0x20 DUP3 DUP5 SUB SLT ISZERO PUSH2 0x48FE JUMPI PUSH0 DUP1 REVERT JUMPDEST POP CALLDATALOAD SWAP2 SWAP1 POP JUMP JUMPDEST PUSH0 DUP2 MLOAD DUP1 DUP5 MSTORE DUP1 PUSH1 0x20 DUP5 ADD PUSH1 0x20 DUP7 ADD MCOPY PUSH0 PUSH1 0x20 DUP3 DUP7 ADD ADD MSTORE PUSH1 0x20 PUSH1 0x1F NOT PUSH1 0x1F DUP4 ADD AND DUP6 ADD ADD SWAP2 POP POP SWAP3 SWAP2 POP POP JUMP JUMPDEST PUSH1 0x20 DUP2 MSTORE PUSH0 PUSH2 0x1CF3 PUSH1 0x20 DUP4 ADD DUP5 PUSH2 0x4905 JUMP JUMPDEST PUSH1 0x1 PUSH1 0x1 PUSH1 0xA0 SHL SUB DUP2 AND DUP2 EQ PUSH2 0x8B6 JUMPI PUSH0 DUP1 REVERT JUMPDEST PUSH4 0x4E487B71 PUSH1 0xE0 SHL PUSH0 MSTORE PUSH1 0x41 PUSH1 0x4 MSTORE PUSH1 0x24 PUSH0 REVERT JUMPDEST PUSH1 0x40 MLOAD PUSH1 0x1F DUP3 ADD PUSH1 0x1F NOT AND DUP2 ADD PUSH1 0x1 PUSH1 0x1 PUSH1 0x40 SHL SUB DUP2 GT DUP3 DUP3 LT OR ISZERO PUSH2 0x4995 JUMPI PUSH2 0x4995 PUSH2 0x4959 JUMP JUMPDEST PUSH1 0x40 MSTORE SWAP2 SWAP1 POP JUMP JUMPDEST PUSH0 PUSH1 0x1 PUSH1 0x1 PUSH1 0x40 SHL SUB DUP3 GT ISZERO PUSH2 0x49B5 JUMPI PUSH2 0x49B5 PUSH2 0x4959 JUMP JUMPDEST POP PUSH1 0x1F ADD PUSH1 0x1F NOT AND PUSH1 0x20 ADD SWAP1 JUMP JUMPDEST PUSH0 DUP3 PUSH1 0x1F DUP4 ADD SLT PUSH2 0x49D2 JUMPI PUSH0 DUP1 REVERT JUMPDEST DUP2 CALLDATALOAD PUSH1 0x20 DUP4 ADD PUSH0 PUSH2 0x49EA PUSH2 0x49E5 DUP5 PUSH2 0x499D JUMP JUMPDEST PUSH2 0x496D JUMP JUMPDEST SWAP1 POP DUP3 DUP2 MSTORE DUP6 DUP4 DUP4 ADD GT ISZERO PUSH2 0x49FD JUMPI PUSH0 DUP1 REVERT JUMPDEST DUP3 DUP3 PUSH1 0x20 DUP4 ADD CALLDATACOPY PUSH0 SWAP3 DUP2 ADD PUSH1 0x20 ADD SWAP3 SWAP1 SWAP3 MSTORE POP SWAP4 SWAP3 POP POP POP JUMP JUMPDEST PUSH0 DUP1 PUSH0 DUP1 PUSH1 0x80 DUP6 DUP8 SUB SLT ISZERO PUSH2 0x4A2A JUMPI PUSH0 DUP1 REVERT JUMPDEST DUP5 CALLDATALOAD PUSH2 0x4A35 DUP2 PUSH2 0x4945 JUMP JUMPDEST SWAP4 POP PUSH1 0x20 DUP6 ADD CALLDATALOAD PUSH2 0x4A45 DUP2 PUSH2 0x4945 JUMP JUMPDEST SWAP3 POP PUSH1 0x40 DUP6 ADD CALLDATALOAD SWAP2 POP PUSH1 0x60 DUP6 ADD CALLDATALOAD PUSH1 0x1 PUSH1 0x1 PUSH1 0x40 SHL SUB DUP2 GT ISZERO PUSH2 0x4A66 JUMPI PUSH0 DUP1 REVERT JUMPDEST PUSH2 0x4A72 DUP8 DUP3 DUP9 ADD PUSH2 0x49C3 JUMP JUMPDEST SWAP2 POP POP SWAP3 SWAP6 SWAP2 SWAP5 POP SWAP3 POP JUMP JUMPDEST PUSH0 PUSH1 0x1 PUSH1 0x1 PUSH1 0x40 SHL SUB DUP3 GT ISZERO PUSH2 0x4A96 JUMPI PUSH2 0x4A96 PUSH2 0x4959 JUMP JUMPDEST POP PUSH1 0x5 SHL PUSH1 0x20 ADD SWAP1 JUMP JUMPDEST PUSH0 DUP3 PUSH1 0x1F DUP4 ADD SLT PUSH2 0x4AAF JUMPI PUSH0 DUP1 REVERT JUMPDEST DUP2 CALLDATALOAD PUSH2 0x4ABD PUSH2 0x49E5 DUP3 PUSH2 0x4A7E JUMP JUMPDEST DUP1 DUP3 DUP3 MSTORE PUSH1 0x20 DUP3 ADD SWAP2 POP PUSH1 0x20 DUP4 PUSH1 0x5 SHL DUP7 ADD ADD SWAP3 POP DUP6 DUP4 GT ISZERO PUSH2 0x4ADE JUMPI PUSH0 DUP1 REVERT JUMPDEST PUSH1 0x20 DUP6 ADD JUMPDEST DUP4 DUP2 LT ISZERO PUSH2 0x4B04 JUMPI DUP1 CALLDATALOAD PUSH2 0x4AF6 DUP2 PUSH2 0x4945 JUMP JUMPDEST DUP4 MSTORE PUSH1 0x20 SWAP3 DUP4 ADD SWAP3 ADD PUSH2 0x4AE3 JUMP JUMPDEST POP SWAP6 SWAP5 POP POP POP POP POP JUMP JUMPDEST PUSH0 DUP3 PUSH1 0x1F DUP4 ADD SLT PUSH2 0x4B1D JUMPI PUSH0 DUP1 REVERT JUMPDEST DUP2 CALLDATALOAD PUSH2 0x4B2B PUSH2 0x49E5 DUP3 PUSH2 0x4A7E JUMP JUMPDEST DUP1 DUP3 DUP3 MSTORE PUSH1 0x20 DUP3 ADD SWAP2 POP PUSH1 0x20 DUP4 PUSH1 0x5 SHL DUP7 ADD ADD SWAP3 POP DUP6 DUP4 GT ISZERO PUSH2 0x4B4C JUMPI PUSH0 DUP1 REVERT JUMPDEST PUSH1 0x20 DUP6 ADD JUMPDEST DUP4 DUP2 LT ISZERO PUSH2 0x4B04 JUMPI DUP1 CALLDATALOAD DUP4 MSTORE PUSH1 0x20 SWAP3 DUP4 ADD SWAP3 ADD PUSH2 0x4B51 JUMP JUMPDEST PUSH0 DUP3 PUSH1 0x1F DUP4 ADD SLT PUSH2 0x4B78 JUMPI PUSH0 DUP1 REVERT JUMPDEST DUP2 CALLDATALOAD PUSH2 0x4B86 PUSH2 0x49E5 DUP3 PUSH2 0x4A7E JUMP JUMPDEST DUP1 DUP3 DUP3 MSTORE PUSH1 0x20 DUP3 ADD SWAP2 POP PUSH1 0x20 DUP4 PUSH1 0x5 SHL DUP7 ADD ADD SWAP3 POP DUP6 DUP4 GT ISZERO PUSH2 0x4BA7 JUMPI PUSH0 DUP1 REVERT JUMPDEST PUSH1 0x20 DUP6 ADD JUMPDEST DUP4 DUP2 LT ISZERO PUSH2 0x4B04 JUMPI DUP1 CALLDATALOAD PUSH1 0x1 PUSH1 0x1 PUSH1 0x40 SHL SUB DUP2 GT ISZERO PUSH2 0x4BC9 JUMPI PUSH0 DUP1 REVERT JUMPDEST PUSH2 0x4BD8 DUP9 PUSH1 0x20 DUP4 DUP11 ADD ADD PUSH2 0x49C3 JUMP JUMPDEST DUP5 MSTORE POP PUSH1 0x20 SWAP3 DUP4 ADD SWAP3 ADD PUSH2 0x4BAC JUMP JUMPDEST PUSH0 DUP1 PUSH0 DUP1 PUSH1 0x80 DUP6 DUP8 SUB SLT ISZERO PUSH2 0x4BFA JUMPI PUSH0 DUP1 REVERT JUMPDEST DUP5 CALLDATALOAD PUSH1 0x1 PUSH1 0x1 PUSH1 0x40 SHL SUB DUP2 GT ISZERO PUSH2 0x4C0F JUMPI PUSH0 DUP1 REVERT JUMPDEST PUSH2 0x4C1B DUP8 DUP3 DUP9 ADD PUSH2 0x4AA0 JUMP JUMPDEST SWAP5 POP POP PUSH1 0x20 DUP6 ADD CALLDATALOAD PUSH1 0x1 PUSH1 0x1 PUSH1 0x40 SHL SUB DUP2 GT ISZERO PUSH2 0x4C36 JUMPI PUSH0 DUP1 REVERT JUMPDEST PUSH2 0x4C42 DUP8 DUP3 DUP9 ADD PUSH2 0x4B0E JUMP JUMPDEST SWAP4 POP POP PUSH1 0x40 DUP6 ADD CALLDATALOAD PUSH1 0x1 PUSH1 0x1 PUSH1 0x40 SHL SUB DUP2 GT ISZERO PUSH2 0x4C5D JUMPI PUSH0 DUP1 REVERT JUMPDEST PUSH2 0x4C69 DUP8 DUP3 DUP9 ADD PUSH2 0x4B69 JUMP JUMPDEST SWAP5 SWAP8 SWAP4 SWAP7 POP SWAP4 SWAP5 PUSH1 0x60 ADD CALLDATALOAD SWAP4 POP POP POP JUMP JUMPDEST PUSH0 DUP2 MLOAD DUP1 DUP5 MSTORE PUSH1 0x20 DUP5 ADD SWAP4 POP PUSH1 0x20 DUP4 ADD PUSH0 JUMPDEST DUP3 DUP2 LT ISZERO PUSH2 0x4CB3 JUMPI DUP2 MLOAD PUSH1 0x1 PUSH1 0x1 PUSH1 0xA0 SHL SUB AND DUP7 MSTORE PUSH1 0x20 SWAP6 DUP7 ADD SWAP6 SWAP1 SWAP2 ADD SWAP1 PUSH1 0x1 ADD PUSH2 0x4C8C JUMP JUMPDEST POP SWAP4 SWAP5 SWAP4 POP POP POP POP JUMP JUMPDEST PUSH0 DUP2 MLOAD DUP1 DUP5 MSTORE PUSH1 0x20 DUP5 ADD SWAP4 POP PUSH1 0x20 DUP4 ADD PUSH0 JUMPDEST DUP3 DUP2 LT ISZERO PUSH2 0x4CB3 JUMPI DUP2 MLOAD DUP7 MSTORE PUSH1 0x20 SWAP6 DUP7 ADD SWAP6 SWAP1 SWAP2 ADD SWAP1 PUSH1 0x1 ADD PUSH2 0x4CCF JUMP JUMPDEST PUSH0 DUP3 DUP3 MLOAD DUP1 DUP6 MSTORE PUSH1 0x20 DUP6 ADD SWAP5 POP PUSH1 0x20 DUP2 PUSH1 0x5 SHL DUP4 ADD ADD PUSH1 0x20 DUP6 ADD PUSH0 JUMPDEST DUP4 DUP2 LT ISZERO PUSH2 0x4D3B JUMPI PUSH1 0x1F NOT DUP6 DUP5 SUB ADD DUP9 MSTORE PUSH2 0x4D25 DUP4 DUP4 MLOAD PUSH2 0x4905 JUMP JUMPDEST PUSH1 0x20 SWAP9 DUP10 ADD SWAP9 SWAP1 SWAP4 POP SWAP2 SWAP1 SWAP2 ADD SWAP1 PUSH1 0x1 ADD PUSH2 0x4D09 JUMP JUMPDEST POP SWAP1 SWAP7 SWAP6 POP POP POP POP POP POP JUMP JUMPDEST PUSH1 0x80 DUP2 MSTORE PUSH0 PUSH2 0x4D59 PUSH1 0x80 DUP4 ADD DUP8 PUSH2 0x4C7A JUMP JUMPDEST DUP3 DUP2 SUB PUSH1 0x20 DUP5 ADD MSTORE PUSH2 0x4D6B DUP2 DUP8 PUSH2 0x4CBD JUMP JUMPDEST SWAP1 POP DUP3 DUP2 SUB PUSH1 0x40 DUP5 ADD MSTORE PUSH2 0x4D7F DUP2 DUP7 PUSH2 0x4CED JUMP JUMPDEST SWAP2 POP POP DUP3 PUSH1 0x60 DUP4 ADD MSTORE SWAP6 SWAP5 POP POP POP POP POP JUMP JUMPDEST DUP6 DUP2 MSTORE PUSH1 0xA0 PUSH1 0x20 DUP3 ADD MSTORE PUSH0 PUSH2 0x4DA9 PUSH1 0xA0 DUP4 ADD DUP8 PUSH2 0x4C7A JUMP JUMPDEST DUP3 DUP2 SUB PUSH1 0x40 DUP5 ADD MSTORE PUSH2 0x4DBB DUP2 DUP8 PUSH2 0x4CBD JUMP JUMPDEST SWAP1 POP DUP3 DUP2 SUB PUSH1 0x60 DUP5 ADD MSTORE PUSH2 0x4DCF DUP2 DUP7 PUSH2 0x4CED JUMP JUMPDEST SWAP2 POP POP DUP3 PUSH1 0x80 DUP4 ADD MSTORE SWAP7 SWAP6 POP POP POP POP POP POP JUMP JUMPDEST PUSH0 PUSH1 0x20 DUP3 DUP5 SUB SLT ISZERO PUSH2 0x4DF2 JUMPI PUSH0 DUP1 REVERT JUMPDEST DUP2 CALLDATALOAD PUSH2 0x1CF3 DUP2 PUSH2 0x4945 JUMP JUMPDEST PUSH4 0x4E487B71 PUSH1 0xE0 SHL PUSH0 MSTORE PUSH1 0x21 PUSH1 0x4 MSTORE PUSH1 0x24 PUSH0 REVERT JUMPDEST PUSH1 0x8 DUP2 LT PUSH2 0x4E2D JUMPI PUSH4 0x4E487B71 PUSH1 0xE0 SHL PUSH0 MSTORE PUSH1 0x21 PUSH1 0x4 MSTORE PUSH1 0x24 PUSH0 REVERT JUMPDEST SWAP1 MSTORE JUMP JUMPDEST PUSH1 0x20 DUP2 ADD PUSH2 0xDF5 DUP3 DUP5 PUSH2 0x4E11 JUMP JUMPDEST PUSH0 DUP1 PUSH1 0x40 DUP4 DUP6 SUB SLT ISZERO PUSH2 0x4E50 JUMPI PUSH0 DUP1 REVERT JUMPDEST DUP3 CALLDATALOAD SWAP2 POP PUSH1 0x20 DUP4 ADD CALLDATALOAD PUSH2 0x4E62 DUP2 PUSH2 0x4945 JUMP JUMPDEST DUP1 SWAP2 POP POP SWAP3 POP SWAP3 SWAP1 POP JUMP JUMPDEST PUSH0 DUP1 PUSH1 0x40 DUP4 DUP6 SUB SLT ISZERO PUSH2 0x4E7E JUMPI PUSH0 DUP1 REVERT JUMPDEST DUP3 CALLDATALOAD PUSH2 0x4E89 DUP2 PUSH2 0x4945 JUMP JUMPDEST SWAP2 POP PUSH1 0x20 DUP4 ADD CALLDATALOAD PUSH1 0x1 PUSH1 0x1 PUSH1 0x40 SHL SUB DUP2 GT ISZERO PUSH2 0x4EA3 JUMPI PUSH0 DUP1 REVERT JUMPDEST PUSH2 0x4EAF DUP6 DUP3 DUP7 ADD PUSH2 0x49C3 JUMP JUMPDEST SWAP2 POP POP SWAP3 POP SWAP3 SWAP1 POP JUMP JUMPDEST DUP1 CALLDATALOAD PUSH1 0xFF DUP2 AND DUP2 EQ PUSH2 0x170F JUMPI PUSH0 DUP1 REVERT JUMPDEST PUSH0 DUP1 PUSH1 0x40 DUP4 DUP6 SUB SLT ISZERO PUSH2 0x4EDA JUMPI PUSH0 DUP1 REVERT JUMPDEST DUP3 CALLDATALOAD SWAP2 POP PUSH2 0x4EEA PUSH1 0x20 DUP5 ADD PUSH2 0x4EB9 JUMP JUMPDEST SWAP1 POP SWAP3 POP SWAP3 SWAP1 POP JUMP JUMPDEST PUSH0 DUP1 DUP4 PUSH1 0x1F DUP5 ADD SLT PUSH2 0x4F03 JUMPI PUSH0 DUP1 REVERT JUMPDEST POP DUP2 CALLDATALOAD PUSH1 0x1 PUSH1 0x1 PUSH1 0x40 SHL SUB DUP2 GT ISZERO PUSH2 0x4F19 JUMPI PUSH0 DUP1 REVERT JUMPDEST PUSH1 0x20 DUP4 ADD SWAP2 POP DUP4 PUSH1 0x20 DUP3 DUP6 ADD ADD GT ISZERO PUSH2 0x4F30 JUMPI PUSH0 DUP1 REVERT JUMPDEST SWAP3 POP SWAP3 SWAP1 POP JUMP JUMPDEST PUSH0 DUP1 PUSH0 DUP1 PUSH0 DUP1 PUSH0 PUSH1 0xC0 DUP9 DUP11 SUB SLT ISZERO PUSH2 0x4F4D JUMPI PUSH0 DUP1 REVERT JUMPDEST DUP8 CALLDATALOAD SWAP7 POP PUSH2 0x4F5D PUSH1 0x20 DUP10 ADD PUSH2 0x4EB9 JUMP JUMPDEST SWAP6 POP PUSH1 0x40 DUP9 ADD CALLDATALOAD PUSH2 0x4F6D DUP2 PUSH2 0x4945 JUMP JUMPDEST SWAP5 POP PUSH1 0x60 DUP9 ADD CALLDATALOAD PUSH1 0x1 PUSH1 0x1 PUSH1 0x40 SHL SUB DUP2 GT ISZERO PUSH2 0x4F87 JUMPI PUSH0 DUP1 REVERT JUMPDEST PUSH2 0x4F93 DUP11 DUP3 DUP12 ADD PUSH2 0x4EF3 JUMP JUMPDEST SWAP1 SWAP6 POP SWAP4 POP POP PUSH1 0x80 DUP9 ADD CALLDATALOAD PUSH1 0x1 PUSH1 0x1 PUSH1 0x40 SHL SUB DUP2 GT ISZERO PUSH2 0x4FB1 JUMPI PUSH0 DUP1 REVERT JUMPDEST PUSH2 0x4FBD DUP11 DUP3 DUP12 ADD PUSH2 0x49C3 JUMP JUMPDEST SWAP3 POP POP PUSH1 0xA0 DUP9 ADD CALLDATALOAD PUSH1 0x1 PUSH1 0x1 PUSH1 0x40 SHL SUB DUP2 GT ISZERO PUSH2 0x4FD8 JUMPI PUSH0 DUP1 REVERT JUMPDEST PUSH2 0x4FE4 DUP11 DUP3 DUP12 ADD PUSH2 0x49C3 JUMP JUMPDEST SWAP2 POP POP SWAP3 SWAP6 SWAP9 SWAP2 SWAP5 SWAP8 POP SWAP3 SWAP6 POP JUMP JUMPDEST PUSH0 DUP1 PUSH0 DUP1 PUSH0 PUSH1 0x80 DUP7 DUP9 SUB SLT ISZERO PUSH2 0x5007 JUMPI PUSH0 DUP1 REVERT JUMPDEST DUP6 CALLDATALOAD SWAP5 POP PUSH2 0x5017 PUSH1 0x20 DUP8 ADD PUSH2 0x4EB9 JUMP JUMPDEST SWAP4 POP PUSH1 0x40 DUP7 ADD CALLDATALOAD PUSH1 0x1 PUSH1 0x1 PUSH1 0x40 SHL SUB DUP2 GT ISZERO PUSH2 0x5031 JUMPI PUSH0 DUP1 REVERT JUMPDEST PUSH2 0x503D DUP9 DUP3 DUP10 ADD PUSH2 0x4EF3 JUMP JUMPDEST SWAP1 SWAP5 POP SWAP3 POP POP PUSH1 0x60 DUP7 ADD CALLDATALOAD PUSH1 0x1 PUSH1 0x1 PUSH1 0x40 SHL SUB DUP2 GT ISZERO PUSH2 0x505B JUMPI PUSH0 DUP1 REVERT JUMPDEST PUSH2 0x5067 DUP9 DUP3 DUP10 ADD PUSH2 0x49C3 JUMP JUMPDEST SWAP2 POP POP SWAP3 SWAP6 POP SWAP3 SWAP6 SWAP1 SWAP4 POP JUMP JUMPDEST PUSH6 0xFFFFFFFFFFFF DUP2 AND DUP2 EQ PUSH2 0x8B6 JUMPI PUSH0 DUP1 REVERT JUMPDEST PUSH0 PUSH1 0x20 DUP3 DUP5 SUB SLT ISZERO PUSH2 0x5097 JUMPI PUSH0 DUP1 REVERT JUMPDEST DUP2 CALLDATALOAD PUSH2 0x1CF3 DUP2 PUSH2 0x5074 JUMP JUMPDEST PUSH0 DUP1 PUSH0 DUP1 PUSH1 0x60 DUP6 DUP8 SUB SLT ISZERO PUSH2 0x50B5 JUMPI PUSH0 DUP1 REVERT JUMPDEST DUP5 CALLDATALOAD SWAP4 POP PUSH2 0x50C5 PUSH1 0x20 DUP7 ADD PUSH2 0x4EB9 JUMP JUMPDEST SWAP3 POP PUSH1 0x40 DUP6 ADD CALLDATALOAD PUSH1 0x1 PUSH1 0x1 PUSH1 0x40 SHL SUB DUP2 GT ISZERO PUSH2 0x50DF JUMPI PUSH0 DUP1 REVERT JUMPDEST PUSH2 0x50EB DUP8 DUP3 DUP9 ADD PUSH2 0x4EF3 JUMP JUMPDEST SWAP6 SWAP9 SWAP5 SWAP8 POP SWAP6 POP POP POP POP JUMP JUMPDEST PUSH0 PUSH1 0x20 DUP3 DUP5 SUB SLT ISZERO PUSH2 0x5107 JUMPI PUSH0 DUP1 REVERT JUMPDEST DUP2 CALLDATALOAD PUSH1 0x1 PUSH1 0x1 PUSH1 0x40 SHL SUB DUP2 GT ISZERO PUSH2 0x511C JUMPI PUSH0 DUP1 REVERT JUMPDEST PUSH2 0x176D DUP5 DUP3 DUP6 ADD PUSH2 0x49C3 JUMP JUMPDEST PUSH0 DUP1 PUSH0 DUP1 PUSH1 0x80 DUP6 DUP8 SUB SLT ISZERO PUSH2 0x513B JUMPI PUSH0 DUP1 REVERT JUMPDEST DUP5 CALLDATALOAD PUSH1 0x1 PUSH1 0x1 PUSH1 0x40 SHL SUB DUP2 GT ISZERO PUSH2 0x5150 JUMPI PUSH0 DUP1 REVERT JUMPDEST PUSH2 0x515C DUP8 DUP3 DUP9 ADD PUSH2 0x4AA0 JUMP JUMPDEST SWAP5 POP POP PUSH1 0x20 DUP6 ADD CALLDATALOAD PUSH1 0x1 PUSH1 0x1 PUSH1 0x40 SHL SUB DUP2 GT ISZERO PUSH2 0x5177 JUMPI PUSH0 DUP1 REVERT JUMPDEST PUSH2 0x5183 DUP8 DUP3 DUP9 ADD PUSH2 0x4B0E JUMP JUMPDEST SWAP4 POP POP PUSH1 0x40 DUP6 ADD CALLDATALOAD PUSH1 0x1 PUSH1 0x1 PUSH1 0x40 SHL SUB DUP2 GT ISZERO PUSH2 0x519E JUMPI PUSH0 DUP1 REVERT JUMPDEST PUSH2 0x51AA DUP8 DUP3 DUP9 ADD PUSH2 0x4B69 JUMP JUMPDEST SWAP3 POP POP PUSH1 0x60 DUP6 ADD CALLDATALOAD PUSH1 0x1 PUSH1 0x1 PUSH1 0x40 SHL SUB DUP2 GT ISZERO PUSH2 0x4A66 JUMPI PUSH0 DUP1 REVERT JUMPDEST PUSH1 0xFF PUSH1 0xF8 SHL DUP9 AND DUP2 MSTORE PUSH1 0xE0 PUSH1 0x20 DUP3 ADD MSTORE PUSH0 PUSH2 0x51E3 PUSH1 0xE0 DUP4 ADD DUP10 PUSH2 0x4905 JUMP JUMPDEST DUP3 DUP2 SUB PUSH1 0x40 DUP5 ADD MSTORE PUSH2 0x51F5 DUP2 DUP10 PUSH2 0x4905 JUMP JUMPDEST PUSH1 0x60 DUP5 ADD DUP9 SWAP1 MSTORE PUSH1 0x1 PUSH1 0x1 PUSH1 0xA0 SHL SUB DUP8 AND PUSH1 0x80 DUP6 ADD MSTORE PUSH1 0xA0 DUP5 ADD DUP7 SWAP1 MSTORE DUP4 DUP2 SUB PUSH1 0xC0 DUP6 ADD MSTORE SWAP1 POP PUSH2 0x5226 DUP2 DUP6 PUSH2 0x4CBD JUMP JUMPDEST SWAP11 SWAP10 POP POP POP POP POP POP POP POP POP POP JUMP JUMPDEST PUSH0 DUP1 PUSH0 DUP1 PUSH1 0x80 DUP6 DUP8 SUB SLT ISZERO PUSH2 0x5247 JUMPI PUSH0 DUP1 REVERT JUMPDEST DUP5 CALLDATALOAD SWAP4 POP PUSH2 0x5257 PUSH1 0x20 DUP7 ADD PUSH2 0x4EB9 JUMP JUMPDEST SWAP3 POP PUSH1 0x40 DUP6 ADD CALLDATALOAD PUSH2 0x5267 DUP2 PUSH2 0x4945 JUMP JUMPDEST SWAP2 POP PUSH1 0x60 DUP6 ADD CALLDATALOAD PUSH1 0x1 PUSH1 0x1 PUSH1 0x40 SHL SUB DUP2 GT ISZERO PUSH2 0x4A66 JUMPI PUSH0 DUP1 REVERT JUMPDEST PUSH0 DUP1 PUSH0 PUSH1 0x60 DUP5 DUP7 SUB SLT ISZERO PUSH2 0x5293 JUMPI PUSH0 DUP1 REVERT JUMPDEST DUP4 CALLDATALOAD PUSH2 0x529E DUP2 PUSH2 0x4945 JUMP JUMPDEST SWAP3 POP PUSH1 0x20 DUP5 ADD CALLDATALOAD SWAP2 POP PUSH1 0x40 DUP5 ADD CALLDATALOAD PUSH1 0x1 PUSH1 0x1 PUSH1 0x40 SHL SUB DUP2 GT ISZERO PUSH2 0x52BF JUMPI PUSH0 DUP1 REVERT JUMPDEST PUSH2 0x52CB DUP7 DUP3 DUP8 ADD PUSH2 0x49C3 JUMP JUMPDEST SWAP2 POP POP SWAP3 POP SWAP3 POP SWAP3 JUMP JUMPDEST PUSH0 DUP1 PUSH0 DUP1 PUSH0 PUSH1 0xA0 DUP7 DUP9 SUB SLT ISZERO PUSH2 0x52E9 JUMPI PUSH0 DUP1 REVERT JUMPDEST DUP6 CALLDATALOAD PUSH2 0x52F4 DUP2 PUSH2 0x4945 JUMP JUMPDEST SWAP5 POP PUSH1 0x20 DUP7 ADD CALLDATALOAD PUSH2 0x5304 DUP2 PUSH2 0x4945 JUMP JUMPDEST SWAP4 POP PUSH1 0x40 DUP7 ADD CALLDATALOAD PUSH1 0x1 PUSH1 0x1 PUSH1 0x40 SHL SUB DUP2 GT ISZERO PUSH2 0x531E JUMPI PUSH0 DUP1 REVERT JUMPDEST PUSH2 0x532A DUP9 DUP3 DUP10 ADD PUSH2 0x4B0E JUMP JUMPDEST SWAP4 POP POP PUSH1 0x60 DUP7 ADD CALLDATALOAD PUSH1 0x1 PUSH1 0x1 PUSH1 0x40 SHL SUB DUP2 GT ISZERO PUSH2 0x5345 JUMPI PUSH0 DUP1 REVERT JUMPDEST PUSH2 0x5351 DUP9 DUP3 DUP10 ADD PUSH2 0x4B0E JUMP JUMPDEST SWAP3 POP POP PUSH1 0x80 DUP7 ADD CALLDATALOAD PUSH1 0x1 PUSH1 0x1 PUSH1 0x40 SHL SUB DUP2 GT ISZERO PUSH2 0x505B JUMPI PUSH0 DUP1 REVERT JUMPDEST PUSH0 DUP1 PUSH0 PUSH1 0x60 DUP5 DUP7 SUB SLT ISZERO PUSH2 0x537E JUMPI PUSH0 DUP1 REVERT JUMPDEST DUP4 CALLDATALOAD PUSH2 0x5389 DUP2 PUSH2 0x4945 JUMP JUMPDEST SWAP3 POP PUSH1 0x20 DUP5 ADD CALLDATALOAD PUSH2 0x5399 DUP2 PUSH2 0x4945 JUMP JUMPDEST SWAP2 POP PUSH1 0x40 DUP5 ADD CALLDATALOAD PUSH2 0x53A9 DUP2 PUSH2 0x4945 JUMP JUMPDEST DUP1 SWAP2 POP POP SWAP3 POP SWAP3 POP SWAP3 JUMP JUMPDEST PUSH0 DUP1 PUSH0 DUP1 PUSH1 0x60 DUP6 DUP8 SUB SLT ISZERO PUSH2 0x53C7 JUMPI PUSH0 DUP1 REVERT JUMPDEST DUP5 CALLDATALOAD PUSH2 0x53D2 DUP2 PUSH2 0x4945 JUMP JUMPDEST SWAP4 POP PUSH1 0x20 DUP6 ADD CALLDATALOAD SWAP3 POP PUSH1 0x40 DUP6 ADD CALLDATALOAD PUSH1 0x1 PUSH1 0x1 PUSH1 0x40 SHL SUB DUP2 GT ISZERO PUSH2 0x50DF JUMPI PUSH0 DUP1 REVERT JUMPDEST PUSH0 DUP1 PUSH1 0x40 DUP4 DUP6 SUB SLT ISZERO PUSH2 0x5404 JUMPI PUSH0 DUP1 REVERT JUMPDEST DUP3 CALLDATALOAD PUSH2 0x540F DUP2 PUSH2 0x4945 JUMP JUMPDEST SWAP5 PUSH1 0x20 SWAP4 SWAP1 SWAP4 ADD CALLDATALOAD SWAP4 POP POP POP JUMP JUMPDEST PUSH0 PUSH1 0x20 DUP3 DUP5 SUB SLT ISZERO PUSH2 0x542D JUMPI PUSH0 DUP1 REVERT JUMPDEST DUP2 CALLDATALOAD PUSH4 0xFFFFFFFF DUP2 AND DUP2 EQ PUSH2 0x1CF3 JUMPI PUSH0 DUP1 REVERT JUMPDEST PUSH0 DUP1 PUSH0 DUP1 PUSH0 PUSH1 0xA0 DUP7 DUP9 SUB SLT ISZERO PUSH2 0x5454 JUMPI PUSH0 DUP1 REVERT JUMPDEST DUP6 CALLDATALOAD PUSH2 0x545F DUP2 PUSH2 0x4945 JUMP JUMPDEST SWAP5 POP PUSH1 0x20 DUP7 ADD CALLDATALOAD PUSH2 0x546F DUP2 PUSH2 0x4945 JUMP JUMPDEST SWAP4 POP PUSH1 0x40 DUP7 ADD CALLDATALOAD SWAP3 POP PUSH1 0x60 DUP7 ADD CALLDATALOAD SWAP2 POP PUSH1 0x80 DUP7 ADD CALLDATALOAD PUSH1 0x1 PUSH1 0x1 PUSH1 0x40 SHL SUB DUP2 GT ISZERO PUSH2 0x505B JUMPI PUSH0 DUP1 REVERT JUMPDEST PUSH1 0x1 DUP2 DUP2 SHR SWAP1 DUP3 AND DUP1 PUSH2 0x54AB JUMPI PUSH1 0x7F DUP3 AND SWAP2 POP JUMPDEST PUSH1 0x20 DUP3 LT DUP2 SUB PUSH2 0x54C9 JUMPI PUSH4 0x4E487B71 PUSH1 0xE0 SHL PUSH0 MSTORE PUSH1 0x22 PUSH1 0x4 MSTORE PUSH1 0x24 PUSH0 REVERT JUMPDEST POP SWAP2 SWAP1 POP JUMP JUMPDEST PUSH4 0x4E487B71 PUSH1 0xE0 SHL PUSH0 MSTORE PUSH1 0x32 PUSH1 0x4 MSTORE PUSH1 0x24 PUSH0 REVERT JUMPDEST PUSH0 PUSH1 0x20 DUP3 DUP5 SUB SLT ISZERO PUSH2 0x54F3 JUMPI PUSH0 DUP1 REVERT JUMPDEST DUP2 MLOAD PUSH1 0x1 PUSH1 0x1 PUSH1 0x40 SHL SUB DUP2 GT ISZERO PUSH2 0x5508 JUMPI PUSH0 DUP1 REVERT JUMPDEST DUP3 ADD PUSH1 0x1F DUP2 ADD DUP5 SGT PUSH2 0x5518 JUMPI PUSH0 DUP1 REVERT JUMPDEST DUP1 MLOAD PUSH2 0x5526 PUSH2 0x49E5 DUP3 PUSH2 0x499D JUMP JUMPDEST DUP2 DUP2 MSTORE DUP6 PUSH1 0x20 DUP4 DUP6 ADD ADD GT ISZERO PUSH2 0x553A JUMPI PUSH0 DUP1 REVERT JUMPDEST DUP2 PUSH1 0x20 DUP5 ADD PUSH1 0x20 DUP4 ADD MCOPY PUSH0 SWAP2 DUP2 ADD PUSH1 0x20 ADD SWAP2 SWAP1 SWAP2 MSTORE SWAP5 SWAP4 POP POP POP POP JUMP JUMPDEST DUP2 DUP4 DUP3 CALLDATACOPY PUSH0 SWAP2 ADD SWAP1 DUP2 MSTORE SWAP2 SWAP1 POP JUMP JUMPDEST PUSH4 0x4E487B71 PUSH1 0xE0 SHL PUSH0 MSTORE PUSH1 0x11 PUSH1 0x4 MSTORE PUSH1 0x24 PUSH0 REVERT JUMPDEST DUP2 DUP2 SUB DUP2 DUP2 GT ISZERO PUSH2 0xDF5 JUMPI PUSH2 0xDF5 PUSH2 0x5566 JUMP JUMPDEST PUSH6 0xFFFFFFFFFFFF DUP3 DUP2 AND DUP3 DUP3 AND SUB SWAP1 DUP2 GT ISZERO PUSH2 0xDF5 JUMPI PUSH2 0xDF5 PUSH2 0x5566 JUMP JUMPDEST PUSH0 PUSH1 0x20 DUP3 DUP5 SUB SLT ISZERO PUSH2 0x55BB JUMPI PUSH0 DUP1 REVERT JUMPDEST DUP2 MLOAD PUSH2 0x1CF3 DUP2 PUSH2 0x5074 JUMP JUMPDEST PUSH6 0xFFFFFFFFFFFF DUP2 DUP2 AND DUP4 DUP3 AND ADD SWAP1 DUP2 GT ISZERO PUSH2 0xDF5 JUMPI PUSH2 0xDF5 PUSH2 0x5566 JUMP JUMPDEST DUP4 DUP2 MSTORE PUSH1 0x60 DUP2 ADD PUSH2 0x55F8 PUSH1 0x20 DUP4 ADD DUP6 PUSH2 0x4E11 JUMP JUMPDEST DUP3 PUSH1 0x40 DUP4 ADD MSTORE SWAP5 SWAP4 POP POP POP POP JUMP JUMPDEST PUSH0 PUSH1 0x20 DUP3 DUP5 SUB SLT ISZERO PUSH2 0x5616 JUMPI PUSH0 DUP1 REVERT JUMPDEST DUP2 MLOAD DUP1 ISZERO ISZERO DUP2 EQ PUSH2 0x1CF3 JUMPI PUSH0 DUP1 REVERT JUMPDEST PUSH0 PUSH1 0x20 DUP3 DUP5 SUB SLT ISZERO PUSH2 0x5635 JUMPI PUSH0 DUP1 REVERT JUMPDEST POP MLOAD SWAP2 SWAP1 POP JUMP JUMPDEST DUP5 DUP2 MSTORE PUSH1 0xFF DUP5 AND PUSH1 0x20 DUP3 ADD MSTORE DUP3 PUSH1 0x40 DUP3 ADD MSTORE PUSH1 0x80 PUSH1 0x60 DUP3 ADD MSTORE PUSH0 PUSH2 0x1663 PUSH1 0x80 DUP4 ADD DUP5 PUSH2 0x4905 JUMP JUMPDEST DUP6 DUP2 MSTORE PUSH1 0xFF DUP6 AND PUSH1 0x20 DUP3 ADD MSTORE DUP4 PUSH1 0x40 DUP3 ADD MSTORE PUSH1 0xA0 PUSH1 0x60 DUP3 ADD MSTORE PUSH0 PUSH2 0x568A PUSH1 0xA0 DUP4 ADD DUP6 PUSH2 0x4905 JUMP JUMPDEST DUP3 DUP2 SUB PUSH1 0x80 DUP5 ADD MSTORE PUSH2 0x1ACC DUP2 DUP6 PUSH2 0x4905 JUMP JUMPDEST DUP1 DUP3 ADD DUP1 DUP3 GT ISZERO PUSH2 0xDF5 JUMPI PUSH2 0xDF5 PUSH2 0x5566 JUMP JUMPDEST DUP1 DUP3 MUL DUP2 ISZERO DUP3 DUP3 DIV DUP5 EQ OR PUSH2 0xDF5 JUMPI PUSH2 0xDF5 PUSH2 0x5566 JUMP JUMPDEST PUSH4 0x4E487B71 PUSH1 0xE0 SHL PUSH0 MSTORE PUSH1 0x12 PUSH1 0x4 MSTORE PUSH1 0x24 PUSH0 REVERT JUMPDEST PUSH0 DUP3 PUSH2 0x56F4 JUMPI PUSH4 0x4E487B71 PUSH1 0xE0 SHL PUSH0 MSTORE PUSH1 0x12 PUSH1 0x4 MSTORE PUSH1 0x24 PUSH0 REVERT JUMPDEST POP DIV SWAP1 JUMP JUMPDEST PUSH1 0xA0 DUP2 MSTORE PUSH0 PUSH2 0x570B PUSH1 0xA0 DUP4 ADD DUP9 PUSH2 0x4C7A JUMP JUMPDEST DUP3 DUP2 SUB PUSH1 0x20 DUP5 ADD MSTORE PUSH2 0x571D DUP2 DUP9 PUSH2 0x4CBD JUMP JUMPDEST SWAP1 POP DUP3 DUP2 SUB PUSH1 0x40 DUP5 ADD MSTORE PUSH2 0x5731 DUP2 DUP8 PUSH2 0x4CED JUMP JUMPDEST PUSH1 0x60 DUP5 ADD SWAP6 SWAP1 SWAP6 MSTORE POP POP PUSH1 0x80 ADD MSTORE SWAP4 SWAP3 POP POP POP JUMP JUMPDEST PUSH1 0xC0 DUP2 MSTORE PUSH0 PUSH2 0x5758 PUSH1 0xC0 DUP4 ADD DUP10 PUSH2 0x4C7A JUMP JUMPDEST DUP3 DUP2 SUB PUSH1 0x20 DUP5 ADD MSTORE PUSH2 0x576A DUP2 DUP10 PUSH2 0x4CBD JUMP JUMPDEST SWAP1 POP DUP3 DUP2 SUB PUSH1 0x40 DUP5 ADD MSTORE PUSH2 0x577E DUP2 DUP9 PUSH2 0x4CED JUMP JUMPDEST PUSH1 0x60 DUP5 ADD SWAP7 SWAP1 SWAP7 MSTORE POP POP PUSH1 0x80 DUP2 ADD SWAP3 SWAP1 SWAP3 MSTORE PUSH1 0xA0 SWAP1 SWAP2 ADD MSTORE SWAP4 SWAP3 POP POP POP JUMP JUMPDEST DUP3 DUP2 MSTORE PUSH1 0x40 PUSH1 0x20 DUP3 ADD MSTORE PUSH0 PUSH2 0x1CF0 PUSH1 0x40 DUP4 ADD DUP5 PUSH2 0x4905 JUMP JUMPDEST PUSH0 DUP3 MLOAD DUP1 PUSH1 0x20 DUP6 ADD DUP5 MCOPY PUSH0 SWAP3 ADD SWAP2 DUP3 MSTORE POP SWAP2 SWAP1 POP JUMP JUMPDEST PUSH1 0x1F DUP3 GT ISZERO PUSH2 0x2063 JUMPI DUP1 PUSH0 MSTORE PUSH1 0x20 PUSH0 KECCAK256 PUSH1 0x1F DUP5 ADD PUSH1 0x5 SHR DUP2 ADD PUSH1 0x20 DUP6 LT ISZERO PUSH2 0x57F0 JUMPI POP DUP1 JUMPDEST PUSH1 0x1F DUP5 ADD PUSH1 0x5 SHR DUP3 ADD SWAP2 POP JUMPDEST DUP2 DUP2 LT ISZERO PUSH2 0x272C JUMPI PUSH0 DUP2 SSTORE PUSH1 0x1 ADD PUSH2 0x57FC JUMP JUMPDEST DUP2 MLOAD PUSH1 0x1 PUSH1 0x1 PUSH1 0x40 SHL SUB DUP2 GT ISZERO PUSH2 0x5828 JUMPI PUSH2 0x5828 PUSH2 0x4959 JUMP JUMPDEST PUSH2 0x583C DUP2 PUSH2 0x5836 DUP5 SLOAD PUSH2 0x5497 JUMP JUMPDEST DUP5 PUSH2 0x57CB JUMP JUMPDEST PUSH1 0x20 PUSH1 0x1F DUP3 GT PUSH1 0x1 DUP2 EQ PUSH2 0x586E JUMPI PUSH0 DUP4 ISZERO PUSH2 0x5857 JUMPI POP DUP5 DUP3 ADD MLOAD JUMPDEST PUSH0 NOT PUSH1 0x3 DUP6 SWAP1 SHL SHR NOT AND PUSH1 0x1 DUP5 SWAP1 SHL OR DUP5 SSTORE PUSH2 0x272C JUMP JUMPDEST PUSH0 DUP5 DUP2 MSTORE PUSH1 0x20 DUP2 KECCAK256 PUSH1 0x1F NOT DUP6 AND SWAP2 JUMPDEST DUP3 DUP2 LT ISZERO PUSH2 0x589D JUMPI DUP8 DUP6 ADD MLOAD DUP3 SSTORE PUSH1 0x20 SWAP5 DUP6 ADD SWAP5 PUSH1 0x1 SWAP1 SWAP3 ADD SWAP2 ADD PUSH2 0x587D JUMP JUMPDEST POP DUP5 DUP3 LT ISZERO PUSH2 0x58BA JUMPI DUP7 DUP5 ADD MLOAD PUSH0 NOT PUSH1 0x3 DUP8 SWAP1 SHL PUSH1 0xF8 AND SHR NOT AND DUP2 SSTORE JUMPDEST POP POP POP POP PUSH1 0x1 SWAP1 DUP2 SHL ADD SWAP1 SSTORE POP JUMP JUMPDEST PUSH1 0xFF DUP2 DUP2 AND DUP4 DUP3 AND ADD SWAP1 DUP2 GT ISZERO PUSH2 0xDF5 JUMPI PUSH2 0xDF5 PUSH2 0x5566 JUMP JUMPDEST PUSH1 0x1 DUP2 JUMPDEST PUSH1 0x1 DUP5 GT ISZERO PUSH2 0x33BC JUMPI DUP1 DUP6 DIV DUP2 GT ISZERO PUSH2 0x5901 JUMPI PUSH2 0x5901 PUSH2 0x5566 JUMP JUMPDEST PUSH1 0x1 DUP5 AND ISZERO PUSH2 0x590F JUMPI SWAP1 DUP2 MUL SWAP1 JUMPDEST PUSH1 0x1 SWAP4 SWAP1 SWAP4 SHR SWAP3 DUP1 MUL PUSH2 0x58E6 JUMP JUMPDEST PUSH0 DUP3 PUSH2 0x592B JUMPI POP PUSH1 0x1 PUSH2 0xDF5 JUMP JUMPDEST DUP2 PUSH2 0x5937 JUMPI POP PUSH0 PUSH2 0xDF5 JUMP JUMPDEST DUP2 PUSH1 0x1 DUP2 EQ PUSH2 0x594D JUMPI PUSH1 0x2 DUP2 EQ PUSH2 0x5957 JUMPI PUSH2 0x5973 JUMP JUMPDEST PUSH1 0x1 SWAP2 POP POP PUSH2 0xDF5 JUMP JUMPDEST PUSH1 0xFF DUP5 GT ISZERO PUSH2 0x5968 JUMPI PUSH2 0x5968 PUSH2 0x5566 JUMP JUMPDEST POP POP PUSH1 0x1 DUP3 SHL PUSH2 0xDF5 JUMP JUMPDEST POP PUSH1 0x20 DUP4 LT PUSH2 0x133 DUP4 LT AND PUSH1 0x4E DUP5 LT PUSH1 0xB DUP5 LT AND OR ISZERO PUSH2 0x5996 JUMPI POP DUP2 DUP2 EXP PUSH2 0xDF5 JUMP JUMPDEST PUSH2 0x59A2 PUSH0 NOT DUP5 DUP5 PUSH2 0x58E2 JUMP JUMPDEST DUP1 PUSH0 NOT DIV DUP3 GT ISZERO PUSH2 0x59B5 JUMPI PUSH2 0x59B5 PUSH2 0x5566 JUMP JUMPDEST MUL SWAP4 SWAP3 POP POP POP JUMP JUMPDEST PUSH0 PUSH2 0x1CF3 PUSH1 0xFF DUP5 AND DUP4 PUSH2 0x591D JUMP JUMPDEST DUP10 DUP2 MSTORE PUSH1 0x1 PUSH1 0x1 PUSH1 0xA0 SHL SUB DUP10 AND PUSH1 0x20 DUP3 ADD MSTORE PUSH2 0x120 PUSH1 0x40 DUP3 ADD DUP2 SWAP1 MSTORE PUSH0 SWAP1 PUSH2 0x59F5 SWAP1 DUP4 ADD DUP11 PUSH2 0x4C7A JUMP JUMPDEST DUP3 DUP2 SUB PUSH1 0x60 DUP5 ADD MSTORE PUSH2 0x5A07 DUP2 DUP11 PUSH2 0x4CBD JUMP JUMPDEST SWAP1 POP DUP3 DUP2 SUB PUSH1 0x80 DUP5 ADD MSTORE DUP1 DUP9 MLOAD DUP1 DUP4 MSTORE PUSH1 0x20 DUP4 ADD SWAP2 POP PUSH1 0x20 DUP2 PUSH1 0x5 SHL DUP5 ADD ADD PUSH1 0x20 DUP12 ADD PUSH0 JUMPDEST DUP4 DUP2 LT ISZERO PUSH2 0x5A5E JUMPI PUSH1 0x1F NOT DUP7 DUP5 SUB ADD DUP6 MSTORE PUSH2 0x5A48 DUP4 DUP4 MLOAD PUSH2 0x4905 JUMP JUMPDEST PUSH1 0x20 SWAP6 DUP7 ADD SWAP6 SWAP1 SWAP4 POP SWAP2 SWAP1 SWAP2 ADD SWAP1 PUSH1 0x1 ADD PUSH2 0x5A2C JUMP JUMPDEST POP POP DUP6 DUP2 SUB PUSH1 0xA0 DUP8 ADD MSTORE PUSH2 0x5A72 DUP2 DUP12 PUSH2 0x4CED JUMP JUMPDEST SWAP4 POP POP POP POP DUP6 PUSH1 0xC0 DUP5 ADD MSTORE DUP5 PUSH1 0xE0 DUP5 ADD MSTORE DUP3 DUP2 SUB PUSH2 0x100 DUP5 ADD MSTORE PUSH2 0x5A96 DUP2 DUP6 PUSH2 0x4905 JUMP JUMPDEST SWAP13 SWAP12 POP POP POP POP POP POP POP POP POP POP POP POP JUMP INVALID PUSH29 0x712897014DBE49C045EF1299AA2D5F9E67E48EEA4403EFA21F1E0F3AC0 0xCB ADD STOP 0xD7 PUSH2 0x6C8F 0xE2 SWAP13 PUSH13 0x2FBE1D0C5BC8F2FAA4C35B4374 PUSH15 0x70B24B4D532752AFFD014372797074 PUSH16 0x51756573745F5468655368617264734F PUSH7 0x47656E65736973 PREVRANDAO COINBASE 0x4F PUSH32 0xD223D3380145BD26132714391E777C488A0DF7AC2DD4B66419D8549FB3A600A1 PUSH11 0x46D94261C7517CC8FF89F6 SHR 0xC 0xE9 CALLDATALOAD SWAP9 0xE3 0xC8 BLOBHASH DUP1 LT GT 0xDE 0xE6 BLOBHASH 0xA6 0xA5 JUMPI 0xD1 STOP STOP 0xD7 PUSH2 0x6C8F 0xE2 SWAP13 PUSH13 0x2FBE1D0C5BC8F2FAA4C35B4374 PUSH15 0x70B24B4D532752AFFD00360894A13B LOG1 LOG3 0x21 MOD PUSH8 0xC828492DB98DCA3E KECCAK256 PUSH23 0xCC3735A920A3CA505D382BBCA1CEFA0F43667EF127A258 0xE6 PUSH20 0xC94202A79B656E62899531C4376D87A7F398000D PC 0x29 PUSH25 0x7B8BEFDBC6044EF7457D8A95C2A04BC99235349F1A212C063E MSIZE 0xD4 STOP PUSH29 0x712897014DBE49C045EF1299AA2D5F9E67E48EEA4403EFA21F1E0F3AC0 0xCB STOP LOG2 PUSH5 0x6970667358 0x22 SLT KECCAK256 0x4B 0xDA SWAP2 PUSH18 0x77A06362236DF798C1ACB3030EF5DE1D91E5 0xBD 0x27 SWAP16 0x2D 0xA8 DUP7 PUSH28 0x9526EB64736F6C634300081A00330000000000000000000000000000 "
		},
		"gasEstimates": {
			"creation": {
				"codeDepositCost": "4716200",
				"executionCost": "infinite",
				"totalCost": "infinite"
			},
			"external": {
				"BALLOT_TYPEHASH()": "305",
				"CLOCK_MODE()": "infinite",
				"COUNTING_MODE()": "infinite",
				"EXTENDED_BALLOT_TYPEHASH()": "329",
				"UPGRADE_INTERFACE_VERSION()": "infinite",
				"allocateTreasuryFunds(address,uint256)": "infinite",
				"awardCouncilSeat(address)": "infinite",
				"cancel(address[],uint256[],bytes[],bytes32)": "infinite",
				"cancel(uint256)": "infinite",
				"castVote(uint256,uint8)": "infinite",
				"castVoteBySig(uint256,uint8,address,bytes)": "infinite",
				"castVoteWithReason(uint256,uint8,string)": "infinite",
				"castVoteWithReasonAndParams(uint256,uint8,string,bytes)": "infinite",
				"castVoteWithReasonAndParamsBySig(uint256,uint8,address,string,bytes,bytes)": "infinite",
				"clock()": "infinite",
				"eip712Domain()": "infinite",
				"execute(address[],uint256[],bytes[],bytes32)": "infinite",
				"execute(uint256)": "infinite",
				"getVotes(address,uint256)": "infinite",
				"getVotesWithParams(address,uint256,bytes)": "infinite",
				"hasVoted(uint256,address)": "infinite",
				"hashProposal(address[],uint256[],bytes[],bytes32)": "infinite",
				"initialize(address,address,address)": "infinite",
				"name()": "infinite",
				"nonces(address)": "2661",
				"onERC1155BatchReceived(address,address,uint256[],uint256[],bytes)": "infinite",
				"onERC1155Received(address,address,uint256,uint256,bytes)": "infinite",
				"onERC721Received(address,address,uint256,bytes)": "infinite",
				"owner()": "2449",
				"proposalCount()": "infinite",
				"proposalDeadline(uint256)": "infinite",
				"proposalDetails(uint256)": "infinite",
				"proposalDetailsAt(uint256)": "infinite",
				"proposalEta(uint256)": "infinite",
				"proposalNeedsQueuing(uint256)": "366",
				"proposalProposer(uint256)": "infinite",
				"proposalSnapshot(uint256)": "infinite",
				"proposalThreshold()": "infinite",
				"proposalVotes(uint256)": "infinite",
				"propose(address[],uint256[],bytes[],string)": "infinite",
				"proxiableUUID()": "infinite",
				"queue(address[],uint256[],bytes[],bytes32)": "infinite",
				"queue(uint256)": "infinite",
				"quorum(uint256)": "infinite",
				"quorumDenominator()": "259",
				"quorumNumerator()": "4810",
				"quorumNumerator(uint256)": "infinite",
				"relay(address,uint256,bytes)": "infinite",
				"renounceOwnership()": "infinite",
				"setProposalThreshold(uint256)": "infinite",
				"setVotingDelay(uint48)": "infinite",
				"setVotingPeriod(uint32)": "infinite",
				"state(uint256)": "infinite",
				"submitGameUpdateProposal(string)": "infinite",
				"submitPlayerProposal(string)": "infinite",
				"submitProposal(address[],uint256[],bytes[],string)": "infinite",
				"supportsInterface(bytes4)": "548",
				"timelock()": "infinite",
				"token()": "2501",
				"transferOwnership(address)": "infinite",
				"updateQuorumNumerator(uint256)": "infinite",
				"updateTimelock(address)": "infinite",
				"upgradeToAndCall(address,bytes)": "infinite",
				"version()": "infinite",
				"viewGameMetrics()": "infinite",
				"viewTreasuryReport()": "infinite",
				"votingDelay()": "infinite",
				"votingPeriod()": "infinite"
			},
			"internal": {
				"_authorizeUpgrade(address)": "infinite",
				"_cancel(address[] memory,uint256[] memory,bytes memory[] memory,bytes32)": "infinite",
				"_executeOperations(uint256,address[] memory,uint256[] memory,bytes memory[] memory,bytes32)": "infinite",
				"_executor()": "2226",
				"_propose(address[] memory,uint256[] memory,bytes memory[] memory,string memory,address)": "infinite",
				"_queueOperations(uint256,address[] memory,uint256[] memory,bytes memory[] memory,bytes32)": "infinite"
			}
		},
		"methodIdentifiers": {
			"BALLOT_TYPEHASH()": "deaaa7cc",
			"CLOCK_MODE()": "4bf5d7e9",
			"COUNTING_MODE()": "dd4e2ba5",
			"EXTENDED_BALLOT_TYPEHASH()": "2fe3e261",
			"UPGRADE_INTERFACE_VERSION()": "ad3cb1cc",
			"allocateTreasuryFunds(address,uint256)": "cf7d5a42",
			"awardCouncilSeat(address)": "35853d95",
			"cancel(address[],uint256[],bytes[],bytes32)": "452115d6",
			"cancel(uint256)": "40e58ee5",
			"castVote(uint256,uint8)": "56781388",
			"castVoteBySig(uint256,uint8,address,bytes)": "8ff262e3",
			"castVoteWithReason(uint256,uint8,string)": "7b3c71d3",
			"castVoteWithReasonAndParams(uint256,uint8,string,bytes)": "5f398a14",
			"castVoteWithReasonAndParamsBySig(uint256,uint8,address,string,bytes,bytes)": "5b8d0e0d",
			"clock()": "91ddadf4",
			"eip712Domain()": "84b0196e",
			"execute(address[],uint256[],bytes[],bytes32)": "2656227d",
			"execute(uint256)": "fe0d94c1",
			"getVotes(address,uint256)": "eb9019d4",
			"getVotesWithParams(address,uint256,bytes)": "9a802a6d",
			"hasVoted(uint256,address)": "43859632",
			"hashProposal(address[],uint256[],bytes[],bytes32)": "c59057e4",
			"initialize(address,address,address)": "c0c53b8b",
			"name()": "06fdde03",
			"nonces(address)": "7ecebe00",
			"onERC1155BatchReceived(address,address,uint256[],uint256[],bytes)": "bc197c81",
			"onERC1155Received(address,address,uint256,uint256,bytes)": "f23a6e61",
			"onERC721Received(address,address,uint256,bytes)": "150b7a02",
			"owner()": "8da5cb5b",
			"proposalCount()": "da35c664",
			"proposalDeadline(uint256)": "c01f9e37",
			"proposalDetails(uint256)": "16e9eaec",
			"proposalDetailsAt(uint256)": "2e82db94",
			"proposalEta(uint256)": "ab58fb8e",
			"proposalNeedsQueuing(uint256)": "a9a95294",
			"proposalProposer(uint256)": "143489d0",
			"proposalSnapshot(uint256)": "2d63f693",
			"proposalThreshold()": "b58131b0",
			"proposalVotes(uint256)": "544ffc9c",
			"propose(address[],uint256[],bytes[],string)": "7d5e81e2",
			"proxiableUUID()": "52d1902d",
			"queue(address[],uint256[],bytes[],bytes32)": "160cbed7",
			"queue(uint256)": "ddf0b009",
			"quorum(uint256)": "f8ce560a",
			"quorumDenominator()": "97c3d334",
			"quorumNumerator()": "a7713a70",
			"quorumNumerator(uint256)": "60c4247f",
			"relay(address,uint256,bytes)": "c28bc2fa",
			"renounceOwnership()": "715018a6",
			"setProposalThreshold(uint256)": "ece40cc1",
			"setVotingDelay(uint48)": "79051887",
			"setVotingPeriod(uint32)": "e540d01d",
			"state(uint256)": "3e4f49e6",
			"submitGameUpdateProposal(string)": "7b94c53e",
			"submitPlayerProposal(string)": "f8869948",
			"submitProposal(address[],uint256[],bytes[],string)": "8a300225",
			"supportsInterface(bytes4)": "01ffc9a7",
			"timelock()": "d33219b4",
			"token()": "fc0c546a",
			"transferOwnership(address)": "f2fde38b",
			"updateQuorumNumerator(uint256)": "06f3f9e6",
			"updateTimelock(address)": "a890c910",
			"upgradeToAndCall(address,bytes)": "4f1ef286",
			"version()": "54fd4d50",
			"viewGameMetrics()": "e54584f4",
			"viewTreasuryReport()": "c7da2037",
			"votingDelay()": "3932abb1",
			"votingPeriod()": "02a251a3"
		}
	},
	"abi": [
		{
			"inputs": [],
			"stateMutability": "nonpayable",
			"type": "constructor"
		},
		{
			"inputs": [
				{
					"internalType": "address",
					"name": "target",
					"type": "address"
				}
			],
			"name": "AddressEmptyCode",
			"type": "error"
		},
		{
			"inputs": [],
			"name": "CheckpointUnorderedInsertion",
			"type": "error"
		},
		{
			"inputs": [
				{
					"internalType": "address",
					"name": "implementation",
					"type": "address"
				}
			],
			"name": "ERC1967InvalidImplementation",
			"type": "error"
		},
		{
			"inputs": [],
			"name": "ERC1967NonPayable",
			"type": "error"
		},
		{
			"inputs": [],
			"name": "FailedInnerCall",
			"type": "error"
		},
		{
			"inputs": [
				{
					"internalType": "address",
					"name": "voter",
					"type": "address"
				}
			],
			"name": "GovernorAlreadyCastVote",
			"type": "error"
		},
		{
			"inputs": [
				{
					"internalType": "uint256",
					"name": "proposalId",
					"type": "uint256"
				}
			],
			"name": "GovernorAlreadyQueuedProposal",
			"type": "error"
		},
		{
			"inputs": [],
			"name": "GovernorDisabledDeposit",
			"type": "error"
		},
		{
			"inputs": [
				{
					"internalType": "address",
					"name": "proposer",
					"type": "address"
				},
				{
					"internalType": "uint256",
					"name": "votes",
					"type": "uint256"
				},
				{
					"internalType": "uint256",
					"name": "threshold",
					"type": "uint256"
				}
			],
			"name": "GovernorInsufficientProposerVotes",
			"type": "error"
		},
		{
			"inputs": [
				{
					"internalType": "uint256",
					"name": "targets",
					"type": "uint256"
				},
				{
					"internalType": "uint256",
					"name": "calldatas",
					"type": "uint256"
				},
				{
					"internalType": "uint256",
					"name": "values",
					"type": "uint256"
				}
			],
			"name": "GovernorInvalidProposalLength",
			"type": "error"
		},
		{
			"inputs": [
				{
					"internalType": "uint256",
					"name": "quorumNumerator",
					"type": "uint256"
				},
				{
					"internalType": "uint256",
					"name": "quorumDenominator",
					"type": "uint256"
				}
			],
			"name": "GovernorInvalidQuorumFraction",
			"type": "error"
		},
		{
			"inputs": [
				{
					"internalType": "address",
					"name": "voter",
					"type": "address"
				}
			],
			"name": "GovernorInvalidSignature",
			"type": "error"
		},
		{
			"inputs": [],
			"name": "GovernorInvalidVoteType",
			"type": "error"
		},
		{
			"inputs": [
				{
					"internalType": "uint256",
					"name": "votingPeriod",
					"type": "uint256"
				}
			],
			"name": "GovernorInvalidVotingPeriod",
			"type": "error"
		},
		{
			"inputs": [
				{
					"internalType": "uint256",
					"name": "proposalId",
					"type": "uint256"
				}
			],
			"name": "GovernorNonexistentProposal",
			"type": "error"
		},
		{
			"inputs": [
				{
					"internalType": "uint256",
					"name": "proposalId",
					"type": "uint256"
				}
			],
			"name": "GovernorNotQueuedProposal",
			"type": "error"
		},
		{
			"inputs": [
				{
					"internalType": "address",
					"name": "account",
					"type": "address"
				}
			],
			"name": "GovernorOnlyExecutor",
			"type": "error"
		},
		{
			"inputs": [
				{
					"internalType": "address",
					"name": "account",
					"type": "address"
				}
			],
			"name": "GovernorOnlyProposer",
			"type": "error"
		},
		{
			"inputs": [],
			"name": "GovernorQueueNotImplemented",
			"type": "error"
		},
		{
			"inputs": [
				{
					"internalType": "address",
					"name": "proposer",
					"type": "address"
				}
			],
			"name": "GovernorRestrictedProposer",
			"type": "error"
		},
		{
			"inputs": [
				{
					"internalType": "uint256",
					"name": "proposalId",
					"type": "uint256"
				},
				{
					"internalType": "enum IGovernor.ProposalState",
					"name": "current",
					"type": "uint8"
				},
				{
					"internalType": "bytes32",
					"name": "expectedStates",
					"type": "bytes32"
				}
			],
			"name": "GovernorUnexpectedProposalState",
			"type": "error"
		},
		{
			"inputs": [
				{
					"internalType": "address",
					"name": "account",
					"type": "address"
				},
				{
					"internalType": "uint256",
					"name": "currentNonce",
					"type": "uint256"
				}
			],
			"name": "InvalidAccountNonce",
			"type": "error"
		},
		{
			"inputs": [],
			"name": "InvalidInitialization",
			"type": "error"
		},
		{
			"inputs": [],
			"name": "NotInitializing",
			"type": "error"
		},
		{
			"inputs": [
				{
					"internalType": "address",
					"name": "owner",
					"type": "address"
				}
			],
			"name": "OwnableInvalidOwner",
			"type": "error"
		},
		{
			"inputs": [
				{
					"internalType": "address",
					"name": "account",
					"type": "address"
				}
			],
			"name": "OwnableUnauthorizedAccount",
			"type": "error"
		},
		{
			"inputs": [],
			"name": "QueueEmpty",
			"type": "error"
		},
		{
			"inputs": [],
			"name": "QueueFull",
			"type": "error"
		},
		{
			"inputs": [
				{
					"internalType": "uint8",
					"name": "bits",
					"type": "uint8"
				},
				{
					"internalType": "uint256",
					"name": "value",
					"type": "uint256"
				}
			],
			"name": "SafeCastOverflowedUintDowncast",
			"type": "error"
		},
		{
			"inputs": [],
			"name": "UUPSUnauthorizedCallContext",
			"type": "error"
		},
		{
			"inputs": [
				{
					"internalType": "bytes32",
					"name": "slot",
					"type": "bytes32"
				}
			],
			"name": "UUPSUnsupportedProxiableUUID",
			"type": "error"
		},
		{
			"anonymous": false,
			"inputs": [],
			"name": "EIP712DomainChanged",
			"type": "event"
		},
		{
			"anonymous": false,
			"inputs": [
				{
					"indexed": false,
					"internalType": "uint64",
					"name": "version",
					"type": "uint64"
				}
			],
			"name": "Initialized",
			"type": "event"
		},
		{
			"anonymous": false,
			"inputs": [
				{
					"indexed": true,
					"internalType": "address",
					"name": "previousOwner",
					"type": "address"
				},
				{
					"indexed": true,
					"internalType": "address",
					"name": "newOwner",
					"type": "address"
				}
			],
			"name": "OwnershipTransferred",
			"type": "event"
		},
		{
			"anonymous": false,
			"inputs": [
				{
					"indexed": false,
					"internalType": "uint256",
					"name": "proposalId",
					"type": "uint256"
				}
			],
			"name": "ProposalCanceled",
			"type": "event"
		},
		{
			"anonymous": false,
			"inputs": [
				{
					"indexed": false,
					"internalType": "uint256",
					"name": "proposalId",
					"type": "uint256"
				},
				{
					"indexed": false,
					"internalType": "address",
					"name": "proposer",
					"type": "address"
				},
				{
					"indexed": false,
					"internalType": "address[]",
					"name": "targets",
					"type": "address[]"
				},
				{
					"indexed": false,
					"internalType": "uint256[]",
					"name": "values",
					"type": "uint256[]"
				},
				{
					"indexed": false,
					"internalType": "string[]",
					"name": "signatures",
					"type": "string[]"
				},
				{
					"indexed": false,
					"internalType": "bytes[]",
					"name": "calldatas",
					"type": "bytes[]"
				},
				{
					"indexed": false,
					"internalType": "uint256",
					"name": "voteStart",
					"type": "uint256"
				},
				{
					"indexed": false,
					"internalType": "uint256",
					"name": "voteEnd",
					"type": "uint256"
				},
				{
					"indexed": false,
					"internalType": "string",
					"name": "description",
					"type": "string"
				}
			],
			"name": "ProposalCreated",
			"type": "event"
		},
		{
			"anonymous": false,
			"inputs": [
				{
					"indexed": false,
					"internalType": "uint256",
					"name": "proposalId",
					"type": "uint256"
				}
			],
			"name": "ProposalExecuted",
			"type": "event"
		},
		{
			"anonymous": false,
			"inputs": [
				{
					"indexed": false,
					"internalType": "uint256",
					"name": "proposalId",
					"type": "uint256"
				},
				{
					"indexed": false,
					"internalType": "uint256",
					"name": "etaSeconds",
					"type": "uint256"
				}
			],
			"name": "ProposalQueued",
			"type": "event"
		},
		{
			"anonymous": false,
			"inputs": [
				{
					"indexed": false,
					"internalType": "uint256",
					"name": "oldProposalThreshold",
					"type": "uint256"
				},
				{
					"indexed": false,
					"internalType": "uint256",
					"name": "newProposalThreshold",
					"type": "uint256"
				}
			],
			"name": "ProposalThresholdSet",
			"type": "event"
		},
		{
			"anonymous": false,
			"inputs": [
				{
					"indexed": false,
					"internalType": "uint256",
					"name": "oldQuorumNumerator",
					"type": "uint256"
				},
				{
					"indexed": false,
					"internalType": "uint256",
					"name": "newQuorumNumerator",
					"type": "uint256"
				}
			],
			"name": "QuorumNumeratorUpdated",
			"type": "event"
		},
		{
			"anonymous": false,
			"inputs": [
				{
					"indexed": false,
					"internalType": "address",
					"name": "oldTimelock",
					"type": "address"
				},
				{
					"indexed": false,
					"internalType": "address",
					"name": "newTimelock",
					"type": "address"
				}
			],
			"name": "TimelockChange",
			"type": "event"
		},
		{
			"anonymous": false,
			"inputs": [
				{
					"indexed": true,
					"internalType": "address",
					"name": "implementation",
					"type": "address"
				}
			],
			"name": "Upgraded",
			"type": "event"
		},
		{
			"anonymous": false,
			"inputs": [
				{
					"indexed": true,
					"internalType": "address",
					"name": "voter",
					"type": "address"
				},
				{
					"indexed": false,
					"internalType": "uint256",
					"name": "proposalId",
					"type": "uint256"
				},
				{
					"indexed": false,
					"internalType": "uint8",
					"name": "support",
					"type": "uint8"
				},
				{
					"indexed": false,
					"internalType": "uint256",
					"name": "weight",
					"type": "uint256"
				},
				{
					"indexed": false,
					"internalType": "string",
					"name": "reason",
					"type": "string"
				}
			],
			"name": "VoteCast",
			"type": "event"
		},
		{
			"anonymous": false,
			"inputs": [
				{
					"indexed": true,
					"internalType": "address",
					"name": "voter",
					"type": "address"
				},
				{
					"indexed": false,
					"internalType": "uint256",
					"name": "proposalId",
					"type": "uint256"
				},
				{
					"indexed": false,
					"internalType": "uint8",
					"name": "support",
					"type": "uint8"
				},
				{
					"indexed": false,
					"internalType": "uint256",
					"name": "weight",
					"type": "uint256"
				},
				{
					"indexed": false,
					"internalType": "string",
					"name": "reason",
					"type": "string"
				},
				{
					"indexed": false,
					"internalType": "bytes",
					"name": "params",
					"type": "bytes"
				}
			],
			"name": "VoteCastWithParams",
			"type": "event"
		},
		{
			"anonymous": false,
			"inputs": [
				{
					"indexed": false,
					"internalType": "uint256",
					"name": "oldVotingDelay",
					"type": "uint256"
				},
				{
					"indexed": false,
					"internalType": "uint256",
					"name": "newVotingDelay",
					"type": "uint256"
				}
			],
			"name": "VotingDelaySet",
			"type": "event"
		},
		{
			"anonymous": false,
			"inputs": [
				{
					"indexed": false,
					"internalType": "uint256",
					"name": "oldVotingPeriod",
					"type": "uint256"
				},
				{
					"indexed": false,
					"internalType": "uint256",
					"name": "newVotingPeriod",
					"type": "uint256"
				}
			],
			"name": "VotingPeriodSet",
			"type": "event"
		},
		{
			"inputs": [],
			"name": "BALLOT_TYPEHASH",
			"outputs": [
				{
					"internalType": "bytes32",
					"name": "",
					"type": "bytes32"
				}
			],
			"stateMutability": "view",
			"type": "function"
		},
		{
			"inputs": [],
			"name": "CLOCK_MODE",
			"outputs": [
				{
					"internalType": "string",
					"name": "",
					"type": "string"
				}
			],
			"stateMutability": "view",
			"type": "function"
		},
		{
			"inputs": [],
			"name": "COUNTING_MODE",
			"outputs": [
				{
					"internalType": "string",
					"name": "",
					"type": "string"
				}
			],
			"stateMutability": "pure",
			"type": "function"
		},
		{
			"inputs": [],
			"name": "EXTENDED_BALLOT_TYPEHASH",
			"outputs": [
				{
					"internalType": "bytes32",
					"name": "",
					"type": "bytes32"
				}
			],
			"stateMutability": "view",
			"type": "function"
		},
		{
			"inputs": [],
			"name": "UPGRADE_INTERFACE_VERSION",
			"outputs": [
				{
					"internalType": "string",
					"name": "",
					"type": "string"
				}
			],
			"stateMutability": "view",
			"type": "function"
		},
		{
			"inputs": [
				{
					"internalType": "address",
					"name": "recipient",
					"type": "address"
				},
				{
					"internalType": "uint256",
					"name": "amount",
					"type": "uint256"
				}
			],
			"name": "allocateTreasuryFunds",
			"outputs": [],
			"stateMutability": "nonpayable",
			"type": "function"
		},
		{
			"inputs": [
				{
					"internalType": "address",
					"name": "account",
					"type": "address"
				}
			],
			"name": "awardCouncilSeat",
			"outputs": [],
			"stateMutability": "nonpayable",
			"type": "function"
		},
		{
			"inputs": [
				{
					"internalType": "uint256",
					"name": "proposalId",
					"type": "uint256"
				}
			],
			"name": "cancel",
			"outputs": [],
			"stateMutability": "nonpayable",
			"type": "function"
		},
		{
			"inputs": [
				{
					"internalType": "address[]",
					"name": "targets",
					"type": "address[]"
				},
				{
					"internalType": "uint256[]",
					"name": "values",
					"type": "uint256[]"
				},
				{
					"internalType": "bytes[]",
					"name": "calldatas",
					"type": "bytes[]"
				},
				{
					"internalType": "bytes32",
					"name": "descriptionHash",
					"type": "bytes32"
				}
			],
			"name": "cancel",
			"outputs": [
				{
					"internalType": "uint256",
					"name": "",
					"type": "uint256"
				}
			],
			"stateMutability": "nonpayable",
			"type": "function"
		},
		{
			"inputs": [
				{
					"internalType": "uint256",
					"name": "proposalId",
					"type": "uint256"
				},
				{
					"internalType": "uint8",
					"name": "support",
					"type": "uint8"
				}
			],
			"name": "castVote",
			"outputs": [
				{
					"internalType": "uint256",
					"name": "",
					"type": "uint256"
				}
			],
			"stateMutability": "nonpayable",
			"type": "function"
		},
		{
			"inputs": [
				{
					"internalType": "uint256",
					"name": "proposalId",
					"type": "uint256"
				},
				{
					"internalType": "uint8",
					"name": "support",
					"type": "uint8"
				},
				{
					"internalType": "address",
					"name": "voter",
					"type": "address"
				},
				{
					"internalType": "bytes",
					"name": "signature",
					"type": "bytes"
				}
			],
			"name": "castVoteBySig",
			"outputs": [
				{
					"internalType": "uint256",
					"name": "",
					"type": "uint256"
				}
			],
			"stateMutability": "nonpayable",
			"type": "function"
		},
		{
			"inputs": [
				{
					"internalType": "uint256",
					"name": "proposalId",
					"type": "uint256"
				},
				{
					"internalType": "uint8",
					"name": "support",
					"type": "uint8"
				},
				{
					"internalType": "string",
					"name": "reason",
					"type": "string"
				}
			],
			"name": "castVoteWithReason",
			"outputs": [
				{
					"internalType": "uint256",
					"name": "",
					"type": "uint256"
				}
			],
			"stateMutability": "nonpayable",
			"type": "function"
		},
		{
			"inputs": [
				{
					"internalType": "uint256",
					"name": "proposalId",
					"type": "uint256"
				},
				{
					"internalType": "uint8",
					"name": "support",
					"type": "uint8"
				},
				{
					"internalType": "string",
					"name": "reason",
					"type": "string"
				},
				{
					"internalType": "bytes",
					"name": "params",
					"type": "bytes"
				}
			],
			"name": "castVoteWithReasonAndParams",
			"outputs": [
				{
					"internalType": "uint256",
					"name": "",
					"type": "uint256"
				}
			],
			"stateMutability": "nonpayable",
			"type": "function"
		},
		{
			"inputs": [
				{
					"internalType": "uint256",
					"name": "proposalId",
					"type": "uint256"
				},
				{
					"internalType": "uint8",
					"name": "support",
					"type": "uint8"
				},
				{
					"internalType": "address",
					"name": "voter",
					"type": "address"
				},
				{
					"internalType": "string",
					"name": "reason",
					"type": "string"
				},
				{
					"internalType": "bytes",
					"name": "params",
					"type": "bytes"
				},
				{
					"internalType": "bytes",
					"name": "signature",
					"type": "bytes"
				}
			],
			"name": "castVoteWithReasonAndParamsBySig",
			"outputs": [
				{
					"internalType": "uint256",
					"name": "",
					"type": "uint256"
				}
			],
			"stateMutability": "nonpayable",
			"type": "function"
		},
		{
			"inputs": [],
			"name": "clock",
			"outputs": [
				{
					"internalType": "uint48",
					"name": "",
					"type": "uint48"
				}
			],
			"stateMutability": "view",
			"type": "function"
		},
		{
			"inputs": [],
			"name": "eip712Domain",
			"outputs": [
				{
					"internalType": "bytes1",
					"name": "fields",
					"type": "bytes1"
				},
				{
					"internalType": "string",
					"name": "name",
					"type": "string"
				},
				{
					"internalType": "string",
					"name": "version",
					"type": "string"
				},
				{
					"internalType": "uint256",
					"name": "chainId",
					"type": "uint256"
				},
				{
					"internalType": "address",
					"name": "verifyingContract",
					"type": "address"
				},
				{
					"internalType": "bytes32",
					"name": "salt",
					"type": "bytes32"
				},
				{
					"internalType": "uint256[]",
					"name": "extensions",
					"type": "uint256[]"
				}
			],
			"stateMutability": "view",
			"type": "function"
		},
		{
			"inputs": [
				{
					"internalType": "address[]",
					"name": "targets",
					"type": "address[]"
				},
				{
					"internalType": "uint256[]",
					"name": "values",
					"type": "uint256[]"
				},
				{
					"internalType": "bytes[]",
					"name": "calldatas",
					"type": "bytes[]"
				},
				{
					"internalType": "bytes32",
					"name": "descriptionHash",
					"type": "bytes32"
				}
			],
			"name": "execute",
			"outputs": [
				{
					"internalType": "uint256",
					"name": "",
					"type": "uint256"
				}
			],
			"stateMutability": "payable",
			"type": "function"
		},
		{
			"inputs": [
				{
					"internalType": "uint256",
					"name": "proposalId",
					"type": "uint256"
				}
			],
			"name": "execute",
			"outputs": [],
			"stateMutability": "payable",
			"type": "function"
		},
		{
			"inputs": [
				{
					"internalType": "address",
					"name": "account",
					"type": "address"
				},
				{
					"internalType": "uint256",
					"name": "timepoint",
					"type": "uint256"
				}
			],
			"name": "getVotes",
			"outputs": [
				{
					"internalType": "uint256",
					"name": "",
					"type": "uint256"
				}
			],
			"stateMutability": "view",
			"type": "function"
		},
		{
			"inputs": [
				{
					"internalType": "address",
					"name": "account",
					"type": "address"
				},
				{
					"internalType": "uint256",
					"name": "timepoint",
					"type": "uint256"
				},
				{
					"internalType": "bytes",
					"name": "params",
					"type": "bytes"
				}
			],
			"name": "getVotesWithParams",
			"outputs": [
				{
					"internalType": "uint256",
					"name": "",
					"type": "uint256"
				}
			],
			"stateMutability": "view",
			"type": "function"
		},
		{
			"inputs": [
				{
					"internalType": "uint256",
					"name": "proposalId",
					"type": "uint256"
				},
				{
					"internalType": "address",
					"name": "account",
					"type": "address"
				}
			],
			"name": "hasVoted",
			"outputs": [
				{
					"internalType": "bool",
					"name": "",
					"type": "bool"
				}
			],
			"stateMutability": "view",
			"type": "function"
		},
		{
			"inputs": [
				{
					"internalType": "address[]",
					"name": "targets",
					"type": "address[]"
				},
				{
					"internalType": "uint256[]",
					"name": "values",
					"type": "uint256[]"
				},
				{
					"internalType": "bytes[]",
					"name": "calldatas",
					"type": "bytes[]"
				},
				{
					"internalType": "bytes32",
					"name": "descriptionHash",
					"type": "bytes32"
				}
			],
			"name": "hashProposal",
			"outputs": [
				{
					"internalType": "uint256",
					"name": "",
					"type": "uint256"
				}
			],
			"stateMutability": "pure",
			"type": "function"
		},
		{
			"inputs": [
				{
					"internalType": "contract IVotes",
					"name": "_token",
					"type": "address"
				},
				{
					"internalType": "contract TimelockControllerUpgradeable",
					"name": "_timelock",
					"type": "address"
				},
				{
					"internalType": "address",
					"name": "initialOwner",
					"type": "address"
				}
			],
			"name": "initialize",
			"outputs": [],
			"stateMutability": "nonpayable",
			"type": "function"
		},
		{
			"inputs": [],
			"name": "name",
			"outputs": [
				{
					"internalType": "string",
					"name": "",
					"type": "string"
				}
			],
			"stateMutability": "view",
			"type": "function"
		},
		{
			"inputs": [
				{
					"internalType": "address",
					"name": "owner",
					"type": "address"
				}
			],
			"name": "nonces",
			"outputs": [
				{
					"internalType": "uint256",
					"name": "",
					"type": "uint256"
				}
			],
			"stateMutability": "view",
			"type": "function"
		},
		{
			"inputs": [
				{
					"internalType": "address",
					"name": "",
					"type": "address"
				},
				{
					"internalType": "address",
					"name": "",
					"type": "address"
				},
				{
					"internalType": "uint256[]",
					"name": "",
					"type": "uint256[]"
				},
				{
					"internalType": "uint256[]",
					"name": "",
					"type": "uint256[]"
				},
				{
					"internalType": "bytes",
					"name": "",
					"type": "bytes"
				}
			],
			"name": "onERC1155BatchReceived",
			"outputs": [
				{
					"internalType": "bytes4",
					"name": "",
					"type": "bytes4"
				}
			],
			"stateMutability": "nonpayable",
			"type": "function"
		},
		{
			"inputs": [
				{
					"internalType": "address",
					"name": "",
					"type": "address"
				},
				{
					"internalType": "address",
					"name": "",
					"type": "address"
				},
				{
					"internalType": "uint256",
					"name": "",
					"type": "uint256"
				},
				{
					"internalType": "uint256",
					"name": "",
					"type": "uint256"
				},
				{
					"internalType": "bytes",
					"name": "",
					"type": "bytes"
				}
			],
			"name": "onERC1155Received",
			"outputs": [
				{
					"internalType": "bytes4",
					"name": "",
					"type": "bytes4"
				}
			],
			"stateMutability": "nonpayable",
			"type": "function"
		},
		{
			"inputs": [
				{
					"internalType": "address",
					"name": "",
					"type": "address"
				},
				{
					"internalType": "address",
					"name": "",
					"type": "address"
				},
				{
					"internalType": "uint256",
					"name": "",
					"type": "uint256"
				},
				{
					"internalType": "bytes",
					"name": "",
					"type": "bytes"
				}
			],
			"name": "onERC721Received",
			"outputs": [
				{
					"internalType": "bytes4",
					"name": "",
					"type": "bytes4"
				}
			],
			"stateMutability": "nonpayable",
			"type": "function"
		},
		{
			"inputs": [],
			"name": "owner",
			"outputs": [
				{
					"internalType": "address",
					"name": "",
					"type": "address"
				}
			],
			"stateMutability": "view",
			"type": "function"
		},
		{
			"inputs": [],
			"name": "proposalCount",
			"outputs": [
				{
					"internalType": "uint256",
					"name": "",
					"type": "uint256"
				}
			],
			"stateMutability": "view",
			"type": "function"
		},
		{
			"inputs": [
				{
					"internalType": "uint256",
					"name": "proposalId",
					"type": "uint256"
				}
			],
			"name": "proposalDeadline",
			"outputs": [
				{
					"internalType": "uint256",
					"name": "",
					"type": "uint256"
				}
			],
			"stateMutability": "view",
			"type": "function"
		},
		{
			"inputs": [
				{
					"internalType": "uint256",
					"name": "proposalId",
					"type": "uint256"
				}
			],
			"name": "proposalDetails",
			"outputs": [
				{
					"internalType": "address[]",
					"name": "",
					"type": "address[]"
				},
				{
					"internalType": "uint256[]",
					"name": "",
					"type": "uint256[]"
				},
				{
					"internalType": "bytes[]",
					"name": "",
					"type": "bytes[]"
				},
				{
					"internalType": "bytes32",
					"name": "",
					"type": "bytes32"
				}
			],
			"stateMutability": "view",
			"type": "function"
		},
		{
			"inputs": [
				{
					"internalType": "uint256",
					"name": "index",
					"type": "uint256"
				}
			],
			"name": "proposalDetailsAt",
			"outputs": [
				{
					"internalType": "uint256",
					"name": "",
					"type": "uint256"
				},
				{
					"internalType": "address[]",
					"name": "",
					"type": "address[]"
				},
				{
					"internalType": "uint256[]",
					"name": "",
					"type": "uint256[]"
				},
				{
					"internalType": "bytes[]",
					"name": "",
					"type": "bytes[]"
				},
				{
					"internalType": "bytes32",
					"name": "",
					"type": "bytes32"
				}
			],
			"stateMutability": "view",
			"type": "function"
		},
		{
			"inputs": [
				{
					"internalType": "uint256",
					"name": "proposalId",
					"type": "uint256"
				}
			],
			"name": "proposalEta",
			"outputs": [
				{
					"internalType": "uint256",
					"name": "",
					"type": "uint256"
				}
			],
			"stateMutability": "view",
			"type": "function"
		},
		{
			"inputs": [
				{
					"internalType": "uint256",
					"name": "proposalId",
					"type": "uint256"
				}
			],
			"name": "proposalNeedsQueuing",
			"outputs": [
				{
					"internalType": "bool",
					"name": "",
					"type": "bool"
				}
			],
			"stateMutability": "view",
			"type": "function"
		},
		{
			"inputs": [
				{
					"internalType": "uint256",
					"name": "proposalId",
					"type": "uint256"
				}
			],
			"name": "proposalProposer",
			"outputs": [
				{
					"internalType": "address",
					"name": "",
					"type": "address"
				}
			],
			"stateMutability": "view",
			"type": "function"
		},
		{
			"inputs": [
				{
					"internalType": "uint256",
					"name": "proposalId",
					"type": "uint256"
				}
			],
			"name": "proposalSnapshot",
			"outputs": [
				{
					"internalType": "uint256",
					"name": "",
					"type": "uint256"
				}
			],
			"stateMutability": "view",
			"type": "function"
		},
		{
			"inputs": [],
			"name": "proposalThreshold",
			"outputs": [
				{
					"internalType": "uint256",
					"name": "",
					"type": "uint256"
				}
			],
			"stateMutability": "view",
			"type": "function"
		},
		{
			"inputs": [
				{
					"internalType": "uint256",
					"name": "proposalId",
					"type": "uint256"
				}
			],
			"name": "proposalVotes",
			"outputs": [
				{
					"internalType": "uint256",
					"name": "againstVotes",
					"type": "uint256"
				},
				{
					"internalType": "uint256",
					"name": "forVotes",
					"type": "uint256"
				},
				{
					"internalType": "uint256",
					"name": "abstainVotes",
					"type": "uint256"
				}
			],
			"stateMutability": "view",
			"type": "function"
		},
		{
			"inputs": [
				{
					"internalType": "address[]",
					"name": "targets",
					"type": "address[]"
				},
				{
					"internalType": "uint256[]",
					"name": "values",
					"type": "uint256[]"
				},
				{
					"internalType": "bytes[]",
					"name": "calldatas",
					"type": "bytes[]"
				},
				{
					"internalType": "string",
					"name": "description",
					"type": "string"
				}
			],
			"name": "propose",
			"outputs": [
				{
					"internalType": "uint256",
					"name": "",
					"type": "uint256"
				}
			],
			"stateMutability": "nonpayable",
			"type": "function"
		},
		{
			"inputs": [],
			"name": "proxiableUUID",
			"outputs": [
				{
					"internalType": "bytes32",
					"name": "",
					"type": "bytes32"
				}
			],
			"stateMutability": "view",
			"type": "function"
		},
		{
			"inputs": [
				{
					"internalType": "address[]",
					"name": "targets",
					"type": "address[]"
				},
				{
					"internalType": "uint256[]",
					"name": "values",
					"type": "uint256[]"
				},
				{
					"internalType": "bytes[]",
					"name": "calldatas",
					"type": "bytes[]"
				},
				{
					"internalType": "bytes32",
					"name": "descriptionHash",
					"type": "bytes32"
				}
			],
			"name": "queue",
			"outputs": [
				{
					"internalType": "uint256",
					"name": "",
					"type": "uint256"
				}
			],
			"stateMutability": "nonpayable",
			"type": "function"
		},
		{
			"inputs": [
				{
					"internalType": "uint256",
					"name": "proposalId",
					"type": "uint256"
				}
			],
			"name": "queue",
			"outputs": [],
			"stateMutability": "nonpayable",
			"type": "function"
		},
		{
			"inputs": [
				{
					"internalType": "uint256",
					"name": "blockNumber",
					"type": "uint256"
				}
			],
			"name": "quorum",
			"outputs": [
				{
					"internalType": "uint256",
					"name": "",
					"type": "uint256"
				}
			],
			"stateMutability": "view",
			"type": "function"
		},
		{
			"inputs": [],
			"name": "quorumDenominator",
			"outputs": [
				{
					"internalType": "uint256",
					"name": "",
					"type": "uint256"
				}
			],
			"stateMutability": "view",
			"type": "function"
		},
		{
			"inputs": [
				{
					"internalType": "uint256",
					"name": "timepoint",
					"type": "uint256"
				}
			],
			"name": "quorumNumerator",
			"outputs": [
				{
					"internalType": "uint256",
					"name": "",
					"type": "uint256"
				}
			],
			"stateMutability": "view",
			"type": "function"
		},
		{
			"inputs": [],
			"name": "quorumNumerator",
			"outputs": [
				{
					"internalType": "uint256",
					"name": "",
					"type": "uint256"
				}
			],
			"stateMutability": "view",
			"type": "function"
		},
		{
			"inputs": [
				{
					"internalType": "address",
					"name": "target",
					"type": "address"
				},
				{
					"internalType": "uint256",
					"name": "value",
					"type": "uint256"
				},
				{
					"internalType": "bytes",
					"name": "data",
					"type": "bytes"
				}
			],
			"name": "relay",
			"outputs": [],
			"stateMutability": "payable",
			"type": "function"
		},
		{
			"inputs": [],
			"name": "renounceOwnership",
			"outputs": [],
			"stateMutability": "nonpayable",
			"type": "function"
		},
		{
			"inputs": [
				{
					"internalType": "uint256",
					"name": "newProposalThreshold",
					"type": "uint256"
				}
			],
			"name": "setProposalThreshold",
			"outputs": [],
			"stateMutability": "nonpayable",
			"type": "function"
		},
		{
			"inputs": [
				{
					"internalType": "uint48",
					"name": "newVotingDelay",
					"type": "uint48"
				}
			],
			"name": "setVotingDelay",
			"outputs": [],
			"stateMutability": "nonpayable",
			"type": "function"
		},
		{
			"inputs": [
				{
					"internalType": "uint32",
					"name": "newVotingPeriod",
					"type": "uint32"
				}
			],
			"name": "setVotingPeriod",
			"outputs": [],
			"stateMutability": "nonpayable",
			"type": "function"
		},
		{
			"inputs": [
				{
					"internalType": "uint256",
					"name": "proposalId",
					"type": "uint256"
				}
			],
			"name": "state",
			"outputs": [
				{
					"internalType": "enum IGovernor.ProposalState",
					"name": "",
					"type": "uint8"
				}
			],
			"stateMutability": "view",
			"type": "function"
		},
		{
			"inputs": [
				{
					"internalType": "string",
					"name": "description",
					"type": "string"
				}
			],
			"name": "submitGameUpdateProposal",
			"outputs": [],
			"stateMutability": "nonpayable",
			"type": "function"
		},
		{
			"inputs": [
				{
					"internalType": "string",
					"name": "description",
					"type": "string"
				}
			],
			"name": "submitPlayerProposal",
			"outputs": [],
			"stateMutability": "nonpayable",
			"type": "function"
		},
		{
			"inputs": [
				{
					"internalType": "address[]",
					"name": "targets",
					"type": "address[]"
				},
				{
					"internalType": "uint256[]",
					"name": "values",
					"type": "uint256[]"
				},
				{
					"internalType": "bytes[]",
					"name": "calldatas",
					"type": "bytes[]"
				},
				{
					"internalType": "string",
					"name": "description",
					"type": "string"
				}
			],
			"name": "submitProposal",
			"outputs": [
				{
					"internalType": "uint256",
					"name": "",
					"type": "uint256"
				}
			],
			"stateMutability": "nonpayable",
			"type": "function"
		},
		{
			"inputs": [
				{
					"internalType": "bytes4",
					"name": "interfaceId",
					"type": "bytes4"
				}
			],
			"name": "supportsInterface",
			"outputs": [
				{
					"internalType": "bool",
					"name": "",
					"type": "bool"
				}
			],
			"stateMutability": "view",
			"type": "function"
		},
		{
			"inputs": [],
			"name": "timelock",
			"outputs": [
				{
					"internalType": "address",
					"name": "",
					"type": "address"
				}
			],
			"stateMutability": "view",
			"type": "function"
		},
		{
			"inputs": [],
			"name": "token",
			"outputs": [
				{
					"internalType": "contract IERC5805",
					"name": "",
					"type": "address"
				}
			],
			"stateMutability": "view",
			"type": "function"
		},
		{
			"inputs": [
				{
					"internalType": "address",
					"name": "newOwner",
					"type": "address"
				}
			],
			"name": "transferOwnership",
			"outputs": [],
			"stateMutability": "nonpayable",
			"type": "function"
		},
		{
			"inputs": [
				{
					"internalType": "uint256",
					"name": "newQuorumNumerator",
					"type": "uint256"
				}
			],
			"name": "updateQuorumNumerator",
			"outputs": [],
			"stateMutability": "nonpayable",
			"type": "function"
		},
		{
			"inputs": [
				{
					"internalType": "contract TimelockControllerUpgradeable",
					"name": "newTimelock",
					"type": "address"
				}
			],
			"name": "updateTimelock",
			"outputs": [],
			"stateMutability": "nonpayable",
			"type": "function"
		},
		{
			"inputs": [
				{
					"internalType": "address",
					"name": "newImplementation",
					"type": "address"
				},
				{
					"internalType": "bytes",
					"name": "data",
					"type": "bytes"
				}
			],
			"name": "upgradeToAndCall",
			"outputs": [],
			"stateMutability": "payable",
			"type": "function"
		},
		{
			"inputs": [],
			"name": "version",
			"outputs": [
				{
					"internalType": "string",
					"name": "",
					"type": "string"
				}
			],
			"stateMutability": "view",
			"type": "function"
		},
		{
			"inputs": [],
			"name": "viewGameMetrics",
			"outputs": [
				{
					"internalType": "string",
					"name": "",
					"type": "string"
				}
			],
			"stateMutability": "pure",
			"type": "function"
		},
		{
			"inputs": [],
			"name": "viewTreasuryReport",
			"outputs": [
				{
					"internalType": "string",
					"name": "",
					"type": "string"
				}
			],
			"stateMutability": "pure",
			"type": "function"
		},
		{
			"inputs": [],
			"name": "votingDelay",
			"outputs": [
				{
					"internalType": "uint256",
					"name": "",
					"type": "uint256"
				}
			],
			"stateMutability": "view",
			"type": "function"
		},
		{
			"inputs": [],
			"name": "votingPeriod",
			"outputs": [
				{
					"internalType": "uint256",
					"name": "",
					"type": "uint256"
				}
			],
			"stateMutability": "view",
			"type": "function"
		},
		{
			"stateMutability": "payable",
			"type": "receive"
		}
	]
}