{
	"src/smartcontracts/CryptoQuestTheShardsOfGenesisMMORPG.sol": {
		"CryptoQuestTheShardsOfGenesisMMPORPG": {
			"abi": [
				{
					"inputs": [],
					"name": "AccessControlBadConfirmation",
					"type": "error"
				},
				{
					"inputs": [
						{
							"internalType": "address",
							"name": "account",
							"type": "address"
						},
						{
							"internalType": "bytes32",
							"name": "neededRole",
							"type": "bytes32"
						}
					],
					"name": "AccessControlUnauthorizedAccount",
					"type": "error"
				},
				{
					"inputs": [
						{
							"internalType": "address",
							"name": "target",
							"type": "address"
						}
					],
					"name": "AddressEmptyCode",
					"type": "error"
				},
				{
					"inputs": [
						{
							"internalType": "address",
							"name": "implementation",
							"type": "address"
						}
					],
					"name": "ERC1967InvalidImplementation",
					"type": "error"
				},
				{
					"inputs": [],
					"name": "ERC1967NonPayable",
					"type": "error"
				},
				{
					"inputs": [],
					"name": "EnforcedPause",
					"type": "error"
				},
				{
					"inputs": [],
					"name": "ExpectedPause",
					"type": "error"
				},
				{
					"inputs": [],
					"name": "FailedInnerCall",
					"type": "error"
				},
				{
					"inputs": [],
					"name": "InvalidInitialization",
					"type": "error"
				},
				{
					"inputs": [],
					"name": "NotInitializing",
					"type": "error"
				},
				{
					"inputs": [],
					"name": "UUPSUnauthorizedCallContext",
					"type": "error"
				},
				{
					"inputs": [
						{
							"internalType": "bytes32",
							"name": "slot",
							"type": "bytes32"
						}
					],
					"name": "UUPSUnsupportedProxiableUUID",
					"type": "error"
				},
				{
					"anonymous": false,
					"inputs": [
						{
							"indexed": false,
							"internalType": "string",
							"name": "name",
							"type": "string"
						},
						{
							"indexed": false,
							"internalType": "address",
							"name": "leader",
							"type": "address"
						}
					],
					"name": "GuildCreated",
					"type": "event"
				},
				{
					"anonymous": false,
					"inputs": [
						{
							"indexed": false,
							"internalType": "uint64",
							"name": "version",
							"type": "uint64"
						}
					],
					"name": "Initialized",
					"type": "event"
				},
				{
					"anonymous": false,
					"inputs": [
						{
							"indexed": false,
							"internalType": "uint256",
							"name": "itemId",
							"type": "uint256"
						},
						{
							"indexed": false,
							"internalType": "string",
							"name": "itemName",
							"type": "string"
						}
					],
					"name": "ItemAdded",
					"type": "event"
				},
				{
					"anonymous": false,
					"inputs": [
						{
							"indexed": false,
							"internalType": "address",
							"name": "account",
							"type": "address"
						}
					],
					"name": "Paused",
					"type": "event"
				},
				{
					"anonymous": false,
					"inputs": [
						{
							"indexed": true,
							"internalType": "address",
							"name": "player",
							"type": "address"
						}
					],
					"name": "PlayerCreated",
					"type": "event"
				},
				{
					"anonymous": false,
					"inputs": [
						{
							"indexed": true,
							"internalType": "address",
							"name": "player",
							"type": "address"
						},
						{
							"indexed": false,
							"internalType": "string",
							"name": "questTitle",
							"type": "string"
						}
					],
					"name": "QuestCompleted",
					"type": "event"
				},
				{
					"anonymous": false,
					"inputs": [
						{
							"indexed": false,
							"internalType": "uint256",
							"name": "recipeId",
							"type": "uint256"
						},
						{
							"indexed": false,
							"internalType": "uint256",
							"name": "resultItemId",
							"type": "uint256"
						}
					],
					"name": "RecipeAdded",
					"type": "event"
				},
				{
					"anonymous": false,
					"inputs": [
						{
							"indexed": true,
							"internalType": "bytes32",
							"name": "role",
							"type": "bytes32"
						},
						{
							"indexed": true,
							"internalType": "bytes32",
							"name": "previousAdminRole",
							"type": "bytes32"
						},
						{
							"indexed": true,
							"internalType": "bytes32",
							"name": "newAdminRole",
							"type": "bytes32"
						}
					],
					"name": "RoleAdminChanged",
					"type": "event"
				},
				{
					"anonymous": false,
					"inputs": [
						{
							"indexed": true,
							"internalType": "bytes32",
							"name": "role",
							"type": "bytes32"
						},
						{
							"indexed": true,
							"internalType": "address",
							"name": "account",
							"type": "address"
						},
						{
							"indexed": true,
							"internalType": "address",
							"name": "sender",
							"type": "address"
						}
					],
					"name": "RoleGranted",
					"type": "event"
				},
				{
					"anonymous": false,
					"inputs": [
						{
							"indexed": true,
							"internalType": "bytes32",
							"name": "role",
							"type": "bytes32"
						},
						{
							"indexed": true,
							"internalType": "address",
							"name": "account",
							"type": "address"
						},
						{
							"indexed": true,
							"internalType": "address",
							"name": "sender",
							"type": "address"
						}
					],
					"name": "RoleRevoked",
					"type": "event"
				},
				{
					"anonymous": false,
					"inputs": [
						{
							"indexed": false,
							"internalType": "address",
							"name": "account",
							"type": "address"
						}
					],
					"name": "Unpaused",
					"type": "event"
				},
				{
					"anonymous": false,
					"inputs": [
						{
							"indexed": true,
							"internalType": "address",
							"name": "implementation",
							"type": "address"
						}
					],
					"name": "Upgraded",
					"type": "event"
				},
				{
					"inputs": [],
					"name": "DEFAULT_ADMIN_ROLE",
					"outputs": [
						{
							"internalType": "bytes32",
							"name": "",
							"type": "bytes32"
						}
					],
					"stateMutability": "view",
					"type": "function"
				},
				{
					"inputs": [],
					"name": "GAME_ADMIN_ROLE",
					"outputs": [
						{
							"internalType": "bytes32",
							"name": "",
							"type": "bytes32"
						}
					],
					"stateMutability": "view",
					"type": "function"
				},
				{
					"inputs": [],
					"name": "PAUSER_ROLE",
					"outputs": [
						{
							"internalType": "bytes32",
							"name": "",
							"type": "bytes32"
						}
					],
					"stateMutability": "view",
					"type": "function"
				},
				{
					"inputs": [],
					"name": "UPGRADER_ROLE",
					"outputs": [
						{
							"internalType": "bytes32",
							"name": "",
							"type": "bytes32"
						}
					],
					"stateMutability": "view",
					"type": "function"
				},
				{
					"inputs": [],
					"name": "UPGRADE_INTERFACE_VERSION",
					"outputs": [
						{
							"internalType": "string",
							"name": "",
							"type": "string"
						}
					],
					"stateMutability": "view",
					"type": "function"
				},
				{
					"inputs": [
						{
							"internalType": "string",
							"name": "name",
							"type": "string"
						},
						{
							"internalType": "uint256",
							"name": "attackBonus",
							"type": "uint256"
						},
						{
							"internalType": "uint256",
							"name": "defenseBonus",
							"type": "uint256"
						},
						{
							"internalType": "uint256",
							"name": "manaBonus",
							"type": "uint256"
						},
						{
							"internalType": "uint256",
							"name": "healthBonus",
							"type": "uint256"
						}
					],
					"name": "addItem",
					"outputs": [],
					"stateMutability": "nonpayable",
					"type": "function"
				},
				{
					"inputs": [
						{
							"internalType": "uint256[]",
							"name": "itemIds",
							"type": "uint256[]"
						},
						{
							"internalType": "uint256",
							"name": "resultItemId",
							"type": "uint256"
						}
					],
					"name": "addRecipe",
					"outputs": [],
					"stateMutability": "nonpayable",
					"type": "function"
				},
				{
					"inputs": [
						{
							"internalType": "string",
							"name": "questTitle",
							"type": "string"
						}
					],
					"name": "completeQuest",
					"outputs": [],
					"stateMutability": "nonpayable",
					"type": "function"
				},
				{
					"inputs": [
						{
							"internalType": "uint256",
							"name": "recipeId",
							"type": "uint256"
						}
					],
					"name": "craftItem",
					"outputs": [],
					"stateMutability": "nonpayable",
					"type": "function"
				},
				{
					"inputs": [
						{
							"internalType": "string",
							"name": "name",
							"type": "string"
						},
						{
							"internalType": "address",
							"name": "leader",
							"type": "address"
						}
					],
					"name": "createGuild",
					"outputs": [],
					"stateMutability": "nonpayable",
					"type": "function"
				},
				{
					"inputs": [],
					"name": "createPlayer",
					"outputs": [],
					"stateMutability": "nonpayable",
					"type": "function"
				},
				{
					"inputs": [],
					"name": "daoContract",
					"outputs": [
						{
							"internalType": "contract IDAO",
							"name": "",
							"type": "address"
						}
					],
					"stateMutability": "view",
					"type": "function"
				},
				{
					"inputs": [],
					"name": "erc1155Token",
					"outputs": [
						{
							"internalType": "contract IERC1155",
							"name": "",
							"type": "address"
						}
					],
					"stateMutability": "view",
					"type": "function"
				},
				{
					"inputs": [],
					"name": "erc20Token",
					"outputs": [
						{
							"internalType": "contract IERC20",
							"name": "",
							"type": "address"
						}
					],
					"stateMutability": "view",
					"type": "function"
				},
				{
					"inputs": [],
					"name": "erc721Token",
					"outputs": [
						{
							"internalType": "contract IERC721",
							"name": "",
							"type": "address"
						}
					],
					"stateMutability": "view",
					"type": "function"
				},
				{
					"inputs": [],
					"name": "farmingContract",
					"outputs": [
						{
							"internalType": "contract IFarming",
							"name": "",
							"type": "address"
						}
					],
					"stateMutability": "view",
					"type": "function"
				},
				{
					"inputs": [
						{
							"internalType": "bytes32",
							"name": "role",
							"type": "bytes32"
						}
					],
					"name": "getRoleAdmin",
					"outputs": [
						{
							"internalType": "bytes32",
							"name": "",
							"type": "bytes32"
						}
					],
					"stateMutability": "view",
					"type": "function"
				},
				{
					"inputs": [
						{
							"internalType": "bytes32",
							"name": "role",
							"type": "bytes32"
						},
						{
							"internalType": "address",
							"name": "account",
							"type": "address"
						}
					],
					"name": "grantRole",
					"outputs": [],
					"stateMutability": "nonpayable",
					"type": "function"
				},
				{
					"inputs": [
						{
							"internalType": "address",
							"name": "",
							"type": "address"
						}
					],
					"name": "guilds",
					"outputs": [
						{
							"internalType": "string",
							"name": "name",
							"type": "string"
						},
						{
							"internalType": "address",
							"name": "leader",
							"type": "address"
						}
					],
					"stateMutability": "view",
					"type": "function"
				},
				{
					"inputs": [
						{
							"internalType": "bytes32",
							"name": "role",
							"type": "bytes32"
						},
						{
							"internalType": "address",
							"name": "account",
							"type": "address"
						}
					],
					"name": "hasRole",
					"outputs": [
						{
							"internalType": "bool",
							"name": "",
							"type": "bool"
						}
					],
					"stateMutability": "view",
					"type": "function"
				},
				{
					"inputs": [
						{
							"internalType": "address",
							"name": "defaultAdmin",
							"type": "address"
						},
						{
							"internalType": "address",
							"name": "pauser",
							"type": "address"
						},
						{
							"internalType": "address",
							"name": "upgrader",
							"type": "address"
						},
						{
							"internalType": "address",
							"name": "_erc20Address",
							"type": "address"
						},
						{
							"internalType": "address",
							"name": "_erc721Address",
							"type": "address"
						},
						{
							"internalType": "address",
							"name": "_erc1155Address",
							"type": "address"
						},
						{
							"internalType": "address",
							"name": "_daoAddress",
							"type": "address"
						},
						{
							"internalType": "address",
							"name": "_stakingAddress",
							"type": "address"
						},
						{
							"internalType": "address",
							"name": "_farmingAddress",
							"type": "address"
						}
					],
					"name": "initialize",
					"outputs": [],
					"stateMutability": "nonpayable",
					"type": "function"
				},
				{
					"inputs": [
						{
							"internalType": "uint256",
							"name": "",
							"type": "uint256"
						}
					],
					"name": "items",
					"outputs": [
						{
							"internalType": "uint256",
							"name": "id",
							"type": "uint256"
						},
						{
							"internalType": "string",
							"name": "name",
							"type": "string"
						},
						{
							"internalType": "uint256",
							"name": "attackBonus",
							"type": "uint256"
						},
						{
							"internalType": "uint256",
							"name": "defenseBonus",
							"type": "uint256"
						},
						{
							"internalType": "uint256",
							"name": "manaBonus",
							"type": "uint256"
						},
						{
							"internalType": "uint256",
							"name": "healthBonus",
							"type": "uint256"
						}
					],
					"stateMutability": "view",
					"type": "function"
				},
				{
					"inputs": [
						{
							"internalType": "string",
							"name": "guildName",
							"type": "string"
						}
					],
					"name": "joinGuild",
					"outputs": [],
					"stateMutability": "nonpayable",
					"type": "function"
				},
				{
					"inputs": [],
					"name": "pause",
					"outputs": [],
					"stateMutability": "nonpayable",
					"type": "function"
				},
				{
					"inputs": [],
					"name": "paused",
					"outputs": [
						{
							"internalType": "bool",
							"name": "",
							"type": "bool"
						}
					],
					"stateMutability": "view",
					"type": "function"
				},
				{
					"inputs": [
						{
							"internalType": "address",
							"name": "",
							"type": "address"
						},
						{
							"internalType": "uint256",
							"name": "",
							"type": "uint256"
						}
					],
					"name": "playerQuests",
					"outputs": [
						{
							"internalType": "string",
							"name": "title",
							"type": "string"
						},
						{
							"internalType": "string",
							"name": "description",
							"type": "string"
						},
						{
							"internalType": "uint256",
							"name": "rewardXP",
							"type": "uint256"
						},
						{
							"internalType": "bool",
							"name": "completed",
							"type": "bool"
						}
					],
					"stateMutability": "view",
					"type": "function"
				},
				{
					"inputs": [
						{
							"internalType": "address",
							"name": "",
							"type": "address"
						}
					],
					"name": "players",
					"outputs": [
						{
							"internalType": "uint256",
							"name": "level",
							"type": "uint256"
						},
						{
							"internalType": "uint256",
							"name": "experience",
							"type": "uint256"
						},
						{
							"internalType": "uint256",
							"name": "health",
							"type": "uint256"
						},
						{
							"internalType": "uint256",
							"name": "mana",
							"type": "uint256"
						},
						{
							"internalType": "uint256",
							"name": "attackDamage",
							"type": "uint256"
						},
						{
							"internalType": "uint256",
							"name": "defense",
							"type": "uint256"
						},
						{
							"internalType": "uint256",
							"name": "agility",
							"type": "uint256"
						},
						{
							"internalType": "uint256",
							"name": "luck",
							"type": "uint256"
						}
					],
					"stateMutability": "view",
					"type": "function"
				},
				{
					"inputs": [],
					"name": "proxiableUUID",
					"outputs": [
						{
							"internalType": "bytes32",
							"name": "",
							"type": "bytes32"
						}
					],
					"stateMutability": "view",
					"type": "function"
				},
				{
					"inputs": [
						{
							"internalType": "uint256",
							"name": "",
							"type": "uint256"
						}
					],
					"name": "recipes",
					"outputs": [
						{
							"internalType": "uint256",
							"name": "resultItemId",
							"type": "uint256"
						}
					],
					"stateMutability": "view",
					"type": "function"
				},
				{
					"inputs": [
						{
							"internalType": "bytes32",
							"name": "role",
							"type": "bytes32"
						},
						{
							"internalType": "address",
							"name": "callerConfirmation",
							"type": "address"
						}
					],
					"name": "renounceRole",
					"outputs": [],
					"stateMutability": "nonpayable",
					"type": "function"
				},
				{
					"inputs": [
						{
							"internalType": "bytes32",
							"name": "role",
							"type": "bytes32"
						},
						{
							"internalType": "address",
							"name": "account",
							"type": "address"
						}
					],
					"name": "revokeRole",
					"outputs": [],
					"stateMutability": "nonpayable",
					"type": "function"
				},
				{
					"inputs": [
						{
							"internalType": "address",
							"name": "_daoAddress",
							"type": "address"
						}
					],
					"name": "setDAOAddress",
					"outputs": [],
					"stateMutability": "nonpayable",
					"type": "function"
				},
				{
					"inputs": [
						{
							"internalType": "address",
							"name": "_erc1155Address",
							"type": "address"
						}
					],
					"name": "setERC1155Address",
					"outputs": [],
					"stateMutability": "nonpayable",
					"type": "function"
				},
				{
					"inputs": [
						{
							"internalType": "address",
							"name": "_erc20Address",
							"type": "address"
						}
					],
					"name": "setERC20Address",
					"outputs": [],
					"stateMutability": "nonpayable",
					"type": "function"
				},
				{
					"inputs": [
						{
							"internalType": "address",
							"name": "_erc721Address",
							"type": "address"
						}
					],
					"name": "setERC721Address",
					"outputs": [],
					"stateMutability": "nonpayable",
					"type": "function"
				},
				{
					"inputs": [
						{
							"internalType": "address",
							"name": "_farmingAddress",
							"type": "address"
						}
					],
					"name": "setFarmingAddress",
					"outputs": [],
					"stateMutability": "nonpayable",
					"type": "function"
				},
				{
					"inputs": [
						{
							"internalType": "address",
							"name": "_stakingAddress",
							"type": "address"
						}
					],
					"name": "setStakingAddress",
					"outputs": [],
					"stateMutability": "nonpayable",
					"type": "function"
				},
				{
					"inputs": [],
					"name": "stakingContract",
					"outputs": [
						{
							"internalType": "contract IStaking",
							"name": "",
							"type": "address"
						}
					],
					"stateMutability": "view",
					"type": "function"
				},
				{
					"inputs": [
						{
							"internalType": "string",
							"name": "title",
							"type": "string"
						},
						{
							"internalType": "string",
							"name": "description",
							"type": "string"
						},
						{
							"internalType": "uint256",
							"name": "rewardXP",
							"type": "uint256"
						}
					],
					"name": "startQuest",
					"outputs": [],
					"stateMutability": "nonpayable",
					"type": "function"
				},
				{
					"inputs": [
						{
							"internalType": "bytes4",
							"name": "interfaceId",
							"type": "bytes4"
						}
					],
					"name": "supportsInterface",
					"outputs": [
						{
							"internalType": "bool",
							"name": "",
							"type": "bool"
						}
					],
					"stateMutability": "view",
					"type": "function"
				},
				{
					"inputs": [],
					"name": "unpause",
					"outputs": [],
					"stateMutability": "nonpayable",
					"type": "function"
				},
				{
					"inputs": [
						{
							"internalType": "address",
							"name": "newImplementation",
							"type": "address"
						},
						{
							"internalType": "bytes",
							"name": "data",
							"type": "bytes"
						}
					],
					"name": "upgradeToAndCall",
					"outputs": [],
					"stateMutability": "payable",
					"type": "function"
				}
			],
			"devdoc": {
				"custom:security-contact": "jacquedegraff@creodamo.com",
				"errors": {
					"AccessControlBadConfirmation()": [
						{
							"details": "The caller of a function is not the expected one. NOTE: Don't confuse with {AccessControlUnauthorizedAccount}."
						}
					],
					"AccessControlUnauthorizedAccount(address,bytes32)": [
						{
							"details": "The `account` is missing a role."
						}
					],
					"AddressEmptyCode(address)": [
						{
							"details": "There's no code at `target` (it is not a contract)."
						}
					],
					"ERC1967InvalidImplementation(address)": [
						{
							"details": "The `implementation` of the proxy is invalid."
						}
					],
					"ERC1967NonPayable()": [
						{
							"details": "An upgrade function sees `msg.value > 0` that may be lost."
						}
					],
					"EnforcedPause()": [
						{
							"details": "The operation failed because the contract is paused."
						}
					],
					"ExpectedPause()": [
						{
							"details": "The operation failed because the contract is not paused."
						}
					],
					"FailedInnerCall()": [
						{
							"details": "A call to an address target failed. The target may have reverted."
						}
					],
					"InvalidInitialization()": [
						{
							"details": "The contract is already initialized."
						}
					],
					"NotInitializing()": [
						{
							"details": "The contract is not initializing."
						}
					],
					"UUPSUnauthorizedCallContext()": [
						{
							"details": "The call is from an unauthorized context."
						}
					],
					"UUPSUnsupportedProxiableUUID(bytes32)": [
						{
							"details": "The storage `slot` is unsupported as a UUID."
						}
					]
				},
				"events": {
					"Initialized(uint64)": {
						"details": "Triggered when the contract has been initialized or reinitialized."
					},
					"Paused(address)": {
						"details": "Emitted when the pause is triggered by `account`."
					},
					"RoleAdminChanged(bytes32,bytes32,bytes32)": {
						"details": "Emitted when `newAdminRole` is set as ``role``'s admin role, replacing `previousAdminRole` `DEFAULT_ADMIN_ROLE` is the starting admin for all roles, despite {RoleAdminChanged} not being emitted signaling this."
					},
					"RoleGranted(bytes32,address,address)": {
						"details": "Emitted when `account` is granted `role`. `sender` is the account that originated the contract call, an admin role bearer except when using {AccessControl-_setupRole}."
					},
					"RoleRevoked(bytes32,address,address)": {
						"details": "Emitted when `account` is revoked `role`. `sender` is the account that originated the contract call:   - if using `revokeRole`, it is the admin role bearer   - if using `renounceRole`, it is the role bearer (i.e. `account`)"
					},
					"Unpaused(address)": {
						"details": "Emitted when the pause is lifted by `account`."
					},
					"Upgraded(address)": {
						"details": "Emitted when the implementation is upgraded."
					}
				},
				"kind": "dev",
				"methods": {
					"getRoleAdmin(bytes32)": {
						"details": "Returns the admin role that controls `role`. See {grantRole} and {revokeRole}. To change a role's admin, use {_setRoleAdmin}."
					},
					"grantRole(bytes32,address)": {
						"details": "Grants `role` to `account`. If `account` had not been already granted `role`, emits a {RoleGranted} event. Requirements: - the caller must have ``role``'s admin role. May emit a {RoleGranted} event."
					},
					"hasRole(bytes32,address)": {
						"details": "Returns `true` if `account` has been granted `role`."
					},
					"paused()": {
						"details": "Returns true if the contract is paused, and false otherwise."
					},
					"proxiableUUID()": {
						"details": "Implementation of the ERC1822 {proxiableUUID} function. This returns the storage slot used by the implementation. It is used to validate the implementation's compatibility when performing an upgrade. IMPORTANT: A proxy pointing at a proxiable contract should not be considered proxiable itself, because this risks bricking a proxy that upgrades to it, by delegating to itself until out of gas. Thus it is critical that this function revert if invoked through a proxy. This is guaranteed by the `notDelegated` modifier."
					},
					"renounceRole(bytes32,address)": {
						"details": "Revokes `role` from the calling account. Roles are often managed via {grantRole} and {revokeRole}: this function's purpose is to provide a mechanism for accounts to lose their privileges if they are compromised (such as when a trusted device is misplaced). If the calling account had been revoked `role`, emits a {RoleRevoked} event. Requirements: - the caller must be `callerConfirmation`. May emit a {RoleRevoked} event."
					},
					"revokeRole(bytes32,address)": {
						"details": "Revokes `role` from `account`. If `account` had been granted `role`, emits a {RoleRevoked} event. Requirements: - the caller must have ``role``'s admin role. May emit a {RoleRevoked} event."
					},
					"supportsInterface(bytes4)": {
						"details": "See {IERC165-supportsInterface}."
					},
					"upgradeToAndCall(address,bytes)": {
						"custom:oz-upgrades-unsafe-allow-reachable": "delegatecall",
						"details": "Upgrade the implementation of the proxy to `newImplementation`, and subsequently execute the function call encoded in `data`. Calls {_authorizeUpgrade}. Emits an {Upgraded} event."
					}
				},
				"version": 1
			},
			"evm": {
				"assembly": "    /* \"src/smartcontracts/CryptoQuestTheShardsOfGenesisMMORPG.sol\":1186:9000  contract CryptoQuestTheShardsOfGenesisMMPORPG is Initializable, PausableUpgradeable, AccessControlUpgradeable, UUPSUpgradeable {... */\n  mstore(0x40, 0xa0)\n    /* \"@openzeppelin/contracts-upgradeable/proxy/utils/UUPSUpgradeable.sol\":1171:1175  this */\n  address\n    /* \"@openzeppelin/contracts-upgradeable/proxy/utils/UUPSUpgradeable.sol\":1128:1176  address private immutable __self = address(this) */\n  0x80\n  mstore\n    /* \"src/smartcontracts/CryptoQuestTheShardsOfGenesisMMORPG.sol\":2478:2479  1 */\n  0x01\n    /* \"src/smartcontracts/CryptoQuestTheShardsOfGenesisMMORPG.sol\":2452:2479  uint private nextItemId = 1 */\n  0x06\n  dup2\n  swap1\n  sstore\n    /* \"src/smartcontracts/CryptoQuestTheShardsOfGenesisMMORPG.sol\":2485:2514  uint private nextRecipeId = 1 */\n  0x07\n  sstore\n    /* \"src/smartcontracts/CryptoQuestTheShardsOfGenesisMMORPG.sol\":1186:9000  contract CryptoQuestTheShardsOfGenesisMMPORPG is Initializable, PausableUpgradeable, AccessControlUpgradeable, UUPSUpgradeable {... */\n  callvalue\n  dup1\n  iszero\n  tag_1\n  jumpi\n  0x00\n  dup1\n  revert\ntag_1:\n  pop\n  mload(0x80)\n  codecopy(0x00, dataOffset(sub_0), dataSize(sub_0))\n  0x00\n  assignImmutable(\"0x3b04ad91523c4dcf551e081621e633b9099d51bf9c5461e58c3bc7354a578b27\")\n  return(0x00, dataSize(sub_0))\nstop\n\nsub_0: assembly {\n        /* \"src/smartcontracts/CryptoQuestTheShardsOfGenesisMMORPG.sol\":1186:9000  contract CryptoQuestTheShardsOfGenesisMMPORPG is Initializable, PausableUpgradeable, AccessControlUpgradeable, UUPSUpgradeable {... */\n      mstore(0x40, 0x80)\n      jumpi(tag_1, lt(calldatasize, 0x04))\n      shr(0xe0, calldataload(0x00))\n      dup1\n      0x8a13eea7\n      gt\n      tag_44\n      jumpi\n      dup1\n      0xbfb231d2\n      gt\n      tag_45\n      jumpi\n      dup1\n      0xe551ba4b\n      gt\n      tag_46\n      jumpi\n      dup1\n      0xe551ba4b\n      eq\n      tag_38\n      jumpi\n      dup1\n      0xe63ab1e9\n      eq\n      tag_39\n      jumpi\n      dup1\n      0xee99205c\n      eq\n      tag_40\n      jumpi\n      dup1\n      0xf4e0d9ac\n      eq\n      tag_41\n      jumpi\n      dup1\n      0xf5e95acb\n      eq\n      tag_42\n      jumpi\n      dup1\n      0xf72c0d8b\n      eq\n      tag_43\n      jumpi\n      0x00\n      dup1\n      revert\n    tag_46:\n      dup1\n      0xbfb231d2\n      eq\n      tag_33\n      jumpi\n      dup1\n      0xd3dcff7c\n      eq\n      tag_34\n      jumpi\n      dup1\n      0xd547741f\n      eq\n      tag_35\n      jumpi\n      dup1\n      0xd836fc6f\n      eq\n      tag_36\n      jumpi\n      dup1\n      0xe2eb41ff\n      eq\n      tag_37\n      jumpi\n      0x00\n      dup1\n      revert\n    tag_45:\n      dup1\n      0xa75859e1\n      gt\n      tag_47\n      jumpi\n      dup1\n      0xa75859e1\n      eq\n      tag_28\n      jumpi\n      dup1\n      0xa9834b67\n      eq\n      tag_29\n      jumpi\n      dup1\n      0xad3cb1cc\n      eq\n      tag_30\n      jumpi\n      dup1\n      0xb001f618\n      eq\n      tag_31\n      jumpi\n      dup1\n      0xbe22d27d\n      eq\n      tag_32\n      jumpi\n      0x00\n      dup1\n      revert\n    tag_47:\n      dup1\n      0x8a13eea7\n      eq\n      tag_23\n      jumpi\n      dup1\n      0x91d14854\n      eq\n      tag_24\n      jumpi\n      dup1\n      0x965afa89\n      eq\n      tag_25\n      jumpi\n      dup1\n      0x9a03d9a3\n      eq\n      tag_26\n      jumpi\n      dup1\n      0xa217fddf\n      eq\n      tag_27\n      jumpi\n      0x00\n      dup1\n      revert\n    tag_44:\n      dup1\n      0x41bec0d2\n      gt\n      tag_48\n      jumpi\n      dup1\n      0x52d1902d\n      gt\n      tag_49\n      jumpi\n      dup1\n      0x52d1902d\n      eq\n      tag_17\n      jumpi\n      dup1\n      0x5c975abb\n      eq\n      tag_18\n      jumpi\n      dup1\n      0x5f2d6bcd\n      eq\n      tag_19\n      jumpi\n      dup1\n      0x6f347a78\n      eq\n      tag_20\n      jumpi\n      dup1\n      0x7309cbbd\n      eq\n      tag_21\n      jumpi\n      dup1\n      0x8456cb59\n      eq\n      tag_22\n      jumpi\n      0x00\n      dup1\n      revert\n    tag_49:\n      dup1\n      0x41bec0d2\n      eq\n      tag_12\n      jumpi\n      dup1\n      0x443c227c\n      eq\n      tag_13\n      jumpi\n      dup1\n      0x4a7ffcbc\n      eq\n      tag_14\n      jumpi\n      dup1\n      0x4f1ef286\n      eq\n      tag_15\n      jumpi\n      dup1\n      0x4fa4a1bb\n      eq\n      tag_16\n      jumpi\n      0x00\n      dup1\n      revert\n    tag_48:\n      dup1\n      0x2f2ff15d\n      gt\n      tag_50\n      jumpi\n      dup1\n      0x2f2ff15d\n      eq\n      tag_7\n      jumpi\n      dup1\n      0x31fee8be\n      eq\n      tag_8\n      jumpi\n      dup1\n      0x36568abe\n      eq\n      tag_9\n      jumpi\n      dup1\n      0x3f4ba83a\n      eq\n      tag_10\n      jumpi\n      dup1\n      0x3fa9fcf8\n      eq\n      tag_11\n      jumpi\n      0x00\n      dup1\n      revert\n    tag_50:\n      dup1\n      0x01ffc9a7\n      eq\n      tag_2\n      jumpi\n      dup1\n      0x02eec568\n      eq\n      tag_3\n      jumpi\n      dup1\n      0x17435e1a\n      eq\n      tag_4\n      jumpi\n      dup1\n      0x21f42268\n      eq\n      tag_5\n      jumpi\n      dup1\n      0x248a9ca3\n      eq\n      tag_6\n      jumpi\n    tag_1:\n      0x00\n      dup1\n      revert\n        /* \"@openzeppelin/contracts-upgradeable/access/AccessControlUpgradeable.sol\":3443:3645  function supportsInterface(bytes4 interfaceId) public view virtual override returns (bool) {... */\n    tag_2:\n      callvalue\n      dup1\n      iszero\n      tag_51\n      jumpi\n      0x00\n      dup1\n      revert\n    tag_51:\n      pop\n      tag_52\n      tag_53\n      calldatasize\n      0x04\n      tag_54\n      jump\t// in\n    tag_53:\n      tag_55\n      jump\t// in\n    tag_52:\n      mload(0x40)\n        /* \"#utility.yul\":470:484   */\n      swap1\n      iszero\n        /* \"#utility.yul\":463:485   */\n      iszero\n        /* \"#utility.yul\":445:486   */\n      dup2\n      mstore\n        /* \"#utility.yul\":433:435   */\n      0x20\n        /* \"#utility.yul\":418:436   */\n      add\n        /* \"@openzeppelin/contracts-upgradeable/access/AccessControlUpgradeable.sol\":3443:3645  function supportsInterface(bytes4 interfaceId) public view virtual override returns (bool) {... */\n    tag_56:\n      mload(0x40)\n      dup1\n      swap2\n      sub\n      swap1\n      return\n        /* \"src/smartcontracts/CryptoQuestTheShardsOfGenesisMMORPG.sol\":1698:1729  IFarming public farmingContract */\n    tag_3:\n      callvalue\n      dup1\n      iszero\n      tag_58\n      jumpi\n      0x00\n      dup1\n      revert\n    tag_58:\n      pop\n      sload(0x05)\n      tag_59\n      swap1\n      sub(shl(0xa0, 0x01), 0x01)\n      and\n      dup2\n      jump\n    tag_59:\n      mload(0x40)\n      sub(shl(0xa0, 0x01), 0x01)\n        /* \"#utility.yul\":678:710   */\n      swap1\n      swap2\n      and\n        /* \"#utility.yul\":660:711   */\n      dup2\n      mstore\n        /* \"#utility.yul\":648:650   */\n      0x20\n        /* \"#utility.yul\":633:651   */\n      add\n        /* \"src/smartcontracts/CryptoQuestTheShardsOfGenesisMMORPG.sol\":1698:1729  IFarming public farmingContract */\n      tag_56\n        /* \"#utility.yul\":497:717   */\n      jump\n        /* \"src/smartcontracts/CryptoQuestTheShardsOfGenesisMMORPG.sol\":5907:6439  function completeQuest(string memory questTitle) public {... */\n    tag_4:\n      callvalue\n      dup1\n      iszero\n      tag_63\n      jumpi\n      0x00\n      dup1\n      revert\n    tag_63:\n      pop\n      tag_64\n      tag_65\n      calldatasize\n      0x04\n      tag_66\n      jump\t// in\n    tag_65:\n      tag_67\n      jump\t// in\n    tag_64:\n      stop\n        /* \"src/smartcontracts/CryptoQuestTheShardsOfGenesisMMORPG.sol\":1598:1626  IERC1155 public erc1155Token */\n    tag_5:\n      callvalue\n      dup1\n      iszero\n      tag_68\n      jumpi\n      0x00\n      dup1\n      revert\n    tag_68:\n      pop\n      sload(0x02)\n      tag_59\n      swap1\n      sub(shl(0xa0, 0x01), 0x01)\n      and\n      dup2\n      jump\n        /* \"@openzeppelin/contracts-upgradeable/access/AccessControlUpgradeable.sol\":4759:4950  function getRoleAdmin(bytes32 role) public view virtual returns (bytes32) {... */\n    tag_6:\n      callvalue\n      dup1\n      iszero\n      tag_73\n      jumpi\n      0x00\n      dup1\n      revert\n    tag_73:\n      pop\n      tag_74\n      tag_75\n      calldatasize\n      0x04\n      tag_76\n      jump\t// in\n    tag_75:\n      tag_77\n      jump\t// in\n    tag_74:\n      mload(0x40)\n        /* \"#utility.yul\":2745:2770   */\n      swap1\n      dup2\n      mstore\n        /* \"#utility.yul\":2733:2735   */\n      0x20\n        /* \"#utility.yul\":2718:2736   */\n      add\n        /* \"@openzeppelin/contracts-upgradeable/access/AccessControlUpgradeable.sol\":4759:4950  function getRoleAdmin(bytes32 role) public view virtual returns (bytes32) {... */\n      tag_56\n        /* \"#utility.yul\":2599:2776   */\n      jump\n        /* \"@openzeppelin/contracts-upgradeable/access/AccessControlUpgradeable.sol\":5246:5382  function grantRole(bytes32 role, address account) public virtual onlyRole(getRoleAdmin(role)) {... */\n    tag_7:\n      callvalue\n      dup1\n      iszero\n      tag_80\n      jumpi\n      0x00\n      dup1\n      revert\n    tag_80:\n      pop\n      tag_64\n      tag_82\n      calldatasize\n      0x04\n      tag_83\n      jump\t// in\n    tag_82:\n      tag_84\n      jump\t// in\n        /* \"src/smartcontracts/CryptoQuestTheShardsOfGenesisMMORPG.sol\":5374:5689  function addItem(string memory name, uint attackBonus, uint defenseBonus, uint manaBonus, uint healthBonus) public onlyRole(GAME_ADMIN_ROLE) {... */\n    tag_8:\n      callvalue\n      dup1\n      iszero\n      tag_85\n      jumpi\n      0x00\n      dup1\n      revert\n    tag_85:\n      pop\n      tag_64\n      tag_87\n      calldatasize\n      0x04\n      tag_88\n      jump\t// in\n    tag_87:\n      tag_89\n      jump\t// in\n        /* \"@openzeppelin/contracts-upgradeable/access/AccessControlUpgradeable.sol\":6348:6593  function renounceRole(bytes32 role, address callerConfirmation) public virtual {... */\n    tag_9:\n      callvalue\n      dup1\n      iszero\n      tag_90\n      jumpi\n      0x00\n      dup1\n      revert\n    tag_90:\n      pop\n      tag_64\n      tag_92\n      calldatasize\n      0x04\n      tag_83\n      jump\t// in\n    tag_92:\n      tag_93\n      jump\t// in\n        /* \"src/smartcontracts/CryptoQuestTheShardsOfGenesisMMORPG.sol\":4935:5010  function unpause() public onlyRole(PAUSER_ROLE) {... */\n    tag_10:\n      callvalue\n      dup1\n      iszero\n      tag_94\n      jumpi\n      0x00\n      dup1\n      revert\n    tag_94:\n      pop\n      tag_64\n      tag_96\n      jump\t// in\n        /* \"src/smartcontracts/CryptoQuestTheShardsOfGenesisMMORPG.sol\":5120:5368  function createPlayer() public {... */\n    tag_11:\n      callvalue\n      dup1\n      iszero\n      tag_97\n      jumpi\n      0x00\n      dup1\n      revert\n    tag_97:\n      pop\n      tag_64\n      tag_99\n      jump\t// in\n        /* \"src/smartcontracts/CryptoQuestTheShardsOfGenesisMMORPG.sol\":3984:4118  function setERC20Address(address _erc20Address) external onlyRole(GAME_ADMIN_ROLE) {... */\n    tag_12:\n      callvalue\n      dup1\n      iszero\n      tag_100\n      jumpi\n      0x00\n      dup1\n      revert\n    tag_100:\n      pop\n      tag_64\n      tag_102\n      calldatasize\n      0x04\n      tag_103\n      jump\t// in\n    tag_102:\n      tag_104\n      jump\t// in\n        /* \"src/smartcontracts/CryptoQuestTheShardsOfGenesisMMORPG.sol\":2756:2794  mapping(uint => Recipe) public recipes */\n    tag_13:\n      callvalue\n      dup1\n      iszero\n      tag_105\n      jumpi\n      0x00\n      dup1\n      revert\n    tag_105:\n      pop\n      tag_74\n      tag_107\n      calldatasize\n      0x04\n      tag_76\n      jump\t// in\n    tag_107:\n      mstore(0x20, 0x0d)\n      0x00\n      swap1\n      dup2\n      mstore\n      0x40\n      swap1\n      keccak256\n      0x01\n      add\n      sload\n      dup2\n      jump\n        /* \"src/smartcontracts/CryptoQuestTheShardsOfGenesisMMORPG.sol\":1632:1655  IDAO public daoContract */\n    tag_14:\n      callvalue\n      dup1\n      iszero\n      tag_112\n      jumpi\n      0x00\n      dup1\n      revert\n    tag_112:\n      pop\n      sload(0x03)\n      tag_59\n      swap1\n      sub(shl(0xa0, 0x01), 0x01)\n      and\n      dup2\n      jump\n        /* \"@openzeppelin/contracts-upgradeable/proxy/utils/UUPSUpgradeable.sol\":4158:4372  function upgradeToAndCall(address newImplementation, bytes memory data) public payable virtual onlyProxy {... */\n    tag_15:\n      tag_64\n      tag_118\n      calldatasize\n      0x04\n      tag_119\n      jump\t// in\n    tag_118:\n      tag_120\n      jump\t// in\n        /* \"src/smartcontracts/CryptoQuestTheShardsOfGenesisMMORPG.sol\":6445:6813  function createGuild(string memory name, address leader) public onlyRole(GAME_ADMIN_ROLE) {... */\n    tag_16:\n      callvalue\n      dup1\n      iszero\n      tag_121\n      jumpi\n      0x00\n      dup1\n      revert\n    tag_121:\n      pop\n      tag_64\n      tag_123\n      calldatasize\n      0x04\n      tag_124\n      jump\t// in\n    tag_123:\n      tag_125\n      jump\t// in\n        /* \"@openzeppelin/contracts-upgradeable/proxy/utils/UUPSUpgradeable.sol\":3705:3839  function proxiableUUID() external view virtual notDelegated returns (bytes32) {... */\n    tag_17:\n      callvalue\n      dup1\n      iszero\n      tag_126\n      jumpi\n      0x00\n      dup1\n      revert\n    tag_126:\n      pop\n      tag_74\n      tag_128\n      jump\t// in\n        /* \"@openzeppelin/contracts-upgradeable/utils/PausableUpgradeable.sol\":2692:2837  function paused() public view virtual returns (bool) {... */\n    tag_18:\n      callvalue\n      dup1\n      iszero\n      tag_130\n      jumpi\n      0x00\n      dup1\n      revert\n    tag_130:\n      pop\n      0x00\n      dup1\n      mload\n      0x20\n      data_c0c65a3718f3702d917c44106b91645b509d2e2d0979b70495c3babce192339f\n      dup4\n      codecopy\n      dup2\n      mload\n      swap2\n      mstore\n        /* \"@openzeppelin/contracts-upgradeable/utils/PausableUpgradeable.sol\":2821:2830  $._paused */\n      sload\n      0xff\n      and\n        /* \"@openzeppelin/contracts-upgradeable/utils/PausableUpgradeable.sol\":2692:2837  function paused() public view virtual returns (bool) {... */\n      jump(tag_52)\n        /* \"src/smartcontracts/CryptoQuestTheShardsOfGenesisMMORPG.sol\":1566:1592  IERC721 public erc721Token */\n    tag_19:\n      callvalue\n      dup1\n      iszero\n      tag_134\n      jumpi\n      0x00\n      dup1\n      revert\n    tag_134:\n      pop\n      sload(0x01)\n      tag_59\n      swap1\n      sub(shl(0xa0, 0x01), 0x01)\n      and\n      dup2\n      jump\n        /* \"src/smartcontracts/CryptoQuestTheShardsOfGenesisMMORPG.sol\":5695:5901  function startQuest(string memory title, string memory description, uint rewardXP) public onlyRole(GAME_ADMIN_ROLE) {... */\n    tag_20:\n      callvalue\n      dup1\n      iszero\n      tag_139\n      jumpi\n      0x00\n      dup1\n      revert\n    tag_139:\n      pop\n      tag_64\n      tag_141\n      calldatasize\n      0x04\n      tag_142\n      jump\t// in\n    tag_141:\n      tag_143\n      jump\t// in\n        /* \"src/smartcontracts/CryptoQuestTheShardsOfGenesisMMORPG.sol\":7585:8884  function craftItem(uint recipeId) public {... */\n    tag_21:\n      callvalue\n      dup1\n      iszero\n      tag_144\n      jumpi\n      0x00\n      dup1\n      revert\n    tag_144:\n      pop\n      tag_64\n      tag_146\n      calldatasize\n      0x04\n      tag_76\n      jump\t// in\n    tag_146:\n      tag_147\n      jump\t// in\n        /* \"src/smartcontracts/CryptoQuestTheShardsOfGenesisMMORPG.sol\":4858:4929  function pause() public onlyRole(PAUSER_ROLE) {... */\n    tag_22:\n      callvalue\n      dup1\n      iszero\n      tag_148\n      jumpi\n      0x00\n      dup1\n      revert\n    tag_148:\n      pop\n      tag_64\n      tag_150\n      jump\t// in\n        /* \"src/smartcontracts/CryptoQuestTheShardsOfGenesisMMORPG.sol\":1536:1560  IERC20 public erc20Token */\n    tag_23:\n      callvalue\n      dup1\n      iszero\n      tag_151\n      jumpi\n      0x00\n      dup1\n      revert\n    tag_151:\n      pop\n      sload(0x00)\n      tag_59\n      swap1\n      sub(shl(0xa0, 0x01), 0x01)\n      and\n      dup2\n      jump\n        /* \"@openzeppelin/contracts-upgradeable/access/AccessControlUpgradeable.sol\":3732:3939  function hasRole(bytes32 role, address account) public view virtual returns (bool) {... */\n    tag_24:\n      callvalue\n      dup1\n      iszero\n      tag_156\n      jumpi\n      0x00\n      dup1\n      revert\n    tag_156:\n      pop\n      tag_52\n      tag_158\n      calldatasize\n      0x04\n      tag_83\n      jump\t// in\n    tag_158:\n      tag_159\n      jump\t// in\n        /* \"src/smartcontracts/CryptoQuestTheShardsOfGenesisMMORPG.sol\":4419:4546  function setDAOAddress(address _daoAddress) external onlyRole(GAME_ADMIN_ROLE) {... */\n    tag_25:\n      callvalue\n      dup1\n      iszero\n      tag_161\n      jumpi\n      0x00\n      dup1\n      revert\n    tag_161:\n      pop\n      tag_64\n      tag_163\n      calldatasize\n      0x04\n      tag_103\n      jump\t// in\n    tag_163:\n      tag_164\n      jump\t// in\n        /* \"src/smartcontracts/CryptoQuestTheShardsOfGenesisMMORPG.sol\":4124:4263  function setERC721Address(address _erc721Address) external onlyRole(GAME_ADMIN_ROLE) {... */\n    tag_26:\n      callvalue\n      dup1\n      iszero\n      tag_165\n      jumpi\n      0x00\n      dup1\n      revert\n    tag_165:\n      pop\n      tag_64\n      tag_167\n      calldatasize\n      0x04\n      tag_103\n      jump\t// in\n    tag_167:\n      tag_168\n      jump\t// in\n        /* \"@openzeppelin/contracts-upgradeable/access/AccessControlUpgradeable.sol\":2317:2366  bytes32 public constant DEFAULT_ADMIN_ROLE = 0x00 */\n    tag_27:\n      callvalue\n      dup1\n      iszero\n      tag_169\n      jumpi\n      0x00\n      dup1\n      revert\n    tag_169:\n      pop\n      tag_74\n        /* \"@openzeppelin/contracts-upgradeable/access/AccessControlUpgradeable.sol\":2362:2366  0x00 */\n      0x00\n        /* \"@openzeppelin/contracts-upgradeable/access/AccessControlUpgradeable.sol\":2317:2366  bytes32 public constant DEFAULT_ADMIN_ROLE = 0x00 */\n      dup2\n      jump\n        /* \"src/smartcontracts/CryptoQuestTheShardsOfGenesisMMORPG.sol\":2661:2700  mapping(address => Guild) public guilds */\n    tag_28:\n      callvalue\n      dup1\n      iszero\n      tag_173\n      jumpi\n      0x00\n      dup1\n      revert\n    tag_173:\n      pop\n      tag_174\n      tag_175\n      calldatasize\n      0x04\n      tag_103\n      jump\t// in\n    tag_175:\n      tag_176\n      jump\t// in\n    tag_174:\n      mload(0x40)\n      tag_56\n      swap3\n      swap2\n      swap1\n      tag_178\n      jump\t// in\n        /* \"src/smartcontracts/CryptoQuestTheShardsOfGenesisMMORPG.sol\":7337:7579  function addRecipe(uint[] memory itemIds, uint resultItemId) public onlyRole(GAME_ADMIN_ROLE) {... */\n    tag_29:\n      callvalue\n      dup1\n      iszero\n      tag_179\n      jumpi\n      0x00\n      dup1\n      revert\n    tag_179:\n      pop\n      tag_64\n      tag_181\n      calldatasize\n      0x04\n      tag_182\n      jump\t// in\n    tag_181:\n      tag_183\n      jump\t// in\n        /* \"@openzeppelin/contracts-upgradeable/proxy/utils/UUPSUpgradeable.sol\":1819:1877  string public constant UPGRADE_INTERFACE_VERSION = \"5.0.0\" */\n    tag_30:\n      callvalue\n      dup1\n      iszero\n      tag_184\n      jumpi\n      0x00\n      dup1\n      revert\n    tag_184:\n      pop\n      tag_185\n      mload(0x40)\n      dup1\n      0x40\n      add\n      0x40\n      mstore\n      dup1\n      0x05\n      dup2\n      mstore\n      0x20\n      add\n      shl(0xdc, 0x0352e302e3)\n      dup2\n      mstore\n      pop\n      dup2\n      jump\n    tag_185:\n      mload(0x40)\n      tag_56\n      swap2\n      swap1\n      tag_188\n      jump\t// in\n        /* \"src/smartcontracts/CryptoQuestTheShardsOfGenesisMMORPG.sol\":4705:4852  function setFarmingAddress(address _farmingAddress) external onlyRole(GAME_ADMIN_ROLE) {... */\n    tag_31:\n      callvalue\n      dup1\n      iszero\n      tag_189\n      jumpi\n      0x00\n      dup1\n      revert\n    tag_189:\n      pop\n      tag_64\n      tag_191\n      calldatasize\n      0x04\n      tag_103\n      jump\t// in\n    tag_191:\n      tag_192\n      jump\t// in\n        /* \"src/smartcontracts/CryptoQuestTheShardsOfGenesisMMORPG.sol\":1459:1529  bytes32 public constant GAME_ADMIN_ROLE = keccak256(\"GAME_ADMIN_ROLE\") */\n    tag_32:\n      callvalue\n      dup1\n      iszero\n      tag_193\n      jumpi\n      0x00\n      dup1\n      revert\n    tag_193:\n      pop\n      tag_74\n      0x00\n      dup1\n      mload\n      0x20\n      data_3059375685003c5c33343043cb51f6c6b03e849d5b2f19339e935f8b505d9fe3\n      dup4\n      codecopy\n      dup2\n      mload\n      swap2\n      mstore\n      dup2\n      jump\n        /* \"src/smartcontracts/CryptoQuestTheShardsOfGenesisMMORPG.sol\":2521:2555  mapping(uint => Item) public items */\n    tag_33:\n      callvalue\n      dup1\n      iszero\n      tag_197\n      jumpi\n      0x00\n      dup1\n      revert\n    tag_197:\n      pop\n      tag_198\n      tag_199\n      calldatasize\n      0x04\n      tag_76\n      jump\t// in\n    tag_199:\n      tag_200\n      jump\t// in\n    tag_198:\n      mload(0x40)\n      tag_56\n      swap7\n      swap6\n      swap5\n      swap4\n      swap3\n      swap2\n      swap1\n      tag_202\n      jump\t// in\n        /* \"src/smartcontracts/CryptoQuestTheShardsOfGenesisMMORPG.sol\":2608:2655  mapping(address => Quest[]) public playerQuests */\n    tag_34:\n      callvalue\n      dup1\n      iszero\n      tag_203\n      jumpi\n      0x00\n      dup1\n      revert\n    tag_203:\n      pop\n      tag_204\n      tag_205\n      calldatasize\n      0x04\n      tag_206\n      jump\t// in\n    tag_205:\n      tag_207\n      jump\t// in\n    tag_204:\n      mload(0x40)\n      tag_56\n      swap5\n      swap4\n      swap3\n      swap2\n      swap1\n      tag_209\n      jump\t// in\n        /* \"@openzeppelin/contracts-upgradeable/access/AccessControlUpgradeable.sol\":5662:5800  function revokeRole(bytes32 role, address account) public virtual onlyRole(getRoleAdmin(role)) {... */\n    tag_35:\n      callvalue\n      dup1\n      iszero\n      tag_210\n      jumpi\n      0x00\n      dup1\n      revert\n    tag_210:\n      pop\n      tag_64\n      tag_212\n      calldatasize\n      0x04\n      tag_83\n      jump\t// in\n    tag_212:\n      tag_213\n      jump\t// in\n        /* \"src/smartcontracts/CryptoQuestTheShardsOfGenesisMMORPG.sol\":4269:4413  function setERC1155Address(address _erc1155Address) external onlyRole(GAME_ADMIN_ROLE) {... */\n    tag_36:\n      callvalue\n      dup1\n      iszero\n      tag_214\n      jumpi\n      0x00\n      dup1\n      revert\n    tag_214:\n      pop\n      tag_64\n      tag_216\n      calldatasize\n      0x04\n      tag_103\n      jump\t// in\n    tag_216:\n      tag_217\n      jump\t// in\n        /* \"src/smartcontracts/CryptoQuestTheShardsOfGenesisMMORPG.sol\":2561:2602  mapping(address => Player) public players */\n    tag_37:\n      callvalue\n      dup1\n      iszero\n      tag_218\n      jumpi\n      0x00\n      dup1\n      revert\n    tag_218:\n      pop\n      tag_219\n      tag_220\n      calldatasize\n      0x04\n      tag_103\n      jump\t// in\n    tag_220:\n      mstore(0x20, 0x09)\n      0x00\n      swap1\n      dup2\n      mstore\n      0x40\n      swap1\n      keccak256\n      dup1\n      sload\n      0x01\n      dup3\n      add\n      sload\n      0x02\n      dup4\n      add\n      sload\n      0x03\n      dup5\n      add\n      sload\n      0x04\n      dup6\n      add\n      sload\n      0x05\n      dup7\n      add\n      sload\n      0x06\n      dup8\n      add\n      sload\n      0x07\n      swap1\n      swap8\n      add\n      sload\n      swap6\n      swap7\n      swap5\n      swap6\n      swap4\n      swap5\n      swap3\n      swap4\n      swap2\n      swap3\n      swap1\n      swap2\n      dup9\n      jump\n    tag_219:\n      0x40\n      dup1\n      mload\n        /* \"#utility.yul\":10736:10761   */\n      swap9\n      dup10\n      mstore\n        /* \"#utility.yul\":10792:10794   */\n      0x20\n        /* \"#utility.yul\":10777:10795   */\n      dup10\n      add\n        /* \"#utility.yul\":10770:10804   */\n      swap8\n      swap1\n      swap8\n      mstore\n        /* \"#utility.yul\":10820:10838   */\n      swap6\n      dup8\n      add\n        /* \"#utility.yul\":10813:10847   */\n      swap5\n      swap1\n      swap5\n      mstore\n        /* \"#utility.yul\":10878:10880   */\n      0x60\n        /* \"#utility.yul\":10863:10881   */\n      dup7\n      add\n        /* \"#utility.yul\":10856:10890   */\n      swap3\n      swap1\n      swap3\n      mstore\n        /* \"#utility.yul\":10921:10924   */\n      0x80\n        /* \"#utility.yul\":10906:10925   */\n      dup6\n      add\n        /* \"#utility.yul\":10899:10934   */\n      mstore\n        /* \"#utility.yul\":10965:10968   */\n      0xa0\n        /* \"#utility.yul\":10950:10969   */\n      dup5\n      add\n        /* \"#utility.yul\":10943:10978   */\n      mstore\n        /* \"#utility.yul\":11009:11012   */\n      0xc0\n        /* \"#utility.yul\":10994:11013   */\n      dup4\n      add\n        /* \"#utility.yul\":10987:11022   */\n      mstore\n        /* \"#utility.yul\":11053:11056   */\n      0xe0\n        /* \"#utility.yul\":11038:11057   */\n      dup3\n      add\n        /* \"#utility.yul\":11031:11066   */\n      mstore\n        /* \"#utility.yul\":10723:10726   */\n      0x0100\n        /* \"#utility.yul\":10708:10727   */\n      add\n        /* \"src/smartcontracts/CryptoQuestTheShardsOfGenesisMMORPG.sol\":2561:2602  mapping(address => Player) public players */\n      tag_56\n        /* \"#utility.yul\":10393:11072   */\n      jump\n        /* \"src/smartcontracts/CryptoQuestTheShardsOfGenesisMMORPG.sol\":6819:7331  function joinGuild(string memory guildName) public {... */\n    tag_38:\n      callvalue\n      dup1\n      iszero\n      tag_224\n      jumpi\n      0x00\n      dup1\n      revert\n    tag_224:\n      pop\n      tag_64\n      tag_226\n      calldatasize\n      0x04\n      tag_66\n      jump\t// in\n    tag_226:\n      tag_227\n      jump\t// in\n        /* \"src/smartcontracts/CryptoQuestTheShardsOfGenesisMMORPG.sol\":1319:1381  bytes32 public constant PAUSER_ROLE = keccak256(\"PAUSER_ROLE\") */\n    tag_39:\n      callvalue\n      dup1\n      iszero\n      tag_228\n      jumpi\n      0x00\n      dup1\n      revert\n    tag_228:\n      pop\n      tag_74\n      0x00\n      dup1\n      mload\n      0x20\n      data_9b87106a812d214d41ad9b68a21119e2948eaaf1040375c939ec808b8862455c\n      dup4\n      codecopy\n      dup2\n      mload\n      swap2\n      mstore\n      dup2\n      jump\n        /* \"src/smartcontracts/CryptoQuestTheShardsOfGenesisMMORPG.sol\":1661:1692  IStaking public stakingContract */\n    tag_40:\n      callvalue\n      dup1\n      iszero\n      tag_232\n      jumpi\n      0x00\n      dup1\n      revert\n    tag_232:\n      pop\n      sload(0x04)\n      tag_59\n      swap1\n      sub(shl(0xa0, 0x01), 0x01)\n      and\n      dup2\n      jump\n        /* \"src/smartcontracts/CryptoQuestTheShardsOfGenesisMMORPG.sol\":4552:4699  function setStakingAddress(address _stakingAddress) external onlyRole(GAME_ADMIN_ROLE) {... */\n    tag_41:\n      callvalue\n      dup1\n      iszero\n      tag_237\n      jumpi\n      0x00\n      dup1\n      revert\n    tag_237:\n      pop\n      tag_64\n      tag_239\n      calldatasize\n      0x04\n      tag_103\n      jump\t// in\n    tag_239:\n      tag_240\n      jump\t// in\n        /* \"src/smartcontracts/CryptoQuestTheShardsOfGenesisMMORPG.sol\":3081:3978  function initialize(... */\n    tag_42:\n      callvalue\n      dup1\n      iszero\n      tag_241\n      jumpi\n      0x00\n      dup1\n      revert\n    tag_241:\n      pop\n      tag_64\n      tag_243\n      calldatasize\n      0x04\n      tag_244\n      jump\t// in\n    tag_243:\n      tag_245\n      jump\t// in\n        /* \"src/smartcontracts/CryptoQuestTheShardsOfGenesisMMORPG.sol\":1387:1453  bytes32 public constant UPGRADER_ROLE = keccak256(\"UPGRADER_ROLE\") */\n    tag_43:\n      callvalue\n      dup1\n      iszero\n      tag_246\n      jumpi\n      0x00\n      dup1\n      revert\n    tag_246:\n      pop\n      tag_74\n        /* \"src/smartcontracts/CryptoQuestTheShardsOfGenesisMMORPG.sol\":1427:1453  keccak256(\"UPGRADER_ROLE\") */\n      0x189ab7a9244df0848122154315af71fe140f3db0fe014031783b0946b8c9d2e3\n        /* \"src/smartcontracts/CryptoQuestTheShardsOfGenesisMMORPG.sol\":1387:1453  bytes32 public constant UPGRADER_ROLE = keccak256(\"UPGRADER_ROLE\") */\n      dup2\n      jump\n        /* \"@openzeppelin/contracts-upgradeable/access/AccessControlUpgradeable.sol\":3443:3645  function supportsInterface(bytes4 interfaceId) public view virtual override returns (bool) {... */\n    tag_55:\n        /* \"@openzeppelin/contracts-upgradeable/access/AccessControlUpgradeable.sol\":3528:3532  bool */\n      0x00\n      not(sub(shl(0xe0, 0x01), 0x01))\n        /* \"@openzeppelin/contracts-upgradeable/access/AccessControlUpgradeable.sol\":3551:3598  interfaceId == type(IAccessControl).interfaceId */\n      dup3\n      and\n      shl(0xe0, 0x7965db0b)\n      eq\n      dup1\n        /* \"@openzeppelin/contracts-upgradeable/access/AccessControlUpgradeable.sol\":3551:3638  interfaceId == type(IAccessControl).interfaceId || super.supportsInterface(interfaceId) */\n      tag_252\n      jumpi\n      pop\n      shl(0xe0, 0x01ffc9a7)\n      not(sub(shl(0xe0, 0x01), 0x01))\n        /* \"@openzeppelin/contracts-upgradeable/utils/introspection/ERC165Upgradeable.sol\":1133:1173  interfaceId == type(IERC165).interfaceId */\n      dup4\n      and\n      eq\n        /* \"@openzeppelin/contracts-upgradeable/access/AccessControlUpgradeable.sol\":3602:3638  super.supportsInterface(interfaceId) */\n    tag_252:\n        /* \"@openzeppelin/contracts-upgradeable/access/AccessControlUpgradeable.sol\":3544:3638  return interfaceId == type(IAccessControl).interfaceId || super.supportsInterface(interfaceId) */\n      swap3\n        /* \"@openzeppelin/contracts-upgradeable/access/AccessControlUpgradeable.sol\":3443:3645  function supportsInterface(bytes4 interfaceId) public view virtual override returns (bool) {... */\n      swap2\n      pop\n      pop\n      jump\t// out\n        /* \"src/smartcontracts/CryptoQuestTheShardsOfGenesisMMORPG.sol\":5907:6439  function completeQuest(string memory questTitle) public {... */\n    tag_67:\n        /* \"src/smartcontracts/CryptoQuestTheShardsOfGenesisMMORPG.sol\":5978:5984  uint i */\n      0x00\n        /* \"src/smartcontracts/CryptoQuestTheShardsOfGenesisMMORPG.sol\":5973:6433  for (uint i = 0; i < playerQuests[msg.sender].length; i++) {... */\n    tag_255:\n        /* \"src/smartcontracts/CryptoQuestTheShardsOfGenesisMMORPG.sol\":6007:6017  msg.sender */\n      caller\n        /* \"src/smartcontracts/CryptoQuestTheShardsOfGenesisMMORPG.sol\":5994:6018  playerQuests[msg.sender] */\n      0x00\n      swap1\n      dup2\n      mstore\n        /* \"src/smartcontracts/CryptoQuestTheShardsOfGenesisMMORPG.sol\":5994:6006  playerQuests */\n      0x0a\n        /* \"src/smartcontracts/CryptoQuestTheShardsOfGenesisMMORPG.sol\":5994:6018  playerQuests[msg.sender] */\n      0x20\n      mstore\n      0x40\n      swap1\n      keccak256\n        /* \"src/smartcontracts/CryptoQuestTheShardsOfGenesisMMORPG.sol\":5994:6025  playerQuests[msg.sender].length */\n      sload\n        /* \"src/smartcontracts/CryptoQuestTheShardsOfGenesisMMORPG.sol\":5990:6025  i < playerQuests[msg.sender].length */\n      dup2\n      lt\n        /* \"src/smartcontracts/CryptoQuestTheShardsOfGenesisMMORPG.sol\":5973:6433  for (uint i = 0; i < playerQuests[msg.sender].length; i++) {... */\n      iszero\n      tag_256\n      jumpi\n        /* \"src/smartcontracts/CryptoQuestTheShardsOfGenesisMMORPG.sol\":6081:6091  msg.sender */\n      caller\n        /* \"src/smartcontracts/CryptoQuestTheShardsOfGenesisMMORPG.sol\":6046:6065  Quest storage quest */\n      0x00\n        /* \"src/smartcontracts/CryptoQuestTheShardsOfGenesisMMORPG.sol\":6068:6092  playerQuests[msg.sender] */\n      swap1\n      dup2\n      mstore\n        /* \"src/smartcontracts/CryptoQuestTheShardsOfGenesisMMORPG.sol\":6068:6080  playerQuests */\n      0x0a\n        /* \"src/smartcontracts/CryptoQuestTheShardsOfGenesisMMORPG.sol\":6068:6092  playerQuests[msg.sender] */\n      0x20\n      mstore\n      0x40\n      dup2\n      keccak256\n        /* \"src/smartcontracts/CryptoQuestTheShardsOfGenesisMMORPG.sol\":6068:6095  playerQuests[msg.sender][i] */\n      dup1\n      sload\n        /* \"src/smartcontracts/CryptoQuestTheShardsOfGenesisMMORPG.sol\":6093:6094  i */\n      dup4\n      swap1\n        /* \"src/smartcontracts/CryptoQuestTheShardsOfGenesisMMORPG.sol\":6068:6095  playerQuests[msg.sender][i] */\n      dup2\n      lt\n      tag_259\n      jumpi\n      tag_259\n      tag_260\n      jump\t// in\n    tag_259:\n      swap1\n      0x00\n      mstore\n      keccak256(0x00, 0x20)\n      swap1\n      0x04\n      mul\n      add\n        /* \"src/smartcontracts/CryptoQuestTheShardsOfGenesisMMORPG.sol\":6046:6095  Quest storage quest = playerQuests[msg.sender][i] */\n      swap1\n      pop\n        /* \"src/smartcontracts/CryptoQuestTheShardsOfGenesisMMORPG.sol\":6184:6194  questTitle */\n      dup3\n        /* \"src/smartcontracts/CryptoQuestTheShardsOfGenesisMMORPG.sol\":6167:6195  abi.encodePacked(questTitle) */\n      add(0x20, mload(0x40))\n      tag_262\n      swap2\n      swap1\n      tag_263\n      jump\t// in\n    tag_262:\n      0x40\n      dup1\n      mload\n      not(0x1f)\n      dup2\n      dup5\n      sub\n      add\n      dup2\n      mstore\n      swap1\n      dup3\n      swap1\n      mstore\n        /* \"src/smartcontracts/CryptoQuestTheShardsOfGenesisMMORPG.sol\":6157:6196  keccak256(abi.encodePacked(questTitle)) */\n      dup1\n      mload\n        /* \"src/smartcontracts/CryptoQuestTheShardsOfGenesisMMORPG.sol\":6167:6195  abi.encodePacked(questTitle) */\n      0x20\n        /* \"src/smartcontracts/CryptoQuestTheShardsOfGenesisMMORPG.sol\":6157:6196  keccak256(abi.encodePacked(questTitle)) */\n      swap2\n      dup3\n      add\n      keccak256\n      swap2\n        /* \"src/smartcontracts/CryptoQuestTheShardsOfGenesisMMORPG.sol\":6123:6152  abi.encodePacked(quest.title) */\n      tag_264\n      swap2\n        /* \"src/smartcontracts/CryptoQuestTheShardsOfGenesisMMORPG.sol\":6140:6145  quest */\n      dup5\n      swap2\n        /* \"src/smartcontracts/CryptoQuestTheShardsOfGenesisMMORPG.sol\":6123:6152  abi.encodePacked(quest.title) */\n      add\n      tag_265\n      jump\t// in\n    tag_264:\n      mload(0x40)\n      0x20\n      dup2\n      dup4\n      sub\n      sub\n      dup2\n      mstore\n      swap1\n      0x40\n      mstore\n        /* \"src/smartcontracts/CryptoQuestTheShardsOfGenesisMMORPG.sol\":6113:6153  keccak256(abi.encodePacked(quest.title)) */\n      dup1\n      mload\n      swap1\n      0x20\n      add\n      keccak256\n        /* \"src/smartcontracts/CryptoQuestTheShardsOfGenesisMMORPG.sol\":6113:6196  keccak256(abi.encodePacked(quest.title)) == keccak256(abi.encodePacked(questTitle)) */\n      eq\n        /* \"src/smartcontracts/CryptoQuestTheShardsOfGenesisMMORPG.sol\":6113:6216  keccak256(abi.encodePacked(quest.title)) == keccak256(abi.encodePacked(questTitle)) && !quest.completed */\n      dup1\n      iszero\n      tag_266\n      jumpi\n      pop\n        /* \"src/smartcontracts/CryptoQuestTheShardsOfGenesisMMORPG.sol\":6201:6216  quest.completed */\n      0x03\n      dup2\n      add\n      sload\n      0xff\n      and\n        /* \"src/smartcontracts/CryptoQuestTheShardsOfGenesisMMORPG.sol\":6200:6216  !quest.completed */\n      iszero\n        /* \"src/smartcontracts/CryptoQuestTheShardsOfGenesisMMORPG.sol\":6113:6216  keccak256(abi.encodePacked(quest.title)) == keccak256(abi.encodePacked(questTitle)) && !quest.completed */\n    tag_266:\n        /* \"src/smartcontracts/CryptoQuestTheShardsOfGenesisMMORPG.sol\":6109:6423  if (keccak256(abi.encodePacked(quest.title)) == keccak256(abi.encodePacked(questTitle)) && !quest.completed) {... */\n      iszero\n      tag_267\n      jumpi\n        /* \"src/smartcontracts/CryptoQuestTheShardsOfGenesisMMORPG.sol\":6236:6251  quest.completed */\n      0x03\n      dup2\n      add\n        /* \"src/smartcontracts/CryptoQuestTheShardsOfGenesisMMORPG.sol\":6236:6258  quest.completed = true */\n      dup1\n      sload\n      not(0xff)\n      and\n        /* \"src/smartcontracts/CryptoQuestTheShardsOfGenesisMMORPG.sol\":6254:6258  true */\n      0x01\n        /* \"src/smartcontracts/CryptoQuestTheShardsOfGenesisMMORPG.sol\":6236:6258  quest.completed = true */\n      swap1\n      dup2\n      or\n      swap1\n      swap2\n      sstore\n        /* \"src/smartcontracts/CryptoQuestTheShardsOfGenesisMMORPG.sol\":6310:6324  quest.rewardXP */\n      0x02\n      dup3\n      add\n      sload\n        /* \"src/smartcontracts/CryptoQuestTheShardsOfGenesisMMORPG.sol\":6284:6294  msg.sender */\n      caller\n        /* \"src/smartcontracts/CryptoQuestTheShardsOfGenesisMMORPG.sol\":6236:6251  quest.completed */\n      0x00\n        /* \"src/smartcontracts/CryptoQuestTheShardsOfGenesisMMORPG.sol\":6276:6295  players[msg.sender] */\n      swap1\n      dup2\n      mstore\n        /* \"src/smartcontracts/CryptoQuestTheShardsOfGenesisMMORPG.sol\":6276:6283  players */\n      0x09\n        /* \"src/smartcontracts/CryptoQuestTheShardsOfGenesisMMORPG.sol\":6276:6295  players[msg.sender] */\n      0x20\n      mstore\n      0x40\n      dup2\n      keccak256\n        /* \"src/smartcontracts/CryptoQuestTheShardsOfGenesisMMORPG.sol\":6276:6306  players[msg.sender].experience */\n      swap1\n      swap3\n      add\n        /* \"src/smartcontracts/CryptoQuestTheShardsOfGenesisMMORPG.sol\":6276:6324  players[msg.sender].experience += quest.rewardXP */\n      dup1\n      sload\n        /* \"src/smartcontracts/CryptoQuestTheShardsOfGenesisMMORPG.sol\":6310:6324  quest.rewardXP */\n      swap2\n      swap3\n        /* \"src/smartcontracts/CryptoQuestTheShardsOfGenesisMMORPG.sol\":6276:6306  players[msg.sender].experience */\n      swap1\n      swap2\n        /* \"src/smartcontracts/CryptoQuestTheShardsOfGenesisMMORPG.sol\":6276:6324  players[msg.sender].experience += quest.rewardXP */\n      tag_268\n      swap1\n        /* \"src/smartcontracts/CryptoQuestTheShardsOfGenesisMMORPG.sol\":6310:6324  quest.rewardXP */\n      dup5\n      swap1\n        /* \"src/smartcontracts/CryptoQuestTheShardsOfGenesisMMORPG.sol\":6276:6324  players[msg.sender].experience += quest.rewardXP */\n      tag_269\n      jump\t// in\n    tag_268:\n      swap1\n      swap2\n      sstore\n      pop\n      pop\n        /* \"src/smartcontracts/CryptoQuestTheShardsOfGenesisMMORPG.sol\":6347:6385  QuestCompleted(msg.sender, questTitle) */\n      mload(0x40)\n        /* \"src/smartcontracts/CryptoQuestTheShardsOfGenesisMMORPG.sol\":6362:6372  msg.sender */\n      caller\n      swap1\n        /* \"src/smartcontracts/CryptoQuestTheShardsOfGenesisMMORPG.sol\":6347:6385  QuestCompleted(msg.sender, questTitle) */\n      0xbe21664565742a9f42cbb6d005f92db59c7bcad35b12ef5b57b79e75676b247a\n      swap1\n      tag_270\n      swap1\n        /* \"src/smartcontracts/CryptoQuestTheShardsOfGenesisMMORPG.sol\":6374:6384  questTitle */\n      dup7\n      swap1\n        /* \"src/smartcontracts/CryptoQuestTheShardsOfGenesisMMORPG.sol\":6347:6385  QuestCompleted(msg.sender, questTitle) */\n      tag_188\n      jump\t// in\n    tag_270:\n      mload(0x40)\n      dup1\n      swap2\n      sub\n      swap1\n      log2\n        /* \"src/smartcontracts/CryptoQuestTheShardsOfGenesisMMORPG.sol\":6403:6408  break */\n      pop\n        /* \"src/smartcontracts/CryptoQuestTheShardsOfGenesisMMORPG.sol\":5973:6433  for (uint i = 0; i < playerQuests[msg.sender].length; i++) {... */\n      pop\n        /* \"src/smartcontracts/CryptoQuestTheShardsOfGenesisMMORPG.sol\":5907:6439  function completeQuest(string memory questTitle) public {... */\n      pop\n      jump\t// out\n        /* \"src/smartcontracts/CryptoQuestTheShardsOfGenesisMMORPG.sol\":6109:6423  if (keccak256(abi.encodePacked(quest.title)) == keccak256(abi.encodePacked(questTitle)) && !quest.completed) {... */\n    tag_267:\n      pop\n        /* \"src/smartcontracts/CryptoQuestTheShardsOfGenesisMMORPG.sol\":6027:6030  i++ */\n      0x01\n      add\n        /* \"src/smartcontracts/CryptoQuestTheShardsOfGenesisMMORPG.sol\":5973:6433  for (uint i = 0; i < playerQuests[msg.sender].length; i++) {... */\n      jump(tag_255)\n    tag_256:\n      pop\n        /* \"src/smartcontracts/CryptoQuestTheShardsOfGenesisMMORPG.sol\":5907:6439  function completeQuest(string memory questTitle) public {... */\n      pop\n      jump\t// out\n        /* \"@openzeppelin/contracts-upgradeable/access/AccessControlUpgradeable.sol\":4759:4950  function getRoleAdmin(bytes32 role) public view virtual returns (bytes32) {... */\n    tag_77:\n        /* \"@openzeppelin/contracts-upgradeable/access/AccessControlUpgradeable.sol\":4824:4831  bytes32 */\n      0x00\n        /* \"@openzeppelin/contracts-upgradeable/access/AccessControlUpgradeable.sol\":4919:4933  $._roles[role] */\n      swap1\n      dup2\n      mstore\n      0x00\n      dup1\n      mload\n      0x20\n      data_b3da67d1b252aeab7c8063542d95e75f82a5307a82535949bc38f7cf7ba8897f\n      dup4\n      codecopy\n      dup2\n      mload\n      swap2\n      mstore\n      0x20\n      mstore\n      0x40\n      swap1\n      keccak256\n        /* \"@openzeppelin/contracts-upgradeable/access/AccessControlUpgradeable.sol\":4919:4943  $._roles[role].adminRole */\n      0x01\n      add\n      sload\n      swap1\n        /* \"@openzeppelin/contracts-upgradeable/access/AccessControlUpgradeable.sol\":4759:4950  function getRoleAdmin(bytes32 role) public view virtual returns (bytes32) {... */\n      jump\t// out\n        /* \"@openzeppelin/contracts-upgradeable/access/AccessControlUpgradeable.sol\":5246:5382  function grantRole(bytes32 role, address account) public virtual onlyRole(getRoleAdmin(role)) {... */\n    tag_84:\n        /* \"@openzeppelin/contracts-upgradeable/access/AccessControlUpgradeable.sol\":5320:5338  getRoleAdmin(role) */\n      tag_274\n        /* \"@openzeppelin/contracts-upgradeable/access/AccessControlUpgradeable.sol\":5333:5337  role */\n      dup3\n        /* \"@openzeppelin/contracts-upgradeable/access/AccessControlUpgradeable.sol\":5320:5332  getRoleAdmin */\n      tag_77\n        /* \"@openzeppelin/contracts-upgradeable/access/AccessControlUpgradeable.sol\":5320:5338  getRoleAdmin(role) */\n      jump\t// in\n    tag_274:\n        /* \"@openzeppelin/contracts-upgradeable/access/AccessControlUpgradeable.sol\":3191:3207  _checkRole(role) */\n      tag_276\n        /* \"@openzeppelin/contracts-upgradeable/access/AccessControlUpgradeable.sol\":3202:3206  role */\n      dup2\n        /* \"@openzeppelin/contracts-upgradeable/access/AccessControlUpgradeable.sol\":3191:3201  _checkRole */\n      tag_277\n        /* \"@openzeppelin/contracts-upgradeable/access/AccessControlUpgradeable.sol\":3191:3207  _checkRole(role) */\n      jump\t// in\n    tag_276:\n        /* \"@openzeppelin/contracts-upgradeable/access/AccessControlUpgradeable.sol\":5350:5375  _grantRole(role, account) */\n      tag_279\n        /* \"@openzeppelin/contracts-upgradeable/access/AccessControlUpgradeable.sol\":5361:5365  role */\n      dup4\n        /* \"@openzeppelin/contracts-upgradeable/access/AccessControlUpgradeable.sol\":5367:5374  account */\n      dup4\n        /* \"@openzeppelin/contracts-upgradeable/access/AccessControlUpgradeable.sol\":5350:5360  _grantRole */\n      tag_280\n        /* \"@openzeppelin/contracts-upgradeable/access/AccessControlUpgradeable.sol\":5350:5375  _grantRole(role, account) */\n      jump\t// in\n    tag_279:\n      pop\n        /* \"@openzeppelin/contracts-upgradeable/access/AccessControlUpgradeable.sol\":5246:5382  function grantRole(bytes32 role, address account) public virtual onlyRole(getRoleAdmin(role)) {... */\n      pop\n      pop\n      pop\n      jump\t// out\n        /* \"src/smartcontracts/CryptoQuestTheShardsOfGenesisMMORPG.sol\":5374:5689  function addItem(string memory name, uint attackBonus, uint defenseBonus, uint manaBonus, uint healthBonus) public onlyRole(GAME_ADMIN_ROLE) {... */\n    tag_89:\n      0x00\n      dup1\n      mload\n      0x20\n      data_3059375685003c5c33343043cb51f6c6b03e849d5b2f19339e935f8b505d9fe3\n      dup4\n      codecopy\n      dup2\n      mload\n      swap2\n      mstore\n        /* \"@openzeppelin/contracts-upgradeable/access/AccessControlUpgradeable.sol\":3191:3207  _checkRole(role) */\n      tag_282\n        /* \"@openzeppelin/contracts-upgradeable/access/AccessControlUpgradeable.sol\":3202:3206  role */\n      dup2\n        /* \"@openzeppelin/contracts-upgradeable/access/AccessControlUpgradeable.sol\":3191:3201  _checkRole */\n      tag_277\n        /* \"@openzeppelin/contracts-upgradeable/access/AccessControlUpgradeable.sol\":3191:3207  _checkRole(role) */\n      jump\t// in\n    tag_282:\n        /* \"src/smartcontracts/CryptoQuestTheShardsOfGenesisMMORPG.sol\":5545:5618  Item(nextItemId, name, attackBonus, defenseBonus, manaBonus, healthBonus) */\n      0x40\n      dup1\n      mload\n      0xc0\n      dup2\n      add\n      dup3\n      mstore\n        /* \"src/smartcontracts/CryptoQuestTheShardsOfGenesisMMORPG.sol\":5550:5560  nextItemId */\n      sload(0x06)\n        /* \"src/smartcontracts/CryptoQuestTheShardsOfGenesisMMORPG.sol\":5545:5618  Item(nextItemId, name, attackBonus, defenseBonus, manaBonus, healthBonus) */\n      dup1\n      dup3\n      mstore\n      0x20\n      dup1\n      dup4\n      add\n      dup11\n      dup2\n      mstore\n      dup4\n      dup6\n      add\n      dup11\n      swap1\n      mstore\n      0x60\n      dup5\n      add\n      dup10\n      swap1\n      mstore\n      0x80\n      dup5\n      add\n      dup9\n      swap1\n      mstore\n      0xa0\n      dup5\n      add\n      dup8\n      swap1\n      mstore\n      0x00\n        /* \"src/smartcontracts/CryptoQuestTheShardsOfGenesisMMORPG.sol\":5525:5542  items[nextItemId] */\n      swap3\n      dup4\n      mstore\n        /* \"src/smartcontracts/CryptoQuestTheShardsOfGenesisMMORPG.sol\":5525:5530  items */\n      0x08\n        /* \"src/smartcontracts/CryptoQuestTheShardsOfGenesisMMORPG.sol\":5525:5542  items[nextItemId] */\n      swap1\n      swap2\n      mstore\n      swap3\n      swap1\n      keccak256\n        /* \"src/smartcontracts/CryptoQuestTheShardsOfGenesisMMORPG.sol\":5525:5618  items[nextItemId] = Item(nextItemId, name, attackBonus, defenseBonus, manaBonus, healthBonus) */\n      dup2\n      mload\n      dup2\n      sstore\n      swap2\n      mload\n        /* \"src/smartcontracts/CryptoQuestTheShardsOfGenesisMMORPG.sol\":5545:5618  Item(nextItemId, name, attackBonus, defenseBonus, manaBonus, healthBonus) */\n      swap1\n      swap2\n        /* \"src/smartcontracts/CryptoQuestTheShardsOfGenesisMMORPG.sol\":5525:5542  items[nextItemId] */\n      swap1\n        /* \"src/smartcontracts/CryptoQuestTheShardsOfGenesisMMORPG.sol\":5525:5618  items[nextItemId] = Item(nextItemId, name, attackBonus, defenseBonus, manaBonus, healthBonus) */\n      0x01\n      dup3\n      add\n      swap1\n      tag_284\n      swap1\n      dup3\n      tag_285\n      jump\t// in\n    tag_284:\n      pop\n      0x40\n      dup3\n      add\n      mload\n      dup2\n      0x02\n      add\n      sstore\n      0x60\n      dup3\n      add\n      mload\n      dup2\n      0x03\n      add\n      sstore\n      0x80\n      dup3\n      add\n      mload\n      dup2\n      0x04\n      add\n      sstore\n      0xa0\n      dup3\n      add\n      mload\n      dup2\n      0x05\n      add\n      sstore\n      swap1\n      pop\n      pop\n        /* \"src/smartcontracts/CryptoQuestTheShardsOfGenesisMMORPG.sol\":5633:5660  ItemAdded(nextItemId, name) */\n      0x78d68ba0e8c23b92e7c700d99efed2719520cbd4af845b2c03ae251f9cdf3d52\n        /* \"src/smartcontracts/CryptoQuestTheShardsOfGenesisMMORPG.sol\":5643:5653  nextItemId */\n      sload(0x06)\n        /* \"src/smartcontracts/CryptoQuestTheShardsOfGenesisMMORPG.sol\":5655:5659  name */\n      dup8\n        /* \"src/smartcontracts/CryptoQuestTheShardsOfGenesisMMORPG.sol\":5633:5660  ItemAdded(nextItemId, name) */\n      mload(0x40)\n      tag_286\n      swap3\n      swap2\n      swap1\n      tag_287\n      jump\t// in\n    tag_286:\n      mload(0x40)\n      dup1\n      swap2\n      sub\n      swap1\n      log1\n        /* \"src/smartcontracts/CryptoQuestTheShardsOfGenesisMMORPG.sol\":5670:5680  nextItemId */\n      0x06\n        /* \"src/smartcontracts/CryptoQuestTheShardsOfGenesisMMORPG.sol\":5670:5682  nextItemId++ */\n      dup1\n      sload\n      swap1\n        /* \"src/smartcontracts/CryptoQuestTheShardsOfGenesisMMORPG.sol\":5670:5680  nextItemId */\n      0x00\n        /* \"src/smartcontracts/CryptoQuestTheShardsOfGenesisMMORPG.sol\":5670:5682  nextItemId++ */\n      tag_288\n      dup4\n      tag_289\n      jump\t// in\n    tag_288:\n      swap2\n      swap1\n      pop\n      sstore\n      pop\n        /* \"src/smartcontracts/CryptoQuestTheShardsOfGenesisMMORPG.sol\":5374:5689  function addItem(string memory name, uint attackBonus, uint defenseBonus, uint manaBonus, uint healthBonus) public onlyRole(GAME_ADMIN_ROLE) {... */\n      pop\n      pop\n      pop\n      pop\n      pop\n      pop\n      jump\t// out\n        /* \"@openzeppelin/contracts-upgradeable/access/AccessControlUpgradeable.sol\":6348:6593  function renounceRole(bytes32 role, address callerConfirmation) public virtual {... */\n    tag_93:\n      sub(shl(0xa0, 0x01), 0x01)\n        /* \"@openzeppelin/contracts-upgradeable/access/AccessControlUpgradeable.sol\":6441:6475  callerConfirmation != _msgSender() */\n      dup2\n      and\n        /* \"@openzeppelin/contracts-upgradeable/utils/ContextUpgradeable.sol\":966:976  msg.sender */\n      caller\n        /* \"@openzeppelin/contracts-upgradeable/access/AccessControlUpgradeable.sol\":6441:6475  callerConfirmation != _msgSender() */\n      eq\n        /* \"@openzeppelin/contracts-upgradeable/access/AccessControlUpgradeable.sol\":6437:6539  if (callerConfirmation != _msgSender()) {... */\n      tag_293\n      jumpi\n        /* \"@openzeppelin/contracts-upgradeable/access/AccessControlUpgradeable.sol\":6498:6528  AccessControlBadConfirmation() */\n      mload(0x40)\n      shl(0xe1, 0x334bd919)\n      dup2\n      mstore\n      0x04\n      add\n      mload(0x40)\n      dup1\n      swap2\n      sub\n      swap1\n      revert\n        /* \"@openzeppelin/contracts-upgradeable/access/AccessControlUpgradeable.sol\":6437:6539  if (callerConfirmation != _msgSender()) {... */\n    tag_293:\n        /* \"@openzeppelin/contracts-upgradeable/access/AccessControlUpgradeable.sol\":6549:6586  _revokeRole(role, callerConfirmation) */\n      tag_294\n        /* \"@openzeppelin/contracts-upgradeable/access/AccessControlUpgradeable.sol\":6561:6565  role */\n      dup3\n        /* \"@openzeppelin/contracts-upgradeable/access/AccessControlUpgradeable.sol\":6567:6585  callerConfirmation */\n      dup3\n        /* \"@openzeppelin/contracts-upgradeable/access/AccessControlUpgradeable.sol\":6549:6560  _revokeRole */\n      tag_295\n        /* \"@openzeppelin/contracts-upgradeable/access/AccessControlUpgradeable.sol\":6549:6586  _revokeRole(role, callerConfirmation) */\n      jump\t// in\n    tag_294:\n      pop\n        /* \"@openzeppelin/contracts-upgradeable/access/AccessControlUpgradeable.sol\":6348:6593  function renounceRole(bytes32 role, address callerConfirmation) public virtual {... */\n      pop\n      pop\n      jump\t// out\n        /* \"src/smartcontracts/CryptoQuestTheShardsOfGenesisMMORPG.sol\":4935:5010  function unpause() public onlyRole(PAUSER_ROLE) {... */\n    tag_96:\n      0x00\n      dup1\n      mload\n      0x20\n      data_9b87106a812d214d41ad9b68a21119e2948eaaf1040375c939ec808b8862455c\n      dup4\n      codecopy\n      dup2\n      mload\n      swap2\n      mstore\n        /* \"@openzeppelin/contracts-upgradeable/access/AccessControlUpgradeable.sol\":3191:3207  _checkRole(role) */\n      tag_297\n        /* \"@openzeppelin/contracts-upgradeable/access/AccessControlUpgradeable.sol\":3202:3206  role */\n      dup2\n        /* \"@openzeppelin/contracts-upgradeable/access/AccessControlUpgradeable.sol\":3191:3201  _checkRole */\n      tag_277\n        /* \"@openzeppelin/contracts-upgradeable/access/AccessControlUpgradeable.sol\":3191:3207  _checkRole(role) */\n      jump\t// in\n    tag_297:\n        /* \"src/smartcontracts/CryptoQuestTheShardsOfGenesisMMORPG.sol\":4993:5003  _unpause() */\n      tag_299\n        /* \"src/smartcontracts/CryptoQuestTheShardsOfGenesisMMORPG.sol\":4993:5001  _unpause */\n      tag_300\n        /* \"src/smartcontracts/CryptoQuestTheShardsOfGenesisMMORPG.sol\":4993:5003  _unpause() */\n      jump\t// in\n    tag_299:\n        /* \"src/smartcontracts/CryptoQuestTheShardsOfGenesisMMORPG.sol\":4935:5010  function unpause() public onlyRole(PAUSER_ROLE) {... */\n      pop\n      jump\t// out\n        /* \"src/smartcontracts/CryptoQuestTheShardsOfGenesisMMORPG.sol\":5120:5368  function createPlayer() public {... */\n    tag_99:\n        /* \"src/smartcontracts/CryptoQuestTheShardsOfGenesisMMORPG.sol\":5177:5187  msg.sender */\n      caller\n        /* \"src/smartcontracts/CryptoQuestTheShardsOfGenesisMMORPG.sol\":5169:5188  players[msg.sender] */\n      0x00\n      swap1\n      dup2\n      mstore\n        /* \"src/smartcontracts/CryptoQuestTheShardsOfGenesisMMORPG.sol\":5169:5176  players */\n      0x09\n        /* \"src/smartcontracts/CryptoQuestTheShardsOfGenesisMMORPG.sol\":5169:5188  players[msg.sender] */\n      0x20\n      mstore\n      0x40\n      swap1\n      keccak256\n        /* \"src/smartcontracts/CryptoQuestTheShardsOfGenesisMMORPG.sol\":5169:5194  players[msg.sender].level */\n      sload\n        /* \"src/smartcontracts/CryptoQuestTheShardsOfGenesisMMORPG.sol\":5169:5199  players[msg.sender].level == 0 */\n      iszero\n        /* \"src/smartcontracts/CryptoQuestTheShardsOfGenesisMMORPG.sol\":5161:5225  require(players[msg.sender].level == 0, \"Player already exists\") */\n      tag_302\n      jumpi\n      mload(0x40)\n      shl(0xe5, 0x461bcd)\n      dup2\n      mstore\n        /* \"#utility.yul\":16859:16861   */\n      0x20\n        /* \"src/smartcontracts/CryptoQuestTheShardsOfGenesisMMORPG.sol\":5161:5225  require(players[msg.sender].level == 0, \"Player already exists\") */\n      0x04\n      dup3\n      add\n        /* \"#utility.yul\":16841:16862   */\n      mstore\n        /* \"#utility.yul\":16898:16900   */\n      0x15\n        /* \"#utility.yul\":16878:16896   */\n      0x24\n      dup3\n      add\n        /* \"#utility.yul\":16871:16901   */\n      mstore\n      shl(0x58, 0x506c6179657220616c726561647920657869737473)\n        /* \"#utility.yul\":16917:16935   */\n      0x44\n      dup3\n      add\n        /* \"#utility.yul\":16910:16961   */\n      mstore\n        /* \"#utility.yul\":16978:16996   */\n      0x64\n      add\n        /* \"src/smartcontracts/CryptoQuestTheShardsOfGenesisMMORPG.sol\":5161:5225  require(players[msg.sender].level == 0, \"Player already exists\") */\n    tag_303:\n      mload(0x40)\n      dup1\n      swap2\n      sub\n      swap1\n      revert\n    tag_302:\n        /* \"src/smartcontracts/CryptoQuestTheShardsOfGenesisMMORPG.sol\":5257:5321  Player(1, 0, 100, 50, 10, 5, 3, 2, new uint[](0), new uint[](0)) */\n      mload(0x40)\n      dup1\n      0x0140\n      add\n      0x40\n      mstore\n      dup1\n        /* \"src/smartcontracts/CryptoQuestTheShardsOfGenesisMMORPG.sol\":5264:5265  1 */\n      0x01\n        /* \"src/smartcontracts/CryptoQuestTheShardsOfGenesisMMORPG.sol\":5257:5321  Player(1, 0, 100, 50, 10, 5, 3, 2, new uint[](0), new uint[](0)) */\n      dup2\n      mstore\n      0x20\n      add\n        /* \"src/smartcontracts/CryptoQuestTheShardsOfGenesisMMORPG.sol\":5267:5268  0 */\n      0x00\n        /* \"src/smartcontracts/CryptoQuestTheShardsOfGenesisMMORPG.sol\":5257:5321  Player(1, 0, 100, 50, 10, 5, 3, 2, new uint[](0), new uint[](0)) */\n      dup2\n      mstore\n      0x20\n      add\n        /* \"src/smartcontracts/CryptoQuestTheShardsOfGenesisMMORPG.sol\":5270:5273  100 */\n      0x64\n        /* \"src/smartcontracts/CryptoQuestTheShardsOfGenesisMMORPG.sol\":5257:5321  Player(1, 0, 100, 50, 10, 5, 3, 2, new uint[](0), new uint[](0)) */\n      dup2\n      mstore\n      0x20\n      add\n        /* \"src/smartcontracts/CryptoQuestTheShardsOfGenesisMMORPG.sol\":5275:5277  50 */\n      0x32\n        /* \"src/smartcontracts/CryptoQuestTheShardsOfGenesisMMORPG.sol\":5257:5321  Player(1, 0, 100, 50, 10, 5, 3, 2, new uint[](0), new uint[](0)) */\n      dup2\n      mstore\n      0x20\n      add\n        /* \"src/smartcontracts/CryptoQuestTheShardsOfGenesisMMORPG.sol\":5279:5281  10 */\n      0x0a\n        /* \"src/smartcontracts/CryptoQuestTheShardsOfGenesisMMORPG.sol\":5257:5321  Player(1, 0, 100, 50, 10, 5, 3, 2, new uint[](0), new uint[](0)) */\n      dup2\n      mstore\n      0x20\n      add\n        /* \"src/smartcontracts/CryptoQuestTheShardsOfGenesisMMORPG.sol\":5283:5284  5 */\n      0x05\n        /* \"src/smartcontracts/CryptoQuestTheShardsOfGenesisMMORPG.sol\":5257:5321  Player(1, 0, 100, 50, 10, 5, 3, 2, new uint[](0), new uint[](0)) */\n      dup2\n      mstore\n      0x20\n      add\n        /* \"src/smartcontracts/CryptoQuestTheShardsOfGenesisMMORPG.sol\":5286:5287  3 */\n      0x03\n        /* \"src/smartcontracts/CryptoQuestTheShardsOfGenesisMMORPG.sol\":5257:5321  Player(1, 0, 100, 50, 10, 5, 3, 2, new uint[](0), new uint[](0)) */\n      dup2\n      mstore\n      0x20\n      add\n        /* \"src/smartcontracts/CryptoQuestTheShardsOfGenesisMMORPG.sol\":5289:5290  2 */\n      0x02\n        /* \"src/smartcontracts/CryptoQuestTheShardsOfGenesisMMORPG.sol\":5257:5321  Player(1, 0, 100, 50, 10, 5, 3, 2, new uint[](0), new uint[](0)) */\n      dup2\n      mstore\n      0x20\n      add\n        /* \"src/smartcontracts/CryptoQuestTheShardsOfGenesisMMORPG.sol\":5303:5304  0 */\n      0x00\n      sub(shl(0x40, 0x01), 0x01)\n        /* \"src/smartcontracts/CryptoQuestTheShardsOfGenesisMMORPG.sol\":5292:5305  new uint[](0) */\n      dup2\n      gt\n      iszero\n      tag_306\n      jumpi\n      tag_306\n      tag_307\n      jump\t// in\n    tag_306:\n      mload(0x40)\n      swap1\n      dup1\n      dup3\n      mstore\n      dup1\n      0x20\n      mul\n      0x20\n      add\n      dup3\n      add\n      0x40\n      mstore\n      dup1\n      iszero\n      tag_308\n      jumpi\n      dup2\n      0x20\n      add\n      0x20\n      dup3\n      mul\n      dup1\n      calldatasize\n      dup4\n      calldatacopy\n      add\n      swap1\n      pop\n    tag_308:\n      pop\n        /* \"src/smartcontracts/CryptoQuestTheShardsOfGenesisMMORPG.sol\":5257:5321  Player(1, 0, 100, 50, 10, 5, 3, 2, new uint[](0), new uint[](0)) */\n      dup2\n      mstore\n      0x20\n      add\n        /* \"src/smartcontracts/CryptoQuestTheShardsOfGenesisMMORPG.sol\":5318:5319  0 */\n      0x00\n        /* \"src/smartcontracts/CryptoQuestTheShardsOfGenesisMMORPG.sol\":5307:5320  new uint[](0) */\n      mload(0x40)\n      swap1\n      dup1\n      dup3\n      mstore\n      dup1\n      0x20\n      mul\n      0x20\n      add\n      dup3\n      add\n      0x40\n      mstore\n      dup1\n      iszero\n      tag_311\n      jumpi\n      dup2\n      0x20\n      add\n      0x20\n      dup3\n      mul\n      dup1\n      calldatasize\n      dup4\n      calldatacopy\n      add\n      swap1\n      pop\n    tag_311:\n      pop\n        /* \"src/smartcontracts/CryptoQuestTheShardsOfGenesisMMORPG.sol\":5257:5321  Player(1, 0, 100, 50, 10, 5, 3, 2, new uint[](0), new uint[](0)) */\n      swap1\n      mstore\n        /* \"src/smartcontracts/CryptoQuestTheShardsOfGenesisMMORPG.sol\":5243:5253  msg.sender */\n      caller\n        /* \"src/smartcontracts/CryptoQuestTheShardsOfGenesisMMORPG.sol\":5235:5254  players[msg.sender] */\n      0x00\n      swap1\n      dup2\n      mstore\n        /* \"src/smartcontracts/CryptoQuestTheShardsOfGenesisMMORPG.sol\":5235:5242  players */\n      0x09\n        /* \"src/smartcontracts/CryptoQuestTheShardsOfGenesisMMORPG.sol\":5235:5254  players[msg.sender] */\n      0x20\n      swap1\n      dup2\n      mstore\n      0x40\n      swap2\n      dup3\n      swap1\n      keccak256\n        /* \"src/smartcontracts/CryptoQuestTheShardsOfGenesisMMORPG.sol\":5235:5321  players[msg.sender] = Player(1, 0, 100, 50, 10, 5, 3, 2, new uint[](0), new uint[](0)) */\n      dup4\n      mload\n      dup2\n      sstore\n      dup4\n      dup3\n      add\n      mload\n      0x01\n      dup3\n      add\n      sstore\n      swap2\n      dup4\n      add\n      mload\n      0x02\n      dup4\n      add\n      sstore\n      0x60\n      dup4\n      add\n      mload\n      0x03\n      dup4\n      add\n      sstore\n      0x80\n      dup4\n      add\n      mload\n      0x04\n      dup4\n      add\n      sstore\n      0xa0\n      dup4\n      add\n      mload\n      0x05\n      dup4\n      add\n      sstore\n      0xc0\n      dup4\n      add\n      mload\n      0x06\n      dup4\n      add\n      sstore\n      0xe0\n      dup4\n      add\n      mload\n      0x07\n      dup4\n      add\n      sstore\n      0x0100\n      dup4\n      add\n      mload\n      dup1\n      mload\n      tag_312\n      swap3\n      0x08\n      dup6\n      add\n      swap3\n      add\n      swap1\n      tag_313\n      jump\t// in\n    tag_312:\n      pop\n      0x0120\n      dup3\n      add\n      mload\n      dup1\n      mload\n      tag_314\n      swap2\n      0x09\n      dup5\n      add\n      swap2\n      0x20\n      swap1\n      swap2\n      add\n      swap1\n      tag_313\n      jump\t// in\n    tag_314:\n      pop\n      pop\n        /* \"src/smartcontracts/CryptoQuestTheShardsOfGenesisMMORPG.sol\":5336:5361  PlayerCreated(msg.sender) */\n      mload(0x40)\n        /* \"src/smartcontracts/CryptoQuestTheShardsOfGenesisMMORPG.sol\":5350:5360  msg.sender */\n      caller\n      swap2\n      pop\n        /* \"src/smartcontracts/CryptoQuestTheShardsOfGenesisMMORPG.sol\":5336:5361  PlayerCreated(msg.sender) */\n      0xb4cca19a27ce42915c3cee0cee28fc5d90969ee49f09ec71659546a63b5f7bc0\n      swap1\n      0x00\n      swap1\n      log2\n        /* \"src/smartcontracts/CryptoQuestTheShardsOfGenesisMMORPG.sol\":5120:5368  function createPlayer() public {... */\n      jump\t// out\n        /* \"src/smartcontracts/CryptoQuestTheShardsOfGenesisMMORPG.sol\":3984:4118  function setERC20Address(address _erc20Address) external onlyRole(GAME_ADMIN_ROLE) {... */\n    tag_104:\n      0x00\n      dup1\n      mload\n      0x20\n      data_3059375685003c5c33343043cb51f6c6b03e849d5b2f19339e935f8b505d9fe3\n      dup4\n      codecopy\n      dup2\n      mload\n      swap2\n      mstore\n        /* \"@openzeppelin/contracts-upgradeable/access/AccessControlUpgradeable.sol\":3191:3207  _checkRole(role) */\n      tag_316\n        /* \"@openzeppelin/contracts-upgradeable/access/AccessControlUpgradeable.sol\":3202:3206  role */\n      dup2\n        /* \"@openzeppelin/contracts-upgradeable/access/AccessControlUpgradeable.sol\":3191:3201  _checkRole */\n      tag_277\n        /* \"@openzeppelin/contracts-upgradeable/access/AccessControlUpgradeable.sol\":3191:3207  _checkRole(role) */\n      jump\t// in\n    tag_316:\n      pop\n        /* \"src/smartcontracts/CryptoQuestTheShardsOfGenesisMMORPG.sol\":4077:4087  erc20Token */\n      0x00\n        /* \"src/smartcontracts/CryptoQuestTheShardsOfGenesisMMORPG.sol\":4077:4111  erc20Token = IERC20(_erc20Address) */\n      dup1\n      sload\n      not(sub(shl(0xa0, 0x01), 0x01))\n      and\n      sub(shl(0xa0, 0x01), 0x01)\n      swap3\n      swap1\n      swap3\n      and\n      swap2\n      swap1\n      swap2\n      or\n      swap1\n      sstore\n        /* \"src/smartcontracts/CryptoQuestTheShardsOfGenesisMMORPG.sol\":3984:4118  function setERC20Address(address _erc20Address) external onlyRole(GAME_ADMIN_ROLE) {... */\n      jump\t// out\n        /* \"@openzeppelin/contracts-upgradeable/proxy/utils/UUPSUpgradeable.sol\":4158:4372  function upgradeToAndCall(address newImplementation, bytes memory data) public payable virtual onlyProxy {... */\n    tag_120:\n        /* \"@openzeppelin/contracts-upgradeable/proxy/utils/UUPSUpgradeable.sol\":2653:2666  _checkProxy() */\n      tag_319\n        /* \"@openzeppelin/contracts-upgradeable/proxy/utils/UUPSUpgradeable.sol\":2653:2664  _checkProxy */\n      tag_320\n        /* \"@openzeppelin/contracts-upgradeable/proxy/utils/UUPSUpgradeable.sol\":2653:2666  _checkProxy() */\n      jump\t// in\n    tag_319:\n        /* \"@openzeppelin/contracts-upgradeable/proxy/utils/UUPSUpgradeable.sol\":4273:4309  _authorizeUpgrade(newImplementation) */\n      tag_322\n        /* \"@openzeppelin/contracts-upgradeable/proxy/utils/UUPSUpgradeable.sol\":4291:4308  newImplementation */\n      dup3\n        /* \"@openzeppelin/contracts-upgradeable/proxy/utils/UUPSUpgradeable.sol\":4273:4290  _authorizeUpgrade */\n      tag_323\n        /* \"@openzeppelin/contracts-upgradeable/proxy/utils/UUPSUpgradeable.sol\":4273:4309  _authorizeUpgrade(newImplementation) */\n      jump\t// in\n    tag_322:\n        /* \"@openzeppelin/contracts-upgradeable/proxy/utils/UUPSUpgradeable.sol\":4319:4365  _upgradeToAndCallUUPS(newImplementation, data) */\n      tag_256\n        /* \"@openzeppelin/contracts-upgradeable/proxy/utils/UUPSUpgradeable.sol\":4341:4358  newImplementation */\n      dup3\n        /* \"@openzeppelin/contracts-upgradeable/proxy/utils/UUPSUpgradeable.sol\":4360:4364  data */\n      dup3\n        /* \"@openzeppelin/contracts-upgradeable/proxy/utils/UUPSUpgradeable.sol\":4319:4340  _upgradeToAndCallUUPS */\n      tag_325\n        /* \"@openzeppelin/contracts-upgradeable/proxy/utils/UUPSUpgradeable.sol\":4319:4365  _upgradeToAndCallUUPS(newImplementation, data) */\n      jump\t// in\n        /* \"src/smartcontracts/CryptoQuestTheShardsOfGenesisMMORPG.sol\":6445:6813  function createGuild(string memory name, address leader) public onlyRole(GAME_ADMIN_ROLE) {... */\n    tag_125:\n      0x00\n      dup1\n      mload\n      0x20\n      data_3059375685003c5c33343043cb51f6c6b03e849d5b2f19339e935f8b505d9fe3\n      dup4\n      codecopy\n      dup2\n      mload\n      swap2\n      mstore\n        /* \"@openzeppelin/contracts-upgradeable/access/AccessControlUpgradeable.sol\":3191:3207  _checkRole(role) */\n      tag_327\n        /* \"@openzeppelin/contracts-upgradeable/access/AccessControlUpgradeable.sol\":3202:3206  role */\n      dup2\n        /* \"@openzeppelin/contracts-upgradeable/access/AccessControlUpgradeable.sol\":3191:3201  _checkRole */\n      tag_277\n        /* \"@openzeppelin/contracts-upgradeable/access/AccessControlUpgradeable.sol\":3191:3207  _checkRole(role) */\n      jump\t// in\n    tag_327:\n        /* \"src/smartcontracts/CryptoQuestTheShardsOfGenesisMMORPG.sol\":6588:6589  0 */\n      0x00\n      sub(shl(0xa0, 0x01), 0x01)\n        /* \"src/smartcontracts/CryptoQuestTheShardsOfGenesisMMORPG.sol\":6553:6590  guildNameToLeader[name] == address(0) */\n      and\n        /* \"src/smartcontracts/CryptoQuestTheShardsOfGenesisMMORPG.sol\":6553:6570  guildNameToLeader */\n      0x0c\n        /* \"src/smartcontracts/CryptoQuestTheShardsOfGenesisMMORPG.sol\":6571:6575  name */\n      dup5\n        /* \"src/smartcontracts/CryptoQuestTheShardsOfGenesisMMORPG.sol\":6553:6576  guildNameToLeader[name] */\n      mload(0x40)\n      tag_329\n      swap2\n      swap1\n      tag_263\n      jump\t// in\n    tag_329:\n      swap1\n      dup2\n      mstore\n      mload(0x40)\n      swap1\n      dup2\n      swap1\n      sub\n      0x20\n      add\n      swap1\n      keccak256\n      sload\n      sub(shl(0xa0, 0x01), 0x01)\n      and\n        /* \"src/smartcontracts/CryptoQuestTheShardsOfGenesisMMORPG.sol\":6553:6590  guildNameToLeader[name] == address(0) */\n      eq\n        /* \"src/smartcontracts/CryptoQuestTheShardsOfGenesisMMORPG.sol\":6545:6615  require(guildNameToLeader[name] == address(0), \"Guild already exists\") */\n      tag_330\n      jumpi\n      mload(0x40)\n      shl(0xe5, 0x461bcd)\n      dup2\n      mstore\n        /* \"#utility.yul\":17209:17211   */\n      0x20\n        /* \"src/smartcontracts/CryptoQuestTheShardsOfGenesisMMORPG.sol\":6545:6615  require(guildNameToLeader[name] == address(0), \"Guild already exists\") */\n      0x04\n      dup3\n      add\n        /* \"#utility.yul\":17191:17212   */\n      mstore\n        /* \"#utility.yul\":17248:17250   */\n      0x14\n        /* \"#utility.yul\":17228:17246   */\n      0x24\n      dup3\n      add\n        /* \"#utility.yul\":17221:17251   */\n      mstore\n      shl(0x60, 0x4775696c6420616c726561647920657869737473)\n        /* \"#utility.yul\":17267:17285   */\n      0x44\n      dup3\n      add\n        /* \"#utility.yul\":17260:17310   */\n      mstore\n        /* \"#utility.yul\":17327:17345   */\n      0x64\n      add\n        /* \"src/smartcontracts/CryptoQuestTheShardsOfGenesisMMORPG.sol\":6545:6615  require(guildNameToLeader[name] == address(0), \"Guild already exists\") */\n      tag_303\n        /* \"#utility.yul\":17007:17351   */\n      jump\n        /* \"src/smartcontracts/CryptoQuestTheShardsOfGenesisMMORPG.sol\":6545:6615  require(guildNameToLeader[name] == address(0), \"Guild already exists\") */\n    tag_330:\n        /* \"src/smartcontracts/CryptoQuestTheShardsOfGenesisMMORPG.sol\":6642:6679  Guild(name, leader, new address[](1)) */\n      0x40\n      dup1\n      mload\n      0x60\n      dup2\n      add\n      dup3\n      mstore\n      dup5\n      dup2\n      mstore\n      sub(shl(0xa0, 0x01), 0x01)\n      dup5\n      and\n      0x20\n      dup3\n      add\n      mstore\n        /* \"src/smartcontracts/CryptoQuestTheShardsOfGenesisMMORPG.sol\":6662:6678  new address[](1) */\n      dup2\n      mload\n        /* \"src/smartcontracts/CryptoQuestTheShardsOfGenesisMMORPG.sol\":6676:6677  1 */\n      0x01\n        /* \"src/smartcontracts/CryptoQuestTheShardsOfGenesisMMORPG.sol\":6662:6678  new address[](1) */\n      dup1\n      dup3\n      mstore\n      dup2\n      dup5\n      add\n      dup5\n      mstore\n        /* \"src/smartcontracts/CryptoQuestTheShardsOfGenesisMMORPG.sol\":6642:6679  Guild(name, leader, new address[](1)) */\n      swap2\n      swap3\n      dup4\n      add\n      swap2\n        /* \"src/smartcontracts/CryptoQuestTheShardsOfGenesisMMORPG.sol\":6662:6678  new address[](1) */\n      dup2\n      0x20\n      add\n      0x20\n      dup3\n      mul\n      dup1\n      calldatasize\n      dup4\n      calldatacopy\n      pop\n      pop\n      pop\n        /* \"src/smartcontracts/CryptoQuestTheShardsOfGenesisMMORPG.sol\":6642:6679  Guild(name, leader, new address[](1)) */\n      swap1\n      mstore\n      sub(shl(0xa0, 0x01), 0x01)\n        /* \"src/smartcontracts/CryptoQuestTheShardsOfGenesisMMORPG.sol\":6625:6639  guilds[leader] */\n      dup4\n      and\n      0x00\n      swap1\n      dup2\n      mstore\n        /* \"src/smartcontracts/CryptoQuestTheShardsOfGenesisMMORPG.sol\":6625:6631  guilds */\n      0x0b\n        /* \"src/smartcontracts/CryptoQuestTheShardsOfGenesisMMORPG.sol\":6625:6639  guilds[leader] */\n      0x20\n      mstore\n      0x40\n      swap1\n      keccak256\n        /* \"src/smartcontracts/CryptoQuestTheShardsOfGenesisMMORPG.sol\":6625:6679  guilds[leader] = Guild(name, leader, new address[](1)) */\n      dup2\n      mload\n        /* \"src/smartcontracts/CryptoQuestTheShardsOfGenesisMMORPG.sol\":6625:6639  guilds[leader] */\n      dup2\n      swap1\n        /* \"src/smartcontracts/CryptoQuestTheShardsOfGenesisMMORPG.sol\":6625:6679  guilds[leader] = Guild(name, leader, new address[](1)) */\n      tag_336\n      swap1\n        /* \"src/smartcontracts/CryptoQuestTheShardsOfGenesisMMORPG.sol\":6625:6639  guilds[leader] */\n      dup3\n        /* \"src/smartcontracts/CryptoQuestTheShardsOfGenesisMMORPG.sol\":6625:6679  guilds[leader] = Guild(name, leader, new address[](1)) */\n      tag_285\n      jump\t// in\n    tag_336:\n      pop\n      0x20\n      dup3\n      dup2\n      add\n      mload\n      0x01\n      dup4\n      add\n      dup1\n      sload\n      not(sub(shl(0xa0, 0x01), 0x01))\n      and\n      sub(shl(0xa0, 0x01), 0x01)\n      swap1\n      swap3\n      and\n      swap2\n      swap1\n      swap2\n      or\n      swap1\n      sstore\n      0x40\n      dup4\n      add\n      mload\n      dup1\n      mload\n      tag_337\n      swap3\n      0x02\n      dup6\n      add\n      swap3\n      add\n      swap1\n      tag_338\n      jump\t// in\n    tag_337:\n      pop\n      pop\n      pop\n      sub(shl(0xa0, 0x01), 0x01)\n        /* \"src/smartcontracts/CryptoQuestTheShardsOfGenesisMMORPG.sol\":6689:6703  guilds[leader] */\n      dup3\n      and\n      0x00\n      swap1\n      dup2\n      mstore\n        /* \"src/smartcontracts/CryptoQuestTheShardsOfGenesisMMORPG.sol\":6689:6695  guilds */\n      0x0b\n        /* \"src/smartcontracts/CryptoQuestTheShardsOfGenesisMMORPG.sol\":6689:6703  guilds[leader] */\n      0x20\n      mstore\n      0x40\n      dup2\n      keccak256\n        /* \"src/smartcontracts/CryptoQuestTheShardsOfGenesisMMORPG.sol\":6689:6711  guilds[leader].members */\n      0x02\n      add\n        /* \"src/smartcontracts/CryptoQuestTheShardsOfGenesisMMORPG.sol\":6689:6714  guilds[leader].members[0] */\n      dup1\n      sload\n        /* \"src/smartcontracts/CryptoQuestTheShardsOfGenesisMMORPG.sol\":6717:6723  leader */\n      dup5\n      swap3\n        /* \"src/smartcontracts/CryptoQuestTheShardsOfGenesisMMORPG.sol\":6689:6703  guilds[leader] */\n      swap1\n        /* \"src/smartcontracts/CryptoQuestTheShardsOfGenesisMMORPG.sol\":6689:6714  guilds[leader].members[0] */\n      tag_340\n      jumpi\n      tag_340\n      tag_260\n      jump\t// in\n    tag_340:\n      swap1\n      0x00\n      mstore\n      keccak256(0x00, 0x20)\n      add\n      0x00\n        /* \"src/smartcontracts/CryptoQuestTheShardsOfGenesisMMORPG.sol\":6689:6723  guilds[leader].members[0] = leader */\n      0x0100\n      exp\n      dup2\n      sload\n      dup2\n      sub(shl(0xa0, 0x01), 0x01)\n      mul\n      not\n      and\n      swap1\n      dup4\n      sub(shl(0xa0, 0x01), 0x01)\n      and\n      mul\n      or\n      swap1\n      sstore\n      pop\n        /* \"src/smartcontracts/CryptoQuestTheShardsOfGenesisMMORPG.sol\":6759:6765  leader */\n      dup2\n        /* \"src/smartcontracts/CryptoQuestTheShardsOfGenesisMMORPG.sol\":6733:6750  guildNameToLeader */\n      0x0c\n        /* \"src/smartcontracts/CryptoQuestTheShardsOfGenesisMMORPG.sol\":6751:6755  name */\n      dup5\n        /* \"src/smartcontracts/CryptoQuestTheShardsOfGenesisMMORPG.sol\":6733:6756  guildNameToLeader[name] */\n      mload(0x40)\n      tag_342\n      swap2\n      swap1\n      tag_263\n      jump\t// in\n    tag_342:\n      swap1\n      dup2\n      mstore\n      mload(0x40)\n      swap1\n      dup2\n      swap1\n      sub\n      0x20\n      add\n      dup2\n      keccak256\n        /* \"src/smartcontracts/CryptoQuestTheShardsOfGenesisMMORPG.sol\":6733:6765  guildNameToLeader[name] = leader */\n      dup1\n      sload\n      sub(shl(0xa0, 0x01), 0x01)\n      swap4\n      swap1\n      swap4\n      and\n      not(sub(shl(0xa0, 0x01), 0x01))\n      swap1\n      swap4\n      and\n      swap3\n      swap1\n      swap3\n      or\n      swap1\n      swap2\n      sstore\n        /* \"src/smartcontracts/CryptoQuestTheShardsOfGenesisMMORPG.sol\":6780:6806  GuildCreated(name, leader) */\n      0x072208535a97b2e307167838c66aacd47f8de3a2cb92bc2ddb2b2b52009c9fd5\n      swap1\n      tag_343\n      swap1\n        /* \"src/smartcontracts/CryptoQuestTheShardsOfGenesisMMORPG.sol\":6793:6797  name */\n      dup6\n      swap1\n        /* \"src/smartcontracts/CryptoQuestTheShardsOfGenesisMMORPG.sol\":6799:6805  leader */\n      dup6\n      swap1\n        /* \"src/smartcontracts/CryptoQuestTheShardsOfGenesisMMORPG.sol\":6780:6806  GuildCreated(name, leader) */\n      tag_178\n      jump\t// in\n    tag_343:\n      mload(0x40)\n      dup1\n      swap2\n      sub\n      swap1\n      log1\n        /* \"src/smartcontracts/CryptoQuestTheShardsOfGenesisMMORPG.sol\":6445:6813  function createGuild(string memory name, address leader) public onlyRole(GAME_ADMIN_ROLE) {... */\n      pop\n      pop\n      pop\n      jump\t// out\n        /* \"@openzeppelin/contracts-upgradeable/proxy/utils/UUPSUpgradeable.sol\":3705:3839  function proxiableUUID() external view virtual notDelegated returns (bytes32) {... */\n    tag_128:\n        /* \"@openzeppelin/contracts-upgradeable/proxy/utils/UUPSUpgradeable.sol\":3774:3781  bytes32 */\n      0x00\n        /* \"@openzeppelin/contracts-upgradeable/proxy/utils/UUPSUpgradeable.sol\":2924:2944  _checkNotDelegated() */\n      tag_345\n        /* \"@openzeppelin/contracts-upgradeable/proxy/utils/UUPSUpgradeable.sol\":2924:2942  _checkNotDelegated */\n      tag_346\n        /* \"@openzeppelin/contracts-upgradeable/proxy/utils/UUPSUpgradeable.sol\":2924:2944  _checkNotDelegated() */\n      jump\t// in\n    tag_345:\n      pop\n      0x00\n      dup1\n      mload\n      0x20\n      data_75b20eef8615de99c108b05f0dbda081c91897128caa336d75dffb97c4132b4d\n      dup4\n      codecopy\n      dup2\n      mload\n      swap2\n      mstore\n        /* \"@openzeppelin/contracts-upgradeable/proxy/utils/UUPSUpgradeable.sol\":3705:3839  function proxiableUUID() external view virtual notDelegated returns (bytes32) {... */\n      swap1\n      jump\t// out\n        /* \"src/smartcontracts/CryptoQuestTheShardsOfGenesisMMORPG.sol\":5695:5901  function startQuest(string memory title, string memory description, uint rewardXP) public onlyRole(GAME_ADMIN_ROLE) {... */\n    tag_143:\n      0x00\n      dup1\n      mload\n      0x20\n      data_3059375685003c5c33343043cb51f6c6b03e849d5b2f19339e935f8b505d9fe3\n      dup4\n      codecopy\n      dup2\n      mload\n      swap2\n      mstore\n        /* \"@openzeppelin/contracts-upgradeable/access/AccessControlUpgradeable.sol\":3191:3207  _checkRole(role) */\n      tag_352\n        /* \"@openzeppelin/contracts-upgradeable/access/AccessControlUpgradeable.sol\":3202:3206  role */\n      dup2\n        /* \"@openzeppelin/contracts-upgradeable/access/AccessControlUpgradeable.sol\":3191:3201  _checkRole */\n      tag_277\n        /* \"@openzeppelin/contracts-upgradeable/access/AccessControlUpgradeable.sol\":3191:3207  _checkRole(role) */\n      jump\t// in\n    tag_352:\n        /* \"src/smartcontracts/CryptoQuestTheShardsOfGenesisMMORPG.sol\":5834:5844  msg.sender */\n      caller\n        /* \"src/smartcontracts/CryptoQuestTheShardsOfGenesisMMORPG.sol\":5821:5845  playerQuests[msg.sender] */\n      0x00\n      swap1\n      dup2\n      mstore\n        /* \"src/smartcontracts/CryptoQuestTheShardsOfGenesisMMORPG.sol\":5821:5833  playerQuests */\n      0x0a\n        /* \"src/smartcontracts/CryptoQuestTheShardsOfGenesisMMORPG.sol\":5821:5845  playerQuests[msg.sender] */\n      0x20\n      swap1\n      dup2\n      mstore\n      0x40\n      dup1\n      dup4\n      keccak256\n        /* \"src/smartcontracts/CryptoQuestTheShardsOfGenesisMMORPG.sol\":5851:5893  Quest(title, description, rewardXP, false) */\n      dup2\n      mload\n      0x80\n      dup2\n      add\n      dup4\n      mstore\n      dup9\n      dup2\n      mstore\n      dup1\n      dup5\n      add\n      dup9\n      swap1\n      mstore\n      swap2\n      dup3\n      add\n      dup7\n      swap1\n      mstore\n      0x60\n      dup3\n      add\n      dup5\n      swap1\n      mstore\n        /* \"src/smartcontracts/CryptoQuestTheShardsOfGenesisMMORPG.sol\":5821:5894  playerQuests[msg.sender].push(Quest(title, description, rewardXP, false)) */\n      dup1\n      sload\n        /* \"src/smartcontracts/CryptoQuestTheShardsOfGenesisMMORPG.sol\":5851:5893  Quest(title, description, rewardXP, false) */\n      0x01\n        /* \"src/smartcontracts/CryptoQuestTheShardsOfGenesisMMORPG.sol\":5821:5894  playerQuests[msg.sender].push(Quest(title, description, rewardXP, false)) */\n      dup2\n      add\n      dup3\n      sstore\n      swap1\n      dup5\n      mstore\n      swap2\n      swap1\n      swap3\n      keccak256\n      dup3\n      mload\n      0x04\n      swap1\n      swap3\n      mul\n      add\n      swap1\n      dup2\n      swap1\n      tag_355\n      swap1\n      dup3\n      tag_285\n      jump\t// in\n    tag_355:\n      pop\n      0x20\n      dup3\n      add\n      mload\n      0x01\n      dup3\n      add\n      swap1\n      tag_356\n      swap1\n      dup3\n      tag_285\n      jump\t// in\n    tag_356:\n      pop\n      0x40\n      dup3\n      add\n      mload\n      0x02\n      dup3\n      add\n      sstore\n      0x60\n      swap1\n      swap2\n      add\n      mload\n      0x03\n      swap1\n      swap2\n      add\n      dup1\n      sload\n      not(0xff)\n      and\n      swap2\n      iszero\n      iszero\n      swap2\n      swap1\n      swap2\n      or\n      swap1\n      sstore\n      pop\n      pop\n      pop\n      pop\n        /* \"src/smartcontracts/CryptoQuestTheShardsOfGenesisMMORPG.sol\":5695:5901  function startQuest(string memory title, string memory description, uint rewardXP) public onlyRole(GAME_ADMIN_ROLE) {... */\n      jump\t// out\n        /* \"src/smartcontracts/CryptoQuestTheShardsOfGenesisMMORPG.sol\":7585:8884  function craftItem(uint recipeId) public {... */\n    tag_147:\n        /* \"src/smartcontracts/CryptoQuestTheShardsOfGenesisMMORPG.sol\":7636:7656  Recipe memory recipe */\n      0x00\n        /* \"src/smartcontracts/CryptoQuestTheShardsOfGenesisMMORPG.sol\":7659:7676  recipes[recipeId] */\n      dup2\n      dup2\n      mstore\n        /* \"src/smartcontracts/CryptoQuestTheShardsOfGenesisMMORPG.sol\":7659:7666  recipes */\n      0x0d\n        /* \"src/smartcontracts/CryptoQuestTheShardsOfGenesisMMORPG.sol\":7659:7676  recipes[recipeId] */\n      0x20\n      swap1\n      dup2\n      mstore\n      0x40\n      dup1\n      dup4\n      keccak256\n        /* \"src/smartcontracts/CryptoQuestTheShardsOfGenesisMMORPG.sol\":7636:7676  Recipe memory recipe = recipes[recipeId] */\n      dup2\n      mload\n      dup2\n      sload\n      0x60\n      swap5\n      dup2\n      mul\n      dup3\n      add\n      dup6\n      add\n      dup5\n      mstore\n      swap3\n      dup2\n      add\n      dup4\n      dup2\n      mstore\n      swap1\n      swap4\n        /* \"src/smartcontracts/CryptoQuestTheShardsOfGenesisMMORPG.sol\":7659:7676  recipes[recipeId] */\n      swap2\n      swap3\n        /* \"src/smartcontracts/CryptoQuestTheShardsOfGenesisMMORPG.sol\":7636:7676  Recipe memory recipe = recipes[recipeId] */\n      dup5\n      swap3\n        /* \"src/smartcontracts/CryptoQuestTheShardsOfGenesisMMORPG.sol\":7659:7676  recipes[recipeId] */\n      dup5\n      swap2\n        /* \"src/smartcontracts/CryptoQuestTheShardsOfGenesisMMORPG.sol\":7636:7676  Recipe memory recipe = recipes[recipeId] */\n      swap1\n      dup5\n      add\n        /* \"src/smartcontracts/CryptoQuestTheShardsOfGenesisMMORPG.sol\":7659:7676  recipes[recipeId] */\n      dup3\n        /* \"src/smartcontracts/CryptoQuestTheShardsOfGenesisMMORPG.sol\":7636:7676  Recipe memory recipe = recipes[recipeId] */\n      dup3\n      dup1\n      iszero\n      tag_358\n      jumpi\n      0x20\n      mul\n      dup3\n      add\n      swap2\n      swap1\n      0x00\n      mstore\n      keccak256(0x00, 0x20)\n      swap1\n    tag_359:\n      dup2\n      sload\n      dup2\n      mstore\n      0x20\n      add\n      swap1\n      0x01\n      add\n      swap1\n      dup1\n      dup4\n      gt\n      tag_359\n      jumpi\n    tag_358:\n      pop\n      pop\n      pop\n      pop\n      pop\n      dup2\n      mstore\n      0x20\n      add\n      0x01\n      dup3\n      add\n      sload\n      dup2\n      mstore\n      pop\n      pop\n      swap1\n      pop\n        /* \"src/smartcontracts/CryptoQuestTheShardsOfGenesisMMORPG.sol\":7718:7719  0 */\n      0x00\n        /* \"src/smartcontracts/CryptoQuestTheShardsOfGenesisMMORPG.sol\":7694:7700  recipe */\n      dup2\n        /* \"src/smartcontracts/CryptoQuestTheShardsOfGenesisMMORPG.sol\":7694:7708  recipe.itemIds */\n      0x00\n      add\n      mload\n        /* \"src/smartcontracts/CryptoQuestTheShardsOfGenesisMMORPG.sol\":7694:7715  recipe.itemIds.length */\n      mload\n        /* \"src/smartcontracts/CryptoQuestTheShardsOfGenesisMMORPG.sol\":7694:7719  recipe.itemIds.length > 0 */\n      gt\n        /* \"src/smartcontracts/CryptoQuestTheShardsOfGenesisMMORPG.sol\":7686:7738  require(recipe.itemIds.length > 0, \"Invalid recipe\") */\n      tag_360\n      jumpi\n      mload(0x40)\n      shl(0xe5, 0x461bcd)\n      dup2\n      mstore\n        /* \"#utility.yul\":17558:17560   */\n      0x20\n        /* \"src/smartcontracts/CryptoQuestTheShardsOfGenesisMMORPG.sol\":7686:7738  require(recipe.itemIds.length > 0, \"Invalid recipe\") */\n      0x04\n      dup3\n      add\n        /* \"#utility.yul\":17540:17561   */\n      mstore\n        /* \"#utility.yul\":17597:17599   */\n      0x0e\n        /* \"#utility.yul\":17577:17595   */\n      0x24\n      dup3\n      add\n        /* \"#utility.yul\":17570:17600   */\n      mstore\n      shl(0x90, 0x496e76616c696420726563697065)\n        /* \"#utility.yul\":17616:17634   */\n      0x44\n      dup3\n      add\n        /* \"#utility.yul\":17609:17653   */\n      mstore\n        /* \"#utility.yul\":17670:17688   */\n      0x64\n      add\n        /* \"src/smartcontracts/CryptoQuestTheShardsOfGenesisMMORPG.sol\":7686:7738  require(recipe.itemIds.length > 0, \"Invalid recipe\") */\n      tag_303\n        /* \"#utility.yul\":17356:17694   */\n      jump\n        /* \"src/smartcontracts/CryptoQuestTheShardsOfGenesisMMORPG.sol\":7686:7738  require(recipe.itemIds.length > 0, \"Invalid recipe\") */\n    tag_360:\n        /* \"src/smartcontracts/CryptoQuestTheShardsOfGenesisMMORPG.sol\":7812:7818  uint i */\n      0x00\n        /* \"src/smartcontracts/CryptoQuestTheShardsOfGenesisMMORPG.sol\":7807:8224  for (uint i = 0; i < recipe.itemIds.length; i++) {... */\n    tag_363:\n        /* \"src/smartcontracts/CryptoQuestTheShardsOfGenesisMMORPG.sol\":7828:7842  recipe.itemIds */\n      dup2\n      mload\n        /* \"src/smartcontracts/CryptoQuestTheShardsOfGenesisMMORPG.sol\":7828:7849  recipe.itemIds.length */\n      mload\n        /* \"src/smartcontracts/CryptoQuestTheShardsOfGenesisMMORPG.sol\":7824:7849  i < recipe.itemIds.length */\n      dup2\n      lt\n        /* \"src/smartcontracts/CryptoQuestTheShardsOfGenesisMMORPG.sol\":7807:8224  for (uint i = 0; i < recipe.itemIds.length; i++) {... */\n      iszero\n      tag_364\n      jumpi\n        /* \"src/smartcontracts/CryptoQuestTheShardsOfGenesisMMORPG.sol\":7870:7882  bool hasItem */\n      0x00\n        /* \"src/smartcontracts/CryptoQuestTheShardsOfGenesisMMORPG.sol\":7909:7915  uint j */\n      dup1\n        /* \"src/smartcontracts/CryptoQuestTheShardsOfGenesisMMORPG.sol\":7904:8141  for (uint j = 0; j < players[msg.sender].inventory.length; j++) {... */\n    tag_366:\n        /* \"src/smartcontracts/CryptoQuestTheShardsOfGenesisMMORPG.sol\":7933:7943  msg.sender */\n      caller\n        /* \"src/smartcontracts/CryptoQuestTheShardsOfGenesisMMORPG.sol\":7925:7944  players[msg.sender] */\n      0x00\n      swap1\n      dup2\n      mstore\n        /* \"src/smartcontracts/CryptoQuestTheShardsOfGenesisMMORPG.sol\":7925:7932  players */\n      0x09\n        /* \"src/smartcontracts/CryptoQuestTheShardsOfGenesisMMORPG.sol\":7925:7944  players[msg.sender] */\n      0x20\n      mstore\n      0x40\n      swap1\n      keccak256\n        /* \"src/smartcontracts/CryptoQuestTheShardsOfGenesisMMORPG.sol\":7925:7954  players[msg.sender].inventory */\n      0x08\n      add\n        /* \"src/smartcontracts/CryptoQuestTheShardsOfGenesisMMORPG.sol\":7925:7961  players[msg.sender].inventory.length */\n      sload\n        /* \"src/smartcontracts/CryptoQuestTheShardsOfGenesisMMORPG.sol\":7921:7961  j < players[msg.sender].inventory.length */\n      dup2\n      lt\n        /* \"src/smartcontracts/CryptoQuestTheShardsOfGenesisMMORPG.sol\":7904:8141  for (uint j = 0; j < players[msg.sender].inventory.length; j++) {... */\n      iszero\n      tag_367\n      jumpi\n        /* \"src/smartcontracts/CryptoQuestTheShardsOfGenesisMMORPG.sol\":8026:8040  recipe.itemIds */\n      dup4\n      mload\n        /* \"src/smartcontracts/CryptoQuestTheShardsOfGenesisMMORPG.sol\":8026:8043  recipe.itemIds[i] */\n      dup1\n      mload\n        /* \"src/smartcontracts/CryptoQuestTheShardsOfGenesisMMORPG.sol\":8041:8042  i */\n      dup5\n      swap1\n        /* \"src/smartcontracts/CryptoQuestTheShardsOfGenesisMMORPG.sol\":8026:8043  recipe.itemIds[i] */\n      dup2\n      lt\n      tag_370\n      jumpi\n      tag_370\n      tag_260\n      jump\t// in\n    tag_370:\n      0x20\n      mul\n      0x20\n      add\n      add\n      mload\n        /* \"src/smartcontracts/CryptoQuestTheShardsOfGenesisMMORPG.sol\":7990:7997  players */\n      0x09\n        /* \"src/smartcontracts/CryptoQuestTheShardsOfGenesisMMORPG.sol\":7990:8009  players[msg.sender] */\n      0x00\n        /* \"src/smartcontracts/CryptoQuestTheShardsOfGenesisMMORPG.sol\":7998:8008  msg.sender */\n      caller\n      sub(shl(0xa0, 0x01), 0x01)\n        /* \"src/smartcontracts/CryptoQuestTheShardsOfGenesisMMORPG.sol\":7990:8009  players[msg.sender] */\n      and\n      sub(shl(0xa0, 0x01), 0x01)\n      and\n      dup2\n      mstore\n      0x20\n      add\n      swap1\n      dup2\n      mstore\n      0x20\n      add\n      0x00\n      keccak256\n        /* \"src/smartcontracts/CryptoQuestTheShardsOfGenesisMMORPG.sol\":7990:8019  players[msg.sender].inventory */\n      0x08\n      add\n        /* \"src/smartcontracts/CryptoQuestTheShardsOfGenesisMMORPG.sol\":8020:8021  j */\n      dup3\n        /* \"src/smartcontracts/CryptoQuestTheShardsOfGenesisMMORPG.sol\":7990:8022  players[msg.sender].inventory[j] */\n      dup2\n      sload\n      dup2\n      lt\n      tag_372\n      jumpi\n      tag_372\n      tag_260\n      jump\t// in\n    tag_372:\n      swap1\n      0x00\n      mstore\n      keccak256(0x00, 0x20)\n      add\n      sload\n        /* \"src/smartcontracts/CryptoQuestTheShardsOfGenesisMMORPG.sol\":7990:8043  players[msg.sender].inventory[j] == recipe.itemIds[i] */\n      sub\n        /* \"src/smartcontracts/CryptoQuestTheShardsOfGenesisMMORPG.sol\":7986:8127  if (players[msg.sender].inventory[j] == recipe.itemIds[i]) {... */\n      tag_374\n      jumpi\n        /* \"src/smartcontracts/CryptoQuestTheShardsOfGenesisMMORPG.sol\":8077:8081  true */\n      0x01\n        /* \"src/smartcontracts/CryptoQuestTheShardsOfGenesisMMORPG.sol\":8067:8081  hasItem = true */\n      swap2\n      pop\n        /* \"src/smartcontracts/CryptoQuestTheShardsOfGenesisMMORPG.sol\":8103:8108  break */\n      jump(tag_367)\n        /* \"src/smartcontracts/CryptoQuestTheShardsOfGenesisMMORPG.sol\":7986:8127  if (players[msg.sender].inventory[j] == recipe.itemIds[i]) {... */\n    tag_374:\n        /* \"src/smartcontracts/CryptoQuestTheShardsOfGenesisMMORPG.sol\":7963:7966  j++ */\n      0x01\n      add\n        /* \"src/smartcontracts/CryptoQuestTheShardsOfGenesisMMORPG.sol\":7904:8141  for (uint j = 0; j < players[msg.sender].inventory.length; j++) {... */\n      jump(tag_366)\n    tag_367:\n      pop\n        /* \"src/smartcontracts/CryptoQuestTheShardsOfGenesisMMORPG.sol\":8162:8169  hasItem */\n      dup1\n        /* \"src/smartcontracts/CryptoQuestTheShardsOfGenesisMMORPG.sol\":8154:8213  require(hasItem, \"Player does not have all required items\") */\n      tag_375\n      jumpi\n      mload(0x40)\n      shl(0xe5, 0x461bcd)\n      dup2\n      mstore\n        /* \"#utility.yul\":17901:17903   */\n      0x20\n        /* \"src/smartcontracts/CryptoQuestTheShardsOfGenesisMMORPG.sol\":8154:8213  require(hasItem, \"Player does not have all required items\") */\n      0x04\n      dup3\n      add\n        /* \"#utility.yul\":17883:17904   */\n      mstore\n        /* \"#utility.yul\":17940:17942   */\n      0x27\n        /* \"#utility.yul\":17920:17938   */\n      0x24\n      dup3\n      add\n        /* \"#utility.yul\":17913:17943   */\n      mstore\n        /* \"#utility.yul\":17979:18013   */\n      0x506c6179657220646f6573206e6f74206861766520616c6c2072657175697265\n        /* \"#utility.yul\":17959:17977   */\n      0x44\n      dup3\n      add\n        /* \"#utility.yul\":17952:18014   */\n      mstore\n      shl(0xc8, 0x64206974656d73)\n        /* \"#utility.yul\":18030:18048   */\n      0x64\n      dup3\n      add\n        /* \"#utility.yul\":18023:18060   */\n      mstore\n        /* \"#utility.yul\":18077:18096   */\n      0x84\n      add\n        /* \"src/smartcontracts/CryptoQuestTheShardsOfGenesisMMORPG.sol\":8154:8213  require(hasItem, \"Player does not have all required items\") */\n      tag_303\n        /* \"#utility.yul\":17699:18102   */\n      jump\n        /* \"src/smartcontracts/CryptoQuestTheShardsOfGenesisMMORPG.sol\":8154:8213  require(hasItem, \"Player does not have all required items\") */\n    tag_375:\n      pop\n        /* \"src/smartcontracts/CryptoQuestTheShardsOfGenesisMMORPG.sol\":7851:7854  i++ */\n      0x01\n      add\n        /* \"src/smartcontracts/CryptoQuestTheShardsOfGenesisMMORPG.sol\":7807:8224  for (uint i = 0; i < recipe.itemIds.length; i++) {... */\n      jump(tag_363)\n    tag_364:\n      pop\n        /* \"src/smartcontracts/CryptoQuestTheShardsOfGenesisMMORPG.sol\":8300:8306  uint i */\n      0x00\n        /* \"src/smartcontracts/CryptoQuestTheShardsOfGenesisMMORPG.sol\":8295:8754  for (uint i = 0; i < recipe.itemIds.length; i++) {... */\n    tag_378:\n        /* \"src/smartcontracts/CryptoQuestTheShardsOfGenesisMMORPG.sol\":8316:8330  recipe.itemIds */\n      dup2\n      mload\n        /* \"src/smartcontracts/CryptoQuestTheShardsOfGenesisMMORPG.sol\":8316:8337  recipe.itemIds.length */\n      mload\n        /* \"src/smartcontracts/CryptoQuestTheShardsOfGenesisMMORPG.sol\":8312:8337  i < recipe.itemIds.length */\n      dup2\n      lt\n        /* \"src/smartcontracts/CryptoQuestTheShardsOfGenesisMMORPG.sol\":8295:8754  for (uint i = 0; i < recipe.itemIds.length; i++) {... */\n      iszero\n      tag_379\n      jumpi\n        /* \"src/smartcontracts/CryptoQuestTheShardsOfGenesisMMORPG.sol\":8363:8369  uint j */\n      0x00\n        /* \"src/smartcontracts/CryptoQuestTheShardsOfGenesisMMORPG.sol\":8358:8744  for (uint j = 0; j < players[msg.sender].inventory.length; j++) {... */\n    tag_381:\n        /* \"src/smartcontracts/CryptoQuestTheShardsOfGenesisMMORPG.sol\":8387:8397  msg.sender */\n      caller\n        /* \"src/smartcontracts/CryptoQuestTheShardsOfGenesisMMORPG.sol\":8379:8398  players[msg.sender] */\n      0x00\n      swap1\n      dup2\n      mstore\n        /* \"src/smartcontracts/CryptoQuestTheShardsOfGenesisMMORPG.sol\":8379:8386  players */\n      0x09\n        /* \"src/smartcontracts/CryptoQuestTheShardsOfGenesisMMORPG.sol\":8379:8398  players[msg.sender] */\n      0x20\n      mstore\n      0x40\n      swap1\n      keccak256\n        /* \"src/smartcontracts/CryptoQuestTheShardsOfGenesisMMORPG.sol\":8379:8408  players[msg.sender].inventory */\n      0x08\n      add\n        /* \"src/smartcontracts/CryptoQuestTheShardsOfGenesisMMORPG.sol\":8379:8415  players[msg.sender].inventory.length */\n      sload\n        /* \"src/smartcontracts/CryptoQuestTheShardsOfGenesisMMORPG.sol\":8375:8415  j < players[msg.sender].inventory.length */\n      dup2\n      lt\n        /* \"src/smartcontracts/CryptoQuestTheShardsOfGenesisMMORPG.sol\":8358:8744  for (uint j = 0; j < players[msg.sender].inventory.length; j++) {... */\n      iszero\n      tag_382\n      jumpi\n        /* \"src/smartcontracts/CryptoQuestTheShardsOfGenesisMMORPG.sol\":8480:8494  recipe.itemIds */\n      dup3\n      mload\n        /* \"src/smartcontracts/CryptoQuestTheShardsOfGenesisMMORPG.sol\":8480:8497  recipe.itemIds[i] */\n      dup1\n      mload\n        /* \"src/smartcontracts/CryptoQuestTheShardsOfGenesisMMORPG.sol\":8495:8496  i */\n      dup4\n      swap1\n        /* \"src/smartcontracts/CryptoQuestTheShardsOfGenesisMMORPG.sol\":8480:8497  recipe.itemIds[i] */\n      dup2\n      lt\n      tag_385\n      jumpi\n      tag_385\n      tag_260\n      jump\t// in\n    tag_385:\n      0x20\n      mul\n      0x20\n      add\n      add\n      mload\n        /* \"src/smartcontracts/CryptoQuestTheShardsOfGenesisMMORPG.sol\":8444:8451  players */\n      0x09\n        /* \"src/smartcontracts/CryptoQuestTheShardsOfGenesisMMORPG.sol\":8444:8463  players[msg.sender] */\n      0x00\n        /* \"src/smartcontracts/CryptoQuestTheShardsOfGenesisMMORPG.sol\":8452:8462  msg.sender */\n      caller\n      sub(shl(0xa0, 0x01), 0x01)\n        /* \"src/smartcontracts/CryptoQuestTheShardsOfGenesisMMORPG.sol\":8444:8463  players[msg.sender] */\n      and\n      sub(shl(0xa0, 0x01), 0x01)\n      and\n      dup2\n      mstore\n      0x20\n      add\n      swap1\n      dup2\n      mstore\n      0x20\n      add\n      0x00\n      keccak256\n        /* \"src/smartcontracts/CryptoQuestTheShardsOfGenesisMMORPG.sol\":8444:8473  players[msg.sender].inventory */\n      0x08\n      add\n        /* \"src/smartcontracts/CryptoQuestTheShardsOfGenesisMMORPG.sol\":8474:8475  j */\n      dup3\n        /* \"src/smartcontracts/CryptoQuestTheShardsOfGenesisMMORPG.sol\":8444:8476  players[msg.sender].inventory[j] */\n      dup2\n      sload\n      dup2\n      lt\n      tag_387\n      jumpi\n      tag_387\n      tag_260\n      jump\t// in\n    tag_387:\n      swap1\n      0x00\n      mstore\n      keccak256(0x00, 0x20)\n      add\n      sload\n        /* \"src/smartcontracts/CryptoQuestTheShardsOfGenesisMMORPG.sol\":8444:8497  players[msg.sender].inventory[j] == recipe.itemIds[i] */\n      sub\n        /* \"src/smartcontracts/CryptoQuestTheShardsOfGenesisMMORPG.sol\":8440:8730  if (players[msg.sender].inventory[j] == recipe.itemIds[i]) {... */\n      tag_389\n      jumpi\n        /* \"src/smartcontracts/CryptoQuestTheShardsOfGenesisMMORPG.sol\":8564:8574  msg.sender */\n      caller\n        /* \"src/smartcontracts/CryptoQuestTheShardsOfGenesisMMORPG.sol\":8556:8575  players[msg.sender] */\n      0x00\n      swap1\n      dup2\n      mstore\n        /* \"src/smartcontracts/CryptoQuestTheShardsOfGenesisMMORPG.sol\":8556:8563  players */\n      0x09\n        /* \"src/smartcontracts/CryptoQuestTheShardsOfGenesisMMORPG.sol\":8556:8575  players[msg.sender] */\n      0x20\n      mstore\n      0x40\n      swap1\n      keccak256\n        /* \"src/smartcontracts/CryptoQuestTheShardsOfGenesisMMORPG.sol\":8556:8585  players[msg.sender].inventory */\n      0x08\n      add\n        /* \"src/smartcontracts/CryptoQuestTheShardsOfGenesisMMORPG.sol\":8586:8622  players[msg.sender].inventory.length */\n      dup1\n      sload\n        /* \"src/smartcontracts/CryptoQuestTheShardsOfGenesisMMORPG.sol\":8586:8626  players[msg.sender].inventory.length - 1 */\n      tag_390\n      swap1\n        /* \"src/smartcontracts/CryptoQuestTheShardsOfGenesisMMORPG.sol\":8625:8626  1 */\n      0x01\n      swap1\n        /* \"src/smartcontracts/CryptoQuestTheShardsOfGenesisMMORPG.sol\":8586:8626  players[msg.sender].inventory.length - 1 */\n      tag_391\n      jump\t// in\n    tag_390:\n        /* \"src/smartcontracts/CryptoQuestTheShardsOfGenesisMMORPG.sol\":8556:8627  players[msg.sender].inventory[players[msg.sender].inventory.length - 1] */\n      dup2\n      sload\n      dup2\n      lt\n      tag_393\n      jumpi\n      tag_393\n      tag_260\n      jump\t// in\n    tag_393:\n      0x00\n      swap2\n      dup3\n      mstore\n      0x20\n      dup1\n      dup4\n      keccak256\n      swap1\n      swap2\n      add\n      sload\n        /* \"src/smartcontracts/CryptoQuestTheShardsOfGenesisMMORPG.sol\":8529:8539  msg.sender */\n      caller\n        /* \"src/smartcontracts/CryptoQuestTheShardsOfGenesisMMORPG.sol\":8521:8540  players[msg.sender] */\n      dup4\n      mstore\n        /* \"src/smartcontracts/CryptoQuestTheShardsOfGenesisMMORPG.sol\":8521:8528  players */\n      0x09\n        /* \"src/smartcontracts/CryptoQuestTheShardsOfGenesisMMORPG.sol\":8521:8540  players[msg.sender] */\n      swap1\n      swap2\n      mstore\n      0x40\n      swap1\n      swap2\n      keccak256\n        /* \"src/smartcontracts/CryptoQuestTheShardsOfGenesisMMORPG.sol\":8521:8550  players[msg.sender].inventory */\n      0x08\n      add\n        /* \"src/smartcontracts/CryptoQuestTheShardsOfGenesisMMORPG.sol\":8521:8553  players[msg.sender].inventory[j] */\n      dup1\n      sload\n        /* \"src/smartcontracts/CryptoQuestTheShardsOfGenesisMMORPG.sol\":8551:8552  j */\n      dup4\n      swap1\n        /* \"src/smartcontracts/CryptoQuestTheShardsOfGenesisMMORPG.sol\":8521:8553  players[msg.sender].inventory[j] */\n      dup2\n      lt\n      tag_396\n      jumpi\n      tag_396\n      tag_260\n      jump\t// in\n    tag_396:\n      0x00\n      swap2\n      dup3\n      mstore\n      0x20\n      dup1\n      dup4\n      keccak256\n      swap1\n      swap2\n      add\n        /* \"src/smartcontracts/CryptoQuestTheShardsOfGenesisMMORPG.sol\":8521:8627  players[msg.sender].inventory[j] = players[msg.sender].inventory[players[msg.sender].inventory.length - 1] */\n      swap3\n      swap1\n      swap3\n      sstore\n        /* \"src/smartcontracts/CryptoQuestTheShardsOfGenesisMMORPG.sol\":8657:8667  msg.sender */\n      caller\n        /* \"src/smartcontracts/CryptoQuestTheShardsOfGenesisMMORPG.sol\":8649:8668  players[msg.sender] */\n      dup2\n      mstore\n        /* \"src/smartcontracts/CryptoQuestTheShardsOfGenesisMMORPG.sol\":8649:8656  players */\n      0x09\n        /* \"src/smartcontracts/CryptoQuestTheShardsOfGenesisMMORPG.sol\":8649:8668  players[msg.sender] */\n      swap1\n      swap2\n      mstore\n      0x40\n      swap1\n      keccak256\n        /* \"src/smartcontracts/CryptoQuestTheShardsOfGenesisMMORPG.sol\":8649:8678  players[msg.sender].inventory */\n      0x08\n      add\n        /* \"src/smartcontracts/CryptoQuestTheShardsOfGenesisMMORPG.sol\":8649:8684  players[msg.sender].inventory.pop() */\n      dup1\n      sload\n      dup1\n      tag_399\n      jumpi\n      tag_399\n      tag_400\n      jump\t// in\n    tag_399:\n      0x01\n      swap1\n      sub\n      dup2\n      dup2\n      swap1\n      0x00\n      mstore\n      keccak256(0x00, 0x20)\n      add\n      0x00\n      swap1\n      sstore\n      swap1\n      sstore\n        /* \"src/smartcontracts/CryptoQuestTheShardsOfGenesisMMORPG.sol\":8706:8711  break */\n      jump(tag_382)\n        /* \"src/smartcontracts/CryptoQuestTheShardsOfGenesisMMORPG.sol\":8440:8730  if (players[msg.sender].inventory[j] == recipe.itemIds[i]) {... */\n    tag_389:\n        /* \"src/smartcontracts/CryptoQuestTheShardsOfGenesisMMORPG.sol\":8417:8420  j++ */\n      0x01\n      add\n        /* \"src/smartcontracts/CryptoQuestTheShardsOfGenesisMMORPG.sol\":8358:8744  for (uint j = 0; j < players[msg.sender].inventory.length; j++) {... */\n      jump(tag_381)\n    tag_382:\n      pop\n        /* \"src/smartcontracts/CryptoQuestTheShardsOfGenesisMMORPG.sol\":8339:8342  i++ */\n      0x01\n      add\n        /* \"src/smartcontracts/CryptoQuestTheShardsOfGenesisMMORPG.sol\":8295:8754  for (uint i = 0; i < recipe.itemIds.length; i++) {... */\n      jump(tag_378)\n    tag_379:\n      pop\n        /* \"src/smartcontracts/CryptoQuestTheShardsOfGenesisMMORPG.sol\":8830:8840  msg.sender */\n      caller\n        /* \"src/smartcontracts/CryptoQuestTheShardsOfGenesisMMORPG.sol\":8822:8841  players[msg.sender] */\n      0x00\n      swap1\n      dup2\n      mstore\n        /* \"src/smartcontracts/CryptoQuestTheShardsOfGenesisMMORPG.sol\":8822:8829  players */\n      0x09\n        /* \"src/smartcontracts/CryptoQuestTheShardsOfGenesisMMORPG.sol\":8822:8841  players[msg.sender] */\n      0x20\n      swap1\n      dup2\n      mstore\n      0x40\n      dup3\n      keccak256\n        /* \"src/smartcontracts/CryptoQuestTheShardsOfGenesisMMORPG.sol\":8857:8876  recipe.resultItemId */\n      swap3\n      dup2\n      add\n      mload\n        /* \"src/smartcontracts/CryptoQuestTheShardsOfGenesisMMORPG.sol\":8822:8851  players[msg.sender].inventory */\n      0x08\n      swap1\n      swap4\n      add\n        /* \"src/smartcontracts/CryptoQuestTheShardsOfGenesisMMORPG.sol\":8822:8877  players[msg.sender].inventory.push(recipe.resultItemId) */\n      dup1\n      sload\n      0x01\n      dup2\n      add\n      dup3\n      sstore\n      swap1\n      dup4\n      mstore\n      swap2\n      keccak256\n      add\n      sstore\n      pop\n        /* \"src/smartcontracts/CryptoQuestTheShardsOfGenesisMMORPG.sol\":7585:8884  function craftItem(uint recipeId) public {... */\n      jump\t// out\n        /* \"src/smartcontracts/CryptoQuestTheShardsOfGenesisMMORPG.sol\":4858:4929  function pause() public onlyRole(PAUSER_ROLE) {... */\n    tag_150:\n      0x00\n      dup1\n      mload\n      0x20\n      data_9b87106a812d214d41ad9b68a21119e2948eaaf1040375c939ec808b8862455c\n      dup4\n      codecopy\n      dup2\n      mload\n      swap2\n      mstore\n        /* \"@openzeppelin/contracts-upgradeable/access/AccessControlUpgradeable.sol\":3191:3207  _checkRole(role) */\n      tag_404\n        /* \"@openzeppelin/contracts-upgradeable/access/AccessControlUpgradeable.sol\":3202:3206  role */\n      dup2\n        /* \"@openzeppelin/contracts-upgradeable/access/AccessControlUpgradeable.sol\":3191:3201  _checkRole */\n      tag_277\n        /* \"@openzeppelin/contracts-upgradeable/access/AccessControlUpgradeable.sol\":3191:3207  _checkRole(role) */\n      jump\t// in\n    tag_404:\n        /* \"src/smartcontracts/CryptoQuestTheShardsOfGenesisMMORPG.sol\":4914:4922  _pause() */\n      tag_299\n        /* \"src/smartcontracts/CryptoQuestTheShardsOfGenesisMMORPG.sol\":4914:4920  _pause */\n      tag_407\n        /* \"src/smartcontracts/CryptoQuestTheShardsOfGenesisMMORPG.sol\":4914:4922  _pause() */\n      jump\t// in\n        /* \"@openzeppelin/contracts-upgradeable/access/AccessControlUpgradeable.sol\":3732:3939  function hasRole(bytes32 role, address account) public view virtual returns (bool) {... */\n    tag_159:\n        /* \"@openzeppelin/contracts-upgradeable/access/AccessControlUpgradeable.sol\":3809:3813  bool */\n      0x00\n        /* \"@openzeppelin/contracts-upgradeable/access/AccessControlUpgradeable.sol\":3901:3915  $._roles[role] */\n      swap2\n      dup3\n      mstore\n      0x00\n      dup1\n      mload\n      0x20\n      data_b3da67d1b252aeab7c8063542d95e75f82a5307a82535949bc38f7cf7ba8897f\n      dup4\n      codecopy\n      dup2\n      mload\n      swap2\n      mstore\n      0x20\n      swap1\n      dup2\n      mstore\n      0x40\n      dup1\n      dup5\n      keccak256\n      sub(shl(0xa0, 0x01), 0x01)\n        /* \"@openzeppelin/contracts-upgradeable/access/AccessControlUpgradeable.sol\":3901:3932  $._roles[role].hasRole[account] */\n      swap4\n      swap1\n      swap4\n      and\n      dup5\n      mstore\n      swap2\n      swap1\n      mstore\n      swap1\n      keccak256\n      sload\n      0xff\n      and\n      swap1\n        /* \"@openzeppelin/contracts-upgradeable/access/AccessControlUpgradeable.sol\":3732:3939  function hasRole(bytes32 role, address account) public view virtual returns (bool) {... */\n      jump\t// out\n        /* \"src/smartcontracts/CryptoQuestTheShardsOfGenesisMMORPG.sol\":4419:4546  function setDAOAddress(address _daoAddress) external onlyRole(GAME_ADMIN_ROLE) {... */\n    tag_164:\n      0x00\n      dup1\n      mload\n      0x20\n      data_3059375685003c5c33343043cb51f6c6b03e849d5b2f19339e935f8b505d9fe3\n      dup4\n      codecopy\n      dup2\n      mload\n      swap2\n      mstore\n        /* \"@openzeppelin/contracts-upgradeable/access/AccessControlUpgradeable.sol\":3191:3207  _checkRole(role) */\n      tag_411\n        /* \"@openzeppelin/contracts-upgradeable/access/AccessControlUpgradeable.sol\":3202:3206  role */\n      dup2\n        /* \"@openzeppelin/contracts-upgradeable/access/AccessControlUpgradeable.sol\":3191:3201  _checkRole */\n      tag_277\n        /* \"@openzeppelin/contracts-upgradeable/access/AccessControlUpgradeable.sol\":3191:3207  _checkRole(role) */\n      jump\t// in\n    tag_411:\n      pop\n        /* \"src/smartcontracts/CryptoQuestTheShardsOfGenesisMMORPG.sol\":4508:4519  daoContract */\n      0x03\n        /* \"src/smartcontracts/CryptoQuestTheShardsOfGenesisMMORPG.sol\":4508:4539  daoContract = IDAO(_daoAddress) */\n      dup1\n      sload\n      not(sub(shl(0xa0, 0x01), 0x01))\n      and\n      sub(shl(0xa0, 0x01), 0x01)\n      swap3\n      swap1\n      swap3\n      and\n      swap2\n      swap1\n      swap2\n      or\n      swap1\n      sstore\n        /* \"src/smartcontracts/CryptoQuestTheShardsOfGenesisMMORPG.sol\":4419:4546  function setDAOAddress(address _daoAddress) external onlyRole(GAME_ADMIN_ROLE) {... */\n      jump\t// out\n        /* \"src/smartcontracts/CryptoQuestTheShardsOfGenesisMMORPG.sol\":4124:4263  function setERC721Address(address _erc721Address) external onlyRole(GAME_ADMIN_ROLE) {... */\n    tag_168:\n      0x00\n      dup1\n      mload\n      0x20\n      data_3059375685003c5c33343043cb51f6c6b03e849d5b2f19339e935f8b505d9fe3\n      dup4\n      codecopy\n      dup2\n      mload\n      swap2\n      mstore\n        /* \"@openzeppelin/contracts-upgradeable/access/AccessControlUpgradeable.sol\":3191:3207  _checkRole(role) */\n      tag_414\n        /* \"@openzeppelin/contracts-upgradeable/access/AccessControlUpgradeable.sol\":3202:3206  role */\n      dup2\n        /* \"@openzeppelin/contracts-upgradeable/access/AccessControlUpgradeable.sol\":3191:3201  _checkRole */\n      tag_277\n        /* \"@openzeppelin/contracts-upgradeable/access/AccessControlUpgradeable.sol\":3191:3207  _checkRole(role) */\n      jump\t// in\n    tag_414:\n      pop\n        /* \"src/smartcontracts/CryptoQuestTheShardsOfGenesisMMORPG.sol\":4219:4230  erc721Token */\n      0x01\n        /* \"src/smartcontracts/CryptoQuestTheShardsOfGenesisMMORPG.sol\":4219:4256  erc721Token = IERC721(_erc721Address) */\n      dup1\n      sload\n      not(sub(shl(0xa0, 0x01), 0x01))\n      and\n      sub(shl(0xa0, 0x01), 0x01)\n      swap3\n      swap1\n      swap3\n      and\n      swap2\n      swap1\n      swap2\n      or\n      swap1\n      sstore\n        /* \"src/smartcontracts/CryptoQuestTheShardsOfGenesisMMORPG.sol\":4124:4263  function setERC721Address(address _erc721Address) external onlyRole(GAME_ADMIN_ROLE) {... */\n      jump\t// out\n        /* \"src/smartcontracts/CryptoQuestTheShardsOfGenesisMMORPG.sol\":2661:2700  mapping(address => Guild) public guilds */\n    tag_176:\n      mstore(0x20, 0x0b)\n      0x00\n      swap1\n      dup2\n      mstore\n      0x40\n      swap1\n      keccak256\n      dup1\n      sload\n      dup2\n      swap1\n      tag_416\n      swap1\n      tag_417\n      jump\t// in\n    tag_416:\n      dup1\n      0x1f\n      add\n      0x20\n      dup1\n      swap2\n      div\n      mul\n      0x20\n      add\n      mload(0x40)\n      swap1\n      dup2\n      add\n      0x40\n      mstore\n      dup1\n      swap3\n      swap2\n      swap1\n      dup2\n      dup2\n      mstore\n      0x20\n      add\n      dup3\n      dup1\n      sload\n      tag_418\n      swap1\n      tag_417\n      jump\t// in\n    tag_418:\n      dup1\n      iszero\n      tag_419\n      jumpi\n      dup1\n      0x1f\n      lt\n      tag_420\n      jumpi\n      0x0100\n      dup1\n      dup4\n      sload\n      div\n      mul\n      dup4\n      mstore\n      swap2\n      0x20\n      add\n      swap2\n      jump(tag_419)\n    tag_420:\n      dup3\n      add\n      swap2\n      swap1\n      0x00\n      mstore\n      keccak256(0x00, 0x20)\n      swap1\n    tag_421:\n      dup2\n      sload\n      dup2\n      mstore\n      swap1\n      0x01\n      add\n      swap1\n      0x20\n      add\n      dup1\n      dup4\n      gt\n      tag_421\n      jumpi\n      dup3\n      swap1\n      sub\n      0x1f\n      and\n      dup3\n      add\n      swap2\n    tag_419:\n      pop\n      pop\n      pop\n      0x01\n      swap1\n      swap4\n      add\n      sload\n      swap2\n      swap3\n      pop\n      pop\n      sub(shl(0xa0, 0x01), 0x01)\n      and\n      dup3\n      jump\t// out\n        /* \"src/smartcontracts/CryptoQuestTheShardsOfGenesisMMORPG.sol\":7337:7579  function addRecipe(uint[] memory itemIds, uint resultItemId) public onlyRole(GAME_ADMIN_ROLE) {... */\n    tag_183:\n      0x00\n      dup1\n      mload\n      0x20\n      data_3059375685003c5c33343043cb51f6c6b03e849d5b2f19339e935f8b505d9fe3\n      dup4\n      codecopy\n      dup2\n      mload\n      swap2\n      mstore\n        /* \"@openzeppelin/contracts-upgradeable/access/AccessControlUpgradeable.sol\":3191:3207  _checkRole(role) */\n      tag_423\n        /* \"@openzeppelin/contracts-upgradeable/access/AccessControlUpgradeable.sol\":3202:3206  role */\n      dup2\n        /* \"@openzeppelin/contracts-upgradeable/access/AccessControlUpgradeable.sol\":3191:3201  _checkRole */\n      tag_277\n        /* \"@openzeppelin/contracts-upgradeable/access/AccessControlUpgradeable.sol\":3191:3207  _checkRole(role) */\n      jump\t// in\n    tag_423:\n        /* \"src/smartcontracts/CryptoQuestTheShardsOfGenesisMMORPG.sol\":7465:7494  Recipe(itemIds, resultItemId) */\n      0x40\n      dup1\n      mload\n      dup1\n      dup3\n      add\n      dup3\n      mstore\n      dup5\n      dup2\n      mstore\n      0x20\n      dup1\n      dup3\n      add\n      dup6\n      swap1\n      mstore\n        /* \"src/smartcontracts/CryptoQuestTheShardsOfGenesisMMORPG.sol\":7449:7461  nextRecipeId */\n      sload(0x07)\n      0x00\n        /* \"src/smartcontracts/CryptoQuestTheShardsOfGenesisMMORPG.sol\":7441:7462  recipes[nextRecipeId] */\n      swap1\n      dup2\n      mstore\n        /* \"src/smartcontracts/CryptoQuestTheShardsOfGenesisMMORPG.sol\":7441:7448  recipes */\n      0x0d\n        /* \"src/smartcontracts/CryptoQuestTheShardsOfGenesisMMORPG.sol\":7441:7462  recipes[nextRecipeId] */\n      dup3\n      mstore\n      swap3\n      swap1\n      swap3\n      keccak256\n        /* \"src/smartcontracts/CryptoQuestTheShardsOfGenesisMMORPG.sol\":7441:7494  recipes[nextRecipeId] = Recipe(itemIds, resultItemId) */\n      dup2\n      mload\n      dup1\n      mload\n        /* \"src/smartcontracts/CryptoQuestTheShardsOfGenesisMMORPG.sol\":7465:7494  Recipe(itemIds, resultItemId) */\n      swap3\n      swap4\n        /* \"src/smartcontracts/CryptoQuestTheShardsOfGenesisMMORPG.sol\":7441:7462  recipes[nextRecipeId] */\n      swap2\n      swap3\n        /* \"src/smartcontracts/CryptoQuestTheShardsOfGenesisMMORPG.sol\":7441:7494  recipes[nextRecipeId] = Recipe(itemIds, resultItemId) */\n      tag_425\n      swap3\n        /* \"src/smartcontracts/CryptoQuestTheShardsOfGenesisMMORPG.sol\":7441:7462  recipes[nextRecipeId] */\n      dup5\n      swap3\n        /* \"src/smartcontracts/CryptoQuestTheShardsOfGenesisMMORPG.sol\":7441:7494  recipes[nextRecipeId] = Recipe(itemIds, resultItemId) */\n      add\n      swap1\n      tag_313\n      jump\t// in\n    tag_425:\n      pop\n      0x20\n      swap2\n      dup3\n      add\n      mload\n      0x01\n      swap1\n      swap2\n      add\n      sstore\n        /* \"src/smartcontracts/CryptoQuestTheShardsOfGenesisMMORPG.sol\":7521:7533  nextRecipeId */\n      sload(0x07)\n        /* \"src/smartcontracts/CryptoQuestTheShardsOfGenesisMMORPG.sol\":7509:7548  RecipeAdded(nextRecipeId, resultItemId) */\n      0x40\n      dup1\n      mload\n        /* \"#utility.yul\":18546:18571   */\n      swap2\n      dup3\n      mstore\n        /* \"#utility.yul\":18587:18605   */\n      swap2\n      dup2\n      add\n        /* \"#utility.yul\":18580:18614   */\n      dup5\n      swap1\n      mstore\n        /* \"src/smartcontracts/CryptoQuestTheShardsOfGenesisMMORPG.sol\":7509:7548  RecipeAdded(nextRecipeId, resultItemId) */\n      0x9becfd2b1fc8127387c5b0002a6cbc8382e6c8fb9f76dfd6cfd92cbe94383d0e\n      swap2\n        /* \"#utility.yul\":18519:18537   */\n      add\n        /* \"src/smartcontracts/CryptoQuestTheShardsOfGenesisMMORPG.sol\":7509:7548  RecipeAdded(nextRecipeId, resultItemId) */\n      mload(0x40)\n      dup1\n      swap2\n      sub\n      swap1\n      log1\n        /* \"src/smartcontracts/CryptoQuestTheShardsOfGenesisMMORPG.sol\":7558:7570  nextRecipeId */\n      0x07\n        /* \"src/smartcontracts/CryptoQuestTheShardsOfGenesisMMORPG.sol\":7558:7572  nextRecipeId++ */\n      dup1\n      sload\n      swap1\n        /* \"src/smartcontracts/CryptoQuestTheShardsOfGenesisMMORPG.sol\":7558:7570  nextRecipeId */\n      0x00\n        /* \"src/smartcontracts/CryptoQuestTheShardsOfGenesisMMORPG.sol\":7558:7572  nextRecipeId++ */\n      tag_428\n      dup4\n      tag_289\n      jump\t// in\n    tag_428:\n      swap2\n      swap1\n      pop\n      sstore\n      pop\n        /* \"src/smartcontracts/CryptoQuestTheShardsOfGenesisMMORPG.sol\":7337:7579  function addRecipe(uint[] memory itemIds, uint resultItemId) public onlyRole(GAME_ADMIN_ROLE) {... */\n      pop\n      pop\n      pop\n      jump\t// out\n        /* \"src/smartcontracts/CryptoQuestTheShardsOfGenesisMMORPG.sol\":4705:4852  function setFarmingAddress(address _farmingAddress) external onlyRole(GAME_ADMIN_ROLE) {... */\n    tag_192:\n      0x00\n      dup1\n      mload\n      0x20\n      data_3059375685003c5c33343043cb51f6c6b03e849d5b2f19339e935f8b505d9fe3\n      dup4\n      codecopy\n      dup2\n      mload\n      swap2\n      mstore\n        /* \"@openzeppelin/contracts-upgradeable/access/AccessControlUpgradeable.sol\":3191:3207  _checkRole(role) */\n      tag_430\n        /* \"@openzeppelin/contracts-upgradeable/access/AccessControlUpgradeable.sol\":3202:3206  role */\n      dup2\n        /* \"@openzeppelin/contracts-upgradeable/access/AccessControlUpgradeable.sol\":3191:3201  _checkRole */\n      tag_277\n        /* \"@openzeppelin/contracts-upgradeable/access/AccessControlUpgradeable.sol\":3191:3207  _checkRole(role) */\n      jump\t// in\n    tag_430:\n      pop\n        /* \"src/smartcontracts/CryptoQuestTheShardsOfGenesisMMORPG.sol\":4802:4817  farmingContract */\n      0x05\n        /* \"src/smartcontracts/CryptoQuestTheShardsOfGenesisMMORPG.sol\":4802:4845  farmingContract = IFarming(_farmingAddress) */\n      dup1\n      sload\n      not(sub(shl(0xa0, 0x01), 0x01))\n      and\n      sub(shl(0xa0, 0x01), 0x01)\n      swap3\n      swap1\n      swap3\n      and\n      swap2\n      swap1\n      swap2\n      or\n      swap1\n      sstore\n        /* \"src/smartcontracts/CryptoQuestTheShardsOfGenesisMMORPG.sol\":4705:4852  function setFarmingAddress(address _farmingAddress) external onlyRole(GAME_ADMIN_ROLE) {... */\n      jump\t// out\n        /* \"src/smartcontracts/CryptoQuestTheShardsOfGenesisMMORPG.sol\":2521:2555  mapping(uint => Item) public items */\n    tag_200:\n      mstore(0x20, 0x08)\n      0x00\n      swap1\n      dup2\n      mstore\n      0x40\n      swap1\n      keccak256\n      dup1\n      sload\n      0x01\n      dup3\n      add\n      dup1\n      sload\n      swap2\n      swap3\n      swap2\n      tag_432\n      swap1\n      tag_417\n      jump\t// in\n    tag_432:\n      dup1\n      0x1f\n      add\n      0x20\n      dup1\n      swap2\n      div\n      mul\n      0x20\n      add\n      mload(0x40)\n      swap1\n      dup2\n      add\n      0x40\n      mstore\n      dup1\n      swap3\n      swap2\n      swap1\n      dup2\n      dup2\n      mstore\n      0x20\n      add\n      dup3\n      dup1\n      sload\n      tag_433\n      swap1\n      tag_417\n      jump\t// in\n    tag_433:\n      dup1\n      iszero\n      tag_434\n      jumpi\n      dup1\n      0x1f\n      lt\n      tag_435\n      jumpi\n      0x0100\n      dup1\n      dup4\n      sload\n      div\n      mul\n      dup4\n      mstore\n      swap2\n      0x20\n      add\n      swap2\n      jump(tag_434)\n    tag_435:\n      dup3\n      add\n      swap2\n      swap1\n      0x00\n      mstore\n      keccak256(0x00, 0x20)\n      swap1\n    tag_436:\n      dup2\n      sload\n      dup2\n      mstore\n      swap1\n      0x01\n      add\n      swap1\n      0x20\n      add\n      dup1\n      dup4\n      gt\n      tag_436\n      jumpi\n      dup3\n      swap1\n      sub\n      0x1f\n      and\n      dup3\n      add\n      swap2\n    tag_434:\n      pop\n      pop\n      pop\n      pop\n      pop\n      swap1\n      dup1\n      0x02\n      add\n      sload\n      swap1\n      dup1\n      0x03\n      add\n      sload\n      swap1\n      dup1\n      0x04\n      add\n      sload\n      swap1\n      dup1\n      0x05\n      add\n      sload\n      swap1\n      pop\n      dup7\n      jump\t// out\n        /* \"src/smartcontracts/CryptoQuestTheShardsOfGenesisMMORPG.sol\":2608:2655  mapping(address => Quest[]) public playerQuests */\n    tag_207:\n      mstore(0x20, 0x0a)\n      dup2\n      0x00\n      mstore\n      keccak256(0x00, 0x40)\n      dup2\n      dup2\n      sload\n      dup2\n      lt\n      tag_437\n      jumpi\n      0x00\n      dup1\n      revert\n    tag_437:\n      swap1\n      0x00\n      mstore\n      keccak256(0x00, 0x20)\n      swap1\n      0x04\n      mul\n      add\n      0x00\n      swap2\n      pop\n      swap2\n      pop\n      pop\n      dup1\n      0x00\n      add\n      dup1\n      sload\n      tag_439\n      swap1\n      tag_417\n      jump\t// in\n    tag_439:\n      dup1\n      0x1f\n      add\n      0x20\n      dup1\n      swap2\n      div\n      mul\n      0x20\n      add\n      mload(0x40)\n      swap1\n      dup2\n      add\n      0x40\n      mstore\n      dup1\n      swap3\n      swap2\n      swap1\n      dup2\n      dup2\n      mstore\n      0x20\n      add\n      dup3\n      dup1\n      sload\n      tag_440\n      swap1\n      tag_417\n      jump\t// in\n    tag_440:\n      dup1\n      iszero\n      tag_441\n      jumpi\n      dup1\n      0x1f\n      lt\n      tag_442\n      jumpi\n      0x0100\n      dup1\n      dup4\n      sload\n      div\n      mul\n      dup4\n      mstore\n      swap2\n      0x20\n      add\n      swap2\n      jump(tag_441)\n    tag_442:\n      dup3\n      add\n      swap2\n      swap1\n      0x00\n      mstore\n      keccak256(0x00, 0x20)\n      swap1\n    tag_443:\n      dup2\n      sload\n      dup2\n      mstore\n      swap1\n      0x01\n      add\n      swap1\n      0x20\n      add\n      dup1\n      dup4\n      gt\n      tag_443\n      jumpi\n      dup3\n      swap1\n      sub\n      0x1f\n      and\n      dup3\n      add\n      swap2\n    tag_441:\n      pop\n      pop\n      pop\n      pop\n      pop\n      swap1\n      dup1\n      0x01\n      add\n      dup1\n      sload\n      tag_444\n      swap1\n      tag_417\n      jump\t// in\n    tag_444:\n      dup1\n      0x1f\n      add\n      0x20\n      dup1\n      swap2\n      div\n      mul\n      0x20\n      add\n      mload(0x40)\n      swap1\n      dup2\n      add\n      0x40\n      mstore\n      dup1\n      swap3\n      swap2\n      swap1\n      dup2\n      dup2\n      mstore\n      0x20\n      add\n      dup3\n      dup1\n      sload\n      tag_445\n      swap1\n      tag_417\n      jump\t// in\n    tag_445:\n      dup1\n      iszero\n      tag_446\n      jumpi\n      dup1\n      0x1f\n      lt\n      tag_447\n      jumpi\n      0x0100\n      dup1\n      dup4\n      sload\n      div\n      mul\n      dup4\n      mstore\n      swap2\n      0x20\n      add\n      swap2\n      jump(tag_446)\n    tag_447:\n      dup3\n      add\n      swap2\n      swap1\n      0x00\n      mstore\n      keccak256(0x00, 0x20)\n      swap1\n    tag_448:\n      dup2\n      sload\n      dup2\n      mstore\n      swap1\n      0x01\n      add\n      swap1\n      0x20\n      add\n      dup1\n      dup4\n      gt\n      tag_448\n      jumpi\n      dup3\n      swap1\n      sub\n      0x1f\n      and\n      dup3\n      add\n      swap2\n    tag_446:\n      pop\n      pop\n      pop\n      pop\n      0x02\n      dup4\n      add\n      sload\n      0x03\n      swap1\n      swap4\n      add\n      sload\n      swap2\n      swap3\n      swap2\n      0xff\n      and\n      swap1\n      pop\n      dup5\n      jump\t// out\n        /* \"@openzeppelin/contracts-upgradeable/access/AccessControlUpgradeable.sol\":5662:5800  function revokeRole(bytes32 role, address account) public virtual onlyRole(getRoleAdmin(role)) {... */\n    tag_213:\n        /* \"@openzeppelin/contracts-upgradeable/access/AccessControlUpgradeable.sol\":5737:5755  getRoleAdmin(role) */\n      tag_449\n        /* \"@openzeppelin/contracts-upgradeable/access/AccessControlUpgradeable.sol\":5750:5754  role */\n      dup3\n        /* \"@openzeppelin/contracts-upgradeable/access/AccessControlUpgradeable.sol\":5737:5749  getRoleAdmin */\n      tag_77\n        /* \"@openzeppelin/contracts-upgradeable/access/AccessControlUpgradeable.sol\":5737:5755  getRoleAdmin(role) */\n      jump\t// in\n    tag_449:\n        /* \"@openzeppelin/contracts-upgradeable/access/AccessControlUpgradeable.sol\":3191:3207  _checkRole(role) */\n      tag_451\n        /* \"@openzeppelin/contracts-upgradeable/access/AccessControlUpgradeable.sol\":3202:3206  role */\n      dup2\n        /* \"@openzeppelin/contracts-upgradeable/access/AccessControlUpgradeable.sol\":3191:3201  _checkRole */\n      tag_277\n        /* \"@openzeppelin/contracts-upgradeable/access/AccessControlUpgradeable.sol\":3191:3207  _checkRole(role) */\n      jump\t// in\n    tag_451:\n        /* \"@openzeppelin/contracts-upgradeable/access/AccessControlUpgradeable.sol\":5767:5793  _revokeRole(role, account) */\n      tag_279\n        /* \"@openzeppelin/contracts-upgradeable/access/AccessControlUpgradeable.sol\":5779:5783  role */\n      dup4\n        /* \"@openzeppelin/contracts-upgradeable/access/AccessControlUpgradeable.sol\":5785:5792  account */\n      dup4\n        /* \"@openzeppelin/contracts-upgradeable/access/AccessControlUpgradeable.sol\":5767:5778  _revokeRole */\n      tag_295\n        /* \"@openzeppelin/contracts-upgradeable/access/AccessControlUpgradeable.sol\":5767:5793  _revokeRole(role, account) */\n      jump\t// in\n        /* \"src/smartcontracts/CryptoQuestTheShardsOfGenesisMMORPG.sol\":4269:4413  function setERC1155Address(address _erc1155Address) external onlyRole(GAME_ADMIN_ROLE) {... */\n    tag_217:\n      0x00\n      dup1\n      mload\n      0x20\n      data_3059375685003c5c33343043cb51f6c6b03e849d5b2f19339e935f8b505d9fe3\n      dup4\n      codecopy\n      dup2\n      mload\n      swap2\n      mstore\n        /* \"@openzeppelin/contracts-upgradeable/access/AccessControlUpgradeable.sol\":3191:3207  _checkRole(role) */\n      tag_455\n        /* \"@openzeppelin/contracts-upgradeable/access/AccessControlUpgradeable.sol\":3202:3206  role */\n      dup2\n        /* \"@openzeppelin/contracts-upgradeable/access/AccessControlUpgradeable.sol\":3191:3201  _checkRole */\n      tag_277\n        /* \"@openzeppelin/contracts-upgradeable/access/AccessControlUpgradeable.sol\":3191:3207  _checkRole(role) */\n      jump\t// in\n    tag_455:\n      pop\n        /* \"src/smartcontracts/CryptoQuestTheShardsOfGenesisMMORPG.sol\":4366:4378  erc1155Token */\n      0x02\n        /* \"src/smartcontracts/CryptoQuestTheShardsOfGenesisMMORPG.sol\":4366:4406  erc1155Token = IERC1155(_erc1155Address) */\n      dup1\n      sload\n      not(sub(shl(0xa0, 0x01), 0x01))\n      and\n      sub(shl(0xa0, 0x01), 0x01)\n      swap3\n      swap1\n      swap3\n      and\n      swap2\n      swap1\n      swap2\n      or\n      swap1\n      sstore\n        /* \"src/smartcontracts/CryptoQuestTheShardsOfGenesisMMORPG.sol\":4269:4413  function setERC1155Address(address _erc1155Address) external onlyRole(GAME_ADMIN_ROLE) {... */\n      jump\t// out\n        /* \"src/smartcontracts/CryptoQuestTheShardsOfGenesisMMORPG.sol\":6819:7331  function joinGuild(string memory guildName) public {... */\n    tag_227:\n        /* \"src/smartcontracts/CryptoQuestTheShardsOfGenesisMMORPG.sol\":6880:6894  address leader */\n      0x00\n        /* \"src/smartcontracts/CryptoQuestTheShardsOfGenesisMMORPG.sol\":6897:6914  guildNameToLeader */\n      0x0c\n        /* \"src/smartcontracts/CryptoQuestTheShardsOfGenesisMMORPG.sol\":6915:6924  guildName */\n      dup3\n        /* \"src/smartcontracts/CryptoQuestTheShardsOfGenesisMMORPG.sol\":6897:6925  guildNameToLeader[guildName] */\n      mload(0x40)\n      tag_458\n      swap2\n      swap1\n      tag_263\n      jump\t// in\n    tag_458:\n      swap1\n      dup2\n      mstore\n      mload(0x40)\n      swap1\n      dup2\n      swap1\n      sub\n      0x20\n      add\n      swap1\n      keccak256\n      sload\n      sub(shl(0xa0, 0x01), 0x01)\n      and\n      swap1\n      pop\n      dup1\n        /* \"src/smartcontracts/CryptoQuestTheShardsOfGenesisMMORPG.sol\":6935:6988  require(leader != address(0), \"Guild does not exist\") */\n      tag_459\n      jumpi\n      mload(0x40)\n      shl(0xe5, 0x461bcd)\n      dup2\n      mstore\n        /* \"#utility.yul\":18827:18829   */\n      0x20\n        /* \"src/smartcontracts/CryptoQuestTheShardsOfGenesisMMORPG.sol\":6935:6988  require(leader != address(0), \"Guild does not exist\") */\n      0x04\n      dup3\n      add\n        /* \"#utility.yul\":18809:18830   */\n      mstore\n        /* \"#utility.yul\":18866:18868   */\n      0x14\n        /* \"#utility.yul\":18846:18864   */\n      0x24\n      dup3\n      add\n        /* \"#utility.yul\":18839:18869   */\n      mstore\n      shl(0x62, 0x11dd5a5b1908191bd95cc81b9bdd08195e1a5cdd)\n        /* \"#utility.yul\":18885:18903   */\n      0x44\n      dup3\n      add\n        /* \"#utility.yul\":18878:18928   */\n      mstore\n        /* \"#utility.yul\":18945:18963   */\n      0x64\n      add\n        /* \"src/smartcontracts/CryptoQuestTheShardsOfGenesisMMORPG.sol\":6935:6988  require(leader != address(0), \"Guild does not exist\") */\n      tag_303\n        /* \"#utility.yul\":18625:18969   */\n      jump\n        /* \"src/smartcontracts/CryptoQuestTheShardsOfGenesisMMORPG.sol\":6935:6988  require(leader != address(0), \"Guild does not exist\") */\n    tag_459:\n      sub(shl(0xa0, 0x01), 0x01)\n        /* \"src/smartcontracts/CryptoQuestTheShardsOfGenesisMMORPG.sol\":7105:7119  guilds[leader] */\n      dup2\n      and\n        /* \"src/smartcontracts/CryptoQuestTheShardsOfGenesisMMORPG.sol\":7083:7102  Guild storage guild */\n      0x00\n        /* \"src/smartcontracts/CryptoQuestTheShardsOfGenesisMMORPG.sol\":7105:7119  guilds[leader] */\n      swap1\n      dup2\n      mstore\n        /* \"src/smartcontracts/CryptoQuestTheShardsOfGenesisMMORPG.sol\":7105:7111  guilds */\n      0x0b\n        /* \"src/smartcontracts/CryptoQuestTheShardsOfGenesisMMORPG.sol\":7105:7119  guilds[leader] */\n      0x20\n      mstore\n      0x40\n      dup2\n      keccak256\n      swap1\n        /* \"src/smartcontracts/CryptoQuestTheShardsOfGenesisMMORPG.sol\":7129:7284  for (uint i = 0; i < guild.members.length; i++) {... */\n    tag_462:\n        /* \"src/smartcontracts/CryptoQuestTheShardsOfGenesisMMORPG.sol\":7150:7163  guild.members */\n      0x02\n      dup3\n      add\n        /* \"src/smartcontracts/CryptoQuestTheShardsOfGenesisMMORPG.sol\":7150:7170  guild.members.length */\n      sload\n        /* \"src/smartcontracts/CryptoQuestTheShardsOfGenesisMMORPG.sol\":7146:7170  i < guild.members.length */\n      dup2\n      lt\n        /* \"src/smartcontracts/CryptoQuestTheShardsOfGenesisMMORPG.sol\":7129:7284  for (uint i = 0; i < guild.members.length; i++) {... */\n      iszero\n      tag_463\n      jumpi\n        /* \"src/smartcontracts/CryptoQuestTheShardsOfGenesisMMORPG.sol\":7219:7229  msg.sender */\n      caller\n      sub(shl(0xa0, 0x01), 0x01)\n        /* \"src/smartcontracts/CryptoQuestTheShardsOfGenesisMMORPG.sol\":7199:7229  guild.members[i] != msg.sender */\n      and\n        /* \"src/smartcontracts/CryptoQuestTheShardsOfGenesisMMORPG.sol\":7199:7204  guild */\n      dup3\n        /* \"src/smartcontracts/CryptoQuestTheShardsOfGenesisMMORPG.sol\":7199:7212  guild.members */\n      0x02\n      add\n        /* \"src/smartcontracts/CryptoQuestTheShardsOfGenesisMMORPG.sol\":7213:7214  i */\n      dup3\n        /* \"src/smartcontracts/CryptoQuestTheShardsOfGenesisMMORPG.sol\":7199:7215  guild.members[i] */\n      dup2\n      sload\n      dup2\n      lt\n      tag_466\n      jumpi\n      tag_466\n      tag_260\n      jump\t// in\n    tag_466:\n      0x00\n      swap2\n      dup3\n      mstore\n      0x20\n      swap1\n      swap2\n      keccak256\n      add\n      sload\n      sub(shl(0xa0, 0x01), 0x01)\n      and\n        /* \"src/smartcontracts/CryptoQuestTheShardsOfGenesisMMORPG.sol\":7199:7229  guild.members[i] != msg.sender */\n      sub\n        /* \"src/smartcontracts/CryptoQuestTheShardsOfGenesisMMORPG.sol\":7191:7273  require(guild.members[i] != msg.sender, \"Sender is already a member of the guild\") */\n      tag_468\n      jumpi\n      mload(0x40)\n      shl(0xe5, 0x461bcd)\n      dup2\n      mstore\n        /* \"#utility.yul\":19176:19178   */\n      0x20\n        /* \"src/smartcontracts/CryptoQuestTheShardsOfGenesisMMORPG.sol\":7191:7273  require(guild.members[i] != msg.sender, \"Sender is already a member of the guild\") */\n      0x04\n      dup3\n      add\n        /* \"#utility.yul\":19158:19179   */\n      mstore\n        /* \"#utility.yul\":19215:19217   */\n      0x27\n        /* \"#utility.yul\":19195:19213   */\n      0x24\n      dup3\n      add\n        /* \"#utility.yul\":19188:19218   */\n      mstore\n        /* \"#utility.yul\":19254:19288   */\n      0x53656e64657220697320616c72656164792061206d656d626572206f66207468\n        /* \"#utility.yul\":19234:19252   */\n      0x44\n      dup3\n      add\n        /* \"#utility.yul\":19227:19289   */\n      mstore\n      shl(0xca, 0x194819dd5a5b19)\n        /* \"#utility.yul\":19305:19323   */\n      0x64\n      dup3\n      add\n        /* \"#utility.yul\":19298:19335   */\n      mstore\n        /* \"#utility.yul\":19352:19371   */\n      0x84\n      add\n        /* \"src/smartcontracts/CryptoQuestTheShardsOfGenesisMMORPG.sol\":7191:7273  require(guild.members[i] != msg.sender, \"Sender is already a member of the guild\") */\n      tag_303\n        /* \"#utility.yul\":18974:19377   */\n      jump\n        /* \"src/smartcontracts/CryptoQuestTheShardsOfGenesisMMORPG.sol\":7191:7273  require(guild.members[i] != msg.sender, \"Sender is already a member of the guild\") */\n    tag_468:\n        /* \"src/smartcontracts/CryptoQuestTheShardsOfGenesisMMORPG.sol\":7172:7175  i++ */\n      0x01\n      add\n        /* \"src/smartcontracts/CryptoQuestTheShardsOfGenesisMMORPG.sol\":7129:7284  for (uint i = 0; i < guild.members.length; i++) {... */\n      jump(tag_462)\n    tag_463:\n      pop\n        /* \"src/smartcontracts/CryptoQuestTheShardsOfGenesisMMORPG.sol\":7294:7307  guild.members */\n      0x02\n      add\n        /* \"src/smartcontracts/CryptoQuestTheShardsOfGenesisMMORPG.sol\":7294:7324  guild.members.push(msg.sender) */\n      dup1\n      sload\n      0x01\n      dup2\n      add\n      dup3\n      sstore\n      0x00\n      swap2\n      dup3\n      mstore\n      0x20\n      swap1\n      swap2\n      keccak256\n      add\n      dup1\n      sload\n      not(sub(shl(0xa0, 0x01), 0x01))\n      and\n        /* \"src/smartcontracts/CryptoQuestTheShardsOfGenesisMMORPG.sol\":7313:7323  msg.sender */\n      caller\n        /* \"src/smartcontracts/CryptoQuestTheShardsOfGenesisMMORPG.sol\":7294:7324  guild.members.push(msg.sender) */\n      or\n      swap1\n      sstore\n      pop\n      pop\n        /* \"src/smartcontracts/CryptoQuestTheShardsOfGenesisMMORPG.sol\":6819:7331  function joinGuild(string memory guildName) public {... */\n      jump\t// out\n        /* \"src/smartcontracts/CryptoQuestTheShardsOfGenesisMMORPG.sol\":4552:4699  function setStakingAddress(address _stakingAddress) external onlyRole(GAME_ADMIN_ROLE) {... */\n    tag_240:\n      0x00\n      dup1\n      mload\n      0x20\n      data_3059375685003c5c33343043cb51f6c6b03e849d5b2f19339e935f8b505d9fe3\n      dup4\n      codecopy\n      dup2\n      mload\n      swap2\n      mstore\n        /* \"@openzeppelin/contracts-upgradeable/access/AccessControlUpgradeable.sol\":3191:3207  _checkRole(role) */\n      tag_473\n        /* \"@openzeppelin/contracts-upgradeable/access/AccessControlUpgradeable.sol\":3202:3206  role */\n      dup2\n        /* \"@openzeppelin/contracts-upgradeable/access/AccessControlUpgradeable.sol\":3191:3201  _checkRole */\n      tag_277\n        /* \"@openzeppelin/contracts-upgradeable/access/AccessControlUpgradeable.sol\":3191:3207  _checkRole(role) */\n      jump\t// in\n    tag_473:\n      pop\n        /* \"src/smartcontracts/CryptoQuestTheShardsOfGenesisMMORPG.sol\":4649:4664  stakingContract */\n      0x04\n        /* \"src/smartcontracts/CryptoQuestTheShardsOfGenesisMMORPG.sol\":4649:4692  stakingContract = IStaking(_stakingAddress) */\n      dup1\n      sload\n      not(sub(shl(0xa0, 0x01), 0x01))\n      and\n      sub(shl(0xa0, 0x01), 0x01)\n      swap3\n      swap1\n      swap3\n      and\n      swap2\n      swap1\n      swap2\n      or\n      swap1\n      sstore\n        /* \"src/smartcontracts/CryptoQuestTheShardsOfGenesisMMORPG.sol\":4552:4699  function setStakingAddress(address _stakingAddress) external onlyRole(GAME_ADMIN_ROLE) {... */\n      jump\t// out\n        /* \"src/smartcontracts/CryptoQuestTheShardsOfGenesisMMORPG.sol\":3081:3978  function initialize(... */\n    tag_245:\n        /* \"@openzeppelin/contracts-upgradeable/proxy/utils/Initializable.sol\":8870:8891  INITIALIZABLE_STORAGE */\n      0xf0c57e16840df040f15088dc2f81fe391c3923bec73e23a9662efc9c229c6a00\n        /* \"@openzeppelin/contracts-upgradeable/proxy/utils/Initializable.sol\":4302:4317  $._initializing */\n      dup1\n      sload\n      shl(0x40, 0x01)\n      dup2\n      div\n      0xff\n      and\n        /* \"@openzeppelin/contracts-upgradeable/proxy/utils/Initializable.sol\":4301:4317  !$._initializing */\n      iszero\n      swap1\n      sub(shl(0x40, 0x01), 0x01)\n        /* \"@openzeppelin/contracts-upgradeable/proxy/utils/Initializable.sol\":4348:4362  $._initialized */\n      and\n        /* \"@openzeppelin/contracts-upgradeable/proxy/utils/Initializable.sol\":4158:4188  InitializableStorage storage $ */\n      0x00\n        /* \"@openzeppelin/contracts-upgradeable/proxy/utils/Initializable.sol\":4726:4742  initialized == 0 */\n      dup2\n      iszero\n        /* \"@openzeppelin/contracts-upgradeable/proxy/utils/Initializable.sol\":4726:4760  initialized == 0 && isTopLevelCall */\n      dup1\n      iszero\n      tag_478\n      jumpi\n      pop\n        /* \"@openzeppelin/contracts-upgradeable/proxy/utils/Initializable.sol\":4746:4760  isTopLevelCall */\n      dup3\n        /* \"@openzeppelin/contracts-upgradeable/proxy/utils/Initializable.sol\":4726:4760  initialized == 0 && isTopLevelCall */\n    tag_478:\n        /* \"@openzeppelin/contracts-upgradeable/proxy/utils/Initializable.sol\":4706:4760  bool initialSetup = initialized == 0 && isTopLevelCall */\n      swap1\n      pop\n        /* \"@openzeppelin/contracts-upgradeable/proxy/utils/Initializable.sol\":4770:4787  bool construction */\n      0x00\n        /* \"@openzeppelin/contracts-upgradeable/proxy/utils/Initializable.sol\":4790:4801  initialized */\n      dup3\n      sub(shl(0x40, 0x01), 0x01)\n        /* \"@openzeppelin/contracts-upgradeable/proxy/utils/Initializable.sol\":4790:4806  initialized == 1 */\n      and\n        /* \"@openzeppelin/contracts-upgradeable/proxy/utils/Initializable.sol\":4805:4806  1 */\n      0x01\n        /* \"@openzeppelin/contracts-upgradeable/proxy/utils/Initializable.sol\":4790:4806  initialized == 1 */\n      eq\n        /* \"@openzeppelin/contracts-upgradeable/proxy/utils/Initializable.sol\":4790:4840  initialized == 1 && address(this).code.length == 0 */\n      dup1\n      iszero\n      tag_479\n      jumpi\n      pop\n        /* \"@openzeppelin/contracts-upgradeable/proxy/utils/Initializable.sol\":4818:4822  this */\n      address\n        /* \"@openzeppelin/contracts-upgradeable/proxy/utils/Initializable.sol\":4810:4835  address(this).code.length */\n      extcodesize\n        /* \"@openzeppelin/contracts-upgradeable/proxy/utils/Initializable.sol\":4810:4840  address(this).code.length == 0 */\n      iszero\n        /* \"@openzeppelin/contracts-upgradeable/proxy/utils/Initializable.sol\":4790:4840  initialized == 1 && address(this).code.length == 0 */\n    tag_479:\n        /* \"@openzeppelin/contracts-upgradeable/proxy/utils/Initializable.sol\":4770:4840  bool construction = initialized == 1 && address(this).code.length == 0 */\n      swap1\n      pop\n        /* \"@openzeppelin/contracts-upgradeable/proxy/utils/Initializable.sol\":4856:4868  initialSetup */\n      dup2\n        /* \"@openzeppelin/contracts-upgradeable/proxy/utils/Initializable.sol\":4855:4868  !initialSetup */\n      iszero\n        /* \"@openzeppelin/contracts-upgradeable/proxy/utils/Initializable.sol\":4855:4885  !initialSetup && !construction */\n      dup1\n      iszero\n      tag_480\n      jumpi\n      pop\n        /* \"@openzeppelin/contracts-upgradeable/proxy/utils/Initializable.sol\":4873:4885  construction */\n      dup1\n        /* \"@openzeppelin/contracts-upgradeable/proxy/utils/Initializable.sol\":4872:4885  !construction */\n      iszero\n        /* \"@openzeppelin/contracts-upgradeable/proxy/utils/Initializable.sol\":4855:4885  !initialSetup && !construction */\n    tag_480:\n        /* \"@openzeppelin/contracts-upgradeable/proxy/utils/Initializable.sol\":4851:4942  if (!initialSetup && !construction) {... */\n      iszero\n      tag_481\n      jumpi\n        /* \"@openzeppelin/contracts-upgradeable/proxy/utils/Initializable.sol\":4908:4931  InvalidInitialization() */\n      mload(0x40)\n      shl(0xe0, 0xf92ee8a9)\n      dup2\n      mstore\n      0x04\n      add\n      mload(0x40)\n      dup1\n      swap2\n      sub\n      swap1\n      revert\n        /* \"@openzeppelin/contracts-upgradeable/proxy/utils/Initializable.sol\":4851:4942  if (!initialSetup && !construction) {... */\n    tag_481:\n        /* \"@openzeppelin/contracts-upgradeable/proxy/utils/Initializable.sol\":4951:4969  $._initialized = 1 */\n      dup5\n      sload\n      not(0xffffffffffffffff)\n      and\n        /* \"@openzeppelin/contracts-upgradeable/proxy/utils/Initializable.sol\":4968:4969  1 */\n      0x01\n        /* \"@openzeppelin/contracts-upgradeable/proxy/utils/Initializable.sol\":4951:4969  $._initialized = 1 */\n      or\n      dup6\n      sstore\n        /* \"@openzeppelin/contracts-upgradeable/proxy/utils/Initializable.sol\":4979:5046  if (isTopLevelCall) {... */\n      dup4\n      iszero\n      tag_482\n      jumpi\n        /* \"@openzeppelin/contracts-upgradeable/proxy/utils/Initializable.sol\":5013:5035  $._initializing = true */\n      dup5\n      sload\n      not(shl(0x40, 0xff))\n      and\n      shl(0x40, 0x01)\n      or\n      dup6\n      sstore\n        /* \"@openzeppelin/contracts-upgradeable/proxy/utils/Initializable.sol\":4979:5046  if (isTopLevelCall) {... */\n    tag_482:\n        /* \"src/smartcontracts/CryptoQuestTheShardsOfGenesisMMORPG.sol\":3407:3424  __Pausable_init() */\n      tag_484\n        /* \"src/smartcontracts/CryptoQuestTheShardsOfGenesisMMORPG.sol\":3407:3422  __Pausable_init */\n      tag_485\n        /* \"src/smartcontracts/CryptoQuestTheShardsOfGenesisMMORPG.sol\":3407:3424  __Pausable_init() */\n      jump\t// in\n    tag_484:\n        /* \"src/smartcontracts/CryptoQuestTheShardsOfGenesisMMORPG.sol\":3434:3456  __AccessControl_init() */\n      tag_486\n        /* \"src/smartcontracts/CryptoQuestTheShardsOfGenesisMMORPG.sol\":3434:3454  __AccessControl_init */\n      tag_487\n        /* \"src/smartcontracts/CryptoQuestTheShardsOfGenesisMMORPG.sol\":3434:3456  __AccessControl_init() */\n      jump\t// in\n    tag_486:\n        /* \"src/smartcontracts/CryptoQuestTheShardsOfGenesisMMORPG.sol\":3466:3490  __UUPSUpgradeable_init() */\n      tag_488\n        /* \"src/smartcontracts/CryptoQuestTheShardsOfGenesisMMORPG.sol\":3466:3488  __UUPSUpgradeable_init */\n      tag_487\n        /* \"src/smartcontracts/CryptoQuestTheShardsOfGenesisMMORPG.sol\":3466:3490  __UUPSUpgradeable_init() */\n      jump\t// in\n    tag_488:\n        /* \"src/smartcontracts/CryptoQuestTheShardsOfGenesisMMORPG.sol\":3501:3545  _grantRole(DEFAULT_ADMIN_ROLE, defaultAdmin) */\n      tag_490\n        /* \"@openzeppelin/contracts-upgradeable/access/AccessControlUpgradeable.sol\":2362:2366  0x00 */\n      0x00\n        /* \"src/smartcontracts/CryptoQuestTheShardsOfGenesisMMORPG.sol\":3532:3544  defaultAdmin */\n      dup16\n        /* \"src/smartcontracts/CryptoQuestTheShardsOfGenesisMMORPG.sol\":3501:3511  _grantRole */\n      tag_280\n        /* \"src/smartcontracts/CryptoQuestTheShardsOfGenesisMMORPG.sol\":3501:3545  _grantRole(DEFAULT_ADMIN_ROLE, defaultAdmin) */\n      jump\t// in\n    tag_490:\n      pop\n        /* \"src/smartcontracts/CryptoQuestTheShardsOfGenesisMMORPG.sol\":3555:3586  _grantRole(PAUSER_ROLE, pauser) */\n      tag_491\n      0x00\n      dup1\n      mload\n      0x20\n      data_9b87106a812d214d41ad9b68a21119e2948eaaf1040375c939ec808b8862455c\n      dup4\n      codecopy\n      dup2\n      mload\n      swap2\n      mstore\n        /* \"src/smartcontracts/CryptoQuestTheShardsOfGenesisMMORPG.sol\":3579:3585  pauser */\n      dup15\n        /* \"src/smartcontracts/CryptoQuestTheShardsOfGenesisMMORPG.sol\":3555:3565  _grantRole */\n      tag_280\n        /* \"src/smartcontracts/CryptoQuestTheShardsOfGenesisMMORPG.sol\":3555:3586  _grantRole(PAUSER_ROLE, pauser) */\n      jump\t// in\n    tag_491:\n      pop\n        /* \"src/smartcontracts/CryptoQuestTheShardsOfGenesisMMORPG.sol\":3596:3631  _grantRole(UPGRADER_ROLE, upgrader) */\n      tag_492\n        /* \"src/smartcontracts/CryptoQuestTheShardsOfGenesisMMORPG.sol\":1427:1453  keccak256(\"UPGRADER_ROLE\") */\n      0x189ab7a9244df0848122154315af71fe140f3db0fe014031783b0946b8c9d2e3\n        /* \"src/smartcontracts/CryptoQuestTheShardsOfGenesisMMORPG.sol\":3622:3630  upgrader */\n      dup14\n        /* \"src/smartcontracts/CryptoQuestTheShardsOfGenesisMMORPG.sol\":3596:3606  _grantRole */\n      tag_280\n        /* \"src/smartcontracts/CryptoQuestTheShardsOfGenesisMMORPG.sol\":3596:3631  _grantRole(UPGRADER_ROLE, upgrader) */\n      jump\t// in\n    tag_492:\n      pop\n        /* \"src/smartcontracts/CryptoQuestTheShardsOfGenesisMMORPG.sol\":3641:3682  _grantRole(GAME_ADMIN_ROLE, defaultAdmin) */\n      tag_493\n      0x00\n      dup1\n      mload\n      0x20\n      data_3059375685003c5c33343043cb51f6c6b03e849d5b2f19339e935f8b505d9fe3\n      dup4\n      codecopy\n      dup2\n      mload\n      swap2\n      mstore\n        /* \"src/smartcontracts/CryptoQuestTheShardsOfGenesisMMORPG.sol\":3669:3681  defaultAdmin */\n      dup16\n        /* \"src/smartcontracts/CryptoQuestTheShardsOfGenesisMMORPG.sol\":3641:3651  _grantRole */\n      tag_280\n        /* \"src/smartcontracts/CryptoQuestTheShardsOfGenesisMMORPG.sol\":3641:3682  _grantRole(GAME_ADMIN_ROLE, defaultAdmin) */\n      jump\t// in\n    tag_493:\n      pop\n        /* \"src/smartcontracts/CryptoQuestTheShardsOfGenesisMMORPG.sol\":3693:3703  erc20Token */\n      0x00\n        /* \"src/smartcontracts/CryptoQuestTheShardsOfGenesisMMORPG.sol\":3693:3727  erc20Token = IERC20(_erc20Address) */\n      dup1\n      sload\n      not(sub(shl(0xa0, 0x01), 0x01))\n      swap1\n      dup2\n      and\n      sub(shl(0xa0, 0x01), 0x01)\n      dup15\n      dup2\n      and\n      swap2\n      swap1\n      swap2\n      or\n      swap1\n      swap3\n      sstore\n      0x01\n        /* \"src/smartcontracts/CryptoQuestTheShardsOfGenesisMMORPG.sol\":3737:3774  erc721Token = IERC721(_erc721Address) */\n      dup1\n      sload\n      dup3\n      and\n      dup14\n      dup5\n      and\n      or\n      swap1\n      sstore\n        /* \"src/smartcontracts/CryptoQuestTheShardsOfGenesisMMORPG.sol\":3784:3796  erc1155Token */\n      0x02\n        /* \"src/smartcontracts/CryptoQuestTheShardsOfGenesisMMORPG.sol\":3784:3824  erc1155Token = IERC1155(_erc1155Address) */\n      dup1\n      sload\n      dup3\n      and\n      dup13\n      dup5\n      and\n      or\n      swap1\n      sstore\n        /* \"src/smartcontracts/CryptoQuestTheShardsOfGenesisMMORPG.sol\":3834:3845  daoContract */\n      0x03\n        /* \"src/smartcontracts/CryptoQuestTheShardsOfGenesisMMORPG.sol\":3834:3865  daoContract = IDAO(_daoAddress) */\n      dup1\n      sload\n      dup3\n      and\n      dup12\n      dup5\n      and\n      or\n      swap1\n      sstore\n        /* \"src/smartcontracts/CryptoQuestTheShardsOfGenesisMMORPG.sol\":3875:3890  stakingContract */\n      0x04\n        /* \"src/smartcontracts/CryptoQuestTheShardsOfGenesisMMORPG.sol\":3875:3918  stakingContract = IStaking(_stakingAddress) */\n      dup1\n      sload\n      dup3\n      and\n      dup11\n      dup5\n      and\n      or\n      swap1\n      sstore\n        /* \"src/smartcontracts/CryptoQuestTheShardsOfGenesisMMORPG.sol\":3928:3943  farmingContract */\n      0x05\n        /* \"src/smartcontracts/CryptoQuestTheShardsOfGenesisMMORPG.sol\":3928:3971  farmingContract = IFarming(_farmingAddress) */\n      dup1\n      sload\n      swap1\n      swap2\n      and\n      swap2\n      dup9\n      and\n      swap2\n      swap1\n      swap2\n      or\n      swap1\n      sstore\n        /* \"@openzeppelin/contracts-upgradeable/proxy/utils/Initializable.sol\":5066:5167  if (isTopLevelCall) {... */\n      dup4\n      iszero\n      tag_494\n      jumpi\n        /* \"@openzeppelin/contracts-upgradeable/proxy/utils/Initializable.sol\":5100:5123  $._initializing = false */\n      dup5\n      sload\n      not(shl(0x40, 0xff))\n      and\n      dup6\n      sstore\n        /* \"@openzeppelin/contracts-upgradeable/proxy/utils/Initializable.sol\":5142:5156  Initialized(1) */\n      mload(0x40)\n      0x01\n        /* \"#utility.yul\":19535:19585   */\n      dup2\n      mstore\n        /* \"@openzeppelin/contracts-upgradeable/proxy/utils/Initializable.sol\":5142:5156  Initialized(1) */\n      0xc7f505b2f371ae2175ee4913f4499e1f2633a7b5936321eed1cdaeb6115181d2\n      swap1\n        /* \"#utility.yul\":19523:19525   */\n      0x20\n        /* \"#utility.yul\":19508:19526   */\n      add\n        /* \"@openzeppelin/contracts-upgradeable/proxy/utils/Initializable.sol\":5142:5156  Initialized(1) */\n      mload(0x40)\n      dup1\n      swap2\n      sub\n      swap1\n      log1\n        /* \"@openzeppelin/contracts-upgradeable/proxy/utils/Initializable.sol\":5066:5167  if (isTopLevelCall) {... */\n    tag_494:\n        /* \"@openzeppelin/contracts-upgradeable/proxy/utils/Initializable.sol\":4092:5173  {... */\n      pop\n      pop\n      pop\n      pop\n      pop\n        /* \"src/smartcontracts/CryptoQuestTheShardsOfGenesisMMORPG.sol\":3081:3978  function initialize(... */\n      pop\n      pop\n      pop\n      pop\n      pop\n      pop\n      pop\n      pop\n      pop\n      jump\t// out\n        /* \"@openzeppelin/contracts-upgradeable/access/AccessControlUpgradeable.sol\":4148:4251  function _checkRole(bytes32 role) internal view virtual {... */\n    tag_277:\n        /* \"@openzeppelin/contracts-upgradeable/access/AccessControlUpgradeable.sol\":4214:4244  _checkRole(role, _msgSender()) */\n      tag_299\n        /* \"@openzeppelin/contracts-upgradeable/access/AccessControlUpgradeable.sol\":4225:4229  role */\n      dup2\n        /* \"@openzeppelin/contracts-upgradeable/utils/ContextUpgradeable.sol\":966:976  msg.sender */\n      caller\n        /* \"@openzeppelin/contracts-upgradeable/access/AccessControlUpgradeable.sol\":4214:4224  _checkRole */\n      tag_502\n        /* \"@openzeppelin/contracts-upgradeable/access/AccessControlUpgradeable.sol\":4214:4244  _checkRole(role, _msgSender()) */\n      jump\t// in\n        /* \"@openzeppelin/contracts-upgradeable/access/AccessControlUpgradeable.sol\":7270:7657  function _grantRole(bytes32 role, address account) internal virtual returns (bool) {... */\n    tag_280:\n        /* \"@openzeppelin/contracts-upgradeable/access/AccessControlUpgradeable.sol\":7347:7351  bool */\n      0x00\n      0x00\n      dup1\n      mload\n      0x20\n      data_b3da67d1b252aeab7c8063542d95e75f82a5307a82535949bc38f7cf7ba8897f\n      dup4\n      codecopy\n      dup2\n      mload\n      swap2\n      mstore\n        /* \"@openzeppelin/contracts-upgradeable/access/AccessControlUpgradeable.sol\":7437:7459  hasRole(role, account) */\n      tag_505\n        /* \"@openzeppelin/contracts-upgradeable/access/AccessControlUpgradeable.sol\":7445:7449  role */\n      dup5\n        /* \"@openzeppelin/contracts-upgradeable/access/AccessControlUpgradeable.sol\":7451:7458  account */\n      dup5\n        /* \"@openzeppelin/contracts-upgradeable/access/AccessControlUpgradeable.sol\":7437:7444  hasRole */\n      tag_159\n        /* \"@openzeppelin/contracts-upgradeable/access/AccessControlUpgradeable.sol\":7437:7459  hasRole(role, account) */\n      jump\t// in\n    tag_505:\n        /* \"@openzeppelin/contracts-upgradeable/access/AccessControlUpgradeable.sol\":7432:7651  if (!hasRole(role, account)) {... */\n      tag_506\n      jumpi\n        /* \"@openzeppelin/contracts-upgradeable/access/AccessControlUpgradeable.sol\":7475:7483  $._roles */\n      0x00\n        /* \"@openzeppelin/contracts-upgradeable/access/AccessControlUpgradeable.sol\":7475:7489  $._roles[role] */\n      dup5\n      dup2\n      mstore\n      0x20\n      dup3\n      dup2\n      mstore\n      0x40\n      dup1\n      dup4\n      keccak256\n      sub(shl(0xa0, 0x01), 0x01)\n        /* \"@openzeppelin/contracts-upgradeable/access/AccessControlUpgradeable.sol\":7475:7506  $._roles[role].hasRole[account] */\n      dup8\n      and\n      dup5\n      mstore\n      swap1\n      swap2\n      mstore\n      swap1\n      keccak256\n        /* \"@openzeppelin/contracts-upgradeable/access/AccessControlUpgradeable.sol\":7475:7513  $._roles[role].hasRole[account] = true */\n      dup1\n      sload\n      not(0xff)\n      and\n        /* \"@openzeppelin/contracts-upgradeable/access/AccessControlUpgradeable.sol\":7509:7513  true */\n      0x01\n        /* \"@openzeppelin/contracts-upgradeable/access/AccessControlUpgradeable.sol\":7475:7513  $._roles[role].hasRole[account] = true */\n      or\n      swap1\n      sstore\n        /* \"@openzeppelin/contracts-upgradeable/access/AccessControlUpgradeable.sol\":7559:7571  _msgSender() */\n      tag_507\n        /* \"@openzeppelin/contracts-upgradeable/utils/ContextUpgradeable.sol\":966:976  msg.sender */\n      caller\n      swap1\n        /* \"@openzeppelin/contracts-upgradeable/utils/ContextUpgradeable.sol\":887:983  function _msgSender() internal view virtual returns (address) {... */\n      jump\n        /* \"@openzeppelin/contracts-upgradeable/access/AccessControlUpgradeable.sol\":7559:7571  _msgSender() */\n    tag_507:\n      sub(shl(0xa0, 0x01), 0x01)\n        /* \"@openzeppelin/contracts-upgradeable/access/AccessControlUpgradeable.sol\":7532:7572  RoleGranted(role, account, _msgSender()) */\n      and\n        /* \"@openzeppelin/contracts-upgradeable/access/AccessControlUpgradeable.sol\":7550:7557  account */\n      dup4\n      sub(shl(0xa0, 0x01), 0x01)\n        /* \"@openzeppelin/contracts-upgradeable/access/AccessControlUpgradeable.sol\":7532:7572  RoleGranted(role, account, _msgSender()) */\n      and\n        /* \"@openzeppelin/contracts-upgradeable/access/AccessControlUpgradeable.sol\":7544:7548  role */\n      dup6\n        /* \"@openzeppelin/contracts-upgradeable/access/AccessControlUpgradeable.sol\":7532:7572  RoleGranted(role, account, _msgSender()) */\n      0x2f8788117e7eff1d82e926ec794901d17c78024a50270940304540a733656f0d\n      mload(0x40)\n      mload(0x40)\n      dup1\n      swap2\n      sub\n      swap1\n      log4\n        /* \"@openzeppelin/contracts-upgradeable/access/AccessControlUpgradeable.sol\":7593:7597  true */\n      0x01\n        /* \"@openzeppelin/contracts-upgradeable/access/AccessControlUpgradeable.sol\":7586:7597  return true */\n      swap2\n      pop\n      pop\n      jump(tag_252)\n        /* \"@openzeppelin/contracts-upgradeable/access/AccessControlUpgradeable.sol\":7432:7651  if (!hasRole(role, account)) {... */\n    tag_506:\n        /* \"@openzeppelin/contracts-upgradeable/access/AccessControlUpgradeable.sol\":7635:7640  false */\n      0x00\n        /* \"@openzeppelin/contracts-upgradeable/access/AccessControlUpgradeable.sol\":7628:7640  return false */\n      swap2\n      pop\n      pop\n      jump(tag_252)\n        /* \"@openzeppelin/contracts-upgradeable/access/AccessControlUpgradeable.sol\":7892:8280  function _revokeRole(bytes32 role, address account) internal virtual returns (bool) {... */\n    tag_295:\n        /* \"@openzeppelin/contracts-upgradeable/access/AccessControlUpgradeable.sol\":7970:7974  bool */\n      0x00\n      0x00\n      dup1\n      mload\n      0x20\n      data_b3da67d1b252aeab7c8063542d95e75f82a5307a82535949bc38f7cf7ba8897f\n      dup4\n      codecopy\n      dup2\n      mload\n      swap2\n      mstore\n        /* \"@openzeppelin/contracts-upgradeable/access/AccessControlUpgradeable.sol\":8059:8081  hasRole(role, account) */\n      tag_512\n        /* \"@openzeppelin/contracts-upgradeable/access/AccessControlUpgradeable.sol\":8067:8071  role */\n      dup5\n        /* \"@openzeppelin/contracts-upgradeable/access/AccessControlUpgradeable.sol\":8073:8080  account */\n      dup5\n        /* \"@openzeppelin/contracts-upgradeable/access/AccessControlUpgradeable.sol\":8059:8066  hasRole */\n      tag_159\n        /* \"@openzeppelin/contracts-upgradeable/access/AccessControlUpgradeable.sol\":8059:8081  hasRole(role, account) */\n      jump\t// in\n    tag_512:\n        /* \"@openzeppelin/contracts-upgradeable/access/AccessControlUpgradeable.sol\":8055:8274  if (hasRole(role, account)) {... */\n      iszero\n      tag_506\n      jumpi\n        /* \"@openzeppelin/contracts-upgradeable/access/AccessControlUpgradeable.sol\":8131:8136  false */\n      0x00\n        /* \"@openzeppelin/contracts-upgradeable/access/AccessControlUpgradeable.sol\":8097:8111  $._roles[role] */\n      dup5\n      dup2\n      mstore\n      0x20\n      dup3\n      dup2\n      mstore\n      0x40\n      dup1\n      dup4\n      keccak256\n      sub(shl(0xa0, 0x01), 0x01)\n        /* \"@openzeppelin/contracts-upgradeable/access/AccessControlUpgradeable.sol\":8097:8128  $._roles[role].hasRole[account] */\n      dup8\n      and\n      dup1\n      dup6\n      mstore\n      swap3\n      mstore\n      dup1\n      dup4\n      keccak256\n        /* \"@openzeppelin/contracts-upgradeable/access/AccessControlUpgradeable.sol\":8097:8136  $._roles[role].hasRole[account] = false */\n      dup1\n      sload\n      not(0xff)\n      and\n      swap1\n      sstore\n        /* \"@openzeppelin/contracts-upgradeable/access/AccessControlUpgradeable.sol\":8155:8195  RoleRevoked(role, account, _msgSender()) */\n      mload\n        /* \"@openzeppelin/contracts-upgradeable/utils/ContextUpgradeable.sol\":966:976  msg.sender */\n      caller\n      swap3\n        /* \"@openzeppelin/contracts-upgradeable/access/AccessControlUpgradeable.sol\":8097:8111  $._roles[role] */\n      dup8\n      swap2\n        /* \"@openzeppelin/contracts-upgradeable/access/AccessControlUpgradeable.sol\":8155:8195  RoleRevoked(role, account, _msgSender()) */\n      0xf6391f5c32d9c69d2a47ea670b442974b53935d1edc7fd64eb21e047a839171b\n      swap2\n        /* \"@openzeppelin/contracts-upgradeable/access/AccessControlUpgradeable.sol\":8131:8136  false */\n      swap1\n        /* \"@openzeppelin/contracts-upgradeable/access/AccessControlUpgradeable.sol\":8155:8195  RoleRevoked(role, account, _msgSender()) */\n      log4\n        /* \"@openzeppelin/contracts-upgradeable/access/AccessControlUpgradeable.sol\":8216:8220  true */\n      0x01\n        /* \"@openzeppelin/contracts-upgradeable/access/AccessControlUpgradeable.sol\":8209:8220  return true */\n      swap2\n      pop\n      pop\n      jump(tag_252)\n        /* \"@openzeppelin/contracts-upgradeable/utils/PausableUpgradeable.sol\":3674:3852  function _unpause() internal virtual whenPaused {... */\n    tag_300:\n        /* \"@openzeppelin/contracts-upgradeable/utils/PausableUpgradeable.sol\":2563:2579  _requirePaused() */\n      tag_517\n        /* \"@openzeppelin/contracts-upgradeable/utils/PausableUpgradeable.sol\":2563:2577  _requirePaused */\n      tag_518\n        /* \"@openzeppelin/contracts-upgradeable/utils/PausableUpgradeable.sol\":2563:2579  _requirePaused() */\n      jump\t// in\n    tag_517:\n      0x00\n      dup1\n      mload\n      0x20\n      data_c0c65a3718f3702d917c44106b91645b509d2e2d0979b70495c3babce192339f\n      dup4\n      codecopy\n      dup2\n      mload\n      swap2\n      mstore\n        /* \"@openzeppelin/contracts-upgradeable/utils/PausableUpgradeable.sol\":3791:3808  $._paused = false */\n      dup1\n      sload\n      not(0xff)\n      and\n      dup2\n      sstore\n        /* \"@openzeppelin/contracts-upgradeable/utils/PausableUpgradeable.sol\":3823:3845  Unpaused(_msgSender()) */\n      0x5db9ee0a495bf2e6ff9c91a7834c1ba4fdd244a5e8aa4e537bd38aeae4b073aa\n        /* \"@openzeppelin/contracts-upgradeable/utils/ContextUpgradeable.sol\":966:976  msg.sender */\n      caller\n        /* \"@openzeppelin/contracts-upgradeable/utils/PausableUpgradeable.sol\":3832:3844  _msgSender() */\n    tag_521:\n        /* \"@openzeppelin/contracts-upgradeable/utils/PausableUpgradeable.sol\":3823:3845  Unpaused(_msgSender()) */\n      mload(0x40)\n      sub(shl(0xa0, 0x01), 0x01)\n        /* \"#utility.yul\":678:710   */\n      swap1\n      swap2\n      and\n        /* \"#utility.yul\":660:711   */\n      dup2\n      mstore\n        /* \"#utility.yul\":648:650   */\n      0x20\n        /* \"#utility.yul\":633:651   */\n      add\n        /* \"@openzeppelin/contracts-upgradeable/utils/PausableUpgradeable.sol\":3823:3845  Unpaused(_msgSender()) */\n      mload(0x40)\n      dup1\n      swap2\n      sub\n      swap1\n      log1\n        /* \"@openzeppelin/contracts-upgradeable/utils/PausableUpgradeable.sol\":3722:3852  {... */\n      pop\n        /* \"@openzeppelin/contracts-upgradeable/utils/PausableUpgradeable.sol\":3674:3852  function _unpause() internal virtual whenPaused {... */\n      jump\t// out\n        /* \"@openzeppelin/contracts-upgradeable/proxy/utils/UUPSUpgradeable.sol\":4599:4911  function _checkProxy() internal view virtual {... */\n    tag_320:\n        /* \"@openzeppelin/contracts-upgradeable/proxy/utils/UUPSUpgradeable.sol\":4679:4683  this */\n      address\n      sub(shl(0xa0, 0x01), 0x01)\n        /* \"@openzeppelin/contracts-upgradeable/proxy/utils/UUPSUpgradeable.sol\":4688:4694  __self */\n      immutable(\"0x3b04ad91523c4dcf551e081621e633b9099d51bf9c5461e58c3bc7354a578b27\")\n        /* \"@openzeppelin/contracts-upgradeable/proxy/utils/UUPSUpgradeable.sol\":4671:4694  address(this) == __self */\n      and\n      eq\n      dup1\n        /* \"@openzeppelin/contracts-upgradeable/proxy/utils/UUPSUpgradeable.sol\":4671:4791  address(this) == __self || // Must be called through delegatecall... */\n      tag_525\n      jumpi\n      pop\n        /* \"@openzeppelin/contracts-upgradeable/proxy/utils/UUPSUpgradeable.sol\":4785:4791  __self */\n      immutable(\"0x3b04ad91523c4dcf551e081621e633b9099d51bf9c5461e58c3bc7354a578b27\")\n      sub(shl(0xa0, 0x01), 0x01)\n        /* \"@openzeppelin/contracts-upgradeable/proxy/utils/UUPSUpgradeable.sol\":4749:4791  ERC1967Utils.getImplementation() != __self */\n      and\n        /* \"@openzeppelin/contracts-upgradeable/proxy/utils/UUPSUpgradeable.sol\":4749:4781  ERC1967Utils.getImplementation() */\n      tag_526\n      0x00\n      dup1\n      mload\n      0x20\n      data_75b20eef8615de99c108b05f0dbda081c91897128caa336d75dffb97c4132b4d\n      dup4\n      codecopy\n      dup2\n      mload\n      swap2\n      mstore\n        /* \"@openzeppelin/contracts/proxy/ERC1967/ERC1967Utils.sol\":2035:2088  StorageSlot.getAddressSlot(IMPLEMENTATION_SLOT).value */\n      sload\n      sub(shl(0xa0, 0x01), 0x01)\n      and\n      swap1\n        /* \"@openzeppelin/contracts/proxy/ERC1967/ERC1967Utils.sol\":1957:2095  function getImplementation() internal view returns (address) {... */\n      jump\n        /* \"@openzeppelin/contracts-upgradeable/proxy/utils/UUPSUpgradeable.sol\":4749:4781  ERC1967Utils.getImplementation() */\n    tag_526:\n      sub(shl(0xa0, 0x01), 0x01)\n        /* \"@openzeppelin/contracts-upgradeable/proxy/utils/UUPSUpgradeable.sol\":4749:4791  ERC1967Utils.getImplementation() != __self */\n      and\n      eq\n      iszero\n        /* \"@openzeppelin/contracts-upgradeable/proxy/utils/UUPSUpgradeable.sol\":4671:4791  address(this) == __self || // Must be called through delegatecall... */\n    tag_525:\n        /* \"@openzeppelin/contracts-upgradeable/proxy/utils/UUPSUpgradeable.sol\":4654:4905  if (... */\n      iszero\n      tag_528\n      jumpi\n        /* \"@openzeppelin/contracts-upgradeable/proxy/utils/UUPSUpgradeable.sol\":4865:4894  UUPSUnauthorizedCallContext() */\n      mload(0x40)\n      shl(0xe1, 0x703e46dd)\n      dup2\n      mstore\n      0x04\n      add\n      mload(0x40)\n      dup1\n      swap2\n      sub\n      swap1\n      revert\n        /* \"@openzeppelin/contracts-upgradeable/proxy/utils/UUPSUpgradeable.sol\":4654:4905  if (... */\n    tag_528:\n        /* \"@openzeppelin/contracts-upgradeable/proxy/utils/UUPSUpgradeable.sol\":4599:4911  function _checkProxy() internal view virtual {... */\n      jump\t// out\n        /* \"src/smartcontracts/CryptoQuestTheShardsOfGenesisMMORPG.sol\":5016:5114  function _authorizeUpgrade(address newImplementation) internal override onlyRole(UPGRADER_ROLE) {} */\n    tag_323:\n        /* \"src/smartcontracts/CryptoQuestTheShardsOfGenesisMMORPG.sol\":1427:1453  keccak256(\"UPGRADER_ROLE\") */\n      0x189ab7a9244df0848122154315af71fe140f3db0fe014031783b0946b8c9d2e3\n        /* \"@openzeppelin/contracts-upgradeable/access/AccessControlUpgradeable.sol\":3191:3207  _checkRole(role) */\n      tag_256\n        /* \"@openzeppelin/contracts-upgradeable/access/AccessControlUpgradeable.sol\":3202:3206  role */\n      dup2\n        /* \"@openzeppelin/contracts-upgradeable/access/AccessControlUpgradeable.sol\":3191:3201  _checkRole */\n      tag_277\n        /* \"@openzeppelin/contracts-upgradeable/access/AccessControlUpgradeable.sol\":3191:3207  _checkRole(role) */\n      jump\t// in\n        /* \"@openzeppelin/contracts-upgradeable/proxy/utils/UUPSUpgradeable.sol\":6052:6590  function _upgradeToAndCallUUPS(address newImplementation, bytes memory data) private {... */\n    tag_325:\n        /* \"@openzeppelin/contracts-upgradeable/proxy/utils/UUPSUpgradeable.sol\":6169:6186  newImplementation */\n      dup2\n      sub(shl(0xa0, 0x01), 0x01)\n        /* \"@openzeppelin/contracts-upgradeable/proxy/utils/UUPSUpgradeable.sol\":6151:6201  IERC1822Proxiable(newImplementation).proxiableUUID */\n      and\n      0x52d1902d\n        /* \"@openzeppelin/contracts-upgradeable/proxy/utils/UUPSUpgradeable.sol\":6151:6203  IERC1822Proxiable(newImplementation).proxiableUUID() */\n      mload(0x40)\n      dup2\n      0xffffffff\n      and\n      0xe0\n      shl\n      dup2\n      mstore\n      0x04\n      add\n      0x20\n      mload(0x40)\n      dup1\n      dup4\n      sub\n      dup2\n      dup7\n      gas\n      staticcall\n      swap3\n      pop\n      pop\n      pop\n      dup1\n      iszero\n      tag_533\n      jumpi\n      pop\n      0x40\n      dup1\n      mload\n      0x1f\n      returndatasize\n      swap1\n      dup2\n      add\n      not(0x1f)\n      and\n      dup3\n      add\n      swap1\n      swap3\n      mstore\n      tag_534\n      swap2\n      dup2\n      add\n      swap1\n      tag_535\n      jump\t// in\n    tag_534:\n      0x01\n    tag_533:\n        /* \"@openzeppelin/contracts-upgradeable/proxy/utils/UUPSUpgradeable.sol\":6147:6584  try IERC1822Proxiable(newImplementation).proxiableUUID() returns (bytes32 slot) {... */\n      tag_536\n      jumpi\n        /* \"@openzeppelin/contracts-upgradeable/proxy/utils/UUPSUpgradeable.sol\":6513:6573  ERC1967Utils.ERC1967InvalidImplementation(newImplementation) */\n      mload(0x40)\n      shl(0xe0, 0x4c9c8ce3)\n      dup2\n      mstore\n      sub(shl(0xa0, 0x01), 0x01)\n        /* \"#utility.yul\":678:710   */\n      dup4\n      and\n        /* \"@openzeppelin/contracts-upgradeable/proxy/utils/UUPSUpgradeable.sol\":6513:6573  ERC1967Utils.ERC1967InvalidImplementation(newImplementation) */\n      0x04\n      dup3\n      add\n        /* \"#utility.yul\":660:711   */\n      mstore\n        /* \"#utility.yul\":633:651   */\n      0x24\n      add\n        /* \"@openzeppelin/contracts-upgradeable/proxy/utils/UUPSUpgradeable.sol\":6513:6573  ERC1967Utils.ERC1967InvalidImplementation(newImplementation) */\n      tag_303\n        /* \"#utility.yul\":497:717   */\n      jump\n        /* \"@openzeppelin/contracts-upgradeable/proxy/utils/UUPSUpgradeable.sol\":6147:6584  try IERC1822Proxiable(newImplementation).proxiableUUID() returns (bytes32 slot) {... */\n    tag_536:\n      0x00\n      dup1\n      mload\n      0x20\n      data_75b20eef8615de99c108b05f0dbda081c91897128caa336d75dffb97c4132b4d\n      dup4\n      codecopy\n      dup2\n      mload\n      swap2\n      mstore\n        /* \"@openzeppelin/contracts-upgradeable/proxy/utils/UUPSUpgradeable.sol\":6245:6285  slot != ERC1967Utils.IMPLEMENTATION_SLOT */\n      dup2\n      eq\n        /* \"@openzeppelin/contracts-upgradeable/proxy/utils/UUPSUpgradeable.sol\":6241:6361  if (slot != ERC1967Utils.IMPLEMENTATION_SLOT) {... */\n      tag_542\n      jumpi\n        /* \"@openzeppelin/contracts-upgradeable/proxy/utils/UUPSUpgradeable.sol\":6312:6346  UUPSUnsupportedProxiableUUID(slot) */\n      mload(0x40)\n      shl(0xe2, 0x2a875269)\n      dup2\n      mstore\n      0x04\n      dup2\n      add\n        /* \"#utility.yul\":2745:2770   */\n      dup3\n      swap1\n      mstore\n        /* \"#utility.yul\":2718:2736   */\n      0x24\n      add\n        /* \"@openzeppelin/contracts-upgradeable/proxy/utils/UUPSUpgradeable.sol\":6312:6346  UUPSUnsupportedProxiableUUID(slot) */\n      tag_303\n        /* \"#utility.yul\":2599:2776   */\n      jump\n        /* \"@openzeppelin/contracts-upgradeable/proxy/utils/UUPSUpgradeable.sol\":6241:6361  if (slot != ERC1967Utils.IMPLEMENTATION_SLOT) {... */\n    tag_542:\n        /* \"@openzeppelin/contracts-upgradeable/proxy/utils/UUPSUpgradeable.sol\":6374:6428  ERC1967Utils.upgradeToAndCall(newImplementation, data) */\n      tag_294\n        /* \"@openzeppelin/contracts-upgradeable/proxy/utils/UUPSUpgradeable.sol\":6404:6421  newImplementation */\n      dup4\n        /* \"@openzeppelin/contracts-upgradeable/proxy/utils/UUPSUpgradeable.sol\":6423:6427  data */\n      dup4\n        /* \"@openzeppelin/contracts-upgradeable/proxy/utils/UUPSUpgradeable.sol\":6374:6403  ERC1967Utils.upgradeToAndCall */\n      tag_545\n        /* \"@openzeppelin/contracts-upgradeable/proxy/utils/UUPSUpgradeable.sol\":6374:6428  ERC1967Utils.upgradeToAndCall(newImplementation, data) */\n      jump\t// in\n        /* \"@openzeppelin/contracts-upgradeable/proxy/utils/UUPSUpgradeable.sol\":5028:5241  function _checkNotDelegated() internal view virtual {... */\n    tag_346:\n        /* \"@openzeppelin/contracts-upgradeable/proxy/utils/UUPSUpgradeable.sol\":5102:5106  this */\n      address\n      sub(shl(0xa0, 0x01), 0x01)\n        /* \"@openzeppelin/contracts-upgradeable/proxy/utils/UUPSUpgradeable.sol\":5111:5117  __self */\n      immutable(\"0x3b04ad91523c4dcf551e081621e633b9099d51bf9c5461e58c3bc7354a578b27\")\n        /* \"@openzeppelin/contracts-upgradeable/proxy/utils/UUPSUpgradeable.sol\":5094:5117  address(this) != __self */\n      and\n      eq\n        /* \"@openzeppelin/contracts-upgradeable/proxy/utils/UUPSUpgradeable.sol\":5090:5235  if (address(this) != __self) {... */\n      tag_528\n      jumpi\n        /* \"@openzeppelin/contracts-upgradeable/proxy/utils/UUPSUpgradeable.sol\":5195:5224  UUPSUnauthorizedCallContext() */\n      mload(0x40)\n      shl(0xe1, 0x703e46dd)\n      dup2\n      mstore\n      0x04\n      add\n      mload(0x40)\n      dup1\n      swap2\n      sub\n      swap1\n      revert\n        /* \"@openzeppelin/contracts-upgradeable/utils/PausableUpgradeable.sol\":3366:3542  function _pause() internal virtual whenNotPaused {... */\n    tag_407:\n        /* \"@openzeppelin/contracts-upgradeable/utils/PausableUpgradeable.sol\":2316:2335  _requireNotPaused() */\n      tag_550\n        /* \"@openzeppelin/contracts-upgradeable/utils/PausableUpgradeable.sol\":2316:2333  _requireNotPaused */\n      tag_551\n        /* \"@openzeppelin/contracts-upgradeable/utils/PausableUpgradeable.sol\":2316:2335  _requireNotPaused() */\n      jump\t// in\n    tag_550:\n      0x00\n      dup1\n      mload\n      0x20\n      data_c0c65a3718f3702d917c44106b91645b509d2e2d0979b70495c3babce192339f\n      dup4\n      codecopy\n      dup2\n      mload\n      swap2\n      mstore\n        /* \"@openzeppelin/contracts-upgradeable/utils/PausableUpgradeable.sol\":3484:3500  $._paused = true */\n      dup1\n      sload\n      not(0xff)\n      and\n        /* \"@openzeppelin/contracts-upgradeable/utils/PausableUpgradeable.sol\":3496:3500  true */\n      0x01\n        /* \"@openzeppelin/contracts-upgradeable/utils/PausableUpgradeable.sol\":3484:3500  $._paused = true */\n      or\n      dup2\n      sstore\n        /* \"@openzeppelin/contracts-upgradeable/utils/PausableUpgradeable.sol\":3515:3535  Paused(_msgSender()) */\n      0x62e78cea01bee320cd4e420270b5ea74000d11b0c9f74754ebdbfc544b05a258\n        /* \"@openzeppelin/contracts-upgradeable/utils/ContextUpgradeable.sol\":966:976  msg.sender */\n      caller\n        /* \"@openzeppelin/contracts-upgradeable/utils/PausableUpgradeable.sol\":3522:3534  _msgSender() */\n      tag_521\n        /* \"@openzeppelin/contracts-upgradeable/utils/ContextUpgradeable.sol\":887:983  function _msgSender() internal view virtual returns (address) {... */\n      jump\n        /* \"@openzeppelin/contracts-upgradeable/utils/PausableUpgradeable.sol\":1836:1933  function __Pausable_init() internal onlyInitializing {... */\n    tag_485:\n        /* \"@openzeppelin/contracts-upgradeable/proxy/utils/Initializable.sol\":6931:6951  _checkInitializing() */\n      tag_558\n        /* \"@openzeppelin/contracts-upgradeable/proxy/utils/Initializable.sol\":6931:6949  _checkInitializing */\n      tag_559\n        /* \"@openzeppelin/contracts-upgradeable/proxy/utils/Initializable.sol\":6931:6951  _checkInitializing() */\n      jump\t// in\n    tag_558:\n        /* \"@openzeppelin/contracts-upgradeable/utils/PausableUpgradeable.sol\":1899:1926  __Pausable_init_unchained() */\n      tag_528\n        /* \"@openzeppelin/contracts-upgradeable/utils/PausableUpgradeable.sol\":1899:1924  __Pausable_init_unchained */\n      tag_562\n        /* \"@openzeppelin/contracts-upgradeable/utils/PausableUpgradeable.sol\":1899:1926  __Pausable_init_unchained() */\n      jump\t// in\n        /* \"@openzeppelin/contracts-upgradeable/access/AccessControlUpgradeable.sol\":3231:3296  function __AccessControl_init() internal onlyInitializing {... */\n    tag_487:\n        /* \"@openzeppelin/contracts-upgradeable/proxy/utils/Initializable.sol\":6931:6951  _checkInitializing() */\n      tag_528\n        /* \"@openzeppelin/contracts-upgradeable/proxy/utils/Initializable.sol\":6931:6949  _checkInitializing */\n      tag_559\n        /* \"@openzeppelin/contracts-upgradeable/proxy/utils/Initializable.sol\":6931:6951  _checkInitializing() */\n      jump\t// in\n        /* \"@openzeppelin/contracts-upgradeable/access/AccessControlUpgradeable.sol\":4381:4578  function _checkRole(bytes32 role, address account) internal view virtual {... */\n    tag_502:\n        /* \"@openzeppelin/contracts-upgradeable/access/AccessControlUpgradeable.sol\":4469:4491  hasRole(role, account) */\n      tag_570\n        /* \"@openzeppelin/contracts-upgradeable/access/AccessControlUpgradeable.sol\":4477:4481  role */\n      dup3\n        /* \"@openzeppelin/contracts-upgradeable/access/AccessControlUpgradeable.sol\":4483:4490  account */\n      dup3\n        /* \"@openzeppelin/contracts-upgradeable/access/AccessControlUpgradeable.sol\":4469:4476  hasRole */\n      tag_159\n        /* \"@openzeppelin/contracts-upgradeable/access/AccessControlUpgradeable.sol\":4469:4491  hasRole(role, account) */\n      jump\t// in\n    tag_570:\n        /* \"@openzeppelin/contracts-upgradeable/access/AccessControlUpgradeable.sol\":4464:4572  if (!hasRole(role, account)) {... */\n      tag_256\n      jumpi\n        /* \"@openzeppelin/contracts-upgradeable/access/AccessControlUpgradeable.sol\":4514:4561  AccessControlUnauthorizedAccount(account, role) */\n      mload(0x40)\n      shl(0xe0, 0xe2517d3f)\n      dup2\n      mstore\n      sub(shl(0xa0, 0x01), 0x01)\n        /* \"#utility.yul\":20185:20217   */\n      dup3\n      and\n        /* \"@openzeppelin/contracts-upgradeable/access/AccessControlUpgradeable.sol\":4514:4561  AccessControlUnauthorizedAccount(account, role) */\n      0x04\n      dup3\n      add\n        /* \"#utility.yul\":20167:20218   */\n      mstore\n        /* \"#utility.yul\":20234:20252   */\n      0x24\n      dup2\n      add\n        /* \"#utility.yul\":20227:20261   */\n      dup4\n      swap1\n      mstore\n        /* \"#utility.yul\":20140:20158   */\n      0x44\n      add\n        /* \"@openzeppelin/contracts-upgradeable/access/AccessControlUpgradeable.sol\":4514:4561  AccessControlUnauthorizedAccount(account, role) */\n      tag_303\n        /* \"#utility.yul\":19993:20267   */\n      jump\n        /* \"@openzeppelin/contracts-upgradeable/utils/PausableUpgradeable.sol\":3105:3231  function _requirePaused() internal view virtual {... */\n    tag_518:\n      0x00\n      dup1\n      mload\n      0x20\n      data_c0c65a3718f3702d917c44106b91645b509d2e2d0979b70495c3babce192339f\n      dup4\n      codecopy\n      dup2\n      mload\n      swap2\n      mstore\n        /* \"@openzeppelin/contracts-upgradeable/utils/PausableUpgradeable.sol\":2821:2830  $._paused */\n      sload\n      0xff\n      and\n        /* \"@openzeppelin/contracts-upgradeable/utils/PausableUpgradeable.sol\":3163:3225  if (!paused()) {... */\n      tag_528\n      jumpi\n        /* \"@openzeppelin/contracts-upgradeable/utils/PausableUpgradeable.sol\":3199:3214  ExpectedPause() */\n      mload(0x40)\n      shl(0xe0, 0x8dfc202b)\n      dup2\n      mstore\n      0x04\n      add\n      mload(0x40)\n      dup1\n      swap2\n      sub\n      swap1\n      revert\n        /* \"@openzeppelin/contracts/proxy/ERC1967/ERC1967Utils.sol\":2779:3114  function upgradeToAndCall(address newImplementation, bytes memory data) internal {... */\n    tag_545:\n        /* \"@openzeppelin/contracts/proxy/ERC1967/ERC1967Utils.sol\":2870:2907  _setImplementation(newImplementation) */\n      tag_581\n        /* \"@openzeppelin/contracts/proxy/ERC1967/ERC1967Utils.sol\":2889:2906  newImplementation */\n      dup3\n        /* \"@openzeppelin/contracts/proxy/ERC1967/ERC1967Utils.sol\":2870:2888  _setImplementation */\n      tag_582\n        /* \"@openzeppelin/contracts/proxy/ERC1967/ERC1967Utils.sol\":2870:2907  _setImplementation(newImplementation) */\n      jump\t// in\n    tag_581:\n        /* \"@openzeppelin/contracts/proxy/ERC1967/ERC1967Utils.sol\":2922:2949  Upgraded(newImplementation) */\n      mload(0x40)\n      sub(shl(0xa0, 0x01), 0x01)\n      dup4\n      and\n      swap1\n      0xbc7cd75a20ee27fd9adebab32041f755214dbc6bffa90cc0225b39da2e5c2d3b\n      swap1\n      0x00\n      swap1\n      log2\n        /* \"@openzeppelin/contracts/proxy/ERC1967/ERC1967Utils.sol\":2964:2975  data.length */\n      dup1\n      mload\n        /* \"@openzeppelin/contracts/proxy/ERC1967/ERC1967Utils.sol\":2964:2979  data.length > 0 */\n      iszero\n        /* \"@openzeppelin/contracts/proxy/ERC1967/ERC1967Utils.sol\":2960:3108  if (data.length > 0) {... */\n      tag_583\n      jumpi\n        /* \"@openzeppelin/contracts/proxy/ERC1967/ERC1967Utils.sol\":2995:3048  Address.functionDelegateCall(newImplementation, data) */\n      tag_294\n        /* \"@openzeppelin/contracts/proxy/ERC1967/ERC1967Utils.sol\":3024:3041  newImplementation */\n      dup3\n        /* \"@openzeppelin/contracts/proxy/ERC1967/ERC1967Utils.sol\":3043:3047  data */\n      dup3\n        /* \"@openzeppelin/contracts/proxy/ERC1967/ERC1967Utils.sol\":2995:3023  Address.functionDelegateCall */\n      tag_585\n        /* \"@openzeppelin/contracts/proxy/ERC1967/ERC1967Utils.sol\":2995:3048  Address.functionDelegateCall(newImplementation, data) */\n      jump\t// in\n        /* \"@openzeppelin/contracts/proxy/ERC1967/ERC1967Utils.sol\":2960:3108  if (data.length > 0) {... */\n    tag_583:\n        /* \"@openzeppelin/contracts/proxy/ERC1967/ERC1967Utils.sol\":3079:3097  _checkNonPayable() */\n      tag_256\n        /* \"@openzeppelin/contracts/proxy/ERC1967/ERC1967Utils.sol\":3079:3095  _checkNonPayable */\n      tag_588\n        /* \"@openzeppelin/contracts/proxy/ERC1967/ERC1967Utils.sol\":3079:3097  _checkNonPayable() */\n      jump\t// in\n        /* \"@openzeppelin/contracts-upgradeable/utils/PausableUpgradeable.sol\":2905:3033  function _requireNotPaused() internal view virtual {... */\n    tag_551:\n      0x00\n      dup1\n      mload\n      0x20\n      data_c0c65a3718f3702d917c44106b91645b509d2e2d0979b70495c3babce192339f\n      dup4\n      codecopy\n      dup2\n      mload\n      swap2\n      mstore\n        /* \"@openzeppelin/contracts-upgradeable/utils/PausableUpgradeable.sol\":2821:2830  $._paused */\n      sload\n      0xff\n      and\n        /* \"@openzeppelin/contracts-upgradeable/utils/PausableUpgradeable.sol\":2966:3027  if (paused()) {... */\n      iszero\n      tag_528\n      jumpi\n        /* \"@openzeppelin/contracts-upgradeable/utils/PausableUpgradeable.sol\":3001:3016  EnforcedPause() */\n      mload(0x40)\n      shl(0xe0, 0xd93c0665)\n      dup2\n      mstore\n      0x04\n      add\n      mload(0x40)\n      dup1\n      swap2\n      sub\n      swap1\n      revert\n        /* \"@openzeppelin/contracts-upgradeable/proxy/utils/Initializable.sol\":7084:7225  function _checkInitializing() internal view virtual {... */\n    tag_559:\n        /* \"@openzeppelin/contracts-upgradeable/proxy/utils/Initializable.sol\":8870:8891  INITIALIZABLE_STORAGE */\n      0xf0c57e16840df040f15088dc2f81fe391c3923bec73e23a9662efc9c229c6a00\n        /* \"@openzeppelin/contracts-upgradeable/proxy/utils/Initializable.sol\":8560:8600  _getInitializableStorage()._initializing */\n      sload\n      shl(0x40, 0x01)\n      swap1\n      div\n      0xff\n      and\n        /* \"@openzeppelin/contracts-upgradeable/proxy/utils/Initializable.sol\":7146:7219  if (!_isInitializing()) {... */\n      tag_528\n      jumpi\n        /* \"@openzeppelin/contracts-upgradeable/proxy/utils/Initializable.sol\":7191:7208  NotInitializing() */\n      mload(0x40)\n      shl(0xe3, 0x1afcd79f)\n      dup2\n      mstore\n      0x04\n      add\n      mload(0x40)\n      dup1\n      swap2\n      sub\n      swap1\n      revert\n        /* \"@openzeppelin/contracts-upgradeable/utils/PausableUpgradeable.sol\":1939:2095  function __Pausable_init_unchained() internal onlyInitializing {... */\n    tag_562:\n        /* \"@openzeppelin/contracts-upgradeable/proxy/utils/Initializable.sol\":6931:6951  _checkInitializing() */\n      tag_597\n        /* \"@openzeppelin/contracts-upgradeable/proxy/utils/Initializable.sol\":6931:6949  _checkInitializing */\n      tag_559\n        /* \"@openzeppelin/contracts-upgradeable/proxy/utils/Initializable.sol\":6931:6951  _checkInitializing() */\n      jump\t// in\n    tag_597:\n      0x00\n      dup1\n      mload\n      0x20\n      data_c0c65a3718f3702d917c44106b91645b509d2e2d0979b70495c3babce192339f\n      dup4\n      codecopy\n      dup2\n      mload\n      swap2\n      mstore\n        /* \"@openzeppelin/contracts-upgradeable/utils/PausableUpgradeable.sol\":2071:2088  $._paused = false */\n      dup1\n      sload\n      not(0xff)\n      and\n      swap1\n      sstore\n        /* \"@openzeppelin/contracts-upgradeable/utils/PausableUpgradeable.sol\":1939:2095  function __Pausable_init_unchained() internal onlyInitializing {... */\n      jump\t// out\n        /* \"@openzeppelin/contracts/proxy/ERC1967/ERC1967Utils.sol\":2186:2467  function _setImplementation(address newImplementation) private {... */\n    tag_582:\n        /* \"@openzeppelin/contracts/proxy/ERC1967/ERC1967Utils.sol\":2263:2280  newImplementation */\n      dup1\n      sub(shl(0xa0, 0x01), 0x01)\n        /* \"@openzeppelin/contracts/proxy/ERC1967/ERC1967Utils.sol\":2263:2292  newImplementation.code.length */\n      and\n      extcodesize\n        /* \"@openzeppelin/contracts/proxy/ERC1967/ERC1967Utils.sol\":2296:2297  0 */\n      0x00\n        /* \"@openzeppelin/contracts/proxy/ERC1967/ERC1967Utils.sol\":2263:2297  newImplementation.code.length == 0 */\n      sub\n        /* \"@openzeppelin/contracts/proxy/ERC1967/ERC1967Utils.sol\":2259:2378  if (newImplementation.code.length == 0) {... */\n      tag_602\n      jumpi\n        /* \"@openzeppelin/contracts/proxy/ERC1967/ERC1967Utils.sol\":2320:2367  ERC1967InvalidImplementation(newImplementation) */\n      mload(0x40)\n      shl(0xe0, 0x4c9c8ce3)\n      dup2\n      mstore\n      sub(shl(0xa0, 0x01), 0x01)\n        /* \"#utility.yul\":678:710   */\n      dup3\n      and\n        /* \"@openzeppelin/contracts/proxy/ERC1967/ERC1967Utils.sol\":2320:2367  ERC1967InvalidImplementation(newImplementation) */\n      0x04\n      dup3\n      add\n        /* \"#utility.yul\":660:711   */\n      mstore\n        /* \"#utility.yul\":633:651   */\n      0x24\n      add\n        /* \"@openzeppelin/contracts/proxy/ERC1967/ERC1967Utils.sol\":2320:2367  ERC1967InvalidImplementation(newImplementation) */\n      tag_303\n        /* \"#utility.yul\":497:717   */\n      jump\n        /* \"@openzeppelin/contracts/proxy/ERC1967/ERC1967Utils.sol\":2259:2378  if (newImplementation.code.length == 0) {... */\n    tag_602:\n      0x00\n      dup1\n      mload\n      0x20\n      data_75b20eef8615de99c108b05f0dbda081c91897128caa336d75dffb97c4132b4d\n      dup4\n      codecopy\n      dup2\n      mload\n      swap2\n      mstore\n        /* \"@openzeppelin/contracts/proxy/ERC1967/ERC1967Utils.sol\":2387:2460  StorageSlot.getAddressSlot(IMPLEMENTATION_SLOT).value = newImplementation */\n      dup1\n      sload\n      not(sub(shl(0xa0, 0x01), 0x01))\n      and\n      sub(shl(0xa0, 0x01), 0x01)\n      swap3\n      swap1\n      swap3\n      and\n      swap2\n      swap1\n      swap2\n      or\n      swap1\n      sstore\n        /* \"@openzeppelin/contracts/proxy/ERC1967/ERC1967Utils.sol\":2186:2467  function _setImplementation(address newImplementation) private {... */\n      jump\t// out\n        /* \"@openzeppelin/contracts/utils/Address.sol\":4106:4359  function functionDelegateCall(address target, bytes memory data) internal returns (bytes memory) {... */\n    tag_585:\n        /* \"@openzeppelin/contracts/utils/Address.sol\":4189:4201  bytes memory */\n      0x60\n        /* \"@openzeppelin/contracts/utils/Address.sol\":4214:4226  bool success */\n      0x00\n        /* \"@openzeppelin/contracts/utils/Address.sol\":4228:4251  bytes memory returndata */\n      dup1\n        /* \"@openzeppelin/contracts/utils/Address.sol\":4255:4261  target */\n      dup5\n      sub(shl(0xa0, 0x01), 0x01)\n        /* \"@openzeppelin/contracts/utils/Address.sol\":4255:4274  target.delegatecall */\n      and\n        /* \"@openzeppelin/contracts/utils/Address.sol\":4275:4279  data */\n      dup5\n        /* \"@openzeppelin/contracts/utils/Address.sol\":4255:4280  target.delegatecall(data) */\n      mload(0x40)\n      tag_606\n      swap2\n      swap1\n      tag_263\n      jump\t// in\n    tag_606:\n      0x00\n      mload(0x40)\n      dup1\n      dup4\n      sub\n      dup2\n      dup6\n      gas\n      delegatecall\n      swap2\n      pop\n      pop\n      returndatasize\n      dup1\n      0x00\n      dup2\n      eq\n      tag_610\n      jumpi\n      mload(0x40)\n      swap2\n      pop\n      and(add(returndatasize, 0x3f), not(0x1f))\n      dup3\n      add\n      0x40\n      mstore\n      returndatasize\n      dup3\n      mstore\n      returndatasize\n      0x00\n      0x20\n      dup5\n      add\n      returndatacopy\n      jump(tag_609)\n    tag_610:\n      0x60\n      swap2\n      pop\n    tag_609:\n      pop\n        /* \"@openzeppelin/contracts/utils/Address.sol\":4213:4280  (bool success, bytes memory returndata) = target.delegatecall(data) */\n      swap2\n      pop\n      swap2\n      pop\n        /* \"@openzeppelin/contracts/utils/Address.sol\":4297:4352  verifyCallResultFromTarget(target, success, returndata) */\n      tag_611\n        /* \"@openzeppelin/contracts/utils/Address.sol\":4324:4330  target */\n      dup6\n        /* \"@openzeppelin/contracts/utils/Address.sol\":4332:4339  success */\n      dup4\n        /* \"@openzeppelin/contracts/utils/Address.sol\":4341:4351  returndata */\n      dup4\n        /* \"@openzeppelin/contracts/utils/Address.sol\":4297:4323  verifyCallResultFromTarget */\n      tag_612\n        /* \"@openzeppelin/contracts/utils/Address.sol\":4297:4352  verifyCallResultFromTarget(target, success, returndata) */\n      jump\t// in\n    tag_611:\n        /* \"@openzeppelin/contracts/utils/Address.sol\":4290:4352  return verifyCallResultFromTarget(target, success, returndata) */\n      swap6\n        /* \"@openzeppelin/contracts/utils/Address.sol\":4106:4359  function functionDelegateCall(address target, bytes memory data) internal returns (bytes memory) {... */\n      swap5\n      pop\n      pop\n      pop\n      pop\n      pop\n      jump\t// out\n        /* \"@openzeppelin/contracts/proxy/ERC1967/ERC1967Utils.sol\":6598:6720  function _checkNonPayable() private {... */\n    tag_588:\n        /* \"@openzeppelin/contracts/proxy/ERC1967/ERC1967Utils.sol\":6648:6657  msg.value */\n      callvalue\n        /* \"@openzeppelin/contracts/proxy/ERC1967/ERC1967Utils.sol\":6648:6661  msg.value > 0 */\n      iszero\n        /* \"@openzeppelin/contracts/proxy/ERC1967/ERC1967Utils.sol\":6644:6714  if (msg.value > 0) {... */\n      tag_528\n      jumpi\n        /* \"@openzeppelin/contracts/proxy/ERC1967/ERC1967Utils.sol\":6684:6703  ERC1967NonPayable() */\n      mload(0x40)\n      shl(0xe0, 0xb398979f)\n      dup2\n      mstore\n      0x04\n      add\n      mload(0x40)\n      dup1\n      swap2\n      sub\n      swap1\n      revert\n        /* \"@openzeppelin/contracts/utils/Address.sol\":4625:5207  function verifyCallResultFromTarget(... */\n    tag_612:\n        /* \"@openzeppelin/contracts/utils/Address.sol\":4769:4781  bytes memory */\n      0x60\n        /* \"@openzeppelin/contracts/utils/Address.sol\":4798:4805  success */\n      dup3\n        /* \"@openzeppelin/contracts/utils/Address.sol\":4793:5201  if (!success) {... */\n      tag_618\n      jumpi\n        /* \"@openzeppelin/contracts/utils/Address.sol\":4821:4840  _revert(returndata) */\n      tag_619\n        /* \"@openzeppelin/contracts/utils/Address.sol\":4829:4839  returndata */\n      dup3\n        /* \"@openzeppelin/contracts/utils/Address.sol\":4821:4828  _revert */\n      tag_620\n        /* \"@openzeppelin/contracts/utils/Address.sol\":4821:4840  _revert(returndata) */\n      jump\t// in\n    tag_619:\n        /* \"@openzeppelin/contracts/utils/Address.sol\":4793:5201  if (!success) {... */\n      jump(tag_621)\n    tag_618:\n        /* \"@openzeppelin/contracts/utils/Address.sol\":5045:5062  returndata.length */\n      dup2\n      mload\n        /* \"@openzeppelin/contracts/utils/Address.sol\":5045:5067  returndata.length == 0 */\n      iszero\n        /* \"@openzeppelin/contracts/utils/Address.sol\":5045:5094  returndata.length == 0 && target.code.length == 0 */\n      dup1\n      iszero\n      tag_622\n      jumpi\n      pop\n      sub(shl(0xa0, 0x01), 0x01)\n        /* \"@openzeppelin/contracts/utils/Address.sol\":5071:5089  target.code.length */\n      dup5\n      and\n      extcodesize\n        /* \"@openzeppelin/contracts/utils/Address.sol\":5071:5094  target.code.length == 0 */\n      iszero\n        /* \"@openzeppelin/contracts/utils/Address.sol\":5045:5094  returndata.length == 0 && target.code.length == 0 */\n    tag_622:\n        /* \"@openzeppelin/contracts/utils/Address.sol\":5041:5160  if (returndata.length == 0 && target.code.length == 0) {... */\n      iszero\n      tag_623\n      jumpi\n        /* \"@openzeppelin/contracts/utils/Address.sol\":5121:5145  AddressEmptyCode(target) */\n      mload(0x40)\n      shl(0xe0, 0x9996b315)\n      dup2\n      mstore\n      sub(shl(0xa0, 0x01), 0x01)\n        /* \"#utility.yul\":678:710   */\n      dup6\n      and\n        /* \"@openzeppelin/contracts/utils/Address.sol\":5121:5145  AddressEmptyCode(target) */\n      0x04\n      dup3\n      add\n        /* \"#utility.yul\":660:711   */\n      mstore\n        /* \"#utility.yul\":633:651   */\n      0x24\n      add\n        /* \"@openzeppelin/contracts/utils/Address.sol\":5121:5145  AddressEmptyCode(target) */\n      tag_303\n        /* \"#utility.yul\":497:717   */\n      jump\n        /* \"@openzeppelin/contracts/utils/Address.sol\":5041:5160  if (returndata.length == 0 && target.code.length == 0) {... */\n    tag_623:\n      pop\n        /* \"@openzeppelin/contracts/utils/Address.sol\":5180:5190  returndata */\n      dup1\n        /* \"@openzeppelin/contracts/utils/Address.sol\":4793:5201  if (!success) {... */\n    tag_621:\n        /* \"@openzeppelin/contracts/utils/Address.sol\":4625:5207  function verifyCallResultFromTarget(... */\n      swap4\n      swap3\n      pop\n      pop\n      pop\n      jump\t// out\n        /* \"@openzeppelin/contracts/utils/Address.sol\":5743:6259  function _revert(bytes memory returndata) private pure {... */\n    tag_620:\n        /* \"@openzeppelin/contracts/utils/Address.sol\":5874:5891  returndata.length */\n      dup1\n      mload\n        /* \"@openzeppelin/contracts/utils/Address.sol\":5874:5895  returndata.length > 0 */\n      iszero\n        /* \"@openzeppelin/contracts/utils/Address.sol\":5870:6253  if (returndata.length > 0) {... */\n      tag_626\n      jumpi\n        /* \"@openzeppelin/contracts/utils/Address.sol\":6102:6112  returndata */\n      dup1\n        /* \"@openzeppelin/contracts/utils/Address.sol\":6096:6113  mload(returndata) */\n      mload\n        /* \"@openzeppelin/contracts/utils/Address.sol\":6158:6173  returndata_size */\n      dup1\n        /* \"@openzeppelin/contracts/utils/Address.sol\":6145:6155  returndata */\n      dup3\n        /* \"@openzeppelin/contracts/utils/Address.sol\":6141:6143  32 */\n      0x20\n        /* \"@openzeppelin/contracts/utils/Address.sol\":6137:6156  add(32, returndata) */\n      add\n        /* \"@openzeppelin/contracts/utils/Address.sol\":6130:6174  revert(add(32, returndata), returndata_size) */\n      revert\n        /* \"@openzeppelin/contracts/utils/Address.sol\":5870:6253  if (returndata.length > 0) {... */\n    tag_626:\n        /* \"@openzeppelin/contracts/utils/Address.sol\":6225:6242  FailedInnerCall() */\n      mload(0x40)\n      shl(0xe1, 0x0a12f521)\n      dup2\n      mstore\n      0x04\n      add\n      mload(0x40)\n      dup1\n      swap2\n      sub\n      swap1\n      revert\n    tag_313:\n      dup3\n      dup1\n      sload\n      dup3\n      dup3\n      sstore\n      swap1\n      0x00\n      mstore\n      keccak256(0x00, 0x20)\n      swap1\n      dup2\n      add\n      swap3\n      dup3\n      iszero\n      tag_630\n      jumpi\n      swap2\n      0x20\n      mul\n      dup3\n      add\n    tag_629:\n      dup3\n      dup2\n      gt\n      iszero\n      tag_630\n      jumpi\n      dup3\n      mload\n      dup3\n      sstore\n      swap2\n      0x20\n      add\n      swap2\n      swap1\n      0x01\n      add\n      swap1\n      jump(tag_629)\n    tag_630:\n      pop\n      tag_631\n      swap3\n      swap2\n      pop\n      tag_632\n      jump\t// in\n    tag_631:\n      pop\n      swap1\n      jump\t// out\n    tag_338:\n      dup3\n      dup1\n      sload\n      dup3\n      dup3\n      sstore\n      swap1\n      0x00\n      mstore\n      keccak256(0x00, 0x20)\n      swap1\n      dup2\n      add\n      swap3\n      dup3\n      iszero\n      tag_630\n      jumpi\n      swap2\n      0x20\n      mul\n      dup3\n      add\n    tag_634:\n      dup3\n      dup2\n      gt\n      iszero\n      tag_630\n      jumpi\n      dup3\n      mload\n      dup3\n      sload\n      not(sub(shl(0xa0, 0x01), 0x01))\n      and\n      sub(shl(0xa0, 0x01), 0x01)\n      swap1\n      swap2\n      and\n      or\n      dup3\n      sstore\n      0x20\n      swap1\n      swap3\n      add\n      swap2\n      0x01\n      swap1\n      swap2\n      add\n      swap1\n      jump(tag_634)\n    tag_632:\n    tag_637:\n      dup1\n      dup3\n      gt\n      iszero\n      tag_631\n      jumpi\n      0x00\n      dup2\n      sstore\n      0x01\n      add\n      jump(tag_637)\n        /* \"#utility.yul\":14:300   */\n    tag_54:\n        /* \"#utility.yul\":72:78   */\n      0x00\n        /* \"#utility.yul\":125:127   */\n      0x20\n        /* \"#utility.yul\":113:122   */\n      dup3\n        /* \"#utility.yul\":104:111   */\n      dup5\n        /* \"#utility.yul\":100:123   */\n      sub\n        /* \"#utility.yul\":96:128   */\n      slt\n        /* \"#utility.yul\":93:145   */\n      iszero\n      tag_651\n      jumpi\n        /* \"#utility.yul\":141:142   */\n      0x00\n        /* \"#utility.yul\":138:139   */\n      dup1\n        /* \"#utility.yul\":131:143   */\n      revert\n        /* \"#utility.yul\":93:145   */\n    tag_651:\n        /* \"#utility.yul\":167:190   */\n      dup2\n      calldataload\n      not(sub(shl(0xe0, 0x01), 0x01))\n        /* \"#utility.yul\":219:251   */\n      dup2\n      and\n        /* \"#utility.yul\":209:252   */\n      dup2\n      eq\n        /* \"#utility.yul\":199:270   */\n      tag_621\n      jumpi\n        /* \"#utility.yul\":266:267   */\n      0x00\n        /* \"#utility.yul\":263:264   */\n      dup1\n        /* \"#utility.yul\":256:268   */\n      revert\n        /* \"#utility.yul\":722:849   */\n    tag_307:\n        /* \"#utility.yul\":783:793   */\n      0x4e487b71\n        /* \"#utility.yul\":778:781   */\n      0xe0\n        /* \"#utility.yul\":774:794   */\n      shl\n        /* \"#utility.yul\":771:772   */\n      0x00\n        /* \"#utility.yul\":764:795   */\n      mstore\n        /* \"#utility.yul\":814:818   */\n      0x41\n        /* \"#utility.yul\":811:812   */\n      0x04\n        /* \"#utility.yul\":804:819   */\n      mstore\n        /* \"#utility.yul\":838:842   */\n      0x24\n        /* \"#utility.yul\":835:836   */\n      0x00\n        /* \"#utility.yul\":828:843   */\n      revert\n        /* \"#utility.yul\":854:1129   */\n    tag_639:\n        /* \"#utility.yul\":925:927   */\n      0x40\n        /* \"#utility.yul\":919:928   */\n      mload\n        /* \"#utility.yul\":990:992   */\n      0x1f\n        /* \"#utility.yul\":971:984   */\n      dup3\n      add\n      not(0x1f)\n        /* \"#utility.yul\":967:994   */\n      and\n        /* \"#utility.yul\":955:995   */\n      dup2\n      add\n      sub(shl(0x40, 0x01), 0x01)\n        /* \"#utility.yul\":1010:1044   */\n      dup2\n      gt\n        /* \"#utility.yul\":1046:1068   */\n      dup3\n      dup3\n      lt\n        /* \"#utility.yul\":1007:1069   */\n      or\n        /* \"#utility.yul\":1004:1092   */\n      iszero\n      tag_658\n      jumpi\n        /* \"#utility.yul\":1072:1090   */\n      tag_658\n      tag_307\n      jump\t// in\n    tag_658:\n        /* \"#utility.yul\":1108:1110   */\n      0x40\n        /* \"#utility.yul\":1101:1123   */\n      mstore\n        /* \"#utility.yul\":854:1129   */\n      swap2\n      swap1\n      pop\n      jump\t// out\n        /* \"#utility.yul\":1134:1584   */\n    tag_640:\n        /* \"#utility.yul\":1199:1204   */\n      0x00\n        /* \"#utility.yul\":1231:1232   */\n      dup1\n      sub(shl(0x40, 0x01), 0x01)\n        /* \"#utility.yul\":1247:1253   */\n      dup5\n        /* \"#utility.yul\":1244:1274   */\n      gt\n        /* \"#utility.yul\":1241:1297   */\n      iszero\n      tag_661\n      jumpi\n        /* \"#utility.yul\":1277:1295   */\n      tag_661\n      tag_307\n      jump\t// in\n    tag_661:\n      pop\n        /* \"#utility.yul\":1343:1345   */\n      0x1f\n        /* \"#utility.yul\":1322:1337   */\n      dup4\n      add\n      not(0x1f)\n        /* \"#utility.yul\":1318:1347   */\n      and\n        /* \"#utility.yul\":1349:1353   */\n      0x20\n        /* \"#utility.yul\":1314:1354   */\n      add\n        /* \"#utility.yul\":1372:1393   */\n      tag_662\n        /* \"#utility.yul\":1314:1354   */\n      dup2\n        /* \"#utility.yul\":1372:1393   */\n      tag_639\n      jump\t// in\n    tag_662:\n        /* \"#utility.yul\":1363:1393   */\n      swap2\n      pop\n      pop\n        /* \"#utility.yul\":1416:1422   */\n      dup3\n        /* \"#utility.yul\":1409:1414   */\n      dup2\n        /* \"#utility.yul\":1402:1423   */\n      mstore\n        /* \"#utility.yul\":1456:1459   */\n      dup4\n        /* \"#utility.yul\":1447:1453   */\n      dup4\n        /* \"#utility.yul\":1442:1445   */\n      dup4\n        /* \"#utility.yul\":1438:1454   */\n      add\n        /* \"#utility.yul\":1435:1460   */\n      gt\n        /* \"#utility.yul\":1432:1477   */\n      iszero\n      tag_663\n      jumpi\n        /* \"#utility.yul\":1473:1474   */\n      0x00\n        /* \"#utility.yul\":1470:1471   */\n      dup1\n        /* \"#utility.yul\":1463:1475   */\n      revert\n        /* \"#utility.yul\":1432:1477   */\n    tag_663:\n        /* \"#utility.yul\":1522:1528   */\n      dup3\n        /* \"#utility.yul\":1517:1520   */\n      dup3\n        /* \"#utility.yul\":1510:1514   */\n      0x20\n        /* \"#utility.yul\":1503:1508   */\n      dup4\n        /* \"#utility.yul\":1499:1515   */\n      add\n        /* \"#utility.yul\":1486:1529   */\n      calldatacopy\n        /* \"#utility.yul\":1576:1577   */\n      0x00\n        /* \"#utility.yul\":1569:1573   */\n      0x20\n        /* \"#utility.yul\":1560:1566   */\n      dup5\n        /* \"#utility.yul\":1553:1558   */\n      dup4\n        /* \"#utility.yul\":1549:1567   */\n      add\n        /* \"#utility.yul\":1545:1574   */\n      add\n        /* \"#utility.yul\":1538:1578   */\n      mstore\n        /* \"#utility.yul\":1134:1584   */\n      swap4\n      swap3\n      pop\n      pop\n      pop\n      jump\t// out\n        /* \"#utility.yul\":1589:1811   */\n    tag_641:\n        /* \"#utility.yul\":1632:1637   */\n      0x00\n        /* \"#utility.yul\":1685:1688   */\n      dup3\n        /* \"#utility.yul\":1678:1682   */\n      0x1f\n        /* \"#utility.yul\":1670:1676   */\n      dup4\n        /* \"#utility.yul\":1666:1683   */\n      add\n        /* \"#utility.yul\":1662:1689   */\n      slt\n        /* \"#utility.yul\":1652:1707   */\n      tag_665\n      jumpi\n        /* \"#utility.yul\":1703:1704   */\n      0x00\n        /* \"#utility.yul\":1700:1701   */\n      dup1\n        /* \"#utility.yul\":1693:1705   */\n      revert\n        /* \"#utility.yul\":1652:1707   */\n    tag_665:\n        /* \"#utility.yul\":1725:1805   */\n      tag_621\n        /* \"#utility.yul\":1801:1804   */\n      dup4\n        /* \"#utility.yul\":1792:1798   */\n      dup4\n        /* \"#utility.yul\":1779:1799   */\n      calldataload\n        /* \"#utility.yul\":1772:1776   */\n      0x20\n        /* \"#utility.yul\":1764:1770   */\n      dup6\n        /* \"#utility.yul\":1760:1777   */\n      add\n        /* \"#utility.yul\":1725:1805   */\n      tag_640\n      jump\t// in\n        /* \"#utility.yul\":1816:2138   */\n    tag_66:\n        /* \"#utility.yul\":1885:1891   */\n      0x00\n        /* \"#utility.yul\":1938:1940   */\n      0x20\n        /* \"#utility.yul\":1926:1935   */\n      dup3\n        /* \"#utility.yul\":1917:1924   */\n      dup5\n        /* \"#utility.yul\":1913:1936   */\n      sub\n        /* \"#utility.yul\":1909:1941   */\n      slt\n        /* \"#utility.yul\":1906:1958   */\n      iszero\n      tag_668\n      jumpi\n        /* \"#utility.yul\":1954:1955   */\n      0x00\n        /* \"#utility.yul\":1951:1952   */\n      dup1\n        /* \"#utility.yul\":1944:1956   */\n      revert\n        /* \"#utility.yul\":1906:1958   */\n    tag_668:\n        /* \"#utility.yul\":1994:2003   */\n      dup2\n        /* \"#utility.yul\":1981:2004   */\n      calldataload\n      sub(shl(0x40, 0x01), 0x01)\n        /* \"#utility.yul\":2019:2025   */\n      dup2\n        /* \"#utility.yul\":2016:2046   */\n      gt\n        /* \"#utility.yul\":2013:2063   */\n      iszero\n      tag_669\n      jumpi\n        /* \"#utility.yul\":2059:2060   */\n      0x00\n        /* \"#utility.yul\":2056:2057   */\n      dup1\n        /* \"#utility.yul\":2049:2061   */\n      revert\n        /* \"#utility.yul\":2013:2063   */\n    tag_669:\n        /* \"#utility.yul\":2082:2132   */\n      tag_670\n        /* \"#utility.yul\":2124:2131   */\n      dup5\n        /* \"#utility.yul\":2115:2121   */\n      dup3\n        /* \"#utility.yul\":2104:2113   */\n      dup6\n        /* \"#utility.yul\":2100:2122   */\n      add\n        /* \"#utility.yul\":2082:2132   */\n      tag_641\n      jump\t// in\n    tag_670:\n        /* \"#utility.yul\":2072:2132   */\n      swap5\n        /* \"#utility.yul\":1816:2138   */\n      swap4\n      pop\n      pop\n      pop\n      pop\n      jump\t// out\n        /* \"#utility.yul\":2368:2594   */\n    tag_76:\n        /* \"#utility.yul\":2427:2433   */\n      0x00\n        /* \"#utility.yul\":2480:2482   */\n      0x20\n        /* \"#utility.yul\":2468:2477   */\n      dup3\n        /* \"#utility.yul\":2459:2466   */\n      dup5\n        /* \"#utility.yul\":2455:2478   */\n      sub\n        /* \"#utility.yul\":2451:2483   */\n      slt\n        /* \"#utility.yul\":2448:2500   */\n      iszero\n      tag_673\n      jumpi\n        /* \"#utility.yul\":2496:2497   */\n      0x00\n        /* \"#utility.yul\":2493:2494   */\n      dup1\n        /* \"#utility.yul\":2486:2498   */\n      revert\n        /* \"#utility.yul\":2448:2500   */\n    tag_673:\n      pop\n        /* \"#utility.yul\":2541:2564   */\n      calldataload\n      swap2\n        /* \"#utility.yul\":2368:2594   */\n      swap1\n      pop\n      jump\t// out\n        /* \"#utility.yul\":2781:2954   */\n    tag_642:\n        /* \"#utility.yul\":2849:2869   */\n      dup1\n      calldataload\n      sub(shl(0xa0, 0x01), 0x01)\n        /* \"#utility.yul\":2898:2929   */\n      dup2\n      and\n        /* \"#utility.yul\":2888:2930   */\n      dup2\n      eq\n        /* \"#utility.yul\":2878:2948   */\n      tag_676\n      jumpi\n        /* \"#utility.yul\":2944:2945   */\n      0x00\n        /* \"#utility.yul\":2941:2942   */\n      dup1\n        /* \"#utility.yul\":2934:2946   */\n      revert\n        /* \"#utility.yul\":2878:2948   */\n    tag_676:\n        /* \"#utility.yul\":2781:2954   */\n      swap2\n      swap1\n      pop\n      jump\t// out\n        /* \"#utility.yul\":2959:3259   */\n    tag_83:\n        /* \"#utility.yul\":3027:3033   */\n      0x00\n        /* \"#utility.yul\":3035:3041   */\n      dup1\n        /* \"#utility.yul\":3088:3090   */\n      0x40\n        /* \"#utility.yul\":3076:3085   */\n      dup4\n        /* \"#utility.yul\":3067:3074   */\n      dup6\n        /* \"#utility.yul\":3063:3086   */\n      sub\n        /* \"#utility.yul\":3059:3091   */\n      slt\n        /* \"#utility.yul\":3056:3108   */\n      iszero\n      tag_678\n      jumpi\n        /* \"#utility.yul\":3104:3105   */\n      0x00\n        /* \"#utility.yul\":3101:3102   */\n      dup1\n        /* \"#utility.yul\":3094:3106   */\n      revert\n        /* \"#utility.yul\":3056:3108   */\n    tag_678:\n        /* \"#utility.yul\":3149:3172   */\n      dup3\n      calldataload\n      swap2\n      pop\n        /* \"#utility.yul\":3215:3253   */\n      tag_679\n        /* \"#utility.yul\":3249:3251   */\n      0x20\n        /* \"#utility.yul\":3234:3252   */\n      dup5\n      add\n        /* \"#utility.yul\":3215:3253   */\n      tag_642\n      jump\t// in\n    tag_679:\n        /* \"#utility.yul\":3205:3253   */\n      swap1\n      pop\n        /* \"#utility.yul\":2959:3259   */\n      swap3\n      pop\n      swap3\n      swap1\n      pop\n      jump\t// out\n        /* \"#utility.yul\":3264:4062   */\n    tag_88:\n        /* \"#utility.yul\":3369:3375   */\n      0x00\n        /* \"#utility.yul\":3377:3383   */\n      dup1\n        /* \"#utility.yul\":3385:3391   */\n      0x00\n        /* \"#utility.yul\":3393:3399   */\n      dup1\n        /* \"#utility.yul\":3401:3407   */\n      0x00\n        /* \"#utility.yul\":3454:3457   */\n      0xa0\n        /* \"#utility.yul\":3442:3451   */\n      dup7\n        /* \"#utility.yul\":3433:3440   */\n      dup9\n        /* \"#utility.yul\":3429:3452   */\n      sub\n        /* \"#utility.yul\":3425:3458   */\n      slt\n        /* \"#utility.yul\":3422:3475   */\n      iszero\n      tag_681\n      jumpi\n        /* \"#utility.yul\":3471:3472   */\n      0x00\n        /* \"#utility.yul\":3468:3469   */\n      dup1\n        /* \"#utility.yul\":3461:3473   */\n      revert\n        /* \"#utility.yul\":3422:3475   */\n    tag_681:\n        /* \"#utility.yul\":3511:3520   */\n      dup6\n        /* \"#utility.yul\":3498:3521   */\n      calldataload\n      sub(shl(0x40, 0x01), 0x01)\n        /* \"#utility.yul\":3536:3542   */\n      dup2\n        /* \"#utility.yul\":3533:3563   */\n      gt\n        /* \"#utility.yul\":3530:3580   */\n      iszero\n      tag_682\n      jumpi\n        /* \"#utility.yul\":3576:3577   */\n      0x00\n        /* \"#utility.yul\":3573:3574   */\n      dup1\n        /* \"#utility.yul\":3566:3578   */\n      revert\n        /* \"#utility.yul\":3530:3580   */\n    tag_682:\n        /* \"#utility.yul\":3599:3649   */\n      tag_683\n        /* \"#utility.yul\":3641:3648   */\n      dup9\n        /* \"#utility.yul\":3632:3638   */\n      dup3\n        /* \"#utility.yul\":3621:3630   */\n      dup10\n        /* \"#utility.yul\":3617:3639   */\n      add\n        /* \"#utility.yul\":3599:3649   */\n      tag_641\n      jump\t// in\n    tag_683:\n        /* \"#utility.yul\":3589:3649   */\n      swap9\n        /* \"#utility.yul\":3718:3720   */\n      0x20\n        /* \"#utility.yul\":3703:3721   */\n      dup9\n      add\n        /* \"#utility.yul\":3690:3722   */\n      calldataload\n      swap9\n      pop\n        /* \"#utility.yul\":3819:3821   */\n      0x40\n        /* \"#utility.yul\":3804:3822   */\n      dup9\n      add\n        /* \"#utility.yul\":3791:3823   */\n      calldataload\n      swap8\n        /* \"#utility.yul\":3922:3924   */\n      0x60\n        /* \"#utility.yul\":3907:3925   */\n      dup2\n      add\n        /* \"#utility.yul\":3894:3926   */\n      calldataload\n      swap8\n      pop\n        /* \"#utility.yul\":4025:4028   */\n      0x80\n        /* \"#utility.yul\":4010:4029   */\n      add\n        /* \"#utility.yul\":3997:4030   */\n      calldataload\n      swap6\n      pop\n        /* \"#utility.yul\":3264:4062   */\n      swap4\n      pop\n      pop\n      pop\n      pop\n      jump\t// out\n        /* \"#utility.yul\":4067:4253   */\n    tag_103:\n        /* \"#utility.yul\":4126:4132   */\n      0x00\n        /* \"#utility.yul\":4179:4181   */\n      0x20\n        /* \"#utility.yul\":4167:4176   */\n      dup3\n        /* \"#utility.yul\":4158:4165   */\n      dup5\n        /* \"#utility.yul\":4154:4177   */\n      sub\n        /* \"#utility.yul\":4150:4182   */\n      slt\n        /* \"#utility.yul\":4147:4199   */\n      iszero\n      tag_685\n      jumpi\n        /* \"#utility.yul\":4195:4196   */\n      0x00\n        /* \"#utility.yul\":4192:4193   */\n      dup1\n        /* \"#utility.yul\":4185:4197   */\n      revert\n        /* \"#utility.yul\":4147:4199   */\n    tag_685:\n        /* \"#utility.yul\":4218:4247   */\n      tag_621\n        /* \"#utility.yul\":4237:4246   */\n      dup3\n        /* \"#utility.yul\":4218:4247   */\n      tag_642\n      jump\t// in\n        /* \"#utility.yul\":4892:5416   */\n    tag_119:\n        /* \"#utility.yul\":4969:4975   */\n      0x00\n        /* \"#utility.yul\":4977:4983   */\n      dup1\n        /* \"#utility.yul\":5030:5032   */\n      0x40\n        /* \"#utility.yul\":5018:5027   */\n      dup4\n        /* \"#utility.yul\":5009:5016   */\n      dup6\n        /* \"#utility.yul\":5005:5028   */\n      sub\n        /* \"#utility.yul\":5001:5033   */\n      slt\n        /* \"#utility.yul\":4998:5050   */\n      iszero\n      tag_692\n      jumpi\n        /* \"#utility.yul\":5046:5047   */\n      0x00\n        /* \"#utility.yul\":5043:5044   */\n      dup1\n        /* \"#utility.yul\":5036:5048   */\n      revert\n        /* \"#utility.yul\":4998:5050   */\n    tag_692:\n        /* \"#utility.yul\":5069:5098   */\n      tag_693\n        /* \"#utility.yul\":5088:5097   */\n      dup4\n        /* \"#utility.yul\":5069:5098   */\n      tag_642\n      jump\t// in\n    tag_693:\n        /* \"#utility.yul\":5059:5098   */\n      swap2\n      pop\n        /* \"#utility.yul\":5149:5151   */\n      0x20\n        /* \"#utility.yul\":5138:5147   */\n      dup4\n        /* \"#utility.yul\":5134:5152   */\n      add\n        /* \"#utility.yul\":5121:5153   */\n      calldataload\n      sub(shl(0x40, 0x01), 0x01)\n        /* \"#utility.yul\":5168:5174   */\n      dup2\n        /* \"#utility.yul\":5165:5195   */\n      gt\n        /* \"#utility.yul\":5162:5212   */\n      iszero\n      tag_694\n      jumpi\n        /* \"#utility.yul\":5208:5209   */\n      0x00\n        /* \"#utility.yul\":5205:5206   */\n      dup1\n        /* \"#utility.yul\":5198:5210   */\n      revert\n        /* \"#utility.yul\":5162:5212   */\n    tag_694:\n        /* \"#utility.yul\":5231:5253   */\n      dup4\n      add\n        /* \"#utility.yul\":5284:5288   */\n      0x1f\n        /* \"#utility.yul\":5276:5289   */\n      dup2\n      add\n        /* \"#utility.yul\":5272:5299   */\n      dup6\n      sgt\n        /* \"#utility.yul\":5262:5317   */\n      tag_695\n      jumpi\n        /* \"#utility.yul\":5313:5314   */\n      0x00\n        /* \"#utility.yul\":5310:5311   */\n      dup1\n        /* \"#utility.yul\":5303:5315   */\n      revert\n        /* \"#utility.yul\":5262:5317   */\n    tag_695:\n        /* \"#utility.yul\":5336:5410   */\n      tag_696\n        /* \"#utility.yul\":5402:5409   */\n      dup6\n        /* \"#utility.yul\":5397:5399   */\n      dup3\n        /* \"#utility.yul\":5384:5400   */\n      calldataload\n        /* \"#utility.yul\":5379:5381   */\n      0x20\n        /* \"#utility.yul\":5375:5377   */\n      dup5\n        /* \"#utility.yul\":5371:5382   */\n      add\n        /* \"#utility.yul\":5336:5410   */\n      tag_640\n      jump\t// in\n    tag_696:\n        /* \"#utility.yul\":5326:5410   */\n      swap2\n      pop\n      pop\n        /* \"#utility.yul\":4892:5416   */\n      swap3\n      pop\n      swap3\n      swap1\n      pop\n      jump\t// out\n        /* \"#utility.yul\":5421:5817   */\n    tag_124:\n        /* \"#utility.yul\":5499:5505   */\n      0x00\n        /* \"#utility.yul\":5507:5513   */\n      dup1\n        /* \"#utility.yul\":5560:5562   */\n      0x40\n        /* \"#utility.yul\":5548:5557   */\n      dup4\n        /* \"#utility.yul\":5539:5546   */\n      dup6\n        /* \"#utility.yul\":5535:5558   */\n      sub\n        /* \"#utility.yul\":5531:5563   */\n      slt\n        /* \"#utility.yul\":5528:5580   */\n      iszero\n      tag_698\n      jumpi\n        /* \"#utility.yul\":5576:5577   */\n      0x00\n        /* \"#utility.yul\":5573:5574   */\n      dup1\n        /* \"#utility.yul\":5566:5578   */\n      revert\n        /* \"#utility.yul\":5528:5580   */\n    tag_698:\n        /* \"#utility.yul\":5616:5625   */\n      dup3\n        /* \"#utility.yul\":5603:5626   */\n      calldataload\n      sub(shl(0x40, 0x01), 0x01)\n        /* \"#utility.yul\":5641:5647   */\n      dup2\n        /* \"#utility.yul\":5638:5668   */\n      gt\n        /* \"#utility.yul\":5635:5685   */\n      iszero\n      tag_699\n      jumpi\n        /* \"#utility.yul\":5681:5682   */\n      0x00\n        /* \"#utility.yul\":5678:5679   */\n      dup1\n        /* \"#utility.yul\":5671:5683   */\n      revert\n        /* \"#utility.yul\":5635:5685   */\n    tag_699:\n        /* \"#utility.yul\":5704:5754   */\n      tag_700\n        /* \"#utility.yul\":5746:5753   */\n      dup6\n        /* \"#utility.yul\":5737:5743   */\n      dup3\n        /* \"#utility.yul\":5726:5735   */\n      dup7\n        /* \"#utility.yul\":5722:5744   */\n      add\n        /* \"#utility.yul\":5704:5754   */\n      tag_641\n      jump\t// in\n    tag_700:\n        /* \"#utility.yul\":5694:5754   */\n      swap3\n      pop\n      pop\n        /* \"#utility.yul\":5773:5811   */\n      tag_679\n        /* \"#utility.yul\":5807:5809   */\n      0x20\n        /* \"#utility.yul\":5796:5805   */\n      dup5\n        /* \"#utility.yul\":5792:5810   */\n      add\n        /* \"#utility.yul\":5773:5811   */\n      tag_642\n      jump\t// in\n        /* \"#utility.yul\":6046:6698   */\n    tag_142:\n        /* \"#utility.yul\":6143:6149   */\n      0x00\n        /* \"#utility.yul\":6151:6157   */\n      dup1\n        /* \"#utility.yul\":6159:6165   */\n      0x00\n        /* \"#utility.yul\":6212:6214   */\n      0x60\n        /* \"#utility.yul\":6200:6209   */\n      dup5\n        /* \"#utility.yul\":6191:6198   */\n      dup7\n        /* \"#utility.yul\":6187:6210   */\n      sub\n        /* \"#utility.yul\":6183:6215   */\n      slt\n        /* \"#utility.yul\":6180:6232   */\n      iszero\n      tag_704\n      jumpi\n        /* \"#utility.yul\":6228:6229   */\n      0x00\n        /* \"#utility.yul\":6225:6226   */\n      dup1\n        /* \"#utility.yul\":6218:6230   */\n      revert\n        /* \"#utility.yul\":6180:6232   */\n    tag_704:\n        /* \"#utility.yul\":6268:6277   */\n      dup4\n        /* \"#utility.yul\":6255:6278   */\n      calldataload\n      sub(shl(0x40, 0x01), 0x01)\n        /* \"#utility.yul\":6293:6299   */\n      dup2\n        /* \"#utility.yul\":6290:6320   */\n      gt\n        /* \"#utility.yul\":6287:6337   */\n      iszero\n      tag_705\n      jumpi\n        /* \"#utility.yul\":6333:6334   */\n      0x00\n        /* \"#utility.yul\":6330:6331   */\n      dup1\n        /* \"#utility.yul\":6323:6335   */\n      revert\n        /* \"#utility.yul\":6287:6337   */\n    tag_705:\n        /* \"#utility.yul\":6356:6406   */\n      tag_706\n        /* \"#utility.yul\":6398:6405   */\n      dup7\n        /* \"#utility.yul\":6389:6395   */\n      dup3\n        /* \"#utility.yul\":6378:6387   */\n      dup8\n        /* \"#utility.yul\":6374:6396   */\n      add\n        /* \"#utility.yul\":6356:6406   */\n      tag_641\n      jump\t// in\n    tag_706:\n        /* \"#utility.yul\":6346:6406   */\n      swap4\n      pop\n      pop\n        /* \"#utility.yul\":6459:6461   */\n      0x20\n        /* \"#utility.yul\":6448:6457   */\n      dup5\n        /* \"#utility.yul\":6444:6462   */\n      add\n        /* \"#utility.yul\":6431:6463   */\n      calldataload\n      sub(shl(0x40, 0x01), 0x01)\n        /* \"#utility.yul\":6478:6486   */\n      dup2\n        /* \"#utility.yul\":6475:6507   */\n      gt\n        /* \"#utility.yul\":6472:6524   */\n      iszero\n      tag_707\n      jumpi\n        /* \"#utility.yul\":6520:6521   */\n      0x00\n        /* \"#utility.yul\":6517:6518   */\n      dup1\n        /* \"#utility.yul\":6510:6522   */\n      revert\n        /* \"#utility.yul\":6472:6524   */\n    tag_707:\n        /* \"#utility.yul\":6543:6595   */\n      tag_708\n        /* \"#utility.yul\":6587:6594   */\n      dup7\n        /* \"#utility.yul\":6576:6584   */\n      dup3\n        /* \"#utility.yul\":6565:6574   */\n      dup8\n        /* \"#utility.yul\":6561:6585   */\n      add\n        /* \"#utility.yul\":6543:6595   */\n      tag_641\n      jump\t// in\n    tag_708:\n        /* \"#utility.yul\":6046:6698   */\n      swap4\n      swap7\n        /* \"#utility.yul\":6533:6595   */\n      swap4\n      swap6\n      pop\n      pop\n      pop\n      pop\n        /* \"#utility.yul\":6664:6666   */\n      0x40\n        /* \"#utility.yul\":6649:6667   */\n      swap2\n      swap1\n      swap2\n      add\n        /* \"#utility.yul\":6636:6668   */\n      calldataload\n      swap1\n        /* \"#utility.yul\":6046:6698   */\n      jump\t// out\n        /* \"#utility.yul\":6926:7226   */\n    tag_643:\n        /* \"#utility.yul\":6979:6982   */\n      0x00\n        /* \"#utility.yul\":7017:7022   */\n      dup2\n        /* \"#utility.yul\":7011:7023   */\n      mload\n        /* \"#utility.yul\":7044:7050   */\n      dup1\n        /* \"#utility.yul\":7039:7042   */\n      dup5\n        /* \"#utility.yul\":7032:7051   */\n      mstore\n        /* \"#utility.yul\":7100:7106   */\n      dup1\n        /* \"#utility.yul\":7093:7097   */\n      0x20\n        /* \"#utility.yul\":7086:7091   */\n      dup5\n        /* \"#utility.yul\":7082:7098   */\n      add\n        /* \"#utility.yul\":7075:7079   */\n      0x20\n        /* \"#utility.yul\":7070:7073   */\n      dup7\n        /* \"#utility.yul\":7066:7080   */\n      add\n        /* \"#utility.yul\":7060:7107   */\n      mcopy\n        /* \"#utility.yul\":7152:7153   */\n      0x00\n        /* \"#utility.yul\":7145:7149   */\n      0x20\n        /* \"#utility.yul\":7136:7142   */\n      dup3\n        /* \"#utility.yul\":7131:7134   */\n      dup7\n        /* \"#utility.yul\":7127:7143   */\n      add\n        /* \"#utility.yul\":7123:7150   */\n      add\n        /* \"#utility.yul\":7116:7154   */\n      mstore\n        /* \"#utility.yul\":7215:7219   */\n      0x20\n        /* \"#utility.yul\":7208:7210   */\n      0x1f\n        /* \"#utility.yul\":7204:7211   */\n      not\n        /* \"#utility.yul\":7199:7201   */\n      0x1f\n        /* \"#utility.yul\":7191:7197   */\n      dup4\n        /* \"#utility.yul\":7187:7202   */\n      add\n        /* \"#utility.yul\":7183:7212   */\n      and\n        /* \"#utility.yul\":7178:7181   */\n      dup6\n        /* \"#utility.yul\":7174:7213   */\n      add\n        /* \"#utility.yul\":7170:7220   */\n      add\n        /* \"#utility.yul\":7163:7220   */\n      swap2\n      pop\n      pop\n        /* \"#utility.yul\":6926:7226   */\n      swap3\n      swap2\n      pop\n      pop\n      jump\t// out\n        /* \"#utility.yul\":7231:7559   */\n    tag_178:\n        /* \"#utility.yul\":7408:7410   */\n      0x40\n        /* \"#utility.yul\":7397:7406   */\n      dup2\n        /* \"#utility.yul\":7390:7411   */\n      mstore\n        /* \"#utility.yul\":7371:7375   */\n      0x00\n        /* \"#utility.yul\":7428:7484   */\n      tag_712\n        /* \"#utility.yul\":7480:7482   */\n      0x40\n        /* \"#utility.yul\":7469:7478   */\n      dup4\n        /* \"#utility.yul\":7465:7483   */\n      add\n        /* \"#utility.yul\":7457:7463   */\n      dup6\n        /* \"#utility.yul\":7428:7484   */\n      tag_643\n      jump\t// in\n    tag_712:\n        /* \"#utility.yul\":7420:7484   */\n      swap1\n      pop\n        /* \"#utility.yul\":7549:7550   */\n      0x01\n        /* \"#utility.yul\":7545:7546   */\n      dup1\n        /* \"#utility.yul\":7540:7543   */\n      0xa0\n        /* \"#utility.yul\":7536:7547   */\n      shl\n        /* \"#utility.yul\":7532:7551   */\n      sub\n        /* \"#utility.yul\":7524:7530   */\n      dup4\n        /* \"#utility.yul\":7520:7552   */\n      and\n        /* \"#utility.yul\":7515:7517   */\n      0x20\n        /* \"#utility.yul\":7504:7513   */\n      dup4\n        /* \"#utility.yul\":7500:7518   */\n      add\n        /* \"#utility.yul\":7493:7553   */\n      mstore\n        /* \"#utility.yul\":7231:7559   */\n      swap4\n      swap3\n      pop\n      pop\n      pop\n      jump\t// out\n        /* \"#utility.yul\":7564:8688   */\n    tag_182:\n        /* \"#utility.yul\":7657:7663   */\n      0x00\n        /* \"#utility.yul\":7665:7671   */\n      dup1\n        /* \"#utility.yul\":7718:7720   */\n      0x40\n        /* \"#utility.yul\":7706:7715   */\n      dup4\n        /* \"#utility.yul\":7697:7704   */\n      dup6\n        /* \"#utility.yul\":7693:7716   */\n      sub\n        /* \"#utility.yul\":7689:7721   */\n      slt\n        /* \"#utility.yul\":7686:7738   */\n      iszero\n      tag_714\n      jumpi\n        /* \"#utility.yul\":7734:7735   */\n      0x00\n        /* \"#utility.yul\":7731:7732   */\n      dup1\n        /* \"#utility.yul\":7724:7736   */\n      revert\n        /* \"#utility.yul\":7686:7738   */\n    tag_714:\n        /* \"#utility.yul\":7774:7783   */\n      dup3\n        /* \"#utility.yul\":7761:7784   */\n      calldataload\n      sub(shl(0x40, 0x01), 0x01)\n        /* \"#utility.yul\":7799:7805   */\n      dup2\n        /* \"#utility.yul\":7796:7826   */\n      gt\n        /* \"#utility.yul\":7793:7843   */\n      iszero\n      tag_715\n      jumpi\n        /* \"#utility.yul\":7839:7840   */\n      0x00\n        /* \"#utility.yul\":7836:7837   */\n      dup1\n        /* \"#utility.yul\":7829:7841   */\n      revert\n        /* \"#utility.yul\":7793:7843   */\n    tag_715:\n        /* \"#utility.yul\":7862:7884   */\n      dup4\n      add\n        /* \"#utility.yul\":7915:7919   */\n      0x1f\n        /* \"#utility.yul\":7907:7920   */\n      dup2\n      add\n        /* \"#utility.yul\":7903:7930   */\n      dup6\n      sgt\n        /* \"#utility.yul\":7893:7948   */\n      tag_716\n      jumpi\n        /* \"#utility.yul\":7944:7945   */\n      0x00\n        /* \"#utility.yul\":7941:7942   */\n      dup1\n        /* \"#utility.yul\":7934:7946   */\n      revert\n        /* \"#utility.yul\":7893:7948   */\n    tag_716:\n        /* \"#utility.yul\":7984:7986   */\n      dup1\n        /* \"#utility.yul\":7971:7987   */\n      calldataload\n      sub(shl(0x40, 0x01), 0x01)\n        /* \"#utility.yul\":8002:8008   */\n      dup2\n        /* \"#utility.yul\":7999:8029   */\n      gt\n        /* \"#utility.yul\":7996:8052   */\n      iszero\n      tag_718\n      jumpi\n        /* \"#utility.yul\":8032:8050   */\n      tag_718\n      tag_307\n      jump\t// in\n    tag_718:\n        /* \"#utility.yul\":8078:8084   */\n      dup1\n        /* \"#utility.yul\":8075:8076   */\n      0x05\n        /* \"#utility.yul\":8071:8085   */\n      shl\n        /* \"#utility.yul\":8105:8135   */\n      tag_719\n        /* \"#utility.yul\":8129:8133   */\n      0x20\n        /* \"#utility.yul\":8125:8127   */\n      dup3\n        /* \"#utility.yul\":8121:8134   */\n      add\n        /* \"#utility.yul\":8105:8135   */\n      tag_639\n      jump\t// in\n    tag_719:\n        /* \"#utility.yul\":8169:8188   */\n      swap2\n      dup3\n      mstore\n        /* \"#utility.yul\":8213:8217   */\n      0x20\n        /* \"#utility.yul\":8245:8256   */\n      dup2\n      dup5\n      add\n        /* \"#utility.yul\":8241:8263   */\n      dup2\n      add\n      swap3\n        /* \"#utility.yul\":8204:8218   */\n      swap1\n      dup2\n      add\n      swap1\n        /* \"#utility.yul\":8275:8294   */\n      dup9\n      dup5\n      gt\n        /* \"#utility.yul\":8272:8311   */\n      iszero\n      tag_720\n      jumpi\n        /* \"#utility.yul\":8307:8308   */\n      0x00\n        /* \"#utility.yul\":8304:8305   */\n      dup1\n        /* \"#utility.yul\":8297:8309   */\n      revert\n        /* \"#utility.yul\":8272:8311   */\n    tag_720:\n        /* \"#utility.yul\":8339:8343   */\n      0x20\n        /* \"#utility.yul\":8335:8337   */\n      dup6\n        /* \"#utility.yul\":8331:8344   */\n      add\n        /* \"#utility.yul\":8320:8344   */\n      swap5\n      pop\n        /* \"#utility.yul\":8353:8553   */\n    tag_721:\n        /* \"#utility.yul\":8369:8375   */\n      dup4\n        /* \"#utility.yul\":8364:8367   */\n      dup6\n        /* \"#utility.yul\":8361:8376   */\n      lt\n        /* \"#utility.yul\":8353:8553   */\n      iszero\n      tag_723\n      jumpi\n        /* \"#utility.yul\":8461:8478   */\n      dup5\n      calldataload\n        /* \"#utility.yul\":8491:8509   */\n      dup1\n      dup4\n      mstore\n        /* \"#utility.yul\":8538:8542   */\n      0x20\n        /* \"#utility.yul\":8386:8400   */\n      swap6\n      dup7\n      add\n      swap6\n        /* \"#utility.yul\":8461:8478   */\n      swap1\n      swap4\n      pop\n        /* \"#utility.yul\":8529:8543   */\n      swap1\n      swap2\n      add\n      swap1\n        /* \"#utility.yul\":8353:8553   */\n      jump(tag_721)\n    tag_723:\n        /* \"#utility.yul\":8572:8577   */\n      swap9\n        /* \"#utility.yul\":8650:8654   */\n      0x20\n        /* \"#utility.yul\":8635:8655   */\n      swap8\n      swap1\n      swap8\n      add\n        /* \"#utility.yul\":8622:8656   */\n      calldataload\n      swap8\n      pop\n      pop\n      pop\n      pop\n      pop\n      pop\n      pop\n        /* \"#utility.yul\":7564:8688   */\n      jump\t// out\n        /* \"#utility.yul\":8693:8924   */\n    tag_188:\n        /* \"#utility.yul\":8842:8844   */\n      0x20\n        /* \"#utility.yul\":8831:8840   */\n      dup2\n        /* \"#utility.yul\":8824:8845   */\n      mstore\n        /* \"#utility.yul\":8805:8809   */\n      0x00\n        /* \"#utility.yul\":8862:8918   */\n      tag_621\n        /* \"#utility.yul\":8914:8916   */\n      0x20\n        /* \"#utility.yul\":8903:8912   */\n      dup4\n        /* \"#utility.yul\":8899:8917   */\n      add\n        /* \"#utility.yul\":8891:8897   */\n      dup5\n        /* \"#utility.yul\":8862:8918   */\n      tag_643\n      jump\t// in\n        /* \"#utility.yul\":8929:9519   */\n    tag_202:\n        /* \"#utility.yul\":9218:9224   */\n      dup7\n        /* \"#utility.yul\":9207:9216   */\n      dup2\n        /* \"#utility.yul\":9200:9225   */\n      mstore\n        /* \"#utility.yul\":9261:9264   */\n      0xc0\n        /* \"#utility.yul\":9256:9258   */\n      0x20\n        /* \"#utility.yul\":9245:9254   */\n      dup3\n        /* \"#utility.yul\":9241:9259   */\n      add\n        /* \"#utility.yul\":9234:9265   */\n      mstore\n        /* \"#utility.yul\":9181:9185   */\n      0x00\n        /* \"#utility.yul\":9282:9339   */\n      tag_727\n        /* \"#utility.yul\":9334:9337   */\n      0xc0\n        /* \"#utility.yul\":9323:9332   */\n      dup4\n        /* \"#utility.yul\":9319:9338   */\n      add\n        /* \"#utility.yul\":9311:9317   */\n      dup9\n        /* \"#utility.yul\":9282:9339   */\n      tag_643\n      jump\t// in\n    tag_727:\n        /* \"#utility.yul\":9274:9339   */\n      swap1\n      pop\n        /* \"#utility.yul\":9375:9381   */\n      dup6\n        /* \"#utility.yul\":9370:9372   */\n      0x40\n        /* \"#utility.yul\":9359:9368   */\n      dup4\n        /* \"#utility.yul\":9355:9373   */\n      add\n        /* \"#utility.yul\":9348:9382   */\n      mstore\n        /* \"#utility.yul\":9418:9424   */\n      dup5\n        /* \"#utility.yul\":9413:9415   */\n      0x60\n        /* \"#utility.yul\":9402:9411   */\n      dup4\n        /* \"#utility.yul\":9398:9416   */\n      add\n        /* \"#utility.yul\":9391:9425   */\n      mstore\n        /* \"#utility.yul\":9462:9468   */\n      dup4\n        /* \"#utility.yul\":9456:9459   */\n      0x80\n        /* \"#utility.yul\":9445:9454   */\n      dup4\n        /* \"#utility.yul\":9441:9460   */\n      add\n        /* \"#utility.yul\":9434:9469   */\n      mstore\n        /* \"#utility.yul\":9506:9512   */\n      dup3\n        /* \"#utility.yul\":9500:9503   */\n      0xa0\n        /* \"#utility.yul\":9489:9498   */\n      dup4\n        /* \"#utility.yul\":9485:9504   */\n      add\n        /* \"#utility.yul\":9478:9513   */\n      mstore\n        /* \"#utility.yul\":8929:9519   */\n      swap8\n      swap7\n      pop\n      pop\n      pop\n      pop\n      pop\n      pop\n      pop\n      jump\t// out\n        /* \"#utility.yul\":9524:9824   */\n    tag_206:\n        /* \"#utility.yul\":9592:9598   */\n      0x00\n        /* \"#utility.yul\":9600:9606   */\n      dup1\n        /* \"#utility.yul\":9653:9655   */\n      0x40\n        /* \"#utility.yul\":9641:9650   */\n      dup4\n        /* \"#utility.yul\":9632:9639   */\n      dup6\n        /* \"#utility.yul\":9628:9651   */\n      sub\n        /* \"#utility.yul\":9624:9656   */\n      slt\n        /* \"#utility.yul\":9621:9673   */\n      iszero\n      tag_729\n      jumpi\n        /* \"#utility.yul\":9669:9670   */\n      0x00\n        /* \"#utility.yul\":9666:9667   */\n      dup1\n        /* \"#utility.yul\":9659:9671   */\n      revert\n        /* \"#utility.yul\":9621:9673   */\n    tag_729:\n        /* \"#utility.yul\":9692:9721   */\n      tag_730\n        /* \"#utility.yul\":9711:9720   */\n      dup4\n        /* \"#utility.yul\":9692:9721   */\n      tag_642\n      jump\t// in\n    tag_730:\n        /* \"#utility.yul\":9682:9721   */\n      swap5\n        /* \"#utility.yul\":9790:9792   */\n      0x20\n        /* \"#utility.yul\":9775:9793   */\n      swap4\n      swap1\n      swap4\n      add\n        /* \"#utility.yul\":9762:9794   */\n      calldataload\n      swap4\n      pop\n      pop\n      pop\n        /* \"#utility.yul\":9524:9824   */\n      jump\t// out\n        /* \"#utility.yul\":9829:10388   */\n    tag_209:\n        /* \"#utility.yul\":10076:10079   */\n      0x80\n        /* \"#utility.yul\":10065:10074   */\n      dup2\n        /* \"#utility.yul\":10058:10080   */\n      mstore\n        /* \"#utility.yul\":10039:10043   */\n      0x00\n        /* \"#utility.yul\":10103:10160   */\n      tag_732\n        /* \"#utility.yul\":10155:10158   */\n      0x80\n        /* \"#utility.yul\":10144:10153   */\n      dup4\n        /* \"#utility.yul\":10140:10159   */\n      add\n        /* \"#utility.yul\":10132:10138   */\n      dup8\n        /* \"#utility.yul\":10103:10160   */\n      tag_643\n      jump\t// in\n    tag_732:\n        /* \"#utility.yul\":10208:10217   */\n      dup3\n        /* \"#utility.yul\":10200:10206   */\n      dup2\n        /* \"#utility.yul\":10196:10218   */\n      sub\n        /* \"#utility.yul\":10191:10193   */\n      0x20\n        /* \"#utility.yul\":10180:10189   */\n      dup5\n        /* \"#utility.yul\":10176:10194   */\n      add\n        /* \"#utility.yul\":10169:10219   */\n      mstore\n        /* \"#utility.yul\":10236:10280   */\n      tag_733\n        /* \"#utility.yul\":10273:10279   */\n      dup2\n        /* \"#utility.yul\":10265:10271   */\n      dup8\n        /* \"#utility.yul\":10236:10280   */\n      tag_643\n      jump\t// in\n    tag_733:\n        /* \"#utility.yul\":10311:10313   */\n      0x40\n        /* \"#utility.yul\":10296:10314   */\n      dup5\n      add\n        /* \"#utility.yul\":10289:10323   */\n      swap6\n      swap1\n      swap6\n      mstore\n      pop\n      pop\n        /* \"#utility.yul\":10366:10380   */\n      swap1\n      iszero\n        /* \"#utility.yul\":10359:10381   */\n      iszero\n        /* \"#utility.yul\":10354:10356   */\n      0x60\n        /* \"#utility.yul\":10339:10357   */\n      swap1\n      swap2\n      add\n        /* \"#utility.yul\":10332:10382   */\n      mstore\n        /* \"#utility.yul\":10228:10280   */\n      swap3\n        /* \"#utility.yul\":9829:10388   */\n      swap2\n      pop\n      pop\n      jump\t// out\n        /* \"#utility.yul\":11302:12086   */\n    tag_244:\n        /* \"#utility.yul\":11433:11439   */\n      0x00\n        /* \"#utility.yul\":11441:11447   */\n      dup1\n        /* \"#utility.yul\":11449:11455   */\n      0x00\n        /* \"#utility.yul\":11457:11463   */\n      dup1\n        /* \"#utility.yul\":11465:11471   */\n      0x00\n        /* \"#utility.yul\":11473:11479   */\n      dup1\n        /* \"#utility.yul\":11481:11487   */\n      0x00\n        /* \"#utility.yul\":11489:11495   */\n      dup1\n        /* \"#utility.yul\":11497:11503   */\n      0x00\n        /* \"#utility.yul\":11550:11553   */\n      0x0120\n        /* \"#utility.yul\":11538:11547   */\n      dup11\n        /* \"#utility.yul\":11529:11536   */\n      dup13\n        /* \"#utility.yul\":11525:11548   */\n      sub\n        /* \"#utility.yul\":11521:11554   */\n      slt\n        /* \"#utility.yul\":11518:11571   */\n      iszero\n      tag_737\n      jumpi\n        /* \"#utility.yul\":11567:11568   */\n      0x00\n        /* \"#utility.yul\":11564:11565   */\n      dup1\n        /* \"#utility.yul\":11557:11569   */\n      revert\n        /* \"#utility.yul\":11518:11571   */\n    tag_737:\n        /* \"#utility.yul\":11590:11619   */\n      tag_738\n        /* \"#utility.yul\":11609:11618   */\n      dup11\n        /* \"#utility.yul\":11590:11619   */\n      tag_642\n      jump\t// in\n    tag_738:\n        /* \"#utility.yul\":11580:11619   */\n      swap9\n      pop\n        /* \"#utility.yul\":11638:11676   */\n      tag_739\n        /* \"#utility.yul\":11672:11674   */\n      0x20\n        /* \"#utility.yul\":11661:11670   */\n      dup12\n        /* \"#utility.yul\":11657:11675   */\n      add\n        /* \"#utility.yul\":11638:11676   */\n      tag_642\n      jump\t// in\n    tag_739:\n        /* \"#utility.yul\":11628:11676   */\n      swap8\n      pop\n        /* \"#utility.yul\":11695:11733   */\n      tag_740\n        /* \"#utility.yul\":11729:11731   */\n      0x40\n        /* \"#utility.yul\":11718:11727   */\n      dup12\n        /* \"#utility.yul\":11714:11732   */\n      add\n        /* \"#utility.yul\":11695:11733   */\n      tag_642\n      jump\t// in\n    tag_740:\n        /* \"#utility.yul\":11685:11733   */\n      swap7\n      pop\n        /* \"#utility.yul\":11752:11790   */\n      tag_741\n        /* \"#utility.yul\":11786:11788   */\n      0x60\n        /* \"#utility.yul\":11775:11784   */\n      dup12\n        /* \"#utility.yul\":11771:11789   */\n      add\n        /* \"#utility.yul\":11752:11790   */\n      tag_642\n      jump\t// in\n    tag_741:\n        /* \"#utility.yul\":11742:11790   */\n      swap6\n      pop\n        /* \"#utility.yul\":11809:11848   */\n      tag_742\n        /* \"#utility.yul\":11843:11846   */\n      0x80\n        /* \"#utility.yul\":11832:11841   */\n      dup12\n        /* \"#utility.yul\":11828:11847   */\n      add\n        /* \"#utility.yul\":11809:11848   */\n      tag_642\n      jump\t// in\n    tag_742:\n        /* \"#utility.yul\":11799:11848   */\n      swap5\n      pop\n        /* \"#utility.yul\":11867:11906   */\n      tag_743\n        /* \"#utility.yul\":11901:11904   */\n      0xa0\n        /* \"#utility.yul\":11890:11899   */\n      dup12\n        /* \"#utility.yul\":11886:11905   */\n      add\n        /* \"#utility.yul\":11867:11906   */\n      tag_642\n      jump\t// in\n    tag_743:\n        /* \"#utility.yul\":11857:11906   */\n      swap4\n      pop\n        /* \"#utility.yul\":11925:11964   */\n      tag_744\n        /* \"#utility.yul\":11959:11962   */\n      0xc0\n        /* \"#utility.yul\":11948:11957   */\n      dup12\n        /* \"#utility.yul\":11944:11963   */\n      add\n        /* \"#utility.yul\":11925:11964   */\n      tag_642\n      jump\t// in\n    tag_744:\n        /* \"#utility.yul\":11915:11964   */\n      swap3\n      pop\n        /* \"#utility.yul\":11983:12022   */\n      tag_745\n        /* \"#utility.yul\":12017:12020   */\n      0xe0\n        /* \"#utility.yul\":12006:12015   */\n      dup12\n        /* \"#utility.yul\":12002:12021   */\n      add\n        /* \"#utility.yul\":11983:12022   */\n      tag_642\n      jump\t// in\n    tag_745:\n        /* \"#utility.yul\":11973:12022   */\n      swap2\n      pop\n        /* \"#utility.yul\":12041:12080   */\n      tag_746\n        /* \"#utility.yul\":12075:12078   */\n      0x0100\n        /* \"#utility.yul\":12064:12073   */\n      dup12\n        /* \"#utility.yul\":12060:12079   */\n      add\n        /* \"#utility.yul\":12041:12080   */\n      tag_642\n      jump\t// in\n    tag_746:\n        /* \"#utility.yul\":12031:12080   */\n      swap1\n      pop\n        /* \"#utility.yul\":11302:12086   */\n      swap3\n      swap6\n      swap9\n      pop\n      swap3\n      swap6\n      swap9\n      pop\n      swap3\n      swap6\n      swap9\n      jump\t// out\n        /* \"#utility.yul\":12091:12218   */\n    tag_260:\n        /* \"#utility.yul\":12152:12162   */\n      0x4e487b71\n        /* \"#utility.yul\":12147:12150   */\n      0xe0\n        /* \"#utility.yul\":12143:12163   */\n      shl\n        /* \"#utility.yul\":12140:12141   */\n      0x00\n        /* \"#utility.yul\":12133:12164   */\n      mstore\n        /* \"#utility.yul\":12183:12187   */\n      0x32\n        /* \"#utility.yul\":12180:12181   */\n      0x04\n        /* \"#utility.yul\":12173:12188   */\n      mstore\n        /* \"#utility.yul\":12207:12211   */\n      0x24\n        /* \"#utility.yul\":12204:12205   */\n      0x00\n        /* \"#utility.yul\":12197:12212   */\n      revert\n        /* \"#utility.yul\":12223:12435   */\n    tag_644:\n        /* \"#utility.yul\":12265:12268   */\n      0x00\n        /* \"#utility.yul\":12303:12308   */\n      dup2\n        /* \"#utility.yul\":12297:12309   */\n      mload\n        /* \"#utility.yul\":12347:12353   */\n      dup1\n        /* \"#utility.yul\":12340:12344   */\n      0x20\n        /* \"#utility.yul\":12333:12338   */\n      dup5\n        /* \"#utility.yul\":12329:12345   */\n      add\n        /* \"#utility.yul\":12324:12327   */\n      dup6\n        /* \"#utility.yul\":12318:12354   */\n      mcopy\n        /* \"#utility.yul\":12409:12410   */\n      0x00\n        /* \"#utility.yul\":12373:12389   */\n      swap4\n      add\n        /* \"#utility.yul\":12398:12411   */\n      swap3\n      dup4\n      mstore\n      pop\n        /* \"#utility.yul\":12373:12389   */\n      swap1\n      swap2\n        /* \"#utility.yul\":12223:12435   */\n      swap1\n      pop\n      jump\t// out\n        /* \"#utility.yul\":12440:12632   */\n    tag_263:\n        /* \"#utility.yul\":12571:12574   */\n      0x00\n        /* \"#utility.yul\":12596:12626   */\n      tag_621\n        /* \"#utility.yul\":12622:12625   */\n      dup3\n        /* \"#utility.yul\":12614:12620   */\n      dup5\n        /* \"#utility.yul\":12596:12626   */\n      tag_644\n      jump\t// in\n        /* \"#utility.yul\":12637:13017   */\n    tag_417:\n        /* \"#utility.yul\":12716:12717   */\n      0x01\n        /* \"#utility.yul\":12712:12724   */\n      dup2\n      dup2\n      shr\n      swap1\n        /* \"#utility.yul\":12759:12771   */\n      dup3\n      and\n      dup1\n        /* \"#utility.yul\":12780:12841   */\n      tag_752\n      jumpi\n        /* \"#utility.yul\":12834:12838   */\n      0x7f\n        /* \"#utility.yul\":12826:12832   */\n      dup3\n        /* \"#utility.yul\":12822:12839   */\n      and\n        /* \"#utility.yul\":12812:12839   */\n      swap2\n      pop\n        /* \"#utility.yul\":12780:12841   */\n    tag_752:\n        /* \"#utility.yul\":12887:12889   */\n      0x20\n        /* \"#utility.yul\":12879:12885   */\n      dup3\n        /* \"#utility.yul\":12876:12890   */\n      lt\n        /* \"#utility.yul\":12856:12874   */\n      dup2\n        /* \"#utility.yul\":12853:12891   */\n      sub\n        /* \"#utility.yul\":12850:13011   */\n      tag_753\n      jumpi\n        /* \"#utility.yul\":12933:12943   */\n      0x4e487b71\n        /* \"#utility.yul\":12928:12931   */\n      0xe0\n        /* \"#utility.yul\":12924:12944   */\n      shl\n        /* \"#utility.yul\":12921:12922   */\n      0x00\n        /* \"#utility.yul\":12914:12945   */\n      mstore\n        /* \"#utility.yul\":12968:12972   */\n      0x22\n        /* \"#utility.yul\":12965:12966   */\n      0x04\n        /* \"#utility.yul\":12958:12973   */\n      mstore\n        /* \"#utility.yul\":12996:13000   */\n      0x24\n        /* \"#utility.yul\":12993:12994   */\n      0x00\n        /* \"#utility.yul\":12986:13001   */\n      revert\n        /* \"#utility.yul\":12850:13011   */\n    tag_753:\n      pop\n        /* \"#utility.yul\":12637:13017   */\n      swap2\n      swap1\n      pop\n      jump\t// out\n        /* \"#utility.yul\":13148:13945   */\n    tag_265:\n        /* \"#utility.yul\":13276:13279   */\n      0x00\n        /* \"#utility.yul\":13305:13306   */\n      dup1\n        /* \"#utility.yul\":13338:13344   */\n      dup4\n        /* \"#utility.yul\":13332:13345   */\n      sload\n        /* \"#utility.yul\":13368:13404   */\n      tag_756\n        /* \"#utility.yul\":13394:13403   */\n      dup2\n        /* \"#utility.yul\":13368:13404   */\n      tag_417\n      jump\t// in\n    tag_756:\n        /* \"#utility.yul\":13435:13436   */\n      0x01\n        /* \"#utility.yul\":13420:13437   */\n      dup3\n      and\n        /* \"#utility.yul\":13446:13579   */\n      dup1\n      iszero\n      tag_758\n      jumpi\n        /* \"#utility.yul\":13593:13594   */\n      0x01\n        /* \"#utility.yul\":13588:13920   */\n      dup2\n      eq\n      tag_759\n      jumpi\n        /* \"#utility.yul\":13413:13920   */\n      jump(tag_757)\n        /* \"#utility.yul\":13446:13579   */\n    tag_758:\n      not(0xff)\n        /* \"#utility.yul\":13479:13503   */\n      dup4\n      and\n        /* \"#utility.yul\":13467:13504   */\n      dup7\n      mstore\n        /* \"#utility.yul\":13552:13566   */\n      dup2\n      iszero\n        /* \"#utility.yul\":13545:13567   */\n      iszero\n        /* \"#utility.yul\":13533:13568   */\n      dup3\n      mul\n        /* \"#utility.yul\":13524:13569   */\n      dup7\n      add\n      swap4\n      pop\n        /* \"#utility.yul\":13446:13579   */\n      jump(tag_757)\n        /* \"#utility.yul\":13588:13920   */\n    tag_759:\n        /* \"#utility.yul\":13619:13625   */\n      dup7\n        /* \"#utility.yul\":13616:13617   */\n      0x00\n        /* \"#utility.yul\":13609:13626   */\n      mstore\n        /* \"#utility.yul\":13667:13671   */\n      0x20\n        /* \"#utility.yul\":13664:13665   */\n      0x00\n        /* \"#utility.yul\":13654:13672   */\n      keccak256\n        /* \"#utility.yul\":13694:13695   */\n      0x00\n        /* \"#utility.yul\":13708:13874   */\n    tag_760:\n        /* \"#utility.yul\":13722:13728   */\n      dup4\n        /* \"#utility.yul\":13719:13720   */\n      dup2\n        /* \"#utility.yul\":13716:13729   */\n      lt\n        /* \"#utility.yul\":13708:13874   */\n      iszero\n      tag_762\n      jumpi\n        /* \"#utility.yul\":13802:13816   */\n      dup2\n      sload\n        /* \"#utility.yul\":13789:13800   */\n      dup9\n      dup3\n      add\n        /* \"#utility.yul\":13782:13817   */\n      mstore\n        /* \"#utility.yul\":13858:13859   */\n      0x01\n        /* \"#utility.yul\":13845:13860   */\n      swap1\n      swap2\n      add\n      swap1\n        /* \"#utility.yul\":13744:13748   */\n      0x20\n        /* \"#utility.yul\":13737:13749   */\n      add\n        /* \"#utility.yul\":13708:13874   */\n      jump(tag_760)\n    tag_762:\n        /* \"#utility.yul\":13712:13715   */\n      pop\n      pop\n        /* \"#utility.yul\":13903:13909   */\n      dup2\n        /* \"#utility.yul\":13898:13901   */\n      dup7\n        /* \"#utility.yul\":13894:13910   */\n      add\n        /* \"#utility.yul\":13887:13910   */\n      swap4\n      pop\n        /* \"#utility.yul\":13413:13920   */\n    tag_757:\n      pop\n        /* \"#utility.yul\":13936:13939   */\n      swap2\n      swap6\n        /* \"#utility.yul\":13148:13945   */\n      swap5\n      pop\n      pop\n      pop\n      pop\n      pop\n      jump\t// out\n        /* \"#utility.yul\":13950:14077   */\n    tag_646:\n        /* \"#utility.yul\":14011:14021   */\n      0x4e487b71\n        /* \"#utility.yul\":14006:14009   */\n      0xe0\n        /* \"#utility.yul\":14002:14022   */\n      shl\n        /* \"#utility.yul\":13999:14000   */\n      0x00\n        /* \"#utility.yul\":13992:14023   */\n      mstore\n        /* \"#utility.yul\":14042:14046   */\n      0x11\n        /* \"#utility.yul\":14039:14040   */\n      0x04\n        /* \"#utility.yul\":14032:14047   */\n      mstore\n        /* \"#utility.yul\":14066:14070   */\n      0x24\n        /* \"#utility.yul\":14063:14064   */\n      0x00\n        /* \"#utility.yul\":14056:14071   */\n      revert\n        /* \"#utility.yul\":14082:14207   */\n    tag_269:\n        /* \"#utility.yul\":14147:14156   */\n      dup1\n      dup3\n      add\n        /* \"#utility.yul\":14168:14178   */\n      dup1\n      dup3\n      gt\n        /* \"#utility.yul\":14165:14201   */\n      iszero\n      tag_252\n      jumpi\n        /* \"#utility.yul\":14181:14199   */\n      tag_252\n      tag_646\n      jump\t// in\n        /* \"#utility.yul\":14212:14730   */\n    tag_647:\n        /* \"#utility.yul\":14314:14316   */\n      0x1f\n        /* \"#utility.yul\":14309:14312   */\n      dup3\n        /* \"#utility.yul\":14306:14317   */\n      gt\n        /* \"#utility.yul\":14303:14724   */\n      iszero\n      tag_294\n      jumpi\n        /* \"#utility.yul\":14350:14355   */\n      dup1\n        /* \"#utility.yul\":14347:14348   */\n      0x00\n        /* \"#utility.yul\":14340:14356   */\n      mstore\n        /* \"#utility.yul\":14394:14398   */\n      0x20\n        /* \"#utility.yul\":14391:14392   */\n      0x00\n        /* \"#utility.yul\":14381:14399   */\n      keccak256\n        /* \"#utility.yul\":14464:14466   */\n      0x1f\n        /* \"#utility.yul\":14452:14462   */\n      dup5\n        /* \"#utility.yul\":14448:14467   */\n      add\n        /* \"#utility.yul\":14445:14446   */\n      0x05\n        /* \"#utility.yul\":14441:14468   */\n      shr\n        /* \"#utility.yul\":14435:14439   */\n      dup2\n        /* \"#utility.yul\":14431:14469   */\n      add\n        /* \"#utility.yul\":14500:14504   */\n      0x20\n        /* \"#utility.yul\":14488:14498   */\n      dup6\n        /* \"#utility.yul\":14485:14505   */\n      lt\n        /* \"#utility.yul\":14482:14529   */\n      iszero\n      tag_769\n      jumpi\n      pop\n        /* \"#utility.yul\":14523:14527   */\n      dup1\n        /* \"#utility.yul\":14482:14529   */\n    tag_769:\n        /* \"#utility.yul\":14578:14580   */\n      0x1f\n        /* \"#utility.yul\":14573:14576   */\n      dup5\n        /* \"#utility.yul\":14569:14581   */\n      add\n        /* \"#utility.yul\":14566:14567   */\n      0x05\n        /* \"#utility.yul\":14562:14582   */\n      shr\n        /* \"#utility.yul\":14556:14560   */\n      dup3\n        /* \"#utility.yul\":14552:14583   */\n      add\n        /* \"#utility.yul\":14542:14583   */\n      swap2\n      pop\n        /* \"#utility.yul\":14633:14714   */\n    tag_770:\n        /* \"#utility.yul\":14651:14653   */\n      dup2\n        /* \"#utility.yul\":14644:14649   */\n      dup2\n        /* \"#utility.yul\":14641:14654   */\n      lt\n        /* \"#utility.yul\":14633:14714   */\n      iszero\n      tag_772\n      jumpi\n        /* \"#utility.yul\":14710:14711   */\n      0x00\n        /* \"#utility.yul\":14696:14712   */\n      dup2\n      sstore\n        /* \"#utility.yul\":14677:14678   */\n      0x01\n        /* \"#utility.yul\":14666:14679   */\n      add\n        /* \"#utility.yul\":14633:14714   */\n      jump(tag_770)\n    tag_772:\n        /* \"#utility.yul\":14637:14640   */\n      pop\n      pop\n        /* \"#utility.yul\":14212:14730   */\n      pop\n      pop\n      pop\n      jump\t// out\n        /* \"#utility.yul\":14906:16205   */\n    tag_285:\n        /* \"#utility.yul\":15032:15035   */\n      dup2\n        /* \"#utility.yul\":15026:15036   */\n      mload\n      sub(shl(0x40, 0x01), 0x01)\n        /* \"#utility.yul\":15051:15057   */\n      dup2\n        /* \"#utility.yul\":15048:15078   */\n      gt\n        /* \"#utility.yul\":15045:15101   */\n      iszero\n      tag_776\n      jumpi\n        /* \"#utility.yul\":15081:15099   */\n      tag_776\n      tag_307\n      jump\t// in\n    tag_776:\n        /* \"#utility.yul\":15110:15207   */\n      tag_777\n        /* \"#utility.yul\":15200:15206   */\n      dup2\n        /* \"#utility.yul\":15160:15198   */\n      tag_778\n        /* \"#utility.yul\":15192:15196   */\n      dup5\n        /* \"#utility.yul\":15186:15197   */\n      sload\n        /* \"#utility.yul\":15160:15198   */\n      tag_417\n      jump\t// in\n    tag_778:\n        /* \"#utility.yul\":15154:15158   */\n      dup5\n        /* \"#utility.yul\":15110:15207   */\n      tag_647\n      jump\t// in\n    tag_777:\n        /* \"#utility.yul\":15256:15260   */\n      0x20\n        /* \"#utility.yul\":15287:15289   */\n      0x1f\n        /* \"#utility.yul\":15276:15290   */\n      dup3\n      gt\n        /* \"#utility.yul\":15304:15305   */\n      0x01\n        /* \"#utility.yul\":15299:15948   */\n      dup2\n      eq\n      tag_780\n      jumpi\n        /* \"#utility.yul\":15992:15993   */\n      0x00\n        /* \"#utility.yul\":16009:16015   */\n      dup4\n        /* \"#utility.yul\":16006:16095   */\n      iszero\n      tag_781\n      jumpi\n      pop\n        /* \"#utility.yul\":16061:16080   */\n      dup5\n      dup3\n      add\n        /* \"#utility.yul\":16055:16081   */\n      mload\n        /* \"#utility.yul\":16006:16095   */\n    tag_781:\n      not(0x00)\n        /* \"#utility.yul\":14863:14864   */\n      0x03\n        /* \"#utility.yul\":14859:14870   */\n      dup6\n      swap1\n      shl\n        /* \"#utility.yul\":14855:14879   */\n      shr\n        /* \"#utility.yul\":14851:14880   */\n      not\n        /* \"#utility.yul\":14841:14881   */\n      and\n        /* \"#utility.yul\":14887:14888   */\n      0x01\n        /* \"#utility.yul\":14883:14894   */\n      dup5\n      swap1\n      shl\n        /* \"#utility.yul\":14838:14895   */\n      or\n        /* \"#utility.yul\":16108:16189   */\n      dup5\n      sstore\n        /* \"#utility.yul\":15269:16199   */\n      jump(tag_772)\n        /* \"#utility.yul\":15299:15948   */\n    tag_780:\n        /* \"#utility.yul\":13095:13096   */\n      0x00\n        /* \"#utility.yul\":13088:13102   */\n      dup5\n      dup2\n      mstore\n        /* \"#utility.yul\":13132:13136   */\n      0x20\n        /* \"#utility.yul\":13119:13137   */\n      dup2\n      keccak256\n      not(0x1f)\n        /* \"#utility.yul\":15335:15355   */\n      dup6\n      and\n      swap2\n        /* \"#utility.yul\":15453:15675   */\n    tag_784:\n        /* \"#utility.yul\":15467:15474   */\n      dup3\n        /* \"#utility.yul\":15464:15465   */\n      dup2\n        /* \"#utility.yul\":15461:15475   */\n      lt\n        /* \"#utility.yul\":15453:15675   */\n      iszero\n      tag_786\n      jumpi\n        /* \"#utility.yul\":15549:15568   */\n      dup8\n      dup6\n      add\n        /* \"#utility.yul\":15543:15569   */\n      mload\n        /* \"#utility.yul\":15528:15570   */\n      dup3\n      sstore\n        /* \"#utility.yul\":15656:15660   */\n      0x20\n        /* \"#utility.yul\":15641:15661   */\n      swap5\n      dup6\n      add\n      swap5\n        /* \"#utility.yul\":15609:15610   */\n      0x01\n        /* \"#utility.yul\":15597:15611   */\n      swap1\n      swap3\n      add\n      swap2\n        /* \"#utility.yul\":15483:15495   */\n      add\n        /* \"#utility.yul\":15453:15675   */\n      jump(tag_784)\n    tag_786:\n        /* \"#utility.yul\":15457:15460   */\n      pop\n        /* \"#utility.yul\":15703:15709   */\n      dup5\n        /* \"#utility.yul\":15694:15701   */\n      dup3\n        /* \"#utility.yul\":15691:15710   */\n      lt\n        /* \"#utility.yul\":15688:15889   */\n      iszero\n      tag_787\n      jumpi\n        /* \"#utility.yul\":15764:15783   */\n      dup7\n      dup5\n      add\n        /* \"#utility.yul\":15758:15784   */\n      mload\n      not(0x00)\n        /* \"#utility.yul\":15847:15848   */\n      0x03\n        /* \"#utility.yul\":15843:15857   */\n      dup8\n      swap1\n      shl\n        /* \"#utility.yul\":15859:15862   */\n      0xf8\n        /* \"#utility.yul\":15839:15863   */\n      and\n        /* \"#utility.yul\":15835:15872   */\n      shr\n        /* \"#utility.yul\":15831:15873   */\n      not\n        /* \"#utility.yul\":15816:15874   */\n      and\n        /* \"#utility.yul\":15801:15875   */\n      dup2\n      sstore\n        /* \"#utility.yul\":15688:15889   */\n    tag_787:\n      pop\n      pop\n      pop\n      pop\n        /* \"#utility.yul\":15935:15936   */\n      0x01\n        /* \"#utility.yul\":15919:15933   */\n      swap1\n      dup2\n      shl\n        /* \"#utility.yul\":15915:15937   */\n      add\n        /* \"#utility.yul\":15902:15938   */\n      swap1\n      sstore\n      pop\n        /* \"#utility.yul\":14906:16205   */\n      jump\t// out\n        /* \"#utility.yul\":16210:16512   */\n    tag_287:\n        /* \"#utility.yul\":16387:16393   */\n      dup3\n        /* \"#utility.yul\":16376:16385   */\n      dup2\n        /* \"#utility.yul\":16369:16394   */\n      mstore\n        /* \"#utility.yul\":16430:16432   */\n      0x40\n        /* \"#utility.yul\":16425:16427   */\n      0x20\n        /* \"#utility.yul\":16414:16423   */\n      dup3\n        /* \"#utility.yul\":16410:16428   */\n      add\n        /* \"#utility.yul\":16403:16433   */\n      mstore\n        /* \"#utility.yul\":16350:16354   */\n      0x00\n        /* \"#utility.yul\":16450:16506   */\n      tag_670\n        /* \"#utility.yul\":16502:16504   */\n      0x40\n        /* \"#utility.yul\":16491:16500   */\n      dup4\n        /* \"#utility.yul\":16487:16505   */\n      add\n        /* \"#utility.yul\":16479:16485   */\n      dup5\n        /* \"#utility.yul\":16450:16506   */\n      tag_643\n      jump\t// in\n        /* \"#utility.yul\":16517:16652   */\n    tag_289:\n        /* \"#utility.yul\":16556:16559   */\n      0x00\n        /* \"#utility.yul\":16577:16594   */\n      0x01\n      dup3\n      add\n        /* \"#utility.yul\":16574:16617   */\n      tag_792\n      jumpi\n        /* \"#utility.yul\":16597:16615   */\n      tag_792\n      tag_646\n      jump\t// in\n    tag_792:\n      pop\n        /* \"#utility.yul\":16644:16645   */\n      0x01\n        /* \"#utility.yul\":16633:16646   */\n      add\n      swap1\n        /* \"#utility.yul\":16517:16652   */\n      jump\t// out\n        /* \"#utility.yul\":18107:18235   */\n    tag_391:\n        /* \"#utility.yul\":18174:18183   */\n      dup2\n      dup2\n      sub\n        /* \"#utility.yul\":18195:18206   */\n      dup2\n      dup2\n      gt\n        /* \"#utility.yul\":18192:18229   */\n      iszero\n      tag_252\n      jumpi\n        /* \"#utility.yul\":18209:18227   */\n      tag_252\n      tag_646\n      jump\t// in\n        /* \"#utility.yul\":18240:18367   */\n    tag_400:\n        /* \"#utility.yul\":18301:18311   */\n      0x4e487b71\n        /* \"#utility.yul\":18296:18299   */\n      0xe0\n        /* \"#utility.yul\":18292:18312   */\n      shl\n        /* \"#utility.yul\":18289:18290   */\n      0x00\n        /* \"#utility.yul\":18282:18313   */\n      mstore\n        /* \"#utility.yul\":18332:18336   */\n      0x31\n        /* \"#utility.yul\":18329:18330   */\n      0x04\n        /* \"#utility.yul\":18322:18337   */\n      mstore\n        /* \"#utility.yul\":18356:18360   */\n      0x24\n        /* \"#utility.yul\":18353:18354   */\n      0x00\n        /* \"#utility.yul\":18346:18361   */\n      revert\n        /* \"#utility.yul\":19804:19988   */\n    tag_535:\n        /* \"#utility.yul\":19874:19880   */\n      0x00\n        /* \"#utility.yul\":19927:19929   */\n      0x20\n        /* \"#utility.yul\":19915:19924   */\n      dup3\n        /* \"#utility.yul\":19906:19913   */\n      dup5\n        /* \"#utility.yul\":19902:19925   */\n      sub\n        /* \"#utility.yul\":19898:19930   */\n      slt\n        /* \"#utility.yul\":19895:19947   */\n      iszero\n      tag_807\n      jumpi\n        /* \"#utility.yul\":19943:19944   */\n      0x00\n        /* \"#utility.yul\":19940:19941   */\n      dup1\n        /* \"#utility.yul\":19933:19945   */\n      revert\n        /* \"#utility.yul\":19895:19947   */\n    tag_807:\n      pop\n        /* \"#utility.yul\":19966:19982   */\n      mload\n      swap2\n        /* \"#utility.yul\":19804:19988   */\n      swap1\n      pop\n      jump\t// out\n    stop\n    data_3059375685003c5c33343043cb51f6c6b03e849d5b2f19339e935f8b505d9fe3 9b7946abd96dccbe6cfc6cc2c13300ab429d93e16fa72dc459eeccda73817f08\n    data_75b20eef8615de99c108b05f0dbda081c91897128caa336d75dffb97c4132b4d 360894a13ba1a3210667c828492db98dca3e2076cc3735a920a3ca505d382bbc\n    data_9b87106a812d214d41ad9b68a21119e2948eaaf1040375c939ec808b8862455c 65d7a28e3265b37a6474929f336521b332c1681b933f6cb9f3376673440d862a\n    data_b3da67d1b252aeab7c8063542d95e75f82a5307a82535949bc38f7cf7ba8897f 02dd7bc7dec4dceedda775e58dd541e08a116c6c53815c0bd028192f7b626800\n    data_c0c65a3718f3702d917c44106b91645b509d2e2d0979b70495c3babce192339f cd5ed15c6e187e77e9aee88184c21f4f2182ab5827cb3b7e07fbedcd63f03300\n\n    auxdata: 0xa264697066735822122017e50992d8e441c501e255dd0dd94ae0246f27bf1d9831d9196c551577a7a43e64736f6c634300081a0033\n}\n",
				"bytecode": {
					"linkReferences": {},
					"object": "60a06040523060805260016006819055600755348015601c575f80fd5b50608051612b636100435f395f8181611d1901528181611d420152611ea50152612b635ff3fe608060405260043610610249575f3560e01c80638a13eea711610134578063bfb231d2116100b3578063e551ba4b11610078578063e551ba4b1461077b578063e63ab1e91461079a578063ee99205c146107ba578063f4e0d9ac146107d9578063f5e95acb146107f8578063f72c0d8b14610817575f80fd5b8063bfb231d214610646578063d3dcff7c14610677578063d547741f146106a6578063d836fc6f146106c5578063e2eb41ff146106e4575f80fd5b8063a75859e1116100f9578063a75859e11461057e578063a9834b67146105ab578063ad3cb1cc146105ca578063b001f61814610607578063be22d27d14610626575f80fd5b80638a13eea7146104f057806391d148541461050e578063965afa891461052d5780639a03d9a31461054c578063a217fddf1461056b575f80fd5b806341bec0d2116101cb57806352d1902d1161019057806352d1902d146104485780635c975abb1461045c5780635f2d6bcd1461047f5780636f347a781461049e5780637309cbbd146104bd5780638456cb59146104dc575f80fd5b806341bec0d2146103aa578063443c227c146103c95780634a7ffcbc146103f75780634f1ef286146104165780634fa4a1bb14610429575f80fd5b80632f2ff15d116102115780632f2ff15d1461032557806331fee8be1461034457806336568abe146103635780633f4ba83a146103825780633fa9fcf814610396575f80fd5b806301ffc9a71461024d57806302eec5681461028157806317435e1a146102b857806321f42268146102d9578063248a9ca3146102f8575b5f80fd5b348015610258575f80fd5b5061026c6102673660046122c5565b61084a565b60405190151581526020015b60405180910390f35b34801561028c575f80fd5b506005546102a0906001600160a01b031681565b6040516001600160a01b039091168152602001610278565b3480156102c3575f80fd5b506102d76102d23660046123a6565b610880565b005b3480156102e4575f80fd5b506002546102a0906001600160a01b031681565b348015610303575f80fd5b506103176103123660046123df565b6109b4565b604051908152602001610278565b348015610330575f80fd5b506102d761033f366004612411565b6109d4565b34801561034f575f80fd5b506102d761035e36600461243b565b6109f6565b34801561036e575f80fd5b506102d761037d366004612411565b610ae7565b34801561038d575f80fd5b506102d7610b1f565b3480156103a1575f80fd5b506102d7610b41565b3480156103b5575f80fd5b506102d76103c4366004612492565b610d0f565b3480156103d4575f80fd5b506103176103e33660046123df565b600d6020525f908152604090206001015481565b348015610402575f80fd5b506003546102a0906001600160a01b031681565b6102d76104243660046124ab565b610d48565b348015610434575f80fd5b506102d7610443366004612508565b610d63565b348015610453575f80fd5b50610317610f69565b348015610467575f80fd5b505f80516020612b0e8339815191525460ff1661026c565b34801561048a575f80fd5b506001546102a0906001600160a01b031681565b3480156104a9575f80fd5b506102d76104b8366004612549565b610f84565b3480156104c8575f80fd5b506102d76104d73660046123df565b61102e565b3480156104e7575f80fd5b506102d761134d565b3480156104fb575f80fd5b505f546102a0906001600160a01b031681565b348015610519575f80fd5b5061026c610528366004612411565b61136c565b348015610538575f80fd5b506102d7610547366004612492565b6113a2565b348015610557575f80fd5b506102d7610566366004612492565b6113dc565b348015610576575f80fd5b506103175f81565b348015610589575f80fd5b5061059d610598366004612492565b611416565b6040516102789291906125e3565b3480156105b6575f80fd5b506102d76105c536600461260c565b6114c0565b3480156105d5575f80fd5b506105fa604051806040016040528060058152602001640352e302e360dc1b81525081565b60405161027891906126be565b348015610612575f80fd5b506102d7610621366004612492565b611570565b348015610631575f80fd5b506103175f80516020612a8e83398151915281565b348015610651575f80fd5b506106656106603660046123df565b6115aa565b604051610278969594939291906126d0565b348015610682575f80fd5b5061069661069136600461270d565b611664565b6040516102789493929190612735565b3480156106b1575f80fd5b506102d76106c0366004612411565b6117ba565b3480156106d0575f80fd5b506102d76106df366004612492565b6117d6565b3480156106ef575f80fd5b506107406106fe366004612492565b60096020525f90815260409020805460018201546002830154600384015460048501546005860154600687015460079097015495969495939492939192909188565b604080519889526020890197909752958701949094526060860192909252608085015260a084015260c083015260e082015261010001610278565b348015610786575f80fd5b506102d76107953660046123a6565b611810565b3480156107a5575f80fd5b506103175f80516020612ace83398151915281565b3480156107c5575f80fd5b506004546102a0906001600160a01b031681565b3480156107e4575f80fd5b506102d76107f3366004612492565b611967565b348015610803575f80fd5b506102d7610812366004612772565b6119a1565b348015610822575f80fd5b506103177f189ab7a9244df0848122154315af71fe140f3db0fe014031783b0946b8c9d2e381565b5f6001600160e01b03198216637965db0b60e01b148061087a57506301ffc9a760e01b6001600160e01b03198316145b92915050565b5f5b335f908152600a60205260409020548110156109b057335f908152600a602052604081208054839081106108b8576108b8612814565b905f5260205f2090600402019050826040516020016108d7919061283f565b60408051601f19818403018152908290528051602091820120916108fd91849101612882565b604051602081830303815290604052805190602001201480156109255750600381015460ff16155b156109a75760038101805460ff191660019081179091556002820154335f908152600960205260408120909201805491929091610963908490612907565b909155505060405133907fbe21664565742a9f42cbb6d005f92db59c7bcad35b12ef5b57b79e75676b247a9061099a9086906126be565b60405180910390a2505050565b50600101610882565b5050565b5f9081525f80516020612aee833981519152602052604090206001015490565b6109dd826109b4565b6109e681611b8b565b6109f08383611b95565b50505050565b5f80516020612a8e833981519152610a0d81611b8b565b6040805160c08101825260065480825260208083018a81528385018a9052606084018990526080840188905260a084018790525f92835260089091529290208151815591519091906001820190610a649082612965565b5060408201518160020155606082015181600301556080820151816004015560a082015181600501559050507f78d68ba0e8c23b92e7c700d99efed2719520cbd4af845b2c03ae251f9cdf3d5260065487604051610ac3929190612a1f565b60405180910390a160068054905f610ada83612a37565b9190505550505050505050565b6001600160a01b0381163314610b105760405163334bd91960e11b815260040160405180910390fd5b610b1a8282611c36565b505050565b5f80516020612ace833981519152610b3681611b8b565b610b3e611caf565b50565b335f9081526009602052604090205415610b9a5760405162461bcd60e51b8152602060048201526015602482015274506c6179657220616c72656164792065786973747360581b60448201526064015b60405180910390fd5b604051806101400160405280600181526020015f81526020016064815260200160328152602001600a81526020016005815260200160038152602001600281526020015f6001600160401b03811115610bf557610bf56122ec565b604051908082528060200260200182016040528015610c1e578160200160208202803683370190505b5081526020015f604051908082528060200260200182016040528015610c4e578160200160208202803683370190505b509052335f9081526009602090815260409182902083518155838201516001820155918301516002830155606083015160038301556080830151600483015560a0830151600583015560c0830151600683015560e083015160078301556101008301518051610cc39260088501920190612215565b506101208201518051610ce0916009840191602090910190612215565b50506040513391507fb4cca19a27ce42915c3cee0cee28fc5d90969ee49f09ec71659546a63b5f7bc0905f90a2565b5f80516020612a8e833981519152610d2681611b8b565b505f80546001600160a01b0319166001600160a01b0392909216919091179055565b610d50611d0e565b610d5982611db4565b6109b08282611dde565b5f80516020612a8e833981519152610d7a81611b8b565b5f6001600160a01b0316600c84604051610d94919061283f565b908152604051908190036020019020546001600160a01b031614610df15760405162461bcd60e51b81526020600482015260146024820152734775696c6420616c72656164792065786973747360601b6044820152606401610b91565b604080516060810182528481526001600160a01b0384166020820152815160018082528184018452919283019181602001602082028036833750505090526001600160a01b0383165f908152600b6020526040902081518190610e549082612965565b506020828101516001830180546001600160a01b0319166001600160a01b0390921691909117905560408301518051610e93926002850192019061225e565b5050506001600160a01b0382165f908152600b602052604081206002018054849290610ec157610ec1612814565b905f5260205f20015f6101000a8154816001600160a01b0302191690836001600160a01b0316021790555081600c84604051610efd919061283f565b90815260405190819003602001812080546001600160a01b03939093166001600160a01b0319909316929092179091557f072208535a97b2e307167838c66aacd47f8de3a2cb92bc2ddb2b2b52009c9fd590610f5c90859085906125e3565b60405180910390a1505050565b5f610f72611e9a565b505f80516020612aae83398151915290565b5f80516020612a8e833981519152610f9b81611b8b565b335f908152600a602090815260408083208151608081018352888152808401889052918201869052606082018490528054600181018255908452919092208251600490920201908190610fee9082612965565b50602082015160018201906110039082612965565b50604082015160028201556060909101516003909101805460ff191691151591909117905550505050565b5f818152600d6020908152604080832081518154606094810282018501845292810183815290939192849284919084018282801561108957602002820191905f5260205f20905b815481526020019060010190808311611075575b5050505050815260200160018201548152505090505f815f015151116110e25760405162461bcd60e51b815260206004820152600e60248201526d496e76616c69642072656369706560901b6044820152606401610b91565b5f5b8151518110156111e3575f805b335f9081526009602052604090206008015481101561117c57835180518490811061111e5761111e612814565b602002602001015160095f336001600160a01b03166001600160a01b031681526020019081526020015f20600801828154811061115d5761115d612814565b905f5260205f20015403611174576001915061117c565b6001016110f1565b50806111da5760405162461bcd60e51b815260206004820152602760248201527f506c6179657220646f6573206e6f74206861766520616c6c207265717569726560448201526664206974656d7360c81b6064820152608401610b91565b506001016110e4565b505f5b815151811015611321575f5b335f9081526009602052604090206008015481101561131857825180518390811061121f5761121f612814565b602002602001015160095f336001600160a01b03166001600160a01b031681526020019081526020015f20600801828154811061125e5761125e612814565b905f5260205f2001540361131057335f908152600960205260409020600801805461128b90600190612a4f565b8154811061129b5761129b612814565b5f918252602080832090910154338352600990915260409091206008018054839081106112ca576112ca612814565b5f9182526020808320909101929092553381526009909152604090206008018054806112f8576112f8612a62565b600190038181905f5260205f20015f90559055611318565b6001016111f2565b506001016111e6565b50335f908152600960209081526040822092810151600890930180546001810182559083529120015550565b5f80516020612ace83398151915261136481611b8b565b610b3e611ee3565b5f9182525f80516020612aee833981519152602090815260408084206001600160a01b0393909316845291905290205460ff1690565b5f80516020612a8e8339815191526113b981611b8b565b50600380546001600160a01b0319166001600160a01b0392909216919091179055565b5f80516020612a8e8339815191526113f381611b8b565b50600180546001600160a01b0319166001600160a01b0392909216919091179055565b600b6020525f90815260409020805481906114309061284a565b80601f016020809104026020016040519081016040528092919081815260200182805461145c9061284a565b80156114a75780601f1061147e576101008083540402835291602001916114a7565b820191905f5260205f20905b81548152906001019060200180831161148a57829003601f168201915b505050600190930154919250506001600160a01b031682565b5f80516020612a8e8339815191526114d781611b8b565b60408051808201825284815260208082018590526007545f908152600d825292909220815180519293919261150f9284920190612215565b50602091820151600190910155600754604080519182529181018490527f9becfd2b1fc8127387c5b0002a6cbc8382e6c8fb9f76dfd6cfd92cbe94383d0e910160405180910390a160078054905f61156683612a37565b9190505550505050565b5f80516020612a8e83398151915261158781611b8b565b50600580546001600160a01b0319166001600160a01b0392909216919091179055565b60086020525f9081526040902080546001820180549192916115cb9061284a565b80601f01602080910402602001604051908101604052809291908181526020018280546115f79061284a565b80156116425780601f1061161957610100808354040283529160200191611642565b820191905f5260205f20905b81548152906001019060200180831161162557829003601f168201915b5050505050908060020154908060030154908060040154908060050154905086565b600a602052815f5260405f20818154811061167d575f80fd5b905f5260205f2090600402015f9150915050805f01805461169d9061284a565b80601f01602080910402602001604051908101604052809291908181526020018280546116c99061284a565b80156117145780601f106116eb57610100808354040283529160200191611714565b820191905f5260205f20905b8154815290600101906020018083116116f757829003601f168201915b5050505050908060010180546117299061284a565b80601f01602080910402602001604051908101604052809291908181526020018280546117559061284a565b80156117a05780601f10611777576101008083540402835291602001916117a0565b820191905f5260205f20905b81548152906001019060200180831161178357829003601f168201915b50505050600283015460039093015491929160ff16905084565b6117c3826109b4565b6117cc81611b8b565b6109f08383611c36565b5f80516020612a8e8339815191526117ed81611b8b565b50600280546001600160a01b0319166001600160a01b0392909216919091179055565b5f600c82604051611821919061283f565b908152604051908190036020019020546001600160a01b03169050806118805760405162461bcd60e51b815260206004820152601460248201527311dd5a5b1908191bd95cc81b9bdd08195e1a5cdd60621b6044820152606401610b91565b6001600160a01b0381165f908152600b60205260408120905b600282015481101561193d57336001600160a01b03168260020182815481106118c4576118c4612814565b5f918252602090912001546001600160a01b0316036119355760405162461bcd60e51b815260206004820152602760248201527f53656e64657220697320616c72656164792061206d656d626572206f66207468604482015266194819dd5a5b1960ca1b6064820152608401610b91565b600101611899565b5060020180546001810182555f91825260209091200180546001600160a01b031916331790555050565b5f80516020612a8e83398151915261197e81611b8b565b50600480546001600160a01b0319166001600160a01b0392909216919091179055565b7ff0c57e16840df040f15088dc2f81fe391c3923bec73e23a9662efc9c229c6a008054600160401b810460ff1615906001600160401b03165f811580156119e55750825b90505f826001600160401b03166001148015611a005750303b155b905081158015611a0e575080155b15611a2c5760405163f92ee8a960e01b815260040160405180910390fd5b845467ffffffffffffffff191660011785558315611a5657845460ff60401b1916600160401b1785555b611a5e611f2b565b611a66611f3b565b611a6e611f3b565b611a785f8f611b95565b50611a905f80516020612ace8339815191528e611b95565b50611abb7f189ab7a9244df0848122154315af71fe140f3db0fe014031783b0946b8c9d2e38d611b95565b50611ad35f80516020612a8e8339815191528f611b95565b505f80546001600160a01b03199081166001600160a01b038e8116919091179092556001805482168d84161790556002805482168c84161790556003805482168b84161790556004805482168a8416179055600580549091169188169190911790558315611b7b57845460ff60401b19168555604051600181527fc7f505b2f371ae2175ee4913f4499e1f2633a7b5936321eed1cdaeb6115181d29060200160405180910390a15b5050505050505050505050505050565b610b3e8133611f43565b5f5f80516020612aee833981519152611bae848461136c565b611c2d575f848152602082815260408083206001600160a01b03871684529091529020805460ff19166001179055611be33390565b6001600160a01b0316836001600160a01b0316857f2f8788117e7eff1d82e926ec794901d17c78024a50270940304540a733656f0d60405160405180910390a4600191505061087a565b5f91505061087a565b5f5f80516020612aee833981519152611c4f848461136c565b15611c2d575f848152602082815260408083206001600160a01b0387168085529252808320805460ff1916905551339287917ff6391f5c32d9c69d2a47ea670b442974b53935d1edc7fd64eb21e047a839171b9190a4600191505061087a565b611cb7611f7c565b5f80516020612b0e833981519152805460ff191681557f5db9ee0a495bf2e6ff9c91a7834c1ba4fdd244a5e8aa4e537bd38aeae4b073aa335b6040516001600160a01b03909116815260200160405180910390a150565b306001600160a01b037f0000000000000000000000000000000000000000000000000000000000000000161480611d9457507f00000000000000000000000000000000000000000000000000000000000000006001600160a01b0316611d885f80516020612aae833981519152546001600160a01b031690565b6001600160a01b031614155b15611db25760405163703e46dd60e11b815260040160405180910390fd5b565b7f189ab7a9244df0848122154315af71fe140f3db0fe014031783b0946b8c9d2e36109b081611b8b565b816001600160a01b03166352d1902d6040518163ffffffff1660e01b8152600401602060405180830381865afa925050508015611e38575060408051601f3d908101601f19168201909252611e3591810190612a76565b60015b611e6057604051634c9c8ce360e01b81526001600160a01b0383166004820152602401610b91565b5f80516020612aae8339815191528114611e9057604051632a87526960e21b815260048101829052602401610b91565b610b1a8383611fab565b306001600160a01b037f00000000000000000000000000000000000000000000000000000000000000001614611db25760405163703e46dd60e11b815260040160405180910390fd5b611eeb612000565b5f80516020612b0e833981519152805460ff191660011781557f62e78cea01bee320cd4e420270b5ea74000d11b0c9f74754ebdbfc544b05a25833611cf0565b611f33612030565b611db2612079565b611db2612030565b611f4d828261136c565b6109b05760405163e2517d3f60e01b81526001600160a01b038216600482015260248101839052604401610b91565b5f80516020612b0e8339815191525460ff16611db257604051638dfc202b60e01b815260040160405180910390fd5b611fb482612099565b6040516001600160a01b038316907fbc7cd75a20ee27fd9adebab32041f755214dbc6bffa90cc0225b39da2e5c2d3b905f90a2805115611ff857610b1a82826120fc565b6109b061216e565b5f80516020612b0e8339815191525460ff1615611db25760405163d93c066560e01b815260040160405180910390fd5b7ff0c57e16840df040f15088dc2f81fe391c3923bec73e23a9662efc9c229c6a0054600160401b900460ff16611db257604051631afcd79f60e31b815260040160405180910390fd5b612081612030565b5f80516020612b0e833981519152805460ff19169055565b806001600160a01b03163b5f036120ce57604051634c9c8ce360e01b81526001600160a01b0382166004820152602401610b91565b5f80516020612aae83398151915280546001600160a01b0319166001600160a01b0392909216919091179055565b60605f80846001600160a01b031684604051612118919061283f565b5f60405180830381855af49150503d805f8114612150576040519150601f19603f3d011682016040523d82523d5f602084013e612155565b606091505b509150915061216585838361218d565b95945050505050565b3415611db25760405163b398979f60e01b815260040160405180910390fd5b6060826121a25761219d826121ec565b6121e5565b81511580156121b957506001600160a01b0384163b155b156121e257604051639996b31560e01b81526001600160a01b0385166004820152602401610b91565b50805b9392505050565b8051156121fc5780518082602001fd5b604051630a12f52160e11b815260040160405180910390fd5b828054828255905f5260205f2090810192821561224e579160200282015b8281111561224e578251825591602001919060010190612233565b5061225a9291506122b1565b5090565b828054828255905f5260205f2090810192821561224e579160200282015b8281111561224e57825182546001600160a01b0319166001600160a01b0390911617825560209092019160019091019061227c565b5b8082111561225a575f81556001016122b2565b5f602082840312156122d5575f80fd5b81356001600160e01b0319811681146121e5575f80fd5b634e487b7160e01b5f52604160045260245ffd5b604051601f8201601f191681016001600160401b0381118282101715612328576123286122ec565b604052919050565b5f806001600160401b03841115612349576123496122ec565b50601f8301601f191660200161235e81612300565b915050828152838383011115612372575f80fd5b828260208301375f602084830101529392505050565b5f82601f830112612397575f80fd5b6121e583833560208501612330565b5f602082840312156123b6575f80fd5b81356001600160401b038111156123cb575f80fd5b6123d784828501612388565b949350505050565b5f602082840312156123ef575f80fd5b5035919050565b80356001600160a01b038116811461240c575f80fd5b919050565b5f8060408385031215612422575f80fd5b82359150612432602084016123f6565b90509250929050565b5f805f805f60a0868803121561244f575f80fd5b85356001600160401b03811115612464575f80fd5b61247088828901612388565b9860208801359850604088013597606081013597506080013595509350505050565b5f602082840312156124a2575f80fd5b6121e5826123f6565b5f80604083850312156124bc575f80fd5b6124c5836123f6565b915060208301356001600160401b038111156124df575f80fd5b8301601f810185136124ef575f80fd5b6124fe85823560208401612330565b9150509250929050565b5f8060408385031215612519575f80fd5b82356001600160401b0381111561252e575f80fd5b61253a85828601612388565b925050612432602084016123f6565b5f805f6060848603121561255b575f80fd5b83356001600160401b03811115612570575f80fd5b61257c86828701612388565b93505060208401356001600160401b03811115612597575f80fd5b6125a386828701612388565b93969395505050506040919091013590565b5f81518084528060208401602086015e5f602082860101526020601f19601f83011685010191505092915050565b604081525f6125f560408301856125b5565b905060018060a01b03831660208301529392505050565b5f806040838503121561261d575f80fd5b82356001600160401b03811115612632575f80fd5b8301601f81018513612642575f80fd5b80356001600160401b0381111561265b5761265b6122ec565b8060051b61266b60208201612300565b91825260208184018101929081019088841115612686575f80fd5b6020850194505b838510156126ac5784358083526020958601959093509091019061268d565b98602097909701359750505050505050565b602081525f6121e560208301846125b5565b86815260c060208201525f6126e860c08301886125b5565b90508560408301528460608301528360808301528260a0830152979650505050505050565b5f806040838503121561271e575f80fd5b612727836123f6565b946020939093013593505050565b608081525f61274760808301876125b5565b828103602084015261275981876125b5565b6040840195909552505090151560609091015292915050565b5f805f805f805f805f6101208a8c03121561278b575f80fd5b6127948a6123f6565b98506127a260208b016123f6565b97506127b060408b016123f6565b96506127be60608b016123f6565b95506127cc60808b016123f6565b94506127da60a08b016123f6565b93506127e860c08b016123f6565b92506127f660e08b016123f6565b91506128056101008b016123f6565b90509295985092959850929598565b634e487b7160e01b5f52603260045260245ffd5b5f81518060208401855e5f93019283525090919050565b5f6121e58284612828565b600181811c9082168061285e57607f821691505b60208210810361287c57634e487b7160e01b5f52602260045260245ffd5b50919050565b5f80835461288f8161284a565b6001821680156128a657600181146128bb576128e8565b60ff19831686528115158202860193506128e8565b865f5260205f205f5b838110156128e0578154888201526001909101906020016128c4565b505081860193505b509195945050505050565b634e487b7160e01b5f52601160045260245ffd5b8082018082111561087a5761087a6128f3565b601f821115610b1a57805f5260205f20601f840160051c8101602085101561293f5750805b601f840160051c820191505b8181101561295e575f815560010161294b565b5050505050565b81516001600160401b0381111561297e5761297e6122ec565b6129928161298c845461284a565b8461291a565b6020601f8211600181146129c4575f83156129ad5750848201515b5f19600385901b1c1916600184901b17845561295e565b5f84815260208120601f198516915b828110156129f357878501518255602094850194600190920191016129d3565b5084821015612a1057868401515f19600387901b60f8161c191681555b50505050600190811b01905550565b828152604060208201525f6123d760408301846125b5565b5f60018201612a4857612a486128f3565b5060010190565b8181038181111561087a5761087a6128f3565b634e487b7160e01b5f52603160045260245ffd5b5f60208284031215612a86575f80fd5b505191905056fe9b7946abd96dccbe6cfc6cc2c13300ab429d93e16fa72dc459eeccda73817f08360894a13ba1a3210667c828492db98dca3e2076cc3735a920a3ca505d382bbc65d7a28e3265b37a6474929f336521b332c1681b933f6cb9f3376673440d862a02dd7bc7dec4dceedda775e58dd541e08a116c6c53815c0bd028192f7b626800cd5ed15c6e187e77e9aee88184c21f4f2182ab5827cb3b7e07fbedcd63f03300a264697066735822122017e50992d8e441c501e255dd0dd94ae0246f27bf1d9831d9196c551577a7a43e64736f6c634300081a0033",
					"opcodes": "PUSH1 0xA0 PUSH1 0x40 MSTORE ADDRESS PUSH1 0x80 MSTORE PUSH1 0x1 PUSH1 0x6 DUP2 SWAP1 SSTORE PUSH1 0x7 SSTORE CALLVALUE DUP1 ISZERO PUSH1 0x1C JUMPI PUSH0 DUP1 REVERT JUMPDEST POP PUSH1 0x80 MLOAD PUSH2 0x2B63 PUSH2 0x43 PUSH0 CODECOPY PUSH0 DUP2 DUP2 PUSH2 0x1D19 ADD MSTORE DUP2 DUP2 PUSH2 0x1D42 ADD MSTORE PUSH2 0x1EA5 ADD MSTORE PUSH2 0x2B63 PUSH0 RETURN INVALID PUSH1 0x80 PUSH1 0x40 MSTORE PUSH1 0x4 CALLDATASIZE LT PUSH2 0x249 JUMPI PUSH0 CALLDATALOAD PUSH1 0xE0 SHR DUP1 PUSH4 0x8A13EEA7 GT PUSH2 0x134 JUMPI DUP1 PUSH4 0xBFB231D2 GT PUSH2 0xB3 JUMPI DUP1 PUSH4 0xE551BA4B GT PUSH2 0x78 JUMPI DUP1 PUSH4 0xE551BA4B EQ PUSH2 0x77B JUMPI DUP1 PUSH4 0xE63AB1E9 EQ PUSH2 0x79A JUMPI DUP1 PUSH4 0xEE99205C EQ PUSH2 0x7BA JUMPI DUP1 PUSH4 0xF4E0D9AC EQ PUSH2 0x7D9 JUMPI DUP1 PUSH4 0xF5E95ACB EQ PUSH2 0x7F8 JUMPI DUP1 PUSH4 0xF72C0D8B EQ PUSH2 0x817 JUMPI PUSH0 DUP1 REVERT JUMPDEST DUP1 PUSH4 0xBFB231D2 EQ PUSH2 0x646 JUMPI DUP1 PUSH4 0xD3DCFF7C EQ PUSH2 0x677 JUMPI DUP1 PUSH4 0xD547741F EQ PUSH2 0x6A6 JUMPI DUP1 PUSH4 0xD836FC6F EQ PUSH2 0x6C5 JUMPI DUP1 PUSH4 0xE2EB41FF EQ PUSH2 0x6E4 JUMPI PUSH0 DUP1 REVERT JUMPDEST DUP1 PUSH4 0xA75859E1 GT PUSH2 0xF9 JUMPI DUP1 PUSH4 0xA75859E1 EQ PUSH2 0x57E JUMPI DUP1 PUSH4 0xA9834B67 EQ PUSH2 0x5AB JUMPI DUP1 PUSH4 0xAD3CB1CC EQ PUSH2 0x5CA JUMPI DUP1 PUSH4 0xB001F618 EQ PUSH2 0x607 JUMPI DUP1 PUSH4 0xBE22D27D EQ PUSH2 0x626 JUMPI PUSH0 DUP1 REVERT JUMPDEST DUP1 PUSH4 0x8A13EEA7 EQ PUSH2 0x4F0 JUMPI DUP1 PUSH4 0x91D14854 EQ PUSH2 0x50E JUMPI DUP1 PUSH4 0x965AFA89 EQ PUSH2 0x52D JUMPI DUP1 PUSH4 0x9A03D9A3 EQ PUSH2 0x54C JUMPI DUP1 PUSH4 0xA217FDDF EQ PUSH2 0x56B JUMPI PUSH0 DUP1 REVERT JUMPDEST DUP1 PUSH4 0x41BEC0D2 GT PUSH2 0x1CB JUMPI DUP1 PUSH4 0x52D1902D GT PUSH2 0x190 JUMPI DUP1 PUSH4 0x52D1902D EQ PUSH2 0x448 JUMPI DUP1 PUSH4 0x5C975ABB EQ PUSH2 0x45C JUMPI DUP1 PUSH4 0x5F2D6BCD EQ PUSH2 0x47F JUMPI DUP1 PUSH4 0x6F347A78 EQ PUSH2 0x49E JUMPI DUP1 PUSH4 0x7309CBBD EQ PUSH2 0x4BD JUMPI DUP1 PUSH4 0x8456CB59 EQ PUSH2 0x4DC JUMPI PUSH0 DUP1 REVERT JUMPDEST DUP1 PUSH4 0x41BEC0D2 EQ PUSH2 0x3AA JUMPI DUP1 PUSH4 0x443C227C EQ PUSH2 0x3C9 JUMPI DUP1 PUSH4 0x4A7FFCBC EQ PUSH2 0x3F7 JUMPI DUP1 PUSH4 0x4F1EF286 EQ PUSH2 0x416 JUMPI DUP1 PUSH4 0x4FA4A1BB EQ PUSH2 0x429 JUMPI PUSH0 DUP1 REVERT JUMPDEST DUP1 PUSH4 0x2F2FF15D GT PUSH2 0x211 JUMPI DUP1 PUSH4 0x2F2FF15D EQ PUSH2 0x325 JUMPI DUP1 PUSH4 0x31FEE8BE EQ PUSH2 0x344 JUMPI DUP1 PUSH4 0x36568ABE EQ PUSH2 0x363 JUMPI DUP1 PUSH4 0x3F4BA83A EQ PUSH2 0x382 JUMPI DUP1 PUSH4 0x3FA9FCF8 EQ PUSH2 0x396 JUMPI PUSH0 DUP1 REVERT JUMPDEST DUP1 PUSH4 0x1FFC9A7 EQ PUSH2 0x24D JUMPI DUP1 PUSH4 0x2EEC568 EQ PUSH2 0x281 JUMPI DUP1 PUSH4 0x17435E1A EQ PUSH2 0x2B8 JUMPI DUP1 PUSH4 0x21F42268 EQ PUSH2 0x2D9 JUMPI DUP1 PUSH4 0x248A9CA3 EQ PUSH2 0x2F8 JUMPI JUMPDEST PUSH0 DUP1 REVERT JUMPDEST CALLVALUE DUP1 ISZERO PUSH2 0x258 JUMPI PUSH0 DUP1 REVERT JUMPDEST POP PUSH2 0x26C PUSH2 0x267 CALLDATASIZE PUSH1 0x4 PUSH2 0x22C5 JUMP JUMPDEST PUSH2 0x84A JUMP JUMPDEST PUSH1 0x40 MLOAD SWAP1 ISZERO ISZERO DUP2 MSTORE PUSH1 0x20 ADD JUMPDEST PUSH1 0x40 MLOAD DUP1 SWAP2 SUB SWAP1 RETURN JUMPDEST CALLVALUE DUP1 ISZERO PUSH2 0x28C JUMPI PUSH0 DUP1 REVERT JUMPDEST POP PUSH1 0x5 SLOAD PUSH2 0x2A0 SWAP1 PUSH1 0x1 PUSH1 0x1 PUSH1 0xA0 SHL SUB AND DUP2 JUMP JUMPDEST PUSH1 0x40 MLOAD PUSH1 0x1 PUSH1 0x1 PUSH1 0xA0 SHL SUB SWAP1 SWAP2 AND DUP2 MSTORE PUSH1 0x20 ADD PUSH2 0x278 JUMP JUMPDEST CALLVALUE DUP1 ISZERO PUSH2 0x2C3 JUMPI PUSH0 DUP1 REVERT JUMPDEST POP PUSH2 0x2D7 PUSH2 0x2D2 CALLDATASIZE PUSH1 0x4 PUSH2 0x23A6 JUMP JUMPDEST PUSH2 0x880 JUMP JUMPDEST STOP JUMPDEST CALLVALUE DUP1 ISZERO PUSH2 0x2E4 JUMPI PUSH0 DUP1 REVERT JUMPDEST POP PUSH1 0x2 SLOAD PUSH2 0x2A0 SWAP1 PUSH1 0x1 PUSH1 0x1 PUSH1 0xA0 SHL SUB AND DUP2 JUMP JUMPDEST CALLVALUE DUP1 ISZERO PUSH2 0x303 JUMPI PUSH0 DUP1 REVERT JUMPDEST POP PUSH2 0x317 PUSH2 0x312 CALLDATASIZE PUSH1 0x4 PUSH2 0x23DF JUMP JUMPDEST PUSH2 0x9B4 JUMP JUMPDEST PUSH1 0x40 MLOAD SWAP1 DUP2 MSTORE PUSH1 0x20 ADD PUSH2 0x278 JUMP JUMPDEST CALLVALUE DUP1 ISZERO PUSH2 0x330 JUMPI PUSH0 DUP1 REVERT JUMPDEST POP PUSH2 0x2D7 PUSH2 0x33F CALLDATASIZE PUSH1 0x4 PUSH2 0x2411 JUMP JUMPDEST PUSH2 0x9D4 JUMP JUMPDEST CALLVALUE DUP1 ISZERO PUSH2 0x34F JUMPI PUSH0 DUP1 REVERT JUMPDEST POP PUSH2 0x2D7 PUSH2 0x35E CALLDATASIZE PUSH1 0x4 PUSH2 0x243B JUMP JUMPDEST PUSH2 0x9F6 JUMP JUMPDEST CALLVALUE DUP1 ISZERO PUSH2 0x36E JUMPI PUSH0 DUP1 REVERT JUMPDEST POP PUSH2 0x2D7 PUSH2 0x37D CALLDATASIZE PUSH1 0x4 PUSH2 0x2411 JUMP JUMPDEST PUSH2 0xAE7 JUMP JUMPDEST CALLVALUE DUP1 ISZERO PUSH2 0x38D JUMPI PUSH0 DUP1 REVERT JUMPDEST POP PUSH2 0x2D7 PUSH2 0xB1F JUMP JUMPDEST CALLVALUE DUP1 ISZERO PUSH2 0x3A1 JUMPI PUSH0 DUP1 REVERT JUMPDEST POP PUSH2 0x2D7 PUSH2 0xB41 JUMP JUMPDEST CALLVALUE DUP1 ISZERO PUSH2 0x3B5 JUMPI PUSH0 DUP1 REVERT JUMPDEST POP PUSH2 0x2D7 PUSH2 0x3C4 CALLDATASIZE PUSH1 0x4 PUSH2 0x2492 JUMP JUMPDEST PUSH2 0xD0F JUMP JUMPDEST CALLVALUE DUP1 ISZERO PUSH2 0x3D4 JUMPI PUSH0 DUP1 REVERT JUMPDEST POP PUSH2 0x317 PUSH2 0x3E3 CALLDATASIZE PUSH1 0x4 PUSH2 0x23DF JUMP JUMPDEST PUSH1 0xD PUSH1 0x20 MSTORE PUSH0 SWAP1 DUP2 MSTORE PUSH1 0x40 SWAP1 KECCAK256 PUSH1 0x1 ADD SLOAD DUP2 JUMP JUMPDEST CALLVALUE DUP1 ISZERO PUSH2 0x402 JUMPI PUSH0 DUP1 REVERT JUMPDEST POP PUSH1 0x3 SLOAD PUSH2 0x2A0 SWAP1 PUSH1 0x1 PUSH1 0x1 PUSH1 0xA0 SHL SUB AND DUP2 JUMP JUMPDEST PUSH2 0x2D7 PUSH2 0x424 CALLDATASIZE PUSH1 0x4 PUSH2 0x24AB JUMP JUMPDEST PUSH2 0xD48 JUMP JUMPDEST CALLVALUE DUP1 ISZERO PUSH2 0x434 JUMPI PUSH0 DUP1 REVERT JUMPDEST POP PUSH2 0x2D7 PUSH2 0x443 CALLDATASIZE PUSH1 0x4 PUSH2 0x2508 JUMP JUMPDEST PUSH2 0xD63 JUMP JUMPDEST CALLVALUE DUP1 ISZERO PUSH2 0x453 JUMPI PUSH0 DUP1 REVERT JUMPDEST POP PUSH2 0x317 PUSH2 0xF69 JUMP JUMPDEST CALLVALUE DUP1 ISZERO PUSH2 0x467 JUMPI PUSH0 DUP1 REVERT JUMPDEST POP PUSH0 DUP1 MLOAD PUSH1 0x20 PUSH2 0x2B0E DUP4 CODECOPY DUP2 MLOAD SWAP2 MSTORE SLOAD PUSH1 0xFF AND PUSH2 0x26C JUMP JUMPDEST CALLVALUE DUP1 ISZERO PUSH2 0x48A JUMPI PUSH0 DUP1 REVERT JUMPDEST POP PUSH1 0x1 SLOAD PUSH2 0x2A0 SWAP1 PUSH1 0x1 PUSH1 0x1 PUSH1 0xA0 SHL SUB AND DUP2 JUMP JUMPDEST CALLVALUE DUP1 ISZERO PUSH2 0x4A9 JUMPI PUSH0 DUP1 REVERT JUMPDEST POP PUSH2 0x2D7 PUSH2 0x4B8 CALLDATASIZE PUSH1 0x4 PUSH2 0x2549 JUMP JUMPDEST PUSH2 0xF84 JUMP JUMPDEST CALLVALUE DUP1 ISZERO PUSH2 0x4C8 JUMPI PUSH0 DUP1 REVERT JUMPDEST POP PUSH2 0x2D7 PUSH2 0x4D7 CALLDATASIZE PUSH1 0x4 PUSH2 0x23DF JUMP JUMPDEST PUSH2 0x102E JUMP JUMPDEST CALLVALUE DUP1 ISZERO PUSH2 0x4E7 JUMPI PUSH0 DUP1 REVERT JUMPDEST POP PUSH2 0x2D7 PUSH2 0x134D JUMP JUMPDEST CALLVALUE DUP1 ISZERO PUSH2 0x4FB JUMPI PUSH0 DUP1 REVERT JUMPDEST POP PUSH0 SLOAD PUSH2 0x2A0 SWAP1 PUSH1 0x1 PUSH1 0x1 PUSH1 0xA0 SHL SUB AND DUP2 JUMP JUMPDEST CALLVALUE DUP1 ISZERO PUSH2 0x519 JUMPI PUSH0 DUP1 REVERT JUMPDEST POP PUSH2 0x26C PUSH2 0x528 CALLDATASIZE PUSH1 0x4 PUSH2 0x2411 JUMP JUMPDEST PUSH2 0x136C JUMP JUMPDEST CALLVALUE DUP1 ISZERO PUSH2 0x538 JUMPI PUSH0 DUP1 REVERT JUMPDEST POP PUSH2 0x2D7 PUSH2 0x547 CALLDATASIZE PUSH1 0x4 PUSH2 0x2492 JUMP JUMPDEST PUSH2 0x13A2 JUMP JUMPDEST CALLVALUE DUP1 ISZERO PUSH2 0x557 JUMPI PUSH0 DUP1 REVERT JUMPDEST POP PUSH2 0x2D7 PUSH2 0x566 CALLDATASIZE PUSH1 0x4 PUSH2 0x2492 JUMP JUMPDEST PUSH2 0x13DC JUMP JUMPDEST CALLVALUE DUP1 ISZERO PUSH2 0x576 JUMPI PUSH0 DUP1 REVERT JUMPDEST POP PUSH2 0x317 PUSH0 DUP2 JUMP JUMPDEST CALLVALUE DUP1 ISZERO PUSH2 0x589 JUMPI PUSH0 DUP1 REVERT JUMPDEST POP PUSH2 0x59D PUSH2 0x598 CALLDATASIZE PUSH1 0x4 PUSH2 0x2492 JUMP JUMPDEST PUSH2 0x1416 JUMP JUMPDEST PUSH1 0x40 MLOAD PUSH2 0x278 SWAP3 SWAP2 SWAP1 PUSH2 0x25E3 JUMP JUMPDEST CALLVALUE DUP1 ISZERO PUSH2 0x5B6 JUMPI PUSH0 DUP1 REVERT JUMPDEST POP PUSH2 0x2D7 PUSH2 0x5C5 CALLDATASIZE PUSH1 0x4 PUSH2 0x260C JUMP JUMPDEST PUSH2 0x14C0 JUMP JUMPDEST CALLVALUE DUP1 ISZERO PUSH2 0x5D5 JUMPI PUSH0 DUP1 REVERT JUMPDEST POP PUSH2 0x5FA PUSH1 0x40 MLOAD DUP1 PUSH1 0x40 ADD PUSH1 0x40 MSTORE DUP1 PUSH1 0x5 DUP2 MSTORE PUSH1 0x20 ADD PUSH5 0x352E302E3 PUSH1 0xDC SHL DUP2 MSTORE POP DUP2 JUMP JUMPDEST PUSH1 0x40 MLOAD PUSH2 0x278 SWAP2 SWAP1 PUSH2 0x26BE JUMP JUMPDEST CALLVALUE DUP1 ISZERO PUSH2 0x612 JUMPI PUSH0 DUP1 REVERT JUMPDEST POP PUSH2 0x2D7 PUSH2 0x621 CALLDATASIZE PUSH1 0x4 PUSH2 0x2492 JUMP JUMPDEST PUSH2 0x1570 JUMP JUMPDEST CALLVALUE DUP1 ISZERO PUSH2 0x631 JUMPI PUSH0 DUP1 REVERT JUMPDEST POP PUSH2 0x317 PUSH0 DUP1 MLOAD PUSH1 0x20 PUSH2 0x2A8E DUP4 CODECOPY DUP2 MLOAD SWAP2 MSTORE DUP2 JUMP JUMPDEST CALLVALUE DUP1 ISZERO PUSH2 0x651 JUMPI PUSH0 DUP1 REVERT JUMPDEST POP PUSH2 0x665 PUSH2 0x660 CALLDATASIZE PUSH1 0x4 PUSH2 0x23DF JUMP JUMPDEST PUSH2 0x15AA JUMP JUMPDEST PUSH1 0x40 MLOAD PUSH2 0x278 SWAP7 SWAP6 SWAP5 SWAP4 SWAP3 SWAP2 SWAP1 PUSH2 0x26D0 JUMP JUMPDEST CALLVALUE DUP1 ISZERO PUSH2 0x682 JUMPI PUSH0 DUP1 REVERT JUMPDEST POP PUSH2 0x696 PUSH2 0x691 CALLDATASIZE PUSH1 0x4 PUSH2 0x270D JUMP JUMPDEST PUSH2 0x1664 JUMP JUMPDEST PUSH1 0x40 MLOAD PUSH2 0x278 SWAP5 SWAP4 SWAP3 SWAP2 SWAP1 PUSH2 0x2735 JUMP JUMPDEST CALLVALUE DUP1 ISZERO PUSH2 0x6B1 JUMPI PUSH0 DUP1 REVERT JUMPDEST POP PUSH2 0x2D7 PUSH2 0x6C0 CALLDATASIZE PUSH1 0x4 PUSH2 0x2411 JUMP JUMPDEST PUSH2 0x17BA JUMP JUMPDEST CALLVALUE DUP1 ISZERO PUSH2 0x6D0 JUMPI PUSH0 DUP1 REVERT JUMPDEST POP PUSH2 0x2D7 PUSH2 0x6DF CALLDATASIZE PUSH1 0x4 PUSH2 0x2492 JUMP JUMPDEST PUSH2 0x17D6 JUMP JUMPDEST CALLVALUE DUP1 ISZERO PUSH2 0x6EF JUMPI PUSH0 DUP1 REVERT JUMPDEST POP PUSH2 0x740 PUSH2 0x6FE CALLDATASIZE PUSH1 0x4 PUSH2 0x2492 JUMP JUMPDEST PUSH1 0x9 PUSH1 0x20 MSTORE PUSH0 SWAP1 DUP2 MSTORE PUSH1 0x40 SWAP1 KECCAK256 DUP1 SLOAD PUSH1 0x1 DUP3 ADD SLOAD PUSH1 0x2 DUP4 ADD SLOAD PUSH1 0x3 DUP5 ADD SLOAD PUSH1 0x4 DUP6 ADD SLOAD PUSH1 0x5 DUP7 ADD SLOAD PUSH1 0x6 DUP8 ADD SLOAD PUSH1 0x7 SWAP1 SWAP8 ADD SLOAD SWAP6 SWAP7 SWAP5 SWAP6 SWAP4 SWAP5 SWAP3 SWAP4 SWAP2 SWAP3 SWAP1 SWAP2 DUP9 JUMP JUMPDEST PUSH1 0x40 DUP1 MLOAD SWAP9 DUP10 MSTORE PUSH1 0x20 DUP10 ADD SWAP8 SWAP1 SWAP8 MSTORE SWAP6 DUP8 ADD SWAP5 SWAP1 SWAP5 MSTORE PUSH1 0x60 DUP7 ADD SWAP3 SWAP1 SWAP3 MSTORE PUSH1 0x80 DUP6 ADD MSTORE PUSH1 0xA0 DUP5 ADD MSTORE PUSH1 0xC0 DUP4 ADD MSTORE PUSH1 0xE0 DUP3 ADD MSTORE PUSH2 0x100 ADD PUSH2 0x278 JUMP JUMPDEST CALLVALUE DUP1 ISZERO PUSH2 0x786 JUMPI PUSH0 DUP1 REVERT JUMPDEST POP PUSH2 0x2D7 PUSH2 0x795 CALLDATASIZE PUSH1 0x4 PUSH2 0x23A6 JUMP JUMPDEST PUSH2 0x1810 JUMP JUMPDEST CALLVALUE DUP1 ISZERO PUSH2 0x7A5 JUMPI PUSH0 DUP1 REVERT JUMPDEST POP PUSH2 0x317 PUSH0 DUP1 MLOAD PUSH1 0x20 PUSH2 0x2ACE DUP4 CODECOPY DUP2 MLOAD SWAP2 MSTORE DUP2 JUMP JUMPDEST CALLVALUE DUP1 ISZERO PUSH2 0x7C5 JUMPI PUSH0 DUP1 REVERT JUMPDEST POP PUSH1 0x4 SLOAD PUSH2 0x2A0 SWAP1 PUSH1 0x1 PUSH1 0x1 PUSH1 0xA0 SHL SUB AND DUP2 JUMP JUMPDEST CALLVALUE DUP1 ISZERO PUSH2 0x7E4 JUMPI PUSH0 DUP1 REVERT JUMPDEST POP PUSH2 0x2D7 PUSH2 0x7F3 CALLDATASIZE PUSH1 0x4 PUSH2 0x2492 JUMP JUMPDEST PUSH2 0x1967 JUMP JUMPDEST CALLVALUE DUP1 ISZERO PUSH2 0x803 JUMPI PUSH0 DUP1 REVERT JUMPDEST POP PUSH2 0x2D7 PUSH2 0x812 CALLDATASIZE PUSH1 0x4 PUSH2 0x2772 JUMP JUMPDEST PUSH2 0x19A1 JUMP JUMPDEST CALLVALUE DUP1 ISZERO PUSH2 0x822 JUMPI PUSH0 DUP1 REVERT JUMPDEST POP PUSH2 0x317 PUSH32 0x189AB7A9244DF0848122154315AF71FE140F3DB0FE014031783B0946B8C9D2E3 DUP2 JUMP JUMPDEST PUSH0 PUSH1 0x1 PUSH1 0x1 PUSH1 0xE0 SHL SUB NOT DUP3 AND PUSH4 0x7965DB0B PUSH1 0xE0 SHL EQ DUP1 PUSH2 0x87A JUMPI POP PUSH4 0x1FFC9A7 PUSH1 0xE0 SHL PUSH1 0x1 PUSH1 0x1 PUSH1 0xE0 SHL SUB NOT DUP4 AND EQ JUMPDEST SWAP3 SWAP2 POP POP JUMP JUMPDEST PUSH0 JUMPDEST CALLER PUSH0 SWAP1 DUP2 MSTORE PUSH1 0xA PUSH1 0x20 MSTORE PUSH1 0x40 SWAP1 KECCAK256 SLOAD DUP2 LT ISZERO PUSH2 0x9B0 JUMPI CALLER PUSH0 SWAP1 DUP2 MSTORE PUSH1 0xA PUSH1 0x20 MSTORE PUSH1 0x40 DUP2 KECCAK256 DUP1 SLOAD DUP4 SWAP1 DUP2 LT PUSH2 0x8B8 JUMPI PUSH2 0x8B8 PUSH2 0x2814 JUMP JUMPDEST SWAP1 PUSH0 MSTORE PUSH1 0x20 PUSH0 KECCAK256 SWAP1 PUSH1 0x4 MUL ADD SWAP1 POP DUP3 PUSH1 0x40 MLOAD PUSH1 0x20 ADD PUSH2 0x8D7 SWAP2 SWAP1 PUSH2 0x283F JUMP JUMPDEST PUSH1 0x40 DUP1 MLOAD PUSH1 0x1F NOT DUP2 DUP5 SUB ADD DUP2 MSTORE SWAP1 DUP3 SWAP1 MSTORE DUP1 MLOAD PUSH1 0x20 SWAP2 DUP3 ADD KECCAK256 SWAP2 PUSH2 0x8FD SWAP2 DUP5 SWAP2 ADD PUSH2 0x2882 JUMP JUMPDEST PUSH1 0x40 MLOAD PUSH1 0x20 DUP2 DUP4 SUB SUB DUP2 MSTORE SWAP1 PUSH1 0x40 MSTORE DUP1 MLOAD SWAP1 PUSH1 0x20 ADD KECCAK256 EQ DUP1 ISZERO PUSH2 0x925 JUMPI POP PUSH1 0x3 DUP2 ADD SLOAD PUSH1 0xFF AND ISZERO JUMPDEST ISZERO PUSH2 0x9A7 JUMPI PUSH1 0x3 DUP2 ADD DUP1 SLOAD PUSH1 0xFF NOT AND PUSH1 0x1 SWAP1 DUP2 OR SWAP1 SWAP2 SSTORE PUSH1 0x2 DUP3 ADD SLOAD CALLER PUSH0 SWAP1 DUP2 MSTORE PUSH1 0x9 PUSH1 0x20 MSTORE PUSH1 0x40 DUP2 KECCAK256 SWAP1 SWAP3 ADD DUP1 SLOAD SWAP2 SWAP3 SWAP1 SWAP2 PUSH2 0x963 SWAP1 DUP5 SWAP1 PUSH2 0x2907 JUMP JUMPDEST SWAP1 SWAP2 SSTORE POP POP PUSH1 0x40 MLOAD CALLER SWAP1 PUSH32 0xBE21664565742A9F42CBB6D005F92DB59C7BCAD35B12EF5B57B79E75676B247A SWAP1 PUSH2 0x99A SWAP1 DUP7 SWAP1 PUSH2 0x26BE JUMP JUMPDEST PUSH1 0x40 MLOAD DUP1 SWAP2 SUB SWAP1 LOG2 POP POP POP JUMP JUMPDEST POP PUSH1 0x1 ADD PUSH2 0x882 JUMP JUMPDEST POP POP JUMP JUMPDEST PUSH0 SWAP1 DUP2 MSTORE PUSH0 DUP1 MLOAD PUSH1 0x20 PUSH2 0x2AEE DUP4 CODECOPY DUP2 MLOAD SWAP2 MSTORE PUSH1 0x20 MSTORE PUSH1 0x40 SWAP1 KECCAK256 PUSH1 0x1 ADD SLOAD SWAP1 JUMP JUMPDEST PUSH2 0x9DD DUP3 PUSH2 0x9B4 JUMP JUMPDEST PUSH2 0x9E6 DUP2 PUSH2 0x1B8B JUMP JUMPDEST PUSH2 0x9F0 DUP4 DUP4 PUSH2 0x1B95 JUMP JUMPDEST POP POP POP POP JUMP JUMPDEST PUSH0 DUP1 MLOAD PUSH1 0x20 PUSH2 0x2A8E DUP4 CODECOPY DUP2 MLOAD SWAP2 MSTORE PUSH2 0xA0D DUP2 PUSH2 0x1B8B JUMP JUMPDEST PUSH1 0x40 DUP1 MLOAD PUSH1 0xC0 DUP2 ADD DUP3 MSTORE PUSH1 0x6 SLOAD DUP1 DUP3 MSTORE PUSH1 0x20 DUP1 DUP4 ADD DUP11 DUP2 MSTORE DUP4 DUP6 ADD DUP11 SWAP1 MSTORE PUSH1 0x60 DUP5 ADD DUP10 SWAP1 MSTORE PUSH1 0x80 DUP5 ADD DUP9 SWAP1 MSTORE PUSH1 0xA0 DUP5 ADD DUP8 SWAP1 MSTORE PUSH0 SWAP3 DUP4 MSTORE PUSH1 0x8 SWAP1 SWAP2 MSTORE SWAP3 SWAP1 KECCAK256 DUP2 MLOAD DUP2 SSTORE SWAP2 MLOAD SWAP1 SWAP2 SWAP1 PUSH1 0x1 DUP3 ADD SWAP1 PUSH2 0xA64 SWAP1 DUP3 PUSH2 0x2965 JUMP JUMPDEST POP PUSH1 0x40 DUP3 ADD MLOAD DUP2 PUSH1 0x2 ADD SSTORE PUSH1 0x60 DUP3 ADD MLOAD DUP2 PUSH1 0x3 ADD SSTORE PUSH1 0x80 DUP3 ADD MLOAD DUP2 PUSH1 0x4 ADD SSTORE PUSH1 0xA0 DUP3 ADD MLOAD DUP2 PUSH1 0x5 ADD SSTORE SWAP1 POP POP PUSH32 0x78D68BA0E8C23B92E7C700D99EFED2719520CBD4AF845B2C03AE251F9CDF3D52 PUSH1 0x6 SLOAD DUP8 PUSH1 0x40 MLOAD PUSH2 0xAC3 SWAP3 SWAP2 SWAP1 PUSH2 0x2A1F JUMP JUMPDEST PUSH1 0x40 MLOAD DUP1 SWAP2 SUB SWAP1 LOG1 PUSH1 0x6 DUP1 SLOAD SWAP1 PUSH0 PUSH2 0xADA DUP4 PUSH2 0x2A37 JUMP JUMPDEST SWAP2 SWAP1 POP SSTORE POP POP POP POP POP POP POP JUMP JUMPDEST PUSH1 0x1 PUSH1 0x1 PUSH1 0xA0 SHL SUB DUP2 AND CALLER EQ PUSH2 0xB10 JUMPI PUSH1 0x40 MLOAD PUSH4 0x334BD919 PUSH1 0xE1 SHL DUP2 MSTORE PUSH1 0x4 ADD PUSH1 0x40 MLOAD DUP1 SWAP2 SUB SWAP1 REVERT JUMPDEST PUSH2 0xB1A DUP3 DUP3 PUSH2 0x1C36 JUMP JUMPDEST POP POP POP JUMP JUMPDEST PUSH0 DUP1 MLOAD PUSH1 0x20 PUSH2 0x2ACE DUP4 CODECOPY DUP2 MLOAD SWAP2 MSTORE PUSH2 0xB36 DUP2 PUSH2 0x1B8B JUMP JUMPDEST PUSH2 0xB3E PUSH2 0x1CAF JUMP JUMPDEST POP JUMP JUMPDEST CALLER PUSH0 SWAP1 DUP2 MSTORE PUSH1 0x9 PUSH1 0x20 MSTORE PUSH1 0x40 SWAP1 KECCAK256 SLOAD ISZERO PUSH2 0xB9A JUMPI PUSH1 0x40 MLOAD PUSH3 0x461BCD PUSH1 0xE5 SHL DUP2 MSTORE PUSH1 0x20 PUSH1 0x4 DUP3 ADD MSTORE PUSH1 0x15 PUSH1 0x24 DUP3 ADD MSTORE PUSH21 0x506C6179657220616C726561647920657869737473 PUSH1 0x58 SHL PUSH1 0x44 DUP3 ADD MSTORE PUSH1 0x64 ADD JUMPDEST PUSH1 0x40 MLOAD DUP1 SWAP2 SUB SWAP1 REVERT JUMPDEST PUSH1 0x40 MLOAD DUP1 PUSH2 0x140 ADD PUSH1 0x40 MSTORE DUP1 PUSH1 0x1 DUP2 MSTORE PUSH1 0x20 ADD PUSH0 DUP2 MSTORE PUSH1 0x20 ADD PUSH1 0x64 DUP2 MSTORE PUSH1 0x20 ADD PUSH1 0x32 DUP2 MSTORE PUSH1 0x20 ADD PUSH1 0xA DUP2 MSTORE PUSH1 0x20 ADD PUSH1 0x5 DUP2 MSTORE PUSH1 0x20 ADD PUSH1 0x3 DUP2 MSTORE PUSH1 0x20 ADD PUSH1 0x2 DUP2 MSTORE PUSH1 0x20 ADD PUSH0 PUSH1 0x1 PUSH1 0x1 PUSH1 0x40 SHL SUB DUP2 GT ISZERO PUSH2 0xBF5 JUMPI PUSH2 0xBF5 PUSH2 0x22EC JUMP JUMPDEST PUSH1 0x40 MLOAD SWAP1 DUP1 DUP3 MSTORE DUP1 PUSH1 0x20 MUL PUSH1 0x20 ADD DUP3 ADD PUSH1 0x40 MSTORE DUP1 ISZERO PUSH2 0xC1E JUMPI DUP2 PUSH1 0x20 ADD PUSH1 0x20 DUP3 MUL DUP1 CALLDATASIZE DUP4 CALLDATACOPY ADD SWAP1 POP JUMPDEST POP DUP2 MSTORE PUSH1 0x20 ADD PUSH0 PUSH1 0x40 MLOAD SWAP1 DUP1 DUP3 MSTORE DUP1 PUSH1 0x20 MUL PUSH1 0x20 ADD DUP3 ADD PUSH1 0x40 MSTORE DUP1 ISZERO PUSH2 0xC4E JUMPI DUP2 PUSH1 0x20 ADD PUSH1 0x20 DUP3 MUL DUP1 CALLDATASIZE DUP4 CALLDATACOPY ADD SWAP1 POP JUMPDEST POP SWAP1 MSTORE CALLER PUSH0 SWAP1 DUP2 MSTORE PUSH1 0x9 PUSH1 0x20 SWAP1 DUP2 MSTORE PUSH1 0x40 SWAP2 DUP3 SWAP1 KECCAK256 DUP4 MLOAD DUP2 SSTORE DUP4 DUP3 ADD MLOAD PUSH1 0x1 DUP3 ADD SSTORE SWAP2 DUP4 ADD MLOAD PUSH1 0x2 DUP4 ADD SSTORE PUSH1 0x60 DUP4 ADD MLOAD PUSH1 0x3 DUP4 ADD SSTORE PUSH1 0x80 DUP4 ADD MLOAD PUSH1 0x4 DUP4 ADD SSTORE PUSH1 0xA0 DUP4 ADD MLOAD PUSH1 0x5 DUP4 ADD SSTORE PUSH1 0xC0 DUP4 ADD MLOAD PUSH1 0x6 DUP4 ADD SSTORE PUSH1 0xE0 DUP4 ADD MLOAD PUSH1 0x7 DUP4 ADD SSTORE PUSH2 0x100 DUP4 ADD MLOAD DUP1 MLOAD PUSH2 0xCC3 SWAP3 PUSH1 0x8 DUP6 ADD SWAP3 ADD SWAP1 PUSH2 0x2215 JUMP JUMPDEST POP PUSH2 0x120 DUP3 ADD MLOAD DUP1 MLOAD PUSH2 0xCE0 SWAP2 PUSH1 0x9 DUP5 ADD SWAP2 PUSH1 0x20 SWAP1 SWAP2 ADD SWAP1 PUSH2 0x2215 JUMP JUMPDEST POP POP PUSH1 0x40 MLOAD CALLER SWAP2 POP PUSH32 0xB4CCA19A27CE42915C3CEE0CEE28FC5D90969EE49F09EC71659546A63B5F7BC0 SWAP1 PUSH0 SWAP1 LOG2 JUMP JUMPDEST PUSH0 DUP1 MLOAD PUSH1 0x20 PUSH2 0x2A8E DUP4 CODECOPY DUP2 MLOAD SWAP2 MSTORE PUSH2 0xD26 DUP2 PUSH2 0x1B8B JUMP JUMPDEST POP PUSH0 DUP1 SLOAD PUSH1 0x1 PUSH1 0x1 PUSH1 0xA0 SHL SUB NOT AND PUSH1 0x1 PUSH1 0x1 PUSH1 0xA0 SHL SUB SWAP3 SWAP1 SWAP3 AND SWAP2 SWAP1 SWAP2 OR SWAP1 SSTORE JUMP JUMPDEST PUSH2 0xD50 PUSH2 0x1D0E JUMP JUMPDEST PUSH2 0xD59 DUP3 PUSH2 0x1DB4 JUMP JUMPDEST PUSH2 0x9B0 DUP3 DUP3 PUSH2 0x1DDE JUMP JUMPDEST PUSH0 DUP1 MLOAD PUSH1 0x20 PUSH2 0x2A8E DUP4 CODECOPY DUP2 MLOAD SWAP2 MSTORE PUSH2 0xD7A DUP2 PUSH2 0x1B8B JUMP JUMPDEST PUSH0 PUSH1 0x1 PUSH1 0x1 PUSH1 0xA0 SHL SUB AND PUSH1 0xC DUP5 PUSH1 0x40 MLOAD PUSH2 0xD94 SWAP2 SWAP1 PUSH2 0x283F JUMP JUMPDEST SWAP1 DUP2 MSTORE PUSH1 0x40 MLOAD SWAP1 DUP2 SWAP1 SUB PUSH1 0x20 ADD SWAP1 KECCAK256 SLOAD PUSH1 0x1 PUSH1 0x1 PUSH1 0xA0 SHL SUB AND EQ PUSH2 0xDF1 JUMPI PUSH1 0x40 MLOAD PUSH3 0x461BCD PUSH1 0xE5 SHL DUP2 MSTORE PUSH1 0x20 PUSH1 0x4 DUP3 ADD MSTORE PUSH1 0x14 PUSH1 0x24 DUP3 ADD MSTORE PUSH20 0x4775696C6420616C726561647920657869737473 PUSH1 0x60 SHL PUSH1 0x44 DUP3 ADD MSTORE PUSH1 0x64 ADD PUSH2 0xB91 JUMP JUMPDEST PUSH1 0x40 DUP1 MLOAD PUSH1 0x60 DUP2 ADD DUP3 MSTORE DUP5 DUP2 MSTORE PUSH1 0x1 PUSH1 0x1 PUSH1 0xA0 SHL SUB DUP5 AND PUSH1 0x20 DUP3 ADD MSTORE DUP2 MLOAD PUSH1 0x1 DUP1 DUP3 MSTORE DUP2 DUP5 ADD DUP5 MSTORE SWAP2 SWAP3 DUP4 ADD SWAP2 DUP2 PUSH1 0x20 ADD PUSH1 0x20 DUP3 MUL DUP1 CALLDATASIZE DUP4 CALLDATACOPY POP POP POP SWAP1 MSTORE PUSH1 0x1 PUSH1 0x1 PUSH1 0xA0 SHL SUB DUP4 AND PUSH0 SWAP1 DUP2 MSTORE PUSH1 0xB PUSH1 0x20 MSTORE PUSH1 0x40 SWAP1 KECCAK256 DUP2 MLOAD DUP2 SWAP1 PUSH2 0xE54 SWAP1 DUP3 PUSH2 0x2965 JUMP JUMPDEST POP PUSH1 0x20 DUP3 DUP2 ADD MLOAD PUSH1 0x1 DUP4 ADD DUP1 SLOAD PUSH1 0x1 PUSH1 0x1 PUSH1 0xA0 SHL SUB NOT AND PUSH1 0x1 PUSH1 0x1 PUSH1 0xA0 SHL SUB SWAP1 SWAP3 AND SWAP2 SWAP1 SWAP2 OR SWAP1 SSTORE PUSH1 0x40 DUP4 ADD MLOAD DUP1 MLOAD PUSH2 0xE93 SWAP3 PUSH1 0x2 DUP6 ADD SWAP3 ADD SWAP1 PUSH2 0x225E JUMP JUMPDEST POP POP POP PUSH1 0x1 PUSH1 0x1 PUSH1 0xA0 SHL SUB DUP3 AND PUSH0 SWAP1 DUP2 MSTORE PUSH1 0xB PUSH1 0x20 MSTORE PUSH1 0x40 DUP2 KECCAK256 PUSH1 0x2 ADD DUP1 SLOAD DUP5 SWAP3 SWAP1 PUSH2 0xEC1 JUMPI PUSH2 0xEC1 PUSH2 0x2814 JUMP JUMPDEST SWAP1 PUSH0 MSTORE PUSH1 0x20 PUSH0 KECCAK256 ADD PUSH0 PUSH2 0x100 EXP DUP2 SLOAD DUP2 PUSH1 0x1 PUSH1 0x1 PUSH1 0xA0 SHL SUB MUL NOT AND SWAP1 DUP4 PUSH1 0x1 PUSH1 0x1 PUSH1 0xA0 SHL SUB AND MUL OR SWAP1 SSTORE POP DUP2 PUSH1 0xC DUP5 PUSH1 0x40 MLOAD PUSH2 0xEFD SWAP2 SWAP1 PUSH2 0x283F JUMP JUMPDEST SWAP1 DUP2 MSTORE PUSH1 0x40 MLOAD SWAP1 DUP2 SWAP1 SUB PUSH1 0x20 ADD DUP2 KECCAK256 DUP1 SLOAD PUSH1 0x1 PUSH1 0x1 PUSH1 0xA0 SHL SUB SWAP4 SWAP1 SWAP4 AND PUSH1 0x1 PUSH1 0x1 PUSH1 0xA0 SHL SUB NOT SWAP1 SWAP4 AND SWAP3 SWAP1 SWAP3 OR SWAP1 SWAP2 SSTORE PUSH32 0x72208535A97B2E307167838C66AACD47F8DE3A2CB92BC2DDB2B2B52009C9FD5 SWAP1 PUSH2 0xF5C SWAP1 DUP6 SWAP1 DUP6 SWAP1 PUSH2 0x25E3 JUMP JUMPDEST PUSH1 0x40 MLOAD DUP1 SWAP2 SUB SWAP1 LOG1 POP POP POP JUMP JUMPDEST PUSH0 PUSH2 0xF72 PUSH2 0x1E9A JUMP JUMPDEST POP PUSH0 DUP1 MLOAD PUSH1 0x20 PUSH2 0x2AAE DUP4 CODECOPY DUP2 MLOAD SWAP2 MSTORE SWAP1 JUMP JUMPDEST PUSH0 DUP1 MLOAD PUSH1 0x20 PUSH2 0x2A8E DUP4 CODECOPY DUP2 MLOAD SWAP2 MSTORE PUSH2 0xF9B DUP2 PUSH2 0x1B8B JUMP JUMPDEST CALLER PUSH0 SWAP1 DUP2 MSTORE PUSH1 0xA PUSH1 0x20 SWAP1 DUP2 MSTORE PUSH1 0x40 DUP1 DUP4 KECCAK256 DUP2 MLOAD PUSH1 0x80 DUP2 ADD DUP4 MSTORE DUP9 DUP2 MSTORE DUP1 DUP5 ADD DUP9 SWAP1 MSTORE SWAP2 DUP3 ADD DUP7 SWAP1 MSTORE PUSH1 0x60 DUP3 ADD DUP5 SWAP1 MSTORE DUP1 SLOAD PUSH1 0x1 DUP2 ADD DUP3 SSTORE SWAP1 DUP5 MSTORE SWAP2 SWAP1 SWAP3 KECCAK256 DUP3 MLOAD PUSH1 0x4 SWAP1 SWAP3 MUL ADD SWAP1 DUP2 SWAP1 PUSH2 0xFEE SWAP1 DUP3 PUSH2 0x2965 JUMP JUMPDEST POP PUSH1 0x20 DUP3 ADD MLOAD PUSH1 0x1 DUP3 ADD SWAP1 PUSH2 0x1003 SWAP1 DUP3 PUSH2 0x2965 JUMP JUMPDEST POP PUSH1 0x40 DUP3 ADD MLOAD PUSH1 0x2 DUP3 ADD SSTORE PUSH1 0x60 SWAP1 SWAP2 ADD MLOAD PUSH1 0x3 SWAP1 SWAP2 ADD DUP1 SLOAD PUSH1 0xFF NOT AND SWAP2 ISZERO ISZERO SWAP2 SWAP1 SWAP2 OR SWAP1 SSTORE POP POP POP POP JUMP JUMPDEST PUSH0 DUP2 DUP2 MSTORE PUSH1 0xD PUSH1 0x20 SWAP1 DUP2 MSTORE PUSH1 0x40 DUP1 DUP4 KECCAK256 DUP2 MLOAD DUP2 SLOAD PUSH1 0x60 SWAP5 DUP2 MUL DUP3 ADD DUP6 ADD DUP5 MSTORE SWAP3 DUP2 ADD DUP4 DUP2 MSTORE SWAP1 SWAP4 SWAP2 SWAP3 DUP5 SWAP3 DUP5 SWAP2 SWAP1 DUP5 ADD DUP3 DUP3 DUP1 ISZERO PUSH2 0x1089 JUMPI PUSH1 0x20 MUL DUP3 ADD SWAP2 SWAP1 PUSH0 MSTORE PUSH1 0x20 PUSH0 KECCAK256 SWAP1 JUMPDEST DUP2 SLOAD DUP2 MSTORE PUSH1 0x20 ADD SWAP1 PUSH1 0x1 ADD SWAP1 DUP1 DUP4 GT PUSH2 0x1075 JUMPI JUMPDEST POP POP POP POP POP DUP2 MSTORE PUSH1 0x20 ADD PUSH1 0x1 DUP3 ADD SLOAD DUP2 MSTORE POP POP SWAP1 POP PUSH0 DUP2 PUSH0 ADD MLOAD MLOAD GT PUSH2 0x10E2 JUMPI PUSH1 0x40 MLOAD PUSH3 0x461BCD PUSH1 0xE5 SHL DUP2 MSTORE PUSH1 0x20 PUSH1 0x4 DUP3 ADD MSTORE PUSH1 0xE PUSH1 0x24 DUP3 ADD MSTORE PUSH14 0x496E76616C696420726563697065 PUSH1 0x90 SHL PUSH1 0x44 DUP3 ADD MSTORE PUSH1 0x64 ADD PUSH2 0xB91 JUMP JUMPDEST PUSH0 JUMPDEST DUP2 MLOAD MLOAD DUP2 LT ISZERO PUSH2 0x11E3 JUMPI PUSH0 DUP1 JUMPDEST CALLER PUSH0 SWAP1 DUP2 MSTORE PUSH1 0x9 PUSH1 0x20 MSTORE PUSH1 0x40 SWAP1 KECCAK256 PUSH1 0x8 ADD SLOAD DUP2 LT ISZERO PUSH2 0x117C JUMPI DUP4 MLOAD DUP1 MLOAD DUP5 SWAP1 DUP2 LT PUSH2 0x111E JUMPI PUSH2 0x111E PUSH2 0x2814 JUMP JUMPDEST PUSH1 0x20 MUL PUSH1 0x20 ADD ADD MLOAD PUSH1 0x9 PUSH0 CALLER PUSH1 0x1 PUSH1 0x1 PUSH1 0xA0 SHL SUB AND PUSH1 0x1 PUSH1 0x1 PUSH1 0xA0 SHL SUB AND DUP2 MSTORE PUSH1 0x20 ADD SWAP1 DUP2 MSTORE PUSH1 0x20 ADD PUSH0 KECCAK256 PUSH1 0x8 ADD DUP3 DUP2 SLOAD DUP2 LT PUSH2 0x115D JUMPI PUSH2 0x115D PUSH2 0x2814 JUMP JUMPDEST SWAP1 PUSH0 MSTORE PUSH1 0x20 PUSH0 KECCAK256 ADD SLOAD SUB PUSH2 0x1174 JUMPI PUSH1 0x1 SWAP2 POP PUSH2 0x117C JUMP JUMPDEST PUSH1 0x1 ADD PUSH2 0x10F1 JUMP JUMPDEST POP DUP1 PUSH2 0x11DA JUMPI PUSH1 0x40 MLOAD PUSH3 0x461BCD PUSH1 0xE5 SHL DUP2 MSTORE PUSH1 0x20 PUSH1 0x4 DUP3 ADD MSTORE PUSH1 0x27 PUSH1 0x24 DUP3 ADD MSTORE PUSH32 0x506C6179657220646F6573206E6F74206861766520616C6C2072657175697265 PUSH1 0x44 DUP3 ADD MSTORE PUSH7 0x64206974656D73 PUSH1 0xC8 SHL PUSH1 0x64 DUP3 ADD MSTORE PUSH1 0x84 ADD PUSH2 0xB91 JUMP JUMPDEST POP PUSH1 0x1 ADD PUSH2 0x10E4 JUMP JUMPDEST POP PUSH0 JUMPDEST DUP2 MLOAD MLOAD DUP2 LT ISZERO PUSH2 0x1321 JUMPI PUSH0 JUMPDEST CALLER PUSH0 SWAP1 DUP2 MSTORE PUSH1 0x9 PUSH1 0x20 MSTORE PUSH1 0x40 SWAP1 KECCAK256 PUSH1 0x8 ADD SLOAD DUP2 LT ISZERO PUSH2 0x1318 JUMPI DUP3 MLOAD DUP1 MLOAD DUP4 SWAP1 DUP2 LT PUSH2 0x121F JUMPI PUSH2 0x121F PUSH2 0x2814 JUMP JUMPDEST PUSH1 0x20 MUL PUSH1 0x20 ADD ADD MLOAD PUSH1 0x9 PUSH0 CALLER PUSH1 0x1 PUSH1 0x1 PUSH1 0xA0 SHL SUB AND PUSH1 0x1 PUSH1 0x1 PUSH1 0xA0 SHL SUB AND DUP2 MSTORE PUSH1 0x20 ADD SWAP1 DUP2 MSTORE PUSH1 0x20 ADD PUSH0 KECCAK256 PUSH1 0x8 ADD DUP3 DUP2 SLOAD DUP2 LT PUSH2 0x125E JUMPI PUSH2 0x125E PUSH2 0x2814 JUMP JUMPDEST SWAP1 PUSH0 MSTORE PUSH1 0x20 PUSH0 KECCAK256 ADD SLOAD SUB PUSH2 0x1310 JUMPI CALLER PUSH0 SWAP1 DUP2 MSTORE PUSH1 0x9 PUSH1 0x20 MSTORE PUSH1 0x40 SWAP1 KECCAK256 PUSH1 0x8 ADD DUP1 SLOAD PUSH2 0x128B SWAP1 PUSH1 0x1 SWAP1 PUSH2 0x2A4F JUMP JUMPDEST DUP2 SLOAD DUP2 LT PUSH2 0x129B JUMPI PUSH2 0x129B PUSH2 0x2814 JUMP JUMPDEST PUSH0 SWAP2 DUP3 MSTORE PUSH1 0x20 DUP1 DUP4 KECCAK256 SWAP1 SWAP2 ADD SLOAD CALLER DUP4 MSTORE PUSH1 0x9 SWAP1 SWAP2 MSTORE PUSH1 0x40 SWAP1 SWAP2 KECCAK256 PUSH1 0x8 ADD DUP1 SLOAD DUP4 SWAP1 DUP2 LT PUSH2 0x12CA JUMPI PUSH2 0x12CA PUSH2 0x2814 JUMP JUMPDEST PUSH0 SWAP2 DUP3 MSTORE PUSH1 0x20 DUP1 DUP4 KECCAK256 SWAP1 SWAP2 ADD SWAP3 SWAP1 SWAP3 SSTORE CALLER DUP2 MSTORE PUSH1 0x9 SWAP1 SWAP2 MSTORE PUSH1 0x40 SWAP1 KECCAK256 PUSH1 0x8 ADD DUP1 SLOAD DUP1 PUSH2 0x12F8 JUMPI PUSH2 0x12F8 PUSH2 0x2A62 JUMP JUMPDEST PUSH1 0x1 SWAP1 SUB DUP2 DUP2 SWAP1 PUSH0 MSTORE PUSH1 0x20 PUSH0 KECCAK256 ADD PUSH0 SWAP1 SSTORE SWAP1 SSTORE PUSH2 0x1318 JUMP JUMPDEST PUSH1 0x1 ADD PUSH2 0x11F2 JUMP JUMPDEST POP PUSH1 0x1 ADD PUSH2 0x11E6 JUMP JUMPDEST POP CALLER PUSH0 SWAP1 DUP2 MSTORE PUSH1 0x9 PUSH1 0x20 SWAP1 DUP2 MSTORE PUSH1 0x40 DUP3 KECCAK256 SWAP3 DUP2 ADD MLOAD PUSH1 0x8 SWAP1 SWAP4 ADD DUP1 SLOAD PUSH1 0x1 DUP2 ADD DUP3 SSTORE SWAP1 DUP4 MSTORE SWAP2 KECCAK256 ADD SSTORE POP JUMP JUMPDEST PUSH0 DUP1 MLOAD PUSH1 0x20 PUSH2 0x2ACE DUP4 CODECOPY DUP2 MLOAD SWAP2 MSTORE PUSH2 0x1364 DUP2 PUSH2 0x1B8B JUMP JUMPDEST PUSH2 0xB3E PUSH2 0x1EE3 JUMP JUMPDEST PUSH0 SWAP2 DUP3 MSTORE PUSH0 DUP1 MLOAD PUSH1 0x20 PUSH2 0x2AEE DUP4 CODECOPY DUP2 MLOAD SWAP2 MSTORE PUSH1 0x20 SWAP1 DUP2 MSTORE PUSH1 0x40 DUP1 DUP5 KECCAK256 PUSH1 0x1 PUSH1 0x1 PUSH1 0xA0 SHL SUB SWAP4 SWAP1 SWAP4 AND DUP5 MSTORE SWAP2 SWAP1 MSTORE SWAP1 KECCAK256 SLOAD PUSH1 0xFF AND SWAP1 JUMP JUMPDEST PUSH0 DUP1 MLOAD PUSH1 0x20 PUSH2 0x2A8E DUP4 CODECOPY DUP2 MLOAD SWAP2 MSTORE PUSH2 0x13B9 DUP2 PUSH2 0x1B8B JUMP JUMPDEST POP PUSH1 0x3 DUP1 SLOAD PUSH1 0x1 PUSH1 0x1 PUSH1 0xA0 SHL SUB NOT AND PUSH1 0x1 PUSH1 0x1 PUSH1 0xA0 SHL SUB SWAP3 SWAP1 SWAP3 AND SWAP2 SWAP1 SWAP2 OR SWAP1 SSTORE JUMP JUMPDEST PUSH0 DUP1 MLOAD PUSH1 0x20 PUSH2 0x2A8E DUP4 CODECOPY DUP2 MLOAD SWAP2 MSTORE PUSH2 0x13F3 DUP2 PUSH2 0x1B8B JUMP JUMPDEST POP PUSH1 0x1 DUP1 SLOAD PUSH1 0x1 PUSH1 0x1 PUSH1 0xA0 SHL SUB NOT AND PUSH1 0x1 PUSH1 0x1 PUSH1 0xA0 SHL SUB SWAP3 SWAP1 SWAP3 AND SWAP2 SWAP1 SWAP2 OR SWAP1 SSTORE JUMP JUMPDEST PUSH1 0xB PUSH1 0x20 MSTORE PUSH0 SWAP1 DUP2 MSTORE PUSH1 0x40 SWAP1 KECCAK256 DUP1 SLOAD DUP2 SWAP1 PUSH2 0x1430 SWAP1 PUSH2 0x284A JUMP JUMPDEST DUP1 PUSH1 0x1F ADD PUSH1 0x20 DUP1 SWAP2 DIV MUL PUSH1 0x20 ADD PUSH1 0x40 MLOAD SWAP1 DUP2 ADD PUSH1 0x40 MSTORE DUP1 SWAP3 SWAP2 SWAP1 DUP2 DUP2 MSTORE PUSH1 0x20 ADD DUP3 DUP1 SLOAD PUSH2 0x145C SWAP1 PUSH2 0x284A JUMP JUMPDEST DUP1 ISZERO PUSH2 0x14A7 JUMPI DUP1 PUSH1 0x1F LT PUSH2 0x147E JUMPI PUSH2 0x100 DUP1 DUP4 SLOAD DIV MUL DUP4 MSTORE SWAP2 PUSH1 0x20 ADD SWAP2 PUSH2 0x14A7 JUMP JUMPDEST DUP3 ADD SWAP2 SWAP1 PUSH0 MSTORE PUSH1 0x20 PUSH0 KECCAK256 SWAP1 JUMPDEST DUP2 SLOAD DUP2 MSTORE SWAP1 PUSH1 0x1 ADD SWAP1 PUSH1 0x20 ADD DUP1 DUP4 GT PUSH2 0x148A JUMPI DUP3 SWAP1 SUB PUSH1 0x1F AND DUP3 ADD SWAP2 JUMPDEST POP POP POP PUSH1 0x1 SWAP1 SWAP4 ADD SLOAD SWAP2 SWAP3 POP POP PUSH1 0x1 PUSH1 0x1 PUSH1 0xA0 SHL SUB AND DUP3 JUMP JUMPDEST PUSH0 DUP1 MLOAD PUSH1 0x20 PUSH2 0x2A8E DUP4 CODECOPY DUP2 MLOAD SWAP2 MSTORE PUSH2 0x14D7 DUP2 PUSH2 0x1B8B JUMP JUMPDEST PUSH1 0x40 DUP1 MLOAD DUP1 DUP3 ADD DUP3 MSTORE DUP5 DUP2 MSTORE PUSH1 0x20 DUP1 DUP3 ADD DUP6 SWAP1 MSTORE PUSH1 0x7 SLOAD PUSH0 SWAP1 DUP2 MSTORE PUSH1 0xD DUP3 MSTORE SWAP3 SWAP1 SWAP3 KECCAK256 DUP2 MLOAD DUP1 MLOAD SWAP3 SWAP4 SWAP2 SWAP3 PUSH2 0x150F SWAP3 DUP5 SWAP3 ADD SWAP1 PUSH2 0x2215 JUMP JUMPDEST POP PUSH1 0x20 SWAP2 DUP3 ADD MLOAD PUSH1 0x1 SWAP1 SWAP2 ADD SSTORE PUSH1 0x7 SLOAD PUSH1 0x40 DUP1 MLOAD SWAP2 DUP3 MSTORE SWAP2 DUP2 ADD DUP5 SWAP1 MSTORE PUSH32 0x9BECFD2B1FC8127387C5B0002A6CBC8382E6C8FB9F76DFD6CFD92CBE94383D0E SWAP2 ADD PUSH1 0x40 MLOAD DUP1 SWAP2 SUB SWAP1 LOG1 PUSH1 0x7 DUP1 SLOAD SWAP1 PUSH0 PUSH2 0x1566 DUP4 PUSH2 0x2A37 JUMP JUMPDEST SWAP2 SWAP1 POP SSTORE POP POP POP POP JUMP JUMPDEST PUSH0 DUP1 MLOAD PUSH1 0x20 PUSH2 0x2A8E DUP4 CODECOPY DUP2 MLOAD SWAP2 MSTORE PUSH2 0x1587 DUP2 PUSH2 0x1B8B JUMP JUMPDEST POP PUSH1 0x5 DUP1 SLOAD PUSH1 0x1 PUSH1 0x1 PUSH1 0xA0 SHL SUB NOT AND PUSH1 0x1 PUSH1 0x1 PUSH1 0xA0 SHL SUB SWAP3 SWAP1 SWAP3 AND SWAP2 SWAP1 SWAP2 OR SWAP1 SSTORE JUMP JUMPDEST PUSH1 0x8 PUSH1 0x20 MSTORE PUSH0 SWAP1 DUP2 MSTORE PUSH1 0x40 SWAP1 KECCAK256 DUP1 SLOAD PUSH1 0x1 DUP3 ADD DUP1 SLOAD SWAP2 SWAP3 SWAP2 PUSH2 0x15CB SWAP1 PUSH2 0x284A JUMP JUMPDEST DUP1 PUSH1 0x1F ADD PUSH1 0x20 DUP1 SWAP2 DIV MUL PUSH1 0x20 ADD PUSH1 0x40 MLOAD SWAP1 DUP2 ADD PUSH1 0x40 MSTORE DUP1 SWAP3 SWAP2 SWAP1 DUP2 DUP2 MSTORE PUSH1 0x20 ADD DUP3 DUP1 SLOAD PUSH2 0x15F7 SWAP1 PUSH2 0x284A JUMP JUMPDEST DUP1 ISZERO PUSH2 0x1642 JUMPI DUP1 PUSH1 0x1F LT PUSH2 0x1619 JUMPI PUSH2 0x100 DUP1 DUP4 SLOAD DIV MUL DUP4 MSTORE SWAP2 PUSH1 0x20 ADD SWAP2 PUSH2 0x1642 JUMP JUMPDEST DUP3 ADD SWAP2 SWAP1 PUSH0 MSTORE PUSH1 0x20 PUSH0 KECCAK256 SWAP1 JUMPDEST DUP2 SLOAD DUP2 MSTORE SWAP1 PUSH1 0x1 ADD SWAP1 PUSH1 0x20 ADD DUP1 DUP4 GT PUSH2 0x1625 JUMPI DUP3 SWAP1 SUB PUSH1 0x1F AND DUP3 ADD SWAP2 JUMPDEST POP POP POP POP POP SWAP1 DUP1 PUSH1 0x2 ADD SLOAD SWAP1 DUP1 PUSH1 0x3 ADD SLOAD SWAP1 DUP1 PUSH1 0x4 ADD SLOAD SWAP1 DUP1 PUSH1 0x5 ADD SLOAD SWAP1 POP DUP7 JUMP JUMPDEST PUSH1 0xA PUSH1 0x20 MSTORE DUP2 PUSH0 MSTORE PUSH1 0x40 PUSH0 KECCAK256 DUP2 DUP2 SLOAD DUP2 LT PUSH2 0x167D JUMPI PUSH0 DUP1 REVERT JUMPDEST SWAP1 PUSH0 MSTORE PUSH1 0x20 PUSH0 KECCAK256 SWAP1 PUSH1 0x4 MUL ADD PUSH0 SWAP2 POP SWAP2 POP POP DUP1 PUSH0 ADD DUP1 SLOAD PUSH2 0x169D SWAP1 PUSH2 0x284A JUMP JUMPDEST DUP1 PUSH1 0x1F ADD PUSH1 0x20 DUP1 SWAP2 DIV MUL PUSH1 0x20 ADD PUSH1 0x40 MLOAD SWAP1 DUP2 ADD PUSH1 0x40 MSTORE DUP1 SWAP3 SWAP2 SWAP1 DUP2 DUP2 MSTORE PUSH1 0x20 ADD DUP3 DUP1 SLOAD PUSH2 0x16C9 SWAP1 PUSH2 0x284A JUMP JUMPDEST DUP1 ISZERO PUSH2 0x1714 JUMPI DUP1 PUSH1 0x1F LT PUSH2 0x16EB JUMPI PUSH2 0x100 DUP1 DUP4 SLOAD DIV MUL DUP4 MSTORE SWAP2 PUSH1 0x20 ADD SWAP2 PUSH2 0x1714 JUMP JUMPDEST DUP3 ADD SWAP2 SWAP1 PUSH0 MSTORE PUSH1 0x20 PUSH0 KECCAK256 SWAP1 JUMPDEST DUP2 SLOAD DUP2 MSTORE SWAP1 PUSH1 0x1 ADD SWAP1 PUSH1 0x20 ADD DUP1 DUP4 GT PUSH2 0x16F7 JUMPI DUP3 SWAP1 SUB PUSH1 0x1F AND DUP3 ADD SWAP2 JUMPDEST POP POP POP POP POP SWAP1 DUP1 PUSH1 0x1 ADD DUP1 SLOAD PUSH2 0x1729 SWAP1 PUSH2 0x284A JUMP JUMPDEST DUP1 PUSH1 0x1F ADD PUSH1 0x20 DUP1 SWAP2 DIV MUL PUSH1 0x20 ADD PUSH1 0x40 MLOAD SWAP1 DUP2 ADD PUSH1 0x40 MSTORE DUP1 SWAP3 SWAP2 SWAP1 DUP2 DUP2 MSTORE PUSH1 0x20 ADD DUP3 DUP1 SLOAD PUSH2 0x1755 SWAP1 PUSH2 0x284A JUMP JUMPDEST DUP1 ISZERO PUSH2 0x17A0 JUMPI DUP1 PUSH1 0x1F LT PUSH2 0x1777 JUMPI PUSH2 0x100 DUP1 DUP4 SLOAD DIV MUL DUP4 MSTORE SWAP2 PUSH1 0x20 ADD SWAP2 PUSH2 0x17A0 JUMP JUMPDEST DUP3 ADD SWAP2 SWAP1 PUSH0 MSTORE PUSH1 0x20 PUSH0 KECCAK256 SWAP1 JUMPDEST DUP2 SLOAD DUP2 MSTORE SWAP1 PUSH1 0x1 ADD SWAP1 PUSH1 0x20 ADD DUP1 DUP4 GT PUSH2 0x1783 JUMPI DUP3 SWAP1 SUB PUSH1 0x1F AND DUP3 ADD SWAP2 JUMPDEST POP POP POP POP PUSH1 0x2 DUP4 ADD SLOAD PUSH1 0x3 SWAP1 SWAP4 ADD SLOAD SWAP2 SWAP3 SWAP2 PUSH1 0xFF AND SWAP1 POP DUP5 JUMP JUMPDEST PUSH2 0x17C3 DUP3 PUSH2 0x9B4 JUMP JUMPDEST PUSH2 0x17CC DUP2 PUSH2 0x1B8B JUMP JUMPDEST PUSH2 0x9F0 DUP4 DUP4 PUSH2 0x1C36 JUMP JUMPDEST PUSH0 DUP1 MLOAD PUSH1 0x20 PUSH2 0x2A8E DUP4 CODECOPY DUP2 MLOAD SWAP2 MSTORE PUSH2 0x17ED DUP2 PUSH2 0x1B8B JUMP JUMPDEST POP PUSH1 0x2 DUP1 SLOAD PUSH1 0x1 PUSH1 0x1 PUSH1 0xA0 SHL SUB NOT AND PUSH1 0x1 PUSH1 0x1 PUSH1 0xA0 SHL SUB SWAP3 SWAP1 SWAP3 AND SWAP2 SWAP1 SWAP2 OR SWAP1 SSTORE JUMP JUMPDEST PUSH0 PUSH1 0xC DUP3 PUSH1 0x40 MLOAD PUSH2 0x1821 SWAP2 SWAP1 PUSH2 0x283F JUMP JUMPDEST SWAP1 DUP2 MSTORE PUSH1 0x40 MLOAD SWAP1 DUP2 SWAP1 SUB PUSH1 0x20 ADD SWAP1 KECCAK256 SLOAD PUSH1 0x1 PUSH1 0x1 PUSH1 0xA0 SHL SUB AND SWAP1 POP DUP1 PUSH2 0x1880 JUMPI PUSH1 0x40 MLOAD PUSH3 0x461BCD PUSH1 0xE5 SHL DUP2 MSTORE PUSH1 0x20 PUSH1 0x4 DUP3 ADD MSTORE PUSH1 0x14 PUSH1 0x24 DUP3 ADD MSTORE PUSH20 0x11DD5A5B1908191BD95CC81B9BDD08195E1A5CDD PUSH1 0x62 SHL PUSH1 0x44 DUP3 ADD MSTORE PUSH1 0x64 ADD PUSH2 0xB91 JUMP JUMPDEST PUSH1 0x1 PUSH1 0x1 PUSH1 0xA0 SHL SUB DUP2 AND PUSH0 SWAP1 DUP2 MSTORE PUSH1 0xB PUSH1 0x20 MSTORE PUSH1 0x40 DUP2 KECCAK256 SWAP1 JUMPDEST PUSH1 0x2 DUP3 ADD SLOAD DUP2 LT ISZERO PUSH2 0x193D JUMPI CALLER PUSH1 0x1 PUSH1 0x1 PUSH1 0xA0 SHL SUB AND DUP3 PUSH1 0x2 ADD DUP3 DUP2 SLOAD DUP2 LT PUSH2 0x18C4 JUMPI PUSH2 0x18C4 PUSH2 0x2814 JUMP JUMPDEST PUSH0 SWAP2 DUP3 MSTORE PUSH1 0x20 SWAP1 SWAP2 KECCAK256 ADD SLOAD PUSH1 0x1 PUSH1 0x1 PUSH1 0xA0 SHL SUB AND SUB PUSH2 0x1935 JUMPI PUSH1 0x40 MLOAD PUSH3 0x461BCD PUSH1 0xE5 SHL DUP2 MSTORE PUSH1 0x20 PUSH1 0x4 DUP3 ADD MSTORE PUSH1 0x27 PUSH1 0x24 DUP3 ADD MSTORE PUSH32 0x53656E64657220697320616C72656164792061206D656D626572206F66207468 PUSH1 0x44 DUP3 ADD MSTORE PUSH7 0x194819DD5A5B19 PUSH1 0xCA SHL PUSH1 0x64 DUP3 ADD MSTORE PUSH1 0x84 ADD PUSH2 0xB91 JUMP JUMPDEST PUSH1 0x1 ADD PUSH2 0x1899 JUMP JUMPDEST POP PUSH1 0x2 ADD DUP1 SLOAD PUSH1 0x1 DUP2 ADD DUP3 SSTORE PUSH0 SWAP2 DUP3 MSTORE PUSH1 0x20 SWAP1 SWAP2 KECCAK256 ADD DUP1 SLOAD PUSH1 0x1 PUSH1 0x1 PUSH1 0xA0 SHL SUB NOT AND CALLER OR SWAP1 SSTORE POP POP JUMP JUMPDEST PUSH0 DUP1 MLOAD PUSH1 0x20 PUSH2 0x2A8E DUP4 CODECOPY DUP2 MLOAD SWAP2 MSTORE PUSH2 0x197E DUP2 PUSH2 0x1B8B JUMP JUMPDEST POP PUSH1 0x4 DUP1 SLOAD PUSH1 0x1 PUSH1 0x1 PUSH1 0xA0 SHL SUB NOT AND PUSH1 0x1 PUSH1 0x1 PUSH1 0xA0 SHL SUB SWAP3 SWAP1 SWAP3 AND SWAP2 SWAP1 SWAP2 OR SWAP1 SSTORE JUMP JUMPDEST PUSH32 0xF0C57E16840DF040F15088DC2F81FE391C3923BEC73E23A9662EFC9C229C6A00 DUP1 SLOAD PUSH1 0x1 PUSH1 0x40 SHL DUP2 DIV PUSH1 0xFF AND ISZERO SWAP1 PUSH1 0x1 PUSH1 0x1 PUSH1 0x40 SHL SUB AND PUSH0 DUP2 ISZERO DUP1 ISZERO PUSH2 0x19E5 JUMPI POP DUP3 JUMPDEST SWAP1 POP PUSH0 DUP3 PUSH1 0x1 PUSH1 0x1 PUSH1 0x40 SHL SUB AND PUSH1 0x1 EQ DUP1 ISZERO PUSH2 0x1A00 JUMPI POP ADDRESS EXTCODESIZE ISZERO JUMPDEST SWAP1 POP DUP2 ISZERO DUP1 ISZERO PUSH2 0x1A0E JUMPI POP DUP1 ISZERO JUMPDEST ISZERO PUSH2 0x1A2C JUMPI PUSH1 0x40 MLOAD PUSH4 0xF92EE8A9 PUSH1 0xE0 SHL DUP2 MSTORE PUSH1 0x4 ADD PUSH1 0x40 MLOAD DUP1 SWAP2 SUB SWAP1 REVERT JUMPDEST DUP5 SLOAD PUSH8 0xFFFFFFFFFFFFFFFF NOT AND PUSH1 0x1 OR DUP6 SSTORE DUP4 ISZERO PUSH2 0x1A56 JUMPI DUP5 SLOAD PUSH1 0xFF PUSH1 0x40 SHL NOT AND PUSH1 0x1 PUSH1 0x40 SHL OR DUP6 SSTORE JUMPDEST PUSH2 0x1A5E PUSH2 0x1F2B JUMP JUMPDEST PUSH2 0x1A66 PUSH2 0x1F3B JUMP JUMPDEST PUSH2 0x1A6E PUSH2 0x1F3B JUMP JUMPDEST PUSH2 0x1A78 PUSH0 DUP16 PUSH2 0x1B95 JUMP JUMPDEST POP PUSH2 0x1A90 PUSH0 DUP1 MLOAD PUSH1 0x20 PUSH2 0x2ACE DUP4 CODECOPY DUP2 MLOAD SWAP2 MSTORE DUP15 PUSH2 0x1B95 JUMP JUMPDEST POP PUSH2 0x1ABB PUSH32 0x189AB7A9244DF0848122154315AF71FE140F3DB0FE014031783B0946B8C9D2E3 DUP14 PUSH2 0x1B95 JUMP JUMPDEST POP PUSH2 0x1AD3 PUSH0 DUP1 MLOAD PUSH1 0x20 PUSH2 0x2A8E DUP4 CODECOPY DUP2 MLOAD SWAP2 MSTORE DUP16 PUSH2 0x1B95 JUMP JUMPDEST POP PUSH0 DUP1 SLOAD PUSH1 0x1 PUSH1 0x1 PUSH1 0xA0 SHL SUB NOT SWAP1 DUP2 AND PUSH1 0x1 PUSH1 0x1 PUSH1 0xA0 SHL SUB DUP15 DUP2 AND SWAP2 SWAP1 SWAP2 OR SWAP1 SWAP3 SSTORE PUSH1 0x1 DUP1 SLOAD DUP3 AND DUP14 DUP5 AND OR SWAP1 SSTORE PUSH1 0x2 DUP1 SLOAD DUP3 AND DUP13 DUP5 AND OR SWAP1 SSTORE PUSH1 0x3 DUP1 SLOAD DUP3 AND DUP12 DUP5 AND OR SWAP1 SSTORE PUSH1 0x4 DUP1 SLOAD DUP3 AND DUP11 DUP5 AND OR SWAP1 SSTORE PUSH1 0x5 DUP1 SLOAD SWAP1 SWAP2 AND SWAP2 DUP9 AND SWAP2 SWAP1 SWAP2 OR SWAP1 SSTORE DUP4 ISZERO PUSH2 0x1B7B JUMPI DUP5 SLOAD PUSH1 0xFF PUSH1 0x40 SHL NOT AND DUP6 SSTORE PUSH1 0x40 MLOAD PUSH1 0x1 DUP2 MSTORE PUSH32 0xC7F505B2F371AE2175EE4913F4499E1F2633A7B5936321EED1CDAEB6115181D2 SWAP1 PUSH1 0x20 ADD PUSH1 0x40 MLOAD DUP1 SWAP2 SUB SWAP1 LOG1 JUMPDEST POP POP POP POP POP POP POP POP POP POP POP POP POP POP JUMP JUMPDEST PUSH2 0xB3E DUP2 CALLER PUSH2 0x1F43 JUMP JUMPDEST PUSH0 PUSH0 DUP1 MLOAD PUSH1 0x20 PUSH2 0x2AEE DUP4 CODECOPY DUP2 MLOAD SWAP2 MSTORE PUSH2 0x1BAE DUP5 DUP5 PUSH2 0x136C JUMP JUMPDEST PUSH2 0x1C2D JUMPI PUSH0 DUP5 DUP2 MSTORE PUSH1 0x20 DUP3 DUP2 MSTORE PUSH1 0x40 DUP1 DUP4 KECCAK256 PUSH1 0x1 PUSH1 0x1 PUSH1 0xA0 SHL SUB DUP8 AND DUP5 MSTORE SWAP1 SWAP2 MSTORE SWAP1 KECCAK256 DUP1 SLOAD PUSH1 0xFF NOT AND PUSH1 0x1 OR SWAP1 SSTORE PUSH2 0x1BE3 CALLER SWAP1 JUMP JUMPDEST PUSH1 0x1 PUSH1 0x1 PUSH1 0xA0 SHL SUB AND DUP4 PUSH1 0x1 PUSH1 0x1 PUSH1 0xA0 SHL SUB AND DUP6 PUSH32 0x2F8788117E7EFF1D82E926EC794901D17C78024A50270940304540A733656F0D PUSH1 0x40 MLOAD PUSH1 0x40 MLOAD DUP1 SWAP2 SUB SWAP1 LOG4 PUSH1 0x1 SWAP2 POP POP PUSH2 0x87A JUMP JUMPDEST PUSH0 SWAP2 POP POP PUSH2 0x87A JUMP JUMPDEST PUSH0 PUSH0 DUP1 MLOAD PUSH1 0x20 PUSH2 0x2AEE DUP4 CODECOPY DUP2 MLOAD SWAP2 MSTORE PUSH2 0x1C4F DUP5 DUP5 PUSH2 0x136C JUMP JUMPDEST ISZERO PUSH2 0x1C2D JUMPI PUSH0 DUP5 DUP2 MSTORE PUSH1 0x20 DUP3 DUP2 MSTORE PUSH1 0x40 DUP1 DUP4 KECCAK256 PUSH1 0x1 PUSH1 0x1 PUSH1 0xA0 SHL SUB DUP8 AND DUP1 DUP6 MSTORE SWAP3 MSTORE DUP1 DUP4 KECCAK256 DUP1 SLOAD PUSH1 0xFF NOT AND SWAP1 SSTORE MLOAD CALLER SWAP3 DUP8 SWAP2 PUSH32 0xF6391F5C32D9C69D2A47EA670B442974B53935D1EDC7FD64EB21E047A839171B SWAP2 SWAP1 LOG4 PUSH1 0x1 SWAP2 POP POP PUSH2 0x87A JUMP JUMPDEST PUSH2 0x1CB7 PUSH2 0x1F7C JUMP JUMPDEST PUSH0 DUP1 MLOAD PUSH1 0x20 PUSH2 0x2B0E DUP4 CODECOPY DUP2 MLOAD SWAP2 MSTORE DUP1 SLOAD PUSH1 0xFF NOT AND DUP2 SSTORE PUSH32 0x5DB9EE0A495BF2E6FF9C91A7834C1BA4FDD244A5E8AA4E537BD38AEAE4B073AA CALLER JUMPDEST PUSH1 0x40 MLOAD PUSH1 0x1 PUSH1 0x1 PUSH1 0xA0 SHL SUB SWAP1 SWAP2 AND DUP2 MSTORE PUSH1 0x20 ADD PUSH1 0x40 MLOAD DUP1 SWAP2 SUB SWAP1 LOG1 POP JUMP JUMPDEST ADDRESS PUSH1 0x1 PUSH1 0x1 PUSH1 0xA0 SHL SUB PUSH32 0x0 AND EQ DUP1 PUSH2 0x1D94 JUMPI POP PUSH32 0x0 PUSH1 0x1 PUSH1 0x1 PUSH1 0xA0 SHL SUB AND PUSH2 0x1D88 PUSH0 DUP1 MLOAD PUSH1 0x20 PUSH2 0x2AAE DUP4 CODECOPY DUP2 MLOAD SWAP2 MSTORE SLOAD PUSH1 0x1 PUSH1 0x1 PUSH1 0xA0 SHL SUB AND SWAP1 JUMP JUMPDEST PUSH1 0x1 PUSH1 0x1 PUSH1 0xA0 SHL SUB AND EQ ISZERO JUMPDEST ISZERO PUSH2 0x1DB2 JUMPI PUSH1 0x40 MLOAD PUSH4 0x703E46DD PUSH1 0xE1 SHL DUP2 MSTORE PUSH1 0x4 ADD PUSH1 0x40 MLOAD DUP1 SWAP2 SUB SWAP1 REVERT JUMPDEST JUMP JUMPDEST PUSH32 0x189AB7A9244DF0848122154315AF71FE140F3DB0FE014031783B0946B8C9D2E3 PUSH2 0x9B0 DUP2 PUSH2 0x1B8B JUMP JUMPDEST DUP2 PUSH1 0x1 PUSH1 0x1 PUSH1 0xA0 SHL SUB AND PUSH4 0x52D1902D PUSH1 0x40 MLOAD DUP2 PUSH4 0xFFFFFFFF AND PUSH1 0xE0 SHL DUP2 MSTORE PUSH1 0x4 ADD PUSH1 0x20 PUSH1 0x40 MLOAD DUP1 DUP4 SUB DUP2 DUP7 GAS STATICCALL SWAP3 POP POP POP DUP1 ISZERO PUSH2 0x1E38 JUMPI POP PUSH1 0x40 DUP1 MLOAD PUSH1 0x1F RETURNDATASIZE SWAP1 DUP2 ADD PUSH1 0x1F NOT AND DUP3 ADD SWAP1 SWAP3 MSTORE PUSH2 0x1E35 SWAP2 DUP2 ADD SWAP1 PUSH2 0x2A76 JUMP JUMPDEST PUSH1 0x1 JUMPDEST PUSH2 0x1E60 JUMPI PUSH1 0x40 MLOAD PUSH4 0x4C9C8CE3 PUSH1 0xE0 SHL DUP2 MSTORE PUSH1 0x1 PUSH1 0x1 PUSH1 0xA0 SHL SUB DUP4 AND PUSH1 0x4 DUP3 ADD MSTORE PUSH1 0x24 ADD PUSH2 0xB91 JUMP JUMPDEST PUSH0 DUP1 MLOAD PUSH1 0x20 PUSH2 0x2AAE DUP4 CODECOPY DUP2 MLOAD SWAP2 MSTORE DUP2 EQ PUSH2 0x1E90 JUMPI PUSH1 0x40 MLOAD PUSH4 0x2A875269 PUSH1 0xE2 SHL DUP2 MSTORE PUSH1 0x4 DUP2 ADD DUP3 SWAP1 MSTORE PUSH1 0x24 ADD PUSH2 0xB91 JUMP JUMPDEST PUSH2 0xB1A DUP4 DUP4 PUSH2 0x1FAB JUMP JUMPDEST ADDRESS PUSH1 0x1 PUSH1 0x1 PUSH1 0xA0 SHL SUB PUSH32 0x0 AND EQ PUSH2 0x1DB2 JUMPI PUSH1 0x40 MLOAD PUSH4 0x703E46DD PUSH1 0xE1 SHL DUP2 MSTORE PUSH1 0x4 ADD PUSH1 0x40 MLOAD DUP1 SWAP2 SUB SWAP1 REVERT JUMPDEST PUSH2 0x1EEB PUSH2 0x2000 JUMP JUMPDEST PUSH0 DUP1 MLOAD PUSH1 0x20 PUSH2 0x2B0E DUP4 CODECOPY DUP2 MLOAD SWAP2 MSTORE DUP1 SLOAD PUSH1 0xFF NOT AND PUSH1 0x1 OR DUP2 SSTORE PUSH32 0x62E78CEA01BEE320CD4E420270B5EA74000D11B0C9F74754EBDBFC544B05A258 CALLER PUSH2 0x1CF0 JUMP JUMPDEST PUSH2 0x1F33 PUSH2 0x2030 JUMP JUMPDEST PUSH2 0x1DB2 PUSH2 0x2079 JUMP JUMPDEST PUSH2 0x1DB2 PUSH2 0x2030 JUMP JUMPDEST PUSH2 0x1F4D DUP3 DUP3 PUSH2 0x136C JUMP JUMPDEST PUSH2 0x9B0 JUMPI PUSH1 0x40 MLOAD PUSH4 0xE2517D3F PUSH1 0xE0 SHL DUP2 MSTORE PUSH1 0x1 PUSH1 0x1 PUSH1 0xA0 SHL SUB DUP3 AND PUSH1 0x4 DUP3 ADD MSTORE PUSH1 0x24 DUP2 ADD DUP4 SWAP1 MSTORE PUSH1 0x44 ADD PUSH2 0xB91 JUMP JUMPDEST PUSH0 DUP1 MLOAD PUSH1 0x20 PUSH2 0x2B0E DUP4 CODECOPY DUP2 MLOAD SWAP2 MSTORE SLOAD PUSH1 0xFF AND PUSH2 0x1DB2 JUMPI PUSH1 0x40 MLOAD PUSH4 0x8DFC202B PUSH1 0xE0 SHL DUP2 MSTORE PUSH1 0x4 ADD PUSH1 0x40 MLOAD DUP1 SWAP2 SUB SWAP1 REVERT JUMPDEST PUSH2 0x1FB4 DUP3 PUSH2 0x2099 JUMP JUMPDEST PUSH1 0x40 MLOAD PUSH1 0x1 PUSH1 0x1 PUSH1 0xA0 SHL SUB DUP4 AND SWAP1 PUSH32 0xBC7CD75A20EE27FD9ADEBAB32041F755214DBC6BFFA90CC0225B39DA2E5C2D3B SWAP1 PUSH0 SWAP1 LOG2 DUP1 MLOAD ISZERO PUSH2 0x1FF8 JUMPI PUSH2 0xB1A DUP3 DUP3 PUSH2 0x20FC JUMP JUMPDEST PUSH2 0x9B0 PUSH2 0x216E JUMP JUMPDEST PUSH0 DUP1 MLOAD PUSH1 0x20 PUSH2 0x2B0E DUP4 CODECOPY DUP2 MLOAD SWAP2 MSTORE SLOAD PUSH1 0xFF AND ISZERO PUSH2 0x1DB2 JUMPI PUSH1 0x40 MLOAD PUSH4 0xD93C0665 PUSH1 0xE0 SHL DUP2 MSTORE PUSH1 0x4 ADD PUSH1 0x40 MLOAD DUP1 SWAP2 SUB SWAP1 REVERT JUMPDEST PUSH32 0xF0C57E16840DF040F15088DC2F81FE391C3923BEC73E23A9662EFC9C229C6A00 SLOAD PUSH1 0x1 PUSH1 0x40 SHL SWAP1 DIV PUSH1 0xFF AND PUSH2 0x1DB2 JUMPI PUSH1 0x40 MLOAD PUSH4 0x1AFCD79F PUSH1 0xE3 SHL DUP2 MSTORE PUSH1 0x4 ADD PUSH1 0x40 MLOAD DUP1 SWAP2 SUB SWAP1 REVERT JUMPDEST PUSH2 0x2081 PUSH2 0x2030 JUMP JUMPDEST PUSH0 DUP1 MLOAD PUSH1 0x20 PUSH2 0x2B0E DUP4 CODECOPY DUP2 MLOAD SWAP2 MSTORE DUP1 SLOAD PUSH1 0xFF NOT AND SWAP1 SSTORE JUMP JUMPDEST DUP1 PUSH1 0x1 PUSH1 0x1 PUSH1 0xA0 SHL SUB AND EXTCODESIZE PUSH0 SUB PUSH2 0x20CE JUMPI PUSH1 0x40 MLOAD PUSH4 0x4C9C8CE3 PUSH1 0xE0 SHL DUP2 MSTORE PUSH1 0x1 PUSH1 0x1 PUSH1 0xA0 SHL SUB DUP3 AND PUSH1 0x4 DUP3 ADD MSTORE PUSH1 0x24 ADD PUSH2 0xB91 JUMP JUMPDEST PUSH0 DUP1 MLOAD PUSH1 0x20 PUSH2 0x2AAE DUP4 CODECOPY DUP2 MLOAD SWAP2 MSTORE DUP1 SLOAD PUSH1 0x1 PUSH1 0x1 PUSH1 0xA0 SHL SUB NOT AND PUSH1 0x1 PUSH1 0x1 PUSH1 0xA0 SHL SUB SWAP3 SWAP1 SWAP3 AND SWAP2 SWAP1 SWAP2 OR SWAP1 SSTORE JUMP JUMPDEST PUSH1 0x60 PUSH0 DUP1 DUP5 PUSH1 0x1 PUSH1 0x1 PUSH1 0xA0 SHL SUB AND DUP5 PUSH1 0x40 MLOAD PUSH2 0x2118 SWAP2 SWAP1 PUSH2 0x283F JUMP JUMPDEST PUSH0 PUSH1 0x40 MLOAD DUP1 DUP4 SUB DUP2 DUP6 GAS DELEGATECALL SWAP2 POP POP RETURNDATASIZE DUP1 PUSH0 DUP2 EQ PUSH2 0x2150 JUMPI PUSH1 0x40 MLOAD SWAP2 POP PUSH1 0x1F NOT PUSH1 0x3F RETURNDATASIZE ADD AND DUP3 ADD PUSH1 0x40 MSTORE RETURNDATASIZE DUP3 MSTORE RETURNDATASIZE PUSH0 PUSH1 0x20 DUP5 ADD RETURNDATACOPY PUSH2 0x2155 JUMP JUMPDEST PUSH1 0x60 SWAP2 POP JUMPDEST POP SWAP2 POP SWAP2 POP PUSH2 0x2165 DUP6 DUP4 DUP4 PUSH2 0x218D JUMP JUMPDEST SWAP6 SWAP5 POP POP POP POP POP JUMP JUMPDEST CALLVALUE ISZERO PUSH2 0x1DB2 JUMPI PUSH1 0x40 MLOAD PUSH4 0xB398979F PUSH1 0xE0 SHL DUP2 MSTORE PUSH1 0x4 ADD PUSH1 0x40 MLOAD DUP1 SWAP2 SUB SWAP1 REVERT JUMPDEST PUSH1 0x60 DUP3 PUSH2 0x21A2 JUMPI PUSH2 0x219D DUP3 PUSH2 0x21EC JUMP JUMPDEST PUSH2 0x21E5 JUMP JUMPDEST DUP2 MLOAD ISZERO DUP1 ISZERO PUSH2 0x21B9 JUMPI POP PUSH1 0x1 PUSH1 0x1 PUSH1 0xA0 SHL SUB DUP5 AND EXTCODESIZE ISZERO JUMPDEST ISZERO PUSH2 0x21E2 JUMPI PUSH1 0x40 MLOAD PUSH4 0x9996B315 PUSH1 0xE0 SHL DUP2 MSTORE PUSH1 0x1 PUSH1 0x1 PUSH1 0xA0 SHL SUB DUP6 AND PUSH1 0x4 DUP3 ADD MSTORE PUSH1 0x24 ADD PUSH2 0xB91 JUMP JUMPDEST POP DUP1 JUMPDEST SWAP4 SWAP3 POP POP POP JUMP JUMPDEST DUP1 MLOAD ISZERO PUSH2 0x21FC JUMPI DUP1 MLOAD DUP1 DUP3 PUSH1 0x20 ADD REVERT JUMPDEST PUSH1 0x40 MLOAD PUSH4 0xA12F521 PUSH1 0xE1 SHL DUP2 MSTORE PUSH1 0x4 ADD PUSH1 0x40 MLOAD DUP1 SWAP2 SUB SWAP1 REVERT JUMPDEST DUP3 DUP1 SLOAD DUP3 DUP3 SSTORE SWAP1 PUSH0 MSTORE PUSH1 0x20 PUSH0 KECCAK256 SWAP1 DUP2 ADD SWAP3 DUP3 ISZERO PUSH2 0x224E JUMPI SWAP2 PUSH1 0x20 MUL DUP3 ADD JUMPDEST DUP3 DUP2 GT ISZERO PUSH2 0x224E JUMPI DUP3 MLOAD DUP3 SSTORE SWAP2 PUSH1 0x20 ADD SWAP2 SWAP1 PUSH1 0x1 ADD SWAP1 PUSH2 0x2233 JUMP JUMPDEST POP PUSH2 0x225A SWAP3 SWAP2 POP PUSH2 0x22B1 JUMP JUMPDEST POP SWAP1 JUMP JUMPDEST DUP3 DUP1 SLOAD DUP3 DUP3 SSTORE SWAP1 PUSH0 MSTORE PUSH1 0x20 PUSH0 KECCAK256 SWAP1 DUP2 ADD SWAP3 DUP3 ISZERO PUSH2 0x224E JUMPI SWAP2 PUSH1 0x20 MUL DUP3 ADD JUMPDEST DUP3 DUP2 GT ISZERO PUSH2 0x224E JUMPI DUP3 MLOAD DUP3 SLOAD PUSH1 0x1 PUSH1 0x1 PUSH1 0xA0 SHL SUB NOT AND PUSH1 0x1 PUSH1 0x1 PUSH1 0xA0 SHL SUB SWAP1 SWAP2 AND OR DUP3 SSTORE PUSH1 0x20 SWAP1 SWAP3 ADD SWAP2 PUSH1 0x1 SWAP1 SWAP2 ADD SWAP1 PUSH2 0x227C JUMP JUMPDEST JUMPDEST DUP1 DUP3 GT ISZERO PUSH2 0x225A JUMPI PUSH0 DUP2 SSTORE PUSH1 0x1 ADD PUSH2 0x22B2 JUMP JUMPDEST PUSH0 PUSH1 0x20 DUP3 DUP5 SUB SLT ISZERO PUSH2 0x22D5 JUMPI PUSH0 DUP1 REVERT JUMPDEST DUP2 CALLDATALOAD PUSH1 0x1 PUSH1 0x1 PUSH1 0xE0 SHL SUB NOT DUP2 AND DUP2 EQ PUSH2 0x21E5 JUMPI PUSH0 DUP1 REVERT JUMPDEST PUSH4 0x4E487B71 PUSH1 0xE0 SHL PUSH0 MSTORE PUSH1 0x41 PUSH1 0x4 MSTORE PUSH1 0x24 PUSH0 REVERT JUMPDEST PUSH1 0x40 MLOAD PUSH1 0x1F DUP3 ADD PUSH1 0x1F NOT AND DUP2 ADD PUSH1 0x1 PUSH1 0x1 PUSH1 0x40 SHL SUB DUP2 GT DUP3 DUP3 LT OR ISZERO PUSH2 0x2328 JUMPI PUSH2 0x2328 PUSH2 0x22EC JUMP JUMPDEST PUSH1 0x40 MSTORE SWAP2 SWAP1 POP JUMP JUMPDEST PUSH0 DUP1 PUSH1 0x1 PUSH1 0x1 PUSH1 0x40 SHL SUB DUP5 GT ISZERO PUSH2 0x2349 JUMPI PUSH2 0x2349 PUSH2 0x22EC JUMP JUMPDEST POP PUSH1 0x1F DUP4 ADD PUSH1 0x1F NOT AND PUSH1 0x20 ADD PUSH2 0x235E DUP2 PUSH2 0x2300 JUMP JUMPDEST SWAP2 POP POP DUP3 DUP2 MSTORE DUP4 DUP4 DUP4 ADD GT ISZERO PUSH2 0x2372 JUMPI PUSH0 DUP1 REVERT JUMPDEST DUP3 DUP3 PUSH1 0x20 DUP4 ADD CALLDATACOPY PUSH0 PUSH1 0x20 DUP5 DUP4 ADD ADD MSTORE SWAP4 SWAP3 POP POP POP JUMP JUMPDEST PUSH0 DUP3 PUSH1 0x1F DUP4 ADD SLT PUSH2 0x2397 JUMPI PUSH0 DUP1 REVERT JUMPDEST PUSH2 0x21E5 DUP4 DUP4 CALLDATALOAD PUSH1 0x20 DUP6 ADD PUSH2 0x2330 JUMP JUMPDEST PUSH0 PUSH1 0x20 DUP3 DUP5 SUB SLT ISZERO PUSH2 0x23B6 JUMPI PUSH0 DUP1 REVERT JUMPDEST DUP2 CALLDATALOAD PUSH1 0x1 PUSH1 0x1 PUSH1 0x40 SHL SUB DUP2 GT ISZERO PUSH2 0x23CB JUMPI PUSH0 DUP1 REVERT JUMPDEST PUSH2 0x23D7 DUP5 DUP3 DUP6 ADD PUSH2 0x2388 JUMP JUMPDEST SWAP5 SWAP4 POP POP POP POP JUMP JUMPDEST PUSH0 PUSH1 0x20 DUP3 DUP5 SUB SLT ISZERO PUSH2 0x23EF JUMPI PUSH0 DUP1 REVERT JUMPDEST POP CALLDATALOAD SWAP2 SWAP1 POP JUMP JUMPDEST DUP1 CALLDATALOAD PUSH1 0x1 PUSH1 0x1 PUSH1 0xA0 SHL SUB DUP2 AND DUP2 EQ PUSH2 0x240C JUMPI PUSH0 DUP1 REVERT JUMPDEST SWAP2 SWAP1 POP JUMP JUMPDEST PUSH0 DUP1 PUSH1 0x40 DUP4 DUP6 SUB SLT ISZERO PUSH2 0x2422 JUMPI PUSH0 DUP1 REVERT JUMPDEST DUP3 CALLDATALOAD SWAP2 POP PUSH2 0x2432 PUSH1 0x20 DUP5 ADD PUSH2 0x23F6 JUMP JUMPDEST SWAP1 POP SWAP3 POP SWAP3 SWAP1 POP JUMP JUMPDEST PUSH0 DUP1 PUSH0 DUP1 PUSH0 PUSH1 0xA0 DUP7 DUP9 SUB SLT ISZERO PUSH2 0x244F JUMPI PUSH0 DUP1 REVERT JUMPDEST DUP6 CALLDATALOAD PUSH1 0x1 PUSH1 0x1 PUSH1 0x40 SHL SUB DUP2 GT ISZERO PUSH2 0x2464 JUMPI PUSH0 DUP1 REVERT JUMPDEST PUSH2 0x2470 DUP9 DUP3 DUP10 ADD PUSH2 0x2388 JUMP JUMPDEST SWAP9 PUSH1 0x20 DUP9 ADD CALLDATALOAD SWAP9 POP PUSH1 0x40 DUP9 ADD CALLDATALOAD SWAP8 PUSH1 0x60 DUP2 ADD CALLDATALOAD SWAP8 POP PUSH1 0x80 ADD CALLDATALOAD SWAP6 POP SWAP4 POP POP POP POP JUMP JUMPDEST PUSH0 PUSH1 0x20 DUP3 DUP5 SUB SLT ISZERO PUSH2 0x24A2 JUMPI PUSH0 DUP1 REVERT JUMPDEST PUSH2 0x21E5 DUP3 PUSH2 0x23F6 JUMP JUMPDEST PUSH0 DUP1 PUSH1 0x40 DUP4 DUP6 SUB SLT ISZERO PUSH2 0x24BC JUMPI PUSH0 DUP1 REVERT JUMPDEST PUSH2 0x24C5 DUP4 PUSH2 0x23F6 JUMP JUMPDEST SWAP2 POP PUSH1 0x20 DUP4 ADD CALLDATALOAD PUSH1 0x1 PUSH1 0x1 PUSH1 0x40 SHL SUB DUP2 GT ISZERO PUSH2 0x24DF JUMPI PUSH0 DUP1 REVERT JUMPDEST DUP4 ADD PUSH1 0x1F DUP2 ADD DUP6 SGT PUSH2 0x24EF JUMPI PUSH0 DUP1 REVERT JUMPDEST PUSH2 0x24FE DUP6 DUP3 CALLDATALOAD PUSH1 0x20 DUP5 ADD PUSH2 0x2330 JUMP JUMPDEST SWAP2 POP POP SWAP3 POP SWAP3 SWAP1 POP JUMP JUMPDEST PUSH0 DUP1 PUSH1 0x40 DUP4 DUP6 SUB SLT ISZERO PUSH2 0x2519 JUMPI PUSH0 DUP1 REVERT JUMPDEST DUP3 CALLDATALOAD PUSH1 0x1 PUSH1 0x1 PUSH1 0x40 SHL SUB DUP2 GT ISZERO PUSH2 0x252E JUMPI PUSH0 DUP1 REVERT JUMPDEST PUSH2 0x253A DUP6 DUP3 DUP7 ADD PUSH2 0x2388 JUMP JUMPDEST SWAP3 POP POP PUSH2 0x2432 PUSH1 0x20 DUP5 ADD PUSH2 0x23F6 JUMP JUMPDEST PUSH0 DUP1 PUSH0 PUSH1 0x60 DUP5 DUP7 SUB SLT ISZERO PUSH2 0x255B JUMPI PUSH0 DUP1 REVERT JUMPDEST DUP4 CALLDATALOAD PUSH1 0x1 PUSH1 0x1 PUSH1 0x40 SHL SUB DUP2 GT ISZERO PUSH2 0x2570 JUMPI PUSH0 DUP1 REVERT JUMPDEST PUSH2 0x257C DUP7 DUP3 DUP8 ADD PUSH2 0x2388 JUMP JUMPDEST SWAP4 POP POP PUSH1 0x20 DUP5 ADD CALLDATALOAD PUSH1 0x1 PUSH1 0x1 PUSH1 0x40 SHL SUB DUP2 GT ISZERO PUSH2 0x2597 JUMPI PUSH0 DUP1 REVERT JUMPDEST PUSH2 0x25A3 DUP7 DUP3 DUP8 ADD PUSH2 0x2388 JUMP JUMPDEST SWAP4 SWAP7 SWAP4 SWAP6 POP POP POP POP PUSH1 0x40 SWAP2 SWAP1 SWAP2 ADD CALLDATALOAD SWAP1 JUMP JUMPDEST PUSH0 DUP2 MLOAD DUP1 DUP5 MSTORE DUP1 PUSH1 0x20 DUP5 ADD PUSH1 0x20 DUP7 ADD MCOPY PUSH0 PUSH1 0x20 DUP3 DUP7 ADD ADD MSTORE PUSH1 0x20 PUSH1 0x1F NOT PUSH1 0x1F DUP4 ADD AND DUP6 ADD ADD SWAP2 POP POP SWAP3 SWAP2 POP POP JUMP JUMPDEST PUSH1 0x40 DUP2 MSTORE PUSH0 PUSH2 0x25F5 PUSH1 0x40 DUP4 ADD DUP6 PUSH2 0x25B5 JUMP JUMPDEST SWAP1 POP PUSH1 0x1 DUP1 PUSH1 0xA0 SHL SUB DUP4 AND PUSH1 0x20 DUP4 ADD MSTORE SWAP4 SWAP3 POP POP POP JUMP JUMPDEST PUSH0 DUP1 PUSH1 0x40 DUP4 DUP6 SUB SLT ISZERO PUSH2 0x261D JUMPI PUSH0 DUP1 REVERT JUMPDEST DUP3 CALLDATALOAD PUSH1 0x1 PUSH1 0x1 PUSH1 0x40 SHL SUB DUP2 GT ISZERO PUSH2 0x2632 JUMPI PUSH0 DUP1 REVERT JUMPDEST DUP4 ADD PUSH1 0x1F DUP2 ADD DUP6 SGT PUSH2 0x2642 JUMPI PUSH0 DUP1 REVERT JUMPDEST DUP1 CALLDATALOAD PUSH1 0x1 PUSH1 0x1 PUSH1 0x40 SHL SUB DUP2 GT ISZERO PUSH2 0x265B JUMPI PUSH2 0x265B PUSH2 0x22EC JUMP JUMPDEST DUP1 PUSH1 0x5 SHL PUSH2 0x266B PUSH1 0x20 DUP3 ADD PUSH2 0x2300 JUMP JUMPDEST SWAP2 DUP3 MSTORE PUSH1 0x20 DUP2 DUP5 ADD DUP2 ADD SWAP3 SWAP1 DUP2 ADD SWAP1 DUP9 DUP5 GT ISZERO PUSH2 0x2686 JUMPI PUSH0 DUP1 REVERT JUMPDEST PUSH1 0x20 DUP6 ADD SWAP5 POP JUMPDEST DUP4 DUP6 LT ISZERO PUSH2 0x26AC JUMPI DUP5 CALLDATALOAD DUP1 DUP4 MSTORE PUSH1 0x20 SWAP6 DUP7 ADD SWAP6 SWAP1 SWAP4 POP SWAP1 SWAP2 ADD SWAP1 PUSH2 0x268D JUMP JUMPDEST SWAP9 PUSH1 0x20 SWAP8 SWAP1 SWAP8 ADD CALLDATALOAD SWAP8 POP POP POP POP POP POP POP JUMP JUMPDEST PUSH1 0x20 DUP2 MSTORE PUSH0 PUSH2 0x21E5 PUSH1 0x20 DUP4 ADD DUP5 PUSH2 0x25B5 JUMP JUMPDEST DUP7 DUP2 MSTORE PUSH1 0xC0 PUSH1 0x20 DUP3 ADD MSTORE PUSH0 PUSH2 0x26E8 PUSH1 0xC0 DUP4 ADD DUP9 PUSH2 0x25B5 JUMP JUMPDEST SWAP1 POP DUP6 PUSH1 0x40 DUP4 ADD MSTORE DUP5 PUSH1 0x60 DUP4 ADD MSTORE DUP4 PUSH1 0x80 DUP4 ADD MSTORE DUP3 PUSH1 0xA0 DUP4 ADD MSTORE SWAP8 SWAP7 POP POP POP POP POP POP POP JUMP JUMPDEST PUSH0 DUP1 PUSH1 0x40 DUP4 DUP6 SUB SLT ISZERO PUSH2 0x271E JUMPI PUSH0 DUP1 REVERT JUMPDEST PUSH2 0x2727 DUP4 PUSH2 0x23F6 JUMP JUMPDEST SWAP5 PUSH1 0x20 SWAP4 SWAP1 SWAP4 ADD CALLDATALOAD SWAP4 POP POP POP JUMP JUMPDEST PUSH1 0x80 DUP2 MSTORE PUSH0 PUSH2 0x2747 PUSH1 0x80 DUP4 ADD DUP8 PUSH2 0x25B5 JUMP JUMPDEST DUP3 DUP2 SUB PUSH1 0x20 DUP5 ADD MSTORE PUSH2 0x2759 DUP2 DUP8 PUSH2 0x25B5 JUMP JUMPDEST PUSH1 0x40 DUP5 ADD SWAP6 SWAP1 SWAP6 MSTORE POP POP SWAP1 ISZERO ISZERO PUSH1 0x60 SWAP1 SWAP2 ADD MSTORE SWAP3 SWAP2 POP POP JUMP JUMPDEST PUSH0 DUP1 PUSH0 DUP1 PUSH0 DUP1 PUSH0 DUP1 PUSH0 PUSH2 0x120 DUP11 DUP13 SUB SLT ISZERO PUSH2 0x278B JUMPI PUSH0 DUP1 REVERT JUMPDEST PUSH2 0x2794 DUP11 PUSH2 0x23F6 JUMP JUMPDEST SWAP9 POP PUSH2 0x27A2 PUSH1 0x20 DUP12 ADD PUSH2 0x23F6 JUMP JUMPDEST SWAP8 POP PUSH2 0x27B0 PUSH1 0x40 DUP12 ADD PUSH2 0x23F6 JUMP JUMPDEST SWAP7 POP PUSH2 0x27BE PUSH1 0x60 DUP12 ADD PUSH2 0x23F6 JUMP JUMPDEST SWAP6 POP PUSH2 0x27CC PUSH1 0x80 DUP12 ADD PUSH2 0x23F6 JUMP JUMPDEST SWAP5 POP PUSH2 0x27DA PUSH1 0xA0 DUP12 ADD PUSH2 0x23F6 JUMP JUMPDEST SWAP4 POP PUSH2 0x27E8 PUSH1 0xC0 DUP12 ADD PUSH2 0x23F6 JUMP JUMPDEST SWAP3 POP PUSH2 0x27F6 PUSH1 0xE0 DUP12 ADD PUSH2 0x23F6 JUMP JUMPDEST SWAP2 POP PUSH2 0x2805 PUSH2 0x100 DUP12 ADD PUSH2 0x23F6 JUMP JUMPDEST SWAP1 POP SWAP3 SWAP6 SWAP9 POP SWAP3 SWAP6 SWAP9 POP SWAP3 SWAP6 SWAP9 JUMP JUMPDEST PUSH4 0x4E487B71 PUSH1 0xE0 SHL PUSH0 MSTORE PUSH1 0x32 PUSH1 0x4 MSTORE PUSH1 0x24 PUSH0 REVERT JUMPDEST PUSH0 DUP2 MLOAD DUP1 PUSH1 0x20 DUP5 ADD DUP6 MCOPY PUSH0 SWAP4 ADD SWAP3 DUP4 MSTORE POP SWAP1 SWAP2 SWAP1 POP JUMP JUMPDEST PUSH0 PUSH2 0x21E5 DUP3 DUP5 PUSH2 0x2828 JUMP JUMPDEST PUSH1 0x1 DUP2 DUP2 SHR SWAP1 DUP3 AND DUP1 PUSH2 0x285E JUMPI PUSH1 0x7F DUP3 AND SWAP2 POP JUMPDEST PUSH1 0x20 DUP3 LT DUP2 SUB PUSH2 0x287C JUMPI PUSH4 0x4E487B71 PUSH1 0xE0 SHL PUSH0 MSTORE PUSH1 0x22 PUSH1 0x4 MSTORE PUSH1 0x24 PUSH0 REVERT JUMPDEST POP SWAP2 SWAP1 POP JUMP JUMPDEST PUSH0 DUP1 DUP4 SLOAD PUSH2 0x288F DUP2 PUSH2 0x284A JUMP JUMPDEST PUSH1 0x1 DUP3 AND DUP1 ISZERO PUSH2 0x28A6 JUMPI PUSH1 0x1 DUP2 EQ PUSH2 0x28BB JUMPI PUSH2 0x28E8 JUMP JUMPDEST PUSH1 0xFF NOT DUP4 AND DUP7 MSTORE DUP2 ISZERO ISZERO DUP3 MUL DUP7 ADD SWAP4 POP PUSH2 0x28E8 JUMP JUMPDEST DUP7 PUSH0 MSTORE PUSH1 0x20 PUSH0 KECCAK256 PUSH0 JUMPDEST DUP4 DUP2 LT ISZERO PUSH2 0x28E0 JUMPI DUP2 SLOAD DUP9 DUP3 ADD MSTORE PUSH1 0x1 SWAP1 SWAP2 ADD SWAP1 PUSH1 0x20 ADD PUSH2 0x28C4 JUMP JUMPDEST POP POP DUP2 DUP7 ADD SWAP4 POP JUMPDEST POP SWAP2 SWAP6 SWAP5 POP POP POP POP POP JUMP JUMPDEST PUSH4 0x4E487B71 PUSH1 0xE0 SHL PUSH0 MSTORE PUSH1 0x11 PUSH1 0x4 MSTORE PUSH1 0x24 PUSH0 REVERT JUMPDEST DUP1 DUP3 ADD DUP1 DUP3 GT ISZERO PUSH2 0x87A JUMPI PUSH2 0x87A PUSH2 0x28F3 JUMP JUMPDEST PUSH1 0x1F DUP3 GT ISZERO PUSH2 0xB1A JUMPI DUP1 PUSH0 MSTORE PUSH1 0x20 PUSH0 KECCAK256 PUSH1 0x1F DUP5 ADD PUSH1 0x5 SHR DUP2 ADD PUSH1 0x20 DUP6 LT ISZERO PUSH2 0x293F JUMPI POP DUP1 JUMPDEST PUSH1 0x1F DUP5 ADD PUSH1 0x5 SHR DUP3 ADD SWAP2 POP JUMPDEST DUP2 DUP2 LT ISZERO PUSH2 0x295E JUMPI PUSH0 DUP2 SSTORE PUSH1 0x1 ADD PUSH2 0x294B JUMP JUMPDEST POP POP POP POP POP JUMP JUMPDEST DUP2 MLOAD PUSH1 0x1 PUSH1 0x1 PUSH1 0x40 SHL SUB DUP2 GT ISZERO PUSH2 0x297E JUMPI PUSH2 0x297E PUSH2 0x22EC JUMP JUMPDEST PUSH2 0x2992 DUP2 PUSH2 0x298C DUP5 SLOAD PUSH2 0x284A JUMP JUMPDEST DUP5 PUSH2 0x291A JUMP JUMPDEST PUSH1 0x20 PUSH1 0x1F DUP3 GT PUSH1 0x1 DUP2 EQ PUSH2 0x29C4 JUMPI PUSH0 DUP4 ISZERO PUSH2 0x29AD JUMPI POP DUP5 DUP3 ADD MLOAD JUMPDEST PUSH0 NOT PUSH1 0x3 DUP6 SWAP1 SHL SHR NOT AND PUSH1 0x1 DUP5 SWAP1 SHL OR DUP5 SSTORE PUSH2 0x295E JUMP JUMPDEST PUSH0 DUP5 DUP2 MSTORE PUSH1 0x20 DUP2 KECCAK256 PUSH1 0x1F NOT DUP6 AND SWAP2 JUMPDEST DUP3 DUP2 LT ISZERO PUSH2 0x29F3 JUMPI DUP8 DUP6 ADD MLOAD DUP3 SSTORE PUSH1 0x20 SWAP5 DUP6 ADD SWAP5 PUSH1 0x1 SWAP1 SWAP3 ADD SWAP2 ADD PUSH2 0x29D3 JUMP JUMPDEST POP DUP5 DUP3 LT ISZERO PUSH2 0x2A10 JUMPI DUP7 DUP5 ADD MLOAD PUSH0 NOT PUSH1 0x3 DUP8 SWAP1 SHL PUSH1 0xF8 AND SHR NOT AND DUP2 SSTORE JUMPDEST POP POP POP POP PUSH1 0x1 SWAP1 DUP2 SHL ADD SWAP1 SSTORE POP JUMP JUMPDEST DUP3 DUP2 MSTORE PUSH1 0x40 PUSH1 0x20 DUP3 ADD MSTORE PUSH0 PUSH2 0x23D7 PUSH1 0x40 DUP4 ADD DUP5 PUSH2 0x25B5 JUMP JUMPDEST PUSH0 PUSH1 0x1 DUP3 ADD PUSH2 0x2A48 JUMPI PUSH2 0x2A48 PUSH2 0x28F3 JUMP JUMPDEST POP PUSH1 0x1 ADD SWAP1 JUMP JUMPDEST DUP2 DUP2 SUB DUP2 DUP2 GT ISZERO PUSH2 0x87A JUMPI PUSH2 0x87A PUSH2 0x28F3 JUMP JUMPDEST PUSH4 0x4E487B71 PUSH1 0xE0 SHL PUSH0 MSTORE PUSH1 0x31 PUSH1 0x4 MSTORE PUSH1 0x24 PUSH0 REVERT JUMPDEST PUSH0 PUSH1 0x20 DUP3 DUP5 SUB SLT ISZERO PUSH2 0x2A86 JUMPI PUSH0 DUP1 REVERT JUMPDEST POP MLOAD SWAP2 SWAP1 POP JUMP INVALID SWAP12 PUSH26 0x46ABD96DCCBE6CFC6CC2C13300AB429D93E16FA72DC459EECCDA PUSH20 0x817F08360894A13BA1A3210667C828492DB98DCA RETURNDATACOPY KECCAK256 PUSH23 0xCC3735A920A3CA505D382BBC65D7A28E3265B37A647492 SWAP16 CALLER PUSH6 0x21B332C1681B SWAP4 EXTCODEHASH PUSH13 0xB9F3376673440D862A02DD7BC7 0xDE 0xC4 0xDC 0xEE 0xDD 0xA7 PUSH22 0xE58DD541E08A116C6C53815C0BD028192F7B626800CD MCOPY 0xD1 TLOAD PUSH15 0x187E77E9AEE88184C21F4F2182AB58 0x27 0xCB EXTCODESIZE PUSH31 0x7FBEDCD63F03300A264697066735822122017E50992D8E441C501E255DD0D 0xD9 BLOBBASEFEE 0xE0 0x24 PUSH16 0x27BF1D9831D9196C551577A7A43E6473 PUSH16 0x6C634300081A00330000000000000000 "
				},
				"gasEstimates": {
					"creation": {
						"codeDepositCost": "2221400",
						"executionCost": "infinite",
						"totalCost": "infinite"
					},
					"external": {
						"DEFAULT_ADMIN_ROLE()": "327",
						"GAME_ADMIN_ROLE()": "infinite",
						"PAUSER_ROLE()": "infinite",
						"UPGRADER_ROLE()": "348",
						"UPGRADE_INTERFACE_VERSION()": "infinite",
						"addItem(string,uint256,uint256,uint256,uint256)": "infinite",
						"addRecipe(uint256[],uint256)": "infinite",
						"completeQuest(string)": "infinite",
						"craftItem(uint256)": "infinite",
						"createGuild(string,address)": "infinite",
						"createPlayer()": "infinite",
						"daoContract()": "2426",
						"erc1155Token()": "2449",
						"erc20Token()": "2381",
						"erc721Token()": "2425",
						"farmingContract()": "2405",
						"getRoleAdmin(bytes32)": "infinite",
						"grantRole(bytes32,address)": "infinite",
						"guilds(address)": "infinite",
						"hasRole(bytes32,address)": "infinite",
						"initialize(address,address,address,address,address,address,address,address,address)": "infinite",
						"items(uint256)": "infinite",
						"joinGuild(string)": "infinite",
						"pause()": "infinite",
						"paused()": "infinite",
						"playerQuests(address,uint256)": "infinite",
						"players(address)": "17589",
						"proxiableUUID()": "infinite",
						"recipes(uint256)": "2509",
						"renounceRole(bytes32,address)": "29183",
						"revokeRole(bytes32,address)": "infinite",
						"setDAOAddress(address)": "infinite",
						"setERC1155Address(address)": "infinite",
						"setERC20Address(address)": "infinite",
						"setERC721Address(address)": "infinite",
						"setFarmingAddress(address)": "infinite",
						"setStakingAddress(address)": "infinite",
						"stakingContract()": "2424",
						"startQuest(string,string,uint256)": "infinite",
						"supportsInterface(bytes4)": "470",
						"unpause()": "infinite",
						"upgradeToAndCall(address,bytes)": "infinite"
					},
					"internal": {
						"_authorizeUpgrade(address)": "infinite"
					}
				},
				"methodIdentifiers": {
					"DEFAULT_ADMIN_ROLE()": "a217fddf",
					"GAME_ADMIN_ROLE()": "be22d27d",
					"PAUSER_ROLE()": "e63ab1e9",
					"UPGRADER_ROLE()": "f72c0d8b",
					"UPGRADE_INTERFACE_VERSION()": "ad3cb1cc",
					"addItem(string,uint256,uint256,uint256,uint256)": "31fee8be",
					"addRecipe(uint256[],uint256)": "a9834b67",
					"completeQuest(string)": "17435e1a",
					"craftItem(uint256)": "7309cbbd",
					"createGuild(string,address)": "4fa4a1bb",
					"createPlayer()": "3fa9fcf8",
					"daoContract()": "4a7ffcbc",
					"erc1155Token()": "21f42268",
					"erc20Token()": "8a13eea7",
					"erc721Token()": "5f2d6bcd",
					"farmingContract()": "02eec568",
					"getRoleAdmin(bytes32)": "248a9ca3",
					"grantRole(bytes32,address)": "2f2ff15d",
					"guilds(address)": "a75859e1",
					"hasRole(bytes32,address)": "91d14854",
					"initialize(address,address,address,address,address,address,address,address,address)": "f5e95acb",
					"items(uint256)": "bfb231d2",
					"joinGuild(string)": "e551ba4b",
					"pause()": "8456cb59",
					"paused()": "5c975abb",
					"playerQuests(address,uint256)": "d3dcff7c",
					"players(address)": "e2eb41ff",
					"proxiableUUID()": "52d1902d",
					"recipes(uint256)": "443c227c",
					"renounceRole(bytes32,address)": "36568abe",
					"revokeRole(bytes32,address)": "d547741f",
					"setDAOAddress(address)": "965afa89",
					"setERC1155Address(address)": "d836fc6f",
					"setERC20Address(address)": "41bec0d2",
					"setERC721Address(address)": "9a03d9a3",
					"setFarmingAddress(address)": "b001f618",
					"setStakingAddress(address)": "f4e0d9ac",
					"stakingContract()": "ee99205c",
					"startQuest(string,string,uint256)": "6f347a78",
					"supportsInterface(bytes4)": "01ffc9a7",
					"unpause()": "3f4ba83a",
					"upgradeToAndCall(address,bytes)": "4f1ef286"
				}
			},
			"storageLayout": {
				"storage": [
					{
						"astId": 1911,
						"contract": "src/smartcontracts/CryptoQuestTheShardsOfGenesisMMORPG.sol:CryptoQuestTheShardsOfGenesisMMPORPG",
						"label": "erc20Token",
						"offset": 0,
						"slot": "0",
						"type": "t_contract(IERC20)1857"
					},
					{
						"astId": 1914,
						"contract": "src/smartcontracts/CryptoQuestTheShardsOfGenesisMMORPG.sol:CryptoQuestTheShardsOfGenesisMMPORPG",
						"label": "erc721Token",
						"offset": 0,
						"slot": "1",
						"type": "t_contract(IERC721)1867"
					},
					{
						"astId": 1917,
						"contract": "src/smartcontracts/CryptoQuestTheShardsOfGenesisMMORPG.sol:CryptoQuestTheShardsOfGenesisMMPORPG",
						"label": "erc1155Token",
						"offset": 0,
						"slot": "2",
						"type": "t_contract(IERC1155)1881"
					},
					{
						"astId": 1920,
						"contract": "src/smartcontracts/CryptoQuestTheShardsOfGenesisMMORPG.sol:CryptoQuestTheShardsOfGenesisMMPORPG",
						"label": "daoContract",
						"offset": 0,
						"slot": "3",
						"type": "t_contract(IDAO)1882"
					},
					{
						"astId": 1923,
						"contract": "src/smartcontracts/CryptoQuestTheShardsOfGenesisMMORPG.sol:CryptoQuestTheShardsOfGenesisMMPORPG",
						"label": "stakingContract",
						"offset": 0,
						"slot": "4",
						"type": "t_contract(IStaking)1883"
					},
					{
						"astId": 1926,
						"contract": "src/smartcontracts/CryptoQuestTheShardsOfGenesisMMORPG.sol:CryptoQuestTheShardsOfGenesisMMPORPG",
						"label": "farmingContract",
						"offset": 0,
						"slot": "5",
						"type": "t_contract(IFarming)1884"
					},
					{
						"astId": 1988,
						"contract": "src/smartcontracts/CryptoQuestTheShardsOfGenesisMMORPG.sol:CryptoQuestTheShardsOfGenesisMMPORPG",
						"label": "nextItemId",
						"offset": 0,
						"slot": "6",
						"type": "t_uint256"
					},
					{
						"astId": 1991,
						"contract": "src/smartcontracts/CryptoQuestTheShardsOfGenesisMMORPG.sol:CryptoQuestTheShardsOfGenesisMMPORPG",
						"label": "nextRecipeId",
						"offset": 0,
						"slot": "7",
						"type": "t_uint256"
					},
					{
						"astId": 1996,
						"contract": "src/smartcontracts/CryptoQuestTheShardsOfGenesisMMORPG.sol:CryptoQuestTheShardsOfGenesisMMPORPG",
						"label": "items",
						"offset": 0,
						"slot": "8",
						"type": "t_mapping(t_uint256,t_struct(Item)1962_storage)"
					},
					{
						"astId": 2001,
						"contract": "src/smartcontracts/CryptoQuestTheShardsOfGenesisMMORPG.sol:CryptoQuestTheShardsOfGenesisMMPORPG",
						"label": "players",
						"offset": 0,
						"slot": "9",
						"type": "t_mapping(t_address,t_struct(Player)1949_storage)"
					},
					{
						"astId": 2007,
						"contract": "src/smartcontracts/CryptoQuestTheShardsOfGenesisMMORPG.sol:CryptoQuestTheShardsOfGenesisMMPORPG",
						"label": "playerQuests",
						"offset": 0,
						"slot": "10",
						"type": "t_mapping(t_address,t_array(t_struct(Quest)1971_storage)dyn_storage)"
					},
					{
						"astId": 2012,
						"contract": "src/smartcontracts/CryptoQuestTheShardsOfGenesisMMORPG.sol:CryptoQuestTheShardsOfGenesisMMPORPG",
						"label": "guilds",
						"offset": 0,
						"slot": "11",
						"type": "t_mapping(t_address,t_struct(Guild)1979_storage)"
					},
					{
						"astId": 2016,
						"contract": "src/smartcontracts/CryptoQuestTheShardsOfGenesisMMORPG.sol:CryptoQuestTheShardsOfGenesisMMPORPG",
						"label": "guildNameToLeader",
						"offset": 0,
						"slot": "12",
						"type": "t_mapping(t_string_memory_ptr,t_address)"
					},
					{
						"astId": 2021,
						"contract": "src/smartcontracts/CryptoQuestTheShardsOfGenesisMMORPG.sol:CryptoQuestTheShardsOfGenesisMMPORPG",
						"label": "recipes",
						"offset": 0,
						"slot": "13",
						"type": "t_mapping(t_uint256,t_struct(Recipe)1985_storage)"
					}
				],
				"types": {
					"t_address": {
						"encoding": "inplace",
						"label": "address",
						"numberOfBytes": "20"
					},
					"t_array(t_address)dyn_storage": {
						"base": "t_address",
						"encoding": "dynamic_array",
						"label": "address[]",
						"numberOfBytes": "32"
					},
					"t_array(t_struct(Quest)1971_storage)dyn_storage": {
						"base": "t_struct(Quest)1971_storage",
						"encoding": "dynamic_array",
						"label": "struct CryptoQuestTheShardsOfGenesisMMPORPG.Quest[]",
						"numberOfBytes": "32"
					},
					"t_array(t_uint256)dyn_storage": {
						"base": "t_uint256",
						"encoding": "dynamic_array",
						"label": "uint256[]",
						"numberOfBytes": "32"
					},
					"t_bool": {
						"encoding": "inplace",
						"label": "bool",
						"numberOfBytes": "1"
					},
					"t_contract(IDAO)1882": {
						"encoding": "inplace",
						"label": "contract IDAO",
						"numberOfBytes": "20"
					},
					"t_contract(IERC1155)1881": {
						"encoding": "inplace",
						"label": "contract IERC1155",
						"numberOfBytes": "20"
					},
					"t_contract(IERC20)1857": {
						"encoding": "inplace",
						"label": "contract IERC20",
						"numberOfBytes": "20"
					},
					"t_contract(IERC721)1867": {
						"encoding": "inplace",
						"label": "contract IERC721",
						"numberOfBytes": "20"
					},
					"t_contract(IFarming)1884": {
						"encoding": "inplace",
						"label": "contract IFarming",
						"numberOfBytes": "20"
					},
					"t_contract(IStaking)1883": {
						"encoding": "inplace",
						"label": "contract IStaking",
						"numberOfBytes": "20"
					},
					"t_mapping(t_address,t_array(t_struct(Quest)1971_storage)dyn_storage)": {
						"encoding": "mapping",
						"key": "t_address",
						"label": "mapping(address => struct CryptoQuestTheShardsOfGenesisMMPORPG.Quest[])",
						"numberOfBytes": "32",
						"value": "t_array(t_struct(Quest)1971_storage)dyn_storage"
					},
					"t_mapping(t_address,t_struct(Guild)1979_storage)": {
						"encoding": "mapping",
						"key": "t_address",
						"label": "mapping(address => struct CryptoQuestTheShardsOfGenesisMMPORPG.Guild)",
						"numberOfBytes": "32",
						"value": "t_struct(Guild)1979_storage"
					},
					"t_mapping(t_address,t_struct(Player)1949_storage)": {
						"encoding": "mapping",
						"key": "t_address",
						"label": "mapping(address => struct CryptoQuestTheShardsOfGenesisMMPORPG.Player)",
						"numberOfBytes": "32",
						"value": "t_struct(Player)1949_storage"
					},
					"t_mapping(t_string_memory_ptr,t_address)": {
						"encoding": "mapping",
						"key": "t_string_memory_ptr",
						"label": "mapping(string => address)",
						"numberOfBytes": "32",
						"value": "t_address"
					},
					"t_mapping(t_uint256,t_struct(Item)1962_storage)": {
						"encoding": "mapping",
						"key": "t_uint256",
						"label": "mapping(uint256 => struct CryptoQuestTheShardsOfGenesisMMPORPG.Item)",
						"numberOfBytes": "32",
						"value": "t_struct(Item)1962_storage"
					},
					"t_mapping(t_uint256,t_struct(Recipe)1985_storage)": {
						"encoding": "mapping",
						"key": "t_uint256",
						"label": "mapping(uint256 => struct CryptoQuestTheShardsOfGenesisMMPORPG.Recipe)",
						"numberOfBytes": "32",
						"value": "t_struct(Recipe)1985_storage"
					},
					"t_string_memory_ptr": {
						"encoding": "bytes",
						"label": "string",
						"numberOfBytes": "32"
					},
					"t_string_storage": {
						"encoding": "bytes",
						"label": "string",
						"numberOfBytes": "32"
					},
					"t_struct(Guild)1979_storage": {
						"encoding": "inplace",
						"label": "struct CryptoQuestTheShardsOfGenesisMMPORPG.Guild",
						"members": [
							{
								"astId": 1973,
								"contract": "src/smartcontracts/CryptoQuestTheShardsOfGenesisMMORPG.sol:CryptoQuestTheShardsOfGenesisMMPORPG",
								"label": "name",
								"offset": 0,
								"slot": "0",
								"type": "t_string_storage"
							},
							{
								"astId": 1975,
								"contract": "src/smartcontracts/CryptoQuestTheShardsOfGenesisMMORPG.sol:CryptoQuestTheShardsOfGenesisMMPORPG",
								"label": "leader",
								"offset": 0,
								"slot": "1",
								"type": "t_address"
							},
							{
								"astId": 1978,
								"contract": "src/smartcontracts/CryptoQuestTheShardsOfGenesisMMORPG.sol:CryptoQuestTheShardsOfGenesisMMPORPG",
								"label": "members",
								"offset": 0,
								"slot": "2",
								"type": "t_array(t_address)dyn_storage"
							}
						],
						"numberOfBytes": "96"
					},
					"t_struct(Item)1962_storage": {
						"encoding": "inplace",
						"label": "struct CryptoQuestTheShardsOfGenesisMMPORPG.Item",
						"members": [
							{
								"astId": 1951,
								"contract": "src/smartcontracts/CryptoQuestTheShardsOfGenesisMMORPG.sol:CryptoQuestTheShardsOfGenesisMMPORPG",
								"label": "id",
								"offset": 0,
								"slot": "0",
								"type": "t_uint256"
							},
							{
								"astId": 1953,
								"contract": "src/smartcontracts/CryptoQuestTheShardsOfGenesisMMORPG.sol:CryptoQuestTheShardsOfGenesisMMPORPG",
								"label": "name",
								"offset": 0,
								"slot": "1",
								"type": "t_string_storage"
							},
							{
								"astId": 1955,
								"contract": "src/smartcontracts/CryptoQuestTheShardsOfGenesisMMORPG.sol:CryptoQuestTheShardsOfGenesisMMPORPG",
								"label": "attackBonus",
								"offset": 0,
								"slot": "2",
								"type": "t_uint256"
							},
							{
								"astId": 1957,
								"contract": "src/smartcontracts/CryptoQuestTheShardsOfGenesisMMORPG.sol:CryptoQuestTheShardsOfGenesisMMPORPG",
								"label": "defenseBonus",
								"offset": 0,
								"slot": "3",
								"type": "t_uint256"
							},
							{
								"astId": 1959,
								"contract": "src/smartcontracts/CryptoQuestTheShardsOfGenesisMMORPG.sol:CryptoQuestTheShardsOfGenesisMMPORPG",
								"label": "manaBonus",
								"offset": 0,
								"slot": "4",
								"type": "t_uint256"
							},
							{
								"astId": 1961,
								"contract": "src/smartcontracts/CryptoQuestTheShardsOfGenesisMMORPG.sol:CryptoQuestTheShardsOfGenesisMMPORPG",
								"label": "healthBonus",
								"offset": 0,
								"slot": "5",
								"type": "t_uint256"
							}
						],
						"numberOfBytes": "192"
					},
					"t_struct(Player)1949_storage": {
						"encoding": "inplace",
						"label": "struct CryptoQuestTheShardsOfGenesisMMPORPG.Player",
						"members": [
							{
								"astId": 1928,
								"contract": "src/smartcontracts/CryptoQuestTheShardsOfGenesisMMORPG.sol:CryptoQuestTheShardsOfGenesisMMPORPG",
								"label": "level",
								"offset": 0,
								"slot": "0",
								"type": "t_uint256"
							},
							{
								"astId": 1930,
								"contract": "src/smartcontracts/CryptoQuestTheShardsOfGenesisMMORPG.sol:CryptoQuestTheShardsOfGenesisMMPORPG",
								"label": "experience",
								"offset": 0,
								"slot": "1",
								"type": "t_uint256"
							},
							{
								"astId": 1932,
								"contract": "src/smartcontracts/CryptoQuestTheShardsOfGenesisMMORPG.sol:CryptoQuestTheShardsOfGenesisMMPORPG",
								"label": "health",
								"offset": 0,
								"slot": "2",
								"type": "t_uint256"
							},
							{
								"astId": 1934,
								"contract": "src/smartcontracts/CryptoQuestTheShardsOfGenesisMMORPG.sol:CryptoQuestTheShardsOfGenesisMMPORPG",
								"label": "mana",
								"offset": 0,
								"slot": "3",
								"type": "t_uint256"
							},
							{
								"astId": 1936,
								"contract": "src/smartcontracts/CryptoQuestTheShardsOfGenesisMMORPG.sol:CryptoQuestTheShardsOfGenesisMMPORPG",
								"label": "attackDamage",
								"offset": 0,
								"slot": "4",
								"type": "t_uint256"
							},
							{
								"astId": 1938,
								"contract": "src/smartcontracts/CryptoQuestTheShardsOfGenesisMMORPG.sol:CryptoQuestTheShardsOfGenesisMMPORPG",
								"label": "defense",
								"offset": 0,
								"slot": "5",
								"type": "t_uint256"
							},
							{
								"astId": 1940,
								"contract": "src/smartcontracts/CryptoQuestTheShardsOfGenesisMMORPG.sol:CryptoQuestTheShardsOfGenesisMMPORPG",
								"label": "agility",
								"offset": 0,
								"slot": "6",
								"type": "t_uint256"
							},
							{
								"astId": 1942,
								"contract": "src/smartcontracts/CryptoQuestTheShardsOfGenesisMMORPG.sol:CryptoQuestTheShardsOfGenesisMMPORPG",
								"label": "luck",
								"offset": 0,
								"slot": "7",
								"type": "t_uint256"
							},
							{
								"astId": 1945,
								"contract": "src/smartcontracts/CryptoQuestTheShardsOfGenesisMMORPG.sol:CryptoQuestTheShardsOfGenesisMMPORPG",
								"label": "inventory",
								"offset": 0,
								"slot": "8",
								"type": "t_array(t_uint256)dyn_storage"
							},
							{
								"astId": 1948,
								"contract": "src/smartcontracts/CryptoQuestTheShardsOfGenesisMMORPG.sol:CryptoQuestTheShardsOfGenesisMMPORPG",
								"label": "skills",
								"offset": 0,
								"slot": "9",
								"type": "t_array(t_uint256)dyn_storage"
							}
						],
						"numberOfBytes": "320"
					},
					"t_struct(Quest)1971_storage": {
						"encoding": "inplace",
						"label": "struct CryptoQuestTheShardsOfGenesisMMPORPG.Quest",
						"members": [
							{
								"astId": 1964,
								"contract": "src/smartcontracts/CryptoQuestTheShardsOfGenesisMMORPG.sol:CryptoQuestTheShardsOfGenesisMMPORPG",
								"label": "title",
								"offset": 0,
								"slot": "0",
								"type": "t_string_storage"
							},
							{
								"astId": 1966,
								"contract": "src/smartcontracts/CryptoQuestTheShardsOfGenesisMMORPG.sol:CryptoQuestTheShardsOfGenesisMMPORPG",
								"label": "description",
								"offset": 0,
								"slot": "1",
								"type": "t_string_storage"
							},
							{
								"astId": 1968,
								"contract": "src/smartcontracts/CryptoQuestTheShardsOfGenesisMMORPG.sol:CryptoQuestTheShardsOfGenesisMMPORPG",
								"label": "rewardXP",
								"offset": 0,
								"slot": "2",
								"type": "t_uint256"
							},
							{
								"astId": 1970,
								"contract": "src/smartcontracts/CryptoQuestTheShardsOfGenesisMMORPG.sol:CryptoQuestTheShardsOfGenesisMMPORPG",
								"label": "completed",
								"offset": 0,
								"slot": "3",
								"type": "t_bool"
							}
						],
						"numberOfBytes": "128"
					},
					"t_struct(Recipe)1985_storage": {
						"encoding": "inplace",
						"label": "struct CryptoQuestTheShardsOfGenesisMMPORPG.Recipe",
						"members": [
							{
								"astId": 1982,
								"contract": "src/smartcontracts/CryptoQuestTheShardsOfGenesisMMORPG.sol:CryptoQuestTheShardsOfGenesisMMPORPG",
								"label": "itemIds",
								"offset": 0,
								"slot": "0",
								"type": "t_array(t_uint256)dyn_storage"
							},
							{
								"astId": 1984,
								"contract": "src/smartcontracts/CryptoQuestTheShardsOfGenesisMMORPG.sol:CryptoQuestTheShardsOfGenesisMMPORPG",
								"label": "resultItemId",
								"offset": 0,
								"slot": "1",
								"type": "t_uint256"
							}
						],
						"numberOfBytes": "64"
					},
					"t_uint256": {
						"encoding": "inplace",
						"label": "uint256",
						"numberOfBytes": "32"
					}
				}
			},
			"userdoc": {
				"kind": "user",
				"methods": {},
				"version": 1
			}
		}
	}
}