{
	"src/smartcontracts/CQTTokenSaleContractsol.sol": {
		"CQTTokenSaleContract": {
			"abi": [
				{
					"inputs": [],
					"stateMutability": "nonpayable",
					"type": "constructor"
				},
				{
					"inputs": [],
					"name": "AccessControlBadConfirmation",
					"type": "error"
				},
				{
					"inputs": [
						{
							"internalType": "address",
							"name": "account",
							"type": "address"
						},
						{
							"internalType": "bytes32",
							"name": "neededRole",
							"type": "bytes32"
						}
					],
					"name": "AccessControlUnauthorizedAccount",
					"type": "error"
				},
				{
					"inputs": [
						{
							"internalType": "address",
							"name": "target",
							"type": "address"
						}
					],
					"name": "AddressEmptyCode",
					"type": "error"
				},
				{
					"inputs": [
						{
							"internalType": "address",
							"name": "implementation",
							"type": "address"
						}
					],
					"name": "ERC1967InvalidImplementation",
					"type": "error"
				},
				{
					"inputs": [],
					"name": "ERC1967NonPayable",
					"type": "error"
				},
				{
					"inputs": [],
					"name": "EnforcedPause",
					"type": "error"
				},
				{
					"inputs": [],
					"name": "ExpectedPause",
					"type": "error"
				},
				{
					"inputs": [],
					"name": "FailedInnerCall",
					"type": "error"
				},
				{
					"inputs": [],
					"name": "InvalidInitialization",
					"type": "error"
				},
				{
					"inputs": [],
					"name": "NotInitializing",
					"type": "error"
				},
				{
					"inputs": [],
					"name": "UUPSUnauthorizedCallContext",
					"type": "error"
				},
				{
					"inputs": [
						{
							"internalType": "bytes32",
							"name": "slot",
							"type": "bytes32"
						}
					],
					"name": "UUPSUnsupportedProxiableUUID",
					"type": "error"
				},
				{
					"anonymous": false,
					"inputs": [
						{
							"indexed": true,
							"internalType": "address",
							"name": "addr",
							"type": "address"
						}
					],
					"name": "AddressRemovedFromWhitelist",
					"type": "event"
				},
				{
					"anonymous": false,
					"inputs": [
						{
							"indexed": true,
							"internalType": "address",
							"name": "addr",
							"type": "address"
						}
					],
					"name": "AddressWhitelisted",
					"type": "event"
				},
				{
					"anonymous": false,
					"inputs": [
						{
							"indexed": false,
							"internalType": "address",
							"name": "account",
							"type": "address"
						}
					],
					"name": "CommunityMemberAdded",
					"type": "event"
				},
				{
					"anonymous": false,
					"inputs": [
						{
							"indexed": false,
							"internalType": "address",
							"name": "account",
							"type": "address"
						}
					],
					"name": "CommunityMemberRemoved",
					"type": "event"
				},
				{
					"anonymous": false,
					"inputs": [
						{
							"indexed": false,
							"internalType": "address",
							"name": "recipient",
							"type": "address"
						},
						{
							"indexed": false,
							"internalType": "uint256",
							"name": "amount",
							"type": "uint256"
						}
					],
					"name": "FundsWithdrawn",
					"type": "event"
				},
				{
					"anonymous": false,
					"inputs": [
						{
							"indexed": false,
							"internalType": "uint64",
							"name": "version",
							"type": "uint64"
						}
					],
					"name": "Initialized",
					"type": "event"
				},
				{
					"anonymous": false,
					"inputs": [
						{
							"indexed": false,
							"internalType": "address",
							"name": "account",
							"type": "address"
						}
					],
					"name": "InvestorAdded",
					"type": "event"
				},
				{
					"anonymous": false,
					"inputs": [
						{
							"indexed": false,
							"internalType": "address",
							"name": "account",
							"type": "address"
						}
					],
					"name": "InvestorRemoved",
					"type": "event"
				},
				{
					"anonymous": false,
					"inputs": [
						{
							"indexed": false,
							"internalType": "address",
							"name": "account",
							"type": "address"
						}
					],
					"name": "Paused",
					"type": "event"
				},
				{
					"anonymous": false,
					"inputs": [
						{
							"indexed": true,
							"internalType": "bytes32",
							"name": "role",
							"type": "bytes32"
						},
						{
							"indexed": true,
							"internalType": "bytes32",
							"name": "previousAdminRole",
							"type": "bytes32"
						},
						{
							"indexed": true,
							"internalType": "bytes32",
							"name": "newAdminRole",
							"type": "bytes32"
						}
					],
					"name": "RoleAdminChanged",
					"type": "event"
				},
				{
					"anonymous": false,
					"inputs": [
						{
							"indexed": true,
							"internalType": "bytes32",
							"name": "role",
							"type": "bytes32"
						},
						{
							"indexed": true,
							"internalType": "address",
							"name": "account",
							"type": "address"
						},
						{
							"indexed": true,
							"internalType": "address",
							"name": "sender",
							"type": "address"
						}
					],
					"name": "RoleGranted",
					"type": "event"
				},
				{
					"anonymous": false,
					"inputs": [
						{
							"indexed": true,
							"internalType": "bytes32",
							"name": "role",
							"type": "bytes32"
						},
						{
							"indexed": true,
							"internalType": "address",
							"name": "account",
							"type": "address"
						},
						{
							"indexed": true,
							"internalType": "address",
							"name": "sender",
							"type": "address"
						}
					],
					"name": "RoleRevoked",
					"type": "event"
				},
				{
					"anonymous": false,
					"inputs": [
						{
							"indexed": false,
							"internalType": "uint256",
							"name": "newPrice",
							"type": "uint256"
						},
						{
							"indexed": false,
							"internalType": "string",
							"name": "role",
							"type": "string"
						}
					],
					"name": "TokenPriceUpdated",
					"type": "event"
				},
				{
					"anonymous": false,
					"inputs": [
						{
							"indexed": true,
							"internalType": "address",
							"name": "purchaser",
							"type": "address"
						},
						{
							"indexed": false,
							"internalType": "uint256",
							"name": "amount",
							"type": "uint256"
						}
					],
					"name": "TokensPurchased",
					"type": "event"
				},
				{
					"anonymous": false,
					"inputs": [
						{
							"indexed": false,
							"internalType": "address",
							"name": "beneficiary",
							"type": "address"
						},
						{
							"indexed": false,
							"internalType": "uint256",
							"name": "amount",
							"type": "uint256"
						}
					],
					"name": "TokensReleased",
					"type": "event"
				},
				{
					"anonymous": false,
					"inputs": [
						{
							"indexed": false,
							"internalType": "uint256",
							"name": "newCap",
							"type": "uint256"
						}
					],
					"name": "TotalCapUpdated",
					"type": "event"
				},
				{
					"anonymous": false,
					"inputs": [
						{
							"indexed": false,
							"internalType": "address",
							"name": "account",
							"type": "address"
						}
					],
					"name": "Unpaused",
					"type": "event"
				},
				{
					"anonymous": false,
					"inputs": [
						{
							"indexed": true,
							"internalType": "address",
							"name": "implementation",
							"type": "address"
						}
					],
					"name": "Upgraded",
					"type": "event"
				},
				{
					"inputs": [],
					"name": "COMMUNITY_MEMBER_ROLE",
					"outputs": [
						{
							"internalType": "bytes32",
							"name": "",
							"type": "bytes32"
						}
					],
					"stateMutability": "view",
					"type": "function"
				},
				{
					"inputs": [],
					"name": "DEFAULT_ADMIN_ROLE",
					"outputs": [
						{
							"internalType": "bytes32",
							"name": "",
							"type": "bytes32"
						}
					],
					"stateMutability": "view",
					"type": "function"
				},
				{
					"inputs": [],
					"name": "INVESTOR_ROLE",
					"outputs": [
						{
							"internalType": "bytes32",
							"name": "",
							"type": "bytes32"
						}
					],
					"stateMutability": "view",
					"type": "function"
				},
				{
					"inputs": [],
					"name": "PAUSER_ROLE",
					"outputs": [
						{
							"internalType": "bytes32",
							"name": "",
							"type": "bytes32"
						}
					],
					"stateMutability": "view",
					"type": "function"
				},
				{
					"inputs": [],
					"name": "UPGRADER_ROLE",
					"outputs": [
						{
							"internalType": "bytes32",
							"name": "",
							"type": "bytes32"
						}
					],
					"stateMutability": "view",
					"type": "function"
				},
				{
					"inputs": [],
					"name": "UPGRADE_INTERFACE_VERSION",
					"outputs": [
						{
							"internalType": "string",
							"name": "",
							"type": "string"
						}
					],
					"stateMutability": "view",
					"type": "function"
				},
				{
					"inputs": [
						{
							"internalType": "address",
							"name": "addr",
							"type": "address"
						}
					],
					"name": "addAddressToWhitelist",
					"outputs": [],
					"stateMutability": "nonpayable",
					"type": "function"
				},
				{
					"inputs": [
						{
							"internalType": "address",
							"name": "account",
							"type": "address"
						}
					],
					"name": "addCommunityMember",
					"outputs": [],
					"stateMutability": "nonpayable",
					"type": "function"
				},
				{
					"inputs": [
						{
							"internalType": "address",
							"name": "account",
							"type": "address"
						}
					],
					"name": "addInvestor",
					"outputs": [],
					"stateMutability": "nonpayable",
					"type": "function"
				},
				{
					"inputs": [
						{
							"internalType": "uint256",
							"name": "_amount",
							"type": "uint256"
						}
					],
					"name": "buyTokens",
					"outputs": [],
					"stateMutability": "payable",
					"type": "function"
				},
				{
					"inputs": [],
					"name": "founder",
					"outputs": [
						{
							"internalType": "address",
							"name": "",
							"type": "address"
						}
					],
					"stateMutability": "view",
					"type": "function"
				},
				{
					"inputs": [
						{
							"internalType": "bytes32",
							"name": "role",
							"type": "bytes32"
						}
					],
					"name": "getRoleAdmin",
					"outputs": [
						{
							"internalType": "bytes32",
							"name": "",
							"type": "bytes32"
						}
					],
					"stateMutability": "view",
					"type": "function"
				},
				{
					"inputs": [
						{
							"internalType": "bytes32",
							"name": "role",
							"type": "bytes32"
						},
						{
							"internalType": "address",
							"name": "account",
							"type": "address"
						}
					],
					"name": "grantRole",
					"outputs": [],
					"stateMutability": "nonpayable",
					"type": "function"
				},
				{
					"inputs": [
						{
							"internalType": "bytes32",
							"name": "role",
							"type": "bytes32"
						},
						{
							"internalType": "address",
							"name": "account",
							"type": "address"
						}
					],
					"name": "hasRole",
					"outputs": [
						{
							"internalType": "bool",
							"name": "",
							"type": "bool"
						}
					],
					"stateMutability": "view",
					"type": "function"
				},
				{
					"inputs": [
						{
							"internalType": "address",
							"name": "defaultAdmin",
							"type": "address"
						},
						{
							"internalType": "address",
							"name": "pauser",
							"type": "address"
						},
						{
							"internalType": "address",
							"name": "upgrader",
							"type": "address"
						},
						{
							"internalType": "address",
							"name": "_tokenAddress",
							"type": "address"
						},
						{
							"internalType": "address",
							"name": "_proxyAddress",
							"type": "address"
						},
						{
							"internalType": "uint256",
							"name": "_tokenPriceInvestor",
							"type": "uint256"
						},
						{
							"internalType": "uint256",
							"name": "_tokenPriceCommunity",
							"type": "uint256"
						},
						{
							"internalType": "uint256",
							"name": "_tokenPricePublic",
							"type": "uint256"
						},
						{
							"internalType": "uint256",
							"name": "_totalCap",
							"type": "uint256"
						},
						{
							"internalType": "uint256",
							"name": "_releaseTime",
							"type": "uint256"
						}
					],
					"name": "initialize",
					"outputs": [],
					"stateMutability": "nonpayable",
					"type": "function"
				},
				{
					"inputs": [],
					"name": "pause",
					"outputs": [],
					"stateMutability": "nonpayable",
					"type": "function"
				},
				{
					"inputs": [],
					"name": "paused",
					"outputs": [
						{
							"internalType": "bool",
							"name": "",
							"type": "bool"
						}
					],
					"stateMutability": "view",
					"type": "function"
				},
				{
					"inputs": [],
					"name": "proxiableUUID",
					"outputs": [
						{
							"internalType": "bytes32",
							"name": "",
							"type": "bytes32"
						}
					],
					"stateMutability": "view",
					"type": "function"
				},
				{
					"inputs": [],
					"name": "proxyAddress",
					"outputs": [
						{
							"internalType": "address",
							"name": "",
							"type": "address"
						}
					],
					"stateMutability": "view",
					"type": "function"
				},
				{
					"inputs": [
						{
							"internalType": "address",
							"name": "",
							"type": "address"
						}
					],
					"name": "purchasedAmount",
					"outputs": [
						{
							"internalType": "uint256",
							"name": "",
							"type": "uint256"
						}
					],
					"stateMutability": "view",
					"type": "function"
				},
				{
					"inputs": [],
					"name": "releaseTime",
					"outputs": [
						{
							"internalType": "uint256",
							"name": "",
							"type": "uint256"
						}
					],
					"stateMutability": "view",
					"type": "function"
				},
				{
					"inputs": [],
					"name": "releaseTokens",
					"outputs": [],
					"stateMutability": "nonpayable",
					"type": "function"
				},
				{
					"inputs": [
						{
							"internalType": "address",
							"name": "addr",
							"type": "address"
						}
					],
					"name": "removeAddressFromWhitelist",
					"outputs": [],
					"stateMutability": "nonpayable",
					"type": "function"
				},
				{
					"inputs": [
						{
							"internalType": "address",
							"name": "account",
							"type": "address"
						}
					],
					"name": "removeCommunityMember",
					"outputs": [],
					"stateMutability": "nonpayable",
					"type": "function"
				},
				{
					"inputs": [
						{
							"internalType": "address",
							"name": "account",
							"type": "address"
						}
					],
					"name": "removeInvestor",
					"outputs": [],
					"stateMutability": "nonpayable",
					"type": "function"
				},
				{
					"inputs": [
						{
							"internalType": "bytes32",
							"name": "role",
							"type": "bytes32"
						},
						{
							"internalType": "address",
							"name": "callerConfirmation",
							"type": "address"
						}
					],
					"name": "renounceRole",
					"outputs": [],
					"stateMutability": "nonpayable",
					"type": "function"
				},
				{
					"inputs": [
						{
							"internalType": "bytes32",
							"name": "role",
							"type": "bytes32"
						},
						{
							"internalType": "address",
							"name": "account",
							"type": "address"
						}
					],
					"name": "revokeRole",
					"outputs": [],
					"stateMutability": "nonpayable",
					"type": "function"
				},
				{
					"inputs": [
						{
							"internalType": "uint256",
							"name": "_newPrice",
							"type": "uint256"
						},
						{
							"internalType": "string",
							"name": "role",
							"type": "string"
						}
					],
					"name": "setTokenPrice",
					"outputs": [],
					"stateMutability": "nonpayable",
					"type": "function"
				},
				{
					"inputs": [
						{
							"internalType": "uint256",
							"name": "_newCap",
							"type": "uint256"
						}
					],
					"name": "setTotalCap",
					"outputs": [],
					"stateMutability": "nonpayable",
					"type": "function"
				},
				{
					"inputs": [
						{
							"internalType": "bytes4",
							"name": "interfaceId",
							"type": "bytes4"
						}
					],
					"name": "supportsInterface",
					"outputs": [
						{
							"internalType": "bool",
							"name": "",
							"type": "bool"
						}
					],
					"stateMutability": "view",
					"type": "function"
				},
				{
					"inputs": [],
					"name": "token",
					"outputs": [
						{
							"internalType": "contract IERC20",
							"name": "",
							"type": "address"
						}
					],
					"stateMutability": "view",
					"type": "function"
				},
				{
					"inputs": [],
					"name": "tokenPriceCommunity",
					"outputs": [
						{
							"internalType": "uint256",
							"name": "",
							"type": "uint256"
						}
					],
					"stateMutability": "view",
					"type": "function"
				},
				{
					"inputs": [],
					"name": "tokenPriceInvestor",
					"outputs": [
						{
							"internalType": "uint256",
							"name": "",
							"type": "uint256"
						}
					],
					"stateMutability": "view",
					"type": "function"
				},
				{
					"inputs": [],
					"name": "tokenPricePublic",
					"outputs": [
						{
							"internalType": "uint256",
							"name": "",
							"type": "uint256"
						}
					],
					"stateMutability": "view",
					"type": "function"
				},
				{
					"inputs": [],
					"name": "totalCap",
					"outputs": [
						{
							"internalType": "uint256",
							"name": "",
							"type": "uint256"
						}
					],
					"stateMutability": "view",
					"type": "function"
				},
				{
					"inputs": [],
					"name": "unpause",
					"outputs": [],
					"stateMutability": "nonpayable",
					"type": "function"
				},
				{
					"inputs": [
						{
							"internalType": "address",
							"name": "newImplementation",
							"type": "address"
						},
						{
							"internalType": "bytes",
							"name": "data",
							"type": "bytes"
						}
					],
					"name": "upgradeToAndCall",
					"outputs": [],
					"stateMutability": "payable",
					"type": "function"
				},
				{
					"inputs": [
						{
							"internalType": "address",
							"name": "",
							"type": "address"
						}
					],
					"name": "vestedAmount",
					"outputs": [
						{
							"internalType": "uint256",
							"name": "",
							"type": "uint256"
						}
					],
					"stateMutability": "view",
					"type": "function"
				},
				{
					"inputs": [
						{
							"internalType": "address",
							"name": "",
							"type": "address"
						}
					],
					"name": "whitelistedAddresses",
					"outputs": [
						{
							"internalType": "bool",
							"name": "",
							"type": "bool"
						}
					],
					"stateMutability": "view",
					"type": "function"
				},
				{
					"inputs": [],
					"name": "withdraw",
					"outputs": [],
					"stateMutability": "nonpayable",
					"type": "function"
				}
			],
			"devdoc": {
				"errors": {
					"AccessControlBadConfirmation()": [
						{
							"details": "The caller of a function is not the expected one. NOTE: Don't confuse with {AccessControlUnauthorizedAccount}."
						}
					],
					"AccessControlUnauthorizedAccount(address,bytes32)": [
						{
							"details": "The `account` is missing a role."
						}
					],
					"AddressEmptyCode(address)": [
						{
							"details": "There's no code at `target` (it is not a contract)."
						}
					],
					"ERC1967InvalidImplementation(address)": [
						{
							"details": "The `implementation` of the proxy is invalid."
						}
					],
					"ERC1967NonPayable()": [
						{
							"details": "An upgrade function sees `msg.value > 0` that may be lost."
						}
					],
					"EnforcedPause()": [
						{
							"details": "The operation failed because the contract is paused."
						}
					],
					"ExpectedPause()": [
						{
							"details": "The operation failed because the contract is not paused."
						}
					],
					"FailedInnerCall()": [
						{
							"details": "A call to an address target failed. The target may have reverted."
						}
					],
					"InvalidInitialization()": [
						{
							"details": "The contract is already initialized."
						}
					],
					"NotInitializing()": [
						{
							"details": "The contract is not initializing."
						}
					],
					"UUPSUnauthorizedCallContext()": [
						{
							"details": "The call is from an unauthorized context."
						}
					],
					"UUPSUnsupportedProxiableUUID(bytes32)": [
						{
							"details": "The storage `slot` is unsupported as a UUID."
						}
					]
				},
				"events": {
					"Initialized(uint64)": {
						"details": "Triggered when the contract has been initialized or reinitialized."
					},
					"Paused(address)": {
						"details": "Emitted when the pause is triggered by `account`."
					},
					"RoleAdminChanged(bytes32,bytes32,bytes32)": {
						"details": "Emitted when `newAdminRole` is set as ``role``'s admin role, replacing `previousAdminRole` `DEFAULT_ADMIN_ROLE` is the starting admin for all roles, despite {RoleAdminChanged} not being emitted signaling this."
					},
					"RoleGranted(bytes32,address,address)": {
						"details": "Emitted when `account` is granted `role`. `sender` is the account that originated the contract call, an admin role bearer except when using {AccessControl-_setupRole}."
					},
					"RoleRevoked(bytes32,address,address)": {
						"details": "Emitted when `account` is revoked `role`. `sender` is the account that originated the contract call:   - if using `revokeRole`, it is the admin role bearer   - if using `renounceRole`, it is the role bearer (i.e. `account`)"
					},
					"Unpaused(address)": {
						"details": "Emitted when the pause is lifted by `account`."
					},
					"Upgraded(address)": {
						"details": "Emitted when the implementation is upgraded."
					}
				},
				"kind": "dev",
				"methods": {
					"constructor": {
						"custom:oz-upgrades-unsafe-allow": "constructor"
					},
					"getRoleAdmin(bytes32)": {
						"details": "Returns the admin role that controls `role`. See {grantRole} and {revokeRole}. To change a role's admin, use {_setRoleAdmin}."
					},
					"grantRole(bytes32,address)": {
						"details": "Grants `role` to `account`. If `account` had not been already granted `role`, emits a {RoleGranted} event. Requirements: - the caller must have ``role``'s admin role. May emit a {RoleGranted} event."
					},
					"hasRole(bytes32,address)": {
						"details": "Returns `true` if `account` has been granted `role`."
					},
					"paused()": {
						"details": "Returns true if the contract is paused, and false otherwise."
					},
					"proxiableUUID()": {
						"details": "Implementation of the ERC1822 {proxiableUUID} function. This returns the storage slot used by the implementation. It is used to validate the implementation's compatibility when performing an upgrade. IMPORTANT: A proxy pointing at a proxiable contract should not be considered proxiable itself, because this risks bricking a proxy that upgrades to it, by delegating to itself until out of gas. Thus it is critical that this function revert if invoked through a proxy. This is guaranteed by the `notDelegated` modifier."
					},
					"renounceRole(bytes32,address)": {
						"details": "Revokes `role` from the calling account. Roles are often managed via {grantRole} and {revokeRole}: this function's purpose is to provide a mechanism for accounts to lose their privileges if they are compromised (such as when a trusted device is misplaced). If the calling account had been revoked `role`, emits a {RoleRevoked} event. Requirements: - the caller must be `callerConfirmation`. May emit a {RoleRevoked} event."
					},
					"revokeRole(bytes32,address)": {
						"details": "Revokes `role` from `account`. If `account` had been granted `role`, emits a {RoleRevoked} event. Requirements: - the caller must have ``role``'s admin role. May emit a {RoleRevoked} event."
					},
					"supportsInterface(bytes4)": {
						"details": "See {IERC165-supportsInterface}."
					},
					"upgradeToAndCall(address,bytes)": {
						"custom:oz-upgrades-unsafe-allow-reachable": "delegatecall",
						"details": "Upgrade the implementation of the proxy to `newImplementation`, and subsequently execute the function call encoded in `data`. Calls {_authorizeUpgrade}. Emits an {Upgraded} event."
					}
				},
				"version": 1
			},
			"evm": {
				"assembly": "    /* \"src/smartcontracts/CQTTokenSaleContractsol.sol\":614:6981  contract CQTTokenSaleContract is Initializable, PausableUpgradeable, AccessControlUpgradeable, UUPSUpgradeable {... */\n  mstore(0x40, 0xa0)\n    /* \"@openzeppelin/contracts-upgradeable/proxy/utils/UUPSUpgradeable.sol\":1171:1175  this */\n  address\n    /* \"@openzeppelin/contracts-upgradeable/proxy/utils/UUPSUpgradeable.sol\":1128:1176  address private immutable __self = address(this) */\n  0xffffffffffffffffffffffffffffffffffffffff\n  and\n  0x80\n  swap1\n  0xffffffffffffffffffffffffffffffffffffffff\n  and\n  dup2\n  mstore\n  pop\n    /* \"src/smartcontracts/CQTTokenSaleContractsol.sol\":2144:2199  constructor() {... */\n  callvalue\n  dup1\n  iszero\n  tag_1\n  jumpi\n  0x00\n  dup1\n  revert\ntag_1:\n  pop\n    /* \"src/smartcontracts/CQTTokenSaleContractsol.sol\":2169:2191  _disableInitializers() */\n  tag_4\n    /* \"src/smartcontracts/CQTTokenSaleContractsol.sol\":2169:2189  _disableInitializers */\n  shl(0x20, tag_5)\n    /* \"src/smartcontracts/CQTTokenSaleContractsol.sol\":2169:2191  _disableInitializers() */\n  0x20\n  shr\n  jump\t// in\ntag_4:\n    /* \"src/smartcontracts/CQTTokenSaleContractsol.sol\":614:6981  contract CQTTokenSaleContract is Initializable, PausableUpgradeable, AccessControlUpgradeable, UUPSUpgradeable {... */\n  jump(tag_6)\n    /* \"@openzeppelin/contracts-upgradeable/proxy/utils/Initializable.sol\":7711:8133  function _disableInitializers() internal virtual {... */\ntag_5:\n    /* \"@openzeppelin/contracts-upgradeable/proxy/utils/Initializable.sol\":7826:7856  InitializableStorage storage $ */\n  0x00\n    /* \"@openzeppelin/contracts-upgradeable/proxy/utils/Initializable.sol\":7859:7885  _getInitializableStorage() */\n  tag_8\n    /* \"@openzeppelin/contracts-upgradeable/proxy/utils/Initializable.sol\":7859:7883  _getInitializableStorage */\n  shl(0x20, tag_9)\n    /* \"@openzeppelin/contracts-upgradeable/proxy/utils/Initializable.sol\":7859:7885  _getInitializableStorage() */\n  0x20\n  shr\n  jump\t// in\ntag_8:\n    /* \"@openzeppelin/contracts-upgradeable/proxy/utils/Initializable.sol\":7826:7885  InitializableStorage storage $ = _getInitializableStorage() */\n  swap1\n  pop\n    /* \"@openzeppelin/contracts-upgradeable/proxy/utils/Initializable.sol\":7900:7901  $ */\n  dup1\n    /* \"@openzeppelin/contracts-upgradeable/proxy/utils/Initializable.sol\":7900:7915  $._initializing */\n  0x00\n  add\n  0x08\n  swap1\n  sload\n  swap1\n  0x0100\n  exp\n  swap1\n  div\n  0xff\n  and\n    /* \"@openzeppelin/contracts-upgradeable/proxy/utils/Initializable.sol\":7896:7972  if ($._initializing) {... */\n  iszero\n  tag_10\n  jumpi\n    /* \"@openzeppelin/contracts-upgradeable/proxy/utils/Initializable.sol\":7938:7961  InvalidInitialization() */\n  mload(0x40)\n  0xf92ee8a900000000000000000000000000000000000000000000000000000000\n  dup2\n  mstore\n  0x04\n  add\n  mload(0x40)\n  dup1\n  swap2\n  sub\n  swap1\n  revert\n    /* \"@openzeppelin/contracts-upgradeable/proxy/utils/Initializable.sol\":7896:7972  if ($._initializing) {... */\ntag_10:\n    /* \"@openzeppelin/contracts-upgradeable/proxy/utils/Initializable.sol\":8003:8019  type(uint64).max */\n  0xffffffffffffffff\n    /* \"@openzeppelin/contracts-upgradeable/proxy/utils/Initializable.sol\":7985:8019  $._initialized != type(uint64).max */\n  dup1\n  and\n    /* \"@openzeppelin/contracts-upgradeable/proxy/utils/Initializable.sol\":7985:7986  $ */\n  dup2\n    /* \"@openzeppelin/contracts-upgradeable/proxy/utils/Initializable.sol\":7985:7999  $._initialized */\n  0x00\n  add\n  0x00\n  swap1\n  sload\n  swap1\n  0x0100\n  exp\n  swap1\n  div\n  0xffffffffffffffff\n  and\n    /* \"@openzeppelin/contracts-upgradeable/proxy/utils/Initializable.sol\":7985:8019  $._initialized != type(uint64).max */\n  0xffffffffffffffff\n  and\n  eq\n    /* \"@openzeppelin/contracts-upgradeable/proxy/utils/Initializable.sol\":7981:8127  if ($._initialized != type(uint64).max) {... */\n  tag_11\n  jumpi\n    /* \"@openzeppelin/contracts-upgradeable/proxy/utils/Initializable.sol\":8052:8068  type(uint64).max */\n  0xffffffffffffffff\n    /* \"@openzeppelin/contracts-upgradeable/proxy/utils/Initializable.sol\":8035:8036  $ */\n  dup2\n    /* \"@openzeppelin/contracts-upgradeable/proxy/utils/Initializable.sol\":8035:8049  $._initialized */\n  0x00\n  add\n  0x00\n    /* \"@openzeppelin/contracts-upgradeable/proxy/utils/Initializable.sol\":8035:8068  $._initialized = type(uint64).max */\n  0x0100\n  exp\n  dup2\n  sload\n  dup2\n  0xffffffffffffffff\n  mul\n  not\n  and\n  swap1\n  dup4\n  0xffffffffffffffff\n  and\n  mul\n  or\n  swap1\n  sstore\n  pop\n    /* \"@openzeppelin/contracts-upgradeable/proxy/utils/Initializable.sol\":8087:8116  Initialized(type(uint64).max) */\n  0xc7f505b2f371ae2175ee4913f4499e1f2633a7b5936321eed1cdaeb6115181d2\n    /* \"@openzeppelin/contracts-upgradeable/proxy/utils/Initializable.sol\":8099:8115  type(uint64).max */\n  0xffffffffffffffff\n    /* \"@openzeppelin/contracts-upgradeable/proxy/utils/Initializable.sol\":8087:8116  Initialized(type(uint64).max) */\n  mload(0x40)\n  tag_12\n  swap2\n  swap1\n  tag_13\n  jump\t// in\ntag_12:\n  mload(0x40)\n  dup1\n  swap2\n  sub\n  swap1\n  log1\n    /* \"@openzeppelin/contracts-upgradeable/proxy/utils/Initializable.sol\":7981:8127  if ($._initialized != type(uint64).max) {... */\ntag_11:\n    /* \"@openzeppelin/contracts-upgradeable/proxy/utils/Initializable.sol\":7760:8133  {... */\n  pop\n    /* \"@openzeppelin/contracts-upgradeable/proxy/utils/Initializable.sol\":7711:8133  function _disableInitializers() internal virtual {... */\n  jump\t// out\n    /* \"@openzeppelin/contracts-upgradeable/proxy/utils/Initializable.sol\":8737:8907  function _getInitializableStorage() private pure returns (InitializableStorage storage $) {... */\ntag_9:\n    /* \"@openzeppelin/contracts-upgradeable/proxy/utils/Initializable.sol\":8795:8825  InitializableStorage storage $ */\n  0x00\n    /* \"@openzeppelin/contracts-upgradeable/proxy/utils/Initializable.sol\":8870:8891  INITIALIZABLE_STORAGE */\n  0xf0c57e16840df040f15088dc2f81fe391c3923bec73e23a9662efc9c229c6a00\n    /* \"@openzeppelin/contracts-upgradeable/proxy/utils/Initializable.sol\":8860:8891  $.slot := INITIALIZABLE_STORAGE */\n  swap1\n  pop\n    /* \"@openzeppelin/contracts-upgradeable/proxy/utils/Initializable.sol\":8737:8907  function _getInitializableStorage() private pure returns (InitializableStorage storage $) {... */\n  swap1\n  jump\t// out\n    /* \"#utility.yul\":7:108   */\ntag_15:\n    /* \"#utility.yul\":43:50   */\n  0x00\n    /* \"#utility.yul\":83:101   */\n  0xffffffffffffffff\n    /* \"#utility.yul\":76:81   */\n  dup3\n    /* \"#utility.yul\":72:102   */\n  and\n    /* \"#utility.yul\":61:102   */\n  swap1\n  pop\n    /* \"#utility.yul\":7:108   */\n  swap2\n  swap1\n  pop\n  jump\t// out\n    /* \"#utility.yul\":114:229   */\ntag_16:\n    /* \"#utility.yul\":199:222   */\n  tag_20\n    /* \"#utility.yul\":216:221   */\n  dup2\n    /* \"#utility.yul\":199:222   */\n  tag_15\n  jump\t// in\ntag_20:\n    /* \"#utility.yul\":194:197   */\n  dup3\n    /* \"#utility.yul\":187:223   */\n  mstore\n    /* \"#utility.yul\":114:229   */\n  pop\n  pop\n  jump\t// out\n    /* \"#utility.yul\":235:453   */\ntag_13:\n    /* \"#utility.yul\":326:330   */\n  0x00\n    /* \"#utility.yul\":364:366   */\n  0x20\n    /* \"#utility.yul\":353:362   */\n  dup3\n    /* \"#utility.yul\":349:367   */\n  add\n    /* \"#utility.yul\":341:367   */\n  swap1\n  pop\n    /* \"#utility.yul\":377:446   */\n  tag_22\n    /* \"#utility.yul\":443:444   */\n  0x00\n    /* \"#utility.yul\":432:441   */\n  dup4\n    /* \"#utility.yul\":428:445   */\n  add\n    /* \"#utility.yul\":419:425   */\n  dup5\n    /* \"#utility.yul\":377:446   */\n  tag_16\n  jump\t// in\ntag_22:\n    /* \"#utility.yul\":235:453   */\n  swap3\n  swap2\n  pop\n  pop\n  jump\t// out\n    /* \"src/smartcontracts/CQTTokenSaleContractsol.sol\":614:6981  contract CQTTokenSaleContract is Initializable, PausableUpgradeable, AccessControlUpgradeable, UUPSUpgradeable {... */\ntag_6:\n  mload(0x80)\n  codecopy(0x00, dataOffset(sub_0), dataSize(sub_0))\n  0x00\n  assignImmutable(\"0x3b04ad91523c4dcf551e081621e633b9099d51bf9c5461e58c3bc7354a578b27\")\n  return(0x00, dataSize(sub_0))\nstop\n\nsub_0: assembly {\n        /* \"src/smartcontracts/CQTTokenSaleContractsol.sol\":614:6981  contract CQTTokenSaleContract is Initializable, PausableUpgradeable, AccessControlUpgradeable, UUPSUpgradeable {... */\n      mstore(0x40, 0x80)\n      jumpi(tag_1, lt(calldatasize, 0x04))\n      shr(0xe0, calldataload(0x00))\n      dup1\n      0x4f1ef286\n      gt\n      tag_42\n      jumpi\n      dup1\n      0xa96f8668\n      gt\n      tag_43\n      jumpi\n      dup1\n      0xe1884b0f\n      gt\n      tag_44\n      jumpi\n      dup1\n      0xe1884b0f\n      eq\n      tag_37\n      jumpi\n      dup1\n      0xe63ab1e9\n      eq\n      tag_38\n      jumpi\n      dup1\n      0xe641bde1\n      eq\n      tag_39\n      jumpi\n      dup1\n      0xf72c0d8b\n      eq\n      tag_40\n      jumpi\n      dup1\n      0xfc0c546a\n      eq\n      tag_41\n      jumpi\n      jump(tag_1)\n    tag_44:\n      dup1\n      0xa96f8668\n      eq\n      tag_32\n      jumpi\n      dup1\n      0xad3cb1cc\n      eq\n      tag_33\n      jumpi\n      dup1\n      0xb91d4001\n      eq\n      tag_34\n      jumpi\n      dup1\n      0xd29cb7ad\n      eq\n      tag_35\n      jumpi\n      dup1\n      0xd547741f\n      eq\n      tag_36\n      jumpi\n      jump(tag_1)\n    tag_43:\n      dup1\n      0x7b9417c8\n      gt\n      tag_45\n      jumpi\n      dup1\n      0x7b9417c8\n      eq\n      tag_27\n      jumpi\n      dup1\n      0x7de69d5f\n      eq\n      tag_28\n      jumpi\n      dup1\n      0x8456cb59\n      eq\n      tag_29\n      jumpi\n      dup1\n      0x91d14854\n      eq\n      tag_30\n      jumpi\n      dup1\n      0xa217fddf\n      eq\n      tag_31\n      jumpi\n      jump(tag_1)\n    tag_45:\n      dup1\n      0x4f1ef286\n      eq\n      tag_22\n      jumpi\n      dup1\n      0x52d1902d\n      eq\n      tag_23\n      jumpi\n      dup1\n      0x5c627358\n      eq\n      tag_24\n      jumpi\n      dup1\n      0x5c975abb\n      eq\n      tag_25\n      jumpi\n      dup1\n      0x76082a5e\n      eq\n      tag_26\n      jumpi\n      jump(tag_1)\n    tag_42:\n      dup1\n      0x2f2ff15d\n      gt\n      tag_46\n      jumpi\n      dup1\n      0x3f4ba83a\n      gt\n      tag_47\n      jumpi\n      dup1\n      0x3f4ba83a\n      eq\n      tag_17\n      jumpi\n      dup1\n      0x42714978\n      eq\n      tag_18\n      jumpi\n      dup1\n      0x44c4dcc1\n      eq\n      tag_19\n      jumpi\n      dup1\n      0x46e73271\n      eq\n      tag_20\n      jumpi\n      dup1\n      0x4d853ee5\n      eq\n      tag_21\n      jumpi\n      jump(tag_1)\n    tag_47:\n      dup1\n      0x2f2ff15d\n      eq\n      tag_12\n      jumpi\n      dup1\n      0x3610724e\n      eq\n      tag_13\n      jumpi\n      dup1\n      0x36568abe\n      eq\n      tag_14\n      jumpi\n      dup1\n      0x384711cc\n      eq\n      tag_15\n      jumpi\n      dup1\n      0x3ccfd60b\n      eq\n      tag_16\n      jumpi\n      jump(tag_1)\n    tag_46:\n      dup1\n      0x16450092\n      gt\n      tag_48\n      jumpi\n      dup1\n      0x16450092\n      eq\n      tag_7\n      jumpi\n      dup1\n      0x23f5c02d\n      eq\n      tag_8\n      jumpi\n      dup1\n      0x248a9ca3\n      eq\n      tag_9\n      jumpi\n      dup1\n      0x286dd3f5\n      eq\n      tag_10\n      jumpi\n      dup1\n      0x2dbf645a\n      eq\n      tag_11\n      jumpi\n      jump(tag_1)\n    tag_48:\n      dup1\n      0xdce23f\n      eq\n      tag_2\n      jumpi\n      dup1\n      0x01ffc9a7\n      eq\n      tag_3\n      jumpi\n      dup1\n      0x06c933d8\n      eq\n      tag_4\n      jumpi\n      dup1\n      0x096f072b\n      eq\n      tag_5\n      jumpi\n      dup1\n      0x0b10d5f2\n      eq\n      tag_6\n      jumpi\n    tag_1:\n      0x00\n      dup1\n      revert\n        /* \"src/smartcontracts/CQTTokenSaleContractsol.sol\":947:1029  bytes32 public constant COMMUNITY_MEMBER_ROLE = keccak256(\"COMMUNITY_MEMBER_ROLE\") */\n    tag_2:\n      callvalue\n      dup1\n      iszero\n      tag_49\n      jumpi\n      0x00\n      dup1\n      revert\n    tag_49:\n      pop\n      tag_50\n      tag_51\n      jump\t// in\n    tag_50:\n      mload(0x40)\n      tag_52\n      swap2\n      swap1\n      tag_53\n      jump\t// in\n    tag_52:\n      mload(0x40)\n      dup1\n      swap2\n      sub\n      swap1\n      return\n        /* \"@openzeppelin/contracts-upgradeable/access/AccessControlUpgradeable.sol\":3443:3645  function supportsInterface(bytes4 interfaceId) public view virtual override returns (bool) {... */\n    tag_3:\n      callvalue\n      dup1\n      iszero\n      tag_54\n      jumpi\n      0x00\n      dup1\n      revert\n    tag_54:\n      pop\n      tag_55\n      0x04\n      dup1\n      calldatasize\n      sub\n      dup2\n      add\n      swap1\n      tag_56\n      swap2\n      swap1\n      tag_57\n      jump\t// in\n    tag_56:\n      tag_58\n      jump\t// in\n    tag_55:\n      mload(0x40)\n      tag_59\n      swap2\n      swap1\n      tag_60\n      jump\t// in\n    tag_59:\n      mload(0x40)\n      dup1\n      swap2\n      sub\n      swap1\n      return\n        /* \"src/smartcontracts/CQTTokenSaleContractsol.sol\":1360:1412  mapping(address => bool) public whitelistedAddresses */\n    tag_4:\n      callvalue\n      dup1\n      iszero\n      tag_61\n      jumpi\n      0x00\n      dup1\n      revert\n    tag_61:\n      pop\n      tag_62\n      0x04\n      dup1\n      calldatasize\n      sub\n      dup2\n      add\n      swap1\n      tag_63\n      swap2\n      swap1\n      tag_64\n      jump\t// in\n    tag_63:\n      tag_65\n      jump\t// in\n    tag_62:\n      mload(0x40)\n      tag_66\n      swap2\n      swap1\n      tag_60\n      jump\t// in\n    tag_66:\n      mload(0x40)\n      dup1\n      swap2\n      sub\n      swap1\n      return\n        /* \"src/smartcontracts/CQTTokenSaleContractsol.sol\":4896:5550  function setTokenPrice(uint256 _newPrice, string calldata role) external onlyRole(DEFAULT_ADMIN_ROLE) {... */\n    tag_5:\n      callvalue\n      dup1\n      iszero\n      tag_67\n      jumpi\n      0x00\n      dup1\n      revert\n    tag_67:\n      pop\n      tag_68\n      0x04\n      dup1\n      calldatasize\n      sub\n      dup2\n      add\n      swap1\n      tag_69\n      swap2\n      swap1\n      tag_70\n      jump\t// in\n    tag_69:\n      tag_71\n      jump\t// in\n    tag_68:\n      stop\n        /* \"src/smartcontracts/CQTTokenSaleContractsol.sol\":1107:1141  uint256 public tokenPriceCommunity */\n    tag_6:\n      callvalue\n      dup1\n      iszero\n      tag_72\n      jumpi\n      0x00\n      dup1\n      revert\n    tag_72:\n      pop\n      tag_73\n      tag_74\n      jump\t// in\n    tag_73:\n      mload(0x40)\n      tag_75\n      swap2\n      swap1\n      tag_76\n      jump\t// in\n    tag_75:\n      mload(0x40)\n      dup1\n      swap2\n      sub\n      swap1\n      return\n        /* \"src/smartcontracts/CQTTokenSaleContractsol.sol\":1186:1209  uint256 public totalCap */\n    tag_7:\n      callvalue\n      dup1\n      iszero\n      tag_77\n      jumpi\n      0x00\n      dup1\n      revert\n    tag_77:\n      pop\n      tag_78\n      tag_79\n      jump\t// in\n    tag_78:\n      mload(0x40)\n      tag_80\n      swap2\n      swap1\n      tag_76\n      jump\t// in\n    tag_80:\n      mload(0x40)\n      dup1\n      swap2\n      sub\n      swap1\n      return\n        /* \"src/smartcontracts/CQTTokenSaleContractsol.sol\":1445:1472  address public proxyAddress */\n    tag_8:\n      callvalue\n      dup1\n      iszero\n      tag_81\n      jumpi\n      0x00\n      dup1\n      revert\n    tag_81:\n      pop\n      tag_82\n      tag_83\n      jump\t// in\n    tag_82:\n      mload(0x40)\n      tag_84\n      swap2\n      swap1\n      tag_85\n      jump\t// in\n    tag_84:\n      mload(0x40)\n      dup1\n      swap2\n      sub\n      swap1\n      return\n        /* \"@openzeppelin/contracts-upgradeable/access/AccessControlUpgradeable.sol\":4759:4950  function getRoleAdmin(bytes32 role) public view virtual returns (bytes32) {... */\n    tag_9:\n      callvalue\n      dup1\n      iszero\n      tag_86\n      jumpi\n      0x00\n      dup1\n      revert\n    tag_86:\n      pop\n      tag_87\n      0x04\n      dup1\n      calldatasize\n      sub\n      dup2\n      add\n      swap1\n      tag_88\n      swap2\n      swap1\n      tag_89\n      jump\t// in\n    tag_88:\n      tag_90\n      jump\t// in\n    tag_87:\n      mload(0x40)\n      tag_91\n      swap2\n      swap1\n      tag_53\n      jump\t// in\n    tag_91:\n      mload(0x40)\n      dup1\n      swap2\n      sub\n      swap1\n      return\n        /* \"src/smartcontracts/CQTTokenSaleContractsol.sol\":6650:6840  function removeAddressFromWhitelist(address addr) external onlyRole(DEFAULT_ADMIN_ROLE) {... */\n    tag_10:\n      callvalue\n      dup1\n      iszero\n      tag_92\n      jumpi\n      0x00\n      dup1\n      revert\n    tag_92:\n      pop\n      tag_93\n      0x04\n      dup1\n      calldatasize\n      sub\n      dup2\n      add\n      swap1\n      tag_94\n      swap2\n      swap1\n      tag_64\n      jump\t// in\n    tag_94:\n      tag_95\n      jump\t// in\n    tag_93:\n      stop\n        /* \"src/smartcontracts/CQTTokenSaleContractsol.sol\":6266:6459  function removeCommunityMember(address account) public onlyRole(DEFAULT_ADMIN_ROLE) {... */\n    tag_11:\n      callvalue\n      dup1\n      iszero\n      tag_96\n      jumpi\n      0x00\n      dup1\n      revert\n    tag_96:\n      pop\n      tag_97\n      0x04\n      dup1\n      calldatasize\n      sub\n      dup2\n      add\n      swap1\n      tag_98\n      swap2\n      swap1\n      tag_64\n      jump\t// in\n    tag_98:\n      tag_99\n      jump\t// in\n    tag_97:\n      stop\n        /* \"@openzeppelin/contracts-upgradeable/access/AccessControlUpgradeable.sol\":5246:5382  function grantRole(bytes32 role, address account) public virtual onlyRole(getRoleAdmin(role)) {... */\n    tag_12:\n      callvalue\n      dup1\n      iszero\n      tag_100\n      jumpi\n      0x00\n      dup1\n      revert\n    tag_100:\n      pop\n      tag_101\n      0x04\n      dup1\n      calldatasize\n      sub\n      dup2\n      add\n      swap1\n      tag_102\n      swap2\n      swap1\n      tag_103\n      jump\t// in\n    tag_102:\n      tag_104\n      jump\t// in\n    tag_101:\n      stop\n        /* \"src/smartcontracts/CQTTokenSaleContractsol.sol\":3492:4271  function buyTokens(uint256 _amount) external payable whenNotPaused {... */\n    tag_13:\n      tag_105\n      0x04\n      dup1\n      calldatasize\n      sub\n      dup2\n      add\n      swap1\n      tag_106\n      swap2\n      swap1\n      tag_107\n      jump\t// in\n    tag_106:\n      tag_108\n      jump\t// in\n    tag_105:\n      stop\n        /* \"@openzeppelin/contracts-upgradeable/access/AccessControlUpgradeable.sol\":6348:6593  function renounceRole(bytes32 role, address callerConfirmation) public virtual {... */\n    tag_14:\n      callvalue\n      dup1\n      iszero\n      tag_109\n      jumpi\n      0x00\n      dup1\n      revert\n    tag_109:\n      pop\n      tag_110\n      0x04\n      dup1\n      calldatasize\n      sub\n      dup2\n      add\n      swap1\n      tag_111\n      swap2\n      swap1\n      tag_103\n      jump\t// in\n    tag_111:\n      tag_112\n      jump\t// in\n    tag_110:\n      stop\n        /* \"src/smartcontracts/CQTTokenSaleContractsol.sol\":1306:1353  mapping(address => uint256) public vestedAmount */\n    tag_15:\n      callvalue\n      dup1\n      iszero\n      tag_113\n      jumpi\n      0x00\n      dup1\n      revert\n    tag_113:\n      pop\n      tag_114\n      0x04\n      dup1\n      calldatasize\n      sub\n      dup2\n      add\n      swap1\n      tag_115\n      swap2\n      swap1\n      tag_64\n      jump\t// in\n    tag_115:\n      tag_116\n      jump\t// in\n    tag_114:\n      mload(0x40)\n      tag_117\n      swap2\n      swap1\n      tag_76\n      jump\t// in\n    tag_117:\n      mload(0x40)\n      dup1\n      swap2\n      sub\n      swap1\n      return\n        /* \"src/smartcontracts/CQTTokenSaleContractsol.sol\":4677:4888  function withdraw() external onlyRole(DEFAULT_ADMIN_ROLE) {... */\n    tag_16:\n      callvalue\n      dup1\n      iszero\n      tag_118\n      jumpi\n      0x00\n      dup1\n      revert\n    tag_118:\n      pop\n      tag_119\n      tag_120\n      jump\t// in\n    tag_119:\n      stop\n        /* \"src/smartcontracts/CQTTokenSaleContractsol.sol\":3407:3484  function unpause() public onlyRole(PAUSER_ROLE) {... */\n    tag_17:\n      callvalue\n      dup1\n      iszero\n      tag_121\n      jumpi\n      0x00\n      dup1\n      revert\n    tag_121:\n      pop\n      tag_122\n      tag_123\n      jump\t// in\n    tag_122:\n      stop\n        /* \"src/smartcontracts/CQTTokenSaleContractsol.sol\":5892:6063  function removeInvestor(address account) public onlyRole(DEFAULT_ADMIN_ROLE) {... */\n    tag_18:\n      callvalue\n      dup1\n      iszero\n      tag_124\n      jumpi\n      0x00\n      dup1\n      revert\n    tag_124:\n      pop\n      tag_125\n      0x04\n      dup1\n      calldatasize\n      sub\n      dup2\n      add\n      swap1\n      tag_126\n      swap2\n      swap1\n      tag_64\n      jump\t// in\n    tag_126:\n      tag_127\n      jump\t// in\n    tag_125:\n      stop\n        /* \"src/smartcontracts/CQTTokenSaleContractsol.sol\":1249:1299  mapping(address => uint256) public purchasedAmount */\n    tag_19:\n      callvalue\n      dup1\n      iszero\n      tag_128\n      jumpi\n      0x00\n      dup1\n      revert\n    tag_128:\n      pop\n      tag_129\n      0x04\n      dup1\n      calldatasize\n      sub\n      dup2\n      add\n      swap1\n      tag_130\n      swap2\n      swap1\n      tag_64\n      jump\t// in\n    tag_130:\n      tag_131\n      jump\t// in\n    tag_129:\n      mload(0x40)\n      tag_132\n      swap2\n      swap1\n      tag_76\n      jump\t// in\n    tag_132:\n      mload(0x40)\n      dup1\n      swap2\n      sub\n      swap1\n      return\n        /* \"src/smartcontracts/CQTTokenSaleContractsol.sol\":2207:3068  function initialize(... */\n    tag_20:\n      callvalue\n      dup1\n      iszero\n      tag_133\n      jumpi\n      0x00\n      dup1\n      revert\n    tag_133:\n      pop\n      tag_134\n      0x04\n      dup1\n      calldatasize\n      sub\n      dup2\n      add\n      swap1\n      tag_135\n      swap2\n      swap1\n      tag_136\n      jump\t// in\n    tag_135:\n      tag_137\n      jump\t// in\n    tag_134:\n      stop\n        /* \"src/smartcontracts/CQTTokenSaleContractsol.sol\":1038:1060  address public founder */\n    tag_21:\n      callvalue\n      dup1\n      iszero\n      tag_138\n      jumpi\n      0x00\n      dup1\n      revert\n    tag_138:\n      pop\n      tag_139\n      tag_140\n      jump\t// in\n    tag_139:\n      mload(0x40)\n      tag_141\n      swap2\n      swap1\n      tag_85\n      jump\t// in\n    tag_141:\n      mload(0x40)\n      dup1\n      swap2\n      sub\n      swap1\n      return\n        /* \"@openzeppelin/contracts-upgradeable/proxy/utils/UUPSUpgradeable.sol\":4158:4372  function upgradeToAndCall(address newImplementation, bytes memory data) public payable virtual onlyProxy {... */\n    tag_22:\n      tag_142\n      0x04\n      dup1\n      calldatasize\n      sub\n      dup2\n      add\n      swap1\n      tag_143\n      swap2\n      swap1\n      tag_144\n      jump\t// in\n    tag_143:\n      tag_145\n      jump\t// in\n    tag_142:\n      stop\n        /* \"@openzeppelin/contracts-upgradeable/proxy/utils/UUPSUpgradeable.sol\":3705:3839  function proxiableUUID() external view virtual notDelegated returns (bytes32) {... */\n    tag_23:\n      callvalue\n      dup1\n      iszero\n      tag_146\n      jumpi\n      0x00\n      dup1\n      revert\n    tag_146:\n      pop\n      tag_147\n      tag_148\n      jump\t// in\n    tag_147:\n      mload(0x40)\n      tag_149\n      swap2\n      swap1\n      tag_53\n      jump\t// in\n    tag_149:\n      mload(0x40)\n      dup1\n      swap2\n      sub\n      swap1\n      return\n        /* \"src/smartcontracts/CQTTokenSaleContractsol.sol\":6071:6258  function addCommunityMember(address account) public onlyRole(DEFAULT_ADMIN_ROLE) {... */\n    tag_24:\n      callvalue\n      dup1\n      iszero\n      tag_150\n      jumpi\n      0x00\n      dup1\n      revert\n    tag_150:\n      pop\n      tag_151\n      0x04\n      dup1\n      calldatasize\n      sub\n      dup2\n      add\n      swap1\n      tag_152\n      swap2\n      swap1\n      tag_64\n      jump\t// in\n    tag_152:\n      tag_153\n      jump\t// in\n    tag_151:\n      stop\n        /* \"@openzeppelin/contracts-upgradeable/utils/PausableUpgradeable.sol\":2692:2837  function paused() public view virtual returns (bool) {... */\n    tag_25:\n      callvalue\n      dup1\n      iszero\n      tag_154\n      jumpi\n      0x00\n      dup1\n      revert\n    tag_154:\n      pop\n      tag_155\n      tag_156\n      jump\t// in\n    tag_155:\n      mload(0x40)\n      tag_157\n      swap2\n      swap1\n      tag_60\n      jump\t// in\n    tag_157:\n      mload(0x40)\n      dup1\n      swap2\n      sub\n      swap1\n      return\n        /* \"src/smartcontracts/CQTTokenSaleContractsol.sol\":874:940  bytes32 public constant INVESTOR_ROLE = keccak256(\"INVESTOR_ROLE\") */\n    tag_26:\n      callvalue\n      dup1\n      iszero\n      tag_158\n      jumpi\n      0x00\n      dup1\n      revert\n    tag_158:\n      pop\n      tag_159\n      tag_160\n      jump\t// in\n    tag_159:\n      mload(0x40)\n      tag_161\n      swap2\n      swap1\n      tag_53\n      jump\t// in\n    tag_161:\n      mload(0x40)\n      dup1\n      swap2\n      sub\n      swap1\n      return\n        /* \"src/smartcontracts/CQTTokenSaleContractsol.sol\":6467:6642  function addAddressToWhitelist(address addr) external onlyRole(DEFAULT_ADMIN_ROLE) {... */\n    tag_27:\n      callvalue\n      dup1\n      iszero\n      tag_162\n      jumpi\n      0x00\n      dup1\n      revert\n    tag_162:\n      pop\n      tag_163\n      0x04\n      dup1\n      calldatasize\n      sub\n      dup2\n      add\n      swap1\n      tag_164\n      swap2\n      swap1\n      tag_64\n      jump\t// in\n    tag_164:\n      tag_165\n      jump\t// in\n    tag_163:\n      stop\n        /* \"src/smartcontracts/CQTTokenSaleContractsol.sol\":1148:1179  uint256 public tokenPricePublic */\n    tag_28:\n      callvalue\n      dup1\n      iszero\n      tag_166\n      jumpi\n      0x00\n      dup1\n      revert\n    tag_166:\n      pop\n      tag_167\n      tag_168\n      jump\t// in\n    tag_167:\n      mload(0x40)\n      tag_169\n      swap2\n      swap1\n      tag_76\n      jump\t// in\n    tag_169:\n      mload(0x40)\n      dup1\n      swap2\n      sub\n      swap1\n      return\n        /* \"src/smartcontracts/CQTTokenSaleContractsol.sol\":3326:3399  function pause() public onlyRole(PAUSER_ROLE) {... */\n    tag_29:\n      callvalue\n      dup1\n      iszero\n      tag_170\n      jumpi\n      0x00\n      dup1\n      revert\n    tag_170:\n      pop\n      tag_171\n      tag_172\n      jump\t// in\n    tag_171:\n      stop\n        /* \"@openzeppelin/contracts-upgradeable/access/AccessControlUpgradeable.sol\":3732:3939  function hasRole(bytes32 role, address account) public view virtual returns (bool) {... */\n    tag_30:\n      callvalue\n      dup1\n      iszero\n      tag_173\n      jumpi\n      0x00\n      dup1\n      revert\n    tag_173:\n      pop\n      tag_174\n      0x04\n      dup1\n      calldatasize\n      sub\n      dup2\n      add\n      swap1\n      tag_175\n      swap2\n      swap1\n      tag_103\n      jump\t// in\n    tag_175:\n      tag_176\n      jump\t// in\n    tag_174:\n      mload(0x40)\n      tag_177\n      swap2\n      swap1\n      tag_60\n      jump\t// in\n    tag_177:\n      mload(0x40)\n      dup1\n      swap2\n      sub\n      swap1\n      return\n        /* \"@openzeppelin/contracts-upgradeable/access/AccessControlUpgradeable.sol\":2317:2366  bytes32 public constant DEFAULT_ADMIN_ROLE = 0x00 */\n    tag_31:\n      callvalue\n      dup1\n      iszero\n      tag_178\n      jumpi\n      0x00\n      dup1\n      revert\n    tag_178:\n      pop\n      tag_179\n      tag_180\n      jump\t// in\n    tag_179:\n      mload(0x40)\n      tag_181\n      swap2\n      swap1\n      tag_53\n      jump\t// in\n    tag_181:\n      mload(0x40)\n      dup1\n      swap2\n      sub\n      swap1\n      return\n        /* \"src/smartcontracts/CQTTokenSaleContractsol.sol\":4279:4669  function releaseTokens() external {... */\n    tag_32:\n      callvalue\n      dup1\n      iszero\n      tag_182\n      jumpi\n      0x00\n      dup1\n      revert\n    tag_182:\n      pop\n      tag_183\n      tag_184\n      jump\t// in\n    tag_183:\n      stop\n        /* \"@openzeppelin/contracts-upgradeable/proxy/utils/UUPSUpgradeable.sol\":1819:1877  string public constant UPGRADE_INTERFACE_VERSION = \"5.0.0\" */\n    tag_33:\n      callvalue\n      dup1\n      iszero\n      tag_185\n      jumpi\n      0x00\n      dup1\n      revert\n    tag_185:\n      pop\n      tag_186\n      tag_187\n      jump\t// in\n    tag_186:\n      mload(0x40)\n      tag_188\n      swap2\n      swap1\n      tag_189\n      jump\t// in\n    tag_188:\n      mload(0x40)\n      dup1\n      swap2\n      sub\n      swap1\n      return\n        /* \"src/smartcontracts/CQTTokenSaleContractsol.sol\":1216:1242  uint256 public releaseTime */\n    tag_34:\n      callvalue\n      dup1\n      iszero\n      tag_190\n      jumpi\n      0x00\n      dup1\n      revert\n    tag_190:\n      pop\n      tag_191\n      tag_192\n      jump\t// in\n    tag_191:\n      mload(0x40)\n      tag_193\n      swap2\n      swap1\n      tag_76\n      jump\t// in\n    tag_193:\n      mload(0x40)\n      dup1\n      swap2\n      sub\n      swap1\n      return\n        /* \"src/smartcontracts/CQTTokenSaleContractsol.sol\":1067:1100  uint256 public tokenPriceInvestor */\n    tag_35:\n      callvalue\n      dup1\n      iszero\n      tag_194\n      jumpi\n      0x00\n      dup1\n      revert\n    tag_194:\n      pop\n      tag_195\n      tag_196\n      jump\t// in\n    tag_195:\n      mload(0x40)\n      tag_197\n      swap2\n      swap1\n      tag_76\n      jump\t// in\n    tag_197:\n      mload(0x40)\n      dup1\n      swap2\n      sub\n      swap1\n      return\n        /* \"@openzeppelin/contracts-upgradeable/access/AccessControlUpgradeable.sol\":5662:5800  function revokeRole(bytes32 role, address account) public virtual onlyRole(getRoleAdmin(role)) {... */\n    tag_36:\n      callvalue\n      dup1\n      iszero\n      tag_198\n      jumpi\n      0x00\n      dup1\n      revert\n    tag_198:\n      pop\n      tag_199\n      0x04\n      dup1\n      calldatasize\n      sub\n      dup2\n      add\n      swap1\n      tag_200\n      swap2\n      swap1\n      tag_103\n      jump\t// in\n    tag_200:\n      tag_201\n      jump\t// in\n    tag_199:\n      stop\n        /* \"src/smartcontracts/CQTTokenSaleContractsol.sol\":5558:5711  function setTotalCap(uint256 _newCap) external onlyRole(DEFAULT_ADMIN_ROLE) {... */\n    tag_37:\n      callvalue\n      dup1\n      iszero\n      tag_202\n      jumpi\n      0x00\n      dup1\n      revert\n    tag_202:\n      pop\n      tag_203\n      0x04\n      dup1\n      calldatasize\n      sub\n      dup2\n      add\n      swap1\n      tag_204\n      swap2\n      swap1\n      tag_107\n      jump\t// in\n    tag_204:\n      tag_205\n      jump\t// in\n    tag_203:\n      stop\n        /* \"src/smartcontracts/CQTTokenSaleContractsol.sol\":732:794  bytes32 public constant PAUSER_ROLE = keccak256(\"PAUSER_ROLE\") */\n    tag_38:\n      callvalue\n      dup1\n      iszero\n      tag_206\n      jumpi\n      0x00\n      dup1\n      revert\n    tag_206:\n      pop\n      tag_207\n      tag_208\n      jump\t// in\n    tag_207:\n      mload(0x40)\n      tag_209\n      swap2\n      swap1\n      tag_53\n      jump\t// in\n    tag_209:\n      mload(0x40)\n      dup1\n      swap2\n      sub\n      swap1\n      return\n        /* \"src/smartcontracts/CQTTokenSaleContractsol.sol\":5719:5884  function addInvestor(address account) public onlyRole(DEFAULT_ADMIN_ROLE) {... */\n    tag_39:\n      callvalue\n      dup1\n      iszero\n      tag_210\n      jumpi\n      0x00\n      dup1\n      revert\n    tag_210:\n      pop\n      tag_211\n      0x04\n      dup1\n      calldatasize\n      sub\n      dup2\n      add\n      swap1\n      tag_212\n      swap2\n      swap1\n      tag_64\n      jump\t// in\n    tag_212:\n      tag_213\n      jump\t// in\n    tag_211:\n      stop\n        /* \"src/smartcontracts/CQTTokenSaleContractsol.sol\":801:867  bytes32 public constant UPGRADER_ROLE = keccak256(\"UPGRADER_ROLE\") */\n    tag_40:\n      callvalue\n      dup1\n      iszero\n      tag_214\n      jumpi\n      0x00\n      dup1\n      revert\n    tag_214:\n      pop\n      tag_215\n      tag_216\n      jump\t// in\n    tag_215:\n      mload(0x40)\n      tag_217\n      swap2\n      swap1\n      tag_53\n      jump\t// in\n    tag_217:\n      mload(0x40)\n      dup1\n      swap2\n      sub\n      swap1\n      return\n        /* \"src/smartcontracts/CQTTokenSaleContractsol.sol\":1419:1438  IERC20 public token */\n    tag_41:\n      callvalue\n      dup1\n      iszero\n      tag_218\n      jumpi\n      0x00\n      dup1\n      revert\n    tag_218:\n      pop\n      tag_219\n      tag_220\n      jump\t// in\n    tag_219:\n      mload(0x40)\n      tag_221\n      swap2\n      swap1\n      tag_222\n      jump\t// in\n    tag_221:\n      mload(0x40)\n      dup1\n      swap2\n      sub\n      swap1\n      return\n        /* \"src/smartcontracts/CQTTokenSaleContractsol.sol\":947:1029  bytes32 public constant COMMUNITY_MEMBER_ROLE = keccak256(\"COMMUNITY_MEMBER_ROLE\") */\n    tag_51:\n        /* \"src/smartcontracts/CQTTokenSaleContractsol.sol\":995:1029  keccak256(\"COMMUNITY_MEMBER_ROLE\") */\n      0x60c5cfba52c4b504f7c252e725c10aea67bfd5e3972bd12ea427f6a9742e6dbe\n        /* \"src/smartcontracts/CQTTokenSaleContractsol.sol\":947:1029  bytes32 public constant COMMUNITY_MEMBER_ROLE = keccak256(\"COMMUNITY_MEMBER_ROLE\") */\n      dup2\n      jump\t// out\n        /* \"@openzeppelin/contracts-upgradeable/access/AccessControlUpgradeable.sol\":3443:3645  function supportsInterface(bytes4 interfaceId) public view virtual override returns (bool) {... */\n    tag_58:\n        /* \"@openzeppelin/contracts-upgradeable/access/AccessControlUpgradeable.sol\":3528:3532  bool */\n      0x00\n        /* \"@openzeppelin/contracts-upgradeable/access/AccessControlUpgradeable.sol\":3566:3598  type(IAccessControl).interfaceId */\n      0x7965db0b00000000000000000000000000000000000000000000000000000000\n        /* \"@openzeppelin/contracts-upgradeable/access/AccessControlUpgradeable.sol\":3551:3598  interfaceId == type(IAccessControl).interfaceId */\n      not(0xffffffffffffffffffffffffffffffffffffffffffffffffffffffff)\n      and\n        /* \"@openzeppelin/contracts-upgradeable/access/AccessControlUpgradeable.sol\":3551:3562  interfaceId */\n      dup3\n        /* \"@openzeppelin/contracts-upgradeable/access/AccessControlUpgradeable.sol\":3551:3598  interfaceId == type(IAccessControl).interfaceId */\n      not(0xffffffffffffffffffffffffffffffffffffffffffffffffffffffff)\n      and\n      eq\n        /* \"@openzeppelin/contracts-upgradeable/access/AccessControlUpgradeable.sol\":3551:3638  interfaceId == type(IAccessControl).interfaceId || super.supportsInterface(interfaceId) */\n      dup1\n      tag_224\n      jumpi\n      pop\n        /* \"@openzeppelin/contracts-upgradeable/access/AccessControlUpgradeable.sol\":3602:3638  super.supportsInterface(interfaceId) */\n      tag_225\n        /* \"@openzeppelin/contracts-upgradeable/access/AccessControlUpgradeable.sol\":3626:3637  interfaceId */\n      dup3\n        /* \"@openzeppelin/contracts-upgradeable/access/AccessControlUpgradeable.sol\":3602:3625  super.supportsInterface */\n      tag_226\n        /* \"@openzeppelin/contracts-upgradeable/access/AccessControlUpgradeable.sol\":3602:3638  super.supportsInterface(interfaceId) */\n      jump\t// in\n    tag_225:\n        /* \"@openzeppelin/contracts-upgradeable/access/AccessControlUpgradeable.sol\":3551:3638  interfaceId == type(IAccessControl).interfaceId || super.supportsInterface(interfaceId) */\n    tag_224:\n        /* \"@openzeppelin/contracts-upgradeable/access/AccessControlUpgradeable.sol\":3544:3638  return interfaceId == type(IAccessControl).interfaceId || super.supportsInterface(interfaceId) */\n      swap1\n      pop\n        /* \"@openzeppelin/contracts-upgradeable/access/AccessControlUpgradeable.sol\":3443:3645  function supportsInterface(bytes4 interfaceId) public view virtual override returns (bool) {... */\n      swap2\n      swap1\n      pop\n      jump\t// out\n        /* \"src/smartcontracts/CQTTokenSaleContractsol.sol\":1360:1412  mapping(address => bool) public whitelistedAddresses */\n    tag_65:\n      mstore(0x20, 0x08)\n      dup1\n      0x00\n      mstore\n      keccak256(0x00, 0x40)\n      0x00\n      swap2\n      pop\n      sload\n      swap1\n      0x0100\n      exp\n      swap1\n      div\n      0xff\n      and\n      dup2\n      jump\t// out\n        /* \"src/smartcontracts/CQTTokenSaleContractsol.sol\":4896:5550  function setTokenPrice(uint256 _newPrice, string calldata role) external onlyRole(DEFAULT_ADMIN_ROLE) {... */\n    tag_71:\n        /* \"@openzeppelin/contracts-upgradeable/access/AccessControlUpgradeable.sol\":2362:2366  0x00 */\n      0x00\n        /* \"src/smartcontracts/CQTTokenSaleContractsol.sol\":4978:4996  DEFAULT_ADMIN_ROLE */\n      dup1\n      shl\n        /* \"@openzeppelin/contracts-upgradeable/access/AccessControlUpgradeable.sol\":3191:3207  _checkRole(role) */\n      tag_228\n        /* \"@openzeppelin/contracts-upgradeable/access/AccessControlUpgradeable.sol\":3202:3206  role */\n      dup2\n        /* \"@openzeppelin/contracts-upgradeable/access/AccessControlUpgradeable.sol\":3191:3201  _checkRole */\n      tag_229\n        /* \"@openzeppelin/contracts-upgradeable/access/AccessControlUpgradeable.sol\":3191:3207  _checkRole(role) */\n      jump\t// in\n    tag_228:\n        /* \"src/smartcontracts/CQTTokenSaleContractsol.sol\":5060:5088  abi.encodePacked(\"INVESTOR\") */\n      add(0x20, mload(0x40))\n      tag_231\n      swap1\n      tag_232\n      jump\t// in\n    tag_231:\n      mload(0x40)\n      0x20\n      dup2\n      dup4\n      sub\n      sub\n      dup2\n      mstore\n      swap1\n      0x40\n      mstore\n        /* \"src/smartcontracts/CQTTokenSaleContractsol.sol\":5050:5089  keccak256(abi.encodePacked(\"INVESTOR\")) */\n      dup1\n      mload\n      swap1\n      0x20\n      add\n      keccak256\n        /* \"src/smartcontracts/CQTTokenSaleContractsol.sol\":5040:5044  role */\n      dup4\n      dup4\n        /* \"src/smartcontracts/CQTTokenSaleContractsol.sol\":5023:5045  abi.encodePacked(role) */\n      add(0x20, mload(0x40))\n      tag_233\n      swap3\n      swap2\n      swap1\n      tag_234\n      jump\t// in\n    tag_233:\n      mload(0x40)\n      0x20\n      dup2\n      dup4\n      sub\n      sub\n      dup2\n      mstore\n      swap1\n      0x40\n      mstore\n        /* \"src/smartcontracts/CQTTokenSaleContractsol.sol\":5013:5046  keccak256(abi.encodePacked(role)) */\n      dup1\n      mload\n      swap1\n      0x20\n      add\n      keccak256\n        /* \"src/smartcontracts/CQTTokenSaleContractsol.sol\":5013:5089  keccak256(abi.encodePacked(role)) == keccak256(abi.encodePacked(\"INVESTOR\")) */\n      sub\n        /* \"src/smartcontracts/CQTTokenSaleContractsol.sol\":5009:5491  if (keccak256(abi.encodePacked(role)) == keccak256(abi.encodePacked(\"INVESTOR\"))) {... */\n      tag_235\n      jumpi\n        /* \"src/smartcontracts/CQTTokenSaleContractsol.sol\":5127:5136  _newPrice */\n      dup4\n        /* \"src/smartcontracts/CQTTokenSaleContractsol.sol\":5106:5124  tokenPriceInvestor */\n      0x01\n        /* \"src/smartcontracts/CQTTokenSaleContractsol.sol\":5106:5136  tokenPriceInvestor = _newPrice */\n      dup2\n      swap1\n      sstore\n      pop\n        /* \"src/smartcontracts/CQTTokenSaleContractsol.sol\":5009:5491  if (keccak256(abi.encodePacked(role)) == keccak256(abi.encodePacked(\"INVESTOR\"))) {... */\n      jump(tag_236)\n    tag_235:\n        /* \"src/smartcontracts/CQTTokenSaleContractsol.sol\":5205:5234  abi.encodePacked(\"COMMUNITY\") */\n      add(0x20, mload(0x40))\n      tag_237\n      swap1\n      tag_238\n      jump\t// in\n    tag_237:\n      mload(0x40)\n      0x20\n      dup2\n      dup4\n      sub\n      sub\n      dup2\n      mstore\n      swap1\n      0x40\n      mstore\n        /* \"src/smartcontracts/CQTTokenSaleContractsol.sol\":5195:5235  keccak256(abi.encodePacked(\"COMMUNITY\")) */\n      dup1\n      mload\n      swap1\n      0x20\n      add\n      keccak256\n        /* \"src/smartcontracts/CQTTokenSaleContractsol.sol\":5185:5189  role */\n      dup4\n      dup4\n        /* \"src/smartcontracts/CQTTokenSaleContractsol.sol\":5168:5190  abi.encodePacked(role) */\n      add(0x20, mload(0x40))\n      tag_239\n      swap3\n      swap2\n      swap1\n      tag_234\n      jump\t// in\n    tag_239:\n      mload(0x40)\n      0x20\n      dup2\n      dup4\n      sub\n      sub\n      dup2\n      mstore\n      swap1\n      0x40\n      mstore\n        /* \"src/smartcontracts/CQTTokenSaleContractsol.sol\":5158:5191  keccak256(abi.encodePacked(role)) */\n      dup1\n      mload\n      swap1\n      0x20\n      add\n      keccak256\n        /* \"src/smartcontracts/CQTTokenSaleContractsol.sol\":5158:5235  keccak256(abi.encodePacked(role)) == keccak256(abi.encodePacked(\"COMMUNITY\")) */\n      sub\n        /* \"src/smartcontracts/CQTTokenSaleContractsol.sol\":5154:5491  if (keccak256(abi.encodePacked(role)) == keccak256(abi.encodePacked(\"COMMUNITY\"))) {... */\n      tag_240\n      jumpi\n        /* \"src/smartcontracts/CQTTokenSaleContractsol.sol\":5274:5283  _newPrice */\n      dup4\n        /* \"src/smartcontracts/CQTTokenSaleContractsol.sol\":5252:5271  tokenPriceCommunity */\n      0x02\n        /* \"src/smartcontracts/CQTTokenSaleContractsol.sol\":5252:5283  tokenPriceCommunity = _newPrice */\n      dup2\n      swap1\n      sstore\n      pop\n        /* \"src/smartcontracts/CQTTokenSaleContractsol.sol\":5154:5491  if (keccak256(abi.encodePacked(role)) == keccak256(abi.encodePacked(\"COMMUNITY\"))) {... */\n      jump(tag_241)\n    tag_240:\n        /* \"src/smartcontracts/CQTTokenSaleContractsol.sol\":5352:5378  abi.encodePacked(\"PUBLIC\") */\n      add(0x20, mload(0x40))\n      tag_242\n      swap1\n      tag_243\n      jump\t// in\n    tag_242:\n      mload(0x40)\n      0x20\n      dup2\n      dup4\n      sub\n      sub\n      dup2\n      mstore\n      swap1\n      0x40\n      mstore\n        /* \"src/smartcontracts/CQTTokenSaleContractsol.sol\":5342:5379  keccak256(abi.encodePacked(\"PUBLIC\")) */\n      dup1\n      mload\n      swap1\n      0x20\n      add\n      keccak256\n        /* \"src/smartcontracts/CQTTokenSaleContractsol.sol\":5332:5336  role */\n      dup4\n      dup4\n        /* \"src/smartcontracts/CQTTokenSaleContractsol.sol\":5315:5337  abi.encodePacked(role) */\n      add(0x20, mload(0x40))\n      tag_244\n      swap3\n      swap2\n      swap1\n      tag_234\n      jump\t// in\n    tag_244:\n      mload(0x40)\n      0x20\n      dup2\n      dup4\n      sub\n      sub\n      dup2\n      mstore\n      swap1\n      0x40\n      mstore\n        /* \"src/smartcontracts/CQTTokenSaleContractsol.sol\":5305:5338  keccak256(abi.encodePacked(role)) */\n      dup1\n      mload\n      swap1\n      0x20\n      add\n      keccak256\n        /* \"src/smartcontracts/CQTTokenSaleContractsol.sol\":5305:5379  keccak256(abi.encodePacked(role)) == keccak256(abi.encodePacked(\"PUBLIC\")) */\n      sub\n        /* \"src/smartcontracts/CQTTokenSaleContractsol.sol\":5301:5491  if (keccak256(abi.encodePacked(role)) == keccak256(abi.encodePacked(\"PUBLIC\"))) {... */\n      tag_245\n      jumpi\n        /* \"src/smartcontracts/CQTTokenSaleContractsol.sol\":5415:5424  _newPrice */\n      dup4\n        /* \"src/smartcontracts/CQTTokenSaleContractsol.sol\":5396:5412  tokenPricePublic */\n      0x03\n        /* \"src/smartcontracts/CQTTokenSaleContractsol.sol\":5396:5424  tokenPricePublic = _newPrice */\n      dup2\n      swap1\n      sstore\n      pop\n        /* \"src/smartcontracts/CQTTokenSaleContractsol.sol\":5301:5491  if (keccak256(abi.encodePacked(role)) == keccak256(abi.encodePacked(\"PUBLIC\"))) {... */\n      jump(tag_246)\n    tag_245:\n        /* \"src/smartcontracts/CQTTokenSaleContractsol.sol\":5457:5479  revert(\"Invalid role\") */\n      mload(0x40)\n      0x08c379a000000000000000000000000000000000000000000000000000000000\n      dup2\n      mstore\n      0x04\n      add\n      tag_247\n      swap1\n      tag_248\n      jump\t// in\n    tag_247:\n      mload(0x40)\n      dup1\n      swap2\n      sub\n      swap1\n      revert\n        /* \"src/smartcontracts/CQTTokenSaleContractsol.sol\":5301:5491  if (keccak256(abi.encodePacked(role)) == keccak256(abi.encodePacked(\"PUBLIC\"))) {... */\n    tag_246:\n        /* \"src/smartcontracts/CQTTokenSaleContractsol.sol\":5154:5491  if (keccak256(abi.encodePacked(role)) == keccak256(abi.encodePacked(\"COMMUNITY\"))) {... */\n    tag_241:\n        /* \"src/smartcontracts/CQTTokenSaleContractsol.sol\":5009:5491  if (keccak256(abi.encodePacked(role)) == keccak256(abi.encodePacked(\"INVESTOR\"))) {... */\n    tag_236:\n        /* \"src/smartcontracts/CQTTokenSaleContractsol.sol\":5508:5542  TokenPriceUpdated(_newPrice, role) */\n      0xeb965a01dcf45c018906efc8417ee684fc308fe125c2c16698e677fd058bfe48\n        /* \"src/smartcontracts/CQTTokenSaleContractsol.sol\":5526:5535  _newPrice */\n      dup5\n        /* \"src/smartcontracts/CQTTokenSaleContractsol.sol\":5537:5541  role */\n      dup5\n      dup5\n        /* \"src/smartcontracts/CQTTokenSaleContractsol.sol\":5508:5542  TokenPriceUpdated(_newPrice, role) */\n      mload(0x40)\n      tag_249\n      swap4\n      swap3\n      swap2\n      swap1\n      tag_250\n      jump\t// in\n    tag_249:\n      mload(0x40)\n      dup1\n      swap2\n      sub\n      swap1\n      log1\n        /* \"src/smartcontracts/CQTTokenSaleContractsol.sol\":4896:5550  function setTokenPrice(uint256 _newPrice, string calldata role) external onlyRole(DEFAULT_ADMIN_ROLE) {... */\n      pop\n      pop\n      pop\n      pop\n      jump\t// out\n        /* \"src/smartcontracts/CQTTokenSaleContractsol.sol\":1107:1141  uint256 public tokenPriceCommunity */\n    tag_74:\n      sload(0x02)\n      dup2\n      jump\t// out\n        /* \"src/smartcontracts/CQTTokenSaleContractsol.sol\":1186:1209  uint256 public totalCap */\n    tag_79:\n      sload(0x04)\n      dup2\n      jump\t// out\n        /* \"src/smartcontracts/CQTTokenSaleContractsol.sol\":1445:1472  address public proxyAddress */\n    tag_83:\n      0x0a\n      0x00\n      swap1\n      sload\n      swap1\n      0x0100\n      exp\n      swap1\n      div\n      0xffffffffffffffffffffffffffffffffffffffff\n      and\n      dup2\n      jump\t// out\n        /* \"@openzeppelin/contracts-upgradeable/access/AccessControlUpgradeable.sol\":4759:4950  function getRoleAdmin(bytes32 role) public view virtual returns (bytes32) {... */\n    tag_90:\n        /* \"@openzeppelin/contracts-upgradeable/access/AccessControlUpgradeable.sol\":4824:4831  bytes32 */\n      0x00\n        /* \"@openzeppelin/contracts-upgradeable/access/AccessControlUpgradeable.sol\":4843:4873  AccessControlStorage storage $ */\n      dup1\n        /* \"@openzeppelin/contracts-upgradeable/access/AccessControlUpgradeable.sol\":4876:4902  _getAccessControlStorage() */\n      tag_252\n        /* \"@openzeppelin/contracts-upgradeable/access/AccessControlUpgradeable.sol\":4876:4900  _getAccessControlStorage */\n      tag_253\n        /* \"@openzeppelin/contracts-upgradeable/access/AccessControlUpgradeable.sol\":4876:4902  _getAccessControlStorage() */\n      jump\t// in\n    tag_252:\n        /* \"@openzeppelin/contracts-upgradeable/access/AccessControlUpgradeable.sol\":4843:4902  AccessControlStorage storage $ = _getAccessControlStorage() */\n      swap1\n      pop\n        /* \"@openzeppelin/contracts-upgradeable/access/AccessControlUpgradeable.sol\":4919:4920  $ */\n      dup1\n        /* \"@openzeppelin/contracts-upgradeable/access/AccessControlUpgradeable.sol\":4919:4927  $._roles */\n      0x00\n      add\n        /* \"@openzeppelin/contracts-upgradeable/access/AccessControlUpgradeable.sol\":4919:4933  $._roles[role] */\n      0x00\n        /* \"@openzeppelin/contracts-upgradeable/access/AccessControlUpgradeable.sol\":4928:4932  role */\n      dup5\n        /* \"@openzeppelin/contracts-upgradeable/access/AccessControlUpgradeable.sol\":4919:4933  $._roles[role] */\n      dup2\n      mstore\n      0x20\n      add\n      swap1\n      dup2\n      mstore\n      0x20\n      add\n      0x00\n      keccak256\n        /* \"@openzeppelin/contracts-upgradeable/access/AccessControlUpgradeable.sol\":4919:4943  $._roles[role].adminRole */\n      0x01\n      add\n      sload\n        /* \"@openzeppelin/contracts-upgradeable/access/AccessControlUpgradeable.sol\":4912:4943  return $._roles[role].adminRole */\n      swap2\n      pop\n      pop\n        /* \"@openzeppelin/contracts-upgradeable/access/AccessControlUpgradeable.sol\":4759:4950  function getRoleAdmin(bytes32 role) public view virtual returns (bytes32) {... */\n      swap2\n      swap1\n      pop\n      jump\t// out\n        /* \"src/smartcontracts/CQTTokenSaleContractsol.sol\":6650:6840  function removeAddressFromWhitelist(address addr) external onlyRole(DEFAULT_ADMIN_ROLE) {... */\n    tag_95:\n        /* \"@openzeppelin/contracts-upgradeable/access/AccessControlUpgradeable.sol\":2362:2366  0x00 */\n      0x00\n        /* \"src/smartcontracts/CQTTokenSaleContractsol.sol\":6718:6736  DEFAULT_ADMIN_ROLE */\n      dup1\n      shl\n        /* \"@openzeppelin/contracts-upgradeable/access/AccessControlUpgradeable.sol\":3191:3207  _checkRole(role) */\n      tag_255\n        /* \"@openzeppelin/contracts-upgradeable/access/AccessControlUpgradeable.sol\":3202:3206  role */\n      dup2\n        /* \"@openzeppelin/contracts-upgradeable/access/AccessControlUpgradeable.sol\":3191:3201  _checkRole */\n      tag_229\n        /* \"@openzeppelin/contracts-upgradeable/access/AccessControlUpgradeable.sol\":3191:3207  _checkRole(role) */\n      jump\t// in\n    tag_255:\n        /* \"src/smartcontracts/CQTTokenSaleContractsol.sol\":6778:6783  false */\n      0x00\n        /* \"src/smartcontracts/CQTTokenSaleContractsol.sol\":6749:6769  whitelistedAddresses */\n      0x08\n        /* \"src/smartcontracts/CQTTokenSaleContractsol.sol\":6749:6775  whitelistedAddresses[addr] */\n      0x00\n        /* \"src/smartcontracts/CQTTokenSaleContractsol.sol\":6770:6774  addr */\n      dup5\n        /* \"src/smartcontracts/CQTTokenSaleContractsol.sol\":6749:6775  whitelistedAddresses[addr] */\n      0xffffffffffffffffffffffffffffffffffffffff\n      and\n      0xffffffffffffffffffffffffffffffffffffffff\n      and\n      dup2\n      mstore\n      0x20\n      add\n      swap1\n      dup2\n      mstore\n      0x20\n      add\n      0x00\n      keccak256\n      0x00\n        /* \"src/smartcontracts/CQTTokenSaleContractsol.sol\":6749:6783  whitelistedAddresses[addr] = false */\n      0x0100\n      exp\n      dup2\n      sload\n      dup2\n      0xff\n      mul\n      not\n      and\n      swap1\n      dup4\n      iszero\n      iszero\n      mul\n      or\n      swap1\n      sstore\n      pop\n        /* \"src/smartcontracts/CQTTokenSaleContractsol.sol\":6827:6831  addr */\n      dup2\n        /* \"src/smartcontracts/CQTTokenSaleContractsol.sol\":6799:6832  AddressRemovedFromWhitelist(addr) */\n      0xffffffffffffffffffffffffffffffffffffffff\n      and\n      0x535611fb62fa2a833988f283b779e417e996813e44046f521d76c17b5943b08c\n      mload(0x40)\n      mload(0x40)\n      dup1\n      swap2\n      sub\n      swap1\n      log2\n        /* \"src/smartcontracts/CQTTokenSaleContractsol.sol\":6650:6840  function removeAddressFromWhitelist(address addr) external onlyRole(DEFAULT_ADMIN_ROLE) {... */\n      pop\n      pop\n      jump\t// out\n        /* \"src/smartcontracts/CQTTokenSaleContractsol.sol\":6266:6459  function removeCommunityMember(address account) public onlyRole(DEFAULT_ADMIN_ROLE) {... */\n    tag_99:\n        /* \"@openzeppelin/contracts-upgradeable/access/AccessControlUpgradeable.sol\":2362:2366  0x00 */\n      0x00\n        /* \"src/smartcontracts/CQTTokenSaleContractsol.sol\":6330:6348  DEFAULT_ADMIN_ROLE */\n      dup1\n      shl\n        /* \"@openzeppelin/contracts-upgradeable/access/AccessControlUpgradeable.sol\":3191:3207  _checkRole(role) */\n      tag_258\n        /* \"@openzeppelin/contracts-upgradeable/access/AccessControlUpgradeable.sol\":3202:3206  role */\n      dup2\n        /* \"@openzeppelin/contracts-upgradeable/access/AccessControlUpgradeable.sol\":3191:3201  _checkRole */\n      tag_229\n        /* \"@openzeppelin/contracts-upgradeable/access/AccessControlUpgradeable.sol\":3191:3207  _checkRole(role) */\n      jump\t// in\n    tag_258:\n        /* \"src/smartcontracts/CQTTokenSaleContractsol.sol\":6361:6404  _revokeRole(COMMUNITY_MEMBER_ROLE, account) */\n      tag_260\n        /* \"src/smartcontracts/CQTTokenSaleContractsol.sol\":995:1029  keccak256(\"COMMUNITY_MEMBER_ROLE\") */\n      0x60c5cfba52c4b504f7c252e725c10aea67bfd5e3972bd12ea427f6a9742e6dbe\n        /* \"src/smartcontracts/CQTTokenSaleContractsol.sol\":6396:6403  account */\n      dup4\n        /* \"src/smartcontracts/CQTTokenSaleContractsol.sol\":6361:6372  _revokeRole */\n      tag_261\n        /* \"src/smartcontracts/CQTTokenSaleContractsol.sol\":6361:6404  _revokeRole(COMMUNITY_MEMBER_ROLE, account) */\n      jump\t// in\n    tag_260:\n      pop\n        /* \"src/smartcontracts/CQTTokenSaleContractsol.sol\":6420:6451  CommunityMemberRemoved(account) */\n      0xa22f826cfa669b4680f0ca673f9e9021392cfe223ef797faf4005f9c8dc4d14b\n        /* \"src/smartcontracts/CQTTokenSaleContractsol.sol\":6443:6450  account */\n      dup3\n        /* \"src/smartcontracts/CQTTokenSaleContractsol.sol\":6420:6451  CommunityMemberRemoved(account) */\n      mload(0x40)\n      tag_262\n      swap2\n      swap1\n      tag_85\n      jump\t// in\n    tag_262:\n      mload(0x40)\n      dup1\n      swap2\n      sub\n      swap1\n      log1\n        /* \"src/smartcontracts/CQTTokenSaleContractsol.sol\":6266:6459  function removeCommunityMember(address account) public onlyRole(DEFAULT_ADMIN_ROLE) {... */\n      pop\n      pop\n      jump\t// out\n        /* \"@openzeppelin/contracts-upgradeable/access/AccessControlUpgradeable.sol\":5246:5382  function grantRole(bytes32 role, address account) public virtual onlyRole(getRoleAdmin(role)) {... */\n    tag_104:\n        /* \"@openzeppelin/contracts-upgradeable/access/AccessControlUpgradeable.sol\":5320:5338  getRoleAdmin(role) */\n      tag_263\n        /* \"@openzeppelin/contracts-upgradeable/access/AccessControlUpgradeable.sol\":5333:5337  role */\n      dup3\n        /* \"@openzeppelin/contracts-upgradeable/access/AccessControlUpgradeable.sol\":5320:5332  getRoleAdmin */\n      tag_90\n        /* \"@openzeppelin/contracts-upgradeable/access/AccessControlUpgradeable.sol\":5320:5338  getRoleAdmin(role) */\n      jump\t// in\n    tag_263:\n        /* \"@openzeppelin/contracts-upgradeable/access/AccessControlUpgradeable.sol\":3191:3207  _checkRole(role) */\n      tag_265\n        /* \"@openzeppelin/contracts-upgradeable/access/AccessControlUpgradeable.sol\":3202:3206  role */\n      dup2\n        /* \"@openzeppelin/contracts-upgradeable/access/AccessControlUpgradeable.sol\":3191:3201  _checkRole */\n      tag_229\n        /* \"@openzeppelin/contracts-upgradeable/access/AccessControlUpgradeable.sol\":3191:3207  _checkRole(role) */\n      jump\t// in\n    tag_265:\n        /* \"@openzeppelin/contracts-upgradeable/access/AccessControlUpgradeable.sol\":5350:5375  _grantRole(role, account) */\n      tag_267\n        /* \"@openzeppelin/contracts-upgradeable/access/AccessControlUpgradeable.sol\":5361:5365  role */\n      dup4\n        /* \"@openzeppelin/contracts-upgradeable/access/AccessControlUpgradeable.sol\":5367:5374  account */\n      dup4\n        /* \"@openzeppelin/contracts-upgradeable/access/AccessControlUpgradeable.sol\":5350:5360  _grantRole */\n      tag_268\n        /* \"@openzeppelin/contracts-upgradeable/access/AccessControlUpgradeable.sol\":5350:5375  _grantRole(role, account) */\n      jump\t// in\n    tag_267:\n      pop\n        /* \"@openzeppelin/contracts-upgradeable/access/AccessControlUpgradeable.sol\":5246:5382  function grantRole(bytes32 role, address account) public virtual onlyRole(getRoleAdmin(role)) {... */\n      pop\n      pop\n      pop\n      jump\t// out\n        /* \"src/smartcontracts/CQTTokenSaleContractsol.sol\":3492:4271  function buyTokens(uint256 _amount) external payable whenNotPaused {... */\n    tag_108:\n        /* \"@openzeppelin/contracts-upgradeable/utils/PausableUpgradeable.sol\":2316:2335  _requireNotPaused() */\n      tag_270\n        /* \"@openzeppelin/contracts-upgradeable/utils/PausableUpgradeable.sol\":2316:2333  _requireNotPaused */\n      tag_271\n        /* \"@openzeppelin/contracts-upgradeable/utils/PausableUpgradeable.sol\":2316:2335  _requireNotPaused() */\n      jump\t// in\n    tag_270:\n        /* \"src/smartcontracts/CQTTokenSaleContractsol.sol\":3578:3598  whitelistedAddresses */\n      0x08\n        /* \"src/smartcontracts/CQTTokenSaleContractsol.sol\":3578:3610  whitelistedAddresses[msg.sender] */\n      0x00\n        /* \"src/smartcontracts/CQTTokenSaleContractsol.sol\":3599:3609  msg.sender */\n      caller\n        /* \"src/smartcontracts/CQTTokenSaleContractsol.sol\":3578:3610  whitelistedAddresses[msg.sender] */\n      0xffffffffffffffffffffffffffffffffffffffff\n      and\n      0xffffffffffffffffffffffffffffffffffffffff\n      and\n      dup2\n      mstore\n      0x20\n      add\n      swap1\n      dup2\n      mstore\n      0x20\n      add\n      0x00\n      keccak256\n      0x00\n      swap1\n      sload\n      swap1\n      0x0100\n      exp\n      swap1\n      div\n      0xff\n      and\n        /* \"src/smartcontracts/CQTTokenSaleContractsol.sol\":3570:3638  require(whitelistedAddresses[msg.sender], \"Address not whitelisted\") */\n      tag_273\n      jumpi\n      mload(0x40)\n      0x08c379a000000000000000000000000000000000000000000000000000000000\n      dup2\n      mstore\n      0x04\n      add\n      tag_274\n      swap1\n      tag_275\n      jump\t// in\n    tag_274:\n      mload(0x40)\n      dup1\n      swap2\n      sub\n      swap1\n      revert\n    tag_273:\n        /* \"src/smartcontracts/CQTTokenSaleContractsol.sol\":3651:3663  uint256 cost */\n      0x00\n        /* \"src/smartcontracts/CQTTokenSaleContractsol.sol\":3678:3712  hasRole(INVESTOR_ROLE, msg.sender) */\n      tag_276\n        /* \"src/smartcontracts/CQTTokenSaleContractsol.sol\":914:940  keccak256(\"INVESTOR_ROLE\") */\n      0xb165298935924f540e4181c03493a5d686c54a0aaeb3f6216de85b7ffbba7738\n        /* \"src/smartcontracts/CQTTokenSaleContractsol.sol\":3701:3711  msg.sender */\n      caller\n        /* \"src/smartcontracts/CQTTokenSaleContractsol.sol\":3678:3685  hasRole */\n      tag_176\n        /* \"src/smartcontracts/CQTTokenSaleContractsol.sol\":3678:3712  hasRole(INVESTOR_ROLE, msg.sender) */\n      jump\t// in\n    tag_276:\n        /* \"src/smartcontracts/CQTTokenSaleContractsol.sol\":3674:3959  if (hasRole(INVESTOR_ROLE, msg.sender)) {... */\n      iszero\n      tag_277\n      jumpi\n        /* \"src/smartcontracts/CQTTokenSaleContractsol.sol\":3746:3764  tokenPriceInvestor */\n      sload(0x01)\n        /* \"src/smartcontracts/CQTTokenSaleContractsol.sol\":3736:3743  _amount */\n      dup3\n        /* \"src/smartcontracts/CQTTokenSaleContractsol.sol\":3736:3764  _amount * tokenPriceInvestor */\n      tag_278\n      swap2\n      swap1\n      tag_279\n      jump\t// in\n    tag_278:\n        /* \"src/smartcontracts/CQTTokenSaleContractsol.sol\":3729:3764  cost = _amount * tokenPriceInvestor */\n      swap1\n      pop\n        /* \"src/smartcontracts/CQTTokenSaleContractsol.sol\":3674:3959  if (hasRole(INVESTOR_ROLE, msg.sender)) {... */\n      jump(tag_280)\n    tag_277:\n        /* \"src/smartcontracts/CQTTokenSaleContractsol.sol\":3786:3828  hasRole(COMMUNITY_MEMBER_ROLE, msg.sender) */\n      tag_281\n        /* \"src/smartcontracts/CQTTokenSaleContractsol.sol\":995:1029  keccak256(\"COMMUNITY_MEMBER_ROLE\") */\n      0x60c5cfba52c4b504f7c252e725c10aea67bfd5e3972bd12ea427f6a9742e6dbe\n        /* \"src/smartcontracts/CQTTokenSaleContractsol.sol\":3817:3827  msg.sender */\n      caller\n        /* \"src/smartcontracts/CQTTokenSaleContractsol.sol\":3786:3793  hasRole */\n      tag_176\n        /* \"src/smartcontracts/CQTTokenSaleContractsol.sol\":3786:3828  hasRole(COMMUNITY_MEMBER_ROLE, msg.sender) */\n      jump\t// in\n    tag_281:\n        /* \"src/smartcontracts/CQTTokenSaleContractsol.sol\":3782:3959  if (hasRole(COMMUNITY_MEMBER_ROLE, msg.sender)) {... */\n      iszero\n      tag_282\n      jumpi\n        /* \"src/smartcontracts/CQTTokenSaleContractsol.sol\":3862:3881  tokenPriceCommunity */\n      sload(0x02)\n        /* \"src/smartcontracts/CQTTokenSaleContractsol.sol\":3852:3859  _amount */\n      dup3\n        /* \"src/smartcontracts/CQTTokenSaleContractsol.sol\":3852:3881  _amount * tokenPriceCommunity */\n      tag_283\n      swap2\n      swap1\n      tag_279\n      jump\t// in\n    tag_283:\n        /* \"src/smartcontracts/CQTTokenSaleContractsol.sol\":3845:3881  cost = _amount * tokenPriceCommunity */\n      swap1\n      pop\n        /* \"src/smartcontracts/CQTTokenSaleContractsol.sol\":3782:3959  if (hasRole(COMMUNITY_MEMBER_ROLE, msg.sender)) {... */\n      jump(tag_284)\n    tag_282:\n        /* \"src/smartcontracts/CQTTokenSaleContractsol.sol\":3931:3947  tokenPricePublic */\n      sload(0x03)\n        /* \"src/smartcontracts/CQTTokenSaleContractsol.sol\":3921:3928  _amount */\n      dup3\n        /* \"src/smartcontracts/CQTTokenSaleContractsol.sol\":3921:3947  _amount * tokenPricePublic */\n      tag_285\n      swap2\n      swap1\n      tag_279\n      jump\t// in\n    tag_285:\n        /* \"src/smartcontracts/CQTTokenSaleContractsol.sol\":3914:3947  cost = _amount * tokenPricePublic */\n      swap1\n      pop\n        /* \"src/smartcontracts/CQTTokenSaleContractsol.sol\":3782:3959  if (hasRole(COMMUNITY_MEMBER_ROLE, msg.sender)) {... */\n    tag_284:\n        /* \"src/smartcontracts/CQTTokenSaleContractsol.sol\":3674:3959  if (hasRole(INVESTOR_ROLE, msg.sender)) {... */\n    tag_280:\n        /* \"src/smartcontracts/CQTTokenSaleContractsol.sol\":3992:3996  cost */\n      dup1\n        /* \"src/smartcontracts/CQTTokenSaleContractsol.sol\":3979:3988  msg.value */\n      callvalue\n        /* \"src/smartcontracts/CQTTokenSaleContractsol.sol\":3979:3996  msg.value == cost */\n      eq\n        /* \"src/smartcontracts/CQTTokenSaleContractsol.sol\":3971:4021  require(msg.value == cost, \"Incorrect value sent\") */\n      tag_286\n      jumpi\n      mload(0x40)\n      0x08c379a000000000000000000000000000000000000000000000000000000000\n      dup2\n      mstore\n      0x04\n      add\n      tag_287\n      swap1\n      tag_288\n      jump\t// in\n    tag_287:\n      mload(0x40)\n      dup1\n      swap2\n      sub\n      swap1\n      revert\n    tag_286:\n        /* \"src/smartcontracts/CQTTokenSaleContractsol.sol\":4081:4089  totalCap */\n      sload(0x04)\n        /* \"src/smartcontracts/CQTTokenSaleContractsol.sol\":4070:4077  _amount */\n      dup3\n        /* \"src/smartcontracts/CQTTokenSaleContractsol.sol\":4040:4055  purchasedAmount */\n      0x06\n        /* \"src/smartcontracts/CQTTokenSaleContractsol.sol\":4040:4067  purchasedAmount[msg.sender] */\n      0x00\n        /* \"src/smartcontracts/CQTTokenSaleContractsol.sol\":4056:4066  msg.sender */\n      caller\n        /* \"src/smartcontracts/CQTTokenSaleContractsol.sol\":4040:4067  purchasedAmount[msg.sender] */\n      0xffffffffffffffffffffffffffffffffffffffff\n      and\n      0xffffffffffffffffffffffffffffffffffffffff\n      and\n      dup2\n      mstore\n      0x20\n      add\n      swap1\n      dup2\n      mstore\n      0x20\n      add\n      0x00\n      keccak256\n      sload\n        /* \"src/smartcontracts/CQTTokenSaleContractsol.sol\":4040:4077  purchasedAmount[msg.sender] + _amount */\n      tag_289\n      swap2\n      swap1\n      tag_290\n      jump\t// in\n    tag_289:\n        /* \"src/smartcontracts/CQTTokenSaleContractsol.sol\":4040:4089  purchasedAmount[msg.sender] + _amount <= totalCap */\n      gt\n      iszero\n        /* \"src/smartcontracts/CQTTokenSaleContractsol.sol\":4032:4114  require(purchasedAmount[msg.sender] + _amount <= totalCap, \"Purchase exceeds cap\") */\n      tag_291\n      jumpi\n      mload(0x40)\n      0x08c379a000000000000000000000000000000000000000000000000000000000\n      dup2\n      mstore\n      0x04\n      add\n      tag_292\n      swap1\n      tag_293\n      jump\t// in\n    tag_292:\n      mload(0x40)\n      dup1\n      swap2\n      sub\n      swap1\n      revert\n    tag_291:\n        /* \"src/smartcontracts/CQTTokenSaleContractsol.sol\":4158:4165  _amount */\n      dup2\n        /* \"src/smartcontracts/CQTTokenSaleContractsol.sol\":4127:4142  purchasedAmount */\n      0x06\n        /* \"src/smartcontracts/CQTTokenSaleContractsol.sol\":4127:4154  purchasedAmount[msg.sender] */\n      0x00\n        /* \"src/smartcontracts/CQTTokenSaleContractsol.sol\":4143:4153  msg.sender */\n      caller\n        /* \"src/smartcontracts/CQTTokenSaleContractsol.sol\":4127:4154  purchasedAmount[msg.sender] */\n      0xffffffffffffffffffffffffffffffffffffffff\n      and\n      0xffffffffffffffffffffffffffffffffffffffff\n      and\n      dup2\n      mstore\n      0x20\n      add\n      swap1\n      dup2\n      mstore\n      0x20\n      add\n      0x00\n      keccak256\n      0x00\n        /* \"src/smartcontracts/CQTTokenSaleContractsol.sol\":4127:4165  purchasedAmount[msg.sender] += _amount */\n      dup3\n      dup3\n      sload\n      tag_294\n      swap2\n      swap1\n      tag_290\n      jump\t// in\n    tag_294:\n      swap3\n      pop\n      pop\n      dup2\n      swap1\n      sstore\n      pop\n        /* \"src/smartcontracts/CQTTokenSaleContractsol.sol\":4204:4211  _amount */\n      dup2\n        /* \"src/smartcontracts/CQTTokenSaleContractsol.sol\":4176:4188  vestedAmount */\n      0x07\n        /* \"src/smartcontracts/CQTTokenSaleContractsol.sol\":4176:4200  vestedAmount[msg.sender] */\n      0x00\n        /* \"src/smartcontracts/CQTTokenSaleContractsol.sol\":4189:4199  msg.sender */\n      caller\n        /* \"src/smartcontracts/CQTTokenSaleContractsol.sol\":4176:4200  vestedAmount[msg.sender] */\n      0xffffffffffffffffffffffffffffffffffffffff\n      and\n      0xffffffffffffffffffffffffffffffffffffffff\n      and\n      dup2\n      mstore\n      0x20\n      add\n      swap1\n      dup2\n      mstore\n      0x20\n      add\n      0x00\n      keccak256\n      0x00\n        /* \"src/smartcontracts/CQTTokenSaleContractsol.sol\":4176:4211  vestedAmount[msg.sender] += _amount */\n      dup3\n      dup3\n      sload\n      tag_295\n      swap2\n      swap1\n      tag_290\n      jump\t// in\n    tag_295:\n      swap3\n      pop\n      pop\n      dup2\n      swap1\n      sstore\n      pop\n        /* \"src/smartcontracts/CQTTokenSaleContractsol.sol\":4243:4253  msg.sender */\n      caller\n        /* \"src/smartcontracts/CQTTokenSaleContractsol.sol\":4227:4263  TokensPurchased(msg.sender, _amount) */\n      0xffffffffffffffffffffffffffffffffffffffff\n      and\n      0x8f28852646c20cc973d3a8218f7eefed58c25c909f78f0265af4818c3d4dc271\n        /* \"src/smartcontracts/CQTTokenSaleContractsol.sol\":4255:4262  _amount */\n      dup4\n        /* \"src/smartcontracts/CQTTokenSaleContractsol.sol\":4227:4263  TokensPurchased(msg.sender, _amount) */\n      mload(0x40)\n      tag_296\n      swap2\n      swap1\n      tag_76\n      jump\t// in\n    tag_296:\n      mload(0x40)\n      dup1\n      swap2\n      sub\n      swap1\n      log2\n        /* \"src/smartcontracts/CQTTokenSaleContractsol.sol\":3559:4271  {... */\n      pop\n        /* \"src/smartcontracts/CQTTokenSaleContractsol.sol\":3492:4271  function buyTokens(uint256 _amount) external payable whenNotPaused {... */\n      pop\n      jump\t// out\n        /* \"@openzeppelin/contracts-upgradeable/access/AccessControlUpgradeable.sol\":6348:6593  function renounceRole(bytes32 role, address callerConfirmation) public virtual {... */\n    tag_112:\n        /* \"@openzeppelin/contracts-upgradeable/access/AccessControlUpgradeable.sol\":6463:6475  _msgSender() */\n      tag_298\n        /* \"@openzeppelin/contracts-upgradeable/access/AccessControlUpgradeable.sol\":6463:6473  _msgSender */\n      tag_299\n        /* \"@openzeppelin/contracts-upgradeable/access/AccessControlUpgradeable.sol\":6463:6475  _msgSender() */\n      jump\t// in\n    tag_298:\n        /* \"@openzeppelin/contracts-upgradeable/access/AccessControlUpgradeable.sol\":6441:6475  callerConfirmation != _msgSender() */\n      0xffffffffffffffffffffffffffffffffffffffff\n      and\n        /* \"@openzeppelin/contracts-upgradeable/access/AccessControlUpgradeable.sol\":6441:6459  callerConfirmation */\n      dup2\n        /* \"@openzeppelin/contracts-upgradeable/access/AccessControlUpgradeable.sol\":6441:6475  callerConfirmation != _msgSender() */\n      0xffffffffffffffffffffffffffffffffffffffff\n      and\n      eq\n        /* \"@openzeppelin/contracts-upgradeable/access/AccessControlUpgradeable.sol\":6437:6539  if (callerConfirmation != _msgSender()) {... */\n      tag_300\n      jumpi\n        /* \"@openzeppelin/contracts-upgradeable/access/AccessControlUpgradeable.sol\":6498:6528  AccessControlBadConfirmation() */\n      mload(0x40)\n      0x6697b23200000000000000000000000000000000000000000000000000000000\n      dup2\n      mstore\n      0x04\n      add\n      mload(0x40)\n      dup1\n      swap2\n      sub\n      swap1\n      revert\n        /* \"@openzeppelin/contracts-upgradeable/access/AccessControlUpgradeable.sol\":6437:6539  if (callerConfirmation != _msgSender()) {... */\n    tag_300:\n        /* \"@openzeppelin/contracts-upgradeable/access/AccessControlUpgradeable.sol\":6549:6586  _revokeRole(role, callerConfirmation) */\n      tag_301\n        /* \"@openzeppelin/contracts-upgradeable/access/AccessControlUpgradeable.sol\":6561:6565  role */\n      dup3\n        /* \"@openzeppelin/contracts-upgradeable/access/AccessControlUpgradeable.sol\":6567:6585  callerConfirmation */\n      dup3\n        /* \"@openzeppelin/contracts-upgradeable/access/AccessControlUpgradeable.sol\":6549:6560  _revokeRole */\n      tag_261\n        /* \"@openzeppelin/contracts-upgradeable/access/AccessControlUpgradeable.sol\":6549:6586  _revokeRole(role, callerConfirmation) */\n      jump\t// in\n    tag_301:\n      pop\n        /* \"@openzeppelin/contracts-upgradeable/access/AccessControlUpgradeable.sol\":6348:6593  function renounceRole(bytes32 role, address callerConfirmation) public virtual {... */\n      pop\n      pop\n      jump\t// out\n        /* \"src/smartcontracts/CQTTokenSaleContractsol.sol\":1306:1353  mapping(address => uint256) public vestedAmount */\n    tag_116:\n      mstore(0x20, 0x07)\n      dup1\n      0x00\n      mstore\n      keccak256(0x00, 0x40)\n      0x00\n      swap2\n      pop\n      swap1\n      pop\n      sload\n      dup2\n      jump\t// out\n        /* \"src/smartcontracts/CQTTokenSaleContractsol.sol\":4677:4888  function withdraw() external onlyRole(DEFAULT_ADMIN_ROLE) {... */\n    tag_120:\n        /* \"@openzeppelin/contracts-upgradeable/access/AccessControlUpgradeable.sol\":2362:2366  0x00 */\n      0x00\n        /* \"src/smartcontracts/CQTTokenSaleContractsol.sol\":4715:4733  DEFAULT_ADMIN_ROLE */\n      dup1\n      shl\n        /* \"@openzeppelin/contracts-upgradeable/access/AccessControlUpgradeable.sol\":3191:3207  _checkRole(role) */\n      tag_303\n        /* \"@openzeppelin/contracts-upgradeable/access/AccessControlUpgradeable.sol\":3202:3206  role */\n      dup2\n        /* \"@openzeppelin/contracts-upgradeable/access/AccessControlUpgradeable.sol\":3191:3201  _checkRole */\n      tag_229\n        /* \"@openzeppelin/contracts-upgradeable/access/AccessControlUpgradeable.sol\":3191:3207  _checkRole(role) */\n      jump\t// in\n    tag_303:\n        /* \"src/smartcontracts/CQTTokenSaleContractsol.sol\":4746:4761  uint256 balance */\n      0x00\n        /* \"src/smartcontracts/CQTTokenSaleContractsol.sol\":4764:4785  address(this).balance */\n      selfbalance\n        /* \"src/smartcontracts/CQTTokenSaleContractsol.sol\":4746:4785  uint256 balance = address(this).balance */\n      swap1\n      pop\n        /* \"src/smartcontracts/CQTTokenSaleContractsol.sol\":4804:4811  founder */\n      0x00\n      dup1\n      sload\n      swap1\n      0x0100\n      exp\n      swap1\n      div\n      0xffffffffffffffffffffffffffffffffffffffff\n      and\n        /* \"src/smartcontracts/CQTTokenSaleContractsol.sol\":4796:4821  payable(founder).transfer */\n      0xffffffffffffffffffffffffffffffffffffffff\n      and\n        /* \"src/smartcontracts/CQTTokenSaleContractsol.sol\":4796:4830  payable(founder).transfer(balance) */\n      0x08fc\n        /* \"src/smartcontracts/CQTTokenSaleContractsol.sol\":4822:4829  balance */\n      dup3\n        /* \"src/smartcontracts/CQTTokenSaleContractsol.sol\":4796:4830  payable(founder).transfer(balance) */\n      swap1\n      dup2\n      iszero\n      mul\n      swap1\n      mload(0x40)\n      0x00\n      mload(0x40)\n      dup1\n      dup4\n      sub\n      dup2\n      dup6\n      dup9\n      dup9\n      call\n      swap4\n      pop\n      pop\n      pop\n      pop\n      iszero\n      dup1\n      iszero\n      tag_306\n      jumpi\n      returndatasize\n      0x00\n      dup1\n      returndatacopy\n      revert(0x00, returndatasize)\n    tag_306:\n      pop\n        /* \"src/smartcontracts/CQTTokenSaleContractsol.sol\":4848:4880  FundsWithdrawn(founder, balance) */\n      0xeaff4b37086828766ad3268786972c0cd24259d4c87a80f9d3963a3c3d999b0d\n        /* \"src/smartcontracts/CQTTokenSaleContractsol.sol\":4863:4870  founder */\n      0x00\n      dup1\n      sload\n      swap1\n      0x0100\n      exp\n      swap1\n      div\n      0xffffffffffffffffffffffffffffffffffffffff\n      and\n        /* \"src/smartcontracts/CQTTokenSaleContractsol.sol\":4872:4879  balance */\n      dup3\n        /* \"src/smartcontracts/CQTTokenSaleContractsol.sol\":4848:4880  FundsWithdrawn(founder, balance) */\n      mload(0x40)\n      tag_307\n      swap3\n      swap2\n      swap1\n      tag_308\n      jump\t// in\n    tag_307:\n      mload(0x40)\n      dup1\n      swap2\n      sub\n      swap1\n      log1\n        /* \"src/smartcontracts/CQTTokenSaleContractsol.sol\":4735:4888  {... */\n      pop\n        /* \"src/smartcontracts/CQTTokenSaleContractsol.sol\":4677:4888  function withdraw() external onlyRole(DEFAULT_ADMIN_ROLE) {... */\n      pop\n      jump\t// out\n        /* \"src/smartcontracts/CQTTokenSaleContractsol.sol\":3407:3484  function unpause() public onlyRole(PAUSER_ROLE) {... */\n    tag_123:\n        /* \"src/smartcontracts/CQTTokenSaleContractsol.sol\":770:794  keccak256(\"PAUSER_ROLE\") */\n      0x65d7a28e3265b37a6474929f336521b332c1681b933f6cb9f3376673440d862a\n        /* \"@openzeppelin/contracts-upgradeable/access/AccessControlUpgradeable.sol\":3191:3207  _checkRole(role) */\n      tag_310\n        /* \"@openzeppelin/contracts-upgradeable/access/AccessControlUpgradeable.sol\":3202:3206  role */\n      dup2\n        /* \"@openzeppelin/contracts-upgradeable/access/AccessControlUpgradeable.sol\":3191:3201  _checkRole */\n      tag_229\n        /* \"@openzeppelin/contracts-upgradeable/access/AccessControlUpgradeable.sol\":3191:3207  _checkRole(role) */\n      jump\t// in\n    tag_310:\n        /* \"src/smartcontracts/CQTTokenSaleContractsol.sol\":3466:3476  _unpause() */\n      tag_312\n        /* \"src/smartcontracts/CQTTokenSaleContractsol.sol\":3466:3474  _unpause */\n      tag_313\n        /* \"src/smartcontracts/CQTTokenSaleContractsol.sol\":3466:3476  _unpause() */\n      jump\t// in\n    tag_312:\n        /* \"src/smartcontracts/CQTTokenSaleContractsol.sol\":3407:3484  function unpause() public onlyRole(PAUSER_ROLE) {... */\n      pop\n      jump\t// out\n        /* \"src/smartcontracts/CQTTokenSaleContractsol.sol\":5892:6063  function removeInvestor(address account) public onlyRole(DEFAULT_ADMIN_ROLE) {... */\n    tag_127:\n        /* \"@openzeppelin/contracts-upgradeable/access/AccessControlUpgradeable.sol\":2362:2366  0x00 */\n      0x00\n        /* \"src/smartcontracts/CQTTokenSaleContractsol.sol\":5949:5967  DEFAULT_ADMIN_ROLE */\n      dup1\n      shl\n        /* \"@openzeppelin/contracts-upgradeable/access/AccessControlUpgradeable.sol\":3191:3207  _checkRole(role) */\n      tag_315\n        /* \"@openzeppelin/contracts-upgradeable/access/AccessControlUpgradeable.sol\":3202:3206  role */\n      dup2\n        /* \"@openzeppelin/contracts-upgradeable/access/AccessControlUpgradeable.sol\":3191:3201  _checkRole */\n      tag_229\n        /* \"@openzeppelin/contracts-upgradeable/access/AccessControlUpgradeable.sol\":3191:3207  _checkRole(role) */\n      jump\t// in\n    tag_315:\n        /* \"src/smartcontracts/CQTTokenSaleContractsol.sol\":5980:6015  _revokeRole(INVESTOR_ROLE, account) */\n      tag_317\n        /* \"src/smartcontracts/CQTTokenSaleContractsol.sol\":914:940  keccak256(\"INVESTOR_ROLE\") */\n      0xb165298935924f540e4181c03493a5d686c54a0aaeb3f6216de85b7ffbba7738\n        /* \"src/smartcontracts/CQTTokenSaleContractsol.sol\":6007:6014  account */\n      dup4\n        /* \"src/smartcontracts/CQTTokenSaleContractsol.sol\":5980:5991  _revokeRole */\n      tag_261\n        /* \"src/smartcontracts/CQTTokenSaleContractsol.sol\":5980:6015  _revokeRole(INVESTOR_ROLE, account) */\n      jump\t// in\n    tag_317:\n      pop\n        /* \"src/smartcontracts/CQTTokenSaleContractsol.sol\":6031:6055  InvestorRemoved(account) */\n      0xba0013628ccb89af5bb18edf764d3a7b35c07b894848b8e6fd3434719de39c7d\n        /* \"src/smartcontracts/CQTTokenSaleContractsol.sol\":6047:6054  account */\n      dup3\n        /* \"src/smartcontracts/CQTTokenSaleContractsol.sol\":6031:6055  InvestorRemoved(account) */\n      mload(0x40)\n      tag_318\n      swap2\n      swap1\n      tag_85\n      jump\t// in\n    tag_318:\n      mload(0x40)\n      dup1\n      swap2\n      sub\n      swap1\n      log1\n        /* \"src/smartcontracts/CQTTokenSaleContractsol.sol\":5892:6063  function removeInvestor(address account) public onlyRole(DEFAULT_ADMIN_ROLE) {... */\n      pop\n      pop\n      jump\t// out\n        /* \"src/smartcontracts/CQTTokenSaleContractsol.sol\":1249:1299  mapping(address => uint256) public purchasedAmount */\n    tag_131:\n      mstore(0x20, 0x06)\n      dup1\n      0x00\n      mstore\n      keccak256(0x00, 0x40)\n      0x00\n      swap2\n      pop\n      swap1\n      pop\n      sload\n      dup2\n      jump\t// out\n        /* \"src/smartcontracts/CQTTokenSaleContractsol.sol\":2207:3068  function initialize(... */\n    tag_137:\n        /* \"@openzeppelin/contracts-upgradeable/proxy/utils/Initializable.sol\":4158:4188  InitializableStorage storage $ */\n      0x00\n        /* \"@openzeppelin/contracts-upgradeable/proxy/utils/Initializable.sol\":4191:4217  _getInitializableStorage() */\n      tag_320\n        /* \"@openzeppelin/contracts-upgradeable/proxy/utils/Initializable.sol\":4191:4215  _getInitializableStorage */\n      tag_321\n        /* \"@openzeppelin/contracts-upgradeable/proxy/utils/Initializable.sol\":4191:4217  _getInitializableStorage() */\n      jump\t// in\n    tag_320:\n        /* \"@openzeppelin/contracts-upgradeable/proxy/utils/Initializable.sol\":4158:4217  InitializableStorage storage $ = _getInitializableStorage() */\n      swap1\n      pop\n        /* \"@openzeppelin/contracts-upgradeable/proxy/utils/Initializable.sol\":4279:4298  bool isTopLevelCall */\n      0x00\n        /* \"@openzeppelin/contracts-upgradeable/proxy/utils/Initializable.sol\":4302:4303  $ */\n      dup2\n        /* \"@openzeppelin/contracts-upgradeable/proxy/utils/Initializable.sol\":4302:4317  $._initializing */\n      0x00\n      add\n      0x08\n      swap1\n      sload\n      swap1\n      0x0100\n      exp\n      swap1\n      div\n      0xff\n      and\n        /* \"@openzeppelin/contracts-upgradeable/proxy/utils/Initializable.sol\":4301:4317  !$._initializing */\n      iszero\n        /* \"@openzeppelin/contracts-upgradeable/proxy/utils/Initializable.sol\":4279:4317  bool isTopLevelCall = !$._initializing */\n      swap1\n      pop\n        /* \"@openzeppelin/contracts-upgradeable/proxy/utils/Initializable.sol\":4327:4345  uint64 initialized */\n      0x00\n        /* \"@openzeppelin/contracts-upgradeable/proxy/utils/Initializable.sol\":4348:4349  $ */\n      dup3\n        /* \"@openzeppelin/contracts-upgradeable/proxy/utils/Initializable.sol\":4348:4362  $._initialized */\n      0x00\n      add\n      0x00\n      swap1\n      sload\n      swap1\n      0x0100\n      exp\n      swap1\n      div\n      0xffffffffffffffff\n      and\n        /* \"@openzeppelin/contracts-upgradeable/proxy/utils/Initializable.sol\":4327:4362  uint64 initialized = $._initialized */\n      swap1\n      pop\n        /* \"@openzeppelin/contracts-upgradeable/proxy/utils/Initializable.sol\":4706:4723  bool initialSetup */\n      0x00\n        /* \"@openzeppelin/contracts-upgradeable/proxy/utils/Initializable.sol\":4741:4742  0 */\n      dup1\n        /* \"@openzeppelin/contracts-upgradeable/proxy/utils/Initializable.sol\":4726:4737  initialized */\n      dup3\n        /* \"@openzeppelin/contracts-upgradeable/proxy/utils/Initializable.sol\":4726:4742  initialized == 0 */\n      0xffffffffffffffff\n      and\n      eq\n        /* \"@openzeppelin/contracts-upgradeable/proxy/utils/Initializable.sol\":4726:4760  initialized == 0 && isTopLevelCall */\n      dup1\n      iszero\n      tag_322\n      jumpi\n      pop\n        /* \"@openzeppelin/contracts-upgradeable/proxy/utils/Initializable.sol\":4746:4760  isTopLevelCall */\n      dup3\n        /* \"@openzeppelin/contracts-upgradeable/proxy/utils/Initializable.sol\":4726:4760  initialized == 0 && isTopLevelCall */\n    tag_322:\n        /* \"@openzeppelin/contracts-upgradeable/proxy/utils/Initializable.sol\":4706:4760  bool initialSetup = initialized == 0 && isTopLevelCall */\n      swap1\n      pop\n        /* \"@openzeppelin/contracts-upgradeable/proxy/utils/Initializable.sol\":4770:4787  bool construction */\n      0x00\n        /* \"@openzeppelin/contracts-upgradeable/proxy/utils/Initializable.sol\":4805:4806  1 */\n      0x01\n        /* \"@openzeppelin/contracts-upgradeable/proxy/utils/Initializable.sol\":4790:4801  initialized */\n      dup4\n        /* \"@openzeppelin/contracts-upgradeable/proxy/utils/Initializable.sol\":4790:4806  initialized == 1 */\n      0xffffffffffffffff\n      and\n      eq\n        /* \"@openzeppelin/contracts-upgradeable/proxy/utils/Initializable.sol\":4790:4840  initialized == 1 && address(this).code.length == 0 */\n      dup1\n      iszero\n      tag_323\n      jumpi\n      pop\n        /* \"@openzeppelin/contracts-upgradeable/proxy/utils/Initializable.sol\":4839:4840  0 */\n      0x00\n        /* \"@openzeppelin/contracts-upgradeable/proxy/utils/Initializable.sol\":4818:4822  this */\n      address\n        /* \"@openzeppelin/contracts-upgradeable/proxy/utils/Initializable.sol\":4810:4835  address(this).code.length */\n      0xffffffffffffffffffffffffffffffffffffffff\n      and\n      extcodesize\n        /* \"@openzeppelin/contracts-upgradeable/proxy/utils/Initializable.sol\":4810:4840  address(this).code.length == 0 */\n      eq\n        /* \"@openzeppelin/contracts-upgradeable/proxy/utils/Initializable.sol\":4790:4840  initialized == 1 && address(this).code.length == 0 */\n    tag_323:\n        /* \"@openzeppelin/contracts-upgradeable/proxy/utils/Initializable.sol\":4770:4840  bool construction = initialized == 1 && address(this).code.length == 0 */\n      swap1\n      pop\n        /* \"@openzeppelin/contracts-upgradeable/proxy/utils/Initializable.sol\":4856:4868  initialSetup */\n      dup2\n        /* \"@openzeppelin/contracts-upgradeable/proxy/utils/Initializable.sol\":4855:4868  !initialSetup */\n      iszero\n        /* \"@openzeppelin/contracts-upgradeable/proxy/utils/Initializable.sol\":4855:4885  !initialSetup && !construction */\n      dup1\n      iszero\n      tag_324\n      jumpi\n      pop\n        /* \"@openzeppelin/contracts-upgradeable/proxy/utils/Initializable.sol\":4873:4885  construction */\n      dup1\n        /* \"@openzeppelin/contracts-upgradeable/proxy/utils/Initializable.sol\":4872:4885  !construction */\n      iszero\n        /* \"@openzeppelin/contracts-upgradeable/proxy/utils/Initializable.sol\":4855:4885  !initialSetup && !construction */\n    tag_324:\n        /* \"@openzeppelin/contracts-upgradeable/proxy/utils/Initializable.sol\":4851:4942  if (!initialSetup && !construction) {... */\n      iszero\n      tag_325\n      jumpi\n        /* \"@openzeppelin/contracts-upgradeable/proxy/utils/Initializable.sol\":4908:4931  InvalidInitialization() */\n      mload(0x40)\n      0xf92ee8a900000000000000000000000000000000000000000000000000000000\n      dup2\n      mstore\n      0x04\n      add\n      mload(0x40)\n      dup1\n      swap2\n      sub\n      swap1\n      revert\n        /* \"@openzeppelin/contracts-upgradeable/proxy/utils/Initializable.sol\":4851:4942  if (!initialSetup && !construction) {... */\n    tag_325:\n        /* \"@openzeppelin/contracts-upgradeable/proxy/utils/Initializable.sol\":4968:4969  1 */\n      0x01\n        /* \"@openzeppelin/contracts-upgradeable/proxy/utils/Initializable.sol\":4951:4952  $ */\n      dup6\n        /* \"@openzeppelin/contracts-upgradeable/proxy/utils/Initializable.sol\":4951:4965  $._initialized */\n      0x00\n      add\n      0x00\n        /* \"@openzeppelin/contracts-upgradeable/proxy/utils/Initializable.sol\":4951:4969  $._initialized = 1 */\n      0x0100\n      exp\n      dup2\n      sload\n      dup2\n      0xffffffffffffffff\n      mul\n      not\n      and\n      swap1\n      dup4\n      0xffffffffffffffff\n      and\n      mul\n      or\n      swap1\n      sstore\n      pop\n        /* \"@openzeppelin/contracts-upgradeable/proxy/utils/Initializable.sol\":4983:4997  isTopLevelCall */\n      dup4\n        /* \"@openzeppelin/contracts-upgradeable/proxy/utils/Initializable.sol\":4979:5046  if (isTopLevelCall) {... */\n      iszero\n      tag_326\n      jumpi\n        /* \"@openzeppelin/contracts-upgradeable/proxy/utils/Initializable.sol\":5031:5035  true */\n      0x01\n        /* \"@openzeppelin/contracts-upgradeable/proxy/utils/Initializable.sol\":5013:5014  $ */\n      dup6\n        /* \"@openzeppelin/contracts-upgradeable/proxy/utils/Initializable.sol\":5013:5028  $._initializing */\n      0x00\n      add\n      0x08\n        /* \"@openzeppelin/contracts-upgradeable/proxy/utils/Initializable.sol\":5013:5035  $._initializing = true */\n      0x0100\n      exp\n      dup2\n      sload\n      dup2\n      0xff\n      mul\n      not\n      and\n      swap1\n      dup4\n      iszero\n      iszero\n      mul\n      or\n      swap1\n      sstore\n      pop\n        /* \"@openzeppelin/contracts-upgradeable/proxy/utils/Initializable.sol\":4979:5046  if (isTopLevelCall) {... */\n    tag_326:\n        /* \"src/smartcontracts/CQTTokenSaleContractsol.sol\":2583:2600  __Pausable_init() */\n      tag_328\n        /* \"src/smartcontracts/CQTTokenSaleContractsol.sol\":2583:2598  __Pausable_init */\n      tag_329\n        /* \"src/smartcontracts/CQTTokenSaleContractsol.sol\":2583:2600  __Pausable_init() */\n      jump\t// in\n    tag_328:\n        /* \"src/smartcontracts/CQTTokenSaleContractsol.sol\":2611:2633  __AccessControl_init() */\n      tag_330\n        /* \"src/smartcontracts/CQTTokenSaleContractsol.sol\":2611:2631  __AccessControl_init */\n      tag_331\n        /* \"src/smartcontracts/CQTTokenSaleContractsol.sol\":2611:2633  __AccessControl_init() */\n      jump\t// in\n    tag_330:\n        /* \"src/smartcontracts/CQTTokenSaleContractsol.sol\":2644:2668  __UUPSUpgradeable_init() */\n      tag_332\n        /* \"src/smartcontracts/CQTTokenSaleContractsol.sol\":2644:2666  __UUPSUpgradeable_init */\n      tag_333\n        /* \"src/smartcontracts/CQTTokenSaleContractsol.sol\":2644:2668  __UUPSUpgradeable_init() */\n      jump\t// in\n    tag_332:\n        /* \"src/smartcontracts/CQTTokenSaleContractsol.sol\":2681:2729  _initializeRoles(defaultAdmin, pauser, upgrader) */\n      tag_334\n        /* \"src/smartcontracts/CQTTokenSaleContractsol.sol\":2698:2710  defaultAdmin */\n      dup16\n        /* \"src/smartcontracts/CQTTokenSaleContractsol.sol\":2712:2718  pauser */\n      dup16\n        /* \"src/smartcontracts/CQTTokenSaleContractsol.sol\":2720:2728  upgrader */\n      dup16\n        /* \"src/smartcontracts/CQTTokenSaleContractsol.sol\":2681:2697  _initializeRoles */\n      tag_335\n        /* \"src/smartcontracts/CQTTokenSaleContractsol.sol\":2681:2729  _initializeRoles(defaultAdmin, pauser, upgrader) */\n      jump\t// in\n    tag_334:\n        /* \"src/smartcontracts/CQTTokenSaleContractsol.sol\":2752:2762  msg.sender */\n      caller\n        /* \"src/smartcontracts/CQTTokenSaleContractsol.sol\":2742:2749  founder */\n      0x00\n      dup1\n        /* \"src/smartcontracts/CQTTokenSaleContractsol.sol\":2742:2762  founder = msg.sender */\n      0x0100\n      exp\n      dup2\n      sload\n      dup2\n      0xffffffffffffffffffffffffffffffffffffffff\n      mul\n      not\n      and\n      swap1\n      dup4\n      0xffffffffffffffffffffffffffffffffffffffff\n      and\n      mul\n      or\n      swap1\n      sstore\n      pop\n        /* \"src/smartcontracts/CQTTokenSaleContractsol.sol\":2788:2801  _tokenAddress */\n      dup12\n        /* \"src/smartcontracts/CQTTokenSaleContractsol.sol\":2773:2778  token */\n      0x09\n      0x00\n        /* \"src/smartcontracts/CQTTokenSaleContractsol.sol\":2773:2802  token = IERC20(_tokenAddress) */\n      0x0100\n      exp\n      dup2\n      sload\n      dup2\n      0xffffffffffffffffffffffffffffffffffffffff\n      mul\n      not\n      and\n      swap1\n      dup4\n      0xffffffffffffffffffffffffffffffffffffffff\n      and\n      mul\n      or\n      swap1\n      sstore\n      pop\n        /* \"src/smartcontracts/CQTTokenSaleContractsol.sol\":2828:2841  _proxyAddress */\n      dup11\n        /* \"src/smartcontracts/CQTTokenSaleContractsol.sol\":2813:2825  proxyAddress */\n      0x0a\n      0x00\n        /* \"src/smartcontracts/CQTTokenSaleContractsol.sol\":2813:2841  proxyAddress = _proxyAddress */\n      0x0100\n      exp\n      dup2\n      sload\n      dup2\n      0xffffffffffffffffffffffffffffffffffffffff\n      mul\n      not\n      and\n      swap1\n      dup4\n      0xffffffffffffffffffffffffffffffffffffffff\n      and\n      mul\n      or\n      swap1\n      sstore\n      pop\n        /* \"src/smartcontracts/CQTTokenSaleContractsol.sol\":2873:2892  _tokenPriceInvestor */\n      dup10\n        /* \"src/smartcontracts/CQTTokenSaleContractsol.sol\":2852:2870  tokenPriceInvestor */\n      0x01\n        /* \"src/smartcontracts/CQTTokenSaleContractsol.sol\":2852:2892  tokenPriceInvestor = _tokenPriceInvestor */\n      dup2\n      swap1\n      sstore\n      pop\n        /* \"src/smartcontracts/CQTTokenSaleContractsol.sol\":2925:2945  _tokenPriceCommunity */\n      dup9\n        /* \"src/smartcontracts/CQTTokenSaleContractsol.sol\":2903:2922  tokenPriceCommunity */\n      0x02\n        /* \"src/smartcontracts/CQTTokenSaleContractsol.sol\":2903:2945  tokenPriceCommunity = _tokenPriceCommunity */\n      dup2\n      swap1\n      sstore\n      pop\n        /* \"src/smartcontracts/CQTTokenSaleContractsol.sol\":2975:2992  _tokenPricePublic */\n      dup8\n        /* \"src/smartcontracts/CQTTokenSaleContractsol.sol\":2956:2972  tokenPricePublic */\n      0x03\n        /* \"src/smartcontracts/CQTTokenSaleContractsol.sol\":2956:2992  tokenPricePublic = _tokenPricePublic */\n      dup2\n      swap1\n      sstore\n      pop\n        /* \"src/smartcontracts/CQTTokenSaleContractsol.sol\":3014:3023  _totalCap */\n      dup7\n        /* \"src/smartcontracts/CQTTokenSaleContractsol.sol\":3003:3011  totalCap */\n      0x04\n        /* \"src/smartcontracts/CQTTokenSaleContractsol.sol\":3003:3023  totalCap = _totalCap */\n      dup2\n      swap1\n      sstore\n      pop\n        /* \"src/smartcontracts/CQTTokenSaleContractsol.sol\":3048:3060  _releaseTime */\n      dup6\n        /* \"src/smartcontracts/CQTTokenSaleContractsol.sol\":3034:3045  releaseTime */\n      0x05\n        /* \"src/smartcontracts/CQTTokenSaleContractsol.sol\":3034:3060  releaseTime = _releaseTime */\n      dup2\n      swap1\n      sstore\n      pop\n        /* \"@openzeppelin/contracts-upgradeable/proxy/utils/Initializable.sol\":5070:5084  isTopLevelCall */\n      dup4\n        /* \"@openzeppelin/contracts-upgradeable/proxy/utils/Initializable.sol\":5066:5167  if (isTopLevelCall) {... */\n      iszero\n      tag_336\n      jumpi\n        /* \"@openzeppelin/contracts-upgradeable/proxy/utils/Initializable.sol\":5118:5123  false */\n      0x00\n        /* \"@openzeppelin/contracts-upgradeable/proxy/utils/Initializable.sol\":5100:5101  $ */\n      dup6\n        /* \"@openzeppelin/contracts-upgradeable/proxy/utils/Initializable.sol\":5100:5115  $._initializing */\n      0x00\n      add\n      0x08\n        /* \"@openzeppelin/contracts-upgradeable/proxy/utils/Initializable.sol\":5100:5123  $._initializing = false */\n      0x0100\n      exp\n      dup2\n      sload\n      dup2\n      0xff\n      mul\n      not\n      and\n      swap1\n      dup4\n      iszero\n      iszero\n      mul\n      or\n      swap1\n      sstore\n      pop\n        /* \"@openzeppelin/contracts-upgradeable/proxy/utils/Initializable.sol\":5142:5156  Initialized(1) */\n      0xc7f505b2f371ae2175ee4913f4499e1f2633a7b5936321eed1cdaeb6115181d2\n        /* \"@openzeppelin/contracts-upgradeable/proxy/utils/Initializable.sol\":5154:5155  1 */\n      0x01\n        /* \"@openzeppelin/contracts-upgradeable/proxy/utils/Initializable.sol\":5142:5156  Initialized(1) */\n      mload(0x40)\n      tag_337\n      swap2\n      swap1\n      tag_338\n      jump\t// in\n    tag_337:\n      mload(0x40)\n      dup1\n      swap2\n      sub\n      swap1\n      log1\n        /* \"@openzeppelin/contracts-upgradeable/proxy/utils/Initializable.sol\":5066:5167  if (isTopLevelCall) {... */\n    tag_336:\n        /* \"@openzeppelin/contracts-upgradeable/proxy/utils/Initializable.sol\":4092:5173  {... */\n      pop\n      pop\n      pop\n      pop\n      pop\n        /* \"src/smartcontracts/CQTTokenSaleContractsol.sol\":2207:3068  function initialize(... */\n      pop\n      pop\n      pop\n      pop\n      pop\n      pop\n      pop\n      pop\n      pop\n      pop\n      jump\t// out\n        /* \"src/smartcontracts/CQTTokenSaleContractsol.sol\":1038:1060  address public founder */\n    tag_140:\n      0x00\n      dup1\n      sload\n      swap1\n      0x0100\n      exp\n      swap1\n      div\n      0xffffffffffffffffffffffffffffffffffffffff\n      and\n      dup2\n      jump\t// out\n        /* \"@openzeppelin/contracts-upgradeable/proxy/utils/UUPSUpgradeable.sol\":4158:4372  function upgradeToAndCall(address newImplementation, bytes memory data) public payable virtual onlyProxy {... */\n    tag_145:\n        /* \"@openzeppelin/contracts-upgradeable/proxy/utils/UUPSUpgradeable.sol\":2653:2666  _checkProxy() */\n      tag_340\n        /* \"@openzeppelin/contracts-upgradeable/proxy/utils/UUPSUpgradeable.sol\":2653:2664  _checkProxy */\n      tag_341\n        /* \"@openzeppelin/contracts-upgradeable/proxy/utils/UUPSUpgradeable.sol\":2653:2666  _checkProxy() */\n      jump\t// in\n    tag_340:\n        /* \"@openzeppelin/contracts-upgradeable/proxy/utils/UUPSUpgradeable.sol\":4273:4309  _authorizeUpgrade(newImplementation) */\n      tag_343\n        /* \"@openzeppelin/contracts-upgradeable/proxy/utils/UUPSUpgradeable.sol\":4291:4308  newImplementation */\n      dup3\n        /* \"@openzeppelin/contracts-upgradeable/proxy/utils/UUPSUpgradeable.sol\":4273:4290  _authorizeUpgrade */\n      tag_344\n        /* \"@openzeppelin/contracts-upgradeable/proxy/utils/UUPSUpgradeable.sol\":4273:4309  _authorizeUpgrade(newImplementation) */\n      jump\t// in\n    tag_343:\n        /* \"@openzeppelin/contracts-upgradeable/proxy/utils/UUPSUpgradeable.sol\":4319:4365  _upgradeToAndCallUUPS(newImplementation, data) */\n      tag_345\n        /* \"@openzeppelin/contracts-upgradeable/proxy/utils/UUPSUpgradeable.sol\":4341:4358  newImplementation */\n      dup3\n        /* \"@openzeppelin/contracts-upgradeable/proxy/utils/UUPSUpgradeable.sol\":4360:4364  data */\n      dup3\n        /* \"@openzeppelin/contracts-upgradeable/proxy/utils/UUPSUpgradeable.sol\":4319:4340  _upgradeToAndCallUUPS */\n      tag_346\n        /* \"@openzeppelin/contracts-upgradeable/proxy/utils/UUPSUpgradeable.sol\":4319:4365  _upgradeToAndCallUUPS(newImplementation, data) */\n      jump\t// in\n    tag_345:\n        /* \"@openzeppelin/contracts-upgradeable/proxy/utils/UUPSUpgradeable.sol\":4158:4372  function upgradeToAndCall(address newImplementation, bytes memory data) public payable virtual onlyProxy {... */\n      pop\n      pop\n      jump\t// out\n        /* \"@openzeppelin/contracts-upgradeable/proxy/utils/UUPSUpgradeable.sol\":3705:3839  function proxiableUUID() external view virtual notDelegated returns (bytes32) {... */\n    tag_148:\n        /* \"@openzeppelin/contracts-upgradeable/proxy/utils/UUPSUpgradeable.sol\":3774:3781  bytes32 */\n      0x00\n        /* \"@openzeppelin/contracts-upgradeable/proxy/utils/UUPSUpgradeable.sol\":2924:2944  _checkNotDelegated() */\n      tag_348\n        /* \"@openzeppelin/contracts-upgradeable/proxy/utils/UUPSUpgradeable.sol\":2924:2942  _checkNotDelegated */\n      tag_349\n        /* \"@openzeppelin/contracts-upgradeable/proxy/utils/UUPSUpgradeable.sol\":2924:2944  _checkNotDelegated() */\n      jump\t// in\n    tag_348:\n        /* \"@openzeppelin/contracts/proxy/ERC1967/ERC1967Utils.sol\":1327:1393  0x360894a13ba1a3210667c828492db98dca3e2076cc3735a920a3ca505d382bbc */\n      0x360894a13ba1a3210667c828492db98dca3e2076cc3735a920a3ca505d382bbc\n        /* \"@openzeppelin/contracts-upgradeable/proxy/utils/UUPSUpgradeable.sol\":3800:3832  ERC1967Utils.IMPLEMENTATION_SLOT */\n      0x00\n      shl\n        /* \"@openzeppelin/contracts-upgradeable/proxy/utils/UUPSUpgradeable.sol\":3793:3832  return ERC1967Utils.IMPLEMENTATION_SLOT */\n      swap1\n      pop\n        /* \"@openzeppelin/contracts-upgradeable/proxy/utils/UUPSUpgradeable.sol\":3705:3839  function proxiableUUID() external view virtual notDelegated returns (bytes32) {... */\n      swap1\n      jump\t// out\n        /* \"src/smartcontracts/CQTTokenSaleContractsol.sol\":6071:6258  function addCommunityMember(address account) public onlyRole(DEFAULT_ADMIN_ROLE) {... */\n    tag_153:\n        /* \"@openzeppelin/contracts-upgradeable/access/AccessControlUpgradeable.sol\":2362:2366  0x00 */\n      0x00\n        /* \"src/smartcontracts/CQTTokenSaleContractsol.sol\":6132:6150  DEFAULT_ADMIN_ROLE */\n      dup1\n      shl\n        /* \"@openzeppelin/contracts-upgradeable/access/AccessControlUpgradeable.sol\":3191:3207  _checkRole(role) */\n      tag_352\n        /* \"@openzeppelin/contracts-upgradeable/access/AccessControlUpgradeable.sol\":3202:3206  role */\n      dup2\n        /* \"@openzeppelin/contracts-upgradeable/access/AccessControlUpgradeable.sol\":3191:3201  _checkRole */\n      tag_229\n        /* \"@openzeppelin/contracts-upgradeable/access/AccessControlUpgradeable.sol\":3191:3207  _checkRole(role) */\n      jump\t// in\n    tag_352:\n        /* \"src/smartcontracts/CQTTokenSaleContractsol.sol\":6163:6205  _grantRole(COMMUNITY_MEMBER_ROLE, account) */\n      tag_354\n        /* \"src/smartcontracts/CQTTokenSaleContractsol.sol\":995:1029  keccak256(\"COMMUNITY_MEMBER_ROLE\") */\n      0x60c5cfba52c4b504f7c252e725c10aea67bfd5e3972bd12ea427f6a9742e6dbe\n        /* \"src/smartcontracts/CQTTokenSaleContractsol.sol\":6197:6204  account */\n      dup4\n        /* \"src/smartcontracts/CQTTokenSaleContractsol.sol\":6163:6173  _grantRole */\n      tag_268\n        /* \"src/smartcontracts/CQTTokenSaleContractsol.sol\":6163:6205  _grantRole(COMMUNITY_MEMBER_ROLE, account) */\n      jump\t// in\n    tag_354:\n      pop\n        /* \"src/smartcontracts/CQTTokenSaleContractsol.sol\":6221:6250  CommunityMemberAdded(account) */\n      0xa41a5ddbf02b01025c5ac32c2038f209eabe5ddb2a83444f2acbfe9f91dc8827\n        /* \"src/smartcontracts/CQTTokenSaleContractsol.sol\":6242:6249  account */\n      dup3\n        /* \"src/smartcontracts/CQTTokenSaleContractsol.sol\":6221:6250  CommunityMemberAdded(account) */\n      mload(0x40)\n      tag_355\n      swap2\n      swap1\n      tag_85\n      jump\t// in\n    tag_355:\n      mload(0x40)\n      dup1\n      swap2\n      sub\n      swap1\n      log1\n        /* \"src/smartcontracts/CQTTokenSaleContractsol.sol\":6071:6258  function addCommunityMember(address account) public onlyRole(DEFAULT_ADMIN_ROLE) {... */\n      pop\n      pop\n      jump\t// out\n        /* \"@openzeppelin/contracts-upgradeable/utils/PausableUpgradeable.sol\":2692:2837  function paused() public view virtual returns (bool) {... */\n    tag_156:\n        /* \"@openzeppelin/contracts-upgradeable/utils/PausableUpgradeable.sol\":2739:2743  bool */\n      0x00\n        /* \"@openzeppelin/contracts-upgradeable/utils/PausableUpgradeable.sol\":2755:2780  PausableStorage storage $ */\n      dup1\n        /* \"@openzeppelin/contracts-upgradeable/utils/PausableUpgradeable.sol\":2783:2804  _getPausableStorage() */\n      tag_357\n        /* \"@openzeppelin/contracts-upgradeable/utils/PausableUpgradeable.sol\":2783:2802  _getPausableStorage */\n      tag_358\n        /* \"@openzeppelin/contracts-upgradeable/utils/PausableUpgradeable.sol\":2783:2804  _getPausableStorage() */\n      jump\t// in\n    tag_357:\n        /* \"@openzeppelin/contracts-upgradeable/utils/PausableUpgradeable.sol\":2755:2804  PausableStorage storage $ = _getPausableStorage() */\n      swap1\n      pop\n        /* \"@openzeppelin/contracts-upgradeable/utils/PausableUpgradeable.sol\":2821:2822  $ */\n      dup1\n        /* \"@openzeppelin/contracts-upgradeable/utils/PausableUpgradeable.sol\":2821:2830  $._paused */\n      0x00\n      add\n      0x00\n      swap1\n      sload\n      swap1\n      0x0100\n      exp\n      swap1\n      div\n      0xff\n      and\n        /* \"@openzeppelin/contracts-upgradeable/utils/PausableUpgradeable.sol\":2814:2830  return $._paused */\n      swap2\n      pop\n      pop\n        /* \"@openzeppelin/contracts-upgradeable/utils/PausableUpgradeable.sol\":2692:2837  function paused() public view virtual returns (bool) {... */\n      swap1\n      jump\t// out\n        /* \"src/smartcontracts/CQTTokenSaleContractsol.sol\":874:940  bytes32 public constant INVESTOR_ROLE = keccak256(\"INVESTOR_ROLE\") */\n    tag_160:\n        /* \"src/smartcontracts/CQTTokenSaleContractsol.sol\":914:940  keccak256(\"INVESTOR_ROLE\") */\n      0xb165298935924f540e4181c03493a5d686c54a0aaeb3f6216de85b7ffbba7738\n        /* \"src/smartcontracts/CQTTokenSaleContractsol.sol\":874:940  bytes32 public constant INVESTOR_ROLE = keccak256(\"INVESTOR_ROLE\") */\n      dup2\n      jump\t// out\n        /* \"src/smartcontracts/CQTTokenSaleContractsol.sol\":6467:6642  function addAddressToWhitelist(address addr) external onlyRole(DEFAULT_ADMIN_ROLE) {... */\n    tag_165:\n        /* \"@openzeppelin/contracts-upgradeable/access/AccessControlUpgradeable.sol\":2362:2366  0x00 */\n      0x00\n        /* \"src/smartcontracts/CQTTokenSaleContractsol.sol\":6530:6548  DEFAULT_ADMIN_ROLE */\n      dup1\n      shl\n        /* \"@openzeppelin/contracts-upgradeable/access/AccessControlUpgradeable.sol\":3191:3207  _checkRole(role) */\n      tag_360\n        /* \"@openzeppelin/contracts-upgradeable/access/AccessControlUpgradeable.sol\":3202:3206  role */\n      dup2\n        /* \"@openzeppelin/contracts-upgradeable/access/AccessControlUpgradeable.sol\":3191:3201  _checkRole */\n      tag_229\n        /* \"@openzeppelin/contracts-upgradeable/access/AccessControlUpgradeable.sol\":3191:3207  _checkRole(role) */\n      jump\t// in\n    tag_360:\n        /* \"src/smartcontracts/CQTTokenSaleContractsol.sol\":6590:6594  true */\n      0x01\n        /* \"src/smartcontracts/CQTTokenSaleContractsol.sol\":6561:6581  whitelistedAddresses */\n      0x08\n        /* \"src/smartcontracts/CQTTokenSaleContractsol.sol\":6561:6587  whitelistedAddresses[addr] */\n      0x00\n        /* \"src/smartcontracts/CQTTokenSaleContractsol.sol\":6582:6586  addr */\n      dup5\n        /* \"src/smartcontracts/CQTTokenSaleContractsol.sol\":6561:6587  whitelistedAddresses[addr] */\n      0xffffffffffffffffffffffffffffffffffffffff\n      and\n      0xffffffffffffffffffffffffffffffffffffffff\n      and\n      dup2\n      mstore\n      0x20\n      add\n      swap1\n      dup2\n      mstore\n      0x20\n      add\n      0x00\n      keccak256\n      0x00\n        /* \"src/smartcontracts/CQTTokenSaleContractsol.sol\":6561:6594  whitelistedAddresses[addr] = true */\n      0x0100\n      exp\n      dup2\n      sload\n      dup2\n      0xff\n      mul\n      not\n      and\n      swap1\n      dup4\n      iszero\n      iszero\n      mul\n      or\n      swap1\n      sstore\n      pop\n        /* \"src/smartcontracts/CQTTokenSaleContractsol.sol\":6629:6633  addr */\n      dup2\n        /* \"src/smartcontracts/CQTTokenSaleContractsol.sol\":6610:6634  AddressWhitelisted(addr) */\n      0xffffffffffffffffffffffffffffffffffffffff\n      and\n      0x4f783c179409b4127238bc9c990bc99b9a651666a0d20b51d6c42849eb88466d\n      mload(0x40)\n      mload(0x40)\n      dup1\n      swap2\n      sub\n      swap1\n      log2\n        /* \"src/smartcontracts/CQTTokenSaleContractsol.sol\":6467:6642  function addAddressToWhitelist(address addr) external onlyRole(DEFAULT_ADMIN_ROLE) {... */\n      pop\n      pop\n      jump\t// out\n        /* \"src/smartcontracts/CQTTokenSaleContractsol.sol\":1148:1179  uint256 public tokenPricePublic */\n    tag_168:\n      sload(0x03)\n      dup2\n      jump\t// out\n        /* \"src/smartcontracts/CQTTokenSaleContractsol.sol\":3326:3399  function pause() public onlyRole(PAUSER_ROLE) {... */\n    tag_172:\n        /* \"src/smartcontracts/CQTTokenSaleContractsol.sol\":770:794  keccak256(\"PAUSER_ROLE\") */\n      0x65d7a28e3265b37a6474929f336521b332c1681b933f6cb9f3376673440d862a\n        /* \"@openzeppelin/contracts-upgradeable/access/AccessControlUpgradeable.sol\":3191:3207  _checkRole(role) */\n      tag_363\n        /* \"@openzeppelin/contracts-upgradeable/access/AccessControlUpgradeable.sol\":3202:3206  role */\n      dup2\n        /* \"@openzeppelin/contracts-upgradeable/access/AccessControlUpgradeable.sol\":3191:3201  _checkRole */\n      tag_229\n        /* \"@openzeppelin/contracts-upgradeable/access/AccessControlUpgradeable.sol\":3191:3207  _checkRole(role) */\n      jump\t// in\n    tag_363:\n        /* \"src/smartcontracts/CQTTokenSaleContractsol.sol\":3383:3391  _pause() */\n      tag_365\n        /* \"src/smartcontracts/CQTTokenSaleContractsol.sol\":3383:3389  _pause */\n      tag_366\n        /* \"src/smartcontracts/CQTTokenSaleContractsol.sol\":3383:3391  _pause() */\n      jump\t// in\n    tag_365:\n        /* \"src/smartcontracts/CQTTokenSaleContractsol.sol\":3326:3399  function pause() public onlyRole(PAUSER_ROLE) {... */\n      pop\n      jump\t// out\n        /* \"@openzeppelin/contracts-upgradeable/access/AccessControlUpgradeable.sol\":3732:3939  function hasRole(bytes32 role, address account) public view virtual returns (bool) {... */\n    tag_176:\n        /* \"@openzeppelin/contracts-upgradeable/access/AccessControlUpgradeable.sol\":3809:3813  bool */\n      0x00\n        /* \"@openzeppelin/contracts-upgradeable/access/AccessControlUpgradeable.sol\":3825:3855  AccessControlStorage storage $ */\n      dup1\n        /* \"@openzeppelin/contracts-upgradeable/access/AccessControlUpgradeable.sol\":3858:3884  _getAccessControlStorage() */\n      tag_368\n        /* \"@openzeppelin/contracts-upgradeable/access/AccessControlUpgradeable.sol\":3858:3882  _getAccessControlStorage */\n      tag_253\n        /* \"@openzeppelin/contracts-upgradeable/access/AccessControlUpgradeable.sol\":3858:3884  _getAccessControlStorage() */\n      jump\t// in\n    tag_368:\n        /* \"@openzeppelin/contracts-upgradeable/access/AccessControlUpgradeable.sol\":3825:3884  AccessControlStorage storage $ = _getAccessControlStorage() */\n      swap1\n      pop\n        /* \"@openzeppelin/contracts-upgradeable/access/AccessControlUpgradeable.sol\":3901:3902  $ */\n      dup1\n        /* \"@openzeppelin/contracts-upgradeable/access/AccessControlUpgradeable.sol\":3901:3909  $._roles */\n      0x00\n      add\n        /* \"@openzeppelin/contracts-upgradeable/access/AccessControlUpgradeable.sol\":3901:3915  $._roles[role] */\n      0x00\n        /* \"@openzeppelin/contracts-upgradeable/access/AccessControlUpgradeable.sol\":3910:3914  role */\n      dup6\n        /* \"@openzeppelin/contracts-upgradeable/access/AccessControlUpgradeable.sol\":3901:3915  $._roles[role] */\n      dup2\n      mstore\n      0x20\n      add\n      swap1\n      dup2\n      mstore\n      0x20\n      add\n      0x00\n      keccak256\n        /* \"@openzeppelin/contracts-upgradeable/access/AccessControlUpgradeable.sol\":3901:3923  $._roles[role].hasRole */\n      0x00\n      add\n        /* \"@openzeppelin/contracts-upgradeable/access/AccessControlUpgradeable.sol\":3901:3932  $._roles[role].hasRole[account] */\n      0x00\n        /* \"@openzeppelin/contracts-upgradeable/access/AccessControlUpgradeable.sol\":3924:3931  account */\n      dup5\n        /* \"@openzeppelin/contracts-upgradeable/access/AccessControlUpgradeable.sol\":3901:3932  $._roles[role].hasRole[account] */\n      0xffffffffffffffffffffffffffffffffffffffff\n      and\n      0xffffffffffffffffffffffffffffffffffffffff\n      and\n      dup2\n      mstore\n      0x20\n      add\n      swap1\n      dup2\n      mstore\n      0x20\n      add\n      0x00\n      keccak256\n      0x00\n      swap1\n      sload\n      swap1\n      0x0100\n      exp\n      swap1\n      div\n      0xff\n      and\n        /* \"@openzeppelin/contracts-upgradeable/access/AccessControlUpgradeable.sol\":3894:3932  return $._roles[role].hasRole[account] */\n      swap2\n      pop\n      pop\n        /* \"@openzeppelin/contracts-upgradeable/access/AccessControlUpgradeable.sol\":3732:3939  function hasRole(bytes32 role, address account) public view virtual returns (bool) {... */\n      swap3\n      swap2\n      pop\n      pop\n      jump\t// out\n        /* \"@openzeppelin/contracts-upgradeable/access/AccessControlUpgradeable.sol\":2317:2366  bytes32 public constant DEFAULT_ADMIN_ROLE = 0x00 */\n    tag_180:\n        /* \"@openzeppelin/contracts-upgradeable/access/AccessControlUpgradeable.sol\":2362:2366  0x00 */\n      0x00\n        /* \"@openzeppelin/contracts-upgradeable/access/AccessControlUpgradeable.sol\":2317:2366  bytes32 public constant DEFAULT_ADMIN_ROLE = 0x00 */\n      dup1\n      shl\n      dup2\n      jump\t// out\n        /* \"src/smartcontracts/CQTTokenSaleContractsol.sol\":4279:4669  function releaseTokens() external {... */\n    tag_184:\n        /* \"src/smartcontracts/CQTTokenSaleContractsol.sol\":4351:4362  releaseTime */\n      sload(0x05)\n        /* \"src/smartcontracts/CQTTokenSaleContractsol.sol\":4332:4347  block.timestamp */\n      timestamp\n        /* \"src/smartcontracts/CQTTokenSaleContractsol.sol\":4332:4362  block.timestamp >= releaseTime */\n      lt\n      iszero\n        /* \"src/smartcontracts/CQTTokenSaleContractsol.sol\":4324:4402  require(block.timestamp >= releaseTime, \"Current time is before release time\") */\n      tag_370\n      jumpi\n      mload(0x40)\n      0x08c379a000000000000000000000000000000000000000000000000000000000\n      dup2\n      mstore\n      0x04\n      add\n      tag_371\n      swap1\n      tag_372\n      jump\t// in\n    tag_371:\n      mload(0x40)\n      dup1\n      swap2\n      sub\n      swap1\n      revert\n    tag_370:\n        /* \"src/smartcontracts/CQTTokenSaleContractsol.sol\":4413:4427  uint256 amount */\n      0x00\n        /* \"src/smartcontracts/CQTTokenSaleContractsol.sol\":4430:4442  vestedAmount */\n      0x07\n        /* \"src/smartcontracts/CQTTokenSaleContractsol.sol\":4430:4454  vestedAmount[msg.sender] */\n      0x00\n        /* \"src/smartcontracts/CQTTokenSaleContractsol.sol\":4443:4453  msg.sender */\n      caller\n        /* \"src/smartcontracts/CQTTokenSaleContractsol.sol\":4430:4454  vestedAmount[msg.sender] */\n      0xffffffffffffffffffffffffffffffffffffffff\n      and\n      0xffffffffffffffffffffffffffffffffffffffff\n      and\n      dup2\n      mstore\n      0x20\n      add\n      swap1\n      dup2\n      mstore\n      0x20\n      add\n      0x00\n      keccak256\n      sload\n        /* \"src/smartcontracts/CQTTokenSaleContractsol.sol\":4413:4454  uint256 amount = vestedAmount[msg.sender] */\n      swap1\n      pop\n        /* \"src/smartcontracts/CQTTokenSaleContractsol.sol\":4482:4483  0 */\n      0x00\n        /* \"src/smartcontracts/CQTTokenSaleContractsol.sol\":4473:4479  amount */\n      dup2\n        /* \"src/smartcontracts/CQTTokenSaleContractsol.sol\":4473:4483  amount > 0 */\n      gt\n        /* \"src/smartcontracts/CQTTokenSaleContractsol.sol\":4465:4505  require(amount > 0, \"No tokens are due\") */\n      tag_373\n      jumpi\n      mload(0x40)\n      0x08c379a000000000000000000000000000000000000000000000000000000000\n      dup2\n      mstore\n      0x04\n      add\n      tag_374\n      swap1\n      tag_375\n      jump\t// in\n    tag_374:\n      mload(0x40)\n      dup1\n      swap2\n      sub\n      swap1\n      revert\n    tag_373:\n        /* \"src/smartcontracts/CQTTokenSaleContractsol.sol\":4545:4546  0 */\n      0x00\n        /* \"src/smartcontracts/CQTTokenSaleContractsol.sol\":4518:4530  vestedAmount */\n      0x07\n        /* \"src/smartcontracts/CQTTokenSaleContractsol.sol\":4518:4542  vestedAmount[msg.sender] */\n      0x00\n        /* \"src/smartcontracts/CQTTokenSaleContractsol.sol\":4531:4541  msg.sender */\n      caller\n        /* \"src/smartcontracts/CQTTokenSaleContractsol.sol\":4518:4542  vestedAmount[msg.sender] */\n      0xffffffffffffffffffffffffffffffffffffffff\n      and\n      0xffffffffffffffffffffffffffffffffffffffff\n      and\n      dup2\n      mstore\n      0x20\n      add\n      swap1\n      dup2\n      mstore\n      0x20\n      add\n      0x00\n      keccak256\n        /* \"src/smartcontracts/CQTTokenSaleContractsol.sol\":4518:4546  vestedAmount[msg.sender] = 0 */\n      dup2\n      swap1\n      sstore\n      pop\n        /* \"src/smartcontracts/CQTTokenSaleContractsol.sol\":4557:4562  token */\n      0x09\n      0x00\n      swap1\n      sload\n      swap1\n      0x0100\n      exp\n      swap1\n      div\n      0xffffffffffffffffffffffffffffffffffffffff\n      and\n        /* \"src/smartcontracts/CQTTokenSaleContractsol.sol\":4557:4575  token.transferFrom */\n      0xffffffffffffffffffffffffffffffffffffffff\n      and\n      0x23b872dd\n        /* \"src/smartcontracts/CQTTokenSaleContractsol.sol\":4576:4588  proxyAddress */\n      0x0a\n      0x00\n      swap1\n      sload\n      swap1\n      0x0100\n      exp\n      swap1\n      div\n      0xffffffffffffffffffffffffffffffffffffffff\n      and\n        /* \"src/smartcontracts/CQTTokenSaleContractsol.sol\":4590:4600  msg.sender */\n      caller\n        /* \"src/smartcontracts/CQTTokenSaleContractsol.sol\":4602:4608  amount */\n      dup5\n        /* \"src/smartcontracts/CQTTokenSaleContractsol.sol\":4557:4609  token.transferFrom(proxyAddress, msg.sender, amount) */\n      mload(0x40)\n      dup5\n      0xffffffff\n      and\n      0xe0\n      shl\n      dup2\n      mstore\n      0x04\n      add\n      tag_376\n      swap4\n      swap3\n      swap2\n      swap1\n      tag_377\n      jump\t// in\n    tag_376:\n      0x20\n      mload(0x40)\n      dup1\n      dup4\n      sub\n      dup2\n      0x00\n      dup8\n      gas\n      call\n      iszero\n      dup1\n      iszero\n      tag_379\n      jumpi\n      returndatasize\n      0x00\n      dup1\n      returndatacopy\n      revert(0x00, returndatasize)\n    tag_379:\n      pop\n      pop\n      pop\n      pop\n      mload(0x40)\n      returndatasize\n      not(0x1f)\n      0x1f\n      dup3\n      add\n      and\n      dup3\n      add\n      dup1\n      0x40\n      mstore\n      pop\n      dup2\n      add\n      swap1\n      tag_380\n      swap2\n      swap1\n      tag_381\n      jump\t// in\n    tag_380:\n      pop\n        /* \"src/smartcontracts/CQTTokenSaleContractsol.sol\":4627:4661  TokensReleased(msg.sender, amount) */\n      0xc7798891864187665ac6dd119286e44ec13f014527aeeb2b8eb3fd413df93179\n        /* \"src/smartcontracts/CQTTokenSaleContractsol.sol\":4642:4652  msg.sender */\n      caller\n        /* \"src/smartcontracts/CQTTokenSaleContractsol.sol\":4654:4660  amount */\n      dup3\n        /* \"src/smartcontracts/CQTTokenSaleContractsol.sol\":4627:4661  TokensReleased(msg.sender, amount) */\n      mload(0x40)\n      tag_382\n      swap3\n      swap2\n      swap1\n      tag_308\n      jump\t// in\n    tag_382:\n      mload(0x40)\n      dup1\n      swap2\n      sub\n      swap1\n      log1\n        /* \"src/smartcontracts/CQTTokenSaleContractsol.sol\":4313:4669  {... */\n      pop\n        /* \"src/smartcontracts/CQTTokenSaleContractsol.sol\":4279:4669  function releaseTokens() external {... */\n      jump\t// out\n        /* \"@openzeppelin/contracts-upgradeable/proxy/utils/UUPSUpgradeable.sol\":1819:1877  string public constant UPGRADE_INTERFACE_VERSION = \"5.0.0\" */\n    tag_187:\n      mload(0x40)\n      dup1\n      0x40\n      add\n      0x40\n      mstore\n      dup1\n      0x05\n      dup2\n      mstore\n      0x20\n      add\n      0x352e302e30000000000000000000000000000000000000000000000000000000\n      dup2\n      mstore\n      pop\n      dup2\n      jump\t// out\n        /* \"src/smartcontracts/CQTTokenSaleContractsol.sol\":1216:1242  uint256 public releaseTime */\n    tag_192:\n      sload(0x05)\n      dup2\n      jump\t// out\n        /* \"src/smartcontracts/CQTTokenSaleContractsol.sol\":1067:1100  uint256 public tokenPriceInvestor */\n    tag_196:\n      sload(0x01)\n      dup2\n      jump\t// out\n        /* \"@openzeppelin/contracts-upgradeable/access/AccessControlUpgradeable.sol\":5662:5800  function revokeRole(bytes32 role, address account) public virtual onlyRole(getRoleAdmin(role)) {... */\n    tag_201:\n        /* \"@openzeppelin/contracts-upgradeable/access/AccessControlUpgradeable.sol\":5737:5755  getRoleAdmin(role) */\n      tag_383\n        /* \"@openzeppelin/contracts-upgradeable/access/AccessControlUpgradeable.sol\":5750:5754  role */\n      dup3\n        /* \"@openzeppelin/contracts-upgradeable/access/AccessControlUpgradeable.sol\":5737:5749  getRoleAdmin */\n      tag_90\n        /* \"@openzeppelin/contracts-upgradeable/access/AccessControlUpgradeable.sol\":5737:5755  getRoleAdmin(role) */\n      jump\t// in\n    tag_383:\n        /* \"@openzeppelin/contracts-upgradeable/access/AccessControlUpgradeable.sol\":3191:3207  _checkRole(role) */\n      tag_385\n        /* \"@openzeppelin/contracts-upgradeable/access/AccessControlUpgradeable.sol\":3202:3206  role */\n      dup2\n        /* \"@openzeppelin/contracts-upgradeable/access/AccessControlUpgradeable.sol\":3191:3201  _checkRole */\n      tag_229\n        /* \"@openzeppelin/contracts-upgradeable/access/AccessControlUpgradeable.sol\":3191:3207  _checkRole(role) */\n      jump\t// in\n    tag_385:\n        /* \"@openzeppelin/contracts-upgradeable/access/AccessControlUpgradeable.sol\":5767:5793  _revokeRole(role, account) */\n      tag_387\n        /* \"@openzeppelin/contracts-upgradeable/access/AccessControlUpgradeable.sol\":5779:5783  role */\n      dup4\n        /* \"@openzeppelin/contracts-upgradeable/access/AccessControlUpgradeable.sol\":5785:5792  account */\n      dup4\n        /* \"@openzeppelin/contracts-upgradeable/access/AccessControlUpgradeable.sol\":5767:5778  _revokeRole */\n      tag_261\n        /* \"@openzeppelin/contracts-upgradeable/access/AccessControlUpgradeable.sol\":5767:5793  _revokeRole(role, account) */\n      jump\t// in\n    tag_387:\n      pop\n        /* \"@openzeppelin/contracts-upgradeable/access/AccessControlUpgradeable.sol\":5662:5800  function revokeRole(bytes32 role, address account) public virtual onlyRole(getRoleAdmin(role)) {... */\n      pop\n      pop\n      pop\n      jump\t// out\n        /* \"src/smartcontracts/CQTTokenSaleContractsol.sol\":5558:5711  function setTotalCap(uint256 _newCap) external onlyRole(DEFAULT_ADMIN_ROLE) {... */\n    tag_205:\n        /* \"@openzeppelin/contracts-upgradeable/access/AccessControlUpgradeable.sol\":2362:2366  0x00 */\n      0x00\n        /* \"src/smartcontracts/CQTTokenSaleContractsol.sol\":5614:5632  DEFAULT_ADMIN_ROLE */\n      dup1\n      shl\n        /* \"@openzeppelin/contracts-upgradeable/access/AccessControlUpgradeable.sol\":3191:3207  _checkRole(role) */\n      tag_389\n        /* \"@openzeppelin/contracts-upgradeable/access/AccessControlUpgradeable.sol\":3202:3206  role */\n      dup2\n        /* \"@openzeppelin/contracts-upgradeable/access/AccessControlUpgradeable.sol\":3191:3201  _checkRole */\n      tag_229\n        /* \"@openzeppelin/contracts-upgradeable/access/AccessControlUpgradeable.sol\":3191:3207  _checkRole(role) */\n      jump\t// in\n    tag_389:\n        /* \"src/smartcontracts/CQTTokenSaleContractsol.sol\":5656:5663  _newCap */\n      dup2\n        /* \"src/smartcontracts/CQTTokenSaleContractsol.sol\":5645:5653  totalCap */\n      0x04\n        /* \"src/smartcontracts/CQTTokenSaleContractsol.sol\":5645:5663  totalCap = _newCap */\n      dup2\n      swap1\n      sstore\n      pop\n        /* \"src/smartcontracts/CQTTokenSaleContractsol.sol\":5679:5703  TotalCapUpdated(_newCap) */\n      0xf20cfd7e6ce3a0eb317cf0b06dcbc6ba40fb5bdd5ac92227bd1baa0d85c52f92\n        /* \"src/smartcontracts/CQTTokenSaleContractsol.sol\":5695:5702  _newCap */\n      dup3\n        /* \"src/smartcontracts/CQTTokenSaleContractsol.sol\":5679:5703  TotalCapUpdated(_newCap) */\n      mload(0x40)\n      tag_391\n      swap2\n      swap1\n      tag_76\n      jump\t// in\n    tag_391:\n      mload(0x40)\n      dup1\n      swap2\n      sub\n      swap1\n      log1\n        /* \"src/smartcontracts/CQTTokenSaleContractsol.sol\":5558:5711  function setTotalCap(uint256 _newCap) external onlyRole(DEFAULT_ADMIN_ROLE) {... */\n      pop\n      pop\n      jump\t// out\n        /* \"src/smartcontracts/CQTTokenSaleContractsol.sol\":732:794  bytes32 public constant PAUSER_ROLE = keccak256(\"PAUSER_ROLE\") */\n    tag_208:\n        /* \"src/smartcontracts/CQTTokenSaleContractsol.sol\":770:794  keccak256(\"PAUSER_ROLE\") */\n      0x65d7a28e3265b37a6474929f336521b332c1681b933f6cb9f3376673440d862a\n        /* \"src/smartcontracts/CQTTokenSaleContractsol.sol\":732:794  bytes32 public constant PAUSER_ROLE = keccak256(\"PAUSER_ROLE\") */\n      dup2\n      jump\t// out\n        /* \"src/smartcontracts/CQTTokenSaleContractsol.sol\":5719:5884  function addInvestor(address account) public onlyRole(DEFAULT_ADMIN_ROLE) {... */\n    tag_213:\n        /* \"@openzeppelin/contracts-upgradeable/access/AccessControlUpgradeable.sol\":2362:2366  0x00 */\n      0x00\n        /* \"src/smartcontracts/CQTTokenSaleContractsol.sol\":5773:5791  DEFAULT_ADMIN_ROLE */\n      dup1\n      shl\n        /* \"@openzeppelin/contracts-upgradeable/access/AccessControlUpgradeable.sol\":3191:3207  _checkRole(role) */\n      tag_393\n        /* \"@openzeppelin/contracts-upgradeable/access/AccessControlUpgradeable.sol\":3202:3206  role */\n      dup2\n        /* \"@openzeppelin/contracts-upgradeable/access/AccessControlUpgradeable.sol\":3191:3201  _checkRole */\n      tag_229\n        /* \"@openzeppelin/contracts-upgradeable/access/AccessControlUpgradeable.sol\":3191:3207  _checkRole(role) */\n      jump\t// in\n    tag_393:\n        /* \"src/smartcontracts/CQTTokenSaleContractsol.sol\":5804:5838  _grantRole(INVESTOR_ROLE, account) */\n      tag_395\n        /* \"src/smartcontracts/CQTTokenSaleContractsol.sol\":914:940  keccak256(\"INVESTOR_ROLE\") */\n      0xb165298935924f540e4181c03493a5d686c54a0aaeb3f6216de85b7ffbba7738\n        /* \"src/smartcontracts/CQTTokenSaleContractsol.sol\":5830:5837  account */\n      dup4\n        /* \"src/smartcontracts/CQTTokenSaleContractsol.sol\":5804:5814  _grantRole */\n      tag_268\n        /* \"src/smartcontracts/CQTTokenSaleContractsol.sol\":5804:5838  _grantRole(INVESTOR_ROLE, account) */\n      jump\t// in\n    tag_395:\n      pop\n        /* \"src/smartcontracts/CQTTokenSaleContractsol.sol\":5854:5876  InvestorAdded(account) */\n      0x62e6a5118be03f9bfedb79b0ed7ed75ee4a9e15fc4c69d2c4976acde26fa2d5f\n        /* \"src/smartcontracts/CQTTokenSaleContractsol.sol\":5868:5875  account */\n      dup3\n        /* \"src/smartcontracts/CQTTokenSaleContractsol.sol\":5854:5876  InvestorAdded(account) */\n      mload(0x40)\n      tag_396\n      swap2\n      swap1\n      tag_85\n      jump\t// in\n    tag_396:\n      mload(0x40)\n      dup1\n      swap2\n      sub\n      swap1\n      log1\n        /* \"src/smartcontracts/CQTTokenSaleContractsol.sol\":5719:5884  function addInvestor(address account) public onlyRole(DEFAULT_ADMIN_ROLE) {... */\n      pop\n      pop\n      jump\t// out\n        /* \"src/smartcontracts/CQTTokenSaleContractsol.sol\":801:867  bytes32 public constant UPGRADER_ROLE = keccak256(\"UPGRADER_ROLE\") */\n    tag_216:\n        /* \"src/smartcontracts/CQTTokenSaleContractsol.sol\":841:867  keccak256(\"UPGRADER_ROLE\") */\n      0x189ab7a9244df0848122154315af71fe140f3db0fe014031783b0946b8c9d2e3\n        /* \"src/smartcontracts/CQTTokenSaleContractsol.sol\":801:867  bytes32 public constant UPGRADER_ROLE = keccak256(\"UPGRADER_ROLE\") */\n      dup2\n      jump\t// out\n        /* \"src/smartcontracts/CQTTokenSaleContractsol.sol\":1419:1438  IERC20 public token */\n    tag_220:\n      0x09\n      0x00\n      swap1\n      sload\n      swap1\n      0x0100\n      exp\n      swap1\n      div\n      0xffffffffffffffffffffffffffffffffffffffff\n      and\n      dup2\n      jump\t// out\n        /* \"@openzeppelin/contracts-upgradeable/utils/introspection/ERC165Upgradeable.sol\":1034:1180  function supportsInterface(bytes4 interfaceId) public view virtual returns (bool) {... */\n    tag_226:\n        /* \"@openzeppelin/contracts-upgradeable/utils/introspection/ERC165Upgradeable.sol\":1110:1114  bool */\n      0x00\n        /* \"@openzeppelin/contracts-upgradeable/utils/introspection/ERC165Upgradeable.sol\":1148:1173  type(IERC165).interfaceId */\n      0x01ffc9a700000000000000000000000000000000000000000000000000000000\n        /* \"@openzeppelin/contracts-upgradeable/utils/introspection/ERC165Upgradeable.sol\":1133:1173  interfaceId == type(IERC165).interfaceId */\n      not(0xffffffffffffffffffffffffffffffffffffffffffffffffffffffff)\n      and\n        /* \"@openzeppelin/contracts-upgradeable/utils/introspection/ERC165Upgradeable.sol\":1133:1144  interfaceId */\n      dup3\n        /* \"@openzeppelin/contracts-upgradeable/utils/introspection/ERC165Upgradeable.sol\":1133:1173  interfaceId == type(IERC165).interfaceId */\n      not(0xffffffffffffffffffffffffffffffffffffffffffffffffffffffff)\n      and\n      eq\n        /* \"@openzeppelin/contracts-upgradeable/utils/introspection/ERC165Upgradeable.sol\":1126:1173  return interfaceId == type(IERC165).interfaceId */\n      swap1\n      pop\n        /* \"@openzeppelin/contracts-upgradeable/utils/introspection/ERC165Upgradeable.sol\":1034:1180  function supportsInterface(bytes4 interfaceId) public view virtual returns (bool) {... */\n      swap2\n      swap1\n      pop\n      jump\t// out\n        /* \"@openzeppelin/contracts-upgradeable/access/AccessControlUpgradeable.sol\":4148:4251  function _checkRole(bytes32 role) internal view virtual {... */\n    tag_229:\n        /* \"@openzeppelin/contracts-upgradeable/access/AccessControlUpgradeable.sol\":4214:4244  _checkRole(role, _msgSender()) */\n      tag_399\n        /* \"@openzeppelin/contracts-upgradeable/access/AccessControlUpgradeable.sol\":4225:4229  role */\n      dup2\n        /* \"@openzeppelin/contracts-upgradeable/access/AccessControlUpgradeable.sol\":4231:4243  _msgSender() */\n      tag_400\n        /* \"@openzeppelin/contracts-upgradeable/access/AccessControlUpgradeable.sol\":4231:4241  _msgSender */\n      tag_299\n        /* \"@openzeppelin/contracts-upgradeable/access/AccessControlUpgradeable.sol\":4231:4243  _msgSender() */\n      jump\t// in\n    tag_400:\n        /* \"@openzeppelin/contracts-upgradeable/access/AccessControlUpgradeable.sol\":4214:4224  _checkRole */\n      tag_401\n        /* \"@openzeppelin/contracts-upgradeable/access/AccessControlUpgradeable.sol\":4214:4244  _checkRole(role, _msgSender()) */\n      jump\t// in\n    tag_399:\n        /* \"@openzeppelin/contracts-upgradeable/access/AccessControlUpgradeable.sol\":4148:4251  function _checkRole(bytes32 role) internal view virtual {... */\n      pop\n      jump\t// out\n        /* \"@openzeppelin/contracts-upgradeable/access/AccessControlUpgradeable.sol\":2787:2964  function _getAccessControlStorage() private pure returns (AccessControlStorage storage $) {... */\n    tag_253:\n        /* \"@openzeppelin/contracts-upgradeable/access/AccessControlUpgradeable.sol\":2845:2875  AccessControlStorage storage $ */\n      0x00\n        /* \"@openzeppelin/contracts-upgradeable/access/AccessControlUpgradeable.sol\":2920:2948  AccessControlStorageLocation */\n      0x02dd7bc7dec4dceedda775e58dd541e08a116c6c53815c0bd028192f7b626800\n        /* \"@openzeppelin/contracts-upgradeable/access/AccessControlUpgradeable.sol\":2910:2948  $.slot := AccessControlStorageLocation */\n      swap1\n      pop\n        /* \"@openzeppelin/contracts-upgradeable/access/AccessControlUpgradeable.sol\":2787:2964  function _getAccessControlStorage() private pure returns (AccessControlStorage storage $) {... */\n      swap1\n      jump\t// out\n        /* \"@openzeppelin/contracts-upgradeable/access/AccessControlUpgradeable.sol\":7892:8280  function _revokeRole(bytes32 role, address account) internal virtual returns (bool) {... */\n    tag_261:\n        /* \"@openzeppelin/contracts-upgradeable/access/AccessControlUpgradeable.sol\":7970:7974  bool */\n      0x00\n        /* \"@openzeppelin/contracts-upgradeable/access/AccessControlUpgradeable.sol\":7986:8016  AccessControlStorage storage $ */\n      dup1\n        /* \"@openzeppelin/contracts-upgradeable/access/AccessControlUpgradeable.sol\":8019:8045  _getAccessControlStorage() */\n      tag_404\n        /* \"@openzeppelin/contracts-upgradeable/access/AccessControlUpgradeable.sol\":8019:8043  _getAccessControlStorage */\n      tag_253\n        /* \"@openzeppelin/contracts-upgradeable/access/AccessControlUpgradeable.sol\":8019:8045  _getAccessControlStorage() */\n      jump\t// in\n    tag_404:\n        /* \"@openzeppelin/contracts-upgradeable/access/AccessControlUpgradeable.sol\":7986:8045  AccessControlStorage storage $ = _getAccessControlStorage() */\n      swap1\n      pop\n        /* \"@openzeppelin/contracts-upgradeable/access/AccessControlUpgradeable.sol\":8059:8081  hasRole(role, account) */\n      tag_405\n        /* \"@openzeppelin/contracts-upgradeable/access/AccessControlUpgradeable.sol\":8067:8071  role */\n      dup5\n        /* \"@openzeppelin/contracts-upgradeable/access/AccessControlUpgradeable.sol\":8073:8080  account */\n      dup5\n        /* \"@openzeppelin/contracts-upgradeable/access/AccessControlUpgradeable.sol\":8059:8066  hasRole */\n      tag_176\n        /* \"@openzeppelin/contracts-upgradeable/access/AccessControlUpgradeable.sol\":8059:8081  hasRole(role, account) */\n      jump\t// in\n    tag_405:\n        /* \"@openzeppelin/contracts-upgradeable/access/AccessControlUpgradeable.sol\":8055:8274  if (hasRole(role, account)) {... */\n      iszero\n      tag_406\n      jumpi\n        /* \"@openzeppelin/contracts-upgradeable/access/AccessControlUpgradeable.sol\":8131:8136  false */\n      0x00\n        /* \"@openzeppelin/contracts-upgradeable/access/AccessControlUpgradeable.sol\":8097:8098  $ */\n      dup2\n        /* \"@openzeppelin/contracts-upgradeable/access/AccessControlUpgradeable.sol\":8097:8105  $._roles */\n      0x00\n      add\n        /* \"@openzeppelin/contracts-upgradeable/access/AccessControlUpgradeable.sol\":8097:8111  $._roles[role] */\n      0x00\n        /* \"@openzeppelin/contracts-upgradeable/access/AccessControlUpgradeable.sol\":8106:8110  role */\n      dup7\n        /* \"@openzeppelin/contracts-upgradeable/access/AccessControlUpgradeable.sol\":8097:8111  $._roles[role] */\n      dup2\n      mstore\n      0x20\n      add\n      swap1\n      dup2\n      mstore\n      0x20\n      add\n      0x00\n      keccak256\n        /* \"@openzeppelin/contracts-upgradeable/access/AccessControlUpgradeable.sol\":8097:8119  $._roles[role].hasRole */\n      0x00\n      add\n        /* \"@openzeppelin/contracts-upgradeable/access/AccessControlUpgradeable.sol\":8097:8128  $._roles[role].hasRole[account] */\n      0x00\n        /* \"@openzeppelin/contracts-upgradeable/access/AccessControlUpgradeable.sol\":8120:8127  account */\n      dup6\n        /* \"@openzeppelin/contracts-upgradeable/access/AccessControlUpgradeable.sol\":8097:8128  $._roles[role].hasRole[account] */\n      0xffffffffffffffffffffffffffffffffffffffff\n      and\n      0xffffffffffffffffffffffffffffffffffffffff\n      and\n      dup2\n      mstore\n      0x20\n      add\n      swap1\n      dup2\n      mstore\n      0x20\n      add\n      0x00\n      keccak256\n      0x00\n        /* \"@openzeppelin/contracts-upgradeable/access/AccessControlUpgradeable.sol\":8097:8136  $._roles[role].hasRole[account] = false */\n      0x0100\n      exp\n      dup2\n      sload\n      dup2\n      0xff\n      mul\n      not\n      and\n      swap1\n      dup4\n      iszero\n      iszero\n      mul\n      or\n      swap1\n      sstore\n      pop\n        /* \"@openzeppelin/contracts-upgradeable/access/AccessControlUpgradeable.sol\":8182:8194  _msgSender() */\n      tag_407\n        /* \"@openzeppelin/contracts-upgradeable/access/AccessControlUpgradeable.sol\":8182:8192  _msgSender */\n      tag_299\n        /* \"@openzeppelin/contracts-upgradeable/access/AccessControlUpgradeable.sol\":8182:8194  _msgSender() */\n      jump\t// in\n    tag_407:\n        /* \"@openzeppelin/contracts-upgradeable/access/AccessControlUpgradeable.sol\":8155:8195  RoleRevoked(role, account, _msgSender()) */\n      0xffffffffffffffffffffffffffffffffffffffff\n      and\n        /* \"@openzeppelin/contracts-upgradeable/access/AccessControlUpgradeable.sol\":8173:8180  account */\n      dup4\n        /* \"@openzeppelin/contracts-upgradeable/access/AccessControlUpgradeable.sol\":8155:8195  RoleRevoked(role, account, _msgSender()) */\n      0xffffffffffffffffffffffffffffffffffffffff\n      and\n        /* \"@openzeppelin/contracts-upgradeable/access/AccessControlUpgradeable.sol\":8167:8171  role */\n      dup6\n        /* \"@openzeppelin/contracts-upgradeable/access/AccessControlUpgradeable.sol\":8155:8195  RoleRevoked(role, account, _msgSender()) */\n      0xf6391f5c32d9c69d2a47ea670b442974b53935d1edc7fd64eb21e047a839171b\n      mload(0x40)\n      mload(0x40)\n      dup1\n      swap2\n      sub\n      swap1\n      log4\n        /* \"@openzeppelin/contracts-upgradeable/access/AccessControlUpgradeable.sol\":8216:8220  true */\n      0x01\n        /* \"@openzeppelin/contracts-upgradeable/access/AccessControlUpgradeable.sol\":8209:8220  return true */\n      swap2\n      pop\n      pop\n      jump(tag_403)\n        /* \"@openzeppelin/contracts-upgradeable/access/AccessControlUpgradeable.sol\":8055:8274  if (hasRole(role, account)) {... */\n    tag_406:\n        /* \"@openzeppelin/contracts-upgradeable/access/AccessControlUpgradeable.sol\":8258:8263  false */\n      0x00\n        /* \"@openzeppelin/contracts-upgradeable/access/AccessControlUpgradeable.sol\":8251:8263  return false */\n      swap2\n      pop\n      pop\n        /* \"@openzeppelin/contracts-upgradeable/access/AccessControlUpgradeable.sol\":7892:8280  function _revokeRole(bytes32 role, address account) internal virtual returns (bool) {... */\n    tag_403:\n      swap3\n      swap2\n      pop\n      pop\n      jump\t// out\n        /* \"@openzeppelin/contracts-upgradeable/access/AccessControlUpgradeable.sol\":7270:7657  function _grantRole(bytes32 role, address account) internal virtual returns (bool) {... */\n    tag_268:\n        /* \"@openzeppelin/contracts-upgradeable/access/AccessControlUpgradeable.sol\":7347:7351  bool */\n      0x00\n        /* \"@openzeppelin/contracts-upgradeable/access/AccessControlUpgradeable.sol\":7363:7393  AccessControlStorage storage $ */\n      dup1\n        /* \"@openzeppelin/contracts-upgradeable/access/AccessControlUpgradeable.sol\":7396:7422  _getAccessControlStorage() */\n      tag_410\n        /* \"@openzeppelin/contracts-upgradeable/access/AccessControlUpgradeable.sol\":7396:7420  _getAccessControlStorage */\n      tag_253\n        /* \"@openzeppelin/contracts-upgradeable/access/AccessControlUpgradeable.sol\":7396:7422  _getAccessControlStorage() */\n      jump\t// in\n    tag_410:\n        /* \"@openzeppelin/contracts-upgradeable/access/AccessControlUpgradeable.sol\":7363:7422  AccessControlStorage storage $ = _getAccessControlStorage() */\n      swap1\n      pop\n        /* \"@openzeppelin/contracts-upgradeable/access/AccessControlUpgradeable.sol\":7437:7459  hasRole(role, account) */\n      tag_411\n        /* \"@openzeppelin/contracts-upgradeable/access/AccessControlUpgradeable.sol\":7445:7449  role */\n      dup5\n        /* \"@openzeppelin/contracts-upgradeable/access/AccessControlUpgradeable.sol\":7451:7458  account */\n      dup5\n        /* \"@openzeppelin/contracts-upgradeable/access/AccessControlUpgradeable.sol\":7437:7444  hasRole */\n      tag_176\n        /* \"@openzeppelin/contracts-upgradeable/access/AccessControlUpgradeable.sol\":7437:7459  hasRole(role, account) */\n      jump\t// in\n    tag_411:\n        /* \"@openzeppelin/contracts-upgradeable/access/AccessControlUpgradeable.sol\":7432:7651  if (!hasRole(role, account)) {... */\n      tag_412\n      jumpi\n        /* \"@openzeppelin/contracts-upgradeable/access/AccessControlUpgradeable.sol\":7509:7513  true */\n      0x01\n        /* \"@openzeppelin/contracts-upgradeable/access/AccessControlUpgradeable.sol\":7475:7476  $ */\n      dup2\n        /* \"@openzeppelin/contracts-upgradeable/access/AccessControlUpgradeable.sol\":7475:7483  $._roles */\n      0x00\n      add\n        /* \"@openzeppelin/contracts-upgradeable/access/AccessControlUpgradeable.sol\":7475:7489  $._roles[role] */\n      0x00\n        /* \"@openzeppelin/contracts-upgradeable/access/AccessControlUpgradeable.sol\":7484:7488  role */\n      dup7\n        /* \"@openzeppelin/contracts-upgradeable/access/AccessControlUpgradeable.sol\":7475:7489  $._roles[role] */\n      dup2\n      mstore\n      0x20\n      add\n      swap1\n      dup2\n      mstore\n      0x20\n      add\n      0x00\n      keccak256\n        /* \"@openzeppelin/contracts-upgradeable/access/AccessControlUpgradeable.sol\":7475:7497  $._roles[role].hasRole */\n      0x00\n      add\n        /* \"@openzeppelin/contracts-upgradeable/access/AccessControlUpgradeable.sol\":7475:7506  $._roles[role].hasRole[account] */\n      0x00\n        /* \"@openzeppelin/contracts-upgradeable/access/AccessControlUpgradeable.sol\":7498:7505  account */\n      dup6\n        /* \"@openzeppelin/contracts-upgradeable/access/AccessControlUpgradeable.sol\":7475:7506  $._roles[role].hasRole[account] */\n      0xffffffffffffffffffffffffffffffffffffffff\n      and\n      0xffffffffffffffffffffffffffffffffffffffff\n      and\n      dup2\n      mstore\n      0x20\n      add\n      swap1\n      dup2\n      mstore\n      0x20\n      add\n      0x00\n      keccak256\n      0x00\n        /* \"@openzeppelin/contracts-upgradeable/access/AccessControlUpgradeable.sol\":7475:7513  $._roles[role].hasRole[account] = true */\n      0x0100\n      exp\n      dup2\n      sload\n      dup2\n      0xff\n      mul\n      not\n      and\n      swap1\n      dup4\n      iszero\n      iszero\n      mul\n      or\n      swap1\n      sstore\n      pop\n        /* \"@openzeppelin/contracts-upgradeable/access/AccessControlUpgradeable.sol\":7559:7571  _msgSender() */\n      tag_413\n        /* \"@openzeppelin/contracts-upgradeable/access/AccessControlUpgradeable.sol\":7559:7569  _msgSender */\n      tag_299\n        /* \"@openzeppelin/contracts-upgradeable/access/AccessControlUpgradeable.sol\":7559:7571  _msgSender() */\n      jump\t// in\n    tag_413:\n        /* \"@openzeppelin/contracts-upgradeable/access/AccessControlUpgradeable.sol\":7532:7572  RoleGranted(role, account, _msgSender()) */\n      0xffffffffffffffffffffffffffffffffffffffff\n      and\n        /* \"@openzeppelin/contracts-upgradeable/access/AccessControlUpgradeable.sol\":7550:7557  account */\n      dup4\n        /* \"@openzeppelin/contracts-upgradeable/access/AccessControlUpgradeable.sol\":7532:7572  RoleGranted(role, account, _msgSender()) */\n      0xffffffffffffffffffffffffffffffffffffffff\n      and\n        /* \"@openzeppelin/contracts-upgradeable/access/AccessControlUpgradeable.sol\":7544:7548  role */\n      dup6\n        /* \"@openzeppelin/contracts-upgradeable/access/AccessControlUpgradeable.sol\":7532:7572  RoleGranted(role, account, _msgSender()) */\n      0x2f8788117e7eff1d82e926ec794901d17c78024a50270940304540a733656f0d\n      mload(0x40)\n      mload(0x40)\n      dup1\n      swap2\n      sub\n      swap1\n      log4\n        /* \"@openzeppelin/contracts-upgradeable/access/AccessControlUpgradeable.sol\":7593:7597  true */\n      0x01\n        /* \"@openzeppelin/contracts-upgradeable/access/AccessControlUpgradeable.sol\":7586:7597  return true */\n      swap2\n      pop\n      pop\n      jump(tag_409)\n        /* \"@openzeppelin/contracts-upgradeable/access/AccessControlUpgradeable.sol\":7432:7651  if (!hasRole(role, account)) {... */\n    tag_412:\n        /* \"@openzeppelin/contracts-upgradeable/access/AccessControlUpgradeable.sol\":7635:7640  false */\n      0x00\n        /* \"@openzeppelin/contracts-upgradeable/access/AccessControlUpgradeable.sol\":7628:7640  return false */\n      swap2\n      pop\n      pop\n        /* \"@openzeppelin/contracts-upgradeable/access/AccessControlUpgradeable.sol\":7270:7657  function _grantRole(bytes32 role, address account) internal virtual returns (bool) {... */\n    tag_409:\n      swap3\n      swap2\n      pop\n      pop\n      jump\t// out\n        /* \"@openzeppelin/contracts-upgradeable/utils/PausableUpgradeable.sol\":2905:3033  function _requireNotPaused() internal view virtual {... */\n    tag_271:\n        /* \"@openzeppelin/contracts-upgradeable/utils/PausableUpgradeable.sol\":2970:2978  paused() */\n      tag_416\n        /* \"@openzeppelin/contracts-upgradeable/utils/PausableUpgradeable.sol\":2970:2976  paused */\n      tag_156\n        /* \"@openzeppelin/contracts-upgradeable/utils/PausableUpgradeable.sol\":2970:2978  paused() */\n      jump\t// in\n    tag_416:\n        /* \"@openzeppelin/contracts-upgradeable/utils/PausableUpgradeable.sol\":2966:3027  if (paused()) {... */\n      iszero\n      tag_417\n      jumpi\n        /* \"@openzeppelin/contracts-upgradeable/utils/PausableUpgradeable.sol\":3001:3016  EnforcedPause() */\n      mload(0x40)\n      0xd93c066500000000000000000000000000000000000000000000000000000000\n      dup2\n      mstore\n      0x04\n      add\n      mload(0x40)\n      dup1\n      swap2\n      sub\n      swap1\n      revert\n        /* \"@openzeppelin/contracts-upgradeable/utils/PausableUpgradeable.sol\":2966:3027  if (paused()) {... */\n    tag_417:\n        /* \"@openzeppelin/contracts-upgradeable/utils/PausableUpgradeable.sol\":2905:3033  function _requireNotPaused() internal view virtual {... */\n      jump\t// out\n        /* \"@openzeppelin/contracts-upgradeable/utils/ContextUpgradeable.sol\":887:983  function _msgSender() internal view virtual returns (address) {... */\n    tag_299:\n        /* \"@openzeppelin/contracts-upgradeable/utils/ContextUpgradeable.sol\":940:947  address */\n      0x00\n        /* \"@openzeppelin/contracts-upgradeable/utils/ContextUpgradeable.sol\":966:976  msg.sender */\n      caller\n        /* \"@openzeppelin/contracts-upgradeable/utils/ContextUpgradeable.sol\":959:976  return msg.sender */\n      swap1\n      pop\n        /* \"@openzeppelin/contracts-upgradeable/utils/ContextUpgradeable.sol\":887:983  function _msgSender() internal view virtual returns (address) {... */\n      swap1\n      jump\t// out\n        /* \"@openzeppelin/contracts-upgradeable/utils/PausableUpgradeable.sol\":3674:3852  function _unpause() internal virtual whenPaused {... */\n    tag_313:\n        /* \"@openzeppelin/contracts-upgradeable/utils/PausableUpgradeable.sol\":2563:2579  _requirePaused() */\n      tag_420\n        /* \"@openzeppelin/contracts-upgradeable/utils/PausableUpgradeable.sol\":2563:2577  _requirePaused */\n      tag_421\n        /* \"@openzeppelin/contracts-upgradeable/utils/PausableUpgradeable.sol\":2563:2579  _requirePaused() */\n      jump\t// in\n    tag_420:\n        /* \"@openzeppelin/contracts-upgradeable/utils/PausableUpgradeable.sol\":3732:3757  PausableStorage storage $ */\n      0x00\n        /* \"@openzeppelin/contracts-upgradeable/utils/PausableUpgradeable.sol\":3760:3781  _getPausableStorage() */\n      tag_423\n        /* \"@openzeppelin/contracts-upgradeable/utils/PausableUpgradeable.sol\":3760:3779  _getPausableStorage */\n      tag_358\n        /* \"@openzeppelin/contracts-upgradeable/utils/PausableUpgradeable.sol\":3760:3781  _getPausableStorage() */\n      jump\t// in\n    tag_423:\n        /* \"@openzeppelin/contracts-upgradeable/utils/PausableUpgradeable.sol\":3732:3781  PausableStorage storage $ = _getPausableStorage() */\n      swap1\n      pop\n        /* \"@openzeppelin/contracts-upgradeable/utils/PausableUpgradeable.sol\":3803:3808  false */\n      0x00\n        /* \"@openzeppelin/contracts-upgradeable/utils/PausableUpgradeable.sol\":3791:3792  $ */\n      dup2\n        /* \"@openzeppelin/contracts-upgradeable/utils/PausableUpgradeable.sol\":3791:3800  $._paused */\n      0x00\n      add\n      0x00\n        /* \"@openzeppelin/contracts-upgradeable/utils/PausableUpgradeable.sol\":3791:3808  $._paused = false */\n      0x0100\n      exp\n      dup2\n      sload\n      dup2\n      0xff\n      mul\n      not\n      and\n      swap1\n      dup4\n      iszero\n      iszero\n      mul\n      or\n      swap1\n      sstore\n      pop\n        /* \"@openzeppelin/contracts-upgradeable/utils/PausableUpgradeable.sol\":3823:3845  Unpaused(_msgSender()) */\n      0x5db9ee0a495bf2e6ff9c91a7834c1ba4fdd244a5e8aa4e537bd38aeae4b073aa\n        /* \"@openzeppelin/contracts-upgradeable/utils/PausableUpgradeable.sol\":3832:3844  _msgSender() */\n      tag_424\n        /* \"@openzeppelin/contracts-upgradeable/utils/PausableUpgradeable.sol\":3832:3842  _msgSender */\n      tag_299\n        /* \"@openzeppelin/contracts-upgradeable/utils/PausableUpgradeable.sol\":3832:3844  _msgSender() */\n      jump\t// in\n    tag_424:\n        /* \"@openzeppelin/contracts-upgradeable/utils/PausableUpgradeable.sol\":3823:3845  Unpaused(_msgSender()) */\n      mload(0x40)\n      tag_425\n      swap2\n      swap1\n      tag_85\n      jump\t// in\n    tag_425:\n      mload(0x40)\n      dup1\n      swap2\n      sub\n      swap1\n      log1\n        /* \"@openzeppelin/contracts-upgradeable/utils/PausableUpgradeable.sol\":3722:3852  {... */\n      pop\n        /* \"@openzeppelin/contracts-upgradeable/utils/PausableUpgradeable.sol\":3674:3852  function _unpause() internal virtual whenPaused {... */\n      jump\t// out\n        /* \"@openzeppelin/contracts-upgradeable/proxy/utils/Initializable.sol\":8737:8907  function _getInitializableStorage() private pure returns (InitializableStorage storage $) {... */\n    tag_321:\n        /* \"@openzeppelin/contracts-upgradeable/proxy/utils/Initializable.sol\":8795:8825  InitializableStorage storage $ */\n      0x00\n        /* \"@openzeppelin/contracts-upgradeable/proxy/utils/Initializable.sol\":8870:8891  INITIALIZABLE_STORAGE */\n      0xf0c57e16840df040f15088dc2f81fe391c3923bec73e23a9662efc9c229c6a00\n        /* \"@openzeppelin/contracts-upgradeable/proxy/utils/Initializable.sol\":8860:8891  $.slot := INITIALIZABLE_STORAGE */\n      swap1\n      pop\n        /* \"@openzeppelin/contracts-upgradeable/proxy/utils/Initializable.sol\":8737:8907  function _getInitializableStorage() private pure returns (InitializableStorage storage $) {... */\n      swap1\n      jump\t// out\n        /* \"@openzeppelin/contracts-upgradeable/utils/PausableUpgradeable.sol\":1836:1933  function __Pausable_init() internal onlyInitializing {... */\n    tag_329:\n        /* \"@openzeppelin/contracts-upgradeable/proxy/utils/Initializable.sol\":6931:6951  _checkInitializing() */\n      tag_428\n        /* \"@openzeppelin/contracts-upgradeable/proxy/utils/Initializable.sol\":6931:6949  _checkInitializing */\n      tag_429\n        /* \"@openzeppelin/contracts-upgradeable/proxy/utils/Initializable.sol\":6931:6951  _checkInitializing() */\n      jump\t// in\n    tag_428:\n        /* \"@openzeppelin/contracts-upgradeable/utils/PausableUpgradeable.sol\":1899:1926  __Pausable_init_unchained() */\n      tag_431\n        /* \"@openzeppelin/contracts-upgradeable/utils/PausableUpgradeable.sol\":1899:1924  __Pausable_init_unchained */\n      tag_432\n        /* \"@openzeppelin/contracts-upgradeable/utils/PausableUpgradeable.sol\":1899:1926  __Pausable_init_unchained() */\n      jump\t// in\n    tag_431:\n        /* \"@openzeppelin/contracts-upgradeable/utils/PausableUpgradeable.sol\":1836:1933  function __Pausable_init() internal onlyInitializing {... */\n      jump\t// out\n        /* \"@openzeppelin/contracts-upgradeable/access/AccessControlUpgradeable.sol\":3231:3296  function __AccessControl_init() internal onlyInitializing {... */\n    tag_331:\n        /* \"@openzeppelin/contracts-upgradeable/proxy/utils/Initializable.sol\":6931:6951  _checkInitializing() */\n      tag_434\n        /* \"@openzeppelin/contracts-upgradeable/proxy/utils/Initializable.sol\":6931:6949  _checkInitializing */\n      tag_429\n        /* \"@openzeppelin/contracts-upgradeable/proxy/utils/Initializable.sol\":6931:6951  _checkInitializing() */\n      jump\t// in\n    tag_434:\n        /* \"@openzeppelin/contracts-upgradeable/access/AccessControlUpgradeable.sol\":3231:3296  function __AccessControl_init() internal onlyInitializing {... */\n      jump\t// out\n        /* \"@openzeppelin/contracts-upgradeable/proxy/utils/UUPSUpgradeable.sol\":2968:3035  function __UUPSUpgradeable_init() internal onlyInitializing {... */\n    tag_333:\n        /* \"@openzeppelin/contracts-upgradeable/proxy/utils/Initializable.sol\":6931:6951  _checkInitializing() */\n      tag_437\n        /* \"@openzeppelin/contracts-upgradeable/proxy/utils/Initializable.sol\":6931:6949  _checkInitializing */\n      tag_429\n        /* \"@openzeppelin/contracts-upgradeable/proxy/utils/Initializable.sol\":6931:6951  _checkInitializing() */\n      jump\t// in\n    tag_437:\n        /* \"@openzeppelin/contracts-upgradeable/proxy/utils/UUPSUpgradeable.sol\":2968:3035  function __UUPSUpgradeable_init() internal onlyInitializing {... */\n      jump\t// out\n        /* \"src/smartcontracts/CQTTokenSaleContractsol.sol\":3076:3318  function _initializeRoles(address defaultAdmin, address pauser, address upgrader) internal {... */\n    tag_335:\n        /* \"src/smartcontracts/CQTTokenSaleContractsol.sol\":3178:3222  _grantRole(DEFAULT_ADMIN_ROLE, defaultAdmin) */\n      tag_440\n        /* \"@openzeppelin/contracts-upgradeable/access/AccessControlUpgradeable.sol\":2362:2366  0x00 */\n      0x00\n        /* \"src/smartcontracts/CQTTokenSaleContractsol.sol\":3189:3207  DEFAULT_ADMIN_ROLE */\n      dup1\n      shl\n        /* \"src/smartcontracts/CQTTokenSaleContractsol.sol\":3209:3221  defaultAdmin */\n      dup5\n        /* \"src/smartcontracts/CQTTokenSaleContractsol.sol\":3178:3188  _grantRole */\n      tag_268\n        /* \"src/smartcontracts/CQTTokenSaleContractsol.sol\":3178:3222  _grantRole(DEFAULT_ADMIN_ROLE, defaultAdmin) */\n      jump\t// in\n    tag_440:\n      pop\n        /* \"src/smartcontracts/CQTTokenSaleContractsol.sol\":3233:3264  _grantRole(PAUSER_ROLE, pauser) */\n      tag_441\n        /* \"src/smartcontracts/CQTTokenSaleContractsol.sol\":770:794  keccak256(\"PAUSER_ROLE\") */\n      0x65d7a28e3265b37a6474929f336521b332c1681b933f6cb9f3376673440d862a\n        /* \"src/smartcontracts/CQTTokenSaleContractsol.sol\":3257:3263  pauser */\n      dup4\n        /* \"src/smartcontracts/CQTTokenSaleContractsol.sol\":3233:3243  _grantRole */\n      tag_268\n        /* \"src/smartcontracts/CQTTokenSaleContractsol.sol\":3233:3264  _grantRole(PAUSER_ROLE, pauser) */\n      jump\t// in\n    tag_441:\n      pop\n        /* \"src/smartcontracts/CQTTokenSaleContractsol.sol\":3275:3310  _grantRole(UPGRADER_ROLE, upgrader) */\n      tag_442\n        /* \"src/smartcontracts/CQTTokenSaleContractsol.sol\":841:867  keccak256(\"UPGRADER_ROLE\") */\n      0x189ab7a9244df0848122154315af71fe140f3db0fe014031783b0946b8c9d2e3\n        /* \"src/smartcontracts/CQTTokenSaleContractsol.sol\":3301:3309  upgrader */\n      dup3\n        /* \"src/smartcontracts/CQTTokenSaleContractsol.sol\":3275:3285  _grantRole */\n      tag_268\n        /* \"src/smartcontracts/CQTTokenSaleContractsol.sol\":3275:3310  _grantRole(UPGRADER_ROLE, upgrader) */\n      jump\t// in\n    tag_442:\n      pop\n        /* \"src/smartcontracts/CQTTokenSaleContractsol.sol\":3076:3318  function _initializeRoles(address defaultAdmin, address pauser, address upgrader) internal {... */\n      pop\n      pop\n      pop\n      jump\t// out\n        /* \"@openzeppelin/contracts-upgradeable/proxy/utils/UUPSUpgradeable.sol\":4599:4911  function _checkProxy() internal view virtual {... */\n    tag_341:\n        /* \"@openzeppelin/contracts-upgradeable/proxy/utils/UUPSUpgradeable.sol\":4688:4694  __self */\n      immutable(\"0x3b04ad91523c4dcf551e081621e633b9099d51bf9c5461e58c3bc7354a578b27\")\n        /* \"@openzeppelin/contracts-upgradeable/proxy/utils/UUPSUpgradeable.sol\":4671:4694  address(this) == __self */\n      0xffffffffffffffffffffffffffffffffffffffff\n      and\n        /* \"@openzeppelin/contracts-upgradeable/proxy/utils/UUPSUpgradeable.sol\":4679:4683  this */\n      address\n        /* \"@openzeppelin/contracts-upgradeable/proxy/utils/UUPSUpgradeable.sol\":4671:4694  address(this) == __self */\n      0xffffffffffffffffffffffffffffffffffffffff\n      and\n      eq\n        /* \"@openzeppelin/contracts-upgradeable/proxy/utils/UUPSUpgradeable.sol\":4671:4791  address(this) == __self || // Must be called through delegatecall... */\n      dup1\n      tag_444\n      jumpi\n      pop\n        /* \"@openzeppelin/contracts-upgradeable/proxy/utils/UUPSUpgradeable.sol\":4785:4791  __self */\n      immutable(\"0x3b04ad91523c4dcf551e081621e633b9099d51bf9c5461e58c3bc7354a578b27\")\n        /* \"@openzeppelin/contracts-upgradeable/proxy/utils/UUPSUpgradeable.sol\":4749:4791  ERC1967Utils.getImplementation() != __self */\n      0xffffffffffffffffffffffffffffffffffffffff\n      and\n        /* \"@openzeppelin/contracts-upgradeable/proxy/utils/UUPSUpgradeable.sol\":4749:4781  ERC1967Utils.getImplementation() */\n      tag_445\n        /* \"@openzeppelin/contracts-upgradeable/proxy/utils/UUPSUpgradeable.sol\":4749:4779  ERC1967Utils.getImplementation */\n      tag_446\n        /* \"@openzeppelin/contracts-upgradeable/proxy/utils/UUPSUpgradeable.sol\":4749:4781  ERC1967Utils.getImplementation() */\n      jump\t// in\n    tag_445:\n        /* \"@openzeppelin/contracts-upgradeable/proxy/utils/UUPSUpgradeable.sol\":4749:4791  ERC1967Utils.getImplementation() != __self */\n      0xffffffffffffffffffffffffffffffffffffffff\n      and\n      eq\n      iszero\n        /* \"@openzeppelin/contracts-upgradeable/proxy/utils/UUPSUpgradeable.sol\":4671:4791  address(this) == __self || // Must be called through delegatecall... */\n    tag_444:\n        /* \"@openzeppelin/contracts-upgradeable/proxy/utils/UUPSUpgradeable.sol\":4654:4905  if (... */\n      iszero\n      tag_447\n      jumpi\n        /* \"@openzeppelin/contracts-upgradeable/proxy/utils/UUPSUpgradeable.sol\":4865:4894  UUPSUnauthorizedCallContext() */\n      mload(0x40)\n      0xe07c8dba00000000000000000000000000000000000000000000000000000000\n      dup2\n      mstore\n      0x04\n      add\n      mload(0x40)\n      dup1\n      swap2\n      sub\n      swap1\n      revert\n        /* \"@openzeppelin/contracts-upgradeable/proxy/utils/UUPSUpgradeable.sol\":4654:4905  if (... */\n    tag_447:\n        /* \"@openzeppelin/contracts-upgradeable/proxy/utils/UUPSUpgradeable.sol\":4599:4911  function _checkProxy() internal view virtual {... */\n      jump\t// out\n        /* \"src/smartcontracts/CQTTokenSaleContractsol.sol\":6848:6978  function _authorizeUpgrade(address newImplementation)... */\n    tag_344:\n        /* \"src/smartcontracts/CQTTokenSaleContractsol.sol\":841:867  keccak256(\"UPGRADER_ROLE\") */\n      0x189ab7a9244df0848122154315af71fe140f3db0fe014031783b0946b8c9d2e3\n        /* \"@openzeppelin/contracts-upgradeable/access/AccessControlUpgradeable.sol\":3191:3207  _checkRole(role) */\n      tag_449\n        /* \"@openzeppelin/contracts-upgradeable/access/AccessControlUpgradeable.sol\":3202:3206  role */\n      dup2\n        /* \"@openzeppelin/contracts-upgradeable/access/AccessControlUpgradeable.sol\":3191:3201  _checkRole */\n      tag_229\n        /* \"@openzeppelin/contracts-upgradeable/access/AccessControlUpgradeable.sol\":3191:3207  _checkRole(role) */\n      jump\t// in\n    tag_449:\n        /* \"src/smartcontracts/CQTTokenSaleContractsol.sol\":6848:6978  function _authorizeUpgrade(address newImplementation)... */\n      pop\n      pop\n      jump\t// out\n        /* \"@openzeppelin/contracts-upgradeable/proxy/utils/UUPSUpgradeable.sol\":6052:6590  function _upgradeToAndCallUUPS(address newImplementation, bytes memory data) private {... */\n    tag_346:\n        /* \"@openzeppelin/contracts-upgradeable/proxy/utils/UUPSUpgradeable.sol\":6169:6186  newImplementation */\n      dup2\n        /* \"@openzeppelin/contracts-upgradeable/proxy/utils/UUPSUpgradeable.sol\":6151:6201  IERC1822Proxiable(newImplementation).proxiableUUID */\n      0xffffffffffffffffffffffffffffffffffffffff\n      and\n      0x52d1902d\n        /* \"@openzeppelin/contracts-upgradeable/proxy/utils/UUPSUpgradeable.sol\":6151:6203  IERC1822Proxiable(newImplementation).proxiableUUID() */\n      mload(0x40)\n      dup2\n      0xffffffff\n      and\n      0xe0\n      shl\n      dup2\n      mstore\n      0x04\n      add\n      0x20\n      mload(0x40)\n      dup1\n      dup4\n      sub\n      dup2\n      dup7\n      gas\n      staticcall\n      swap3\n      pop\n      pop\n      pop\n      dup1\n      iszero\n      tag_452\n      jumpi\n      pop\n      mload(0x40)\n      returndatasize\n      not(0x1f)\n      0x1f\n      dup3\n      add\n      and\n      dup3\n      add\n      dup1\n      0x40\n      mstore\n      pop\n      dup2\n      add\n      swap1\n      tag_453\n      swap2\n      swap1\n      tag_454\n      jump\t// in\n    tag_453:\n      0x01\n    tag_452:\n        /* \"@openzeppelin/contracts-upgradeable/proxy/utils/UUPSUpgradeable.sol\":6147:6584  try IERC1822Proxiable(newImplementation).proxiableUUID() returns (bytes32 slot) {... */\n      tag_455\n      jumpi\n        /* \"@openzeppelin/contracts-upgradeable/proxy/utils/UUPSUpgradeable.sol\":6555:6572  newImplementation */\n      dup2\n        /* \"@openzeppelin/contracts-upgradeable/proxy/utils/UUPSUpgradeable.sol\":6513:6573  ERC1967Utils.ERC1967InvalidImplementation(newImplementation) */\n      mload(0x40)\n      0x4c9c8ce300000000000000000000000000000000000000000000000000000000\n      dup2\n      mstore\n      0x04\n      add\n      tag_459\n      swap2\n      swap1\n      tag_85\n      jump\t// in\n    tag_459:\n      mload(0x40)\n      dup1\n      swap2\n      sub\n      swap1\n      revert\n        /* \"@openzeppelin/contracts-upgradeable/proxy/utils/UUPSUpgradeable.sol\":6147:6584  try IERC1822Proxiable(newImplementation).proxiableUUID() returns (bytes32 slot) {... */\n    tag_455:\n        /* \"@openzeppelin/contracts/proxy/ERC1967/ERC1967Utils.sol\":1327:1393  0x360894a13ba1a3210667c828492db98dca3e2076cc3735a920a3ca505d382bbc */\n      0x360894a13ba1a3210667c828492db98dca3e2076cc3735a920a3ca505d382bbc\n        /* \"@openzeppelin/contracts-upgradeable/proxy/utils/UUPSUpgradeable.sol\":6253:6285  ERC1967Utils.IMPLEMENTATION_SLOT */\n      0x00\n      shl\n        /* \"@openzeppelin/contracts-upgradeable/proxy/utils/UUPSUpgradeable.sol\":6245:6249  slot */\n      dup2\n        /* \"@openzeppelin/contracts-upgradeable/proxy/utils/UUPSUpgradeable.sol\":6245:6285  slot != ERC1967Utils.IMPLEMENTATION_SLOT */\n      eq\n        /* \"@openzeppelin/contracts-upgradeable/proxy/utils/UUPSUpgradeable.sol\":6241:6361  if (slot != ERC1967Utils.IMPLEMENTATION_SLOT) {... */\n      tag_461\n      jumpi\n        /* \"@openzeppelin/contracts-upgradeable/proxy/utils/UUPSUpgradeable.sol\":6341:6345  slot */\n      dup1\n        /* \"@openzeppelin/contracts-upgradeable/proxy/utils/UUPSUpgradeable.sol\":6312:6346  UUPSUnsupportedProxiableUUID(slot) */\n      mload(0x40)\n      0xaa1d49a400000000000000000000000000000000000000000000000000000000\n      dup2\n      mstore\n      0x04\n      add\n      tag_462\n      swap2\n      swap1\n      tag_53\n      jump\t// in\n    tag_462:\n      mload(0x40)\n      dup1\n      swap2\n      sub\n      swap1\n      revert\n        /* \"@openzeppelin/contracts-upgradeable/proxy/utils/UUPSUpgradeable.sol\":6241:6361  if (slot != ERC1967Utils.IMPLEMENTATION_SLOT) {... */\n    tag_461:\n        /* \"@openzeppelin/contracts-upgradeable/proxy/utils/UUPSUpgradeable.sol\":6374:6428  ERC1967Utils.upgradeToAndCall(newImplementation, data) */\n      tag_463\n        /* \"@openzeppelin/contracts-upgradeable/proxy/utils/UUPSUpgradeable.sol\":6404:6421  newImplementation */\n      dup4\n        /* \"@openzeppelin/contracts-upgradeable/proxy/utils/UUPSUpgradeable.sol\":6423:6427  data */\n      dup4\n        /* \"@openzeppelin/contracts-upgradeable/proxy/utils/UUPSUpgradeable.sol\":6374:6403  ERC1967Utils.upgradeToAndCall */\n      tag_464\n        /* \"@openzeppelin/contracts-upgradeable/proxy/utils/UUPSUpgradeable.sol\":6374:6428  ERC1967Utils.upgradeToAndCall(newImplementation, data) */\n      jump\t// in\n    tag_463:\n        /* \"@openzeppelin/contracts-upgradeable/proxy/utils/UUPSUpgradeable.sol\":6204:6439  returns (bytes32 slot) {... */\n      pop\n        /* \"@openzeppelin/contracts-upgradeable/proxy/utils/UUPSUpgradeable.sol\":6052:6590  function _upgradeToAndCallUUPS(address newImplementation, bytes memory data) private {... */\n      pop\n      pop\n      jump\t// out\n        /* \"@openzeppelin/contracts-upgradeable/proxy/utils/UUPSUpgradeable.sol\":5028:5241  function _checkNotDelegated() internal view virtual {... */\n    tag_349:\n        /* \"@openzeppelin/contracts-upgradeable/proxy/utils/UUPSUpgradeable.sol\":5111:5117  __self */\n      immutable(\"0x3b04ad91523c4dcf551e081621e633b9099d51bf9c5461e58c3bc7354a578b27\")\n        /* \"@openzeppelin/contracts-upgradeable/proxy/utils/UUPSUpgradeable.sol\":5094:5117  address(this) != __self */\n      0xffffffffffffffffffffffffffffffffffffffff\n      and\n        /* \"@openzeppelin/contracts-upgradeable/proxy/utils/UUPSUpgradeable.sol\":5102:5106  this */\n      address\n        /* \"@openzeppelin/contracts-upgradeable/proxy/utils/UUPSUpgradeable.sol\":5094:5117  address(this) != __self */\n      0xffffffffffffffffffffffffffffffffffffffff\n      and\n      eq\n        /* \"@openzeppelin/contracts-upgradeable/proxy/utils/UUPSUpgradeable.sol\":5090:5235  if (address(this) != __self) {... */\n      tag_466\n      jumpi\n        /* \"@openzeppelin/contracts-upgradeable/proxy/utils/UUPSUpgradeable.sol\":5195:5224  UUPSUnauthorizedCallContext() */\n      mload(0x40)\n      0xe07c8dba00000000000000000000000000000000000000000000000000000000\n      dup2\n      mstore\n      0x04\n      add\n      mload(0x40)\n      dup1\n      swap2\n      sub\n      swap1\n      revert\n        /* \"@openzeppelin/contracts-upgradeable/proxy/utils/UUPSUpgradeable.sol\":5090:5235  if (address(this) != __self) {... */\n    tag_466:\n        /* \"@openzeppelin/contracts-upgradeable/proxy/utils/UUPSUpgradeable.sol\":5028:5241  function _checkNotDelegated() internal view virtual {... */\n      jump\t// out\n        /* \"@openzeppelin/contracts-upgradeable/utils/PausableUpgradeable.sol\":1147:1309  function _getPausableStorage() private pure returns (PausableStorage storage $) {... */\n    tag_358:\n        /* \"@openzeppelin/contracts-upgradeable/utils/PausableUpgradeable.sol\":1200:1225  PausableStorage storage $ */\n      0x00\n        /* \"@openzeppelin/contracts-upgradeable/utils/PausableUpgradeable.sol\":1270:1293  PausableStorageLocation */\n      0xcd5ed15c6e187e77e9aee88184c21f4f2182ab5827cb3b7e07fbedcd63f03300\n        /* \"@openzeppelin/contracts-upgradeable/utils/PausableUpgradeable.sol\":1260:1293  $.slot := PausableStorageLocation */\n      swap1\n      pop\n        /* \"@openzeppelin/contracts-upgradeable/utils/PausableUpgradeable.sol\":1147:1309  function _getPausableStorage() private pure returns (PausableStorage storage $) {... */\n      swap1\n      jump\t// out\n        /* \"@openzeppelin/contracts-upgradeable/utils/PausableUpgradeable.sol\":3366:3542  function _pause() internal virtual whenNotPaused {... */\n    tag_366:\n        /* \"@openzeppelin/contracts-upgradeable/utils/PausableUpgradeable.sol\":2316:2335  _requireNotPaused() */\n      tag_469\n        /* \"@openzeppelin/contracts-upgradeable/utils/PausableUpgradeable.sol\":2316:2333  _requireNotPaused */\n      tag_271\n        /* \"@openzeppelin/contracts-upgradeable/utils/PausableUpgradeable.sol\":2316:2335  _requireNotPaused() */\n      jump\t// in\n    tag_469:\n        /* \"@openzeppelin/contracts-upgradeable/utils/PausableUpgradeable.sol\":3425:3450  PausableStorage storage $ */\n      0x00\n        /* \"@openzeppelin/contracts-upgradeable/utils/PausableUpgradeable.sol\":3453:3474  _getPausableStorage() */\n      tag_471\n        /* \"@openzeppelin/contracts-upgradeable/utils/PausableUpgradeable.sol\":3453:3472  _getPausableStorage */\n      tag_358\n        /* \"@openzeppelin/contracts-upgradeable/utils/PausableUpgradeable.sol\":3453:3474  _getPausableStorage() */\n      jump\t// in\n    tag_471:\n        /* \"@openzeppelin/contracts-upgradeable/utils/PausableUpgradeable.sol\":3425:3474  PausableStorage storage $ = _getPausableStorage() */\n      swap1\n      pop\n        /* \"@openzeppelin/contracts-upgradeable/utils/PausableUpgradeable.sol\":3496:3500  true */\n      0x01\n        /* \"@openzeppelin/contracts-upgradeable/utils/PausableUpgradeable.sol\":3484:3485  $ */\n      dup2\n        /* \"@openzeppelin/contracts-upgradeable/utils/PausableUpgradeable.sol\":3484:3493  $._paused */\n      0x00\n      add\n      0x00\n        /* \"@openzeppelin/contracts-upgradeable/utils/PausableUpgradeable.sol\":3484:3500  $._paused = true */\n      0x0100\n      exp\n      dup2\n      sload\n      dup2\n      0xff\n      mul\n      not\n      and\n      swap1\n      dup4\n      iszero\n      iszero\n      mul\n      or\n      swap1\n      sstore\n      pop\n        /* \"@openzeppelin/contracts-upgradeable/utils/PausableUpgradeable.sol\":3515:3535  Paused(_msgSender()) */\n      0x62e78cea01bee320cd4e420270b5ea74000d11b0c9f74754ebdbfc544b05a258\n        /* \"@openzeppelin/contracts-upgradeable/utils/PausableUpgradeable.sol\":3522:3534  _msgSender() */\n      tag_472\n        /* \"@openzeppelin/contracts-upgradeable/utils/PausableUpgradeable.sol\":3522:3532  _msgSender */\n      tag_299\n        /* \"@openzeppelin/contracts-upgradeable/utils/PausableUpgradeable.sol\":3522:3534  _msgSender() */\n      jump\t// in\n    tag_472:\n        /* \"@openzeppelin/contracts-upgradeable/utils/PausableUpgradeable.sol\":3515:3535  Paused(_msgSender()) */\n      mload(0x40)\n      tag_473\n      swap2\n      swap1\n      tag_85\n      jump\t// in\n    tag_473:\n      mload(0x40)\n      dup1\n      swap2\n      sub\n      swap1\n      log1\n        /* \"@openzeppelin/contracts-upgradeable/utils/PausableUpgradeable.sol\":3415:3542  {... */\n      pop\n        /* \"@openzeppelin/contracts-upgradeable/utils/PausableUpgradeable.sol\":3366:3542  function _pause() internal virtual whenNotPaused {... */\n      jump\t// out\n        /* \"@openzeppelin/contracts-upgradeable/access/AccessControlUpgradeable.sol\":4381:4578  function _checkRole(bytes32 role, address account) internal view virtual {... */\n    tag_401:\n        /* \"@openzeppelin/contracts-upgradeable/access/AccessControlUpgradeable.sol\":4469:4491  hasRole(role, account) */\n      tag_475\n        /* \"@openzeppelin/contracts-upgradeable/access/AccessControlUpgradeable.sol\":4477:4481  role */\n      dup3\n        /* \"@openzeppelin/contracts-upgradeable/access/AccessControlUpgradeable.sol\":4483:4490  account */\n      dup3\n        /* \"@openzeppelin/contracts-upgradeable/access/AccessControlUpgradeable.sol\":4469:4476  hasRole */\n      tag_176\n        /* \"@openzeppelin/contracts-upgradeable/access/AccessControlUpgradeable.sol\":4469:4491  hasRole(role, account) */\n      jump\t// in\n    tag_475:\n        /* \"@openzeppelin/contracts-upgradeable/access/AccessControlUpgradeable.sol\":4464:4572  if (!hasRole(role, account)) {... */\n      tag_476\n      jumpi\n        /* \"@openzeppelin/contracts-upgradeable/access/AccessControlUpgradeable.sol\":4547:4554  account */\n      dup1\n        /* \"@openzeppelin/contracts-upgradeable/access/AccessControlUpgradeable.sol\":4556:4560  role */\n      dup3\n        /* \"@openzeppelin/contracts-upgradeable/access/AccessControlUpgradeable.sol\":4514:4561  AccessControlUnauthorizedAccount(account, role) */\n      mload(0x40)\n      0xe2517d3f00000000000000000000000000000000000000000000000000000000\n      dup2\n      mstore\n      0x04\n      add\n      tag_477\n      swap3\n      swap2\n      swap1\n      tag_478\n      jump\t// in\n    tag_477:\n      mload(0x40)\n      dup1\n      swap2\n      sub\n      swap1\n      revert\n        /* \"@openzeppelin/contracts-upgradeable/access/AccessControlUpgradeable.sol\":4464:4572  if (!hasRole(role, account)) {... */\n    tag_476:\n        /* \"@openzeppelin/contracts-upgradeable/access/AccessControlUpgradeable.sol\":4381:4578  function _checkRole(bytes32 role, address account) internal view virtual {... */\n      pop\n      pop\n      jump\t// out\n        /* \"@openzeppelin/contracts-upgradeable/utils/PausableUpgradeable.sol\":3105:3231  function _requirePaused() internal view virtual {... */\n    tag_421:\n        /* \"@openzeppelin/contracts-upgradeable/utils/PausableUpgradeable.sol\":3168:3176  paused() */\n      tag_480\n        /* \"@openzeppelin/contracts-upgradeable/utils/PausableUpgradeable.sol\":3168:3174  paused */\n      tag_156\n        /* \"@openzeppelin/contracts-upgradeable/utils/PausableUpgradeable.sol\":3168:3176  paused() */\n      jump\t// in\n    tag_480:\n        /* \"@openzeppelin/contracts-upgradeable/utils/PausableUpgradeable.sol\":3163:3225  if (!paused()) {... */\n      tag_481\n      jumpi\n        /* \"@openzeppelin/contracts-upgradeable/utils/PausableUpgradeable.sol\":3199:3214  ExpectedPause() */\n      mload(0x40)\n      0x8dfc202b00000000000000000000000000000000000000000000000000000000\n      dup2\n      mstore\n      0x04\n      add\n      mload(0x40)\n      dup1\n      swap2\n      sub\n      swap1\n      revert\n        /* \"@openzeppelin/contracts-upgradeable/utils/PausableUpgradeable.sol\":3163:3225  if (!paused()) {... */\n    tag_481:\n        /* \"@openzeppelin/contracts-upgradeable/utils/PausableUpgradeable.sol\":3105:3231  function _requirePaused() internal view virtual {... */\n      jump\t// out\n        /* \"@openzeppelin/contracts-upgradeable/proxy/utils/Initializable.sol\":7084:7225  function _checkInitializing() internal view virtual {... */\n    tag_429:\n        /* \"@openzeppelin/contracts-upgradeable/proxy/utils/Initializable.sol\":7151:7168  _isInitializing() */\n      tag_483\n        /* \"@openzeppelin/contracts-upgradeable/proxy/utils/Initializable.sol\":7151:7166  _isInitializing */\n      tag_484\n        /* \"@openzeppelin/contracts-upgradeable/proxy/utils/Initializable.sol\":7151:7168  _isInitializing() */\n      jump\t// in\n    tag_483:\n        /* \"@openzeppelin/contracts-upgradeable/proxy/utils/Initializable.sol\":7146:7219  if (!_isInitializing()) {... */\n      tag_485\n      jumpi\n        /* \"@openzeppelin/contracts-upgradeable/proxy/utils/Initializable.sol\":7191:7208  NotInitializing() */\n      mload(0x40)\n      0xd7e6bcf800000000000000000000000000000000000000000000000000000000\n      dup2\n      mstore\n      0x04\n      add\n      mload(0x40)\n      dup1\n      swap2\n      sub\n      swap1\n      revert\n        /* \"@openzeppelin/contracts-upgradeable/proxy/utils/Initializable.sol\":7146:7219  if (!_isInitializing()) {... */\n    tag_485:\n        /* \"@openzeppelin/contracts-upgradeable/proxy/utils/Initializable.sol\":7084:7225  function _checkInitializing() internal view virtual {... */\n      jump\t// out\n        /* \"@openzeppelin/contracts-upgradeable/utils/PausableUpgradeable.sol\":1939:2095  function __Pausable_init_unchained() internal onlyInitializing {... */\n    tag_432:\n        /* \"@openzeppelin/contracts-upgradeable/proxy/utils/Initializable.sol\":6931:6951  _checkInitializing() */\n      tag_487\n        /* \"@openzeppelin/contracts-upgradeable/proxy/utils/Initializable.sol\":6931:6949  _checkInitializing */\n      tag_429\n        /* \"@openzeppelin/contracts-upgradeable/proxy/utils/Initializable.sol\":6931:6951  _checkInitializing() */\n      jump\t// in\n    tag_487:\n        /* \"@openzeppelin/contracts-upgradeable/utils/PausableUpgradeable.sol\":2012:2037  PausableStorage storage $ */\n      0x00\n        /* \"@openzeppelin/contracts-upgradeable/utils/PausableUpgradeable.sol\":2040:2061  _getPausableStorage() */\n      tag_489\n        /* \"@openzeppelin/contracts-upgradeable/utils/PausableUpgradeable.sol\":2040:2059  _getPausableStorage */\n      tag_358\n        /* \"@openzeppelin/contracts-upgradeable/utils/PausableUpgradeable.sol\":2040:2061  _getPausableStorage() */\n      jump\t// in\n    tag_489:\n        /* \"@openzeppelin/contracts-upgradeable/utils/PausableUpgradeable.sol\":2012:2061  PausableStorage storage $ = _getPausableStorage() */\n      swap1\n      pop\n        /* \"@openzeppelin/contracts-upgradeable/utils/PausableUpgradeable.sol\":2083:2088  false */\n      0x00\n        /* \"@openzeppelin/contracts-upgradeable/utils/PausableUpgradeable.sol\":2071:2072  $ */\n      dup2\n        /* \"@openzeppelin/contracts-upgradeable/utils/PausableUpgradeable.sol\":2071:2080  $._paused */\n      0x00\n      add\n      0x00\n        /* \"@openzeppelin/contracts-upgradeable/utils/PausableUpgradeable.sol\":2071:2088  $._paused = false */\n      0x0100\n      exp\n      dup2\n      sload\n      dup2\n      0xff\n      mul\n      not\n      and\n      swap1\n      dup4\n      iszero\n      iszero\n      mul\n      or\n      swap1\n      sstore\n      pop\n        /* \"@openzeppelin/contracts-upgradeable/utils/PausableUpgradeable.sol\":2002:2095  {... */\n      pop\n        /* \"@openzeppelin/contracts-upgradeable/utils/PausableUpgradeable.sol\":1939:2095  function __Pausable_init_unchained() internal onlyInitializing {... */\n      jump\t// out\n        /* \"@openzeppelin/contracts/proxy/ERC1967/ERC1967Utils.sol\":1957:2095  function getImplementation() internal view returns (address) {... */\n    tag_446:\n        /* \"@openzeppelin/contracts/proxy/ERC1967/ERC1967Utils.sol\":2009:2016  address */\n      0x00\n        /* \"@openzeppelin/contracts/proxy/ERC1967/ERC1967Utils.sol\":2035:2082  StorageSlot.getAddressSlot(IMPLEMENTATION_SLOT) */\n      tag_491\n        /* \"@openzeppelin/contracts/proxy/ERC1967/ERC1967Utils.sol\":1327:1393  0x360894a13ba1a3210667c828492db98dca3e2076cc3735a920a3ca505d382bbc */\n      0x360894a13ba1a3210667c828492db98dca3e2076cc3735a920a3ca505d382bbc\n        /* \"@openzeppelin/contracts/proxy/ERC1967/ERC1967Utils.sol\":2062:2081  IMPLEMENTATION_SLOT */\n      0x00\n      shl\n        /* \"@openzeppelin/contracts/proxy/ERC1967/ERC1967Utils.sol\":2035:2061  StorageSlot.getAddressSlot */\n      tag_492\n        /* \"@openzeppelin/contracts/proxy/ERC1967/ERC1967Utils.sol\":2035:2082  StorageSlot.getAddressSlot(IMPLEMENTATION_SLOT) */\n      jump\t// in\n    tag_491:\n        /* \"@openzeppelin/contracts/proxy/ERC1967/ERC1967Utils.sol\":2035:2088  StorageSlot.getAddressSlot(IMPLEMENTATION_SLOT).value */\n      0x00\n      add\n      0x00\n      swap1\n      sload\n      swap1\n      0x0100\n      exp\n      swap1\n      div\n      0xffffffffffffffffffffffffffffffffffffffff\n      and\n        /* \"@openzeppelin/contracts/proxy/ERC1967/ERC1967Utils.sol\":2028:2088  return StorageSlot.getAddressSlot(IMPLEMENTATION_SLOT).value */\n      swap1\n      pop\n        /* \"@openzeppelin/contracts/proxy/ERC1967/ERC1967Utils.sol\":1957:2095  function getImplementation() internal view returns (address) {... */\n      swap1\n      jump\t// out\n        /* \"@openzeppelin/contracts/proxy/ERC1967/ERC1967Utils.sol\":2779:3114  function upgradeToAndCall(address newImplementation, bytes memory data) internal {... */\n    tag_464:\n        /* \"@openzeppelin/contracts/proxy/ERC1967/ERC1967Utils.sol\":2870:2907  _setImplementation(newImplementation) */\n      tag_494\n        /* \"@openzeppelin/contracts/proxy/ERC1967/ERC1967Utils.sol\":2889:2906  newImplementation */\n      dup3\n        /* \"@openzeppelin/contracts/proxy/ERC1967/ERC1967Utils.sol\":2870:2888  _setImplementation */\n      tag_495\n        /* \"@openzeppelin/contracts/proxy/ERC1967/ERC1967Utils.sol\":2870:2907  _setImplementation(newImplementation) */\n      jump\t// in\n    tag_494:\n        /* \"@openzeppelin/contracts/proxy/ERC1967/ERC1967Utils.sol\":2931:2948  newImplementation */\n      dup2\n        /* \"@openzeppelin/contracts/proxy/ERC1967/ERC1967Utils.sol\":2922:2949  Upgraded(newImplementation) */\n      0xffffffffffffffffffffffffffffffffffffffff\n      and\n      0xbc7cd75a20ee27fd9adebab32041f755214dbc6bffa90cc0225b39da2e5c2d3b\n      mload(0x40)\n      mload(0x40)\n      dup1\n      swap2\n      sub\n      swap1\n      log2\n        /* \"@openzeppelin/contracts/proxy/ERC1967/ERC1967Utils.sol\":2978:2979  0 */\n      0x00\n        /* \"@openzeppelin/contracts/proxy/ERC1967/ERC1967Utils.sol\":2964:2968  data */\n      dup2\n        /* \"@openzeppelin/contracts/proxy/ERC1967/ERC1967Utils.sol\":2964:2975  data.length */\n      mload\n        /* \"@openzeppelin/contracts/proxy/ERC1967/ERC1967Utils.sol\":2964:2979  data.length > 0 */\n      gt\n        /* \"@openzeppelin/contracts/proxy/ERC1967/ERC1967Utils.sol\":2960:3108  if (data.length > 0) {... */\n      iszero\n      tag_496\n      jumpi\n        /* \"@openzeppelin/contracts/proxy/ERC1967/ERC1967Utils.sol\":2995:3048  Address.functionDelegateCall(newImplementation, data) */\n      tag_497\n        /* \"@openzeppelin/contracts/proxy/ERC1967/ERC1967Utils.sol\":3024:3041  newImplementation */\n      dup3\n        /* \"@openzeppelin/contracts/proxy/ERC1967/ERC1967Utils.sol\":3043:3047  data */\n      dup3\n        /* \"@openzeppelin/contracts/proxy/ERC1967/ERC1967Utils.sol\":2995:3023  Address.functionDelegateCall */\n      tag_498\n        /* \"@openzeppelin/contracts/proxy/ERC1967/ERC1967Utils.sol\":2995:3048  Address.functionDelegateCall(newImplementation, data) */\n      jump\t// in\n    tag_497:\n      pop\n        /* \"@openzeppelin/contracts/proxy/ERC1967/ERC1967Utils.sol\":2960:3108  if (data.length > 0) {... */\n      jump(tag_499)\n    tag_496:\n        /* \"@openzeppelin/contracts/proxy/ERC1967/ERC1967Utils.sol\":3079:3097  _checkNonPayable() */\n      tag_500\n        /* \"@openzeppelin/contracts/proxy/ERC1967/ERC1967Utils.sol\":3079:3095  _checkNonPayable */\n      tag_501\n        /* \"@openzeppelin/contracts/proxy/ERC1967/ERC1967Utils.sol\":3079:3097  _checkNonPayable() */\n      jump\t// in\n    tag_500:\n        /* \"@openzeppelin/contracts/proxy/ERC1967/ERC1967Utils.sol\":2960:3108  if (data.length > 0) {... */\n    tag_499:\n        /* \"@openzeppelin/contracts/proxy/ERC1967/ERC1967Utils.sol\":2779:3114  function upgradeToAndCall(address newImplementation, bytes memory data) internal {... */\n      pop\n      pop\n      jump\t// out\n        /* \"@openzeppelin/contracts-upgradeable/proxy/utils/Initializable.sol\":8487:8607  function _isInitializing() internal view returns (bool) {... */\n    tag_484:\n        /* \"@openzeppelin/contracts-upgradeable/proxy/utils/Initializable.sol\":8537:8541  bool */\n      0x00\n        /* \"@openzeppelin/contracts-upgradeable/proxy/utils/Initializable.sol\":8560:8586  _getInitializableStorage() */\n      tag_503\n        /* \"@openzeppelin/contracts-upgradeable/proxy/utils/Initializable.sol\":8560:8584  _getInitializableStorage */\n      tag_321\n        /* \"@openzeppelin/contracts-upgradeable/proxy/utils/Initializable.sol\":8560:8586  _getInitializableStorage() */\n      jump\t// in\n    tag_503:\n        /* \"@openzeppelin/contracts-upgradeable/proxy/utils/Initializable.sol\":8560:8600  _getInitializableStorage()._initializing */\n      0x00\n      add\n      0x08\n      swap1\n      sload\n      swap1\n      0x0100\n      exp\n      swap1\n      div\n      0xff\n      and\n        /* \"@openzeppelin/contracts-upgradeable/proxy/utils/Initializable.sol\":8553:8600  return _getInitializableStorage()._initializing */\n      swap1\n      pop\n        /* \"@openzeppelin/contracts-upgradeable/proxy/utils/Initializable.sol\":8487:8607  function _isInitializing() internal view returns (bool) {... */\n      swap1\n      jump\t// out\n        /* \"@openzeppelin/contracts/utils/StorageSlot.sol\":1684:1874  function getAddressSlot(bytes32 slot) internal pure returns (AddressSlot storage r) {... */\n    tag_492:\n        /* \"@openzeppelin/contracts/utils/StorageSlot.sol\":1745:1766  AddressSlot storage r */\n      0x00\n        /* \"@openzeppelin/contracts/utils/StorageSlot.sol\":1854:1858  slot */\n      dup2\n        /* \"@openzeppelin/contracts/utils/StorageSlot.sol\":1844:1858  r.slot := slot */\n      swap1\n      pop\n        /* \"@openzeppelin/contracts/utils/StorageSlot.sol\":1684:1874  function getAddressSlot(bytes32 slot) internal pure returns (AddressSlot storage r) {... */\n      swap2\n      swap1\n      pop\n      jump\t// out\n        /* \"@openzeppelin/contracts/proxy/ERC1967/ERC1967Utils.sol\":2186:2467  function _setImplementation(address newImplementation) private {... */\n    tag_495:\n        /* \"@openzeppelin/contracts/proxy/ERC1967/ERC1967Utils.sol\":2296:2297  0 */\n      0x00\n        /* \"@openzeppelin/contracts/proxy/ERC1967/ERC1967Utils.sol\":2263:2280  newImplementation */\n      dup2\n        /* \"@openzeppelin/contracts/proxy/ERC1967/ERC1967Utils.sol\":2263:2292  newImplementation.code.length */\n      0xffffffffffffffffffffffffffffffffffffffff\n      and\n      extcodesize\n        /* \"@openzeppelin/contracts/proxy/ERC1967/ERC1967Utils.sol\":2263:2297  newImplementation.code.length == 0 */\n      sub\n        /* \"@openzeppelin/contracts/proxy/ERC1967/ERC1967Utils.sol\":2259:2378  if (newImplementation.code.length == 0) {... */\n      tag_506\n      jumpi\n        /* \"@openzeppelin/contracts/proxy/ERC1967/ERC1967Utils.sol\":2349:2366  newImplementation */\n      dup1\n        /* \"@openzeppelin/contracts/proxy/ERC1967/ERC1967Utils.sol\":2320:2367  ERC1967InvalidImplementation(newImplementation) */\n      mload(0x40)\n      0x4c9c8ce300000000000000000000000000000000000000000000000000000000\n      dup2\n      mstore\n      0x04\n      add\n      tag_507\n      swap2\n      swap1\n      tag_85\n      jump\t// in\n    tag_507:\n      mload(0x40)\n      dup1\n      swap2\n      sub\n      swap1\n      revert\n        /* \"@openzeppelin/contracts/proxy/ERC1967/ERC1967Utils.sol\":2259:2378  if (newImplementation.code.length == 0) {... */\n    tag_506:\n        /* \"@openzeppelin/contracts/proxy/ERC1967/ERC1967Utils.sol\":2443:2460  newImplementation */\n      dup1\n        /* \"@openzeppelin/contracts/proxy/ERC1967/ERC1967Utils.sol\":2387:2434  StorageSlot.getAddressSlot(IMPLEMENTATION_SLOT) */\n      tag_508\n        /* \"@openzeppelin/contracts/proxy/ERC1967/ERC1967Utils.sol\":1327:1393  0x360894a13ba1a3210667c828492db98dca3e2076cc3735a920a3ca505d382bbc */\n      0x360894a13ba1a3210667c828492db98dca3e2076cc3735a920a3ca505d382bbc\n        /* \"@openzeppelin/contracts/proxy/ERC1967/ERC1967Utils.sol\":2414:2433  IMPLEMENTATION_SLOT */\n      0x00\n      shl\n        /* \"@openzeppelin/contracts/proxy/ERC1967/ERC1967Utils.sol\":2387:2413  StorageSlot.getAddressSlot */\n      tag_492\n        /* \"@openzeppelin/contracts/proxy/ERC1967/ERC1967Utils.sol\":2387:2434  StorageSlot.getAddressSlot(IMPLEMENTATION_SLOT) */\n      jump\t// in\n    tag_508:\n        /* \"@openzeppelin/contracts/proxy/ERC1967/ERC1967Utils.sol\":2387:2440  StorageSlot.getAddressSlot(IMPLEMENTATION_SLOT).value */\n      0x00\n      add\n      0x00\n        /* \"@openzeppelin/contracts/proxy/ERC1967/ERC1967Utils.sol\":2387:2460  StorageSlot.getAddressSlot(IMPLEMENTATION_SLOT).value = newImplementation */\n      0x0100\n      exp\n      dup2\n      sload\n      dup2\n      0xffffffffffffffffffffffffffffffffffffffff\n      mul\n      not\n      and\n      swap1\n      dup4\n      0xffffffffffffffffffffffffffffffffffffffff\n      and\n      mul\n      or\n      swap1\n      sstore\n      pop\n        /* \"@openzeppelin/contracts/proxy/ERC1967/ERC1967Utils.sol\":2186:2467  function _setImplementation(address newImplementation) private {... */\n      pop\n      jump\t// out\n        /* \"@openzeppelin/contracts/utils/Address.sol\":4106:4359  function functionDelegateCall(address target, bytes memory data) internal returns (bytes memory) {... */\n    tag_498:\n        /* \"@openzeppelin/contracts/utils/Address.sol\":4189:4201  bytes memory */\n      0x60\n        /* \"@openzeppelin/contracts/utils/Address.sol\":4214:4226  bool success */\n      0x00\n        /* \"@openzeppelin/contracts/utils/Address.sol\":4228:4251  bytes memory returndata */\n      dup1\n        /* \"@openzeppelin/contracts/utils/Address.sol\":4255:4261  target */\n      dup5\n        /* \"@openzeppelin/contracts/utils/Address.sol\":4255:4274  target.delegatecall */\n      0xffffffffffffffffffffffffffffffffffffffff\n      and\n        /* \"@openzeppelin/contracts/utils/Address.sol\":4275:4279  data */\n      dup5\n        /* \"@openzeppelin/contracts/utils/Address.sol\":4255:4280  target.delegatecall(data) */\n      mload(0x40)\n      tag_510\n      swap2\n      swap1\n      tag_511\n      jump\t// in\n    tag_510:\n      0x00\n      mload(0x40)\n      dup1\n      dup4\n      sub\n      dup2\n      dup6\n      gas\n      delegatecall\n      swap2\n      pop\n      pop\n      returndatasize\n      dup1\n      0x00\n      dup2\n      eq\n      tag_514\n      jumpi\n      mload(0x40)\n      swap2\n      pop\n      and(add(returndatasize, 0x3f), not(0x1f))\n      dup3\n      add\n      0x40\n      mstore\n      returndatasize\n      dup3\n      mstore\n      returndatasize\n      0x00\n      0x20\n      dup5\n      add\n      returndatacopy\n      jump(tag_513)\n    tag_514:\n      0x60\n      swap2\n      pop\n    tag_513:\n      pop\n        /* \"@openzeppelin/contracts/utils/Address.sol\":4213:4280  (bool success, bytes memory returndata) = target.delegatecall(data) */\n      swap2\n      pop\n      swap2\n      pop\n        /* \"@openzeppelin/contracts/utils/Address.sol\":4297:4352  verifyCallResultFromTarget(target, success, returndata) */\n      tag_515\n        /* \"@openzeppelin/contracts/utils/Address.sol\":4324:4330  target */\n      dup6\n        /* \"@openzeppelin/contracts/utils/Address.sol\":4332:4339  success */\n      dup4\n        /* \"@openzeppelin/contracts/utils/Address.sol\":4341:4351  returndata */\n      dup4\n        /* \"@openzeppelin/contracts/utils/Address.sol\":4297:4323  verifyCallResultFromTarget */\n      tag_516\n        /* \"@openzeppelin/contracts/utils/Address.sol\":4297:4352  verifyCallResultFromTarget(target, success, returndata) */\n      jump\t// in\n    tag_515:\n        /* \"@openzeppelin/contracts/utils/Address.sol\":4290:4352  return verifyCallResultFromTarget(target, success, returndata) */\n      swap3\n      pop\n      pop\n      pop\n        /* \"@openzeppelin/contracts/utils/Address.sol\":4106:4359  function functionDelegateCall(address target, bytes memory data) internal returns (bytes memory) {... */\n      swap3\n      swap2\n      pop\n      pop\n      jump\t// out\n        /* \"@openzeppelin/contracts/proxy/ERC1967/ERC1967Utils.sol\":6598:6720  function _checkNonPayable() private {... */\n    tag_501:\n        /* \"@openzeppelin/contracts/proxy/ERC1967/ERC1967Utils.sol\":6660:6661  0 */\n      0x00\n        /* \"@openzeppelin/contracts/proxy/ERC1967/ERC1967Utils.sol\":6648:6657  msg.value */\n      callvalue\n        /* \"@openzeppelin/contracts/proxy/ERC1967/ERC1967Utils.sol\":6648:6661  msg.value > 0 */\n      gt\n        /* \"@openzeppelin/contracts/proxy/ERC1967/ERC1967Utils.sol\":6644:6714  if (msg.value > 0) {... */\n      iszero\n      tag_518\n      jumpi\n        /* \"@openzeppelin/contracts/proxy/ERC1967/ERC1967Utils.sol\":6684:6703  ERC1967NonPayable() */\n      mload(0x40)\n      0xb398979f00000000000000000000000000000000000000000000000000000000\n      dup2\n      mstore\n      0x04\n      add\n      mload(0x40)\n      dup1\n      swap2\n      sub\n      swap1\n      revert\n        /* \"@openzeppelin/contracts/proxy/ERC1967/ERC1967Utils.sol\":6644:6714  if (msg.value > 0) {... */\n    tag_518:\n        /* \"@openzeppelin/contracts/proxy/ERC1967/ERC1967Utils.sol\":6598:6720  function _checkNonPayable() private {... */\n      jump\t// out\n        /* \"@openzeppelin/contracts/utils/Address.sol\":4625:5207  function verifyCallResultFromTarget(... */\n    tag_516:\n        /* \"@openzeppelin/contracts/utils/Address.sol\":4769:4781  bytes memory */\n      0x60\n        /* \"@openzeppelin/contracts/utils/Address.sol\":4798:4805  success */\n      dup3\n        /* \"@openzeppelin/contracts/utils/Address.sol\":4793:5201  if (!success) {... */\n      tag_520\n      jumpi\n        /* \"@openzeppelin/contracts/utils/Address.sol\":4821:4840  _revert(returndata) */\n      tag_521\n        /* \"@openzeppelin/contracts/utils/Address.sol\":4829:4839  returndata */\n      dup3\n        /* \"@openzeppelin/contracts/utils/Address.sol\":4821:4828  _revert */\n      tag_522\n        /* \"@openzeppelin/contracts/utils/Address.sol\":4821:4840  _revert(returndata) */\n      jump\t// in\n    tag_521:\n        /* \"@openzeppelin/contracts/utils/Address.sol\":4793:5201  if (!success) {... */\n      jump(tag_523)\n    tag_520:\n        /* \"@openzeppelin/contracts/utils/Address.sol\":5066:5067  0 */\n      0x00\n        /* \"@openzeppelin/contracts/utils/Address.sol\":5045:5055  returndata */\n      dup3\n        /* \"@openzeppelin/contracts/utils/Address.sol\":5045:5062  returndata.length */\n      mload\n        /* \"@openzeppelin/contracts/utils/Address.sol\":5045:5067  returndata.length == 0 */\n      eq\n        /* \"@openzeppelin/contracts/utils/Address.sol\":5045:5094  returndata.length == 0 && target.code.length == 0 */\n      dup1\n      iszero\n      tag_524\n      jumpi\n      pop\n        /* \"@openzeppelin/contracts/utils/Address.sol\":5093:5094  0 */\n      0x00\n        /* \"@openzeppelin/contracts/utils/Address.sol\":5071:5077  target */\n      dup5\n        /* \"@openzeppelin/contracts/utils/Address.sol\":5071:5089  target.code.length */\n      0xffffffffffffffffffffffffffffffffffffffff\n      and\n      extcodesize\n        /* \"@openzeppelin/contracts/utils/Address.sol\":5071:5094  target.code.length == 0 */\n      eq\n        /* \"@openzeppelin/contracts/utils/Address.sol\":5045:5094  returndata.length == 0 && target.code.length == 0 */\n    tag_524:\n        /* \"@openzeppelin/contracts/utils/Address.sol\":5041:5160  if (returndata.length == 0 && target.code.length == 0) {... */\n      iszero\n      tag_525\n      jumpi\n        /* \"@openzeppelin/contracts/utils/Address.sol\":5138:5144  target */\n      dup4\n        /* \"@openzeppelin/contracts/utils/Address.sol\":5121:5145  AddressEmptyCode(target) */\n      mload(0x40)\n      0x9996b31500000000000000000000000000000000000000000000000000000000\n      dup2\n      mstore\n      0x04\n      add\n      tag_526\n      swap2\n      swap1\n      tag_85\n      jump\t// in\n    tag_526:\n      mload(0x40)\n      dup1\n      swap2\n      sub\n      swap1\n      revert\n        /* \"@openzeppelin/contracts/utils/Address.sol\":5041:5160  if (returndata.length == 0 && target.code.length == 0) {... */\n    tag_525:\n        /* \"@openzeppelin/contracts/utils/Address.sol\":5180:5190  returndata */\n      dup2\n        /* \"@openzeppelin/contracts/utils/Address.sol\":5173:5190  return returndata */\n      swap1\n      pop\n      jump(tag_519)\n        /* \"@openzeppelin/contracts/utils/Address.sol\":4793:5201  if (!success) {... */\n    tag_523:\n        /* \"@openzeppelin/contracts/utils/Address.sol\":4625:5207  function verifyCallResultFromTarget(... */\n    tag_519:\n      swap4\n      swap3\n      pop\n      pop\n      pop\n      jump\t// out\n        /* \"@openzeppelin/contracts/utils/Address.sol\":5743:6259  function _revert(bytes memory returndata) private pure {... */\n    tag_522:\n        /* \"@openzeppelin/contracts/utils/Address.sol\":5894:5895  0 */\n      0x00\n        /* \"@openzeppelin/contracts/utils/Address.sol\":5874:5884  returndata */\n      dup2\n        /* \"@openzeppelin/contracts/utils/Address.sol\":5874:5891  returndata.length */\n      mload\n        /* \"@openzeppelin/contracts/utils/Address.sol\":5874:5895  returndata.length > 0 */\n      gt\n        /* \"@openzeppelin/contracts/utils/Address.sol\":5870:6253  if (returndata.length > 0) {... */\n      iszero\n      tag_528\n      jumpi\n        /* \"@openzeppelin/contracts/utils/Address.sol\":6102:6112  returndata */\n      dup1\n        /* \"@openzeppelin/contracts/utils/Address.sol\":6096:6113  mload(returndata) */\n      mload\n        /* \"@openzeppelin/contracts/utils/Address.sol\":6158:6173  returndata_size */\n      dup1\n        /* \"@openzeppelin/contracts/utils/Address.sol\":6145:6155  returndata */\n      dup3\n        /* \"@openzeppelin/contracts/utils/Address.sol\":6141:6143  32 */\n      0x20\n        /* \"@openzeppelin/contracts/utils/Address.sol\":6137:6156  add(32, returndata) */\n      add\n        /* \"@openzeppelin/contracts/utils/Address.sol\":6130:6174  revert(add(32, returndata), returndata_size) */\n      revert\n        /* \"@openzeppelin/contracts/utils/Address.sol\":5870:6253  if (returndata.length > 0) {... */\n    tag_528:\n        /* \"@openzeppelin/contracts/utils/Address.sol\":6225:6242  FailedInnerCall() */\n      mload(0x40)\n      0x1425ea4200000000000000000000000000000000000000000000000000000000\n      dup2\n      mstore\n      0x04\n      add\n      mload(0x40)\n      dup1\n      swap2\n      sub\n      swap1\n      revert\n        /* \"#utility.yul\":7:84   */\n    tag_530:\n        /* \"#utility.yul\":44:51   */\n      0x00\n        /* \"#utility.yul\":73:78   */\n      dup2\n        /* \"#utility.yul\":62:78   */\n      swap1\n      pop\n        /* \"#utility.yul\":7:84   */\n      swap2\n      swap1\n      pop\n      jump\t// out\n        /* \"#utility.yul\":90:208   */\n    tag_531:\n        /* \"#utility.yul\":177:201   */\n      tag_608\n        /* \"#utility.yul\":195:200   */\n      dup2\n        /* \"#utility.yul\":177:201   */\n      tag_530\n      jump\t// in\n    tag_608:\n        /* \"#utility.yul\":172:175   */\n      dup3\n        /* \"#utility.yul\":165:202   */\n      mstore\n        /* \"#utility.yul\":90:208   */\n      pop\n      pop\n      jump\t// out\n        /* \"#utility.yul\":214:436   */\n    tag_53:\n        /* \"#utility.yul\":307:311   */\n      0x00\n        /* \"#utility.yul\":345:347   */\n      0x20\n        /* \"#utility.yul\":334:343   */\n      dup3\n        /* \"#utility.yul\":330:348   */\n      add\n        /* \"#utility.yul\":322:348   */\n      swap1\n      pop\n        /* \"#utility.yul\":358:429   */\n      tag_610\n        /* \"#utility.yul\":426:427   */\n      0x00\n        /* \"#utility.yul\":415:424   */\n      dup4\n        /* \"#utility.yul\":411:428   */\n      add\n        /* \"#utility.yul\":402:408   */\n      dup5\n        /* \"#utility.yul\":358:429   */\n      tag_531\n      jump\t// in\n    tag_610:\n        /* \"#utility.yul\":214:436   */\n      swap3\n      swap2\n      pop\n      pop\n      jump\t// out\n        /* \"#utility.yul\":442:517   */\n    tag_532:\n        /* \"#utility.yul\":475:481   */\n      0x00\n        /* \"#utility.yul\":508:510   */\n      0x40\n        /* \"#utility.yul\":502:511   */\n      mload\n        /* \"#utility.yul\":492:511   */\n      swap1\n      pop\n        /* \"#utility.yul\":442:517   */\n      swap1\n      jump\t// out\n        /* \"#utility.yul\":523:640   */\n    tag_533:\n        /* \"#utility.yul\":632:633   */\n      0x00\n        /* \"#utility.yul\":629:630   */\n      dup1\n        /* \"#utility.yul\":622:634   */\n      revert\n        /* \"#utility.yul\":646:763   */\n    tag_534:\n        /* \"#utility.yul\":755:756   */\n      0x00\n        /* \"#utility.yul\":752:753   */\n      dup1\n        /* \"#utility.yul\":745:757   */\n      revert\n        /* \"#utility.yul\":769:918   */\n    tag_535:\n        /* \"#utility.yul\":805:812   */\n      0x00\n        /* \"#utility.yul\":845:911   */\n      0xffffffff00000000000000000000000000000000000000000000000000000000\n        /* \"#utility.yul\":838:843   */\n      dup3\n        /* \"#utility.yul\":834:912   */\n      and\n        /* \"#utility.yul\":823:912   */\n      swap1\n      pop\n        /* \"#utility.yul\":769:918   */\n      swap2\n      swap1\n      pop\n      jump\t// out\n        /* \"#utility.yul\":924:1044   */\n    tag_536:\n        /* \"#utility.yul\":996:1019   */\n      tag_616\n        /* \"#utility.yul\":1013:1018   */\n      dup2\n        /* \"#utility.yul\":996:1019   */\n      tag_535\n      jump\t// in\n    tag_616:\n        /* \"#utility.yul\":989:994   */\n      dup2\n        /* \"#utility.yul\":986:1020   */\n      eq\n        /* \"#utility.yul\":976:1038   */\n      tag_617\n      jumpi\n        /* \"#utility.yul\":1034:1035   */\n      0x00\n        /* \"#utility.yul\":1031:1032   */\n      dup1\n        /* \"#utility.yul\":1024:1036   */\n      revert\n        /* \"#utility.yul\":976:1038   */\n    tag_617:\n        /* \"#utility.yul\":924:1044   */\n      pop\n      jump\t// out\n        /* \"#utility.yul\":1050:1187   */\n    tag_537:\n        /* \"#utility.yul\":1095:1100   */\n      0x00\n        /* \"#utility.yul\":1133:1139   */\n      dup2\n        /* \"#utility.yul\":1120:1140   */\n      calldataload\n        /* \"#utility.yul\":1111:1140   */\n      swap1\n      pop\n        /* \"#utility.yul\":1149:1181   */\n      tag_619\n        /* \"#utility.yul\":1175:1180   */\n      dup2\n        /* \"#utility.yul\":1149:1181   */\n      tag_536\n      jump\t// in\n    tag_619:\n        /* \"#utility.yul\":1050:1187   */\n      swap3\n      swap2\n      pop\n      pop\n      jump\t// out\n        /* \"#utility.yul\":1193:1520   */\n    tag_57:\n        /* \"#utility.yul\":1251:1257   */\n      0x00\n        /* \"#utility.yul\":1300:1302   */\n      0x20\n        /* \"#utility.yul\":1288:1297   */\n      dup3\n        /* \"#utility.yul\":1279:1286   */\n      dup5\n        /* \"#utility.yul\":1275:1298   */\n      sub\n        /* \"#utility.yul\":1271:1303   */\n      slt\n        /* \"#utility.yul\":1268:1387   */\n      iszero\n      tag_621\n      jumpi\n        /* \"#utility.yul\":1306:1385   */\n      tag_622\n      tag_533\n      jump\t// in\n    tag_622:\n        /* \"#utility.yul\":1268:1387   */\n    tag_621:\n        /* \"#utility.yul\":1426:1427   */\n      0x00\n        /* \"#utility.yul\":1451:1503   */\n      tag_623\n        /* \"#utility.yul\":1495:1502   */\n      dup5\n        /* \"#utility.yul\":1486:1492   */\n      dup3\n        /* \"#utility.yul\":1475:1484   */\n      dup6\n        /* \"#utility.yul\":1471:1493   */\n      add\n        /* \"#utility.yul\":1451:1503   */\n      tag_537\n      jump\t// in\n    tag_623:\n        /* \"#utility.yul\":1441:1503   */\n      swap2\n      pop\n        /* \"#utility.yul\":1397:1513   */\n      pop\n        /* \"#utility.yul\":1193:1520   */\n      swap3\n      swap2\n      pop\n      pop\n      jump\t// out\n        /* \"#utility.yul\":1526:1616   */\n    tag_538:\n        /* \"#utility.yul\":1560:1567   */\n      0x00\n        /* \"#utility.yul\":1603:1608   */\n      dup2\n        /* \"#utility.yul\":1596:1609   */\n      iszero\n        /* \"#utility.yul\":1589:1610   */\n      iszero\n        /* \"#utility.yul\":1578:1610   */\n      swap1\n      pop\n        /* \"#utility.yul\":1526:1616   */\n      swap2\n      swap1\n      pop\n      jump\t// out\n        /* \"#utility.yul\":1622:1731   */\n    tag_539:\n        /* \"#utility.yul\":1703:1724   */\n      tag_626\n        /* \"#utility.yul\":1718:1723   */\n      dup2\n        /* \"#utility.yul\":1703:1724   */\n      tag_538\n      jump\t// in\n    tag_626:\n        /* \"#utility.yul\":1698:1701   */\n      dup3\n        /* \"#utility.yul\":1691:1725   */\n      mstore\n        /* \"#utility.yul\":1622:1731   */\n      pop\n      pop\n      jump\t// out\n        /* \"#utility.yul\":1737:1947   */\n    tag_60:\n        /* \"#utility.yul\":1824:1828   */\n      0x00\n        /* \"#utility.yul\":1862:1864   */\n      0x20\n        /* \"#utility.yul\":1851:1860   */\n      dup3\n        /* \"#utility.yul\":1847:1865   */\n      add\n        /* \"#utility.yul\":1839:1865   */\n      swap1\n      pop\n        /* \"#utility.yul\":1875:1940   */\n      tag_628\n        /* \"#utility.yul\":1937:1938   */\n      0x00\n        /* \"#utility.yul\":1926:1935   */\n      dup4\n        /* \"#utility.yul\":1922:1939   */\n      add\n        /* \"#utility.yul\":1913:1919   */\n      dup5\n        /* \"#utility.yul\":1875:1940   */\n      tag_539\n      jump\t// in\n    tag_628:\n        /* \"#utility.yul\":1737:1947   */\n      swap3\n      swap2\n      pop\n      pop\n      jump\t// out\n        /* \"#utility.yul\":1953:2079   */\n    tag_540:\n        /* \"#utility.yul\":1990:1997   */\n      0x00\n        /* \"#utility.yul\":2030:2072   */\n      0xffffffffffffffffffffffffffffffffffffffff\n        /* \"#utility.yul\":2023:2028   */\n      dup3\n        /* \"#utility.yul\":2019:2073   */\n      and\n        /* \"#utility.yul\":2008:2073   */\n      swap1\n      pop\n        /* \"#utility.yul\":1953:2079   */\n      swap2\n      swap1\n      pop\n      jump\t// out\n        /* \"#utility.yul\":2085:2181   */\n    tag_541:\n        /* \"#utility.yul\":2122:2129   */\n      0x00\n        /* \"#utility.yul\":2151:2175   */\n      tag_631\n        /* \"#utility.yul\":2169:2174   */\n      dup3\n        /* \"#utility.yul\":2151:2175   */\n      tag_540\n      jump\t// in\n    tag_631:\n        /* \"#utility.yul\":2140:2175   */\n      swap1\n      pop\n        /* \"#utility.yul\":2085:2181   */\n      swap2\n      swap1\n      pop\n      jump\t// out\n        /* \"#utility.yul\":2187:2309   */\n    tag_542:\n        /* \"#utility.yul\":2260:2284   */\n      tag_633\n        /* \"#utility.yul\":2278:2283   */\n      dup2\n        /* \"#utility.yul\":2260:2284   */\n      tag_541\n      jump\t// in\n    tag_633:\n        /* \"#utility.yul\":2253:2258   */\n      dup2\n        /* \"#utility.yul\":2250:2285   */\n      eq\n        /* \"#utility.yul\":2240:2303   */\n      tag_634\n      jumpi\n        /* \"#utility.yul\":2299:2300   */\n      0x00\n        /* \"#utility.yul\":2296:2297   */\n      dup1\n        /* \"#utility.yul\":2289:2301   */\n      revert\n        /* \"#utility.yul\":2240:2303   */\n    tag_634:\n        /* \"#utility.yul\":2187:2309   */\n      pop\n      jump\t// out\n        /* \"#utility.yul\":2315:2454   */\n    tag_543:\n        /* \"#utility.yul\":2361:2366   */\n      0x00\n        /* \"#utility.yul\":2399:2405   */\n      dup2\n        /* \"#utility.yul\":2386:2406   */\n      calldataload\n        /* \"#utility.yul\":2377:2406   */\n      swap1\n      pop\n        /* \"#utility.yul\":2415:2448   */\n      tag_636\n        /* \"#utility.yul\":2442:2447   */\n      dup2\n        /* \"#utility.yul\":2415:2448   */\n      tag_542\n      jump\t// in\n    tag_636:\n        /* \"#utility.yul\":2315:2454   */\n      swap3\n      swap2\n      pop\n      pop\n      jump\t// out\n        /* \"#utility.yul\":2460:2789   */\n    tag_64:\n        /* \"#utility.yul\":2519:2525   */\n      0x00\n        /* \"#utility.yul\":2568:2570   */\n      0x20\n        /* \"#utility.yul\":2556:2565   */\n      dup3\n        /* \"#utility.yul\":2547:2554   */\n      dup5\n        /* \"#utility.yul\":2543:2566   */\n      sub\n        /* \"#utility.yul\":2539:2571   */\n      slt\n        /* \"#utility.yul\":2536:2655   */\n      iszero\n      tag_638\n      jumpi\n        /* \"#utility.yul\":2574:2653   */\n      tag_639\n      tag_533\n      jump\t// in\n    tag_639:\n        /* \"#utility.yul\":2536:2655   */\n    tag_638:\n        /* \"#utility.yul\":2694:2695   */\n      0x00\n        /* \"#utility.yul\":2719:2772   */\n      tag_640\n        /* \"#utility.yul\":2764:2771   */\n      dup5\n        /* \"#utility.yul\":2755:2761   */\n      dup3\n        /* \"#utility.yul\":2744:2753   */\n      dup6\n        /* \"#utility.yul\":2740:2762   */\n      add\n        /* \"#utility.yul\":2719:2772   */\n      tag_543\n      jump\t// in\n    tag_640:\n        /* \"#utility.yul\":2709:2772   */\n      swap2\n      pop\n        /* \"#utility.yul\":2665:2782   */\n      pop\n        /* \"#utility.yul\":2460:2789   */\n      swap3\n      swap2\n      pop\n      pop\n      jump\t// out\n        /* \"#utility.yul\":2795:2872   */\n    tag_544:\n        /* \"#utility.yul\":2832:2839   */\n      0x00\n        /* \"#utility.yul\":2861:2866   */\n      dup2\n        /* \"#utility.yul\":2850:2866   */\n      swap1\n      pop\n        /* \"#utility.yul\":2795:2872   */\n      swap2\n      swap1\n      pop\n      jump\t// out\n        /* \"#utility.yul\":2878:3000   */\n    tag_545:\n        /* \"#utility.yul\":2951:2975   */\n      tag_643\n        /* \"#utility.yul\":2969:2974   */\n      dup2\n        /* \"#utility.yul\":2951:2975   */\n      tag_544\n      jump\t// in\n    tag_643:\n        /* \"#utility.yul\":2944:2949   */\n      dup2\n        /* \"#utility.yul\":2941:2976   */\n      eq\n        /* \"#utility.yul\":2931:2994   */\n      tag_644\n      jumpi\n        /* \"#utility.yul\":2990:2991   */\n      0x00\n        /* \"#utility.yul\":2987:2988   */\n      dup1\n        /* \"#utility.yul\":2980:2992   */\n      revert\n        /* \"#utility.yul\":2931:2994   */\n    tag_644:\n        /* \"#utility.yul\":2878:3000   */\n      pop\n      jump\t// out\n        /* \"#utility.yul\":3006:3145   */\n    tag_546:\n        /* \"#utility.yul\":3052:3057   */\n      0x00\n        /* \"#utility.yul\":3090:3096   */\n      dup2\n        /* \"#utility.yul\":3077:3097   */\n      calldataload\n        /* \"#utility.yul\":3068:3097   */\n      swap1\n      pop\n        /* \"#utility.yul\":3106:3139   */\n      tag_646\n        /* \"#utility.yul\":3133:3138   */\n      dup2\n        /* \"#utility.yul\":3106:3139   */\n      tag_545\n      jump\t// in\n    tag_646:\n        /* \"#utility.yul\":3006:3145   */\n      swap3\n      swap2\n      pop\n      pop\n      jump\t// out\n        /* \"#utility.yul\":3151:3268   */\n    tag_547:\n        /* \"#utility.yul\":3260:3261   */\n      0x00\n        /* \"#utility.yul\":3257:3258   */\n      dup1\n        /* \"#utility.yul\":3250:3262   */\n      revert\n        /* \"#utility.yul\":3274:3391   */\n    tag_548:\n        /* \"#utility.yul\":3383:3384   */\n      0x00\n        /* \"#utility.yul\":3380:3381   */\n      dup1\n        /* \"#utility.yul\":3373:3385   */\n      revert\n        /* \"#utility.yul\":3397:3514   */\n    tag_549:\n        /* \"#utility.yul\":3506:3507   */\n      0x00\n        /* \"#utility.yul\":3503:3504   */\n      dup1\n        /* \"#utility.yul\":3496:3508   */\n      revert\n        /* \"#utility.yul\":3534:4087   */\n    tag_550:\n        /* \"#utility.yul\":3592:3600   */\n      0x00\n        /* \"#utility.yul\":3602:3608   */\n      dup1\n        /* \"#utility.yul\":3652:3655   */\n      dup4\n        /* \"#utility.yul\":3645:3649   */\n      0x1f\n        /* \"#utility.yul\":3637:3643   */\n      dup5\n        /* \"#utility.yul\":3633:3650   */\n      add\n        /* \"#utility.yul\":3629:3656   */\n      slt\n        /* \"#utility.yul\":3619:3741   */\n      tag_651\n      jumpi\n        /* \"#utility.yul\":3660:3739   */\n      tag_652\n      tag_547\n      jump\t// in\n    tag_652:\n        /* \"#utility.yul\":3619:3741   */\n    tag_651:\n        /* \"#utility.yul\":3773:3779   */\n      dup3\n        /* \"#utility.yul\":3760:3780   */\n      calldataload\n        /* \"#utility.yul\":3750:3780   */\n      swap1\n      pop\n        /* \"#utility.yul\":3803:3821   */\n      0xffffffffffffffff\n        /* \"#utility.yul\":3795:3801   */\n      dup2\n        /* \"#utility.yul\":3792:3822   */\n      gt\n        /* \"#utility.yul\":3789:3906   */\n      iszero\n      tag_653\n      jumpi\n        /* \"#utility.yul\":3825:3904   */\n      tag_654\n      tag_548\n      jump\t// in\n    tag_654:\n        /* \"#utility.yul\":3789:3906   */\n    tag_653:\n        /* \"#utility.yul\":3939:3943   */\n      0x20\n        /* \"#utility.yul\":3931:3937   */\n      dup4\n        /* \"#utility.yul\":3927:3944   */\n      add\n        /* \"#utility.yul\":3915:3944   */\n      swap2\n      pop\n        /* \"#utility.yul\":3993:3996   */\n      dup4\n        /* \"#utility.yul\":3985:3989   */\n      0x01\n        /* \"#utility.yul\":3977:3983   */\n      dup3\n        /* \"#utility.yul\":3973:3990   */\n      mul\n        /* \"#utility.yul\":3963:3971   */\n      dup4\n        /* \"#utility.yul\":3959:3991   */\n      add\n        /* \"#utility.yul\":3956:3997   */\n      gt\n        /* \"#utility.yul\":3953:4081   */\n      iszero\n      tag_655\n      jumpi\n        /* \"#utility.yul\":4000:4079   */\n      tag_656\n      tag_549\n      jump\t// in\n    tag_656:\n        /* \"#utility.yul\":3953:4081   */\n    tag_655:\n        /* \"#utility.yul\":3534:4087   */\n      swap3\n      pop\n      swap3\n      swap1\n      pop\n      jump\t// out\n        /* \"#utility.yul\":4093:4767   */\n    tag_70:\n        /* \"#utility.yul\":4173:4179   */\n      0x00\n        /* \"#utility.yul\":4181:4187   */\n      dup1\n        /* \"#utility.yul\":4189:4195   */\n      0x00\n        /* \"#utility.yul\":4238:4240   */\n      0x40\n        /* \"#utility.yul\":4226:4235   */\n      dup5\n        /* \"#utility.yul\":4217:4224   */\n      dup7\n        /* \"#utility.yul\":4213:4236   */\n      sub\n        /* \"#utility.yul\":4209:4241   */\n      slt\n        /* \"#utility.yul\":4206:4325   */\n      iszero\n      tag_658\n      jumpi\n        /* \"#utility.yul\":4244:4323   */\n      tag_659\n      tag_533\n      jump\t// in\n    tag_659:\n        /* \"#utility.yul\":4206:4325   */\n    tag_658:\n        /* \"#utility.yul\":4364:4365   */\n      0x00\n        /* \"#utility.yul\":4389:4442   */\n      tag_660\n        /* \"#utility.yul\":4434:4441   */\n      dup7\n        /* \"#utility.yul\":4425:4431   */\n      dup3\n        /* \"#utility.yul\":4414:4423   */\n      dup8\n        /* \"#utility.yul\":4410:4432   */\n      add\n        /* \"#utility.yul\":4389:4442   */\n      tag_546\n      jump\t// in\n    tag_660:\n        /* \"#utility.yul\":4379:4442   */\n      swap4\n      pop\n        /* \"#utility.yul\":4335:4452   */\n      pop\n        /* \"#utility.yul\":4519:4521   */\n      0x20\n        /* \"#utility.yul\":4508:4517   */\n      dup5\n        /* \"#utility.yul\":4504:4522   */\n      add\n        /* \"#utility.yul\":4491:4523   */\n      calldataload\n        /* \"#utility.yul\":4550:4568   */\n      0xffffffffffffffff\n        /* \"#utility.yul\":4542:4548   */\n      dup2\n        /* \"#utility.yul\":4539:4569   */\n      gt\n        /* \"#utility.yul\":4536:4653   */\n      iszero\n      tag_661\n      jumpi\n        /* \"#utility.yul\":4572:4651   */\n      tag_662\n      tag_534\n      jump\t// in\n    tag_662:\n        /* \"#utility.yul\":4536:4653   */\n    tag_661:\n        /* \"#utility.yul\":4685:4750   */\n      tag_663\n        /* \"#utility.yul\":4742:4749   */\n      dup7\n        /* \"#utility.yul\":4733:4739   */\n      dup3\n        /* \"#utility.yul\":4722:4731   */\n      dup8\n        /* \"#utility.yul\":4718:4740   */\n      add\n        /* \"#utility.yul\":4685:4750   */\n      tag_550\n      jump\t// in\n    tag_663:\n        /* \"#utility.yul\":4667:4750   */\n      swap3\n      pop\n      swap3\n      pop\n        /* \"#utility.yul\":4462:4760   */\n      pop\n        /* \"#utility.yul\":4093:4767   */\n      swap3\n      pop\n      swap3\n      pop\n      swap3\n      jump\t// out\n        /* \"#utility.yul\":4773:4891   */\n    tag_551:\n        /* \"#utility.yul\":4860:4884   */\n      tag_665\n        /* \"#utility.yul\":4878:4883   */\n      dup2\n        /* \"#utility.yul\":4860:4884   */\n      tag_544\n      jump\t// in\n    tag_665:\n        /* \"#utility.yul\":4855:4858   */\n      dup3\n        /* \"#utility.yul\":4848:4885   */\n      mstore\n        /* \"#utility.yul\":4773:4891   */\n      pop\n      pop\n      jump\t// out\n        /* \"#utility.yul\":4897:5119   */\n    tag_76:\n        /* \"#utility.yul\":4990:4994   */\n      0x00\n        /* \"#utility.yul\":5028:5030   */\n      0x20\n        /* \"#utility.yul\":5017:5026   */\n      dup3\n        /* \"#utility.yul\":5013:5031   */\n      add\n        /* \"#utility.yul\":5005:5031   */\n      swap1\n      pop\n        /* \"#utility.yul\":5041:5112   */\n      tag_667\n        /* \"#utility.yul\":5109:5110   */\n      0x00\n        /* \"#utility.yul\":5098:5107   */\n      dup4\n        /* \"#utility.yul\":5094:5111   */\n      add\n        /* \"#utility.yul\":5085:5091   */\n      dup5\n        /* \"#utility.yul\":5041:5112   */\n      tag_551\n      jump\t// in\n    tag_667:\n        /* \"#utility.yul\":4897:5119   */\n      swap3\n      swap2\n      pop\n      pop\n      jump\t// out\n        /* \"#utility.yul\":5125:5243   */\n    tag_552:\n        /* \"#utility.yul\":5212:5236   */\n      tag_669\n        /* \"#utility.yul\":5230:5235   */\n      dup2\n        /* \"#utility.yul\":5212:5236   */\n      tag_541\n      jump\t// in\n    tag_669:\n        /* \"#utility.yul\":5207:5210   */\n      dup3\n        /* \"#utility.yul\":5200:5237   */\n      mstore\n        /* \"#utility.yul\":5125:5243   */\n      pop\n      pop\n      jump\t// out\n        /* \"#utility.yul\":5249:5471   */\n    tag_85:\n        /* \"#utility.yul\":5342:5346   */\n      0x00\n        /* \"#utility.yul\":5380:5382   */\n      0x20\n        /* \"#utility.yul\":5369:5378   */\n      dup3\n        /* \"#utility.yul\":5365:5383   */\n      add\n        /* \"#utility.yul\":5357:5383   */\n      swap1\n      pop\n        /* \"#utility.yul\":5393:5464   */\n      tag_671\n        /* \"#utility.yul\":5461:5462   */\n      0x00\n        /* \"#utility.yul\":5450:5459   */\n      dup4\n        /* \"#utility.yul\":5446:5463   */\n      add\n        /* \"#utility.yul\":5437:5443   */\n      dup5\n        /* \"#utility.yul\":5393:5464   */\n      tag_552\n      jump\t// in\n    tag_671:\n        /* \"#utility.yul\":5249:5471   */\n      swap3\n      swap2\n      pop\n      pop\n      jump\t// out\n        /* \"#utility.yul\":5477:5599   */\n    tag_553:\n        /* \"#utility.yul\":5550:5574   */\n      tag_673\n        /* \"#utility.yul\":5568:5573   */\n      dup2\n        /* \"#utility.yul\":5550:5574   */\n      tag_530\n      jump\t// in\n    tag_673:\n        /* \"#utility.yul\":5543:5548   */\n      dup2\n        /* \"#utility.yul\":5540:5575   */\n      eq\n        /* \"#utility.yul\":5530:5593   */\n      tag_674\n      jumpi\n        /* \"#utility.yul\":5589:5590   */\n      0x00\n        /* \"#utility.yul\":5586:5587   */\n      dup1\n        /* \"#utility.yul\":5579:5591   */\n      revert\n        /* \"#utility.yul\":5530:5593   */\n    tag_674:\n        /* \"#utility.yul\":5477:5599   */\n      pop\n      jump\t// out\n        /* \"#utility.yul\":5605:5744   */\n    tag_554:\n        /* \"#utility.yul\":5651:5656   */\n      0x00\n        /* \"#utility.yul\":5689:5695   */\n      dup2\n        /* \"#utility.yul\":5676:5696   */\n      calldataload\n        /* \"#utility.yul\":5667:5696   */\n      swap1\n      pop\n        /* \"#utility.yul\":5705:5738   */\n      tag_676\n        /* \"#utility.yul\":5732:5737   */\n      dup2\n        /* \"#utility.yul\":5705:5738   */\n      tag_553\n      jump\t// in\n    tag_676:\n        /* \"#utility.yul\":5605:5744   */\n      swap3\n      swap2\n      pop\n      pop\n      jump\t// out\n        /* \"#utility.yul\":5750:6079   */\n    tag_89:\n        /* \"#utility.yul\":5809:5815   */\n      0x00\n        /* \"#utility.yul\":5858:5860   */\n      0x20\n        /* \"#utility.yul\":5846:5855   */\n      dup3\n        /* \"#utility.yul\":5837:5844   */\n      dup5\n        /* \"#utility.yul\":5833:5856   */\n      sub\n        /* \"#utility.yul\":5829:5861   */\n      slt\n        /* \"#utility.yul\":5826:5945   */\n      iszero\n      tag_678\n      jumpi\n        /* \"#utility.yul\":5864:5943   */\n      tag_679\n      tag_533\n      jump\t// in\n    tag_679:\n        /* \"#utility.yul\":5826:5945   */\n    tag_678:\n        /* \"#utility.yul\":5984:5985   */\n      0x00\n        /* \"#utility.yul\":6009:6062   */\n      tag_680\n        /* \"#utility.yul\":6054:6061   */\n      dup5\n        /* \"#utility.yul\":6045:6051   */\n      dup3\n        /* \"#utility.yul\":6034:6043   */\n      dup6\n        /* \"#utility.yul\":6030:6052   */\n      add\n        /* \"#utility.yul\":6009:6062   */\n      tag_554\n      jump\t// in\n    tag_680:\n        /* \"#utility.yul\":5999:6062   */\n      swap2\n      pop\n        /* \"#utility.yul\":5955:6072   */\n      pop\n        /* \"#utility.yul\":5750:6079   */\n      swap3\n      swap2\n      pop\n      pop\n      jump\t// out\n        /* \"#utility.yul\":6085:6559   */\n    tag_103:\n        /* \"#utility.yul\":6153:6159   */\n      0x00\n        /* \"#utility.yul\":6161:6167   */\n      dup1\n        /* \"#utility.yul\":6210:6212   */\n      0x40\n        /* \"#utility.yul\":6198:6207   */\n      dup4\n        /* \"#utility.yul\":6189:6196   */\n      dup6\n        /* \"#utility.yul\":6185:6208   */\n      sub\n        /* \"#utility.yul\":6181:6213   */\n      slt\n        /* \"#utility.yul\":6178:6297   */\n      iszero\n      tag_682\n      jumpi\n        /* \"#utility.yul\":6216:6295   */\n      tag_683\n      tag_533\n      jump\t// in\n    tag_683:\n        /* \"#utility.yul\":6178:6297   */\n    tag_682:\n        /* \"#utility.yul\":6336:6337   */\n      0x00\n        /* \"#utility.yul\":6361:6414   */\n      tag_684\n        /* \"#utility.yul\":6406:6413   */\n      dup6\n        /* \"#utility.yul\":6397:6403   */\n      dup3\n        /* \"#utility.yul\":6386:6395   */\n      dup7\n        /* \"#utility.yul\":6382:6404   */\n      add\n        /* \"#utility.yul\":6361:6414   */\n      tag_554\n      jump\t// in\n    tag_684:\n        /* \"#utility.yul\":6351:6414   */\n      swap3\n      pop\n        /* \"#utility.yul\":6307:6424   */\n      pop\n        /* \"#utility.yul\":6463:6465   */\n      0x20\n        /* \"#utility.yul\":6489:6542   */\n      tag_685\n        /* \"#utility.yul\":6534:6541   */\n      dup6\n        /* \"#utility.yul\":6525:6531   */\n      dup3\n        /* \"#utility.yul\":6514:6523   */\n      dup7\n        /* \"#utility.yul\":6510:6532   */\n      add\n        /* \"#utility.yul\":6489:6542   */\n      tag_543\n      jump\t// in\n    tag_685:\n        /* \"#utility.yul\":6479:6542   */\n      swap2\n      pop\n        /* \"#utility.yul\":6434:6552   */\n      pop\n        /* \"#utility.yul\":6085:6559   */\n      swap3\n      pop\n      swap3\n      swap1\n      pop\n      jump\t// out\n        /* \"#utility.yul\":6565:6894   */\n    tag_107:\n        /* \"#utility.yul\":6624:6630   */\n      0x00\n        /* \"#utility.yul\":6673:6675   */\n      0x20\n        /* \"#utility.yul\":6661:6670   */\n      dup3\n        /* \"#utility.yul\":6652:6659   */\n      dup5\n        /* \"#utility.yul\":6648:6671   */\n      sub\n        /* \"#utility.yul\":6644:6676   */\n      slt\n        /* \"#utility.yul\":6641:6760   */\n      iszero\n      tag_687\n      jumpi\n        /* \"#utility.yul\":6679:6758   */\n      tag_688\n      tag_533\n      jump\t// in\n    tag_688:\n        /* \"#utility.yul\":6641:6760   */\n    tag_687:\n        /* \"#utility.yul\":6799:6800   */\n      0x00\n        /* \"#utility.yul\":6824:6877   */\n      tag_689\n        /* \"#utility.yul\":6869:6876   */\n      dup5\n        /* \"#utility.yul\":6860:6866   */\n      dup3\n        /* \"#utility.yul\":6849:6858   */\n      dup6\n        /* \"#utility.yul\":6845:6867   */\n      add\n        /* \"#utility.yul\":6824:6877   */\n      tag_546\n      jump\t// in\n    tag_689:\n        /* \"#utility.yul\":6814:6877   */\n      swap2\n      pop\n        /* \"#utility.yul\":6770:6887   */\n      pop\n        /* \"#utility.yul\":6565:6894   */\n      swap3\n      swap2\n      pop\n      pop\n      jump\t// out\n        /* \"#utility.yul\":6900:8541   */\n    tag_136:\n        /* \"#utility.yul\":7040:7046   */\n      0x00\n        /* \"#utility.yul\":7048:7054   */\n      dup1\n        /* \"#utility.yul\":7056:7062   */\n      0x00\n        /* \"#utility.yul\":7064:7070   */\n      dup1\n        /* \"#utility.yul\":7072:7078   */\n      0x00\n        /* \"#utility.yul\":7080:7086   */\n      dup1\n        /* \"#utility.yul\":7088:7094   */\n      0x00\n        /* \"#utility.yul\":7096:7102   */\n      dup1\n        /* \"#utility.yul\":7104:7110   */\n      0x00\n        /* \"#utility.yul\":7112:7118   */\n      dup1\n        /* \"#utility.yul\":7161:7164   */\n      0x0140\n        /* \"#utility.yul\":7149:7158   */\n      dup12\n        /* \"#utility.yul\":7140:7147   */\n      dup14\n        /* \"#utility.yul\":7136:7159   */\n      sub\n        /* \"#utility.yul\":7132:7165   */\n      slt\n        /* \"#utility.yul\":7129:7249   */\n      iszero\n      tag_691\n      jumpi\n        /* \"#utility.yul\":7168:7247   */\n      tag_692\n      tag_533\n      jump\t// in\n    tag_692:\n        /* \"#utility.yul\":7129:7249   */\n    tag_691:\n        /* \"#utility.yul\":7288:7289   */\n      0x00\n        /* \"#utility.yul\":7313:7366   */\n      tag_693\n        /* \"#utility.yul\":7358:7365   */\n      dup14\n        /* \"#utility.yul\":7349:7355   */\n      dup3\n        /* \"#utility.yul\":7338:7347   */\n      dup15\n        /* \"#utility.yul\":7334:7356   */\n      add\n        /* \"#utility.yul\":7313:7366   */\n      tag_543\n      jump\t// in\n    tag_693:\n        /* \"#utility.yul\":7303:7366   */\n      swap11\n      pop\n        /* \"#utility.yul\":7259:7376   */\n      pop\n        /* \"#utility.yul\":7415:7417   */\n      0x20\n        /* \"#utility.yul\":7441:7494   */\n      tag_694\n        /* \"#utility.yul\":7486:7493   */\n      dup14\n        /* \"#utility.yul\":7477:7483   */\n      dup3\n        /* \"#utility.yul\":7466:7475   */\n      dup15\n        /* \"#utility.yul\":7462:7484   */\n      add\n        /* \"#utility.yul\":7441:7494   */\n      tag_543\n      jump\t// in\n    tag_694:\n        /* \"#utility.yul\":7431:7494   */\n      swap10\n      pop\n        /* \"#utility.yul\":7386:7504   */\n      pop\n        /* \"#utility.yul\":7543:7545   */\n      0x40\n        /* \"#utility.yul\":7569:7622   */\n      tag_695\n        /* \"#utility.yul\":7614:7621   */\n      dup14\n        /* \"#utility.yul\":7605:7611   */\n      dup3\n        /* \"#utility.yul\":7594:7603   */\n      dup15\n        /* \"#utility.yul\":7590:7612   */\n      add\n        /* \"#utility.yul\":7569:7622   */\n      tag_543\n      jump\t// in\n    tag_695:\n        /* \"#utility.yul\":7559:7622   */\n      swap9\n      pop\n        /* \"#utility.yul\":7514:7632   */\n      pop\n        /* \"#utility.yul\":7671:7673   */\n      0x60\n        /* \"#utility.yul\":7697:7750   */\n      tag_696\n        /* \"#utility.yul\":7742:7749   */\n      dup14\n        /* \"#utility.yul\":7733:7739   */\n      dup3\n        /* \"#utility.yul\":7722:7731   */\n      dup15\n        /* \"#utility.yul\":7718:7740   */\n      add\n        /* \"#utility.yul\":7697:7750   */\n      tag_543\n      jump\t// in\n    tag_696:\n        /* \"#utility.yul\":7687:7750   */\n      swap8\n      pop\n        /* \"#utility.yul\":7642:7760   */\n      pop\n        /* \"#utility.yul\":7799:7802   */\n      0x80\n        /* \"#utility.yul\":7826:7879   */\n      tag_697\n        /* \"#utility.yul\":7871:7878   */\n      dup14\n        /* \"#utility.yul\":7862:7868   */\n      dup3\n        /* \"#utility.yul\":7851:7860   */\n      dup15\n        /* \"#utility.yul\":7847:7869   */\n      add\n        /* \"#utility.yul\":7826:7879   */\n      tag_543\n      jump\t// in\n    tag_697:\n        /* \"#utility.yul\":7816:7879   */\n      swap7\n      pop\n        /* \"#utility.yul\":7770:7889   */\n      pop\n        /* \"#utility.yul\":7928:7931   */\n      0xa0\n        /* \"#utility.yul\":7955:8008   */\n      tag_698\n        /* \"#utility.yul\":8000:8007   */\n      dup14\n        /* \"#utility.yul\":7991:7997   */\n      dup3\n        /* \"#utility.yul\":7980:7989   */\n      dup15\n        /* \"#utility.yul\":7976:7998   */\n      add\n        /* \"#utility.yul\":7955:8008   */\n      tag_546\n      jump\t// in\n    tag_698:\n        /* \"#utility.yul\":7945:8008   */\n      swap6\n      pop\n        /* \"#utility.yul\":7899:8018   */\n      pop\n        /* \"#utility.yul\":8057:8060   */\n      0xc0\n        /* \"#utility.yul\":8084:8137   */\n      tag_699\n        /* \"#utility.yul\":8129:8136   */\n      dup14\n        /* \"#utility.yul\":8120:8126   */\n      dup3\n        /* \"#utility.yul\":8109:8118   */\n      dup15\n        /* \"#utility.yul\":8105:8127   */\n      add\n        /* \"#utility.yul\":8084:8137   */\n      tag_546\n      jump\t// in\n    tag_699:\n        /* \"#utility.yul\":8074:8137   */\n      swap5\n      pop\n        /* \"#utility.yul\":8028:8147   */\n      pop\n        /* \"#utility.yul\":8186:8189   */\n      0xe0\n        /* \"#utility.yul\":8213:8266   */\n      tag_700\n        /* \"#utility.yul\":8258:8265   */\n      dup14\n        /* \"#utility.yul\":8249:8255   */\n      dup3\n        /* \"#utility.yul\":8238:8247   */\n      dup15\n        /* \"#utility.yul\":8234:8256   */\n      add\n        /* \"#utility.yul\":8213:8266   */\n      tag_546\n      jump\t// in\n    tag_700:\n        /* \"#utility.yul\":8203:8266   */\n      swap4\n      pop\n        /* \"#utility.yul\":8157:8276   */\n      pop\n        /* \"#utility.yul\":8315:8318   */\n      0x0100\n        /* \"#utility.yul\":8342:8395   */\n      tag_701\n        /* \"#utility.yul\":8387:8394   */\n      dup14\n        /* \"#utility.yul\":8378:8384   */\n      dup3\n        /* \"#utility.yul\":8367:8376   */\n      dup15\n        /* \"#utility.yul\":8363:8385   */\n      add\n        /* \"#utility.yul\":8342:8395   */\n      tag_546\n      jump\t// in\n    tag_701:\n        /* \"#utility.yul\":8332:8395   */\n      swap3\n      pop\n        /* \"#utility.yul\":8286:8405   */\n      pop\n        /* \"#utility.yul\":8444:8447   */\n      0x0120\n        /* \"#utility.yul\":8471:8524   */\n      tag_702\n        /* \"#utility.yul\":8516:8523   */\n      dup14\n        /* \"#utility.yul\":8507:8513   */\n      dup3\n        /* \"#utility.yul\":8496:8505   */\n      dup15\n        /* \"#utility.yul\":8492:8514   */\n      add\n        /* \"#utility.yul\":8471:8524   */\n      tag_546\n      jump\t// in\n    tag_702:\n        /* \"#utility.yul\":8461:8524   */\n      swap2\n      pop\n        /* \"#utility.yul\":8415:8534   */\n      pop\n        /* \"#utility.yul\":6900:8541   */\n      swap3\n      swap6\n      swap9\n      swap12\n      swap2\n      swap5\n      swap8\n      swap11\n      pop\n      swap3\n      swap6\n      swap9\n      pop\n      jump\t// out\n        /* \"#utility.yul\":8547:8664   */\n    tag_555:\n        /* \"#utility.yul\":8656:8657   */\n      0x00\n        /* \"#utility.yul\":8653:8654   */\n      dup1\n        /* \"#utility.yul\":8646:8658   */\n      revert\n        /* \"#utility.yul\":8670:8772   */\n    tag_556:\n        /* \"#utility.yul\":8711:8717   */\n      0x00\n        /* \"#utility.yul\":8762:8764   */\n      0x1f\n        /* \"#utility.yul\":8758:8765   */\n      not\n        /* \"#utility.yul\":8753:8755   */\n      0x1f\n        /* \"#utility.yul\":8746:8751   */\n      dup4\n        /* \"#utility.yul\":8742:8756   */\n      add\n        /* \"#utility.yul\":8738:8766   */\n      and\n        /* \"#utility.yul\":8728:8766   */\n      swap1\n      pop\n        /* \"#utility.yul\":8670:8772   */\n      swap2\n      swap1\n      pop\n      jump\t// out\n        /* \"#utility.yul\":8778:8958   */\n    tag_557:\n        /* \"#utility.yul\":8826:8903   */\n      0x4e487b7100000000000000000000000000000000000000000000000000000000\n        /* \"#utility.yul\":8823:8824   */\n      0x00\n        /* \"#utility.yul\":8816:8904   */\n      mstore\n        /* \"#utility.yul\":8923:8927   */\n      0x41\n        /* \"#utility.yul\":8920:8921   */\n      0x04\n        /* \"#utility.yul\":8913:8928   */\n      mstore\n        /* \"#utility.yul\":8947:8951   */\n      0x24\n        /* \"#utility.yul\":8944:8945   */\n      0x00\n        /* \"#utility.yul\":8937:8952   */\n      revert\n        /* \"#utility.yul\":8964:9245   */\n    tag_558:\n        /* \"#utility.yul\":9047:9074   */\n      tag_707\n        /* \"#utility.yul\":9069:9073   */\n      dup3\n        /* \"#utility.yul\":9047:9074   */\n      tag_556\n      jump\t// in\n    tag_707:\n        /* \"#utility.yul\":9039:9045   */\n      dup2\n        /* \"#utility.yul\":9035:9075   */\n      add\n        /* \"#utility.yul\":9177:9183   */\n      dup2\n        /* \"#utility.yul\":9165:9175   */\n      dup2\n        /* \"#utility.yul\":9162:9184   */\n      lt\n        /* \"#utility.yul\":9141:9159   */\n      0xffffffffffffffff\n        /* \"#utility.yul\":9129:9139   */\n      dup3\n        /* \"#utility.yul\":9126:9160   */\n      gt\n        /* \"#utility.yul\":9123:9185   */\n      or\n        /* \"#utility.yul\":9120:9208   */\n      iszero\n      tag_708\n      jumpi\n        /* \"#utility.yul\":9188:9206   */\n      tag_709\n      tag_557\n      jump\t// in\n    tag_709:\n        /* \"#utility.yul\":9120:9208   */\n    tag_708:\n        /* \"#utility.yul\":9228:9238   */\n      dup1\n        /* \"#utility.yul\":9224:9226   */\n      0x40\n        /* \"#utility.yul\":9217:9239   */\n      mstore\n        /* \"#utility.yul\":9007:9245   */\n      pop\n        /* \"#utility.yul\":8964:9245   */\n      pop\n      pop\n      jump\t// out\n        /* \"#utility.yul\":9251:9380   */\n    tag_559:\n        /* \"#utility.yul\":9285:9291   */\n      0x00\n        /* \"#utility.yul\":9312:9332   */\n      tag_711\n      tag_532\n      jump\t// in\n    tag_711:\n        /* \"#utility.yul\":9302:9332   */\n      swap1\n      pop\n        /* \"#utility.yul\":9341:9374   */\n      tag_712\n        /* \"#utility.yul\":9369:9373   */\n      dup3\n        /* \"#utility.yul\":9361:9367   */\n      dup3\n        /* \"#utility.yul\":9341:9374   */\n      tag_558\n      jump\t// in\n    tag_712:\n        /* \"#utility.yul\":9251:9380   */\n      swap2\n      swap1\n      pop\n      jump\t// out\n        /* \"#utility.yul\":9386:9693   */\n    tag_560:\n        /* \"#utility.yul\":9447:9451   */\n      0x00\n        /* \"#utility.yul\":9537:9555   */\n      0xffffffffffffffff\n        /* \"#utility.yul\":9529:9535   */\n      dup3\n        /* \"#utility.yul\":9526:9556   */\n      gt\n        /* \"#utility.yul\":9523:9579   */\n      iszero\n      tag_714\n      jumpi\n        /* \"#utility.yul\":9559:9577   */\n      tag_715\n      tag_557\n      jump\t// in\n    tag_715:\n        /* \"#utility.yul\":9523:9579   */\n    tag_714:\n        /* \"#utility.yul\":9597:9626   */\n      tag_716\n        /* \"#utility.yul\":9619:9625   */\n      dup3\n        /* \"#utility.yul\":9597:9626   */\n      tag_556\n      jump\t// in\n    tag_716:\n        /* \"#utility.yul\":9589:9626   */\n      swap1\n      pop\n        /* \"#utility.yul\":9681:9685   */\n      0x20\n        /* \"#utility.yul\":9675:9679   */\n      dup2\n        /* \"#utility.yul\":9671:9686   */\n      add\n        /* \"#utility.yul\":9663:9686   */\n      swap1\n      pop\n        /* \"#utility.yul\":9386:9693   */\n      swap2\n      swap1\n      pop\n      jump\t// out\n        /* \"#utility.yul\":9699:9847   */\n    tag_561:\n        /* \"#utility.yul\":9797:9803   */\n      dup3\n        /* \"#utility.yul\":9792:9795   */\n      dup2\n        /* \"#utility.yul\":9787:9790   */\n      dup4\n        /* \"#utility.yul\":9774:9804   */\n      calldatacopy\n        /* \"#utility.yul\":9838:9839   */\n      0x00\n        /* \"#utility.yul\":9829:9835   */\n      dup4\n        /* \"#utility.yul\":9824:9827   */\n      dup4\n        /* \"#utility.yul\":9820:9836   */\n      add\n        /* \"#utility.yul\":9813:9840   */\n      mstore\n        /* \"#utility.yul\":9699:9847   */\n      pop\n      pop\n      pop\n      jump\t// out\n        /* \"#utility.yul\":9853:10276   */\n    tag_562:\n        /* \"#utility.yul\":9930:9935   */\n      0x00\n        /* \"#utility.yul\":9955:10020   */\n      tag_719\n        /* \"#utility.yul\":9971:10019   */\n      tag_720\n        /* \"#utility.yul\":10012:10018   */\n      dup5\n        /* \"#utility.yul\":9971:10019   */\n      tag_560\n      jump\t// in\n    tag_720:\n        /* \"#utility.yul\":9955:10020   */\n      tag_559\n      jump\t// in\n    tag_719:\n        /* \"#utility.yul\":9946:10020   */\n      swap1\n      pop\n        /* \"#utility.yul\":10043:10049   */\n      dup3\n        /* \"#utility.yul\":10036:10041   */\n      dup2\n        /* \"#utility.yul\":10029:10050   */\n      mstore\n        /* \"#utility.yul\":10081:10085   */\n      0x20\n        /* \"#utility.yul\":10074:10079   */\n      dup2\n        /* \"#utility.yul\":10070:10086   */\n      add\n        /* \"#utility.yul\":10119:10122   */\n      dup5\n        /* \"#utility.yul\":10110:10116   */\n      dup5\n        /* \"#utility.yul\":10105:10108   */\n      dup5\n        /* \"#utility.yul\":10101:10117   */\n      add\n        /* \"#utility.yul\":10098:10123   */\n      gt\n        /* \"#utility.yul\":10095:10207   */\n      iszero\n      tag_721\n      jumpi\n        /* \"#utility.yul\":10126:10205   */\n      tag_722\n      tag_555\n      jump\t// in\n    tag_722:\n        /* \"#utility.yul\":10095:10207   */\n    tag_721:\n        /* \"#utility.yul\":10216:10270   */\n      tag_723\n        /* \"#utility.yul\":10263:10269   */\n      dup5\n        /* \"#utility.yul\":10258:10261   */\n      dup3\n        /* \"#utility.yul\":10253:10256   */\n      dup6\n        /* \"#utility.yul\":10216:10270   */\n      tag_561\n      jump\t// in\n    tag_723:\n        /* \"#utility.yul\":9936:10276   */\n      pop\n        /* \"#utility.yul\":9853:10276   */\n      swap4\n      swap3\n      pop\n      pop\n      pop\n      jump\t// out\n        /* \"#utility.yul\":10295:10633   */\n    tag_563:\n        /* \"#utility.yul\":10350:10355   */\n      0x00\n        /* \"#utility.yul\":10399:10402   */\n      dup3\n        /* \"#utility.yul\":10392:10396   */\n      0x1f\n        /* \"#utility.yul\":10384:10390   */\n      dup4\n        /* \"#utility.yul\":10380:10397   */\n      add\n        /* \"#utility.yul\":10376:10403   */\n      slt\n        /* \"#utility.yul\":10366:10488   */\n      tag_725\n      jumpi\n        /* \"#utility.yul\":10407:10486   */\n      tag_726\n      tag_547\n      jump\t// in\n    tag_726:\n        /* \"#utility.yul\":10366:10488   */\n    tag_725:\n        /* \"#utility.yul\":10524:10530   */\n      dup2\n        /* \"#utility.yul\":10511:10531   */\n      calldataload\n        /* \"#utility.yul\":10549:10627   */\n      tag_727\n        /* \"#utility.yul\":10623:10626   */\n      dup5\n        /* \"#utility.yul\":10615:10621   */\n      dup3\n        /* \"#utility.yul\":10608:10612   */\n      0x20\n        /* \"#utility.yul\":10600:10606   */\n      dup7\n        /* \"#utility.yul\":10596:10613   */\n      add\n        /* \"#utility.yul\":10549:10627   */\n      tag_562\n      jump\t// in\n    tag_727:\n        /* \"#utility.yul\":10540:10627   */\n      swap2\n      pop\n        /* \"#utility.yul\":10356:10633   */\n      pop\n        /* \"#utility.yul\":10295:10633   */\n      swap3\n      swap2\n      pop\n      pop\n      jump\t// out\n        /* \"#utility.yul\":10639:11291   */\n    tag_144:\n        /* \"#utility.yul\":10716:10722   */\n      0x00\n        /* \"#utility.yul\":10724:10730   */\n      dup1\n        /* \"#utility.yul\":10773:10775   */\n      0x40\n        /* \"#utility.yul\":10761:10770   */\n      dup4\n        /* \"#utility.yul\":10752:10759   */\n      dup6\n        /* \"#utility.yul\":10748:10771   */\n      sub\n        /* \"#utility.yul\":10744:10776   */\n      slt\n        /* \"#utility.yul\":10741:10860   */\n      iszero\n      tag_729\n      jumpi\n        /* \"#utility.yul\":10779:10858   */\n      tag_730\n      tag_533\n      jump\t// in\n    tag_730:\n        /* \"#utility.yul\":10741:10860   */\n    tag_729:\n        /* \"#utility.yul\":10899:10900   */\n      0x00\n        /* \"#utility.yul\":10924:10977   */\n      tag_731\n        /* \"#utility.yul\":10969:10976   */\n      dup6\n        /* \"#utility.yul\":10960:10966   */\n      dup3\n        /* \"#utility.yul\":10949:10958   */\n      dup7\n        /* \"#utility.yul\":10945:10967   */\n      add\n        /* \"#utility.yul\":10924:10977   */\n      tag_543\n      jump\t// in\n    tag_731:\n        /* \"#utility.yul\":10914:10977   */\n      swap3\n      pop\n        /* \"#utility.yul\":10870:10987   */\n      pop\n        /* \"#utility.yul\":11054:11056   */\n      0x20\n        /* \"#utility.yul\":11043:11052   */\n      dup4\n        /* \"#utility.yul\":11039:11057   */\n      add\n        /* \"#utility.yul\":11026:11058   */\n      calldataload\n        /* \"#utility.yul\":11085:11103   */\n      0xffffffffffffffff\n        /* \"#utility.yul\":11077:11083   */\n      dup2\n        /* \"#utility.yul\":11074:11104   */\n      gt\n        /* \"#utility.yul\":11071:11188   */\n      iszero\n      tag_732\n      jumpi\n        /* \"#utility.yul\":11107:11186   */\n      tag_733\n      tag_534\n      jump\t// in\n    tag_733:\n        /* \"#utility.yul\":11071:11188   */\n    tag_732:\n        /* \"#utility.yul\":11212:11274   */\n      tag_734\n        /* \"#utility.yul\":11266:11273   */\n      dup6\n        /* \"#utility.yul\":11257:11263   */\n      dup3\n        /* \"#utility.yul\":11246:11255   */\n      dup7\n        /* \"#utility.yul\":11242:11264   */\n      add\n        /* \"#utility.yul\":11212:11274   */\n      tag_563\n      jump\t// in\n    tag_734:\n        /* \"#utility.yul\":11202:11274   */\n      swap2\n      pop\n        /* \"#utility.yul\":10997:11284   */\n      pop\n        /* \"#utility.yul\":10639:11291   */\n      swap3\n      pop\n      swap3\n      swap1\n      pop\n      jump\t// out\n        /* \"#utility.yul\":11297:11396   */\n    tag_564:\n        /* \"#utility.yul\":11349:11355   */\n      0x00\n        /* \"#utility.yul\":11383:11388   */\n      dup2\n        /* \"#utility.yul\":11377:11389   */\n      mload\n        /* \"#utility.yul\":11367:11389   */\n      swap1\n      pop\n        /* \"#utility.yul\":11297:11396   */\n      swap2\n      swap1\n      pop\n      jump\t// out\n        /* \"#utility.yul\":11402:11571   */\n    tag_565:\n        /* \"#utility.yul\":11486:11497   */\n      0x00\n        /* \"#utility.yul\":11520:11526   */\n      dup3\n        /* \"#utility.yul\":11515:11518   */\n      dup3\n        /* \"#utility.yul\":11508:11527   */\n      mstore\n        /* \"#utility.yul\":11560:11564   */\n      0x20\n        /* \"#utility.yul\":11555:11558   */\n      dup3\n        /* \"#utility.yul\":11551:11565   */\n      add\n        /* \"#utility.yul\":11536:11565   */\n      swap1\n      pop\n        /* \"#utility.yul\":11402:11571   */\n      swap3\n      swap2\n      pop\n      pop\n      jump\t// out\n        /* \"#utility.yul\":11577:11716   */\n    tag_566:\n        /* \"#utility.yul\":11666:11672   */\n      dup3\n        /* \"#utility.yul\":11661:11664   */\n      dup2\n        /* \"#utility.yul\":11656:11659   */\n      dup4\n        /* \"#utility.yul\":11650:11673   */\n      mcopy\n        /* \"#utility.yul\":11707:11708   */\n      0x00\n        /* \"#utility.yul\":11698:11704   */\n      dup4\n        /* \"#utility.yul\":11693:11696   */\n      dup4\n        /* \"#utility.yul\":11689:11705   */\n      add\n        /* \"#utility.yul\":11682:11709   */\n      mstore\n        /* \"#utility.yul\":11577:11716   */\n      pop\n      pop\n      pop\n      jump\t// out\n        /* \"#utility.yul\":11722:12099   */\n    tag_567:\n        /* \"#utility.yul\":11810:11813   */\n      0x00\n        /* \"#utility.yul\":11838:11877   */\n      tag_739\n        /* \"#utility.yul\":11871:11876   */\n      dup3\n        /* \"#utility.yul\":11838:11877   */\n      tag_564\n      jump\t// in\n    tag_739:\n        /* \"#utility.yul\":11893:11964   */\n      tag_740\n        /* \"#utility.yul\":11957:11963   */\n      dup2\n        /* \"#utility.yul\":11952:11955   */\n      dup6\n        /* \"#utility.yul\":11893:11964   */\n      tag_565\n      jump\t// in\n    tag_740:\n        /* \"#utility.yul\":11886:11964   */\n      swap4\n      pop\n        /* \"#utility.yul\":11973:12038   */\n      tag_741\n        /* \"#utility.yul\":12031:12037   */\n      dup2\n        /* \"#utility.yul\":12026:12029   */\n      dup6\n        /* \"#utility.yul\":12019:12023   */\n      0x20\n        /* \"#utility.yul\":12012:12017   */\n      dup7\n        /* \"#utility.yul\":12008:12024   */\n      add\n        /* \"#utility.yul\":11973:12038   */\n      tag_566\n      jump\t// in\n    tag_741:\n        /* \"#utility.yul\":12063:12092   */\n      tag_742\n        /* \"#utility.yul\":12085:12091   */\n      dup2\n        /* \"#utility.yul\":12063:12092   */\n      tag_556\n      jump\t// in\n    tag_742:\n        /* \"#utility.yul\":12058:12061   */\n      dup5\n        /* \"#utility.yul\":12054:12093   */\n      add\n        /* \"#utility.yul\":12047:12093   */\n      swap2\n      pop\n        /* \"#utility.yul\":11814:12099   */\n      pop\n        /* \"#utility.yul\":11722:12099   */\n      swap3\n      swap2\n      pop\n      pop\n      jump\t// out\n        /* \"#utility.yul\":12105:12418   */\n    tag_189:\n        /* \"#utility.yul\":12218:12222   */\n      0x00\n        /* \"#utility.yul\":12256:12258   */\n      0x20\n        /* \"#utility.yul\":12245:12254   */\n      dup3\n        /* \"#utility.yul\":12241:12259   */\n      add\n        /* \"#utility.yul\":12233:12259   */\n      swap1\n      pop\n        /* \"#utility.yul\":12305:12314   */\n      dup2\n        /* \"#utility.yul\":12299:12303   */\n      dup2\n        /* \"#utility.yul\":12295:12315   */\n      sub\n        /* \"#utility.yul\":12291:12292   */\n      0x00\n        /* \"#utility.yul\":12280:12289   */\n      dup4\n        /* \"#utility.yul\":12276:12293   */\n      add\n        /* \"#utility.yul\":12269:12316   */\n      mstore\n        /* \"#utility.yul\":12333:12411   */\n      tag_744\n        /* \"#utility.yul\":12406:12410   */\n      dup2\n        /* \"#utility.yul\":12397:12403   */\n      dup5\n        /* \"#utility.yul\":12333:12411   */\n      tag_567\n      jump\t// in\n    tag_744:\n        /* \"#utility.yul\":12325:12411   */\n      swap1\n      pop\n        /* \"#utility.yul\":12105:12418   */\n      swap3\n      swap2\n      pop\n      pop\n      jump\t// out\n        /* \"#utility.yul\":12424:12484   */\n    tag_568:\n        /* \"#utility.yul\":12452:12455   */\n      0x00\n        /* \"#utility.yul\":12473:12478   */\n      dup2\n        /* \"#utility.yul\":12466:12478   */\n      swap1\n      pop\n        /* \"#utility.yul\":12424:12484   */\n      swap2\n      swap1\n      pop\n      jump\t// out\n        /* \"#utility.yul\":12490:12632   */\n    tag_569:\n        /* \"#utility.yul\":12540:12549   */\n      0x00\n        /* \"#utility.yul\":12573:12626   */\n      tag_747\n        /* \"#utility.yul\":12591:12625   */\n      tag_748\n        /* \"#utility.yul\":12600:12624   */\n      tag_749\n        /* \"#utility.yul\":12618:12623   */\n      dup5\n        /* \"#utility.yul\":12600:12624   */\n      tag_540\n      jump\t// in\n    tag_749:\n        /* \"#utility.yul\":12591:12625   */\n      tag_568\n      jump\t// in\n    tag_748:\n        /* \"#utility.yul\":12573:12626   */\n      tag_540\n      jump\t// in\n    tag_747:\n        /* \"#utility.yul\":12560:12626   */\n      swap1\n      pop\n        /* \"#utility.yul\":12490:12632   */\n      swap2\n      swap1\n      pop\n      jump\t// out\n        /* \"#utility.yul\":12638:12764   */\n    tag_570:\n        /* \"#utility.yul\":12688:12697   */\n      0x00\n        /* \"#utility.yul\":12721:12758   */\n      tag_751\n        /* \"#utility.yul\":12752:12757   */\n      dup3\n        /* \"#utility.yul\":12721:12758   */\n      tag_569\n      jump\t// in\n    tag_751:\n        /* \"#utility.yul\":12708:12758   */\n      swap1\n      pop\n        /* \"#utility.yul\":12638:12764   */\n      swap2\n      swap1\n      pop\n      jump\t// out\n        /* \"#utility.yul\":12770:12911   */\n    tag_571:\n        /* \"#utility.yul\":12835:12844   */\n      0x00\n        /* \"#utility.yul\":12868:12905   */\n      tag_753\n        /* \"#utility.yul\":12899:12904   */\n      dup3\n        /* \"#utility.yul\":12868:12905   */\n      tag_570\n      jump\t// in\n    tag_753:\n        /* \"#utility.yul\":12855:12905   */\n      swap1\n      pop\n        /* \"#utility.yul\":12770:12911   */\n      swap2\n      swap1\n      pop\n      jump\t// out\n        /* \"#utility.yul\":12917:13078   */\n    tag_572:\n        /* \"#utility.yul\":13019:13071   */\n      tag_755\n        /* \"#utility.yul\":13065:13070   */\n      dup2\n        /* \"#utility.yul\":13019:13071   */\n      tag_571\n      jump\t// in\n    tag_755:\n        /* \"#utility.yul\":13014:13017   */\n      dup3\n        /* \"#utility.yul\":13007:13072   */\n      mstore\n        /* \"#utility.yul\":12917:13078   */\n      pop\n      pop\n      jump\t// out\n        /* \"#utility.yul\":13084:13336   */\n    tag_222:\n        /* \"#utility.yul\":13192:13196   */\n      0x00\n        /* \"#utility.yul\":13230:13232   */\n      0x20\n        /* \"#utility.yul\":13219:13228   */\n      dup3\n        /* \"#utility.yul\":13215:13233   */\n      add\n        /* \"#utility.yul\":13207:13233   */\n      swap1\n      pop\n        /* \"#utility.yul\":13243:13329   */\n      tag_757\n        /* \"#utility.yul\":13326:13327   */\n      0x00\n        /* \"#utility.yul\":13315:13324   */\n      dup4\n        /* \"#utility.yul\":13311:13328   */\n      add\n        /* \"#utility.yul\":13302:13308   */\n      dup5\n        /* \"#utility.yul\":13243:13329   */\n      tag_572\n      jump\t// in\n    tag_757:\n        /* \"#utility.yul\":13084:13336   */\n      swap3\n      swap2\n      pop\n      pop\n      jump\t// out\n        /* \"#utility.yul\":13342:13490   */\n    tag_573:\n        /* \"#utility.yul\":13444:13455   */\n      0x00\n        /* \"#utility.yul\":13481:13484   */\n      dup2\n        /* \"#utility.yul\":13466:13484   */\n      swap1\n      pop\n        /* \"#utility.yul\":13342:13490   */\n      swap3\n      swap2\n      pop\n      pop\n      jump\t// out\n        /* \"#utility.yul\":13496:13654   */\n    tag_574:\n        /* \"#utility.yul\":13636:13646   */\n      0x494e564553544f52000000000000000000000000000000000000000000000000\n        /* \"#utility.yul\":13632:13633   */\n      0x00\n        /* \"#utility.yul\":13624:13630   */\n      dup3\n        /* \"#utility.yul\":13620:13634   */\n      add\n        /* \"#utility.yul\":13613:13647   */\n      mstore\n        /* \"#utility.yul\":13496:13654   */\n      pop\n      jump\t// out\n        /* \"#utility.yul\":13660:14060   */\n    tag_575:\n        /* \"#utility.yul\":13820:13823   */\n      0x00\n        /* \"#utility.yul\":13841:13925   */\n      tag_761\n        /* \"#utility.yul\":13923:13924   */\n      0x08\n        /* \"#utility.yul\":13918:13921   */\n      dup4\n        /* \"#utility.yul\":13841:13925   */\n      tag_573\n      jump\t// in\n    tag_761:\n        /* \"#utility.yul\":13834:13925   */\n      swap2\n      pop\n        /* \"#utility.yul\":13934:14027   */\n      tag_762\n        /* \"#utility.yul\":14023:14026   */\n      dup3\n        /* \"#utility.yul\":13934:14027   */\n      tag_574\n      jump\t// in\n    tag_762:\n        /* \"#utility.yul\":14052:14053   */\n      0x08\n        /* \"#utility.yul\":14047:14050   */\n      dup3\n        /* \"#utility.yul\":14043:14054   */\n      add\n        /* \"#utility.yul\":14036:14054   */\n      swap1\n      pop\n        /* \"#utility.yul\":13660:14060   */\n      swap2\n      swap1\n      pop\n      jump\t// out\n        /* \"#utility.yul\":14066:14447   */\n    tag_232:\n        /* \"#utility.yul\":14251:14254   */\n      0x00\n        /* \"#utility.yul\":14273:14421   */\n      tag_764\n        /* \"#utility.yul\":14417:14420   */\n      dup3\n        /* \"#utility.yul\":14273:14421   */\n      tag_575\n      jump\t// in\n    tag_764:\n        /* \"#utility.yul\":14266:14421   */\n      swap2\n      pop\n        /* \"#utility.yul\":14438:14441   */\n      dup2\n        /* \"#utility.yul\":14431:14441   */\n      swap1\n      pop\n        /* \"#utility.yul\":14066:14447   */\n      swap2\n      swap1\n      pop\n      jump\t// out\n        /* \"#utility.yul\":14477:14807   */\n    tag_576:\n        /* \"#utility.yul\":14593:14596   */\n      0x00\n        /* \"#utility.yul\":14614:14703   */\n      tag_766\n        /* \"#utility.yul\":14696:14702   */\n      dup4\n        /* \"#utility.yul\":14691:14694   */\n      dup6\n        /* \"#utility.yul\":14614:14703   */\n      tag_573\n      jump\t// in\n    tag_766:\n        /* \"#utility.yul\":14607:14703   */\n      swap4\n      pop\n        /* \"#utility.yul\":14713:14769   */\n      tag_767\n        /* \"#utility.yul\":14762:14768   */\n      dup4\n        /* \"#utility.yul\":14757:14760   */\n      dup6\n        /* \"#utility.yul\":14750:14755   */\n      dup5\n        /* \"#utility.yul\":14713:14769   */\n      tag_561\n      jump\t// in\n    tag_767:\n        /* \"#utility.yul\":14794:14800   */\n      dup3\n        /* \"#utility.yul\":14789:14792   */\n      dup5\n        /* \"#utility.yul\":14785:14801   */\n      add\n        /* \"#utility.yul\":14778:14801   */\n      swap1\n      pop\n        /* \"#utility.yul\":14477:14807   */\n      swap4\n      swap3\n      pop\n      pop\n      pop\n      jump\t// out\n        /* \"#utility.yul\":14813:15108   */\n    tag_234:\n        /* \"#utility.yul\":14955:14958   */\n      0x00\n        /* \"#utility.yul\":14977:15082   */\n      tag_769\n        /* \"#utility.yul\":15078:15081   */\n      dup3\n        /* \"#utility.yul\":15069:15075   */\n      dup5\n        /* \"#utility.yul\":15061:15067   */\n      dup7\n        /* \"#utility.yul\":14977:15082   */\n      tag_576\n      jump\t// in\n    tag_769:\n        /* \"#utility.yul\":14970:15082   */\n      swap2\n      pop\n        /* \"#utility.yul\":15099:15102   */\n      dup2\n        /* \"#utility.yul\":15092:15102   */\n      swap1\n      pop\n        /* \"#utility.yul\":14813:15108   */\n      swap4\n      swap3\n      pop\n      pop\n      pop\n      jump\t// out\n        /* \"#utility.yul\":15114:15273   */\n    tag_577:\n        /* \"#utility.yul\":15254:15265   */\n      0x434f4d4d554e4954590000000000000000000000000000000000000000000000\n        /* \"#utility.yul\":15250:15251   */\n      0x00\n        /* \"#utility.yul\":15242:15248   */\n      dup3\n        /* \"#utility.yul\":15238:15252   */\n      add\n        /* \"#utility.yul\":15231:15266   */\n      mstore\n        /* \"#utility.yul\":15114:15273   */\n      pop\n      jump\t// out\n        /* \"#utility.yul\":15279:15679   */\n    tag_578:\n        /* \"#utility.yul\":15439:15442   */\n      0x00\n        /* \"#utility.yul\":15460:15544   */\n      tag_772\n        /* \"#utility.yul\":15542:15543   */\n      0x09\n        /* \"#utility.yul\":15537:15540   */\n      dup4\n        /* \"#utility.yul\":15460:15544   */\n      tag_573\n      jump\t// in\n    tag_772:\n        /* \"#utility.yul\":15453:15544   */\n      swap2\n      pop\n        /* \"#utility.yul\":15553:15646   */\n      tag_773\n        /* \"#utility.yul\":15642:15645   */\n      dup3\n        /* \"#utility.yul\":15553:15646   */\n      tag_577\n      jump\t// in\n    tag_773:\n        /* \"#utility.yul\":15671:15672   */\n      0x09\n        /* \"#utility.yul\":15666:15669   */\n      dup3\n        /* \"#utility.yul\":15662:15673   */\n      add\n        /* \"#utility.yul\":15655:15673   */\n      swap1\n      pop\n        /* \"#utility.yul\":15279:15679   */\n      swap2\n      swap1\n      pop\n      jump\t// out\n        /* \"#utility.yul\":15685:16066   */\n    tag_238:\n        /* \"#utility.yul\":15870:15873   */\n      0x00\n        /* \"#utility.yul\":15892:16040   */\n      tag_775\n        /* \"#utility.yul\":16036:16039   */\n      dup3\n        /* \"#utility.yul\":15892:16040   */\n      tag_578\n      jump\t// in\n    tag_775:\n        /* \"#utility.yul\":15885:16040   */\n      swap2\n      pop\n        /* \"#utility.yul\":16057:16060   */\n      dup2\n        /* \"#utility.yul\":16050:16060   */\n      swap1\n      pop\n        /* \"#utility.yul\":15685:16066   */\n      swap2\n      swap1\n      pop\n      jump\t// out\n        /* \"#utility.yul\":16072:16228   */\n    tag_579:\n        /* \"#utility.yul\":16212:16220   */\n      0x5055424c49430000000000000000000000000000000000000000000000000000\n        /* \"#utility.yul\":16208:16209   */\n      0x00\n        /* \"#utility.yul\":16200:16206   */\n      dup3\n        /* \"#utility.yul\":16196:16210   */\n      add\n        /* \"#utility.yul\":16189:16221   */\n      mstore\n        /* \"#utility.yul\":16072:16228   */\n      pop\n      jump\t// out\n        /* \"#utility.yul\":16234:16634   */\n    tag_580:\n        /* \"#utility.yul\":16394:16397   */\n      0x00\n        /* \"#utility.yul\":16415:16499   */\n      tag_778\n        /* \"#utility.yul\":16497:16498   */\n      0x06\n        /* \"#utility.yul\":16492:16495   */\n      dup4\n        /* \"#utility.yul\":16415:16499   */\n      tag_573\n      jump\t// in\n    tag_778:\n        /* \"#utility.yul\":16408:16499   */\n      swap2\n      pop\n        /* \"#utility.yul\":16508:16601   */\n      tag_779\n        /* \"#utility.yul\":16597:16600   */\n      dup3\n        /* \"#utility.yul\":16508:16601   */\n      tag_579\n      jump\t// in\n    tag_779:\n        /* \"#utility.yul\":16626:16627   */\n      0x06\n        /* \"#utility.yul\":16621:16624   */\n      dup3\n        /* \"#utility.yul\":16617:16628   */\n      add\n        /* \"#utility.yul\":16610:16628   */\n      swap1\n      pop\n        /* \"#utility.yul\":16234:16634   */\n      swap2\n      swap1\n      pop\n      jump\t// out\n        /* \"#utility.yul\":16640:17021   */\n    tag_243:\n        /* \"#utility.yul\":16825:16828   */\n      0x00\n        /* \"#utility.yul\":16847:16995   */\n      tag_781\n        /* \"#utility.yul\":16991:16994   */\n      dup3\n        /* \"#utility.yul\":16847:16995   */\n      tag_580\n      jump\t// in\n    tag_781:\n        /* \"#utility.yul\":16840:16995   */\n      swap2\n      pop\n        /* \"#utility.yul\":17012:17015   */\n      dup2\n        /* \"#utility.yul\":17005:17015   */\n      swap1\n      pop\n        /* \"#utility.yul\":16640:17021   */\n      swap2\n      swap1\n      pop\n      jump\t// out\n        /* \"#utility.yul\":17027:17189   */\n    tag_581:\n        /* \"#utility.yul\":17167:17181   */\n      0x496e76616c696420726f6c650000000000000000000000000000000000000000\n        /* \"#utility.yul\":17163:17164   */\n      0x00\n        /* \"#utility.yul\":17155:17161   */\n      dup3\n        /* \"#utility.yul\":17151:17165   */\n      add\n        /* \"#utility.yul\":17144:17182   */\n      mstore\n        /* \"#utility.yul\":17027:17189   */\n      pop\n      jump\t// out\n        /* \"#utility.yul\":17195:17561   */\n    tag_582:\n        /* \"#utility.yul\":17337:17340   */\n      0x00\n        /* \"#utility.yul\":17358:17425   */\n      tag_784\n        /* \"#utility.yul\":17422:17424   */\n      0x0c\n        /* \"#utility.yul\":17417:17420   */\n      dup4\n        /* \"#utility.yul\":17358:17425   */\n      tag_565\n      jump\t// in\n    tag_784:\n        /* \"#utility.yul\":17351:17425   */\n      swap2\n      pop\n        /* \"#utility.yul\":17434:17527   */\n      tag_785\n        /* \"#utility.yul\":17523:17526   */\n      dup3\n        /* \"#utility.yul\":17434:17527   */\n      tag_581\n      jump\t// in\n    tag_785:\n        /* \"#utility.yul\":17552:17554   */\n      0x20\n        /* \"#utility.yul\":17547:17550   */\n      dup3\n        /* \"#utility.yul\":17543:17555   */\n      add\n        /* \"#utility.yul\":17536:17555   */\n      swap1\n      pop\n        /* \"#utility.yul\":17195:17561   */\n      swap2\n      swap1\n      pop\n      jump\t// out\n        /* \"#utility.yul\":17567:17986   */\n    tag_248:\n        /* \"#utility.yul\":17733:17737   */\n      0x00\n        /* \"#utility.yul\":17771:17773   */\n      0x20\n        /* \"#utility.yul\":17760:17769   */\n      dup3\n        /* \"#utility.yul\":17756:17774   */\n      add\n        /* \"#utility.yul\":17748:17774   */\n      swap1\n      pop\n        /* \"#utility.yul\":17820:17829   */\n      dup2\n        /* \"#utility.yul\":17814:17818   */\n      dup2\n        /* \"#utility.yul\":17810:17830   */\n      sub\n        /* \"#utility.yul\":17806:17807   */\n      0x00\n        /* \"#utility.yul\":17795:17804   */\n      dup4\n        /* \"#utility.yul\":17791:17808   */\n      add\n        /* \"#utility.yul\":17784:17831   */\n      mstore\n        /* \"#utility.yul\":17848:17979   */\n      tag_787\n        /* \"#utility.yul\":17974:17978   */\n      dup2\n        /* \"#utility.yul\":17848:17979   */\n      tag_582\n      jump\t// in\n    tag_787:\n        /* \"#utility.yul\":17840:17979   */\n      swap1\n      pop\n        /* \"#utility.yul\":17567:17986   */\n      swap2\n      swap1\n      pop\n      jump\t// out\n        /* \"#utility.yul\":18016:18333   */\n    tag_583:\n        /* \"#utility.yul\":18114:18117   */\n      0x00\n        /* \"#utility.yul\":18135:18206   */\n      tag_789\n        /* \"#utility.yul\":18199:18205   */\n      dup4\n        /* \"#utility.yul\":18194:18197   */\n      dup6\n        /* \"#utility.yul\":18135:18206   */\n      tag_565\n      jump\t// in\n    tag_789:\n        /* \"#utility.yul\":18128:18206   */\n      swap4\n      pop\n        /* \"#utility.yul\":18216:18272   */\n      tag_790\n        /* \"#utility.yul\":18265:18271   */\n      dup4\n        /* \"#utility.yul\":18260:18263   */\n      dup6\n        /* \"#utility.yul\":18253:18258   */\n      dup5\n        /* \"#utility.yul\":18216:18272   */\n      tag_561\n      jump\t// in\n    tag_790:\n        /* \"#utility.yul\":18297:18326   */\n      tag_791\n        /* \"#utility.yul\":18319:18325   */\n      dup4\n        /* \"#utility.yul\":18297:18326   */\n      tag_556\n      jump\t// in\n    tag_791:\n        /* \"#utility.yul\":18292:18295   */\n      dup5\n        /* \"#utility.yul\":18288:18327   */\n      add\n        /* \"#utility.yul\":18281:18327   */\n      swap1\n      pop\n        /* \"#utility.yul\":18016:18333   */\n      swap4\n      swap3\n      pop\n      pop\n      pop\n      jump\t// out\n        /* \"#utility.yul\":18339:18782   */\n    tag_250:\n        /* \"#utility.yul\":18490:18494   */\n      0x00\n        /* \"#utility.yul\":18528:18530   */\n      0x40\n        /* \"#utility.yul\":18517:18526   */\n      dup3\n        /* \"#utility.yul\":18513:18531   */\n      add\n        /* \"#utility.yul\":18505:18531   */\n      swap1\n      pop\n        /* \"#utility.yul\":18541:18612   */\n      tag_793\n        /* \"#utility.yul\":18609:18610   */\n      0x00\n        /* \"#utility.yul\":18598:18607   */\n      dup4\n        /* \"#utility.yul\":18594:18611   */\n      add\n        /* \"#utility.yul\":18585:18591   */\n      dup7\n        /* \"#utility.yul\":18541:18612   */\n      tag_551\n      jump\t// in\n    tag_793:\n        /* \"#utility.yul\":18659:18668   */\n      dup2\n        /* \"#utility.yul\":18653:18657   */\n      dup2\n        /* \"#utility.yul\":18649:18669   */\n      sub\n        /* \"#utility.yul\":18644:18646   */\n      0x20\n        /* \"#utility.yul\":18633:18642   */\n      dup4\n        /* \"#utility.yul\":18629:18647   */\n      add\n        /* \"#utility.yul\":18622:18670   */\n      mstore\n        /* \"#utility.yul\":18687:18775   */\n      tag_794\n        /* \"#utility.yul\":18770:18774   */\n      dup2\n        /* \"#utility.yul\":18761:18767   */\n      dup5\n        /* \"#utility.yul\":18753:18759   */\n      dup7\n        /* \"#utility.yul\":18687:18775   */\n      tag_583\n      jump\t// in\n    tag_794:\n        /* \"#utility.yul\":18679:18775   */\n      swap1\n      pop\n        /* \"#utility.yul\":18339:18782   */\n      swap5\n      swap4\n      pop\n      pop\n      pop\n      pop\n      jump\t// out\n        /* \"#utility.yul\":18788:18961   */\n    tag_584:\n        /* \"#utility.yul\":18928:18953   */\n      0x41646472657373206e6f742077686974656c6973746564000000000000000000\n        /* \"#utility.yul\":18924:18925   */\n      0x00\n        /* \"#utility.yul\":18916:18922   */\n      dup3\n        /* \"#utility.yul\":18912:18926   */\n      add\n        /* \"#utility.yul\":18905:18954   */\n      mstore\n        /* \"#utility.yul\":18788:18961   */\n      pop\n      jump\t// out\n        /* \"#utility.yul\":18967:19333   */\n    tag_585:\n        /* \"#utility.yul\":19109:19112   */\n      0x00\n        /* \"#utility.yul\":19130:19197   */\n      tag_797\n        /* \"#utility.yul\":19194:19196   */\n      0x17\n        /* \"#utility.yul\":19189:19192   */\n      dup4\n        /* \"#utility.yul\":19130:19197   */\n      tag_565\n      jump\t// in\n    tag_797:\n        /* \"#utility.yul\":19123:19197   */\n      swap2\n      pop\n        /* \"#utility.yul\":19206:19299   */\n      tag_798\n        /* \"#utility.yul\":19295:19298   */\n      dup3\n        /* \"#utility.yul\":19206:19299   */\n      tag_584\n      jump\t// in\n    tag_798:\n        /* \"#utility.yul\":19324:19326   */\n      0x20\n        /* \"#utility.yul\":19319:19322   */\n      dup3\n        /* \"#utility.yul\":19315:19327   */\n      add\n        /* \"#utility.yul\":19308:19327   */\n      swap1\n      pop\n        /* \"#utility.yul\":18967:19333   */\n      swap2\n      swap1\n      pop\n      jump\t// out\n        /* \"#utility.yul\":19339:19758   */\n    tag_275:\n        /* \"#utility.yul\":19505:19509   */\n      0x00\n        /* \"#utility.yul\":19543:19545   */\n      0x20\n        /* \"#utility.yul\":19532:19541   */\n      dup3\n        /* \"#utility.yul\":19528:19546   */\n      add\n        /* \"#utility.yul\":19520:19546   */\n      swap1\n      pop\n        /* \"#utility.yul\":19592:19601   */\n      dup2\n        /* \"#utility.yul\":19586:19590   */\n      dup2\n        /* \"#utility.yul\":19582:19602   */\n      sub\n        /* \"#utility.yul\":19578:19579   */\n      0x00\n        /* \"#utility.yul\":19567:19576   */\n      dup4\n        /* \"#utility.yul\":19563:19580   */\n      add\n        /* \"#utility.yul\":19556:19603   */\n      mstore\n        /* \"#utility.yul\":19620:19751   */\n      tag_800\n        /* \"#utility.yul\":19746:19750   */\n      dup2\n        /* \"#utility.yul\":19620:19751   */\n      tag_585\n      jump\t// in\n    tag_800:\n        /* \"#utility.yul\":19612:19751   */\n      swap1\n      pop\n        /* \"#utility.yul\":19339:19758   */\n      swap2\n      swap1\n      pop\n      jump\t// out\n        /* \"#utility.yul\":19764:19944   */\n    tag_586:\n        /* \"#utility.yul\":19812:19889   */\n      0x4e487b7100000000000000000000000000000000000000000000000000000000\n        /* \"#utility.yul\":19809:19810   */\n      0x00\n        /* \"#utility.yul\":19802:19890   */\n      mstore\n        /* \"#utility.yul\":19909:19913   */\n      0x11\n        /* \"#utility.yul\":19906:19907   */\n      0x04\n        /* \"#utility.yul\":19899:19914   */\n      mstore\n        /* \"#utility.yul\":19933:19937   */\n      0x24\n        /* \"#utility.yul\":19930:19931   */\n      0x00\n        /* \"#utility.yul\":19923:19938   */\n      revert\n        /* \"#utility.yul\":19950:20360   */\n    tag_279:\n        /* \"#utility.yul\":19990:19997   */\n      0x00\n        /* \"#utility.yul\":20013:20033   */\n      tag_803\n        /* \"#utility.yul\":20031:20032   */\n      dup3\n        /* \"#utility.yul\":20013:20033   */\n      tag_544\n      jump\t// in\n    tag_803:\n        /* \"#utility.yul\":20008:20033   */\n      swap2\n      pop\n        /* \"#utility.yul\":20047:20067   */\n      tag_804\n        /* \"#utility.yul\":20065:20066   */\n      dup4\n        /* \"#utility.yul\":20047:20067   */\n      tag_544\n      jump\t// in\n    tag_804:\n        /* \"#utility.yul\":20042:20067   */\n      swap3\n      pop\n        /* \"#utility.yul\":20102:20103   */\n      dup3\n        /* \"#utility.yul\":20099:20100   */\n      dup3\n        /* \"#utility.yul\":20095:20104   */\n      mul\n        /* \"#utility.yul\":20124:20154   */\n      tag_805\n        /* \"#utility.yul\":20142:20153   */\n      dup2\n        /* \"#utility.yul\":20124:20154   */\n      tag_544\n      jump\t// in\n    tag_805:\n        /* \"#utility.yul\":20113:20154   */\n      swap2\n      pop\n        /* \"#utility.yul\":20303:20304   */\n      dup3\n        /* \"#utility.yul\":20294:20301   */\n      dup3\n        /* \"#utility.yul\":20290:20305   */\n      div\n        /* \"#utility.yul\":20287:20288   */\n      dup5\n        /* \"#utility.yul\":20284:20306   */\n      eq\n        /* \"#utility.yul\":20264:20265   */\n      dup4\n        /* \"#utility.yul\":20257:20266   */\n      iszero\n        /* \"#utility.yul\":20237:20320   */\n      or\n        /* \"#utility.yul\":20214:20353   */\n      tag_806\n      jumpi\n        /* \"#utility.yul\":20333:20351   */\n      tag_807\n      tag_586\n      jump\t// in\n    tag_807:\n        /* \"#utility.yul\":20214:20353   */\n    tag_806:\n        /* \"#utility.yul\":19998:20360   */\n      pop\n        /* \"#utility.yul\":19950:20360   */\n      swap3\n      swap2\n      pop\n      pop\n      jump\t// out\n        /* \"#utility.yul\":20366:20536   */\n    tag_587:\n        /* \"#utility.yul\":20506:20528   */\n      0x496e636f72726563742076616c75652073656e74000000000000000000000000\n        /* \"#utility.yul\":20502:20503   */\n      0x00\n        /* \"#utility.yul\":20494:20500   */\n      dup3\n        /* \"#utility.yul\":20490:20504   */\n      add\n        /* \"#utility.yul\":20483:20529   */\n      mstore\n        /* \"#utility.yul\":20366:20536   */\n      pop\n      jump\t// out\n        /* \"#utility.yul\":20542:20908   */\n    tag_588:\n        /* \"#utility.yul\":20684:20687   */\n      0x00\n        /* \"#utility.yul\":20705:20772   */\n      tag_810\n        /* \"#utility.yul\":20769:20771   */\n      0x14\n        /* \"#utility.yul\":20764:20767   */\n      dup4\n        /* \"#utility.yul\":20705:20772   */\n      tag_565\n      jump\t// in\n    tag_810:\n        /* \"#utility.yul\":20698:20772   */\n      swap2\n      pop\n        /* \"#utility.yul\":20781:20874   */\n      tag_811\n        /* \"#utility.yul\":20870:20873   */\n      dup3\n        /* \"#utility.yul\":20781:20874   */\n      tag_587\n      jump\t// in\n    tag_811:\n        /* \"#utility.yul\":20899:20901   */\n      0x20\n        /* \"#utility.yul\":20894:20897   */\n      dup3\n        /* \"#utility.yul\":20890:20902   */\n      add\n        /* \"#utility.yul\":20883:20902   */\n      swap1\n      pop\n        /* \"#utility.yul\":20542:20908   */\n      swap2\n      swap1\n      pop\n      jump\t// out\n        /* \"#utility.yul\":20914:21333   */\n    tag_288:\n        /* \"#utility.yul\":21080:21084   */\n      0x00\n        /* \"#utility.yul\":21118:21120   */\n      0x20\n        /* \"#utility.yul\":21107:21116   */\n      dup3\n        /* \"#utility.yul\":21103:21121   */\n      add\n        /* \"#utility.yul\":21095:21121   */\n      swap1\n      pop\n        /* \"#utility.yul\":21167:21176   */\n      dup2\n        /* \"#utility.yul\":21161:21165   */\n      dup2\n        /* \"#utility.yul\":21157:21177   */\n      sub\n        /* \"#utility.yul\":21153:21154   */\n      0x00\n        /* \"#utility.yul\":21142:21151   */\n      dup4\n        /* \"#utility.yul\":21138:21155   */\n      add\n        /* \"#utility.yul\":21131:21178   */\n      mstore\n        /* \"#utility.yul\":21195:21326   */\n      tag_813\n        /* \"#utility.yul\":21321:21325   */\n      dup2\n        /* \"#utility.yul\":21195:21326   */\n      tag_588\n      jump\t// in\n    tag_813:\n        /* \"#utility.yul\":21187:21326   */\n      swap1\n      pop\n        /* \"#utility.yul\":20914:21333   */\n      swap2\n      swap1\n      pop\n      jump\t// out\n        /* \"#utility.yul\":21339:21530   */\n    tag_290:\n        /* \"#utility.yul\":21379:21382   */\n      0x00\n        /* \"#utility.yul\":21398:21418   */\n      tag_815\n        /* \"#utility.yul\":21416:21417   */\n      dup3\n        /* \"#utility.yul\":21398:21418   */\n      tag_544\n      jump\t// in\n    tag_815:\n        /* \"#utility.yul\":21393:21418   */\n      swap2\n      pop\n        /* \"#utility.yul\":21432:21452   */\n      tag_816\n        /* \"#utility.yul\":21450:21451   */\n      dup4\n        /* \"#utility.yul\":21432:21452   */\n      tag_544\n      jump\t// in\n    tag_816:\n        /* \"#utility.yul\":21427:21452   */\n      swap3\n      pop\n        /* \"#utility.yul\":21475:21476   */\n      dup3\n        /* \"#utility.yul\":21472:21473   */\n      dup3\n        /* \"#utility.yul\":21468:21477   */\n      add\n        /* \"#utility.yul\":21461:21477   */\n      swap1\n      pop\n        /* \"#utility.yul\":21496:21499   */\n      dup1\n        /* \"#utility.yul\":21493:21494   */\n      dup3\n        /* \"#utility.yul\":21490:21500   */\n      gt\n        /* \"#utility.yul\":21487:21523   */\n      iszero\n      tag_817\n      jumpi\n        /* \"#utility.yul\":21503:21521   */\n      tag_818\n      tag_586\n      jump\t// in\n    tag_818:\n        /* \"#utility.yul\":21487:21523   */\n    tag_817:\n        /* \"#utility.yul\":21339:21530   */\n      swap3\n      swap2\n      pop\n      pop\n      jump\t// out\n        /* \"#utility.yul\":21536:21706   */\n    tag_589:\n        /* \"#utility.yul\":21676:21698   */\n      0x5075726368617365206578636565647320636170000000000000000000000000\n        /* \"#utility.yul\":21672:21673   */\n      0x00\n        /* \"#utility.yul\":21664:21670   */\n      dup3\n        /* \"#utility.yul\":21660:21674   */\n      add\n        /* \"#utility.yul\":21653:21699   */\n      mstore\n        /* \"#utility.yul\":21536:21706   */\n      pop\n      jump\t// out\n        /* \"#utility.yul\":21712:22078   */\n    tag_590:\n        /* \"#utility.yul\":21854:21857   */\n      0x00\n        /* \"#utility.yul\":21875:21942   */\n      tag_821\n        /* \"#utility.yul\":21939:21941   */\n      0x14\n        /* \"#utility.yul\":21934:21937   */\n      dup4\n        /* \"#utility.yul\":21875:21942   */\n      tag_565\n      jump\t// in\n    tag_821:\n        /* \"#utility.yul\":21868:21942   */\n      swap2\n      pop\n        /* \"#utility.yul\":21951:22044   */\n      tag_822\n        /* \"#utility.yul\":22040:22043   */\n      dup3\n        /* \"#utility.yul\":21951:22044   */\n      tag_589\n      jump\t// in\n    tag_822:\n        /* \"#utility.yul\":22069:22071   */\n      0x20\n        /* \"#utility.yul\":22064:22067   */\n      dup3\n        /* \"#utility.yul\":22060:22072   */\n      add\n        /* \"#utility.yul\":22053:22072   */\n      swap1\n      pop\n        /* \"#utility.yul\":21712:22078   */\n      swap2\n      swap1\n      pop\n      jump\t// out\n        /* \"#utility.yul\":22084:22503   */\n    tag_293:\n        /* \"#utility.yul\":22250:22254   */\n      0x00\n        /* \"#utility.yul\":22288:22290   */\n      0x20\n        /* \"#utility.yul\":22277:22286   */\n      dup3\n        /* \"#utility.yul\":22273:22291   */\n      add\n        /* \"#utility.yul\":22265:22291   */\n      swap1\n      pop\n        /* \"#utility.yul\":22337:22346   */\n      dup2\n        /* \"#utility.yul\":22331:22335   */\n      dup2\n        /* \"#utility.yul\":22327:22347   */\n      sub\n        /* \"#utility.yul\":22323:22324   */\n      0x00\n        /* \"#utility.yul\":22312:22321   */\n      dup4\n        /* \"#utility.yul\":22308:22325   */\n      add\n        /* \"#utility.yul\":22301:22348   */\n      mstore\n        /* \"#utility.yul\":22365:22496   */\n      tag_824\n        /* \"#utility.yul\":22491:22495   */\n      dup2\n        /* \"#utility.yul\":22365:22496   */\n      tag_590\n      jump\t// in\n    tag_824:\n        /* \"#utility.yul\":22357:22496   */\n      swap1\n      pop\n        /* \"#utility.yul\":22084:22503   */\n      swap2\n      swap1\n      pop\n      jump\t// out\n        /* \"#utility.yul\":22509:22841   */\n    tag_308:\n        /* \"#utility.yul\":22630:22634   */\n      0x00\n        /* \"#utility.yul\":22668:22670   */\n      0x40\n        /* \"#utility.yul\":22657:22666   */\n      dup3\n        /* \"#utility.yul\":22653:22671   */\n      add\n        /* \"#utility.yul\":22645:22671   */\n      swap1\n      pop\n        /* \"#utility.yul\":22681:22752   */\n      tag_826\n        /* \"#utility.yul\":22749:22750   */\n      0x00\n        /* \"#utility.yul\":22738:22747   */\n      dup4\n        /* \"#utility.yul\":22734:22751   */\n      add\n        /* \"#utility.yul\":22725:22731   */\n      dup6\n        /* \"#utility.yul\":22681:22752   */\n      tag_552\n      jump\t// in\n    tag_826:\n        /* \"#utility.yul\":22762:22834   */\n      tag_827\n        /* \"#utility.yul\":22830:22832   */\n      0x20\n        /* \"#utility.yul\":22819:22828   */\n      dup4\n        /* \"#utility.yul\":22815:22833   */\n      add\n        /* \"#utility.yul\":22806:22812   */\n      dup5\n        /* \"#utility.yul\":22762:22834   */\n      tag_551\n      jump\t// in\n    tag_827:\n        /* \"#utility.yul\":22509:22841   */\n      swap4\n      swap3\n      pop\n      pop\n      pop\n      jump\t// out\n        /* \"#utility.yul\":22847:22932   */\n    tag_591:\n        /* \"#utility.yul\":22892:22899   */\n      0x00\n        /* \"#utility.yul\":22921:22926   */\n      dup2\n        /* \"#utility.yul\":22910:22926   */\n      swap1\n      pop\n        /* \"#utility.yul\":22847:22932   */\n      swap2\n      swap1\n      pop\n      jump\t// out\n        /* \"#utility.yul\":22938:23039   */\n    tag_592:\n        /* \"#utility.yul\":22974:22981   */\n      0x00\n        /* \"#utility.yul\":23014:23032   */\n      0xffffffffffffffff\n        /* \"#utility.yul\":23007:23012   */\n      dup3\n        /* \"#utility.yul\":23003:23033   */\n      and\n        /* \"#utility.yul\":22992:23033   */\n      swap1\n      pop\n        /* \"#utility.yul\":22938:23039   */\n      swap2\n      swap1\n      pop\n      jump\t// out\n        /* \"#utility.yul\":23045:23201   */\n    tag_593:\n        /* \"#utility.yul\":23102:23111   */\n      0x00\n        /* \"#utility.yul\":23135:23195   */\n      tag_831\n        /* \"#utility.yul\":23152:23194   */\n      tag_832\n        /* \"#utility.yul\":23161:23193   */\n      tag_833\n        /* \"#utility.yul\":23187:23192   */\n      dup5\n        /* \"#utility.yul\":23161:23193   */\n      tag_591\n      jump\t// in\n    tag_833:\n        /* \"#utility.yul\":23152:23194   */\n      tag_568\n      jump\t// in\n    tag_832:\n        /* \"#utility.yul\":23135:23195   */\n      tag_592\n      jump\t// in\n    tag_831:\n        /* \"#utility.yul\":23122:23195   */\n      swap1\n      pop\n        /* \"#utility.yul\":23045:23201   */\n      swap2\n      swap1\n      pop\n      jump\t// out\n        /* \"#utility.yul\":23207:23352   */\n    tag_594:\n        /* \"#utility.yul\":23301:23345   */\n      tag_835\n        /* \"#utility.yul\":23339:23344   */\n      dup2\n        /* \"#utility.yul\":23301:23345   */\n      tag_593\n      jump\t// in\n    tag_835:\n        /* \"#utility.yul\":23296:23299   */\n      dup3\n        /* \"#utility.yul\":23289:23346   */\n      mstore\n        /* \"#utility.yul\":23207:23352   */\n      pop\n      pop\n      jump\t// out\n        /* \"#utility.yul\":23358:23594   */\n    tag_338:\n        /* \"#utility.yul\":23458:23462   */\n      0x00\n        /* \"#utility.yul\":23496:23498   */\n      0x20\n        /* \"#utility.yul\":23485:23494   */\n      dup3\n        /* \"#utility.yul\":23481:23499   */\n      add\n        /* \"#utility.yul\":23473:23499   */\n      swap1\n      pop\n        /* \"#utility.yul\":23509:23587   */\n      tag_837\n        /* \"#utility.yul\":23584:23585   */\n      0x00\n        /* \"#utility.yul\":23573:23582   */\n      dup4\n        /* \"#utility.yul\":23569:23586   */\n      add\n        /* \"#utility.yul\":23560:23566   */\n      dup5\n        /* \"#utility.yul\":23509:23587   */\n      tag_594\n      jump\t// in\n    tag_837:\n        /* \"#utility.yul\":23358:23594   */\n      swap3\n      swap2\n      pop\n      pop\n      jump\t// out\n        /* \"#utility.yul\":23600:23822   */\n    tag_595:\n        /* \"#utility.yul\":23740:23774   */\n      0x43757272656e742074696d65206973206265666f72652072656c656173652074\n        /* \"#utility.yul\":23736:23737   */\n      0x00\n        /* \"#utility.yul\":23728:23734   */\n      dup3\n        /* \"#utility.yul\":23724:23738   */\n      add\n        /* \"#utility.yul\":23717:23775   */\n      mstore\n        /* \"#utility.yul\":23809:23814   */\n      0x696d650000000000000000000000000000000000000000000000000000000000\n        /* \"#utility.yul\":23804:23806   */\n      0x20\n        /* \"#utility.yul\":23796:23802   */\n      dup3\n        /* \"#utility.yul\":23792:23807   */\n      add\n        /* \"#utility.yul\":23785:23815   */\n      mstore\n        /* \"#utility.yul\":23600:23822   */\n      pop\n      jump\t// out\n        /* \"#utility.yul\":23828:24194   */\n    tag_596:\n        /* \"#utility.yul\":23970:23973   */\n      0x00\n        /* \"#utility.yul\":23991:24058   */\n      tag_840\n        /* \"#utility.yul\":24055:24057   */\n      0x23\n        /* \"#utility.yul\":24050:24053   */\n      dup4\n        /* \"#utility.yul\":23991:24058   */\n      tag_565\n      jump\t// in\n    tag_840:\n        /* \"#utility.yul\":23984:24058   */\n      swap2\n      pop\n        /* \"#utility.yul\":24067:24160   */\n      tag_841\n        /* \"#utility.yul\":24156:24159   */\n      dup3\n        /* \"#utility.yul\":24067:24160   */\n      tag_595\n      jump\t// in\n    tag_841:\n        /* \"#utility.yul\":24185:24187   */\n      0x40\n        /* \"#utility.yul\":24180:24183   */\n      dup3\n        /* \"#utility.yul\":24176:24188   */\n      add\n        /* \"#utility.yul\":24169:24188   */\n      swap1\n      pop\n        /* \"#utility.yul\":23828:24194   */\n      swap2\n      swap1\n      pop\n      jump\t// out\n        /* \"#utility.yul\":24200:24619   */\n    tag_372:\n        /* \"#utility.yul\":24366:24370   */\n      0x00\n        /* \"#utility.yul\":24404:24406   */\n      0x20\n        /* \"#utility.yul\":24393:24402   */\n      dup3\n        /* \"#utility.yul\":24389:24407   */\n      add\n        /* \"#utility.yul\":24381:24407   */\n      swap1\n      pop\n        /* \"#utility.yul\":24453:24462   */\n      dup2\n        /* \"#utility.yul\":24447:24451   */\n      dup2\n        /* \"#utility.yul\":24443:24463   */\n      sub\n        /* \"#utility.yul\":24439:24440   */\n      0x00\n        /* \"#utility.yul\":24428:24437   */\n      dup4\n        /* \"#utility.yul\":24424:24441   */\n      add\n        /* \"#utility.yul\":24417:24464   */\n      mstore\n        /* \"#utility.yul\":24481:24612   */\n      tag_843\n        /* \"#utility.yul\":24607:24611   */\n      dup2\n        /* \"#utility.yul\":24481:24612   */\n      tag_596\n      jump\t// in\n    tag_843:\n        /* \"#utility.yul\":24473:24612   */\n      swap1\n      pop\n        /* \"#utility.yul\":24200:24619   */\n      swap2\n      swap1\n      pop\n      jump\t// out\n        /* \"#utility.yul\":24625:24792   */\n    tag_597:\n        /* \"#utility.yul\":24765:24784   */\n      0x4e6f20746f6b656e732061726520647565000000000000000000000000000000\n        /* \"#utility.yul\":24761:24762   */\n      0x00\n        /* \"#utility.yul\":24753:24759   */\n      dup3\n        /* \"#utility.yul\":24749:24763   */\n      add\n        /* \"#utility.yul\":24742:24785   */\n      mstore\n        /* \"#utility.yul\":24625:24792   */\n      pop\n      jump\t// out\n        /* \"#utility.yul\":24798:25164   */\n    tag_598:\n        /* \"#utility.yul\":24940:24943   */\n      0x00\n        /* \"#utility.yul\":24961:25028   */\n      tag_846\n        /* \"#utility.yul\":25025:25027   */\n      0x11\n        /* \"#utility.yul\":25020:25023   */\n      dup4\n        /* \"#utility.yul\":24961:25028   */\n      tag_565\n      jump\t// in\n    tag_846:\n        /* \"#utility.yul\":24954:25028   */\n      swap2\n      pop\n        /* \"#utility.yul\":25037:25130   */\n      tag_847\n        /* \"#utility.yul\":25126:25129   */\n      dup3\n        /* \"#utility.yul\":25037:25130   */\n      tag_597\n      jump\t// in\n    tag_847:\n        /* \"#utility.yul\":25155:25157   */\n      0x20\n        /* \"#utility.yul\":25150:25153   */\n      dup3\n        /* \"#utility.yul\":25146:25158   */\n      add\n        /* \"#utility.yul\":25139:25158   */\n      swap1\n      pop\n        /* \"#utility.yul\":24798:25164   */\n      swap2\n      swap1\n      pop\n      jump\t// out\n        /* \"#utility.yul\":25170:25589   */\n    tag_375:\n        /* \"#utility.yul\":25336:25340   */\n      0x00\n        /* \"#utility.yul\":25374:25376   */\n      0x20\n        /* \"#utility.yul\":25363:25372   */\n      dup3\n        /* \"#utility.yul\":25359:25377   */\n      add\n        /* \"#utility.yul\":25351:25377   */\n      swap1\n      pop\n        /* \"#utility.yul\":25423:25432   */\n      dup2\n        /* \"#utility.yul\":25417:25421   */\n      dup2\n        /* \"#utility.yul\":25413:25433   */\n      sub\n        /* \"#utility.yul\":25409:25410   */\n      0x00\n        /* \"#utility.yul\":25398:25407   */\n      dup4\n        /* \"#utility.yul\":25394:25411   */\n      add\n        /* \"#utility.yul\":25387:25434   */\n      mstore\n        /* \"#utility.yul\":25451:25582   */\n      tag_849\n        /* \"#utility.yul\":25577:25581   */\n      dup2\n        /* \"#utility.yul\":25451:25582   */\n      tag_598\n      jump\t// in\n    tag_849:\n        /* \"#utility.yul\":25443:25582   */\n      swap1\n      pop\n        /* \"#utility.yul\":25170:25589   */\n      swap2\n      swap1\n      pop\n      jump\t// out\n        /* \"#utility.yul\":25595:26037   */\n    tag_377:\n        /* \"#utility.yul\":25744:25748   */\n      0x00\n        /* \"#utility.yul\":25782:25784   */\n      0x60\n        /* \"#utility.yul\":25771:25780   */\n      dup3\n        /* \"#utility.yul\":25767:25785   */\n      add\n        /* \"#utility.yul\":25759:25785   */\n      swap1\n      pop\n        /* \"#utility.yul\":25795:25866   */\n      tag_851\n        /* \"#utility.yul\":25863:25864   */\n      0x00\n        /* \"#utility.yul\":25852:25861   */\n      dup4\n        /* \"#utility.yul\":25848:25865   */\n      add\n        /* \"#utility.yul\":25839:25845   */\n      dup7\n        /* \"#utility.yul\":25795:25866   */\n      tag_552\n      jump\t// in\n    tag_851:\n        /* \"#utility.yul\":25876:25948   */\n      tag_852\n        /* \"#utility.yul\":25944:25946   */\n      0x20\n        /* \"#utility.yul\":25933:25942   */\n      dup4\n        /* \"#utility.yul\":25929:25947   */\n      add\n        /* \"#utility.yul\":25920:25926   */\n      dup6\n        /* \"#utility.yul\":25876:25948   */\n      tag_552\n      jump\t// in\n    tag_852:\n        /* \"#utility.yul\":25958:26030   */\n      tag_853\n        /* \"#utility.yul\":26026:26028   */\n      0x40\n        /* \"#utility.yul\":26015:26024   */\n      dup4\n        /* \"#utility.yul\":26011:26029   */\n      add\n        /* \"#utility.yul\":26002:26008   */\n      dup5\n        /* \"#utility.yul\":25958:26030   */\n      tag_551\n      jump\t// in\n    tag_853:\n        /* \"#utility.yul\":25595:26037   */\n      swap5\n      swap4\n      pop\n      pop\n      pop\n      pop\n      jump\t// out\n        /* \"#utility.yul\":26043:26159   */\n    tag_599:\n        /* \"#utility.yul\":26113:26134   */\n      tag_855\n        /* \"#utility.yul\":26128:26133   */\n      dup2\n        /* \"#utility.yul\":26113:26134   */\n      tag_538\n      jump\t// in\n    tag_855:\n        /* \"#utility.yul\":26106:26111   */\n      dup2\n        /* \"#utility.yul\":26103:26135   */\n      eq\n        /* \"#utility.yul\":26093:26153   */\n      tag_856\n      jumpi\n        /* \"#utility.yul\":26149:26150   */\n      0x00\n        /* \"#utility.yul\":26146:26147   */\n      dup1\n        /* \"#utility.yul\":26139:26151   */\n      revert\n        /* \"#utility.yul\":26093:26153   */\n    tag_856:\n        /* \"#utility.yul\":26043:26159   */\n      pop\n      jump\t// out\n        /* \"#utility.yul\":26165:26302   */\n    tag_600:\n        /* \"#utility.yul\":26219:26224   */\n      0x00\n        /* \"#utility.yul\":26250:26256   */\n      dup2\n        /* \"#utility.yul\":26244:26257   */\n      mload\n        /* \"#utility.yul\":26235:26257   */\n      swap1\n      pop\n        /* \"#utility.yul\":26266:26296   */\n      tag_858\n        /* \"#utility.yul\":26290:26295   */\n      dup2\n        /* \"#utility.yul\":26266:26296   */\n      tag_599\n      jump\t// in\n    tag_858:\n        /* \"#utility.yul\":26165:26302   */\n      swap3\n      swap2\n      pop\n      pop\n      jump\t// out\n        /* \"#utility.yul\":26308:26653   */\n    tag_381:\n        /* \"#utility.yul\":26375:26381   */\n      0x00\n        /* \"#utility.yul\":26424:26426   */\n      0x20\n        /* \"#utility.yul\":26412:26421   */\n      dup3\n        /* \"#utility.yul\":26403:26410   */\n      dup5\n        /* \"#utility.yul\":26399:26422   */\n      sub\n        /* \"#utility.yul\":26395:26427   */\n      slt\n        /* \"#utility.yul\":26392:26511   */\n      iszero\n      tag_860\n      jumpi\n        /* \"#utility.yul\":26430:26509   */\n      tag_861\n      tag_533\n      jump\t// in\n    tag_861:\n        /* \"#utility.yul\":26392:26511   */\n    tag_860:\n        /* \"#utility.yul\":26550:26551   */\n      0x00\n        /* \"#utility.yul\":26575:26636   */\n      tag_862\n        /* \"#utility.yul\":26628:26635   */\n      dup5\n        /* \"#utility.yul\":26619:26625   */\n      dup3\n        /* \"#utility.yul\":26608:26617   */\n      dup6\n        /* \"#utility.yul\":26604:26626   */\n      add\n        /* \"#utility.yul\":26575:26636   */\n      tag_600\n      jump\t// in\n    tag_862:\n        /* \"#utility.yul\":26565:26636   */\n      swap2\n      pop\n        /* \"#utility.yul\":26521:26646   */\n      pop\n        /* \"#utility.yul\":26308:26653   */\n      swap3\n      swap2\n      pop\n      pop\n      jump\t// out\n        /* \"#utility.yul\":26659:26802   */\n    tag_601:\n        /* \"#utility.yul\":26716:26721   */\n      0x00\n        /* \"#utility.yul\":26747:26753   */\n      dup2\n        /* \"#utility.yul\":26741:26754   */\n      mload\n        /* \"#utility.yul\":26732:26754   */\n      swap1\n      pop\n        /* \"#utility.yul\":26763:26796   */\n      tag_864\n        /* \"#utility.yul\":26790:26795   */\n      dup2\n        /* \"#utility.yul\":26763:26796   */\n      tag_553\n      jump\t// in\n    tag_864:\n        /* \"#utility.yul\":26659:26802   */\n      swap3\n      swap2\n      pop\n      pop\n      jump\t// out\n        /* \"#utility.yul\":26808:27159   */\n    tag_454:\n        /* \"#utility.yul\":26878:26884   */\n      0x00\n        /* \"#utility.yul\":26927:26929   */\n      0x20\n        /* \"#utility.yul\":26915:26924   */\n      dup3\n        /* \"#utility.yul\":26906:26913   */\n      dup5\n        /* \"#utility.yul\":26902:26925   */\n      sub\n        /* \"#utility.yul\":26898:26930   */\n      slt\n        /* \"#utility.yul\":26895:27014   */\n      iszero\n      tag_866\n      jumpi\n        /* \"#utility.yul\":26933:27012   */\n      tag_867\n      tag_533\n      jump\t// in\n    tag_867:\n        /* \"#utility.yul\":26895:27014   */\n    tag_866:\n        /* \"#utility.yul\":27053:27054   */\n      0x00\n        /* \"#utility.yul\":27078:27142   */\n      tag_868\n        /* \"#utility.yul\":27134:27141   */\n      dup5\n        /* \"#utility.yul\":27125:27131   */\n      dup3\n        /* \"#utility.yul\":27114:27123   */\n      dup6\n        /* \"#utility.yul\":27110:27132   */\n      add\n        /* \"#utility.yul\":27078:27142   */\n      tag_601\n      jump\t// in\n    tag_868:\n        /* \"#utility.yul\":27068:27142   */\n      swap2\n      pop\n        /* \"#utility.yul\":27024:27152   */\n      pop\n        /* \"#utility.yul\":26808:27159   */\n      swap3\n      swap2\n      pop\n      pop\n      jump\t// out\n        /* \"#utility.yul\":27165:27497   */\n    tag_478:\n        /* \"#utility.yul\":27286:27290   */\n      0x00\n        /* \"#utility.yul\":27324:27326   */\n      0x40\n        /* \"#utility.yul\":27313:27322   */\n      dup3\n        /* \"#utility.yul\":27309:27327   */\n      add\n        /* \"#utility.yul\":27301:27327   */\n      swap1\n      pop\n        /* \"#utility.yul\":27337:27408   */\n      tag_870\n        /* \"#utility.yul\":27405:27406   */\n      0x00\n        /* \"#utility.yul\":27394:27403   */\n      dup4\n        /* \"#utility.yul\":27390:27407   */\n      add\n        /* \"#utility.yul\":27381:27387   */\n      dup6\n        /* \"#utility.yul\":27337:27408   */\n      tag_552\n      jump\t// in\n    tag_870:\n        /* \"#utility.yul\":27418:27490   */\n      tag_871\n        /* \"#utility.yul\":27486:27488   */\n      0x20\n        /* \"#utility.yul\":27475:27484   */\n      dup4\n        /* \"#utility.yul\":27471:27489   */\n      add\n        /* \"#utility.yul\":27462:27468   */\n      dup5\n        /* \"#utility.yul\":27418:27490   */\n      tag_531\n      jump\t// in\n    tag_871:\n        /* \"#utility.yul\":27165:27497   */\n      swap4\n      swap3\n      pop\n      pop\n      pop\n      jump\t// out\n        /* \"#utility.yul\":27503:27601   */\n    tag_602:\n        /* \"#utility.yul\":27554:27560   */\n      0x00\n        /* \"#utility.yul\":27588:27593   */\n      dup2\n        /* \"#utility.yul\":27582:27594   */\n      mload\n        /* \"#utility.yul\":27572:27594   */\n      swap1\n      pop\n        /* \"#utility.yul\":27503:27601   */\n      swap2\n      swap1\n      pop\n      jump\t// out\n        /* \"#utility.yul\":27607:27754   */\n    tag_603:\n        /* \"#utility.yul\":27708:27719   */\n      0x00\n        /* \"#utility.yul\":27745:27748   */\n      dup2\n        /* \"#utility.yul\":27730:27748   */\n      swap1\n      pop\n        /* \"#utility.yul\":27607:27754   */\n      swap3\n      swap2\n      pop\n      pop\n      jump\t// out\n        /* \"#utility.yul\":27760:28146   */\n    tag_604:\n        /* \"#utility.yul\":27864:27867   */\n      0x00\n        /* \"#utility.yul\":27892:27930   */\n      tag_875\n        /* \"#utility.yul\":27924:27929   */\n      dup3\n        /* \"#utility.yul\":27892:27930   */\n      tag_602\n      jump\t// in\n    tag_875:\n        /* \"#utility.yul\":27946:28034   */\n      tag_876\n        /* \"#utility.yul\":28027:28033   */\n      dup2\n        /* \"#utility.yul\":28022:28025   */\n      dup6\n        /* \"#utility.yul\":27946:28034   */\n      tag_603\n      jump\t// in\n    tag_876:\n        /* \"#utility.yul\":27939:28034   */\n      swap4\n      pop\n        /* \"#utility.yul\":28043:28108   */\n      tag_877\n        /* \"#utility.yul\":28101:28107   */\n      dup2\n        /* \"#utility.yul\":28096:28099   */\n      dup6\n        /* \"#utility.yul\":28089:28093   */\n      0x20\n        /* \"#utility.yul\":28082:28087   */\n      dup7\n        /* \"#utility.yul\":28078:28094   */\n      add\n        /* \"#utility.yul\":28043:28108   */\n      tag_566\n      jump\t// in\n    tag_877:\n        /* \"#utility.yul\":28133:28139   */\n      dup1\n        /* \"#utility.yul\":28128:28131   */\n      dup5\n        /* \"#utility.yul\":28124:28140   */\n      add\n        /* \"#utility.yul\":28117:28140   */\n      swap2\n      pop\n        /* \"#utility.yul\":27868:28146   */\n      pop\n        /* \"#utility.yul\":27760:28146   */\n      swap3\n      swap2\n      pop\n      pop\n      jump\t// out\n        /* \"#utility.yul\":28152:28423   */\n    tag_511:\n        /* \"#utility.yul\":28282:28285   */\n      0x00\n        /* \"#utility.yul\":28304:28397   */\n      tag_879\n        /* \"#utility.yul\":28393:28396   */\n      dup3\n        /* \"#utility.yul\":28384:28390   */\n      dup5\n        /* \"#utility.yul\":28304:28397   */\n      tag_604\n      jump\t// in\n    tag_879:\n        /* \"#utility.yul\":28297:28397   */\n      swap2\n      pop\n        /* \"#utility.yul\":28414:28417   */\n      dup2\n        /* \"#utility.yul\":28407:28417   */\n      swap1\n      pop\n        /* \"#utility.yul\":28152:28423   */\n      swap3\n      swap2\n      pop\n      pop\n      jump\t// out\n\n    auxdata: 0xa2646970667358221220298be3b80f32a6908c351ca61fa8f9cee8c62ecb0909507d09dde31809c5a2f464736f6c634300081a0033\n}\n",
				"bytecode": {
					"linkReferences": {},
					"object": "60a06040523073ffffffffffffffffffffffffffffffffffffffff1660809073ffffffffffffffffffffffffffffffffffffffff16815250348015610042575f80fd5b5061005161005660201b60201c565b6101b6565b5f61006561015460201b60201c565b9050805f0160089054906101000a900460ff16156100af576040517ff92ee8a900000000000000000000000000000000000000000000000000000000815260040160405180910390fd5b67ffffffffffffffff8016815f015f9054906101000a900467ffffffffffffffff1667ffffffffffffffff16146101515767ffffffffffffffff815f015f6101000a81548167ffffffffffffffff021916908367ffffffffffffffff1602179055507fc7f505b2f371ae2175ee4913f4499e1f2633a7b5936321eed1cdaeb6115181d267ffffffffffffffff604051610148919061019d565b60405180910390a15b50565b5f7ff0c57e16840df040f15088dc2f81fe391c3923bec73e23a9662efc9c229c6a00905090565b5f67ffffffffffffffff82169050919050565b6101978161017b565b82525050565b5f6020820190506101b05f83018461018e565b92915050565b6080516133c76101dc5f395f8181611e6001528181611eb5015261209201526133c75ff3fe608060405260043610610239575f3560e01c80634f1ef2861161012d578063a96f8668116100aa578063e1884b0f1161006e578063e1884b0f146107e7578063e63ab1e91461080f578063e641bde114610839578063f72c0d8b14610861578063fc0c546a1461088b57610239565b8063a96f86681461072b578063ad3cb1cc14610741578063b91d40011461076b578063d29cb7ad14610795578063d547741f146107bf57610239565b80637b9417c8116100f15780637b9417c81461065d5780637de69d5f146106855780638456cb59146106af57806391d14854146106c5578063a217fddf1461070157610239565b80634f1ef2861461059b57806352d1902d146105b75780635c627358146105e15780635c975abb1461060957806376082a5e1461063357610239565b80632f2ff15d116101bb5780633f4ba83a1161017f5780633f4ba83a146104cf57806342714978146104e557806344c4dcc11461050d57806346e73271146105495780634d853ee51461057157610239565b80632f2ff15d146104115780633610724e1461043957806336568abe14610455578063384711cc1461047d5780633ccfd60b146104b957610239565b80631645009211610202578063164500921461033157806323f5c02d1461035b578063248a9ca314610385578063286dd3f5146103c15780632dbf645a146103e957610239565b8062dce23f1461023d57806301ffc9a71461026757806306c933d8146102a3578063096f072b146102df5780630b10d5f214610307575b5f80fd5b348015610248575f80fd5b506102516108b5565b60405161025e9190612608565b60405180910390f35b348015610272575f80fd5b5061028d60048036038101906102889190612687565b6108d9565b60405161029a91906126cc565b60405180910390f35b3480156102ae575f80fd5b506102c960048036038101906102c4919061273f565b610952565b6040516102d691906126cc565b60405180910390f35b3480156102ea575f80fd5b50610305600480360381019061030091906127fe565b61096f565b005b348015610312575f80fd5b5061031b610b16565b604051610328919061286a565b60405180910390f35b34801561033c575f80fd5b50610345610b1c565b604051610352919061286a565b60405180910390f35b348015610366575f80fd5b5061036f610b22565b60405161037c9190612892565b60405180910390f35b348015610390575f80fd5b506103ab60048036038101906103a691906128d5565b610b47565b6040516103b89190612608565b60405180910390f35b3480156103cc575f80fd5b506103e760048036038101906103e2919061273f565b610b71565b005b3480156103f4575f80fd5b5061040f600480360381019061040a919061273f565b610c18565b005b34801561041c575f80fd5b5061043760048036038101906104329190612900565b610c8a565b005b610453600480360381019061044e919061293e565b610cac565b005b348015610460575f80fd5b5061047b60048036038101906104769190612900565b610f9f565b005b348015610488575f80fd5b506104a3600480360381019061049e919061273f565b61101a565b6040516104b0919061286a565b60405180910390f35b3480156104c4575f80fd5b506104cd61102f565b005b3480156104da575f80fd5b506104e36110fe565b005b3480156104f0575f80fd5b5061050b6004803603810190610506919061273f565b611133565b005b348015610518575f80fd5b50610533600480360381019061052e919061273f565b6111a5565b604051610540919061286a565b60405180910390f35b348015610554575f80fd5b5061056f600480360381019061056a9190612969565b6111ba565b005b34801561057c575f80fd5b50610585611440565b6040516105929190612892565b60405180910390f35b6105b560048036038101906105b09190612b7a565b611463565b005b3480156105c2575f80fd5b506105cb611482565b6040516105d89190612608565b60405180910390f35b3480156105ec575f80fd5b506106076004803603810190610602919061273f565b6114b3565b005b348015610614575f80fd5b5061061d611525565b60405161062a91906126cc565b60405180910390f35b34801561063e575f80fd5b50610647611547565b6040516106549190612608565b60405180910390f35b348015610668575f80fd5b50610683600480360381019061067e919061273f565b61156b565b005b348015610690575f80fd5b50610699611613565b6040516106a6919061286a565b60405180910390f35b3480156106ba575f80fd5b506106c3611619565b005b3480156106d0575f80fd5b506106eb60048036038101906106e69190612900565b61164e565b6040516106f891906126cc565b60405180910390f35b34801561070c575f80fd5b506107156116bf565b6040516107229190612608565b60405180910390f35b348015610736575f80fd5b5061073f6116c5565b005b34801561074c575f80fd5b506107556118cb565b6040516107629190612c34565b60405180910390f35b348015610776575f80fd5b5061077f611904565b60405161078c919061286a565b60405180910390f35b3480156107a0575f80fd5b506107a961190a565b6040516107b6919061286a565b60405180910390f35b3480156107ca575f80fd5b506107e560048036038101906107e09190612900565b611910565b005b3480156107f2575f80fd5b5061080d6004803603810190610808919061293e565b611932565b005b34801561081a575f80fd5b50610823611980565b6040516108309190612608565b60405180910390f35b348015610844575f80fd5b5061085f600480360381019061085a919061273f565b6119a4565b005b34801561086c575f80fd5b50610875611a16565b6040516108829190612608565b60405180910390f35b348015610896575f80fd5b5061089f611a3a565b6040516108ac9190612caf565b60405180910390f35b7f60c5cfba52c4b504f7c252e725c10aea67bfd5e3972bd12ea427f6a9742e6dbe81565b5f7f7965db0b000000000000000000000000000000000000000000000000000000007bffffffffffffffffffffffffffffffffffffffffffffffffffffffff1916827bffffffffffffffffffffffffffffffffffffffffffffffffffffffff1916148061094b575061094a82611a5f565b5b9050919050565b6008602052805f5260405f205f915054906101000a900460ff1681565b5f801b61097b81611ac8565b60405160200161098a90612d1c565b6040516020818303038152906040528051906020012083836040516020016109b3929190612d54565b60405160208183030381529060405280519060200120036109da5783600181905550610ad5565b6040516020016109e990612db6565b604051602081830303815290604052805190602001208383604051602001610a12929190612d54565b6040516020818303038152906040528051906020012003610a395783600281905550610ad4565b604051602001610a4890612e14565b604051602081830303815290604052805190602001208383604051602001610a71929190612d54565b6040516020818303038152906040528051906020012003610a985783600381905550610ad3565b6040517f08c379a0000000000000000000000000000000000000000000000000000000008152600401610aca90612e72565b60405180910390fd5b5b5b7feb965a01dcf45c018906efc8417ee684fc308fe125c2c16698e677fd058bfe48848484604051610b0893929190612ebc565b60405180910390a150505050565b60025481565b60045481565b600a5f9054906101000a900473ffffffffffffffffffffffffffffffffffffffff1681565b5f80610b51611adc565b9050805f015f8481526020019081526020015f2060010154915050919050565b5f801b610b7d81611ac8565b5f60085f8473ffffffffffffffffffffffffffffffffffffffff1673ffffffffffffffffffffffffffffffffffffffff1681526020019081526020015f205f6101000a81548160ff0219169083151502179055508173ffffffffffffffffffffffffffffffffffffffff167f535611fb62fa2a833988f283b779e417e996813e44046f521d76c17b5943b08c60405160405180910390a25050565b5f801b610c2481611ac8565b610c4e7f60c5cfba52c4b504f7c252e725c10aea67bfd5e3972bd12ea427f6a9742e6dbe83611b03565b507fa22f826cfa669b4680f0ca673f9e9021392cfe223ef797faf4005f9c8dc4d14b82604051610c7e9190612892565b60405180910390a15050565b610c9382610b47565b610c9c81611ac8565b610ca68383611bfb565b50505050565b610cb4611cf3565b60085f3373ffffffffffffffffffffffffffffffffffffffff1673ffffffffffffffffffffffffffffffffffffffff1681526020019081526020015f205f9054906101000a900460ff16610d3d576040517f08c379a0000000000000000000000000000000000000000000000000000000008152600401610d3490612f36565b60405180910390fd5b5f610d687fb165298935924f540e4181c03493a5d686c54a0aaeb3f6216de85b7ffbba77383361164e565b15610d825760015482610d7b9190612f81565b9050610dd8565b610dac7f60c5cfba52c4b504f7c252e725c10aea67bfd5e3972bd12ea427f6a9742e6dbe3361164e565b15610dc65760025482610dbf9190612f81565b9050610dd7565b60035482610dd49190612f81565b90505b5b803414610e1a576040517f08c379a0000000000000000000000000000000000000000000000000000000008152600401610e119061300c565b60405180910390fd5b6004548260065f3373ffffffffffffffffffffffffffffffffffffffff1673ffffffffffffffffffffffffffffffffffffffff1681526020019081526020015f2054610e66919061302a565b1115610ea7576040517f08c379a0000000000000000000000000000000000000000000000000000000008152600401610e9e906130a7565b60405180910390fd5b8160065f3373ffffffffffffffffffffffffffffffffffffffff1673ffffffffffffffffffffffffffffffffffffffff1681526020019081526020015f205f828254610ef3919061302a565b925050819055508160075f3373ffffffffffffffffffffffffffffffffffffffff1673ffffffffffffffffffffffffffffffffffffffff1681526020019081526020015f205f828254610f46919061302a565b925050819055503373ffffffffffffffffffffffffffffffffffffffff167f8f28852646c20cc973d3a8218f7eefed58c25c909f78f0265af4818c3d4dc27183604051610f93919061286a565b60405180910390a25050565b610fa7611d34565b73ffffffffffffffffffffffffffffffffffffffff168173ffffffffffffffffffffffffffffffffffffffff161461100b576040517f6697b23200000000000000000000000000000000000000000000000000000000815260040160405180910390fd5b6110158282611b03565b505050565b6007602052805f5260405f205f915090505481565b5f801b61103b81611ac8565b5f4790505f8054906101000a900473ffffffffffffffffffffffffffffffffffffffff1673ffffffffffffffffffffffffffffffffffffffff166108fc8290811502906040515f60405180830381858888f193505050501580156110a1573d5f803e3d5ffd5b507feaff4b37086828766ad3268786972c0cd24259d4c87a80f9d3963a3c3d999b0d5f8054906101000a900473ffffffffffffffffffffffffffffffffffffffff16826040516110f29291906130c5565b60405180910390a15050565b7f65d7a28e3265b37a6474929f336521b332c1681b933f6cb9f3376673440d862a61112881611ac8565b611130611d3b565b50565b5f801b61113f81611ac8565b6111697fb165298935924f540e4181c03493a5d686c54a0aaeb3f6216de85b7ffbba773883611b03565b507fba0013628ccb89af5bb18edf764d3a7b35c07b894848b8e6fd3434719de39c7d826040516111999190612892565b60405180910390a15050565b6006602052805f5260405f205f915090505481565b5f6111c3611da9565b90505f815f0160089054906101000a900460ff161590505f825f015f9054906101000a900467ffffffffffffffff1690505f808267ffffffffffffffff1614801561120b5750825b90505f60018367ffffffffffffffff1614801561123e57505f3073ffffffffffffffffffffffffffffffffffffffff163b145b90508115801561124c575080155b15611283576040517ff92ee8a900000000000000000000000000000000000000000000000000000000815260040160405180910390fd5b6001855f015f6101000a81548167ffffffffffffffff021916908367ffffffffffffffff16021790555083156112d0576001855f0160086101000a81548160ff0219169083151502179055505b6112d8611dd0565b6112e0611de2565b6112e8611dec565b6112f38f8f8f611df6565b335f806101000a81548173ffffffffffffffffffffffffffffffffffffffff021916908373ffffffffffffffffffffffffffffffffffffffff1602179055508b60095f6101000a81548173ffffffffffffffffffffffffffffffffffffffff021916908373ffffffffffffffffffffffffffffffffffffffff1602179055508a600a5f6101000a81548173ffffffffffffffffffffffffffffffffffffffff021916908373ffffffffffffffffffffffffffffffffffffffff1602179055508960018190555088600281905550876003819055508660048190555085600581905550831561142f575f855f0160086101000a81548160ff0219169083151502179055507fc7f505b2f371ae2175ee4913f4499e1f2633a7b5936321eed1cdaeb6115181d260016040516114269190613138565b60405180910390a15b505050505050505050505050505050565b5f8054906101000a900473ffffffffffffffffffffffffffffffffffffffff1681565b61146b611e5e565b61147482611f44565b61147e8282611f72565b5050565b5f61148b612090565b7f360894a13ba1a3210667c828492db98dca3e2076cc3735a920a3ca505d382bbc5f1b905090565b5f801b6114bf81611ac8565b6114e97f60c5cfba52c4b504f7c252e725c10aea67bfd5e3972bd12ea427f6a9742e6dbe83611bfb565b507fa41a5ddbf02b01025c5ac32c2038f209eabe5ddb2a83444f2acbfe9f91dc8827826040516115199190612892565b60405180910390a15050565b5f8061152f612117565b9050805f015f9054906101000a900460ff1691505090565b7fb165298935924f540e4181c03493a5d686c54a0aaeb3f6216de85b7ffbba773881565b5f801b61157781611ac8565b600160085f8473ffffffffffffffffffffffffffffffffffffffff1673ffffffffffffffffffffffffffffffffffffffff1681526020019081526020015f205f6101000a81548160ff0219169083151502179055508173ffffffffffffffffffffffffffffffffffffffff167f4f783c179409b4127238bc9c990bc99b9a651666a0d20b51d6c42849eb88466d60405160405180910390a25050565b60035481565b7f65d7a28e3265b37a6474929f336521b332c1681b933f6cb9f3376673440d862a61164381611ac8565b61164b61213e565b50565b5f80611658611adc565b9050805f015f8581526020019081526020015f205f015f8473ffffffffffffffffffffffffffffffffffffffff1673ffffffffffffffffffffffffffffffffffffffff1681526020019081526020015f205f9054906101000a900460ff1691505092915050565b5f801b81565b60055442101561170a576040517f08c379a0000000000000000000000000000000000000000000000000000000008152600401611701906131c1565b60405180910390fd5b5f60075f3373ffffffffffffffffffffffffffffffffffffffff1673ffffffffffffffffffffffffffffffffffffffff1681526020019081526020015f205490505f811161178d576040517f08c379a000000000000000000000000000000000000000000000000000000000815260040161178490613229565b60405180910390fd5b5f60075f3373ffffffffffffffffffffffffffffffffffffffff1673ffffffffffffffffffffffffffffffffffffffff1681526020019081526020015f208190555060095f9054906101000a900473ffffffffffffffffffffffffffffffffffffffff1673ffffffffffffffffffffffffffffffffffffffff166323b872dd600a5f9054906101000a900473ffffffffffffffffffffffffffffffffffffffff1633846040518463ffffffff1660e01b815260040161184e93929190613247565b6020604051808303815f875af115801561186a573d5f803e3d5ffd5b505050506040513d601f19601f8201168201806040525081019061188e91906132a6565b507fc7798891864187665ac6dd119286e44ec13f014527aeeb2b8eb3fd413df9317933826040516118c09291906130c5565b60405180910390a150565b6040518060400160405280600581526020017f352e302e3000000000000000000000000000000000000000000000000000000081525081565b60055481565b60015481565b61191982610b47565b61192281611ac8565b61192c8383611b03565b50505050565b5f801b61193e81611ac8565b816004819055507ff20cfd7e6ce3a0eb317cf0b06dcbc6ba40fb5bdd5ac92227bd1baa0d85c52f9282604051611974919061286a565b60405180910390a15050565b7f65d7a28e3265b37a6474929f336521b332c1681b933f6cb9f3376673440d862a81565b5f801b6119b081611ac8565b6119da7fb165298935924f540e4181c03493a5d686c54a0aaeb3f6216de85b7ffbba773883611bfb565b507f62e6a5118be03f9bfedb79b0ed7ed75ee4a9e15fc4c69d2c4976acde26fa2d5f82604051611a0a9190612892565b60405180910390a15050565b7f189ab7a9244df0848122154315af71fe140f3db0fe014031783b0946b8c9d2e381565b60095f9054906101000a900473ffffffffffffffffffffffffffffffffffffffff1681565b5f7f01ffc9a7000000000000000000000000000000000000000000000000000000007bffffffffffffffffffffffffffffffffffffffffffffffffffffffff1916827bffffffffffffffffffffffffffffffffffffffffffffffffffffffff1916149050919050565b611ad981611ad4611d34565b6121ad565b50565b5f7f02dd7bc7dec4dceedda775e58dd541e08a116c6c53815c0bd028192f7b626800905090565b5f80611b0d611adc565b9050611b19848461164e565b15611bf0575f815f015f8681526020019081526020015f205f015f8573ffffffffffffffffffffffffffffffffffffffff1673ffffffffffffffffffffffffffffffffffffffff1681526020019081526020015f205f6101000a81548160ff021916908315150217905550611b8c611d34565b73ffffffffffffffffffffffffffffffffffffffff168373ffffffffffffffffffffffffffffffffffffffff16857ff6391f5c32d9c69d2a47ea670b442974b53935d1edc7fd64eb21e047a839171b60405160405180910390a46001915050611bf5565b5f9150505b92915050565b5f80611c05611adc565b9050611c11848461164e565b611ce8576001815f015f8681526020019081526020015f205f015f8573ffffffffffffffffffffffffffffffffffffffff1673ffffffffffffffffffffffffffffffffffffffff1681526020019081526020015f205f6101000a81548160ff021916908315150217905550611c84611d34565b73ffffffffffffffffffffffffffffffffffffffff168373ffffffffffffffffffffffffffffffffffffffff16857f2f8788117e7eff1d82e926ec794901d17c78024a50270940304540a733656f0d60405160405180910390a46001915050611ced565b5f9150505b92915050565b611cfb611525565b15611d32576040517fd93c066500000000000000000000000000000000000000000000000000000000815260040160405180910390fd5b565b5f33905090565b611d436121fe565b5f611d4c612117565b90505f815f015f6101000a81548160ff0219169083151502179055507f5db9ee0a495bf2e6ff9c91a7834c1ba4fdd244a5e8aa4e537bd38aeae4b073aa611d91611d34565b604051611d9e9190612892565b60405180910390a150565b5f7ff0c57e16840df040f15088dc2f81fe391c3923bec73e23a9662efc9c229c6a00905090565b611dd861223e565b611de061227e565b565b611dea61223e565b565b611df461223e565b565b611e025f801b84611bfb565b50611e2d7f65d7a28e3265b37a6474929f336521b332c1681b933f6cb9f3376673440d862a83611bfb565b50611e587f189ab7a9244df0848122154315af71fe140f3db0fe014031783b0946b8c9d2e382611bfb565b50505050565b7f000000000000000000000000000000000000000000000000000000000000000073ffffffffffffffffffffffffffffffffffffffff163073ffffffffffffffffffffffffffffffffffffffff161480611f0b57507f000000000000000000000000000000000000000000000000000000000000000073ffffffffffffffffffffffffffffffffffffffff16611ef26122ae565b73ffffffffffffffffffffffffffffffffffffffff1614155b15611f42576040517fe07c8dba00000000000000000000000000000000000000000000000000000000815260040160405180910390fd5b565b7f189ab7a9244df0848122154315af71fe140f3db0fe014031783b0946b8c9d2e3611f6e81611ac8565b5050565b8173ffffffffffffffffffffffffffffffffffffffff166352d1902d6040518163ffffffff1660e01b8152600401602060405180830381865afa925050508015611fda57506040513d601f19601f82011682018060405250810190611fd791906132e5565b60015b61201b57816040517f4c9c8ce30000000000000000000000000000000000000000000000000000000081526004016120129190612892565b60405180910390fd5b7f360894a13ba1a3210667c828492db98dca3e2076cc3735a920a3ca505d382bbc5f1b811461208157806040517faa1d49a40000000000000000000000000000000000000000000000000000000081526004016120789190612608565b60405180910390fd5b61208b8383612301565b505050565b7f000000000000000000000000000000000000000000000000000000000000000073ffffffffffffffffffffffffffffffffffffffff163073ffffffffffffffffffffffffffffffffffffffff1614612115576040517fe07c8dba00000000000000000000000000000000000000000000000000000000815260040160405180910390fd5b565b5f7fcd5ed15c6e187e77e9aee88184c21f4f2182ab5827cb3b7e07fbedcd63f03300905090565b612146611cf3565b5f61214f612117565b90506001815f015f6101000a81548160ff0219169083151502179055507f62e78cea01bee320cd4e420270b5ea74000d11b0c9f74754ebdbfc544b05a258612195611d34565b6040516121a29190612892565b60405180910390a150565b6121b7828261164e565b6121fa5780826040517fe2517d3f0000000000000000000000000000000000000000000000000000000081526004016121f1929190613310565b60405180910390fd5b5050565b612206611525565b61223c576040517f8dfc202b00000000000000000000000000000000000000000000000000000000815260040160405180910390fd5b565b612246612373565b61227c576040517fd7e6bcf800000000000000000000000000000000000000000000000000000000815260040160405180910390fd5b565b61228661223e565b5f61228f612117565b90505f815f015f6101000a81548160ff02191690831515021790555050565b5f6122da7f360894a13ba1a3210667c828492db98dca3e2076cc3735a920a3ca505d382bbc5f1b612391565b5f015f9054906101000a900473ffffffffffffffffffffffffffffffffffffffff16905090565b61230a8261239a565b8173ffffffffffffffffffffffffffffffffffffffff167fbc7cd75a20ee27fd9adebab32041f755214dbc6bffa90cc0225b39da2e5c2d3b60405160405180910390a25f81511115612366576123608282612463565b5061236f565b61236e6124e3565b5b5050565b5f61237c611da9565b5f0160089054906101000a900460ff16905090565b5f819050919050565b5f8173ffffffffffffffffffffffffffffffffffffffff163b036123f557806040517f4c9c8ce30000000000000000000000000000000000000000000000000000000081526004016123ec9190612892565b60405180910390fd5b806124217f360894a13ba1a3210667c828492db98dca3e2076cc3735a920a3ca505d382bbc5f1b612391565b5f015f6101000a81548173ffffffffffffffffffffffffffffffffffffffff021916908373ffffffffffffffffffffffffffffffffffffffff16021790555050565b60605f808473ffffffffffffffffffffffffffffffffffffffff168460405161248c919061337b565b5f60405180830381855af49150503d805f81146124c4576040519150601f19603f3d011682016040523d82523d5f602084013e6124c9565b606091505b50915091506124d985838361251f565b9250505092915050565b5f34111561251d576040517fb398979f00000000000000000000000000000000000000000000000000000000815260040160405180910390fd5b565b6060826125345761252f826125ac565b6125a4565b5f825114801561255a57505f8473ffffffffffffffffffffffffffffffffffffffff163b145b1561259c57836040517f9996b3150000000000000000000000000000000000000000000000000000000081526004016125939190612892565b60405180910390fd5b8190506125a5565b5b9392505050565b5f815111156125be5780518082602001fd5b6040517f1425ea4200000000000000000000000000000000000000000000000000000000815260040160405180910390fd5b5f819050919050565b612602816125f0565b82525050565b5f60208201905061261b5f8301846125f9565b92915050565b5f604051905090565b5f80fd5b5f80fd5b5f7fffffffff0000000000000000000000000000000000000000000000000000000082169050919050565b61266681612632565b8114612670575f80fd5b50565b5f813590506126818161265d565b92915050565b5f6020828403121561269c5761269b61262a565b5b5f6126a984828501612673565b91505092915050565b5f8115159050919050565b6126c6816126b2565b82525050565b5f6020820190506126df5f8301846126bd565b92915050565b5f73ffffffffffffffffffffffffffffffffffffffff82169050919050565b5f61270e826126e5565b9050919050565b61271e81612704565b8114612728575f80fd5b50565b5f8135905061273981612715565b92915050565b5f602082840312156127545761275361262a565b5b5f6127618482850161272b565b91505092915050565b5f819050919050565b61277c8161276a565b8114612786575f80fd5b50565b5f8135905061279781612773565b92915050565b5f80fd5b5f80fd5b5f80fd5b5f8083601f8401126127be576127bd61279d565b5b8235905067ffffffffffffffff8111156127db576127da6127a1565b5b6020830191508360018202830111156127f7576127f66127a5565b5b9250929050565b5f805f604084860312156128155761281461262a565b5b5f61282286828701612789565b935050602084013567ffffffffffffffff8111156128435761284261262e565b5b61284f868287016127a9565b92509250509250925092565b6128648161276a565b82525050565b5f60208201905061287d5f83018461285b565b92915050565b61288c81612704565b82525050565b5f6020820190506128a55f830184612883565b92915050565b6128b4816125f0565b81146128be575f80fd5b50565b5f813590506128cf816128ab565b92915050565b5f602082840312156128ea576128e961262a565b5b5f6128f7848285016128c1565b91505092915050565b5f80604083850312156129165761291561262a565b5b5f612923858286016128c1565b92505060206129348582860161272b565b9150509250929050565b5f602082840312156129535761295261262a565b5b5f61296084828501612789565b91505092915050565b5f805f805f805f805f806101408b8d0312156129885761298761262a565b5b5f6129958d828e0161272b565b9a505060206129a68d828e0161272b565b99505060406129b78d828e0161272b565b98505060606129c88d828e0161272b565b97505060806129d98d828e0161272b565b96505060a06129ea8d828e01612789565b95505060c06129fb8d828e01612789565b94505060e0612a0c8d828e01612789565b935050610100612a1e8d828e01612789565b925050610120612a308d828e01612789565b9150509295989b9194979a5092959850565b5f80fd5b5f601f19601f8301169050919050565b7f4e487b71000000000000000000000000000000000000000000000000000000005f52604160045260245ffd5b612a8c82612a46565b810181811067ffffffffffffffff82111715612aab57612aaa612a56565b5b80604052505050565b5f612abd612621565b9050612ac98282612a83565b919050565b5f67ffffffffffffffff821115612ae857612ae7612a56565b5b612af182612a46565b9050602081019050919050565b828183375f83830152505050565b5f612b1e612b1984612ace565b612ab4565b905082815260208101848484011115612b3a57612b39612a42565b5b612b45848285612afe565b509392505050565b5f82601f830112612b6157612b6061279d565b5b8135612b71848260208601612b0c565b91505092915050565b5f8060408385031215612b9057612b8f61262a565b5b5f612b9d8582860161272b565b925050602083013567ffffffffffffffff811115612bbe57612bbd61262e565b5b612bca85828601612b4d565b9150509250929050565b5f81519050919050565b5f82825260208201905092915050565b8281835e5f83830152505050565b5f612c0682612bd4565b612c108185612bde565b9350612c20818560208601612bee565b612c2981612a46565b840191505092915050565b5f6020820190508181035f830152612c4c8184612bfc565b905092915050565b5f819050919050565b5f612c77612c72612c6d846126e5565b612c54565b6126e5565b9050919050565b5f612c8882612c5d565b9050919050565b5f612c9982612c7e565b9050919050565b612ca981612c8f565b82525050565b5f602082019050612cc25f830184612ca0565b92915050565b5f81905092915050565b7f494e564553544f520000000000000000000000000000000000000000000000005f82015250565b5f612d06600883612cc8565b9150612d1182612cd2565b600882019050919050565b5f612d2682612cfa565b9150819050919050565b5f612d3b8385612cc8565b9350612d48838584612afe565b82840190509392505050565b5f612d60828486612d30565b91508190509392505050565b7f434f4d4d554e49545900000000000000000000000000000000000000000000005f82015250565b5f612da0600983612cc8565b9150612dab82612d6c565b600982019050919050565b5f612dc082612d94565b9150819050919050565b7f5055424c494300000000000000000000000000000000000000000000000000005f82015250565b5f612dfe600683612cc8565b9150612e0982612dca565b600682019050919050565b5f612e1e82612df2565b9150819050919050565b7f496e76616c696420726f6c6500000000000000000000000000000000000000005f82015250565b5f612e5c600c83612bde565b9150612e6782612e28565b602082019050919050565b5f6020820190508181035f830152612e8981612e50565b9050919050565b5f612e9b8385612bde565b9350612ea8838584612afe565b612eb183612a46565b840190509392505050565b5f604082019050612ecf5f83018661285b565b8181036020830152612ee2818486612e90565b9050949350505050565b7f41646472657373206e6f742077686974656c69737465640000000000000000005f82015250565b5f612f20601783612bde565b9150612f2b82612eec565b602082019050919050565b5f6020820190508181035f830152612f4d81612f14565b9050919050565b7f4e487b71000000000000000000000000000000000000000000000000000000005f52601160045260245ffd5b5f612f8b8261276a565b9150612f968361276a565b9250828202612fa48161276a565b91508282048414831517612fbb57612fba612f54565b5b5092915050565b7f496e636f72726563742076616c75652073656e740000000000000000000000005f82015250565b5f612ff6601483612bde565b915061300182612fc2565b602082019050919050565b5f6020820190508181035f83015261302381612fea565b9050919050565b5f6130348261276a565b915061303f8361276a565b925082820190508082111561305757613056612f54565b5b92915050565b7f50757263686173652065786365656473206361700000000000000000000000005f82015250565b5f613091601483612bde565b915061309c8261305d565b602082019050919050565b5f6020820190508181035f8301526130be81613085565b9050919050565b5f6040820190506130d85f830185612883565b6130e5602083018461285b565b9392505050565b5f819050919050565b5f67ffffffffffffffff82169050919050565b5f61312261311d613118846130ec565b612c54565b6130f5565b9050919050565b61313281613108565b82525050565b5f60208201905061314b5f830184613129565b92915050565b7f43757272656e742074696d65206973206265666f72652072656c6561736520745f8201527f696d650000000000000000000000000000000000000000000000000000000000602082015250565b5f6131ab602383612bde565b91506131b682613151565b604082019050919050565b5f6020820190508181035f8301526131d88161319f565b9050919050565b7f4e6f20746f6b656e7320617265206475650000000000000000000000000000005f82015250565b5f613213601183612bde565b915061321e826131df565b602082019050919050565b5f6020820190508181035f83015261324081613207565b9050919050565b5f60608201905061325a5f830186612883565b6132676020830185612883565b613274604083018461285b565b949350505050565b613285816126b2565b811461328f575f80fd5b50565b5f815190506132a08161327c565b92915050565b5f602082840312156132bb576132ba61262a565b5b5f6132c884828501613292565b91505092915050565b5f815190506132df816128ab565b92915050565b5f602082840312156132fa576132f961262a565b5b5f613307848285016132d1565b91505092915050565b5f6040820190506133235f830185612883565b61333060208301846125f9565b9392505050565b5f81519050919050565b5f81905092915050565b5f61335582613337565b61335f8185613341565b935061336f818560208601612bee565b80840191505092915050565b5f613386828461334b565b91508190509291505056fea2646970667358221220298be3b80f32a6908c351ca61fa8f9cee8c62ecb0909507d09dde31809c5a2f464736f6c634300081a0033",
					"opcodes": "PUSH1 0xA0 PUSH1 0x40 MSTORE ADDRESS PUSH20 0xFFFFFFFFFFFFFFFFFFFFFFFFFFFFFFFFFFFFFFFF AND PUSH1 0x80 SWAP1 PUSH20 0xFFFFFFFFFFFFFFFFFFFFFFFFFFFFFFFFFFFFFFFF AND DUP2 MSTORE POP CALLVALUE DUP1 ISZERO PUSH2 0x42 JUMPI PUSH0 DUP1 REVERT JUMPDEST POP PUSH2 0x51 PUSH2 0x56 PUSH1 0x20 SHL PUSH1 0x20 SHR JUMP JUMPDEST PUSH2 0x1B6 JUMP JUMPDEST PUSH0 PUSH2 0x65 PUSH2 0x154 PUSH1 0x20 SHL PUSH1 0x20 SHR JUMP JUMPDEST SWAP1 POP DUP1 PUSH0 ADD PUSH1 0x8 SWAP1 SLOAD SWAP1 PUSH2 0x100 EXP SWAP1 DIV PUSH1 0xFF AND ISZERO PUSH2 0xAF JUMPI PUSH1 0x40 MLOAD PUSH32 0xF92EE8A900000000000000000000000000000000000000000000000000000000 DUP2 MSTORE PUSH1 0x4 ADD PUSH1 0x40 MLOAD DUP1 SWAP2 SUB SWAP1 REVERT JUMPDEST PUSH8 0xFFFFFFFFFFFFFFFF DUP1 AND DUP2 PUSH0 ADD PUSH0 SWAP1 SLOAD SWAP1 PUSH2 0x100 EXP SWAP1 DIV PUSH8 0xFFFFFFFFFFFFFFFF AND PUSH8 0xFFFFFFFFFFFFFFFF AND EQ PUSH2 0x151 JUMPI PUSH8 0xFFFFFFFFFFFFFFFF DUP2 PUSH0 ADD PUSH0 PUSH2 0x100 EXP DUP2 SLOAD DUP2 PUSH8 0xFFFFFFFFFFFFFFFF MUL NOT AND SWAP1 DUP4 PUSH8 0xFFFFFFFFFFFFFFFF AND MUL OR SWAP1 SSTORE POP PUSH32 0xC7F505B2F371AE2175EE4913F4499E1F2633A7B5936321EED1CDAEB6115181D2 PUSH8 0xFFFFFFFFFFFFFFFF PUSH1 0x40 MLOAD PUSH2 0x148 SWAP2 SWAP1 PUSH2 0x19D JUMP JUMPDEST PUSH1 0x40 MLOAD DUP1 SWAP2 SUB SWAP1 LOG1 JUMPDEST POP JUMP JUMPDEST PUSH0 PUSH32 0xF0C57E16840DF040F15088DC2F81FE391C3923BEC73E23A9662EFC9C229C6A00 SWAP1 POP SWAP1 JUMP JUMPDEST PUSH0 PUSH8 0xFFFFFFFFFFFFFFFF DUP3 AND SWAP1 POP SWAP2 SWAP1 POP JUMP JUMPDEST PUSH2 0x197 DUP2 PUSH2 0x17B JUMP JUMPDEST DUP3 MSTORE POP POP JUMP JUMPDEST PUSH0 PUSH1 0x20 DUP3 ADD SWAP1 POP PUSH2 0x1B0 PUSH0 DUP4 ADD DUP5 PUSH2 0x18E JUMP JUMPDEST SWAP3 SWAP2 POP POP JUMP JUMPDEST PUSH1 0x80 MLOAD PUSH2 0x33C7 PUSH2 0x1DC PUSH0 CODECOPY PUSH0 DUP2 DUP2 PUSH2 0x1E60 ADD MSTORE DUP2 DUP2 PUSH2 0x1EB5 ADD MSTORE PUSH2 0x2092 ADD MSTORE PUSH2 0x33C7 PUSH0 RETURN INVALID PUSH1 0x80 PUSH1 0x40 MSTORE PUSH1 0x4 CALLDATASIZE LT PUSH2 0x239 JUMPI PUSH0 CALLDATALOAD PUSH1 0xE0 SHR DUP1 PUSH4 0x4F1EF286 GT PUSH2 0x12D JUMPI DUP1 PUSH4 0xA96F8668 GT PUSH2 0xAA JUMPI DUP1 PUSH4 0xE1884B0F GT PUSH2 0x6E JUMPI DUP1 PUSH4 0xE1884B0F EQ PUSH2 0x7E7 JUMPI DUP1 PUSH4 0xE63AB1E9 EQ PUSH2 0x80F JUMPI DUP1 PUSH4 0xE641BDE1 EQ PUSH2 0x839 JUMPI DUP1 PUSH4 0xF72C0D8B EQ PUSH2 0x861 JUMPI DUP1 PUSH4 0xFC0C546A EQ PUSH2 0x88B JUMPI PUSH2 0x239 JUMP JUMPDEST DUP1 PUSH4 0xA96F8668 EQ PUSH2 0x72B JUMPI DUP1 PUSH4 0xAD3CB1CC EQ PUSH2 0x741 JUMPI DUP1 PUSH4 0xB91D4001 EQ PUSH2 0x76B JUMPI DUP1 PUSH4 0xD29CB7AD EQ PUSH2 0x795 JUMPI DUP1 PUSH4 0xD547741F EQ PUSH2 0x7BF JUMPI PUSH2 0x239 JUMP JUMPDEST DUP1 PUSH4 0x7B9417C8 GT PUSH2 0xF1 JUMPI DUP1 PUSH4 0x7B9417C8 EQ PUSH2 0x65D JUMPI DUP1 PUSH4 0x7DE69D5F EQ PUSH2 0x685 JUMPI DUP1 PUSH4 0x8456CB59 EQ PUSH2 0x6AF JUMPI DUP1 PUSH4 0x91D14854 EQ PUSH2 0x6C5 JUMPI DUP1 PUSH4 0xA217FDDF EQ PUSH2 0x701 JUMPI PUSH2 0x239 JUMP JUMPDEST DUP1 PUSH4 0x4F1EF286 EQ PUSH2 0x59B JUMPI DUP1 PUSH4 0x52D1902D EQ PUSH2 0x5B7 JUMPI DUP1 PUSH4 0x5C627358 EQ PUSH2 0x5E1 JUMPI DUP1 PUSH4 0x5C975ABB EQ PUSH2 0x609 JUMPI DUP1 PUSH4 0x76082A5E EQ PUSH2 0x633 JUMPI PUSH2 0x239 JUMP JUMPDEST DUP1 PUSH4 0x2F2FF15D GT PUSH2 0x1BB JUMPI DUP1 PUSH4 0x3F4BA83A GT PUSH2 0x17F JUMPI DUP1 PUSH4 0x3F4BA83A EQ PUSH2 0x4CF JUMPI DUP1 PUSH4 0x42714978 EQ PUSH2 0x4E5 JUMPI DUP1 PUSH4 0x44C4DCC1 EQ PUSH2 0x50D JUMPI DUP1 PUSH4 0x46E73271 EQ PUSH2 0x549 JUMPI DUP1 PUSH4 0x4D853EE5 EQ PUSH2 0x571 JUMPI PUSH2 0x239 JUMP JUMPDEST DUP1 PUSH4 0x2F2FF15D EQ PUSH2 0x411 JUMPI DUP1 PUSH4 0x3610724E EQ PUSH2 0x439 JUMPI DUP1 PUSH4 0x36568ABE EQ PUSH2 0x455 JUMPI DUP1 PUSH4 0x384711CC EQ PUSH2 0x47D JUMPI DUP1 PUSH4 0x3CCFD60B EQ PUSH2 0x4B9 JUMPI PUSH2 0x239 JUMP JUMPDEST DUP1 PUSH4 0x16450092 GT PUSH2 0x202 JUMPI DUP1 PUSH4 0x16450092 EQ PUSH2 0x331 JUMPI DUP1 PUSH4 0x23F5C02D EQ PUSH2 0x35B JUMPI DUP1 PUSH4 0x248A9CA3 EQ PUSH2 0x385 JUMPI DUP1 PUSH4 0x286DD3F5 EQ PUSH2 0x3C1 JUMPI DUP1 PUSH4 0x2DBF645A EQ PUSH2 0x3E9 JUMPI PUSH2 0x239 JUMP JUMPDEST DUP1 PUSH3 0xDCE23F EQ PUSH2 0x23D JUMPI DUP1 PUSH4 0x1FFC9A7 EQ PUSH2 0x267 JUMPI DUP1 PUSH4 0x6C933D8 EQ PUSH2 0x2A3 JUMPI DUP1 PUSH4 0x96F072B EQ PUSH2 0x2DF JUMPI DUP1 PUSH4 0xB10D5F2 EQ PUSH2 0x307 JUMPI JUMPDEST PUSH0 DUP1 REVERT JUMPDEST CALLVALUE DUP1 ISZERO PUSH2 0x248 JUMPI PUSH0 DUP1 REVERT JUMPDEST POP PUSH2 0x251 PUSH2 0x8B5 JUMP JUMPDEST PUSH1 0x40 MLOAD PUSH2 0x25E SWAP2 SWAP1 PUSH2 0x2608 JUMP JUMPDEST PUSH1 0x40 MLOAD DUP1 SWAP2 SUB SWAP1 RETURN JUMPDEST CALLVALUE DUP1 ISZERO PUSH2 0x272 JUMPI PUSH0 DUP1 REVERT JUMPDEST POP PUSH2 0x28D PUSH1 0x4 DUP1 CALLDATASIZE SUB DUP2 ADD SWAP1 PUSH2 0x288 SWAP2 SWAP1 PUSH2 0x2687 JUMP JUMPDEST PUSH2 0x8D9 JUMP JUMPDEST PUSH1 0x40 MLOAD PUSH2 0x29A SWAP2 SWAP1 PUSH2 0x26CC JUMP JUMPDEST PUSH1 0x40 MLOAD DUP1 SWAP2 SUB SWAP1 RETURN JUMPDEST CALLVALUE DUP1 ISZERO PUSH2 0x2AE JUMPI PUSH0 DUP1 REVERT JUMPDEST POP PUSH2 0x2C9 PUSH1 0x4 DUP1 CALLDATASIZE SUB DUP2 ADD SWAP1 PUSH2 0x2C4 SWAP2 SWAP1 PUSH2 0x273F JUMP JUMPDEST PUSH2 0x952 JUMP JUMPDEST PUSH1 0x40 MLOAD PUSH2 0x2D6 SWAP2 SWAP1 PUSH2 0x26CC JUMP JUMPDEST PUSH1 0x40 MLOAD DUP1 SWAP2 SUB SWAP1 RETURN JUMPDEST CALLVALUE DUP1 ISZERO PUSH2 0x2EA JUMPI PUSH0 DUP1 REVERT JUMPDEST POP PUSH2 0x305 PUSH1 0x4 DUP1 CALLDATASIZE SUB DUP2 ADD SWAP1 PUSH2 0x300 SWAP2 SWAP1 PUSH2 0x27FE JUMP JUMPDEST PUSH2 0x96F JUMP JUMPDEST STOP JUMPDEST CALLVALUE DUP1 ISZERO PUSH2 0x312 JUMPI PUSH0 DUP1 REVERT JUMPDEST POP PUSH2 0x31B PUSH2 0xB16 JUMP JUMPDEST PUSH1 0x40 MLOAD PUSH2 0x328 SWAP2 SWAP1 PUSH2 0x286A JUMP JUMPDEST PUSH1 0x40 MLOAD DUP1 SWAP2 SUB SWAP1 RETURN JUMPDEST CALLVALUE DUP1 ISZERO PUSH2 0x33C JUMPI PUSH0 DUP1 REVERT JUMPDEST POP PUSH2 0x345 PUSH2 0xB1C JUMP JUMPDEST PUSH1 0x40 MLOAD PUSH2 0x352 SWAP2 SWAP1 PUSH2 0x286A JUMP JUMPDEST PUSH1 0x40 MLOAD DUP1 SWAP2 SUB SWAP1 RETURN JUMPDEST CALLVALUE DUP1 ISZERO PUSH2 0x366 JUMPI PUSH0 DUP1 REVERT JUMPDEST POP PUSH2 0x36F PUSH2 0xB22 JUMP JUMPDEST PUSH1 0x40 MLOAD PUSH2 0x37C SWAP2 SWAP1 PUSH2 0x2892 JUMP JUMPDEST PUSH1 0x40 MLOAD DUP1 SWAP2 SUB SWAP1 RETURN JUMPDEST CALLVALUE DUP1 ISZERO PUSH2 0x390 JUMPI PUSH0 DUP1 REVERT JUMPDEST POP PUSH2 0x3AB PUSH1 0x4 DUP1 CALLDATASIZE SUB DUP2 ADD SWAP1 PUSH2 0x3A6 SWAP2 SWAP1 PUSH2 0x28D5 JUMP JUMPDEST PUSH2 0xB47 JUMP JUMPDEST PUSH1 0x40 MLOAD PUSH2 0x3B8 SWAP2 SWAP1 PUSH2 0x2608 JUMP JUMPDEST PUSH1 0x40 MLOAD DUP1 SWAP2 SUB SWAP1 RETURN JUMPDEST CALLVALUE DUP1 ISZERO PUSH2 0x3CC JUMPI PUSH0 DUP1 REVERT JUMPDEST POP PUSH2 0x3E7 PUSH1 0x4 DUP1 CALLDATASIZE SUB DUP2 ADD SWAP1 PUSH2 0x3E2 SWAP2 SWAP1 PUSH2 0x273F JUMP JUMPDEST PUSH2 0xB71 JUMP JUMPDEST STOP JUMPDEST CALLVALUE DUP1 ISZERO PUSH2 0x3F4 JUMPI PUSH0 DUP1 REVERT JUMPDEST POP PUSH2 0x40F PUSH1 0x4 DUP1 CALLDATASIZE SUB DUP2 ADD SWAP1 PUSH2 0x40A SWAP2 SWAP1 PUSH2 0x273F JUMP JUMPDEST PUSH2 0xC18 JUMP JUMPDEST STOP JUMPDEST CALLVALUE DUP1 ISZERO PUSH2 0x41C JUMPI PUSH0 DUP1 REVERT JUMPDEST POP PUSH2 0x437 PUSH1 0x4 DUP1 CALLDATASIZE SUB DUP2 ADD SWAP1 PUSH2 0x432 SWAP2 SWAP1 PUSH2 0x2900 JUMP JUMPDEST PUSH2 0xC8A JUMP JUMPDEST STOP JUMPDEST PUSH2 0x453 PUSH1 0x4 DUP1 CALLDATASIZE SUB DUP2 ADD SWAP1 PUSH2 0x44E SWAP2 SWAP1 PUSH2 0x293E JUMP JUMPDEST PUSH2 0xCAC JUMP JUMPDEST STOP JUMPDEST CALLVALUE DUP1 ISZERO PUSH2 0x460 JUMPI PUSH0 DUP1 REVERT JUMPDEST POP PUSH2 0x47B PUSH1 0x4 DUP1 CALLDATASIZE SUB DUP2 ADD SWAP1 PUSH2 0x476 SWAP2 SWAP1 PUSH2 0x2900 JUMP JUMPDEST PUSH2 0xF9F JUMP JUMPDEST STOP JUMPDEST CALLVALUE DUP1 ISZERO PUSH2 0x488 JUMPI PUSH0 DUP1 REVERT JUMPDEST POP PUSH2 0x4A3 PUSH1 0x4 DUP1 CALLDATASIZE SUB DUP2 ADD SWAP1 PUSH2 0x49E SWAP2 SWAP1 PUSH2 0x273F JUMP JUMPDEST PUSH2 0x101A JUMP JUMPDEST PUSH1 0x40 MLOAD PUSH2 0x4B0 SWAP2 SWAP1 PUSH2 0x286A JUMP JUMPDEST PUSH1 0x40 MLOAD DUP1 SWAP2 SUB SWAP1 RETURN JUMPDEST CALLVALUE DUP1 ISZERO PUSH2 0x4C4 JUMPI PUSH0 DUP1 REVERT JUMPDEST POP PUSH2 0x4CD PUSH2 0x102F JUMP JUMPDEST STOP JUMPDEST CALLVALUE DUP1 ISZERO PUSH2 0x4DA JUMPI PUSH0 DUP1 REVERT JUMPDEST POP PUSH2 0x4E3 PUSH2 0x10FE JUMP JUMPDEST STOP JUMPDEST CALLVALUE DUP1 ISZERO PUSH2 0x4F0 JUMPI PUSH0 DUP1 REVERT JUMPDEST POP PUSH2 0x50B PUSH1 0x4 DUP1 CALLDATASIZE SUB DUP2 ADD SWAP1 PUSH2 0x506 SWAP2 SWAP1 PUSH2 0x273F JUMP JUMPDEST PUSH2 0x1133 JUMP JUMPDEST STOP JUMPDEST CALLVALUE DUP1 ISZERO PUSH2 0x518 JUMPI PUSH0 DUP1 REVERT JUMPDEST POP PUSH2 0x533 PUSH1 0x4 DUP1 CALLDATASIZE SUB DUP2 ADD SWAP1 PUSH2 0x52E SWAP2 SWAP1 PUSH2 0x273F JUMP JUMPDEST PUSH2 0x11A5 JUMP JUMPDEST PUSH1 0x40 MLOAD PUSH2 0x540 SWAP2 SWAP1 PUSH2 0x286A JUMP JUMPDEST PUSH1 0x40 MLOAD DUP1 SWAP2 SUB SWAP1 RETURN JUMPDEST CALLVALUE DUP1 ISZERO PUSH2 0x554 JUMPI PUSH0 DUP1 REVERT JUMPDEST POP PUSH2 0x56F PUSH1 0x4 DUP1 CALLDATASIZE SUB DUP2 ADD SWAP1 PUSH2 0x56A SWAP2 SWAP1 PUSH2 0x2969 JUMP JUMPDEST PUSH2 0x11BA JUMP JUMPDEST STOP JUMPDEST CALLVALUE DUP1 ISZERO PUSH2 0x57C JUMPI PUSH0 DUP1 REVERT JUMPDEST POP PUSH2 0x585 PUSH2 0x1440 JUMP JUMPDEST PUSH1 0x40 MLOAD PUSH2 0x592 SWAP2 SWAP1 PUSH2 0x2892 JUMP JUMPDEST PUSH1 0x40 MLOAD DUP1 SWAP2 SUB SWAP1 RETURN JUMPDEST PUSH2 0x5B5 PUSH1 0x4 DUP1 CALLDATASIZE SUB DUP2 ADD SWAP1 PUSH2 0x5B0 SWAP2 SWAP1 PUSH2 0x2B7A JUMP JUMPDEST PUSH2 0x1463 JUMP JUMPDEST STOP JUMPDEST CALLVALUE DUP1 ISZERO PUSH2 0x5C2 JUMPI PUSH0 DUP1 REVERT JUMPDEST POP PUSH2 0x5CB PUSH2 0x1482 JUMP JUMPDEST PUSH1 0x40 MLOAD PUSH2 0x5D8 SWAP2 SWAP1 PUSH2 0x2608 JUMP JUMPDEST PUSH1 0x40 MLOAD DUP1 SWAP2 SUB SWAP1 RETURN JUMPDEST CALLVALUE DUP1 ISZERO PUSH2 0x5EC JUMPI PUSH0 DUP1 REVERT JUMPDEST POP PUSH2 0x607 PUSH1 0x4 DUP1 CALLDATASIZE SUB DUP2 ADD SWAP1 PUSH2 0x602 SWAP2 SWAP1 PUSH2 0x273F JUMP JUMPDEST PUSH2 0x14B3 JUMP JUMPDEST STOP JUMPDEST CALLVALUE DUP1 ISZERO PUSH2 0x614 JUMPI PUSH0 DUP1 REVERT JUMPDEST POP PUSH2 0x61D PUSH2 0x1525 JUMP JUMPDEST PUSH1 0x40 MLOAD PUSH2 0x62A SWAP2 SWAP1 PUSH2 0x26CC JUMP JUMPDEST PUSH1 0x40 MLOAD DUP1 SWAP2 SUB SWAP1 RETURN JUMPDEST CALLVALUE DUP1 ISZERO PUSH2 0x63E JUMPI PUSH0 DUP1 REVERT JUMPDEST POP PUSH2 0x647 PUSH2 0x1547 JUMP JUMPDEST PUSH1 0x40 MLOAD PUSH2 0x654 SWAP2 SWAP1 PUSH2 0x2608 JUMP JUMPDEST PUSH1 0x40 MLOAD DUP1 SWAP2 SUB SWAP1 RETURN JUMPDEST CALLVALUE DUP1 ISZERO PUSH2 0x668 JUMPI PUSH0 DUP1 REVERT JUMPDEST POP PUSH2 0x683 PUSH1 0x4 DUP1 CALLDATASIZE SUB DUP2 ADD SWAP1 PUSH2 0x67E SWAP2 SWAP1 PUSH2 0x273F JUMP JUMPDEST PUSH2 0x156B JUMP JUMPDEST STOP JUMPDEST CALLVALUE DUP1 ISZERO PUSH2 0x690 JUMPI PUSH0 DUP1 REVERT JUMPDEST POP PUSH2 0x699 PUSH2 0x1613 JUMP JUMPDEST PUSH1 0x40 MLOAD PUSH2 0x6A6 SWAP2 SWAP1 PUSH2 0x286A JUMP JUMPDEST PUSH1 0x40 MLOAD DUP1 SWAP2 SUB SWAP1 RETURN JUMPDEST CALLVALUE DUP1 ISZERO PUSH2 0x6BA JUMPI PUSH0 DUP1 REVERT JUMPDEST POP PUSH2 0x6C3 PUSH2 0x1619 JUMP JUMPDEST STOP JUMPDEST CALLVALUE DUP1 ISZERO PUSH2 0x6D0 JUMPI PUSH0 DUP1 REVERT JUMPDEST POP PUSH2 0x6EB PUSH1 0x4 DUP1 CALLDATASIZE SUB DUP2 ADD SWAP1 PUSH2 0x6E6 SWAP2 SWAP1 PUSH2 0x2900 JUMP JUMPDEST PUSH2 0x164E JUMP JUMPDEST PUSH1 0x40 MLOAD PUSH2 0x6F8 SWAP2 SWAP1 PUSH2 0x26CC JUMP JUMPDEST PUSH1 0x40 MLOAD DUP1 SWAP2 SUB SWAP1 RETURN JUMPDEST CALLVALUE DUP1 ISZERO PUSH2 0x70C JUMPI PUSH0 DUP1 REVERT JUMPDEST POP PUSH2 0x715 PUSH2 0x16BF JUMP JUMPDEST PUSH1 0x40 MLOAD PUSH2 0x722 SWAP2 SWAP1 PUSH2 0x2608 JUMP JUMPDEST PUSH1 0x40 MLOAD DUP1 SWAP2 SUB SWAP1 RETURN JUMPDEST CALLVALUE DUP1 ISZERO PUSH2 0x736 JUMPI PUSH0 DUP1 REVERT JUMPDEST POP PUSH2 0x73F PUSH2 0x16C5 JUMP JUMPDEST STOP JUMPDEST CALLVALUE DUP1 ISZERO PUSH2 0x74C JUMPI PUSH0 DUP1 REVERT JUMPDEST POP PUSH2 0x755 PUSH2 0x18CB JUMP JUMPDEST PUSH1 0x40 MLOAD PUSH2 0x762 SWAP2 SWAP1 PUSH2 0x2C34 JUMP JUMPDEST PUSH1 0x40 MLOAD DUP1 SWAP2 SUB SWAP1 RETURN JUMPDEST CALLVALUE DUP1 ISZERO PUSH2 0x776 JUMPI PUSH0 DUP1 REVERT JUMPDEST POP PUSH2 0x77F PUSH2 0x1904 JUMP JUMPDEST PUSH1 0x40 MLOAD PUSH2 0x78C SWAP2 SWAP1 PUSH2 0x286A JUMP JUMPDEST PUSH1 0x40 MLOAD DUP1 SWAP2 SUB SWAP1 RETURN JUMPDEST CALLVALUE DUP1 ISZERO PUSH2 0x7A0 JUMPI PUSH0 DUP1 REVERT JUMPDEST POP PUSH2 0x7A9 PUSH2 0x190A JUMP JUMPDEST PUSH1 0x40 MLOAD PUSH2 0x7B6 SWAP2 SWAP1 PUSH2 0x286A JUMP JUMPDEST PUSH1 0x40 MLOAD DUP1 SWAP2 SUB SWAP1 RETURN JUMPDEST CALLVALUE DUP1 ISZERO PUSH2 0x7CA JUMPI PUSH0 DUP1 REVERT JUMPDEST POP PUSH2 0x7E5 PUSH1 0x4 DUP1 CALLDATASIZE SUB DUP2 ADD SWAP1 PUSH2 0x7E0 SWAP2 SWAP1 PUSH2 0x2900 JUMP JUMPDEST PUSH2 0x1910 JUMP JUMPDEST STOP JUMPDEST CALLVALUE DUP1 ISZERO PUSH2 0x7F2 JUMPI PUSH0 DUP1 REVERT JUMPDEST POP PUSH2 0x80D PUSH1 0x4 DUP1 CALLDATASIZE SUB DUP2 ADD SWAP1 PUSH2 0x808 SWAP2 SWAP1 PUSH2 0x293E JUMP JUMPDEST PUSH2 0x1932 JUMP JUMPDEST STOP JUMPDEST CALLVALUE DUP1 ISZERO PUSH2 0x81A JUMPI PUSH0 DUP1 REVERT JUMPDEST POP PUSH2 0x823 PUSH2 0x1980 JUMP JUMPDEST PUSH1 0x40 MLOAD PUSH2 0x830 SWAP2 SWAP1 PUSH2 0x2608 JUMP JUMPDEST PUSH1 0x40 MLOAD DUP1 SWAP2 SUB SWAP1 RETURN JUMPDEST CALLVALUE DUP1 ISZERO PUSH2 0x844 JUMPI PUSH0 DUP1 REVERT JUMPDEST POP PUSH2 0x85F PUSH1 0x4 DUP1 CALLDATASIZE SUB DUP2 ADD SWAP1 PUSH2 0x85A SWAP2 SWAP1 PUSH2 0x273F JUMP JUMPDEST PUSH2 0x19A4 JUMP JUMPDEST STOP JUMPDEST CALLVALUE DUP1 ISZERO PUSH2 0x86C JUMPI PUSH0 DUP1 REVERT JUMPDEST POP PUSH2 0x875 PUSH2 0x1A16 JUMP JUMPDEST PUSH1 0x40 MLOAD PUSH2 0x882 SWAP2 SWAP1 PUSH2 0x2608 JUMP JUMPDEST PUSH1 0x40 MLOAD DUP1 SWAP2 SUB SWAP1 RETURN JUMPDEST CALLVALUE DUP1 ISZERO PUSH2 0x896 JUMPI PUSH0 DUP1 REVERT JUMPDEST POP PUSH2 0x89F PUSH2 0x1A3A JUMP JUMPDEST PUSH1 0x40 MLOAD PUSH2 0x8AC SWAP2 SWAP1 PUSH2 0x2CAF JUMP JUMPDEST PUSH1 0x40 MLOAD DUP1 SWAP2 SUB SWAP1 RETURN JUMPDEST PUSH32 0x60C5CFBA52C4B504F7C252E725C10AEA67BFD5E3972BD12EA427F6A9742E6DBE DUP2 JUMP JUMPDEST PUSH0 PUSH32 0x7965DB0B00000000000000000000000000000000000000000000000000000000 PUSH28 0xFFFFFFFFFFFFFFFFFFFFFFFFFFFFFFFFFFFFFFFFFFFFFFFFFFFFFFFF NOT AND DUP3 PUSH28 0xFFFFFFFFFFFFFFFFFFFFFFFFFFFFFFFFFFFFFFFFFFFFFFFFFFFFFFFF NOT AND EQ DUP1 PUSH2 0x94B JUMPI POP PUSH2 0x94A DUP3 PUSH2 0x1A5F JUMP JUMPDEST JUMPDEST SWAP1 POP SWAP2 SWAP1 POP JUMP JUMPDEST PUSH1 0x8 PUSH1 0x20 MSTORE DUP1 PUSH0 MSTORE PUSH1 0x40 PUSH0 KECCAK256 PUSH0 SWAP2 POP SLOAD SWAP1 PUSH2 0x100 EXP SWAP1 DIV PUSH1 0xFF AND DUP2 JUMP JUMPDEST PUSH0 DUP1 SHL PUSH2 0x97B DUP2 PUSH2 0x1AC8 JUMP JUMPDEST PUSH1 0x40 MLOAD PUSH1 0x20 ADD PUSH2 0x98A SWAP1 PUSH2 0x2D1C JUMP JUMPDEST PUSH1 0x40 MLOAD PUSH1 0x20 DUP2 DUP4 SUB SUB DUP2 MSTORE SWAP1 PUSH1 0x40 MSTORE DUP1 MLOAD SWAP1 PUSH1 0x20 ADD KECCAK256 DUP4 DUP4 PUSH1 0x40 MLOAD PUSH1 0x20 ADD PUSH2 0x9B3 SWAP3 SWAP2 SWAP1 PUSH2 0x2D54 JUMP JUMPDEST PUSH1 0x40 MLOAD PUSH1 0x20 DUP2 DUP4 SUB SUB DUP2 MSTORE SWAP1 PUSH1 0x40 MSTORE DUP1 MLOAD SWAP1 PUSH1 0x20 ADD KECCAK256 SUB PUSH2 0x9DA JUMPI DUP4 PUSH1 0x1 DUP2 SWAP1 SSTORE POP PUSH2 0xAD5 JUMP JUMPDEST PUSH1 0x40 MLOAD PUSH1 0x20 ADD PUSH2 0x9E9 SWAP1 PUSH2 0x2DB6 JUMP JUMPDEST PUSH1 0x40 MLOAD PUSH1 0x20 DUP2 DUP4 SUB SUB DUP2 MSTORE SWAP1 PUSH1 0x40 MSTORE DUP1 MLOAD SWAP1 PUSH1 0x20 ADD KECCAK256 DUP4 DUP4 PUSH1 0x40 MLOAD PUSH1 0x20 ADD PUSH2 0xA12 SWAP3 SWAP2 SWAP1 PUSH2 0x2D54 JUMP JUMPDEST PUSH1 0x40 MLOAD PUSH1 0x20 DUP2 DUP4 SUB SUB DUP2 MSTORE SWAP1 PUSH1 0x40 MSTORE DUP1 MLOAD SWAP1 PUSH1 0x20 ADD KECCAK256 SUB PUSH2 0xA39 JUMPI DUP4 PUSH1 0x2 DUP2 SWAP1 SSTORE POP PUSH2 0xAD4 JUMP JUMPDEST PUSH1 0x40 MLOAD PUSH1 0x20 ADD PUSH2 0xA48 SWAP1 PUSH2 0x2E14 JUMP JUMPDEST PUSH1 0x40 MLOAD PUSH1 0x20 DUP2 DUP4 SUB SUB DUP2 MSTORE SWAP1 PUSH1 0x40 MSTORE DUP1 MLOAD SWAP1 PUSH1 0x20 ADD KECCAK256 DUP4 DUP4 PUSH1 0x40 MLOAD PUSH1 0x20 ADD PUSH2 0xA71 SWAP3 SWAP2 SWAP1 PUSH2 0x2D54 JUMP JUMPDEST PUSH1 0x40 MLOAD PUSH1 0x20 DUP2 DUP4 SUB SUB DUP2 MSTORE SWAP1 PUSH1 0x40 MSTORE DUP1 MLOAD SWAP1 PUSH1 0x20 ADD KECCAK256 SUB PUSH2 0xA98 JUMPI DUP4 PUSH1 0x3 DUP2 SWAP1 SSTORE POP PUSH2 0xAD3 JUMP JUMPDEST PUSH1 0x40 MLOAD PUSH32 0x8C379A000000000000000000000000000000000000000000000000000000000 DUP2 MSTORE PUSH1 0x4 ADD PUSH2 0xACA SWAP1 PUSH2 0x2E72 JUMP JUMPDEST PUSH1 0x40 MLOAD DUP1 SWAP2 SUB SWAP1 REVERT JUMPDEST JUMPDEST JUMPDEST PUSH32 0xEB965A01DCF45C018906EFC8417EE684FC308FE125C2C16698E677FD058BFE48 DUP5 DUP5 DUP5 PUSH1 0x40 MLOAD PUSH2 0xB08 SWAP4 SWAP3 SWAP2 SWAP1 PUSH2 0x2EBC JUMP JUMPDEST PUSH1 0x40 MLOAD DUP1 SWAP2 SUB SWAP1 LOG1 POP POP POP POP JUMP JUMPDEST PUSH1 0x2 SLOAD DUP2 JUMP JUMPDEST PUSH1 0x4 SLOAD DUP2 JUMP JUMPDEST PUSH1 0xA PUSH0 SWAP1 SLOAD SWAP1 PUSH2 0x100 EXP SWAP1 DIV PUSH20 0xFFFFFFFFFFFFFFFFFFFFFFFFFFFFFFFFFFFFFFFF AND DUP2 JUMP JUMPDEST PUSH0 DUP1 PUSH2 0xB51 PUSH2 0x1ADC JUMP JUMPDEST SWAP1 POP DUP1 PUSH0 ADD PUSH0 DUP5 DUP2 MSTORE PUSH1 0x20 ADD SWAP1 DUP2 MSTORE PUSH1 0x20 ADD PUSH0 KECCAK256 PUSH1 0x1 ADD SLOAD SWAP2 POP POP SWAP2 SWAP1 POP JUMP JUMPDEST PUSH0 DUP1 SHL PUSH2 0xB7D DUP2 PUSH2 0x1AC8 JUMP JUMPDEST PUSH0 PUSH1 0x8 PUSH0 DUP5 PUSH20 0xFFFFFFFFFFFFFFFFFFFFFFFFFFFFFFFFFFFFFFFF AND PUSH20 0xFFFFFFFFFFFFFFFFFFFFFFFFFFFFFFFFFFFFFFFF AND DUP2 MSTORE PUSH1 0x20 ADD SWAP1 DUP2 MSTORE PUSH1 0x20 ADD PUSH0 KECCAK256 PUSH0 PUSH2 0x100 EXP DUP2 SLOAD DUP2 PUSH1 0xFF MUL NOT AND SWAP1 DUP4 ISZERO ISZERO MUL OR SWAP1 SSTORE POP DUP2 PUSH20 0xFFFFFFFFFFFFFFFFFFFFFFFFFFFFFFFFFFFFFFFF AND PUSH32 0x535611FB62FA2A833988F283B779E417E996813E44046F521D76C17B5943B08C PUSH1 0x40 MLOAD PUSH1 0x40 MLOAD DUP1 SWAP2 SUB SWAP1 LOG2 POP POP JUMP JUMPDEST PUSH0 DUP1 SHL PUSH2 0xC24 DUP2 PUSH2 0x1AC8 JUMP JUMPDEST PUSH2 0xC4E PUSH32 0x60C5CFBA52C4B504F7C252E725C10AEA67BFD5E3972BD12EA427F6A9742E6DBE DUP4 PUSH2 0x1B03 JUMP JUMPDEST POP PUSH32 0xA22F826CFA669B4680F0CA673F9E9021392CFE223EF797FAF4005F9C8DC4D14B DUP3 PUSH1 0x40 MLOAD PUSH2 0xC7E SWAP2 SWAP1 PUSH2 0x2892 JUMP JUMPDEST PUSH1 0x40 MLOAD DUP1 SWAP2 SUB SWAP1 LOG1 POP POP JUMP JUMPDEST PUSH2 0xC93 DUP3 PUSH2 0xB47 JUMP JUMPDEST PUSH2 0xC9C DUP2 PUSH2 0x1AC8 JUMP JUMPDEST PUSH2 0xCA6 DUP4 DUP4 PUSH2 0x1BFB JUMP JUMPDEST POP POP POP POP JUMP JUMPDEST PUSH2 0xCB4 PUSH2 0x1CF3 JUMP JUMPDEST PUSH1 0x8 PUSH0 CALLER PUSH20 0xFFFFFFFFFFFFFFFFFFFFFFFFFFFFFFFFFFFFFFFF AND PUSH20 0xFFFFFFFFFFFFFFFFFFFFFFFFFFFFFFFFFFFFFFFF AND DUP2 MSTORE PUSH1 0x20 ADD SWAP1 DUP2 MSTORE PUSH1 0x20 ADD PUSH0 KECCAK256 PUSH0 SWAP1 SLOAD SWAP1 PUSH2 0x100 EXP SWAP1 DIV PUSH1 0xFF AND PUSH2 0xD3D JUMPI PUSH1 0x40 MLOAD PUSH32 0x8C379A000000000000000000000000000000000000000000000000000000000 DUP2 MSTORE PUSH1 0x4 ADD PUSH2 0xD34 SWAP1 PUSH2 0x2F36 JUMP JUMPDEST PUSH1 0x40 MLOAD DUP1 SWAP2 SUB SWAP1 REVERT JUMPDEST PUSH0 PUSH2 0xD68 PUSH32 0xB165298935924F540E4181C03493A5D686C54A0AAEB3F6216DE85B7FFBBA7738 CALLER PUSH2 0x164E JUMP JUMPDEST ISZERO PUSH2 0xD82 JUMPI PUSH1 0x1 SLOAD DUP3 PUSH2 0xD7B SWAP2 SWAP1 PUSH2 0x2F81 JUMP JUMPDEST SWAP1 POP PUSH2 0xDD8 JUMP JUMPDEST PUSH2 0xDAC PUSH32 0x60C5CFBA52C4B504F7C252E725C10AEA67BFD5E3972BD12EA427F6A9742E6DBE CALLER PUSH2 0x164E JUMP JUMPDEST ISZERO PUSH2 0xDC6 JUMPI PUSH1 0x2 SLOAD DUP3 PUSH2 0xDBF SWAP2 SWAP1 PUSH2 0x2F81 JUMP JUMPDEST SWAP1 POP PUSH2 0xDD7 JUMP JUMPDEST PUSH1 0x3 SLOAD DUP3 PUSH2 0xDD4 SWAP2 SWAP1 PUSH2 0x2F81 JUMP JUMPDEST SWAP1 POP JUMPDEST JUMPDEST DUP1 CALLVALUE EQ PUSH2 0xE1A JUMPI PUSH1 0x40 MLOAD PUSH32 0x8C379A000000000000000000000000000000000000000000000000000000000 DUP2 MSTORE PUSH1 0x4 ADD PUSH2 0xE11 SWAP1 PUSH2 0x300C JUMP JUMPDEST PUSH1 0x40 MLOAD DUP1 SWAP2 SUB SWAP1 REVERT JUMPDEST PUSH1 0x4 SLOAD DUP3 PUSH1 0x6 PUSH0 CALLER PUSH20 0xFFFFFFFFFFFFFFFFFFFFFFFFFFFFFFFFFFFFFFFF AND PUSH20 0xFFFFFFFFFFFFFFFFFFFFFFFFFFFFFFFFFFFFFFFF AND DUP2 MSTORE PUSH1 0x20 ADD SWAP1 DUP2 MSTORE PUSH1 0x20 ADD PUSH0 KECCAK256 SLOAD PUSH2 0xE66 SWAP2 SWAP1 PUSH2 0x302A JUMP JUMPDEST GT ISZERO PUSH2 0xEA7 JUMPI PUSH1 0x40 MLOAD PUSH32 0x8C379A000000000000000000000000000000000000000000000000000000000 DUP2 MSTORE PUSH1 0x4 ADD PUSH2 0xE9E SWAP1 PUSH2 0x30A7 JUMP JUMPDEST PUSH1 0x40 MLOAD DUP1 SWAP2 SUB SWAP1 REVERT JUMPDEST DUP2 PUSH1 0x6 PUSH0 CALLER PUSH20 0xFFFFFFFFFFFFFFFFFFFFFFFFFFFFFFFFFFFFFFFF AND PUSH20 0xFFFFFFFFFFFFFFFFFFFFFFFFFFFFFFFFFFFFFFFF AND DUP2 MSTORE PUSH1 0x20 ADD SWAP1 DUP2 MSTORE PUSH1 0x20 ADD PUSH0 KECCAK256 PUSH0 DUP3 DUP3 SLOAD PUSH2 0xEF3 SWAP2 SWAP1 PUSH2 0x302A JUMP JUMPDEST SWAP3 POP POP DUP2 SWAP1 SSTORE POP DUP2 PUSH1 0x7 PUSH0 CALLER PUSH20 0xFFFFFFFFFFFFFFFFFFFFFFFFFFFFFFFFFFFFFFFF AND PUSH20 0xFFFFFFFFFFFFFFFFFFFFFFFFFFFFFFFFFFFFFFFF AND DUP2 MSTORE PUSH1 0x20 ADD SWAP1 DUP2 MSTORE PUSH1 0x20 ADD PUSH0 KECCAK256 PUSH0 DUP3 DUP3 SLOAD PUSH2 0xF46 SWAP2 SWAP1 PUSH2 0x302A JUMP JUMPDEST SWAP3 POP POP DUP2 SWAP1 SSTORE POP CALLER PUSH20 0xFFFFFFFFFFFFFFFFFFFFFFFFFFFFFFFFFFFFFFFF AND PUSH32 0x8F28852646C20CC973D3A8218F7EEFED58C25C909F78F0265AF4818C3D4DC271 DUP4 PUSH1 0x40 MLOAD PUSH2 0xF93 SWAP2 SWAP1 PUSH2 0x286A JUMP JUMPDEST PUSH1 0x40 MLOAD DUP1 SWAP2 SUB SWAP1 LOG2 POP POP JUMP JUMPDEST PUSH2 0xFA7 PUSH2 0x1D34 JUMP JUMPDEST PUSH20 0xFFFFFFFFFFFFFFFFFFFFFFFFFFFFFFFFFFFFFFFF AND DUP2 PUSH20 0xFFFFFFFFFFFFFFFFFFFFFFFFFFFFFFFFFFFFFFFF AND EQ PUSH2 0x100B JUMPI PUSH1 0x40 MLOAD PUSH32 0x6697B23200000000000000000000000000000000000000000000000000000000 DUP2 MSTORE PUSH1 0x4 ADD PUSH1 0x40 MLOAD DUP1 SWAP2 SUB SWAP1 REVERT JUMPDEST PUSH2 0x1015 DUP3 DUP3 PUSH2 0x1B03 JUMP JUMPDEST POP POP POP JUMP JUMPDEST PUSH1 0x7 PUSH1 0x20 MSTORE DUP1 PUSH0 MSTORE PUSH1 0x40 PUSH0 KECCAK256 PUSH0 SWAP2 POP SWAP1 POP SLOAD DUP2 JUMP JUMPDEST PUSH0 DUP1 SHL PUSH2 0x103B DUP2 PUSH2 0x1AC8 JUMP JUMPDEST PUSH0 SELFBALANCE SWAP1 POP PUSH0 DUP1 SLOAD SWAP1 PUSH2 0x100 EXP SWAP1 DIV PUSH20 0xFFFFFFFFFFFFFFFFFFFFFFFFFFFFFFFFFFFFFFFF AND PUSH20 0xFFFFFFFFFFFFFFFFFFFFFFFFFFFFFFFFFFFFFFFF AND PUSH2 0x8FC DUP3 SWAP1 DUP2 ISZERO MUL SWAP1 PUSH1 0x40 MLOAD PUSH0 PUSH1 0x40 MLOAD DUP1 DUP4 SUB DUP2 DUP6 DUP9 DUP9 CALL SWAP4 POP POP POP POP ISZERO DUP1 ISZERO PUSH2 0x10A1 JUMPI RETURNDATASIZE PUSH0 DUP1 RETURNDATACOPY RETURNDATASIZE PUSH0 REVERT JUMPDEST POP PUSH32 0xEAFF4B37086828766AD3268786972C0CD24259D4C87A80F9D3963A3C3D999B0D PUSH0 DUP1 SLOAD SWAP1 PUSH2 0x100 EXP SWAP1 DIV PUSH20 0xFFFFFFFFFFFFFFFFFFFFFFFFFFFFFFFFFFFFFFFF AND DUP3 PUSH1 0x40 MLOAD PUSH2 0x10F2 SWAP3 SWAP2 SWAP1 PUSH2 0x30C5 JUMP JUMPDEST PUSH1 0x40 MLOAD DUP1 SWAP2 SUB SWAP1 LOG1 POP POP JUMP JUMPDEST PUSH32 0x65D7A28E3265B37A6474929F336521B332C1681B933F6CB9F3376673440D862A PUSH2 0x1128 DUP2 PUSH2 0x1AC8 JUMP JUMPDEST PUSH2 0x1130 PUSH2 0x1D3B JUMP JUMPDEST POP JUMP JUMPDEST PUSH0 DUP1 SHL PUSH2 0x113F DUP2 PUSH2 0x1AC8 JUMP JUMPDEST PUSH2 0x1169 PUSH32 0xB165298935924F540E4181C03493A5D686C54A0AAEB3F6216DE85B7FFBBA7738 DUP4 PUSH2 0x1B03 JUMP JUMPDEST POP PUSH32 0xBA0013628CCB89AF5BB18EDF764D3A7B35C07B894848B8E6FD3434719DE39C7D DUP3 PUSH1 0x40 MLOAD PUSH2 0x1199 SWAP2 SWAP1 PUSH2 0x2892 JUMP JUMPDEST PUSH1 0x40 MLOAD DUP1 SWAP2 SUB SWAP1 LOG1 POP POP JUMP JUMPDEST PUSH1 0x6 PUSH1 0x20 MSTORE DUP1 PUSH0 MSTORE PUSH1 0x40 PUSH0 KECCAK256 PUSH0 SWAP2 POP SWAP1 POP SLOAD DUP2 JUMP JUMPDEST PUSH0 PUSH2 0x11C3 PUSH2 0x1DA9 JUMP JUMPDEST SWAP1 POP PUSH0 DUP2 PUSH0 ADD PUSH1 0x8 SWAP1 SLOAD SWAP1 PUSH2 0x100 EXP SWAP1 DIV PUSH1 0xFF AND ISZERO SWAP1 POP PUSH0 DUP3 PUSH0 ADD PUSH0 SWAP1 SLOAD SWAP1 PUSH2 0x100 EXP SWAP1 DIV PUSH8 0xFFFFFFFFFFFFFFFF AND SWAP1 POP PUSH0 DUP1 DUP3 PUSH8 0xFFFFFFFFFFFFFFFF AND EQ DUP1 ISZERO PUSH2 0x120B JUMPI POP DUP3 JUMPDEST SWAP1 POP PUSH0 PUSH1 0x1 DUP4 PUSH8 0xFFFFFFFFFFFFFFFF AND EQ DUP1 ISZERO PUSH2 0x123E JUMPI POP PUSH0 ADDRESS PUSH20 0xFFFFFFFFFFFFFFFFFFFFFFFFFFFFFFFFFFFFFFFF AND EXTCODESIZE EQ JUMPDEST SWAP1 POP DUP2 ISZERO DUP1 ISZERO PUSH2 0x124C JUMPI POP DUP1 ISZERO JUMPDEST ISZERO PUSH2 0x1283 JUMPI PUSH1 0x40 MLOAD PUSH32 0xF92EE8A900000000000000000000000000000000000000000000000000000000 DUP2 MSTORE PUSH1 0x4 ADD PUSH1 0x40 MLOAD DUP1 SWAP2 SUB SWAP1 REVERT JUMPDEST PUSH1 0x1 DUP6 PUSH0 ADD PUSH0 PUSH2 0x100 EXP DUP2 SLOAD DUP2 PUSH8 0xFFFFFFFFFFFFFFFF MUL NOT AND SWAP1 DUP4 PUSH8 0xFFFFFFFFFFFFFFFF AND MUL OR SWAP1 SSTORE POP DUP4 ISZERO PUSH2 0x12D0 JUMPI PUSH1 0x1 DUP6 PUSH0 ADD PUSH1 0x8 PUSH2 0x100 EXP DUP2 SLOAD DUP2 PUSH1 0xFF MUL NOT AND SWAP1 DUP4 ISZERO ISZERO MUL OR SWAP1 SSTORE POP JUMPDEST PUSH2 0x12D8 PUSH2 0x1DD0 JUMP JUMPDEST PUSH2 0x12E0 PUSH2 0x1DE2 JUMP JUMPDEST PUSH2 0x12E8 PUSH2 0x1DEC JUMP JUMPDEST PUSH2 0x12F3 DUP16 DUP16 DUP16 PUSH2 0x1DF6 JUMP JUMPDEST CALLER PUSH0 DUP1 PUSH2 0x100 EXP DUP2 SLOAD DUP2 PUSH20 0xFFFFFFFFFFFFFFFFFFFFFFFFFFFFFFFFFFFFFFFF MUL NOT AND SWAP1 DUP4 PUSH20 0xFFFFFFFFFFFFFFFFFFFFFFFFFFFFFFFFFFFFFFFF AND MUL OR SWAP1 SSTORE POP DUP12 PUSH1 0x9 PUSH0 PUSH2 0x100 EXP DUP2 SLOAD DUP2 PUSH20 0xFFFFFFFFFFFFFFFFFFFFFFFFFFFFFFFFFFFFFFFF MUL NOT AND SWAP1 DUP4 PUSH20 0xFFFFFFFFFFFFFFFFFFFFFFFFFFFFFFFFFFFFFFFF AND MUL OR SWAP1 SSTORE POP DUP11 PUSH1 0xA PUSH0 PUSH2 0x100 EXP DUP2 SLOAD DUP2 PUSH20 0xFFFFFFFFFFFFFFFFFFFFFFFFFFFFFFFFFFFFFFFF MUL NOT AND SWAP1 DUP4 PUSH20 0xFFFFFFFFFFFFFFFFFFFFFFFFFFFFFFFFFFFFFFFF AND MUL OR SWAP1 SSTORE POP DUP10 PUSH1 0x1 DUP2 SWAP1 SSTORE POP DUP9 PUSH1 0x2 DUP2 SWAP1 SSTORE POP DUP8 PUSH1 0x3 DUP2 SWAP1 SSTORE POP DUP7 PUSH1 0x4 DUP2 SWAP1 SSTORE POP DUP6 PUSH1 0x5 DUP2 SWAP1 SSTORE POP DUP4 ISZERO PUSH2 0x142F JUMPI PUSH0 DUP6 PUSH0 ADD PUSH1 0x8 PUSH2 0x100 EXP DUP2 SLOAD DUP2 PUSH1 0xFF MUL NOT AND SWAP1 DUP4 ISZERO ISZERO MUL OR SWAP1 SSTORE POP PUSH32 0xC7F505B2F371AE2175EE4913F4499E1F2633A7B5936321EED1CDAEB6115181D2 PUSH1 0x1 PUSH1 0x40 MLOAD PUSH2 0x1426 SWAP2 SWAP1 PUSH2 0x3138 JUMP JUMPDEST PUSH1 0x40 MLOAD DUP1 SWAP2 SUB SWAP1 LOG1 JUMPDEST POP POP POP POP POP POP POP POP POP POP POP POP POP POP POP JUMP JUMPDEST PUSH0 DUP1 SLOAD SWAP1 PUSH2 0x100 EXP SWAP1 DIV PUSH20 0xFFFFFFFFFFFFFFFFFFFFFFFFFFFFFFFFFFFFFFFF AND DUP2 JUMP JUMPDEST PUSH2 0x146B PUSH2 0x1E5E JUMP JUMPDEST PUSH2 0x1474 DUP3 PUSH2 0x1F44 JUMP JUMPDEST PUSH2 0x147E DUP3 DUP3 PUSH2 0x1F72 JUMP JUMPDEST POP POP JUMP JUMPDEST PUSH0 PUSH2 0x148B PUSH2 0x2090 JUMP JUMPDEST PUSH32 0x360894A13BA1A3210667C828492DB98DCA3E2076CC3735A920A3CA505D382BBC PUSH0 SHL SWAP1 POP SWAP1 JUMP JUMPDEST PUSH0 DUP1 SHL PUSH2 0x14BF DUP2 PUSH2 0x1AC8 JUMP JUMPDEST PUSH2 0x14E9 PUSH32 0x60C5CFBA52C4B504F7C252E725C10AEA67BFD5E3972BD12EA427F6A9742E6DBE DUP4 PUSH2 0x1BFB JUMP JUMPDEST POP PUSH32 0xA41A5DDBF02B01025C5AC32C2038F209EABE5DDB2A83444F2ACBFE9F91DC8827 DUP3 PUSH1 0x40 MLOAD PUSH2 0x1519 SWAP2 SWAP1 PUSH2 0x2892 JUMP JUMPDEST PUSH1 0x40 MLOAD DUP1 SWAP2 SUB SWAP1 LOG1 POP POP JUMP JUMPDEST PUSH0 DUP1 PUSH2 0x152F PUSH2 0x2117 JUMP JUMPDEST SWAP1 POP DUP1 PUSH0 ADD PUSH0 SWAP1 SLOAD SWAP1 PUSH2 0x100 EXP SWAP1 DIV PUSH1 0xFF AND SWAP2 POP POP SWAP1 JUMP JUMPDEST PUSH32 0xB165298935924F540E4181C03493A5D686C54A0AAEB3F6216DE85B7FFBBA7738 DUP2 JUMP JUMPDEST PUSH0 DUP1 SHL PUSH2 0x1577 DUP2 PUSH2 0x1AC8 JUMP JUMPDEST PUSH1 0x1 PUSH1 0x8 PUSH0 DUP5 PUSH20 0xFFFFFFFFFFFFFFFFFFFFFFFFFFFFFFFFFFFFFFFF AND PUSH20 0xFFFFFFFFFFFFFFFFFFFFFFFFFFFFFFFFFFFFFFFF AND DUP2 MSTORE PUSH1 0x20 ADD SWAP1 DUP2 MSTORE PUSH1 0x20 ADD PUSH0 KECCAK256 PUSH0 PUSH2 0x100 EXP DUP2 SLOAD DUP2 PUSH1 0xFF MUL NOT AND SWAP1 DUP4 ISZERO ISZERO MUL OR SWAP1 SSTORE POP DUP2 PUSH20 0xFFFFFFFFFFFFFFFFFFFFFFFFFFFFFFFFFFFFFFFF AND PUSH32 0x4F783C179409B4127238BC9C990BC99B9A651666A0D20B51D6C42849EB88466D PUSH1 0x40 MLOAD PUSH1 0x40 MLOAD DUP1 SWAP2 SUB SWAP1 LOG2 POP POP JUMP JUMPDEST PUSH1 0x3 SLOAD DUP2 JUMP JUMPDEST PUSH32 0x65D7A28E3265B37A6474929F336521B332C1681B933F6CB9F3376673440D862A PUSH2 0x1643 DUP2 PUSH2 0x1AC8 JUMP JUMPDEST PUSH2 0x164B PUSH2 0x213E JUMP JUMPDEST POP JUMP JUMPDEST PUSH0 DUP1 PUSH2 0x1658 PUSH2 0x1ADC JUMP JUMPDEST SWAP1 POP DUP1 PUSH0 ADD PUSH0 DUP6 DUP2 MSTORE PUSH1 0x20 ADD SWAP1 DUP2 MSTORE PUSH1 0x20 ADD PUSH0 KECCAK256 PUSH0 ADD PUSH0 DUP5 PUSH20 0xFFFFFFFFFFFFFFFFFFFFFFFFFFFFFFFFFFFFFFFF AND PUSH20 0xFFFFFFFFFFFFFFFFFFFFFFFFFFFFFFFFFFFFFFFF AND DUP2 MSTORE PUSH1 0x20 ADD SWAP1 DUP2 MSTORE PUSH1 0x20 ADD PUSH0 KECCAK256 PUSH0 SWAP1 SLOAD SWAP1 PUSH2 0x100 EXP SWAP1 DIV PUSH1 0xFF AND SWAP2 POP POP SWAP3 SWAP2 POP POP JUMP JUMPDEST PUSH0 DUP1 SHL DUP2 JUMP JUMPDEST PUSH1 0x5 SLOAD TIMESTAMP LT ISZERO PUSH2 0x170A JUMPI PUSH1 0x40 MLOAD PUSH32 0x8C379A000000000000000000000000000000000000000000000000000000000 DUP2 MSTORE PUSH1 0x4 ADD PUSH2 0x1701 SWAP1 PUSH2 0x31C1 JUMP JUMPDEST PUSH1 0x40 MLOAD DUP1 SWAP2 SUB SWAP1 REVERT JUMPDEST PUSH0 PUSH1 0x7 PUSH0 CALLER PUSH20 0xFFFFFFFFFFFFFFFFFFFFFFFFFFFFFFFFFFFFFFFF AND PUSH20 0xFFFFFFFFFFFFFFFFFFFFFFFFFFFFFFFFFFFFFFFF AND DUP2 MSTORE PUSH1 0x20 ADD SWAP1 DUP2 MSTORE PUSH1 0x20 ADD PUSH0 KECCAK256 SLOAD SWAP1 POP PUSH0 DUP2 GT PUSH2 0x178D JUMPI PUSH1 0x40 MLOAD PUSH32 0x8C379A000000000000000000000000000000000000000000000000000000000 DUP2 MSTORE PUSH1 0x4 ADD PUSH2 0x1784 SWAP1 PUSH2 0x3229 JUMP JUMPDEST PUSH1 0x40 MLOAD DUP1 SWAP2 SUB SWAP1 REVERT JUMPDEST PUSH0 PUSH1 0x7 PUSH0 CALLER PUSH20 0xFFFFFFFFFFFFFFFFFFFFFFFFFFFFFFFFFFFFFFFF AND PUSH20 0xFFFFFFFFFFFFFFFFFFFFFFFFFFFFFFFFFFFFFFFF AND DUP2 MSTORE PUSH1 0x20 ADD SWAP1 DUP2 MSTORE PUSH1 0x20 ADD PUSH0 KECCAK256 DUP2 SWAP1 SSTORE POP PUSH1 0x9 PUSH0 SWAP1 SLOAD SWAP1 PUSH2 0x100 EXP SWAP1 DIV PUSH20 0xFFFFFFFFFFFFFFFFFFFFFFFFFFFFFFFFFFFFFFFF AND PUSH20 0xFFFFFFFFFFFFFFFFFFFFFFFFFFFFFFFFFFFFFFFF AND PUSH4 0x23B872DD PUSH1 0xA PUSH0 SWAP1 SLOAD SWAP1 PUSH2 0x100 EXP SWAP1 DIV PUSH20 0xFFFFFFFFFFFFFFFFFFFFFFFFFFFFFFFFFFFFFFFF AND CALLER DUP5 PUSH1 0x40 MLOAD DUP5 PUSH4 0xFFFFFFFF AND PUSH1 0xE0 SHL DUP2 MSTORE PUSH1 0x4 ADD PUSH2 0x184E SWAP4 SWAP3 SWAP2 SWAP1 PUSH2 0x3247 JUMP JUMPDEST PUSH1 0x20 PUSH1 0x40 MLOAD DUP1 DUP4 SUB DUP2 PUSH0 DUP8 GAS CALL ISZERO DUP1 ISZERO PUSH2 0x186A JUMPI RETURNDATASIZE PUSH0 DUP1 RETURNDATACOPY RETURNDATASIZE PUSH0 REVERT JUMPDEST POP POP POP POP PUSH1 0x40 MLOAD RETURNDATASIZE PUSH1 0x1F NOT PUSH1 0x1F DUP3 ADD AND DUP3 ADD DUP1 PUSH1 0x40 MSTORE POP DUP2 ADD SWAP1 PUSH2 0x188E SWAP2 SWAP1 PUSH2 0x32A6 JUMP JUMPDEST POP PUSH32 0xC7798891864187665AC6DD119286E44EC13F014527AEEB2B8EB3FD413DF93179 CALLER DUP3 PUSH1 0x40 MLOAD PUSH2 0x18C0 SWAP3 SWAP2 SWAP1 PUSH2 0x30C5 JUMP JUMPDEST PUSH1 0x40 MLOAD DUP1 SWAP2 SUB SWAP1 LOG1 POP JUMP JUMPDEST PUSH1 0x40 MLOAD DUP1 PUSH1 0x40 ADD PUSH1 0x40 MSTORE DUP1 PUSH1 0x5 DUP2 MSTORE PUSH1 0x20 ADD PUSH32 0x352E302E30000000000000000000000000000000000000000000000000000000 DUP2 MSTORE POP DUP2 JUMP JUMPDEST PUSH1 0x5 SLOAD DUP2 JUMP JUMPDEST PUSH1 0x1 SLOAD DUP2 JUMP JUMPDEST PUSH2 0x1919 DUP3 PUSH2 0xB47 JUMP JUMPDEST PUSH2 0x1922 DUP2 PUSH2 0x1AC8 JUMP JUMPDEST PUSH2 0x192C DUP4 DUP4 PUSH2 0x1B03 JUMP JUMPDEST POP POP POP POP JUMP JUMPDEST PUSH0 DUP1 SHL PUSH2 0x193E DUP2 PUSH2 0x1AC8 JUMP JUMPDEST DUP2 PUSH1 0x4 DUP2 SWAP1 SSTORE POP PUSH32 0xF20CFD7E6CE3A0EB317CF0B06DCBC6BA40FB5BDD5AC92227BD1BAA0D85C52F92 DUP3 PUSH1 0x40 MLOAD PUSH2 0x1974 SWAP2 SWAP1 PUSH2 0x286A JUMP JUMPDEST PUSH1 0x40 MLOAD DUP1 SWAP2 SUB SWAP1 LOG1 POP POP JUMP JUMPDEST PUSH32 0x65D7A28E3265B37A6474929F336521B332C1681B933F6CB9F3376673440D862A DUP2 JUMP JUMPDEST PUSH0 DUP1 SHL PUSH2 0x19B0 DUP2 PUSH2 0x1AC8 JUMP JUMPDEST PUSH2 0x19DA PUSH32 0xB165298935924F540E4181C03493A5D686C54A0AAEB3F6216DE85B7FFBBA7738 DUP4 PUSH2 0x1BFB JUMP JUMPDEST POP PUSH32 0x62E6A5118BE03F9BFEDB79B0ED7ED75EE4A9E15FC4C69D2C4976ACDE26FA2D5F DUP3 PUSH1 0x40 MLOAD PUSH2 0x1A0A SWAP2 SWAP1 PUSH2 0x2892 JUMP JUMPDEST PUSH1 0x40 MLOAD DUP1 SWAP2 SUB SWAP1 LOG1 POP POP JUMP JUMPDEST PUSH32 0x189AB7A9244DF0848122154315AF71FE140F3DB0FE014031783B0946B8C9D2E3 DUP2 JUMP JUMPDEST PUSH1 0x9 PUSH0 SWAP1 SLOAD SWAP1 PUSH2 0x100 EXP SWAP1 DIV PUSH20 0xFFFFFFFFFFFFFFFFFFFFFFFFFFFFFFFFFFFFFFFF AND DUP2 JUMP JUMPDEST PUSH0 PUSH32 0x1FFC9A700000000000000000000000000000000000000000000000000000000 PUSH28 0xFFFFFFFFFFFFFFFFFFFFFFFFFFFFFFFFFFFFFFFFFFFFFFFFFFFFFFFF NOT AND DUP3 PUSH28 0xFFFFFFFFFFFFFFFFFFFFFFFFFFFFFFFFFFFFFFFFFFFFFFFFFFFFFFFF NOT AND EQ SWAP1 POP SWAP2 SWAP1 POP JUMP JUMPDEST PUSH2 0x1AD9 DUP2 PUSH2 0x1AD4 PUSH2 0x1D34 JUMP JUMPDEST PUSH2 0x21AD JUMP JUMPDEST POP JUMP JUMPDEST PUSH0 PUSH32 0x2DD7BC7DEC4DCEEDDA775E58DD541E08A116C6C53815C0BD028192F7B626800 SWAP1 POP SWAP1 JUMP JUMPDEST PUSH0 DUP1 PUSH2 0x1B0D PUSH2 0x1ADC JUMP JUMPDEST SWAP1 POP PUSH2 0x1B19 DUP5 DUP5 PUSH2 0x164E JUMP JUMPDEST ISZERO PUSH2 0x1BF0 JUMPI PUSH0 DUP2 PUSH0 ADD PUSH0 DUP7 DUP2 MSTORE PUSH1 0x20 ADD SWAP1 DUP2 MSTORE PUSH1 0x20 ADD PUSH0 KECCAK256 PUSH0 ADD PUSH0 DUP6 PUSH20 0xFFFFFFFFFFFFFFFFFFFFFFFFFFFFFFFFFFFFFFFF AND PUSH20 0xFFFFFFFFFFFFFFFFFFFFFFFFFFFFFFFFFFFFFFFF AND DUP2 MSTORE PUSH1 0x20 ADD SWAP1 DUP2 MSTORE PUSH1 0x20 ADD PUSH0 KECCAK256 PUSH0 PUSH2 0x100 EXP DUP2 SLOAD DUP2 PUSH1 0xFF MUL NOT AND SWAP1 DUP4 ISZERO ISZERO MUL OR SWAP1 SSTORE POP PUSH2 0x1B8C PUSH2 0x1D34 JUMP JUMPDEST PUSH20 0xFFFFFFFFFFFFFFFFFFFFFFFFFFFFFFFFFFFFFFFF AND DUP4 PUSH20 0xFFFFFFFFFFFFFFFFFFFFFFFFFFFFFFFFFFFFFFFF AND DUP6 PUSH32 0xF6391F5C32D9C69D2A47EA670B442974B53935D1EDC7FD64EB21E047A839171B PUSH1 0x40 MLOAD PUSH1 0x40 MLOAD DUP1 SWAP2 SUB SWAP1 LOG4 PUSH1 0x1 SWAP2 POP POP PUSH2 0x1BF5 JUMP JUMPDEST PUSH0 SWAP2 POP POP JUMPDEST SWAP3 SWAP2 POP POP JUMP JUMPDEST PUSH0 DUP1 PUSH2 0x1C05 PUSH2 0x1ADC JUMP JUMPDEST SWAP1 POP PUSH2 0x1C11 DUP5 DUP5 PUSH2 0x164E JUMP JUMPDEST PUSH2 0x1CE8 JUMPI PUSH1 0x1 DUP2 PUSH0 ADD PUSH0 DUP7 DUP2 MSTORE PUSH1 0x20 ADD SWAP1 DUP2 MSTORE PUSH1 0x20 ADD PUSH0 KECCAK256 PUSH0 ADD PUSH0 DUP6 PUSH20 0xFFFFFFFFFFFFFFFFFFFFFFFFFFFFFFFFFFFFFFFF AND PUSH20 0xFFFFFFFFFFFFFFFFFFFFFFFFFFFFFFFFFFFFFFFF AND DUP2 MSTORE PUSH1 0x20 ADD SWAP1 DUP2 MSTORE PUSH1 0x20 ADD PUSH0 KECCAK256 PUSH0 PUSH2 0x100 EXP DUP2 SLOAD DUP2 PUSH1 0xFF MUL NOT AND SWAP1 DUP4 ISZERO ISZERO MUL OR SWAP1 SSTORE POP PUSH2 0x1C84 PUSH2 0x1D34 JUMP JUMPDEST PUSH20 0xFFFFFFFFFFFFFFFFFFFFFFFFFFFFFFFFFFFFFFFF AND DUP4 PUSH20 0xFFFFFFFFFFFFFFFFFFFFFFFFFFFFFFFFFFFFFFFF AND DUP6 PUSH32 0x2F8788117E7EFF1D82E926EC794901D17C78024A50270940304540A733656F0D PUSH1 0x40 MLOAD PUSH1 0x40 MLOAD DUP1 SWAP2 SUB SWAP1 LOG4 PUSH1 0x1 SWAP2 POP POP PUSH2 0x1CED JUMP JUMPDEST PUSH0 SWAP2 POP POP JUMPDEST SWAP3 SWAP2 POP POP JUMP JUMPDEST PUSH2 0x1CFB PUSH2 0x1525 JUMP JUMPDEST ISZERO PUSH2 0x1D32 JUMPI PUSH1 0x40 MLOAD PUSH32 0xD93C066500000000000000000000000000000000000000000000000000000000 DUP2 MSTORE PUSH1 0x4 ADD PUSH1 0x40 MLOAD DUP1 SWAP2 SUB SWAP1 REVERT JUMPDEST JUMP JUMPDEST PUSH0 CALLER SWAP1 POP SWAP1 JUMP JUMPDEST PUSH2 0x1D43 PUSH2 0x21FE JUMP JUMPDEST PUSH0 PUSH2 0x1D4C PUSH2 0x2117 JUMP JUMPDEST SWAP1 POP PUSH0 DUP2 PUSH0 ADD PUSH0 PUSH2 0x100 EXP DUP2 SLOAD DUP2 PUSH1 0xFF MUL NOT AND SWAP1 DUP4 ISZERO ISZERO MUL OR SWAP1 SSTORE POP PUSH32 0x5DB9EE0A495BF2E6FF9C91A7834C1BA4FDD244A5E8AA4E537BD38AEAE4B073AA PUSH2 0x1D91 PUSH2 0x1D34 JUMP JUMPDEST PUSH1 0x40 MLOAD PUSH2 0x1D9E SWAP2 SWAP1 PUSH2 0x2892 JUMP JUMPDEST PUSH1 0x40 MLOAD DUP1 SWAP2 SUB SWAP1 LOG1 POP JUMP JUMPDEST PUSH0 PUSH32 0xF0C57E16840DF040F15088DC2F81FE391C3923BEC73E23A9662EFC9C229C6A00 SWAP1 POP SWAP1 JUMP JUMPDEST PUSH2 0x1DD8 PUSH2 0x223E JUMP JUMPDEST PUSH2 0x1DE0 PUSH2 0x227E JUMP JUMPDEST JUMP JUMPDEST PUSH2 0x1DEA PUSH2 0x223E JUMP JUMPDEST JUMP JUMPDEST PUSH2 0x1DF4 PUSH2 0x223E JUMP JUMPDEST JUMP JUMPDEST PUSH2 0x1E02 PUSH0 DUP1 SHL DUP5 PUSH2 0x1BFB JUMP JUMPDEST POP PUSH2 0x1E2D PUSH32 0x65D7A28E3265B37A6474929F336521B332C1681B933F6CB9F3376673440D862A DUP4 PUSH2 0x1BFB JUMP JUMPDEST POP PUSH2 0x1E58 PUSH32 0x189AB7A9244DF0848122154315AF71FE140F3DB0FE014031783B0946B8C9D2E3 DUP3 PUSH2 0x1BFB JUMP JUMPDEST POP POP POP POP JUMP JUMPDEST PUSH32 0x0 PUSH20 0xFFFFFFFFFFFFFFFFFFFFFFFFFFFFFFFFFFFFFFFF AND ADDRESS PUSH20 0xFFFFFFFFFFFFFFFFFFFFFFFFFFFFFFFFFFFFFFFF AND EQ DUP1 PUSH2 0x1F0B JUMPI POP PUSH32 0x0 PUSH20 0xFFFFFFFFFFFFFFFFFFFFFFFFFFFFFFFFFFFFFFFF AND PUSH2 0x1EF2 PUSH2 0x22AE JUMP JUMPDEST PUSH20 0xFFFFFFFFFFFFFFFFFFFFFFFFFFFFFFFFFFFFFFFF AND EQ ISZERO JUMPDEST ISZERO PUSH2 0x1F42 JUMPI PUSH1 0x40 MLOAD PUSH32 0xE07C8DBA00000000000000000000000000000000000000000000000000000000 DUP2 MSTORE PUSH1 0x4 ADD PUSH1 0x40 MLOAD DUP1 SWAP2 SUB SWAP1 REVERT JUMPDEST JUMP JUMPDEST PUSH32 0x189AB7A9244DF0848122154315AF71FE140F3DB0FE014031783B0946B8C9D2E3 PUSH2 0x1F6E DUP2 PUSH2 0x1AC8 JUMP JUMPDEST POP POP JUMP JUMPDEST DUP2 PUSH20 0xFFFFFFFFFFFFFFFFFFFFFFFFFFFFFFFFFFFFFFFF AND PUSH4 0x52D1902D PUSH1 0x40 MLOAD DUP2 PUSH4 0xFFFFFFFF AND PUSH1 0xE0 SHL DUP2 MSTORE PUSH1 0x4 ADD PUSH1 0x20 PUSH1 0x40 MLOAD DUP1 DUP4 SUB DUP2 DUP7 GAS STATICCALL SWAP3 POP POP POP DUP1 ISZERO PUSH2 0x1FDA JUMPI POP PUSH1 0x40 MLOAD RETURNDATASIZE PUSH1 0x1F NOT PUSH1 0x1F DUP3 ADD AND DUP3 ADD DUP1 PUSH1 0x40 MSTORE POP DUP2 ADD SWAP1 PUSH2 0x1FD7 SWAP2 SWAP1 PUSH2 0x32E5 JUMP JUMPDEST PUSH1 0x1 JUMPDEST PUSH2 0x201B JUMPI DUP2 PUSH1 0x40 MLOAD PUSH32 0x4C9C8CE300000000000000000000000000000000000000000000000000000000 DUP2 MSTORE PUSH1 0x4 ADD PUSH2 0x2012 SWAP2 SWAP1 PUSH2 0x2892 JUMP JUMPDEST PUSH1 0x40 MLOAD DUP1 SWAP2 SUB SWAP1 REVERT JUMPDEST PUSH32 0x360894A13BA1A3210667C828492DB98DCA3E2076CC3735A920A3CA505D382BBC PUSH0 SHL DUP2 EQ PUSH2 0x2081 JUMPI DUP1 PUSH1 0x40 MLOAD PUSH32 0xAA1D49A400000000000000000000000000000000000000000000000000000000 DUP2 MSTORE PUSH1 0x4 ADD PUSH2 0x2078 SWAP2 SWAP1 PUSH2 0x2608 JUMP JUMPDEST PUSH1 0x40 MLOAD DUP1 SWAP2 SUB SWAP1 REVERT JUMPDEST PUSH2 0x208B DUP4 DUP4 PUSH2 0x2301 JUMP JUMPDEST POP POP POP JUMP JUMPDEST PUSH32 0x0 PUSH20 0xFFFFFFFFFFFFFFFFFFFFFFFFFFFFFFFFFFFFFFFF AND ADDRESS PUSH20 0xFFFFFFFFFFFFFFFFFFFFFFFFFFFFFFFFFFFFFFFF AND EQ PUSH2 0x2115 JUMPI PUSH1 0x40 MLOAD PUSH32 0xE07C8DBA00000000000000000000000000000000000000000000000000000000 DUP2 MSTORE PUSH1 0x4 ADD PUSH1 0x40 MLOAD DUP1 SWAP2 SUB SWAP1 REVERT JUMPDEST JUMP JUMPDEST PUSH0 PUSH32 0xCD5ED15C6E187E77E9AEE88184C21F4F2182AB5827CB3B7E07FBEDCD63F03300 SWAP1 POP SWAP1 JUMP JUMPDEST PUSH2 0x2146 PUSH2 0x1CF3 JUMP JUMPDEST PUSH0 PUSH2 0x214F PUSH2 0x2117 JUMP JUMPDEST SWAP1 POP PUSH1 0x1 DUP2 PUSH0 ADD PUSH0 PUSH2 0x100 EXP DUP2 SLOAD DUP2 PUSH1 0xFF MUL NOT AND SWAP1 DUP4 ISZERO ISZERO MUL OR SWAP1 SSTORE POP PUSH32 0x62E78CEA01BEE320CD4E420270B5EA74000D11B0C9F74754EBDBFC544B05A258 PUSH2 0x2195 PUSH2 0x1D34 JUMP JUMPDEST PUSH1 0x40 MLOAD PUSH2 0x21A2 SWAP2 SWAP1 PUSH2 0x2892 JUMP JUMPDEST PUSH1 0x40 MLOAD DUP1 SWAP2 SUB SWAP1 LOG1 POP JUMP JUMPDEST PUSH2 0x21B7 DUP3 DUP3 PUSH2 0x164E JUMP JUMPDEST PUSH2 0x21FA JUMPI DUP1 DUP3 PUSH1 0x40 MLOAD PUSH32 0xE2517D3F00000000000000000000000000000000000000000000000000000000 DUP2 MSTORE PUSH1 0x4 ADD PUSH2 0x21F1 SWAP3 SWAP2 SWAP1 PUSH2 0x3310 JUMP JUMPDEST PUSH1 0x40 MLOAD DUP1 SWAP2 SUB SWAP1 REVERT JUMPDEST POP POP JUMP JUMPDEST PUSH2 0x2206 PUSH2 0x1525 JUMP JUMPDEST PUSH2 0x223C JUMPI PUSH1 0x40 MLOAD PUSH32 0x8DFC202B00000000000000000000000000000000000000000000000000000000 DUP2 MSTORE PUSH1 0x4 ADD PUSH1 0x40 MLOAD DUP1 SWAP2 SUB SWAP1 REVERT JUMPDEST JUMP JUMPDEST PUSH2 0x2246 PUSH2 0x2373 JUMP JUMPDEST PUSH2 0x227C JUMPI PUSH1 0x40 MLOAD PUSH32 0xD7E6BCF800000000000000000000000000000000000000000000000000000000 DUP2 MSTORE PUSH1 0x4 ADD PUSH1 0x40 MLOAD DUP1 SWAP2 SUB SWAP1 REVERT JUMPDEST JUMP JUMPDEST PUSH2 0x2286 PUSH2 0x223E JUMP JUMPDEST PUSH0 PUSH2 0x228F PUSH2 0x2117 JUMP JUMPDEST SWAP1 POP PUSH0 DUP2 PUSH0 ADD PUSH0 PUSH2 0x100 EXP DUP2 SLOAD DUP2 PUSH1 0xFF MUL NOT AND SWAP1 DUP4 ISZERO ISZERO MUL OR SWAP1 SSTORE POP POP JUMP JUMPDEST PUSH0 PUSH2 0x22DA PUSH32 0x360894A13BA1A3210667C828492DB98DCA3E2076CC3735A920A3CA505D382BBC PUSH0 SHL PUSH2 0x2391 JUMP JUMPDEST PUSH0 ADD PUSH0 SWAP1 SLOAD SWAP1 PUSH2 0x100 EXP SWAP1 DIV PUSH20 0xFFFFFFFFFFFFFFFFFFFFFFFFFFFFFFFFFFFFFFFF AND SWAP1 POP SWAP1 JUMP JUMPDEST PUSH2 0x230A DUP3 PUSH2 0x239A JUMP JUMPDEST DUP2 PUSH20 0xFFFFFFFFFFFFFFFFFFFFFFFFFFFFFFFFFFFFFFFF AND PUSH32 0xBC7CD75A20EE27FD9ADEBAB32041F755214DBC6BFFA90CC0225B39DA2E5C2D3B PUSH1 0x40 MLOAD PUSH1 0x40 MLOAD DUP1 SWAP2 SUB SWAP1 LOG2 PUSH0 DUP2 MLOAD GT ISZERO PUSH2 0x2366 JUMPI PUSH2 0x2360 DUP3 DUP3 PUSH2 0x2463 JUMP JUMPDEST POP PUSH2 0x236F JUMP JUMPDEST PUSH2 0x236E PUSH2 0x24E3 JUMP JUMPDEST JUMPDEST POP POP JUMP JUMPDEST PUSH0 PUSH2 0x237C PUSH2 0x1DA9 JUMP JUMPDEST PUSH0 ADD PUSH1 0x8 SWAP1 SLOAD SWAP1 PUSH2 0x100 EXP SWAP1 DIV PUSH1 0xFF AND SWAP1 POP SWAP1 JUMP JUMPDEST PUSH0 DUP2 SWAP1 POP SWAP2 SWAP1 POP JUMP JUMPDEST PUSH0 DUP2 PUSH20 0xFFFFFFFFFFFFFFFFFFFFFFFFFFFFFFFFFFFFFFFF AND EXTCODESIZE SUB PUSH2 0x23F5 JUMPI DUP1 PUSH1 0x40 MLOAD PUSH32 0x4C9C8CE300000000000000000000000000000000000000000000000000000000 DUP2 MSTORE PUSH1 0x4 ADD PUSH2 0x23EC SWAP2 SWAP1 PUSH2 0x2892 JUMP JUMPDEST PUSH1 0x40 MLOAD DUP1 SWAP2 SUB SWAP1 REVERT JUMPDEST DUP1 PUSH2 0x2421 PUSH32 0x360894A13BA1A3210667C828492DB98DCA3E2076CC3735A920A3CA505D382BBC PUSH0 SHL PUSH2 0x2391 JUMP JUMPDEST PUSH0 ADD PUSH0 PUSH2 0x100 EXP DUP2 SLOAD DUP2 PUSH20 0xFFFFFFFFFFFFFFFFFFFFFFFFFFFFFFFFFFFFFFFF MUL NOT AND SWAP1 DUP4 PUSH20 0xFFFFFFFFFFFFFFFFFFFFFFFFFFFFFFFFFFFFFFFF AND MUL OR SWAP1 SSTORE POP POP JUMP JUMPDEST PUSH1 0x60 PUSH0 DUP1 DUP5 PUSH20 0xFFFFFFFFFFFFFFFFFFFFFFFFFFFFFFFFFFFFFFFF AND DUP5 PUSH1 0x40 MLOAD PUSH2 0x248C SWAP2 SWAP1 PUSH2 0x337B JUMP JUMPDEST PUSH0 PUSH1 0x40 MLOAD DUP1 DUP4 SUB DUP2 DUP6 GAS DELEGATECALL SWAP2 POP POP RETURNDATASIZE DUP1 PUSH0 DUP2 EQ PUSH2 0x24C4 JUMPI PUSH1 0x40 MLOAD SWAP2 POP PUSH1 0x1F NOT PUSH1 0x3F RETURNDATASIZE ADD AND DUP3 ADD PUSH1 0x40 MSTORE RETURNDATASIZE DUP3 MSTORE RETURNDATASIZE PUSH0 PUSH1 0x20 DUP5 ADD RETURNDATACOPY PUSH2 0x24C9 JUMP JUMPDEST PUSH1 0x60 SWAP2 POP JUMPDEST POP SWAP2 POP SWAP2 POP PUSH2 0x24D9 DUP6 DUP4 DUP4 PUSH2 0x251F JUMP JUMPDEST SWAP3 POP POP POP SWAP3 SWAP2 POP POP JUMP JUMPDEST PUSH0 CALLVALUE GT ISZERO PUSH2 0x251D JUMPI PUSH1 0x40 MLOAD PUSH32 0xB398979F00000000000000000000000000000000000000000000000000000000 DUP2 MSTORE PUSH1 0x4 ADD PUSH1 0x40 MLOAD DUP1 SWAP2 SUB SWAP1 REVERT JUMPDEST JUMP JUMPDEST PUSH1 0x60 DUP3 PUSH2 0x2534 JUMPI PUSH2 0x252F DUP3 PUSH2 0x25AC JUMP JUMPDEST PUSH2 0x25A4 JUMP JUMPDEST PUSH0 DUP3 MLOAD EQ DUP1 ISZERO PUSH2 0x255A JUMPI POP PUSH0 DUP5 PUSH20 0xFFFFFFFFFFFFFFFFFFFFFFFFFFFFFFFFFFFFFFFF AND EXTCODESIZE EQ JUMPDEST ISZERO PUSH2 0x259C JUMPI DUP4 PUSH1 0x40 MLOAD PUSH32 0x9996B31500000000000000000000000000000000000000000000000000000000 DUP2 MSTORE PUSH1 0x4 ADD PUSH2 0x2593 SWAP2 SWAP1 PUSH2 0x2892 JUMP JUMPDEST PUSH1 0x40 MLOAD DUP1 SWAP2 SUB SWAP1 REVERT JUMPDEST DUP2 SWAP1 POP PUSH2 0x25A5 JUMP JUMPDEST JUMPDEST SWAP4 SWAP3 POP POP POP JUMP JUMPDEST PUSH0 DUP2 MLOAD GT ISZERO PUSH2 0x25BE JUMPI DUP1 MLOAD DUP1 DUP3 PUSH1 0x20 ADD REVERT JUMPDEST PUSH1 0x40 MLOAD PUSH32 0x1425EA4200000000000000000000000000000000000000000000000000000000 DUP2 MSTORE PUSH1 0x4 ADD PUSH1 0x40 MLOAD DUP1 SWAP2 SUB SWAP1 REVERT JUMPDEST PUSH0 DUP2 SWAP1 POP SWAP2 SWAP1 POP JUMP JUMPDEST PUSH2 0x2602 DUP2 PUSH2 0x25F0 JUMP JUMPDEST DUP3 MSTORE POP POP JUMP JUMPDEST PUSH0 PUSH1 0x20 DUP3 ADD SWAP1 POP PUSH2 0x261B PUSH0 DUP4 ADD DUP5 PUSH2 0x25F9 JUMP JUMPDEST SWAP3 SWAP2 POP POP JUMP JUMPDEST PUSH0 PUSH1 0x40 MLOAD SWAP1 POP SWAP1 JUMP JUMPDEST PUSH0 DUP1 REVERT JUMPDEST PUSH0 DUP1 REVERT JUMPDEST PUSH0 PUSH32 0xFFFFFFFF00000000000000000000000000000000000000000000000000000000 DUP3 AND SWAP1 POP SWAP2 SWAP1 POP JUMP JUMPDEST PUSH2 0x2666 DUP2 PUSH2 0x2632 JUMP JUMPDEST DUP2 EQ PUSH2 0x2670 JUMPI PUSH0 DUP1 REVERT JUMPDEST POP JUMP JUMPDEST PUSH0 DUP2 CALLDATALOAD SWAP1 POP PUSH2 0x2681 DUP2 PUSH2 0x265D JUMP JUMPDEST SWAP3 SWAP2 POP POP JUMP JUMPDEST PUSH0 PUSH1 0x20 DUP3 DUP5 SUB SLT ISZERO PUSH2 0x269C JUMPI PUSH2 0x269B PUSH2 0x262A JUMP JUMPDEST JUMPDEST PUSH0 PUSH2 0x26A9 DUP5 DUP3 DUP6 ADD PUSH2 0x2673 JUMP JUMPDEST SWAP2 POP POP SWAP3 SWAP2 POP POP JUMP JUMPDEST PUSH0 DUP2 ISZERO ISZERO SWAP1 POP SWAP2 SWAP1 POP JUMP JUMPDEST PUSH2 0x26C6 DUP2 PUSH2 0x26B2 JUMP JUMPDEST DUP3 MSTORE POP POP JUMP JUMPDEST PUSH0 PUSH1 0x20 DUP3 ADD SWAP1 POP PUSH2 0x26DF PUSH0 DUP4 ADD DUP5 PUSH2 0x26BD JUMP JUMPDEST SWAP3 SWAP2 POP POP JUMP JUMPDEST PUSH0 PUSH20 0xFFFFFFFFFFFFFFFFFFFFFFFFFFFFFFFFFFFFFFFF DUP3 AND SWAP1 POP SWAP2 SWAP1 POP JUMP JUMPDEST PUSH0 PUSH2 0x270E DUP3 PUSH2 0x26E5 JUMP JUMPDEST SWAP1 POP SWAP2 SWAP1 POP JUMP JUMPDEST PUSH2 0x271E DUP2 PUSH2 0x2704 JUMP JUMPDEST DUP2 EQ PUSH2 0x2728 JUMPI PUSH0 DUP1 REVERT JUMPDEST POP JUMP JUMPDEST PUSH0 DUP2 CALLDATALOAD SWAP1 POP PUSH2 0x2739 DUP2 PUSH2 0x2715 JUMP JUMPDEST SWAP3 SWAP2 POP POP JUMP JUMPDEST PUSH0 PUSH1 0x20 DUP3 DUP5 SUB SLT ISZERO PUSH2 0x2754 JUMPI PUSH2 0x2753 PUSH2 0x262A JUMP JUMPDEST JUMPDEST PUSH0 PUSH2 0x2761 DUP5 DUP3 DUP6 ADD PUSH2 0x272B JUMP JUMPDEST SWAP2 POP POP SWAP3 SWAP2 POP POP JUMP JUMPDEST PUSH0 DUP2 SWAP1 POP SWAP2 SWAP1 POP JUMP JUMPDEST PUSH2 0x277C DUP2 PUSH2 0x276A JUMP JUMPDEST DUP2 EQ PUSH2 0x2786 JUMPI PUSH0 DUP1 REVERT JUMPDEST POP JUMP JUMPDEST PUSH0 DUP2 CALLDATALOAD SWAP1 POP PUSH2 0x2797 DUP2 PUSH2 0x2773 JUMP JUMPDEST SWAP3 SWAP2 POP POP JUMP JUMPDEST PUSH0 DUP1 REVERT JUMPDEST PUSH0 DUP1 REVERT JUMPDEST PUSH0 DUP1 REVERT JUMPDEST PUSH0 DUP1 DUP4 PUSH1 0x1F DUP5 ADD SLT PUSH2 0x27BE JUMPI PUSH2 0x27BD PUSH2 0x279D JUMP JUMPDEST JUMPDEST DUP3 CALLDATALOAD SWAP1 POP PUSH8 0xFFFFFFFFFFFFFFFF DUP2 GT ISZERO PUSH2 0x27DB JUMPI PUSH2 0x27DA PUSH2 0x27A1 JUMP JUMPDEST JUMPDEST PUSH1 0x20 DUP4 ADD SWAP2 POP DUP4 PUSH1 0x1 DUP3 MUL DUP4 ADD GT ISZERO PUSH2 0x27F7 JUMPI PUSH2 0x27F6 PUSH2 0x27A5 JUMP JUMPDEST JUMPDEST SWAP3 POP SWAP3 SWAP1 POP JUMP JUMPDEST PUSH0 DUP1 PUSH0 PUSH1 0x40 DUP5 DUP7 SUB SLT ISZERO PUSH2 0x2815 JUMPI PUSH2 0x2814 PUSH2 0x262A JUMP JUMPDEST JUMPDEST PUSH0 PUSH2 0x2822 DUP7 DUP3 DUP8 ADD PUSH2 0x2789 JUMP JUMPDEST SWAP4 POP POP PUSH1 0x20 DUP5 ADD CALLDATALOAD PUSH8 0xFFFFFFFFFFFFFFFF DUP2 GT ISZERO PUSH2 0x2843 JUMPI PUSH2 0x2842 PUSH2 0x262E JUMP JUMPDEST JUMPDEST PUSH2 0x284F DUP7 DUP3 DUP8 ADD PUSH2 0x27A9 JUMP JUMPDEST SWAP3 POP SWAP3 POP POP SWAP3 POP SWAP3 POP SWAP3 JUMP JUMPDEST PUSH2 0x2864 DUP2 PUSH2 0x276A JUMP JUMPDEST DUP3 MSTORE POP POP JUMP JUMPDEST PUSH0 PUSH1 0x20 DUP3 ADD SWAP1 POP PUSH2 0x287D PUSH0 DUP4 ADD DUP5 PUSH2 0x285B JUMP JUMPDEST SWAP3 SWAP2 POP POP JUMP JUMPDEST PUSH2 0x288C DUP2 PUSH2 0x2704 JUMP JUMPDEST DUP3 MSTORE POP POP JUMP JUMPDEST PUSH0 PUSH1 0x20 DUP3 ADD SWAP1 POP PUSH2 0x28A5 PUSH0 DUP4 ADD DUP5 PUSH2 0x2883 JUMP JUMPDEST SWAP3 SWAP2 POP POP JUMP JUMPDEST PUSH2 0x28B4 DUP2 PUSH2 0x25F0 JUMP JUMPDEST DUP2 EQ PUSH2 0x28BE JUMPI PUSH0 DUP1 REVERT JUMPDEST POP JUMP JUMPDEST PUSH0 DUP2 CALLDATALOAD SWAP1 POP PUSH2 0x28CF DUP2 PUSH2 0x28AB JUMP JUMPDEST SWAP3 SWAP2 POP POP JUMP JUMPDEST PUSH0 PUSH1 0x20 DUP3 DUP5 SUB SLT ISZERO PUSH2 0x28EA JUMPI PUSH2 0x28E9 PUSH2 0x262A JUMP JUMPDEST JUMPDEST PUSH0 PUSH2 0x28F7 DUP5 DUP3 DUP6 ADD PUSH2 0x28C1 JUMP JUMPDEST SWAP2 POP POP SWAP3 SWAP2 POP POP JUMP JUMPDEST PUSH0 DUP1 PUSH1 0x40 DUP4 DUP6 SUB SLT ISZERO PUSH2 0x2916 JUMPI PUSH2 0x2915 PUSH2 0x262A JUMP JUMPDEST JUMPDEST PUSH0 PUSH2 0x2923 DUP6 DUP3 DUP7 ADD PUSH2 0x28C1 JUMP JUMPDEST SWAP3 POP POP PUSH1 0x20 PUSH2 0x2934 DUP6 DUP3 DUP7 ADD PUSH2 0x272B JUMP JUMPDEST SWAP2 POP POP SWAP3 POP SWAP3 SWAP1 POP JUMP JUMPDEST PUSH0 PUSH1 0x20 DUP3 DUP5 SUB SLT ISZERO PUSH2 0x2953 JUMPI PUSH2 0x2952 PUSH2 0x262A JUMP JUMPDEST JUMPDEST PUSH0 PUSH2 0x2960 DUP5 DUP3 DUP6 ADD PUSH2 0x2789 JUMP JUMPDEST SWAP2 POP POP SWAP3 SWAP2 POP POP JUMP JUMPDEST PUSH0 DUP1 PUSH0 DUP1 PUSH0 DUP1 PUSH0 DUP1 PUSH0 DUP1 PUSH2 0x140 DUP12 DUP14 SUB SLT ISZERO PUSH2 0x2988 JUMPI PUSH2 0x2987 PUSH2 0x262A JUMP JUMPDEST JUMPDEST PUSH0 PUSH2 0x2995 DUP14 DUP3 DUP15 ADD PUSH2 0x272B JUMP JUMPDEST SWAP11 POP POP PUSH1 0x20 PUSH2 0x29A6 DUP14 DUP3 DUP15 ADD PUSH2 0x272B JUMP JUMPDEST SWAP10 POP POP PUSH1 0x40 PUSH2 0x29B7 DUP14 DUP3 DUP15 ADD PUSH2 0x272B JUMP JUMPDEST SWAP9 POP POP PUSH1 0x60 PUSH2 0x29C8 DUP14 DUP3 DUP15 ADD PUSH2 0x272B JUMP JUMPDEST SWAP8 POP POP PUSH1 0x80 PUSH2 0x29D9 DUP14 DUP3 DUP15 ADD PUSH2 0x272B JUMP JUMPDEST SWAP7 POP POP PUSH1 0xA0 PUSH2 0x29EA DUP14 DUP3 DUP15 ADD PUSH2 0x2789 JUMP JUMPDEST SWAP6 POP POP PUSH1 0xC0 PUSH2 0x29FB DUP14 DUP3 DUP15 ADD PUSH2 0x2789 JUMP JUMPDEST SWAP5 POP POP PUSH1 0xE0 PUSH2 0x2A0C DUP14 DUP3 DUP15 ADD PUSH2 0x2789 JUMP JUMPDEST SWAP4 POP POP PUSH2 0x100 PUSH2 0x2A1E DUP14 DUP3 DUP15 ADD PUSH2 0x2789 JUMP JUMPDEST SWAP3 POP POP PUSH2 0x120 PUSH2 0x2A30 DUP14 DUP3 DUP15 ADD PUSH2 0x2789 JUMP JUMPDEST SWAP2 POP POP SWAP3 SWAP6 SWAP9 SWAP12 SWAP2 SWAP5 SWAP8 SWAP11 POP SWAP3 SWAP6 SWAP9 POP JUMP JUMPDEST PUSH0 DUP1 REVERT JUMPDEST PUSH0 PUSH1 0x1F NOT PUSH1 0x1F DUP4 ADD AND SWAP1 POP SWAP2 SWAP1 POP JUMP JUMPDEST PUSH32 0x4E487B7100000000000000000000000000000000000000000000000000000000 PUSH0 MSTORE PUSH1 0x41 PUSH1 0x4 MSTORE PUSH1 0x24 PUSH0 REVERT JUMPDEST PUSH2 0x2A8C DUP3 PUSH2 0x2A46 JUMP JUMPDEST DUP2 ADD DUP2 DUP2 LT PUSH8 0xFFFFFFFFFFFFFFFF DUP3 GT OR ISZERO PUSH2 0x2AAB JUMPI PUSH2 0x2AAA PUSH2 0x2A56 JUMP JUMPDEST JUMPDEST DUP1 PUSH1 0x40 MSTORE POP POP POP JUMP JUMPDEST PUSH0 PUSH2 0x2ABD PUSH2 0x2621 JUMP JUMPDEST SWAP1 POP PUSH2 0x2AC9 DUP3 DUP3 PUSH2 0x2A83 JUMP JUMPDEST SWAP2 SWAP1 POP JUMP JUMPDEST PUSH0 PUSH8 0xFFFFFFFFFFFFFFFF DUP3 GT ISZERO PUSH2 0x2AE8 JUMPI PUSH2 0x2AE7 PUSH2 0x2A56 JUMP JUMPDEST JUMPDEST PUSH2 0x2AF1 DUP3 PUSH2 0x2A46 JUMP JUMPDEST SWAP1 POP PUSH1 0x20 DUP2 ADD SWAP1 POP SWAP2 SWAP1 POP JUMP JUMPDEST DUP3 DUP2 DUP4 CALLDATACOPY PUSH0 DUP4 DUP4 ADD MSTORE POP POP POP JUMP JUMPDEST PUSH0 PUSH2 0x2B1E PUSH2 0x2B19 DUP5 PUSH2 0x2ACE JUMP JUMPDEST PUSH2 0x2AB4 JUMP JUMPDEST SWAP1 POP DUP3 DUP2 MSTORE PUSH1 0x20 DUP2 ADD DUP5 DUP5 DUP5 ADD GT ISZERO PUSH2 0x2B3A JUMPI PUSH2 0x2B39 PUSH2 0x2A42 JUMP JUMPDEST JUMPDEST PUSH2 0x2B45 DUP5 DUP3 DUP6 PUSH2 0x2AFE JUMP JUMPDEST POP SWAP4 SWAP3 POP POP POP JUMP JUMPDEST PUSH0 DUP3 PUSH1 0x1F DUP4 ADD SLT PUSH2 0x2B61 JUMPI PUSH2 0x2B60 PUSH2 0x279D JUMP JUMPDEST JUMPDEST DUP2 CALLDATALOAD PUSH2 0x2B71 DUP5 DUP3 PUSH1 0x20 DUP7 ADD PUSH2 0x2B0C JUMP JUMPDEST SWAP2 POP POP SWAP3 SWAP2 POP POP JUMP JUMPDEST PUSH0 DUP1 PUSH1 0x40 DUP4 DUP6 SUB SLT ISZERO PUSH2 0x2B90 JUMPI PUSH2 0x2B8F PUSH2 0x262A JUMP JUMPDEST JUMPDEST PUSH0 PUSH2 0x2B9D DUP6 DUP3 DUP7 ADD PUSH2 0x272B JUMP JUMPDEST SWAP3 POP POP PUSH1 0x20 DUP4 ADD CALLDATALOAD PUSH8 0xFFFFFFFFFFFFFFFF DUP2 GT ISZERO PUSH2 0x2BBE JUMPI PUSH2 0x2BBD PUSH2 0x262E JUMP JUMPDEST JUMPDEST PUSH2 0x2BCA DUP6 DUP3 DUP7 ADD PUSH2 0x2B4D JUMP JUMPDEST SWAP2 POP POP SWAP3 POP SWAP3 SWAP1 POP JUMP JUMPDEST PUSH0 DUP2 MLOAD SWAP1 POP SWAP2 SWAP1 POP JUMP JUMPDEST PUSH0 DUP3 DUP3 MSTORE PUSH1 0x20 DUP3 ADD SWAP1 POP SWAP3 SWAP2 POP POP JUMP JUMPDEST DUP3 DUP2 DUP4 MCOPY PUSH0 DUP4 DUP4 ADD MSTORE POP POP POP JUMP JUMPDEST PUSH0 PUSH2 0x2C06 DUP3 PUSH2 0x2BD4 JUMP JUMPDEST PUSH2 0x2C10 DUP2 DUP6 PUSH2 0x2BDE JUMP JUMPDEST SWAP4 POP PUSH2 0x2C20 DUP2 DUP6 PUSH1 0x20 DUP7 ADD PUSH2 0x2BEE JUMP JUMPDEST PUSH2 0x2C29 DUP2 PUSH2 0x2A46 JUMP JUMPDEST DUP5 ADD SWAP2 POP POP SWAP3 SWAP2 POP POP JUMP JUMPDEST PUSH0 PUSH1 0x20 DUP3 ADD SWAP1 POP DUP2 DUP2 SUB PUSH0 DUP4 ADD MSTORE PUSH2 0x2C4C DUP2 DUP5 PUSH2 0x2BFC JUMP JUMPDEST SWAP1 POP SWAP3 SWAP2 POP POP JUMP JUMPDEST PUSH0 DUP2 SWAP1 POP SWAP2 SWAP1 POP JUMP JUMPDEST PUSH0 PUSH2 0x2C77 PUSH2 0x2C72 PUSH2 0x2C6D DUP5 PUSH2 0x26E5 JUMP JUMPDEST PUSH2 0x2C54 JUMP JUMPDEST PUSH2 0x26E5 JUMP JUMPDEST SWAP1 POP SWAP2 SWAP1 POP JUMP JUMPDEST PUSH0 PUSH2 0x2C88 DUP3 PUSH2 0x2C5D JUMP JUMPDEST SWAP1 POP SWAP2 SWAP1 POP JUMP JUMPDEST PUSH0 PUSH2 0x2C99 DUP3 PUSH2 0x2C7E JUMP JUMPDEST SWAP1 POP SWAP2 SWAP1 POP JUMP JUMPDEST PUSH2 0x2CA9 DUP2 PUSH2 0x2C8F JUMP JUMPDEST DUP3 MSTORE POP POP JUMP JUMPDEST PUSH0 PUSH1 0x20 DUP3 ADD SWAP1 POP PUSH2 0x2CC2 PUSH0 DUP4 ADD DUP5 PUSH2 0x2CA0 JUMP JUMPDEST SWAP3 SWAP2 POP POP JUMP JUMPDEST PUSH0 DUP2 SWAP1 POP SWAP3 SWAP2 POP POP JUMP JUMPDEST PUSH32 0x494E564553544F52000000000000000000000000000000000000000000000000 PUSH0 DUP3 ADD MSTORE POP JUMP JUMPDEST PUSH0 PUSH2 0x2D06 PUSH1 0x8 DUP4 PUSH2 0x2CC8 JUMP JUMPDEST SWAP2 POP PUSH2 0x2D11 DUP3 PUSH2 0x2CD2 JUMP JUMPDEST PUSH1 0x8 DUP3 ADD SWAP1 POP SWAP2 SWAP1 POP JUMP JUMPDEST PUSH0 PUSH2 0x2D26 DUP3 PUSH2 0x2CFA JUMP JUMPDEST SWAP2 POP DUP2 SWAP1 POP SWAP2 SWAP1 POP JUMP JUMPDEST PUSH0 PUSH2 0x2D3B DUP4 DUP6 PUSH2 0x2CC8 JUMP JUMPDEST SWAP4 POP PUSH2 0x2D48 DUP4 DUP6 DUP5 PUSH2 0x2AFE JUMP JUMPDEST DUP3 DUP5 ADD SWAP1 POP SWAP4 SWAP3 POP POP POP JUMP JUMPDEST PUSH0 PUSH2 0x2D60 DUP3 DUP5 DUP7 PUSH2 0x2D30 JUMP JUMPDEST SWAP2 POP DUP2 SWAP1 POP SWAP4 SWAP3 POP POP POP JUMP JUMPDEST PUSH32 0x434F4D4D554E4954590000000000000000000000000000000000000000000000 PUSH0 DUP3 ADD MSTORE POP JUMP JUMPDEST PUSH0 PUSH2 0x2DA0 PUSH1 0x9 DUP4 PUSH2 0x2CC8 JUMP JUMPDEST SWAP2 POP PUSH2 0x2DAB DUP3 PUSH2 0x2D6C JUMP JUMPDEST PUSH1 0x9 DUP3 ADD SWAP1 POP SWAP2 SWAP1 POP JUMP JUMPDEST PUSH0 PUSH2 0x2DC0 DUP3 PUSH2 0x2D94 JUMP JUMPDEST SWAP2 POP DUP2 SWAP1 POP SWAP2 SWAP1 POP JUMP JUMPDEST PUSH32 0x5055424C49430000000000000000000000000000000000000000000000000000 PUSH0 DUP3 ADD MSTORE POP JUMP JUMPDEST PUSH0 PUSH2 0x2DFE PUSH1 0x6 DUP4 PUSH2 0x2CC8 JUMP JUMPDEST SWAP2 POP PUSH2 0x2E09 DUP3 PUSH2 0x2DCA JUMP JUMPDEST PUSH1 0x6 DUP3 ADD SWAP1 POP SWAP2 SWAP1 POP JUMP JUMPDEST PUSH0 PUSH2 0x2E1E DUP3 PUSH2 0x2DF2 JUMP JUMPDEST SWAP2 POP DUP2 SWAP1 POP SWAP2 SWAP1 POP JUMP JUMPDEST PUSH32 0x496E76616C696420726F6C650000000000000000000000000000000000000000 PUSH0 DUP3 ADD MSTORE POP JUMP JUMPDEST PUSH0 PUSH2 0x2E5C PUSH1 0xC DUP4 PUSH2 0x2BDE JUMP JUMPDEST SWAP2 POP PUSH2 0x2E67 DUP3 PUSH2 0x2E28 JUMP JUMPDEST PUSH1 0x20 DUP3 ADD SWAP1 POP SWAP2 SWAP1 POP JUMP JUMPDEST PUSH0 PUSH1 0x20 DUP3 ADD SWAP1 POP DUP2 DUP2 SUB PUSH0 DUP4 ADD MSTORE PUSH2 0x2E89 DUP2 PUSH2 0x2E50 JUMP JUMPDEST SWAP1 POP SWAP2 SWAP1 POP JUMP JUMPDEST PUSH0 PUSH2 0x2E9B DUP4 DUP6 PUSH2 0x2BDE JUMP JUMPDEST SWAP4 POP PUSH2 0x2EA8 DUP4 DUP6 DUP5 PUSH2 0x2AFE JUMP JUMPDEST PUSH2 0x2EB1 DUP4 PUSH2 0x2A46 JUMP JUMPDEST DUP5 ADD SWAP1 POP SWAP4 SWAP3 POP POP POP JUMP JUMPDEST PUSH0 PUSH1 0x40 DUP3 ADD SWAP1 POP PUSH2 0x2ECF PUSH0 DUP4 ADD DUP7 PUSH2 0x285B JUMP JUMPDEST DUP2 DUP2 SUB PUSH1 0x20 DUP4 ADD MSTORE PUSH2 0x2EE2 DUP2 DUP5 DUP7 PUSH2 0x2E90 JUMP JUMPDEST SWAP1 POP SWAP5 SWAP4 POP POP POP POP JUMP JUMPDEST PUSH32 0x41646472657373206E6F742077686974656C6973746564000000000000000000 PUSH0 DUP3 ADD MSTORE POP JUMP JUMPDEST PUSH0 PUSH2 0x2F20 PUSH1 0x17 DUP4 PUSH2 0x2BDE JUMP JUMPDEST SWAP2 POP PUSH2 0x2F2B DUP3 PUSH2 0x2EEC JUMP JUMPDEST PUSH1 0x20 DUP3 ADD SWAP1 POP SWAP2 SWAP1 POP JUMP JUMPDEST PUSH0 PUSH1 0x20 DUP3 ADD SWAP1 POP DUP2 DUP2 SUB PUSH0 DUP4 ADD MSTORE PUSH2 0x2F4D DUP2 PUSH2 0x2F14 JUMP JUMPDEST SWAP1 POP SWAP2 SWAP1 POP JUMP JUMPDEST PUSH32 0x4E487B7100000000000000000000000000000000000000000000000000000000 PUSH0 MSTORE PUSH1 0x11 PUSH1 0x4 MSTORE PUSH1 0x24 PUSH0 REVERT JUMPDEST PUSH0 PUSH2 0x2F8B DUP3 PUSH2 0x276A JUMP JUMPDEST SWAP2 POP PUSH2 0x2F96 DUP4 PUSH2 0x276A JUMP JUMPDEST SWAP3 POP DUP3 DUP3 MUL PUSH2 0x2FA4 DUP2 PUSH2 0x276A JUMP JUMPDEST SWAP2 POP DUP3 DUP3 DIV DUP5 EQ DUP4 ISZERO OR PUSH2 0x2FBB JUMPI PUSH2 0x2FBA PUSH2 0x2F54 JUMP JUMPDEST JUMPDEST POP SWAP3 SWAP2 POP POP JUMP JUMPDEST PUSH32 0x496E636F72726563742076616C75652073656E74000000000000000000000000 PUSH0 DUP3 ADD MSTORE POP JUMP JUMPDEST PUSH0 PUSH2 0x2FF6 PUSH1 0x14 DUP4 PUSH2 0x2BDE JUMP JUMPDEST SWAP2 POP PUSH2 0x3001 DUP3 PUSH2 0x2FC2 JUMP JUMPDEST PUSH1 0x20 DUP3 ADD SWAP1 POP SWAP2 SWAP1 POP JUMP JUMPDEST PUSH0 PUSH1 0x20 DUP3 ADD SWAP1 POP DUP2 DUP2 SUB PUSH0 DUP4 ADD MSTORE PUSH2 0x3023 DUP2 PUSH2 0x2FEA JUMP JUMPDEST SWAP1 POP SWAP2 SWAP1 POP JUMP JUMPDEST PUSH0 PUSH2 0x3034 DUP3 PUSH2 0x276A JUMP JUMPDEST SWAP2 POP PUSH2 0x303F DUP4 PUSH2 0x276A JUMP JUMPDEST SWAP3 POP DUP3 DUP3 ADD SWAP1 POP DUP1 DUP3 GT ISZERO PUSH2 0x3057 JUMPI PUSH2 0x3056 PUSH2 0x2F54 JUMP JUMPDEST JUMPDEST SWAP3 SWAP2 POP POP JUMP JUMPDEST PUSH32 0x5075726368617365206578636565647320636170000000000000000000000000 PUSH0 DUP3 ADD MSTORE POP JUMP JUMPDEST PUSH0 PUSH2 0x3091 PUSH1 0x14 DUP4 PUSH2 0x2BDE JUMP JUMPDEST SWAP2 POP PUSH2 0x309C DUP3 PUSH2 0x305D JUMP JUMPDEST PUSH1 0x20 DUP3 ADD SWAP1 POP SWAP2 SWAP1 POP JUMP JUMPDEST PUSH0 PUSH1 0x20 DUP3 ADD SWAP1 POP DUP2 DUP2 SUB PUSH0 DUP4 ADD MSTORE PUSH2 0x30BE DUP2 PUSH2 0x3085 JUMP JUMPDEST SWAP1 POP SWAP2 SWAP1 POP JUMP JUMPDEST PUSH0 PUSH1 0x40 DUP3 ADD SWAP1 POP PUSH2 0x30D8 PUSH0 DUP4 ADD DUP6 PUSH2 0x2883 JUMP JUMPDEST PUSH2 0x30E5 PUSH1 0x20 DUP4 ADD DUP5 PUSH2 0x285B JUMP JUMPDEST SWAP4 SWAP3 POP POP POP JUMP JUMPDEST PUSH0 DUP2 SWAP1 POP SWAP2 SWAP1 POP JUMP JUMPDEST PUSH0 PUSH8 0xFFFFFFFFFFFFFFFF DUP3 AND SWAP1 POP SWAP2 SWAP1 POP JUMP JUMPDEST PUSH0 PUSH2 0x3122 PUSH2 0x311D PUSH2 0x3118 DUP5 PUSH2 0x30EC JUMP JUMPDEST PUSH2 0x2C54 JUMP JUMPDEST PUSH2 0x30F5 JUMP JUMPDEST SWAP1 POP SWAP2 SWAP1 POP JUMP JUMPDEST PUSH2 0x3132 DUP2 PUSH2 0x3108 JUMP JUMPDEST DUP3 MSTORE POP POP JUMP JUMPDEST PUSH0 PUSH1 0x20 DUP3 ADD SWAP1 POP PUSH2 0x314B PUSH0 DUP4 ADD DUP5 PUSH2 0x3129 JUMP JUMPDEST SWAP3 SWAP2 POP POP JUMP JUMPDEST PUSH32 0x43757272656E742074696D65206973206265666F72652072656C656173652074 PUSH0 DUP3 ADD MSTORE PUSH32 0x696D650000000000000000000000000000000000000000000000000000000000 PUSH1 0x20 DUP3 ADD MSTORE POP JUMP JUMPDEST PUSH0 PUSH2 0x31AB PUSH1 0x23 DUP4 PUSH2 0x2BDE JUMP JUMPDEST SWAP2 POP PUSH2 0x31B6 DUP3 PUSH2 0x3151 JUMP JUMPDEST PUSH1 0x40 DUP3 ADD SWAP1 POP SWAP2 SWAP1 POP JUMP JUMPDEST PUSH0 PUSH1 0x20 DUP3 ADD SWAP1 POP DUP2 DUP2 SUB PUSH0 DUP4 ADD MSTORE PUSH2 0x31D8 DUP2 PUSH2 0x319F JUMP JUMPDEST SWAP1 POP SWAP2 SWAP1 POP JUMP JUMPDEST PUSH32 0x4E6F20746F6B656E732061726520647565000000000000000000000000000000 PUSH0 DUP3 ADD MSTORE POP JUMP JUMPDEST PUSH0 PUSH2 0x3213 PUSH1 0x11 DUP4 PUSH2 0x2BDE JUMP JUMPDEST SWAP2 POP PUSH2 0x321E DUP3 PUSH2 0x31DF JUMP JUMPDEST PUSH1 0x20 DUP3 ADD SWAP1 POP SWAP2 SWAP1 POP JUMP JUMPDEST PUSH0 PUSH1 0x20 DUP3 ADD SWAP1 POP DUP2 DUP2 SUB PUSH0 DUP4 ADD MSTORE PUSH2 0x3240 DUP2 PUSH2 0x3207 JUMP JUMPDEST SWAP1 POP SWAP2 SWAP1 POP JUMP JUMPDEST PUSH0 PUSH1 0x60 DUP3 ADD SWAP1 POP PUSH2 0x325A PUSH0 DUP4 ADD DUP7 PUSH2 0x2883 JUMP JUMPDEST PUSH2 0x3267 PUSH1 0x20 DUP4 ADD DUP6 PUSH2 0x2883 JUMP JUMPDEST PUSH2 0x3274 PUSH1 0x40 DUP4 ADD DUP5 PUSH2 0x285B JUMP JUMPDEST SWAP5 SWAP4 POP POP POP POP JUMP JUMPDEST PUSH2 0x3285 DUP2 PUSH2 0x26B2 JUMP JUMPDEST DUP2 EQ PUSH2 0x328F JUMPI PUSH0 DUP1 REVERT JUMPDEST POP JUMP JUMPDEST PUSH0 DUP2 MLOAD SWAP1 POP PUSH2 0x32A0 DUP2 PUSH2 0x327C JUMP JUMPDEST SWAP3 SWAP2 POP POP JUMP JUMPDEST PUSH0 PUSH1 0x20 DUP3 DUP5 SUB SLT ISZERO PUSH2 0x32BB JUMPI PUSH2 0x32BA PUSH2 0x262A JUMP JUMPDEST JUMPDEST PUSH0 PUSH2 0x32C8 DUP5 DUP3 DUP6 ADD PUSH2 0x3292 JUMP JUMPDEST SWAP2 POP POP SWAP3 SWAP2 POP POP JUMP JUMPDEST PUSH0 DUP2 MLOAD SWAP1 POP PUSH2 0x32DF DUP2 PUSH2 0x28AB JUMP JUMPDEST SWAP3 SWAP2 POP POP JUMP JUMPDEST PUSH0 PUSH1 0x20 DUP3 DUP5 SUB SLT ISZERO PUSH2 0x32FA JUMPI PUSH2 0x32F9 PUSH2 0x262A JUMP JUMPDEST JUMPDEST PUSH0 PUSH2 0x3307 DUP5 DUP3 DUP6 ADD PUSH2 0x32D1 JUMP JUMPDEST SWAP2 POP POP SWAP3 SWAP2 POP POP JUMP JUMPDEST PUSH0 PUSH1 0x40 DUP3 ADD SWAP1 POP PUSH2 0x3323 PUSH0 DUP4 ADD DUP6 PUSH2 0x2883 JUMP JUMPDEST PUSH2 0x3330 PUSH1 0x20 DUP4 ADD DUP5 PUSH2 0x25F9 JUMP JUMPDEST SWAP4 SWAP3 POP POP POP JUMP JUMPDEST PUSH0 DUP2 MLOAD SWAP1 POP SWAP2 SWAP1 POP JUMP JUMPDEST PUSH0 DUP2 SWAP1 POP SWAP3 SWAP2 POP POP JUMP JUMPDEST PUSH0 PUSH2 0x3355 DUP3 PUSH2 0x3337 JUMP JUMPDEST PUSH2 0x335F DUP2 DUP6 PUSH2 0x3341 JUMP JUMPDEST SWAP4 POP PUSH2 0x336F DUP2 DUP6 PUSH1 0x20 DUP7 ADD PUSH2 0x2BEE JUMP JUMPDEST DUP1 DUP5 ADD SWAP2 POP POP SWAP3 SWAP2 POP POP JUMP JUMPDEST PUSH0 PUSH2 0x3386 DUP3 DUP5 PUSH2 0x334B JUMP JUMPDEST SWAP2 POP DUP2 SWAP1 POP SWAP3 SWAP2 POP POP JUMP INVALID LOG2 PUSH5 0x6970667358 0x22 SLT KECCAK256 0x29 DUP12 0xE3 0xB8 0xF ORIGIN 0xA6 SWAP1 DUP13 CALLDATALOAD SHR 0xA6 0x1F 0xA8 0xF9 0xCE 0xE8 0xC6 0x2E 0xCB MULMOD MULMOD POP PUSH30 0x9DDE31809C5A2F464736F6C634300081A00330000000000000000000000 "
				},
				"gasEstimates": {
					"creation": {
						"codeDepositCost": "2651000",
						"executionCost": "infinite",
						"totalCost": "infinite"
					},
					"external": {
						"COMMUNITY_MEMBER_ROLE()": "372",
						"DEFAULT_ADMIN_ROLE()": "463",
						"INVESTOR_ROLE()": "459",
						"PAUSER_ROLE()": "391",
						"UPGRADER_ROLE()": "435",
						"UPGRADE_INTERFACE_VERSION()": "infinite",
						"addAddressToWhitelist(address)": "infinite",
						"addCommunityMember(address)": "infinite",
						"addInvestor(address)": "infinite",
						"buyTokens(uint256)": "infinite",
						"founder()": "2638",
						"getRoleAdmin(bytes32)": "infinite",
						"grantRole(bytes32,address)": "infinite",
						"hasRole(bytes32,address)": "3285",
						"initialize(address,address,address,address,address,uint256,uint256,uint256,uint256,uint256)": "infinite",
						"pause()": "infinite",
						"paused()": "2637",
						"proxiableUUID()": "infinite",
						"proxyAddress()": "2576",
						"purchasedAmount(address)": "2891",
						"releaseTime()": "2514",
						"releaseTokens()": "infinite",
						"removeAddressFromWhitelist(address)": "infinite",
						"removeCommunityMember(address)": "infinite",
						"removeInvestor(address)": "infinite",
						"renounceRole(bytes32,address)": "infinite",
						"revokeRole(bytes32,address)": "infinite",
						"setTokenPrice(uint256,string)": "infinite",
						"setTotalCap(uint256)": "infinite",
						"supportsInterface(bytes4)": "786",
						"token()": "infinite",
						"tokenPriceCommunity()": "2560",
						"tokenPriceInvestor()": "2536",
						"tokenPricePublic()": "2492",
						"totalCap()": "2471",
						"unpause()": "infinite",
						"upgradeToAndCall(address,bytes)": "infinite",
						"vestedAmount(address)": "2914",
						"whitelistedAddresses(address)": "2924",
						"withdraw()": "infinite"
					},
					"internal": {
						"_authorizeUpgrade(address)": "infinite",
						"_initializeRoles(address,address,address)": "infinite"
					}
				},
				"methodIdentifiers": {
					"COMMUNITY_MEMBER_ROLE()": "00dce23f",
					"DEFAULT_ADMIN_ROLE()": "a217fddf",
					"INVESTOR_ROLE()": "76082a5e",
					"PAUSER_ROLE()": "e63ab1e9",
					"UPGRADER_ROLE()": "f72c0d8b",
					"UPGRADE_INTERFACE_VERSION()": "ad3cb1cc",
					"addAddressToWhitelist(address)": "7b9417c8",
					"addCommunityMember(address)": "5c627358",
					"addInvestor(address)": "e641bde1",
					"buyTokens(uint256)": "3610724e",
					"founder()": "4d853ee5",
					"getRoleAdmin(bytes32)": "248a9ca3",
					"grantRole(bytes32,address)": "2f2ff15d",
					"hasRole(bytes32,address)": "91d14854",
					"initialize(address,address,address,address,address,uint256,uint256,uint256,uint256,uint256)": "46e73271",
					"pause()": "8456cb59",
					"paused()": "5c975abb",
					"proxiableUUID()": "52d1902d",
					"proxyAddress()": "23f5c02d",
					"purchasedAmount(address)": "44c4dcc1",
					"releaseTime()": "b91d4001",
					"releaseTokens()": "a96f8668",
					"removeAddressFromWhitelist(address)": "286dd3f5",
					"removeCommunityMember(address)": "2dbf645a",
					"removeInvestor(address)": "42714978",
					"renounceRole(bytes32,address)": "36568abe",
					"revokeRole(bytes32,address)": "d547741f",
					"setTokenPrice(uint256,string)": "096f072b",
					"setTotalCap(uint256)": "e1884b0f",
					"supportsInterface(bytes4)": "01ffc9a7",
					"token()": "fc0c546a",
					"tokenPriceCommunity()": "0b10d5f2",
					"tokenPriceInvestor()": "d29cb7ad",
					"tokenPricePublic()": "7de69d5f",
					"totalCap()": "16450092",
					"unpause()": "3f4ba83a",
					"upgradeToAndCall(address,bytes)": "4f1ef286",
					"vestedAmount(address)": "384711cc",
					"whitelistedAddresses(address)": "06c933d8",
					"withdraw()": "3ccfd60b"
				}
			},
			"storageLayout": {
				"storage": [
					{
						"astId": 1889,
						"contract": "src/smartcontracts/CQTTokenSaleContractsol.sol:CQTTokenSaleContract",
						"label": "founder",
						"offset": 0,
						"slot": "0",
						"type": "t_address"
					},
					{
						"astId": 1891,
						"contract": "src/smartcontracts/CQTTokenSaleContractsol.sol:CQTTokenSaleContract",
						"label": "tokenPriceInvestor",
						"offset": 0,
						"slot": "1",
						"type": "t_uint256"
					},
					{
						"astId": 1893,
						"contract": "src/smartcontracts/CQTTokenSaleContractsol.sol:CQTTokenSaleContract",
						"label": "tokenPriceCommunity",
						"offset": 0,
						"slot": "2",
						"type": "t_uint256"
					},
					{
						"astId": 1895,
						"contract": "src/smartcontracts/CQTTokenSaleContractsol.sol:CQTTokenSaleContract",
						"label": "tokenPricePublic",
						"offset": 0,
						"slot": "3",
						"type": "t_uint256"
					},
					{
						"astId": 1897,
						"contract": "src/smartcontracts/CQTTokenSaleContractsol.sol:CQTTokenSaleContract",
						"label": "totalCap",
						"offset": 0,
						"slot": "4",
						"type": "t_uint256"
					},
					{
						"astId": 1899,
						"contract": "src/smartcontracts/CQTTokenSaleContractsol.sol:CQTTokenSaleContract",
						"label": "releaseTime",
						"offset": 0,
						"slot": "5",
						"type": "t_uint256"
					},
					{
						"astId": 1903,
						"contract": "src/smartcontracts/CQTTokenSaleContractsol.sol:CQTTokenSaleContract",
						"label": "purchasedAmount",
						"offset": 0,
						"slot": "6",
						"type": "t_mapping(t_address,t_uint256)"
					},
					{
						"astId": 1907,
						"contract": "src/smartcontracts/CQTTokenSaleContractsol.sol:CQTTokenSaleContract",
						"label": "vestedAmount",
						"offset": 0,
						"slot": "7",
						"type": "t_mapping(t_address,t_uint256)"
					},
					{
						"astId": 1911,
						"contract": "src/smartcontracts/CQTTokenSaleContractsol.sol:CQTTokenSaleContract",
						"label": "whitelistedAddresses",
						"offset": 0,
						"slot": "8",
						"type": "t_mapping(t_address,t_bool)"
					},
					{
						"astId": 1914,
						"contract": "src/smartcontracts/CQTTokenSaleContractsol.sol:CQTTokenSaleContract",
						"label": "token",
						"offset": 0,
						"slot": "9",
						"type": "t_contract(IERC20)1859"
					},
					{
						"astId": 1916,
						"contract": "src/smartcontracts/CQTTokenSaleContractsol.sol:CQTTokenSaleContract",
						"label": "proxyAddress",
						"offset": 0,
						"slot": "10",
						"type": "t_address"
					}
				],
				"types": {
					"t_address": {
						"encoding": "inplace",
						"label": "address",
						"numberOfBytes": "20"
					},
					"t_bool": {
						"encoding": "inplace",
						"label": "bool",
						"numberOfBytes": "1"
					},
					"t_contract(IERC20)1859": {
						"encoding": "inplace",
						"label": "contract IERC20",
						"numberOfBytes": "20"
					},
					"t_mapping(t_address,t_bool)": {
						"encoding": "mapping",
						"key": "t_address",
						"label": "mapping(address => bool)",
						"numberOfBytes": "32",
						"value": "t_bool"
					},
					"t_mapping(t_address,t_uint256)": {
						"encoding": "mapping",
						"key": "t_address",
						"label": "mapping(address => uint256)",
						"numberOfBytes": "32",
						"value": "t_uint256"
					},
					"t_uint256": {
						"encoding": "inplace",
						"label": "uint256",
						"numberOfBytes": "32"
					}
				}
			},
			"userdoc": {
				"kind": "user",
				"methods": {},
				"version": 1
			}
		}
	}
}