{
	"data": {
		"bytecode": {
			"linkReferences": {},
			"object": "60a060405230608052348015610013575f80fd5b5061001e5f3361007a565b506100497f65d7a28e3265b37a6474929f336521b332c1681b933f6cb9f3376673440d862a3361007a565b506100747f189ab7a9244df0848122154315af71fe140f3db0fe014031783b0946b8c9d2e33361007a565b50610148565b5f8281527f02dd7bc7dec4dceedda775e58dd541e08a116c6c53815c0bd028192f7b626800602081815260408084206001600160a01b038616855290915282205460ff1661013d575f848152602082815260408083206001600160a01b03871684529091529020805460ff191660011790556100f33390565b6001600160a01b0316836001600160a01b0316857f2f8788117e7eff1d82e926ec794901d17c78024a50270940304540a733656f0d60405160405180910390a46001915050610142565b5f9150505b92915050565b60805161194161016e5f395f81816110e801528181611111015261127201526119415ff3fe60806040526004361061013c575f3560e01c80637b0a47ee116100b3578063ad3cb1cc1161006d578063ad3cb1cc1461034c578063d0f7d24f14610389578063d547741f146103a8578063d5a44f86146103c7578063e63ab1e914610454578063f72c0d8b14610487575f80fd5b80637b0a47ee146102b25780637ebed54c146102c75780638172885b146102dc57806391d14854146102fb578063a217fddf1461031a578063a6b63eb81461032d575f80fd5b806336568abe1161010457806336568abe146102185780634d9a824d146102375780634f1ef2861461025657806352d1902d146102695780635c975abb1461027d5780637b0472f014610293575f80fd5b806301ffc9a714610140578063248a9ca3146101745780632e17de78146101a15780632f2ff15d146101c257806334aab064146101e1575b5f80fd5b34801561014b575f80fd5b5061015f61015a36600461152e565b6104ba565b60405190151581526020015b60405180910390f35b34801561017f575f80fd5b5061019361018e366004611555565b6104f0565b60405190815260200161016b565b3480156101ac575f80fd5b506101c06101bb366004611555565b610510565b005b3480156101cd575f80fd5b506101c06101dc366004611580565b6108d0565b3480156101ec575f80fd5b50603354610200906001600160a01b031681565b6040516001600160a01b03909116815260200161016b565b348015610223575f80fd5b506101c0610232366004611580565b6108f2565b348015610242575f80fd5b50603454610200906001600160a01b031681565b6101c06102643660046115c2565b61092a565b348015610274575f80fd5b50610193610949565b348015610288575f80fd5b505f5460ff1661015f565b34801561029e575f80fd5b506101c06102ad366004611680565b610964565b3480156102bd575f80fd5b5061019360365481565b3480156102d2575f80fd5b5061019360375481565b3480156102e7575f80fd5b50603554610200906001600160a01b031681565b348015610306575f80fd5b5061015f610315366004611580565b610cfc565b348015610325575f80fd5b506101935f81565b348015610338575f80fd5b506101c06103473660046116a0565b610d32565b348015610357575f80fd5b5061037c604051806040016040528060058152602001640352e302e360dc1b81525081565b60405161016b91906116f7565b348015610394575f80fd5b506101c06103a3366004611774565b610e9a565b3480156103b3575f80fd5b506101c06103c2366004611580565b610f53565b3480156103d2575f80fd5b5061041f6103e1366004611555565b60326020525f908152604090208054600182015460028301546003840154600485015460059095015493946001600160a01b03909316939192909186565b604080519687526001600160a01b039095166020870152938501929092526060840152608083015260a082015260c00161016b565b34801561045f575f80fd5b506101937f65d7a28e3265b37a6474929f336521b332c1681b933f6cb9f3376673440d862a81565b348015610492575f80fd5b506101937f189ab7a9244df0848122154315af71fe140f3db0fe014031783b0946b8c9d2e381565b5f6001600160e01b03198216637965db0b60e01b14806104ea57506301ffc9a760e01b6001600160e01b03198316145b92915050565b5f9081525f805160206118ec833981519152602052604090206001015490565b610518610f6f565b5f818152603260205260409020600101546001600160a01b031633146105855760405162461bcd60e51b815260206004820152601a60248201527f4e6f7420746865206f776e6572206f6620746865207374616b6500000000000060448201526064015b60405180910390fd5b5f81815260326020526040902060030154156105dc5760405162461bcd60e51b8152602060048201526016602482015275151bdad95b88185b1c9958591e481d5b9cdd185ad95960521b604482015260640161057c565b5f818152603260205260408120600201546105f790426117ef565b90506037548110156106445760405162461bcd60e51b815260206004820152601660248201527514dd185ada5b99c81c195c9a5bd9081b9bdd081b595d60521b604482015260640161057c565b5f828152603260205260409020426003820155600501546036546106689083611802565b6106729190611802565b5f83815260326020526040908190206004908101839055603354915163a9059cbb60e01b8152339181019190915260248101929092526001600160a01b03169063a9059cbb906044016020604051808303815f875af11580156106d7573d5f803e3d5ffd5b505050506040513d601f19601f820116820180604052508101906106fb9190611819565b506034546040516331a9108f60e11b81526004810184905230916001600160a01b031690636352211e90602401602060405180830381865afa158015610743573d5f803e3d5ffd5b505050506040513d601f19601f820116820180604052508101906107679190611838565b6001600160a01b0316036107df576034546040516323b872dd60e01b8152306004820152336024820152604481018490526001600160a01b03909116906323b872dd906064015f604051808303815f87803b1580156107c4575f80fd5b505af11580156107d6573d5f803e3d5ffd5b50505050610844565b603554604051637921219560e11b81526001600160a01b039091169063f242432a9061081690309033908790600190600401611853565b5f604051808303815f87803b15801561082d575f80fd5b505af115801561083f573d5f803e3d5ffd5b505050505b5f8281526032602090815260408083208381556001810180546001600160a01b031916905560028101849055600381018490556004810184905560050183905580518581523392810192909252429082015260608101919091527fffdaf13b1d96bfc2213355f353f84c19493e0681eb0df26f83d862acd266750a906080015b60405180910390a15050565b6108d9826104f0565b6108e281610fb6565b6108ec8383610fc3565b50505050565b6001600160a01b038116331461091b5760405163334bd91960e11b815260040160405180910390fd5b6109258282611064565b505050565b6109326110dd565b61093b82611181565b61094582826111ab565b5050565b5f610952611267565b505f805160206118cc83398151915290565b61096c610f6f565b6034546040516331a9108f60e11b81526004810184905233916001600160a01b031690636352211e90602401602060405180830381865afa1580156109b3573d5f803e3d5ffd5b505050506040513d601f19601f820116820180604052508101906109d79190611838565b6001600160a01b03161480610a585750603554604051627eeac760e11b8152336004820152602481018490525f916001600160a01b03169062fdd58e90604401602060405180830381865afa158015610a32573d5f803e3d5ffd5b505050506040513d601f19601f82011682018060405250810190610a56919061188a565b115b610aa45760405162461bcd60e51b815260206004820152601a60248201527f4e6f7420746865206f776e6572206f662074686520746f6b656e000000000000604482015260640161057c565b5f8281526032602052604090205415610af65760405162461bcd60e51b8152602060048201526014602482015273151bdad95b88185b1c9958591e481cdd185ad95960621b604482015260640161057c565b6040805160c081018252838152336020808301828152428486019081525f606086018181526080870182815260a088018a81528b84526032909652918890209651875592516001870180546001600160a01b0319166001600160a01b0392831617905591516002870155915160038601559051600480860191909155915160059094019390935560345493516331a9108f60e11b8152908101869052909290911690636352211e90602401602060405180830381865afa158015610bbc573d5f803e3d5ffd5b505050506040513d601f19601f82011682018060405250810190610be09190611838565b6001600160a01b031603610c58576034546040516323b872dd60e01b8152336004820152306024820152604481018490526001600160a01b03909116906323b872dd906064015f604051808303815f87803b158015610c3d575f80fd5b505af1158015610c4f573d5f803e3d5ffd5b50505050610cbd565b603554604051637921219560e11b81526001600160a01b039091169063f242432a90610c8f90339030908790600190600401611853565b5f604051808303815f87803b158015610ca6575f80fd5b505af1158015610cb8573d5f803e3d5ffd5b505050505b6040805183815233602082015242918101919091527f18dcd430020e4d4899772fd94a8b40451dc5044dfb70bc46b532eeae431c864f906060016108c4565b5f9182525f805160206118ec833981519152602090815260408084206001600160a01b0393909316845291905290205460ff1690565b7ff0c57e16840df040f15088dc2f81fe391c3923bec73e23a9662efc9c229c6a008054600160401b810460ff16159067ffffffffffffffff165f81158015610d775750825b90505f8267ffffffffffffffff166001148015610d935750303b155b905081158015610da1575080155b15610dbf5760405163f92ee8a960e01b815260040160405180910390fd5b845467ffffffffffffffff191660011785558315610de957845460ff60401b1916600160401b1785555b610df16112b0565b610df96112b8565b610e016112b0565b603380546001600160a01b03808d166001600160a01b031992831617909255603480548c841690831617905560358054928b1692909116919091179055603687905560378690558315610e8e57845460ff60401b19168555604051600181527fc7f505b2f371ae2175ee4913f4499e1f2633a7b5936321eed1cdaeb6115181d29060200160405180910390a15b50505050505050505050565b610ea2610f6f565b828114610f005760405162461bcd60e51b815260206004820152602660248201527f546f6b656e2049447320616e64207261726974696573206c656e677468206d696044820152650e6dac2e8c6d60d31b606482015260840161057c565b5f5b83811015610f4c57610f44858583818110610f1f57610f1f6118a1565b90506020020135848484818110610f3857610f386118a1565b90506020020135610964565b600101610f02565b5050505050565b610f5c826104f0565b610f6581610fb6565b6108ec8383611064565b5f5460ff1615610fb45760405162461bcd60e51b815260206004820152601060248201526f14185d5cd8589b194e881c185d5cd95960821b604482015260640161057c565b565b610fc081336112c8565b50565b5f5f805160206118ec833981519152610fdc8484610cfc565b61105b575f848152602082815260408083206001600160a01b03871684529091529020805460ff191660011790556110113390565b6001600160a01b0316836001600160a01b0316857f2f8788117e7eff1d82e926ec794901d17c78024a50270940304540a733656f0d60405160405180910390a460019150506104ea565b5f9150506104ea565b5f5f805160206118ec83398151915261107d8484610cfc565b1561105b575f848152602082815260408083206001600160a01b0387168085529252808320805460ff1916905551339287917ff6391f5c32d9c69d2a47ea670b442974b53935d1edc7fd64eb21e047a839171b9190a460019150506104ea565b306001600160a01b037f000000000000000000000000000000000000000000000000000000000000000016148061116357507f00000000000000000000000000000000000000000000000000000000000000006001600160a01b03166111575f805160206118cc833981519152546001600160a01b031690565b6001600160a01b031614155b15610fb45760405163703e46dd60e11b815260040160405180910390fd5b7f189ab7a9244df0848122154315af71fe140f3db0fe014031783b0946b8c9d2e361094581610fb6565b816001600160a01b03166352d1902d6040518163ffffffff1660e01b8152600401602060405180830381865afa925050508015611205575060408051601f3d908101601f191682019092526112029181019061188a565b60015b61122d57604051634c9c8ce360e01b81526001600160a01b038316600482015260240161057c565b5f805160206118cc833981519152811461125d57604051632a87526960e21b81526004810182905260240161057c565b6109258383611301565b306001600160a01b037f00000000000000000000000000000000000000000000000000000000000000001614610fb45760405163703e46dd60e11b815260040160405180910390fd5b610fb4611356565b6112c0611356565b610fb461139f565b6112d28282610cfc565b6109455760405163e2517d3f60e01b81526001600160a01b03821660048201526024810183905260440161057c565b61130a826113b2565b6040516001600160a01b038316907fbc7cd75a20ee27fd9adebab32041f755214dbc6bffa90cc0225b39da2e5c2d3b905f90a280511561134e576109258282611415565b610945611487565b7ff0c57e16840df040f15088dc2f81fe391c3923bec73e23a9662efc9c229c6a0054600160401b900460ff16610fb457604051631afcd79f60e31b815260040160405180910390fd5b6113a7611356565b5f805460ff19169055565b806001600160a01b03163b5f036113e757604051634c9c8ce360e01b81526001600160a01b038216600482015260240161057c565b5f805160206118cc83398151915280546001600160a01b0319166001600160a01b0392909216919091179055565b60605f80846001600160a01b03168460405161143191906118b5565b5f60405180830381855af49150503d805f8114611469576040519150601f19603f3d011682016040523d82523d5f602084013e61146e565b606091505b509150915061147e8583836114a6565b95945050505050565b3415610fb45760405163b398979f60e01b815260040160405180910390fd5b6060826114bb576114b682611505565b6114fe565b81511580156114d257506001600160a01b0384163b155b156114fb57604051639996b31560e01b81526001600160a01b038516600482015260240161057c565b50805b9392505050565b8051156115155780518082602001fd5b604051630a12f52160e11b815260040160405180910390fd5b5f6020828403121561153e575f80fd5b81356001600160e01b0319811681146114fe575f80fd5b5f60208284031215611565575f80fd5b5035919050565b6001600160a01b0381168114610fc0575f80fd5b5f8060408385031215611591575f80fd5b8235915060208301356115a38161156c565b809150509250929050565b634e487b7160e01b5f52604160045260245ffd5b5f80604083850312156115d3575f80fd5b82356115de8161156c565b9150602083013567ffffffffffffffff808211156115fa575f80fd5b818501915085601f83011261160d575f80fd5b81358181111561161f5761161f6115ae565b604051601f8201601f19908116603f01168101908382118183101715611647576116476115ae565b8160405282815288602084870101111561165f575f80fd5b826020860160208301375f6020848301015280955050505050509250929050565b5f8060408385031215611691575f80fd5b50508035926020909101359150565b5f805f805f60a086880312156116b4575f80fd5b85356116bf8161156c565b945060208601356116cf8161156c565b935060408601356116df8161156c565b94979396509394606081013594506080013592915050565b602081525f82518060208401528060208501604085015e5f604082850101526040601f19601f83011684010191505092915050565b5f8083601f84011261173c575f80fd5b50813567ffffffffffffffff811115611753575f80fd5b6020830191508360208260051b850101111561176d575f80fd5b9250929050565b5f805f8060408587031215611787575f80fd5b843567ffffffffffffffff8082111561179e575f80fd5b6117aa8883890161172c565b909650945060208701359150808211156117c2575f80fd5b506117cf8782880161172c565b95989497509550505050565b634e487b7160e01b5f52601160045260245ffd5b818103818111156104ea576104ea6117db565b80820281158282048414176104ea576104ea6117db565b5f60208284031215611829575f80fd5b815180151581146114fe575f80fd5b5f60208284031215611848575f80fd5b81516114fe8161156c565b6001600160a01b0394851681529290931660208301526040820152606081019190915260a0608082018190525f9082015260c00190565b5f6020828403121561189a575f80fd5b5051919050565b634e487b7160e01b5f52603260045260245ffd5b5f82518060208501845e5f92019182525091905056fe360894a13ba1a3210667c828492db98dca3e2076cc3735a920a3ca505d382bbc02dd7bc7dec4dceedda775e58dd541e08a116c6c53815c0bd028192f7b626800a2646970667358221220f8d4e13cfdcff85e59fe5f17b595ad2bb1dde418031a6de05da824637478374164736f6c63430008190033",
			"opcodes": "PUSH1 0xA0 PUSH1 0x40 MSTORE ADDRESS PUSH1 0x80 MSTORE CALLVALUE DUP1 ISZERO PUSH2 0x13 JUMPI PUSH0 DUP1 REVERT JUMPDEST POP PUSH2 0x1E PUSH0 CALLER PUSH2 0x7A JUMP JUMPDEST POP PUSH2 0x49 PUSH32 0x65D7A28E3265B37A6474929F336521B332C1681B933F6CB9F3376673440D862A CALLER PUSH2 0x7A JUMP JUMPDEST POP PUSH2 0x74 PUSH32 0x189AB7A9244DF0848122154315AF71FE140F3DB0FE014031783B0946B8C9D2E3 CALLER PUSH2 0x7A JUMP JUMPDEST POP PUSH2 0x148 JUMP JUMPDEST PUSH0 DUP3 DUP2 MSTORE PUSH32 0x2DD7BC7DEC4DCEEDDA775E58DD541E08A116C6C53815C0BD028192F7B626800 PUSH1 0x20 DUP2 DUP2 MSTORE PUSH1 0x40 DUP1 DUP5 KECCAK256 PUSH1 0x1 PUSH1 0x1 PUSH1 0xA0 SHL SUB DUP7 AND DUP6 MSTORE SWAP1 SWAP2 MSTORE DUP3 KECCAK256 SLOAD PUSH1 0xFF AND PUSH2 0x13D JUMPI PUSH0 DUP5 DUP2 MSTORE PUSH1 0x20 DUP3 DUP2 MSTORE PUSH1 0x40 DUP1 DUP4 KECCAK256 PUSH1 0x1 PUSH1 0x1 PUSH1 0xA0 SHL SUB DUP8 AND DUP5 MSTORE SWAP1 SWAP2 MSTORE SWAP1 KECCAK256 DUP1 SLOAD PUSH1 0xFF NOT AND PUSH1 0x1 OR SWAP1 SSTORE PUSH2 0xF3 CALLER SWAP1 JUMP JUMPDEST PUSH1 0x1 PUSH1 0x1 PUSH1 0xA0 SHL SUB AND DUP4 PUSH1 0x1 PUSH1 0x1 PUSH1 0xA0 SHL SUB AND DUP6 PUSH32 0x2F8788117E7EFF1D82E926EC794901D17C78024A50270940304540A733656F0D PUSH1 0x40 MLOAD PUSH1 0x40 MLOAD DUP1 SWAP2 SUB SWAP1 LOG4 PUSH1 0x1 SWAP2 POP POP PUSH2 0x142 JUMP JUMPDEST PUSH0 SWAP2 POP POP JUMPDEST SWAP3 SWAP2 POP POP JUMP JUMPDEST PUSH1 0x80 MLOAD PUSH2 0x1941 PUSH2 0x16E PUSH0 CODECOPY PUSH0 DUP2 DUP2 PUSH2 0x10E8 ADD MSTORE DUP2 DUP2 PUSH2 0x1111 ADD MSTORE PUSH2 0x1272 ADD MSTORE PUSH2 0x1941 PUSH0 RETURN INVALID PUSH1 0x80 PUSH1 0x40 MSTORE PUSH1 0x4 CALLDATASIZE LT PUSH2 0x13C JUMPI PUSH0 CALLDATALOAD PUSH1 0xE0 SHR DUP1 PUSH4 0x7B0A47EE GT PUSH2 0xB3 JUMPI DUP1 PUSH4 0xAD3CB1CC GT PUSH2 0x6D JUMPI DUP1 PUSH4 0xAD3CB1CC EQ PUSH2 0x34C JUMPI DUP1 PUSH4 0xD0F7D24F EQ PUSH2 0x389 JUMPI DUP1 PUSH4 0xD547741F EQ PUSH2 0x3A8 JUMPI DUP1 PUSH4 0xD5A44F86 EQ PUSH2 0x3C7 JUMPI DUP1 PUSH4 0xE63AB1E9 EQ PUSH2 0x454 JUMPI DUP1 PUSH4 0xF72C0D8B EQ PUSH2 0x487 JUMPI PUSH0 DUP1 REVERT JUMPDEST DUP1 PUSH4 0x7B0A47EE EQ PUSH2 0x2B2 JUMPI DUP1 PUSH4 0x7EBED54C EQ PUSH2 0x2C7 JUMPI DUP1 PUSH4 0x8172885B EQ PUSH2 0x2DC JUMPI DUP1 PUSH4 0x91D14854 EQ PUSH2 0x2FB JUMPI DUP1 PUSH4 0xA217FDDF EQ PUSH2 0x31A JUMPI DUP1 PUSH4 0xA6B63EB8 EQ PUSH2 0x32D JUMPI PUSH0 DUP1 REVERT JUMPDEST DUP1 PUSH4 0x36568ABE GT PUSH2 0x104 JUMPI DUP1 PUSH4 0x36568ABE EQ PUSH2 0x218 JUMPI DUP1 PUSH4 0x4D9A824D EQ PUSH2 0x237 JUMPI DUP1 PUSH4 0x4F1EF286 EQ PUSH2 0x256 JUMPI DUP1 PUSH4 0x52D1902D EQ PUSH2 0x269 JUMPI DUP1 PUSH4 0x5C975ABB EQ PUSH2 0x27D JUMPI DUP1 PUSH4 0x7B0472F0 EQ PUSH2 0x293 JUMPI PUSH0 DUP1 REVERT JUMPDEST DUP1 PUSH4 0x1FFC9A7 EQ PUSH2 0x140 JUMPI DUP1 PUSH4 0x248A9CA3 EQ PUSH2 0x174 JUMPI DUP1 PUSH4 0x2E17DE78 EQ PUSH2 0x1A1 JUMPI DUP1 PUSH4 0x2F2FF15D EQ PUSH2 0x1C2 JUMPI DUP1 PUSH4 0x34AAB064 EQ PUSH2 0x1E1 JUMPI JUMPDEST PUSH0 DUP1 REVERT JUMPDEST CALLVALUE DUP1 ISZERO PUSH2 0x14B JUMPI PUSH0 DUP1 REVERT JUMPDEST POP PUSH2 0x15F PUSH2 0x15A CALLDATASIZE PUSH1 0x4 PUSH2 0x152E JUMP JUMPDEST PUSH2 0x4BA JUMP JUMPDEST PUSH1 0x40 MLOAD SWAP1 ISZERO ISZERO DUP2 MSTORE PUSH1 0x20 ADD JUMPDEST PUSH1 0x40 MLOAD DUP1 SWAP2 SUB SWAP1 RETURN JUMPDEST CALLVALUE DUP1 ISZERO PUSH2 0x17F JUMPI PUSH0 DUP1 REVERT JUMPDEST POP PUSH2 0x193 PUSH2 0x18E CALLDATASIZE PUSH1 0x4 PUSH2 0x1555 JUMP JUMPDEST PUSH2 0x4F0 JUMP JUMPDEST PUSH1 0x40 MLOAD SWAP1 DUP2 MSTORE PUSH1 0x20 ADD PUSH2 0x16B JUMP JUMPDEST CALLVALUE DUP1 ISZERO PUSH2 0x1AC JUMPI PUSH0 DUP1 REVERT JUMPDEST POP PUSH2 0x1C0 PUSH2 0x1BB CALLDATASIZE PUSH1 0x4 PUSH2 0x1555 JUMP JUMPDEST PUSH2 0x510 JUMP JUMPDEST STOP JUMPDEST CALLVALUE DUP1 ISZERO PUSH2 0x1CD JUMPI PUSH0 DUP1 REVERT JUMPDEST POP PUSH2 0x1C0 PUSH2 0x1DC CALLDATASIZE PUSH1 0x4 PUSH2 0x1580 JUMP JUMPDEST PUSH2 0x8D0 JUMP JUMPDEST CALLVALUE DUP1 ISZERO PUSH2 0x1EC JUMPI PUSH0 DUP1 REVERT JUMPDEST POP PUSH1 0x33 SLOAD PUSH2 0x200 SWAP1 PUSH1 0x1 PUSH1 0x1 PUSH1 0xA0 SHL SUB AND DUP2 JUMP JUMPDEST PUSH1 0x40 MLOAD PUSH1 0x1 PUSH1 0x1 PUSH1 0xA0 SHL SUB SWAP1 SWAP2 AND DUP2 MSTORE PUSH1 0x20 ADD PUSH2 0x16B JUMP JUMPDEST CALLVALUE DUP1 ISZERO PUSH2 0x223 JUMPI PUSH0 DUP1 REVERT JUMPDEST POP PUSH2 0x1C0 PUSH2 0x232 CALLDATASIZE PUSH1 0x4 PUSH2 0x1580 JUMP JUMPDEST PUSH2 0x8F2 JUMP JUMPDEST CALLVALUE DUP1 ISZERO PUSH2 0x242 JUMPI PUSH0 DUP1 REVERT JUMPDEST POP PUSH1 0x34 SLOAD PUSH2 0x200 SWAP1 PUSH1 0x1 PUSH1 0x1 PUSH1 0xA0 SHL SUB AND DUP2 JUMP JUMPDEST PUSH2 0x1C0 PUSH2 0x264 CALLDATASIZE PUSH1 0x4 PUSH2 0x15C2 JUMP JUMPDEST PUSH2 0x92A JUMP JUMPDEST CALLVALUE DUP1 ISZERO PUSH2 0x274 JUMPI PUSH0 DUP1 REVERT JUMPDEST POP PUSH2 0x193 PUSH2 0x949 JUMP JUMPDEST CALLVALUE DUP1 ISZERO PUSH2 0x288 JUMPI PUSH0 DUP1 REVERT JUMPDEST POP PUSH0 SLOAD PUSH1 0xFF AND PUSH2 0x15F JUMP JUMPDEST CALLVALUE DUP1 ISZERO PUSH2 0x29E JUMPI PUSH0 DUP1 REVERT JUMPDEST POP PUSH2 0x1C0 PUSH2 0x2AD CALLDATASIZE PUSH1 0x4 PUSH2 0x1680 JUMP JUMPDEST PUSH2 0x964 JUMP JUMPDEST CALLVALUE DUP1 ISZERO PUSH2 0x2BD JUMPI PUSH0 DUP1 REVERT JUMPDEST POP PUSH2 0x193 PUSH1 0x36 SLOAD DUP2 JUMP JUMPDEST CALLVALUE DUP1 ISZERO PUSH2 0x2D2 JUMPI PUSH0 DUP1 REVERT JUMPDEST POP PUSH2 0x193 PUSH1 0x37 SLOAD DUP2 JUMP JUMPDEST CALLVALUE DUP1 ISZERO PUSH2 0x2E7 JUMPI PUSH0 DUP1 REVERT JUMPDEST POP PUSH1 0x35 SLOAD PUSH2 0x200 SWAP1 PUSH1 0x1 PUSH1 0x1 PUSH1 0xA0 SHL SUB AND DUP2 JUMP JUMPDEST CALLVALUE DUP1 ISZERO PUSH2 0x306 JUMPI PUSH0 DUP1 REVERT JUMPDEST POP PUSH2 0x15F PUSH2 0x315 CALLDATASIZE PUSH1 0x4 PUSH2 0x1580 JUMP JUMPDEST PUSH2 0xCFC JUMP JUMPDEST CALLVALUE DUP1 ISZERO PUSH2 0x325 JUMPI PUSH0 DUP1 REVERT JUMPDEST POP PUSH2 0x193 PUSH0 DUP2 JUMP JUMPDEST CALLVALUE DUP1 ISZERO PUSH2 0x338 JUMPI PUSH0 DUP1 REVERT JUMPDEST POP PUSH2 0x1C0 PUSH2 0x347 CALLDATASIZE PUSH1 0x4 PUSH2 0x16A0 JUMP JUMPDEST PUSH2 0xD32 JUMP JUMPDEST CALLVALUE DUP1 ISZERO PUSH2 0x357 JUMPI PUSH0 DUP1 REVERT JUMPDEST POP PUSH2 0x37C PUSH1 0x40 MLOAD DUP1 PUSH1 0x40 ADD PUSH1 0x40 MSTORE DUP1 PUSH1 0x5 DUP2 MSTORE PUSH1 0x20 ADD PUSH5 0x352E302E3 PUSH1 0xDC SHL DUP2 MSTORE POP DUP2 JUMP JUMPDEST PUSH1 0x40 MLOAD PUSH2 0x16B SWAP2 SWAP1 PUSH2 0x16F7 JUMP JUMPDEST CALLVALUE DUP1 ISZERO PUSH2 0x394 JUMPI PUSH0 DUP1 REVERT JUMPDEST POP PUSH2 0x1C0 PUSH2 0x3A3 CALLDATASIZE PUSH1 0x4 PUSH2 0x1774 JUMP JUMPDEST PUSH2 0xE9A JUMP JUMPDEST CALLVALUE DUP1 ISZERO PUSH2 0x3B3 JUMPI PUSH0 DUP1 REVERT JUMPDEST POP PUSH2 0x1C0 PUSH2 0x3C2 CALLDATASIZE PUSH1 0x4 PUSH2 0x1580 JUMP JUMPDEST PUSH2 0xF53 JUMP JUMPDEST CALLVALUE DUP1 ISZERO PUSH2 0x3D2 JUMPI PUSH0 DUP1 REVERT JUMPDEST POP PUSH2 0x41F PUSH2 0x3E1 CALLDATASIZE PUSH1 0x4 PUSH2 0x1555 JUMP JUMPDEST PUSH1 0x32 PUSH1 0x20 MSTORE PUSH0 SWAP1 DUP2 MSTORE PUSH1 0x40 SWAP1 KECCAK256 DUP1 SLOAD PUSH1 0x1 DUP3 ADD SLOAD PUSH1 0x2 DUP4 ADD SLOAD PUSH1 0x3 DUP5 ADD SLOAD PUSH1 0x4 DUP6 ADD SLOAD PUSH1 0x5 SWAP1 SWAP6 ADD SLOAD SWAP4 SWAP5 PUSH1 0x1 PUSH1 0x1 PUSH1 0xA0 SHL SUB SWAP1 SWAP4 AND SWAP4 SWAP2 SWAP3 SWAP1 SWAP2 DUP7 JUMP JUMPDEST PUSH1 0x40 DUP1 MLOAD SWAP7 DUP8 MSTORE PUSH1 0x1 PUSH1 0x1 PUSH1 0xA0 SHL SUB SWAP1 SWAP6 AND PUSH1 0x20 DUP8 ADD MSTORE SWAP4 DUP6 ADD SWAP3 SWAP1 SWAP3 MSTORE PUSH1 0x60 DUP5 ADD MSTORE PUSH1 0x80 DUP4 ADD MSTORE PUSH1 0xA0 DUP3 ADD MSTORE PUSH1 0xC0 ADD PUSH2 0x16B JUMP JUMPDEST CALLVALUE DUP1 ISZERO PUSH2 0x45F JUMPI PUSH0 DUP1 REVERT JUMPDEST POP PUSH2 0x193 PUSH32 0x65D7A28E3265B37A6474929F336521B332C1681B933F6CB9F3376673440D862A DUP2 JUMP JUMPDEST CALLVALUE DUP1 ISZERO PUSH2 0x492 JUMPI PUSH0 DUP1 REVERT JUMPDEST POP PUSH2 0x193 PUSH32 0x189AB7A9244DF0848122154315AF71FE140F3DB0FE014031783B0946B8C9D2E3 DUP2 JUMP JUMPDEST PUSH0 PUSH1 0x1 PUSH1 0x1 PUSH1 0xE0 SHL SUB NOT DUP3 AND PUSH4 0x7965DB0B PUSH1 0xE0 SHL EQ DUP1 PUSH2 0x4EA JUMPI POP PUSH4 0x1FFC9A7 PUSH1 0xE0 SHL PUSH1 0x1 PUSH1 0x1 PUSH1 0xE0 SHL SUB NOT DUP4 AND EQ JUMPDEST SWAP3 SWAP2 POP POP JUMP JUMPDEST PUSH0 SWAP1 DUP2 MSTORE PUSH0 DUP1 MLOAD PUSH1 0x20 PUSH2 0x18EC DUP4 CODECOPY DUP2 MLOAD SWAP2 MSTORE PUSH1 0x20 MSTORE PUSH1 0x40 SWAP1 KECCAK256 PUSH1 0x1 ADD SLOAD SWAP1 JUMP JUMPDEST PUSH2 0x518 PUSH2 0xF6F JUMP JUMPDEST PUSH0 DUP2 DUP2 MSTORE PUSH1 0x32 PUSH1 0x20 MSTORE PUSH1 0x40 SWAP1 KECCAK256 PUSH1 0x1 ADD SLOAD PUSH1 0x1 PUSH1 0x1 PUSH1 0xA0 SHL SUB AND CALLER EQ PUSH2 0x585 JUMPI PUSH1 0x40 MLOAD PUSH3 0x461BCD PUSH1 0xE5 SHL DUP2 MSTORE PUSH1 0x20 PUSH1 0x4 DUP3 ADD MSTORE PUSH1 0x1A PUSH1 0x24 DUP3 ADD MSTORE PUSH32 0x4E6F7420746865206F776E6572206F6620746865207374616B65000000000000 PUSH1 0x44 DUP3 ADD MSTORE PUSH1 0x64 ADD JUMPDEST PUSH1 0x40 MLOAD DUP1 SWAP2 SUB SWAP1 REVERT JUMPDEST PUSH0 DUP2 DUP2 MSTORE PUSH1 0x32 PUSH1 0x20 MSTORE PUSH1 0x40 SWAP1 KECCAK256 PUSH1 0x3 ADD SLOAD ISZERO PUSH2 0x5DC JUMPI PUSH1 0x40 MLOAD PUSH3 0x461BCD PUSH1 0xE5 SHL DUP2 MSTORE PUSH1 0x20 PUSH1 0x4 DUP3 ADD MSTORE PUSH1 0x16 PUSH1 0x24 DUP3 ADD MSTORE PUSH22 0x151BDAD95B88185B1C9958591E481D5B9CDD185AD959 PUSH1 0x52 SHL PUSH1 0x44 DUP3 ADD MSTORE PUSH1 0x64 ADD PUSH2 0x57C JUMP JUMPDEST PUSH0 DUP2 DUP2 MSTORE PUSH1 0x32 PUSH1 0x20 MSTORE PUSH1 0x40 DUP2 KECCAK256 PUSH1 0x2 ADD SLOAD PUSH2 0x5F7 SWAP1 TIMESTAMP PUSH2 0x17EF JUMP JUMPDEST SWAP1 POP PUSH1 0x37 SLOAD DUP2 LT ISZERO PUSH2 0x644 JUMPI PUSH1 0x40 MLOAD PUSH3 0x461BCD PUSH1 0xE5 SHL DUP2 MSTORE PUSH1 0x20 PUSH1 0x4 DUP3 ADD MSTORE PUSH1 0x16 PUSH1 0x24 DUP3 ADD MSTORE PUSH22 0x14DD185ADA5B99C81C195C9A5BD9081B9BDD081B595D PUSH1 0x52 SHL PUSH1 0x44 DUP3 ADD MSTORE PUSH1 0x64 ADD PUSH2 0x57C JUMP JUMPDEST PUSH0 DUP3 DUP2 MSTORE PUSH1 0x32 PUSH1 0x20 MSTORE PUSH1 0x40 SWAP1 KECCAK256 TIMESTAMP PUSH1 0x3 DUP3 ADD SSTORE PUSH1 0x5 ADD SLOAD PUSH1 0x36 SLOAD PUSH2 0x668 SWAP1 DUP4 PUSH2 0x1802 JUMP JUMPDEST PUSH2 0x672 SWAP2 SWAP1 PUSH2 0x1802 JUMP JUMPDEST PUSH0 DUP4 DUP2 MSTORE PUSH1 0x32 PUSH1 0x20 MSTORE PUSH1 0x40 SWAP1 DUP2 SWAP1 KECCAK256 PUSH1 0x4 SWAP1 DUP2 ADD DUP4 SWAP1 SSTORE PUSH1 0x33 SLOAD SWAP2 MLOAD PUSH4 0xA9059CBB PUSH1 0xE0 SHL DUP2 MSTORE CALLER SWAP2 DUP2 ADD SWAP2 SWAP1 SWAP2 MSTORE PUSH1 0x24 DUP2 ADD SWAP3 SWAP1 SWAP3 MSTORE PUSH1 0x1 PUSH1 0x1 PUSH1 0xA0 SHL SUB AND SWAP1 PUSH4 0xA9059CBB SWAP1 PUSH1 0x44 ADD PUSH1 0x20 PUSH1 0x40 MLOAD DUP1 DUP4 SUB DUP2 PUSH0 DUP8 GAS CALL ISZERO DUP1 ISZERO PUSH2 0x6D7 JUMPI RETURNDATASIZE PUSH0 DUP1 RETURNDATACOPY RETURNDATASIZE PUSH0 REVERT JUMPDEST POP POP POP POP PUSH1 0x40 MLOAD RETURNDATASIZE PUSH1 0x1F NOT PUSH1 0x1F DUP3 ADD AND DUP3 ADD DUP1 PUSH1 0x40 MSTORE POP DUP2 ADD SWAP1 PUSH2 0x6FB SWAP2 SWAP1 PUSH2 0x1819 JUMP JUMPDEST POP PUSH1 0x34 SLOAD PUSH1 0x40 MLOAD PUSH4 0x31A9108F PUSH1 0xE1 SHL DUP2 MSTORE PUSH1 0x4 DUP2 ADD DUP5 SWAP1 MSTORE ADDRESS SWAP2 PUSH1 0x1 PUSH1 0x1 PUSH1 0xA0 SHL SUB AND SWAP1 PUSH4 0x6352211E SWAP1 PUSH1 0x24 ADD PUSH1 0x20 PUSH1 0x40 MLOAD DUP1 DUP4 SUB DUP2 DUP7 GAS STATICCALL ISZERO DUP1 ISZERO PUSH2 0x743 JUMPI RETURNDATASIZE PUSH0 DUP1 RETURNDATACOPY RETURNDATASIZE PUSH0 REVERT JUMPDEST POP POP POP POP PUSH1 0x40 MLOAD RETURNDATASIZE PUSH1 0x1F NOT PUSH1 0x1F DUP3 ADD AND DUP3 ADD DUP1 PUSH1 0x40 MSTORE POP DUP2 ADD SWAP1 PUSH2 0x767 SWAP2 SWAP1 PUSH2 0x1838 JUMP JUMPDEST PUSH1 0x1 PUSH1 0x1 PUSH1 0xA0 SHL SUB AND SUB PUSH2 0x7DF JUMPI PUSH1 0x34 SLOAD PUSH1 0x40 MLOAD PUSH4 0x23B872DD PUSH1 0xE0 SHL DUP2 MSTORE ADDRESS PUSH1 0x4 DUP3 ADD MSTORE CALLER PUSH1 0x24 DUP3 ADD MSTORE PUSH1 0x44 DUP2 ADD DUP5 SWAP1 MSTORE PUSH1 0x1 PUSH1 0x1 PUSH1 0xA0 SHL SUB SWAP1 SWAP2 AND SWAP1 PUSH4 0x23B872DD SWAP1 PUSH1 0x64 ADD PUSH0 PUSH1 0x40 MLOAD DUP1 DUP4 SUB DUP2 PUSH0 DUP8 DUP1 EXTCODESIZE ISZERO DUP1 ISZERO PUSH2 0x7C4 JUMPI PUSH0 DUP1 REVERT JUMPDEST POP GAS CALL ISZERO DUP1 ISZERO PUSH2 0x7D6 JUMPI RETURNDATASIZE PUSH0 DUP1 RETURNDATACOPY RETURNDATASIZE PUSH0 REVERT JUMPDEST POP POP POP POP PUSH2 0x844 JUMP JUMPDEST PUSH1 0x35 SLOAD PUSH1 0x40 MLOAD PUSH4 0x79212195 PUSH1 0xE1 SHL DUP2 MSTORE PUSH1 0x1 PUSH1 0x1 PUSH1 0xA0 SHL SUB SWAP1 SWAP2 AND SWAP1 PUSH4 0xF242432A SWAP1 PUSH2 0x816 SWAP1 ADDRESS SWAP1 CALLER SWAP1 DUP8 SWAP1 PUSH1 0x1 SWAP1 PUSH1 0x4 ADD PUSH2 0x1853 JUMP JUMPDEST PUSH0 PUSH1 0x40 MLOAD DUP1 DUP4 SUB DUP2 PUSH0 DUP8 DUP1 EXTCODESIZE ISZERO DUP1 ISZERO PUSH2 0x82D JUMPI PUSH0 DUP1 REVERT JUMPDEST POP GAS CALL ISZERO DUP1 ISZERO PUSH2 0x83F JUMPI RETURNDATASIZE PUSH0 DUP1 RETURNDATACOPY RETURNDATASIZE PUSH0 REVERT JUMPDEST POP POP POP POP JUMPDEST PUSH0 DUP3 DUP2 MSTORE PUSH1 0x32 PUSH1 0x20 SWAP1 DUP2 MSTORE PUSH1 0x40 DUP1 DUP4 KECCAK256 DUP4 DUP2 SSTORE PUSH1 0x1 DUP2 ADD DUP1 SLOAD PUSH1 0x1 PUSH1 0x1 PUSH1 0xA0 SHL SUB NOT AND SWAP1 SSTORE PUSH1 0x2 DUP2 ADD DUP5 SWAP1 SSTORE PUSH1 0x3 DUP2 ADD DUP5 SWAP1 SSTORE PUSH1 0x4 DUP2 ADD DUP5 SWAP1 SSTORE PUSH1 0x5 ADD DUP4 SWAP1 SSTORE DUP1 MLOAD DUP6 DUP2 MSTORE CALLER SWAP3 DUP2 ADD SWAP3 SWAP1 SWAP3 MSTORE TIMESTAMP SWAP1 DUP3 ADD MSTORE PUSH1 0x60 DUP2 ADD SWAP2 SWAP1 SWAP2 MSTORE PUSH32 0xFFDAF13B1D96BFC2213355F353F84C19493E0681EB0DF26F83D862ACD266750A SWAP1 PUSH1 0x80 ADD JUMPDEST PUSH1 0x40 MLOAD DUP1 SWAP2 SUB SWAP1 LOG1 POP POP JUMP JUMPDEST PUSH2 0x8D9 DUP3 PUSH2 0x4F0 JUMP JUMPDEST PUSH2 0x8E2 DUP2 PUSH2 0xFB6 JUMP JUMPDEST PUSH2 0x8EC DUP4 DUP4 PUSH2 0xFC3 JUMP JUMPDEST POP POP POP POP JUMP JUMPDEST PUSH1 0x1 PUSH1 0x1 PUSH1 0xA0 SHL SUB DUP2 AND CALLER EQ PUSH2 0x91B JUMPI PUSH1 0x40 MLOAD PUSH4 0x334BD919 PUSH1 0xE1 SHL DUP2 MSTORE PUSH1 0x4 ADD PUSH1 0x40 MLOAD DUP1 SWAP2 SUB SWAP1 REVERT JUMPDEST PUSH2 0x925 DUP3 DUP3 PUSH2 0x1064 JUMP JUMPDEST POP POP POP JUMP JUMPDEST PUSH2 0x932 PUSH2 0x10DD JUMP JUMPDEST PUSH2 0x93B DUP3 PUSH2 0x1181 JUMP JUMPDEST PUSH2 0x945 DUP3 DUP3 PUSH2 0x11AB JUMP JUMPDEST POP POP JUMP JUMPDEST PUSH0 PUSH2 0x952 PUSH2 0x1267 JUMP JUMPDEST POP PUSH0 DUP1 MLOAD PUSH1 0x20 PUSH2 0x18CC DUP4 CODECOPY DUP2 MLOAD SWAP2 MSTORE SWAP1 JUMP JUMPDEST PUSH2 0x96C PUSH2 0xF6F JUMP JUMPDEST PUSH1 0x34 SLOAD PUSH1 0x40 MLOAD PUSH4 0x31A9108F PUSH1 0xE1 SHL DUP2 MSTORE PUSH1 0x4 DUP2 ADD DUP5 SWAP1 MSTORE CALLER SWAP2 PUSH1 0x1 PUSH1 0x1 PUSH1 0xA0 SHL SUB AND SWAP1 PUSH4 0x6352211E SWAP1 PUSH1 0x24 ADD PUSH1 0x20 PUSH1 0x40 MLOAD DUP1 DUP4 SUB DUP2 DUP7 GAS STATICCALL ISZERO DUP1 ISZERO PUSH2 0x9B3 JUMPI RETURNDATASIZE PUSH0 DUP1 RETURNDATACOPY RETURNDATASIZE PUSH0 REVERT JUMPDEST POP POP POP POP PUSH1 0x40 MLOAD RETURNDATASIZE PUSH1 0x1F NOT PUSH1 0x1F DUP3 ADD AND DUP3 ADD DUP1 PUSH1 0x40 MSTORE POP DUP2 ADD SWAP1 PUSH2 0x9D7 SWAP2 SWAP1 PUSH2 0x1838 JUMP JUMPDEST PUSH1 0x1 PUSH1 0x1 PUSH1 0xA0 SHL SUB AND EQ DUP1 PUSH2 0xA58 JUMPI POP PUSH1 0x35 SLOAD PUSH1 0x40 MLOAD PUSH3 0x7EEAC7 PUSH1 0xE1 SHL DUP2 MSTORE CALLER PUSH1 0x4 DUP3 ADD MSTORE PUSH1 0x24 DUP2 ADD DUP5 SWAP1 MSTORE PUSH0 SWAP2 PUSH1 0x1 PUSH1 0x1 PUSH1 0xA0 SHL SUB AND SWAP1 PUSH3 0xFDD58E SWAP1 PUSH1 0x44 ADD PUSH1 0x20 PUSH1 0x40 MLOAD DUP1 DUP4 SUB DUP2 DUP7 GAS STATICCALL ISZERO DUP1 ISZERO PUSH2 0xA32 JUMPI RETURNDATASIZE PUSH0 DUP1 RETURNDATACOPY RETURNDATASIZE PUSH0 REVERT JUMPDEST POP POP POP POP PUSH1 0x40 MLOAD RETURNDATASIZE PUSH1 0x1F NOT PUSH1 0x1F DUP3 ADD AND DUP3 ADD DUP1 PUSH1 0x40 MSTORE POP DUP2 ADD SWAP1 PUSH2 0xA56 SWAP2 SWAP1 PUSH2 0x188A JUMP JUMPDEST GT JUMPDEST PUSH2 0xAA4 JUMPI PUSH1 0x40 MLOAD PUSH3 0x461BCD PUSH1 0xE5 SHL DUP2 MSTORE PUSH1 0x20 PUSH1 0x4 DUP3 ADD MSTORE PUSH1 0x1A PUSH1 0x24 DUP3 ADD MSTORE PUSH32 0x4E6F7420746865206F776E6572206F662074686520746F6B656E000000000000 PUSH1 0x44 DUP3 ADD MSTORE PUSH1 0x64 ADD PUSH2 0x57C JUMP JUMPDEST PUSH0 DUP3 DUP2 MSTORE PUSH1 0x32 PUSH1 0x20 MSTORE PUSH1 0x40 SWAP1 KECCAK256 SLOAD ISZERO PUSH2 0xAF6 JUMPI PUSH1 0x40 MLOAD PUSH3 0x461BCD PUSH1 0xE5 SHL DUP2 MSTORE PUSH1 0x20 PUSH1 0x4 DUP3 ADD MSTORE PUSH1 0x14 PUSH1 0x24 DUP3 ADD MSTORE PUSH20 0x151BDAD95B88185B1C9958591E481CDD185AD959 PUSH1 0x62 SHL PUSH1 0x44 DUP3 ADD MSTORE PUSH1 0x64 ADD PUSH2 0x57C JUMP JUMPDEST PUSH1 0x40 DUP1 MLOAD PUSH1 0xC0 DUP2 ADD DUP3 MSTORE DUP4 DUP2 MSTORE CALLER PUSH1 0x20 DUP1 DUP4 ADD DUP3 DUP2 MSTORE TIMESTAMP DUP5 DUP7 ADD SWAP1 DUP2 MSTORE PUSH0 PUSH1 0x60 DUP7 ADD DUP2 DUP2 MSTORE PUSH1 0x80 DUP8 ADD DUP3 DUP2 MSTORE PUSH1 0xA0 DUP9 ADD DUP11 DUP2 MSTORE DUP12 DUP5 MSTORE PUSH1 0x32 SWAP1 SWAP7 MSTORE SWAP2 DUP9 SWAP1 KECCAK256 SWAP7 MLOAD DUP8 SSTORE SWAP3 MLOAD PUSH1 0x1 DUP8 ADD DUP1 SLOAD PUSH1 0x1 PUSH1 0x1 PUSH1 0xA0 SHL SUB NOT AND PUSH1 0x1 PUSH1 0x1 PUSH1 0xA0 SHL SUB SWAP3 DUP4 AND OR SWAP1 SSTORE SWAP2 MLOAD PUSH1 0x2 DUP8 ADD SSTORE SWAP2 MLOAD PUSH1 0x3 DUP7 ADD SSTORE SWAP1 MLOAD PUSH1 0x4 DUP1 DUP7 ADD SWAP2 SWAP1 SWAP2 SSTORE SWAP2 MLOAD PUSH1 0x5 SWAP1 SWAP5 ADD SWAP4 SWAP1 SWAP4 SSTORE PUSH1 0x34 SLOAD SWAP4 MLOAD PUSH4 0x31A9108F PUSH1 0xE1 SHL DUP2 MSTORE SWAP1 DUP2 ADD DUP7 SWAP1 MSTORE SWAP1 SWAP3 SWAP1 SWAP2 AND SWAP1 PUSH4 0x6352211E SWAP1 PUSH1 0x24 ADD PUSH1 0x20 PUSH1 0x40 MLOAD DUP1 DUP4 SUB DUP2 DUP7 GAS STATICCALL ISZERO DUP1 ISZERO PUSH2 0xBBC JUMPI RETURNDATASIZE PUSH0 DUP1 RETURNDATACOPY RETURNDATASIZE PUSH0 REVERT JUMPDEST POP POP POP POP PUSH1 0x40 MLOAD RETURNDATASIZE PUSH1 0x1F NOT PUSH1 0x1F DUP3 ADD AND DUP3 ADD DUP1 PUSH1 0x40 MSTORE POP DUP2 ADD SWAP1 PUSH2 0xBE0 SWAP2 SWAP1 PUSH2 0x1838 JUMP JUMPDEST PUSH1 0x1 PUSH1 0x1 PUSH1 0xA0 SHL SUB AND SUB PUSH2 0xC58 JUMPI PUSH1 0x34 SLOAD PUSH1 0x40 MLOAD PUSH4 0x23B872DD PUSH1 0xE0 SHL DUP2 MSTORE CALLER PUSH1 0x4 DUP3 ADD MSTORE ADDRESS PUSH1 0x24 DUP3 ADD MSTORE PUSH1 0x44 DUP2 ADD DUP5 SWAP1 MSTORE PUSH1 0x1 PUSH1 0x1 PUSH1 0xA0 SHL SUB SWAP1 SWAP2 AND SWAP1 PUSH4 0x23B872DD SWAP1 PUSH1 0x64 ADD PUSH0 PUSH1 0x40 MLOAD DUP1 DUP4 SUB DUP2 PUSH0 DUP8 DUP1 EXTCODESIZE ISZERO DUP1 ISZERO PUSH2 0xC3D JUMPI PUSH0 DUP1 REVERT JUMPDEST POP GAS CALL ISZERO DUP1 ISZERO PUSH2 0xC4F JUMPI RETURNDATASIZE PUSH0 DUP1 RETURNDATACOPY RETURNDATASIZE PUSH0 REVERT JUMPDEST POP POP POP POP PUSH2 0xCBD JUMP JUMPDEST PUSH1 0x35 SLOAD PUSH1 0x40 MLOAD PUSH4 0x79212195 PUSH1 0xE1 SHL DUP2 MSTORE PUSH1 0x1 PUSH1 0x1 PUSH1 0xA0 SHL SUB SWAP1 SWAP2 AND SWAP1 PUSH4 0xF242432A SWAP1 PUSH2 0xC8F SWAP1 CALLER SWAP1 ADDRESS SWAP1 DUP8 SWAP1 PUSH1 0x1 SWAP1 PUSH1 0x4 ADD PUSH2 0x1853 JUMP JUMPDEST PUSH0 PUSH1 0x40 MLOAD DUP1 DUP4 SUB DUP2 PUSH0 DUP8 DUP1 EXTCODESIZE ISZERO DUP1 ISZERO PUSH2 0xCA6 JUMPI PUSH0 DUP1 REVERT JUMPDEST POP GAS CALL ISZERO DUP1 ISZERO PUSH2 0xCB8 JUMPI RETURNDATASIZE PUSH0 DUP1 RETURNDATACOPY RETURNDATASIZE PUSH0 REVERT JUMPDEST POP POP POP POP JUMPDEST PUSH1 0x40 DUP1 MLOAD DUP4 DUP2 MSTORE CALLER PUSH1 0x20 DUP3 ADD MSTORE TIMESTAMP SWAP2 DUP2 ADD SWAP2 SWAP1 SWAP2 MSTORE PUSH32 0x18DCD430020E4D4899772FD94A8B40451DC5044DFB70BC46B532EEAE431C864F SWAP1 PUSH1 0x60 ADD PUSH2 0x8C4 JUMP JUMPDEST PUSH0 SWAP2 DUP3 MSTORE PUSH0 DUP1 MLOAD PUSH1 0x20 PUSH2 0x18EC DUP4 CODECOPY DUP2 MLOAD SWAP2 MSTORE PUSH1 0x20 SWAP1 DUP2 MSTORE PUSH1 0x40 DUP1 DUP5 KECCAK256 PUSH1 0x1 PUSH1 0x1 PUSH1 0xA0 SHL SUB SWAP4 SWAP1 SWAP4 AND DUP5 MSTORE SWAP2 SWAP1 MSTORE SWAP1 KECCAK256 SLOAD PUSH1 0xFF AND SWAP1 JUMP JUMPDEST PUSH32 0xF0C57E16840DF040F15088DC2F81FE391C3923BEC73E23A9662EFC9C229C6A00 DUP1 SLOAD PUSH1 0x1 PUSH1 0x40 SHL DUP2 DIV PUSH1 0xFF AND ISZERO SWAP1 PUSH8 0xFFFFFFFFFFFFFFFF AND PUSH0 DUP2 ISZERO DUP1 ISZERO PUSH2 0xD77 JUMPI POP DUP3 JUMPDEST SWAP1 POP PUSH0 DUP3 PUSH8 0xFFFFFFFFFFFFFFFF AND PUSH1 0x1 EQ DUP1 ISZERO PUSH2 0xD93 JUMPI POP ADDRESS EXTCODESIZE ISZERO JUMPDEST SWAP1 POP DUP2 ISZERO DUP1 ISZERO PUSH2 0xDA1 JUMPI POP DUP1 ISZERO JUMPDEST ISZERO PUSH2 0xDBF JUMPI PUSH1 0x40 MLOAD PUSH4 0xF92EE8A9 PUSH1 0xE0 SHL DUP2 MSTORE PUSH1 0x4 ADD PUSH1 0x40 MLOAD DUP1 SWAP2 SUB SWAP1 REVERT JUMPDEST DUP5 SLOAD PUSH8 0xFFFFFFFFFFFFFFFF NOT AND PUSH1 0x1 OR DUP6 SSTORE DUP4 ISZERO PUSH2 0xDE9 JUMPI DUP5 SLOAD PUSH1 0xFF PUSH1 0x40 SHL NOT AND PUSH1 0x1 PUSH1 0x40 SHL OR DUP6 SSTORE JUMPDEST PUSH2 0xDF1 PUSH2 0x12B0 JUMP JUMPDEST PUSH2 0xDF9 PUSH2 0x12B8 JUMP JUMPDEST PUSH2 0xE01 PUSH2 0x12B0 JUMP JUMPDEST PUSH1 0x33 DUP1 SLOAD PUSH1 0x1 PUSH1 0x1 PUSH1 0xA0 SHL SUB DUP1 DUP14 AND PUSH1 0x1 PUSH1 0x1 PUSH1 0xA0 SHL SUB NOT SWAP3 DUP4 AND OR SWAP1 SWAP3 SSTORE PUSH1 0x34 DUP1 SLOAD DUP13 DUP5 AND SWAP1 DUP4 AND OR SWAP1 SSTORE PUSH1 0x35 DUP1 SLOAD SWAP3 DUP12 AND SWAP3 SWAP1 SWAP2 AND SWAP2 SWAP1 SWAP2 OR SWAP1 SSTORE PUSH1 0x36 DUP8 SWAP1 SSTORE PUSH1 0x37 DUP7 SWAP1 SSTORE DUP4 ISZERO PUSH2 0xE8E JUMPI DUP5 SLOAD PUSH1 0xFF PUSH1 0x40 SHL NOT AND DUP6 SSTORE PUSH1 0x40 MLOAD PUSH1 0x1 DUP2 MSTORE PUSH32 0xC7F505B2F371AE2175EE4913F4499E1F2633A7B5936321EED1CDAEB6115181D2 SWAP1 PUSH1 0x20 ADD PUSH1 0x40 MLOAD DUP1 SWAP2 SUB SWAP1 LOG1 JUMPDEST POP POP POP POP POP POP POP POP POP POP JUMP JUMPDEST PUSH2 0xEA2 PUSH2 0xF6F JUMP JUMPDEST DUP3 DUP2 EQ PUSH2 0xF00 JUMPI PUSH1 0x40 MLOAD PUSH3 0x461BCD PUSH1 0xE5 SHL DUP2 MSTORE PUSH1 0x20 PUSH1 0x4 DUP3 ADD MSTORE PUSH1 0x26 PUSH1 0x24 DUP3 ADD MSTORE PUSH32 0x546F6B656E2049447320616E64207261726974696573206C656E677468206D69 PUSH1 0x44 DUP3 ADD MSTORE PUSH6 0xE6DAC2E8C6D PUSH1 0xD3 SHL PUSH1 0x64 DUP3 ADD MSTORE PUSH1 0x84 ADD PUSH2 0x57C JUMP JUMPDEST PUSH0 JUMPDEST DUP4 DUP2 LT ISZERO PUSH2 0xF4C JUMPI PUSH2 0xF44 DUP6 DUP6 DUP4 DUP2 DUP2 LT PUSH2 0xF1F JUMPI PUSH2 0xF1F PUSH2 0x18A1 JUMP JUMPDEST SWAP1 POP PUSH1 0x20 MUL ADD CALLDATALOAD DUP5 DUP5 DUP5 DUP2 DUP2 LT PUSH2 0xF38 JUMPI PUSH2 0xF38 PUSH2 0x18A1 JUMP JUMPDEST SWAP1 POP PUSH1 0x20 MUL ADD CALLDATALOAD PUSH2 0x964 JUMP JUMPDEST PUSH1 0x1 ADD PUSH2 0xF02 JUMP JUMPDEST POP POP POP POP POP JUMP JUMPDEST PUSH2 0xF5C DUP3 PUSH2 0x4F0 JUMP JUMPDEST PUSH2 0xF65 DUP2 PUSH2 0xFB6 JUMP JUMPDEST PUSH2 0x8EC DUP4 DUP4 PUSH2 0x1064 JUMP JUMPDEST PUSH0 SLOAD PUSH1 0xFF AND ISZERO PUSH2 0xFB4 JUMPI PUSH1 0x40 MLOAD PUSH3 0x461BCD PUSH1 0xE5 SHL DUP2 MSTORE PUSH1 0x20 PUSH1 0x4 DUP3 ADD MSTORE PUSH1 0x10 PUSH1 0x24 DUP3 ADD MSTORE PUSH16 0x14185D5CD8589B194E881C185D5CD959 PUSH1 0x82 SHL PUSH1 0x44 DUP3 ADD MSTORE PUSH1 0x64 ADD PUSH2 0x57C JUMP JUMPDEST JUMP JUMPDEST PUSH2 0xFC0 DUP2 CALLER PUSH2 0x12C8 JUMP JUMPDEST POP JUMP JUMPDEST PUSH0 PUSH0 DUP1 MLOAD PUSH1 0x20 PUSH2 0x18EC DUP4 CODECOPY DUP2 MLOAD SWAP2 MSTORE PUSH2 0xFDC DUP5 DUP5 PUSH2 0xCFC JUMP JUMPDEST PUSH2 0x105B JUMPI PUSH0 DUP5 DUP2 MSTORE PUSH1 0x20 DUP3 DUP2 MSTORE PUSH1 0x40 DUP1 DUP4 KECCAK256 PUSH1 0x1 PUSH1 0x1 PUSH1 0xA0 SHL SUB DUP8 AND DUP5 MSTORE SWAP1 SWAP2 MSTORE SWAP1 KECCAK256 DUP1 SLOAD PUSH1 0xFF NOT AND PUSH1 0x1 OR SWAP1 SSTORE PUSH2 0x1011 CALLER SWAP1 JUMP JUMPDEST PUSH1 0x1 PUSH1 0x1 PUSH1 0xA0 SHL SUB AND DUP4 PUSH1 0x1 PUSH1 0x1 PUSH1 0xA0 SHL SUB AND DUP6 PUSH32 0x2F8788117E7EFF1D82E926EC794901D17C78024A50270940304540A733656F0D PUSH1 0x40 MLOAD PUSH1 0x40 MLOAD DUP1 SWAP2 SUB SWAP1 LOG4 PUSH1 0x1 SWAP2 POP POP PUSH2 0x4EA JUMP JUMPDEST PUSH0 SWAP2 POP POP PUSH2 0x4EA JUMP JUMPDEST PUSH0 PUSH0 DUP1 MLOAD PUSH1 0x20 PUSH2 0x18EC DUP4 CODECOPY DUP2 MLOAD SWAP2 MSTORE PUSH2 0x107D DUP5 DUP5 PUSH2 0xCFC JUMP JUMPDEST ISZERO PUSH2 0x105B JUMPI PUSH0 DUP5 DUP2 MSTORE PUSH1 0x20 DUP3 DUP2 MSTORE PUSH1 0x40 DUP1 DUP4 KECCAK256 PUSH1 0x1 PUSH1 0x1 PUSH1 0xA0 SHL SUB DUP8 AND DUP1 DUP6 MSTORE SWAP3 MSTORE DUP1 DUP4 KECCAK256 DUP1 SLOAD PUSH1 0xFF NOT AND SWAP1 SSTORE MLOAD CALLER SWAP3 DUP8 SWAP2 PUSH32 0xF6391F5C32D9C69D2A47EA670B442974B53935D1EDC7FD64EB21E047A839171B SWAP2 SWAP1 LOG4 PUSH1 0x1 SWAP2 POP POP PUSH2 0x4EA JUMP JUMPDEST ADDRESS PUSH1 0x1 PUSH1 0x1 PUSH1 0xA0 SHL SUB PUSH32 0x0 AND EQ DUP1 PUSH2 0x1163 JUMPI POP PUSH32 0x0 PUSH1 0x1 PUSH1 0x1 PUSH1 0xA0 SHL SUB AND PUSH2 0x1157 PUSH0 DUP1 MLOAD PUSH1 0x20 PUSH2 0x18CC DUP4 CODECOPY DUP2 MLOAD SWAP2 MSTORE SLOAD PUSH1 0x1 PUSH1 0x1 PUSH1 0xA0 SHL SUB AND SWAP1 JUMP JUMPDEST PUSH1 0x1 PUSH1 0x1 PUSH1 0xA0 SHL SUB AND EQ ISZERO JUMPDEST ISZERO PUSH2 0xFB4 JUMPI PUSH1 0x40 MLOAD PUSH4 0x703E46DD PUSH1 0xE1 SHL DUP2 MSTORE PUSH1 0x4 ADD PUSH1 0x40 MLOAD DUP1 SWAP2 SUB SWAP1 REVERT JUMPDEST PUSH32 0x189AB7A9244DF0848122154315AF71FE140F3DB0FE014031783B0946B8C9D2E3 PUSH2 0x945 DUP2 PUSH2 0xFB6 JUMP JUMPDEST DUP2 PUSH1 0x1 PUSH1 0x1 PUSH1 0xA0 SHL SUB AND PUSH4 0x52D1902D PUSH1 0x40 MLOAD DUP2 PUSH4 0xFFFFFFFF AND PUSH1 0xE0 SHL DUP2 MSTORE PUSH1 0x4 ADD PUSH1 0x20 PUSH1 0x40 MLOAD DUP1 DUP4 SUB DUP2 DUP7 GAS STATICCALL SWAP3 POP POP POP DUP1 ISZERO PUSH2 0x1205 JUMPI POP PUSH1 0x40 DUP1 MLOAD PUSH1 0x1F RETURNDATASIZE SWAP1 DUP2 ADD PUSH1 0x1F NOT AND DUP3 ADD SWAP1 SWAP3 MSTORE PUSH2 0x1202 SWAP2 DUP2 ADD SWAP1 PUSH2 0x188A JUMP JUMPDEST PUSH1 0x1 JUMPDEST PUSH2 0x122D JUMPI PUSH1 0x40 MLOAD PUSH4 0x4C9C8CE3 PUSH1 0xE0 SHL DUP2 MSTORE PUSH1 0x1 PUSH1 0x1 PUSH1 0xA0 SHL SUB DUP4 AND PUSH1 0x4 DUP3 ADD MSTORE PUSH1 0x24 ADD PUSH2 0x57C JUMP JUMPDEST PUSH0 DUP1 MLOAD PUSH1 0x20 PUSH2 0x18CC DUP4 CODECOPY DUP2 MLOAD SWAP2 MSTORE DUP2 EQ PUSH2 0x125D JUMPI PUSH1 0x40 MLOAD PUSH4 0x2A875269 PUSH1 0xE2 SHL DUP2 MSTORE PUSH1 0x4 DUP2 ADD DUP3 SWAP1 MSTORE PUSH1 0x24 ADD PUSH2 0x57C JUMP JUMPDEST PUSH2 0x925 DUP4 DUP4 PUSH2 0x1301 JUMP JUMPDEST ADDRESS PUSH1 0x1 PUSH1 0x1 PUSH1 0xA0 SHL SUB PUSH32 0x0 AND EQ PUSH2 0xFB4 JUMPI PUSH1 0x40 MLOAD PUSH4 0x703E46DD PUSH1 0xE1 SHL DUP2 MSTORE PUSH1 0x4 ADD PUSH1 0x40 MLOAD DUP1 SWAP2 SUB SWAP1 REVERT JUMPDEST PUSH2 0xFB4 PUSH2 0x1356 JUMP JUMPDEST PUSH2 0x12C0 PUSH2 0x1356 JUMP JUMPDEST PUSH2 0xFB4 PUSH2 0x139F JUMP JUMPDEST PUSH2 0x12D2 DUP3 DUP3 PUSH2 0xCFC JUMP JUMPDEST PUSH2 0x945 JUMPI PUSH1 0x40 MLOAD PUSH4 0xE2517D3F PUSH1 0xE0 SHL DUP2 MSTORE PUSH1 0x1 PUSH1 0x1 PUSH1 0xA0 SHL SUB DUP3 AND PUSH1 0x4 DUP3 ADD MSTORE PUSH1 0x24 DUP2 ADD DUP4 SWAP1 MSTORE PUSH1 0x44 ADD PUSH2 0x57C JUMP JUMPDEST PUSH2 0x130A DUP3 PUSH2 0x13B2 JUMP JUMPDEST PUSH1 0x40 MLOAD PUSH1 0x1 PUSH1 0x1 PUSH1 0xA0 SHL SUB DUP4 AND SWAP1 PUSH32 0xBC7CD75A20EE27FD9ADEBAB32041F755214DBC6BFFA90CC0225B39DA2E5C2D3B SWAP1 PUSH0 SWAP1 LOG2 DUP1 MLOAD ISZERO PUSH2 0x134E JUMPI PUSH2 0x925 DUP3 DUP3 PUSH2 0x1415 JUMP JUMPDEST PUSH2 0x945 PUSH2 0x1487 JUMP JUMPDEST PUSH32 0xF0C57E16840DF040F15088DC2F81FE391C3923BEC73E23A9662EFC9C229C6A00 SLOAD PUSH1 0x1 PUSH1 0x40 SHL SWAP1 DIV PUSH1 0xFF AND PUSH2 0xFB4 JUMPI PUSH1 0x40 MLOAD PUSH4 0x1AFCD79F PUSH1 0xE3 SHL DUP2 MSTORE PUSH1 0x4 ADD PUSH1 0x40 MLOAD DUP1 SWAP2 SUB SWAP1 REVERT JUMPDEST PUSH2 0x13A7 PUSH2 0x1356 JUMP JUMPDEST PUSH0 DUP1 SLOAD PUSH1 0xFF NOT AND SWAP1 SSTORE JUMP JUMPDEST DUP1 PUSH1 0x1 PUSH1 0x1 PUSH1 0xA0 SHL SUB AND EXTCODESIZE PUSH0 SUB PUSH2 0x13E7 JUMPI PUSH1 0x40 MLOAD PUSH4 0x4C9C8CE3 PUSH1 0xE0 SHL DUP2 MSTORE PUSH1 0x1 PUSH1 0x1 PUSH1 0xA0 SHL SUB DUP3 AND PUSH1 0x4 DUP3 ADD MSTORE PUSH1 0x24 ADD PUSH2 0x57C JUMP JUMPDEST PUSH0 DUP1 MLOAD PUSH1 0x20 PUSH2 0x18CC DUP4 CODECOPY DUP2 MLOAD SWAP2 MSTORE DUP1 SLOAD PUSH1 0x1 PUSH1 0x1 PUSH1 0xA0 SHL SUB NOT AND PUSH1 0x1 PUSH1 0x1 PUSH1 0xA0 SHL SUB SWAP3 SWAP1 SWAP3 AND SWAP2 SWAP1 SWAP2 OR SWAP1 SSTORE JUMP JUMPDEST PUSH1 0x60 PUSH0 DUP1 DUP5 PUSH1 0x1 PUSH1 0x1 PUSH1 0xA0 SHL SUB AND DUP5 PUSH1 0x40 MLOAD PUSH2 0x1431 SWAP2 SWAP1 PUSH2 0x18B5 JUMP JUMPDEST PUSH0 PUSH1 0x40 MLOAD DUP1 DUP4 SUB DUP2 DUP6 GAS DELEGATECALL SWAP2 POP POP RETURNDATASIZE DUP1 PUSH0 DUP2 EQ PUSH2 0x1469 JUMPI PUSH1 0x40 MLOAD SWAP2 POP PUSH1 0x1F NOT PUSH1 0x3F RETURNDATASIZE ADD AND DUP3 ADD PUSH1 0x40 MSTORE RETURNDATASIZE DUP3 MSTORE RETURNDATASIZE PUSH0 PUSH1 0x20 DUP5 ADD RETURNDATACOPY PUSH2 0x146E JUMP JUMPDEST PUSH1 0x60 SWAP2 POP JUMPDEST POP SWAP2 POP SWAP2 POP PUSH2 0x147E DUP6 DUP4 DUP4 PUSH2 0x14A6 JUMP JUMPDEST SWAP6 SWAP5 POP POP POP POP POP JUMP JUMPDEST CALLVALUE ISZERO PUSH2 0xFB4 JUMPI PUSH1 0x40 MLOAD PUSH4 0xB398979F PUSH1 0xE0 SHL DUP2 MSTORE PUSH1 0x4 ADD PUSH1 0x40 MLOAD DUP1 SWAP2 SUB SWAP1 REVERT JUMPDEST PUSH1 0x60 DUP3 PUSH2 0x14BB JUMPI PUSH2 0x14B6 DUP3 PUSH2 0x1505 JUMP JUMPDEST PUSH2 0x14FE JUMP JUMPDEST DUP2 MLOAD ISZERO DUP1 ISZERO PUSH2 0x14D2 JUMPI POP PUSH1 0x1 PUSH1 0x1 PUSH1 0xA0 SHL SUB DUP5 AND EXTCODESIZE ISZERO JUMPDEST ISZERO PUSH2 0x14FB JUMPI PUSH1 0x40 MLOAD PUSH4 0x9996B315 PUSH1 0xE0 SHL DUP2 MSTORE PUSH1 0x1 PUSH1 0x1 PUSH1 0xA0 SHL SUB DUP6 AND PUSH1 0x4 DUP3 ADD MSTORE PUSH1 0x24 ADD PUSH2 0x57C JUMP JUMPDEST POP DUP1 JUMPDEST SWAP4 SWAP3 POP POP POP JUMP JUMPDEST DUP1 MLOAD ISZERO PUSH2 0x1515 JUMPI DUP1 MLOAD DUP1 DUP3 PUSH1 0x20 ADD REVERT JUMPDEST PUSH1 0x40 MLOAD PUSH4 0xA12F521 PUSH1 0xE1 SHL DUP2 MSTORE PUSH1 0x4 ADD PUSH1 0x40 MLOAD DUP1 SWAP2 SUB SWAP1 REVERT JUMPDEST PUSH0 PUSH1 0x20 DUP3 DUP5 SUB SLT ISZERO PUSH2 0x153E JUMPI PUSH0 DUP1 REVERT JUMPDEST DUP2 CALLDATALOAD PUSH1 0x1 PUSH1 0x1 PUSH1 0xE0 SHL SUB NOT DUP2 AND DUP2 EQ PUSH2 0x14FE JUMPI PUSH0 DUP1 REVERT JUMPDEST PUSH0 PUSH1 0x20 DUP3 DUP5 SUB SLT ISZERO PUSH2 0x1565 JUMPI PUSH0 DUP1 REVERT JUMPDEST POP CALLDATALOAD SWAP2 SWAP1 POP JUMP JUMPDEST PUSH1 0x1 PUSH1 0x1 PUSH1 0xA0 SHL SUB DUP2 AND DUP2 EQ PUSH2 0xFC0 JUMPI PUSH0 DUP1 REVERT JUMPDEST PUSH0 DUP1 PUSH1 0x40 DUP4 DUP6 SUB SLT ISZERO PUSH2 0x1591 JUMPI PUSH0 DUP1 REVERT JUMPDEST DUP3 CALLDATALOAD SWAP2 POP PUSH1 0x20 DUP4 ADD CALLDATALOAD PUSH2 0x15A3 DUP2 PUSH2 0x156C JUMP JUMPDEST DUP1 SWAP2 POP POP SWAP3 POP SWAP3 SWAP1 POP JUMP JUMPDEST PUSH4 0x4E487B71 PUSH1 0xE0 SHL PUSH0 MSTORE PUSH1 0x41 PUSH1 0x4 MSTORE PUSH1 0x24 PUSH0 REVERT JUMPDEST PUSH0 DUP1 PUSH1 0x40 DUP4 DUP6 SUB SLT ISZERO PUSH2 0x15D3 JUMPI PUSH0 DUP1 REVERT JUMPDEST DUP3 CALLDATALOAD PUSH2 0x15DE DUP2 PUSH2 0x156C JUMP JUMPDEST SWAP2 POP PUSH1 0x20 DUP4 ADD CALLDATALOAD PUSH8 0xFFFFFFFFFFFFFFFF DUP1 DUP3 GT ISZERO PUSH2 0x15FA JUMPI PUSH0 DUP1 REVERT JUMPDEST DUP2 DUP6 ADD SWAP2 POP DUP6 PUSH1 0x1F DUP4 ADD SLT PUSH2 0x160D JUMPI PUSH0 DUP1 REVERT JUMPDEST DUP2 CALLDATALOAD DUP2 DUP2 GT ISZERO PUSH2 0x161F JUMPI PUSH2 0x161F PUSH2 0x15AE JUMP JUMPDEST PUSH1 0x40 MLOAD PUSH1 0x1F DUP3 ADD PUSH1 0x1F NOT SWAP1 DUP2 AND PUSH1 0x3F ADD AND DUP2 ADD SWAP1 DUP4 DUP3 GT DUP2 DUP4 LT OR ISZERO PUSH2 0x1647 JUMPI PUSH2 0x1647 PUSH2 0x15AE JUMP JUMPDEST DUP2 PUSH1 0x40 MSTORE DUP3 DUP2 MSTORE DUP9 PUSH1 0x20 DUP5 DUP8 ADD ADD GT ISZERO PUSH2 0x165F JUMPI PUSH0 DUP1 REVERT JUMPDEST DUP3 PUSH1 0x20 DUP7 ADD PUSH1 0x20 DUP4 ADD CALLDATACOPY PUSH0 PUSH1 0x20 DUP5 DUP4 ADD ADD MSTORE DUP1 SWAP6 POP POP POP POP POP POP SWAP3 POP SWAP3 SWAP1 POP JUMP JUMPDEST PUSH0 DUP1 PUSH1 0x40 DUP4 DUP6 SUB SLT ISZERO PUSH2 0x1691 JUMPI PUSH0 DUP1 REVERT JUMPDEST POP POP DUP1 CALLDATALOAD SWAP3 PUSH1 0x20 SWAP1 SWAP2 ADD CALLDATALOAD SWAP2 POP JUMP JUMPDEST PUSH0 DUP1 PUSH0 DUP1 PUSH0 PUSH1 0xA0 DUP7 DUP9 SUB SLT ISZERO PUSH2 0x16B4 JUMPI PUSH0 DUP1 REVERT JUMPDEST DUP6 CALLDATALOAD PUSH2 0x16BF DUP2 PUSH2 0x156C JUMP JUMPDEST SWAP5 POP PUSH1 0x20 DUP7 ADD CALLDATALOAD PUSH2 0x16CF DUP2 PUSH2 0x156C JUMP JUMPDEST SWAP4 POP PUSH1 0x40 DUP7 ADD CALLDATALOAD PUSH2 0x16DF DUP2 PUSH2 0x156C JUMP JUMPDEST SWAP5 SWAP8 SWAP4 SWAP7 POP SWAP4 SWAP5 PUSH1 0x60 DUP2 ADD CALLDATALOAD SWAP5 POP PUSH1 0x80 ADD CALLDATALOAD SWAP3 SWAP2 POP POP JUMP JUMPDEST PUSH1 0x20 DUP2 MSTORE PUSH0 DUP3 MLOAD DUP1 PUSH1 0x20 DUP5 ADD MSTORE DUP1 PUSH1 0x20 DUP6 ADD PUSH1 0x40 DUP6 ADD MCOPY PUSH0 PUSH1 0x40 DUP3 DUP6 ADD ADD MSTORE PUSH1 0x40 PUSH1 0x1F NOT PUSH1 0x1F DUP4 ADD AND DUP5 ADD ADD SWAP2 POP POP SWAP3 SWAP2 POP POP JUMP JUMPDEST PUSH0 DUP1 DUP4 PUSH1 0x1F DUP5 ADD SLT PUSH2 0x173C JUMPI PUSH0 DUP1 REVERT JUMPDEST POP DUP2 CALLDATALOAD PUSH8 0xFFFFFFFFFFFFFFFF DUP2 GT ISZERO PUSH2 0x1753 JUMPI PUSH0 DUP1 REVERT JUMPDEST PUSH1 0x20 DUP4 ADD SWAP2 POP DUP4 PUSH1 0x20 DUP3 PUSH1 0x5 SHL DUP6 ADD ADD GT ISZERO PUSH2 0x176D JUMPI PUSH0 DUP1 REVERT JUMPDEST SWAP3 POP SWAP3 SWAP1 POP JUMP JUMPDEST PUSH0 DUP1 PUSH0 DUP1 PUSH1 0x40 DUP6 DUP8 SUB SLT ISZERO PUSH2 0x1787 JUMPI PUSH0 DUP1 REVERT JUMPDEST DUP5 CALLDATALOAD PUSH8 0xFFFFFFFFFFFFFFFF DUP1 DUP3 GT ISZERO PUSH2 0x179E JUMPI PUSH0 DUP1 REVERT JUMPDEST PUSH2 0x17AA DUP9 DUP4 DUP10 ADD PUSH2 0x172C JUMP JUMPDEST SWAP1 SWAP7 POP SWAP5 POP PUSH1 0x20 DUP8 ADD CALLDATALOAD SWAP2 POP DUP1 DUP3 GT ISZERO PUSH2 0x17C2 JUMPI PUSH0 DUP1 REVERT JUMPDEST POP PUSH2 0x17CF DUP8 DUP3 DUP9 ADD PUSH2 0x172C JUMP JUMPDEST SWAP6 SWAP9 SWAP5 SWAP8 POP SWAP6 POP POP POP POP JUMP JUMPDEST PUSH4 0x4E487B71 PUSH1 0xE0 SHL PUSH0 MSTORE PUSH1 0x11 PUSH1 0x4 MSTORE PUSH1 0x24 PUSH0 REVERT JUMPDEST DUP2 DUP2 SUB DUP2 DUP2 GT ISZERO PUSH2 0x4EA JUMPI PUSH2 0x4EA PUSH2 0x17DB JUMP JUMPDEST DUP1 DUP3 MUL DUP2 ISZERO DUP3 DUP3 DIV DUP5 EQ OR PUSH2 0x4EA JUMPI PUSH2 0x4EA PUSH2 0x17DB JUMP JUMPDEST PUSH0 PUSH1 0x20 DUP3 DUP5 SUB SLT ISZERO PUSH2 0x1829 JUMPI PUSH0 DUP1 REVERT JUMPDEST DUP2 MLOAD DUP1 ISZERO ISZERO DUP2 EQ PUSH2 0x14FE JUMPI PUSH0 DUP1 REVERT JUMPDEST PUSH0 PUSH1 0x20 DUP3 DUP5 SUB SLT ISZERO PUSH2 0x1848 JUMPI PUSH0 DUP1 REVERT JUMPDEST DUP2 MLOAD PUSH2 0x14FE DUP2 PUSH2 0x156C JUMP JUMPDEST PUSH1 0x1 PUSH1 0x1 PUSH1 0xA0 SHL SUB SWAP5 DUP6 AND DUP2 MSTORE SWAP3 SWAP1 SWAP4 AND PUSH1 0x20 DUP4 ADD MSTORE PUSH1 0x40 DUP3 ADD MSTORE PUSH1 0x60 DUP2 ADD SWAP2 SWAP1 SWAP2 MSTORE PUSH1 0xA0 PUSH1 0x80 DUP3 ADD DUP2 SWAP1 MSTORE PUSH0 SWAP1 DUP3 ADD MSTORE PUSH1 0xC0 ADD SWAP1 JUMP JUMPDEST PUSH0 PUSH1 0x20 DUP3 DUP5 SUB SLT ISZERO PUSH2 0x189A JUMPI PUSH0 DUP1 REVERT JUMPDEST POP MLOAD SWAP2 SWAP1 POP JUMP JUMPDEST PUSH4 0x4E487B71 PUSH1 0xE0 SHL PUSH0 MSTORE PUSH1 0x32 PUSH1 0x4 MSTORE PUSH1 0x24 PUSH0 REVERT JUMPDEST PUSH0 DUP3 MLOAD DUP1 PUSH1 0x20 DUP6 ADD DUP5 MCOPY PUSH0 SWAP3 ADD SWAP2 DUP3 MSTORE POP SWAP2 SWAP1 POP JUMP INVALID CALLDATASIZE ADDMOD SWAP5 LOG1 EXTCODESIZE LOG1 LOG3 0x21 MOD PUSH8 0xC828492DB98DCA3E KECCAK256 PUSH23 0xCC3735A920A3CA505D382BBC02DD7BC7DEC4DCEEDDA775 0xE5 DUP14 0xD5 COINBASE 0xE0 DUP11 GT PUSH13 0x6C53815C0BD028192F7B626800 LOG2 PUSH5 0x6970667358 0x22 SLT KECCAK256 0xF8 0xD4 0xE1 EXTCODECOPY REVERT 0xCF 0xF8 MCOPY MSIZE INVALID PUSH0 OR 0xB5 SWAP6 0xAD 0x2B 0xB1 0xDD 0xE4 XOR SUB BYTE PUSH14 0xE05DA824637478374164736F6C63 NUMBER STOP ADDMOD NOT STOP CALLER "
		},
		"gasEstimates": {
			"creation": {
				"codeDepositCost": "1293000",
				"executionCost": "infinite",
				"totalCost": "infinite"
			},
			"external": {
				"DEFAULT_ADMIN_ROLE()": "304",
				"PAUSER_ROLE()": "304",
				"UPGRADER_ROLE()": "326",
				"UPGRADE_INTERFACE_VERSION()": "infinite",
				"cqnft1155Token()": "2403",
				"cqnftToken()": "2381",
				"cqtToken()": "2448",
				"getRoleAdmin(bytes32)": "infinite",
				"grantRole(bytes32,address)": "infinite",
				"hasRole(bytes32,address)": "infinite",
				"initialize(address,address,address,uint256,uint256)": "infinite",
				"minimumStakingPeriod()": "2339",
				"paused()": "2402",
				"proxiableUUID()": "infinite",
				"renounceRole(bytes32,address)": "29115",
				"revokeRole(bytes32,address)": "infinite",
				"rewardRate()": "2317",
				"stake(uint256,uint256)": "infinite",
				"stakeBatch(uint256[],uint256[])": "infinite",
				"stakes(uint256)": "13230",
				"supportsInterface(bytes4)": "447",
				"unstake(uint256)": "infinite",
				"upgradeToAndCall(address,bytes)": "infinite"
			},
			"internal": {
				"_authorizeUpgrade(address)": "infinite"
			}
		},
		"methodIdentifiers": {
			"DEFAULT_ADMIN_ROLE()": "a217fddf",
			"PAUSER_ROLE()": "e63ab1e9",
			"UPGRADER_ROLE()": "f72c0d8b",
			"UPGRADE_INTERFACE_VERSION()": "ad3cb1cc",
			"cqnft1155Token()": "8172885b",
			"cqnftToken()": "4d9a824d",
			"cqtToken()": "34aab064",
			"getRoleAdmin(bytes32)": "248a9ca3",
			"grantRole(bytes32,address)": "2f2ff15d",
			"hasRole(bytes32,address)": "91d14854",
			"initialize(address,address,address,uint256,uint256)": "a6b63eb8",
			"minimumStakingPeriod()": "7ebed54c",
			"paused()": "5c975abb",
			"proxiableUUID()": "52d1902d",
			"renounceRole(bytes32,address)": "36568abe",
			"revokeRole(bytes32,address)": "d547741f",
			"rewardRate()": "7b0a47ee",
			"stake(uint256,uint256)": "7b0472f0",
			"stakeBatch(uint256[],uint256[])": "d0f7d24f",
			"stakes(uint256)": "d5a44f86",
			"supportsInterface(bytes4)": "01ffc9a7",
			"unstake(uint256)": "2e17de78",
			"upgradeToAndCall(address,bytes)": "4f1ef286"
		}
	},
	"abi": [
		{
			"inputs": [],
			"stateMutability": "nonpayable",
			"type": "constructor"
		},
		{
			"inputs": [],
			"name": "AccessControlBadConfirmation",
			"type": "error"
		},
		{
			"inputs": [
				{
					"internalType": "address",
					"name": "account",
					"type": "address"
				},
				{
					"internalType": "bytes32",
					"name": "neededRole",
					"type": "bytes32"
				}
			],
			"name": "AccessControlUnauthorizedAccount",
			"type": "error"
		},
		{
			"inputs": [
				{
					"internalType": "address",
					"name": "target",
					"type": "address"
				}
			],
			"name": "AddressEmptyCode",
			"type": "error"
		},
		{
			"inputs": [
				{
					"internalType": "address",
					"name": "implementation",
					"type": "address"
				}
			],
			"name": "ERC1967InvalidImplementation",
			"type": "error"
		},
		{
			"inputs": [],
			"name": "ERC1967NonPayable",
			"type": "error"
		},
		{
			"inputs": [],
			"name": "FailedInnerCall",
			"type": "error"
		},
		{
			"inputs": [],
			"name": "InvalidInitialization",
			"type": "error"
		},
		{
			"inputs": [],
			"name": "NotInitializing",
			"type": "error"
		},
		{
			"inputs": [],
			"name": "UUPSUnauthorizedCallContext",
			"type": "error"
		},
		{
			"inputs": [
				{
					"internalType": "bytes32",
					"name": "slot",
					"type": "bytes32"
				}
			],
			"name": "UUPSUnsupportedProxiableUUID",
			"type": "error"
		},
		{
			"anonymous": false,
			"inputs": [
				{
					"indexed": false,
					"internalType": "uint64",
					"name": "version",
					"type": "uint64"
				}
			],
			"name": "Initialized",
			"type": "event"
		},
		{
			"anonymous": false,
			"inputs": [
				{
					"indexed": false,
					"internalType": "address",
					"name": "account",
					"type": "address"
				}
			],
			"name": "Paused",
			"type": "event"
		},
		{
			"anonymous": false,
			"inputs": [
				{
					"indexed": true,
					"internalType": "bytes32",
					"name": "role",
					"type": "bytes32"
				},
				{
					"indexed": true,
					"internalType": "bytes32",
					"name": "previousAdminRole",
					"type": "bytes32"
				},
				{
					"indexed": true,
					"internalType": "bytes32",
					"name": "newAdminRole",
					"type": "bytes32"
				}
			],
			"name": "RoleAdminChanged",
			"type": "event"
		},
		{
			"anonymous": false,
			"inputs": [
				{
					"indexed": true,
					"internalType": "bytes32",
					"name": "role",
					"type": "bytes32"
				},
				{
					"indexed": true,
					"internalType": "address",
					"name": "account",
					"type": "address"
				},
				{
					"indexed": true,
					"internalType": "address",
					"name": "sender",
					"type": "address"
				}
			],
			"name": "RoleGranted",
			"type": "event"
		},
		{
			"anonymous": false,
			"inputs": [
				{
					"indexed": true,
					"internalType": "bytes32",
					"name": "role",
					"type": "bytes32"
				},
				{
					"indexed": true,
					"internalType": "address",
					"name": "account",
					"type": "address"
				},
				{
					"indexed": true,
					"internalType": "address",
					"name": "sender",
					"type": "address"
				}
			],
			"name": "RoleRevoked",
			"type": "event"
		},
		{
			"anonymous": false,
			"inputs": [
				{
					"indexed": false,
					"internalType": "uint256",
					"name": "tokenId",
					"type": "uint256"
				},
				{
					"indexed": false,
					"internalType": "address",
					"name": "owner",
					"type": "address"
				},
				{
					"indexed": false,
					"internalType": "uint256",
					"name": "stakeTime",
					"type": "uint256"
				}
			],
			"name": "Staked",
			"type": "event"
		},
		{
			"anonymous": false,
			"inputs": [
				{
					"indexed": false,
					"internalType": "address",
					"name": "account",
					"type": "address"
				}
			],
			"name": "Unpaused",
			"type": "event"
		},
		{
			"anonymous": false,
			"inputs": [
				{
					"indexed": false,
					"internalType": "uint256",
					"name": "tokenId",
					"type": "uint256"
				},
				{
					"indexed": false,
					"internalType": "address",
					"name": "owner",
					"type": "address"
				},
				{
					"indexed": false,
					"internalType": "uint256",
					"name": "unstakeTime",
					"type": "uint256"
				},
				{
					"indexed": false,
					"internalType": "uint256",
					"name": "reward",
					"type": "uint256"
				}
			],
			"name": "Unstaked",
			"type": "event"
		},
		{
			"anonymous": false,
			"inputs": [
				{
					"indexed": true,
					"internalType": "address",
					"name": "implementation",
					"type": "address"
				}
			],
			"name": "Upgraded",
			"type": "event"
		},
		{
			"inputs": [],
			"name": "DEFAULT_ADMIN_ROLE",
			"outputs": [
				{
					"internalType": "bytes32",
					"name": "",
					"type": "bytes32"
				}
			],
			"stateMutability": "view",
			"type": "function"
		},
		{
			"inputs": [],
			"name": "PAUSER_ROLE",
			"outputs": [
				{
					"internalType": "bytes32",
					"name": "",
					"type": "bytes32"
				}
			],
			"stateMutability": "view",
			"type": "function"
		},
		{
			"inputs": [],
			"name": "UPGRADER_ROLE",
			"outputs": [
				{
					"internalType": "bytes32",
					"name": "",
					"type": "bytes32"
				}
			],
			"stateMutability": "view",
			"type": "function"
		},
		{
			"inputs": [],
			"name": "UPGRADE_INTERFACE_VERSION",
			"outputs": [
				{
					"internalType": "string",
					"name": "",
					"type": "string"
				}
			],
			"stateMutability": "view",
			"type": "function"
		},
		{
			"inputs": [],
			"name": "cqnft1155Token",
			"outputs": [
				{
					"internalType": "address",
					"name": "",
					"type": "address"
				}
			],
			"stateMutability": "view",
			"type": "function"
		},
		{
			"inputs": [],
			"name": "cqnftToken",
			"outputs": [
				{
					"internalType": "address",
					"name": "",
					"type": "address"
				}
			],
			"stateMutability": "view",
			"type": "function"
		},
		{
			"inputs": [],
			"name": "cqtToken",
			"outputs": [
				{
					"internalType": "address",
					"name": "",
					"type": "address"
				}
			],
			"stateMutability": "view",
			"type": "function"
		},
		{
			"inputs": [
				{
					"internalType": "bytes32",
					"name": "role",
					"type": "bytes32"
				}
			],
			"name": "getRoleAdmin",
			"outputs": [
				{
					"internalType": "bytes32",
					"name": "",
					"type": "bytes32"
				}
			],
			"stateMutability": "view",
			"type": "function"
		},
		{
			"inputs": [
				{
					"internalType": "bytes32",
					"name": "role",
					"type": "bytes32"
				},
				{
					"internalType": "address",
					"name": "account",
					"type": "address"
				}
			],
			"name": "grantRole",
			"outputs": [],
			"stateMutability": "nonpayable",
			"type": "function"
		},
		{
			"inputs": [
				{
					"internalType": "bytes32",
					"name": "role",
					"type": "bytes32"
				},
				{
					"internalType": "address",
					"name": "account",
					"type": "address"
				}
			],
			"name": "hasRole",
			"outputs": [
				{
					"internalType": "bool",
					"name": "",
					"type": "bool"
				}
			],
			"stateMutability": "view",
			"type": "function"
		},
		{
			"inputs": [
				{
					"internalType": "address",
					"name": "_cqtToken",
					"type": "address"
				},
				{
					"internalType": "address",
					"name": "_cqnftToken",
					"type": "address"
				},
				{
					"internalType": "address",
					"name": "_cqnft1155Token",
					"type": "address"
				},
				{
					"internalType": "uint256",
					"name": "_rewardRate",
					"type": "uint256"
				},
				{
					"internalType": "uint256",
					"name": "_minimumStakingPeriod",
					"type": "uint256"
				}
			],
			"name": "initialize",
			"outputs": [],
			"stateMutability": "nonpayable",
			"type": "function"
		},
		{
			"inputs": [],
			"name": "minimumStakingPeriod",
			"outputs": [
				{
					"internalType": "uint256",
					"name": "",
					"type": "uint256"
				}
			],
			"stateMutability": "view",
			"type": "function"
		},
		{
			"inputs": [],
			"name": "paused",
			"outputs": [
				{
					"internalType": "bool",
					"name": "",
					"type": "bool"
				}
			],
			"stateMutability": "view",
			"type": "function"
		},
		{
			"inputs": [],
			"name": "proxiableUUID",
			"outputs": [
				{
					"internalType": "bytes32",
					"name": "",
					"type": "bytes32"
				}
			],
			"stateMutability": "view",
			"type": "function"
		},
		{
			"inputs": [
				{
					"internalType": "bytes32",
					"name": "role",
					"type": "bytes32"
				},
				{
					"internalType": "address",
					"name": "callerConfirmation",
					"type": "address"
				}
			],
			"name": "renounceRole",
			"outputs": [],
			"stateMutability": "nonpayable",
			"type": "function"
		},
		{
			"inputs": [
				{
					"internalType": "bytes32",
					"name": "role",
					"type": "bytes32"
				},
				{
					"internalType": "address",
					"name": "account",
					"type": "address"
				}
			],
			"name": "revokeRole",
			"outputs": [],
			"stateMutability": "nonpayable",
			"type": "function"
		},
		{
			"inputs": [],
			"name": "rewardRate",
			"outputs": [
				{
					"internalType": "uint256",
					"name": "",
					"type": "uint256"
				}
			],
			"stateMutability": "view",
			"type": "function"
		},
		{
			"inputs": [
				{
					"internalType": "uint256",
					"name": "_tokenId",
					"type": "uint256"
				},
				{
					"internalType": "uint256",
					"name": "_rarity",
					"type": "uint256"
				}
			],
			"name": "stake",
			"outputs": [],
			"stateMutability": "nonpayable",
			"type": "function"
		},
		{
			"inputs": [
				{
					"internalType": "uint256[]",
					"name": "_tokenIds",
					"type": "uint256[]"
				},
				{
					"internalType": "uint256[]",
					"name": "_rarities",
					"type": "uint256[]"
				}
			],
			"name": "stakeBatch",
			"outputs": [],
			"stateMutability": "nonpayable",
			"type": "function"
		},
		{
			"inputs": [
				{
					"internalType": "uint256",
					"name": "",
					"type": "uint256"
				}
			],
			"name": "stakes",
			"outputs": [
				{
					"internalType": "uint256",
					"name": "tokenId",
					"type": "uint256"
				},
				{
					"internalType": "address",
					"name": "owner",
					"type": "address"
				},
				{
					"internalType": "uint256",
					"name": "stakeTime",
					"type": "uint256"
				},
				{
					"internalType": "uint256",
					"name": "unstakeTime",
					"type": "uint256"
				},
				{
					"internalType": "uint256",
					"name": "reward",
					"type": "uint256"
				},
				{
					"internalType": "uint256",
					"name": "rarity",
					"type": "uint256"
				}
			],
			"stateMutability": "view",
			"type": "function"
		},
		{
			"inputs": [
				{
					"internalType": "bytes4",
					"name": "interfaceId",
					"type": "bytes4"
				}
			],
			"name": "supportsInterface",
			"outputs": [
				{
					"internalType": "bool",
					"name": "",
					"type": "bool"
				}
			],
			"stateMutability": "view",
			"type": "function"
		},
		{
			"inputs": [
				{
					"internalType": "uint256",
					"name": "_tokenId",
					"type": "uint256"
				}
			],
			"name": "unstake",
			"outputs": [],
			"stateMutability": "nonpayable",
			"type": "function"
		},
		{
			"inputs": [
				{
					"internalType": "address",
					"name": "newImplementation",
					"type": "address"
				},
				{
					"internalType": "bytes",
					"name": "data",
					"type": "bytes"
				}
			],
			"name": "upgradeToAndCall",
			"outputs": [],
			"stateMutability": "payable",
			"type": "function"
		}
	]
}