{
	"data": {
		"bytecode": {
			"linkReferences": {},
			"object": "60a060405230608052348015610013575f80fd5b5061001c610021565b6100d3565b7ff0c57e16840df040f15088dc2f81fe391c3923bec73e23a9662efc9c229c6a00805468010000000000000000900460ff16156100715760405163f92ee8a960e01b815260040160405180910390fd5b80546001600160401b03908116146100d05780546001600160401b0319166001600160401b0390811782556040519081527fc7f505b2f371ae2175ee4913f4499e1f2633a7b5936321eed1cdaeb6115181d29060200160405180910390a15b50565b608051613c626100f95f395f8181611cb201528181611cdb0152611e3e0152613c625ff3fe60806040526004361061035b575f3560e01c806370a08231116101bd578063ad3cb1cc116100f2578063d9d98ce411610092578063e9c265181161006d578063e9c2651814610a2b578063ee93c3fc14610a4b578063f1127ed814610a65578063f72c0d8b14610ab0575f80fd5b8063d9d98ce4146109cd578063dd62ed3e146109ec578063e63ab1e914610a0b575f80fd5b8063c3cda520116100cd578063c3cda5201461093d578063d505accf1461095c578063d53913931461097b578063d547741f146109ae575f80fd5b8063ad3cb1cc146108cf578063badb97ff146108ff578063c204642c1461091e575f80fd5b80638e539e8c1161015d57806395d89b411161013857806395d89b411461086a5780639ab24eb01461087e578063a217fddf1461089d578063a9059cbb146108b0575f80fd5b80638e539e8c1461080157806391d148541461082057806391ddadf41461083f575f80fd5b80637ecebe00116101985780637ecebe00146107885780638456cb59146107a757806384b0196e146107bb5780638a29e2de146107e2575f80fd5b806370a082311461072b5780637547c7a31461074a57806379cc679014610769575f80fd5b80633a46b1a81161029357806352d1902d116102335780635c975abb1161020e5780635c975abb146106965780635cffe9de146106b9578063613255ab146106d85780636fcfff45146106f7575f80fd5b806352d1902d1461062c578063587cde1e146106405780635c19a95c14610677575f80fd5b806340c10f191161026e57806340c10f19146105c757806342966c68146105e65780634bf5d7e9146106055780634f1ef28614610619575f80fd5b80633a46b1a8146105615780633b79276c146105805780633f4ba83a146105b3575f80fd5b8063248a9ca3116102fe578063313ce567116102d9578063313ce567146104e05780633644e515146104fb57806336568abe1461050f5780633780b3ed1461052e575f80fd5b8063248a9ca31461046f578063282c51f31461048e5780632f2ff15d146104c1575f80fd5b80630d61b519116103395780630d61b519146103d35780631614665c146103f457806318160ddd1461041357806323b872dd14610450575f80fd5b806301ffc9a71461035f57806306fdde0314610393578063095ea7b3146103b4575b5f80fd5b34801561036a575f80fd5b5061037e61037936600461315d565b610ae3565b60405190151581526020015b60405180910390f35b34801561039e575f80fd5b506103a7610b19565b60405161038a91906131b2565b3480156103bf575f80fd5b5061037e6103ce3660046131d8565b610bbe565b3480156103de575f80fd5b506103f26103ed366004613202565b610bd5565b005b3480156103ff575f80fd5b506103f261040e366004613219565b610bf0565b34801561041e575f80fd5b507f52c63247e1f47db19d5ce0460030c497f067ca4cebf71ba98eeadabe20bace02545b60405190815260200161038a565b34801561045b575f80fd5b5061037e61046a36600461324b565b610c0c565b34801561047a575f80fd5b50610442610489366004613202565b610c31565b348015610499575f80fd5b506104427f3c11d16cbaffd01df69ce1c404f6340ee057498f5f00246190ea54220576a84881565b3480156104cc575f80fd5b506103f26104db366004613289565b610c51565b3480156104eb575f80fd5b506040516012815260200161038a565b348015610506575f80fd5b50610442610c73565b34801561051a575f80fd5b506103f2610529366004613289565b610c81565b348015610539575f80fd5b506104427fb9e206fa2af7ee1331b72ce58b6d938ac810ce9b5cdb65d35ab723fd67badf9e81565b34801561056c575f80fd5b5061044261057b3660046131d8565b610cb4565b34801561058b575f80fd5b506104427ff9091c9c3be31b80afbe6fb18ac7f65afc7ae70116c905e33ea83c890fdda92481565b3480156105be575f80fd5b506103f2610d49565b3480156105d2575f80fd5b506103f26105e13660046131d8565b610d6b565b3480156105f1575f80fd5b506103f2610600366004613202565b610d9f565b348015610610575f80fd5b506103a7610da9565b6103f2610627366004613333565b610e21565b348015610637575f80fd5b50610442610e3c565b34801561064b575f80fd5b5061065f61065a366004613393565b610e57565b6040516001600160a01b03909116815260200161038a565b348015610682575f80fd5b506103f2610691366004613393565b610e80565b3480156106a1575f80fd5b505f80516020613c0d8339815191525460ff1661037e565b3480156106c4575f80fd5b5061037e6106d33660046133ae565b610e8b565b3480156106e3575f80fd5b506104426106f2366004613393565b610ffd565b348015610702575f80fd5b50610716610711366004613393565b611041565b60405163ffffffff909116815260200161038a565b348015610736575f80fd5b50610442610745366004613393565b61104b565b348015610755575f80fd5b506103f2610764366004613202565b61107b565b348015610774575f80fd5b506103f26107833660046131d8565b6110af565b348015610793575f80fd5b506104426107a2366004613393565b6110c4565b3480156107b2575f80fd5b506103f26110ce565b3480156107c6575f80fd5b506107cf6110ed565b60405161038a9796959493929190613445565b3480156107ed575f80fd5b506103f26107fc3660046134dc565b611196565b34801561080c575f80fd5b5061044261081b366004613202565b611464565b34801561082b575f80fd5b5061037e61083a366004613289565b6114de565b34801561084a575f80fd5b50610853611514565b60405165ffffffffffff909116815260200161038a565b348015610875575f80fd5b506103a761151d565b348015610889575f80fd5b50610442610898366004613393565b61155b565b3480156108a8575f80fd5b506104425f81565b3480156108bb575f80fd5b5061037e6108ca3660046131d8565b6115b9565b3480156108da575f80fd5b506103a7604051806040016040528060058152602001640352e302e360dc1b81525081565b34801561090a575f80fd5b506103f2610919366004613202565b6115c6565b348015610929575f80fd5b506103f2610938366004613580565b6115f0565b348015610948575f80fd5b506103f2610957366004613609565b611663565b348015610967575f80fd5b506103f261097636600461365f565b61171f565b348015610986575f80fd5b506104427f9f2df0fed2c77648de5860a4cc508cd0818c85b8b8a1ab4ceeef8d981c8956a681565b3480156109b9575f80fd5b506103f26109c8366004613289565b611838565b3480156109d8575f80fd5b506104426109e73660046131d8565b611854565b3480156109f7575f80fd5b50610442610a063660046136c8565b61188f565b348015610a16575f80fd5b506104425f80516020613bcd83398151915281565b348015610a36575f80fd5b506104425f80516020613b0b83398151915281565b348015610a56575f80fd5b506103f26103ed3660046136f4565b348015610a70575f80fd5b50610a84610a7f366004613739565b6118d8565b60408051825165ffffffffffff1681526020928301516001600160d01b0316928101929092520161038a565b348015610abb575f80fd5b506104427f189ab7a9244df0848122154315af71fe140f3db0fe014031783b0946b8c9d2e381565b5f6001600160e01b03198216637965db0b60e01b1480610b1357506301ffc9a760e01b6001600160e01b03198316145b92915050565b60605f5f80516020613b4b8339815191525b9050806003018054610b3c9061376d565b80601f0160208091040260200160405190810160405280929190818152602001828054610b689061376d565b8015610bb35780601f10610b8a57610100808354040283529160200191610bb3565b820191905f5260205f20905b815481529060010190602001808311610b9657829003601f168201915b505050505091505090565b5f33610bcb8185856118f5565b5060019392505050565b5f80516020613b0b833981519152610bec81611902565b5050565b5f80516020613b0b833981519152610c0781611902565b505050565b5f33610c1985828561190c565b610c24858585611969565b60019150505b9392505050565b5f9081525f80516020613bed833981519152602052604090206001015490565b610c5a82610c31565b610c6381611902565b610c6d83836119c6565b50505050565b5f610c7c611a6e565b905090565b6001600160a01b0381163314610caa5760405163334bd91960e11b815260040160405180910390fd5b610c078282611a77565b5f5f80516020613b2b83398151915281610ccc611514565b90508065ffffffffffff168410610d0c57604051637669fc0f60e11b81526004810185905265ffffffffffff821660248201526044015b60405180910390fd5b610d37610d1885611af0565b6001600160a01b0387165f908152600185016020526040902090611b26565b6001600160d01b031695945050505050565b5f80516020613bcd833981519152610d6081611902565b610d68611bd6565b50565b7f9f2df0fed2c77648de5860a4cc508cd0818c85b8b8a1ab4ceeef8d981c8956a6610d9581611902565b610c078383611c35565b610d683382611c69565b6060610db3611c9d565b65ffffffffffff16610dc3611514565b65ffffffffffff1614610de9576040516301bfc1c560e61b815260040160405180910390fd5b5060408051808201909152601d81527f6d6f64653d626c6f636b6e756d6265722666726f6d3d64656661756c74000000602082015290565b610e29611ca7565b610e3282611d4d565b610bec8282611d77565b5f610e45611e33565b505f80516020613bad83398151915290565b6001600160a01b039081165f9081525f80516020613b2b83398151915260205260409020541690565b33610bec8183611e7c565b5f80610e9686610ffd565b905080851115610ebc5760405163fd9a760960e01b815260048101829052602401610d03565b5f610ec78787611854565b9050610ed38887611c35565b6040516323e30c8b60e01b81527f439148f0bbc682ca079e46d6e2c2f0c1e3b820f1a291b069d8882abf8cf18dd9906001600160a01b038a16906323e30c8b90610f2b9033908c908c9088908d908d906004016137a5565b6020604051808303815f875af1158015610f47573d5f803e3d5ffd5b505050506040513d601f19601f82011682018060405250810190610f6b91906137ff565b14610f935760405162678c5b60e81b81526001600160a01b0389166004820152602401610d03565b5f610fa88930610fa3858b61382a565b61190c565b811580610fbc57506001600160a01b038116155b15610fd957610fd489610fcf848a61382a565b611c69565b610fee565b610fe38988611c69565b610fee898284611969565b50600198975050505050505050565b5f6001600160a01b0382163014611014575f610b13565b7f52c63247e1f47db19d5ce0460030c497f067ca4cebf71ba98eeadabe20bace0254610b13905f1961383d565b5f610b1382611f03565b5f805f80516020613b4b8339815191525b6001600160a01b039093165f9081526020939093525050604090205490565b7fb9e206fa2af7ee1331b72ce58b6d938ac810ce9b5cdb65d35ab723fd67badf9e6110a581611902565b610bec3383611c69565b6110ba82338361190c565b610bec8282611c69565b5f610b1382611f52565b5f80516020613bcd8339815191526110e581611902565b610d68611f5c565b5f60608082808083815f80516020613b6b833981519152805490915015801561111857506001810154155b61115c5760405162461bcd60e51b81526020600482015260156024820152741152540dcc4c8e88155b9a5b9a5d1a585b1a5e9959605a1b6044820152606401610d03565b611164611fa4565b61116c611fe2565b604080515f80825260208201909252600f60f81b9c939b5091995046985030975095509350915050565b7ff0c57e16840df040f15088dc2f81fe391c3923bec73e23a9662efc9c229c6a008054600160401b810460ff16159067ffffffffffffffff165f811580156111db5750825b90505f8267ffffffffffffffff1660011480156111f75750303b155b905081158015611205575080155b156112235760405163f92ee8a960e01b815260040160405180910390fd5b845467ffffffffffffffff19166001178555831561124d57845460ff60401b1916600160401b1785555b61128a604051806060016040528060228152602001613b8b602291396040518060400160405280600381526020016210d45560ea1b815250611ff8565b61129261200a565b61129a612012565b6112a261200a565b6112c3604051806060016040528060228152602001613b8b60229139612022565b6112cb61200a565b6112d361200a565b6112db61200a565b6112e55f8e6119c6565b506112fd5f80516020613bcd8339815191528d6119c6565b506113287f9f2df0fed2c77648de5860a4cc508cd0818c85b8b8a1ab4ceeef8d981c8956a68c6119c6565b506113537f189ab7a9244df0848122154315af71fe140f3db0fe014031783b0946b8c9d2e38b6119c6565b5061137e7f3c11d16cbaffd01df69ce1c404f6340ee057498f5f00246190ea54220576a8488a6119c6565b506113a97ff9091c9c3be31b80afbe6fb18ac7f65afc7ae70116c905e33ea83c890fdda924896119c6565b506113d47fb9e206fa2af7ee1331b72ce58b6d938ac810ce9b5cdb65d35ab723fd67badf9e886119c6565b506113ec5f80516020613b0b833981519152876119c6565b5061140f336113fc601280613930565b61140a90633b9aca0061393e565b611c35565b831561145557845460ff60401b19168555604051600181527fc7f505b2f371ae2175ee4913f4499e1f2633a7b5936321eed1cdaeb6115181d29060200160405180910390a15b50505050505050505050505050565b5f5f80516020613b2b8339815191528161147c611514565b90508065ffffffffffff1684106114b757604051637669fc0f60e11b81526004810185905265ffffffffffff82166024820152604401610d03565b6114cd6114c385611af0565b6002840190611b26565b6001600160d01b0316949350505050565b5f9182525f80516020613bed833981519152602090815260408084206001600160a01b0393909316845291905290205460ff1690565b5f610c7c611c9d565b7f52c63247e1f47db19d5ce0460030c497f067ca4cebf71ba98eeadabe20bace0480546060915f80516020613b4b83398151915291610b3c9061376d565b6001600160a01b0381165f9081527fe8b26c30fad74198956032a3533d903385d56dd795af560196f9c78d4af40d01602052604081205f80516020613b2b833981519152906115a99061204d565b6001600160d01b03169392505050565b5f33610bcb818585611969565b7f3c11d16cbaffd01df69ce1c404f6340ee057498f5f00246190ea54220576a8486110a581611902565b7ff9091c9c3be31b80afbe6fb18ac7f65afc7ae70116c905e33ea83c890fdda92461161a81611902565b5f5b8381101561165c5761165485858381811061163957611639613955565b905060200201602081019061164e9190613393565b84611c35565b60010161161c565b5050505050565b8342111561168757604051632341d78760e11b815260048101859052602401610d03565b604080517fe48329057bfd03d55e49b547132e39cffd9c1820ad7b9d4c5307691425d15adf60208201526001600160a01b0388169181019190915260608101869052608081018590525f90611700906116f89060a00160405160208183030381529060405280519060200120612084565b8585856120b0565b905061170c81876120dc565b6117168188611e7c565b50505050505050565b834211156117435760405163313c898160e11b815260048101859052602401610d03565b5f7f6e71edae12b1b97f4d1f60370fef10105fa2faae0126114a169c64845d6126c98888886117718c61211a565b6040805160208101969096526001600160a01b0394851690860152929091166060840152608083015260a082015260c0810186905260e0016040516020818303038152906040528051906020012090505f6117cb82612084565b90505f6117da828787876120b0565b9050896001600160a01b0316816001600160a01b031614611821576040516325c0072360e11b81526001600160a01b0380831660048301528b166024820152604401610d03565b61182c8a8a8a6118f5565b50505050505050505050565b61184182610c31565b61184a81611902565b610c6d8383611a77565b5f6001600160a01b038316301461188957604051635ad3edc960e11b81526001600160a01b0384166004820152602401610d03565b5f610c2a565b6001600160a01b039182165f9081527f52c63247e1f47db19d5ce0460030c497f067ca4cebf71ba98eeadabe20bace016020908152604080832093909416825291909152205490565b604080518082019091525f8082526020820152610c2a838361215b565b610c0783838360016121c4565b610d6881336122a7565b5f611917848461188f565b90505f198114610c6d578181101561195b57604051637dc7a0d960e11b81526001600160a01b03841660048201526024810182905260448101839052606401610d03565b610c6d84848484035f6121c4565b6001600160a01b03831661199257604051634b637e8f60e11b81525f6004820152602401610d03565b6001600160a01b0382166119bb5760405163ec442f0560e01b81525f6004820152602401610d03565b610c078383836122e0565b5f5f80516020613bed8339815191526119df84846114de565b611a5e575f848152602082815260408083206001600160a01b03871684529091529020805460ff19166001179055611a143390565b6001600160a01b0316836001600160a01b0316857f2f8788117e7eff1d82e926ec794901d17c78024a50270940304540a733656f0d60405160405180910390a46001915050610b13565b5f915050610b13565b5092915050565b5f610c7c6122eb565b5f5f80516020613bed833981519152611a9084846114de565b15611a5e575f848152602082815260408083206001600160a01b0387168085529252808320805460ff1916905551339287917ff6391f5c32d9c69d2a47ea670b442974b53935d1edc7fd64eb21e047a839171b9190a46001915050610b13565b5f65ffffffffffff821115611b22576040516306dfcc6560e41b81526030600482015260248101839052604401610d03565b5090565b81545f9081816005811115611b82575f611b3f8461235e565b611b49908561383d565b5f8881526020902090915081015465ffffffffffff9081169087161015611b7257809150611b80565b611b7d81600161382a565b92505b505b5f611b8f87878585612442565b90508015611bc957611bb387611ba660018461383d565b5f91825260209091200190565b54600160301b90046001600160d01b0316611bcb565b5f5b979650505050505050565b611bde6124a1565b5f80516020613c0d833981519152805460ff191681557f5db9ee0a495bf2e6ff9c91a7834c1ba4fdd244a5e8aa4e537bd38aeae4b073aa335b6040516001600160a01b03909116815260200160405180910390a150565b6001600160a01b038216611c5e5760405163ec442f0560e01b81525f6004820152602401610d03565b610bec5f83836122e0565b6001600160a01b038216611c9257604051634b637e8f60e11b81525f6004820152602401610d03565b610bec825f836122e0565b5f610c7c43611af0565b306001600160a01b037f0000000000000000000000000000000000000000000000000000000000000000161480611d2d57507f00000000000000000000000000000000000000000000000000000000000000006001600160a01b0316611d215f80516020613bad833981519152546001600160a01b031690565b6001600160a01b031614155b15611d4b5760405163703e46dd60e11b815260040160405180910390fd5b565b7f189ab7a9244df0848122154315af71fe140f3db0fe014031783b0946b8c9d2e3610bec81611902565b816001600160a01b03166352d1902d6040518163ffffffff1660e01b8152600401602060405180830381865afa925050508015611dd1575060408051601f3d908101601f19168201909252611dce918101906137ff565b60015b611df957604051634c9c8ce360e01b81526001600160a01b0383166004820152602401610d03565b5f80516020613bad8339815191528114611e2957604051632a87526960e21b815260048101829052602401610d03565b610c0783836124d0565b306001600160a01b037f00000000000000000000000000000000000000000000000000000000000000001614611d4b5760405163703e46dd60e11b815260040160405180910390fd5b5f80516020613b2b8339815191525f611e9484610e57565b6001600160a01b038581165f8181526020869052604080822080546001600160a01b031916898616908117909155905194955093928516927f3134e8a2e6d97e929a7e54011ea5485d7d196dd5f0ba4d4ef95803e8e3fc257f9190a4610c6d8184611efe87612525565b61252f565b6001600160a01b0381165f9081527fe8b26c30fad74198956032a3533d903385d56dd795af560196f9c78d4af40d0160205260408120545f80516020613b2b83398151915290610c2a906126a5565b5f610b13826126d5565b611f646126fd565b5f80516020613c0d833981519152805460ff191660011781557f62e78cea01bee320cd4e420270b5ea74000d11b0c9f74754ebdbfc544b05a25833611c17565b7fa16a46d94261c7517cc8ff89f61c0ce93598e3c849801011dee649a6a557d10280546060915f80516020613b6b83398151915291610b3c9061376d565b60605f5f80516020613b6b833981519152610b2b565b61200061272d565b610bec8282612776565b611d4b61272d565b61201a61272d565b611d4b6127c6565b61202a61272d565b610d6881604051806040016040528060018152602001603160f81b8152506127e6565b80545f90801561207c5761206683611ba660018461383d565b54600160301b90046001600160d01b0316610c2a565b5f9392505050565b5f610b13612090611a6e565b8360405161190160f01b8152600281019290925260228201526042902090565b5f805f806120c088888888612845565b9250925092506120d0828261290d565b50909695505050505050565b5f6120e68361211a565b9050808214610c07576040516301d4b62360e61b81526001600160a01b038416600482015260248101829052604401610d03565b6001600160a01b03165f9081527f5ab42ced628888259c08ac98db1eb0cf702fc1501344311d8b100cd1bfe4bb006020526040902080546001810190915590565b6040805180820182525f80825260208083018290526001600160a01b03861682527fe8b26c30fad74198956032a3533d903385d56dd795af560196f9c78d4af40d019052919091205f80516020613b2b833981519152906121bc90846129c5565b949350505050565b5f80516020613b4b8339815191526001600160a01b0385166121fb5760405163e602df0560e01b81525f6004820152602401610d03565b6001600160a01b03841661222457604051634a1406b160e11b81525f6004820152602401610d03565b6001600160a01b038086165f9081526001830160209081526040808320938816835292905220839055811561165c57836001600160a01b0316856001600160a01b03167f8c5be1e5ebec7d5bd14f71427d1e84f3dd0314c0f7b2291e5b200ac8c7c3b9258560405161229891815260200190565b60405180910390a35050505050565b6122b182826114de565b610bec5760405163e2517d3f60e01b81526001600160a01b038216600482015260248101839052604401610d03565b610c07838383612a32565b5f7f8b73c3c69bb8fe3d512ecc4cf759cc79239f7b179b0ffacaa9a75d522b39400f612315612ab7565b61231d612b1f565b60408051602081019490945283019190915260608201524660808201523060a082015260c00160405160208183030381529060405280519060200120905090565b5f815f0361236d57505f919050565b5f600161237984612b61565b901c6001901b9050600181848161239257612392613969565b048201901c905060018184816123aa576123aa613969565b048201901c905060018184816123c2576123c2613969565b048201901c905060018184816123da576123da613969565b048201901c905060018184816123f2576123f2613969565b048201901c9050600181848161240a5761240a613969565b048201901c9050600181848161242257612422613969565b048201901c9050610c2a8182858161243c5761243c613969565b04612bf4565b5f5b81831015612499575f6124578484612c09565b5f8781526020902090915065ffffffffffff86169082015465ffffffffffff16111561248557809250612493565b61249081600161382a565b93505b50612444565b509392505050565b5f80516020613c0d8339815191525460ff16611d4b57604051638dfc202b60e01b815260040160405180910390fd5b6124d982612c23565b6040516001600160a01b038316907fbc7cd75a20ee27fd9adebab32041f755214dbc6bffa90cc0225b39da2e5c2d3b905f90a280511561251d57610c078282612c86565b610bec612cf8565b5f610b138261104b565b5f80516020613b2b8339815191526001600160a01b038481169084161480159061255857505f82115b15610c6d576001600160a01b03841615612601576001600160a01b0384165f9081526001820160205260408120819061259c90612d1761259787612d22565b612d55565b6001600160d01b031691506001600160d01b03169150856001600160a01b03167fdec2bacdd2f05b59de34da9b523dff8be42e5e38e818c82fdb0bae774387a72483836040516125f6929190918252602082015260400190565b60405180910390a250505b6001600160a01b03831615610c6d576001600160a01b0383165f9081526001820160205260408120819061263b90612d8d61259787612d22565b6001600160d01b031691506001600160d01b03169150846001600160a01b03167fdec2bacdd2f05b59de34da9b523dff8be42e5e38e818c82fdb0bae774387a7248383604051612695929190918252602082015260400190565b60405180910390a2505050505050565b5f63ffffffff821115611b22576040516306dfcc6560e41b81526020600482015260248101839052604401610d03565b5f807f5ab42ced628888259c08ac98db1eb0cf702fc1501344311d8b100cd1bfe4bb0061105c565b5f80516020613c0d8339815191525460ff1615611d4b5760405163d93c066560e01b815260040160405180910390fd5b7ff0c57e16840df040f15088dc2f81fe391c3923bec73e23a9662efc9c229c6a0054600160401b900460ff16611d4b57604051631afcd79f60e31b815260040160405180910390fd5b61277e61272d565b5f80516020613b4b8339815191527f52c63247e1f47db19d5ce0460030c497f067ca4cebf71ba98eeadabe20bace036127b784826139c1565b5060048101610c6d83826139c1565b6127ce61272d565b5f80516020613c0d833981519152805460ff19169055565b6127ee61272d565b5f80516020613b6b8339815191527fa16a46d94261c7517cc8ff89f61c0ce93598e3c849801011dee649a6a557d10261282784826139c1565b506003810161283683826139c1565b505f8082556001909101555050565b5f80807f7fffffffffffffffffffffffffffffff5d576e7357a4501ddfe92f46681b20a084111561287e57505f91506003905082612903565b604080515f808252602082018084528a905260ff891692820192909252606081018790526080810186905260019060a0016020604051602081039080840390855afa1580156128cf573d5f803e3d5ffd5b5050604051601f1901519150506001600160a01b0381166128fa57505f925060019150829050612903565b92505f91508190505b9450945094915050565b5f82600381111561292057612920613a81565b03612929575050565b600182600381111561293d5761293d613a81565b0361295b5760405163f645eedf60e01b815260040160405180910390fd5b600282600381111561296f5761296f613a81565b036129905760405163fce698f760e01b815260048101829052602401610d03565b60038260038111156129a4576129a4613a81565b03610bec576040516335e2f38360e21b815260048101829052602401610d03565b604080518082019091525f8082526020820152825f018263ffffffff16815481106129f2576129f2613955565b5f9182526020918290206040805180820190915291015465ffffffffffff81168252600160301b90046001600160d01b0316918101919091529392505050565b612a3d838383612d98565b6001600160a01b038316612aac575f612a747f52c63247e1f47db19d5ce0460030c497f067ca4cebf71ba98eeadabe20bace025490565b90506001600160d01b0380821115612aa957604051630e58ae9360e11b81526004810183905260248101829052604401610d03565b50505b610c07838383612dab565b5f5f80516020613b6b83398151915281612acf611fa4565b805190915015612ae757805160209091012092915050565b81548015612af6579392505050565b7fc5d2460186f7233c927e7db2dcc703c0e500b653ca82273b7bfad8045d85a470935050505090565b5f5f80516020613b6b83398151915281612b37611fe2565b805190915015612b4f57805160209091012092915050565b60018201548015612af6579392505050565b5f80608083901c15612b7557608092831c92015b604083901c15612b8757604092831c92015b602083901c15612b9957602092831c92015b601083901c15612bab57601092831c92015b600883901c15612bbd57600892831c92015b600483901c15612bcf57600492831c92015b600283901c15612be157600292831c92015b600183901c15610b135760010192915050565b5f818310612c025781610c2a565b5090919050565b5f612c176002848418613a95565b610c2a9084841661382a565b806001600160a01b03163b5f03612c5857604051634c9c8ce360e01b81526001600160a01b0382166004820152602401610d03565b5f80516020613bad83398151915280546001600160a01b0319166001600160a01b0392909216919091179055565b60605f80846001600160a01b031684604051612ca29190613ab4565b5f60405180830381855af49150503d805f8114612cda576040519150601f19603f3d011682016040523d82523d5f602084013e612cdf565b606091505b5091509150612cef858383612e1c565b95945050505050565b3415611d4b5760405163b398979f60e01b815260040160405180910390fd5b5f610c2a8284613aca565b5f6001600160d01b03821115611b22576040516306dfcc6560e41b815260d0600482015260248101839052604401610d03565b5f80612d80612d62611514565b612d78612d6e8861204d565b868863ffffffff16565b879190612e78565b915091505b935093915050565b5f610c2a8284613aea565b612da06126fd565b610c07838383612e85565b5f80516020613b2b8339815191526001600160a01b038416612ddd57612dda81600201612d8d61259785612d22565b50505b6001600160a01b038316612e0157612dfe81600201612d1761259785612d22565b50505b610c6d612e0d85610e57565b612e1685610e57565b8461252f565b606082612e3157612e2c82612fbe565b610c2a565b8151158015612e4857506001600160a01b0384163b155b15612e7157604051639996b31560e01b81526001600160a01b0385166004820152602401610d03565b5080610c2a565b5f80612d80858585612fe7565b5f80516020613b4b8339815191526001600160a01b038416612ebf5781816002015f828254612eb4919061382a565b90915550612f2f9050565b6001600160a01b0384165f9081526020829052604090205482811015612f115760405163391434e360e21b81526001600160a01b03861660048201526024810182905260448101849052606401610d03565b6001600160a01b0385165f9081526020839052604090209083900390555b6001600160a01b038316612f4d576002810180548390039055612f6b565b6001600160a01b0383165f9081526020829052604090208054830190555b826001600160a01b0316846001600160a01b03167fddf252ad1be2c89b69c2b068fc378daa952ba7f163c4a11628f55a4df523b3ef84604051612fb091815260200190565b60405180910390a350505050565b805115612fce5780518082602001fd5b604051630a12f52160e11b815260040160405180910390fd5b82545f9081908015613103575f61300387611ba660018561383d565b60408051808201909152905465ffffffffffff808216808452600160301b9092046001600160d01b03166020840152919250908716101561305757604051632520601d60e01b815260040160405180910390fd5b805165ffffffffffff8088169116036130a3578461307a88611ba660018661383d565b80546001600160d01b0392909216600160301b0265ffffffffffff9092169190911790556130f3565b6040805180820190915265ffffffffffff80881682526001600160d01b0380881660208085019182528b54600181018d555f8d81529190912094519151909216600160301b029216919091179101555b602001519250839150612d859050565b50506040805180820190915265ffffffffffff80851682526001600160d01b0380851660208085019182528854600181018a555f8a815291822095519251909316600160301b029190931617920191909155905081612d85565b5f6020828403121561316d575f80fd5b81356001600160e01b031981168114610c2a575f80fd5b5f81518084528060208401602086015e5f602082860101526020601f19601f83011685010191505092915050565b602081525f610c2a6020830184613184565b6001600160a01b0381168114610d68575f80fd5b5f80604083850312156131e9575f80fd5b82356131f4816131c4565b946020939093013593505050565b5f60208284031215613212575f80fd5b5035919050565b5f806040838503121561322a575f80fd5b8235915060208301358015158114613240575f80fd5b809150509250929050565b5f805f6060848603121561325d575f80fd5b8335613268816131c4565b92506020840135613278816131c4565b929592945050506040919091013590565b5f806040838503121561329a575f80fd5b823591506020830135613240816131c4565b634e487b7160e01b5f52604160045260245ffd5b5f67ffffffffffffffff808411156132da576132da6132ac565b604051601f8501601f19908116603f01168101908282118183101715613302576133026132ac565b8160405280935085815286868601111561331a575f80fd5b858560208301375f602087830101525050509392505050565b5f8060408385031215613344575f80fd5b823561334f816131c4565b9150602083013567ffffffffffffffff81111561336a575f80fd5b8301601f8101851361337a575f80fd5b613389858235602084016132c0565b9150509250929050565b5f602082840312156133a3575f80fd5b8135610c2a816131c4565b5f805f805f608086880312156133c2575f80fd5b85356133cd816131c4565b945060208601356133dd816131c4565b935060408601359250606086013567ffffffffffffffff80821115613400575f80fd5b818801915088601f830112613413575f80fd5b813581811115613421575f80fd5b896020828501011115613432575f80fd5b9699959850939650602001949392505050565b60ff60f81b881681525f602060e0602084015261346560e084018a613184565b8381036040850152613477818a613184565b606085018990526001600160a01b038816608086015260a0850187905284810360c0860152855180825260208088019350909101905f5b818110156134ca578351835292840192918401916001016134ae565b50909c9b505050505050505050505050565b5f805f805f805f80610100898b0312156134f4575f80fd5b88356134ff816131c4565b9750602089013561350f816131c4565b9650604089013561351f816131c4565b9550606089013561352f816131c4565b9450608089013561353f816131c4565b935060a089013561354f816131c4565b925060c089013561355f816131c4565b915060e089013561356f816131c4565b809150509295985092959890939650565b5f805f60408486031215613592575f80fd5b833567ffffffffffffffff808211156135a9575f80fd5b818601915086601f8301126135bc575f80fd5b8135818111156135ca575f80fd5b8760208260051b85010111156135de575f80fd5b6020928301989097509590910135949350505050565b803560ff81168114613604575f80fd5b919050565b5f805f805f8060c0878903121561361e575f80fd5b8635613629816131c4565b95506020870135945060408701359350613645606088016135f4565b92506080870135915060a087013590509295509295509295565b5f805f805f805f60e0888a031215613675575f80fd5b8735613680816131c4565b96506020880135613690816131c4565b955060408801359450606088013593506136ac608089016135f4565b925060a0880135915060c0880135905092959891949750929550565b5f80604083850312156136d9575f80fd5b82356136e4816131c4565b91506020830135613240816131c4565b5f60208284031215613704575f80fd5b813567ffffffffffffffff81111561371a575f80fd5b8201601f8101841361372a575f80fd5b6121bc848235602084016132c0565b5f806040838503121561374a575f80fd5b8235613755816131c4565b9150602083013563ffffffff81168114613240575f80fd5b600181811c9082168061378157607f821691505b60208210810361379f57634e487b7160e01b5f52602260045260245ffd5b50919050565b6001600160a01b03878116825286166020820152604081018590526060810184905260a06080820181905281018290525f828460c08401375f60c0848401015260c0601f19601f8501168301019050979650505050505050565b5f6020828403121561380f575f80fd5b5051919050565b634e487b7160e01b5f52601160045260245ffd5b80820180821115610b1357610b13613816565b81810381811115610b1357610b13613816565b600181815b8085111561388a57815f190482111561387057613870613816565b8085161561387d57918102915b93841c9390800290613855565b509250929050565b5f826138a057506001610b13565b816138ac57505f610b13565b81600181146138c257600281146138cc576138e8565b6001915050610b13565b60ff8411156138dd576138dd613816565b50506001821b610b13565b5060208310610133831016604e8410600b841016171561390b575081810a610b13565b6139158383613850565b805f190482111561392857613928613816565b029392505050565b5f610c2a60ff841683613892565b8082028115828204841417610b1357610b13613816565b634e487b7160e01b5f52603260045260245ffd5b634e487b7160e01b5f52601260045260245ffd5b601f821115610c0757805f5260205f20601f840160051c810160208510156139a25750805b601f840160051c820191505b8181101561165c575f81556001016139ae565b815167ffffffffffffffff8111156139db576139db6132ac565b6139ef816139e9845461376d565b8461397d565b602080601f831160018114613a22575f8415613a0b5750858301515b5f19600386901b1c1916600185901b178555613a79565b5f85815260208120601f198616915b82811015613a5057888601518255948401946001909101908401613a31565b5085821015613a6d57878501515f19600388901b60f8161c191681555b505060018460011b0185555b505050505050565b634e487b7160e01b5f52602160045260245ffd5b5f82613aaf57634e487b7160e01b5f52601260045260245ffd5b500490565b5f82518060208501845e5f920191825250919050565b6001600160d01b03828116828216039080821115611a6757611a67613816565b6001600160d01b03818116838216019080821115611a6757611a6761381656fe3b5d4cc60d3ec3516ee8ae083bd60934f6eb2a6c54b1229985c41bfb092b2603e8b26c30fad74198956032a3533d903385d56dd795af560196f9c78d4af40d0052c63247e1f47db19d5ce0460030c497f067ca4cebf71ba98eeadabe20bace00a16a46d94261c7517cc8ff89f61c0ce93598e3c849801011dee649a6a557d10043727970746f51756573745468655368617264734f6647656e65736973546f6b656e360894a13ba1a3210667c828492db98dca3e2076cc3735a920a3ca505d382bbc65d7a28e3265b37a6474929f336521b332c1681b933f6cb9f3376673440d862a02dd7bc7dec4dceedda775e58dd541e08a116c6c53815c0bd028192f7b626800cd5ed15c6e187e77e9aee88184c21f4f2182ab5827cb3b7e07fbedcd63f03300a26469706673582212208c49b5310eaf38cec5232efc4b22ff982969012e055fb1b8bf3749db139b1b4e64736f6c63430008190033",
			"opcodes": "PUSH1 0xA0 PUSH1 0x40 MSTORE ADDRESS PUSH1 0x80 MSTORE CALLVALUE DUP1 ISZERO PUSH2 0x13 JUMPI PUSH0 DUP1 REVERT JUMPDEST POP PUSH2 0x1C PUSH2 0x21 JUMP JUMPDEST PUSH2 0xD3 JUMP JUMPDEST PUSH32 0xF0C57E16840DF040F15088DC2F81FE391C3923BEC73E23A9662EFC9C229C6A00 DUP1 SLOAD PUSH9 0x10000000000000000 SWAP1 DIV PUSH1 0xFF AND ISZERO PUSH2 0x71 JUMPI PUSH1 0x40 MLOAD PUSH4 0xF92EE8A9 PUSH1 0xE0 SHL DUP2 MSTORE PUSH1 0x4 ADD PUSH1 0x40 MLOAD DUP1 SWAP2 SUB SWAP1 REVERT JUMPDEST DUP1 SLOAD PUSH1 0x1 PUSH1 0x1 PUSH1 0x40 SHL SUB SWAP1 DUP2 AND EQ PUSH2 0xD0 JUMPI DUP1 SLOAD PUSH1 0x1 PUSH1 0x1 PUSH1 0x40 SHL SUB NOT AND PUSH1 0x1 PUSH1 0x1 PUSH1 0x40 SHL SUB SWAP1 DUP2 OR DUP3 SSTORE PUSH1 0x40 MLOAD SWAP1 DUP2 MSTORE PUSH32 0xC7F505B2F371AE2175EE4913F4499E1F2633A7B5936321EED1CDAEB6115181D2 SWAP1 PUSH1 0x20 ADD PUSH1 0x40 MLOAD DUP1 SWAP2 SUB SWAP1 LOG1 JUMPDEST POP JUMP JUMPDEST PUSH1 0x80 MLOAD PUSH2 0x3C62 PUSH2 0xF9 PUSH0 CODECOPY PUSH0 DUP2 DUP2 PUSH2 0x1CB2 ADD MSTORE DUP2 DUP2 PUSH2 0x1CDB ADD MSTORE PUSH2 0x1E3E ADD MSTORE PUSH2 0x3C62 PUSH0 RETURN INVALID PUSH1 0x80 PUSH1 0x40 MSTORE PUSH1 0x4 CALLDATASIZE LT PUSH2 0x35B JUMPI PUSH0 CALLDATALOAD PUSH1 0xE0 SHR DUP1 PUSH4 0x70A08231 GT PUSH2 0x1BD JUMPI DUP1 PUSH4 0xAD3CB1CC GT PUSH2 0xF2 JUMPI DUP1 PUSH4 0xD9D98CE4 GT PUSH2 0x92 JUMPI DUP1 PUSH4 0xE9C26518 GT PUSH2 0x6D JUMPI DUP1 PUSH4 0xE9C26518 EQ PUSH2 0xA2B JUMPI DUP1 PUSH4 0xEE93C3FC EQ PUSH2 0xA4B JUMPI DUP1 PUSH4 0xF1127ED8 EQ PUSH2 0xA65 JUMPI DUP1 PUSH4 0xF72C0D8B EQ PUSH2 0xAB0 JUMPI PUSH0 DUP1 REVERT JUMPDEST DUP1 PUSH4 0xD9D98CE4 EQ PUSH2 0x9CD JUMPI DUP1 PUSH4 0xDD62ED3E EQ PUSH2 0x9EC JUMPI DUP1 PUSH4 0xE63AB1E9 EQ PUSH2 0xA0B JUMPI PUSH0 DUP1 REVERT JUMPDEST DUP1 PUSH4 0xC3CDA520 GT PUSH2 0xCD JUMPI DUP1 PUSH4 0xC3CDA520 EQ PUSH2 0x93D JUMPI DUP1 PUSH4 0xD505ACCF EQ PUSH2 0x95C JUMPI DUP1 PUSH4 0xD5391393 EQ PUSH2 0x97B JUMPI DUP1 PUSH4 0xD547741F EQ PUSH2 0x9AE JUMPI PUSH0 DUP1 REVERT JUMPDEST DUP1 PUSH4 0xAD3CB1CC EQ PUSH2 0x8CF JUMPI DUP1 PUSH4 0xBADB97FF EQ PUSH2 0x8FF JUMPI DUP1 PUSH4 0xC204642C EQ PUSH2 0x91E JUMPI PUSH0 DUP1 REVERT JUMPDEST DUP1 PUSH4 0x8E539E8C GT PUSH2 0x15D JUMPI DUP1 PUSH4 0x95D89B41 GT PUSH2 0x138 JUMPI DUP1 PUSH4 0x95D89B41 EQ PUSH2 0x86A JUMPI DUP1 PUSH4 0x9AB24EB0 EQ PUSH2 0x87E JUMPI DUP1 PUSH4 0xA217FDDF EQ PUSH2 0x89D JUMPI DUP1 PUSH4 0xA9059CBB EQ PUSH2 0x8B0 JUMPI PUSH0 DUP1 REVERT JUMPDEST DUP1 PUSH4 0x8E539E8C EQ PUSH2 0x801 JUMPI DUP1 PUSH4 0x91D14854 EQ PUSH2 0x820 JUMPI DUP1 PUSH4 0x91DDADF4 EQ PUSH2 0x83F JUMPI PUSH0 DUP1 REVERT JUMPDEST DUP1 PUSH4 0x7ECEBE00 GT PUSH2 0x198 JUMPI DUP1 PUSH4 0x7ECEBE00 EQ PUSH2 0x788 JUMPI DUP1 PUSH4 0x8456CB59 EQ PUSH2 0x7A7 JUMPI DUP1 PUSH4 0x84B0196E EQ PUSH2 0x7BB JUMPI DUP1 PUSH4 0x8A29E2DE EQ PUSH2 0x7E2 JUMPI PUSH0 DUP1 REVERT JUMPDEST DUP1 PUSH4 0x70A08231 EQ PUSH2 0x72B JUMPI DUP1 PUSH4 0x7547C7A3 EQ PUSH2 0x74A JUMPI DUP1 PUSH4 0x79CC6790 EQ PUSH2 0x769 JUMPI PUSH0 DUP1 REVERT JUMPDEST DUP1 PUSH4 0x3A46B1A8 GT PUSH2 0x293 JUMPI DUP1 PUSH4 0x52D1902D GT PUSH2 0x233 JUMPI DUP1 PUSH4 0x5C975ABB GT PUSH2 0x20E JUMPI DUP1 PUSH4 0x5C975ABB EQ PUSH2 0x696 JUMPI DUP1 PUSH4 0x5CFFE9DE EQ PUSH2 0x6B9 JUMPI DUP1 PUSH4 0x613255AB EQ PUSH2 0x6D8 JUMPI DUP1 PUSH4 0x6FCFFF45 EQ PUSH2 0x6F7 JUMPI PUSH0 DUP1 REVERT JUMPDEST DUP1 PUSH4 0x52D1902D EQ PUSH2 0x62C JUMPI DUP1 PUSH4 0x587CDE1E EQ PUSH2 0x640 JUMPI DUP1 PUSH4 0x5C19A95C EQ PUSH2 0x677 JUMPI PUSH0 DUP1 REVERT JUMPDEST DUP1 PUSH4 0x40C10F19 GT PUSH2 0x26E JUMPI DUP1 PUSH4 0x40C10F19 EQ PUSH2 0x5C7 JUMPI DUP1 PUSH4 0x42966C68 EQ PUSH2 0x5E6 JUMPI DUP1 PUSH4 0x4BF5D7E9 EQ PUSH2 0x605 JUMPI DUP1 PUSH4 0x4F1EF286 EQ PUSH2 0x619 JUMPI PUSH0 DUP1 REVERT JUMPDEST DUP1 PUSH4 0x3A46B1A8 EQ PUSH2 0x561 JUMPI DUP1 PUSH4 0x3B79276C EQ PUSH2 0x580 JUMPI DUP1 PUSH4 0x3F4BA83A EQ PUSH2 0x5B3 JUMPI PUSH0 DUP1 REVERT JUMPDEST DUP1 PUSH4 0x248A9CA3 GT PUSH2 0x2FE JUMPI DUP1 PUSH4 0x313CE567 GT PUSH2 0x2D9 JUMPI DUP1 PUSH4 0x313CE567 EQ PUSH2 0x4E0 JUMPI DUP1 PUSH4 0x3644E515 EQ PUSH2 0x4FB JUMPI DUP1 PUSH4 0x36568ABE EQ PUSH2 0x50F JUMPI DUP1 PUSH4 0x3780B3ED EQ PUSH2 0x52E JUMPI PUSH0 DUP1 REVERT JUMPDEST DUP1 PUSH4 0x248A9CA3 EQ PUSH2 0x46F JUMPI DUP1 PUSH4 0x282C51F3 EQ PUSH2 0x48E JUMPI DUP1 PUSH4 0x2F2FF15D EQ PUSH2 0x4C1 JUMPI PUSH0 DUP1 REVERT JUMPDEST DUP1 PUSH4 0xD61B519 GT PUSH2 0x339 JUMPI DUP1 PUSH4 0xD61B519 EQ PUSH2 0x3D3 JUMPI DUP1 PUSH4 0x1614665C EQ PUSH2 0x3F4 JUMPI DUP1 PUSH4 0x18160DDD EQ PUSH2 0x413 JUMPI DUP1 PUSH4 0x23B872DD EQ PUSH2 0x450 JUMPI PUSH0 DUP1 REVERT JUMPDEST DUP1 PUSH4 0x1FFC9A7 EQ PUSH2 0x35F JUMPI DUP1 PUSH4 0x6FDDE03 EQ PUSH2 0x393 JUMPI DUP1 PUSH4 0x95EA7B3 EQ PUSH2 0x3B4 JUMPI JUMPDEST PUSH0 DUP1 REVERT JUMPDEST CALLVALUE DUP1 ISZERO PUSH2 0x36A JUMPI PUSH0 DUP1 REVERT JUMPDEST POP PUSH2 0x37E PUSH2 0x379 CALLDATASIZE PUSH1 0x4 PUSH2 0x315D JUMP JUMPDEST PUSH2 0xAE3 JUMP JUMPDEST PUSH1 0x40 MLOAD SWAP1 ISZERO ISZERO DUP2 MSTORE PUSH1 0x20 ADD JUMPDEST PUSH1 0x40 MLOAD DUP1 SWAP2 SUB SWAP1 RETURN JUMPDEST CALLVALUE DUP1 ISZERO PUSH2 0x39E JUMPI PUSH0 DUP1 REVERT JUMPDEST POP PUSH2 0x3A7 PUSH2 0xB19 JUMP JUMPDEST PUSH1 0x40 MLOAD PUSH2 0x38A SWAP2 SWAP1 PUSH2 0x31B2 JUMP JUMPDEST CALLVALUE DUP1 ISZERO PUSH2 0x3BF JUMPI PUSH0 DUP1 REVERT JUMPDEST POP PUSH2 0x37E PUSH2 0x3CE CALLDATASIZE PUSH1 0x4 PUSH2 0x31D8 JUMP JUMPDEST PUSH2 0xBBE JUMP JUMPDEST CALLVALUE DUP1 ISZERO PUSH2 0x3DE JUMPI PUSH0 DUP1 REVERT JUMPDEST POP PUSH2 0x3F2 PUSH2 0x3ED CALLDATASIZE PUSH1 0x4 PUSH2 0x3202 JUMP JUMPDEST PUSH2 0xBD5 JUMP JUMPDEST STOP JUMPDEST CALLVALUE DUP1 ISZERO PUSH2 0x3FF JUMPI PUSH0 DUP1 REVERT JUMPDEST POP PUSH2 0x3F2 PUSH2 0x40E CALLDATASIZE PUSH1 0x4 PUSH2 0x3219 JUMP JUMPDEST PUSH2 0xBF0 JUMP JUMPDEST CALLVALUE DUP1 ISZERO PUSH2 0x41E JUMPI PUSH0 DUP1 REVERT JUMPDEST POP PUSH32 0x52C63247E1F47DB19D5CE0460030C497F067CA4CEBF71BA98EEADABE20BACE02 SLOAD JUMPDEST PUSH1 0x40 MLOAD SWAP1 DUP2 MSTORE PUSH1 0x20 ADD PUSH2 0x38A JUMP JUMPDEST CALLVALUE DUP1 ISZERO PUSH2 0x45B JUMPI PUSH0 DUP1 REVERT JUMPDEST POP PUSH2 0x37E PUSH2 0x46A CALLDATASIZE PUSH1 0x4 PUSH2 0x324B JUMP JUMPDEST PUSH2 0xC0C JUMP JUMPDEST CALLVALUE DUP1 ISZERO PUSH2 0x47A JUMPI PUSH0 DUP1 REVERT JUMPDEST POP PUSH2 0x442 PUSH2 0x489 CALLDATASIZE PUSH1 0x4 PUSH2 0x3202 JUMP JUMPDEST PUSH2 0xC31 JUMP JUMPDEST CALLVALUE DUP1 ISZERO PUSH2 0x499 JUMPI PUSH0 DUP1 REVERT JUMPDEST POP PUSH2 0x442 PUSH32 0x3C11D16CBAFFD01DF69CE1C404F6340EE057498F5F00246190EA54220576A848 DUP2 JUMP JUMPDEST CALLVALUE DUP1 ISZERO PUSH2 0x4CC JUMPI PUSH0 DUP1 REVERT JUMPDEST POP PUSH2 0x3F2 PUSH2 0x4DB CALLDATASIZE PUSH1 0x4 PUSH2 0x3289 JUMP JUMPDEST PUSH2 0xC51 JUMP JUMPDEST CALLVALUE DUP1 ISZERO PUSH2 0x4EB JUMPI PUSH0 DUP1 REVERT JUMPDEST POP PUSH1 0x40 MLOAD PUSH1 0x12 DUP2 MSTORE PUSH1 0x20 ADD PUSH2 0x38A JUMP JUMPDEST CALLVALUE DUP1 ISZERO PUSH2 0x506 JUMPI PUSH0 DUP1 REVERT JUMPDEST POP PUSH2 0x442 PUSH2 0xC73 JUMP JUMPDEST CALLVALUE DUP1 ISZERO PUSH2 0x51A JUMPI PUSH0 DUP1 REVERT JUMPDEST POP PUSH2 0x3F2 PUSH2 0x529 CALLDATASIZE PUSH1 0x4 PUSH2 0x3289 JUMP JUMPDEST PUSH2 0xC81 JUMP JUMPDEST CALLVALUE DUP1 ISZERO PUSH2 0x539 JUMPI PUSH0 DUP1 REVERT JUMPDEST POP PUSH2 0x442 PUSH32 0xB9E206FA2AF7EE1331B72CE58B6D938AC810CE9B5CDB65D35AB723FD67BADF9E DUP2 JUMP JUMPDEST CALLVALUE DUP1 ISZERO PUSH2 0x56C JUMPI PUSH0 DUP1 REVERT JUMPDEST POP PUSH2 0x442 PUSH2 0x57B CALLDATASIZE PUSH1 0x4 PUSH2 0x31D8 JUMP JUMPDEST PUSH2 0xCB4 JUMP JUMPDEST CALLVALUE DUP1 ISZERO PUSH2 0x58B JUMPI PUSH0 DUP1 REVERT JUMPDEST POP PUSH2 0x442 PUSH32 0xF9091C9C3BE31B80AFBE6FB18AC7F65AFC7AE70116C905E33EA83C890FDDA924 DUP2 JUMP JUMPDEST CALLVALUE DUP1 ISZERO PUSH2 0x5BE JUMPI PUSH0 DUP1 REVERT JUMPDEST POP PUSH2 0x3F2 PUSH2 0xD49 JUMP JUMPDEST CALLVALUE DUP1 ISZERO PUSH2 0x5D2 JUMPI PUSH0 DUP1 REVERT JUMPDEST POP PUSH2 0x3F2 PUSH2 0x5E1 CALLDATASIZE PUSH1 0x4 PUSH2 0x31D8 JUMP JUMPDEST PUSH2 0xD6B JUMP JUMPDEST CALLVALUE DUP1 ISZERO PUSH2 0x5F1 JUMPI PUSH0 DUP1 REVERT JUMPDEST POP PUSH2 0x3F2 PUSH2 0x600 CALLDATASIZE PUSH1 0x4 PUSH2 0x3202 JUMP JUMPDEST PUSH2 0xD9F JUMP JUMPDEST CALLVALUE DUP1 ISZERO PUSH2 0x610 JUMPI PUSH0 DUP1 REVERT JUMPDEST POP PUSH2 0x3A7 PUSH2 0xDA9 JUMP JUMPDEST PUSH2 0x3F2 PUSH2 0x627 CALLDATASIZE PUSH1 0x4 PUSH2 0x3333 JUMP JUMPDEST PUSH2 0xE21 JUMP JUMPDEST CALLVALUE DUP1 ISZERO PUSH2 0x637 JUMPI PUSH0 DUP1 REVERT JUMPDEST POP PUSH2 0x442 PUSH2 0xE3C JUMP JUMPDEST CALLVALUE DUP1 ISZERO PUSH2 0x64B JUMPI PUSH0 DUP1 REVERT JUMPDEST POP PUSH2 0x65F PUSH2 0x65A CALLDATASIZE PUSH1 0x4 PUSH2 0x3393 JUMP JUMPDEST PUSH2 0xE57 JUMP JUMPDEST PUSH1 0x40 MLOAD PUSH1 0x1 PUSH1 0x1 PUSH1 0xA0 SHL SUB SWAP1 SWAP2 AND DUP2 MSTORE PUSH1 0x20 ADD PUSH2 0x38A JUMP JUMPDEST CALLVALUE DUP1 ISZERO PUSH2 0x682 JUMPI PUSH0 DUP1 REVERT JUMPDEST POP PUSH2 0x3F2 PUSH2 0x691 CALLDATASIZE PUSH1 0x4 PUSH2 0x3393 JUMP JUMPDEST PUSH2 0xE80 JUMP JUMPDEST CALLVALUE DUP1 ISZERO PUSH2 0x6A1 JUMPI PUSH0 DUP1 REVERT JUMPDEST POP PUSH0 DUP1 MLOAD PUSH1 0x20 PUSH2 0x3C0D DUP4 CODECOPY DUP2 MLOAD SWAP2 MSTORE SLOAD PUSH1 0xFF AND PUSH2 0x37E JUMP JUMPDEST CALLVALUE DUP1 ISZERO PUSH2 0x6C4 JUMPI PUSH0 DUP1 REVERT JUMPDEST POP PUSH2 0x37E PUSH2 0x6D3 CALLDATASIZE PUSH1 0x4 PUSH2 0x33AE JUMP JUMPDEST PUSH2 0xE8B JUMP JUMPDEST CALLVALUE DUP1 ISZERO PUSH2 0x6E3 JUMPI PUSH0 DUP1 REVERT JUMPDEST POP PUSH2 0x442 PUSH2 0x6F2 CALLDATASIZE PUSH1 0x4 PUSH2 0x3393 JUMP JUMPDEST PUSH2 0xFFD JUMP JUMPDEST CALLVALUE DUP1 ISZERO PUSH2 0x702 JUMPI PUSH0 DUP1 REVERT JUMPDEST POP PUSH2 0x716 PUSH2 0x711 CALLDATASIZE PUSH1 0x4 PUSH2 0x3393 JUMP JUMPDEST PUSH2 0x1041 JUMP JUMPDEST PUSH1 0x40 MLOAD PUSH4 0xFFFFFFFF SWAP1 SWAP2 AND DUP2 MSTORE PUSH1 0x20 ADD PUSH2 0x38A JUMP JUMPDEST CALLVALUE DUP1 ISZERO PUSH2 0x736 JUMPI PUSH0 DUP1 REVERT JUMPDEST POP PUSH2 0x442 PUSH2 0x745 CALLDATASIZE PUSH1 0x4 PUSH2 0x3393 JUMP JUMPDEST PUSH2 0x104B JUMP JUMPDEST CALLVALUE DUP1 ISZERO PUSH2 0x755 JUMPI PUSH0 DUP1 REVERT JUMPDEST POP PUSH2 0x3F2 PUSH2 0x764 CALLDATASIZE PUSH1 0x4 PUSH2 0x3202 JUMP JUMPDEST PUSH2 0x107B JUMP JUMPDEST CALLVALUE DUP1 ISZERO PUSH2 0x774 JUMPI PUSH0 DUP1 REVERT JUMPDEST POP PUSH2 0x3F2 PUSH2 0x783 CALLDATASIZE PUSH1 0x4 PUSH2 0x31D8 JUMP JUMPDEST PUSH2 0x10AF JUMP JUMPDEST CALLVALUE DUP1 ISZERO PUSH2 0x793 JUMPI PUSH0 DUP1 REVERT JUMPDEST POP PUSH2 0x442 PUSH2 0x7A2 CALLDATASIZE PUSH1 0x4 PUSH2 0x3393 JUMP JUMPDEST PUSH2 0x10C4 JUMP JUMPDEST CALLVALUE DUP1 ISZERO PUSH2 0x7B2 JUMPI PUSH0 DUP1 REVERT JUMPDEST POP PUSH2 0x3F2 PUSH2 0x10CE JUMP JUMPDEST CALLVALUE DUP1 ISZERO PUSH2 0x7C6 JUMPI PUSH0 DUP1 REVERT JUMPDEST POP PUSH2 0x7CF PUSH2 0x10ED JUMP JUMPDEST PUSH1 0x40 MLOAD PUSH2 0x38A SWAP8 SWAP7 SWAP6 SWAP5 SWAP4 SWAP3 SWAP2 SWAP1 PUSH2 0x3445 JUMP JUMPDEST CALLVALUE DUP1 ISZERO PUSH2 0x7ED JUMPI PUSH0 DUP1 REVERT JUMPDEST POP PUSH2 0x3F2 PUSH2 0x7FC CALLDATASIZE PUSH1 0x4 PUSH2 0x34DC JUMP JUMPDEST PUSH2 0x1196 JUMP JUMPDEST CALLVALUE DUP1 ISZERO PUSH2 0x80C JUMPI PUSH0 DUP1 REVERT JUMPDEST POP PUSH2 0x442 PUSH2 0x81B CALLDATASIZE PUSH1 0x4 PUSH2 0x3202 JUMP JUMPDEST PUSH2 0x1464 JUMP JUMPDEST CALLVALUE DUP1 ISZERO PUSH2 0x82B JUMPI PUSH0 DUP1 REVERT JUMPDEST POP PUSH2 0x37E PUSH2 0x83A CALLDATASIZE PUSH1 0x4 PUSH2 0x3289 JUMP JUMPDEST PUSH2 0x14DE JUMP JUMPDEST CALLVALUE DUP1 ISZERO PUSH2 0x84A JUMPI PUSH0 DUP1 REVERT JUMPDEST POP PUSH2 0x853 PUSH2 0x1514 JUMP JUMPDEST PUSH1 0x40 MLOAD PUSH6 0xFFFFFFFFFFFF SWAP1 SWAP2 AND DUP2 MSTORE PUSH1 0x20 ADD PUSH2 0x38A JUMP JUMPDEST CALLVALUE DUP1 ISZERO PUSH2 0x875 JUMPI PUSH0 DUP1 REVERT JUMPDEST POP PUSH2 0x3A7 PUSH2 0x151D JUMP JUMPDEST CALLVALUE DUP1 ISZERO PUSH2 0x889 JUMPI PUSH0 DUP1 REVERT JUMPDEST POP PUSH2 0x442 PUSH2 0x898 CALLDATASIZE PUSH1 0x4 PUSH2 0x3393 JUMP JUMPDEST PUSH2 0x155B JUMP JUMPDEST CALLVALUE DUP1 ISZERO PUSH2 0x8A8 JUMPI PUSH0 DUP1 REVERT JUMPDEST POP PUSH2 0x442 PUSH0 DUP2 JUMP JUMPDEST CALLVALUE DUP1 ISZERO PUSH2 0x8BB JUMPI PUSH0 DUP1 REVERT JUMPDEST POP PUSH2 0x37E PUSH2 0x8CA CALLDATASIZE PUSH1 0x4 PUSH2 0x31D8 JUMP JUMPDEST PUSH2 0x15B9 JUMP JUMPDEST CALLVALUE DUP1 ISZERO PUSH2 0x8DA JUMPI PUSH0 DUP1 REVERT JUMPDEST POP PUSH2 0x3A7 PUSH1 0x40 MLOAD DUP1 PUSH1 0x40 ADD PUSH1 0x40 MSTORE DUP1 PUSH1 0x5 DUP2 MSTORE PUSH1 0x20 ADD PUSH5 0x352E302E3 PUSH1 0xDC SHL DUP2 MSTORE POP DUP2 JUMP JUMPDEST CALLVALUE DUP1 ISZERO PUSH2 0x90A JUMPI PUSH0 DUP1 REVERT JUMPDEST POP PUSH2 0x3F2 PUSH2 0x919 CALLDATASIZE PUSH1 0x4 PUSH2 0x3202 JUMP JUMPDEST PUSH2 0x15C6 JUMP JUMPDEST CALLVALUE DUP1 ISZERO PUSH2 0x929 JUMPI PUSH0 DUP1 REVERT JUMPDEST POP PUSH2 0x3F2 PUSH2 0x938 CALLDATASIZE PUSH1 0x4 PUSH2 0x3580 JUMP JUMPDEST PUSH2 0x15F0 JUMP JUMPDEST CALLVALUE DUP1 ISZERO PUSH2 0x948 JUMPI PUSH0 DUP1 REVERT JUMPDEST POP PUSH2 0x3F2 PUSH2 0x957 CALLDATASIZE PUSH1 0x4 PUSH2 0x3609 JUMP JUMPDEST PUSH2 0x1663 JUMP JUMPDEST CALLVALUE DUP1 ISZERO PUSH2 0x967 JUMPI PUSH0 DUP1 REVERT JUMPDEST POP PUSH2 0x3F2 PUSH2 0x976 CALLDATASIZE PUSH1 0x4 PUSH2 0x365F JUMP JUMPDEST PUSH2 0x171F JUMP JUMPDEST CALLVALUE DUP1 ISZERO PUSH2 0x986 JUMPI PUSH0 DUP1 REVERT JUMPDEST POP PUSH2 0x442 PUSH32 0x9F2DF0FED2C77648DE5860A4CC508CD0818C85B8B8A1AB4CEEEF8D981C8956A6 DUP2 JUMP JUMPDEST CALLVALUE DUP1 ISZERO PUSH2 0x9B9 JUMPI PUSH0 DUP1 REVERT JUMPDEST POP PUSH2 0x3F2 PUSH2 0x9C8 CALLDATASIZE PUSH1 0x4 PUSH2 0x3289 JUMP JUMPDEST PUSH2 0x1838 JUMP JUMPDEST CALLVALUE DUP1 ISZERO PUSH2 0x9D8 JUMPI PUSH0 DUP1 REVERT JUMPDEST POP PUSH2 0x442 PUSH2 0x9E7 CALLDATASIZE PUSH1 0x4 PUSH2 0x31D8 JUMP JUMPDEST PUSH2 0x1854 JUMP JUMPDEST CALLVALUE DUP1 ISZERO PUSH2 0x9F7 JUMPI PUSH0 DUP1 REVERT JUMPDEST POP PUSH2 0x442 PUSH2 0xA06 CALLDATASIZE PUSH1 0x4 PUSH2 0x36C8 JUMP JUMPDEST PUSH2 0x188F JUMP JUMPDEST CALLVALUE DUP1 ISZERO PUSH2 0xA16 JUMPI PUSH0 DUP1 REVERT JUMPDEST POP PUSH2 0x442 PUSH0 DUP1 MLOAD PUSH1 0x20 PUSH2 0x3BCD DUP4 CODECOPY DUP2 MLOAD SWAP2 MSTORE DUP2 JUMP JUMPDEST CALLVALUE DUP1 ISZERO PUSH2 0xA36 JUMPI PUSH0 DUP1 REVERT JUMPDEST POP PUSH2 0x442 PUSH0 DUP1 MLOAD PUSH1 0x20 PUSH2 0x3B0B DUP4 CODECOPY DUP2 MLOAD SWAP2 MSTORE DUP2 JUMP JUMPDEST CALLVALUE DUP1 ISZERO PUSH2 0xA56 JUMPI PUSH0 DUP1 REVERT JUMPDEST POP PUSH2 0x3F2 PUSH2 0x3ED CALLDATASIZE PUSH1 0x4 PUSH2 0x36F4 JUMP JUMPDEST CALLVALUE DUP1 ISZERO PUSH2 0xA70 JUMPI PUSH0 DUP1 REVERT JUMPDEST POP PUSH2 0xA84 PUSH2 0xA7F CALLDATASIZE PUSH1 0x4 PUSH2 0x3739 JUMP JUMPDEST PUSH2 0x18D8 JUMP JUMPDEST PUSH1 0x40 DUP1 MLOAD DUP3 MLOAD PUSH6 0xFFFFFFFFFFFF AND DUP2 MSTORE PUSH1 0x20 SWAP3 DUP4 ADD MLOAD PUSH1 0x1 PUSH1 0x1 PUSH1 0xD0 SHL SUB AND SWAP3 DUP2 ADD SWAP3 SWAP1 SWAP3 MSTORE ADD PUSH2 0x38A JUMP JUMPDEST CALLVALUE DUP1 ISZERO PUSH2 0xABB JUMPI PUSH0 DUP1 REVERT JUMPDEST POP PUSH2 0x442 PUSH32 0x189AB7A9244DF0848122154315AF71FE140F3DB0FE014031783B0946B8C9D2E3 DUP2 JUMP JUMPDEST PUSH0 PUSH1 0x1 PUSH1 0x1 PUSH1 0xE0 SHL SUB NOT DUP3 AND PUSH4 0x7965DB0B PUSH1 0xE0 SHL EQ DUP1 PUSH2 0xB13 JUMPI POP PUSH4 0x1FFC9A7 PUSH1 0xE0 SHL PUSH1 0x1 PUSH1 0x1 PUSH1 0xE0 SHL SUB NOT DUP4 AND EQ JUMPDEST SWAP3 SWAP2 POP POP JUMP JUMPDEST PUSH1 0x60 PUSH0 PUSH0 DUP1 MLOAD PUSH1 0x20 PUSH2 0x3B4B DUP4 CODECOPY DUP2 MLOAD SWAP2 MSTORE JUMPDEST SWAP1 POP DUP1 PUSH1 0x3 ADD DUP1 SLOAD PUSH2 0xB3C SWAP1 PUSH2 0x376D JUMP JUMPDEST DUP1 PUSH1 0x1F ADD PUSH1 0x20 DUP1 SWAP2 DIV MUL PUSH1 0x20 ADD PUSH1 0x40 MLOAD SWAP1 DUP2 ADD PUSH1 0x40 MSTORE DUP1 SWAP3 SWAP2 SWAP1 DUP2 DUP2 MSTORE PUSH1 0x20 ADD DUP3 DUP1 SLOAD PUSH2 0xB68 SWAP1 PUSH2 0x376D JUMP JUMPDEST DUP1 ISZERO PUSH2 0xBB3 JUMPI DUP1 PUSH1 0x1F LT PUSH2 0xB8A JUMPI PUSH2 0x100 DUP1 DUP4 SLOAD DIV MUL DUP4 MSTORE SWAP2 PUSH1 0x20 ADD SWAP2 PUSH2 0xBB3 JUMP JUMPDEST DUP3 ADD SWAP2 SWAP1 PUSH0 MSTORE PUSH1 0x20 PUSH0 KECCAK256 SWAP1 JUMPDEST DUP2 SLOAD DUP2 MSTORE SWAP1 PUSH1 0x1 ADD SWAP1 PUSH1 0x20 ADD DUP1 DUP4 GT PUSH2 0xB96 JUMPI DUP3 SWAP1 SUB PUSH1 0x1F AND DUP3 ADD SWAP2 JUMPDEST POP POP POP POP POP SWAP2 POP POP SWAP1 JUMP JUMPDEST PUSH0 CALLER PUSH2 0xBCB DUP2 DUP6 DUP6 PUSH2 0x18F5 JUMP JUMPDEST POP PUSH1 0x1 SWAP4 SWAP3 POP POP POP JUMP JUMPDEST PUSH0 DUP1 MLOAD PUSH1 0x20 PUSH2 0x3B0B DUP4 CODECOPY DUP2 MLOAD SWAP2 MSTORE PUSH2 0xBEC DUP2 PUSH2 0x1902 JUMP JUMPDEST POP POP JUMP JUMPDEST PUSH0 DUP1 MLOAD PUSH1 0x20 PUSH2 0x3B0B DUP4 CODECOPY DUP2 MLOAD SWAP2 MSTORE PUSH2 0xC07 DUP2 PUSH2 0x1902 JUMP JUMPDEST POP POP POP JUMP JUMPDEST PUSH0 CALLER PUSH2 0xC19 DUP6 DUP3 DUP6 PUSH2 0x190C JUMP JUMPDEST PUSH2 0xC24 DUP6 DUP6 DUP6 PUSH2 0x1969 JUMP JUMPDEST PUSH1 0x1 SWAP2 POP POP JUMPDEST SWAP4 SWAP3 POP POP POP JUMP JUMPDEST PUSH0 SWAP1 DUP2 MSTORE PUSH0 DUP1 MLOAD PUSH1 0x20 PUSH2 0x3BED DUP4 CODECOPY DUP2 MLOAD SWAP2 MSTORE PUSH1 0x20 MSTORE PUSH1 0x40 SWAP1 KECCAK256 PUSH1 0x1 ADD SLOAD SWAP1 JUMP JUMPDEST PUSH2 0xC5A DUP3 PUSH2 0xC31 JUMP JUMPDEST PUSH2 0xC63 DUP2 PUSH2 0x1902 JUMP JUMPDEST PUSH2 0xC6D DUP4 DUP4 PUSH2 0x19C6 JUMP JUMPDEST POP POP POP POP JUMP JUMPDEST PUSH0 PUSH2 0xC7C PUSH2 0x1A6E JUMP JUMPDEST SWAP1 POP SWAP1 JUMP JUMPDEST PUSH1 0x1 PUSH1 0x1 PUSH1 0xA0 SHL SUB DUP2 AND CALLER EQ PUSH2 0xCAA JUMPI PUSH1 0x40 MLOAD PUSH4 0x334BD919 PUSH1 0xE1 SHL DUP2 MSTORE PUSH1 0x4 ADD PUSH1 0x40 MLOAD DUP1 SWAP2 SUB SWAP1 REVERT JUMPDEST PUSH2 0xC07 DUP3 DUP3 PUSH2 0x1A77 JUMP JUMPDEST PUSH0 PUSH0 DUP1 MLOAD PUSH1 0x20 PUSH2 0x3B2B DUP4 CODECOPY DUP2 MLOAD SWAP2 MSTORE DUP2 PUSH2 0xCCC PUSH2 0x1514 JUMP JUMPDEST SWAP1 POP DUP1 PUSH6 0xFFFFFFFFFFFF AND DUP5 LT PUSH2 0xD0C JUMPI PUSH1 0x40 MLOAD PUSH4 0x7669FC0F PUSH1 0xE1 SHL DUP2 MSTORE PUSH1 0x4 DUP2 ADD DUP6 SWAP1 MSTORE PUSH6 0xFFFFFFFFFFFF DUP3 AND PUSH1 0x24 DUP3 ADD MSTORE PUSH1 0x44 ADD JUMPDEST PUSH1 0x40 MLOAD DUP1 SWAP2 SUB SWAP1 REVERT JUMPDEST PUSH2 0xD37 PUSH2 0xD18 DUP6 PUSH2 0x1AF0 JUMP JUMPDEST PUSH1 0x1 PUSH1 0x1 PUSH1 0xA0 SHL SUB DUP8 AND PUSH0 SWAP1 DUP2 MSTORE PUSH1 0x1 DUP6 ADD PUSH1 0x20 MSTORE PUSH1 0x40 SWAP1 KECCAK256 SWAP1 PUSH2 0x1B26 JUMP JUMPDEST PUSH1 0x1 PUSH1 0x1 PUSH1 0xD0 SHL SUB AND SWAP6 SWAP5 POP POP POP POP POP JUMP JUMPDEST PUSH0 DUP1 MLOAD PUSH1 0x20 PUSH2 0x3BCD DUP4 CODECOPY DUP2 MLOAD SWAP2 MSTORE PUSH2 0xD60 DUP2 PUSH2 0x1902 JUMP JUMPDEST PUSH2 0xD68 PUSH2 0x1BD6 JUMP JUMPDEST POP JUMP JUMPDEST PUSH32 0x9F2DF0FED2C77648DE5860A4CC508CD0818C85B8B8A1AB4CEEEF8D981C8956A6 PUSH2 0xD95 DUP2 PUSH2 0x1902 JUMP JUMPDEST PUSH2 0xC07 DUP4 DUP4 PUSH2 0x1C35 JUMP JUMPDEST PUSH2 0xD68 CALLER DUP3 PUSH2 0x1C69 JUMP JUMPDEST PUSH1 0x60 PUSH2 0xDB3 PUSH2 0x1C9D JUMP JUMPDEST PUSH6 0xFFFFFFFFFFFF AND PUSH2 0xDC3 PUSH2 0x1514 JUMP JUMPDEST PUSH6 0xFFFFFFFFFFFF AND EQ PUSH2 0xDE9 JUMPI PUSH1 0x40 MLOAD PUSH4 0x1BFC1C5 PUSH1 0xE6 SHL DUP2 MSTORE PUSH1 0x4 ADD PUSH1 0x40 MLOAD DUP1 SWAP2 SUB SWAP1 REVERT JUMPDEST POP PUSH1 0x40 DUP1 MLOAD DUP1 DUP3 ADD SWAP1 SWAP2 MSTORE PUSH1 0x1D DUP2 MSTORE PUSH32 0x6D6F64653D626C6F636B6E756D6265722666726F6D3D64656661756C74000000 PUSH1 0x20 DUP3 ADD MSTORE SWAP1 JUMP JUMPDEST PUSH2 0xE29 PUSH2 0x1CA7 JUMP JUMPDEST PUSH2 0xE32 DUP3 PUSH2 0x1D4D JUMP JUMPDEST PUSH2 0xBEC DUP3 DUP3 PUSH2 0x1D77 JUMP JUMPDEST PUSH0 PUSH2 0xE45 PUSH2 0x1E33 JUMP JUMPDEST POP PUSH0 DUP1 MLOAD PUSH1 0x20 PUSH2 0x3BAD DUP4 CODECOPY DUP2 MLOAD SWAP2 MSTORE SWAP1 JUMP JUMPDEST PUSH1 0x1 PUSH1 0x1 PUSH1 0xA0 SHL SUB SWAP1 DUP2 AND PUSH0 SWAP1 DUP2 MSTORE PUSH0 DUP1 MLOAD PUSH1 0x20 PUSH2 0x3B2B DUP4 CODECOPY DUP2 MLOAD SWAP2 MSTORE PUSH1 0x20 MSTORE PUSH1 0x40 SWAP1 KECCAK256 SLOAD AND SWAP1 JUMP JUMPDEST CALLER PUSH2 0xBEC DUP2 DUP4 PUSH2 0x1E7C JUMP JUMPDEST PUSH0 DUP1 PUSH2 0xE96 DUP7 PUSH2 0xFFD JUMP JUMPDEST SWAP1 POP DUP1 DUP6 GT ISZERO PUSH2 0xEBC JUMPI PUSH1 0x40 MLOAD PUSH4 0xFD9A7609 PUSH1 0xE0 SHL DUP2 MSTORE PUSH1 0x4 DUP2 ADD DUP3 SWAP1 MSTORE PUSH1 0x24 ADD PUSH2 0xD03 JUMP JUMPDEST PUSH0 PUSH2 0xEC7 DUP8 DUP8 PUSH2 0x1854 JUMP JUMPDEST SWAP1 POP PUSH2 0xED3 DUP9 DUP8 PUSH2 0x1C35 JUMP JUMPDEST PUSH1 0x40 MLOAD PUSH4 0x23E30C8B PUSH1 0xE0 SHL DUP2 MSTORE PUSH32 0x439148F0BBC682CA079E46D6E2C2F0C1E3B820F1A291B069D8882ABF8CF18DD9 SWAP1 PUSH1 0x1 PUSH1 0x1 PUSH1 0xA0 SHL SUB DUP11 AND SWAP1 PUSH4 0x23E30C8B SWAP1 PUSH2 0xF2B SWAP1 CALLER SWAP1 DUP13 SWAP1 DUP13 SWAP1 DUP9 SWAP1 DUP14 SWAP1 DUP14 SWAP1 PUSH1 0x4 ADD PUSH2 0x37A5 JUMP JUMPDEST PUSH1 0x20 PUSH1 0x40 MLOAD DUP1 DUP4 SUB DUP2 PUSH0 DUP8 GAS CALL ISZERO DUP1 ISZERO PUSH2 0xF47 JUMPI RETURNDATASIZE PUSH0 DUP1 RETURNDATACOPY RETURNDATASIZE PUSH0 REVERT JUMPDEST POP POP POP POP PUSH1 0x40 MLOAD RETURNDATASIZE PUSH1 0x1F NOT PUSH1 0x1F DUP3 ADD AND DUP3 ADD DUP1 PUSH1 0x40 MSTORE POP DUP2 ADD SWAP1 PUSH2 0xF6B SWAP2 SWAP1 PUSH2 0x37FF JUMP JUMPDEST EQ PUSH2 0xF93 JUMPI PUSH1 0x40 MLOAD PUSH3 0x678C5B PUSH1 0xE8 SHL DUP2 MSTORE PUSH1 0x1 PUSH1 0x1 PUSH1 0xA0 SHL SUB DUP10 AND PUSH1 0x4 DUP3 ADD MSTORE PUSH1 0x24 ADD PUSH2 0xD03 JUMP JUMPDEST PUSH0 PUSH2 0xFA8 DUP10 ADDRESS PUSH2 0xFA3 DUP6 DUP12 PUSH2 0x382A JUMP JUMPDEST PUSH2 0x190C JUMP JUMPDEST DUP2 ISZERO DUP1 PUSH2 0xFBC JUMPI POP PUSH1 0x1 PUSH1 0x1 PUSH1 0xA0 SHL SUB DUP2 AND ISZERO JUMPDEST ISZERO PUSH2 0xFD9 JUMPI PUSH2 0xFD4 DUP10 PUSH2 0xFCF DUP5 DUP11 PUSH2 0x382A JUMP JUMPDEST PUSH2 0x1C69 JUMP JUMPDEST PUSH2 0xFEE JUMP JUMPDEST PUSH2 0xFE3 DUP10 DUP9 PUSH2 0x1C69 JUMP JUMPDEST PUSH2 0xFEE DUP10 DUP3 DUP5 PUSH2 0x1969 JUMP JUMPDEST POP PUSH1 0x1 SWAP9 SWAP8 POP POP POP POP POP POP POP POP JUMP JUMPDEST PUSH0 PUSH1 0x1 PUSH1 0x1 PUSH1 0xA0 SHL SUB DUP3 AND ADDRESS EQ PUSH2 0x1014 JUMPI PUSH0 PUSH2 0xB13 JUMP JUMPDEST PUSH32 0x52C63247E1F47DB19D5CE0460030C497F067CA4CEBF71BA98EEADABE20BACE02 SLOAD PUSH2 0xB13 SWAP1 PUSH0 NOT PUSH2 0x383D JUMP JUMPDEST PUSH0 PUSH2 0xB13 DUP3 PUSH2 0x1F03 JUMP JUMPDEST PUSH0 DUP1 PUSH0 DUP1 MLOAD PUSH1 0x20 PUSH2 0x3B4B DUP4 CODECOPY DUP2 MLOAD SWAP2 MSTORE JUMPDEST PUSH1 0x1 PUSH1 0x1 PUSH1 0xA0 SHL SUB SWAP1 SWAP4 AND PUSH0 SWAP1 DUP2 MSTORE PUSH1 0x20 SWAP4 SWAP1 SWAP4 MSTORE POP POP PUSH1 0x40 SWAP1 KECCAK256 SLOAD SWAP1 JUMP JUMPDEST PUSH32 0xB9E206FA2AF7EE1331B72CE58B6D938AC810CE9B5CDB65D35AB723FD67BADF9E PUSH2 0x10A5 DUP2 PUSH2 0x1902 JUMP JUMPDEST PUSH2 0xBEC CALLER DUP4 PUSH2 0x1C69 JUMP JUMPDEST PUSH2 0x10BA DUP3 CALLER DUP4 PUSH2 0x190C JUMP JUMPDEST PUSH2 0xBEC DUP3 DUP3 PUSH2 0x1C69 JUMP JUMPDEST PUSH0 PUSH2 0xB13 DUP3 PUSH2 0x1F52 JUMP JUMPDEST PUSH0 DUP1 MLOAD PUSH1 0x20 PUSH2 0x3BCD DUP4 CODECOPY DUP2 MLOAD SWAP2 MSTORE PUSH2 0x10E5 DUP2 PUSH2 0x1902 JUMP JUMPDEST PUSH2 0xD68 PUSH2 0x1F5C JUMP JUMPDEST PUSH0 PUSH1 0x60 DUP1 DUP3 DUP1 DUP1 DUP4 DUP2 PUSH0 DUP1 MLOAD PUSH1 0x20 PUSH2 0x3B6B DUP4 CODECOPY DUP2 MLOAD SWAP2 MSTORE DUP1 SLOAD SWAP1 SWAP2 POP ISZERO DUP1 ISZERO PUSH2 0x1118 JUMPI POP PUSH1 0x1 DUP2 ADD SLOAD ISZERO JUMPDEST PUSH2 0x115C JUMPI PUSH1 0x40 MLOAD PUSH3 0x461BCD PUSH1 0xE5 SHL DUP2 MSTORE PUSH1 0x20 PUSH1 0x4 DUP3 ADD MSTORE PUSH1 0x15 PUSH1 0x24 DUP3 ADD MSTORE PUSH21 0x1152540DCC4C8E88155B9A5B9A5D1A585B1A5E9959 PUSH1 0x5A SHL PUSH1 0x44 DUP3 ADD MSTORE PUSH1 0x64 ADD PUSH2 0xD03 JUMP JUMPDEST PUSH2 0x1164 PUSH2 0x1FA4 JUMP JUMPDEST PUSH2 0x116C PUSH2 0x1FE2 JUMP JUMPDEST PUSH1 0x40 DUP1 MLOAD PUSH0 DUP1 DUP3 MSTORE PUSH1 0x20 DUP3 ADD SWAP1 SWAP3 MSTORE PUSH1 0xF PUSH1 0xF8 SHL SWAP13 SWAP4 SWAP12 POP SWAP2 SWAP10 POP CHAINID SWAP9 POP ADDRESS SWAP8 POP SWAP6 POP SWAP4 POP SWAP2 POP POP JUMP JUMPDEST PUSH32 0xF0C57E16840DF040F15088DC2F81FE391C3923BEC73E23A9662EFC9C229C6A00 DUP1 SLOAD PUSH1 0x1 PUSH1 0x40 SHL DUP2 DIV PUSH1 0xFF AND ISZERO SWAP1 PUSH8 0xFFFFFFFFFFFFFFFF AND PUSH0 DUP2 ISZERO DUP1 ISZERO PUSH2 0x11DB JUMPI POP DUP3 JUMPDEST SWAP1 POP PUSH0 DUP3 PUSH8 0xFFFFFFFFFFFFFFFF AND PUSH1 0x1 EQ DUP1 ISZERO PUSH2 0x11F7 JUMPI POP ADDRESS EXTCODESIZE ISZERO JUMPDEST SWAP1 POP DUP2 ISZERO DUP1 ISZERO PUSH2 0x1205 JUMPI POP DUP1 ISZERO JUMPDEST ISZERO PUSH2 0x1223 JUMPI PUSH1 0x40 MLOAD PUSH4 0xF92EE8A9 PUSH1 0xE0 SHL DUP2 MSTORE PUSH1 0x4 ADD PUSH1 0x40 MLOAD DUP1 SWAP2 SUB SWAP1 REVERT JUMPDEST DUP5 SLOAD PUSH8 0xFFFFFFFFFFFFFFFF NOT AND PUSH1 0x1 OR DUP6 SSTORE DUP4 ISZERO PUSH2 0x124D JUMPI DUP5 SLOAD PUSH1 0xFF PUSH1 0x40 SHL NOT AND PUSH1 0x1 PUSH1 0x40 SHL OR DUP6 SSTORE JUMPDEST PUSH2 0x128A PUSH1 0x40 MLOAD DUP1 PUSH1 0x60 ADD PUSH1 0x40 MSTORE DUP1 PUSH1 0x22 DUP2 MSTORE PUSH1 0x20 ADD PUSH2 0x3B8B PUSH1 0x22 SWAP2 CODECOPY PUSH1 0x40 MLOAD DUP1 PUSH1 0x40 ADD PUSH1 0x40 MSTORE DUP1 PUSH1 0x3 DUP2 MSTORE PUSH1 0x20 ADD PUSH3 0x10D455 PUSH1 0xEA SHL DUP2 MSTORE POP PUSH2 0x1FF8 JUMP JUMPDEST PUSH2 0x1292 PUSH2 0x200A JUMP JUMPDEST PUSH2 0x129A PUSH2 0x2012 JUMP JUMPDEST PUSH2 0x12A2 PUSH2 0x200A JUMP JUMPDEST PUSH2 0x12C3 PUSH1 0x40 MLOAD DUP1 PUSH1 0x60 ADD PUSH1 0x40 MSTORE DUP1 PUSH1 0x22 DUP2 MSTORE PUSH1 0x20 ADD PUSH2 0x3B8B PUSH1 0x22 SWAP2 CODECOPY PUSH2 0x2022 JUMP JUMPDEST PUSH2 0x12CB PUSH2 0x200A JUMP JUMPDEST PUSH2 0x12D3 PUSH2 0x200A JUMP JUMPDEST PUSH2 0x12DB PUSH2 0x200A JUMP JUMPDEST PUSH2 0x12E5 PUSH0 DUP15 PUSH2 0x19C6 JUMP JUMPDEST POP PUSH2 0x12FD PUSH0 DUP1 MLOAD PUSH1 0x20 PUSH2 0x3BCD DUP4 CODECOPY DUP2 MLOAD SWAP2 MSTORE DUP14 PUSH2 0x19C6 JUMP JUMPDEST POP PUSH2 0x1328 PUSH32 0x9F2DF0FED2C77648DE5860A4CC508CD0818C85B8B8A1AB4CEEEF8D981C8956A6 DUP13 PUSH2 0x19C6 JUMP JUMPDEST POP PUSH2 0x1353 PUSH32 0x189AB7A9244DF0848122154315AF71FE140F3DB0FE014031783B0946B8C9D2E3 DUP12 PUSH2 0x19C6 JUMP JUMPDEST POP PUSH2 0x137E PUSH32 0x3C11D16CBAFFD01DF69CE1C404F6340EE057498F5F00246190EA54220576A848 DUP11 PUSH2 0x19C6 JUMP JUMPDEST POP PUSH2 0x13A9 PUSH32 0xF9091C9C3BE31B80AFBE6FB18AC7F65AFC7AE70116C905E33EA83C890FDDA924 DUP10 PUSH2 0x19C6 JUMP JUMPDEST POP PUSH2 0x13D4 PUSH32 0xB9E206FA2AF7EE1331B72CE58B6D938AC810CE9B5CDB65D35AB723FD67BADF9E DUP9 PUSH2 0x19C6 JUMP JUMPDEST POP PUSH2 0x13EC PUSH0 DUP1 MLOAD PUSH1 0x20 PUSH2 0x3B0B DUP4 CODECOPY DUP2 MLOAD SWAP2 MSTORE DUP8 PUSH2 0x19C6 JUMP JUMPDEST POP PUSH2 0x140F CALLER PUSH2 0x13FC PUSH1 0x12 DUP1 PUSH2 0x3930 JUMP JUMPDEST PUSH2 0x140A SWAP1 PUSH4 0x3B9ACA00 PUSH2 0x393E JUMP JUMPDEST PUSH2 0x1C35 JUMP JUMPDEST DUP4 ISZERO PUSH2 0x1455 JUMPI DUP5 SLOAD PUSH1 0xFF PUSH1 0x40 SHL NOT AND DUP6 SSTORE PUSH1 0x40 MLOAD PUSH1 0x1 DUP2 MSTORE PUSH32 0xC7F505B2F371AE2175EE4913F4499E1F2633A7B5936321EED1CDAEB6115181D2 SWAP1 PUSH1 0x20 ADD PUSH1 0x40 MLOAD DUP1 SWAP2 SUB SWAP1 LOG1 JUMPDEST POP POP POP POP POP POP POP POP POP POP POP POP POP JUMP JUMPDEST PUSH0 PUSH0 DUP1 MLOAD PUSH1 0x20 PUSH2 0x3B2B DUP4 CODECOPY DUP2 MLOAD SWAP2 MSTORE DUP2 PUSH2 0x147C PUSH2 0x1514 JUMP JUMPDEST SWAP1 POP DUP1 PUSH6 0xFFFFFFFFFFFF AND DUP5 LT PUSH2 0x14B7 JUMPI PUSH1 0x40 MLOAD PUSH4 0x7669FC0F PUSH1 0xE1 SHL DUP2 MSTORE PUSH1 0x4 DUP2 ADD DUP6 SWAP1 MSTORE PUSH6 0xFFFFFFFFFFFF DUP3 AND PUSH1 0x24 DUP3 ADD MSTORE PUSH1 0x44 ADD PUSH2 0xD03 JUMP JUMPDEST PUSH2 0x14CD PUSH2 0x14C3 DUP6 PUSH2 0x1AF0 JUMP JUMPDEST PUSH1 0x2 DUP5 ADD SWAP1 PUSH2 0x1B26 JUMP JUMPDEST PUSH1 0x1 PUSH1 0x1 PUSH1 0xD0 SHL SUB AND SWAP5 SWAP4 POP POP POP POP JUMP JUMPDEST PUSH0 SWAP2 DUP3 MSTORE PUSH0 DUP1 MLOAD PUSH1 0x20 PUSH2 0x3BED DUP4 CODECOPY DUP2 MLOAD SWAP2 MSTORE PUSH1 0x20 SWAP1 DUP2 MSTORE PUSH1 0x40 DUP1 DUP5 KECCAK256 PUSH1 0x1 PUSH1 0x1 PUSH1 0xA0 SHL SUB SWAP4 SWAP1 SWAP4 AND DUP5 MSTORE SWAP2 SWAP1 MSTORE SWAP1 KECCAK256 SLOAD PUSH1 0xFF AND SWAP1 JUMP JUMPDEST PUSH0 PUSH2 0xC7C PUSH2 0x1C9D JUMP JUMPDEST PUSH32 0x52C63247E1F47DB19D5CE0460030C497F067CA4CEBF71BA98EEADABE20BACE04 DUP1 SLOAD PUSH1 0x60 SWAP2 PUSH0 DUP1 MLOAD PUSH1 0x20 PUSH2 0x3B4B DUP4 CODECOPY DUP2 MLOAD SWAP2 MSTORE SWAP2 PUSH2 0xB3C SWAP1 PUSH2 0x376D JUMP JUMPDEST PUSH1 0x1 PUSH1 0x1 PUSH1 0xA0 SHL SUB DUP2 AND PUSH0 SWAP1 DUP2 MSTORE PUSH32 0xE8B26C30FAD74198956032A3533D903385D56DD795AF560196F9C78D4AF40D01 PUSH1 0x20 MSTORE PUSH1 0x40 DUP2 KECCAK256 PUSH0 DUP1 MLOAD PUSH1 0x20 PUSH2 0x3B2B DUP4 CODECOPY DUP2 MLOAD SWAP2 MSTORE SWAP1 PUSH2 0x15A9 SWAP1 PUSH2 0x204D JUMP JUMPDEST PUSH1 0x1 PUSH1 0x1 PUSH1 0xD0 SHL SUB AND SWAP4 SWAP3 POP POP POP JUMP JUMPDEST PUSH0 CALLER PUSH2 0xBCB DUP2 DUP6 DUP6 PUSH2 0x1969 JUMP JUMPDEST PUSH32 0x3C11D16CBAFFD01DF69CE1C404F6340EE057498F5F00246190EA54220576A848 PUSH2 0x10A5 DUP2 PUSH2 0x1902 JUMP JUMPDEST PUSH32 0xF9091C9C3BE31B80AFBE6FB18AC7F65AFC7AE70116C905E33EA83C890FDDA924 PUSH2 0x161A DUP2 PUSH2 0x1902 JUMP JUMPDEST PUSH0 JUMPDEST DUP4 DUP2 LT ISZERO PUSH2 0x165C JUMPI PUSH2 0x1654 DUP6 DUP6 DUP4 DUP2 DUP2 LT PUSH2 0x1639 JUMPI PUSH2 0x1639 PUSH2 0x3955 JUMP JUMPDEST SWAP1 POP PUSH1 0x20 MUL ADD PUSH1 0x20 DUP2 ADD SWAP1 PUSH2 0x164E SWAP2 SWAP1 PUSH2 0x3393 JUMP JUMPDEST DUP5 PUSH2 0x1C35 JUMP JUMPDEST PUSH1 0x1 ADD PUSH2 0x161C JUMP JUMPDEST POP POP POP POP POP JUMP JUMPDEST DUP4 TIMESTAMP GT ISZERO PUSH2 0x1687 JUMPI PUSH1 0x40 MLOAD PUSH4 0x2341D787 PUSH1 0xE1 SHL DUP2 MSTORE PUSH1 0x4 DUP2 ADD DUP6 SWAP1 MSTORE PUSH1 0x24 ADD PUSH2 0xD03 JUMP JUMPDEST PUSH1 0x40 DUP1 MLOAD PUSH32 0xE48329057BFD03D55E49B547132E39CFFD9C1820AD7B9D4C5307691425D15ADF PUSH1 0x20 DUP3 ADD MSTORE PUSH1 0x1 PUSH1 0x1 PUSH1 0xA0 SHL SUB DUP9 AND SWAP2 DUP2 ADD SWAP2 SWAP1 SWAP2 MSTORE PUSH1 0x60 DUP2 ADD DUP7 SWAP1 MSTORE PUSH1 0x80 DUP2 ADD DUP6 SWAP1 MSTORE PUSH0 SWAP1 PUSH2 0x1700 SWAP1 PUSH2 0x16F8 SWAP1 PUSH1 0xA0 ADD PUSH1 0x40 MLOAD PUSH1 0x20 DUP2 DUP4 SUB SUB DUP2 MSTORE SWAP1 PUSH1 0x40 MSTORE DUP1 MLOAD SWAP1 PUSH1 0x20 ADD KECCAK256 PUSH2 0x2084 JUMP JUMPDEST DUP6 DUP6 DUP6 PUSH2 0x20B0 JUMP JUMPDEST SWAP1 POP PUSH2 0x170C DUP2 DUP8 PUSH2 0x20DC JUMP JUMPDEST PUSH2 0x1716 DUP2 DUP9 PUSH2 0x1E7C JUMP JUMPDEST POP POP POP POP POP POP POP JUMP JUMPDEST DUP4 TIMESTAMP GT ISZERO PUSH2 0x1743 JUMPI PUSH1 0x40 MLOAD PUSH4 0x313C8981 PUSH1 0xE1 SHL DUP2 MSTORE PUSH1 0x4 DUP2 ADD DUP6 SWAP1 MSTORE PUSH1 0x24 ADD PUSH2 0xD03 JUMP JUMPDEST PUSH0 PUSH32 0x6E71EDAE12B1B97F4D1F60370FEF10105FA2FAAE0126114A169C64845D6126C9 DUP9 DUP9 DUP9 PUSH2 0x1771 DUP13 PUSH2 0x211A JUMP JUMPDEST PUSH1 0x40 DUP1 MLOAD PUSH1 0x20 DUP2 ADD SWAP7 SWAP1 SWAP7 MSTORE PUSH1 0x1 PUSH1 0x1 PUSH1 0xA0 SHL SUB SWAP5 DUP6 AND SWAP1 DUP7 ADD MSTORE SWAP3 SWAP1 SWAP2 AND PUSH1 0x60 DUP5 ADD MSTORE PUSH1 0x80 DUP4 ADD MSTORE PUSH1 0xA0 DUP3 ADD MSTORE PUSH1 0xC0 DUP2 ADD DUP7 SWAP1 MSTORE PUSH1 0xE0 ADD PUSH1 0x40 MLOAD PUSH1 0x20 DUP2 DUP4 SUB SUB DUP2 MSTORE SWAP1 PUSH1 0x40 MSTORE DUP1 MLOAD SWAP1 PUSH1 0x20 ADD KECCAK256 SWAP1 POP PUSH0 PUSH2 0x17CB DUP3 PUSH2 0x2084 JUMP JUMPDEST SWAP1 POP PUSH0 PUSH2 0x17DA DUP3 DUP8 DUP8 DUP8 PUSH2 0x20B0 JUMP JUMPDEST SWAP1 POP DUP10 PUSH1 0x1 PUSH1 0x1 PUSH1 0xA0 SHL SUB AND DUP2 PUSH1 0x1 PUSH1 0x1 PUSH1 0xA0 SHL SUB AND EQ PUSH2 0x1821 JUMPI PUSH1 0x40 MLOAD PUSH4 0x25C00723 PUSH1 0xE1 SHL DUP2 MSTORE PUSH1 0x1 PUSH1 0x1 PUSH1 0xA0 SHL SUB DUP1 DUP4 AND PUSH1 0x4 DUP4 ADD MSTORE DUP12 AND PUSH1 0x24 DUP3 ADD MSTORE PUSH1 0x44 ADD PUSH2 0xD03 JUMP JUMPDEST PUSH2 0x182C DUP11 DUP11 DUP11 PUSH2 0x18F5 JUMP JUMPDEST POP POP POP POP POP POP POP POP POP POP JUMP JUMPDEST PUSH2 0x1841 DUP3 PUSH2 0xC31 JUMP JUMPDEST PUSH2 0x184A DUP2 PUSH2 0x1902 JUMP JUMPDEST PUSH2 0xC6D DUP4 DUP4 PUSH2 0x1A77 JUMP JUMPDEST PUSH0 PUSH1 0x1 PUSH1 0x1 PUSH1 0xA0 SHL SUB DUP4 AND ADDRESS EQ PUSH2 0x1889 JUMPI PUSH1 0x40 MLOAD PUSH4 0x5AD3EDC9 PUSH1 0xE1 SHL DUP2 MSTORE PUSH1 0x1 PUSH1 0x1 PUSH1 0xA0 SHL SUB DUP5 AND PUSH1 0x4 DUP3 ADD MSTORE PUSH1 0x24 ADD PUSH2 0xD03 JUMP JUMPDEST PUSH0 PUSH2 0xC2A JUMP JUMPDEST PUSH1 0x1 PUSH1 0x1 PUSH1 0xA0 SHL SUB SWAP2 DUP3 AND PUSH0 SWAP1 DUP2 MSTORE PUSH32 0x52C63247E1F47DB19D5CE0460030C497F067CA4CEBF71BA98EEADABE20BACE01 PUSH1 0x20 SWAP1 DUP2 MSTORE PUSH1 0x40 DUP1 DUP4 KECCAK256 SWAP4 SWAP1 SWAP5 AND DUP3 MSTORE SWAP2 SWAP1 SWAP2 MSTORE KECCAK256 SLOAD SWAP1 JUMP JUMPDEST PUSH1 0x40 DUP1 MLOAD DUP1 DUP3 ADD SWAP1 SWAP2 MSTORE PUSH0 DUP1 DUP3 MSTORE PUSH1 0x20 DUP3 ADD MSTORE PUSH2 0xC2A DUP4 DUP4 PUSH2 0x215B JUMP JUMPDEST PUSH2 0xC07 DUP4 DUP4 DUP4 PUSH1 0x1 PUSH2 0x21C4 JUMP JUMPDEST PUSH2 0xD68 DUP2 CALLER PUSH2 0x22A7 JUMP JUMPDEST PUSH0 PUSH2 0x1917 DUP5 DUP5 PUSH2 0x188F JUMP JUMPDEST SWAP1 POP PUSH0 NOT DUP2 EQ PUSH2 0xC6D JUMPI DUP2 DUP2 LT ISZERO PUSH2 0x195B JUMPI PUSH1 0x40 MLOAD PUSH4 0x7DC7A0D9 PUSH1 0xE1 SHL DUP2 MSTORE PUSH1 0x1 PUSH1 0x1 PUSH1 0xA0 SHL SUB DUP5 AND PUSH1 0x4 DUP3 ADD MSTORE PUSH1 0x24 DUP2 ADD DUP3 SWAP1 MSTORE PUSH1 0x44 DUP2 ADD DUP4 SWAP1 MSTORE PUSH1 0x64 ADD PUSH2 0xD03 JUMP JUMPDEST PUSH2 0xC6D DUP5 DUP5 DUP5 DUP5 SUB PUSH0 PUSH2 0x21C4 JUMP JUMPDEST PUSH1 0x1 PUSH1 0x1 PUSH1 0xA0 SHL SUB DUP4 AND PUSH2 0x1992 JUMPI PUSH1 0x40 MLOAD PUSH4 0x4B637E8F PUSH1 0xE1 SHL DUP2 MSTORE PUSH0 PUSH1 0x4 DUP3 ADD MSTORE PUSH1 0x24 ADD PUSH2 0xD03 JUMP JUMPDEST PUSH1 0x1 PUSH1 0x1 PUSH1 0xA0 SHL SUB DUP3 AND PUSH2 0x19BB JUMPI PUSH1 0x40 MLOAD PUSH4 0xEC442F05 PUSH1 0xE0 SHL DUP2 MSTORE PUSH0 PUSH1 0x4 DUP3 ADD MSTORE PUSH1 0x24 ADD PUSH2 0xD03 JUMP JUMPDEST PUSH2 0xC07 DUP4 DUP4 DUP4 PUSH2 0x22E0 JUMP JUMPDEST PUSH0 PUSH0 DUP1 MLOAD PUSH1 0x20 PUSH2 0x3BED DUP4 CODECOPY DUP2 MLOAD SWAP2 MSTORE PUSH2 0x19DF DUP5 DUP5 PUSH2 0x14DE JUMP JUMPDEST PUSH2 0x1A5E JUMPI PUSH0 DUP5 DUP2 MSTORE PUSH1 0x20 DUP3 DUP2 MSTORE PUSH1 0x40 DUP1 DUP4 KECCAK256 PUSH1 0x1 PUSH1 0x1 PUSH1 0xA0 SHL SUB DUP8 AND DUP5 MSTORE SWAP1 SWAP2 MSTORE SWAP1 KECCAK256 DUP1 SLOAD PUSH1 0xFF NOT AND PUSH1 0x1 OR SWAP1 SSTORE PUSH2 0x1A14 CALLER SWAP1 JUMP JUMPDEST PUSH1 0x1 PUSH1 0x1 PUSH1 0xA0 SHL SUB AND DUP4 PUSH1 0x1 PUSH1 0x1 PUSH1 0xA0 SHL SUB AND DUP6 PUSH32 0x2F8788117E7EFF1D82E926EC794901D17C78024A50270940304540A733656F0D PUSH1 0x40 MLOAD PUSH1 0x40 MLOAD DUP1 SWAP2 SUB SWAP1 LOG4 PUSH1 0x1 SWAP2 POP POP PUSH2 0xB13 JUMP JUMPDEST PUSH0 SWAP2 POP POP PUSH2 0xB13 JUMP JUMPDEST POP SWAP3 SWAP2 POP POP JUMP JUMPDEST PUSH0 PUSH2 0xC7C PUSH2 0x22EB JUMP JUMPDEST PUSH0 PUSH0 DUP1 MLOAD PUSH1 0x20 PUSH2 0x3BED DUP4 CODECOPY DUP2 MLOAD SWAP2 MSTORE PUSH2 0x1A90 DUP5 DUP5 PUSH2 0x14DE JUMP JUMPDEST ISZERO PUSH2 0x1A5E JUMPI PUSH0 DUP5 DUP2 MSTORE PUSH1 0x20 DUP3 DUP2 MSTORE PUSH1 0x40 DUP1 DUP4 KECCAK256 PUSH1 0x1 PUSH1 0x1 PUSH1 0xA0 SHL SUB DUP8 AND DUP1 DUP6 MSTORE SWAP3 MSTORE DUP1 DUP4 KECCAK256 DUP1 SLOAD PUSH1 0xFF NOT AND SWAP1 SSTORE MLOAD CALLER SWAP3 DUP8 SWAP2 PUSH32 0xF6391F5C32D9C69D2A47EA670B442974B53935D1EDC7FD64EB21E047A839171B SWAP2 SWAP1 LOG4 PUSH1 0x1 SWAP2 POP POP PUSH2 0xB13 JUMP JUMPDEST PUSH0 PUSH6 0xFFFFFFFFFFFF DUP3 GT ISZERO PUSH2 0x1B22 JUMPI PUSH1 0x40 MLOAD PUSH4 0x6DFCC65 PUSH1 0xE4 SHL DUP2 MSTORE PUSH1 0x30 PUSH1 0x4 DUP3 ADD MSTORE PUSH1 0x24 DUP2 ADD DUP4 SWAP1 MSTORE PUSH1 0x44 ADD PUSH2 0xD03 JUMP JUMPDEST POP SWAP1 JUMP JUMPDEST DUP2 SLOAD PUSH0 SWAP1 DUP2 DUP2 PUSH1 0x5 DUP2 GT ISZERO PUSH2 0x1B82 JUMPI PUSH0 PUSH2 0x1B3F DUP5 PUSH2 0x235E JUMP JUMPDEST PUSH2 0x1B49 SWAP1 DUP6 PUSH2 0x383D JUMP JUMPDEST PUSH0 DUP9 DUP2 MSTORE PUSH1 0x20 SWAP1 KECCAK256 SWAP1 SWAP2 POP DUP2 ADD SLOAD PUSH6 0xFFFFFFFFFFFF SWAP1 DUP2 AND SWAP1 DUP8 AND LT ISZERO PUSH2 0x1B72 JUMPI DUP1 SWAP2 POP PUSH2 0x1B80 JUMP JUMPDEST PUSH2 0x1B7D DUP2 PUSH1 0x1 PUSH2 0x382A JUMP JUMPDEST SWAP3 POP JUMPDEST POP JUMPDEST PUSH0 PUSH2 0x1B8F DUP8 DUP8 DUP6 DUP6 PUSH2 0x2442 JUMP JUMPDEST SWAP1 POP DUP1 ISZERO PUSH2 0x1BC9 JUMPI PUSH2 0x1BB3 DUP8 PUSH2 0x1BA6 PUSH1 0x1 DUP5 PUSH2 0x383D JUMP JUMPDEST PUSH0 SWAP2 DUP3 MSTORE PUSH1 0x20 SWAP1 SWAP2 KECCAK256 ADD SWAP1 JUMP JUMPDEST SLOAD PUSH1 0x1 PUSH1 0x30 SHL SWAP1 DIV PUSH1 0x1 PUSH1 0x1 PUSH1 0xD0 SHL SUB AND PUSH2 0x1BCB JUMP JUMPDEST PUSH0 JUMPDEST SWAP8 SWAP7 POP POP POP POP POP POP POP JUMP JUMPDEST PUSH2 0x1BDE PUSH2 0x24A1 JUMP JUMPDEST PUSH0 DUP1 MLOAD PUSH1 0x20 PUSH2 0x3C0D DUP4 CODECOPY DUP2 MLOAD SWAP2 MSTORE DUP1 SLOAD PUSH1 0xFF NOT AND DUP2 SSTORE PUSH32 0x5DB9EE0A495BF2E6FF9C91A7834C1BA4FDD244A5E8AA4E537BD38AEAE4B073AA CALLER JUMPDEST PUSH1 0x40 MLOAD PUSH1 0x1 PUSH1 0x1 PUSH1 0xA0 SHL SUB SWAP1 SWAP2 AND DUP2 MSTORE PUSH1 0x20 ADD PUSH1 0x40 MLOAD DUP1 SWAP2 SUB SWAP1 LOG1 POP JUMP JUMPDEST PUSH1 0x1 PUSH1 0x1 PUSH1 0xA0 SHL SUB DUP3 AND PUSH2 0x1C5E JUMPI PUSH1 0x40 MLOAD PUSH4 0xEC442F05 PUSH1 0xE0 SHL DUP2 MSTORE PUSH0 PUSH1 0x4 DUP3 ADD MSTORE PUSH1 0x24 ADD PUSH2 0xD03 JUMP JUMPDEST PUSH2 0xBEC PUSH0 DUP4 DUP4 PUSH2 0x22E0 JUMP JUMPDEST PUSH1 0x1 PUSH1 0x1 PUSH1 0xA0 SHL SUB DUP3 AND PUSH2 0x1C92 JUMPI PUSH1 0x40 MLOAD PUSH4 0x4B637E8F PUSH1 0xE1 SHL DUP2 MSTORE PUSH0 PUSH1 0x4 DUP3 ADD MSTORE PUSH1 0x24 ADD PUSH2 0xD03 JUMP JUMPDEST PUSH2 0xBEC DUP3 PUSH0 DUP4 PUSH2 0x22E0 JUMP JUMPDEST PUSH0 PUSH2 0xC7C NUMBER PUSH2 0x1AF0 JUMP JUMPDEST ADDRESS PUSH1 0x1 PUSH1 0x1 PUSH1 0xA0 SHL SUB PUSH32 0x0 AND EQ DUP1 PUSH2 0x1D2D JUMPI POP PUSH32 0x0 PUSH1 0x1 PUSH1 0x1 PUSH1 0xA0 SHL SUB AND PUSH2 0x1D21 PUSH0 DUP1 MLOAD PUSH1 0x20 PUSH2 0x3BAD DUP4 CODECOPY DUP2 MLOAD SWAP2 MSTORE SLOAD PUSH1 0x1 PUSH1 0x1 PUSH1 0xA0 SHL SUB AND SWAP1 JUMP JUMPDEST PUSH1 0x1 PUSH1 0x1 PUSH1 0xA0 SHL SUB AND EQ ISZERO JUMPDEST ISZERO PUSH2 0x1D4B JUMPI PUSH1 0x40 MLOAD PUSH4 0x703E46DD PUSH1 0xE1 SHL DUP2 MSTORE PUSH1 0x4 ADD PUSH1 0x40 MLOAD DUP1 SWAP2 SUB SWAP1 REVERT JUMPDEST JUMP JUMPDEST PUSH32 0x189AB7A9244DF0848122154315AF71FE140F3DB0FE014031783B0946B8C9D2E3 PUSH2 0xBEC DUP2 PUSH2 0x1902 JUMP JUMPDEST DUP2 PUSH1 0x1 PUSH1 0x1 PUSH1 0xA0 SHL SUB AND PUSH4 0x52D1902D PUSH1 0x40 MLOAD DUP2 PUSH4 0xFFFFFFFF AND PUSH1 0xE0 SHL DUP2 MSTORE PUSH1 0x4 ADD PUSH1 0x20 PUSH1 0x40 MLOAD DUP1 DUP4 SUB DUP2 DUP7 GAS STATICCALL SWAP3 POP POP POP DUP1 ISZERO PUSH2 0x1DD1 JUMPI POP PUSH1 0x40 DUP1 MLOAD PUSH1 0x1F RETURNDATASIZE SWAP1 DUP2 ADD PUSH1 0x1F NOT AND DUP3 ADD SWAP1 SWAP3 MSTORE PUSH2 0x1DCE SWAP2 DUP2 ADD SWAP1 PUSH2 0x37FF JUMP JUMPDEST PUSH1 0x1 JUMPDEST PUSH2 0x1DF9 JUMPI PUSH1 0x40 MLOAD PUSH4 0x4C9C8CE3 PUSH1 0xE0 SHL DUP2 MSTORE PUSH1 0x1 PUSH1 0x1 PUSH1 0xA0 SHL SUB DUP4 AND PUSH1 0x4 DUP3 ADD MSTORE PUSH1 0x24 ADD PUSH2 0xD03 JUMP JUMPDEST PUSH0 DUP1 MLOAD PUSH1 0x20 PUSH2 0x3BAD DUP4 CODECOPY DUP2 MLOAD SWAP2 MSTORE DUP2 EQ PUSH2 0x1E29 JUMPI PUSH1 0x40 MLOAD PUSH4 0x2A875269 PUSH1 0xE2 SHL DUP2 MSTORE PUSH1 0x4 DUP2 ADD DUP3 SWAP1 MSTORE PUSH1 0x24 ADD PUSH2 0xD03 JUMP JUMPDEST PUSH2 0xC07 DUP4 DUP4 PUSH2 0x24D0 JUMP JUMPDEST ADDRESS PUSH1 0x1 PUSH1 0x1 PUSH1 0xA0 SHL SUB PUSH32 0x0 AND EQ PUSH2 0x1D4B JUMPI PUSH1 0x40 MLOAD PUSH4 0x703E46DD PUSH1 0xE1 SHL DUP2 MSTORE PUSH1 0x4 ADD PUSH1 0x40 MLOAD DUP1 SWAP2 SUB SWAP1 REVERT JUMPDEST PUSH0 DUP1 MLOAD PUSH1 0x20 PUSH2 0x3B2B DUP4 CODECOPY DUP2 MLOAD SWAP2 MSTORE PUSH0 PUSH2 0x1E94 DUP5 PUSH2 0xE57 JUMP JUMPDEST PUSH1 0x1 PUSH1 0x1 PUSH1 0xA0 SHL SUB DUP6 DUP2 AND PUSH0 DUP2 DUP2 MSTORE PUSH1 0x20 DUP7 SWAP1 MSTORE PUSH1 0x40 DUP1 DUP3 KECCAK256 DUP1 SLOAD PUSH1 0x1 PUSH1 0x1 PUSH1 0xA0 SHL SUB NOT AND DUP10 DUP7 AND SWAP1 DUP2 OR SWAP1 SWAP2 SSTORE SWAP1 MLOAD SWAP5 SWAP6 POP SWAP4 SWAP3 DUP6 AND SWAP3 PUSH32 0x3134E8A2E6D97E929A7E54011EA5485D7D196DD5F0BA4D4EF95803E8E3FC257F SWAP2 SWAP1 LOG4 PUSH2 0xC6D DUP2 DUP5 PUSH2 0x1EFE DUP8 PUSH2 0x2525 JUMP JUMPDEST PUSH2 0x252F JUMP JUMPDEST PUSH1 0x1 PUSH1 0x1 PUSH1 0xA0 SHL SUB DUP2 AND PUSH0 SWAP1 DUP2 MSTORE PUSH32 0xE8B26C30FAD74198956032A3533D903385D56DD795AF560196F9C78D4AF40D01 PUSH1 0x20 MSTORE PUSH1 0x40 DUP2 KECCAK256 SLOAD PUSH0 DUP1 MLOAD PUSH1 0x20 PUSH2 0x3B2B DUP4 CODECOPY DUP2 MLOAD SWAP2 MSTORE SWAP1 PUSH2 0xC2A SWAP1 PUSH2 0x26A5 JUMP JUMPDEST PUSH0 PUSH2 0xB13 DUP3 PUSH2 0x26D5 JUMP JUMPDEST PUSH2 0x1F64 PUSH2 0x26FD JUMP JUMPDEST PUSH0 DUP1 MLOAD PUSH1 0x20 PUSH2 0x3C0D DUP4 CODECOPY DUP2 MLOAD SWAP2 MSTORE DUP1 SLOAD PUSH1 0xFF NOT AND PUSH1 0x1 OR DUP2 SSTORE PUSH32 0x62E78CEA01BEE320CD4E420270B5EA74000D11B0C9F74754EBDBFC544B05A258 CALLER PUSH2 0x1C17 JUMP JUMPDEST PUSH32 0xA16A46D94261C7517CC8FF89F61C0CE93598E3C849801011DEE649A6A557D102 DUP1 SLOAD PUSH1 0x60 SWAP2 PUSH0 DUP1 MLOAD PUSH1 0x20 PUSH2 0x3B6B DUP4 CODECOPY DUP2 MLOAD SWAP2 MSTORE SWAP2 PUSH2 0xB3C SWAP1 PUSH2 0x376D JUMP JUMPDEST PUSH1 0x60 PUSH0 PUSH0 DUP1 MLOAD PUSH1 0x20 PUSH2 0x3B6B DUP4 CODECOPY DUP2 MLOAD SWAP2 MSTORE PUSH2 0xB2B JUMP JUMPDEST PUSH2 0x2000 PUSH2 0x272D JUMP JUMPDEST PUSH2 0xBEC DUP3 DUP3 PUSH2 0x2776 JUMP JUMPDEST PUSH2 0x1D4B PUSH2 0x272D JUMP JUMPDEST PUSH2 0x201A PUSH2 0x272D JUMP JUMPDEST PUSH2 0x1D4B PUSH2 0x27C6 JUMP JUMPDEST PUSH2 0x202A PUSH2 0x272D JUMP JUMPDEST PUSH2 0xD68 DUP2 PUSH1 0x40 MLOAD DUP1 PUSH1 0x40 ADD PUSH1 0x40 MSTORE DUP1 PUSH1 0x1 DUP2 MSTORE PUSH1 0x20 ADD PUSH1 0x31 PUSH1 0xF8 SHL DUP2 MSTORE POP PUSH2 0x27E6 JUMP JUMPDEST DUP1 SLOAD PUSH0 SWAP1 DUP1 ISZERO PUSH2 0x207C JUMPI PUSH2 0x2066 DUP4 PUSH2 0x1BA6 PUSH1 0x1 DUP5 PUSH2 0x383D JUMP JUMPDEST SLOAD PUSH1 0x1 PUSH1 0x30 SHL SWAP1 DIV PUSH1 0x1 PUSH1 0x1 PUSH1 0xD0 SHL SUB AND PUSH2 0xC2A JUMP JUMPDEST PUSH0 SWAP4 SWAP3 POP POP POP JUMP JUMPDEST PUSH0 PUSH2 0xB13 PUSH2 0x2090 PUSH2 0x1A6E JUMP JUMPDEST DUP4 PUSH1 0x40 MLOAD PUSH2 0x1901 PUSH1 0xF0 SHL DUP2 MSTORE PUSH1 0x2 DUP2 ADD SWAP3 SWAP1 SWAP3 MSTORE PUSH1 0x22 DUP3 ADD MSTORE PUSH1 0x42 SWAP1 KECCAK256 SWAP1 JUMP JUMPDEST PUSH0 DUP1 PUSH0 DUP1 PUSH2 0x20C0 DUP9 DUP9 DUP9 DUP9 PUSH2 0x2845 JUMP JUMPDEST SWAP3 POP SWAP3 POP SWAP3 POP PUSH2 0x20D0 DUP3 DUP3 PUSH2 0x290D JUMP JUMPDEST POP SWAP1 SWAP7 SWAP6 POP POP POP POP POP POP JUMP JUMPDEST PUSH0 PUSH2 0x20E6 DUP4 PUSH2 0x211A JUMP JUMPDEST SWAP1 POP DUP1 DUP3 EQ PUSH2 0xC07 JUMPI PUSH1 0x40 MLOAD PUSH4 0x1D4B623 PUSH1 0xE6 SHL DUP2 MSTORE PUSH1 0x1 PUSH1 0x1 PUSH1 0xA0 SHL SUB DUP5 AND PUSH1 0x4 DUP3 ADD MSTORE PUSH1 0x24 DUP2 ADD DUP3 SWAP1 MSTORE PUSH1 0x44 ADD PUSH2 0xD03 JUMP JUMPDEST PUSH1 0x1 PUSH1 0x1 PUSH1 0xA0 SHL SUB AND PUSH0 SWAP1 DUP2 MSTORE PUSH32 0x5AB42CED628888259C08AC98DB1EB0CF702FC1501344311D8B100CD1BFE4BB00 PUSH1 0x20 MSTORE PUSH1 0x40 SWAP1 KECCAK256 DUP1 SLOAD PUSH1 0x1 DUP2 ADD SWAP1 SWAP2 SSTORE SWAP1 JUMP JUMPDEST PUSH1 0x40 DUP1 MLOAD DUP1 DUP3 ADD DUP3 MSTORE PUSH0 DUP1 DUP3 MSTORE PUSH1 0x20 DUP1 DUP4 ADD DUP3 SWAP1 MSTORE PUSH1 0x1 PUSH1 0x1 PUSH1 0xA0 SHL SUB DUP7 AND DUP3 MSTORE PUSH32 0xE8B26C30FAD74198956032A3533D903385D56DD795AF560196F9C78D4AF40D01 SWAP1 MSTORE SWAP2 SWAP1 SWAP2 KECCAK256 PUSH0 DUP1 MLOAD PUSH1 0x20 PUSH2 0x3B2B DUP4 CODECOPY DUP2 MLOAD SWAP2 MSTORE SWAP1 PUSH2 0x21BC SWAP1 DUP5 PUSH2 0x29C5 JUMP JUMPDEST SWAP5 SWAP4 POP POP POP POP JUMP JUMPDEST PUSH0 DUP1 MLOAD PUSH1 0x20 PUSH2 0x3B4B DUP4 CODECOPY DUP2 MLOAD SWAP2 MSTORE PUSH1 0x1 PUSH1 0x1 PUSH1 0xA0 SHL SUB DUP6 AND PUSH2 0x21FB JUMPI PUSH1 0x40 MLOAD PUSH4 0xE602DF05 PUSH1 0xE0 SHL DUP2 MSTORE PUSH0 PUSH1 0x4 DUP3 ADD MSTORE PUSH1 0x24 ADD PUSH2 0xD03 JUMP JUMPDEST PUSH1 0x1 PUSH1 0x1 PUSH1 0xA0 SHL SUB DUP5 AND PUSH2 0x2224 JUMPI PUSH1 0x40 MLOAD PUSH4 0x4A1406B1 PUSH1 0xE1 SHL DUP2 MSTORE PUSH0 PUSH1 0x4 DUP3 ADD MSTORE PUSH1 0x24 ADD PUSH2 0xD03 JUMP JUMPDEST PUSH1 0x1 PUSH1 0x1 PUSH1 0xA0 SHL SUB DUP1 DUP7 AND PUSH0 SWAP1 DUP2 MSTORE PUSH1 0x1 DUP4 ADD PUSH1 0x20 SWAP1 DUP2 MSTORE PUSH1 0x40 DUP1 DUP4 KECCAK256 SWAP4 DUP9 AND DUP4 MSTORE SWAP3 SWAP1 MSTORE KECCAK256 DUP4 SWAP1 SSTORE DUP2 ISZERO PUSH2 0x165C JUMPI DUP4 PUSH1 0x1 PUSH1 0x1 PUSH1 0xA0 SHL SUB AND DUP6 PUSH1 0x1 PUSH1 0x1 PUSH1 0xA0 SHL SUB AND PUSH32 0x8C5BE1E5EBEC7D5BD14F71427D1E84F3DD0314C0F7B2291E5B200AC8C7C3B925 DUP6 PUSH1 0x40 MLOAD PUSH2 0x2298 SWAP2 DUP2 MSTORE PUSH1 0x20 ADD SWAP1 JUMP JUMPDEST PUSH1 0x40 MLOAD DUP1 SWAP2 SUB SWAP1 LOG3 POP POP POP POP POP JUMP JUMPDEST PUSH2 0x22B1 DUP3 DUP3 PUSH2 0x14DE JUMP JUMPDEST PUSH2 0xBEC JUMPI PUSH1 0x40 MLOAD PUSH4 0xE2517D3F PUSH1 0xE0 SHL DUP2 MSTORE PUSH1 0x1 PUSH1 0x1 PUSH1 0xA0 SHL SUB DUP3 AND PUSH1 0x4 DUP3 ADD MSTORE PUSH1 0x24 DUP2 ADD DUP4 SWAP1 MSTORE PUSH1 0x44 ADD PUSH2 0xD03 JUMP JUMPDEST PUSH2 0xC07 DUP4 DUP4 DUP4 PUSH2 0x2A32 JUMP JUMPDEST PUSH0 PUSH32 0x8B73C3C69BB8FE3D512ECC4CF759CC79239F7B179B0FFACAA9A75D522B39400F PUSH2 0x2315 PUSH2 0x2AB7 JUMP JUMPDEST PUSH2 0x231D PUSH2 0x2B1F JUMP JUMPDEST PUSH1 0x40 DUP1 MLOAD PUSH1 0x20 DUP2 ADD SWAP5 SWAP1 SWAP5 MSTORE DUP4 ADD SWAP2 SWAP1 SWAP2 MSTORE PUSH1 0x60 DUP3 ADD MSTORE CHAINID PUSH1 0x80 DUP3 ADD MSTORE ADDRESS PUSH1 0xA0 DUP3 ADD MSTORE PUSH1 0xC0 ADD PUSH1 0x40 MLOAD PUSH1 0x20 DUP2 DUP4 SUB SUB DUP2 MSTORE SWAP1 PUSH1 0x40 MSTORE DUP1 MLOAD SWAP1 PUSH1 0x20 ADD KECCAK256 SWAP1 POP SWAP1 JUMP JUMPDEST PUSH0 DUP2 PUSH0 SUB PUSH2 0x236D JUMPI POP PUSH0 SWAP2 SWAP1 POP JUMP JUMPDEST PUSH0 PUSH1 0x1 PUSH2 0x2379 DUP5 PUSH2 0x2B61 JUMP JUMPDEST SWAP1 SHR PUSH1 0x1 SWAP1 SHL SWAP1 POP PUSH1 0x1 DUP2 DUP5 DUP2 PUSH2 0x2392 JUMPI PUSH2 0x2392 PUSH2 0x3969 JUMP JUMPDEST DIV DUP3 ADD SWAP1 SHR SWAP1 POP PUSH1 0x1 DUP2 DUP5 DUP2 PUSH2 0x23AA JUMPI PUSH2 0x23AA PUSH2 0x3969 JUMP JUMPDEST DIV DUP3 ADD SWAP1 SHR SWAP1 POP PUSH1 0x1 DUP2 DUP5 DUP2 PUSH2 0x23C2 JUMPI PUSH2 0x23C2 PUSH2 0x3969 JUMP JUMPDEST DIV DUP3 ADD SWAP1 SHR SWAP1 POP PUSH1 0x1 DUP2 DUP5 DUP2 PUSH2 0x23DA JUMPI PUSH2 0x23DA PUSH2 0x3969 JUMP JUMPDEST DIV DUP3 ADD SWAP1 SHR SWAP1 POP PUSH1 0x1 DUP2 DUP5 DUP2 PUSH2 0x23F2 JUMPI PUSH2 0x23F2 PUSH2 0x3969 JUMP JUMPDEST DIV DUP3 ADD SWAP1 SHR SWAP1 POP PUSH1 0x1 DUP2 DUP5 DUP2 PUSH2 0x240A JUMPI PUSH2 0x240A PUSH2 0x3969 JUMP JUMPDEST DIV DUP3 ADD SWAP1 SHR SWAP1 POP PUSH1 0x1 DUP2 DUP5 DUP2 PUSH2 0x2422 JUMPI PUSH2 0x2422 PUSH2 0x3969 JUMP JUMPDEST DIV DUP3 ADD SWAP1 SHR SWAP1 POP PUSH2 0xC2A DUP2 DUP3 DUP6 DUP2 PUSH2 0x243C JUMPI PUSH2 0x243C PUSH2 0x3969 JUMP JUMPDEST DIV PUSH2 0x2BF4 JUMP JUMPDEST PUSH0 JUMPDEST DUP2 DUP4 LT ISZERO PUSH2 0x2499 JUMPI PUSH0 PUSH2 0x2457 DUP5 DUP5 PUSH2 0x2C09 JUMP JUMPDEST PUSH0 DUP8 DUP2 MSTORE PUSH1 0x20 SWAP1 KECCAK256 SWAP1 SWAP2 POP PUSH6 0xFFFFFFFFFFFF DUP7 AND SWAP1 DUP3 ADD SLOAD PUSH6 0xFFFFFFFFFFFF AND GT ISZERO PUSH2 0x2485 JUMPI DUP1 SWAP3 POP PUSH2 0x2493 JUMP JUMPDEST PUSH2 0x2490 DUP2 PUSH1 0x1 PUSH2 0x382A JUMP JUMPDEST SWAP4 POP JUMPDEST POP PUSH2 0x2444 JUMP JUMPDEST POP SWAP4 SWAP3 POP POP POP JUMP JUMPDEST PUSH0 DUP1 MLOAD PUSH1 0x20 PUSH2 0x3C0D DUP4 CODECOPY DUP2 MLOAD SWAP2 MSTORE SLOAD PUSH1 0xFF AND PUSH2 0x1D4B JUMPI PUSH1 0x40 MLOAD PUSH4 0x8DFC202B PUSH1 0xE0 SHL DUP2 MSTORE PUSH1 0x4 ADD PUSH1 0x40 MLOAD DUP1 SWAP2 SUB SWAP1 REVERT JUMPDEST PUSH2 0x24D9 DUP3 PUSH2 0x2C23 JUMP JUMPDEST PUSH1 0x40 MLOAD PUSH1 0x1 PUSH1 0x1 PUSH1 0xA0 SHL SUB DUP4 AND SWAP1 PUSH32 0xBC7CD75A20EE27FD9ADEBAB32041F755214DBC6BFFA90CC0225B39DA2E5C2D3B SWAP1 PUSH0 SWAP1 LOG2 DUP1 MLOAD ISZERO PUSH2 0x251D JUMPI PUSH2 0xC07 DUP3 DUP3 PUSH2 0x2C86 JUMP JUMPDEST PUSH2 0xBEC PUSH2 0x2CF8 JUMP JUMPDEST PUSH0 PUSH2 0xB13 DUP3 PUSH2 0x104B JUMP JUMPDEST PUSH0 DUP1 MLOAD PUSH1 0x20 PUSH2 0x3B2B DUP4 CODECOPY DUP2 MLOAD SWAP2 MSTORE PUSH1 0x1 PUSH1 0x1 PUSH1 0xA0 SHL SUB DUP5 DUP2 AND SWAP1 DUP5 AND EQ DUP1 ISZERO SWAP1 PUSH2 0x2558 JUMPI POP PUSH0 DUP3 GT JUMPDEST ISZERO PUSH2 0xC6D JUMPI PUSH1 0x1 PUSH1 0x1 PUSH1 0xA0 SHL SUB DUP5 AND ISZERO PUSH2 0x2601 JUMPI PUSH1 0x1 PUSH1 0x1 PUSH1 0xA0 SHL SUB DUP5 AND PUSH0 SWAP1 DUP2 MSTORE PUSH1 0x1 DUP3 ADD PUSH1 0x20 MSTORE PUSH1 0x40 DUP2 KECCAK256 DUP2 SWAP1 PUSH2 0x259C SWAP1 PUSH2 0x2D17 PUSH2 0x2597 DUP8 PUSH2 0x2D22 JUMP JUMPDEST PUSH2 0x2D55 JUMP JUMPDEST PUSH1 0x1 PUSH1 0x1 PUSH1 0xD0 SHL SUB AND SWAP2 POP PUSH1 0x1 PUSH1 0x1 PUSH1 0xD0 SHL SUB AND SWAP2 POP DUP6 PUSH1 0x1 PUSH1 0x1 PUSH1 0xA0 SHL SUB AND PUSH32 0xDEC2BACDD2F05B59DE34DA9B523DFF8BE42E5E38E818C82FDB0BAE774387A724 DUP4 DUP4 PUSH1 0x40 MLOAD PUSH2 0x25F6 SWAP3 SWAP2 SWAP1 SWAP2 DUP3 MSTORE PUSH1 0x20 DUP3 ADD MSTORE PUSH1 0x40 ADD SWAP1 JUMP JUMPDEST PUSH1 0x40 MLOAD DUP1 SWAP2 SUB SWAP1 LOG2 POP POP JUMPDEST PUSH1 0x1 PUSH1 0x1 PUSH1 0xA0 SHL SUB DUP4 AND ISZERO PUSH2 0xC6D JUMPI PUSH1 0x1 PUSH1 0x1 PUSH1 0xA0 SHL SUB DUP4 AND PUSH0 SWAP1 DUP2 MSTORE PUSH1 0x1 DUP3 ADD PUSH1 0x20 MSTORE PUSH1 0x40 DUP2 KECCAK256 DUP2 SWAP1 PUSH2 0x263B SWAP1 PUSH2 0x2D8D PUSH2 0x2597 DUP8 PUSH2 0x2D22 JUMP JUMPDEST PUSH1 0x1 PUSH1 0x1 PUSH1 0xD0 SHL SUB AND SWAP2 POP PUSH1 0x1 PUSH1 0x1 PUSH1 0xD0 SHL SUB AND SWAP2 POP DUP5 PUSH1 0x1 PUSH1 0x1 PUSH1 0xA0 SHL SUB AND PUSH32 0xDEC2BACDD2F05B59DE34DA9B523DFF8BE42E5E38E818C82FDB0BAE774387A724 DUP4 DUP4 PUSH1 0x40 MLOAD PUSH2 0x2695 SWAP3 SWAP2 SWAP1 SWAP2 DUP3 MSTORE PUSH1 0x20 DUP3 ADD MSTORE PUSH1 0x40 ADD SWAP1 JUMP JUMPDEST PUSH1 0x40 MLOAD DUP1 SWAP2 SUB SWAP1 LOG2 POP POP POP POP POP POP JUMP JUMPDEST PUSH0 PUSH4 0xFFFFFFFF DUP3 GT ISZERO PUSH2 0x1B22 JUMPI PUSH1 0x40 MLOAD PUSH4 0x6DFCC65 PUSH1 0xE4 SHL DUP2 MSTORE PUSH1 0x20 PUSH1 0x4 DUP3 ADD MSTORE PUSH1 0x24 DUP2 ADD DUP4 SWAP1 MSTORE PUSH1 0x44 ADD PUSH2 0xD03 JUMP JUMPDEST PUSH0 DUP1 PUSH32 0x5AB42CED628888259C08AC98DB1EB0CF702FC1501344311D8B100CD1BFE4BB00 PUSH2 0x105C JUMP JUMPDEST PUSH0 DUP1 MLOAD PUSH1 0x20 PUSH2 0x3C0D DUP4 CODECOPY DUP2 MLOAD SWAP2 MSTORE SLOAD PUSH1 0xFF AND ISZERO PUSH2 0x1D4B JUMPI PUSH1 0x40 MLOAD PUSH4 0xD93C0665 PUSH1 0xE0 SHL DUP2 MSTORE PUSH1 0x4 ADD PUSH1 0x40 MLOAD DUP1 SWAP2 SUB SWAP1 REVERT JUMPDEST PUSH32 0xF0C57E16840DF040F15088DC2F81FE391C3923BEC73E23A9662EFC9C229C6A00 SLOAD PUSH1 0x1 PUSH1 0x40 SHL SWAP1 DIV PUSH1 0xFF AND PUSH2 0x1D4B JUMPI PUSH1 0x40 MLOAD PUSH4 0x1AFCD79F PUSH1 0xE3 SHL DUP2 MSTORE PUSH1 0x4 ADD PUSH1 0x40 MLOAD DUP1 SWAP2 SUB SWAP1 REVERT JUMPDEST PUSH2 0x277E PUSH2 0x272D JUMP JUMPDEST PUSH0 DUP1 MLOAD PUSH1 0x20 PUSH2 0x3B4B DUP4 CODECOPY DUP2 MLOAD SWAP2 MSTORE PUSH32 0x52C63247E1F47DB19D5CE0460030C497F067CA4CEBF71BA98EEADABE20BACE03 PUSH2 0x27B7 DUP5 DUP3 PUSH2 0x39C1 JUMP JUMPDEST POP PUSH1 0x4 DUP2 ADD PUSH2 0xC6D DUP4 DUP3 PUSH2 0x39C1 JUMP JUMPDEST PUSH2 0x27CE PUSH2 0x272D JUMP JUMPDEST PUSH0 DUP1 MLOAD PUSH1 0x20 PUSH2 0x3C0D DUP4 CODECOPY DUP2 MLOAD SWAP2 MSTORE DUP1 SLOAD PUSH1 0xFF NOT AND SWAP1 SSTORE JUMP JUMPDEST PUSH2 0x27EE PUSH2 0x272D JUMP JUMPDEST PUSH0 DUP1 MLOAD PUSH1 0x20 PUSH2 0x3B6B DUP4 CODECOPY DUP2 MLOAD SWAP2 MSTORE PUSH32 0xA16A46D94261C7517CC8FF89F61C0CE93598E3C849801011DEE649A6A557D102 PUSH2 0x2827 DUP5 DUP3 PUSH2 0x39C1 JUMP JUMPDEST POP PUSH1 0x3 DUP2 ADD PUSH2 0x2836 DUP4 DUP3 PUSH2 0x39C1 JUMP JUMPDEST POP PUSH0 DUP1 DUP3 SSTORE PUSH1 0x1 SWAP1 SWAP2 ADD SSTORE POP POP JUMP JUMPDEST PUSH0 DUP1 DUP1 PUSH32 0x7FFFFFFFFFFFFFFFFFFFFFFFFFFFFFFF5D576E7357A4501DDFE92F46681B20A0 DUP5 GT ISZERO PUSH2 0x287E JUMPI POP PUSH0 SWAP2 POP PUSH1 0x3 SWAP1 POP DUP3 PUSH2 0x2903 JUMP JUMPDEST PUSH1 0x40 DUP1 MLOAD PUSH0 DUP1 DUP3 MSTORE PUSH1 0x20 DUP3 ADD DUP1 DUP5 MSTORE DUP11 SWAP1 MSTORE PUSH1 0xFF DUP10 AND SWAP3 DUP3 ADD SWAP3 SWAP1 SWAP3 MSTORE PUSH1 0x60 DUP2 ADD DUP8 SWAP1 MSTORE PUSH1 0x80 DUP2 ADD DUP7 SWAP1 MSTORE PUSH1 0x1 SWAP1 PUSH1 0xA0 ADD PUSH1 0x20 PUSH1 0x40 MLOAD PUSH1 0x20 DUP2 SUB SWAP1 DUP1 DUP5 SUB SWAP1 DUP6 GAS STATICCALL ISZERO DUP1 ISZERO PUSH2 0x28CF JUMPI RETURNDATASIZE PUSH0 DUP1 RETURNDATACOPY RETURNDATASIZE PUSH0 REVERT JUMPDEST POP POP PUSH1 0x40 MLOAD PUSH1 0x1F NOT ADD MLOAD SWAP2 POP POP PUSH1 0x1 PUSH1 0x1 PUSH1 0xA0 SHL SUB DUP2 AND PUSH2 0x28FA JUMPI POP PUSH0 SWAP3 POP PUSH1 0x1 SWAP2 POP DUP3 SWAP1 POP PUSH2 0x2903 JUMP JUMPDEST SWAP3 POP PUSH0 SWAP2 POP DUP2 SWAP1 POP JUMPDEST SWAP5 POP SWAP5 POP SWAP5 SWAP2 POP POP JUMP JUMPDEST PUSH0 DUP3 PUSH1 0x3 DUP2 GT ISZERO PUSH2 0x2920 JUMPI PUSH2 0x2920 PUSH2 0x3A81 JUMP JUMPDEST SUB PUSH2 0x2929 JUMPI POP POP JUMP JUMPDEST PUSH1 0x1 DUP3 PUSH1 0x3 DUP2 GT ISZERO PUSH2 0x293D JUMPI PUSH2 0x293D PUSH2 0x3A81 JUMP JUMPDEST SUB PUSH2 0x295B JUMPI PUSH1 0x40 MLOAD PUSH4 0xF645EEDF PUSH1 0xE0 SHL DUP2 MSTORE PUSH1 0x4 ADD PUSH1 0x40 MLOAD DUP1 SWAP2 SUB SWAP1 REVERT JUMPDEST PUSH1 0x2 DUP3 PUSH1 0x3 DUP2 GT ISZERO PUSH2 0x296F JUMPI PUSH2 0x296F PUSH2 0x3A81 JUMP JUMPDEST SUB PUSH2 0x2990 JUMPI PUSH1 0x40 MLOAD PUSH4 0xFCE698F7 PUSH1 0xE0 SHL DUP2 MSTORE PUSH1 0x4 DUP2 ADD DUP3 SWAP1 MSTORE PUSH1 0x24 ADD PUSH2 0xD03 JUMP JUMPDEST PUSH1 0x3 DUP3 PUSH1 0x3 DUP2 GT ISZERO PUSH2 0x29A4 JUMPI PUSH2 0x29A4 PUSH2 0x3A81 JUMP JUMPDEST SUB PUSH2 0xBEC JUMPI PUSH1 0x40 MLOAD PUSH4 0x35E2F383 PUSH1 0xE2 SHL DUP2 MSTORE PUSH1 0x4 DUP2 ADD DUP3 SWAP1 MSTORE PUSH1 0x24 ADD PUSH2 0xD03 JUMP JUMPDEST PUSH1 0x40 DUP1 MLOAD DUP1 DUP3 ADD SWAP1 SWAP2 MSTORE PUSH0 DUP1 DUP3 MSTORE PUSH1 0x20 DUP3 ADD MSTORE DUP3 PUSH0 ADD DUP3 PUSH4 0xFFFFFFFF AND DUP2 SLOAD DUP2 LT PUSH2 0x29F2 JUMPI PUSH2 0x29F2 PUSH2 0x3955 JUMP JUMPDEST PUSH0 SWAP2 DUP3 MSTORE PUSH1 0x20 SWAP2 DUP3 SWAP1 KECCAK256 PUSH1 0x40 DUP1 MLOAD DUP1 DUP3 ADD SWAP1 SWAP2 MSTORE SWAP2 ADD SLOAD PUSH6 0xFFFFFFFFFFFF DUP2 AND DUP3 MSTORE PUSH1 0x1 PUSH1 0x30 SHL SWAP1 DIV PUSH1 0x1 PUSH1 0x1 PUSH1 0xD0 SHL SUB AND SWAP2 DUP2 ADD SWAP2 SWAP1 SWAP2 MSTORE SWAP4 SWAP3 POP POP POP JUMP JUMPDEST PUSH2 0x2A3D DUP4 DUP4 DUP4 PUSH2 0x2D98 JUMP JUMPDEST PUSH1 0x1 PUSH1 0x1 PUSH1 0xA0 SHL SUB DUP4 AND PUSH2 0x2AAC JUMPI PUSH0 PUSH2 0x2A74 PUSH32 0x52C63247E1F47DB19D5CE0460030C497F067CA4CEBF71BA98EEADABE20BACE02 SLOAD SWAP1 JUMP JUMPDEST SWAP1 POP PUSH1 0x1 PUSH1 0x1 PUSH1 0xD0 SHL SUB DUP1 DUP3 GT ISZERO PUSH2 0x2AA9 JUMPI PUSH1 0x40 MLOAD PUSH4 0xE58AE93 PUSH1 0xE1 SHL DUP2 MSTORE PUSH1 0x4 DUP2 ADD DUP4 SWAP1 MSTORE PUSH1 0x24 DUP2 ADD DUP3 SWAP1 MSTORE PUSH1 0x44 ADD PUSH2 0xD03 JUMP JUMPDEST POP POP JUMPDEST PUSH2 0xC07 DUP4 DUP4 DUP4 PUSH2 0x2DAB JUMP JUMPDEST PUSH0 PUSH0 DUP1 MLOAD PUSH1 0x20 PUSH2 0x3B6B DUP4 CODECOPY DUP2 MLOAD SWAP2 MSTORE DUP2 PUSH2 0x2ACF PUSH2 0x1FA4 JUMP JUMPDEST DUP1 MLOAD SWAP1 SWAP2 POP ISZERO PUSH2 0x2AE7 JUMPI DUP1 MLOAD PUSH1 0x20 SWAP1 SWAP2 ADD KECCAK256 SWAP3 SWAP2 POP POP JUMP JUMPDEST DUP2 SLOAD DUP1 ISZERO PUSH2 0x2AF6 JUMPI SWAP4 SWAP3 POP POP POP JUMP JUMPDEST PUSH32 0xC5D2460186F7233C927E7DB2DCC703C0E500B653CA82273B7BFAD8045D85A470 SWAP4 POP POP POP POP SWAP1 JUMP JUMPDEST PUSH0 PUSH0 DUP1 MLOAD PUSH1 0x20 PUSH2 0x3B6B DUP4 CODECOPY DUP2 MLOAD SWAP2 MSTORE DUP2 PUSH2 0x2B37 PUSH2 0x1FE2 JUMP JUMPDEST DUP1 MLOAD SWAP1 SWAP2 POP ISZERO PUSH2 0x2B4F JUMPI DUP1 MLOAD PUSH1 0x20 SWAP1 SWAP2 ADD KECCAK256 SWAP3 SWAP2 POP POP JUMP JUMPDEST PUSH1 0x1 DUP3 ADD SLOAD DUP1 ISZERO PUSH2 0x2AF6 JUMPI SWAP4 SWAP3 POP POP POP JUMP JUMPDEST PUSH0 DUP1 PUSH1 0x80 DUP4 SWAP1 SHR ISZERO PUSH2 0x2B75 JUMPI PUSH1 0x80 SWAP3 DUP4 SHR SWAP3 ADD JUMPDEST PUSH1 0x40 DUP4 SWAP1 SHR ISZERO PUSH2 0x2B87 JUMPI PUSH1 0x40 SWAP3 DUP4 SHR SWAP3 ADD JUMPDEST PUSH1 0x20 DUP4 SWAP1 SHR ISZERO PUSH2 0x2B99 JUMPI PUSH1 0x20 SWAP3 DUP4 SHR SWAP3 ADD JUMPDEST PUSH1 0x10 DUP4 SWAP1 SHR ISZERO PUSH2 0x2BAB JUMPI PUSH1 0x10 SWAP3 DUP4 SHR SWAP3 ADD JUMPDEST PUSH1 0x8 DUP4 SWAP1 SHR ISZERO PUSH2 0x2BBD JUMPI PUSH1 0x8 SWAP3 DUP4 SHR SWAP3 ADD JUMPDEST PUSH1 0x4 DUP4 SWAP1 SHR ISZERO PUSH2 0x2BCF JUMPI PUSH1 0x4 SWAP3 DUP4 SHR SWAP3 ADD JUMPDEST PUSH1 0x2 DUP4 SWAP1 SHR ISZERO PUSH2 0x2BE1 JUMPI PUSH1 0x2 SWAP3 DUP4 SHR SWAP3 ADD JUMPDEST PUSH1 0x1 DUP4 SWAP1 SHR ISZERO PUSH2 0xB13 JUMPI PUSH1 0x1 ADD SWAP3 SWAP2 POP POP JUMP JUMPDEST PUSH0 DUP2 DUP4 LT PUSH2 0x2C02 JUMPI DUP2 PUSH2 0xC2A JUMP JUMPDEST POP SWAP1 SWAP2 SWAP1 POP JUMP JUMPDEST PUSH0 PUSH2 0x2C17 PUSH1 0x2 DUP5 DUP5 XOR PUSH2 0x3A95 JUMP JUMPDEST PUSH2 0xC2A SWAP1 DUP5 DUP5 AND PUSH2 0x382A JUMP JUMPDEST DUP1 PUSH1 0x1 PUSH1 0x1 PUSH1 0xA0 SHL SUB AND EXTCODESIZE PUSH0 SUB PUSH2 0x2C58 JUMPI PUSH1 0x40 MLOAD PUSH4 0x4C9C8CE3 PUSH1 0xE0 SHL DUP2 MSTORE PUSH1 0x1 PUSH1 0x1 PUSH1 0xA0 SHL SUB DUP3 AND PUSH1 0x4 DUP3 ADD MSTORE PUSH1 0x24 ADD PUSH2 0xD03 JUMP JUMPDEST PUSH0 DUP1 MLOAD PUSH1 0x20 PUSH2 0x3BAD DUP4 CODECOPY DUP2 MLOAD SWAP2 MSTORE DUP1 SLOAD PUSH1 0x1 PUSH1 0x1 PUSH1 0xA0 SHL SUB NOT AND PUSH1 0x1 PUSH1 0x1 PUSH1 0xA0 SHL SUB SWAP3 SWAP1 SWAP3 AND SWAP2 SWAP1 SWAP2 OR SWAP1 SSTORE JUMP JUMPDEST PUSH1 0x60 PUSH0 DUP1 DUP5 PUSH1 0x1 PUSH1 0x1 PUSH1 0xA0 SHL SUB AND DUP5 PUSH1 0x40 MLOAD PUSH2 0x2CA2 SWAP2 SWAP1 PUSH2 0x3AB4 JUMP JUMPDEST PUSH0 PUSH1 0x40 MLOAD DUP1 DUP4 SUB DUP2 DUP6 GAS DELEGATECALL SWAP2 POP POP RETURNDATASIZE DUP1 PUSH0 DUP2 EQ PUSH2 0x2CDA JUMPI PUSH1 0x40 MLOAD SWAP2 POP PUSH1 0x1F NOT PUSH1 0x3F RETURNDATASIZE ADD AND DUP3 ADD PUSH1 0x40 MSTORE RETURNDATASIZE DUP3 MSTORE RETURNDATASIZE PUSH0 PUSH1 0x20 DUP5 ADD RETURNDATACOPY PUSH2 0x2CDF JUMP JUMPDEST PUSH1 0x60 SWAP2 POP JUMPDEST POP SWAP2 POP SWAP2 POP PUSH2 0x2CEF DUP6 DUP4 DUP4 PUSH2 0x2E1C JUMP JUMPDEST SWAP6 SWAP5 POP POP POP POP POP JUMP JUMPDEST CALLVALUE ISZERO PUSH2 0x1D4B JUMPI PUSH1 0x40 MLOAD PUSH4 0xB398979F PUSH1 0xE0 SHL DUP2 MSTORE PUSH1 0x4 ADD PUSH1 0x40 MLOAD DUP1 SWAP2 SUB SWAP1 REVERT JUMPDEST PUSH0 PUSH2 0xC2A DUP3 DUP5 PUSH2 0x3ACA JUMP JUMPDEST PUSH0 PUSH1 0x1 PUSH1 0x1 PUSH1 0xD0 SHL SUB DUP3 GT ISZERO PUSH2 0x1B22 JUMPI PUSH1 0x40 MLOAD PUSH4 0x6DFCC65 PUSH1 0xE4 SHL DUP2 MSTORE PUSH1 0xD0 PUSH1 0x4 DUP3 ADD MSTORE PUSH1 0x24 DUP2 ADD DUP4 SWAP1 MSTORE PUSH1 0x44 ADD PUSH2 0xD03 JUMP JUMPDEST PUSH0 DUP1 PUSH2 0x2D80 PUSH2 0x2D62 PUSH2 0x1514 JUMP JUMPDEST PUSH2 0x2D78 PUSH2 0x2D6E DUP9 PUSH2 0x204D JUMP JUMPDEST DUP7 DUP9 PUSH4 0xFFFFFFFF AND JUMP JUMPDEST DUP8 SWAP2 SWAP1 PUSH2 0x2E78 JUMP JUMPDEST SWAP2 POP SWAP2 POP JUMPDEST SWAP4 POP SWAP4 SWAP2 POP POP JUMP JUMPDEST PUSH0 PUSH2 0xC2A DUP3 DUP5 PUSH2 0x3AEA JUMP JUMPDEST PUSH2 0x2DA0 PUSH2 0x26FD JUMP JUMPDEST PUSH2 0xC07 DUP4 DUP4 DUP4 PUSH2 0x2E85 JUMP JUMPDEST PUSH0 DUP1 MLOAD PUSH1 0x20 PUSH2 0x3B2B DUP4 CODECOPY DUP2 MLOAD SWAP2 MSTORE PUSH1 0x1 PUSH1 0x1 PUSH1 0xA0 SHL SUB DUP5 AND PUSH2 0x2DDD JUMPI PUSH2 0x2DDA DUP2 PUSH1 0x2 ADD PUSH2 0x2D8D PUSH2 0x2597 DUP6 PUSH2 0x2D22 JUMP JUMPDEST POP POP JUMPDEST PUSH1 0x1 PUSH1 0x1 PUSH1 0xA0 SHL SUB DUP4 AND PUSH2 0x2E01 JUMPI PUSH2 0x2DFE DUP2 PUSH1 0x2 ADD PUSH2 0x2D17 PUSH2 0x2597 DUP6 PUSH2 0x2D22 JUMP JUMPDEST POP POP JUMPDEST PUSH2 0xC6D PUSH2 0x2E0D DUP6 PUSH2 0xE57 JUMP JUMPDEST PUSH2 0x2E16 DUP6 PUSH2 0xE57 JUMP JUMPDEST DUP5 PUSH2 0x252F JUMP JUMPDEST PUSH1 0x60 DUP3 PUSH2 0x2E31 JUMPI PUSH2 0x2E2C DUP3 PUSH2 0x2FBE JUMP JUMPDEST PUSH2 0xC2A JUMP JUMPDEST DUP2 MLOAD ISZERO DUP1 ISZERO PUSH2 0x2E48 JUMPI POP PUSH1 0x1 PUSH1 0x1 PUSH1 0xA0 SHL SUB DUP5 AND EXTCODESIZE ISZERO JUMPDEST ISZERO PUSH2 0x2E71 JUMPI PUSH1 0x40 MLOAD PUSH4 0x9996B315 PUSH1 0xE0 SHL DUP2 MSTORE PUSH1 0x1 PUSH1 0x1 PUSH1 0xA0 SHL SUB DUP6 AND PUSH1 0x4 DUP3 ADD MSTORE PUSH1 0x24 ADD PUSH2 0xD03 JUMP JUMPDEST POP DUP1 PUSH2 0xC2A JUMP JUMPDEST PUSH0 DUP1 PUSH2 0x2D80 DUP6 DUP6 DUP6 PUSH2 0x2FE7 JUMP JUMPDEST PUSH0 DUP1 MLOAD PUSH1 0x20 PUSH2 0x3B4B DUP4 CODECOPY DUP2 MLOAD SWAP2 MSTORE PUSH1 0x1 PUSH1 0x1 PUSH1 0xA0 SHL SUB DUP5 AND PUSH2 0x2EBF JUMPI DUP2 DUP2 PUSH1 0x2 ADD PUSH0 DUP3 DUP3 SLOAD PUSH2 0x2EB4 SWAP2 SWAP1 PUSH2 0x382A JUMP JUMPDEST SWAP1 SWAP2 SSTORE POP PUSH2 0x2F2F SWAP1 POP JUMP JUMPDEST PUSH1 0x1 PUSH1 0x1 PUSH1 0xA0 SHL SUB DUP5 AND PUSH0 SWAP1 DUP2 MSTORE PUSH1 0x20 DUP3 SWAP1 MSTORE PUSH1 0x40 SWAP1 KECCAK256 SLOAD DUP3 DUP2 LT ISZERO PUSH2 0x2F11 JUMPI PUSH1 0x40 MLOAD PUSH4 0x391434E3 PUSH1 0xE2 SHL DUP2 MSTORE PUSH1 0x1 PUSH1 0x1 PUSH1 0xA0 SHL SUB DUP7 AND PUSH1 0x4 DUP3 ADD MSTORE PUSH1 0x24 DUP2 ADD DUP3 SWAP1 MSTORE PUSH1 0x44 DUP2 ADD DUP5 SWAP1 MSTORE PUSH1 0x64 ADD PUSH2 0xD03 JUMP JUMPDEST PUSH1 0x1 PUSH1 0x1 PUSH1 0xA0 SHL SUB DUP6 AND PUSH0 SWAP1 DUP2 MSTORE PUSH1 0x20 DUP4 SWAP1 MSTORE PUSH1 0x40 SWAP1 KECCAK256 SWAP1 DUP4 SWAP1 SUB SWAP1 SSTORE JUMPDEST PUSH1 0x1 PUSH1 0x1 PUSH1 0xA0 SHL SUB DUP4 AND PUSH2 0x2F4D JUMPI PUSH1 0x2 DUP2 ADD DUP1 SLOAD DUP4 SWAP1 SUB SWAP1 SSTORE PUSH2 0x2F6B JUMP JUMPDEST PUSH1 0x1 PUSH1 0x1 PUSH1 0xA0 SHL SUB DUP4 AND PUSH0 SWAP1 DUP2 MSTORE PUSH1 0x20 DUP3 SWAP1 MSTORE PUSH1 0x40 SWAP1 KECCAK256 DUP1 SLOAD DUP4 ADD SWAP1 SSTORE JUMPDEST DUP3 PUSH1 0x1 PUSH1 0x1 PUSH1 0xA0 SHL SUB AND DUP5 PUSH1 0x1 PUSH1 0x1 PUSH1 0xA0 SHL SUB AND PUSH32 0xDDF252AD1BE2C89B69C2B068FC378DAA952BA7F163C4A11628F55A4DF523B3EF DUP5 PUSH1 0x40 MLOAD PUSH2 0x2FB0 SWAP2 DUP2 MSTORE PUSH1 0x20 ADD SWAP1 JUMP JUMPDEST PUSH1 0x40 MLOAD DUP1 SWAP2 SUB SWAP1 LOG3 POP POP POP POP JUMP JUMPDEST DUP1 MLOAD ISZERO PUSH2 0x2FCE JUMPI DUP1 MLOAD DUP1 DUP3 PUSH1 0x20 ADD REVERT JUMPDEST PUSH1 0x40 MLOAD PUSH4 0xA12F521 PUSH1 0xE1 SHL DUP2 MSTORE PUSH1 0x4 ADD PUSH1 0x40 MLOAD DUP1 SWAP2 SUB SWAP1 REVERT JUMPDEST DUP3 SLOAD PUSH0 SWAP1 DUP2 SWAP1 DUP1 ISZERO PUSH2 0x3103 JUMPI PUSH0 PUSH2 0x3003 DUP8 PUSH2 0x1BA6 PUSH1 0x1 DUP6 PUSH2 0x383D JUMP JUMPDEST PUSH1 0x40 DUP1 MLOAD DUP1 DUP3 ADD SWAP1 SWAP2 MSTORE SWAP1 SLOAD PUSH6 0xFFFFFFFFFFFF DUP1 DUP3 AND DUP1 DUP5 MSTORE PUSH1 0x1 PUSH1 0x30 SHL SWAP1 SWAP3 DIV PUSH1 0x1 PUSH1 0x1 PUSH1 0xD0 SHL SUB AND PUSH1 0x20 DUP5 ADD MSTORE SWAP2 SWAP3 POP SWAP1 DUP8 AND LT ISZERO PUSH2 0x3057 JUMPI PUSH1 0x40 MLOAD PUSH4 0x2520601D PUSH1 0xE0 SHL DUP2 MSTORE PUSH1 0x4 ADD PUSH1 0x40 MLOAD DUP1 SWAP2 SUB SWAP1 REVERT JUMPDEST DUP1 MLOAD PUSH6 0xFFFFFFFFFFFF DUP1 DUP9 AND SWAP2 AND SUB PUSH2 0x30A3 JUMPI DUP5 PUSH2 0x307A DUP9 PUSH2 0x1BA6 PUSH1 0x1 DUP7 PUSH2 0x383D JUMP JUMPDEST DUP1 SLOAD PUSH1 0x1 PUSH1 0x1 PUSH1 0xD0 SHL SUB SWAP3 SWAP1 SWAP3 AND PUSH1 0x1 PUSH1 0x30 SHL MUL PUSH6 0xFFFFFFFFFFFF SWAP1 SWAP3 AND SWAP2 SWAP1 SWAP2 OR SWAP1 SSTORE PUSH2 0x30F3 JUMP JUMPDEST PUSH1 0x40 DUP1 MLOAD DUP1 DUP3 ADD SWAP1 SWAP2 MSTORE PUSH6 0xFFFFFFFFFFFF DUP1 DUP9 AND DUP3 MSTORE PUSH1 0x1 PUSH1 0x1 PUSH1 0xD0 SHL SUB DUP1 DUP9 AND PUSH1 0x20 DUP1 DUP6 ADD SWAP2 DUP3 MSTORE DUP12 SLOAD PUSH1 0x1 DUP2 ADD DUP14 SSTORE PUSH0 DUP14 DUP2 MSTORE SWAP2 SWAP1 SWAP2 KECCAK256 SWAP5 MLOAD SWAP2 MLOAD SWAP1 SWAP3 AND PUSH1 0x1 PUSH1 0x30 SHL MUL SWAP3 AND SWAP2 SWAP1 SWAP2 OR SWAP2 ADD SSTORE JUMPDEST PUSH1 0x20 ADD MLOAD SWAP3 POP DUP4 SWAP2 POP PUSH2 0x2D85 SWAP1 POP JUMP JUMPDEST POP POP PUSH1 0x40 DUP1 MLOAD DUP1 DUP3 ADD SWAP1 SWAP2 MSTORE PUSH6 0xFFFFFFFFFFFF DUP1 DUP6 AND DUP3 MSTORE PUSH1 0x1 PUSH1 0x1 PUSH1 0xD0 SHL SUB DUP1 DUP6 AND PUSH1 0x20 DUP1 DUP6 ADD SWAP2 DUP3 MSTORE DUP9 SLOAD PUSH1 0x1 DUP2 ADD DUP11 SSTORE PUSH0 DUP11 DUP2 MSTORE SWAP2 DUP3 KECCAK256 SWAP6 MLOAD SWAP3 MLOAD SWAP1 SWAP4 AND PUSH1 0x1 PUSH1 0x30 SHL MUL SWAP2 SWAP1 SWAP4 AND OR SWAP3 ADD SWAP2 SWAP1 SWAP2 SSTORE SWAP1 POP DUP2 PUSH2 0x2D85 JUMP JUMPDEST PUSH0 PUSH1 0x20 DUP3 DUP5 SUB SLT ISZERO PUSH2 0x316D JUMPI PUSH0 DUP1 REVERT JUMPDEST DUP2 CALLDATALOAD PUSH1 0x1 PUSH1 0x1 PUSH1 0xE0 SHL SUB NOT DUP2 AND DUP2 EQ PUSH2 0xC2A JUMPI PUSH0 DUP1 REVERT JUMPDEST PUSH0 DUP2 MLOAD DUP1 DUP5 MSTORE DUP1 PUSH1 0x20 DUP5 ADD PUSH1 0x20 DUP7 ADD MCOPY PUSH0 PUSH1 0x20 DUP3 DUP7 ADD ADD MSTORE PUSH1 0x20 PUSH1 0x1F NOT PUSH1 0x1F DUP4 ADD AND DUP6 ADD ADD SWAP2 POP POP SWAP3 SWAP2 POP POP JUMP JUMPDEST PUSH1 0x20 DUP2 MSTORE PUSH0 PUSH2 0xC2A PUSH1 0x20 DUP4 ADD DUP5 PUSH2 0x3184 JUMP JUMPDEST PUSH1 0x1 PUSH1 0x1 PUSH1 0xA0 SHL SUB DUP2 AND DUP2 EQ PUSH2 0xD68 JUMPI PUSH0 DUP1 REVERT JUMPDEST PUSH0 DUP1 PUSH1 0x40 DUP4 DUP6 SUB SLT ISZERO PUSH2 0x31E9 JUMPI PUSH0 DUP1 REVERT JUMPDEST DUP3 CALLDATALOAD PUSH2 0x31F4 DUP2 PUSH2 0x31C4 JUMP JUMPDEST SWAP5 PUSH1 0x20 SWAP4 SWAP1 SWAP4 ADD CALLDATALOAD SWAP4 POP POP POP JUMP JUMPDEST PUSH0 PUSH1 0x20 DUP3 DUP5 SUB SLT ISZERO PUSH2 0x3212 JUMPI PUSH0 DUP1 REVERT JUMPDEST POP CALLDATALOAD SWAP2 SWAP1 POP JUMP JUMPDEST PUSH0 DUP1 PUSH1 0x40 DUP4 DUP6 SUB SLT ISZERO PUSH2 0x322A JUMPI PUSH0 DUP1 REVERT JUMPDEST DUP3 CALLDATALOAD SWAP2 POP PUSH1 0x20 DUP4 ADD CALLDATALOAD DUP1 ISZERO ISZERO DUP2 EQ PUSH2 0x3240 JUMPI PUSH0 DUP1 REVERT JUMPDEST DUP1 SWAP2 POP POP SWAP3 POP SWAP3 SWAP1 POP JUMP JUMPDEST PUSH0 DUP1 PUSH0 PUSH1 0x60 DUP5 DUP7 SUB SLT ISZERO PUSH2 0x325D JUMPI PUSH0 DUP1 REVERT JUMPDEST DUP4 CALLDATALOAD PUSH2 0x3268 DUP2 PUSH2 0x31C4 JUMP JUMPDEST SWAP3 POP PUSH1 0x20 DUP5 ADD CALLDATALOAD PUSH2 0x3278 DUP2 PUSH2 0x31C4 JUMP JUMPDEST SWAP3 SWAP6 SWAP3 SWAP5 POP POP POP PUSH1 0x40 SWAP2 SWAP1 SWAP2 ADD CALLDATALOAD SWAP1 JUMP JUMPDEST PUSH0 DUP1 PUSH1 0x40 DUP4 DUP6 SUB SLT ISZERO PUSH2 0x329A JUMPI PUSH0 DUP1 REVERT JUMPDEST DUP3 CALLDATALOAD SWAP2 POP PUSH1 0x20 DUP4 ADD CALLDATALOAD PUSH2 0x3240 DUP2 PUSH2 0x31C4 JUMP JUMPDEST PUSH4 0x4E487B71 PUSH1 0xE0 SHL PUSH0 MSTORE PUSH1 0x41 PUSH1 0x4 MSTORE PUSH1 0x24 PUSH0 REVERT JUMPDEST PUSH0 PUSH8 0xFFFFFFFFFFFFFFFF DUP1 DUP5 GT ISZERO PUSH2 0x32DA JUMPI PUSH2 0x32DA PUSH2 0x32AC JUMP JUMPDEST PUSH1 0x40 MLOAD PUSH1 0x1F DUP6 ADD PUSH1 0x1F NOT SWAP1 DUP2 AND PUSH1 0x3F ADD AND DUP2 ADD SWAP1 DUP3 DUP3 GT DUP2 DUP4 LT OR ISZERO PUSH2 0x3302 JUMPI PUSH2 0x3302 PUSH2 0x32AC JUMP JUMPDEST DUP2 PUSH1 0x40 MSTORE DUP1 SWAP4 POP DUP6 DUP2 MSTORE DUP7 DUP7 DUP7 ADD GT ISZERO PUSH2 0x331A JUMPI PUSH0 DUP1 REVERT JUMPDEST DUP6 DUP6 PUSH1 0x20 DUP4 ADD CALLDATACOPY PUSH0 PUSH1 0x20 DUP8 DUP4 ADD ADD MSTORE POP POP POP SWAP4 SWAP3 POP POP POP JUMP JUMPDEST PUSH0 DUP1 PUSH1 0x40 DUP4 DUP6 SUB SLT ISZERO PUSH2 0x3344 JUMPI PUSH0 DUP1 REVERT JUMPDEST DUP3 CALLDATALOAD PUSH2 0x334F DUP2 PUSH2 0x31C4 JUMP JUMPDEST SWAP2 POP PUSH1 0x20 DUP4 ADD CALLDATALOAD PUSH8 0xFFFFFFFFFFFFFFFF DUP2 GT ISZERO PUSH2 0x336A JUMPI PUSH0 DUP1 REVERT JUMPDEST DUP4 ADD PUSH1 0x1F DUP2 ADD DUP6 SGT PUSH2 0x337A JUMPI PUSH0 DUP1 REVERT JUMPDEST PUSH2 0x3389 DUP6 DUP3 CALLDATALOAD PUSH1 0x20 DUP5 ADD PUSH2 0x32C0 JUMP JUMPDEST SWAP2 POP POP SWAP3 POP SWAP3 SWAP1 POP JUMP JUMPDEST PUSH0 PUSH1 0x20 DUP3 DUP5 SUB SLT ISZERO PUSH2 0x33A3 JUMPI PUSH0 DUP1 REVERT JUMPDEST DUP2 CALLDATALOAD PUSH2 0xC2A DUP2 PUSH2 0x31C4 JUMP JUMPDEST PUSH0 DUP1 PUSH0 DUP1 PUSH0 PUSH1 0x80 DUP7 DUP9 SUB SLT ISZERO PUSH2 0x33C2 JUMPI PUSH0 DUP1 REVERT JUMPDEST DUP6 CALLDATALOAD PUSH2 0x33CD DUP2 PUSH2 0x31C4 JUMP JUMPDEST SWAP5 POP PUSH1 0x20 DUP7 ADD CALLDATALOAD PUSH2 0x33DD DUP2 PUSH2 0x31C4 JUMP JUMPDEST SWAP4 POP PUSH1 0x40 DUP7 ADD CALLDATALOAD SWAP3 POP PUSH1 0x60 DUP7 ADD CALLDATALOAD PUSH8 0xFFFFFFFFFFFFFFFF DUP1 DUP3 GT ISZERO PUSH2 0x3400 JUMPI PUSH0 DUP1 REVERT JUMPDEST DUP2 DUP9 ADD SWAP2 POP DUP9 PUSH1 0x1F DUP4 ADD SLT PUSH2 0x3413 JUMPI PUSH0 DUP1 REVERT JUMPDEST DUP2 CALLDATALOAD DUP2 DUP2 GT ISZERO PUSH2 0x3421 JUMPI PUSH0 DUP1 REVERT JUMPDEST DUP10 PUSH1 0x20 DUP3 DUP6 ADD ADD GT ISZERO PUSH2 0x3432 JUMPI PUSH0 DUP1 REVERT JUMPDEST SWAP7 SWAP10 SWAP6 SWAP9 POP SWAP4 SWAP7 POP PUSH1 0x20 ADD SWAP5 SWAP4 SWAP3 POP POP POP JUMP JUMPDEST PUSH1 0xFF PUSH1 0xF8 SHL DUP9 AND DUP2 MSTORE PUSH0 PUSH1 0x20 PUSH1 0xE0 PUSH1 0x20 DUP5 ADD MSTORE PUSH2 0x3465 PUSH1 0xE0 DUP5 ADD DUP11 PUSH2 0x3184 JUMP JUMPDEST DUP4 DUP2 SUB PUSH1 0x40 DUP6 ADD MSTORE PUSH2 0x3477 DUP2 DUP11 PUSH2 0x3184 JUMP JUMPDEST PUSH1 0x60 DUP6 ADD DUP10 SWAP1 MSTORE PUSH1 0x1 PUSH1 0x1 PUSH1 0xA0 SHL SUB DUP9 AND PUSH1 0x80 DUP7 ADD MSTORE PUSH1 0xA0 DUP6 ADD DUP8 SWAP1 MSTORE DUP5 DUP2 SUB PUSH1 0xC0 DUP7 ADD MSTORE DUP6 MLOAD DUP1 DUP3 MSTORE PUSH1 0x20 DUP1 DUP9 ADD SWAP4 POP SWAP1 SWAP2 ADD SWAP1 PUSH0 JUMPDEST DUP2 DUP2 LT ISZERO PUSH2 0x34CA JUMPI DUP4 MLOAD DUP4 MSTORE SWAP3 DUP5 ADD SWAP3 SWAP2 DUP5 ADD SWAP2 PUSH1 0x1 ADD PUSH2 0x34AE JUMP JUMPDEST POP SWAP1 SWAP13 SWAP12 POP POP POP POP POP POP POP POP POP POP POP POP JUMP JUMPDEST PUSH0 DUP1 PUSH0 DUP1 PUSH0 DUP1 PUSH0 DUP1 PUSH2 0x100 DUP10 DUP12 SUB SLT ISZERO PUSH2 0x34F4 JUMPI PUSH0 DUP1 REVERT JUMPDEST DUP9 CALLDATALOAD PUSH2 0x34FF DUP2 PUSH2 0x31C4 JUMP JUMPDEST SWAP8 POP PUSH1 0x20 DUP10 ADD CALLDATALOAD PUSH2 0x350F DUP2 PUSH2 0x31C4 JUMP JUMPDEST SWAP7 POP PUSH1 0x40 DUP10 ADD CALLDATALOAD PUSH2 0x351F DUP2 PUSH2 0x31C4 JUMP JUMPDEST SWAP6 POP PUSH1 0x60 DUP10 ADD CALLDATALOAD PUSH2 0x352F DUP2 PUSH2 0x31C4 JUMP JUMPDEST SWAP5 POP PUSH1 0x80 DUP10 ADD CALLDATALOAD PUSH2 0x353F DUP2 PUSH2 0x31C4 JUMP JUMPDEST SWAP4 POP PUSH1 0xA0 DUP10 ADD CALLDATALOAD PUSH2 0x354F DUP2 PUSH2 0x31C4 JUMP JUMPDEST SWAP3 POP PUSH1 0xC0 DUP10 ADD CALLDATALOAD PUSH2 0x355F DUP2 PUSH2 0x31C4 JUMP JUMPDEST SWAP2 POP PUSH1 0xE0 DUP10 ADD CALLDATALOAD PUSH2 0x356F DUP2 PUSH2 0x31C4 JUMP JUMPDEST DUP1 SWAP2 POP POP SWAP3 SWAP6 SWAP9 POP SWAP3 SWAP6 SWAP9 SWAP1 SWAP4 SWAP7 POP JUMP JUMPDEST PUSH0 DUP1 PUSH0 PUSH1 0x40 DUP5 DUP7 SUB SLT ISZERO PUSH2 0x3592 JUMPI PUSH0 DUP1 REVERT JUMPDEST DUP4 CALLDATALOAD PUSH8 0xFFFFFFFFFFFFFFFF DUP1 DUP3 GT ISZERO PUSH2 0x35A9 JUMPI PUSH0 DUP1 REVERT JUMPDEST DUP2 DUP7 ADD SWAP2 POP DUP7 PUSH1 0x1F DUP4 ADD SLT PUSH2 0x35BC JUMPI PUSH0 DUP1 REVERT JUMPDEST DUP2 CALLDATALOAD DUP2 DUP2 GT ISZERO PUSH2 0x35CA JUMPI PUSH0 DUP1 REVERT JUMPDEST DUP8 PUSH1 0x20 DUP3 PUSH1 0x5 SHL DUP6 ADD ADD GT ISZERO PUSH2 0x35DE JUMPI PUSH0 DUP1 REVERT JUMPDEST PUSH1 0x20 SWAP3 DUP4 ADD SWAP9 SWAP1 SWAP8 POP SWAP6 SWAP1 SWAP2 ADD CALLDATALOAD SWAP5 SWAP4 POP POP POP POP JUMP JUMPDEST DUP1 CALLDATALOAD PUSH1 0xFF DUP2 AND DUP2 EQ PUSH2 0x3604 JUMPI PUSH0 DUP1 REVERT JUMPDEST SWAP2 SWAP1 POP JUMP JUMPDEST PUSH0 DUP1 PUSH0 DUP1 PUSH0 DUP1 PUSH1 0xC0 DUP8 DUP10 SUB SLT ISZERO PUSH2 0x361E JUMPI PUSH0 DUP1 REVERT JUMPDEST DUP7 CALLDATALOAD PUSH2 0x3629 DUP2 PUSH2 0x31C4 JUMP JUMPDEST SWAP6 POP PUSH1 0x20 DUP8 ADD CALLDATALOAD SWAP5 POP PUSH1 0x40 DUP8 ADD CALLDATALOAD SWAP4 POP PUSH2 0x3645 PUSH1 0x60 DUP9 ADD PUSH2 0x35F4 JUMP JUMPDEST SWAP3 POP PUSH1 0x80 DUP8 ADD CALLDATALOAD SWAP2 POP PUSH1 0xA0 DUP8 ADD CALLDATALOAD SWAP1 POP SWAP3 SWAP6 POP SWAP3 SWAP6 POP SWAP3 SWAP6 JUMP JUMPDEST PUSH0 DUP1 PUSH0 DUP1 PUSH0 DUP1 PUSH0 PUSH1 0xE0 DUP9 DUP11 SUB SLT ISZERO PUSH2 0x3675 JUMPI PUSH0 DUP1 REVERT JUMPDEST DUP8 CALLDATALOAD PUSH2 0x3680 DUP2 PUSH2 0x31C4 JUMP JUMPDEST SWAP7 POP PUSH1 0x20 DUP9 ADD CALLDATALOAD PUSH2 0x3690 DUP2 PUSH2 0x31C4 JUMP JUMPDEST SWAP6 POP PUSH1 0x40 DUP9 ADD CALLDATALOAD SWAP5 POP PUSH1 0x60 DUP9 ADD CALLDATALOAD SWAP4 POP PUSH2 0x36AC PUSH1 0x80 DUP10 ADD PUSH2 0x35F4 JUMP JUMPDEST SWAP3 POP PUSH1 0xA0 DUP9 ADD CALLDATALOAD SWAP2 POP PUSH1 0xC0 DUP9 ADD CALLDATALOAD SWAP1 POP SWAP3 SWAP6 SWAP9 SWAP2 SWAP5 SWAP8 POP SWAP3 SWAP6 POP JUMP JUMPDEST PUSH0 DUP1 PUSH1 0x40 DUP4 DUP6 SUB SLT ISZERO PUSH2 0x36D9 JUMPI PUSH0 DUP1 REVERT JUMPDEST DUP3 CALLDATALOAD PUSH2 0x36E4 DUP2 PUSH2 0x31C4 JUMP JUMPDEST SWAP2 POP PUSH1 0x20 DUP4 ADD CALLDATALOAD PUSH2 0x3240 DUP2 PUSH2 0x31C4 JUMP JUMPDEST PUSH0 PUSH1 0x20 DUP3 DUP5 SUB SLT ISZERO PUSH2 0x3704 JUMPI PUSH0 DUP1 REVERT JUMPDEST DUP2 CALLDATALOAD PUSH8 0xFFFFFFFFFFFFFFFF DUP2 GT ISZERO PUSH2 0x371A JUMPI PUSH0 DUP1 REVERT JUMPDEST DUP3 ADD PUSH1 0x1F DUP2 ADD DUP5 SGT PUSH2 0x372A JUMPI PUSH0 DUP1 REVERT JUMPDEST PUSH2 0x21BC DUP5 DUP3 CALLDATALOAD PUSH1 0x20 DUP5 ADD PUSH2 0x32C0 JUMP JUMPDEST PUSH0 DUP1 PUSH1 0x40 DUP4 DUP6 SUB SLT ISZERO PUSH2 0x374A JUMPI PUSH0 DUP1 REVERT JUMPDEST DUP3 CALLDATALOAD PUSH2 0x3755 DUP2 PUSH2 0x31C4 JUMP JUMPDEST SWAP2 POP PUSH1 0x20 DUP4 ADD CALLDATALOAD PUSH4 0xFFFFFFFF DUP2 AND DUP2 EQ PUSH2 0x3240 JUMPI PUSH0 DUP1 REVERT JUMPDEST PUSH1 0x1 DUP2 DUP2 SHR SWAP1 DUP3 AND DUP1 PUSH2 0x3781 JUMPI PUSH1 0x7F DUP3 AND SWAP2 POP JUMPDEST PUSH1 0x20 DUP3 LT DUP2 SUB PUSH2 0x379F JUMPI PUSH4 0x4E487B71 PUSH1 0xE0 SHL PUSH0 MSTORE PUSH1 0x22 PUSH1 0x4 MSTORE PUSH1 0x24 PUSH0 REVERT JUMPDEST POP SWAP2 SWAP1 POP JUMP JUMPDEST PUSH1 0x1 PUSH1 0x1 PUSH1 0xA0 SHL SUB DUP8 DUP2 AND DUP3 MSTORE DUP7 AND PUSH1 0x20 DUP3 ADD MSTORE PUSH1 0x40 DUP2 ADD DUP6 SWAP1 MSTORE PUSH1 0x60 DUP2 ADD DUP5 SWAP1 MSTORE PUSH1 0xA0 PUSH1 0x80 DUP3 ADD DUP2 SWAP1 MSTORE DUP2 ADD DUP3 SWAP1 MSTORE PUSH0 DUP3 DUP5 PUSH1 0xC0 DUP5 ADD CALLDATACOPY PUSH0 PUSH1 0xC0 DUP5 DUP5 ADD ADD MSTORE PUSH1 0xC0 PUSH1 0x1F NOT PUSH1 0x1F DUP6 ADD AND DUP4 ADD ADD SWAP1 POP SWAP8 SWAP7 POP POP POP POP POP POP POP JUMP JUMPDEST PUSH0 PUSH1 0x20 DUP3 DUP5 SUB SLT ISZERO PUSH2 0x380F JUMPI PUSH0 DUP1 REVERT JUMPDEST POP MLOAD SWAP2 SWAP1 POP JUMP JUMPDEST PUSH4 0x4E487B71 PUSH1 0xE0 SHL PUSH0 MSTORE PUSH1 0x11 PUSH1 0x4 MSTORE PUSH1 0x24 PUSH0 REVERT JUMPDEST DUP1 DUP3 ADD DUP1 DUP3 GT ISZERO PUSH2 0xB13 JUMPI PUSH2 0xB13 PUSH2 0x3816 JUMP JUMPDEST DUP2 DUP2 SUB DUP2 DUP2 GT ISZERO PUSH2 0xB13 JUMPI PUSH2 0xB13 PUSH2 0x3816 JUMP JUMPDEST PUSH1 0x1 DUP2 DUP2 JUMPDEST DUP1 DUP6 GT ISZERO PUSH2 0x388A JUMPI DUP2 PUSH0 NOT DIV DUP3 GT ISZERO PUSH2 0x3870 JUMPI PUSH2 0x3870 PUSH2 0x3816 JUMP JUMPDEST DUP1 DUP6 AND ISZERO PUSH2 0x387D JUMPI SWAP2 DUP2 MUL SWAP2 JUMPDEST SWAP4 DUP5 SHR SWAP4 SWAP1 DUP1 MUL SWAP1 PUSH2 0x3855 JUMP JUMPDEST POP SWAP3 POP SWAP3 SWAP1 POP JUMP JUMPDEST PUSH0 DUP3 PUSH2 0x38A0 JUMPI POP PUSH1 0x1 PUSH2 0xB13 JUMP JUMPDEST DUP2 PUSH2 0x38AC JUMPI POP PUSH0 PUSH2 0xB13 JUMP JUMPDEST DUP2 PUSH1 0x1 DUP2 EQ PUSH2 0x38C2 JUMPI PUSH1 0x2 DUP2 EQ PUSH2 0x38CC JUMPI PUSH2 0x38E8 JUMP JUMPDEST PUSH1 0x1 SWAP2 POP POP PUSH2 0xB13 JUMP JUMPDEST PUSH1 0xFF DUP5 GT ISZERO PUSH2 0x38DD JUMPI PUSH2 0x38DD PUSH2 0x3816 JUMP JUMPDEST POP POP PUSH1 0x1 DUP3 SHL PUSH2 0xB13 JUMP JUMPDEST POP PUSH1 0x20 DUP4 LT PUSH2 0x133 DUP4 LT AND PUSH1 0x4E DUP5 LT PUSH1 0xB DUP5 LT AND OR ISZERO PUSH2 0x390B JUMPI POP DUP2 DUP2 EXP PUSH2 0xB13 JUMP JUMPDEST PUSH2 0x3915 DUP4 DUP4 PUSH2 0x3850 JUMP JUMPDEST DUP1 PUSH0 NOT DIV DUP3 GT ISZERO PUSH2 0x3928 JUMPI PUSH2 0x3928 PUSH2 0x3816 JUMP JUMPDEST MUL SWAP4 SWAP3 POP POP POP JUMP JUMPDEST PUSH0 PUSH2 0xC2A PUSH1 0xFF DUP5 AND DUP4 PUSH2 0x3892 JUMP JUMPDEST DUP1 DUP3 MUL DUP2 ISZERO DUP3 DUP3 DIV DUP5 EQ OR PUSH2 0xB13 JUMPI PUSH2 0xB13 PUSH2 0x3816 JUMP JUMPDEST PUSH4 0x4E487B71 PUSH1 0xE0 SHL PUSH0 MSTORE PUSH1 0x32 PUSH1 0x4 MSTORE PUSH1 0x24 PUSH0 REVERT JUMPDEST PUSH4 0x4E487B71 PUSH1 0xE0 SHL PUSH0 MSTORE PUSH1 0x12 PUSH1 0x4 MSTORE PUSH1 0x24 PUSH0 REVERT JUMPDEST PUSH1 0x1F DUP3 GT ISZERO PUSH2 0xC07 JUMPI DUP1 PUSH0 MSTORE PUSH1 0x20 PUSH0 KECCAK256 PUSH1 0x1F DUP5 ADD PUSH1 0x5 SHR DUP2 ADD PUSH1 0x20 DUP6 LT ISZERO PUSH2 0x39A2 JUMPI POP DUP1 JUMPDEST PUSH1 0x1F DUP5 ADD PUSH1 0x5 SHR DUP3 ADD SWAP2 POP JUMPDEST DUP2 DUP2 LT ISZERO PUSH2 0x165C JUMPI PUSH0 DUP2 SSTORE PUSH1 0x1 ADD PUSH2 0x39AE JUMP JUMPDEST DUP2 MLOAD PUSH8 0xFFFFFFFFFFFFFFFF DUP2 GT ISZERO PUSH2 0x39DB JUMPI PUSH2 0x39DB PUSH2 0x32AC JUMP JUMPDEST PUSH2 0x39EF DUP2 PUSH2 0x39E9 DUP5 SLOAD PUSH2 0x376D JUMP JUMPDEST DUP5 PUSH2 0x397D JUMP JUMPDEST PUSH1 0x20 DUP1 PUSH1 0x1F DUP4 GT PUSH1 0x1 DUP2 EQ PUSH2 0x3A22 JUMPI PUSH0 DUP5 ISZERO PUSH2 0x3A0B JUMPI POP DUP6 DUP4 ADD MLOAD JUMPDEST PUSH0 NOT PUSH1 0x3 DUP7 SWAP1 SHL SHR NOT AND PUSH1 0x1 DUP6 SWAP1 SHL OR DUP6 SSTORE PUSH2 0x3A79 JUMP JUMPDEST PUSH0 DUP6 DUP2 MSTORE PUSH1 0x20 DUP2 KECCAK256 PUSH1 0x1F NOT DUP7 AND SWAP2 JUMPDEST DUP3 DUP2 LT ISZERO PUSH2 0x3A50 JUMPI DUP9 DUP7 ADD MLOAD DUP3 SSTORE SWAP5 DUP5 ADD SWAP5 PUSH1 0x1 SWAP1 SWAP2 ADD SWAP1 DUP5 ADD PUSH2 0x3A31 JUMP JUMPDEST POP DUP6 DUP3 LT ISZERO PUSH2 0x3A6D JUMPI DUP8 DUP6 ADD MLOAD PUSH0 NOT PUSH1 0x3 DUP9 SWAP1 SHL PUSH1 0xF8 AND SHR NOT AND DUP2 SSTORE JUMPDEST POP POP PUSH1 0x1 DUP5 PUSH1 0x1 SHL ADD DUP6 SSTORE JUMPDEST POP POP POP POP POP POP JUMP JUMPDEST PUSH4 0x4E487B71 PUSH1 0xE0 SHL PUSH0 MSTORE PUSH1 0x21 PUSH1 0x4 MSTORE PUSH1 0x24 PUSH0 REVERT JUMPDEST PUSH0 DUP3 PUSH2 0x3AAF JUMPI PUSH4 0x4E487B71 PUSH1 0xE0 SHL PUSH0 MSTORE PUSH1 0x12 PUSH1 0x4 MSTORE PUSH1 0x24 PUSH0 REVERT JUMPDEST POP DIV SWAP1 JUMP JUMPDEST PUSH0 DUP3 MLOAD DUP1 PUSH1 0x20 DUP6 ADD DUP5 MCOPY PUSH0 SWAP3 ADD SWAP2 DUP3 MSTORE POP SWAP2 SWAP1 POP JUMP JUMPDEST PUSH1 0x1 PUSH1 0x1 PUSH1 0xD0 SHL SUB DUP3 DUP2 AND DUP3 DUP3 AND SUB SWAP1 DUP1 DUP3 GT ISZERO PUSH2 0x1A67 JUMPI PUSH2 0x1A67 PUSH2 0x3816 JUMP JUMPDEST PUSH1 0x1 PUSH1 0x1 PUSH1 0xD0 SHL SUB DUP2 DUP2 AND DUP4 DUP3 AND ADD SWAP1 DUP1 DUP3 GT ISZERO PUSH2 0x1A67 JUMPI PUSH2 0x1A67 PUSH2 0x3816 JUMP INVALID EXTCODESIZE TSTORE 0x4C 0xC6 0xD RETURNDATACOPY 0xC3 MLOAD PUSH15 0xE8AE083BD60934F6EB2A6C54B12299 DUP6 0xC4 SHL 0xFB MULMOD 0x2B 0x26 SUB 0xE8 0xB2 PUSH13 0x30FAD74198956032A3533D9033 DUP6 0xD5 PUSH14 0xD795AF560196F9C78D4AF40D0052 0xC6 ORIGIN SELFBALANCE 0xE1 DELEGATECALL PUSH30 0xB19D5CE0460030C497F067CA4CEBF71BA98EEADABE20BACE00A16A46D942 PUSH2 0xC751 PUSH29 0xC8FF89F61C0CE93598E3C849801011DEE649A6A557D10043727970746F MLOAD PUSH22 0x6573745468655368617264734F6647656E6573697354 PUSH16 0x6B656E360894A13BA1A3210667C82849 0x2D 0xB9 DUP14 0xCA RETURNDATACOPY KECCAK256 PUSH23 0xCC3735A920A3CA505D382BBC65D7A28E3265B37A647492 SWAP16 CALLER PUSH6 0x21B332C1681B SWAP4 EXTCODEHASH PUSH13 0xB9F3376673440D862A02DD7BC7 0xDE 0xC4 0xDC 0xEE 0xDD 0xA7 PUSH22 0xE58DD541E08A116C6C53815C0BD028192F7B626800CD MCOPY 0xD1 TLOAD PUSH15 0x187E77E9AEE88184C21F4F2182AB58 0x27 0xCB EXTCODESIZE PUSH31 0x7FBEDCD63F03300A26469706673582212208C49B5310EAF38CEC5232EFC4B 0x22 SELFDESTRUCT SWAP9 0x29 PUSH10 0x12E055FB1B8BF3749DB SGT SWAP12 SHL 0x4E PUSH5 0x736F6C6343 STOP ADDMOD NOT STOP CALLER "
		},
		"gasEstimates": {
			"creation": {
				"codeDepositCost": "3091600",
				"executionCost": "infinite",
				"totalCost": "infinite"
			},
			"external": {
				"AIRDROPPER_ROLE()": "285",
				"BURNER_ROLE()": "285",
				"CLOCK_MODE()": "infinite",
				"DAO_ROLE()": "infinite",
				"DEFAULT_ADMIN_ROLE()": "304",
				"DOMAIN_SEPARATOR()": "infinite",
				"MINTER_ROLE()": "305",
				"PAUSER_ROLE()": "infinite",
				"STAKER_ROLE()": "328",
				"UPGRADER_ROLE()": "326",
				"UPGRADE_INTERFACE_VERSION()": "infinite",
				"adminBurn(uint256)": "infinite",
				"airdrop(address[],uint256)": "infinite",
				"allowance(address,address)": "infinite",
				"approve(address,uint256)": "infinite",
				"balanceOf(address)": "infinite",
				"burn(uint256)": "infinite",
				"burnFrom(address,uint256)": "infinite",
				"checkpoints(address,uint32)": "infinite",
				"clock()": "infinite",
				"decimals()": "244",
				"delegate(address)": "infinite",
				"delegateBySig(address,uint256,uint256,uint8,bytes32,bytes32)": "infinite",
				"delegates(address)": "infinite",
				"eip712Domain()": "infinite",
				"executeProposal(uint256)": "infinite",
				"flashFee(address,uint256)": "513",
				"flashLoan(address,address,uint256,bytes)": "infinite",
				"getPastTotalSupply(uint256)": "infinite",
				"getPastVotes(address,uint256)": "infinite",
				"getRoleAdmin(bytes32)": "infinite",
				"getVotes(address)": "infinite",
				"grantRole(bytes32,address)": "infinite",
				"hasRole(bytes32,address)": "infinite",
				"initialize(address,address,address,address,address,address,address,address)": "infinite",
				"maxFlashLoan(address)": "infinite",
				"mint(address,uint256)": "infinite",
				"name()": "infinite",
				"nonces(address)": "infinite",
				"numCheckpoints(address)": "infinite",
				"pause()": "infinite",
				"paused()": "infinite",
				"permit(address,address,uint256,uint256,uint8,bytes32,bytes32)": "infinite",
				"proposeNewFeature(string)": "infinite",
				"proxiableUUID()": "infinite",
				"renounceRole(bytes32,address)": "29204",
				"revokeRole(bytes32,address)": "infinite",
				"stakeTokens(uint256)": "infinite",
				"supportsInterface(bytes4)": "493",
				"symbol()": "infinite",
				"totalSupply()": "2393",
				"transfer(address,uint256)": "infinite",
				"transferFrom(address,address,uint256)": "infinite",
				"unpause()": "infinite",
				"upgradeToAndCall(address,bytes)": "infinite",
				"voteOnProposal(uint256,bool)": "infinite"
			},
			"internal": {
				"_authorizeUpgrade(address)": "infinite",
				"_update(address,address,uint256)": "infinite"
			}
		},
		"methodIdentifiers": {
			"AIRDROPPER_ROLE()": "3b79276c",
			"BURNER_ROLE()": "282c51f3",
			"CLOCK_MODE()": "4bf5d7e9",
			"DAO_ROLE()": "e9c26518",
			"DEFAULT_ADMIN_ROLE()": "a217fddf",
			"DOMAIN_SEPARATOR()": "3644e515",
			"MINTER_ROLE()": "d5391393",
			"PAUSER_ROLE()": "e63ab1e9",
			"STAKER_ROLE()": "3780b3ed",
			"UPGRADER_ROLE()": "f72c0d8b",
			"UPGRADE_INTERFACE_VERSION()": "ad3cb1cc",
			"adminBurn(uint256)": "badb97ff",
			"airdrop(address[],uint256)": "c204642c",
			"allowance(address,address)": "dd62ed3e",
			"approve(address,uint256)": "095ea7b3",
			"balanceOf(address)": "70a08231",
			"burn(uint256)": "42966c68",
			"burnFrom(address,uint256)": "79cc6790",
			"checkpoints(address,uint32)": "f1127ed8",
			"clock()": "91ddadf4",
			"decimals()": "313ce567",
			"delegate(address)": "5c19a95c",
			"delegateBySig(address,uint256,uint256,uint8,bytes32,bytes32)": "c3cda520",
			"delegates(address)": "587cde1e",
			"eip712Domain()": "84b0196e",
			"executeProposal(uint256)": "0d61b519",
			"flashFee(address,uint256)": "d9d98ce4",
			"flashLoan(address,address,uint256,bytes)": "5cffe9de",
			"getPastTotalSupply(uint256)": "8e539e8c",
			"getPastVotes(address,uint256)": "3a46b1a8",
			"getRoleAdmin(bytes32)": "248a9ca3",
			"getVotes(address)": "9ab24eb0",
			"grantRole(bytes32,address)": "2f2ff15d",
			"hasRole(bytes32,address)": "91d14854",
			"initialize(address,address,address,address,address,address,address,address)": "8a29e2de",
			"maxFlashLoan(address)": "613255ab",
			"mint(address,uint256)": "40c10f19",
			"name()": "06fdde03",
			"nonces(address)": "7ecebe00",
			"numCheckpoints(address)": "6fcfff45",
			"pause()": "8456cb59",
			"paused()": "5c975abb",
			"permit(address,address,uint256,uint256,uint8,bytes32,bytes32)": "d505accf",
			"proposeNewFeature(string)": "ee93c3fc",
			"proxiableUUID()": "52d1902d",
			"renounceRole(bytes32,address)": "36568abe",
			"revokeRole(bytes32,address)": "d547741f",
			"stakeTokens(uint256)": "7547c7a3",
			"supportsInterface(bytes4)": "01ffc9a7",
			"symbol()": "95d89b41",
			"totalSupply()": "18160ddd",
			"transfer(address,uint256)": "a9059cbb",
			"transferFrom(address,address,uint256)": "23b872dd",
			"unpause()": "3f4ba83a",
			"upgradeToAndCall(address,bytes)": "4f1ef286",
			"voteOnProposal(uint256,bool)": "1614665c"
		}
	},
	"abi": [
		{
			"inputs": [],
			"stateMutability": "nonpayable",
			"type": "constructor"
		},
		{
			"inputs": [],
			"name": "AccessControlBadConfirmation",
			"type": "error"
		},
		{
			"inputs": [
				{
					"internalType": "address",
					"name": "account",
					"type": "address"
				},
				{
					"internalType": "bytes32",
					"name": "neededRole",
					"type": "bytes32"
				}
			],
			"name": "AccessControlUnauthorizedAccount",
			"type": "error"
		},
		{
			"inputs": [
				{
					"internalType": "address",
					"name": "target",
					"type": "address"
				}
			],
			"name": "AddressEmptyCode",
			"type": "error"
		},
		{
			"inputs": [],
			"name": "CheckpointUnorderedInsertion",
			"type": "error"
		},
		{
			"inputs": [],
			"name": "ECDSAInvalidSignature",
			"type": "error"
		},
		{
			"inputs": [
				{
					"internalType": "uint256",
					"name": "length",
					"type": "uint256"
				}
			],
			"name": "ECDSAInvalidSignatureLength",
			"type": "error"
		},
		{
			"inputs": [
				{
					"internalType": "bytes32",
					"name": "s",
					"type": "bytes32"
				}
			],
			"name": "ECDSAInvalidSignatureS",
			"type": "error"
		},
		{
			"inputs": [
				{
					"internalType": "address",
					"name": "implementation",
					"type": "address"
				}
			],
			"name": "ERC1967InvalidImplementation",
			"type": "error"
		},
		{
			"inputs": [],
			"name": "ERC1967NonPayable",
			"type": "error"
		},
		{
			"inputs": [
				{
					"internalType": "uint256",
					"name": "increasedSupply",
					"type": "uint256"
				},
				{
					"internalType": "uint256",
					"name": "cap",
					"type": "uint256"
				}
			],
			"name": "ERC20ExceededSafeSupply",
			"type": "error"
		},
		{
			"inputs": [
				{
					"internalType": "address",
					"name": "spender",
					"type": "address"
				},
				{
					"internalType": "uint256",
					"name": "allowance",
					"type": "uint256"
				},
				{
					"internalType": "uint256",
					"name": "needed",
					"type": "uint256"
				}
			],
			"name": "ERC20InsufficientAllowance",
			"type": "error"
		},
		{
			"inputs": [
				{
					"internalType": "address",
					"name": "sender",
					"type": "address"
				},
				{
					"internalType": "uint256",
					"name": "balance",
					"type": "uint256"
				},
				{
					"internalType": "uint256",
					"name": "needed",
					"type": "uint256"
				}
			],
			"name": "ERC20InsufficientBalance",
			"type": "error"
		},
		{
			"inputs": [
				{
					"internalType": "address",
					"name": "approver",
					"type": "address"
				}
			],
			"name": "ERC20InvalidApprover",
			"type": "error"
		},
		{
			"inputs": [
				{
					"internalType": "address",
					"name": "receiver",
					"type": "address"
				}
			],
			"name": "ERC20InvalidReceiver",
			"type": "error"
		},
		{
			"inputs": [
				{
					"internalType": "address",
					"name": "sender",
					"type": "address"
				}
			],
			"name": "ERC20InvalidSender",
			"type": "error"
		},
		{
			"inputs": [
				{
					"internalType": "address",
					"name": "spender",
					"type": "address"
				}
			],
			"name": "ERC20InvalidSpender",
			"type": "error"
		},
		{
			"inputs": [
				{
					"internalType": "uint256",
					"name": "deadline",
					"type": "uint256"
				}
			],
			"name": "ERC2612ExpiredSignature",
			"type": "error"
		},
		{
			"inputs": [
				{
					"internalType": "address",
					"name": "signer",
					"type": "address"
				},
				{
					"internalType": "address",
					"name": "owner",
					"type": "address"
				}
			],
			"name": "ERC2612InvalidSigner",
			"type": "error"
		},
		{
			"inputs": [
				{
					"internalType": "uint256",
					"name": "maxLoan",
					"type": "uint256"
				}
			],
			"name": "ERC3156ExceededMaxLoan",
			"type": "error"
		},
		{
			"inputs": [
				{
					"internalType": "address",
					"name": "receiver",
					"type": "address"
				}
			],
			"name": "ERC3156InvalidReceiver",
			"type": "error"
		},
		{
			"inputs": [
				{
					"internalType": "address",
					"name": "token",
					"type": "address"
				}
			],
			"name": "ERC3156UnsupportedToken",
			"type": "error"
		},
		{
			"inputs": [
				{
					"internalType": "uint256",
					"name": "timepoint",
					"type": "uint256"
				},
				{
					"internalType": "uint48",
					"name": "clock",
					"type": "uint48"
				}
			],
			"name": "ERC5805FutureLookup",
			"type": "error"
		},
		{
			"inputs": [],
			"name": "ERC6372InconsistentClock",
			"type": "error"
		},
		{
			"inputs": [],
			"name": "EnforcedPause",
			"type": "error"
		},
		{
			"inputs": [],
			"name": "ExpectedPause",
			"type": "error"
		},
		{
			"inputs": [],
			"name": "FailedInnerCall",
			"type": "error"
		},
		{
			"inputs": [
				{
					"internalType": "address",
					"name": "account",
					"type": "address"
				},
				{
					"internalType": "uint256",
					"name": "currentNonce",
					"type": "uint256"
				}
			],
			"name": "InvalidAccountNonce",
			"type": "error"
		},
		{
			"inputs": [],
			"name": "InvalidInitialization",
			"type": "error"
		},
		{
			"inputs": [],
			"name": "NotInitializing",
			"type": "error"
		},
		{
			"inputs": [
				{
					"internalType": "uint8",
					"name": "bits",
					"type": "uint8"
				},
				{
					"internalType": "uint256",
					"name": "value",
					"type": "uint256"
				}
			],
			"name": "SafeCastOverflowedUintDowncast",
			"type": "error"
		},
		{
			"inputs": [],
			"name": "UUPSUnauthorizedCallContext",
			"type": "error"
		},
		{
			"inputs": [
				{
					"internalType": "bytes32",
					"name": "slot",
					"type": "bytes32"
				}
			],
			"name": "UUPSUnsupportedProxiableUUID",
			"type": "error"
		},
		{
			"inputs": [
				{
					"internalType": "uint256",
					"name": "expiry",
					"type": "uint256"
				}
			],
			"name": "VotesExpiredSignature",
			"type": "error"
		},
		{
			"anonymous": false,
			"inputs": [
				{
					"indexed": true,
					"internalType": "address",
					"name": "owner",
					"type": "address"
				},
				{
					"indexed": true,
					"internalType": "address",
					"name": "spender",
					"type": "address"
				},
				{
					"indexed": false,
					"internalType": "uint256",
					"name": "value",
					"type": "uint256"
				}
			],
			"name": "Approval",
			"type": "event"
		},
		{
			"anonymous": false,
			"inputs": [
				{
					"indexed": true,
					"internalType": "address",
					"name": "delegator",
					"type": "address"
				},
				{
					"indexed": true,
					"internalType": "address",
					"name": "fromDelegate",
					"type": "address"
				},
				{
					"indexed": true,
					"internalType": "address",
					"name": "toDelegate",
					"type": "address"
				}
			],
			"name": "DelegateChanged",
			"type": "event"
		},
		{
			"anonymous": false,
			"inputs": [
				{
					"indexed": true,
					"internalType": "address",
					"name": "delegate",
					"type": "address"
				},
				{
					"indexed": false,
					"internalType": "uint256",
					"name": "previousVotes",
					"type": "uint256"
				},
				{
					"indexed": false,
					"internalType": "uint256",
					"name": "newVotes",
					"type": "uint256"
				}
			],
			"name": "DelegateVotesChanged",
			"type": "event"
		},
		{
			"anonymous": false,
			"inputs": [],
			"name": "EIP712DomainChanged",
			"type": "event"
		},
		{
			"anonymous": false,
			"inputs": [
				{
					"indexed": false,
					"internalType": "uint64",
					"name": "version",
					"type": "uint64"
				}
			],
			"name": "Initialized",
			"type": "event"
		},
		{
			"anonymous": false,
			"inputs": [
				{
					"indexed": false,
					"internalType": "address",
					"name": "account",
					"type": "address"
				}
			],
			"name": "Paused",
			"type": "event"
		},
		{
			"anonymous": false,
			"inputs": [
				{
					"indexed": true,
					"internalType": "bytes32",
					"name": "role",
					"type": "bytes32"
				},
				{
					"indexed": true,
					"internalType": "bytes32",
					"name": "previousAdminRole",
					"type": "bytes32"
				},
				{
					"indexed": true,
					"internalType": "bytes32",
					"name": "newAdminRole",
					"type": "bytes32"
				}
			],
			"name": "RoleAdminChanged",
			"type": "event"
		},
		{
			"anonymous": false,
			"inputs": [
				{
					"indexed": true,
					"internalType": "bytes32",
					"name": "role",
					"type": "bytes32"
				},
				{
					"indexed": true,
					"internalType": "address",
					"name": "account",
					"type": "address"
				},
				{
					"indexed": true,
					"internalType": "address",
					"name": "sender",
					"type": "address"
				}
			],
			"name": "RoleGranted",
			"type": "event"
		},
		{
			"anonymous": false,
			"inputs": [
				{
					"indexed": true,
					"internalType": "bytes32",
					"name": "role",
					"type": "bytes32"
				},
				{
					"indexed": true,
					"internalType": "address",
					"name": "account",
					"type": "address"
				},
				{
					"indexed": true,
					"internalType": "address",
					"name": "sender",
					"type": "address"
				}
			],
			"name": "RoleRevoked",
			"type": "event"
		},
		{
			"anonymous": false,
			"inputs": [
				{
					"indexed": true,
					"internalType": "address",
					"name": "from",
					"type": "address"
				},
				{
					"indexed": true,
					"internalType": "address",
					"name": "to",
					"type": "address"
				},
				{
					"indexed": false,
					"internalType": "uint256",
					"name": "value",
					"type": "uint256"
				}
			],
			"name": "Transfer",
			"type": "event"
		},
		{
			"anonymous": false,
			"inputs": [
				{
					"indexed": false,
					"internalType": "address",
					"name": "account",
					"type": "address"
				}
			],
			"name": "Unpaused",
			"type": "event"
		},
		{
			"anonymous": false,
			"inputs": [
				{
					"indexed": true,
					"internalType": "address",
					"name": "implementation",
					"type": "address"
				}
			],
			"name": "Upgraded",
			"type": "event"
		},
		{
			"inputs": [],
			"name": "AIRDROPPER_ROLE",
			"outputs": [
				{
					"internalType": "bytes32",
					"name": "",
					"type": "bytes32"
				}
			],
			"stateMutability": "view",
			"type": "function"
		},
		{
			"inputs": [],
			"name": "BURNER_ROLE",
			"outputs": [
				{
					"internalType": "bytes32",
					"name": "",
					"type": "bytes32"
				}
			],
			"stateMutability": "view",
			"type": "function"
		},
		{
			"inputs": [],
			"name": "CLOCK_MODE",
			"outputs": [
				{
					"internalType": "string",
					"name": "",
					"type": "string"
				}
			],
			"stateMutability": "view",
			"type": "function"
		},
		{
			"inputs": [],
			"name": "DAO_ROLE",
			"outputs": [
				{
					"internalType": "bytes32",
					"name": "",
					"type": "bytes32"
				}
			],
			"stateMutability": "view",
			"type": "function"
		},
		{
			"inputs": [],
			"name": "DEFAULT_ADMIN_ROLE",
			"outputs": [
				{
					"internalType": "bytes32",
					"name": "",
					"type": "bytes32"
				}
			],
			"stateMutability": "view",
			"type": "function"
		},
		{
			"inputs": [],
			"name": "DOMAIN_SEPARATOR",
			"outputs": [
				{
					"internalType": "bytes32",
					"name": "",
					"type": "bytes32"
				}
			],
			"stateMutability": "view",
			"type": "function"
		},
		{
			"inputs": [],
			"name": "MINTER_ROLE",
			"outputs": [
				{
					"internalType": "bytes32",
					"name": "",
					"type": "bytes32"
				}
			],
			"stateMutability": "view",
			"type": "function"
		},
		{
			"inputs": [],
			"name": "PAUSER_ROLE",
			"outputs": [
				{
					"internalType": "bytes32",
					"name": "",
					"type": "bytes32"
				}
			],
			"stateMutability": "view",
			"type": "function"
		},
		{
			"inputs": [],
			"name": "STAKER_ROLE",
			"outputs": [
				{
					"internalType": "bytes32",
					"name": "",
					"type": "bytes32"
				}
			],
			"stateMutability": "view",
			"type": "function"
		},
		{
			"inputs": [],
			"name": "UPGRADER_ROLE",
			"outputs": [
				{
					"internalType": "bytes32",
					"name": "",
					"type": "bytes32"
				}
			],
			"stateMutability": "view",
			"type": "function"
		},
		{
			"inputs": [],
			"name": "UPGRADE_INTERFACE_VERSION",
			"outputs": [
				{
					"internalType": "string",
					"name": "",
					"type": "string"
				}
			],
			"stateMutability": "view",
			"type": "function"
		},
		{
			"inputs": [
				{
					"internalType": "uint256",
					"name": "amount",
					"type": "uint256"
				}
			],
			"name": "adminBurn",
			"outputs": [],
			"stateMutability": "nonpayable",
			"type": "function"
		},
		{
			"inputs": [
				{
					"internalType": "address[]",
					"name": "recipients",
					"type": "address[]"
				},
				{
					"internalType": "uint256",
					"name": "amount",
					"type": "uint256"
				}
			],
			"name": "airdrop",
			"outputs": [],
			"stateMutability": "nonpayable",
			"type": "function"
		},
		{
			"inputs": [
				{
					"internalType": "address",
					"name": "owner",
					"type": "address"
				},
				{
					"internalType": "address",
					"name": "spender",
					"type": "address"
				}
			],
			"name": "allowance",
			"outputs": [
				{
					"internalType": "uint256",
					"name": "",
					"type": "uint256"
				}
			],
			"stateMutability": "view",
			"type": "function"
		},
		{
			"inputs": [
				{
					"internalType": "address",
					"name": "spender",
					"type": "address"
				},
				{
					"internalType": "uint256",
					"name": "value",
					"type": "uint256"
				}
			],
			"name": "approve",
			"outputs": [
				{
					"internalType": "bool",
					"name": "",
					"type": "bool"
				}
			],
			"stateMutability": "nonpayable",
			"type": "function"
		},
		{
			"inputs": [
				{
					"internalType": "address",
					"name": "account",
					"type": "address"
				}
			],
			"name": "balanceOf",
			"outputs": [
				{
					"internalType": "uint256",
					"name": "",
					"type": "uint256"
				}
			],
			"stateMutability": "view",
			"type": "function"
		},
		{
			"inputs": [
				{
					"internalType": "uint256",
					"name": "value",
					"type": "uint256"
				}
			],
			"name": "burn",
			"outputs": [],
			"stateMutability": "nonpayable",
			"type": "function"
		},
		{
			"inputs": [
				{
					"internalType": "address",
					"name": "account",
					"type": "address"
				},
				{
					"internalType": "uint256",
					"name": "value",
					"type": "uint256"
				}
			],
			"name": "burnFrom",
			"outputs": [],
			"stateMutability": "nonpayable",
			"type": "function"
		},
		{
			"inputs": [
				{
					"internalType": "address",
					"name": "account",
					"type": "address"
				},
				{
					"internalType": "uint32",
					"name": "pos",
					"type": "uint32"
				}
			],
			"name": "checkpoints",
			"outputs": [
				{
					"components": [
						{
							"internalType": "uint48",
							"name": "_key",
							"type": "uint48"
						},
						{
							"internalType": "uint208",
							"name": "_value",
							"type": "uint208"
						}
					],
					"internalType": "struct Checkpoints.Checkpoint208",
					"name": "",
					"type": "tuple"
				}
			],
			"stateMutability": "view",
			"type": "function"
		},
		{
			"inputs": [],
			"name": "clock",
			"outputs": [
				{
					"internalType": "uint48",
					"name": "",
					"type": "uint48"
				}
			],
			"stateMutability": "view",
			"type": "function"
		},
		{
			"inputs": [],
			"name": "decimals",
			"outputs": [
				{
					"internalType": "uint8",
					"name": "",
					"type": "uint8"
				}
			],
			"stateMutability": "view",
			"type": "function"
		},
		{
			"inputs": [
				{
					"internalType": "address",
					"name": "delegatee",
					"type": "address"
				}
			],
			"name": "delegate",
			"outputs": [],
			"stateMutability": "nonpayable",
			"type": "function"
		},
		{
			"inputs": [
				{
					"internalType": "address",
					"name": "delegatee",
					"type": "address"
				},
				{
					"internalType": "uint256",
					"name": "nonce",
					"type": "uint256"
				},
				{
					"internalType": "uint256",
					"name": "expiry",
					"type": "uint256"
				},
				{
					"internalType": "uint8",
					"name": "v",
					"type": "uint8"
				},
				{
					"internalType": "bytes32",
					"name": "r",
					"type": "bytes32"
				},
				{
					"internalType": "bytes32",
					"name": "s",
					"type": "bytes32"
				}
			],
			"name": "delegateBySig",
			"outputs": [],
			"stateMutability": "nonpayable",
			"type": "function"
		},
		{
			"inputs": [
				{
					"internalType": "address",
					"name": "account",
					"type": "address"
				}
			],
			"name": "delegates",
			"outputs": [
				{
					"internalType": "address",
					"name": "",
					"type": "address"
				}
			],
			"stateMutability": "view",
			"type": "function"
		},
		{
			"inputs": [],
			"name": "eip712Domain",
			"outputs": [
				{
					"internalType": "bytes1",
					"name": "fields",
					"type": "bytes1"
				},
				{
					"internalType": "string",
					"name": "name",
					"type": "string"
				},
				{
					"internalType": "string",
					"name": "version",
					"type": "string"
				},
				{
					"internalType": "uint256",
					"name": "chainId",
					"type": "uint256"
				},
				{
					"internalType": "address",
					"name": "verifyingContract",
					"type": "address"
				},
				{
					"internalType": "bytes32",
					"name": "salt",
					"type": "bytes32"
				},
				{
					"internalType": "uint256[]",
					"name": "extensions",
					"type": "uint256[]"
				}
			],
			"stateMutability": "view",
			"type": "function"
		},
		{
			"inputs": [
				{
					"internalType": "uint256",
					"name": "proposalId",
					"type": "uint256"
				}
			],
			"name": "executeProposal",
			"outputs": [],
			"stateMutability": "nonpayable",
			"type": "function"
		},
		{
			"inputs": [
				{
					"internalType": "address",
					"name": "token",
					"type": "address"
				},
				{
					"internalType": "uint256",
					"name": "value",
					"type": "uint256"
				}
			],
			"name": "flashFee",
			"outputs": [
				{
					"internalType": "uint256",
					"name": "",
					"type": "uint256"
				}
			],
			"stateMutability": "view",
			"type": "function"
		},
		{
			"inputs": [
				{
					"internalType": "contract IERC3156FlashBorrower",
					"name": "receiver",
					"type": "address"
				},
				{
					"internalType": "address",
					"name": "token",
					"type": "address"
				},
				{
					"internalType": "uint256",
					"name": "value",
					"type": "uint256"
				},
				{
					"internalType": "bytes",
					"name": "data",
					"type": "bytes"
				}
			],
			"name": "flashLoan",
			"outputs": [
				{
					"internalType": "bool",
					"name": "",
					"type": "bool"
				}
			],
			"stateMutability": "nonpayable",
			"type": "function"
		},
		{
			"inputs": [
				{
					"internalType": "uint256",
					"name": "timepoint",
					"type": "uint256"
				}
			],
			"name": "getPastTotalSupply",
			"outputs": [
				{
					"internalType": "uint256",
					"name": "",
					"type": "uint256"
				}
			],
			"stateMutability": "view",
			"type": "function"
		},
		{
			"inputs": [
				{
					"internalType": "address",
					"name": "account",
					"type": "address"
				},
				{
					"internalType": "uint256",
					"name": "timepoint",
					"type": "uint256"
				}
			],
			"name": "getPastVotes",
			"outputs": [
				{
					"internalType": "uint256",
					"name": "",
					"type": "uint256"
				}
			],
			"stateMutability": "view",
			"type": "function"
		},
		{
			"inputs": [
				{
					"internalType": "bytes32",
					"name": "role",
					"type": "bytes32"
				}
			],
			"name": "getRoleAdmin",
			"outputs": [
				{
					"internalType": "bytes32",
					"name": "",
					"type": "bytes32"
				}
			],
			"stateMutability": "view",
			"type": "function"
		},
		{
			"inputs": [
				{
					"internalType": "address",
					"name": "account",
					"type": "address"
				}
			],
			"name": "getVotes",
			"outputs": [
				{
					"internalType": "uint256",
					"name": "",
					"type": "uint256"
				}
			],
			"stateMutability": "view",
			"type": "function"
		},
		{
			"inputs": [
				{
					"internalType": "bytes32",
					"name": "role",
					"type": "bytes32"
				},
				{
					"internalType": "address",
					"name": "account",
					"type": "address"
				}
			],
			"name": "grantRole",
			"outputs": [],
			"stateMutability": "nonpayable",
			"type": "function"
		},
		{
			"inputs": [
				{
					"internalType": "bytes32",
					"name": "role",
					"type": "bytes32"
				},
				{
					"internalType": "address",
					"name": "account",
					"type": "address"
				}
			],
			"name": "hasRole",
			"outputs": [
				{
					"internalType": "bool",
					"name": "",
					"type": "bool"
				}
			],
			"stateMutability": "view",
			"type": "function"
		},
		{
			"inputs": [
				{
					"internalType": "address",
					"name": "defaultAdmin",
					"type": "address"
				},
				{
					"internalType": "address",
					"name": "pauser",
					"type": "address"
				},
				{
					"internalType": "address",
					"name": "minter",
					"type": "address"
				},
				{
					"internalType": "address",
					"name": "upgrader",
					"type": "address"
				},
				{
					"internalType": "address",
					"name": "burner",
					"type": "address"
				},
				{
					"internalType": "address",
					"name": "airdropper",
					"type": "address"
				},
				{
					"internalType": "address",
					"name": "staker",
					"type": "address"
				},
				{
					"internalType": "address",
					"name": "dao",
					"type": "address"
				}
			],
			"name": "initialize",
			"outputs": [],
			"stateMutability": "nonpayable",
			"type": "function"
		},
		{
			"inputs": [
				{
					"internalType": "address",
					"name": "token",
					"type": "address"
				}
			],
			"name": "maxFlashLoan",
			"outputs": [
				{
					"internalType": "uint256",
					"name": "",
					"type": "uint256"
				}
			],
			"stateMutability": "view",
			"type": "function"
		},
		{
			"inputs": [
				{
					"internalType": "address",
					"name": "to",
					"type": "address"
				},
				{
					"internalType": "uint256",
					"name": "amount",
					"type": "uint256"
				}
			],
			"name": "mint",
			"outputs": [],
			"stateMutability": "nonpayable",
			"type": "function"
		},
		{
			"inputs": [],
			"name": "name",
			"outputs": [
				{
					"internalType": "string",
					"name": "",
					"type": "string"
				}
			],
			"stateMutability": "view",
			"type": "function"
		},
		{
			"inputs": [
				{
					"internalType": "address",
					"name": "owner",
					"type": "address"
				}
			],
			"name": "nonces",
			"outputs": [
				{
					"internalType": "uint256",
					"name": "",
					"type": "uint256"
				}
			],
			"stateMutability": "view",
			"type": "function"
		},
		{
			"inputs": [
				{
					"internalType": "address",
					"name": "account",
					"type": "address"
				}
			],
			"name": "numCheckpoints",
			"outputs": [
				{
					"internalType": "uint32",
					"name": "",
					"type": "uint32"
				}
			],
			"stateMutability": "view",
			"type": "function"
		},
		{
			"inputs": [],
			"name": "pause",
			"outputs": [],
			"stateMutability": "nonpayable",
			"type": "function"
		},
		{
			"inputs": [],
			"name": "paused",
			"outputs": [
				{
					"internalType": "bool",
					"name": "",
					"type": "bool"
				}
			],
			"stateMutability": "view",
			"type": "function"
		},
		{
			"inputs": [
				{
					"internalType": "address",
					"name": "owner",
					"type": "address"
				},
				{
					"internalType": "address",
					"name": "spender",
					"type": "address"
				},
				{
					"internalType": "uint256",
					"name": "value",
					"type": "uint256"
				},
				{
					"internalType": "uint256",
					"name": "deadline",
					"type": "uint256"
				},
				{
					"internalType": "uint8",
					"name": "v",
					"type": "uint8"
				},
				{
					"internalType": "bytes32",
					"name": "r",
					"type": "bytes32"
				},
				{
					"internalType": "bytes32",
					"name": "s",
					"type": "bytes32"
				}
			],
			"name": "permit",
			"outputs": [],
			"stateMutability": "nonpayable",
			"type": "function"
		},
		{
			"inputs": [
				{
					"internalType": "string",
					"name": "featureDescription",
					"type": "string"
				}
			],
			"name": "proposeNewFeature",
			"outputs": [],
			"stateMutability": "nonpayable",
			"type": "function"
		},
		{
			"inputs": [],
			"name": "proxiableUUID",
			"outputs": [
				{
					"internalType": "bytes32",
					"name": "",
					"type": "bytes32"
				}
			],
			"stateMutability": "view",
			"type": "function"
		},
		{
			"inputs": [
				{
					"internalType": "bytes32",
					"name": "role",
					"type": "bytes32"
				},
				{
					"internalType": "address",
					"name": "callerConfirmation",
					"type": "address"
				}
			],
			"name": "renounceRole",
			"outputs": [],
			"stateMutability": "nonpayable",
			"type": "function"
		},
		{
			"inputs": [
				{
					"internalType": "bytes32",
					"name": "role",
					"type": "bytes32"
				},
				{
					"internalType": "address",
					"name": "account",
					"type": "address"
				}
			],
			"name": "revokeRole",
			"outputs": [],
			"stateMutability": "nonpayable",
			"type": "function"
		},
		{
			"inputs": [
				{
					"internalType": "uint256",
					"name": "amount",
					"type": "uint256"
				}
			],
			"name": "stakeTokens",
			"outputs": [],
			"stateMutability": "nonpayable",
			"type": "function"
		},
		{
			"inputs": [
				{
					"internalType": "bytes4",
					"name": "interfaceId",
					"type": "bytes4"
				}
			],
			"name": "supportsInterface",
			"outputs": [
				{
					"internalType": "bool",
					"name": "",
					"type": "bool"
				}
			],
			"stateMutability": "view",
			"type": "function"
		},
		{
			"inputs": [],
			"name": "symbol",
			"outputs": [
				{
					"internalType": "string",
					"name": "",
					"type": "string"
				}
			],
			"stateMutability": "view",
			"type": "function"
		},
		{
			"inputs": [],
			"name": "totalSupply",
			"outputs": [
				{
					"internalType": "uint256",
					"name": "",
					"type": "uint256"
				}
			],
			"stateMutability": "view",
			"type": "function"
		},
		{
			"inputs": [
				{
					"internalType": "address",
					"name": "to",
					"type": "address"
				},
				{
					"internalType": "uint256",
					"name": "value",
					"type": "uint256"
				}
			],
			"name": "transfer",
			"outputs": [
				{
					"internalType": "bool",
					"name": "",
					"type": "bool"
				}
			],
			"stateMutability": "nonpayable",
			"type": "function"
		},
		{
			"inputs": [
				{
					"internalType": "address",
					"name": "from",
					"type": "address"
				},
				{
					"internalType": "address",
					"name": "to",
					"type": "address"
				},
				{
					"internalType": "uint256",
					"name": "value",
					"type": "uint256"
				}
			],
			"name": "transferFrom",
			"outputs": [
				{
					"internalType": "bool",
					"name": "",
					"type": "bool"
				}
			],
			"stateMutability": "nonpayable",
			"type": "function"
		},
		{
			"inputs": [],
			"name": "unpause",
			"outputs": [],
			"stateMutability": "nonpayable",
			"type": "function"
		},
		{
			"inputs": [
				{
					"internalType": "address",
					"name": "newImplementation",
					"type": "address"
				},
				{
					"internalType": "bytes",
					"name": "data",
					"type": "bytes"
				}
			],
			"name": "upgradeToAndCall",
			"outputs": [],
			"stateMutability": "payable",
			"type": "function"
		},
		{
			"inputs": [
				{
					"internalType": "uint256",
					"name": "proposalId",
					"type": "uint256"
				},
				{
					"internalType": "bool",
					"name": "support",
					"type": "bool"
				}
			],
			"name": "voteOnProposal",
			"outputs": [],
			"stateMutability": "nonpayable",
			"type": "function"
		}
	]
}