{
	"data": {
		"bytecode": {
			"linkReferences": {},
			"object": "60a060405230608052348015610013575f80fd5b5061001c610021565b6100d3565b7ff0c57e16840df040f15088dc2f81fe391c3923bec73e23a9662efc9c229c6a00805468010000000000000000900460ff16156100715760405163f92ee8a960e01b815260040160405180910390fd5b80546001600160401b03908116146100d05780546001600160401b0319166001600160401b0390811782556040519081527fc7f505b2f371ae2175ee4913f4499e1f2633a7b5936321eed1cdaeb6115181d29060200160405180910390a15b50565b60805161354c6100f95f395f8181611b6001528181611b890152611cec015261354c5ff3fe608060405260043610610253575f3560e01c80638456cb591161013f578063c9f1f64a116100b3578063f242432a11610078578063f242432a1461076f578063f5298aca1461078e578063f72c0d8b146107ad578063f8c8765e146107e0578063fc314e31146107ff578063fdc764451461082c575f80fd5b8063c9f1f64a146106d2578063d5391393146106f1578063d547741f14610711578063e63ab1e914610730578063e985e9c514610750575f80fd5b8063ad3cb1cc11610104578063ad3cb1cc146105dc578063bd85b0391461060c578063be0fb9c114610656578063bf19112914610675578063c4100ded14610694578063c521829c146106b3575f80fd5b80638456cb5914610558578063862615321461056c57806391d148541461058b578063a217fddf146105aa578063a22cb465146105bd575f80fd5b806336568abe116101d65780634f1ef2861161019b5780634f1ef286146104705780634f558e791461048357806352d1902d146104cf5780635c975abb146104e35780636b20c454146105065780637f34571014610525575f80fd5b806336568abe146103d35780633845b693146103f25780633f4ba83a14610411578063475d2807146104255780634e1273f414610444575f80fd5b806318160ddd1161021c57806318160ddd14610324578063248a9ca3146103575780632de8eb9a146103765780632eb2c2d6146103955780632f2ff15d146103b4575f80fd5b8062fdd58e1461025757806301ffc9a71461028957806302fe5305146102b85780630d030c00146102d95780630e89341c146102f8575b5f80fd5b348015610262575f80fd5b50610276610271366004612890565b61084b565b6040519081526020015b60405180910390f35b348015610294575f80fd5b506102a86102a33660046128cd565b610880565b6040519015158152602001610280565b3480156102c3575f80fd5b506102d76102d236600461299d565b61088a565b005b3480156102e4575f80fd5b506102d76102f33660046129e4565b6108c1565b348015610303575f80fd5b50610317610312366004612a78565b61095a565b6040516102809190612abd565b34801561032f575f80fd5b507f4a593662ee04d27b6a00ebb31be7fe0c102c2ade82a7c5d764f2df05dc4e280154610276565b348015610362575f80fd5b50610276610371366004612a78565b610a1c565b348015610381575f80fd5b506102d7610390366004612acf565b610a3c565b3480156103a0575f80fd5b506102d76103af366004612b7b565b610af7565b3480156103bf575f80fd5b506102d76103ce366004612c27565b610b5e565b3480156103de575f80fd5b506102d76103ed366004612c27565b610b80565b3480156103fd575f80fd5b5061031761040c366004612a78565b610bb8565b34801561041c575f80fd5b506102d7610d27565b348015610430575f80fd5b506102d761043f366004612acf565b610d49565b34801561044f575f80fd5b5061046361045e366004612c51565b610de0565b6040516102809190612d4c565b6102d761047e366004612d5e565b610eaa565b34801561048e575f80fd5b506102a861049d366004612a78565b5f9081527f4a593662ee04d27b6a00ebb31be7fe0c102c2ade82a7c5d764f2df05dc4e28006020526040902054151590565b3480156104da575f80fd5b50610276610ec5565b3480156104ee575f80fd5b505f805160206134f78339815191525460ff166102a8565b348015610511575f80fd5b506102d7610520366004612d9e565b610ee0565b348015610530575f80fd5b506102767f7804d923f43a17d325d77e781528e0793b2edd9890ab45fc64efd7b4b427744c81565b348015610563575f80fd5b506102d7610f3f565b348015610577575f80fd5b50610317610586366004612a78565b610f5e565b348015610596575f80fd5b506102a86105a5366004612c27565b610fdd565b3480156105b5575f80fd5b506102765f81565b3480156105c8575f80fd5b506102d76105d7366004612e10565b611013565b3480156105e7575f80fd5b50610317604051806040016040528060058152602001640352e302e360dc1b81525081565b348015610617575f80fd5b50610276610626366004612a78565b5f9081527f4a593662ee04d27b6a00ebb31be7fe0c102c2ade82a7c5d764f2df05dc4e2800602052604090205490565b348015610661575f80fd5b506102d7610670366004612e49565b61101e565b348015610680575f80fd5b506102d761068f366004612a78565b6110d3565b34801561069f575f80fd5b506102d76106ae366004612acf565b611197565b3480156106be575f80fd5b506103176106cd366004612a78565b6111c0565b3480156106dd575f80fd5b506102d76106ec366004612f5b565b61129f565b3480156106fc575f80fd5b506102765f805160206134b783398151915281565b34801561071c575f80fd5b506102d761072b366004612c27565b61141a565b34801561073b575f80fd5b506102765f8051602061347783398151915281565b34801561075b575f80fd5b506102a861076a36600461303b565b611436565b34801561077a575f80fd5b506102d7610789366004613063565b611482565b348015610799575f80fd5b506102d76107a83660046130b6565b6114e1565b3480156107b8575f80fd5b506102767f189ab7a9244df0848122154315af71fe140f3db0fe014031783b0946b8c9d2e381565b3480156107eb575f80fd5b506102d76107fa3660046130e6565b611517565b34801561080a575f80fd5b5061081e610819366004612a78565b6116c2565b60405161028092919061314b565b348015610837575f80fd5b506102d7610846366004612a78565b611768565b5f8181525f80516020613497833981519152602090815260408083206001600160a01b03861684529091529020545b92915050565b5f61087a8261184f565b7f7804d923f43a17d325d77e781528e0793b2edd9890ab45fc64efd7b4b427744c6108b481611873565b6108bd8261187d565b5050565b5f805160206134b78339815191526108d881611873565b6108e4878787876118b6565b604051806040016040528084600781111561090157610901613137565b815260209081018490525f888152908190526040902081518154829060ff1916600183600781111561093557610935613137565b02179055506020820151600182019061094e90826131fb565b50505050505050505050565b7f88be536d5240c274a3b1d3a1be54482fd9caa294f08c62a7cde569f49a3c450280546060915f80516020613497833981519152916109989061317f565b80601f01602080910402602001604051908101604052809291908181526020018280546109c49061317f565b8015610a0f5780601f106109e657610100808354040283529160200191610a0f565b820191905f5260205f20905b8154815290600101906020018083116109f257829003601f168201915b5050505050915050919050565b5f9081525f805160206134d7833981519152602052604090206001015490565b80610a47338461084b565b1015610a6e5760405162461bcd60e51b8152600401610a65906132b5565b60405180910390fd5b5f8281526020819052604081205460ff166007811115610a9057610a90613137565b14610aec5760405162461bcd60e51b815260206004820152602660248201527f43727970746f51756573743a20546f6b656e206973206e6f74206120636f6e73604482015265756d61626c6560d01b6064820152608401610a65565b6108bd338383611911565b336001600160a01b0386168114801590610b185750610b168682611436565b155b15610b495760405163711bec9160e11b81526001600160a01b03808316600483015287166024820152604401610a65565b610b56868686868661197e565b505050505050565b610b6782610a1c565b610b7081611873565b610b7a83836119dc565b50505050565b6001600160a01b0381163314610ba95760405163334bd91960e11b815260040160405180910390fd5b610bb38282611a7d565b505050565b606060055f8381526020819052604090205460ff166007811115610bde57610bde613137565b14610c355760405162461bcd60e51b815260206004820152602160248201527f43727970746f51756573743a20546f6b656e206973206e6f742061206d6f756e6044820152601d60fa1b6064820152608401610a65565b5f610c40338461084b565b11610c895760405162461bcd60e51b815260206004820152602660248201525f80516020613437833981519152604482015265081b5bdd5b9d60d21b6064820152608401610a65565b5f8281526020819052604090206001018054610ca49061317f565b80601f0160208091040260200160405190810160405280929190818152602001828054610cd09061317f565b8015610d1b5780601f10610cf257610100808354040283529160200191610d1b565b820191905f5260205f20905b815481529060010190602001808311610cfe57829003601f168201915b50505050509050919050565b5f80516020613477833981519152610d3e81611873565b610d46611af6565b50565b60015f8381526020819052604090205460ff166007811115610d6d57610d6d613137565b14610dc65760405162461bcd60e51b8152602060048201526024808201527f43727970746f51756573743a20546f6b656e206973206e6f742061207265736f6044820152637572636560e01b6064820152608401610a65565b6108bd33838360405180602001604052805f8152506118b6565b60608151835114610e115781518351604051635b05999160e01b815260048101929092526024820152604401610a65565b5f83516001600160401b03811115610e2b57610e2b6128e8565b604051908082528060200260200182016040528015610e54578160200160208202803683370190505b5090505f5b8451811015610ea257602080820286010151610e7d9060208084028701015161084b565b828281518110610e8f57610e8f6132f6565b6020908102919091010152600101610e59565b509392505050565b610eb2611b55565b610ebb82611bfb565b6108bd8282611c25565b5f610ece611ce1565b505f8051602061345783398151915290565b6001600160a01b0383163314801590610f005750610efe8333611436565b155b15610f3457335b60405163711bec9160e11b81526001600160a01b0391821660048201529084166024820152604401610a65565b610bb3838383611d2a565b5f80516020613477833981519152610f5681611873565b610d46611d6d565b606060035f8381526020819052604090205460ff166007811115610f8457610f84613137565b14610c895760405162461bcd60e51b8152602060048201526024808201527f43727970746f51756573743a20546f6b656e206973206e6f74206120636f736d6044820152636574696360e01b6064820152608401610a65565b5f9182525f805160206134d7833981519152602090815260408084206001600160a01b0393909316845291905290205460ff1690565b6108bd338383611db5565b60025f8481526020819052604090205460ff16600781111561104257611042613137565b1461108f5760405162461bcd60e51b815260206004820152601e60248201527f43727970746f51756573743a20546f6b656e206973206e6f74206c6f6f7400006044820152606401610a65565b8161109a338561084b565b10156110b85760405162461bcd60e51b8152600401610a65906132b5565b610bb33382858560405180602001604052805f815250611482565b60045f8281526020819052604090205460ff1660078111156110f7576110f7613137565b146111445760405162461bcd60e51b815260206004820152601e60248201527f43727970746f51756573743a20546f6b656e206973206e6f74206c616e6400006044820152606401610a65565b5f61114f338361084b565b11610d465760405162461bcd60e51b815260206004820152602560248201525f80516020613437833981519152604482015264081b185b9960da1b6064820152608401610a65565b806111a2338461084b565b10156108bd5760405162461bcd60e51b8152600401610a65906132b5565b606060065f8381526020819052604090205460ff1660078111156111e6576111e6613137565b146112445760405162461bcd60e51b815260206004820152602860248201527f43727970746f51756573743a20546f6b656e206973206e6f742061206775696c60448201526732103130b73732b960c11b6064820152608401610a65565b5f61124f338461084b565b11610c895760405162461bcd60e51b815260206004820152602d60248201525f8051602061343783398151915260448201526c1033bab4b632103130b73732b960991b6064820152608401610a65565b5f805160206134b78339815191526112b681611873565b825186511480156112c8575081518651145b6113325760405162461bcd60e51b815260206004820152603560248201527f43727970746f51756573743a204944732c2074797065732c20616e64206d65746044820152740c2c8c2e8c240d8cadccee8d040dad2e6dac2e8c6d605b1b6064820152608401610a65565b61133e87878787611e5a565b5f5b8651811015611410576040518060400160405280858381518110611366576113666132f6565b6020026020010151600781111561137f5761137f613137565b8152602001848381518110611396576113966132f6565b60200260200101518152505f808984815181106113b5576113b56132f6565b60209081029190910181015182528101919091526040015f2081518154829060ff191660018360078111156113ec576113ec613137565b02179055506020820151600182019061140590826131fb565b505050600101611340565b5050505050505050565b61142382610a1c565b61142c81611873565b610b7a8383611a7d565b6001600160a01b039182165f9081527f88be536d5240c274a3b1d3a1be54482fd9caa294f08c62a7cde569f49a3c45016020908152604080832093909416825291909152205460ff1690565b336001600160a01b03861681148015906114a357506114a18682611436565b155b156114d45760405163711bec9160e11b81526001600160a01b03808316600483015287166024820152604401610a65565b610b568686868686611e90565b6001600160a01b038316331480159061150157506114ff8333611436565b155b1561150c5733610f07565b610bb3838383611911565b7ff0c57e16840df040f15088dc2f81fe391c3923bec73e23a9662efc9c229c6a008054600160401b810460ff1615906001600160401b03165f8115801561155b5750825b90505f826001600160401b031660011480156115765750303b155b905081158015611584575080155b156115a25760405163f92ee8a960e01b815260040160405180910390fd5b845467ffffffffffffffff1916600117855583156115cc57845460ff60401b1916600160401b1785555b6115e360405180602001604052805f815250611f1c565b6115eb611f2d565b6115f3611f35565b6115fb611f2d565b611603611f2d565b61160b611f2d565b6116155f8a6119dc565b5061162d5f80516020613477833981519152896119dc565b506116455f805160206134b7833981519152886119dc565b506116707f189ab7a9244df0848122154315af71fe140f3db0fe014031783b0946b8c9d2e3876119dc565b5083156116b757845460ff60401b19168555604051600181527fc7f505b2f371ae2175ee4913f4499e1f2633a7b5936321eed1cdaeb6115181d29060200160405180910390a15b505050505050505050565b5f602081905290815260409020805460018201805460ff90921692916116e79061317f565b80601f01602080910402602001604051908101604052809291908181526020018280546117139061317f565b801561175e5780601f106117355761010080835404028352916020019161175e565b820191905f5260205f20905b81548152906001019060200180831161174157829003601f168201915b5050505050905082565b60075f8281526020819052604090205460ff16600781111561178c5761178c613137565b146117e95760405162461bcd60e51b815260206004820152602760248201527f43727970746f51756573743a20546f6b656e206973206e6f74206120717565736044820152663a103a37b5b2b760c91b6064820152608401610a65565b5f6117f4338361084b565b116118435760405162461bcd60e51b815260206004820152602c60248201525f8051602061343783398151915260448201526b1038bab2b9ba103a37b5b2b760a11b6064820152608401610a65565b610d4633826001611911565b5f6001600160e01b03198216637965db0b60e01b148061087a575061087a82611f45565b610d468133611f94565b5f805160206134978339815191527f88be536d5240c274a3b1d3a1be54482fd9caa294f08c62a7cde569f49a3c4502610bb383826131fb565b6001600160a01b0384166118df57604051632bfa23e760e11b81525f6004820152602401610a65565b60408051600180825260208201869052818301908152606082018590526080820190925290610b565f87848487611fcd565b6001600160a01b03831661193957604051626a0d4560e21b81525f6004820152602401610a65565b604080516001808252602082018590528183019081526060820184905260a082019092525f6080820181815291929161197791879185908590611fcd565b5050505050565b6001600160a01b0384166119a757604051632bfa23e760e11b81525f6004820152602401610a65565b6001600160a01b0385166119cf57604051626a0d4560e21b81525f6004820152602401610a65565b6119778585858585611fcd565b5f5f805160206134d78339815191526119f58484610fdd565b611a74575f848152602082815260408083206001600160a01b03871684529091529020805460ff19166001179055611a2a3390565b6001600160a01b0316836001600160a01b0316857f2f8788117e7eff1d82e926ec794901d17c78024a50270940304540a733656f0d60405160405180910390a4600191505061087a565b5f91505061087a565b5f5f805160206134d7833981519152611a968484610fdd565b15611a74575f848152602082815260408083206001600160a01b0387168085529252808320805460ff1916905551339287917ff6391f5c32d9c69d2a47ea670b442974b53935d1edc7fd64eb21e047a839171b9190a4600191505061087a565b611afe612020565b5f805160206134f7833981519152805460ff191681557f5db9ee0a495bf2e6ff9c91a7834c1ba4fdd244a5e8aa4e537bd38aeae4b073aa335b6040516001600160a01b03909116815260200160405180910390a150565b306001600160a01b037f0000000000000000000000000000000000000000000000000000000000000000161480611bdb57507f00000000000000000000000000000000000000000000000000000000000000006001600160a01b0316611bcf5f80516020613457833981519152546001600160a01b031690565b6001600160a01b031614155b15611bf95760405163703e46dd60e11b815260040160405180910390fd5b565b7f189ab7a9244df0848122154315af71fe140f3db0fe014031783b0946b8c9d2e36108bd81611873565b816001600160a01b03166352d1902d6040518163ffffffff1660e01b8152600401602060405180830381865afa925050508015611c7f575060408051601f3d908101601f19168201909252611c7c9181019061330a565b60015b611ca757604051634c9c8ce360e01b81526001600160a01b0383166004820152602401610a65565b5f805160206134578339815191528114611cd757604051632a87526960e21b815260048101829052602401610a65565b610bb3838361204f565b306001600160a01b037f00000000000000000000000000000000000000000000000000000000000000001614611bf95760405163703e46dd60e11b815260040160405180910390fd5b6001600160a01b038316611d5257604051626a0d4560e21b81525f6004820152602401610a65565b610bb3835f848460405180602001604052805f815250611fcd565b611d756120a4565b5f805160206134f7833981519152805460ff191660011781557f62e78cea01bee320cd4e420270b5ea74000d11b0c9f74754ebdbfc544b05a25833611b37565b5f805160206134978339815191526001600160a01b038316611deb5760405162ced3e160e81b81525f6004820152602401610a65565b6001600160a01b038481165f818152600184016020908152604080832094881680845294825291829020805460ff191687151590811790915591519182527f17307eab39ab6107e8899845ad3d59bd9653f200f220920489ca2b5937696c31910160405180910390a350505050565b6001600160a01b038416611e8357604051632bfa23e760e11b81525f6004820152602401610a65565b610b7a5f85858585611fcd565b6001600160a01b038416611eb957604051632bfa23e760e11b81525f6004820152602401610a65565b6001600160a01b038516611ee157604051626a0d4560e21b81525f6004820152602401610a65565b60408051600180825260208201869052818301908152606082018590526080820190925290611f138787848487611fcd565b50505050505050565b611f246120d4565b610d468161211d565b611bf96120d4565b611f3d6120d4565b611bf961212e565b5f6001600160e01b03198216636cdb3d1360e11b1480611f7557506001600160e01b031982166303a24d0760e21b145b8061087a57506301ffc9a760e01b6001600160e01b031983161461087a565b611f9e8282610fdd565b6108bd5760405163e2517d3f60e01b81526001600160a01b038216600482015260248101839052604401610a65565b611fd98585858561214e565b6001600160a01b038416156119775782513390600103612012576020848101519084015161200b83898985858961215a565b5050610b56565b610b5681878787878761227b565b5f805160206134f78339815191525460ff16611bf957604051638dfc202b60e01b815260040160405180910390fd5b61205882612362565b6040516001600160a01b038316907fbc7cd75a20ee27fd9adebab32041f755214dbc6bffa90cc0225b39da2e5c2d3b905f90a280511561209c57610bb382826123c5565b6108bd612437565b5f805160206134f78339815191525460ff1615611bf95760405163d93c066560e01b815260040160405180910390fd5b7ff0c57e16840df040f15088dc2f81fe391c3923bec73e23a9662efc9c229c6a0054600160401b900460ff16611bf957604051631afcd79f60e31b815260040160405180910390fd5b6121256120d4565b610d468161187d565b6121366120d4565b5f805160206134f7833981519152805460ff19169055565b610b7a84848484612456565b6001600160a01b0384163b15610b565760405163f23a6e6160e01b81526001600160a01b0385169063f23a6e619061219e9089908990889088908890600401613321565b6020604051808303815f875af19250505080156121d8575060408051601f3d908101601f191682019092526121d591810190613365565b60015b61223f573d808015612205576040519150601f19603f3d011682016040523d82523d5f602084013e61220a565b606091505b5080515f0361223757604051632bfa23e760e11b81526001600160a01b0386166004820152602401610a65565b805181602001fd5b6001600160e01b0319811663f23a6e6160e01b14611f1357604051632bfa23e760e11b81526001600160a01b0386166004820152602401610a65565b6001600160a01b0384163b15610b565760405163bc197c8160e01b81526001600160a01b0385169063bc197c81906122bf9089908990889088908890600401613380565b6020604051808303815f875af19250505080156122f9575060408051601f3d908101601f191682019092526122f691810190613365565b60015b612326573d808015612205576040519150601f19603f3d011682016040523d82523d5f602084013e61220a565b6001600160e01b0319811663bc197c8160e01b14611f1357604051632bfa23e760e11b81526001600160a01b0386166004820152602401610a65565b806001600160a01b03163b5f0361239757604051634c9c8ce360e01b81526001600160a01b0382166004820152602401610a65565b5f8051602061345783398151915280546001600160a01b0319166001600160a01b0392909216919091179055565b60605f80846001600160a01b0316846040516123e191906133dd565b5f60405180830381855af49150503d805f8114612419576040519150601f19603f3d011682016040523d82523d5f602084013e61241e565b606091505b509150915061242e8583836125ba565b95945050505050565b3415611bf95760405163b398979f60e01b815260040160405180910390fd5b7f4a593662ee04d27b6a00ebb31be7fe0c102c2ade82a7c5d764f2df05dc4e280061248385858585612619565b6001600160a01b03851661252a575f805b845181101561250f575f8482815181106124b0576124b06132f6565b6020026020010151905080845f015f8885815181106124d1576124d16132f6565b602002602001015181526020019081526020015f205f8282546124f491906133f3565b90915550612504905081846133f3565b925050600101612494565b5080826001015f82825461252391906133f3565b9091555050505b6001600160a01b038416611977575f805b84518110156125a6575f848281518110612557576125576132f6565b6020026020010151905080845f015f888581518110612578576125786132f6565b60209081029190910181015182528101919091526040015f208054919091039055919091019060010161253b565b506001820180549190910390555050505050565b6060826125cf576125ca8261262d565b612612565b81511580156125e657506001600160a01b0384163b155b1561260f57604051639996b31560e01b81526001600160a01b0385166004820152602401610a65565b50805b9392505050565b6126216120a4565b610b7a84848484612656565b80511561263d5780518082602001fd5b604051630a12f52160e11b815260040160405180910390fd5b805182515f8051602061349783398151915291146126945782518251604051635b05999160e01b815260048101929092526024820152604401610a65565b335f5b8451811015612796576020818102868101820151908601909101516001600160a01b03891615612748575f828152602086815260408083206001600160a01b038d16845290915290205481811015612722576040516303dee4c560e01b81526001600160a01b038b166004820152602481018290526044810183905260648101849052608401610a65565b5f838152602087815260408083206001600160a01b038e16845290915290209082900390555b6001600160a01b0388161561278c575f828152602086815260408083206001600160a01b038c168452909152812080548392906127869084906133f3565b90915550505b5050600101612697565b5083516001036128165760208401515f906020850151909150866001600160a01b0316886001600160a01b0316846001600160a01b03167fc3d58168c5ae7397731d063d5bbf3d657854427343f4c083240f7aacaa2d0f628585604051612807929190918252602082015260400190565b60405180910390a45050610b56565b846001600160a01b0316866001600160a01b0316826001600160a01b03167f4a39dc06d4c0dbc64b70af90fd698a233a518aa5d07e595d983b8c0526c8f7fb8787604051612865929190613412565b60405180910390a4505050505050565b80356001600160a01b038116811461288b575f80fd5b919050565b5f80604083850312156128a1575f80fd5b6128aa83612875565b946020939093013593505050565b6001600160e01b031981168114610d46575f80fd5b5f602082840312156128dd575f80fd5b8135612612816128b8565b634e487b7160e01b5f52604160045260245ffd5b604051601f8201601f191681016001600160401b0381118282101715612924576129246128e8565b604052919050565b5f82601f83011261293b575f80fd5b8135602083015f806001600160401b0384111561295a5761295a6128e8565b50601f8301601f191660200161296f816128fc565b915050828152858383011115612983575f80fd5b828260208301375f92810160200192909252509392505050565b5f602082840312156129ad575f80fd5b81356001600160401b038111156129c2575f80fd5b6129ce8482850161292c565b949350505050565b80356008811061288b575f80fd5b5f805f805f8060c087890312156129f9575f80fd5b612a0287612875565b9550602087013594506040870135935060608701356001600160401b03811115612a2a575f80fd5b612a3689828a0161292c565b935050612a45608088016129d6565b915060a08701356001600160401b03811115612a5f575f80fd5b612a6b89828a0161292c565b9150509295509295509295565b5f60208284031215612a88575f80fd5b5035919050565b5f81518084528060208401602086015e5f602082860101526020601f19601f83011685010191505092915050565b602081525f6126126020830184612a8f565b5f8060408385031215612ae0575f80fd5b50508035926020909101359150565b5f6001600160401b03821115612b0757612b076128e8565b5060051b60200190565b5f82601f830112612b20575f80fd5b8135612b33612b2e82612aef565b6128fc565b8082825260208201915060208360051b860101925085831115612b54575f80fd5b602085015b83811015612b71578035835260209283019201612b59565b5095945050505050565b5f805f805f60a08688031215612b8f575f80fd5b612b9886612875565b9450612ba660208701612875565b935060408601356001600160401b03811115612bc0575f80fd5b612bcc88828901612b11565b93505060608601356001600160401b03811115612be7575f80fd5b612bf388828901612b11565b92505060808601356001600160401b03811115612c0e575f80fd5b612c1a8882890161292c565b9150509295509295909350565b5f8060408385031215612c38575f80fd5b82359150612c4860208401612875565b90509250929050565b5f8060408385031215612c62575f80fd5b82356001600160401b03811115612c77575f80fd5b8301601f81018513612c87575f80fd5b8035612c95612b2e82612aef565b8082825260208201915060208360051b850101925087831115612cb6575f80fd5b6020840193505b82841015612cdf57612cce84612875565b825260209384019390910190612cbd565b945050505060208301356001600160401b03811115612cfc575f80fd5b612d0885828601612b11565b9150509250929050565b5f8151808452602084019350602083015f5b82811015612d42578151865260209586019590910190600101612d24565b5093949350505050565b602081525f6126126020830184612d12565b5f8060408385031215612d6f575f80fd5b612d7883612875565b915060208301356001600160401b03811115612d92575f80fd5b612d088582860161292c565b5f805f60608486031215612db0575f80fd5b612db984612875565b925060208401356001600160401b03811115612dd3575f80fd5b612ddf86828701612b11565b92505060408401356001600160401b03811115612dfa575f80fd5b612e0686828701612b11565b9150509250925092565b5f8060408385031215612e21575f80fd5b612e2a83612875565b915060208301358015158114612e3e575f80fd5b809150509250929050565b5f805f60608486031215612e5b575f80fd5b8335925060208401359150612e7260408501612875565b90509250925092565b5f82601f830112612e8a575f80fd5b8135612e98612b2e82612aef565b8082825260208201915060208360051b860101925085831115612eb9575f80fd5b602085015b83811015612b7157612ecf816129d6565b835260209283019201612ebe565b5f82601f830112612eec575f80fd5b8135612efa612b2e82612aef565b8082825260208201915060208360051b860101925085831115612f1b575f80fd5b602085015b83811015612b715780356001600160401b03811115612f3d575f80fd5b612f4c886020838a010161292c565b84525060209283019201612f20565b5f805f805f8060c08789031215612f70575f80fd5b612f7987612875565b955060208701356001600160401b03811115612f93575f80fd5b612f9f89828a01612b11565b95505060408701356001600160401b03811115612fba575f80fd5b612fc689828a01612b11565b94505060608701356001600160401b03811115612fe1575f80fd5b612fed89828a0161292c565b93505060808701356001600160401b03811115613008575f80fd5b61301489828a01612e7b565b92505060a08701356001600160401b0381111561302f575f80fd5b612a6b89828a01612edd565b5f806040838503121561304c575f80fd5b61305583612875565b9150612c4860208401612875565b5f805f805f60a08688031215613077575f80fd5b61308086612875565b945061308e60208701612875565b9350604086013592506060860135915060808601356001600160401b03811115612c0e575f80fd5b5f805f606084860312156130c8575f80fd5b6130d184612875565b95602085013595506040909401359392505050565b5f805f80608085870312156130f9575f80fd5b61310285612875565b935061311060208601612875565b925061311e60408601612875565b915061312c60608601612875565b905092959194509250565b634e487b7160e01b5f52602160045260245ffd5b5f6008841061316857634e487b7160e01b5f52602160045260245ffd5b838252604060208301526129ce6040830184612a8f565b600181811c9082168061319357607f821691505b6020821081036131b157634e487b7160e01b5f52602260045260245ffd5b50919050565b601f821115610bb357805f5260205f20601f840160051c810160208510156131dc5750805b601f840160051c820191505b81811015611977575f81556001016131e8565b81516001600160401b03811115613214576132146128e8565b61322881613222845461317f565b846131b7565b6020601f82116001811461325a575f83156132435750848201515b5f19600385901b1c1916600184901b178455611977565b5f84815260208120601f198516915b828110156132895787850151825560209485019460019092019101613269565b50848210156132a657868401515f19600387901b60f8161c191681555b50505050600190811b01905550565b60208082526021908201527f43727970746f51756573743a20496e73756666696369656e742062616c616e636040820152606560f81b606082015260800190565b634e487b7160e01b5f52603260045260245ffd5b5f6020828403121561331a575f80fd5b5051919050565b6001600160a01b03868116825285166020820152604081018490526060810183905260a0608082018190525f9061335a90830184612a8f565b979650505050505050565b5f60208284031215613375575f80fd5b8151612612816128b8565b6001600160a01b0386811682528516602082015260a0604082018190525f906133ab90830186612d12565b82810360608401526133bd8186612d12565b905082810360808401526133d18185612a8f565b98975050505050505050565b5f82518060208501845e5f920191825250919050565b8082018082111561087a57634e487b7160e01b5f52601160045260245ffd5b604081525f6134246040830185612d12565b828103602084015261242e8185612d1256fe43727970746f51756573743a20596f7520646f206e6f74206f776e2074686973360894a13ba1a3210667c828492db98dca3e2076cc3735a920a3ca505d382bbc65d7a28e3265b37a6474929f336521b332c1681b933f6cb9f3376673440d862a88be536d5240c274a3b1d3a1be54482fd9caa294f08c62a7cde569f49a3c45009f2df0fed2c77648de5860a4cc508cd0818c85b8b8a1ab4ceeef8d981c8956a602dd7bc7dec4dceedda775e58dd541e08a116c6c53815c0bd028192f7b626800cd5ed15c6e187e77e9aee88184c21f4f2182ab5827cb3b7e07fbedcd63f03300a2646970667358221220eb5db71c049910d41b834d49659bab3b8a6d3cbe05c594625baf0659890b56cc64736f6c634300081a0033",
			"opcodes": "PUSH1 0xA0 PUSH1 0x40 MSTORE ADDRESS PUSH1 0x80 MSTORE CALLVALUE DUP1 ISZERO PUSH2 0x13 JUMPI PUSH0 DUP1 REVERT JUMPDEST POP PUSH2 0x1C PUSH2 0x21 JUMP JUMPDEST PUSH2 0xD3 JUMP JUMPDEST PUSH32 0xF0C57E16840DF040F15088DC2F81FE391C3923BEC73E23A9662EFC9C229C6A00 DUP1 SLOAD PUSH9 0x10000000000000000 SWAP1 DIV PUSH1 0xFF AND ISZERO PUSH2 0x71 JUMPI PUSH1 0x40 MLOAD PUSH4 0xF92EE8A9 PUSH1 0xE0 SHL DUP2 MSTORE PUSH1 0x4 ADD PUSH1 0x40 MLOAD DUP1 SWAP2 SUB SWAP1 REVERT JUMPDEST DUP1 SLOAD PUSH1 0x1 PUSH1 0x1 PUSH1 0x40 SHL SUB SWAP1 DUP2 AND EQ PUSH2 0xD0 JUMPI DUP1 SLOAD PUSH1 0x1 PUSH1 0x1 PUSH1 0x40 SHL SUB NOT AND PUSH1 0x1 PUSH1 0x1 PUSH1 0x40 SHL SUB SWAP1 DUP2 OR DUP3 SSTORE PUSH1 0x40 MLOAD SWAP1 DUP2 MSTORE PUSH32 0xC7F505B2F371AE2175EE4913F4499E1F2633A7B5936321EED1CDAEB6115181D2 SWAP1 PUSH1 0x20 ADD PUSH1 0x40 MLOAD DUP1 SWAP2 SUB SWAP1 LOG1 JUMPDEST POP JUMP JUMPDEST PUSH1 0x80 MLOAD PUSH2 0x354C PUSH2 0xF9 PUSH0 CODECOPY PUSH0 DUP2 DUP2 PUSH2 0x1B60 ADD MSTORE DUP2 DUP2 PUSH2 0x1B89 ADD MSTORE PUSH2 0x1CEC ADD MSTORE PUSH2 0x354C PUSH0 RETURN INVALID PUSH1 0x80 PUSH1 0x40 MSTORE PUSH1 0x4 CALLDATASIZE LT PUSH2 0x253 JUMPI PUSH0 CALLDATALOAD PUSH1 0xE0 SHR DUP1 PUSH4 0x8456CB59 GT PUSH2 0x13F JUMPI DUP1 PUSH4 0xC9F1F64A GT PUSH2 0xB3 JUMPI DUP1 PUSH4 0xF242432A GT PUSH2 0x78 JUMPI DUP1 PUSH4 0xF242432A EQ PUSH2 0x76F JUMPI DUP1 PUSH4 0xF5298ACA EQ PUSH2 0x78E JUMPI DUP1 PUSH4 0xF72C0D8B EQ PUSH2 0x7AD JUMPI DUP1 PUSH4 0xF8C8765E EQ PUSH2 0x7E0 JUMPI DUP1 PUSH4 0xFC314E31 EQ PUSH2 0x7FF JUMPI DUP1 PUSH4 0xFDC76445 EQ PUSH2 0x82C JUMPI PUSH0 DUP1 REVERT JUMPDEST DUP1 PUSH4 0xC9F1F64A EQ PUSH2 0x6D2 JUMPI DUP1 PUSH4 0xD5391393 EQ PUSH2 0x6F1 JUMPI DUP1 PUSH4 0xD547741F EQ PUSH2 0x711 JUMPI DUP1 PUSH4 0xE63AB1E9 EQ PUSH2 0x730 JUMPI DUP1 PUSH4 0xE985E9C5 EQ PUSH2 0x750 JUMPI PUSH0 DUP1 REVERT JUMPDEST DUP1 PUSH4 0xAD3CB1CC GT PUSH2 0x104 JUMPI DUP1 PUSH4 0xAD3CB1CC EQ PUSH2 0x5DC JUMPI DUP1 PUSH4 0xBD85B039 EQ PUSH2 0x60C JUMPI DUP1 PUSH4 0xBE0FB9C1 EQ PUSH2 0x656 JUMPI DUP1 PUSH4 0xBF191129 EQ PUSH2 0x675 JUMPI DUP1 PUSH4 0xC4100DED EQ PUSH2 0x694 JUMPI DUP1 PUSH4 0xC521829C EQ PUSH2 0x6B3 JUMPI PUSH0 DUP1 REVERT JUMPDEST DUP1 PUSH4 0x8456CB59 EQ PUSH2 0x558 JUMPI DUP1 PUSH4 0x86261532 EQ PUSH2 0x56C JUMPI DUP1 PUSH4 0x91D14854 EQ PUSH2 0x58B JUMPI DUP1 PUSH4 0xA217FDDF EQ PUSH2 0x5AA JUMPI DUP1 PUSH4 0xA22CB465 EQ PUSH2 0x5BD JUMPI PUSH0 DUP1 REVERT JUMPDEST DUP1 PUSH4 0x36568ABE GT PUSH2 0x1D6 JUMPI DUP1 PUSH4 0x4F1EF286 GT PUSH2 0x19B JUMPI DUP1 PUSH4 0x4F1EF286 EQ PUSH2 0x470 JUMPI DUP1 PUSH4 0x4F558E79 EQ PUSH2 0x483 JUMPI DUP1 PUSH4 0x52D1902D EQ PUSH2 0x4CF JUMPI DUP1 PUSH4 0x5C975ABB EQ PUSH2 0x4E3 JUMPI DUP1 PUSH4 0x6B20C454 EQ PUSH2 0x506 JUMPI DUP1 PUSH4 0x7F345710 EQ PUSH2 0x525 JUMPI PUSH0 DUP1 REVERT JUMPDEST DUP1 PUSH4 0x36568ABE EQ PUSH2 0x3D3 JUMPI DUP1 PUSH4 0x3845B693 EQ PUSH2 0x3F2 JUMPI DUP1 PUSH4 0x3F4BA83A EQ PUSH2 0x411 JUMPI DUP1 PUSH4 0x475D2807 EQ PUSH2 0x425 JUMPI DUP1 PUSH4 0x4E1273F4 EQ PUSH2 0x444 JUMPI PUSH0 DUP1 REVERT JUMPDEST DUP1 PUSH4 0x18160DDD GT PUSH2 0x21C JUMPI DUP1 PUSH4 0x18160DDD EQ PUSH2 0x324 JUMPI DUP1 PUSH4 0x248A9CA3 EQ PUSH2 0x357 JUMPI DUP1 PUSH4 0x2DE8EB9A EQ PUSH2 0x376 JUMPI DUP1 PUSH4 0x2EB2C2D6 EQ PUSH2 0x395 JUMPI DUP1 PUSH4 0x2F2FF15D EQ PUSH2 0x3B4 JUMPI PUSH0 DUP1 REVERT JUMPDEST DUP1 PUSH3 0xFDD58E EQ PUSH2 0x257 JUMPI DUP1 PUSH4 0x1FFC9A7 EQ PUSH2 0x289 JUMPI DUP1 PUSH4 0x2FE5305 EQ PUSH2 0x2B8 JUMPI DUP1 PUSH4 0xD030C00 EQ PUSH2 0x2D9 JUMPI DUP1 PUSH4 0xE89341C EQ PUSH2 0x2F8 JUMPI JUMPDEST PUSH0 DUP1 REVERT JUMPDEST CALLVALUE DUP1 ISZERO PUSH2 0x262 JUMPI PUSH0 DUP1 REVERT JUMPDEST POP PUSH2 0x276 PUSH2 0x271 CALLDATASIZE PUSH1 0x4 PUSH2 0x2890 JUMP JUMPDEST PUSH2 0x84B JUMP JUMPDEST PUSH1 0x40 MLOAD SWAP1 DUP2 MSTORE PUSH1 0x20 ADD JUMPDEST PUSH1 0x40 MLOAD DUP1 SWAP2 SUB SWAP1 RETURN JUMPDEST CALLVALUE DUP1 ISZERO PUSH2 0x294 JUMPI PUSH0 DUP1 REVERT JUMPDEST POP PUSH2 0x2A8 PUSH2 0x2A3 CALLDATASIZE PUSH1 0x4 PUSH2 0x28CD JUMP JUMPDEST PUSH2 0x880 JUMP JUMPDEST PUSH1 0x40 MLOAD SWAP1 ISZERO ISZERO DUP2 MSTORE PUSH1 0x20 ADD PUSH2 0x280 JUMP JUMPDEST CALLVALUE DUP1 ISZERO PUSH2 0x2C3 JUMPI PUSH0 DUP1 REVERT JUMPDEST POP PUSH2 0x2D7 PUSH2 0x2D2 CALLDATASIZE PUSH1 0x4 PUSH2 0x299D JUMP JUMPDEST PUSH2 0x88A JUMP JUMPDEST STOP JUMPDEST CALLVALUE DUP1 ISZERO PUSH2 0x2E4 JUMPI PUSH0 DUP1 REVERT JUMPDEST POP PUSH2 0x2D7 PUSH2 0x2F3 CALLDATASIZE PUSH1 0x4 PUSH2 0x29E4 JUMP JUMPDEST PUSH2 0x8C1 JUMP JUMPDEST CALLVALUE DUP1 ISZERO PUSH2 0x303 JUMPI PUSH0 DUP1 REVERT JUMPDEST POP PUSH2 0x317 PUSH2 0x312 CALLDATASIZE PUSH1 0x4 PUSH2 0x2A78 JUMP JUMPDEST PUSH2 0x95A JUMP JUMPDEST PUSH1 0x40 MLOAD PUSH2 0x280 SWAP2 SWAP1 PUSH2 0x2ABD JUMP JUMPDEST CALLVALUE DUP1 ISZERO PUSH2 0x32F JUMPI PUSH0 DUP1 REVERT JUMPDEST POP PUSH32 0x4A593662EE04D27B6A00EBB31BE7FE0C102C2ADE82A7C5D764F2DF05DC4E2801 SLOAD PUSH2 0x276 JUMP JUMPDEST CALLVALUE DUP1 ISZERO PUSH2 0x362 JUMPI PUSH0 DUP1 REVERT JUMPDEST POP PUSH2 0x276 PUSH2 0x371 CALLDATASIZE PUSH1 0x4 PUSH2 0x2A78 JUMP JUMPDEST PUSH2 0xA1C JUMP JUMPDEST CALLVALUE DUP1 ISZERO PUSH2 0x381 JUMPI PUSH0 DUP1 REVERT JUMPDEST POP PUSH2 0x2D7 PUSH2 0x390 CALLDATASIZE PUSH1 0x4 PUSH2 0x2ACF JUMP JUMPDEST PUSH2 0xA3C JUMP JUMPDEST CALLVALUE DUP1 ISZERO PUSH2 0x3A0 JUMPI PUSH0 DUP1 REVERT JUMPDEST POP PUSH2 0x2D7 PUSH2 0x3AF CALLDATASIZE PUSH1 0x4 PUSH2 0x2B7B JUMP JUMPDEST PUSH2 0xAF7 JUMP JUMPDEST CALLVALUE DUP1 ISZERO PUSH2 0x3BF JUMPI PUSH0 DUP1 REVERT JUMPDEST POP PUSH2 0x2D7 PUSH2 0x3CE CALLDATASIZE PUSH1 0x4 PUSH2 0x2C27 JUMP JUMPDEST PUSH2 0xB5E JUMP JUMPDEST CALLVALUE DUP1 ISZERO PUSH2 0x3DE JUMPI PUSH0 DUP1 REVERT JUMPDEST POP PUSH2 0x2D7 PUSH2 0x3ED CALLDATASIZE PUSH1 0x4 PUSH2 0x2C27 JUMP JUMPDEST PUSH2 0xB80 JUMP JUMPDEST CALLVALUE DUP1 ISZERO PUSH2 0x3FD JUMPI PUSH0 DUP1 REVERT JUMPDEST POP PUSH2 0x317 PUSH2 0x40C CALLDATASIZE PUSH1 0x4 PUSH2 0x2A78 JUMP JUMPDEST PUSH2 0xBB8 JUMP JUMPDEST CALLVALUE DUP1 ISZERO PUSH2 0x41C JUMPI PUSH0 DUP1 REVERT JUMPDEST POP PUSH2 0x2D7 PUSH2 0xD27 JUMP JUMPDEST CALLVALUE DUP1 ISZERO PUSH2 0x430 JUMPI PUSH0 DUP1 REVERT JUMPDEST POP PUSH2 0x2D7 PUSH2 0x43F CALLDATASIZE PUSH1 0x4 PUSH2 0x2ACF JUMP JUMPDEST PUSH2 0xD49 JUMP JUMPDEST CALLVALUE DUP1 ISZERO PUSH2 0x44F JUMPI PUSH0 DUP1 REVERT JUMPDEST POP PUSH2 0x463 PUSH2 0x45E CALLDATASIZE PUSH1 0x4 PUSH2 0x2C51 JUMP JUMPDEST PUSH2 0xDE0 JUMP JUMPDEST PUSH1 0x40 MLOAD PUSH2 0x280 SWAP2 SWAP1 PUSH2 0x2D4C JUMP JUMPDEST PUSH2 0x2D7 PUSH2 0x47E CALLDATASIZE PUSH1 0x4 PUSH2 0x2D5E JUMP JUMPDEST PUSH2 0xEAA JUMP JUMPDEST CALLVALUE DUP1 ISZERO PUSH2 0x48E JUMPI PUSH0 DUP1 REVERT JUMPDEST POP PUSH2 0x2A8 PUSH2 0x49D CALLDATASIZE PUSH1 0x4 PUSH2 0x2A78 JUMP JUMPDEST PUSH0 SWAP1 DUP2 MSTORE PUSH32 0x4A593662EE04D27B6A00EBB31BE7FE0C102C2ADE82A7C5D764F2DF05DC4E2800 PUSH1 0x20 MSTORE PUSH1 0x40 SWAP1 KECCAK256 SLOAD ISZERO ISZERO SWAP1 JUMP JUMPDEST CALLVALUE DUP1 ISZERO PUSH2 0x4DA JUMPI PUSH0 DUP1 REVERT JUMPDEST POP PUSH2 0x276 PUSH2 0xEC5 JUMP JUMPDEST CALLVALUE DUP1 ISZERO PUSH2 0x4EE JUMPI PUSH0 DUP1 REVERT JUMPDEST POP PUSH0 DUP1 MLOAD PUSH1 0x20 PUSH2 0x34F7 DUP4 CODECOPY DUP2 MLOAD SWAP2 MSTORE SLOAD PUSH1 0xFF AND PUSH2 0x2A8 JUMP JUMPDEST CALLVALUE DUP1 ISZERO PUSH2 0x511 JUMPI PUSH0 DUP1 REVERT JUMPDEST POP PUSH2 0x2D7 PUSH2 0x520 CALLDATASIZE PUSH1 0x4 PUSH2 0x2D9E JUMP JUMPDEST PUSH2 0xEE0 JUMP JUMPDEST CALLVALUE DUP1 ISZERO PUSH2 0x530 JUMPI PUSH0 DUP1 REVERT JUMPDEST POP PUSH2 0x276 PUSH32 0x7804D923F43A17D325D77E781528E0793B2EDD9890AB45FC64EFD7B4B427744C DUP2 JUMP JUMPDEST CALLVALUE DUP1 ISZERO PUSH2 0x563 JUMPI PUSH0 DUP1 REVERT JUMPDEST POP PUSH2 0x2D7 PUSH2 0xF3F JUMP JUMPDEST CALLVALUE DUP1 ISZERO PUSH2 0x577 JUMPI PUSH0 DUP1 REVERT JUMPDEST POP PUSH2 0x317 PUSH2 0x586 CALLDATASIZE PUSH1 0x4 PUSH2 0x2A78 JUMP JUMPDEST PUSH2 0xF5E JUMP JUMPDEST CALLVALUE DUP1 ISZERO PUSH2 0x596 JUMPI PUSH0 DUP1 REVERT JUMPDEST POP PUSH2 0x2A8 PUSH2 0x5A5 CALLDATASIZE PUSH1 0x4 PUSH2 0x2C27 JUMP JUMPDEST PUSH2 0xFDD JUMP JUMPDEST CALLVALUE DUP1 ISZERO PUSH2 0x5B5 JUMPI PUSH0 DUP1 REVERT JUMPDEST POP PUSH2 0x276 PUSH0 DUP2 JUMP JUMPDEST CALLVALUE DUP1 ISZERO PUSH2 0x5C8 JUMPI PUSH0 DUP1 REVERT JUMPDEST POP PUSH2 0x2D7 PUSH2 0x5D7 CALLDATASIZE PUSH1 0x4 PUSH2 0x2E10 JUMP JUMPDEST PUSH2 0x1013 JUMP JUMPDEST CALLVALUE DUP1 ISZERO PUSH2 0x5E7 JUMPI PUSH0 DUP1 REVERT JUMPDEST POP PUSH2 0x317 PUSH1 0x40 MLOAD DUP1 PUSH1 0x40 ADD PUSH1 0x40 MSTORE DUP1 PUSH1 0x5 DUP2 MSTORE PUSH1 0x20 ADD PUSH5 0x352E302E3 PUSH1 0xDC SHL DUP2 MSTORE POP DUP2 JUMP JUMPDEST CALLVALUE DUP1 ISZERO PUSH2 0x617 JUMPI PUSH0 DUP1 REVERT JUMPDEST POP PUSH2 0x276 PUSH2 0x626 CALLDATASIZE PUSH1 0x4 PUSH2 0x2A78 JUMP JUMPDEST PUSH0 SWAP1 DUP2 MSTORE PUSH32 0x4A593662EE04D27B6A00EBB31BE7FE0C102C2ADE82A7C5D764F2DF05DC4E2800 PUSH1 0x20 MSTORE PUSH1 0x40 SWAP1 KECCAK256 SLOAD SWAP1 JUMP JUMPDEST CALLVALUE DUP1 ISZERO PUSH2 0x661 JUMPI PUSH0 DUP1 REVERT JUMPDEST POP PUSH2 0x2D7 PUSH2 0x670 CALLDATASIZE PUSH1 0x4 PUSH2 0x2E49 JUMP JUMPDEST PUSH2 0x101E JUMP JUMPDEST CALLVALUE DUP1 ISZERO PUSH2 0x680 JUMPI PUSH0 DUP1 REVERT JUMPDEST POP PUSH2 0x2D7 PUSH2 0x68F CALLDATASIZE PUSH1 0x4 PUSH2 0x2A78 JUMP JUMPDEST PUSH2 0x10D3 JUMP JUMPDEST CALLVALUE DUP1 ISZERO PUSH2 0x69F JUMPI PUSH0 DUP1 REVERT JUMPDEST POP PUSH2 0x2D7 PUSH2 0x6AE CALLDATASIZE PUSH1 0x4 PUSH2 0x2ACF JUMP JUMPDEST PUSH2 0x1197 JUMP JUMPDEST CALLVALUE DUP1 ISZERO PUSH2 0x6BE JUMPI PUSH0 DUP1 REVERT JUMPDEST POP PUSH2 0x317 PUSH2 0x6CD CALLDATASIZE PUSH1 0x4 PUSH2 0x2A78 JUMP JUMPDEST PUSH2 0x11C0 JUMP JUMPDEST CALLVALUE DUP1 ISZERO PUSH2 0x6DD JUMPI PUSH0 DUP1 REVERT JUMPDEST POP PUSH2 0x2D7 PUSH2 0x6EC CALLDATASIZE PUSH1 0x4 PUSH2 0x2F5B JUMP JUMPDEST PUSH2 0x129F JUMP JUMPDEST CALLVALUE DUP1 ISZERO PUSH2 0x6FC JUMPI PUSH0 DUP1 REVERT JUMPDEST POP PUSH2 0x276 PUSH0 DUP1 MLOAD PUSH1 0x20 PUSH2 0x34B7 DUP4 CODECOPY DUP2 MLOAD SWAP2 MSTORE DUP2 JUMP JUMPDEST CALLVALUE DUP1 ISZERO PUSH2 0x71C JUMPI PUSH0 DUP1 REVERT JUMPDEST POP PUSH2 0x2D7 PUSH2 0x72B CALLDATASIZE PUSH1 0x4 PUSH2 0x2C27 JUMP JUMPDEST PUSH2 0x141A JUMP JUMPDEST CALLVALUE DUP1 ISZERO PUSH2 0x73B JUMPI PUSH0 DUP1 REVERT JUMPDEST POP PUSH2 0x276 PUSH0 DUP1 MLOAD PUSH1 0x20 PUSH2 0x3477 DUP4 CODECOPY DUP2 MLOAD SWAP2 MSTORE DUP2 JUMP JUMPDEST CALLVALUE DUP1 ISZERO PUSH2 0x75B JUMPI PUSH0 DUP1 REVERT JUMPDEST POP PUSH2 0x2A8 PUSH2 0x76A CALLDATASIZE PUSH1 0x4 PUSH2 0x303B JUMP JUMPDEST PUSH2 0x1436 JUMP JUMPDEST CALLVALUE DUP1 ISZERO PUSH2 0x77A JUMPI PUSH0 DUP1 REVERT JUMPDEST POP PUSH2 0x2D7 PUSH2 0x789 CALLDATASIZE PUSH1 0x4 PUSH2 0x3063 JUMP JUMPDEST PUSH2 0x1482 JUMP JUMPDEST CALLVALUE DUP1 ISZERO PUSH2 0x799 JUMPI PUSH0 DUP1 REVERT JUMPDEST POP PUSH2 0x2D7 PUSH2 0x7A8 CALLDATASIZE PUSH1 0x4 PUSH2 0x30B6 JUMP JUMPDEST PUSH2 0x14E1 JUMP JUMPDEST CALLVALUE DUP1 ISZERO PUSH2 0x7B8 JUMPI PUSH0 DUP1 REVERT JUMPDEST POP PUSH2 0x276 PUSH32 0x189AB7A9244DF0848122154315AF71FE140F3DB0FE014031783B0946B8C9D2E3 DUP2 JUMP JUMPDEST CALLVALUE DUP1 ISZERO PUSH2 0x7EB JUMPI PUSH0 DUP1 REVERT JUMPDEST POP PUSH2 0x2D7 PUSH2 0x7FA CALLDATASIZE PUSH1 0x4 PUSH2 0x30E6 JUMP JUMPDEST PUSH2 0x1517 JUMP JUMPDEST CALLVALUE DUP1 ISZERO PUSH2 0x80A JUMPI PUSH0 DUP1 REVERT JUMPDEST POP PUSH2 0x81E PUSH2 0x819 CALLDATASIZE PUSH1 0x4 PUSH2 0x2A78 JUMP JUMPDEST PUSH2 0x16C2 JUMP JUMPDEST PUSH1 0x40 MLOAD PUSH2 0x280 SWAP3 SWAP2 SWAP1 PUSH2 0x314B JUMP JUMPDEST CALLVALUE DUP1 ISZERO PUSH2 0x837 JUMPI PUSH0 DUP1 REVERT JUMPDEST POP PUSH2 0x2D7 PUSH2 0x846 CALLDATASIZE PUSH1 0x4 PUSH2 0x2A78 JUMP JUMPDEST PUSH2 0x1768 JUMP JUMPDEST PUSH0 DUP2 DUP2 MSTORE PUSH0 DUP1 MLOAD PUSH1 0x20 PUSH2 0x3497 DUP4 CODECOPY DUP2 MLOAD SWAP2 MSTORE PUSH1 0x20 SWAP1 DUP2 MSTORE PUSH1 0x40 DUP1 DUP4 KECCAK256 PUSH1 0x1 PUSH1 0x1 PUSH1 0xA0 SHL SUB DUP7 AND DUP5 MSTORE SWAP1 SWAP2 MSTORE SWAP1 KECCAK256 SLOAD JUMPDEST SWAP3 SWAP2 POP POP JUMP JUMPDEST PUSH0 PUSH2 0x87A DUP3 PUSH2 0x184F JUMP JUMPDEST PUSH32 0x7804D923F43A17D325D77E781528E0793B2EDD9890AB45FC64EFD7B4B427744C PUSH2 0x8B4 DUP2 PUSH2 0x1873 JUMP JUMPDEST PUSH2 0x8BD DUP3 PUSH2 0x187D JUMP JUMPDEST POP POP JUMP JUMPDEST PUSH0 DUP1 MLOAD PUSH1 0x20 PUSH2 0x34B7 DUP4 CODECOPY DUP2 MLOAD SWAP2 MSTORE PUSH2 0x8D8 DUP2 PUSH2 0x1873 JUMP JUMPDEST PUSH2 0x8E4 DUP8 DUP8 DUP8 DUP8 PUSH2 0x18B6 JUMP JUMPDEST PUSH1 0x40 MLOAD DUP1 PUSH1 0x40 ADD PUSH1 0x40 MSTORE DUP1 DUP5 PUSH1 0x7 DUP2 GT ISZERO PUSH2 0x901 JUMPI PUSH2 0x901 PUSH2 0x3137 JUMP JUMPDEST DUP2 MSTORE PUSH1 0x20 SWAP1 DUP2 ADD DUP5 SWAP1 MSTORE PUSH0 DUP9 DUP2 MSTORE SWAP1 DUP2 SWAP1 MSTORE PUSH1 0x40 SWAP1 KECCAK256 DUP2 MLOAD DUP2 SLOAD DUP3 SWAP1 PUSH1 0xFF NOT AND PUSH1 0x1 DUP4 PUSH1 0x7 DUP2 GT ISZERO PUSH2 0x935 JUMPI PUSH2 0x935 PUSH2 0x3137 JUMP JUMPDEST MUL OR SWAP1 SSTORE POP PUSH1 0x20 DUP3 ADD MLOAD PUSH1 0x1 DUP3 ADD SWAP1 PUSH2 0x94E SWAP1 DUP3 PUSH2 0x31FB JUMP JUMPDEST POP POP POP POP POP POP POP POP POP POP JUMP JUMPDEST PUSH32 0x88BE536D5240C274A3B1D3A1BE54482FD9CAA294F08C62A7CDE569F49A3C4502 DUP1 SLOAD PUSH1 0x60 SWAP2 PUSH0 DUP1 MLOAD PUSH1 0x20 PUSH2 0x3497 DUP4 CODECOPY DUP2 MLOAD SWAP2 MSTORE SWAP2 PUSH2 0x998 SWAP1 PUSH2 0x317F JUMP JUMPDEST DUP1 PUSH1 0x1F ADD PUSH1 0x20 DUP1 SWAP2 DIV MUL PUSH1 0x20 ADD PUSH1 0x40 MLOAD SWAP1 DUP2 ADD PUSH1 0x40 MSTORE DUP1 SWAP3 SWAP2 SWAP1 DUP2 DUP2 MSTORE PUSH1 0x20 ADD DUP3 DUP1 SLOAD PUSH2 0x9C4 SWAP1 PUSH2 0x317F JUMP JUMPDEST DUP1 ISZERO PUSH2 0xA0F JUMPI DUP1 PUSH1 0x1F LT PUSH2 0x9E6 JUMPI PUSH2 0x100 DUP1 DUP4 SLOAD DIV MUL DUP4 MSTORE SWAP2 PUSH1 0x20 ADD SWAP2 PUSH2 0xA0F JUMP JUMPDEST DUP3 ADD SWAP2 SWAP1 PUSH0 MSTORE PUSH1 0x20 PUSH0 KECCAK256 SWAP1 JUMPDEST DUP2 SLOAD DUP2 MSTORE SWAP1 PUSH1 0x1 ADD SWAP1 PUSH1 0x20 ADD DUP1 DUP4 GT PUSH2 0x9F2 JUMPI DUP3 SWAP1 SUB PUSH1 0x1F AND DUP3 ADD SWAP2 JUMPDEST POP POP POP POP POP SWAP2 POP POP SWAP2 SWAP1 POP JUMP JUMPDEST PUSH0 SWAP1 DUP2 MSTORE PUSH0 DUP1 MLOAD PUSH1 0x20 PUSH2 0x34D7 DUP4 CODECOPY DUP2 MLOAD SWAP2 MSTORE PUSH1 0x20 MSTORE PUSH1 0x40 SWAP1 KECCAK256 PUSH1 0x1 ADD SLOAD SWAP1 JUMP JUMPDEST DUP1 PUSH2 0xA47 CALLER DUP5 PUSH2 0x84B JUMP JUMPDEST LT ISZERO PUSH2 0xA6E JUMPI PUSH1 0x40 MLOAD PUSH3 0x461BCD PUSH1 0xE5 SHL DUP2 MSTORE PUSH1 0x4 ADD PUSH2 0xA65 SWAP1 PUSH2 0x32B5 JUMP JUMPDEST PUSH1 0x40 MLOAD DUP1 SWAP2 SUB SWAP1 REVERT JUMPDEST PUSH0 DUP3 DUP2 MSTORE PUSH1 0x20 DUP2 SWAP1 MSTORE PUSH1 0x40 DUP2 KECCAK256 SLOAD PUSH1 0xFF AND PUSH1 0x7 DUP2 GT ISZERO PUSH2 0xA90 JUMPI PUSH2 0xA90 PUSH2 0x3137 JUMP JUMPDEST EQ PUSH2 0xAEC JUMPI PUSH1 0x40 MLOAD PUSH3 0x461BCD PUSH1 0xE5 SHL DUP2 MSTORE PUSH1 0x20 PUSH1 0x4 DUP3 ADD MSTORE PUSH1 0x26 PUSH1 0x24 DUP3 ADD MSTORE PUSH32 0x43727970746F51756573743A20546F6B656E206973206E6F74206120636F6E73 PUSH1 0x44 DUP3 ADD MSTORE PUSH6 0x756D61626C65 PUSH1 0xD0 SHL PUSH1 0x64 DUP3 ADD MSTORE PUSH1 0x84 ADD PUSH2 0xA65 JUMP JUMPDEST PUSH2 0x8BD CALLER DUP4 DUP4 PUSH2 0x1911 JUMP JUMPDEST CALLER PUSH1 0x1 PUSH1 0x1 PUSH1 0xA0 SHL SUB DUP7 AND DUP2 EQ DUP1 ISZERO SWAP1 PUSH2 0xB18 JUMPI POP PUSH2 0xB16 DUP7 DUP3 PUSH2 0x1436 JUMP JUMPDEST ISZERO JUMPDEST ISZERO PUSH2 0xB49 JUMPI PUSH1 0x40 MLOAD PUSH4 0x711BEC91 PUSH1 0xE1 SHL DUP2 MSTORE PUSH1 0x1 PUSH1 0x1 PUSH1 0xA0 SHL SUB DUP1 DUP4 AND PUSH1 0x4 DUP4 ADD MSTORE DUP8 AND PUSH1 0x24 DUP3 ADD MSTORE PUSH1 0x44 ADD PUSH2 0xA65 JUMP JUMPDEST PUSH2 0xB56 DUP7 DUP7 DUP7 DUP7 DUP7 PUSH2 0x197E JUMP JUMPDEST POP POP POP POP POP POP JUMP JUMPDEST PUSH2 0xB67 DUP3 PUSH2 0xA1C JUMP JUMPDEST PUSH2 0xB70 DUP2 PUSH2 0x1873 JUMP JUMPDEST PUSH2 0xB7A DUP4 DUP4 PUSH2 0x19DC JUMP JUMPDEST POP POP POP POP JUMP JUMPDEST PUSH1 0x1 PUSH1 0x1 PUSH1 0xA0 SHL SUB DUP2 AND CALLER EQ PUSH2 0xBA9 JUMPI PUSH1 0x40 MLOAD PUSH4 0x334BD919 PUSH1 0xE1 SHL DUP2 MSTORE PUSH1 0x4 ADD PUSH1 0x40 MLOAD DUP1 SWAP2 SUB SWAP1 REVERT JUMPDEST PUSH2 0xBB3 DUP3 DUP3 PUSH2 0x1A7D JUMP JUMPDEST POP POP POP JUMP JUMPDEST PUSH1 0x60 PUSH1 0x5 PUSH0 DUP4 DUP2 MSTORE PUSH1 0x20 DUP2 SWAP1 MSTORE PUSH1 0x40 SWAP1 KECCAK256 SLOAD PUSH1 0xFF AND PUSH1 0x7 DUP2 GT ISZERO PUSH2 0xBDE JUMPI PUSH2 0xBDE PUSH2 0x3137 JUMP JUMPDEST EQ PUSH2 0xC35 JUMPI PUSH1 0x40 MLOAD PUSH3 0x461BCD PUSH1 0xE5 SHL DUP2 MSTORE PUSH1 0x20 PUSH1 0x4 DUP3 ADD MSTORE PUSH1 0x21 PUSH1 0x24 DUP3 ADD MSTORE PUSH32 0x43727970746F51756573743A20546F6B656E206973206E6F742061206D6F756E PUSH1 0x44 DUP3 ADD MSTORE PUSH1 0x1D PUSH1 0xFA SHL PUSH1 0x64 DUP3 ADD MSTORE PUSH1 0x84 ADD PUSH2 0xA65 JUMP JUMPDEST PUSH0 PUSH2 0xC40 CALLER DUP5 PUSH2 0x84B JUMP JUMPDEST GT PUSH2 0xC89 JUMPI PUSH1 0x40 MLOAD PUSH3 0x461BCD PUSH1 0xE5 SHL DUP2 MSTORE PUSH1 0x20 PUSH1 0x4 DUP3 ADD MSTORE PUSH1 0x26 PUSH1 0x24 DUP3 ADD MSTORE PUSH0 DUP1 MLOAD PUSH1 0x20 PUSH2 0x3437 DUP4 CODECOPY DUP2 MLOAD SWAP2 MSTORE PUSH1 0x44 DUP3 ADD MSTORE PUSH6 0x81B5BDD5B9D PUSH1 0xD2 SHL PUSH1 0x64 DUP3 ADD MSTORE PUSH1 0x84 ADD PUSH2 0xA65 JUMP JUMPDEST PUSH0 DUP3 DUP2 MSTORE PUSH1 0x20 DUP2 SWAP1 MSTORE PUSH1 0x40 SWAP1 KECCAK256 PUSH1 0x1 ADD DUP1 SLOAD PUSH2 0xCA4 SWAP1 PUSH2 0x317F JUMP JUMPDEST DUP1 PUSH1 0x1F ADD PUSH1 0x20 DUP1 SWAP2 DIV MUL PUSH1 0x20 ADD PUSH1 0x40 MLOAD SWAP1 DUP2 ADD PUSH1 0x40 MSTORE DUP1 SWAP3 SWAP2 SWAP1 DUP2 DUP2 MSTORE PUSH1 0x20 ADD DUP3 DUP1 SLOAD PUSH2 0xCD0 SWAP1 PUSH2 0x317F JUMP JUMPDEST DUP1 ISZERO PUSH2 0xD1B JUMPI DUP1 PUSH1 0x1F LT PUSH2 0xCF2 JUMPI PUSH2 0x100 DUP1 DUP4 SLOAD DIV MUL DUP4 MSTORE SWAP2 PUSH1 0x20 ADD SWAP2 PUSH2 0xD1B JUMP JUMPDEST DUP3 ADD SWAP2 SWAP1 PUSH0 MSTORE PUSH1 0x20 PUSH0 KECCAK256 SWAP1 JUMPDEST DUP2 SLOAD DUP2 MSTORE SWAP1 PUSH1 0x1 ADD SWAP1 PUSH1 0x20 ADD DUP1 DUP4 GT PUSH2 0xCFE JUMPI DUP3 SWAP1 SUB PUSH1 0x1F AND DUP3 ADD SWAP2 JUMPDEST POP POP POP POP POP SWAP1 POP SWAP2 SWAP1 POP JUMP JUMPDEST PUSH0 DUP1 MLOAD PUSH1 0x20 PUSH2 0x3477 DUP4 CODECOPY DUP2 MLOAD SWAP2 MSTORE PUSH2 0xD3E DUP2 PUSH2 0x1873 JUMP JUMPDEST PUSH2 0xD46 PUSH2 0x1AF6 JUMP JUMPDEST POP JUMP JUMPDEST PUSH1 0x1 PUSH0 DUP4 DUP2 MSTORE PUSH1 0x20 DUP2 SWAP1 MSTORE PUSH1 0x40 SWAP1 KECCAK256 SLOAD PUSH1 0xFF AND PUSH1 0x7 DUP2 GT ISZERO PUSH2 0xD6D JUMPI PUSH2 0xD6D PUSH2 0x3137 JUMP JUMPDEST EQ PUSH2 0xDC6 JUMPI PUSH1 0x40 MLOAD PUSH3 0x461BCD PUSH1 0xE5 SHL DUP2 MSTORE PUSH1 0x20 PUSH1 0x4 DUP3 ADD MSTORE PUSH1 0x24 DUP1 DUP3 ADD MSTORE PUSH32 0x43727970746F51756573743A20546F6B656E206973206E6F742061207265736F PUSH1 0x44 DUP3 ADD MSTORE PUSH4 0x75726365 PUSH1 0xE0 SHL PUSH1 0x64 DUP3 ADD MSTORE PUSH1 0x84 ADD PUSH2 0xA65 JUMP JUMPDEST PUSH2 0x8BD CALLER DUP4 DUP4 PUSH1 0x40 MLOAD DUP1 PUSH1 0x20 ADD PUSH1 0x40 MSTORE DUP1 PUSH0 DUP2 MSTORE POP PUSH2 0x18B6 JUMP JUMPDEST PUSH1 0x60 DUP2 MLOAD DUP4 MLOAD EQ PUSH2 0xE11 JUMPI DUP2 MLOAD DUP4 MLOAD PUSH1 0x40 MLOAD PUSH4 0x5B059991 PUSH1 0xE0 SHL DUP2 MSTORE PUSH1 0x4 DUP2 ADD SWAP3 SWAP1 SWAP3 MSTORE PUSH1 0x24 DUP3 ADD MSTORE PUSH1 0x44 ADD PUSH2 0xA65 JUMP JUMPDEST PUSH0 DUP4 MLOAD PUSH1 0x1 PUSH1 0x1 PUSH1 0x40 SHL SUB DUP2 GT ISZERO PUSH2 0xE2B JUMPI PUSH2 0xE2B PUSH2 0x28E8 JUMP JUMPDEST PUSH1 0x40 MLOAD SWAP1 DUP1 DUP3 MSTORE DUP1 PUSH1 0x20 MUL PUSH1 0x20 ADD DUP3 ADD PUSH1 0x40 MSTORE DUP1 ISZERO PUSH2 0xE54 JUMPI DUP2 PUSH1 0x20 ADD PUSH1 0x20 DUP3 MUL DUP1 CALLDATASIZE DUP4 CALLDATACOPY ADD SWAP1 POP JUMPDEST POP SWAP1 POP PUSH0 JUMPDEST DUP5 MLOAD DUP2 LT ISZERO PUSH2 0xEA2 JUMPI PUSH1 0x20 DUP1 DUP3 MUL DUP7 ADD ADD MLOAD PUSH2 0xE7D SWAP1 PUSH1 0x20 DUP1 DUP5 MUL DUP8 ADD ADD MLOAD PUSH2 0x84B JUMP JUMPDEST DUP3 DUP3 DUP2 MLOAD DUP2 LT PUSH2 0xE8F JUMPI PUSH2 0xE8F PUSH2 0x32F6 JUMP JUMPDEST PUSH1 0x20 SWAP1 DUP2 MUL SWAP2 SWAP1 SWAP2 ADD ADD MSTORE PUSH1 0x1 ADD PUSH2 0xE59 JUMP JUMPDEST POP SWAP4 SWAP3 POP POP POP JUMP JUMPDEST PUSH2 0xEB2 PUSH2 0x1B55 JUMP JUMPDEST PUSH2 0xEBB DUP3 PUSH2 0x1BFB JUMP JUMPDEST PUSH2 0x8BD DUP3 DUP3 PUSH2 0x1C25 JUMP JUMPDEST PUSH0 PUSH2 0xECE PUSH2 0x1CE1 JUMP JUMPDEST POP PUSH0 DUP1 MLOAD PUSH1 0x20 PUSH2 0x3457 DUP4 CODECOPY DUP2 MLOAD SWAP2 MSTORE SWAP1 JUMP JUMPDEST PUSH1 0x1 PUSH1 0x1 PUSH1 0xA0 SHL SUB DUP4 AND CALLER EQ DUP1 ISZERO SWAP1 PUSH2 0xF00 JUMPI POP PUSH2 0xEFE DUP4 CALLER PUSH2 0x1436 JUMP JUMPDEST ISZERO JUMPDEST ISZERO PUSH2 0xF34 JUMPI CALLER JUMPDEST PUSH1 0x40 MLOAD PUSH4 0x711BEC91 PUSH1 0xE1 SHL DUP2 MSTORE PUSH1 0x1 PUSH1 0x1 PUSH1 0xA0 SHL SUB SWAP2 DUP3 AND PUSH1 0x4 DUP3 ADD MSTORE SWAP1 DUP5 AND PUSH1 0x24 DUP3 ADD MSTORE PUSH1 0x44 ADD PUSH2 0xA65 JUMP JUMPDEST PUSH2 0xBB3 DUP4 DUP4 DUP4 PUSH2 0x1D2A JUMP JUMPDEST PUSH0 DUP1 MLOAD PUSH1 0x20 PUSH2 0x3477 DUP4 CODECOPY DUP2 MLOAD SWAP2 MSTORE PUSH2 0xF56 DUP2 PUSH2 0x1873 JUMP JUMPDEST PUSH2 0xD46 PUSH2 0x1D6D JUMP JUMPDEST PUSH1 0x60 PUSH1 0x3 PUSH0 DUP4 DUP2 MSTORE PUSH1 0x20 DUP2 SWAP1 MSTORE PUSH1 0x40 SWAP1 KECCAK256 SLOAD PUSH1 0xFF AND PUSH1 0x7 DUP2 GT ISZERO PUSH2 0xF84 JUMPI PUSH2 0xF84 PUSH2 0x3137 JUMP JUMPDEST EQ PUSH2 0xC89 JUMPI PUSH1 0x40 MLOAD PUSH3 0x461BCD PUSH1 0xE5 SHL DUP2 MSTORE PUSH1 0x20 PUSH1 0x4 DUP3 ADD MSTORE PUSH1 0x24 DUP1 DUP3 ADD MSTORE PUSH32 0x43727970746F51756573743A20546F6B656E206973206E6F74206120636F736D PUSH1 0x44 DUP3 ADD MSTORE PUSH4 0x65746963 PUSH1 0xE0 SHL PUSH1 0x64 DUP3 ADD MSTORE PUSH1 0x84 ADD PUSH2 0xA65 JUMP JUMPDEST PUSH0 SWAP2 DUP3 MSTORE PUSH0 DUP1 MLOAD PUSH1 0x20 PUSH2 0x34D7 DUP4 CODECOPY DUP2 MLOAD SWAP2 MSTORE PUSH1 0x20 SWAP1 DUP2 MSTORE PUSH1 0x40 DUP1 DUP5 KECCAK256 PUSH1 0x1 PUSH1 0x1 PUSH1 0xA0 SHL SUB SWAP4 SWAP1 SWAP4 AND DUP5 MSTORE SWAP2 SWAP1 MSTORE SWAP1 KECCAK256 SLOAD PUSH1 0xFF AND SWAP1 JUMP JUMPDEST PUSH2 0x8BD CALLER DUP4 DUP4 PUSH2 0x1DB5 JUMP JUMPDEST PUSH1 0x2 PUSH0 DUP5 DUP2 MSTORE PUSH1 0x20 DUP2 SWAP1 MSTORE PUSH1 0x40 SWAP1 KECCAK256 SLOAD PUSH1 0xFF AND PUSH1 0x7 DUP2 GT ISZERO PUSH2 0x1042 JUMPI PUSH2 0x1042 PUSH2 0x3137 JUMP JUMPDEST EQ PUSH2 0x108F JUMPI PUSH1 0x40 MLOAD PUSH3 0x461BCD PUSH1 0xE5 SHL DUP2 MSTORE PUSH1 0x20 PUSH1 0x4 DUP3 ADD MSTORE PUSH1 0x1E PUSH1 0x24 DUP3 ADD MSTORE PUSH32 0x43727970746F51756573743A20546F6B656E206973206E6F74206C6F6F740000 PUSH1 0x44 DUP3 ADD MSTORE PUSH1 0x64 ADD PUSH2 0xA65 JUMP JUMPDEST DUP2 PUSH2 0x109A CALLER DUP6 PUSH2 0x84B JUMP JUMPDEST LT ISZERO PUSH2 0x10B8 JUMPI PUSH1 0x40 MLOAD PUSH3 0x461BCD PUSH1 0xE5 SHL DUP2 MSTORE PUSH1 0x4 ADD PUSH2 0xA65 SWAP1 PUSH2 0x32B5 JUMP JUMPDEST PUSH2 0xBB3 CALLER DUP3 DUP6 DUP6 PUSH1 0x40 MLOAD DUP1 PUSH1 0x20 ADD PUSH1 0x40 MSTORE DUP1 PUSH0 DUP2 MSTORE POP PUSH2 0x1482 JUMP JUMPDEST PUSH1 0x4 PUSH0 DUP3 DUP2 MSTORE PUSH1 0x20 DUP2 SWAP1 MSTORE PUSH1 0x40 SWAP1 KECCAK256 SLOAD PUSH1 0xFF AND PUSH1 0x7 DUP2 GT ISZERO PUSH2 0x10F7 JUMPI PUSH2 0x10F7 PUSH2 0x3137 JUMP JUMPDEST EQ PUSH2 0x1144 JUMPI PUSH1 0x40 MLOAD PUSH3 0x461BCD PUSH1 0xE5 SHL DUP2 MSTORE PUSH1 0x20 PUSH1 0x4 DUP3 ADD MSTORE PUSH1 0x1E PUSH1 0x24 DUP3 ADD MSTORE PUSH32 0x43727970746F51756573743A20546F6B656E206973206E6F74206C616E640000 PUSH1 0x44 DUP3 ADD MSTORE PUSH1 0x64 ADD PUSH2 0xA65 JUMP JUMPDEST PUSH0 PUSH2 0x114F CALLER DUP4 PUSH2 0x84B JUMP JUMPDEST GT PUSH2 0xD46 JUMPI PUSH1 0x40 MLOAD PUSH3 0x461BCD PUSH1 0xE5 SHL DUP2 MSTORE PUSH1 0x20 PUSH1 0x4 DUP3 ADD MSTORE PUSH1 0x25 PUSH1 0x24 DUP3 ADD MSTORE PUSH0 DUP1 MLOAD PUSH1 0x20 PUSH2 0x3437 DUP4 CODECOPY DUP2 MLOAD SWAP2 MSTORE PUSH1 0x44 DUP3 ADD MSTORE PUSH5 0x81B185B99 PUSH1 0xDA SHL PUSH1 0x64 DUP3 ADD MSTORE PUSH1 0x84 ADD PUSH2 0xA65 JUMP JUMPDEST DUP1 PUSH2 0x11A2 CALLER DUP5 PUSH2 0x84B JUMP JUMPDEST LT ISZERO PUSH2 0x8BD JUMPI PUSH1 0x40 MLOAD PUSH3 0x461BCD PUSH1 0xE5 SHL DUP2 MSTORE PUSH1 0x4 ADD PUSH2 0xA65 SWAP1 PUSH2 0x32B5 JUMP JUMPDEST PUSH1 0x60 PUSH1 0x6 PUSH0 DUP4 DUP2 MSTORE PUSH1 0x20 DUP2 SWAP1 MSTORE PUSH1 0x40 SWAP1 KECCAK256 SLOAD PUSH1 0xFF AND PUSH1 0x7 DUP2 GT ISZERO PUSH2 0x11E6 JUMPI PUSH2 0x11E6 PUSH2 0x3137 JUMP JUMPDEST EQ PUSH2 0x1244 JUMPI PUSH1 0x40 MLOAD PUSH3 0x461BCD PUSH1 0xE5 SHL DUP2 MSTORE PUSH1 0x20 PUSH1 0x4 DUP3 ADD MSTORE PUSH1 0x28 PUSH1 0x24 DUP3 ADD MSTORE PUSH32 0x43727970746F51756573743A20546F6B656E206973206E6F742061206775696C PUSH1 0x44 DUP3 ADD MSTORE PUSH8 0x32103130B73732B9 PUSH1 0xC1 SHL PUSH1 0x64 DUP3 ADD MSTORE PUSH1 0x84 ADD PUSH2 0xA65 JUMP JUMPDEST PUSH0 PUSH2 0x124F CALLER DUP5 PUSH2 0x84B JUMP JUMPDEST GT PUSH2 0xC89 JUMPI PUSH1 0x40 MLOAD PUSH3 0x461BCD PUSH1 0xE5 SHL DUP2 MSTORE PUSH1 0x20 PUSH1 0x4 DUP3 ADD MSTORE PUSH1 0x2D PUSH1 0x24 DUP3 ADD MSTORE PUSH0 DUP1 MLOAD PUSH1 0x20 PUSH2 0x3437 DUP4 CODECOPY DUP2 MLOAD SWAP2 MSTORE PUSH1 0x44 DUP3 ADD MSTORE PUSH13 0x1033BAB4B632103130B73732B9 PUSH1 0x99 SHL PUSH1 0x64 DUP3 ADD MSTORE PUSH1 0x84 ADD PUSH2 0xA65 JUMP JUMPDEST PUSH0 DUP1 MLOAD PUSH1 0x20 PUSH2 0x34B7 DUP4 CODECOPY DUP2 MLOAD SWAP2 MSTORE PUSH2 0x12B6 DUP2 PUSH2 0x1873 JUMP JUMPDEST DUP3 MLOAD DUP7 MLOAD EQ DUP1 ISZERO PUSH2 0x12C8 JUMPI POP DUP2 MLOAD DUP7 MLOAD EQ JUMPDEST PUSH2 0x1332 JUMPI PUSH1 0x40 MLOAD PUSH3 0x461BCD PUSH1 0xE5 SHL DUP2 MSTORE PUSH1 0x20 PUSH1 0x4 DUP3 ADD MSTORE PUSH1 0x35 PUSH1 0x24 DUP3 ADD MSTORE PUSH32 0x43727970746F51756573743A204944732C2074797065732C20616E64206D6574 PUSH1 0x44 DUP3 ADD MSTORE PUSH21 0xC2C8C2E8C240D8CADCCEE8D040DAD2E6DAC2E8C6D PUSH1 0x5B SHL PUSH1 0x64 DUP3 ADD MSTORE PUSH1 0x84 ADD PUSH2 0xA65 JUMP JUMPDEST PUSH2 0x133E DUP8 DUP8 DUP8 DUP8 PUSH2 0x1E5A JUMP JUMPDEST PUSH0 JUMPDEST DUP7 MLOAD DUP2 LT ISZERO PUSH2 0x1410 JUMPI PUSH1 0x40 MLOAD DUP1 PUSH1 0x40 ADD PUSH1 0x40 MSTORE DUP1 DUP6 DUP4 DUP2 MLOAD DUP2 LT PUSH2 0x1366 JUMPI PUSH2 0x1366 PUSH2 0x32F6 JUMP JUMPDEST PUSH1 0x20 MUL PUSH1 0x20 ADD ADD MLOAD PUSH1 0x7 DUP2 GT ISZERO PUSH2 0x137F JUMPI PUSH2 0x137F PUSH2 0x3137 JUMP JUMPDEST DUP2 MSTORE PUSH1 0x20 ADD DUP5 DUP4 DUP2 MLOAD DUP2 LT PUSH2 0x1396 JUMPI PUSH2 0x1396 PUSH2 0x32F6 JUMP JUMPDEST PUSH1 0x20 MUL PUSH1 0x20 ADD ADD MLOAD DUP2 MSTORE POP PUSH0 DUP1 DUP10 DUP5 DUP2 MLOAD DUP2 LT PUSH2 0x13B5 JUMPI PUSH2 0x13B5 PUSH2 0x32F6 JUMP JUMPDEST PUSH1 0x20 SWAP1 DUP2 MUL SWAP2 SWAP1 SWAP2 ADD DUP2 ADD MLOAD DUP3 MSTORE DUP2 ADD SWAP2 SWAP1 SWAP2 MSTORE PUSH1 0x40 ADD PUSH0 KECCAK256 DUP2 MLOAD DUP2 SLOAD DUP3 SWAP1 PUSH1 0xFF NOT AND PUSH1 0x1 DUP4 PUSH1 0x7 DUP2 GT ISZERO PUSH2 0x13EC JUMPI PUSH2 0x13EC PUSH2 0x3137 JUMP JUMPDEST MUL OR SWAP1 SSTORE POP PUSH1 0x20 DUP3 ADD MLOAD PUSH1 0x1 DUP3 ADD SWAP1 PUSH2 0x1405 SWAP1 DUP3 PUSH2 0x31FB JUMP JUMPDEST POP POP POP PUSH1 0x1 ADD PUSH2 0x1340 JUMP JUMPDEST POP POP POP POP POP POP POP POP JUMP JUMPDEST PUSH2 0x1423 DUP3 PUSH2 0xA1C JUMP JUMPDEST PUSH2 0x142C DUP2 PUSH2 0x1873 JUMP JUMPDEST PUSH2 0xB7A DUP4 DUP4 PUSH2 0x1A7D JUMP JUMPDEST PUSH1 0x1 PUSH1 0x1 PUSH1 0xA0 SHL SUB SWAP2 DUP3 AND PUSH0 SWAP1 DUP2 MSTORE PUSH32 0x88BE536D5240C274A3B1D3A1BE54482FD9CAA294F08C62A7CDE569F49A3C4501 PUSH1 0x20 SWAP1 DUP2 MSTORE PUSH1 0x40 DUP1 DUP4 KECCAK256 SWAP4 SWAP1 SWAP5 AND DUP3 MSTORE SWAP2 SWAP1 SWAP2 MSTORE KECCAK256 SLOAD PUSH1 0xFF AND SWAP1 JUMP JUMPDEST CALLER PUSH1 0x1 PUSH1 0x1 PUSH1 0xA0 SHL SUB DUP7 AND DUP2 EQ DUP1 ISZERO SWAP1 PUSH2 0x14A3 JUMPI POP PUSH2 0x14A1 DUP7 DUP3 PUSH2 0x1436 JUMP JUMPDEST ISZERO JUMPDEST ISZERO PUSH2 0x14D4 JUMPI PUSH1 0x40 MLOAD PUSH4 0x711BEC91 PUSH1 0xE1 SHL DUP2 MSTORE PUSH1 0x1 PUSH1 0x1 PUSH1 0xA0 SHL SUB DUP1 DUP4 AND PUSH1 0x4 DUP4 ADD MSTORE DUP8 AND PUSH1 0x24 DUP3 ADD MSTORE PUSH1 0x44 ADD PUSH2 0xA65 JUMP JUMPDEST PUSH2 0xB56 DUP7 DUP7 DUP7 DUP7 DUP7 PUSH2 0x1E90 JUMP JUMPDEST PUSH1 0x1 PUSH1 0x1 PUSH1 0xA0 SHL SUB DUP4 AND CALLER EQ DUP1 ISZERO SWAP1 PUSH2 0x1501 JUMPI POP PUSH2 0x14FF DUP4 CALLER PUSH2 0x1436 JUMP JUMPDEST ISZERO JUMPDEST ISZERO PUSH2 0x150C JUMPI CALLER PUSH2 0xF07 JUMP JUMPDEST PUSH2 0xBB3 DUP4 DUP4 DUP4 PUSH2 0x1911 JUMP JUMPDEST PUSH32 0xF0C57E16840DF040F15088DC2F81FE391C3923BEC73E23A9662EFC9C229C6A00 DUP1 SLOAD PUSH1 0x1 PUSH1 0x40 SHL DUP2 DIV PUSH1 0xFF AND ISZERO SWAP1 PUSH1 0x1 PUSH1 0x1 PUSH1 0x40 SHL SUB AND PUSH0 DUP2 ISZERO DUP1 ISZERO PUSH2 0x155B JUMPI POP DUP3 JUMPDEST SWAP1 POP PUSH0 DUP3 PUSH1 0x1 PUSH1 0x1 PUSH1 0x40 SHL SUB AND PUSH1 0x1 EQ DUP1 ISZERO PUSH2 0x1576 JUMPI POP ADDRESS EXTCODESIZE ISZERO JUMPDEST SWAP1 POP DUP2 ISZERO DUP1 ISZERO PUSH2 0x1584 JUMPI POP DUP1 ISZERO JUMPDEST ISZERO PUSH2 0x15A2 JUMPI PUSH1 0x40 MLOAD PUSH4 0xF92EE8A9 PUSH1 0xE0 SHL DUP2 MSTORE PUSH1 0x4 ADD PUSH1 0x40 MLOAD DUP1 SWAP2 SUB SWAP1 REVERT JUMPDEST DUP5 SLOAD PUSH8 0xFFFFFFFFFFFFFFFF NOT AND PUSH1 0x1 OR DUP6 SSTORE DUP4 ISZERO PUSH2 0x15CC JUMPI DUP5 SLOAD PUSH1 0xFF PUSH1 0x40 SHL NOT AND PUSH1 0x1 PUSH1 0x40 SHL OR DUP6 SSTORE JUMPDEST PUSH2 0x15E3 PUSH1 0x40 MLOAD DUP1 PUSH1 0x20 ADD PUSH1 0x40 MSTORE DUP1 PUSH0 DUP2 MSTORE POP PUSH2 0x1F1C JUMP JUMPDEST PUSH2 0x15EB PUSH2 0x1F2D JUMP JUMPDEST PUSH2 0x15F3 PUSH2 0x1F35 JUMP JUMPDEST PUSH2 0x15FB PUSH2 0x1F2D JUMP JUMPDEST PUSH2 0x1603 PUSH2 0x1F2D JUMP JUMPDEST PUSH2 0x160B PUSH2 0x1F2D JUMP JUMPDEST PUSH2 0x1615 PUSH0 DUP11 PUSH2 0x19DC JUMP JUMPDEST POP PUSH2 0x162D PUSH0 DUP1 MLOAD PUSH1 0x20 PUSH2 0x3477 DUP4 CODECOPY DUP2 MLOAD SWAP2 MSTORE DUP10 PUSH2 0x19DC JUMP JUMPDEST POP PUSH2 0x1645 PUSH0 DUP1 MLOAD PUSH1 0x20 PUSH2 0x34B7 DUP4 CODECOPY DUP2 MLOAD SWAP2 MSTORE DUP9 PUSH2 0x19DC JUMP JUMPDEST POP PUSH2 0x1670 PUSH32 0x189AB7A9244DF0848122154315AF71FE140F3DB0FE014031783B0946B8C9D2E3 DUP8 PUSH2 0x19DC JUMP JUMPDEST POP DUP4 ISZERO PUSH2 0x16B7 JUMPI DUP5 SLOAD PUSH1 0xFF PUSH1 0x40 SHL NOT AND DUP6 SSTORE PUSH1 0x40 MLOAD PUSH1 0x1 DUP2 MSTORE PUSH32 0xC7F505B2F371AE2175EE4913F4499E1F2633A7B5936321EED1CDAEB6115181D2 SWAP1 PUSH1 0x20 ADD PUSH1 0x40 MLOAD DUP1 SWAP2 SUB SWAP1 LOG1 JUMPDEST POP POP POP POP POP POP POP POP POP JUMP JUMPDEST PUSH0 PUSH1 0x20 DUP2 SWAP1 MSTORE SWAP1 DUP2 MSTORE PUSH1 0x40 SWAP1 KECCAK256 DUP1 SLOAD PUSH1 0x1 DUP3 ADD DUP1 SLOAD PUSH1 0xFF SWAP1 SWAP3 AND SWAP3 SWAP2 PUSH2 0x16E7 SWAP1 PUSH2 0x317F JUMP JUMPDEST DUP1 PUSH1 0x1F ADD PUSH1 0x20 DUP1 SWAP2 DIV MUL PUSH1 0x20 ADD PUSH1 0x40 MLOAD SWAP1 DUP2 ADD PUSH1 0x40 MSTORE DUP1 SWAP3 SWAP2 SWAP1 DUP2 DUP2 MSTORE PUSH1 0x20 ADD DUP3 DUP1 SLOAD PUSH2 0x1713 SWAP1 PUSH2 0x317F JUMP JUMPDEST DUP1 ISZERO PUSH2 0x175E JUMPI DUP1 PUSH1 0x1F LT PUSH2 0x1735 JUMPI PUSH2 0x100 DUP1 DUP4 SLOAD DIV MUL DUP4 MSTORE SWAP2 PUSH1 0x20 ADD SWAP2 PUSH2 0x175E JUMP JUMPDEST DUP3 ADD SWAP2 SWAP1 PUSH0 MSTORE PUSH1 0x20 PUSH0 KECCAK256 SWAP1 JUMPDEST DUP2 SLOAD DUP2 MSTORE SWAP1 PUSH1 0x1 ADD SWAP1 PUSH1 0x20 ADD DUP1 DUP4 GT PUSH2 0x1741 JUMPI DUP3 SWAP1 SUB PUSH1 0x1F AND DUP3 ADD SWAP2 JUMPDEST POP POP POP POP POP SWAP1 POP DUP3 JUMP JUMPDEST PUSH1 0x7 PUSH0 DUP3 DUP2 MSTORE PUSH1 0x20 DUP2 SWAP1 MSTORE PUSH1 0x40 SWAP1 KECCAK256 SLOAD PUSH1 0xFF AND PUSH1 0x7 DUP2 GT ISZERO PUSH2 0x178C JUMPI PUSH2 0x178C PUSH2 0x3137 JUMP JUMPDEST EQ PUSH2 0x17E9 JUMPI PUSH1 0x40 MLOAD PUSH3 0x461BCD PUSH1 0xE5 SHL DUP2 MSTORE PUSH1 0x20 PUSH1 0x4 DUP3 ADD MSTORE PUSH1 0x27 PUSH1 0x24 DUP3 ADD MSTORE PUSH32 0x43727970746F51756573743A20546F6B656E206973206E6F7420612071756573 PUSH1 0x44 DUP3 ADD MSTORE PUSH7 0x3A103A37B5B2B7 PUSH1 0xC9 SHL PUSH1 0x64 DUP3 ADD MSTORE PUSH1 0x84 ADD PUSH2 0xA65 JUMP JUMPDEST PUSH0 PUSH2 0x17F4 CALLER DUP4 PUSH2 0x84B JUMP JUMPDEST GT PUSH2 0x1843 JUMPI PUSH1 0x40 MLOAD PUSH3 0x461BCD PUSH1 0xE5 SHL DUP2 MSTORE PUSH1 0x20 PUSH1 0x4 DUP3 ADD MSTORE PUSH1 0x2C PUSH1 0x24 DUP3 ADD MSTORE PUSH0 DUP1 MLOAD PUSH1 0x20 PUSH2 0x3437 DUP4 CODECOPY DUP2 MLOAD SWAP2 MSTORE PUSH1 0x44 DUP3 ADD MSTORE PUSH12 0x1038BAB2B9BA103A37B5B2B7 PUSH1 0xA1 SHL PUSH1 0x64 DUP3 ADD MSTORE PUSH1 0x84 ADD PUSH2 0xA65 JUMP JUMPDEST PUSH2 0xD46 CALLER DUP3 PUSH1 0x1 PUSH2 0x1911 JUMP JUMPDEST PUSH0 PUSH1 0x1 PUSH1 0x1 PUSH1 0xE0 SHL SUB NOT DUP3 AND PUSH4 0x7965DB0B PUSH1 0xE0 SHL EQ DUP1 PUSH2 0x87A JUMPI POP PUSH2 0x87A DUP3 PUSH2 0x1F45 JUMP JUMPDEST PUSH2 0xD46 DUP2 CALLER PUSH2 0x1F94 JUMP JUMPDEST PUSH0 DUP1 MLOAD PUSH1 0x20 PUSH2 0x3497 DUP4 CODECOPY DUP2 MLOAD SWAP2 MSTORE PUSH32 0x88BE536D5240C274A3B1D3A1BE54482FD9CAA294F08C62A7CDE569F49A3C4502 PUSH2 0xBB3 DUP4 DUP3 PUSH2 0x31FB JUMP JUMPDEST PUSH1 0x1 PUSH1 0x1 PUSH1 0xA0 SHL SUB DUP5 AND PUSH2 0x18DF JUMPI PUSH1 0x40 MLOAD PUSH4 0x2BFA23E7 PUSH1 0xE1 SHL DUP2 MSTORE PUSH0 PUSH1 0x4 DUP3 ADD MSTORE PUSH1 0x24 ADD PUSH2 0xA65 JUMP JUMPDEST PUSH1 0x40 DUP1 MLOAD PUSH1 0x1 DUP1 DUP3 MSTORE PUSH1 0x20 DUP3 ADD DUP7 SWAP1 MSTORE DUP2 DUP4 ADD SWAP1 DUP2 MSTORE PUSH1 0x60 DUP3 ADD DUP6 SWAP1 MSTORE PUSH1 0x80 DUP3 ADD SWAP1 SWAP3 MSTORE SWAP1 PUSH2 0xB56 PUSH0 DUP8 DUP5 DUP5 DUP8 PUSH2 0x1FCD JUMP JUMPDEST PUSH1 0x1 PUSH1 0x1 PUSH1 0xA0 SHL SUB DUP4 AND PUSH2 0x1939 JUMPI PUSH1 0x40 MLOAD PUSH3 0x6A0D45 PUSH1 0xE2 SHL DUP2 MSTORE PUSH0 PUSH1 0x4 DUP3 ADD MSTORE PUSH1 0x24 ADD PUSH2 0xA65 JUMP JUMPDEST PUSH1 0x40 DUP1 MLOAD PUSH1 0x1 DUP1 DUP3 MSTORE PUSH1 0x20 DUP3 ADD DUP6 SWAP1 MSTORE DUP2 DUP4 ADD SWAP1 DUP2 MSTORE PUSH1 0x60 DUP3 ADD DUP5 SWAP1 MSTORE PUSH1 0xA0 DUP3 ADD SWAP1 SWAP3 MSTORE PUSH0 PUSH1 0x80 DUP3 ADD DUP2 DUP2 MSTORE SWAP2 SWAP3 SWAP2 PUSH2 0x1977 SWAP2 DUP8 SWAP2 DUP6 SWAP1 DUP6 SWAP1 PUSH2 0x1FCD JUMP JUMPDEST POP POP POP POP POP JUMP JUMPDEST PUSH1 0x1 PUSH1 0x1 PUSH1 0xA0 SHL SUB DUP5 AND PUSH2 0x19A7 JUMPI PUSH1 0x40 MLOAD PUSH4 0x2BFA23E7 PUSH1 0xE1 SHL DUP2 MSTORE PUSH0 PUSH1 0x4 DUP3 ADD MSTORE PUSH1 0x24 ADD PUSH2 0xA65 JUMP JUMPDEST PUSH1 0x1 PUSH1 0x1 PUSH1 0xA0 SHL SUB DUP6 AND PUSH2 0x19CF JUMPI PUSH1 0x40 MLOAD PUSH3 0x6A0D45 PUSH1 0xE2 SHL DUP2 MSTORE PUSH0 PUSH1 0x4 DUP3 ADD MSTORE PUSH1 0x24 ADD PUSH2 0xA65 JUMP JUMPDEST PUSH2 0x1977 DUP6 DUP6 DUP6 DUP6 DUP6 PUSH2 0x1FCD JUMP JUMPDEST PUSH0 PUSH0 DUP1 MLOAD PUSH1 0x20 PUSH2 0x34D7 DUP4 CODECOPY DUP2 MLOAD SWAP2 MSTORE PUSH2 0x19F5 DUP5 DUP5 PUSH2 0xFDD JUMP JUMPDEST PUSH2 0x1A74 JUMPI PUSH0 DUP5 DUP2 MSTORE PUSH1 0x20 DUP3 DUP2 MSTORE PUSH1 0x40 DUP1 DUP4 KECCAK256 PUSH1 0x1 PUSH1 0x1 PUSH1 0xA0 SHL SUB DUP8 AND DUP5 MSTORE SWAP1 SWAP2 MSTORE SWAP1 KECCAK256 DUP1 SLOAD PUSH1 0xFF NOT AND PUSH1 0x1 OR SWAP1 SSTORE PUSH2 0x1A2A CALLER SWAP1 JUMP JUMPDEST PUSH1 0x1 PUSH1 0x1 PUSH1 0xA0 SHL SUB AND DUP4 PUSH1 0x1 PUSH1 0x1 PUSH1 0xA0 SHL SUB AND DUP6 PUSH32 0x2F8788117E7EFF1D82E926EC794901D17C78024A50270940304540A733656F0D PUSH1 0x40 MLOAD PUSH1 0x40 MLOAD DUP1 SWAP2 SUB SWAP1 LOG4 PUSH1 0x1 SWAP2 POP POP PUSH2 0x87A JUMP JUMPDEST PUSH0 SWAP2 POP POP PUSH2 0x87A JUMP JUMPDEST PUSH0 PUSH0 DUP1 MLOAD PUSH1 0x20 PUSH2 0x34D7 DUP4 CODECOPY DUP2 MLOAD SWAP2 MSTORE PUSH2 0x1A96 DUP5 DUP5 PUSH2 0xFDD JUMP JUMPDEST ISZERO PUSH2 0x1A74 JUMPI PUSH0 DUP5 DUP2 MSTORE PUSH1 0x20 DUP3 DUP2 MSTORE PUSH1 0x40 DUP1 DUP4 KECCAK256 PUSH1 0x1 PUSH1 0x1 PUSH1 0xA0 SHL SUB DUP8 AND DUP1 DUP6 MSTORE SWAP3 MSTORE DUP1 DUP4 KECCAK256 DUP1 SLOAD PUSH1 0xFF NOT AND SWAP1 SSTORE MLOAD CALLER SWAP3 DUP8 SWAP2 PUSH32 0xF6391F5C32D9C69D2A47EA670B442974B53935D1EDC7FD64EB21E047A839171B SWAP2 SWAP1 LOG4 PUSH1 0x1 SWAP2 POP POP PUSH2 0x87A JUMP JUMPDEST PUSH2 0x1AFE PUSH2 0x2020 JUMP JUMPDEST PUSH0 DUP1 MLOAD PUSH1 0x20 PUSH2 0x34F7 DUP4 CODECOPY DUP2 MLOAD SWAP2 MSTORE DUP1 SLOAD PUSH1 0xFF NOT AND DUP2 SSTORE PUSH32 0x5DB9EE0A495BF2E6FF9C91A7834C1BA4FDD244A5E8AA4E537BD38AEAE4B073AA CALLER JUMPDEST PUSH1 0x40 MLOAD PUSH1 0x1 PUSH1 0x1 PUSH1 0xA0 SHL SUB SWAP1 SWAP2 AND DUP2 MSTORE PUSH1 0x20 ADD PUSH1 0x40 MLOAD DUP1 SWAP2 SUB SWAP1 LOG1 POP JUMP JUMPDEST ADDRESS PUSH1 0x1 PUSH1 0x1 PUSH1 0xA0 SHL SUB PUSH32 0x0 AND EQ DUP1 PUSH2 0x1BDB JUMPI POP PUSH32 0x0 PUSH1 0x1 PUSH1 0x1 PUSH1 0xA0 SHL SUB AND PUSH2 0x1BCF PUSH0 DUP1 MLOAD PUSH1 0x20 PUSH2 0x3457 DUP4 CODECOPY DUP2 MLOAD SWAP2 MSTORE SLOAD PUSH1 0x1 PUSH1 0x1 PUSH1 0xA0 SHL SUB AND SWAP1 JUMP JUMPDEST PUSH1 0x1 PUSH1 0x1 PUSH1 0xA0 SHL SUB AND EQ ISZERO JUMPDEST ISZERO PUSH2 0x1BF9 JUMPI PUSH1 0x40 MLOAD PUSH4 0x703E46DD PUSH1 0xE1 SHL DUP2 MSTORE PUSH1 0x4 ADD PUSH1 0x40 MLOAD DUP1 SWAP2 SUB SWAP1 REVERT JUMPDEST JUMP JUMPDEST PUSH32 0x189AB7A9244DF0848122154315AF71FE140F3DB0FE014031783B0946B8C9D2E3 PUSH2 0x8BD DUP2 PUSH2 0x1873 JUMP JUMPDEST DUP2 PUSH1 0x1 PUSH1 0x1 PUSH1 0xA0 SHL SUB AND PUSH4 0x52D1902D PUSH1 0x40 MLOAD DUP2 PUSH4 0xFFFFFFFF AND PUSH1 0xE0 SHL DUP2 MSTORE PUSH1 0x4 ADD PUSH1 0x20 PUSH1 0x40 MLOAD DUP1 DUP4 SUB DUP2 DUP7 GAS STATICCALL SWAP3 POP POP POP DUP1 ISZERO PUSH2 0x1C7F JUMPI POP PUSH1 0x40 DUP1 MLOAD PUSH1 0x1F RETURNDATASIZE SWAP1 DUP2 ADD PUSH1 0x1F NOT AND DUP3 ADD SWAP1 SWAP3 MSTORE PUSH2 0x1C7C SWAP2 DUP2 ADD SWAP1 PUSH2 0x330A JUMP JUMPDEST PUSH1 0x1 JUMPDEST PUSH2 0x1CA7 JUMPI PUSH1 0x40 MLOAD PUSH4 0x4C9C8CE3 PUSH1 0xE0 SHL DUP2 MSTORE PUSH1 0x1 PUSH1 0x1 PUSH1 0xA0 SHL SUB DUP4 AND PUSH1 0x4 DUP3 ADD MSTORE PUSH1 0x24 ADD PUSH2 0xA65 JUMP JUMPDEST PUSH0 DUP1 MLOAD PUSH1 0x20 PUSH2 0x3457 DUP4 CODECOPY DUP2 MLOAD SWAP2 MSTORE DUP2 EQ PUSH2 0x1CD7 JUMPI PUSH1 0x40 MLOAD PUSH4 0x2A875269 PUSH1 0xE2 SHL DUP2 MSTORE PUSH1 0x4 DUP2 ADD DUP3 SWAP1 MSTORE PUSH1 0x24 ADD PUSH2 0xA65 JUMP JUMPDEST PUSH2 0xBB3 DUP4 DUP4 PUSH2 0x204F JUMP JUMPDEST ADDRESS PUSH1 0x1 PUSH1 0x1 PUSH1 0xA0 SHL SUB PUSH32 0x0 AND EQ PUSH2 0x1BF9 JUMPI PUSH1 0x40 MLOAD PUSH4 0x703E46DD PUSH1 0xE1 SHL DUP2 MSTORE PUSH1 0x4 ADD PUSH1 0x40 MLOAD DUP1 SWAP2 SUB SWAP1 REVERT JUMPDEST PUSH1 0x1 PUSH1 0x1 PUSH1 0xA0 SHL SUB DUP4 AND PUSH2 0x1D52 JUMPI PUSH1 0x40 MLOAD PUSH3 0x6A0D45 PUSH1 0xE2 SHL DUP2 MSTORE PUSH0 PUSH1 0x4 DUP3 ADD MSTORE PUSH1 0x24 ADD PUSH2 0xA65 JUMP JUMPDEST PUSH2 0xBB3 DUP4 PUSH0 DUP5 DUP5 PUSH1 0x40 MLOAD DUP1 PUSH1 0x20 ADD PUSH1 0x40 MSTORE DUP1 PUSH0 DUP2 MSTORE POP PUSH2 0x1FCD JUMP JUMPDEST PUSH2 0x1D75 PUSH2 0x20A4 JUMP JUMPDEST PUSH0 DUP1 MLOAD PUSH1 0x20 PUSH2 0x34F7 DUP4 CODECOPY DUP2 MLOAD SWAP2 MSTORE DUP1 SLOAD PUSH1 0xFF NOT AND PUSH1 0x1 OR DUP2 SSTORE PUSH32 0x62E78CEA01BEE320CD4E420270B5EA74000D11B0C9F74754EBDBFC544B05A258 CALLER PUSH2 0x1B37 JUMP JUMPDEST PUSH0 DUP1 MLOAD PUSH1 0x20 PUSH2 0x3497 DUP4 CODECOPY DUP2 MLOAD SWAP2 MSTORE PUSH1 0x1 PUSH1 0x1 PUSH1 0xA0 SHL SUB DUP4 AND PUSH2 0x1DEB JUMPI PUSH1 0x40 MLOAD PUSH3 0xCED3E1 PUSH1 0xE8 SHL DUP2 MSTORE PUSH0 PUSH1 0x4 DUP3 ADD MSTORE PUSH1 0x24 ADD PUSH2 0xA65 JUMP JUMPDEST PUSH1 0x1 PUSH1 0x1 PUSH1 0xA0 SHL SUB DUP5 DUP2 AND PUSH0 DUP2 DUP2 MSTORE PUSH1 0x1 DUP5 ADD PUSH1 0x20 SWAP1 DUP2 MSTORE PUSH1 0x40 DUP1 DUP4 KECCAK256 SWAP5 DUP9 AND DUP1 DUP5 MSTORE SWAP5 DUP3 MSTORE SWAP2 DUP3 SWAP1 KECCAK256 DUP1 SLOAD PUSH1 0xFF NOT AND DUP8 ISZERO ISZERO SWAP1 DUP2 OR SWAP1 SWAP2 SSTORE SWAP2 MLOAD SWAP2 DUP3 MSTORE PUSH32 0x17307EAB39AB6107E8899845AD3D59BD9653F200F220920489CA2B5937696C31 SWAP2 ADD PUSH1 0x40 MLOAD DUP1 SWAP2 SUB SWAP1 LOG3 POP POP POP POP JUMP JUMPDEST PUSH1 0x1 PUSH1 0x1 PUSH1 0xA0 SHL SUB DUP5 AND PUSH2 0x1E83 JUMPI PUSH1 0x40 MLOAD PUSH4 0x2BFA23E7 PUSH1 0xE1 SHL DUP2 MSTORE PUSH0 PUSH1 0x4 DUP3 ADD MSTORE PUSH1 0x24 ADD PUSH2 0xA65 JUMP JUMPDEST PUSH2 0xB7A PUSH0 DUP6 DUP6 DUP6 DUP6 PUSH2 0x1FCD JUMP JUMPDEST PUSH1 0x1 PUSH1 0x1 PUSH1 0xA0 SHL SUB DUP5 AND PUSH2 0x1EB9 JUMPI PUSH1 0x40 MLOAD PUSH4 0x2BFA23E7 PUSH1 0xE1 SHL DUP2 MSTORE PUSH0 PUSH1 0x4 DUP3 ADD MSTORE PUSH1 0x24 ADD PUSH2 0xA65 JUMP JUMPDEST PUSH1 0x1 PUSH1 0x1 PUSH1 0xA0 SHL SUB DUP6 AND PUSH2 0x1EE1 JUMPI PUSH1 0x40 MLOAD PUSH3 0x6A0D45 PUSH1 0xE2 SHL DUP2 MSTORE PUSH0 PUSH1 0x4 DUP3 ADD MSTORE PUSH1 0x24 ADD PUSH2 0xA65 JUMP JUMPDEST PUSH1 0x40 DUP1 MLOAD PUSH1 0x1 DUP1 DUP3 MSTORE PUSH1 0x20 DUP3 ADD DUP7 SWAP1 MSTORE DUP2 DUP4 ADD SWAP1 DUP2 MSTORE PUSH1 0x60 DUP3 ADD DUP6 SWAP1 MSTORE PUSH1 0x80 DUP3 ADD SWAP1 SWAP3 MSTORE SWAP1 PUSH2 0x1F13 DUP8 DUP8 DUP5 DUP5 DUP8 PUSH2 0x1FCD JUMP JUMPDEST POP POP POP POP POP POP POP JUMP JUMPDEST PUSH2 0x1F24 PUSH2 0x20D4 JUMP JUMPDEST PUSH2 0xD46 DUP2 PUSH2 0x211D JUMP JUMPDEST PUSH2 0x1BF9 PUSH2 0x20D4 JUMP JUMPDEST PUSH2 0x1F3D PUSH2 0x20D4 JUMP JUMPDEST PUSH2 0x1BF9 PUSH2 0x212E JUMP JUMPDEST PUSH0 PUSH1 0x1 PUSH1 0x1 PUSH1 0xE0 SHL SUB NOT DUP3 AND PUSH4 0x6CDB3D13 PUSH1 0xE1 SHL EQ DUP1 PUSH2 0x1F75 JUMPI POP PUSH1 0x1 PUSH1 0x1 PUSH1 0xE0 SHL SUB NOT DUP3 AND PUSH4 0x3A24D07 PUSH1 0xE2 SHL EQ JUMPDEST DUP1 PUSH2 0x87A JUMPI POP PUSH4 0x1FFC9A7 PUSH1 0xE0 SHL PUSH1 0x1 PUSH1 0x1 PUSH1 0xE0 SHL SUB NOT DUP4 AND EQ PUSH2 0x87A JUMP JUMPDEST PUSH2 0x1F9E DUP3 DUP3 PUSH2 0xFDD JUMP JUMPDEST PUSH2 0x8BD JUMPI PUSH1 0x40 MLOAD PUSH4 0xE2517D3F PUSH1 0xE0 SHL DUP2 MSTORE PUSH1 0x1 PUSH1 0x1 PUSH1 0xA0 SHL SUB DUP3 AND PUSH1 0x4 DUP3 ADD MSTORE PUSH1 0x24 DUP2 ADD DUP4 SWAP1 MSTORE PUSH1 0x44 ADD PUSH2 0xA65 JUMP JUMPDEST PUSH2 0x1FD9 DUP6 DUP6 DUP6 DUP6 PUSH2 0x214E JUMP JUMPDEST PUSH1 0x1 PUSH1 0x1 PUSH1 0xA0 SHL SUB DUP5 AND ISZERO PUSH2 0x1977 JUMPI DUP3 MLOAD CALLER SWAP1 PUSH1 0x1 SUB PUSH2 0x2012 JUMPI PUSH1 0x20 DUP5 DUP2 ADD MLOAD SWAP1 DUP5 ADD MLOAD PUSH2 0x200B DUP4 DUP10 DUP10 DUP6 DUP6 DUP10 PUSH2 0x215A JUMP JUMPDEST POP POP PUSH2 0xB56 JUMP JUMPDEST PUSH2 0xB56 DUP2 DUP8 DUP8 DUP8 DUP8 DUP8 PUSH2 0x227B JUMP JUMPDEST PUSH0 DUP1 MLOAD PUSH1 0x20 PUSH2 0x34F7 DUP4 CODECOPY DUP2 MLOAD SWAP2 MSTORE SLOAD PUSH1 0xFF AND PUSH2 0x1BF9 JUMPI PUSH1 0x40 MLOAD PUSH4 0x8DFC202B PUSH1 0xE0 SHL DUP2 MSTORE PUSH1 0x4 ADD PUSH1 0x40 MLOAD DUP1 SWAP2 SUB SWAP1 REVERT JUMPDEST PUSH2 0x2058 DUP3 PUSH2 0x2362 JUMP JUMPDEST PUSH1 0x40 MLOAD PUSH1 0x1 PUSH1 0x1 PUSH1 0xA0 SHL SUB DUP4 AND SWAP1 PUSH32 0xBC7CD75A20EE27FD9ADEBAB32041F755214DBC6BFFA90CC0225B39DA2E5C2D3B SWAP1 PUSH0 SWAP1 LOG2 DUP1 MLOAD ISZERO PUSH2 0x209C JUMPI PUSH2 0xBB3 DUP3 DUP3 PUSH2 0x23C5 JUMP JUMPDEST PUSH2 0x8BD PUSH2 0x2437 JUMP JUMPDEST PUSH0 DUP1 MLOAD PUSH1 0x20 PUSH2 0x34F7 DUP4 CODECOPY DUP2 MLOAD SWAP2 MSTORE SLOAD PUSH1 0xFF AND ISZERO PUSH2 0x1BF9 JUMPI PUSH1 0x40 MLOAD PUSH4 0xD93C0665 PUSH1 0xE0 SHL DUP2 MSTORE PUSH1 0x4 ADD PUSH1 0x40 MLOAD DUP1 SWAP2 SUB SWAP1 REVERT JUMPDEST PUSH32 0xF0C57E16840DF040F15088DC2F81FE391C3923BEC73E23A9662EFC9C229C6A00 SLOAD PUSH1 0x1 PUSH1 0x40 SHL SWAP1 DIV PUSH1 0xFF AND PUSH2 0x1BF9 JUMPI PUSH1 0x40 MLOAD PUSH4 0x1AFCD79F PUSH1 0xE3 SHL DUP2 MSTORE PUSH1 0x4 ADD PUSH1 0x40 MLOAD DUP1 SWAP2 SUB SWAP1 REVERT JUMPDEST PUSH2 0x2125 PUSH2 0x20D4 JUMP JUMPDEST PUSH2 0xD46 DUP2 PUSH2 0x187D JUMP JUMPDEST PUSH2 0x2136 PUSH2 0x20D4 JUMP JUMPDEST PUSH0 DUP1 MLOAD PUSH1 0x20 PUSH2 0x34F7 DUP4 CODECOPY DUP2 MLOAD SWAP2 MSTORE DUP1 SLOAD PUSH1 0xFF NOT AND SWAP1 SSTORE JUMP JUMPDEST PUSH2 0xB7A DUP5 DUP5 DUP5 DUP5 PUSH2 0x2456 JUMP JUMPDEST PUSH1 0x1 PUSH1 0x1 PUSH1 0xA0 SHL SUB DUP5 AND EXTCODESIZE ISZERO PUSH2 0xB56 JUMPI PUSH1 0x40 MLOAD PUSH4 0xF23A6E61 PUSH1 0xE0 SHL DUP2 MSTORE PUSH1 0x1 PUSH1 0x1 PUSH1 0xA0 SHL SUB DUP6 AND SWAP1 PUSH4 0xF23A6E61 SWAP1 PUSH2 0x219E SWAP1 DUP10 SWAP1 DUP10 SWAP1 DUP9 SWAP1 DUP9 SWAP1 DUP9 SWAP1 PUSH1 0x4 ADD PUSH2 0x3321 JUMP JUMPDEST PUSH1 0x20 PUSH1 0x40 MLOAD DUP1 DUP4 SUB DUP2 PUSH0 DUP8 GAS CALL SWAP3 POP POP POP DUP1 ISZERO PUSH2 0x21D8 JUMPI POP PUSH1 0x40 DUP1 MLOAD PUSH1 0x1F RETURNDATASIZE SWAP1 DUP2 ADD PUSH1 0x1F NOT AND DUP3 ADD SWAP1 SWAP3 MSTORE PUSH2 0x21D5 SWAP2 DUP2 ADD SWAP1 PUSH2 0x3365 JUMP JUMPDEST PUSH1 0x1 JUMPDEST PUSH2 0x223F JUMPI RETURNDATASIZE DUP1 DUP1 ISZERO PUSH2 0x2205 JUMPI PUSH1 0x40 MLOAD SWAP2 POP PUSH1 0x1F NOT PUSH1 0x3F RETURNDATASIZE ADD AND DUP3 ADD PUSH1 0x40 MSTORE RETURNDATASIZE DUP3 MSTORE RETURNDATASIZE PUSH0 PUSH1 0x20 DUP5 ADD RETURNDATACOPY PUSH2 0x220A JUMP JUMPDEST PUSH1 0x60 SWAP2 POP JUMPDEST POP DUP1 MLOAD PUSH0 SUB PUSH2 0x2237 JUMPI PUSH1 0x40 MLOAD PUSH4 0x2BFA23E7 PUSH1 0xE1 SHL DUP2 MSTORE PUSH1 0x1 PUSH1 0x1 PUSH1 0xA0 SHL SUB DUP7 AND PUSH1 0x4 DUP3 ADD MSTORE PUSH1 0x24 ADD PUSH2 0xA65 JUMP JUMPDEST DUP1 MLOAD DUP2 PUSH1 0x20 ADD REVERT JUMPDEST PUSH1 0x1 PUSH1 0x1 PUSH1 0xE0 SHL SUB NOT DUP2 AND PUSH4 0xF23A6E61 PUSH1 0xE0 SHL EQ PUSH2 0x1F13 JUMPI PUSH1 0x40 MLOAD PUSH4 0x2BFA23E7 PUSH1 0xE1 SHL DUP2 MSTORE PUSH1 0x1 PUSH1 0x1 PUSH1 0xA0 SHL SUB DUP7 AND PUSH1 0x4 DUP3 ADD MSTORE PUSH1 0x24 ADD PUSH2 0xA65 JUMP JUMPDEST PUSH1 0x1 PUSH1 0x1 PUSH1 0xA0 SHL SUB DUP5 AND EXTCODESIZE ISZERO PUSH2 0xB56 JUMPI PUSH1 0x40 MLOAD PUSH4 0xBC197C81 PUSH1 0xE0 SHL DUP2 MSTORE PUSH1 0x1 PUSH1 0x1 PUSH1 0xA0 SHL SUB DUP6 AND SWAP1 PUSH4 0xBC197C81 SWAP1 PUSH2 0x22BF SWAP1 DUP10 SWAP1 DUP10 SWAP1 DUP9 SWAP1 DUP9 SWAP1 DUP9 SWAP1 PUSH1 0x4 ADD PUSH2 0x3380 JUMP JUMPDEST PUSH1 0x20 PUSH1 0x40 MLOAD DUP1 DUP4 SUB DUP2 PUSH0 DUP8 GAS CALL SWAP3 POP POP POP DUP1 ISZERO PUSH2 0x22F9 JUMPI POP PUSH1 0x40 DUP1 MLOAD PUSH1 0x1F RETURNDATASIZE SWAP1 DUP2 ADD PUSH1 0x1F NOT AND DUP3 ADD SWAP1 SWAP3 MSTORE PUSH2 0x22F6 SWAP2 DUP2 ADD SWAP1 PUSH2 0x3365 JUMP JUMPDEST PUSH1 0x1 JUMPDEST PUSH2 0x2326 JUMPI RETURNDATASIZE DUP1 DUP1 ISZERO PUSH2 0x2205 JUMPI PUSH1 0x40 MLOAD SWAP2 POP PUSH1 0x1F NOT PUSH1 0x3F RETURNDATASIZE ADD AND DUP3 ADD PUSH1 0x40 MSTORE RETURNDATASIZE DUP3 MSTORE RETURNDATASIZE PUSH0 PUSH1 0x20 DUP5 ADD RETURNDATACOPY PUSH2 0x220A JUMP JUMPDEST PUSH1 0x1 PUSH1 0x1 PUSH1 0xE0 SHL SUB NOT DUP2 AND PUSH4 0xBC197C81 PUSH1 0xE0 SHL EQ PUSH2 0x1F13 JUMPI PUSH1 0x40 MLOAD PUSH4 0x2BFA23E7 PUSH1 0xE1 SHL DUP2 MSTORE PUSH1 0x1 PUSH1 0x1 PUSH1 0xA0 SHL SUB DUP7 AND PUSH1 0x4 DUP3 ADD MSTORE PUSH1 0x24 ADD PUSH2 0xA65 JUMP JUMPDEST DUP1 PUSH1 0x1 PUSH1 0x1 PUSH1 0xA0 SHL SUB AND EXTCODESIZE PUSH0 SUB PUSH2 0x2397 JUMPI PUSH1 0x40 MLOAD PUSH4 0x4C9C8CE3 PUSH1 0xE0 SHL DUP2 MSTORE PUSH1 0x1 PUSH1 0x1 PUSH1 0xA0 SHL SUB DUP3 AND PUSH1 0x4 DUP3 ADD MSTORE PUSH1 0x24 ADD PUSH2 0xA65 JUMP JUMPDEST PUSH0 DUP1 MLOAD PUSH1 0x20 PUSH2 0x3457 DUP4 CODECOPY DUP2 MLOAD SWAP2 MSTORE DUP1 SLOAD PUSH1 0x1 PUSH1 0x1 PUSH1 0xA0 SHL SUB NOT AND PUSH1 0x1 PUSH1 0x1 PUSH1 0xA0 SHL SUB SWAP3 SWAP1 SWAP3 AND SWAP2 SWAP1 SWAP2 OR SWAP1 SSTORE JUMP JUMPDEST PUSH1 0x60 PUSH0 DUP1 DUP5 PUSH1 0x1 PUSH1 0x1 PUSH1 0xA0 SHL SUB AND DUP5 PUSH1 0x40 MLOAD PUSH2 0x23E1 SWAP2 SWAP1 PUSH2 0x33DD JUMP JUMPDEST PUSH0 PUSH1 0x40 MLOAD DUP1 DUP4 SUB DUP2 DUP6 GAS DELEGATECALL SWAP2 POP POP RETURNDATASIZE DUP1 PUSH0 DUP2 EQ PUSH2 0x2419 JUMPI PUSH1 0x40 MLOAD SWAP2 POP PUSH1 0x1F NOT PUSH1 0x3F RETURNDATASIZE ADD AND DUP3 ADD PUSH1 0x40 MSTORE RETURNDATASIZE DUP3 MSTORE RETURNDATASIZE PUSH0 PUSH1 0x20 DUP5 ADD RETURNDATACOPY PUSH2 0x241E JUMP JUMPDEST PUSH1 0x60 SWAP2 POP JUMPDEST POP SWAP2 POP SWAP2 POP PUSH2 0x242E DUP6 DUP4 DUP4 PUSH2 0x25BA JUMP JUMPDEST SWAP6 SWAP5 POP POP POP POP POP JUMP JUMPDEST CALLVALUE ISZERO PUSH2 0x1BF9 JUMPI PUSH1 0x40 MLOAD PUSH4 0xB398979F PUSH1 0xE0 SHL DUP2 MSTORE PUSH1 0x4 ADD PUSH1 0x40 MLOAD DUP1 SWAP2 SUB SWAP1 REVERT JUMPDEST PUSH32 0x4A593662EE04D27B6A00EBB31BE7FE0C102C2ADE82A7C5D764F2DF05DC4E2800 PUSH2 0x2483 DUP6 DUP6 DUP6 DUP6 PUSH2 0x2619 JUMP JUMPDEST PUSH1 0x1 PUSH1 0x1 PUSH1 0xA0 SHL SUB DUP6 AND PUSH2 0x252A JUMPI PUSH0 DUP1 JUMPDEST DUP5 MLOAD DUP2 LT ISZERO PUSH2 0x250F JUMPI PUSH0 DUP5 DUP3 DUP2 MLOAD DUP2 LT PUSH2 0x24B0 JUMPI PUSH2 0x24B0 PUSH2 0x32F6 JUMP JUMPDEST PUSH1 0x20 MUL PUSH1 0x20 ADD ADD MLOAD SWAP1 POP DUP1 DUP5 PUSH0 ADD PUSH0 DUP9 DUP6 DUP2 MLOAD DUP2 LT PUSH2 0x24D1 JUMPI PUSH2 0x24D1 PUSH2 0x32F6 JUMP JUMPDEST PUSH1 0x20 MUL PUSH1 0x20 ADD ADD MLOAD DUP2 MSTORE PUSH1 0x20 ADD SWAP1 DUP2 MSTORE PUSH1 0x20 ADD PUSH0 KECCAK256 PUSH0 DUP3 DUP3 SLOAD PUSH2 0x24F4 SWAP2 SWAP1 PUSH2 0x33F3 JUMP JUMPDEST SWAP1 SWAP2 SSTORE POP PUSH2 0x2504 SWAP1 POP DUP2 DUP5 PUSH2 0x33F3 JUMP JUMPDEST SWAP3 POP POP PUSH1 0x1 ADD PUSH2 0x2494 JUMP JUMPDEST POP DUP1 DUP3 PUSH1 0x1 ADD PUSH0 DUP3 DUP3 SLOAD PUSH2 0x2523 SWAP2 SWAP1 PUSH2 0x33F3 JUMP JUMPDEST SWAP1 SWAP2 SSTORE POP POP POP JUMPDEST PUSH1 0x1 PUSH1 0x1 PUSH1 0xA0 SHL SUB DUP5 AND PUSH2 0x1977 JUMPI PUSH0 DUP1 JUMPDEST DUP5 MLOAD DUP2 LT ISZERO PUSH2 0x25A6 JUMPI PUSH0 DUP5 DUP3 DUP2 MLOAD DUP2 LT PUSH2 0x2557 JUMPI PUSH2 0x2557 PUSH2 0x32F6 JUMP JUMPDEST PUSH1 0x20 MUL PUSH1 0x20 ADD ADD MLOAD SWAP1 POP DUP1 DUP5 PUSH0 ADD PUSH0 DUP9 DUP6 DUP2 MLOAD DUP2 LT PUSH2 0x2578 JUMPI PUSH2 0x2578 PUSH2 0x32F6 JUMP JUMPDEST PUSH1 0x20 SWAP1 DUP2 MUL SWAP2 SWAP1 SWAP2 ADD DUP2 ADD MLOAD DUP3 MSTORE DUP2 ADD SWAP2 SWAP1 SWAP2 MSTORE PUSH1 0x40 ADD PUSH0 KECCAK256 DUP1 SLOAD SWAP2 SWAP1 SWAP2 SUB SWAP1 SSTORE SWAP2 SWAP1 SWAP2 ADD SWAP1 PUSH1 0x1 ADD PUSH2 0x253B JUMP JUMPDEST POP PUSH1 0x1 DUP3 ADD DUP1 SLOAD SWAP2 SWAP1 SWAP2 SUB SWAP1 SSTORE POP POP POP POP POP JUMP JUMPDEST PUSH1 0x60 DUP3 PUSH2 0x25CF JUMPI PUSH2 0x25CA DUP3 PUSH2 0x262D JUMP JUMPDEST PUSH2 0x2612 JUMP JUMPDEST DUP2 MLOAD ISZERO DUP1 ISZERO PUSH2 0x25E6 JUMPI POP PUSH1 0x1 PUSH1 0x1 PUSH1 0xA0 SHL SUB DUP5 AND EXTCODESIZE ISZERO JUMPDEST ISZERO PUSH2 0x260F JUMPI PUSH1 0x40 MLOAD PUSH4 0x9996B315 PUSH1 0xE0 SHL DUP2 MSTORE PUSH1 0x1 PUSH1 0x1 PUSH1 0xA0 SHL SUB DUP6 AND PUSH1 0x4 DUP3 ADD MSTORE PUSH1 0x24 ADD PUSH2 0xA65 JUMP JUMPDEST POP DUP1 JUMPDEST SWAP4 SWAP3 POP POP POP JUMP JUMPDEST PUSH2 0x2621 PUSH2 0x20A4 JUMP JUMPDEST PUSH2 0xB7A DUP5 DUP5 DUP5 DUP5 PUSH2 0x2656 JUMP JUMPDEST DUP1 MLOAD ISZERO PUSH2 0x263D JUMPI DUP1 MLOAD DUP1 DUP3 PUSH1 0x20 ADD REVERT JUMPDEST PUSH1 0x40 MLOAD PUSH4 0xA12F521 PUSH1 0xE1 SHL DUP2 MSTORE PUSH1 0x4 ADD PUSH1 0x40 MLOAD DUP1 SWAP2 SUB SWAP1 REVERT JUMPDEST DUP1 MLOAD DUP3 MLOAD PUSH0 DUP1 MLOAD PUSH1 0x20 PUSH2 0x3497 DUP4 CODECOPY DUP2 MLOAD SWAP2 MSTORE SWAP2 EQ PUSH2 0x2694 JUMPI DUP3 MLOAD DUP3 MLOAD PUSH1 0x40 MLOAD PUSH4 0x5B059991 PUSH1 0xE0 SHL DUP2 MSTORE PUSH1 0x4 DUP2 ADD SWAP3 SWAP1 SWAP3 MSTORE PUSH1 0x24 DUP3 ADD MSTORE PUSH1 0x44 ADD PUSH2 0xA65 JUMP JUMPDEST CALLER PUSH0 JUMPDEST DUP5 MLOAD DUP2 LT ISZERO PUSH2 0x2796 JUMPI PUSH1 0x20 DUP2 DUP2 MUL DUP7 DUP2 ADD DUP3 ADD MLOAD SWAP1 DUP7 ADD SWAP1 SWAP2 ADD MLOAD PUSH1 0x1 PUSH1 0x1 PUSH1 0xA0 SHL SUB DUP10 AND ISZERO PUSH2 0x2748 JUMPI PUSH0 DUP3 DUP2 MSTORE PUSH1 0x20 DUP7 DUP2 MSTORE PUSH1 0x40 DUP1 DUP4 KECCAK256 PUSH1 0x1 PUSH1 0x1 PUSH1 0xA0 SHL SUB DUP14 AND DUP5 MSTORE SWAP1 SWAP2 MSTORE SWAP1 KECCAK256 SLOAD DUP2 DUP2 LT ISZERO PUSH2 0x2722 JUMPI PUSH1 0x40 MLOAD PUSH4 0x3DEE4C5 PUSH1 0xE0 SHL DUP2 MSTORE PUSH1 0x1 PUSH1 0x1 PUSH1 0xA0 SHL SUB DUP12 AND PUSH1 0x4 DUP3 ADD MSTORE PUSH1 0x24 DUP2 ADD DUP3 SWAP1 MSTORE PUSH1 0x44 DUP2 ADD DUP4 SWAP1 MSTORE PUSH1 0x64 DUP2 ADD DUP5 SWAP1 MSTORE PUSH1 0x84 ADD PUSH2 0xA65 JUMP JUMPDEST PUSH0 DUP4 DUP2 MSTORE PUSH1 0x20 DUP8 DUP2 MSTORE PUSH1 0x40 DUP1 DUP4 KECCAK256 PUSH1 0x1 PUSH1 0x1 PUSH1 0xA0 SHL SUB DUP15 AND DUP5 MSTORE SWAP1 SWAP2 MSTORE SWAP1 KECCAK256 SWAP1 DUP3 SWAP1 SUB SWAP1 SSTORE JUMPDEST PUSH1 0x1 PUSH1 0x1 PUSH1 0xA0 SHL SUB DUP9 AND ISZERO PUSH2 0x278C JUMPI PUSH0 DUP3 DUP2 MSTORE PUSH1 0x20 DUP7 DUP2 MSTORE PUSH1 0x40 DUP1 DUP4 KECCAK256 PUSH1 0x1 PUSH1 0x1 PUSH1 0xA0 SHL SUB DUP13 AND DUP5 MSTORE SWAP1 SWAP2 MSTORE DUP2 KECCAK256 DUP1 SLOAD DUP4 SWAP3 SWAP1 PUSH2 0x2786 SWAP1 DUP5 SWAP1 PUSH2 0x33F3 JUMP JUMPDEST SWAP1 SWAP2 SSTORE POP POP JUMPDEST POP POP PUSH1 0x1 ADD PUSH2 0x2697 JUMP JUMPDEST POP DUP4 MLOAD PUSH1 0x1 SUB PUSH2 0x2816 JUMPI PUSH1 0x20 DUP5 ADD MLOAD PUSH0 SWAP1 PUSH1 0x20 DUP6 ADD MLOAD SWAP1 SWAP2 POP DUP7 PUSH1 0x1 PUSH1 0x1 PUSH1 0xA0 SHL SUB AND DUP9 PUSH1 0x1 PUSH1 0x1 PUSH1 0xA0 SHL SUB AND DUP5 PUSH1 0x1 PUSH1 0x1 PUSH1 0xA0 SHL SUB AND PUSH32 0xC3D58168C5AE7397731D063D5BBF3D657854427343F4C083240F7AACAA2D0F62 DUP6 DUP6 PUSH1 0x40 MLOAD PUSH2 0x2807 SWAP3 SWAP2 SWAP1 SWAP2 DUP3 MSTORE PUSH1 0x20 DUP3 ADD MSTORE PUSH1 0x40 ADD SWAP1 JUMP JUMPDEST PUSH1 0x40 MLOAD DUP1 SWAP2 SUB SWAP1 LOG4 POP POP PUSH2 0xB56 JUMP JUMPDEST DUP5 PUSH1 0x1 PUSH1 0x1 PUSH1 0xA0 SHL SUB AND DUP7 PUSH1 0x1 PUSH1 0x1 PUSH1 0xA0 SHL SUB AND DUP3 PUSH1 0x1 PUSH1 0x1 PUSH1 0xA0 SHL SUB AND PUSH32 0x4A39DC06D4C0DBC64B70AF90FD698A233A518AA5D07E595D983B8C0526C8F7FB DUP8 DUP8 PUSH1 0x40 MLOAD PUSH2 0x2865 SWAP3 SWAP2 SWAP1 PUSH2 0x3412 JUMP JUMPDEST PUSH1 0x40 MLOAD DUP1 SWAP2 SUB SWAP1 LOG4 POP POP POP POP POP POP JUMP JUMPDEST DUP1 CALLDATALOAD PUSH1 0x1 PUSH1 0x1 PUSH1 0xA0 SHL SUB DUP2 AND DUP2 EQ PUSH2 0x288B JUMPI PUSH0 DUP1 REVERT JUMPDEST SWAP2 SWAP1 POP JUMP JUMPDEST PUSH0 DUP1 PUSH1 0x40 DUP4 DUP6 SUB SLT ISZERO PUSH2 0x28A1 JUMPI PUSH0 DUP1 REVERT JUMPDEST PUSH2 0x28AA DUP4 PUSH2 0x2875 JUMP JUMPDEST SWAP5 PUSH1 0x20 SWAP4 SWAP1 SWAP4 ADD CALLDATALOAD SWAP4 POP POP POP JUMP JUMPDEST PUSH1 0x1 PUSH1 0x1 PUSH1 0xE0 SHL SUB NOT DUP2 AND DUP2 EQ PUSH2 0xD46 JUMPI PUSH0 DUP1 REVERT JUMPDEST PUSH0 PUSH1 0x20 DUP3 DUP5 SUB SLT ISZERO PUSH2 0x28DD JUMPI PUSH0 DUP1 REVERT JUMPDEST DUP2 CALLDATALOAD PUSH2 0x2612 DUP2 PUSH2 0x28B8 JUMP JUMPDEST PUSH4 0x4E487B71 PUSH1 0xE0 SHL PUSH0 MSTORE PUSH1 0x41 PUSH1 0x4 MSTORE PUSH1 0x24 PUSH0 REVERT JUMPDEST PUSH1 0x40 MLOAD PUSH1 0x1F DUP3 ADD PUSH1 0x1F NOT AND DUP2 ADD PUSH1 0x1 PUSH1 0x1 PUSH1 0x40 SHL SUB DUP2 GT DUP3 DUP3 LT OR ISZERO PUSH2 0x2924 JUMPI PUSH2 0x2924 PUSH2 0x28E8 JUMP JUMPDEST PUSH1 0x40 MSTORE SWAP2 SWAP1 POP JUMP JUMPDEST PUSH0 DUP3 PUSH1 0x1F DUP4 ADD SLT PUSH2 0x293B JUMPI PUSH0 DUP1 REVERT JUMPDEST DUP2 CALLDATALOAD PUSH1 0x20 DUP4 ADD PUSH0 DUP1 PUSH1 0x1 PUSH1 0x1 PUSH1 0x40 SHL SUB DUP5 GT ISZERO PUSH2 0x295A JUMPI PUSH2 0x295A PUSH2 0x28E8 JUMP JUMPDEST POP PUSH1 0x1F DUP4 ADD PUSH1 0x1F NOT AND PUSH1 0x20 ADD PUSH2 0x296F DUP2 PUSH2 0x28FC JUMP JUMPDEST SWAP2 POP POP DUP3 DUP2 MSTORE DUP6 DUP4 DUP4 ADD GT ISZERO PUSH2 0x2983 JUMPI PUSH0 DUP1 REVERT JUMPDEST DUP3 DUP3 PUSH1 0x20 DUP4 ADD CALLDATACOPY PUSH0 SWAP3 DUP2 ADD PUSH1 0x20 ADD SWAP3 SWAP1 SWAP3 MSTORE POP SWAP4 SWAP3 POP POP POP JUMP JUMPDEST PUSH0 PUSH1 0x20 DUP3 DUP5 SUB SLT ISZERO PUSH2 0x29AD JUMPI PUSH0 DUP1 REVERT JUMPDEST DUP2 CALLDATALOAD PUSH1 0x1 PUSH1 0x1 PUSH1 0x40 SHL SUB DUP2 GT ISZERO PUSH2 0x29C2 JUMPI PUSH0 DUP1 REVERT JUMPDEST PUSH2 0x29CE DUP5 DUP3 DUP6 ADD PUSH2 0x292C JUMP JUMPDEST SWAP5 SWAP4 POP POP POP POP JUMP JUMPDEST DUP1 CALLDATALOAD PUSH1 0x8 DUP2 LT PUSH2 0x288B JUMPI PUSH0 DUP1 REVERT JUMPDEST PUSH0 DUP1 PUSH0 DUP1 PUSH0 DUP1 PUSH1 0xC0 DUP8 DUP10 SUB SLT ISZERO PUSH2 0x29F9 JUMPI PUSH0 DUP1 REVERT JUMPDEST PUSH2 0x2A02 DUP8 PUSH2 0x2875 JUMP JUMPDEST SWAP6 POP PUSH1 0x20 DUP8 ADD CALLDATALOAD SWAP5 POP PUSH1 0x40 DUP8 ADD CALLDATALOAD SWAP4 POP PUSH1 0x60 DUP8 ADD CALLDATALOAD PUSH1 0x1 PUSH1 0x1 PUSH1 0x40 SHL SUB DUP2 GT ISZERO PUSH2 0x2A2A JUMPI PUSH0 DUP1 REVERT JUMPDEST PUSH2 0x2A36 DUP10 DUP3 DUP11 ADD PUSH2 0x292C JUMP JUMPDEST SWAP4 POP POP PUSH2 0x2A45 PUSH1 0x80 DUP9 ADD PUSH2 0x29D6 JUMP JUMPDEST SWAP2 POP PUSH1 0xA0 DUP8 ADD CALLDATALOAD PUSH1 0x1 PUSH1 0x1 PUSH1 0x40 SHL SUB DUP2 GT ISZERO PUSH2 0x2A5F JUMPI PUSH0 DUP1 REVERT JUMPDEST PUSH2 0x2A6B DUP10 DUP3 DUP11 ADD PUSH2 0x292C JUMP JUMPDEST SWAP2 POP POP SWAP3 SWAP6 POP SWAP3 SWAP6 POP SWAP3 SWAP6 JUMP JUMPDEST PUSH0 PUSH1 0x20 DUP3 DUP5 SUB SLT ISZERO PUSH2 0x2A88 JUMPI PUSH0 DUP1 REVERT JUMPDEST POP CALLDATALOAD SWAP2 SWAP1 POP JUMP JUMPDEST PUSH0 DUP2 MLOAD DUP1 DUP5 MSTORE DUP1 PUSH1 0x20 DUP5 ADD PUSH1 0x20 DUP7 ADD MCOPY PUSH0 PUSH1 0x20 DUP3 DUP7 ADD ADD MSTORE PUSH1 0x20 PUSH1 0x1F NOT PUSH1 0x1F DUP4 ADD AND DUP6 ADD ADD SWAP2 POP POP SWAP3 SWAP2 POP POP JUMP JUMPDEST PUSH1 0x20 DUP2 MSTORE PUSH0 PUSH2 0x2612 PUSH1 0x20 DUP4 ADD DUP5 PUSH2 0x2A8F JUMP JUMPDEST PUSH0 DUP1 PUSH1 0x40 DUP4 DUP6 SUB SLT ISZERO PUSH2 0x2AE0 JUMPI PUSH0 DUP1 REVERT JUMPDEST POP POP DUP1 CALLDATALOAD SWAP3 PUSH1 0x20 SWAP1 SWAP2 ADD CALLDATALOAD SWAP2 POP JUMP JUMPDEST PUSH0 PUSH1 0x1 PUSH1 0x1 PUSH1 0x40 SHL SUB DUP3 GT ISZERO PUSH2 0x2B07 JUMPI PUSH2 0x2B07 PUSH2 0x28E8 JUMP JUMPDEST POP PUSH1 0x5 SHL PUSH1 0x20 ADD SWAP1 JUMP JUMPDEST PUSH0 DUP3 PUSH1 0x1F DUP4 ADD SLT PUSH2 0x2B20 JUMPI PUSH0 DUP1 REVERT JUMPDEST DUP2 CALLDATALOAD PUSH2 0x2B33 PUSH2 0x2B2E DUP3 PUSH2 0x2AEF JUMP JUMPDEST PUSH2 0x28FC JUMP JUMPDEST DUP1 DUP3 DUP3 MSTORE PUSH1 0x20 DUP3 ADD SWAP2 POP PUSH1 0x20 DUP4 PUSH1 0x5 SHL DUP7 ADD ADD SWAP3 POP DUP6 DUP4 GT ISZERO PUSH2 0x2B54 JUMPI PUSH0 DUP1 REVERT JUMPDEST PUSH1 0x20 DUP6 ADD JUMPDEST DUP4 DUP2 LT ISZERO PUSH2 0x2B71 JUMPI DUP1 CALLDATALOAD DUP4 MSTORE PUSH1 0x20 SWAP3 DUP4 ADD SWAP3 ADD PUSH2 0x2B59 JUMP JUMPDEST POP SWAP6 SWAP5 POP POP POP POP POP JUMP JUMPDEST PUSH0 DUP1 PUSH0 DUP1 PUSH0 PUSH1 0xA0 DUP7 DUP9 SUB SLT ISZERO PUSH2 0x2B8F JUMPI PUSH0 DUP1 REVERT JUMPDEST PUSH2 0x2B98 DUP7 PUSH2 0x2875 JUMP JUMPDEST SWAP5 POP PUSH2 0x2BA6 PUSH1 0x20 DUP8 ADD PUSH2 0x2875 JUMP JUMPDEST SWAP4 POP PUSH1 0x40 DUP7 ADD CALLDATALOAD PUSH1 0x1 PUSH1 0x1 PUSH1 0x40 SHL SUB DUP2 GT ISZERO PUSH2 0x2BC0 JUMPI PUSH0 DUP1 REVERT JUMPDEST PUSH2 0x2BCC DUP9 DUP3 DUP10 ADD PUSH2 0x2B11 JUMP JUMPDEST SWAP4 POP POP PUSH1 0x60 DUP7 ADD CALLDATALOAD PUSH1 0x1 PUSH1 0x1 PUSH1 0x40 SHL SUB DUP2 GT ISZERO PUSH2 0x2BE7 JUMPI PUSH0 DUP1 REVERT JUMPDEST PUSH2 0x2BF3 DUP9 DUP3 DUP10 ADD PUSH2 0x2B11 JUMP JUMPDEST SWAP3 POP POP PUSH1 0x80 DUP7 ADD CALLDATALOAD PUSH1 0x1 PUSH1 0x1 PUSH1 0x40 SHL SUB DUP2 GT ISZERO PUSH2 0x2C0E JUMPI PUSH0 DUP1 REVERT JUMPDEST PUSH2 0x2C1A DUP9 DUP3 DUP10 ADD PUSH2 0x292C JUMP JUMPDEST SWAP2 POP POP SWAP3 SWAP6 POP SWAP3 SWAP6 SWAP1 SWAP4 POP JUMP JUMPDEST PUSH0 DUP1 PUSH1 0x40 DUP4 DUP6 SUB SLT ISZERO PUSH2 0x2C38 JUMPI PUSH0 DUP1 REVERT JUMPDEST DUP3 CALLDATALOAD SWAP2 POP PUSH2 0x2C48 PUSH1 0x20 DUP5 ADD PUSH2 0x2875 JUMP JUMPDEST SWAP1 POP SWAP3 POP SWAP3 SWAP1 POP JUMP JUMPDEST PUSH0 DUP1 PUSH1 0x40 DUP4 DUP6 SUB SLT ISZERO PUSH2 0x2C62 JUMPI PUSH0 DUP1 REVERT JUMPDEST DUP3 CALLDATALOAD PUSH1 0x1 PUSH1 0x1 PUSH1 0x40 SHL SUB DUP2 GT ISZERO PUSH2 0x2C77 JUMPI PUSH0 DUP1 REVERT JUMPDEST DUP4 ADD PUSH1 0x1F DUP2 ADD DUP6 SGT PUSH2 0x2C87 JUMPI PUSH0 DUP1 REVERT JUMPDEST DUP1 CALLDATALOAD PUSH2 0x2C95 PUSH2 0x2B2E DUP3 PUSH2 0x2AEF JUMP JUMPDEST DUP1 DUP3 DUP3 MSTORE PUSH1 0x20 DUP3 ADD SWAP2 POP PUSH1 0x20 DUP4 PUSH1 0x5 SHL DUP6 ADD ADD SWAP3 POP DUP8 DUP4 GT ISZERO PUSH2 0x2CB6 JUMPI PUSH0 DUP1 REVERT JUMPDEST PUSH1 0x20 DUP5 ADD SWAP4 POP JUMPDEST DUP3 DUP5 LT ISZERO PUSH2 0x2CDF JUMPI PUSH2 0x2CCE DUP5 PUSH2 0x2875 JUMP JUMPDEST DUP3 MSTORE PUSH1 0x20 SWAP4 DUP5 ADD SWAP4 SWAP1 SWAP2 ADD SWAP1 PUSH2 0x2CBD JUMP JUMPDEST SWAP5 POP POP POP POP PUSH1 0x20 DUP4 ADD CALLDATALOAD PUSH1 0x1 PUSH1 0x1 PUSH1 0x40 SHL SUB DUP2 GT ISZERO PUSH2 0x2CFC JUMPI PUSH0 DUP1 REVERT JUMPDEST PUSH2 0x2D08 DUP6 DUP3 DUP7 ADD PUSH2 0x2B11 JUMP JUMPDEST SWAP2 POP POP SWAP3 POP SWAP3 SWAP1 POP JUMP JUMPDEST PUSH0 DUP2 MLOAD DUP1 DUP5 MSTORE PUSH1 0x20 DUP5 ADD SWAP4 POP PUSH1 0x20 DUP4 ADD PUSH0 JUMPDEST DUP3 DUP2 LT ISZERO PUSH2 0x2D42 JUMPI DUP2 MLOAD DUP7 MSTORE PUSH1 0x20 SWAP6 DUP7 ADD SWAP6 SWAP1 SWAP2 ADD SWAP1 PUSH1 0x1 ADD PUSH2 0x2D24 JUMP JUMPDEST POP SWAP4 SWAP5 SWAP4 POP POP POP POP JUMP JUMPDEST PUSH1 0x20 DUP2 MSTORE PUSH0 PUSH2 0x2612 PUSH1 0x20 DUP4 ADD DUP5 PUSH2 0x2D12 JUMP JUMPDEST PUSH0 DUP1 PUSH1 0x40 DUP4 DUP6 SUB SLT ISZERO PUSH2 0x2D6F JUMPI PUSH0 DUP1 REVERT JUMPDEST PUSH2 0x2D78 DUP4 PUSH2 0x2875 JUMP JUMPDEST SWAP2 POP PUSH1 0x20 DUP4 ADD CALLDATALOAD PUSH1 0x1 PUSH1 0x1 PUSH1 0x40 SHL SUB DUP2 GT ISZERO PUSH2 0x2D92 JUMPI PUSH0 DUP1 REVERT JUMPDEST PUSH2 0x2D08 DUP6 DUP3 DUP7 ADD PUSH2 0x292C JUMP JUMPDEST PUSH0 DUP1 PUSH0 PUSH1 0x60 DUP5 DUP7 SUB SLT ISZERO PUSH2 0x2DB0 JUMPI PUSH0 DUP1 REVERT JUMPDEST PUSH2 0x2DB9 DUP5 PUSH2 0x2875 JUMP JUMPDEST SWAP3 POP PUSH1 0x20 DUP5 ADD CALLDATALOAD PUSH1 0x1 PUSH1 0x1 PUSH1 0x40 SHL SUB DUP2 GT ISZERO PUSH2 0x2DD3 JUMPI PUSH0 DUP1 REVERT JUMPDEST PUSH2 0x2DDF DUP7 DUP3 DUP8 ADD PUSH2 0x2B11 JUMP JUMPDEST SWAP3 POP POP PUSH1 0x40 DUP5 ADD CALLDATALOAD PUSH1 0x1 PUSH1 0x1 PUSH1 0x40 SHL SUB DUP2 GT ISZERO PUSH2 0x2DFA JUMPI PUSH0 DUP1 REVERT JUMPDEST PUSH2 0x2E06 DUP7 DUP3 DUP8 ADD PUSH2 0x2B11 JUMP JUMPDEST SWAP2 POP POP SWAP3 POP SWAP3 POP SWAP3 JUMP JUMPDEST PUSH0 DUP1 PUSH1 0x40 DUP4 DUP6 SUB SLT ISZERO PUSH2 0x2E21 JUMPI PUSH0 DUP1 REVERT JUMPDEST PUSH2 0x2E2A DUP4 PUSH2 0x2875 JUMP JUMPDEST SWAP2 POP PUSH1 0x20 DUP4 ADD CALLDATALOAD DUP1 ISZERO ISZERO DUP2 EQ PUSH2 0x2E3E JUMPI PUSH0 DUP1 REVERT JUMPDEST DUP1 SWAP2 POP POP SWAP3 POP SWAP3 SWAP1 POP JUMP JUMPDEST PUSH0 DUP1 PUSH0 PUSH1 0x60 DUP5 DUP7 SUB SLT ISZERO PUSH2 0x2E5B JUMPI PUSH0 DUP1 REVERT JUMPDEST DUP4 CALLDATALOAD SWAP3 POP PUSH1 0x20 DUP5 ADD CALLDATALOAD SWAP2 POP PUSH2 0x2E72 PUSH1 0x40 DUP6 ADD PUSH2 0x2875 JUMP JUMPDEST SWAP1 POP SWAP3 POP SWAP3 POP SWAP3 JUMP JUMPDEST PUSH0 DUP3 PUSH1 0x1F DUP4 ADD SLT PUSH2 0x2E8A JUMPI PUSH0 DUP1 REVERT JUMPDEST DUP2 CALLDATALOAD PUSH2 0x2E98 PUSH2 0x2B2E DUP3 PUSH2 0x2AEF JUMP JUMPDEST DUP1 DUP3 DUP3 MSTORE PUSH1 0x20 DUP3 ADD SWAP2 POP PUSH1 0x20 DUP4 PUSH1 0x5 SHL DUP7 ADD ADD SWAP3 POP DUP6 DUP4 GT ISZERO PUSH2 0x2EB9 JUMPI PUSH0 DUP1 REVERT JUMPDEST PUSH1 0x20 DUP6 ADD JUMPDEST DUP4 DUP2 LT ISZERO PUSH2 0x2B71 JUMPI PUSH2 0x2ECF DUP2 PUSH2 0x29D6 JUMP JUMPDEST DUP4 MSTORE PUSH1 0x20 SWAP3 DUP4 ADD SWAP3 ADD PUSH2 0x2EBE JUMP JUMPDEST PUSH0 DUP3 PUSH1 0x1F DUP4 ADD SLT PUSH2 0x2EEC JUMPI PUSH0 DUP1 REVERT JUMPDEST DUP2 CALLDATALOAD PUSH2 0x2EFA PUSH2 0x2B2E DUP3 PUSH2 0x2AEF JUMP JUMPDEST DUP1 DUP3 DUP3 MSTORE PUSH1 0x20 DUP3 ADD SWAP2 POP PUSH1 0x20 DUP4 PUSH1 0x5 SHL DUP7 ADD ADD SWAP3 POP DUP6 DUP4 GT ISZERO PUSH2 0x2F1B JUMPI PUSH0 DUP1 REVERT JUMPDEST PUSH1 0x20 DUP6 ADD JUMPDEST DUP4 DUP2 LT ISZERO PUSH2 0x2B71 JUMPI DUP1 CALLDATALOAD PUSH1 0x1 PUSH1 0x1 PUSH1 0x40 SHL SUB DUP2 GT ISZERO PUSH2 0x2F3D JUMPI PUSH0 DUP1 REVERT JUMPDEST PUSH2 0x2F4C DUP9 PUSH1 0x20 DUP4 DUP11 ADD ADD PUSH2 0x292C JUMP JUMPDEST DUP5 MSTORE POP PUSH1 0x20 SWAP3 DUP4 ADD SWAP3 ADD PUSH2 0x2F20 JUMP JUMPDEST PUSH0 DUP1 PUSH0 DUP1 PUSH0 DUP1 PUSH1 0xC0 DUP8 DUP10 SUB SLT ISZERO PUSH2 0x2F70 JUMPI PUSH0 DUP1 REVERT JUMPDEST PUSH2 0x2F79 DUP8 PUSH2 0x2875 JUMP JUMPDEST SWAP6 POP PUSH1 0x20 DUP8 ADD CALLDATALOAD PUSH1 0x1 PUSH1 0x1 PUSH1 0x40 SHL SUB DUP2 GT ISZERO PUSH2 0x2F93 JUMPI PUSH0 DUP1 REVERT JUMPDEST PUSH2 0x2F9F DUP10 DUP3 DUP11 ADD PUSH2 0x2B11 JUMP JUMPDEST SWAP6 POP POP PUSH1 0x40 DUP8 ADD CALLDATALOAD PUSH1 0x1 PUSH1 0x1 PUSH1 0x40 SHL SUB DUP2 GT ISZERO PUSH2 0x2FBA JUMPI PUSH0 DUP1 REVERT JUMPDEST PUSH2 0x2FC6 DUP10 DUP3 DUP11 ADD PUSH2 0x2B11 JUMP JUMPDEST SWAP5 POP POP PUSH1 0x60 DUP8 ADD CALLDATALOAD PUSH1 0x1 PUSH1 0x1 PUSH1 0x40 SHL SUB DUP2 GT ISZERO PUSH2 0x2FE1 JUMPI PUSH0 DUP1 REVERT JUMPDEST PUSH2 0x2FED DUP10 DUP3 DUP11 ADD PUSH2 0x292C JUMP JUMPDEST SWAP4 POP POP PUSH1 0x80 DUP8 ADD CALLDATALOAD PUSH1 0x1 PUSH1 0x1 PUSH1 0x40 SHL SUB DUP2 GT ISZERO PUSH2 0x3008 JUMPI PUSH0 DUP1 REVERT JUMPDEST PUSH2 0x3014 DUP10 DUP3 DUP11 ADD PUSH2 0x2E7B JUMP JUMPDEST SWAP3 POP POP PUSH1 0xA0 DUP8 ADD CALLDATALOAD PUSH1 0x1 PUSH1 0x1 PUSH1 0x40 SHL SUB DUP2 GT ISZERO PUSH2 0x302F JUMPI PUSH0 DUP1 REVERT JUMPDEST PUSH2 0x2A6B DUP10 DUP3 DUP11 ADD PUSH2 0x2EDD JUMP JUMPDEST PUSH0 DUP1 PUSH1 0x40 DUP4 DUP6 SUB SLT ISZERO PUSH2 0x304C JUMPI PUSH0 DUP1 REVERT JUMPDEST PUSH2 0x3055 DUP4 PUSH2 0x2875 JUMP JUMPDEST SWAP2 POP PUSH2 0x2C48 PUSH1 0x20 DUP5 ADD PUSH2 0x2875 JUMP JUMPDEST PUSH0 DUP1 PUSH0 DUP1 PUSH0 PUSH1 0xA0 DUP7 DUP9 SUB SLT ISZERO PUSH2 0x3077 JUMPI PUSH0 DUP1 REVERT JUMPDEST PUSH2 0x3080 DUP7 PUSH2 0x2875 JUMP JUMPDEST SWAP5 POP PUSH2 0x308E PUSH1 0x20 DUP8 ADD PUSH2 0x2875 JUMP JUMPDEST SWAP4 POP PUSH1 0x40 DUP7 ADD CALLDATALOAD SWAP3 POP PUSH1 0x60 DUP7 ADD CALLDATALOAD SWAP2 POP PUSH1 0x80 DUP7 ADD CALLDATALOAD PUSH1 0x1 PUSH1 0x1 PUSH1 0x40 SHL SUB DUP2 GT ISZERO PUSH2 0x2C0E JUMPI PUSH0 DUP1 REVERT JUMPDEST PUSH0 DUP1 PUSH0 PUSH1 0x60 DUP5 DUP7 SUB SLT ISZERO PUSH2 0x30C8 JUMPI PUSH0 DUP1 REVERT JUMPDEST PUSH2 0x30D1 DUP5 PUSH2 0x2875 JUMP JUMPDEST SWAP6 PUSH1 0x20 DUP6 ADD CALLDATALOAD SWAP6 POP PUSH1 0x40 SWAP1 SWAP5 ADD CALLDATALOAD SWAP4 SWAP3 POP POP POP JUMP JUMPDEST PUSH0 DUP1 PUSH0 DUP1 PUSH1 0x80 DUP6 DUP8 SUB SLT ISZERO PUSH2 0x30F9 JUMPI PUSH0 DUP1 REVERT JUMPDEST PUSH2 0x3102 DUP6 PUSH2 0x2875 JUMP JUMPDEST SWAP4 POP PUSH2 0x3110 PUSH1 0x20 DUP7 ADD PUSH2 0x2875 JUMP JUMPDEST SWAP3 POP PUSH2 0x311E PUSH1 0x40 DUP7 ADD PUSH2 0x2875 JUMP JUMPDEST SWAP2 POP PUSH2 0x312C PUSH1 0x60 DUP7 ADD PUSH2 0x2875 JUMP JUMPDEST SWAP1 POP SWAP3 SWAP6 SWAP2 SWAP5 POP SWAP3 POP JUMP JUMPDEST PUSH4 0x4E487B71 PUSH1 0xE0 SHL PUSH0 MSTORE PUSH1 0x21 PUSH1 0x4 MSTORE PUSH1 0x24 PUSH0 REVERT JUMPDEST PUSH0 PUSH1 0x8 DUP5 LT PUSH2 0x3168 JUMPI PUSH4 0x4E487B71 PUSH1 0xE0 SHL PUSH0 MSTORE PUSH1 0x21 PUSH1 0x4 MSTORE PUSH1 0x24 PUSH0 REVERT JUMPDEST DUP4 DUP3 MSTORE PUSH1 0x40 PUSH1 0x20 DUP4 ADD MSTORE PUSH2 0x29CE PUSH1 0x40 DUP4 ADD DUP5 PUSH2 0x2A8F JUMP JUMPDEST PUSH1 0x1 DUP2 DUP2 SHR SWAP1 DUP3 AND DUP1 PUSH2 0x3193 JUMPI PUSH1 0x7F DUP3 AND SWAP2 POP JUMPDEST PUSH1 0x20 DUP3 LT DUP2 SUB PUSH2 0x31B1 JUMPI PUSH4 0x4E487B71 PUSH1 0xE0 SHL PUSH0 MSTORE PUSH1 0x22 PUSH1 0x4 MSTORE PUSH1 0x24 PUSH0 REVERT JUMPDEST POP SWAP2 SWAP1 POP JUMP JUMPDEST PUSH1 0x1F DUP3 GT ISZERO PUSH2 0xBB3 JUMPI DUP1 PUSH0 MSTORE PUSH1 0x20 PUSH0 KECCAK256 PUSH1 0x1F DUP5 ADD PUSH1 0x5 SHR DUP2 ADD PUSH1 0x20 DUP6 LT ISZERO PUSH2 0x31DC JUMPI POP DUP1 JUMPDEST PUSH1 0x1F DUP5 ADD PUSH1 0x5 SHR DUP3 ADD SWAP2 POP JUMPDEST DUP2 DUP2 LT ISZERO PUSH2 0x1977 JUMPI PUSH0 DUP2 SSTORE PUSH1 0x1 ADD PUSH2 0x31E8 JUMP JUMPDEST DUP2 MLOAD PUSH1 0x1 PUSH1 0x1 PUSH1 0x40 SHL SUB DUP2 GT ISZERO PUSH2 0x3214 JUMPI PUSH2 0x3214 PUSH2 0x28E8 JUMP JUMPDEST PUSH2 0x3228 DUP2 PUSH2 0x3222 DUP5 SLOAD PUSH2 0x317F JUMP JUMPDEST DUP5 PUSH2 0x31B7 JUMP JUMPDEST PUSH1 0x20 PUSH1 0x1F DUP3 GT PUSH1 0x1 DUP2 EQ PUSH2 0x325A JUMPI PUSH0 DUP4 ISZERO PUSH2 0x3243 JUMPI POP DUP5 DUP3 ADD MLOAD JUMPDEST PUSH0 NOT PUSH1 0x3 DUP6 SWAP1 SHL SHR NOT AND PUSH1 0x1 DUP5 SWAP1 SHL OR DUP5 SSTORE PUSH2 0x1977 JUMP JUMPDEST PUSH0 DUP5 DUP2 MSTORE PUSH1 0x20 DUP2 KECCAK256 PUSH1 0x1F NOT DUP6 AND SWAP2 JUMPDEST DUP3 DUP2 LT ISZERO PUSH2 0x3289 JUMPI DUP8 DUP6 ADD MLOAD DUP3 SSTORE PUSH1 0x20 SWAP5 DUP6 ADD SWAP5 PUSH1 0x1 SWAP1 SWAP3 ADD SWAP2 ADD PUSH2 0x3269 JUMP JUMPDEST POP DUP5 DUP3 LT ISZERO PUSH2 0x32A6 JUMPI DUP7 DUP5 ADD MLOAD PUSH0 NOT PUSH1 0x3 DUP8 SWAP1 SHL PUSH1 0xF8 AND SHR NOT AND DUP2 SSTORE JUMPDEST POP POP POP POP PUSH1 0x1 SWAP1 DUP2 SHL ADD SWAP1 SSTORE POP JUMP JUMPDEST PUSH1 0x20 DUP1 DUP3 MSTORE PUSH1 0x21 SWAP1 DUP3 ADD MSTORE PUSH32 0x43727970746F51756573743A20496E73756666696369656E742062616C616E63 PUSH1 0x40 DUP3 ADD MSTORE PUSH1 0x65 PUSH1 0xF8 SHL PUSH1 0x60 DUP3 ADD MSTORE PUSH1 0x80 ADD SWAP1 JUMP JUMPDEST PUSH4 0x4E487B71 PUSH1 0xE0 SHL PUSH0 MSTORE PUSH1 0x32 PUSH1 0x4 MSTORE PUSH1 0x24 PUSH0 REVERT JUMPDEST PUSH0 PUSH1 0x20 DUP3 DUP5 SUB SLT ISZERO PUSH2 0x331A JUMPI PUSH0 DUP1 REVERT JUMPDEST POP MLOAD SWAP2 SWAP1 POP JUMP JUMPDEST PUSH1 0x1 PUSH1 0x1 PUSH1 0xA0 SHL SUB DUP7 DUP2 AND DUP3 MSTORE DUP6 AND PUSH1 0x20 DUP3 ADD MSTORE PUSH1 0x40 DUP2 ADD DUP5 SWAP1 MSTORE PUSH1 0x60 DUP2 ADD DUP4 SWAP1 MSTORE PUSH1 0xA0 PUSH1 0x80 DUP3 ADD DUP2 SWAP1 MSTORE PUSH0 SWAP1 PUSH2 0x335A SWAP1 DUP4 ADD DUP5 PUSH2 0x2A8F JUMP JUMPDEST SWAP8 SWAP7 POP POP POP POP POP POP POP JUMP JUMPDEST PUSH0 PUSH1 0x20 DUP3 DUP5 SUB SLT ISZERO PUSH2 0x3375 JUMPI PUSH0 DUP1 REVERT JUMPDEST DUP2 MLOAD PUSH2 0x2612 DUP2 PUSH2 0x28B8 JUMP JUMPDEST PUSH1 0x1 PUSH1 0x1 PUSH1 0xA0 SHL SUB DUP7 DUP2 AND DUP3 MSTORE DUP6 AND PUSH1 0x20 DUP3 ADD MSTORE PUSH1 0xA0 PUSH1 0x40 DUP3 ADD DUP2 SWAP1 MSTORE PUSH0 SWAP1 PUSH2 0x33AB SWAP1 DUP4 ADD DUP7 PUSH2 0x2D12 JUMP JUMPDEST DUP3 DUP2 SUB PUSH1 0x60 DUP5 ADD MSTORE PUSH2 0x33BD DUP2 DUP7 PUSH2 0x2D12 JUMP JUMPDEST SWAP1 POP DUP3 DUP2 SUB PUSH1 0x80 DUP5 ADD MSTORE PUSH2 0x33D1 DUP2 DUP6 PUSH2 0x2A8F JUMP JUMPDEST SWAP9 SWAP8 POP POP POP POP POP POP POP POP JUMP JUMPDEST PUSH0 DUP3 MLOAD DUP1 PUSH1 0x20 DUP6 ADD DUP5 MCOPY PUSH0 SWAP3 ADD SWAP2 DUP3 MSTORE POP SWAP2 SWAP1 POP JUMP JUMPDEST DUP1 DUP3 ADD DUP1 DUP3 GT ISZERO PUSH2 0x87A JUMPI PUSH4 0x4E487B71 PUSH1 0xE0 SHL PUSH0 MSTORE PUSH1 0x11 PUSH1 0x4 MSTORE PUSH1 0x24 PUSH0 REVERT JUMPDEST PUSH1 0x40 DUP2 MSTORE PUSH0 PUSH2 0x3424 PUSH1 0x40 DUP4 ADD DUP6 PUSH2 0x2D12 JUMP JUMPDEST DUP3 DUP2 SUB PUSH1 0x20 DUP5 ADD MSTORE PUSH2 0x242E DUP2 DUP6 PUSH2 0x2D12 JUMP INVALID NUMBER PUSH19 0x7970746F51756573743A20596F7520646F206E PUSH16 0x74206F776E2074686973360894A13BA1 LOG3 0x21 MOD PUSH8 0xC828492DB98DCA3E KECCAK256 PUSH23 0xCC3735A920A3CA505D382BBC65D7A28E3265B37A647492 SWAP16 CALLER PUSH6 0x21B332C1681B SWAP4 EXTCODEHASH PUSH13 0xB9F3376673440D862A88BE536D MSTORE BLOCKHASH 0xC2 PUSH21 0xA3B1D3A1BE54482FD9CAA294F08C62A7CDE569F49A EXTCODECOPY GASLIMIT STOP SWAP16 0x2D CREATE INVALID 0xD2 0xC7 PUSH23 0x48DE5860A4CC508CD0818C85B8B8A1AB4CEEEF8D981C89 JUMP 0xA6 MUL 0xDD PUSH28 0xC7DEC4DCEEDDA775E58DD541E08A116C6C53815C0BD028192F7B6268 STOP 0xCD MCOPY 0xD1 TLOAD PUSH15 0x187E77E9AEE88184C21F4F2182AB58 0x27 0xCB EXTCODESIZE PUSH31 0x7FBEDCD63F03300A2646970667358221220EB5DB71C049910D41B834D4965 SWAP12 0xAB EXTCODESIZE DUP11 PUSH14 0x3CBE05C594625BAF0659890B56CC PUSH5 0x736F6C6343 STOP ADDMOD BYTE STOP CALLER "
		},
		"gasEstimates": {
			"creation": {
				"codeDepositCost": "2728800",
				"executionCost": "infinite",
				"totalCost": "infinite"
			},
			"external": {
				"DEFAULT_ADMIN_ROLE()": "294",
				"MINTER_ROLE()": "infinite",
				"PAUSER_ROLE()": "infinite",
				"UPGRADER_ROLE()": "271",
				"UPGRADE_INTERFACE_VERSION()": "infinite",
				"URI_SETTER_ROLE()": "338",
				"balanceOf(address,uint256)": "infinite",
				"balanceOfBatch(address[],uint256[])": "infinite",
				"burn(address,uint256,uint256)": "infinite",
				"burnBatch(address,uint256[],uint256[])": "infinite",
				"claimLand(uint256)": "infinite",
				"displayCosmetic(uint256)": "infinite",
				"displayGuildBanner(uint256)": "infinite",
				"exists(uint256)": "2514",
				"gatherResource(uint256,uint256)": "infinite",
				"getRoleAdmin(bytes32)": "infinite",
				"grantRole(bytes32,address)": "infinite",
				"hasRole(bytes32,address)": "infinite",
				"initialize(address,address,address,address)": "infinite",
				"isApprovedForAll(address,address)": "infinite",
				"listItemForSale(uint256,uint256)": "infinite",
				"mint(address,uint256,uint256,bytes,uint8,string)": "infinite",
				"mintBatch(address,uint256[],uint256[],bytes,uint8[],string[])": "infinite",
				"pause()": "infinite",
				"paused()": "infinite",
				"proxiableUUID()": "infinite",
				"renounceRole(bytes32,address)": "29139",
				"revokeRole(bytes32,address)": "infinite",
				"safeBatchTransferFrom(address,address,uint256[],uint256[],bytes)": "infinite",
				"safeTransferFrom(address,address,uint256,uint256,bytes)": "infinite",
				"setApprovalForAll(address,bool)": "infinite",
				"setURI(string)": "infinite",
				"summonMount(uint256)": "infinite",
				"supportsInterface(bytes4)": "infinite",
				"tokenDetails(uint256)": "infinite",
				"totalSupply()": "2326",
				"totalSupply(uint256)": "2491",
				"tradeLoot(uint256,uint256,address)": "infinite",
				"unpause()": "infinite",
				"upgradeToAndCall(address,bytes)": "infinite",
				"uri(uint256)": "infinite",
				"useConsumable(uint256,uint256)": "infinite",
				"useQuestToken(uint256)": "infinite"
			},
			"internal": {
				"_authorizeUpgrade(address)": "infinite",
				"_update(address,address,uint256[] memory,uint256[] memory)": "infinite"
			}
		},
		"methodIdentifiers": {
			"DEFAULT_ADMIN_ROLE()": "a217fddf",
			"MINTER_ROLE()": "d5391393",
			"PAUSER_ROLE()": "e63ab1e9",
			"UPGRADER_ROLE()": "f72c0d8b",
			"UPGRADE_INTERFACE_VERSION()": "ad3cb1cc",
			"URI_SETTER_ROLE()": "7f345710",
			"balanceOf(address,uint256)": "00fdd58e",
			"balanceOfBatch(address[],uint256[])": "4e1273f4",
			"burn(address,uint256,uint256)": "f5298aca",
			"burnBatch(address,uint256[],uint256[])": "6b20c454",
			"claimLand(uint256)": "bf191129",
			"displayCosmetic(uint256)": "86261532",
			"displayGuildBanner(uint256)": "c521829c",
			"exists(uint256)": "4f558e79",
			"gatherResource(uint256,uint256)": "475d2807",
			"getRoleAdmin(bytes32)": "248a9ca3",
			"grantRole(bytes32,address)": "2f2ff15d",
			"hasRole(bytes32,address)": "91d14854",
			"initialize(address,address,address,address)": "f8c8765e",
			"isApprovedForAll(address,address)": "e985e9c5",
			"listItemForSale(uint256,uint256)": "c4100ded",
			"mint(address,uint256,uint256,bytes,uint8,string)": "0d030c00",
			"mintBatch(address,uint256[],uint256[],bytes,uint8[],string[])": "c9f1f64a",
			"pause()": "8456cb59",
			"paused()": "5c975abb",
			"proxiableUUID()": "52d1902d",
			"renounceRole(bytes32,address)": "36568abe",
			"revokeRole(bytes32,address)": "d547741f",
			"safeBatchTransferFrom(address,address,uint256[],uint256[],bytes)": "2eb2c2d6",
			"safeTransferFrom(address,address,uint256,uint256,bytes)": "f242432a",
			"setApprovalForAll(address,bool)": "a22cb465",
			"setURI(string)": "02fe5305",
			"summonMount(uint256)": "3845b693",
			"supportsInterface(bytes4)": "01ffc9a7",
			"tokenDetails(uint256)": "fc314e31",
			"totalSupply()": "18160ddd",
			"totalSupply(uint256)": "bd85b039",
			"tradeLoot(uint256,uint256,address)": "be0fb9c1",
			"unpause()": "3f4ba83a",
			"upgradeToAndCall(address,bytes)": "4f1ef286",
			"uri(uint256)": "0e89341c",
			"useConsumable(uint256,uint256)": "2de8eb9a",
			"useQuestToken(uint256)": "fdc76445"
		}
	},
	"abi": [
		{
			"inputs": [],
			"stateMutability": "nonpayable",
			"type": "constructor"
		},
		{
			"inputs": [],
			"name": "AccessControlBadConfirmation",
			"type": "error"
		},
		{
			"inputs": [
				{
					"internalType": "address",
					"name": "account",
					"type": "address"
				},
				{
					"internalType": "bytes32",
					"name": "neededRole",
					"type": "bytes32"
				}
			],
			"name": "AccessControlUnauthorizedAccount",
			"type": "error"
		},
		{
			"inputs": [
				{
					"internalType": "address",
					"name": "target",
					"type": "address"
				}
			],
			"name": "AddressEmptyCode",
			"type": "error"
		},
		{
			"inputs": [
				{
					"internalType": "address",
					"name": "sender",
					"type": "address"
				},
				{
					"internalType": "uint256",
					"name": "balance",
					"type": "uint256"
				},
				{
					"internalType": "uint256",
					"name": "needed",
					"type": "uint256"
				},
				{
					"internalType": "uint256",
					"name": "tokenId",
					"type": "uint256"
				}
			],
			"name": "ERC1155InsufficientBalance",
			"type": "error"
		},
		{
			"inputs": [
				{
					"internalType": "address",
					"name": "approver",
					"type": "address"
				}
			],
			"name": "ERC1155InvalidApprover",
			"type": "error"
		},
		{
			"inputs": [
				{
					"internalType": "uint256",
					"name": "idsLength",
					"type": "uint256"
				},
				{
					"internalType": "uint256",
					"name": "valuesLength",
					"type": "uint256"
				}
			],
			"name": "ERC1155InvalidArrayLength",
			"type": "error"
		},
		{
			"inputs": [
				{
					"internalType": "address",
					"name": "operator",
					"type": "address"
				}
			],
			"name": "ERC1155InvalidOperator",
			"type": "error"
		},
		{
			"inputs": [
				{
					"internalType": "address",
					"name": "receiver",
					"type": "address"
				}
			],
			"name": "ERC1155InvalidReceiver",
			"type": "error"
		},
		{
			"inputs": [
				{
					"internalType": "address",
					"name": "sender",
					"type": "address"
				}
			],
			"name": "ERC1155InvalidSender",
			"type": "error"
		},
		{
			"inputs": [
				{
					"internalType": "address",
					"name": "operator",
					"type": "address"
				},
				{
					"internalType": "address",
					"name": "owner",
					"type": "address"
				}
			],
			"name": "ERC1155MissingApprovalForAll",
			"type": "error"
		},
		{
			"inputs": [
				{
					"internalType": "address",
					"name": "implementation",
					"type": "address"
				}
			],
			"name": "ERC1967InvalidImplementation",
			"type": "error"
		},
		{
			"inputs": [],
			"name": "ERC1967NonPayable",
			"type": "error"
		},
		{
			"inputs": [],
			"name": "EnforcedPause",
			"type": "error"
		},
		{
			"inputs": [],
			"name": "ExpectedPause",
			"type": "error"
		},
		{
			"inputs": [],
			"name": "FailedInnerCall",
			"type": "error"
		},
		{
			"inputs": [],
			"name": "InvalidInitialization",
			"type": "error"
		},
		{
			"inputs": [],
			"name": "NotInitializing",
			"type": "error"
		},
		{
			"inputs": [],
			"name": "UUPSUnauthorizedCallContext",
			"type": "error"
		},
		{
			"inputs": [
				{
					"internalType": "bytes32",
					"name": "slot",
					"type": "bytes32"
				}
			],
			"name": "UUPSUnsupportedProxiableUUID",
			"type": "error"
		},
		{
			"anonymous": false,
			"inputs": [
				{
					"indexed": true,
					"internalType": "address",
					"name": "account",
					"type": "address"
				},
				{
					"indexed": true,
					"internalType": "address",
					"name": "operator",
					"type": "address"
				},
				{
					"indexed": false,
					"internalType": "bool",
					"name": "approved",
					"type": "bool"
				}
			],
			"name": "ApprovalForAll",
			"type": "event"
		},
		{
			"anonymous": false,
			"inputs": [
				{
					"indexed": false,
					"internalType": "uint64",
					"name": "version",
					"type": "uint64"
				}
			],
			"name": "Initialized",
			"type": "event"
		},
		{
			"anonymous": false,
			"inputs": [
				{
					"indexed": false,
					"internalType": "address",
					"name": "account",
					"type": "address"
				}
			],
			"name": "Paused",
			"type": "event"
		},
		{
			"anonymous": false,
			"inputs": [
				{
					"indexed": true,
					"internalType": "bytes32",
					"name": "role",
					"type": "bytes32"
				},
				{
					"indexed": true,
					"internalType": "bytes32",
					"name": "previousAdminRole",
					"type": "bytes32"
				},
				{
					"indexed": true,
					"internalType": "bytes32",
					"name": "newAdminRole",
					"type": "bytes32"
				}
			],
			"name": "RoleAdminChanged",
			"type": "event"
		},
		{
			"anonymous": false,
			"inputs": [
				{
					"indexed": true,
					"internalType": "bytes32",
					"name": "role",
					"type": "bytes32"
				},
				{
					"indexed": true,
					"internalType": "address",
					"name": "account",
					"type": "address"
				},
				{
					"indexed": true,
					"internalType": "address",
					"name": "sender",
					"type": "address"
				}
			],
			"name": "RoleGranted",
			"type": "event"
		},
		{
			"anonymous": false,
			"inputs": [
				{
					"indexed": true,
					"internalType": "bytes32",
					"name": "role",
					"type": "bytes32"
				},
				{
					"indexed": true,
					"internalType": "address",
					"name": "account",
					"type": "address"
				},
				{
					"indexed": true,
					"internalType": "address",
					"name": "sender",
					"type": "address"
				}
			],
			"name": "RoleRevoked",
			"type": "event"
		},
		{
			"anonymous": false,
			"inputs": [
				{
					"indexed": true,
					"internalType": "address",
					"name": "operator",
					"type": "address"
				},
				{
					"indexed": true,
					"internalType": "address",
					"name": "from",
					"type": "address"
				},
				{
					"indexed": true,
					"internalType": "address",
					"name": "to",
					"type": "address"
				},
				{
					"indexed": false,
					"internalType": "uint256[]",
					"name": "ids",
					"type": "uint256[]"
				},
				{
					"indexed": false,
					"internalType": "uint256[]",
					"name": "values",
					"type": "uint256[]"
				}
			],
			"name": "TransferBatch",
			"type": "event"
		},
		{
			"anonymous": false,
			"inputs": [
				{
					"indexed": true,
					"internalType": "address",
					"name": "operator",
					"type": "address"
				},
				{
					"indexed": true,
					"internalType": "address",
					"name": "from",
					"type": "address"
				},
				{
					"indexed": true,
					"internalType": "address",
					"name": "to",
					"type": "address"
				},
				{
					"indexed": false,
					"internalType": "uint256",
					"name": "id",
					"type": "uint256"
				},
				{
					"indexed": false,
					"internalType": "uint256",
					"name": "value",
					"type": "uint256"
				}
			],
			"name": "TransferSingle",
			"type": "event"
		},
		{
			"anonymous": false,
			"inputs": [
				{
					"indexed": false,
					"internalType": "string",
					"name": "value",
					"type": "string"
				},
				{
					"indexed": true,
					"internalType": "uint256",
					"name": "id",
					"type": "uint256"
				}
			],
			"name": "URI",
			"type": "event"
		},
		{
			"anonymous": false,
			"inputs": [
				{
					"indexed": false,
					"internalType": "address",
					"name": "account",
					"type": "address"
				}
			],
			"name": "Unpaused",
			"type": "event"
		},
		{
			"anonymous": false,
			"inputs": [
				{
					"indexed": true,
					"internalType": "address",
					"name": "implementation",
					"type": "address"
				}
			],
			"name": "Upgraded",
			"type": "event"
		},
		{
			"inputs": [],
			"name": "DEFAULT_ADMIN_ROLE",
			"outputs": [
				{
					"internalType": "bytes32",
					"name": "",
					"type": "bytes32"
				}
			],
			"stateMutability": "view",
			"type": "function"
		},
		{
			"inputs": [],
			"name": "MINTER_ROLE",
			"outputs": [
				{
					"internalType": "bytes32",
					"name": "",
					"type": "bytes32"
				}
			],
			"stateMutability": "view",
			"type": "function"
		},
		{
			"inputs": [],
			"name": "PAUSER_ROLE",
			"outputs": [
				{
					"internalType": "bytes32",
					"name": "",
					"type": "bytes32"
				}
			],
			"stateMutability": "view",
			"type": "function"
		},
		{
			"inputs": [],
			"name": "UPGRADER_ROLE",
			"outputs": [
				{
					"internalType": "bytes32",
					"name": "",
					"type": "bytes32"
				}
			],
			"stateMutability": "view",
			"type": "function"
		},
		{
			"inputs": [],
			"name": "UPGRADE_INTERFACE_VERSION",
			"outputs": [
				{
					"internalType": "string",
					"name": "",
					"type": "string"
				}
			],
			"stateMutability": "view",
			"type": "function"
		},
		{
			"inputs": [],
			"name": "URI_SETTER_ROLE",
			"outputs": [
				{
					"internalType": "bytes32",
					"name": "",
					"type": "bytes32"
				}
			],
			"stateMutability": "view",
			"type": "function"
		},
		{
			"inputs": [
				{
					"internalType": "address",
					"name": "account",
					"type": "address"
				},
				{
					"internalType": "uint256",
					"name": "id",
					"type": "uint256"
				}
			],
			"name": "balanceOf",
			"outputs": [
				{
					"internalType": "uint256",
					"name": "",
					"type": "uint256"
				}
			],
			"stateMutability": "view",
			"type": "function"
		},
		{
			"inputs": [
				{
					"internalType": "address[]",
					"name": "accounts",
					"type": "address[]"
				},
				{
					"internalType": "uint256[]",
					"name": "ids",
					"type": "uint256[]"
				}
			],
			"name": "balanceOfBatch",
			"outputs": [
				{
					"internalType": "uint256[]",
					"name": "",
					"type": "uint256[]"
				}
			],
			"stateMutability": "view",
			"type": "function"
		},
		{
			"inputs": [
				{
					"internalType": "address",
					"name": "account",
					"type": "address"
				},
				{
					"internalType": "uint256",
					"name": "id",
					"type": "uint256"
				},
				{
					"internalType": "uint256",
					"name": "value",
					"type": "uint256"
				}
			],
			"name": "burn",
			"outputs": [],
			"stateMutability": "nonpayable",
			"type": "function"
		},
		{
			"inputs": [
				{
					"internalType": "address",
					"name": "account",
					"type": "address"
				},
				{
					"internalType": "uint256[]",
					"name": "ids",
					"type": "uint256[]"
				},
				{
					"internalType": "uint256[]",
					"name": "values",
					"type": "uint256[]"
				}
			],
			"name": "burnBatch",
			"outputs": [],
			"stateMutability": "nonpayable",
			"type": "function"
		},
		{
			"inputs": [
				{
					"internalType": "uint256",
					"name": "id",
					"type": "uint256"
				}
			],
			"name": "claimLand",
			"outputs": [],
			"stateMutability": "view",
			"type": "function"
		},
		{
			"inputs": [
				{
					"internalType": "uint256",
					"name": "id",
					"type": "uint256"
				}
			],
			"name": "displayCosmetic",
			"outputs": [
				{
					"internalType": "string",
					"name": "",
					"type": "string"
				}
			],
			"stateMutability": "view",
			"type": "function"
		},
		{
			"inputs": [
				{
					"internalType": "uint256",
					"name": "id",
					"type": "uint256"
				}
			],
			"name": "displayGuildBanner",
			"outputs": [
				{
					"internalType": "string",
					"name": "",
					"type": "string"
				}
			],
			"stateMutability": "view",
			"type": "function"
		},
		{
			"inputs": [
				{
					"internalType": "uint256",
					"name": "id",
					"type": "uint256"
				}
			],
			"name": "exists",
			"outputs": [
				{
					"internalType": "bool",
					"name": "",
					"type": "bool"
				}
			],
			"stateMutability": "view",
			"type": "function"
		},
		{
			"inputs": [
				{
					"internalType": "uint256",
					"name": "id",
					"type": "uint256"
				},
				{
					"internalType": "uint256",
					"name": "amount",
					"type": "uint256"
				}
			],
			"name": "gatherResource",
			"outputs": [],
			"stateMutability": "nonpayable",
			"type": "function"
		},
		{
			"inputs": [
				{
					"internalType": "bytes32",
					"name": "role",
					"type": "bytes32"
				}
			],
			"name": "getRoleAdmin",
			"outputs": [
				{
					"internalType": "bytes32",
					"name": "",
					"type": "bytes32"
				}
			],
			"stateMutability": "view",
			"type": "function"
		},
		{
			"inputs": [
				{
					"internalType": "bytes32",
					"name": "role",
					"type": "bytes32"
				},
				{
					"internalType": "address",
					"name": "account",
					"type": "address"
				}
			],
			"name": "grantRole",
			"outputs": [],
			"stateMutability": "nonpayable",
			"type": "function"
		},
		{
			"inputs": [
				{
					"internalType": "bytes32",
					"name": "role",
					"type": "bytes32"
				},
				{
					"internalType": "address",
					"name": "account",
					"type": "address"
				}
			],
			"name": "hasRole",
			"outputs": [
				{
					"internalType": "bool",
					"name": "",
					"type": "bool"
				}
			],
			"stateMutability": "view",
			"type": "function"
		},
		{
			"inputs": [
				{
					"internalType": "address",
					"name": "defaultAdmin",
					"type": "address"
				},
				{
					"internalType": "address",
					"name": "pauser",
					"type": "address"
				},
				{
					"internalType": "address",
					"name": "minter",
					"type": "address"
				},
				{
					"internalType": "address",
					"name": "upgrader",
					"type": "address"
				}
			],
			"name": "initialize",
			"outputs": [],
			"stateMutability": "nonpayable",
			"type": "function"
		},
		{
			"inputs": [
				{
					"internalType": "address",
					"name": "account",
					"type": "address"
				},
				{
					"internalType": "address",
					"name": "operator",
					"type": "address"
				}
			],
			"name": "isApprovedForAll",
			"outputs": [
				{
					"internalType": "bool",
					"name": "",
					"type": "bool"
				}
			],
			"stateMutability": "view",
			"type": "function"
		},
		{
			"inputs": [
				{
					"internalType": "uint256",
					"name": "id",
					"type": "uint256"
				},
				{
					"internalType": "uint256",
					"name": "amount",
					"type": "uint256"
				}
			],
			"name": "listItemForSale",
			"outputs": [],
			"stateMutability": "view",
			"type": "function"
		},
		{
			"inputs": [
				{
					"internalType": "address",
					"name": "account",
					"type": "address"
				},
				{
					"internalType": "uint256",
					"name": "id",
					"type": "uint256"
				},
				{
					"internalType": "uint256",
					"name": "amount",
					"type": "uint256"
				},
				{
					"internalType": "bytes",
					"name": "data",
					"type": "bytes"
				},
				{
					"internalType": "enum CryptoQuestTheShardsOfGenesisCollectionNFTs.TokenType",
					"name": "tokenType",
					"type": "uint8"
				},
				{
					"internalType": "string",
					"name": "metadata",
					"type": "string"
				}
			],
			"name": "mint",
			"outputs": [],
			"stateMutability": "nonpayable",
			"type": "function"
		},
		{
			"inputs": [
				{
					"internalType": "address",
					"name": "to",
					"type": "address"
				},
				{
					"internalType": "uint256[]",
					"name": "ids",
					"type": "uint256[]"
				},
				{
					"internalType": "uint256[]",
					"name": "amounts",
					"type": "uint256[]"
				},
				{
					"internalType": "bytes",
					"name": "data",
					"type": "bytes"
				},
				{
					"internalType": "enum CryptoQuestTheShardsOfGenesisCollectionNFTs.TokenType[]",
					"name": "tokenTypes",
					"type": "uint8[]"
				},
				{
					"internalType": "string[]",
					"name": "metadata",
					"type": "string[]"
				}
			],
			"name": "mintBatch",
			"outputs": [],
			"stateMutability": "nonpayable",
			"type": "function"
		},
		{
			"inputs": [],
			"name": "pause",
			"outputs": [],
			"stateMutability": "nonpayable",
			"type": "function"
		},
		{
			"inputs": [],
			"name": "paused",
			"outputs": [
				{
					"internalType": "bool",
					"name": "",
					"type": "bool"
				}
			],
			"stateMutability": "view",
			"type": "function"
		},
		{
			"inputs": [],
			"name": "proxiableUUID",
			"outputs": [
				{
					"internalType": "bytes32",
					"name": "",
					"type": "bytes32"
				}
			],
			"stateMutability": "view",
			"type": "function"
		},
		{
			"inputs": [
				{
					"internalType": "bytes32",
					"name": "role",
					"type": "bytes32"
				},
				{
					"internalType": "address",
					"name": "callerConfirmation",
					"type": "address"
				}
			],
			"name": "renounceRole",
			"outputs": [],
			"stateMutability": "nonpayable",
			"type": "function"
		},
		{
			"inputs": [
				{
					"internalType": "bytes32",
					"name": "role",
					"type": "bytes32"
				},
				{
					"internalType": "address",
					"name": "account",
					"type": "address"
				}
			],
			"name": "revokeRole",
			"outputs": [],
			"stateMutability": "nonpayable",
			"type": "function"
		},
		{
			"inputs": [
				{
					"internalType": "address",
					"name": "from",
					"type": "address"
				},
				{
					"internalType": "address",
					"name": "to",
					"type": "address"
				},
				{
					"internalType": "uint256[]",
					"name": "ids",
					"type": "uint256[]"
				},
				{
					"internalType": "uint256[]",
					"name": "values",
					"type": "uint256[]"
				},
				{
					"internalType": "bytes",
					"name": "data",
					"type": "bytes"
				}
			],
			"name": "safeBatchTransferFrom",
			"outputs": [],
			"stateMutability": "nonpayable",
			"type": "function"
		},
		{
			"inputs": [
				{
					"internalType": "address",
					"name": "from",
					"type": "address"
				},
				{
					"internalType": "address",
					"name": "to",
					"type": "address"
				},
				{
					"internalType": "uint256",
					"name": "id",
					"type": "uint256"
				},
				{
					"internalType": "uint256",
					"name": "value",
					"type": "uint256"
				},
				{
					"internalType": "bytes",
					"name": "data",
					"type": "bytes"
				}
			],
			"name": "safeTransferFrom",
			"outputs": [],
			"stateMutability": "nonpayable",
			"type": "function"
		},
		{
			"inputs": [
				{
					"internalType": "address",
					"name": "operator",
					"type": "address"
				},
				{
					"internalType": "bool",
					"name": "approved",
					"type": "bool"
				}
			],
			"name": "setApprovalForAll",
			"outputs": [],
			"stateMutability": "nonpayable",
			"type": "function"
		},
		{
			"inputs": [
				{
					"internalType": "string",
					"name": "newuri",
					"type": "string"
				}
			],
			"name": "setURI",
			"outputs": [],
			"stateMutability": "nonpayable",
			"type": "function"
		},
		{
			"inputs": [
				{
					"internalType": "uint256",
					"name": "id",
					"type": "uint256"
				}
			],
			"name": "summonMount",
			"outputs": [
				{
					"internalType": "string",
					"name": "",
					"type": "string"
				}
			],
			"stateMutability": "view",
			"type": "function"
		},
		{
			"inputs": [
				{
					"internalType": "bytes4",
					"name": "interfaceId",
					"type": "bytes4"
				}
			],
			"name": "supportsInterface",
			"outputs": [
				{
					"internalType": "bool",
					"name": "",
					"type": "bool"
				}
			],
			"stateMutability": "view",
			"type": "function"
		},
		{
			"inputs": [
				{
					"internalType": "uint256",
					"name": "",
					"type": "uint256"
				}
			],
			"name": "tokenDetails",
			"outputs": [
				{
					"internalType": "enum CryptoQuestTheShardsOfGenesisCollectionNFTs.TokenType",
					"name": "tokenType",
					"type": "uint8"
				},
				{
					"internalType": "string",
					"name": "metadata",
					"type": "string"
				}
			],
			"stateMutability": "view",
			"type": "function"
		},
		{
			"inputs": [],
			"name": "totalSupply",
			"outputs": [
				{
					"internalType": "uint256",
					"name": "",
					"type": "uint256"
				}
			],
			"stateMutability": "view",
			"type": "function"
		},
		{
			"inputs": [
				{
					"internalType": "uint256",
					"name": "id",
					"type": "uint256"
				}
			],
			"name": "totalSupply",
			"outputs": [
				{
					"internalType": "uint256",
					"name": "",
					"type": "uint256"
				}
			],
			"stateMutability": "view",
			"type": "function"
		},
		{
			"inputs": [
				{
					"internalType": "uint256",
					"name": "id",
					"type": "uint256"
				},
				{
					"internalType": "uint256",
					"name": "amount",
					"type": "uint256"
				},
				{
					"internalType": "address",
					"name": "to",
					"type": "address"
				}
			],
			"name": "tradeLoot",
			"outputs": [],
			"stateMutability": "nonpayable",
			"type": "function"
		},
		{
			"inputs": [],
			"name": "unpause",
			"outputs": [],
			"stateMutability": "nonpayable",
			"type": "function"
		},
		{
			"inputs": [
				{
					"internalType": "address",
					"name": "newImplementation",
					"type": "address"
				},
				{
					"internalType": "bytes",
					"name": "data",
					"type": "bytes"
				}
			],
			"name": "upgradeToAndCall",
			"outputs": [],
			"stateMutability": "payable",
			"type": "function"
		},
		{
			"inputs": [
				{
					"internalType": "uint256",
					"name": "",
					"type": "uint256"
				}
			],
			"name": "uri",
			"outputs": [
				{
					"internalType": "string",
					"name": "",
					"type": "string"
				}
			],
			"stateMutability": "view",
			"type": "function"
		},
		{
			"inputs": [
				{
					"internalType": "uint256",
					"name": "id",
					"type": "uint256"
				},
				{
					"internalType": "uint256",
					"name": "amount",
					"type": "uint256"
				}
			],
			"name": "useConsumable",
			"outputs": [],
			"stateMutability": "nonpayable",
			"type": "function"
		},
		{
			"inputs": [
				{
					"internalType": "uint256",
					"name": "id",
					"type": "uint256"
				}
			],
			"name": "useQuestToken",
			"outputs": [],
			"stateMutability": "nonpayable",
			"type": "function"
		}
	]
}