{
	"src/contract/CryptoQuestShardsOfGenesisFarming.sol": {
		"CryptoQuestShardsOfGenesisFarming": {
			"abi": [
				{
					"inputs": [],
					"stateMutability": "nonpayable",
					"type": "constructor"
				},
				{
					"inputs": [],
					"name": "AccessControlBadConfirmation",
					"type": "error"
				},
				{
					"inputs": [
						{
							"internalType": "address",
							"name": "account",
							"type": "address"
						},
						{
							"internalType": "bytes32",
							"name": "neededRole",
							"type": "bytes32"
						}
					],
					"name": "AccessControlUnauthorizedAccount",
					"type": "error"
				},
				{
					"inputs": [
						{
							"internalType": "address",
							"name": "target",
							"type": "address"
						}
					],
					"name": "AddressEmptyCode",
					"type": "error"
				},
				{
					"inputs": [
						{
							"internalType": "address",
							"name": "implementation",
							"type": "address"
						}
					],
					"name": "ERC1967InvalidImplementation",
					"type": "error"
				},
				{
					"inputs": [],
					"name": "ERC1967NonPayable",
					"type": "error"
				},
				{
					"inputs": [],
					"name": "FailedInnerCall",
					"type": "error"
				},
				{
					"inputs": [],
					"name": "InvalidInitialization",
					"type": "error"
				},
				{
					"inputs": [],
					"name": "NotInitializing",
					"type": "error"
				},
				{
					"inputs": [],
					"name": "UUPSUnauthorizedCallContext",
					"type": "error"
				},
				{
					"inputs": [
						{
							"internalType": "bytes32",
							"name": "slot",
							"type": "bytes32"
						}
					],
					"name": "UUPSUnsupportedProxiableUUID",
					"type": "error"
				},
				{
					"anonymous": false,
					"inputs": [
						{
							"indexed": false,
							"internalType": "uint256",
							"name": "farmId",
							"type": "uint256"
						},
						{
							"indexed": false,
							"internalType": "address",
							"name": "owner",
							"type": "address"
						},
						{
							"indexed": false,
							"internalType": "uint256",
							"name": "startTime",
							"type": "uint256"
						},
						{
							"indexed": false,
							"internalType": "uint256",
							"name": "endTime",
							"type": "uint256"
						},
						{
							"indexed": false,
							"internalType": "uint256",
							"name": "reward",
							"type": "uint256"
						}
					],
					"name": "Farmed",
					"type": "event"
				},
				{
					"anonymous": false,
					"inputs": [
						{
							"indexed": false,
							"internalType": "uint64",
							"name": "version",
							"type": "uint64"
						}
					],
					"name": "Initialized",
					"type": "event"
				},
				{
					"anonymous": false,
					"inputs": [
						{
							"indexed": false,
							"internalType": "address",
							"name": "account",
							"type": "address"
						}
					],
					"name": "Paused",
					"type": "event"
				},
				{
					"anonymous": false,
					"inputs": [
						{
							"indexed": true,
							"internalType": "bytes32",
							"name": "role",
							"type": "bytes32"
						},
						{
							"indexed": true,
							"internalType": "bytes32",
							"name": "previousAdminRole",
							"type": "bytes32"
						},
						{
							"indexed": true,
							"internalType": "bytes32",
							"name": "newAdminRole",
							"type": "bytes32"
						}
					],
					"name": "RoleAdminChanged",
					"type": "event"
				},
				{
					"anonymous": false,
					"inputs": [
						{
							"indexed": true,
							"internalType": "bytes32",
							"name": "role",
							"type": "bytes32"
						},
						{
							"indexed": true,
							"internalType": "address",
							"name": "account",
							"type": "address"
						},
						{
							"indexed": true,
							"internalType": "address",
							"name": "sender",
							"type": "address"
						}
					],
					"name": "RoleGranted",
					"type": "event"
				},
				{
					"anonymous": false,
					"inputs": [
						{
							"indexed": true,
							"internalType": "bytes32",
							"name": "role",
							"type": "bytes32"
						},
						{
							"indexed": true,
							"internalType": "address",
							"name": "account",
							"type": "address"
						},
						{
							"indexed": true,
							"internalType": "address",
							"name": "sender",
							"type": "address"
						}
					],
					"name": "RoleRevoked",
					"type": "event"
				},
				{
					"anonymous": false,
					"inputs": [
						{
							"indexed": false,
							"internalType": "address",
							"name": "account",
							"type": "address"
						}
					],
					"name": "Unpaused",
					"type": "event"
				},
				{
					"anonymous": false,
					"inputs": [
						{
							"indexed": true,
							"internalType": "address",
							"name": "implementation",
							"type": "address"
						}
					],
					"name": "Upgraded",
					"type": "event"
				},
				{
					"inputs": [],
					"name": "DEFAULT_ADMIN_ROLE",
					"outputs": [
						{
							"internalType": "bytes32",
							"name": "",
							"type": "bytes32"
						}
					],
					"stateMutability": "view",
					"type": "function"
				},
				{
					"inputs": [],
					"name": "PAUSER_ROLE",
					"outputs": [
						{
							"internalType": "bytes32",
							"name": "",
							"type": "bytes32"
						}
					],
					"stateMutability": "view",
					"type": "function"
				},
				{
					"inputs": [],
					"name": "UPGRADER_ROLE",
					"outputs": [
						{
							"internalType": "bytes32",
							"name": "",
							"type": "bytes32"
						}
					],
					"stateMutability": "view",
					"type": "function"
				},
				{
					"inputs": [],
					"name": "UPGRADE_INTERFACE_VERSION",
					"outputs": [
						{
							"internalType": "string",
							"name": "",
							"type": "string"
						}
					],
					"stateMutability": "view",
					"type": "function"
				},
				{
					"inputs": [],
					"name": "cqtToken",
					"outputs": [
						{
							"internalType": "address",
							"name": "",
							"type": "address"
						}
					],
					"stateMutability": "view",
					"type": "function"
				},
				{
					"inputs": [
						{
							"internalType": "uint256",
							"name": "_farmId",
							"type": "uint256"
						}
					],
					"name": "endFarming",
					"outputs": [],
					"stateMutability": "nonpayable",
					"type": "function"
				},
				{
					"inputs": [
						{
							"internalType": "uint256",
							"name": "",
							"type": "uint256"
						}
					],
					"name": "farms",
					"outputs": [
						{
							"internalType": "uint256",
							"name": "farmId",
							"type": "uint256"
						},
						{
							"internalType": "address",
							"name": "owner",
							"type": "address"
						},
						{
							"internalType": "uint256",
							"name": "startTime",
							"type": "uint256"
						},
						{
							"internalType": "uint256",
							"name": "endTime",
							"type": "uint256"
						},
						{
							"internalType": "uint256",
							"name": "reward",
							"type": "uint256"
						},
						{
							"internalType": "uint256",
							"name": "cropType",
							"type": "uint256"
						}
					],
					"stateMutability": "view",
					"type": "function"
				},
				{
					"inputs": [
						{
							"internalType": "bytes32",
							"name": "role",
							"type": "bytes32"
						}
					],
					"name": "getRoleAdmin",
					"outputs": [
						{
							"internalType": "bytes32",
							"name": "",
							"type": "bytes32"
						}
					],
					"stateMutability": "view",
					"type": "function"
				},
				{
					"inputs": [
						{
							"internalType": "bytes32",
							"name": "role",
							"type": "bytes32"
						},
						{
							"internalType": "address",
							"name": "account",
							"type": "address"
						}
					],
					"name": "grantRole",
					"outputs": [],
					"stateMutability": "nonpayable",
					"type": "function"
				},
				{
					"inputs": [
						{
							"internalType": "bytes32",
							"name": "role",
							"type": "bytes32"
						},
						{
							"internalType": "address",
							"name": "account",
							"type": "address"
						}
					],
					"name": "hasRole",
					"outputs": [
						{
							"internalType": "bool",
							"name": "",
							"type": "bool"
						}
					],
					"stateMutability": "view",
					"type": "function"
				},
				{
					"inputs": [
						{
							"internalType": "address",
							"name": "_cqtToken",
							"type": "address"
						},
						{
							"internalType": "uint256",
							"name": "_rewardRate",
							"type": "uint256"
						},
						{
							"internalType": "uint256",
							"name": "_minimumFarmingPeriod",
							"type": "uint256"
						}
					],
					"name": "initialize",
					"outputs": [],
					"stateMutability": "nonpayable",
					"type": "function"
				},
				{
					"inputs": [],
					"name": "minimumFarmingPeriod",
					"outputs": [
						{
							"internalType": "uint256",
							"name": "",
							"type": "uint256"
						}
					],
					"stateMutability": "view",
					"type": "function"
				},
				{
					"inputs": [],
					"name": "paused",
					"outputs": [
						{
							"internalType": "bool",
							"name": "",
							"type": "bool"
						}
					],
					"stateMutability": "view",
					"type": "function"
				},
				{
					"inputs": [],
					"name": "proxiableUUID",
					"outputs": [
						{
							"internalType": "bytes32",
							"name": "",
							"type": "bytes32"
						}
					],
					"stateMutability": "view",
					"type": "function"
				},
				{
					"inputs": [
						{
							"internalType": "uint256",
							"name": "_farmId",
							"type": "uint256"
						},
						{
							"internalType": "uint256",
							"name": "price",
							"type": "uint256"
						}
					],
					"name": "purchaseFarm",
					"outputs": [],
					"stateMutability": "nonpayable",
					"type": "function"
				},
				{
					"inputs": [
						{
							"internalType": "bytes32",
							"name": "role",
							"type": "bytes32"
						},
						{
							"internalType": "address",
							"name": "callerConfirmation",
							"type": "address"
						}
					],
					"name": "renounceRole",
					"outputs": [],
					"stateMutability": "nonpayable",
					"type": "function"
				},
				{
					"inputs": [
						{
							"internalType": "bytes32",
							"name": "role",
							"type": "bytes32"
						},
						{
							"internalType": "address",
							"name": "account",
							"type": "address"
						}
					],
					"name": "revokeRole",
					"outputs": [],
					"stateMutability": "nonpayable",
					"type": "function"
				},
				{
					"inputs": [],
					"name": "rewardRate",
					"outputs": [
						{
							"internalType": "uint256",
							"name": "",
							"type": "uint256"
						}
					],
					"stateMutability": "view",
					"type": "function"
				},
				{
					"inputs": [
						{
							"internalType": "uint256",
							"name": "_farmId",
							"type": "uint256"
						},
						{
							"internalType": "uint256",
							"name": "_cropType",
							"type": "uint256"
						}
					],
					"name": "startFarming",
					"outputs": [],
					"stateMutability": "nonpayable",
					"type": "function"
				},
				{
					"inputs": [
						{
							"internalType": "bytes4",
							"name": "interfaceId",
							"type": "bytes4"
						}
					],
					"name": "supportsInterface",
					"outputs": [
						{
							"internalType": "bool",
							"name": "",
							"type": "bool"
						}
					],
					"stateMutability": "view",
					"type": "function"
				},
				{
					"inputs": [
						{
							"internalType": "uint256",
							"name": "_farmId",
							"type": "uint256"
						}
					],
					"name": "upgradeFarm",
					"outputs": [],
					"stateMutability": "nonpayable",
					"type": "function"
				},
				{
					"inputs": [
						{
							"internalType": "address",
							"name": "newImplementation",
							"type": "address"
						},
						{
							"internalType": "bytes",
							"name": "data",
							"type": "bytes"
						}
					],
					"name": "upgradeToAndCall",
					"outputs": [],
					"stateMutability": "payable",
					"type": "function"
				}
			],
			"devdoc": {
				"errors": {
					"AccessControlBadConfirmation()": [
						{
							"details": "The caller of a function is not the expected one. NOTE: Don't confuse with {AccessControlUnauthorizedAccount}."
						}
					],
					"AccessControlUnauthorizedAccount(address,bytes32)": [
						{
							"details": "The `account` is missing a role."
						}
					],
					"AddressEmptyCode(address)": [
						{
							"details": "There's no code at `target` (it is not a contract)."
						}
					],
					"ERC1967InvalidImplementation(address)": [
						{
							"details": "The `implementation` of the proxy is invalid."
						}
					],
					"ERC1967NonPayable()": [
						{
							"details": "An upgrade function sees `msg.value > 0` that may be lost."
						}
					],
					"FailedInnerCall()": [
						{
							"details": "A call to an address target failed. The target may have reverted."
						}
					],
					"InvalidInitialization()": [
						{
							"details": "The contract is already initialized."
						}
					],
					"NotInitializing()": [
						{
							"details": "The contract is not initializing."
						}
					],
					"UUPSUnauthorizedCallContext()": [
						{
							"details": "The call is from an unauthorized context."
						}
					],
					"UUPSUnsupportedProxiableUUID(bytes32)": [
						{
							"details": "The storage `slot` is unsupported as a UUID."
						}
					]
				},
				"events": {
					"Initialized(uint64)": {
						"details": "Triggered when the contract has been initialized or reinitialized."
					},
					"Paused(address)": {
						"details": "Emitted when the pause is triggered by `account`."
					},
					"RoleAdminChanged(bytes32,bytes32,bytes32)": {
						"details": "Emitted when `newAdminRole` is set as ``role``'s admin role, replacing `previousAdminRole` `DEFAULT_ADMIN_ROLE` is the starting admin for all roles, despite {RoleAdminChanged} not being emitted signaling this."
					},
					"RoleGranted(bytes32,address,address)": {
						"details": "Emitted when `account` is granted `role`. `sender` is the account that originated the contract call, an admin role bearer except when using {AccessControl-_setupRole}."
					},
					"RoleRevoked(bytes32,address,address)": {
						"details": "Emitted when `account` is revoked `role`. `sender` is the account that originated the contract call:   - if using `revokeRole`, it is the admin role bearer   - if using `renounceRole`, it is the role bearer (i.e. `account`)"
					},
					"Unpaused(address)": {
						"details": "Emitted when the pause is lifted by `account`."
					},
					"Upgraded(address)": {
						"details": "Emitted when the implementation is upgraded."
					}
				},
				"kind": "dev",
				"methods": {
					"getRoleAdmin(bytes32)": {
						"details": "Returns the admin role that controls `role`. See {grantRole} and {revokeRole}. To change a role's admin, use {_setRoleAdmin}."
					},
					"grantRole(bytes32,address)": {
						"details": "Grants `role` to `account`. If `account` had not been already granted `role`, emits a {RoleGranted} event. Requirements: - the caller must have ``role``'s admin role. May emit a {RoleGranted} event."
					},
					"hasRole(bytes32,address)": {
						"details": "Returns `true` if `account` has been granted `role`."
					},
					"paused()": {
						"details": "Returns true if the contract is paused, and false otherwise."
					},
					"proxiableUUID()": {
						"details": "Implementation of the ERC1822 {proxiableUUID} function. This returns the storage slot used by the implementation. It is used to validate the implementation's compatibility when performing an upgrade. IMPORTANT: A proxy pointing at a proxiable contract should not be considered proxiable itself, because this risks bricking a proxy that upgrades to it, by delegating to itself until out of gas. Thus it is critical that this function revert if invoked through a proxy. This is guaranteed by the `notDelegated` modifier."
					},
					"renounceRole(bytes32,address)": {
						"details": "Revokes `role` from the calling account. Roles are often managed via {grantRole} and {revokeRole}: this function's purpose is to provide a mechanism for accounts to lose their privileges if they are compromised (such as when a trusted device is misplaced). If the calling account had been revoked `role`, emits a {RoleRevoked} event. Requirements: - the caller must be `callerConfirmation`. May emit a {RoleRevoked} event."
					},
					"revokeRole(bytes32,address)": {
						"details": "Revokes `role` from `account`. If `account` had been granted `role`, emits a {RoleRevoked} event. Requirements: - the caller must have ``role``'s admin role. May emit a {RoleRevoked} event."
					},
					"supportsInterface(bytes4)": {
						"details": "See {IERC165-supportsInterface}."
					},
					"upgradeToAndCall(address,bytes)": {
						"custom:oz-upgrades-unsafe-allow-reachable": "delegatecall",
						"details": "Upgrade the implementation of the proxy to `newImplementation`, and subsequently execute the function call encoded in `data`. Calls {_authorizeUpgrade}. Emits an {Upgraded} event."
					}
				},
				"version": 1
			},
			"evm": {
				"assembly": "    /* \"src/contract/CryptoQuestShardsOfGenesisFarming.sol\":503:3323  contract CryptoQuestShardsOfGenesisFarming is Initializable, AccessControlUpgradeable, PausableUpgradeable, UUPSUpgradeable {... */\n  mstore(0x40, 0xa0)\n    /* \"@openzeppelin/contracts-upgradeable/proxy/utils/UUPSUpgradeable.sol\":1171:1175  this */\n  address\n    /* \"@openzeppelin/contracts-upgradeable/proxy/utils/UUPSUpgradeable.sol\":1128:1176  address private immutable __self = address(this) */\n  0x80\n  mstore\n    /* \"src/contract/CryptoQuestShardsOfGenesisFarming.sol\":1222:1387  constructor() {... */\n  callvalue\n  dup1\n  iszero\n  tag_1\n  jumpi\n  0x00\n  dup1\n  revert\ntag_1:\n  pop\n    /* \"src/contract/CryptoQuestShardsOfGenesisFarming.sol\":1246:1288  _grantRole(DEFAULT_ADMIN_ROLE, msg.sender) */\n  tag_4\n    /* \"@openzeppelin/contracts-upgradeable/access/AccessControlUpgradeable.sol\":2362:2366  0x00 */\n  0x00\n    /* \"src/contract/CryptoQuestShardsOfGenesisFarming.sol\":1277:1287  msg.sender */\n  caller\n    /* \"src/contract/CryptoQuestShardsOfGenesisFarming.sol\":1246:1256  _grantRole */\n  tag_5\n    /* \"src/contract/CryptoQuestShardsOfGenesisFarming.sol\":1246:1288  _grantRole(DEFAULT_ADMIN_ROLE, msg.sender) */\n  jump\t// in\ntag_4:\n  pop\n    /* \"src/contract/CryptoQuestShardsOfGenesisFarming.sol\":1298:1333  _grantRole(PAUSER_ROLE, msg.sender) */\n  tag_6\n    /* \"src/contract/CryptoQuestShardsOfGenesisFarming.sol\":671:695  keccak256(\"PAUSER_ROLE\") */\n  0x65d7a28e3265b37a6474929f336521b332c1681b933f6cb9f3376673440d862a\n    /* \"src/contract/CryptoQuestShardsOfGenesisFarming.sol\":1322:1332  msg.sender */\n  caller\n    /* \"src/contract/CryptoQuestShardsOfGenesisFarming.sol\":1298:1308  _grantRole */\n  tag_5\n    /* \"src/contract/CryptoQuestShardsOfGenesisFarming.sol\":1298:1333  _grantRole(PAUSER_ROLE, msg.sender) */\n  jump\t// in\ntag_6:\n  pop\n    /* \"src/contract/CryptoQuestShardsOfGenesisFarming.sol\":1343:1380  _grantRole(UPGRADER_ROLE, msg.sender) */\n  tag_7\n    /* \"src/contract/CryptoQuestShardsOfGenesisFarming.sol\":741:767  keccak256(\"UPGRADER_ROLE\") */\n  0x189ab7a9244df0848122154315af71fe140f3db0fe014031783b0946b8c9d2e3\n    /* \"src/contract/CryptoQuestShardsOfGenesisFarming.sol\":1369:1379  msg.sender */\n  caller\n    /* \"src/contract/CryptoQuestShardsOfGenesisFarming.sol\":1343:1353  _grantRole */\n  tag_5\n    /* \"src/contract/CryptoQuestShardsOfGenesisFarming.sol\":1343:1380  _grantRole(UPGRADER_ROLE, msg.sender) */\n  jump\t// in\ntag_7:\n  pop\n    /* \"src/contract/CryptoQuestShardsOfGenesisFarming.sol\":503:3323  contract CryptoQuestShardsOfGenesisFarming is Initializable, AccessControlUpgradeable, PausableUpgradeable, UUPSUpgradeable {... */\n  jump(tag_8)\n    /* \"@openzeppelin/contracts-upgradeable/access/AccessControlUpgradeable.sol\":7270:7657  function _grantRole(bytes32 role, address account) internal virtual returns (bool) {... */\ntag_5:\n    /* \"@openzeppelin/contracts-upgradeable/access/AccessControlUpgradeable.sol\":7347:7351  bool */\n  0x00\n    /* \"@openzeppelin/contracts-upgradeable/access/AccessControlUpgradeable.sol\":3901:3915  $._roles[role] */\n  dup3\n  dup2\n  mstore\n    /* \"@openzeppelin/contracts-upgradeable/access/AccessControlUpgradeable.sol\":2920:2948  AccessControlStorageLocation */\n  0x02dd7bc7dec4dceedda775e58dd541e08a116c6c53815c0bd028192f7b626800\n    /* \"@openzeppelin/contracts-upgradeable/access/AccessControlUpgradeable.sol\":3901:3915  $._roles[role] */\n  0x20\n  dup2\n  dup2\n  mstore\n  0x40\n  dup1\n  dup5\n  keccak256\n  sub(shl(0xa0, 0x01), 0x01)\n    /* \"@openzeppelin/contracts-upgradeable/access/AccessControlUpgradeable.sol\":3901:3932  $._roles[role].hasRole[account] */\n  dup7\n  and\n  dup6\n  mstore\n  swap1\n  swap2\n  mstore\n  dup3\n  keccak256\n  sload\n  0xff\n  and\n    /* \"@openzeppelin/contracts-upgradeable/access/AccessControlUpgradeable.sol\":7432:7651  if (!hasRole(role, account)) {... */\n  tag_14\n  jumpi\n    /* \"@openzeppelin/contracts-upgradeable/access/AccessControlUpgradeable.sol\":7475:7483  $._roles */\n  0x00\n    /* \"@openzeppelin/contracts-upgradeable/access/AccessControlUpgradeable.sol\":7475:7489  $._roles[role] */\n  dup5\n  dup2\n  mstore\n  0x20\n  dup3\n  dup2\n  mstore\n  0x40\n  dup1\n  dup4\n  keccak256\n  sub(shl(0xa0, 0x01), 0x01)\n    /* \"@openzeppelin/contracts-upgradeable/access/AccessControlUpgradeable.sol\":7475:7506  $._roles[role].hasRole[account] */\n  dup8\n  and\n  dup5\n  mstore\n  swap1\n  swap2\n  mstore\n  swap1\n  keccak256\n    /* \"@openzeppelin/contracts-upgradeable/access/AccessControlUpgradeable.sol\":7475:7513  $._roles[role].hasRole[account] = true */\n  dup1\n  sload\n  not(0xff)\n  and\n    /* \"@openzeppelin/contracts-upgradeable/access/AccessControlUpgradeable.sol\":7509:7513  true */\n  0x01\n    /* \"@openzeppelin/contracts-upgradeable/access/AccessControlUpgradeable.sol\":7475:7513  $._roles[role].hasRole[account] = true */\n  or\n  swap1\n  sstore\n    /* \"@openzeppelin/contracts-upgradeable/access/AccessControlUpgradeable.sol\":7559:7571  _msgSender() */\n  tag_15\n    /* \"@openzeppelin/contracts-upgradeable/utils/ContextUpgradeable.sol\":966:976  msg.sender */\n  caller\n  swap1\n    /* \"@openzeppelin/contracts-upgradeable/utils/ContextUpgradeable.sol\":887:983  function _msgSender() internal view virtual returns (address) {... */\n  jump\n    /* \"@openzeppelin/contracts-upgradeable/access/AccessControlUpgradeable.sol\":7559:7571  _msgSender() */\ntag_15:\n  sub(shl(0xa0, 0x01), 0x01)\n    /* \"@openzeppelin/contracts-upgradeable/access/AccessControlUpgradeable.sol\":7532:7572  RoleGranted(role, account, _msgSender()) */\n  and\n    /* \"@openzeppelin/contracts-upgradeable/access/AccessControlUpgradeable.sol\":7550:7557  account */\n  dup4\n  sub(shl(0xa0, 0x01), 0x01)\n    /* \"@openzeppelin/contracts-upgradeable/access/AccessControlUpgradeable.sol\":7532:7572  RoleGranted(role, account, _msgSender()) */\n  and\n    /* \"@openzeppelin/contracts-upgradeable/access/AccessControlUpgradeable.sol\":7544:7548  role */\n  dup6\n    /* \"@openzeppelin/contracts-upgradeable/access/AccessControlUpgradeable.sol\":7532:7572  RoleGranted(role, account, _msgSender()) */\n  0x2f8788117e7eff1d82e926ec794901d17c78024a50270940304540a733656f0d\n  mload(0x40)\n  mload(0x40)\n  dup1\n  swap2\n  sub\n  swap1\n  log4\n    /* \"@openzeppelin/contracts-upgradeable/access/AccessControlUpgradeable.sol\":7593:7597  true */\n  0x01\n    /* \"@openzeppelin/contracts-upgradeable/access/AccessControlUpgradeable.sol\":7586:7597  return true */\n  swap2\n  pop\n  pop\n  jump(tag_9)\n    /* \"@openzeppelin/contracts-upgradeable/access/AccessControlUpgradeable.sol\":7432:7651  if (!hasRole(role, account)) {... */\ntag_14:\n    /* \"@openzeppelin/contracts-upgradeable/access/AccessControlUpgradeable.sol\":7635:7640  false */\n  0x00\n    /* \"@openzeppelin/contracts-upgradeable/access/AccessControlUpgradeable.sol\":7628:7640  return false */\n  swap2\n  pop\n  pop\n    /* \"@openzeppelin/contracts-upgradeable/access/AccessControlUpgradeable.sol\":7270:7657  function _grantRole(bytes32 role, address account) internal virtual returns (bool) {... */\ntag_9:\n  swap3\n  swap2\n  pop\n  pop\n  jump\t// out\n    /* \"src/contract/CryptoQuestShardsOfGenesisFarming.sol\":503:3323  contract CryptoQuestShardsOfGenesisFarming is Initializable, AccessControlUpgradeable, PausableUpgradeable, UUPSUpgradeable {... */\ntag_8:\n  mload(0x80)\n  codecopy(0x00, dataOffset(sub_0), dataSize(sub_0))\n  0x00\n  assignImmutable(\"0x3b04ad91523c4dcf551e081621e633b9099d51bf9c5461e58c3bc7354a578b27\")\n  return(0x00, dataSize(sub_0))\nstop\n\nsub_0: assembly {\n        /* \"src/contract/CryptoQuestShardsOfGenesisFarming.sol\":503:3323  contract CryptoQuestShardsOfGenesisFarming is Initializable, AccessControlUpgradeable, PausableUpgradeable, UUPSUpgradeable {... */\n      mstore(0x40, 0x80)\n      jumpi(tag_1, lt(calldatasize, 0x04))\n      shr(0xe0, calldataload(0x00))\n      dup1\n      0x79e07242\n      gt\n      tag_24\n      jumpi\n      dup1\n      0x91d14854\n      gt\n      tag_25\n      jumpi\n      dup1\n      0x91d14854\n      eq\n      tag_18\n      jumpi\n      dup1\n      0xa217fddf\n      eq\n      tag_19\n      jumpi\n      dup1\n      0xad3cb1cc\n      eq\n      tag_20\n      jumpi\n      dup1\n      0xd547741f\n      eq\n      tag_21\n      jumpi\n      dup1\n      0xe63ab1e9\n      eq\n      tag_22\n      jumpi\n      dup1\n      0xf72c0d8b\n      eq\n      tag_23\n      jumpi\n      0x00\n      dup1\n      revert\n    tag_25:\n      dup1\n      0x79e07242\n      eq\n      tag_13\n      jumpi\n      dup1\n      0x7a1ac61e\n      eq\n      tag_14\n      jumpi\n      dup1\n      0x7b0a47ee\n      eq\n      tag_15\n      jumpi\n      dup1\n      0x7da470ea\n      eq\n      tag_16\n      jumpi\n      dup1\n      0x80326082\n      eq\n      tag_17\n      jumpi\n      0x00\n      dup1\n      revert\n    tag_24:\n      dup1\n      0x34aab064\n      gt\n      tag_26\n      jumpi\n      dup1\n      0x34aab064\n      eq\n      tag_7\n      jumpi\n      dup1\n      0x36568abe\n      eq\n      tag_8\n      jumpi\n      dup1\n      0x4f1ef286\n      eq\n      tag_9\n      jumpi\n      dup1\n      0x52d1902d\n      eq\n      tag_10\n      jumpi\n      dup1\n      0x5c975abb\n      eq\n      tag_11\n      jumpi\n      dup1\n      0x70261222\n      eq\n      tag_12\n      jumpi\n      0x00\n      dup1\n      revert\n    tag_26:\n      dup1\n      0x01ffc9a7\n      eq\n      tag_2\n      jumpi\n      dup1\n      0x13600214\n      eq\n      tag_3\n      jumpi\n      dup1\n      0x19cc96d9\n      eq\n      tag_4\n      jumpi\n      dup1\n      0x248a9ca3\n      eq\n      tag_5\n      jumpi\n      dup1\n      0x2f2ff15d\n      eq\n      tag_6\n      jumpi\n    tag_1:\n      0x00\n      dup1\n      revert\n        /* \"@openzeppelin/contracts-upgradeable/access/AccessControlUpgradeable.sol\":3443:3645  function supportsInterface(bytes4 interfaceId) public view virtual override returns (bool) {... */\n    tag_2:\n      callvalue\n      dup1\n      iszero\n      tag_27\n      jumpi\n      0x00\n      dup1\n      revert\n    tag_27:\n      pop\n      tag_28\n      tag_29\n      calldatasize\n      0x04\n      tag_30\n      jump\t// in\n    tag_29:\n      tag_31\n      jump\t// in\n    tag_28:\n      mload(0x40)\n        /* \"#utility.yul\":470:484   */\n      swap1\n      iszero\n        /* \"#utility.yul\":463:485   */\n      iszero\n        /* \"#utility.yul\":445:486   */\n      dup2\n      mstore\n        /* \"#utility.yul\":433:435   */\n      0x20\n        /* \"#utility.yul\":418:436   */\n      add\n        /* \"@openzeppelin/contracts-upgradeable/access/AccessControlUpgradeable.sol\":3443:3645  function supportsInterface(bytes4 interfaceId) public view virtual override returns (bool) {... */\n    tag_32:\n      mload(0x40)\n      dup1\n      swap2\n      sub\n      swap1\n      return\n        /* \"src/contract/CryptoQuestShardsOfGenesisFarming.sol\":2208:2978  function endFarming(uint256 _farmId) public whenNotPaused {... */\n    tag_3:\n      callvalue\n      dup1\n      iszero\n      tag_34\n      jumpi\n      0x00\n      dup1\n      revert\n    tag_34:\n      pop\n      tag_35\n      tag_36\n      calldatasize\n      0x04\n      tag_37\n      jump\t// in\n    tag_36:\n      tag_38\n      jump\t// in\n    tag_35:\n      stop\n        /* \"src/contract/CryptoQuestShardsOfGenesisFarming.sol\":2984:3128  function purchaseFarm(uint256 _farmId, uint256 price) public whenNotPaused {... */\n    tag_4:\n      callvalue\n      dup1\n      iszero\n      tag_39\n      jumpi\n      0x00\n      dup1\n      revert\n    tag_39:\n      pop\n      tag_35\n      tag_41\n      calldatasize\n      0x04\n      tag_42\n      jump\t// in\n    tag_41:\n      tag_43\n      jump\t// in\n        /* \"@openzeppelin/contracts-upgradeable/access/AccessControlUpgradeable.sol\":4759:4950  function getRoleAdmin(bytes32 role) public view virtual returns (bytes32) {... */\n    tag_5:\n      callvalue\n      dup1\n      iszero\n      tag_44\n      jumpi\n      0x00\n      dup1\n      revert\n    tag_44:\n      pop\n      tag_45\n      tag_46\n      calldatasize\n      0x04\n      tag_37\n      jump\t// in\n    tag_46:\n      tag_48\n      jump\t// in\n    tag_45:\n      mload(0x40)\n        /* \"#utility.yul\":1266:1291   */\n      swap1\n      dup2\n      mstore\n        /* \"#utility.yul\":1254:1256   */\n      0x20\n        /* \"#utility.yul\":1239:1257   */\n      add\n        /* \"@openzeppelin/contracts-upgradeable/access/AccessControlUpgradeable.sol\":4759:4950  function getRoleAdmin(bytes32 role) public view virtual returns (bytes32) {... */\n      tag_32\n        /* \"#utility.yul\":1120:1297   */\n      jump\n        /* \"@openzeppelin/contracts-upgradeable/access/AccessControlUpgradeable.sol\":5246:5382  function grantRole(bytes32 role, address account) public virtual onlyRole(getRoleAdmin(role)) {... */\n    tag_6:\n      callvalue\n      dup1\n      iszero\n      tag_51\n      jumpi\n      0x00\n      dup1\n      revert\n    tag_51:\n      pop\n      tag_35\n      tag_53\n      calldatasize\n      0x04\n      tag_54\n      jump\t// in\n    tag_53:\n      tag_55\n      jump\t// in\n        /* \"src/contract/CryptoQuestShardsOfGenesisFarming.sol\":1018:1041  address public cqtToken */\n    tag_7:\n      callvalue\n      dup1\n      iszero\n      tag_56\n      jumpi\n      0x00\n      dup1\n      revert\n    tag_56:\n      pop\n      sload(0x33)\n      tag_57\n      swap1\n      sub(shl(0xa0, 0x01), 0x01)\n      and\n      dup2\n      jump\n    tag_57:\n      mload(0x40)\n      sub(shl(0xa0, 0x01), 0x01)\n        /* \"#utility.yul\":1903:1935   */\n      swap1\n      swap2\n      and\n        /* \"#utility.yul\":1885:1936   */\n      dup2\n      mstore\n        /* \"#utility.yul\":1873:1875   */\n      0x20\n        /* \"#utility.yul\":1858:1876   */\n      add\n        /* \"src/contract/CryptoQuestShardsOfGenesisFarming.sol\":1018:1041  address public cqtToken */\n      tag_32\n        /* \"#utility.yul\":1739:1942   */\n      jump\n        /* \"@openzeppelin/contracts-upgradeable/access/AccessControlUpgradeable.sol\":6348:6593  function renounceRole(bytes32 role, address callerConfirmation) public virtual {... */\n    tag_8:\n      callvalue\n      dup1\n      iszero\n      tag_61\n      jumpi\n      0x00\n      dup1\n      revert\n    tag_61:\n      pop\n      tag_35\n      tag_63\n      calldatasize\n      0x04\n      tag_54\n      jump\t// in\n    tag_63:\n      tag_64\n      jump\t// in\n        /* \"@openzeppelin/contracts-upgradeable/proxy/utils/UUPSUpgradeable.sol\":4158:4372  function upgradeToAndCall(address newImplementation, bytes memory data) public payable virtual onlyProxy {... */\n    tag_9:\n      tag_35\n      tag_66\n      calldatasize\n      0x04\n      tag_67\n      jump\t// in\n    tag_66:\n      tag_68\n      jump\t// in\n        /* \"@openzeppelin/contracts-upgradeable/proxy/utils/UUPSUpgradeable.sol\":3705:3839  function proxiableUUID() external view virtual notDelegated returns (bytes32) {... */\n    tag_10:\n      callvalue\n      dup1\n      iszero\n      tag_69\n      jumpi\n      0x00\n      dup1\n      revert\n    tag_69:\n      pop\n      tag_45\n      tag_71\n      jump\t// in\n        /* \"@openzeppelin/contracts-upgradeable/security/PausableUpgradeable.sol\":1879:1963  function paused() public view virtual returns (bool) {... */\n    tag_11:\n      callvalue\n      dup1\n      iszero\n      tag_73\n      jumpi\n      0x00\n      dup1\n      revert\n    tag_73:\n      pop\n        /* \"@openzeppelin/contracts-upgradeable/security/PausableUpgradeable.sol\":1926:1930  bool */\n      0x00\n        /* \"@openzeppelin/contracts-upgradeable/security/PausableUpgradeable.sol\":1949:1956  _paused */\n      sload\n      0xff\n      and\n        /* \"@openzeppelin/contracts-upgradeable/security/PausableUpgradeable.sol\":1879:1963  function paused() public view virtual returns (bool) {... */\n      jump(tag_28)\n        /* \"src/contract/CryptoQuestShardsOfGenesisFarming.sol\":1758:2202  function startFarming(uint256 _farmId, uint256 _cropType) public whenNotPaused {... */\n    tag_12:\n      callvalue\n      dup1\n      iszero\n      tag_77\n      jumpi\n      0x00\n      dup1\n      revert\n    tag_77:\n      pop\n      tag_35\n      tag_79\n      calldatasize\n      0x04\n      tag_42\n      jump\t// in\n    tag_79:\n      tag_80\n      jump\t// in\n        /* \"src/contract/CryptoQuestShardsOfGenesisFarming.sol\":3134:3235  function upgradeFarm(uint256 _farmId) public whenNotPaused {... */\n    tag_13:\n      callvalue\n      dup1\n      iszero\n      tag_81\n      jumpi\n      0x00\n      dup1\n      revert\n    tag_81:\n      pop\n      tag_35\n      tag_83\n      calldatasize\n      0x04\n      tag_37\n      jump\t// in\n    tag_83:\n      tag_84\n      jump\t// in\n        /* \"src/contract/CryptoQuestShardsOfGenesisFarming.sol\":1393:1752  function initialize(... */\n    tag_14:\n      callvalue\n      dup1\n      iszero\n      tag_85\n      jumpi\n      0x00\n      dup1\n      revert\n    tag_85:\n      pop\n      tag_35\n      tag_87\n      calldatasize\n      0x04\n      tag_88\n      jump\t// in\n    tag_87:\n      tag_89\n      jump\t// in\n        /* \"src/contract/CryptoQuestShardsOfGenesisFarming.sol\":1047:1072  uint256 public rewardRate */\n    tag_15:\n      callvalue\n      dup1\n      iszero\n      tag_90\n      jumpi\n      0x00\n      dup1\n      revert\n    tag_90:\n      pop\n      tag_45\n      sload(0x34)\n      dup2\n      jump\n        /* \"src/contract/CryptoQuestShardsOfGenesisFarming.sol\":975:1012  mapping(uint256 => Farm) public farms */\n    tag_16:\n      callvalue\n      dup1\n      iszero\n      tag_95\n      jumpi\n      0x00\n      dup1\n      revert\n    tag_95:\n      pop\n      tag_96\n      tag_97\n      calldatasize\n      0x04\n      tag_37\n      jump\t// in\n    tag_97:\n      mstore(0x20, 0x32)\n      0x00\n      swap1\n      dup2\n      mstore\n      0x40\n      swap1\n      keccak256\n      dup1\n      sload\n      0x01\n      dup3\n      add\n      sload\n      0x02\n      dup4\n      add\n      sload\n      0x03\n      dup5\n      add\n      sload\n      0x04\n      dup6\n      add\n      sload\n      0x05\n      swap1\n      swap6\n      add\n      sload\n      swap4\n      swap5\n      sub(shl(0xa0, 0x01), 0x01)\n      swap1\n      swap4\n      and\n      swap4\n      swap2\n      swap3\n      swap1\n      swap2\n      dup7\n      jump\n    tag_96:\n      0x40\n      dup1\n      mload\n        /* \"#utility.yul\":3875:3900   */\n      swap7\n      dup8\n      mstore\n      sub(shl(0xa0, 0x01), 0x01)\n        /* \"#utility.yul\":3936:3968   */\n      swap1\n      swap6\n      and\n        /* \"#utility.yul\":3931:3933   */\n      0x20\n        /* \"#utility.yul\":3916:3934   */\n      dup8\n      add\n        /* \"#utility.yul\":3909:3969   */\n      mstore\n        /* \"#utility.yul\":3985:4003   */\n      swap4\n      dup6\n      add\n        /* \"#utility.yul\":3978:4012   */\n      swap3\n      swap1\n      swap3\n      mstore\n        /* \"#utility.yul\":4043:4045   */\n      0x60\n        /* \"#utility.yul\":4028:4046   */\n      dup5\n      add\n        /* \"#utility.yul\":4021:4055   */\n      mstore\n        /* \"#utility.yul\":4086:4089   */\n      0x80\n        /* \"#utility.yul\":4071:4090   */\n      dup4\n      add\n        /* \"#utility.yul\":4064:4099   */\n      mstore\n        /* \"#utility.yul\":3956:3959   */\n      0xa0\n        /* \"#utility.yul\":4115:4134   */\n      dup3\n      add\n        /* \"#utility.yul\":4108:4143   */\n      mstore\n        /* \"#utility.yul\":3862:3865   */\n      0xc0\n        /* \"#utility.yul\":3847:3866   */\n      add\n        /* \"src/contract/CryptoQuestShardsOfGenesisFarming.sol\":975:1012  mapping(uint256 => Farm) public farms */\n      tag_32\n        /* \"#utility.yul\":3588:4149   */\n      jump\n        /* \"src/contract/CryptoQuestShardsOfGenesisFarming.sol\":1078:1113  uint256 public minimumFarmingPeriod */\n    tag_17:\n      callvalue\n      dup1\n      iszero\n      tag_101\n      jumpi\n      0x00\n      dup1\n      revert\n    tag_101:\n      pop\n      tag_45\n      sload(0x35)\n      dup2\n      jump\n        /* \"@openzeppelin/contracts-upgradeable/access/AccessControlUpgradeable.sol\":3732:3939  function hasRole(bytes32 role, address account) public view virtual returns (bool) {... */\n    tag_18:\n      callvalue\n      dup1\n      iszero\n      tag_105\n      jumpi\n      0x00\n      dup1\n      revert\n    tag_105:\n      pop\n      tag_28\n      tag_107\n      calldatasize\n      0x04\n      tag_54\n      jump\t// in\n    tag_107:\n      tag_108\n      jump\t// in\n        /* \"@openzeppelin/contracts-upgradeable/access/AccessControlUpgradeable.sol\":2317:2366  bytes32 public constant DEFAULT_ADMIN_ROLE = 0x00 */\n    tag_19:\n      callvalue\n      dup1\n      iszero\n      tag_110\n      jumpi\n      0x00\n      dup1\n      revert\n    tag_110:\n      pop\n      tag_45\n        /* \"@openzeppelin/contracts-upgradeable/access/AccessControlUpgradeable.sol\":2362:2366  0x00 */\n      0x00\n        /* \"@openzeppelin/contracts-upgradeable/access/AccessControlUpgradeable.sol\":2317:2366  bytes32 public constant DEFAULT_ADMIN_ROLE = 0x00 */\n      dup2\n      jump\n        /* \"@openzeppelin/contracts-upgradeable/proxy/utils/UUPSUpgradeable.sol\":1819:1877  string public constant UPGRADE_INTERFACE_VERSION = \"5.0.0\" */\n    tag_20:\n      callvalue\n      dup1\n      iszero\n      tag_114\n      jumpi\n      0x00\n      dup1\n      revert\n    tag_114:\n      pop\n      tag_115\n      mload(0x40)\n      dup1\n      0x40\n      add\n      0x40\n      mstore\n      dup1\n      0x05\n      dup2\n      mstore\n      0x20\n      add\n      shl(0xdc, 0x0352e302e3)\n      dup2\n      mstore\n      pop\n      dup2\n      jump\n    tag_115:\n      mload(0x40)\n      tag_32\n      swap2\n      swap1\n      tag_118\n      jump\t// in\n        /* \"@openzeppelin/contracts-upgradeable/access/AccessControlUpgradeable.sol\":5662:5800  function revokeRole(bytes32 role, address account) public virtual onlyRole(getRoleAdmin(role)) {... */\n    tag_21:\n      callvalue\n      dup1\n      iszero\n      tag_119\n      jumpi\n      0x00\n      dup1\n      revert\n    tag_119:\n      pop\n      tag_35\n      tag_121\n      calldatasize\n      0x04\n      tag_54\n      jump\t// in\n    tag_121:\n      tag_122\n      jump\t// in\n        /* \"src/contract/CryptoQuestShardsOfGenesisFarming.sol\":633:695  bytes32 public constant PAUSER_ROLE = keccak256(\"PAUSER_ROLE\") */\n    tag_22:\n      callvalue\n      dup1\n      iszero\n      tag_123\n      jumpi\n      0x00\n      dup1\n      revert\n    tag_123:\n      pop\n      tag_45\n        /* \"src/contract/CryptoQuestShardsOfGenesisFarming.sol\":671:695  keccak256(\"PAUSER_ROLE\") */\n      0x65d7a28e3265b37a6474929f336521b332c1681b933f6cb9f3376673440d862a\n        /* \"src/contract/CryptoQuestShardsOfGenesisFarming.sol\":633:695  bytes32 public constant PAUSER_ROLE = keccak256(\"PAUSER_ROLE\") */\n      dup2\n      jump\n        /* \"src/contract/CryptoQuestShardsOfGenesisFarming.sol\":701:767  bytes32 public constant UPGRADER_ROLE = keccak256(\"UPGRADER_ROLE\") */\n    tag_23:\n      callvalue\n      dup1\n      iszero\n      tag_127\n      jumpi\n      0x00\n      dup1\n      revert\n    tag_127:\n      pop\n      tag_45\n        /* \"src/contract/CryptoQuestShardsOfGenesisFarming.sol\":741:767  keccak256(\"UPGRADER_ROLE\") */\n      0x189ab7a9244df0848122154315af71fe140f3db0fe014031783b0946b8c9d2e3\n        /* \"src/contract/CryptoQuestShardsOfGenesisFarming.sol\":701:767  bytes32 public constant UPGRADER_ROLE = keccak256(\"UPGRADER_ROLE\") */\n      dup2\n      jump\n        /* \"@openzeppelin/contracts-upgradeable/access/AccessControlUpgradeable.sol\":3443:3645  function supportsInterface(bytes4 interfaceId) public view virtual override returns (bool) {... */\n    tag_31:\n        /* \"@openzeppelin/contracts-upgradeable/access/AccessControlUpgradeable.sol\":3528:3532  bool */\n      0x00\n      not(sub(shl(0xe0, 0x01), 0x01))\n        /* \"@openzeppelin/contracts-upgradeable/access/AccessControlUpgradeable.sol\":3551:3598  interfaceId == type(IAccessControl).interfaceId */\n      dup3\n      and\n      shl(0xe0, 0x7965db0b)\n      eq\n      dup1\n        /* \"@openzeppelin/contracts-upgradeable/access/AccessControlUpgradeable.sol\":3551:3638  interfaceId == type(IAccessControl).interfaceId || super.supportsInterface(interfaceId) */\n      tag_133\n      jumpi\n      pop\n      shl(0xe0, 0x01ffc9a7)\n      not(sub(shl(0xe0, 0x01), 0x01))\n        /* \"@openzeppelin/contracts-upgradeable/utils/introspection/ERC165Upgradeable.sol\":1133:1173  interfaceId == type(IERC165).interfaceId */\n      dup4\n      and\n      eq\n        /* \"@openzeppelin/contracts-upgradeable/access/AccessControlUpgradeable.sol\":3602:3638  super.supportsInterface(interfaceId) */\n    tag_133:\n        /* \"@openzeppelin/contracts-upgradeable/access/AccessControlUpgradeable.sol\":3544:3638  return interfaceId == type(IAccessControl).interfaceId || super.supportsInterface(interfaceId) */\n      swap3\n        /* \"@openzeppelin/contracts-upgradeable/access/AccessControlUpgradeable.sol\":3443:3645  function supportsInterface(bytes4 interfaceId) public view virtual override returns (bool) {... */\n      swap2\n      pop\n      pop\n      jump\t// out\n        /* \"src/contract/CryptoQuestShardsOfGenesisFarming.sol\":2208:2978  function endFarming(uint256 _farmId) public whenNotPaused {... */\n    tag_38:\n        /* \"@openzeppelin/contracts-upgradeable/security/PausableUpgradeable.sol\":1503:1522  _requireNotPaused() */\n      tag_136\n        /* \"@openzeppelin/contracts-upgradeable/security/PausableUpgradeable.sol\":1503:1520  _requireNotPaused */\n      tag_137\n        /* \"@openzeppelin/contracts-upgradeable/security/PausableUpgradeable.sol\":1503:1522  _requireNotPaused() */\n      jump\t// in\n    tag_136:\n        /* \"src/contract/CryptoQuestShardsOfGenesisFarming.sol\":2284:2298  farms[_farmId] */\n      0x00\n      dup2\n      dup2\n      mstore\n        /* \"src/contract/CryptoQuestShardsOfGenesisFarming.sol\":2284:2289  farms */\n      0x32\n        /* \"src/contract/CryptoQuestShardsOfGenesisFarming.sol\":2284:2298  farms[_farmId] */\n      0x20\n      mstore\n      0x40\n      swap1\n      keccak256\n        /* \"src/contract/CryptoQuestShardsOfGenesisFarming.sol\":2284:2304  farms[_farmId].owner */\n      0x01\n      add\n      sload\n      sub(shl(0xa0, 0x01), 0x01)\n      and\n        /* \"src/contract/CryptoQuestShardsOfGenesisFarming.sol\":2308:2318  msg.sender */\n      caller\n        /* \"src/contract/CryptoQuestShardsOfGenesisFarming.sol\":2284:2318  farms[_farmId].owner == msg.sender */\n      eq\n        /* \"src/contract/CryptoQuestShardsOfGenesisFarming.sol\":2276:2348  require(farms[_farmId].owner == msg.sender, \"Not the owner of the farm\") */\n      tag_139\n      jumpi\n      mload(0x40)\n      shl(0xe5, 0x461bcd)\n      dup2\n      mstore\n        /* \"#utility.yul\":4779:4781   */\n      0x20\n        /* \"src/contract/CryptoQuestShardsOfGenesisFarming.sol\":2276:2348  require(farms[_farmId].owner == msg.sender, \"Not the owner of the farm\") */\n      0x04\n      dup3\n      add\n        /* \"#utility.yul\":4761:4782   */\n      mstore\n        /* \"#utility.yul\":4818:4820   */\n      0x19\n        /* \"#utility.yul\":4798:4816   */\n      0x24\n      dup3\n      add\n        /* \"#utility.yul\":4791:4821   */\n      mstore\n        /* \"#utility.yul\":4857:4884   */\n      0x4e6f7420746865206f776e6572206f6620746865206661726d00000000000000\n        /* \"#utility.yul\":4837:4855   */\n      0x44\n      dup3\n      add\n        /* \"#utility.yul\":4830:4885   */\n      mstore\n        /* \"#utility.yul\":4902:4920   */\n      0x64\n      add\n        /* \"src/contract/CryptoQuestShardsOfGenesisFarming.sol\":2276:2348  require(farms[_farmId].owner == msg.sender, \"Not the owner of the farm\") */\n    tag_140:\n      mload(0x40)\n      dup1\n      swap2\n      sub\n      swap1\n      revert\n    tag_139:\n        /* \"src/contract/CryptoQuestShardsOfGenesisFarming.sol\":2366:2380  farms[_farmId] */\n      0x00\n      dup2\n      dup2\n      mstore\n        /* \"src/contract/CryptoQuestShardsOfGenesisFarming.sol\":2366:2371  farms */\n      0x32\n        /* \"src/contract/CryptoQuestShardsOfGenesisFarming.sol\":2366:2380  farms[_farmId] */\n      0x20\n      mstore\n      0x40\n      swap1\n      keccak256\n        /* \"src/contract/CryptoQuestShardsOfGenesisFarming.sol\":2366:2388  farms[_farmId].endTime */\n      0x03\n      add\n      sload\n        /* \"src/contract/CryptoQuestShardsOfGenesisFarming.sol\":2366:2393  farms[_farmId].endTime == 0 */\n      iszero\n        /* \"src/contract/CryptoQuestShardsOfGenesisFarming.sol\":2358:2416  require(farms[_farmId].endTime == 0, \"Farm already ended\") */\n      tag_142\n      jumpi\n      mload(0x40)\n      shl(0xe5, 0x461bcd)\n      dup2\n      mstore\n        /* \"#utility.yul\":5133:5135   */\n      0x20\n        /* \"src/contract/CryptoQuestShardsOfGenesisFarming.sol\":2358:2416  require(farms[_farmId].endTime == 0, \"Farm already ended\") */\n      0x04\n      dup3\n      add\n        /* \"#utility.yul\":5115:5136   */\n      mstore\n        /* \"#utility.yul\":5172:5174   */\n      0x12\n        /* \"#utility.yul\":5152:5170   */\n      0x24\n      dup3\n      add\n        /* \"#utility.yul\":5145:5175   */\n      mstore\n      shl(0x72, 0x11985c9b48185b1c9958591e48195b991959)\n        /* \"#utility.yul\":5191:5209   */\n      0x44\n      dup3\n      add\n        /* \"#utility.yul\":5184:5232   */\n      mstore\n        /* \"#utility.yul\":5249:5267   */\n      0x64\n      add\n        /* \"src/contract/CryptoQuestShardsOfGenesisFarming.sol\":2358:2416  require(farms[_farmId].endTime == 0, \"Farm already ended\") */\n      tag_140\n        /* \"#utility.yul\":4931:5273   */\n      jump\n        /* \"src/contract/CryptoQuestShardsOfGenesisFarming.sol\":2358:2416  require(farms[_farmId].endTime == 0, \"Farm already ended\") */\n    tag_142:\n        /* \"src/contract/CryptoQuestShardsOfGenesisFarming.sol\":2427:2448  uint256 farmingPeriod */\n      0x00\n        /* \"src/contract/CryptoQuestShardsOfGenesisFarming.sol\":2469:2483  farms[_farmId] */\n      dup2\n      dup2\n      mstore\n        /* \"src/contract/CryptoQuestShardsOfGenesisFarming.sol\":2469:2474  farms */\n      0x32\n        /* \"src/contract/CryptoQuestShardsOfGenesisFarming.sol\":2469:2483  farms[_farmId] */\n      0x20\n      mstore\n      0x40\n      dup2\n      keccak256\n        /* \"src/contract/CryptoQuestShardsOfGenesisFarming.sol\":2469:2493  farms[_farmId].startTime */\n      0x02\n      add\n      sload\n        /* \"src/contract/CryptoQuestShardsOfGenesisFarming.sol\":2451:2493  block.timestamp - farms[_farmId].startTime */\n      tag_145\n      swap1\n        /* \"src/contract/CryptoQuestShardsOfGenesisFarming.sol\":2451:2466  block.timestamp */\n      timestamp\n        /* \"src/contract/CryptoQuestShardsOfGenesisFarming.sol\":2451:2493  block.timestamp - farms[_farmId].startTime */\n      tag_146\n      jump\t// in\n    tag_145:\n        /* \"src/contract/CryptoQuestShardsOfGenesisFarming.sol\":2427:2493  uint256 farmingPeriod = block.timestamp - farms[_farmId].startTime */\n      swap1\n      pop\n        /* \"src/contract/CryptoQuestShardsOfGenesisFarming.sol\":2528:2548  minimumFarmingPeriod */\n      sload(0x35)\n        /* \"src/contract/CryptoQuestShardsOfGenesisFarming.sol\":2511:2524  farmingPeriod */\n      dup2\n        /* \"src/contract/CryptoQuestShardsOfGenesisFarming.sol\":2511:2548  farmingPeriod >= minimumFarmingPeriod */\n      lt\n      iszero\n        /* \"src/contract/CryptoQuestShardsOfGenesisFarming.sol\":2503:2575  require(farmingPeriod >= minimumFarmingPeriod, \"Farming period not met\") */\n      tag_147\n      jumpi\n      mload(0x40)\n      shl(0xe5, 0x461bcd)\n      dup2\n      mstore\n        /* \"#utility.yul\":5745:5747   */\n      0x20\n        /* \"src/contract/CryptoQuestShardsOfGenesisFarming.sol\":2503:2575  require(farmingPeriod >= minimumFarmingPeriod, \"Farming period not met\") */\n      0x04\n      dup3\n      add\n        /* \"#utility.yul\":5727:5748   */\n      mstore\n        /* \"#utility.yul\":5784:5786   */\n      0x16\n        /* \"#utility.yul\":5764:5782   */\n      0x24\n      dup3\n      add\n        /* \"#utility.yul\":5757:5787   */\n      mstore\n      shl(0x52, 0x11985c9b5a5b99c81c195c9a5bd9081b9bdd081b595d)\n        /* \"#utility.yul\":5803:5821   */\n      0x44\n      dup3\n      add\n        /* \"#utility.yul\":5796:5848   */\n      mstore\n        /* \"#utility.yul\":5865:5883   */\n      0x64\n      add\n        /* \"src/contract/CryptoQuestShardsOfGenesisFarming.sol\":2503:2575  require(farmingPeriod >= minimumFarmingPeriod, \"Farming period not met\") */\n      tag_140\n        /* \"#utility.yul\":5543:5889   */\n      jump\n        /* \"src/contract/CryptoQuestShardsOfGenesisFarming.sol\":2503:2575  require(farmingPeriod >= minimumFarmingPeriod, \"Farming period not met\") */\n    tag_147:\n        /* \"src/contract/CryptoQuestShardsOfGenesisFarming.sol\":2586:2600  farms[_farmId] */\n      0x00\n      dup3\n      dup2\n      mstore\n        /* \"src/contract/CryptoQuestShardsOfGenesisFarming.sol\":2586:2591  farms */\n      0x32\n        /* \"src/contract/CryptoQuestShardsOfGenesisFarming.sol\":2586:2600  farms[_farmId] */\n      0x20\n      mstore\n      0x40\n      swap1\n      keccak256\n        /* \"src/contract/CryptoQuestShardsOfGenesisFarming.sol\":2611:2626  block.timestamp */\n      timestamp\n        /* \"src/contract/CryptoQuestShardsOfGenesisFarming.sol\":2586:2608  farms[_farmId].endTime */\n      0x03\n      dup3\n      add\n        /* \"src/contract/CryptoQuestShardsOfGenesisFarming.sol\":2586:2626  farms[_farmId].endTime = block.timestamp */\n      sstore\n        /* \"src/contract/CryptoQuestShardsOfGenesisFarming.sol\":2689:2712  farms[_farmId].cropType */\n      0x05\n      add\n      sload\n        /* \"src/contract/CryptoQuestShardsOfGenesisFarming.sol\":2676:2686  rewardRate */\n      sload(0x34)\n        /* \"src/contract/CryptoQuestShardsOfGenesisFarming.sol\":2660:2686  farmingPeriod * rewardRate */\n      tag_150\n      swap1\n        /* \"src/contract/CryptoQuestShardsOfGenesisFarming.sol\":2660:2673  farmingPeriod */\n      dup4\n        /* \"src/contract/CryptoQuestShardsOfGenesisFarming.sol\":2660:2686  farmingPeriod * rewardRate */\n      tag_151\n      jump\t// in\n    tag_150:\n        /* \"src/contract/CryptoQuestShardsOfGenesisFarming.sol\":2660:2712  farmingPeriod * rewardRate * farms[_farmId].cropType */\n      tag_152\n      swap2\n      swap1\n      tag_151\n      jump\t// in\n    tag_152:\n        /* \"src/contract/CryptoQuestShardsOfGenesisFarming.sol\":2636:2650  farms[_farmId] */\n      0x00\n      dup4\n      dup2\n      mstore\n        /* \"src/contract/CryptoQuestShardsOfGenesisFarming.sol\":2636:2641  farms */\n      0x32\n        /* \"src/contract/CryptoQuestShardsOfGenesisFarming.sol\":2636:2650  farms[_farmId] */\n      0x20\n      mstore\n      0x40\n      swap1\n      dup2\n      swap1\n      keccak256\n        /* \"src/contract/CryptoQuestShardsOfGenesisFarming.sol\":2636:2657  farms[_farmId].reward */\n      0x04\n      swap1\n      dup2\n      add\n        /* \"src/contract/CryptoQuestShardsOfGenesisFarming.sol\":2636:2712  farms[_farmId].reward = farmingPeriod * rewardRate * farms[_farmId].cropType */\n      dup4\n      swap1\n      sstore\n        /* \"src/contract/CryptoQuestShardsOfGenesisFarming.sol\":2770:2778  cqtToken */\n      sload(0x33)\n        /* \"src/contract/CryptoQuestShardsOfGenesisFarming.sol\":2752:2823  IERC20Upgradeable(cqtToken).transfer(msg.sender, farms[_farmId].reward) */\n      swap2\n      mload\n      shl(0xe0, 0xa9059cbb)\n      dup2\n      mstore\n        /* \"src/contract/CryptoQuestShardsOfGenesisFarming.sol\":2789:2799  msg.sender */\n      caller\n        /* \"src/contract/CryptoQuestShardsOfGenesisFarming.sol\":2752:2823  IERC20Upgradeable(cqtToken).transfer(msg.sender, farms[_farmId].reward) */\n      swap2\n      dup2\n      add\n        /* \"#utility.yul\":6241:6292   */\n      swap2\n      swap1\n      swap2\n      mstore\n        /* \"#utility.yul\":6308:6326   */\n      0x24\n      dup2\n      add\n        /* \"#utility.yul\":6301:6335   */\n      swap3\n      swap1\n      swap3\n      mstore\n      sub(shl(0xa0, 0x01), 0x01)\n        /* \"src/contract/CryptoQuestShardsOfGenesisFarming.sol\":2770:2778  cqtToken */\n      and\n      swap1\n        /* \"src/contract/CryptoQuestShardsOfGenesisFarming.sol\":2752:2788  IERC20Upgradeable(cqtToken).transfer */\n      0xa9059cbb\n      swap1\n        /* \"#utility.yul\":6214:6232   */\n      0x44\n      add\n        /* \"src/contract/CryptoQuestShardsOfGenesisFarming.sol\":2752:2823  IERC20Upgradeable(cqtToken).transfer(msg.sender, farms[_farmId].reward) */\n      0x20\n      mload(0x40)\n      dup1\n      dup4\n      sub\n      dup2\n      0x00\n      dup8\n      gas\n      call\n      iszero\n      dup1\n      iszero\n      tag_156\n      jumpi\n      returndatasize\n      0x00\n      dup1\n      returndatacopy\n      revert(0x00, returndatasize)\n    tag_156:\n      pop\n      pop\n      pop\n      pop\n      mload(0x40)\n      returndatasize\n      not(0x1f)\n      0x1f\n      dup3\n      add\n      and\n      dup3\n      add\n      dup1\n      0x40\n      mstore\n      pop\n      dup2\n      add\n      swap1\n      tag_157\n      swap2\n      swap1\n      tag_158\n      jump\t// in\n    tag_157:\n      pop\n        /* \"src/contract/CryptoQuestShardsOfGenesisFarming.sol\":2867:2881  farms[_farmId] */\n      0x00\n      dup3\n      dup2\n      mstore\n        /* \"src/contract/CryptoQuestShardsOfGenesisFarming.sol\":2867:2872  farms */\n      0x32\n        /* \"src/contract/CryptoQuestShardsOfGenesisFarming.sol\":2867:2881  farms[_farmId] */\n      0x20\n      swap1\n      dup2\n      mstore\n      0x40\n      swap2\n      dup3\n      swap1\n      keccak256\n        /* \"src/contract/CryptoQuestShardsOfGenesisFarming.sol\":2867:2891  farms[_farmId].startTime */\n      0x02\n      dup2\n      add\n      sload\n        /* \"src/contract/CryptoQuestShardsOfGenesisFarming.sol\":2893:2915  farms[_farmId].endTime */\n      0x03\n      dup3\n      add\n      sload\n        /* \"src/contract/CryptoQuestShardsOfGenesisFarming.sol\":2917:2938  farms[_farmId].reward */\n      0x04\n      swap1\n      swap3\n      add\n      sload\n        /* \"src/contract/CryptoQuestShardsOfGenesisFarming.sol\":2839:2939  Farmed(_farmId, msg.sender, farms[_farmId].startTime, farms[_farmId].endTime, farms[_farmId].reward) */\n      dup5\n      mload\n        /* \"#utility.yul\":6887:6912   */\n      dup8\n      dup2\n      mstore\n        /* \"src/contract/CryptoQuestShardsOfGenesisFarming.sol\":2855:2865  msg.sender */\n      caller\n        /* \"#utility.yul\":6928:6946   */\n      swap5\n      dup2\n      add\n        /* \"#utility.yul\":6921:6981   */\n      swap5\n      swap1\n      swap5\n      mstore\n        /* \"#utility.yul\":6997:7015   */\n      swap4\n      dup4\n      add\n        /* \"#utility.yul\":6990:7024   */\n      mstore\n        /* \"#utility.yul\":7055:7057   */\n      0x60\n        /* \"#utility.yul\":7040:7058   */\n      dup3\n      add\n        /* \"#utility.yul\":7033:7067   */\n      mstore\n        /* \"#utility.yul\":7098:7101   */\n      0x80\n        /* \"#utility.yul\":7083:7102   */\n      dup2\n      add\n        /* \"#utility.yul\":7076:7111   */\n      swap2\n      swap1\n      swap2\n      mstore\n        /* \"src/contract/CryptoQuestShardsOfGenesisFarming.sol\":2839:2939  Farmed(_farmId, msg.sender, farms[_farmId].startTime, farms[_farmId].endTime, farms[_farmId].reward) */\n      0x25322636d6c558107fb20092ea248d82ec953603ce99bde991511fd53567c654\n      swap1\n        /* \"#utility.yul\":6874:6877   */\n      0xa0\n        /* \"#utility.yul\":6859:6878   */\n      add\n        /* \"src/contract/CryptoQuestShardsOfGenesisFarming.sol\":2839:2939  Farmed(_farmId, msg.sender, farms[_farmId].startTime, farms[_farmId].endTime, farms[_farmId].reward) */\n      mload(0x40)\n      dup1\n      swap2\n      sub\n      swap1\n      log1\n      pop\n        /* \"src/contract/CryptoQuestShardsOfGenesisFarming.sol\":2957:2971  farms[_farmId] */\n      0x00\n      swap1\n      dup2\n      mstore\n        /* \"src/contract/CryptoQuestShardsOfGenesisFarming.sol\":2957:2962  farms */\n      0x32\n        /* \"src/contract/CryptoQuestShardsOfGenesisFarming.sol\":2957:2971  farms[_farmId] */\n      0x20\n      mstore\n      0x40\n      dup2\n      keccak256\n        /* \"src/contract/CryptoQuestShardsOfGenesisFarming.sol\":2950:2971  delete farms[_farmId] */\n      dup2\n      dup2\n      sstore\n      0x01\n      dup2\n      add\n      dup1\n      sload\n      not(sub(shl(0xa0, 0x01), 0x01))\n      and\n      swap1\n      sstore\n      0x02\n      dup2\n      add\n      dup3\n      swap1\n      sstore\n      0x03\n      dup2\n      add\n      dup3\n      swap1\n      sstore\n      0x04\n      dup2\n      add\n      dup3\n      swap1\n      sstore\n      0x05\n      add\n      sstore\n        /* \"src/contract/CryptoQuestShardsOfGenesisFarming.sol\":2208:2978  function endFarming(uint256 _farmId) public whenNotPaused {... */\n      jump\t// out\n        /* \"src/contract/CryptoQuestShardsOfGenesisFarming.sol\":2984:3128  function purchaseFarm(uint256 _farmId, uint256 price) public whenNotPaused {... */\n    tag_43:\n        /* \"@openzeppelin/contracts-upgradeable/security/PausableUpgradeable.sol\":1503:1522  _requireNotPaused() */\n      tag_162\n        /* \"@openzeppelin/contracts-upgradeable/security/PausableUpgradeable.sol\":1503:1520  _requireNotPaused */\n      tag_137\n        /* \"@openzeppelin/contracts-upgradeable/security/PausableUpgradeable.sol\":1503:1522  _requireNotPaused() */\n      jump\t// in\n    tag_162:\n        /* \"src/contract/CryptoQuestShardsOfGenesisFarming.sol\":2984:3128  function purchaseFarm(uint256 _farmId, uint256 price) public whenNotPaused {... */\n      pop\n      pop\n      jump\t// out\n        /* \"@openzeppelin/contracts-upgradeable/access/AccessControlUpgradeable.sol\":4759:4950  function getRoleAdmin(bytes32 role) public view virtual returns (bytes32) {... */\n    tag_48:\n        /* \"@openzeppelin/contracts-upgradeable/access/AccessControlUpgradeable.sol\":4824:4831  bytes32 */\n      0x00\n        /* \"@openzeppelin/contracts-upgradeable/access/AccessControlUpgradeable.sol\":4919:4933  $._roles[role] */\n      swap1\n      dup2\n      mstore\n      0x00\n      dup1\n      mload\n      0x20\n      data_b3da67d1b252aeab7c8063542d95e75f82a5307a82535949bc38f7cf7ba8897f\n      dup4\n      codecopy\n      dup2\n      mload\n      swap2\n      mstore\n      0x20\n      mstore\n      0x40\n      swap1\n      keccak256\n        /* \"@openzeppelin/contracts-upgradeable/access/AccessControlUpgradeable.sol\":4919:4943  $._roles[role].adminRole */\n      0x01\n      add\n      sload\n      swap1\n        /* \"@openzeppelin/contracts-upgradeable/access/AccessControlUpgradeable.sol\":4759:4950  function getRoleAdmin(bytes32 role) public view virtual returns (bytes32) {... */\n      jump\t// out\n        /* \"@openzeppelin/contracts-upgradeable/access/AccessControlUpgradeable.sol\":5246:5382  function grantRole(bytes32 role, address account) public virtual onlyRole(getRoleAdmin(role)) {... */\n    tag_55:\n        /* \"@openzeppelin/contracts-upgradeable/access/AccessControlUpgradeable.sol\":5320:5338  getRoleAdmin(role) */\n      tag_167\n        /* \"@openzeppelin/contracts-upgradeable/access/AccessControlUpgradeable.sol\":5333:5337  role */\n      dup3\n        /* \"@openzeppelin/contracts-upgradeable/access/AccessControlUpgradeable.sol\":5320:5332  getRoleAdmin */\n      tag_48\n        /* \"@openzeppelin/contracts-upgradeable/access/AccessControlUpgradeable.sol\":5320:5338  getRoleAdmin(role) */\n      jump\t// in\n    tag_167:\n        /* \"@openzeppelin/contracts-upgradeable/access/AccessControlUpgradeable.sol\":3191:3207  _checkRole(role) */\n      tag_169\n        /* \"@openzeppelin/contracts-upgradeable/access/AccessControlUpgradeable.sol\":3202:3206  role */\n      dup2\n        /* \"@openzeppelin/contracts-upgradeable/access/AccessControlUpgradeable.sol\":3191:3201  _checkRole */\n      tag_170\n        /* \"@openzeppelin/contracts-upgradeable/access/AccessControlUpgradeable.sol\":3191:3207  _checkRole(role) */\n      jump\t// in\n    tag_169:\n        /* \"@openzeppelin/contracts-upgradeable/access/AccessControlUpgradeable.sol\":5350:5375  _grantRole(role, account) */\n      tag_172\n        /* \"@openzeppelin/contracts-upgradeable/access/AccessControlUpgradeable.sol\":5361:5365  role */\n      dup4\n        /* \"@openzeppelin/contracts-upgradeable/access/AccessControlUpgradeable.sol\":5367:5374  account */\n      dup4\n        /* \"@openzeppelin/contracts-upgradeable/access/AccessControlUpgradeable.sol\":5350:5360  _grantRole */\n      tag_173\n        /* \"@openzeppelin/contracts-upgradeable/access/AccessControlUpgradeable.sol\":5350:5375  _grantRole(role, account) */\n      jump\t// in\n    tag_172:\n      pop\n        /* \"@openzeppelin/contracts-upgradeable/access/AccessControlUpgradeable.sol\":5246:5382  function grantRole(bytes32 role, address account) public virtual onlyRole(getRoleAdmin(role)) {... */\n      pop\n      pop\n      pop\n      jump\t// out\n        /* \"@openzeppelin/contracts-upgradeable/access/AccessControlUpgradeable.sol\":6348:6593  function renounceRole(bytes32 role, address callerConfirmation) public virtual {... */\n    tag_64:\n      sub(shl(0xa0, 0x01), 0x01)\n        /* \"@openzeppelin/contracts-upgradeable/access/AccessControlUpgradeable.sol\":6441:6475  callerConfirmation != _msgSender() */\n      dup2\n      and\n        /* \"@openzeppelin/contracts-upgradeable/utils/ContextUpgradeable.sol\":966:976  msg.sender */\n      caller\n        /* \"@openzeppelin/contracts-upgradeable/access/AccessControlUpgradeable.sol\":6441:6475  callerConfirmation != _msgSender() */\n      eq\n        /* \"@openzeppelin/contracts-upgradeable/access/AccessControlUpgradeable.sol\":6437:6539  if (callerConfirmation != _msgSender()) {... */\n      tag_177\n      jumpi\n        /* \"@openzeppelin/contracts-upgradeable/access/AccessControlUpgradeable.sol\":6498:6528  AccessControlBadConfirmation() */\n      mload(0x40)\n      shl(0xe1, 0x334bd919)\n      dup2\n      mstore\n      0x04\n      add\n      mload(0x40)\n      dup1\n      swap2\n      sub\n      swap1\n      revert\n        /* \"@openzeppelin/contracts-upgradeable/access/AccessControlUpgradeable.sol\":6437:6539  if (callerConfirmation != _msgSender()) {... */\n    tag_177:\n        /* \"@openzeppelin/contracts-upgradeable/access/AccessControlUpgradeable.sol\":6549:6586  _revokeRole(role, callerConfirmation) */\n      tag_178\n        /* \"@openzeppelin/contracts-upgradeable/access/AccessControlUpgradeable.sol\":6561:6565  role */\n      dup3\n        /* \"@openzeppelin/contracts-upgradeable/access/AccessControlUpgradeable.sol\":6567:6585  callerConfirmation */\n      dup3\n        /* \"@openzeppelin/contracts-upgradeable/access/AccessControlUpgradeable.sol\":6549:6560  _revokeRole */\n      tag_179\n        /* \"@openzeppelin/contracts-upgradeable/access/AccessControlUpgradeable.sol\":6549:6586  _revokeRole(role, callerConfirmation) */\n      jump\t// in\n    tag_178:\n      pop\n        /* \"@openzeppelin/contracts-upgradeable/access/AccessControlUpgradeable.sol\":6348:6593  function renounceRole(bytes32 role, address callerConfirmation) public virtual {... */\n      pop\n      pop\n      jump\t// out\n        /* \"@openzeppelin/contracts-upgradeable/proxy/utils/UUPSUpgradeable.sol\":4158:4372  function upgradeToAndCall(address newImplementation, bytes memory data) public payable virtual onlyProxy {... */\n    tag_68:\n        /* \"@openzeppelin/contracts-upgradeable/proxy/utils/UUPSUpgradeable.sol\":2653:2666  _checkProxy() */\n      tag_181\n        /* \"@openzeppelin/contracts-upgradeable/proxy/utils/UUPSUpgradeable.sol\":2653:2664  _checkProxy */\n      tag_182\n        /* \"@openzeppelin/contracts-upgradeable/proxy/utils/UUPSUpgradeable.sol\":2653:2666  _checkProxy() */\n      jump\t// in\n    tag_181:\n        /* \"@openzeppelin/contracts-upgradeable/proxy/utils/UUPSUpgradeable.sol\":4273:4309  _authorizeUpgrade(newImplementation) */\n      tag_184\n        /* \"@openzeppelin/contracts-upgradeable/proxy/utils/UUPSUpgradeable.sol\":4291:4308  newImplementation */\n      dup3\n        /* \"@openzeppelin/contracts-upgradeable/proxy/utils/UUPSUpgradeable.sol\":4273:4290  _authorizeUpgrade */\n      tag_185\n        /* \"@openzeppelin/contracts-upgradeable/proxy/utils/UUPSUpgradeable.sol\":4273:4309  _authorizeUpgrade(newImplementation) */\n      jump\t// in\n    tag_184:\n        /* \"@openzeppelin/contracts-upgradeable/proxy/utils/UUPSUpgradeable.sol\":4319:4365  _upgradeToAndCallUUPS(newImplementation, data) */\n      tag_162\n        /* \"@openzeppelin/contracts-upgradeable/proxy/utils/UUPSUpgradeable.sol\":4341:4358  newImplementation */\n      dup3\n        /* \"@openzeppelin/contracts-upgradeable/proxy/utils/UUPSUpgradeable.sol\":4360:4364  data */\n      dup3\n        /* \"@openzeppelin/contracts-upgradeable/proxy/utils/UUPSUpgradeable.sol\":4319:4340  _upgradeToAndCallUUPS */\n      tag_187\n        /* \"@openzeppelin/contracts-upgradeable/proxy/utils/UUPSUpgradeable.sol\":4319:4365  _upgradeToAndCallUUPS(newImplementation, data) */\n      jump\t// in\n        /* \"@openzeppelin/contracts-upgradeable/proxy/utils/UUPSUpgradeable.sol\":3705:3839  function proxiableUUID() external view virtual notDelegated returns (bytes32) {... */\n    tag_71:\n        /* \"@openzeppelin/contracts-upgradeable/proxy/utils/UUPSUpgradeable.sol\":3774:3781  bytes32 */\n      0x00\n        /* \"@openzeppelin/contracts-upgradeable/proxy/utils/UUPSUpgradeable.sol\":2924:2944  _checkNotDelegated() */\n      tag_189\n        /* \"@openzeppelin/contracts-upgradeable/proxy/utils/UUPSUpgradeable.sol\":2924:2942  _checkNotDelegated */\n      tag_190\n        /* \"@openzeppelin/contracts-upgradeable/proxy/utils/UUPSUpgradeable.sol\":2924:2944  _checkNotDelegated() */\n      jump\t// in\n    tag_189:\n      pop\n      0x00\n      dup1\n      mload\n      0x20\n      data_75b20eef8615de99c108b05f0dbda081c91897128caa336d75dffb97c4132b4d\n      dup4\n      codecopy\n      dup2\n      mload\n      swap2\n      mstore\n        /* \"@openzeppelin/contracts-upgradeable/proxy/utils/UUPSUpgradeable.sol\":3705:3839  function proxiableUUID() external view virtual notDelegated returns (bytes32) {... */\n      swap1\n      jump\t// out\n        /* \"src/contract/CryptoQuestShardsOfGenesisFarming.sol\":1758:2202  function startFarming(uint256 _farmId, uint256 _cropType) public whenNotPaused {... */\n    tag_80:\n        /* \"@openzeppelin/contracts-upgradeable/security/PausableUpgradeable.sol\":1503:1522  _requireNotPaused() */\n      tag_194\n        /* \"@openzeppelin/contracts-upgradeable/security/PausableUpgradeable.sol\":1503:1520  _requireNotPaused */\n      tag_137\n        /* \"@openzeppelin/contracts-upgradeable/security/PausableUpgradeable.sol\":1503:1522  _requireNotPaused() */\n      jump\t// in\n    tag_194:\n        /* \"src/contract/CryptoQuestShardsOfGenesisFarming.sol\":1855:1869  farms[_farmId] */\n      0x00\n      dup3\n      dup2\n      mstore\n        /* \"src/contract/CryptoQuestShardsOfGenesisFarming.sol\":1855:1860  farms */\n      0x32\n        /* \"src/contract/CryptoQuestShardsOfGenesisFarming.sol\":1855:1869  farms[_farmId] */\n      0x20\n      mstore\n      0x40\n      swap1\n      keccak256\n        /* \"src/contract/CryptoQuestShardsOfGenesisFarming.sol\":1855:1876  farms[_farmId].farmId */\n      sload\n        /* \"src/contract/CryptoQuestShardsOfGenesisFarming.sol\":1855:1881  farms[_farmId].farmId == 0 */\n      iszero\n        /* \"src/contract/CryptoQuestShardsOfGenesisFarming.sol\":1847:1905  require(farms[_farmId].farmId == 0, \"Farm already exists\") */\n      tag_196\n      jumpi\n      mload(0x40)\n      shl(0xe5, 0x461bcd)\n      dup2\n      mstore\n        /* \"#utility.yul\":7324:7326   */\n      0x20\n        /* \"src/contract/CryptoQuestShardsOfGenesisFarming.sol\":1847:1905  require(farms[_farmId].farmId == 0, \"Farm already exists\") */\n      0x04\n      dup3\n      add\n        /* \"#utility.yul\":7306:7327   */\n      mstore\n        /* \"#utility.yul\":7363:7365   */\n      0x13\n        /* \"#utility.yul\":7343:7361   */\n      0x24\n      dup3\n      add\n        /* \"#utility.yul\":7336:7366   */\n      mstore\n      shl(0x68, 0x4661726d20616c726561647920657869737473)\n        /* \"#utility.yul\":7382:7400   */\n      0x44\n      dup3\n      add\n        /* \"#utility.yul\":7375:7424   */\n      mstore\n        /* \"#utility.yul\":7441:7459   */\n      0x64\n      add\n        /* \"src/contract/CryptoQuestShardsOfGenesisFarming.sol\":1847:1905  require(farms[_farmId].farmId == 0, \"Farm already exists\") */\n      tag_140\n        /* \"#utility.yul\":7122:7465   */\n      jump\n        /* \"src/contract/CryptoQuestShardsOfGenesisFarming.sol\":1847:1905  require(farms[_farmId].farmId == 0, \"Farm already exists\") */\n    tag_196:\n        /* \"src/contract/CryptoQuestShardsOfGenesisFarming.sol\":1933:2129  Farm({... */\n      0x40\n      dup1\n      mload\n      0xc0\n      dup2\n      add\n      dup3\n      mstore\n      dup4\n      dup2\n      mstore\n        /* \"src/contract/CryptoQuestShardsOfGenesisFarming.sol\":1988:1998  msg.sender */\n      caller\n        /* \"src/contract/CryptoQuestShardsOfGenesisFarming.sol\":1933:2129  Farm({... */\n      0x20\n      dup1\n      dup4\n      add\n      dup3\n      dup2\n      mstore\n        /* \"src/contract/CryptoQuestShardsOfGenesisFarming.sol\":2023:2038  block.timestamp */\n      timestamp\n        /* \"src/contract/CryptoQuestShardsOfGenesisFarming.sol\":1933:2129  Farm({... */\n      dup5\n      dup7\n      add\n      dup2\n      dup2\n      mstore\n      0x00\n      0x60\n      dup1\n      dup9\n      add\n      dup3\n      dup2\n      mstore\n      0x80\n      dup1\n      dup11\n      add\n      dup5\n      dup2\n      mstore\n      0xa0\n      dup1\n      dup13\n      add\n      dup15\n      dup2\n      mstore\n        /* \"src/contract/CryptoQuestShardsOfGenesisFarming.sol\":1916:1930  farms[_farmId] */\n      dup16\n      dup8\n      mstore\n        /* \"src/contract/CryptoQuestShardsOfGenesisFarming.sol\":1916:1921  farms */\n      0x32\n        /* \"src/contract/CryptoQuestShardsOfGenesisFarming.sol\":1916:1930  farms[_farmId] */\n      dup12\n      mstore\n      dup14\n      dup8\n      keccak256\n        /* \"src/contract/CryptoQuestShardsOfGenesisFarming.sol\":1916:2129  farms[_farmId] = Farm({... */\n      swap13\n      mload\n      dup14\n      sstore\n      swap9\n      mload\n      0x01\n      dup14\n      add\n      dup1\n      sload\n      not(sub(shl(0xa0, 0x01), 0x01))\n      and\n      sub(shl(0xa0, 0x01), 0x01)\n      swap1\n      swap3\n      and\n      swap2\n      swap1\n      swap2\n      or\n      swap1\n      sstore\n      swap6\n      mload\n      0x02\n      dup13\n      add\n      sstore\n      swap2\n      mload\n      0x03\n      dup12\n      add\n      sstore\n      swap1\n      mload\n      0x04\n      dup11\n      add\n      sstore\n      swap5\n      mload\n      0x05\n      swap1\n      swap9\n      add\n      swap8\n      swap1\n      swap8\n      sstore\n        /* \"src/contract/CryptoQuestShardsOfGenesisFarming.sol\":2145:2195  Farmed(_farmId, msg.sender, block.timestamp, 0, 0) */\n      dup8\n      mload\n        /* \"#utility.yul\":6887:6912   */\n      dup11\n      dup2\n      mstore\n        /* \"#utility.yul\":6928:6946   */\n      swap5\n      dup6\n      add\n        /* \"#utility.yul\":6921:6981   */\n      swap6\n      swap1\n      swap6\n      mstore\n        /* \"#utility.yul\":6997:7015   */\n      swap6\n      dup4\n      add\n        /* \"#utility.yul\":6990:7024   */\n      mstore\n        /* \"#utility.yul\":7040:7058   */\n      swap3\n      dup2\n      add\n        /* \"#utility.yul\":7033:7067   */\n      dup3\n      swap1\n      mstore\n        /* \"#utility.yul\":7083:7102   */\n      swap2\n      dup3\n      add\n        /* \"#utility.yul\":7076:7111   */\n      mstore\n        /* \"src/contract/CryptoQuestShardsOfGenesisFarming.sol\":2145:2195  Farmed(_farmId, msg.sender, block.timestamp, 0, 0) */\n      0x25322636d6c558107fb20092ea248d82ec953603ce99bde991511fd53567c654\n      swap2\n        /* \"#utility.yul\":6859:6878   */\n      add\n        /* \"src/contract/CryptoQuestShardsOfGenesisFarming.sol\":2145:2195  Farmed(_farmId, msg.sender, block.timestamp, 0, 0) */\n      mload(0x40)\n      dup1\n      swap2\n      sub\n      swap1\n      log1\n        /* \"src/contract/CryptoQuestShardsOfGenesisFarming.sol\":1758:2202  function startFarming(uint256 _farmId, uint256 _cropType) public whenNotPaused {... */\n      pop\n      pop\n      jump\t// out\n        /* \"src/contract/CryptoQuestShardsOfGenesisFarming.sol\":3134:3235  function upgradeFarm(uint256 _farmId) public whenNotPaused {... */\n    tag_84:\n        /* \"@openzeppelin/contracts-upgradeable/security/PausableUpgradeable.sol\":1503:1522  _requireNotPaused() */\n      tag_202\n        /* \"@openzeppelin/contracts-upgradeable/security/PausableUpgradeable.sol\":1503:1520  _requireNotPaused */\n      tag_137\n        /* \"@openzeppelin/contracts-upgradeable/security/PausableUpgradeable.sol\":1503:1522  _requireNotPaused() */\n      jump\t// in\n    tag_202:\n        /* \"src/contract/CryptoQuestShardsOfGenesisFarming.sol\":3134:3235  function upgradeFarm(uint256 _farmId) public whenNotPaused {... */\n      pop\n      jump\t// out\n        /* \"src/contract/CryptoQuestShardsOfGenesisFarming.sol\":1393:1752  function initialize(... */\n    tag_89:\n        /* \"@openzeppelin/contracts-upgradeable/proxy/utils/Initializable.sol\":8870:8891  INITIALIZABLE_STORAGE */\n      0xf0c57e16840df040f15088dc2f81fe391c3923bec73e23a9662efc9c229c6a00\n        /* \"@openzeppelin/contracts-upgradeable/proxy/utils/Initializable.sol\":4302:4317  $._initializing */\n      dup1\n      sload\n      shl(0x40, 0x01)\n      dup2\n      div\n      0xff\n      and\n        /* \"@openzeppelin/contracts-upgradeable/proxy/utils/Initializable.sol\":4301:4317  !$._initializing */\n      iszero\n      swap1\n        /* \"@openzeppelin/contracts-upgradeable/proxy/utils/Initializable.sol\":4348:4362  $._initialized */\n      0xffffffffffffffff\n      and\n        /* \"@openzeppelin/contracts-upgradeable/proxy/utils/Initializable.sol\":4158:4188  InitializableStorage storage $ */\n      0x00\n        /* \"@openzeppelin/contracts-upgradeable/proxy/utils/Initializable.sol\":4726:4742  initialized == 0 */\n      dup2\n      iszero\n        /* \"@openzeppelin/contracts-upgradeable/proxy/utils/Initializable.sol\":4726:4760  initialized == 0 && isTopLevelCall */\n      dup1\n      iszero\n      tag_207\n      jumpi\n      pop\n        /* \"@openzeppelin/contracts-upgradeable/proxy/utils/Initializable.sol\":4746:4760  isTopLevelCall */\n      dup3\n        /* \"@openzeppelin/contracts-upgradeable/proxy/utils/Initializable.sol\":4726:4760  initialized == 0 && isTopLevelCall */\n    tag_207:\n        /* \"@openzeppelin/contracts-upgradeable/proxy/utils/Initializable.sol\":4706:4760  bool initialSetup = initialized == 0 && isTopLevelCall */\n      swap1\n      pop\n        /* \"@openzeppelin/contracts-upgradeable/proxy/utils/Initializable.sol\":4770:4787  bool construction */\n      0x00\n        /* \"@openzeppelin/contracts-upgradeable/proxy/utils/Initializable.sol\":4790:4801  initialized */\n      dup3\n        /* \"@openzeppelin/contracts-upgradeable/proxy/utils/Initializable.sol\":4790:4806  initialized == 1 */\n      0xffffffffffffffff\n      and\n        /* \"@openzeppelin/contracts-upgradeable/proxy/utils/Initializable.sol\":4805:4806  1 */\n      0x01\n        /* \"@openzeppelin/contracts-upgradeable/proxy/utils/Initializable.sol\":4790:4806  initialized == 1 */\n      eq\n        /* \"@openzeppelin/contracts-upgradeable/proxy/utils/Initializable.sol\":4790:4840  initialized == 1 && address(this).code.length == 0 */\n      dup1\n      iszero\n      tag_208\n      jumpi\n      pop\n        /* \"@openzeppelin/contracts-upgradeable/proxy/utils/Initializable.sol\":4818:4822  this */\n      address\n        /* \"@openzeppelin/contracts-upgradeable/proxy/utils/Initializable.sol\":4810:4835  address(this).code.length */\n      extcodesize\n        /* \"@openzeppelin/contracts-upgradeable/proxy/utils/Initializable.sol\":4810:4840  address(this).code.length == 0 */\n      iszero\n        /* \"@openzeppelin/contracts-upgradeable/proxy/utils/Initializable.sol\":4790:4840  initialized == 1 && address(this).code.length == 0 */\n    tag_208:\n        /* \"@openzeppelin/contracts-upgradeable/proxy/utils/Initializable.sol\":4770:4840  bool construction = initialized == 1 && address(this).code.length == 0 */\n      swap1\n      pop\n        /* \"@openzeppelin/contracts-upgradeable/proxy/utils/Initializable.sol\":4856:4868  initialSetup */\n      dup2\n        /* \"@openzeppelin/contracts-upgradeable/proxy/utils/Initializable.sol\":4855:4868  !initialSetup */\n      iszero\n        /* \"@openzeppelin/contracts-upgradeable/proxy/utils/Initializable.sol\":4855:4885  !initialSetup && !construction */\n      dup1\n      iszero\n      tag_209\n      jumpi\n      pop\n        /* \"@openzeppelin/contracts-upgradeable/proxy/utils/Initializable.sol\":4873:4885  construction */\n      dup1\n        /* \"@openzeppelin/contracts-upgradeable/proxy/utils/Initializable.sol\":4872:4885  !construction */\n      iszero\n        /* \"@openzeppelin/contracts-upgradeable/proxy/utils/Initializable.sol\":4855:4885  !initialSetup && !construction */\n    tag_209:\n        /* \"@openzeppelin/contracts-upgradeable/proxy/utils/Initializable.sol\":4851:4942  if (!initialSetup && !construction) {... */\n      iszero\n      tag_210\n      jumpi\n        /* \"@openzeppelin/contracts-upgradeable/proxy/utils/Initializable.sol\":4908:4931  InvalidInitialization() */\n      mload(0x40)\n      shl(0xe0, 0xf92ee8a9)\n      dup2\n      mstore\n      0x04\n      add\n      mload(0x40)\n      dup1\n      swap2\n      sub\n      swap1\n      revert\n        /* \"@openzeppelin/contracts-upgradeable/proxy/utils/Initializable.sol\":4851:4942  if (!initialSetup && !construction) {... */\n    tag_210:\n        /* \"@openzeppelin/contracts-upgradeable/proxy/utils/Initializable.sol\":4951:4969  $._initialized = 1 */\n      dup5\n      sload\n      not(0xffffffffffffffff)\n      and\n        /* \"@openzeppelin/contracts-upgradeable/proxy/utils/Initializable.sol\":4968:4969  1 */\n      0x01\n        /* \"@openzeppelin/contracts-upgradeable/proxy/utils/Initializable.sol\":4951:4969  $._initialized = 1 */\n      or\n      dup6\n      sstore\n        /* \"@openzeppelin/contracts-upgradeable/proxy/utils/Initializable.sol\":4979:5046  if (isTopLevelCall) {... */\n      dup4\n      iszero\n      tag_211\n      jumpi\n        /* \"@openzeppelin/contracts-upgradeable/proxy/utils/Initializable.sol\":5013:5035  $._initializing = true */\n      dup5\n      sload\n      not(shl(0x40, 0xff))\n      and\n      shl(0x40, 0x01)\n      or\n      dup6\n      sstore\n        /* \"@openzeppelin/contracts-upgradeable/proxy/utils/Initializable.sol\":4979:5046  if (isTopLevelCall) {... */\n    tag_211:\n        /* \"src/contract/CryptoQuestShardsOfGenesisFarming.sol\":1543:1565  __AccessControl_init() */\n      tag_213\n        /* \"src/contract/CryptoQuestShardsOfGenesisFarming.sol\":1543:1563  __AccessControl_init */\n      tag_214\n        /* \"src/contract/CryptoQuestShardsOfGenesisFarming.sol\":1543:1565  __AccessControl_init() */\n      jump\t// in\n    tag_213:\n        /* \"src/contract/CryptoQuestShardsOfGenesisFarming.sol\":1575:1592  __Pausable_init() */\n      tag_215\n        /* \"src/contract/CryptoQuestShardsOfGenesisFarming.sol\":1575:1590  __Pausable_init */\n      tag_216\n        /* \"src/contract/CryptoQuestShardsOfGenesisFarming.sol\":1575:1592  __Pausable_init() */\n      jump\t// in\n    tag_215:\n        /* \"src/contract/CryptoQuestShardsOfGenesisFarming.sol\":1602:1626  __UUPSUpgradeable_init() */\n      tag_217\n        /* \"src/contract/CryptoQuestShardsOfGenesisFarming.sol\":1602:1624  __UUPSUpgradeable_init */\n      tag_214\n        /* \"src/contract/CryptoQuestShardsOfGenesisFarming.sol\":1602:1626  __UUPSUpgradeable_init() */\n      jump\t// in\n    tag_217:\n        /* \"src/contract/CryptoQuestShardsOfGenesisFarming.sol\":1637:1645  cqtToken */\n      0x33\n        /* \"src/contract/CryptoQuestShardsOfGenesisFarming.sol\":1637:1657  cqtToken = _cqtToken */\n      dup1\n      sload\n      not(sub(shl(0xa0, 0x01), 0x01))\n      and\n      sub(shl(0xa0, 0x01), 0x01)\n      dup11\n      and\n      or\n      swap1\n      sstore\n        /* \"src/contract/CryptoQuestShardsOfGenesisFarming.sol\":1667:1677  rewardRate */\n      0x34\n        /* \"src/contract/CryptoQuestShardsOfGenesisFarming.sol\":1667:1691  rewardRate = _rewardRate */\n      dup8\n      swap1\n      sstore\n        /* \"src/contract/CryptoQuestShardsOfGenesisFarming.sol\":1701:1721  minimumFarmingPeriod */\n      0x35\n        /* \"src/contract/CryptoQuestShardsOfGenesisFarming.sol\":1701:1745  minimumFarmingPeriod = _minimumFarmingPeriod */\n      dup7\n      swap1\n      sstore\n        /* \"@openzeppelin/contracts-upgradeable/proxy/utils/Initializable.sol\":5066:5167  if (isTopLevelCall) {... */\n      dup4\n      iszero\n      tag_219\n      jumpi\n        /* \"@openzeppelin/contracts-upgradeable/proxy/utils/Initializable.sol\":5100:5123  $._initializing = false */\n      dup5\n      sload\n      not(shl(0x40, 0xff))\n      and\n      dup6\n      sstore\n        /* \"@openzeppelin/contracts-upgradeable/proxy/utils/Initializable.sol\":5142:5156  Initialized(1) */\n      mload(0x40)\n      0x01\n        /* \"#utility.yul\":8133:8183   */\n      dup2\n      mstore\n        /* \"@openzeppelin/contracts-upgradeable/proxy/utils/Initializable.sol\":5142:5156  Initialized(1) */\n      0xc7f505b2f371ae2175ee4913f4499e1f2633a7b5936321eed1cdaeb6115181d2\n      swap1\n        /* \"#utility.yul\":8121:8123   */\n      0x20\n        /* \"#utility.yul\":8106:8124   */\n      add\n        /* \"@openzeppelin/contracts-upgradeable/proxy/utils/Initializable.sol\":5142:5156  Initialized(1) */\n      mload(0x40)\n      dup1\n      swap2\n      sub\n      swap1\n      log1\n        /* \"@openzeppelin/contracts-upgradeable/proxy/utils/Initializable.sol\":5066:5167  if (isTopLevelCall) {... */\n    tag_219:\n        /* \"@openzeppelin/contracts-upgradeable/proxy/utils/Initializable.sol\":4092:5173  {... */\n      pop\n      pop\n      pop\n      pop\n      pop\n        /* \"src/contract/CryptoQuestShardsOfGenesisFarming.sol\":1393:1752  function initialize(... */\n      pop\n      pop\n      pop\n      jump\t// out\n        /* \"@openzeppelin/contracts-upgradeable/access/AccessControlUpgradeable.sol\":3732:3939  function hasRole(bytes32 role, address account) public view virtual returns (bool) {... */\n    tag_108:\n        /* \"@openzeppelin/contracts-upgradeable/access/AccessControlUpgradeable.sol\":3809:3813  bool */\n      0x00\n        /* \"@openzeppelin/contracts-upgradeable/access/AccessControlUpgradeable.sol\":3901:3915  $._roles[role] */\n      swap2\n      dup3\n      mstore\n      0x00\n      dup1\n      mload\n      0x20\n      data_b3da67d1b252aeab7c8063542d95e75f82a5307a82535949bc38f7cf7ba8897f\n      dup4\n      codecopy\n      dup2\n      mload\n      swap2\n      mstore\n      0x20\n      swap1\n      dup2\n      mstore\n      0x40\n      dup1\n      dup5\n      keccak256\n      sub(shl(0xa0, 0x01), 0x01)\n        /* \"@openzeppelin/contracts-upgradeable/access/AccessControlUpgradeable.sol\":3901:3932  $._roles[role].hasRole[account] */\n      swap4\n      swap1\n      swap4\n      and\n      dup5\n      mstore\n      swap2\n      swap1\n      mstore\n      swap1\n      keccak256\n      sload\n      0xff\n      and\n      swap1\n        /* \"@openzeppelin/contracts-upgradeable/access/AccessControlUpgradeable.sol\":3732:3939  function hasRole(bytes32 role, address account) public view virtual returns (bool) {... */\n      jump\t// out\n        /* \"@openzeppelin/contracts-upgradeable/access/AccessControlUpgradeable.sol\":5662:5800  function revokeRole(bytes32 role, address account) public virtual onlyRole(getRoleAdmin(role)) {... */\n    tag_122:\n        /* \"@openzeppelin/contracts-upgradeable/access/AccessControlUpgradeable.sol\":5737:5755  getRoleAdmin(role) */\n      tag_224\n        /* \"@openzeppelin/contracts-upgradeable/access/AccessControlUpgradeable.sol\":5750:5754  role */\n      dup3\n        /* \"@openzeppelin/contracts-upgradeable/access/AccessControlUpgradeable.sol\":5737:5749  getRoleAdmin */\n      tag_48\n        /* \"@openzeppelin/contracts-upgradeable/access/AccessControlUpgradeable.sol\":5737:5755  getRoleAdmin(role) */\n      jump\t// in\n    tag_224:\n        /* \"@openzeppelin/contracts-upgradeable/access/AccessControlUpgradeable.sol\":3191:3207  _checkRole(role) */\n      tag_226\n        /* \"@openzeppelin/contracts-upgradeable/access/AccessControlUpgradeable.sol\":3202:3206  role */\n      dup2\n        /* \"@openzeppelin/contracts-upgradeable/access/AccessControlUpgradeable.sol\":3191:3201  _checkRole */\n      tag_170\n        /* \"@openzeppelin/contracts-upgradeable/access/AccessControlUpgradeable.sol\":3191:3207  _checkRole(role) */\n      jump\t// in\n    tag_226:\n        /* \"@openzeppelin/contracts-upgradeable/access/AccessControlUpgradeable.sol\":5767:5793  _revokeRole(role, account) */\n      tag_172\n        /* \"@openzeppelin/contracts-upgradeable/access/AccessControlUpgradeable.sol\":5779:5783  role */\n      dup4\n        /* \"@openzeppelin/contracts-upgradeable/access/AccessControlUpgradeable.sol\":5785:5792  account */\n      dup4\n        /* \"@openzeppelin/contracts-upgradeable/access/AccessControlUpgradeable.sol\":5767:5778  _revokeRole */\n      tag_179\n        /* \"@openzeppelin/contracts-upgradeable/access/AccessControlUpgradeable.sol\":5767:5793  _revokeRole(role, account) */\n      jump\t// in\n        /* \"@openzeppelin/contracts-upgradeable/security/PausableUpgradeable.sol\":2031:2137  function _requireNotPaused() internal view virtual {... */\n    tag_137:\n        /* \"@openzeppelin/contracts-upgradeable/security/PausableUpgradeable.sol\":1926:1930  bool */\n      0x00\n        /* \"@openzeppelin/contracts-upgradeable/security/PausableUpgradeable.sol\":1949:1956  _paused */\n      sload\n      0xff\n      and\n        /* \"@openzeppelin/contracts-upgradeable/security/PausableUpgradeable.sol\":2100:2109  !paused() */\n      iszero\n        /* \"@openzeppelin/contracts-upgradeable/security/PausableUpgradeable.sol\":2092:2130  require(!paused(), \"Pausable: paused\") */\n      tag_232\n      jumpi\n      mload(0x40)\n      shl(0xe5, 0x461bcd)\n      dup2\n      mstore\n        /* \"#utility.yul\":8396:8398   */\n      0x20\n        /* \"@openzeppelin/contracts-upgradeable/security/PausableUpgradeable.sol\":2092:2130  require(!paused(), \"Pausable: paused\") */\n      0x04\n      dup3\n      add\n        /* \"#utility.yul\":8378:8399   */\n      mstore\n        /* \"#utility.yul\":8435:8437   */\n      0x10\n        /* \"#utility.yul\":8415:8433   */\n      0x24\n      dup3\n      add\n        /* \"#utility.yul\":8408:8438   */\n      mstore\n      shl(0x82, 0x14185d5cd8589b194e881c185d5cd959)\n        /* \"#utility.yul\":8454:8472   */\n      0x44\n      dup3\n      add\n        /* \"#utility.yul\":8447:8493   */\n      mstore\n        /* \"#utility.yul\":8510:8528   */\n      0x64\n      add\n        /* \"@openzeppelin/contracts-upgradeable/security/PausableUpgradeable.sol\":2092:2130  require(!paused(), \"Pausable: paused\") */\n      tag_140\n        /* \"#utility.yul\":8194:8534   */\n      jump\n        /* \"@openzeppelin/contracts-upgradeable/security/PausableUpgradeable.sol\":2092:2130  require(!paused(), \"Pausable: paused\") */\n    tag_232:\n        /* \"@openzeppelin/contracts-upgradeable/security/PausableUpgradeable.sol\":2031:2137  function _requireNotPaused() internal view virtual {... */\n      jump\t// out\n        /* \"@openzeppelin/contracts-upgradeable/access/AccessControlUpgradeable.sol\":4148:4251  function _checkRole(bytes32 role) internal view virtual {... */\n    tag_170:\n        /* \"@openzeppelin/contracts-upgradeable/access/AccessControlUpgradeable.sol\":4214:4244  _checkRole(role, _msgSender()) */\n      tag_202\n        /* \"@openzeppelin/contracts-upgradeable/access/AccessControlUpgradeable.sol\":4225:4229  role */\n      dup2\n        /* \"@openzeppelin/contracts-upgradeable/utils/ContextUpgradeable.sol\":966:976  msg.sender */\n      caller\n        /* \"@openzeppelin/contracts-upgradeable/access/AccessControlUpgradeable.sol\":4214:4224  _checkRole */\n      tag_239\n        /* \"@openzeppelin/contracts-upgradeable/access/AccessControlUpgradeable.sol\":4214:4244  _checkRole(role, _msgSender()) */\n      jump\t// in\n        /* \"@openzeppelin/contracts-upgradeable/access/AccessControlUpgradeable.sol\":7270:7657  function _grantRole(bytes32 role, address account) internal virtual returns (bool) {... */\n    tag_173:\n        /* \"@openzeppelin/contracts-upgradeable/access/AccessControlUpgradeable.sol\":7347:7351  bool */\n      0x00\n      0x00\n      dup1\n      mload\n      0x20\n      data_b3da67d1b252aeab7c8063542d95e75f82a5307a82535949bc38f7cf7ba8897f\n      dup4\n      codecopy\n      dup2\n      mload\n      swap2\n      mstore\n        /* \"@openzeppelin/contracts-upgradeable/access/AccessControlUpgradeable.sol\":7437:7459  hasRole(role, account) */\n      tag_242\n        /* \"@openzeppelin/contracts-upgradeable/access/AccessControlUpgradeable.sol\":7445:7449  role */\n      dup5\n        /* \"@openzeppelin/contracts-upgradeable/access/AccessControlUpgradeable.sol\":7451:7458  account */\n      dup5\n        /* \"@openzeppelin/contracts-upgradeable/access/AccessControlUpgradeable.sol\":7437:7444  hasRole */\n      tag_108\n        /* \"@openzeppelin/contracts-upgradeable/access/AccessControlUpgradeable.sol\":7437:7459  hasRole(role, account) */\n      jump\t// in\n    tag_242:\n        /* \"@openzeppelin/contracts-upgradeable/access/AccessControlUpgradeable.sol\":7432:7651  if (!hasRole(role, account)) {... */\n      tag_243\n      jumpi\n        /* \"@openzeppelin/contracts-upgradeable/access/AccessControlUpgradeable.sol\":7475:7483  $._roles */\n      0x00\n        /* \"@openzeppelin/contracts-upgradeable/access/AccessControlUpgradeable.sol\":7475:7489  $._roles[role] */\n      dup5\n      dup2\n      mstore\n      0x20\n      dup3\n      dup2\n      mstore\n      0x40\n      dup1\n      dup4\n      keccak256\n      sub(shl(0xa0, 0x01), 0x01)\n        /* \"@openzeppelin/contracts-upgradeable/access/AccessControlUpgradeable.sol\":7475:7506  $._roles[role].hasRole[account] */\n      dup8\n      and\n      dup5\n      mstore\n      swap1\n      swap2\n      mstore\n      swap1\n      keccak256\n        /* \"@openzeppelin/contracts-upgradeable/access/AccessControlUpgradeable.sol\":7475:7513  $._roles[role].hasRole[account] = true */\n      dup1\n      sload\n      not(0xff)\n      and\n        /* \"@openzeppelin/contracts-upgradeable/access/AccessControlUpgradeable.sol\":7509:7513  true */\n      0x01\n        /* \"@openzeppelin/contracts-upgradeable/access/AccessControlUpgradeable.sol\":7475:7513  $._roles[role].hasRole[account] = true */\n      or\n      swap1\n      sstore\n        /* \"@openzeppelin/contracts-upgradeable/access/AccessControlUpgradeable.sol\":7559:7571  _msgSender() */\n      tag_244\n        /* \"@openzeppelin/contracts-upgradeable/utils/ContextUpgradeable.sol\":966:976  msg.sender */\n      caller\n      swap1\n        /* \"@openzeppelin/contracts-upgradeable/utils/ContextUpgradeable.sol\":887:983  function _msgSender() internal view virtual returns (address) {... */\n      jump\n        /* \"@openzeppelin/contracts-upgradeable/access/AccessControlUpgradeable.sol\":7559:7571  _msgSender() */\n    tag_244:\n      sub(shl(0xa0, 0x01), 0x01)\n        /* \"@openzeppelin/contracts-upgradeable/access/AccessControlUpgradeable.sol\":7532:7572  RoleGranted(role, account, _msgSender()) */\n      and\n        /* \"@openzeppelin/contracts-upgradeable/access/AccessControlUpgradeable.sol\":7550:7557  account */\n      dup4\n      sub(shl(0xa0, 0x01), 0x01)\n        /* \"@openzeppelin/contracts-upgradeable/access/AccessControlUpgradeable.sol\":7532:7572  RoleGranted(role, account, _msgSender()) */\n      and\n        /* \"@openzeppelin/contracts-upgradeable/access/AccessControlUpgradeable.sol\":7544:7548  role */\n      dup6\n        /* \"@openzeppelin/contracts-upgradeable/access/AccessControlUpgradeable.sol\":7532:7572  RoleGranted(role, account, _msgSender()) */\n      0x2f8788117e7eff1d82e926ec794901d17c78024a50270940304540a733656f0d\n      mload(0x40)\n      mload(0x40)\n      dup1\n      swap2\n      sub\n      swap1\n      log4\n        /* \"@openzeppelin/contracts-upgradeable/access/AccessControlUpgradeable.sol\":7593:7597  true */\n      0x01\n        /* \"@openzeppelin/contracts-upgradeable/access/AccessControlUpgradeable.sol\":7586:7597  return true */\n      swap2\n      pop\n      pop\n      jump(tag_133)\n        /* \"@openzeppelin/contracts-upgradeable/access/AccessControlUpgradeable.sol\":7432:7651  if (!hasRole(role, account)) {... */\n    tag_243:\n        /* \"@openzeppelin/contracts-upgradeable/access/AccessControlUpgradeable.sol\":7635:7640  false */\n      0x00\n        /* \"@openzeppelin/contracts-upgradeable/access/AccessControlUpgradeable.sol\":7628:7640  return false */\n      swap2\n      pop\n      pop\n      jump(tag_133)\n        /* \"@openzeppelin/contracts-upgradeable/access/AccessControlUpgradeable.sol\":7892:8280  function _revokeRole(bytes32 role, address account) internal virtual returns (bool) {... */\n    tag_179:\n        /* \"@openzeppelin/contracts-upgradeable/access/AccessControlUpgradeable.sol\":7970:7974  bool */\n      0x00\n      0x00\n      dup1\n      mload\n      0x20\n      data_b3da67d1b252aeab7c8063542d95e75f82a5307a82535949bc38f7cf7ba8897f\n      dup4\n      codecopy\n      dup2\n      mload\n      swap2\n      mstore\n        /* \"@openzeppelin/contracts-upgradeable/access/AccessControlUpgradeable.sol\":8059:8081  hasRole(role, account) */\n      tag_249\n        /* \"@openzeppelin/contracts-upgradeable/access/AccessControlUpgradeable.sol\":8067:8071  role */\n      dup5\n        /* \"@openzeppelin/contracts-upgradeable/access/AccessControlUpgradeable.sol\":8073:8080  account */\n      dup5\n        /* \"@openzeppelin/contracts-upgradeable/access/AccessControlUpgradeable.sol\":8059:8066  hasRole */\n      tag_108\n        /* \"@openzeppelin/contracts-upgradeable/access/AccessControlUpgradeable.sol\":8059:8081  hasRole(role, account) */\n      jump\t// in\n    tag_249:\n        /* \"@openzeppelin/contracts-upgradeable/access/AccessControlUpgradeable.sol\":8055:8274  if (hasRole(role, account)) {... */\n      iszero\n      tag_243\n      jumpi\n        /* \"@openzeppelin/contracts-upgradeable/access/AccessControlUpgradeable.sol\":8131:8136  false */\n      0x00\n        /* \"@openzeppelin/contracts-upgradeable/access/AccessControlUpgradeable.sol\":8097:8111  $._roles[role] */\n      dup5\n      dup2\n      mstore\n      0x20\n      dup3\n      dup2\n      mstore\n      0x40\n      dup1\n      dup4\n      keccak256\n      sub(shl(0xa0, 0x01), 0x01)\n        /* \"@openzeppelin/contracts-upgradeable/access/AccessControlUpgradeable.sol\":8097:8128  $._roles[role].hasRole[account] */\n      dup8\n      and\n      dup1\n      dup6\n      mstore\n      swap3\n      mstore\n      dup1\n      dup4\n      keccak256\n        /* \"@openzeppelin/contracts-upgradeable/access/AccessControlUpgradeable.sol\":8097:8136  $._roles[role].hasRole[account] = false */\n      dup1\n      sload\n      not(0xff)\n      and\n      swap1\n      sstore\n        /* \"@openzeppelin/contracts-upgradeable/access/AccessControlUpgradeable.sol\":8155:8195  RoleRevoked(role, account, _msgSender()) */\n      mload\n        /* \"@openzeppelin/contracts-upgradeable/utils/ContextUpgradeable.sol\":966:976  msg.sender */\n      caller\n      swap3\n        /* \"@openzeppelin/contracts-upgradeable/access/AccessControlUpgradeable.sol\":8097:8111  $._roles[role] */\n      dup8\n      swap2\n        /* \"@openzeppelin/contracts-upgradeable/access/AccessControlUpgradeable.sol\":8155:8195  RoleRevoked(role, account, _msgSender()) */\n      0xf6391f5c32d9c69d2a47ea670b442974b53935d1edc7fd64eb21e047a839171b\n      swap2\n        /* \"@openzeppelin/contracts-upgradeable/access/AccessControlUpgradeable.sol\":8131:8136  false */\n      swap1\n        /* \"@openzeppelin/contracts-upgradeable/access/AccessControlUpgradeable.sol\":8155:8195  RoleRevoked(role, account, _msgSender()) */\n      log4\n        /* \"@openzeppelin/contracts-upgradeable/access/AccessControlUpgradeable.sol\":8216:8220  true */\n      0x01\n        /* \"@openzeppelin/contracts-upgradeable/access/AccessControlUpgradeable.sol\":8209:8220  return true */\n      swap2\n      pop\n      pop\n      jump(tag_133)\n        /* \"@openzeppelin/contracts-upgradeable/proxy/utils/UUPSUpgradeable.sol\":4599:4911  function _checkProxy() internal view virtual {... */\n    tag_182:\n        /* \"@openzeppelin/contracts-upgradeable/proxy/utils/UUPSUpgradeable.sol\":4679:4683  this */\n      address\n      sub(shl(0xa0, 0x01), 0x01)\n        /* \"@openzeppelin/contracts-upgradeable/proxy/utils/UUPSUpgradeable.sol\":4688:4694  __self */\n      immutable(\"0x3b04ad91523c4dcf551e081621e633b9099d51bf9c5461e58c3bc7354a578b27\")\n        /* \"@openzeppelin/contracts-upgradeable/proxy/utils/UUPSUpgradeable.sol\":4671:4694  address(this) == __self */\n      and\n      eq\n      dup1\n        /* \"@openzeppelin/contracts-upgradeable/proxy/utils/UUPSUpgradeable.sol\":4671:4791  address(this) == __self || // Must be called through delegatecall... */\n      tag_254\n      jumpi\n      pop\n        /* \"@openzeppelin/contracts-upgradeable/proxy/utils/UUPSUpgradeable.sol\":4785:4791  __self */\n      immutable(\"0x3b04ad91523c4dcf551e081621e633b9099d51bf9c5461e58c3bc7354a578b27\")\n      sub(shl(0xa0, 0x01), 0x01)\n        /* \"@openzeppelin/contracts-upgradeable/proxy/utils/UUPSUpgradeable.sol\":4749:4791  ERC1967Utils.getImplementation() != __self */\n      and\n        /* \"@openzeppelin/contracts-upgradeable/proxy/utils/UUPSUpgradeable.sol\":4749:4781  ERC1967Utils.getImplementation() */\n      tag_255\n      0x00\n      dup1\n      mload\n      0x20\n      data_75b20eef8615de99c108b05f0dbda081c91897128caa336d75dffb97c4132b4d\n      dup4\n      codecopy\n      dup2\n      mload\n      swap2\n      mstore\n        /* \"@openzeppelin/contracts/proxy/ERC1967/ERC1967Utils.sol\":2035:2088  StorageSlot.getAddressSlot(IMPLEMENTATION_SLOT).value */\n      sload\n      sub(shl(0xa0, 0x01), 0x01)\n      and\n      swap1\n        /* \"@openzeppelin/contracts/proxy/ERC1967/ERC1967Utils.sol\":1957:2095  function getImplementation() internal view returns (address) {... */\n      jump\n        /* \"@openzeppelin/contracts-upgradeable/proxy/utils/UUPSUpgradeable.sol\":4749:4781  ERC1967Utils.getImplementation() */\n    tag_255:\n      sub(shl(0xa0, 0x01), 0x01)\n        /* \"@openzeppelin/contracts-upgradeable/proxy/utils/UUPSUpgradeable.sol\":4749:4791  ERC1967Utils.getImplementation() != __self */\n      and\n      eq\n      iszero\n        /* \"@openzeppelin/contracts-upgradeable/proxy/utils/UUPSUpgradeable.sol\":4671:4791  address(this) == __self || // Must be called through delegatecall... */\n    tag_254:\n        /* \"@openzeppelin/contracts-upgradeable/proxy/utils/UUPSUpgradeable.sol\":4654:4905  if (... */\n      iszero\n      tag_232\n      jumpi\n        /* \"@openzeppelin/contracts-upgradeable/proxy/utils/UUPSUpgradeable.sol\":4865:4894  UUPSUnauthorizedCallContext() */\n      mload(0x40)\n      shl(0xe1, 0x703e46dd)\n      dup2\n      mstore\n      0x04\n      add\n      mload(0x40)\n      dup1\n      swap2\n      sub\n      swap1\n      revert\n        /* \"src/contract/CryptoQuestShardsOfGenesisFarming.sol\":3241:3321  function _authorizeUpgrade(address) internal override onlyRole(UPGRADER_ROLE) {} */\n    tag_185:\n        /* \"src/contract/CryptoQuestShardsOfGenesisFarming.sol\":741:767  keccak256(\"UPGRADER_ROLE\") */\n      0x189ab7a9244df0848122154315af71fe140f3db0fe014031783b0946b8c9d2e3\n        /* \"@openzeppelin/contracts-upgradeable/access/AccessControlUpgradeable.sol\":3191:3207  _checkRole(role) */\n      tag_162\n        /* \"@openzeppelin/contracts-upgradeable/access/AccessControlUpgradeable.sol\":3202:3206  role */\n      dup2\n        /* \"@openzeppelin/contracts-upgradeable/access/AccessControlUpgradeable.sol\":3191:3201  _checkRole */\n      tag_170\n        /* \"@openzeppelin/contracts-upgradeable/access/AccessControlUpgradeable.sol\":3191:3207  _checkRole(role) */\n      jump\t// in\n        /* \"@openzeppelin/contracts-upgradeable/proxy/utils/UUPSUpgradeable.sol\":6052:6590  function _upgradeToAndCallUUPS(address newImplementation, bytes memory data) private {... */\n    tag_187:\n        /* \"@openzeppelin/contracts-upgradeable/proxy/utils/UUPSUpgradeable.sol\":6169:6186  newImplementation */\n      dup2\n      sub(shl(0xa0, 0x01), 0x01)\n        /* \"@openzeppelin/contracts-upgradeable/proxy/utils/UUPSUpgradeable.sol\":6151:6201  IERC1822Proxiable(newImplementation).proxiableUUID */\n      and\n      0x52d1902d\n        /* \"@openzeppelin/contracts-upgradeable/proxy/utils/UUPSUpgradeable.sol\":6151:6203  IERC1822Proxiable(newImplementation).proxiableUUID() */\n      mload(0x40)\n      dup2\n      0xffffffff\n      and\n      0xe0\n      shl\n      dup2\n      mstore\n      0x04\n      add\n      0x20\n      mload(0x40)\n      dup1\n      dup4\n      sub\n      dup2\n      dup7\n      gas\n      staticcall\n      swap3\n      pop\n      pop\n      pop\n      dup1\n      iszero\n      tag_262\n      jumpi\n      pop\n      0x40\n      dup1\n      mload\n      0x1f\n      returndatasize\n      swap1\n      dup2\n      add\n      not(0x1f)\n      and\n      dup3\n      add\n      swap1\n      swap3\n      mstore\n      tag_263\n      swap2\n      dup2\n      add\n      swap1\n      tag_264\n      jump\t// in\n    tag_263:\n      0x01\n    tag_262:\n        /* \"@openzeppelin/contracts-upgradeable/proxy/utils/UUPSUpgradeable.sol\":6147:6584  try IERC1822Proxiable(newImplementation).proxiableUUID() returns (bytes32 slot) {... */\n      tag_265\n      jumpi\n        /* \"@openzeppelin/contracts-upgradeable/proxy/utils/UUPSUpgradeable.sol\":6513:6573  ERC1967Utils.ERC1967InvalidImplementation(newImplementation) */\n      mload(0x40)\n      shl(0xe0, 0x4c9c8ce3)\n      dup2\n      mstore\n      sub(shl(0xa0, 0x01), 0x01)\n        /* \"#utility.yul\":1903:1935   */\n      dup4\n      and\n        /* \"@openzeppelin/contracts-upgradeable/proxy/utils/UUPSUpgradeable.sol\":6513:6573  ERC1967Utils.ERC1967InvalidImplementation(newImplementation) */\n      0x04\n      dup3\n      add\n        /* \"#utility.yul\":1885:1936   */\n      mstore\n        /* \"#utility.yul\":1858:1876   */\n      0x24\n      add\n        /* \"@openzeppelin/contracts-upgradeable/proxy/utils/UUPSUpgradeable.sol\":6513:6573  ERC1967Utils.ERC1967InvalidImplementation(newImplementation) */\n      tag_140\n        /* \"#utility.yul\":1739:1942   */\n      jump\n        /* \"@openzeppelin/contracts-upgradeable/proxy/utils/UUPSUpgradeable.sol\":6147:6584  try IERC1822Proxiable(newImplementation).proxiableUUID() returns (bytes32 slot) {... */\n    tag_265:\n      0x00\n      dup1\n      mload\n      0x20\n      data_75b20eef8615de99c108b05f0dbda081c91897128caa336d75dffb97c4132b4d\n      dup4\n      codecopy\n      dup2\n      mload\n      swap2\n      mstore\n        /* \"@openzeppelin/contracts-upgradeable/proxy/utils/UUPSUpgradeable.sol\":6245:6285  slot != ERC1967Utils.IMPLEMENTATION_SLOT */\n      dup2\n      eq\n        /* \"@openzeppelin/contracts-upgradeable/proxy/utils/UUPSUpgradeable.sol\":6241:6361  if (slot != ERC1967Utils.IMPLEMENTATION_SLOT) {... */\n      tag_271\n      jumpi\n        /* \"@openzeppelin/contracts-upgradeable/proxy/utils/UUPSUpgradeable.sol\":6312:6346  UUPSUnsupportedProxiableUUID(slot) */\n      mload(0x40)\n      shl(0xe2, 0x2a875269)\n      dup2\n      mstore\n      0x04\n      dup2\n      add\n        /* \"#utility.yul\":1266:1291   */\n      dup3\n      swap1\n      mstore\n        /* \"#utility.yul\":1239:1257   */\n      0x24\n      add\n        /* \"@openzeppelin/contracts-upgradeable/proxy/utils/UUPSUpgradeable.sol\":6312:6346  UUPSUnsupportedProxiableUUID(slot) */\n      tag_140\n        /* \"#utility.yul\":1120:1297   */\n      jump\n        /* \"@openzeppelin/contracts-upgradeable/proxy/utils/UUPSUpgradeable.sol\":6241:6361  if (slot != ERC1967Utils.IMPLEMENTATION_SLOT) {... */\n    tag_271:\n        /* \"@openzeppelin/contracts-upgradeable/proxy/utils/UUPSUpgradeable.sol\":6374:6428  ERC1967Utils.upgradeToAndCall(newImplementation, data) */\n      tag_178\n        /* \"@openzeppelin/contracts-upgradeable/proxy/utils/UUPSUpgradeable.sol\":6404:6421  newImplementation */\n      dup4\n        /* \"@openzeppelin/contracts-upgradeable/proxy/utils/UUPSUpgradeable.sol\":6423:6427  data */\n      dup4\n        /* \"@openzeppelin/contracts-upgradeable/proxy/utils/UUPSUpgradeable.sol\":6374:6403  ERC1967Utils.upgradeToAndCall */\n      tag_274\n        /* \"@openzeppelin/contracts-upgradeable/proxy/utils/UUPSUpgradeable.sol\":6374:6428  ERC1967Utils.upgradeToAndCall(newImplementation, data) */\n      jump\t// in\n        /* \"@openzeppelin/contracts-upgradeable/proxy/utils/UUPSUpgradeable.sol\":5028:5241  function _checkNotDelegated() internal view virtual {... */\n    tag_190:\n        /* \"@openzeppelin/contracts-upgradeable/proxy/utils/UUPSUpgradeable.sol\":5102:5106  this */\n      address\n      sub(shl(0xa0, 0x01), 0x01)\n        /* \"@openzeppelin/contracts-upgradeable/proxy/utils/UUPSUpgradeable.sol\":5111:5117  __self */\n      immutable(\"0x3b04ad91523c4dcf551e081621e633b9099d51bf9c5461e58c3bc7354a578b27\")\n        /* \"@openzeppelin/contracts-upgradeable/proxy/utils/UUPSUpgradeable.sol\":5094:5117  address(this) != __self */\n      and\n      eq\n        /* \"@openzeppelin/contracts-upgradeable/proxy/utils/UUPSUpgradeable.sol\":5090:5235  if (address(this) != __self) {... */\n      tag_232\n      jumpi\n        /* \"@openzeppelin/contracts-upgradeable/proxy/utils/UUPSUpgradeable.sol\":5195:5224  UUPSUnauthorizedCallContext() */\n      mload(0x40)\n      shl(0xe1, 0x703e46dd)\n      dup2\n      mstore\n      0x04\n      add\n      mload(0x40)\n      dup1\n      swap2\n      sub\n      swap1\n      revert\n        /* \"@openzeppelin/contracts-upgradeable/access/AccessControlUpgradeable.sol\":3231:3296  function __AccessControl_init() internal onlyInitializing {... */\n    tag_214:\n        /* \"@openzeppelin/contracts-upgradeable/proxy/utils/Initializable.sol\":6931:6951  _checkInitializing() */\n      tag_232\n        /* \"@openzeppelin/contracts-upgradeable/proxy/utils/Initializable.sol\":6931:6949  _checkInitializing */\n      tag_280\n        /* \"@openzeppelin/contracts-upgradeable/proxy/utils/Initializable.sol\":6931:6951  _checkInitializing() */\n      jump\t// in\n        /* \"@openzeppelin/contracts-upgradeable/security/PausableUpgradeable.sol\":1084:1181  function __Pausable_init() internal onlyInitializing {... */\n    tag_216:\n        /* \"@openzeppelin/contracts-upgradeable/proxy/utils/Initializable.sol\":6931:6951  _checkInitializing() */\n      tag_283\n        /* \"@openzeppelin/contracts-upgradeable/proxy/utils/Initializable.sol\":6931:6949  _checkInitializing */\n      tag_280\n        /* \"@openzeppelin/contracts-upgradeable/proxy/utils/Initializable.sol\":6931:6951  _checkInitializing() */\n      jump\t// in\n    tag_283:\n        /* \"@openzeppelin/contracts-upgradeable/security/PausableUpgradeable.sol\":1147:1174  __Pausable_init_unchained() */\n      tag_232\n        /* \"@openzeppelin/contracts-upgradeable/security/PausableUpgradeable.sol\":1147:1172  __Pausable_init_unchained */\n      tag_286\n        /* \"@openzeppelin/contracts-upgradeable/security/PausableUpgradeable.sol\":1147:1174  __Pausable_init_unchained() */\n      jump\t// in\n        /* \"@openzeppelin/contracts-upgradeable/access/AccessControlUpgradeable.sol\":4381:4578  function _checkRole(bytes32 role, address account) internal view virtual {... */\n    tag_239:\n        /* \"@openzeppelin/contracts-upgradeable/access/AccessControlUpgradeable.sol\":4469:4491  hasRole(role, account) */\n      tag_291\n        /* \"@openzeppelin/contracts-upgradeable/access/AccessControlUpgradeable.sol\":4477:4481  role */\n      dup3\n        /* \"@openzeppelin/contracts-upgradeable/access/AccessControlUpgradeable.sol\":4483:4490  account */\n      dup3\n        /* \"@openzeppelin/contracts-upgradeable/access/AccessControlUpgradeable.sol\":4469:4476  hasRole */\n      tag_108\n        /* \"@openzeppelin/contracts-upgradeable/access/AccessControlUpgradeable.sol\":4469:4491  hasRole(role, account) */\n      jump\t// in\n    tag_291:\n        /* \"@openzeppelin/contracts-upgradeable/access/AccessControlUpgradeable.sol\":4464:4572  if (!hasRole(role, account)) {... */\n      tag_162\n      jumpi\n        /* \"@openzeppelin/contracts-upgradeable/access/AccessControlUpgradeable.sol\":4514:4561  AccessControlUnauthorizedAccount(account, role) */\n      mload(0x40)\n      shl(0xe0, 0xe2517d3f)\n      dup2\n      mstore\n      sub(shl(0xa0, 0x01), 0x01)\n        /* \"#utility.yul\":6259:6291   */\n      dup3\n      and\n        /* \"@openzeppelin/contracts-upgradeable/access/AccessControlUpgradeable.sol\":4514:4561  AccessControlUnauthorizedAccount(account, role) */\n      0x04\n      dup3\n      add\n        /* \"#utility.yul\":6241:6292   */\n      mstore\n        /* \"#utility.yul\":6308:6326   */\n      0x24\n      dup2\n      add\n        /* \"#utility.yul\":6301:6335   */\n      dup4\n      swap1\n      mstore\n        /* \"#utility.yul\":6214:6232   */\n      0x44\n      add\n        /* \"@openzeppelin/contracts-upgradeable/access/AccessControlUpgradeable.sol\":4514:4561  AccessControlUnauthorizedAccount(account, role) */\n      tag_140\n        /* \"#utility.yul\":6067:6341   */\n      jump\n        /* \"@openzeppelin/contracts/proxy/ERC1967/ERC1967Utils.sol\":2779:3114  function upgradeToAndCall(address newImplementation, bytes memory data) internal {... */\n    tag_274:\n        /* \"@openzeppelin/contracts/proxy/ERC1967/ERC1967Utils.sol\":2870:2907  _setImplementation(newImplementation) */\n      tag_299\n        /* \"@openzeppelin/contracts/proxy/ERC1967/ERC1967Utils.sol\":2889:2906  newImplementation */\n      dup3\n        /* \"@openzeppelin/contracts/proxy/ERC1967/ERC1967Utils.sol\":2870:2888  _setImplementation */\n      tag_300\n        /* \"@openzeppelin/contracts/proxy/ERC1967/ERC1967Utils.sol\":2870:2907  _setImplementation(newImplementation) */\n      jump\t// in\n    tag_299:\n        /* \"@openzeppelin/contracts/proxy/ERC1967/ERC1967Utils.sol\":2922:2949  Upgraded(newImplementation) */\n      mload(0x40)\n      sub(shl(0xa0, 0x01), 0x01)\n      dup4\n      and\n      swap1\n      0xbc7cd75a20ee27fd9adebab32041f755214dbc6bffa90cc0225b39da2e5c2d3b\n      swap1\n      0x00\n      swap1\n      log2\n        /* \"@openzeppelin/contracts/proxy/ERC1967/ERC1967Utils.sol\":2964:2975  data.length */\n      dup1\n      mload\n        /* \"@openzeppelin/contracts/proxy/ERC1967/ERC1967Utils.sol\":2964:2979  data.length > 0 */\n      iszero\n        /* \"@openzeppelin/contracts/proxy/ERC1967/ERC1967Utils.sol\":2960:3108  if (data.length > 0) {... */\n      tag_301\n      jumpi\n        /* \"@openzeppelin/contracts/proxy/ERC1967/ERC1967Utils.sol\":2995:3048  Address.functionDelegateCall(newImplementation, data) */\n      tag_178\n        /* \"@openzeppelin/contracts/proxy/ERC1967/ERC1967Utils.sol\":3024:3041  newImplementation */\n      dup3\n        /* \"@openzeppelin/contracts/proxy/ERC1967/ERC1967Utils.sol\":3043:3047  data */\n      dup3\n        /* \"@openzeppelin/contracts/proxy/ERC1967/ERC1967Utils.sol\":2995:3023  Address.functionDelegateCall */\n      tag_303\n        /* \"@openzeppelin/contracts/proxy/ERC1967/ERC1967Utils.sol\":2995:3048  Address.functionDelegateCall(newImplementation, data) */\n      jump\t// in\n        /* \"@openzeppelin/contracts/proxy/ERC1967/ERC1967Utils.sol\":2960:3108  if (data.length > 0) {... */\n    tag_301:\n        /* \"@openzeppelin/contracts/proxy/ERC1967/ERC1967Utils.sol\":3079:3097  _checkNonPayable() */\n      tag_162\n        /* \"@openzeppelin/contracts/proxy/ERC1967/ERC1967Utils.sol\":3079:3095  _checkNonPayable */\n      tag_306\n        /* \"@openzeppelin/contracts/proxy/ERC1967/ERC1967Utils.sol\":3079:3097  _checkNonPayable() */\n      jump\t// in\n        /* \"@openzeppelin/contracts-upgradeable/proxy/utils/Initializable.sol\":7084:7225  function _checkInitializing() internal view virtual {... */\n    tag_280:\n        /* \"@openzeppelin/contracts-upgradeable/proxy/utils/Initializable.sol\":8870:8891  INITIALIZABLE_STORAGE */\n      0xf0c57e16840df040f15088dc2f81fe391c3923bec73e23a9662efc9c229c6a00\n        /* \"@openzeppelin/contracts-upgradeable/proxy/utils/Initializable.sol\":8560:8600  _getInitializableStorage()._initializing */\n      sload\n      shl(0x40, 0x01)\n      swap1\n      div\n      0xff\n      and\n        /* \"@openzeppelin/contracts-upgradeable/proxy/utils/Initializable.sol\":7146:7219  if (!_isInitializing()) {... */\n      tag_232\n      jumpi\n        /* \"@openzeppelin/contracts-upgradeable/proxy/utils/Initializable.sol\":7191:7208  NotInitializing() */\n      mload(0x40)\n      shl(0xe3, 0x1afcd79f)\n      dup2\n      mstore\n      0x04\n      add\n      mload(0x40)\n      dup1\n      swap2\n      sub\n      swap1\n      revert\n        /* \"@openzeppelin/contracts-upgradeable/security/PausableUpgradeable.sol\":1187:1282  function __Pausable_init_unchained() internal onlyInitializing {... */\n    tag_286:\n        /* \"@openzeppelin/contracts-upgradeable/proxy/utils/Initializable.sol\":6931:6951  _checkInitializing() */\n      tag_312\n        /* \"@openzeppelin/contracts-upgradeable/proxy/utils/Initializable.sol\":6931:6949  _checkInitializing */\n      tag_280\n        /* \"@openzeppelin/contracts-upgradeable/proxy/utils/Initializable.sol\":6931:6951  _checkInitializing() */\n      jump\t// in\n    tag_312:\n        /* \"@openzeppelin/contracts-upgradeable/security/PausableUpgradeable.sol\":1270:1275  false */\n      0x00\n        /* \"@openzeppelin/contracts-upgradeable/security/PausableUpgradeable.sol\":1260:1275  _paused = false */\n      dup1\n      sload\n      not(0xff)\n      and\n      swap1\n      sstore\n        /* \"@openzeppelin/contracts-upgradeable/security/PausableUpgradeable.sol\":1187:1282  function __Pausable_init_unchained() internal onlyInitializing {... */\n      jump\t// out\n        /* \"@openzeppelin/contracts/proxy/ERC1967/ERC1967Utils.sol\":2186:2467  function _setImplementation(address newImplementation) private {... */\n    tag_300:\n        /* \"@openzeppelin/contracts/proxy/ERC1967/ERC1967Utils.sol\":2263:2280  newImplementation */\n      dup1\n      sub(shl(0xa0, 0x01), 0x01)\n        /* \"@openzeppelin/contracts/proxy/ERC1967/ERC1967Utils.sol\":2263:2292  newImplementation.code.length */\n      and\n      extcodesize\n        /* \"@openzeppelin/contracts/proxy/ERC1967/ERC1967Utils.sol\":2296:2297  0 */\n      0x00\n        /* \"@openzeppelin/contracts/proxy/ERC1967/ERC1967Utils.sol\":2263:2297  newImplementation.code.length == 0 */\n      sub\n        /* \"@openzeppelin/contracts/proxy/ERC1967/ERC1967Utils.sol\":2259:2378  if (newImplementation.code.length == 0) {... */\n      tag_316\n      jumpi\n        /* \"@openzeppelin/contracts/proxy/ERC1967/ERC1967Utils.sol\":2320:2367  ERC1967InvalidImplementation(newImplementation) */\n      mload(0x40)\n      shl(0xe0, 0x4c9c8ce3)\n      dup2\n      mstore\n      sub(shl(0xa0, 0x01), 0x01)\n        /* \"#utility.yul\":1903:1935   */\n      dup3\n      and\n        /* \"@openzeppelin/contracts/proxy/ERC1967/ERC1967Utils.sol\":2320:2367  ERC1967InvalidImplementation(newImplementation) */\n      0x04\n      dup3\n      add\n        /* \"#utility.yul\":1885:1936   */\n      mstore\n        /* \"#utility.yul\":1858:1876   */\n      0x24\n      add\n        /* \"@openzeppelin/contracts/proxy/ERC1967/ERC1967Utils.sol\":2320:2367  ERC1967InvalidImplementation(newImplementation) */\n      tag_140\n        /* \"#utility.yul\":1739:1942   */\n      jump\n        /* \"@openzeppelin/contracts/proxy/ERC1967/ERC1967Utils.sol\":2259:2378  if (newImplementation.code.length == 0) {... */\n    tag_316:\n      0x00\n      dup1\n      mload\n      0x20\n      data_75b20eef8615de99c108b05f0dbda081c91897128caa336d75dffb97c4132b4d\n      dup4\n      codecopy\n      dup2\n      mload\n      swap2\n      mstore\n        /* \"@openzeppelin/contracts/proxy/ERC1967/ERC1967Utils.sol\":2387:2460  StorageSlot.getAddressSlot(IMPLEMENTATION_SLOT).value = newImplementation */\n      dup1\n      sload\n      not(sub(shl(0xa0, 0x01), 0x01))\n      and\n      sub(shl(0xa0, 0x01), 0x01)\n      swap3\n      swap1\n      swap3\n      and\n      swap2\n      swap1\n      swap2\n      or\n      swap1\n      sstore\n        /* \"@openzeppelin/contracts/proxy/ERC1967/ERC1967Utils.sol\":2186:2467  function _setImplementation(address newImplementation) private {... */\n      jump\t// out\n        /* \"@openzeppelin/contracts/utils/Address.sol\":4106:4359  function functionDelegateCall(address target, bytes memory data) internal returns (bytes memory) {... */\n    tag_303:\n        /* \"@openzeppelin/contracts/utils/Address.sol\":4189:4201  bytes memory */\n      0x60\n        /* \"@openzeppelin/contracts/utils/Address.sol\":4214:4226  bool success */\n      0x00\n        /* \"@openzeppelin/contracts/utils/Address.sol\":4228:4251  bytes memory returndata */\n      dup1\n        /* \"@openzeppelin/contracts/utils/Address.sol\":4255:4261  target */\n      dup5\n      sub(shl(0xa0, 0x01), 0x01)\n        /* \"@openzeppelin/contracts/utils/Address.sol\":4255:4274  target.delegatecall */\n      and\n        /* \"@openzeppelin/contracts/utils/Address.sol\":4275:4279  data */\n      dup5\n        /* \"@openzeppelin/contracts/utils/Address.sol\":4255:4280  target.delegatecall(data) */\n      mload(0x40)\n      tag_320\n      swap2\n      swap1\n      tag_321\n      jump\t// in\n    tag_320:\n      0x00\n      mload(0x40)\n      dup1\n      dup4\n      sub\n      dup2\n      dup6\n      gas\n      delegatecall\n      swap2\n      pop\n      pop\n      returndatasize\n      dup1\n      0x00\n      dup2\n      eq\n      tag_324\n      jumpi\n      mload(0x40)\n      swap2\n      pop\n      and(add(returndatasize, 0x3f), not(0x1f))\n      dup3\n      add\n      0x40\n      mstore\n      returndatasize\n      dup3\n      mstore\n      returndatasize\n      0x00\n      0x20\n      dup5\n      add\n      returndatacopy\n      jump(tag_323)\n    tag_324:\n      0x60\n      swap2\n      pop\n    tag_323:\n      pop\n        /* \"@openzeppelin/contracts/utils/Address.sol\":4213:4280  (bool success, bytes memory returndata) = target.delegatecall(data) */\n      swap2\n      pop\n      swap2\n      pop\n        /* \"@openzeppelin/contracts/utils/Address.sol\":4297:4352  verifyCallResultFromTarget(target, success, returndata) */\n      tag_325\n        /* \"@openzeppelin/contracts/utils/Address.sol\":4324:4330  target */\n      dup6\n        /* \"@openzeppelin/contracts/utils/Address.sol\":4332:4339  success */\n      dup4\n        /* \"@openzeppelin/contracts/utils/Address.sol\":4341:4351  returndata */\n      dup4\n        /* \"@openzeppelin/contracts/utils/Address.sol\":4297:4323  verifyCallResultFromTarget */\n      tag_326\n        /* \"@openzeppelin/contracts/utils/Address.sol\":4297:4352  verifyCallResultFromTarget(target, success, returndata) */\n      jump\t// in\n    tag_325:\n        /* \"@openzeppelin/contracts/utils/Address.sol\":4290:4352  return verifyCallResultFromTarget(target, success, returndata) */\n      swap6\n        /* \"@openzeppelin/contracts/utils/Address.sol\":4106:4359  function functionDelegateCall(address target, bytes memory data) internal returns (bytes memory) {... */\n      swap5\n      pop\n      pop\n      pop\n      pop\n      pop\n      jump\t// out\n        /* \"@openzeppelin/contracts/proxy/ERC1967/ERC1967Utils.sol\":6598:6720  function _checkNonPayable() private {... */\n    tag_306:\n        /* \"@openzeppelin/contracts/proxy/ERC1967/ERC1967Utils.sol\":6648:6657  msg.value */\n      callvalue\n        /* \"@openzeppelin/contracts/proxy/ERC1967/ERC1967Utils.sol\":6648:6661  msg.value > 0 */\n      iszero\n        /* \"@openzeppelin/contracts/proxy/ERC1967/ERC1967Utils.sol\":6644:6714  if (msg.value > 0) {... */\n      tag_232\n      jumpi\n        /* \"@openzeppelin/contracts/proxy/ERC1967/ERC1967Utils.sol\":6684:6703  ERC1967NonPayable() */\n      mload(0x40)\n      shl(0xe0, 0xb398979f)\n      dup2\n      mstore\n      0x04\n      add\n      mload(0x40)\n      dup1\n      swap2\n      sub\n      swap1\n      revert\n        /* \"@openzeppelin/contracts/utils/Address.sol\":4625:5207  function verifyCallResultFromTarget(... */\n    tag_326:\n        /* \"@openzeppelin/contracts/utils/Address.sol\":4769:4781  bytes memory */\n      0x60\n        /* \"@openzeppelin/contracts/utils/Address.sol\":4798:4805  success */\n      dup3\n        /* \"@openzeppelin/contracts/utils/Address.sol\":4793:5201  if (!success) {... */\n      tag_332\n      jumpi\n        /* \"@openzeppelin/contracts/utils/Address.sol\":4821:4840  _revert(returndata) */\n      tag_333\n        /* \"@openzeppelin/contracts/utils/Address.sol\":4829:4839  returndata */\n      dup3\n        /* \"@openzeppelin/contracts/utils/Address.sol\":4821:4828  _revert */\n      tag_334\n        /* \"@openzeppelin/contracts/utils/Address.sol\":4821:4840  _revert(returndata) */\n      jump\t// in\n    tag_333:\n        /* \"@openzeppelin/contracts/utils/Address.sol\":4793:5201  if (!success) {... */\n      jump(tag_335)\n    tag_332:\n        /* \"@openzeppelin/contracts/utils/Address.sol\":5045:5062  returndata.length */\n      dup2\n      mload\n        /* \"@openzeppelin/contracts/utils/Address.sol\":5045:5067  returndata.length == 0 */\n      iszero\n        /* \"@openzeppelin/contracts/utils/Address.sol\":5045:5094  returndata.length == 0 && target.code.length == 0 */\n      dup1\n      iszero\n      tag_336\n      jumpi\n      pop\n      sub(shl(0xa0, 0x01), 0x01)\n        /* \"@openzeppelin/contracts/utils/Address.sol\":5071:5089  target.code.length */\n      dup5\n      and\n      extcodesize\n        /* \"@openzeppelin/contracts/utils/Address.sol\":5071:5094  target.code.length == 0 */\n      iszero\n        /* \"@openzeppelin/contracts/utils/Address.sol\":5045:5094  returndata.length == 0 && target.code.length == 0 */\n    tag_336:\n        /* \"@openzeppelin/contracts/utils/Address.sol\":5041:5160  if (returndata.length == 0 && target.code.length == 0) {... */\n      iszero\n      tag_337\n      jumpi\n        /* \"@openzeppelin/contracts/utils/Address.sol\":5121:5145  AddressEmptyCode(target) */\n      mload(0x40)\n      shl(0xe0, 0x9996b315)\n      dup2\n      mstore\n      sub(shl(0xa0, 0x01), 0x01)\n        /* \"#utility.yul\":1903:1935   */\n      dup6\n      and\n        /* \"@openzeppelin/contracts/utils/Address.sol\":5121:5145  AddressEmptyCode(target) */\n      0x04\n      dup3\n      add\n        /* \"#utility.yul\":1885:1936   */\n      mstore\n        /* \"#utility.yul\":1858:1876   */\n      0x24\n      add\n        /* \"@openzeppelin/contracts/utils/Address.sol\":5121:5145  AddressEmptyCode(target) */\n      tag_140\n        /* \"#utility.yul\":1739:1942   */\n      jump\n        /* \"@openzeppelin/contracts/utils/Address.sol\":5041:5160  if (returndata.length == 0 && target.code.length == 0) {... */\n    tag_337:\n      pop\n        /* \"@openzeppelin/contracts/utils/Address.sol\":5180:5190  returndata */\n      dup1\n        /* \"@openzeppelin/contracts/utils/Address.sol\":4793:5201  if (!success) {... */\n    tag_335:\n        /* \"@openzeppelin/contracts/utils/Address.sol\":4625:5207  function verifyCallResultFromTarget(... */\n      swap4\n      swap3\n      pop\n      pop\n      pop\n      jump\t// out\n        /* \"@openzeppelin/contracts/utils/Address.sol\":5743:6259  function _revert(bytes memory returndata) private pure {... */\n    tag_334:\n        /* \"@openzeppelin/contracts/utils/Address.sol\":5874:5891  returndata.length */\n      dup1\n      mload\n        /* \"@openzeppelin/contracts/utils/Address.sol\":5874:5895  returndata.length > 0 */\n      iszero\n        /* \"@openzeppelin/contracts/utils/Address.sol\":5870:6253  if (returndata.length > 0) {... */\n      tag_340\n      jumpi\n        /* \"@openzeppelin/contracts/utils/Address.sol\":6102:6112  returndata */\n      dup1\n        /* \"@openzeppelin/contracts/utils/Address.sol\":6096:6113  mload(returndata) */\n      mload\n        /* \"@openzeppelin/contracts/utils/Address.sol\":6158:6173  returndata_size */\n      dup1\n        /* \"@openzeppelin/contracts/utils/Address.sol\":6145:6155  returndata */\n      dup3\n        /* \"@openzeppelin/contracts/utils/Address.sol\":6141:6143  32 */\n      0x20\n        /* \"@openzeppelin/contracts/utils/Address.sol\":6137:6156  add(32, returndata) */\n      add\n        /* \"@openzeppelin/contracts/utils/Address.sol\":6130:6174  revert(add(32, returndata), returndata_size) */\n      revert\n        /* \"@openzeppelin/contracts/utils/Address.sol\":5870:6253  if (returndata.length > 0) {... */\n    tag_340:\n        /* \"@openzeppelin/contracts/utils/Address.sol\":6225:6242  FailedInnerCall() */\n      mload(0x40)\n      shl(0xe1, 0x0a12f521)\n      dup2\n      mstore\n      0x04\n      add\n      mload(0x40)\n      dup1\n      swap2\n      sub\n      swap1\n      revert\n        /* \"#utility.yul\":14:300   */\n    tag_30:\n        /* \"#utility.yul\":72:78   */\n      0x00\n        /* \"#utility.yul\":125:127   */\n      0x20\n        /* \"#utility.yul\":113:122   */\n      dup3\n        /* \"#utility.yul\":104:111   */\n      dup5\n        /* \"#utility.yul\":100:123   */\n      sub\n        /* \"#utility.yul\":96:128   */\n      slt\n        /* \"#utility.yul\":93:145   */\n      iszero\n      tag_347\n      jumpi\n        /* \"#utility.yul\":141:142   */\n      0x00\n        /* \"#utility.yul\":138:139   */\n      dup1\n        /* \"#utility.yul\":131:143   */\n      revert\n        /* \"#utility.yul\":93:145   */\n    tag_347:\n        /* \"#utility.yul\":167:190   */\n      dup2\n      calldataload\n      not(sub(shl(0xe0, 0x01), 0x01))\n        /* \"#utility.yul\":219:251   */\n      dup2\n      and\n        /* \"#utility.yul\":209:252   */\n      dup2\n      eq\n        /* \"#utility.yul\":199:270   */\n      tag_335\n      jumpi\n        /* \"#utility.yul\":266:267   */\n      0x00\n        /* \"#utility.yul\":263:264   */\n      dup1\n        /* \"#utility.yul\":256:268   */\n      revert\n        /* \"#utility.yul\":497:677   */\n    tag_37:\n        /* \"#utility.yul\":556:562   */\n      0x00\n        /* \"#utility.yul\":609:611   */\n      0x20\n        /* \"#utility.yul\":597:606   */\n      dup3\n        /* \"#utility.yul\":588:595   */\n      dup5\n        /* \"#utility.yul\":584:607   */\n      sub\n        /* \"#utility.yul\":580:612   */\n      slt\n        /* \"#utility.yul\":577:629   */\n      iszero\n      tag_351\n      jumpi\n        /* \"#utility.yul\":625:626   */\n      0x00\n        /* \"#utility.yul\":622:623   */\n      dup1\n        /* \"#utility.yul\":615:627   */\n      revert\n        /* \"#utility.yul\":577:629   */\n    tag_351:\n      pop\n        /* \"#utility.yul\":648:671   */\n      calldataload\n      swap2\n        /* \"#utility.yul\":497:677   */\n      swap1\n      pop\n      jump\t// out\n        /* \"#utility.yul\":682:930   */\n    tag_42:\n        /* \"#utility.yul\":750:756   */\n      0x00\n        /* \"#utility.yul\":758:764   */\n      dup1\n        /* \"#utility.yul\":811:813   */\n      0x40\n        /* \"#utility.yul\":799:808   */\n      dup4\n        /* \"#utility.yul\":790:797   */\n      dup6\n        /* \"#utility.yul\":786:809   */\n      sub\n        /* \"#utility.yul\":782:814   */\n      slt\n        /* \"#utility.yul\":779:831   */\n      iszero\n      tag_353\n      jumpi\n        /* \"#utility.yul\":827:828   */\n      0x00\n        /* \"#utility.yul\":824:825   */\n      dup1\n        /* \"#utility.yul\":817:829   */\n      revert\n        /* \"#utility.yul\":779:831   */\n    tag_353:\n      pop\n      pop\n        /* \"#utility.yul\":850:873   */\n      dup1\n      calldataload\n      swap3\n        /* \"#utility.yul\":920:922   */\n      0x20\n        /* \"#utility.yul\":905:923   */\n      swap1\n      swap2\n      add\n        /* \"#utility.yul\":892:924   */\n      calldataload\n      swap2\n      pop\n        /* \"#utility.yul\":682:930   */\n      jump\t// out\n        /* \"#utility.yul\":1302:1475   */\n    tag_342:\n        /* \"#utility.yul\":1370:1390   */\n      dup1\n      calldataload\n      sub(shl(0xa0, 0x01), 0x01)\n        /* \"#utility.yul\":1419:1450   */\n      dup2\n      and\n        /* \"#utility.yul\":1409:1451   */\n      dup2\n      eq\n        /* \"#utility.yul\":1399:1469   */\n      tag_358\n      jumpi\n        /* \"#utility.yul\":1465:1466   */\n      0x00\n        /* \"#utility.yul\":1462:1463   */\n      dup1\n        /* \"#utility.yul\":1455:1467   */\n      revert\n        /* \"#utility.yul\":1399:1469   */\n    tag_358:\n        /* \"#utility.yul\":1302:1475   */\n      swap2\n      swap1\n      pop\n      jump\t// out\n        /* \"#utility.yul\":1480:1734   */\n    tag_54:\n        /* \"#utility.yul\":1548:1554   */\n      0x00\n        /* \"#utility.yul\":1556:1562   */\n      dup1\n        /* \"#utility.yul\":1609:1611   */\n      0x40\n        /* \"#utility.yul\":1597:1606   */\n      dup4\n        /* \"#utility.yul\":1588:1595   */\n      dup6\n        /* \"#utility.yul\":1584:1607   */\n      sub\n        /* \"#utility.yul\":1580:1612   */\n      slt\n        /* \"#utility.yul\":1577:1629   */\n      iszero\n      tag_360\n      jumpi\n        /* \"#utility.yul\":1625:1626   */\n      0x00\n        /* \"#utility.yul\":1622:1623   */\n      dup1\n        /* \"#utility.yul\":1615:1627   */\n      revert\n        /* \"#utility.yul\":1577:1629   */\n    tag_360:\n        /* \"#utility.yul\":1661:1670   */\n      dup3\n        /* \"#utility.yul\":1648:1671   */\n      calldataload\n        /* \"#utility.yul\":1638:1671   */\n      swap2\n      pop\n        /* \"#utility.yul\":1690:1728   */\n      tag_361\n        /* \"#utility.yul\":1724:1726   */\n      0x20\n        /* \"#utility.yul\":1713:1722   */\n      dup5\n        /* \"#utility.yul\":1709:1727   */\n      add\n        /* \"#utility.yul\":1690:1728   */\n      tag_342\n      jump\t// in\n    tag_361:\n        /* \"#utility.yul\":1680:1728   */\n      swap1\n      pop\n        /* \"#utility.yul\":1480:1734   */\n      swap3\n      pop\n      swap3\n      swap1\n      pop\n      jump\t// out\n        /* \"#utility.yul\":1947:2074   */\n    tag_343:\n        /* \"#utility.yul\":2008:2018   */\n      0x4e487b71\n        /* \"#utility.yul\":2003:2006   */\n      0xe0\n        /* \"#utility.yul\":1999:2019   */\n      shl\n        /* \"#utility.yul\":1996:1997   */\n      0x00\n        /* \"#utility.yul\":1989:2020   */\n      mstore\n        /* \"#utility.yul\":2039:2043   */\n      0x41\n        /* \"#utility.yul\":2036:2037   */\n      0x04\n        /* \"#utility.yul\":2029:2044   */\n      mstore\n        /* \"#utility.yul\":2063:2067   */\n      0x24\n        /* \"#utility.yul\":2060:2061   */\n      0x00\n        /* \"#utility.yul\":2053:2068   */\n      revert\n        /* \"#utility.yul\":2079:3074   */\n    tag_67:\n        /* \"#utility.yul\":2156:2162   */\n      0x00\n        /* \"#utility.yul\":2164:2170   */\n      dup1\n        /* \"#utility.yul\":2217:2219   */\n      0x40\n        /* \"#utility.yul\":2205:2214   */\n      dup4\n        /* \"#utility.yul\":2196:2203   */\n      dup6\n        /* \"#utility.yul\":2192:2215   */\n      sub\n        /* \"#utility.yul\":2188:2220   */\n      slt\n        /* \"#utility.yul\":2185:2237   */\n      iszero\n      tag_365\n      jumpi\n        /* \"#utility.yul\":2233:2234   */\n      0x00\n        /* \"#utility.yul\":2230:2231   */\n      dup1\n        /* \"#utility.yul\":2223:2235   */\n      revert\n        /* \"#utility.yul\":2185:2237   */\n    tag_365:\n        /* \"#utility.yul\":2256:2285   */\n      tag_366\n        /* \"#utility.yul\":2275:2284   */\n      dup4\n        /* \"#utility.yul\":2256:2285   */\n      tag_342\n      jump\t// in\n    tag_366:\n        /* \"#utility.yul\":2246:2285   */\n      swap2\n      pop\n        /* \"#utility.yul\":2336:2338   */\n      0x20\n        /* \"#utility.yul\":2325:2334   */\n      dup4\n        /* \"#utility.yul\":2321:2339   */\n      add\n        /* \"#utility.yul\":2308:2340   */\n      calldataload\n        /* \"#utility.yul\":2359:2377   */\n      0xffffffffffffffff\n        /* \"#utility.yul\":2400:2402   */\n      dup1\n        /* \"#utility.yul\":2392:2398   */\n      dup3\n        /* \"#utility.yul\":2389:2403   */\n      gt\n        /* \"#utility.yul\":2386:2420   */\n      iszero\n      tag_367\n      jumpi\n        /* \"#utility.yul\":2416:2417   */\n      0x00\n        /* \"#utility.yul\":2413:2414   */\n      dup1\n        /* \"#utility.yul\":2406:2418   */\n      revert\n        /* \"#utility.yul\":2386:2420   */\n    tag_367:\n        /* \"#utility.yul\":2454:2460   */\n      dup2\n        /* \"#utility.yul\":2443:2452   */\n      dup6\n        /* \"#utility.yul\":2439:2461   */\n      add\n        /* \"#utility.yul\":2429:2461   */\n      swap2\n      pop\n        /* \"#utility.yul\":2499:2506   */\n      dup6\n        /* \"#utility.yul\":2492:2496   */\n      0x1f\n        /* \"#utility.yul\":2488:2490   */\n      dup4\n        /* \"#utility.yul\":2484:2497   */\n      add\n        /* \"#utility.yul\":2480:2507   */\n      slt\n        /* \"#utility.yul\":2470:2525   */\n      tag_368\n      jumpi\n        /* \"#utility.yul\":2521:2522   */\n      0x00\n        /* \"#utility.yul\":2518:2519   */\n      dup1\n        /* \"#utility.yul\":2511:2523   */\n      revert\n        /* \"#utility.yul\":2470:2525   */\n    tag_368:\n        /* \"#utility.yul\":2557:2559   */\n      dup2\n        /* \"#utility.yul\":2544:2560   */\n      calldataload\n        /* \"#utility.yul\":2579:2581   */\n      dup2\n        /* \"#utility.yul\":2575:2577   */\n      dup2\n        /* \"#utility.yul\":2572:2582   */\n      gt\n        /* \"#utility.yul\":2569:2605   */\n      iszero\n      tag_370\n      jumpi\n        /* \"#utility.yul\":2585:2603   */\n      tag_370\n      tag_343\n      jump\t// in\n    tag_370:\n        /* \"#utility.yul\":2660:2662   */\n      0x40\n        /* \"#utility.yul\":2654:2663   */\n      mload\n        /* \"#utility.yul\":2628:2630   */\n      0x1f\n        /* \"#utility.yul\":2714:2727   */\n      dup3\n      add\n      not(0x1f)\n        /* \"#utility.yul\":2710:2732   */\n      swap1\n      dup2\n      and\n        /* \"#utility.yul\":2734:2736   */\n      0x3f\n        /* \"#utility.yul\":2706:2737   */\n      add\n        /* \"#utility.yul\":2702:2742   */\n      and\n        /* \"#utility.yul\":2690:2743   */\n      dup2\n      add\n      swap1\n        /* \"#utility.yul\":2758:2776   */\n      dup4\n      dup3\n      gt\n        /* \"#utility.yul\":2778:2800   */\n      dup2\n      dup4\n      lt\n        /* \"#utility.yul\":2755:2801   */\n      or\n        /* \"#utility.yul\":2752:2824   */\n      iszero\n      tag_372\n      jumpi\n        /* \"#utility.yul\":2804:2822   */\n      tag_372\n      tag_343\n      jump\t// in\n    tag_372:\n        /* \"#utility.yul\":2844:2854   */\n      dup2\n        /* \"#utility.yul\":2840:2842   */\n      0x40\n        /* \"#utility.yul\":2833:2855   */\n      mstore\n        /* \"#utility.yul\":2879:2881   */\n      dup3\n        /* \"#utility.yul\":2871:2877   */\n      dup2\n        /* \"#utility.yul\":2864:2882   */\n      mstore\n        /* \"#utility.yul\":2919:2926   */\n      dup9\n        /* \"#utility.yul\":2914:2916   */\n      0x20\n        /* \"#utility.yul\":2909:2911   */\n      dup5\n        /* \"#utility.yul\":2905:2907   */\n      dup8\n        /* \"#utility.yul\":2901:2912   */\n      add\n        /* \"#utility.yul\":2897:2917   */\n      add\n        /* \"#utility.yul\":2894:2927   */\n      gt\n        /* \"#utility.yul\":2891:2944   */\n      iszero\n      tag_373\n      jumpi\n        /* \"#utility.yul\":2940:2941   */\n      0x00\n        /* \"#utility.yul\":2937:2938   */\n      dup1\n        /* \"#utility.yul\":2930:2942   */\n      revert\n        /* \"#utility.yul\":2891:2944   */\n    tag_373:\n        /* \"#utility.yul\":2996:2998   */\n      dup3\n        /* \"#utility.yul\":2991:2993   */\n      0x20\n        /* \"#utility.yul\":2987:2989   */\n      dup7\n        /* \"#utility.yul\":2983:2994   */\n      add\n        /* \"#utility.yul\":2978:2980   */\n      0x20\n        /* \"#utility.yul\":2970:2976   */\n      dup4\n        /* \"#utility.yul\":2966:2981   */\n      add\n        /* \"#utility.yul\":2953:2999   */\n      calldatacopy\n        /* \"#utility.yul\":3041:3042   */\n      0x00\n        /* \"#utility.yul\":3036:3038   */\n      0x20\n        /* \"#utility.yul\":3031:3033   */\n      dup5\n        /* \"#utility.yul\":3023:3029   */\n      dup4\n        /* \"#utility.yul\":3019:3034   */\n      add\n        /* \"#utility.yul\":3015:3039   */\n      add\n        /* \"#utility.yul\":3008:3043   */\n      mstore\n        /* \"#utility.yul\":3062:3068   */\n      dup1\n        /* \"#utility.yul\":3052:3068   */\n      swap6\n      pop\n      pop\n      pop\n      pop\n      pop\n      pop\n        /* \"#utility.yul\":2079:3074   */\n      swap3\n      pop\n      swap3\n      swap1\n      pop\n      jump\t// out\n        /* \"#utility.yul\":3079:3401   */\n    tag_88:\n        /* \"#utility.yul\":3156:3162   */\n      0x00\n        /* \"#utility.yul\":3164:3170   */\n      dup1\n        /* \"#utility.yul\":3172:3178   */\n      0x00\n        /* \"#utility.yul\":3225:3227   */\n      0x60\n        /* \"#utility.yul\":3213:3222   */\n      dup5\n        /* \"#utility.yul\":3204:3211   */\n      dup7\n        /* \"#utility.yul\":3200:3223   */\n      sub\n        /* \"#utility.yul\":3196:3228   */\n      slt\n        /* \"#utility.yul\":3193:3245   */\n      iszero\n      tag_375\n      jumpi\n        /* \"#utility.yul\":3241:3242   */\n      0x00\n        /* \"#utility.yul\":3238:3239   */\n      dup1\n        /* \"#utility.yul\":3231:3243   */\n      revert\n        /* \"#utility.yul\":3193:3245   */\n    tag_375:\n        /* \"#utility.yul\":3264:3293   */\n      tag_376\n        /* \"#utility.yul\":3283:3292   */\n      dup5\n        /* \"#utility.yul\":3264:3293   */\n      tag_342\n      jump\t// in\n    tag_376:\n        /* \"#utility.yul\":3254:3293   */\n      swap6\n        /* \"#utility.yul\":3340:3342   */\n      0x20\n        /* \"#utility.yul\":3325:3343   */\n      dup6\n      add\n        /* \"#utility.yul\":3312:3344   */\n      calldataload\n      swap6\n      pop\n        /* \"#utility.yul\":3391:3393   */\n      0x40\n        /* \"#utility.yul\":3376:3394   */\n      swap1\n      swap5\n      add\n        /* \"#utility.yul\":3363:3395   */\n      calldataload\n      swap4\n        /* \"#utility.yul\":3079:3401   */\n      swap3\n      pop\n      pop\n      pop\n      jump\t// out\n        /* \"#utility.yul\":4154:4572   */\n    tag_118:\n        /* \"#utility.yul\":4303:4305   */\n      0x20\n        /* \"#utility.yul\":4292:4301   */\n      dup2\n        /* \"#utility.yul\":4285:4306   */\n      mstore\n        /* \"#utility.yul\":4266:4270   */\n      0x00\n        /* \"#utility.yul\":4335:4341   */\n      dup3\n        /* \"#utility.yul\":4329:4342   */\n      mload\n        /* \"#utility.yul\":4378:4384   */\n      dup1\n        /* \"#utility.yul\":4373:4375   */\n      0x20\n        /* \"#utility.yul\":4362:4371   */\n      dup5\n        /* \"#utility.yul\":4358:4376   */\n      add\n        /* \"#utility.yul\":4351:4385   */\n      mstore\n        /* \"#utility.yul\":4437:4443   */\n      dup1\n        /* \"#utility.yul\":4432:4434   */\n      0x20\n        /* \"#utility.yul\":4424:4430   */\n      dup6\n        /* \"#utility.yul\":4420:4435   */\n      add\n        /* \"#utility.yul\":4415:4417   */\n      0x40\n        /* \"#utility.yul\":4404:4413   */\n      dup6\n        /* \"#utility.yul\":4400:4418   */\n      add\n        /* \"#utility.yul\":4394:4444   */\n      mcopy\n        /* \"#utility.yul\":4493:4494   */\n      0x00\n        /* \"#utility.yul\":4488:4490   */\n      0x40\n        /* \"#utility.yul\":4479:4485   */\n      dup3\n        /* \"#utility.yul\":4468:4477   */\n      dup6\n        /* \"#utility.yul\":4464:4486   */\n      add\n        /* \"#utility.yul\":4460:4491   */\n      add\n        /* \"#utility.yul\":4453:4495   */\n      mstore\n        /* \"#utility.yul\":4563:4565   */\n      0x40\n        /* \"#utility.yul\":4556:4558   */\n      0x1f\n        /* \"#utility.yul\":4552:4559   */\n      not\n        /* \"#utility.yul\":4547:4549   */\n      0x1f\n        /* \"#utility.yul\":4539:4545   */\n      dup4\n        /* \"#utility.yul\":4535:4550   */\n      add\n        /* \"#utility.yul\":4531:4560   */\n      and\n        /* \"#utility.yul\":4520:4529   */\n      dup5\n        /* \"#utility.yul\":4516:4561   */\n      add\n        /* \"#utility.yul\":4512:4566   */\n      add\n        /* \"#utility.yul\":4504:4566   */\n      swap2\n      pop\n      pop\n        /* \"#utility.yul\":4154:4572   */\n      swap3\n      swap2\n      pop\n      pop\n      jump\t// out\n        /* \"#utility.yul\":5278:5405   */\n    tag_344:\n        /* \"#utility.yul\":5339:5349   */\n      0x4e487b71\n        /* \"#utility.yul\":5334:5337   */\n      0xe0\n        /* \"#utility.yul\":5330:5350   */\n      shl\n        /* \"#utility.yul\":5327:5328   */\n      0x00\n        /* \"#utility.yul\":5320:5351   */\n      mstore\n        /* \"#utility.yul\":5370:5374   */\n      0x11\n        /* \"#utility.yul\":5367:5368   */\n      0x04\n        /* \"#utility.yul\":5360:5375   */\n      mstore\n        /* \"#utility.yul\":5394:5398   */\n      0x24\n        /* \"#utility.yul\":5391:5392   */\n      0x00\n        /* \"#utility.yul\":5384:5399   */\n      revert\n        /* \"#utility.yul\":5410:5538   */\n    tag_146:\n        /* \"#utility.yul\":5477:5486   */\n      dup2\n      dup2\n      sub\n        /* \"#utility.yul\":5498:5509   */\n      dup2\n      dup2\n      gt\n        /* \"#utility.yul\":5495:5532   */\n      iszero\n      tag_133\n      jumpi\n        /* \"#utility.yul\":5512:5530   */\n      tag_133\n      tag_344\n      jump\t// in\n        /* \"#utility.yul\":5894:6062   */\n    tag_151:\n        /* \"#utility.yul\":5967:5976   */\n      dup1\n      dup3\n      mul\n        /* \"#utility.yul\":5998:6007   */\n      dup2\n      iszero\n        /* \"#utility.yul\":6015:6030   */\n      dup3\n      dup3\n      div\n        /* \"#utility.yul\":6009:6031   */\n      dup5\n      eq\n        /* \"#utility.yul\":5995:6032   */\n      or\n        /* \"#utility.yul\":5985:6056   */\n      tag_133\n      jumpi\n        /* \"#utility.yul\":6036:6054   */\n      tag_133\n      tag_344\n      jump\t// in\n        /* \"#utility.yul\":6346:6623   */\n    tag_158:\n        /* \"#utility.yul\":6413:6419   */\n      0x00\n        /* \"#utility.yul\":6466:6468   */\n      0x20\n        /* \"#utility.yul\":6454:6463   */\n      dup3\n        /* \"#utility.yul\":6445:6452   */\n      dup5\n        /* \"#utility.yul\":6441:6464   */\n      sub\n        /* \"#utility.yul\":6437:6469   */\n      slt\n        /* \"#utility.yul\":6434:6486   */\n      iszero\n      tag_392\n      jumpi\n        /* \"#utility.yul\":6482:6483   */\n      0x00\n        /* \"#utility.yul\":6479:6480   */\n      dup1\n        /* \"#utility.yul\":6472:6484   */\n      revert\n        /* \"#utility.yul\":6434:6486   */\n    tag_392:\n        /* \"#utility.yul\":6514:6523   */\n      dup2\n        /* \"#utility.yul\":6508:6524   */\n      mload\n        /* \"#utility.yul\":6567:6572   */\n      dup1\n        /* \"#utility.yul\":6560:6573   */\n      iszero\n        /* \"#utility.yul\":6553:6574   */\n      iszero\n        /* \"#utility.yul\":6546:6551   */\n      dup2\n        /* \"#utility.yul\":6543:6575   */\n      eq\n        /* \"#utility.yul\":6533:6593   */\n      tag_335\n      jumpi\n        /* \"#utility.yul\":6589:6590   */\n      0x00\n        /* \"#utility.yul\":6586:6587   */\n      dup1\n        /* \"#utility.yul\":6579:6591   */\n      revert\n        /* \"#utility.yul\":8539:8723   */\n    tag_264:\n        /* \"#utility.yul\":8609:8615   */\n      0x00\n        /* \"#utility.yul\":8662:8664   */\n      0x20\n        /* \"#utility.yul\":8650:8659   */\n      dup3\n        /* \"#utility.yul\":8641:8648   */\n      dup5\n        /* \"#utility.yul\":8637:8660   */\n      sub\n        /* \"#utility.yul\":8633:8665   */\n      slt\n        /* \"#utility.yul\":8630:8682   */\n      iszero\n      tag_400\n      jumpi\n        /* \"#utility.yul\":8678:8679   */\n      0x00\n        /* \"#utility.yul\":8675:8676   */\n      dup1\n        /* \"#utility.yul\":8668:8680   */\n      revert\n        /* \"#utility.yul\":8630:8682   */\n    tag_400:\n      pop\n        /* \"#utility.yul\":8701:8717   */\n      mload\n      swap2\n        /* \"#utility.yul\":8539:8723   */\n      swap1\n      pop\n      jump\t// out\n        /* \"#utility.yul\":9007:9308   */\n    tag_321:\n        /* \"#utility.yul\":9136:9139   */\n      0x00\n        /* \"#utility.yul\":9174:9180   */\n      dup3\n        /* \"#utility.yul\":9168:9181   */\n      mload\n        /* \"#utility.yul\":9220:9226   */\n      dup1\n        /* \"#utility.yul\":9213:9217   */\n      0x20\n        /* \"#utility.yul\":9205:9211   */\n      dup6\n        /* \"#utility.yul\":9201:9218   */\n      add\n        /* \"#utility.yul\":9196:9199   */\n      dup5\n        /* \"#utility.yul\":9190:9227   */\n      mcopy\n        /* \"#utility.yul\":9282:9283   */\n      0x00\n        /* \"#utility.yul\":9246:9262   */\n      swap3\n      add\n        /* \"#utility.yul\":9271:9284   */\n      swap2\n      dup3\n      mstore\n      pop\n        /* \"#utility.yul\":9246:9262   */\n      swap2\n        /* \"#utility.yul\":9007:9308   */\n      swap1\n      pop\n      jump\t// out\n    stop\n    data_75b20eef8615de99c108b05f0dbda081c91897128caa336d75dffb97c4132b4d 360894a13ba1a3210667c828492db98dca3e2076cc3735a920a3ca505d382bbc\n    data_b3da67d1b252aeab7c8063542d95e75f82a5307a82535949bc38f7cf7ba8897f 02dd7bc7dec4dceedda775e58dd541e08a116c6c53815c0bd028192f7b626800\n\n    auxdata: 0xa26469706673582212201a71c407248223e808c01daf09c108cd9b41ba5f23fdf45df8e840952b5f1c5464736f6c63430008190033\n}\n",
				"bytecode": {
					"linkReferences": {},
					"object": "60a060405230608052348015610013575f80fd5b5061001e5f3361007a565b506100497f65d7a28e3265b37a6474929f336521b332c1681b933f6cb9f3376673440d862a3361007a565b506100747f189ab7a9244df0848122154315af71fe140f3db0fe014031783b0946b8c9d2e33361007a565b50610148565b5f8281527f02dd7bc7dec4dceedda775e58dd541e08a116c6c53815c0bd028192f7b626800602081815260408084206001600160a01b038616855290915282205460ff1661013d575f848152602082815260408083206001600160a01b03871684529091529020805460ff191660011790556100f33390565b6001600160a01b0316836001600160a01b0316857f2f8788117e7eff1d82e926ec794901d17c78024a50270940304540a733656f0d60405160405180910390a46001915050610142565b5f9150505b92915050565b60805161137261016e5f395f8181610c5401528181610c7d0152610dde01526113725ff3fe608060405260043610610131575f3560e01c806379e07242116100a857806391d148541161006d57806391d148541461039c578063a217fddf146103bb578063ad3cb1cc146103ce578063d547741f1461040b578063e63ab1e91461042a578063f72c0d8b1461045d575f80fd5b806379e07242146102a75780637a1ac61e146102c65780637b0a47ee146102e55780637da470ea146102fa5780638032608214610387575f80fd5b806334aab064116100f957806334aab064146101f557806336568abe1461022c5780634f1ef2861461024b57806352d1902d1461025e5780635c975abb146102725780637026122214610288575f80fd5b806301ffc9a714610135578063136002141461016957806319cc96d91461018a578063248a9ca3146101a95780632f2ff15d146101d6575b5f80fd5b348015610140575f80fd5b5061015461014f36600461109a565b610490565b60405190151581526020015b60405180910390f35b348015610174575f80fd5b506101886101833660046110c1565b6104c6565b005b348015610195575f80fd5b506101886101a43660046110d8565b610758565b3480156101b4575f80fd5b506101c86101c33660046110c1565b610764565b604051908152602001610160565b3480156101e1575f80fd5b506101886101f0366004611113565b610784565b348015610200575f80fd5b50603354610214906001600160a01b031681565b6040516001600160a01b039091168152602001610160565b348015610237575f80fd5b50610188610246366004611113565b6107a6565b610188610259366004611151565b6107de565b348015610269575f80fd5b506101c86107f9565b34801561027d575f80fd5b505f5460ff16610154565b348015610293575f80fd5b506101886102a23660046110d8565b610814565b3480156102b2575f80fd5b506101886102c13660046110c1565b61093d565b3480156102d1575f80fd5b506101886102e036600461120d565b610948565b3480156102f0575f80fd5b506101c860345481565b348015610305575f80fd5b506103526103143660046110c1565b60326020525f908152604090208054600182015460028301546003840154600485015460059095015493946001600160a01b03909316939192909186565b604080519687526001600160a01b039095166020870152938501929092526060840152608083015260a082015260c001610160565b348015610392575f80fd5b506101c860355481565b3480156103a7575f80fd5b506101546103b6366004611113565b610a8c565b3480156103c6575f80fd5b506101c85f81565b3480156103d9575f80fd5b506103fe604051806040016040528060058152602001640352e302e360dc1b81525081565b604051610160919061123d565b348015610416575f80fd5b50610188610425366004611113565b610ac2565b348015610435575f80fd5b506101c87f65d7a28e3265b37a6474929f336521b332c1681b933f6cb9f3376673440d862a81565b348015610468575f80fd5b506101c87f189ab7a9244df0848122154315af71fe140f3db0fe014031783b0946b8c9d2e381565b5f6001600160e01b03198216637965db0b60e01b14806104c057506301ffc9a760e01b6001600160e01b03198316145b92915050565b6104ce610ade565b5f818152603260205260409020600101546001600160a01b0316331461053b5760405162461bcd60e51b815260206004820152601960248201527f4e6f7420746865206f776e6572206f6620746865206661726d0000000000000060448201526064015b60405180910390fd5b5f818152603260205260409020600301541561058e5760405162461bcd60e51b815260206004820152601260248201527111985c9b48185b1c9958591e48195b99195960721b6044820152606401610532565b5f818152603260205260408120600201546105a99042611286565b90506035548110156105f65760405162461bcd60e51b815260206004820152601660248201527511985c9b5a5b99c81c195c9a5bd9081b9bdd081b595d60521b6044820152606401610532565b5f8281526032602052604090204260038201556005015460345461061a9083611299565b6106249190611299565b5f83815260326020526040908190206004908101839055603354915163a9059cbb60e01b8152339181019190915260248101929092526001600160a01b03169063a9059cbb906044016020604051808303815f875af1158015610689573d5f803e3d5ffd5b505050506040513d601f19601f820116820180604052508101906106ad91906112b0565b505f82815260326020908152604091829020600281015460038201546004909201548451878152339481019490945293830152606082015260808101919091527f25322636d6c558107fb20092ea248d82ec953603ce99bde991511fd53567c6549060a00160405180910390a1505f9081526032602052604081208181556001810180546001600160a01b031916905560028101829055600381018290556004810182905560050155565b610760610ade565b5050565b5f9081525f8051602061131d833981519152602052604090206001015490565b61078d82610764565b61079681610b25565b6107a08383610b2f565b50505050565b6001600160a01b03811633146107cf5760405163334bd91960e11b815260040160405180910390fd5b6107d98282610bd0565b505050565b6107e6610c49565b6107ef82610ced565b6107608282610d17565b5f610802610dd3565b505f805160206112fd83398151915290565b61081c610ade565b5f828152603260205260409020541561086d5760405162461bcd60e51b81526020600482015260136024820152724661726d20616c72656164792065786973747360681b6044820152606401610532565b6040805160c081018252838152336020808301828152428486018181525f60608088018281526080808a0184815260a0808c018e81528f875260328b528d87209c518d55985160018d0180546001600160a01b0319166001600160a01b03909216919091179055955160028c0155915160038b0155905160048a0155945160059098019790975587518a81529485019590955295830152928101829052918201527f25322636d6c558107fb20092ea248d82ec953603ce99bde991511fd53567c654910160405180910390a15050565b610945610ade565b50565b7ff0c57e16840df040f15088dc2f81fe391c3923bec73e23a9662efc9c229c6a008054600160401b810460ff16159067ffffffffffffffff165f8115801561098d5750825b90505f8267ffffffffffffffff1660011480156109a95750303b155b9050811580156109b7575080155b156109d55760405163f92ee8a960e01b815260040160405180910390fd5b845467ffffffffffffffff1916600117855583156109ff57845460ff60401b1916600160401b1785555b610a07610e1c565b610a0f610e24565b610a17610e1c565b603380546001600160a01b0319166001600160a01b038a16179055603487905560358690558315610a8257845460ff60401b19168555604051600181527fc7f505b2f371ae2175ee4913f4499e1f2633a7b5936321eed1cdaeb6115181d29060200160405180910390a15b5050505050505050565b5f9182525f8051602061131d833981519152602090815260408084206001600160a01b0393909316845291905290205460ff1690565b610acb82610764565b610ad481610b25565b6107a08383610bd0565b5f5460ff1615610b235760405162461bcd60e51b815260206004820152601060248201526f14185d5cd8589b194e881c185d5cd95960821b6044820152606401610532565b565b6109458133610e34565b5f5f8051602061131d833981519152610b488484610a8c565b610bc7575f848152602082815260408083206001600160a01b03871684529091529020805460ff19166001179055610b7d3390565b6001600160a01b0316836001600160a01b0316857f2f8788117e7eff1d82e926ec794901d17c78024a50270940304540a733656f0d60405160405180910390a460019150506104c0565b5f9150506104c0565b5f5f8051602061131d833981519152610be98484610a8c565b15610bc7575f848152602082815260408083206001600160a01b0387168085529252808320805460ff1916905551339287917ff6391f5c32d9c69d2a47ea670b442974b53935d1edc7fd64eb21e047a839171b9190a460019150506104c0565b306001600160a01b037f0000000000000000000000000000000000000000000000000000000000000000161480610ccf57507f00000000000000000000000000000000000000000000000000000000000000006001600160a01b0316610cc35f805160206112fd833981519152546001600160a01b031690565b6001600160a01b031614155b15610b235760405163703e46dd60e11b815260040160405180910390fd5b7f189ab7a9244df0848122154315af71fe140f3db0fe014031783b0946b8c9d2e361076081610b25565b816001600160a01b03166352d1902d6040518163ffffffff1660e01b8152600401602060405180830381865afa925050508015610d71575060408051601f3d908101601f19168201909252610d6e918101906112cf565b60015b610d9957604051634c9c8ce360e01b81526001600160a01b0383166004820152602401610532565b5f805160206112fd8339815191528114610dc957604051632a87526960e21b815260048101829052602401610532565b6107d98383610e6d565b306001600160a01b037f00000000000000000000000000000000000000000000000000000000000000001614610b235760405163703e46dd60e11b815260040160405180910390fd5b610b23610ec2565b610e2c610ec2565b610b23610f0b565b610e3e8282610a8c565b6107605760405163e2517d3f60e01b81526001600160a01b038216600482015260248101839052604401610532565b610e7682610f1e565b6040516001600160a01b038316907fbc7cd75a20ee27fd9adebab32041f755214dbc6bffa90cc0225b39da2e5c2d3b905f90a2805115610eba576107d98282610f81565b610760610ff3565b7ff0c57e16840df040f15088dc2f81fe391c3923bec73e23a9662efc9c229c6a0054600160401b900460ff16610b2357604051631afcd79f60e31b815260040160405180910390fd5b610f13610ec2565b5f805460ff19169055565b806001600160a01b03163b5f03610f5357604051634c9c8ce360e01b81526001600160a01b0382166004820152602401610532565b5f805160206112fd83398151915280546001600160a01b0319166001600160a01b0392909216919091179055565b60605f80846001600160a01b031684604051610f9d91906112e6565b5f60405180830381855af49150503d805f8114610fd5576040519150601f19603f3d011682016040523d82523d5f602084013e610fda565b606091505b5091509150610fea858383611012565b95945050505050565b3415610b235760405163b398979f60e01b815260040160405180910390fd5b6060826110275761102282611071565b61106a565b815115801561103e57506001600160a01b0384163b155b1561106757604051639996b31560e01b81526001600160a01b0385166004820152602401610532565b50805b9392505050565b8051156110815780518082602001fd5b604051630a12f52160e11b815260040160405180910390fd5b5f602082840312156110aa575f80fd5b81356001600160e01b03198116811461106a575f80fd5b5f602082840312156110d1575f80fd5b5035919050565b5f80604083850312156110e9575f80fd5b50508035926020909101359150565b80356001600160a01b038116811461110e575f80fd5b919050565b5f8060408385031215611124575f80fd5b82359150611134602084016110f8565b90509250929050565b634e487b7160e01b5f52604160045260245ffd5b5f8060408385031215611162575f80fd5b61116b836110f8565b9150602083013567ffffffffffffffff80821115611187575f80fd5b818501915085601f83011261119a575f80fd5b8135818111156111ac576111ac61113d565b604051601f8201601f19908116603f011681019083821181831017156111d4576111d461113d565b816040528281528860208487010111156111ec575f80fd5b826020860160208301375f6020848301015280955050505050509250929050565b5f805f6060848603121561121f575f80fd5b611228846110f8565b95602085013595506040909401359392505050565b602081525f82518060208401528060208501604085015e5f604082850101526040601f19601f83011684010191505092915050565b634e487b7160e01b5f52601160045260245ffd5b818103818111156104c0576104c0611272565b80820281158282048414176104c0576104c0611272565b5f602082840312156112c0575f80fd5b8151801515811461106a575f80fd5b5f602082840312156112df575f80fd5b5051919050565b5f82518060208501845e5f92019182525091905056fe360894a13ba1a3210667c828492db98dca3e2076cc3735a920a3ca505d382bbc02dd7bc7dec4dceedda775e58dd541e08a116c6c53815c0bd028192f7b626800a26469706673582212201a71c407248223e808c01daf09c108cd9b41ba5f23fdf45df8e840952b5f1c5464736f6c63430008190033",
					"opcodes": "PUSH1 0xA0 PUSH1 0x40 MSTORE ADDRESS PUSH1 0x80 MSTORE CALLVALUE DUP1 ISZERO PUSH2 0x13 JUMPI PUSH0 DUP1 REVERT JUMPDEST POP PUSH2 0x1E PUSH0 CALLER PUSH2 0x7A JUMP JUMPDEST POP PUSH2 0x49 PUSH32 0x65D7A28E3265B37A6474929F336521B332C1681B933F6CB9F3376673440D862A CALLER PUSH2 0x7A JUMP JUMPDEST POP PUSH2 0x74 PUSH32 0x189AB7A9244DF0848122154315AF71FE140F3DB0FE014031783B0946B8C9D2E3 CALLER PUSH2 0x7A JUMP JUMPDEST POP PUSH2 0x148 JUMP JUMPDEST PUSH0 DUP3 DUP2 MSTORE PUSH32 0x2DD7BC7DEC4DCEEDDA775E58DD541E08A116C6C53815C0BD028192F7B626800 PUSH1 0x20 DUP2 DUP2 MSTORE PUSH1 0x40 DUP1 DUP5 KECCAK256 PUSH1 0x1 PUSH1 0x1 PUSH1 0xA0 SHL SUB DUP7 AND DUP6 MSTORE SWAP1 SWAP2 MSTORE DUP3 KECCAK256 SLOAD PUSH1 0xFF AND PUSH2 0x13D JUMPI PUSH0 DUP5 DUP2 MSTORE PUSH1 0x20 DUP3 DUP2 MSTORE PUSH1 0x40 DUP1 DUP4 KECCAK256 PUSH1 0x1 PUSH1 0x1 PUSH1 0xA0 SHL SUB DUP8 AND DUP5 MSTORE SWAP1 SWAP2 MSTORE SWAP1 KECCAK256 DUP1 SLOAD PUSH1 0xFF NOT AND PUSH1 0x1 OR SWAP1 SSTORE PUSH2 0xF3 CALLER SWAP1 JUMP JUMPDEST PUSH1 0x1 PUSH1 0x1 PUSH1 0xA0 SHL SUB AND DUP4 PUSH1 0x1 PUSH1 0x1 PUSH1 0xA0 SHL SUB AND DUP6 PUSH32 0x2F8788117E7EFF1D82E926EC794901D17C78024A50270940304540A733656F0D PUSH1 0x40 MLOAD PUSH1 0x40 MLOAD DUP1 SWAP2 SUB SWAP1 LOG4 PUSH1 0x1 SWAP2 POP POP PUSH2 0x142 JUMP JUMPDEST PUSH0 SWAP2 POP POP JUMPDEST SWAP3 SWAP2 POP POP JUMP JUMPDEST PUSH1 0x80 MLOAD PUSH2 0x1372 PUSH2 0x16E PUSH0 CODECOPY PUSH0 DUP2 DUP2 PUSH2 0xC54 ADD MSTORE DUP2 DUP2 PUSH2 0xC7D ADD MSTORE PUSH2 0xDDE ADD MSTORE PUSH2 0x1372 PUSH0 RETURN INVALID PUSH1 0x80 PUSH1 0x40 MSTORE PUSH1 0x4 CALLDATASIZE LT PUSH2 0x131 JUMPI PUSH0 CALLDATALOAD PUSH1 0xE0 SHR DUP1 PUSH4 0x79E07242 GT PUSH2 0xA8 JUMPI DUP1 PUSH4 0x91D14854 GT PUSH2 0x6D JUMPI DUP1 PUSH4 0x91D14854 EQ PUSH2 0x39C JUMPI DUP1 PUSH4 0xA217FDDF EQ PUSH2 0x3BB JUMPI DUP1 PUSH4 0xAD3CB1CC EQ PUSH2 0x3CE JUMPI DUP1 PUSH4 0xD547741F EQ PUSH2 0x40B JUMPI DUP1 PUSH4 0xE63AB1E9 EQ PUSH2 0x42A JUMPI DUP1 PUSH4 0xF72C0D8B EQ PUSH2 0x45D JUMPI PUSH0 DUP1 REVERT JUMPDEST DUP1 PUSH4 0x79E07242 EQ PUSH2 0x2A7 JUMPI DUP1 PUSH4 0x7A1AC61E EQ PUSH2 0x2C6 JUMPI DUP1 PUSH4 0x7B0A47EE EQ PUSH2 0x2E5 JUMPI DUP1 PUSH4 0x7DA470EA EQ PUSH2 0x2FA JUMPI DUP1 PUSH4 0x80326082 EQ PUSH2 0x387 JUMPI PUSH0 DUP1 REVERT JUMPDEST DUP1 PUSH4 0x34AAB064 GT PUSH2 0xF9 JUMPI DUP1 PUSH4 0x34AAB064 EQ PUSH2 0x1F5 JUMPI DUP1 PUSH4 0x36568ABE EQ PUSH2 0x22C JUMPI DUP1 PUSH4 0x4F1EF286 EQ PUSH2 0x24B JUMPI DUP1 PUSH4 0x52D1902D EQ PUSH2 0x25E JUMPI DUP1 PUSH4 0x5C975ABB EQ PUSH2 0x272 JUMPI DUP1 PUSH4 0x70261222 EQ PUSH2 0x288 JUMPI PUSH0 DUP1 REVERT JUMPDEST DUP1 PUSH4 0x1FFC9A7 EQ PUSH2 0x135 JUMPI DUP1 PUSH4 0x13600214 EQ PUSH2 0x169 JUMPI DUP1 PUSH4 0x19CC96D9 EQ PUSH2 0x18A JUMPI DUP1 PUSH4 0x248A9CA3 EQ PUSH2 0x1A9 JUMPI DUP1 PUSH4 0x2F2FF15D EQ PUSH2 0x1D6 JUMPI JUMPDEST PUSH0 DUP1 REVERT JUMPDEST CALLVALUE DUP1 ISZERO PUSH2 0x140 JUMPI PUSH0 DUP1 REVERT JUMPDEST POP PUSH2 0x154 PUSH2 0x14F CALLDATASIZE PUSH1 0x4 PUSH2 0x109A JUMP JUMPDEST PUSH2 0x490 JUMP JUMPDEST PUSH1 0x40 MLOAD SWAP1 ISZERO ISZERO DUP2 MSTORE PUSH1 0x20 ADD JUMPDEST PUSH1 0x40 MLOAD DUP1 SWAP2 SUB SWAP1 RETURN JUMPDEST CALLVALUE DUP1 ISZERO PUSH2 0x174 JUMPI PUSH0 DUP1 REVERT JUMPDEST POP PUSH2 0x188 PUSH2 0x183 CALLDATASIZE PUSH1 0x4 PUSH2 0x10C1 JUMP JUMPDEST PUSH2 0x4C6 JUMP JUMPDEST STOP JUMPDEST CALLVALUE DUP1 ISZERO PUSH2 0x195 JUMPI PUSH0 DUP1 REVERT JUMPDEST POP PUSH2 0x188 PUSH2 0x1A4 CALLDATASIZE PUSH1 0x4 PUSH2 0x10D8 JUMP JUMPDEST PUSH2 0x758 JUMP JUMPDEST CALLVALUE DUP1 ISZERO PUSH2 0x1B4 JUMPI PUSH0 DUP1 REVERT JUMPDEST POP PUSH2 0x1C8 PUSH2 0x1C3 CALLDATASIZE PUSH1 0x4 PUSH2 0x10C1 JUMP JUMPDEST PUSH2 0x764 JUMP JUMPDEST PUSH1 0x40 MLOAD SWAP1 DUP2 MSTORE PUSH1 0x20 ADD PUSH2 0x160 JUMP JUMPDEST CALLVALUE DUP1 ISZERO PUSH2 0x1E1 JUMPI PUSH0 DUP1 REVERT JUMPDEST POP PUSH2 0x188 PUSH2 0x1F0 CALLDATASIZE PUSH1 0x4 PUSH2 0x1113 JUMP JUMPDEST PUSH2 0x784 JUMP JUMPDEST CALLVALUE DUP1 ISZERO PUSH2 0x200 JUMPI PUSH0 DUP1 REVERT JUMPDEST POP PUSH1 0x33 SLOAD PUSH2 0x214 SWAP1 PUSH1 0x1 PUSH1 0x1 PUSH1 0xA0 SHL SUB AND DUP2 JUMP JUMPDEST PUSH1 0x40 MLOAD PUSH1 0x1 PUSH1 0x1 PUSH1 0xA0 SHL SUB SWAP1 SWAP2 AND DUP2 MSTORE PUSH1 0x20 ADD PUSH2 0x160 JUMP JUMPDEST CALLVALUE DUP1 ISZERO PUSH2 0x237 JUMPI PUSH0 DUP1 REVERT JUMPDEST POP PUSH2 0x188 PUSH2 0x246 CALLDATASIZE PUSH1 0x4 PUSH2 0x1113 JUMP JUMPDEST PUSH2 0x7A6 JUMP JUMPDEST PUSH2 0x188 PUSH2 0x259 CALLDATASIZE PUSH1 0x4 PUSH2 0x1151 JUMP JUMPDEST PUSH2 0x7DE JUMP JUMPDEST CALLVALUE DUP1 ISZERO PUSH2 0x269 JUMPI PUSH0 DUP1 REVERT JUMPDEST POP PUSH2 0x1C8 PUSH2 0x7F9 JUMP JUMPDEST CALLVALUE DUP1 ISZERO PUSH2 0x27D JUMPI PUSH0 DUP1 REVERT JUMPDEST POP PUSH0 SLOAD PUSH1 0xFF AND PUSH2 0x154 JUMP JUMPDEST CALLVALUE DUP1 ISZERO PUSH2 0x293 JUMPI PUSH0 DUP1 REVERT JUMPDEST POP PUSH2 0x188 PUSH2 0x2A2 CALLDATASIZE PUSH1 0x4 PUSH2 0x10D8 JUMP JUMPDEST PUSH2 0x814 JUMP JUMPDEST CALLVALUE DUP1 ISZERO PUSH2 0x2B2 JUMPI PUSH0 DUP1 REVERT JUMPDEST POP PUSH2 0x188 PUSH2 0x2C1 CALLDATASIZE PUSH1 0x4 PUSH2 0x10C1 JUMP JUMPDEST PUSH2 0x93D JUMP JUMPDEST CALLVALUE DUP1 ISZERO PUSH2 0x2D1 JUMPI PUSH0 DUP1 REVERT JUMPDEST POP PUSH2 0x188 PUSH2 0x2E0 CALLDATASIZE PUSH1 0x4 PUSH2 0x120D JUMP JUMPDEST PUSH2 0x948 JUMP JUMPDEST CALLVALUE DUP1 ISZERO PUSH2 0x2F0 JUMPI PUSH0 DUP1 REVERT JUMPDEST POP PUSH2 0x1C8 PUSH1 0x34 SLOAD DUP2 JUMP JUMPDEST CALLVALUE DUP1 ISZERO PUSH2 0x305 JUMPI PUSH0 DUP1 REVERT JUMPDEST POP PUSH2 0x352 PUSH2 0x314 CALLDATASIZE PUSH1 0x4 PUSH2 0x10C1 JUMP JUMPDEST PUSH1 0x32 PUSH1 0x20 MSTORE PUSH0 SWAP1 DUP2 MSTORE PUSH1 0x40 SWAP1 KECCAK256 DUP1 SLOAD PUSH1 0x1 DUP3 ADD SLOAD PUSH1 0x2 DUP4 ADD SLOAD PUSH1 0x3 DUP5 ADD SLOAD PUSH1 0x4 DUP6 ADD SLOAD PUSH1 0x5 SWAP1 SWAP6 ADD SLOAD SWAP4 SWAP5 PUSH1 0x1 PUSH1 0x1 PUSH1 0xA0 SHL SUB SWAP1 SWAP4 AND SWAP4 SWAP2 SWAP3 SWAP1 SWAP2 DUP7 JUMP JUMPDEST PUSH1 0x40 DUP1 MLOAD SWAP7 DUP8 MSTORE PUSH1 0x1 PUSH1 0x1 PUSH1 0xA0 SHL SUB SWAP1 SWAP6 AND PUSH1 0x20 DUP8 ADD MSTORE SWAP4 DUP6 ADD SWAP3 SWAP1 SWAP3 MSTORE PUSH1 0x60 DUP5 ADD MSTORE PUSH1 0x80 DUP4 ADD MSTORE PUSH1 0xA0 DUP3 ADD MSTORE PUSH1 0xC0 ADD PUSH2 0x160 JUMP JUMPDEST CALLVALUE DUP1 ISZERO PUSH2 0x392 JUMPI PUSH0 DUP1 REVERT JUMPDEST POP PUSH2 0x1C8 PUSH1 0x35 SLOAD DUP2 JUMP JUMPDEST CALLVALUE DUP1 ISZERO PUSH2 0x3A7 JUMPI PUSH0 DUP1 REVERT JUMPDEST POP PUSH2 0x154 PUSH2 0x3B6 CALLDATASIZE PUSH1 0x4 PUSH2 0x1113 JUMP JUMPDEST PUSH2 0xA8C JUMP JUMPDEST CALLVALUE DUP1 ISZERO PUSH2 0x3C6 JUMPI PUSH0 DUP1 REVERT JUMPDEST POP PUSH2 0x1C8 PUSH0 DUP2 JUMP JUMPDEST CALLVALUE DUP1 ISZERO PUSH2 0x3D9 JUMPI PUSH0 DUP1 REVERT JUMPDEST POP PUSH2 0x3FE PUSH1 0x40 MLOAD DUP1 PUSH1 0x40 ADD PUSH1 0x40 MSTORE DUP1 PUSH1 0x5 DUP2 MSTORE PUSH1 0x20 ADD PUSH5 0x352E302E3 PUSH1 0xDC SHL DUP2 MSTORE POP DUP2 JUMP JUMPDEST PUSH1 0x40 MLOAD PUSH2 0x160 SWAP2 SWAP1 PUSH2 0x123D JUMP JUMPDEST CALLVALUE DUP1 ISZERO PUSH2 0x416 JUMPI PUSH0 DUP1 REVERT JUMPDEST POP PUSH2 0x188 PUSH2 0x425 CALLDATASIZE PUSH1 0x4 PUSH2 0x1113 JUMP JUMPDEST PUSH2 0xAC2 JUMP JUMPDEST CALLVALUE DUP1 ISZERO PUSH2 0x435 JUMPI PUSH0 DUP1 REVERT JUMPDEST POP PUSH2 0x1C8 PUSH32 0x65D7A28E3265B37A6474929F336521B332C1681B933F6CB9F3376673440D862A DUP2 JUMP JUMPDEST CALLVALUE DUP1 ISZERO PUSH2 0x468 JUMPI PUSH0 DUP1 REVERT JUMPDEST POP PUSH2 0x1C8 PUSH32 0x189AB7A9244DF0848122154315AF71FE140F3DB0FE014031783B0946B8C9D2E3 DUP2 JUMP JUMPDEST PUSH0 PUSH1 0x1 PUSH1 0x1 PUSH1 0xE0 SHL SUB NOT DUP3 AND PUSH4 0x7965DB0B PUSH1 0xE0 SHL EQ DUP1 PUSH2 0x4C0 JUMPI POP PUSH4 0x1FFC9A7 PUSH1 0xE0 SHL PUSH1 0x1 PUSH1 0x1 PUSH1 0xE0 SHL SUB NOT DUP4 AND EQ JUMPDEST SWAP3 SWAP2 POP POP JUMP JUMPDEST PUSH2 0x4CE PUSH2 0xADE JUMP JUMPDEST PUSH0 DUP2 DUP2 MSTORE PUSH1 0x32 PUSH1 0x20 MSTORE PUSH1 0x40 SWAP1 KECCAK256 PUSH1 0x1 ADD SLOAD PUSH1 0x1 PUSH1 0x1 PUSH1 0xA0 SHL SUB AND CALLER EQ PUSH2 0x53B JUMPI PUSH1 0x40 MLOAD PUSH3 0x461BCD PUSH1 0xE5 SHL DUP2 MSTORE PUSH1 0x20 PUSH1 0x4 DUP3 ADD MSTORE PUSH1 0x19 PUSH1 0x24 DUP3 ADD MSTORE PUSH32 0x4E6F7420746865206F776E6572206F6620746865206661726D00000000000000 PUSH1 0x44 DUP3 ADD MSTORE PUSH1 0x64 ADD JUMPDEST PUSH1 0x40 MLOAD DUP1 SWAP2 SUB SWAP1 REVERT JUMPDEST PUSH0 DUP2 DUP2 MSTORE PUSH1 0x32 PUSH1 0x20 MSTORE PUSH1 0x40 SWAP1 KECCAK256 PUSH1 0x3 ADD SLOAD ISZERO PUSH2 0x58E JUMPI PUSH1 0x40 MLOAD PUSH3 0x461BCD PUSH1 0xE5 SHL DUP2 MSTORE PUSH1 0x20 PUSH1 0x4 DUP3 ADD MSTORE PUSH1 0x12 PUSH1 0x24 DUP3 ADD MSTORE PUSH18 0x11985C9B48185B1C9958591E48195B991959 PUSH1 0x72 SHL PUSH1 0x44 DUP3 ADD MSTORE PUSH1 0x64 ADD PUSH2 0x532 JUMP JUMPDEST PUSH0 DUP2 DUP2 MSTORE PUSH1 0x32 PUSH1 0x20 MSTORE PUSH1 0x40 DUP2 KECCAK256 PUSH1 0x2 ADD SLOAD PUSH2 0x5A9 SWAP1 TIMESTAMP PUSH2 0x1286 JUMP JUMPDEST SWAP1 POP PUSH1 0x35 SLOAD DUP2 LT ISZERO PUSH2 0x5F6 JUMPI PUSH1 0x40 MLOAD PUSH3 0x461BCD PUSH1 0xE5 SHL DUP2 MSTORE PUSH1 0x20 PUSH1 0x4 DUP3 ADD MSTORE PUSH1 0x16 PUSH1 0x24 DUP3 ADD MSTORE PUSH22 0x11985C9B5A5B99C81C195C9A5BD9081B9BDD081B595D PUSH1 0x52 SHL PUSH1 0x44 DUP3 ADD MSTORE PUSH1 0x64 ADD PUSH2 0x532 JUMP JUMPDEST PUSH0 DUP3 DUP2 MSTORE PUSH1 0x32 PUSH1 0x20 MSTORE PUSH1 0x40 SWAP1 KECCAK256 TIMESTAMP PUSH1 0x3 DUP3 ADD SSTORE PUSH1 0x5 ADD SLOAD PUSH1 0x34 SLOAD PUSH2 0x61A SWAP1 DUP4 PUSH2 0x1299 JUMP JUMPDEST PUSH2 0x624 SWAP2 SWAP1 PUSH2 0x1299 JUMP JUMPDEST PUSH0 DUP4 DUP2 MSTORE PUSH1 0x32 PUSH1 0x20 MSTORE PUSH1 0x40 SWAP1 DUP2 SWAP1 KECCAK256 PUSH1 0x4 SWAP1 DUP2 ADD DUP4 SWAP1 SSTORE PUSH1 0x33 SLOAD SWAP2 MLOAD PUSH4 0xA9059CBB PUSH1 0xE0 SHL DUP2 MSTORE CALLER SWAP2 DUP2 ADD SWAP2 SWAP1 SWAP2 MSTORE PUSH1 0x24 DUP2 ADD SWAP3 SWAP1 SWAP3 MSTORE PUSH1 0x1 PUSH1 0x1 PUSH1 0xA0 SHL SUB AND SWAP1 PUSH4 0xA9059CBB SWAP1 PUSH1 0x44 ADD PUSH1 0x20 PUSH1 0x40 MLOAD DUP1 DUP4 SUB DUP2 PUSH0 DUP8 GAS CALL ISZERO DUP1 ISZERO PUSH2 0x689 JUMPI RETURNDATASIZE PUSH0 DUP1 RETURNDATACOPY RETURNDATASIZE PUSH0 REVERT JUMPDEST POP POP POP POP PUSH1 0x40 MLOAD RETURNDATASIZE PUSH1 0x1F NOT PUSH1 0x1F DUP3 ADD AND DUP3 ADD DUP1 PUSH1 0x40 MSTORE POP DUP2 ADD SWAP1 PUSH2 0x6AD SWAP2 SWAP1 PUSH2 0x12B0 JUMP JUMPDEST POP PUSH0 DUP3 DUP2 MSTORE PUSH1 0x32 PUSH1 0x20 SWAP1 DUP2 MSTORE PUSH1 0x40 SWAP2 DUP3 SWAP1 KECCAK256 PUSH1 0x2 DUP2 ADD SLOAD PUSH1 0x3 DUP3 ADD SLOAD PUSH1 0x4 SWAP1 SWAP3 ADD SLOAD DUP5 MLOAD DUP8 DUP2 MSTORE CALLER SWAP5 DUP2 ADD SWAP5 SWAP1 SWAP5 MSTORE SWAP4 DUP4 ADD MSTORE PUSH1 0x60 DUP3 ADD MSTORE PUSH1 0x80 DUP2 ADD SWAP2 SWAP1 SWAP2 MSTORE PUSH32 0x25322636D6C558107FB20092EA248D82EC953603CE99BDE991511FD53567C654 SWAP1 PUSH1 0xA0 ADD PUSH1 0x40 MLOAD DUP1 SWAP2 SUB SWAP1 LOG1 POP PUSH0 SWAP1 DUP2 MSTORE PUSH1 0x32 PUSH1 0x20 MSTORE PUSH1 0x40 DUP2 KECCAK256 DUP2 DUP2 SSTORE PUSH1 0x1 DUP2 ADD DUP1 SLOAD PUSH1 0x1 PUSH1 0x1 PUSH1 0xA0 SHL SUB NOT AND SWAP1 SSTORE PUSH1 0x2 DUP2 ADD DUP3 SWAP1 SSTORE PUSH1 0x3 DUP2 ADD DUP3 SWAP1 SSTORE PUSH1 0x4 DUP2 ADD DUP3 SWAP1 SSTORE PUSH1 0x5 ADD SSTORE JUMP JUMPDEST PUSH2 0x760 PUSH2 0xADE JUMP JUMPDEST POP POP JUMP JUMPDEST PUSH0 SWAP1 DUP2 MSTORE PUSH0 DUP1 MLOAD PUSH1 0x20 PUSH2 0x131D DUP4 CODECOPY DUP2 MLOAD SWAP2 MSTORE PUSH1 0x20 MSTORE PUSH1 0x40 SWAP1 KECCAK256 PUSH1 0x1 ADD SLOAD SWAP1 JUMP JUMPDEST PUSH2 0x78D DUP3 PUSH2 0x764 JUMP JUMPDEST PUSH2 0x796 DUP2 PUSH2 0xB25 JUMP JUMPDEST PUSH2 0x7A0 DUP4 DUP4 PUSH2 0xB2F JUMP JUMPDEST POP POP POP POP JUMP JUMPDEST PUSH1 0x1 PUSH1 0x1 PUSH1 0xA0 SHL SUB DUP2 AND CALLER EQ PUSH2 0x7CF JUMPI PUSH1 0x40 MLOAD PUSH4 0x334BD919 PUSH1 0xE1 SHL DUP2 MSTORE PUSH1 0x4 ADD PUSH1 0x40 MLOAD DUP1 SWAP2 SUB SWAP1 REVERT JUMPDEST PUSH2 0x7D9 DUP3 DUP3 PUSH2 0xBD0 JUMP JUMPDEST POP POP POP JUMP JUMPDEST PUSH2 0x7E6 PUSH2 0xC49 JUMP JUMPDEST PUSH2 0x7EF DUP3 PUSH2 0xCED JUMP JUMPDEST PUSH2 0x760 DUP3 DUP3 PUSH2 0xD17 JUMP JUMPDEST PUSH0 PUSH2 0x802 PUSH2 0xDD3 JUMP JUMPDEST POP PUSH0 DUP1 MLOAD PUSH1 0x20 PUSH2 0x12FD DUP4 CODECOPY DUP2 MLOAD SWAP2 MSTORE SWAP1 JUMP JUMPDEST PUSH2 0x81C PUSH2 0xADE JUMP JUMPDEST PUSH0 DUP3 DUP2 MSTORE PUSH1 0x32 PUSH1 0x20 MSTORE PUSH1 0x40 SWAP1 KECCAK256 SLOAD ISZERO PUSH2 0x86D JUMPI PUSH1 0x40 MLOAD PUSH3 0x461BCD PUSH1 0xE5 SHL DUP2 MSTORE PUSH1 0x20 PUSH1 0x4 DUP3 ADD MSTORE PUSH1 0x13 PUSH1 0x24 DUP3 ADD MSTORE PUSH19 0x4661726D20616C726561647920657869737473 PUSH1 0x68 SHL PUSH1 0x44 DUP3 ADD MSTORE PUSH1 0x64 ADD PUSH2 0x532 JUMP JUMPDEST PUSH1 0x40 DUP1 MLOAD PUSH1 0xC0 DUP2 ADD DUP3 MSTORE DUP4 DUP2 MSTORE CALLER PUSH1 0x20 DUP1 DUP4 ADD DUP3 DUP2 MSTORE TIMESTAMP DUP5 DUP7 ADD DUP2 DUP2 MSTORE PUSH0 PUSH1 0x60 DUP1 DUP9 ADD DUP3 DUP2 MSTORE PUSH1 0x80 DUP1 DUP11 ADD DUP5 DUP2 MSTORE PUSH1 0xA0 DUP1 DUP13 ADD DUP15 DUP2 MSTORE DUP16 DUP8 MSTORE PUSH1 0x32 DUP12 MSTORE DUP14 DUP8 KECCAK256 SWAP13 MLOAD DUP14 SSTORE SWAP9 MLOAD PUSH1 0x1 DUP14 ADD DUP1 SLOAD PUSH1 0x1 PUSH1 0x1 PUSH1 0xA0 SHL SUB NOT AND PUSH1 0x1 PUSH1 0x1 PUSH1 0xA0 SHL SUB SWAP1 SWAP3 AND SWAP2 SWAP1 SWAP2 OR SWAP1 SSTORE SWAP6 MLOAD PUSH1 0x2 DUP13 ADD SSTORE SWAP2 MLOAD PUSH1 0x3 DUP12 ADD SSTORE SWAP1 MLOAD PUSH1 0x4 DUP11 ADD SSTORE SWAP5 MLOAD PUSH1 0x5 SWAP1 SWAP9 ADD SWAP8 SWAP1 SWAP8 SSTORE DUP8 MLOAD DUP11 DUP2 MSTORE SWAP5 DUP6 ADD SWAP6 SWAP1 SWAP6 MSTORE SWAP6 DUP4 ADD MSTORE SWAP3 DUP2 ADD DUP3 SWAP1 MSTORE SWAP2 DUP3 ADD MSTORE PUSH32 0x25322636D6C558107FB20092EA248D82EC953603CE99BDE991511FD53567C654 SWAP2 ADD PUSH1 0x40 MLOAD DUP1 SWAP2 SUB SWAP1 LOG1 POP POP JUMP JUMPDEST PUSH2 0x945 PUSH2 0xADE JUMP JUMPDEST POP JUMP JUMPDEST PUSH32 0xF0C57E16840DF040F15088DC2F81FE391C3923BEC73E23A9662EFC9C229C6A00 DUP1 SLOAD PUSH1 0x1 PUSH1 0x40 SHL DUP2 DIV PUSH1 0xFF AND ISZERO SWAP1 PUSH8 0xFFFFFFFFFFFFFFFF AND PUSH0 DUP2 ISZERO DUP1 ISZERO PUSH2 0x98D JUMPI POP DUP3 JUMPDEST SWAP1 POP PUSH0 DUP3 PUSH8 0xFFFFFFFFFFFFFFFF AND PUSH1 0x1 EQ DUP1 ISZERO PUSH2 0x9A9 JUMPI POP ADDRESS EXTCODESIZE ISZERO JUMPDEST SWAP1 POP DUP2 ISZERO DUP1 ISZERO PUSH2 0x9B7 JUMPI POP DUP1 ISZERO JUMPDEST ISZERO PUSH2 0x9D5 JUMPI PUSH1 0x40 MLOAD PUSH4 0xF92EE8A9 PUSH1 0xE0 SHL DUP2 MSTORE PUSH1 0x4 ADD PUSH1 0x40 MLOAD DUP1 SWAP2 SUB SWAP1 REVERT JUMPDEST DUP5 SLOAD PUSH8 0xFFFFFFFFFFFFFFFF NOT AND PUSH1 0x1 OR DUP6 SSTORE DUP4 ISZERO PUSH2 0x9FF JUMPI DUP5 SLOAD PUSH1 0xFF PUSH1 0x40 SHL NOT AND PUSH1 0x1 PUSH1 0x40 SHL OR DUP6 SSTORE JUMPDEST PUSH2 0xA07 PUSH2 0xE1C JUMP JUMPDEST PUSH2 0xA0F PUSH2 0xE24 JUMP JUMPDEST PUSH2 0xA17 PUSH2 0xE1C JUMP JUMPDEST PUSH1 0x33 DUP1 SLOAD PUSH1 0x1 PUSH1 0x1 PUSH1 0xA0 SHL SUB NOT AND PUSH1 0x1 PUSH1 0x1 PUSH1 0xA0 SHL SUB DUP11 AND OR SWAP1 SSTORE PUSH1 0x34 DUP8 SWAP1 SSTORE PUSH1 0x35 DUP7 SWAP1 SSTORE DUP4 ISZERO PUSH2 0xA82 JUMPI DUP5 SLOAD PUSH1 0xFF PUSH1 0x40 SHL NOT AND DUP6 SSTORE PUSH1 0x40 MLOAD PUSH1 0x1 DUP2 MSTORE PUSH32 0xC7F505B2F371AE2175EE4913F4499E1F2633A7B5936321EED1CDAEB6115181D2 SWAP1 PUSH1 0x20 ADD PUSH1 0x40 MLOAD DUP1 SWAP2 SUB SWAP1 LOG1 JUMPDEST POP POP POP POP POP POP POP POP JUMP JUMPDEST PUSH0 SWAP2 DUP3 MSTORE PUSH0 DUP1 MLOAD PUSH1 0x20 PUSH2 0x131D DUP4 CODECOPY DUP2 MLOAD SWAP2 MSTORE PUSH1 0x20 SWAP1 DUP2 MSTORE PUSH1 0x40 DUP1 DUP5 KECCAK256 PUSH1 0x1 PUSH1 0x1 PUSH1 0xA0 SHL SUB SWAP4 SWAP1 SWAP4 AND DUP5 MSTORE SWAP2 SWAP1 MSTORE SWAP1 KECCAK256 SLOAD PUSH1 0xFF AND SWAP1 JUMP JUMPDEST PUSH2 0xACB DUP3 PUSH2 0x764 JUMP JUMPDEST PUSH2 0xAD4 DUP2 PUSH2 0xB25 JUMP JUMPDEST PUSH2 0x7A0 DUP4 DUP4 PUSH2 0xBD0 JUMP JUMPDEST PUSH0 SLOAD PUSH1 0xFF AND ISZERO PUSH2 0xB23 JUMPI PUSH1 0x40 MLOAD PUSH3 0x461BCD PUSH1 0xE5 SHL DUP2 MSTORE PUSH1 0x20 PUSH1 0x4 DUP3 ADD MSTORE PUSH1 0x10 PUSH1 0x24 DUP3 ADD MSTORE PUSH16 0x14185D5CD8589B194E881C185D5CD959 PUSH1 0x82 SHL PUSH1 0x44 DUP3 ADD MSTORE PUSH1 0x64 ADD PUSH2 0x532 JUMP JUMPDEST JUMP JUMPDEST PUSH2 0x945 DUP2 CALLER PUSH2 0xE34 JUMP JUMPDEST PUSH0 PUSH0 DUP1 MLOAD PUSH1 0x20 PUSH2 0x131D DUP4 CODECOPY DUP2 MLOAD SWAP2 MSTORE PUSH2 0xB48 DUP5 DUP5 PUSH2 0xA8C JUMP JUMPDEST PUSH2 0xBC7 JUMPI PUSH0 DUP5 DUP2 MSTORE PUSH1 0x20 DUP3 DUP2 MSTORE PUSH1 0x40 DUP1 DUP4 KECCAK256 PUSH1 0x1 PUSH1 0x1 PUSH1 0xA0 SHL SUB DUP8 AND DUP5 MSTORE SWAP1 SWAP2 MSTORE SWAP1 KECCAK256 DUP1 SLOAD PUSH1 0xFF NOT AND PUSH1 0x1 OR SWAP1 SSTORE PUSH2 0xB7D CALLER SWAP1 JUMP JUMPDEST PUSH1 0x1 PUSH1 0x1 PUSH1 0xA0 SHL SUB AND DUP4 PUSH1 0x1 PUSH1 0x1 PUSH1 0xA0 SHL SUB AND DUP6 PUSH32 0x2F8788117E7EFF1D82E926EC794901D17C78024A50270940304540A733656F0D PUSH1 0x40 MLOAD PUSH1 0x40 MLOAD DUP1 SWAP2 SUB SWAP1 LOG4 PUSH1 0x1 SWAP2 POP POP PUSH2 0x4C0 JUMP JUMPDEST PUSH0 SWAP2 POP POP PUSH2 0x4C0 JUMP JUMPDEST PUSH0 PUSH0 DUP1 MLOAD PUSH1 0x20 PUSH2 0x131D DUP4 CODECOPY DUP2 MLOAD SWAP2 MSTORE PUSH2 0xBE9 DUP5 DUP5 PUSH2 0xA8C JUMP JUMPDEST ISZERO PUSH2 0xBC7 JUMPI PUSH0 DUP5 DUP2 MSTORE PUSH1 0x20 DUP3 DUP2 MSTORE PUSH1 0x40 DUP1 DUP4 KECCAK256 PUSH1 0x1 PUSH1 0x1 PUSH1 0xA0 SHL SUB DUP8 AND DUP1 DUP6 MSTORE SWAP3 MSTORE DUP1 DUP4 KECCAK256 DUP1 SLOAD PUSH1 0xFF NOT AND SWAP1 SSTORE MLOAD CALLER SWAP3 DUP8 SWAP2 PUSH32 0xF6391F5C32D9C69D2A47EA670B442974B53935D1EDC7FD64EB21E047A839171B SWAP2 SWAP1 LOG4 PUSH1 0x1 SWAP2 POP POP PUSH2 0x4C0 JUMP JUMPDEST ADDRESS PUSH1 0x1 PUSH1 0x1 PUSH1 0xA0 SHL SUB PUSH32 0x0 AND EQ DUP1 PUSH2 0xCCF JUMPI POP PUSH32 0x0 PUSH1 0x1 PUSH1 0x1 PUSH1 0xA0 SHL SUB AND PUSH2 0xCC3 PUSH0 DUP1 MLOAD PUSH1 0x20 PUSH2 0x12FD DUP4 CODECOPY DUP2 MLOAD SWAP2 MSTORE SLOAD PUSH1 0x1 PUSH1 0x1 PUSH1 0xA0 SHL SUB AND SWAP1 JUMP JUMPDEST PUSH1 0x1 PUSH1 0x1 PUSH1 0xA0 SHL SUB AND EQ ISZERO JUMPDEST ISZERO PUSH2 0xB23 JUMPI PUSH1 0x40 MLOAD PUSH4 0x703E46DD PUSH1 0xE1 SHL DUP2 MSTORE PUSH1 0x4 ADD PUSH1 0x40 MLOAD DUP1 SWAP2 SUB SWAP1 REVERT JUMPDEST PUSH32 0x189AB7A9244DF0848122154315AF71FE140F3DB0FE014031783B0946B8C9D2E3 PUSH2 0x760 DUP2 PUSH2 0xB25 JUMP JUMPDEST DUP2 PUSH1 0x1 PUSH1 0x1 PUSH1 0xA0 SHL SUB AND PUSH4 0x52D1902D PUSH1 0x40 MLOAD DUP2 PUSH4 0xFFFFFFFF AND PUSH1 0xE0 SHL DUP2 MSTORE PUSH1 0x4 ADD PUSH1 0x20 PUSH1 0x40 MLOAD DUP1 DUP4 SUB DUP2 DUP7 GAS STATICCALL SWAP3 POP POP POP DUP1 ISZERO PUSH2 0xD71 JUMPI POP PUSH1 0x40 DUP1 MLOAD PUSH1 0x1F RETURNDATASIZE SWAP1 DUP2 ADD PUSH1 0x1F NOT AND DUP3 ADD SWAP1 SWAP3 MSTORE PUSH2 0xD6E SWAP2 DUP2 ADD SWAP1 PUSH2 0x12CF JUMP JUMPDEST PUSH1 0x1 JUMPDEST PUSH2 0xD99 JUMPI PUSH1 0x40 MLOAD PUSH4 0x4C9C8CE3 PUSH1 0xE0 SHL DUP2 MSTORE PUSH1 0x1 PUSH1 0x1 PUSH1 0xA0 SHL SUB DUP4 AND PUSH1 0x4 DUP3 ADD MSTORE PUSH1 0x24 ADD PUSH2 0x532 JUMP JUMPDEST PUSH0 DUP1 MLOAD PUSH1 0x20 PUSH2 0x12FD DUP4 CODECOPY DUP2 MLOAD SWAP2 MSTORE DUP2 EQ PUSH2 0xDC9 JUMPI PUSH1 0x40 MLOAD PUSH4 0x2A875269 PUSH1 0xE2 SHL DUP2 MSTORE PUSH1 0x4 DUP2 ADD DUP3 SWAP1 MSTORE PUSH1 0x24 ADD PUSH2 0x532 JUMP JUMPDEST PUSH2 0x7D9 DUP4 DUP4 PUSH2 0xE6D JUMP JUMPDEST ADDRESS PUSH1 0x1 PUSH1 0x1 PUSH1 0xA0 SHL SUB PUSH32 0x0 AND EQ PUSH2 0xB23 JUMPI PUSH1 0x40 MLOAD PUSH4 0x703E46DD PUSH1 0xE1 SHL DUP2 MSTORE PUSH1 0x4 ADD PUSH1 0x40 MLOAD DUP1 SWAP2 SUB SWAP1 REVERT JUMPDEST PUSH2 0xB23 PUSH2 0xEC2 JUMP JUMPDEST PUSH2 0xE2C PUSH2 0xEC2 JUMP JUMPDEST PUSH2 0xB23 PUSH2 0xF0B JUMP JUMPDEST PUSH2 0xE3E DUP3 DUP3 PUSH2 0xA8C JUMP JUMPDEST PUSH2 0x760 JUMPI PUSH1 0x40 MLOAD PUSH4 0xE2517D3F PUSH1 0xE0 SHL DUP2 MSTORE PUSH1 0x1 PUSH1 0x1 PUSH1 0xA0 SHL SUB DUP3 AND PUSH1 0x4 DUP3 ADD MSTORE PUSH1 0x24 DUP2 ADD DUP4 SWAP1 MSTORE PUSH1 0x44 ADD PUSH2 0x532 JUMP JUMPDEST PUSH2 0xE76 DUP3 PUSH2 0xF1E JUMP JUMPDEST PUSH1 0x40 MLOAD PUSH1 0x1 PUSH1 0x1 PUSH1 0xA0 SHL SUB DUP4 AND SWAP1 PUSH32 0xBC7CD75A20EE27FD9ADEBAB32041F755214DBC6BFFA90CC0225B39DA2E5C2D3B SWAP1 PUSH0 SWAP1 LOG2 DUP1 MLOAD ISZERO PUSH2 0xEBA JUMPI PUSH2 0x7D9 DUP3 DUP3 PUSH2 0xF81 JUMP JUMPDEST PUSH2 0x760 PUSH2 0xFF3 JUMP JUMPDEST PUSH32 0xF0C57E16840DF040F15088DC2F81FE391C3923BEC73E23A9662EFC9C229C6A00 SLOAD PUSH1 0x1 PUSH1 0x40 SHL SWAP1 DIV PUSH1 0xFF AND PUSH2 0xB23 JUMPI PUSH1 0x40 MLOAD PUSH4 0x1AFCD79F PUSH1 0xE3 SHL DUP2 MSTORE PUSH1 0x4 ADD PUSH1 0x40 MLOAD DUP1 SWAP2 SUB SWAP1 REVERT JUMPDEST PUSH2 0xF13 PUSH2 0xEC2 JUMP JUMPDEST PUSH0 DUP1 SLOAD PUSH1 0xFF NOT AND SWAP1 SSTORE JUMP JUMPDEST DUP1 PUSH1 0x1 PUSH1 0x1 PUSH1 0xA0 SHL SUB AND EXTCODESIZE PUSH0 SUB PUSH2 0xF53 JUMPI PUSH1 0x40 MLOAD PUSH4 0x4C9C8CE3 PUSH1 0xE0 SHL DUP2 MSTORE PUSH1 0x1 PUSH1 0x1 PUSH1 0xA0 SHL SUB DUP3 AND PUSH1 0x4 DUP3 ADD MSTORE PUSH1 0x24 ADD PUSH2 0x532 JUMP JUMPDEST PUSH0 DUP1 MLOAD PUSH1 0x20 PUSH2 0x12FD DUP4 CODECOPY DUP2 MLOAD SWAP2 MSTORE DUP1 SLOAD PUSH1 0x1 PUSH1 0x1 PUSH1 0xA0 SHL SUB NOT AND PUSH1 0x1 PUSH1 0x1 PUSH1 0xA0 SHL SUB SWAP3 SWAP1 SWAP3 AND SWAP2 SWAP1 SWAP2 OR SWAP1 SSTORE JUMP JUMPDEST PUSH1 0x60 PUSH0 DUP1 DUP5 PUSH1 0x1 PUSH1 0x1 PUSH1 0xA0 SHL SUB AND DUP5 PUSH1 0x40 MLOAD PUSH2 0xF9D SWAP2 SWAP1 PUSH2 0x12E6 JUMP JUMPDEST PUSH0 PUSH1 0x40 MLOAD DUP1 DUP4 SUB DUP2 DUP6 GAS DELEGATECALL SWAP2 POP POP RETURNDATASIZE DUP1 PUSH0 DUP2 EQ PUSH2 0xFD5 JUMPI PUSH1 0x40 MLOAD SWAP2 POP PUSH1 0x1F NOT PUSH1 0x3F RETURNDATASIZE ADD AND DUP3 ADD PUSH1 0x40 MSTORE RETURNDATASIZE DUP3 MSTORE RETURNDATASIZE PUSH0 PUSH1 0x20 DUP5 ADD RETURNDATACOPY PUSH2 0xFDA JUMP JUMPDEST PUSH1 0x60 SWAP2 POP JUMPDEST POP SWAP2 POP SWAP2 POP PUSH2 0xFEA DUP6 DUP4 DUP4 PUSH2 0x1012 JUMP JUMPDEST SWAP6 SWAP5 POP POP POP POP POP JUMP JUMPDEST CALLVALUE ISZERO PUSH2 0xB23 JUMPI PUSH1 0x40 MLOAD PUSH4 0xB398979F PUSH1 0xE0 SHL DUP2 MSTORE PUSH1 0x4 ADD PUSH1 0x40 MLOAD DUP1 SWAP2 SUB SWAP1 REVERT JUMPDEST PUSH1 0x60 DUP3 PUSH2 0x1027 JUMPI PUSH2 0x1022 DUP3 PUSH2 0x1071 JUMP JUMPDEST PUSH2 0x106A JUMP JUMPDEST DUP2 MLOAD ISZERO DUP1 ISZERO PUSH2 0x103E JUMPI POP PUSH1 0x1 PUSH1 0x1 PUSH1 0xA0 SHL SUB DUP5 AND EXTCODESIZE ISZERO JUMPDEST ISZERO PUSH2 0x1067 JUMPI PUSH1 0x40 MLOAD PUSH4 0x9996B315 PUSH1 0xE0 SHL DUP2 MSTORE PUSH1 0x1 PUSH1 0x1 PUSH1 0xA0 SHL SUB DUP6 AND PUSH1 0x4 DUP3 ADD MSTORE PUSH1 0x24 ADD PUSH2 0x532 JUMP JUMPDEST POP DUP1 JUMPDEST SWAP4 SWAP3 POP POP POP JUMP JUMPDEST DUP1 MLOAD ISZERO PUSH2 0x1081 JUMPI DUP1 MLOAD DUP1 DUP3 PUSH1 0x20 ADD REVERT JUMPDEST PUSH1 0x40 MLOAD PUSH4 0xA12F521 PUSH1 0xE1 SHL DUP2 MSTORE PUSH1 0x4 ADD PUSH1 0x40 MLOAD DUP1 SWAP2 SUB SWAP1 REVERT JUMPDEST PUSH0 PUSH1 0x20 DUP3 DUP5 SUB SLT ISZERO PUSH2 0x10AA JUMPI PUSH0 DUP1 REVERT JUMPDEST DUP2 CALLDATALOAD PUSH1 0x1 PUSH1 0x1 PUSH1 0xE0 SHL SUB NOT DUP2 AND DUP2 EQ PUSH2 0x106A JUMPI PUSH0 DUP1 REVERT JUMPDEST PUSH0 PUSH1 0x20 DUP3 DUP5 SUB SLT ISZERO PUSH2 0x10D1 JUMPI PUSH0 DUP1 REVERT JUMPDEST POP CALLDATALOAD SWAP2 SWAP1 POP JUMP JUMPDEST PUSH0 DUP1 PUSH1 0x40 DUP4 DUP6 SUB SLT ISZERO PUSH2 0x10E9 JUMPI PUSH0 DUP1 REVERT JUMPDEST POP POP DUP1 CALLDATALOAD SWAP3 PUSH1 0x20 SWAP1 SWAP2 ADD CALLDATALOAD SWAP2 POP JUMP JUMPDEST DUP1 CALLDATALOAD PUSH1 0x1 PUSH1 0x1 PUSH1 0xA0 SHL SUB DUP2 AND DUP2 EQ PUSH2 0x110E JUMPI PUSH0 DUP1 REVERT JUMPDEST SWAP2 SWAP1 POP JUMP JUMPDEST PUSH0 DUP1 PUSH1 0x40 DUP4 DUP6 SUB SLT ISZERO PUSH2 0x1124 JUMPI PUSH0 DUP1 REVERT JUMPDEST DUP3 CALLDATALOAD SWAP2 POP PUSH2 0x1134 PUSH1 0x20 DUP5 ADD PUSH2 0x10F8 JUMP JUMPDEST SWAP1 POP SWAP3 POP SWAP3 SWAP1 POP JUMP JUMPDEST PUSH4 0x4E487B71 PUSH1 0xE0 SHL PUSH0 MSTORE PUSH1 0x41 PUSH1 0x4 MSTORE PUSH1 0x24 PUSH0 REVERT JUMPDEST PUSH0 DUP1 PUSH1 0x40 DUP4 DUP6 SUB SLT ISZERO PUSH2 0x1162 JUMPI PUSH0 DUP1 REVERT JUMPDEST PUSH2 0x116B DUP4 PUSH2 0x10F8 JUMP JUMPDEST SWAP2 POP PUSH1 0x20 DUP4 ADD CALLDATALOAD PUSH8 0xFFFFFFFFFFFFFFFF DUP1 DUP3 GT ISZERO PUSH2 0x1187 JUMPI PUSH0 DUP1 REVERT JUMPDEST DUP2 DUP6 ADD SWAP2 POP DUP6 PUSH1 0x1F DUP4 ADD SLT PUSH2 0x119A JUMPI PUSH0 DUP1 REVERT JUMPDEST DUP2 CALLDATALOAD DUP2 DUP2 GT ISZERO PUSH2 0x11AC JUMPI PUSH2 0x11AC PUSH2 0x113D JUMP JUMPDEST PUSH1 0x40 MLOAD PUSH1 0x1F DUP3 ADD PUSH1 0x1F NOT SWAP1 DUP2 AND PUSH1 0x3F ADD AND DUP2 ADD SWAP1 DUP4 DUP3 GT DUP2 DUP4 LT OR ISZERO PUSH2 0x11D4 JUMPI PUSH2 0x11D4 PUSH2 0x113D JUMP JUMPDEST DUP2 PUSH1 0x40 MSTORE DUP3 DUP2 MSTORE DUP9 PUSH1 0x20 DUP5 DUP8 ADD ADD GT ISZERO PUSH2 0x11EC JUMPI PUSH0 DUP1 REVERT JUMPDEST DUP3 PUSH1 0x20 DUP7 ADD PUSH1 0x20 DUP4 ADD CALLDATACOPY PUSH0 PUSH1 0x20 DUP5 DUP4 ADD ADD MSTORE DUP1 SWAP6 POP POP POP POP POP POP SWAP3 POP SWAP3 SWAP1 POP JUMP JUMPDEST PUSH0 DUP1 PUSH0 PUSH1 0x60 DUP5 DUP7 SUB SLT ISZERO PUSH2 0x121F JUMPI PUSH0 DUP1 REVERT JUMPDEST PUSH2 0x1228 DUP5 PUSH2 0x10F8 JUMP JUMPDEST SWAP6 PUSH1 0x20 DUP6 ADD CALLDATALOAD SWAP6 POP PUSH1 0x40 SWAP1 SWAP5 ADD CALLDATALOAD SWAP4 SWAP3 POP POP POP JUMP JUMPDEST PUSH1 0x20 DUP2 MSTORE PUSH0 DUP3 MLOAD DUP1 PUSH1 0x20 DUP5 ADD MSTORE DUP1 PUSH1 0x20 DUP6 ADD PUSH1 0x40 DUP6 ADD MCOPY PUSH0 PUSH1 0x40 DUP3 DUP6 ADD ADD MSTORE PUSH1 0x40 PUSH1 0x1F NOT PUSH1 0x1F DUP4 ADD AND DUP5 ADD ADD SWAP2 POP POP SWAP3 SWAP2 POP POP JUMP JUMPDEST PUSH4 0x4E487B71 PUSH1 0xE0 SHL PUSH0 MSTORE PUSH1 0x11 PUSH1 0x4 MSTORE PUSH1 0x24 PUSH0 REVERT JUMPDEST DUP2 DUP2 SUB DUP2 DUP2 GT ISZERO PUSH2 0x4C0 JUMPI PUSH2 0x4C0 PUSH2 0x1272 JUMP JUMPDEST DUP1 DUP3 MUL DUP2 ISZERO DUP3 DUP3 DIV DUP5 EQ OR PUSH2 0x4C0 JUMPI PUSH2 0x4C0 PUSH2 0x1272 JUMP JUMPDEST PUSH0 PUSH1 0x20 DUP3 DUP5 SUB SLT ISZERO PUSH2 0x12C0 JUMPI PUSH0 DUP1 REVERT JUMPDEST DUP2 MLOAD DUP1 ISZERO ISZERO DUP2 EQ PUSH2 0x106A JUMPI PUSH0 DUP1 REVERT JUMPDEST PUSH0 PUSH1 0x20 DUP3 DUP5 SUB SLT ISZERO PUSH2 0x12DF JUMPI PUSH0 DUP1 REVERT JUMPDEST POP MLOAD SWAP2 SWAP1 POP JUMP JUMPDEST PUSH0 DUP3 MLOAD DUP1 PUSH1 0x20 DUP6 ADD DUP5 MCOPY PUSH0 SWAP3 ADD SWAP2 DUP3 MSTORE POP SWAP2 SWAP1 POP JUMP INVALID CALLDATASIZE ADDMOD SWAP5 LOG1 EXTCODESIZE LOG1 LOG3 0x21 MOD PUSH8 0xC828492DB98DCA3E KECCAK256 PUSH23 0xCC3735A920A3CA505D382BBC02DD7BC7DEC4DCEEDDA775 0xE5 DUP14 0xD5 COINBASE 0xE0 DUP11 GT PUSH13 0x6C53815C0BD028192F7B626800 LOG2 PUSH5 0x6970667358 0x22 SLT KECCAK256 BYTE PUSH18 0xC407248223E808C01DAF09C108CD9B41BA5F 0x23 REVERT DELEGATECALL TSTORE 0xF8 0xE8 BLOCKHASH SWAP6 0x2B PUSH0 SHR SLOAD PUSH5 0x736F6C6343 STOP ADDMOD NOT STOP CALLER "
				},
				"gasEstimates": {
					"creation": {
						"codeDepositCost": "995600",
						"executionCost": "infinite",
						"totalCost": "infinite"
					},
					"external": {
						"DEFAULT_ADMIN_ROLE()": "237",
						"PAUSER_ROLE()": "304",
						"UPGRADER_ROLE()": "326",
						"UPGRADE_INTERFACE_VERSION()": "infinite",
						"cqtToken()": "2359",
						"endFarming(uint256)": "infinite",
						"farms(uint256)": "13231",
						"getRoleAdmin(bytes32)": "infinite",
						"grantRole(bytes32,address)": "infinite",
						"hasRole(bytes32,address)": "infinite",
						"initialize(address,uint256,uint256)": "infinite",
						"minimumFarmingPeriod()": "2405",
						"paused()": "2402",
						"proxiableUUID()": "infinite",
						"purchaseFarm(uint256,uint256)": "2563",
						"renounceRole(bytes32,address)": "29138",
						"revokeRole(bytes32,address)": "infinite",
						"rewardRate()": "2361",
						"startFarming(uint256,uint256)": "107750",
						"supportsInterface(bytes4)": "447",
						"upgradeFarm(uint256)": "2495",
						"upgradeToAndCall(address,bytes)": "infinite"
					},
					"internal": {
						"_authorizeUpgrade(address)": "infinite"
					}
				},
				"methodIdentifiers": {
					"DEFAULT_ADMIN_ROLE()": "a217fddf",
					"PAUSER_ROLE()": "e63ab1e9",
					"UPGRADER_ROLE()": "f72c0d8b",
					"UPGRADE_INTERFACE_VERSION()": "ad3cb1cc",
					"cqtToken()": "34aab064",
					"endFarming(uint256)": "13600214",
					"farms(uint256)": "7da470ea",
					"getRoleAdmin(bytes32)": "248a9ca3",
					"grantRole(bytes32,address)": "2f2ff15d",
					"hasRole(bytes32,address)": "91d14854",
					"initialize(address,uint256,uint256)": "7a1ac61e",
					"minimumFarmingPeriod()": "80326082",
					"paused()": "5c975abb",
					"proxiableUUID()": "52d1902d",
					"purchaseFarm(uint256,uint256)": "19cc96d9",
					"renounceRole(bytes32,address)": "36568abe",
					"revokeRole(bytes32,address)": "d547741f",
					"rewardRate()": "7b0a47ee",
					"startFarming(uint256,uint256)": "70261222",
					"supportsInterface(bytes4)": "01ffc9a7",
					"upgradeFarm(uint256)": "79e07242",
					"upgradeToAndCall(address,bytes)": "4f1ef286"
				}
			},
			"storageLayout": {
				"storage": [
					{
						"astId": 820,
						"contract": "src/contract/CryptoQuestShardsOfGenesisFarming.sol:CryptoQuestShardsOfGenesisFarming",
						"label": "_paused",
						"offset": 0,
						"slot": "0",
						"type": "t_bool"
					},
					{
						"astId": 925,
						"contract": "src/contract/CryptoQuestShardsOfGenesisFarming.sol:CryptoQuestShardsOfGenesisFarming",
						"label": "__gap",
						"offset": 0,
						"slot": "1",
						"type": "t_array(t_uint256)49_storage"
					},
					{
						"astId": 1914,
						"contract": "src/contract/CryptoQuestShardsOfGenesisFarming.sol:CryptoQuestShardsOfGenesisFarming",
						"label": "farms",
						"offset": 0,
						"slot": "50",
						"type": "t_mapping(t_uint256,t_struct(Farm)1909_storage)"
					},
					{
						"astId": 1916,
						"contract": "src/contract/CryptoQuestShardsOfGenesisFarming.sol:CryptoQuestShardsOfGenesisFarming",
						"label": "cqtToken",
						"offset": 0,
						"slot": "51",
						"type": "t_address"
					},
					{
						"astId": 1918,
						"contract": "src/contract/CryptoQuestShardsOfGenesisFarming.sol:CryptoQuestShardsOfGenesisFarming",
						"label": "rewardRate",
						"offset": 0,
						"slot": "52",
						"type": "t_uint256"
					},
					{
						"astId": 1920,
						"contract": "src/contract/CryptoQuestShardsOfGenesisFarming.sol:CryptoQuestShardsOfGenesisFarming",
						"label": "minimumFarmingPeriod",
						"offset": 0,
						"slot": "53",
						"type": "t_uint256"
					}
				],
				"types": {
					"t_address": {
						"encoding": "inplace",
						"label": "address",
						"numberOfBytes": "20"
					},
					"t_array(t_uint256)49_storage": {
						"base": "t_uint256",
						"encoding": "inplace",
						"label": "uint256[49]",
						"numberOfBytes": "1568"
					},
					"t_bool": {
						"encoding": "inplace",
						"label": "bool",
						"numberOfBytes": "1"
					},
					"t_mapping(t_uint256,t_struct(Farm)1909_storage)": {
						"encoding": "mapping",
						"key": "t_uint256",
						"label": "mapping(uint256 => struct CryptoQuestShardsOfGenesisFarming.Farm)",
						"numberOfBytes": "32",
						"value": "t_struct(Farm)1909_storage"
					},
					"t_struct(Farm)1909_storage": {
						"encoding": "inplace",
						"label": "struct CryptoQuestShardsOfGenesisFarming.Farm",
						"members": [
							{
								"astId": 1898,
								"contract": "src/contract/CryptoQuestShardsOfGenesisFarming.sol:CryptoQuestShardsOfGenesisFarming",
								"label": "farmId",
								"offset": 0,
								"slot": "0",
								"type": "t_uint256"
							},
							{
								"astId": 1900,
								"contract": "src/contract/CryptoQuestShardsOfGenesisFarming.sol:CryptoQuestShardsOfGenesisFarming",
								"label": "owner",
								"offset": 0,
								"slot": "1",
								"type": "t_address"
							},
							{
								"astId": 1902,
								"contract": "src/contract/CryptoQuestShardsOfGenesisFarming.sol:CryptoQuestShardsOfGenesisFarming",
								"label": "startTime",
								"offset": 0,
								"slot": "2",
								"type": "t_uint256"
							},
							{
								"astId": 1904,
								"contract": "src/contract/CryptoQuestShardsOfGenesisFarming.sol:CryptoQuestShardsOfGenesisFarming",
								"label": "endTime",
								"offset": 0,
								"slot": "3",
								"type": "t_uint256"
							},
							{
								"astId": 1906,
								"contract": "src/contract/CryptoQuestShardsOfGenesisFarming.sol:CryptoQuestShardsOfGenesisFarming",
								"label": "reward",
								"offset": 0,
								"slot": "4",
								"type": "t_uint256"
							},
							{
								"astId": 1908,
								"contract": "src/contract/CryptoQuestShardsOfGenesisFarming.sol:CryptoQuestShardsOfGenesisFarming",
								"label": "cropType",
								"offset": 0,
								"slot": "5",
								"type": "t_uint256"
							}
						],
						"numberOfBytes": "192"
					},
					"t_uint256": {
						"encoding": "inplace",
						"label": "uint256",
						"numberOfBytes": "32"
					}
				}
			},
			"userdoc": {
				"kind": "user",
				"methods": {},
				"version": 1
			}
		}
	}
}