{
	"src/contract/CryptoQuestTheShardsOfGenesisWallet.sol": {
		"CryptoQuestTheShardsOfGenesisWallet": {
			"abi": [
				{
					"inputs": [],
					"stateMutability": "nonpayable",
					"type": "constructor"
				},
				{
					"inputs": [],
					"name": "AccessControlBadConfirmation",
					"type": "error"
				},
				{
					"inputs": [
						{
							"internalType": "address",
							"name": "account",
							"type": "address"
						},
						{
							"internalType": "bytes32",
							"name": "neededRole",
							"type": "bytes32"
						}
					],
					"name": "AccessControlUnauthorizedAccount",
					"type": "error"
				},
				{
					"inputs": [
						{
							"internalType": "address",
							"name": "target",
							"type": "address"
						}
					],
					"name": "AddressEmptyCode",
					"type": "error"
				},
				{
					"inputs": [
						{
							"internalType": "address",
							"name": "implementation",
							"type": "address"
						}
					],
					"name": "ERC1967InvalidImplementation",
					"type": "error"
				},
				{
					"inputs": [],
					"name": "ERC1967NonPayable",
					"type": "error"
				},
				{
					"inputs": [],
					"name": "FailedInnerCall",
					"type": "error"
				},
				{
					"inputs": [],
					"name": "InvalidInitialization",
					"type": "error"
				},
				{
					"inputs": [],
					"name": "NotInitializing",
					"type": "error"
				},
				{
					"inputs": [],
					"name": "UUPSUnauthorizedCallContext",
					"type": "error"
				},
				{
					"inputs": [
						{
							"internalType": "bytes32",
							"name": "slot",
							"type": "bytes32"
						}
					],
					"name": "UUPSUnsupportedProxiableUUID",
					"type": "error"
				},
				{
					"anonymous": false,
					"inputs": [
						{
							"indexed": false,
							"internalType": "uint64",
							"name": "version",
							"type": "uint64"
						}
					],
					"name": "Initialized",
					"type": "event"
				},
				{
					"anonymous": false,
					"inputs": [
						{
							"indexed": false,
							"internalType": "address",
							"name": "account",
							"type": "address"
						}
					],
					"name": "Paused",
					"type": "event"
				},
				{
					"anonymous": false,
					"inputs": [
						{
							"indexed": true,
							"internalType": "bytes32",
							"name": "role",
							"type": "bytes32"
						},
						{
							"indexed": true,
							"internalType": "bytes32",
							"name": "previousAdminRole",
							"type": "bytes32"
						},
						{
							"indexed": true,
							"internalType": "bytes32",
							"name": "newAdminRole",
							"type": "bytes32"
						}
					],
					"name": "RoleAdminChanged",
					"type": "event"
				},
				{
					"anonymous": false,
					"inputs": [
						{
							"indexed": true,
							"internalType": "bytes32",
							"name": "role",
							"type": "bytes32"
						},
						{
							"indexed": true,
							"internalType": "address",
							"name": "account",
							"type": "address"
						},
						{
							"indexed": true,
							"internalType": "address",
							"name": "sender",
							"type": "address"
						}
					],
					"name": "RoleGranted",
					"type": "event"
				},
				{
					"anonymous": false,
					"inputs": [
						{
							"indexed": true,
							"internalType": "bytes32",
							"name": "role",
							"type": "bytes32"
						},
						{
							"indexed": true,
							"internalType": "address",
							"name": "account",
							"type": "address"
						},
						{
							"indexed": true,
							"internalType": "address",
							"name": "sender",
							"type": "address"
						}
					],
					"name": "RoleRevoked",
					"type": "event"
				},
				{
					"anonymous": false,
					"inputs": [
						{
							"indexed": true,
							"internalType": "address",
							"name": "user",
							"type": "address"
						},
						{
							"indexed": false,
							"internalType": "uint256",
							"name": "amount",
							"type": "uint256"
						},
						{
							"indexed": false,
							"internalType": "uint256",
							"name": "startTime",
							"type": "uint256"
						}
					],
					"name": "TokensStaked",
					"type": "event"
				},
				{
					"anonymous": false,
					"inputs": [
						{
							"indexed": true,
							"internalType": "address",
							"name": "user",
							"type": "address"
						},
						{
							"indexed": false,
							"internalType": "uint256",
							"name": "amount",
							"type": "uint256"
						},
						{
							"indexed": false,
							"internalType": "uint256",
							"name": "reward",
							"type": "uint256"
						}
					],
					"name": "TokensUnstaked",
					"type": "event"
				},
				{
					"anonymous": false,
					"inputs": [
						{
							"indexed": true,
							"internalType": "address",
							"name": "owner",
							"type": "address"
						},
						{
							"indexed": true,
							"internalType": "uint256",
							"name": "txIndex",
							"type": "uint256"
						}
					],
					"name": "TransactionConfirmed",
					"type": "event"
				},
				{
					"anonymous": false,
					"inputs": [
						{
							"indexed": true,
							"internalType": "uint256",
							"name": "txIndex",
							"type": "uint256"
						}
					],
					"name": "TransactionExecuted",
					"type": "event"
				},
				{
					"anonymous": false,
					"inputs": [
						{
							"indexed": true,
							"internalType": "address",
							"name": "owner",
							"type": "address"
						},
						{
							"indexed": true,
							"internalType": "uint256",
							"name": "txIndex",
							"type": "uint256"
						}
					],
					"name": "TransactionRevoked",
					"type": "event"
				},
				{
					"anonymous": false,
					"inputs": [
						{
							"indexed": true,
							"internalType": "uint256",
							"name": "txIndex",
							"type": "uint256"
						}
					],
					"name": "TransactionSubmitted",
					"type": "event"
				},
				{
					"anonymous": false,
					"inputs": [
						{
							"indexed": false,
							"internalType": "address",
							"name": "account",
							"type": "address"
						}
					],
					"name": "Unpaused",
					"type": "event"
				},
				{
					"anonymous": false,
					"inputs": [
						{
							"indexed": true,
							"internalType": "address",
							"name": "implementation",
							"type": "address"
						}
					],
					"name": "Upgraded",
					"type": "event"
				},
				{
					"inputs": [],
					"name": "ADMIN_ROLE",
					"outputs": [
						{
							"internalType": "bytes32",
							"name": "",
							"type": "bytes32"
						}
					],
					"stateMutability": "view",
					"type": "function"
				},
				{
					"inputs": [],
					"name": "DEFAULT_ADMIN_ROLE",
					"outputs": [
						{
							"internalType": "bytes32",
							"name": "",
							"type": "bytes32"
						}
					],
					"stateMutability": "view",
					"type": "function"
				},
				{
					"inputs": [],
					"name": "PAUSER_ROLE",
					"outputs": [
						{
							"internalType": "bytes32",
							"name": "",
							"type": "bytes32"
						}
					],
					"stateMutability": "view",
					"type": "function"
				},
				{
					"inputs": [],
					"name": "UPGRADER_ROLE",
					"outputs": [
						{
							"internalType": "bytes32",
							"name": "",
							"type": "bytes32"
						}
					],
					"stateMutability": "view",
					"type": "function"
				},
				{
					"inputs": [],
					"name": "UPGRADE_INTERFACE_VERSION",
					"outputs": [
						{
							"internalType": "string",
							"name": "",
							"type": "string"
						}
					],
					"stateMutability": "view",
					"type": "function"
				},
				{
					"inputs": [
						{
							"internalType": "uint256",
							"name": "_txIndex",
							"type": "uint256"
						}
					],
					"name": "confirmTransaction",
					"outputs": [],
					"stateMutability": "nonpayable",
					"type": "function"
				},
				{
					"inputs": [
						{
							"internalType": "uint256",
							"name": "_txIndex",
							"type": "uint256"
						}
					],
					"name": "executeTransaction",
					"outputs": [],
					"stateMutability": "nonpayable",
					"type": "function"
				},
				{
					"inputs": [
						{
							"internalType": "bytes32",
							"name": "role",
							"type": "bytes32"
						}
					],
					"name": "getRoleAdmin",
					"outputs": [
						{
							"internalType": "bytes32",
							"name": "",
							"type": "bytes32"
						}
					],
					"stateMutability": "view",
					"type": "function"
				},
				{
					"inputs": [
						{
							"internalType": "bytes32",
							"name": "role",
							"type": "bytes32"
						},
						{
							"internalType": "address",
							"name": "account",
							"type": "address"
						}
					],
					"name": "grantRole",
					"outputs": [],
					"stateMutability": "nonpayable",
					"type": "function"
				},
				{
					"inputs": [
						{
							"internalType": "bytes32",
							"name": "role",
							"type": "bytes32"
						},
						{
							"internalType": "address",
							"name": "account",
							"type": "address"
						}
					],
					"name": "hasRole",
					"outputs": [
						{
							"internalType": "bool",
							"name": "",
							"type": "bool"
						}
					],
					"stateMutability": "view",
					"type": "function"
				},
				{
					"inputs": [
						{
							"internalType": "address",
							"name": "admin",
							"type": "address"
						},
						{
							"internalType": "uint256",
							"name": "_requiredConfirmations",
							"type": "uint256"
						},
						{
							"internalType": "uint256",
							"name": "_stakingRate",
							"type": "uint256"
						}
					],
					"name": "initialize",
					"outputs": [],
					"stateMutability": "nonpayable",
					"type": "function"
				},
				{
					"inputs": [
						{
							"internalType": "uint256",
							"name": "",
							"type": "uint256"
						},
						{
							"internalType": "address",
							"name": "",
							"type": "address"
						}
					],
					"name": "isConfirmed",
					"outputs": [
						{
							"internalType": "bool",
							"name": "",
							"type": "bool"
						}
					],
					"stateMutability": "view",
					"type": "function"
				},
				{
					"inputs": [],
					"name": "pause",
					"outputs": [],
					"stateMutability": "nonpayable",
					"type": "function"
				},
				{
					"inputs": [],
					"name": "paused",
					"outputs": [
						{
							"internalType": "bool",
							"name": "",
							"type": "bool"
						}
					],
					"stateMutability": "view",
					"type": "function"
				},
				{
					"inputs": [],
					"name": "proxiableUUID",
					"outputs": [
						{
							"internalType": "bytes32",
							"name": "",
							"type": "bytes32"
						}
					],
					"stateMutability": "view",
					"type": "function"
				},
				{
					"inputs": [
						{
							"internalType": "bytes32",
							"name": "role",
							"type": "bytes32"
						},
						{
							"internalType": "address",
							"name": "callerConfirmation",
							"type": "address"
						}
					],
					"name": "renounceRole",
					"outputs": [],
					"stateMutability": "nonpayable",
					"type": "function"
				},
				{
					"inputs": [],
					"name": "requiredConfirmations",
					"outputs": [
						{
							"internalType": "uint256",
							"name": "",
							"type": "uint256"
						}
					],
					"stateMutability": "view",
					"type": "function"
				},
				{
					"inputs": [
						{
							"internalType": "uint256",
							"name": "_txIndex",
							"type": "uint256"
						}
					],
					"name": "revokeConfirmation",
					"outputs": [],
					"stateMutability": "nonpayable",
					"type": "function"
				},
				{
					"inputs": [
						{
							"internalType": "bytes32",
							"name": "role",
							"type": "bytes32"
						},
						{
							"internalType": "address",
							"name": "account",
							"type": "address"
						}
					],
					"name": "revokeRole",
					"outputs": [],
					"stateMutability": "nonpayable",
					"type": "function"
				},
				{
					"inputs": [
						{
							"internalType": "uint256",
							"name": "_amount",
							"type": "uint256"
						}
					],
					"name": "stakeTokens",
					"outputs": [],
					"stateMutability": "nonpayable",
					"type": "function"
				},
				{
					"inputs": [
						{
							"internalType": "address",
							"name": "",
							"type": "address"
						}
					],
					"name": "stakes",
					"outputs": [
						{
							"internalType": "uint256",
							"name": "amount",
							"type": "uint256"
						},
						{
							"internalType": "uint256",
							"name": "startTime",
							"type": "uint256"
						}
					],
					"stateMutability": "view",
					"type": "function"
				},
				{
					"inputs": [],
					"name": "stakingRate",
					"outputs": [
						{
							"internalType": "uint256",
							"name": "",
							"type": "uint256"
						}
					],
					"stateMutability": "view",
					"type": "function"
				},
				{
					"inputs": [
						{
							"internalType": "address",
							"name": "_to",
							"type": "address"
						},
						{
							"internalType": "uint256",
							"name": "_value",
							"type": "uint256"
						},
						{
							"internalType": "bytes",
							"name": "_data",
							"type": "bytes"
						}
					],
					"name": "submitTransaction",
					"outputs": [],
					"stateMutability": "nonpayable",
					"type": "function"
				},
				{
					"inputs": [
						{
							"internalType": "bytes4",
							"name": "interfaceId",
							"type": "bytes4"
						}
					],
					"name": "supportsInterface",
					"outputs": [
						{
							"internalType": "bool",
							"name": "",
							"type": "bool"
						}
					],
					"stateMutability": "view",
					"type": "function"
				},
				{
					"inputs": [
						{
							"internalType": "uint256",
							"name": "",
							"type": "uint256"
						}
					],
					"name": "transactions",
					"outputs": [
						{
							"internalType": "address",
							"name": "to",
							"type": "address"
						},
						{
							"internalType": "uint256",
							"name": "value",
							"type": "uint256"
						},
						{
							"internalType": "bytes",
							"name": "data",
							"type": "bytes"
						},
						{
							"internalType": "bool",
							"name": "executed",
							"type": "bool"
						},
						{
							"internalType": "uint256",
							"name": "numConfirmations",
							"type": "uint256"
						}
					],
					"stateMutability": "view",
					"type": "function"
				},
				{
					"inputs": [],
					"name": "unpause",
					"outputs": [],
					"stateMutability": "nonpayable",
					"type": "function"
				},
				{
					"inputs": [],
					"name": "unstakeTokens",
					"outputs": [],
					"stateMutability": "nonpayable",
					"type": "function"
				},
				{
					"inputs": [
						{
							"internalType": "address",
							"name": "newImplementation",
							"type": "address"
						},
						{
							"internalType": "bytes",
							"name": "data",
							"type": "bytes"
						}
					],
					"name": "upgradeToAndCall",
					"outputs": [],
					"stateMutability": "payable",
					"type": "function"
				},
				{
					"stateMutability": "payable",
					"type": "receive"
				}
			],
			"devdoc": {
				"errors": {
					"AccessControlBadConfirmation()": [
						{
							"details": "The caller of a function is not the expected one. NOTE: Don't confuse with {AccessControlUnauthorizedAccount}."
						}
					],
					"AccessControlUnauthorizedAccount(address,bytes32)": [
						{
							"details": "The `account` is missing a role."
						}
					],
					"AddressEmptyCode(address)": [
						{
							"details": "There's no code at `target` (it is not a contract)."
						}
					],
					"ERC1967InvalidImplementation(address)": [
						{
							"details": "The `implementation` of the proxy is invalid."
						}
					],
					"ERC1967NonPayable()": [
						{
							"details": "An upgrade function sees `msg.value > 0` that may be lost."
						}
					],
					"FailedInnerCall()": [
						{
							"details": "A call to an address target failed. The target may have reverted."
						}
					],
					"InvalidInitialization()": [
						{
							"details": "The contract is already initialized."
						}
					],
					"NotInitializing()": [
						{
							"details": "The contract is not initializing."
						}
					],
					"UUPSUnauthorizedCallContext()": [
						{
							"details": "The call is from an unauthorized context."
						}
					],
					"UUPSUnsupportedProxiableUUID(bytes32)": [
						{
							"details": "The storage `slot` is unsupported as a UUID."
						}
					]
				},
				"events": {
					"Initialized(uint64)": {
						"details": "Triggered when the contract has been initialized or reinitialized."
					},
					"Paused(address)": {
						"details": "Emitted when the pause is triggered by `account`."
					},
					"RoleAdminChanged(bytes32,bytes32,bytes32)": {
						"details": "Emitted when `newAdminRole` is set as ``role``'s admin role, replacing `previousAdminRole` `DEFAULT_ADMIN_ROLE` is the starting admin for all roles, despite {RoleAdminChanged} not being emitted signaling this."
					},
					"RoleGranted(bytes32,address,address)": {
						"details": "Emitted when `account` is granted `role`. `sender` is the account that originated the contract call, an admin role bearer except when using {AccessControl-_setupRole}."
					},
					"RoleRevoked(bytes32,address,address)": {
						"details": "Emitted when `account` is revoked `role`. `sender` is the account that originated the contract call:   - if using `revokeRole`, it is the admin role bearer   - if using `renounceRole`, it is the role bearer (i.e. `account`)"
					},
					"Unpaused(address)": {
						"details": "Emitted when the pause is lifted by `account`."
					},
					"Upgraded(address)": {
						"details": "Emitted when the implementation is upgraded."
					}
				},
				"kind": "dev",
				"methods": {
					"constructor": {
						"custom:oz-upgrades-unsafe-allow": "constructor"
					},
					"getRoleAdmin(bytes32)": {
						"details": "Returns the admin role that controls `role`. See {grantRole} and {revokeRole}. To change a role's admin, use {_setRoleAdmin}."
					},
					"grantRole(bytes32,address)": {
						"details": "Grants `role` to `account`. If `account` had not been already granted `role`, emits a {RoleGranted} event. Requirements: - the caller must have ``role``'s admin role. May emit a {RoleGranted} event."
					},
					"hasRole(bytes32,address)": {
						"details": "Returns `true` if `account` has been granted `role`."
					},
					"paused()": {
						"details": "Returns true if the contract is paused, and false otherwise."
					},
					"proxiableUUID()": {
						"details": "Implementation of the ERC1822 {proxiableUUID} function. This returns the storage slot used by the implementation. It is used to validate the implementation's compatibility when performing an upgrade. IMPORTANT: A proxy pointing at a proxiable contract should not be considered proxiable itself, because this risks bricking a proxy that upgrades to it, by delegating to itself until out of gas. Thus it is critical that this function revert if invoked through a proxy. This is guaranteed by the `notDelegated` modifier."
					},
					"renounceRole(bytes32,address)": {
						"details": "Revokes `role` from the calling account. Roles are often managed via {grantRole} and {revokeRole}: this function's purpose is to provide a mechanism for accounts to lose their privileges if they are compromised (such as when a trusted device is misplaced). If the calling account had been revoked `role`, emits a {RoleRevoked} event. Requirements: - the caller must be `callerConfirmation`. May emit a {RoleRevoked} event."
					},
					"revokeRole(bytes32,address)": {
						"details": "Revokes `role` from `account`. If `account` had been granted `role`, emits a {RoleRevoked} event. Requirements: - the caller must have ``role``'s admin role. May emit a {RoleRevoked} event."
					},
					"supportsInterface(bytes4)": {
						"details": "See {IERC165-supportsInterface}."
					},
					"upgradeToAndCall(address,bytes)": {
						"custom:oz-upgrades-unsafe-allow-reachable": "delegatecall",
						"details": "Upgrade the implementation of the proxy to `newImplementation`, and subsequently execute the function call encoded in `data`. Calls {_authorizeUpgrade}. Emits an {Upgraded} event."
					}
				},
				"version": 1
			},
			"evm": {
				"assembly": "    /* \"src/contract/CryptoQuestTheShardsOfGenesisWallet.sol\":620:6121  contract CryptoQuestTheShardsOfGenesisWallet is Initializable, AccessControlUpgradeable, PausableUpgradeable, UUPSUpgradeable {... */\n  mstore(0x40, 0xa0)\n    /* \"@openzeppelin/contracts-upgradeable/proxy/utils/UUPSUpgradeable.sol\":1171:1175  this */\n  address\n    /* \"@openzeppelin/contracts-upgradeable/proxy/utils/UUPSUpgradeable.sol\":1128:1176  address private immutable __self = address(this) */\n  0x80\n  mstore\n    /* \"src/contract/CryptoQuestTheShardsOfGenesisWallet.sol\":2011:2064  constructor() {... */\n  callvalue\n  dup1\n  iszero\n  tag_1\n  jumpi\n  0x00\n  dup1\n  revert\ntag_1:\n  pop\n    /* \"src/contract/CryptoQuestTheShardsOfGenesisWallet.sol\":2035:2057  _disableInitializers() */\n  tag_4\n    /* \"src/contract/CryptoQuestTheShardsOfGenesisWallet.sol\":2035:2055  _disableInitializers */\n  tag_5\n    /* \"src/contract/CryptoQuestTheShardsOfGenesisWallet.sol\":2035:2057  _disableInitializers() */\n  jump\t// in\ntag_4:\n    /* \"src/contract/CryptoQuestTheShardsOfGenesisWallet.sol\":620:6121  contract CryptoQuestTheShardsOfGenesisWallet is Initializable, AccessControlUpgradeable, PausableUpgradeable, UUPSUpgradeable {... */\n  jump(tag_15)\n    /* \"@openzeppelin/contracts-upgradeable/proxy/utils/Initializable.sol\":7711:8133  function _disableInitializers() internal virtual {... */\ntag_5:\n    /* \"@openzeppelin/contracts-upgradeable/proxy/utils/Initializable.sol\":8870:8891  INITIALIZABLE_STORAGE */\n  0xf0c57e16840df040f15088dc2f81fe391c3923bec73e23a9662efc9c229c6a00\n    /* \"@openzeppelin/contracts-upgradeable/proxy/utils/Initializable.sol\":7900:7915  $._initializing */\n  dup1\n  sload\n  0x010000000000000000\n  swap1\n  div\n  0xff\n  and\n    /* \"@openzeppelin/contracts-upgradeable/proxy/utils/Initializable.sol\":7896:7972  if ($._initializing) {... */\n  iszero\n  tag_10\n  jumpi\n    /* \"@openzeppelin/contracts-upgradeable/proxy/utils/Initializable.sol\":7938:7961  InvalidInitialization() */\n  mload(0x40)\n  shl(0xe0, 0xf92ee8a9)\n  dup2\n  mstore\n  0x04\n  add\n  mload(0x40)\n  dup1\n  swap2\n  sub\n  swap1\n  revert\n    /* \"@openzeppelin/contracts-upgradeable/proxy/utils/Initializable.sol\":7896:7972  if ($._initializing) {... */\ntag_10:\n    /* \"@openzeppelin/contracts-upgradeable/proxy/utils/Initializable.sol\":7985:7999  $._initialized */\n  dup1\n  sload\n  sub(shl(0x40, 0x01), 0x01)\n  swap1\n  dup2\n  and\n    /* \"@openzeppelin/contracts-upgradeable/proxy/utils/Initializable.sol\":7985:8019  $._initialized != type(uint64).max */\n  eq\n    /* \"@openzeppelin/contracts-upgradeable/proxy/utils/Initializable.sol\":7981:8127  if ($._initialized != type(uint64).max) {... */\n  tag_11\n  jumpi\n    /* \"@openzeppelin/contracts-upgradeable/proxy/utils/Initializable.sol\":8035:8068  $._initialized = type(uint64).max */\n  dup1\n  sload\n  not(sub(shl(0x40, 0x01), 0x01))\n  and\n  sub(shl(0x40, 0x01), 0x01)\n  swap1\n  dup2\n  or\n  dup3\n  sstore\n    /* \"@openzeppelin/contracts-upgradeable/proxy/utils/Initializable.sol\":8087:8116  Initialized(type(uint64).max) */\n  mload(0x40)\n    /* \"#utility.yul\":158:208   */\n  swap1\n  dup2\n  mstore\n    /* \"@openzeppelin/contracts-upgradeable/proxy/utils/Initializable.sol\":8087:8116  Initialized(type(uint64).max) */\n  0xc7f505b2f371ae2175ee4913f4499e1f2633a7b5936321eed1cdaeb6115181d2\n  swap1\n    /* \"#utility.yul\":146:148   */\n  0x20\n    /* \"#utility.yul\":131:149   */\n  add\n    /* \"@openzeppelin/contracts-upgradeable/proxy/utils/Initializable.sol\":8087:8116  Initialized(type(uint64).max) */\n  mload(0x40)\n  dup1\n  swap2\n  sub\n  swap1\n  log1\n    /* \"@openzeppelin/contracts-upgradeable/proxy/utils/Initializable.sol\":7981:8127  if ($._initialized != type(uint64).max) {... */\ntag_11:\n    /* \"@openzeppelin/contracts-upgradeable/proxy/utils/Initializable.sol\":7760:8133  {... */\n  pop\n    /* \"@openzeppelin/contracts-upgradeable/proxy/utils/Initializable.sol\":7711:8133  function _disableInitializers() internal virtual {... */\n  jump\t// out\n    /* \"#utility.yul\":14:214   */\ntag_15:\n    /* \"src/contract/CryptoQuestTheShardsOfGenesisWallet.sol\":620:6121  contract CryptoQuestTheShardsOfGenesisWallet is Initializable, AccessControlUpgradeable, PausableUpgradeable, UUPSUpgradeable {... */\n  mload(0x80)\n  codecopy(0x00, dataOffset(sub_0), dataSize(sub_0))\n  0x00\n  assignImmutable(\"0x3b04ad91523c4dcf551e081621e633b9099d51bf9c5461e58c3bc7354a578b27\")\n  return(0x00, dataSize(sub_0))\nstop\n\nsub_0: assembly {\n        /* \"src/contract/CryptoQuestTheShardsOfGenesisWallet.sol\":620:6121  contract CryptoQuestTheShardsOfGenesisWallet is Initializable, AccessControlUpgradeable, PausableUpgradeable, UUPSUpgradeable {... */\n      mstore(0x40, 0x80)\n      jumpi(tag_1, lt(calldatasize, 0x04))\n      shr(0xe0, calldataload(0x00))\n      dup1\n      0x82e717f7\n      gt\n      tag_31\n      jumpi\n      dup1\n      0xc01a8c84\n      gt\n      tag_32\n      jumpi\n      dup1\n      0xd547741f\n      gt\n      tag_33\n      jumpi\n      dup1\n      0xd547741f\n      eq\n      tag_27\n      jumpi\n      dup1\n      0xe63ab1e9\n      eq\n      tag_28\n      jumpi\n      dup1\n      0xee22610b\n      eq\n      tag_29\n      jumpi\n      dup1\n      0xf72c0d8b\n      eq\n      tag_30\n      jumpi\n      0x00\n      dup1\n      revert\n    tag_33:\n      dup1\n      0xc01a8c84\n      eq\n      tag_24\n      jumpi\n      dup1\n      0xc63a6ad2\n      eq\n      tag_25\n      jumpi\n      dup1\n      0xc6427474\n      eq\n      tag_26\n      jumpi\n      0x00\n      dup1\n      revert\n    tag_32:\n      dup1\n      0x9ace38c2\n      gt\n      tag_34\n      jumpi\n      dup1\n      0x9ace38c2\n      eq\n      tag_20\n      jumpi\n      dup1\n      0xa217fddf\n      eq\n      tag_21\n      jumpi\n      dup1\n      0xa5ce413b\n      eq\n      tag_22\n      jumpi\n      dup1\n      0xad3cb1cc\n      eq\n      tag_23\n      jumpi\n      0x00\n      dup1\n      revert\n    tag_34:\n      dup1\n      0x82e717f7\n      eq\n      tag_17\n      jumpi\n      dup1\n      0x8456cb59\n      eq\n      tag_18\n      jumpi\n      dup1\n      0x91d14854\n      eq\n      tag_19\n      jumpi\n      0x00\n      dup1\n      revert\n    tag_31:\n      dup1\n      0x4f1ef286\n      gt\n      tag_35\n      jumpi\n      dup1\n      0x7547c7a3\n      gt\n      tag_36\n      jumpi\n      dup1\n      0x7547c7a3\n      eq\n      tag_13\n      jumpi\n      dup1\n      0x75b238fc\n      eq\n      tag_14\n      jumpi\n      dup1\n      0x7a1ac61e\n      eq\n      tag_15\n      jumpi\n      dup1\n      0x80f59a65\n      eq\n      tag_16\n      jumpi\n      0x00\n      dup1\n      revert\n    tag_36:\n      dup1\n      0x4f1ef286\n      eq\n      tag_10\n      jumpi\n      dup1\n      0x52d1902d\n      eq\n      tag_11\n      jumpi\n      dup1\n      0x5c975abb\n      eq\n      tag_12\n      jumpi\n      0x00\n      dup1\n      revert\n    tag_35:\n      dup1\n      0x248a9ca3\n      gt\n      tag_37\n      jumpi\n      dup1\n      0x248a9ca3\n      eq\n      tag_6\n      jumpi\n      dup1\n      0x2f2ff15d\n      eq\n      tag_7\n      jumpi\n      dup1\n      0x36568abe\n      eq\n      tag_8\n      jumpi\n      dup1\n      0x3f4ba83a\n      eq\n      tag_9\n      jumpi\n      0x00\n      dup1\n      revert\n    tag_37:\n      dup1\n      0x01ffc9a7\n      eq\n      tag_3\n      jumpi\n      dup1\n      0x16934fc4\n      eq\n      tag_4\n      jumpi\n      dup1\n      0x20ea8d86\n      eq\n      tag_5\n      jumpi\n      0x00\n      dup1\n      revert\n    tag_1:\n      jumpi(tag_2, calldatasize)\n      stop\n    tag_2:\n      0x00\n      dup1\n      revert\n        /* \"@openzeppelin/contracts-upgradeable/access/AccessControlUpgradeable.sol\":3443:3645  function supportsInterface(bytes4 interfaceId) public view virtual override returns (bool) {... */\n    tag_3:\n      callvalue\n      dup1\n      iszero\n      tag_40\n      jumpi\n      0x00\n      dup1\n      revert\n    tag_40:\n      pop\n      tag_41\n      tag_42\n      calldatasize\n      0x04\n      tag_43\n      jump\t// in\n    tag_42:\n      tag_44\n      jump\t// in\n    tag_41:\n      mload(0x40)\n        /* \"#utility.yul\":470:484   */\n      swap1\n      iszero\n        /* \"#utility.yul\":463:485   */\n      iszero\n        /* \"#utility.yul\":445:486   */\n      dup2\n      mstore\n        /* \"#utility.yul\":433:435   */\n      0x20\n        /* \"#utility.yul\":418:436   */\n      add\n        /* \"@openzeppelin/contracts-upgradeable/access/AccessControlUpgradeable.sol\":3443:3645  function supportsInterface(bytes4 interfaceId) public view virtual override returns (bool) {... */\n    tag_45:\n      mload(0x40)\n      dup1\n      swap2\n      sub\n      swap1\n      return\n        /* \"src/contract/CryptoQuestTheShardsOfGenesisWallet.sol\":1411:1450  mapping(address => Stake) public stakes */\n    tag_4:\n      callvalue\n      dup1\n      iszero\n      tag_47\n      jumpi\n      0x00\n      dup1\n      revert\n    tag_47:\n      pop\n      tag_48\n      tag_49\n      calldatasize\n      0x04\n      tag_50\n      jump\t// in\n    tag_49:\n      mstore(0x20, 0x35)\n      0x00\n      swap1\n      dup2\n      mstore\n      0x40\n      swap1\n      keccak256\n      dup1\n      sload\n      0x01\n      swap1\n      swap2\n      add\n      sload\n      dup3\n      jump\n    tag_48:\n      0x40\n      dup1\n      mload\n        /* \"#utility.yul\":1040:1065   */\n      swap3\n      dup4\n      mstore\n        /* \"#utility.yul\":1096:1098   */\n      0x20\n        /* \"#utility.yul\":1081:1099   */\n      dup4\n      add\n        /* \"#utility.yul\":1074:1108   */\n      swap2\n      swap1\n      swap2\n      mstore\n        /* \"#utility.yul\":1013:1031   */\n      add\n        /* \"src/contract/CryptoQuestTheShardsOfGenesisWallet.sol\":1411:1450  mapping(address => Stake) public stakes */\n      tag_45\n        /* \"#utility.yul\":866:1114   */\n      jump\n        /* \"src/contract/CryptoQuestTheShardsOfGenesisWallet.sol\":4380:4790  function revokeConfirmation(uint256 _txIndex) public onlyAdmin txExists(_txIndex) notExecuted(_txIndex) {... */\n    tag_5:\n      callvalue\n      dup1\n      iszero\n      tag_54\n      jumpi\n      0x00\n      dup1\n      revert\n    tag_54:\n      pop\n      tag_55\n      tag_56\n      calldatasize\n      0x04\n      tag_57\n      jump\t// in\n    tag_56:\n      tag_58\n      jump\t// in\n    tag_55:\n      stop\n        /* \"@openzeppelin/contracts-upgradeable/access/AccessControlUpgradeable.sol\":4759:4950  function getRoleAdmin(bytes32 role) public view virtual returns (bytes32) {... */\n    tag_6:\n      callvalue\n      dup1\n      iszero\n      tag_59\n      jumpi\n      0x00\n      dup1\n      revert\n    tag_59:\n      pop\n      tag_60\n      tag_61\n      calldatasize\n      0x04\n      tag_57\n      jump\t// in\n    tag_61:\n      tag_63\n      jump\t// in\n    tag_60:\n      mload(0x40)\n        /* \"#utility.yul\":1635:1660   */\n      swap1\n      dup2\n      mstore\n        /* \"#utility.yul\":1623:1625   */\n      0x20\n        /* \"#utility.yul\":1608:1626   */\n      add\n        /* \"@openzeppelin/contracts-upgradeable/access/AccessControlUpgradeable.sol\":4759:4950  function getRoleAdmin(bytes32 role) public view virtual returns (bytes32) {... */\n      tag_45\n        /* \"#utility.yul\":1489:1666   */\n      jump\n        /* \"@openzeppelin/contracts-upgradeable/access/AccessControlUpgradeable.sol\":5246:5382  function grantRole(bytes32 role, address account) public virtual onlyRole(getRoleAdmin(role)) {... */\n    tag_7:\n      callvalue\n      dup1\n      iszero\n      tag_66\n      jumpi\n      0x00\n      dup1\n      revert\n    tag_66:\n      pop\n      tag_55\n      tag_68\n      calldatasize\n      0x04\n      tag_69\n      jump\t// in\n    tag_68:\n      tag_70\n      jump\t// in\n        /* \"@openzeppelin/contracts-upgradeable/access/AccessControlUpgradeable.sol\":6348:6593  function renounceRole(bytes32 role, address callerConfirmation) public virtual {... */\n    tag_8:\n      callvalue\n      dup1\n      iszero\n      tag_71\n      jumpi\n      0x00\n      dup1\n      revert\n    tag_71:\n      pop\n      tag_55\n      tag_73\n      calldatasize\n      0x04\n      tag_69\n      jump\t// in\n    tag_73:\n      tag_74\n      jump\t// in\n        /* \"src/contract/CryptoQuestTheShardsOfGenesisWallet.sol\":5905:5980  function unpause() public onlyRole(PAUSER_ROLE) {... */\n    tag_9:\n      callvalue\n      dup1\n      iszero\n      tag_75\n      jumpi\n      0x00\n      dup1\n      revert\n    tag_75:\n      pop\n      tag_55\n      tag_77\n      jump\t// in\n        /* \"@openzeppelin/contracts-upgradeable/proxy/utils/UUPSUpgradeable.sol\":4158:4372  function upgradeToAndCall(address newImplementation, bytes memory data) public payable virtual onlyProxy {... */\n    tag_10:\n      tag_55\n      tag_79\n      calldatasize\n      0x04\n      tag_80\n      jump\t// in\n    tag_79:\n      tag_81\n      jump\t// in\n        /* \"@openzeppelin/contracts-upgradeable/proxy/utils/UUPSUpgradeable.sol\":3705:3839  function proxiableUUID() external view virtual notDelegated returns (bytes32) {... */\n    tag_11:\n      callvalue\n      dup1\n      iszero\n      tag_82\n      jumpi\n      0x00\n      dup1\n      revert\n    tag_82:\n      pop\n      tag_60\n      tag_84\n      jump\t// in\n        /* \"@openzeppelin/contracts-upgradeable/security/PausableUpgradeable.sol\":1879:1963  function paused() public view virtual returns (bool) {... */\n    tag_12:\n      callvalue\n      dup1\n      iszero\n      tag_86\n      jumpi\n      0x00\n      dup1\n      revert\n    tag_86:\n      pop\n        /* \"@openzeppelin/contracts-upgradeable/security/PausableUpgradeable.sol\":1926:1930  bool */\n      0x00\n        /* \"@openzeppelin/contracts-upgradeable/security/PausableUpgradeable.sol\":1949:1956  _paused */\n      sload\n      0xff\n      and\n        /* \"@openzeppelin/contracts-upgradeable/security/PausableUpgradeable.sol\":1879:1963  function paused() public view virtual returns (bool) {... */\n      jump(tag_41)\n        /* \"src/contract/CryptoQuestTheShardsOfGenesisWallet.sol\":4825:5241  function stakeTokens(uint256 _amount) public whenNotPaused {... */\n    tag_13:\n      callvalue\n      dup1\n      iszero\n      tag_90\n      jumpi\n      0x00\n      dup1\n      revert\n    tag_90:\n      pop\n      tag_55\n      tag_92\n      calldatasize\n      0x04\n      tag_57\n      jump\t// in\n    tag_92:\n      tag_93\n      jump\t// in\n        /* \"src/contract/CryptoQuestTheShardsOfGenesisWallet.sol\":820:880  bytes32 public constant ADMIN_ROLE = keccak256(\"ADMIN_ROLE\") */\n    tag_14:\n      callvalue\n      dup1\n      iszero\n      tag_94\n      jumpi\n      0x00\n      dup1\n      revert\n    tag_94:\n      pop\n      tag_60\n      0x00\n      dup1\n      mload\n      0x20\n      data_cb864c43dd5d441bb6271f424f11befa622c032dfd374d226e26fbbdb782b8f8\n      dup4\n      codecopy\n      dup2\n      mload\n      swap2\n      mstore\n      dup2\n      jump\n        /* \"src/contract/CryptoQuestTheShardsOfGenesisWallet.sol\":2070:2540  function initialize(address admin, uint256 _requiredConfirmations, uint256 _stakingRate) initializer public {... */\n    tag_15:\n      callvalue\n      dup1\n      iszero\n      tag_98\n      jumpi\n      0x00\n      dup1\n      revert\n    tag_98:\n      pop\n      tag_55\n      tag_100\n      calldatasize\n      0x04\n      tag_101\n      jump\t// in\n    tag_100:\n      tag_102\n      jump\t// in\n        /* \"src/contract/CryptoQuestTheShardsOfGenesisWallet.sol\":1157:1220  mapping(uint256 => mapping(address => bool)) public isConfirmed */\n    tag_16:\n      callvalue\n      dup1\n      iszero\n      tag_103\n      jumpi\n      0x00\n      dup1\n      revert\n    tag_103:\n      pop\n      tag_41\n      tag_105\n      calldatasize\n      0x04\n      tag_69\n      jump\t// in\n    tag_105:\n      0x32\n      0x20\n      swap1\n      dup2\n      mstore\n      0x00\n      swap3\n      dup4\n      mstore\n      0x40\n      dup1\n      dup5\n      keccak256\n      swap1\n      swap2\n      mstore\n      swap1\n      dup3\n      mstore\n      swap1\n      keccak256\n      sload\n      0xff\n      and\n      dup2\n      jump\n        /* \"src/contract/CryptoQuestTheShardsOfGenesisWallet.sol\":1265:1301  uint256 public requiredConfirmations */\n    tag_17:\n      callvalue\n      dup1\n      iszero\n      tag_109\n      jumpi\n      0x00\n      dup1\n      revert\n    tag_109:\n      pop\n      tag_60\n      sload(0x34)\n      dup2\n      jump\n        /* \"src/contract/CryptoQuestTheShardsOfGenesisWallet.sol\":5828:5899  function pause() public onlyRole(PAUSER_ROLE) {... */\n    tag_18:\n      callvalue\n      dup1\n      iszero\n      tag_114\n      jumpi\n      0x00\n      dup1\n      revert\n    tag_114:\n      pop\n      tag_55\n      tag_116\n      jump\t// in\n        /* \"@openzeppelin/contracts-upgradeable/access/AccessControlUpgradeable.sol\":3732:3939  function hasRole(bytes32 role, address account) public view virtual returns (bool) {... */\n    tag_19:\n      callvalue\n      dup1\n      iszero\n      tag_117\n      jumpi\n      0x00\n      dup1\n      revert\n    tag_117:\n      pop\n      tag_41\n      tag_119\n      calldatasize\n      0x04\n      tag_69\n      jump\t// in\n    tag_119:\n      tag_120\n      jump\t// in\n        /* \"src/contract/CryptoQuestTheShardsOfGenesisWallet.sol\":1226:1259  Transaction[] public transactions */\n    tag_20:\n      callvalue\n      dup1\n      iszero\n      tag_122\n      jumpi\n      0x00\n      dup1\n      revert\n    tag_122:\n      pop\n      tag_123\n      tag_124\n      calldatasize\n      0x04\n      tag_57\n      jump\t// in\n    tag_124:\n      tag_125\n      jump\t// in\n    tag_123:\n      mload(0x40)\n      tag_45\n      swap6\n      swap5\n      swap4\n      swap3\n      swap2\n      swap1\n      tag_127\n      jump\t// in\n        /* \"@openzeppelin/contracts-upgradeable/access/AccessControlUpgradeable.sol\":2317:2366  bytes32 public constant DEFAULT_ADMIN_ROLE = 0x00 */\n    tag_21:\n      callvalue\n      dup1\n      iszero\n      tag_128\n      jumpi\n      0x00\n      dup1\n      revert\n    tag_128:\n      pop\n      tag_60\n        /* \"@openzeppelin/contracts-upgradeable/access/AccessControlUpgradeable.sol\":2362:2366  0x00 */\n      0x00\n        /* \"@openzeppelin/contracts-upgradeable/access/AccessControlUpgradeable.sol\":2317:2366  bytes32 public constant DEFAULT_ADMIN_ROLE = 0x00 */\n      dup2\n      jump\n        /* \"src/contract/CryptoQuestTheShardsOfGenesisWallet.sol\":5247:5822  function unstakeTokens() public whenNotPaused {... */\n    tag_22:\n      callvalue\n      dup1\n      iszero\n      tag_132\n      jumpi\n      0x00\n      dup1\n      revert\n    tag_132:\n      pop\n      tag_55\n      tag_134\n      jump\t// in\n        /* \"@openzeppelin/contracts-upgradeable/proxy/utils/UUPSUpgradeable.sol\":1819:1877  string public constant UPGRADE_INTERFACE_VERSION = \"5.0.0\" */\n    tag_23:\n      callvalue\n      dup1\n      iszero\n      tag_135\n      jumpi\n      0x00\n      dup1\n      revert\n    tag_135:\n      pop\n      tag_136\n      mload(0x40)\n      dup1\n      0x40\n      add\n      0x40\n      mstore\n      dup1\n      0x05\n      dup2\n      mstore\n      0x20\n      add\n      shl(0xdc, 0x0352e302e3)\n      dup2\n      mstore\n      pop\n      dup2\n      jump\n    tag_136:\n      mload(0x40)\n      tag_45\n      swap2\n      swap1\n      tag_139\n      jump\t// in\n        /* \"src/contract/CryptoQuestTheShardsOfGenesisWallet.sol\":3478:3873  function confirmTransaction(uint256 _txIndex)... */\n    tag_24:\n      callvalue\n      dup1\n      iszero\n      tag_140\n      jumpi\n      0x00\n      dup1\n      revert\n    tag_140:\n      pop\n      tag_55\n      tag_142\n      calldatasize\n      0x04\n      tag_57\n      jump\t// in\n    tag_142:\n      tag_143\n      jump\t// in\n        /* \"src/contract/CryptoQuestTheShardsOfGenesisWallet.sol\":1456:1482  uint256 public stakingRate */\n    tag_25:\n      callvalue\n      dup1\n      iszero\n      tag_144\n      jumpi\n      0x00\n      dup1\n      revert\n    tag_144:\n      pop\n      tag_60\n      sload(0x36)\n      dup2\n      jump\n        /* \"src/contract/CryptoQuestTheShardsOfGenesisWallet.sol\":3092:3472  function submitTransaction(address _to, uint256 _value, bytes memory _data) public onlyAdmin {... */\n    tag_26:\n      callvalue\n      dup1\n      iszero\n      tag_148\n      jumpi\n      0x00\n      dup1\n      revert\n    tag_148:\n      pop\n      tag_55\n      tag_150\n      calldatasize\n      0x04\n      tag_151\n      jump\t// in\n    tag_150:\n      tag_152\n      jump\t// in\n        /* \"@openzeppelin/contracts-upgradeable/access/AccessControlUpgradeable.sol\":5662:5800  function revokeRole(bytes32 role, address account) public virtual onlyRole(getRoleAdmin(role)) {... */\n    tag_27:\n      callvalue\n      dup1\n      iszero\n      tag_153\n      jumpi\n      0x00\n      dup1\n      revert\n    tag_153:\n      pop\n      tag_55\n      tag_155\n      calldatasize\n      0x04\n      tag_69\n      jump\t// in\n    tag_155:\n      tag_156\n      jump\t// in\n        /* \"src/contract/CryptoQuestTheShardsOfGenesisWallet.sol\":752:814  bytes32 public constant PAUSER_ROLE = keccak256(\"PAUSER_ROLE\") */\n    tag_28:\n      callvalue\n      dup1\n      iszero\n      tag_157\n      jumpi\n      0x00\n      dup1\n      revert\n    tag_157:\n      pop\n      tag_60\n      0x00\n      dup1\n      mload\n      0x20\n      data_9b87106a812d214d41ad9b68a21119e2948eaaf1040375c939ec808b8862455c\n      dup4\n      codecopy\n      dup2\n      mload\n      swap2\n      mstore\n      dup2\n      jump\n        /* \"src/contract/CryptoQuestTheShardsOfGenesisWallet.sol\":3879:4374  function executeTransaction(uint256 _txIndex) public onlyAdmin txExists(_txIndex) notExecuted(_txIndex) {... */\n    tag_29:\n      callvalue\n      dup1\n      iszero\n      tag_161\n      jumpi\n      0x00\n      dup1\n      revert\n    tag_161:\n      pop\n      tag_55\n      tag_163\n      calldatasize\n      0x04\n      tag_57\n      jump\t// in\n    tag_163:\n      tag_164\n      jump\t// in\n        /* \"src/contract/CryptoQuestTheShardsOfGenesisWallet.sol\":886:952  bytes32 public constant UPGRADER_ROLE = keccak256(\"UPGRADER_ROLE\") */\n    tag_30:\n      callvalue\n      dup1\n      iszero\n      tag_165\n      jumpi\n      0x00\n      dup1\n      revert\n    tag_165:\n      pop\n      tag_60\n        /* \"src/contract/CryptoQuestTheShardsOfGenesisWallet.sol\":926:952  keccak256(\"UPGRADER_ROLE\") */\n      0x189ab7a9244df0848122154315af71fe140f3db0fe014031783b0946b8c9d2e3\n        /* \"src/contract/CryptoQuestTheShardsOfGenesisWallet.sol\":886:952  bytes32 public constant UPGRADER_ROLE = keccak256(\"UPGRADER_ROLE\") */\n      dup2\n      jump\n        /* \"@openzeppelin/contracts-upgradeable/access/AccessControlUpgradeable.sol\":3443:3645  function supportsInterface(bytes4 interfaceId) public view virtual override returns (bool) {... */\n    tag_44:\n        /* \"@openzeppelin/contracts-upgradeable/access/AccessControlUpgradeable.sol\":3528:3532  bool */\n      0x00\n      not(sub(shl(0xe0, 0x01), 0x01))\n        /* \"@openzeppelin/contracts-upgradeable/access/AccessControlUpgradeable.sol\":3551:3598  interfaceId == type(IAccessControl).interfaceId */\n      dup3\n      and\n      shl(0xe0, 0x7965db0b)\n      eq\n      dup1\n        /* \"@openzeppelin/contracts-upgradeable/access/AccessControlUpgradeable.sol\":3551:3638  interfaceId == type(IAccessControl).interfaceId || super.supportsInterface(interfaceId) */\n      tag_171\n      jumpi\n      pop\n      shl(0xe0, 0x01ffc9a7)\n      not(sub(shl(0xe0, 0x01), 0x01))\n        /* \"@openzeppelin/contracts-upgradeable/utils/introspection/ERC165Upgradeable.sol\":1133:1173  interfaceId == type(IERC165).interfaceId */\n      dup4\n      and\n      eq\n        /* \"@openzeppelin/contracts-upgradeable/access/AccessControlUpgradeable.sol\":3602:3638  super.supportsInterface(interfaceId) */\n    tag_171:\n        /* \"@openzeppelin/contracts-upgradeable/access/AccessControlUpgradeable.sol\":3544:3638  return interfaceId == type(IAccessControl).interfaceId || super.supportsInterface(interfaceId) */\n      swap3\n        /* \"@openzeppelin/contracts-upgradeable/access/AccessControlUpgradeable.sol\":3443:3645  function supportsInterface(bytes4 interfaceId) public view virtual override returns (bool) {... */\n      swap2\n      pop\n      pop\n      jump\t// out\n        /* \"src/contract/CryptoQuestTheShardsOfGenesisWallet.sol\":4380:4790  function revokeConfirmation(uint256 _txIndex) public onlyAdmin txExists(_txIndex) notExecuted(_txIndex) {... */\n    tag_58:\n        /* \"src/contract/CryptoQuestTheShardsOfGenesisWallet.sol\":2585:2616  hasRole(ADMIN_ROLE, msg.sender) */\n      tag_174\n      0x00\n      dup1\n      mload\n      0x20\n      data_cb864c43dd5d441bb6271f424f11befa622c032dfd374d226e26fbbdb782b8f8\n      dup4\n      codecopy\n      dup2\n      mload\n      swap2\n      mstore\n        /* \"src/contract/CryptoQuestTheShardsOfGenesisWallet.sol\":2605:2615  msg.sender */\n      caller\n        /* \"src/contract/CryptoQuestTheShardsOfGenesisWallet.sol\":2585:2592  hasRole */\n      tag_120\n        /* \"src/contract/CryptoQuestTheShardsOfGenesisWallet.sol\":2585:2616  hasRole(ADMIN_ROLE, msg.sender) */\n      jump\t// in\n    tag_174:\n        /* \"src/contract/CryptoQuestTheShardsOfGenesisWallet.sol\":2577:2633  require(hasRole(ADMIN_ROLE, msg.sender), \"Not an admin\") */\n      tag_175\n      jumpi\n      mload(0x40)\n      shl(0xe5, 0x461bcd)\n      dup2\n      mstore\n      0x04\n      add\n      tag_176\n      swap1\n      tag_177\n      jump\t// in\n    tag_176:\n      mload(0x40)\n      dup1\n      swap2\n      sub\n      swap1\n      revert\n    tag_175:\n        /* \"src/contract/CryptoQuestTheShardsOfGenesisWallet.sol\":2722:2734  transactions */\n      0x33\n        /* \"src/contract/CryptoQuestTheShardsOfGenesisWallet.sol\":2722:2741  transactions.length */\n      sload\n        /* \"src/contract/CryptoQuestTheShardsOfGenesisWallet.sol\":4452:4460  _txIndex */\n      dup2\n      swap1\n        /* \"src/contract/CryptoQuestTheShardsOfGenesisWallet.sol\":2711:2741  _txIndex < transactions.length */\n      dup2\n      lt\n        /* \"src/contract/CryptoQuestTheShardsOfGenesisWallet.sol\":2703:2772  require(_txIndex < transactions.length, \"Transaction does not exist\") */\n      tag_179\n      jumpi\n      mload(0x40)\n      shl(0xe5, 0x461bcd)\n      dup2\n      mstore\n      0x04\n      add\n      tag_176\n      swap1\n      tag_181\n      jump\t// in\n    tag_179:\n        /* \"src/contract/CryptoQuestTheShardsOfGenesisWallet.sol\":4474:4482  _txIndex */\n      dup2\n        /* \"src/contract/CryptoQuestTheShardsOfGenesisWallet.sol\":2854:2866  transactions */\n      0x33\n        /* \"src/contract/CryptoQuestTheShardsOfGenesisWallet.sol\":2867:2875  _txIndex */\n      dup2\n        /* \"src/contract/CryptoQuestTheShardsOfGenesisWallet.sol\":2854:2876  transactions[_txIndex] */\n      dup2\n      sload\n      dup2\n      lt\n      tag_184\n      jumpi\n      tag_184\n      tag_185\n      jump\t// in\n    tag_184:\n      0x00\n      swap2\n      dup3\n      mstore\n      0x20\n      swap1\n      swap2\n      keccak256\n        /* \"src/contract/CryptoQuestTheShardsOfGenesisWallet.sol\":2854:2885  transactions[_txIndex].executed */\n      0x03\n        /* \"src/contract/CryptoQuestTheShardsOfGenesisWallet.sol\":2854:2876  transactions[_txIndex] */\n      0x05\n      swap1\n      swap3\n      mul\n      add\n        /* \"src/contract/CryptoQuestTheShardsOfGenesisWallet.sol\":2854:2885  transactions[_txIndex].executed */\n      add\n      sload\n      0xff\n      and\n        /* \"src/contract/CryptoQuestTheShardsOfGenesisWallet.sol\":2853:2885  !transactions[_txIndex].executed */\n      iszero\n        /* \"src/contract/CryptoQuestTheShardsOfGenesisWallet.sol\":2845:2918  require(!transactions[_txIndex].executed, \"Transaction already executed\") */\n      tag_187\n      jumpi\n      mload(0x40)\n      shl(0xe5, 0x461bcd)\n      dup2\n      mstore\n      0x04\n      add\n      tag_176\n      swap1\n      tag_189\n      jump\t// in\n    tag_187:\n        /* \"src/contract/CryptoQuestTheShardsOfGenesisWallet.sol\":4494:4525  Transaction storage transaction */\n      0x00\n        /* \"src/contract/CryptoQuestTheShardsOfGenesisWallet.sol\":4528:4540  transactions */\n      0x33\n        /* \"src/contract/CryptoQuestTheShardsOfGenesisWallet.sol\":4541:4549  _txIndex */\n      dup5\n        /* \"src/contract/CryptoQuestTheShardsOfGenesisWallet.sol\":4528:4550  transactions[_txIndex] */\n      dup2\n      sload\n      dup2\n      lt\n      tag_192\n      jumpi\n      tag_192\n      tag_185\n      jump\t// in\n    tag_192:\n      0x00\n      swap2\n      dup3\n      mstore\n      0x20\n      dup1\n      dup4\n      keccak256\n        /* \"src/contract/CryptoQuestTheShardsOfGenesisWallet.sol\":4569:4590  isConfirmed[_txIndex] */\n      dup8\n      dup5\n      mstore\n        /* \"src/contract/CryptoQuestTheShardsOfGenesisWallet.sol\":4569:4580  isConfirmed */\n      0x32\n        /* \"src/contract/CryptoQuestTheShardsOfGenesisWallet.sol\":4569:4590  isConfirmed[_txIndex] */\n      dup3\n      mstore\n      0x40\n      dup1\n      dup6\n      keccak256\n        /* \"src/contract/CryptoQuestTheShardsOfGenesisWallet.sol\":4591:4601  msg.sender */\n      caller\n        /* \"src/contract/CryptoQuestTheShardsOfGenesisWallet.sol\":4569:4602  isConfirmed[_txIndex][msg.sender] */\n      dup7\n      mstore\n      swap1\n      swap3\n      mstore\n      swap3\n      keccak256\n      sload\n        /* \"src/contract/CryptoQuestTheShardsOfGenesisWallet.sol\":4528:4550  transactions[_txIndex] */\n      0x05\n      swap1\n      swap2\n      mul\n      swap1\n      swap2\n      add\n      swap2\n      pop\n        /* \"src/contract/CryptoQuestTheShardsOfGenesisWallet.sol\":4569:4602  isConfirmed[_txIndex][msg.sender] */\n      0xff\n      and\n        /* \"src/contract/CryptoQuestTheShardsOfGenesisWallet.sol\":4561:4632  require(isConfirmed[_txIndex][msg.sender], \"Transaction not confirmed\") */\n      tag_194\n      jumpi\n      mload(0x40)\n      shl(0xe5, 0x461bcd)\n      dup2\n      mstore\n        /* \"#utility.yul\":6868:6870   */\n      0x20\n        /* \"src/contract/CryptoQuestTheShardsOfGenesisWallet.sol\":4561:4632  require(isConfirmed[_txIndex][msg.sender], \"Transaction not confirmed\") */\n      0x04\n      dup3\n      add\n        /* \"#utility.yul\":6850:6871   */\n      mstore\n        /* \"#utility.yul\":6907:6909   */\n      0x19\n        /* \"#utility.yul\":6887:6905   */\n      0x24\n      dup3\n      add\n        /* \"#utility.yul\":6880:6910   */\n      mstore\n        /* \"#utility.yul\":6946:6973   */\n      0x5472616e73616374696f6e206e6f7420636f6e6669726d656400000000000000\n        /* \"#utility.yul\":6926:6944   */\n      0x44\n      dup3\n      add\n        /* \"#utility.yul\":6919:6974   */\n      mstore\n        /* \"#utility.yul\":6991:7009   */\n      0x64\n      add\n        /* \"src/contract/CryptoQuestTheShardsOfGenesisWallet.sol\":4561:4632  require(isConfirmed[_txIndex][msg.sender], \"Transaction not confirmed\") */\n      tag_176\n        /* \"#utility.yul\":6666:7015   */\n      jump\n        /* \"src/contract/CryptoQuestTheShardsOfGenesisWallet.sol\":4561:4632  require(isConfirmed[_txIndex][msg.sender], \"Transaction not confirmed\") */\n    tag_194:\n        /* \"src/contract/CryptoQuestTheShardsOfGenesisWallet.sol\":4675:4676  1 */\n      0x01\n        /* \"src/contract/CryptoQuestTheShardsOfGenesisWallet.sol\":4643:4654  transaction */\n      dup2\n        /* \"src/contract/CryptoQuestTheShardsOfGenesisWallet.sol\":4643:4671  transaction.numConfirmations */\n      0x04\n      add\n      0x00\n        /* \"src/contract/CryptoQuestTheShardsOfGenesisWallet.sol\":4643:4676  transaction.numConfirmations -= 1 */\n      dup3\n      dup3\n      sload\n      tag_197\n      swap2\n      swap1\n      tag_198\n      jump\t// in\n    tag_197:\n      swap1\n      swap2\n      sstore\n      pop\n      pop\n        /* \"src/contract/CryptoQuestTheShardsOfGenesisWallet.sol\":4722:4727  false */\n      0x00\n        /* \"src/contract/CryptoQuestTheShardsOfGenesisWallet.sol\":4686:4707  isConfirmed[_txIndex] */\n      dup5\n      dup2\n      mstore\n        /* \"src/contract/CryptoQuestTheShardsOfGenesisWallet.sol\":4686:4697  isConfirmed */\n      0x32\n        /* \"src/contract/CryptoQuestTheShardsOfGenesisWallet.sol\":4686:4707  isConfirmed[_txIndex] */\n      0x20\n      swap1\n      dup2\n      mstore\n      0x40\n      dup1\n      dup4\n      keccak256\n        /* \"src/contract/CryptoQuestTheShardsOfGenesisWallet.sol\":4708:4718  msg.sender */\n      caller\n        /* \"src/contract/CryptoQuestTheShardsOfGenesisWallet.sol\":4686:4719  isConfirmed[_txIndex][msg.sender] */\n      dup1\n      dup6\n      mstore\n      swap3\n      mstore\n      dup1\n      dup4\n      keccak256\n        /* \"src/contract/CryptoQuestTheShardsOfGenesisWallet.sol\":4686:4727  isConfirmed[_txIndex][msg.sender] = false */\n      dup1\n      sload\n      not(0xff)\n      and\n      swap1\n      sstore\n        /* \"src/contract/CryptoQuestTheShardsOfGenesisWallet.sol\":4743:4783  TransactionRevoked(msg.sender, _txIndex) */\n      mload\n        /* \"src/contract/CryptoQuestTheShardsOfGenesisWallet.sol\":4698:4706  _txIndex */\n      dup7\n      swap3\n        /* \"src/contract/CryptoQuestTheShardsOfGenesisWallet.sol\":4743:4783  TransactionRevoked(msg.sender, _txIndex) */\n      0xe5c8875c5e14471f806f15f740cd9fd54937d151e9dcf8ad3ba988d6a285e67e\n      swap2\n      log3\n        /* \"src/contract/CryptoQuestTheShardsOfGenesisWallet.sol\":4484:4790  {... */\n      pop\n        /* \"src/contract/CryptoQuestTheShardsOfGenesisWallet.sol\":2782:2783  _ */\n      pop\n        /* \"src/contract/CryptoQuestTheShardsOfGenesisWallet.sol\":2643:2644  _ */\n      pop\n        /* \"src/contract/CryptoQuestTheShardsOfGenesisWallet.sol\":4380:4790  function revokeConfirmation(uint256 _txIndex) public onlyAdmin txExists(_txIndex) notExecuted(_txIndex) {... */\n      pop\n      jump\t// out\n        /* \"@openzeppelin/contracts-upgradeable/access/AccessControlUpgradeable.sol\":4759:4950  function getRoleAdmin(bytes32 role) public view virtual returns (bytes32) {... */\n    tag_63:\n        /* \"@openzeppelin/contracts-upgradeable/access/AccessControlUpgradeable.sol\":4824:4831  bytes32 */\n      0x00\n        /* \"@openzeppelin/contracts-upgradeable/access/AccessControlUpgradeable.sol\":4919:4933  $._roles[role] */\n      swap1\n      dup2\n      mstore\n      0x00\n      dup1\n      mload\n      0x20\n      data_b3da67d1b252aeab7c8063542d95e75f82a5307a82535949bc38f7cf7ba8897f\n      dup4\n      codecopy\n      dup2\n      mload\n      swap2\n      mstore\n      0x20\n      mstore\n      0x40\n      swap1\n      keccak256\n        /* \"@openzeppelin/contracts-upgradeable/access/AccessControlUpgradeable.sol\":4919:4943  $._roles[role].adminRole */\n      0x01\n      add\n      sload\n      swap1\n        /* \"@openzeppelin/contracts-upgradeable/access/AccessControlUpgradeable.sol\":4759:4950  function getRoleAdmin(bytes32 role) public view virtual returns (bytes32) {... */\n      jump\t// out\n        /* \"@openzeppelin/contracts-upgradeable/access/AccessControlUpgradeable.sol\":5246:5382  function grantRole(bytes32 role, address account) public virtual onlyRole(getRoleAdmin(role)) {... */\n    tag_70:\n        /* \"@openzeppelin/contracts-upgradeable/access/AccessControlUpgradeable.sol\":5320:5338  getRoleAdmin(role) */\n      tag_202\n        /* \"@openzeppelin/contracts-upgradeable/access/AccessControlUpgradeable.sol\":5333:5337  role */\n      dup3\n        /* \"@openzeppelin/contracts-upgradeable/access/AccessControlUpgradeable.sol\":5320:5332  getRoleAdmin */\n      tag_63\n        /* \"@openzeppelin/contracts-upgradeable/access/AccessControlUpgradeable.sol\":5320:5338  getRoleAdmin(role) */\n      jump\t// in\n    tag_202:\n        /* \"@openzeppelin/contracts-upgradeable/access/AccessControlUpgradeable.sol\":3191:3207  _checkRole(role) */\n      tag_204\n        /* \"@openzeppelin/contracts-upgradeable/access/AccessControlUpgradeable.sol\":3202:3206  role */\n      dup2\n        /* \"@openzeppelin/contracts-upgradeable/access/AccessControlUpgradeable.sol\":3191:3201  _checkRole */\n      tag_205\n        /* \"@openzeppelin/contracts-upgradeable/access/AccessControlUpgradeable.sol\":3191:3207  _checkRole(role) */\n      jump\t// in\n    tag_204:\n        /* \"@openzeppelin/contracts-upgradeable/access/AccessControlUpgradeable.sol\":5350:5375  _grantRole(role, account) */\n      tag_207\n        /* \"@openzeppelin/contracts-upgradeable/access/AccessControlUpgradeable.sol\":5361:5365  role */\n      dup4\n        /* \"@openzeppelin/contracts-upgradeable/access/AccessControlUpgradeable.sol\":5367:5374  account */\n      dup4\n        /* \"@openzeppelin/contracts-upgradeable/access/AccessControlUpgradeable.sol\":5350:5360  _grantRole */\n      tag_208\n        /* \"@openzeppelin/contracts-upgradeable/access/AccessControlUpgradeable.sol\":5350:5375  _grantRole(role, account) */\n      jump\t// in\n    tag_207:\n      pop\n        /* \"@openzeppelin/contracts-upgradeable/access/AccessControlUpgradeable.sol\":5246:5382  function grantRole(bytes32 role, address account) public virtual onlyRole(getRoleAdmin(role)) {... */\n      pop\n      pop\n      pop\n      jump\t// out\n        /* \"@openzeppelin/contracts-upgradeable/access/AccessControlUpgradeable.sol\":6348:6593  function renounceRole(bytes32 role, address callerConfirmation) public virtual {... */\n    tag_74:\n      sub(shl(0xa0, 0x01), 0x01)\n        /* \"@openzeppelin/contracts-upgradeable/access/AccessControlUpgradeable.sol\":6441:6475  callerConfirmation != _msgSender() */\n      dup2\n      and\n        /* \"@openzeppelin/contracts-upgradeable/utils/ContextUpgradeable.sol\":966:976  msg.sender */\n      caller\n        /* \"@openzeppelin/contracts-upgradeable/access/AccessControlUpgradeable.sol\":6441:6475  callerConfirmation != _msgSender() */\n      eq\n        /* \"@openzeppelin/contracts-upgradeable/access/AccessControlUpgradeable.sol\":6437:6539  if (callerConfirmation != _msgSender()) {... */\n      tag_212\n      jumpi\n        /* \"@openzeppelin/contracts-upgradeable/access/AccessControlUpgradeable.sol\":6498:6528  AccessControlBadConfirmation() */\n      mload(0x40)\n      shl(0xe1, 0x334bd919)\n      dup2\n      mstore\n      0x04\n      add\n      mload(0x40)\n      dup1\n      swap2\n      sub\n      swap1\n      revert\n        /* \"@openzeppelin/contracts-upgradeable/access/AccessControlUpgradeable.sol\":6437:6539  if (callerConfirmation != _msgSender()) {... */\n    tag_212:\n        /* \"@openzeppelin/contracts-upgradeable/access/AccessControlUpgradeable.sol\":6549:6586  _revokeRole(role, callerConfirmation) */\n      tag_213\n        /* \"@openzeppelin/contracts-upgradeable/access/AccessControlUpgradeable.sol\":6561:6565  role */\n      dup3\n        /* \"@openzeppelin/contracts-upgradeable/access/AccessControlUpgradeable.sol\":6567:6585  callerConfirmation */\n      dup3\n        /* \"@openzeppelin/contracts-upgradeable/access/AccessControlUpgradeable.sol\":6549:6560  _revokeRole */\n      tag_214\n        /* \"@openzeppelin/contracts-upgradeable/access/AccessControlUpgradeable.sol\":6549:6586  _revokeRole(role, callerConfirmation) */\n      jump\t// in\n    tag_213:\n      pop\n        /* \"@openzeppelin/contracts-upgradeable/access/AccessControlUpgradeable.sol\":6348:6593  function renounceRole(bytes32 role, address callerConfirmation) public virtual {... */\n      pop\n      pop\n      jump\t// out\n        /* \"src/contract/CryptoQuestTheShardsOfGenesisWallet.sol\":5905:5980  function unpause() public onlyRole(PAUSER_ROLE) {... */\n    tag_77:\n      0x00\n      dup1\n      mload\n      0x20\n      data_9b87106a812d214d41ad9b68a21119e2948eaaf1040375c939ec808b8862455c\n      dup4\n      codecopy\n      dup2\n      mload\n      swap2\n      mstore\n        /* \"@openzeppelin/contracts-upgradeable/access/AccessControlUpgradeable.sol\":3191:3207  _checkRole(role) */\n      tag_216\n        /* \"@openzeppelin/contracts-upgradeable/access/AccessControlUpgradeable.sol\":3202:3206  role */\n      dup2\n        /* \"@openzeppelin/contracts-upgradeable/access/AccessControlUpgradeable.sol\":3191:3201  _checkRole */\n      tag_205\n        /* \"@openzeppelin/contracts-upgradeable/access/AccessControlUpgradeable.sol\":3191:3207  _checkRole(role) */\n      jump\t// in\n    tag_216:\n        /* \"src/contract/CryptoQuestTheShardsOfGenesisWallet.sol\":5963:5973  _unpause() */\n      tag_218\n        /* \"src/contract/CryptoQuestTheShardsOfGenesisWallet.sol\":5963:5971  _unpause */\n      tag_219\n        /* \"src/contract/CryptoQuestTheShardsOfGenesisWallet.sol\":5963:5973  _unpause() */\n      jump\t// in\n    tag_218:\n        /* \"src/contract/CryptoQuestTheShardsOfGenesisWallet.sol\":5905:5980  function unpause() public onlyRole(PAUSER_ROLE) {... */\n      pop\n      jump\t// out\n        /* \"@openzeppelin/contracts-upgradeable/proxy/utils/UUPSUpgradeable.sol\":4158:4372  function upgradeToAndCall(address newImplementation, bytes memory data) public payable virtual onlyProxy {... */\n    tag_81:\n        /* \"@openzeppelin/contracts-upgradeable/proxy/utils/UUPSUpgradeable.sol\":2653:2666  _checkProxy() */\n      tag_221\n        /* \"@openzeppelin/contracts-upgradeable/proxy/utils/UUPSUpgradeable.sol\":2653:2664  _checkProxy */\n      tag_222\n        /* \"@openzeppelin/contracts-upgradeable/proxy/utils/UUPSUpgradeable.sol\":2653:2666  _checkProxy() */\n      jump\t// in\n    tag_221:\n        /* \"@openzeppelin/contracts-upgradeable/proxy/utils/UUPSUpgradeable.sol\":4273:4309  _authorizeUpgrade(newImplementation) */\n      tag_224\n        /* \"@openzeppelin/contracts-upgradeable/proxy/utils/UUPSUpgradeable.sol\":4291:4308  newImplementation */\n      dup3\n        /* \"@openzeppelin/contracts-upgradeable/proxy/utils/UUPSUpgradeable.sol\":4273:4290  _authorizeUpgrade */\n      tag_225\n        /* \"@openzeppelin/contracts-upgradeable/proxy/utils/UUPSUpgradeable.sol\":4273:4309  _authorizeUpgrade(newImplementation) */\n      jump\t// in\n    tag_224:\n        /* \"@openzeppelin/contracts-upgradeable/proxy/utils/UUPSUpgradeable.sol\":4319:4365  _upgradeToAndCallUUPS(newImplementation, data) */\n      tag_226\n        /* \"@openzeppelin/contracts-upgradeable/proxy/utils/UUPSUpgradeable.sol\":4341:4358  newImplementation */\n      dup3\n        /* \"@openzeppelin/contracts-upgradeable/proxy/utils/UUPSUpgradeable.sol\":4360:4364  data */\n      dup3\n        /* \"@openzeppelin/contracts-upgradeable/proxy/utils/UUPSUpgradeable.sol\":4319:4340  _upgradeToAndCallUUPS */\n      tag_227\n        /* \"@openzeppelin/contracts-upgradeable/proxy/utils/UUPSUpgradeable.sol\":4319:4365  _upgradeToAndCallUUPS(newImplementation, data) */\n      jump\t// in\n    tag_226:\n        /* \"@openzeppelin/contracts-upgradeable/proxy/utils/UUPSUpgradeable.sol\":4158:4372  function upgradeToAndCall(address newImplementation, bytes memory data) public payable virtual onlyProxy {... */\n      pop\n      pop\n      jump\t// out\n        /* \"@openzeppelin/contracts-upgradeable/proxy/utils/UUPSUpgradeable.sol\":3705:3839  function proxiableUUID() external view virtual notDelegated returns (bytes32) {... */\n    tag_84:\n        /* \"@openzeppelin/contracts-upgradeable/proxy/utils/UUPSUpgradeable.sol\":3774:3781  bytes32 */\n      0x00\n        /* \"@openzeppelin/contracts-upgradeable/proxy/utils/UUPSUpgradeable.sol\":2924:2944  _checkNotDelegated() */\n      tag_229\n        /* \"@openzeppelin/contracts-upgradeable/proxy/utils/UUPSUpgradeable.sol\":2924:2942  _checkNotDelegated */\n      tag_230\n        /* \"@openzeppelin/contracts-upgradeable/proxy/utils/UUPSUpgradeable.sol\":2924:2944  _checkNotDelegated() */\n      jump\t// in\n    tag_229:\n      pop\n      0x00\n      dup1\n      mload\n      0x20\n      data_75b20eef8615de99c108b05f0dbda081c91897128caa336d75dffb97c4132b4d\n      dup4\n      codecopy\n      dup2\n      mload\n      swap2\n      mstore\n        /* \"@openzeppelin/contracts-upgradeable/proxy/utils/UUPSUpgradeable.sol\":3705:3839  function proxiableUUID() external view virtual notDelegated returns (bytes32) {... */\n      swap1\n      jump\t// out\n        /* \"src/contract/CryptoQuestTheShardsOfGenesisWallet.sol\":4825:5241  function stakeTokens(uint256 _amount) public whenNotPaused {... */\n    tag_93:\n        /* \"@openzeppelin/contracts-upgradeable/security/PausableUpgradeable.sol\":1503:1522  _requireNotPaused() */\n      tag_234\n        /* \"@openzeppelin/contracts-upgradeable/security/PausableUpgradeable.sol\":1503:1520  _requireNotPaused */\n      tag_235\n        /* \"@openzeppelin/contracts-upgradeable/security/PausableUpgradeable.sol\":1503:1522  _requireNotPaused() */\n      jump\t// in\n    tag_234:\n        /* \"src/contract/CryptoQuestTheShardsOfGenesisWallet.sol\":4970:5024  token.transferFrom(msg.sender, address(this), _amount) */\n      mload(0x40)\n      shl(0xe0, 0x23b872dd)\n      dup2\n      mstore\n        /* \"src/contract/CryptoQuestTheShardsOfGenesisWallet.sol\":4989:4999  msg.sender */\n      caller\n        /* \"src/contract/CryptoQuestTheShardsOfGenesisWallet.sol\":4970:5024  token.transferFrom(msg.sender, address(this), _amount) */\n      0x04\n      dup3\n      add\n        /* \"#utility.yul\":7525:7559   */\n      mstore\n        /* \"src/contract/CryptoQuestTheShardsOfGenesisWallet.sol\":4946:4950  this */\n      address\n        /* \"#utility.yul\":7575:7593   */\n      0x24\n      dup3\n      add\n        /* \"#utility.yul\":7568:7611   */\n      dup2\n      swap1\n      mstore\n        /* \"#utility.yul\":7627:7645   */\n      0x44\n      dup3\n      add\n        /* \"#utility.yul\":7620:7654   */\n      dup4\n      swap1\n      mstore\n        /* \"src/contract/CryptoQuestTheShardsOfGenesisWallet.sol\":4946:4950  this */\n      swap1\n      dup2\n      swap1\n        /* \"src/contract/CryptoQuestTheShardsOfGenesisWallet.sol\":4970:4988  token.transferFrom */\n      0x23b872dd\n      swap1\n        /* \"#utility.yul\":7460:7478   */\n      0x64\n      add\n        /* \"src/contract/CryptoQuestTheShardsOfGenesisWallet.sol\":4970:5024  token.transferFrom(msg.sender, address(this), _amount) */\n      0x20\n      mload(0x40)\n      dup1\n      dup4\n      sub\n      dup2\n      0x00\n      dup8\n      gas\n      call\n      iszero\n      dup1\n      iszero\n      tag_240\n      jumpi\n      returndatasize\n      0x00\n      dup1\n      returndatacopy\n      revert(0x00, returndatasize)\n    tag_240:\n      pop\n      pop\n      pop\n      pop\n      mload(0x40)\n      returndatasize\n      not(0x1f)\n      0x1f\n      dup3\n      add\n      and\n      dup3\n      add\n      dup1\n      0x40\n      mstore\n      pop\n      dup2\n      add\n      swap1\n      tag_241\n      swap2\n      swap1\n      tag_242\n      jump\t// in\n    tag_241:\n        /* \"src/contract/CryptoQuestTheShardsOfGenesisWallet.sol\":4962:5050  require(token.transferFrom(msg.sender, address(this), _amount), \"Token transfer failed\") */\n      tag_243\n      jumpi\n      mload(0x40)\n      shl(0xe5, 0x461bcd)\n      dup2\n      mstore\n        /* \"#utility.yul\":8149:8151   */\n      0x20\n        /* \"src/contract/CryptoQuestTheShardsOfGenesisWallet.sol\":4962:5050  require(token.transferFrom(msg.sender, address(this), _amount), \"Token transfer failed\") */\n      0x04\n      dup3\n      add\n        /* \"#utility.yul\":8131:8152   */\n      mstore\n        /* \"#utility.yul\":8188:8190   */\n      0x15\n        /* \"#utility.yul\":8168:8186   */\n      0x24\n      dup3\n      add\n        /* \"#utility.yul\":8161:8191   */\n      mstore\n      shl(0x5a, 0x151bdad95b881d1c985b9cd9995c8819985a5b1959)\n        /* \"#utility.yul\":8207:8225   */\n      0x44\n      dup3\n      add\n        /* \"#utility.yul\":8200:8251   */\n      mstore\n        /* \"#utility.yul\":8268:8286   */\n      0x64\n      add\n        /* \"src/contract/CryptoQuestTheShardsOfGenesisWallet.sol\":4962:5050  require(token.transferFrom(msg.sender, address(this), _amount), \"Token transfer failed\") */\n      tag_176\n        /* \"#utility.yul\":7947:8292   */\n      jump\n        /* \"src/contract/CryptoQuestTheShardsOfGenesisWallet.sol\":4962:5050  require(token.transferFrom(msg.sender, address(this), _amount), \"Token transfer failed\") */\n    tag_243:\n        /* \"src/contract/CryptoQuestTheShardsOfGenesisWallet.sol\":5082:5168  Stake({... */\n      0x40\n      dup1\n      mload\n      dup1\n      dup3\n      add\n      dup3\n      mstore\n      dup4\n      dup2\n      mstore\n        /* \"src/contract/CryptoQuestTheShardsOfGenesisWallet.sol\":5142:5157  block.timestamp */\n      timestamp\n        /* \"src/contract/CryptoQuestTheShardsOfGenesisWallet.sol\":5082:5168  Stake({... */\n      0x20\n      dup1\n      dup4\n      add\n      dup3\n      dup2\n      mstore\n        /* \"src/contract/CryptoQuestTheShardsOfGenesisWallet.sol\":5068:5078  msg.sender */\n      caller\n      0x00\n        /* \"src/contract/CryptoQuestTheShardsOfGenesisWallet.sol\":5061:5079  stakes[msg.sender] */\n      dup2\n      dup2\n      mstore\n        /* \"src/contract/CryptoQuestTheShardsOfGenesisWallet.sol\":5061:5067  stakes */\n      0x35\n        /* \"src/contract/CryptoQuestTheShardsOfGenesisWallet.sol\":5061:5079  stakes[msg.sender] */\n      dup5\n      mstore\n      dup7\n      swap1\n      keccak256\n        /* \"src/contract/CryptoQuestTheShardsOfGenesisWallet.sol\":5061:5168  stakes[msg.sender] = Stake({... */\n      swap5\n      mload\n      dup6\n      sstore\n      swap1\n      mload\n      0x01\n      swap1\n      swap5\n      add\n      swap4\n      swap1\n      swap4\n      sstore\n        /* \"src/contract/CryptoQuestTheShardsOfGenesisWallet.sol\":5184:5234  TokensStaked(msg.sender, _amount, block.timestamp) */\n      dup4\n      mload\n        /* \"#utility.yul\":1040:1065   */\n      dup7\n      dup2\n      mstore\n        /* \"#utility.yul\":1081:1099   */\n      swap1\n      dup2\n      add\n        /* \"#utility.yul\":1074:1108   */\n      swap2\n      swap1\n      swap2\n      mstore\n        /* \"src/contract/CryptoQuestTheShardsOfGenesisWallet.sol\":5068:5078  msg.sender */\n      swap1\n      swap2\n        /* \"src/contract/CryptoQuestTheShardsOfGenesisWallet.sol\":5184:5234  TokensStaked(msg.sender, _amount, block.timestamp) */\n      0xdd2a19c3bdd089cbe77c04f5655f83de0504d6140d12c8667646f55d0557c4dc\n      swap2\n        /* \"#utility.yul\":1013:1031   */\n      add\n        /* \"src/contract/CryptoQuestTheShardsOfGenesisWallet.sol\":5184:5234  TokensStaked(msg.sender, _amount, block.timestamp) */\n      mload(0x40)\n      dup1\n      swap2\n      sub\n      swap1\n      log2\n        /* \"src/contract/CryptoQuestTheShardsOfGenesisWallet.sol\":4884:5241  {... */\n      pop\n        /* \"src/contract/CryptoQuestTheShardsOfGenesisWallet.sol\":4825:5241  function stakeTokens(uint256 _amount) public whenNotPaused {... */\n      pop\n      jump\t// out\n        /* \"src/contract/CryptoQuestTheShardsOfGenesisWallet.sol\":2070:2540  function initialize(address admin, uint256 _requiredConfirmations, uint256 _stakingRate) initializer public {... */\n    tag_102:\n        /* \"@openzeppelin/contracts-upgradeable/proxy/utils/Initializable.sol\":8870:8891  INITIALIZABLE_STORAGE */\n      0xf0c57e16840df040f15088dc2f81fe391c3923bec73e23a9662efc9c229c6a00\n        /* \"@openzeppelin/contracts-upgradeable/proxy/utils/Initializable.sol\":4302:4317  $._initializing */\n      dup1\n      sload\n      shl(0x40, 0x01)\n      dup2\n      div\n      0xff\n      and\n        /* \"@openzeppelin/contracts-upgradeable/proxy/utils/Initializable.sol\":4301:4317  !$._initializing */\n      iszero\n      swap1\n        /* \"@openzeppelin/contracts-upgradeable/proxy/utils/Initializable.sol\":4348:4362  $._initialized */\n      0xffffffffffffffff\n      and\n        /* \"@openzeppelin/contracts-upgradeable/proxy/utils/Initializable.sol\":4158:4188  InitializableStorage storage $ */\n      0x00\n        /* \"@openzeppelin/contracts-upgradeable/proxy/utils/Initializable.sol\":4726:4742  initialized == 0 */\n      dup2\n      iszero\n        /* \"@openzeppelin/contracts-upgradeable/proxy/utils/Initializable.sol\":4726:4760  initialized == 0 && isTopLevelCall */\n      dup1\n      iszero\n      tag_250\n      jumpi\n      pop\n        /* \"@openzeppelin/contracts-upgradeable/proxy/utils/Initializable.sol\":4746:4760  isTopLevelCall */\n      dup3\n        /* \"@openzeppelin/contracts-upgradeable/proxy/utils/Initializable.sol\":4726:4760  initialized == 0 && isTopLevelCall */\n    tag_250:\n        /* \"@openzeppelin/contracts-upgradeable/proxy/utils/Initializable.sol\":4706:4760  bool initialSetup = initialized == 0 && isTopLevelCall */\n      swap1\n      pop\n        /* \"@openzeppelin/contracts-upgradeable/proxy/utils/Initializable.sol\":4770:4787  bool construction */\n      0x00\n        /* \"@openzeppelin/contracts-upgradeable/proxy/utils/Initializable.sol\":4790:4801  initialized */\n      dup3\n        /* \"@openzeppelin/contracts-upgradeable/proxy/utils/Initializable.sol\":4790:4806  initialized == 1 */\n      0xffffffffffffffff\n      and\n        /* \"@openzeppelin/contracts-upgradeable/proxy/utils/Initializable.sol\":4805:4806  1 */\n      0x01\n        /* \"@openzeppelin/contracts-upgradeable/proxy/utils/Initializable.sol\":4790:4806  initialized == 1 */\n      eq\n        /* \"@openzeppelin/contracts-upgradeable/proxy/utils/Initializable.sol\":4790:4840  initialized == 1 && address(this).code.length == 0 */\n      dup1\n      iszero\n      tag_251\n      jumpi\n      pop\n        /* \"@openzeppelin/contracts-upgradeable/proxy/utils/Initializable.sol\":4818:4822  this */\n      address\n        /* \"@openzeppelin/contracts-upgradeable/proxy/utils/Initializable.sol\":4810:4835  address(this).code.length */\n      extcodesize\n        /* \"@openzeppelin/contracts-upgradeable/proxy/utils/Initializable.sol\":4810:4840  address(this).code.length == 0 */\n      iszero\n        /* \"@openzeppelin/contracts-upgradeable/proxy/utils/Initializable.sol\":4790:4840  initialized == 1 && address(this).code.length == 0 */\n    tag_251:\n        /* \"@openzeppelin/contracts-upgradeable/proxy/utils/Initializable.sol\":4770:4840  bool construction = initialized == 1 && address(this).code.length == 0 */\n      swap1\n      pop\n        /* \"@openzeppelin/contracts-upgradeable/proxy/utils/Initializable.sol\":4856:4868  initialSetup */\n      dup2\n        /* \"@openzeppelin/contracts-upgradeable/proxy/utils/Initializable.sol\":4855:4868  !initialSetup */\n      iszero\n        /* \"@openzeppelin/contracts-upgradeable/proxy/utils/Initializable.sol\":4855:4885  !initialSetup && !construction */\n      dup1\n      iszero\n      tag_252\n      jumpi\n      pop\n        /* \"@openzeppelin/contracts-upgradeable/proxy/utils/Initializable.sol\":4873:4885  construction */\n      dup1\n        /* \"@openzeppelin/contracts-upgradeable/proxy/utils/Initializable.sol\":4872:4885  !construction */\n      iszero\n        /* \"@openzeppelin/contracts-upgradeable/proxy/utils/Initializable.sol\":4855:4885  !initialSetup && !construction */\n    tag_252:\n        /* \"@openzeppelin/contracts-upgradeable/proxy/utils/Initializable.sol\":4851:4942  if (!initialSetup && !construction) {... */\n      iszero\n      tag_253\n      jumpi\n        /* \"@openzeppelin/contracts-upgradeable/proxy/utils/Initializable.sol\":4908:4931  InvalidInitialization() */\n      mload(0x40)\n      shl(0xe0, 0xf92ee8a9)\n      dup2\n      mstore\n      0x04\n      add\n      mload(0x40)\n      dup1\n      swap2\n      sub\n      swap1\n      revert\n        /* \"@openzeppelin/contracts-upgradeable/proxy/utils/Initializable.sol\":4851:4942  if (!initialSetup && !construction) {... */\n    tag_253:\n        /* \"@openzeppelin/contracts-upgradeable/proxy/utils/Initializable.sol\":4951:4969  $._initialized = 1 */\n      dup5\n      sload\n      not(0xffffffffffffffff)\n      and\n        /* \"@openzeppelin/contracts-upgradeable/proxy/utils/Initializable.sol\":4968:4969  1 */\n      0x01\n        /* \"@openzeppelin/contracts-upgradeable/proxy/utils/Initializable.sol\":4951:4969  $._initialized = 1 */\n      or\n      dup6\n      sstore\n        /* \"@openzeppelin/contracts-upgradeable/proxy/utils/Initializable.sol\":4979:5046  if (isTopLevelCall) {... */\n      dup4\n      iszero\n      tag_254\n      jumpi\n        /* \"@openzeppelin/contracts-upgradeable/proxy/utils/Initializable.sol\":5013:5035  $._initializing = true */\n      dup5\n      sload\n      not(shl(0x40, 0xff))\n      and\n      shl(0x40, 0x01)\n      or\n      dup6\n      sstore\n        /* \"@openzeppelin/contracts-upgradeable/proxy/utils/Initializable.sol\":4979:5046  if (isTopLevelCall) {... */\n    tag_254:\n        /* \"src/contract/CryptoQuestTheShardsOfGenesisWallet.sol\":2188:2210  __AccessControl_init() */\n      tag_256\n        /* \"src/contract/CryptoQuestTheShardsOfGenesisWallet.sol\":2188:2208  __AccessControl_init */\n      tag_257\n        /* \"src/contract/CryptoQuestTheShardsOfGenesisWallet.sol\":2188:2210  __AccessControl_init() */\n      jump\t// in\n    tag_256:\n        /* \"src/contract/CryptoQuestTheShardsOfGenesisWallet.sol\":2220:2237  __Pausable_init() */\n      tag_258\n        /* \"src/contract/CryptoQuestTheShardsOfGenesisWallet.sol\":2220:2235  __Pausable_init */\n      tag_259\n        /* \"src/contract/CryptoQuestTheShardsOfGenesisWallet.sol\":2220:2237  __Pausable_init() */\n      jump\t// in\n    tag_258:\n        /* \"src/contract/CryptoQuestTheShardsOfGenesisWallet.sol\":2247:2271  __UUPSUpgradeable_init() */\n      tag_260\n        /* \"src/contract/CryptoQuestTheShardsOfGenesisWallet.sol\":2247:2269  __UUPSUpgradeable_init */\n      tag_257\n        /* \"src/contract/CryptoQuestTheShardsOfGenesisWallet.sol\":2247:2271  __UUPSUpgradeable_init() */\n      jump\t// in\n    tag_260:\n        /* \"src/contract/CryptoQuestTheShardsOfGenesisWallet.sol\":2282:2319  _grantRole(DEFAULT_ADMIN_ROLE, admin) */\n      tag_262\n        /* \"@openzeppelin/contracts-upgradeable/access/AccessControlUpgradeable.sol\":2362:2366  0x00 */\n      0x00\n        /* \"src/contract/CryptoQuestTheShardsOfGenesisWallet.sol\":2313:2318  admin */\n      dup10\n        /* \"src/contract/CryptoQuestTheShardsOfGenesisWallet.sol\":2282:2292  _grantRole */\n      tag_208\n        /* \"src/contract/CryptoQuestTheShardsOfGenesisWallet.sol\":2282:2319  _grantRole(DEFAULT_ADMIN_ROLE, admin) */\n      jump\t// in\n    tag_262:\n      pop\n        /* \"src/contract/CryptoQuestTheShardsOfGenesisWallet.sol\":2329:2359  _grantRole(PAUSER_ROLE, admin) */\n      tag_263\n      0x00\n      dup1\n      mload\n      0x20\n      data_9b87106a812d214d41ad9b68a21119e2948eaaf1040375c939ec808b8862455c\n      dup4\n      codecopy\n      dup2\n      mload\n      swap2\n      mstore\n        /* \"src/contract/CryptoQuestTheShardsOfGenesisWallet.sol\":2353:2358  admin */\n      dup10\n        /* \"src/contract/CryptoQuestTheShardsOfGenesisWallet.sol\":2329:2339  _grantRole */\n      tag_208\n        /* \"src/contract/CryptoQuestTheShardsOfGenesisWallet.sol\":2329:2359  _grantRole(PAUSER_ROLE, admin) */\n      jump\t// in\n    tag_263:\n      pop\n        /* \"src/contract/CryptoQuestTheShardsOfGenesisWallet.sol\":2369:2398  _grantRole(ADMIN_ROLE, admin) */\n      tag_264\n      0x00\n      dup1\n      mload\n      0x20\n      data_cb864c43dd5d441bb6271f424f11befa622c032dfd374d226e26fbbdb782b8f8\n      dup4\n      codecopy\n      dup2\n      mload\n      swap2\n      mstore\n        /* \"src/contract/CryptoQuestTheShardsOfGenesisWallet.sol\":2392:2397  admin */\n      dup10\n        /* \"src/contract/CryptoQuestTheShardsOfGenesisWallet.sol\":2369:2379  _grantRole */\n      tag_208\n        /* \"src/contract/CryptoQuestTheShardsOfGenesisWallet.sol\":2369:2398  _grantRole(ADMIN_ROLE, admin) */\n      jump\t// in\n    tag_264:\n      pop\n        /* \"src/contract/CryptoQuestTheShardsOfGenesisWallet.sol\":2408:2440  _grantRole(UPGRADER_ROLE, admin) */\n      tag_265\n        /* \"src/contract/CryptoQuestTheShardsOfGenesisWallet.sol\":926:952  keccak256(\"UPGRADER_ROLE\") */\n      0x189ab7a9244df0848122154315af71fe140f3db0fe014031783b0946b8c9d2e3\n        /* \"src/contract/CryptoQuestTheShardsOfGenesisWallet.sol\":2434:2439  admin */\n      dup10\n        /* \"src/contract/CryptoQuestTheShardsOfGenesisWallet.sol\":2408:2418  _grantRole */\n      tag_208\n        /* \"src/contract/CryptoQuestTheShardsOfGenesisWallet.sol\":2408:2440  _grantRole(UPGRADER_ROLE, admin) */\n      jump\t// in\n    tag_265:\n      pop\n        /* \"src/contract/CryptoQuestTheShardsOfGenesisWallet.sol\":2451:2472  requiredConfirmations */\n      0x34\n        /* \"src/contract/CryptoQuestTheShardsOfGenesisWallet.sol\":2451:2497  requiredConfirmations = _requiredConfirmations */\n      dup8\n      swap1\n      sstore\n        /* \"src/contract/CryptoQuestTheShardsOfGenesisWallet.sol\":2507:2518  stakingRate */\n      0x36\n        /* \"src/contract/CryptoQuestTheShardsOfGenesisWallet.sol\":2507:2533  stakingRate = _stakingRate */\n      dup7\n      swap1\n      sstore\n        /* \"@openzeppelin/contracts-upgradeable/proxy/utils/Initializable.sol\":5066:5167  if (isTopLevelCall) {... */\n      dup4\n      iszero\n      tag_266\n      jumpi\n        /* \"@openzeppelin/contracts-upgradeable/proxy/utils/Initializable.sol\":5100:5123  $._initializing = false */\n      dup5\n      sload\n      not(shl(0x40, 0xff))\n      and\n      dup6\n      sstore\n        /* \"@openzeppelin/contracts-upgradeable/proxy/utils/Initializable.sol\":5142:5156  Initialized(1) */\n      mload(0x40)\n      0x01\n        /* \"#utility.yul\":8450:8500   */\n      dup2\n      mstore\n        /* \"@openzeppelin/contracts-upgradeable/proxy/utils/Initializable.sol\":5142:5156  Initialized(1) */\n      0xc7f505b2f371ae2175ee4913f4499e1f2633a7b5936321eed1cdaeb6115181d2\n      swap1\n        /* \"#utility.yul\":8438:8440   */\n      0x20\n        /* \"#utility.yul\":8423:8441   */\n      add\n        /* \"@openzeppelin/contracts-upgradeable/proxy/utils/Initializable.sol\":5142:5156  Initialized(1) */\n      mload(0x40)\n      dup1\n      swap2\n      sub\n      swap1\n      log1\n        /* \"@openzeppelin/contracts-upgradeable/proxy/utils/Initializable.sol\":5066:5167  if (isTopLevelCall) {... */\n    tag_266:\n        /* \"@openzeppelin/contracts-upgradeable/proxy/utils/Initializable.sol\":4092:5173  {... */\n      pop\n      pop\n      pop\n      pop\n      pop\n        /* \"src/contract/CryptoQuestTheShardsOfGenesisWallet.sol\":2070:2540  function initialize(address admin, uint256 _requiredConfirmations, uint256 _stakingRate) initializer public {... */\n      pop\n      pop\n      pop\n      jump\t// out\n        /* \"src/contract/CryptoQuestTheShardsOfGenesisWallet.sol\":5828:5899  function pause() public onlyRole(PAUSER_ROLE) {... */\n    tag_116:\n      0x00\n      dup1\n      mload\n      0x20\n      data_9b87106a812d214d41ad9b68a21119e2948eaaf1040375c939ec808b8862455c\n      dup4\n      codecopy\n      dup2\n      mload\n      swap2\n      mstore\n        /* \"@openzeppelin/contracts-upgradeable/access/AccessControlUpgradeable.sol\":3191:3207  _checkRole(role) */\n      tag_270\n        /* \"@openzeppelin/contracts-upgradeable/access/AccessControlUpgradeable.sol\":3202:3206  role */\n      dup2\n        /* \"@openzeppelin/contracts-upgradeable/access/AccessControlUpgradeable.sol\":3191:3201  _checkRole */\n      tag_205\n        /* \"@openzeppelin/contracts-upgradeable/access/AccessControlUpgradeable.sol\":3191:3207  _checkRole(role) */\n      jump\t// in\n    tag_270:\n        /* \"src/contract/CryptoQuestTheShardsOfGenesisWallet.sol\":5884:5892  _pause() */\n      tag_218\n        /* \"src/contract/CryptoQuestTheShardsOfGenesisWallet.sol\":5884:5890  _pause */\n      tag_273\n        /* \"src/contract/CryptoQuestTheShardsOfGenesisWallet.sol\":5884:5892  _pause() */\n      jump\t// in\n        /* \"@openzeppelin/contracts-upgradeable/access/AccessControlUpgradeable.sol\":3732:3939  function hasRole(bytes32 role, address account) public view virtual returns (bool) {... */\n    tag_120:\n        /* \"@openzeppelin/contracts-upgradeable/access/AccessControlUpgradeable.sol\":3809:3813  bool */\n      0x00\n        /* \"@openzeppelin/contracts-upgradeable/access/AccessControlUpgradeable.sol\":3901:3915  $._roles[role] */\n      swap2\n      dup3\n      mstore\n      0x00\n      dup1\n      mload\n      0x20\n      data_b3da67d1b252aeab7c8063542d95e75f82a5307a82535949bc38f7cf7ba8897f\n      dup4\n      codecopy\n      dup2\n      mload\n      swap2\n      mstore\n      0x20\n      swap1\n      dup2\n      mstore\n      0x40\n      dup1\n      dup5\n      keccak256\n      sub(shl(0xa0, 0x01), 0x01)\n        /* \"@openzeppelin/contracts-upgradeable/access/AccessControlUpgradeable.sol\":3901:3932  $._roles[role].hasRole[account] */\n      swap4\n      swap1\n      swap4\n      and\n      dup5\n      mstore\n      swap2\n      swap1\n      mstore\n      swap1\n      keccak256\n      sload\n      0xff\n      and\n      swap1\n        /* \"@openzeppelin/contracts-upgradeable/access/AccessControlUpgradeable.sol\":3732:3939  function hasRole(bytes32 role, address account) public view virtual returns (bool) {... */\n      jump\t// out\n        /* \"src/contract/CryptoQuestTheShardsOfGenesisWallet.sol\":1226:1259  Transaction[] public transactions */\n    tag_125:\n      0x33\n      dup2\n      dup2\n      sload\n      dup2\n      lt\n      tag_276\n      jumpi\n      0x00\n      dup1\n      revert\n    tag_276:\n      0x00\n      swap2\n      dup3\n      mstore\n      0x20\n      swap1\n      swap2\n      keccak256\n      0x05\n      swap1\n      swap2\n      mul\n      add\n      dup1\n      sload\n      0x01\n      dup3\n      add\n      sload\n      0x02\n      dup4\n      add\n      dup1\n      sload\n      sub(shl(0xa0, 0x01), 0x01)\n      swap1\n      swap4\n      and\n      swap5\n      pop\n      swap1\n      swap3\n      swap2\n      tag_278\n      swap1\n      tag_279\n      jump\t// in\n    tag_278:\n      dup1\n      0x1f\n      add\n      0x20\n      dup1\n      swap2\n      div\n      mul\n      0x20\n      add\n      mload(0x40)\n      swap1\n      dup2\n      add\n      0x40\n      mstore\n      dup1\n      swap3\n      swap2\n      swap1\n      dup2\n      dup2\n      mstore\n      0x20\n      add\n      dup3\n      dup1\n      sload\n      tag_280\n      swap1\n      tag_279\n      jump\t// in\n    tag_280:\n      dup1\n      iszero\n      tag_281\n      jumpi\n      dup1\n      0x1f\n      lt\n      tag_282\n      jumpi\n      0x0100\n      dup1\n      dup4\n      sload\n      div\n      mul\n      dup4\n      mstore\n      swap2\n      0x20\n      add\n      swap2\n      jump(tag_281)\n    tag_282:\n      dup3\n      add\n      swap2\n      swap1\n      0x00\n      mstore\n      keccak256(0x00, 0x20)\n      swap1\n    tag_283:\n      dup2\n      sload\n      dup2\n      mstore\n      swap1\n      0x01\n      add\n      swap1\n      0x20\n      add\n      dup1\n      dup4\n      gt\n      tag_283\n      jumpi\n      dup3\n      swap1\n      sub\n      0x1f\n      and\n      dup3\n      add\n      swap2\n    tag_281:\n      pop\n      pop\n      pop\n      pop\n      0x03\n      dup4\n      add\n      sload\n      0x04\n      swap1\n      swap4\n      add\n      sload\n      swap2\n      swap3\n      0xff\n      and\n      swap2\n      swap1\n      pop\n      dup6\n      jump\t// out\n        /* \"src/contract/CryptoQuestTheShardsOfGenesisWallet.sol\":5247:5822  function unstakeTokens() public whenNotPaused {... */\n    tag_134:\n        /* \"@openzeppelin/contracts-upgradeable/security/PausableUpgradeable.sol\":1503:1522  _requireNotPaused() */\n      tag_285\n        /* \"@openzeppelin/contracts-upgradeable/security/PausableUpgradeable.sol\":1503:1520  _requireNotPaused */\n      tag_235\n        /* \"@openzeppelin/contracts-upgradeable/security/PausableUpgradeable.sol\":1503:1522  _requireNotPaused() */\n      jump\t// in\n    tag_285:\n        /* \"src/contract/CryptoQuestTheShardsOfGenesisWallet.sol\":5331:5341  msg.sender */\n      caller\n        /* \"src/contract/CryptoQuestTheShardsOfGenesisWallet.sol\":5303:5321  Stake memory stake */\n      0x00\n        /* \"src/contract/CryptoQuestTheShardsOfGenesisWallet.sol\":5324:5342  stakes[msg.sender] */\n      swap1\n      dup2\n      mstore\n        /* \"src/contract/CryptoQuestTheShardsOfGenesisWallet.sol\":5324:5330  stakes */\n      0x35\n        /* \"src/contract/CryptoQuestTheShardsOfGenesisWallet.sol\":5324:5342  stakes[msg.sender] */\n      0x20\n      swap1\n      dup2\n      mstore\n      0x40\n      swap2\n      dup3\n      swap1\n      keccak256\n        /* \"src/contract/CryptoQuestTheShardsOfGenesisWallet.sol\":5303:5342  Stake memory stake = stakes[msg.sender] */\n      dup3\n      mload\n      dup1\n      dup5\n      add\n      swap1\n      swap4\n      mstore\n      dup1\n      sload\n      dup1\n      dup5\n      mstore\n      0x01\n      swap1\n      swap2\n      add\n      sload\n      swap2\n      dup4\n      add\n      swap2\n      swap1\n      swap2\n      mstore\n        /* \"src/contract/CryptoQuestTheShardsOfGenesisWallet.sol\":5352:5397  require(stake.amount > 0, \"No tokens staked\") */\n      tag_287\n      jumpi\n      mload(0x40)\n      shl(0xe5, 0x461bcd)\n      dup2\n      mstore\n        /* \"#utility.yul\":9098:9100   */\n      0x20\n        /* \"src/contract/CryptoQuestTheShardsOfGenesisWallet.sol\":5352:5397  require(stake.amount > 0, \"No tokens staked\") */\n      0x04\n      dup3\n      add\n        /* \"#utility.yul\":9080:9101   */\n      mstore\n        /* \"#utility.yul\":9137:9139   */\n      0x10\n        /* \"#utility.yul\":9117:9135   */\n      0x24\n      dup3\n      add\n        /* \"#utility.yul\":9110:9140   */\n      mstore\n      shl(0x82, 0x139bc81d1bdad95b9cc81cdd185ad959)\n        /* \"#utility.yul\":9156:9174   */\n      0x44\n      dup3\n      add\n        /* \"#utility.yul\":9149:9195   */\n      mstore\n        /* \"#utility.yul\":9212:9230   */\n      0x64\n      add\n        /* \"src/contract/CryptoQuestTheShardsOfGenesisWallet.sol\":5352:5397  require(stake.amount > 0, \"No tokens staked\") */\n      tag_176\n        /* \"#utility.yul\":8896:9236   */\n      jump\n        /* \"src/contract/CryptoQuestTheShardsOfGenesisWallet.sol\":5352:5397  require(stake.amount > 0, \"No tokens staked\") */\n    tag_287:\n        /* \"src/contract/CryptoQuestTheShardsOfGenesisWallet.sol\":5408:5431  uint256 stakingDuration */\n      0x00\n        /* \"src/contract/CryptoQuestTheShardsOfGenesisWallet.sol\":5452:5457  stake */\n      dup2\n        /* \"src/contract/CryptoQuestTheShardsOfGenesisWallet.sol\":5452:5467  stake.startTime */\n      0x20\n      add\n      mload\n        /* \"src/contract/CryptoQuestTheShardsOfGenesisWallet.sol\":5434:5449  block.timestamp */\n      timestamp\n        /* \"src/contract/CryptoQuestTheShardsOfGenesisWallet.sol\":5434:5467  block.timestamp - stake.startTime */\n      tag_290\n      swap2\n      swap1\n      tag_198\n      jump\t// in\n    tag_290:\n        /* \"src/contract/CryptoQuestTheShardsOfGenesisWallet.sol\":5408:5467  uint256 stakingDuration = block.timestamp - stake.startTime */\n      swap1\n      pop\n        /* \"src/contract/CryptoQuestTheShardsOfGenesisWallet.sol\":5477:5491  uint256 reward */\n      0x00\n        /* \"src/contract/CryptoQuestTheShardsOfGenesisWallet.sol\":5544:5552  365 days */\n      0x01e13380\n        /* \"src/contract/CryptoQuestTheShardsOfGenesisWallet.sol\":5524:5539  stakingDuration */\n      dup3\n        /* \"src/contract/CryptoQuestTheShardsOfGenesisWallet.sol\":5510:5521  stakingRate */\n      sload(0x36)\n        /* \"src/contract/CryptoQuestTheShardsOfGenesisWallet.sol\":5495:5500  stake */\n      dup6\n        /* \"src/contract/CryptoQuestTheShardsOfGenesisWallet.sol\":5495:5507  stake.amount */\n      0x00\n      add\n      mload\n        /* \"src/contract/CryptoQuestTheShardsOfGenesisWallet.sol\":5495:5521  stake.amount * stakingRate */\n      tag_291\n      swap2\n      swap1\n      tag_292\n      jump\t// in\n    tag_291:\n        /* \"src/contract/CryptoQuestTheShardsOfGenesisWallet.sol\":5495:5539  stake.amount * stakingRate * stakingDuration */\n      tag_293\n      swap2\n      swap1\n      tag_292\n      jump\t// in\n    tag_293:\n        /* \"src/contract/CryptoQuestTheShardsOfGenesisWallet.sol\":5494:5553  (stake.amount * stakingRate * stakingDuration) / (365 days) */\n      tag_294\n      swap2\n      swap1\n      tag_295\n      jump\t// in\n    tag_294:\n        /* \"src/contract/CryptoQuestTheShardsOfGenesisWallet.sol\":5667:5679  stake.amount */\n      dup4\n      mload\n        /* \"src/contract/CryptoQuestTheShardsOfGenesisWallet.sol\":5477:5553  uint256 reward = (stake.amount * stakingRate * stakingDuration) / (365 days) */\n      swap1\n      swap2\n      pop\n        /* \"src/contract/CryptoQuestTheShardsOfGenesisWallet.sol\":5616:5620  this */\n      address\n      swap1\n      dup2\n      swap1\n        /* \"src/contract/CryptoQuestTheShardsOfGenesisWallet.sol\":5640:5654  token.transfer */\n      0xa9059cbb\n      swap1\n        /* \"src/contract/CryptoQuestTheShardsOfGenesisWallet.sol\":5655:5665  msg.sender */\n      caller\n      swap1\n        /* \"src/contract/CryptoQuestTheShardsOfGenesisWallet.sol\":5667:5688  stake.amount + reward */\n      tag_296\n      swap1\n        /* \"src/contract/CryptoQuestTheShardsOfGenesisWallet.sol\":5477:5553  uint256 reward = (stake.amount * stakingRate * stakingDuration) / (365 days) */\n      dup7\n      swap1\n        /* \"src/contract/CryptoQuestTheShardsOfGenesisWallet.sol\":5667:5688  stake.amount + reward */\n      tag_297\n      jump\t// in\n    tag_296:\n        /* \"src/contract/CryptoQuestTheShardsOfGenesisWallet.sol\":5640:5689  token.transfer(msg.sender, stake.amount + reward) */\n      mload(0x40)\n      not(sub(shl(0xe0, 0x01), 0x01))\n      0xe0\n      dup6\n      swap1\n      shl\n      and\n      dup2\n      mstore\n      sub(shl(0xa0, 0x01), 0x01)\n        /* \"#utility.yul\":9958:9990   */\n      swap1\n      swap3\n      and\n        /* \"src/contract/CryptoQuestTheShardsOfGenesisWallet.sol\":5640:5689  token.transfer(msg.sender, stake.amount + reward) */\n      0x04\n      dup4\n      add\n        /* \"#utility.yul\":9940:9991   */\n      mstore\n        /* \"#utility.yul\":10007:10025   */\n      0x24\n      dup3\n      add\n        /* \"#utility.yul\":10000:10034   */\n      mstore\n        /* \"#utility.yul\":9913:9931   */\n      0x44\n      add\n        /* \"src/contract/CryptoQuestTheShardsOfGenesisWallet.sol\":5640:5689  token.transfer(msg.sender, stake.amount + reward) */\n      0x20\n      mload(0x40)\n      dup1\n      dup4\n      sub\n      dup2\n      0x00\n      dup8\n      gas\n      call\n      iszero\n      dup1\n      iszero\n      tag_301\n      jumpi\n      returndatasize\n      0x00\n      dup1\n      returndatacopy\n      revert(0x00, returndatasize)\n    tag_301:\n      pop\n      pop\n      pop\n      pop\n      mload(0x40)\n      returndatasize\n      not(0x1f)\n      0x1f\n      dup3\n      add\n      and\n      dup3\n      add\n      dup1\n      0x40\n      mstore\n      pop\n      dup2\n      add\n      swap1\n      tag_302\n      swap2\n      swap1\n      tag_242\n      jump\t// in\n    tag_302:\n        /* \"src/contract/CryptoQuestTheShardsOfGenesisWallet.sol\":5632:5715  require(token.transfer(msg.sender, stake.amount + reward), \"Token transfer failed\") */\n      tag_303\n      jumpi\n      mload(0x40)\n      shl(0xe5, 0x461bcd)\n      dup2\n      mstore\n        /* \"#utility.yul\":8149:8151   */\n      0x20\n        /* \"src/contract/CryptoQuestTheShardsOfGenesisWallet.sol\":5632:5715  require(token.transfer(msg.sender, stake.amount + reward), \"Token transfer failed\") */\n      0x04\n      dup3\n      add\n        /* \"#utility.yul\":8131:8152   */\n      mstore\n        /* \"#utility.yul\":8188:8190   */\n      0x15\n        /* \"#utility.yul\":8168:8186   */\n      0x24\n      dup3\n      add\n        /* \"#utility.yul\":8161:8191   */\n      mstore\n      shl(0x5a, 0x151bdad95b881d1c985b9cd9995c8819985a5b1959)\n        /* \"#utility.yul\":8207:8225   */\n      0x44\n      dup3\n      add\n        /* \"#utility.yul\":8200:8251   */\n      mstore\n        /* \"#utility.yul\":8268:8286   */\n      0x64\n      add\n        /* \"src/contract/CryptoQuestTheShardsOfGenesisWallet.sol\":5632:5715  require(token.transfer(msg.sender, stake.amount + reward), \"Token transfer failed\") */\n      tag_176\n        /* \"#utility.yul\":7947:8292   */\n      jump\n        /* \"src/contract/CryptoQuestTheShardsOfGenesisWallet.sol\":5632:5715  require(token.transfer(msg.sender, stake.amount + reward), \"Token transfer failed\") */\n    tag_303:\n        /* \"src/contract/CryptoQuestTheShardsOfGenesisWallet.sol\":5740:5750  msg.sender */\n      caller\n        /* \"src/contract/CryptoQuestTheShardsOfGenesisWallet.sol\":5733:5751  stakes[msg.sender] */\n      0x00\n      dup2\n      dup2\n      mstore\n        /* \"src/contract/CryptoQuestTheShardsOfGenesisWallet.sol\":5733:5739  stakes */\n      0x35\n        /* \"src/contract/CryptoQuestTheShardsOfGenesisWallet.sol\":5733:5751  stakes[msg.sender] */\n      0x20\n      swap1\n      dup2\n      mstore\n      0x40\n      dup1\n      dup4\n      keccak256\n        /* \"src/contract/CryptoQuestTheShardsOfGenesisWallet.sol\":5726:5751  delete stakes[msg.sender] */\n      dup4\n      dup2\n      sstore\n      0x01\n      add\n      swap3\n      swap1\n      swap3\n      sstore\n        /* \"src/contract/CryptoQuestTheShardsOfGenesisWallet.sol\":5794:5806  stake.amount */\n      dup7\n      mload\n        /* \"src/contract/CryptoQuestTheShardsOfGenesisWallet.sol\":5767:5815  TokensUnstaked(msg.sender, stake.amount, reward) */\n      dup3\n      mload\n        /* \"#utility.yul\":1040:1065   */\n      swap1\n      dup2\n      mstore\n        /* \"#utility.yul\":1081:1099   */\n      swap1\n      dup2\n      add\n        /* \"#utility.yul\":1074:1108   */\n      dup6\n      swap1\n      mstore\n        /* \"src/contract/CryptoQuestTheShardsOfGenesisWallet.sol\":5767:5815  TokensUnstaked(msg.sender, stake.amount, reward) */\n      0x6f2d3e000c89d37446b7c0374c0125068ff316d1e3ee302336478a8cd03c2336\n      swap2\n        /* \"#utility.yul\":1013:1031   */\n      add\n        /* \"src/contract/CryptoQuestTheShardsOfGenesisWallet.sol\":5767:5815  TokensUnstaked(msg.sender, stake.amount, reward) */\n      mload(0x40)\n      dup1\n      swap2\n      sub\n      swap1\n      log2\n        /* \"src/contract/CryptoQuestTheShardsOfGenesisWallet.sol\":5293:5822  {... */\n      pop\n      pop\n      pop\n      pop\n        /* \"src/contract/CryptoQuestTheShardsOfGenesisWallet.sol\":5247:5822  function unstakeTokens() public whenNotPaused {... */\n      jump\t// out\n        /* \"src/contract/CryptoQuestTheShardsOfGenesisWallet.sol\":3478:3873  function confirmTransaction(uint256 _txIndex)... */\n    tag_143:\n        /* \"src/contract/CryptoQuestTheShardsOfGenesisWallet.sol\":2585:2616  hasRole(ADMIN_ROLE, msg.sender) */\n      tag_307\n      0x00\n      dup1\n      mload\n      0x20\n      data_cb864c43dd5d441bb6271f424f11befa622c032dfd374d226e26fbbdb782b8f8\n      dup4\n      codecopy\n      dup2\n      mload\n      swap2\n      mstore\n        /* \"src/contract/CryptoQuestTheShardsOfGenesisWallet.sol\":2605:2615  msg.sender */\n      caller\n        /* \"src/contract/CryptoQuestTheShardsOfGenesisWallet.sol\":2585:2592  hasRole */\n      tag_120\n        /* \"src/contract/CryptoQuestTheShardsOfGenesisWallet.sol\":2585:2616  hasRole(ADMIN_ROLE, msg.sender) */\n      jump\t// in\n    tag_307:\n        /* \"src/contract/CryptoQuestTheShardsOfGenesisWallet.sol\":2577:2633  require(hasRole(ADMIN_ROLE, msg.sender), \"Not an admin\") */\n      tag_308\n      jumpi\n      mload(0x40)\n      shl(0xe5, 0x461bcd)\n      dup2\n      mstore\n      0x04\n      add\n      tag_176\n      swap1\n      tag_177\n      jump\t// in\n    tag_308:\n        /* \"src/contract/CryptoQuestTheShardsOfGenesisWallet.sol\":2722:2734  transactions */\n      0x33\n        /* \"src/contract/CryptoQuestTheShardsOfGenesisWallet.sol\":2722:2741  transactions.length */\n      sload\n        /* \"src/contract/CryptoQuestTheShardsOfGenesisWallet.sol\":3574:3582  _txIndex */\n      dup2\n      swap1\n        /* \"src/contract/CryptoQuestTheShardsOfGenesisWallet.sol\":2711:2741  _txIndex < transactions.length */\n      dup2\n      lt\n        /* \"src/contract/CryptoQuestTheShardsOfGenesisWallet.sol\":2703:2772  require(_txIndex < transactions.length, \"Transaction does not exist\") */\n      tag_311\n      jumpi\n      mload(0x40)\n      shl(0xe5, 0x461bcd)\n      dup2\n      mstore\n      0x04\n      add\n      tag_176\n      swap1\n      tag_181\n      jump\t// in\n    tag_311:\n        /* \"src/contract/CryptoQuestTheShardsOfGenesisWallet.sol\":3604:3612  _txIndex */\n      dup2\n        /* \"src/contract/CryptoQuestTheShardsOfGenesisWallet.sol\":2854:2866  transactions */\n      0x33\n        /* \"src/contract/CryptoQuestTheShardsOfGenesisWallet.sol\":2867:2875  _txIndex */\n      dup2\n        /* \"src/contract/CryptoQuestTheShardsOfGenesisWallet.sol\":2854:2876  transactions[_txIndex] */\n      dup2\n      sload\n      dup2\n      lt\n      tag_315\n      jumpi\n      tag_315\n      tag_185\n      jump\t// in\n    tag_315:\n      0x00\n      swap2\n      dup3\n      mstore\n      0x20\n      swap1\n      swap2\n      keccak256\n        /* \"src/contract/CryptoQuestTheShardsOfGenesisWallet.sol\":2854:2885  transactions[_txIndex].executed */\n      0x03\n        /* \"src/contract/CryptoQuestTheShardsOfGenesisWallet.sol\":2854:2876  transactions[_txIndex] */\n      0x05\n      swap1\n      swap3\n      mul\n      add\n        /* \"src/contract/CryptoQuestTheShardsOfGenesisWallet.sol\":2854:2885  transactions[_txIndex].executed */\n      add\n      sload\n      0xff\n      and\n        /* \"src/contract/CryptoQuestTheShardsOfGenesisWallet.sol\":2853:2885  !transactions[_txIndex].executed */\n      iszero\n        /* \"src/contract/CryptoQuestTheShardsOfGenesisWallet.sol\":2845:2918  require(!transactions[_txIndex].executed, \"Transaction already executed\") */\n      tag_317\n      jumpi\n      mload(0x40)\n      shl(0xe5, 0x461bcd)\n      dup2\n      mstore\n      0x04\n      add\n      tag_176\n      swap1\n      tag_189\n      jump\t// in\n    tag_317:\n        /* \"src/contract/CryptoQuestTheShardsOfGenesisWallet.sol\":3001:3022  isConfirmed[_txIndex] */\n      0x00\n      dup4\n      dup2\n      mstore\n        /* \"src/contract/CryptoQuestTheShardsOfGenesisWallet.sol\":3001:3012  isConfirmed */\n      0x32\n        /* \"src/contract/CryptoQuestTheShardsOfGenesisWallet.sol\":3001:3022  isConfirmed[_txIndex] */\n      0x20\n      swap1\n      dup2\n      mstore\n      0x40\n      dup1\n      dup4\n      keccak256\n        /* \"src/contract/CryptoQuestTheShardsOfGenesisWallet.sol\":3023:3033  msg.sender */\n      caller\n        /* \"src/contract/CryptoQuestTheShardsOfGenesisWallet.sol\":3001:3034  isConfirmed[_txIndex][msg.sender] */\n      dup5\n      mstore\n      swap1\n      swap2\n      mstore\n      swap1\n      keccak256\n      sload\n        /* \"src/contract/CryptoQuestTheShardsOfGenesisWallet.sol\":3635:3643  _txIndex */\n      dup4\n      swap1\n        /* \"src/contract/CryptoQuestTheShardsOfGenesisWallet.sol\":3001:3034  isConfirmed[_txIndex][msg.sender] */\n      0xff\n      and\n        /* \"src/contract/CryptoQuestTheShardsOfGenesisWallet.sol\":3000:3034  !isConfirmed[_txIndex][msg.sender] */\n      iszero\n        /* \"src/contract/CryptoQuestTheShardsOfGenesisWallet.sol\":2992:3068  require(!isConfirmed[_txIndex][msg.sender], \"Transaction already confirmed\") */\n      tag_320\n      jumpi\n      mload(0x40)\n      shl(0xe5, 0x461bcd)\n      dup2\n      mstore\n        /* \"#utility.yul\":10247:10249   */\n      0x20\n        /* \"src/contract/CryptoQuestTheShardsOfGenesisWallet.sol\":2992:3068  require(!isConfirmed[_txIndex][msg.sender], \"Transaction already confirmed\") */\n      0x04\n      dup3\n      add\n        /* \"#utility.yul\":10229:10250   */\n      mstore\n        /* \"#utility.yul\":10286:10288   */\n      0x1d\n        /* \"#utility.yul\":10266:10284   */\n      0x24\n      dup3\n      add\n        /* \"#utility.yul\":10259:10289   */\n      mstore\n        /* \"#utility.yul\":10325:10356   */\n      0x5472616e73616374696f6e20616c726561647920636f6e6669726d6564000000\n        /* \"#utility.yul\":10305:10323   */\n      0x44\n      dup3\n      add\n        /* \"#utility.yul\":10298:10357   */\n      mstore\n        /* \"#utility.yul\":10374:10392   */\n      0x64\n      add\n        /* \"src/contract/CryptoQuestTheShardsOfGenesisWallet.sol\":2992:3068  require(!isConfirmed[_txIndex][msg.sender], \"Transaction already confirmed\") */\n      tag_176\n        /* \"#utility.yul\":10045:10398   */\n      jump\n        /* \"src/contract/CryptoQuestTheShardsOfGenesisWallet.sol\":2992:3068  require(!isConfirmed[_txIndex][msg.sender], \"Transaction already confirmed\") */\n    tag_320:\n        /* \"src/contract/CryptoQuestTheShardsOfGenesisWallet.sol\":3659:3690  Transaction storage transaction */\n      0x00\n        /* \"src/contract/CryptoQuestTheShardsOfGenesisWallet.sol\":3693:3705  transactions */\n      0x33\n        /* \"src/contract/CryptoQuestTheShardsOfGenesisWallet.sol\":3706:3714  _txIndex */\n      dup6\n        /* \"src/contract/CryptoQuestTheShardsOfGenesisWallet.sol\":3693:3715  transactions[_txIndex] */\n      dup2\n      sload\n      dup2\n      lt\n      tag_325\n      jumpi\n      tag_325\n      tag_185\n      jump\t// in\n    tag_325:\n      swap1\n      0x00\n      mstore\n      keccak256(0x00, 0x20)\n      swap1\n      0x05\n      mul\n      add\n        /* \"src/contract/CryptoQuestTheShardsOfGenesisWallet.sol\":3659:3715  Transaction storage transaction = transactions[_txIndex] */\n      swap1\n      pop\n        /* \"src/contract/CryptoQuestTheShardsOfGenesisWallet.sol\":3757:3758  1 */\n      0x01\n        /* \"src/contract/CryptoQuestTheShardsOfGenesisWallet.sol\":3725:3736  transaction */\n      dup2\n        /* \"src/contract/CryptoQuestTheShardsOfGenesisWallet.sol\":3725:3753  transaction.numConfirmations */\n      0x04\n      add\n      0x00\n        /* \"src/contract/CryptoQuestTheShardsOfGenesisWallet.sol\":3725:3758  transaction.numConfirmations += 1 */\n      dup3\n      dup3\n      sload\n      tag_327\n      swap2\n      swap1\n      tag_297\n      jump\t// in\n    tag_327:\n      swap1\n      swap2\n      sstore\n      pop\n      pop\n        /* \"src/contract/CryptoQuestTheShardsOfGenesisWallet.sol\":3768:3789  isConfirmed[_txIndex] */\n      0x00\n      dup6\n      dup2\n      mstore\n        /* \"src/contract/CryptoQuestTheShardsOfGenesisWallet.sol\":3768:3779  isConfirmed */\n      0x32\n        /* \"src/contract/CryptoQuestTheShardsOfGenesisWallet.sol\":3768:3789  isConfirmed[_txIndex] */\n      0x20\n      swap1\n      dup2\n      mstore\n      0x40\n      dup1\n      dup4\n      keccak256\n        /* \"src/contract/CryptoQuestTheShardsOfGenesisWallet.sol\":3790:3800  msg.sender */\n      caller\n        /* \"src/contract/CryptoQuestTheShardsOfGenesisWallet.sol\":3768:3801  isConfirmed[_txIndex][msg.sender] */\n      dup1\n      dup6\n      mstore\n      swap3\n      mstore\n      dup1\n      dup4\n      keccak256\n        /* \"src/contract/CryptoQuestTheShardsOfGenesisWallet.sol\":3768:3808  isConfirmed[_txIndex][msg.sender] = true */\n      dup1\n      sload\n      not(0xff)\n      and\n        /* \"src/contract/CryptoQuestTheShardsOfGenesisWallet.sol\":3804:3808  true */\n      0x01\n        /* \"src/contract/CryptoQuestTheShardsOfGenesisWallet.sol\":3768:3808  isConfirmed[_txIndex][msg.sender] = true */\n      or\n      swap1\n      sstore\n        /* \"src/contract/CryptoQuestTheShardsOfGenesisWallet.sol\":3824:3866  TransactionConfirmed(msg.sender, _txIndex) */\n      mload\n        /* \"src/contract/CryptoQuestTheShardsOfGenesisWallet.sol\":3780:3788  _txIndex */\n      dup8\n      swap3\n        /* \"src/contract/CryptoQuestTheShardsOfGenesisWallet.sol\":3824:3866  TransactionConfirmed(msg.sender, _txIndex) */\n      0xf8a17c9136a3ae33364fac05eb088a3cbafee10c1889c88593e20ee2d8e4eb88\n      swap2\n      log3\n        /* \"src/contract/CryptoQuestTheShardsOfGenesisWallet.sol\":3649:3873  {... */\n      pop\n        /* \"src/contract/CryptoQuestTheShardsOfGenesisWallet.sol\":2928:2929  _ */\n      pop\n        /* \"src/contract/CryptoQuestTheShardsOfGenesisWallet.sol\":2782:2783  _ */\n      pop\n        /* \"src/contract/CryptoQuestTheShardsOfGenesisWallet.sol\":2643:2644  _ */\n      pop\n        /* \"src/contract/CryptoQuestTheShardsOfGenesisWallet.sol\":3478:3873  function confirmTransaction(uint256 _txIndex)... */\n      pop\n      jump\t// out\n        /* \"src/contract/CryptoQuestTheShardsOfGenesisWallet.sol\":3092:3472  function submitTransaction(address _to, uint256 _value, bytes memory _data) public onlyAdmin {... */\n    tag_152:\n        /* \"src/contract/CryptoQuestTheShardsOfGenesisWallet.sol\":2585:2616  hasRole(ADMIN_ROLE, msg.sender) */\n      tag_329\n      0x00\n      dup1\n      mload\n      0x20\n      data_cb864c43dd5d441bb6271f424f11befa622c032dfd374d226e26fbbdb782b8f8\n      dup4\n      codecopy\n      dup2\n      mload\n      swap2\n      mstore\n        /* \"src/contract/CryptoQuestTheShardsOfGenesisWallet.sol\":2605:2615  msg.sender */\n      caller\n        /* \"src/contract/CryptoQuestTheShardsOfGenesisWallet.sol\":2585:2592  hasRole */\n      tag_120\n        /* \"src/contract/CryptoQuestTheShardsOfGenesisWallet.sol\":2585:2616  hasRole(ADMIN_ROLE, msg.sender) */\n      jump\t// in\n    tag_329:\n        /* \"src/contract/CryptoQuestTheShardsOfGenesisWallet.sol\":2577:2633  require(hasRole(ADMIN_ROLE, msg.sender), \"Not an admin\") */\n      tag_330\n      jumpi\n      mload(0x40)\n      shl(0xe5, 0x461bcd)\n      dup2\n      mstore\n      0x04\n      add\n      tag_176\n      swap1\n      tag_177\n      jump\t// in\n    tag_330:\n        /* \"src/contract/CryptoQuestTheShardsOfGenesisWallet.sol\":3213:3225  transactions */\n      0x33\n        /* \"src/contract/CryptoQuestTheShardsOfGenesisWallet.sol\":3213:3232  transactions.length */\n      dup1\n      sload\n        /* \"src/contract/CryptoQuestTheShardsOfGenesisWallet.sol\":3261:3419  Transaction({... */\n      0x40\n      dup1\n      mload\n      0xa0\n      dup2\n      add\n      dup3\n      mstore\n      sub(shl(0xa0, 0x01), 0x01)\n      dup8\n      dup2\n      and\n      dup3\n      mstore\n      0x20\n      dup3\n      add\n      dup8\n      dup2\n      mstore\n      swap3\n      dup3\n      add\n      dup7\n      dup2\n      mstore\n      0x00\n      0x60\n      dup5\n      add\n      dup2\n      swap1\n      mstore\n      0x80\n      dup5\n      add\n      dup2\n      swap1\n      mstore\n      0x01\n        /* \"src/contract/CryptoQuestTheShardsOfGenesisWallet.sol\":3243:3420  transactions.push(Transaction({... */\n      dup7\n      add\n      dup8\n      sstore\n      swap6\n      swap1\n      swap6\n      mstore\n      dup2\n      mload\n      0x82a75bdeeae8604d839476ae9efd8b0e15aa447e21bfd7f41283bb54e22c9a82\n      0x05\n      dup7\n      mul\n      swap1\n      dup2\n      add\n      dup1\n      sload\n      not(sub(shl(0xa0, 0x01), 0x01))\n      and\n      swap3\n      swap1\n      swap4\n      and\n      swap2\n      swap1\n      swap2\n      or\n      dup3\n      sstore\n      swap3\n      mload\n      0x82a75bdeeae8604d839476ae9efd8b0e15aa447e21bfd7f41283bb54e22c9a83\n      dup5\n      add\n      sstore\n      swap4\n      mload\n        /* \"src/contract/CryptoQuestTheShardsOfGenesisWallet.sol\":3213:3232  transactions.length */\n      swap3\n      swap4\n        /* \"src/contract/CryptoQuestTheShardsOfGenesisWallet.sol\":3261:3419  Transaction({... */\n      swap1\n      swap3\n        /* \"src/contract/CryptoQuestTheShardsOfGenesisWallet.sol\":3243:3420  transactions.push(Transaction({... */\n      swap1\n      swap2\n      0x82a75bdeeae8604d839476ae9efd8b0e15aa447e21bfd7f41283bb54e22c9a84\n      add\n      swap1\n      tag_334\n      swap1\n      dup3\n      tag_335\n      jump\t// in\n    tag_334:\n      pop\n      0x60\n      dup3\n      add\n      mload\n      0x03\n      dup3\n      add\n      dup1\n      sload\n      not(0xff)\n      and\n      swap2\n      iszero\n      iszero\n      swap2\n      swap1\n      swap2\n      or\n      swap1\n      sstore\n      0x80\n      swap1\n      swap2\n      add\n      mload\n      0x04\n      swap1\n      swap2\n      add\n      sstore\n        /* \"src/contract/CryptoQuestTheShardsOfGenesisWallet.sol\":3436:3465  TransactionSubmitted(txIndex) */\n      mload(0x40)\n        /* \"src/contract/CryptoQuestTheShardsOfGenesisWallet.sol\":3457:3464  txIndex */\n      dup2\n      swap1\n        /* \"src/contract/CryptoQuestTheShardsOfGenesisWallet.sol\":3436:3465  TransactionSubmitted(txIndex) */\n      0xd0b5d9eac097410294ec9f2cee7cd185cf31ab46babf3dfdbeac8b222b03f2d1\n      swap1\n      0x00\n      swap1\n      log2\n        /* \"src/contract/CryptoQuestTheShardsOfGenesisWallet.sol\":3185:3472  {... */\n      pop\n        /* \"src/contract/CryptoQuestTheShardsOfGenesisWallet.sol\":3092:3472  function submitTransaction(address _to, uint256 _value, bytes memory _data) public onlyAdmin {... */\n      pop\n      pop\n      pop\n      jump\t// out\n        /* \"@openzeppelin/contracts-upgradeable/access/AccessControlUpgradeable.sol\":5662:5800  function revokeRole(bytes32 role, address account) public virtual onlyRole(getRoleAdmin(role)) {... */\n    tag_156:\n        /* \"@openzeppelin/contracts-upgradeable/access/AccessControlUpgradeable.sol\":5737:5755  getRoleAdmin(role) */\n      tag_336\n        /* \"@openzeppelin/contracts-upgradeable/access/AccessControlUpgradeable.sol\":5750:5754  role */\n      dup3\n        /* \"@openzeppelin/contracts-upgradeable/access/AccessControlUpgradeable.sol\":5737:5749  getRoleAdmin */\n      tag_63\n        /* \"@openzeppelin/contracts-upgradeable/access/AccessControlUpgradeable.sol\":5737:5755  getRoleAdmin(role) */\n      jump\t// in\n    tag_336:\n        /* \"@openzeppelin/contracts-upgradeable/access/AccessControlUpgradeable.sol\":3191:3207  _checkRole(role) */\n      tag_338\n        /* \"@openzeppelin/contracts-upgradeable/access/AccessControlUpgradeable.sol\":3202:3206  role */\n      dup2\n        /* \"@openzeppelin/contracts-upgradeable/access/AccessControlUpgradeable.sol\":3191:3201  _checkRole */\n      tag_205\n        /* \"@openzeppelin/contracts-upgradeable/access/AccessControlUpgradeable.sol\":3191:3207  _checkRole(role) */\n      jump\t// in\n    tag_338:\n        /* \"@openzeppelin/contracts-upgradeable/access/AccessControlUpgradeable.sol\":5767:5793  _revokeRole(role, account) */\n      tag_207\n        /* \"@openzeppelin/contracts-upgradeable/access/AccessControlUpgradeable.sol\":5779:5783  role */\n      dup4\n        /* \"@openzeppelin/contracts-upgradeable/access/AccessControlUpgradeable.sol\":5785:5792  account */\n      dup4\n        /* \"@openzeppelin/contracts-upgradeable/access/AccessControlUpgradeable.sol\":5767:5778  _revokeRole */\n      tag_214\n        /* \"@openzeppelin/contracts-upgradeable/access/AccessControlUpgradeable.sol\":5767:5793  _revokeRole(role, account) */\n      jump\t// in\n        /* \"src/contract/CryptoQuestTheShardsOfGenesisWallet.sol\":3879:4374  function executeTransaction(uint256 _txIndex) public onlyAdmin txExists(_txIndex) notExecuted(_txIndex) {... */\n    tag_164:\n        /* \"src/contract/CryptoQuestTheShardsOfGenesisWallet.sol\":2585:2616  hasRole(ADMIN_ROLE, msg.sender) */\n      tag_342\n      0x00\n      dup1\n      mload\n      0x20\n      data_cb864c43dd5d441bb6271f424f11befa622c032dfd374d226e26fbbdb782b8f8\n      dup4\n      codecopy\n      dup2\n      mload\n      swap2\n      mstore\n        /* \"src/contract/CryptoQuestTheShardsOfGenesisWallet.sol\":2605:2615  msg.sender */\n      caller\n        /* \"src/contract/CryptoQuestTheShardsOfGenesisWallet.sol\":2585:2592  hasRole */\n      tag_120\n        /* \"src/contract/CryptoQuestTheShardsOfGenesisWallet.sol\":2585:2616  hasRole(ADMIN_ROLE, msg.sender) */\n      jump\t// in\n    tag_342:\n        /* \"src/contract/CryptoQuestTheShardsOfGenesisWallet.sol\":2577:2633  require(hasRole(ADMIN_ROLE, msg.sender), \"Not an admin\") */\n      tag_343\n      jumpi\n      mload(0x40)\n      shl(0xe5, 0x461bcd)\n      dup2\n      mstore\n      0x04\n      add\n      tag_176\n      swap1\n      tag_177\n      jump\t// in\n    tag_343:\n        /* \"src/contract/CryptoQuestTheShardsOfGenesisWallet.sol\":2722:2734  transactions */\n      0x33\n        /* \"src/contract/CryptoQuestTheShardsOfGenesisWallet.sol\":2722:2741  transactions.length */\n      sload\n        /* \"src/contract/CryptoQuestTheShardsOfGenesisWallet.sol\":3951:3959  _txIndex */\n      dup2\n      swap1\n        /* \"src/contract/CryptoQuestTheShardsOfGenesisWallet.sol\":2711:2741  _txIndex < transactions.length */\n      dup2\n      lt\n        /* \"src/contract/CryptoQuestTheShardsOfGenesisWallet.sol\":2703:2772  require(_txIndex < transactions.length, \"Transaction does not exist\") */\n      tag_346\n      jumpi\n      mload(0x40)\n      shl(0xe5, 0x461bcd)\n      dup2\n      mstore\n      0x04\n      add\n      tag_176\n      swap1\n      tag_181\n      jump\t// in\n    tag_346:\n        /* \"src/contract/CryptoQuestTheShardsOfGenesisWallet.sol\":3973:3981  _txIndex */\n      dup2\n        /* \"src/contract/CryptoQuestTheShardsOfGenesisWallet.sol\":2854:2866  transactions */\n      0x33\n        /* \"src/contract/CryptoQuestTheShardsOfGenesisWallet.sol\":2867:2875  _txIndex */\n      dup2\n        /* \"src/contract/CryptoQuestTheShardsOfGenesisWallet.sol\":2854:2876  transactions[_txIndex] */\n      dup2\n      sload\n      dup2\n      lt\n      tag_350\n      jumpi\n      tag_350\n      tag_185\n      jump\t// in\n    tag_350:\n      0x00\n      swap2\n      dup3\n      mstore\n      0x20\n      swap1\n      swap2\n      keccak256\n        /* \"src/contract/CryptoQuestTheShardsOfGenesisWallet.sol\":2854:2885  transactions[_txIndex].executed */\n      0x03\n        /* \"src/contract/CryptoQuestTheShardsOfGenesisWallet.sol\":2854:2876  transactions[_txIndex] */\n      0x05\n      swap1\n      swap3\n      mul\n      add\n        /* \"src/contract/CryptoQuestTheShardsOfGenesisWallet.sol\":2854:2885  transactions[_txIndex].executed */\n      add\n      sload\n      0xff\n      and\n        /* \"src/contract/CryptoQuestTheShardsOfGenesisWallet.sol\":2853:2885  !transactions[_txIndex].executed */\n      iszero\n        /* \"src/contract/CryptoQuestTheShardsOfGenesisWallet.sol\":2845:2918  require(!transactions[_txIndex].executed, \"Transaction already executed\") */\n      tag_352\n      jumpi\n      mload(0x40)\n      shl(0xe5, 0x461bcd)\n      dup2\n      mstore\n      0x04\n      add\n      tag_176\n      swap1\n      tag_189\n      jump\t// in\n    tag_352:\n        /* \"src/contract/CryptoQuestTheShardsOfGenesisWallet.sol\":3993:4024  Transaction storage transaction */\n      0x00\n        /* \"src/contract/CryptoQuestTheShardsOfGenesisWallet.sol\":4027:4039  transactions */\n      0x33\n        /* \"src/contract/CryptoQuestTheShardsOfGenesisWallet.sol\":4040:4048  _txIndex */\n      dup5\n        /* \"src/contract/CryptoQuestTheShardsOfGenesisWallet.sol\":4027:4049  transactions[_txIndex] */\n      dup2\n      sload\n      dup2\n      lt\n      tag_356\n      jumpi\n      tag_356\n      tag_185\n      jump\t// in\n    tag_356:\n      swap1\n      0x00\n      mstore\n      keccak256(0x00, 0x20)\n      swap1\n      0x05\n      mul\n      add\n        /* \"src/contract/CryptoQuestTheShardsOfGenesisWallet.sol\":3993:4049  Transaction storage transaction = transactions[_txIndex] */\n      swap1\n      pop\n        /* \"src/contract/CryptoQuestTheShardsOfGenesisWallet.sol\":4100:4121  requiredConfirmations */\n      sload(0x34)\n        /* \"src/contract/CryptoQuestTheShardsOfGenesisWallet.sol\":4068:4079  transaction */\n      dup2\n        /* \"src/contract/CryptoQuestTheShardsOfGenesisWallet.sol\":4068:4096  transaction.numConfirmations */\n      0x04\n      add\n      sload\n        /* \"src/contract/CryptoQuestTheShardsOfGenesisWallet.sol\":4068:4121  transaction.numConfirmations >= requiredConfirmations */\n      lt\n      iszero\n        /* \"src/contract/CryptoQuestTheShardsOfGenesisWallet.sol\":4060:4143  require(transaction.numConfirmations >= requiredConfirmations, \"Cannot execute tx\") */\n      tag_358\n      jumpi\n      mload(0x40)\n      shl(0xe5, 0x461bcd)\n      dup2\n      mstore\n        /* \"#utility.yul\":12769:12771   */\n      0x20\n        /* \"src/contract/CryptoQuestTheShardsOfGenesisWallet.sol\":4060:4143  require(transaction.numConfirmations >= requiredConfirmations, \"Cannot execute tx\") */\n      0x04\n      dup3\n      add\n        /* \"#utility.yul\":12751:12772   */\n      mstore\n        /* \"#utility.yul\":12808:12810   */\n      0x11\n        /* \"#utility.yul\":12788:12806   */\n      0x24\n      dup3\n      add\n        /* \"#utility.yul\":12781:12811   */\n      mstore\n      shl(0x7b, 0x086c2dcdcdee840caf0cac6eae8ca40e8f)\n        /* \"#utility.yul\":12827:12845   */\n      0x44\n      dup3\n      add\n        /* \"#utility.yul\":12820:12867   */\n      mstore\n        /* \"#utility.yul\":12884:12902   */\n      0x64\n      add\n        /* \"src/contract/CryptoQuestTheShardsOfGenesisWallet.sol\":4060:4143  require(transaction.numConfirmations >= requiredConfirmations, \"Cannot execute tx\") */\n      tag_176\n        /* \"#utility.yul\":12567:12908   */\n      jump\n        /* \"src/contract/CryptoQuestTheShardsOfGenesisWallet.sol\":4060:4143  require(transaction.numConfirmations >= requiredConfirmations, \"Cannot execute tx\") */\n    tag_358:\n        /* \"src/contract/CryptoQuestTheShardsOfGenesisWallet.sol\":4154:4174  transaction.executed */\n      0x03\n      dup2\n      add\n        /* \"src/contract/CryptoQuestTheShardsOfGenesisWallet.sol\":4154:4181  transaction.executed = true */\n      dup1\n      sload\n      not(0xff)\n      and\n        /* \"src/contract/CryptoQuestTheShardsOfGenesisWallet.sol\":4177:4181  true */\n      0x01\n        /* \"src/contract/CryptoQuestTheShardsOfGenesisWallet.sol\":4154:4181  transaction.executed = true */\n      swap1\n      dup2\n      or\n      swap1\n      swap2\n      sstore\n        /* \"src/contract/CryptoQuestTheShardsOfGenesisWallet.sol\":4211:4225  transaction.to */\n      dup2\n      sload\n        /* \"src/contract/CryptoQuestTheShardsOfGenesisWallet.sol\":4238:4255  transaction.value */\n      swap1\n      dup3\n      add\n      sload\n        /* \"src/contract/CryptoQuestTheShardsOfGenesisWallet.sol\":4211:4274  transaction.to.call{value: transaction.value}(transaction.data) */\n      mload(0x40)\n        /* \"src/contract/CryptoQuestTheShardsOfGenesisWallet.sol\":4154:4174  transaction.executed */\n      0x00\n      swap3\n      sub(shl(0xa0, 0x01), 0x01)\n        /* \"src/contract/CryptoQuestTheShardsOfGenesisWallet.sol\":4211:4225  transaction.to */\n      and\n      swap2\n        /* \"src/contract/CryptoQuestTheShardsOfGenesisWallet.sol\":4238:4255  transaction.value */\n      swap1\n        /* \"src/contract/CryptoQuestTheShardsOfGenesisWallet.sol\":4211:4274  transaction.to.call{value: transaction.value}(transaction.data) */\n      tag_361\n      swap1\n        /* \"src/contract/CryptoQuestTheShardsOfGenesisWallet.sol\":4257:4273  transaction.data */\n      0x02\n      dup7\n      add\n      swap1\n        /* \"src/contract/CryptoQuestTheShardsOfGenesisWallet.sol\":4211:4274  transaction.to.call{value: transaction.value}(transaction.data) */\n      tag_362\n      jump\t// in\n    tag_361:\n      0x00\n      mload(0x40)\n      dup1\n      dup4\n      sub\n      dup2\n      dup6\n      dup8\n      gas\n      call\n      swap3\n      pop\n      pop\n      pop\n      returndatasize\n      dup1\n      0x00\n      dup2\n      eq\n      tag_365\n      jumpi\n      mload(0x40)\n      swap2\n      pop\n      and(add(returndatasize, 0x3f), not(0x1f))\n      dup3\n      add\n      0x40\n      mstore\n      returndatasize\n      dup3\n      mstore\n      returndatasize\n      0x00\n      0x20\n      dup5\n      add\n      returndatacopy\n      jump(tag_364)\n    tag_365:\n      0x60\n      swap2\n      pop\n    tag_364:\n      pop\n        /* \"src/contract/CryptoQuestTheShardsOfGenesisWallet.sol\":4192:4274  (bool success, ) = transaction.to.call{value: transaction.value}(transaction.data) */\n      pop\n      swap1\n      pop\n        /* \"src/contract/CryptoQuestTheShardsOfGenesisWallet.sol\":4292:4299  success */\n      dup1\n        /* \"src/contract/CryptoQuestTheShardsOfGenesisWallet.sol\":4284:4322  require(success, \"Transaction failed\") */\n      tag_366\n      jumpi\n      mload(0x40)\n      shl(0xe5, 0x461bcd)\n      dup2\n      mstore\n        /* \"#utility.yul\":13961:13963   */\n      0x20\n        /* \"src/contract/CryptoQuestTheShardsOfGenesisWallet.sol\":4284:4322  require(success, \"Transaction failed\") */\n      0x04\n      dup3\n      add\n        /* \"#utility.yul\":13943:13964   */\n      mstore\n        /* \"#utility.yul\":14000:14002   */\n      0x12\n        /* \"#utility.yul\":13980:13998   */\n      0x24\n      dup3\n      add\n        /* \"#utility.yul\":13973:14003   */\n      mstore\n      shl(0x72, 0x151c985b9cd858dd1a5bdb8819985a5b1959)\n        /* \"#utility.yul\":14019:14037   */\n      0x44\n      dup3\n      add\n        /* \"#utility.yul\":14012:14060   */\n      mstore\n        /* \"#utility.yul\":14077:14095   */\n      0x64\n      add\n        /* \"src/contract/CryptoQuestTheShardsOfGenesisWallet.sol\":4284:4322  require(success, \"Transaction failed\") */\n      tag_176\n        /* \"#utility.yul\":13759:14101   */\n      jump\n        /* \"src/contract/CryptoQuestTheShardsOfGenesisWallet.sol\":4284:4322  require(success, \"Transaction failed\") */\n    tag_366:\n        /* \"src/contract/CryptoQuestTheShardsOfGenesisWallet.sol\":4338:4367  TransactionExecuted(_txIndex) */\n      mload(0x40)\n        /* \"src/contract/CryptoQuestTheShardsOfGenesisWallet.sol\":4358:4366  _txIndex */\n      dup6\n      swap1\n        /* \"src/contract/CryptoQuestTheShardsOfGenesisWallet.sol\":4338:4367  TransactionExecuted(_txIndex) */\n      0x15ed165a284872ea7017f03df402a0cadfbfab588320ffaf83f160c2f82781c7\n      swap1\n      0x00\n      swap1\n      log2\n        /* \"src/contract/CryptoQuestTheShardsOfGenesisWallet.sol\":3983:4374  {... */\n      pop\n      pop\n        /* \"src/contract/CryptoQuestTheShardsOfGenesisWallet.sol\":2782:2783  _ */\n      pop\n        /* \"src/contract/CryptoQuestTheShardsOfGenesisWallet.sol\":2643:2644  _ */\n      pop\n        /* \"src/contract/CryptoQuestTheShardsOfGenesisWallet.sol\":3879:4374  function executeTransaction(uint256 _txIndex) public onlyAdmin txExists(_txIndex) notExecuted(_txIndex) {... */\n      pop\n      jump\t// out\n        /* \"@openzeppelin/contracts-upgradeable/access/AccessControlUpgradeable.sol\":4148:4251  function _checkRole(bytes32 role) internal view virtual {... */\n    tag_205:\n        /* \"@openzeppelin/contracts-upgradeable/access/AccessControlUpgradeable.sol\":4214:4244  _checkRole(role, _msgSender()) */\n      tag_218\n        /* \"@openzeppelin/contracts-upgradeable/access/AccessControlUpgradeable.sol\":4225:4229  role */\n      dup2\n        /* \"@openzeppelin/contracts-upgradeable/utils/ContextUpgradeable.sol\":966:976  msg.sender */\n      caller\n        /* \"@openzeppelin/contracts-upgradeable/access/AccessControlUpgradeable.sol\":4214:4224  _checkRole */\n      tag_374\n        /* \"@openzeppelin/contracts-upgradeable/access/AccessControlUpgradeable.sol\":4214:4244  _checkRole(role, _msgSender()) */\n      jump\t// in\n        /* \"@openzeppelin/contracts-upgradeable/access/AccessControlUpgradeable.sol\":7270:7657  function _grantRole(bytes32 role, address account) internal virtual returns (bool) {... */\n    tag_208:\n        /* \"@openzeppelin/contracts-upgradeable/access/AccessControlUpgradeable.sol\":7347:7351  bool */\n      0x00\n      0x00\n      dup1\n      mload\n      0x20\n      data_b3da67d1b252aeab7c8063542d95e75f82a5307a82535949bc38f7cf7ba8897f\n      dup4\n      codecopy\n      dup2\n      mload\n      swap2\n      mstore\n        /* \"@openzeppelin/contracts-upgradeable/access/AccessControlUpgradeable.sol\":7437:7459  hasRole(role, account) */\n      tag_377\n        /* \"@openzeppelin/contracts-upgradeable/access/AccessControlUpgradeable.sol\":7445:7449  role */\n      dup5\n        /* \"@openzeppelin/contracts-upgradeable/access/AccessControlUpgradeable.sol\":7451:7458  account */\n      dup5\n        /* \"@openzeppelin/contracts-upgradeable/access/AccessControlUpgradeable.sol\":7437:7444  hasRole */\n      tag_120\n        /* \"@openzeppelin/contracts-upgradeable/access/AccessControlUpgradeable.sol\":7437:7459  hasRole(role, account) */\n      jump\t// in\n    tag_377:\n        /* \"@openzeppelin/contracts-upgradeable/access/AccessControlUpgradeable.sol\":7432:7651  if (!hasRole(role, account)) {... */\n      tag_378\n      jumpi\n        /* \"@openzeppelin/contracts-upgradeable/access/AccessControlUpgradeable.sol\":7475:7483  $._roles */\n      0x00\n        /* \"@openzeppelin/contracts-upgradeable/access/AccessControlUpgradeable.sol\":7475:7489  $._roles[role] */\n      dup5\n      dup2\n      mstore\n      0x20\n      dup3\n      dup2\n      mstore\n      0x40\n      dup1\n      dup4\n      keccak256\n      sub(shl(0xa0, 0x01), 0x01)\n        /* \"@openzeppelin/contracts-upgradeable/access/AccessControlUpgradeable.sol\":7475:7506  $._roles[role].hasRole[account] */\n      dup8\n      and\n      dup5\n      mstore\n      swap1\n      swap2\n      mstore\n      swap1\n      keccak256\n        /* \"@openzeppelin/contracts-upgradeable/access/AccessControlUpgradeable.sol\":7475:7513  $._roles[role].hasRole[account] = true */\n      dup1\n      sload\n      not(0xff)\n      and\n        /* \"@openzeppelin/contracts-upgradeable/access/AccessControlUpgradeable.sol\":7509:7513  true */\n      0x01\n        /* \"@openzeppelin/contracts-upgradeable/access/AccessControlUpgradeable.sol\":7475:7513  $._roles[role].hasRole[account] = true */\n      or\n      swap1\n      sstore\n        /* \"@openzeppelin/contracts-upgradeable/access/AccessControlUpgradeable.sol\":7559:7571  _msgSender() */\n      tag_379\n        /* \"@openzeppelin/contracts-upgradeable/utils/ContextUpgradeable.sol\":966:976  msg.sender */\n      caller\n      swap1\n        /* \"@openzeppelin/contracts-upgradeable/utils/ContextUpgradeable.sol\":887:983  function _msgSender() internal view virtual returns (address) {... */\n      jump\n        /* \"@openzeppelin/contracts-upgradeable/access/AccessControlUpgradeable.sol\":7559:7571  _msgSender() */\n    tag_379:\n      sub(shl(0xa0, 0x01), 0x01)\n        /* \"@openzeppelin/contracts-upgradeable/access/AccessControlUpgradeable.sol\":7532:7572  RoleGranted(role, account, _msgSender()) */\n      and\n        /* \"@openzeppelin/contracts-upgradeable/access/AccessControlUpgradeable.sol\":7550:7557  account */\n      dup4\n      sub(shl(0xa0, 0x01), 0x01)\n        /* \"@openzeppelin/contracts-upgradeable/access/AccessControlUpgradeable.sol\":7532:7572  RoleGranted(role, account, _msgSender()) */\n      and\n        /* \"@openzeppelin/contracts-upgradeable/access/AccessControlUpgradeable.sol\":7544:7548  role */\n      dup6\n        /* \"@openzeppelin/contracts-upgradeable/access/AccessControlUpgradeable.sol\":7532:7572  RoleGranted(role, account, _msgSender()) */\n      0x2f8788117e7eff1d82e926ec794901d17c78024a50270940304540a733656f0d\n      mload(0x40)\n      mload(0x40)\n      dup1\n      swap2\n      sub\n      swap1\n      log4\n        /* \"@openzeppelin/contracts-upgradeable/access/AccessControlUpgradeable.sol\":7593:7597  true */\n      0x01\n        /* \"@openzeppelin/contracts-upgradeable/access/AccessControlUpgradeable.sol\":7586:7597  return true */\n      swap2\n      pop\n      pop\n      jump(tag_171)\n        /* \"@openzeppelin/contracts-upgradeable/access/AccessControlUpgradeable.sol\":7432:7651  if (!hasRole(role, account)) {... */\n    tag_378:\n        /* \"@openzeppelin/contracts-upgradeable/access/AccessControlUpgradeable.sol\":7635:7640  false */\n      0x00\n        /* \"@openzeppelin/contracts-upgradeable/access/AccessControlUpgradeable.sol\":7628:7640  return false */\n      swap2\n      pop\n      pop\n      jump(tag_171)\n        /* \"@openzeppelin/contracts-upgradeable/access/AccessControlUpgradeable.sol\":7892:8280  function _revokeRole(bytes32 role, address account) internal virtual returns (bool) {... */\n    tag_214:\n        /* \"@openzeppelin/contracts-upgradeable/access/AccessControlUpgradeable.sol\":7970:7974  bool */\n      0x00\n      0x00\n      dup1\n      mload\n      0x20\n      data_b3da67d1b252aeab7c8063542d95e75f82a5307a82535949bc38f7cf7ba8897f\n      dup4\n      codecopy\n      dup2\n      mload\n      swap2\n      mstore\n        /* \"@openzeppelin/contracts-upgradeable/access/AccessControlUpgradeable.sol\":8059:8081  hasRole(role, account) */\n      tag_384\n        /* \"@openzeppelin/contracts-upgradeable/access/AccessControlUpgradeable.sol\":8067:8071  role */\n      dup5\n        /* \"@openzeppelin/contracts-upgradeable/access/AccessControlUpgradeable.sol\":8073:8080  account */\n      dup5\n        /* \"@openzeppelin/contracts-upgradeable/access/AccessControlUpgradeable.sol\":8059:8066  hasRole */\n      tag_120\n        /* \"@openzeppelin/contracts-upgradeable/access/AccessControlUpgradeable.sol\":8059:8081  hasRole(role, account) */\n      jump\t// in\n    tag_384:\n        /* \"@openzeppelin/contracts-upgradeable/access/AccessControlUpgradeable.sol\":8055:8274  if (hasRole(role, account)) {... */\n      iszero\n      tag_378\n      jumpi\n        /* \"@openzeppelin/contracts-upgradeable/access/AccessControlUpgradeable.sol\":8131:8136  false */\n      0x00\n        /* \"@openzeppelin/contracts-upgradeable/access/AccessControlUpgradeable.sol\":8097:8111  $._roles[role] */\n      dup5\n      dup2\n      mstore\n      0x20\n      dup3\n      dup2\n      mstore\n      0x40\n      dup1\n      dup4\n      keccak256\n      sub(shl(0xa0, 0x01), 0x01)\n        /* \"@openzeppelin/contracts-upgradeable/access/AccessControlUpgradeable.sol\":8097:8128  $._roles[role].hasRole[account] */\n      dup8\n      and\n      dup1\n      dup6\n      mstore\n      swap3\n      mstore\n      dup1\n      dup4\n      keccak256\n        /* \"@openzeppelin/contracts-upgradeable/access/AccessControlUpgradeable.sol\":8097:8136  $._roles[role].hasRole[account] = false */\n      dup1\n      sload\n      not(0xff)\n      and\n      swap1\n      sstore\n        /* \"@openzeppelin/contracts-upgradeable/access/AccessControlUpgradeable.sol\":8155:8195  RoleRevoked(role, account, _msgSender()) */\n      mload\n        /* \"@openzeppelin/contracts-upgradeable/utils/ContextUpgradeable.sol\":966:976  msg.sender */\n      caller\n      swap3\n        /* \"@openzeppelin/contracts-upgradeable/access/AccessControlUpgradeable.sol\":8097:8111  $._roles[role] */\n      dup8\n      swap2\n        /* \"@openzeppelin/contracts-upgradeable/access/AccessControlUpgradeable.sol\":8155:8195  RoleRevoked(role, account, _msgSender()) */\n      0xf6391f5c32d9c69d2a47ea670b442974b53935d1edc7fd64eb21e047a839171b\n      swap2\n        /* \"@openzeppelin/contracts-upgradeable/access/AccessControlUpgradeable.sol\":8131:8136  false */\n      swap1\n        /* \"@openzeppelin/contracts-upgradeable/access/AccessControlUpgradeable.sol\":8155:8195  RoleRevoked(role, account, _msgSender()) */\n      log4\n        /* \"@openzeppelin/contracts-upgradeable/access/AccessControlUpgradeable.sol\":8216:8220  true */\n      0x01\n        /* \"@openzeppelin/contracts-upgradeable/access/AccessControlUpgradeable.sol\":8209:8220  return true */\n      swap2\n      pop\n      pop\n      jump(tag_171)\n        /* \"@openzeppelin/contracts-upgradeable/security/PausableUpgradeable.sol\":2697:2814  function _unpause() internal virtual whenPaused {... */\n    tag_219:\n        /* \"@openzeppelin/contracts-upgradeable/security/PausableUpgradeable.sol\":1750:1766  _requirePaused() */\n      tag_389\n        /* \"@openzeppelin/contracts-upgradeable/security/PausableUpgradeable.sol\":1750:1764  _requirePaused */\n      tag_390\n        /* \"@openzeppelin/contracts-upgradeable/security/PausableUpgradeable.sol\":1750:1766  _requirePaused() */\n      jump\t// in\n    tag_389:\n        /* \"@openzeppelin/contracts-upgradeable/security/PausableUpgradeable.sol\":2765:2770  false */\n      0x00\n        /* \"@openzeppelin/contracts-upgradeable/security/PausableUpgradeable.sol\":2755:2770  _paused = false */\n      dup1\n      sload\n      not(0xff)\n      and\n      swap1\n      sstore\n        /* \"@openzeppelin/contracts-upgradeable/security/PausableUpgradeable.sol\":2785:2807  Unpaused(_msgSender()) */\n      0x5db9ee0a495bf2e6ff9c91a7834c1ba4fdd244a5e8aa4e537bd38aeae4b073aa\n        /* \"@openzeppelin/contracts-upgradeable/utils/ContextUpgradeable.sol\":966:976  msg.sender */\n      caller\n        /* \"@openzeppelin/contracts-upgradeable/security/PausableUpgradeable.sol\":2794:2806  _msgSender() */\n    tag_392:\n        /* \"@openzeppelin/contracts-upgradeable/security/PausableUpgradeable.sol\":2785:2807  Unpaused(_msgSender()) */\n      mload(0x40)\n      sub(shl(0xa0, 0x01), 0x01)\n        /* \"#utility.yul\":14270:14302   */\n      swap1\n      swap2\n      and\n        /* \"#utility.yul\":14252:14303   */\n      dup2\n      mstore\n        /* \"#utility.yul\":14240:14242   */\n      0x20\n        /* \"#utility.yul\":14225:14243   */\n      add\n        /* \"@openzeppelin/contracts-upgradeable/security/PausableUpgradeable.sol\":2785:2807  Unpaused(_msgSender()) */\n      mload(0x40)\n      dup1\n      swap2\n      sub\n      swap1\n      log1\n        /* \"@openzeppelin/contracts-upgradeable/security/PausableUpgradeable.sol\":2697:2814  function _unpause() internal virtual whenPaused {... */\n      jump\t// out\n        /* \"@openzeppelin/contracts-upgradeable/proxy/utils/UUPSUpgradeable.sol\":4599:4911  function _checkProxy() internal view virtual {... */\n    tag_222:\n        /* \"@openzeppelin/contracts-upgradeable/proxy/utils/UUPSUpgradeable.sol\":4679:4683  this */\n      address\n      sub(shl(0xa0, 0x01), 0x01)\n        /* \"@openzeppelin/contracts-upgradeable/proxy/utils/UUPSUpgradeable.sol\":4688:4694  __self */\n      immutable(\"0x3b04ad91523c4dcf551e081621e633b9099d51bf9c5461e58c3bc7354a578b27\")\n        /* \"@openzeppelin/contracts-upgradeable/proxy/utils/UUPSUpgradeable.sol\":4671:4694  address(this) == __self */\n      and\n      eq\n      dup1\n        /* \"@openzeppelin/contracts-upgradeable/proxy/utils/UUPSUpgradeable.sol\":4671:4791  address(this) == __self || // Must be called through delegatecall... */\n      tag_396\n      jumpi\n      pop\n        /* \"@openzeppelin/contracts-upgradeable/proxy/utils/UUPSUpgradeable.sol\":4785:4791  __self */\n      immutable(\"0x3b04ad91523c4dcf551e081621e633b9099d51bf9c5461e58c3bc7354a578b27\")\n      sub(shl(0xa0, 0x01), 0x01)\n        /* \"@openzeppelin/contracts-upgradeable/proxy/utils/UUPSUpgradeable.sol\":4749:4791  ERC1967Utils.getImplementation() != __self */\n      and\n        /* \"@openzeppelin/contracts-upgradeable/proxy/utils/UUPSUpgradeable.sol\":4749:4781  ERC1967Utils.getImplementation() */\n      tag_397\n      0x00\n      dup1\n      mload\n      0x20\n      data_75b20eef8615de99c108b05f0dbda081c91897128caa336d75dffb97c4132b4d\n      dup4\n      codecopy\n      dup2\n      mload\n      swap2\n      mstore\n        /* \"@openzeppelin/contracts/proxy/ERC1967/ERC1967Utils.sol\":2035:2088  StorageSlot.getAddressSlot(IMPLEMENTATION_SLOT).value */\n      sload\n      sub(shl(0xa0, 0x01), 0x01)\n      and\n      swap1\n        /* \"@openzeppelin/contracts/proxy/ERC1967/ERC1967Utils.sol\":1957:2095  function getImplementation() internal view returns (address) {... */\n      jump\n        /* \"@openzeppelin/contracts-upgradeable/proxy/utils/UUPSUpgradeable.sol\":4749:4781  ERC1967Utils.getImplementation() */\n    tag_397:\n      sub(shl(0xa0, 0x01), 0x01)\n        /* \"@openzeppelin/contracts-upgradeable/proxy/utils/UUPSUpgradeable.sol\":4749:4791  ERC1967Utils.getImplementation() != __self */\n      and\n      eq\n      iszero\n        /* \"@openzeppelin/contracts-upgradeable/proxy/utils/UUPSUpgradeable.sol\":4671:4791  address(this) == __self || // Must be called through delegatecall... */\n    tag_396:\n        /* \"@openzeppelin/contracts-upgradeable/proxy/utils/UUPSUpgradeable.sol\":4654:4905  if (... */\n      iszero\n      tag_399\n      jumpi\n        /* \"@openzeppelin/contracts-upgradeable/proxy/utils/UUPSUpgradeable.sol\":4865:4894  UUPSUnauthorizedCallContext() */\n      mload(0x40)\n      shl(0xe1, 0x703e46dd)\n      dup2\n      mstore\n      0x04\n      add\n      mload(0x40)\n      dup1\n      swap2\n      sub\n      swap1\n      revert\n        /* \"@openzeppelin/contracts-upgradeable/proxy/utils/UUPSUpgradeable.sol\":4654:4905  if (... */\n    tag_399:\n        /* \"@openzeppelin/contracts-upgradeable/proxy/utils/UUPSUpgradeable.sol\":4599:4911  function _checkProxy() internal view virtual {... */\n      jump\t// out\n        /* \"src/contract/CryptoQuestTheShardsOfGenesisWallet.sol\":5986:6084  function _authorizeUpgrade(address newImplementation) internal override onlyRole(UPGRADER_ROLE) {} */\n    tag_225:\n        /* \"src/contract/CryptoQuestTheShardsOfGenesisWallet.sol\":926:952  keccak256(\"UPGRADER_ROLE\") */\n      0x189ab7a9244df0848122154315af71fe140f3db0fe014031783b0946b8c9d2e3\n        /* \"@openzeppelin/contracts-upgradeable/access/AccessControlUpgradeable.sol\":3191:3207  _checkRole(role) */\n      tag_226\n        /* \"@openzeppelin/contracts-upgradeable/access/AccessControlUpgradeable.sol\":3202:3206  role */\n      dup2\n        /* \"@openzeppelin/contracts-upgradeable/access/AccessControlUpgradeable.sol\":3191:3201  _checkRole */\n      tag_205\n        /* \"@openzeppelin/contracts-upgradeable/access/AccessControlUpgradeable.sol\":3191:3207  _checkRole(role) */\n      jump\t// in\n        /* \"@openzeppelin/contracts-upgradeable/proxy/utils/UUPSUpgradeable.sol\":6052:6590  function _upgradeToAndCallUUPS(address newImplementation, bytes memory data) private {... */\n    tag_227:\n        /* \"@openzeppelin/contracts-upgradeable/proxy/utils/UUPSUpgradeable.sol\":6169:6186  newImplementation */\n      dup2\n      sub(shl(0xa0, 0x01), 0x01)\n        /* \"@openzeppelin/contracts-upgradeable/proxy/utils/UUPSUpgradeable.sol\":6151:6201  IERC1822Proxiable(newImplementation).proxiableUUID */\n      and\n      0x52d1902d\n        /* \"@openzeppelin/contracts-upgradeable/proxy/utils/UUPSUpgradeable.sol\":6151:6203  IERC1822Proxiable(newImplementation).proxiableUUID() */\n      mload(0x40)\n      dup2\n      0xffffffff\n      and\n      0xe0\n      shl\n      dup2\n      mstore\n      0x04\n      add\n      0x20\n      mload(0x40)\n      dup1\n      dup4\n      sub\n      dup2\n      dup7\n      gas\n      staticcall\n      swap3\n      pop\n      pop\n      pop\n      dup1\n      iszero\n      tag_404\n      jumpi\n      pop\n      0x40\n      dup1\n      mload\n      0x1f\n      returndatasize\n      swap1\n      dup2\n      add\n      not(0x1f)\n      and\n      dup3\n      add\n      swap1\n      swap3\n      mstore\n      tag_405\n      swap2\n      dup2\n      add\n      swap1\n      tag_406\n      jump\t// in\n    tag_405:\n      0x01\n    tag_404:\n        /* \"@openzeppelin/contracts-upgradeable/proxy/utils/UUPSUpgradeable.sol\":6147:6584  try IERC1822Proxiable(newImplementation).proxiableUUID() returns (bytes32 slot) {... */\n      tag_407\n      jumpi\n        /* \"@openzeppelin/contracts-upgradeable/proxy/utils/UUPSUpgradeable.sol\":6513:6573  ERC1967Utils.ERC1967InvalidImplementation(newImplementation) */\n      mload(0x40)\n      shl(0xe0, 0x4c9c8ce3)\n      dup2\n      mstore\n      sub(shl(0xa0, 0x01), 0x01)\n        /* \"#utility.yul\":14270:14302   */\n      dup4\n      and\n        /* \"@openzeppelin/contracts-upgradeable/proxy/utils/UUPSUpgradeable.sol\":6513:6573  ERC1967Utils.ERC1967InvalidImplementation(newImplementation) */\n      0x04\n      dup3\n      add\n        /* \"#utility.yul\":14252:14303   */\n      mstore\n        /* \"#utility.yul\":14225:14243   */\n      0x24\n      add\n        /* \"@openzeppelin/contracts-upgradeable/proxy/utils/UUPSUpgradeable.sol\":6513:6573  ERC1967Utils.ERC1967InvalidImplementation(newImplementation) */\n      tag_176\n        /* \"#utility.yul\":14106:14309   */\n      jump\n        /* \"@openzeppelin/contracts-upgradeable/proxy/utils/UUPSUpgradeable.sol\":6147:6584  try IERC1822Proxiable(newImplementation).proxiableUUID() returns (bytes32 slot) {... */\n    tag_407:\n      0x00\n      dup1\n      mload\n      0x20\n      data_75b20eef8615de99c108b05f0dbda081c91897128caa336d75dffb97c4132b4d\n      dup4\n      codecopy\n      dup2\n      mload\n      swap2\n      mstore\n        /* \"@openzeppelin/contracts-upgradeable/proxy/utils/UUPSUpgradeable.sol\":6245:6285  slot != ERC1967Utils.IMPLEMENTATION_SLOT */\n      dup2\n      eq\n        /* \"@openzeppelin/contracts-upgradeable/proxy/utils/UUPSUpgradeable.sol\":6241:6361  if (slot != ERC1967Utils.IMPLEMENTATION_SLOT) {... */\n      tag_413\n      jumpi\n        /* \"@openzeppelin/contracts-upgradeable/proxy/utils/UUPSUpgradeable.sol\":6312:6346  UUPSUnsupportedProxiableUUID(slot) */\n      mload(0x40)\n      shl(0xe2, 0x2a875269)\n      dup2\n      mstore\n      0x04\n      dup2\n      add\n        /* \"#utility.yul\":1635:1660   */\n      dup3\n      swap1\n      mstore\n        /* \"#utility.yul\":1608:1626   */\n      0x24\n      add\n        /* \"@openzeppelin/contracts-upgradeable/proxy/utils/UUPSUpgradeable.sol\":6312:6346  UUPSUnsupportedProxiableUUID(slot) */\n      tag_176\n        /* \"#utility.yul\":1489:1666   */\n      jump\n        /* \"@openzeppelin/contracts-upgradeable/proxy/utils/UUPSUpgradeable.sol\":6241:6361  if (slot != ERC1967Utils.IMPLEMENTATION_SLOT) {... */\n    tag_413:\n        /* \"@openzeppelin/contracts-upgradeable/proxy/utils/UUPSUpgradeable.sol\":6374:6428  ERC1967Utils.upgradeToAndCall(newImplementation, data) */\n      tag_213\n        /* \"@openzeppelin/contracts-upgradeable/proxy/utils/UUPSUpgradeable.sol\":6404:6421  newImplementation */\n      dup4\n        /* \"@openzeppelin/contracts-upgradeable/proxy/utils/UUPSUpgradeable.sol\":6423:6427  data */\n      dup4\n        /* \"@openzeppelin/contracts-upgradeable/proxy/utils/UUPSUpgradeable.sol\":6374:6403  ERC1967Utils.upgradeToAndCall */\n      tag_416\n        /* \"@openzeppelin/contracts-upgradeable/proxy/utils/UUPSUpgradeable.sol\":6374:6428  ERC1967Utils.upgradeToAndCall(newImplementation, data) */\n      jump\t// in\n        /* \"@openzeppelin/contracts-upgradeable/proxy/utils/UUPSUpgradeable.sol\":5028:5241  function _checkNotDelegated() internal view virtual {... */\n    tag_230:\n        /* \"@openzeppelin/contracts-upgradeable/proxy/utils/UUPSUpgradeable.sol\":5102:5106  this */\n      address\n      sub(shl(0xa0, 0x01), 0x01)\n        /* \"@openzeppelin/contracts-upgradeable/proxy/utils/UUPSUpgradeable.sol\":5111:5117  __self */\n      immutable(\"0x3b04ad91523c4dcf551e081621e633b9099d51bf9c5461e58c3bc7354a578b27\")\n        /* \"@openzeppelin/contracts-upgradeable/proxy/utils/UUPSUpgradeable.sol\":5094:5117  address(this) != __self */\n      and\n      eq\n        /* \"@openzeppelin/contracts-upgradeable/proxy/utils/UUPSUpgradeable.sol\":5090:5235  if (address(this) != __self) {... */\n      tag_399\n      jumpi\n        /* \"@openzeppelin/contracts-upgradeable/proxy/utils/UUPSUpgradeable.sol\":5195:5224  UUPSUnauthorizedCallContext() */\n      mload(0x40)\n      shl(0xe1, 0x703e46dd)\n      dup2\n      mstore\n      0x04\n      add\n      mload(0x40)\n      dup1\n      swap2\n      sub\n      swap1\n      revert\n        /* \"@openzeppelin/contracts-upgradeable/security/PausableUpgradeable.sol\":2031:2137  function _requireNotPaused() internal view virtual {... */\n    tag_235:\n        /* \"@openzeppelin/contracts-upgradeable/security/PausableUpgradeable.sol\":1926:1930  bool */\n      0x00\n        /* \"@openzeppelin/contracts-upgradeable/security/PausableUpgradeable.sol\":1949:1956  _paused */\n      sload\n      0xff\n      and\n        /* \"@openzeppelin/contracts-upgradeable/security/PausableUpgradeable.sol\":2100:2109  !paused() */\n      iszero\n        /* \"@openzeppelin/contracts-upgradeable/security/PausableUpgradeable.sol\":2092:2130  require(!paused(), \"Pausable: paused\") */\n      tag_399\n      jumpi\n      mload(0x40)\n      shl(0xe5, 0x461bcd)\n      dup2\n      mstore\n        /* \"#utility.yul\":14705:14707   */\n      0x20\n        /* \"@openzeppelin/contracts-upgradeable/security/PausableUpgradeable.sol\":2092:2130  require(!paused(), \"Pausable: paused\") */\n      0x04\n      dup3\n      add\n        /* \"#utility.yul\":14687:14708   */\n      mstore\n        /* \"#utility.yul\":14744:14746   */\n      0x10\n        /* \"#utility.yul\":14724:14742   */\n      0x24\n      dup3\n      add\n        /* \"#utility.yul\":14717:14747   */\n      mstore\n      shl(0x82, 0x14185d5cd8589b194e881c185d5cd959)\n        /* \"#utility.yul\":14763:14781   */\n      0x44\n      dup3\n      add\n        /* \"#utility.yul\":14756:14802   */\n      mstore\n        /* \"#utility.yul\":14819:14837   */\n      0x64\n      add\n        /* \"@openzeppelin/contracts-upgradeable/security/PausableUpgradeable.sol\":2092:2130  require(!paused(), \"Pausable: paused\") */\n      tag_176\n        /* \"#utility.yul\":14503:14843   */\n      jump\n        /* \"@openzeppelin/contracts-upgradeable/access/AccessControlUpgradeable.sol\":3231:3296  function __AccessControl_init() internal onlyInitializing {... */\n    tag_257:\n        /* \"@openzeppelin/contracts-upgradeable/proxy/utils/Initializable.sol\":6931:6951  _checkInitializing() */\n      tag_399\n        /* \"@openzeppelin/contracts-upgradeable/proxy/utils/Initializable.sol\":6931:6949  _checkInitializing */\n      tag_427\n        /* \"@openzeppelin/contracts-upgradeable/proxy/utils/Initializable.sol\":6931:6951  _checkInitializing() */\n      jump\t// in\n        /* \"@openzeppelin/contracts-upgradeable/security/PausableUpgradeable.sol\":1084:1181  function __Pausable_init() internal onlyInitializing {... */\n    tag_259:\n        /* \"@openzeppelin/contracts-upgradeable/proxy/utils/Initializable.sol\":6931:6951  _checkInitializing() */\n      tag_430\n        /* \"@openzeppelin/contracts-upgradeable/proxy/utils/Initializable.sol\":6931:6949  _checkInitializing */\n      tag_427\n        /* \"@openzeppelin/contracts-upgradeable/proxy/utils/Initializable.sol\":6931:6951  _checkInitializing() */\n      jump\t// in\n    tag_430:\n        /* \"@openzeppelin/contracts-upgradeable/security/PausableUpgradeable.sol\":1147:1174  __Pausable_init_unchained() */\n      tag_399\n        /* \"@openzeppelin/contracts-upgradeable/security/PausableUpgradeable.sol\":1147:1172  __Pausable_init_unchained */\n      tag_433\n        /* \"@openzeppelin/contracts-upgradeable/security/PausableUpgradeable.sol\":1147:1174  __Pausable_init_unchained() */\n      jump\t// in\n        /* \"@openzeppelin/contracts-upgradeable/security/PausableUpgradeable.sol\":2450:2565  function _pause() internal virtual whenNotPaused {... */\n    tag_273:\n        /* \"@openzeppelin/contracts-upgradeable/security/PausableUpgradeable.sol\":1503:1522  _requireNotPaused() */\n      tag_438\n        /* \"@openzeppelin/contracts-upgradeable/security/PausableUpgradeable.sol\":1503:1520  _requireNotPaused */\n      tag_235\n        /* \"@openzeppelin/contracts-upgradeable/security/PausableUpgradeable.sol\":1503:1522  _requireNotPaused() */\n      jump\t// in\n    tag_438:\n        /* \"@openzeppelin/contracts-upgradeable/security/PausableUpgradeable.sol\":2509:2516  _paused */\n      0x00\n        /* \"@openzeppelin/contracts-upgradeable/security/PausableUpgradeable.sol\":2509:2523  _paused = true */\n      dup1\n      sload\n      not(0xff)\n      and\n        /* \"@openzeppelin/contracts-upgradeable/security/PausableUpgradeable.sol\":2519:2523  true */\n      0x01\n        /* \"@openzeppelin/contracts-upgradeable/security/PausableUpgradeable.sol\":2509:2523  _paused = true */\n      or\n      swap1\n      sstore\n        /* \"@openzeppelin/contracts-upgradeable/security/PausableUpgradeable.sol\":2538:2558  Paused(_msgSender()) */\n      0x62e78cea01bee320cd4e420270b5ea74000d11b0c9f74754ebdbfc544b05a258\n        /* \"@openzeppelin/contracts-upgradeable/security/PausableUpgradeable.sol\":2545:2557  _msgSender() */\n      tag_392\n        /* \"@openzeppelin/contracts-upgradeable/utils/ContextUpgradeable.sol\":966:976  msg.sender */\n      caller\n      swap1\n        /* \"@openzeppelin/contracts-upgradeable/utils/ContextUpgradeable.sol\":887:983  function _msgSender() internal view virtual returns (address) {... */\n      jump\n        /* \"@openzeppelin/contracts-upgradeable/access/AccessControlUpgradeable.sol\":4381:4578  function _checkRole(bytes32 role, address account) internal view virtual {... */\n    tag_374:\n        /* \"@openzeppelin/contracts-upgradeable/access/AccessControlUpgradeable.sol\":4469:4491  hasRole(role, account) */\n      tag_443\n        /* \"@openzeppelin/contracts-upgradeable/access/AccessControlUpgradeable.sol\":4477:4481  role */\n      dup3\n        /* \"@openzeppelin/contracts-upgradeable/access/AccessControlUpgradeable.sol\":4483:4490  account */\n      dup3\n        /* \"@openzeppelin/contracts-upgradeable/access/AccessControlUpgradeable.sol\":4469:4476  hasRole */\n      tag_120\n        /* \"@openzeppelin/contracts-upgradeable/access/AccessControlUpgradeable.sol\":4469:4491  hasRole(role, account) */\n      jump\t// in\n    tag_443:\n        /* \"@openzeppelin/contracts-upgradeable/access/AccessControlUpgradeable.sol\":4464:4572  if (!hasRole(role, account)) {... */\n      tag_226\n      jumpi\n        /* \"@openzeppelin/contracts-upgradeable/access/AccessControlUpgradeable.sol\":4514:4561  AccessControlUnauthorizedAccount(account, role) */\n      mload(0x40)\n      shl(0xe0, 0xe2517d3f)\n      dup2\n      mstore\n      sub(shl(0xa0, 0x01), 0x01)\n        /* \"#utility.yul\":9958:9990   */\n      dup3\n      and\n        /* \"@openzeppelin/contracts-upgradeable/access/AccessControlUpgradeable.sol\":4514:4561  AccessControlUnauthorizedAccount(account, role) */\n      0x04\n      dup3\n      add\n        /* \"#utility.yul\":9940:9991   */\n      mstore\n        /* \"#utility.yul\":10007:10025   */\n      0x24\n      dup2\n      add\n        /* \"#utility.yul\":10000:10034   */\n      dup4\n      swap1\n      mstore\n        /* \"#utility.yul\":9913:9931   */\n      0x44\n      add\n        /* \"@openzeppelin/contracts-upgradeable/access/AccessControlUpgradeable.sol\":4514:4561  AccessControlUnauthorizedAccount(account, role) */\n      tag_176\n        /* \"#utility.yul\":9766:10040   */\n      jump\n        /* \"@openzeppelin/contracts-upgradeable/security/PausableUpgradeable.sol\":2209:2315  function _requirePaused() internal view virtual {... */\n    tag_390:\n        /* \"@openzeppelin/contracts-upgradeable/security/PausableUpgradeable.sol\":1926:1930  bool */\n      0x00\n        /* \"@openzeppelin/contracts-upgradeable/security/PausableUpgradeable.sol\":1949:1956  _paused */\n      sload\n      0xff\n      and\n        /* \"@openzeppelin/contracts-upgradeable/security/PausableUpgradeable.sol\":2267:2308  require(paused(), \"Pausable: not paused\") */\n      tag_399\n      jumpi\n      mload(0x40)\n      shl(0xe5, 0x461bcd)\n      dup2\n      mstore\n        /* \"#utility.yul\":15329:15331   */\n      0x20\n        /* \"@openzeppelin/contracts-upgradeable/security/PausableUpgradeable.sol\":2267:2308  require(paused(), \"Pausable: not paused\") */\n      0x04\n      dup3\n      add\n        /* \"#utility.yul\":15311:15332   */\n      mstore\n        /* \"#utility.yul\":15368:15370   */\n      0x14\n        /* \"#utility.yul\":15348:15366   */\n      0x24\n      dup3\n      add\n        /* \"#utility.yul\":15341:15371   */\n      mstore\n      shl(0x62, 0x14185d5cd8589b194e881b9bdd081c185d5cd959)\n        /* \"#utility.yul\":15387:15405   */\n      0x44\n      dup3\n      add\n        /* \"#utility.yul\":15380:15430   */\n      mstore\n        /* \"#utility.yul\":15447:15465   */\n      0x64\n      add\n        /* \"@openzeppelin/contracts-upgradeable/security/PausableUpgradeable.sol\":2267:2308  require(paused(), \"Pausable: not paused\") */\n      tag_176\n        /* \"#utility.yul\":15127:15471   */\n      jump\n        /* \"@openzeppelin/contracts/proxy/ERC1967/ERC1967Utils.sol\":2779:3114  function upgradeToAndCall(address newImplementation, bytes memory data) internal {... */\n    tag_416:\n        /* \"@openzeppelin/contracts/proxy/ERC1967/ERC1967Utils.sol\":2870:2907  _setImplementation(newImplementation) */\n      tag_456\n        /* \"@openzeppelin/contracts/proxy/ERC1967/ERC1967Utils.sol\":2889:2906  newImplementation */\n      dup3\n        /* \"@openzeppelin/contracts/proxy/ERC1967/ERC1967Utils.sol\":2870:2888  _setImplementation */\n      tag_457\n        /* \"@openzeppelin/contracts/proxy/ERC1967/ERC1967Utils.sol\":2870:2907  _setImplementation(newImplementation) */\n      jump\t// in\n    tag_456:\n        /* \"@openzeppelin/contracts/proxy/ERC1967/ERC1967Utils.sol\":2922:2949  Upgraded(newImplementation) */\n      mload(0x40)\n      sub(shl(0xa0, 0x01), 0x01)\n      dup4\n      and\n      swap1\n      0xbc7cd75a20ee27fd9adebab32041f755214dbc6bffa90cc0225b39da2e5c2d3b\n      swap1\n      0x00\n      swap1\n      log2\n        /* \"@openzeppelin/contracts/proxy/ERC1967/ERC1967Utils.sol\":2964:2975  data.length */\n      dup1\n      mload\n        /* \"@openzeppelin/contracts/proxy/ERC1967/ERC1967Utils.sol\":2964:2979  data.length > 0 */\n      iszero\n        /* \"@openzeppelin/contracts/proxy/ERC1967/ERC1967Utils.sol\":2960:3108  if (data.length > 0) {... */\n      tag_458\n      jumpi\n        /* \"@openzeppelin/contracts/proxy/ERC1967/ERC1967Utils.sol\":2995:3048  Address.functionDelegateCall(newImplementation, data) */\n      tag_213\n        /* \"@openzeppelin/contracts/proxy/ERC1967/ERC1967Utils.sol\":3024:3041  newImplementation */\n      dup3\n        /* \"@openzeppelin/contracts/proxy/ERC1967/ERC1967Utils.sol\":3043:3047  data */\n      dup3\n        /* \"@openzeppelin/contracts/proxy/ERC1967/ERC1967Utils.sol\":2995:3023  Address.functionDelegateCall */\n      tag_460\n        /* \"@openzeppelin/contracts/proxy/ERC1967/ERC1967Utils.sol\":2995:3048  Address.functionDelegateCall(newImplementation, data) */\n      jump\t// in\n        /* \"@openzeppelin/contracts/proxy/ERC1967/ERC1967Utils.sol\":2960:3108  if (data.length > 0) {... */\n    tag_458:\n        /* \"@openzeppelin/contracts/proxy/ERC1967/ERC1967Utils.sol\":3079:3097  _checkNonPayable() */\n      tag_226\n        /* \"@openzeppelin/contracts/proxy/ERC1967/ERC1967Utils.sol\":3079:3095  _checkNonPayable */\n      tag_463\n        /* \"@openzeppelin/contracts/proxy/ERC1967/ERC1967Utils.sol\":3079:3097  _checkNonPayable() */\n      jump\t// in\n        /* \"@openzeppelin/contracts-upgradeable/proxy/utils/Initializable.sol\":7084:7225  function _checkInitializing() internal view virtual {... */\n    tag_427:\n        /* \"@openzeppelin/contracts-upgradeable/proxy/utils/Initializable.sol\":8870:8891  INITIALIZABLE_STORAGE */\n      0xf0c57e16840df040f15088dc2f81fe391c3923bec73e23a9662efc9c229c6a00\n        /* \"@openzeppelin/contracts-upgradeable/proxy/utils/Initializable.sol\":8560:8600  _getInitializableStorage()._initializing */\n      sload\n      shl(0x40, 0x01)\n      swap1\n      div\n      0xff\n      and\n        /* \"@openzeppelin/contracts-upgradeable/proxy/utils/Initializable.sol\":7146:7219  if (!_isInitializing()) {... */\n      tag_399\n      jumpi\n        /* \"@openzeppelin/contracts-upgradeable/proxy/utils/Initializable.sol\":7191:7208  NotInitializing() */\n      mload(0x40)\n      shl(0xe3, 0x1afcd79f)\n      dup2\n      mstore\n      0x04\n      add\n      mload(0x40)\n      dup1\n      swap2\n      sub\n      swap1\n      revert\n        /* \"@openzeppelin/contracts-upgradeable/security/PausableUpgradeable.sol\":1187:1282  function __Pausable_init_unchained() internal onlyInitializing {... */\n    tag_433:\n        /* \"@openzeppelin/contracts-upgradeable/proxy/utils/Initializable.sol\":6931:6951  _checkInitializing() */\n      tag_469\n        /* \"@openzeppelin/contracts-upgradeable/proxy/utils/Initializable.sol\":6931:6949  _checkInitializing */\n      tag_427\n        /* \"@openzeppelin/contracts-upgradeable/proxy/utils/Initializable.sol\":6931:6951  _checkInitializing() */\n      jump\t// in\n    tag_469:\n        /* \"@openzeppelin/contracts-upgradeable/security/PausableUpgradeable.sol\":1270:1275  false */\n      0x00\n        /* \"@openzeppelin/contracts-upgradeable/security/PausableUpgradeable.sol\":1260:1275  _paused = false */\n      dup1\n      sload\n      not(0xff)\n      and\n      swap1\n      sstore\n        /* \"@openzeppelin/contracts-upgradeable/security/PausableUpgradeable.sol\":1187:1282  function __Pausable_init_unchained() internal onlyInitializing {... */\n      jump\t// out\n        /* \"@openzeppelin/contracts/proxy/ERC1967/ERC1967Utils.sol\":2186:2467  function _setImplementation(address newImplementation) private {... */\n    tag_457:\n        /* \"@openzeppelin/contracts/proxy/ERC1967/ERC1967Utils.sol\":2263:2280  newImplementation */\n      dup1\n      sub(shl(0xa0, 0x01), 0x01)\n        /* \"@openzeppelin/contracts/proxy/ERC1967/ERC1967Utils.sol\":2263:2292  newImplementation.code.length */\n      and\n      extcodesize\n        /* \"@openzeppelin/contracts/proxy/ERC1967/ERC1967Utils.sol\":2296:2297  0 */\n      0x00\n        /* \"@openzeppelin/contracts/proxy/ERC1967/ERC1967Utils.sol\":2263:2297  newImplementation.code.length == 0 */\n      sub\n        /* \"@openzeppelin/contracts/proxy/ERC1967/ERC1967Utils.sol\":2259:2378  if (newImplementation.code.length == 0) {... */\n      tag_473\n      jumpi\n        /* \"@openzeppelin/contracts/proxy/ERC1967/ERC1967Utils.sol\":2320:2367  ERC1967InvalidImplementation(newImplementation) */\n      mload(0x40)\n      shl(0xe0, 0x4c9c8ce3)\n      dup2\n      mstore\n      sub(shl(0xa0, 0x01), 0x01)\n        /* \"#utility.yul\":14270:14302   */\n      dup3\n      and\n        /* \"@openzeppelin/contracts/proxy/ERC1967/ERC1967Utils.sol\":2320:2367  ERC1967InvalidImplementation(newImplementation) */\n      0x04\n      dup3\n      add\n        /* \"#utility.yul\":14252:14303   */\n      mstore\n        /* \"#utility.yul\":14225:14243   */\n      0x24\n      add\n        /* \"@openzeppelin/contracts/proxy/ERC1967/ERC1967Utils.sol\":2320:2367  ERC1967InvalidImplementation(newImplementation) */\n      tag_176\n        /* \"#utility.yul\":14106:14309   */\n      jump\n        /* \"@openzeppelin/contracts/proxy/ERC1967/ERC1967Utils.sol\":2259:2378  if (newImplementation.code.length == 0) {... */\n    tag_473:\n      0x00\n      dup1\n      mload\n      0x20\n      data_75b20eef8615de99c108b05f0dbda081c91897128caa336d75dffb97c4132b4d\n      dup4\n      codecopy\n      dup2\n      mload\n      swap2\n      mstore\n        /* \"@openzeppelin/contracts/proxy/ERC1967/ERC1967Utils.sol\":2387:2460  StorageSlot.getAddressSlot(IMPLEMENTATION_SLOT).value = newImplementation */\n      dup1\n      sload\n      not(sub(shl(0xa0, 0x01), 0x01))\n      and\n      sub(shl(0xa0, 0x01), 0x01)\n      swap3\n      swap1\n      swap3\n      and\n      swap2\n      swap1\n      swap2\n      or\n      swap1\n      sstore\n        /* \"@openzeppelin/contracts/proxy/ERC1967/ERC1967Utils.sol\":2186:2467  function _setImplementation(address newImplementation) private {... */\n      jump\t// out\n        /* \"@openzeppelin/contracts/utils/Address.sol\":4106:4359  function functionDelegateCall(address target, bytes memory data) internal returns (bytes memory) {... */\n    tag_460:\n        /* \"@openzeppelin/contracts/utils/Address.sol\":4189:4201  bytes memory */\n      0x60\n        /* \"@openzeppelin/contracts/utils/Address.sol\":4214:4226  bool success */\n      0x00\n        /* \"@openzeppelin/contracts/utils/Address.sol\":4228:4251  bytes memory returndata */\n      dup1\n        /* \"@openzeppelin/contracts/utils/Address.sol\":4255:4261  target */\n      dup5\n      sub(shl(0xa0, 0x01), 0x01)\n        /* \"@openzeppelin/contracts/utils/Address.sol\":4255:4274  target.delegatecall */\n      and\n        /* \"@openzeppelin/contracts/utils/Address.sol\":4275:4279  data */\n      dup5\n        /* \"@openzeppelin/contracts/utils/Address.sol\":4255:4280  target.delegatecall(data) */\n      mload(0x40)\n      tag_477\n      swap2\n      swap1\n      tag_478\n      jump\t// in\n    tag_477:\n      0x00\n      mload(0x40)\n      dup1\n      dup4\n      sub\n      dup2\n      dup6\n      gas\n      delegatecall\n      swap2\n      pop\n      pop\n      returndatasize\n      dup1\n      0x00\n      dup2\n      eq\n      tag_481\n      jumpi\n      mload(0x40)\n      swap2\n      pop\n      and(add(returndatasize, 0x3f), not(0x1f))\n      dup3\n      add\n      0x40\n      mstore\n      returndatasize\n      dup3\n      mstore\n      returndatasize\n      0x00\n      0x20\n      dup5\n      add\n      returndatacopy\n      jump(tag_480)\n    tag_481:\n      0x60\n      swap2\n      pop\n    tag_480:\n      pop\n        /* \"@openzeppelin/contracts/utils/Address.sol\":4213:4280  (bool success, bytes memory returndata) = target.delegatecall(data) */\n      swap2\n      pop\n      swap2\n      pop\n        /* \"@openzeppelin/contracts/utils/Address.sol\":4297:4352  verifyCallResultFromTarget(target, success, returndata) */\n      tag_482\n        /* \"@openzeppelin/contracts/utils/Address.sol\":4324:4330  target */\n      dup6\n        /* \"@openzeppelin/contracts/utils/Address.sol\":4332:4339  success */\n      dup4\n        /* \"@openzeppelin/contracts/utils/Address.sol\":4341:4351  returndata */\n      dup4\n        /* \"@openzeppelin/contracts/utils/Address.sol\":4297:4323  verifyCallResultFromTarget */\n      tag_483\n        /* \"@openzeppelin/contracts/utils/Address.sol\":4297:4352  verifyCallResultFromTarget(target, success, returndata) */\n      jump\t// in\n    tag_482:\n        /* \"@openzeppelin/contracts/utils/Address.sol\":4290:4352  return verifyCallResultFromTarget(target, success, returndata) */\n      swap6\n        /* \"@openzeppelin/contracts/utils/Address.sol\":4106:4359  function functionDelegateCall(address target, bytes memory data) internal returns (bytes memory) {... */\n      swap5\n      pop\n      pop\n      pop\n      pop\n      pop\n      jump\t// out\n        /* \"@openzeppelin/contracts/proxy/ERC1967/ERC1967Utils.sol\":6598:6720  function _checkNonPayable() private {... */\n    tag_463:\n        /* \"@openzeppelin/contracts/proxy/ERC1967/ERC1967Utils.sol\":6648:6657  msg.value */\n      callvalue\n        /* \"@openzeppelin/contracts/proxy/ERC1967/ERC1967Utils.sol\":6648:6661  msg.value > 0 */\n      iszero\n        /* \"@openzeppelin/contracts/proxy/ERC1967/ERC1967Utils.sol\":6644:6714  if (msg.value > 0) {... */\n      tag_399\n      jumpi\n        /* \"@openzeppelin/contracts/proxy/ERC1967/ERC1967Utils.sol\":6684:6703  ERC1967NonPayable() */\n      mload(0x40)\n      shl(0xe0, 0xb398979f)\n      dup2\n      mstore\n      0x04\n      add\n      mload(0x40)\n      dup1\n      swap2\n      sub\n      swap1\n      revert\n        /* \"@openzeppelin/contracts/utils/Address.sol\":4625:5207  function verifyCallResultFromTarget(... */\n    tag_483:\n        /* \"@openzeppelin/contracts/utils/Address.sol\":4769:4781  bytes memory */\n      0x60\n        /* \"@openzeppelin/contracts/utils/Address.sol\":4798:4805  success */\n      dup3\n        /* \"@openzeppelin/contracts/utils/Address.sol\":4793:5201  if (!success) {... */\n      tag_489\n      jumpi\n        /* \"@openzeppelin/contracts/utils/Address.sol\":4821:4840  _revert(returndata) */\n      tag_490\n        /* \"@openzeppelin/contracts/utils/Address.sol\":4829:4839  returndata */\n      dup3\n        /* \"@openzeppelin/contracts/utils/Address.sol\":4821:4828  _revert */\n      tag_491\n        /* \"@openzeppelin/contracts/utils/Address.sol\":4821:4840  _revert(returndata) */\n      jump\t// in\n    tag_490:\n        /* \"@openzeppelin/contracts/utils/Address.sol\":4793:5201  if (!success) {... */\n      jump(tag_492)\n    tag_489:\n        /* \"@openzeppelin/contracts/utils/Address.sol\":5045:5062  returndata.length */\n      dup2\n      mload\n        /* \"@openzeppelin/contracts/utils/Address.sol\":5045:5067  returndata.length == 0 */\n      iszero\n        /* \"@openzeppelin/contracts/utils/Address.sol\":5045:5094  returndata.length == 0 && target.code.length == 0 */\n      dup1\n      iszero\n      tag_493\n      jumpi\n      pop\n      sub(shl(0xa0, 0x01), 0x01)\n        /* \"@openzeppelin/contracts/utils/Address.sol\":5071:5089  target.code.length */\n      dup5\n      and\n      extcodesize\n        /* \"@openzeppelin/contracts/utils/Address.sol\":5071:5094  target.code.length == 0 */\n      iszero\n        /* \"@openzeppelin/contracts/utils/Address.sol\":5045:5094  returndata.length == 0 && target.code.length == 0 */\n    tag_493:\n        /* \"@openzeppelin/contracts/utils/Address.sol\":5041:5160  if (returndata.length == 0 && target.code.length == 0) {... */\n      iszero\n      tag_494\n      jumpi\n        /* \"@openzeppelin/contracts/utils/Address.sol\":5121:5145  AddressEmptyCode(target) */\n      mload(0x40)\n      shl(0xe0, 0x9996b315)\n      dup2\n      mstore\n      sub(shl(0xa0, 0x01), 0x01)\n        /* \"#utility.yul\":14270:14302   */\n      dup6\n      and\n        /* \"@openzeppelin/contracts/utils/Address.sol\":5121:5145  AddressEmptyCode(target) */\n      0x04\n      dup3\n      add\n        /* \"#utility.yul\":14252:14303   */\n      mstore\n        /* \"#utility.yul\":14225:14243   */\n      0x24\n      add\n        /* \"@openzeppelin/contracts/utils/Address.sol\":5121:5145  AddressEmptyCode(target) */\n      tag_176\n        /* \"#utility.yul\":14106:14309   */\n      jump\n        /* \"@openzeppelin/contracts/utils/Address.sol\":5041:5160  if (returndata.length == 0 && target.code.length == 0) {... */\n    tag_494:\n      pop\n        /* \"@openzeppelin/contracts/utils/Address.sol\":5180:5190  returndata */\n      dup1\n        /* \"@openzeppelin/contracts/utils/Address.sol\":4793:5201  if (!success) {... */\n    tag_492:\n        /* \"@openzeppelin/contracts/utils/Address.sol\":4625:5207  function verifyCallResultFromTarget(... */\n      swap4\n      swap3\n      pop\n      pop\n      pop\n      jump\t// out\n        /* \"@openzeppelin/contracts/utils/Address.sol\":5743:6259  function _revert(bytes memory returndata) private pure {... */\n    tag_491:\n        /* \"@openzeppelin/contracts/utils/Address.sol\":5874:5891  returndata.length */\n      dup1\n      mload\n        /* \"@openzeppelin/contracts/utils/Address.sol\":5874:5895  returndata.length > 0 */\n      iszero\n        /* \"@openzeppelin/contracts/utils/Address.sol\":5870:6253  if (returndata.length > 0) {... */\n      tag_497\n      jumpi\n        /* \"@openzeppelin/contracts/utils/Address.sol\":6102:6112  returndata */\n      dup1\n        /* \"@openzeppelin/contracts/utils/Address.sol\":6096:6113  mload(returndata) */\n      mload\n        /* \"@openzeppelin/contracts/utils/Address.sol\":6158:6173  returndata_size */\n      dup1\n        /* \"@openzeppelin/contracts/utils/Address.sol\":6145:6155  returndata */\n      dup3\n        /* \"@openzeppelin/contracts/utils/Address.sol\":6141:6143  32 */\n      0x20\n        /* \"@openzeppelin/contracts/utils/Address.sol\":6137:6156  add(32, returndata) */\n      add\n        /* \"@openzeppelin/contracts/utils/Address.sol\":6130:6174  revert(add(32, returndata), returndata_size) */\n      revert\n        /* \"@openzeppelin/contracts/utils/Address.sol\":5870:6253  if (returndata.length > 0) {... */\n    tag_497:\n        /* \"@openzeppelin/contracts/utils/Address.sol\":6225:6242  FailedInnerCall() */\n      mload(0x40)\n      shl(0xe1, 0x0a12f521)\n      dup2\n      mstore\n      0x04\n      add\n      mload(0x40)\n      dup1\n      swap2\n      sub\n      swap1\n      revert\n        /* \"#utility.yul\":14:300   */\n    tag_43:\n        /* \"#utility.yul\":72:78   */\n      0x00\n        /* \"#utility.yul\":125:127   */\n      0x20\n        /* \"#utility.yul\":113:122   */\n      dup3\n        /* \"#utility.yul\":104:111   */\n      dup5\n        /* \"#utility.yul\":100:123   */\n      sub\n        /* \"#utility.yul\":96:128   */\n      slt\n        /* \"#utility.yul\":93:145   */\n      iszero\n      tag_509\n      jumpi\n        /* \"#utility.yul\":141:142   */\n      0x00\n        /* \"#utility.yul\":138:139   */\n      dup1\n        /* \"#utility.yul\":131:143   */\n      revert\n        /* \"#utility.yul\":93:145   */\n    tag_509:\n        /* \"#utility.yul\":167:190   */\n      dup2\n      calldataload\n      not(sub(shl(0xe0, 0x01), 0x01))\n        /* \"#utility.yul\":219:251   */\n      dup2\n      and\n        /* \"#utility.yul\":209:252   */\n      dup2\n      eq\n        /* \"#utility.yul\":199:270   */\n      tag_492\n      jumpi\n        /* \"#utility.yul\":266:267   */\n      0x00\n        /* \"#utility.yul\":263:264   */\n      dup1\n        /* \"#utility.yul\":256:268   */\n      revert\n        /* \"#utility.yul\":497:670   */\n    tag_499:\n        /* \"#utility.yul\":565:585   */\n      dup1\n      calldataload\n      sub(shl(0xa0, 0x01), 0x01)\n        /* \"#utility.yul\":614:645   */\n      dup2\n      and\n        /* \"#utility.yul\":604:646   */\n      dup2\n      eq\n        /* \"#utility.yul\":594:664   */\n      tag_513\n      jumpi\n        /* \"#utility.yul\":660:661   */\n      0x00\n        /* \"#utility.yul\":657:658   */\n      dup1\n        /* \"#utility.yul\":650:662   */\n      revert\n        /* \"#utility.yul\":594:664   */\n    tag_513:\n        /* \"#utility.yul\":497:670   */\n      swap2\n      swap1\n      pop\n      jump\t// out\n        /* \"#utility.yul\":675:861   */\n    tag_50:\n        /* \"#utility.yul\":734:740   */\n      0x00\n        /* \"#utility.yul\":787:789   */\n      0x20\n        /* \"#utility.yul\":775:784   */\n      dup3\n        /* \"#utility.yul\":766:773   */\n      dup5\n        /* \"#utility.yul\":762:785   */\n      sub\n        /* \"#utility.yul\":758:790   */\n      slt\n        /* \"#utility.yul\":755:807   */\n      iszero\n      tag_515\n      jumpi\n        /* \"#utility.yul\":803:804   */\n      0x00\n        /* \"#utility.yul\":800:801   */\n      dup1\n        /* \"#utility.yul\":793:805   */\n      revert\n        /* \"#utility.yul\":755:807   */\n    tag_515:\n        /* \"#utility.yul\":826:855   */\n      tag_492\n        /* \"#utility.yul\":845:854   */\n      dup3\n        /* \"#utility.yul\":826:855   */\n      tag_499\n      jump\t// in\n        /* \"#utility.yul\":1119:1299   */\n    tag_57:\n        /* \"#utility.yul\":1178:1184   */\n      0x00\n        /* \"#utility.yul\":1231:1233   */\n      0x20\n        /* \"#utility.yul\":1219:1228   */\n      dup3\n        /* \"#utility.yul\":1210:1217   */\n      dup5\n        /* \"#utility.yul\":1206:1229   */\n      sub\n        /* \"#utility.yul\":1202:1234   */\n      slt\n        /* \"#utility.yul\":1199:1251   */\n      iszero\n      tag_519\n      jumpi\n        /* \"#utility.yul\":1247:1248   */\n      0x00\n        /* \"#utility.yul\":1244:1245   */\n      dup1\n        /* \"#utility.yul\":1237:1249   */\n      revert\n        /* \"#utility.yul\":1199:1251   */\n    tag_519:\n      pop\n        /* \"#utility.yul\":1270:1293   */\n      calldataload\n      swap2\n        /* \"#utility.yul\":1119:1299   */\n      swap1\n      pop\n      jump\t// out\n        /* \"#utility.yul\":1671:1925   */\n    tag_69:\n        /* \"#utility.yul\":1739:1745   */\n      0x00\n        /* \"#utility.yul\":1747:1753   */\n      dup1\n        /* \"#utility.yul\":1800:1802   */\n      0x40\n        /* \"#utility.yul\":1788:1797   */\n      dup4\n        /* \"#utility.yul\":1779:1786   */\n      dup6\n        /* \"#utility.yul\":1775:1798   */\n      sub\n        /* \"#utility.yul\":1771:1803   */\n      slt\n        /* \"#utility.yul\":1768:1820   */\n      iszero\n      tag_524\n      jumpi\n        /* \"#utility.yul\":1816:1817   */\n      0x00\n        /* \"#utility.yul\":1813:1814   */\n      dup1\n        /* \"#utility.yul\":1806:1818   */\n      revert\n        /* \"#utility.yul\":1768:1820   */\n    tag_524:\n        /* \"#utility.yul\":1852:1861   */\n      dup3\n        /* \"#utility.yul\":1839:1862   */\n      calldataload\n        /* \"#utility.yul\":1829:1862   */\n      swap2\n      pop\n        /* \"#utility.yul\":1881:1919   */\n      tag_525\n        /* \"#utility.yul\":1915:1917   */\n      0x20\n        /* \"#utility.yul\":1904:1913   */\n      dup5\n        /* \"#utility.yul\":1900:1918   */\n      add\n        /* \"#utility.yul\":1881:1919   */\n      tag_499\n      jump\t// in\n    tag_525:\n        /* \"#utility.yul\":1871:1919   */\n      swap1\n      pop\n        /* \"#utility.yul\":1671:1925   */\n      swap3\n      pop\n      swap3\n      swap1\n      pop\n      jump\t// out\n        /* \"#utility.yul\":1930:2057   */\n    tag_500:\n        /* \"#utility.yul\":1991:2001   */\n      0x4e487b71\n        /* \"#utility.yul\":1986:1989   */\n      0xe0\n        /* \"#utility.yul\":1982:2002   */\n      shl\n        /* \"#utility.yul\":1979:1980   */\n      0x00\n        /* \"#utility.yul\":1972:2003   */\n      mstore\n        /* \"#utility.yul\":2022:2026   */\n      0x41\n        /* \"#utility.yul\":2019:2020   */\n      0x04\n        /* \"#utility.yul\":2012:2027   */\n      mstore\n        /* \"#utility.yul\":2046:2050   */\n      0x24\n        /* \"#utility.yul\":2043:2044   */\n      0x00\n        /* \"#utility.yul\":2036:2051   */\n      revert\n        /* \"#utility.yul\":2062:2780   */\n    tag_501:\n        /* \"#utility.yul\":2104:2109   */\n      0x00\n        /* \"#utility.yul\":2157:2160   */\n      dup3\n        /* \"#utility.yul\":2150:2154   */\n      0x1f\n        /* \"#utility.yul\":2142:2148   */\n      dup4\n        /* \"#utility.yul\":2138:2155   */\n      add\n        /* \"#utility.yul\":2134:2161   */\n      slt\n        /* \"#utility.yul\":2124:2179   */\n      tag_528\n      jumpi\n        /* \"#utility.yul\":2175:2176   */\n      0x00\n        /* \"#utility.yul\":2172:2173   */\n      dup1\n        /* \"#utility.yul\":2165:2177   */\n      revert\n        /* \"#utility.yul\":2124:2179   */\n    tag_528:\n        /* \"#utility.yul\":2211:2217   */\n      dup2\n        /* \"#utility.yul\":2198:2218   */\n      calldataload\n        /* \"#utility.yul\":2237:2255   */\n      0xffffffffffffffff\n        /* \"#utility.yul\":2274:2276   */\n      dup1\n        /* \"#utility.yul\":2270:2272   */\n      dup3\n        /* \"#utility.yul\":2267:2277   */\n      gt\n        /* \"#utility.yul\":2264:2300   */\n      iszero\n      tag_530\n      jumpi\n        /* \"#utility.yul\":2280:2298   */\n      tag_530\n      tag_500\n      jump\t// in\n    tag_530:\n        /* \"#utility.yul\":2355:2357   */\n      0x40\n        /* \"#utility.yul\":2349:2358   */\n      mload\n        /* \"#utility.yul\":2323:2325   */\n      0x1f\n        /* \"#utility.yul\":2409:2422   */\n      dup4\n      add\n      not(0x1f)\n        /* \"#utility.yul\":2405:2427   */\n      swap1\n      dup2\n      and\n        /* \"#utility.yul\":2429:2431   */\n      0x3f\n        /* \"#utility.yul\":2401:2432   */\n      add\n        /* \"#utility.yul\":2397:2437   */\n      and\n        /* \"#utility.yul\":2385:2438   */\n      dup2\n      add\n      swap1\n        /* \"#utility.yul\":2453:2471   */\n      dup3\n      dup3\n      gt\n        /* \"#utility.yul\":2473:2495   */\n      dup2\n      dup4\n      lt\n        /* \"#utility.yul\":2450:2496   */\n      or\n        /* \"#utility.yul\":2447:2519   */\n      iszero\n      tag_532\n      jumpi\n        /* \"#utility.yul\":2499:2517   */\n      tag_532\n      tag_500\n      jump\t// in\n    tag_532:\n        /* \"#utility.yul\":2539:2549   */\n      dup2\n        /* \"#utility.yul\":2535:2537   */\n      0x40\n        /* \"#utility.yul\":2528:2550   */\n      mstore\n        /* \"#utility.yul\":2574:2576   */\n      dup4\n        /* \"#utility.yul\":2566:2572   */\n      dup2\n        /* \"#utility.yul\":2559:2577   */\n      mstore\n        /* \"#utility.yul\":2620:2623   */\n      dup7\n        /* \"#utility.yul\":2613:2617   */\n      0x20\n        /* \"#utility.yul\":2608:2610   */\n      dup6\n        /* \"#utility.yul\":2600:2606   */\n      dup9\n        /* \"#utility.yul\":2596:2611   */\n      add\n        /* \"#utility.yul\":2592:2618   */\n      add\n        /* \"#utility.yul\":2589:2624   */\n      gt\n        /* \"#utility.yul\":2586:2641   */\n      iszero\n      tag_533\n      jumpi\n        /* \"#utility.yul\":2637:2638   */\n      0x00\n        /* \"#utility.yul\":2634:2635   */\n      dup1\n        /* \"#utility.yul\":2627:2639   */\n      revert\n        /* \"#utility.yul\":2586:2641   */\n    tag_533:\n        /* \"#utility.yul\":2701:2703   */\n      dup4\n        /* \"#utility.yul\":2694:2698   */\n      0x20\n        /* \"#utility.yul\":2686:2692   */\n      dup8\n        /* \"#utility.yul\":2682:2699   */\n      add\n        /* \"#utility.yul\":2675:2679   */\n      0x20\n        /* \"#utility.yul\":2667:2673   */\n      dup4\n        /* \"#utility.yul\":2663:2680   */\n      add\n        /* \"#utility.yul\":2650:2704   */\n      calldatacopy\n        /* \"#utility.yul\":2748:2749   */\n      0x00\n        /* \"#utility.yul\":2741:2745   */\n      0x20\n        /* \"#utility.yul\":2736:2738   */\n      dup6\n        /* \"#utility.yul\":2728:2734   */\n      dup4\n        /* \"#utility.yul\":2724:2739   */\n      add\n        /* \"#utility.yul\":2720:2746   */\n      add\n        /* \"#utility.yul\":2713:2750   */\n      mstore\n        /* \"#utility.yul\":2768:2774   */\n      dup1\n        /* \"#utility.yul\":2759:2774   */\n      swap5\n      pop\n      pop\n      pop\n      pop\n      pop\n        /* \"#utility.yul\":2062:2780   */\n      swap3\n      swap2\n      pop\n      pop\n      jump\t// out\n        /* \"#utility.yul\":2785:3179   */\n    tag_80:\n        /* \"#utility.yul\":2862:2868   */\n      0x00\n        /* \"#utility.yul\":2870:2876   */\n      dup1\n        /* \"#utility.yul\":2923:2925   */\n      0x40\n        /* \"#utility.yul\":2911:2920   */\n      dup4\n        /* \"#utility.yul\":2902:2909   */\n      dup6\n        /* \"#utility.yul\":2898:2921   */\n      sub\n        /* \"#utility.yul\":2894:2926   */\n      slt\n        /* \"#utility.yul\":2891:2943   */\n      iszero\n      tag_535\n      jumpi\n        /* \"#utility.yul\":2939:2940   */\n      0x00\n        /* \"#utility.yul\":2936:2937   */\n      dup1\n        /* \"#utility.yul\":2929:2941   */\n      revert\n        /* \"#utility.yul\":2891:2943   */\n    tag_535:\n        /* \"#utility.yul\":2962:2991   */\n      tag_536\n        /* \"#utility.yul\":2981:2990   */\n      dup4\n        /* \"#utility.yul\":2962:2991   */\n      tag_499\n      jump\t// in\n    tag_536:\n        /* \"#utility.yul\":2952:2991   */\n      swap2\n      pop\n        /* \"#utility.yul\":3042:3044   */\n      0x20\n        /* \"#utility.yul\":3031:3040   */\n      dup4\n        /* \"#utility.yul\":3027:3045   */\n      add\n        /* \"#utility.yul\":3014:3046   */\n      calldataload\n        /* \"#utility.yul\":3069:3087   */\n      0xffffffffffffffff\n        /* \"#utility.yul\":3061:3067   */\n      dup2\n        /* \"#utility.yul\":3058:3088   */\n      gt\n        /* \"#utility.yul\":3055:3105   */\n      iszero\n      tag_537\n      jumpi\n        /* \"#utility.yul\":3101:3102   */\n      0x00\n        /* \"#utility.yul\":3098:3099   */\n      dup1\n        /* \"#utility.yul\":3091:3103   */\n      revert\n        /* \"#utility.yul\":3055:3105   */\n    tag_537:\n        /* \"#utility.yul\":3124:3173   */\n      tag_538\n        /* \"#utility.yul\":3165:3172   */\n      dup6\n        /* \"#utility.yul\":3156:3162   */\n      dup3\n        /* \"#utility.yul\":3145:3154   */\n      dup7\n        /* \"#utility.yul\":3141:3163   */\n      add\n        /* \"#utility.yul\":3124:3173   */\n      tag_501\n      jump\t// in\n    tag_538:\n        /* \"#utility.yul\":3114:3173   */\n      swap2\n      pop\n      pop\n        /* \"#utility.yul\":2785:3179   */\n      swap3\n      pop\n      swap3\n      swap1\n      pop\n      jump\t// out\n        /* \"#utility.yul\":3184:3506   */\n    tag_101:\n        /* \"#utility.yul\":3261:3267   */\n      0x00\n        /* \"#utility.yul\":3269:3275   */\n      dup1\n        /* \"#utility.yul\":3277:3283   */\n      0x00\n        /* \"#utility.yul\":3330:3332   */\n      0x60\n        /* \"#utility.yul\":3318:3327   */\n      dup5\n        /* \"#utility.yul\":3309:3316   */\n      dup7\n        /* \"#utility.yul\":3305:3328   */\n      sub\n        /* \"#utility.yul\":3301:3333   */\n      slt\n        /* \"#utility.yul\":3298:3350   */\n      iszero\n      tag_540\n      jumpi\n        /* \"#utility.yul\":3346:3347   */\n      0x00\n        /* \"#utility.yul\":3343:3344   */\n      dup1\n        /* \"#utility.yul\":3336:3348   */\n      revert\n        /* \"#utility.yul\":3298:3350   */\n    tag_540:\n        /* \"#utility.yul\":3369:3398   */\n      tag_541\n        /* \"#utility.yul\":3388:3397   */\n      dup5\n        /* \"#utility.yul\":3369:3398   */\n      tag_499\n      jump\t// in\n    tag_541:\n        /* \"#utility.yul\":3359:3398   */\n      swap6\n        /* \"#utility.yul\":3445:3447   */\n      0x20\n        /* \"#utility.yul\":3430:3448   */\n      dup6\n      add\n        /* \"#utility.yul\":3417:3449   */\n      calldataload\n      swap6\n      pop\n        /* \"#utility.yul\":3496:3498   */\n      0x40\n        /* \"#utility.yul\":3481:3499   */\n      swap1\n      swap5\n      add\n        /* \"#utility.yul\":3468:3500   */\n      calldataload\n      swap4\n        /* \"#utility.yul\":3184:3506   */\n      swap3\n      pop\n      pop\n      pop\n      jump\t// out\n        /* \"#utility.yul\":3952:4240   */\n    tag_502:\n        /* \"#utility.yul\":3993:3996   */\n      0x00\n        /* \"#utility.yul\":4031:4036   */\n      dup2\n        /* \"#utility.yul\":4025:4037   */\n      mload\n        /* \"#utility.yul\":4058:4064   */\n      dup1\n        /* \"#utility.yul\":4053:4056   */\n      dup5\n        /* \"#utility.yul\":4046:4065   */\n      mstore\n        /* \"#utility.yul\":4114:4120   */\n      dup1\n        /* \"#utility.yul\":4107:4111   */\n      0x20\n        /* \"#utility.yul\":4100:4105   */\n      dup5\n        /* \"#utility.yul\":4096:4112   */\n      add\n        /* \"#utility.yul\":4089:4093   */\n      0x20\n        /* \"#utility.yul\":4084:4087   */\n      dup7\n        /* \"#utility.yul\":4080:4094   */\n      add\n        /* \"#utility.yul\":4074:4121   */\n      mcopy\n        /* \"#utility.yul\":4166:4167   */\n      0x00\n        /* \"#utility.yul\":4159:4163   */\n      0x20\n        /* \"#utility.yul\":4150:4156   */\n      dup3\n        /* \"#utility.yul\":4145:4148   */\n      dup7\n        /* \"#utility.yul\":4141:4157   */\n      add\n        /* \"#utility.yul\":4137:4164   */\n      add\n        /* \"#utility.yul\":4130:4168   */\n      mstore\n        /* \"#utility.yul\":4229:4233   */\n      0x20\n        /* \"#utility.yul\":4222:4224   */\n      0x1f\n        /* \"#utility.yul\":4218:4225   */\n      not\n        /* \"#utility.yul\":4213:4215   */\n      0x1f\n        /* \"#utility.yul\":4205:4211   */\n      dup4\n        /* \"#utility.yul\":4201:4216   */\n      add\n        /* \"#utility.yul\":4197:4226   */\n      and\n        /* \"#utility.yul\":4192:4195   */\n      dup6\n        /* \"#utility.yul\":4188:4227   */\n      add\n        /* \"#utility.yul\":4184:4234   */\n      add\n        /* \"#utility.yul\":4177:4234   */\n      swap2\n      pop\n      pop\n        /* \"#utility.yul\":3952:4240   */\n      swap3\n      swap2\n      pop\n      pop\n      jump\t// out\n        /* \"#utility.yul\":4245:4785   */\n    tag_127:\n        /* \"#utility.yul\":4527:4528   */\n      0x01\n        /* \"#utility.yul\":4523:4524   */\n      dup1\n        /* \"#utility.yul\":4518:4521   */\n      0xa0\n        /* \"#utility.yul\":4514:4525   */\n      shl\n        /* \"#utility.yul\":4510:4529   */\n      sub\n        /* \"#utility.yul\":4502:4508   */\n      dup7\n        /* \"#utility.yul\":4498:4530   */\n      and\n        /* \"#utility.yul\":4487:4496   */\n      dup2\n        /* \"#utility.yul\":4480:4531   */\n      mstore\n        /* \"#utility.yul\":4567:4573   */\n      dup5\n        /* \"#utility.yul\":4562:4564   */\n      0x20\n        /* \"#utility.yul\":4551:4560   */\n      dup3\n        /* \"#utility.yul\":4547:4565   */\n      add\n        /* \"#utility.yul\":4540:4574   */\n      mstore\n        /* \"#utility.yul\":4610:4613   */\n      0xa0\n        /* \"#utility.yul\":4605:4607   */\n      0x40\n        /* \"#utility.yul\":4594:4603   */\n      dup3\n        /* \"#utility.yul\":4590:4608   */\n      add\n        /* \"#utility.yul\":4583:4614   */\n      mstore\n        /* \"#utility.yul\":4461:4465   */\n      0x00\n        /* \"#utility.yul\":4631:4676   */\n      tag_548\n        /* \"#utility.yul\":4671:4674   */\n      0xa0\n        /* \"#utility.yul\":4660:4669   */\n      dup4\n        /* \"#utility.yul\":4656:4675   */\n      add\n        /* \"#utility.yul\":4648:4654   */\n      dup7\n        /* \"#utility.yul\":4631:4676   */\n      tag_502\n      jump\t// in\n    tag_548:\n        /* \"#utility.yul\":4719:4733   */\n      swap4\n      iszero\n        /* \"#utility.yul\":4712:4734   */\n      iszero\n        /* \"#utility.yul\":4707:4709   */\n      0x60\n        /* \"#utility.yul\":4692:4710   */\n      dup4\n      add\n        /* \"#utility.yul\":4685:4735   */\n      mstore\n      pop\n        /* \"#utility.yul\":4766:4769   */\n      0x80\n        /* \"#utility.yul\":4751:4770   */\n      add\n        /* \"#utility.yul\":4744:4779   */\n      mstore\n        /* \"#utility.yul\":4623:4676   */\n      swap4\n        /* \"#utility.yul\":4245:4785   */\n      swap3\n      pop\n      pop\n      pop\n      jump\t// out\n        /* \"#utility.yul\":4790:5009   */\n    tag_139:\n        /* \"#utility.yul\":4939:4941   */\n      0x20\n        /* \"#utility.yul\":4928:4937   */\n      dup2\n        /* \"#utility.yul\":4921:4942   */\n      mstore\n        /* \"#utility.yul\":4902:4906   */\n      0x00\n        /* \"#utility.yul\":4959:5003   */\n      tag_492\n        /* \"#utility.yul\":4999:5001   */\n      0x20\n        /* \"#utility.yul\":4988:4997   */\n      dup4\n        /* \"#utility.yul\":4984:5002   */\n      add\n        /* \"#utility.yul\":4976:4982   */\n      dup5\n        /* \"#utility.yul\":4959:5003   */\n      tag_502\n      jump\t// in\n        /* \"#utility.yul\":5014:5476   */\n    tag_151:\n        /* \"#utility.yul\":5100:5106   */\n      0x00\n        /* \"#utility.yul\":5108:5114   */\n      dup1\n        /* \"#utility.yul\":5116:5122   */\n      0x00\n        /* \"#utility.yul\":5169:5171   */\n      0x60\n        /* \"#utility.yul\":5157:5166   */\n      dup5\n        /* \"#utility.yul\":5148:5155   */\n      dup7\n        /* \"#utility.yul\":5144:5167   */\n      sub\n        /* \"#utility.yul\":5140:5172   */\n      slt\n        /* \"#utility.yul\":5137:5189   */\n      iszero\n      tag_552\n      jumpi\n        /* \"#utility.yul\":5185:5186   */\n      0x00\n        /* \"#utility.yul\":5182:5183   */\n      dup1\n        /* \"#utility.yul\":5175:5187   */\n      revert\n        /* \"#utility.yul\":5137:5189   */\n    tag_552:\n        /* \"#utility.yul\":5208:5237   */\n      tag_553\n        /* \"#utility.yul\":5227:5236   */\n      dup5\n        /* \"#utility.yul\":5208:5237   */\n      tag_499\n      jump\t// in\n    tag_553:\n        /* \"#utility.yul\":5198:5237   */\n      swap3\n      pop\n        /* \"#utility.yul\":5284:5286   */\n      0x20\n        /* \"#utility.yul\":5273:5282   */\n      dup5\n        /* \"#utility.yul\":5269:5287   */\n      add\n        /* \"#utility.yul\":5256:5288   */\n      calldataload\n        /* \"#utility.yul\":5246:5288   */\n      swap2\n      pop\n        /* \"#utility.yul\":5339:5341   */\n      0x40\n        /* \"#utility.yul\":5328:5337   */\n      dup5\n        /* \"#utility.yul\":5324:5342   */\n      add\n        /* \"#utility.yul\":5311:5343   */\n      calldataload\n        /* \"#utility.yul\":5366:5384   */\n      0xffffffffffffffff\n        /* \"#utility.yul\":5358:5364   */\n      dup2\n        /* \"#utility.yul\":5355:5385   */\n      gt\n        /* \"#utility.yul\":5352:5402   */\n      iszero\n      tag_554\n      jumpi\n        /* \"#utility.yul\":5398:5399   */\n      0x00\n        /* \"#utility.yul\":5395:5396   */\n      dup1\n        /* \"#utility.yul\":5388:5400   */\n      revert\n        /* \"#utility.yul\":5352:5402   */\n    tag_554:\n        /* \"#utility.yul\":5421:5470   */\n      tag_555\n        /* \"#utility.yul\":5462:5469   */\n      dup7\n        /* \"#utility.yul\":5453:5459   */\n      dup3\n        /* \"#utility.yul\":5442:5451   */\n      dup8\n        /* \"#utility.yul\":5438:5460   */\n      add\n        /* \"#utility.yul\":5421:5470   */\n      tag_501\n      jump\t// in\n    tag_555:\n        /* \"#utility.yul\":5411:5470   */\n      swap2\n      pop\n      pop\n        /* \"#utility.yul\":5014:5476   */\n      swap3\n      pop\n      swap3\n      pop\n      swap3\n      jump\t// out\n        /* \"#utility.yul\":5481:5817   */\n    tag_177:\n        /* \"#utility.yul\":5683:5685   */\n      0x20\n        /* \"#utility.yul\":5665:5686   */\n      dup1\n      dup3\n      mstore\n        /* \"#utility.yul\":5722:5724   */\n      0x0c\n        /* \"#utility.yul\":5702:5720   */\n      swap1\n      dup3\n      add\n        /* \"#utility.yul\":5695:5725   */\n      mstore\n      shl(0xa1, 0x2737ba1030b71030b236b4b7)\n        /* \"#utility.yul\":5756:5758   */\n      0x40\n        /* \"#utility.yul\":5741:5759   */\n      dup3\n      add\n        /* \"#utility.yul\":5734:5776   */\n      mstore\n        /* \"#utility.yul\":5808:5810   */\n      0x60\n        /* \"#utility.yul\":5793:5811   */\n      add\n      swap1\n        /* \"#utility.yul\":5481:5817   */\n      jump\t// out\n        /* \"#utility.yul\":5822:6172   */\n    tag_181:\n        /* \"#utility.yul\":6024:6026   */\n      0x20\n        /* \"#utility.yul\":6006:6027   */\n      dup1\n      dup3\n      mstore\n        /* \"#utility.yul\":6063:6065   */\n      0x1a\n        /* \"#utility.yul\":6043:6061   */\n      swap1\n      dup3\n      add\n        /* \"#utility.yul\":6036:6066   */\n      mstore\n        /* \"#utility.yul\":6102:6130   */\n      0x5472616e73616374696f6e20646f6573206e6f74206578697374000000000000\n        /* \"#utility.yul\":6097:6099   */\n      0x40\n        /* \"#utility.yul\":6082:6100   */\n      dup3\n      add\n        /* \"#utility.yul\":6075:6131   */\n      mstore\n        /* \"#utility.yul\":6163:6165   */\n      0x60\n        /* \"#utility.yul\":6148:6166   */\n      add\n      swap1\n        /* \"#utility.yul\":5822:6172   */\n      jump\t// out\n        /* \"#utility.yul\":6177:6304   */\n    tag_185:\n        /* \"#utility.yul\":6238:6248   */\n      0x4e487b71\n        /* \"#utility.yul\":6233:6236   */\n      0xe0\n        /* \"#utility.yul\":6229:6249   */\n      shl\n        /* \"#utility.yul\":6226:6227   */\n      0x00\n        /* \"#utility.yul\":6219:6250   */\n      mstore\n        /* \"#utility.yul\":6269:6273   */\n      0x32\n        /* \"#utility.yul\":6266:6267   */\n      0x04\n        /* \"#utility.yul\":6259:6274   */\n      mstore\n        /* \"#utility.yul\":6293:6297   */\n      0x24\n        /* \"#utility.yul\":6290:6291   */\n      0x00\n        /* \"#utility.yul\":6283:6298   */\n      revert\n        /* \"#utility.yul\":6309:6661   */\n    tag_189:\n        /* \"#utility.yul\":6511:6513   */\n      0x20\n        /* \"#utility.yul\":6493:6514   */\n      dup1\n      dup3\n      mstore\n        /* \"#utility.yul\":6550:6552   */\n      0x1c\n        /* \"#utility.yul\":6530:6548   */\n      swap1\n      dup3\n      add\n        /* \"#utility.yul\":6523:6553   */\n      mstore\n        /* \"#utility.yul\":6589:6619   */\n      0x5472616e73616374696f6e20616c726561647920657865637574656400000000\n        /* \"#utility.yul\":6584:6586   */\n      0x40\n        /* \"#utility.yul\":6569:6587   */\n      dup3\n      add\n        /* \"#utility.yul\":6562:6620   */\n      mstore\n        /* \"#utility.yul\":6652:6654   */\n      0x60\n        /* \"#utility.yul\":6637:6655   */\n      add\n      swap1\n        /* \"#utility.yul\":6309:6661   */\n      jump\t// out\n        /* \"#utility.yul\":7020:7147   */\n    tag_503:\n        /* \"#utility.yul\":7081:7091   */\n      0x4e487b71\n        /* \"#utility.yul\":7076:7079   */\n      0xe0\n        /* \"#utility.yul\":7072:7092   */\n      shl\n        /* \"#utility.yul\":7069:7070   */\n      0x00\n        /* \"#utility.yul\":7062:7093   */\n      mstore\n        /* \"#utility.yul\":7112:7116   */\n      0x11\n        /* \"#utility.yul\":7109:7110   */\n      0x04\n        /* \"#utility.yul\":7102:7117   */\n      mstore\n        /* \"#utility.yul\":7136:7140   */\n      0x24\n        /* \"#utility.yul\":7133:7134   */\n      0x00\n        /* \"#utility.yul\":7126:7141   */\n      revert\n        /* \"#utility.yul\":7152:7280   */\n    tag_198:\n        /* \"#utility.yul\":7219:7228   */\n      dup2\n      dup2\n      sub\n        /* \"#utility.yul\":7240:7251   */\n      dup2\n      dup2\n      gt\n        /* \"#utility.yul\":7237:7274   */\n      iszero\n      tag_171\n      jumpi\n        /* \"#utility.yul\":7254:7272   */\n      tag_171\n      tag_503\n      jump\t// in\n        /* \"#utility.yul\":7665:7942   */\n    tag_242:\n        /* \"#utility.yul\":7732:7738   */\n      0x00\n        /* \"#utility.yul\":7785:7787   */\n      0x20\n        /* \"#utility.yul\":7773:7782   */\n      dup3\n        /* \"#utility.yul\":7764:7771   */\n      dup5\n        /* \"#utility.yul\":7760:7783   */\n      sub\n        /* \"#utility.yul\":7756:7788   */\n      slt\n        /* \"#utility.yul\":7753:7805   */\n      iszero\n      tag_567\n      jumpi\n        /* \"#utility.yul\":7801:7802   */\n      0x00\n        /* \"#utility.yul\":7798:7799   */\n      dup1\n        /* \"#utility.yul\":7791:7803   */\n      revert\n        /* \"#utility.yul\":7753:7805   */\n    tag_567:\n        /* \"#utility.yul\":7833:7842   */\n      dup2\n        /* \"#utility.yul\":7827:7843   */\n      mload\n        /* \"#utility.yul\":7886:7891   */\n      dup1\n        /* \"#utility.yul\":7879:7892   */\n      iszero\n        /* \"#utility.yul\":7872:7893   */\n      iszero\n        /* \"#utility.yul\":7865:7870   */\n      dup2\n        /* \"#utility.yul\":7862:7894   */\n      eq\n        /* \"#utility.yul\":7852:7912   */\n      tag_492\n      jumpi\n        /* \"#utility.yul\":7908:7909   */\n      0x00\n        /* \"#utility.yul\":7905:7906   */\n      dup1\n        /* \"#utility.yul\":7898:7910   */\n      revert\n        /* \"#utility.yul\":8511:8891   */\n    tag_279:\n        /* \"#utility.yul\":8590:8591   */\n      0x01\n        /* \"#utility.yul\":8586:8598   */\n      dup2\n      dup2\n      shr\n      swap1\n        /* \"#utility.yul\":8633:8645   */\n      dup3\n      and\n      dup1\n        /* \"#utility.yul\":8654:8715   */\n      tag_572\n      jumpi\n        /* \"#utility.yul\":8708:8712   */\n      0x7f\n        /* \"#utility.yul\":8700:8706   */\n      dup3\n        /* \"#utility.yul\":8696:8713   */\n      and\n        /* \"#utility.yul\":8686:8713   */\n      swap2\n      pop\n        /* \"#utility.yul\":8654:8715   */\n    tag_572:\n        /* \"#utility.yul\":8761:8763   */\n      0x20\n        /* \"#utility.yul\":8753:8759   */\n      dup3\n        /* \"#utility.yul\":8750:8764   */\n      lt\n        /* \"#utility.yul\":8730:8748   */\n      dup2\n        /* \"#utility.yul\":8727:8765   */\n      sub\n        /* \"#utility.yul\":8724:8885   */\n      tag_573\n      jumpi\n        /* \"#utility.yul\":8807:8817   */\n      0x4e487b71\n        /* \"#utility.yul\":8802:8805   */\n      0xe0\n        /* \"#utility.yul\":8798:8818   */\n      shl\n        /* \"#utility.yul\":8795:8796   */\n      0x00\n        /* \"#utility.yul\":8788:8819   */\n      mstore\n        /* \"#utility.yul\":8842:8846   */\n      0x22\n        /* \"#utility.yul\":8839:8840   */\n      0x04\n        /* \"#utility.yul\":8832:8847   */\n      mstore\n        /* \"#utility.yul\":8870:8874   */\n      0x24\n        /* \"#utility.yul\":8867:8868   */\n      0x00\n        /* \"#utility.yul\":8860:8875   */\n      revert\n        /* \"#utility.yul\":8724:8885   */\n    tag_573:\n      pop\n        /* \"#utility.yul\":8511:8891   */\n      swap2\n      swap1\n      pop\n      jump\t// out\n        /* \"#utility.yul\":9241:9409   */\n    tag_292:\n        /* \"#utility.yul\":9314:9323   */\n      dup1\n      dup3\n      mul\n        /* \"#utility.yul\":9345:9354   */\n      dup2\n      iszero\n        /* \"#utility.yul\":9362:9377   */\n      dup3\n      dup3\n      div\n        /* \"#utility.yul\":9356:9378   */\n      dup5\n      eq\n        /* \"#utility.yul\":9342:9379   */\n      or\n        /* \"#utility.yul\":9332:9403   */\n      tag_171\n      jumpi\n        /* \"#utility.yul\":9383:9401   */\n      tag_171\n      tag_503\n      jump\t// in\n        /* \"#utility.yul\":9414:9631   */\n    tag_295:\n        /* \"#utility.yul\":9454:9455   */\n      0x00\n        /* \"#utility.yul\":9480:9481   */\n      dup3\n        /* \"#utility.yul\":9470:9602   */\n      tag_579\n      jumpi\n        /* \"#utility.yul\":9524:9534   */\n      0x4e487b71\n        /* \"#utility.yul\":9519:9522   */\n      0xe0\n        /* \"#utility.yul\":9515:9535   */\n      shl\n        /* \"#utility.yul\":9512:9513   */\n      0x00\n        /* \"#utility.yul\":9505:9536   */\n      mstore\n        /* \"#utility.yul\":9559:9563   */\n      0x12\n        /* \"#utility.yul\":9556:9557   */\n      0x04\n        /* \"#utility.yul\":9549:9564   */\n      mstore\n        /* \"#utility.yul\":9587:9591   */\n      0x24\n        /* \"#utility.yul\":9584:9585   */\n      0x00\n        /* \"#utility.yul\":9577:9592   */\n      revert\n        /* \"#utility.yul\":9470:9602   */\n    tag_579:\n      pop\n        /* \"#utility.yul\":9616:9625   */\n      div\n      swap1\n        /* \"#utility.yul\":9414:9631   */\n      jump\t// out\n        /* \"#utility.yul\":9636:9761   */\n    tag_297:\n        /* \"#utility.yul\":9701:9710   */\n      dup1\n      dup3\n      add\n        /* \"#utility.yul\":9722:9732   */\n      dup1\n      dup3\n      gt\n        /* \"#utility.yul\":9719:9755   */\n      iszero\n      tag_171\n      jumpi\n        /* \"#utility.yul\":9735:9753   */\n      tag_171\n      tag_503\n      jump\t// in\n        /* \"#utility.yul\":10528:11045   */\n    tag_505:\n        /* \"#utility.yul\":10629:10631   */\n      0x1f\n        /* \"#utility.yul\":10624:10627   */\n      dup3\n        /* \"#utility.yul\":10621:10632   */\n      gt\n        /* \"#utility.yul\":10618:11039   */\n      iszero\n      tag_213\n      jumpi\n        /* \"#utility.yul\":10665:10670   */\n      dup1\n        /* \"#utility.yul\":10662:10663   */\n      0x00\n        /* \"#utility.yul\":10655:10671   */\n      mstore\n        /* \"#utility.yul\":10709:10713   */\n      0x20\n        /* \"#utility.yul\":10706:10707   */\n      0x00\n        /* \"#utility.yul\":10696:10714   */\n      keccak256\n        /* \"#utility.yul\":10779:10781   */\n      0x1f\n        /* \"#utility.yul\":10767:10777   */\n      dup5\n        /* \"#utility.yul\":10763:10782   */\n      add\n        /* \"#utility.yul\":10760:10761   */\n      0x05\n        /* \"#utility.yul\":10756:10783   */\n      shr\n        /* \"#utility.yul\":10750:10754   */\n      dup2\n        /* \"#utility.yul\":10746:10784   */\n      add\n        /* \"#utility.yul\":10815:10819   */\n      0x20\n        /* \"#utility.yul\":10803:10813   */\n      dup6\n        /* \"#utility.yul\":10800:10820   */\n      lt\n        /* \"#utility.yul\":10797:10844   */\n      iszero\n      tag_588\n      jumpi\n      pop\n        /* \"#utility.yul\":10838:10842   */\n      dup1\n        /* \"#utility.yul\":10797:10844   */\n    tag_588:\n        /* \"#utility.yul\":10893:10895   */\n      0x1f\n        /* \"#utility.yul\":10888:10891   */\n      dup5\n        /* \"#utility.yul\":10884:10896   */\n      add\n        /* \"#utility.yul\":10881:10882   */\n      0x05\n        /* \"#utility.yul\":10877:10897   */\n      shr\n        /* \"#utility.yul\":10871:10875   */\n      dup3\n        /* \"#utility.yul\":10867:10898   */\n      add\n        /* \"#utility.yul\":10857:10898   */\n      swap2\n      pop\n        /* \"#utility.yul\":10948:11029   */\n    tag_589:\n        /* \"#utility.yul\":10966:10968   */\n      dup2\n        /* \"#utility.yul\":10959:10964   */\n      dup2\n        /* \"#utility.yul\":10956:10969   */\n      lt\n        /* \"#utility.yul\":10948:11029   */\n      iszero\n      tag_591\n      jumpi\n        /* \"#utility.yul\":11025:11026   */\n      0x00\n        /* \"#utility.yul\":11011:11027   */\n      dup2\n      sstore\n        /* \"#utility.yul\":10992:10993   */\n      0x01\n        /* \"#utility.yul\":10981:10994   */\n      add\n        /* \"#utility.yul\":10948:11029   */\n      jump(tag_589)\n    tag_591:\n        /* \"#utility.yul\":10952:10955   */\n      pop\n      pop\n        /* \"#utility.yul\":10528:11045   */\n      pop\n      pop\n      pop\n      jump\t// out\n        /* \"#utility.yul\":11221:12562   */\n    tag_335:\n        /* \"#utility.yul\":11345:11348   */\n      dup2\n        /* \"#utility.yul\":11339:11349   */\n      mload\n        /* \"#utility.yul\":11372:11390   */\n      0xffffffffffffffff\n        /* \"#utility.yul\":11364:11370   */\n      dup2\n        /* \"#utility.yul\":11361:11391   */\n      gt\n        /* \"#utility.yul\":11358:11414   */\n      iszero\n      tag_595\n      jumpi\n        /* \"#utility.yul\":11394:11412   */\n      tag_595\n      tag_500\n      jump\t// in\n    tag_595:\n        /* \"#utility.yul\":11423:11519   */\n      tag_596\n        /* \"#utility.yul\":11512:11518   */\n      dup2\n        /* \"#utility.yul\":11472:11510   */\n      tag_597\n        /* \"#utility.yul\":11504:11508   */\n      dup5\n        /* \"#utility.yul\":11498:11509   */\n      sload\n        /* \"#utility.yul\":11472:11510   */\n      tag_279\n      jump\t// in\n    tag_597:\n        /* \"#utility.yul\":11466:11470   */\n      dup5\n        /* \"#utility.yul\":11423:11519   */\n      tag_505\n      jump\t// in\n    tag_596:\n        /* \"#utility.yul\":11574:11578   */\n      0x20\n      dup1\n        /* \"#utility.yul\":11631:11633   */\n      0x1f\n        /* \"#utility.yul\":11620:11634   */\n      dup4\n      gt\n        /* \"#utility.yul\":11648:11649   */\n      0x01\n        /* \"#utility.yul\":11643:12305   */\n      dup2\n      eq\n      tag_599\n      jumpi\n        /* \"#utility.yul\":12349:12350   */\n      0x00\n        /* \"#utility.yul\":12366:12372   */\n      dup5\n        /* \"#utility.yul\":12363:12452   */\n      iszero\n      tag_600\n      jumpi\n      pop\n        /* \"#utility.yul\":12418:12437   */\n      dup6\n      dup4\n      add\n        /* \"#utility.yul\":12412:12438   */\n      mload\n        /* \"#utility.yul\":12363:12452   */\n    tag_600:\n      not(0x00)\n        /* \"#utility.yul\":11178:11179   */\n      0x03\n        /* \"#utility.yul\":11174:11185   */\n      dup7\n      swap1\n      shl\n        /* \"#utility.yul\":11170:11194   */\n      shr\n        /* \"#utility.yul\":11166:11195   */\n      not\n        /* \"#utility.yul\":11156:11196   */\n      and\n        /* \"#utility.yul\":11202:11203   */\n      0x01\n        /* \"#utility.yul\":11198:11209   */\n      dup6\n      swap1\n      shl\n        /* \"#utility.yul\":11153:11210   */\n      or\n        /* \"#utility.yul\":12465:12546   */\n      dup6\n      sstore\n        /* \"#utility.yul\":11613:12556   */\n      jump(tag_598)\n        /* \"#utility.yul\":11643:12305   */\n    tag_599:\n        /* \"#utility.yul\":10475:10476   */\n      0x00\n        /* \"#utility.yul\":10468:10482   */\n      dup6\n      dup2\n      mstore\n        /* \"#utility.yul\":10512:10516   */\n      0x20\n        /* \"#utility.yul\":10499:10517   */\n      dup2\n      keccak256\n      not(0x1f)\n        /* \"#utility.yul\":11679:11699   */\n      dup7\n      and\n      swap2\n        /* \"#utility.yul\":11796:12032   */\n    tag_603:\n        /* \"#utility.yul\":11810:11817   */\n      dup3\n        /* \"#utility.yul\":11807:11808   */\n      dup2\n        /* \"#utility.yul\":11804:11818   */\n      lt\n        /* \"#utility.yul\":11796:12032   */\n      iszero\n      tag_605\n      jumpi\n        /* \"#utility.yul\":11899:11918   */\n      dup9\n      dup7\n      add\n        /* \"#utility.yul\":11893:11919   */\n      mload\n        /* \"#utility.yul\":11878:11920   */\n      dup3\n      sstore\n        /* \"#utility.yul\":11991:12018   */\n      swap5\n      dup5\n      add\n      swap5\n        /* \"#utility.yul\":11959:11960   */\n      0x01\n        /* \"#utility.yul\":11947:11961   */\n      swap1\n      swap2\n      add\n      swap1\n        /* \"#utility.yul\":11826:11845   */\n      dup5\n      add\n        /* \"#utility.yul\":11796:12032   */\n      jump(tag_603)\n    tag_605:\n        /* \"#utility.yul\":11800:11803   */\n      pop\n        /* \"#utility.yul\":12060:12066   */\n      dup6\n        /* \"#utility.yul\":12051:12058   */\n      dup3\n        /* \"#utility.yul\":12048:12067   */\n      lt\n        /* \"#utility.yul\":12045:12246   */\n      iszero\n      tag_606\n      jumpi\n        /* \"#utility.yul\":12121:12140   */\n      dup8\n      dup6\n      add\n        /* \"#utility.yul\":12115:12141   */\n      mload\n      not(0x00)\n        /* \"#utility.yul\":12204:12205   */\n      0x03\n        /* \"#utility.yul\":12200:12214   */\n      dup9\n      swap1\n      shl\n        /* \"#utility.yul\":12216:12219   */\n      0xf8\n        /* \"#utility.yul\":12196:12220   */\n      and\n        /* \"#utility.yul\":12192:12229   */\n      shr\n        /* \"#utility.yul\":12188:12230   */\n      not\n        /* \"#utility.yul\":12173:12231   */\n      and\n        /* \"#utility.yul\":12158:12232   */\n      dup2\n      sstore\n        /* \"#utility.yul\":12045:12246   */\n    tag_606:\n      pop\n      pop\n        /* \"#utility.yul\":12292:12293   */\n      0x01\n        /* \"#utility.yul\":12283:12289   */\n      dup5\n        /* \"#utility.yul\":12280:12281   */\n      0x01\n        /* \"#utility.yul\":12276:12290   */\n      shl\n        /* \"#utility.yul\":12272:12294   */\n      add\n        /* \"#utility.yul\":12266:12270   */\n      dup6\n        /* \"#utility.yul\":12259:12295   */\n      sstore\n        /* \"#utility.yul\":11613:12556   */\n    tag_598:\n      pop\n      pop\n      pop\n      pop\n        /* \"#utility.yul\":11221:12562   */\n      pop\n      pop\n      jump\t// out\n        /* \"#utility.yul\":12913:13754   */\n    tag_362:\n        /* \"#utility.yul\":13039:13042   */\n      0x00\n        /* \"#utility.yul\":13068:13069   */\n      dup1\n        /* \"#utility.yul\":13101:13107   */\n      dup4\n        /* \"#utility.yul\":13095:13108   */\n      sload\n        /* \"#utility.yul\":13131:13167   */\n      tag_609\n        /* \"#utility.yul\":13157:13166   */\n      dup2\n        /* \"#utility.yul\":13131:13167   */\n      tag_279\n      jump\t// in\n    tag_609:\n        /* \"#utility.yul\":13186:13187   */\n      0x01\n        /* \"#utility.yul\":13203:13220   */\n      dup3\n      dup2\n      and\n        /* \"#utility.yul\":13229:13362   */\n      dup1\n      iszero\n      tag_611\n      jumpi\n        /* \"#utility.yul\":13376:13377   */\n      0x01\n        /* \"#utility.yul\":13371:13729   */\n      dup2\n      eq\n      tag_612\n      jumpi\n        /* \"#utility.yul\":13196:13729   */\n      jump(tag_610)\n        /* \"#utility.yul\":13229:13362   */\n    tag_611:\n      not(0xff)\n        /* \"#utility.yul\":13262:13286   */\n      dup5\n      and\n        /* \"#utility.yul\":13250:13287   */\n      dup8\n      mstore\n        /* \"#utility.yul\":13335:13349   */\n      dup3\n      iszero\n        /* \"#utility.yul\":13328:13350   */\n      iszero\n        /* \"#utility.yul\":13316:13351   */\n      dup4\n      mul\n        /* \"#utility.yul\":13307:13352   */\n      dup8\n      add\n      swap5\n      pop\n        /* \"#utility.yul\":13229:13362   */\n      jump(tag_610)\n        /* \"#utility.yul\":13371:13729   */\n    tag_612:\n        /* \"#utility.yul\":13402:13408   */\n      dup8\n        /* \"#utility.yul\":13399:13400   */\n      0x00\n        /* \"#utility.yul\":13392:13409   */\n      mstore\n        /* \"#utility.yul\":13432:13436   */\n      0x20\n        /* \"#utility.yul\":13477:13481   */\n      dup1\n        /* \"#utility.yul\":13474:13475   */\n      0x00\n        /* \"#utility.yul\":13464:13482   */\n      keccak256\n        /* \"#utility.yul\":13504:13505   */\n      0x00\n        /* \"#utility.yul\":13518:13683   */\n    tag_613:\n        /* \"#utility.yul\":13532:13538   */\n      dup6\n        /* \"#utility.yul\":13529:13530   */\n      dup2\n        /* \"#utility.yul\":13526:13539   */\n      lt\n        /* \"#utility.yul\":13518:13683   */\n      iszero\n      tag_615\n      jumpi\n        /* \"#utility.yul\":13610:13624   */\n      dup2\n      sload\n        /* \"#utility.yul\":13597:13608   */\n      dup11\n      dup3\n      add\n        /* \"#utility.yul\":13590:13625   */\n      mstore\n        /* \"#utility.yul\":13653:13669   */\n      swap1\n      dup5\n      add\n      swap1\n        /* \"#utility.yul\":13547:13557   */\n      dup3\n      add\n        /* \"#utility.yul\":13518:13683   */\n      jump(tag_613)\n    tag_615:\n        /* \"#utility.yul\":13522:13525   */\n      pop\n      pop\n      pop\n        /* \"#utility.yul\":13712:13718   */\n      dup3\n        /* \"#utility.yul\":13707:13710   */\n      dup8\n        /* \"#utility.yul\":13703:13719   */\n      add\n        /* \"#utility.yul\":13696:13719   */\n      swap5\n      pop\n        /* \"#utility.yul\":13196:13729   */\n    tag_610:\n      pop\n        /* \"#utility.yul\":13745:13748   */\n      swap3\n      swap7\n        /* \"#utility.yul\":12913:13754   */\n      swap6\n      pop\n      pop\n      pop\n      pop\n      pop\n      pop\n      jump\t// out\n        /* \"#utility.yul\":14314:14498   */\n    tag_406:\n        /* \"#utility.yul\":14384:14390   */\n      0x00\n        /* \"#utility.yul\":14437:14439   */\n      0x20\n        /* \"#utility.yul\":14425:14434   */\n      dup3\n        /* \"#utility.yul\":14416:14423   */\n      dup5\n        /* \"#utility.yul\":14412:14435   */\n      sub\n        /* \"#utility.yul\":14408:14440   */\n      slt\n        /* \"#utility.yul\":14405:14457   */\n      iszero\n      tag_619\n      jumpi\n        /* \"#utility.yul\":14453:14454   */\n      0x00\n        /* \"#utility.yul\":14450:14451   */\n      dup1\n        /* \"#utility.yul\":14443:14455   */\n      revert\n        /* \"#utility.yul\":14405:14457   */\n    tag_619:\n      pop\n        /* \"#utility.yul\":14476:14492   */\n      mload\n      swap2\n        /* \"#utility.yul\":14314:14498   */\n      swap1\n      pop\n      jump\t// out\n        /* \"#utility.yul\":15476:15777   */\n    tag_478:\n        /* \"#utility.yul\":15605:15608   */\n      0x00\n        /* \"#utility.yul\":15643:15649   */\n      dup3\n        /* \"#utility.yul\":15637:15650   */\n      mload\n        /* \"#utility.yul\":15689:15695   */\n      dup1\n        /* \"#utility.yul\":15682:15686   */\n      0x20\n        /* \"#utility.yul\":15674:15680   */\n      dup6\n        /* \"#utility.yul\":15670:15687   */\n      add\n        /* \"#utility.yul\":15665:15668   */\n      dup5\n        /* \"#utility.yul\":15659:15696   */\n      mcopy\n        /* \"#utility.yul\":15751:15752   */\n      0x00\n        /* \"#utility.yul\":15715:15731   */\n      swap3\n      add\n        /* \"#utility.yul\":15740:15753   */\n      swap2\n      dup3\n      mstore\n      pop\n        /* \"#utility.yul\":15715:15731   */\n      swap2\n        /* \"#utility.yul\":15476:15777   */\n      swap1\n      pop\n      jump\t// out\n    stop\n    data_75b20eef8615de99c108b05f0dbda081c91897128caa336d75dffb97c4132b4d 360894a13ba1a3210667c828492db98dca3e2076cc3735a920a3ca505d382bbc\n    data_9b87106a812d214d41ad9b68a21119e2948eaaf1040375c939ec808b8862455c 65d7a28e3265b37a6474929f336521b332c1681b933f6cb9f3376673440d862a\n    data_b3da67d1b252aeab7c8063542d95e75f82a5307a82535949bc38f7cf7ba8897f 02dd7bc7dec4dceedda775e58dd541e08a116c6c53815c0bd028192f7b626800\n    data_cb864c43dd5d441bb6271f424f11befa622c032dfd374d226e26fbbdb782b8f8 a49807205ce4d355092ef5a8a18f56e8913cf4a201fbe287825b095693c21775\n\n    auxdata: 0xa2646970667358221220e641ad3c449ccb231cc153557173105ee11a6d50f55d942a6471de7513fbb93864736f6c63430008190033\n}\n",
				"bytecode": {
					"linkReferences": {},
					"object": "60a060405230608052348015610013575f80fd5b5061001c610021565b6100d3565b7ff0c57e16840df040f15088dc2f81fe391c3923bec73e23a9662efc9c229c6a00805468010000000000000000900460ff16156100715760405163f92ee8a960e01b815260040160405180910390fd5b80546001600160401b03908116146100d05780546001600160401b0319166001600160401b0390811782556040519081527fc7f505b2f371ae2175ee4913f4499e1f2633a7b5936321eed1cdaeb6115181d29060200160405180910390a15b50565b608051611fb06100f95f395f818161144f0152818161147801526115db0152611fb05ff3fe6080604052600436106101b2575f3560e01c806382e717f7116100e7578063c01a8c8411610087578063d547741f11610062578063d547741f146104db578063e63ab1e9146104fa578063ee22610b1461051a578063f72c0d8b14610539575f80fd5b8063c01a8c8414610488578063c63a6ad2146104a7578063c6427474146104bc575f80fd5b80639ace38c2116100c25780639ace38c2146103f4578063a217fddf14610424578063a5ce413b14610437578063ad3cb1cc1461044b575f80fd5b806382e717f7146103ac5780638456cb59146103c157806391d14854146103d5575f80fd5b80634f1ef286116101525780637547c7a31161012d5780637547c7a31461031557806375b238fc146103345780637a1ac61e1461035457806380f59a6514610373575f80fd5b80634f1ef286146102d857806352d1902d146102eb5780635c975abb146102ff575f80fd5b8063248a9ca31161018d578063248a9ca3146102595780632f2ff15d1461028657806336568abe146102a55780633f4ba83a146102c4575f80fd5b806301ffc9a7146101bd57806316934fc4146101f157806320ea8d8614610238575f80fd5b366101b957005b5f80fd5b3480156101c8575f80fd5b506101dc6101d7366004611960565b61056c565b60405190151581526020015b60405180910390f35b3480156101fc575f80fd5b5061022361020b3660046119a2565b60356020525f90815260409020805460019091015482565b604080519283526020830191909152016101e8565b348015610243575f80fd5b506102576102523660046119bb565b6105a2565b005b348015610264575f80fd5b506102786102733660046119bb565b610739565b6040519081526020016101e8565b348015610291575f80fd5b506102576102a03660046119d2565b610759565b3480156102b0575f80fd5b506102576102bf3660046119d2565b61077b565b3480156102cf575f80fd5b506102576107b3565b6102576102e6366004611a99565b6107d5565b3480156102f6575f80fd5b506102786107f4565b34801561030a575f80fd5b505f5460ff166101dc565b348015610320575f80fd5b5061025761032f3660046119bb565b61080f565b34801561033f575f80fd5b506102785f80516020611f5b83398151915281565b34801561035f575f80fd5b5061025761036e366004611ae4565b610936565b34801561037e575f80fd5b506101dc61038d3660046119d2565b603260209081525f928352604080842090915290825290205460ff1681565b3480156103b7575f80fd5b5061027860345481565b3480156103cc575f80fd5b50610257610ac5565b3480156103e0575f80fd5b506101dc6103ef3660046119d2565b610ae4565b3480156103ff575f80fd5b5061041361040e3660046119bb565b610b1a565b6040516101e8959493929190611b42565b34801561042f575f80fd5b506102785f81565b348015610442575f80fd5b50610257610bef565b348015610456575f80fd5b5061047b604051806040016040528060058152602001640352e302e360dc1b81525081565b6040516101e89190611b7c565b348015610493575f80fd5b506102576104a23660046119bb565b610dc6565b3480156104b2575f80fd5b5061027860365481565b3480156104c7575f80fd5b506102576104d6366004611b8e565b610f5a565b3480156104e6575f80fd5b506102576104f53660046119d2565b6110be565b348015610505575f80fd5b506102785f80516020611f1b83398151915281565b348015610525575f80fd5b506102576105343660046119bb565b6110da565b348015610544575f80fd5b506102787f189ab7a9244df0848122154315af71fe140f3db0fe014031783b0946b8c9d2e381565b5f6001600160e01b03198216637965db0b60e01b148061059c57506301ffc9a760e01b6001600160e01b03198316145b92915050565b6105b95f80516020611f5b83398151915233610ae4565b6105de5760405162461bcd60e51b81526004016105d590611be1565b60405180910390fd5b603354819081106106015760405162461bcd60e51b81526004016105d590611c07565b816033818154811061061557610615611c3e565b5f91825260209091206003600590920201015460ff16156106485760405162461bcd60e51b81526004016105d590611c52565b5f6033848154811061065c5761065c611c3e565b5f91825260208083208784526032825260408085203386529092529220546005909102909101915060ff166106d35760405162461bcd60e51b815260206004820152601960248201527f5472616e73616374696f6e206e6f7420636f6e6669726d65640000000000000060448201526064016105d5565b6001816004015f8282546106e79190611c9d565b90915550505f848152603260209081526040808320338085529252808320805460ff191690555186927fe5c8875c5e14471f806f15f740cd9fd54937d151e9dcf8ad3ba988d6a285e67e91a350505050565b5f9081525f80516020611f3b833981519152602052604090206001015490565b61076282610739565b61076b816112cf565b61077583836112d9565b50505050565b6001600160a01b03811633146107a45760405163334bd91960e11b815260040160405180910390fd5b6107ae828261137a565b505050565b5f80516020611f1b8339815191526107ca816112cf565b6107d26113f3565b50565b6107dd611444565b6107e6826114ea565b6107f08282611514565b5050565b5f6107fd6115d0565b505f80516020611efb83398151915290565b610817611619565b6040516323b872dd60e01b81523360048201523060248201819052604482018390529081906323b872dd906064016020604051808303815f875af1158015610861573d5f803e3d5ffd5b505050506040513d601f19601f820116820180604052508101906108859190611cb0565b6108c95760405162461bcd60e51b8152602060048201526015602482015274151bdad95b881d1c985b9cd9995c8819985a5b1959605a1b60448201526064016105d5565b604080518082018252838152426020808301828152335f8181526035845286902094518555905160019094019390935583518681529081019190915290917fdd2a19c3bdd089cbe77c04f5655f83de0504d6140d12c8667646f55d0557c4dc910160405180910390a25050565b7ff0c57e16840df040f15088dc2f81fe391c3923bec73e23a9662efc9c229c6a008054600160401b810460ff16159067ffffffffffffffff165f8115801561097b5750825b90505f8267ffffffffffffffff1660011480156109975750303b155b9050811580156109a5575080155b156109c35760405163f92ee8a960e01b815260040160405180910390fd5b845467ffffffffffffffff1916600117855583156109ed57845460ff60401b1916600160401b1785555b6109f561165e565b6109fd611666565b610a0561165e565b610a0f5f896112d9565b50610a275f80516020611f1b833981519152896112d9565b50610a3f5f80516020611f5b833981519152896112d9565b50610a6a7f189ab7a9244df0848122154315af71fe140f3db0fe014031783b0946b8c9d2e3896112d9565b50603487905560368690558315610abb57845460ff60401b19168555604051600181527fc7f505b2f371ae2175ee4913f4499e1f2633a7b5936321eed1cdaeb6115181d29060200160405180910390a15b5050505050505050565b5f80516020611f1b833981519152610adc816112cf565b6107d2611676565b5f9182525f80516020611f3b833981519152602090815260408084206001600160a01b0393909316845291905290205460ff1690565b60338181548110610b29575f80fd5b5f9182526020909120600590910201805460018201546002830180546001600160a01b039093169450909291610b5e90611ccf565b80601f0160208091040260200160405190810160405280929190818152602001828054610b8a90611ccf565b8015610bd55780601f10610bac57610100808354040283529160200191610bd5565b820191905f5260205f20905b815481529060010190602001808311610bb857829003601f168201915b505050506003830154600490930154919260ff1691905085565b610bf7611619565b335f908152603560209081526040918290208251808401909352805480845260019091015491830191909152610c625760405162461bcd60e51b815260206004820152601060248201526f139bc81d1bdad95b9cc81cdd185ad95960821b60448201526064016105d5565b5f816020015142610c739190611c9d565b90505f6301e1338082603654855f0151610c8d9190611d07565b610c979190611d07565b610ca19190611d1e565b83519091503090819063a9059cbb903390610cbd908690611d3d565b6040516001600160e01b031960e085901b1681526001600160a01b03909216600483015260248201526044016020604051808303815f875af1158015610d05573d5f803e3d5ffd5b505050506040513d601f19601f82011682018060405250810190610d299190611cb0565b610d6d5760405162461bcd60e51b8152602060048201526015602482015274151bdad95b881d1c985b9cd9995c8819985a5b1959605a1b60448201526064016105d5565b335f81815260356020908152604080832083815560010192909255865182519081529081018590527f6f2d3e000c89d37446b7c0374c0125068ff316d1e3ee302336478a8cd03c2336910160405180910390a250505050565b610ddd5f80516020611f5b83398151915233610ae4565b610df95760405162461bcd60e51b81526004016105d590611be1565b60335481908110610e1c5760405162461bcd60e51b81526004016105d590611c07565b8160338181548110610e3057610e30611c3e565b5f91825260209091206003600590920201015460ff1615610e635760405162461bcd60e51b81526004016105d590611c52565b5f838152603260209081526040808320338452909152902054839060ff1615610ece5760405162461bcd60e51b815260206004820152601d60248201527f5472616e73616374696f6e20616c726561647920636f6e6669726d656400000060448201526064016105d5565b5f60338581548110610ee257610ee2611c3e565b905f5260205f20906005020190506001816004015f828254610f049190611d3d565b90915550505f858152603260209081526040808320338085529252808320805460ff191660011790555187927ff8a17c9136a3ae33364fac05eb088a3cbafee10c1889c88593e20ee2d8e4eb8891a35050505050565b610f715f80516020611f5b83398151915233610ae4565b610f8d5760405162461bcd60e51b81526004016105d590611be1565b603380546040805160a0810182526001600160a01b038781168252602082018781529282018681525f60608401819052608084018190526001860187559590955281517f82a75bdeeae8604d839476ae9efd8b0e15aa447e21bfd7f41283bb54e22c9a826005860290810180546001600160a01b0319169290931691909117825592517f82a75bdeeae8604d839476ae9efd8b0e15aa447e21bfd7f41283bb54e22c9a8384015593519293909290917f82a75bdeeae8604d839476ae9efd8b0e15aa447e21bfd7f41283bb54e22c9a8401906110699082611d9b565b50606082015160038201805460ff191691151591909117905560809091015160049091015560405181907fd0b5d9eac097410294ec9f2cee7cd185cf31ab46babf3dfdbeac8b222b03f2d1905f90a250505050565b6110c782610739565b6110d0816112cf565b610775838361137a565b6110f15f80516020611f5b83398151915233610ae4565b61110d5760405162461bcd60e51b81526004016105d590611be1565b603354819081106111305760405162461bcd60e51b81526004016105d590611c07565b816033818154811061114457611144611c3e565b5f91825260209091206003600590920201015460ff16156111775760405162461bcd60e51b81526004016105d590611c52565b5f6033848154811061118b5761118b611c3e565b905f5260205f2090600502019050603454816004015410156111e35760405162461bcd60e51b8152602060048201526011602482015270086c2dcdcdee840caf0cac6eae8ca40e8f607b1b60448201526064016105d5565b60038101805460ff191660019081179091558154908201546040515f926001600160a01b03169190611219906002860190611e5b565b5f6040518083038185875af1925050503d805f8114611253576040519150601f19603f3d011682016040523d82523d5f602084013e611258565b606091505b505090508061129e5760405162461bcd60e51b8152602060048201526012602482015271151c985b9cd858dd1a5bdb8819985a5b195960721b60448201526064016105d5565b60405185907f15ed165a284872ea7017f03df402a0cadfbfab588320ffaf83f160c2f82781c7905f90a25050505050565b6107d281336116b2565b5f5f80516020611f3b8339815191526112f28484610ae4565b611371575f848152602082815260408083206001600160a01b03871684529091529020805460ff191660011790556113273390565b6001600160a01b0316836001600160a01b0316857f2f8788117e7eff1d82e926ec794901d17c78024a50270940304540a733656f0d60405160405180910390a4600191505061059c565b5f91505061059c565b5f5f80516020611f3b8339815191526113938484610ae4565b15611371575f848152602082815260408083206001600160a01b0387168085529252808320805460ff1916905551339287917ff6391f5c32d9c69d2a47ea670b442974b53935d1edc7fd64eb21e047a839171b9190a4600191505061059c565b6113fb6116eb565b5f805460ff191690557f5db9ee0a495bf2e6ff9c91a7834c1ba4fdd244a5e8aa4e537bd38aeae4b073aa335b6040516001600160a01b03909116815260200160405180910390a1565b306001600160a01b037f00000000000000000000000000000000000000000000000000000000000000001614806114ca57507f00000000000000000000000000000000000000000000000000000000000000006001600160a01b03166114be5f80516020611efb833981519152546001600160a01b031690565b6001600160a01b031614155b156114e85760405163703e46dd60e11b815260040160405180910390fd5b565b7f189ab7a9244df0848122154315af71fe140f3db0fe014031783b0946b8c9d2e36107f0816112cf565b816001600160a01b03166352d1902d6040518163ffffffff1660e01b8152600401602060405180830381865afa92505050801561156e575060408051601f3d908101601f1916820190925261156b91810190611ecd565b60015b61159657604051634c9c8ce360e01b81526001600160a01b03831660048201526024016105d5565b5f80516020611efb83398151915281146115c657604051632a87526960e21b8152600481018290526024016105d5565b6107ae8383611733565b306001600160a01b037f000000000000000000000000000000000000000000000000000000000000000016146114e85760405163703e46dd60e11b815260040160405180910390fd5b5f5460ff16156114e85760405162461bcd60e51b815260206004820152601060248201526f14185d5cd8589b194e881c185d5cd95960821b60448201526064016105d5565b6114e8611788565b61166e611788565b6114e86117d1565b61167e611619565b5f805460ff191660011790557f62e78cea01bee320cd4e420270b5ea74000d11b0c9f74754ebdbfc544b05a2586114273390565b6116bc8282610ae4565b6107f05760405163e2517d3f60e01b81526001600160a01b0382166004820152602481018390526044016105d5565b5f5460ff166114e85760405162461bcd60e51b815260206004820152601460248201527314185d5cd8589b194e881b9bdd081c185d5cd95960621b60448201526064016105d5565b61173c826117e4565b6040516001600160a01b038316907fbc7cd75a20ee27fd9adebab32041f755214dbc6bffa90cc0225b39da2e5c2d3b905f90a2805115611780576107ae8282611847565b6107f06118b9565b7ff0c57e16840df040f15088dc2f81fe391c3923bec73e23a9662efc9c229c6a0054600160401b900460ff166114e857604051631afcd79f60e31b815260040160405180910390fd5b6117d9611788565b5f805460ff19169055565b806001600160a01b03163b5f0361181957604051634c9c8ce360e01b81526001600160a01b03821660048201526024016105d5565b5f80516020611efb83398151915280546001600160a01b0319166001600160a01b0392909216919091179055565b60605f80846001600160a01b0316846040516118639190611ee4565b5f60405180830381855af49150503d805f811461189b576040519150601f19603f3d011682016040523d82523d5f602084013e6118a0565b606091505b50915091506118b08583836118d8565b95945050505050565b34156114e85760405163b398979f60e01b815260040160405180910390fd5b6060826118ed576118e882611937565b611930565b815115801561190457506001600160a01b0384163b155b1561192d57604051639996b31560e01b81526001600160a01b03851660048201526024016105d5565b50805b9392505050565b8051156119475780518082602001fd5b604051630a12f52160e11b815260040160405180910390fd5b5f60208284031215611970575f80fd5b81356001600160e01b031981168114611930575f80fd5b80356001600160a01b038116811461199d575f80fd5b919050565b5f602082840312156119b2575f80fd5b61193082611987565b5f602082840312156119cb575f80fd5b5035919050565b5f80604083850312156119e3575f80fd5b823591506119f360208401611987565b90509250929050565b634e487b7160e01b5f52604160045260245ffd5b5f82601f830112611a1f575f80fd5b813567ffffffffffffffff80821115611a3a57611a3a6119fc565b604051601f8301601f19908116603f01168101908282118183101715611a6257611a626119fc565b81604052838152866020858801011115611a7a575f80fd5b836020870160208301375f602085830101528094505050505092915050565b5f8060408385031215611aaa575f80fd5b611ab383611987565b9150602083013567ffffffffffffffff811115611ace575f80fd5b611ada85828601611a10565b9150509250929050565b5f805f60608486031215611af6575f80fd5b611aff84611987565b95602085013595506040909401359392505050565b5f81518084528060208401602086015e5f602082860101526020601f19601f83011685010191505092915050565b60018060a01b038616815284602082015260a060408201525f611b6860a0830186611b14565b931515606083015250608001529392505050565b602081525f6119306020830184611b14565b5f805f60608486031215611ba0575f80fd5b611ba984611987565b925060208401359150604084013567ffffffffffffffff811115611bcb575f80fd5b611bd786828701611a10565b9150509250925092565b6020808252600c908201526b2737ba1030b71030b236b4b760a11b604082015260600190565b6020808252601a908201527f5472616e73616374696f6e20646f6573206e6f74206578697374000000000000604082015260600190565b634e487b7160e01b5f52603260045260245ffd5b6020808252601c908201527f5472616e73616374696f6e20616c726561647920657865637574656400000000604082015260600190565b634e487b7160e01b5f52601160045260245ffd5b8181038181111561059c5761059c611c89565b5f60208284031215611cc0575f80fd5b81518015158114611930575f80fd5b600181811c90821680611ce357607f821691505b602082108103611d0157634e487b7160e01b5f52602260045260245ffd5b50919050565b808202811582820484141761059c5761059c611c89565b5f82611d3857634e487b7160e01b5f52601260045260245ffd5b500490565b8082018082111561059c5761059c611c89565b601f8211156107ae57805f5260205f20601f840160051c81016020851015611d755750805b601f840160051c820191505b81811015611d94575f8155600101611d81565b5050505050565b815167ffffffffffffffff811115611db557611db56119fc565b611dc981611dc38454611ccf565b84611d50565b602080601f831160018114611dfc575f8415611de55750858301515b5f19600386901b1c1916600185901b178555611e53565b5f85815260208120601f198616915b82811015611e2a57888601518255948401946001909101908401611e0b565b5085821015611e4757878501515f19600388901b60f8161c191681555b505060018460011b0185555b505050505050565b5f808354611e6881611ccf565b60018281168015611e805760018114611e9557611ec1565b60ff1984168752821515830287019450611ec1565b875f526020805f205f5b85811015611eb85781548a820152908401908201611e9f565b50505082870194505b50929695505050505050565b5f60208284031215611edd575f80fd5b5051919050565b5f82518060208501845e5f92019182525091905056fe360894a13ba1a3210667c828492db98dca3e2076cc3735a920a3ca505d382bbc65d7a28e3265b37a6474929f336521b332c1681b933f6cb9f3376673440d862a02dd7bc7dec4dceedda775e58dd541e08a116c6c53815c0bd028192f7b626800a49807205ce4d355092ef5a8a18f56e8913cf4a201fbe287825b095693c21775a2646970667358221220e641ad3c449ccb231cc153557173105ee11a6d50f55d942a6471de7513fbb93864736f6c63430008190033",
					"opcodes": "PUSH1 0xA0 PUSH1 0x40 MSTORE ADDRESS PUSH1 0x80 MSTORE CALLVALUE DUP1 ISZERO PUSH2 0x13 JUMPI PUSH0 DUP1 REVERT JUMPDEST POP PUSH2 0x1C PUSH2 0x21 JUMP JUMPDEST PUSH2 0xD3 JUMP JUMPDEST PUSH32 0xF0C57E16840DF040F15088DC2F81FE391C3923BEC73E23A9662EFC9C229C6A00 DUP1 SLOAD PUSH9 0x10000000000000000 SWAP1 DIV PUSH1 0xFF AND ISZERO PUSH2 0x71 JUMPI PUSH1 0x40 MLOAD PUSH4 0xF92EE8A9 PUSH1 0xE0 SHL DUP2 MSTORE PUSH1 0x4 ADD PUSH1 0x40 MLOAD DUP1 SWAP2 SUB SWAP1 REVERT JUMPDEST DUP1 SLOAD PUSH1 0x1 PUSH1 0x1 PUSH1 0x40 SHL SUB SWAP1 DUP2 AND EQ PUSH2 0xD0 JUMPI DUP1 SLOAD PUSH1 0x1 PUSH1 0x1 PUSH1 0x40 SHL SUB NOT AND PUSH1 0x1 PUSH1 0x1 PUSH1 0x40 SHL SUB SWAP1 DUP2 OR DUP3 SSTORE PUSH1 0x40 MLOAD SWAP1 DUP2 MSTORE PUSH32 0xC7F505B2F371AE2175EE4913F4499E1F2633A7B5936321EED1CDAEB6115181D2 SWAP1 PUSH1 0x20 ADD PUSH1 0x40 MLOAD DUP1 SWAP2 SUB SWAP1 LOG1 JUMPDEST POP JUMP JUMPDEST PUSH1 0x80 MLOAD PUSH2 0x1FB0 PUSH2 0xF9 PUSH0 CODECOPY PUSH0 DUP2 DUP2 PUSH2 0x144F ADD MSTORE DUP2 DUP2 PUSH2 0x1478 ADD MSTORE PUSH2 0x15DB ADD MSTORE PUSH2 0x1FB0 PUSH0 RETURN INVALID PUSH1 0x80 PUSH1 0x40 MSTORE PUSH1 0x4 CALLDATASIZE LT PUSH2 0x1B2 JUMPI PUSH0 CALLDATALOAD PUSH1 0xE0 SHR DUP1 PUSH4 0x82E717F7 GT PUSH2 0xE7 JUMPI DUP1 PUSH4 0xC01A8C84 GT PUSH2 0x87 JUMPI DUP1 PUSH4 0xD547741F GT PUSH2 0x62 JUMPI DUP1 PUSH4 0xD547741F EQ PUSH2 0x4DB JUMPI DUP1 PUSH4 0xE63AB1E9 EQ PUSH2 0x4FA JUMPI DUP1 PUSH4 0xEE22610B EQ PUSH2 0x51A JUMPI DUP1 PUSH4 0xF72C0D8B EQ PUSH2 0x539 JUMPI PUSH0 DUP1 REVERT JUMPDEST DUP1 PUSH4 0xC01A8C84 EQ PUSH2 0x488 JUMPI DUP1 PUSH4 0xC63A6AD2 EQ PUSH2 0x4A7 JUMPI DUP1 PUSH4 0xC6427474 EQ PUSH2 0x4BC JUMPI PUSH0 DUP1 REVERT JUMPDEST DUP1 PUSH4 0x9ACE38C2 GT PUSH2 0xC2 JUMPI DUP1 PUSH4 0x9ACE38C2 EQ PUSH2 0x3F4 JUMPI DUP1 PUSH4 0xA217FDDF EQ PUSH2 0x424 JUMPI DUP1 PUSH4 0xA5CE413B EQ PUSH2 0x437 JUMPI DUP1 PUSH4 0xAD3CB1CC EQ PUSH2 0x44B JUMPI PUSH0 DUP1 REVERT JUMPDEST DUP1 PUSH4 0x82E717F7 EQ PUSH2 0x3AC JUMPI DUP1 PUSH4 0x8456CB59 EQ PUSH2 0x3C1 JUMPI DUP1 PUSH4 0x91D14854 EQ PUSH2 0x3D5 JUMPI PUSH0 DUP1 REVERT JUMPDEST DUP1 PUSH4 0x4F1EF286 GT PUSH2 0x152 JUMPI DUP1 PUSH4 0x7547C7A3 GT PUSH2 0x12D JUMPI DUP1 PUSH4 0x7547C7A3 EQ PUSH2 0x315 JUMPI DUP1 PUSH4 0x75B238FC EQ PUSH2 0x334 JUMPI DUP1 PUSH4 0x7A1AC61E EQ PUSH2 0x354 JUMPI DUP1 PUSH4 0x80F59A65 EQ PUSH2 0x373 JUMPI PUSH0 DUP1 REVERT JUMPDEST DUP1 PUSH4 0x4F1EF286 EQ PUSH2 0x2D8 JUMPI DUP1 PUSH4 0x52D1902D EQ PUSH2 0x2EB JUMPI DUP1 PUSH4 0x5C975ABB EQ PUSH2 0x2FF JUMPI PUSH0 DUP1 REVERT JUMPDEST DUP1 PUSH4 0x248A9CA3 GT PUSH2 0x18D JUMPI DUP1 PUSH4 0x248A9CA3 EQ PUSH2 0x259 JUMPI DUP1 PUSH4 0x2F2FF15D EQ PUSH2 0x286 JUMPI DUP1 PUSH4 0x36568ABE EQ PUSH2 0x2A5 JUMPI DUP1 PUSH4 0x3F4BA83A EQ PUSH2 0x2C4 JUMPI PUSH0 DUP1 REVERT JUMPDEST DUP1 PUSH4 0x1FFC9A7 EQ PUSH2 0x1BD JUMPI DUP1 PUSH4 0x16934FC4 EQ PUSH2 0x1F1 JUMPI DUP1 PUSH4 0x20EA8D86 EQ PUSH2 0x238 JUMPI PUSH0 DUP1 REVERT JUMPDEST CALLDATASIZE PUSH2 0x1B9 JUMPI STOP JUMPDEST PUSH0 DUP1 REVERT JUMPDEST CALLVALUE DUP1 ISZERO PUSH2 0x1C8 JUMPI PUSH0 DUP1 REVERT JUMPDEST POP PUSH2 0x1DC PUSH2 0x1D7 CALLDATASIZE PUSH1 0x4 PUSH2 0x1960 JUMP JUMPDEST PUSH2 0x56C JUMP JUMPDEST PUSH1 0x40 MLOAD SWAP1 ISZERO ISZERO DUP2 MSTORE PUSH1 0x20 ADD JUMPDEST PUSH1 0x40 MLOAD DUP1 SWAP2 SUB SWAP1 RETURN JUMPDEST CALLVALUE DUP1 ISZERO PUSH2 0x1FC JUMPI PUSH0 DUP1 REVERT JUMPDEST POP PUSH2 0x223 PUSH2 0x20B CALLDATASIZE PUSH1 0x4 PUSH2 0x19A2 JUMP JUMPDEST PUSH1 0x35 PUSH1 0x20 MSTORE PUSH0 SWAP1 DUP2 MSTORE PUSH1 0x40 SWAP1 KECCAK256 DUP1 SLOAD PUSH1 0x1 SWAP1 SWAP2 ADD SLOAD DUP3 JUMP JUMPDEST PUSH1 0x40 DUP1 MLOAD SWAP3 DUP4 MSTORE PUSH1 0x20 DUP4 ADD SWAP2 SWAP1 SWAP2 MSTORE ADD PUSH2 0x1E8 JUMP JUMPDEST CALLVALUE DUP1 ISZERO PUSH2 0x243 JUMPI PUSH0 DUP1 REVERT JUMPDEST POP PUSH2 0x257 PUSH2 0x252 CALLDATASIZE PUSH1 0x4 PUSH2 0x19BB JUMP JUMPDEST PUSH2 0x5A2 JUMP JUMPDEST STOP JUMPDEST CALLVALUE DUP1 ISZERO PUSH2 0x264 JUMPI PUSH0 DUP1 REVERT JUMPDEST POP PUSH2 0x278 PUSH2 0x273 CALLDATASIZE PUSH1 0x4 PUSH2 0x19BB JUMP JUMPDEST PUSH2 0x739 JUMP JUMPDEST PUSH1 0x40 MLOAD SWAP1 DUP2 MSTORE PUSH1 0x20 ADD PUSH2 0x1E8 JUMP JUMPDEST CALLVALUE DUP1 ISZERO PUSH2 0x291 JUMPI PUSH0 DUP1 REVERT JUMPDEST POP PUSH2 0x257 PUSH2 0x2A0 CALLDATASIZE PUSH1 0x4 PUSH2 0x19D2 JUMP JUMPDEST PUSH2 0x759 JUMP JUMPDEST CALLVALUE DUP1 ISZERO PUSH2 0x2B0 JUMPI PUSH0 DUP1 REVERT JUMPDEST POP PUSH2 0x257 PUSH2 0x2BF CALLDATASIZE PUSH1 0x4 PUSH2 0x19D2 JUMP JUMPDEST PUSH2 0x77B JUMP JUMPDEST CALLVALUE DUP1 ISZERO PUSH2 0x2CF JUMPI PUSH0 DUP1 REVERT JUMPDEST POP PUSH2 0x257 PUSH2 0x7B3 JUMP JUMPDEST PUSH2 0x257 PUSH2 0x2E6 CALLDATASIZE PUSH1 0x4 PUSH2 0x1A99 JUMP JUMPDEST PUSH2 0x7D5 JUMP JUMPDEST CALLVALUE DUP1 ISZERO PUSH2 0x2F6 JUMPI PUSH0 DUP1 REVERT JUMPDEST POP PUSH2 0x278 PUSH2 0x7F4 JUMP JUMPDEST CALLVALUE DUP1 ISZERO PUSH2 0x30A JUMPI PUSH0 DUP1 REVERT JUMPDEST POP PUSH0 SLOAD PUSH1 0xFF AND PUSH2 0x1DC JUMP JUMPDEST CALLVALUE DUP1 ISZERO PUSH2 0x320 JUMPI PUSH0 DUP1 REVERT JUMPDEST POP PUSH2 0x257 PUSH2 0x32F CALLDATASIZE PUSH1 0x4 PUSH2 0x19BB JUMP JUMPDEST PUSH2 0x80F JUMP JUMPDEST CALLVALUE DUP1 ISZERO PUSH2 0x33F JUMPI PUSH0 DUP1 REVERT JUMPDEST POP PUSH2 0x278 PUSH0 DUP1 MLOAD PUSH1 0x20 PUSH2 0x1F5B DUP4 CODECOPY DUP2 MLOAD SWAP2 MSTORE DUP2 JUMP JUMPDEST CALLVALUE DUP1 ISZERO PUSH2 0x35F JUMPI PUSH0 DUP1 REVERT JUMPDEST POP PUSH2 0x257 PUSH2 0x36E CALLDATASIZE PUSH1 0x4 PUSH2 0x1AE4 JUMP JUMPDEST PUSH2 0x936 JUMP JUMPDEST CALLVALUE DUP1 ISZERO PUSH2 0x37E JUMPI PUSH0 DUP1 REVERT JUMPDEST POP PUSH2 0x1DC PUSH2 0x38D CALLDATASIZE PUSH1 0x4 PUSH2 0x19D2 JUMP JUMPDEST PUSH1 0x32 PUSH1 0x20 SWAP1 DUP2 MSTORE PUSH0 SWAP3 DUP4 MSTORE PUSH1 0x40 DUP1 DUP5 KECCAK256 SWAP1 SWAP2 MSTORE SWAP1 DUP3 MSTORE SWAP1 KECCAK256 SLOAD PUSH1 0xFF AND DUP2 JUMP JUMPDEST CALLVALUE DUP1 ISZERO PUSH2 0x3B7 JUMPI PUSH0 DUP1 REVERT JUMPDEST POP PUSH2 0x278 PUSH1 0x34 SLOAD DUP2 JUMP JUMPDEST CALLVALUE DUP1 ISZERO PUSH2 0x3CC JUMPI PUSH0 DUP1 REVERT JUMPDEST POP PUSH2 0x257 PUSH2 0xAC5 JUMP JUMPDEST CALLVALUE DUP1 ISZERO PUSH2 0x3E0 JUMPI PUSH0 DUP1 REVERT JUMPDEST POP PUSH2 0x1DC PUSH2 0x3EF CALLDATASIZE PUSH1 0x4 PUSH2 0x19D2 JUMP JUMPDEST PUSH2 0xAE4 JUMP JUMPDEST CALLVALUE DUP1 ISZERO PUSH2 0x3FF JUMPI PUSH0 DUP1 REVERT JUMPDEST POP PUSH2 0x413 PUSH2 0x40E CALLDATASIZE PUSH1 0x4 PUSH2 0x19BB JUMP JUMPDEST PUSH2 0xB1A JUMP JUMPDEST PUSH1 0x40 MLOAD PUSH2 0x1E8 SWAP6 SWAP5 SWAP4 SWAP3 SWAP2 SWAP1 PUSH2 0x1B42 JUMP JUMPDEST CALLVALUE DUP1 ISZERO PUSH2 0x42F JUMPI PUSH0 DUP1 REVERT JUMPDEST POP PUSH2 0x278 PUSH0 DUP2 JUMP JUMPDEST CALLVALUE DUP1 ISZERO PUSH2 0x442 JUMPI PUSH0 DUP1 REVERT JUMPDEST POP PUSH2 0x257 PUSH2 0xBEF JUMP JUMPDEST CALLVALUE DUP1 ISZERO PUSH2 0x456 JUMPI PUSH0 DUP1 REVERT JUMPDEST POP PUSH2 0x47B PUSH1 0x40 MLOAD DUP1 PUSH1 0x40 ADD PUSH1 0x40 MSTORE DUP1 PUSH1 0x5 DUP2 MSTORE PUSH1 0x20 ADD PUSH5 0x352E302E3 PUSH1 0xDC SHL DUP2 MSTORE POP DUP2 JUMP JUMPDEST PUSH1 0x40 MLOAD PUSH2 0x1E8 SWAP2 SWAP1 PUSH2 0x1B7C JUMP JUMPDEST CALLVALUE DUP1 ISZERO PUSH2 0x493 JUMPI PUSH0 DUP1 REVERT JUMPDEST POP PUSH2 0x257 PUSH2 0x4A2 CALLDATASIZE PUSH1 0x4 PUSH2 0x19BB JUMP JUMPDEST PUSH2 0xDC6 JUMP JUMPDEST CALLVALUE DUP1 ISZERO PUSH2 0x4B2 JUMPI PUSH0 DUP1 REVERT JUMPDEST POP PUSH2 0x278 PUSH1 0x36 SLOAD DUP2 JUMP JUMPDEST CALLVALUE DUP1 ISZERO PUSH2 0x4C7 JUMPI PUSH0 DUP1 REVERT JUMPDEST POP PUSH2 0x257 PUSH2 0x4D6 CALLDATASIZE PUSH1 0x4 PUSH2 0x1B8E JUMP JUMPDEST PUSH2 0xF5A JUMP JUMPDEST CALLVALUE DUP1 ISZERO PUSH2 0x4E6 JUMPI PUSH0 DUP1 REVERT JUMPDEST POP PUSH2 0x257 PUSH2 0x4F5 CALLDATASIZE PUSH1 0x4 PUSH2 0x19D2 JUMP JUMPDEST PUSH2 0x10BE JUMP JUMPDEST CALLVALUE DUP1 ISZERO PUSH2 0x505 JUMPI PUSH0 DUP1 REVERT JUMPDEST POP PUSH2 0x278 PUSH0 DUP1 MLOAD PUSH1 0x20 PUSH2 0x1F1B DUP4 CODECOPY DUP2 MLOAD SWAP2 MSTORE DUP2 JUMP JUMPDEST CALLVALUE DUP1 ISZERO PUSH2 0x525 JUMPI PUSH0 DUP1 REVERT JUMPDEST POP PUSH2 0x257 PUSH2 0x534 CALLDATASIZE PUSH1 0x4 PUSH2 0x19BB JUMP JUMPDEST PUSH2 0x10DA JUMP JUMPDEST CALLVALUE DUP1 ISZERO PUSH2 0x544 JUMPI PUSH0 DUP1 REVERT JUMPDEST POP PUSH2 0x278 PUSH32 0x189AB7A9244DF0848122154315AF71FE140F3DB0FE014031783B0946B8C9D2E3 DUP2 JUMP JUMPDEST PUSH0 PUSH1 0x1 PUSH1 0x1 PUSH1 0xE0 SHL SUB NOT DUP3 AND PUSH4 0x7965DB0B PUSH1 0xE0 SHL EQ DUP1 PUSH2 0x59C JUMPI POP PUSH4 0x1FFC9A7 PUSH1 0xE0 SHL PUSH1 0x1 PUSH1 0x1 PUSH1 0xE0 SHL SUB NOT DUP4 AND EQ JUMPDEST SWAP3 SWAP2 POP POP JUMP JUMPDEST PUSH2 0x5B9 PUSH0 DUP1 MLOAD PUSH1 0x20 PUSH2 0x1F5B DUP4 CODECOPY DUP2 MLOAD SWAP2 MSTORE CALLER PUSH2 0xAE4 JUMP JUMPDEST PUSH2 0x5DE JUMPI PUSH1 0x40 MLOAD PUSH3 0x461BCD PUSH1 0xE5 SHL DUP2 MSTORE PUSH1 0x4 ADD PUSH2 0x5D5 SWAP1 PUSH2 0x1BE1 JUMP JUMPDEST PUSH1 0x40 MLOAD DUP1 SWAP2 SUB SWAP1 REVERT JUMPDEST PUSH1 0x33 SLOAD DUP2 SWAP1 DUP2 LT PUSH2 0x601 JUMPI PUSH1 0x40 MLOAD PUSH3 0x461BCD PUSH1 0xE5 SHL DUP2 MSTORE PUSH1 0x4 ADD PUSH2 0x5D5 SWAP1 PUSH2 0x1C07 JUMP JUMPDEST DUP2 PUSH1 0x33 DUP2 DUP2 SLOAD DUP2 LT PUSH2 0x615 JUMPI PUSH2 0x615 PUSH2 0x1C3E JUMP JUMPDEST PUSH0 SWAP2 DUP3 MSTORE PUSH1 0x20 SWAP1 SWAP2 KECCAK256 PUSH1 0x3 PUSH1 0x5 SWAP1 SWAP3 MUL ADD ADD SLOAD PUSH1 0xFF AND ISZERO PUSH2 0x648 JUMPI PUSH1 0x40 MLOAD PUSH3 0x461BCD PUSH1 0xE5 SHL DUP2 MSTORE PUSH1 0x4 ADD PUSH2 0x5D5 SWAP1 PUSH2 0x1C52 JUMP JUMPDEST PUSH0 PUSH1 0x33 DUP5 DUP2 SLOAD DUP2 LT PUSH2 0x65C JUMPI PUSH2 0x65C PUSH2 0x1C3E JUMP JUMPDEST PUSH0 SWAP2 DUP3 MSTORE PUSH1 0x20 DUP1 DUP4 KECCAK256 DUP8 DUP5 MSTORE PUSH1 0x32 DUP3 MSTORE PUSH1 0x40 DUP1 DUP6 KECCAK256 CALLER DUP7 MSTORE SWAP1 SWAP3 MSTORE SWAP3 KECCAK256 SLOAD PUSH1 0x5 SWAP1 SWAP2 MUL SWAP1 SWAP2 ADD SWAP2 POP PUSH1 0xFF AND PUSH2 0x6D3 JUMPI PUSH1 0x40 MLOAD PUSH3 0x461BCD PUSH1 0xE5 SHL DUP2 MSTORE PUSH1 0x20 PUSH1 0x4 DUP3 ADD MSTORE PUSH1 0x19 PUSH1 0x24 DUP3 ADD MSTORE PUSH32 0x5472616E73616374696F6E206E6F7420636F6E6669726D656400000000000000 PUSH1 0x44 DUP3 ADD MSTORE PUSH1 0x64 ADD PUSH2 0x5D5 JUMP JUMPDEST PUSH1 0x1 DUP2 PUSH1 0x4 ADD PUSH0 DUP3 DUP3 SLOAD PUSH2 0x6E7 SWAP2 SWAP1 PUSH2 0x1C9D JUMP JUMPDEST SWAP1 SWAP2 SSTORE POP POP PUSH0 DUP5 DUP2 MSTORE PUSH1 0x32 PUSH1 0x20 SWAP1 DUP2 MSTORE PUSH1 0x40 DUP1 DUP4 KECCAK256 CALLER DUP1 DUP6 MSTORE SWAP3 MSTORE DUP1 DUP4 KECCAK256 DUP1 SLOAD PUSH1 0xFF NOT AND SWAP1 SSTORE MLOAD DUP7 SWAP3 PUSH32 0xE5C8875C5E14471F806F15F740CD9FD54937D151E9DCF8AD3BA988D6A285E67E SWAP2 LOG3 POP POP POP POP JUMP JUMPDEST PUSH0 SWAP1 DUP2 MSTORE PUSH0 DUP1 MLOAD PUSH1 0x20 PUSH2 0x1F3B DUP4 CODECOPY DUP2 MLOAD SWAP2 MSTORE PUSH1 0x20 MSTORE PUSH1 0x40 SWAP1 KECCAK256 PUSH1 0x1 ADD SLOAD SWAP1 JUMP JUMPDEST PUSH2 0x762 DUP3 PUSH2 0x739 JUMP JUMPDEST PUSH2 0x76B DUP2 PUSH2 0x12CF JUMP JUMPDEST PUSH2 0x775 DUP4 DUP4 PUSH2 0x12D9 JUMP JUMPDEST POP POP POP POP JUMP JUMPDEST PUSH1 0x1 PUSH1 0x1 PUSH1 0xA0 SHL SUB DUP2 AND CALLER EQ PUSH2 0x7A4 JUMPI PUSH1 0x40 MLOAD PUSH4 0x334BD919 PUSH1 0xE1 SHL DUP2 MSTORE PUSH1 0x4 ADD PUSH1 0x40 MLOAD DUP1 SWAP2 SUB SWAP1 REVERT JUMPDEST PUSH2 0x7AE DUP3 DUP3 PUSH2 0x137A JUMP JUMPDEST POP POP POP JUMP JUMPDEST PUSH0 DUP1 MLOAD PUSH1 0x20 PUSH2 0x1F1B DUP4 CODECOPY DUP2 MLOAD SWAP2 MSTORE PUSH2 0x7CA DUP2 PUSH2 0x12CF JUMP JUMPDEST PUSH2 0x7D2 PUSH2 0x13F3 JUMP JUMPDEST POP JUMP JUMPDEST PUSH2 0x7DD PUSH2 0x1444 JUMP JUMPDEST PUSH2 0x7E6 DUP3 PUSH2 0x14EA JUMP JUMPDEST PUSH2 0x7F0 DUP3 DUP3 PUSH2 0x1514 JUMP JUMPDEST POP POP JUMP JUMPDEST PUSH0 PUSH2 0x7FD PUSH2 0x15D0 JUMP JUMPDEST POP PUSH0 DUP1 MLOAD PUSH1 0x20 PUSH2 0x1EFB DUP4 CODECOPY DUP2 MLOAD SWAP2 MSTORE SWAP1 JUMP JUMPDEST PUSH2 0x817 PUSH2 0x1619 JUMP JUMPDEST PUSH1 0x40 MLOAD PUSH4 0x23B872DD PUSH1 0xE0 SHL DUP2 MSTORE CALLER PUSH1 0x4 DUP3 ADD MSTORE ADDRESS PUSH1 0x24 DUP3 ADD DUP2 SWAP1 MSTORE PUSH1 0x44 DUP3 ADD DUP4 SWAP1 MSTORE SWAP1 DUP2 SWAP1 PUSH4 0x23B872DD SWAP1 PUSH1 0x64 ADD PUSH1 0x20 PUSH1 0x40 MLOAD DUP1 DUP4 SUB DUP2 PUSH0 DUP8 GAS CALL ISZERO DUP1 ISZERO PUSH2 0x861 JUMPI RETURNDATASIZE PUSH0 DUP1 RETURNDATACOPY RETURNDATASIZE PUSH0 REVERT JUMPDEST POP POP POP POP PUSH1 0x40 MLOAD RETURNDATASIZE PUSH1 0x1F NOT PUSH1 0x1F DUP3 ADD AND DUP3 ADD DUP1 PUSH1 0x40 MSTORE POP DUP2 ADD SWAP1 PUSH2 0x885 SWAP2 SWAP1 PUSH2 0x1CB0 JUMP JUMPDEST PUSH2 0x8C9 JUMPI PUSH1 0x40 MLOAD PUSH3 0x461BCD PUSH1 0xE5 SHL DUP2 MSTORE PUSH1 0x20 PUSH1 0x4 DUP3 ADD MSTORE PUSH1 0x15 PUSH1 0x24 DUP3 ADD MSTORE PUSH21 0x151BDAD95B881D1C985B9CD9995C8819985A5B1959 PUSH1 0x5A SHL PUSH1 0x44 DUP3 ADD MSTORE PUSH1 0x64 ADD PUSH2 0x5D5 JUMP JUMPDEST PUSH1 0x40 DUP1 MLOAD DUP1 DUP3 ADD DUP3 MSTORE DUP4 DUP2 MSTORE TIMESTAMP PUSH1 0x20 DUP1 DUP4 ADD DUP3 DUP2 MSTORE CALLER PUSH0 DUP2 DUP2 MSTORE PUSH1 0x35 DUP5 MSTORE DUP7 SWAP1 KECCAK256 SWAP5 MLOAD DUP6 SSTORE SWAP1 MLOAD PUSH1 0x1 SWAP1 SWAP5 ADD SWAP4 SWAP1 SWAP4 SSTORE DUP4 MLOAD DUP7 DUP2 MSTORE SWAP1 DUP2 ADD SWAP2 SWAP1 SWAP2 MSTORE SWAP1 SWAP2 PUSH32 0xDD2A19C3BDD089CBE77C04F5655F83DE0504D6140D12C8667646F55D0557C4DC SWAP2 ADD PUSH1 0x40 MLOAD DUP1 SWAP2 SUB SWAP1 LOG2 POP POP JUMP JUMPDEST PUSH32 0xF0C57E16840DF040F15088DC2F81FE391C3923BEC73E23A9662EFC9C229C6A00 DUP1 SLOAD PUSH1 0x1 PUSH1 0x40 SHL DUP2 DIV PUSH1 0xFF AND ISZERO SWAP1 PUSH8 0xFFFFFFFFFFFFFFFF AND PUSH0 DUP2 ISZERO DUP1 ISZERO PUSH2 0x97B JUMPI POP DUP3 JUMPDEST SWAP1 POP PUSH0 DUP3 PUSH8 0xFFFFFFFFFFFFFFFF AND PUSH1 0x1 EQ DUP1 ISZERO PUSH2 0x997 JUMPI POP ADDRESS EXTCODESIZE ISZERO JUMPDEST SWAP1 POP DUP2 ISZERO DUP1 ISZERO PUSH2 0x9A5 JUMPI POP DUP1 ISZERO JUMPDEST ISZERO PUSH2 0x9C3 JUMPI PUSH1 0x40 MLOAD PUSH4 0xF92EE8A9 PUSH1 0xE0 SHL DUP2 MSTORE PUSH1 0x4 ADD PUSH1 0x40 MLOAD DUP1 SWAP2 SUB SWAP1 REVERT JUMPDEST DUP5 SLOAD PUSH8 0xFFFFFFFFFFFFFFFF NOT AND PUSH1 0x1 OR DUP6 SSTORE DUP4 ISZERO PUSH2 0x9ED JUMPI DUP5 SLOAD PUSH1 0xFF PUSH1 0x40 SHL NOT AND PUSH1 0x1 PUSH1 0x40 SHL OR DUP6 SSTORE JUMPDEST PUSH2 0x9F5 PUSH2 0x165E JUMP JUMPDEST PUSH2 0x9FD PUSH2 0x1666 JUMP JUMPDEST PUSH2 0xA05 PUSH2 0x165E JUMP JUMPDEST PUSH2 0xA0F PUSH0 DUP10 PUSH2 0x12D9 JUMP JUMPDEST POP PUSH2 0xA27 PUSH0 DUP1 MLOAD PUSH1 0x20 PUSH2 0x1F1B DUP4 CODECOPY DUP2 MLOAD SWAP2 MSTORE DUP10 PUSH2 0x12D9 JUMP JUMPDEST POP PUSH2 0xA3F PUSH0 DUP1 MLOAD PUSH1 0x20 PUSH2 0x1F5B DUP4 CODECOPY DUP2 MLOAD SWAP2 MSTORE DUP10 PUSH2 0x12D9 JUMP JUMPDEST POP PUSH2 0xA6A PUSH32 0x189AB7A9244DF0848122154315AF71FE140F3DB0FE014031783B0946B8C9D2E3 DUP10 PUSH2 0x12D9 JUMP JUMPDEST POP PUSH1 0x34 DUP8 SWAP1 SSTORE PUSH1 0x36 DUP7 SWAP1 SSTORE DUP4 ISZERO PUSH2 0xABB JUMPI DUP5 SLOAD PUSH1 0xFF PUSH1 0x40 SHL NOT AND DUP6 SSTORE PUSH1 0x40 MLOAD PUSH1 0x1 DUP2 MSTORE PUSH32 0xC7F505B2F371AE2175EE4913F4499E1F2633A7B5936321EED1CDAEB6115181D2 SWAP1 PUSH1 0x20 ADD PUSH1 0x40 MLOAD DUP1 SWAP2 SUB SWAP1 LOG1 JUMPDEST POP POP POP POP POP POP POP POP JUMP JUMPDEST PUSH0 DUP1 MLOAD PUSH1 0x20 PUSH2 0x1F1B DUP4 CODECOPY DUP2 MLOAD SWAP2 MSTORE PUSH2 0xADC DUP2 PUSH2 0x12CF JUMP JUMPDEST PUSH2 0x7D2 PUSH2 0x1676 JUMP JUMPDEST PUSH0 SWAP2 DUP3 MSTORE PUSH0 DUP1 MLOAD PUSH1 0x20 PUSH2 0x1F3B DUP4 CODECOPY DUP2 MLOAD SWAP2 MSTORE PUSH1 0x20 SWAP1 DUP2 MSTORE PUSH1 0x40 DUP1 DUP5 KECCAK256 PUSH1 0x1 PUSH1 0x1 PUSH1 0xA0 SHL SUB SWAP4 SWAP1 SWAP4 AND DUP5 MSTORE SWAP2 SWAP1 MSTORE SWAP1 KECCAK256 SLOAD PUSH1 0xFF AND SWAP1 JUMP JUMPDEST PUSH1 0x33 DUP2 DUP2 SLOAD DUP2 LT PUSH2 0xB29 JUMPI PUSH0 DUP1 REVERT JUMPDEST PUSH0 SWAP2 DUP3 MSTORE PUSH1 0x20 SWAP1 SWAP2 KECCAK256 PUSH1 0x5 SWAP1 SWAP2 MUL ADD DUP1 SLOAD PUSH1 0x1 DUP3 ADD SLOAD PUSH1 0x2 DUP4 ADD DUP1 SLOAD PUSH1 0x1 PUSH1 0x1 PUSH1 0xA0 SHL SUB SWAP1 SWAP4 AND SWAP5 POP SWAP1 SWAP3 SWAP2 PUSH2 0xB5E SWAP1 PUSH2 0x1CCF JUMP JUMPDEST DUP1 PUSH1 0x1F ADD PUSH1 0x20 DUP1 SWAP2 DIV MUL PUSH1 0x20 ADD PUSH1 0x40 MLOAD SWAP1 DUP2 ADD PUSH1 0x40 MSTORE DUP1 SWAP3 SWAP2 SWAP1 DUP2 DUP2 MSTORE PUSH1 0x20 ADD DUP3 DUP1 SLOAD PUSH2 0xB8A SWAP1 PUSH2 0x1CCF JUMP JUMPDEST DUP1 ISZERO PUSH2 0xBD5 JUMPI DUP1 PUSH1 0x1F LT PUSH2 0xBAC JUMPI PUSH2 0x100 DUP1 DUP4 SLOAD DIV MUL DUP4 MSTORE SWAP2 PUSH1 0x20 ADD SWAP2 PUSH2 0xBD5 JUMP JUMPDEST DUP3 ADD SWAP2 SWAP1 PUSH0 MSTORE PUSH1 0x20 PUSH0 KECCAK256 SWAP1 JUMPDEST DUP2 SLOAD DUP2 MSTORE SWAP1 PUSH1 0x1 ADD SWAP1 PUSH1 0x20 ADD DUP1 DUP4 GT PUSH2 0xBB8 JUMPI DUP3 SWAP1 SUB PUSH1 0x1F AND DUP3 ADD SWAP2 JUMPDEST POP POP POP POP PUSH1 0x3 DUP4 ADD SLOAD PUSH1 0x4 SWAP1 SWAP4 ADD SLOAD SWAP2 SWAP3 PUSH1 0xFF AND SWAP2 SWAP1 POP DUP6 JUMP JUMPDEST PUSH2 0xBF7 PUSH2 0x1619 JUMP JUMPDEST CALLER PUSH0 SWAP1 DUP2 MSTORE PUSH1 0x35 PUSH1 0x20 SWAP1 DUP2 MSTORE PUSH1 0x40 SWAP2 DUP3 SWAP1 KECCAK256 DUP3 MLOAD DUP1 DUP5 ADD SWAP1 SWAP4 MSTORE DUP1 SLOAD DUP1 DUP5 MSTORE PUSH1 0x1 SWAP1 SWAP2 ADD SLOAD SWAP2 DUP4 ADD SWAP2 SWAP1 SWAP2 MSTORE PUSH2 0xC62 JUMPI PUSH1 0x40 MLOAD PUSH3 0x461BCD PUSH1 0xE5 SHL DUP2 MSTORE PUSH1 0x20 PUSH1 0x4 DUP3 ADD MSTORE PUSH1 0x10 PUSH1 0x24 DUP3 ADD MSTORE PUSH16 0x139BC81D1BDAD95B9CC81CDD185AD959 PUSH1 0x82 SHL PUSH1 0x44 DUP3 ADD MSTORE PUSH1 0x64 ADD PUSH2 0x5D5 JUMP JUMPDEST PUSH0 DUP2 PUSH1 0x20 ADD MLOAD TIMESTAMP PUSH2 0xC73 SWAP2 SWAP1 PUSH2 0x1C9D JUMP JUMPDEST SWAP1 POP PUSH0 PUSH4 0x1E13380 DUP3 PUSH1 0x36 SLOAD DUP6 PUSH0 ADD MLOAD PUSH2 0xC8D SWAP2 SWAP1 PUSH2 0x1D07 JUMP JUMPDEST PUSH2 0xC97 SWAP2 SWAP1 PUSH2 0x1D07 JUMP JUMPDEST PUSH2 0xCA1 SWAP2 SWAP1 PUSH2 0x1D1E JUMP JUMPDEST DUP4 MLOAD SWAP1 SWAP2 POP ADDRESS SWAP1 DUP2 SWAP1 PUSH4 0xA9059CBB SWAP1 CALLER SWAP1 PUSH2 0xCBD SWAP1 DUP7 SWAP1 PUSH2 0x1D3D JUMP JUMPDEST PUSH1 0x40 MLOAD PUSH1 0x1 PUSH1 0x1 PUSH1 0xE0 SHL SUB NOT PUSH1 0xE0 DUP6 SWAP1 SHL AND DUP2 MSTORE PUSH1 0x1 PUSH1 0x1 PUSH1 0xA0 SHL SUB SWAP1 SWAP3 AND PUSH1 0x4 DUP4 ADD MSTORE PUSH1 0x24 DUP3 ADD MSTORE PUSH1 0x44 ADD PUSH1 0x20 PUSH1 0x40 MLOAD DUP1 DUP4 SUB DUP2 PUSH0 DUP8 GAS CALL ISZERO DUP1 ISZERO PUSH2 0xD05 JUMPI RETURNDATASIZE PUSH0 DUP1 RETURNDATACOPY RETURNDATASIZE PUSH0 REVERT JUMPDEST POP POP POP POP PUSH1 0x40 MLOAD RETURNDATASIZE PUSH1 0x1F NOT PUSH1 0x1F DUP3 ADD AND DUP3 ADD DUP1 PUSH1 0x40 MSTORE POP DUP2 ADD SWAP1 PUSH2 0xD29 SWAP2 SWAP1 PUSH2 0x1CB0 JUMP JUMPDEST PUSH2 0xD6D JUMPI PUSH1 0x40 MLOAD PUSH3 0x461BCD PUSH1 0xE5 SHL DUP2 MSTORE PUSH1 0x20 PUSH1 0x4 DUP3 ADD MSTORE PUSH1 0x15 PUSH1 0x24 DUP3 ADD MSTORE PUSH21 0x151BDAD95B881D1C985B9CD9995C8819985A5B1959 PUSH1 0x5A SHL PUSH1 0x44 DUP3 ADD MSTORE PUSH1 0x64 ADD PUSH2 0x5D5 JUMP JUMPDEST CALLER PUSH0 DUP2 DUP2 MSTORE PUSH1 0x35 PUSH1 0x20 SWAP1 DUP2 MSTORE PUSH1 0x40 DUP1 DUP4 KECCAK256 DUP4 DUP2 SSTORE PUSH1 0x1 ADD SWAP3 SWAP1 SWAP3 SSTORE DUP7 MLOAD DUP3 MLOAD SWAP1 DUP2 MSTORE SWAP1 DUP2 ADD DUP6 SWAP1 MSTORE PUSH32 0x6F2D3E000C89D37446B7C0374C0125068FF316D1E3EE302336478A8CD03C2336 SWAP2 ADD PUSH1 0x40 MLOAD DUP1 SWAP2 SUB SWAP1 LOG2 POP POP POP POP JUMP JUMPDEST PUSH2 0xDDD PUSH0 DUP1 MLOAD PUSH1 0x20 PUSH2 0x1F5B DUP4 CODECOPY DUP2 MLOAD SWAP2 MSTORE CALLER PUSH2 0xAE4 JUMP JUMPDEST PUSH2 0xDF9 JUMPI PUSH1 0x40 MLOAD PUSH3 0x461BCD PUSH1 0xE5 SHL DUP2 MSTORE PUSH1 0x4 ADD PUSH2 0x5D5 SWAP1 PUSH2 0x1BE1 JUMP JUMPDEST PUSH1 0x33 SLOAD DUP2 SWAP1 DUP2 LT PUSH2 0xE1C JUMPI PUSH1 0x40 MLOAD PUSH3 0x461BCD PUSH1 0xE5 SHL DUP2 MSTORE PUSH1 0x4 ADD PUSH2 0x5D5 SWAP1 PUSH2 0x1C07 JUMP JUMPDEST DUP2 PUSH1 0x33 DUP2 DUP2 SLOAD DUP2 LT PUSH2 0xE30 JUMPI PUSH2 0xE30 PUSH2 0x1C3E JUMP JUMPDEST PUSH0 SWAP2 DUP3 MSTORE PUSH1 0x20 SWAP1 SWAP2 KECCAK256 PUSH1 0x3 PUSH1 0x5 SWAP1 SWAP3 MUL ADD ADD SLOAD PUSH1 0xFF AND ISZERO PUSH2 0xE63 JUMPI PUSH1 0x40 MLOAD PUSH3 0x461BCD PUSH1 0xE5 SHL DUP2 MSTORE PUSH1 0x4 ADD PUSH2 0x5D5 SWAP1 PUSH2 0x1C52 JUMP JUMPDEST PUSH0 DUP4 DUP2 MSTORE PUSH1 0x32 PUSH1 0x20 SWAP1 DUP2 MSTORE PUSH1 0x40 DUP1 DUP4 KECCAK256 CALLER DUP5 MSTORE SWAP1 SWAP2 MSTORE SWAP1 KECCAK256 SLOAD DUP4 SWAP1 PUSH1 0xFF AND ISZERO PUSH2 0xECE JUMPI PUSH1 0x40 MLOAD PUSH3 0x461BCD PUSH1 0xE5 SHL DUP2 MSTORE PUSH1 0x20 PUSH1 0x4 DUP3 ADD MSTORE PUSH1 0x1D PUSH1 0x24 DUP3 ADD MSTORE PUSH32 0x5472616E73616374696F6E20616C726561647920636F6E6669726D6564000000 PUSH1 0x44 DUP3 ADD MSTORE PUSH1 0x64 ADD PUSH2 0x5D5 JUMP JUMPDEST PUSH0 PUSH1 0x33 DUP6 DUP2 SLOAD DUP2 LT PUSH2 0xEE2 JUMPI PUSH2 0xEE2 PUSH2 0x1C3E JUMP JUMPDEST SWAP1 PUSH0 MSTORE PUSH1 0x20 PUSH0 KECCAK256 SWAP1 PUSH1 0x5 MUL ADD SWAP1 POP PUSH1 0x1 DUP2 PUSH1 0x4 ADD PUSH0 DUP3 DUP3 SLOAD PUSH2 0xF04 SWAP2 SWAP1 PUSH2 0x1D3D JUMP JUMPDEST SWAP1 SWAP2 SSTORE POP POP PUSH0 DUP6 DUP2 MSTORE PUSH1 0x32 PUSH1 0x20 SWAP1 DUP2 MSTORE PUSH1 0x40 DUP1 DUP4 KECCAK256 CALLER DUP1 DUP6 MSTORE SWAP3 MSTORE DUP1 DUP4 KECCAK256 DUP1 SLOAD PUSH1 0xFF NOT AND PUSH1 0x1 OR SWAP1 SSTORE MLOAD DUP8 SWAP3 PUSH32 0xF8A17C9136A3AE33364FAC05EB088A3CBAFEE10C1889C88593E20EE2D8E4EB88 SWAP2 LOG3 POP POP POP POP POP JUMP JUMPDEST PUSH2 0xF71 PUSH0 DUP1 MLOAD PUSH1 0x20 PUSH2 0x1F5B DUP4 CODECOPY DUP2 MLOAD SWAP2 MSTORE CALLER PUSH2 0xAE4 JUMP JUMPDEST PUSH2 0xF8D JUMPI PUSH1 0x40 MLOAD PUSH3 0x461BCD PUSH1 0xE5 SHL DUP2 MSTORE PUSH1 0x4 ADD PUSH2 0x5D5 SWAP1 PUSH2 0x1BE1 JUMP JUMPDEST PUSH1 0x33 DUP1 SLOAD PUSH1 0x40 DUP1 MLOAD PUSH1 0xA0 DUP2 ADD DUP3 MSTORE PUSH1 0x1 PUSH1 0x1 PUSH1 0xA0 SHL SUB DUP8 DUP2 AND DUP3 MSTORE PUSH1 0x20 DUP3 ADD DUP8 DUP2 MSTORE SWAP3 DUP3 ADD DUP7 DUP2 MSTORE PUSH0 PUSH1 0x60 DUP5 ADD DUP2 SWAP1 MSTORE PUSH1 0x80 DUP5 ADD DUP2 SWAP1 MSTORE PUSH1 0x1 DUP7 ADD DUP8 SSTORE SWAP6 SWAP1 SWAP6 MSTORE DUP2 MLOAD PUSH32 0x82A75BDEEAE8604D839476AE9EFD8B0E15AA447E21BFD7F41283BB54E22C9A82 PUSH1 0x5 DUP7 MUL SWAP1 DUP2 ADD DUP1 SLOAD PUSH1 0x1 PUSH1 0x1 PUSH1 0xA0 SHL SUB NOT AND SWAP3 SWAP1 SWAP4 AND SWAP2 SWAP1 SWAP2 OR DUP3 SSTORE SWAP3 MLOAD PUSH32 0x82A75BDEEAE8604D839476AE9EFD8B0E15AA447E21BFD7F41283BB54E22C9A83 DUP5 ADD SSTORE SWAP4 MLOAD SWAP3 SWAP4 SWAP1 SWAP3 SWAP1 SWAP2 PUSH32 0x82A75BDEEAE8604D839476AE9EFD8B0E15AA447E21BFD7F41283BB54E22C9A84 ADD SWAP1 PUSH2 0x1069 SWAP1 DUP3 PUSH2 0x1D9B JUMP JUMPDEST POP PUSH1 0x60 DUP3 ADD MLOAD PUSH1 0x3 DUP3 ADD DUP1 SLOAD PUSH1 0xFF NOT AND SWAP2 ISZERO ISZERO SWAP2 SWAP1 SWAP2 OR SWAP1 SSTORE PUSH1 0x80 SWAP1 SWAP2 ADD MLOAD PUSH1 0x4 SWAP1 SWAP2 ADD SSTORE PUSH1 0x40 MLOAD DUP2 SWAP1 PUSH32 0xD0B5D9EAC097410294EC9F2CEE7CD185CF31AB46BABF3DFDBEAC8B222B03F2D1 SWAP1 PUSH0 SWAP1 LOG2 POP POP POP POP JUMP JUMPDEST PUSH2 0x10C7 DUP3 PUSH2 0x739 JUMP JUMPDEST PUSH2 0x10D0 DUP2 PUSH2 0x12CF JUMP JUMPDEST PUSH2 0x775 DUP4 DUP4 PUSH2 0x137A JUMP JUMPDEST PUSH2 0x10F1 PUSH0 DUP1 MLOAD PUSH1 0x20 PUSH2 0x1F5B DUP4 CODECOPY DUP2 MLOAD SWAP2 MSTORE CALLER PUSH2 0xAE4 JUMP JUMPDEST PUSH2 0x110D JUMPI PUSH1 0x40 MLOAD PUSH3 0x461BCD PUSH1 0xE5 SHL DUP2 MSTORE PUSH1 0x4 ADD PUSH2 0x5D5 SWAP1 PUSH2 0x1BE1 JUMP JUMPDEST PUSH1 0x33 SLOAD DUP2 SWAP1 DUP2 LT PUSH2 0x1130 JUMPI PUSH1 0x40 MLOAD PUSH3 0x461BCD PUSH1 0xE5 SHL DUP2 MSTORE PUSH1 0x4 ADD PUSH2 0x5D5 SWAP1 PUSH2 0x1C07 JUMP JUMPDEST DUP2 PUSH1 0x33 DUP2 DUP2 SLOAD DUP2 LT PUSH2 0x1144 JUMPI PUSH2 0x1144 PUSH2 0x1C3E JUMP JUMPDEST PUSH0 SWAP2 DUP3 MSTORE PUSH1 0x20 SWAP1 SWAP2 KECCAK256 PUSH1 0x3 PUSH1 0x5 SWAP1 SWAP3 MUL ADD ADD SLOAD PUSH1 0xFF AND ISZERO PUSH2 0x1177 JUMPI PUSH1 0x40 MLOAD PUSH3 0x461BCD PUSH1 0xE5 SHL DUP2 MSTORE PUSH1 0x4 ADD PUSH2 0x5D5 SWAP1 PUSH2 0x1C52 JUMP JUMPDEST PUSH0 PUSH1 0x33 DUP5 DUP2 SLOAD DUP2 LT PUSH2 0x118B JUMPI PUSH2 0x118B PUSH2 0x1C3E JUMP JUMPDEST SWAP1 PUSH0 MSTORE PUSH1 0x20 PUSH0 KECCAK256 SWAP1 PUSH1 0x5 MUL ADD SWAP1 POP PUSH1 0x34 SLOAD DUP2 PUSH1 0x4 ADD SLOAD LT ISZERO PUSH2 0x11E3 JUMPI PUSH1 0x40 MLOAD PUSH3 0x461BCD PUSH1 0xE5 SHL DUP2 MSTORE PUSH1 0x20 PUSH1 0x4 DUP3 ADD MSTORE PUSH1 0x11 PUSH1 0x24 DUP3 ADD MSTORE PUSH17 0x86C2DCDCDEE840CAF0CAC6EAE8CA40E8F PUSH1 0x7B SHL PUSH1 0x44 DUP3 ADD MSTORE PUSH1 0x64 ADD PUSH2 0x5D5 JUMP JUMPDEST PUSH1 0x3 DUP2 ADD DUP1 SLOAD PUSH1 0xFF NOT AND PUSH1 0x1 SWAP1 DUP2 OR SWAP1 SWAP2 SSTORE DUP2 SLOAD SWAP1 DUP3 ADD SLOAD PUSH1 0x40 MLOAD PUSH0 SWAP3 PUSH1 0x1 PUSH1 0x1 PUSH1 0xA0 SHL SUB AND SWAP2 SWAP1 PUSH2 0x1219 SWAP1 PUSH1 0x2 DUP7 ADD SWAP1 PUSH2 0x1E5B JUMP JUMPDEST PUSH0 PUSH1 0x40 MLOAD DUP1 DUP4 SUB DUP2 DUP6 DUP8 GAS CALL SWAP3 POP POP POP RETURNDATASIZE DUP1 PUSH0 DUP2 EQ PUSH2 0x1253 JUMPI PUSH1 0x40 MLOAD SWAP2 POP PUSH1 0x1F NOT PUSH1 0x3F RETURNDATASIZE ADD AND DUP3 ADD PUSH1 0x40 MSTORE RETURNDATASIZE DUP3 MSTORE RETURNDATASIZE PUSH0 PUSH1 0x20 DUP5 ADD RETURNDATACOPY PUSH2 0x1258 JUMP JUMPDEST PUSH1 0x60 SWAP2 POP JUMPDEST POP POP SWAP1 POP DUP1 PUSH2 0x129E JUMPI PUSH1 0x40 MLOAD PUSH3 0x461BCD PUSH1 0xE5 SHL DUP2 MSTORE PUSH1 0x20 PUSH1 0x4 DUP3 ADD MSTORE PUSH1 0x12 PUSH1 0x24 DUP3 ADD MSTORE PUSH18 0x151C985B9CD858DD1A5BDB8819985A5B1959 PUSH1 0x72 SHL PUSH1 0x44 DUP3 ADD MSTORE PUSH1 0x64 ADD PUSH2 0x5D5 JUMP JUMPDEST PUSH1 0x40 MLOAD DUP6 SWAP1 PUSH32 0x15ED165A284872EA7017F03DF402A0CADFBFAB588320FFAF83F160C2F82781C7 SWAP1 PUSH0 SWAP1 LOG2 POP POP POP POP POP JUMP JUMPDEST PUSH2 0x7D2 DUP2 CALLER PUSH2 0x16B2 JUMP JUMPDEST PUSH0 PUSH0 DUP1 MLOAD PUSH1 0x20 PUSH2 0x1F3B DUP4 CODECOPY DUP2 MLOAD SWAP2 MSTORE PUSH2 0x12F2 DUP5 DUP5 PUSH2 0xAE4 JUMP JUMPDEST PUSH2 0x1371 JUMPI PUSH0 DUP5 DUP2 MSTORE PUSH1 0x20 DUP3 DUP2 MSTORE PUSH1 0x40 DUP1 DUP4 KECCAK256 PUSH1 0x1 PUSH1 0x1 PUSH1 0xA0 SHL SUB DUP8 AND DUP5 MSTORE SWAP1 SWAP2 MSTORE SWAP1 KECCAK256 DUP1 SLOAD PUSH1 0xFF NOT AND PUSH1 0x1 OR SWAP1 SSTORE PUSH2 0x1327 CALLER SWAP1 JUMP JUMPDEST PUSH1 0x1 PUSH1 0x1 PUSH1 0xA0 SHL SUB AND DUP4 PUSH1 0x1 PUSH1 0x1 PUSH1 0xA0 SHL SUB AND DUP6 PUSH32 0x2F8788117E7EFF1D82E926EC794901D17C78024A50270940304540A733656F0D PUSH1 0x40 MLOAD PUSH1 0x40 MLOAD DUP1 SWAP2 SUB SWAP1 LOG4 PUSH1 0x1 SWAP2 POP POP PUSH2 0x59C JUMP JUMPDEST PUSH0 SWAP2 POP POP PUSH2 0x59C JUMP JUMPDEST PUSH0 PUSH0 DUP1 MLOAD PUSH1 0x20 PUSH2 0x1F3B DUP4 CODECOPY DUP2 MLOAD SWAP2 MSTORE PUSH2 0x1393 DUP5 DUP5 PUSH2 0xAE4 JUMP JUMPDEST ISZERO PUSH2 0x1371 JUMPI PUSH0 DUP5 DUP2 MSTORE PUSH1 0x20 DUP3 DUP2 MSTORE PUSH1 0x40 DUP1 DUP4 KECCAK256 PUSH1 0x1 PUSH1 0x1 PUSH1 0xA0 SHL SUB DUP8 AND DUP1 DUP6 MSTORE SWAP3 MSTORE DUP1 DUP4 KECCAK256 DUP1 SLOAD PUSH1 0xFF NOT AND SWAP1 SSTORE MLOAD CALLER SWAP3 DUP8 SWAP2 PUSH32 0xF6391F5C32D9C69D2A47EA670B442974B53935D1EDC7FD64EB21E047A839171B SWAP2 SWAP1 LOG4 PUSH1 0x1 SWAP2 POP POP PUSH2 0x59C JUMP JUMPDEST PUSH2 0x13FB PUSH2 0x16EB JUMP JUMPDEST PUSH0 DUP1 SLOAD PUSH1 0xFF NOT AND SWAP1 SSTORE PUSH32 0x5DB9EE0A495BF2E6FF9C91A7834C1BA4FDD244A5E8AA4E537BD38AEAE4B073AA CALLER JUMPDEST PUSH1 0x40 MLOAD PUSH1 0x1 PUSH1 0x1 PUSH1 0xA0 SHL SUB SWAP1 SWAP2 AND DUP2 MSTORE PUSH1 0x20 ADD PUSH1 0x40 MLOAD DUP1 SWAP2 SUB SWAP1 LOG1 JUMP JUMPDEST ADDRESS PUSH1 0x1 PUSH1 0x1 PUSH1 0xA0 SHL SUB PUSH32 0x0 AND EQ DUP1 PUSH2 0x14CA JUMPI POP PUSH32 0x0 PUSH1 0x1 PUSH1 0x1 PUSH1 0xA0 SHL SUB AND PUSH2 0x14BE PUSH0 DUP1 MLOAD PUSH1 0x20 PUSH2 0x1EFB DUP4 CODECOPY DUP2 MLOAD SWAP2 MSTORE SLOAD PUSH1 0x1 PUSH1 0x1 PUSH1 0xA0 SHL SUB AND SWAP1 JUMP JUMPDEST PUSH1 0x1 PUSH1 0x1 PUSH1 0xA0 SHL SUB AND EQ ISZERO JUMPDEST ISZERO PUSH2 0x14E8 JUMPI PUSH1 0x40 MLOAD PUSH4 0x703E46DD PUSH1 0xE1 SHL DUP2 MSTORE PUSH1 0x4 ADD PUSH1 0x40 MLOAD DUP1 SWAP2 SUB SWAP1 REVERT JUMPDEST JUMP JUMPDEST PUSH32 0x189AB7A9244DF0848122154315AF71FE140F3DB0FE014031783B0946B8C9D2E3 PUSH2 0x7F0 DUP2 PUSH2 0x12CF JUMP JUMPDEST DUP2 PUSH1 0x1 PUSH1 0x1 PUSH1 0xA0 SHL SUB AND PUSH4 0x52D1902D PUSH1 0x40 MLOAD DUP2 PUSH4 0xFFFFFFFF AND PUSH1 0xE0 SHL DUP2 MSTORE PUSH1 0x4 ADD PUSH1 0x20 PUSH1 0x40 MLOAD DUP1 DUP4 SUB DUP2 DUP7 GAS STATICCALL SWAP3 POP POP POP DUP1 ISZERO PUSH2 0x156E JUMPI POP PUSH1 0x40 DUP1 MLOAD PUSH1 0x1F RETURNDATASIZE SWAP1 DUP2 ADD PUSH1 0x1F NOT AND DUP3 ADD SWAP1 SWAP3 MSTORE PUSH2 0x156B SWAP2 DUP2 ADD SWAP1 PUSH2 0x1ECD JUMP JUMPDEST PUSH1 0x1 JUMPDEST PUSH2 0x1596 JUMPI PUSH1 0x40 MLOAD PUSH4 0x4C9C8CE3 PUSH1 0xE0 SHL DUP2 MSTORE PUSH1 0x1 PUSH1 0x1 PUSH1 0xA0 SHL SUB DUP4 AND PUSH1 0x4 DUP3 ADD MSTORE PUSH1 0x24 ADD PUSH2 0x5D5 JUMP JUMPDEST PUSH0 DUP1 MLOAD PUSH1 0x20 PUSH2 0x1EFB DUP4 CODECOPY DUP2 MLOAD SWAP2 MSTORE DUP2 EQ PUSH2 0x15C6 JUMPI PUSH1 0x40 MLOAD PUSH4 0x2A875269 PUSH1 0xE2 SHL DUP2 MSTORE PUSH1 0x4 DUP2 ADD DUP3 SWAP1 MSTORE PUSH1 0x24 ADD PUSH2 0x5D5 JUMP JUMPDEST PUSH2 0x7AE DUP4 DUP4 PUSH2 0x1733 JUMP JUMPDEST ADDRESS PUSH1 0x1 PUSH1 0x1 PUSH1 0xA0 SHL SUB PUSH32 0x0 AND EQ PUSH2 0x14E8 JUMPI PUSH1 0x40 MLOAD PUSH4 0x703E46DD PUSH1 0xE1 SHL DUP2 MSTORE PUSH1 0x4 ADD PUSH1 0x40 MLOAD DUP1 SWAP2 SUB SWAP1 REVERT JUMPDEST PUSH0 SLOAD PUSH1 0xFF AND ISZERO PUSH2 0x14E8 JUMPI PUSH1 0x40 MLOAD PUSH3 0x461BCD PUSH1 0xE5 SHL DUP2 MSTORE PUSH1 0x20 PUSH1 0x4 DUP3 ADD MSTORE PUSH1 0x10 PUSH1 0x24 DUP3 ADD MSTORE PUSH16 0x14185D5CD8589B194E881C185D5CD959 PUSH1 0x82 SHL PUSH1 0x44 DUP3 ADD MSTORE PUSH1 0x64 ADD PUSH2 0x5D5 JUMP JUMPDEST PUSH2 0x14E8 PUSH2 0x1788 JUMP JUMPDEST PUSH2 0x166E PUSH2 0x1788 JUMP JUMPDEST PUSH2 0x14E8 PUSH2 0x17D1 JUMP JUMPDEST PUSH2 0x167E PUSH2 0x1619 JUMP JUMPDEST PUSH0 DUP1 SLOAD PUSH1 0xFF NOT AND PUSH1 0x1 OR SWAP1 SSTORE PUSH32 0x62E78CEA01BEE320CD4E420270B5EA74000D11B0C9F74754EBDBFC544B05A258 PUSH2 0x1427 CALLER SWAP1 JUMP JUMPDEST PUSH2 0x16BC DUP3 DUP3 PUSH2 0xAE4 JUMP JUMPDEST PUSH2 0x7F0 JUMPI PUSH1 0x40 MLOAD PUSH4 0xE2517D3F PUSH1 0xE0 SHL DUP2 MSTORE PUSH1 0x1 PUSH1 0x1 PUSH1 0xA0 SHL SUB DUP3 AND PUSH1 0x4 DUP3 ADD MSTORE PUSH1 0x24 DUP2 ADD DUP4 SWAP1 MSTORE PUSH1 0x44 ADD PUSH2 0x5D5 JUMP JUMPDEST PUSH0 SLOAD PUSH1 0xFF AND PUSH2 0x14E8 JUMPI PUSH1 0x40 MLOAD PUSH3 0x461BCD PUSH1 0xE5 SHL DUP2 MSTORE PUSH1 0x20 PUSH1 0x4 DUP3 ADD MSTORE PUSH1 0x14 PUSH1 0x24 DUP3 ADD MSTORE PUSH20 0x14185D5CD8589B194E881B9BDD081C185D5CD959 PUSH1 0x62 SHL PUSH1 0x44 DUP3 ADD MSTORE PUSH1 0x64 ADD PUSH2 0x5D5 JUMP JUMPDEST PUSH2 0x173C DUP3 PUSH2 0x17E4 JUMP JUMPDEST PUSH1 0x40 MLOAD PUSH1 0x1 PUSH1 0x1 PUSH1 0xA0 SHL SUB DUP4 AND SWAP1 PUSH32 0xBC7CD75A20EE27FD9ADEBAB32041F755214DBC6BFFA90CC0225B39DA2E5C2D3B SWAP1 PUSH0 SWAP1 LOG2 DUP1 MLOAD ISZERO PUSH2 0x1780 JUMPI PUSH2 0x7AE DUP3 DUP3 PUSH2 0x1847 JUMP JUMPDEST PUSH2 0x7F0 PUSH2 0x18B9 JUMP JUMPDEST PUSH32 0xF0C57E16840DF040F15088DC2F81FE391C3923BEC73E23A9662EFC9C229C6A00 SLOAD PUSH1 0x1 PUSH1 0x40 SHL SWAP1 DIV PUSH1 0xFF AND PUSH2 0x14E8 JUMPI PUSH1 0x40 MLOAD PUSH4 0x1AFCD79F PUSH1 0xE3 SHL DUP2 MSTORE PUSH1 0x4 ADD PUSH1 0x40 MLOAD DUP1 SWAP2 SUB SWAP1 REVERT JUMPDEST PUSH2 0x17D9 PUSH2 0x1788 JUMP JUMPDEST PUSH0 DUP1 SLOAD PUSH1 0xFF NOT AND SWAP1 SSTORE JUMP JUMPDEST DUP1 PUSH1 0x1 PUSH1 0x1 PUSH1 0xA0 SHL SUB AND EXTCODESIZE PUSH0 SUB PUSH2 0x1819 JUMPI PUSH1 0x40 MLOAD PUSH4 0x4C9C8CE3 PUSH1 0xE0 SHL DUP2 MSTORE PUSH1 0x1 PUSH1 0x1 PUSH1 0xA0 SHL SUB DUP3 AND PUSH1 0x4 DUP3 ADD MSTORE PUSH1 0x24 ADD PUSH2 0x5D5 JUMP JUMPDEST PUSH0 DUP1 MLOAD PUSH1 0x20 PUSH2 0x1EFB DUP4 CODECOPY DUP2 MLOAD SWAP2 MSTORE DUP1 SLOAD PUSH1 0x1 PUSH1 0x1 PUSH1 0xA0 SHL SUB NOT AND PUSH1 0x1 PUSH1 0x1 PUSH1 0xA0 SHL SUB SWAP3 SWAP1 SWAP3 AND SWAP2 SWAP1 SWAP2 OR SWAP1 SSTORE JUMP JUMPDEST PUSH1 0x60 PUSH0 DUP1 DUP5 PUSH1 0x1 PUSH1 0x1 PUSH1 0xA0 SHL SUB AND DUP5 PUSH1 0x40 MLOAD PUSH2 0x1863 SWAP2 SWAP1 PUSH2 0x1EE4 JUMP JUMPDEST PUSH0 PUSH1 0x40 MLOAD DUP1 DUP4 SUB DUP2 DUP6 GAS DELEGATECALL SWAP2 POP POP RETURNDATASIZE DUP1 PUSH0 DUP2 EQ PUSH2 0x189B JUMPI PUSH1 0x40 MLOAD SWAP2 POP PUSH1 0x1F NOT PUSH1 0x3F RETURNDATASIZE ADD AND DUP3 ADD PUSH1 0x40 MSTORE RETURNDATASIZE DUP3 MSTORE RETURNDATASIZE PUSH0 PUSH1 0x20 DUP5 ADD RETURNDATACOPY PUSH2 0x18A0 JUMP JUMPDEST PUSH1 0x60 SWAP2 POP JUMPDEST POP SWAP2 POP SWAP2 POP PUSH2 0x18B0 DUP6 DUP4 DUP4 PUSH2 0x18D8 JUMP JUMPDEST SWAP6 SWAP5 POP POP POP POP POP JUMP JUMPDEST CALLVALUE ISZERO PUSH2 0x14E8 JUMPI PUSH1 0x40 MLOAD PUSH4 0xB398979F PUSH1 0xE0 SHL DUP2 MSTORE PUSH1 0x4 ADD PUSH1 0x40 MLOAD DUP1 SWAP2 SUB SWAP1 REVERT JUMPDEST PUSH1 0x60 DUP3 PUSH2 0x18ED JUMPI PUSH2 0x18E8 DUP3 PUSH2 0x1937 JUMP JUMPDEST PUSH2 0x1930 JUMP JUMPDEST DUP2 MLOAD ISZERO DUP1 ISZERO PUSH2 0x1904 JUMPI POP PUSH1 0x1 PUSH1 0x1 PUSH1 0xA0 SHL SUB DUP5 AND EXTCODESIZE ISZERO JUMPDEST ISZERO PUSH2 0x192D JUMPI PUSH1 0x40 MLOAD PUSH4 0x9996B315 PUSH1 0xE0 SHL DUP2 MSTORE PUSH1 0x1 PUSH1 0x1 PUSH1 0xA0 SHL SUB DUP6 AND PUSH1 0x4 DUP3 ADD MSTORE PUSH1 0x24 ADD PUSH2 0x5D5 JUMP JUMPDEST POP DUP1 JUMPDEST SWAP4 SWAP3 POP POP POP JUMP JUMPDEST DUP1 MLOAD ISZERO PUSH2 0x1947 JUMPI DUP1 MLOAD DUP1 DUP3 PUSH1 0x20 ADD REVERT JUMPDEST PUSH1 0x40 MLOAD PUSH4 0xA12F521 PUSH1 0xE1 SHL DUP2 MSTORE PUSH1 0x4 ADD PUSH1 0x40 MLOAD DUP1 SWAP2 SUB SWAP1 REVERT JUMPDEST PUSH0 PUSH1 0x20 DUP3 DUP5 SUB SLT ISZERO PUSH2 0x1970 JUMPI PUSH0 DUP1 REVERT JUMPDEST DUP2 CALLDATALOAD PUSH1 0x1 PUSH1 0x1 PUSH1 0xE0 SHL SUB NOT DUP2 AND DUP2 EQ PUSH2 0x1930 JUMPI PUSH0 DUP1 REVERT JUMPDEST DUP1 CALLDATALOAD PUSH1 0x1 PUSH1 0x1 PUSH1 0xA0 SHL SUB DUP2 AND DUP2 EQ PUSH2 0x199D JUMPI PUSH0 DUP1 REVERT JUMPDEST SWAP2 SWAP1 POP JUMP JUMPDEST PUSH0 PUSH1 0x20 DUP3 DUP5 SUB SLT ISZERO PUSH2 0x19B2 JUMPI PUSH0 DUP1 REVERT JUMPDEST PUSH2 0x1930 DUP3 PUSH2 0x1987 JUMP JUMPDEST PUSH0 PUSH1 0x20 DUP3 DUP5 SUB SLT ISZERO PUSH2 0x19CB JUMPI PUSH0 DUP1 REVERT JUMPDEST POP CALLDATALOAD SWAP2 SWAP1 POP JUMP JUMPDEST PUSH0 DUP1 PUSH1 0x40 DUP4 DUP6 SUB SLT ISZERO PUSH2 0x19E3 JUMPI PUSH0 DUP1 REVERT JUMPDEST DUP3 CALLDATALOAD SWAP2 POP PUSH2 0x19F3 PUSH1 0x20 DUP5 ADD PUSH2 0x1987 JUMP JUMPDEST SWAP1 POP SWAP3 POP SWAP3 SWAP1 POP JUMP JUMPDEST PUSH4 0x4E487B71 PUSH1 0xE0 SHL PUSH0 MSTORE PUSH1 0x41 PUSH1 0x4 MSTORE PUSH1 0x24 PUSH0 REVERT JUMPDEST PUSH0 DUP3 PUSH1 0x1F DUP4 ADD SLT PUSH2 0x1A1F JUMPI PUSH0 DUP1 REVERT JUMPDEST DUP2 CALLDATALOAD PUSH8 0xFFFFFFFFFFFFFFFF DUP1 DUP3 GT ISZERO PUSH2 0x1A3A JUMPI PUSH2 0x1A3A PUSH2 0x19FC JUMP JUMPDEST PUSH1 0x40 MLOAD PUSH1 0x1F DUP4 ADD PUSH1 0x1F NOT SWAP1 DUP2 AND PUSH1 0x3F ADD AND DUP2 ADD SWAP1 DUP3 DUP3 GT DUP2 DUP4 LT OR ISZERO PUSH2 0x1A62 JUMPI PUSH2 0x1A62 PUSH2 0x19FC JUMP JUMPDEST DUP2 PUSH1 0x40 MSTORE DUP4 DUP2 MSTORE DUP7 PUSH1 0x20 DUP6 DUP9 ADD ADD GT ISZERO PUSH2 0x1A7A JUMPI PUSH0 DUP1 REVERT JUMPDEST DUP4 PUSH1 0x20 DUP8 ADD PUSH1 0x20 DUP4 ADD CALLDATACOPY PUSH0 PUSH1 0x20 DUP6 DUP4 ADD ADD MSTORE DUP1 SWAP5 POP POP POP POP POP SWAP3 SWAP2 POP POP JUMP JUMPDEST PUSH0 DUP1 PUSH1 0x40 DUP4 DUP6 SUB SLT ISZERO PUSH2 0x1AAA JUMPI PUSH0 DUP1 REVERT JUMPDEST PUSH2 0x1AB3 DUP4 PUSH2 0x1987 JUMP JUMPDEST SWAP2 POP PUSH1 0x20 DUP4 ADD CALLDATALOAD PUSH8 0xFFFFFFFFFFFFFFFF DUP2 GT ISZERO PUSH2 0x1ACE JUMPI PUSH0 DUP1 REVERT JUMPDEST PUSH2 0x1ADA DUP6 DUP3 DUP7 ADD PUSH2 0x1A10 JUMP JUMPDEST SWAP2 POP POP SWAP3 POP SWAP3 SWAP1 POP JUMP JUMPDEST PUSH0 DUP1 PUSH0 PUSH1 0x60 DUP5 DUP7 SUB SLT ISZERO PUSH2 0x1AF6 JUMPI PUSH0 DUP1 REVERT JUMPDEST PUSH2 0x1AFF DUP5 PUSH2 0x1987 JUMP JUMPDEST SWAP6 PUSH1 0x20 DUP6 ADD CALLDATALOAD SWAP6 POP PUSH1 0x40 SWAP1 SWAP5 ADD CALLDATALOAD SWAP4 SWAP3 POP POP POP JUMP JUMPDEST PUSH0 DUP2 MLOAD DUP1 DUP5 MSTORE DUP1 PUSH1 0x20 DUP5 ADD PUSH1 0x20 DUP7 ADD MCOPY PUSH0 PUSH1 0x20 DUP3 DUP7 ADD ADD MSTORE PUSH1 0x20 PUSH1 0x1F NOT PUSH1 0x1F DUP4 ADD AND DUP6 ADD ADD SWAP2 POP POP SWAP3 SWAP2 POP POP JUMP JUMPDEST PUSH1 0x1 DUP1 PUSH1 0xA0 SHL SUB DUP7 AND DUP2 MSTORE DUP5 PUSH1 0x20 DUP3 ADD MSTORE PUSH1 0xA0 PUSH1 0x40 DUP3 ADD MSTORE PUSH0 PUSH2 0x1B68 PUSH1 0xA0 DUP4 ADD DUP7 PUSH2 0x1B14 JUMP JUMPDEST SWAP4 ISZERO ISZERO PUSH1 0x60 DUP4 ADD MSTORE POP PUSH1 0x80 ADD MSTORE SWAP4 SWAP3 POP POP POP JUMP JUMPDEST PUSH1 0x20 DUP2 MSTORE PUSH0 PUSH2 0x1930 PUSH1 0x20 DUP4 ADD DUP5 PUSH2 0x1B14 JUMP JUMPDEST PUSH0 DUP1 PUSH0 PUSH1 0x60 DUP5 DUP7 SUB SLT ISZERO PUSH2 0x1BA0 JUMPI PUSH0 DUP1 REVERT JUMPDEST PUSH2 0x1BA9 DUP5 PUSH2 0x1987 JUMP JUMPDEST SWAP3 POP PUSH1 0x20 DUP5 ADD CALLDATALOAD SWAP2 POP PUSH1 0x40 DUP5 ADD CALLDATALOAD PUSH8 0xFFFFFFFFFFFFFFFF DUP2 GT ISZERO PUSH2 0x1BCB JUMPI PUSH0 DUP1 REVERT JUMPDEST PUSH2 0x1BD7 DUP7 DUP3 DUP8 ADD PUSH2 0x1A10 JUMP JUMPDEST SWAP2 POP POP SWAP3 POP SWAP3 POP SWAP3 JUMP JUMPDEST PUSH1 0x20 DUP1 DUP3 MSTORE PUSH1 0xC SWAP1 DUP3 ADD MSTORE PUSH12 0x2737BA1030B71030B236B4B7 PUSH1 0xA1 SHL PUSH1 0x40 DUP3 ADD MSTORE PUSH1 0x60 ADD SWAP1 JUMP JUMPDEST PUSH1 0x20 DUP1 DUP3 MSTORE PUSH1 0x1A SWAP1 DUP3 ADD MSTORE PUSH32 0x5472616E73616374696F6E20646F6573206E6F74206578697374000000000000 PUSH1 0x40 DUP3 ADD MSTORE PUSH1 0x60 ADD SWAP1 JUMP JUMPDEST PUSH4 0x4E487B71 PUSH1 0xE0 SHL PUSH0 MSTORE PUSH1 0x32 PUSH1 0x4 MSTORE PUSH1 0x24 PUSH0 REVERT JUMPDEST PUSH1 0x20 DUP1 DUP3 MSTORE PUSH1 0x1C SWAP1 DUP3 ADD MSTORE PUSH32 0x5472616E73616374696F6E20616C726561647920657865637574656400000000 PUSH1 0x40 DUP3 ADD MSTORE PUSH1 0x60 ADD SWAP1 JUMP JUMPDEST PUSH4 0x4E487B71 PUSH1 0xE0 SHL PUSH0 MSTORE PUSH1 0x11 PUSH1 0x4 MSTORE PUSH1 0x24 PUSH0 REVERT JUMPDEST DUP2 DUP2 SUB DUP2 DUP2 GT ISZERO PUSH2 0x59C JUMPI PUSH2 0x59C PUSH2 0x1C89 JUMP JUMPDEST PUSH0 PUSH1 0x20 DUP3 DUP5 SUB SLT ISZERO PUSH2 0x1CC0 JUMPI PUSH0 DUP1 REVERT JUMPDEST DUP2 MLOAD DUP1 ISZERO ISZERO DUP2 EQ PUSH2 0x1930 JUMPI PUSH0 DUP1 REVERT JUMPDEST PUSH1 0x1 DUP2 DUP2 SHR SWAP1 DUP3 AND DUP1 PUSH2 0x1CE3 JUMPI PUSH1 0x7F DUP3 AND SWAP2 POP JUMPDEST PUSH1 0x20 DUP3 LT DUP2 SUB PUSH2 0x1D01 JUMPI PUSH4 0x4E487B71 PUSH1 0xE0 SHL PUSH0 MSTORE PUSH1 0x22 PUSH1 0x4 MSTORE PUSH1 0x24 PUSH0 REVERT JUMPDEST POP SWAP2 SWAP1 POP JUMP JUMPDEST DUP1 DUP3 MUL DUP2 ISZERO DUP3 DUP3 DIV DUP5 EQ OR PUSH2 0x59C JUMPI PUSH2 0x59C PUSH2 0x1C89 JUMP JUMPDEST PUSH0 DUP3 PUSH2 0x1D38 JUMPI PUSH4 0x4E487B71 PUSH1 0xE0 SHL PUSH0 MSTORE PUSH1 0x12 PUSH1 0x4 MSTORE PUSH1 0x24 PUSH0 REVERT JUMPDEST POP DIV SWAP1 JUMP JUMPDEST DUP1 DUP3 ADD DUP1 DUP3 GT ISZERO PUSH2 0x59C JUMPI PUSH2 0x59C PUSH2 0x1C89 JUMP JUMPDEST PUSH1 0x1F DUP3 GT ISZERO PUSH2 0x7AE JUMPI DUP1 PUSH0 MSTORE PUSH1 0x20 PUSH0 KECCAK256 PUSH1 0x1F DUP5 ADD PUSH1 0x5 SHR DUP2 ADD PUSH1 0x20 DUP6 LT ISZERO PUSH2 0x1D75 JUMPI POP DUP1 JUMPDEST PUSH1 0x1F DUP5 ADD PUSH1 0x5 SHR DUP3 ADD SWAP2 POP JUMPDEST DUP2 DUP2 LT ISZERO PUSH2 0x1D94 JUMPI PUSH0 DUP2 SSTORE PUSH1 0x1 ADD PUSH2 0x1D81 JUMP JUMPDEST POP POP POP POP POP JUMP JUMPDEST DUP2 MLOAD PUSH8 0xFFFFFFFFFFFFFFFF DUP2 GT ISZERO PUSH2 0x1DB5 JUMPI PUSH2 0x1DB5 PUSH2 0x19FC JUMP JUMPDEST PUSH2 0x1DC9 DUP2 PUSH2 0x1DC3 DUP5 SLOAD PUSH2 0x1CCF JUMP JUMPDEST DUP5 PUSH2 0x1D50 JUMP JUMPDEST PUSH1 0x20 DUP1 PUSH1 0x1F DUP4 GT PUSH1 0x1 DUP2 EQ PUSH2 0x1DFC JUMPI PUSH0 DUP5 ISZERO PUSH2 0x1DE5 JUMPI POP DUP6 DUP4 ADD MLOAD JUMPDEST PUSH0 NOT PUSH1 0x3 DUP7 SWAP1 SHL SHR NOT AND PUSH1 0x1 DUP6 SWAP1 SHL OR DUP6 SSTORE PUSH2 0x1E53 JUMP JUMPDEST PUSH0 DUP6 DUP2 MSTORE PUSH1 0x20 DUP2 KECCAK256 PUSH1 0x1F NOT DUP7 AND SWAP2 JUMPDEST DUP3 DUP2 LT ISZERO PUSH2 0x1E2A JUMPI DUP9 DUP7 ADD MLOAD DUP3 SSTORE SWAP5 DUP5 ADD SWAP5 PUSH1 0x1 SWAP1 SWAP2 ADD SWAP1 DUP5 ADD PUSH2 0x1E0B JUMP JUMPDEST POP DUP6 DUP3 LT ISZERO PUSH2 0x1E47 JUMPI DUP8 DUP6 ADD MLOAD PUSH0 NOT PUSH1 0x3 DUP9 SWAP1 SHL PUSH1 0xF8 AND SHR NOT AND DUP2 SSTORE JUMPDEST POP POP PUSH1 0x1 DUP5 PUSH1 0x1 SHL ADD DUP6 SSTORE JUMPDEST POP POP POP POP POP POP JUMP JUMPDEST PUSH0 DUP1 DUP4 SLOAD PUSH2 0x1E68 DUP2 PUSH2 0x1CCF JUMP JUMPDEST PUSH1 0x1 DUP3 DUP2 AND DUP1 ISZERO PUSH2 0x1E80 JUMPI PUSH1 0x1 DUP2 EQ PUSH2 0x1E95 JUMPI PUSH2 0x1EC1 JUMP JUMPDEST PUSH1 0xFF NOT DUP5 AND DUP8 MSTORE DUP3 ISZERO ISZERO DUP4 MUL DUP8 ADD SWAP5 POP PUSH2 0x1EC1 JUMP JUMPDEST DUP8 PUSH0 MSTORE PUSH1 0x20 DUP1 PUSH0 KECCAK256 PUSH0 JUMPDEST DUP6 DUP2 LT ISZERO PUSH2 0x1EB8 JUMPI DUP2 SLOAD DUP11 DUP3 ADD MSTORE SWAP1 DUP5 ADD SWAP1 DUP3 ADD PUSH2 0x1E9F JUMP JUMPDEST POP POP POP DUP3 DUP8 ADD SWAP5 POP JUMPDEST POP SWAP3 SWAP7 SWAP6 POP POP POP POP POP POP JUMP JUMPDEST PUSH0 PUSH1 0x20 DUP3 DUP5 SUB SLT ISZERO PUSH2 0x1EDD JUMPI PUSH0 DUP1 REVERT JUMPDEST POP MLOAD SWAP2 SWAP1 POP JUMP JUMPDEST PUSH0 DUP3 MLOAD DUP1 PUSH1 0x20 DUP6 ADD DUP5 MCOPY PUSH0 SWAP3 ADD SWAP2 DUP3 MSTORE POP SWAP2 SWAP1 POP JUMP INVALID CALLDATASIZE ADDMOD SWAP5 LOG1 EXTCODESIZE LOG1 LOG3 0x21 MOD PUSH8 0xC828492DB98DCA3E KECCAK256 PUSH23 0xCC3735A920A3CA505D382BBC65D7A28E3265B37A647492 SWAP16 CALLER PUSH6 0x21B332C1681B SWAP4 EXTCODEHASH PUSH13 0xB9F3376673440D862A02DD7BC7 0xDE 0xC4 0xDC 0xEE 0xDD 0xA7 PUSH22 0xE58DD541E08A116C6C53815C0BD028192F7B626800A4 SWAP9 SMOD KECCAK256 TLOAD 0xE4 0xD3 SSTORE MULMOD 0x2E CREATE2 0xA8 LOG1 DUP16 JUMP 0xE8 SWAP2 EXTCODECOPY DELEGATECALL LOG2 ADD 0xFB 0xE2 DUP8 DUP3 JUMPDEST MULMOD JUMP SWAP4 0xC2 OR PUSH22 0xA2646970667358221220E641AD3C449CCB231CC15355 PUSH18 0x73105EE11A6D50F55D942A6471DE7513FBB9 CODESIZE PUSH5 0x736F6C6343 STOP ADDMOD NOT STOP CALLER "
				},
				"gasEstimates": {
					"creation": {
						"codeDepositCost": "1622400",
						"executionCost": "infinite",
						"totalCost": "infinite"
					},
					"external": {
						"ADMIN_ROLE()": "infinite",
						"DEFAULT_ADMIN_ROLE()": "260",
						"PAUSER_ROLE()": "infinite",
						"UPGRADER_ROLE()": "304",
						"UPGRADE_INTERFACE_VERSION()": "infinite",
						"confirmTransaction(uint256)": "infinite",
						"executeTransaction(uint256)": "infinite",
						"getRoleAdmin(bytes32)": "infinite",
						"grantRole(bytes32,address)": "infinite",
						"hasRole(bytes32,address)": "infinite",
						"initialize(address,uint256,uint256)": "infinite",
						"isConfirmed(uint256,address)": "2726",
						"pause()": "infinite",
						"paused()": "2381",
						"proxiableUUID()": "infinite",
						"renounceRole(bytes32,address)": "29183",
						"requiredConfirmations()": "2340",
						"revokeConfirmation(uint256)": "infinite",
						"revokeRole(bytes32,address)": "infinite",
						"stakeTokens(uint256)": "infinite",
						"stakes(address)": "4724",
						"stakingRate()": "2361",
						"submitTransaction(address,uint256,bytes)": "infinite",
						"supportsInterface(bytes4)": "470",
						"transactions(uint256)": "infinite",
						"unpause()": "infinite",
						"unstakeTokens()": "infinite",
						"upgradeToAndCall(address,bytes)": "infinite"
					},
					"internal": {
						"_authorizeUpgrade(address)": "infinite"
					}
				},
				"methodIdentifiers": {
					"ADMIN_ROLE()": "75b238fc",
					"DEFAULT_ADMIN_ROLE()": "a217fddf",
					"PAUSER_ROLE()": "e63ab1e9",
					"UPGRADER_ROLE()": "f72c0d8b",
					"UPGRADE_INTERFACE_VERSION()": "ad3cb1cc",
					"confirmTransaction(uint256)": "c01a8c84",
					"executeTransaction(uint256)": "ee22610b",
					"getRoleAdmin(bytes32)": "248a9ca3",
					"grantRole(bytes32,address)": "2f2ff15d",
					"hasRole(bytes32,address)": "91d14854",
					"initialize(address,uint256,uint256)": "7a1ac61e",
					"isConfirmed(uint256,address)": "80f59a65",
					"pause()": "8456cb59",
					"paused()": "5c975abb",
					"proxiableUUID()": "52d1902d",
					"renounceRole(bytes32,address)": "36568abe",
					"requiredConfirmations()": "82e717f7",
					"revokeConfirmation(uint256)": "20ea8d86",
					"revokeRole(bytes32,address)": "d547741f",
					"stakeTokens(uint256)": "7547c7a3",
					"stakes(address)": "16934fc4",
					"stakingRate()": "c63a6ad2",
					"submitTransaction(address,uint256,bytes)": "c6427474",
					"supportsInterface(bytes4)": "01ffc9a7",
					"transactions(uint256)": "9ace38c2",
					"unpause()": "3f4ba83a",
					"unstakeTokens()": "a5ce413b",
					"upgradeToAndCall(address,bytes)": "4f1ef286"
				}
			},
			"storageLayout": {
				"storage": [
					{
						"astId": 820,
						"contract": "src/contract/CryptoQuestTheShardsOfGenesisWallet.sol:CryptoQuestTheShardsOfGenesisWallet",
						"label": "_paused",
						"offset": 0,
						"slot": "0",
						"type": "t_bool"
					},
					{
						"astId": 925,
						"contract": "src/contract/CryptoQuestTheShardsOfGenesisWallet.sol:CryptoQuestTheShardsOfGenesisWallet",
						"label": "__gap",
						"offset": 0,
						"slot": "1",
						"type": "t_array(t_uint256)49_storage"
					},
					{
						"astId": 2170,
						"contract": "src/contract/CryptoQuestTheShardsOfGenesisWallet.sol:CryptoQuestTheShardsOfGenesisWallet",
						"label": "isConfirmed",
						"offset": 0,
						"slot": "50",
						"type": "t_mapping(t_uint256,t_mapping(t_address,t_bool))"
					},
					{
						"astId": 2174,
						"contract": "src/contract/CryptoQuestTheShardsOfGenesisWallet.sol:CryptoQuestTheShardsOfGenesisWallet",
						"label": "transactions",
						"offset": 0,
						"slot": "51",
						"type": "t_array(t_struct(Transaction)2164_storage)dyn_storage"
					},
					{
						"astId": 2176,
						"contract": "src/contract/CryptoQuestTheShardsOfGenesisWallet.sol:CryptoQuestTheShardsOfGenesisWallet",
						"label": "requiredConfirmations",
						"offset": 0,
						"slot": "52",
						"type": "t_uint256"
					},
					{
						"astId": 2186,
						"contract": "src/contract/CryptoQuestTheShardsOfGenesisWallet.sol:CryptoQuestTheShardsOfGenesisWallet",
						"label": "stakes",
						"offset": 0,
						"slot": "53",
						"type": "t_mapping(t_address,t_struct(Stake)2181_storage)"
					},
					{
						"astId": 2188,
						"contract": "src/contract/CryptoQuestTheShardsOfGenesisWallet.sol:CryptoQuestTheShardsOfGenesisWallet",
						"label": "stakingRate",
						"offset": 0,
						"slot": "54",
						"type": "t_uint256"
					}
				],
				"types": {
					"t_address": {
						"encoding": "inplace",
						"label": "address",
						"numberOfBytes": "20"
					},
					"t_array(t_struct(Transaction)2164_storage)dyn_storage": {
						"base": "t_struct(Transaction)2164_storage",
						"encoding": "dynamic_array",
						"label": "struct CryptoQuestTheShardsOfGenesisWallet.Transaction[]",
						"numberOfBytes": "32"
					},
					"t_array(t_uint256)49_storage": {
						"base": "t_uint256",
						"encoding": "inplace",
						"label": "uint256[49]",
						"numberOfBytes": "1568"
					},
					"t_bool": {
						"encoding": "inplace",
						"label": "bool",
						"numberOfBytes": "1"
					},
					"t_bytes_storage": {
						"encoding": "bytes",
						"label": "bytes",
						"numberOfBytes": "32"
					},
					"t_mapping(t_address,t_bool)": {
						"encoding": "mapping",
						"key": "t_address",
						"label": "mapping(address => bool)",
						"numberOfBytes": "32",
						"value": "t_bool"
					},
					"t_mapping(t_address,t_struct(Stake)2181_storage)": {
						"encoding": "mapping",
						"key": "t_address",
						"label": "mapping(address => struct CryptoQuestTheShardsOfGenesisWallet.Stake)",
						"numberOfBytes": "32",
						"value": "t_struct(Stake)2181_storage"
					},
					"t_mapping(t_uint256,t_mapping(t_address,t_bool))": {
						"encoding": "mapping",
						"key": "t_uint256",
						"label": "mapping(uint256 => mapping(address => bool))",
						"numberOfBytes": "32",
						"value": "t_mapping(t_address,t_bool)"
					},
					"t_struct(Stake)2181_storage": {
						"encoding": "inplace",
						"label": "struct CryptoQuestTheShardsOfGenesisWallet.Stake",
						"members": [
							{
								"astId": 2178,
								"contract": "src/contract/CryptoQuestTheShardsOfGenesisWallet.sol:CryptoQuestTheShardsOfGenesisWallet",
								"label": "amount",
								"offset": 0,
								"slot": "0",
								"type": "t_uint256"
							},
							{
								"astId": 2180,
								"contract": "src/contract/CryptoQuestTheShardsOfGenesisWallet.sol:CryptoQuestTheShardsOfGenesisWallet",
								"label": "startTime",
								"offset": 0,
								"slot": "1",
								"type": "t_uint256"
							}
						],
						"numberOfBytes": "64"
					},
					"t_struct(Transaction)2164_storage": {
						"encoding": "inplace",
						"label": "struct CryptoQuestTheShardsOfGenesisWallet.Transaction",
						"members": [
							{
								"astId": 2155,
								"contract": "src/contract/CryptoQuestTheShardsOfGenesisWallet.sol:CryptoQuestTheShardsOfGenesisWallet",
								"label": "to",
								"offset": 0,
								"slot": "0",
								"type": "t_address"
							},
							{
								"astId": 2157,
								"contract": "src/contract/CryptoQuestTheShardsOfGenesisWallet.sol:CryptoQuestTheShardsOfGenesisWallet",
								"label": "value",
								"offset": 0,
								"slot": "1",
								"type": "t_uint256"
							},
							{
								"astId": 2159,
								"contract": "src/contract/CryptoQuestTheShardsOfGenesisWallet.sol:CryptoQuestTheShardsOfGenesisWallet",
								"label": "data",
								"offset": 0,
								"slot": "2",
								"type": "t_bytes_storage"
							},
							{
								"astId": 2161,
								"contract": "src/contract/CryptoQuestTheShardsOfGenesisWallet.sol:CryptoQuestTheShardsOfGenesisWallet",
								"label": "executed",
								"offset": 0,
								"slot": "3",
								"type": "t_bool"
							},
							{
								"astId": 2163,
								"contract": "src/contract/CryptoQuestTheShardsOfGenesisWallet.sol:CryptoQuestTheShardsOfGenesisWallet",
								"label": "numConfirmations",
								"offset": 0,
								"slot": "4",
								"type": "t_uint256"
							}
						],
						"numberOfBytes": "160"
					},
					"t_uint256": {
						"encoding": "inplace",
						"label": "uint256",
						"numberOfBytes": "32"
					}
				}
			},
			"userdoc": {
				"kind": "user",
				"methods": {},
				"version": 1
			}
		}
	}
}